{
  "contractName": "DeliveryHiring_P",
  "abi": [
    {
      "inputs": [
        {
          "internalType": "address",
          "name": "_applicationWallet",
          "type": "address"
        }
      ],
      "stateMutability": "nonpayable",
      "type": "constructor"
    },
    {
      "anonymous": false,
      "inputs": [
        {
          "indexed": false,
          "internalType": "string",
          "name": "_logMessage",
          "type": "string"
        }
      ],
      "name": "failEvent",
      "type": "event"
    },
    {
      "anonymous": false,
      "inputs": [
        {
          "indexed": false,
          "internalType": "string",
          "name": "_logMessage",
          "type": "string"
        }
      ],
      "name": "successEvent",
      "type": "event"
    },
    {
      "inputs": [
        {
          "internalType": "uint8",
          "name": "_weekDay",
          "type": "uint8"
        },
        {
          "internalType": "uint32",
          "name": "_hourOfDay",
          "type": "uint32"
        },
        {
          "internalType": "uint32",
          "name": "_accessDateTime",
          "type": "uint32"
        },
        {
          "internalType": "int256[]",
          "name": "_resultFromXpath",
          "type": "int256[]"
        }
      ],
      "name": "prohibition_requestDelivery",
      "outputs": [
        {
          "internalType": "bool",
          "name": "",
          "type": "bool"
        }
      ],
      "stateMutability": "nonpayable",
      "type": "function"
    },
    {
      "inputs": [],
      "name": "signContract",
      "outputs": [
        {
          "internalType": "bool",
          "name": "",
          "type": "bool"
        }
      ],
      "stateMutability": "nonpayable",
      "type": "function"
    },
    {
      "inputs": [
        {
          "internalType": "string",
          "name": "_name",
          "type": "string"
        },
        {
          "internalType": "address",
          "name": "_walletAddress",
          "type": "address"
        }
      ],
      "name": "changeApplicationParty",
      "outputs": [
        {
          "internalType": "bool",
          "name": "",
          "type": "bool"
        }
      ],
      "stateMutability": "nonpayable",
      "type": "function"
    },
    {
      "inputs": [],
      "name": "getProcessAddress",
      "outputs": [
        {
          "internalType": "address",
          "name": "",
          "type": "address"
        }
      ],
      "stateMutability": "view",
      "type": "function"
    },
    {
      "inputs": [],
      "name": "getApplicationAddress",
      "outputs": [
        {
          "internalType": "address",
          "name": "",
          "type": "address"
        }
      ],
      "stateMutability": "view",
      "type": "function"
    },
    {
      "inputs": [
        {
          "internalType": "address",
          "name": "_walletAddress",
          "type": "address"
        }
      ],
      "name": "getParty",
      "outputs": [
        {
          "components": [
            {
              "internalType": "string",
              "name": "name",
              "type": "string"
            },
            {
              "internalType": "address",
              "name": "walletAddress",
              "type": "address"
            },
            {
              "internalType": "bool",
              "name": "aware",
              "type": "bool"
            }
          ],
          "internalType": "struct EAI.Party",
          "name": "",
          "type": "tuple"
        }
      ],
      "stateMutability": "view",
      "type": "function"
    }
  ],
  "bytecode": "0x60806040523480156200001157600080fd5b5060405162003bd538038062003bd5833981810160405281019062000037919062000db9565b60016000806101000a81548160ff0219169083151502179055506363b14488600060016101000a81548163ffffffff021916908363ffffffff1602179055506365927808600060056101000a81548163ffffffff021916908363ffffffff160217905550620000e96040518060400160405280600f81526020017f44656c69766572792053797374656d00000000000000000000000000000000008152508260006200075a60201b62000e6e1760201c565b600160008201518160000190805190602001906200010992919062000b1d565b5060208201518160010160006101000a81548173ffffffffffffffffffffffffffffffffffffffff021916908373ffffffffffffffffffffffffffffffffffffffff16021790555060408201518160010160146101000a81548160ff021916908315150217905550905050620001c26040518060400160405280601381526020017f496e746567726174696f6e2050726f63657373000000000000000000000000008152503360016200075a60201b62000e6e1760201c565b60036000820151816000019080519060200190620001e292919062000b1d565b5060208201518160010160006101000a81548173ffffffffffffffffffffffffffffffffffffffff021916908373ffffffffffffffffffffffffffffffffffffffff16021790555060408201518160010160146101000a81548160ff0219169083151502179055509050506003600560003373ffffffffffffffffffffffffffffffffffffffff1673ffffffffffffffffffffffffffffffffffffffff1681526020019081526020016000206000820181600001908054620002a49062000e1a565b620002b192919062000bae565b506001820160009054906101000a900473ffffffffffffffffffffffffffffffffffffffff168160010160006101000a81548173ffffffffffffffffffffffffffffffffffffffff021916908373ffffffffffffffffffffffffffffffffffffffff1602179055506001820160149054906101000a900460ff168160010160146101000a81548160ff0219169083151502179055509050506001600560008373ffffffffffffffffffffffffffffffffffffffff1673ffffffffffffffffffffffffffffffffffffffff1681526020019081526020016000206000820181600001908054620003a09062000e1a565b620003ad92919062000bae565b506001820160009054906101000a900473ffffffffffffffffffffffffffffffffffffffff168160010160006101000a81548173ffffffffffffffffffffffffffffffffffffffff021916908373ffffffffffffffffffffffffffffffffffffffff1602179055506001820160149054906101000a900460ff168160010160146101000a81548160ff02191690831515021790555090505060066200046060066000620007a060201b62000eb21760201c565b9080600181540180825580915050600190039060005260206000200160009091909190915060008201518160000160006101000a81548160ff021916908360ff16021790555060208201518160000160016101000a81548160ff021916908360ff16021790555050506007620004e7620104286177886200089360201b62000f9b1760201c565b9080600181540180825580915050600190039060005260206000200160009091909190915060008201518160000160006101000a81548163ffffffff021916908363ffffffff16021790555060208201518160000160046101000a81548163ffffffff021916908363ffffffff160217905550505060086200057760056003620009a860201b620010a61760201c565b9080600181540180825580915050600190039060005260206000200160009091909190915060008201518160000160006101000a81548163ffffffff021916908363ffffffff16021790555060208201518160000160046101000a81548160ff021916908360ff16021790555060408201518160000160056101000a81548163ffffffff021916908363ffffffff16021790555060608201518160000160096101000a81548163ffffffff021916908363ffffffff160217905550608082015181600001600d6101000a81548163ffffffff021916908363ffffffff16021790555050506009620006e06040518060400160405280601081526020017f636f756e74282f2f6164647265737329000000000000000000000000000000008152506040518060400160405280600281526020017f3c3d000000000000000000000000000000000000000000000000000000000000815250600162000a2d60201b6200111f1760201c565b908060018154018082558091505060019003906000526020600020906003020160009091909190915060008201518160000190805190602001906200072792919062000b1d565b5060208201518160010190805190602001906200074692919062000b1d565b506040820151816002015550505062001028565b6200076462000c46565b60405180606001604052808581526020018473ffffffffffffffffffffffffffffffffffffffff16815260200183151581525090509392505050565b620007aa62000c7f565b8282600060ff168260ff1610158015620007cb5750600660ff168260ff1611155b6200080d576040517f08c379a0000000000000000000000000000000000000000000000000000000008152600401620008049062000ed6565b60405180910390fd5b600060ff168160ff16101580156200082c5750600660ff168160ff1611155b6200086e576040517f08c379a0000000000000000000000000000000000000000000000000000000008152600401620008659062000f6e565b60405180910390fd5b60405180604001604052808660ff1681526020018560ff168152509250505092915050565b6200089d62000c9f565b8282600063ffffffff168263ffffffff1610158015620008cc57506201517f63ffffffff168263ffffffff1611155b6200090e576040517f08c379a0000000000000000000000000000000000000000000000000000000008152600401620009059062000ed6565b60405180910390fd5b600063ffffffff168163ffffffff16101580156200093b57506201517f63ffffffff168163ffffffff1611155b6200097d576040517f08c379a0000000000000000000000000000000000000000000000000000000008152600401620009749062000f6e565b60405180910390fd5b60405180604001604052808663ffffffff1681526020018563ffffffff168152509250505092915050565b620009b262000cc5565b6000600460ff168360ff1611620009dc57620009d48362000a5b60201b60201c565b9050620009e1565b600190505b6040518060a001604052808563ffffffff1681526020018460ff1681526020018263ffffffff1681526020018563ffffffff168152602001600063ffffffff1681525091505092915050565b62000a3762000d0f565b60405180606001604052808581526020018481526020018381525090509392505050565b6000600460ff168260ff16111562000aaa576040517f08c379a000000000000000000000000000000000000000000000000000000000815260040162000aa19062001006565b60405180910390fd5b600060ff168260ff160362000ac3576001905062000b18565b600160ff168260ff160362000adc57603c905062000b18565b600260ff168260ff160362000af657610e10905062000b18565b600360ff168260ff160362000b115762015180905062000b18565b62093a8090505b919050565b82805462000b2b9062000e1a565b90600052602060002090601f01602090048101928262000b4f576000855562000b9b565b82601f1062000b6a57805160ff191683800117855562000b9b565b8280016001018555821562000b9b579182015b8281111562000b9a57825182559160200191906001019062000b7d565b5b50905062000baa919062000d30565b5090565b82805462000bbc9062000e1a565b90600052602060002090601f01602090048101928262000be0576000855562000c33565b82601f1062000bf3578054855562000c33565b8280016001018555821562000c3357600052602060002091601f016020900482015b8281111562000c3257825482559160010191906001019062000c15565b5b50905062000c42919062000d30565b5090565b604051806060016040528060608152602001600073ffffffffffffffffffffffffffffffffffffffff1681526020016000151581525090565b6040518060400160405280600060ff168152602001600060ff1681525090565b6040518060400160405280600063ffffffff168152602001600063ffffffff1681525090565b6040518060a00160405280600063ffffffff168152602001600060ff168152602001600063ffffffff168152602001600063ffffffff168152602001600063ffffffff1681525090565b60405180606001604052806060815260200160608152602001600081525090565b5b8082111562000d4b57600081600090555060010162000d31565b5090565b600080fd5b600073ffffffffffffffffffffffffffffffffffffffff82169050919050565b600062000d818262000d54565b9050919050565b62000d938162000d74565b811462000d9f57600080fd5b50565b60008151905062000db38162000d88565b92915050565b60006020828403121562000dd25762000dd162000d4f565b5b600062000de28482850162000da2565b91505092915050565b7f4e487b7100000000000000000000000000000000000000000000000000000000600052602260045260246000fd5b6000600282049050600182168062000e3357607f821691505b60208210810362000e495762000e4862000deb565b5b50919050565b600082825260208201905092915050565b7f546865205f7374617274446179206e6f7420726570726573656e74732061207660008201527f616c696420646179000000000000000000000000000000000000000000000000602082015250565b600062000ebe60288362000e4f565b915062000ecb8262000e60565b604082019050919050565b6000602082019050818103600083015262000ef18162000eaf565b9050919050565b7f546865205f656e64446179206e6f7420726570726573656e747320612076616c60008201527f6964206461790000000000000000000000000000000000000000000000000000602082015250565b600062000f5660268362000e4f565b915062000f638262000ef8565b604082019050919050565b6000602082019050818103600083015262000f898162000f47565b9050919050565b7f546865206d6574686f642067657454696d65496e5365636f6e647320646f657360008201527f6e277420776f726b20666f72204d4f4e544820616e6420594541520000000000602082015250565b600062000fee603b8362000e4f565b915062000ffb8262000f90565b604082019050919050565b60006020820190508181036000830152620010218162000fdf565b9050919050565b612b9d80620010386000396000f3fe608060405234801561001057600080fd5b50600436106100625760003560e01c80635e744c6a1461006757806370d8915a1461009757806385931911146100b5578063b8b4f1a0146100d3578063dcddde78146100f1578063fb6f824314610121575b600080fd5b610081600480360381019061007c9190611eff565b610151565b60405161008e9190611f76565b60405180910390f35b61009f610342565b6040516100ac9190611fa0565b60405180910390f35b6100bd6104a9565b6040516100ca9190611fa0565b60405180910390f35b6100db610611565b6040516100e89190611f76565b60405180910390f35b61010b6004803603810190610106919061212e565b61077b565b6040516101189190611f76565b60405180910390f35b61013b600480360381019061013691906121b1565b610bd8565b60405161014891906122d4565b60405180910390f35b60003373ffffffffffffffffffffffffffffffffffffffff16600360010160009054906101000a900473ffffffffffffffffffffffffffffffffffffffff1673ffffffffffffffffffffffffffffffffffffffff16146101e6576040517f08c379a00000000000000000000000000000000000000000000000000000000081526004016101dd90612379565b60405180910390fd5b600560006001800160009054906101000a900473ffffffffffffffffffffffffffffffffffffffff1673ffffffffffffffffffffffffffffffffffffffff1673ffffffffffffffffffffffffffffffffffffffff1681526020019081526020016000206000808201600061025a9190611aed565b6001820160006101000a81549073ffffffffffffffffffffffffffffffffffffffff02191690556001820160146101000a81549060ff021916905550506102a383836000610e6e565b600160008201518160000190805190602001906102c1929190611b2d565b5060208201518160010160006101000a81548173ffffffffffffffffffffffffffffffffffffffff021916908373ffffffffffffffffffffffffffffffffffffffff16021790555060408201518160010160146101000a81548160ff02191690831515021790555090505061033782600161114b565b506001905092915050565b60008060009054906101000a900460ff16610392576040517f08c379a0000000000000000000000000000000000000000000000000000000008152600401610389906123e5565b60405180910390fd5b3373ffffffffffffffffffffffffffffffffffffffff166001800160009054906101000a900473ffffffffffffffffffffffffffffffffffffffff1673ffffffffffffffffffffffffffffffffffffffff16148061044057503373ffffffffffffffffffffffffffffffffffffffff16600360010160009054906101000a900473ffffffffffffffffffffffffffffffffffffffff1673ffffffffffffffffffffffffffffffffffffffff16145b61047f576040517f08c379a000000000000000000000000000000000000000000000000000000000815260040161047690612477565b60405180910390fd5b6001800160009054906101000a900473ffffffffffffffffffffffffffffffffffffffff16905090565b60008060009054906101000a900460ff166104f9576040517f08c379a00000000000000000000000000000000000000000000000000000000081526004016104f0906123e5565b60405180910390fd5b3373ffffffffffffffffffffffffffffffffffffffff166001800160009054906101000a900473ffffffffffffffffffffffffffffffffffffffff1673ffffffffffffffffffffffffffffffffffffffff1614806105a757503373ffffffffffffffffffffffffffffffffffffffff16600360010160009054906101000a900473ffffffffffffffffffffffffffffffffffffffff1673ffffffffffffffffffffffffffffffffffffffff16145b6105e6576040517f08c379a00000000000000000000000000000000000000000000000000000000081526004016105dd90612477565b60405180910390fd5b600360010160009054906101000a900473ffffffffffffffffffffffffffffffffffffffff16905090565b60008060009054906101000a900460ff16610661576040517f08c379a0000000000000000000000000000000000000000000000000000000008152600401610658906123e5565b60405180910390fd5b3373ffffffffffffffffffffffffffffffffffffffff166001800160009054906101000a900473ffffffffffffffffffffffffffffffffffffffff1673ffffffffffffffffffffffffffffffffffffffff16146106f3576040517f08c379a00000000000000000000000000000000000000000000000000000000081526004016106ea90612509565b60405180910390fd5b600015156001800160149054906101000a900460ff1615151461074b576040517f08c379a000000000000000000000000000000000000000000000000000000000815260040161074290612575565b60405180910390fd5b60018060010160146101000a81548160ff02191690831515021790555061077333600161114b565b506001905090565b60008060009054906101000a900460ff166107cb576040517f08c379a00000000000000000000000000000000000000000000000000000000081526004016107c2906123e5565b60405180910390fd5b3373ffffffffffffffffffffffffffffffffffffffff16600360010160009054906101000a900473ffffffffffffffffffffffffffffffffffffffff1673ffffffffffffffffffffffffffffffffffffffff161461085e576040517f08c379a000000000000000000000000000000000000000000000000000000000815260040161085590612379565b60405180910390fd5b6108d485600660008154811061087757610876612595565b5b906000526020600020016040518060400160405290816000820160009054906101000a900460ff1660ff1660ff1681526020016000820160019054906101000a900460ff1660ff1660ff168152505061124e90919063ffffffff16565b8061096357506109628460076000815481106108f3576108f2612595565b5b906000526020600020016040518060400160405290816000820160009054906101000a900463ffffffff1663ffffffff1663ffffffff1681526020016000820160049054906101000a900463ffffffff1663ffffffff1663ffffffff16815250506112da90919063ffffffff16565b5b8061099c575061099a83600860008154811061098257610981612595565b5b9060005260206000200161138490919063ffffffff16565b155b80610b2c5750610b2b826000815181106109b9576109b8612595565b5b602002602001015160096000815481106109d6576109d5612595565b5b90600052602060002090600302016040518060600160405290816000820180546109ff906125f3565b80601f0160208091040260200160405190810160405280929190818152602001828054610a2b906125f3565b8015610a785780601f10610a4d57610100808354040283529160200191610a78565b820191906000526020600020905b815481529060010190602001808311610a5b57829003601f168201915b50505050508152602001600182018054610a91906125f3565b80601f0160208091040260200160405190810160405280929190818152602001828054610abd906125f3565b8015610b0a5780601f10610adf57610100808354040283529160200191610b0a565b820191906000526020600020905b815481529060010190602001808311610aed57829003601f168201915b505050505081526020016002820154815250506113fd90919063ffffffff16565b5b15610b6f577f66091b7dc2b097c8f60d5cd6aa99633b097f08d2eb1056f3e15361b22e0ea2ba604051610b5e906126bc565b60405180910390a160009050610bd0565b610b966008600081548110610b8757610b86612595565b5b906000526020600020016115ef565b7f95a1f3a1dafdd4c1af344e3d7c69a72cbce8a3f15fe1cf95a7f5bd23df2e71a1604051610bc390612728565b60405180910390a1600190505b949350505050565b610be0611bb3565b60008054906101000a900460ff16610c2d576040517f08c379a0000000000000000000000000000000000000000000000000000000008152600401610c24906123e5565b60405180910390fd5b3373ffffffffffffffffffffffffffffffffffffffff166001800160009054906101000a900473ffffffffffffffffffffffffffffffffffffffff1673ffffffffffffffffffffffffffffffffffffffff161480610cdb57503373ffffffffffffffffffffffffffffffffffffffff16600360010160009054906101000a900473ffffffffffffffffffffffffffffffffffffffff1673ffffffffffffffffffffffffffffffffffffffff16145b610d1a576040517f08c379a0000000000000000000000000000000000000000000000000000000008152600401610d1190612477565b60405180910390fd5b600560008373ffffffffffffffffffffffffffffffffffffffff1673ffffffffffffffffffffffffffffffffffffffff168152602001908152602001600020604051806060016040529081600082018054610d74906125f3565b80601f0160208091040260200160405190810160405280929190818152602001828054610da0906125f3565b8015610ded5780601f10610dc257610100808354040283529160200191610ded565b820191906000526020600020905b815481529060010190602001808311610dd057829003601f168201915b505050505081526020016001820160009054906101000a900473ffffffffffffffffffffffffffffffffffffffff1673ffffffffffffffffffffffffffffffffffffffff1673ffffffffffffffffffffffffffffffffffffffff1681526020016001820160149054906101000a900460ff1615151515815250509050919050565b610e76611bb3565b60405180606001604052808581526020018473ffffffffffffffffffffffffffffffffffffffff16815260200183151581525090509392505050565b610eba611bec565b8282600060ff168260ff1610158015610eda5750600660ff168260ff1611155b610f19576040517f08c379a0000000000000000000000000000000000000000000000000000000008152600401610f10906127ba565b60405180910390fd5b600060ff168160ff1610158015610f375750600660ff168160ff1611155b610f76576040517f08c379a0000000000000000000000000000000000000000000000000000000008152600401610f6d9061284c565b60405180910390fd5b60405180604001604052808660ff1681526020018560ff168152509250505092915050565b610fa3611c0c565b8282600063ffffffff168263ffffffff1610158015610fd157506201517f63ffffffff168263ffffffff1611155b611010576040517f08c379a0000000000000000000000000000000000000000000000000000000008152600401611007906127ba565b60405180910390fd5b600063ffffffff168163ffffffff161015801561103c57506201517f63ffffffff168163ffffffff1611155b61107b576040517f08c379a00000000000000000000000000000000000000000000000000000000081526004016110729061284c565b60405180910390fd5b60405180604001604052808663ffffffff1681526020018563ffffffff168152509250505092915050565b6110ae611c32565b6000600460ff168360ff16116110ce576110c783611634565b90506110d3565b600190505b6040518060a001604052808563ffffffff1681526020018460ff1681526020018263ffffffff1681526020018563ffffffff168152602001600063ffffffff1681525091505092915050565b611127611c7c565b60405180606001604052808581526020018481526020018381525090509392505050565b600081600560008573ffffffffffffffffffffffffffffffffffffffff1673ffffffffffffffffffffffffffffffffffffffff16815260200190815260200160002060008201816000019080546111a1906125f3565b6111ac929190611c9d565b506001820160009054906101000a900473ffffffffffffffffffffffffffffffffffffffff168160010160006101000a81548173ffffffffffffffffffffffffffffffffffffffff021916908373ffffffffffffffffffffffffffffffffffffffff1602179055506001820160149054906101000a900460ff168160010160146101000a81548160ff0219169083151502179055509050506001905092915050565b6000826020015160ff16836000015160ff16101561129d57826000015160ff168260ff161015801561128a5750826020015160ff168260ff1611155b1561129857600190506112d4565b6112cf565b826000015160ff168260ff161015806112c05750826020015160ff168260ff1611155b156112ce57600190506112d4565b5b600090505b92915050565b6000826020015163ffffffff16836000015163ffffffff16101561133b57826000015163ffffffff168263ffffffff16101580156113285750826020015163ffffffff168263ffffffff1611155b15611336576001905061137e565b611379565b826000015163ffffffff168263ffffffff1610158061136a5750826020015163ffffffff168263ffffffff1611155b15611378576001905061137e565b5b600090505b92915050565b60006113b68360000160049054906101000a900460ff1684600001600d9054906101000a900463ffffffff16846116eb565b156113c6576113c583836117b0565b5b60008360000160099054906101000a900463ffffffff1663ffffffff1611156113f257600190506113f7565b600090505b92915050565b60008083602001519050602160f81b816000815181106114205761141f612595565b5b602001015160f81c60f81b7effffffffffffffffffffffffffffffffffffffffffffffffffffffffffffff1916036114625783604001518314159150506115e9565b603d60f81b8160008151811061147b5761147a612595565b5b602001015160f81c60f81b7effffffffffffffffffffffffffffffffffffffffffffffffffffffffffffff1916036114bc57836040015183149150506115e9565b603c60f81b816000815181106114d5576114d4612595565b5b602001015160f81c60f81b7effffffffffffffffffffffffffffffffffffffffffffffffffffffffffffff19160361152f5760028151036115205783604001518313159150506115e9565b836040015183129150506115e9565b603e60f81b8160008151811061154857611547612595565b5b602001015160f81c60f81b7effffffffffffffffffffffffffffffffffffffffffffffffffffffffffffff1916036115a25760028151036115935783604001518312159150506115e9565b836040015183139150506115e9565b60006115e3576040517f08c379a00000000000000000000000000000000000000000000000000000000081526004016115da906128b8565b60405180910390fd5b60009150505b92915050565b60018160000160098282829054906101000a900463ffffffff166116139190612907565b92506101000a81548163ffffffff021916908363ffffffff16021790555050565b6000600460ff168260ff161115611680576040517f08c379a0000000000000000000000000000000000000000000000000000000008152600401611677906129ad565b60405180910390fd5b600060ff168260ff160361169757600190506116e6565b600160ff168260ff16036116ae57603c90506116e6565b600260ff168260ff16036116c657610e1090506116e6565b600360ff168260ff16036116df576201518090506116e6565b62093a8090505b919050565b600080849050600460ff168160ff1611611717578363ffffffff168363ffffffff1610159150506117a9565b600560ff168160ff160361177f5760006117368463ffffffff1661183d565b50915050600d8563ffffffff16148015611756575060018163ffffffff16145b15611766576001925050506117a9565b8463ffffffff168163ffffffff161015925050506117a9565b60006117908463ffffffff1661183d565b505090508463ffffffff168163ffffffff161015925050505b9392505050565b8160000160009054906101000a900463ffffffff168260000160096101000a81548163ffffffff021916908363ffffffff1602179055506118178260000160059054906101000a900463ffffffff168360000160049054906101000a900460ff16836119f0565b82600001600d6101000a81548163ffffffff021916908363ffffffff1602179055505050565b6000806000806201518063ffffffff16856118589190612a06565b9050600062253d8c62010bd98361186f9190612a37565b6118799190612a37565b9050600062023ab182600461188e9190612a71565b6118989190612aaf565b9050600460038262023ab16118ad9190612a71565b6118b79190612a37565b6118c19190612aaf565b826118cc9190612907565b9150600062164b096001846118e19190612a37565b610fa06118ee9190612a71565b6118f89190612aaf565b9050601f6004826105b561190c9190612a71565b6119169190612aaf565b846119219190612907565b61192b9190612a37565b9250600061098f84605061193f9190612a71565b6119499190612aaf565b9050600060508261098f61195d9190612a71565b6119679190612aaf565b856119729190612907565b9050600b826119819190612aaf565b945084600c6119909190612a71565b60028361199d9190612a37565b6119a79190612907565b915084836031866119b89190612907565b60646119c49190612a71565b6119ce9190612a37565b6119d89190612a37565b92508298508197508096505050505050509193909250565b6000600460ff168360ff1611611a1257611a0b838386611a83565b9050611a7c565b600560ff168360ff1603611a50576000611a318363ffffffff1661183d565b5063ffffffff16915050600181611a489190612ae0565b915050611a7c565b6000611a618363ffffffff1661183d565b505063ffffffff169050600181611a789190612ae0565b9150505b9392505050565b6000808284611a929190612b36565b905060008184611aa29190612907565b9050600460ff168660ff1603611ad5576203f4808186611ac29190612a37565b611acc9190612a37565b92505050611ae6565b8085611ae19190612a37565b925050505b9392505050565b508054611af9906125f3565b6000825580601f10611b0b5750611b2a565b601f016020900490600052602060002090810190611b299190611d2a565b5b50565b828054611b39906125f3565b90600052602060002090601f016020900481019282611b5b5760008555611ba2565b82601f10611b7457805160ff1916838001178555611ba2565b82800160010185558215611ba2579182015b82811115611ba1578251825591602001919060010190611b86565b5b509050611baf9190611d2a565b5090565b604051806060016040528060608152602001600073ffffffffffffffffffffffffffffffffffffffff1681526020016000151581525090565b6040518060400160405280600060ff168152602001600060ff1681525090565b6040518060400160405280600063ffffffff168152602001600063ffffffff1681525090565b6040518060a00160405280600063ffffffff168152602001600060ff168152602001600063ffffffff168152602001600063ffffffff168152602001600063ffffffff1681525090565b60405180606001604052806060815260200160608152602001600081525090565b828054611ca9906125f3565b90600052602060002090601f016020900481019282611ccb5760008555611d19565b82601f10611cdc5780548555611d19565b82800160010185558215611d1957600052602060002091601f016020900482015b82811115611d18578254825591600101919060010190611cfd565b5b509050611d269190611d2a565b5090565b5b80821115611d43576000816000905550600101611d2b565b5090565b6000604051905090565b600080fd5b600080fd5b600080fd5b600080fd5b6000601f19601f8301169050919050565b7f4e487b7100000000000000000000000000000000000000000000000000000000600052604160045260246000fd5b611dae82611d65565b810181811067ffffffffffffffff82111715611dcd57611dcc611d76565b5b80604052505050565b6000611de0611d47565b9050611dec8282611da5565b919050565b600067ffffffffffffffff821115611e0c57611e0b611d76565b5b611e1582611d65565b9050602081019050919050565b82818337600083830152505050565b6000611e44611e3f84611df1565b611dd6565b905082815260208101848484011115611e6057611e5f611d60565b5b611e6b848285611e22565b509392505050565b600082601f830112611e8857611e87611d5b565b5b8135611e98848260208601611e31565b91505092915050565b600073ffffffffffffffffffffffffffffffffffffffff82169050919050565b6000611ecc82611ea1565b9050919050565b611edc81611ec1565b8114611ee757600080fd5b50565b600081359050611ef981611ed3565b92915050565b60008060408385031215611f1657611f15611d51565b5b600083013567ffffffffffffffff811115611f3457611f33611d56565b5b611f4085828601611e73565b9250506020611f5185828601611eea565b9150509250929050565b60008115159050919050565b611f7081611f5b565b82525050565b6000602082019050611f8b6000830184611f67565b92915050565b611f9a81611ec1565b82525050565b6000602082019050611fb56000830184611f91565b92915050565b600060ff82169050919050565b611fd181611fbb565b8114611fdc57600080fd5b50565b600081359050611fee81611fc8565b92915050565b600063ffffffff82169050919050565b61200d81611ff4565b811461201857600080fd5b50565b60008135905061202a81612004565b92915050565b600067ffffffffffffffff82111561204b5761204a611d76565b5b602082029050602081019050919050565b600080fd5b6000819050919050565b61207481612061565b811461207f57600080fd5b50565b6000813590506120918161206b565b92915050565b60006120aa6120a584612030565b611dd6565b905080838252602082019050602084028301858111156120cd576120cc61205c565b5b835b818110156120f657806120e28882612082565b8452602084019350506020810190506120cf565b5050509392505050565b600082601f83011261211557612114611d5b565b5b8135612125848260208601612097565b91505092915050565b6000806000806080858703121561214857612147611d51565b5b600061215687828801611fdf565b94505060206121678782880161201b565b93505060406121788782880161201b565b925050606085013567ffffffffffffffff81111561219957612198611d56565b5b6121a587828801612100565b91505092959194509250565b6000602082840312156121c7576121c6611d51565b5b60006121d584828501611eea565b91505092915050565b600081519050919050565b600082825260208201905092915050565b60005b838110156122185780820151818401526020810190506121fd565b83811115612227576000848401525b50505050565b6000612238826121de565b61224281856121e9565b93506122528185602086016121fa565b61225b81611d65565b840191505092915050565b61226f81611ec1565b82525050565b61227e81611f5b565b82525050565b600060608301600083015184820360008601526122a1828261222d565b91505060208301516122b66020860182612266565b5060408301516122c96040860182612275565b508091505092915050565b600060208201905081810360008301526122ee8184612284565b905092915050565b600082825260208201905092915050565b7f4f6e6c79207468652070726f636573732063616e20657865637574652074686960008201527f73206f7065726174696f6e000000000000000000000000000000000000000000602082015250565b6000612363602b836122f6565b915061236e82612307565b604082019050919050565b6000602082019050818103600083015261239281612356565b9050919050565b7f5468697320636f6e747261637420697320646561637469766174656400000000600082015250565b60006123cf601c836122f6565b91506123da82612399565b602082019050919050565b600060208201905081810360008301526123fe816123c2565b9050919050565b7f4f6e6c79207468652070726f63657373206f7220746865206170706c6963617460008201527f696f6e2063616e20657865637574652074686973206f7065726174696f6e0000602082015250565b6000612461603e836122f6565b915061246c82612405565b604082019050919050565b6000602082019050818103600083015261249081612454565b9050919050565b7f4f6e6c7920746865206170706c69636174696f6e2063616e206578656375746560008201527f2074686973206f7065726174696f6e0000000000000000000000000000000000602082015250565b60006124f3602f836122f6565b91506124fe82612497565b604082019050919050565b60006020820190508181036000830152612522816124e6565b9050919050565b7f54686520636f6e747261637420697320616c7265616479207369676e65640000600082015250565b600061255f601e836122f6565b915061256a82612529565b602082019050919050565b6000602082019050818103600083015261258e81612552565b9050919050565b7f4e487b7100000000000000000000000000000000000000000000000000000000600052603260045260246000fd5b7f4e487b7100000000000000000000000000000000000000000000000000000000600052602260045260246000fd5b6000600282049050600182168061260b57607f821691505b60208210810361261e5761261d6125c4565b5b50919050565b7f52657175657374206f7065726174696f6e20706572666f726d6564206f75747360008201527f696465206f6620616c6c6f77656420686f757273206f72206c696d6974206f7060208201527f65726174696f6e20657863656564656400000000000000000000000000000000604082015250565b60006126a66050836122f6565b91506126b182612624565b606082019050919050565b600060208201905081810360008301526126d581612699565b9050919050565b7f5375636365737366756c20657865637574696f6e210000000000000000000000600082015250565b60006127126015836122f6565b915061271d826126dc565b602082019050919050565b6000602082019050818103600083015261274181612705565b9050919050565b7f546865205f7374617274446179206e6f7420726570726573656e74732061207660008201527f616c696420646179000000000000000000000000000000000000000000000000602082015250565b60006127a46028836122f6565b91506127af82612748565b604082019050919050565b600060208201905081810360008301526127d381612797565b9050919050565b7f546865205f656e64446179206e6f7420726570726573656e747320612076616c60008201527f6964206461790000000000000000000000000000000000000000000000000000602082015250565b60006128366026836122f6565b9150612841826127da565b604082019050919050565b6000602082019050818103600083015261286581612829565b9050919050565b7f436f6d70617269736f6e2073796d626f6c206973206e6f742076616c69640000600082015250565b60006128a2601e836122f6565b91506128ad8261286c565b602082019050919050565b600060208201905081810360008301526128d181612895565b9050919050565b7f4e487b7100000000000000000000000000000000000000000000000000000000600052601160045260246000fd5b600061291282611ff4565b915061291d83611ff4565b9250828210156129305761292f6128d8565b5b828203905092915050565b7f546865206d6574686f642067657454696d65496e5365636f6e647320646f657360008201527f6e277420776f726b20666f72204d4f4e544820616e6420594541520000000000602082015250565b6000612997603b836122f6565b91506129a28261293b565b604082019050919050565b600060208201905081810360008301526129c68161298a565b9050919050565b6000819050919050565b7f4e487b7100000000000000000000000000000000000000000000000000000000600052601260045260246000fd5b6000612a11826129cd565b9150612a1c836129cd565b925082612a2c57612a2b6129d7565b5b828204905092915050565b6000612a4282611ff4565b9150612a4d83611ff4565b92508263ffffffff03821115612a6657612a656128d8565b5b828201905092915050565b6000612a7c82611ff4565b9150612a8783611ff4565b92508163ffffffff0483118215151615612aa457612aa36128d8565b5b828202905092915050565b6000612aba82611ff4565b9150612ac583611ff4565b925082612ad557612ad46129d7565b5b828204905092915050565b6000612aeb826129cd565b9150612af6836129cd565b9250827fffffffffffffffffffffffffffffffffffffffffffffffffffffffffffffffff03821115612b2b57612b2a6128d8565b5b828201905092915050565b6000612b4182611ff4565b9150612b4c83611ff4565b925082612b5c57612b5b6129d7565b5b82820690509291505056fea2646970667358221220d4dbc11e5d66e9f98cf78d969bd1c940ce0599578f46ea90f6cc9fdceb84a89864736f6c634300080d0033",
  "immutableReferences": {},
  "source": "/* ========================== BEGIN: code for all contracts ====================== */\r\n//SPDX-License-Identifier: MIT\r\npragma solidity >0.8.4 < 0.8.14;\r\n\r\nimport \"../../lib/eai/EAI.sol\";\r\n\r\ncontract DeliveryHiring_P {\r\n    \r\n    bool activated;\r\n \r\n    uint32 beginDate; \r\n\tuint32 dueDate; \t\r\n    using EAI for EAI.Party;\r\n       \r\n    EAI.Party application;\r\n    EAI.Party process;\r\n    mapping(address=>EAI.Party) mapParty;\r\n\r\n    event failEvent(string _logMessage);\r\n    event successEvent(string _logMessage);\r\n\r\n/* --------------------------- END: code for all contracts ----------------------- */  \r\n\r\n\r\n/* =========== BEGIN: codes generated based in specific jabuti contract =================== */\r\n    \t\r\n//  1 STEP:  Import library to conditions/terms  ---------------------------------- \r\n    using EAI for EAI.WeekDaysInterval;\r\n    using EAI for EAI.TimeInterval;\r\n    using EAI for EAI.MaxNumberOfOperationByTime;\r\n    using EAI for EAI.MessageContent_Number;\r\n// ----------------------------------------------------------------------------------\r\n\r\n\r\n// 2 STEP: Identify and create the variables  from \" variable block\" ---------------  \r\n// - there are no variable block in this contracts\r\n// ----------------------------------------------------------------------------------\r\n\r\n\r\n// 3 STEP: Identify and create variables referring to the clauses terms ------------\r\n \tEAI.WeekDaysInterval[]  weekDaysInterval_C1; \t\r\n\tEAI.TimeInterval[] timeInterval_C1;\r\n    EAI.MaxNumberOfOperationByTime[] maxNumberOfOperationByTime_C1;\r\n    EAI.MessageContent_Number[] msgContent_number_C1;    \r\n// -----------------------------------------------------------------------------------\r\n\r\n\r\n// 4 STEP: Create the constructor method --------------------------------------------\r\nconstructor(address _applicationWallet){\r\n        activated = true;\r\n        // Catch the date from jabuti contract \r\n        beginDate = 1672561800;\r\n\t    dueDate = 1704097800;                \r\n        // Catch the name of the part for creaty the parties\r\n\t    application = EAI.createParty(\"Delivery System\", _applicationWallet, false);        \r\n        process = EAI.createParty(\"Integration Process\", msg.sender, true);\r\n        mapParty[msg.sender] = process;\r\n        mapParty[_applicationWallet] = application;\r\n\r\n// 5 STEP: Create the terms of the clauses, (check if some of them use a variable from variable block)\r\n        weekDaysInterval_C1.push(EAI.createWeekDaysInterval(EAI.SATURDAY, EAI.SUNDAY));\r\n        timeInterval_C1.push(EAI.createTimeInterval(66600,30600)); //TimeInterval(\"18:30:00\" to \"08:30:00\")\r\n        maxNumberOfOperationByTime_C1.push(EAI.createMaxNumberOfOperationByTime(5, EAI.DAY));// will be reject operation after the operation 5, that means, 6,7,8...\r\n\t\tmsgContent_number_C1.push(EAI.createMessageContent(\"count(//address)\", \"<=\", 1));               \r\n\t}\r\n \r\n// 6 STEP: Translate the clauses to functions\r\n\r\n    function prohibition_requestDelivery(\r\n        uint8 _weekDay, \r\n        uint32 _hourOfDay, \r\n        uint32 _accessDateTime,\r\n        int256[] memory _resultFromXpath\r\n        ) public onlyProcess() returns(bool){\r\n\r\n        if(\r\n            weekDaysInterval_C1[0].isIntoWeekDaysInterval(_weekDay) ||\r\n            timeInterval_C1[0].isIntoTimeInterval(_hourOfDay) ||\r\n            !maxNumberOfOperationByTime_C1[0].hasAvailableOperations_ByTime(_accessDateTime) ||\r\n            msgContent_number_C1[0].evaluateNumberContent(_resultFromXpath[0])\r\n        ){     \r\n            emit failEvent(\"Request operation performed outside of allowed hours or limit operation exceeded\");\r\n\t\t    return false;         \r\n        } else {\r\n            maxNumberOfOperationByTime_C1[0].decreaseOneOperation_ByTime(); \r\n            emit successEvent(\"Successful execution!\");\r\n            return true;\r\n        }\r\n\r\n    }\r\n  \r\n\r\n/* -------------- END: codes generated based in specific jabuti contract ------------- */\r\n\r\n\r\n/* ========================== BEGIN: code for all contracts ====================== */\r\n\r\n    /* the process sign the contract by default, the function signContract \r\n    is used to get the applicationParty signature*/      \r\n    function signContract() public onlyApplication() returns(bool) {\r\n        require(application.aware == false, \"The contract is already signed\");        \r\n        application.aware = true;  \r\n        updateMapParty(msg.sender, application);\r\n\t\treturn true;\r\n    }\r\n\r\n    function updateMapParty(address _walletAddress, EAI.Party storage _party)internal returns(bool){       \r\n        mapParty[_walletAddress] = _party;\r\n\t\treturn true;\r\n    }\r\n    \r\n    /* It only possible to change the name and the address of the party. \r\n    After change the  party, the new party need to sign the contract */\r\n    function changeApplicationParty(string memory _name, address _walletAddress) public returns(bool) {       \r\n        require(process.walletAddress == msg.sender, \"Only the process can execute this operation\");\r\n        delete mapParty[application.walletAddress];\r\n        application = EAI.createParty(_name, _walletAddress, false);          \r\n        updateMapParty(_walletAddress, application);\r\n        return true;       \r\n    }\r\n    \r\n    function getProcessAddress() public view onlyInvolvedParties returns(address){\r\n        return process.walletAddress;\r\n    }\r\n    \r\n    function getApplicationAddress() public view onlyInvolvedParties returns(address){\r\n        return application.walletAddress;\r\n    }\r\n\r\n    function getParty(address _walletAddress) public view onlyInvolvedParties returns(EAI.Party memory){\r\n        return mapParty[_walletAddress];\r\n    }\r\n\r\n     /* ==================================== MODIFIERS ==================================== */\r\n        modifier onlyApplication(){        \r\n            require(activated, \"This contract is deactivated\");            \r\n            require(application.walletAddress == msg.sender, \"Only the application can execute this operation\");\r\n            _;        \r\n    }\r\n\r\n    modifier onlyProcess(){\r\n        require(activated, \"This contract is deactivated\");\r\n        require(process.walletAddress == msg.sender, \"Only the process can execute this operation\");\r\n        _;\r\n    }\r\n\r\n    modifier onlyInvolvedParties(){\r\n        require(activated, \"This contract is deactivated\");\r\n        require(\r\n            (application.walletAddress == msg.sender || process.walletAddress == msg.sender ) ,\r\n            \"Only the process or the application can execute this operation\");\r\n        _;\r\n    }\r\n\r\n}\r\n/* --------------------------- END: code for all contracts ----------------------- */  \r\n\r\n\r\n",
  "sourcePath": "C:\\git-repository\\dsl-smart-contract-eai\\02-models\\002-ProofOfConcept\\contracts\\study-case-contracts\\001-delivery-hiring\\DeliveryHiring_P.sol",
  "compiler": {
    "name": "solc",
    "version": "0.8.13+commit.abaa5c0e.Emscripten.clang"
  },
  "schemaVersion": "3.4.13",
  "updatedAt": "2023-04-19T18:48:33.549Z",
  "devdoc": {
    "kind": "dev",
    "methods": {},
    "version": 1
  },
  "userdoc": {
    "kind": "user",
    "methods": {},
    "version": 1
  }
}