{
  "contractName": "DeliveryHiring_O",
  "abi": [
    {
      "inputs": [
        {
          "internalType": "address",
          "name": "_applicationWallet",
          "type": "address"
        }
      ],
      "stateMutability": "nonpayable",
      "type": "constructor"
    },
    {
      "anonymous": false,
      "inputs": [
        {
          "indexed": false,
          "internalType": "string",
          "name": "_logMessage",
          "type": "string"
        }
      ],
      "name": "failEvent",
      "type": "event"
    },
    {
      "anonymous": false,
      "inputs": [
        {
          "indexed": false,
          "internalType": "string",
          "name": "_logMessage",
          "type": "string"
        }
      ],
      "name": "successEvent",
      "type": "event"
    },
    {
      "inputs": [
        {
          "internalType": "uint32",
          "name": "_accessDateTime",
          "type": "uint32"
        }
      ],
      "name": "onlyForTest",
      "outputs": [],
      "stateMutability": "nonpayable",
      "type": "function"
    },
    {
      "inputs": [
        {
          "internalType": "uint32",
          "name": "_accessDateTime",
          "type": "uint32"
        },
        {
          "internalType": "int256[]",
          "name": "_xPathContent",
          "type": "int256[]"
        }
      ],
      "name": "responderOrder",
      "outputs": [
        {
          "internalType": "bool",
          "name": "",
          "type": "bool"
        }
      ],
      "stateMutability": "nonpayable",
      "type": "function"
    },
    {
      "inputs": [],
      "name": "signContract",
      "outputs": [
        {
          "internalType": "bool",
          "name": "",
          "type": "bool"
        }
      ],
      "stateMutability": "nonpayable",
      "type": "function"
    },
    {
      "inputs": [
        {
          "internalType": "string",
          "name": "_name",
          "type": "string"
        },
        {
          "internalType": "address",
          "name": "_walletAddress",
          "type": "address"
        }
      ],
      "name": "changeApplicationParty",
      "outputs": [
        {
          "internalType": "bool",
          "name": "",
          "type": "bool"
        }
      ],
      "stateMutability": "nonpayable",
      "type": "function"
    },
    {
      "inputs": [],
      "name": "getProcessAddress",
      "outputs": [
        {
          "internalType": "address",
          "name": "",
          "type": "address"
        }
      ],
      "stateMutability": "view",
      "type": "function"
    },
    {
      "inputs": [],
      "name": "getApplicationAddress",
      "outputs": [
        {
          "internalType": "address",
          "name": "",
          "type": "address"
        }
      ],
      "stateMutability": "view",
      "type": "function"
    },
    {
      "inputs": [
        {
          "internalType": "address",
          "name": "_walletAddress",
          "type": "address"
        }
      ],
      "name": "getParty",
      "outputs": [
        {
          "components": [
            {
              "internalType": "string",
              "name": "name",
              "type": "string"
            },
            {
              "internalType": "address",
              "name": "walletAddress",
              "type": "address"
            },
            {
              "internalType": "bool",
              "name": "aware",
              "type": "bool"
            }
          ],
          "internalType": "struct EAI.Party",
          "name": "",
          "type": "tuple"
        }
      ],
      "stateMutability": "view",
      "type": "function"
    },
    {
      "inputs": [],
      "name": "activateContract",
      "outputs": [],
      "stateMutability": "nonpayable",
      "type": "function"
    },
    {
      "inputs": [],
      "name": "deactivateContract",
      "outputs": [],
      "stateMutability": "nonpayable",
      "type": "function"
    }
  ],
  "bytecode": "0x60806040523480156200001157600080fd5b50604051620031ee380380620031ee8339818101604052810190620000379190620008ab565b60016000806101000a81548160ff0219169083151502179055506363b14488600060016101000a81548163ffffffff021916908363ffffffff1602179055506365927808600060056101000a81548163ffffffff021916908363ffffffff160217905550620000e96040518060400160405280600f81526020017f44656c69766572792053797374656d0000000000000000000000000000000000815250826000620005d260201b620013451760201c565b600160008201518160000190805190602001906200010992919062000679565b5060208201518160010160006101000a81548173ffffffffffffffffffffffffffffffffffffffff021916908373ffffffffffffffffffffffffffffffffffffffff16021790555060408201518160010160146101000a81548160ff021916908315150217905550905050620001c26040518060400160405280601381526020017f496e746567726174696f6e2050726f6365737300000000000000000000000000815250336001620005d260201b620013451760201c565b60036000820151816000019080519060200190620001e292919062000679565b5060208201518160010160006101000a81548173ffffffffffffffffffffffffffffffffffffffff021916908373ffffffffffffffffffffffffffffffffffffffff16021790555060408201518160010160146101000a81548160ff0219169083151502179055509050506003600560003373ffffffffffffffffffffffffffffffffffffffff1673ffffffffffffffffffffffffffffffffffffffff1681526020019081526020016000206000820181600001908054620002a4906200090c565b620002b19291906200070a565b506001820160009054906101000a900473ffffffffffffffffffffffffffffffffffffffff168160010160006101000a81548173ffffffffffffffffffffffffffffffffffffffff021916908373ffffffffffffffffffffffffffffffffffffffff1602179055506001820160149054906101000a900460ff168160010160146101000a81548160ff0219169083151502179055509050506001600560008373ffffffffffffffffffffffffffffffffffffffff1673ffffffffffffffffffffffffffffffffffffffff1681526020019081526020016000206000820181600001908054620003a0906200090c565b620003ad9291906200070a565b506001820160009054906101000a900473ffffffffffffffffffffffffffffffffffffffff168160010160006101000a81548173ffffffffffffffffffffffffffffffffffffffff021916908373ffffffffffffffffffffffffffffffffffffffff1602179055506001820160149054906101000a900460ff168160010160146101000a81548160ff02191690831515021790555090505060066200045e601e6200061860201b620013891760201c565b9080600181540180825580915050600190039060005260206000200160009091909190915060008201518160000160006101000a81548163ffffffff021916908363ffffffff16021790555060208201518160000160046101000a81548163ffffffff021916908363ffffffff16021790555050506007620005586040518060400160405280601281526020017f2f2f6275646765742f69642f74657874282900000000000000000000000000008152506040518060400160405280600281526020017f3e3d00000000000000000000000000000000000000000000000000000000000081525060006200064b60201b620013ba1760201c565b908060018154018082558091505060019003906000526020600020906003020160009091909190915060008201518160000190805190602001906200059f92919062000679565b506020820151816001019080519060200190620005be92919062000679565b506040820151816002015550505062000941565b620005dc620007a2565b60405180606001604052808581526020018473ffffffffffffffffffffffffffffffffffffffff16815260200183151581525090509392505050565b62000622620007db565b6040518060400160405280600063ffffffff1681526020018363ffffffff168152509050919050565b6200065562000801565b60405180606001604052808581526020018481526020018381525090509392505050565b82805462000687906200090c565b90600052602060002090601f016020900481019282620006ab5760008555620006f7565b82601f10620006c657805160ff1916838001178555620006f7565b82800160010185558215620006f7579182015b82811115620006f6578251825591602001919060010190620006d9565b5b50905062000706919062000822565b5090565b82805462000718906200090c565b90600052602060002090601f0160209004810192826200073c57600085556200078f565b82601f106200074f57805485556200078f565b828001600101855582156200078f57600052602060002091601f016020900482015b828111156200078e57825482559160010191906001019062000771565b5b5090506200079e919062000822565b5090565b604051806060016040528060608152602001600073ffffffffffffffffffffffffffffffffffffffff1681526020016000151581525090565b6040518060400160405280600063ffffffff168152602001600063ffffffff1681525090565b60405180606001604052806060815260200160608152602001600081525090565b5b808211156200083d57600081600090555060010162000823565b5090565b600080fd5b600073ffffffffffffffffffffffffffffffffffffffff82169050919050565b6000620008738262000846565b9050919050565b620008858162000866565b81146200089157600080fd5b50565b600081519050620008a5816200087a565b92915050565b600060208284031215620008c457620008c362000841565b5b6000620008d48482850162000894565b91505092915050565b7f4e487b7100000000000000000000000000000000000000000000000000000000600052602260045260246000fd5b600060028204905060018216806200092557607f821691505b6020821081036200093b576200093a620008dd565b5b50919050565b61289d80620009516000396000f3fe608060405234801561001057600080fd5b50600436106100935760003560e01c8063859319111161006657806385931911146101325780638fda356d14610150578063b8b4f1a01461015a578063bca353be14610178578063fb6f82431461018257610093565b80631e900392146100985780633bbd6e54146100b45780635e744c6a146100e457806370d8915a14610114575b600080fd5b6100b260048036038101906100ad9190611b83565b6101b2565b005b6100ce60048036038101906100c99190611d3f565b6102c6565b6040516100db9190611db6565b60405180910390f35b6100fe60048036038101906100f99190611ee4565b6107d9565b60405161010b9190611db6565b60405180910390f35b61011c6109ca565b6040516101299190611f4f565b60405180910390f35b61013a610b31565b6040516101479190611f4f565b60405180910390f35b610158610c99565b005b610162610def565b60405161016f9190611db6565b60405180910390f35b610180610f59565b005b61019c60048036038101906101979190611f6a565b6110af565b6040516101a9919061208d565b60405180910390f35b60008054906101000a900460ff166101ff576040517f08c379a00000000000000000000000000000000000000000000000000000000081526004016101f69061210c565b60405180910390fd5b3373ffffffffffffffffffffffffffffffffffffffff16600360010160009054906101000a900473ffffffffffffffffffffffffffffffffffffffff1673ffffffffffffffffffffffffffffffffffffffff1614610292576040517f08c379a00000000000000000000000000000000000000000000000000000000081526004016102899061219e565b60405180910390fd5b6102c38160066000815481106102ab576102aa6121be565b5b906000526020600020016113e690919063ffffffff16565b50565b60008060009054906101000a900460ff16610316576040517f08c379a000000000000000000000000000000000000000000000000000000000815260040161030d9061210c565b60405180910390fd5b3373ffffffffffffffffffffffffffffffffffffffff166001800160009054906101000a900473ffffffffffffffffffffffffffffffffffffffff1673ffffffffffffffffffffffffffffffffffffffff16146103a8576040517f08c379a000000000000000000000000000000000000000000000000000000000815260040161039f9061225f565b60405180910390fd5b6104fd600560003373ffffffffffffffffffffffffffffffffffffffff1673ffffffffffffffffffffffffffffffffffffffff168152602001908152602001600020604051806060016040529081600082018054610405906122ae565b80601f0160208091040260200160405190810160405280929190818152602001828054610431906122ae565b801561047e5780601f106104535761010080835404028352916020019161047e565b820191906000526020600020905b81548152906001019060200180831161046157829003601f168201915b505050505081526020016001820160009054906101000a900473ffffffffffffffffffffffffffffffffffffffff1673ffffffffffffffffffffffffffffffffffffffff1673ffffffffffffffffffffffffffffffffffffffff1681526020016001820160149054906101000a900460ff161515151581525050611451565b61053c576040517f08c379a000000000000000000000000000000000000000000000000000000000815260040161053390612377565b60405180910390fd5b6105c4836006600081548110610555576105546121be565b5b906000526020600020016040518060400160405290816000820160009054906101000a900463ffffffff1663ffffffff1663ffffffff1681526020016000820160049054906101000a900463ffffffff1663ffffffff1663ffffffff168152505061145f90919063ffffffff16565b1580156107565750610755826000815181106105e3576105e26121be565b5b60200260200101516007600081548110610600576105ff6121be565b5b9060005260206000209060030201604051806060016040529081600082018054610629906122ae565b80601f0160208091040260200160405190810160405280929190818152602001828054610655906122ae565b80156106a25780601f10610677576101008083540402835291602001916106a2565b820191906000526020600020905b81548152906001019060200180831161068557829003601f168201915b505050505081526020016001820180546106bb906122ae565b80601f01602080910402602001604051908101604052809291908181526020018280546106e7906122ae565b80156107345780601f1061070957610100808354040283529160200191610734565b820191906000526020600020905b81548152906001019060200180831161071757829003601f168201915b505050505081526020016002820154815250506114ee90919063ffffffff16565b5b15610799577f95a1f3a1dafdd4c1af344e3d7c69a72cbce8a3f15fe1cf95a7f5bd23df2e71a1604051610788906123e3565b60405180910390a1600190506107d3565b7f66091b7dc2b097c8f60d5cd6aa99633b097f08d2eb1056f3e15361b22e0ea2ba6040516107c690612475565b60405180910390a1600090505b92915050565b60003373ffffffffffffffffffffffffffffffffffffffff16600360010160009054906101000a900473ffffffffffffffffffffffffffffffffffffffff1673ffffffffffffffffffffffffffffffffffffffff161461086e576040517f08c379a00000000000000000000000000000000000000000000000000000000081526004016108659061219e565b60405180910390fd5b600560006001800160009054906101000a900473ffffffffffffffffffffffffffffffffffffffff1673ffffffffffffffffffffffffffffffffffffffff1673ffffffffffffffffffffffffffffffffffffffff168152602001908152602001600020600080820160006108e29190611943565b6001820160006101000a81549073ffffffffffffffffffffffffffffffffffffffff02191690556001820160146101000a81549060ff0219169055505061092b83836000611345565b60016000820151816000019080519060200190610949929190611983565b5060208201518160010160006101000a81548173ffffffffffffffffffffffffffffffffffffffff021916908373ffffffffffffffffffffffffffffffffffffffff16021790555060408201518160010160146101000a81548160ff0219169083151502179055509050506109bf8260016116e0565b506001905092915050565b60008060009054906101000a900460ff16610a1a576040517f08c379a0000000000000000000000000000000000000000000000000000000008152600401610a119061210c565b60405180910390fd5b3373ffffffffffffffffffffffffffffffffffffffff166001800160009054906101000a900473ffffffffffffffffffffffffffffffffffffffff1673ffffffffffffffffffffffffffffffffffffffff161480610ac857503373ffffffffffffffffffffffffffffffffffffffff16600360010160009054906101000a900473ffffffffffffffffffffffffffffffffffffffff1673ffffffffffffffffffffffffffffffffffffffff16145b610b07576040517f08c379a0000000000000000000000000000000000000000000000000000000008152600401610afe90612507565b60405180910390fd5b6001800160009054906101000a900473ffffffffffffffffffffffffffffffffffffffff16905090565b60008060009054906101000a900460ff16610b81576040517f08c379a0000000000000000000000000000000000000000000000000000000008152600401610b789061210c565b60405180910390fd5b3373ffffffffffffffffffffffffffffffffffffffff166001800160009054906101000a900473ffffffffffffffffffffffffffffffffffffffff1673ffffffffffffffffffffffffffffffffffffffff161480610c2f57503373ffffffffffffffffffffffffffffffffffffffff16600360010160009054906101000a900473ffffffffffffffffffffffffffffffffffffffff1673ffffffffffffffffffffffffffffffffffffffff16145b610c6e576040517f08c379a0000000000000000000000000000000000000000000000000000000008152600401610c6590612507565b60405180910390fd5b600360010160009054906101000a900473ffffffffffffffffffffffffffffffffffffffff16905090565b60008054906101000a900460ff16610ce6576040517f08c379a0000000000000000000000000000000000000000000000000000000008152600401610cdd9061210c565b60405180910390fd5b3373ffffffffffffffffffffffffffffffffffffffff166001800160009054906101000a900473ffffffffffffffffffffffffffffffffffffffff1673ffffffffffffffffffffffffffffffffffffffff161480610d9457503373ffffffffffffffffffffffffffffffffffffffff16600360010160009054906101000a900473ffffffffffffffffffffffffffffffffffffffff1673ffffffffffffffffffffffffffffffffffffffff16145b610dd3576040517f08c379a0000000000000000000000000000000000000000000000000000000008152600401610dca90612507565b60405180910390fd5b60016000806101000a81548160ff021916908315150217905550565b60008060009054906101000a900460ff16610e3f576040517f08c379a0000000000000000000000000000000000000000000000000000000008152600401610e369061210c565b60405180910390fd5b3373ffffffffffffffffffffffffffffffffffffffff166001800160009054906101000a900473ffffffffffffffffffffffffffffffffffffffff1673ffffffffffffffffffffffffffffffffffffffff1614610ed1576040517f08c379a0000000000000000000000000000000000000000000000000000000008152600401610ec89061225f565b60405180910390fd5b600015156001800160149054906101000a900460ff16151514610f29576040517f08c379a0000000000000000000000000000000000000000000000000000000008152600401610f2090612573565b60405180910390fd5b60018060010160146101000a81548160ff021916908315150217905550610f513360016116e0565b506001905090565b60008054906101000a900460ff16610fa6576040517f08c379a0000000000000000000000000000000000000000000000000000000008152600401610f9d9061210c565b60405180910390fd5b3373ffffffffffffffffffffffffffffffffffffffff166001800160009054906101000a900473ffffffffffffffffffffffffffffffffffffffff1673ffffffffffffffffffffffffffffffffffffffff16148061105457503373ffffffffffffffffffffffffffffffffffffffff16600360010160009054906101000a900473ffffffffffffffffffffffffffffffffffffffff1673ffffffffffffffffffffffffffffffffffffffff16145b611093576040517f08c379a000000000000000000000000000000000000000000000000000000000815260040161108a90612507565b60405180910390fd5b60008060006101000a81548160ff021916908315150217905550565b6110b7611a09565b60008054906101000a900460ff16611104576040517f08c379a00000000000000000000000000000000000000000000000000000000081526004016110fb9061210c565b60405180910390fd5b3373ffffffffffffffffffffffffffffffffffffffff166001800160009054906101000a900473ffffffffffffffffffffffffffffffffffffffff1673ffffffffffffffffffffffffffffffffffffffff1614806111b257503373ffffffffffffffffffffffffffffffffffffffff16600360010160009054906101000a900473ffffffffffffffffffffffffffffffffffffffff1673ffffffffffffffffffffffffffffffffffffffff16145b6111f1576040517f08c379a00000000000000000000000000000000000000000000000000000000081526004016111e890612507565b60405180910390fd5b600560008373ffffffffffffffffffffffffffffffffffffffff1673ffffffffffffffffffffffffffffffffffffffff16815260200190815260200160002060405180606001604052908160008201805461124b906122ae565b80601f0160208091040260200160405190810160405280929190818152602001828054611277906122ae565b80156112c45780601f10611299576101008083540402835291602001916112c4565b820191906000526020600020905b8154815290600101906020018083116112a757829003601f168201915b505050505081526020016001820160009054906101000a900473ffffffffffffffffffffffffffffffffffffffff1673ffffffffffffffffffffffffffffffffffffffff1673ffffffffffffffffffffffffffffffffffffffff1681526020016001820160149054906101000a900460ff1615151515815250509050919050565b61134d611a09565b60405180606001604052808581526020018473ffffffffffffffffffffffffffffffffffffffff16815260200183151581525090509392505050565b611391611a42565b6040518060400160405280600063ffffffff1681526020018363ffffffff168152509050919050565b6113c2611a68565b60405180606001604052808581526020018481526020018381525090509392505050565b8060006113f88263ffffffff166117e3565b9050600a8151111561140957600080fd5b8360000160049054906101000a900463ffffffff168361142991906125c2565b8460000160006101000a81548163ffffffff021916908363ffffffff16021790555050505050565b600081604001519050919050565b60008160006114738263ffffffff166117e3565b9050600a8151111561148457600080fd5b6000856000015163ffffffff16116114d1576040517f08c379a00000000000000000000000000000000000000000000000000000000081526004016114c89061266e565b60405180910390fd5b846000015163ffffffff168463ffffffff16119250505092915050565b60008083602001519050602160f81b81600081518110611511576115106121be565b5b602001015160f81c60f81b7effffffffffffffffffffffffffffffffffffffffffffffffffffffffffffff1916036115535783604001518314159150506116da565b603d60f81b8160008151811061156c5761156b6121be565b5b602001015160f81c60f81b7effffffffffffffffffffffffffffffffffffffffffffffffffffffffffffff1916036115ad57836040015183149150506116da565b603c60f81b816000815181106115c6576115c56121be565b5b602001015160f81c60f81b7effffffffffffffffffffffffffffffffffffffffffffffffffffffffffffff1916036116205760028151036116115783604001518313159150506116da565b836040015183129150506116da565b603e60f81b81600081518110611639576116386121be565b5b602001015160f81c60f81b7effffffffffffffffffffffffffffffffffffffffffffffffffffffffffffff1916036116935760028151036116845783604001518312159150506116da565b836040015183139150506116da565b60006116d4576040517f08c379a00000000000000000000000000000000000000000000000000000000081526004016116cb906126da565b60405180910390fd5b60009150505b92915050565b600081600560008573ffffffffffffffffffffffffffffffffffffffff1673ffffffffffffffffffffffffffffffffffffffff1681526020019081526020016000206000820181600001908054611736906122ae565b611741929190611a89565b506001820160009054906101000a900473ffffffffffffffffffffffffffffffffffffffff168160010160006101000a81548173ffffffffffffffffffffffffffffffffffffffff021916908373ffffffffffffffffffffffffffffffffffffffff1602179055506001820160149054906101000a900460ff168160010160146101000a81548160ff0219169083151502179055509050506001905092915050565b60606000820361182a576040518060400160405280600181526020017f3000000000000000000000000000000000000000000000000000000000000000815250905061193e565b600082905060005b6000821461185c57808061184590612704565b915050600a82611855919061277b565b9150611832565b60008167ffffffffffffffff81111561187857611877611bc6565b5b6040519080825280601f01601f1916602001820160405280156118aa5781602001600182028036833780820191505090505b5090505b60008514611937576001826118c391906127ac565b9150600a856118d291906127e0565b60306118de9190612811565b60f81b8183815181106118f4576118f36121be565b5b60200101907effffffffffffffffffffffffffffffffffffffffffffffffffffffffffffff1916908160001a905350600a85611930919061277b565b94506118ae565b8093505050505b919050565b50805461194f906122ae565b6000825580601f106119615750611980565b601f01602090049060005260206000209081019061197f9190611b16565b5b50565b82805461198f906122ae565b90600052602060002090601f0160209004810192826119b157600085556119f8565b82601f106119ca57805160ff19168380011785556119f8565b828001600101855582156119f8579182015b828111156119f75782518255916020019190600101906119dc565b5b509050611a059190611b16565b5090565b604051806060016040528060608152602001600073ffffffffffffffffffffffffffffffffffffffff1681526020016000151581525090565b6040518060400160405280600063ffffffff168152602001600063ffffffff1681525090565b60405180606001604052806060815260200160608152602001600081525090565b828054611a95906122ae565b90600052602060002090601f016020900481019282611ab75760008555611b05565b82601f10611ac85780548555611b05565b82800160010185558215611b0557600052602060002091601f016020900482015b82811115611b04578254825591600101919060010190611ae9565b5b509050611b129190611b16565b5090565b5b80821115611b2f576000816000905550600101611b17565b5090565b6000604051905090565b600080fd5b600080fd5b600063ffffffff82169050919050565b611b6081611b47565b8114611b6b57600080fd5b50565b600081359050611b7d81611b57565b92915050565b600060208284031215611b9957611b98611b3d565b5b6000611ba784828501611b6e565b91505092915050565b600080fd5b6000601f19601f8301169050919050565b7f4e487b7100000000000000000000000000000000000000000000000000000000600052604160045260246000fd5b611bfe82611bb5565b810181811067ffffffffffffffff82111715611c1d57611c1c611bc6565b5b80604052505050565b6000611c30611b33565b9050611c3c8282611bf5565b919050565b600067ffffffffffffffff821115611c5c57611c5b611bc6565b5b602082029050602081019050919050565b600080fd5b6000819050919050565b611c8581611c72565b8114611c9057600080fd5b50565b600081359050611ca281611c7c565b92915050565b6000611cbb611cb684611c41565b611c26565b90508083825260208201905060208402830185811115611cde57611cdd611c6d565b5b835b81811015611d075780611cf38882611c93565b845260208401935050602081019050611ce0565b5050509392505050565b600082601f830112611d2657611d25611bb0565b5b8135611d36848260208601611ca8565b91505092915050565b60008060408385031215611d5657611d55611b3d565b5b6000611d6485828601611b6e565b925050602083013567ffffffffffffffff811115611d8557611d84611b42565b5b611d9185828601611d11565b9150509250929050565b60008115159050919050565b611db081611d9b565b82525050565b6000602082019050611dcb6000830184611da7565b92915050565b600080fd5b600067ffffffffffffffff821115611df157611df0611bc6565b5b611dfa82611bb5565b9050602081019050919050565b82818337600083830152505050565b6000611e29611e2484611dd6565b611c26565b905082815260208101848484011115611e4557611e44611dd1565b5b611e50848285611e07565b509392505050565b600082601f830112611e6d57611e6c611bb0565b5b8135611e7d848260208601611e16565b91505092915050565b600073ffffffffffffffffffffffffffffffffffffffff82169050919050565b6000611eb182611e86565b9050919050565b611ec181611ea6565b8114611ecc57600080fd5b50565b600081359050611ede81611eb8565b92915050565b60008060408385031215611efb57611efa611b3d565b5b600083013567ffffffffffffffff811115611f1957611f18611b42565b5b611f2585828601611e58565b9250506020611f3685828601611ecf565b9150509250929050565b611f4981611ea6565b82525050565b6000602082019050611f646000830184611f40565b92915050565b600060208284031215611f8057611f7f611b3d565b5b6000611f8e84828501611ecf565b91505092915050565b600081519050919050565b600082825260208201905092915050565b60005b83811015611fd1578082015181840152602081019050611fb6565b83811115611fe0576000848401525b50505050565b6000611ff182611f97565b611ffb8185611fa2565b935061200b818560208601611fb3565b61201481611bb5565b840191505092915050565b61202881611ea6565b82525050565b61203781611d9b565b82525050565b6000606083016000830151848203600086015261205a8282611fe6565b915050602083015161206f602086018261201f565b506040830151612082604086018261202e565b508091505092915050565b600060208201905081810360008301526120a7818461203d565b905092915050565b600082825260208201905092915050565b7f5468697320636f6e747261637420697320646561637469766174656400000000600082015250565b60006120f6601c836120af565b9150612101826120c0565b602082019050919050565b60006020820190508181036000830152612125816120e9565b9050919050565b7f4f6e6c79207468652070726f636573732063616e20657865637574652074686960008201527f73206f7065726174696f6e000000000000000000000000000000000000000000602082015250565b6000612188602b836120af565b91506121938261212c565b604082019050919050565b600060208201905081810360008301526121b78161217b565b9050919050565b7f4e487b7100000000000000000000000000000000000000000000000000000000600052603260045260246000fd5b7f4f6e6c7920746865206170706c69636174696f6e2063616e206578656375746560008201527f2074686973206f7065726174696f6e0000000000000000000000000000000000602082015250565b6000612249602f836120af565b9150612254826121ed565b604082019050919050565b600060208201905081810360008301526122788161223c565b9050919050565b7f4e487b7100000000000000000000000000000000000000000000000000000000600052602260045260246000fd5b600060028204905060018216806122c657607f821691505b6020821081036122d9576122d861227f565b5b50919050565b7f546865204170706c69636174696f6e2070617274792073686f756c642073696760008201527f6e2074686520636f6e7472616374206265666f726520696e746572616374207760208201527f6974682069742e00000000000000000000000000000000000000000000000000604082015250565b60006123616047836120af565b915061236c826122df565b606082019050919050565b6000602082019050818103600083015261239081612354565b9050919050565b7f5375636365737366756c20657865637574696f6e210000000000000000000000600082015250565b60006123cd6015836120af565b91506123d882612397565b602082019050919050565b600060208201905081810360008301526123fc816123c0565b9050919050565b7f52657175657374206d616465206f757473696465206f6620616c6c6f7765642060008201527f686f757273206f7220627564676574204964206d697373696e67000000000000602082015250565b600061245f603a836120af565b915061246a82612403565b604082019050919050565b6000602082019050818103600083015261248e81612452565b9050919050565b7f4f6e6c79207468652070726f63657373206f7220746865206170706c6963617460008201527f696f6e2063616e20657865637574652074686973206f7065726174696f6e0000602082015250565b60006124f1603e836120af565b91506124fc82612495565b604082019050919050565b60006020820190508181036000830152612520816124e4565b9050919050565b7f54686520636f6e747261637420697320616c7265616479207369676e65640000600082015250565b600061255d601e836120af565b915061256882612527565b602082019050919050565b6000602082019050818103600083015261258c81612550565b9050919050565b7f4e487b7100000000000000000000000000000000000000000000000000000000600052601160045260246000fd5b60006125cd82611b47565b91506125d883611b47565b92508263ffffffff038211156125f1576125f0612593565b5b828201905092915050565b7f5468657265206973206e6f20656e6454696d652073657420696e2074696d656f60008201527f7574000000000000000000000000000000000000000000000000000000000000602082015250565b60006126586022836120af565b9150612663826125fc565b604082019050919050565b600060208201905081810360008301526126878161264b565b9050919050565b7f436f6d70617269736f6e2073796d626f6c206973206e6f742076616c69640000600082015250565b60006126c4601e836120af565b91506126cf8261268e565b602082019050919050565b600060208201905081810360008301526126f3816126b7565b9050919050565b6000819050919050565b600061270f826126fa565b91507fffffffffffffffffffffffffffffffffffffffffffffffffffffffffffffffff820361274157612740612593565b5b600182019050919050565b7f4e487b7100000000000000000000000000000000000000000000000000000000600052601260045260246000fd5b6000612786826126fa565b9150612791836126fa565b9250826127a1576127a061274c565b5b828204905092915050565b60006127b7826126fa565b91506127c2836126fa565b9250828210156127d5576127d4612593565b5b828203905092915050565b60006127eb826126fa565b91506127f6836126fa565b9250826128065761280561274c565b5b828206905092915050565b600061281c826126fa565b9150612827836126fa565b9250827fffffffffffffffffffffffffffffffffffffffffffffffffffffffffffffffff0382111561285c5761285b612593565b5b82820190509291505056fea26469706673582212209f90999ee15f5fe691f2aafd738c1ef7b138eec605384726a918702e1cbe05d864736f6c634300080d0033",
  "immutableReferences": {},
  "source": "/* ========================== BEGIN: code for all contracts ====================== */\r\n//SPDX-License-Identifier: MIT\r\npragma solidity >0.8.4 < 0.8.14;\r\n\r\nimport \"../../lib/eai/EAI.sol\";\r\n\r\ncontract DeliveryHiring_O {\r\n\r\n    bool activated;\r\n \r\n    uint32 beginDate; \r\n\tuint32 dueDate; \t\r\n    using EAI for EAI.Party;\r\n       \r\n    EAI.Party application;\r\n    EAI.Party process;\r\n    mapping(address=>EAI.Party) mapParty;\r\n\r\n    event failEvent(string _logMessage);\r\n    event successEvent(string _logMessage);\r\n/* --------------------------- END: code for all contracts ----------------------- */  \r\n\r\n\r\n/* =========== BEGIN: codes generated based in specific jabuti contract =================== */\r\n    \t\r\n//  1 STEP:  Import library to conditions/terms  ---------------------------------- \r\n    using EAI for EAI.Timeout;\r\n    using EAI for EAI.MessageContent_Number;\r\n// ----------------------------------------------------------------------------------\r\n\r\n// 2 STEP: Identify and create the variables  from \" variable block\" ---------------  \r\n// - there are no variable block in this contracts\r\n// ----------------------------------------------------------------------------------\r\n\r\n\r\n// 3 STEP: Identify and create variables referring to the clauses terms ------------\r\n\t\r\n    EAI.Timeout[]  timeout_C1; \t\r\n\tEAI.MessageContent_Number[]  messageContent_C1;\r\n// -----------------------------------------------------------------------------------\r\n\r\n\r\n// 4 STEP: Create the constructor method --------------------------------------------\r\n\tconstructor(address _applicationWallet){\r\n\t \tactivated=true;\r\n        // Catch the date from jabuti contract \r\n        beginDate = 1672561800;\r\n\t    dueDate = 1704097800;\r\n        // Catch the name of the part for creaty the parties         \r\n\t    application = EAI.createParty(\"Delivery System\", _applicationWallet, false);        \r\n        process = EAI.createParty(\"Integration Process\", msg.sender, true);\r\n        mapParty[msg.sender] = process;\r\n        mapParty[_applicationWallet] = application;\r\n \r\n// 5 STEP: Create the terms of the clauses, (check if some of them use a variable from variable block)\r\n\t\ttimeout_C1.push(EAI.createTimeout(30));\t   \t\t\t\t\r\n\t\tmessageContent_C1.push(EAI.createMessageContent(\"//budget/id/text()\", \">=\", 0));        \r\n\t}\r\n\t\r\n// 6 STEP: Translate the clauses to functions\r\n\r\n    function onlyForTest(uint32 _accessDateTime) public onlyProcess() {\r\n        timeout_C1[0].setEndTimeInTimeout(_accessDateTime);\r\n    }\r\n\r\n\tfunction responderOrder(uint32 _accessDateTime, int[] memory _xPathContent) public onlyApplication() returns(bool){\r\n\r\n\t   \t// Setting the time limit for responding to a request\r\n\t   \trequire(mapParty[msg.sender].isAware(), \"The Application party should sign the contract before interact with it.\");\t   \t \r\n\t    \r\n\t\tif(!timeout_C1[0].isTimeoutEnded(_accessDateTime)  &&\t\t\t\r\n\t\t\tmessageContent_C1[0].evaluateNumberContent(_xPathContent[0])\r\n            )\r\n\t\t\t{\t\t\t    \r\n                emit successEvent(\"Successful execution!\");\r\n\t        \treturn true;\r\n\t    \t}\r\n\t    \r\n\t   \temit failEvent(\"Request made outside of allowed hours or budget Id missing\");\r\n\t\treturn false;\r\n\t}\r\n  \r\n\r\n/* -------------- END: codes generated based in specific jabuti contract ------------- */\r\n\r\n\r\n/* ========================== BEGIN: code for all contracts ====================== */\r\n\r\n    /* the process sign the contract by default, the function signContract \r\n    is used to get the applicationParty signature*/      \r\n    function signContract() public onlyApplication() returns(bool) {\r\n        require(application.aware == false, \"The contract is already signed\");        \r\n        application.aware = true;  \r\n        updateMapParty(msg.sender, application);\r\n\t\treturn true;\r\n    }\r\n\r\n    function updateMapParty(address _walletAddress, EAI.Party storage _party)internal returns(bool){       \r\n        mapParty[_walletAddress] = _party;\r\n\t\treturn true;\r\n    }\r\n    \r\n    /* It only possible to change the name and the address of the party. \r\n    After change the  party, the new party need to sign the contract */\r\n    function changeApplicationParty(string memory _name, address _walletAddress) public returns(bool) {       \r\n        require(process.walletAddress == msg.sender, \"Only the process can execute this operation\");\r\n        delete mapParty[application.walletAddress];\r\n        application = EAI.createParty(_name, _walletAddress, false);          \r\n        updateMapParty(_walletAddress, application);\r\n        return true;       \r\n    }\r\n    \r\n    function getProcessAddress() public view onlyInvolvedParties returns(address){\r\n        return process.walletAddress;\r\n    }\r\n    \r\n    function getApplicationAddress() public view onlyInvolvedParties returns(address){\r\n        return application.walletAddress;\r\n    }\r\n\r\n    function getParty(address _walletAddress) public view onlyInvolvedParties returns(EAI.Party memory){\r\n        return mapParty[_walletAddress];\r\n    }\r\n\r\n    function activateContract()public onlyInvolvedParties(){\r\n        activated = true;\r\n    }\r\n    function deactivateContract()public onlyInvolvedParties(){\r\n        activated = false;\r\n    }\r\n\r\n    /* ==================================== MODIFIERS ==================================== */\r\n        modifier onlyApplication(){        \r\n            require(activated, \"This contract is deactivated\");            \r\n            require(application.walletAddress == msg.sender, \"Only the application can execute this operation\");\r\n            _;        \r\n    }\r\n\r\n    modifier onlyProcess(){\r\n        require(activated, \"This contract is deactivated\");\r\n        require(process.walletAddress == msg.sender, \"Only the process can execute this operation\");\r\n        _;\r\n    }\r\n\r\n    modifier onlyInvolvedParties(){\r\n        require(activated, \"This contract is deactivated\");\r\n        require(\r\n            (application.walletAddress == msg.sender || process.walletAddress == msg.sender ) ,\r\n            \"Only the process or the application can execute this operation\");\r\n        _;\r\n    }\r\n\r\n}\r\n/* --------------------------- END: code for all contracts ----------------------- */  \r\n\r\n\r\n",
  "sourcePath": "C:\\git-repository\\dsl-smart-contract-eai\\02-models\\002-ProofOfConcept\\contracts\\study-case-contracts\\001-delivery-hiring\\DeliveryHiring_O.sol",
  "compiler": {
    "name": "solc",
    "version": "0.8.13+commit.abaa5c0e.Emscripten.clang"
  },
  "schemaVersion": "3.4.13",
  "updatedAt": "2023-04-19T18:48:33.525Z",
  "devdoc": {
    "kind": "dev",
    "methods": {},
    "version": 1
  },
  "userdoc": {
    "kind": "user",
    "methods": {},
    "version": 1
  }
}