{
  "contractName": "MaxNumberOfOperation_refCod",
  "abi": [
    {
      "inputs": [],
      "stateMutability": "nonpayable",
      "type": "constructor"
    },
    {
      "inputs": [
        {
          "internalType": "uint256",
          "name": "",
          "type": "uint256"
        }
      ],
      "name": "maxOp",
      "outputs": [
        {
          "internalType": "uint32",
          "name": "amount",
          "type": "uint32"
        },
        {
          "internalType": "uint32",
          "name": "rest",
          "type": "uint32"
        }
      ],
      "stateMutability": "view",
      "type": "function",
      "constant": true
    },
    {
      "inputs": [],
      "name": "decreaseOperation",
      "outputs": [],
      "stateMutability": "nonpayable",
      "type": "function"
    },
    {
      "inputs": [
        {
          "internalType": "uint256",
          "name": "_id",
          "type": "uint256"
        }
      ],
      "name": "getMaxOperationById",
      "outputs": [
        {
          "components": [
            {
              "internalType": "uint32",
              "name": "amount",
              "type": "uint32"
            },
            {
              "internalType": "uint32",
              "name": "rest",
              "type": "uint32"
            }
          ],
          "internalType": "struct EAI.MaxNumberOfOperation",
          "name": "",
          "type": "tuple"
        }
      ],
      "stateMutability": "view",
      "type": "function",
      "constant": true
    },
    {
      "inputs": [],
      "name": "getAllMaxOperation",
      "outputs": [
        {
          "components": [
            {
              "internalType": "uint32",
              "name": "amount",
              "type": "uint32"
            },
            {
              "internalType": "uint32",
              "name": "rest",
              "type": "uint32"
            }
          ],
          "internalType": "struct EAI.MaxNumberOfOperation[]",
          "name": "",
          "type": "tuple[]"
        }
      ],
      "stateMutability": "view",
      "type": "function",
      "constant": true
    }
  ],
  "bytecode": "0x608060405234801561001057600080fd5b506000610027600561012c60201b61027d1760201c565b9080600181540180825580915050600190039060005260206000200160009091909190915060008201518160000160006101000a81548163ffffffff021916908363ffffffff16021790555060208201518160000160046101000a81548163ffffffff021916908363ffffffff160217905550505060006100b2600361012c60201b61027d1760201c565b9080600181540180825580915050600190039060005260206000200160009091909190915060008201518160000160006101000a81548163ffffffff021916908363ffffffff16021790555060208201518160000160046101000a81548163ffffffff021916908363ffffffff1602179055505050610182565b61013461015c565b60405180604001604052808363ffffffff1681526020018363ffffffff168152509050919050565b6040518060400160405280600063ffffffff168152602001600063ffffffff1681525090565b6105e9806101916000396000f3fe608060405234801561001057600080fd5b506004361061004c5760003560e01c80633c648b1f146100515780636f48a7641461005b5780639bc7148a1461008c578063ea31028d146100aa575b600080fd5b6100596100da565b005b61007560048036038101906100709190610353565b610102565b60405161008392919061039f565b60405180910390f35b610094610152565b6040516100a191906104b5565b60405180910390f35b6100c460048036038101906100bf9190610353565b6101f9565b6040516100d19190610506565b60405180910390f35b610100600080815481106100f1576100f0610521565b5b906000526020600020016102ad565b565b6000818154811061011257600080fd5b906000526020600020016000915090508060000160009054906101000a900463ffffffff16908060000160049054906101000a900463ffffffff16905082565b60606000805480602002602001604051908101604052809291908181526020016000905b828210156101f0578382906000526020600020016040518060400160405290816000820160009054906101000a900463ffffffff1663ffffffff1663ffffffff1681526020016000820160049054906101000a900463ffffffff1663ffffffff1663ffffffff168152505081526020019060010190610176565b50505050905090565b6102016102f2565b6000828154811061021557610214610521565b5b906000526020600020016040518060400160405290816000820160009054906101000a900463ffffffff1663ffffffff1663ffffffff1681526020016000820160049054906101000a900463ffffffff1663ffffffff1663ffffffff16815250509050919050565b6102856102f2565b60405180604001604052808363ffffffff1681526020018363ffffffff168152509050919050565b60018160000160048282829054906101000a900463ffffffff166102d1919061057f565b92506101000a81548163ffffffff021916908363ffffffff16021790555050565b6040518060400160405280600063ffffffff168152602001600063ffffffff1681525090565b600080fd5b6000819050919050565b6103308161031d565b811461033b57600080fd5b50565b60008135905061034d81610327565b92915050565b60006020828403121561036957610368610318565b5b60006103778482850161033e565b91505092915050565b600063ffffffff82169050919050565b61039981610380565b82525050565b60006040820190506103b46000830185610390565b6103c16020830184610390565b9392505050565b600081519050919050565b600082825260208201905092915050565b6000819050602082019050919050565b6103fd81610380565b82525050565b60408201600082015161041960008501826103f4565b50602082015161042c60208501826103f4565b50505050565b600061043e8383610403565b60408301905092915050565b6000602082019050919050565b6000610462826103c8565b61046c81856103d3565b9350610477836103e4565b8060005b838110156104a857815161048f8882610432565b975061049a8361044a565b92505060018101905061047b565b5085935050505092915050565b600060208201905081810360008301526104cf8184610457565b905092915050565b6040820160008201516104ed60008501826103f4565b50602082015161050060208501826103f4565b50505050565b600060408201905061051b60008301846104d7565b92915050565b7f4e487b7100000000000000000000000000000000000000000000000000000000600052603260045260246000fd5b7f4e487b7100000000000000000000000000000000000000000000000000000000600052601160045260246000fd5b600061058a82610380565b915061059583610380565b9250828210156105a8576105a7610550565b5b82820390509291505056fea264697066735822122057f68713835c7dccc0871641a2065542b640d775957572112737b22918e5030764736f6c634300080d0033",
  "immutableReferences": {},
  "source": "// SPDX-License-Identifier: MIT\r\npragma solidity >0.8.4 < 0.8.14;\r\n// pragma experimental 'ABIEncoderV2';\r\nimport \"../eai/EAI.sol\";\r\n\r\ncontract MaxNumberOfOperation_refCod {   \r\n\r\n    using EAI for EAI.MaxNumberOfOperation;\r\n\r\n    EAI.MaxNumberOfOperation[] public maxOp;\r\n\r\n    constructor (){\r\n        maxOp.push(EAI.createMaxNumberOfOperation(5));\r\n        maxOp.push(EAI.createMaxNumberOfOperation(3));\r\n    }\r\n\r\n    function decreaseOperation()public {\r\n        maxOp[0].decreaseOneOperation();\r\n    }\r\n\r\n    function getMaxOperationById(uint _id) public view returns(EAI.MaxNumberOfOperation memory){\r\n        return maxOp[_id];\r\n    }\r\n\r\n    function getAllMaxOperation() public view returns (EAI.MaxNumberOfOperation[] memory){\r\n        return maxOp;\r\n    }\r\n\r\n}",
  "sourcePath": "C:\\git-repository\\dsl-smart-contract-eai\\02-models\\002-ProofOfConcept\\contracts\\lib\\referencesCode-eai\\005_MaxNumberOfOperation_refCod.sol",
  "compiler": {
    "name": "solc",
    "version": "0.8.13+commit.abaa5c0e.Emscripten.clang"
  },
  "schemaVersion": "3.4.11",
  "updatedAt": "2023-04-26T21:55:37.978Z",
  "networkType": "ethereum",
  "devdoc": {
    "kind": "dev",
    "methods": {},
    "version": 1
  },
  "userdoc": {
    "kind": "user",
    "methods": {},
    "version": 1
  }
}