{
  "contractName": "MessageContent_NumberPerTime_refCod",
  "abi": [
    {
      "inputs": [],
      "stateMutability": "nonpayable",
      "type": "constructor"
    },
    {
      "inputs": [],
      "name": "getAllmsgContent",
      "outputs": [
        {
          "components": [
            {
              "internalType": "string",
              "name": "xpath",
              "type": "string"
            },
            {
              "internalType": "string",
              "name": "op",
              "type": "string"
            },
            {
              "internalType": "uint256",
              "name": "amount",
              "type": "uint256"
            },
            {
              "internalType": "uint8",
              "name": "timeUnit",
              "type": "uint8"
            },
            {
              "internalType": "uint32",
              "name": "byTime",
              "type": "uint32"
            },
            {
              "internalType": "uint256",
              "name": "rest",
              "type": "uint256"
            },
            {
              "internalType": "uint32",
              "name": "endTime",
              "type": "uint32"
            },
            {
              "internalType": "uint256",
              "name": "lastContent",
              "type": "uint256"
            }
          ],
          "internalType": "struct EAI.MessageContent_Number_PerTime[]",
          "name": "",
          "type": "tuple[]"
        }
      ],
      "stateMutability": "view",
      "type": "function",
      "constant": true
    },
    {
      "inputs": [
        {
          "internalType": "uint256",
          "name": "_id",
          "type": "uint256"
        }
      ],
      "name": "getMessageContentById",
      "outputs": [
        {
          "components": [
            {
              "internalType": "string",
              "name": "xpath",
              "type": "string"
            },
            {
              "internalType": "string",
              "name": "op",
              "type": "string"
            },
            {
              "internalType": "uint256",
              "name": "amount",
              "type": "uint256"
            },
            {
              "internalType": "uint8",
              "name": "timeUnit",
              "type": "uint8"
            },
            {
              "internalType": "uint32",
              "name": "byTime",
              "type": "uint32"
            },
            {
              "internalType": "uint256",
              "name": "rest",
              "type": "uint256"
            },
            {
              "internalType": "uint32",
              "name": "endTime",
              "type": "uint32"
            },
            {
              "internalType": "uint256",
              "name": "lastContent",
              "type": "uint256"
            }
          ],
          "internalType": "struct EAI.MessageContent_Number_PerTime",
          "name": "",
          "type": "tuple"
        }
      ],
      "stateMutability": "view",
      "type": "function",
      "constant": true
    },
    {
      "inputs": [
        {
          "internalType": "uint256",
          "name": "_id",
          "type": "uint256"
        },
        {
          "internalType": "uint32",
          "name": "_accessTime",
          "type": "uint32"
        },
        {
          "internalType": "uint32",
          "name": "_resultFromXpath",
          "type": "uint32"
        }
      ],
      "name": "decreaseMsgContentResultXpathFromAmount",
      "outputs": [
        {
          "components": [
            {
              "internalType": "string",
              "name": "xpath",
              "type": "string"
            },
            {
              "internalType": "string",
              "name": "op",
              "type": "string"
            },
            {
              "internalType": "uint256",
              "name": "amount",
              "type": "uint256"
            },
            {
              "internalType": "uint8",
              "name": "timeUnit",
              "type": "uint8"
            },
            {
              "internalType": "uint32",
              "name": "byTime",
              "type": "uint32"
            },
            {
              "internalType": "uint256",
              "name": "rest",
              "type": "uint256"
            },
            {
              "internalType": "uint32",
              "name": "endTime",
              "type": "uint32"
            },
            {
              "internalType": "uint256",
              "name": "lastContent",
              "type": "uint256"
            }
          ],
          "internalType": "struct EAI.MessageContent_Number_PerTime",
          "name": "",
          "type": "tuple"
        }
      ],
      "stateMutability": "nonpayable",
      "type": "function"
    }
  ],
  "bytecode": "0x60806040523480156200001157600080fd5b506000620000996040518060400160405280601081526020017f636f756e74282f2f6164647265737329000000000000000000000000000000008152506040518060400160405280600181526020017f3c000000000000000000000000000000000000000000000000000000000000008152506003600062000a8160201b620008391760201c565b90806001815401808255809150506001900390600052602060002090600702016000909190919091506000820151816000019080519060200190620000e092919062000c26565b506020820151816001019080519060200190620000ff92919062000c26565b506040820151816002015560608201518160030160006101000a81548160ff021916908360ff16021790555060808201518160030160016101000a81548163ffffffff021916908363ffffffff16021790555060a0820151816004015560c08201518160050160006101000a81548163ffffffff021916908363ffffffff16021790555060e0820151816006015550506000620002166040518060400160405280600c81526020017f636f756e74282f2f6365702900000000000000000000000000000000000000008152506040518060400160405280600281526020017f3c3d0000000000000000000000000000000000000000000000000000000000008152506003600162000a8160201b620008391760201c565b908060018154018082558091505060019003906000526020600020906007020160009091909190915060008201518160000190805190602001906200025d92919062000c26565b5060208201518160010190805190602001906200027c92919062000c26565b506040820151816002015560608201518160030160006101000a81548160ff021916908360ff16021790555060808201518160030160016101000a81548163ffffffff021916908363ffffffff16021790555060a0820151816004015560c08201518160050160006101000a81548163ffffffff021916908363ffffffff16021790555060e0820151816006015550506000620003936040518060400160405280601081526020017f636f756e74282f2f6164647265737329000000000000000000000000000000008152506040518060400160405280600181526020017f3c000000000000000000000000000000000000000000000000000000000000008152506005600262000a8160201b620008391760201c565b90806001815401808255809150506001900390600052602060002090600702016000909190919091506000820151816000019080519060200190620003da92919062000c26565b506020820151816001019080519060200190620003f992919062000c26565b506040820151816002015560608201518160030160006101000a81548160ff021916908360ff16021790555060808201518160030160016101000a81548163ffffffff021916908363ffffffff16021790555060a0820151816004015560c08201518160050160006101000a81548163ffffffff021916908363ffffffff16021790555060e0820151816006015550506000620005106040518060400160405280601081526020017f636f756e74282f2f6164647265737329000000000000000000000000000000008152506040518060400160405280600281526020017f3c3d0000000000000000000000000000000000000000000000000000000000008152506004600362000a8160201b620008391760201c565b908060018154018082558091505060019003906000526020600020906007020160009091909190915060008201518160000190805190602001906200055792919062000c26565b5060208201518160010190805190602001906200057692919062000c26565b506040820151816002015560608201518160030160006101000a81548160ff021916908360ff16021790555060808201518160030160016101000a81548163ffffffff021916908363ffffffff16021790555060a0820151816004015560c08201518160050160006101000a81548163ffffffff021916908363ffffffff16021790555060e08201518160060155505060006200068c6040518060400160405280601081526020017f636f756e74282f2f6164647265737329000000000000000000000000000000008152506040518060400160405280600181526020017f3c0000000000000000000000000000000000000000000000000000000000000081525060048062000a8160201b620008391760201c565b90806001815401808255809150506001900390600052602060002090600702016000909190919091506000820151816000019080519060200190620006d392919062000c26565b506020820151816001019080519060200190620006f292919062000c26565b506040820151816002015560608201518160030160006101000a81548160ff021916908360ff16021790555060808201518160030160016101000a81548163ffffffff021916908363ffffffff16021790555060a0820151816004015560c08201518160050160006101000a81548163ffffffff021916908363ffffffff16021790555060e0820151816006015550506000620008086040518060400160405280601081526020017f636f756e74282f2f6164647265737329000000000000000000000000000000008152506040518060400160405280600281526020017f3c3d00000000000000000000000000000000000000000000000000000000000081525060058062000a8160201b620008391760201c565b908060018154018082558091505060019003906000526020600020906007020160009091909190915060008201518160000190805190602001906200084f92919062000c26565b5060208201518160010190805190602001906200086e92919062000c26565b506040820151816002015560608201518160030160006101000a81548160ff021916908360ff16021790555060808201518160030160016101000a81548163ffffffff021916908363ffffffff16021790555060a0820151816004015560c08201518160050160006101000a81548163ffffffff021916908363ffffffff16021790555060e0820151816006015550506000620009856040518060400160405280601081526020017f636f756e74282f2f6164647265737329000000000000000000000000000000008152506040518060400160405280600281526020017f3c3d0000000000000000000000000000000000000000000000000000000000008152506002600662000a8160201b620008391760201c565b90806001815401808255809150506001900390600052602060002090600702016000909190919091506000820151816000019080519060200190620009cc92919062000c26565b506020820151816001019080519060200190620009eb92919062000c26565b506040820151816002015560608201518160030160006101000a81548160ff021916908360ff16021790555060808201518160030160016101000a81548163ffffffff021916908363ffffffff16021790555060a0820151816004015560c08201518160050160006101000a81548163ffffffff021916908363ffffffff16021790555060e08201518160060155505062000eab565b62000a8b62000cb7565b6000600460ff168360ff161162000ab55762000aad8362000b6460201b60201c565b905062000aba565b600190505b600185510362000b0e576040518060400160405280600281526020017f3c3d000000000000000000000000000000000000000000000000000000000000815250945060018462000b0b919062000d63565b93505b6040518061010001604052808781526020018681526020018581526020018460ff1681526020018263ffffffff168152602001858152602001600063ffffffff1681526020016000815250915050949350505050565b6000600460ff168260ff16111562000bb3576040517f08c379a000000000000000000000000000000000000000000000000000000000815260040162000baa9062000e25565b60405180910390fd5b600060ff168260ff160362000bcc576001905062000c21565b600160ff168260ff160362000be557603c905062000c21565b600260ff168260ff160362000bff57610e10905062000c21565b600360ff168260ff160362000c1a5762015180905062000c21565b62093a8090505b919050565b82805462000c349062000e76565b90600052602060002090601f01602090048101928262000c58576000855562000ca4565b82601f1062000c7357805160ff191683800117855562000ca4565b8280016001018555821562000ca4579182015b8281111562000ca357825182559160200191906001019062000c86565b5b50905062000cb3919062000d0b565b5090565b604051806101000160405280606081526020016060815260200160008152602001600060ff168152602001600063ffffffff16815260200160008152602001600063ffffffff168152602001600081525090565b5b8082111562000d2657600081600090555060010162000d0c565b5090565b6000819050919050565b7f4e487b7100000000000000000000000000000000000000000000000000000000600052601160045260246000fd5b600062000d708262000d2a565b915062000d7d8362000d2a565b92508282101562000d935762000d9262000d34565b5b828203905092915050565b600082825260208201905092915050565b7f546865206d6574686f642067657454696d65496e5365636f6e647320646f657360008201527f6e277420776f726b20666f72204d4f4e544820616e6420594541520000000000602082015250565b600062000e0d603b8362000d9e565b915062000e1a8262000daf565b604082019050919050565b6000602082019050818103600083015262000e408162000dfe565b9050919050565b7f4e487b7100000000000000000000000000000000000000000000000000000000600052602260045260246000fd5b6000600282049050600182168062000e8f57607f821691505b60208210810362000ea55762000ea462000e47565b5b50919050565b611cae8062000ebb6000396000f3fe608060405234801561001057600080fd5b50600436106100415760003560e01c806301f3117014610046578063636f405614610064578063f98d814314610094575b600080fd5b61004e6100c4565b60405161005b919061131c565b60405180910390f35b61007e6004803603810190610079919061139b565b6102cf565b60405161008b91906114a5565b60405180910390f35b6100ae60048036038101906100a991906114c7565b610651565b6040516100bb91906114a5565b60405180910390f35b60606000805480602002602001604051908101604052809291908181526020016000905b828210156102c657838290600052602060002090600702016040518061010001604052908160008201805461011c90611523565b80601f016020809104026020016040519081016040528092919081815260200182805461014890611523565b80156101955780601f1061016a57610100808354040283529160200191610195565b820191906000526020600020905b81548152906001019060200180831161017857829003601f168201915b505050505081526020016001820180546101ae90611523565b80601f01602080910402602001604051908101604052809291908181526020018280546101da90611523565b80156102275780601f106101fc57610100808354040283529160200191610227565b820191906000526020600020905b81548152906001019060200180831161020a57829003601f168201915b50505050508152602001600282015481526020016003820160009054906101000a900460ff1660ff1660ff1681526020016003820160019054906101000a900463ffffffff1663ffffffff1663ffffffff168152602001600482015481526020016005820160009054906101000a900463ffffffff1663ffffffff1663ffffffff168152602001600682015481525050815260200190600101906100e8565b50505050905090565b6102d7611062565b6000610315848463ffffffff16600088815481106102f8576102f7611554565b5b906000526020600020906007020161090d9092919063ffffffff16565b9050801561034c576103476000868154811061033457610333611554565b5b9060005260206000209060070201610a18565b61046e565b600061037c6000878154811061036557610364611554565b5b906000526020600020906007020160040154610ad6565b6103aa6000888154811061039357610392611554565b5b906000526020600020906007020160020154610ad6565b6103d8600089815481106103c1576103c0611554565b5b906000526020600020906007020160060154610ad6565b6040516020016103ea939291906116c9565b60405160208183030381529060405290508363ffffffff166000878154811061041657610415611554565b5b90600052602060002090600702016004015411819061046b576040517f08c379a00000000000000000000000000000000000000000000000000000000081526004016104629190611765565b60405180910390fd5b50505b6000858154811061048257610481611554565b5b9060005260206000209060070201604051806101000160405290816000820180546104ac90611523565b80601f01602080910402602001604051908101604052809291908181526020018280546104d890611523565b80156105255780601f106104fa57610100808354040283529160200191610525565b820191906000526020600020905b81548152906001019060200180831161050857829003601f168201915b5050505050815260200160018201805461053e90611523565b80601f016020809104026020016040519081016040528092919081815260200182805461056a90611523565b80156105b75780601f1061058c576101008083540402835291602001916105b7565b820191906000526020600020905b81548152906001019060200180831161059a57829003601f168201915b50505050508152602001600282015481526020016003820160009054906101000a900460ff1660ff1660ff1681526020016003820160019054906101000a900463ffffffff1663ffffffff1663ffffffff168152602001600482015481526020016005820160009054906101000a900463ffffffff1663ffffffff1663ffffffff1681526020016006820154815250509150509392505050565b610659611062565b6000828154811061066d5761066c611554565b5b90600052602060002090600702016040518061010001604052908160008201805461069790611523565b80601f01602080910402602001604051908101604052809291908181526020018280546106c390611523565b80156107105780601f106106e557610100808354040283529160200191610710565b820191906000526020600020905b8154815290600101906020018083116106f357829003601f168201915b5050505050815260200160018201805461072990611523565b80601f016020809104026020016040519081016040528092919081815260200182805461075590611523565b80156107a25780601f10610777576101008083540402835291602001916107a2565b820191906000526020600020905b81548152906001019060200180831161078557829003601f168201915b50505050508152602001600282015481526020016003820160009054906101000a900460ff1660ff1660ff1681526020016003820160019054906101000a900463ffffffff1663ffffffff1663ffffffff168152602001600482015481526020016005820160009054906101000a900463ffffffff1663ffffffff1663ffffffff1681526020016006820154815250509050919050565b610841611062565b6000600460ff168360ff16116108615761085a83610c36565b9050610866565b600190505b60018551036108b7576040518060400160405280600281526020017f3c3d00000000000000000000000000000000000000000000000000000000000081525094506001846108b491906117b6565b93505b6040518061010001604052808781526020018681526020018581526020018460ff1681526020018263ffffffff168152602001858152602001600063ffffffff1681526020016000815250915050949350505050565b6000808211610951576040517f08c379a00000000000000000000000000000000000000000000000000000000081526004016109489061185c565b60405180910390fd5b6109818460030160009054906101000a900460ff168560050160009054906101000a900463ffffffff1685610ced565b156109e657836002015484600401819055506109c38460030160019054906101000a900463ffffffff168560030160009054906101000a900460ff1685610db2565b8460050160006101000a81548163ffffffff021916908363ffffffff1602179055505b83600401548211610a035781846006018190555060019050610a11565b818460060181905550600090505b9392505050565b6000816006015411610a5f576040517f08c379a0000000000000000000000000000000000000000000000000000000008152600401610a56906118c8565b60405180910390fd5b806004015481600601541115610aaa576040517f08c379a0000000000000000000000000000000000000000000000000000000008152600401610aa19061195a565b60405180910390fd5b8060060154816004016000828254610ac291906117b6565b925050819055506000816006018190555050565b606060008203610b1d576040518060400160405280600181526020017f30000000000000000000000000000000000000000000000000000000000000008152509050610c31565b600082905060005b60008214610b4f578080610b389061197a565b915050600a82610b4891906119f1565b9150610b25565b60008167ffffffffffffffff811115610b6b57610b6a611a22565b5b6040519080825280601f01601f191660200182016040528015610b9d5781602001600182028036833780820191505090505b5090505b60008514610c2a57600182610bb691906117b6565b9150600a85610bc59190611a51565b6030610bd19190611a82565b60f81b818381518110610be757610be6611554565b5b60200101907effffffffffffffffffffffffffffffffffffffffffffffffffffffffffffff1916908160001a905350600a85610c2391906119f1565b9450610ba1565b8093505050505b919050565b6000600460ff168260ff161115610c82576040517f08c379a0000000000000000000000000000000000000000000000000000000008152600401610c7990611b4a565b60405180910390fd5b600060ff168260ff1603610c995760019050610ce8565b600160ff168260ff1603610cb057603c9050610ce8565b600260ff168260ff1603610cc857610e109050610ce8565b600360ff168260ff1603610ce157620151809050610ce8565b62093a8090505b919050565b600080849050600460ff168160ff1611610d19578363ffffffff168363ffffffff161015915050610dab565b600560ff168160ff1603610d81576000610d388463ffffffff16610e45565b50915050600d8563ffffffff16148015610d58575060018163ffffffff16145b15610d6857600192505050610dab565b8463ffffffff168163ffffffff16101592505050610dab565b6000610d928463ffffffff16610e45565b505090508463ffffffff168163ffffffff161015925050505b9392505050565b6000600460ff168360ff1611610dd457610dcd838386610ff8565b9050610e3e565b600560ff168360ff1603610e12576000610df38363ffffffff16610e45565b5063ffffffff16915050600181610e0a9190611a82565b915050610e3e565b6000610e238363ffffffff16610e45565b505063ffffffff169050600181610e3a9190611a82565b9150505b9392505050565b6000806000806201518063ffffffff1685610e6091906119f1565b9050600062253d8c62010bd983610e779190611b6a565b610e819190611b6a565b9050600062023ab1826004610e969190611ba4565b610ea09190611be2565b9050600460038262023ab1610eb59190611ba4565b610ebf9190611b6a565b610ec99190611be2565b82610ed49190611c13565b9150600062164b09600184610ee99190611b6a565b610fa0610ef69190611ba4565b610f009190611be2565b9050601f6004826105b5610f149190611ba4565b610f1e9190611be2565b84610f299190611c13565b610f339190611b6a565b9250600061098f846050610f479190611ba4565b610f519190611be2565b9050600060508261098f610f659190611ba4565b610f6f9190611be2565b85610f7a9190611c13565b9050600b82610f899190611be2565b945084600c610f989190611ba4565b600283610fa59190611b6a565b610faf9190611c13565b91508483603186610fc09190611c13565b6064610fcc9190611ba4565b610fd69190611b6a565b610fe09190611b6a565b92508298508197508096505050505050509193909250565b60008082846110079190611c47565b9050600081846110179190611c13565b9050600460ff168660ff160361104a576203f48081866110379190611b6a565b6110419190611b6a565b9250505061105b565b80856110569190611b6a565b925050505b9392505050565b604051806101000160405280606081526020016060815260200160008152602001600060ff168152602001600063ffffffff16815260200160008152602001600063ffffffff168152602001600081525090565b600081519050919050565b600082825260208201905092915050565b6000819050602082019050919050565b600081519050919050565b600082825260208201905092915050565b60005b8381101561111c578082015181840152602081019050611101565b8381111561112b576000848401525b50505050565b6000601f19601f8301169050919050565b600061114d826110e2565b61115781856110ed565b93506111678185602086016110fe565b61117081611131565b840191505092915050565b6000819050919050565b61118e8161117b565b82525050565b600060ff82169050919050565b6111aa81611194565b82525050565b600063ffffffff82169050919050565b6111c9816111b0565b82525050565b60006101008301600083015184820360008601526111ed8282611142565b915050602083015184820360208601526112078282611142565b915050604083015161121c6040860182611185565b50606083015161122f60608601826111a1565b50608083015161124260808601826111c0565b5060a083015161125560a0860182611185565b5060c083015161126860c08601826111c0565b5060e083015161127b60e0860182611185565b508091505092915050565b600061129283836111cf565b905092915050565b6000602082019050919050565b60006112b2826110b6565b6112bc81856110c1565b9350836020820285016112ce856110d2565b8060005b8581101561130a57848403895281516112eb8582611286565b94506112f68361129a565b925060208a019950506001810190506112d2565b50829750879550505050505092915050565b6000602082019050818103600083015261133681846112a7565b905092915050565b600080fd5b61134c8161117b565b811461135757600080fd5b50565b60008135905061136981611343565b92915050565b611378816111b0565b811461138357600080fd5b50565b6000813590506113958161136f565b92915050565b6000806000606084860312156113b4576113b361133e565b5b60006113c28682870161135a565b93505060206113d386828701611386565b92505060406113e486828701611386565b9150509250925092565b600061010083016000830151848203600086015261140c8282611142565b915050602083015184820360208601526114268282611142565b915050604083015161143b6040860182611185565b50606083015161144e60608601826111a1565b50608083015161146160808601826111c0565b5060a083015161147460a0860182611185565b5060c083015161148760c08601826111c0565b5060e083015161149a60e0860182611185565b508091505092915050565b600060208201905081810360008301526114bf81846113ee565b905092915050565b6000602082840312156114dd576114dc61133e565b5b60006114eb8482850161135a565b91505092915050565b7f4e487b7100000000000000000000000000000000000000000000000000000000600052602260045260246000fd5b6000600282049050600182168061153b57607f821691505b60208210810361154e5761154d6114f4565b5b50919050565b7f4e487b7100000000000000000000000000000000000000000000000000000000600052603260045260246000fd5b600081905092915050565b7f596f752068617665206f6e6c7920000000000000000000000000000000000000600082015250565b60006115c4600e83611583565b91506115cf8261158e565b600e82019050919050565b60006115e5826110e2565b6115ef8185611583565b93506115ff8185602086016110fe565b80840191505092915050565b7f2066726f6d200000000000000000000000000000000000000000000000000000600082015250565b6000611641600683611583565b915061164c8261160b565b600682019050919050565b7f2072657374696e672c20616e6420746865206d65737361676520636f6e74656e60008201527f7420787061746820726573756c74206973200000000000000000000000000000602082015250565b60006116b3603283611583565b91506116be82611657565b603282019050919050565b60006116d4826115b7565b91506116e082866115da565b91506116eb82611634565b91506116f782856115da565b9150611702826116a6565b915061170e82846115da565b9150819050949350505050565b600082825260208201905092915050565b6000611737826110e2565b611741818561171b565b93506117518185602086016110fe565b61175a81611131565b840191505092915050565b6000602082019050818103600083015261177f818461172c565b905092915050565b7f4e487b7100000000000000000000000000000000000000000000000000000000600052601160045260246000fd5b60006117c18261117b565b91506117cc8361117b565b9250828210156117df576117de611787565b5b828203905092915050565b7f54686520726573756c74206f66207468652078706174682073686f756c64206260008201527f65206d6f7265207468616e203000000000000000000000000000000000000000602082015250565b6000611846602d8361171b565b9150611851826117ea565b604082019050919050565b6000602082019050818103600083015261187581611839565b9050919050565b7f546865726520696e206e6f20636f6e74656e7420746f2064656372656173652e600082015250565b60006118b260208361171b565b91506118bd8261187c565b602082019050919050565b600060208201905081810360008301526118e1816118a5565b9050919050565b7f546865206d65737361676520636f6e74656e74206e756d62657220697320677260008201527f6561746572207468616e207468652072656d61696e696e6720616d6f756e7400602082015250565b6000611944603f8361171b565b915061194f826118e8565b604082019050919050565b6000602082019050818103600083015261197381611937565b9050919050565b60006119858261117b565b91507fffffffffffffffffffffffffffffffffffffffffffffffffffffffffffffffff82036119b7576119b6611787565b5b600182019050919050565b7f4e487b7100000000000000000000000000000000000000000000000000000000600052601260045260246000fd5b60006119fc8261117b565b9150611a078361117b565b925082611a1757611a166119c2565b5b828204905092915050565b7f4e487b7100000000000000000000000000000000000000000000000000000000600052604160045260246000fd5b6000611a5c8261117b565b9150611a678361117b565b925082611a7757611a766119c2565b5b828206905092915050565b6000611a8d8261117b565b9150611a988361117b565b9250827fffffffffffffffffffffffffffffffffffffffffffffffffffffffffffffffff03821115611acd57611acc611787565b5b828201905092915050565b7f546865206d6574686f642067657454696d65496e5365636f6e647320646f657360008201527f6e277420776f726b20666f72204d4f4e544820616e6420594541520000000000602082015250565b6000611b34603b8361171b565b9150611b3f82611ad8565b604082019050919050565b60006020820190508181036000830152611b6381611b27565b9050919050565b6000611b75826111b0565b9150611b80836111b0565b92508263ffffffff03821115611b9957611b98611787565b5b828201905092915050565b6000611baf826111b0565b9150611bba836111b0565b92508163ffffffff0483118215151615611bd757611bd6611787565b5b828202905092915050565b6000611bed826111b0565b9150611bf8836111b0565b925082611c0857611c076119c2565b5b828204905092915050565b6000611c1e826111b0565b9150611c29836111b0565b925082821015611c3c57611c3b611787565b5b828203905092915050565b6000611c52826111b0565b9150611c5d836111b0565b925082611c6d57611c6c6119c2565b5b82820690509291505056fea2646970667358221220f21010e0bbeb9bd38516f015868549ecf87892ecd22e57fa5699c6a8ba1b6ca564736f6c634300080d0033",
  "immutableReferences": {},
  "source": "//SPDX-License-Identifier: MIT\r\n\r\npragma solidity >0.8.4 < 0.8.14;\r\n\r\nimport \"../eai/EAI.sol\";\r\n\r\ncontract MessageContent_NumberPerTime_refCod{\r\n   \r\n    using EAI for EAI.MessageContent_Number_PerTime;\r\n\r\n    EAI.MessageContent_Number_PerTime[] msgContent;\r\n\r\n    constructor(){\r\n        msgContent.push(EAI.createMessageContent(\"count(//address)\", \"<\", 3, EAI.SECOND));\r\n        msgContent.push(EAI.createMessageContent(\"count(//cep)\", \"<=\", 3, EAI.MINUTE));\r\n        msgContent.push(EAI.createMessageContent(\"count(//address)\", \"<\", 5, EAI.HOUR));\r\n        msgContent.push(EAI.createMessageContent(\"count(//address)\", \"<=\", 4, EAI.DAY));\r\n        msgContent.push(EAI.createMessageContent(\"count(//address)\", \"<\", 4, EAI.WEEK));\r\n        msgContent.push(EAI.createMessageContent(\"count(//address)\", \"<=\", 5, EAI.MONTH));\r\n        msgContent.push(EAI.createMessageContent(\"count(//address)\", \"<=\", 2, EAI.YEAR));\r\n    }\r\n\r\n    function getAllmsgContent()public view returns(EAI.MessageContent_Number_PerTime[] memory){\r\n        return msgContent;\r\n    }\r\n\r\n    function getMessageContentById(uint _id) public view returns(EAI.MessageContent_Number_PerTime memory){\r\n        return msgContent[_id];\r\n    }\r\n\r\n    function decreaseMsgContentResultXpathFromAmount(uint _id, \r\n        uint32 _accessTime, \r\n        uint32 _resultFromXpath\r\n        )public returns(EAI.MessageContent_Number_PerTime memory){                        \r\n        //msgContent[_id].evaluateAndDecreaseNumberPerTime(_accessTime, _resultFromXpath);\r\n        bool isOk = msgContent[_id].evaluateNumberPerTime(_accessTime, _resultFromXpath);   \r\n       \r\n        if(isOk){\r\n            msgContent[_id].decreaseTheLastContentOfRestingAmount();                    \r\n        }else{\r\n            string memory revertMessage =  string(abi.encodePacked(\r\n                 \"You have only \", EAI.uint2String(msgContent[_id].rest), \r\n                 \" from \", EAI.uint2String(msgContent[_id].amount),\" resting, and the message content xpath result is \", EAI.uint2String(msgContent[_id].lastContent)));\r\n                       \r\n            require( msgContent[_id].rest>_resultFromXpath, revertMessage );\r\n        }  \r\n\r\n        return msgContent[_id];\r\n    }\r\n\r\n}",
  "sourcePath": "C:\\git-repository\\dsl-smart-contract-eai\\02-models\\002-ProofOfConcept\\contracts\\lib\\referencesCode-eai\\009_MessageContent_NumberPerTime_refCod.sol",
  "compiler": {
    "name": "solc",
    "version": "0.8.13+commit.abaa5c0e.Emscripten.clang"
  },
  "schemaVersion": "3.4.11",
  "updatedAt": "2023-04-26T21:56:12.937Z",
  "networkType": "ethereum",
  "devdoc": {
    "kind": "dev",
    "methods": {},
    "version": 1
  },
  "userdoc": {
    "kind": "user",
    "methods": {},
    "version": 1
  }
}