{
  "contractName": "WhatsappProcessWrite",
  "abi": [
    {
      "inputs": [
        {
          "internalType": "address",
          "name": "_applicationWallet",
          "type": "address"
        }
      ],
      "stateMutability": "nonpayable",
      "type": "constructor"
    },
    {
      "anonymous": false,
      "inputs": [
        {
          "indexed": false,
          "internalType": "string",
          "name": "_logMessage",
          "type": "string"
        }
      ],
      "name": "failEvent",
      "type": "event"
    },
    {
      "anonymous": false,
      "inputs": [
        {
          "indexed": false,
          "internalType": "string",
          "name": "_logMessage",
          "type": "string"
        }
      ],
      "name": "successEvent",
      "type": "event"
    },
    {
      "inputs": [
        {
          "internalType": "uint8",
          "name": "_weekDayAccess",
          "type": "uint8"
        },
        {
          "internalType": "string",
          "name": "_resultXPath_k2",
          "type": "string"
        },
        {
          "internalType": "uint32",
          "name": "_accessDateTime",
          "type": "uint32"
        },
        {
          "internalType": "string",
          "name": "_resultXPath_onlyString",
          "type": "string"
        }
      ],
      "name": "rigth_sendMessage",
      "outputs": [
        {
          "internalType": "bool",
          "name": "",
          "type": "bool"
        }
      ],
      "stateMutability": "nonpayable",
      "type": "function"
    },
    {
      "inputs": [],
      "name": "signContract",
      "outputs": [
        {
          "internalType": "bool",
          "name": "",
          "type": "bool"
        }
      ],
      "stateMutability": "nonpayable",
      "type": "function"
    },
    {
      "inputs": [
        {
          "internalType": "string",
          "name": "_name",
          "type": "string"
        },
        {
          "internalType": "address",
          "name": "_walletAddress",
          "type": "address"
        }
      ],
      "name": "changeApplicationParty",
      "outputs": [
        {
          "internalType": "bool",
          "name": "",
          "type": "bool"
        }
      ],
      "stateMutability": "nonpayable",
      "type": "function"
    },
    {
      "inputs": [],
      "name": "getProcessAddress",
      "outputs": [
        {
          "internalType": "address",
          "name": "",
          "type": "address"
        }
      ],
      "stateMutability": "view",
      "type": "function"
    },
    {
      "inputs": [],
      "name": "getApplicationAddress",
      "outputs": [
        {
          "internalType": "address",
          "name": "",
          "type": "address"
        }
      ],
      "stateMutability": "view",
      "type": "function"
    },
    {
      "inputs": [
        {
          "internalType": "address",
          "name": "_walletAddress",
          "type": "address"
        }
      ],
      "name": "getParty",
      "outputs": [
        {
          "components": [
            {
              "internalType": "string",
              "name": "name",
              "type": "string"
            },
            {
              "internalType": "address",
              "name": "walletAddress",
              "type": "address"
            },
            {
              "internalType": "bool",
              "name": "aware",
              "type": "bool"
            }
          ],
          "internalType": "struct EAI.Party",
          "name": "",
          "type": "tuple"
        }
      ],
      "stateMutability": "view",
      "type": "function"
    }
  ],
  "bytecode": "0x60806040523480156200001157600080fd5b5060405162003d7538038062003d75833981810160405281019062000037919062000ee0565b60016000806101000a81548160ff0219169083151502179055506363b13d80600060016101000a81548163ffffffff021916908363ffffffff160217905550636591ac20600060056101000a81548163ffffffff021916908363ffffffff160217905550620000e96040518060400160405280600881526020017f57686174736170700000000000000000000000000000000000000000000000008152508260006200085b60201b620010b61760201c565b600160008201518160000190805190602001906200010992919062000b9f565b5060208201518160010160006101000a81548173ffffffffffffffffffffffffffffffffffffffff021916908373ffffffffffffffffffffffffffffffffffffffff16021790555060408201518160010160146101000a81548160ff021916908315150217905550905050620001c26040518060400160405280601381526020017f496e746567726174696f6e2050726f63657373000000000000000000000000008152503360016200085b60201b620010b61760201c565b60036000820151816000019080519060200190620001e292919062000b9f565b5060208201518160010160006101000a81548173ffffffffffffffffffffffffffffffffffffffff021916908373ffffffffffffffffffffffffffffffffffffffff16021790555060408201518160010160146101000a81548160ff0219169083151502179055509050506003600560003373ffffffffffffffffffffffffffffffffffffffff1673ffffffffffffffffffffffffffffffffffffffff1681526020019081526020016000206000820181600001908054620002a49062000f41565b620002b192919062000c30565b506001820160009054906101000a900473ffffffffffffffffffffffffffffffffffffffff168160010160006101000a81548173ffffffffffffffffffffffffffffffffffffffff021916908373ffffffffffffffffffffffffffffffffffffffff1602179055506001820160149054906101000a900460ff168160010160146101000a81548160ff0219169083151502179055509050506001600560008373ffffffffffffffffffffffffffffffffffffffff1673ffffffffffffffffffffffffffffffffffffffff1681526020019081526020016000206000820181600001908054620003a09062000f41565b620003ad92919062000c30565b506001820160009054906101000a900473ffffffffffffffffffffffffffffffffffffffff168160010160006101000a81548173ffffffffffffffffffffffffffffffffffffffff021916908373ffffffffffffffffffffffffffffffffffffffff1602179055506001820160149054906101000a900460ff168160010160146101000a81548160ff02191690831515021790555090505060066200046060016005620008a160201b620010fa1760201c565b9080600181540180825580915050600190039060005260206000200160009091909190915060008201518160000160006101000a81548160ff021916908360ff16021790555060208201518160000160016101000a81548160ff021916908360ff160217905550505060076200051a601860026040518060400160405280601781526020017f2f2f636f6e766572736174696f6e49642f7465787428290000000000000000008152506200099460201b620011e31760201c565b908060018154018082558091505060019003906000526020600020906003020160009091909190915060008201518160000160006101000a81548160ff021916908360ff16021790555060208201518160000160016101000a81548160ff021916908360ff16021790555060408201518160000160026101000a81548163ffffffff021916908363ffffffff1602179055506060820151816001019080519060200190620005ca92919062000b9f565b5060808201518160020160006101000a81548163ffffffff021916908363ffffffff1602179055505050600a60076000815481106200060e576200060d62000f76565b5b906000526020600020906003020160010190806001815401808255809150506001900390600052602060002001600090919091909150908054620006529062000f41565b6200065f92919062000cc8565b506001600c60076000815481106200067c576200067b62000f76565b5b90600052602060002090600302016001016040516200069c919062001050565b908152602001604051809103902060006101000a81548160ff021916908315150217905550600e6200070e6040518060400160405280601c81526020017f2f2f636f6e766572736174696f6e537461727465722f7465787428290000000081525062000a0b60201b6200124f1760201c565b9080600181540180825580915050600190039060005260206000200160009091909190915060008201518160000190805190602001906200075192919062000b9f565b505050600f62000770612710600562000a2b60201b6200126d1760201c565b9080600181540180825580915050600190039060005260206000200160009091909190915060008201518160000160006101000a81548163ffffffff021916908363ffffffff16021790555060208201518160000160046101000a81548160ff021916908360ff16021790555060408201518160000160056101000a81548163ffffffff021916908363ffffffff16021790555060608201518160000160096101000a81548163ffffffff021916908363ffffffff160217905550608082015181600001600d6101000a81548163ffffffff021916908363ffffffff160217905550505050620012c6565b6200086562000d60565b60405180606001604052808581526020018473ffffffffffffffffffffffffffffffffffffffff16815260200183151581525090509392505050565b620008ab62000d99565b8282600060ff168260ff1610158015620008cc5750600660ff168260ff1611155b6200090e576040517f08c379a00000000000000000000000000000000000000000000000000000000081526004016200090590620010f0565b60405180910390fd5b600060ff168160ff16101580156200092d5750600660ff168160ff1611155b6200096f576040517f08c379a0000000000000000000000000000000000000000000000000000000008152600401620009669062001188565b60405180910390fd5b60405180604001604052808660ff1681526020018560ff168152509250505092915050565b6200099e62000db9565b6000600460ff168460ff1611620009c757620009c48560ff168562000ab060201b60201c565b90505b6040518060a001604052808660ff1681526020018560ff1681526020018263ffffffff168152602001848152602001600063ffffffff168152509150509392505050565b62000a1562000dfa565b6040518060200160405280838152509050919050565b62000a3562000e0d565b6000600460ff168360ff161162000a5f5762000a578362000add60201b60201c565b905062000a64565b600190505b6040518060a001604052808563ffffffff1681526020018460ff1681526020018263ffffffff1681526020018563ffffffff168152602001600063ffffffff1681525091505092915050565b60008062000ac48362000add60201b60201c565b9050808462000ad49190620011e9565b91505092915050565b6000600460ff168260ff16111562000b2c576040517f08c379a000000000000000000000000000000000000000000000000000000000815260040162000b2390620012a4565b60405180910390fd5b600060ff168260ff160362000b45576001905062000b9a565b600160ff168260ff160362000b5e57603c905062000b9a565b600260ff168260ff160362000b7857610e10905062000b9a565b600360ff168260ff160362000b935762015180905062000b9a565b62093a8090505b919050565b82805462000bad9062000f41565b90600052602060002090601f01602090048101928262000bd1576000855562000c1d565b82601f1062000bec57805160ff191683800117855562000c1d565b8280016001018555821562000c1d579182015b8281111562000c1c57825182559160200191906001019062000bff565b5b50905062000c2c919062000e57565b5090565b82805462000c3e9062000f41565b90600052602060002090601f01602090048101928262000c62576000855562000cb5565b82601f1062000c75578054855562000cb5565b8280016001018555821562000cb557600052602060002091601f016020900482015b8281111562000cb457825482559160010191906001019062000c97565b5b50905062000cc4919062000e57565b5090565b82805462000cd69062000f41565b90600052602060002090601f01602090048101928262000cfa576000855562000d4d565b82601f1062000d0d578054855562000d4d565b8280016001018555821562000d4d57600052602060002091601f016020900482015b8281111562000d4c57825482559160010191906001019062000d2f565b5b50905062000d5c919062000e57565b5090565b604051806060016040528060608152602001600073ffffffffffffffffffffffffffffffffffffffff1681526020016000151581525090565b6040518060400160405280600060ff168152602001600060ff1681525090565b6040518060a00160405280600060ff168152602001600060ff168152602001600063ffffffff16815260200160608152602001600063ffffffff1681525090565b6040518060200160405280606081525090565b6040518060a00160405280600063ffffffff168152602001600060ff168152602001600063ffffffff168152602001600063ffffffff168152602001600063ffffffff1681525090565b5b8082111562000e7257600081600090555060010162000e58565b5090565b600080fd5b600073ffffffffffffffffffffffffffffffffffffffff82169050919050565b600062000ea88262000e7b565b9050919050565b62000eba8162000e9b565b811462000ec657600080fd5b50565b60008151905062000eda8162000eaf565b92915050565b60006020828403121562000ef95762000ef862000e76565b5b600062000f098482850162000ec9565b91505092915050565b7f4e487b7100000000000000000000000000000000000000000000000000000000600052602260045260246000fd5b6000600282049050600182168062000f5a57607f821691505b60208210810362000f705762000f6f62000f12565b5b50919050565b7f4e487b7100000000000000000000000000000000000000000000000000000000600052603260045260246000fd5b600081905092915050565b60008190508160005260206000209050919050565b6000815462000fd48162000f41565b62000fe0818662000fa5565b9450600182166000811462000ffe5760018114620010105762001047565b60ff1983168652818601935062001047565b6200101b8562000fb0565b60005b838110156200103f578154818901526001820191506020810190506200101e565b838801955050505b50505092915050565b60006200105e828462000fc5565b915081905092915050565b600082825260208201905092915050565b7f546865205f7374617274446179206e6f7420726570726573656e74732061207660008201527f616c696420646179000000000000000000000000000000000000000000000000602082015250565b6000620010d860288362001069565b9150620010e5826200107a565b604082019050919050565b600060208201905081810360008301526200110b81620010c9565b9050919050565b7f546865205f656e64446179206e6f7420726570726573656e747320612076616c60008201527f6964206461790000000000000000000000000000000000000000000000000000602082015250565b60006200117060268362001069565b91506200117d8262001112565b604082019050919050565b60006020820190508181036000830152620011a38162001161565b9050919050565b600063ffffffff82169050919050565b7f4e487b7100000000000000000000000000000000000000000000000000000000600052601160045260246000fd5b6000620011f682620011aa565b91506200120383620011aa565b92508163ffffffff0483118215151615620012235762001222620011ba565b5b828202905092915050565b7f546865206d6574686f642067657454696d65496e5365636f6e647320646f657360008201527f6e277420776f726b20666f72204d4f4e544820616e6420594541520000000000602082015250565b60006200128c603b8362001069565b915062001299826200122e565b604082019050919050565b60006020820190508181036000830152620012bf816200127d565b9050919050565b612a9f80620012d66000396000f3fe608060405234801561001057600080fd5b50600436106100625760003560e01c806327f540ae146100675780635e744c6a1461009757806370d8915a146100c757806385931911146100e5578063b8b4f1a014610103578063fb6f824314610121575b600080fd5b610081600480360381019061007c9190611f8c565b610151565b60405161008e9190612046565b60405180910390f35b6100b160048036038101906100ac91906120bf565b6107f6565b6040516100be9190612046565b60405180910390f35b6100cf6109e7565b6040516100dc919061212a565b60405180910390f35b6100ed610b4e565b6040516100fa919061212a565b60405180910390f35b61010b610cb6565b6040516101189190612046565b60405180910390f35b61013b60048036038101906101369190612145565b610e20565b6040516101489190612268565b60405180910390f35b60008060009054906101000a900460ff166101a1576040517f08c379a0000000000000000000000000000000000000000000000000000000008152600401610198906122e7565b60405180910390fd5b3373ffffffffffffffffffffffffffffffffffffffff16600360010160009054906101000a900473ffffffffffffffffffffffffffffffffffffffff1673ffffffffffffffffffffffffffffffffffffffff1614610234576040517f08c379a000000000000000000000000000000000000000000000000000000000815260040161022b90612379565b60405180910390fd5b6102aa85600660008154811061024d5761024c612399565b5b906000526020600020016040518060400160405290816000820160009054906101000a900460ff1660ff1660ff1681526020016000820160019054906101000a900460ff1660ff1660ff16815250506112e690919063ffffffff16565b156107e9576009600a6000815481106102c6576102c5612399565b5b906000526020600020016040516102dd91906124c7565b9081526020016040518091039020846040516102f9919061250f565b908152602001604051809103902060009054906101000a900460ff166105995760016009600a60008154811061033257610331612399565b5b9060005260206000200160405161034991906124c7565b908152602001604051809103902085604051610365919061250f565b908152602001604051809103902060006101000a81548160ff021916908315150217905550600b849080600181540180825580915050600190039060005260206000200160009091909190915090805190602001906103c5929190611b56565b5060076000815481106103db576103da612399565b5b90600052602060002090600302016008600a600081548110610400576103ff612399565b5b9060005260206000200160405161041791906124c7565b908152602001604051809103902085604051610433919061250f565b90815260200160405180910390206000820160009054906101000a900460ff168160000160006101000a81548160ff021916908360ff1602179055506000820160019054906101000a900460ff168160000160016101000a81548160ff021916908360ff1602179055506000820160029054906101000a900463ffffffff168160000160026101000a81548163ffffffff021916908363ffffffff16021790555060018201816001019080546104e8906123f7565b6104f3929190611bdc565b506002820160009054906101000a900463ffffffff168160020160006101000a81548163ffffffff021916908363ffffffff160217905550905050610598836008600a60008154811061054957610548612399565b5b9060005260206000200160405161056091906124c7565b90815260200160405180910390208660405161057c919061250f565b908152602001604051809103902061137290919063ffffffff16565b5b600060ff1661072b846008600a6000815481106105b9576105b8612399565b5b906000526020600020016040516105d091906124c7565b9081526020016040518091039020876040516105ec919061250f565b90815260200160405180910390206040518060a00160405290816000820160009054906101000a900460ff1660ff1660ff1681526020016000820160019054906101000a900460ff1660ff1660ff1681526020016000820160029054906101000a900463ffffffff1663ffffffff1663ffffffff168152602001600182018054610675906123f7565b80601f01602080910402602001604051908101604052809291908181526020018280546106a1906123f7565b80156106ee5780601f106106c3576101008083540402835291602001916106ee565b820191906000526020600020905b8154815290600101906020018083116106d157829003601f168201915b505050505081526020016002820160009054906101000a900463ffffffff1663ffffffff1663ffffffff168152505061140790919063ffffffff16565b14801561077c575061077b6040518060400160405280601281526020017f427573696e6573732d696e6974696174656400000000000000000000000000008152508361145090919063ffffffff16565b5b156107e8576107b283600f60008154811061079a57610799612399565b5b906000526020600020016114b990919063ffffffff16565b156107e7576107de600f6000815481106107cf576107ce612399565b5b90600052602060002001611532565b600190506107ee565b5b5b600090505b949350505050565b60003373ffffffffffffffffffffffffffffffffffffffff16600360010160009054906101000a900473ffffffffffffffffffffffffffffffffffffffff1673ffffffffffffffffffffffffffffffffffffffff161461088b576040517f08c379a000000000000000000000000000000000000000000000000000000000815260040161088290612379565b60405180910390fd5b600560006001800160009054906101000a900473ffffffffffffffffffffffffffffffffffffffff1673ffffffffffffffffffffffffffffffffffffffff1673ffffffffffffffffffffffffffffffffffffffff168152602001908152602001600020600080820160006108ff9190611c69565b6001820160006101000a81549073ffffffffffffffffffffffffffffffffffffffff02191690556001820160146101000a81549060ff02191690555050610948838360006110b6565b60016000820151816000019080519060200190610966929190611b56565b5060208201518160010160006101000a81548173ffffffffffffffffffffffffffffffffffffffff021916908373ffffffffffffffffffffffffffffffffffffffff16021790555060408201518160010160146101000a81548160ff0219169083151502179055509050506109dc826001611577565b506001905092915050565b60008060009054906101000a900460ff16610a37576040517f08c379a0000000000000000000000000000000000000000000000000000000008152600401610a2e906122e7565b60405180910390fd5b3373ffffffffffffffffffffffffffffffffffffffff166001800160009054906101000a900473ffffffffffffffffffffffffffffffffffffffff1673ffffffffffffffffffffffffffffffffffffffff161480610ae557503373ffffffffffffffffffffffffffffffffffffffff16600360010160009054906101000a900473ffffffffffffffffffffffffffffffffffffffff1673ffffffffffffffffffffffffffffffffffffffff16145b610b24576040517f08c379a0000000000000000000000000000000000000000000000000000000008152600401610b1b90612598565b60405180910390fd5b6001800160009054906101000a900473ffffffffffffffffffffffffffffffffffffffff16905090565b60008060009054906101000a900460ff16610b9e576040517f08c379a0000000000000000000000000000000000000000000000000000000008152600401610b95906122e7565b60405180910390fd5b3373ffffffffffffffffffffffffffffffffffffffff166001800160009054906101000a900473ffffffffffffffffffffffffffffffffffffffff1673ffffffffffffffffffffffffffffffffffffffff161480610c4c57503373ffffffffffffffffffffffffffffffffffffffff16600360010160009054906101000a900473ffffffffffffffffffffffffffffffffffffffff1673ffffffffffffffffffffffffffffffffffffffff16145b610c8b576040517f08c379a0000000000000000000000000000000000000000000000000000000008152600401610c8290612598565b60405180910390fd5b600360010160009054906101000a900473ffffffffffffffffffffffffffffffffffffffff16905090565b60008060009054906101000a900460ff16610d06576040517f08c379a0000000000000000000000000000000000000000000000000000000008152600401610cfd906122e7565b60405180910390fd5b3373ffffffffffffffffffffffffffffffffffffffff166001800160009054906101000a900473ffffffffffffffffffffffffffffffffffffffff1673ffffffffffffffffffffffffffffffffffffffff1614610d98576040517f08c379a0000000000000000000000000000000000000000000000000000000008152600401610d8f9061262a565b60405180910390fd5b600015156001800160149054906101000a900460ff16151514610df0576040517f08c379a0000000000000000000000000000000000000000000000000000000008152600401610de790612696565b60405180910390fd5b60018060010160146101000a81548160ff021916908315150217905550610e18336001611577565b506001905090565b610e28611ca9565b60008054906101000a900460ff16610e75576040517f08c379a0000000000000000000000000000000000000000000000000000000008152600401610e6c906122e7565b60405180910390fd5b3373ffffffffffffffffffffffffffffffffffffffff166001800160009054906101000a900473ffffffffffffffffffffffffffffffffffffffff1673ffffffffffffffffffffffffffffffffffffffff161480610f2357503373ffffffffffffffffffffffffffffffffffffffff16600360010160009054906101000a900473ffffffffffffffffffffffffffffffffffffffff1673ffffffffffffffffffffffffffffffffffffffff16145b610f62576040517f08c379a0000000000000000000000000000000000000000000000000000000008152600401610f5990612598565b60405180910390fd5b600560008373ffffffffffffffffffffffffffffffffffffffff1673ffffffffffffffffffffffffffffffffffffffff168152602001908152602001600020604051806060016040529081600082018054610fbc906123f7565b80601f0160208091040260200160405190810160405280929190818152602001828054610fe8906123f7565b80156110355780601f1061100a57610100808354040283529160200191611035565b820191906000526020600020905b81548152906001019060200180831161101857829003601f168201915b505050505081526020016001820160009054906101000a900473ffffffffffffffffffffffffffffffffffffffff1673ffffffffffffffffffffffffffffffffffffffff1673ffffffffffffffffffffffffffffffffffffffff1681526020016001820160149054906101000a900460ff1615151515815250509050919050565b6110be611ca9565b60405180606001604052808581526020018473ffffffffffffffffffffffffffffffffffffffff16815260200183151581525090509392505050565b611102611ce2565b8282600060ff168260ff16101580156111225750600660ff168260ff1611155b611161576040517f08c379a000000000000000000000000000000000000000000000000000000000815260040161115890612728565b60405180910390fd5b600060ff168160ff161015801561117f5750600660ff168160ff1611155b6111be576040517f08c379a00000000000000000000000000000000000000000000000000000000081526004016111b5906127ba565b60405180910390fd5b60405180604001604052808660ff1681526020018560ff168152509250505092915050565b6111eb611d02565b6000600460ff168460ff161161120b576112088560ff168561167a565b90505b6040518060a001604052808660ff1681526020018560ff1681526020018263ffffffff168152602001848152602001600063ffffffff168152509150509392505050565b611257611d43565b6040518060200160405280838152509050919050565b611275611d56565b6000600460ff168360ff16116112955761128e8361169d565b905061129a565b600190505b6040518060a001604052808563ffffffff1681526020018460ff1681526020018263ffffffff1681526020018563ffffffff168152602001600063ffffffff1681525091505092915050565b6000826020015160ff16836000015160ff16101561133557826000015160ff168260ff16101580156113225750826020015160ff168260ff1611155b15611330576001905061136c565b611367565b826000015160ff168260ff161015806113585750826020015160ff168260ff1611155b15611366576001905061136c565b5b600090505b92915050565b60008260020160009054906101000a900463ffffffff1663ffffffff1614806113bb57508160020160009054906101000a900463ffffffff1663ffffffff168163ffffffff1610155b15611403578160000160029054906101000a900463ffffffff16816113e09190612809565b8260020160006101000a81548163ffffffff021916908363ffffffff1602179055505b5050565b600080836080015163ffffffff1614806114315750826080015163ffffffff168263ffffffff1610155b1561144257600060ff16905061144a565b600160ff1690505b92915050565b600081604051602001611463919061250f565b604051602081830303815290604052805190602001208360405160200161148a919061250f565b60405160208183030381529060405280519060200120036114ae57600190506114b3565b600090505b92915050565b60006114eb8360000160049054906101000a900460ff1684600001600d9054906101000a900463ffffffff1684611754565b156114fb576114fa8383611819565b5b60008360000160099054906101000a900463ffffffff1663ffffffff161115611527576001905061152c565b600090505b92915050565b60018160000160098282829054906101000a900463ffffffff166115569190612843565b92506101000a81548163ffffffff021916908363ffffffff16021790555050565b600081600560008573ffffffffffffffffffffffffffffffffffffffff1673ffffffffffffffffffffffffffffffffffffffff16815260200190815260200160002060008201816000019080546115cd906123f7565b6115d8929190611bdc565b506001820160009054906101000a900473ffffffffffffffffffffffffffffffffffffffff168160010160006101000a81548173ffffffffffffffffffffffffffffffffffffffff021916908373ffffffffffffffffffffffffffffffffffffffff1602179055506001820160149054906101000a900460ff168160010160146101000a81548160ff0219169083151502179055509050506001905092915050565b6000806116868361169d565b905080846116949190612877565b91505092915050565b6000600460ff168260ff1611156116e9576040517f08c379a00000000000000000000000000000000000000000000000000000000081526004016116e090612927565b60405180910390fd5b600060ff168260ff1603611700576001905061174f565b600160ff168260ff160361171757603c905061174f565b600260ff168260ff160361172f57610e10905061174f565b600360ff168260ff16036117485762015180905061174f565b62093a8090505b919050565b600080849050600460ff168160ff1611611780578363ffffffff168363ffffffff161015915050611812565b600560ff168160ff16036117e857600061179f8463ffffffff166118a6565b50915050600d8563ffffffff161480156117bf575060018163ffffffff16145b156117cf57600192505050611812565b8463ffffffff168163ffffffff16101592505050611812565b60006117f98463ffffffff166118a6565b505090508463ffffffff168163ffffffff161015925050505b9392505050565b8160000160009054906101000a900463ffffffff168260000160096101000a81548163ffffffff021916908363ffffffff1602179055506118808260000160059054906101000a900463ffffffff168360000160049054906101000a900460ff1683611a59565b82600001600d6101000a81548163ffffffff021916908363ffffffff1602179055505050565b6000806000806201518063ffffffff16856118c19190612980565b9050600062253d8c62010bd9836118d89190612809565b6118e29190612809565b9050600062023ab18260046118f79190612877565b61190191906129b1565b9050600460038262023ab16119169190612877565b6119209190612809565b61192a91906129b1565b826119359190612843565b9150600062164b0960018461194a9190612809565b610fa06119579190612877565b61196191906129b1565b9050601f6004826105b56119759190612877565b61197f91906129b1565b8461198a9190612843565b6119949190612809565b9250600061098f8460506119a89190612877565b6119b291906129b1565b9050600060508261098f6119c69190612877565b6119d091906129b1565b856119db9190612843565b9050600b826119ea91906129b1565b945084600c6119f99190612877565b600283611a069190612809565b611a109190612843565b91508483603186611a219190612843565b6064611a2d9190612877565b611a379190612809565b611a419190612809565b92508298508197508096505050505050509193909250565b6000600460ff168360ff1611611a7b57611a74838386611aec565b9050611ae5565b600560ff168360ff1603611ab9576000611a9a8363ffffffff166118a6565b5063ffffffff16915050600181611ab191906129e2565b915050611ae5565b6000611aca8363ffffffff166118a6565b505063ffffffff169050600181611ae191906129e2565b9150505b9392505050565b6000808284611afb9190612a38565b905060008184611b0b9190612843565b9050600460ff168660ff1603611b3e576203f4808186611b2b9190612809565b611b359190612809565b92505050611b4f565b8085611b4a9190612809565b925050505b9392505050565b828054611b62906123f7565b90600052602060002090601f016020900481019282611b845760008555611bcb565b82601f10611b9d57805160ff1916838001178555611bcb565b82800160010185558215611bcb579182015b82811115611bca578251825591602001919060010190611baf565b5b509050611bd89190611da0565b5090565b828054611be8906123f7565b90600052602060002090601f016020900481019282611c0a5760008555611c58565b82601f10611c1b5780548555611c58565b82800160010185558215611c5857600052602060002091601f016020900482015b82811115611c57578254825591600101919060010190611c3c565b5b509050611c659190611da0565b5090565b508054611c75906123f7565b6000825580601f10611c875750611ca6565b601f016020900490600052602060002090810190611ca59190611da0565b5b50565b604051806060016040528060608152602001600073ffffffffffffffffffffffffffffffffffffffff1681526020016000151581525090565b6040518060400160405280600060ff168152602001600060ff1681525090565b6040518060a00160405280600060ff168152602001600060ff168152602001600063ffffffff16815260200160608152602001600063ffffffff1681525090565b6040518060200160405280606081525090565b6040518060a00160405280600063ffffffff168152602001600060ff168152602001600063ffffffff168152602001600063ffffffff168152602001600063ffffffff1681525090565b5b80821115611db9576000816000905550600101611da1565b5090565b6000604051905090565b600080fd5b600080fd5b600060ff82169050919050565b611de781611dd1565b8114611df257600080fd5b50565b600081359050611e0481611dde565b92915050565b600080fd5b600080fd5b6000601f19601f8301169050919050565b7f4e487b7100000000000000000000000000000000000000000000000000000000600052604160045260246000fd5b611e5d82611e14565b810181811067ffffffffffffffff82111715611e7c57611e7b611e25565b5b80604052505050565b6000611e8f611dbd565b9050611e9b8282611e54565b919050565b600067ffffffffffffffff821115611ebb57611eba611e25565b5b611ec482611e14565b9050602081019050919050565b82818337600083830152505050565b6000611ef3611eee84611ea0565b611e85565b905082815260208101848484011115611f0f57611f0e611e0f565b5b611f1a848285611ed1565b509392505050565b600082601f830112611f3757611f36611e0a565b5b8135611f47848260208601611ee0565b91505092915050565b600063ffffffff82169050919050565b611f6981611f50565b8114611f7457600080fd5b50565b600081359050611f8681611f60565b92915050565b60008060008060808587031215611fa657611fa5611dc7565b5b6000611fb487828801611df5565b945050602085013567ffffffffffffffff811115611fd557611fd4611dcc565b5b611fe187828801611f22565b9350506040611ff287828801611f77565b925050606085013567ffffffffffffffff81111561201357612012611dcc565b5b61201f87828801611f22565b91505092959194509250565b60008115159050919050565b6120408161202b565b82525050565b600060208201905061205b6000830184612037565b92915050565b600073ffffffffffffffffffffffffffffffffffffffff82169050919050565b600061208c82612061565b9050919050565b61209c81612081565b81146120a757600080fd5b50565b6000813590506120b981612093565b92915050565b600080604083850312156120d6576120d5611dc7565b5b600083013567ffffffffffffffff8111156120f4576120f3611dcc565b5b61210085828601611f22565b9250506020612111858286016120aa565b9150509250929050565b61212481612081565b82525050565b600060208201905061213f600083018461211b565b92915050565b60006020828403121561215b5761215a611dc7565b5b6000612169848285016120aa565b91505092915050565b600081519050919050565b600082825260208201905092915050565b60005b838110156121ac578082015181840152602081019050612191565b838111156121bb576000848401525b50505050565b60006121cc82612172565b6121d6818561217d565b93506121e681856020860161218e565b6121ef81611e14565b840191505092915050565b61220381612081565b82525050565b6122128161202b565b82525050565b6000606083016000830151848203600086015261223582826121c1565b915050602083015161224a60208601826121fa565b50604083015161225d6040860182612209565b508091505092915050565b600060208201905081810360008301526122828184612218565b905092915050565b600082825260208201905092915050565b7f5468697320636f6e747261637420697320646561637469766174656400000000600082015250565b60006122d1601c8361228a565b91506122dc8261229b565b602082019050919050565b60006020820190508181036000830152612300816122c4565b9050919050565b7f4f6e6c79207468652070726f636573732063616e20657865637574652074686960008201527f73206f7065726174696f6e000000000000000000000000000000000000000000602082015250565b6000612363602b8361228a565b915061236e82612307565b604082019050919050565b6000602082019050818103600083015261239281612356565b9050919050565b7f4e487b7100000000000000000000000000000000000000000000000000000000600052603260045260246000fd5b7f4e487b7100000000000000000000000000000000000000000000000000000000600052602260045260246000fd5b6000600282049050600182168061240f57607f821691505b602082108103612422576124216123c8565b5b50919050565b600081905092915050565b60008190508160005260206000209050919050565b60008154612455816123f7565b61245f8186612428565b9450600182166000811461247a576001811461248b576124be565b60ff198316865281860193506124be565b61249485612433565b60005b838110156124b657815481890152600182019150602081019050612497565b838801955050505b50505092915050565b60006124d38284612448565b915081905092915050565b60006124e982612172565b6124f38185612428565b935061250381856020860161218e565b80840191505092915050565b600061251b82846124de565b915081905092915050565b7f4f6e6c79207468652070726f63657373206f7220746865206170706c6963617460008201527f696f6e2063616e20657865637574652074686973206f7065726174696f6e0000602082015250565b6000612582603e8361228a565b915061258d82612526565b604082019050919050565b600060208201905081810360008301526125b181612575565b9050919050565b7f4f6e6c7920746865206170706c69636174696f6e2063616e206578656375746560008201527f2074686973206f7065726174696f6e0000000000000000000000000000000000602082015250565b6000612614602f8361228a565b915061261f826125b8565b604082019050919050565b6000602082019050818103600083015261264381612607565b9050919050565b7f54686520636f6e747261637420697320616c7265616479207369676e65640000600082015250565b6000612680601e8361228a565b915061268b8261264a565b602082019050919050565b600060208201905081810360008301526126af81612673565b9050919050565b7f546865205f7374617274446179206e6f7420726570726573656e74732061207660008201527f616c696420646179000000000000000000000000000000000000000000000000602082015250565b600061271260288361228a565b915061271d826126b6565b604082019050919050565b6000602082019050818103600083015261274181612705565b9050919050565b7f546865205f656e64446179206e6f7420726570726573656e747320612076616c60008201527f6964206461790000000000000000000000000000000000000000000000000000602082015250565b60006127a460268361228a565b91506127af82612748565b604082019050919050565b600060208201905081810360008301526127d381612797565b9050919050565b7f4e487b7100000000000000000000000000000000000000000000000000000000600052601160045260246000fd5b600061281482611f50565b915061281f83611f50565b92508263ffffffff03821115612838576128376127da565b5b828201905092915050565b600061284e82611f50565b915061285983611f50565b92508282101561286c5761286b6127da565b5b828203905092915050565b600061288282611f50565b915061288d83611f50565b92508163ffffffff04831182151516156128aa576128a96127da565b5b828202905092915050565b7f546865206d6574686f642067657454696d65496e5365636f6e647320646f657360008201527f6e277420776f726b20666f72204d4f4e544820616e6420594541520000000000602082015250565b6000612911603b8361228a565b915061291c826128b5565b604082019050919050565b6000602082019050818103600083015261294081612904565b9050919050565b6000819050919050565b7f4e487b7100000000000000000000000000000000000000000000000000000000600052601260045260246000fd5b600061298b82612947565b915061299683612947565b9250826129a6576129a5612951565b5b828204905092915050565b60006129bc82611f50565b91506129c783611f50565b9250826129d7576129d6612951565b5b828204905092915050565b60006129ed82612947565b91506129f883612947565b9250827fffffffffffffffffffffffffffffffffffffffffffffffffffffffffffffffff03821115612a2d57612a2c6127da565b5b828201905092915050565b6000612a4382611f50565b9150612a4e83611f50565b925082612a5e57612a5d612951565b5b82820690509291505056fea2646970667358221220a523eadfa52aed4911f7b94e1ccd00bf1b42d70b362eb38f5e29f432df52104f64736f6c634300080d0033",
  "immutableReferences": {},
  "source": "/* ========================== BEGIN: code for all contracts ====================== */\r\n//SPDX-License-Identifier: MIT\r\npragma solidity >0.8.4 < 0.8.14;\r\n\r\nimport \"../../lib/eai/EAI.sol\";\r\n\r\ncontract WhatsappProcessWrite {\r\n\r\n    bool activated;\r\n \r\n    uint32 beginDate; \r\n\tuint32 dueDate; \t\r\n    using EAI for EAI.Party;\r\n       \r\n    EAI.Party application;\r\n    EAI.Party process;\r\n    mapping(address=>EAI.Party) mapParty;\r\n\r\n    event failEvent(string _logMessage);\r\n    event successEvent(string _logMessage);\r\n/* --------------------------- END: code for all contracts ----------------------- */  \r\n\r\n\r\n/* =========== BEGIN: codes generated based in specific jabuti contract =================== */\r\n    \t\r\n//  1 STEP:  Import library to conditions/terms  ---------------------------------- \r\n\r\n    using EAI for string;\r\n    using EAI  for EAI.MessageContent_onlyXPath_String;\r\n    using EAI for EAI.SessionInterval;\r\n    using EAI for EAI.WeekDaysInterval;\r\n    using EAI for EAI.MaxNumberOfOperationByTime;    \r\n    \r\n\r\n// ----------------------------------------------------------------------------------\r\n\r\n// 2 STEP: Identify and create the variables  from \" variable block\" ---------------  \r\n  \r\n    // ADD NEW CONTENT HERE IF EXIST\r\n    // EAI.MessageContent_onlyXPath_String conversationId;\r\n    // EAI.SessionInterval session;\r\n    // EAI.MessageContent_onlyXPath_String conversationStarter;\r\n\r\n// ----------------------------------------------------------------------------------\r\n\r\n\r\n// 3 STEP: Identify and create variables referring to the clauses terms ------------\r\n\t\r\n    // ADD NEW CONTENT HERE\r\n\r\n    EAI.WeekDaysInterval[] weekDaysInterval_C1;    \r\n    \r\n    EAI.SessionInterval[] sessionInterval_C1;\r\n    mapping(string => mapping(string=>EAI.SessionInterval)) sessionByContent;\r\n    mapping(string => mapping(string=>bool)) exists_k1mapk2;\r\n    string[] keys_k1;  // For storing keys \r\n    string[] keys_k2;  // For storing keys\r\n    mapping (string => bool) exists_k1; // Additional Map for checking if key exists\r\n    mapping (string => bool) exists_k2; // Additional Map for checking if key exists\r\n    \r\n    EAI.MessageContent_onlyXPath_String[] msgContent_onlyPath_String_C1;\r\n    EAI.MaxNumberOfOperationByTime[] maxNumberOfOperationByTime_C1;\r\n    \r\n// -----------------------------------------------------------------------------------\r\n\r\n\r\n// 4 STEP: Create the constructor method --------------------------------------------\r\n\tconstructor(address _applicationWallet){\r\n\t \t\r\n        activated = true;\r\n        \r\n        // Catch the date from jabuti contract \r\n        beginDate = 1672560000; // \"2023-01-01 08:00:00\"\r\n\t    dueDate = 1704045600;  // \"2023-12-31 18:00:00\"\r\n        // Catch the name of the part for creaty the parties         \r\n\t    application = EAI.createParty(\"Whatsapp\", _applicationWallet, false);  // UPDATE THE application NAME\r\n        process = EAI.createParty(\"Integration Process\", msg.sender, true);               // UPDATE THE process NAME\r\n        mapParty[msg.sender] = process;\r\n        mapParty[_applicationWallet] = application;\r\n\r\n// 5 STEP: Create the terms of the clauses, (check if some of them use a variable from variable block)\r\n\r\n        // ADD NEW CONTENT HERE\r\n        weekDaysInterval_C1.push(EAI.createWeekDaysInterval(EAI.MONDAY, EAI.FRIDAY));\r\n        \r\n        sessionInterval_C1.push(EAI.createSessionInteval(24, EAI.HOUR, \"//conversationId/text()\"));\r\n        keys_k1.push(sessionInterval_C1[0].xpath); // 0        \r\n        exists_k1[sessionInterval_C1[0].xpath] = true;\r\n\r\n        msgContent_onlyPath_String_C1.push(EAI.createMessageContent_onlyXPath_String(\"//conversationStarter/text()\"));\r\n        maxNumberOfOperationByTime_C1.push(EAI.createMaxNumberOfOperationByTime(10000, EAI.MONTH));\r\n\r\n\t}\r\n\t\r\n// 6 STEP: Translate the clauses to functions\r\n\r\n\r\n    // ADD NEW CONTENT HERE\r\n    function rigth_sendMessage(uint8 _weekDayAccess, string memory _resultXPath_k2, uint32 _accessDateTime, string memory _resultXPath_onlyString) public onlyProcess() returns(bool){\r\n\r\n        if(weekDaysInterval_C1[0].isIntoWeekDaysInterval(_weekDayAccess)){\r\n            if(!exists_k1mapk2[keys_k1[0]][_resultXPath_k2]){\r\n                exists_k1mapk2[keys_k1[0]][_resultXPath_k2] = true;\r\n                keys_k2.push(_resultXPath_k2);\r\n                sessionByContent[keys_k1[0]][_resultXPath_k2] = sessionInterval_C1[0];\r\n                sessionByContent[keys_k1[0]][_resultXPath_k2].startNewSessionInterval(_accessDateTime);\r\n            }\r\n\r\n            if(sessionByContent[keys_k1[0]][_resultXPath_k2].sessionStatus(_accessDateTime) == EAI.CLOSED &&\r\n               _resultXPath_onlyString.isEqual(\"Business-initiated\")\r\n                //EAI.isEqual(_resultXPath_onlyString, \"Business-initiated\")            \r\n            ){\r\n                if(maxNumberOfOperationByTime_C1[0].hasAvailableOperations_ByTime(_accessDateTime)){\r\n                    maxNumberOfOperationByTime_C1[0].decreaseOneOperation_ByTime();\r\n                    return true;\r\n                }   \r\n            }\r\n        }\r\n\r\n        return false;                \r\n \r\n    }\r\n\r\n\r\n\r\n\r\n/* -------------- END: codes generated based in specific jabuti contract ------------- */\r\n\r\n\r\n/* ========================== BEGIN: code for all contracts ====================== */\r\n\r\n    /* the process sign the contract by default, the function signContract \r\n    is used to get the applicationParty signature*/      \r\n    function signContract() public onlyApplication() returns(bool) {\r\n        require(application.aware == false, \"The contract is already signed\");        \r\n        application.aware = true;  \r\n        updateMapParty(msg.sender, application);\r\n\t\treturn true;\r\n    }\r\n\r\n    function updateMapParty(address _walletAddress, EAI.Party storage _party)internal returns(bool){       \r\n        mapParty[_walletAddress] = _party;\r\n\t\treturn true;\r\n    }\r\n    \r\n    /* It only possible to change the name and the address of the party. \r\n    After change the  party, the new party need to sign the contract */\r\n    function changeApplicationParty(string memory _name, address _walletAddress) public returns(bool) {       \r\n        require(process.walletAddress == msg.sender, \"Only the process can execute this operation\");\r\n        delete mapParty[application.walletAddress];\r\n        application = EAI.createParty(_name, _walletAddress, false);          \r\n        updateMapParty(_walletAddress, application);\r\n        return true;       \r\n    }\r\n    \r\n    function getProcessAddress() public view onlyInvolvedParties returns(address){\r\n        return process.walletAddress;\r\n    }\r\n    \r\n    function getApplicationAddress() public view onlyInvolvedParties returns(address){\r\n        return application.walletAddress;\r\n    }\r\n\r\n    function getParty(address _walletAddress) public view onlyInvolvedParties returns(EAI.Party memory){\r\n        return mapParty[_walletAddress];\r\n    }\r\n\r\n    /* ==================================== MODIFIERS ==================================== */\r\n    modifier onlyApplication(){        \r\n        require(activated, \"This contract is deactivated\");            \r\n        require(application.walletAddress == msg.sender, \"Only the application can execute this operation\");\r\n        _;        \r\n    }\r\n\r\n    modifier onlyProcess(){\r\n        require(activated, \"This contract is deactivated\");\r\n        require(process.walletAddress == msg.sender, \"Only the process can execute this operation\");\r\n        _;\r\n    }\r\n\r\n    modifier onlyInvolvedParties(){\r\n        require(activated, \"This contract is deactivated\");\r\n        require(\r\n            (application.walletAddress == msg.sender || process.walletAddress == msg.sender ) ,\r\n            \"Only the process or the application can execute this operation\");\r\n        _;\r\n    }\r\n\r\n}\r\n/* --------------------------- END: code for all contracts ----------------------- */\r\n\r\n\r\n",
  "sourcePath": "C:\\git-repository\\dsl-smart-contract-eai\\02-models\\002-ProofOfConcept\\contracts\\study-case-contracts\\004-whatsapp\\WhatsappProcessWrite.sol",
  "compiler": {
    "name": "solc",
    "version": "0.8.13+commit.abaa5c0e.Emscripten.clang"
  },
  "schemaVersion": "3.4.13",
  "updatedAt": "2023-04-19T18:48:33.686Z",
  "devdoc": {
    "kind": "dev",
    "methods": {},
    "version": 1
  },
  "userdoc": {
    "kind": "user",
    "methods": {},
    "version": 1
  }
}