{
	"DeliveryHiringRO.sol": {
		"DeliveryHiring": {
			"abi": [
				{
					"inputs": [
						{
							"internalType": "address",
							"name": "_applicationWallet",
							"type": "address"
						},
						{
							"internalType": "address",
							"name": "_processWallet",
							"type": "address"
						}
					],
					"stateMutability": "nonpayable",
					"type": "constructor"
				},
				{
					"anonymous": false,
					"inputs": [
						{
							"indexed": false,
							"internalType": "string",
							"name": "message",
							"type": "string"
						}
					],
					"name": "failEvent",
					"type": "event"
				},
				{
					"anonymous": false,
					"inputs": [
						{
							"indexed": false,
							"internalType": "string",
							"name": "message",
							"type": "string"
						}
					],
					"name": "successEvent",
					"type": "event"
				},
				{
					"inputs": [
						{
							"internalType": "uint256",
							"name": "",
							"type": "uint256"
						}
					],
					"name": "businessDay",
					"outputs": [
						{
							"internalType": "uint256",
							"name": "weekDay_start",
							"type": "uint256"
						},
						{
							"internalType": "uint256",
							"name": "weekDay_end",
							"type": "uint256"
						}
					],
					"stateMutability": "view",
					"type": "function"
				},
				{
					"inputs": [
						{
							"internalType": "uint256",
							"name": "",
							"type": "uint256"
						}
					],
					"name": "messageContent_request",
					"outputs": [
						{
							"internalType": "string",
							"name": "xPathQuery",
							"type": "string"
						},
						{
							"internalType": "string",
							"name": "binaryOperator",
							"type": "string"
						},
						{
							"internalType": "string",
							"name": "referenceValue",
							"type": "string"
						},
						{
							"internalType": "uint256",
							"name": "frequencyTime",
							"type": "uint256"
						},
						{
							"internalType": "uint256",
							"name": "endOfInterval",
							"type": "uint256"
						},
						{
							"internalType": "uint256",
							"name": "accumulatedValue",
							"type": "uint256"
						}
					],
					"stateMutability": "view",
					"type": "function"
				},
				{
					"inputs": [
						{
							"internalType": "uint256",
							"name": "",
							"type": "uint256"
						}
					],
					"name": "messageContent_response",
					"outputs": [
						{
							"internalType": "string",
							"name": "xPathQuery",
							"type": "string"
						},
						{
							"internalType": "string",
							"name": "binaryOperator",
							"type": "string"
						},
						{
							"internalType": "string",
							"name": "referenceValue",
							"type": "string"
						},
						{
							"internalType": "uint256",
							"name": "frequencyTime",
							"type": "uint256"
						},
						{
							"internalType": "uint256",
							"name": "endOfInterval",
							"type": "uint256"
						},
						{
							"internalType": "uint256",
							"name": "accumulatedValue",
							"type": "uint256"
						}
					],
					"stateMutability": "view",
					"type": "function"
				},
				{
					"inputs": [
						{
							"internalType": "uint256",
							"name": "",
							"type": "uint256"
						}
					],
					"name": "operationLimit",
					"outputs": [
						{
							"internalType": "uint256",
							"name": "requestsLimit",
							"type": "uint256"
						},
						{
							"internalType": "uint256",
							"name": "frequencyTime",
							"type": "uint256"
						},
						{
							"internalType": "uint256",
							"name": "timeout",
							"type": "uint256"
						},
						{
							"internalType": "uint256",
							"name": "counter",
							"type": "uint256"
						}
					],
					"stateMutability": "view",
					"type": "function"
				},
				{
					"inputs": [
						{
							"internalType": "uint32",
							"name": "_accessDateTime",
							"type": "uint32"
						},
						{
							"internalType": "string[]",
							"name": "_xPathContent",
							"type": "string[]"
						},
						{
							"internalType": "address",
							"name": "_performer",
							"type": "address"
						}
					],
					"name": "requestDelivery",
					"outputs": [
						{
							"internalType": "bool",
							"name": "",
							"type": "bool"
						}
					],
					"stateMutability": "nonpayable",
					"type": "function"
				},
				{
					"inputs": [
						{
							"internalType": "uint32",
							"name": "_accessDateTime",
							"type": "uint32"
						},
						{
							"internalType": "string[]",
							"name": "_xPathContent",
							"type": "string[]"
						},
						{
							"internalType": "bool[]",
							"name": "_xPathResult",
							"type": "bool[]"
						},
						{
							"internalType": "address",
							"name": "_performer",
							"type": "address"
						}
					],
					"name": "responderOrder",
					"outputs": [
						{
							"internalType": "bool",
							"name": "",
							"type": "bool"
						}
					],
					"stateMutability": "nonpayable",
					"type": "function"
				},
				{
					"inputs": [
						{
							"internalType": "uint256",
							"name": "",
							"type": "uint256"
						}
					],
					"name": "timeInterval",
					"outputs": [
						{
							"internalType": "uint32",
							"name": "start",
							"type": "uint32"
						},
						{
							"internalType": "uint32",
							"name": "end",
							"type": "uint32"
						}
					],
					"stateMutability": "view",
					"type": "function"
				},
				{
					"inputs": [
						{
							"internalType": "uint256",
							"name": "",
							"type": "uint256"
						}
					],
					"name": "timeout",
					"outputs": [
						{
							"internalType": "uint32",
							"name": "increment",
							"type": "uint32"
						},
						{
							"internalType": "uint32",
							"name": "endTime",
							"type": "uint32"
						}
					],
					"stateMutability": "view",
					"type": "function"
				}
			],
			"devdoc": {
				"kind": "dev",
				"methods": {},
				"version": 1
			},
			"evm": {
				"assembly": "    /* \"DeliveryHiringRO.sol\":66:3280  contract DeliveryHiring is EAI_Domain{\r... */\n  mstore(0x40, 0x80)\n    /* \"DeliveryHiringRO.sol\":129:139  1641024000 */\n  0x61d00a00\n    /* \"DeliveryHiringRO.sol\":110:139  uint32 beginDate = 1641024000 */\n  0x00\n  dup1\n  0x0100\n  exp\n  dup2\n  sload\n  dup2\n  0xffffffff\n  mul\n  not\n  and\n  swap1\n  dup4\n  0xffffffff\n  and\n  mul\n  or\n  swap1\n  sstore\n  pop\n    /* \"DeliveryHiringRO.sol\":160:170  1672509600 */\n  0x63b078a0\n    /* \"DeliveryHiringRO.sol\":143:170  uint32 dueDate = 1672509600 */\n  0x00\n  exp(0x0100, 0x04)\n  dup2\n  sload\n  dup2\n  0xffffffff\n  mul\n  not\n  and\n  swap1\n  dup4\n  0xffffffff\n  and\n  mul\n  or\n  swap1\n  sstore\n  pop\n    /* \"DeliveryHiringRO.sol\":673:1573  constructor(address _applicationWallet, address _processWallet){\r... */\n  callvalue\n  dup1\n  iszero\n  tag_1\n  jumpi\n  0x00\n  dup1\n  revert\ntag_1:\n  pop\n  mload(0x40)\n  sub(codesize, bytecodeSize)\n  dup1\n  bytecodeSize\n  dup4\n  codecopy\n  dup2\n  dup2\n  add\n  0x40\n  mstore\n  dup2\n  add\n  swap1\n  tag_2\n  swap2\n  swap1\n  tag_3\n  jump\t// in\ntag_2:\n    /* \"DeliveryHiringRO.sol\":761:805  Party(\"Delivery system\", _applicationWallet) */\n  mload(0x40)\n  dup1\n  0x40\n  add\n  0x40\n  mstore\n  dup1\n  mload(0x40)\n  dup1\n  0x40\n  add\n  0x40\n  mstore\n  dup1\n  0x0f\n  dup2\n  mstore\n  0x20\n  add\n  0x44656c69766572792073797374656d0000000000000000000000000000000000\n  dup2\n  mstore\n  pop\n  dup2\n  mstore\n  0x20\n  add\n    /* \"DeliveryHiringRO.sol\":786:804  _applicationWallet */\n  dup4\n    /* \"DeliveryHiringRO.sol\":761:805  Party(\"Delivery system\", _applicationWallet) */\n  0xffffffffffffffffffffffffffffffffffffffff\n  and\n  dup2\n  mstore\n  pop\n    /* \"DeliveryHiringRO.sol\":744:758  deliverySystem */\n  0x01\n    /* \"DeliveryHiringRO.sol\":744:805  deliverySystem = Party(\"Delivery system\", _applicationWallet) */\n  0x00\n  dup3\n  add\n  mload\n  dup2\n  0x00\n  add\n  swap1\n  dup1\n  mload\n  swap1\n  0x20\n  add\n  swap1\n  tag_6\n  swap3\n  swap2\n  swap1\n  tag_7\n  jump\t// in\ntag_6:\n  pop\n  0x20\n  dup3\n  add\n  mload\n  dup2\n  0x01\n  add\n  exp(0x0100, 0x00)\n  dup2\n  sload\n  dup2\n  0xffffffffffffffffffffffffffffffffffffffff\n  mul\n  not\n  and\n  swap1\n  dup4\n  0xffffffffffffffffffffffffffffffffffffffff\n  and\n  mul\n  or\n  swap1\n  sstore\n  pop\n  swap1\n  pop\n  pop\n    /* \"DeliveryHiringRO.sol\":834:878  Party(\"Integration process\", _processWallet) */\n  mload(0x40)\n  dup1\n  0x40\n  add\n  0x40\n  mstore\n  dup1\n  mload(0x40)\n  dup1\n  0x40\n  add\n  0x40\n  mstore\n  dup1\n  0x13\n  dup2\n  mstore\n  0x20\n  add\n  0x496e746567726174696f6e2070726f6365737300000000000000000000000000\n  dup2\n  mstore\n  pop\n  dup2\n  mstore\n  0x20\n  add\n    /* \"DeliveryHiringRO.sol\":863:877  _processWallet */\n  dup3\n    /* \"DeliveryHiringRO.sol\":834:878  Party(\"Integration process\", _processWallet) */\n  0xffffffffffffffffffffffffffffffffffffffff\n  and\n  dup2\n  mstore\n  pop\n    /* \"DeliveryHiringRO.sol\":813:831  integrationProcess */\n  0x03\n    /* \"DeliveryHiringRO.sol\":813:878  integrationProcess = Party(\"Integration process\", _processWallet) */\n  0x00\n  dup3\n  add\n  mload\n  dup2\n  0x00\n  add\n  swap1\n  dup1\n  mload\n  swap1\n  0x20\n  add\n  swap1\n  tag_8\n  swap3\n  swap2\n  swap1\n  tag_7\n  jump\t// in\ntag_8:\n  pop\n  0x20\n  dup3\n  add\n  mload\n  dup2\n  0x01\n  add\n  exp(0x0100, 0x00)\n  dup2\n  sload\n  dup2\n  0xffffffffffffffffffffffffffffffffffffffff\n  mul\n  not\n  and\n  swap1\n  dup4\n  0xffffffffffffffffffffffffffffffffffffffff\n  and\n  mul\n  or\n  swap1\n  sstore\n  pop\n  swap1\n  pop\n  pop\n    /* \"DeliveryHiringRO.sol\":888:899  businessDay */\n  0x05\n    /* \"DeliveryHiringRO.sol\":905:932  BusinessDay(MONDAY, FRIDAY) */\n  mload(0x40)\n  dup1\n  0x40\n  add\n  0x40\n  mstore\n  dup1\n    /* \"libs/EAI_Domain.sol\":423:424  1 */\n  0x01\n    /* \"DeliveryHiringRO.sol\":905:932  BusinessDay(MONDAY, FRIDAY) */\n  dup2\n  mstore\n  0x20\n  add\n    /* \"libs/EAI_Domain.sol\":529:530  5 */\n  0x05\n    /* \"DeliveryHiringRO.sol\":905:932  BusinessDay(MONDAY, FRIDAY) */\n  dup2\n  mstore\n  pop\n    /* \"DeliveryHiringRO.sol\":888:933  businessDay.push(BusinessDay(MONDAY, FRIDAY)) */\n  swap1\n  dup1\n  0x01\n  dup2\n  sload\n  add\n  dup1\n  dup3\n  sstore\n  dup1\n  swap2\n  pop\n  pop\n  0x01\n  swap1\n  sub\n  swap1\n  0x00\n  mstore\n  keccak256(0x00, 0x20)\n  swap1\n  0x02\n  mul\n  add\n  0x00\n  swap1\n  swap2\n  swap1\n  swap2\n  swap1\n  swap2\n  pop\n  0x00\n  dup3\n  add\n  mload\n  dup2\n  0x00\n  add\n  sstore\n  0x20\n  dup3\n  add\n  mload\n  dup2\n  0x01\n  add\n  sstore\n  pop\n  pop\n    /* \"DeliveryHiringRO.sol\":940:952  timeInterval */\n  0x06\n    /* \"DeliveryHiringRO.sol\":958:983  TimeInterval(28800,64800) */\n  mload(0x40)\n  dup1\n  0x40\n  add\n  0x40\n  mstore\n  dup1\n    /* \"DeliveryHiringRO.sol\":971:976  28800 */\n  0x7080\n    /* \"DeliveryHiringRO.sol\":958:983  TimeInterval(28800,64800) */\n  0xffffffff\n  and\n  dup2\n  mstore\n  0x20\n  add\n    /* \"DeliveryHiringRO.sol\":977:982  64800 */\n  0xfd20\n    /* \"DeliveryHiringRO.sol\":958:983  TimeInterval(28800,64800) */\n  0xffffffff\n  and\n  dup2\n  mstore\n  pop\n    /* \"DeliveryHiringRO.sol\":940:984  timeInterval.push(TimeInterval(28800,64800)) */\n  swap1\n  dup1\n  0x01\n  dup2\n  sload\n  add\n  dup1\n  dup3\n  sstore\n  dup1\n  swap2\n  pop\n  pop\n  0x01\n  swap1\n  sub\n  swap1\n  0x00\n  mstore\n  keccak256(0x00, 0x20)\n  add\n  0x00\n  swap1\n  swap2\n  swap1\n  swap2\n  swap1\n  swap2\n  pop\n  0x00\n  dup3\n  add\n  mload\n  dup2\n  0x00\n  add\n  exp(0x0100, 0x00)\n  dup2\n  sload\n  dup2\n  0xffffffff\n  mul\n  not\n  and\n  swap1\n  dup4\n  0xffffffff\n  and\n  mul\n  or\n  swap1\n  sstore\n  pop\n  0x20\n  dup3\n  add\n  mload\n  dup2\n  0x00\n  add\n  exp(0x0100, 0x04)\n  dup2\n  sload\n  dup2\n  0xffffffff\n  mul\n  not\n  and\n  swap1\n  dup4\n  0xffffffff\n  and\n  mul\n  or\n  swap1\n  sstore\n  pop\n  pop\n  pop\n    /* \"DeliveryHiringRO.sol\":989:1003  operationLimit */\n  0x07\n    /* \"DeliveryHiringRO.sol\":1009:1035  OperationLimit(5, DAY,0,0) */\n  mload(0x40)\n  dup1\n  0x80\n  add\n  0x40\n  mstore\n  dup1\n    /* \"DeliveryHiringRO.sol\":1024:1025  5 */\n  0x05\n    /* \"DeliveryHiringRO.sol\":1009:1035  OperationLimit(5, DAY,0,0) */\n  dup2\n  mstore\n  0x20\n  add\n    /* \"libs/EAI_Domain.sol\":321:322  4 */\n  0x04\n    /* \"DeliveryHiringRO.sol\":1009:1035  OperationLimit(5, DAY,0,0) */\n  dup2\n  mstore\n  0x20\n  add\n    /* \"DeliveryHiringRO.sol\":1031:1032  0 */\n  0x00\n    /* \"DeliveryHiringRO.sol\":1009:1035  OperationLimit(5, DAY,0,0) */\n  dup2\n  mstore\n  0x20\n  add\n    /* \"DeliveryHiringRO.sol\":1033:1034  0 */\n  0x00\n    /* \"DeliveryHiringRO.sol\":1009:1035  OperationLimit(5, DAY,0,0) */\n  dup2\n  mstore\n  pop\n    /* \"DeliveryHiringRO.sol\":989:1036  operationLimit.push(OperationLimit(5, DAY,0,0)) */\n  swap1\n  dup1\n  0x01\n  dup2\n  sload\n  add\n  dup1\n  dup3\n  sstore\n  dup1\n  swap2\n  pop\n  pop\n  0x01\n  swap1\n  sub\n  swap1\n  0x00\n  mstore\n  keccak256(0x00, 0x20)\n  swap1\n  0x04\n  mul\n  add\n  0x00\n  swap1\n  swap2\n  swap1\n  swap2\n  swap1\n  swap2\n  pop\n  0x00\n  dup3\n  add\n  mload\n  dup2\n  0x00\n  add\n  sstore\n  0x20\n  dup3\n  add\n  mload\n  dup2\n  0x01\n  add\n  sstore\n  0x40\n  dup3\n  add\n  mload\n  dup2\n  0x02\n  add\n  sstore\n  0x60\n  dup3\n  add\n  mload\n  dup2\n  0x03\n  add\n  sstore\n  pop\n  pop\n    /* \"DeliveryHiringRO.sol\":1041:1063  messageContent_request */\n  0x08\n    /* \"DeliveryHiringRO.sol\":1069:1118  MessageContent(\"count(//address)\",\">=\",\"1\",0,0,0) */\n  mload(0x40)\n  dup1\n  0xc0\n  add\n  0x40\n  mstore\n  dup1\n  mload(0x40)\n  dup1\n  0x40\n  add\n  0x40\n  mstore\n  dup1\n  0x10\n  dup2\n  mstore\n  0x20\n  add\n  0x636f756e74282f2f616464726573732900000000000000000000000000000000\n  dup2\n  mstore\n  pop\n  dup2\n  mstore\n  0x20\n  add\n  mload(0x40)\n  dup1\n  0x40\n  add\n  0x40\n  mstore\n  dup1\n  0x02\n  dup2\n  mstore\n  0x20\n  add\n  0x3e3d000000000000000000000000000000000000000000000000000000000000\n  dup2\n  mstore\n  pop\n  dup2\n  mstore\n  0x20\n  add\n  mload(0x40)\n  dup1\n  0x40\n  add\n  0x40\n  mstore\n  dup1\n  0x01\n  dup2\n  mstore\n  0x20\n  add\n  0x3100000000000000000000000000000000000000000000000000000000000000\n  dup2\n  mstore\n  pop\n  dup2\n  mstore\n  0x20\n  add\n    /* \"DeliveryHiringRO.sol\":1112:1113  0 */\n  0x00\n    /* \"DeliveryHiringRO.sol\":1069:1118  MessageContent(\"count(//address)\",\">=\",\"1\",0,0,0) */\n  dup2\n  mstore\n  0x20\n  add\n    /* \"DeliveryHiringRO.sol\":1114:1115  0 */\n  0x00\n    /* \"DeliveryHiringRO.sol\":1069:1118  MessageContent(\"count(//address)\",\">=\",\"1\",0,0,0) */\n  dup2\n  mstore\n  0x20\n  add\n    /* \"DeliveryHiringRO.sol\":1116:1117  0 */\n  0x00\n    /* \"DeliveryHiringRO.sol\":1069:1118  MessageContent(\"count(//address)\",\">=\",\"1\",0,0,0) */\n  dup2\n  mstore\n  pop\n    /* \"DeliveryHiringRO.sol\":1041:1119  messageContent_request.push(MessageContent(\"count(//address)\",\">=\",\"1\",0,0,0)) */\n  swap1\n  dup1\n  0x01\n  dup2\n  sload\n  add\n  dup1\n  dup3\n  sstore\n  dup1\n  swap2\n  pop\n  pop\n  0x01\n  swap1\n  sub\n  swap1\n  0x00\n  mstore\n  keccak256(0x00, 0x20)\n  swap1\n  0x06\n  mul\n  add\n  0x00\n  swap1\n  swap2\n  swap1\n  swap2\n  swap1\n  swap2\n  pop\n  0x00\n  dup3\n  add\n  mload\n  dup2\n  0x00\n  add\n  swap1\n  dup1\n  mload\n  swap1\n  0x20\n  add\n  swap1\n  tag_13\n  swap3\n  swap2\n  swap1\n  tag_7\n  jump\t// in\ntag_13:\n  pop\n  0x20\n  dup3\n  add\n  mload\n  dup2\n  0x01\n  add\n  swap1\n  dup1\n  mload\n  swap1\n  0x20\n  add\n  swap1\n  tag_14\n  swap3\n  swap2\n  swap1\n  tag_7\n  jump\t// in\ntag_14:\n  pop\n  0x40\n  dup3\n  add\n  mload\n  dup2\n  0x02\n  add\n  swap1\n  dup1\n  mload\n  swap1\n  0x20\n  add\n  swap1\n  tag_15\n  swap3\n  swap2\n  swap1\n  tag_7\n  jump\t// in\ntag_15:\n  pop\n  0x60\n  dup3\n  add\n  mload\n  dup2\n  0x03\n  add\n  sstore\n  0x80\n  dup3\n  add\n  mload\n  dup2\n  0x04\n  add\n  sstore\n  0xa0\n  dup3\n  add\n  mload\n  dup2\n  0x05\n  add\n  sstore\n  pop\n  pop\n    /* \"DeliveryHiringRO.sol\":1124:1146  messageContent_request */\n  0x08\n    /* \"DeliveryHiringRO.sol\":1152:1201  MessageContent(\"count(//address)\",\"<=\",\"3\",0,0,0) */\n  mload(0x40)\n  dup1\n  0xc0\n  add\n  0x40\n  mstore\n  dup1\n  mload(0x40)\n  dup1\n  0x40\n  add\n  0x40\n  mstore\n  dup1\n  0x10\n  dup2\n  mstore\n  0x20\n  add\n  0x636f756e74282f2f616464726573732900000000000000000000000000000000\n  dup2\n  mstore\n  pop\n  dup2\n  mstore\n  0x20\n  add\n  mload(0x40)\n  dup1\n  0x40\n  add\n  0x40\n  mstore\n  dup1\n  0x02\n  dup2\n  mstore\n  0x20\n  add\n  0x3c3d000000000000000000000000000000000000000000000000000000000000\n  dup2\n  mstore\n  pop\n  dup2\n  mstore\n  0x20\n  add\n  mload(0x40)\n  dup1\n  0x40\n  add\n  0x40\n  mstore\n  dup1\n  0x01\n  dup2\n  mstore\n  0x20\n  add\n  0x3300000000000000000000000000000000000000000000000000000000000000\n  dup2\n  mstore\n  pop\n  dup2\n  mstore\n  0x20\n  add\n    /* \"DeliveryHiringRO.sol\":1195:1196  0 */\n  0x00\n    /* \"DeliveryHiringRO.sol\":1152:1201  MessageContent(\"count(//address)\",\"<=\",\"3\",0,0,0) */\n  dup2\n  mstore\n  0x20\n  add\n    /* \"DeliveryHiringRO.sol\":1197:1198  0 */\n  0x00\n    /* \"DeliveryHiringRO.sol\":1152:1201  MessageContent(\"count(//address)\",\"<=\",\"3\",0,0,0) */\n  dup2\n  mstore\n  0x20\n  add\n    /* \"DeliveryHiringRO.sol\":1199:1200  0 */\n  0x00\n    /* \"DeliveryHiringRO.sol\":1152:1201  MessageContent(\"count(//address)\",\"<=\",\"3\",0,0,0) */\n  dup2\n  mstore\n  pop\n    /* \"DeliveryHiringRO.sol\":1124:1202  messageContent_request.push(MessageContent(\"count(//address)\",\"<=\",\"3\",0,0,0)) */\n  swap1\n  dup1\n  0x01\n  dup2\n  sload\n  add\n  dup1\n  dup3\n  sstore\n  dup1\n  swap2\n  pop\n  pop\n  0x01\n  swap1\n  sub\n  swap1\n  0x00\n  mstore\n  keccak256(0x00, 0x20)\n  swap1\n  0x06\n  mul\n  add\n  0x00\n  swap1\n  swap2\n  swap1\n  swap2\n  swap1\n  swap2\n  pop\n  0x00\n  dup3\n  add\n  mload\n  dup2\n  0x00\n  add\n  swap1\n  dup1\n  mload\n  swap1\n  0x20\n  add\n  swap1\n  tag_17\n  swap3\n  swap2\n  swap1\n  tag_7\n  jump\t// in\ntag_17:\n  pop\n  0x20\n  dup3\n  add\n  mload\n  dup2\n  0x01\n  add\n  swap1\n  dup1\n  mload\n  swap1\n  0x20\n  add\n  swap1\n  tag_18\n  swap3\n  swap2\n  swap1\n  tag_7\n  jump\t// in\ntag_18:\n  pop\n  0x40\n  dup3\n  add\n  mload\n  dup2\n  0x02\n  add\n  swap1\n  dup1\n  mload\n  swap1\n  0x20\n  add\n  swap1\n  tag_19\n  swap3\n  swap2\n  swap1\n  tag_7\n  jump\t// in\ntag_19:\n  pop\n  0x60\n  dup3\n  add\n  mload\n  dup2\n  0x03\n  add\n  sstore\n  0x80\n  dup3\n  add\n  mload\n  dup2\n  0x04\n  add\n  sstore\n  0xa0\n  dup3\n  add\n  mload\n  dup2\n  0x05\n  add\n  sstore\n  pop\n  pop\n    /* \"DeliveryHiringRO.sol\":1207:1229  messageContent_request */\n  0x08\n    /* \"DeliveryHiringRO.sol\":1235:1325  MessageContent(\"count(//address)\",\"<=\",\"200\",MONTH, setEndOfInterval(beginDate, MONTH), 0) */\n  mload(0x40)\n  dup1\n  0xc0\n  add\n  0x40\n  mstore\n  dup1\n  mload(0x40)\n  dup1\n  0x40\n  add\n  0x40\n  mstore\n  dup1\n  0x10\n  dup2\n  mstore\n  0x20\n  add\n  0x636f756e74282f2f616464726573732900000000000000000000000000000000\n  dup2\n  mstore\n  pop\n  dup2\n  mstore\n  0x20\n  add\n  mload(0x40)\n  dup1\n  0x40\n  add\n  0x40\n  mstore\n  dup1\n  0x02\n  dup2\n  mstore\n  0x20\n  add\n  0x3c3d000000000000000000000000000000000000000000000000000000000000\n  dup2\n  mstore\n  pop\n  dup2\n  mstore\n  0x20\n  add\n  mload(0x40)\n  dup1\n  0x40\n  add\n  0x40\n  mstore\n  dup1\n  0x03\n  dup2\n  mstore\n  0x20\n  add\n  0x3230300000000000000000000000000000000000000000000000000000000000\n  dup2\n  mstore\n  pop\n  dup2\n  mstore\n  0x20\n  add\n    /* \"libs/EAI_Domain.sol\":370:371  6 */\n  0x06\n    /* \"DeliveryHiringRO.sol\":1235:1325  MessageContent(\"count(//address)\",\"<=\",\"200\",MONTH, setEndOfInterval(beginDate, MONTH), 0) */\n  dup2\n  mstore\n  0x20\n  add\n    /* \"DeliveryHiringRO.sol\":1287:1321  setEndOfInterval(beginDate, MONTH) */\n  tag_20\n    /* \"DeliveryHiringRO.sol\":1304:1313  beginDate */\n  0x00\n  dup1\n  sload\n  swap1\n  0x0100\n  exp\n  swap1\n  div\n  0xffffffff\n  and\n    /* \"DeliveryHiringRO.sol\":1287:1321  setEndOfInterval(beginDate, MONTH) */\n  0xffffffff\n  and\n    /* \"libs/EAI_Domain.sol\":370:371  6 */\n  0x06\n    /* \"DeliveryHiringRO.sol\":1287:1303  setEndOfInterval */\n  shl(0x20, tag_21)\n    /* \"DeliveryHiringRO.sol\":1287:1321  setEndOfInterval(beginDate, MONTH) */\n  0x20\n  shr\n  jump\t// in\ntag_20:\n    /* \"DeliveryHiringRO.sol\":1235:1325  MessageContent(\"count(//address)\",\"<=\",\"200\",MONTH, setEndOfInterval(beginDate, MONTH), 0) */\n  dup2\n  mstore\n  0x20\n  add\n    /* \"DeliveryHiringRO.sol\":1323:1324  0 */\n  0x00\n    /* \"DeliveryHiringRO.sol\":1235:1325  MessageContent(\"count(//address)\",\"<=\",\"200\",MONTH, setEndOfInterval(beginDate, MONTH), 0) */\n  dup2\n  mstore\n  pop\n    /* \"DeliveryHiringRO.sol\":1207:1326  messageContent_request.push(MessageContent(\"count(//address)\",\"<=\",\"200\",MONTH, setEndOfInterval(beginDate, MONTH), 0)) */\n  swap1\n  dup1\n  0x01\n  dup2\n  sload\n  add\n  dup1\n  dup3\n  sstore\n  dup1\n  swap2\n  pop\n  pop\n  0x01\n  swap1\n  sub\n  swap1\n  0x00\n  mstore\n  keccak256(0x00, 0x20)\n  swap1\n  0x06\n  mul\n  add\n  0x00\n  swap1\n  swap2\n  swap1\n  swap2\n  swap1\n  swap2\n  pop\n  0x00\n  dup3\n  add\n  mload\n  dup2\n  0x00\n  add\n  swap1\n  dup1\n  mload\n  swap1\n  0x20\n  add\n  swap1\n  tag_23\n  swap3\n  swap2\n  swap1\n  tag_7\n  jump\t// in\ntag_23:\n  pop\n  0x20\n  dup3\n  add\n  mload\n  dup2\n  0x01\n  add\n  swap1\n  dup1\n  mload\n  swap1\n  0x20\n  add\n  swap1\n  tag_24\n  swap3\n  swap2\n  swap1\n  tag_7\n  jump\t// in\ntag_24:\n  pop\n  0x40\n  dup3\n  add\n  mload\n  dup2\n  0x02\n  add\n  swap1\n  dup1\n  mload\n  swap1\n  0x20\n  add\n  swap1\n  tag_25\n  swap3\n  swap2\n  swap1\n  tag_7\n  jump\t// in\ntag_25:\n  pop\n  0x60\n  dup3\n  add\n  mload\n  dup2\n  0x03\n  add\n  sstore\n  0x80\n  dup3\n  add\n  mload\n  dup2\n  0x04\n  add\n  sstore\n  0xa0\n  dup3\n  add\n  mload\n  dup2\n  0x05\n  add\n  sstore\n  pop\n  pop\n    /* \"DeliveryHiringRO.sol\":1453:1460  timeout */\n  0x09\n    /* \"DeliveryHiringRO.sol\":1466:1480  Timeout(180,0) */\n  mload(0x40)\n  dup1\n  0x40\n  add\n  0x40\n  mstore\n  dup1\n    /* \"DeliveryHiringRO.sol\":1474:1477  180 */\n  0xb4\n    /* \"DeliveryHiringRO.sol\":1466:1480  Timeout(180,0) */\n  0xffffffff\n  and\n  dup2\n  mstore\n  0x20\n  add\n    /* \"DeliveryHiringRO.sol\":1478:1479  0 */\n  0x00\n    /* \"DeliveryHiringRO.sol\":1466:1480  Timeout(180,0) */\n  0xffffffff\n  and\n  dup2\n  mstore\n  pop\n    /* \"DeliveryHiringRO.sol\":1453:1481  timeout.push(Timeout(180,0)) */\n  swap1\n  dup1\n  0x01\n  dup2\n  sload\n  add\n  dup1\n  dup3\n  sstore\n  dup1\n  swap2\n  pop\n  pop\n  0x01\n  swap1\n  sub\n  swap1\n  0x00\n  mstore\n  keccak256(0x00, 0x20)\n  add\n  0x00\n  swap1\n  swap2\n  swap1\n  swap2\n  swap1\n  swap2\n  pop\n  0x00\n  dup3\n  add\n  mload\n  dup2\n  0x00\n  add\n  exp(0x0100, 0x00)\n  dup2\n  sload\n  dup2\n  0xffffffff\n  mul\n  not\n  and\n  swap1\n  dup4\n  0xffffffff\n  and\n  mul\n  or\n  swap1\n  sstore\n  pop\n  0x20\n  dup3\n  add\n  mload\n  dup2\n  0x00\n  add\n  exp(0x0100, 0x04)\n  dup2\n  sload\n  dup2\n  0xffffffff\n  mul\n  not\n  and\n  swap1\n  dup4\n  0xffffffff\n  and\n  mul\n  or\n  swap1\n  sstore\n  pop\n  pop\n  pop\n    /* \"DeliveryHiringRO.sol\":1486:1509  messageContent_response */\n  0x0a\n    /* \"DeliveryHiringRO.sol\":1515:1567  MessageContent(\"//budget/id/text()\", \"!=\", \"\",0,0,0) */\n  mload(0x40)\n  dup1\n  0xc0\n  add\n  0x40\n  mstore\n  dup1\n  mload(0x40)\n  dup1\n  0x40\n  add\n  0x40\n  mstore\n  dup1\n  0x12\n  dup2\n  mstore\n  0x20\n  add\n  0x2f2f6275646765742f69642f7465787428290000000000000000000000000000\n  dup2\n  mstore\n  pop\n  dup2\n  mstore\n  0x20\n  add\n  mload(0x40)\n  dup1\n  0x40\n  add\n  0x40\n  mstore\n  dup1\n  0x02\n  dup2\n  mstore\n  0x20\n  add\n  0x213d000000000000000000000000000000000000000000000000000000000000\n  dup2\n  mstore\n  pop\n  dup2\n  mstore\n  0x20\n  add\n  mload(0x40)\n  dup1\n  0x20\n  add\n  0x40\n  mstore\n  dup1\n  0x00\n  dup2\n  mstore\n  pop\n  dup2\n  mstore\n  0x20\n  add\n    /* \"DeliveryHiringRO.sol\":1561:1562  0 */\n  0x00\n    /* \"DeliveryHiringRO.sol\":1515:1567  MessageContent(\"//budget/id/text()\", \"!=\", \"\",0,0,0) */\n  dup2\n  mstore\n  0x20\n  add\n    /* \"DeliveryHiringRO.sol\":1563:1564  0 */\n  0x00\n    /* \"DeliveryHiringRO.sol\":1515:1567  MessageContent(\"//budget/id/text()\", \"!=\", \"\",0,0,0) */\n  dup2\n  mstore\n  0x20\n  add\n    /* \"DeliveryHiringRO.sol\":1565:1566  0 */\n  0x00\n    /* \"DeliveryHiringRO.sol\":1515:1567  MessageContent(\"//budget/id/text()\", \"!=\", \"\",0,0,0) */\n  dup2\n  mstore\n  pop\n    /* \"DeliveryHiringRO.sol\":1486:1568  messageContent_response.push(MessageContent(\"//budget/id/text()\", \"!=\", \"\",0,0,0)) */\n  swap1\n  dup1\n  0x01\n  dup2\n  sload\n  add\n  dup1\n  dup3\n  sstore\n  dup1\n  swap2\n  pop\n  pop\n  0x01\n  swap1\n  sub\n  swap1\n  0x00\n  mstore\n  keccak256(0x00, 0x20)\n  swap1\n  0x06\n  mul\n  add\n  0x00\n  swap1\n  swap2\n  swap1\n  swap2\n  swap1\n  swap2\n  pop\n  0x00\n  dup3\n  add\n  mload\n  dup2\n  0x00\n  add\n  swap1\n  dup1\n  mload\n  swap1\n  0x20\n  add\n  swap1\n  tag_28\n  swap3\n  swap2\n  swap1\n  tag_7\n  jump\t// in\ntag_28:\n  pop\n  0x20\n  dup3\n  add\n  mload\n  dup2\n  0x01\n  add\n  swap1\n  dup1\n  mload\n  swap1\n  0x20\n  add\n  swap1\n  tag_29\n  swap3\n  swap2\n  swap1\n  tag_7\n  jump\t// in\ntag_29:\n  pop\n  0x40\n  dup3\n  add\n  mload\n  dup2\n  0x02\n  add\n  swap1\n  dup1\n  mload\n  swap1\n  0x20\n  add\n  swap1\n  tag_30\n  swap3\n  swap2\n  swap1\n  tag_7\n  jump\t// in\ntag_30:\n  pop\n  0x60\n  dup3\n  add\n  mload\n  dup2\n  0x03\n  add\n  sstore\n  0x80\n  dup3\n  add\n  mload\n  dup2\n  0x04\n  add\n  sstore\n  0xa0\n  dup3\n  add\n  mload\n  dup2\n  0x05\n  add\n  sstore\n  pop\n  pop\n    /* \"DeliveryHiringRO.sol\":673:1573  constructor(address _applicationWallet, address _processWallet){\r... */\n  pop\n  pop\n    /* \"DeliveryHiringRO.sol\":66:3280  contract DeliveryHiring is EAI_Domain{\r... */\n  jump(tag_31)\n    /* \"libs/EAI_Domain.sol\":1665:1909  function setEndOfInterval(uint startTime, uint timeUnit)internal pure returns(uint){\r... */\ntag_21:\n    /* \"libs/EAI_Domain.sol\":1743:1747  uint */\n  0x00\n    /* \"libs/EAI_Domain.sol\":1753:1767  uint increment */\n  dup1\n    /* \"libs/EAI_Domain.sol\":1770:1793  timeInSeconds(timeUnit) */\n  tag_33\n    /* \"libs/EAI_Domain.sol\":1784:1792  timeUnit */\n  dup4\n    /* \"libs/EAI_Domain.sol\":1770:1783  timeInSeconds */\n  shl(0x20, tag_34)\n    /* \"libs/EAI_Domain.sol\":1770:1793  timeInSeconds(timeUnit) */\n  0x20\n  shr\n  jump\t// in\ntag_33:\n    /* \"libs/EAI_Domain.sol\":1753:1793  uint increment = timeInSeconds(timeUnit) */\n  swap1\n  pop\n    /* \"libs/EAI_Domain.sol\":1822:1831  increment */\n  dup1\n    /* \"libs/EAI_Domain.sol\":1812:1821  startTime */\n  dup5\n    /* \"libs/EAI_Domain.sol\":1812:1831  startTime+increment */\n  tag_35\n  swap2\n  swap1\n  tag_36\n  jump\t// in\ntag_35:\n    /* \"libs/EAI_Domain.sol\":1805:1831  return startTime+increment */\n  swap2\n  pop\n  pop\n    /* \"libs/EAI_Domain.sol\":1665:1909  function setEndOfInterval(uint startTime, uint timeUnit)internal pure returns(uint){\r... */\n  swap3\n  swap2\n  pop\n  pop\n  jump\t// out\n    /* \"libs/EAI_Domain.sol\":3614:4273  function timeInSeconds(uint _timeUnit)internal pure returns (uint){\r... */\ntag_34:\n    /* \"libs/EAI_Domain.sol\":3675:3679  uint */\n  0x00\n    /* \"libs/EAI_Domain.sol\":3713:3714  0 */\n  dup1\n    /* \"libs/EAI_Domain.sol\":3702:3711  _timeUnit */\n  dup3\n    /* \"libs/EAI_Domain.sol\":3702:3714  _timeUnit >0 */\n  gt\n    /* \"libs/EAI_Domain.sol\":3702:3729  _timeUnit >0 && _timeUnit<8 */\n  dup1\n  iszero\n  tag_38\n  jumpi\n  pop\n    /* \"libs/EAI_Domain.sol\":3728:3729  8 */\n  0x08\n    /* \"libs/EAI_Domain.sol\":3718:3727  _timeUnit */\n  dup3\n    /* \"libs/EAI_Domain.sol\":3718:3729  _timeUnit<8 */\n  lt\n    /* \"libs/EAI_Domain.sol\":3702:3729  _timeUnit >0 && _timeUnit<8 */\ntag_38:\n    /* \"libs/EAI_Domain.sol\":3770:3779  _timeUnit */\n  dup3\n    /* \"libs/EAI_Domain.sol\":3738:3805  abi.encodePacked(\"The value: \", _timeUnit,\", is invalid time unit\") */\n  add(0x20, mload(0x40))\n  tag_39\n  swap2\n  swap1\n  tag_40\n  jump\t// in\ntag_39:\n  mload(0x40)\n  0x20\n  dup2\n  dup4\n  sub\n  sub\n  dup2\n  mstore\n  swap1\n  0x40\n  mstore\n    /* \"libs/EAI_Domain.sol\":3693:3807  require (_timeUnit >0 && _timeUnit<8, string(abi.encodePacked(\"The value: \", _timeUnit,\", is invalid time unit\"))) */\n  swap1\n  tag_41\n  jumpi\n  mload(0x40)\n  0x08c379a000000000000000000000000000000000000000000000000000000000\n  dup2\n  mstore\n  0x04\n  add\n  tag_42\n  swap2\n  swap1\n  tag_43\n  jump\t// in\ntag_42:\n  mload(0x40)\n  dup1\n  swap2\n  sub\n  swap1\n  revert\ntag_41:\n  pop\n    /* \"libs/EAI_Domain.sol\":3834:3835  1 */\n  0x01\n    /* \"libs/EAI_Domain.sol\":3823:3832  _timeUnit */\n  dup3\n    /* \"libs/EAI_Domain.sol\":3823:3835  _timeUnit==1 */\n  eq\n    /* \"libs/EAI_Domain.sol\":3820:3857  if(_timeUnit==1){ return 1 seconds; } */\n  iszero\n  tag_44\n  jumpi\n    /* \"libs/EAI_Domain.sol\":3845:3854  1 seconds */\n  0x01\n    /* \"libs/EAI_Domain.sol\":3838:3854  return 1 seconds */\n  swap1\n  pop\n  jump(tag_37)\n    /* \"libs/EAI_Domain.sol\":3820:3857  if(_timeUnit==1){ return 1 seconds; } */\ntag_44:\n    /* \"libs/EAI_Domain.sol\":3881:3882  2 */\n  0x02\n    /* \"libs/EAI_Domain.sol\":3870:3879  _timeUnit */\n  dup3\n    /* \"libs/EAI_Domain.sol\":3870:3882  _timeUnit==2 */\n  eq\n    /* \"libs/EAI_Domain.sol\":3867:3904  if(_timeUnit==2){ return 1 minutes; } */\n  iszero\n  tag_45\n  jumpi\n    /* \"libs/EAI_Domain.sol\":3892:3901  1 minutes */\n  0x3c\n    /* \"libs/EAI_Domain.sol\":3885:3901  return 1 minutes */\n  swap1\n  pop\n  jump(tag_37)\n    /* \"libs/EAI_Domain.sol\":3867:3904  if(_timeUnit==2){ return 1 minutes; } */\ntag_45:\n    /* \"libs/EAI_Domain.sol\":3928:3929  3 */\n  0x03\n    /* \"libs/EAI_Domain.sol\":3917:3926  _timeUnit */\n  dup3\n    /* \"libs/EAI_Domain.sol\":3917:3929  _timeUnit==3 */\n  eq\n    /* \"libs/EAI_Domain.sol\":3914:3949  if(_timeUnit==3){ return 1 hours; } */\n  iszero\n  tag_46\n  jumpi\n    /* \"libs/EAI_Domain.sol\":3939:3946  1 hours */\n  0x0e10\n    /* \"libs/EAI_Domain.sol\":3932:3946  return 1 hours */\n  swap1\n  pop\n  jump(tag_37)\n    /* \"libs/EAI_Domain.sol\":3914:3949  if(_timeUnit==3){ return 1 hours; } */\ntag_46:\n    /* \"libs/EAI_Domain.sol\":3973:3974  4 */\n  0x04\n    /* \"libs/EAI_Domain.sol\":3962:3971  _timeUnit */\n  dup3\n    /* \"libs/EAI_Domain.sol\":3962:3974  _timeUnit==4 */\n  eq\n    /* \"libs/EAI_Domain.sol\":3959:3993  if(_timeUnit==4){ return 1 days; } */\n  iszero\n  tag_47\n  jumpi\n    /* \"libs/EAI_Domain.sol\":3984:3990  1 days */\n  0x015180\n    /* \"libs/EAI_Domain.sol\":3977:3990  return 1 days */\n  swap1\n  pop\n  jump(tag_37)\n    /* \"libs/EAI_Domain.sol\":3959:3993  if(_timeUnit==4){ return 1 days; } */\ntag_47:\n    /* \"libs/EAI_Domain.sol\":4017:4018  5 */\n  0x05\n    /* \"libs/EAI_Domain.sol\":4006:4015  _timeUnit */\n  dup3\n    /* \"libs/EAI_Domain.sol\":4006:4018  _timeUnit==5 */\n  eq\n    /* \"libs/EAI_Domain.sol\":4003:4038  if(_timeUnit==5){ return 1 weeks; } */\n  iszero\n  tag_48\n  jumpi\n    /* \"libs/EAI_Domain.sol\":4028:4035  1 weeks */\n  0x093a80\n    /* \"libs/EAI_Domain.sol\":4021:4035  return 1 weeks */\n  swap1\n  pop\n  jump(tag_37)\n    /* \"libs/EAI_Domain.sol\":4003:4038  if(_timeUnit==5){ return 1 weeks; } */\ntag_48:\n    /* \"libs/EAI_Domain.sol\":4062:4063  6 */\n  0x06\n    /* \"libs/EAI_Domain.sol\":4051:4060  _timeUnit */\n  dup3\n    /* \"libs/EAI_Domain.sol\":4051:4063  _timeUnit==6 */\n  eq\n    /* \"libs/EAI_Domain.sol\":4048:4083  if(_timeUnit==6){ return 30 days; } */\n  iszero\n  tag_49\n  jumpi\n    /* \"libs/EAI_Domain.sol\":4073:4080  30 days */\n  0x278d00\n    /* \"libs/EAI_Domain.sol\":4066:4080  return 30 days */\n  swap1\n  pop\n  jump(tag_37)\n    /* \"libs/EAI_Domain.sol\":4048:4083  if(_timeUnit==6){ return 30 days; } */\ntag_49:\n    /* \"libs/EAI_Domain.sol\":4172:4180  365 days */\n  0x01e13380\n    /* \"libs/EAI_Domain.sol\":4165:4180  return 365 days */\n  swap1\n  pop\n    /* \"libs/EAI_Domain.sol\":3614:4273  function timeInSeconds(uint _timeUnit)internal pure returns (uint){\r... */\ntag_37:\n  swap2\n  swap1\n  pop\n  jump\t// out\n    /* \"DeliveryHiringRO.sol\":66:3280  contract DeliveryHiring is EAI_Domain{\r... */\ntag_7:\n  dup3\n  dup1\n  sload\n  tag_50\n  swap1\n  tag_51\n  jump\t// in\ntag_50:\n  swap1\n  0x00\n  mstore\n  keccak256(0x00, 0x20)\n  swap1\n  0x1f\n  add\n  0x20\n  swap1\n  div\n  dup2\n  add\n  swap3\n  dup3\n  tag_53\n  jumpi\n  0x00\n  dup6\n  sstore\n  jump(tag_52)\ntag_53:\n  dup3\n  0x1f\n  lt\n  tag_54\n  jumpi\n  dup1\n  mload\n  not(0xff)\n  and\n  dup4\n  dup1\n  add\n  or\n  dup6\n  sstore\n  jump(tag_52)\ntag_54:\n  dup3\n  dup1\n  add\n  0x01\n  add\n  dup6\n  sstore\n  dup3\n  iszero\n  tag_52\n  jumpi\n  swap2\n  dup3\n  add\ntag_55:\n  dup3\n  dup2\n  gt\n  iszero\n  tag_56\n  jumpi\n  dup3\n  mload\n  dup3\n  sstore\n  swap2\n  0x20\n  add\n  swap2\n  swap1\n  0x01\n  add\n  swap1\n  jump(tag_55)\ntag_56:\ntag_52:\n  pop\n  swap1\n  pop\n  tag_57\n  swap2\n  swap1\n  tag_58\n  jump\t// in\ntag_57:\n  pop\n  swap1\n  jump\t// out\ntag_58:\ntag_59:\n  dup1\n  dup3\n  gt\n  iszero\n  tag_60\n  jumpi\n  0x00\n  dup2\n  0x00\n  swap1\n  sstore\n  pop\n  0x01\n  add\n  jump(tag_59)\ntag_60:\n  pop\n  swap1\n  jump\t// out\n    /* \"#utility.yul\":7:150   */\ntag_62:\n    /* \"#utility.yul\":64:69   */\n  0x00\n    /* \"#utility.yul\":95:101   */\n  dup2\n    /* \"#utility.yul\":89:102   */\n  mload\n    /* \"#utility.yul\":80:102   */\n  swap1\n  pop\n    /* \"#utility.yul\":111:144   */\n  tag_64\n    /* \"#utility.yul\":138:143   */\n  dup2\n    /* \"#utility.yul\":111:144   */\n  tag_65\n  jump\t// in\ntag_64:\n    /* \"#utility.yul\":7:150   */\n  swap3\n  swap2\n  pop\n  pop\n  jump\t// out\n    /* \"#utility.yul\":156:663   */\ntag_3:\n    /* \"#utility.yul\":235:241   */\n  0x00\n    /* \"#utility.yul\":243:249   */\n  dup1\n    /* \"#utility.yul\":292:294   */\n  0x40\n    /* \"#utility.yul\":280:289   */\n  dup4\n    /* \"#utility.yul\":271:278   */\n  dup6\n    /* \"#utility.yul\":267:290   */\n  sub\n    /* \"#utility.yul\":263:295   */\n  slt\n    /* \"#utility.yul\":260:379   */\n  iszero\n  tag_67\n  jumpi\n    /* \"#utility.yul\":298:377   */\n  tag_68\n  tag_69\n  jump\t// in\ntag_68:\n    /* \"#utility.yul\":260:379   */\ntag_67:\n    /* \"#utility.yul\":418:419   */\n  0x00\n    /* \"#utility.yul\":443:507   */\n  tag_70\n    /* \"#utility.yul\":499:506   */\n  dup6\n    /* \"#utility.yul\":490:496   */\n  dup3\n    /* \"#utility.yul\":479:488   */\n  dup7\n    /* \"#utility.yul\":475:497   */\n  add\n    /* \"#utility.yul\":443:507   */\n  tag_62\n  jump\t// in\ntag_70:\n    /* \"#utility.yul\":433:507   */\n  swap3\n  pop\n    /* \"#utility.yul\":389:517   */\n  pop\n    /* \"#utility.yul\":556:558   */\n  0x20\n    /* \"#utility.yul\":582:646   */\n  tag_71\n    /* \"#utility.yul\":638:645   */\n  dup6\n    /* \"#utility.yul\":629:635   */\n  dup3\n    /* \"#utility.yul\":618:627   */\n  dup7\n    /* \"#utility.yul\":614:636   */\n  add\n    /* \"#utility.yul\":582:646   */\n  tag_62\n  jump\t// in\ntag_71:\n    /* \"#utility.yul\":572:646   */\n  swap2\n  pop\n    /* \"#utility.yul\":527:656   */\n  pop\n    /* \"#utility.yul\":156:663   */\n  swap3\n  pop\n  swap3\n  swap1\n  pop\n  jump\t// out\n    /* \"#utility.yul\":669:1033   */\ntag_72:\n    /* \"#utility.yul\":757:760   */\n  0x00\n    /* \"#utility.yul\":785:824   */\n  tag_74\n    /* \"#utility.yul\":818:823   */\n  dup3\n    /* \"#utility.yul\":785:824   */\n  tag_75\n  jump\t// in\ntag_74:\n    /* \"#utility.yul\":840:911   */\n  tag_76\n    /* \"#utility.yul\":904:910   */\n  dup2\n    /* \"#utility.yul\":899:902   */\n  dup6\n    /* \"#utility.yul\":840:911   */\n  tag_77\n  jump\t// in\ntag_76:\n    /* \"#utility.yul\":833:911   */\n  swap4\n  pop\n    /* \"#utility.yul\":920:972   */\n  tag_78\n    /* \"#utility.yul\":965:971   */\n  dup2\n    /* \"#utility.yul\":960:963   */\n  dup6\n    /* \"#utility.yul\":953:957   */\n  0x20\n    /* \"#utility.yul\":946:951   */\n  dup7\n    /* \"#utility.yul\":942:958   */\n  add\n    /* \"#utility.yul\":920:972   */\n  tag_79\n  jump\t// in\ntag_78:\n    /* \"#utility.yul\":997:1026   */\n  tag_80\n    /* \"#utility.yul\":1019:1025   */\n  dup2\n    /* \"#utility.yul\":997:1026   */\n  tag_81\n  jump\t// in\ntag_80:\n    /* \"#utility.yul\":992:995   */\n  dup5\n    /* \"#utility.yul\":988:1027   */\n  add\n    /* \"#utility.yul\":981:1027   */\n  swap2\n  pop\n    /* \"#utility.yul\":761:1033   */\n  pop\n    /* \"#utility.yul\":669:1033   */\n  swap3\n  swap2\n  pop\n  pop\n  jump\t// out\n    /* \"#utility.yul\":1039:1441   */\ntag_82:\n    /* \"#utility.yul\":1199:1202   */\n  0x00\n    /* \"#utility.yul\":1220:1305   */\n  tag_84\n    /* \"#utility.yul\":1302:1304   */\n  0x0b\n    /* \"#utility.yul\":1297:1300   */\n  dup4\n    /* \"#utility.yul\":1220:1305   */\n  tag_85\n  jump\t// in\ntag_84:\n    /* \"#utility.yul\":1213:1305   */\n  swap2\n  pop\n    /* \"#utility.yul\":1314:1407   */\n  tag_86\n    /* \"#utility.yul\":1403:1406   */\n  dup3\n    /* \"#utility.yul\":1314:1407   */\n  tag_87\n  jump\t// in\ntag_86:\n    /* \"#utility.yul\":1432:1434   */\n  0x0b\n    /* \"#utility.yul\":1427:1430   */\n  dup3\n    /* \"#utility.yul\":1423:1435   */\n  add\n    /* \"#utility.yul\":1416:1435   */\n  swap1\n  pop\n    /* \"#utility.yul\":1039:1441   */\n  swap2\n  swap1\n  pop\n  jump\t// out\n    /* \"#utility.yul\":1447:1849   */\ntag_88:\n    /* \"#utility.yul\":1607:1610   */\n  0x00\n    /* \"#utility.yul\":1628:1713   */\n  tag_90\n    /* \"#utility.yul\":1710:1712   */\n  0x16\n    /* \"#utility.yul\":1705:1708   */\n  dup4\n    /* \"#utility.yul\":1628:1713   */\n  tag_85\n  jump\t// in\ntag_90:\n    /* \"#utility.yul\":1621:1713   */\n  swap2\n  pop\n    /* \"#utility.yul\":1722:1815   */\n  tag_91\n    /* \"#utility.yul\":1811:1814   */\n  dup3\n    /* \"#utility.yul\":1722:1815   */\n  tag_92\n  jump\t// in\ntag_91:\n    /* \"#utility.yul\":1840:1842   */\n  0x16\n    /* \"#utility.yul\":1835:1838   */\n  dup3\n    /* \"#utility.yul\":1831:1843   */\n  add\n    /* \"#utility.yul\":1824:1843   */\n  swap1\n  pop\n    /* \"#utility.yul\":1447:1849   */\n  swap2\n  swap1\n  pop\n  jump\t// out\n    /* \"#utility.yul\":1855:2012   */\ntag_93:\n    /* \"#utility.yul\":1960:2005   */\n  tag_95\n    /* \"#utility.yul\":1980:2004   */\n  tag_96\n    /* \"#utility.yul\":1998:2003   */\n  dup3\n    /* \"#utility.yul\":1980:2004   */\n  tag_97\n  jump\t// in\ntag_96:\n    /* \"#utility.yul\":1960:2005   */\n  tag_98\n  jump\t// in\ntag_95:\n    /* \"#utility.yul\":1955:1958   */\n  dup3\n    /* \"#utility.yul\":1948:2006   */\n  mstore\n    /* \"#utility.yul\":1855:2012   */\n  pop\n  pop\n  jump\t// out\n    /* \"#utility.yul\":2018:2806   */\ntag_40:\n    /* \"#utility.yul\":2332:2335   */\n  0x00\n    /* \"#utility.yul\":2354:2502   */\n  tag_100\n    /* \"#utility.yul\":2498:2501   */\n  dup3\n    /* \"#utility.yul\":2354:2502   */\n  tag_82\n  jump\t// in\ntag_100:\n    /* \"#utility.yul\":2347:2502   */\n  swap2\n  pop\n    /* \"#utility.yul\":2512:2587   */\n  tag_101\n    /* \"#utility.yul\":2583:2586   */\n  dup3\n    /* \"#utility.yul\":2574:2580   */\n  dup5\n    /* \"#utility.yul\":2512:2587   */\n  tag_93\n  jump\t// in\ntag_101:\n    /* \"#utility.yul\":2612:2614   */\n  0x20\n    /* \"#utility.yul\":2607:2610   */\n  dup3\n    /* \"#utility.yul\":2603:2615   */\n  add\n    /* \"#utility.yul\":2596:2615   */\n  swap2\n  pop\n    /* \"#utility.yul\":2632:2780   */\n  tag_102\n    /* \"#utility.yul\":2776:2779   */\n  dup3\n    /* \"#utility.yul\":2632:2780   */\n  tag_88\n  jump\t// in\ntag_102:\n    /* \"#utility.yul\":2625:2780   */\n  swap2\n  pop\n    /* \"#utility.yul\":2797:2800   */\n  dup2\n    /* \"#utility.yul\":2790:2800   */\n  swap1\n  pop\n    /* \"#utility.yul\":2018:2806   */\n  swap3\n  swap2\n  pop\n  pop\n  jump\t// out\n    /* \"#utility.yul\":2812:3125   */\ntag_43:\n    /* \"#utility.yul\":2925:2929   */\n  0x00\n    /* \"#utility.yul\":2963:2965   */\n  0x20\n    /* \"#utility.yul\":2952:2961   */\n  dup3\n    /* \"#utility.yul\":2948:2966   */\n  add\n    /* \"#utility.yul\":2940:2966   */\n  swap1\n  pop\n    /* \"#utility.yul\":3012:3021   */\n  dup2\n    /* \"#utility.yul\":3006:3010   */\n  dup2\n    /* \"#utility.yul\":3002:3022   */\n  sub\n    /* \"#utility.yul\":2998:2999   */\n  0x00\n    /* \"#utility.yul\":2987:2996   */\n  dup4\n    /* \"#utility.yul\":2983:3000   */\n  add\n    /* \"#utility.yul\":2976:3023   */\n  mstore\n    /* \"#utility.yul\":3040:3118   */\n  tag_104\n    /* \"#utility.yul\":3113:3117   */\n  dup2\n    /* \"#utility.yul\":3104:3110   */\n  dup5\n    /* \"#utility.yul\":3040:3118   */\n  tag_72\n  jump\t// in\ntag_104:\n    /* \"#utility.yul\":3032:3118   */\n  swap1\n  pop\n    /* \"#utility.yul\":2812:3125   */\n  swap3\n  swap2\n  pop\n  pop\n  jump\t// out\n    /* \"#utility.yul\":3212:3311   */\ntag_75:\n    /* \"#utility.yul\":3264:3270   */\n  0x00\n    /* \"#utility.yul\":3298:3303   */\n  dup2\n    /* \"#utility.yul\":3292:3304   */\n  mload\n    /* \"#utility.yul\":3282:3304   */\n  swap1\n  pop\n    /* \"#utility.yul\":3212:3311   */\n  swap2\n  swap1\n  pop\n  jump\t// out\n    /* \"#utility.yul\":3317:3486   */\ntag_77:\n    /* \"#utility.yul\":3401:3412   */\n  0x00\n    /* \"#utility.yul\":3435:3441   */\n  dup3\n    /* \"#utility.yul\":3430:3433   */\n  dup3\n    /* \"#utility.yul\":3423:3442   */\n  mstore\n    /* \"#utility.yul\":3475:3479   */\n  0x20\n    /* \"#utility.yul\":3470:3473   */\n  dup3\n    /* \"#utility.yul\":3466:3480   */\n  add\n    /* \"#utility.yul\":3451:3480   */\n  swap1\n  pop\n    /* \"#utility.yul\":3317:3486   */\n  swap3\n  swap2\n  pop\n  pop\n  jump\t// out\n    /* \"#utility.yul\":3492:3640   */\ntag_85:\n    /* \"#utility.yul\":3594:3605   */\n  0x00\n    /* \"#utility.yul\":3631:3634   */\n  dup2\n    /* \"#utility.yul\":3616:3634   */\n  swap1\n  pop\n    /* \"#utility.yul\":3492:3640   */\n  swap3\n  swap2\n  pop\n  pop\n  jump\t// out\n    /* \"#utility.yul\":3646:3951   */\ntag_36:\n    /* \"#utility.yul\":3686:3689   */\n  0x00\n    /* \"#utility.yul\":3705:3725   */\n  tag_111\n    /* \"#utility.yul\":3723:3724   */\n  dup3\n    /* \"#utility.yul\":3705:3725   */\n  tag_97\n  jump\t// in\ntag_111:\n    /* \"#utility.yul\":3700:3725   */\n  swap2\n  pop\n    /* \"#utility.yul\":3739:3759   */\n  tag_112\n    /* \"#utility.yul\":3757:3758   */\n  dup4\n    /* \"#utility.yul\":3739:3759   */\n  tag_97\n  jump\t// in\ntag_112:\n    /* \"#utility.yul\":3734:3759   */\n  swap3\n  pop\n    /* \"#utility.yul\":3893:3894   */\n  dup3\n    /* \"#utility.yul\":3825:3891   */\n  0xffffffffffffffffffffffffffffffffffffffffffffffffffffffffffffffff\n    /* \"#utility.yul\":3821:3895   */\n  sub\n    /* \"#utility.yul\":3818:3819   */\n  dup3\n    /* \"#utility.yul\":3815:3896   */\n  gt\n    /* \"#utility.yul\":3812:3919   */\n  iszero\n  tag_113\n  jumpi\n    /* \"#utility.yul\":3899:3917   */\n  tag_114\n  tag_115\n  jump\t// in\ntag_114:\n    /* \"#utility.yul\":3812:3919   */\ntag_113:\n    /* \"#utility.yul\":3943:3944   */\n  dup3\n    /* \"#utility.yul\":3940:3941   */\n  dup3\n    /* \"#utility.yul\":3936:3945   */\n  add\n    /* \"#utility.yul\":3929:3945   */\n  swap1\n  pop\n    /* \"#utility.yul\":3646:3951   */\n  swap3\n  swap2\n  pop\n  pop\n  jump\t// out\n    /* \"#utility.yul\":3957:4053   */\ntag_116:\n    /* \"#utility.yul\":3994:4001   */\n  0x00\n    /* \"#utility.yul\":4023:4047   */\n  tag_118\n    /* \"#utility.yul\":4041:4046   */\n  dup3\n    /* \"#utility.yul\":4023:4047   */\n  tag_119\n  jump\t// in\ntag_118:\n    /* \"#utility.yul\":4012:4047   */\n  swap1\n  pop\n    /* \"#utility.yul\":3957:4053   */\n  swap2\n  swap1\n  pop\n  jump\t// out\n    /* \"#utility.yul\":4059:4185   */\ntag_119:\n    /* \"#utility.yul\":4096:4103   */\n  0x00\n    /* \"#utility.yul\":4136:4178   */\n  0xffffffffffffffffffffffffffffffffffffffff\n    /* \"#utility.yul\":4129:4134   */\n  dup3\n    /* \"#utility.yul\":4125:4179   */\n  and\n    /* \"#utility.yul\":4114:4179   */\n  swap1\n  pop\n    /* \"#utility.yul\":4059:4185   */\n  swap2\n  swap1\n  pop\n  jump\t// out\n    /* \"#utility.yul\":4191:4268   */\ntag_97:\n    /* \"#utility.yul\":4228:4235   */\n  0x00\n    /* \"#utility.yul\":4257:4262   */\n  dup2\n    /* \"#utility.yul\":4246:4262   */\n  swap1\n  pop\n    /* \"#utility.yul\":4191:4268   */\n  swap2\n  swap1\n  pop\n  jump\t// out\n    /* \"#utility.yul\":4274:4581   */\ntag_79:\n    /* \"#utility.yul\":4342:4343   */\n  0x00\n    /* \"#utility.yul\":4352:4465   */\ntag_123:\n    /* \"#utility.yul\":4366:4372   */\n  dup4\n    /* \"#utility.yul\":4363:4364   */\n  dup2\n    /* \"#utility.yul\":4360:4373   */\n  lt\n    /* \"#utility.yul\":4352:4465   */\n  iszero\n  tag_125\n  jumpi\n    /* \"#utility.yul\":4451:4452   */\n  dup1\n    /* \"#utility.yul\":4446:4449   */\n  dup3\n    /* \"#utility.yul\":4442:4453   */\n  add\n    /* \"#utility.yul\":4436:4454   */\n  mload\n    /* \"#utility.yul\":4432:4433   */\n  dup2\n    /* \"#utility.yul\":4427:4430   */\n  dup5\n    /* \"#utility.yul\":4423:4434   */\n  add\n    /* \"#utility.yul\":4416:4455   */\n  mstore\n    /* \"#utility.yul\":4388:4390   */\n  0x20\n    /* \"#utility.yul\":4385:4386   */\n  dup2\n    /* \"#utility.yul\":4381:4391   */\n  add\n    /* \"#utility.yul\":4376:4391   */\n  swap1\n  pop\n    /* \"#utility.yul\":4352:4465   */\n  jump(tag_123)\ntag_125:\n    /* \"#utility.yul\":4483:4489   */\n  dup4\n    /* \"#utility.yul\":4480:4481   */\n  dup2\n    /* \"#utility.yul\":4477:4490   */\n  gt\n    /* \"#utility.yul\":4474:4575   */\n  iszero\n  tag_126\n  jumpi\n    /* \"#utility.yul\":4563:4564   */\n  0x00\n    /* \"#utility.yul\":4554:4560   */\n  dup5\n    /* \"#utility.yul\":4549:4552   */\n  dup5\n    /* \"#utility.yul\":4545:4561   */\n  add\n    /* \"#utility.yul\":4538:4565   */\n  mstore\n    /* \"#utility.yul\":4474:4575   */\ntag_126:\n    /* \"#utility.yul\":4323:4581   */\n  pop\n    /* \"#utility.yul\":4274:4581   */\n  pop\n  pop\n  pop\n  jump\t// out\n    /* \"#utility.yul\":4587:4907   */\ntag_51:\n    /* \"#utility.yul\":4631:4637   */\n  0x00\n    /* \"#utility.yul\":4668:4669   */\n  0x02\n    /* \"#utility.yul\":4662:4666   */\n  dup3\n    /* \"#utility.yul\":4658:4670   */\n  div\n    /* \"#utility.yul\":4648:4670   */\n  swap1\n  pop\n    /* \"#utility.yul\":4715:4716   */\n  0x01\n    /* \"#utility.yul\":4709:4713   */\n  dup3\n    /* \"#utility.yul\":4705:4717   */\n  and\n    /* \"#utility.yul\":4736:4754   */\n  dup1\n    /* \"#utility.yul\":4726:4807   */\n  tag_128\n  jumpi\n    /* \"#utility.yul\":4792:4796   */\n  0x7f\n    /* \"#utility.yul\":4784:4790   */\n  dup3\n    /* \"#utility.yul\":4780:4797   */\n  and\n    /* \"#utility.yul\":4770:4797   */\n  swap2\n  pop\n    /* \"#utility.yul\":4726:4807   */\ntag_128:\n    /* \"#utility.yul\":4854:4856   */\n  0x20\n    /* \"#utility.yul\":4846:4852   */\n  dup3\n    /* \"#utility.yul\":4843:4857   */\n  lt\n    /* \"#utility.yul\":4823:4841   */\n  dup2\n    /* \"#utility.yul\":4820:4858   */\n  eq\n    /* \"#utility.yul\":4817:4901   */\n  iszero\n  tag_129\n  jumpi\n    /* \"#utility.yul\":4873:4891   */\n  tag_130\n  tag_131\n  jump\t// in\ntag_130:\n    /* \"#utility.yul\":4817:4901   */\ntag_129:\n    /* \"#utility.yul\":4638:4907   */\n  pop\n    /* \"#utility.yul\":4587:4907   */\n  swap2\n  swap1\n  pop\n  jump\t// out\n    /* \"#utility.yul\":4913:4992   */\ntag_98:\n    /* \"#utility.yul\":4952:4959   */\n  0x00\n    /* \"#utility.yul\":4981:4986   */\n  dup2\n    /* \"#utility.yul\":4970:4986   */\n  swap1\n  pop\n    /* \"#utility.yul\":4913:4992   */\n  swap2\n  swap1\n  pop\n  jump\t// out\n    /* \"#utility.yul\":4998:5178   */\ntag_115:\n    /* \"#utility.yul\":5046:5123   */\n  0x4e487b7100000000000000000000000000000000000000000000000000000000\n    /* \"#utility.yul\":5043:5044   */\n  0x00\n    /* \"#utility.yul\":5036:5124   */\n  mstore\n    /* \"#utility.yul\":5143:5147   */\n  0x11\n    /* \"#utility.yul\":5140:5141   */\n  0x04\n    /* \"#utility.yul\":5133:5148   */\n  mstore\n    /* \"#utility.yul\":5167:5171   */\n  0x24\n    /* \"#utility.yul\":5164:5165   */\n  0x00\n    /* \"#utility.yul\":5157:5172   */\n  revert\n    /* \"#utility.yul\":5184:5364   */\ntag_131:\n    /* \"#utility.yul\":5232:5309   */\n  0x4e487b7100000000000000000000000000000000000000000000000000000000\n    /* \"#utility.yul\":5229:5230   */\n  0x00\n    /* \"#utility.yul\":5222:5310   */\n  mstore\n    /* \"#utility.yul\":5329:5333   */\n  0x22\n    /* \"#utility.yul\":5326:5327   */\n  0x04\n    /* \"#utility.yul\":5319:5334   */\n  mstore\n    /* \"#utility.yul\":5353:5357   */\n  0x24\n    /* \"#utility.yul\":5350:5351   */\n  0x00\n    /* \"#utility.yul\":5343:5358   */\n  revert\n    /* \"#utility.yul\":5493:5610   */\ntag_69:\n    /* \"#utility.yul\":5602:5603   */\n  0x00\n    /* \"#utility.yul\":5599:5600   */\n  dup1\n    /* \"#utility.yul\":5592:5604   */\n  revert\n    /* \"#utility.yul\":5616:5718   */\ntag_81:\n    /* \"#utility.yul\":5657:5663   */\n  0x00\n    /* \"#utility.yul\":5708:5710   */\n  0x1f\n    /* \"#utility.yul\":5704:5711   */\n  not\n    /* \"#utility.yul\":5699:5701   */\n  0x1f\n    /* \"#utility.yul\":5692:5697   */\n  dup4\n    /* \"#utility.yul\":5688:5702   */\n  add\n    /* \"#utility.yul\":5684:5712   */\n  and\n    /* \"#utility.yul\":5674:5712   */\n  swap1\n  pop\n    /* \"#utility.yul\":5616:5718   */\n  swap2\n  swap1\n  pop\n  jump\t// out\n    /* \"#utility.yul\":5724:5885   */\ntag_87:\n    /* \"#utility.yul\":5864:5877   */\n  0x5468652076616c75653a20000000000000000000000000000000000000000000\n    /* \"#utility.yul\":5860:5861   */\n  0x00\n    /* \"#utility.yul\":5852:5858   */\n  dup3\n    /* \"#utility.yul\":5848:5862   */\n  add\n    /* \"#utility.yul\":5841:5878   */\n  mstore\n    /* \"#utility.yul\":5724:5885   */\n  pop\n  jump\t// out\n    /* \"#utility.yul\":5891:6063   */\ntag_92:\n    /* \"#utility.yul\":6031:6055   */\n  0x2c20697320696e76616c69642074696d6520756e697400000000000000000000\n    /* \"#utility.yul\":6027:6028   */\n  0x00\n    /* \"#utility.yul\":6019:6025   */\n  dup3\n    /* \"#utility.yul\":6015:6029   */\n  add\n    /* \"#utility.yul\":6008:6056   */\n  mstore\n    /* \"#utility.yul\":5891:6063   */\n  pop\n  jump\t// out\n    /* \"#utility.yul\":6069:6191   */\ntag_65:\n    /* \"#utility.yul\":6142:6166   */\n  tag_142\n    /* \"#utility.yul\":6160:6165   */\n  dup2\n    /* \"#utility.yul\":6142:6166   */\n  tag_116\n  jump\t// in\ntag_142:\n    /* \"#utility.yul\":6135:6140   */\n  dup2\n    /* \"#utility.yul\":6132:6167   */\n  eq\n    /* \"#utility.yul\":6122:6185   */\n  tag_143\n  jumpi\n    /* \"#utility.yul\":6181:6182   */\n  0x00\n    /* \"#utility.yul\":6178:6179   */\n  dup1\n    /* \"#utility.yul\":6171:6183   */\n  revert\n    /* \"#utility.yul\":6122:6185   */\ntag_143:\n    /* \"#utility.yul\":6069:6191   */\n  pop\n  jump\t// out\n    /* \"DeliveryHiringRO.sol\":66:3280  contract DeliveryHiring is EAI_Domain{\r... */\ntag_31:\n  dataSize(sub_0)\n  dup1\n  dataOffset(sub_0)\n  0x00\n  codecopy\n  0x00\n  return\nstop\n\nsub_0: assembly {\n        /* \"DeliveryHiringRO.sol\":66:3280  contract DeliveryHiring is EAI_Domain{\r... */\n      mstore(0x40, 0x80)\n      callvalue\n      dup1\n      iszero\n      tag_1\n      jumpi\n      0x00\n      dup1\n      revert\n    tag_1:\n      pop\n      jumpi(tag_2, lt(calldatasize, 0x04))\n      shr(0xe0, calldataload(0x00))\n      dup1\n      0x79bc473b\n      gt\n      tag_11\n      jumpi\n      dup1\n      0x79bc473b\n      eq\n      tag_7\n      jumpi\n      dup1\n      0x92091920\n      eq\n      tag_8\n      jumpi\n      dup1\n      0xcc58fd8c\n      eq\n      tag_9\n      jumpi\n      dup1\n      0xf73f91bf\n      eq\n      tag_10\n      jumpi\n      jump(tag_2)\n    tag_11:\n      dup1\n      0x08148f7a\n      eq\n      tag_3\n      jumpi\n      dup1\n      0x20ac908b\n      eq\n      tag_4\n      jumpi\n      dup1\n      0x736724a7\n      eq\n      tag_5\n      jumpi\n      dup1\n      0x738a6122\n      eq\n      tag_6\n      jumpi\n    tag_2:\n      0x00\n      dup1\n      revert\n        /* \"DeliveryHiringRO.sol\":509:533  Timeout[] public timeout */\n    tag_3:\n      tag_12\n      0x04\n      dup1\n      calldatasize\n      sub\n      dup2\n      add\n      swap1\n      tag_13\n      swap2\n      swap1\n      tag_14\n      jump\t// in\n    tag_13:\n      tag_15\n      jump\t// in\n    tag_12:\n      mload(0x40)\n      tag_16\n      swap3\n      swap2\n      swap1\n      tag_17\n      jump\t// in\n    tag_16:\n      mload(0x40)\n      dup1\n      swap2\n      sub\n      swap1\n      return\n        /* \"DeliveryHiringRO.sol\":404:450  MessageContent[] public messageContent_request */\n    tag_4:\n      tag_18\n      0x04\n      dup1\n      calldatasize\n      sub\n      dup2\n      add\n      swap1\n      tag_19\n      swap2\n      swap1\n      tag_14\n      jump\t// in\n    tag_19:\n      tag_20\n      jump\t// in\n    tag_18:\n      mload(0x40)\n      tag_21\n      swap7\n      swap6\n      swap5\n      swap4\n      swap3\n      swap2\n      swap1\n      tag_22\n      jump\t// in\n    tag_21:\n      mload(0x40)\n      dup1\n      swap2\n      sub\n      swap1\n      return\n        /* \"DeliveryHiringRO.sol\":286:318  BusinessDay[] public businessDay */\n    tag_5:\n      tag_23\n      0x04\n      dup1\n      calldatasize\n      sub\n      dup2\n      add\n      swap1\n      tag_24\n      swap2\n      swap1\n      tag_14\n      jump\t// in\n    tag_24:\n      tag_25\n      jump\t// in\n    tag_23:\n      mload(0x40)\n      tag_26\n      swap3\n      swap2\n      swap1\n      tag_27\n      jump\t// in\n    tag_26:\n      mload(0x40)\n      dup1\n      swap2\n      sub\n      swap1\n      return\n        /* \"DeliveryHiringRO.sol\":362:400  OperationLimit[] public operationLimit */\n    tag_6:\n      tag_28\n      0x04\n      dup1\n      calldatasize\n      sub\n      dup2\n      add\n      swap1\n      tag_29\n      swap2\n      swap1\n      tag_14\n      jump\t// in\n    tag_29:\n      tag_30\n      jump\t// in\n    tag_28:\n      mload(0x40)\n      tag_31\n      swap5\n      swap4\n      swap3\n      swap2\n      swap1\n      tag_32\n      jump\t// in\n    tag_31:\n      mload(0x40)\n      dup1\n      swap2\n      sub\n      swap1\n      return\n        /* \"DeliveryHiringRO.sol\":2649:3277  function responderOrder(uint32 _accessDateTime, string[] memory _xPathContent, bool[] memory _xPathResult, address _performer) public returns(bool){\r... */\n    tag_7:\n      tag_33\n      0x04\n      dup1\n      calldatasize\n      sub\n      dup2\n      add\n      swap1\n      tag_34\n      swap2\n      swap1\n      tag_35\n      jump\t// in\n    tag_34:\n      tag_36\n      jump\t// in\n    tag_33:\n      mload(0x40)\n      tag_37\n      swap2\n      swap1\n      tag_38\n      jump\t// in\n    tag_37:\n      mload(0x40)\n      dup1\n      swap2\n      sub\n      swap1\n      return\n        /* \"DeliveryHiringRO.sol\":1676:2576  function requestDelivery(uint32 _accessDateTime, string[] memory _xPathContent, address _performer) public returns(bool){\r... */\n    tag_8:\n      tag_39\n      0x04\n      dup1\n      calldatasize\n      sub\n      dup2\n      add\n      swap1\n      tag_40\n      swap2\n      swap1\n      tag_41\n      jump\t// in\n    tag_40:\n      tag_42\n      jump\t// in\n    tag_39:\n      mload(0x40)\n      tag_43\n      swap2\n      swap1\n      tag_38\n      jump\t// in\n    tag_43:\n      mload(0x40)\n      dup1\n      swap2\n      sub\n      swap1\n      return\n        /* \"DeliveryHiringRO.sol\":324:358  TimeInterval[] public timeInterval */\n    tag_9:\n      tag_44\n      0x04\n      dup1\n      calldatasize\n      sub\n      dup2\n      add\n      swap1\n      tag_45\n      swap2\n      swap1\n      tag_14\n      jump\t// in\n    tag_45:\n      tag_46\n      jump\t// in\n    tag_44:\n      mload(0x40)\n      tag_47\n      swap3\n      swap2\n      swap1\n      tag_17\n      jump\t// in\n    tag_47:\n      mload(0x40)\n      dup1\n      swap2\n      sub\n      swap1\n      return\n        /* \"DeliveryHiringRO.sol\":538:585  MessageContent[] public messageContent_response */\n    tag_10:\n      tag_48\n      0x04\n      dup1\n      calldatasize\n      sub\n      dup2\n      add\n      swap1\n      tag_49\n      swap2\n      swap1\n      tag_14\n      jump\t// in\n    tag_49:\n      tag_50\n      jump\t// in\n    tag_48:\n      mload(0x40)\n      tag_51\n      swap7\n      swap6\n      swap5\n      swap4\n      swap3\n      swap2\n      swap1\n      tag_22\n      jump\t// in\n    tag_51:\n      mload(0x40)\n      dup1\n      swap2\n      sub\n      swap1\n      return\n        /* \"DeliveryHiringRO.sol\":509:533  Timeout[] public timeout */\n    tag_15:\n      0x09\n      dup2\n      dup2\n      sload\n      dup2\n      lt\n      tag_52\n      jumpi\n      0x00\n      dup1\n      revert\n    tag_52:\n      swap1\n      0x00\n      mstore\n      keccak256(0x00, 0x20)\n      add\n      0x00\n      swap2\n      pop\n      swap1\n      pop\n      dup1\n      0x00\n      add\n      0x00\n      swap1\n      sload\n      swap1\n      0x0100\n      exp\n      swap1\n      div\n      0xffffffff\n      and\n      swap1\n      dup1\n      0x00\n      add\n      0x04\n      swap1\n      sload\n      swap1\n      0x0100\n      exp\n      swap1\n      div\n      0xffffffff\n      and\n      swap1\n      pop\n      dup3\n      jump\t// out\n        /* \"DeliveryHiringRO.sol\":404:450  MessageContent[] public messageContent_request */\n    tag_20:\n      0x08\n      dup2\n      dup2\n      sload\n      dup2\n      lt\n      tag_54\n      jumpi\n      0x00\n      dup1\n      revert\n    tag_54:\n      swap1\n      0x00\n      mstore\n      keccak256(0x00, 0x20)\n      swap1\n      0x06\n      mul\n      add\n      0x00\n      swap2\n      pop\n      swap1\n      pop\n      dup1\n      0x00\n      add\n      dup1\n      sload\n      tag_56\n      swap1\n      tag_57\n      jump\t// in\n    tag_56:\n      dup1\n      0x1f\n      add\n      0x20\n      dup1\n      swap2\n      div\n      mul\n      0x20\n      add\n      mload(0x40)\n      swap1\n      dup2\n      add\n      0x40\n      mstore\n      dup1\n      swap3\n      swap2\n      swap1\n      dup2\n      dup2\n      mstore\n      0x20\n      add\n      dup3\n      dup1\n      sload\n      tag_58\n      swap1\n      tag_57\n      jump\t// in\n    tag_58:\n      dup1\n      iszero\n      tag_59\n      jumpi\n      dup1\n      0x1f\n      lt\n      tag_60\n      jumpi\n      0x0100\n      dup1\n      dup4\n      sload\n      div\n      mul\n      dup4\n      mstore\n      swap2\n      0x20\n      add\n      swap2\n      jump(tag_59)\n    tag_60:\n      dup3\n      add\n      swap2\n      swap1\n      0x00\n      mstore\n      keccak256(0x00, 0x20)\n      swap1\n    tag_61:\n      dup2\n      sload\n      dup2\n      mstore\n      swap1\n      0x01\n      add\n      swap1\n      0x20\n      add\n      dup1\n      dup4\n      gt\n      tag_61\n      jumpi\n      dup3\n      swap1\n      sub\n      0x1f\n      and\n      dup3\n      add\n      swap2\n    tag_59:\n      pop\n      pop\n      pop\n      pop\n      pop\n      swap1\n      dup1\n      0x01\n      add\n      dup1\n      sload\n      tag_62\n      swap1\n      tag_57\n      jump\t// in\n    tag_62:\n      dup1\n      0x1f\n      add\n      0x20\n      dup1\n      swap2\n      div\n      mul\n      0x20\n      add\n      mload(0x40)\n      swap1\n      dup2\n      add\n      0x40\n      mstore\n      dup1\n      swap3\n      swap2\n      swap1\n      dup2\n      dup2\n      mstore\n      0x20\n      add\n      dup3\n      dup1\n      sload\n      tag_63\n      swap1\n      tag_57\n      jump\t// in\n    tag_63:\n      dup1\n      iszero\n      tag_64\n      jumpi\n      dup1\n      0x1f\n      lt\n      tag_65\n      jumpi\n      0x0100\n      dup1\n      dup4\n      sload\n      div\n      mul\n      dup4\n      mstore\n      swap2\n      0x20\n      add\n      swap2\n      jump(tag_64)\n    tag_65:\n      dup3\n      add\n      swap2\n      swap1\n      0x00\n      mstore\n      keccak256(0x00, 0x20)\n      swap1\n    tag_66:\n      dup2\n      sload\n      dup2\n      mstore\n      swap1\n      0x01\n      add\n      swap1\n      0x20\n      add\n      dup1\n      dup4\n      gt\n      tag_66\n      jumpi\n      dup3\n      swap1\n      sub\n      0x1f\n      and\n      dup3\n      add\n      swap2\n    tag_64:\n      pop\n      pop\n      pop\n      pop\n      pop\n      swap1\n      dup1\n      0x02\n      add\n      dup1\n      sload\n      tag_67\n      swap1\n      tag_57\n      jump\t// in\n    tag_67:\n      dup1\n      0x1f\n      add\n      0x20\n      dup1\n      swap2\n      div\n      mul\n      0x20\n      add\n      mload(0x40)\n      swap1\n      dup2\n      add\n      0x40\n      mstore\n      dup1\n      swap3\n      swap2\n      swap1\n      dup2\n      dup2\n      mstore\n      0x20\n      add\n      dup3\n      dup1\n      sload\n      tag_68\n      swap1\n      tag_57\n      jump\t// in\n    tag_68:\n      dup1\n      iszero\n      tag_69\n      jumpi\n      dup1\n      0x1f\n      lt\n      tag_70\n      jumpi\n      0x0100\n      dup1\n      dup4\n      sload\n      div\n      mul\n      dup4\n      mstore\n      swap2\n      0x20\n      add\n      swap2\n      jump(tag_69)\n    tag_70:\n      dup3\n      add\n      swap2\n      swap1\n      0x00\n      mstore\n      keccak256(0x00, 0x20)\n      swap1\n    tag_71:\n      dup2\n      sload\n      dup2\n      mstore\n      swap1\n      0x01\n      add\n      swap1\n      0x20\n      add\n      dup1\n      dup4\n      gt\n      tag_71\n      jumpi\n      dup3\n      swap1\n      sub\n      0x1f\n      and\n      dup3\n      add\n      swap2\n    tag_69:\n      pop\n      pop\n      pop\n      pop\n      pop\n      swap1\n      dup1\n      0x03\n      add\n      sload\n      swap1\n      dup1\n      0x04\n      add\n      sload\n      swap1\n      dup1\n      0x05\n      add\n      sload\n      swap1\n      pop\n      dup7\n      jump\t// out\n        /* \"DeliveryHiringRO.sol\":286:318  BusinessDay[] public businessDay */\n    tag_25:\n      0x05\n      dup2\n      dup2\n      sload\n      dup2\n      lt\n      tag_72\n      jumpi\n      0x00\n      dup1\n      revert\n    tag_72:\n      swap1\n      0x00\n      mstore\n      keccak256(0x00, 0x20)\n      swap1\n      0x02\n      mul\n      add\n      0x00\n      swap2\n      pop\n      swap1\n      pop\n      dup1\n      0x00\n      add\n      sload\n      swap1\n      dup1\n      0x01\n      add\n      sload\n      swap1\n      pop\n      dup3\n      jump\t// out\n        /* \"DeliveryHiringRO.sol\":362:400  OperationLimit[] public operationLimit */\n    tag_30:\n      0x07\n      dup2\n      dup2\n      sload\n      dup2\n      lt\n      tag_74\n      jumpi\n      0x00\n      dup1\n      revert\n    tag_74:\n      swap1\n      0x00\n      mstore\n      keccak256(0x00, 0x20)\n      swap1\n      0x04\n      mul\n      add\n      0x00\n      swap2\n      pop\n      swap1\n      pop\n      dup1\n      0x00\n      add\n      sload\n      swap1\n      dup1\n      0x01\n      add\n      sload\n      swap1\n      dup1\n      0x02\n      add\n      sload\n      swap1\n      dup1\n      0x03\n      add\n      sload\n      swap1\n      pop\n      dup5\n      jump\t// out\n        /* \"DeliveryHiringRO.sol\":2649:3277  function responderOrder(uint32 _accessDateTime, string[] memory _xPathContent, bool[] memory _xPathResult, address _performer) public returns(bool){\r... */\n    tag_36:\n        /* \"DeliveryHiringRO.sol\":2791:2795  bool */\n      0x00\n        /* \"DeliveryHiringRO.sol\":2826:2840  deliverySystem */\n      0x01\n        /* \"DeliveryHiringRO.sol\":2826:2854  deliverySystem.walletAddress */\n      dup1\n      add\n      0x00\n      swap1\n      sload\n      swap1\n      0x0100\n      exp\n      swap1\n      div\n      0xffffffffffffffffffffffffffffffffffffffff\n      and\n        /* \"DeliveryHiringRO.sol\":2812:2854  _performer == deliverySystem.walletAddress */\n      0xffffffffffffffffffffffffffffffffffffffff\n      and\n        /* \"DeliveryHiringRO.sol\":2812:2822  _performer */\n      dup3\n        /* \"DeliveryHiringRO.sol\":2812:2854  _performer == deliverySystem.walletAddress */\n      0xffffffffffffffffffffffffffffffffffffffff\n      and\n      eq\n        /* \"DeliveryHiringRO.sol\":2804:2908  require(_performer == deliverySystem.walletAddress, \"You have no permission to perform this operation.\") */\n      tag_77\n      jumpi\n      mload(0x40)\n      0x08c379a000000000000000000000000000000000000000000000000000000000\n      dup2\n      mstore\n      0x04\n      add\n      tag_78\n      swap1\n      tag_79\n      jump\t// in\n    tag_78:\n      mload(0x40)\n      dup1\n      swap2\n      sub\n      swap1\n      revert\n    tag_77:\n        /* \"DeliveryHiringRO.sol\":2917:2963  isTimeout(_accessDateTime, timeout[0].endTime) */\n      tag_80\n        /* \"DeliveryHiringRO.sol\":2927:2942  _accessDateTime */\n      dup6\n        /* \"DeliveryHiringRO.sol\":2944:2951  timeout */\n      0x09\n        /* \"DeliveryHiringRO.sol\":2952:2953  0 */\n      0x00\n        /* \"DeliveryHiringRO.sol\":2944:2954  timeout[0] */\n      dup2\n      sload\n      dup2\n      lt\n      tag_81\n      jumpi\n      tag_82\n      tag_83\n      jump\t// in\n    tag_82:\n    tag_81:\n      swap1\n      0x00\n      mstore\n      keccak256(0x00, 0x20)\n      add\n        /* \"DeliveryHiringRO.sol\":2944:2962  timeout[0].endTime */\n      0x00\n      add\n      0x04\n      swap1\n      sload\n      swap1\n      0x0100\n      exp\n      swap1\n      div\n      0xffffffff\n      and\n        /* \"DeliveryHiringRO.sol\":2917:2926  isTimeout */\n      tag_85\n        /* \"DeliveryHiringRO.sol\":2917:2963  isTimeout(_accessDateTime, timeout[0].endTime) */\n      jump\t// in\n    tag_80:\n        /* \"DeliveryHiringRO.sol\":2916:2963  !isTimeout(_accessDateTime, timeout[0].endTime) */\n      iszero\n        /* \"DeliveryHiringRO.sol\":2916:3037  !isTimeout(_accessDateTime, timeout[0].endTime)&&\r... */\n      dup1\n      iszero\n      tag_86\n      jumpi\n      pop\n        /* \"DeliveryHiringRO.sol\":2969:3037  evaluateMessageContent(messageContent_response[0], _xPathContent[0]) */\n      tag_87\n        /* \"DeliveryHiringRO.sol\":2992:3015  messageContent_response */\n      0x0a\n        /* \"DeliveryHiringRO.sol\":3016:3017  0 */\n      0x00\n        /* \"DeliveryHiringRO.sol\":2992:3018  messageContent_response[0] */\n      dup2\n      sload\n      dup2\n      lt\n      tag_88\n      jumpi\n      tag_89\n      tag_83\n      jump\t// in\n    tag_89:\n    tag_88:\n      swap1\n      0x00\n      mstore\n      keccak256(0x00, 0x20)\n      swap1\n      0x06\n      mul\n      add\n        /* \"DeliveryHiringRO.sol\":2969:3037  evaluateMessageContent(messageContent_response[0], _xPathContent[0]) */\n      mload(0x40)\n      dup1\n      0xc0\n      add\n      0x40\n      mstore\n      swap1\n      dup2\n      0x00\n      dup3\n      add\n      dup1\n      sload\n      tag_91\n      swap1\n      tag_57\n      jump\t// in\n    tag_91:\n      dup1\n      0x1f\n      add\n      0x20\n      dup1\n      swap2\n      div\n      mul\n      0x20\n      add\n      mload(0x40)\n      swap1\n      dup2\n      add\n      0x40\n      mstore\n      dup1\n      swap3\n      swap2\n      swap1\n      dup2\n      dup2\n      mstore\n      0x20\n      add\n      dup3\n      dup1\n      sload\n      tag_92\n      swap1\n      tag_57\n      jump\t// in\n    tag_92:\n      dup1\n      iszero\n      tag_93\n      jumpi\n      dup1\n      0x1f\n      lt\n      tag_94\n      jumpi\n      0x0100\n      dup1\n      dup4\n      sload\n      div\n      mul\n      dup4\n      mstore\n      swap2\n      0x20\n      add\n      swap2\n      jump(tag_93)\n    tag_94:\n      dup3\n      add\n      swap2\n      swap1\n      0x00\n      mstore\n      keccak256(0x00, 0x20)\n      swap1\n    tag_95:\n      dup2\n      sload\n      dup2\n      mstore\n      swap1\n      0x01\n      add\n      swap1\n      0x20\n      add\n      dup1\n      dup4\n      gt\n      tag_95\n      jumpi\n      dup3\n      swap1\n      sub\n      0x1f\n      and\n      dup3\n      add\n      swap2\n    tag_93:\n      pop\n      pop\n      pop\n      pop\n      pop\n      dup2\n      mstore\n      0x20\n      add\n      0x01\n      dup3\n      add\n      dup1\n      sload\n      tag_96\n      swap1\n      tag_57\n      jump\t// in\n    tag_96:\n      dup1\n      0x1f\n      add\n      0x20\n      dup1\n      swap2\n      div\n      mul\n      0x20\n      add\n      mload(0x40)\n      swap1\n      dup2\n      add\n      0x40\n      mstore\n      dup1\n      swap3\n      swap2\n      swap1\n      dup2\n      dup2\n      mstore\n      0x20\n      add\n      dup3\n      dup1\n      sload\n      tag_97\n      swap1\n      tag_57\n      jump\t// in\n    tag_97:\n      dup1\n      iszero\n      tag_98\n      jumpi\n      dup1\n      0x1f\n      lt\n      tag_99\n      jumpi\n      0x0100\n      dup1\n      dup4\n      sload\n      div\n      mul\n      dup4\n      mstore\n      swap2\n      0x20\n      add\n      swap2\n      jump(tag_98)\n    tag_99:\n      dup3\n      add\n      swap2\n      swap1\n      0x00\n      mstore\n      keccak256(0x00, 0x20)\n      swap1\n    tag_100:\n      dup2\n      sload\n      dup2\n      mstore\n      swap1\n      0x01\n      add\n      swap1\n      0x20\n      add\n      dup1\n      dup4\n      gt\n      tag_100\n      jumpi\n      dup3\n      swap1\n      sub\n      0x1f\n      and\n      dup3\n      add\n      swap2\n    tag_98:\n      pop\n      pop\n      pop\n      pop\n      pop\n      dup2\n      mstore\n      0x20\n      add\n      0x02\n      dup3\n      add\n      dup1\n      sload\n      tag_101\n      swap1\n      tag_57\n      jump\t// in\n    tag_101:\n      dup1\n      0x1f\n      add\n      0x20\n      dup1\n      swap2\n      div\n      mul\n      0x20\n      add\n      mload(0x40)\n      swap1\n      dup2\n      add\n      0x40\n      mstore\n      dup1\n      swap3\n      swap2\n      swap1\n      dup2\n      dup2\n      mstore\n      0x20\n      add\n      dup3\n      dup1\n      sload\n      tag_102\n      swap1\n      tag_57\n      jump\t// in\n    tag_102:\n      dup1\n      iszero\n      tag_103\n      jumpi\n      dup1\n      0x1f\n      lt\n      tag_104\n      jumpi\n      0x0100\n      dup1\n      dup4\n      sload\n      div\n      mul\n      dup4\n      mstore\n      swap2\n      0x20\n      add\n      swap2\n      jump(tag_103)\n    tag_104:\n      dup3\n      add\n      swap2\n      swap1\n      0x00\n      mstore\n      keccak256(0x00, 0x20)\n      swap1\n    tag_105:\n      dup2\n      sload\n      dup2\n      mstore\n      swap1\n      0x01\n      add\n      swap1\n      0x20\n      add\n      dup1\n      dup4\n      gt\n      tag_105\n      jumpi\n      dup3\n      swap1\n      sub\n      0x1f\n      and\n      dup3\n      add\n      swap2\n    tag_103:\n      pop\n      pop\n      pop\n      pop\n      pop\n      dup2\n      mstore\n      0x20\n      add\n      0x03\n      dup3\n      add\n      sload\n      dup2\n      mstore\n      0x20\n      add\n      0x04\n      dup3\n      add\n      sload\n      dup2\n      mstore\n      0x20\n      add\n      0x05\n      dup3\n      add\n      sload\n      dup2\n      mstore\n      pop\n      pop\n        /* \"DeliveryHiringRO.sol\":3020:3033  _xPathContent */\n      dup6\n        /* \"DeliveryHiringRO.sol\":3034:3035  0 */\n      0x00\n        /* \"DeliveryHiringRO.sol\":3020:3036  _xPathContent[0] */\n      dup2\n      mload\n      dup2\n      lt\n      tag_106\n      jumpi\n      tag_107\n      tag_83\n      jump\t// in\n    tag_107:\n    tag_106:\n      0x20\n      mul\n      0x20\n      add\n      add\n      mload\n        /* \"DeliveryHiringRO.sol\":2969:2991  evaluateMessageContent */\n      tag_108\n        /* \"DeliveryHiringRO.sol\":2969:3037  evaluateMessageContent(messageContent_response[0], _xPathContent[0]) */\n      jump\t// in\n    tag_87:\n        /* \"DeliveryHiringRO.sol\":2916:3037  !isTimeout(_accessDateTime, timeout[0].endTime)&&\r... */\n    tag_86:\n        /* \"DeliveryHiringRO.sol\":2913:3180  if(!isTimeout(_accessDateTime, timeout[0].endTime)&&\r... */\n      iszero\n      tag_109\n      jumpi\n        /* \"DeliveryHiringRO.sol\":3075:3076  1 */\n      0x01\n        /* \"DeliveryHiringRO.sol\":3048:3062  operationLimit */\n      0x07\n        /* \"DeliveryHiringRO.sol\":3063:3064  0 */\n      0x00\n        /* \"DeliveryHiringRO.sol\":3048:3065  operationLimit[0] */\n      dup2\n      sload\n      dup2\n      lt\n      tag_110\n      jumpi\n      tag_111\n      tag_83\n      jump\t// in\n    tag_111:\n    tag_110:\n      swap1\n      0x00\n      mstore\n      keccak256(0x00, 0x20)\n      swap1\n      0x04\n      mul\n      add\n        /* \"DeliveryHiringRO.sol\":3048:3073  operationLimit[0].counter */\n      0x03\n      add\n      0x00\n        /* \"DeliveryHiringRO.sol\":3048:3076  operationLimit[0].counter+=1 */\n      dup3\n      dup3\n      sload\n      tag_113\n      swap2\n      swap1\n      tag_114\n      jump\t// in\n    tag_113:\n      swap3\n      pop\n      pop\n      dup2\n      swap1\n      sstore\n      pop\n        /* \"DeliveryHiringRO.sol\":3167:3171  true */\n      0x01\n        /* \"DeliveryHiringRO.sol\":3160:3171  return true */\n      swap1\n      pop\n      jump(tag_76)\n        /* \"DeliveryHiringRO.sol\":2913:3180  if(!isTimeout(_accessDateTime, timeout[0].endTime)&&\r... */\n    tag_109:\n        /* \"DeliveryHiringRO.sol\":3192:3255  failEvent(\"Exceeded response time or message content mismatch\") */\n      0x66091b7dc2b097c8f60d5cd6aa99633b097f08d2eb1056f3e15361b22e0ea2ba\n      mload(0x40)\n      tag_115\n      swap1\n      tag_116\n      jump\t// in\n    tag_115:\n      mload(0x40)\n      dup1\n      swap2\n      sub\n      swap1\n      log1\n        /* \"DeliveryHiringRO.sol\":3267:3272  false */\n      0x00\n        /* \"DeliveryHiringRO.sol\":3260:3272  return false */\n      swap1\n      pop\n        /* \"DeliveryHiringRO.sol\":2649:3277  function responderOrder(uint32 _accessDateTime, string[] memory _xPathContent, bool[] memory _xPathResult, address _performer) public returns(bool){\r... */\n    tag_76:\n      swap5\n      swap4\n      pop\n      pop\n      pop\n      pop\n      jump\t// out\n        /* \"DeliveryHiringRO.sol\":1676:2576  function requestDelivery(uint32 _accessDateTime, string[] memory _xPathContent, address _performer) public returns(bool){\r... */\n    tag_42:\n        /* \"DeliveryHiringRO.sol\":1791:1795  bool */\n      0x00\n        /* \"DeliveryHiringRO.sol\":1826:1844  integrationProcess */\n      0x03\n        /* \"DeliveryHiringRO.sol\":1826:1858  integrationProcess.walletAddress */\n      0x01\n      add\n      0x00\n      swap1\n      sload\n      swap1\n      0x0100\n      exp\n      swap1\n      div\n      0xffffffffffffffffffffffffffffffffffffffff\n      and\n        /* \"DeliveryHiringRO.sol\":1812:1858  _performer == integrationProcess.walletAddress */\n      0xffffffffffffffffffffffffffffffffffffffff\n      and\n        /* \"DeliveryHiringRO.sol\":1812:1822  _performer */\n      dup3\n        /* \"DeliveryHiringRO.sol\":1812:1858  _performer == integrationProcess.walletAddress */\n      0xffffffffffffffffffffffffffffffffffffffff\n      and\n      eq\n        /* \"DeliveryHiringRO.sol\":1804:1912  require(_performer == integrationProcess.walletAddress, \"You have no permission to perform this operation.\") */\n      tag_118\n      jumpi\n      mload(0x40)\n      0x08c379a000000000000000000000000000000000000000000000000000000000\n      dup2\n      mstore\n      0x04\n      add\n      tag_119\n      swap1\n      tag_79\n      jump\t// in\n    tag_119:\n      mload(0x40)\n      dup1\n      swap2\n      sub\n      swap1\n      revert\n    tag_118:\n        /* \"DeliveryHiringRO.sol\":1920:1966  isBusinessDay(_accessDateTime, businessDay[0]) */\n      tag_120\n        /* \"DeliveryHiringRO.sol\":1934:1949  _accessDateTime */\n      dup5\n        /* \"DeliveryHiringRO.sol\":1951:1962  businessDay */\n      0x05\n        /* \"DeliveryHiringRO.sol\":1963:1964  0 */\n      0x00\n        /* \"DeliveryHiringRO.sol\":1951:1965  businessDay[0] */\n      dup2\n      sload\n      dup2\n      lt\n      tag_121\n      jumpi\n      tag_122\n      tag_83\n      jump\t// in\n    tag_122:\n    tag_121:\n      swap1\n      0x00\n      mstore\n      keccak256(0x00, 0x20)\n      swap1\n      0x02\n      mul\n      add\n        /* \"DeliveryHiringRO.sol\":1920:1933  isBusinessDay */\n      tag_124\n        /* \"DeliveryHiringRO.sol\":1920:1966  isBusinessDay(_accessDateTime, businessDay[0]) */\n      jump\t// in\n    tag_120:\n        /* \"DeliveryHiringRO.sol\":1920:2026  isBusinessDay(_accessDateTime, businessDay[0]) && \r... */\n      dup1\n      iszero\n      tag_125\n      jumpi\n      pop\n        /* \"DeliveryHiringRO.sol\":1974:2026  isIntoTimeInterval(_accessDateTime, timeInterval[0]) */\n      tag_126\n        /* \"DeliveryHiringRO.sol\":1993:2008  _accessDateTime */\n      dup5\n        /* \"DeliveryHiringRO.sol\":1974:2026  isIntoTimeInterval(_accessDateTime, timeInterval[0]) */\n      0xffffffff\n      and\n        /* \"DeliveryHiringRO.sol\":2010:2022  timeInterval */\n      0x06\n        /* \"DeliveryHiringRO.sol\":2023:2024  0 */\n      0x00\n        /* \"DeliveryHiringRO.sol\":2010:2025  timeInterval[0] */\n      dup2\n      sload\n      dup2\n      lt\n      tag_127\n      jumpi\n      tag_128\n      tag_83\n      jump\t// in\n    tag_128:\n    tag_127:\n      swap1\n      0x00\n      mstore\n      keccak256(0x00, 0x20)\n      add\n        /* \"DeliveryHiringRO.sol\":1974:2026  isIntoTimeInterval(_accessDateTime, timeInterval[0]) */\n      mload(0x40)\n      dup1\n      0x40\n      add\n      0x40\n      mstore\n      swap1\n      dup2\n      0x00\n      dup3\n      add\n      0x00\n      swap1\n      sload\n      swap1\n      0x0100\n      exp\n      swap1\n      div\n      0xffffffff\n      and\n      0xffffffff\n      and\n      0xffffffff\n      and\n      dup2\n      mstore\n      0x20\n      add\n      0x00\n      dup3\n      add\n      0x04\n      swap1\n      sload\n      swap1\n      0x0100\n      exp\n      swap1\n      div\n      0xffffffff\n      and\n      0xffffffff\n      and\n      0xffffffff\n      and\n      dup2\n      mstore\n      pop\n      pop\n        /* \"DeliveryHiringRO.sol\":1974:1992  isIntoTimeInterval */\n      tag_130\n        /* \"DeliveryHiringRO.sol\":1974:2026  isIntoTimeInterval(_accessDateTime, timeInterval[0]) */\n      jump\t// in\n    tag_126:\n        /* \"DeliveryHiringRO.sol\":1920:2026  isBusinessDay(_accessDateTime, businessDay[0]) && \r... */\n    tag_125:\n        /* \"DeliveryHiringRO.sol\":1920:2109  isBusinessDay(_accessDateTime, businessDay[0]) && \r... */\n      dup1\n      iszero\n      tag_131\n      jumpi\n      pop\n        /* \"DeliveryHiringRO.sol\":2033:2109  isOperationLimitReached(_accessDateTime, timeInterval[0], operationLimit[0]) */\n      tag_132\n        /* \"DeliveryHiringRO.sol\":2057:2072  _accessDateTime */\n      dup5\n        /* \"DeliveryHiringRO.sol\":2074:2086  timeInterval */\n      0x06\n        /* \"DeliveryHiringRO.sol\":2087:2088  0 */\n      0x00\n        /* \"DeliveryHiringRO.sol\":2074:2089  timeInterval[0] */\n      dup2\n      sload\n      dup2\n      lt\n      tag_133\n      jumpi\n      tag_134\n      tag_83\n      jump\t// in\n    tag_134:\n    tag_133:\n      swap1\n      0x00\n      mstore\n      keccak256(0x00, 0x20)\n      add\n        /* \"DeliveryHiringRO.sol\":2033:2109  isOperationLimitReached(_accessDateTime, timeInterval[0], operationLimit[0]) */\n      mload(0x40)\n      dup1\n      0x40\n      add\n      0x40\n      mstore\n      swap1\n      dup2\n      0x00\n      dup3\n      add\n      0x00\n      swap1\n      sload\n      swap1\n      0x0100\n      exp\n      swap1\n      div\n      0xffffffff\n      and\n      0xffffffff\n      and\n      0xffffffff\n      and\n      dup2\n      mstore\n      0x20\n      add\n      0x00\n      dup3\n      add\n      0x04\n      swap1\n      sload\n      swap1\n      0x0100\n      exp\n      swap1\n      div\n      0xffffffff\n      and\n      0xffffffff\n      and\n      0xffffffff\n      and\n      dup2\n      mstore\n      pop\n      pop\n        /* \"DeliveryHiringRO.sol\":2091:2105  operationLimit */\n      0x07\n        /* \"DeliveryHiringRO.sol\":2106:2107  0 */\n      0x00\n        /* \"DeliveryHiringRO.sol\":2091:2108  operationLimit[0] */\n      dup2\n      sload\n      dup2\n      lt\n      tag_136\n      jumpi\n      tag_137\n      tag_83\n      jump\t// in\n    tag_137:\n    tag_136:\n      swap1\n      0x00\n      mstore\n      keccak256(0x00, 0x20)\n      swap1\n      0x04\n      mul\n      add\n        /* \"DeliveryHiringRO.sol\":2033:2109  isOperationLimitReached(_accessDateTime, timeInterval[0], operationLimit[0]) */\n      mload(0x40)\n      dup1\n      0x80\n      add\n      0x40\n      mstore\n      swap1\n      dup2\n      0x00\n      dup3\n      add\n      sload\n      dup2\n      mstore\n      0x20\n      add\n      0x01\n      dup3\n      add\n      sload\n      dup2\n      mstore\n      0x20\n      add\n      0x02\n      dup3\n      add\n      sload\n      dup2\n      mstore\n      0x20\n      add\n      0x03\n      dup3\n      add\n      sload\n      dup2\n      mstore\n      pop\n      pop\n        /* \"DeliveryHiringRO.sol\":2033:2056  isOperationLimitReached */\n      tag_139\n        /* \"DeliveryHiringRO.sol\":2033:2109  isOperationLimitReached(_accessDateTime, timeInterval[0], operationLimit[0]) */\n      jump\t// in\n    tag_132:\n        /* \"DeliveryHiringRO.sol\":2032:2109  !isOperationLimitReached(_accessDateTime, timeInterval[0], operationLimit[0]) */\n      iszero\n        /* \"DeliveryHiringRO.sol\":1920:2109  isBusinessDay(_accessDateTime, businessDay[0]) && \r... */\n    tag_131:\n        /* \"DeliveryHiringRO.sol\":1920:2182  isBusinessDay(_accessDateTime, businessDay[0]) && \r... */\n      dup1\n      iszero\n      tag_140\n      jumpi\n      pop\n        /* \"DeliveryHiringRO.sol\":2115:2182  evaluateMessageContent(messageContent_request[0], _xPathContent[0]) */\n      tag_141\n        /* \"DeliveryHiringRO.sol\":2138:2160  messageContent_request */\n      0x08\n        /* \"DeliveryHiringRO.sol\":2161:2162  0 */\n      0x00\n        /* \"DeliveryHiringRO.sol\":2138:2163  messageContent_request[0] */\n      dup2\n      sload\n      dup2\n      lt\n      tag_142\n      jumpi\n      tag_143\n      tag_83\n      jump\t// in\n    tag_143:\n    tag_142:\n      swap1\n      0x00\n      mstore\n      keccak256(0x00, 0x20)\n      swap1\n      0x06\n      mul\n      add\n        /* \"DeliveryHiringRO.sol\":2115:2182  evaluateMessageContent(messageContent_request[0], _xPathContent[0]) */\n      mload(0x40)\n      dup1\n      0xc0\n      add\n      0x40\n      mstore\n      swap1\n      dup2\n      0x00\n      dup3\n      add\n      dup1\n      sload\n      tag_145\n      swap1\n      tag_57\n      jump\t// in\n    tag_145:\n      dup1\n      0x1f\n      add\n      0x20\n      dup1\n      swap2\n      div\n      mul\n      0x20\n      add\n      mload(0x40)\n      swap1\n      dup2\n      add\n      0x40\n      mstore\n      dup1\n      swap3\n      swap2\n      swap1\n      dup2\n      dup2\n      mstore\n      0x20\n      add\n      dup3\n      dup1\n      sload\n      tag_146\n      swap1\n      tag_57\n      jump\t// in\n    tag_146:\n      dup1\n      iszero\n      tag_147\n      jumpi\n      dup1\n      0x1f\n      lt\n      tag_148\n      jumpi\n      0x0100\n      dup1\n      dup4\n      sload\n      div\n      mul\n      dup4\n      mstore\n      swap2\n      0x20\n      add\n      swap2\n      jump(tag_147)\n    tag_148:\n      dup3\n      add\n      swap2\n      swap1\n      0x00\n      mstore\n      keccak256(0x00, 0x20)\n      swap1\n    tag_149:\n      dup2\n      sload\n      dup2\n      mstore\n      swap1\n      0x01\n      add\n      swap1\n      0x20\n      add\n      dup1\n      dup4\n      gt\n      tag_149\n      jumpi\n      dup3\n      swap1\n      sub\n      0x1f\n      and\n      dup3\n      add\n      swap2\n    tag_147:\n      pop\n      pop\n      pop\n      pop\n      pop\n      dup2\n      mstore\n      0x20\n      add\n      0x01\n      dup3\n      add\n      dup1\n      sload\n      tag_150\n      swap1\n      tag_57\n      jump\t// in\n    tag_150:\n      dup1\n      0x1f\n      add\n      0x20\n      dup1\n      swap2\n      div\n      mul\n      0x20\n      add\n      mload(0x40)\n      swap1\n      dup2\n      add\n      0x40\n      mstore\n      dup1\n      swap3\n      swap2\n      swap1\n      dup2\n      dup2\n      mstore\n      0x20\n      add\n      dup3\n      dup1\n      sload\n      tag_151\n      swap1\n      tag_57\n      jump\t// in\n    tag_151:\n      dup1\n      iszero\n      tag_152\n      jumpi\n      dup1\n      0x1f\n      lt\n      tag_153\n      jumpi\n      0x0100\n      dup1\n      dup4\n      sload\n      div\n      mul\n      dup4\n      mstore\n      swap2\n      0x20\n      add\n      swap2\n      jump(tag_152)\n    tag_153:\n      dup3\n      add\n      swap2\n      swap1\n      0x00\n      mstore\n      keccak256(0x00, 0x20)\n      swap1\n    tag_154:\n      dup2\n      sload\n      dup2\n      mstore\n      swap1\n      0x01\n      add\n      swap1\n      0x20\n      add\n      dup1\n      dup4\n      gt\n      tag_154\n      jumpi\n      dup3\n      swap1\n      sub\n      0x1f\n      and\n      dup3\n      add\n      swap2\n    tag_152:\n      pop\n      pop\n      pop\n      pop\n      pop\n      dup2\n      mstore\n      0x20\n      add\n      0x02\n      dup3\n      add\n      dup1\n      sload\n      tag_155\n      swap1\n      tag_57\n      jump\t// in\n    tag_155:\n      dup1\n      0x1f\n      add\n      0x20\n      dup1\n      swap2\n      div\n      mul\n      0x20\n      add\n      mload(0x40)\n      swap1\n      dup2\n      add\n      0x40\n      mstore\n      dup1\n      swap3\n      swap2\n      swap1\n      dup2\n      dup2\n      mstore\n      0x20\n      add\n      dup3\n      dup1\n      sload\n      tag_156\n      swap1\n      tag_57\n      jump\t// in\n    tag_156:\n      dup1\n      iszero\n      tag_157\n      jumpi\n      dup1\n      0x1f\n      lt\n      tag_158\n      jumpi\n      0x0100\n      dup1\n      dup4\n      sload\n      div\n      mul\n      dup4\n      mstore\n      swap2\n      0x20\n      add\n      swap2\n      jump(tag_157)\n    tag_158:\n      dup3\n      add\n      swap2\n      swap1\n      0x00\n      mstore\n      keccak256(0x00, 0x20)\n      swap1\n    tag_159:\n      dup2\n      sload\n      dup2\n      mstore\n      swap1\n      0x01\n      add\n      swap1\n      0x20\n      add\n      dup1\n      dup4\n      gt\n      tag_159\n      jumpi\n      dup3\n      swap1\n      sub\n      0x1f\n      and\n      dup3\n      add\n      swap2\n    tag_157:\n      pop\n      pop\n      pop\n      pop\n      pop\n      dup2\n      mstore\n      0x20\n      add\n      0x03\n      dup3\n      add\n      sload\n      dup2\n      mstore\n      0x20\n      add\n      0x04\n      dup3\n      add\n      sload\n      dup2\n      mstore\n      0x20\n      add\n      0x05\n      dup3\n      add\n      sload\n      dup2\n      mstore\n      pop\n      pop\n        /* \"DeliveryHiringRO.sol\":2165:2178  _xPathContent */\n      dup5\n        /* \"DeliveryHiringRO.sol\":2179:2180  0 */\n      0x00\n        /* \"DeliveryHiringRO.sol\":2165:2181  _xPathContent[0] */\n      dup2\n      mload\n      dup2\n      lt\n      tag_160\n      jumpi\n      tag_161\n      tag_83\n      jump\t// in\n    tag_161:\n    tag_160:\n      0x20\n      mul\n      0x20\n      add\n      add\n      mload\n        /* \"DeliveryHiringRO.sol\":2115:2137  evaluateMessageContent */\n      tag_108\n        /* \"DeliveryHiringRO.sol\":2115:2182  evaluateMessageContent(messageContent_request[0], _xPathContent[0]) */\n      jump\t// in\n    tag_141:\n        /* \"DeliveryHiringRO.sol\":1920:2182  isBusinessDay(_accessDateTime, businessDay[0]) && \r... */\n    tag_140:\n        /* \"DeliveryHiringRO.sol\":1920:2255  isBusinessDay(_accessDateTime, businessDay[0]) && \r... */\n      dup1\n      iszero\n      tag_162\n      jumpi\n      pop\n        /* \"DeliveryHiringRO.sol\":2188:2255  evaluateMessageContent(messageContent_request[1], _xPathContent[1]) */\n      tag_163\n        /* \"DeliveryHiringRO.sol\":2211:2233  messageContent_request */\n      0x08\n        /* \"DeliveryHiringRO.sol\":2234:2235  1 */\n      0x01\n        /* \"DeliveryHiringRO.sol\":2211:2236  messageContent_request[1] */\n      dup2\n      sload\n      dup2\n      lt\n      tag_164\n      jumpi\n      tag_165\n      tag_83\n      jump\t// in\n    tag_165:\n    tag_164:\n      swap1\n      0x00\n      mstore\n      keccak256(0x00, 0x20)\n      swap1\n      0x06\n      mul\n      add\n        /* \"DeliveryHiringRO.sol\":2188:2255  evaluateMessageContent(messageContent_request[1], _xPathContent[1]) */\n      mload(0x40)\n      dup1\n      0xc0\n      add\n      0x40\n      mstore\n      swap1\n      dup2\n      0x00\n      dup3\n      add\n      dup1\n      sload\n      tag_167\n      swap1\n      tag_57\n      jump\t// in\n    tag_167:\n      dup1\n      0x1f\n      add\n      0x20\n      dup1\n      swap2\n      div\n      mul\n      0x20\n      add\n      mload(0x40)\n      swap1\n      dup2\n      add\n      0x40\n      mstore\n      dup1\n      swap3\n      swap2\n      swap1\n      dup2\n      dup2\n      mstore\n      0x20\n      add\n      dup3\n      dup1\n      sload\n      tag_168\n      swap1\n      tag_57\n      jump\t// in\n    tag_168:\n      dup1\n      iszero\n      tag_169\n      jumpi\n      dup1\n      0x1f\n      lt\n      tag_170\n      jumpi\n      0x0100\n      dup1\n      dup4\n      sload\n      div\n      mul\n      dup4\n      mstore\n      swap2\n      0x20\n      add\n      swap2\n      jump(tag_169)\n    tag_170:\n      dup3\n      add\n      swap2\n      swap1\n      0x00\n      mstore\n      keccak256(0x00, 0x20)\n      swap1\n    tag_171:\n      dup2\n      sload\n      dup2\n      mstore\n      swap1\n      0x01\n      add\n      swap1\n      0x20\n      add\n      dup1\n      dup4\n      gt\n      tag_171\n      jumpi\n      dup3\n      swap1\n      sub\n      0x1f\n      and\n      dup3\n      add\n      swap2\n    tag_169:\n      pop\n      pop\n      pop\n      pop\n      pop\n      dup2\n      mstore\n      0x20\n      add\n      0x01\n      dup3\n      add\n      dup1\n      sload\n      tag_172\n      swap1\n      tag_57\n      jump\t// in\n    tag_172:\n      dup1\n      0x1f\n      add\n      0x20\n      dup1\n      swap2\n      div\n      mul\n      0x20\n      add\n      mload(0x40)\n      swap1\n      dup2\n      add\n      0x40\n      mstore\n      dup1\n      swap3\n      swap2\n      swap1\n      dup2\n      dup2\n      mstore\n      0x20\n      add\n      dup3\n      dup1\n      sload\n      tag_173\n      swap1\n      tag_57\n      jump\t// in\n    tag_173:\n      dup1\n      iszero\n      tag_174\n      jumpi\n      dup1\n      0x1f\n      lt\n      tag_175\n      jumpi\n      0x0100\n      dup1\n      dup4\n      sload\n      div\n      mul\n      dup4\n      mstore\n      swap2\n      0x20\n      add\n      swap2\n      jump(tag_174)\n    tag_175:\n      dup3\n      add\n      swap2\n      swap1\n      0x00\n      mstore\n      keccak256(0x00, 0x20)\n      swap1\n    tag_176:\n      dup2\n      sload\n      dup2\n      mstore\n      swap1\n      0x01\n      add\n      swap1\n      0x20\n      add\n      dup1\n      dup4\n      gt\n      tag_176\n      jumpi\n      dup3\n      swap1\n      sub\n      0x1f\n      and\n      dup3\n      add\n      swap2\n    tag_174:\n      pop\n      pop\n      pop\n      pop\n      pop\n      dup2\n      mstore\n      0x20\n      add\n      0x02\n      dup3\n      add\n      dup1\n      sload\n      tag_177\n      swap1\n      tag_57\n      jump\t// in\n    tag_177:\n      dup1\n      0x1f\n      add\n      0x20\n      dup1\n      swap2\n      div\n      mul\n      0x20\n      add\n      mload(0x40)\n      swap1\n      dup2\n      add\n      0x40\n      mstore\n      dup1\n      swap3\n      swap2\n      swap1\n      dup2\n      dup2\n      mstore\n      0x20\n      add\n      dup3\n      dup1\n      sload\n      tag_178\n      swap1\n      tag_57\n      jump\t// in\n    tag_178:\n      dup1\n      iszero\n      tag_179\n      jumpi\n      dup1\n      0x1f\n      lt\n      tag_180\n      jumpi\n      0x0100\n      dup1\n      dup4\n      sload\n      div\n      mul\n      dup4\n      mstore\n      swap2\n      0x20\n      add\n      swap2\n      jump(tag_179)\n    tag_180:\n      dup3\n      add\n      swap2\n      swap1\n      0x00\n      mstore\n      keccak256(0x00, 0x20)\n      swap1\n    tag_181:\n      dup2\n      sload\n      dup2\n      mstore\n      swap1\n      0x01\n      add\n      swap1\n      0x20\n      add\n      dup1\n      dup4\n      gt\n      tag_181\n      jumpi\n      dup3\n      swap1\n      sub\n      0x1f\n      and\n      dup3\n      add\n      swap2\n    tag_179:\n      pop\n      pop\n      pop\n      pop\n      pop\n      dup2\n      mstore\n      0x20\n      add\n      0x03\n      dup3\n      add\n      sload\n      dup2\n      mstore\n      0x20\n      add\n      0x04\n      dup3\n      add\n      sload\n      dup2\n      mstore\n      0x20\n      add\n      0x05\n      dup3\n      add\n      sload\n      dup2\n      mstore\n      pop\n      pop\n        /* \"DeliveryHiringRO.sol\":2238:2251  _xPathContent */\n      dup5\n        /* \"DeliveryHiringRO.sol\":2252:2253  1 */\n      0x01\n        /* \"DeliveryHiringRO.sol\":2238:2254  _xPathContent[1] */\n      dup2\n      mload\n      dup2\n      lt\n      tag_182\n      jumpi\n      tag_183\n      tag_83\n      jump\t// in\n    tag_183:\n    tag_182:\n      0x20\n      mul\n      0x20\n      add\n      add\n      mload\n        /* \"DeliveryHiringRO.sol\":2188:2210  evaluateMessageContent */\n      tag_108\n        /* \"DeliveryHiringRO.sol\":2188:2255  evaluateMessageContent(messageContent_request[1], _xPathContent[1]) */\n      jump\t// in\n    tag_163:\n        /* \"DeliveryHiringRO.sol\":1920:2255  isBusinessDay(_accessDateTime, businessDay[0]) && \r... */\n    tag_162:\n        /* \"DeliveryHiringRO.sol\":1920:2328  isBusinessDay(_accessDateTime, businessDay[0]) && \r... */\n      dup1\n      iszero\n      tag_184\n      jumpi\n      pop\n        /* \"DeliveryHiringRO.sol\":2261:2328  evaluateMessageContent(messageContent_request[2], _xPathContent[2]) */\n      tag_185\n        /* \"DeliveryHiringRO.sol\":2284:2306  messageContent_request */\n      0x08\n        /* \"DeliveryHiringRO.sol\":2307:2308  2 */\n      0x02\n        /* \"DeliveryHiringRO.sol\":2284:2309  messageContent_request[2] */\n      dup2\n      sload\n      dup2\n      lt\n      tag_186\n      jumpi\n      tag_187\n      tag_83\n      jump\t// in\n    tag_187:\n    tag_186:\n      swap1\n      0x00\n      mstore\n      keccak256(0x00, 0x20)\n      swap1\n      0x06\n      mul\n      add\n        /* \"DeliveryHiringRO.sol\":2261:2328  evaluateMessageContent(messageContent_request[2], _xPathContent[2]) */\n      mload(0x40)\n      dup1\n      0xc0\n      add\n      0x40\n      mstore\n      swap1\n      dup2\n      0x00\n      dup3\n      add\n      dup1\n      sload\n      tag_189\n      swap1\n      tag_57\n      jump\t// in\n    tag_189:\n      dup1\n      0x1f\n      add\n      0x20\n      dup1\n      swap2\n      div\n      mul\n      0x20\n      add\n      mload(0x40)\n      swap1\n      dup2\n      add\n      0x40\n      mstore\n      dup1\n      swap3\n      swap2\n      swap1\n      dup2\n      dup2\n      mstore\n      0x20\n      add\n      dup3\n      dup1\n      sload\n      tag_190\n      swap1\n      tag_57\n      jump\t// in\n    tag_190:\n      dup1\n      iszero\n      tag_191\n      jumpi\n      dup1\n      0x1f\n      lt\n      tag_192\n      jumpi\n      0x0100\n      dup1\n      dup4\n      sload\n      div\n      mul\n      dup4\n      mstore\n      swap2\n      0x20\n      add\n      swap2\n      jump(tag_191)\n    tag_192:\n      dup3\n      add\n      swap2\n      swap1\n      0x00\n      mstore\n      keccak256(0x00, 0x20)\n      swap1\n    tag_193:\n      dup2\n      sload\n      dup2\n      mstore\n      swap1\n      0x01\n      add\n      swap1\n      0x20\n      add\n      dup1\n      dup4\n      gt\n      tag_193\n      jumpi\n      dup3\n      swap1\n      sub\n      0x1f\n      and\n      dup3\n      add\n      swap2\n    tag_191:\n      pop\n      pop\n      pop\n      pop\n      pop\n      dup2\n      mstore\n      0x20\n      add\n      0x01\n      dup3\n      add\n      dup1\n      sload\n      tag_194\n      swap1\n      tag_57\n      jump\t// in\n    tag_194:\n      dup1\n      0x1f\n      add\n      0x20\n      dup1\n      swap2\n      div\n      mul\n      0x20\n      add\n      mload(0x40)\n      swap1\n      dup2\n      add\n      0x40\n      mstore\n      dup1\n      swap3\n      swap2\n      swap1\n      dup2\n      dup2\n      mstore\n      0x20\n      add\n      dup3\n      dup1\n      sload\n      tag_195\n      swap1\n      tag_57\n      jump\t// in\n    tag_195:\n      dup1\n      iszero\n      tag_196\n      jumpi\n      dup1\n      0x1f\n      lt\n      tag_197\n      jumpi\n      0x0100\n      dup1\n      dup4\n      sload\n      div\n      mul\n      dup4\n      mstore\n      swap2\n      0x20\n      add\n      swap2\n      jump(tag_196)\n    tag_197:\n      dup3\n      add\n      swap2\n      swap1\n      0x00\n      mstore\n      keccak256(0x00, 0x20)\n      swap1\n    tag_198:\n      dup2\n      sload\n      dup2\n      mstore\n      swap1\n      0x01\n      add\n      swap1\n      0x20\n      add\n      dup1\n      dup4\n      gt\n      tag_198\n      jumpi\n      dup3\n      swap1\n      sub\n      0x1f\n      and\n      dup3\n      add\n      swap2\n    tag_196:\n      pop\n      pop\n      pop\n      pop\n      pop\n      dup2\n      mstore\n      0x20\n      add\n      0x02\n      dup3\n      add\n      dup1\n      sload\n      tag_199\n      swap1\n      tag_57\n      jump\t// in\n    tag_199:\n      dup1\n      0x1f\n      add\n      0x20\n      dup1\n      swap2\n      div\n      mul\n      0x20\n      add\n      mload(0x40)\n      swap1\n      dup2\n      add\n      0x40\n      mstore\n      dup1\n      swap3\n      swap2\n      swap1\n      dup2\n      dup2\n      mstore\n      0x20\n      add\n      dup3\n      dup1\n      sload\n      tag_200\n      swap1\n      tag_57\n      jump\t// in\n    tag_200:\n      dup1\n      iszero\n      tag_201\n      jumpi\n      dup1\n      0x1f\n      lt\n      tag_202\n      jumpi\n      0x0100\n      dup1\n      dup4\n      sload\n      div\n      mul\n      dup4\n      mstore\n      swap2\n      0x20\n      add\n      swap2\n      jump(tag_201)\n    tag_202:\n      dup3\n      add\n      swap2\n      swap1\n      0x00\n      mstore\n      keccak256(0x00, 0x20)\n      swap1\n    tag_203:\n      dup2\n      sload\n      dup2\n      mstore\n      swap1\n      0x01\n      add\n      swap1\n      0x20\n      add\n      dup1\n      dup4\n      gt\n      tag_203\n      jumpi\n      dup3\n      swap1\n      sub\n      0x1f\n      and\n      dup3\n      add\n      swap2\n    tag_201:\n      pop\n      pop\n      pop\n      pop\n      pop\n      dup2\n      mstore\n      0x20\n      add\n      0x03\n      dup3\n      add\n      sload\n      dup2\n      mstore\n      0x20\n      add\n      0x04\n      dup3\n      add\n      sload\n      dup2\n      mstore\n      0x20\n      add\n      0x05\n      dup3\n      add\n      sload\n      dup2\n      mstore\n      pop\n      pop\n        /* \"DeliveryHiringRO.sol\":2311:2324  _xPathContent */\n      dup5\n        /* \"DeliveryHiringRO.sol\":2325:2326  2 */\n      0x02\n        /* \"DeliveryHiringRO.sol\":2311:2327  _xPathContent[2] */\n      dup2\n      mload\n      dup2\n      lt\n      tag_204\n      jumpi\n      tag_205\n      tag_83\n      jump\t// in\n    tag_205:\n    tag_204:\n      0x20\n      mul\n      0x20\n      add\n      add\n      mload\n        /* \"DeliveryHiringRO.sol\":2261:2283  evaluateMessageContent */\n      tag_108\n        /* \"DeliveryHiringRO.sol\":2261:2328  evaluateMessageContent(messageContent_request[2], _xPathContent[2]) */\n      jump\t// in\n    tag_185:\n        /* \"DeliveryHiringRO.sol\":1920:2328  isBusinessDay(_accessDateTime, businessDay[0]) && \r... */\n    tag_184:\n        /* \"DeliveryHiringRO.sol\":1917:2444  if(isBusinessDay(_accessDateTime, businessDay[0]) && \r... */\n      iszero\n      tag_206\n      jumpi\n        /* \"DeliveryHiringRO.sol\":2360:2418  setEndTimeInTimeOut(_accessDateTime, timeout[0].increment) */\n      tag_207\n        /* \"DeliveryHiringRO.sol\":2380:2395  _accessDateTime */\n      dup5\n        /* \"DeliveryHiringRO.sol\":2397:2404  timeout */\n      0x09\n        /* \"DeliveryHiringRO.sol\":2405:2406  0 */\n      0x00\n        /* \"DeliveryHiringRO.sol\":2397:2407  timeout[0] */\n      dup2\n      sload\n      dup2\n      lt\n      tag_208\n      jumpi\n      tag_209\n      tag_83\n      jump\t// in\n    tag_209:\n    tag_208:\n      swap1\n      0x00\n      mstore\n      keccak256(0x00, 0x20)\n      add\n        /* \"DeliveryHiringRO.sol\":2397:2417  timeout[0].increment */\n      0x00\n      add\n      0x00\n      swap1\n      sload\n      swap1\n      0x0100\n      exp\n      swap1\n      div\n      0xffffffff\n      and\n        /* \"DeliveryHiringRO.sol\":2360:2379  setEndTimeInTimeOut */\n      tag_211\n        /* \"DeliveryHiringRO.sol\":2360:2418  setEndTimeInTimeOut(_accessDateTime, timeout[0].increment) */\n      jump\t// in\n    tag_207:\n        /* \"DeliveryHiringRO.sol\":2339:2346  timeout */\n      0x09\n        /* \"DeliveryHiringRO.sol\":2347:2348  0 */\n      0x00\n        /* \"DeliveryHiringRO.sol\":2339:2349  timeout[0] */\n      dup2\n      sload\n      dup2\n      lt\n      tag_212\n      jumpi\n      tag_213\n      tag_83\n      jump\t// in\n    tag_213:\n    tag_212:\n      swap1\n      0x00\n      mstore\n      keccak256(0x00, 0x20)\n      add\n        /* \"DeliveryHiringRO.sol\":2339:2357  timeout[0].endTime */\n      0x00\n      add\n      0x04\n        /* \"DeliveryHiringRO.sol\":2339:2418  timeout[0].endTime = setEndTimeInTimeOut(_accessDateTime, timeout[0].increment) */\n      0x0100\n      exp\n      dup2\n      sload\n      dup2\n      0xffffffff\n      mul\n      not\n      and\n      swap1\n      dup4\n      0xffffffff\n      and\n      mul\n      or\n      swap1\n      sstore\n      pop\n        /* \"DeliveryHiringRO.sol\":2434:2438  true */\n      0x01\n        /* \"DeliveryHiringRO.sol\":2427:2438  return true */\n      swap1\n      pop\n      jump(tag_117)\n        /* \"DeliveryHiringRO.sol\":1917:2444  if(isBusinessDay(_accessDateTime, businessDay[0]) && \r... */\n    tag_206:\n        /* \"DeliveryHiringRO.sol\":2458:2551  failEvent(\"Request operation performed outside of allowed hours or limit operation exceeded\") */\n      0x66091b7dc2b097c8f60d5cd6aa99633b097f08d2eb1056f3e15361b22e0ea2ba\n      mload(0x40)\n      tag_215\n      swap1\n      tag_216\n      jump\t// in\n    tag_215:\n      mload(0x40)\n      dup1\n      swap2\n      sub\n      swap1\n      log1\n        /* \"DeliveryHiringRO.sol\":2566:2571  false */\n      0x00\n        /* \"DeliveryHiringRO.sol\":2559:2571  return false */\n      swap1\n      pop\n        /* \"DeliveryHiringRO.sol\":1676:2576  function requestDelivery(uint32 _accessDateTime, string[] memory _xPathContent, address _performer) public returns(bool){\r... */\n    tag_117:\n      swap4\n      swap3\n      pop\n      pop\n      pop\n      jump\t// out\n        /* \"DeliveryHiringRO.sol\":324:358  TimeInterval[] public timeInterval */\n    tag_46:\n      0x06\n      dup2\n      dup2\n      sload\n      dup2\n      lt\n      tag_217\n      jumpi\n      0x00\n      dup1\n      revert\n    tag_217:\n      swap1\n      0x00\n      mstore\n      keccak256(0x00, 0x20)\n      add\n      0x00\n      swap2\n      pop\n      swap1\n      pop\n      dup1\n      0x00\n      add\n      0x00\n      swap1\n      sload\n      swap1\n      0x0100\n      exp\n      swap1\n      div\n      0xffffffff\n      and\n      swap1\n      dup1\n      0x00\n      add\n      0x04\n      swap1\n      sload\n      swap1\n      0x0100\n      exp\n      swap1\n      div\n      0xffffffff\n      and\n      swap1\n      pop\n      dup3\n      jump\t// out\n        /* \"DeliveryHiringRO.sol\":538:585  MessageContent[] public messageContent_response */\n    tag_50:\n      0x0a\n      dup2\n      dup2\n      sload\n      dup2\n      lt\n      tag_219\n      jumpi\n      0x00\n      dup1\n      revert\n    tag_219:\n      swap1\n      0x00\n      mstore\n      keccak256(0x00, 0x20)\n      swap1\n      0x06\n      mul\n      add\n      0x00\n      swap2\n      pop\n      swap1\n      pop\n      dup1\n      0x00\n      add\n      dup1\n      sload\n      tag_221\n      swap1\n      tag_57\n      jump\t// in\n    tag_221:\n      dup1\n      0x1f\n      add\n      0x20\n      dup1\n      swap2\n      div\n      mul\n      0x20\n      add\n      mload(0x40)\n      swap1\n      dup2\n      add\n      0x40\n      mstore\n      dup1\n      swap3\n      swap2\n      swap1\n      dup2\n      dup2\n      mstore\n      0x20\n      add\n      dup3\n      dup1\n      sload\n      tag_222\n      swap1\n      tag_57\n      jump\t// in\n    tag_222:\n      dup1\n      iszero\n      tag_223\n      jumpi\n      dup1\n      0x1f\n      lt\n      tag_224\n      jumpi\n      0x0100\n      dup1\n      dup4\n      sload\n      div\n      mul\n      dup4\n      mstore\n      swap2\n      0x20\n      add\n      swap2\n      jump(tag_223)\n    tag_224:\n      dup3\n      add\n      swap2\n      swap1\n      0x00\n      mstore\n      keccak256(0x00, 0x20)\n      swap1\n    tag_225:\n      dup2\n      sload\n      dup2\n      mstore\n      swap1\n      0x01\n      add\n      swap1\n      0x20\n      add\n      dup1\n      dup4\n      gt\n      tag_225\n      jumpi\n      dup3\n      swap1\n      sub\n      0x1f\n      and\n      dup3\n      add\n      swap2\n    tag_223:\n      pop\n      pop\n      pop\n      pop\n      pop\n      swap1\n      dup1\n      0x01\n      add\n      dup1\n      sload\n      tag_226\n      swap1\n      tag_57\n      jump\t// in\n    tag_226:\n      dup1\n      0x1f\n      add\n      0x20\n      dup1\n      swap2\n      div\n      mul\n      0x20\n      add\n      mload(0x40)\n      swap1\n      dup2\n      add\n      0x40\n      mstore\n      dup1\n      swap3\n      swap2\n      swap1\n      dup2\n      dup2\n      mstore\n      0x20\n      add\n      dup3\n      dup1\n      sload\n      tag_227\n      swap1\n      tag_57\n      jump\t// in\n    tag_227:\n      dup1\n      iszero\n      tag_228\n      jumpi\n      dup1\n      0x1f\n      lt\n      tag_229\n      jumpi\n      0x0100\n      dup1\n      dup4\n      sload\n      div\n      mul\n      dup4\n      mstore\n      swap2\n      0x20\n      add\n      swap2\n      jump(tag_228)\n    tag_229:\n      dup3\n      add\n      swap2\n      swap1\n      0x00\n      mstore\n      keccak256(0x00, 0x20)\n      swap1\n    tag_230:\n      dup2\n      sload\n      dup2\n      mstore\n      swap1\n      0x01\n      add\n      swap1\n      0x20\n      add\n      dup1\n      dup4\n      gt\n      tag_230\n      jumpi\n      dup3\n      swap1\n      sub\n      0x1f\n      and\n      dup3\n      add\n      swap2\n    tag_228:\n      pop\n      pop\n      pop\n      pop\n      pop\n      swap1\n      dup1\n      0x02\n      add\n      dup1\n      sload\n      tag_231\n      swap1\n      tag_57\n      jump\t// in\n    tag_231:\n      dup1\n      0x1f\n      add\n      0x20\n      dup1\n      swap2\n      div\n      mul\n      0x20\n      add\n      mload(0x40)\n      swap1\n      dup2\n      add\n      0x40\n      mstore\n      dup1\n      swap3\n      swap2\n      swap1\n      dup2\n      dup2\n      mstore\n      0x20\n      add\n      dup3\n      dup1\n      sload\n      tag_232\n      swap1\n      tag_57\n      jump\t// in\n    tag_232:\n      dup1\n      iszero\n      tag_233\n      jumpi\n      dup1\n      0x1f\n      lt\n      tag_234\n      jumpi\n      0x0100\n      dup1\n      dup4\n      sload\n      div\n      mul\n      dup4\n      mstore\n      swap2\n      0x20\n      add\n      swap2\n      jump(tag_233)\n    tag_234:\n      dup3\n      add\n      swap2\n      swap1\n      0x00\n      mstore\n      keccak256(0x00, 0x20)\n      swap1\n    tag_235:\n      dup2\n      sload\n      dup2\n      mstore\n      swap1\n      0x01\n      add\n      swap1\n      0x20\n      add\n      dup1\n      dup4\n      gt\n      tag_235\n      jumpi\n      dup3\n      swap1\n      sub\n      0x1f\n      and\n      dup3\n      add\n      swap2\n    tag_233:\n      pop\n      pop\n      pop\n      pop\n      pop\n      swap1\n      dup1\n      0x03\n      add\n      sload\n      swap1\n      dup1\n      0x04\n      add\n      sload\n      swap1\n      dup1\n      0x05\n      add\n      sload\n      swap1\n      pop\n      dup7\n      jump\t// out\n        /* \"libs/EAI_Domain.sol\":4606:4739  function isTimeout(uint32 _accessDateTime, uint32 _timeout)internal pure returns (bool) {\r... */\n    tag_85:\n        /* \"libs/EAI_Domain.sol\":4688:4692  bool */\n      0x00\n        /* \"libs/EAI_Domain.sol\":4727:4731  true */\n      0x01\n        /* \"libs/EAI_Domain.sol\":4720:4731  return true */\n      swap1\n      pop\n        /* \"libs/EAI_Domain.sol\":4606:4739  function isTimeout(uint32 _accessDateTime, uint32 _timeout)internal pure returns (bool) {\r... */\n      swap3\n      swap2\n      pop\n      pop\n      jump\t// out\n        /* \"libs/EAI_Domain.sol\":1487:1652  function evaluateMessageContent(MessageContent memory msgContent, string memory value ) internal pure returns (bool){\r... */\n    tag_108:\n        /* \"libs/EAI_Domain.sol\":1598:1602  bool */\n      0x00\n        /* \"libs/EAI_Domain.sol\":1639:1643  true */\n      0x01\n        /* \"libs/EAI_Domain.sol\":1632:1643  return true */\n      swap1\n      pop\n        /* \"libs/EAI_Domain.sol\":1487:1652  function evaluateMessageContent(MessageContent memory msgContent, string memory value ) internal pure returns (bool){\r... */\n      swap3\n      swap2\n      pop\n      pop\n      jump\t// out\n        /* \"libs/EAI_Domain.sol\":2537:2690  function isBusinessDay(uint32 _accessDateTime, BusinessDay storage businessDay)internal pure returns(bool){\r... */\n    tag_124:\n        /* \"libs/EAI_Domain.sol\":2638:2642  bool */\n      0x00\n        /* \"libs/EAI_Domain.sol\":2678:2682  true */\n      0x01\n        /* \"libs/EAI_Domain.sol\":2671:2682  return true */\n      swap1\n      pop\n        /* \"libs/EAI_Domain.sol\":2537:2690  function isBusinessDay(uint32 _accessDateTime, BusinessDay storage businessDay)internal pure returns(bool){\r... */\n      swap3\n      swap2\n      pop\n      pop\n      jump\t// out\n        /* \"libs/EAI_Domain.sol\":5181:5361  function isIntoTimeInterval(uint _accessTime, TimeInterval memory _businessTime) internal pure returns (bool) {\r... */\n    tag_130:\n        /* \"libs/EAI_Domain.sol\":5285:5289  bool */\n      0x00\n        /* \"libs/EAI_Domain.sol\":5181:5361  function isIntoTimeInterval(uint _accessTime, TimeInterval memory _businessTime) internal pure returns (bool) {\r... */\n      swap3\n      swap2\n      pop\n      pop\n      jump\t// out\n        /* \"libs/EAI_Domain.sol\":3033:3253  function isOperationLimitReached(uint32 _accessDateTime, TimeInterval memory timeInterval, OperationLimit memory operationLimit) internal pure returns(bool){\r... */\n    tag_139:\n        /* \"libs/EAI_Domain.sol\":3184:3188  bool */\n      0x00\n        /* \"libs/EAI_Domain.sol\":3033:3253  function isOperationLimitReached(uint32 _accessDateTime, TimeInterval memory timeInterval, OperationLimit memory operationLimit) internal pure returns(bool){\r... */\n      swap4\n      swap3\n      pop\n      pop\n      pop\n      jump\t// out\n        /* \"libs/EAI_Domain.sol\":4388:4598  function setEndTimeInTimeOut(uint32 _dataTime,  uint32  increment)internal pure returns(uint32){\r... */\n    tag_211:\n        /* \"libs/EAI_Domain.sol\":4476:4482  uint32 */\n      0x00\n        /* \"libs/EAI_Domain.sol\":4511:4520  increment */\n      dup2\n        /* \"libs/EAI_Domain.sol\":4501:4510  _dataTime */\n      dup4\n        /* \"libs/EAI_Domain.sol\":4501:4520  _dataTime+increment */\n      tag_242\n      swap2\n      swap1\n      tag_243\n      jump\t// in\n    tag_242:\n        /* \"libs/EAI_Domain.sol\":4494:4520  return _dataTime+increment */\n      swap1\n      pop\n        /* \"libs/EAI_Domain.sol\":4388:4598  function setEndTimeInTimeOut(uint32 _dataTime,  uint32  increment)internal pure returns(uint32){\r... */\n      swap3\n      swap2\n      pop\n      pop\n      jump\t// out\n        /* \"#utility.yul\":21:734   */\n    tag_245:\n        /* \"#utility.yul\":114:119   */\n      0x00\n        /* \"#utility.yul\":139:217   */\n      tag_247\n        /* \"#utility.yul\":155:216   */\n      tag_248\n        /* \"#utility.yul\":209:215   */\n      dup5\n        /* \"#utility.yul\":155:216   */\n      tag_249\n      jump\t// in\n    tag_248:\n        /* \"#utility.yul\":139:217   */\n      tag_250\n      jump\t// in\n    tag_247:\n        /* \"#utility.yul\":130:217   */\n      swap1\n      pop\n        /* \"#utility.yul\":237:242   */\n      dup1\n        /* \"#utility.yul\":266:272   */\n      dup4\n        /* \"#utility.yul\":259:264   */\n      dup3\n        /* \"#utility.yul\":252:273   */\n      mstore\n        /* \"#utility.yul\":300:304   */\n      0x20\n        /* \"#utility.yul\":293:298   */\n      dup3\n        /* \"#utility.yul\":289:305   */\n      add\n        /* \"#utility.yul\":282:305   */\n      swap1\n      pop\n        /* \"#utility.yul\":326:332   */\n      dup3\n        /* \"#utility.yul\":376:379   */\n      dup6\n        /* \"#utility.yul\":368:372   */\n      0x20\n        /* \"#utility.yul\":360:366   */\n      dup7\n        /* \"#utility.yul\":356:373   */\n      mul\n        /* \"#utility.yul\":351:354   */\n      dup3\n        /* \"#utility.yul\":347:374   */\n      add\n        /* \"#utility.yul\":344:380   */\n      gt\n        /* \"#utility.yul\":341:484   */\n      iszero\n      tag_251\n      jumpi\n        /* \"#utility.yul\":395:474   */\n      tag_252\n      tag_253\n      jump\t// in\n    tag_252:\n        /* \"#utility.yul\":341:484   */\n    tag_251:\n        /* \"#utility.yul\":508:509   */\n      0x00\n        /* \"#utility.yul\":493:728   */\n    tag_254:\n        /* \"#utility.yul\":518:524   */\n      dup6\n        /* \"#utility.yul\":515:516   */\n      dup2\n        /* \"#utility.yul\":512:525   */\n      lt\n        /* \"#utility.yul\":493:728   */\n      iszero\n      tag_256\n      jumpi\n        /* \"#utility.yul\":586:589   */\n      dup2\n        /* \"#utility.yul\":615:649   */\n      tag_257\n        /* \"#utility.yul\":645:648   */\n      dup9\n        /* \"#utility.yul\":633:643   */\n      dup3\n        /* \"#utility.yul\":615:649   */\n      tag_258\n      jump\t// in\n    tag_257:\n        /* \"#utility.yul\":610:613   */\n      dup5\n        /* \"#utility.yul\":603:650   */\n      mstore\n        /* \"#utility.yul\":679:683   */\n      0x20\n        /* \"#utility.yul\":674:677   */\n      dup5\n        /* \"#utility.yul\":670:684   */\n      add\n        /* \"#utility.yul\":663:684   */\n      swap4\n      pop\n        /* \"#utility.yul\":713:717   */\n      0x20\n        /* \"#utility.yul\":708:711   */\n      dup4\n        /* \"#utility.yul\":704:718   */\n      add\n        /* \"#utility.yul\":697:718   */\n      swap3\n      pop\n        /* \"#utility.yul\":553:728   */\n      pop\n        /* \"#utility.yul\":540:541   */\n      0x01\n        /* \"#utility.yul\":537:538   */\n      dup2\n        /* \"#utility.yul\":533:542   */\n      add\n        /* \"#utility.yul\":528:542   */\n      swap1\n      pop\n        /* \"#utility.yul\":493:728   */\n      jump(tag_254)\n    tag_256:\n        /* \"#utility.yul\":497:511   */\n      pop\n        /* \"#utility.yul\":120:734   */\n      pop\n      pop\n        /* \"#utility.yul\":21:734   */\n      swap4\n      swap3\n      pop\n      pop\n      pop\n      jump\t// out\n        /* \"#utility.yul\":756:1713   */\n    tag_259:\n        /* \"#utility.yul\":862:867   */\n      0x00\n        /* \"#utility.yul\":887:978   */\n      tag_261\n        /* \"#utility.yul\":903:977   */\n      tag_262\n        /* \"#utility.yul\":970:976   */\n      dup5\n        /* \"#utility.yul\":903:977   */\n      tag_263\n      jump\t// in\n    tag_262:\n        /* \"#utility.yul\":887:978   */\n      tag_250\n      jump\t// in\n    tag_261:\n        /* \"#utility.yul\":878:978   */\n      swap1\n      pop\n        /* \"#utility.yul\":998:1003   */\n      dup1\n        /* \"#utility.yul\":1027:1033   */\n      dup4\n        /* \"#utility.yul\":1020:1025   */\n      dup3\n        /* \"#utility.yul\":1013:1034   */\n      mstore\n        /* \"#utility.yul\":1061:1065   */\n      0x20\n        /* \"#utility.yul\":1054:1059   */\n      dup3\n        /* \"#utility.yul\":1050:1066   */\n      add\n        /* \"#utility.yul\":1043:1066   */\n      swap1\n      pop\n        /* \"#utility.yul\":1087:1093   */\n      dup3\n        /* \"#utility.yul\":1137:1140   */\n      dup6\n        /* \"#utility.yul\":1129:1133   */\n      0x20\n        /* \"#utility.yul\":1121:1127   */\n      dup7\n        /* \"#utility.yul\":1117:1134   */\n      mul\n        /* \"#utility.yul\":1112:1115   */\n      dup3\n        /* \"#utility.yul\":1108:1135   */\n      add\n        /* \"#utility.yul\":1105:1141   */\n      gt\n        /* \"#utility.yul\":1102:1245   */\n      iszero\n      tag_264\n      jumpi\n        /* \"#utility.yul\":1156:1235   */\n      tag_265\n      tag_253\n      jump\t// in\n    tag_265:\n        /* \"#utility.yul\":1102:1245   */\n    tag_264:\n        /* \"#utility.yul\":1269:1270   */\n      0x00\n        /* \"#utility.yul\":1254:1707   */\n    tag_266:\n        /* \"#utility.yul\":1279:1285   */\n      dup6\n        /* \"#utility.yul\":1276:1277   */\n      dup2\n        /* \"#utility.yul\":1273:1286   */\n      lt\n        /* \"#utility.yul\":1254:1707   */\n      iszero\n      tag_268\n      jumpi\n        /* \"#utility.yul\":1361:1364   */\n      dup2\n        /* \"#utility.yul\":1348:1365   */\n      calldataload\n        /* \"#utility.yul\":1397:1415   */\n      0xffffffffffffffff\n        /* \"#utility.yul\":1384:1395   */\n      dup2\n        /* \"#utility.yul\":1381:1416   */\n      gt\n        /* \"#utility.yul\":1378:1500   */\n      iszero\n      tag_269\n      jumpi\n        /* \"#utility.yul\":1419:1498   */\n      tag_270\n      tag_271\n      jump\t// in\n    tag_270:\n        /* \"#utility.yul\":1378:1500   */\n    tag_269:\n        /* \"#utility.yul\":1543:1554   */\n      dup1\n        /* \"#utility.yul\":1535:1541   */\n      dup7\n        /* \"#utility.yul\":1531:1555   */\n      add\n        /* \"#utility.yul\":1581:1628   */\n      tag_272\n        /* \"#utility.yul\":1624:1627   */\n      dup10\n        /* \"#utility.yul\":1612:1622   */\n      dup3\n        /* \"#utility.yul\":1581:1628   */\n      tag_273\n      jump\t// in\n    tag_272:\n        /* \"#utility.yul\":1576:1579   */\n      dup6\n        /* \"#utility.yul\":1569:1629   */\n      mstore\n        /* \"#utility.yul\":1658:1662   */\n      0x20\n        /* \"#utility.yul\":1653:1656   */\n      dup6\n        /* \"#utility.yul\":1649:1663   */\n      add\n        /* \"#utility.yul\":1642:1663   */\n      swap5\n      pop\n        /* \"#utility.yul\":1692:1696   */\n      0x20\n        /* \"#utility.yul\":1687:1690   */\n      dup5\n        /* \"#utility.yul\":1683:1697   */\n      add\n        /* \"#utility.yul\":1676:1697   */\n      swap4\n      pop\n        /* \"#utility.yul\":1314:1707   */\n      pop\n      pop\n        /* \"#utility.yul\":1301:1302   */\n      0x01\n        /* \"#utility.yul\":1298:1299   */\n      dup2\n        /* \"#utility.yul\":1294:1303   */\n      add\n        /* \"#utility.yul\":1289:1303   */\n      swap1\n      pop\n        /* \"#utility.yul\":1254:1707   */\n      jump(tag_266)\n    tag_268:\n        /* \"#utility.yul\":1258:1272   */\n      pop\n        /* \"#utility.yul\":868:1713   */\n      pop\n      pop\n        /* \"#utility.yul\":756:1713   */\n      swap4\n      swap3\n      pop\n      pop\n      pop\n      jump\t// out\n        /* \"#utility.yul\":1719:2131   */\n    tag_274:\n        /* \"#utility.yul\":1797:1802   */\n      0x00\n        /* \"#utility.yul\":1822:1888   */\n      tag_276\n        /* \"#utility.yul\":1838:1887   */\n      tag_277\n        /* \"#utility.yul\":1880:1886   */\n      dup5\n        /* \"#utility.yul\":1838:1887   */\n      tag_278\n      jump\t// in\n    tag_277:\n        /* \"#utility.yul\":1822:1888   */\n      tag_250\n      jump\t// in\n    tag_276:\n        /* \"#utility.yul\":1813:1888   */\n      swap1\n      pop\n        /* \"#utility.yul\":1911:1917   */\n      dup3\n        /* \"#utility.yul\":1904:1909   */\n      dup2\n        /* \"#utility.yul\":1897:1918   */\n      mstore\n        /* \"#utility.yul\":1949:1953   */\n      0x20\n        /* \"#utility.yul\":1942:1947   */\n      dup2\n        /* \"#utility.yul\":1938:1954   */\n      add\n        /* \"#utility.yul\":1987:1990   */\n      dup5\n        /* \"#utility.yul\":1978:1984   */\n      dup5\n        /* \"#utility.yul\":1973:1976   */\n      dup5\n        /* \"#utility.yul\":1969:1985   */\n      add\n        /* \"#utility.yul\":1966:1991   */\n      gt\n        /* \"#utility.yul\":1963:2075   */\n      iszero\n      tag_279\n      jumpi\n        /* \"#utility.yul\":1994:2073   */\n      tag_280\n      tag_281\n      jump\t// in\n    tag_280:\n        /* \"#utility.yul\":1963:2075   */\n    tag_279:\n        /* \"#utility.yul\":2084:2125   */\n      tag_282\n        /* \"#utility.yul\":2118:2124   */\n      dup5\n        /* \"#utility.yul\":2113:2116   */\n      dup3\n        /* \"#utility.yul\":2108:2111   */\n      dup6\n        /* \"#utility.yul\":2084:2125   */\n      tag_283\n      jump\t// in\n    tag_282:\n        /* \"#utility.yul\":1803:2131   */\n      pop\n        /* \"#utility.yul\":1719:2131   */\n      swap4\n      swap3\n      pop\n      pop\n      pop\n      jump\t// out\n        /* \"#utility.yul\":2137:2276   */\n    tag_284:\n        /* \"#utility.yul\":2183:2188   */\n      0x00\n        /* \"#utility.yul\":2221:2227   */\n      dup2\n        /* \"#utility.yul\":2208:2228   */\n      calldataload\n        /* \"#utility.yul\":2199:2228   */\n      swap1\n      pop\n        /* \"#utility.yul\":2237:2270   */\n      tag_286\n        /* \"#utility.yul\":2264:2269   */\n      dup2\n        /* \"#utility.yul\":2237:2270   */\n      tag_287\n      jump\t// in\n    tag_286:\n        /* \"#utility.yul\":2137:2276   */\n      swap3\n      swap2\n      pop\n      pop\n      jump\t// out\n        /* \"#utility.yul\":2296:2660   */\n    tag_288:\n        /* \"#utility.yul\":2364:2369   */\n      0x00\n        /* \"#utility.yul\":2413:2416   */\n      dup3\n        /* \"#utility.yul\":2406:2410   */\n      0x1f\n        /* \"#utility.yul\":2398:2404   */\n      dup4\n        /* \"#utility.yul\":2394:2411   */\n      add\n        /* \"#utility.yul\":2390:2417   */\n      slt\n        /* \"#utility.yul\":2380:2502   */\n      tag_290\n      jumpi\n        /* \"#utility.yul\":2421:2500   */\n      tag_291\n      tag_271\n      jump\t// in\n    tag_291:\n        /* \"#utility.yul\":2380:2502   */\n    tag_290:\n        /* \"#utility.yul\":2538:2544   */\n      dup2\n        /* \"#utility.yul\":2525:2545   */\n      calldataload\n        /* \"#utility.yul\":2563:2654   */\n      tag_292\n        /* \"#utility.yul\":2650:2653   */\n      dup5\n        /* \"#utility.yul\":2642:2648   */\n      dup3\n        /* \"#utility.yul\":2635:2639   */\n      0x20\n        /* \"#utility.yul\":2627:2633   */\n      dup7\n        /* \"#utility.yul\":2623:2640   */\n      add\n        /* \"#utility.yul\":2563:2654   */\n      tag_245\n      jump\t// in\n    tag_292:\n        /* \"#utility.yul\":2554:2654   */\n      swap2\n      pop\n        /* \"#utility.yul\":2370:2660   */\n      pop\n        /* \"#utility.yul\":2296:2660   */\n      swap3\n      swap2\n      pop\n      pop\n      jump\t// out\n        /* \"#utility.yul\":2682:3072   */\n    tag_293:\n        /* \"#utility.yul\":2763:2768   */\n      0x00\n        /* \"#utility.yul\":2812:2815   */\n      dup3\n        /* \"#utility.yul\":2805:2809   */\n      0x1f\n        /* \"#utility.yul\":2797:2803   */\n      dup4\n        /* \"#utility.yul\":2793:2810   */\n      add\n        /* \"#utility.yul\":2789:2816   */\n      slt\n        /* \"#utility.yul\":2779:2901   */\n      tag_295\n      jumpi\n        /* \"#utility.yul\":2820:2899   */\n      tag_296\n      tag_271\n      jump\t// in\n    tag_296:\n        /* \"#utility.yul\":2779:2901   */\n    tag_295:\n        /* \"#utility.yul\":2937:2943   */\n      dup2\n        /* \"#utility.yul\":2924:2944   */\n      calldataload\n        /* \"#utility.yul\":2962:3066   */\n      tag_297\n        /* \"#utility.yul\":3062:3065   */\n      dup5\n        /* \"#utility.yul\":3054:3060   */\n      dup3\n        /* \"#utility.yul\":3047:3051   */\n      0x20\n        /* \"#utility.yul\":3039:3045   */\n      dup7\n        /* \"#utility.yul\":3035:3052   */\n      add\n        /* \"#utility.yul\":2962:3066   */\n      tag_259\n      jump\t// in\n    tag_297:\n        /* \"#utility.yul\":2953:3066   */\n      swap2\n      pop\n        /* \"#utility.yul\":2769:3072   */\n      pop\n        /* \"#utility.yul\":2682:3072   */\n      swap3\n      swap2\n      pop\n      pop\n      jump\t// out\n        /* \"#utility.yul\":3078:3211   */\n    tag_258:\n        /* \"#utility.yul\":3121:3126   */\n      0x00\n        /* \"#utility.yul\":3159:3165   */\n      dup2\n        /* \"#utility.yul\":3146:3166   */\n      calldataload\n        /* \"#utility.yul\":3137:3166   */\n      swap1\n      pop\n        /* \"#utility.yul\":3175:3205   */\n      tag_299\n        /* \"#utility.yul\":3199:3204   */\n      dup2\n        /* \"#utility.yul\":3175:3205   */\n      tag_300\n      jump\t// in\n    tag_299:\n        /* \"#utility.yul\":3078:3211   */\n      swap3\n      swap2\n      pop\n      pop\n      jump\t// out\n        /* \"#utility.yul\":3231:3571   */\n    tag_273:\n        /* \"#utility.yul\":3287:3292   */\n      0x00\n        /* \"#utility.yul\":3336:3339   */\n      dup3\n        /* \"#utility.yul\":3329:3333   */\n      0x1f\n        /* \"#utility.yul\":3321:3327   */\n      dup4\n        /* \"#utility.yul\":3317:3334   */\n      add\n        /* \"#utility.yul\":3313:3340   */\n      slt\n        /* \"#utility.yul\":3303:3425   */\n      tag_302\n      jumpi\n        /* \"#utility.yul\":3344:3423   */\n      tag_303\n      tag_271\n      jump\t// in\n    tag_303:\n        /* \"#utility.yul\":3303:3425   */\n    tag_302:\n        /* \"#utility.yul\":3461:3467   */\n      dup2\n        /* \"#utility.yul\":3448:3468   */\n      calldataload\n        /* \"#utility.yul\":3486:3565   */\n      tag_304\n        /* \"#utility.yul\":3561:3564   */\n      dup5\n        /* \"#utility.yul\":3553:3559   */\n      dup3\n        /* \"#utility.yul\":3546:3550   */\n      0x20\n        /* \"#utility.yul\":3538:3544   */\n      dup7\n        /* \"#utility.yul\":3534:3551   */\n      add\n        /* \"#utility.yul\":3486:3565   */\n      tag_274\n      jump\t// in\n    tag_304:\n        /* \"#utility.yul\":3477:3565   */\n      swap2\n      pop\n        /* \"#utility.yul\":3293:3571   */\n      pop\n        /* \"#utility.yul\":3231:3571   */\n      swap3\n      swap2\n      pop\n      pop\n      jump\t// out\n        /* \"#utility.yul\":3577:3716   */\n    tag_305:\n        /* \"#utility.yul\":3623:3628   */\n      0x00\n        /* \"#utility.yul\":3661:3667   */\n      dup2\n        /* \"#utility.yul\":3648:3668   */\n      calldataload\n        /* \"#utility.yul\":3639:3668   */\n      swap1\n      pop\n        /* \"#utility.yul\":3677:3710   */\n      tag_307\n        /* \"#utility.yul\":3704:3709   */\n      dup2\n        /* \"#utility.yul\":3677:3710   */\n      tag_308\n      jump\t// in\n    tag_307:\n        /* \"#utility.yul\":3577:3716   */\n      swap3\n      swap2\n      pop\n      pop\n      jump\t// out\n        /* \"#utility.yul\":3722:3859   */\n    tag_309:\n        /* \"#utility.yul\":3767:3772   */\n      0x00\n        /* \"#utility.yul\":3805:3811   */\n      dup2\n        /* \"#utility.yul\":3792:3812   */\n      calldataload\n        /* \"#utility.yul\":3783:3812   */\n      swap1\n      pop\n        /* \"#utility.yul\":3821:3853   */\n      tag_311\n        /* \"#utility.yul\":3847:3852   */\n      dup2\n        /* \"#utility.yul\":3821:3853   */\n      tag_312\n      jump\t// in\n    tag_311:\n        /* \"#utility.yul\":3722:3859   */\n      swap3\n      swap2\n      pop\n      pop\n      jump\t// out\n        /* \"#utility.yul\":3865:4194   */\n    tag_14:\n        /* \"#utility.yul\":3924:3930   */\n      0x00\n        /* \"#utility.yul\":3973:3975   */\n      0x20\n        /* \"#utility.yul\":3961:3970   */\n      dup3\n        /* \"#utility.yul\":3952:3959   */\n      dup5\n        /* \"#utility.yul\":3948:3971   */\n      sub\n        /* \"#utility.yul\":3944:3976   */\n      slt\n        /* \"#utility.yul\":3941:4060   */\n      iszero\n      tag_314\n      jumpi\n        /* \"#utility.yul\":3979:4058   */\n      tag_315\n      tag_316\n      jump\t// in\n    tag_315:\n        /* \"#utility.yul\":3941:4060   */\n    tag_314:\n        /* \"#utility.yul\":4099:4100   */\n      0x00\n        /* \"#utility.yul\":4124:4177   */\n      tag_317\n        /* \"#utility.yul\":4169:4176   */\n      dup5\n        /* \"#utility.yul\":4160:4166   */\n      dup3\n        /* \"#utility.yul\":4149:4158   */\n      dup6\n        /* \"#utility.yul\":4145:4167   */\n      add\n        /* \"#utility.yul\":4124:4177   */\n      tag_305\n      jump\t// in\n    tag_317:\n        /* \"#utility.yul\":4114:4177   */\n      swap2\n      pop\n        /* \"#utility.yul\":4070:4187   */\n      pop\n        /* \"#utility.yul\":3865:4194   */\n      swap3\n      swap2\n      pop\n      pop\n      jump\t// out\n        /* \"#utility.yul\":4200:5047   */\n    tag_41:\n        /* \"#utility.yul\":4311:4317   */\n      0x00\n        /* \"#utility.yul\":4319:4325   */\n      dup1\n        /* \"#utility.yul\":4327:4333   */\n      0x00\n        /* \"#utility.yul\":4376:4378   */\n      0x60\n        /* \"#utility.yul\":4364:4373   */\n      dup5\n        /* \"#utility.yul\":4355:4362   */\n      dup7\n        /* \"#utility.yul\":4351:4374   */\n      sub\n        /* \"#utility.yul\":4347:4379   */\n      slt\n        /* \"#utility.yul\":4344:4463   */\n      iszero\n      tag_319\n      jumpi\n        /* \"#utility.yul\":4382:4461   */\n      tag_320\n      tag_316\n      jump\t// in\n    tag_320:\n        /* \"#utility.yul\":4344:4463   */\n    tag_319:\n        /* \"#utility.yul\":4502:4503   */\n      0x00\n        /* \"#utility.yul\":4527:4579   */\n      tag_321\n        /* \"#utility.yul\":4571:4578   */\n      dup7\n        /* \"#utility.yul\":4562:4568   */\n      dup3\n        /* \"#utility.yul\":4551:4560   */\n      dup8\n        /* \"#utility.yul\":4547:4569   */\n      add\n        /* \"#utility.yul\":4527:4579   */\n      tag_309\n      jump\t// in\n    tag_321:\n        /* \"#utility.yul\":4517:4579   */\n      swap4\n      pop\n        /* \"#utility.yul\":4473:4589   */\n      pop\n        /* \"#utility.yul\":4656:4658   */\n      0x20\n        /* \"#utility.yul\":4645:4654   */\n      dup5\n        /* \"#utility.yul\":4641:4659   */\n      add\n        /* \"#utility.yul\":4628:4660   */\n      calldataload\n        /* \"#utility.yul\":4687:4705   */\n      0xffffffffffffffff\n        /* \"#utility.yul\":4679:4685   */\n      dup2\n        /* \"#utility.yul\":4676:4706   */\n      gt\n        /* \"#utility.yul\":4673:4790   */\n      iszero\n      tag_322\n      jumpi\n        /* \"#utility.yul\":4709:4788   */\n      tag_323\n      tag_324\n      jump\t// in\n    tag_323:\n        /* \"#utility.yul\":4673:4790   */\n    tag_322:\n        /* \"#utility.yul\":4814:4902   */\n      tag_325\n        /* \"#utility.yul\":4894:4901   */\n      dup7\n        /* \"#utility.yul\":4885:4891   */\n      dup3\n        /* \"#utility.yul\":4874:4883   */\n      dup8\n        /* \"#utility.yul\":4870:4892   */\n      add\n        /* \"#utility.yul\":4814:4902   */\n      tag_293\n      jump\t// in\n    tag_325:\n        /* \"#utility.yul\":4804:4902   */\n      swap3\n      pop\n        /* \"#utility.yul\":4599:4912   */\n      pop\n        /* \"#utility.yul\":4951:4953   */\n      0x40\n        /* \"#utility.yul\":4977:5030   */\n      tag_326\n        /* \"#utility.yul\":5022:5029   */\n      dup7\n        /* \"#utility.yul\":5013:5019   */\n      dup3\n        /* \"#utility.yul\":5002:5011   */\n      dup8\n        /* \"#utility.yul\":4998:5020   */\n      add\n        /* \"#utility.yul\":4977:5030   */\n      tag_284\n      jump\t// in\n    tag_326:\n        /* \"#utility.yul\":4967:5030   */\n      swap2\n      pop\n        /* \"#utility.yul\":4922:5040   */\n      pop\n        /* \"#utility.yul\":4200:5047   */\n      swap3\n      pop\n      swap3\n      pop\n      swap3\n      jump\t// out\n        /* \"#utility.yul\":5053:6250   */\n    tag_35:\n        /* \"#utility.yul\":5195:5201   */\n      0x00\n        /* \"#utility.yul\":5203:5209   */\n      dup1\n        /* \"#utility.yul\":5211:5217   */\n      0x00\n        /* \"#utility.yul\":5219:5225   */\n      dup1\n        /* \"#utility.yul\":5268:5271   */\n      0x80\n        /* \"#utility.yul\":5256:5265   */\n      dup6\n        /* \"#utility.yul\":5247:5254   */\n      dup8\n        /* \"#utility.yul\":5243:5266   */\n      sub\n        /* \"#utility.yul\":5239:5272   */\n      slt\n        /* \"#utility.yul\":5236:5356   */\n      iszero\n      tag_328\n      jumpi\n        /* \"#utility.yul\":5275:5354   */\n      tag_329\n      tag_316\n      jump\t// in\n    tag_329:\n        /* \"#utility.yul\":5236:5356   */\n    tag_328:\n        /* \"#utility.yul\":5395:5396   */\n      0x00\n        /* \"#utility.yul\":5420:5472   */\n      tag_330\n        /* \"#utility.yul\":5464:5471   */\n      dup8\n        /* \"#utility.yul\":5455:5461   */\n      dup3\n        /* \"#utility.yul\":5444:5453   */\n      dup9\n        /* \"#utility.yul\":5440:5462   */\n      add\n        /* \"#utility.yul\":5420:5472   */\n      tag_309\n      jump\t// in\n    tag_330:\n        /* \"#utility.yul\":5410:5472   */\n      swap5\n      pop\n        /* \"#utility.yul\":5366:5482   */\n      pop\n        /* \"#utility.yul\":5549:5551   */\n      0x20\n        /* \"#utility.yul\":5538:5547   */\n      dup6\n        /* \"#utility.yul\":5534:5552   */\n      add\n        /* \"#utility.yul\":5521:5553   */\n      calldataload\n        /* \"#utility.yul\":5580:5598   */\n      0xffffffffffffffff\n        /* \"#utility.yul\":5572:5578   */\n      dup2\n        /* \"#utility.yul\":5569:5599   */\n      gt\n        /* \"#utility.yul\":5566:5683   */\n      iszero\n      tag_331\n      jumpi\n        /* \"#utility.yul\":5602:5681   */\n      tag_332\n      tag_324\n      jump\t// in\n    tag_332:\n        /* \"#utility.yul\":5566:5683   */\n    tag_331:\n        /* \"#utility.yul\":5707:5795   */\n      tag_333\n        /* \"#utility.yul\":5787:5794   */\n      dup8\n        /* \"#utility.yul\":5778:5784   */\n      dup3\n        /* \"#utility.yul\":5767:5776   */\n      dup9\n        /* \"#utility.yul\":5763:5785   */\n      add\n        /* \"#utility.yul\":5707:5795   */\n      tag_293\n      jump\t// in\n    tag_333:\n        /* \"#utility.yul\":5697:5795   */\n      swap4\n      pop\n        /* \"#utility.yul\":5492:5805   */\n      pop\n        /* \"#utility.yul\":5872:5874   */\n      0x40\n        /* \"#utility.yul\":5861:5870   */\n      dup6\n        /* \"#utility.yul\":5857:5875   */\n      add\n        /* \"#utility.yul\":5844:5876   */\n      calldataload\n        /* \"#utility.yul\":5903:5921   */\n      0xffffffffffffffff\n        /* \"#utility.yul\":5895:5901   */\n      dup2\n        /* \"#utility.yul\":5892:5922   */\n      gt\n        /* \"#utility.yul\":5889:6006   */\n      iszero\n      tag_334\n      jumpi\n        /* \"#utility.yul\":5925:6004   */\n      tag_335\n      tag_324\n      jump\t// in\n    tag_335:\n        /* \"#utility.yul\":5889:6006   */\n    tag_334:\n        /* \"#utility.yul\":6030:6105   */\n      tag_336\n        /* \"#utility.yul\":6097:6104   */\n      dup8\n        /* \"#utility.yul\":6088:6094   */\n      dup3\n        /* \"#utility.yul\":6077:6086   */\n      dup9\n        /* \"#utility.yul\":6073:6095   */\n      add\n        /* \"#utility.yul\":6030:6105   */\n      tag_288\n      jump\t// in\n    tag_336:\n        /* \"#utility.yul\":6020:6105   */\n      swap3\n      pop\n        /* \"#utility.yul\":5815:6115   */\n      pop\n        /* \"#utility.yul\":6154:6156   */\n      0x60\n        /* \"#utility.yul\":6180:6233   */\n      tag_337\n        /* \"#utility.yul\":6225:6232   */\n      dup8\n        /* \"#utility.yul\":6216:6222   */\n      dup3\n        /* \"#utility.yul\":6205:6214   */\n      dup9\n        /* \"#utility.yul\":6201:6223   */\n      add\n        /* \"#utility.yul\":6180:6233   */\n      tag_284\n      jump\t// in\n    tag_337:\n        /* \"#utility.yul\":6170:6233   */\n      swap2\n      pop\n        /* \"#utility.yul\":6125:6243   */\n      pop\n        /* \"#utility.yul\":5053:6250   */\n      swap3\n      swap6\n      swap2\n      swap5\n      pop\n      swap3\n      pop\n      jump\t// out\n        /* \"#utility.yul\":6256:6365   */\n    tag_338:\n        /* \"#utility.yul\":6337:6358   */\n      tag_340\n        /* \"#utility.yul\":6352:6357   */\n      dup2\n        /* \"#utility.yul\":6337:6358   */\n      tag_341\n      jump\t// in\n    tag_340:\n        /* \"#utility.yul\":6332:6335   */\n      dup3\n        /* \"#utility.yul\":6325:6359   */\n      mstore\n        /* \"#utility.yul\":6256:6365   */\n      pop\n      pop\n      jump\t// out\n        /* \"#utility.yul\":6371:6735   */\n    tag_342:\n        /* \"#utility.yul\":6459:6462   */\n      0x00\n        /* \"#utility.yul\":6487:6526   */\n      tag_344\n        /* \"#utility.yul\":6520:6525   */\n      dup3\n        /* \"#utility.yul\":6487:6526   */\n      tag_345\n      jump\t// in\n    tag_344:\n        /* \"#utility.yul\":6542:6613   */\n      tag_346\n        /* \"#utility.yul\":6606:6612   */\n      dup2\n        /* \"#utility.yul\":6601:6604   */\n      dup6\n        /* \"#utility.yul\":6542:6613   */\n      tag_347\n      jump\t// in\n    tag_346:\n        /* \"#utility.yul\":6535:6613   */\n      swap4\n      pop\n        /* \"#utility.yul\":6622:6674   */\n      tag_348\n        /* \"#utility.yul\":6667:6673   */\n      dup2\n        /* \"#utility.yul\":6662:6665   */\n      dup6\n        /* \"#utility.yul\":6655:6659   */\n      0x20\n        /* \"#utility.yul\":6648:6653   */\n      dup7\n        /* \"#utility.yul\":6644:6660   */\n      add\n        /* \"#utility.yul\":6622:6674   */\n      tag_349\n      jump\t// in\n    tag_348:\n        /* \"#utility.yul\":6699:6728   */\n      tag_350\n        /* \"#utility.yul\":6721:6727   */\n      dup2\n        /* \"#utility.yul\":6699:6728   */\n      tag_351\n      jump\t// in\n    tag_350:\n        /* \"#utility.yul\":6694:6697   */\n      dup5\n        /* \"#utility.yul\":6690:6729   */\n      add\n        /* \"#utility.yul\":6683:6729   */\n      swap2\n      pop\n        /* \"#utility.yul\":6463:6735   */\n      pop\n        /* \"#utility.yul\":6371:6735   */\n      swap3\n      swap2\n      pop\n      pop\n      jump\t// out\n        /* \"#utility.yul\":6741:7107   */\n    tag_352:\n        /* \"#utility.yul\":6883:6886   */\n      0x00\n        /* \"#utility.yul\":6904:6971   */\n      tag_354\n        /* \"#utility.yul\":6968:6970   */\n      0x31\n        /* \"#utility.yul\":6963:6966   */\n      dup4\n        /* \"#utility.yul\":6904:6971   */\n      tag_347\n      jump\t// in\n    tag_354:\n        /* \"#utility.yul\":6897:6971   */\n      swap2\n      pop\n        /* \"#utility.yul\":6980:7073   */\n      tag_355\n        /* \"#utility.yul\":7069:7072   */\n      dup3\n        /* \"#utility.yul\":6980:7073   */\n      tag_356\n      jump\t// in\n    tag_355:\n        /* \"#utility.yul\":7098:7100   */\n      0x40\n        /* \"#utility.yul\":7093:7096   */\n      dup3\n        /* \"#utility.yul\":7089:7101   */\n      add\n        /* \"#utility.yul\":7082:7101   */\n      swap1\n      pop\n        /* \"#utility.yul\":6741:7107   */\n      swap2\n      swap1\n      pop\n      jump\t// out\n        /* \"#utility.yul\":7113:7479   */\n    tag_357:\n        /* \"#utility.yul\":7255:7258   */\n      0x00\n        /* \"#utility.yul\":7276:7343   */\n      tag_359\n        /* \"#utility.yul\":7340:7342   */\n      0x50\n        /* \"#utility.yul\":7335:7338   */\n      dup4\n        /* \"#utility.yul\":7276:7343   */\n      tag_347\n      jump\t// in\n    tag_359:\n        /* \"#utility.yul\":7269:7343   */\n      swap2\n      pop\n        /* \"#utility.yul\":7352:7445   */\n      tag_360\n        /* \"#utility.yul\":7441:7444   */\n      dup3\n        /* \"#utility.yul\":7352:7445   */\n      tag_361\n      jump\t// in\n    tag_360:\n        /* \"#utility.yul\":7470:7472   */\n      0x60\n        /* \"#utility.yul\":7465:7468   */\n      dup3\n        /* \"#utility.yul\":7461:7473   */\n      add\n        /* \"#utility.yul\":7454:7473   */\n      swap1\n      pop\n        /* \"#utility.yul\":7113:7479   */\n      swap2\n      swap1\n      pop\n      jump\t// out\n        /* \"#utility.yul\":7485:7851   */\n    tag_362:\n        /* \"#utility.yul\":7627:7630   */\n      0x00\n        /* \"#utility.yul\":7648:7715   */\n      tag_364\n        /* \"#utility.yul\":7712:7714   */\n      0x32\n        /* \"#utility.yul\":7707:7710   */\n      dup4\n        /* \"#utility.yul\":7648:7715   */\n      tag_347\n      jump\t// in\n    tag_364:\n        /* \"#utility.yul\":7641:7715   */\n      swap2\n      pop\n        /* \"#utility.yul\":7724:7817   */\n      tag_365\n        /* \"#utility.yul\":7813:7816   */\n      dup3\n        /* \"#utility.yul\":7724:7817   */\n      tag_366\n      jump\t// in\n    tag_365:\n        /* \"#utility.yul\":7842:7844   */\n      0x40\n        /* \"#utility.yul\":7837:7840   */\n      dup3\n        /* \"#utility.yul\":7833:7845   */\n      add\n        /* \"#utility.yul\":7826:7845   */\n      swap1\n      pop\n        /* \"#utility.yul\":7485:7851   */\n      swap2\n      swap1\n      pop\n      jump\t// out\n        /* \"#utility.yul\":7857:7975   */\n    tag_367:\n        /* \"#utility.yul\":7944:7968   */\n      tag_369\n        /* \"#utility.yul\":7962:7967   */\n      dup2\n        /* \"#utility.yul\":7944:7968   */\n      tag_370\n      jump\t// in\n    tag_369:\n        /* \"#utility.yul\":7939:7942   */\n      dup3\n        /* \"#utility.yul\":7932:7969   */\n      mstore\n        /* \"#utility.yul\":7857:7975   */\n      pop\n      pop\n      jump\t// out\n        /* \"#utility.yul\":7981:8096   */\n    tag_371:\n        /* \"#utility.yul\":8066:8089   */\n      tag_373\n        /* \"#utility.yul\":8083:8088   */\n      dup2\n        /* \"#utility.yul\":8066:8089   */\n      tag_374\n      jump\t// in\n    tag_373:\n        /* \"#utility.yul\":8061:8064   */\n      dup3\n        /* \"#utility.yul\":8054:8090   */\n      mstore\n        /* \"#utility.yul\":7981:8096   */\n      pop\n      pop\n      jump\t// out\n        /* \"#utility.yul\":8102:8312   */\n    tag_38:\n        /* \"#utility.yul\":8189:8193   */\n      0x00\n        /* \"#utility.yul\":8227:8229   */\n      0x20\n        /* \"#utility.yul\":8216:8225   */\n      dup3\n        /* \"#utility.yul\":8212:8230   */\n      add\n        /* \"#utility.yul\":8204:8230   */\n      swap1\n      pop\n        /* \"#utility.yul\":8240:8305   */\n      tag_376\n        /* \"#utility.yul\":8302:8303   */\n      0x00\n        /* \"#utility.yul\":8291:8300   */\n      dup4\n        /* \"#utility.yul\":8287:8304   */\n      add\n        /* \"#utility.yul\":8278:8284   */\n      dup5\n        /* \"#utility.yul\":8240:8305   */\n      tag_338\n      jump\t// in\n    tag_376:\n        /* \"#utility.yul\":8102:8312   */\n      swap3\n      swap2\n      pop\n      pop\n      jump\t// out\n        /* \"#utility.yul\":8318:9366   */\n    tag_22:\n        /* \"#utility.yul\":8611:8615   */\n      0x00\n        /* \"#utility.yul\":8649:8652   */\n      0xc0\n        /* \"#utility.yul\":8638:8647   */\n      dup3\n        /* \"#utility.yul\":8634:8653   */\n      add\n        /* \"#utility.yul\":8626:8653   */\n      swap1\n      pop\n        /* \"#utility.yul\":8699:8708   */\n      dup2\n        /* \"#utility.yul\":8693:8697   */\n      dup2\n        /* \"#utility.yul\":8689:8709   */\n      sub\n        /* \"#utility.yul\":8685:8686   */\n      0x00\n        /* \"#utility.yul\":8674:8683   */\n      dup4\n        /* \"#utility.yul\":8670:8687   */\n      add\n        /* \"#utility.yul\":8663:8710   */\n      mstore\n        /* \"#utility.yul\":8727:8805   */\n      tag_378\n        /* \"#utility.yul\":8800:8804   */\n      dup2\n        /* \"#utility.yul\":8791:8797   */\n      dup10\n        /* \"#utility.yul\":8727:8805   */\n      tag_342\n      jump\t// in\n    tag_378:\n        /* \"#utility.yul\":8719:8805   */\n      swap1\n      pop\n        /* \"#utility.yul\":8852:8861   */\n      dup2\n        /* \"#utility.yul\":8846:8850   */\n      dup2\n        /* \"#utility.yul\":8842:8862   */\n      sub\n        /* \"#utility.yul\":8837:8839   */\n      0x20\n        /* \"#utility.yul\":8826:8835   */\n      dup4\n        /* \"#utility.yul\":8822:8840   */\n      add\n        /* \"#utility.yul\":8815:8863   */\n      mstore\n        /* \"#utility.yul\":8880:8958   */\n      tag_379\n        /* \"#utility.yul\":8953:8957   */\n      dup2\n        /* \"#utility.yul\":8944:8950   */\n      dup9\n        /* \"#utility.yul\":8880:8958   */\n      tag_342\n      jump\t// in\n    tag_379:\n        /* \"#utility.yul\":8872:8958   */\n      swap1\n      pop\n        /* \"#utility.yul\":9005:9014   */\n      dup2\n        /* \"#utility.yul\":8999:9003   */\n      dup2\n        /* \"#utility.yul\":8995:9015   */\n      sub\n        /* \"#utility.yul\":8990:8992   */\n      0x40\n        /* \"#utility.yul\":8979:8988   */\n      dup4\n        /* \"#utility.yul\":8975:8993   */\n      add\n        /* \"#utility.yul\":8968:9016   */\n      mstore\n        /* \"#utility.yul\":9033:9111   */\n      tag_380\n        /* \"#utility.yul\":9106:9110   */\n      dup2\n        /* \"#utility.yul\":9097:9103   */\n      dup8\n        /* \"#utility.yul\":9033:9111   */\n      tag_342\n      jump\t// in\n    tag_380:\n        /* \"#utility.yul\":9025:9111   */\n      swap1\n      pop\n        /* \"#utility.yul\":9121:9193   */\n      tag_381\n        /* \"#utility.yul\":9189:9191   */\n      0x60\n        /* \"#utility.yul\":9178:9187   */\n      dup4\n        /* \"#utility.yul\":9174:9192   */\n      add\n        /* \"#utility.yul\":9165:9171   */\n      dup7\n        /* \"#utility.yul\":9121:9193   */\n      tag_367\n      jump\t// in\n    tag_381:\n        /* \"#utility.yul\":9203:9276   */\n      tag_382\n        /* \"#utility.yul\":9271:9274   */\n      0x80\n        /* \"#utility.yul\":9260:9269   */\n      dup4\n        /* \"#utility.yul\":9256:9275   */\n      add\n        /* \"#utility.yul\":9247:9253   */\n      dup6\n        /* \"#utility.yul\":9203:9276   */\n      tag_367\n      jump\t// in\n    tag_382:\n        /* \"#utility.yul\":9286:9359   */\n      tag_383\n        /* \"#utility.yul\":9354:9357   */\n      0xa0\n        /* \"#utility.yul\":9343:9352   */\n      dup4\n        /* \"#utility.yul\":9339:9358   */\n      add\n        /* \"#utility.yul\":9330:9336   */\n      dup5\n        /* \"#utility.yul\":9286:9359   */\n      tag_367\n      jump\t// in\n    tag_383:\n        /* \"#utility.yul\":8318:9366   */\n      swap8\n      swap7\n      pop\n      pop\n      pop\n      pop\n      pop\n      pop\n      pop\n      jump\t// out\n        /* \"#utility.yul\":9372:9791   */\n    tag_79:\n        /* \"#utility.yul\":9538:9542   */\n      0x00\n        /* \"#utility.yul\":9576:9578   */\n      0x20\n        /* \"#utility.yul\":9565:9574   */\n      dup3\n        /* \"#utility.yul\":9561:9579   */\n      add\n        /* \"#utility.yul\":9553:9579   */\n      swap1\n      pop\n        /* \"#utility.yul\":9625:9634   */\n      dup2\n        /* \"#utility.yul\":9619:9623   */\n      dup2\n        /* \"#utility.yul\":9615:9635   */\n      sub\n        /* \"#utility.yul\":9611:9612   */\n      0x00\n        /* \"#utility.yul\":9600:9609   */\n      dup4\n        /* \"#utility.yul\":9596:9613   */\n      add\n        /* \"#utility.yul\":9589:9636   */\n      mstore\n        /* \"#utility.yul\":9653:9784   */\n      tag_385\n        /* \"#utility.yul\":9779:9783   */\n      dup2\n        /* \"#utility.yul\":9653:9784   */\n      tag_352\n      jump\t// in\n    tag_385:\n        /* \"#utility.yul\":9645:9784   */\n      swap1\n      pop\n        /* \"#utility.yul\":9372:9791   */\n      swap2\n      swap1\n      pop\n      jump\t// out\n        /* \"#utility.yul\":9797:10216   */\n    tag_216:\n        /* \"#utility.yul\":9963:9967   */\n      0x00\n        /* \"#utility.yul\":10001:10003   */\n      0x20\n        /* \"#utility.yul\":9990:9999   */\n      dup3\n        /* \"#utility.yul\":9986:10004   */\n      add\n        /* \"#utility.yul\":9978:10004   */\n      swap1\n      pop\n        /* \"#utility.yul\":10050:10059   */\n      dup2\n        /* \"#utility.yul\":10044:10048   */\n      dup2\n        /* \"#utility.yul\":10040:10060   */\n      sub\n        /* \"#utility.yul\":10036:10037   */\n      0x00\n        /* \"#utility.yul\":10025:10034   */\n      dup4\n        /* \"#utility.yul\":10021:10038   */\n      add\n        /* \"#utility.yul\":10014:10061   */\n      mstore\n        /* \"#utility.yul\":10078:10209   */\n      tag_387\n        /* \"#utility.yul\":10204:10208   */\n      dup2\n        /* \"#utility.yul\":10078:10209   */\n      tag_357\n      jump\t// in\n    tag_387:\n        /* \"#utility.yul\":10070:10209   */\n      swap1\n      pop\n        /* \"#utility.yul\":9797:10216   */\n      swap2\n      swap1\n      pop\n      jump\t// out\n        /* \"#utility.yul\":10222:10641   */\n    tag_116:\n        /* \"#utility.yul\":10388:10392   */\n      0x00\n        /* \"#utility.yul\":10426:10428   */\n      0x20\n        /* \"#utility.yul\":10415:10424   */\n      dup3\n        /* \"#utility.yul\":10411:10429   */\n      add\n        /* \"#utility.yul\":10403:10429   */\n      swap1\n      pop\n        /* \"#utility.yul\":10475:10484   */\n      dup2\n        /* \"#utility.yul\":10469:10473   */\n      dup2\n        /* \"#utility.yul\":10465:10485   */\n      sub\n        /* \"#utility.yul\":10461:10462   */\n      0x00\n        /* \"#utility.yul\":10450:10459   */\n      dup4\n        /* \"#utility.yul\":10446:10463   */\n      add\n        /* \"#utility.yul\":10439:10486   */\n      mstore\n        /* \"#utility.yul\":10503:10634   */\n      tag_389\n        /* \"#utility.yul\":10629:10633   */\n      dup2\n        /* \"#utility.yul\":10503:10634   */\n      tag_362\n      jump\t// in\n    tag_389:\n        /* \"#utility.yul\":10495:10634   */\n      swap1\n      pop\n        /* \"#utility.yul\":10222:10641   */\n      swap2\n      swap1\n      pop\n      jump\t// out\n        /* \"#utility.yul\":10647:10979   */\n    tag_27:\n        /* \"#utility.yul\":10768:10772   */\n      0x00\n        /* \"#utility.yul\":10806:10808   */\n      0x40\n        /* \"#utility.yul\":10795:10804   */\n      dup3\n        /* \"#utility.yul\":10791:10809   */\n      add\n        /* \"#utility.yul\":10783:10809   */\n      swap1\n      pop\n        /* \"#utility.yul\":10819:10890   */\n      tag_391\n        /* \"#utility.yul\":10887:10888   */\n      0x00\n        /* \"#utility.yul\":10876:10885   */\n      dup4\n        /* \"#utility.yul\":10872:10889   */\n      add\n        /* \"#utility.yul\":10863:10869   */\n      dup6\n        /* \"#utility.yul\":10819:10890   */\n      tag_367\n      jump\t// in\n    tag_391:\n        /* \"#utility.yul\":10900:10972   */\n      tag_392\n        /* \"#utility.yul\":10968:10970   */\n      0x20\n        /* \"#utility.yul\":10957:10966   */\n      dup4\n        /* \"#utility.yul\":10953:10971   */\n      add\n        /* \"#utility.yul\":10944:10950   */\n      dup5\n        /* \"#utility.yul\":10900:10972   */\n      tag_367\n      jump\t// in\n    tag_392:\n        /* \"#utility.yul\":10647:10979   */\n      swap4\n      swap3\n      pop\n      pop\n      pop\n      jump\t// out\n        /* \"#utility.yul\":10985:11538   */\n    tag_32:\n        /* \"#utility.yul\":11162:11166   */\n      0x00\n        /* \"#utility.yul\":11200:11203   */\n      0x80\n        /* \"#utility.yul\":11189:11198   */\n      dup3\n        /* \"#utility.yul\":11185:11204   */\n      add\n        /* \"#utility.yul\":11177:11204   */\n      swap1\n      pop\n        /* \"#utility.yul\":11214:11285   */\n      tag_394\n        /* \"#utility.yul\":11282:11283   */\n      0x00\n        /* \"#utility.yul\":11271:11280   */\n      dup4\n        /* \"#utility.yul\":11267:11284   */\n      add\n        /* \"#utility.yul\":11258:11264   */\n      dup8\n        /* \"#utility.yul\":11214:11285   */\n      tag_367\n      jump\t// in\n    tag_394:\n        /* \"#utility.yul\":11295:11367   */\n      tag_395\n        /* \"#utility.yul\":11363:11365   */\n      0x20\n        /* \"#utility.yul\":11352:11361   */\n      dup4\n        /* \"#utility.yul\":11348:11366   */\n      add\n        /* \"#utility.yul\":11339:11345   */\n      dup7\n        /* \"#utility.yul\":11295:11367   */\n      tag_367\n      jump\t// in\n    tag_395:\n        /* \"#utility.yul\":11377:11449   */\n      tag_396\n        /* \"#utility.yul\":11445:11447   */\n      0x40\n        /* \"#utility.yul\":11434:11443   */\n      dup4\n        /* \"#utility.yul\":11430:11448   */\n      add\n        /* \"#utility.yul\":11421:11427   */\n      dup6\n        /* \"#utility.yul\":11377:11449   */\n      tag_367\n      jump\t// in\n    tag_396:\n        /* \"#utility.yul\":11459:11531   */\n      tag_397\n        /* \"#utility.yul\":11527:11529   */\n      0x60\n        /* \"#utility.yul\":11516:11525   */\n      dup4\n        /* \"#utility.yul\":11512:11530   */\n      add\n        /* \"#utility.yul\":11503:11509   */\n      dup5\n        /* \"#utility.yul\":11459:11531   */\n      tag_367\n      jump\t// in\n    tag_397:\n        /* \"#utility.yul\":10985:11538   */\n      swap6\n      swap5\n      pop\n      pop\n      pop\n      pop\n      pop\n      jump\t// out\n        /* \"#utility.yul\":11544:11868   */\n    tag_17:\n        /* \"#utility.yul\":11661:11665   */\n      0x00\n        /* \"#utility.yul\":11699:11701   */\n      0x40\n        /* \"#utility.yul\":11688:11697   */\n      dup3\n        /* \"#utility.yul\":11684:11702   */\n      add\n        /* \"#utility.yul\":11676:11702   */\n      swap1\n      pop\n        /* \"#utility.yul\":11712:11781   */\n      tag_399\n        /* \"#utility.yul\":11778:11779   */\n      0x00\n        /* \"#utility.yul\":11767:11776   */\n      dup4\n        /* \"#utility.yul\":11763:11780   */\n      add\n        /* \"#utility.yul\":11754:11760   */\n      dup6\n        /* \"#utility.yul\":11712:11781   */\n      tag_371\n      jump\t// in\n    tag_399:\n        /* \"#utility.yul\":11791:11861   */\n      tag_400\n        /* \"#utility.yul\":11857:11859   */\n      0x20\n        /* \"#utility.yul\":11846:11855   */\n      dup4\n        /* \"#utility.yul\":11842:11860   */\n      add\n        /* \"#utility.yul\":11833:11839   */\n      dup5\n        /* \"#utility.yul\":11791:11861   */\n      tag_371\n      jump\t// in\n    tag_400:\n        /* \"#utility.yul\":11544:11868   */\n      swap4\n      swap3\n      pop\n      pop\n      pop\n      jump\t// out\n        /* \"#utility.yul\":11874:12003   */\n    tag_250:\n        /* \"#utility.yul\":11908:11914   */\n      0x00\n        /* \"#utility.yul\":11935:11955   */\n      tag_402\n      tag_403\n      jump\t// in\n    tag_402:\n        /* \"#utility.yul\":11925:11955   */\n      swap1\n      pop\n        /* \"#utility.yul\":11964:11997   */\n      tag_404\n        /* \"#utility.yul\":11992:11996   */\n      dup3\n        /* \"#utility.yul\":11984:11990   */\n      dup3\n        /* \"#utility.yul\":11964:11997   */\n      tag_405\n      jump\t// in\n    tag_404:\n        /* \"#utility.yul\":11874:12003   */\n      swap2\n      swap1\n      pop\n      jump\t// out\n        /* \"#utility.yul\":12009:12084   */\n    tag_403:\n        /* \"#utility.yul\":12042:12048   */\n      0x00\n        /* \"#utility.yul\":12075:12077   */\n      0x40\n        /* \"#utility.yul\":12069:12078   */\n      mload\n        /* \"#utility.yul\":12059:12078   */\n      swap1\n      pop\n        /* \"#utility.yul\":12009:12084   */\n      swap1\n      jump\t// out\n        /* \"#utility.yul\":12090:12398   */\n    tag_249:\n        /* \"#utility.yul\":12164:12168   */\n      0x00\n        /* \"#utility.yul\":12254:12272   */\n      0xffffffffffffffff\n        /* \"#utility.yul\":12246:12252   */\n      dup3\n        /* \"#utility.yul\":12243:12273   */\n      gt\n        /* \"#utility.yul\":12240:12296   */\n      iszero\n      tag_408\n      jumpi\n        /* \"#utility.yul\":12276:12294   */\n      tag_409\n      tag_410\n      jump\t// in\n    tag_409:\n        /* \"#utility.yul\":12240:12296   */\n    tag_408:\n        /* \"#utility.yul\":12326:12330   */\n      0x20\n        /* \"#utility.yul\":12318:12324   */\n      dup3\n        /* \"#utility.yul\":12314:12331   */\n      mul\n        /* \"#utility.yul\":12306:12331   */\n      swap1\n      pop\n        /* \"#utility.yul\":12386:12390   */\n      0x20\n        /* \"#utility.yul\":12380:12384   */\n      dup2\n        /* \"#utility.yul\":12376:12391   */\n      add\n        /* \"#utility.yul\":12368:12391   */\n      swap1\n      pop\n        /* \"#utility.yul\":12090:12398   */\n      swap2\n      swap1\n      pop\n      jump\t// out\n        /* \"#utility.yul\":12404:12725   */\n    tag_263:\n        /* \"#utility.yul\":12491:12495   */\n      0x00\n        /* \"#utility.yul\":12581:12599   */\n      0xffffffffffffffff\n        /* \"#utility.yul\":12573:12579   */\n      dup3\n        /* \"#utility.yul\":12570:12600   */\n      gt\n        /* \"#utility.yul\":12567:12623   */\n      iszero\n      tag_412\n      jumpi\n        /* \"#utility.yul\":12603:12621   */\n      tag_413\n      tag_410\n      jump\t// in\n    tag_413:\n        /* \"#utility.yul\":12567:12623   */\n    tag_412:\n        /* \"#utility.yul\":12653:12657   */\n      0x20\n        /* \"#utility.yul\":12645:12651   */\n      dup3\n        /* \"#utility.yul\":12641:12658   */\n      mul\n        /* \"#utility.yul\":12633:12658   */\n      swap1\n      pop\n        /* \"#utility.yul\":12713:12717   */\n      0x20\n        /* \"#utility.yul\":12707:12711   */\n      dup2\n        /* \"#utility.yul\":12703:12718   */\n      add\n        /* \"#utility.yul\":12695:12718   */\n      swap1\n      pop\n        /* \"#utility.yul\":12404:12725   */\n      swap2\n      swap1\n      pop\n      jump\t// out\n        /* \"#utility.yul\":12731:13039   */\n    tag_278:\n        /* \"#utility.yul\":12793:12797   */\n      0x00\n        /* \"#utility.yul\":12883:12901   */\n      0xffffffffffffffff\n        /* \"#utility.yul\":12875:12881   */\n      dup3\n        /* \"#utility.yul\":12872:12902   */\n      gt\n        /* \"#utility.yul\":12869:12925   */\n      iszero\n      tag_415\n      jumpi\n        /* \"#utility.yul\":12905:12923   */\n      tag_416\n      tag_410\n      jump\t// in\n    tag_416:\n        /* \"#utility.yul\":12869:12925   */\n    tag_415:\n        /* \"#utility.yul\":12943:12972   */\n      tag_417\n        /* \"#utility.yul\":12965:12971   */\n      dup3\n        /* \"#utility.yul\":12943:12972   */\n      tag_351\n      jump\t// in\n    tag_417:\n        /* \"#utility.yul\":12935:12972   */\n      swap1\n      pop\n        /* \"#utility.yul\":13027:13031   */\n      0x20\n        /* \"#utility.yul\":13021:13025   */\n      dup2\n        /* \"#utility.yul\":13017:13032   */\n      add\n        /* \"#utility.yul\":13009:13032   */\n      swap1\n      pop\n        /* \"#utility.yul\":12731:13039   */\n      swap2\n      swap1\n      pop\n      jump\t// out\n        /* \"#utility.yul\":13045:13144   */\n    tag_345:\n        /* \"#utility.yul\":13097:13103   */\n      0x00\n        /* \"#utility.yul\":13131:13136   */\n      dup2\n        /* \"#utility.yul\":13125:13137   */\n      mload\n        /* \"#utility.yul\":13115:13137   */\n      swap1\n      pop\n        /* \"#utility.yul\":13045:13144   */\n      swap2\n      swap1\n      pop\n      jump\t// out\n        /* \"#utility.yul\":13150:13319   */\n    tag_347:\n        /* \"#utility.yul\":13234:13245   */\n      0x00\n        /* \"#utility.yul\":13268:13274   */\n      dup3\n        /* \"#utility.yul\":13263:13266   */\n      dup3\n        /* \"#utility.yul\":13256:13275   */\n      mstore\n        /* \"#utility.yul\":13308:13312   */\n      0x20\n        /* \"#utility.yul\":13303:13306   */\n      dup3\n        /* \"#utility.yul\":13299:13313   */\n      add\n        /* \"#utility.yul\":13284:13313   */\n      swap1\n      pop\n        /* \"#utility.yul\":13150:13319   */\n      swap3\n      swap2\n      pop\n      pop\n      jump\t// out\n        /* \"#utility.yul\":13325:13630   */\n    tag_114:\n        /* \"#utility.yul\":13365:13368   */\n      0x00\n        /* \"#utility.yul\":13384:13404   */\n      tag_421\n        /* \"#utility.yul\":13402:13403   */\n      dup3\n        /* \"#utility.yul\":13384:13404   */\n      tag_370\n      jump\t// in\n    tag_421:\n        /* \"#utility.yul\":13379:13404   */\n      swap2\n      pop\n        /* \"#utility.yul\":13418:13438   */\n      tag_422\n        /* \"#utility.yul\":13436:13437   */\n      dup4\n        /* \"#utility.yul\":13418:13438   */\n      tag_370\n      jump\t// in\n    tag_422:\n        /* \"#utility.yul\":13413:13438   */\n      swap3\n      pop\n        /* \"#utility.yul\":13572:13573   */\n      dup3\n        /* \"#utility.yul\":13504:13570   */\n      0xffffffffffffffffffffffffffffffffffffffffffffffffffffffffffffffff\n        /* \"#utility.yul\":13500:13574   */\n      sub\n        /* \"#utility.yul\":13497:13498   */\n      dup3\n        /* \"#utility.yul\":13494:13575   */\n      gt\n        /* \"#utility.yul\":13491:13598   */\n      iszero\n      tag_423\n      jumpi\n        /* \"#utility.yul\":13578:13596   */\n      tag_424\n      tag_425\n      jump\t// in\n    tag_424:\n        /* \"#utility.yul\":13491:13598   */\n    tag_423:\n        /* \"#utility.yul\":13622:13623   */\n      dup3\n        /* \"#utility.yul\":13619:13620   */\n      dup3\n        /* \"#utility.yul\":13615:13624   */\n      add\n        /* \"#utility.yul\":13608:13624   */\n      swap1\n      pop\n        /* \"#utility.yul\":13325:13630   */\n      swap3\n      swap2\n      pop\n      pop\n      jump\t// out\n        /* \"#utility.yul\":13636:13882   */\n    tag_243:\n        /* \"#utility.yul\":13675:13678   */\n      0x00\n        /* \"#utility.yul\":13694:13713   */\n      tag_427\n        /* \"#utility.yul\":13711:13712   */\n      dup3\n        /* \"#utility.yul\":13694:13713   */\n      tag_374\n      jump\t// in\n    tag_427:\n        /* \"#utility.yul\":13689:13713   */\n      swap2\n      pop\n        /* \"#utility.yul\":13727:13746   */\n      tag_428\n        /* \"#utility.yul\":13744:13745   */\n      dup4\n        /* \"#utility.yul\":13727:13746   */\n      tag_374\n      jump\t// in\n    tag_428:\n        /* \"#utility.yul\":13722:13746   */\n      swap3\n      pop\n        /* \"#utility.yul\":13824:13825   */\n      dup3\n        /* \"#utility.yul\":13812:13822   */\n      0xffffffff\n        /* \"#utility.yul\":13808:13826   */\n      sub\n        /* \"#utility.yul\":13805:13806   */\n      dup3\n        /* \"#utility.yul\":13802:13827   */\n      gt\n        /* \"#utility.yul\":13799:13850   */\n      iszero\n      tag_429\n      jumpi\n        /* \"#utility.yul\":13830:13848   */\n      tag_430\n      tag_425\n      jump\t// in\n    tag_430:\n        /* \"#utility.yul\":13799:13850   */\n    tag_429:\n        /* \"#utility.yul\":13874:13875   */\n      dup3\n        /* \"#utility.yul\":13871:13872   */\n      dup3\n        /* \"#utility.yul\":13867:13876   */\n      add\n        /* \"#utility.yul\":13860:13876   */\n      swap1\n      pop\n        /* \"#utility.yul\":13636:13882   */\n      swap3\n      swap2\n      pop\n      pop\n      jump\t// out\n        /* \"#utility.yul\":13888:13984   */\n    tag_431:\n        /* \"#utility.yul\":13925:13932   */\n      0x00\n        /* \"#utility.yul\":13954:13978   */\n      tag_433\n        /* \"#utility.yul\":13972:13977   */\n      dup3\n        /* \"#utility.yul\":13954:13978   */\n      tag_434\n      jump\t// in\n    tag_433:\n        /* \"#utility.yul\":13943:13978   */\n      swap1\n      pop\n        /* \"#utility.yul\":13888:13984   */\n      swap2\n      swap1\n      pop\n      jump\t// out\n        /* \"#utility.yul\":13990:14080   */\n    tag_341:\n        /* \"#utility.yul\":14024:14031   */\n      0x00\n        /* \"#utility.yul\":14067:14072   */\n      dup2\n        /* \"#utility.yul\":14060:14073   */\n      iszero\n        /* \"#utility.yul\":14053:14074   */\n      iszero\n        /* \"#utility.yul\":14042:14074   */\n      swap1\n      pop\n        /* \"#utility.yul\":13990:14080   */\n      swap2\n      swap1\n      pop\n      jump\t// out\n        /* \"#utility.yul\":14086:14212   */\n    tag_434:\n        /* \"#utility.yul\":14123:14130   */\n      0x00\n        /* \"#utility.yul\":14163:14205   */\n      0xffffffffffffffffffffffffffffffffffffffff\n        /* \"#utility.yul\":14156:14161   */\n      dup3\n        /* \"#utility.yul\":14152:14206   */\n      and\n        /* \"#utility.yul\":14141:14206   */\n      swap1\n      pop\n        /* \"#utility.yul\":14086:14212   */\n      swap2\n      swap1\n      pop\n      jump\t// out\n        /* \"#utility.yul\":14218:14295   */\n    tag_370:\n        /* \"#utility.yul\":14255:14262   */\n      0x00\n        /* \"#utility.yul\":14284:14289   */\n      dup2\n        /* \"#utility.yul\":14273:14289   */\n      swap1\n      pop\n        /* \"#utility.yul\":14218:14295   */\n      swap2\n      swap1\n      pop\n      jump\t// out\n        /* \"#utility.yul\":14301:14394   */\n    tag_374:\n        /* \"#utility.yul\":14337:14344   */\n      0x00\n        /* \"#utility.yul\":14377:14387   */\n      0xffffffff\n        /* \"#utility.yul\":14370:14375   */\n      dup3\n        /* \"#utility.yul\":14366:14388   */\n      and\n        /* \"#utility.yul\":14355:14388   */\n      swap1\n      pop\n        /* \"#utility.yul\":14301:14394   */\n      swap2\n      swap1\n      pop\n      jump\t// out\n        /* \"#utility.yul\":14400:14554   */\n    tag_283:\n        /* \"#utility.yul\":14484:14490   */\n      dup3\n        /* \"#utility.yul\":14479:14482   */\n      dup2\n        /* \"#utility.yul\":14474:14477   */\n      dup4\n        /* \"#utility.yul\":14461:14491   */\n      calldatacopy\n        /* \"#utility.yul\":14546:14547   */\n      0x00\n        /* \"#utility.yul\":14537:14543   */\n      dup4\n        /* \"#utility.yul\":14532:14535   */\n      dup4\n        /* \"#utility.yul\":14528:14544   */\n      add\n        /* \"#utility.yul\":14521:14548   */\n      mstore\n        /* \"#utility.yul\":14400:14554   */\n      pop\n      pop\n      pop\n      jump\t// out\n        /* \"#utility.yul\":14560:14867   */\n    tag_349:\n        /* \"#utility.yul\":14628:14629   */\n      0x00\n        /* \"#utility.yul\":14638:14751   */\n    tag_441:\n        /* \"#utility.yul\":14652:14658   */\n      dup4\n        /* \"#utility.yul\":14649:14650   */\n      dup2\n        /* \"#utility.yul\":14646:14659   */\n      lt\n        /* \"#utility.yul\":14638:14751   */\n      iszero\n      tag_443\n      jumpi\n        /* \"#utility.yul\":14737:14738   */\n      dup1\n        /* \"#utility.yul\":14732:14735   */\n      dup3\n        /* \"#utility.yul\":14728:14739   */\n      add\n        /* \"#utility.yul\":14722:14740   */\n      mload\n        /* \"#utility.yul\":14718:14719   */\n      dup2\n        /* \"#utility.yul\":14713:14716   */\n      dup5\n        /* \"#utility.yul\":14709:14720   */\n      add\n        /* \"#utility.yul\":14702:14741   */\n      mstore\n        /* \"#utility.yul\":14674:14676   */\n      0x20\n        /* \"#utility.yul\":14671:14672   */\n      dup2\n        /* \"#utility.yul\":14667:14677   */\n      add\n        /* \"#utility.yul\":14662:14677   */\n      swap1\n      pop\n        /* \"#utility.yul\":14638:14751   */\n      jump(tag_441)\n    tag_443:\n        /* \"#utility.yul\":14769:14775   */\n      dup4\n        /* \"#utility.yul\":14766:14767   */\n      dup2\n        /* \"#utility.yul\":14763:14776   */\n      gt\n        /* \"#utility.yul\":14760:14861   */\n      iszero\n      tag_444\n      jumpi\n        /* \"#utility.yul\":14849:14850   */\n      0x00\n        /* \"#utility.yul\":14840:14846   */\n      dup5\n        /* \"#utility.yul\":14835:14838   */\n      dup5\n        /* \"#utility.yul\":14831:14847   */\n      add\n        /* \"#utility.yul\":14824:14851   */\n      mstore\n        /* \"#utility.yul\":14760:14861   */\n    tag_444:\n        /* \"#utility.yul\":14609:14867   */\n      pop\n        /* \"#utility.yul\":14560:14867   */\n      pop\n      pop\n      pop\n      jump\t// out\n        /* \"#utility.yul\":14873:15193   */\n    tag_57:\n        /* \"#utility.yul\":14917:14923   */\n      0x00\n        /* \"#utility.yul\":14954:14955   */\n      0x02\n        /* \"#utility.yul\":14948:14952   */\n      dup3\n        /* \"#utility.yul\":14944:14956   */\n      div\n        /* \"#utility.yul\":14934:14956   */\n      swap1\n      pop\n        /* \"#utility.yul\":15001:15002   */\n      0x01\n        /* \"#utility.yul\":14995:14999   */\n      dup3\n        /* \"#utility.yul\":14991:15003   */\n      and\n        /* \"#utility.yul\":15022:15040   */\n      dup1\n        /* \"#utility.yul\":15012:15093   */\n      tag_446\n      jumpi\n        /* \"#utility.yul\":15078:15082   */\n      0x7f\n        /* \"#utility.yul\":15070:15076   */\n      dup3\n        /* \"#utility.yul\":15066:15083   */\n      and\n        /* \"#utility.yul\":15056:15083   */\n      swap2\n      pop\n        /* \"#utility.yul\":15012:15093   */\n    tag_446:\n        /* \"#utility.yul\":15140:15142   */\n      0x20\n        /* \"#utility.yul\":15132:15138   */\n      dup3\n        /* \"#utility.yul\":15129:15143   */\n      lt\n        /* \"#utility.yul\":15109:15127   */\n      dup2\n        /* \"#utility.yul\":15106:15144   */\n      eq\n        /* \"#utility.yul\":15103:15187   */\n      iszero\n      tag_447\n      jumpi\n        /* \"#utility.yul\":15159:15177   */\n      tag_448\n      tag_449\n      jump\t// in\n    tag_448:\n        /* \"#utility.yul\":15103:15187   */\n    tag_447:\n        /* \"#utility.yul\":14924:15193   */\n      pop\n        /* \"#utility.yul\":14873:15193   */\n      swap2\n      swap1\n      pop\n      jump\t// out\n        /* \"#utility.yul\":15199:15480   */\n    tag_405:\n        /* \"#utility.yul\":15282:15309   */\n      tag_451\n        /* \"#utility.yul\":15304:15308   */\n      dup3\n        /* \"#utility.yul\":15282:15309   */\n      tag_351\n      jump\t// in\n    tag_451:\n        /* \"#utility.yul\":15274:15280   */\n      dup2\n        /* \"#utility.yul\":15270:15310   */\n      add\n        /* \"#utility.yul\":15412:15418   */\n      dup2\n        /* \"#utility.yul\":15400:15410   */\n      dup2\n        /* \"#utility.yul\":15397:15419   */\n      lt\n        /* \"#utility.yul\":15376:15394   */\n      0xffffffffffffffff\n        /* \"#utility.yul\":15364:15374   */\n      dup3\n        /* \"#utility.yul\":15361:15395   */\n      gt\n        /* \"#utility.yul\":15358:15420   */\n      or\n        /* \"#utility.yul\":15355:15443   */\n      iszero\n      tag_452\n      jumpi\n        /* \"#utility.yul\":15423:15441   */\n      tag_453\n      tag_410\n      jump\t// in\n    tag_453:\n        /* \"#utility.yul\":15355:15443   */\n    tag_452:\n        /* \"#utility.yul\":15463:15473   */\n      dup1\n        /* \"#utility.yul\":15459:15461   */\n      0x40\n        /* \"#utility.yul\":15452:15474   */\n      mstore\n        /* \"#utility.yul\":15242:15480   */\n      pop\n        /* \"#utility.yul\":15199:15480   */\n      pop\n      pop\n      jump\t// out\n        /* \"#utility.yul\":15486:15666   */\n    tag_425:\n        /* \"#utility.yul\":15534:15611   */\n      0x4e487b7100000000000000000000000000000000000000000000000000000000\n        /* \"#utility.yul\":15531:15532   */\n      0x00\n        /* \"#utility.yul\":15524:15612   */\n      mstore\n        /* \"#utility.yul\":15631:15635   */\n      0x11\n        /* \"#utility.yul\":15628:15629   */\n      0x04\n        /* \"#utility.yul\":15621:15636   */\n      mstore\n        /* \"#utility.yul\":15655:15659   */\n      0x24\n        /* \"#utility.yul\":15652:15653   */\n      0x00\n        /* \"#utility.yul\":15645:15660   */\n      revert\n        /* \"#utility.yul\":15672:15852   */\n    tag_449:\n        /* \"#utility.yul\":15720:15797   */\n      0x4e487b7100000000000000000000000000000000000000000000000000000000\n        /* \"#utility.yul\":15717:15718   */\n      0x00\n        /* \"#utility.yul\":15710:15798   */\n      mstore\n        /* \"#utility.yul\":15817:15821   */\n      0x22\n        /* \"#utility.yul\":15814:15815   */\n      0x04\n        /* \"#utility.yul\":15807:15822   */\n      mstore\n        /* \"#utility.yul\":15841:15845   */\n      0x24\n        /* \"#utility.yul\":15838:15839   */\n      0x00\n        /* \"#utility.yul\":15831:15846   */\n      revert\n        /* \"#utility.yul\":15858:16038   */\n    tag_83:\n        /* \"#utility.yul\":15906:15983   */\n      0x4e487b7100000000000000000000000000000000000000000000000000000000\n        /* \"#utility.yul\":15903:15904   */\n      0x00\n        /* \"#utility.yul\":15896:15984   */\n      mstore\n        /* \"#utility.yul\":16003:16007   */\n      0x32\n        /* \"#utility.yul\":16000:16001   */\n      0x04\n        /* \"#utility.yul\":15993:16008   */\n      mstore\n        /* \"#utility.yul\":16027:16031   */\n      0x24\n        /* \"#utility.yul\":16024:16025   */\n      0x00\n        /* \"#utility.yul\":16017:16032   */\n      revert\n        /* \"#utility.yul\":16044:16224   */\n    tag_410:\n        /* \"#utility.yul\":16092:16169   */\n      0x4e487b7100000000000000000000000000000000000000000000000000000000\n        /* \"#utility.yul\":16089:16090   */\n      0x00\n        /* \"#utility.yul\":16082:16170   */\n      mstore\n        /* \"#utility.yul\":16189:16193   */\n      0x41\n        /* \"#utility.yul\":16186:16187   */\n      0x04\n        /* \"#utility.yul\":16179:16194   */\n      mstore\n        /* \"#utility.yul\":16213:16217   */\n      0x24\n        /* \"#utility.yul\":16210:16211   */\n      0x00\n        /* \"#utility.yul\":16203:16218   */\n      revert\n        /* \"#utility.yul\":16230:16347   */\n    tag_271:\n        /* \"#utility.yul\":16339:16340   */\n      0x00\n        /* \"#utility.yul\":16336:16337   */\n      dup1\n        /* \"#utility.yul\":16329:16341   */\n      revert\n        /* \"#utility.yul\":16353:16470   */\n    tag_253:\n        /* \"#utility.yul\":16462:16463   */\n      0x00\n        /* \"#utility.yul\":16459:16460   */\n      dup1\n        /* \"#utility.yul\":16452:16464   */\n      revert\n        /* \"#utility.yul\":16476:16593   */\n    tag_281:\n        /* \"#utility.yul\":16585:16586   */\n      0x00\n        /* \"#utility.yul\":16582:16583   */\n      dup1\n        /* \"#utility.yul\":16575:16587   */\n      revert\n        /* \"#utility.yul\":16599:16716   */\n    tag_324:\n        /* \"#utility.yul\":16708:16709   */\n      0x00\n        /* \"#utility.yul\":16705:16706   */\n      dup1\n        /* \"#utility.yul\":16698:16710   */\n      revert\n        /* \"#utility.yul\":16722:16839   */\n    tag_316:\n        /* \"#utility.yul\":16831:16832   */\n      0x00\n        /* \"#utility.yul\":16828:16829   */\n      dup1\n        /* \"#utility.yul\":16821:16833   */\n      revert\n        /* \"#utility.yul\":16845:16947   */\n    tag_351:\n        /* \"#utility.yul\":16886:16892   */\n      0x00\n        /* \"#utility.yul\":16937:16939   */\n      0x1f\n        /* \"#utility.yul\":16933:16940   */\n      not\n        /* \"#utility.yul\":16928:16930   */\n      0x1f\n        /* \"#utility.yul\":16921:16926   */\n      dup4\n        /* \"#utility.yul\":16917:16931   */\n      add\n        /* \"#utility.yul\":16913:16941   */\n      and\n        /* \"#utility.yul\":16903:16941   */\n      swap1\n      pop\n        /* \"#utility.yul\":16845:16947   */\n      swap2\n      swap1\n      pop\n      jump\t// out\n        /* \"#utility.yul\":16953:17189   */\n    tag_356:\n        /* \"#utility.yul\":17093:17127   */\n      0x596f752068617665206e6f207065726d697373696f6e20746f20706572666f72\n        /* \"#utility.yul\":17089:17090   */\n      0x00\n        /* \"#utility.yul\":17081:17087   */\n      dup3\n        /* \"#utility.yul\":17077:17091   */\n      add\n        /* \"#utility.yul\":17070:17128   */\n      mstore\n        /* \"#utility.yul\":17162:17181   */\n      0x6d2074686973206f7065726174696f6e2e000000000000000000000000000000\n        /* \"#utility.yul\":17157:17159   */\n      0x20\n        /* \"#utility.yul\":17149:17155   */\n      dup3\n        /* \"#utility.yul\":17145:17160   */\n      add\n        /* \"#utility.yul\":17138:17182   */\n      mstore\n        /* \"#utility.yul\":16953:17189   */\n      pop\n      jump\t// out\n        /* \"#utility.yul\":17195:17499   */\n    tag_361:\n        /* \"#utility.yul\":17335:17369   */\n      0x52657175657374206f7065726174696f6e20706572666f726d6564206f757473\n        /* \"#utility.yul\":17331:17332   */\n      0x00\n        /* \"#utility.yul\":17323:17329   */\n      dup3\n        /* \"#utility.yul\":17319:17333   */\n      add\n        /* \"#utility.yul\":17312:17370   */\n      mstore\n        /* \"#utility.yul\":17404:17438   */\n      0x696465206f6620616c6c6f77656420686f757273206f72206c696d6974206f70\n        /* \"#utility.yul\":17399:17401   */\n      0x20\n        /* \"#utility.yul\":17391:17397   */\n      dup3\n        /* \"#utility.yul\":17387:17402   */\n      add\n        /* \"#utility.yul\":17380:17439   */\n      mstore\n        /* \"#utility.yul\":17473:17491   */\n      0x65726174696f6e20657863656564656400000000000000000000000000000000\n        /* \"#utility.yul\":17468:17470   */\n      0x40\n        /* \"#utility.yul\":17460:17466   */\n      dup3\n        /* \"#utility.yul\":17456:17471   */\n      add\n        /* \"#utility.yul\":17449:17492   */\n      mstore\n        /* \"#utility.yul\":17195:17499   */\n      pop\n      jump\t// out\n        /* \"#utility.yul\":17505:17742   */\n    tag_366:\n        /* \"#utility.yul\":17645:17679   */\n      0x457863656564656420726573706f6e73652074696d65206f72206d6573736167\n        /* \"#utility.yul\":17641:17642   */\n      0x00\n        /* \"#utility.yul\":17633:17639   */\n      dup3\n        /* \"#utility.yul\":17629:17643   */\n      add\n        /* \"#utility.yul\":17622:17680   */\n      mstore\n        /* \"#utility.yul\":17714:17734   */\n      0x6520636f6e74656e74206d69736d617463680000000000000000000000000000\n        /* \"#utility.yul\":17709:17711   */\n      0x20\n        /* \"#utility.yul\":17701:17707   */\n      dup3\n        /* \"#utility.yul\":17697:17712   */\n      add\n        /* \"#utility.yul\":17690:17735   */\n      mstore\n        /* \"#utility.yul\":17505:17742   */\n      pop\n      jump\t// out\n        /* \"#utility.yul\":17748:17870   */\n    tag_287:\n        /* \"#utility.yul\":17821:17845   */\n      tag_468\n        /* \"#utility.yul\":17839:17844   */\n      dup2\n        /* \"#utility.yul\":17821:17845   */\n      tag_431\n      jump\t// in\n    tag_468:\n        /* \"#utility.yul\":17814:17819   */\n      dup2\n        /* \"#utility.yul\":17811:17846   */\n      eq\n        /* \"#utility.yul\":17801:17864   */\n      tag_469\n      jumpi\n        /* \"#utility.yul\":17860:17861   */\n      0x00\n        /* \"#utility.yul\":17857:17858   */\n      dup1\n        /* \"#utility.yul\":17850:17862   */\n      revert\n        /* \"#utility.yul\":17801:17864   */\n    tag_469:\n        /* \"#utility.yul\":17748:17870   */\n      pop\n      jump\t// out\n        /* \"#utility.yul\":17876:17992   */\n    tag_300:\n        /* \"#utility.yul\":17946:17967   */\n      tag_471\n        /* \"#utility.yul\":17961:17966   */\n      dup2\n        /* \"#utility.yul\":17946:17967   */\n      tag_341\n      jump\t// in\n    tag_471:\n        /* \"#utility.yul\":17939:17944   */\n      dup2\n        /* \"#utility.yul\":17936:17968   */\n      eq\n        /* \"#utility.yul\":17926:17986   */\n      tag_472\n      jumpi\n        /* \"#utility.yul\":17982:17983   */\n      0x00\n        /* \"#utility.yul\":17979:17980   */\n      dup1\n        /* \"#utility.yul\":17972:17984   */\n      revert\n        /* \"#utility.yul\":17926:17986   */\n    tag_472:\n        /* \"#utility.yul\":17876:17992   */\n      pop\n      jump\t// out\n        /* \"#utility.yul\":17998:18120   */\n    tag_308:\n        /* \"#utility.yul\":18071:18095   */\n      tag_474\n        /* \"#utility.yul\":18089:18094   */\n      dup2\n        /* \"#utility.yul\":18071:18095   */\n      tag_370\n      jump\t// in\n    tag_474:\n        /* \"#utility.yul\":18064:18069   */\n      dup2\n        /* \"#utility.yul\":18061:18096   */\n      eq\n        /* \"#utility.yul\":18051:18114   */\n      tag_475\n      jumpi\n        /* \"#utility.yul\":18110:18111   */\n      0x00\n        /* \"#utility.yul\":18107:18108   */\n      dup1\n        /* \"#utility.yul\":18100:18112   */\n      revert\n        /* \"#utility.yul\":18051:18114   */\n    tag_475:\n        /* \"#utility.yul\":17998:18120   */\n      pop\n      jump\t// out\n        /* \"#utility.yul\":18126:18246   */\n    tag_312:\n        /* \"#utility.yul\":18198:18221   */\n      tag_477\n        /* \"#utility.yul\":18215:18220   */\n      dup2\n        /* \"#utility.yul\":18198:18221   */\n      tag_374\n      jump\t// in\n    tag_477:\n        /* \"#utility.yul\":18191:18196   */\n      dup2\n        /* \"#utility.yul\":18188:18222   */\n      eq\n        /* \"#utility.yul\":18178:18240   */\n      tag_478\n      jumpi\n        /* \"#utility.yul\":18236:18237   */\n      0x00\n        /* \"#utility.yul\":18233:18234   */\n      dup1\n        /* \"#utility.yul\":18226:18238   */\n      revert\n        /* \"#utility.yul\":18178:18240   */\n    tag_478:\n        /* \"#utility.yul\":18126:18246   */\n      pop\n      jump\t// out\n\n    auxdata: 0xa26469706673582212204695695a47841fa209b13f06be6e321dff1a5dbcd88dc6fc49d57e1d2dacf0bb64736f6c63430008070033\n}\n",
				"bytecode": {
					"linkReferences": {},
					"object": "60806040526361d00a006000806101000a81548163ffffffff021916908363ffffffff1602179055506363b078a0600060046101000a81548163ffffffff021916908363ffffffff1602179055503480156200005a57600080fd5b5060405162002e5438038062002e54833981810160405281019062000080919062000bfc565b60405180604001604052806040518060400160405280600f81526020017f44656c69766572792073797374656d000000000000000000000000000000000081525081526020018373ffffffffffffffffffffffffffffffffffffffff16815250600160008201518160000190805190602001906200010092919062000b35565b5060208201518160010160006101000a81548173ffffffffffffffffffffffffffffffffffffffff021916908373ffffffffffffffffffffffffffffffffffffffff16021790555090505060405180604001604052806040518060400160405280601381526020017f496e746567726174696f6e2070726f636573730000000000000000000000000081525081526020018273ffffffffffffffffffffffffffffffffffffffff1681525060036000820151816000019080519060200190620001cb92919062000b35565b5060208201518160010160006101000a81548173ffffffffffffffffffffffffffffffffffffffff021916908373ffffffffffffffffffffffffffffffffffffffff160217905550905050600560405180604001604052806001815260200160058152509080600181540180825580915050600190039060005260206000209060020201600090919091909150600082015181600001556020820151816001015550506006604051806040016040528061708063ffffffff16815260200161fd2063ffffffff168152509080600181540180825580915050600190039060005260206000200160009091909190915060008201518160000160006101000a81548163ffffffff021916908363ffffffff16021790555060208201518160000160046101000a81548163ffffffff021916908363ffffffff1602179055505050600760405180608001604052806005815260200160048152602001600081526020016000815250908060018154018082558091505060019003906000526020600020906004020160009091909190915060008201518160000155602082015181600101556040820151816002015560608201518160030155505060086040518060c001604052806040518060400160405280601081526020017f636f756e74282f2f61646472657373290000000000000000000000000000000081525081526020016040518060400160405280600281526020017f3e3d00000000000000000000000000000000000000000000000000000000000081525081526020016040518060400160405280600181526020017f3100000000000000000000000000000000000000000000000000000000000000815250815260200160008152602001600081526020016000815250908060018154018082558091505060019003906000526020600020906006020160009091909190915060008201518160000190805190602001906200049c92919062000b35565b506020820151816001019080519060200190620004bb92919062000b35565b506040820151816002019080519060200190620004da92919062000b35565b50606082015181600301556080820151816004015560a08201518160050155505060086040518060c001604052806040518060400160405280601081526020017f636f756e74282f2f61646472657373290000000000000000000000000000000081525081526020016040518060400160405280600281526020017f3c3d00000000000000000000000000000000000000000000000000000000000081525081526020016040518060400160405280600181526020017f3300000000000000000000000000000000000000000000000000000000000000815250815260200160008152602001600081526020016000815250908060018154018082558091505060019003906000526020600020906006020160009091909190915060008201518160000190805190602001906200061392919062000b35565b5060208201518160010190805190602001906200063292919062000b35565b5060408201518160020190805190602001906200065192919062000b35565b50606082015181600301556080820151816004015560a08201518160050155505060086040518060c001604052806040518060400160405280601081526020017f636f756e74282f2f61646472657373290000000000000000000000000000000081525081526020016040518060400160405280600281526020017f3c3d00000000000000000000000000000000000000000000000000000000000081525081526020016040518060400160405280600381526020017f32303000000000000000000000000000000000000000000000000000000000008152508152602001600681526020016200076060008054906101000a900463ffffffff1663ffffffff16600662000a0360201b60201c565b8152602001600081525090806001815401808255809150506001900390600052602060002090600602016000909190919091506000820151816000019080519060200190620007b192919062000b35565b506020820151816001019080519060200190620007d092919062000b35565b506040820151816002019080519060200190620007ef92919062000b35565b50606082015181600301556080820151816004015560a0820151816005015550506009604051806040016040528060b463ffffffff168152602001600063ffffffff168152509080600181540180825580915050600190039060005260206000200160009091909190915060008201518160000160006101000a81548163ffffffff021916908363ffffffff16021790555060208201518160000160046101000a81548163ffffffff021916908363ffffffff1602179055505050600a6040518060c001604052806040518060400160405280601281526020017f2f2f6275646765742f69642f746578742829000000000000000000000000000081525081526020016040518060400160405280600281526020017f213d000000000000000000000000000000000000000000000000000000000000815250815260200160405180602001604052806000815250815260200160008152602001600081526020016000815250908060018154018082558091505060019003906000526020600020906006020160009091909190915060008201518160000190805190602001906200099c92919062000b35565b506020820151816001019080519060200190620009bb92919062000b35565b506040820151816002019080519060200190620009da92919062000b35565b50606082015181600301556080820151816004015560a082015181600501555050505062000f60565b60008062000a178362000a3060201b60201c565b9050808462000a27919062000d6f565b91505092915050565b6000808211801562000a425750600882105b8260405160200162000a55919062000ced565b6040516020818303038152906040529062000aa8576040517f08c379a000000000000000000000000000000000000000000000000000000000815260040162000a9f919062000d24565b60405180910390fd5b50600182141562000abd576001905062000b30565b600282141562000ad157603c905062000b30565b600382141562000ae657610e10905062000b30565b600482141562000afc5762015180905062000b30565b600582141562000b125762093a80905062000b30565b600682141562000b285762278d00905062000b30565b6301e1338090505b919050565b82805462000b439062000e40565b90600052602060002090601f01602090048101928262000b67576000855562000bb3565b82601f1062000b8257805160ff191683800117855562000bb3565b8280016001018555821562000bb3579182015b8281111562000bb257825182559160200191906001019062000b95565b5b50905062000bc2919062000bc6565b5090565b5b8082111562000be157600081600090555060010162000bc7565b5090565b60008151905062000bf68162000f46565b92915050565b6000806040838503121562000c165762000c1562000ede565b5b600062000c268582860162000be5565b925050602062000c398582860162000be5565b9150509250929050565b600062000c508262000d48565b62000c5c818562000d53565b935062000c6e81856020860162000e0a565b62000c798162000ee3565b840191505092915050565b600062000c93600b8362000d64565b915062000ca08262000ef4565b600b82019050919050565b600062000cba60168362000d64565b915062000cc78262000f1d565b601682019050919050565b62000ce762000ce18262000e00565b62000e76565b82525050565b600062000cfa8262000c84565b915062000d08828462000cd2565b60208201915062000d198262000cab565b915081905092915050565b6000602082019050818103600083015262000d40818462000c43565b905092915050565b600081519050919050565b600082825260208201905092915050565b600081905092915050565b600062000d7c8262000e00565b915062000d898362000e00565b9250827fffffffffffffffffffffffffffffffffffffffffffffffffffffffffffffffff0382111562000dc15762000dc062000e80565b5b828201905092915050565b600062000dd98262000de0565b9050919050565b600073ffffffffffffffffffffffffffffffffffffffff82169050919050565b6000819050919050565b60005b8381101562000e2a57808201518184015260208101905062000e0d565b8381111562000e3a576000848401525b50505050565b6000600282049050600182168062000e5957607f821691505b6020821081141562000e705762000e6f62000eaf565b5b50919050565b6000819050919050565b7f4e487b7100000000000000000000000000000000000000000000000000000000600052601160045260246000fd5b7f4e487b7100000000000000000000000000000000000000000000000000000000600052602260045260246000fd5b600080fd5b6000601f19601f8301169050919050565b7f5468652076616c75653a20000000000000000000000000000000000000000000600082015250565b7f2c20697320696e76616c69642074696d6520756e697400000000000000000000600082015250565b62000f518162000dcc565b811462000f5d57600080fd5b50565b611ee48062000f706000396000f3fe608060405234801561001057600080fd5b50600436106100885760003560e01c806379bc473b1161005b57806379bc473b146101575780639209192014610187578063cc58fd8c146101b7578063f73f91bf146101e857610088565b806308148f7a1461008d57806320ac908b146100be578063736724a7146100f3578063738a612214610124575b600080fd5b6100a760048036038101906100a29190611670565b61021d565b6040516100b59291906119d9565b60405180910390f35b6100d860048036038101906100d39190611670565b61026d565b6040516100ea96959493929190611895565b60405180910390f35b61010d60048036038101906101089190611670565b610451565b60405161011b92919061196b565b60405180910390f35b61013e60048036038101906101399190611670565b610485565b60405161014e9493929190611994565b60405180910390f35b610171600480360381019061016c919061170c565b6104c5565b60405161017e919061187a565b60405180910390f35b6101a1600480360381019061019c919061169d565b610852565b6040516101ae919061187a565b60405180910390f35b6101d160048036038101906101cc9190611670565b6111d3565b6040516101df9291906119d9565b60405180910390f35b61020260048036038101906101fd9190611670565b611223565b60405161021496959493929190611895565b60405180910390f35b6009818154811061022d57600080fd5b906000526020600020016000915090508060000160009054906101000a900463ffffffff16908060000160049054906101000a900463ffffffff16905082565b6008818154811061027d57600080fd5b90600052602060002090600602016000915090508060000180546102a090611bf6565b80601f01602080910402602001604051908101604052809291908181526020018280546102cc90611bf6565b80156103195780601f106102ee57610100808354040283529160200191610319565b820191906000526020600020905b8154815290600101906020018083116102fc57829003601f168201915b50505050509080600101805461032e90611bf6565b80601f016020809104026020016040519081016040528092919081815260200182805461035a90611bf6565b80156103a75780601f1061037c576101008083540402835291602001916103a7565b820191906000526020600020905b81548152906001019060200180831161038a57829003601f168201915b5050505050908060020180546103bc90611bf6565b80601f01602080910402602001604051908101604052809291908181526020018280546103e890611bf6565b80156104355780601f1061040a57610100808354040283529160200191610435565b820191906000526020600020905b81548152906001019060200180831161041857829003601f168201915b5050505050908060030154908060040154908060050154905086565b6005818154811061046157600080fd5b90600052602060002090600202016000915090508060000154908060010154905082565b6007818154811061049557600080fd5b90600052602060002090600402016000915090508060000154908060010154908060020154908060030154905084565b60006001800160009054906101000a900473ffffffffffffffffffffffffffffffffffffffff1673ffffffffffffffffffffffffffffffffffffffff168273ffffffffffffffffffffffffffffffffffffffff1614610559576040517f08c379a00000000000000000000000000000000000000000000000000000000081526004016105509061190b565b60405180910390fd5b61059585600960008154811061057257610571611cb7565b5b9060005260206000200160000160049054906101000a900463ffffffff16611407565b1580156107c457506107c3600a6000815481106105b5576105b4611cb7565b5b90600052602060002090600602016040518060c00160405290816000820180546105de90611bf6565b80601f016020809104026020016040519081016040528092919081815260200182805461060a90611bf6565b80156106575780601f1061062c57610100808354040283529160200191610657565b820191906000526020600020905b81548152906001019060200180831161063a57829003601f168201915b5050505050815260200160018201805461067090611bf6565b80601f016020809104026020016040519081016040528092919081815260200182805461069c90611bf6565b80156106e95780601f106106be576101008083540402835291602001916106e9565b820191906000526020600020905b8154815290600101906020018083116106cc57829003601f168201915b5050505050815260200160028201805461070290611bf6565b80601f016020809104026020016040519081016040528092919081815260200182805461072e90611bf6565b801561077b5780601f106107505761010080835404028352916020019161077b565b820191906000526020600020905b81548152906001019060200180831161075e57829003601f168201915b505050505081526020016003820154815260200160048201548152602001600582015481525050856000815181106107b6576107b5611cb7565b5b6020026020010151611413565b5b1561081057600160076000815481106107e0576107df611cb7565b5b906000526020600020906004020160030160008282546108009190611acc565b925050819055506001905061084a565b7f66091b7dc2b097c8f60d5cd6aa99633b097f08d2eb1056f3e15361b22e0ea2ba60405161083d9061194b565b60405180910390a1600090505b949350505050565b6000600360010160009054906101000a900473ffffffffffffffffffffffffffffffffffffffff1673ffffffffffffffffffffffffffffffffffffffff168273ffffffffffffffffffffffffffffffffffffffff16146108e7576040517f08c379a00000000000000000000000000000000000000000000000000000000081526004016108de9061190b565b60405180910390fd5b610913846005600081548110610900576108ff611cb7565b5b906000526020600020906002020161141f565b80156109a0575061099f8463ffffffff16600660008154811061093957610938611cb7565b5b906000526020600020016040518060400160405290816000820160009054906101000a900463ffffffff1663ffffffff1663ffffffff1681526020016000820160049054906101000a900463ffffffff1663ffffffff1663ffffffff168152505061142b565b5b8015610a7e5750610a7c8460066000815481106109c0576109bf611cb7565b5b906000526020600020016040518060400160405290816000820160009054906101000a900463ffffffff1663ffffffff1663ffffffff1681526020016000820160049054906101000a900463ffffffff1663ffffffff1663ffffffff16815250506007600081548110610a3657610a35611cb7565b5b9060005260206000209060040201604051806080016040529081600082015481526020016001820154815260200160028201548152602001600382015481525050611433565b155b8015610cac5750610cab6008600081548110610a9d57610a9c611cb7565b5b90600052602060002090600602016040518060c0016040529081600082018054610ac690611bf6565b80601f0160208091040260200160405190810160405280929190818152602001828054610af290611bf6565b8015610b3f5780601f10610b1457610100808354040283529160200191610b3f565b820191906000526020600020905b815481529060010190602001808311610b2257829003601f168201915b50505050508152602001600182018054610b5890611bf6565b80601f0160208091040260200160405190810160405280929190818152602001828054610b8490611bf6565b8015610bd15780601f10610ba657610100808354040283529160200191610bd1565b820191906000526020600020905b815481529060010190602001808311610bb457829003601f168201915b50505050508152602001600282018054610bea90611bf6565b80601f0160208091040260200160405190810160405280929190818152602001828054610c1690611bf6565b8015610c635780601f10610c3857610100808354040283529160200191610c63565b820191906000526020600020905b815481529060010190602001808311610c4657829003601f168201915b50505050508152602001600382015481526020016004820154815260200160058201548152505084600081518110610c9e57610c9d611cb7565b5b6020026020010151611413565b5b8015610eda5750610ed96008600181548110610ccb57610cca611cb7565b5b90600052602060002090600602016040518060c0016040529081600082018054610cf490611bf6565b80601f0160208091040260200160405190810160405280929190818152602001828054610d2090611bf6565b8015610d6d5780601f10610d4257610100808354040283529160200191610d6d565b820191906000526020600020905b815481529060010190602001808311610d5057829003601f168201915b50505050508152602001600182018054610d8690611bf6565b80601f0160208091040260200160405190810160405280929190818152602001828054610db290611bf6565b8015610dff5780601f10610dd457610100808354040283529160200191610dff565b820191906000526020600020905b815481529060010190602001808311610de257829003601f168201915b50505050508152602001600282018054610e1890611bf6565b80601f0160208091040260200160405190810160405280929190818152602001828054610e4490611bf6565b8015610e915780601f10610e6657610100808354040283529160200191610e91565b820191906000526020600020905b815481529060010190602001808311610e7457829003601f168201915b50505050508152602001600382015481526020016004820154815260200160058201548152505084600181518110610ecc57610ecb611cb7565b5b6020026020010151611413565b5b801561110857506111076008600281548110610ef957610ef8611cb7565b5b90600052602060002090600602016040518060c0016040529081600082018054610f2290611bf6565b80601f0160208091040260200160405190810160405280929190818152602001828054610f4e90611bf6565b8015610f9b5780601f10610f7057610100808354040283529160200191610f9b565b820191906000526020600020905b815481529060010190602001808311610f7e57829003601f168201915b50505050508152602001600182018054610fb490611bf6565b80601f0160208091040260200160405190810160405280929190818152602001828054610fe090611bf6565b801561102d5780601f106110025761010080835404028352916020019161102d565b820191906000526020600020905b81548152906001019060200180831161101057829003601f168201915b5050505050815260200160028201805461104690611bf6565b80601f016020809104026020016040519081016040528092919081815260200182805461107290611bf6565b80156110bf5780601f10611094576101008083540402835291602001916110bf565b820191906000526020600020905b8154815290600101906020018083116110a257829003601f168201915b505050505081526020016003820154815260200160048201548152602001600582015481525050846002815181106110fa576110f9611cb7565b5b6020026020010151611413565b5b156111925761114984600960008154811061112657611125611cb7565b5b9060005260206000200160000160009054906101000a900463ffffffff1661143c565b600960008154811061115e5761115d611cb7565b5b9060005260206000200160000160046101000a81548163ffffffff021916908363ffffffff160217905550600190506111cc565b7f66091b7dc2b097c8f60d5cd6aa99633b097f08d2eb1056f3e15361b22e0ea2ba6040516111bf9061192b565b60405180910390a1600090505b9392505050565b600681815481106111e357600080fd5b906000526020600020016000915090508060000160009054906101000a900463ffffffff16908060000160049054906101000a900463ffffffff16905082565b600a818154811061123357600080fd5b906000526020600020906006020160009150905080600001805461125690611bf6565b80601f016020809104026020016040519081016040528092919081815260200182805461128290611bf6565b80156112cf5780601f106112a4576101008083540402835291602001916112cf565b820191906000526020600020905b8154815290600101906020018083116112b257829003601f168201915b5050505050908060010180546112e490611bf6565b80601f016020809104026020016040519081016040528092919081815260200182805461131090611bf6565b801561135d5780601f106113325761010080835404028352916020019161135d565b820191906000526020600020905b81548152906001019060200180831161134057829003601f168201915b50505050509080600201805461137290611bf6565b80601f016020809104026020016040519081016040528092919081815260200182805461139e90611bf6565b80156113eb5780601f106113c0576101008083540402835291602001916113eb565b820191906000526020600020905b8154815290600101906020018083116113ce57829003601f168201915b5050505050908060030154908060040154908060050154905086565b60006001905092915050565b60006001905092915050565b60006001905092915050565b600092915050565b60009392505050565b6000818361144a9190611b22565b905092915050565b600061146561146084611a27565b611a02565b9050808382526020820190508285602086028201111561148857611487611d1a565b5b60005b858110156114b8578161149e8882611603565b84526020840193506020830192505060018101905061148b565b5050509392505050565b60006114d56114d084611a53565b611a02565b905080838252602082019050828560208602820111156114f8576114f7611d1a565b5b60005b8581101561154657813567ffffffffffffffff81111561151e5761151d611d15565b5b80860161152b8982611618565b855260208501945060208401935050506001810190506114fb565b5050509392505050565b600061156361155e84611a7f565b611a02565b90508281526020810184848401111561157f5761157e611d1f565b5b61158a848285611bb4565b509392505050565b6000813590506115a181611e52565b92915050565b600082601f8301126115bc576115bb611d15565b5b81356115cc848260208601611452565b91505092915050565b600082601f8301126115ea576115e9611d15565b5b81356115fa8482602086016114c2565b91505092915050565b60008135905061161281611e69565b92915050565b600082601f83011261162d5761162c611d15565b5b813561163d848260208601611550565b91505092915050565b60008135905061165581611e80565b92915050565b60008135905061166a81611e97565b92915050565b60006020828403121561168657611685611d29565b5b600061169484828501611646565b91505092915050565b6000806000606084860312156116b6576116b5611d29565b5b60006116c48682870161165b565b935050602084013567ffffffffffffffff8111156116e5576116e4611d24565b5b6116f1868287016115d5565b925050604061170286828701611592565b9150509250925092565b6000806000806080858703121561172657611725611d29565b5b60006117348782880161165b565b945050602085013567ffffffffffffffff81111561175557611754611d24565b5b611761878288016115d5565b935050604085013567ffffffffffffffff81111561178257611781611d24565b5b61178e878288016115a7565b925050606061179f87828801611592565b91505092959194509250565b6117b481611b6e565b82525050565b60006117c582611ab0565b6117cf8185611abb565b93506117df818560208601611bc3565b6117e881611d2e565b840191505092915050565b6000611800603183611abb565b915061180b82611d3f565b604082019050919050565b6000611823605083611abb565b915061182e82611d8e565b606082019050919050565b6000611846603283611abb565b915061185182611e03565b604082019050919050565b61186581611b9a565b82525050565b61187481611ba4565b82525050565b600060208201905061188f60008301846117ab565b92915050565b600060c08201905081810360008301526118af81896117ba565b905081810360208301526118c381886117ba565b905081810360408301526118d781876117ba565b90506118e6606083018661185c565b6118f3608083018561185c565b61190060a083018461185c565b979650505050505050565b60006020820190508181036000830152611924816117f3565b9050919050565b6000602082019050818103600083015261194481611816565b9050919050565b6000602082019050818103600083015261196481611839565b9050919050565b6000604082019050611980600083018561185c565b61198d602083018461185c565b9392505050565b60006080820190506119a9600083018761185c565b6119b6602083018661185c565b6119c3604083018561185c565b6119d0606083018461185c565b95945050505050565b60006040820190506119ee600083018561186b565b6119fb602083018461186b565b9392505050565b6000611a0c611a1d565b9050611a188282611c28565b919050565b6000604051905090565b600067ffffffffffffffff821115611a4257611a41611ce6565b5b602082029050602081019050919050565b600067ffffffffffffffff821115611a6e57611a6d611ce6565b5b602082029050602081019050919050565b600067ffffffffffffffff821115611a9a57611a99611ce6565b5b611aa382611d2e565b9050602081019050919050565b600081519050919050565b600082825260208201905092915050565b6000611ad782611b9a565b9150611ae283611b9a565b9250827fffffffffffffffffffffffffffffffffffffffffffffffffffffffffffffffff03821115611b1757611b16611c59565b5b828201905092915050565b6000611b2d82611ba4565b9150611b3883611ba4565b92508263ffffffff03821115611b5157611b50611c59565b5b828201905092915050565b6000611b6782611b7a565b9050919050565b60008115159050919050565b600073ffffffffffffffffffffffffffffffffffffffff82169050919050565b6000819050919050565b600063ffffffff82169050919050565b82818337600083830152505050565b60005b83811015611be1578082015181840152602081019050611bc6565b83811115611bf0576000848401525b50505050565b60006002820490506001821680611c0e57607f821691505b60208210811415611c2257611c21611c88565b5b50919050565b611c3182611d2e565b810181811067ffffffffffffffff82111715611c5057611c4f611ce6565b5b80604052505050565b7f4e487b7100000000000000000000000000000000000000000000000000000000600052601160045260246000fd5b7f4e487b7100000000000000000000000000000000000000000000000000000000600052602260045260246000fd5b7f4e487b7100000000000000000000000000000000000000000000000000000000600052603260045260246000fd5b7f4e487b7100000000000000000000000000000000000000000000000000000000600052604160045260246000fd5b600080fd5b600080fd5b600080fd5b600080fd5b600080fd5b6000601f19601f8301169050919050565b7f596f752068617665206e6f207065726d697373696f6e20746f20706572666f7260008201527f6d2074686973206f7065726174696f6e2e000000000000000000000000000000602082015250565b7f52657175657374206f7065726174696f6e20706572666f726d6564206f75747360008201527f696465206f6620616c6c6f77656420686f757273206f72206c696d6974206f7060208201527f65726174696f6e20657863656564656400000000000000000000000000000000604082015250565b7f457863656564656420726573706f6e73652074696d65206f72206d657373616760008201527f6520636f6e74656e74206d69736d617463680000000000000000000000000000602082015250565b611e5b81611b5c565b8114611e6657600080fd5b50565b611e7281611b6e565b8114611e7d57600080fd5b50565b611e8981611b9a565b8114611e9457600080fd5b50565b611ea081611ba4565b8114611eab57600080fd5b5056fea26469706673582212204695695a47841fa209b13f06be6e321dff1a5dbcd88dc6fc49d57e1d2dacf0bb64736f6c63430008070033",
					"opcodes": "PUSH1 0x80 PUSH1 0x40 MSTORE PUSH4 0x61D00A00 PUSH1 0x0 DUP1 PUSH2 0x100 EXP DUP2 SLOAD DUP2 PUSH4 0xFFFFFFFF MUL NOT AND SWAP1 DUP4 PUSH4 0xFFFFFFFF AND MUL OR SWAP1 SSTORE POP PUSH4 0x63B078A0 PUSH1 0x0 PUSH1 0x4 PUSH2 0x100 EXP DUP2 SLOAD DUP2 PUSH4 0xFFFFFFFF MUL NOT AND SWAP1 DUP4 PUSH4 0xFFFFFFFF AND MUL OR SWAP1 SSTORE POP CALLVALUE DUP1 ISZERO PUSH3 0x5A JUMPI PUSH1 0x0 DUP1 REVERT JUMPDEST POP PUSH1 0x40 MLOAD PUSH3 0x2E54 CODESIZE SUB DUP1 PUSH3 0x2E54 DUP4 CODECOPY DUP2 DUP2 ADD PUSH1 0x40 MSTORE DUP2 ADD SWAP1 PUSH3 0x80 SWAP2 SWAP1 PUSH3 0xBFC JUMP JUMPDEST PUSH1 0x40 MLOAD DUP1 PUSH1 0x40 ADD PUSH1 0x40 MSTORE DUP1 PUSH1 0x40 MLOAD DUP1 PUSH1 0x40 ADD PUSH1 0x40 MSTORE DUP1 PUSH1 0xF DUP2 MSTORE PUSH1 0x20 ADD PUSH32 0x44656C69766572792073797374656D0000000000000000000000000000000000 DUP2 MSTORE POP DUP2 MSTORE PUSH1 0x20 ADD DUP4 PUSH20 0xFFFFFFFFFFFFFFFFFFFFFFFFFFFFFFFFFFFFFFFF AND DUP2 MSTORE POP PUSH1 0x1 PUSH1 0x0 DUP3 ADD MLOAD DUP2 PUSH1 0x0 ADD SWAP1 DUP1 MLOAD SWAP1 PUSH1 0x20 ADD SWAP1 PUSH3 0x100 SWAP3 SWAP2 SWAP1 PUSH3 0xB35 JUMP JUMPDEST POP PUSH1 0x20 DUP3 ADD MLOAD DUP2 PUSH1 0x1 ADD PUSH1 0x0 PUSH2 0x100 EXP DUP2 SLOAD DUP2 PUSH20 0xFFFFFFFFFFFFFFFFFFFFFFFFFFFFFFFFFFFFFFFF MUL NOT AND SWAP1 DUP4 PUSH20 0xFFFFFFFFFFFFFFFFFFFFFFFFFFFFFFFFFFFFFFFF AND MUL OR SWAP1 SSTORE POP SWAP1 POP POP PUSH1 0x40 MLOAD DUP1 PUSH1 0x40 ADD PUSH1 0x40 MSTORE DUP1 PUSH1 0x40 MLOAD DUP1 PUSH1 0x40 ADD PUSH1 0x40 MSTORE DUP1 PUSH1 0x13 DUP2 MSTORE PUSH1 0x20 ADD PUSH32 0x496E746567726174696F6E2070726F6365737300000000000000000000000000 DUP2 MSTORE POP DUP2 MSTORE PUSH1 0x20 ADD DUP3 PUSH20 0xFFFFFFFFFFFFFFFFFFFFFFFFFFFFFFFFFFFFFFFF AND DUP2 MSTORE POP PUSH1 0x3 PUSH1 0x0 DUP3 ADD MLOAD DUP2 PUSH1 0x0 ADD SWAP1 DUP1 MLOAD SWAP1 PUSH1 0x20 ADD SWAP1 PUSH3 0x1CB SWAP3 SWAP2 SWAP1 PUSH3 0xB35 JUMP JUMPDEST POP PUSH1 0x20 DUP3 ADD MLOAD DUP2 PUSH1 0x1 ADD PUSH1 0x0 PUSH2 0x100 EXP DUP2 SLOAD DUP2 PUSH20 0xFFFFFFFFFFFFFFFFFFFFFFFFFFFFFFFFFFFFFFFF MUL NOT AND SWAP1 DUP4 PUSH20 0xFFFFFFFFFFFFFFFFFFFFFFFFFFFFFFFFFFFFFFFF AND MUL OR SWAP1 SSTORE POP SWAP1 POP POP PUSH1 0x5 PUSH1 0x40 MLOAD DUP1 PUSH1 0x40 ADD PUSH1 0x40 MSTORE DUP1 PUSH1 0x1 DUP2 MSTORE PUSH1 0x20 ADD PUSH1 0x5 DUP2 MSTORE POP SWAP1 DUP1 PUSH1 0x1 DUP2 SLOAD ADD DUP1 DUP3 SSTORE DUP1 SWAP2 POP POP PUSH1 0x1 SWAP1 SUB SWAP1 PUSH1 0x0 MSTORE PUSH1 0x20 PUSH1 0x0 KECCAK256 SWAP1 PUSH1 0x2 MUL ADD PUSH1 0x0 SWAP1 SWAP2 SWAP1 SWAP2 SWAP1 SWAP2 POP PUSH1 0x0 DUP3 ADD MLOAD DUP2 PUSH1 0x0 ADD SSTORE PUSH1 0x20 DUP3 ADD MLOAD DUP2 PUSH1 0x1 ADD SSTORE POP POP PUSH1 0x6 PUSH1 0x40 MLOAD DUP1 PUSH1 0x40 ADD PUSH1 0x40 MSTORE DUP1 PUSH2 0x7080 PUSH4 0xFFFFFFFF AND DUP2 MSTORE PUSH1 0x20 ADD PUSH2 0xFD20 PUSH4 0xFFFFFFFF AND DUP2 MSTORE POP SWAP1 DUP1 PUSH1 0x1 DUP2 SLOAD ADD DUP1 DUP3 SSTORE DUP1 SWAP2 POP POP PUSH1 0x1 SWAP1 SUB SWAP1 PUSH1 0x0 MSTORE PUSH1 0x20 PUSH1 0x0 KECCAK256 ADD PUSH1 0x0 SWAP1 SWAP2 SWAP1 SWAP2 SWAP1 SWAP2 POP PUSH1 0x0 DUP3 ADD MLOAD DUP2 PUSH1 0x0 ADD PUSH1 0x0 PUSH2 0x100 EXP DUP2 SLOAD DUP2 PUSH4 0xFFFFFFFF MUL NOT AND SWAP1 DUP4 PUSH4 0xFFFFFFFF AND MUL OR SWAP1 SSTORE POP PUSH1 0x20 DUP3 ADD MLOAD DUP2 PUSH1 0x0 ADD PUSH1 0x4 PUSH2 0x100 EXP DUP2 SLOAD DUP2 PUSH4 0xFFFFFFFF MUL NOT AND SWAP1 DUP4 PUSH4 0xFFFFFFFF AND MUL OR SWAP1 SSTORE POP POP POP PUSH1 0x7 PUSH1 0x40 MLOAD DUP1 PUSH1 0x80 ADD PUSH1 0x40 MSTORE DUP1 PUSH1 0x5 DUP2 MSTORE PUSH1 0x20 ADD PUSH1 0x4 DUP2 MSTORE PUSH1 0x20 ADD PUSH1 0x0 DUP2 MSTORE PUSH1 0x20 ADD PUSH1 0x0 DUP2 MSTORE POP SWAP1 DUP1 PUSH1 0x1 DUP2 SLOAD ADD DUP1 DUP3 SSTORE DUP1 SWAP2 POP POP PUSH1 0x1 SWAP1 SUB SWAP1 PUSH1 0x0 MSTORE PUSH1 0x20 PUSH1 0x0 KECCAK256 SWAP1 PUSH1 0x4 MUL ADD PUSH1 0x0 SWAP1 SWAP2 SWAP1 SWAP2 SWAP1 SWAP2 POP PUSH1 0x0 DUP3 ADD MLOAD DUP2 PUSH1 0x0 ADD SSTORE PUSH1 0x20 DUP3 ADD MLOAD DUP2 PUSH1 0x1 ADD SSTORE PUSH1 0x40 DUP3 ADD MLOAD DUP2 PUSH1 0x2 ADD SSTORE PUSH1 0x60 DUP3 ADD MLOAD DUP2 PUSH1 0x3 ADD SSTORE POP POP PUSH1 0x8 PUSH1 0x40 MLOAD DUP1 PUSH1 0xC0 ADD PUSH1 0x40 MSTORE DUP1 PUSH1 0x40 MLOAD DUP1 PUSH1 0x40 ADD PUSH1 0x40 MSTORE DUP1 PUSH1 0x10 DUP2 MSTORE PUSH1 0x20 ADD PUSH32 0x636F756E74282F2F616464726573732900000000000000000000000000000000 DUP2 MSTORE POP DUP2 MSTORE PUSH1 0x20 ADD PUSH1 0x40 MLOAD DUP1 PUSH1 0x40 ADD PUSH1 0x40 MSTORE DUP1 PUSH1 0x2 DUP2 MSTORE PUSH1 0x20 ADD PUSH32 0x3E3D000000000000000000000000000000000000000000000000000000000000 DUP2 MSTORE POP DUP2 MSTORE PUSH1 0x20 ADD PUSH1 0x40 MLOAD DUP1 PUSH1 0x40 ADD PUSH1 0x40 MSTORE DUP1 PUSH1 0x1 DUP2 MSTORE PUSH1 0x20 ADD PUSH32 0x3100000000000000000000000000000000000000000000000000000000000000 DUP2 MSTORE POP DUP2 MSTORE PUSH1 0x20 ADD PUSH1 0x0 DUP2 MSTORE PUSH1 0x20 ADD PUSH1 0x0 DUP2 MSTORE PUSH1 0x20 ADD PUSH1 0x0 DUP2 MSTORE POP SWAP1 DUP1 PUSH1 0x1 DUP2 SLOAD ADD DUP1 DUP3 SSTORE DUP1 SWAP2 POP POP PUSH1 0x1 SWAP1 SUB SWAP1 PUSH1 0x0 MSTORE PUSH1 0x20 PUSH1 0x0 KECCAK256 SWAP1 PUSH1 0x6 MUL ADD PUSH1 0x0 SWAP1 SWAP2 SWAP1 SWAP2 SWAP1 SWAP2 POP PUSH1 0x0 DUP3 ADD MLOAD DUP2 PUSH1 0x0 ADD SWAP1 DUP1 MLOAD SWAP1 PUSH1 0x20 ADD SWAP1 PUSH3 0x49C SWAP3 SWAP2 SWAP1 PUSH3 0xB35 JUMP JUMPDEST POP PUSH1 0x20 DUP3 ADD MLOAD DUP2 PUSH1 0x1 ADD SWAP1 DUP1 MLOAD SWAP1 PUSH1 0x20 ADD SWAP1 PUSH3 0x4BB SWAP3 SWAP2 SWAP1 PUSH3 0xB35 JUMP JUMPDEST POP PUSH1 0x40 DUP3 ADD MLOAD DUP2 PUSH1 0x2 ADD SWAP1 DUP1 MLOAD SWAP1 PUSH1 0x20 ADD SWAP1 PUSH3 0x4DA SWAP3 SWAP2 SWAP1 PUSH3 0xB35 JUMP JUMPDEST POP PUSH1 0x60 DUP3 ADD MLOAD DUP2 PUSH1 0x3 ADD SSTORE PUSH1 0x80 DUP3 ADD MLOAD DUP2 PUSH1 0x4 ADD SSTORE PUSH1 0xA0 DUP3 ADD MLOAD DUP2 PUSH1 0x5 ADD SSTORE POP POP PUSH1 0x8 PUSH1 0x40 MLOAD DUP1 PUSH1 0xC0 ADD PUSH1 0x40 MSTORE DUP1 PUSH1 0x40 MLOAD DUP1 PUSH1 0x40 ADD PUSH1 0x40 MSTORE DUP1 PUSH1 0x10 DUP2 MSTORE PUSH1 0x20 ADD PUSH32 0x636F756E74282F2F616464726573732900000000000000000000000000000000 DUP2 MSTORE POP DUP2 MSTORE PUSH1 0x20 ADD PUSH1 0x40 MLOAD DUP1 PUSH1 0x40 ADD PUSH1 0x40 MSTORE DUP1 PUSH1 0x2 DUP2 MSTORE PUSH1 0x20 ADD PUSH32 0x3C3D000000000000000000000000000000000000000000000000000000000000 DUP2 MSTORE POP DUP2 MSTORE PUSH1 0x20 ADD PUSH1 0x40 MLOAD DUP1 PUSH1 0x40 ADD PUSH1 0x40 MSTORE DUP1 PUSH1 0x1 DUP2 MSTORE PUSH1 0x20 ADD PUSH32 0x3300000000000000000000000000000000000000000000000000000000000000 DUP2 MSTORE POP DUP2 MSTORE PUSH1 0x20 ADD PUSH1 0x0 DUP2 MSTORE PUSH1 0x20 ADD PUSH1 0x0 DUP2 MSTORE PUSH1 0x20 ADD PUSH1 0x0 DUP2 MSTORE POP SWAP1 DUP1 PUSH1 0x1 DUP2 SLOAD ADD DUP1 DUP3 SSTORE DUP1 SWAP2 POP POP PUSH1 0x1 SWAP1 SUB SWAP1 PUSH1 0x0 MSTORE PUSH1 0x20 PUSH1 0x0 KECCAK256 SWAP1 PUSH1 0x6 MUL ADD PUSH1 0x0 SWAP1 SWAP2 SWAP1 SWAP2 SWAP1 SWAP2 POP PUSH1 0x0 DUP3 ADD MLOAD DUP2 PUSH1 0x0 ADD SWAP1 DUP1 MLOAD SWAP1 PUSH1 0x20 ADD SWAP1 PUSH3 0x613 SWAP3 SWAP2 SWAP1 PUSH3 0xB35 JUMP JUMPDEST POP PUSH1 0x20 DUP3 ADD MLOAD DUP2 PUSH1 0x1 ADD SWAP1 DUP1 MLOAD SWAP1 PUSH1 0x20 ADD SWAP1 PUSH3 0x632 SWAP3 SWAP2 SWAP1 PUSH3 0xB35 JUMP JUMPDEST POP PUSH1 0x40 DUP3 ADD MLOAD DUP2 PUSH1 0x2 ADD SWAP1 DUP1 MLOAD SWAP1 PUSH1 0x20 ADD SWAP1 PUSH3 0x651 SWAP3 SWAP2 SWAP1 PUSH3 0xB35 JUMP JUMPDEST POP PUSH1 0x60 DUP3 ADD MLOAD DUP2 PUSH1 0x3 ADD SSTORE PUSH1 0x80 DUP3 ADD MLOAD DUP2 PUSH1 0x4 ADD SSTORE PUSH1 0xA0 DUP3 ADD MLOAD DUP2 PUSH1 0x5 ADD SSTORE POP POP PUSH1 0x8 PUSH1 0x40 MLOAD DUP1 PUSH1 0xC0 ADD PUSH1 0x40 MSTORE DUP1 PUSH1 0x40 MLOAD DUP1 PUSH1 0x40 ADD PUSH1 0x40 MSTORE DUP1 PUSH1 0x10 DUP2 MSTORE PUSH1 0x20 ADD PUSH32 0x636F756E74282F2F616464726573732900000000000000000000000000000000 DUP2 MSTORE POP DUP2 MSTORE PUSH1 0x20 ADD PUSH1 0x40 MLOAD DUP1 PUSH1 0x40 ADD PUSH1 0x40 MSTORE DUP1 PUSH1 0x2 DUP2 MSTORE PUSH1 0x20 ADD PUSH32 0x3C3D000000000000000000000000000000000000000000000000000000000000 DUP2 MSTORE POP DUP2 MSTORE PUSH1 0x20 ADD PUSH1 0x40 MLOAD DUP1 PUSH1 0x40 ADD PUSH1 0x40 MSTORE DUP1 PUSH1 0x3 DUP2 MSTORE PUSH1 0x20 ADD PUSH32 0x3230300000000000000000000000000000000000000000000000000000000000 DUP2 MSTORE POP DUP2 MSTORE PUSH1 0x20 ADD PUSH1 0x6 DUP2 MSTORE PUSH1 0x20 ADD PUSH3 0x760 PUSH1 0x0 DUP1 SLOAD SWAP1 PUSH2 0x100 EXP SWAP1 DIV PUSH4 0xFFFFFFFF AND PUSH4 0xFFFFFFFF AND PUSH1 0x6 PUSH3 0xA03 PUSH1 0x20 SHL PUSH1 0x20 SHR JUMP JUMPDEST DUP2 MSTORE PUSH1 0x20 ADD PUSH1 0x0 DUP2 MSTORE POP SWAP1 DUP1 PUSH1 0x1 DUP2 SLOAD ADD DUP1 DUP3 SSTORE DUP1 SWAP2 POP POP PUSH1 0x1 SWAP1 SUB SWAP1 PUSH1 0x0 MSTORE PUSH1 0x20 PUSH1 0x0 KECCAK256 SWAP1 PUSH1 0x6 MUL ADD PUSH1 0x0 SWAP1 SWAP2 SWAP1 SWAP2 SWAP1 SWAP2 POP PUSH1 0x0 DUP3 ADD MLOAD DUP2 PUSH1 0x0 ADD SWAP1 DUP1 MLOAD SWAP1 PUSH1 0x20 ADD SWAP1 PUSH3 0x7B1 SWAP3 SWAP2 SWAP1 PUSH3 0xB35 JUMP JUMPDEST POP PUSH1 0x20 DUP3 ADD MLOAD DUP2 PUSH1 0x1 ADD SWAP1 DUP1 MLOAD SWAP1 PUSH1 0x20 ADD SWAP1 PUSH3 0x7D0 SWAP3 SWAP2 SWAP1 PUSH3 0xB35 JUMP JUMPDEST POP PUSH1 0x40 DUP3 ADD MLOAD DUP2 PUSH1 0x2 ADD SWAP1 DUP1 MLOAD SWAP1 PUSH1 0x20 ADD SWAP1 PUSH3 0x7EF SWAP3 SWAP2 SWAP1 PUSH3 0xB35 JUMP JUMPDEST POP PUSH1 0x60 DUP3 ADD MLOAD DUP2 PUSH1 0x3 ADD SSTORE PUSH1 0x80 DUP3 ADD MLOAD DUP2 PUSH1 0x4 ADD SSTORE PUSH1 0xA0 DUP3 ADD MLOAD DUP2 PUSH1 0x5 ADD SSTORE POP POP PUSH1 0x9 PUSH1 0x40 MLOAD DUP1 PUSH1 0x40 ADD PUSH1 0x40 MSTORE DUP1 PUSH1 0xB4 PUSH4 0xFFFFFFFF AND DUP2 MSTORE PUSH1 0x20 ADD PUSH1 0x0 PUSH4 0xFFFFFFFF AND DUP2 MSTORE POP SWAP1 DUP1 PUSH1 0x1 DUP2 SLOAD ADD DUP1 DUP3 SSTORE DUP1 SWAP2 POP POP PUSH1 0x1 SWAP1 SUB SWAP1 PUSH1 0x0 MSTORE PUSH1 0x20 PUSH1 0x0 KECCAK256 ADD PUSH1 0x0 SWAP1 SWAP2 SWAP1 SWAP2 SWAP1 SWAP2 POP PUSH1 0x0 DUP3 ADD MLOAD DUP2 PUSH1 0x0 ADD PUSH1 0x0 PUSH2 0x100 EXP DUP2 SLOAD DUP2 PUSH4 0xFFFFFFFF MUL NOT AND SWAP1 DUP4 PUSH4 0xFFFFFFFF AND MUL OR SWAP1 SSTORE POP PUSH1 0x20 DUP3 ADD MLOAD DUP2 PUSH1 0x0 ADD PUSH1 0x4 PUSH2 0x100 EXP DUP2 SLOAD DUP2 PUSH4 0xFFFFFFFF MUL NOT AND SWAP1 DUP4 PUSH4 0xFFFFFFFF AND MUL OR SWAP1 SSTORE POP POP POP PUSH1 0xA PUSH1 0x40 MLOAD DUP1 PUSH1 0xC0 ADD PUSH1 0x40 MSTORE DUP1 PUSH1 0x40 MLOAD DUP1 PUSH1 0x40 ADD PUSH1 0x40 MSTORE DUP1 PUSH1 0x12 DUP2 MSTORE PUSH1 0x20 ADD PUSH32 0x2F2F6275646765742F69642F7465787428290000000000000000000000000000 DUP2 MSTORE POP DUP2 MSTORE PUSH1 0x20 ADD PUSH1 0x40 MLOAD DUP1 PUSH1 0x40 ADD PUSH1 0x40 MSTORE DUP1 PUSH1 0x2 DUP2 MSTORE PUSH1 0x20 ADD PUSH32 0x213D000000000000000000000000000000000000000000000000000000000000 DUP2 MSTORE POP DUP2 MSTORE PUSH1 0x20 ADD PUSH1 0x40 MLOAD DUP1 PUSH1 0x20 ADD PUSH1 0x40 MSTORE DUP1 PUSH1 0x0 DUP2 MSTORE POP DUP2 MSTORE PUSH1 0x20 ADD PUSH1 0x0 DUP2 MSTORE PUSH1 0x20 ADD PUSH1 0x0 DUP2 MSTORE PUSH1 0x20 ADD PUSH1 0x0 DUP2 MSTORE POP SWAP1 DUP1 PUSH1 0x1 DUP2 SLOAD ADD DUP1 DUP3 SSTORE DUP1 SWAP2 POP POP PUSH1 0x1 SWAP1 SUB SWAP1 PUSH1 0x0 MSTORE PUSH1 0x20 PUSH1 0x0 KECCAK256 SWAP1 PUSH1 0x6 MUL ADD PUSH1 0x0 SWAP1 SWAP2 SWAP1 SWAP2 SWAP1 SWAP2 POP PUSH1 0x0 DUP3 ADD MLOAD DUP2 PUSH1 0x0 ADD SWAP1 DUP1 MLOAD SWAP1 PUSH1 0x20 ADD SWAP1 PUSH3 0x99C SWAP3 SWAP2 SWAP1 PUSH3 0xB35 JUMP JUMPDEST POP PUSH1 0x20 DUP3 ADD MLOAD DUP2 PUSH1 0x1 ADD SWAP1 DUP1 MLOAD SWAP1 PUSH1 0x20 ADD SWAP1 PUSH3 0x9BB SWAP3 SWAP2 SWAP1 PUSH3 0xB35 JUMP JUMPDEST POP PUSH1 0x40 DUP3 ADD MLOAD DUP2 PUSH1 0x2 ADD SWAP1 DUP1 MLOAD SWAP1 PUSH1 0x20 ADD SWAP1 PUSH3 0x9DA SWAP3 SWAP2 SWAP1 PUSH3 0xB35 JUMP JUMPDEST POP PUSH1 0x60 DUP3 ADD MLOAD DUP2 PUSH1 0x3 ADD SSTORE PUSH1 0x80 DUP3 ADD MLOAD DUP2 PUSH1 0x4 ADD SSTORE PUSH1 0xA0 DUP3 ADD MLOAD DUP2 PUSH1 0x5 ADD SSTORE POP POP POP POP PUSH3 0xF60 JUMP JUMPDEST PUSH1 0x0 DUP1 PUSH3 0xA17 DUP4 PUSH3 0xA30 PUSH1 0x20 SHL PUSH1 0x20 SHR JUMP JUMPDEST SWAP1 POP DUP1 DUP5 PUSH3 0xA27 SWAP2 SWAP1 PUSH3 0xD6F JUMP JUMPDEST SWAP2 POP POP SWAP3 SWAP2 POP POP JUMP JUMPDEST PUSH1 0x0 DUP1 DUP3 GT DUP1 ISZERO PUSH3 0xA42 JUMPI POP PUSH1 0x8 DUP3 LT JUMPDEST DUP3 PUSH1 0x40 MLOAD PUSH1 0x20 ADD PUSH3 0xA55 SWAP2 SWAP1 PUSH3 0xCED JUMP JUMPDEST PUSH1 0x40 MLOAD PUSH1 0x20 DUP2 DUP4 SUB SUB DUP2 MSTORE SWAP1 PUSH1 0x40 MSTORE SWAP1 PUSH3 0xAA8 JUMPI PUSH1 0x40 MLOAD PUSH32 0x8C379A000000000000000000000000000000000000000000000000000000000 DUP2 MSTORE PUSH1 0x4 ADD PUSH3 0xA9F SWAP2 SWAP1 PUSH3 0xD24 JUMP JUMPDEST PUSH1 0x40 MLOAD DUP1 SWAP2 SUB SWAP1 REVERT JUMPDEST POP PUSH1 0x1 DUP3 EQ ISZERO PUSH3 0xABD JUMPI PUSH1 0x1 SWAP1 POP PUSH3 0xB30 JUMP JUMPDEST PUSH1 0x2 DUP3 EQ ISZERO PUSH3 0xAD1 JUMPI PUSH1 0x3C SWAP1 POP PUSH3 0xB30 JUMP JUMPDEST PUSH1 0x3 DUP3 EQ ISZERO PUSH3 0xAE6 JUMPI PUSH2 0xE10 SWAP1 POP PUSH3 0xB30 JUMP JUMPDEST PUSH1 0x4 DUP3 EQ ISZERO PUSH3 0xAFC JUMPI PUSH3 0x15180 SWAP1 POP PUSH3 0xB30 JUMP JUMPDEST PUSH1 0x5 DUP3 EQ ISZERO PUSH3 0xB12 JUMPI PUSH3 0x93A80 SWAP1 POP PUSH3 0xB30 JUMP JUMPDEST PUSH1 0x6 DUP3 EQ ISZERO PUSH3 0xB28 JUMPI PUSH3 0x278D00 SWAP1 POP PUSH3 0xB30 JUMP JUMPDEST PUSH4 0x1E13380 SWAP1 POP JUMPDEST SWAP2 SWAP1 POP JUMP JUMPDEST DUP3 DUP1 SLOAD PUSH3 0xB43 SWAP1 PUSH3 0xE40 JUMP JUMPDEST SWAP1 PUSH1 0x0 MSTORE PUSH1 0x20 PUSH1 0x0 KECCAK256 SWAP1 PUSH1 0x1F ADD PUSH1 0x20 SWAP1 DIV DUP2 ADD SWAP3 DUP3 PUSH3 0xB67 JUMPI PUSH1 0x0 DUP6 SSTORE PUSH3 0xBB3 JUMP JUMPDEST DUP3 PUSH1 0x1F LT PUSH3 0xB82 JUMPI DUP1 MLOAD PUSH1 0xFF NOT AND DUP4 DUP1 ADD OR DUP6 SSTORE PUSH3 0xBB3 JUMP JUMPDEST DUP3 DUP1 ADD PUSH1 0x1 ADD DUP6 SSTORE DUP3 ISZERO PUSH3 0xBB3 JUMPI SWAP2 DUP3 ADD JUMPDEST DUP3 DUP2 GT ISZERO PUSH3 0xBB2 JUMPI DUP3 MLOAD DUP3 SSTORE SWAP2 PUSH1 0x20 ADD SWAP2 SWAP1 PUSH1 0x1 ADD SWAP1 PUSH3 0xB95 JUMP JUMPDEST JUMPDEST POP SWAP1 POP PUSH3 0xBC2 SWAP2 SWAP1 PUSH3 0xBC6 JUMP JUMPDEST POP SWAP1 JUMP JUMPDEST JUMPDEST DUP1 DUP3 GT ISZERO PUSH3 0xBE1 JUMPI PUSH1 0x0 DUP2 PUSH1 0x0 SWAP1 SSTORE POP PUSH1 0x1 ADD PUSH3 0xBC7 JUMP JUMPDEST POP SWAP1 JUMP JUMPDEST PUSH1 0x0 DUP2 MLOAD SWAP1 POP PUSH3 0xBF6 DUP2 PUSH3 0xF46 JUMP JUMPDEST SWAP3 SWAP2 POP POP JUMP JUMPDEST PUSH1 0x0 DUP1 PUSH1 0x40 DUP4 DUP6 SUB SLT ISZERO PUSH3 0xC16 JUMPI PUSH3 0xC15 PUSH3 0xEDE JUMP JUMPDEST JUMPDEST PUSH1 0x0 PUSH3 0xC26 DUP6 DUP3 DUP7 ADD PUSH3 0xBE5 JUMP JUMPDEST SWAP3 POP POP PUSH1 0x20 PUSH3 0xC39 DUP6 DUP3 DUP7 ADD PUSH3 0xBE5 JUMP JUMPDEST SWAP2 POP POP SWAP3 POP SWAP3 SWAP1 POP JUMP JUMPDEST PUSH1 0x0 PUSH3 0xC50 DUP3 PUSH3 0xD48 JUMP JUMPDEST PUSH3 0xC5C DUP2 DUP6 PUSH3 0xD53 JUMP JUMPDEST SWAP4 POP PUSH3 0xC6E DUP2 DUP6 PUSH1 0x20 DUP7 ADD PUSH3 0xE0A JUMP JUMPDEST PUSH3 0xC79 DUP2 PUSH3 0xEE3 JUMP JUMPDEST DUP5 ADD SWAP2 POP POP SWAP3 SWAP2 POP POP JUMP JUMPDEST PUSH1 0x0 PUSH3 0xC93 PUSH1 0xB DUP4 PUSH3 0xD64 JUMP JUMPDEST SWAP2 POP PUSH3 0xCA0 DUP3 PUSH3 0xEF4 JUMP JUMPDEST PUSH1 0xB DUP3 ADD SWAP1 POP SWAP2 SWAP1 POP JUMP JUMPDEST PUSH1 0x0 PUSH3 0xCBA PUSH1 0x16 DUP4 PUSH3 0xD64 JUMP JUMPDEST SWAP2 POP PUSH3 0xCC7 DUP3 PUSH3 0xF1D JUMP JUMPDEST PUSH1 0x16 DUP3 ADD SWAP1 POP SWAP2 SWAP1 POP JUMP JUMPDEST PUSH3 0xCE7 PUSH3 0xCE1 DUP3 PUSH3 0xE00 JUMP JUMPDEST PUSH3 0xE76 JUMP JUMPDEST DUP3 MSTORE POP POP JUMP JUMPDEST PUSH1 0x0 PUSH3 0xCFA DUP3 PUSH3 0xC84 JUMP JUMPDEST SWAP2 POP PUSH3 0xD08 DUP3 DUP5 PUSH3 0xCD2 JUMP JUMPDEST PUSH1 0x20 DUP3 ADD SWAP2 POP PUSH3 0xD19 DUP3 PUSH3 0xCAB JUMP JUMPDEST SWAP2 POP DUP2 SWAP1 POP SWAP3 SWAP2 POP POP JUMP JUMPDEST PUSH1 0x0 PUSH1 0x20 DUP3 ADD SWAP1 POP DUP2 DUP2 SUB PUSH1 0x0 DUP4 ADD MSTORE PUSH3 0xD40 DUP2 DUP5 PUSH3 0xC43 JUMP JUMPDEST SWAP1 POP SWAP3 SWAP2 POP POP JUMP JUMPDEST PUSH1 0x0 DUP2 MLOAD SWAP1 POP SWAP2 SWAP1 POP JUMP JUMPDEST PUSH1 0x0 DUP3 DUP3 MSTORE PUSH1 0x20 DUP3 ADD SWAP1 POP SWAP3 SWAP2 POP POP JUMP JUMPDEST PUSH1 0x0 DUP2 SWAP1 POP SWAP3 SWAP2 POP POP JUMP JUMPDEST PUSH1 0x0 PUSH3 0xD7C DUP3 PUSH3 0xE00 JUMP JUMPDEST SWAP2 POP PUSH3 0xD89 DUP4 PUSH3 0xE00 JUMP JUMPDEST SWAP3 POP DUP3 PUSH32 0xFFFFFFFFFFFFFFFFFFFFFFFFFFFFFFFFFFFFFFFFFFFFFFFFFFFFFFFFFFFFFFFF SUB DUP3 GT ISZERO PUSH3 0xDC1 JUMPI PUSH3 0xDC0 PUSH3 0xE80 JUMP JUMPDEST JUMPDEST DUP3 DUP3 ADD SWAP1 POP SWAP3 SWAP2 POP POP JUMP JUMPDEST PUSH1 0x0 PUSH3 0xDD9 DUP3 PUSH3 0xDE0 JUMP JUMPDEST SWAP1 POP SWAP2 SWAP1 POP JUMP JUMPDEST PUSH1 0x0 PUSH20 0xFFFFFFFFFFFFFFFFFFFFFFFFFFFFFFFFFFFFFFFF DUP3 AND SWAP1 POP SWAP2 SWAP1 POP JUMP JUMPDEST PUSH1 0x0 DUP2 SWAP1 POP SWAP2 SWAP1 POP JUMP JUMPDEST PUSH1 0x0 JUMPDEST DUP4 DUP2 LT ISZERO PUSH3 0xE2A JUMPI DUP1 DUP3 ADD MLOAD DUP2 DUP5 ADD MSTORE PUSH1 0x20 DUP2 ADD SWAP1 POP PUSH3 0xE0D JUMP JUMPDEST DUP4 DUP2 GT ISZERO PUSH3 0xE3A JUMPI PUSH1 0x0 DUP5 DUP5 ADD MSTORE JUMPDEST POP POP POP POP JUMP JUMPDEST PUSH1 0x0 PUSH1 0x2 DUP3 DIV SWAP1 POP PUSH1 0x1 DUP3 AND DUP1 PUSH3 0xE59 JUMPI PUSH1 0x7F DUP3 AND SWAP2 POP JUMPDEST PUSH1 0x20 DUP3 LT DUP2 EQ ISZERO PUSH3 0xE70 JUMPI PUSH3 0xE6F PUSH3 0xEAF JUMP JUMPDEST JUMPDEST POP SWAP2 SWAP1 POP JUMP JUMPDEST PUSH1 0x0 DUP2 SWAP1 POP SWAP2 SWAP1 POP JUMP JUMPDEST PUSH32 0x4E487B7100000000000000000000000000000000000000000000000000000000 PUSH1 0x0 MSTORE PUSH1 0x11 PUSH1 0x4 MSTORE PUSH1 0x24 PUSH1 0x0 REVERT JUMPDEST PUSH32 0x4E487B7100000000000000000000000000000000000000000000000000000000 PUSH1 0x0 MSTORE PUSH1 0x22 PUSH1 0x4 MSTORE PUSH1 0x24 PUSH1 0x0 REVERT JUMPDEST PUSH1 0x0 DUP1 REVERT JUMPDEST PUSH1 0x0 PUSH1 0x1F NOT PUSH1 0x1F DUP4 ADD AND SWAP1 POP SWAP2 SWAP1 POP JUMP JUMPDEST PUSH32 0x5468652076616C75653A20000000000000000000000000000000000000000000 PUSH1 0x0 DUP3 ADD MSTORE POP JUMP JUMPDEST PUSH32 0x2C20697320696E76616C69642074696D6520756E697400000000000000000000 PUSH1 0x0 DUP3 ADD MSTORE POP JUMP JUMPDEST PUSH3 0xF51 DUP2 PUSH3 0xDCC JUMP JUMPDEST DUP2 EQ PUSH3 0xF5D JUMPI PUSH1 0x0 DUP1 REVERT JUMPDEST POP JUMP JUMPDEST PUSH2 0x1EE4 DUP1 PUSH3 0xF70 PUSH1 0x0 CODECOPY PUSH1 0x0 RETURN INVALID PUSH1 0x80 PUSH1 0x40 MSTORE CALLVALUE DUP1 ISZERO PUSH2 0x10 JUMPI PUSH1 0x0 DUP1 REVERT JUMPDEST POP PUSH1 0x4 CALLDATASIZE LT PUSH2 0x88 JUMPI PUSH1 0x0 CALLDATALOAD PUSH1 0xE0 SHR DUP1 PUSH4 0x79BC473B GT PUSH2 0x5B JUMPI DUP1 PUSH4 0x79BC473B EQ PUSH2 0x157 JUMPI DUP1 PUSH4 0x92091920 EQ PUSH2 0x187 JUMPI DUP1 PUSH4 0xCC58FD8C EQ PUSH2 0x1B7 JUMPI DUP1 PUSH4 0xF73F91BF EQ PUSH2 0x1E8 JUMPI PUSH2 0x88 JUMP JUMPDEST DUP1 PUSH4 0x8148F7A EQ PUSH2 0x8D JUMPI DUP1 PUSH4 0x20AC908B EQ PUSH2 0xBE JUMPI DUP1 PUSH4 0x736724A7 EQ PUSH2 0xF3 JUMPI DUP1 PUSH4 0x738A6122 EQ PUSH2 0x124 JUMPI JUMPDEST PUSH1 0x0 DUP1 REVERT JUMPDEST PUSH2 0xA7 PUSH1 0x4 DUP1 CALLDATASIZE SUB DUP2 ADD SWAP1 PUSH2 0xA2 SWAP2 SWAP1 PUSH2 0x1670 JUMP JUMPDEST PUSH2 0x21D JUMP JUMPDEST PUSH1 0x40 MLOAD PUSH2 0xB5 SWAP3 SWAP2 SWAP1 PUSH2 0x19D9 JUMP JUMPDEST PUSH1 0x40 MLOAD DUP1 SWAP2 SUB SWAP1 RETURN JUMPDEST PUSH2 0xD8 PUSH1 0x4 DUP1 CALLDATASIZE SUB DUP2 ADD SWAP1 PUSH2 0xD3 SWAP2 SWAP1 PUSH2 0x1670 JUMP JUMPDEST PUSH2 0x26D JUMP JUMPDEST PUSH1 0x40 MLOAD PUSH2 0xEA SWAP7 SWAP6 SWAP5 SWAP4 SWAP3 SWAP2 SWAP1 PUSH2 0x1895 JUMP JUMPDEST PUSH1 0x40 MLOAD DUP1 SWAP2 SUB SWAP1 RETURN JUMPDEST PUSH2 0x10D PUSH1 0x4 DUP1 CALLDATASIZE SUB DUP2 ADD SWAP1 PUSH2 0x108 SWAP2 SWAP1 PUSH2 0x1670 JUMP JUMPDEST PUSH2 0x451 JUMP JUMPDEST PUSH1 0x40 MLOAD PUSH2 0x11B SWAP3 SWAP2 SWAP1 PUSH2 0x196B JUMP JUMPDEST PUSH1 0x40 MLOAD DUP1 SWAP2 SUB SWAP1 RETURN JUMPDEST PUSH2 0x13E PUSH1 0x4 DUP1 CALLDATASIZE SUB DUP2 ADD SWAP1 PUSH2 0x139 SWAP2 SWAP1 PUSH2 0x1670 JUMP JUMPDEST PUSH2 0x485 JUMP JUMPDEST PUSH1 0x40 MLOAD PUSH2 0x14E SWAP5 SWAP4 SWAP3 SWAP2 SWAP1 PUSH2 0x1994 JUMP JUMPDEST PUSH1 0x40 MLOAD DUP1 SWAP2 SUB SWAP1 RETURN JUMPDEST PUSH2 0x171 PUSH1 0x4 DUP1 CALLDATASIZE SUB DUP2 ADD SWAP1 PUSH2 0x16C SWAP2 SWAP1 PUSH2 0x170C JUMP JUMPDEST PUSH2 0x4C5 JUMP JUMPDEST PUSH1 0x40 MLOAD PUSH2 0x17E SWAP2 SWAP1 PUSH2 0x187A JUMP JUMPDEST PUSH1 0x40 MLOAD DUP1 SWAP2 SUB SWAP1 RETURN JUMPDEST PUSH2 0x1A1 PUSH1 0x4 DUP1 CALLDATASIZE SUB DUP2 ADD SWAP1 PUSH2 0x19C SWAP2 SWAP1 PUSH2 0x169D JUMP JUMPDEST PUSH2 0x852 JUMP JUMPDEST PUSH1 0x40 MLOAD PUSH2 0x1AE SWAP2 SWAP1 PUSH2 0x187A JUMP JUMPDEST PUSH1 0x40 MLOAD DUP1 SWAP2 SUB SWAP1 RETURN JUMPDEST PUSH2 0x1D1 PUSH1 0x4 DUP1 CALLDATASIZE SUB DUP2 ADD SWAP1 PUSH2 0x1CC SWAP2 SWAP1 PUSH2 0x1670 JUMP JUMPDEST PUSH2 0x11D3 JUMP JUMPDEST PUSH1 0x40 MLOAD PUSH2 0x1DF SWAP3 SWAP2 SWAP1 PUSH2 0x19D9 JUMP JUMPDEST PUSH1 0x40 MLOAD DUP1 SWAP2 SUB SWAP1 RETURN JUMPDEST PUSH2 0x202 PUSH1 0x4 DUP1 CALLDATASIZE SUB DUP2 ADD SWAP1 PUSH2 0x1FD SWAP2 SWAP1 PUSH2 0x1670 JUMP JUMPDEST PUSH2 0x1223 JUMP JUMPDEST PUSH1 0x40 MLOAD PUSH2 0x214 SWAP7 SWAP6 SWAP5 SWAP4 SWAP3 SWAP2 SWAP1 PUSH2 0x1895 JUMP JUMPDEST PUSH1 0x40 MLOAD DUP1 SWAP2 SUB SWAP1 RETURN JUMPDEST PUSH1 0x9 DUP2 DUP2 SLOAD DUP2 LT PUSH2 0x22D JUMPI PUSH1 0x0 DUP1 REVERT JUMPDEST SWAP1 PUSH1 0x0 MSTORE PUSH1 0x20 PUSH1 0x0 KECCAK256 ADD PUSH1 0x0 SWAP2 POP SWAP1 POP DUP1 PUSH1 0x0 ADD PUSH1 0x0 SWAP1 SLOAD SWAP1 PUSH2 0x100 EXP SWAP1 DIV PUSH4 0xFFFFFFFF AND SWAP1 DUP1 PUSH1 0x0 ADD PUSH1 0x4 SWAP1 SLOAD SWAP1 PUSH2 0x100 EXP SWAP1 DIV PUSH4 0xFFFFFFFF AND SWAP1 POP DUP3 JUMP JUMPDEST PUSH1 0x8 DUP2 DUP2 SLOAD DUP2 LT PUSH2 0x27D JUMPI PUSH1 0x0 DUP1 REVERT JUMPDEST SWAP1 PUSH1 0x0 MSTORE PUSH1 0x20 PUSH1 0x0 KECCAK256 SWAP1 PUSH1 0x6 MUL ADD PUSH1 0x0 SWAP2 POP SWAP1 POP DUP1 PUSH1 0x0 ADD DUP1 SLOAD PUSH2 0x2A0 SWAP1 PUSH2 0x1BF6 JUMP JUMPDEST DUP1 PUSH1 0x1F ADD PUSH1 0x20 DUP1 SWAP2 DIV MUL PUSH1 0x20 ADD PUSH1 0x40 MLOAD SWAP1 DUP2 ADD PUSH1 0x40 MSTORE DUP1 SWAP3 SWAP2 SWAP1 DUP2 DUP2 MSTORE PUSH1 0x20 ADD DUP3 DUP1 SLOAD PUSH2 0x2CC SWAP1 PUSH2 0x1BF6 JUMP JUMPDEST DUP1 ISZERO PUSH2 0x319 JUMPI DUP1 PUSH1 0x1F LT PUSH2 0x2EE JUMPI PUSH2 0x100 DUP1 DUP4 SLOAD DIV MUL DUP4 MSTORE SWAP2 PUSH1 0x20 ADD SWAP2 PUSH2 0x319 JUMP JUMPDEST DUP3 ADD SWAP2 SWAP1 PUSH1 0x0 MSTORE PUSH1 0x20 PUSH1 0x0 KECCAK256 SWAP1 JUMPDEST DUP2 SLOAD DUP2 MSTORE SWAP1 PUSH1 0x1 ADD SWAP1 PUSH1 0x20 ADD DUP1 DUP4 GT PUSH2 0x2FC JUMPI DUP3 SWAP1 SUB PUSH1 0x1F AND DUP3 ADD SWAP2 JUMPDEST POP POP POP POP POP SWAP1 DUP1 PUSH1 0x1 ADD DUP1 SLOAD PUSH2 0x32E SWAP1 PUSH2 0x1BF6 JUMP JUMPDEST DUP1 PUSH1 0x1F ADD PUSH1 0x20 DUP1 SWAP2 DIV MUL PUSH1 0x20 ADD PUSH1 0x40 MLOAD SWAP1 DUP2 ADD PUSH1 0x40 MSTORE DUP1 SWAP3 SWAP2 SWAP1 DUP2 DUP2 MSTORE PUSH1 0x20 ADD DUP3 DUP1 SLOAD PUSH2 0x35A SWAP1 PUSH2 0x1BF6 JUMP JUMPDEST DUP1 ISZERO PUSH2 0x3A7 JUMPI DUP1 PUSH1 0x1F LT PUSH2 0x37C JUMPI PUSH2 0x100 DUP1 DUP4 SLOAD DIV MUL DUP4 MSTORE SWAP2 PUSH1 0x20 ADD SWAP2 PUSH2 0x3A7 JUMP JUMPDEST DUP3 ADD SWAP2 SWAP1 PUSH1 0x0 MSTORE PUSH1 0x20 PUSH1 0x0 KECCAK256 SWAP1 JUMPDEST DUP2 SLOAD DUP2 MSTORE SWAP1 PUSH1 0x1 ADD SWAP1 PUSH1 0x20 ADD DUP1 DUP4 GT PUSH2 0x38A JUMPI DUP3 SWAP1 SUB PUSH1 0x1F AND DUP3 ADD SWAP2 JUMPDEST POP POP POP POP POP SWAP1 DUP1 PUSH1 0x2 ADD DUP1 SLOAD PUSH2 0x3BC SWAP1 PUSH2 0x1BF6 JUMP JUMPDEST DUP1 PUSH1 0x1F ADD PUSH1 0x20 DUP1 SWAP2 DIV MUL PUSH1 0x20 ADD PUSH1 0x40 MLOAD SWAP1 DUP2 ADD PUSH1 0x40 MSTORE DUP1 SWAP3 SWAP2 SWAP1 DUP2 DUP2 MSTORE PUSH1 0x20 ADD DUP3 DUP1 SLOAD PUSH2 0x3E8 SWAP1 PUSH2 0x1BF6 JUMP JUMPDEST DUP1 ISZERO PUSH2 0x435 JUMPI DUP1 PUSH1 0x1F LT PUSH2 0x40A JUMPI PUSH2 0x100 DUP1 DUP4 SLOAD DIV MUL DUP4 MSTORE SWAP2 PUSH1 0x20 ADD SWAP2 PUSH2 0x435 JUMP JUMPDEST DUP3 ADD SWAP2 SWAP1 PUSH1 0x0 MSTORE PUSH1 0x20 PUSH1 0x0 KECCAK256 SWAP1 JUMPDEST DUP2 SLOAD DUP2 MSTORE SWAP1 PUSH1 0x1 ADD SWAP1 PUSH1 0x20 ADD DUP1 DUP4 GT PUSH2 0x418 JUMPI DUP3 SWAP1 SUB PUSH1 0x1F AND DUP3 ADD SWAP2 JUMPDEST POP POP POP POP POP SWAP1 DUP1 PUSH1 0x3 ADD SLOAD SWAP1 DUP1 PUSH1 0x4 ADD SLOAD SWAP1 DUP1 PUSH1 0x5 ADD SLOAD SWAP1 POP DUP7 JUMP JUMPDEST PUSH1 0x5 DUP2 DUP2 SLOAD DUP2 LT PUSH2 0x461 JUMPI PUSH1 0x0 DUP1 REVERT JUMPDEST SWAP1 PUSH1 0x0 MSTORE PUSH1 0x20 PUSH1 0x0 KECCAK256 SWAP1 PUSH1 0x2 MUL ADD PUSH1 0x0 SWAP2 POP SWAP1 POP DUP1 PUSH1 0x0 ADD SLOAD SWAP1 DUP1 PUSH1 0x1 ADD SLOAD SWAP1 POP DUP3 JUMP JUMPDEST PUSH1 0x7 DUP2 DUP2 SLOAD DUP2 LT PUSH2 0x495 JUMPI PUSH1 0x0 DUP1 REVERT JUMPDEST SWAP1 PUSH1 0x0 MSTORE PUSH1 0x20 PUSH1 0x0 KECCAK256 SWAP1 PUSH1 0x4 MUL ADD PUSH1 0x0 SWAP2 POP SWAP1 POP DUP1 PUSH1 0x0 ADD SLOAD SWAP1 DUP1 PUSH1 0x1 ADD SLOAD SWAP1 DUP1 PUSH1 0x2 ADD SLOAD SWAP1 DUP1 PUSH1 0x3 ADD SLOAD SWAP1 POP DUP5 JUMP JUMPDEST PUSH1 0x0 PUSH1 0x1 DUP1 ADD PUSH1 0x0 SWAP1 SLOAD SWAP1 PUSH2 0x100 EXP SWAP1 DIV PUSH20 0xFFFFFFFFFFFFFFFFFFFFFFFFFFFFFFFFFFFFFFFF AND PUSH20 0xFFFFFFFFFFFFFFFFFFFFFFFFFFFFFFFFFFFFFFFF AND DUP3 PUSH20 0xFFFFFFFFFFFFFFFFFFFFFFFFFFFFFFFFFFFFFFFF AND EQ PUSH2 0x559 JUMPI PUSH1 0x40 MLOAD PUSH32 0x8C379A000000000000000000000000000000000000000000000000000000000 DUP2 MSTORE PUSH1 0x4 ADD PUSH2 0x550 SWAP1 PUSH2 0x190B JUMP JUMPDEST PUSH1 0x40 MLOAD DUP1 SWAP2 SUB SWAP1 REVERT JUMPDEST PUSH2 0x595 DUP6 PUSH1 0x9 PUSH1 0x0 DUP2 SLOAD DUP2 LT PUSH2 0x572 JUMPI PUSH2 0x571 PUSH2 0x1CB7 JUMP JUMPDEST JUMPDEST SWAP1 PUSH1 0x0 MSTORE PUSH1 0x20 PUSH1 0x0 KECCAK256 ADD PUSH1 0x0 ADD PUSH1 0x4 SWAP1 SLOAD SWAP1 PUSH2 0x100 EXP SWAP1 DIV PUSH4 0xFFFFFFFF AND PUSH2 0x1407 JUMP JUMPDEST ISZERO DUP1 ISZERO PUSH2 0x7C4 JUMPI POP PUSH2 0x7C3 PUSH1 0xA PUSH1 0x0 DUP2 SLOAD DUP2 LT PUSH2 0x5B5 JUMPI PUSH2 0x5B4 PUSH2 0x1CB7 JUMP JUMPDEST JUMPDEST SWAP1 PUSH1 0x0 MSTORE PUSH1 0x20 PUSH1 0x0 KECCAK256 SWAP1 PUSH1 0x6 MUL ADD PUSH1 0x40 MLOAD DUP1 PUSH1 0xC0 ADD PUSH1 0x40 MSTORE SWAP1 DUP2 PUSH1 0x0 DUP3 ADD DUP1 SLOAD PUSH2 0x5DE SWAP1 PUSH2 0x1BF6 JUMP JUMPDEST DUP1 PUSH1 0x1F ADD PUSH1 0x20 DUP1 SWAP2 DIV MUL PUSH1 0x20 ADD PUSH1 0x40 MLOAD SWAP1 DUP2 ADD PUSH1 0x40 MSTORE DUP1 SWAP3 SWAP2 SWAP1 DUP2 DUP2 MSTORE PUSH1 0x20 ADD DUP3 DUP1 SLOAD PUSH2 0x60A SWAP1 PUSH2 0x1BF6 JUMP JUMPDEST DUP1 ISZERO PUSH2 0x657 JUMPI DUP1 PUSH1 0x1F LT PUSH2 0x62C JUMPI PUSH2 0x100 DUP1 DUP4 SLOAD DIV MUL DUP4 MSTORE SWAP2 PUSH1 0x20 ADD SWAP2 PUSH2 0x657 JUMP JUMPDEST DUP3 ADD SWAP2 SWAP1 PUSH1 0x0 MSTORE PUSH1 0x20 PUSH1 0x0 KECCAK256 SWAP1 JUMPDEST DUP2 SLOAD DUP2 MSTORE SWAP1 PUSH1 0x1 ADD SWAP1 PUSH1 0x20 ADD DUP1 DUP4 GT PUSH2 0x63A JUMPI DUP3 SWAP1 SUB PUSH1 0x1F AND DUP3 ADD SWAP2 JUMPDEST POP POP POP POP POP DUP2 MSTORE PUSH1 0x20 ADD PUSH1 0x1 DUP3 ADD DUP1 SLOAD PUSH2 0x670 SWAP1 PUSH2 0x1BF6 JUMP JUMPDEST DUP1 PUSH1 0x1F ADD PUSH1 0x20 DUP1 SWAP2 DIV MUL PUSH1 0x20 ADD PUSH1 0x40 MLOAD SWAP1 DUP2 ADD PUSH1 0x40 MSTORE DUP1 SWAP3 SWAP2 SWAP1 DUP2 DUP2 MSTORE PUSH1 0x20 ADD DUP3 DUP1 SLOAD PUSH2 0x69C SWAP1 PUSH2 0x1BF6 JUMP JUMPDEST DUP1 ISZERO PUSH2 0x6E9 JUMPI DUP1 PUSH1 0x1F LT PUSH2 0x6BE JUMPI PUSH2 0x100 DUP1 DUP4 SLOAD DIV MUL DUP4 MSTORE SWAP2 PUSH1 0x20 ADD SWAP2 PUSH2 0x6E9 JUMP JUMPDEST DUP3 ADD SWAP2 SWAP1 PUSH1 0x0 MSTORE PUSH1 0x20 PUSH1 0x0 KECCAK256 SWAP1 JUMPDEST DUP2 SLOAD DUP2 MSTORE SWAP1 PUSH1 0x1 ADD SWAP1 PUSH1 0x20 ADD DUP1 DUP4 GT PUSH2 0x6CC JUMPI DUP3 SWAP1 SUB PUSH1 0x1F AND DUP3 ADD SWAP2 JUMPDEST POP POP POP POP POP DUP2 MSTORE PUSH1 0x20 ADD PUSH1 0x2 DUP3 ADD DUP1 SLOAD PUSH2 0x702 SWAP1 PUSH2 0x1BF6 JUMP JUMPDEST DUP1 PUSH1 0x1F ADD PUSH1 0x20 DUP1 SWAP2 DIV MUL PUSH1 0x20 ADD PUSH1 0x40 MLOAD SWAP1 DUP2 ADD PUSH1 0x40 MSTORE DUP1 SWAP3 SWAP2 SWAP1 DUP2 DUP2 MSTORE PUSH1 0x20 ADD DUP3 DUP1 SLOAD PUSH2 0x72E SWAP1 PUSH2 0x1BF6 JUMP JUMPDEST DUP1 ISZERO PUSH2 0x77B JUMPI DUP1 PUSH1 0x1F LT PUSH2 0x750 JUMPI PUSH2 0x100 DUP1 DUP4 SLOAD DIV MUL DUP4 MSTORE SWAP2 PUSH1 0x20 ADD SWAP2 PUSH2 0x77B JUMP JUMPDEST DUP3 ADD SWAP2 SWAP1 PUSH1 0x0 MSTORE PUSH1 0x20 PUSH1 0x0 KECCAK256 SWAP1 JUMPDEST DUP2 SLOAD DUP2 MSTORE SWAP1 PUSH1 0x1 ADD SWAP1 PUSH1 0x20 ADD DUP1 DUP4 GT PUSH2 0x75E JUMPI DUP3 SWAP1 SUB PUSH1 0x1F AND DUP3 ADD SWAP2 JUMPDEST POP POP POP POP POP DUP2 MSTORE PUSH1 0x20 ADD PUSH1 0x3 DUP3 ADD SLOAD DUP2 MSTORE PUSH1 0x20 ADD PUSH1 0x4 DUP3 ADD SLOAD DUP2 MSTORE PUSH1 0x20 ADD PUSH1 0x5 DUP3 ADD SLOAD DUP2 MSTORE POP POP DUP6 PUSH1 0x0 DUP2 MLOAD DUP2 LT PUSH2 0x7B6 JUMPI PUSH2 0x7B5 PUSH2 0x1CB7 JUMP JUMPDEST JUMPDEST PUSH1 0x20 MUL PUSH1 0x20 ADD ADD MLOAD PUSH2 0x1413 JUMP JUMPDEST JUMPDEST ISZERO PUSH2 0x810 JUMPI PUSH1 0x1 PUSH1 0x7 PUSH1 0x0 DUP2 SLOAD DUP2 LT PUSH2 0x7E0 JUMPI PUSH2 0x7DF PUSH2 0x1CB7 JUMP JUMPDEST JUMPDEST SWAP1 PUSH1 0x0 MSTORE PUSH1 0x20 PUSH1 0x0 KECCAK256 SWAP1 PUSH1 0x4 MUL ADD PUSH1 0x3 ADD PUSH1 0x0 DUP3 DUP3 SLOAD PUSH2 0x800 SWAP2 SWAP1 PUSH2 0x1ACC JUMP JUMPDEST SWAP3 POP POP DUP2 SWAP1 SSTORE POP PUSH1 0x1 SWAP1 POP PUSH2 0x84A JUMP JUMPDEST PUSH32 0x66091B7DC2B097C8F60D5CD6AA99633B097F08D2EB1056F3E15361B22E0EA2BA PUSH1 0x40 MLOAD PUSH2 0x83D SWAP1 PUSH2 0x194B JUMP JUMPDEST PUSH1 0x40 MLOAD DUP1 SWAP2 SUB SWAP1 LOG1 PUSH1 0x0 SWAP1 POP JUMPDEST SWAP5 SWAP4 POP POP POP POP JUMP JUMPDEST PUSH1 0x0 PUSH1 0x3 PUSH1 0x1 ADD PUSH1 0x0 SWAP1 SLOAD SWAP1 PUSH2 0x100 EXP SWAP1 DIV PUSH20 0xFFFFFFFFFFFFFFFFFFFFFFFFFFFFFFFFFFFFFFFF AND PUSH20 0xFFFFFFFFFFFFFFFFFFFFFFFFFFFFFFFFFFFFFFFF AND DUP3 PUSH20 0xFFFFFFFFFFFFFFFFFFFFFFFFFFFFFFFFFFFFFFFF AND EQ PUSH2 0x8E7 JUMPI PUSH1 0x40 MLOAD PUSH32 0x8C379A000000000000000000000000000000000000000000000000000000000 DUP2 MSTORE PUSH1 0x4 ADD PUSH2 0x8DE SWAP1 PUSH2 0x190B JUMP JUMPDEST PUSH1 0x40 MLOAD DUP1 SWAP2 SUB SWAP1 REVERT JUMPDEST PUSH2 0x913 DUP5 PUSH1 0x5 PUSH1 0x0 DUP2 SLOAD DUP2 LT PUSH2 0x900 JUMPI PUSH2 0x8FF PUSH2 0x1CB7 JUMP JUMPDEST JUMPDEST SWAP1 PUSH1 0x0 MSTORE PUSH1 0x20 PUSH1 0x0 KECCAK256 SWAP1 PUSH1 0x2 MUL ADD PUSH2 0x141F JUMP JUMPDEST DUP1 ISZERO PUSH2 0x9A0 JUMPI POP PUSH2 0x99F DUP5 PUSH4 0xFFFFFFFF AND PUSH1 0x6 PUSH1 0x0 DUP2 SLOAD DUP2 LT PUSH2 0x939 JUMPI PUSH2 0x938 PUSH2 0x1CB7 JUMP JUMPDEST JUMPDEST SWAP1 PUSH1 0x0 MSTORE PUSH1 0x20 PUSH1 0x0 KECCAK256 ADD PUSH1 0x40 MLOAD DUP1 PUSH1 0x40 ADD PUSH1 0x40 MSTORE SWAP1 DUP2 PUSH1 0x0 DUP3 ADD PUSH1 0x0 SWAP1 SLOAD SWAP1 PUSH2 0x100 EXP SWAP1 DIV PUSH4 0xFFFFFFFF AND PUSH4 0xFFFFFFFF AND PUSH4 0xFFFFFFFF AND DUP2 MSTORE PUSH1 0x20 ADD PUSH1 0x0 DUP3 ADD PUSH1 0x4 SWAP1 SLOAD SWAP1 PUSH2 0x100 EXP SWAP1 DIV PUSH4 0xFFFFFFFF AND PUSH4 0xFFFFFFFF AND PUSH4 0xFFFFFFFF AND DUP2 MSTORE POP POP PUSH2 0x142B JUMP JUMPDEST JUMPDEST DUP1 ISZERO PUSH2 0xA7E JUMPI POP PUSH2 0xA7C DUP5 PUSH1 0x6 PUSH1 0x0 DUP2 SLOAD DUP2 LT PUSH2 0x9C0 JUMPI PUSH2 0x9BF PUSH2 0x1CB7 JUMP JUMPDEST JUMPDEST SWAP1 PUSH1 0x0 MSTORE PUSH1 0x20 PUSH1 0x0 KECCAK256 ADD PUSH1 0x40 MLOAD DUP1 PUSH1 0x40 ADD PUSH1 0x40 MSTORE SWAP1 DUP2 PUSH1 0x0 DUP3 ADD PUSH1 0x0 SWAP1 SLOAD SWAP1 PUSH2 0x100 EXP SWAP1 DIV PUSH4 0xFFFFFFFF AND PUSH4 0xFFFFFFFF AND PUSH4 0xFFFFFFFF AND DUP2 MSTORE PUSH1 0x20 ADD PUSH1 0x0 DUP3 ADD PUSH1 0x4 SWAP1 SLOAD SWAP1 PUSH2 0x100 EXP SWAP1 DIV PUSH4 0xFFFFFFFF AND PUSH4 0xFFFFFFFF AND PUSH4 0xFFFFFFFF AND DUP2 MSTORE POP POP PUSH1 0x7 PUSH1 0x0 DUP2 SLOAD DUP2 LT PUSH2 0xA36 JUMPI PUSH2 0xA35 PUSH2 0x1CB7 JUMP JUMPDEST JUMPDEST SWAP1 PUSH1 0x0 MSTORE PUSH1 0x20 PUSH1 0x0 KECCAK256 SWAP1 PUSH1 0x4 MUL ADD PUSH1 0x40 MLOAD DUP1 PUSH1 0x80 ADD PUSH1 0x40 MSTORE SWAP1 DUP2 PUSH1 0x0 DUP3 ADD SLOAD DUP2 MSTORE PUSH1 0x20 ADD PUSH1 0x1 DUP3 ADD SLOAD DUP2 MSTORE PUSH1 0x20 ADD PUSH1 0x2 DUP3 ADD SLOAD DUP2 MSTORE PUSH1 0x20 ADD PUSH1 0x3 DUP3 ADD SLOAD DUP2 MSTORE POP POP PUSH2 0x1433 JUMP JUMPDEST ISZERO JUMPDEST DUP1 ISZERO PUSH2 0xCAC JUMPI POP PUSH2 0xCAB PUSH1 0x8 PUSH1 0x0 DUP2 SLOAD DUP2 LT PUSH2 0xA9D JUMPI PUSH2 0xA9C PUSH2 0x1CB7 JUMP JUMPDEST JUMPDEST SWAP1 PUSH1 0x0 MSTORE PUSH1 0x20 PUSH1 0x0 KECCAK256 SWAP1 PUSH1 0x6 MUL ADD PUSH1 0x40 MLOAD DUP1 PUSH1 0xC0 ADD PUSH1 0x40 MSTORE SWAP1 DUP2 PUSH1 0x0 DUP3 ADD DUP1 SLOAD PUSH2 0xAC6 SWAP1 PUSH2 0x1BF6 JUMP JUMPDEST DUP1 PUSH1 0x1F ADD PUSH1 0x20 DUP1 SWAP2 DIV MUL PUSH1 0x20 ADD PUSH1 0x40 MLOAD SWAP1 DUP2 ADD PUSH1 0x40 MSTORE DUP1 SWAP3 SWAP2 SWAP1 DUP2 DUP2 MSTORE PUSH1 0x20 ADD DUP3 DUP1 SLOAD PUSH2 0xAF2 SWAP1 PUSH2 0x1BF6 JUMP JUMPDEST DUP1 ISZERO PUSH2 0xB3F JUMPI DUP1 PUSH1 0x1F LT PUSH2 0xB14 JUMPI PUSH2 0x100 DUP1 DUP4 SLOAD DIV MUL DUP4 MSTORE SWAP2 PUSH1 0x20 ADD SWAP2 PUSH2 0xB3F JUMP JUMPDEST DUP3 ADD SWAP2 SWAP1 PUSH1 0x0 MSTORE PUSH1 0x20 PUSH1 0x0 KECCAK256 SWAP1 JUMPDEST DUP2 SLOAD DUP2 MSTORE SWAP1 PUSH1 0x1 ADD SWAP1 PUSH1 0x20 ADD DUP1 DUP4 GT PUSH2 0xB22 JUMPI DUP3 SWAP1 SUB PUSH1 0x1F AND DUP3 ADD SWAP2 JUMPDEST POP POP POP POP POP DUP2 MSTORE PUSH1 0x20 ADD PUSH1 0x1 DUP3 ADD DUP1 SLOAD PUSH2 0xB58 SWAP1 PUSH2 0x1BF6 JUMP JUMPDEST DUP1 PUSH1 0x1F ADD PUSH1 0x20 DUP1 SWAP2 DIV MUL PUSH1 0x20 ADD PUSH1 0x40 MLOAD SWAP1 DUP2 ADD PUSH1 0x40 MSTORE DUP1 SWAP3 SWAP2 SWAP1 DUP2 DUP2 MSTORE PUSH1 0x20 ADD DUP3 DUP1 SLOAD PUSH2 0xB84 SWAP1 PUSH2 0x1BF6 JUMP JUMPDEST DUP1 ISZERO PUSH2 0xBD1 JUMPI DUP1 PUSH1 0x1F LT PUSH2 0xBA6 JUMPI PUSH2 0x100 DUP1 DUP4 SLOAD DIV MUL DUP4 MSTORE SWAP2 PUSH1 0x20 ADD SWAP2 PUSH2 0xBD1 JUMP JUMPDEST DUP3 ADD SWAP2 SWAP1 PUSH1 0x0 MSTORE PUSH1 0x20 PUSH1 0x0 KECCAK256 SWAP1 JUMPDEST DUP2 SLOAD DUP2 MSTORE SWAP1 PUSH1 0x1 ADD SWAP1 PUSH1 0x20 ADD DUP1 DUP4 GT PUSH2 0xBB4 JUMPI DUP3 SWAP1 SUB PUSH1 0x1F AND DUP3 ADD SWAP2 JUMPDEST POP POP POP POP POP DUP2 MSTORE PUSH1 0x20 ADD PUSH1 0x2 DUP3 ADD DUP1 SLOAD PUSH2 0xBEA SWAP1 PUSH2 0x1BF6 JUMP JUMPDEST DUP1 PUSH1 0x1F ADD PUSH1 0x20 DUP1 SWAP2 DIV MUL PUSH1 0x20 ADD PUSH1 0x40 MLOAD SWAP1 DUP2 ADD PUSH1 0x40 MSTORE DUP1 SWAP3 SWAP2 SWAP1 DUP2 DUP2 MSTORE PUSH1 0x20 ADD DUP3 DUP1 SLOAD PUSH2 0xC16 SWAP1 PUSH2 0x1BF6 JUMP JUMPDEST DUP1 ISZERO PUSH2 0xC63 JUMPI DUP1 PUSH1 0x1F LT PUSH2 0xC38 JUMPI PUSH2 0x100 DUP1 DUP4 SLOAD DIV MUL DUP4 MSTORE SWAP2 PUSH1 0x20 ADD SWAP2 PUSH2 0xC63 JUMP JUMPDEST DUP3 ADD SWAP2 SWAP1 PUSH1 0x0 MSTORE PUSH1 0x20 PUSH1 0x0 KECCAK256 SWAP1 JUMPDEST DUP2 SLOAD DUP2 MSTORE SWAP1 PUSH1 0x1 ADD SWAP1 PUSH1 0x20 ADD DUP1 DUP4 GT PUSH2 0xC46 JUMPI DUP3 SWAP1 SUB PUSH1 0x1F AND DUP3 ADD SWAP2 JUMPDEST POP POP POP POP POP DUP2 MSTORE PUSH1 0x20 ADD PUSH1 0x3 DUP3 ADD SLOAD DUP2 MSTORE PUSH1 0x20 ADD PUSH1 0x4 DUP3 ADD SLOAD DUP2 MSTORE PUSH1 0x20 ADD PUSH1 0x5 DUP3 ADD SLOAD DUP2 MSTORE POP POP DUP5 PUSH1 0x0 DUP2 MLOAD DUP2 LT PUSH2 0xC9E JUMPI PUSH2 0xC9D PUSH2 0x1CB7 JUMP JUMPDEST JUMPDEST PUSH1 0x20 MUL PUSH1 0x20 ADD ADD MLOAD PUSH2 0x1413 JUMP JUMPDEST JUMPDEST DUP1 ISZERO PUSH2 0xEDA JUMPI POP PUSH2 0xED9 PUSH1 0x8 PUSH1 0x1 DUP2 SLOAD DUP2 LT PUSH2 0xCCB JUMPI PUSH2 0xCCA PUSH2 0x1CB7 JUMP JUMPDEST JUMPDEST SWAP1 PUSH1 0x0 MSTORE PUSH1 0x20 PUSH1 0x0 KECCAK256 SWAP1 PUSH1 0x6 MUL ADD PUSH1 0x40 MLOAD DUP1 PUSH1 0xC0 ADD PUSH1 0x40 MSTORE SWAP1 DUP2 PUSH1 0x0 DUP3 ADD DUP1 SLOAD PUSH2 0xCF4 SWAP1 PUSH2 0x1BF6 JUMP JUMPDEST DUP1 PUSH1 0x1F ADD PUSH1 0x20 DUP1 SWAP2 DIV MUL PUSH1 0x20 ADD PUSH1 0x40 MLOAD SWAP1 DUP2 ADD PUSH1 0x40 MSTORE DUP1 SWAP3 SWAP2 SWAP1 DUP2 DUP2 MSTORE PUSH1 0x20 ADD DUP3 DUP1 SLOAD PUSH2 0xD20 SWAP1 PUSH2 0x1BF6 JUMP JUMPDEST DUP1 ISZERO PUSH2 0xD6D JUMPI DUP1 PUSH1 0x1F LT PUSH2 0xD42 JUMPI PUSH2 0x100 DUP1 DUP4 SLOAD DIV MUL DUP4 MSTORE SWAP2 PUSH1 0x20 ADD SWAP2 PUSH2 0xD6D JUMP JUMPDEST DUP3 ADD SWAP2 SWAP1 PUSH1 0x0 MSTORE PUSH1 0x20 PUSH1 0x0 KECCAK256 SWAP1 JUMPDEST DUP2 SLOAD DUP2 MSTORE SWAP1 PUSH1 0x1 ADD SWAP1 PUSH1 0x20 ADD DUP1 DUP4 GT PUSH2 0xD50 JUMPI DUP3 SWAP1 SUB PUSH1 0x1F AND DUP3 ADD SWAP2 JUMPDEST POP POP POP POP POP DUP2 MSTORE PUSH1 0x20 ADD PUSH1 0x1 DUP3 ADD DUP1 SLOAD PUSH2 0xD86 SWAP1 PUSH2 0x1BF6 JUMP JUMPDEST DUP1 PUSH1 0x1F ADD PUSH1 0x20 DUP1 SWAP2 DIV MUL PUSH1 0x20 ADD PUSH1 0x40 MLOAD SWAP1 DUP2 ADD PUSH1 0x40 MSTORE DUP1 SWAP3 SWAP2 SWAP1 DUP2 DUP2 MSTORE PUSH1 0x20 ADD DUP3 DUP1 SLOAD PUSH2 0xDB2 SWAP1 PUSH2 0x1BF6 JUMP JUMPDEST DUP1 ISZERO PUSH2 0xDFF JUMPI DUP1 PUSH1 0x1F LT PUSH2 0xDD4 JUMPI PUSH2 0x100 DUP1 DUP4 SLOAD DIV MUL DUP4 MSTORE SWAP2 PUSH1 0x20 ADD SWAP2 PUSH2 0xDFF JUMP JUMPDEST DUP3 ADD SWAP2 SWAP1 PUSH1 0x0 MSTORE PUSH1 0x20 PUSH1 0x0 KECCAK256 SWAP1 JUMPDEST DUP2 SLOAD DUP2 MSTORE SWAP1 PUSH1 0x1 ADD SWAP1 PUSH1 0x20 ADD DUP1 DUP4 GT PUSH2 0xDE2 JUMPI DUP3 SWAP1 SUB PUSH1 0x1F AND DUP3 ADD SWAP2 JUMPDEST POP POP POP POP POP DUP2 MSTORE PUSH1 0x20 ADD PUSH1 0x2 DUP3 ADD DUP1 SLOAD PUSH2 0xE18 SWAP1 PUSH2 0x1BF6 JUMP JUMPDEST DUP1 PUSH1 0x1F ADD PUSH1 0x20 DUP1 SWAP2 DIV MUL PUSH1 0x20 ADD PUSH1 0x40 MLOAD SWAP1 DUP2 ADD PUSH1 0x40 MSTORE DUP1 SWAP3 SWAP2 SWAP1 DUP2 DUP2 MSTORE PUSH1 0x20 ADD DUP3 DUP1 SLOAD PUSH2 0xE44 SWAP1 PUSH2 0x1BF6 JUMP JUMPDEST DUP1 ISZERO PUSH2 0xE91 JUMPI DUP1 PUSH1 0x1F LT PUSH2 0xE66 JUMPI PUSH2 0x100 DUP1 DUP4 SLOAD DIV MUL DUP4 MSTORE SWAP2 PUSH1 0x20 ADD SWAP2 PUSH2 0xE91 JUMP JUMPDEST DUP3 ADD SWAP2 SWAP1 PUSH1 0x0 MSTORE PUSH1 0x20 PUSH1 0x0 KECCAK256 SWAP1 JUMPDEST DUP2 SLOAD DUP2 MSTORE SWAP1 PUSH1 0x1 ADD SWAP1 PUSH1 0x20 ADD DUP1 DUP4 GT PUSH2 0xE74 JUMPI DUP3 SWAP1 SUB PUSH1 0x1F AND DUP3 ADD SWAP2 JUMPDEST POP POP POP POP POP DUP2 MSTORE PUSH1 0x20 ADD PUSH1 0x3 DUP3 ADD SLOAD DUP2 MSTORE PUSH1 0x20 ADD PUSH1 0x4 DUP3 ADD SLOAD DUP2 MSTORE PUSH1 0x20 ADD PUSH1 0x5 DUP3 ADD SLOAD DUP2 MSTORE POP POP DUP5 PUSH1 0x1 DUP2 MLOAD DUP2 LT PUSH2 0xECC JUMPI PUSH2 0xECB PUSH2 0x1CB7 JUMP JUMPDEST JUMPDEST PUSH1 0x20 MUL PUSH1 0x20 ADD ADD MLOAD PUSH2 0x1413 JUMP JUMPDEST JUMPDEST DUP1 ISZERO PUSH2 0x1108 JUMPI POP PUSH2 0x1107 PUSH1 0x8 PUSH1 0x2 DUP2 SLOAD DUP2 LT PUSH2 0xEF9 JUMPI PUSH2 0xEF8 PUSH2 0x1CB7 JUMP JUMPDEST JUMPDEST SWAP1 PUSH1 0x0 MSTORE PUSH1 0x20 PUSH1 0x0 KECCAK256 SWAP1 PUSH1 0x6 MUL ADD PUSH1 0x40 MLOAD DUP1 PUSH1 0xC0 ADD PUSH1 0x40 MSTORE SWAP1 DUP2 PUSH1 0x0 DUP3 ADD DUP1 SLOAD PUSH2 0xF22 SWAP1 PUSH2 0x1BF6 JUMP JUMPDEST DUP1 PUSH1 0x1F ADD PUSH1 0x20 DUP1 SWAP2 DIV MUL PUSH1 0x20 ADD PUSH1 0x40 MLOAD SWAP1 DUP2 ADD PUSH1 0x40 MSTORE DUP1 SWAP3 SWAP2 SWAP1 DUP2 DUP2 MSTORE PUSH1 0x20 ADD DUP3 DUP1 SLOAD PUSH2 0xF4E SWAP1 PUSH2 0x1BF6 JUMP JUMPDEST DUP1 ISZERO PUSH2 0xF9B JUMPI DUP1 PUSH1 0x1F LT PUSH2 0xF70 JUMPI PUSH2 0x100 DUP1 DUP4 SLOAD DIV MUL DUP4 MSTORE SWAP2 PUSH1 0x20 ADD SWAP2 PUSH2 0xF9B JUMP JUMPDEST DUP3 ADD SWAP2 SWAP1 PUSH1 0x0 MSTORE PUSH1 0x20 PUSH1 0x0 KECCAK256 SWAP1 JUMPDEST DUP2 SLOAD DUP2 MSTORE SWAP1 PUSH1 0x1 ADD SWAP1 PUSH1 0x20 ADD DUP1 DUP4 GT PUSH2 0xF7E JUMPI DUP3 SWAP1 SUB PUSH1 0x1F AND DUP3 ADD SWAP2 JUMPDEST POP POP POP POP POP DUP2 MSTORE PUSH1 0x20 ADD PUSH1 0x1 DUP3 ADD DUP1 SLOAD PUSH2 0xFB4 SWAP1 PUSH2 0x1BF6 JUMP JUMPDEST DUP1 PUSH1 0x1F ADD PUSH1 0x20 DUP1 SWAP2 DIV MUL PUSH1 0x20 ADD PUSH1 0x40 MLOAD SWAP1 DUP2 ADD PUSH1 0x40 MSTORE DUP1 SWAP3 SWAP2 SWAP1 DUP2 DUP2 MSTORE PUSH1 0x20 ADD DUP3 DUP1 SLOAD PUSH2 0xFE0 SWAP1 PUSH2 0x1BF6 JUMP JUMPDEST DUP1 ISZERO PUSH2 0x102D JUMPI DUP1 PUSH1 0x1F LT PUSH2 0x1002 JUMPI PUSH2 0x100 DUP1 DUP4 SLOAD DIV MUL DUP4 MSTORE SWAP2 PUSH1 0x20 ADD SWAP2 PUSH2 0x102D JUMP JUMPDEST DUP3 ADD SWAP2 SWAP1 PUSH1 0x0 MSTORE PUSH1 0x20 PUSH1 0x0 KECCAK256 SWAP1 JUMPDEST DUP2 SLOAD DUP2 MSTORE SWAP1 PUSH1 0x1 ADD SWAP1 PUSH1 0x20 ADD DUP1 DUP4 GT PUSH2 0x1010 JUMPI DUP3 SWAP1 SUB PUSH1 0x1F AND DUP3 ADD SWAP2 JUMPDEST POP POP POP POP POP DUP2 MSTORE PUSH1 0x20 ADD PUSH1 0x2 DUP3 ADD DUP1 SLOAD PUSH2 0x1046 SWAP1 PUSH2 0x1BF6 JUMP JUMPDEST DUP1 PUSH1 0x1F ADD PUSH1 0x20 DUP1 SWAP2 DIV MUL PUSH1 0x20 ADD PUSH1 0x40 MLOAD SWAP1 DUP2 ADD PUSH1 0x40 MSTORE DUP1 SWAP3 SWAP2 SWAP1 DUP2 DUP2 MSTORE PUSH1 0x20 ADD DUP3 DUP1 SLOAD PUSH2 0x1072 SWAP1 PUSH2 0x1BF6 JUMP JUMPDEST DUP1 ISZERO PUSH2 0x10BF JUMPI DUP1 PUSH1 0x1F LT PUSH2 0x1094 JUMPI PUSH2 0x100 DUP1 DUP4 SLOAD DIV MUL DUP4 MSTORE SWAP2 PUSH1 0x20 ADD SWAP2 PUSH2 0x10BF JUMP JUMPDEST DUP3 ADD SWAP2 SWAP1 PUSH1 0x0 MSTORE PUSH1 0x20 PUSH1 0x0 KECCAK256 SWAP1 JUMPDEST DUP2 SLOAD DUP2 MSTORE SWAP1 PUSH1 0x1 ADD SWAP1 PUSH1 0x20 ADD DUP1 DUP4 GT PUSH2 0x10A2 JUMPI DUP3 SWAP1 SUB PUSH1 0x1F AND DUP3 ADD SWAP2 JUMPDEST POP POP POP POP POP DUP2 MSTORE PUSH1 0x20 ADD PUSH1 0x3 DUP3 ADD SLOAD DUP2 MSTORE PUSH1 0x20 ADD PUSH1 0x4 DUP3 ADD SLOAD DUP2 MSTORE PUSH1 0x20 ADD PUSH1 0x5 DUP3 ADD SLOAD DUP2 MSTORE POP POP DUP5 PUSH1 0x2 DUP2 MLOAD DUP2 LT PUSH2 0x10FA JUMPI PUSH2 0x10F9 PUSH2 0x1CB7 JUMP JUMPDEST JUMPDEST PUSH1 0x20 MUL PUSH1 0x20 ADD ADD MLOAD PUSH2 0x1413 JUMP JUMPDEST JUMPDEST ISZERO PUSH2 0x1192 JUMPI PUSH2 0x1149 DUP5 PUSH1 0x9 PUSH1 0x0 DUP2 SLOAD DUP2 LT PUSH2 0x1126 JUMPI PUSH2 0x1125 PUSH2 0x1CB7 JUMP JUMPDEST JUMPDEST SWAP1 PUSH1 0x0 MSTORE PUSH1 0x20 PUSH1 0x0 KECCAK256 ADD PUSH1 0x0 ADD PUSH1 0x0 SWAP1 SLOAD SWAP1 PUSH2 0x100 EXP SWAP1 DIV PUSH4 0xFFFFFFFF AND PUSH2 0x143C JUMP JUMPDEST PUSH1 0x9 PUSH1 0x0 DUP2 SLOAD DUP2 LT PUSH2 0x115E JUMPI PUSH2 0x115D PUSH2 0x1CB7 JUMP JUMPDEST JUMPDEST SWAP1 PUSH1 0x0 MSTORE PUSH1 0x20 PUSH1 0x0 KECCAK256 ADD PUSH1 0x0 ADD PUSH1 0x4 PUSH2 0x100 EXP DUP2 SLOAD DUP2 PUSH4 0xFFFFFFFF MUL NOT AND SWAP1 DUP4 PUSH4 0xFFFFFFFF AND MUL OR SWAP1 SSTORE POP PUSH1 0x1 SWAP1 POP PUSH2 0x11CC JUMP JUMPDEST PUSH32 0x66091B7DC2B097C8F60D5CD6AA99633B097F08D2EB1056F3E15361B22E0EA2BA PUSH1 0x40 MLOAD PUSH2 0x11BF SWAP1 PUSH2 0x192B JUMP JUMPDEST PUSH1 0x40 MLOAD DUP1 SWAP2 SUB SWAP1 LOG1 PUSH1 0x0 SWAP1 POP JUMPDEST SWAP4 SWAP3 POP POP POP JUMP JUMPDEST PUSH1 0x6 DUP2 DUP2 SLOAD DUP2 LT PUSH2 0x11E3 JUMPI PUSH1 0x0 DUP1 REVERT JUMPDEST SWAP1 PUSH1 0x0 MSTORE PUSH1 0x20 PUSH1 0x0 KECCAK256 ADD PUSH1 0x0 SWAP2 POP SWAP1 POP DUP1 PUSH1 0x0 ADD PUSH1 0x0 SWAP1 SLOAD SWAP1 PUSH2 0x100 EXP SWAP1 DIV PUSH4 0xFFFFFFFF AND SWAP1 DUP1 PUSH1 0x0 ADD PUSH1 0x4 SWAP1 SLOAD SWAP1 PUSH2 0x100 EXP SWAP1 DIV PUSH4 0xFFFFFFFF AND SWAP1 POP DUP3 JUMP JUMPDEST PUSH1 0xA DUP2 DUP2 SLOAD DUP2 LT PUSH2 0x1233 JUMPI PUSH1 0x0 DUP1 REVERT JUMPDEST SWAP1 PUSH1 0x0 MSTORE PUSH1 0x20 PUSH1 0x0 KECCAK256 SWAP1 PUSH1 0x6 MUL ADD PUSH1 0x0 SWAP2 POP SWAP1 POP DUP1 PUSH1 0x0 ADD DUP1 SLOAD PUSH2 0x1256 SWAP1 PUSH2 0x1BF6 JUMP JUMPDEST DUP1 PUSH1 0x1F ADD PUSH1 0x20 DUP1 SWAP2 DIV MUL PUSH1 0x20 ADD PUSH1 0x40 MLOAD SWAP1 DUP2 ADD PUSH1 0x40 MSTORE DUP1 SWAP3 SWAP2 SWAP1 DUP2 DUP2 MSTORE PUSH1 0x20 ADD DUP3 DUP1 SLOAD PUSH2 0x1282 SWAP1 PUSH2 0x1BF6 JUMP JUMPDEST DUP1 ISZERO PUSH2 0x12CF JUMPI DUP1 PUSH1 0x1F LT PUSH2 0x12A4 JUMPI PUSH2 0x100 DUP1 DUP4 SLOAD DIV MUL DUP4 MSTORE SWAP2 PUSH1 0x20 ADD SWAP2 PUSH2 0x12CF JUMP JUMPDEST DUP3 ADD SWAP2 SWAP1 PUSH1 0x0 MSTORE PUSH1 0x20 PUSH1 0x0 KECCAK256 SWAP1 JUMPDEST DUP2 SLOAD DUP2 MSTORE SWAP1 PUSH1 0x1 ADD SWAP1 PUSH1 0x20 ADD DUP1 DUP4 GT PUSH2 0x12B2 JUMPI DUP3 SWAP1 SUB PUSH1 0x1F AND DUP3 ADD SWAP2 JUMPDEST POP POP POP POP POP SWAP1 DUP1 PUSH1 0x1 ADD DUP1 SLOAD PUSH2 0x12E4 SWAP1 PUSH2 0x1BF6 JUMP JUMPDEST DUP1 PUSH1 0x1F ADD PUSH1 0x20 DUP1 SWAP2 DIV MUL PUSH1 0x20 ADD PUSH1 0x40 MLOAD SWAP1 DUP2 ADD PUSH1 0x40 MSTORE DUP1 SWAP3 SWAP2 SWAP1 DUP2 DUP2 MSTORE PUSH1 0x20 ADD DUP3 DUP1 SLOAD PUSH2 0x1310 SWAP1 PUSH2 0x1BF6 JUMP JUMPDEST DUP1 ISZERO PUSH2 0x135D JUMPI DUP1 PUSH1 0x1F LT PUSH2 0x1332 JUMPI PUSH2 0x100 DUP1 DUP4 SLOAD DIV MUL DUP4 MSTORE SWAP2 PUSH1 0x20 ADD SWAP2 PUSH2 0x135D JUMP JUMPDEST DUP3 ADD SWAP2 SWAP1 PUSH1 0x0 MSTORE PUSH1 0x20 PUSH1 0x0 KECCAK256 SWAP1 JUMPDEST DUP2 SLOAD DUP2 MSTORE SWAP1 PUSH1 0x1 ADD SWAP1 PUSH1 0x20 ADD DUP1 DUP4 GT PUSH2 0x1340 JUMPI DUP3 SWAP1 SUB PUSH1 0x1F AND DUP3 ADD SWAP2 JUMPDEST POP POP POP POP POP SWAP1 DUP1 PUSH1 0x2 ADD DUP1 SLOAD PUSH2 0x1372 SWAP1 PUSH2 0x1BF6 JUMP JUMPDEST DUP1 PUSH1 0x1F ADD PUSH1 0x20 DUP1 SWAP2 DIV MUL PUSH1 0x20 ADD PUSH1 0x40 MLOAD SWAP1 DUP2 ADD PUSH1 0x40 MSTORE DUP1 SWAP3 SWAP2 SWAP1 DUP2 DUP2 MSTORE PUSH1 0x20 ADD DUP3 DUP1 SLOAD PUSH2 0x139E SWAP1 PUSH2 0x1BF6 JUMP JUMPDEST DUP1 ISZERO PUSH2 0x13EB JUMPI DUP1 PUSH1 0x1F LT PUSH2 0x13C0 JUMPI PUSH2 0x100 DUP1 DUP4 SLOAD DIV MUL DUP4 MSTORE SWAP2 PUSH1 0x20 ADD SWAP2 PUSH2 0x13EB JUMP JUMPDEST DUP3 ADD SWAP2 SWAP1 PUSH1 0x0 MSTORE PUSH1 0x20 PUSH1 0x0 KECCAK256 SWAP1 JUMPDEST DUP2 SLOAD DUP2 MSTORE SWAP1 PUSH1 0x1 ADD SWAP1 PUSH1 0x20 ADD DUP1 DUP4 GT PUSH2 0x13CE JUMPI DUP3 SWAP1 SUB PUSH1 0x1F AND DUP3 ADD SWAP2 JUMPDEST POP POP POP POP POP SWAP1 DUP1 PUSH1 0x3 ADD SLOAD SWAP1 DUP1 PUSH1 0x4 ADD SLOAD SWAP1 DUP1 PUSH1 0x5 ADD SLOAD SWAP1 POP DUP7 JUMP JUMPDEST PUSH1 0x0 PUSH1 0x1 SWAP1 POP SWAP3 SWAP2 POP POP JUMP JUMPDEST PUSH1 0x0 PUSH1 0x1 SWAP1 POP SWAP3 SWAP2 POP POP JUMP JUMPDEST PUSH1 0x0 PUSH1 0x1 SWAP1 POP SWAP3 SWAP2 POP POP JUMP JUMPDEST PUSH1 0x0 SWAP3 SWAP2 POP POP JUMP JUMPDEST PUSH1 0x0 SWAP4 SWAP3 POP POP POP JUMP JUMPDEST PUSH1 0x0 DUP2 DUP4 PUSH2 0x144A SWAP2 SWAP1 PUSH2 0x1B22 JUMP JUMPDEST SWAP1 POP SWAP3 SWAP2 POP POP JUMP JUMPDEST PUSH1 0x0 PUSH2 0x1465 PUSH2 0x1460 DUP5 PUSH2 0x1A27 JUMP JUMPDEST PUSH2 0x1A02 JUMP JUMPDEST SWAP1 POP DUP1 DUP4 DUP3 MSTORE PUSH1 0x20 DUP3 ADD SWAP1 POP DUP3 DUP6 PUSH1 0x20 DUP7 MUL DUP3 ADD GT ISZERO PUSH2 0x1488 JUMPI PUSH2 0x1487 PUSH2 0x1D1A JUMP JUMPDEST JUMPDEST PUSH1 0x0 JUMPDEST DUP6 DUP2 LT ISZERO PUSH2 0x14B8 JUMPI DUP2 PUSH2 0x149E DUP9 DUP3 PUSH2 0x1603 JUMP JUMPDEST DUP5 MSTORE PUSH1 0x20 DUP5 ADD SWAP4 POP PUSH1 0x20 DUP4 ADD SWAP3 POP POP PUSH1 0x1 DUP2 ADD SWAP1 POP PUSH2 0x148B JUMP JUMPDEST POP POP POP SWAP4 SWAP3 POP POP POP JUMP JUMPDEST PUSH1 0x0 PUSH2 0x14D5 PUSH2 0x14D0 DUP5 PUSH2 0x1A53 JUMP JUMPDEST PUSH2 0x1A02 JUMP JUMPDEST SWAP1 POP DUP1 DUP4 DUP3 MSTORE PUSH1 0x20 DUP3 ADD SWAP1 POP DUP3 DUP6 PUSH1 0x20 DUP7 MUL DUP3 ADD GT ISZERO PUSH2 0x14F8 JUMPI PUSH2 0x14F7 PUSH2 0x1D1A JUMP JUMPDEST JUMPDEST PUSH1 0x0 JUMPDEST DUP6 DUP2 LT ISZERO PUSH2 0x1546 JUMPI DUP2 CALLDATALOAD PUSH8 0xFFFFFFFFFFFFFFFF DUP2 GT ISZERO PUSH2 0x151E JUMPI PUSH2 0x151D PUSH2 0x1D15 JUMP JUMPDEST JUMPDEST DUP1 DUP7 ADD PUSH2 0x152B DUP10 DUP3 PUSH2 0x1618 JUMP JUMPDEST DUP6 MSTORE PUSH1 0x20 DUP6 ADD SWAP5 POP PUSH1 0x20 DUP5 ADD SWAP4 POP POP POP PUSH1 0x1 DUP2 ADD SWAP1 POP PUSH2 0x14FB JUMP JUMPDEST POP POP POP SWAP4 SWAP3 POP POP POP JUMP JUMPDEST PUSH1 0x0 PUSH2 0x1563 PUSH2 0x155E DUP5 PUSH2 0x1A7F JUMP JUMPDEST PUSH2 0x1A02 JUMP JUMPDEST SWAP1 POP DUP3 DUP2 MSTORE PUSH1 0x20 DUP2 ADD DUP5 DUP5 DUP5 ADD GT ISZERO PUSH2 0x157F JUMPI PUSH2 0x157E PUSH2 0x1D1F JUMP JUMPDEST JUMPDEST PUSH2 0x158A DUP5 DUP3 DUP6 PUSH2 0x1BB4 JUMP JUMPDEST POP SWAP4 SWAP3 POP POP POP JUMP JUMPDEST PUSH1 0x0 DUP2 CALLDATALOAD SWAP1 POP PUSH2 0x15A1 DUP2 PUSH2 0x1E52 JUMP JUMPDEST SWAP3 SWAP2 POP POP JUMP JUMPDEST PUSH1 0x0 DUP3 PUSH1 0x1F DUP4 ADD SLT PUSH2 0x15BC JUMPI PUSH2 0x15BB PUSH2 0x1D15 JUMP JUMPDEST JUMPDEST DUP2 CALLDATALOAD PUSH2 0x15CC DUP5 DUP3 PUSH1 0x20 DUP7 ADD PUSH2 0x1452 JUMP JUMPDEST SWAP2 POP POP SWAP3 SWAP2 POP POP JUMP JUMPDEST PUSH1 0x0 DUP3 PUSH1 0x1F DUP4 ADD SLT PUSH2 0x15EA JUMPI PUSH2 0x15E9 PUSH2 0x1D15 JUMP JUMPDEST JUMPDEST DUP2 CALLDATALOAD PUSH2 0x15FA DUP5 DUP3 PUSH1 0x20 DUP7 ADD PUSH2 0x14C2 JUMP JUMPDEST SWAP2 POP POP SWAP3 SWAP2 POP POP JUMP JUMPDEST PUSH1 0x0 DUP2 CALLDATALOAD SWAP1 POP PUSH2 0x1612 DUP2 PUSH2 0x1E69 JUMP JUMPDEST SWAP3 SWAP2 POP POP JUMP JUMPDEST PUSH1 0x0 DUP3 PUSH1 0x1F DUP4 ADD SLT PUSH2 0x162D JUMPI PUSH2 0x162C PUSH2 0x1D15 JUMP JUMPDEST JUMPDEST DUP2 CALLDATALOAD PUSH2 0x163D DUP5 DUP3 PUSH1 0x20 DUP7 ADD PUSH2 0x1550 JUMP JUMPDEST SWAP2 POP POP SWAP3 SWAP2 POP POP JUMP JUMPDEST PUSH1 0x0 DUP2 CALLDATALOAD SWAP1 POP PUSH2 0x1655 DUP2 PUSH2 0x1E80 JUMP JUMPDEST SWAP3 SWAP2 POP POP JUMP JUMPDEST PUSH1 0x0 DUP2 CALLDATALOAD SWAP1 POP PUSH2 0x166A DUP2 PUSH2 0x1E97 JUMP JUMPDEST SWAP3 SWAP2 POP POP JUMP JUMPDEST PUSH1 0x0 PUSH1 0x20 DUP3 DUP5 SUB SLT ISZERO PUSH2 0x1686 JUMPI PUSH2 0x1685 PUSH2 0x1D29 JUMP JUMPDEST JUMPDEST PUSH1 0x0 PUSH2 0x1694 DUP5 DUP3 DUP6 ADD PUSH2 0x1646 JUMP JUMPDEST SWAP2 POP POP SWAP3 SWAP2 POP POP JUMP JUMPDEST PUSH1 0x0 DUP1 PUSH1 0x0 PUSH1 0x60 DUP5 DUP7 SUB SLT ISZERO PUSH2 0x16B6 JUMPI PUSH2 0x16B5 PUSH2 0x1D29 JUMP JUMPDEST JUMPDEST PUSH1 0x0 PUSH2 0x16C4 DUP7 DUP3 DUP8 ADD PUSH2 0x165B JUMP JUMPDEST SWAP4 POP POP PUSH1 0x20 DUP5 ADD CALLDATALOAD PUSH8 0xFFFFFFFFFFFFFFFF DUP2 GT ISZERO PUSH2 0x16E5 JUMPI PUSH2 0x16E4 PUSH2 0x1D24 JUMP JUMPDEST JUMPDEST PUSH2 0x16F1 DUP7 DUP3 DUP8 ADD PUSH2 0x15D5 JUMP JUMPDEST SWAP3 POP POP PUSH1 0x40 PUSH2 0x1702 DUP7 DUP3 DUP8 ADD PUSH2 0x1592 JUMP JUMPDEST SWAP2 POP POP SWAP3 POP SWAP3 POP SWAP3 JUMP JUMPDEST PUSH1 0x0 DUP1 PUSH1 0x0 DUP1 PUSH1 0x80 DUP6 DUP8 SUB SLT ISZERO PUSH2 0x1726 JUMPI PUSH2 0x1725 PUSH2 0x1D29 JUMP JUMPDEST JUMPDEST PUSH1 0x0 PUSH2 0x1734 DUP8 DUP3 DUP9 ADD PUSH2 0x165B JUMP JUMPDEST SWAP5 POP POP PUSH1 0x20 DUP6 ADD CALLDATALOAD PUSH8 0xFFFFFFFFFFFFFFFF DUP2 GT ISZERO PUSH2 0x1755 JUMPI PUSH2 0x1754 PUSH2 0x1D24 JUMP JUMPDEST JUMPDEST PUSH2 0x1761 DUP8 DUP3 DUP9 ADD PUSH2 0x15D5 JUMP JUMPDEST SWAP4 POP POP PUSH1 0x40 DUP6 ADD CALLDATALOAD PUSH8 0xFFFFFFFFFFFFFFFF DUP2 GT ISZERO PUSH2 0x1782 JUMPI PUSH2 0x1781 PUSH2 0x1D24 JUMP JUMPDEST JUMPDEST PUSH2 0x178E DUP8 DUP3 DUP9 ADD PUSH2 0x15A7 JUMP JUMPDEST SWAP3 POP POP PUSH1 0x60 PUSH2 0x179F DUP8 DUP3 DUP9 ADD PUSH2 0x1592 JUMP JUMPDEST SWAP2 POP POP SWAP3 SWAP6 SWAP2 SWAP5 POP SWAP3 POP JUMP JUMPDEST PUSH2 0x17B4 DUP2 PUSH2 0x1B6E JUMP JUMPDEST DUP3 MSTORE POP POP JUMP JUMPDEST PUSH1 0x0 PUSH2 0x17C5 DUP3 PUSH2 0x1AB0 JUMP JUMPDEST PUSH2 0x17CF DUP2 DUP6 PUSH2 0x1ABB JUMP JUMPDEST SWAP4 POP PUSH2 0x17DF DUP2 DUP6 PUSH1 0x20 DUP7 ADD PUSH2 0x1BC3 JUMP JUMPDEST PUSH2 0x17E8 DUP2 PUSH2 0x1D2E JUMP JUMPDEST DUP5 ADD SWAP2 POP POP SWAP3 SWAP2 POP POP JUMP JUMPDEST PUSH1 0x0 PUSH2 0x1800 PUSH1 0x31 DUP4 PUSH2 0x1ABB JUMP JUMPDEST SWAP2 POP PUSH2 0x180B DUP3 PUSH2 0x1D3F JUMP JUMPDEST PUSH1 0x40 DUP3 ADD SWAP1 POP SWAP2 SWAP1 POP JUMP JUMPDEST PUSH1 0x0 PUSH2 0x1823 PUSH1 0x50 DUP4 PUSH2 0x1ABB JUMP JUMPDEST SWAP2 POP PUSH2 0x182E DUP3 PUSH2 0x1D8E JUMP JUMPDEST PUSH1 0x60 DUP3 ADD SWAP1 POP SWAP2 SWAP1 POP JUMP JUMPDEST PUSH1 0x0 PUSH2 0x1846 PUSH1 0x32 DUP4 PUSH2 0x1ABB JUMP JUMPDEST SWAP2 POP PUSH2 0x1851 DUP3 PUSH2 0x1E03 JUMP JUMPDEST PUSH1 0x40 DUP3 ADD SWAP1 POP SWAP2 SWAP1 POP JUMP JUMPDEST PUSH2 0x1865 DUP2 PUSH2 0x1B9A JUMP JUMPDEST DUP3 MSTORE POP POP JUMP JUMPDEST PUSH2 0x1874 DUP2 PUSH2 0x1BA4 JUMP JUMPDEST DUP3 MSTORE POP POP JUMP JUMPDEST PUSH1 0x0 PUSH1 0x20 DUP3 ADD SWAP1 POP PUSH2 0x188F PUSH1 0x0 DUP4 ADD DUP5 PUSH2 0x17AB JUMP JUMPDEST SWAP3 SWAP2 POP POP JUMP JUMPDEST PUSH1 0x0 PUSH1 0xC0 DUP3 ADD SWAP1 POP DUP2 DUP2 SUB PUSH1 0x0 DUP4 ADD MSTORE PUSH2 0x18AF DUP2 DUP10 PUSH2 0x17BA JUMP JUMPDEST SWAP1 POP DUP2 DUP2 SUB PUSH1 0x20 DUP4 ADD MSTORE PUSH2 0x18C3 DUP2 DUP9 PUSH2 0x17BA JUMP JUMPDEST SWAP1 POP DUP2 DUP2 SUB PUSH1 0x40 DUP4 ADD MSTORE PUSH2 0x18D7 DUP2 DUP8 PUSH2 0x17BA JUMP JUMPDEST SWAP1 POP PUSH2 0x18E6 PUSH1 0x60 DUP4 ADD DUP7 PUSH2 0x185C JUMP JUMPDEST PUSH2 0x18F3 PUSH1 0x80 DUP4 ADD DUP6 PUSH2 0x185C JUMP JUMPDEST PUSH2 0x1900 PUSH1 0xA0 DUP4 ADD DUP5 PUSH2 0x185C JUMP JUMPDEST SWAP8 SWAP7 POP POP POP POP POP POP POP JUMP JUMPDEST PUSH1 0x0 PUSH1 0x20 DUP3 ADD SWAP1 POP DUP2 DUP2 SUB PUSH1 0x0 DUP4 ADD MSTORE PUSH2 0x1924 DUP2 PUSH2 0x17F3 JUMP JUMPDEST SWAP1 POP SWAP2 SWAP1 POP JUMP JUMPDEST PUSH1 0x0 PUSH1 0x20 DUP3 ADD SWAP1 POP DUP2 DUP2 SUB PUSH1 0x0 DUP4 ADD MSTORE PUSH2 0x1944 DUP2 PUSH2 0x1816 JUMP JUMPDEST SWAP1 POP SWAP2 SWAP1 POP JUMP JUMPDEST PUSH1 0x0 PUSH1 0x20 DUP3 ADD SWAP1 POP DUP2 DUP2 SUB PUSH1 0x0 DUP4 ADD MSTORE PUSH2 0x1964 DUP2 PUSH2 0x1839 JUMP JUMPDEST SWAP1 POP SWAP2 SWAP1 POP JUMP JUMPDEST PUSH1 0x0 PUSH1 0x40 DUP3 ADD SWAP1 POP PUSH2 0x1980 PUSH1 0x0 DUP4 ADD DUP6 PUSH2 0x185C JUMP JUMPDEST PUSH2 0x198D PUSH1 0x20 DUP4 ADD DUP5 PUSH2 0x185C JUMP JUMPDEST SWAP4 SWAP3 POP POP POP JUMP JUMPDEST PUSH1 0x0 PUSH1 0x80 DUP3 ADD SWAP1 POP PUSH2 0x19A9 PUSH1 0x0 DUP4 ADD DUP8 PUSH2 0x185C JUMP JUMPDEST PUSH2 0x19B6 PUSH1 0x20 DUP4 ADD DUP7 PUSH2 0x185C JUMP JUMPDEST PUSH2 0x19C3 PUSH1 0x40 DUP4 ADD DUP6 PUSH2 0x185C JUMP JUMPDEST PUSH2 0x19D0 PUSH1 0x60 DUP4 ADD DUP5 PUSH2 0x185C JUMP JUMPDEST SWAP6 SWAP5 POP POP POP POP POP JUMP JUMPDEST PUSH1 0x0 PUSH1 0x40 DUP3 ADD SWAP1 POP PUSH2 0x19EE PUSH1 0x0 DUP4 ADD DUP6 PUSH2 0x186B JUMP JUMPDEST PUSH2 0x19FB PUSH1 0x20 DUP4 ADD DUP5 PUSH2 0x186B JUMP JUMPDEST SWAP4 SWAP3 POP POP POP JUMP JUMPDEST PUSH1 0x0 PUSH2 0x1A0C PUSH2 0x1A1D JUMP JUMPDEST SWAP1 POP PUSH2 0x1A18 DUP3 DUP3 PUSH2 0x1C28 JUMP JUMPDEST SWAP2 SWAP1 POP JUMP JUMPDEST PUSH1 0x0 PUSH1 0x40 MLOAD SWAP1 POP SWAP1 JUMP JUMPDEST PUSH1 0x0 PUSH8 0xFFFFFFFFFFFFFFFF DUP3 GT ISZERO PUSH2 0x1A42 JUMPI PUSH2 0x1A41 PUSH2 0x1CE6 JUMP JUMPDEST JUMPDEST PUSH1 0x20 DUP3 MUL SWAP1 POP PUSH1 0x20 DUP2 ADD SWAP1 POP SWAP2 SWAP1 POP JUMP JUMPDEST PUSH1 0x0 PUSH8 0xFFFFFFFFFFFFFFFF DUP3 GT ISZERO PUSH2 0x1A6E JUMPI PUSH2 0x1A6D PUSH2 0x1CE6 JUMP JUMPDEST JUMPDEST PUSH1 0x20 DUP3 MUL SWAP1 POP PUSH1 0x20 DUP2 ADD SWAP1 POP SWAP2 SWAP1 POP JUMP JUMPDEST PUSH1 0x0 PUSH8 0xFFFFFFFFFFFFFFFF DUP3 GT ISZERO PUSH2 0x1A9A JUMPI PUSH2 0x1A99 PUSH2 0x1CE6 JUMP JUMPDEST JUMPDEST PUSH2 0x1AA3 DUP3 PUSH2 0x1D2E JUMP JUMPDEST SWAP1 POP PUSH1 0x20 DUP2 ADD SWAP1 POP SWAP2 SWAP1 POP JUMP JUMPDEST PUSH1 0x0 DUP2 MLOAD SWAP1 POP SWAP2 SWAP1 POP JUMP JUMPDEST PUSH1 0x0 DUP3 DUP3 MSTORE PUSH1 0x20 DUP3 ADD SWAP1 POP SWAP3 SWAP2 POP POP JUMP JUMPDEST PUSH1 0x0 PUSH2 0x1AD7 DUP3 PUSH2 0x1B9A JUMP JUMPDEST SWAP2 POP PUSH2 0x1AE2 DUP4 PUSH2 0x1B9A JUMP JUMPDEST SWAP3 POP DUP3 PUSH32 0xFFFFFFFFFFFFFFFFFFFFFFFFFFFFFFFFFFFFFFFFFFFFFFFFFFFFFFFFFFFFFFFF SUB DUP3 GT ISZERO PUSH2 0x1B17 JUMPI PUSH2 0x1B16 PUSH2 0x1C59 JUMP JUMPDEST JUMPDEST DUP3 DUP3 ADD SWAP1 POP SWAP3 SWAP2 POP POP JUMP JUMPDEST PUSH1 0x0 PUSH2 0x1B2D DUP3 PUSH2 0x1BA4 JUMP JUMPDEST SWAP2 POP PUSH2 0x1B38 DUP4 PUSH2 0x1BA4 JUMP JUMPDEST SWAP3 POP DUP3 PUSH4 0xFFFFFFFF SUB DUP3 GT ISZERO PUSH2 0x1B51 JUMPI PUSH2 0x1B50 PUSH2 0x1C59 JUMP JUMPDEST JUMPDEST DUP3 DUP3 ADD SWAP1 POP SWAP3 SWAP2 POP POP JUMP JUMPDEST PUSH1 0x0 PUSH2 0x1B67 DUP3 PUSH2 0x1B7A JUMP JUMPDEST SWAP1 POP SWAP2 SWAP1 POP JUMP JUMPDEST PUSH1 0x0 DUP2 ISZERO ISZERO SWAP1 POP SWAP2 SWAP1 POP JUMP JUMPDEST PUSH1 0x0 PUSH20 0xFFFFFFFFFFFFFFFFFFFFFFFFFFFFFFFFFFFFFFFF DUP3 AND SWAP1 POP SWAP2 SWAP1 POP JUMP JUMPDEST PUSH1 0x0 DUP2 SWAP1 POP SWAP2 SWAP1 POP JUMP JUMPDEST PUSH1 0x0 PUSH4 0xFFFFFFFF DUP3 AND SWAP1 POP SWAP2 SWAP1 POP JUMP JUMPDEST DUP3 DUP2 DUP4 CALLDATACOPY PUSH1 0x0 DUP4 DUP4 ADD MSTORE POP POP POP JUMP JUMPDEST PUSH1 0x0 JUMPDEST DUP4 DUP2 LT ISZERO PUSH2 0x1BE1 JUMPI DUP1 DUP3 ADD MLOAD DUP2 DUP5 ADD MSTORE PUSH1 0x20 DUP2 ADD SWAP1 POP PUSH2 0x1BC6 JUMP JUMPDEST DUP4 DUP2 GT ISZERO PUSH2 0x1BF0 JUMPI PUSH1 0x0 DUP5 DUP5 ADD MSTORE JUMPDEST POP POP POP POP JUMP JUMPDEST PUSH1 0x0 PUSH1 0x2 DUP3 DIV SWAP1 POP PUSH1 0x1 DUP3 AND DUP1 PUSH2 0x1C0E JUMPI PUSH1 0x7F DUP3 AND SWAP2 POP JUMPDEST PUSH1 0x20 DUP3 LT DUP2 EQ ISZERO PUSH2 0x1C22 JUMPI PUSH2 0x1C21 PUSH2 0x1C88 JUMP JUMPDEST JUMPDEST POP SWAP2 SWAP1 POP JUMP JUMPDEST PUSH2 0x1C31 DUP3 PUSH2 0x1D2E JUMP JUMPDEST DUP2 ADD DUP2 DUP2 LT PUSH8 0xFFFFFFFFFFFFFFFF DUP3 GT OR ISZERO PUSH2 0x1C50 JUMPI PUSH2 0x1C4F PUSH2 0x1CE6 JUMP JUMPDEST JUMPDEST DUP1 PUSH1 0x40 MSTORE POP POP POP JUMP JUMPDEST PUSH32 0x4E487B7100000000000000000000000000000000000000000000000000000000 PUSH1 0x0 MSTORE PUSH1 0x11 PUSH1 0x4 MSTORE PUSH1 0x24 PUSH1 0x0 REVERT JUMPDEST PUSH32 0x4E487B7100000000000000000000000000000000000000000000000000000000 PUSH1 0x0 MSTORE PUSH1 0x22 PUSH1 0x4 MSTORE PUSH1 0x24 PUSH1 0x0 REVERT JUMPDEST PUSH32 0x4E487B7100000000000000000000000000000000000000000000000000000000 PUSH1 0x0 MSTORE PUSH1 0x32 PUSH1 0x4 MSTORE PUSH1 0x24 PUSH1 0x0 REVERT JUMPDEST PUSH32 0x4E487B7100000000000000000000000000000000000000000000000000000000 PUSH1 0x0 MSTORE PUSH1 0x41 PUSH1 0x4 MSTORE PUSH1 0x24 PUSH1 0x0 REVERT JUMPDEST PUSH1 0x0 DUP1 REVERT JUMPDEST PUSH1 0x0 DUP1 REVERT JUMPDEST PUSH1 0x0 DUP1 REVERT JUMPDEST PUSH1 0x0 DUP1 REVERT JUMPDEST PUSH1 0x0 DUP1 REVERT JUMPDEST PUSH1 0x0 PUSH1 0x1F NOT PUSH1 0x1F DUP4 ADD AND SWAP1 POP SWAP2 SWAP1 POP JUMP JUMPDEST PUSH32 0x596F752068617665206E6F207065726D697373696F6E20746F20706572666F72 PUSH1 0x0 DUP3 ADD MSTORE PUSH32 0x6D2074686973206F7065726174696F6E2E000000000000000000000000000000 PUSH1 0x20 DUP3 ADD MSTORE POP JUMP JUMPDEST PUSH32 0x52657175657374206F7065726174696F6E20706572666F726D6564206F757473 PUSH1 0x0 DUP3 ADD MSTORE PUSH32 0x696465206F6620616C6C6F77656420686F757273206F72206C696D6974206F70 PUSH1 0x20 DUP3 ADD MSTORE PUSH32 0x65726174696F6E20657863656564656400000000000000000000000000000000 PUSH1 0x40 DUP3 ADD MSTORE POP JUMP JUMPDEST PUSH32 0x457863656564656420726573706F6E73652074696D65206F72206D6573736167 PUSH1 0x0 DUP3 ADD MSTORE PUSH32 0x6520636F6E74656E74206D69736D617463680000000000000000000000000000 PUSH1 0x20 DUP3 ADD MSTORE POP JUMP JUMPDEST PUSH2 0x1E5B DUP2 PUSH2 0x1B5C JUMP JUMPDEST DUP2 EQ PUSH2 0x1E66 JUMPI PUSH1 0x0 DUP1 REVERT JUMPDEST POP JUMP JUMPDEST PUSH2 0x1E72 DUP2 PUSH2 0x1B6E JUMP JUMPDEST DUP2 EQ PUSH2 0x1E7D JUMPI PUSH1 0x0 DUP1 REVERT JUMPDEST POP JUMP JUMPDEST PUSH2 0x1E89 DUP2 PUSH2 0x1B9A JUMP JUMPDEST DUP2 EQ PUSH2 0x1E94 JUMPI PUSH1 0x0 DUP1 REVERT JUMPDEST POP JUMP JUMPDEST PUSH2 0x1EA0 DUP2 PUSH2 0x1BA4 JUMP JUMPDEST DUP2 EQ PUSH2 0x1EAB JUMPI PUSH1 0x0 DUP1 REVERT JUMPDEST POP JUMP INVALID LOG2 PUSH5 0x6970667358 0x22 SLT KECCAK256 CHAINID SWAP6 PUSH10 0x5A47841FA209B13F06BE PUSH15 0x321DFF1A5DBCD88DC6FC49D57E1D2D 0xAC CREATE 0xBB PUSH5 0x736F6C6343 STOP ADDMOD SMOD STOP CALLER "
				},
				"gasEstimates": {
					"creation": {
						"codeDepositCost": "1581600",
						"executionCost": "infinite",
						"totalCost": "infinite"
					},
					"external": {
						"businessDay(uint256)": "infinite",
						"messageContent_request(uint256)": "infinite",
						"messageContent_response(uint256)": "infinite",
						"operationLimit(uint256)": "infinite",
						"requestDelivery(uint32,string[],address)": "infinite",
						"responderOrder(uint32,string[],bool[],address)": "infinite",
						"timeInterval(uint256)": "infinite",
						"timeout(uint256)": "infinite"
					}
				},
				"methodIdentifiers": {
					"businessDay(uint256)": "736724a7",
					"messageContent_request(uint256)": "20ac908b",
					"messageContent_response(uint256)": "f73f91bf",
					"operationLimit(uint256)": "738a6122",
					"requestDelivery(uint32,string[],address)": "92091920",
					"responderOrder(uint32,string[],bool[],address)": "79bc473b",
					"timeInterval(uint256)": "cc58fd8c",
					"timeout(uint256)": "08148f7a"
				}
			},
			"storageLayout": {
				"storage": [
					{
						"astId": 6,
						"contract": "DeliveryHiringRO.sol:DeliveryHiring",
						"label": "beginDate",
						"offset": 0,
						"slot": "0",
						"type": "t_uint32"
					},
					{
						"astId": 9,
						"contract": "DeliveryHiringRO.sol:DeliveryHiring",
						"label": "dueDate",
						"offset": 4,
						"slot": "0",
						"type": "t_uint32"
					},
					{
						"astId": 12,
						"contract": "DeliveryHiringRO.sol:DeliveryHiring",
						"label": "deliverySystem",
						"offset": 0,
						"slot": "1",
						"type": "t_struct(Party)2421_storage"
					},
					{
						"astId": 15,
						"contract": "DeliveryHiringRO.sol:DeliveryHiring",
						"label": "integrationProcess",
						"offset": 0,
						"slot": "3",
						"type": "t_struct(Party)2421_storage"
					},
					{
						"astId": 19,
						"contract": "DeliveryHiringRO.sol:DeliveryHiring",
						"label": "businessDay",
						"offset": 0,
						"slot": "5",
						"type": "t_array(t_struct(BusinessDay)2440_storage)dyn_storage"
					},
					{
						"astId": 23,
						"contract": "DeliveryHiringRO.sol:DeliveryHiring",
						"label": "timeInterval",
						"offset": 0,
						"slot": "6",
						"type": "t_array(t_struct(TimeInterval)2445_storage)dyn_storage"
					},
					{
						"astId": 27,
						"contract": "DeliveryHiringRO.sol:DeliveryHiring",
						"label": "operationLimit",
						"offset": 0,
						"slot": "7",
						"type": "t_array(t_struct(OperationLimit)2430_storage)dyn_storage"
					},
					{
						"astId": 31,
						"contract": "DeliveryHiringRO.sol:DeliveryHiring",
						"label": "messageContent_request",
						"offset": 0,
						"slot": "8",
						"type": "t_array(t_struct(MessageContent)2463_storage)dyn_storage"
					},
					{
						"astId": 35,
						"contract": "DeliveryHiringRO.sol:DeliveryHiring",
						"label": "timeout",
						"offset": 0,
						"slot": "9",
						"type": "t_array(t_struct(Timeout)2450_storage)dyn_storage"
					},
					{
						"astId": 39,
						"contract": "DeliveryHiringRO.sol:DeliveryHiring",
						"label": "messageContent_response",
						"offset": 0,
						"slot": "10",
						"type": "t_array(t_struct(MessageContent)2463_storage)dyn_storage"
					}
				],
				"types": {
					"t_address": {
						"encoding": "inplace",
						"label": "address",
						"numberOfBytes": "20"
					},
					"t_array(t_struct(BusinessDay)2440_storage)dyn_storage": {
						"base": "t_struct(BusinessDay)2440_storage",
						"encoding": "dynamic_array",
						"label": "struct EAI_Domain.BusinessDay[]",
						"numberOfBytes": "32"
					},
					"t_array(t_struct(MessageContent)2463_storage)dyn_storage": {
						"base": "t_struct(MessageContent)2463_storage",
						"encoding": "dynamic_array",
						"label": "struct EAI_Domain.MessageContent[]",
						"numberOfBytes": "32"
					},
					"t_array(t_struct(OperationLimit)2430_storage)dyn_storage": {
						"base": "t_struct(OperationLimit)2430_storage",
						"encoding": "dynamic_array",
						"label": "struct EAI_Domain.OperationLimit[]",
						"numberOfBytes": "32"
					},
					"t_array(t_struct(TimeInterval)2445_storage)dyn_storage": {
						"base": "t_struct(TimeInterval)2445_storage",
						"encoding": "dynamic_array",
						"label": "struct EAI_Domain.TimeInterval[]",
						"numberOfBytes": "32"
					},
					"t_array(t_struct(Timeout)2450_storage)dyn_storage": {
						"base": "t_struct(Timeout)2450_storage",
						"encoding": "dynamic_array",
						"label": "struct EAI_Domain.Timeout[]",
						"numberOfBytes": "32"
					},
					"t_string_storage": {
						"encoding": "bytes",
						"label": "string",
						"numberOfBytes": "32"
					},
					"t_struct(BusinessDay)2440_storage": {
						"encoding": "inplace",
						"label": "struct EAI_Domain.BusinessDay",
						"members": [
							{
								"astId": 2437,
								"contract": "DeliveryHiringRO.sol:DeliveryHiring",
								"label": "weekDay_start",
								"offset": 0,
								"slot": "0",
								"type": "t_uint256"
							},
							{
								"astId": 2439,
								"contract": "DeliveryHiringRO.sol:DeliveryHiring",
								"label": "weekDay_end",
								"offset": 0,
								"slot": "1",
								"type": "t_uint256"
							}
						],
						"numberOfBytes": "64"
					},
					"t_struct(MessageContent)2463_storage": {
						"encoding": "inplace",
						"label": "struct EAI_Domain.MessageContent",
						"members": [
							{
								"astId": 2452,
								"contract": "DeliveryHiringRO.sol:DeliveryHiring",
								"label": "xPathQuery",
								"offset": 0,
								"slot": "0",
								"type": "t_string_storage"
							},
							{
								"astId": 2454,
								"contract": "DeliveryHiringRO.sol:DeliveryHiring",
								"label": "binaryOperator",
								"offset": 0,
								"slot": "1",
								"type": "t_string_storage"
							},
							{
								"astId": 2456,
								"contract": "DeliveryHiringRO.sol:DeliveryHiring",
								"label": "referenceValue",
								"offset": 0,
								"slot": "2",
								"type": "t_string_storage"
							},
							{
								"astId": 2458,
								"contract": "DeliveryHiringRO.sol:DeliveryHiring",
								"label": "frequencyTime",
								"offset": 0,
								"slot": "3",
								"type": "t_uint256"
							},
							{
								"astId": 2460,
								"contract": "DeliveryHiringRO.sol:DeliveryHiring",
								"label": "endOfInterval",
								"offset": 0,
								"slot": "4",
								"type": "t_uint256"
							},
							{
								"astId": 2462,
								"contract": "DeliveryHiringRO.sol:DeliveryHiring",
								"label": "accumulatedValue",
								"offset": 0,
								"slot": "5",
								"type": "t_uint256"
							}
						],
						"numberOfBytes": "192"
					},
					"t_struct(OperationLimit)2430_storage": {
						"encoding": "inplace",
						"label": "struct EAI_Domain.OperationLimit",
						"members": [
							{
								"astId": 2423,
								"contract": "DeliveryHiringRO.sol:DeliveryHiring",
								"label": "requestsLimit",
								"offset": 0,
								"slot": "0",
								"type": "t_uint256"
							},
							{
								"astId": 2425,
								"contract": "DeliveryHiringRO.sol:DeliveryHiring",
								"label": "frequencyTime",
								"offset": 0,
								"slot": "1",
								"type": "t_uint256"
							},
							{
								"astId": 2427,
								"contract": "DeliveryHiringRO.sol:DeliveryHiring",
								"label": "timeout",
								"offset": 0,
								"slot": "2",
								"type": "t_uint256"
							},
							{
								"astId": 2429,
								"contract": "DeliveryHiringRO.sol:DeliveryHiring",
								"label": "counter",
								"offset": 0,
								"slot": "3",
								"type": "t_uint256"
							}
						],
						"numberOfBytes": "128"
					},
					"t_struct(Party)2421_storage": {
						"encoding": "inplace",
						"label": "struct EAI_Domain.Party",
						"members": [
							{
								"astId": 2418,
								"contract": "DeliveryHiringRO.sol:DeliveryHiring",
								"label": "name",
								"offset": 0,
								"slot": "0",
								"type": "t_string_storage"
							},
							{
								"astId": 2420,
								"contract": "DeliveryHiringRO.sol:DeliveryHiring",
								"label": "walletAddress",
								"offset": 0,
								"slot": "1",
								"type": "t_address"
							}
						],
						"numberOfBytes": "64"
					},
					"t_struct(TimeInterval)2445_storage": {
						"encoding": "inplace",
						"label": "struct EAI_Domain.TimeInterval",
						"members": [
							{
								"astId": 2442,
								"contract": "DeliveryHiringRO.sol:DeliveryHiring",
								"label": "start",
								"offset": 0,
								"slot": "0",
								"type": "t_uint32"
							},
							{
								"astId": 2444,
								"contract": "DeliveryHiringRO.sol:DeliveryHiring",
								"label": "end",
								"offset": 4,
								"slot": "0",
								"type": "t_uint32"
							}
						],
						"numberOfBytes": "32"
					},
					"t_struct(Timeout)2450_storage": {
						"encoding": "inplace",
						"label": "struct EAI_Domain.Timeout",
						"members": [
							{
								"astId": 2447,
								"contract": "DeliveryHiringRO.sol:DeliveryHiring",
								"label": "increment",
								"offset": 0,
								"slot": "0",
								"type": "t_uint32"
							},
							{
								"astId": 2449,
								"contract": "DeliveryHiringRO.sol:DeliveryHiring",
								"label": "endTime",
								"offset": 4,
								"slot": "0",
								"type": "t_uint32"
							}
						],
						"numberOfBytes": "32"
					},
					"t_uint256": {
						"encoding": "inplace",
						"label": "uint256",
						"numberOfBytes": "32"
					},
					"t_uint32": {
						"encoding": "inplace",
						"label": "uint32",
						"numberOfBytes": "4"
					}
				}
			},
			"userdoc": {
				"kind": "user",
				"methods": {
					"requestDelivery(uint32,string[],address)": {
						"notice": "Setting the days and hours to request a delivery and the maximum delivery distance"
					},
					"responderOrder(uint32,string[],bool[],address)": {
						"notice": "Setting the time limit for responding to a request"
					}
				},
				"version": 1
			}
		}
	}
}