{
	"DeliveryHiringRO.sol": {
		"DeliveryHiring": {
			"abi": [
				{
					"inputs": [
						{
							"internalType": "address",
							"name": "_applicationWallet",
							"type": "address"
						},
						{
							"internalType": "address",
							"name": "_processWallet",
							"type": "address"
						}
					],
					"stateMutability": "nonpayable",
					"type": "constructor"
				},
				{
					"anonymous": false,
					"inputs": [
						{
							"indexed": false,
							"internalType": "string",
							"name": "message",
							"type": "string"
						}
					],
					"name": "failEvent",
					"type": "event"
				},
				{
					"anonymous": false,
					"inputs": [
						{
							"indexed": false,
							"internalType": "string",
							"name": "message",
							"type": "string"
						}
					],
					"name": "successEvent",
					"type": "event"
				},
				{
					"inputs": [],
					"name": "businessDay",
					"outputs": [
						{
							"internalType": "uint256",
							"name": "weekDay_start",
							"type": "uint256"
						},
						{
							"internalType": "uint256",
							"name": "weekDay_end",
							"type": "uint256"
						}
					],
					"stateMutability": "view",
					"type": "function"
				},
				{
					"inputs": [],
					"name": "businessTime",
					"outputs": [
						{
							"internalType": "uint32",
							"name": "start",
							"type": "uint32"
						},
						{
							"internalType": "uint32",
							"name": "end",
							"type": "uint32"
						}
					],
					"stateMutability": "view",
					"type": "function"
				},
				{
					"inputs": [
						{
							"internalType": "uint256",
							"name": "",
							"type": "uint256"
						}
					],
					"name": "messageContent_request",
					"outputs": [
						{
							"internalType": "string",
							"name": "xPathQuery",
							"type": "string"
						}
					],
					"stateMutability": "view",
					"type": "function"
				},
				{
					"inputs": [
						{
							"internalType": "uint256",
							"name": "",
							"type": "uint256"
						}
					],
					"name": "messageContent_response",
					"outputs": [
						{
							"internalType": "string",
							"name": "xPathQuery",
							"type": "string"
						}
					],
					"stateMutability": "view",
					"type": "function"
				},
				{
					"inputs": [],
					"name": "operationLimit",
					"outputs": [
						{
							"internalType": "uint256",
							"name": "requestsLimit",
							"type": "uint256"
						},
						{
							"internalType": "uint256",
							"name": "frequencyTime",
							"type": "uint256"
						},
						{
							"internalType": "uint256",
							"name": "requestsPerformed",
							"type": "uint256"
						},
						{
							"internalType": "uint256",
							"name": "timeout",
							"type": "uint256"
						}
					],
					"stateMutability": "view",
					"type": "function"
				},
				{
					"inputs": [
						{
							"internalType": "uint32",
							"name": "_accessDateTime",
							"type": "uint32"
						},
						{
							"internalType": "string[]",
							"name": "_xPathContent",
							"type": "string[]"
						},
						{
							"internalType": "bool[]",
							"name": "_xPathResult",
							"type": "bool[]"
						},
						{
							"internalType": "address",
							"name": "_performer",
							"type": "address"
						}
					],
					"name": "requestDelivery",
					"outputs": [
						{
							"internalType": "bool",
							"name": "",
							"type": "bool"
						}
					],
					"stateMutability": "nonpayable",
					"type": "function"
				},
				{
					"inputs": [
						{
							"internalType": "uint32",
							"name": "_accessDateTime",
							"type": "uint32"
						},
						{
							"internalType": "string[]",
							"name": "_xPathContent",
							"type": "string[]"
						},
						{
							"internalType": "bool[]",
							"name": "_xPathResult",
							"type": "bool[]"
						},
						{
							"internalType": "address",
							"name": "_performer",
							"type": "address"
						}
					],
					"name": "responderOrder",
					"outputs": [
						{
							"internalType": "bool",
							"name": "",
							"type": "bool"
						}
					],
					"stateMutability": "nonpayable",
					"type": "function"
				},
				{
					"inputs": [],
					"name": "timeout",
					"outputs": [
						{
							"internalType": "uint32",
							"name": "increment",
							"type": "uint32"
						},
						{
							"internalType": "uint32",
							"name": "endTime",
							"type": "uint32"
						}
					],
					"stateMutability": "view",
					"type": "function"
				}
			],
			"devdoc": {
				"kind": "dev",
				"methods": {},
				"version": 1
			},
			"evm": {
				"assembly": "    /* \"DeliveryHiringRO.sol\":66:2635  contract DeliveryHiring is EAI_Domain{\r... */\n  mstore(0x40, 0x80)\n    /* \"DeliveryHiringRO.sol\":129:139  1641024000 */\n  0x61d00a00\n    /* \"DeliveryHiringRO.sol\":110:139  uint32 beginDate = 1641024000 */\n  0x00\n  dup1\n  0x0100\n  exp\n  dup2\n  sload\n  dup2\n  0xffffffff\n  mul\n  not\n  and\n  swap1\n  dup4\n  0xffffffff\n  and\n  mul\n  or\n  swap1\n  sstore\n  pop\n    /* \"DeliveryHiringRO.sol\":160:170  1672509600 */\n  0x63b078a0\n    /* \"DeliveryHiringRO.sol\":143:170  uint32 dueDate = 1672509600 */\n  0x00\n  exp(0x0100, 0x04)\n  dup2\n  sload\n  dup2\n  0xffffffff\n  mul\n  not\n  and\n  swap1\n  dup4\n  0xffffffff\n  and\n  mul\n  or\n  swap1\n  sstore\n  pop\n    /* \"DeliveryHiringRO.sol\":319:346  BusinessDay(MONDAY, FRIDAY) */\n  mload(0x40)\n  dup1\n  0x40\n  add\n  0x40\n  mstore\n  dup1\n    /* \"libs/EAI_Domain.sol\":423:424  1 */\n  0x01\n    /* \"DeliveryHiringRO.sol\":319:346  BusinessDay(MONDAY, FRIDAY) */\n  dup2\n  mstore\n  0x20\n  add\n    /* \"libs/EAI_Domain.sol\":529:530  5 */\n  0x05\n    /* \"DeliveryHiringRO.sol\":319:346  BusinessDay(MONDAY, FRIDAY) */\n  dup2\n  mstore\n  pop\n    /* \"DeliveryHiringRO.sol\":286:346  BusinessDay public businessDay = BusinessDay(MONDAY, FRIDAY) */\n  0x05\n  0x00\n  dup3\n  add\n  mload\n  dup2\n  0x00\n  add\n  sstore\n  0x20\n  dup3\n  add\n  mload\n  dup2\n  0x01\n  add\n  sstore\n  pop\n  pop\n    /* \"DeliveryHiringRO.sol\":385:410  TimeInterval(28800,64800) */\n  mload(0x40)\n  dup1\n  0x40\n  add\n  0x40\n  mstore\n  dup1\n    /* \"DeliveryHiringRO.sol\":398:403  28800 */\n  0x7080\n    /* \"DeliveryHiringRO.sol\":385:410  TimeInterval(28800,64800) */\n  0xffffffff\n  and\n  dup2\n  mstore\n  0x20\n  add\n    /* \"DeliveryHiringRO.sol\":404:409  64800 */\n  0xfd20\n    /* \"DeliveryHiringRO.sol\":385:410  TimeInterval(28800,64800) */\n  0xffffffff\n  and\n  dup2\n  mstore\n  pop\n    /* \"DeliveryHiringRO.sol\":350:410  TimeInterval public businessTime = TimeInterval(28800,64800) */\n  0x07\n  0x00\n  dup3\n  add\n  mload\n  dup2\n  0x00\n  add\n  exp(0x0100, 0x00)\n  dup2\n  sload\n  dup2\n  0xffffffff\n  mul\n  not\n  and\n  swap1\n  dup4\n  0xffffffff\n  and\n  mul\n  or\n  swap1\n  sstore\n  pop\n  0x20\n  dup3\n  add\n  mload\n  dup2\n  0x00\n  add\n  exp(0x0100, 0x04)\n  dup2\n  sload\n  dup2\n  0xffffffff\n  mul\n  not\n  and\n  swap1\n  dup4\n  0xffffffff\n  and\n  mul\n  or\n  swap1\n  sstore\n  pop\n  pop\n  pop\n    /* \"DeliveryHiringRO.sol\":453:482  OperationLimit(5, MINUTE,0,0) */\n  mload(0x40)\n  dup1\n  0x80\n  add\n  0x40\n  mstore\n  dup1\n    /* \"DeliveryHiringRO.sol\":468:469  5 */\n  0x05\n    /* \"DeliveryHiringRO.sol\":453:482  OperationLimit(5, MINUTE,0,0) */\n  dup2\n  mstore\n  0x20\n  add\n    /* \"libs/EAI_Domain.sol\":274:275  2 */\n  0x02\n    /* \"DeliveryHiringRO.sol\":453:482  OperationLimit(5, MINUTE,0,0) */\n  dup2\n  mstore\n  0x20\n  add\n    /* \"DeliveryHiringRO.sol\":478:479  0 */\n  0x00\n    /* \"DeliveryHiringRO.sol\":453:482  OperationLimit(5, MINUTE,0,0) */\n  dup2\n  mstore\n  0x20\n  add\n    /* \"DeliveryHiringRO.sol\":480:481  0 */\n  0x00\n    /* \"DeliveryHiringRO.sol\":453:482  OperationLimit(5, MINUTE,0,0) */\n  dup2\n  mstore\n  pop\n    /* \"DeliveryHiringRO.sol\":414:482  OperationLimit public operationLimit = OperationLimit(5, MINUTE,0,0) */\n  0x08\n  0x00\n  dup3\n  add\n  mload\n  dup2\n  0x00\n  add\n  sstore\n  0x20\n  dup3\n  add\n  mload\n  dup2\n  0x01\n  add\n  sstore\n  0x40\n  dup3\n  add\n  mload\n  dup2\n  0x02\n  add\n  sstore\n  0x60\n  dup3\n  add\n  mload\n  dup2\n  0x03\n  add\n  sstore\n  pop\n  pop\n    /* \"DeliveryHiringRO.sol\":619:632  Timeout(60,0) */\n  mload(0x40)\n  dup1\n  0x40\n  add\n  0x40\n  mstore\n  dup1\n    /* \"DeliveryHiringRO.sol\":627:629  60 */\n  0x3c\n    /* \"DeliveryHiringRO.sol\":619:632  Timeout(60,0) */\n  0xffffffff\n  and\n  dup2\n  mstore\n  0x20\n  add\n    /* \"DeliveryHiringRO.sol\":630:631  0 */\n  0x00\n    /* \"DeliveryHiringRO.sol\":619:632  Timeout(60,0) */\n  0xffffffff\n  and\n  dup2\n  mstore\n  pop\n    /* \"DeliveryHiringRO.sol\":593:632  Timeout public timeout  = Timeout(60,0) */\n  0x0d\n  0x00\n  dup3\n  add\n  mload\n  dup2\n  0x00\n  add\n  exp(0x0100, 0x00)\n  dup2\n  sload\n  dup2\n  0xffffffff\n  mul\n  not\n  and\n  swap1\n  dup4\n  0xffffffff\n  and\n  mul\n  or\n  swap1\n  sstore\n  pop\n  0x20\n  dup3\n  add\n  mload\n  dup2\n  0x00\n  add\n  exp(0x0100, 0x04)\n  dup2\n  sload\n  dup2\n  0xffffffff\n  mul\n  not\n  and\n  swap1\n  dup4\n  0xffffffff\n  and\n  mul\n  or\n  swap1\n  sstore\n  pop\n  pop\n  pop\n    /* \"DeliveryHiringRO.sol\":773:1078  constructor(address _applicationWallet, address _processWallet){\r... */\n  callvalue\n  dup1\n  iszero\n  tag_1\n  jumpi\n  0x00\n  dup1\n  revert\ntag_1:\n  pop\n  mload(0x40)\n  sub(codesize, bytecodeSize)\n  dup1\n  bytecodeSize\n  dup4\n  codecopy\n  dup2\n  dup2\n  add\n  0x40\n  mstore\n  dup2\n  add\n  swap1\n  tag_2\n  swap2\n  swap1\n  tag_3\n  jump\t// in\ntag_2:\n    /* \"DeliveryHiringRO.sol\":861:905  Party(\"Delivery system\", _applicationWallet) */\n  mload(0x40)\n  dup1\n  0x40\n  add\n  0x40\n  mstore\n  dup1\n  mload(0x40)\n  dup1\n  0x40\n  add\n  0x40\n  mstore\n  dup1\n  0x0f\n  dup2\n  mstore\n  0x20\n  add\n  0x44656c69766572792073797374656d0000000000000000000000000000000000\n  dup2\n  mstore\n  pop\n  dup2\n  mstore\n  0x20\n  add\n    /* \"DeliveryHiringRO.sol\":886:904  _applicationWallet */\n  dup4\n    /* \"DeliveryHiringRO.sol\":861:905  Party(\"Delivery system\", _applicationWallet) */\n  0xffffffffffffffffffffffffffffffffffffffff\n  and\n  dup2\n  mstore\n  pop\n    /* \"DeliveryHiringRO.sol\":844:858  deliverySystem */\n  0x01\n    /* \"DeliveryHiringRO.sol\":844:905  deliverySystem = Party(\"Delivery system\", _applicationWallet) */\n  0x00\n  dup3\n  add\n  mload\n  dup2\n  0x00\n  add\n  swap1\n  dup1\n  mload\n  swap1\n  0x20\n  add\n  swap1\n  tag_6\n  swap3\n  swap2\n  swap1\n  tag_7\n  jump\t// in\ntag_6:\n  pop\n  0x20\n  dup3\n  add\n  mload\n  dup2\n  0x01\n  add\n  exp(0x0100, 0x00)\n  dup2\n  sload\n  dup2\n  0xffffffffffffffffffffffffffffffffffffffff\n  mul\n  not\n  and\n  swap1\n  dup4\n  0xffffffffffffffffffffffffffffffffffffffff\n  and\n  mul\n  or\n  swap1\n  sstore\n  pop\n  swap1\n  pop\n  pop\n    /* \"DeliveryHiringRO.sol\":934:978  Party(\"Integration process\", _processWallet) */\n  mload(0x40)\n  dup1\n  0x40\n  add\n  0x40\n  mstore\n  dup1\n  mload(0x40)\n  dup1\n  0x40\n  add\n  0x40\n  mstore\n  dup1\n  0x13\n  dup2\n  mstore\n  0x20\n  add\n  0x496e746567726174696f6e2070726f6365737300000000000000000000000000\n  dup2\n  mstore\n  pop\n  dup2\n  mstore\n  0x20\n  add\n    /* \"DeliveryHiringRO.sol\":963:977  _processWallet */\n  dup3\n    /* \"DeliveryHiringRO.sol\":934:978  Party(\"Integration process\", _processWallet) */\n  0xffffffffffffffffffffffffffffffffffffffff\n  and\n  dup2\n  mstore\n  pop\n    /* \"DeliveryHiringRO.sol\":913:931  integrationProcess */\n  0x03\n    /* \"DeliveryHiringRO.sol\":913:978  integrationProcess = Party(\"Integration process\", _processWallet) */\n  0x00\n  dup3\n  add\n  mload\n  dup2\n  0x00\n  add\n  swap1\n  dup1\n  mload\n  swap1\n  0x20\n  add\n  swap1\n  tag_8\n  swap3\n  swap2\n  swap1\n  tag_7\n  jump\t// in\ntag_8:\n  pop\n  0x20\n  dup3\n  add\n  mload\n  dup2\n  0x01\n  add\n  exp(0x0100, 0x00)\n  dup2\n  sload\n  dup2\n  0xffffffffffffffffffffffffffffffffffffffff\n  mul\n  not\n  and\n  swap1\n  dup4\n  0xffffffffffffffffffffffffffffffffffffffff\n  and\n  mul\n  or\n  swap1\n  sstore\n  pop\n  swap1\n  pop\n  pop\n    /* \"DeliveryHiringRO.sol\":990:1012  messageContent_request */\n  0x0c\n    /* \"DeliveryHiringRO.sol\":1018:1068  MessageContent({xPathQuery: \"count(//address)=1\"}) */\n  mload(0x40)\n  dup1\n  0x20\n  add\n  0x40\n  mstore\n  dup1\n  mload(0x40)\n  dup1\n  0x40\n  add\n  0x40\n  mstore\n  dup1\n  0x12\n  dup2\n  mstore\n  0x20\n  add\n  0x636f756e74282f2f61646472657373293d310000000000000000000000000000\n  dup2\n  mstore\n  pop\n  dup2\n  mstore\n  pop\n    /* \"DeliveryHiringRO.sol\":990:1069  messageContent_request.push(MessageContent({xPathQuery: \"count(//address)=1\"})) */\n  swap1\n  dup1\n  0x01\n  dup2\n  sload\n  add\n  dup1\n  dup3\n  sstore\n  dup1\n  swap2\n  pop\n  pop\n  0x01\n  swap1\n  sub\n  swap1\n  0x00\n  mstore\n  keccak256(0x00, 0x20)\n  add\n  0x00\n  swap1\n  swap2\n  swap1\n  swap2\n  swap1\n  swap2\n  pop\n  0x00\n  dup3\n  add\n  mload\n  dup2\n  0x00\n  add\n  swap1\n  dup1\n  mload\n  swap1\n  0x20\n  add\n  swap1\n  tag_10\n  swap3\n  swap2\n  swap1\n  tag_7\n  jump\t// in\ntag_10:\n  pop\n  pop\n  pop\n    /* \"DeliveryHiringRO.sol\":773:1078  constructor(address _applicationWallet, address _processWallet){\r... */\n  pop\n  pop\n    /* \"DeliveryHiringRO.sol\":66:2635  contract DeliveryHiring is EAI_Domain{\r... */\n  jump(tag_11)\ntag_7:\n  dup3\n  dup1\n  sload\n  tag_12\n  swap1\n  tag_13\n  jump\t// in\ntag_12:\n  swap1\n  0x00\n  mstore\n  keccak256(0x00, 0x20)\n  swap1\n  0x1f\n  add\n  0x20\n  swap1\n  div\n  dup2\n  add\n  swap3\n  dup3\n  tag_15\n  jumpi\n  0x00\n  dup6\n  sstore\n  jump(tag_14)\ntag_15:\n  dup3\n  0x1f\n  lt\n  tag_16\n  jumpi\n  dup1\n  mload\n  not(0xff)\n  and\n  dup4\n  dup1\n  add\n  or\n  dup6\n  sstore\n  jump(tag_14)\ntag_16:\n  dup3\n  dup1\n  add\n  0x01\n  add\n  dup6\n  sstore\n  dup3\n  iszero\n  tag_14\n  jumpi\n  swap2\n  dup3\n  add\ntag_17:\n  dup3\n  dup2\n  gt\n  iszero\n  tag_18\n  jumpi\n  dup3\n  mload\n  dup3\n  sstore\n  swap2\n  0x20\n  add\n  swap2\n  swap1\n  0x01\n  add\n  swap1\n  jump(tag_17)\ntag_18:\ntag_14:\n  pop\n  swap1\n  pop\n  tag_19\n  swap2\n  swap1\n  tag_20\n  jump\t// in\ntag_19:\n  pop\n  swap1\n  jump\t// out\ntag_20:\ntag_21:\n  dup1\n  dup3\n  gt\n  iszero\n  tag_22\n  jumpi\n  0x00\n  dup2\n  0x00\n  swap1\n  sstore\n  pop\n  0x01\n  add\n  jump(tag_21)\ntag_22:\n  pop\n  swap1\n  jump\t// out\n    /* \"#utility.yul\":7:150   */\ntag_24:\n    /* \"#utility.yul\":64:69   */\n  0x00\n    /* \"#utility.yul\":95:101   */\n  dup2\n    /* \"#utility.yul\":89:102   */\n  mload\n    /* \"#utility.yul\":80:102   */\n  swap1\n  pop\n    /* \"#utility.yul\":111:144   */\n  tag_26\n    /* \"#utility.yul\":138:143   */\n  dup2\n    /* \"#utility.yul\":111:144   */\n  tag_27\n  jump\t// in\ntag_26:\n    /* \"#utility.yul\":7:150   */\n  swap3\n  swap2\n  pop\n  pop\n  jump\t// out\n    /* \"#utility.yul\":156:663   */\ntag_3:\n    /* \"#utility.yul\":235:241   */\n  0x00\n    /* \"#utility.yul\":243:249   */\n  dup1\n    /* \"#utility.yul\":292:294   */\n  0x40\n    /* \"#utility.yul\":280:289   */\n  dup4\n    /* \"#utility.yul\":271:278   */\n  dup6\n    /* \"#utility.yul\":267:290   */\n  sub\n    /* \"#utility.yul\":263:295   */\n  slt\n    /* \"#utility.yul\":260:379   */\n  iszero\n  tag_29\n  jumpi\n    /* \"#utility.yul\":298:377   */\n  tag_30\n  tag_31\n  jump\t// in\ntag_30:\n    /* \"#utility.yul\":260:379   */\ntag_29:\n    /* \"#utility.yul\":418:419   */\n  0x00\n    /* \"#utility.yul\":443:507   */\n  tag_32\n    /* \"#utility.yul\":499:506   */\n  dup6\n    /* \"#utility.yul\":490:496   */\n  dup3\n    /* \"#utility.yul\":479:488   */\n  dup7\n    /* \"#utility.yul\":475:497   */\n  add\n    /* \"#utility.yul\":443:507   */\n  tag_24\n  jump\t// in\ntag_32:\n    /* \"#utility.yul\":433:507   */\n  swap3\n  pop\n    /* \"#utility.yul\":389:517   */\n  pop\n    /* \"#utility.yul\":556:558   */\n  0x20\n    /* \"#utility.yul\":582:646   */\n  tag_33\n    /* \"#utility.yul\":638:645   */\n  dup6\n    /* \"#utility.yul\":629:635   */\n  dup3\n    /* \"#utility.yul\":618:627   */\n  dup7\n    /* \"#utility.yul\":614:636   */\n  add\n    /* \"#utility.yul\":582:646   */\n  tag_24\n  jump\t// in\ntag_33:\n    /* \"#utility.yul\":572:646   */\n  swap2\n  pop\n    /* \"#utility.yul\":527:656   */\n  pop\n    /* \"#utility.yul\":156:663   */\n  swap3\n  pop\n  swap3\n  swap1\n  pop\n  jump\t// out\n    /* \"#utility.yul\":750:846   */\ntag_36:\n    /* \"#utility.yul\":787:794   */\n  0x00\n    /* \"#utility.yul\":816:840   */\n  tag_38\n    /* \"#utility.yul\":834:839   */\n  dup3\n    /* \"#utility.yul\":816:840   */\n  tag_39\n  jump\t// in\ntag_38:\n    /* \"#utility.yul\":805:840   */\n  swap1\n  pop\n    /* \"#utility.yul\":750:846   */\n  swap2\n  swap1\n  pop\n  jump\t// out\n    /* \"#utility.yul\":852:978   */\ntag_39:\n    /* \"#utility.yul\":889:896   */\n  0x00\n    /* \"#utility.yul\":929:971   */\n  0xffffffffffffffffffffffffffffffffffffffff\n    /* \"#utility.yul\":922:927   */\n  dup3\n    /* \"#utility.yul\":918:972   */\n  and\n    /* \"#utility.yul\":907:972   */\n  swap1\n  pop\n    /* \"#utility.yul\":852:978   */\n  swap2\n  swap1\n  pop\n  jump\t// out\n    /* \"#utility.yul\":984:1304   */\ntag_13:\n    /* \"#utility.yul\":1028:1034   */\n  0x00\n    /* \"#utility.yul\":1065:1066   */\n  0x02\n    /* \"#utility.yul\":1059:1063   */\n  dup3\n    /* \"#utility.yul\":1055:1067   */\n  div\n    /* \"#utility.yul\":1045:1067   */\n  swap1\n  pop\n    /* \"#utility.yul\":1112:1113   */\n  0x01\n    /* \"#utility.yul\":1106:1110   */\n  dup3\n    /* \"#utility.yul\":1102:1114   */\n  and\n    /* \"#utility.yul\":1133:1151   */\n  dup1\n    /* \"#utility.yul\":1123:1204   */\n  tag_42\n  jumpi\n    /* \"#utility.yul\":1189:1193   */\n  0x7f\n    /* \"#utility.yul\":1181:1187   */\n  dup3\n    /* \"#utility.yul\":1177:1194   */\n  and\n    /* \"#utility.yul\":1167:1194   */\n  swap2\n  pop\n    /* \"#utility.yul\":1123:1204   */\ntag_42:\n    /* \"#utility.yul\":1251:1253   */\n  0x20\n    /* \"#utility.yul\":1243:1249   */\n  dup3\n    /* \"#utility.yul\":1240:1254   */\n  lt\n    /* \"#utility.yul\":1220:1238   */\n  dup2\n    /* \"#utility.yul\":1217:1255   */\n  eq\n    /* \"#utility.yul\":1214:1298   */\n  iszero\n  tag_43\n  jumpi\n    /* \"#utility.yul\":1270:1288   */\n  tag_44\n  tag_45\n  jump\t// in\ntag_44:\n    /* \"#utility.yul\":1214:1298   */\ntag_43:\n    /* \"#utility.yul\":1035:1304   */\n  pop\n    /* \"#utility.yul\":984:1304   */\n  swap2\n  swap1\n  pop\n  jump\t// out\n    /* \"#utility.yul\":1310:1490   */\ntag_45:\n    /* \"#utility.yul\":1358:1435   */\n  0x4e487b7100000000000000000000000000000000000000000000000000000000\n    /* \"#utility.yul\":1355:1356   */\n  0x00\n    /* \"#utility.yul\":1348:1436   */\n  mstore\n    /* \"#utility.yul\":1455:1459   */\n  0x22\n    /* \"#utility.yul\":1452:1453   */\n  0x04\n    /* \"#utility.yul\":1445:1460   */\n  mstore\n    /* \"#utility.yul\":1479:1483   */\n  0x24\n    /* \"#utility.yul\":1476:1477   */\n  0x00\n    /* \"#utility.yul\":1469:1484   */\n  revert\n    /* \"#utility.yul\":1619:1736   */\ntag_31:\n    /* \"#utility.yul\":1728:1729   */\n  0x00\n    /* \"#utility.yul\":1725:1726   */\n  dup1\n    /* \"#utility.yul\":1718:1730   */\n  revert\n    /* \"#utility.yul\":1742:1864   */\ntag_27:\n    /* \"#utility.yul\":1815:1839   */\n  tag_51\n    /* \"#utility.yul\":1833:1838   */\n  dup2\n    /* \"#utility.yul\":1815:1839   */\n  tag_36\n  jump\t// in\ntag_51:\n    /* \"#utility.yul\":1808:1813   */\n  dup2\n    /* \"#utility.yul\":1805:1840   */\n  eq\n    /* \"#utility.yul\":1795:1858   */\n  tag_52\n  jumpi\n    /* \"#utility.yul\":1854:1855   */\n  0x00\n    /* \"#utility.yul\":1851:1852   */\n  dup1\n    /* \"#utility.yul\":1844:1856   */\n  revert\n    /* \"#utility.yul\":1795:1858   */\ntag_52:\n    /* \"#utility.yul\":1742:1864   */\n  pop\n  jump\t// out\n    /* \"DeliveryHiringRO.sol\":66:2635  contract DeliveryHiring is EAI_Domain{\r... */\ntag_11:\n  dataSize(sub_0)\n  dup1\n  dataOffset(sub_0)\n  0x00\n  codecopy\n  0x00\n  return\nstop\n\nsub_0: assembly {\n        /* \"DeliveryHiringRO.sol\":66:2635  contract DeliveryHiring is EAI_Domain{\r... */\n      mstore(0x40, 0x80)\n      callvalue\n      dup1\n      iszero\n      tag_1\n      jumpi\n      0x00\n      dup1\n      revert\n    tag_1:\n      pop\n      jumpi(tag_2, lt(calldatasize, 0x04))\n      shr(0xe0, calldataload(0x00))\n      dup1\n      0x7c6c247f\n      gt\n      tag_11\n      jumpi\n      dup1\n      0x7c6c247f\n      eq\n      tag_7\n      jumpi\n      dup1\n      0x88549585\n      eq\n      tag_8\n      jumpi\n      dup1\n      0xa7339ed2\n      eq\n      tag_9\n      jumpi\n      dup1\n      0xf73f91bf\n      eq\n      tag_10\n      jumpi\n      jump(tag_2)\n    tag_11:\n      dup1\n      0x20ac908b\n      eq\n      tag_3\n      jumpi\n      dup1\n      0x31cc883c\n      eq\n      tag_4\n      jumpi\n      dup1\n      0x70dea79a\n      eq\n      tag_5\n      jumpi\n      dup1\n      0x79bc473b\n      eq\n      tag_6\n      jumpi\n    tag_2:\n      0x00\n      dup1\n      revert\n        /* \"DeliveryHiringRO.sol\":486:532  MessageContent[] public messageContent_request */\n    tag_3:\n      tag_12\n      0x04\n      dup1\n      calldatasize\n      sub\n      dup2\n      add\n      swap1\n      tag_13\n      swap2\n      swap1\n      tag_14\n      jump\t// in\n    tag_13:\n      tag_15\n      jump\t// in\n    tag_12:\n      mload(0x40)\n      tag_16\n      swap2\n      swap1\n      tag_17\n      jump\t// in\n    tag_16:\n      mload(0x40)\n      dup1\n      swap2\n      sub\n      swap1\n      return\n        /* \"DeliveryHiringRO.sol\":350:410  TimeInterval public businessTime = TimeInterval(28800,64800) */\n    tag_4:\n      tag_18\n      tag_19\n      jump\t// in\n    tag_18:\n      mload(0x40)\n      tag_20\n      swap3\n      swap2\n      swap1\n      tag_21\n      jump\t// in\n    tag_20:\n      mload(0x40)\n      dup1\n      swap2\n      sub\n      swap1\n      return\n        /* \"DeliveryHiringRO.sol\":593:632  Timeout public timeout  = Timeout(60,0) */\n    tag_5:\n      tag_22\n      tag_23\n      jump\t// in\n    tag_22:\n      mload(0x40)\n      tag_24\n      swap3\n      swap2\n      swap1\n      tag_21\n      jump\t// in\n    tag_24:\n      mload(0x40)\n      dup1\n      swap2\n      sub\n      swap1\n      return\n        /* \"DeliveryHiringRO.sol\":2018:2632  function responderOrder(uint32 _accessDateTime, string[] memory _xPathContent, bool[] memory _xPathResult, address _performer) public returns(bool){\r... */\n    tag_6:\n      tag_25\n      0x04\n      dup1\n      calldatasize\n      sub\n      dup2\n      add\n      swap1\n      tag_26\n      swap2\n      swap1\n      tag_27\n      jump\t// in\n    tag_26:\n      tag_28\n      jump\t// in\n    tag_25:\n      mload(0x40)\n      tag_29\n      swap2\n      swap1\n      tag_30\n      jump\t// in\n    tag_29:\n      mload(0x40)\n      dup1\n      swap2\n      sub\n      swap1\n      return\n        /* \"DeliveryHiringRO.sol\":1083:2013  function requestDelivery(uint32 _accessDateTime, string[] memory _xPathContent, bool[] memory _xPathResult, address _performer) public returns(bool){\r... */\n    tag_7:\n      tag_31\n      0x04\n      dup1\n      calldatasize\n      sub\n      dup2\n      add\n      swap1\n      tag_32\n      swap2\n      swap1\n      tag_27\n      jump\t// in\n    tag_32:\n      tag_33\n      jump\t// in\n    tag_31:\n      mload(0x40)\n      tag_34\n      swap2\n      swap1\n      tag_30\n      jump\t// in\n    tag_34:\n      mload(0x40)\n      dup1\n      swap2\n      sub\n      swap1\n      return\n        /* \"DeliveryHiringRO.sol\":286:346  BusinessDay public businessDay = BusinessDay(MONDAY, FRIDAY) */\n    tag_8:\n      tag_35\n      tag_36\n      jump\t// in\n    tag_35:\n      mload(0x40)\n      tag_37\n      swap3\n      swap2\n      swap1\n      tag_38\n      jump\t// in\n    tag_37:\n      mload(0x40)\n      dup1\n      swap2\n      sub\n      swap1\n      return\n        /* \"DeliveryHiringRO.sol\":414:482  OperationLimit public operationLimit = OperationLimit(5, MINUTE,0,0) */\n    tag_9:\n      tag_39\n      tag_40\n      jump\t// in\n    tag_39:\n      mload(0x40)\n      tag_41\n      swap5\n      swap4\n      swap3\n      swap2\n      swap1\n      tag_42\n      jump\t// in\n    tag_41:\n      mload(0x40)\n      dup1\n      swap2\n      sub\n      swap1\n      return\n        /* \"DeliveryHiringRO.sol\":637:684  MessageContent[] public messageContent_response */\n    tag_10:\n      tag_43\n      0x04\n      dup1\n      calldatasize\n      sub\n      dup2\n      add\n      swap1\n      tag_44\n      swap2\n      swap1\n      tag_14\n      jump\t// in\n    tag_44:\n      tag_45\n      jump\t// in\n    tag_43:\n      mload(0x40)\n      tag_46\n      swap2\n      swap1\n      tag_17\n      jump\t// in\n    tag_46:\n      mload(0x40)\n      dup1\n      swap2\n      sub\n      swap1\n      return\n        /* \"DeliveryHiringRO.sol\":486:532  MessageContent[] public messageContent_request */\n    tag_15:\n      0x0c\n      dup2\n      dup2\n      sload\n      dup2\n      lt\n      tag_47\n      jumpi\n      0x00\n      dup1\n      revert\n    tag_47:\n      swap1\n      0x00\n      mstore\n      keccak256(0x00, 0x20)\n      add\n      0x00\n      swap2\n      pop\n      swap1\n      pop\n      dup1\n      0x00\n      add\n      dup1\n      sload\n      tag_49\n      swap1\n      tag_50\n      jump\t// in\n    tag_49:\n      dup1\n      0x1f\n      add\n      0x20\n      dup1\n      swap2\n      div\n      mul\n      0x20\n      add\n      mload(0x40)\n      swap1\n      dup2\n      add\n      0x40\n      mstore\n      dup1\n      swap3\n      swap2\n      swap1\n      dup2\n      dup2\n      mstore\n      0x20\n      add\n      dup3\n      dup1\n      sload\n      tag_51\n      swap1\n      tag_50\n      jump\t// in\n    tag_51:\n      dup1\n      iszero\n      tag_52\n      jumpi\n      dup1\n      0x1f\n      lt\n      tag_53\n      jumpi\n      0x0100\n      dup1\n      dup4\n      sload\n      div\n      mul\n      dup4\n      mstore\n      swap2\n      0x20\n      add\n      swap2\n      jump(tag_52)\n    tag_53:\n      dup3\n      add\n      swap2\n      swap1\n      0x00\n      mstore\n      keccak256(0x00, 0x20)\n      swap1\n    tag_54:\n      dup2\n      sload\n      dup2\n      mstore\n      swap1\n      0x01\n      add\n      swap1\n      0x20\n      add\n      dup1\n      dup4\n      gt\n      tag_54\n      jumpi\n      dup3\n      swap1\n      sub\n      0x1f\n      and\n      dup3\n      add\n      swap2\n    tag_52:\n      pop\n      pop\n      pop\n      pop\n      pop\n      swap1\n      pop\n      dup2\n      jump\t// out\n        /* \"DeliveryHiringRO.sol\":350:410  TimeInterval public businessTime = TimeInterval(28800,64800) */\n    tag_19:\n      0x07\n      dup1\n      0x00\n      add\n      0x00\n      swap1\n      sload\n      swap1\n      0x0100\n      exp\n      swap1\n      div\n      0xffffffff\n      and\n      swap1\n      dup1\n      0x00\n      add\n      0x04\n      swap1\n      sload\n      swap1\n      0x0100\n      exp\n      swap1\n      div\n      0xffffffff\n      and\n      swap1\n      pop\n      dup3\n      jump\t// out\n        /* \"DeliveryHiringRO.sol\":593:632  Timeout public timeout  = Timeout(60,0) */\n    tag_23:\n      0x0d\n      dup1\n      0x00\n      add\n      0x00\n      swap1\n      sload\n      swap1\n      0x0100\n      exp\n      swap1\n      div\n      0xffffffff\n      and\n      swap1\n      dup1\n      0x00\n      add\n      0x04\n      swap1\n      sload\n      swap1\n      0x0100\n      exp\n      swap1\n      div\n      0xffffffff\n      and\n      swap1\n      pop\n      dup3\n      jump\t// out\n        /* \"DeliveryHiringRO.sol\":2018:2632  function responderOrder(uint32 _accessDateTime, string[] memory _xPathContent, bool[] memory _xPathResult, address _performer) public returns(bool){\r... */\n    tag_28:\n        /* \"DeliveryHiringRO.sol\":2160:2164  bool */\n      0x00\n        /* \"DeliveryHiringRO.sol\":2255:2269  deliverySystem */\n      0x01\n        /* \"DeliveryHiringRO.sol\":2255:2283  deliverySystem.walletAddress */\n      dup1\n      add\n      0x00\n      swap1\n      sload\n      swap1\n      0x0100\n      exp\n      swap1\n      div\n      0xffffffffffffffffffffffffffffffffffffffff\n      and\n        /* \"DeliveryHiringRO.sol\":2241:2283  _performer == deliverySystem.walletAddress */\n      0xffffffffffffffffffffffffffffffffffffffff\n      and\n        /* \"DeliveryHiringRO.sol\":2241:2251  _performer */\n      dup3\n        /* \"DeliveryHiringRO.sol\":2241:2283  _performer == deliverySystem.walletAddress */\n      0xffffffffffffffffffffffffffffffffffffffff\n      and\n      eq\n        /* \"DeliveryHiringRO.sol\":2233:2337  require(_performer == deliverySystem.walletAddress, \"You have no permission to perform this operation.\") */\n      tag_56\n      jumpi\n      mload(0x40)\n      0x08c379a000000000000000000000000000000000000000000000000000000000\n      dup2\n      mstore\n      0x04\n      add\n      tag_57\n      swap1\n      tag_58\n      jump\t// in\n    tag_57:\n      mload(0x40)\n      dup1\n      swap2\n      sub\n      swap1\n      revert\n    tag_56:\n        /* \"DeliveryHiringRO.sol\":2346:2389  isTimeout(_accessDateTime, timeout.endTime) */\n      tag_59\n        /* \"DeliveryHiringRO.sol\":2356:2371  _accessDateTime */\n      dup6\n        /* \"DeliveryHiringRO.sol\":2373:2380  timeout */\n      0x0d\n        /* \"DeliveryHiringRO.sol\":2373:2388  timeout.endTime */\n      0x00\n      add\n      0x04\n      swap1\n      sload\n      swap1\n      0x0100\n      exp\n      swap1\n      div\n      0xffffffff\n      and\n        /* \"DeliveryHiringRO.sol\":2346:2355  isTimeout */\n      tag_60\n        /* \"DeliveryHiringRO.sol\":2346:2389  isTimeout(_accessDateTime, timeout.endTime) */\n      jump\t// in\n    tag_59:\n        /* \"DeliveryHiringRO.sol\":2342:2535  if(!isTimeout(_accessDateTime, timeout.endTime)){\r... */\n      tag_61\n      jumpi\n        /* \"DeliveryHiringRO.sol\":2430:2431  1 */\n      0x01\n        /* \"DeliveryHiringRO.sol\":2396:2410  operationLimit */\n      0x08\n        /* \"DeliveryHiringRO.sol\":2396:2428  operationLimit.requestsPerformed */\n      0x02\n      add\n      0x00\n        /* \"DeliveryHiringRO.sol\":2396:2431  operationLimit.requestsPerformed+=1 */\n      dup3\n      dup3\n      sload\n      tag_62\n      swap2\n      swap1\n      tag_63\n      jump\t// in\n    tag_62:\n      swap3\n      pop\n      pop\n      dup2\n      swap1\n      sstore\n      pop\n        /* \"DeliveryHiringRO.sol\":2522:2526  true */\n      0x01\n        /* \"DeliveryHiringRO.sol\":2515:2526  return true */\n      swap1\n      pop\n      jump(tag_55)\n        /* \"DeliveryHiringRO.sol\":2342:2535  if(!isTimeout(_accessDateTime, timeout.endTime)){\r... */\n    tag_61:\n        /* \"DeliveryHiringRO.sol\":2547:2610  failEvent(\"Exceeded response time or message content mismatch\") */\n      0x66091b7dc2b097c8f60d5cd6aa99633b097f08d2eb1056f3e15361b22e0ea2ba\n      mload(0x40)\n      tag_64\n      swap1\n      tag_65\n      jump\t// in\n    tag_64:\n      mload(0x40)\n      dup1\n      swap2\n      sub\n      swap1\n      log1\n        /* \"DeliveryHiringRO.sol\":2622:2627  false */\n      0x00\n        /* \"DeliveryHiringRO.sol\":2615:2627  return false */\n      swap1\n      pop\n        /* \"DeliveryHiringRO.sol\":2018:2632  function responderOrder(uint32 _accessDateTime, string[] memory _xPathContent, bool[] memory _xPathResult, address _performer) public returns(bool){\r... */\n    tag_55:\n      swap5\n      swap4\n      pop\n      pop\n      pop\n      pop\n      jump\t// out\n        /* \"DeliveryHiringRO.sol\":1083:2013  function requestDelivery(uint32 _accessDateTime, string[] memory _xPathContent, bool[] memory _xPathResult, address _performer) public returns(bool){\r... */\n    tag_33:\n        /* \"DeliveryHiringRO.sol\":1226:1230  bool */\n      0x00\n        /* \"DeliveryHiringRO.sol\":1353:1371  integrationProcess */\n      0x03\n        /* \"DeliveryHiringRO.sol\":1353:1385  integrationProcess.walletAddress */\n      0x01\n      add\n      0x00\n      swap1\n      sload\n      swap1\n      0x0100\n      exp\n      swap1\n      div\n      0xffffffffffffffffffffffffffffffffffffffff\n      and\n        /* \"DeliveryHiringRO.sol\":1339:1385  _performer == integrationProcess.walletAddress */\n      0xffffffffffffffffffffffffffffffffffffffff\n      and\n        /* \"DeliveryHiringRO.sol\":1339:1349  _performer */\n      dup3\n        /* \"DeliveryHiringRO.sol\":1339:1385  _performer == integrationProcess.walletAddress */\n      0xffffffffffffffffffffffffffffffffffffffff\n      and\n      eq\n        /* \"DeliveryHiringRO.sol\":1331:1439  require(_performer == integrationProcess.walletAddress, \"You have no permission to perform this operation.\") */\n      tag_67\n      jumpi\n      mload(0x40)\n      0x08c379a000000000000000000000000000000000000000000000000000000000\n      dup2\n      mstore\n      0x04\n      add\n      tag_68\n      swap1\n      tag_58\n      jump\t// in\n    tag_68:\n      mload(0x40)\n      dup1\n      swap2\n      sub\n      swap1\n      revert\n    tag_67:\n        /* \"DeliveryHiringRO.sol\":1447:1490  isBusinessDay(_accessDateTime, businessDay) */\n      tag_69\n        /* \"DeliveryHiringRO.sol\":1461:1476  _accessDateTime */\n      dup6\n        /* \"DeliveryHiringRO.sol\":1478:1489  businessDay */\n      0x05\n        /* \"DeliveryHiringRO.sol\":1447:1460  isBusinessDay */\n      tag_70\n        /* \"DeliveryHiringRO.sol\":1447:1490  isBusinessDay(_accessDateTime, businessDay) */\n      jump\t// in\n    tag_69:\n        /* \"DeliveryHiringRO.sol\":1447:1547  isBusinessDay(_accessDateTime, businessDay) && \r... */\n      dup1\n      iszero\n      tag_71\n      jumpi\n      pop\n        /* \"DeliveryHiringRO.sol\":1498:1547  isIntoTimeInterval(_accessDateTime, businessTime) */\n      tag_72\n        /* \"DeliveryHiringRO.sol\":1517:1532  _accessDateTime */\n      dup6\n        /* \"DeliveryHiringRO.sol\":1498:1547  isIntoTimeInterval(_accessDateTime, businessTime) */\n      0xffffffff\n      and\n        /* \"DeliveryHiringRO.sol\":1534:1546  businessTime */\n      0x07\n        /* \"DeliveryHiringRO.sol\":1498:1547  isIntoTimeInterval(_accessDateTime, businessTime) */\n      mload(0x40)\n      dup1\n      0x40\n      add\n      0x40\n      mstore\n      swap1\n      dup2\n      0x00\n      dup3\n      add\n      0x00\n      swap1\n      sload\n      swap1\n      0x0100\n      exp\n      swap1\n      div\n      0xffffffff\n      and\n      0xffffffff\n      and\n      0xffffffff\n      and\n      dup2\n      mstore\n      0x20\n      add\n      0x00\n      dup3\n      add\n      0x04\n      swap1\n      sload\n      swap1\n      0x0100\n      exp\n      swap1\n      div\n      0xffffffff\n      and\n      0xffffffff\n      and\n      0xffffffff\n      and\n      dup2\n      mstore\n      pop\n      pop\n        /* \"DeliveryHiringRO.sol\":1498:1516  isIntoTimeInterval */\n      tag_73\n        /* \"DeliveryHiringRO.sol\":1498:1547  isIntoTimeInterval(_accessDateTime, businessTime) */\n      jump\t// in\n    tag_72:\n        /* \"DeliveryHiringRO.sol\":1447:1547  isBusinessDay(_accessDateTime, businessDay) && \r... */\n    tag_71:\n        /* \"DeliveryHiringRO.sol\":1447:1610  isBusinessDay(_accessDateTime, businessDay) && \r... */\n      dup1\n      iszero\n      tag_74\n      jumpi\n      pop\n        /* \"DeliveryHiringRO.sol\":1554:1610  isOperationLimitReached(_accessDateTime, operationLimit) */\n      tag_75\n        /* \"DeliveryHiringRO.sol\":1578:1593  _accessDateTime */\n      dup6\n        /* \"DeliveryHiringRO.sol\":1595:1609  operationLimit */\n      0x08\n        /* \"DeliveryHiringRO.sol\":1554:1610  isOperationLimitReached(_accessDateTime, operationLimit) */\n      mload(0x40)\n      dup1\n      0x80\n      add\n      0x40\n      mstore\n      swap1\n      dup2\n      0x00\n      dup3\n      add\n      sload\n      dup2\n      mstore\n      0x20\n      add\n      0x01\n      dup3\n      add\n      sload\n      dup2\n      mstore\n      0x20\n      add\n      0x02\n      dup3\n      add\n      sload\n      dup2\n      mstore\n      0x20\n      add\n      0x03\n      dup3\n      add\n      sload\n      dup2\n      mstore\n      pop\n      pop\n        /* \"DeliveryHiringRO.sol\":1554:1577  isOperationLimitReached */\n      tag_76\n        /* \"DeliveryHiringRO.sol\":1554:1610  isOperationLimitReached(_accessDateTime, operationLimit) */\n      jump\t// in\n    tag_75:\n        /* \"DeliveryHiringRO.sol\":1553:1610  !isOperationLimitReached(_accessDateTime, operationLimit) */\n      iszero\n        /* \"DeliveryHiringRO.sol\":1447:1610  isBusinessDay(_accessDateTime, businessDay) && \r... */\n    tag_74:\n        /* \"DeliveryHiringRO.sol\":1447:1665  isBusinessDay(_accessDateTime, businessDay) && \r... */\n      dup1\n      iszero\n      tag_77\n      jumpi\n      pop\n        /* \"DeliveryHiringRO.sol\":1616:1665  msgContentEvaluation(_xPathContent, _xPathResult) */\n      tag_78\n        /* \"DeliveryHiringRO.sol\":1637:1650  _xPathContent */\n      dup5\n        /* \"DeliveryHiringRO.sol\":1652:1664  _xPathResult */\n      dup5\n        /* \"DeliveryHiringRO.sol\":1616:1636  msgContentEvaluation */\n      tag_79\n        /* \"DeliveryHiringRO.sol\":1616:1665  msgContentEvaluation(_xPathContent, _xPathResult) */\n      jump\t// in\n    tag_78:\n        /* \"DeliveryHiringRO.sol\":1447:1665  isBusinessDay(_accessDateTime, businessDay) && \r... */\n    tag_77:\n        /* \"DeliveryHiringRO.sol\":1444:1842  if(isBusinessDay(_accessDateTime, businessDay) && \r... */\n      iszero\n      tag_80\n      jumpi\n        /* \"DeliveryHiringRO.sol\":1678:1737  successEvent(\"Success execution in requestDelivery clause\") */\n      0x95a1f3a1dafdd4c1af344e3d7c69a72cbce8a3f15fe1cf95a7f5bd23df2e71a1\n      mload(0x40)\n      tag_81\n      swap1\n      tag_82\n      jump\t// in\n    tag_81:\n      mload(0x40)\n      dup1\n      swap2\n      sub\n      swap1\n      log1\n        /* \"DeliveryHiringRO.sol\":1761:1816  setEndTimeInTimeOut(_accessDateTime, timeout.increment) */\n      tag_83\n        /* \"DeliveryHiringRO.sol\":1781:1796  _accessDateTime */\n      dup6\n        /* \"DeliveryHiringRO.sol\":1798:1805  timeout */\n      0x0d\n        /* \"DeliveryHiringRO.sol\":1798:1815  timeout.increment */\n      0x00\n      add\n      0x00\n      swap1\n      sload\n      swap1\n      0x0100\n      exp\n      swap1\n      div\n      0xffffffff\n      and\n        /* \"DeliveryHiringRO.sol\":1761:1780  setEndTimeInTimeOut */\n      tag_84\n        /* \"DeliveryHiringRO.sol\":1761:1816  setEndTimeInTimeOut(_accessDateTime, timeout.increment) */\n      jump\t// in\n    tag_83:\n        /* \"DeliveryHiringRO.sol\":1743:1750  timeout */\n      0x0d\n        /* \"DeliveryHiringRO.sol\":1743:1758  timeout.endTime */\n      0x00\n      add\n      0x04\n        /* \"DeliveryHiringRO.sol\":1743:1816  timeout.endTime = setEndTimeInTimeOut(_accessDateTime, timeout.increment) */\n      0x0100\n      exp\n      dup2\n      sload\n      dup2\n      0xffffffff\n      mul\n      not\n      and\n      swap1\n      dup4\n      0xffffffff\n      and\n      mul\n      or\n      swap1\n      sstore\n      pop\n        /* \"DeliveryHiringRO.sol\":1832:1836  true */\n      0x01\n        /* \"DeliveryHiringRO.sol\":1825:1836  return true */\n      swap1\n      pop\n      jump(tag_66)\n        /* \"DeliveryHiringRO.sol\":1444:1842  if(isBusinessDay(_accessDateTime, businessDay) && \r... */\n    tag_80:\n        /* \"DeliveryHiringRO.sol\":1895:1988  failEvent(\"Request operation performed outside of allowed hours or limit operation exceeded\") */\n      0x66091b7dc2b097c8f60d5cd6aa99633b097f08d2eb1056f3e15361b22e0ea2ba\n      mload(0x40)\n      tag_85\n      swap1\n      tag_86\n      jump\t// in\n    tag_85:\n      mload(0x40)\n      dup1\n      swap2\n      sub\n      swap1\n      log1\n        /* \"DeliveryHiringRO.sol\":2003:2008  false */\n      0x00\n        /* \"DeliveryHiringRO.sol\":1996:2008  return false */\n      swap1\n      pop\n        /* \"DeliveryHiringRO.sol\":1083:2013  function requestDelivery(uint32 _accessDateTime, string[] memory _xPathContent, bool[] memory _xPathResult, address _performer) public returns(bool){\r... */\n    tag_66:\n      swap5\n      swap4\n      pop\n      pop\n      pop\n      pop\n      jump\t// out\n        /* \"DeliveryHiringRO.sol\":286:346  BusinessDay public businessDay = BusinessDay(MONDAY, FRIDAY) */\n    tag_36:\n      0x05\n      dup1\n      0x00\n      add\n      sload\n      swap1\n      dup1\n      0x01\n      add\n      sload\n      swap1\n      pop\n      dup3\n      jump\t// out\n        /* \"DeliveryHiringRO.sol\":414:482  OperationLimit public operationLimit = OperationLimit(5, MINUTE,0,0) */\n    tag_40:\n      0x08\n      dup1\n      0x00\n      add\n      sload\n      swap1\n      dup1\n      0x01\n      add\n      sload\n      swap1\n      dup1\n      0x02\n      add\n      sload\n      swap1\n      dup1\n      0x03\n      add\n      sload\n      swap1\n      pop\n      dup5\n      jump\t// out\n        /* \"DeliveryHiringRO.sol\":637:684  MessageContent[] public messageContent_response */\n    tag_45:\n      0x0e\n      dup2\n      dup2\n      sload\n      dup2\n      lt\n      tag_87\n      jumpi\n      0x00\n      dup1\n      revert\n    tag_87:\n      swap1\n      0x00\n      mstore\n      keccak256(0x00, 0x20)\n      add\n      0x00\n      swap2\n      pop\n      swap1\n      pop\n      dup1\n      0x00\n      add\n      dup1\n      sload\n      tag_89\n      swap1\n      tag_50\n      jump\t// in\n    tag_89:\n      dup1\n      0x1f\n      add\n      0x20\n      dup1\n      swap2\n      div\n      mul\n      0x20\n      add\n      mload(0x40)\n      swap1\n      dup2\n      add\n      0x40\n      mstore\n      dup1\n      swap3\n      swap2\n      swap1\n      dup2\n      dup2\n      mstore\n      0x20\n      add\n      dup3\n      dup1\n      sload\n      tag_90\n      swap1\n      tag_50\n      jump\t// in\n    tag_90:\n      dup1\n      iszero\n      tag_91\n      jumpi\n      dup1\n      0x1f\n      lt\n      tag_92\n      jumpi\n      0x0100\n      dup1\n      dup4\n      sload\n      div\n      mul\n      dup4\n      mstore\n      swap2\n      0x20\n      add\n      swap2\n      jump(tag_91)\n    tag_92:\n      dup3\n      add\n      swap2\n      swap1\n      0x00\n      mstore\n      keccak256(0x00, 0x20)\n      swap1\n    tag_93:\n      dup2\n      sload\n      dup2\n      mstore\n      swap1\n      0x01\n      add\n      swap1\n      0x20\n      add\n      dup1\n      dup4\n      gt\n      tag_93\n      jumpi\n      dup3\n      swap1\n      sub\n      0x1f\n      and\n      dup3\n      add\n      swap2\n    tag_91:\n      pop\n      pop\n      pop\n      pop\n      pop\n      swap1\n      pop\n      dup2\n      jump\t// out\n        /* \"libs/EAI_Domain.sol\":4954:5087  function isTimeout(uint32 _accessDateTime, uint32 _timeout)internal pure returns (bool) {\r... */\n    tag_60:\n        /* \"libs/EAI_Domain.sol\":5036:5040  bool */\n      0x00\n        /* \"libs/EAI_Domain.sol\":5075:5079  true */\n      0x01\n        /* \"libs/EAI_Domain.sol\":5068:5079  return true */\n      swap1\n      pop\n        /* \"libs/EAI_Domain.sol\":4954:5087  function isTimeout(uint32 _accessDateTime, uint32 _timeout)internal pure returns (bool) {\r... */\n      swap3\n      swap2\n      pop\n      pop\n      jump\t// out\n        /* \"libs/EAI_Domain.sol\":2893:3046  function isBusinessDay(uint32 _accessDateTime, BusinessDay storage businessDay)internal pure returns(bool){\r... */\n    tag_70:\n        /* \"libs/EAI_Domain.sol\":2994:2998  bool */\n      0x00\n        /* \"libs/EAI_Domain.sol\":3034:3038  true */\n      0x01\n        /* \"libs/EAI_Domain.sol\":3027:3038  return true */\n      swap1\n      pop\n        /* \"libs/EAI_Domain.sol\":2893:3046  function isBusinessDay(uint32 _accessDateTime, BusinessDay storage businessDay)internal pure returns(bool){\r... */\n      swap3\n      swap2\n      pop\n      pop\n      jump\t// out\n        /* \"libs/EAI_Domain.sol\":5529:5709  function isIntoTimeInterval(uint _accessTime, TimeInterval memory _businessTime) internal pure returns (bool) {\r... */\n    tag_73:\n        /* \"libs/EAI_Domain.sol\":5633:5637  bool */\n      0x00\n        /* \"libs/EAI_Domain.sol\":5529:5709  function isIntoTimeInterval(uint _accessTime, TimeInterval memory _businessTime) internal pure returns (bool) {\r... */\n      swap3\n      swap2\n      pop\n      pop\n      jump\t// out\n        /* \"libs/EAI_Domain.sol\":3385:3571  function isOperationLimitReached(uint32 _accessDateTime, OperationLimit memory operationLimit) internal pure returns(bool){\r... */\n    tag_76:\n        /* \"libs/EAI_Domain.sol\":3502:3506  bool */\n      0x00\n        /* \"libs/EAI_Domain.sol\":3385:3571  function isOperationLimitReached(uint32 _accessDateTime, OperationLimit memory operationLimit) internal pure returns(bool){\r... */\n      swap3\n      swap2\n      pop\n      pop\n      jump\t// out\n        /* \"libs/EAI_Domain.sol\":2465:2620  function msgContentEvaluation(string[] memory content, bool[] memory results) internal pure returns (bool){\r... */\n    tag_79:\n        /* \"libs/EAI_Domain.sol\":2566:2570  bool */\n      0x00\n        /* \"libs/EAI_Domain.sol\":2607:2611  true */\n      0x01\n        /* \"libs/EAI_Domain.sol\":2600:2611  return true */\n      swap1\n      pop\n        /* \"libs/EAI_Domain.sol\":2465:2620  function msgContentEvaluation(string[] memory content, bool[] memory results) internal pure returns (bool){\r... */\n      swap3\n      swap2\n      pop\n      pop\n      jump\t// out\n        /* \"libs/EAI_Domain.sol\":4736:4946  function setEndTimeInTimeOut(uint32 _dataTime,  uint32  increment)internal pure returns(uint32){\r... */\n    tag_84:\n        /* \"libs/EAI_Domain.sol\":4824:4830  uint32 */\n      0x00\n        /* \"libs/EAI_Domain.sol\":4859:4868  increment */\n      dup2\n        /* \"libs/EAI_Domain.sol\":4849:4858  _dataTime */\n      dup4\n        /* \"libs/EAI_Domain.sol\":4849:4868  _dataTime+increment */\n      tag_100\n      swap2\n      swap1\n      tag_101\n      jump\t// in\n    tag_100:\n        /* \"libs/EAI_Domain.sol\":4842:4868  return _dataTime+increment */\n      swap1\n      pop\n        /* \"libs/EAI_Domain.sol\":4736:4946  function setEndTimeInTimeOut(uint32 _dataTime,  uint32  increment)internal pure returns(uint32){\r... */\n      swap3\n      swap2\n      pop\n      pop\n      jump\t// out\n        /* \"#utility.yul\":21:734   */\n    tag_103:\n        /* \"#utility.yul\":114:119   */\n      0x00\n        /* \"#utility.yul\":139:217   */\n      tag_105\n        /* \"#utility.yul\":155:216   */\n      tag_106\n        /* \"#utility.yul\":209:215   */\n      dup5\n        /* \"#utility.yul\":155:216   */\n      tag_107\n      jump\t// in\n    tag_106:\n        /* \"#utility.yul\":139:217   */\n      tag_108\n      jump\t// in\n    tag_105:\n        /* \"#utility.yul\":130:217   */\n      swap1\n      pop\n        /* \"#utility.yul\":237:242   */\n      dup1\n        /* \"#utility.yul\":266:272   */\n      dup4\n        /* \"#utility.yul\":259:264   */\n      dup3\n        /* \"#utility.yul\":252:273   */\n      mstore\n        /* \"#utility.yul\":300:304   */\n      0x20\n        /* \"#utility.yul\":293:298   */\n      dup3\n        /* \"#utility.yul\":289:305   */\n      add\n        /* \"#utility.yul\":282:305   */\n      swap1\n      pop\n        /* \"#utility.yul\":326:332   */\n      dup3\n        /* \"#utility.yul\":376:379   */\n      dup6\n        /* \"#utility.yul\":368:372   */\n      0x20\n        /* \"#utility.yul\":360:366   */\n      dup7\n        /* \"#utility.yul\":356:373   */\n      mul\n        /* \"#utility.yul\":351:354   */\n      dup3\n        /* \"#utility.yul\":347:374   */\n      add\n        /* \"#utility.yul\":344:380   */\n      gt\n        /* \"#utility.yul\":341:484   */\n      iszero\n      tag_109\n      jumpi\n        /* \"#utility.yul\":395:474   */\n      tag_110\n      tag_111\n      jump\t// in\n    tag_110:\n        /* \"#utility.yul\":341:484   */\n    tag_109:\n        /* \"#utility.yul\":508:509   */\n      0x00\n        /* \"#utility.yul\":493:728   */\n    tag_112:\n        /* \"#utility.yul\":518:524   */\n      dup6\n        /* \"#utility.yul\":515:516   */\n      dup2\n        /* \"#utility.yul\":512:525   */\n      lt\n        /* \"#utility.yul\":493:728   */\n      iszero\n      tag_114\n      jumpi\n        /* \"#utility.yul\":586:589   */\n      dup2\n        /* \"#utility.yul\":615:649   */\n      tag_115\n        /* \"#utility.yul\":645:648   */\n      dup9\n        /* \"#utility.yul\":633:643   */\n      dup3\n        /* \"#utility.yul\":615:649   */\n      tag_116\n      jump\t// in\n    tag_115:\n        /* \"#utility.yul\":610:613   */\n      dup5\n        /* \"#utility.yul\":603:650   */\n      mstore\n        /* \"#utility.yul\":679:683   */\n      0x20\n        /* \"#utility.yul\":674:677   */\n      dup5\n        /* \"#utility.yul\":670:684   */\n      add\n        /* \"#utility.yul\":663:684   */\n      swap4\n      pop\n        /* \"#utility.yul\":713:717   */\n      0x20\n        /* \"#utility.yul\":708:711   */\n      dup4\n        /* \"#utility.yul\":704:718   */\n      add\n        /* \"#utility.yul\":697:718   */\n      swap3\n      pop\n        /* \"#utility.yul\":553:728   */\n      pop\n        /* \"#utility.yul\":540:541   */\n      0x01\n        /* \"#utility.yul\":537:538   */\n      dup2\n        /* \"#utility.yul\":533:542   */\n      add\n        /* \"#utility.yul\":528:542   */\n      swap1\n      pop\n        /* \"#utility.yul\":493:728   */\n      jump(tag_112)\n    tag_114:\n        /* \"#utility.yul\":497:511   */\n      pop\n        /* \"#utility.yul\":120:734   */\n      pop\n      pop\n        /* \"#utility.yul\":21:734   */\n      swap4\n      swap3\n      pop\n      pop\n      pop\n      jump\t// out\n        /* \"#utility.yul\":756:1713   */\n    tag_117:\n        /* \"#utility.yul\":862:867   */\n      0x00\n        /* \"#utility.yul\":887:978   */\n      tag_119\n        /* \"#utility.yul\":903:977   */\n      tag_120\n        /* \"#utility.yul\":970:976   */\n      dup5\n        /* \"#utility.yul\":903:977   */\n      tag_121\n      jump\t// in\n    tag_120:\n        /* \"#utility.yul\":887:978   */\n      tag_108\n      jump\t// in\n    tag_119:\n        /* \"#utility.yul\":878:978   */\n      swap1\n      pop\n        /* \"#utility.yul\":998:1003   */\n      dup1\n        /* \"#utility.yul\":1027:1033   */\n      dup4\n        /* \"#utility.yul\":1020:1025   */\n      dup3\n        /* \"#utility.yul\":1013:1034   */\n      mstore\n        /* \"#utility.yul\":1061:1065   */\n      0x20\n        /* \"#utility.yul\":1054:1059   */\n      dup3\n        /* \"#utility.yul\":1050:1066   */\n      add\n        /* \"#utility.yul\":1043:1066   */\n      swap1\n      pop\n        /* \"#utility.yul\":1087:1093   */\n      dup3\n        /* \"#utility.yul\":1137:1140   */\n      dup6\n        /* \"#utility.yul\":1129:1133   */\n      0x20\n        /* \"#utility.yul\":1121:1127   */\n      dup7\n        /* \"#utility.yul\":1117:1134   */\n      mul\n        /* \"#utility.yul\":1112:1115   */\n      dup3\n        /* \"#utility.yul\":1108:1135   */\n      add\n        /* \"#utility.yul\":1105:1141   */\n      gt\n        /* \"#utility.yul\":1102:1245   */\n      iszero\n      tag_122\n      jumpi\n        /* \"#utility.yul\":1156:1235   */\n      tag_123\n      tag_111\n      jump\t// in\n    tag_123:\n        /* \"#utility.yul\":1102:1245   */\n    tag_122:\n        /* \"#utility.yul\":1269:1270   */\n      0x00\n        /* \"#utility.yul\":1254:1707   */\n    tag_124:\n        /* \"#utility.yul\":1279:1285   */\n      dup6\n        /* \"#utility.yul\":1276:1277   */\n      dup2\n        /* \"#utility.yul\":1273:1286   */\n      lt\n        /* \"#utility.yul\":1254:1707   */\n      iszero\n      tag_126\n      jumpi\n        /* \"#utility.yul\":1361:1364   */\n      dup2\n        /* \"#utility.yul\":1348:1365   */\n      calldataload\n        /* \"#utility.yul\":1397:1415   */\n      0xffffffffffffffff\n        /* \"#utility.yul\":1384:1395   */\n      dup2\n        /* \"#utility.yul\":1381:1416   */\n      gt\n        /* \"#utility.yul\":1378:1500   */\n      iszero\n      tag_127\n      jumpi\n        /* \"#utility.yul\":1419:1498   */\n      tag_128\n      tag_129\n      jump\t// in\n    tag_128:\n        /* \"#utility.yul\":1378:1500   */\n    tag_127:\n        /* \"#utility.yul\":1543:1554   */\n      dup1\n        /* \"#utility.yul\":1535:1541   */\n      dup7\n        /* \"#utility.yul\":1531:1555   */\n      add\n        /* \"#utility.yul\":1581:1628   */\n      tag_130\n        /* \"#utility.yul\":1624:1627   */\n      dup10\n        /* \"#utility.yul\":1612:1622   */\n      dup3\n        /* \"#utility.yul\":1581:1628   */\n      tag_131\n      jump\t// in\n    tag_130:\n        /* \"#utility.yul\":1576:1579   */\n      dup6\n        /* \"#utility.yul\":1569:1629   */\n      mstore\n        /* \"#utility.yul\":1658:1662   */\n      0x20\n        /* \"#utility.yul\":1653:1656   */\n      dup6\n        /* \"#utility.yul\":1649:1663   */\n      add\n        /* \"#utility.yul\":1642:1663   */\n      swap5\n      pop\n        /* \"#utility.yul\":1692:1696   */\n      0x20\n        /* \"#utility.yul\":1687:1690   */\n      dup5\n        /* \"#utility.yul\":1683:1697   */\n      add\n        /* \"#utility.yul\":1676:1697   */\n      swap4\n      pop\n        /* \"#utility.yul\":1314:1707   */\n      pop\n      pop\n        /* \"#utility.yul\":1301:1302   */\n      0x01\n        /* \"#utility.yul\":1298:1299   */\n      dup2\n        /* \"#utility.yul\":1294:1303   */\n      add\n        /* \"#utility.yul\":1289:1303   */\n      swap1\n      pop\n        /* \"#utility.yul\":1254:1707   */\n      jump(tag_124)\n    tag_126:\n        /* \"#utility.yul\":1258:1272   */\n      pop\n        /* \"#utility.yul\":868:1713   */\n      pop\n      pop\n        /* \"#utility.yul\":756:1713   */\n      swap4\n      swap3\n      pop\n      pop\n      pop\n      jump\t// out\n        /* \"#utility.yul\":1719:2131   */\n    tag_132:\n        /* \"#utility.yul\":1797:1802   */\n      0x00\n        /* \"#utility.yul\":1822:1888   */\n      tag_134\n        /* \"#utility.yul\":1838:1887   */\n      tag_135\n        /* \"#utility.yul\":1880:1886   */\n      dup5\n        /* \"#utility.yul\":1838:1887   */\n      tag_136\n      jump\t// in\n    tag_135:\n        /* \"#utility.yul\":1822:1888   */\n      tag_108\n      jump\t// in\n    tag_134:\n        /* \"#utility.yul\":1813:1888   */\n      swap1\n      pop\n        /* \"#utility.yul\":1911:1917   */\n      dup3\n        /* \"#utility.yul\":1904:1909   */\n      dup2\n        /* \"#utility.yul\":1897:1918   */\n      mstore\n        /* \"#utility.yul\":1949:1953   */\n      0x20\n        /* \"#utility.yul\":1942:1947   */\n      dup2\n        /* \"#utility.yul\":1938:1954   */\n      add\n        /* \"#utility.yul\":1987:1990   */\n      dup5\n        /* \"#utility.yul\":1978:1984   */\n      dup5\n        /* \"#utility.yul\":1973:1976   */\n      dup5\n        /* \"#utility.yul\":1969:1985   */\n      add\n        /* \"#utility.yul\":1966:1991   */\n      gt\n        /* \"#utility.yul\":1963:2075   */\n      iszero\n      tag_137\n      jumpi\n        /* \"#utility.yul\":1994:2073   */\n      tag_138\n      tag_139\n      jump\t// in\n    tag_138:\n        /* \"#utility.yul\":1963:2075   */\n    tag_137:\n        /* \"#utility.yul\":2084:2125   */\n      tag_140\n        /* \"#utility.yul\":2118:2124   */\n      dup5\n        /* \"#utility.yul\":2113:2116   */\n      dup3\n        /* \"#utility.yul\":2108:2111   */\n      dup6\n        /* \"#utility.yul\":2084:2125   */\n      tag_141\n      jump\t// in\n    tag_140:\n        /* \"#utility.yul\":1803:2131   */\n      pop\n        /* \"#utility.yul\":1719:2131   */\n      swap4\n      swap3\n      pop\n      pop\n      pop\n      jump\t// out\n        /* \"#utility.yul\":2137:2276   */\n    tag_142:\n        /* \"#utility.yul\":2183:2188   */\n      0x00\n        /* \"#utility.yul\":2221:2227   */\n      dup2\n        /* \"#utility.yul\":2208:2228   */\n      calldataload\n        /* \"#utility.yul\":2199:2228   */\n      swap1\n      pop\n        /* \"#utility.yul\":2237:2270   */\n      tag_144\n        /* \"#utility.yul\":2264:2269   */\n      dup2\n        /* \"#utility.yul\":2237:2270   */\n      tag_145\n      jump\t// in\n    tag_144:\n        /* \"#utility.yul\":2137:2276   */\n      swap3\n      swap2\n      pop\n      pop\n      jump\t// out\n        /* \"#utility.yul\":2296:2660   */\n    tag_146:\n        /* \"#utility.yul\":2364:2369   */\n      0x00\n        /* \"#utility.yul\":2413:2416   */\n      dup3\n        /* \"#utility.yul\":2406:2410   */\n      0x1f\n        /* \"#utility.yul\":2398:2404   */\n      dup4\n        /* \"#utility.yul\":2394:2411   */\n      add\n        /* \"#utility.yul\":2390:2417   */\n      slt\n        /* \"#utility.yul\":2380:2502   */\n      tag_148\n      jumpi\n        /* \"#utility.yul\":2421:2500   */\n      tag_149\n      tag_129\n      jump\t// in\n    tag_149:\n        /* \"#utility.yul\":2380:2502   */\n    tag_148:\n        /* \"#utility.yul\":2538:2544   */\n      dup2\n        /* \"#utility.yul\":2525:2545   */\n      calldataload\n        /* \"#utility.yul\":2563:2654   */\n      tag_150\n        /* \"#utility.yul\":2650:2653   */\n      dup5\n        /* \"#utility.yul\":2642:2648   */\n      dup3\n        /* \"#utility.yul\":2635:2639   */\n      0x20\n        /* \"#utility.yul\":2627:2633   */\n      dup7\n        /* \"#utility.yul\":2623:2640   */\n      add\n        /* \"#utility.yul\":2563:2654   */\n      tag_103\n      jump\t// in\n    tag_150:\n        /* \"#utility.yul\":2554:2654   */\n      swap2\n      pop\n        /* \"#utility.yul\":2370:2660   */\n      pop\n        /* \"#utility.yul\":2296:2660   */\n      swap3\n      swap2\n      pop\n      pop\n      jump\t// out\n        /* \"#utility.yul\":2682:3072   */\n    tag_151:\n        /* \"#utility.yul\":2763:2768   */\n      0x00\n        /* \"#utility.yul\":2812:2815   */\n      dup3\n        /* \"#utility.yul\":2805:2809   */\n      0x1f\n        /* \"#utility.yul\":2797:2803   */\n      dup4\n        /* \"#utility.yul\":2793:2810   */\n      add\n        /* \"#utility.yul\":2789:2816   */\n      slt\n        /* \"#utility.yul\":2779:2901   */\n      tag_153\n      jumpi\n        /* \"#utility.yul\":2820:2899   */\n      tag_154\n      tag_129\n      jump\t// in\n    tag_154:\n        /* \"#utility.yul\":2779:2901   */\n    tag_153:\n        /* \"#utility.yul\":2937:2943   */\n      dup2\n        /* \"#utility.yul\":2924:2944   */\n      calldataload\n        /* \"#utility.yul\":2962:3066   */\n      tag_155\n        /* \"#utility.yul\":3062:3065   */\n      dup5\n        /* \"#utility.yul\":3054:3060   */\n      dup3\n        /* \"#utility.yul\":3047:3051   */\n      0x20\n        /* \"#utility.yul\":3039:3045   */\n      dup7\n        /* \"#utility.yul\":3035:3052   */\n      add\n        /* \"#utility.yul\":2962:3066   */\n      tag_117\n      jump\t// in\n    tag_155:\n        /* \"#utility.yul\":2953:3066   */\n      swap2\n      pop\n        /* \"#utility.yul\":2769:3072   */\n      pop\n        /* \"#utility.yul\":2682:3072   */\n      swap3\n      swap2\n      pop\n      pop\n      jump\t// out\n        /* \"#utility.yul\":3078:3211   */\n    tag_116:\n        /* \"#utility.yul\":3121:3126   */\n      0x00\n        /* \"#utility.yul\":3159:3165   */\n      dup2\n        /* \"#utility.yul\":3146:3166   */\n      calldataload\n        /* \"#utility.yul\":3137:3166   */\n      swap1\n      pop\n        /* \"#utility.yul\":3175:3205   */\n      tag_157\n        /* \"#utility.yul\":3199:3204   */\n      dup2\n        /* \"#utility.yul\":3175:3205   */\n      tag_158\n      jump\t// in\n    tag_157:\n        /* \"#utility.yul\":3078:3211   */\n      swap3\n      swap2\n      pop\n      pop\n      jump\t// out\n        /* \"#utility.yul\":3231:3571   */\n    tag_131:\n        /* \"#utility.yul\":3287:3292   */\n      0x00\n        /* \"#utility.yul\":3336:3339   */\n      dup3\n        /* \"#utility.yul\":3329:3333   */\n      0x1f\n        /* \"#utility.yul\":3321:3327   */\n      dup4\n        /* \"#utility.yul\":3317:3334   */\n      add\n        /* \"#utility.yul\":3313:3340   */\n      slt\n        /* \"#utility.yul\":3303:3425   */\n      tag_160\n      jumpi\n        /* \"#utility.yul\":3344:3423   */\n      tag_161\n      tag_129\n      jump\t// in\n    tag_161:\n        /* \"#utility.yul\":3303:3425   */\n    tag_160:\n        /* \"#utility.yul\":3461:3467   */\n      dup2\n        /* \"#utility.yul\":3448:3468   */\n      calldataload\n        /* \"#utility.yul\":3486:3565   */\n      tag_162\n        /* \"#utility.yul\":3561:3564   */\n      dup5\n        /* \"#utility.yul\":3553:3559   */\n      dup3\n        /* \"#utility.yul\":3546:3550   */\n      0x20\n        /* \"#utility.yul\":3538:3544   */\n      dup7\n        /* \"#utility.yul\":3534:3551   */\n      add\n        /* \"#utility.yul\":3486:3565   */\n      tag_132\n      jump\t// in\n    tag_162:\n        /* \"#utility.yul\":3477:3565   */\n      swap2\n      pop\n        /* \"#utility.yul\":3293:3571   */\n      pop\n        /* \"#utility.yul\":3231:3571   */\n      swap3\n      swap2\n      pop\n      pop\n      jump\t// out\n        /* \"#utility.yul\":3577:3716   */\n    tag_163:\n        /* \"#utility.yul\":3623:3628   */\n      0x00\n        /* \"#utility.yul\":3661:3667   */\n      dup2\n        /* \"#utility.yul\":3648:3668   */\n      calldataload\n        /* \"#utility.yul\":3639:3668   */\n      swap1\n      pop\n        /* \"#utility.yul\":3677:3710   */\n      tag_165\n        /* \"#utility.yul\":3704:3709   */\n      dup2\n        /* \"#utility.yul\":3677:3710   */\n      tag_166\n      jump\t// in\n    tag_165:\n        /* \"#utility.yul\":3577:3716   */\n      swap3\n      swap2\n      pop\n      pop\n      jump\t// out\n        /* \"#utility.yul\":3722:3859   */\n    tag_167:\n        /* \"#utility.yul\":3767:3772   */\n      0x00\n        /* \"#utility.yul\":3805:3811   */\n      dup2\n        /* \"#utility.yul\":3792:3812   */\n      calldataload\n        /* \"#utility.yul\":3783:3812   */\n      swap1\n      pop\n        /* \"#utility.yul\":3821:3853   */\n      tag_169\n        /* \"#utility.yul\":3847:3852   */\n      dup2\n        /* \"#utility.yul\":3821:3853   */\n      tag_170\n      jump\t// in\n    tag_169:\n        /* \"#utility.yul\":3722:3859   */\n      swap3\n      swap2\n      pop\n      pop\n      jump\t// out\n        /* \"#utility.yul\":3865:4194   */\n    tag_14:\n        /* \"#utility.yul\":3924:3930   */\n      0x00\n        /* \"#utility.yul\":3973:3975   */\n      0x20\n        /* \"#utility.yul\":3961:3970   */\n      dup3\n        /* \"#utility.yul\":3952:3959   */\n      dup5\n        /* \"#utility.yul\":3948:3971   */\n      sub\n        /* \"#utility.yul\":3944:3976   */\n      slt\n        /* \"#utility.yul\":3941:4060   */\n      iszero\n      tag_172\n      jumpi\n        /* \"#utility.yul\":3979:4058   */\n      tag_173\n      tag_174\n      jump\t// in\n    tag_173:\n        /* \"#utility.yul\":3941:4060   */\n    tag_172:\n        /* \"#utility.yul\":4099:4100   */\n      0x00\n        /* \"#utility.yul\":4124:4177   */\n      tag_175\n        /* \"#utility.yul\":4169:4176   */\n      dup5\n        /* \"#utility.yul\":4160:4166   */\n      dup3\n        /* \"#utility.yul\":4149:4158   */\n      dup6\n        /* \"#utility.yul\":4145:4167   */\n      add\n        /* \"#utility.yul\":4124:4177   */\n      tag_163\n      jump\t// in\n    tag_175:\n        /* \"#utility.yul\":4114:4177   */\n      swap2\n      pop\n        /* \"#utility.yul\":4070:4187   */\n      pop\n        /* \"#utility.yul\":3865:4194   */\n      swap3\n      swap2\n      pop\n      pop\n      jump\t// out\n        /* \"#utility.yul\":4200:5397   */\n    tag_27:\n        /* \"#utility.yul\":4342:4348   */\n      0x00\n        /* \"#utility.yul\":4350:4356   */\n      dup1\n        /* \"#utility.yul\":4358:4364   */\n      0x00\n        /* \"#utility.yul\":4366:4372   */\n      dup1\n        /* \"#utility.yul\":4415:4418   */\n      0x80\n        /* \"#utility.yul\":4403:4412   */\n      dup6\n        /* \"#utility.yul\":4394:4401   */\n      dup8\n        /* \"#utility.yul\":4390:4413   */\n      sub\n        /* \"#utility.yul\":4386:4419   */\n      slt\n        /* \"#utility.yul\":4383:4503   */\n      iszero\n      tag_177\n      jumpi\n        /* \"#utility.yul\":4422:4501   */\n      tag_178\n      tag_174\n      jump\t// in\n    tag_178:\n        /* \"#utility.yul\":4383:4503   */\n    tag_177:\n        /* \"#utility.yul\":4542:4543   */\n      0x00\n        /* \"#utility.yul\":4567:4619   */\n      tag_179\n        /* \"#utility.yul\":4611:4618   */\n      dup8\n        /* \"#utility.yul\":4602:4608   */\n      dup3\n        /* \"#utility.yul\":4591:4600   */\n      dup9\n        /* \"#utility.yul\":4587:4609   */\n      add\n        /* \"#utility.yul\":4567:4619   */\n      tag_167\n      jump\t// in\n    tag_179:\n        /* \"#utility.yul\":4557:4619   */\n      swap5\n      pop\n        /* \"#utility.yul\":4513:4629   */\n      pop\n        /* \"#utility.yul\":4696:4698   */\n      0x20\n        /* \"#utility.yul\":4685:4694   */\n      dup6\n        /* \"#utility.yul\":4681:4699   */\n      add\n        /* \"#utility.yul\":4668:4700   */\n      calldataload\n        /* \"#utility.yul\":4727:4745   */\n      0xffffffffffffffff\n        /* \"#utility.yul\":4719:4725   */\n      dup2\n        /* \"#utility.yul\":4716:4746   */\n      gt\n        /* \"#utility.yul\":4713:4830   */\n      iszero\n      tag_180\n      jumpi\n        /* \"#utility.yul\":4749:4828   */\n      tag_181\n      tag_182\n      jump\t// in\n    tag_181:\n        /* \"#utility.yul\":4713:4830   */\n    tag_180:\n        /* \"#utility.yul\":4854:4942   */\n      tag_183\n        /* \"#utility.yul\":4934:4941   */\n      dup8\n        /* \"#utility.yul\":4925:4931   */\n      dup3\n        /* \"#utility.yul\":4914:4923   */\n      dup9\n        /* \"#utility.yul\":4910:4932   */\n      add\n        /* \"#utility.yul\":4854:4942   */\n      tag_151\n      jump\t// in\n    tag_183:\n        /* \"#utility.yul\":4844:4942   */\n      swap4\n      pop\n        /* \"#utility.yul\":4639:4952   */\n      pop\n        /* \"#utility.yul\":5019:5021   */\n      0x40\n        /* \"#utility.yul\":5008:5017   */\n      dup6\n        /* \"#utility.yul\":5004:5022   */\n      add\n        /* \"#utility.yul\":4991:5023   */\n      calldataload\n        /* \"#utility.yul\":5050:5068   */\n      0xffffffffffffffff\n        /* \"#utility.yul\":5042:5048   */\n      dup2\n        /* \"#utility.yul\":5039:5069   */\n      gt\n        /* \"#utility.yul\":5036:5153   */\n      iszero\n      tag_184\n      jumpi\n        /* \"#utility.yul\":5072:5151   */\n      tag_185\n      tag_182\n      jump\t// in\n    tag_185:\n        /* \"#utility.yul\":5036:5153   */\n    tag_184:\n        /* \"#utility.yul\":5177:5252   */\n      tag_186\n        /* \"#utility.yul\":5244:5251   */\n      dup8\n        /* \"#utility.yul\":5235:5241   */\n      dup3\n        /* \"#utility.yul\":5224:5233   */\n      dup9\n        /* \"#utility.yul\":5220:5242   */\n      add\n        /* \"#utility.yul\":5177:5252   */\n      tag_146\n      jump\t// in\n    tag_186:\n        /* \"#utility.yul\":5167:5252   */\n      swap3\n      pop\n        /* \"#utility.yul\":4962:5262   */\n      pop\n        /* \"#utility.yul\":5301:5303   */\n      0x60\n        /* \"#utility.yul\":5327:5380   */\n      tag_187\n        /* \"#utility.yul\":5372:5379   */\n      dup8\n        /* \"#utility.yul\":5363:5369   */\n      dup3\n        /* \"#utility.yul\":5352:5361   */\n      dup9\n        /* \"#utility.yul\":5348:5370   */\n      add\n        /* \"#utility.yul\":5327:5380   */\n      tag_142\n      jump\t// in\n    tag_187:\n        /* \"#utility.yul\":5317:5380   */\n      swap2\n      pop\n        /* \"#utility.yul\":5272:5390   */\n      pop\n        /* \"#utility.yul\":4200:5397   */\n      swap3\n      swap6\n      swap2\n      swap5\n      pop\n      swap3\n      pop\n      jump\t// out\n        /* \"#utility.yul\":5403:5512   */\n    tag_188:\n        /* \"#utility.yul\":5484:5505   */\n      tag_190\n        /* \"#utility.yul\":5499:5504   */\n      dup2\n        /* \"#utility.yul\":5484:5505   */\n      tag_191\n      jump\t// in\n    tag_190:\n        /* \"#utility.yul\":5479:5482   */\n      dup3\n        /* \"#utility.yul\":5472:5506   */\n      mstore\n        /* \"#utility.yul\":5403:5512   */\n      pop\n      pop\n      jump\t// out\n        /* \"#utility.yul\":5518:5882   */\n    tag_192:\n        /* \"#utility.yul\":5606:5609   */\n      0x00\n        /* \"#utility.yul\":5634:5673   */\n      tag_194\n        /* \"#utility.yul\":5667:5672   */\n      dup3\n        /* \"#utility.yul\":5634:5673   */\n      tag_195\n      jump\t// in\n    tag_194:\n        /* \"#utility.yul\":5689:5760   */\n      tag_196\n        /* \"#utility.yul\":5753:5759   */\n      dup2\n        /* \"#utility.yul\":5748:5751   */\n      dup6\n        /* \"#utility.yul\":5689:5760   */\n      tag_197\n      jump\t// in\n    tag_196:\n        /* \"#utility.yul\":5682:5760   */\n      swap4\n      pop\n        /* \"#utility.yul\":5769:5821   */\n      tag_198\n        /* \"#utility.yul\":5814:5820   */\n      dup2\n        /* \"#utility.yul\":5809:5812   */\n      dup6\n        /* \"#utility.yul\":5802:5806   */\n      0x20\n        /* \"#utility.yul\":5795:5800   */\n      dup7\n        /* \"#utility.yul\":5791:5807   */\n      add\n        /* \"#utility.yul\":5769:5821   */\n      tag_199\n      jump\t// in\n    tag_198:\n        /* \"#utility.yul\":5846:5875   */\n      tag_200\n        /* \"#utility.yul\":5868:5874   */\n      dup2\n        /* \"#utility.yul\":5846:5875   */\n      tag_201\n      jump\t// in\n    tag_200:\n        /* \"#utility.yul\":5841:5844   */\n      dup5\n        /* \"#utility.yul\":5837:5876   */\n      add\n        /* \"#utility.yul\":5830:5876   */\n      swap2\n      pop\n        /* \"#utility.yul\":5610:5882   */\n      pop\n        /* \"#utility.yul\":5518:5882   */\n      swap3\n      swap2\n      pop\n      pop\n      jump\t// out\n        /* \"#utility.yul\":5888:6254   */\n    tag_202:\n        /* \"#utility.yul\":6030:6033   */\n      0x00\n        /* \"#utility.yul\":6051:6118   */\n      tag_204\n        /* \"#utility.yul\":6115:6117   */\n      0x31\n        /* \"#utility.yul\":6110:6113   */\n      dup4\n        /* \"#utility.yul\":6051:6118   */\n      tag_197\n      jump\t// in\n    tag_204:\n        /* \"#utility.yul\":6044:6118   */\n      swap2\n      pop\n        /* \"#utility.yul\":6127:6220   */\n      tag_205\n        /* \"#utility.yul\":6216:6219   */\n      dup3\n        /* \"#utility.yul\":6127:6220   */\n      tag_206\n      jump\t// in\n    tag_205:\n        /* \"#utility.yul\":6245:6247   */\n      0x40\n        /* \"#utility.yul\":6240:6243   */\n      dup3\n        /* \"#utility.yul\":6236:6248   */\n      add\n        /* \"#utility.yul\":6229:6248   */\n      swap1\n      pop\n        /* \"#utility.yul\":5888:6254   */\n      swap2\n      swap1\n      pop\n      jump\t// out\n        /* \"#utility.yul\":6260:6626   */\n    tag_207:\n        /* \"#utility.yul\":6402:6405   */\n      0x00\n        /* \"#utility.yul\":6423:6490   */\n      tag_209\n        /* \"#utility.yul\":6487:6489   */\n      0x2b\n        /* \"#utility.yul\":6482:6485   */\n      dup4\n        /* \"#utility.yul\":6423:6490   */\n      tag_197\n      jump\t// in\n    tag_209:\n        /* \"#utility.yul\":6416:6490   */\n      swap2\n      pop\n        /* \"#utility.yul\":6499:6592   */\n      tag_210\n        /* \"#utility.yul\":6588:6591   */\n      dup3\n        /* \"#utility.yul\":6499:6592   */\n      tag_211\n      jump\t// in\n    tag_210:\n        /* \"#utility.yul\":6617:6619   */\n      0x40\n        /* \"#utility.yul\":6612:6615   */\n      dup3\n        /* \"#utility.yul\":6608:6620   */\n      add\n        /* \"#utility.yul\":6601:6620   */\n      swap1\n      pop\n        /* \"#utility.yul\":6260:6626   */\n      swap2\n      swap1\n      pop\n      jump\t// out\n        /* \"#utility.yul\":6632:6998   */\n    tag_212:\n        /* \"#utility.yul\":6774:6777   */\n      0x00\n        /* \"#utility.yul\":6795:6862   */\n      tag_214\n        /* \"#utility.yul\":6859:6861   */\n      0x50\n        /* \"#utility.yul\":6854:6857   */\n      dup4\n        /* \"#utility.yul\":6795:6862   */\n      tag_197\n      jump\t// in\n    tag_214:\n        /* \"#utility.yul\":6788:6862   */\n      swap2\n      pop\n        /* \"#utility.yul\":6871:6964   */\n      tag_215\n        /* \"#utility.yul\":6960:6963   */\n      dup3\n        /* \"#utility.yul\":6871:6964   */\n      tag_216\n      jump\t// in\n    tag_215:\n        /* \"#utility.yul\":6989:6991   */\n      0x60\n        /* \"#utility.yul\":6984:6987   */\n      dup3\n        /* \"#utility.yul\":6980:6992   */\n      add\n        /* \"#utility.yul\":6973:6992   */\n      swap1\n      pop\n        /* \"#utility.yul\":6632:6998   */\n      swap2\n      swap1\n      pop\n      jump\t// out\n        /* \"#utility.yul\":7004:7370   */\n    tag_217:\n        /* \"#utility.yul\":7146:7149   */\n      0x00\n        /* \"#utility.yul\":7167:7234   */\n      tag_219\n        /* \"#utility.yul\":7231:7233   */\n      0x32\n        /* \"#utility.yul\":7226:7229   */\n      dup4\n        /* \"#utility.yul\":7167:7234   */\n      tag_197\n      jump\t// in\n    tag_219:\n        /* \"#utility.yul\":7160:7234   */\n      swap2\n      pop\n        /* \"#utility.yul\":7243:7336   */\n      tag_220\n        /* \"#utility.yul\":7332:7335   */\n      dup3\n        /* \"#utility.yul\":7243:7336   */\n      tag_221\n      jump\t// in\n    tag_220:\n        /* \"#utility.yul\":7361:7363   */\n      0x40\n        /* \"#utility.yul\":7356:7359   */\n      dup3\n        /* \"#utility.yul\":7352:7364   */\n      add\n        /* \"#utility.yul\":7345:7364   */\n      swap1\n      pop\n        /* \"#utility.yul\":7004:7370   */\n      swap2\n      swap1\n      pop\n      jump\t// out\n        /* \"#utility.yul\":7376:7494   */\n    tag_222:\n        /* \"#utility.yul\":7463:7487   */\n      tag_224\n        /* \"#utility.yul\":7481:7486   */\n      dup2\n        /* \"#utility.yul\":7463:7487   */\n      tag_225\n      jump\t// in\n    tag_224:\n        /* \"#utility.yul\":7458:7461   */\n      dup3\n        /* \"#utility.yul\":7451:7488   */\n      mstore\n        /* \"#utility.yul\":7376:7494   */\n      pop\n      pop\n      jump\t// out\n        /* \"#utility.yul\":7500:7615   */\n    tag_226:\n        /* \"#utility.yul\":7585:7608   */\n      tag_228\n        /* \"#utility.yul\":7602:7607   */\n      dup2\n        /* \"#utility.yul\":7585:7608   */\n      tag_229\n      jump\t// in\n    tag_228:\n        /* \"#utility.yul\":7580:7583   */\n      dup3\n        /* \"#utility.yul\":7573:7609   */\n      mstore\n        /* \"#utility.yul\":7500:7615   */\n      pop\n      pop\n      jump\t// out\n        /* \"#utility.yul\":7621:7831   */\n    tag_30:\n        /* \"#utility.yul\":7708:7712   */\n      0x00\n        /* \"#utility.yul\":7746:7748   */\n      0x20\n        /* \"#utility.yul\":7735:7744   */\n      dup3\n        /* \"#utility.yul\":7731:7749   */\n      add\n        /* \"#utility.yul\":7723:7749   */\n      swap1\n      pop\n        /* \"#utility.yul\":7759:7824   */\n      tag_231\n        /* \"#utility.yul\":7821:7822   */\n      0x00\n        /* \"#utility.yul\":7810:7819   */\n      dup4\n        /* \"#utility.yul\":7806:7823   */\n      add\n        /* \"#utility.yul\":7797:7803   */\n      dup5\n        /* \"#utility.yul\":7759:7824   */\n      tag_188\n      jump\t// in\n    tag_231:\n        /* \"#utility.yul\":7621:7831   */\n      swap3\n      swap2\n      pop\n      pop\n      jump\t// out\n        /* \"#utility.yul\":7837:8150   */\n    tag_17:\n        /* \"#utility.yul\":7950:7954   */\n      0x00\n        /* \"#utility.yul\":7988:7990   */\n      0x20\n        /* \"#utility.yul\":7977:7986   */\n      dup3\n        /* \"#utility.yul\":7973:7991   */\n      add\n        /* \"#utility.yul\":7965:7991   */\n      swap1\n      pop\n        /* \"#utility.yul\":8037:8046   */\n      dup2\n        /* \"#utility.yul\":8031:8035   */\n      dup2\n        /* \"#utility.yul\":8027:8047   */\n      sub\n        /* \"#utility.yul\":8023:8024   */\n      0x00\n        /* \"#utility.yul\":8012:8021   */\n      dup4\n        /* \"#utility.yul\":8008:8025   */\n      add\n        /* \"#utility.yul\":8001:8048   */\n      mstore\n        /* \"#utility.yul\":8065:8143   */\n      tag_233\n        /* \"#utility.yul\":8138:8142   */\n      dup2\n        /* \"#utility.yul\":8129:8135   */\n      dup5\n        /* \"#utility.yul\":8065:8143   */\n      tag_192\n      jump\t// in\n    tag_233:\n        /* \"#utility.yul\":8057:8143   */\n      swap1\n      pop\n        /* \"#utility.yul\":7837:8150   */\n      swap3\n      swap2\n      pop\n      pop\n      jump\t// out\n        /* \"#utility.yul\":8156:8575   */\n    tag_58:\n        /* \"#utility.yul\":8322:8326   */\n      0x00\n        /* \"#utility.yul\":8360:8362   */\n      0x20\n        /* \"#utility.yul\":8349:8358   */\n      dup3\n        /* \"#utility.yul\":8345:8363   */\n      add\n        /* \"#utility.yul\":8337:8363   */\n      swap1\n      pop\n        /* \"#utility.yul\":8409:8418   */\n      dup2\n        /* \"#utility.yul\":8403:8407   */\n      dup2\n        /* \"#utility.yul\":8399:8419   */\n      sub\n        /* \"#utility.yul\":8395:8396   */\n      0x00\n        /* \"#utility.yul\":8384:8393   */\n      dup4\n        /* \"#utility.yul\":8380:8397   */\n      add\n        /* \"#utility.yul\":8373:8420   */\n      mstore\n        /* \"#utility.yul\":8437:8568   */\n      tag_235\n        /* \"#utility.yul\":8563:8567   */\n      dup2\n        /* \"#utility.yul\":8437:8568   */\n      tag_202\n      jump\t// in\n    tag_235:\n        /* \"#utility.yul\":8429:8568   */\n      swap1\n      pop\n        /* \"#utility.yul\":8156:8575   */\n      swap2\n      swap1\n      pop\n      jump\t// out\n        /* \"#utility.yul\":8581:9000   */\n    tag_82:\n        /* \"#utility.yul\":8747:8751   */\n      0x00\n        /* \"#utility.yul\":8785:8787   */\n      0x20\n        /* \"#utility.yul\":8774:8783   */\n      dup3\n        /* \"#utility.yul\":8770:8788   */\n      add\n        /* \"#utility.yul\":8762:8788   */\n      swap1\n      pop\n        /* \"#utility.yul\":8834:8843   */\n      dup2\n        /* \"#utility.yul\":8828:8832   */\n      dup2\n        /* \"#utility.yul\":8824:8844   */\n      sub\n        /* \"#utility.yul\":8820:8821   */\n      0x00\n        /* \"#utility.yul\":8809:8818   */\n      dup4\n        /* \"#utility.yul\":8805:8822   */\n      add\n        /* \"#utility.yul\":8798:8845   */\n      mstore\n        /* \"#utility.yul\":8862:8993   */\n      tag_237\n        /* \"#utility.yul\":8988:8992   */\n      dup2\n        /* \"#utility.yul\":8862:8993   */\n      tag_207\n      jump\t// in\n    tag_237:\n        /* \"#utility.yul\":8854:8993   */\n      swap1\n      pop\n        /* \"#utility.yul\":8581:9000   */\n      swap2\n      swap1\n      pop\n      jump\t// out\n        /* \"#utility.yul\":9006:9425   */\n    tag_86:\n        /* \"#utility.yul\":9172:9176   */\n      0x00\n        /* \"#utility.yul\":9210:9212   */\n      0x20\n        /* \"#utility.yul\":9199:9208   */\n      dup3\n        /* \"#utility.yul\":9195:9213   */\n      add\n        /* \"#utility.yul\":9187:9213   */\n      swap1\n      pop\n        /* \"#utility.yul\":9259:9268   */\n      dup2\n        /* \"#utility.yul\":9253:9257   */\n      dup2\n        /* \"#utility.yul\":9249:9269   */\n      sub\n        /* \"#utility.yul\":9245:9246   */\n      0x00\n        /* \"#utility.yul\":9234:9243   */\n      dup4\n        /* \"#utility.yul\":9230:9247   */\n      add\n        /* \"#utility.yul\":9223:9270   */\n      mstore\n        /* \"#utility.yul\":9287:9418   */\n      tag_239\n        /* \"#utility.yul\":9413:9417   */\n      dup2\n        /* \"#utility.yul\":9287:9418   */\n      tag_212\n      jump\t// in\n    tag_239:\n        /* \"#utility.yul\":9279:9418   */\n      swap1\n      pop\n        /* \"#utility.yul\":9006:9425   */\n      swap2\n      swap1\n      pop\n      jump\t// out\n        /* \"#utility.yul\":9431:9850   */\n    tag_65:\n        /* \"#utility.yul\":9597:9601   */\n      0x00\n        /* \"#utility.yul\":9635:9637   */\n      0x20\n        /* \"#utility.yul\":9624:9633   */\n      dup3\n        /* \"#utility.yul\":9620:9638   */\n      add\n        /* \"#utility.yul\":9612:9638   */\n      swap1\n      pop\n        /* \"#utility.yul\":9684:9693   */\n      dup2\n        /* \"#utility.yul\":9678:9682   */\n      dup2\n        /* \"#utility.yul\":9674:9694   */\n      sub\n        /* \"#utility.yul\":9670:9671   */\n      0x00\n        /* \"#utility.yul\":9659:9668   */\n      dup4\n        /* \"#utility.yul\":9655:9672   */\n      add\n        /* \"#utility.yul\":9648:9695   */\n      mstore\n        /* \"#utility.yul\":9712:9843   */\n      tag_241\n        /* \"#utility.yul\":9838:9842   */\n      dup2\n        /* \"#utility.yul\":9712:9843   */\n      tag_217\n      jump\t// in\n    tag_241:\n        /* \"#utility.yul\":9704:9843   */\n      swap1\n      pop\n        /* \"#utility.yul\":9431:9850   */\n      swap2\n      swap1\n      pop\n      jump\t// out\n        /* \"#utility.yul\":9856:10188   */\n    tag_38:\n        /* \"#utility.yul\":9977:9981   */\n      0x00\n        /* \"#utility.yul\":10015:10017   */\n      0x40\n        /* \"#utility.yul\":10004:10013   */\n      dup3\n        /* \"#utility.yul\":10000:10018   */\n      add\n        /* \"#utility.yul\":9992:10018   */\n      swap1\n      pop\n        /* \"#utility.yul\":10028:10099   */\n      tag_243\n        /* \"#utility.yul\":10096:10097   */\n      0x00\n        /* \"#utility.yul\":10085:10094   */\n      dup4\n        /* \"#utility.yul\":10081:10098   */\n      add\n        /* \"#utility.yul\":10072:10078   */\n      dup6\n        /* \"#utility.yul\":10028:10099   */\n      tag_222\n      jump\t// in\n    tag_243:\n        /* \"#utility.yul\":10109:10181   */\n      tag_244\n        /* \"#utility.yul\":10177:10179   */\n      0x20\n        /* \"#utility.yul\":10166:10175   */\n      dup4\n        /* \"#utility.yul\":10162:10180   */\n      add\n        /* \"#utility.yul\":10153:10159   */\n      dup5\n        /* \"#utility.yul\":10109:10181   */\n      tag_222\n      jump\t// in\n    tag_244:\n        /* \"#utility.yul\":9856:10188   */\n      swap4\n      swap3\n      pop\n      pop\n      pop\n      jump\t// out\n        /* \"#utility.yul\":10194:10747   */\n    tag_42:\n        /* \"#utility.yul\":10371:10375   */\n      0x00\n        /* \"#utility.yul\":10409:10412   */\n      0x80\n        /* \"#utility.yul\":10398:10407   */\n      dup3\n        /* \"#utility.yul\":10394:10413   */\n      add\n        /* \"#utility.yul\":10386:10413   */\n      swap1\n      pop\n        /* \"#utility.yul\":10423:10494   */\n      tag_246\n        /* \"#utility.yul\":10491:10492   */\n      0x00\n        /* \"#utility.yul\":10480:10489   */\n      dup4\n        /* \"#utility.yul\":10476:10493   */\n      add\n        /* \"#utility.yul\":10467:10473   */\n      dup8\n        /* \"#utility.yul\":10423:10494   */\n      tag_222\n      jump\t// in\n    tag_246:\n        /* \"#utility.yul\":10504:10576   */\n      tag_247\n        /* \"#utility.yul\":10572:10574   */\n      0x20\n        /* \"#utility.yul\":10561:10570   */\n      dup4\n        /* \"#utility.yul\":10557:10575   */\n      add\n        /* \"#utility.yul\":10548:10554   */\n      dup7\n        /* \"#utility.yul\":10504:10576   */\n      tag_222\n      jump\t// in\n    tag_247:\n        /* \"#utility.yul\":10586:10658   */\n      tag_248\n        /* \"#utility.yul\":10654:10656   */\n      0x40\n        /* \"#utility.yul\":10643:10652   */\n      dup4\n        /* \"#utility.yul\":10639:10657   */\n      add\n        /* \"#utility.yul\":10630:10636   */\n      dup6\n        /* \"#utility.yul\":10586:10658   */\n      tag_222\n      jump\t// in\n    tag_248:\n        /* \"#utility.yul\":10668:10740   */\n      tag_249\n        /* \"#utility.yul\":10736:10738   */\n      0x60\n        /* \"#utility.yul\":10725:10734   */\n      dup4\n        /* \"#utility.yul\":10721:10739   */\n      add\n        /* \"#utility.yul\":10712:10718   */\n      dup5\n        /* \"#utility.yul\":10668:10740   */\n      tag_222\n      jump\t// in\n    tag_249:\n        /* \"#utility.yul\":10194:10747   */\n      swap6\n      swap5\n      pop\n      pop\n      pop\n      pop\n      pop\n      jump\t// out\n        /* \"#utility.yul\":10753:11077   */\n    tag_21:\n        /* \"#utility.yul\":10870:10874   */\n      0x00\n        /* \"#utility.yul\":10908:10910   */\n      0x40\n        /* \"#utility.yul\":10897:10906   */\n      dup3\n        /* \"#utility.yul\":10893:10911   */\n      add\n        /* \"#utility.yul\":10885:10911   */\n      swap1\n      pop\n        /* \"#utility.yul\":10921:10990   */\n      tag_251\n        /* \"#utility.yul\":10987:10988   */\n      0x00\n        /* \"#utility.yul\":10976:10985   */\n      dup4\n        /* \"#utility.yul\":10972:10989   */\n      add\n        /* \"#utility.yul\":10963:10969   */\n      dup6\n        /* \"#utility.yul\":10921:10990   */\n      tag_226\n      jump\t// in\n    tag_251:\n        /* \"#utility.yul\":11000:11070   */\n      tag_252\n        /* \"#utility.yul\":11066:11068   */\n      0x20\n        /* \"#utility.yul\":11055:11064   */\n      dup4\n        /* \"#utility.yul\":11051:11069   */\n      add\n        /* \"#utility.yul\":11042:11048   */\n      dup5\n        /* \"#utility.yul\":11000:11070   */\n      tag_226\n      jump\t// in\n    tag_252:\n        /* \"#utility.yul\":10753:11077   */\n      swap4\n      swap3\n      pop\n      pop\n      pop\n      jump\t// out\n        /* \"#utility.yul\":11083:11212   */\n    tag_108:\n        /* \"#utility.yul\":11117:11123   */\n      0x00\n        /* \"#utility.yul\":11144:11164   */\n      tag_254\n      tag_255\n      jump\t// in\n    tag_254:\n        /* \"#utility.yul\":11134:11164   */\n      swap1\n      pop\n        /* \"#utility.yul\":11173:11206   */\n      tag_256\n        /* \"#utility.yul\":11201:11205   */\n      dup3\n        /* \"#utility.yul\":11193:11199   */\n      dup3\n        /* \"#utility.yul\":11173:11206   */\n      tag_257\n      jump\t// in\n    tag_256:\n        /* \"#utility.yul\":11083:11212   */\n      swap2\n      swap1\n      pop\n      jump\t// out\n        /* \"#utility.yul\":11218:11293   */\n    tag_255:\n        /* \"#utility.yul\":11251:11257   */\n      0x00\n        /* \"#utility.yul\":11284:11286   */\n      0x40\n        /* \"#utility.yul\":11278:11287   */\n      mload\n        /* \"#utility.yul\":11268:11287   */\n      swap1\n      pop\n        /* \"#utility.yul\":11218:11293   */\n      swap1\n      jump\t// out\n        /* \"#utility.yul\":11299:11607   */\n    tag_107:\n        /* \"#utility.yul\":11373:11377   */\n      0x00\n        /* \"#utility.yul\":11463:11481   */\n      0xffffffffffffffff\n        /* \"#utility.yul\":11455:11461   */\n      dup3\n        /* \"#utility.yul\":11452:11482   */\n      gt\n        /* \"#utility.yul\":11449:11505   */\n      iszero\n      tag_260\n      jumpi\n        /* \"#utility.yul\":11485:11503   */\n      tag_261\n      tag_262\n      jump\t// in\n    tag_261:\n        /* \"#utility.yul\":11449:11505   */\n    tag_260:\n        /* \"#utility.yul\":11535:11539   */\n      0x20\n        /* \"#utility.yul\":11527:11533   */\n      dup3\n        /* \"#utility.yul\":11523:11540   */\n      mul\n        /* \"#utility.yul\":11515:11540   */\n      swap1\n      pop\n        /* \"#utility.yul\":11595:11599   */\n      0x20\n        /* \"#utility.yul\":11589:11593   */\n      dup2\n        /* \"#utility.yul\":11585:11600   */\n      add\n        /* \"#utility.yul\":11577:11600   */\n      swap1\n      pop\n        /* \"#utility.yul\":11299:11607   */\n      swap2\n      swap1\n      pop\n      jump\t// out\n        /* \"#utility.yul\":11613:11934   */\n    tag_121:\n        /* \"#utility.yul\":11700:11704   */\n      0x00\n        /* \"#utility.yul\":11790:11808   */\n      0xffffffffffffffff\n        /* \"#utility.yul\":11782:11788   */\n      dup3\n        /* \"#utility.yul\":11779:11809   */\n      gt\n        /* \"#utility.yul\":11776:11832   */\n      iszero\n      tag_264\n      jumpi\n        /* \"#utility.yul\":11812:11830   */\n      tag_265\n      tag_262\n      jump\t// in\n    tag_265:\n        /* \"#utility.yul\":11776:11832   */\n    tag_264:\n        /* \"#utility.yul\":11862:11866   */\n      0x20\n        /* \"#utility.yul\":11854:11860   */\n      dup3\n        /* \"#utility.yul\":11850:11867   */\n      mul\n        /* \"#utility.yul\":11842:11867   */\n      swap1\n      pop\n        /* \"#utility.yul\":11922:11926   */\n      0x20\n        /* \"#utility.yul\":11916:11920   */\n      dup2\n        /* \"#utility.yul\":11912:11927   */\n      add\n        /* \"#utility.yul\":11904:11927   */\n      swap1\n      pop\n        /* \"#utility.yul\":11613:11934   */\n      swap2\n      swap1\n      pop\n      jump\t// out\n        /* \"#utility.yul\":11940:12248   */\n    tag_136:\n        /* \"#utility.yul\":12002:12006   */\n      0x00\n        /* \"#utility.yul\":12092:12110   */\n      0xffffffffffffffff\n        /* \"#utility.yul\":12084:12090   */\n      dup3\n        /* \"#utility.yul\":12081:12111   */\n      gt\n        /* \"#utility.yul\":12078:12134   */\n      iszero\n      tag_267\n      jumpi\n        /* \"#utility.yul\":12114:12132   */\n      tag_268\n      tag_262\n      jump\t// in\n    tag_268:\n        /* \"#utility.yul\":12078:12134   */\n    tag_267:\n        /* \"#utility.yul\":12152:12181   */\n      tag_269\n        /* \"#utility.yul\":12174:12180   */\n      dup3\n        /* \"#utility.yul\":12152:12181   */\n      tag_201\n      jump\t// in\n    tag_269:\n        /* \"#utility.yul\":12144:12181   */\n      swap1\n      pop\n        /* \"#utility.yul\":12236:12240   */\n      0x20\n        /* \"#utility.yul\":12230:12234   */\n      dup2\n        /* \"#utility.yul\":12226:12241   */\n      add\n        /* \"#utility.yul\":12218:12241   */\n      swap1\n      pop\n        /* \"#utility.yul\":11940:12248   */\n      swap2\n      swap1\n      pop\n      jump\t// out\n        /* \"#utility.yul\":12254:12353   */\n    tag_195:\n        /* \"#utility.yul\":12306:12312   */\n      0x00\n        /* \"#utility.yul\":12340:12345   */\n      dup2\n        /* \"#utility.yul\":12334:12346   */\n      mload\n        /* \"#utility.yul\":12324:12346   */\n      swap1\n      pop\n        /* \"#utility.yul\":12254:12353   */\n      swap2\n      swap1\n      pop\n      jump\t// out\n        /* \"#utility.yul\":12359:12528   */\n    tag_197:\n        /* \"#utility.yul\":12443:12454   */\n      0x00\n        /* \"#utility.yul\":12477:12483   */\n      dup3\n        /* \"#utility.yul\":12472:12475   */\n      dup3\n        /* \"#utility.yul\":12465:12484   */\n      mstore\n        /* \"#utility.yul\":12517:12521   */\n      0x20\n        /* \"#utility.yul\":12512:12515   */\n      dup3\n        /* \"#utility.yul\":12508:12522   */\n      add\n        /* \"#utility.yul\":12493:12522   */\n      swap1\n      pop\n        /* \"#utility.yul\":12359:12528   */\n      swap3\n      swap2\n      pop\n      pop\n      jump\t// out\n        /* \"#utility.yul\":12534:12839   */\n    tag_63:\n        /* \"#utility.yul\":12574:12577   */\n      0x00\n        /* \"#utility.yul\":12593:12613   */\n      tag_273\n        /* \"#utility.yul\":12611:12612   */\n      dup3\n        /* \"#utility.yul\":12593:12613   */\n      tag_225\n      jump\t// in\n    tag_273:\n        /* \"#utility.yul\":12588:12613   */\n      swap2\n      pop\n        /* \"#utility.yul\":12627:12647   */\n      tag_274\n        /* \"#utility.yul\":12645:12646   */\n      dup4\n        /* \"#utility.yul\":12627:12647   */\n      tag_225\n      jump\t// in\n    tag_274:\n        /* \"#utility.yul\":12622:12647   */\n      swap3\n      pop\n        /* \"#utility.yul\":12781:12782   */\n      dup3\n        /* \"#utility.yul\":12713:12779   */\n      0xffffffffffffffffffffffffffffffffffffffffffffffffffffffffffffffff\n        /* \"#utility.yul\":12709:12783   */\n      sub\n        /* \"#utility.yul\":12706:12707   */\n      dup3\n        /* \"#utility.yul\":12703:12784   */\n      gt\n        /* \"#utility.yul\":12700:12807   */\n      iszero\n      tag_275\n      jumpi\n        /* \"#utility.yul\":12787:12805   */\n      tag_276\n      tag_277\n      jump\t// in\n    tag_276:\n        /* \"#utility.yul\":12700:12807   */\n    tag_275:\n        /* \"#utility.yul\":12831:12832   */\n      dup3\n        /* \"#utility.yul\":12828:12829   */\n      dup3\n        /* \"#utility.yul\":12824:12833   */\n      add\n        /* \"#utility.yul\":12817:12833   */\n      swap1\n      pop\n        /* \"#utility.yul\":12534:12839   */\n      swap3\n      swap2\n      pop\n      pop\n      jump\t// out\n        /* \"#utility.yul\":12845:13091   */\n    tag_101:\n        /* \"#utility.yul\":12884:12887   */\n      0x00\n        /* \"#utility.yul\":12903:12922   */\n      tag_279\n        /* \"#utility.yul\":12920:12921   */\n      dup3\n        /* \"#utility.yul\":12903:12922   */\n      tag_229\n      jump\t// in\n    tag_279:\n        /* \"#utility.yul\":12898:12922   */\n      swap2\n      pop\n        /* \"#utility.yul\":12936:12955   */\n      tag_280\n        /* \"#utility.yul\":12953:12954   */\n      dup4\n        /* \"#utility.yul\":12936:12955   */\n      tag_229\n      jump\t// in\n    tag_280:\n        /* \"#utility.yul\":12931:12955   */\n      swap3\n      pop\n        /* \"#utility.yul\":13033:13034   */\n      dup3\n        /* \"#utility.yul\":13021:13031   */\n      0xffffffff\n        /* \"#utility.yul\":13017:13035   */\n      sub\n        /* \"#utility.yul\":13014:13015   */\n      dup3\n        /* \"#utility.yul\":13011:13036   */\n      gt\n        /* \"#utility.yul\":13008:13059   */\n      iszero\n      tag_281\n      jumpi\n        /* \"#utility.yul\":13039:13057   */\n      tag_282\n      tag_277\n      jump\t// in\n    tag_282:\n        /* \"#utility.yul\":13008:13059   */\n    tag_281:\n        /* \"#utility.yul\":13083:13084   */\n      dup3\n        /* \"#utility.yul\":13080:13081   */\n      dup3\n        /* \"#utility.yul\":13076:13085   */\n      add\n        /* \"#utility.yul\":13069:13085   */\n      swap1\n      pop\n        /* \"#utility.yul\":12845:13091   */\n      swap3\n      swap2\n      pop\n      pop\n      jump\t// out\n        /* \"#utility.yul\":13097:13193   */\n    tag_283:\n        /* \"#utility.yul\":13134:13141   */\n      0x00\n        /* \"#utility.yul\":13163:13187   */\n      tag_285\n        /* \"#utility.yul\":13181:13186   */\n      dup3\n        /* \"#utility.yul\":13163:13187   */\n      tag_286\n      jump\t// in\n    tag_285:\n        /* \"#utility.yul\":13152:13187   */\n      swap1\n      pop\n        /* \"#utility.yul\":13097:13193   */\n      swap2\n      swap1\n      pop\n      jump\t// out\n        /* \"#utility.yul\":13199:13289   */\n    tag_191:\n        /* \"#utility.yul\":13233:13240   */\n      0x00\n        /* \"#utility.yul\":13276:13281   */\n      dup2\n        /* \"#utility.yul\":13269:13282   */\n      iszero\n        /* \"#utility.yul\":13262:13283   */\n      iszero\n        /* \"#utility.yul\":13251:13283   */\n      swap1\n      pop\n        /* \"#utility.yul\":13199:13289   */\n      swap2\n      swap1\n      pop\n      jump\t// out\n        /* \"#utility.yul\":13295:13421   */\n    tag_286:\n        /* \"#utility.yul\":13332:13339   */\n      0x00\n        /* \"#utility.yul\":13372:13414   */\n      0xffffffffffffffffffffffffffffffffffffffff\n        /* \"#utility.yul\":13365:13370   */\n      dup3\n        /* \"#utility.yul\":13361:13415   */\n      and\n        /* \"#utility.yul\":13350:13415   */\n      swap1\n      pop\n        /* \"#utility.yul\":13295:13421   */\n      swap2\n      swap1\n      pop\n      jump\t// out\n        /* \"#utility.yul\":13427:13504   */\n    tag_225:\n        /* \"#utility.yul\":13464:13471   */\n      0x00\n        /* \"#utility.yul\":13493:13498   */\n      dup2\n        /* \"#utility.yul\":13482:13498   */\n      swap1\n      pop\n        /* \"#utility.yul\":13427:13504   */\n      swap2\n      swap1\n      pop\n      jump\t// out\n        /* \"#utility.yul\":13510:13603   */\n    tag_229:\n        /* \"#utility.yul\":13546:13553   */\n      0x00\n        /* \"#utility.yul\":13586:13596   */\n      0xffffffff\n        /* \"#utility.yul\":13579:13584   */\n      dup3\n        /* \"#utility.yul\":13575:13597   */\n      and\n        /* \"#utility.yul\":13564:13597   */\n      swap1\n      pop\n        /* \"#utility.yul\":13510:13603   */\n      swap2\n      swap1\n      pop\n      jump\t// out\n        /* \"#utility.yul\":13609:13763   */\n    tag_141:\n        /* \"#utility.yul\":13693:13699   */\n      dup3\n        /* \"#utility.yul\":13688:13691   */\n      dup2\n        /* \"#utility.yul\":13683:13686   */\n      dup4\n        /* \"#utility.yul\":13670:13700   */\n      calldatacopy\n        /* \"#utility.yul\":13755:13756   */\n      0x00\n        /* \"#utility.yul\":13746:13752   */\n      dup4\n        /* \"#utility.yul\":13741:13744   */\n      dup4\n        /* \"#utility.yul\":13737:13753   */\n      add\n        /* \"#utility.yul\":13730:13757   */\n      mstore\n        /* \"#utility.yul\":13609:13763   */\n      pop\n      pop\n      pop\n      jump\t// out\n        /* \"#utility.yul\":13769:14076   */\n    tag_199:\n        /* \"#utility.yul\":13837:13838   */\n      0x00\n        /* \"#utility.yul\":13847:13960   */\n    tag_293:\n        /* \"#utility.yul\":13861:13867   */\n      dup4\n        /* \"#utility.yul\":13858:13859   */\n      dup2\n        /* \"#utility.yul\":13855:13868   */\n      lt\n        /* \"#utility.yul\":13847:13960   */\n      iszero\n      tag_295\n      jumpi\n        /* \"#utility.yul\":13946:13947   */\n      dup1\n        /* \"#utility.yul\":13941:13944   */\n      dup3\n        /* \"#utility.yul\":13937:13948   */\n      add\n        /* \"#utility.yul\":13931:13949   */\n      mload\n        /* \"#utility.yul\":13927:13928   */\n      dup2\n        /* \"#utility.yul\":13922:13925   */\n      dup5\n        /* \"#utility.yul\":13918:13929   */\n      add\n        /* \"#utility.yul\":13911:13950   */\n      mstore\n        /* \"#utility.yul\":13883:13885   */\n      0x20\n        /* \"#utility.yul\":13880:13881   */\n      dup2\n        /* \"#utility.yul\":13876:13886   */\n      add\n        /* \"#utility.yul\":13871:13886   */\n      swap1\n      pop\n        /* \"#utility.yul\":13847:13960   */\n      jump(tag_293)\n    tag_295:\n        /* \"#utility.yul\":13978:13984   */\n      dup4\n        /* \"#utility.yul\":13975:13976   */\n      dup2\n        /* \"#utility.yul\":13972:13985   */\n      gt\n        /* \"#utility.yul\":13969:14070   */\n      iszero\n      tag_296\n      jumpi\n        /* \"#utility.yul\":14058:14059   */\n      0x00\n        /* \"#utility.yul\":14049:14055   */\n      dup5\n        /* \"#utility.yul\":14044:14047   */\n      dup5\n        /* \"#utility.yul\":14040:14056   */\n      add\n        /* \"#utility.yul\":14033:14060   */\n      mstore\n        /* \"#utility.yul\":13969:14070   */\n    tag_296:\n        /* \"#utility.yul\":13818:14076   */\n      pop\n        /* \"#utility.yul\":13769:14076   */\n      pop\n      pop\n      pop\n      jump\t// out\n        /* \"#utility.yul\":14082:14402   */\n    tag_50:\n        /* \"#utility.yul\":14126:14132   */\n      0x00\n        /* \"#utility.yul\":14163:14164   */\n      0x02\n        /* \"#utility.yul\":14157:14161   */\n      dup3\n        /* \"#utility.yul\":14153:14165   */\n      div\n        /* \"#utility.yul\":14143:14165   */\n      swap1\n      pop\n        /* \"#utility.yul\":14210:14211   */\n      0x01\n        /* \"#utility.yul\":14204:14208   */\n      dup3\n        /* \"#utility.yul\":14200:14212   */\n      and\n        /* \"#utility.yul\":14231:14249   */\n      dup1\n        /* \"#utility.yul\":14221:14302   */\n      tag_298\n      jumpi\n        /* \"#utility.yul\":14287:14291   */\n      0x7f\n        /* \"#utility.yul\":14279:14285   */\n      dup3\n        /* \"#utility.yul\":14275:14292   */\n      and\n        /* \"#utility.yul\":14265:14292   */\n      swap2\n      pop\n        /* \"#utility.yul\":14221:14302   */\n    tag_298:\n        /* \"#utility.yul\":14349:14351   */\n      0x20\n        /* \"#utility.yul\":14341:14347   */\n      dup3\n        /* \"#utility.yul\":14338:14352   */\n      lt\n        /* \"#utility.yul\":14318:14336   */\n      dup2\n        /* \"#utility.yul\":14315:14353   */\n      eq\n        /* \"#utility.yul\":14312:14396   */\n      iszero\n      tag_299\n      jumpi\n        /* \"#utility.yul\":14368:14386   */\n      tag_300\n      tag_301\n      jump\t// in\n    tag_300:\n        /* \"#utility.yul\":14312:14396   */\n    tag_299:\n        /* \"#utility.yul\":14133:14402   */\n      pop\n        /* \"#utility.yul\":14082:14402   */\n      swap2\n      swap1\n      pop\n      jump\t// out\n        /* \"#utility.yul\":14408:14689   */\n    tag_257:\n        /* \"#utility.yul\":14491:14518   */\n      tag_303\n        /* \"#utility.yul\":14513:14517   */\n      dup3\n        /* \"#utility.yul\":14491:14518   */\n      tag_201\n      jump\t// in\n    tag_303:\n        /* \"#utility.yul\":14483:14489   */\n      dup2\n        /* \"#utility.yul\":14479:14519   */\n      add\n        /* \"#utility.yul\":14621:14627   */\n      dup2\n        /* \"#utility.yul\":14609:14619   */\n      dup2\n        /* \"#utility.yul\":14606:14628   */\n      lt\n        /* \"#utility.yul\":14585:14603   */\n      0xffffffffffffffff\n        /* \"#utility.yul\":14573:14583   */\n      dup3\n        /* \"#utility.yul\":14570:14604   */\n      gt\n        /* \"#utility.yul\":14567:14629   */\n      or\n        /* \"#utility.yul\":14564:14652   */\n      iszero\n      tag_304\n      jumpi\n        /* \"#utility.yul\":14632:14650   */\n      tag_305\n      tag_262\n      jump\t// in\n    tag_305:\n        /* \"#utility.yul\":14564:14652   */\n    tag_304:\n        /* \"#utility.yul\":14672:14682   */\n      dup1\n        /* \"#utility.yul\":14668:14670   */\n      0x40\n        /* \"#utility.yul\":14661:14683   */\n      mstore\n        /* \"#utility.yul\":14451:14689   */\n      pop\n        /* \"#utility.yul\":14408:14689   */\n      pop\n      pop\n      jump\t// out\n        /* \"#utility.yul\":14695:14875   */\n    tag_277:\n        /* \"#utility.yul\":14743:14820   */\n      0x4e487b7100000000000000000000000000000000000000000000000000000000\n        /* \"#utility.yul\":14740:14741   */\n      0x00\n        /* \"#utility.yul\":14733:14821   */\n      mstore\n        /* \"#utility.yul\":14840:14844   */\n      0x11\n        /* \"#utility.yul\":14837:14838   */\n      0x04\n        /* \"#utility.yul\":14830:14845   */\n      mstore\n        /* \"#utility.yul\":14864:14868   */\n      0x24\n        /* \"#utility.yul\":14861:14862   */\n      0x00\n        /* \"#utility.yul\":14854:14869   */\n      revert\n        /* \"#utility.yul\":14881:15061   */\n    tag_301:\n        /* \"#utility.yul\":14929:15006   */\n      0x4e487b7100000000000000000000000000000000000000000000000000000000\n        /* \"#utility.yul\":14926:14927   */\n      0x00\n        /* \"#utility.yul\":14919:15007   */\n      mstore\n        /* \"#utility.yul\":15026:15030   */\n      0x22\n        /* \"#utility.yul\":15023:15024   */\n      0x04\n        /* \"#utility.yul\":15016:15031   */\n      mstore\n        /* \"#utility.yul\":15050:15054   */\n      0x24\n        /* \"#utility.yul\":15047:15048   */\n      0x00\n        /* \"#utility.yul\":15040:15055   */\n      revert\n        /* \"#utility.yul\":15067:15247   */\n    tag_262:\n        /* \"#utility.yul\":15115:15192   */\n      0x4e487b7100000000000000000000000000000000000000000000000000000000\n        /* \"#utility.yul\":15112:15113   */\n      0x00\n        /* \"#utility.yul\":15105:15193   */\n      mstore\n        /* \"#utility.yul\":15212:15216   */\n      0x41\n        /* \"#utility.yul\":15209:15210   */\n      0x04\n        /* \"#utility.yul\":15202:15217   */\n      mstore\n        /* \"#utility.yul\":15236:15240   */\n      0x24\n        /* \"#utility.yul\":15233:15234   */\n      0x00\n        /* \"#utility.yul\":15226:15241   */\n      revert\n        /* \"#utility.yul\":15253:15370   */\n    tag_129:\n        /* \"#utility.yul\":15362:15363   */\n      0x00\n        /* \"#utility.yul\":15359:15360   */\n      dup1\n        /* \"#utility.yul\":15352:15364   */\n      revert\n        /* \"#utility.yul\":15376:15493   */\n    tag_111:\n        /* \"#utility.yul\":15485:15486   */\n      0x00\n        /* \"#utility.yul\":15482:15483   */\n      dup1\n        /* \"#utility.yul\":15475:15487   */\n      revert\n        /* \"#utility.yul\":15499:15616   */\n    tag_139:\n        /* \"#utility.yul\":15608:15609   */\n      0x00\n        /* \"#utility.yul\":15605:15606   */\n      dup1\n        /* \"#utility.yul\":15598:15610   */\n      revert\n        /* \"#utility.yul\":15622:15739   */\n    tag_182:\n        /* \"#utility.yul\":15731:15732   */\n      0x00\n        /* \"#utility.yul\":15728:15729   */\n      dup1\n        /* \"#utility.yul\":15721:15733   */\n      revert\n        /* \"#utility.yul\":15745:15862   */\n    tag_174:\n        /* \"#utility.yul\":15854:15855   */\n      0x00\n        /* \"#utility.yul\":15851:15852   */\n      dup1\n        /* \"#utility.yul\":15844:15856   */\n      revert\n        /* \"#utility.yul\":15868:15970   */\n    tag_201:\n        /* \"#utility.yul\":15909:15915   */\n      0x00\n        /* \"#utility.yul\":15960:15962   */\n      0x1f\n        /* \"#utility.yul\":15956:15963   */\n      not\n        /* \"#utility.yul\":15951:15953   */\n      0x1f\n        /* \"#utility.yul\":15944:15949   */\n      dup4\n        /* \"#utility.yul\":15940:15954   */\n      add\n        /* \"#utility.yul\":15936:15964   */\n      and\n        /* \"#utility.yul\":15926:15964   */\n      swap1\n      pop\n        /* \"#utility.yul\":15868:15970   */\n      swap2\n      swap1\n      pop\n      jump\t// out\n        /* \"#utility.yul\":15976:16212   */\n    tag_206:\n        /* \"#utility.yul\":16116:16150   */\n      0x596f752068617665206e6f207065726d697373696f6e20746f20706572666f72\n        /* \"#utility.yul\":16112:16113   */\n      0x00\n        /* \"#utility.yul\":16104:16110   */\n      dup3\n        /* \"#utility.yul\":16100:16114   */\n      add\n        /* \"#utility.yul\":16093:16151   */\n      mstore\n        /* \"#utility.yul\":16185:16204   */\n      0x6d2074686973206f7065726174696f6e2e000000000000000000000000000000\n        /* \"#utility.yul\":16180:16182   */\n      0x20\n        /* \"#utility.yul\":16172:16178   */\n      dup3\n        /* \"#utility.yul\":16168:16183   */\n      add\n        /* \"#utility.yul\":16161:16205   */\n      mstore\n        /* \"#utility.yul\":15976:16212   */\n      pop\n      jump\t// out\n        /* \"#utility.yul\":16218:16448   */\n    tag_211:\n        /* \"#utility.yul\":16358:16392   */\n      0x5375636365737320657865637574696f6e20696e207265717565737444656c69\n        /* \"#utility.yul\":16354:16355   */\n      0x00\n        /* \"#utility.yul\":16346:16352   */\n      dup3\n        /* \"#utility.yul\":16342:16356   */\n      add\n        /* \"#utility.yul\":16335:16393   */\n      mstore\n        /* \"#utility.yul\":16427:16440   */\n      0x7665727920636c61757365000000000000000000000000000000000000000000\n        /* \"#utility.yul\":16422:16424   */\n      0x20\n        /* \"#utility.yul\":16414:16420   */\n      dup3\n        /* \"#utility.yul\":16410:16425   */\n      add\n        /* \"#utility.yul\":16403:16441   */\n      mstore\n        /* \"#utility.yul\":16218:16448   */\n      pop\n      jump\t// out\n        /* \"#utility.yul\":16454:16758   */\n    tag_216:\n        /* \"#utility.yul\":16594:16628   */\n      0x52657175657374206f7065726174696f6e20706572666f726d6564206f757473\n        /* \"#utility.yul\":16590:16591   */\n      0x00\n        /* \"#utility.yul\":16582:16588   */\n      dup3\n        /* \"#utility.yul\":16578:16592   */\n      add\n        /* \"#utility.yul\":16571:16629   */\n      mstore\n        /* \"#utility.yul\":16663:16697   */\n      0x696465206f6620616c6c6f77656420686f757273206f72206c696d6974206f70\n        /* \"#utility.yul\":16658:16660   */\n      0x20\n        /* \"#utility.yul\":16650:16656   */\n      dup3\n        /* \"#utility.yul\":16646:16661   */\n      add\n        /* \"#utility.yul\":16639:16698   */\n      mstore\n        /* \"#utility.yul\":16732:16750   */\n      0x65726174696f6e20657863656564656400000000000000000000000000000000\n        /* \"#utility.yul\":16727:16729   */\n      0x40\n        /* \"#utility.yul\":16719:16725   */\n      dup3\n        /* \"#utility.yul\":16715:16730   */\n      add\n        /* \"#utility.yul\":16708:16751   */\n      mstore\n        /* \"#utility.yul\":16454:16758   */\n      pop\n      jump\t// out\n        /* \"#utility.yul\":16764:17001   */\n    tag_221:\n        /* \"#utility.yul\":16904:16938   */\n      0x457863656564656420726573706f6e73652074696d65206f72206d6573736167\n        /* \"#utility.yul\":16900:16901   */\n      0x00\n        /* \"#utility.yul\":16892:16898   */\n      dup3\n        /* \"#utility.yul\":16888:16902   */\n      add\n        /* \"#utility.yul\":16881:16939   */\n      mstore\n        /* \"#utility.yul\":16973:16993   */\n      0x6520636f6e74656e74206d69736d617463680000000000000000000000000000\n        /* \"#utility.yul\":16968:16970   */\n      0x20\n        /* \"#utility.yul\":16960:16966   */\n      dup3\n        /* \"#utility.yul\":16956:16971   */\n      add\n        /* \"#utility.yul\":16949:16994   */\n      mstore\n        /* \"#utility.yul\":16764:17001   */\n      pop\n      jump\t// out\n        /* \"#utility.yul\":17007:17129   */\n    tag_145:\n        /* \"#utility.yul\":17080:17104   */\n      tag_320\n        /* \"#utility.yul\":17098:17103   */\n      dup2\n        /* \"#utility.yul\":17080:17104   */\n      tag_283\n      jump\t// in\n    tag_320:\n        /* \"#utility.yul\":17073:17078   */\n      dup2\n        /* \"#utility.yul\":17070:17105   */\n      eq\n        /* \"#utility.yul\":17060:17123   */\n      tag_321\n      jumpi\n        /* \"#utility.yul\":17119:17120   */\n      0x00\n        /* \"#utility.yul\":17116:17117   */\n      dup1\n        /* \"#utility.yul\":17109:17121   */\n      revert\n        /* \"#utility.yul\":17060:17123   */\n    tag_321:\n        /* \"#utility.yul\":17007:17129   */\n      pop\n      jump\t// out\n        /* \"#utility.yul\":17135:17251   */\n    tag_158:\n        /* \"#utility.yul\":17205:17226   */\n      tag_323\n        /* \"#utility.yul\":17220:17225   */\n      dup2\n        /* \"#utility.yul\":17205:17226   */\n      tag_191\n      jump\t// in\n    tag_323:\n        /* \"#utility.yul\":17198:17203   */\n      dup2\n        /* \"#utility.yul\":17195:17227   */\n      eq\n        /* \"#utility.yul\":17185:17245   */\n      tag_324\n      jumpi\n        /* \"#utility.yul\":17241:17242   */\n      0x00\n        /* \"#utility.yul\":17238:17239   */\n      dup1\n        /* \"#utility.yul\":17231:17243   */\n      revert\n        /* \"#utility.yul\":17185:17245   */\n    tag_324:\n        /* \"#utility.yul\":17135:17251   */\n      pop\n      jump\t// out\n        /* \"#utility.yul\":17257:17379   */\n    tag_166:\n        /* \"#utility.yul\":17330:17354   */\n      tag_326\n        /* \"#utility.yul\":17348:17353   */\n      dup2\n        /* \"#utility.yul\":17330:17354   */\n      tag_225\n      jump\t// in\n    tag_326:\n        /* \"#utility.yul\":17323:17328   */\n      dup2\n        /* \"#utility.yul\":17320:17355   */\n      eq\n        /* \"#utility.yul\":17310:17373   */\n      tag_327\n      jumpi\n        /* \"#utility.yul\":17369:17370   */\n      0x00\n        /* \"#utility.yul\":17366:17367   */\n      dup1\n        /* \"#utility.yul\":17359:17371   */\n      revert\n        /* \"#utility.yul\":17310:17373   */\n    tag_327:\n        /* \"#utility.yul\":17257:17379   */\n      pop\n      jump\t// out\n        /* \"#utility.yul\":17385:17505   */\n    tag_170:\n        /* \"#utility.yul\":17457:17480   */\n      tag_329\n        /* \"#utility.yul\":17474:17479   */\n      dup2\n        /* \"#utility.yul\":17457:17480   */\n      tag_229\n      jump\t// in\n    tag_329:\n        /* \"#utility.yul\":17450:17455   */\n      dup2\n        /* \"#utility.yul\":17447:17481   */\n      eq\n        /* \"#utility.yul\":17437:17499   */\n      tag_330\n      jumpi\n        /* \"#utility.yul\":17495:17496   */\n      0x00\n        /* \"#utility.yul\":17492:17493   */\n      dup1\n        /* \"#utility.yul\":17485:17497   */\n      revert\n        /* \"#utility.yul\":17437:17499   */\n    tag_330:\n        /* \"#utility.yul\":17385:17505   */\n      pop\n      jump\t// out\n\n    auxdata: 0xa2646970667358221220fd7bd965236c2ca6fb9306a0100cc9f981dbb33bc328026fd169bfa4562220b164736f6c63430008070033\n}\n",
				"bytecode": {
					"linkReferences": {},
					"object": "60806040526361d00a006000806101000a81548163ffffffff021916908363ffffffff1602179055506363b078a0600060046101000a81548163ffffffff021916908363ffffffff1602179055506040518060400160405280600181526020016005815250600560008201518160000155602082015181600101555050604051806040016040528061708063ffffffff16815260200161fd2063ffffffff16815250600760008201518160000160006101000a81548163ffffffff021916908363ffffffff16021790555060208201518160000160046101000a81548163ffffffff021916908363ffffffff16021790555050506040518060800160405280600581526020016002815260200160008152602001600081525060086000820151816000015560208201518160010155604082015181600201556060820151816003015550506040518060400160405280603c63ffffffff168152602001600063ffffffff16815250600d60008201518160000160006101000a81548163ffffffff021916908363ffffffff16021790555060208201518160000160046101000a81548163ffffffff021916908363ffffffff1602179055505050348015620001c657600080fd5b506040516200177a3803806200177a8339818101604052810190620001ec9190620004dd565b60405180604001604052806040518060400160405280600f81526020017f44656c69766572792073797374656d000000000000000000000000000000000081525081526020018373ffffffffffffffffffffffffffffffffffffffff16815250600160008201518160000190805190602001906200026c92919062000416565b5060208201518160010160006101000a81548173ffffffffffffffffffffffffffffffffffffffff021916908373ffffffffffffffffffffffffffffffffffffffff16021790555090505060405180604001604052806040518060400160405280601381526020017f496e746567726174696f6e2070726f636573730000000000000000000000000081525081526020018273ffffffffffffffffffffffffffffffffffffffff16815250600360008201518160000190805190602001906200033792919062000416565b5060208201518160010160006101000a81548173ffffffffffffffffffffffffffffffffffffffff021916908373ffffffffffffffffffffffffffffffffffffffff160217905550905050600c60405180602001604052806040518060400160405280601281526020017f636f756e74282f2f61646472657373293d3100000000000000000000000000008152508152509080600181540180825580915050600190039060005260206000200160009091909190915060008201518160000190805190602001906200040b92919062000416565b5050505050620005dc565b828054620004249062000558565b90600052602060002090601f01602090048101928262000448576000855562000494565b82601f106200046357805160ff191683800117855562000494565b8280016001018555821562000494579182015b828111156200049357825182559160200191906001019062000476565b5b509050620004a39190620004a7565b5090565b5b80821115620004c2576000816000905550600101620004a8565b5090565b600081519050620004d781620005c2565b92915050565b60008060408385031215620004f757620004f6620005bd565b5b60006200050785828601620004c6565b92505060206200051a85828601620004c6565b9150509250929050565b6000620005318262000538565b9050919050565b600073ffffffffffffffffffffffffffffffffffffffff82169050919050565b600060028204905060018216806200057157607f821691505b602082108114156200058857620005876200058e565b5b50919050565b7f4e487b7100000000000000000000000000000000000000000000000000000000600052602260045260246000fd5b600080fd5b620005cd8162000524565b8114620005d957600080fd5b50565b61118e80620005ec6000396000f3fe608060405234801561001057600080fd5b50600436106100885760003560e01c80637c6c247f1161005b5780637c6c247f1461012b578063885495851461015b578063a7339ed21461017a578063f73f91bf1461019b57610088565b806320ac908b1461008d57806331cc883c146100bd57806370dea79a146100dc57806379bc473b146100fb575b600080fd5b6100a760048036038101906100a2919061097a565b6101cb565b6040516100b49190610b53565b60405180910390f35b6100c561027d565b6040516100d3929190610c63565b60405180910390f35b6100e46102af565b6040516100f2929190610c63565b60405180910390f35b610115600480360381019061011091906109a7565b6102e1565b6040516101229190610b38565b60405180910390f35b610145600480360381019061014091906109a7565b610400565b6040516101529190610b38565b60405180910390f35b610163610630565b604051610171929190610bf5565b60405180910390f35b610182610642565b6040516101929493929190610c1e565b60405180910390f35b6101b560048036038101906101b0919061097a565b610660565b6040516101c29190610b53565b60405180910390f35b600c81815481106101db57600080fd5b906000526020600020016000915090508060000180546101fa90610e80565b80601f016020809104026020016040519081016040528092919081815260200182805461022690610e80565b80156102735780601f1061024857610100808354040283529160200191610273565b820191906000526020600020905b81548152906001019060200180831161025657829003601f168201915b5050505050905081565b60078060000160009054906101000a900463ffffffff16908060000160049054906101000a900463ffffffff16905082565b600d8060000160009054906101000a900463ffffffff16908060000160049054906101000a900463ffffffff16905082565b60006001800160009054906101000a900473ffffffffffffffffffffffffffffffffffffffff1673ffffffffffffffffffffffffffffffffffffffff168273ffffffffffffffffffffffffffffffffffffffff1614610375576040517f08c379a000000000000000000000000000000000000000000000000000000000815260040161036c90610b75565b60405180910390fd5b61039485600d60000160049054906101000a900463ffffffff16610712565b6103be576001600860020160008282546103ae9190610d56565b92505081905550600190506103f8565b7f66091b7dc2b097c8f60d5cd6aa99633b097f08d2eb1056f3e15361b22e0ea2ba6040516103eb90610bd5565b60405180910390a1600090505b949350505050565b6000600360010160009054906101000a900473ffffffffffffffffffffffffffffffffffffffff1673ffffffffffffffffffffffffffffffffffffffff168273ffffffffffffffffffffffffffffffffffffffff1614610495576040517f08c379a000000000000000000000000000000000000000000000000000000000815260040161048c90610b75565b60405180910390fd5b6104a085600561071e565b8015610510575061050f8563ffffffff1660076040518060400160405290816000820160009054906101000a900463ffffffff1663ffffffff1663ffffffff1681526020016000820160049054906101000a900463ffffffff1663ffffffff1663ffffffff168152505061072a565b5b80156105575750610555856008604051806080016040529081600082015481526020016001820154815260200160028201548152602001600382015481525050610732565b155b80156105695750610568848461073a565b5b156105ee577f95a1f3a1dafdd4c1af344e3d7c69a72cbce8a3f15fe1cf95a7f5bd23df2e71a160405161059b90610b95565b60405180910390a16105c285600d60000160009054906101000a900463ffffffff16610746565b600d60000160046101000a81548163ffffffff021916908363ffffffff16021790555060019050610628565b7f66091b7dc2b097c8f60d5cd6aa99633b097f08d2eb1056f3e15361b22e0ea2ba60405161061b90610bb5565b60405180910390a1600090505b949350505050565b60058060000154908060010154905082565b60088060000154908060010154908060020154908060030154905084565b600e818154811061067057600080fd5b9060005260206000200160009150905080600001805461068f90610e80565b80601f01602080910402602001604051908101604052809291908181526020018280546106bb90610e80565b80156107085780601f106106dd57610100808354040283529160200191610708565b820191906000526020600020905b8154815290600101906020018083116106eb57829003601f168201915b5050505050905081565b60006001905092915050565b60006001905092915050565b600092915050565b600092915050565b60006001905092915050565b600081836107549190610dac565b905092915050565b600061076f61076a84610cb1565b610c8c565b9050808382526020820190508285602086028201111561079257610791610f75565b5b60005b858110156107c257816107a8888261090d565b845260208401935060208301925050600181019050610795565b5050509392505050565b60006107df6107da84610cdd565b610c8c565b9050808382526020820190508285602086028201111561080257610801610f75565b5b60005b8581101561085057813567ffffffffffffffff81111561082857610827610f70565b5b8086016108358982610922565b85526020850194506020840193505050600181019050610805565b5050509392505050565b600061086d61086884610d09565b610c8c565b90508281526020810184848401111561088957610888610f7a565b5b610894848285610e3e565b509392505050565b6000813590506108ab816110fc565b92915050565b600082601f8301126108c6576108c5610f70565b5b81356108d684826020860161075c565b91505092915050565b600082601f8301126108f4576108f3610f70565b5b81356109048482602086016107cc565b91505092915050565b60008135905061091c81611113565b92915050565b600082601f83011261093757610936610f70565b5b813561094784826020860161085a565b91505092915050565b60008135905061095f8161112a565b92915050565b60008135905061097481611141565b92915050565b6000602082840312156109905761098f610f84565b5b600061099e84828501610950565b91505092915050565b600080600080608085870312156109c1576109c0610f84565b5b60006109cf87828801610965565b945050602085013567ffffffffffffffff8111156109f0576109ef610f7f565b5b6109fc878288016108df565b935050604085013567ffffffffffffffff811115610a1d57610a1c610f7f565b5b610a29878288016108b1565b9250506060610a3a8782880161089c565b91505092959194509250565b610a4f81610df8565b82525050565b6000610a6082610d3a565b610a6a8185610d45565b9350610a7a818560208601610e4d565b610a8381610f89565b840191505092915050565b6000610a9b603183610d45565b9150610aa682610f9a565b604082019050919050565b6000610abe602b83610d45565b9150610ac982610fe9565b604082019050919050565b6000610ae1605083610d45565b9150610aec82611038565b606082019050919050565b6000610b04603283610d45565b9150610b0f826110ad565b604082019050919050565b610b2381610e24565b82525050565b610b3281610e2e565b82525050565b6000602082019050610b4d6000830184610a46565b92915050565b60006020820190508181036000830152610b6d8184610a55565b905092915050565b60006020820190508181036000830152610b8e81610a8e565b9050919050565b60006020820190508181036000830152610bae81610ab1565b9050919050565b60006020820190508181036000830152610bce81610ad4565b9050919050565b60006020820190508181036000830152610bee81610af7565b9050919050565b6000604082019050610c0a6000830185610b1a565b610c176020830184610b1a565b9392505050565b6000608082019050610c336000830187610b1a565b610c406020830186610b1a565b610c4d6040830185610b1a565b610c5a6060830184610b1a565b95945050505050565b6000604082019050610c786000830185610b29565b610c856020830184610b29565b9392505050565b6000610c96610ca7565b9050610ca28282610eb2565b919050565b6000604051905090565b600067ffffffffffffffff821115610ccc57610ccb610f41565b5b602082029050602081019050919050565b600067ffffffffffffffff821115610cf857610cf7610f41565b5b602082029050602081019050919050565b600067ffffffffffffffff821115610d2457610d23610f41565b5b610d2d82610f89565b9050602081019050919050565b600081519050919050565b600082825260208201905092915050565b6000610d6182610e24565b9150610d6c83610e24565b9250827fffffffffffffffffffffffffffffffffffffffffffffffffffffffffffffffff03821115610da157610da0610ee3565b5b828201905092915050565b6000610db782610e2e565b9150610dc283610e2e565b92508263ffffffff03821115610ddb57610dda610ee3565b5b828201905092915050565b6000610df182610e04565b9050919050565b60008115159050919050565b600073ffffffffffffffffffffffffffffffffffffffff82169050919050565b6000819050919050565b600063ffffffff82169050919050565b82818337600083830152505050565b60005b83811015610e6b578082015181840152602081019050610e50565b83811115610e7a576000848401525b50505050565b60006002820490506001821680610e9857607f821691505b60208210811415610eac57610eab610f12565b5b50919050565b610ebb82610f89565b810181811067ffffffffffffffff82111715610eda57610ed9610f41565b5b80604052505050565b7f4e487b7100000000000000000000000000000000000000000000000000000000600052601160045260246000fd5b7f4e487b7100000000000000000000000000000000000000000000000000000000600052602260045260246000fd5b7f4e487b7100000000000000000000000000000000000000000000000000000000600052604160045260246000fd5b600080fd5b600080fd5b600080fd5b600080fd5b600080fd5b6000601f19601f8301169050919050565b7f596f752068617665206e6f207065726d697373696f6e20746f20706572666f7260008201527f6d2074686973206f7065726174696f6e2e000000000000000000000000000000602082015250565b7f5375636365737320657865637574696f6e20696e207265717565737444656c6960008201527f7665727920636c61757365000000000000000000000000000000000000000000602082015250565b7f52657175657374206f7065726174696f6e20706572666f726d6564206f75747360008201527f696465206f6620616c6c6f77656420686f757273206f72206c696d6974206f7060208201527f65726174696f6e20657863656564656400000000000000000000000000000000604082015250565b7f457863656564656420726573706f6e73652074696d65206f72206d657373616760008201527f6520636f6e74656e74206d69736d617463680000000000000000000000000000602082015250565b61110581610de6565b811461111057600080fd5b50565b61111c81610df8565b811461112757600080fd5b50565b61113381610e24565b811461113e57600080fd5b50565b61114a81610e2e565b811461115557600080fd5b5056fea2646970667358221220fd7bd965236c2ca6fb9306a0100cc9f981dbb33bc328026fd169bfa4562220b164736f6c63430008070033",
					"opcodes": "PUSH1 0x80 PUSH1 0x40 MSTORE PUSH4 0x61D00A00 PUSH1 0x0 DUP1 PUSH2 0x100 EXP DUP2 SLOAD DUP2 PUSH4 0xFFFFFFFF MUL NOT AND SWAP1 DUP4 PUSH4 0xFFFFFFFF AND MUL OR SWAP1 SSTORE POP PUSH4 0x63B078A0 PUSH1 0x0 PUSH1 0x4 PUSH2 0x100 EXP DUP2 SLOAD DUP2 PUSH4 0xFFFFFFFF MUL NOT AND SWAP1 DUP4 PUSH4 0xFFFFFFFF AND MUL OR SWAP1 SSTORE POP PUSH1 0x40 MLOAD DUP1 PUSH1 0x40 ADD PUSH1 0x40 MSTORE DUP1 PUSH1 0x1 DUP2 MSTORE PUSH1 0x20 ADD PUSH1 0x5 DUP2 MSTORE POP PUSH1 0x5 PUSH1 0x0 DUP3 ADD MLOAD DUP2 PUSH1 0x0 ADD SSTORE PUSH1 0x20 DUP3 ADD MLOAD DUP2 PUSH1 0x1 ADD SSTORE POP POP PUSH1 0x40 MLOAD DUP1 PUSH1 0x40 ADD PUSH1 0x40 MSTORE DUP1 PUSH2 0x7080 PUSH4 0xFFFFFFFF AND DUP2 MSTORE PUSH1 0x20 ADD PUSH2 0xFD20 PUSH4 0xFFFFFFFF AND DUP2 MSTORE POP PUSH1 0x7 PUSH1 0x0 DUP3 ADD MLOAD DUP2 PUSH1 0x0 ADD PUSH1 0x0 PUSH2 0x100 EXP DUP2 SLOAD DUP2 PUSH4 0xFFFFFFFF MUL NOT AND SWAP1 DUP4 PUSH4 0xFFFFFFFF AND MUL OR SWAP1 SSTORE POP PUSH1 0x20 DUP3 ADD MLOAD DUP2 PUSH1 0x0 ADD PUSH1 0x4 PUSH2 0x100 EXP DUP2 SLOAD DUP2 PUSH4 0xFFFFFFFF MUL NOT AND SWAP1 DUP4 PUSH4 0xFFFFFFFF AND MUL OR SWAP1 SSTORE POP POP POP PUSH1 0x40 MLOAD DUP1 PUSH1 0x80 ADD PUSH1 0x40 MSTORE DUP1 PUSH1 0x5 DUP2 MSTORE PUSH1 0x20 ADD PUSH1 0x2 DUP2 MSTORE PUSH1 0x20 ADD PUSH1 0x0 DUP2 MSTORE PUSH1 0x20 ADD PUSH1 0x0 DUP2 MSTORE POP PUSH1 0x8 PUSH1 0x0 DUP3 ADD MLOAD DUP2 PUSH1 0x0 ADD SSTORE PUSH1 0x20 DUP3 ADD MLOAD DUP2 PUSH1 0x1 ADD SSTORE PUSH1 0x40 DUP3 ADD MLOAD DUP2 PUSH1 0x2 ADD SSTORE PUSH1 0x60 DUP3 ADD MLOAD DUP2 PUSH1 0x3 ADD SSTORE POP POP PUSH1 0x40 MLOAD DUP1 PUSH1 0x40 ADD PUSH1 0x40 MSTORE DUP1 PUSH1 0x3C PUSH4 0xFFFFFFFF AND DUP2 MSTORE PUSH1 0x20 ADD PUSH1 0x0 PUSH4 0xFFFFFFFF AND DUP2 MSTORE POP PUSH1 0xD PUSH1 0x0 DUP3 ADD MLOAD DUP2 PUSH1 0x0 ADD PUSH1 0x0 PUSH2 0x100 EXP DUP2 SLOAD DUP2 PUSH4 0xFFFFFFFF MUL NOT AND SWAP1 DUP4 PUSH4 0xFFFFFFFF AND MUL OR SWAP1 SSTORE POP PUSH1 0x20 DUP3 ADD MLOAD DUP2 PUSH1 0x0 ADD PUSH1 0x4 PUSH2 0x100 EXP DUP2 SLOAD DUP2 PUSH4 0xFFFFFFFF MUL NOT AND SWAP1 DUP4 PUSH4 0xFFFFFFFF AND MUL OR SWAP1 SSTORE POP POP POP CALLVALUE DUP1 ISZERO PUSH3 0x1C6 JUMPI PUSH1 0x0 DUP1 REVERT JUMPDEST POP PUSH1 0x40 MLOAD PUSH3 0x177A CODESIZE SUB DUP1 PUSH3 0x177A DUP4 CODECOPY DUP2 DUP2 ADD PUSH1 0x40 MSTORE DUP2 ADD SWAP1 PUSH3 0x1EC SWAP2 SWAP1 PUSH3 0x4DD JUMP JUMPDEST PUSH1 0x40 MLOAD DUP1 PUSH1 0x40 ADD PUSH1 0x40 MSTORE DUP1 PUSH1 0x40 MLOAD DUP1 PUSH1 0x40 ADD PUSH1 0x40 MSTORE DUP1 PUSH1 0xF DUP2 MSTORE PUSH1 0x20 ADD PUSH32 0x44656C69766572792073797374656D0000000000000000000000000000000000 DUP2 MSTORE POP DUP2 MSTORE PUSH1 0x20 ADD DUP4 PUSH20 0xFFFFFFFFFFFFFFFFFFFFFFFFFFFFFFFFFFFFFFFF AND DUP2 MSTORE POP PUSH1 0x1 PUSH1 0x0 DUP3 ADD MLOAD DUP2 PUSH1 0x0 ADD SWAP1 DUP1 MLOAD SWAP1 PUSH1 0x20 ADD SWAP1 PUSH3 0x26C SWAP3 SWAP2 SWAP1 PUSH3 0x416 JUMP JUMPDEST POP PUSH1 0x20 DUP3 ADD MLOAD DUP2 PUSH1 0x1 ADD PUSH1 0x0 PUSH2 0x100 EXP DUP2 SLOAD DUP2 PUSH20 0xFFFFFFFFFFFFFFFFFFFFFFFFFFFFFFFFFFFFFFFF MUL NOT AND SWAP1 DUP4 PUSH20 0xFFFFFFFFFFFFFFFFFFFFFFFFFFFFFFFFFFFFFFFF AND MUL OR SWAP1 SSTORE POP SWAP1 POP POP PUSH1 0x40 MLOAD DUP1 PUSH1 0x40 ADD PUSH1 0x40 MSTORE DUP1 PUSH1 0x40 MLOAD DUP1 PUSH1 0x40 ADD PUSH1 0x40 MSTORE DUP1 PUSH1 0x13 DUP2 MSTORE PUSH1 0x20 ADD PUSH32 0x496E746567726174696F6E2070726F6365737300000000000000000000000000 DUP2 MSTORE POP DUP2 MSTORE PUSH1 0x20 ADD DUP3 PUSH20 0xFFFFFFFFFFFFFFFFFFFFFFFFFFFFFFFFFFFFFFFF AND DUP2 MSTORE POP PUSH1 0x3 PUSH1 0x0 DUP3 ADD MLOAD DUP2 PUSH1 0x0 ADD SWAP1 DUP1 MLOAD SWAP1 PUSH1 0x20 ADD SWAP1 PUSH3 0x337 SWAP3 SWAP2 SWAP1 PUSH3 0x416 JUMP JUMPDEST POP PUSH1 0x20 DUP3 ADD MLOAD DUP2 PUSH1 0x1 ADD PUSH1 0x0 PUSH2 0x100 EXP DUP2 SLOAD DUP2 PUSH20 0xFFFFFFFFFFFFFFFFFFFFFFFFFFFFFFFFFFFFFFFF MUL NOT AND SWAP1 DUP4 PUSH20 0xFFFFFFFFFFFFFFFFFFFFFFFFFFFFFFFFFFFFFFFF AND MUL OR SWAP1 SSTORE POP SWAP1 POP POP PUSH1 0xC PUSH1 0x40 MLOAD DUP1 PUSH1 0x20 ADD PUSH1 0x40 MSTORE DUP1 PUSH1 0x40 MLOAD DUP1 PUSH1 0x40 ADD PUSH1 0x40 MSTORE DUP1 PUSH1 0x12 DUP2 MSTORE PUSH1 0x20 ADD PUSH32 0x636F756E74282F2F61646472657373293D310000000000000000000000000000 DUP2 MSTORE POP DUP2 MSTORE POP SWAP1 DUP1 PUSH1 0x1 DUP2 SLOAD ADD DUP1 DUP3 SSTORE DUP1 SWAP2 POP POP PUSH1 0x1 SWAP1 SUB SWAP1 PUSH1 0x0 MSTORE PUSH1 0x20 PUSH1 0x0 KECCAK256 ADD PUSH1 0x0 SWAP1 SWAP2 SWAP1 SWAP2 SWAP1 SWAP2 POP PUSH1 0x0 DUP3 ADD MLOAD DUP2 PUSH1 0x0 ADD SWAP1 DUP1 MLOAD SWAP1 PUSH1 0x20 ADD SWAP1 PUSH3 0x40B SWAP3 SWAP2 SWAP1 PUSH3 0x416 JUMP JUMPDEST POP POP POP POP POP PUSH3 0x5DC JUMP JUMPDEST DUP3 DUP1 SLOAD PUSH3 0x424 SWAP1 PUSH3 0x558 JUMP JUMPDEST SWAP1 PUSH1 0x0 MSTORE PUSH1 0x20 PUSH1 0x0 KECCAK256 SWAP1 PUSH1 0x1F ADD PUSH1 0x20 SWAP1 DIV DUP2 ADD SWAP3 DUP3 PUSH3 0x448 JUMPI PUSH1 0x0 DUP6 SSTORE PUSH3 0x494 JUMP JUMPDEST DUP3 PUSH1 0x1F LT PUSH3 0x463 JUMPI DUP1 MLOAD PUSH1 0xFF NOT AND DUP4 DUP1 ADD OR DUP6 SSTORE PUSH3 0x494 JUMP JUMPDEST DUP3 DUP1 ADD PUSH1 0x1 ADD DUP6 SSTORE DUP3 ISZERO PUSH3 0x494 JUMPI SWAP2 DUP3 ADD JUMPDEST DUP3 DUP2 GT ISZERO PUSH3 0x493 JUMPI DUP3 MLOAD DUP3 SSTORE SWAP2 PUSH1 0x20 ADD SWAP2 SWAP1 PUSH1 0x1 ADD SWAP1 PUSH3 0x476 JUMP JUMPDEST JUMPDEST POP SWAP1 POP PUSH3 0x4A3 SWAP2 SWAP1 PUSH3 0x4A7 JUMP JUMPDEST POP SWAP1 JUMP JUMPDEST JUMPDEST DUP1 DUP3 GT ISZERO PUSH3 0x4C2 JUMPI PUSH1 0x0 DUP2 PUSH1 0x0 SWAP1 SSTORE POP PUSH1 0x1 ADD PUSH3 0x4A8 JUMP JUMPDEST POP SWAP1 JUMP JUMPDEST PUSH1 0x0 DUP2 MLOAD SWAP1 POP PUSH3 0x4D7 DUP2 PUSH3 0x5C2 JUMP JUMPDEST SWAP3 SWAP2 POP POP JUMP JUMPDEST PUSH1 0x0 DUP1 PUSH1 0x40 DUP4 DUP6 SUB SLT ISZERO PUSH3 0x4F7 JUMPI PUSH3 0x4F6 PUSH3 0x5BD JUMP JUMPDEST JUMPDEST PUSH1 0x0 PUSH3 0x507 DUP6 DUP3 DUP7 ADD PUSH3 0x4C6 JUMP JUMPDEST SWAP3 POP POP PUSH1 0x20 PUSH3 0x51A DUP6 DUP3 DUP7 ADD PUSH3 0x4C6 JUMP JUMPDEST SWAP2 POP POP SWAP3 POP SWAP3 SWAP1 POP JUMP JUMPDEST PUSH1 0x0 PUSH3 0x531 DUP3 PUSH3 0x538 JUMP JUMPDEST SWAP1 POP SWAP2 SWAP1 POP JUMP JUMPDEST PUSH1 0x0 PUSH20 0xFFFFFFFFFFFFFFFFFFFFFFFFFFFFFFFFFFFFFFFF DUP3 AND SWAP1 POP SWAP2 SWAP1 POP JUMP JUMPDEST PUSH1 0x0 PUSH1 0x2 DUP3 DIV SWAP1 POP PUSH1 0x1 DUP3 AND DUP1 PUSH3 0x571 JUMPI PUSH1 0x7F DUP3 AND SWAP2 POP JUMPDEST PUSH1 0x20 DUP3 LT DUP2 EQ ISZERO PUSH3 0x588 JUMPI PUSH3 0x587 PUSH3 0x58E JUMP JUMPDEST JUMPDEST POP SWAP2 SWAP1 POP JUMP JUMPDEST PUSH32 0x4E487B7100000000000000000000000000000000000000000000000000000000 PUSH1 0x0 MSTORE PUSH1 0x22 PUSH1 0x4 MSTORE PUSH1 0x24 PUSH1 0x0 REVERT JUMPDEST PUSH1 0x0 DUP1 REVERT JUMPDEST PUSH3 0x5CD DUP2 PUSH3 0x524 JUMP JUMPDEST DUP2 EQ PUSH3 0x5D9 JUMPI PUSH1 0x0 DUP1 REVERT JUMPDEST POP JUMP JUMPDEST PUSH2 0x118E DUP1 PUSH3 0x5EC PUSH1 0x0 CODECOPY PUSH1 0x0 RETURN INVALID PUSH1 0x80 PUSH1 0x40 MSTORE CALLVALUE DUP1 ISZERO PUSH2 0x10 JUMPI PUSH1 0x0 DUP1 REVERT JUMPDEST POP PUSH1 0x4 CALLDATASIZE LT PUSH2 0x88 JUMPI PUSH1 0x0 CALLDATALOAD PUSH1 0xE0 SHR DUP1 PUSH4 0x7C6C247F GT PUSH2 0x5B JUMPI DUP1 PUSH4 0x7C6C247F EQ PUSH2 0x12B JUMPI DUP1 PUSH4 0x88549585 EQ PUSH2 0x15B JUMPI DUP1 PUSH4 0xA7339ED2 EQ PUSH2 0x17A JUMPI DUP1 PUSH4 0xF73F91BF EQ PUSH2 0x19B JUMPI PUSH2 0x88 JUMP JUMPDEST DUP1 PUSH4 0x20AC908B EQ PUSH2 0x8D JUMPI DUP1 PUSH4 0x31CC883C EQ PUSH2 0xBD JUMPI DUP1 PUSH4 0x70DEA79A EQ PUSH2 0xDC JUMPI DUP1 PUSH4 0x79BC473B EQ PUSH2 0xFB JUMPI JUMPDEST PUSH1 0x0 DUP1 REVERT JUMPDEST PUSH2 0xA7 PUSH1 0x4 DUP1 CALLDATASIZE SUB DUP2 ADD SWAP1 PUSH2 0xA2 SWAP2 SWAP1 PUSH2 0x97A JUMP JUMPDEST PUSH2 0x1CB JUMP JUMPDEST PUSH1 0x40 MLOAD PUSH2 0xB4 SWAP2 SWAP1 PUSH2 0xB53 JUMP JUMPDEST PUSH1 0x40 MLOAD DUP1 SWAP2 SUB SWAP1 RETURN JUMPDEST PUSH2 0xC5 PUSH2 0x27D JUMP JUMPDEST PUSH1 0x40 MLOAD PUSH2 0xD3 SWAP3 SWAP2 SWAP1 PUSH2 0xC63 JUMP JUMPDEST PUSH1 0x40 MLOAD DUP1 SWAP2 SUB SWAP1 RETURN JUMPDEST PUSH2 0xE4 PUSH2 0x2AF JUMP JUMPDEST PUSH1 0x40 MLOAD PUSH2 0xF2 SWAP3 SWAP2 SWAP1 PUSH2 0xC63 JUMP JUMPDEST PUSH1 0x40 MLOAD DUP1 SWAP2 SUB SWAP1 RETURN JUMPDEST PUSH2 0x115 PUSH1 0x4 DUP1 CALLDATASIZE SUB DUP2 ADD SWAP1 PUSH2 0x110 SWAP2 SWAP1 PUSH2 0x9A7 JUMP JUMPDEST PUSH2 0x2E1 JUMP JUMPDEST PUSH1 0x40 MLOAD PUSH2 0x122 SWAP2 SWAP1 PUSH2 0xB38 JUMP JUMPDEST PUSH1 0x40 MLOAD DUP1 SWAP2 SUB SWAP1 RETURN JUMPDEST PUSH2 0x145 PUSH1 0x4 DUP1 CALLDATASIZE SUB DUP2 ADD SWAP1 PUSH2 0x140 SWAP2 SWAP1 PUSH2 0x9A7 JUMP JUMPDEST PUSH2 0x400 JUMP JUMPDEST PUSH1 0x40 MLOAD PUSH2 0x152 SWAP2 SWAP1 PUSH2 0xB38 JUMP JUMPDEST PUSH1 0x40 MLOAD DUP1 SWAP2 SUB SWAP1 RETURN JUMPDEST PUSH2 0x163 PUSH2 0x630 JUMP JUMPDEST PUSH1 0x40 MLOAD PUSH2 0x171 SWAP3 SWAP2 SWAP1 PUSH2 0xBF5 JUMP JUMPDEST PUSH1 0x40 MLOAD DUP1 SWAP2 SUB SWAP1 RETURN JUMPDEST PUSH2 0x182 PUSH2 0x642 JUMP JUMPDEST PUSH1 0x40 MLOAD PUSH2 0x192 SWAP5 SWAP4 SWAP3 SWAP2 SWAP1 PUSH2 0xC1E JUMP JUMPDEST PUSH1 0x40 MLOAD DUP1 SWAP2 SUB SWAP1 RETURN JUMPDEST PUSH2 0x1B5 PUSH1 0x4 DUP1 CALLDATASIZE SUB DUP2 ADD SWAP1 PUSH2 0x1B0 SWAP2 SWAP1 PUSH2 0x97A JUMP JUMPDEST PUSH2 0x660 JUMP JUMPDEST PUSH1 0x40 MLOAD PUSH2 0x1C2 SWAP2 SWAP1 PUSH2 0xB53 JUMP JUMPDEST PUSH1 0x40 MLOAD DUP1 SWAP2 SUB SWAP1 RETURN JUMPDEST PUSH1 0xC DUP2 DUP2 SLOAD DUP2 LT PUSH2 0x1DB JUMPI PUSH1 0x0 DUP1 REVERT JUMPDEST SWAP1 PUSH1 0x0 MSTORE PUSH1 0x20 PUSH1 0x0 KECCAK256 ADD PUSH1 0x0 SWAP2 POP SWAP1 POP DUP1 PUSH1 0x0 ADD DUP1 SLOAD PUSH2 0x1FA SWAP1 PUSH2 0xE80 JUMP JUMPDEST DUP1 PUSH1 0x1F ADD PUSH1 0x20 DUP1 SWAP2 DIV MUL PUSH1 0x20 ADD PUSH1 0x40 MLOAD SWAP1 DUP2 ADD PUSH1 0x40 MSTORE DUP1 SWAP3 SWAP2 SWAP1 DUP2 DUP2 MSTORE PUSH1 0x20 ADD DUP3 DUP1 SLOAD PUSH2 0x226 SWAP1 PUSH2 0xE80 JUMP JUMPDEST DUP1 ISZERO PUSH2 0x273 JUMPI DUP1 PUSH1 0x1F LT PUSH2 0x248 JUMPI PUSH2 0x100 DUP1 DUP4 SLOAD DIV MUL DUP4 MSTORE SWAP2 PUSH1 0x20 ADD SWAP2 PUSH2 0x273 JUMP JUMPDEST DUP3 ADD SWAP2 SWAP1 PUSH1 0x0 MSTORE PUSH1 0x20 PUSH1 0x0 KECCAK256 SWAP1 JUMPDEST DUP2 SLOAD DUP2 MSTORE SWAP1 PUSH1 0x1 ADD SWAP1 PUSH1 0x20 ADD DUP1 DUP4 GT PUSH2 0x256 JUMPI DUP3 SWAP1 SUB PUSH1 0x1F AND DUP3 ADD SWAP2 JUMPDEST POP POP POP POP POP SWAP1 POP DUP2 JUMP JUMPDEST PUSH1 0x7 DUP1 PUSH1 0x0 ADD PUSH1 0x0 SWAP1 SLOAD SWAP1 PUSH2 0x100 EXP SWAP1 DIV PUSH4 0xFFFFFFFF AND SWAP1 DUP1 PUSH1 0x0 ADD PUSH1 0x4 SWAP1 SLOAD SWAP1 PUSH2 0x100 EXP SWAP1 DIV PUSH4 0xFFFFFFFF AND SWAP1 POP DUP3 JUMP JUMPDEST PUSH1 0xD DUP1 PUSH1 0x0 ADD PUSH1 0x0 SWAP1 SLOAD SWAP1 PUSH2 0x100 EXP SWAP1 DIV PUSH4 0xFFFFFFFF AND SWAP1 DUP1 PUSH1 0x0 ADD PUSH1 0x4 SWAP1 SLOAD SWAP1 PUSH2 0x100 EXP SWAP1 DIV PUSH4 0xFFFFFFFF AND SWAP1 POP DUP3 JUMP JUMPDEST PUSH1 0x0 PUSH1 0x1 DUP1 ADD PUSH1 0x0 SWAP1 SLOAD SWAP1 PUSH2 0x100 EXP SWAP1 DIV PUSH20 0xFFFFFFFFFFFFFFFFFFFFFFFFFFFFFFFFFFFFFFFF AND PUSH20 0xFFFFFFFFFFFFFFFFFFFFFFFFFFFFFFFFFFFFFFFF AND DUP3 PUSH20 0xFFFFFFFFFFFFFFFFFFFFFFFFFFFFFFFFFFFFFFFF AND EQ PUSH2 0x375 JUMPI PUSH1 0x40 MLOAD PUSH32 0x8C379A000000000000000000000000000000000000000000000000000000000 DUP2 MSTORE PUSH1 0x4 ADD PUSH2 0x36C SWAP1 PUSH2 0xB75 JUMP JUMPDEST PUSH1 0x40 MLOAD DUP1 SWAP2 SUB SWAP1 REVERT JUMPDEST PUSH2 0x394 DUP6 PUSH1 0xD PUSH1 0x0 ADD PUSH1 0x4 SWAP1 SLOAD SWAP1 PUSH2 0x100 EXP SWAP1 DIV PUSH4 0xFFFFFFFF AND PUSH2 0x712 JUMP JUMPDEST PUSH2 0x3BE JUMPI PUSH1 0x1 PUSH1 0x8 PUSH1 0x2 ADD PUSH1 0x0 DUP3 DUP3 SLOAD PUSH2 0x3AE SWAP2 SWAP1 PUSH2 0xD56 JUMP JUMPDEST SWAP3 POP POP DUP2 SWAP1 SSTORE POP PUSH1 0x1 SWAP1 POP PUSH2 0x3F8 JUMP JUMPDEST PUSH32 0x66091B7DC2B097C8F60D5CD6AA99633B097F08D2EB1056F3E15361B22E0EA2BA PUSH1 0x40 MLOAD PUSH2 0x3EB SWAP1 PUSH2 0xBD5 JUMP JUMPDEST PUSH1 0x40 MLOAD DUP1 SWAP2 SUB SWAP1 LOG1 PUSH1 0x0 SWAP1 POP JUMPDEST SWAP5 SWAP4 POP POP POP POP JUMP JUMPDEST PUSH1 0x0 PUSH1 0x3 PUSH1 0x1 ADD PUSH1 0x0 SWAP1 SLOAD SWAP1 PUSH2 0x100 EXP SWAP1 DIV PUSH20 0xFFFFFFFFFFFFFFFFFFFFFFFFFFFFFFFFFFFFFFFF AND PUSH20 0xFFFFFFFFFFFFFFFFFFFFFFFFFFFFFFFFFFFFFFFF AND DUP3 PUSH20 0xFFFFFFFFFFFFFFFFFFFFFFFFFFFFFFFFFFFFFFFF AND EQ PUSH2 0x495 JUMPI PUSH1 0x40 MLOAD PUSH32 0x8C379A000000000000000000000000000000000000000000000000000000000 DUP2 MSTORE PUSH1 0x4 ADD PUSH2 0x48C SWAP1 PUSH2 0xB75 JUMP JUMPDEST PUSH1 0x40 MLOAD DUP1 SWAP2 SUB SWAP1 REVERT JUMPDEST PUSH2 0x4A0 DUP6 PUSH1 0x5 PUSH2 0x71E JUMP JUMPDEST DUP1 ISZERO PUSH2 0x510 JUMPI POP PUSH2 0x50F DUP6 PUSH4 0xFFFFFFFF AND PUSH1 0x7 PUSH1 0x40 MLOAD DUP1 PUSH1 0x40 ADD PUSH1 0x40 MSTORE SWAP1 DUP2 PUSH1 0x0 DUP3 ADD PUSH1 0x0 SWAP1 SLOAD SWAP1 PUSH2 0x100 EXP SWAP1 DIV PUSH4 0xFFFFFFFF AND PUSH4 0xFFFFFFFF AND PUSH4 0xFFFFFFFF AND DUP2 MSTORE PUSH1 0x20 ADD PUSH1 0x0 DUP3 ADD PUSH1 0x4 SWAP1 SLOAD SWAP1 PUSH2 0x100 EXP SWAP1 DIV PUSH4 0xFFFFFFFF AND PUSH4 0xFFFFFFFF AND PUSH4 0xFFFFFFFF AND DUP2 MSTORE POP POP PUSH2 0x72A JUMP JUMPDEST JUMPDEST DUP1 ISZERO PUSH2 0x557 JUMPI POP PUSH2 0x555 DUP6 PUSH1 0x8 PUSH1 0x40 MLOAD DUP1 PUSH1 0x80 ADD PUSH1 0x40 MSTORE SWAP1 DUP2 PUSH1 0x0 DUP3 ADD SLOAD DUP2 MSTORE PUSH1 0x20 ADD PUSH1 0x1 DUP3 ADD SLOAD DUP2 MSTORE PUSH1 0x20 ADD PUSH1 0x2 DUP3 ADD SLOAD DUP2 MSTORE PUSH1 0x20 ADD PUSH1 0x3 DUP3 ADD SLOAD DUP2 MSTORE POP POP PUSH2 0x732 JUMP JUMPDEST ISZERO JUMPDEST DUP1 ISZERO PUSH2 0x569 JUMPI POP PUSH2 0x568 DUP5 DUP5 PUSH2 0x73A JUMP JUMPDEST JUMPDEST ISZERO PUSH2 0x5EE JUMPI PUSH32 0x95A1F3A1DAFDD4C1AF344E3D7C69A72CBCE8A3F15FE1CF95A7F5BD23DF2E71A1 PUSH1 0x40 MLOAD PUSH2 0x59B SWAP1 PUSH2 0xB95 JUMP JUMPDEST PUSH1 0x40 MLOAD DUP1 SWAP2 SUB SWAP1 LOG1 PUSH2 0x5C2 DUP6 PUSH1 0xD PUSH1 0x0 ADD PUSH1 0x0 SWAP1 SLOAD SWAP1 PUSH2 0x100 EXP SWAP1 DIV PUSH4 0xFFFFFFFF AND PUSH2 0x746 JUMP JUMPDEST PUSH1 0xD PUSH1 0x0 ADD PUSH1 0x4 PUSH2 0x100 EXP DUP2 SLOAD DUP2 PUSH4 0xFFFFFFFF MUL NOT AND SWAP1 DUP4 PUSH4 0xFFFFFFFF AND MUL OR SWAP1 SSTORE POP PUSH1 0x1 SWAP1 POP PUSH2 0x628 JUMP JUMPDEST PUSH32 0x66091B7DC2B097C8F60D5CD6AA99633B097F08D2EB1056F3E15361B22E0EA2BA PUSH1 0x40 MLOAD PUSH2 0x61B SWAP1 PUSH2 0xBB5 JUMP JUMPDEST PUSH1 0x40 MLOAD DUP1 SWAP2 SUB SWAP1 LOG1 PUSH1 0x0 SWAP1 POP JUMPDEST SWAP5 SWAP4 POP POP POP POP JUMP JUMPDEST PUSH1 0x5 DUP1 PUSH1 0x0 ADD SLOAD SWAP1 DUP1 PUSH1 0x1 ADD SLOAD SWAP1 POP DUP3 JUMP JUMPDEST PUSH1 0x8 DUP1 PUSH1 0x0 ADD SLOAD SWAP1 DUP1 PUSH1 0x1 ADD SLOAD SWAP1 DUP1 PUSH1 0x2 ADD SLOAD SWAP1 DUP1 PUSH1 0x3 ADD SLOAD SWAP1 POP DUP5 JUMP JUMPDEST PUSH1 0xE DUP2 DUP2 SLOAD DUP2 LT PUSH2 0x670 JUMPI PUSH1 0x0 DUP1 REVERT JUMPDEST SWAP1 PUSH1 0x0 MSTORE PUSH1 0x20 PUSH1 0x0 KECCAK256 ADD PUSH1 0x0 SWAP2 POP SWAP1 POP DUP1 PUSH1 0x0 ADD DUP1 SLOAD PUSH2 0x68F SWAP1 PUSH2 0xE80 JUMP JUMPDEST DUP1 PUSH1 0x1F ADD PUSH1 0x20 DUP1 SWAP2 DIV MUL PUSH1 0x20 ADD PUSH1 0x40 MLOAD SWAP1 DUP2 ADD PUSH1 0x40 MSTORE DUP1 SWAP3 SWAP2 SWAP1 DUP2 DUP2 MSTORE PUSH1 0x20 ADD DUP3 DUP1 SLOAD PUSH2 0x6BB SWAP1 PUSH2 0xE80 JUMP JUMPDEST DUP1 ISZERO PUSH2 0x708 JUMPI DUP1 PUSH1 0x1F LT PUSH2 0x6DD JUMPI PUSH2 0x100 DUP1 DUP4 SLOAD DIV MUL DUP4 MSTORE SWAP2 PUSH1 0x20 ADD SWAP2 PUSH2 0x708 JUMP JUMPDEST DUP3 ADD SWAP2 SWAP1 PUSH1 0x0 MSTORE PUSH1 0x20 PUSH1 0x0 KECCAK256 SWAP1 JUMPDEST DUP2 SLOAD DUP2 MSTORE SWAP1 PUSH1 0x1 ADD SWAP1 PUSH1 0x20 ADD DUP1 DUP4 GT PUSH2 0x6EB JUMPI DUP3 SWAP1 SUB PUSH1 0x1F AND DUP3 ADD SWAP2 JUMPDEST POP POP POP POP POP SWAP1 POP DUP2 JUMP JUMPDEST PUSH1 0x0 PUSH1 0x1 SWAP1 POP SWAP3 SWAP2 POP POP JUMP JUMPDEST PUSH1 0x0 PUSH1 0x1 SWAP1 POP SWAP3 SWAP2 POP POP JUMP JUMPDEST PUSH1 0x0 SWAP3 SWAP2 POP POP JUMP JUMPDEST PUSH1 0x0 SWAP3 SWAP2 POP POP JUMP JUMPDEST PUSH1 0x0 PUSH1 0x1 SWAP1 POP SWAP3 SWAP2 POP POP JUMP JUMPDEST PUSH1 0x0 DUP2 DUP4 PUSH2 0x754 SWAP2 SWAP1 PUSH2 0xDAC JUMP JUMPDEST SWAP1 POP SWAP3 SWAP2 POP POP JUMP JUMPDEST PUSH1 0x0 PUSH2 0x76F PUSH2 0x76A DUP5 PUSH2 0xCB1 JUMP JUMPDEST PUSH2 0xC8C JUMP JUMPDEST SWAP1 POP DUP1 DUP4 DUP3 MSTORE PUSH1 0x20 DUP3 ADD SWAP1 POP DUP3 DUP6 PUSH1 0x20 DUP7 MUL DUP3 ADD GT ISZERO PUSH2 0x792 JUMPI PUSH2 0x791 PUSH2 0xF75 JUMP JUMPDEST JUMPDEST PUSH1 0x0 JUMPDEST DUP6 DUP2 LT ISZERO PUSH2 0x7C2 JUMPI DUP2 PUSH2 0x7A8 DUP9 DUP3 PUSH2 0x90D JUMP JUMPDEST DUP5 MSTORE PUSH1 0x20 DUP5 ADD SWAP4 POP PUSH1 0x20 DUP4 ADD SWAP3 POP POP PUSH1 0x1 DUP2 ADD SWAP1 POP PUSH2 0x795 JUMP JUMPDEST POP POP POP SWAP4 SWAP3 POP POP POP JUMP JUMPDEST PUSH1 0x0 PUSH2 0x7DF PUSH2 0x7DA DUP5 PUSH2 0xCDD JUMP JUMPDEST PUSH2 0xC8C JUMP JUMPDEST SWAP1 POP DUP1 DUP4 DUP3 MSTORE PUSH1 0x20 DUP3 ADD SWAP1 POP DUP3 DUP6 PUSH1 0x20 DUP7 MUL DUP3 ADD GT ISZERO PUSH2 0x802 JUMPI PUSH2 0x801 PUSH2 0xF75 JUMP JUMPDEST JUMPDEST PUSH1 0x0 JUMPDEST DUP6 DUP2 LT ISZERO PUSH2 0x850 JUMPI DUP2 CALLDATALOAD PUSH8 0xFFFFFFFFFFFFFFFF DUP2 GT ISZERO PUSH2 0x828 JUMPI PUSH2 0x827 PUSH2 0xF70 JUMP JUMPDEST JUMPDEST DUP1 DUP7 ADD PUSH2 0x835 DUP10 DUP3 PUSH2 0x922 JUMP JUMPDEST DUP6 MSTORE PUSH1 0x20 DUP6 ADD SWAP5 POP PUSH1 0x20 DUP5 ADD SWAP4 POP POP POP PUSH1 0x1 DUP2 ADD SWAP1 POP PUSH2 0x805 JUMP JUMPDEST POP POP POP SWAP4 SWAP3 POP POP POP JUMP JUMPDEST PUSH1 0x0 PUSH2 0x86D PUSH2 0x868 DUP5 PUSH2 0xD09 JUMP JUMPDEST PUSH2 0xC8C JUMP JUMPDEST SWAP1 POP DUP3 DUP2 MSTORE PUSH1 0x20 DUP2 ADD DUP5 DUP5 DUP5 ADD GT ISZERO PUSH2 0x889 JUMPI PUSH2 0x888 PUSH2 0xF7A JUMP JUMPDEST JUMPDEST PUSH2 0x894 DUP5 DUP3 DUP6 PUSH2 0xE3E JUMP JUMPDEST POP SWAP4 SWAP3 POP POP POP JUMP JUMPDEST PUSH1 0x0 DUP2 CALLDATALOAD SWAP1 POP PUSH2 0x8AB DUP2 PUSH2 0x10FC JUMP JUMPDEST SWAP3 SWAP2 POP POP JUMP JUMPDEST PUSH1 0x0 DUP3 PUSH1 0x1F DUP4 ADD SLT PUSH2 0x8C6 JUMPI PUSH2 0x8C5 PUSH2 0xF70 JUMP JUMPDEST JUMPDEST DUP2 CALLDATALOAD PUSH2 0x8D6 DUP5 DUP3 PUSH1 0x20 DUP7 ADD PUSH2 0x75C JUMP JUMPDEST SWAP2 POP POP SWAP3 SWAP2 POP POP JUMP JUMPDEST PUSH1 0x0 DUP3 PUSH1 0x1F DUP4 ADD SLT PUSH2 0x8F4 JUMPI PUSH2 0x8F3 PUSH2 0xF70 JUMP JUMPDEST JUMPDEST DUP2 CALLDATALOAD PUSH2 0x904 DUP5 DUP3 PUSH1 0x20 DUP7 ADD PUSH2 0x7CC JUMP JUMPDEST SWAP2 POP POP SWAP3 SWAP2 POP POP JUMP JUMPDEST PUSH1 0x0 DUP2 CALLDATALOAD SWAP1 POP PUSH2 0x91C DUP2 PUSH2 0x1113 JUMP JUMPDEST SWAP3 SWAP2 POP POP JUMP JUMPDEST PUSH1 0x0 DUP3 PUSH1 0x1F DUP4 ADD SLT PUSH2 0x937 JUMPI PUSH2 0x936 PUSH2 0xF70 JUMP JUMPDEST JUMPDEST DUP2 CALLDATALOAD PUSH2 0x947 DUP5 DUP3 PUSH1 0x20 DUP7 ADD PUSH2 0x85A JUMP JUMPDEST SWAP2 POP POP SWAP3 SWAP2 POP POP JUMP JUMPDEST PUSH1 0x0 DUP2 CALLDATALOAD SWAP1 POP PUSH2 0x95F DUP2 PUSH2 0x112A JUMP JUMPDEST SWAP3 SWAP2 POP POP JUMP JUMPDEST PUSH1 0x0 DUP2 CALLDATALOAD SWAP1 POP PUSH2 0x974 DUP2 PUSH2 0x1141 JUMP JUMPDEST SWAP3 SWAP2 POP POP JUMP JUMPDEST PUSH1 0x0 PUSH1 0x20 DUP3 DUP5 SUB SLT ISZERO PUSH2 0x990 JUMPI PUSH2 0x98F PUSH2 0xF84 JUMP JUMPDEST JUMPDEST PUSH1 0x0 PUSH2 0x99E DUP5 DUP3 DUP6 ADD PUSH2 0x950 JUMP JUMPDEST SWAP2 POP POP SWAP3 SWAP2 POP POP JUMP JUMPDEST PUSH1 0x0 DUP1 PUSH1 0x0 DUP1 PUSH1 0x80 DUP6 DUP8 SUB SLT ISZERO PUSH2 0x9C1 JUMPI PUSH2 0x9C0 PUSH2 0xF84 JUMP JUMPDEST JUMPDEST PUSH1 0x0 PUSH2 0x9CF DUP8 DUP3 DUP9 ADD PUSH2 0x965 JUMP JUMPDEST SWAP5 POP POP PUSH1 0x20 DUP6 ADD CALLDATALOAD PUSH8 0xFFFFFFFFFFFFFFFF DUP2 GT ISZERO PUSH2 0x9F0 JUMPI PUSH2 0x9EF PUSH2 0xF7F JUMP JUMPDEST JUMPDEST PUSH2 0x9FC DUP8 DUP3 DUP9 ADD PUSH2 0x8DF JUMP JUMPDEST SWAP4 POP POP PUSH1 0x40 DUP6 ADD CALLDATALOAD PUSH8 0xFFFFFFFFFFFFFFFF DUP2 GT ISZERO PUSH2 0xA1D JUMPI PUSH2 0xA1C PUSH2 0xF7F JUMP JUMPDEST JUMPDEST PUSH2 0xA29 DUP8 DUP3 DUP9 ADD PUSH2 0x8B1 JUMP JUMPDEST SWAP3 POP POP PUSH1 0x60 PUSH2 0xA3A DUP8 DUP3 DUP9 ADD PUSH2 0x89C JUMP JUMPDEST SWAP2 POP POP SWAP3 SWAP6 SWAP2 SWAP5 POP SWAP3 POP JUMP JUMPDEST PUSH2 0xA4F DUP2 PUSH2 0xDF8 JUMP JUMPDEST DUP3 MSTORE POP POP JUMP JUMPDEST PUSH1 0x0 PUSH2 0xA60 DUP3 PUSH2 0xD3A JUMP JUMPDEST PUSH2 0xA6A DUP2 DUP6 PUSH2 0xD45 JUMP JUMPDEST SWAP4 POP PUSH2 0xA7A DUP2 DUP6 PUSH1 0x20 DUP7 ADD PUSH2 0xE4D JUMP JUMPDEST PUSH2 0xA83 DUP2 PUSH2 0xF89 JUMP JUMPDEST DUP5 ADD SWAP2 POP POP SWAP3 SWAP2 POP POP JUMP JUMPDEST PUSH1 0x0 PUSH2 0xA9B PUSH1 0x31 DUP4 PUSH2 0xD45 JUMP JUMPDEST SWAP2 POP PUSH2 0xAA6 DUP3 PUSH2 0xF9A JUMP JUMPDEST PUSH1 0x40 DUP3 ADD SWAP1 POP SWAP2 SWAP1 POP JUMP JUMPDEST PUSH1 0x0 PUSH2 0xABE PUSH1 0x2B DUP4 PUSH2 0xD45 JUMP JUMPDEST SWAP2 POP PUSH2 0xAC9 DUP3 PUSH2 0xFE9 JUMP JUMPDEST PUSH1 0x40 DUP3 ADD SWAP1 POP SWAP2 SWAP1 POP JUMP JUMPDEST PUSH1 0x0 PUSH2 0xAE1 PUSH1 0x50 DUP4 PUSH2 0xD45 JUMP JUMPDEST SWAP2 POP PUSH2 0xAEC DUP3 PUSH2 0x1038 JUMP JUMPDEST PUSH1 0x60 DUP3 ADD SWAP1 POP SWAP2 SWAP1 POP JUMP JUMPDEST PUSH1 0x0 PUSH2 0xB04 PUSH1 0x32 DUP4 PUSH2 0xD45 JUMP JUMPDEST SWAP2 POP PUSH2 0xB0F DUP3 PUSH2 0x10AD JUMP JUMPDEST PUSH1 0x40 DUP3 ADD SWAP1 POP SWAP2 SWAP1 POP JUMP JUMPDEST PUSH2 0xB23 DUP2 PUSH2 0xE24 JUMP JUMPDEST DUP3 MSTORE POP POP JUMP JUMPDEST PUSH2 0xB32 DUP2 PUSH2 0xE2E JUMP JUMPDEST DUP3 MSTORE POP POP JUMP JUMPDEST PUSH1 0x0 PUSH1 0x20 DUP3 ADD SWAP1 POP PUSH2 0xB4D PUSH1 0x0 DUP4 ADD DUP5 PUSH2 0xA46 JUMP JUMPDEST SWAP3 SWAP2 POP POP JUMP JUMPDEST PUSH1 0x0 PUSH1 0x20 DUP3 ADD SWAP1 POP DUP2 DUP2 SUB PUSH1 0x0 DUP4 ADD MSTORE PUSH2 0xB6D DUP2 DUP5 PUSH2 0xA55 JUMP JUMPDEST SWAP1 POP SWAP3 SWAP2 POP POP JUMP JUMPDEST PUSH1 0x0 PUSH1 0x20 DUP3 ADD SWAP1 POP DUP2 DUP2 SUB PUSH1 0x0 DUP4 ADD MSTORE PUSH2 0xB8E DUP2 PUSH2 0xA8E JUMP JUMPDEST SWAP1 POP SWAP2 SWAP1 POP JUMP JUMPDEST PUSH1 0x0 PUSH1 0x20 DUP3 ADD SWAP1 POP DUP2 DUP2 SUB PUSH1 0x0 DUP4 ADD MSTORE PUSH2 0xBAE DUP2 PUSH2 0xAB1 JUMP JUMPDEST SWAP1 POP SWAP2 SWAP1 POP JUMP JUMPDEST PUSH1 0x0 PUSH1 0x20 DUP3 ADD SWAP1 POP DUP2 DUP2 SUB PUSH1 0x0 DUP4 ADD MSTORE PUSH2 0xBCE DUP2 PUSH2 0xAD4 JUMP JUMPDEST SWAP1 POP SWAP2 SWAP1 POP JUMP JUMPDEST PUSH1 0x0 PUSH1 0x20 DUP3 ADD SWAP1 POP DUP2 DUP2 SUB PUSH1 0x0 DUP4 ADD MSTORE PUSH2 0xBEE DUP2 PUSH2 0xAF7 JUMP JUMPDEST SWAP1 POP SWAP2 SWAP1 POP JUMP JUMPDEST PUSH1 0x0 PUSH1 0x40 DUP3 ADD SWAP1 POP PUSH2 0xC0A PUSH1 0x0 DUP4 ADD DUP6 PUSH2 0xB1A JUMP JUMPDEST PUSH2 0xC17 PUSH1 0x20 DUP4 ADD DUP5 PUSH2 0xB1A JUMP JUMPDEST SWAP4 SWAP3 POP POP POP JUMP JUMPDEST PUSH1 0x0 PUSH1 0x80 DUP3 ADD SWAP1 POP PUSH2 0xC33 PUSH1 0x0 DUP4 ADD DUP8 PUSH2 0xB1A JUMP JUMPDEST PUSH2 0xC40 PUSH1 0x20 DUP4 ADD DUP7 PUSH2 0xB1A JUMP JUMPDEST PUSH2 0xC4D PUSH1 0x40 DUP4 ADD DUP6 PUSH2 0xB1A JUMP JUMPDEST PUSH2 0xC5A PUSH1 0x60 DUP4 ADD DUP5 PUSH2 0xB1A JUMP JUMPDEST SWAP6 SWAP5 POP POP POP POP POP JUMP JUMPDEST PUSH1 0x0 PUSH1 0x40 DUP3 ADD SWAP1 POP PUSH2 0xC78 PUSH1 0x0 DUP4 ADD DUP6 PUSH2 0xB29 JUMP JUMPDEST PUSH2 0xC85 PUSH1 0x20 DUP4 ADD DUP5 PUSH2 0xB29 JUMP JUMPDEST SWAP4 SWAP3 POP POP POP JUMP JUMPDEST PUSH1 0x0 PUSH2 0xC96 PUSH2 0xCA7 JUMP JUMPDEST SWAP1 POP PUSH2 0xCA2 DUP3 DUP3 PUSH2 0xEB2 JUMP JUMPDEST SWAP2 SWAP1 POP JUMP JUMPDEST PUSH1 0x0 PUSH1 0x40 MLOAD SWAP1 POP SWAP1 JUMP JUMPDEST PUSH1 0x0 PUSH8 0xFFFFFFFFFFFFFFFF DUP3 GT ISZERO PUSH2 0xCCC JUMPI PUSH2 0xCCB PUSH2 0xF41 JUMP JUMPDEST JUMPDEST PUSH1 0x20 DUP3 MUL SWAP1 POP PUSH1 0x20 DUP2 ADD SWAP1 POP SWAP2 SWAP1 POP JUMP JUMPDEST PUSH1 0x0 PUSH8 0xFFFFFFFFFFFFFFFF DUP3 GT ISZERO PUSH2 0xCF8 JUMPI PUSH2 0xCF7 PUSH2 0xF41 JUMP JUMPDEST JUMPDEST PUSH1 0x20 DUP3 MUL SWAP1 POP PUSH1 0x20 DUP2 ADD SWAP1 POP SWAP2 SWAP1 POP JUMP JUMPDEST PUSH1 0x0 PUSH8 0xFFFFFFFFFFFFFFFF DUP3 GT ISZERO PUSH2 0xD24 JUMPI PUSH2 0xD23 PUSH2 0xF41 JUMP JUMPDEST JUMPDEST PUSH2 0xD2D DUP3 PUSH2 0xF89 JUMP JUMPDEST SWAP1 POP PUSH1 0x20 DUP2 ADD SWAP1 POP SWAP2 SWAP1 POP JUMP JUMPDEST PUSH1 0x0 DUP2 MLOAD SWAP1 POP SWAP2 SWAP1 POP JUMP JUMPDEST PUSH1 0x0 DUP3 DUP3 MSTORE PUSH1 0x20 DUP3 ADD SWAP1 POP SWAP3 SWAP2 POP POP JUMP JUMPDEST PUSH1 0x0 PUSH2 0xD61 DUP3 PUSH2 0xE24 JUMP JUMPDEST SWAP2 POP PUSH2 0xD6C DUP4 PUSH2 0xE24 JUMP JUMPDEST SWAP3 POP DUP3 PUSH32 0xFFFFFFFFFFFFFFFFFFFFFFFFFFFFFFFFFFFFFFFFFFFFFFFFFFFFFFFFFFFFFFFF SUB DUP3 GT ISZERO PUSH2 0xDA1 JUMPI PUSH2 0xDA0 PUSH2 0xEE3 JUMP JUMPDEST JUMPDEST DUP3 DUP3 ADD SWAP1 POP SWAP3 SWAP2 POP POP JUMP JUMPDEST PUSH1 0x0 PUSH2 0xDB7 DUP3 PUSH2 0xE2E JUMP JUMPDEST SWAP2 POP PUSH2 0xDC2 DUP4 PUSH2 0xE2E JUMP JUMPDEST SWAP3 POP DUP3 PUSH4 0xFFFFFFFF SUB DUP3 GT ISZERO PUSH2 0xDDB JUMPI PUSH2 0xDDA PUSH2 0xEE3 JUMP JUMPDEST JUMPDEST DUP3 DUP3 ADD SWAP1 POP SWAP3 SWAP2 POP POP JUMP JUMPDEST PUSH1 0x0 PUSH2 0xDF1 DUP3 PUSH2 0xE04 JUMP JUMPDEST SWAP1 POP SWAP2 SWAP1 POP JUMP JUMPDEST PUSH1 0x0 DUP2 ISZERO ISZERO SWAP1 POP SWAP2 SWAP1 POP JUMP JUMPDEST PUSH1 0x0 PUSH20 0xFFFFFFFFFFFFFFFFFFFFFFFFFFFFFFFFFFFFFFFF DUP3 AND SWAP1 POP SWAP2 SWAP1 POP JUMP JUMPDEST PUSH1 0x0 DUP2 SWAP1 POP SWAP2 SWAP1 POP JUMP JUMPDEST PUSH1 0x0 PUSH4 0xFFFFFFFF DUP3 AND SWAP1 POP SWAP2 SWAP1 POP JUMP JUMPDEST DUP3 DUP2 DUP4 CALLDATACOPY PUSH1 0x0 DUP4 DUP4 ADD MSTORE POP POP POP JUMP JUMPDEST PUSH1 0x0 JUMPDEST DUP4 DUP2 LT ISZERO PUSH2 0xE6B JUMPI DUP1 DUP3 ADD MLOAD DUP2 DUP5 ADD MSTORE PUSH1 0x20 DUP2 ADD SWAP1 POP PUSH2 0xE50 JUMP JUMPDEST DUP4 DUP2 GT ISZERO PUSH2 0xE7A JUMPI PUSH1 0x0 DUP5 DUP5 ADD MSTORE JUMPDEST POP POP POP POP JUMP JUMPDEST PUSH1 0x0 PUSH1 0x2 DUP3 DIV SWAP1 POP PUSH1 0x1 DUP3 AND DUP1 PUSH2 0xE98 JUMPI PUSH1 0x7F DUP3 AND SWAP2 POP JUMPDEST PUSH1 0x20 DUP3 LT DUP2 EQ ISZERO PUSH2 0xEAC JUMPI PUSH2 0xEAB PUSH2 0xF12 JUMP JUMPDEST JUMPDEST POP SWAP2 SWAP1 POP JUMP JUMPDEST PUSH2 0xEBB DUP3 PUSH2 0xF89 JUMP JUMPDEST DUP2 ADD DUP2 DUP2 LT PUSH8 0xFFFFFFFFFFFFFFFF DUP3 GT OR ISZERO PUSH2 0xEDA JUMPI PUSH2 0xED9 PUSH2 0xF41 JUMP JUMPDEST JUMPDEST DUP1 PUSH1 0x40 MSTORE POP POP POP JUMP JUMPDEST PUSH32 0x4E487B7100000000000000000000000000000000000000000000000000000000 PUSH1 0x0 MSTORE PUSH1 0x11 PUSH1 0x4 MSTORE PUSH1 0x24 PUSH1 0x0 REVERT JUMPDEST PUSH32 0x4E487B7100000000000000000000000000000000000000000000000000000000 PUSH1 0x0 MSTORE PUSH1 0x22 PUSH1 0x4 MSTORE PUSH1 0x24 PUSH1 0x0 REVERT JUMPDEST PUSH32 0x4E487B7100000000000000000000000000000000000000000000000000000000 PUSH1 0x0 MSTORE PUSH1 0x41 PUSH1 0x4 MSTORE PUSH1 0x24 PUSH1 0x0 REVERT JUMPDEST PUSH1 0x0 DUP1 REVERT JUMPDEST PUSH1 0x0 DUP1 REVERT JUMPDEST PUSH1 0x0 DUP1 REVERT JUMPDEST PUSH1 0x0 DUP1 REVERT JUMPDEST PUSH1 0x0 DUP1 REVERT JUMPDEST PUSH1 0x0 PUSH1 0x1F NOT PUSH1 0x1F DUP4 ADD AND SWAP1 POP SWAP2 SWAP1 POP JUMP JUMPDEST PUSH32 0x596F752068617665206E6F207065726D697373696F6E20746F20706572666F72 PUSH1 0x0 DUP3 ADD MSTORE PUSH32 0x6D2074686973206F7065726174696F6E2E000000000000000000000000000000 PUSH1 0x20 DUP3 ADD MSTORE POP JUMP JUMPDEST PUSH32 0x5375636365737320657865637574696F6E20696E207265717565737444656C69 PUSH1 0x0 DUP3 ADD MSTORE PUSH32 0x7665727920636C61757365000000000000000000000000000000000000000000 PUSH1 0x20 DUP3 ADD MSTORE POP JUMP JUMPDEST PUSH32 0x52657175657374206F7065726174696F6E20706572666F726D6564206F757473 PUSH1 0x0 DUP3 ADD MSTORE PUSH32 0x696465206F6620616C6C6F77656420686F757273206F72206C696D6974206F70 PUSH1 0x20 DUP3 ADD MSTORE PUSH32 0x65726174696F6E20657863656564656400000000000000000000000000000000 PUSH1 0x40 DUP3 ADD MSTORE POP JUMP JUMPDEST PUSH32 0x457863656564656420726573706F6E73652074696D65206F72206D6573736167 PUSH1 0x0 DUP3 ADD MSTORE PUSH32 0x6520636F6E74656E74206D69736D617463680000000000000000000000000000 PUSH1 0x20 DUP3 ADD MSTORE POP JUMP JUMPDEST PUSH2 0x1105 DUP2 PUSH2 0xDE6 JUMP JUMPDEST DUP2 EQ PUSH2 0x1110 JUMPI PUSH1 0x0 DUP1 REVERT JUMPDEST POP JUMP JUMPDEST PUSH2 0x111C DUP2 PUSH2 0xDF8 JUMP JUMPDEST DUP2 EQ PUSH2 0x1127 JUMPI PUSH1 0x0 DUP1 REVERT JUMPDEST POP JUMP JUMPDEST PUSH2 0x1133 DUP2 PUSH2 0xE24 JUMP JUMPDEST DUP2 EQ PUSH2 0x113E JUMPI PUSH1 0x0 DUP1 REVERT JUMPDEST POP JUMP JUMPDEST PUSH2 0x114A DUP2 PUSH2 0xE2E JUMP JUMPDEST DUP2 EQ PUSH2 0x1155 JUMPI PUSH1 0x0 DUP1 REVERT JUMPDEST POP JUMP INVALID LOG2 PUSH5 0x6970667358 0x22 SLT KECCAK256 REVERT PUSH28 0xD965236C2CA6FB9306A0100CC9F981DBB33BC328026FD169BFA45622 KECCAK256 0xB1 PUSH5 0x736F6C6343 STOP ADDMOD SMOD STOP CALLER "
				},
				"gasEstimates": {
					"creation": {
						"codeDepositCost": "898800",
						"executionCost": "infinite",
						"totalCost": "infinite"
					},
					"external": {
						"businessDay()": "infinite",
						"businessTime()": "infinite",
						"messageContent_request(uint256)": "infinite",
						"messageContent_response(uint256)": "infinite",
						"operationLimit()": "infinite",
						"requestDelivery(uint32,string[],bool[],address)": "infinite",
						"responderOrder(uint32,string[],bool[],address)": "infinite",
						"timeout()": "infinite"
					}
				},
				"methodIdentifiers": {
					"businessDay()": "88549585",
					"businessTime()": "31cc883c",
					"messageContent_request(uint256)": "20ac908b",
					"messageContent_response(uint256)": "f73f91bf",
					"operationLimit()": "a7339ed2",
					"requestDelivery(uint32,string[],bool[],address)": "7c6c247f",
					"responderOrder(uint32,string[],bool[],address)": "79bc473b",
					"timeout()": "70dea79a"
				}
			},
			"storageLayout": {
				"storage": [
					{
						"astId": 6,
						"contract": "DeliveryHiringRO.sol:DeliveryHiring",
						"label": "beginDate",
						"offset": 0,
						"slot": "0",
						"type": "t_uint32"
					},
					{
						"astId": 9,
						"contract": "DeliveryHiringRO.sol:DeliveryHiring",
						"label": "dueDate",
						"offset": 4,
						"slot": "0",
						"type": "t_uint32"
					},
					{
						"astId": 12,
						"contract": "DeliveryHiringRO.sol:DeliveryHiring",
						"label": "deliverySystem",
						"offset": 0,
						"slot": "1",
						"type": "t_struct(Party)2309_storage"
					},
					{
						"astId": 15,
						"contract": "DeliveryHiringRO.sol:DeliveryHiring",
						"label": "integrationProcess",
						"offset": 0,
						"slot": "3",
						"type": "t_struct(Party)2309_storage"
					},
					{
						"astId": 22,
						"contract": "DeliveryHiringRO.sol:DeliveryHiring",
						"label": "businessDay",
						"offset": 0,
						"slot": "5",
						"type": "t_struct(BusinessDay)2328_storage"
					},
					{
						"astId": 29,
						"contract": "DeliveryHiringRO.sol:DeliveryHiring",
						"label": "businessTime",
						"offset": 0,
						"slot": "7",
						"type": "t_struct(TimeInterval)2333_storage"
					},
					{
						"astId": 38,
						"contract": "DeliveryHiringRO.sol:DeliveryHiring",
						"label": "operationLimit",
						"offset": 0,
						"slot": "8",
						"type": "t_struct(OperationLimit)2318_storage"
					},
					{
						"astId": 42,
						"contract": "DeliveryHiringRO.sol:DeliveryHiring",
						"label": "messageContent_request",
						"offset": 0,
						"slot": "12",
						"type": "t_array(t_struct(MessageContent)2341_storage)dyn_storage"
					},
					{
						"astId": 49,
						"contract": "DeliveryHiringRO.sol:DeliveryHiring",
						"label": "timeout",
						"offset": 0,
						"slot": "13",
						"type": "t_struct(Timeout)2338_storage"
					},
					{
						"astId": 53,
						"contract": "DeliveryHiringRO.sol:DeliveryHiring",
						"label": "messageContent_response",
						"offset": 0,
						"slot": "14",
						"type": "t_array(t_struct(MessageContent)2341_storage)dyn_storage"
					}
				],
				"types": {
					"t_address": {
						"encoding": "inplace",
						"label": "address",
						"numberOfBytes": "20"
					},
					"t_array(t_struct(MessageContent)2341_storage)dyn_storage": {
						"base": "t_struct(MessageContent)2341_storage",
						"encoding": "dynamic_array",
						"label": "struct EAI_Domain.MessageContent[]",
						"numberOfBytes": "32"
					},
					"t_string_storage": {
						"encoding": "bytes",
						"label": "string",
						"numberOfBytes": "32"
					},
					"t_struct(BusinessDay)2328_storage": {
						"encoding": "inplace",
						"label": "struct EAI_Domain.BusinessDay",
						"members": [
							{
								"astId": 2325,
								"contract": "DeliveryHiringRO.sol:DeliveryHiring",
								"label": "weekDay_start",
								"offset": 0,
								"slot": "0",
								"type": "t_uint256"
							},
							{
								"astId": 2327,
								"contract": "DeliveryHiringRO.sol:DeliveryHiring",
								"label": "weekDay_end",
								"offset": 0,
								"slot": "1",
								"type": "t_uint256"
							}
						],
						"numberOfBytes": "64"
					},
					"t_struct(MessageContent)2341_storage": {
						"encoding": "inplace",
						"label": "struct EAI_Domain.MessageContent",
						"members": [
							{
								"astId": 2340,
								"contract": "DeliveryHiringRO.sol:DeliveryHiring",
								"label": "xPathQuery",
								"offset": 0,
								"slot": "0",
								"type": "t_string_storage"
							}
						],
						"numberOfBytes": "32"
					},
					"t_struct(OperationLimit)2318_storage": {
						"encoding": "inplace",
						"label": "struct EAI_Domain.OperationLimit",
						"members": [
							{
								"astId": 2311,
								"contract": "DeliveryHiringRO.sol:DeliveryHiring",
								"label": "requestsLimit",
								"offset": 0,
								"slot": "0",
								"type": "t_uint256"
							},
							{
								"astId": 2313,
								"contract": "DeliveryHiringRO.sol:DeliveryHiring",
								"label": "frequencyTime",
								"offset": 0,
								"slot": "1",
								"type": "t_uint256"
							},
							{
								"astId": 2315,
								"contract": "DeliveryHiringRO.sol:DeliveryHiring",
								"label": "requestsPerformed",
								"offset": 0,
								"slot": "2",
								"type": "t_uint256"
							},
							{
								"astId": 2317,
								"contract": "DeliveryHiringRO.sol:DeliveryHiring",
								"label": "timeout",
								"offset": 0,
								"slot": "3",
								"type": "t_uint256"
							}
						],
						"numberOfBytes": "128"
					},
					"t_struct(Party)2309_storage": {
						"encoding": "inplace",
						"label": "struct EAI_Domain.Party",
						"members": [
							{
								"astId": 2306,
								"contract": "DeliveryHiringRO.sol:DeliveryHiring",
								"label": "name",
								"offset": 0,
								"slot": "0",
								"type": "t_string_storage"
							},
							{
								"astId": 2308,
								"contract": "DeliveryHiringRO.sol:DeliveryHiring",
								"label": "walletAddress",
								"offset": 0,
								"slot": "1",
								"type": "t_address"
							}
						],
						"numberOfBytes": "64"
					},
					"t_struct(TimeInterval)2333_storage": {
						"encoding": "inplace",
						"label": "struct EAI_Domain.TimeInterval",
						"members": [
							{
								"astId": 2330,
								"contract": "DeliveryHiringRO.sol:DeliveryHiring",
								"label": "start",
								"offset": 0,
								"slot": "0",
								"type": "t_uint32"
							},
							{
								"astId": 2332,
								"contract": "DeliveryHiringRO.sol:DeliveryHiring",
								"label": "end",
								"offset": 4,
								"slot": "0",
								"type": "t_uint32"
							}
						],
						"numberOfBytes": "32"
					},
					"t_struct(Timeout)2338_storage": {
						"encoding": "inplace",
						"label": "struct EAI_Domain.Timeout",
						"members": [
							{
								"astId": 2335,
								"contract": "DeliveryHiringRO.sol:DeliveryHiring",
								"label": "increment",
								"offset": 0,
								"slot": "0",
								"type": "t_uint32"
							},
							{
								"astId": 2337,
								"contract": "DeliveryHiringRO.sol:DeliveryHiring",
								"label": "endTime",
								"offset": 4,
								"slot": "0",
								"type": "t_uint32"
							}
						],
						"numberOfBytes": "32"
					},
					"t_uint256": {
						"encoding": "inplace",
						"label": "uint256",
						"numberOfBytes": "32"
					},
					"t_uint32": {
						"encoding": "inplace",
						"label": "uint32",
						"numberOfBytes": "4"
					}
				}
			},
			"userdoc": {
				"kind": "user",
				"methods": {},
				"version": 1
			}
		}
	}
}