{
	"contracts/study-case-contracts/003-web-of-science/WoS_API_Expanded_basicPlan.sol": {
		"WoS_API_Expanded_basicPlan": {
			"abi": [
				{
					"inputs": [
						{
							"internalType": "address",
							"name": "_applicationWallet",
							"type": "address"
						}
					],
					"stateMutability": "nonpayable",
					"type": "constructor"
				},
				{
					"anonymous": false,
					"inputs": [
						{
							"indexed": false,
							"internalType": "string",
							"name": "_logMessage",
							"type": "string"
						}
					],
					"name": "failEvent",
					"type": "event"
				},
				{
					"anonymous": false,
					"inputs": [
						{
							"indexed": false,
							"internalType": "string",
							"name": "_logMessage",
							"type": "string"
						}
					],
					"name": "successEvent",
					"type": "event"
				},
				{
					"inputs": [
						{
							"internalType": "string",
							"name": "_name",
							"type": "string"
						},
						{
							"internalType": "address",
							"name": "_walletAddress",
							"type": "address"
						}
					],
					"name": "changeApplicationParty",
					"outputs": [
						{
							"internalType": "bool",
							"name": "",
							"type": "bool"
						}
					],
					"stateMutability": "nonpayable",
					"type": "function"
				},
				{
					"inputs": [],
					"name": "getApplicationAddress",
					"outputs": [
						{
							"internalType": "address",
							"name": "",
							"type": "address"
						}
					],
					"stateMutability": "view",
					"type": "function"
				},
				{
					"inputs": [
						{
							"internalType": "address",
							"name": "_walletAddress",
							"type": "address"
						}
					],
					"name": "getParty",
					"outputs": [
						{
							"components": [
								{
									"internalType": "string",
									"name": "name",
									"type": "string"
								},
								{
									"internalType": "address",
									"name": "walletAddress",
									"type": "address"
								},
								{
									"internalType": "bool",
									"name": "aware",
									"type": "bool"
								}
							],
							"internalType": "struct EAI.Party",
							"name": "",
							"type": "tuple"
						}
					],
					"stateMutability": "view",
					"type": "function"
				},
				{
					"inputs": [],
					"name": "getProcessAddress",
					"outputs": [
						{
							"internalType": "address",
							"name": "",
							"type": "address"
						}
					],
					"stateMutability": "view",
					"type": "function"
				},
				{
					"inputs": [
						{
							"internalType": "uint32",
							"name": "_accessDateTime",
							"type": "uint32"
						}
					],
					"name": "obligation_responseWithDocuments",
					"outputs": [
						{
							"internalType": "bool",
							"name": "",
							"type": "bool"
						}
					],
					"stateMutability": "nonpayable",
					"type": "function"
				},
				{
					"inputs": [
						{
							"internalType": "uint32",
							"name": "_accessDateTime",
							"type": "uint32"
						},
						{
							"internalType": "int256[]",
							"name": "_resultFromXpath_n",
							"type": "int256[]"
						},
						{
							"internalType": "uint256[]",
							"name": "_resultFromXpath_npt",
							"type": "uint256[]"
						}
					],
					"name": "right_requestDocuments",
					"outputs": [
						{
							"internalType": "bool",
							"name": "",
							"type": "bool"
						}
					],
					"stateMutability": "nonpayable",
					"type": "function"
				},
				{
					"inputs": [],
					"name": "signContract",
					"outputs": [
						{
							"internalType": "bool",
							"name": "",
							"type": "bool"
						}
					],
					"stateMutability": "nonpayable",
					"type": "function"
				}
			],
			"devdoc": {
				"kind": "dev",
				"methods": {},
				"version": 1
			},
			"evm": {
				"assembly": "    /* \"contracts/study-case-contracts/003-web-of-science/WoS_API_Expanded_basicPlan.sol\":190:7096  contract WoS_API_Expanded_basicPlan {... */\n  mstore(0x40, 0x80)\n    /* \"contracts/study-case-contracts/003-web-of-science/WoS_API_Expanded_basicPlan.sol\":1855:2967  constructor(address _applicationWallet){... */\n  callvalue\n  dup1\n  iszero\n  tag_1\n  jumpi\n  0x00\n  dup1\n  revert\ntag_1:\n  pop\n  mload(0x40)\n  sub(codesize, bytecodeSize)\n  dup1\n  bytecodeSize\n  dup4\n  codecopy\n  dup2\n  dup2\n  add\n  0x40\n  mstore\n  dup2\n  add\n  swap1\n  tag_2\n  swap2\n  swap1\n  tag_3\n  jump\t// in\ntag_2:\n    /* \"contracts/study-case-contracts/003-web-of-science/WoS_API_Expanded_basicPlan.sol\":1922:1926  true */\n  0x01\n    /* \"contracts/study-case-contracts/003-web-of-science/WoS_API_Expanded_basicPlan.sol\":1910:1919  activated */\n  0x00\n  dup1\n    /* \"contracts/study-case-contracts/003-web-of-science/WoS_API_Expanded_basicPlan.sol\":1910:1926  activated = true */\n  0x0100\n  exp\n  dup2\n  sload\n  dup2\n  0xff\n  mul\n  not\n  and\n  swap1\n  dup4\n  iszero\n  iszero\n  mul\n  or\n  swap1\n  sstore\n  pop\n    /* \"contracts/study-case-contracts/003-web-of-science/WoS_API_Expanded_basicPlan.sol\":2000:2010  1672560000 */\n  0x63b13d80\n    /* \"contracts/study-case-contracts/003-web-of-science/WoS_API_Expanded_basicPlan.sol\":1988:1997  beginDate */\n  0x00\n  0x01\n    /* \"contracts/study-case-contracts/003-web-of-science/WoS_API_Expanded_basicPlan.sol\":1988:2010  beginDate = 1672560000 */\n  0x0100\n  exp\n  dup2\n  sload\n  dup2\n  0xffffffff\n  mul\n  not\n  and\n  swap1\n  dup4\n  0xffffffff\n  and\n  mul\n  or\n  swap1\n  sstore\n  pop\n    /* \"contracts/study-case-contracts/003-web-of-science/WoS_API_Expanded_basicPlan.sol\":2053:2063  1704045600 */\n  0x6591ac20\n    /* \"contracts/study-case-contracts/003-web-of-science/WoS_API_Expanded_basicPlan.sol\":2043:2050  dueDate */\n  0x00\n  0x05\n    /* \"contracts/study-case-contracts/003-web-of-science/WoS_API_Expanded_basicPlan.sol\":2043:2063  dueDate = 1704045600 */\n  0x0100\n  exp\n  dup2\n  sload\n  dup2\n  0xffffffff\n  mul\n  not\n  and\n  swap1\n  dup4\n  0xffffffff\n  and\n  mul\n  or\n  swap1\n  sstore\n  pop\n    /* \"contracts/study-case-contracts/003-web-of-science/WoS_API_Expanded_basicPlan.sol\":2182:2242  EAI.createParty(\"Web Of Science\", _applicationWallet, false) */\n  tag_6\n  mload(0x40)\n  dup1\n  0x40\n  add\n  0x40\n  mstore\n  dup1\n  0x0e\n  dup2\n  mstore\n  0x20\n  add\n  0x576562204f6620536369656e6365000000000000000000000000000000000000\n  dup2\n  mstore\n  pop\n    /* \"contracts/study-case-contracts/003-web-of-science/WoS_API_Expanded_basicPlan.sol\":2216:2234  _applicationWallet */\n  dup3\n    /* \"contracts/study-case-contracts/003-web-of-science/WoS_API_Expanded_basicPlan.sol\":2236:2241  false */\n  0x00\n    /* \"contracts/study-case-contracts/003-web-of-science/WoS_API_Expanded_basicPlan.sol\":2182:2197  EAI.createParty */\n  or(tag_0_43, shl(0x20, tag_7))\n    /* \"contracts/study-case-contracts/003-web-of-science/WoS_API_Expanded_basicPlan.sol\":2182:2242  EAI.createParty(\"Web Of Science\", _applicationWallet, false) */\n  0x20\n  shr\n  jump\t// in\ntag_6:\n    /* \"contracts/study-case-contracts/003-web-of-science/WoS_API_Expanded_basicPlan.sol\":2168:2179  application */\n  0x01\n    /* \"contracts/study-case-contracts/003-web-of-science/WoS_API_Expanded_basicPlan.sol\":2168:2242  application = EAI.createParty(\"Web Of Science\", _applicationWallet, false) */\n  0x00\n  dup3\n  add\n  mload\n  dup2\n  0x00\n  add\n  swap1\n  dup1\n  mload\n  swap1\n  0x20\n  add\n  swap1\n  tag_8\n  swap3\n  swap2\n  swap1\n  tag_9\n  jump\t// in\ntag_8:\n  pop\n  0x20\n  dup3\n  add\n  mload\n  dup2\n  0x01\n  add\n  exp(0x0100, 0x00)\n  dup2\n  sload\n  dup2\n  0xffffffffffffffffffffffffffffffffffffffff\n  mul\n  not\n  and\n  swap1\n  dup4\n  0xffffffffffffffffffffffffffffffffffffffff\n  and\n  mul\n  or\n  swap1\n  sstore\n  pop\n  0x40\n  dup3\n  add\n  mload\n  dup2\n  0x01\n  add\n  exp(0x0100, 0x14)\n  dup2\n  sload\n  dup2\n  0xff\n  mul\n  not\n  and\n  swap1\n  dup4\n  iszero\n  iszero\n  mul\n  or\n  swap1\n  sstore\n  pop\n  swap1\n  pop\n  pop\n    /* \"contracts/study-case-contracts/003-web-of-science/WoS_API_Expanded_basicPlan.sol\":2295:2351  EAI.createParty(\"Integration Process\", msg.sender, true) */\n  tag_10\n  mload(0x40)\n  dup1\n  0x40\n  add\n  0x40\n  mstore\n  dup1\n  0x13\n  dup2\n  mstore\n  0x20\n  add\n  0x496e746567726174696f6e2050726f6365737300000000000000000000000000\n  dup2\n  mstore\n  pop\n    /* \"contracts/study-case-contracts/003-web-of-science/WoS_API_Expanded_basicPlan.sol\":2334:2344  msg.sender */\n  caller\n    /* \"contracts/study-case-contracts/003-web-of-science/WoS_API_Expanded_basicPlan.sol\":2346:2350  true */\n  0x01\n    /* \"contracts/study-case-contracts/003-web-of-science/WoS_API_Expanded_basicPlan.sol\":2295:2310  EAI.createParty */\n  or(tag_0_43, shl(0x20, tag_7))\n    /* \"contracts/study-case-contracts/003-web-of-science/WoS_API_Expanded_basicPlan.sol\":2295:2351  EAI.createParty(\"Integration Process\", msg.sender, true) */\n  0x20\n  shr\n  jump\t// in\ntag_10:\n    /* \"contracts/study-case-contracts/003-web-of-science/WoS_API_Expanded_basicPlan.sol\":2285:2292  process */\n  0x03\n    /* \"contracts/study-case-contracts/003-web-of-science/WoS_API_Expanded_basicPlan.sol\":2285:2351  process = EAI.createParty(\"Integration Process\", msg.sender, true) */\n  0x00\n  dup3\n  add\n  mload\n  dup2\n  0x00\n  add\n  swap1\n  dup1\n  mload\n  swap1\n  0x20\n  add\n  swap1\n  tag_11\n  swap3\n  swap2\n  swap1\n  tag_9\n  jump\t// in\ntag_11:\n  pop\n  0x20\n  dup3\n  add\n  mload\n  dup2\n  0x01\n  add\n  exp(0x0100, 0x00)\n  dup2\n  sload\n  dup2\n  0xffffffffffffffffffffffffffffffffffffffff\n  mul\n  not\n  and\n  swap1\n  dup4\n  0xffffffffffffffffffffffffffffffffffffffff\n  and\n  mul\n  or\n  swap1\n  sstore\n  pop\n  0x40\n  dup3\n  add\n  mload\n  dup2\n  0x01\n  add\n  exp(0x0100, 0x14)\n  dup2\n  sload\n  dup2\n  0xff\n  mul\n  not\n  and\n  swap1\n  dup4\n  iszero\n  iszero\n  mul\n  or\n  swap1\n  sstore\n  pop\n  swap1\n  pop\n  pop\n    /* \"contracts/study-case-contracts/003-web-of-science/WoS_API_Expanded_basicPlan.sol\":2426:2433  process */\n  0x03\n    /* \"contracts/study-case-contracts/003-web-of-science/WoS_API_Expanded_basicPlan.sol\":2403:2411  mapParty */\n  0x05\n    /* \"contracts/study-case-contracts/003-web-of-science/WoS_API_Expanded_basicPlan.sol\":2403:2423  mapParty[msg.sender] */\n  0x00\n    /* \"contracts/study-case-contracts/003-web-of-science/WoS_API_Expanded_basicPlan.sol\":2412:2422  msg.sender */\n  caller\n    /* \"contracts/study-case-contracts/003-web-of-science/WoS_API_Expanded_basicPlan.sol\":2403:2423  mapParty[msg.sender] */\n  0xffffffffffffffffffffffffffffffffffffffff\n  and\n  0xffffffffffffffffffffffffffffffffffffffff\n  and\n  dup2\n  mstore\n  0x20\n  add\n  swap1\n  dup2\n  mstore\n  0x20\n  add\n  0x00\n  keccak256\n    /* \"contracts/study-case-contracts/003-web-of-science/WoS_API_Expanded_basicPlan.sol\":2403:2433  mapParty[msg.sender] = process */\n  0x00\n  dup3\n  add\n  dup2\n  0x00\n  add\n  swap1\n  dup1\n  sload\n  tag_12\n  swap1\n  tag_13\n  jump\t// in\ntag_12:\n  tag_14\n  swap3\n  swap2\n  swap1\n  tag_15\n  jump\t// in\ntag_14:\n  pop\n  0x01\n  dup3\n  add\n  0x00\n  swap1\n  sload\n  swap1\n  0x0100\n  exp\n  swap1\n  div\n  0xffffffffffffffffffffffffffffffffffffffff\n  and\n  dup2\n  0x01\n  add\n  exp(0x0100, 0x00)\n  dup2\n  sload\n  dup2\n  0xffffffffffffffffffffffffffffffffffffffff\n  mul\n  not\n  and\n  swap1\n  dup4\n  0xffffffffffffffffffffffffffffffffffffffff\n  and\n  mul\n  or\n  swap1\n  sstore\n  pop\n  0x01\n  dup3\n  add\n  0x14\n  swap1\n  sload\n  swap1\n  0x0100\n  exp\n  swap1\n  div\n  0xff\n  and\n  dup2\n  0x01\n  add\n  exp(0x0100, 0x14)\n  dup2\n  sload\n  dup2\n  0xff\n  mul\n  not\n  and\n  swap1\n  dup4\n  iszero\n  iszero\n  mul\n  or\n  swap1\n  sstore\n  pop\n  swap1\n  pop\n  pop\n    /* \"contracts/study-case-contracts/003-web-of-science/WoS_API_Expanded_basicPlan.sol\":2475:2486  application */\n  0x01\n    /* \"contracts/study-case-contracts/003-web-of-science/WoS_API_Expanded_basicPlan.sol\":2444:2452  mapParty */\n  0x05\n    /* \"contracts/study-case-contracts/003-web-of-science/WoS_API_Expanded_basicPlan.sol\":2444:2472  mapParty[_applicationWallet] */\n  0x00\n    /* \"contracts/study-case-contracts/003-web-of-science/WoS_API_Expanded_basicPlan.sol\":2453:2471  _applicationWallet */\n  dup4\n    /* \"contracts/study-case-contracts/003-web-of-science/WoS_API_Expanded_basicPlan.sol\":2444:2472  mapParty[_applicationWallet] */\n  0xffffffffffffffffffffffffffffffffffffffff\n  and\n  0xffffffffffffffffffffffffffffffffffffffff\n  and\n  dup2\n  mstore\n  0x20\n  add\n  swap1\n  dup2\n  mstore\n  0x20\n  add\n  0x00\n  keccak256\n    /* \"contracts/study-case-contracts/003-web-of-science/WoS_API_Expanded_basicPlan.sol\":2444:2486  mapParty[_applicationWallet] = application */\n  0x00\n  dup3\n  add\n  dup2\n  0x00\n  add\n  swap1\n  dup1\n  sload\n  tag_16\n  swap1\n  tag_13\n  jump\t// in\ntag_16:\n  tag_17\n  swap3\n  swap2\n  swap1\n  tag_15\n  jump\t// in\ntag_17:\n  pop\n  0x01\n  dup3\n  add\n  0x00\n  swap1\n  sload\n  swap1\n  0x0100\n  exp\n  swap1\n  div\n  0xffffffffffffffffffffffffffffffffffffffff\n  and\n  dup2\n  0x01\n  add\n  exp(0x0100, 0x00)\n  dup2\n  sload\n  dup2\n  0xffffffffffffffffffffffffffffffffffffffff\n  mul\n  not\n  and\n  swap1\n  dup4\n  0xffffffffffffffffffffffffffffffffffffffff\n  and\n  mul\n  or\n  swap1\n  sstore\n  pop\n  0x01\n  dup3\n  add\n  0x14\n  swap1\n  sload\n  swap1\n  0x0100\n  exp\n  swap1\n  div\n  0xff\n  and\n  dup2\n  0x01\n  add\n  exp(0x0100, 0x14)\n  dup2\n  sload\n  dup2\n  0xff\n  mul\n  not\n  and\n  swap1\n  dup4\n  iszero\n  iszero\n  mul\n  or\n  swap1\n  sstore\n  pop\n  swap1\n  pop\n  pop\n    /* \"contracts/study-case-contracts/003-web-of-science/WoS_API_Expanded_basicPlan.sol\":2607:2636  maxNumberOfOperationByTime_C1 */\n  0x06\n    /* \"contracts/study-case-contracts/003-web-of-science/WoS_API_Expanded_basicPlan.sol\":2642:2693  EAI.createMaxNumberOfOperationByTime(2, EAI.SECOND) */\n  tag_18\n    /* \"contracts/study-case-contracts/003-web-of-science/WoS_API_Expanded_basicPlan.sol\":2679:2680  2 */\n  0x02\n    /* \"contracts/lib/eai/EAI.sol\":754:755  0 */\n  0x00\n    /* \"contracts/study-case-contracts/003-web-of-science/WoS_API_Expanded_basicPlan.sol\":2642:2678  EAI.createMaxNumberOfOperationByTime */\n  or(tag_0_44, shl(0x20, tag_19))\n    /* \"contracts/study-case-contracts/003-web-of-science/WoS_API_Expanded_basicPlan.sol\":2642:2693  EAI.createMaxNumberOfOperationByTime(2, EAI.SECOND) */\n  0x20\n  shr\n  jump\t// in\ntag_18:\n    /* \"contracts/study-case-contracts/003-web-of-science/WoS_API_Expanded_basicPlan.sol\":2607:2694  maxNumberOfOperationByTime_C1.push(EAI.createMaxNumberOfOperationByTime(2, EAI.SECOND)) */\n  swap1\n  dup1\n  0x01\n  dup2\n  sload\n  add\n  dup1\n  dup3\n  sstore\n  dup1\n  swap2\n  pop\n  pop\n  0x01\n  swap1\n  sub\n  swap1\n  0x00\n  mstore\n  keccak256(0x00, 0x20)\n  add\n  0x00\n  swap1\n  swap2\n  swap1\n  swap2\n  swap1\n  swap2\n  pop\n  0x00\n  dup3\n  add\n  mload\n  dup2\n  0x00\n  add\n  exp(0x0100, 0x00)\n  dup2\n  sload\n  dup2\n  0xffffffff\n  mul\n  not\n  and\n  swap1\n  dup4\n  0xffffffff\n  and\n  mul\n  or\n  swap1\n  sstore\n  pop\n  0x20\n  dup3\n  add\n  mload\n  dup2\n  0x00\n  add\n  exp(0x0100, 0x04)\n  dup2\n  sload\n  dup2\n  0xff\n  mul\n  not\n  and\n  swap1\n  dup4\n  0xff\n  and\n  mul\n  or\n  swap1\n  sstore\n  pop\n  0x40\n  dup3\n  add\n  mload\n  dup2\n  0x00\n  add\n  exp(0x0100, 0x05)\n  dup2\n  sload\n  dup2\n  0xffffffff\n  mul\n  not\n  and\n  swap1\n  dup4\n  0xffffffff\n  and\n  mul\n  or\n  swap1\n  sstore\n  pop\n  0x60\n  dup3\n  add\n  mload\n  dup2\n  0x00\n  add\n  exp(0x0100, 0x09)\n  dup2\n  sload\n  dup2\n  0xffffffff\n  mul\n  not\n  and\n  swap1\n  dup4\n  0xffffffff\n  and\n  mul\n  or\n  swap1\n  sstore\n  pop\n  0x80\n  dup3\n  add\n  mload\n  dup2\n  0x00\n  add\n  exp(0x0100, 0x0d)\n  dup2\n  sload\n  dup2\n  0xffffffff\n  mul\n  not\n  and\n  swap1\n  dup4\n  0xffffffff\n  and\n  mul\n  or\n  swap1\n  sstore\n  pop\n  pop\n  pop\n    /* \"contracts/study-case-contracts/003-web-of-science/WoS_API_Expanded_basicPlan.sol\":2705:2725  msgContent_number_C1 */\n  0x07\n    /* \"contracts/study-case-contracts/003-web-of-science/WoS_API_Expanded_basicPlan.sol\":2731:2790  EAI.createMessageContent(\"count(//body/document)\",\"<=\",100) */\n  tag_21\n  mload(0x40)\n  dup1\n  0x40\n  add\n  0x40\n  mstore\n  dup1\n  0x16\n  dup2\n  mstore\n  0x20\n  add\n  0x636f756e74282f2f626f64792f646f63756d656e742900000000000000000000\n  dup2\n  mstore\n  pop\n  mload(0x40)\n  dup1\n  0x40\n  add\n  0x40\n  mstore\n  dup1\n  0x02\n  dup2\n  mstore\n  0x20\n  add\n  0x3c3d000000000000000000000000000000000000000000000000000000000000\n  dup2\n  mstore\n  pop\n    /* \"contracts/study-case-contracts/003-web-of-science/WoS_API_Expanded_basicPlan.sol\":2786:2789  100 */\n  0x64\n    /* \"contracts/study-case-contracts/003-web-of-science/WoS_API_Expanded_basicPlan.sol\":2731:2755  EAI.createMessageContent */\n  or(tag_0_45, shl(0x20, tag_22))\n    /* \"contracts/study-case-contracts/003-web-of-science/WoS_API_Expanded_basicPlan.sol\":2731:2790  EAI.createMessageContent(\"count(//body/document)\",\"<=\",100) */\n  0x20\n  shr\n  jump\t// in\ntag_21:\n    /* \"contracts/study-case-contracts/003-web-of-science/WoS_API_Expanded_basicPlan.sol\":2705:2791  msgContent_number_C1.push(EAI.createMessageContent(\"count(//body/document)\",\"<=\",100)) */\n  swap1\n  dup1\n  0x01\n  dup2\n  sload\n  add\n  dup1\n  dup3\n  sstore\n  dup1\n  swap2\n  pop\n  pop\n  0x01\n  swap1\n  sub\n  swap1\n  0x00\n  mstore\n  keccak256(0x00, 0x20)\n  swap1\n  0x03\n  mul\n  add\n  0x00\n  swap1\n  swap2\n  swap1\n  swap2\n  swap1\n  swap2\n  pop\n  0x00\n  dup3\n  add\n  mload\n  dup2\n  0x00\n  add\n  swap1\n  dup1\n  mload\n  swap1\n  0x20\n  add\n  swap1\n  tag_24\n  swap3\n  swap2\n  swap1\n  tag_9\n  jump\t// in\ntag_24:\n  pop\n  0x20\n  dup3\n  add\n  mload\n  dup2\n  0x01\n  add\n  swap1\n  dup1\n  mload\n  swap1\n  0x20\n  add\n  swap1\n  tag_25\n  swap3\n  swap2\n  swap1\n  tag_9\n  jump\t// in\ntag_25:\n  pop\n  0x40\n  dup3\n  add\n  mload\n  dup2\n  0x02\n  add\n  sstore\n  pop\n  pop\n    /* \"contracts/study-case-contracts/003-web-of-science/WoS_API_Expanded_basicPlan.sol\":2802:2829  msgContent_numberPerTime_C1 */\n  0x08\n    /* \"contracts/study-case-contracts/003-web-of-science/WoS_API_Expanded_basicPlan.sol\":2835:2908  EAI.createMessageContent(\"count(//body/document)\",\"<=\", 50000, EAI.MONTH) */\n  tag_26\n  mload(0x40)\n  dup1\n  0x40\n  add\n  0x40\n  mstore\n  dup1\n  0x16\n  dup2\n  mstore\n  0x20\n  add\n  0x636f756e74282f2f626f64792f646f63756d656e742900000000000000000000\n  dup2\n  mstore\n  pop\n  mload(0x40)\n  dup1\n  0x40\n  add\n  0x40\n  mstore\n  dup1\n  0x02\n  dup2\n  mstore\n  0x20\n  add\n  0x3c3d000000000000000000000000000000000000000000000000000000000000\n  dup2\n  mstore\n  pop\n    /* \"contracts/study-case-contracts/003-web-of-science/WoS_API_Expanded_basicPlan.sol\":2891:2896  50000 */\n  0xc350\n    /* \"contracts/lib/eai/EAI.sol\":902:903  5 */\n  0x05\n    /* \"contracts/study-case-contracts/003-web-of-science/WoS_API_Expanded_basicPlan.sol\":2835:2859  EAI.createMessageContent */\n  or(tag_0_46, shl(0x20, tag_27))\n    /* \"contracts/study-case-contracts/003-web-of-science/WoS_API_Expanded_basicPlan.sol\":2835:2908  EAI.createMessageContent(\"count(//body/document)\",\"<=\", 50000, EAI.MONTH) */\n  0x20\n  shr\n  jump\t// in\ntag_26:\n    /* \"contracts/study-case-contracts/003-web-of-science/WoS_API_Expanded_basicPlan.sol\":2802:2909  msgContent_numberPerTime_C1.push(EAI.createMessageContent(\"count(//body/document)\",\"<=\", 50000, EAI.MONTH)) */\n  swap1\n  dup1\n  0x01\n  dup2\n  sload\n  add\n  dup1\n  dup3\n  sstore\n  dup1\n  swap2\n  pop\n  pop\n  0x01\n  swap1\n  sub\n  swap1\n  0x00\n  mstore\n  keccak256(0x00, 0x20)\n  swap1\n  0x07\n  mul\n  add\n  0x00\n  swap1\n  swap2\n  swap1\n  swap2\n  swap1\n  swap2\n  pop\n  0x00\n  dup3\n  add\n  mload\n  dup2\n  0x00\n  add\n  swap1\n  dup1\n  mload\n  swap1\n  0x20\n  add\n  swap1\n  tag_29\n  swap3\n  swap2\n  swap1\n  tag_9\n  jump\t// in\ntag_29:\n  pop\n  0x20\n  dup3\n  add\n  mload\n  dup2\n  0x01\n  add\n  swap1\n  dup1\n  mload\n  swap1\n  0x20\n  add\n  swap1\n  tag_30\n  swap3\n  swap2\n  swap1\n  tag_9\n  jump\t// in\ntag_30:\n  pop\n  0x40\n  dup3\n  add\n  mload\n  dup2\n  0x02\n  add\n  sstore\n  0x60\n  dup3\n  add\n  mload\n  dup2\n  0x03\n  add\n  exp(0x0100, 0x00)\n  dup2\n  sload\n  dup2\n  0xff\n  mul\n  not\n  and\n  swap1\n  dup4\n  0xff\n  and\n  mul\n  or\n  swap1\n  sstore\n  pop\n  0x80\n  dup3\n  add\n  mload\n  dup2\n  0x03\n  add\n  exp(0x0100, 0x01)\n  dup2\n  sload\n  dup2\n  0xffffffff\n  mul\n  not\n  and\n  swap1\n  dup4\n  0xffffffff\n  and\n  mul\n  or\n  swap1\n  sstore\n  pop\n  0xa0\n  dup3\n  add\n  mload\n  dup2\n  0x04\n  add\n  sstore\n  0xc0\n  dup3\n  add\n  mload\n  dup2\n  0x05\n  add\n  exp(0x0100, 0x00)\n  dup2\n  sload\n  dup2\n  0xffffffff\n  mul\n  not\n  and\n  swap1\n  dup4\n  0xffffffff\n  and\n  mul\n  or\n  swap1\n  sstore\n  pop\n  0xe0\n  dup3\n  add\n  mload\n  dup2\n  0x06\n  add\n  sstore\n  pop\n  pop\n    /* \"contracts/study-case-contracts/003-web-of-science/WoS_API_Expanded_basicPlan.sol\":2922:2932  timeout_C2 */\n  0x09\n    /* \"contracts/study-case-contracts/003-web-of-science/WoS_API_Expanded_basicPlan.sol\":2938:2959  EAI.createTimeout(60) */\n  tag_31\n    /* \"contracts/study-case-contracts/003-web-of-science/WoS_API_Expanded_basicPlan.sol\":2956:2958  60 */\n  0x3c\n    /* \"contracts/study-case-contracts/003-web-of-science/WoS_API_Expanded_basicPlan.sol\":2938:2955  EAI.createTimeout */\n  or(tag_0_47, shl(0x20, tag_32))\n    /* \"contracts/study-case-contracts/003-web-of-science/WoS_API_Expanded_basicPlan.sol\":2938:2959  EAI.createTimeout(60) */\n  0x20\n  shr\n  jump\t// in\ntag_31:\n    /* \"contracts/study-case-contracts/003-web-of-science/WoS_API_Expanded_basicPlan.sol\":2922:2960  timeout_C2.push(EAI.createTimeout(60)) */\n  swap1\n  dup1\n  0x01\n  dup2\n  sload\n  add\n  dup1\n  dup3\n  sstore\n  dup1\n  swap2\n  pop\n  pop\n  0x01\n  swap1\n  sub\n  swap1\n  0x00\n  mstore\n  keccak256(0x00, 0x20)\n  add\n  0x00\n  swap1\n  swap2\n  swap1\n  swap2\n  swap1\n  swap2\n  pop\n  0x00\n  dup3\n  add\n  mload\n  dup2\n  0x00\n  add\n  exp(0x0100, 0x00)\n  dup2\n  sload\n  dup2\n  0xffffffff\n  mul\n  not\n  and\n  swap1\n  dup4\n  0xffffffff\n  and\n  mul\n  or\n  swap1\n  sstore\n  pop\n  0x20\n  dup3\n  add\n  mload\n  dup2\n  0x00\n  add\n  exp(0x0100, 0x04)\n  dup2\n  sload\n  dup2\n  0xffffffff\n  mul\n  not\n  and\n  swap1\n  dup4\n  0xffffffff\n  and\n  mul\n  or\n  swap1\n  sstore\n  pop\n  pop\n  pop\n    /* \"contracts/study-case-contracts/003-web-of-science/WoS_API_Expanded_basicPlan.sol\":1855:2967  constructor(address _applicationWallet){... */\n  pop\n    /* \"contracts/study-case-contracts/003-web-of-science/WoS_API_Expanded_basicPlan.sol\":190:7096  contract WoS_API_Expanded_basicPlan {... */\n  jump(tag_34)\n    /* \"contracts/lib/eai/EAI.sol\":1676:1852  function createParty(string memory _name, address _walletAddress, bool _aware) internal pure returns(Party memory){... */\ntag_7:\n    /* \"contracts/lib/eai/EAI.sol\":1777:1789  Party memory */\n  tag_35\n  tag_36\n  jump\t// in\ntag_35:\n    /* \"contracts/lib/eai/EAI.sol\":1808:1844  Party(_name, _walletAddress, _aware) */\n  mload(0x40)\n  dup1\n  0x60\n  add\n  0x40\n  mstore\n  dup1\n    /* \"contracts/lib/eai/EAI.sol\":1814:1819  _name */\n  dup6\n    /* \"contracts/lib/eai/EAI.sol\":1808:1844  Party(_name, _walletAddress, _aware) */\n  dup2\n  mstore\n  0x20\n  add\n    /* \"contracts/lib/eai/EAI.sol\":1821:1835  _walletAddress */\n  dup5\n    /* \"contracts/lib/eai/EAI.sol\":1808:1844  Party(_name, _walletAddress, _aware) */\n  0xffffffffffffffffffffffffffffffffffffffff\n  and\n  dup2\n  mstore\n  0x20\n  add\n    /* \"contracts/lib/eai/EAI.sol\":1837:1843  _aware */\n  dup4\n    /* \"contracts/lib/eai/EAI.sol\":1808:1844  Party(_name, _walletAddress, _aware) */\n  iszero\n  iszero\n  dup2\n  mstore\n  pop\n    /* \"contracts/lib/eai/EAI.sol\":1801:1844  return Party(_name, _walletAddress, _aware) */\n  swap1\n  pop\n    /* \"contracts/lib/eai/EAI.sol\":1676:1852  function createParty(string memory _name, address _walletAddress, bool _aware) internal pure returns(Party memory){... */\n  swap4\n  swap3\n  pop\n  pop\n  pop\n  jump\t// out\n    /* \"contracts/lib/eai/EAI.sol\":11004:11635  function createMaxNumberOfOperationByTime(... */\ntag_19:\n    /* \"contracts/lib/eai/EAI.sol\":11129:11162  MaxNumberOfOperationByTime memory */\n  tag_38\n  tag_39\n  jump\t// in\ntag_38:\n    /* \"contracts/lib/eai/EAI.sol\":11176:11192  uint32 auxByTime */\n  0x00\n    /* \"contracts/lib/eai/EAI.sol\":872:873  4 */\n  0x04\n    /* \"contracts/lib/eai/EAI.sol\":11208:11225  _timeUnit <= WEEK */\n  0xff\n  and\n    /* \"contracts/lib/eai/EAI.sol\":11208:11217  _timeUnit */\n  dup4\n    /* \"contracts/lib/eai/EAI.sol\":11208:11225  _timeUnit <= WEEK */\n  0xff\n  and\n  gt\n    /* \"contracts/lib/eai/EAI.sol\":11205:11541  if(_timeUnit <= WEEK){... */\n  tag_41\n  jumpi\n    /* \"contracts/lib/eai/EAI.sol\":11358:11385  getTimeInSeconds(_timeUnit) */\n  tag_42\n    /* \"contracts/lib/eai/EAI.sol\":11375:11384  _timeUnit */\n  dup4\n    /* \"contracts/lib/eai/EAI.sol\":11358:11374  getTimeInSeconds */\n  shl(0x20, tag_43)\n    /* \"contracts/lib/eai/EAI.sol\":11358:11385  getTimeInSeconds(_timeUnit) */\n  0x20\n  shr\n  jump\t// in\ntag_42:\n    /* \"contracts/lib/eai/EAI.sol\":11347:11385  auxByTime= getTimeInSeconds(_timeUnit) */\n  swap1\n  pop\n    /* \"contracts/lib/eai/EAI.sol\":11205:11541  if(_timeUnit <= WEEK){... */\n  jump(tag_44)\ntag_41:\n    /* \"contracts/lib/eai/EAI.sol\":11527:11528  1 */\n  0x01\n    /* \"contracts/lib/eai/EAI.sol\":11515:11528  auxByTime = 1 */\n  swap1\n  pop\n    /* \"contracts/lib/eai/EAI.sol\":11205:11541  if(_timeUnit <= WEEK){... */\ntag_44:\n    /* \"contracts/lib/eai/EAI.sol\":11558:11627  MaxNumberOfOperationByTime(_amount, _timeUnit, auxByTime, _amount, 0) */\n  mload(0x40)\n  dup1\n  0xa0\n  add\n  0x40\n  mstore\n  dup1\n    /* \"contracts/lib/eai/EAI.sol\":11585:11592  _amount */\n  dup6\n    /* \"contracts/lib/eai/EAI.sol\":11558:11627  MaxNumberOfOperationByTime(_amount, _timeUnit, auxByTime, _amount, 0) */\n  0xffffffff\n  and\n  dup2\n  mstore\n  0x20\n  add\n    /* \"contracts/lib/eai/EAI.sol\":11594:11603  _timeUnit */\n  dup5\n    /* \"contracts/lib/eai/EAI.sol\":11558:11627  MaxNumberOfOperationByTime(_amount, _timeUnit, auxByTime, _amount, 0) */\n  0xff\n  and\n  dup2\n  mstore\n  0x20\n  add\n    /* \"contracts/lib/eai/EAI.sol\":11605:11614  auxByTime */\n  dup3\n    /* \"contracts/lib/eai/EAI.sol\":11558:11627  MaxNumberOfOperationByTime(_amount, _timeUnit, auxByTime, _amount, 0) */\n  0xffffffff\n  and\n  dup2\n  mstore\n  0x20\n  add\n    /* \"contracts/lib/eai/EAI.sol\":11616:11623  _amount */\n  dup6\n    /* \"contracts/lib/eai/EAI.sol\":11558:11627  MaxNumberOfOperationByTime(_amount, _timeUnit, auxByTime, _amount, 0) */\n  0xffffffff\n  and\n  dup2\n  mstore\n  0x20\n  add\n    /* \"contracts/lib/eai/EAI.sol\":11625:11626  0 */\n  0x00\n    /* \"contracts/lib/eai/EAI.sol\":11558:11627  MaxNumberOfOperationByTime(_amount, _timeUnit, auxByTime, _amount, 0) */\n  0xffffffff\n  and\n  dup2\n  mstore\n  pop\n    /* \"contracts/lib/eai/EAI.sol\":11551:11627  return MaxNumberOfOperationByTime(_amount, _timeUnit, auxByTime, _amount, 0) */\n  swap2\n  pop\n  pop\n    /* \"contracts/lib/eai/EAI.sol\":11004:11635  function createMaxNumberOfOperationByTime(... */\n  swap3\n  swap2\n  pop\n  pop\n  jump\t// out\n    /* \"contracts/lib/eai/EAI.sol\":16621:16840  function createMessageContent(string memory _xpath, string memory _op, int256 _content ) internal pure returns(MessageContent_Number memory){        ... */\ntag_22:\n    /* \"contracts/lib/eai/EAI.sol\":16732:16760  MessageContent_Number memory */\n  tag_45\n  tag_46\n  jump\t// in\ntag_45:\n    /* \"contracts/lib/eai/EAI.sol\":16787:16831  MessageContent_Number(_xpath, _op, _content) */\n  mload(0x40)\n  dup1\n  0x60\n  add\n  0x40\n  mstore\n  dup1\n    /* \"contracts/lib/eai/EAI.sol\":16809:16815  _xpath */\n  dup6\n    /* \"contracts/lib/eai/EAI.sol\":16787:16831  MessageContent_Number(_xpath, _op, _content) */\n  dup2\n  mstore\n  0x20\n  add\n    /* \"contracts/lib/eai/EAI.sol\":16817:16820  _op */\n  dup5\n    /* \"contracts/lib/eai/EAI.sol\":16787:16831  MessageContent_Number(_xpath, _op, _content) */\n  dup2\n  mstore\n  0x20\n  add\n    /* \"contracts/lib/eai/EAI.sol\":16822:16830  _content */\n  dup4\n    /* \"contracts/lib/eai/EAI.sol\":16787:16831  MessageContent_Number(_xpath, _op, _content) */\n  dup2\n  mstore\n  pop\n    /* \"contracts/lib/eai/EAI.sol\":16780:16831  return MessageContent_Number(_xpath, _op, _content) */\n  swap1\n  pop\n    /* \"contracts/lib/eai/EAI.sol\":16621:16840  function createMessageContent(string memory _xpath, string memory _op, int256 _content ) internal pure returns(MessageContent_Number memory){        ... */\n  swap4\n  swap3\n  pop\n  pop\n  pop\n  jump\t// out\n    /* \"contracts/lib/eai/EAI.sol\":18749:19560  function createMessageContent(... */\ntag_27:\n    /* \"contracts/lib/eai/EAI.sol\":18923:18958  MessageContent_NumberPerTime memory */\n  tag_48\n  tag_49\n  jump\t// in\ntag_48:\n    /* \"contracts/lib/eai/EAI.sol\":18972:18988  uint32 auxByTime */\n  0x00\n    /* \"contracts/lib/eai/EAI.sol\":872:873  4 */\n  0x04\n    /* \"contracts/lib/eai/EAI.sol\":19004:19021  _timeUnit <= WEEK */\n  0xff\n  and\n    /* \"contracts/lib/eai/EAI.sol\":19004:19013  _timeUnit */\n  dup4\n    /* \"contracts/lib/eai/EAI.sol\":19004:19021  _timeUnit <= WEEK */\n  0xff\n  and\n  gt\n    /* \"contracts/lib/eai/EAI.sol\":19001:19337  if(_timeUnit <= WEEK){... */\n  tag_51\n  jumpi\n    /* \"contracts/lib/eai/EAI.sol\":19154:19181  getTimeInSeconds(_timeUnit) */\n  tag_52\n    /* \"contracts/lib/eai/EAI.sol\":19171:19180  _timeUnit */\n  dup4\n    /* \"contracts/lib/eai/EAI.sol\":19154:19170  getTimeInSeconds */\n  shl(0x20, tag_43)\n    /* \"contracts/lib/eai/EAI.sol\":19154:19181  getTimeInSeconds(_timeUnit) */\n  0x20\n  shr\n  jump\t// in\ntag_52:\n    /* \"contracts/lib/eai/EAI.sol\":19143:19181  auxByTime= getTimeInSeconds(_timeUnit) */\n  swap1\n  pop\n    /* \"contracts/lib/eai/EAI.sol\":19001:19337  if(_timeUnit <= WEEK){... */\n  jump(tag_53)\ntag_51:\n    /* \"contracts/lib/eai/EAI.sol\":19323:19324  1 */\n  0x01\n    /* \"contracts/lib/eai/EAI.sol\":19311:19324  auxByTime = 1 */\n  swap1\n  pop\n    /* \"contracts/lib/eai/EAI.sol\":19001:19337  if(_timeUnit <= WEEK){... */\ntag_53:\n    /* \"contracts/lib/eai/EAI.sol\":19371:19372  1 */\n  0x01\n    /* \"contracts/lib/eai/EAI.sol\":19358:19361  _op */\n  dup6\n    /* \"contracts/lib/eai/EAI.sol\":19352:19369  bytes(_op).length */\n  mload\n    /* \"contracts/lib/eai/EAI.sol\":19352:19372  bytes(_op).length==1 */\n  sub\n    /* \"contracts/lib/eai/EAI.sol\":19349:19446  if(bytes(_op).length==1){... */\n  tag_54\n  jumpi\n    /* \"contracts/lib/eai/EAI.sol\":19388:19398  _op = \"<=\" */\n  mload(0x40)\n  dup1\n  0x40\n  add\n  0x40\n  mstore\n  dup1\n  0x02\n  dup2\n  mstore\n  0x20\n  add\n  0x3c3d000000000000000000000000000000000000000000000000000000000000\n  dup2\n  mstore\n  pop\n  swap5\n  pop\n    /* \"contracts/lib/eai/EAI.sol\":19432:19433  1 */\n  0x01\n    /* \"contracts/lib/eai/EAI.sol\":19424:19431  _amount */\n  dup5\n    /* \"contracts/lib/eai/EAI.sol\":19424:19433  _amount-1 */\n  tag_55\n  swap2\n  swap1\n  tag_56\n  jump\t// in\ntag_55:\n    /* \"contracts/lib/eai/EAI.sol\":19413:19434  _amount = (_amount-1) */\n  swap4\n  pop\n    /* \"contracts/lib/eai/EAI.sol\":19349:19446  if(bytes(_op).length==1){... */\ntag_54:\n    /* \"contracts/lib/eai/EAI.sol\":19465:19552  MessageContent_NumberPerTime(_xpath, _op, _amount, _timeUnit, auxByTime, _amount, 0, 0) */\n  mload(0x40)\n  dup1\n  0x0100\n  add\n  0x40\n  mstore\n  dup1\n    /* \"contracts/lib/eai/EAI.sol\":19494:19500  _xpath */\n  dup8\n    /* \"contracts/lib/eai/EAI.sol\":19465:19552  MessageContent_NumberPerTime(_xpath, _op, _amount, _timeUnit, auxByTime, _amount, 0, 0) */\n  dup2\n  mstore\n  0x20\n  add\n    /* \"contracts/lib/eai/EAI.sol\":19502:19505  _op */\n  dup7\n    /* \"contracts/lib/eai/EAI.sol\":19465:19552  MessageContent_NumberPerTime(_xpath, _op, _amount, _timeUnit, auxByTime, _amount, 0, 0) */\n  dup2\n  mstore\n  0x20\n  add\n    /* \"contracts/lib/eai/EAI.sol\":19507:19514  _amount */\n  dup6\n    /* \"contracts/lib/eai/EAI.sol\":19465:19552  MessageContent_NumberPerTime(_xpath, _op, _amount, _timeUnit, auxByTime, _amount, 0, 0) */\n  dup2\n  mstore\n  0x20\n  add\n    /* \"contracts/lib/eai/EAI.sol\":19516:19525  _timeUnit */\n  dup5\n    /* \"contracts/lib/eai/EAI.sol\":19465:19552  MessageContent_NumberPerTime(_xpath, _op, _amount, _timeUnit, auxByTime, _amount, 0, 0) */\n  0xff\n  and\n  dup2\n  mstore\n  0x20\n  add\n    /* \"contracts/lib/eai/EAI.sol\":19527:19536  auxByTime */\n  dup3\n    /* \"contracts/lib/eai/EAI.sol\":19465:19552  MessageContent_NumberPerTime(_xpath, _op, _amount, _timeUnit, auxByTime, _amount, 0, 0) */\n  0xffffffff\n  and\n  dup2\n  mstore\n  0x20\n  add\n    /* \"contracts/lib/eai/EAI.sol\":19538:19545  _amount */\n  dup6\n    /* \"contracts/lib/eai/EAI.sol\":19465:19552  MessageContent_NumberPerTime(_xpath, _op, _amount, _timeUnit, auxByTime, _amount, 0, 0) */\n  dup2\n  mstore\n  0x20\n  add\n    /* \"contracts/lib/eai/EAI.sol\":19547:19548  0 */\n  0x00\n    /* \"contracts/lib/eai/EAI.sol\":19465:19552  MessageContent_NumberPerTime(_xpath, _op, _amount, _timeUnit, auxByTime, _amount, 0, 0) */\n  0xffffffff\n  and\n  dup2\n  mstore\n  0x20\n  add\n    /* \"contracts/lib/eai/EAI.sol\":19550:19551  0 */\n  0x00\n    /* \"contracts/lib/eai/EAI.sol\":19465:19552  MessageContent_NumberPerTime(_xpath, _op, _amount, _timeUnit, auxByTime, _amount, 0, 0) */\n  dup2\n  mstore\n  pop\n    /* \"contracts/lib/eai/EAI.sol\":19458:19552  return MessageContent_NumberPerTime(_xpath, _op, _amount, _timeUnit, auxByTime, _amount, 0, 0) */\n  swap2\n  pop\n  pop\n    /* \"contracts/lib/eai/EAI.sol\":18749:19560  function createMessageContent(... */\n  swap5\n  swap4\n  pop\n  pop\n  pop\n  pop\n  jump\t// out\n    /* \"contracts/lib/eai/EAI.sol\":8420:8557  function createTimeout(uint32 _timeIncrement) internal pure returns (Timeout memory ){... */\ntag_32:\n    /* \"contracts/lib/eai/EAI.sol\":8489:8503  Timeout memory */\n  tag_57\n  tag_58\n  jump\t// in\ntag_57:\n    /* \"contracts/lib/eai/EAI.sol\":8523:8549  Timeout(0, _timeIncrement) */\n  mload(0x40)\n  dup1\n  0x40\n  add\n  0x40\n  mstore\n  dup1\n    /* \"contracts/lib/eai/EAI.sol\":8531:8532  0 */\n  0x00\n    /* \"contracts/lib/eai/EAI.sol\":8523:8549  Timeout(0, _timeIncrement) */\n  0xffffffff\n  and\n  dup2\n  mstore\n  0x20\n  add\n    /* \"contracts/lib/eai/EAI.sol\":8534:8548  _timeIncrement */\n  dup4\n    /* \"contracts/lib/eai/EAI.sol\":8523:8549  Timeout(0, _timeIncrement) */\n  0xffffffff\n  and\n  dup2\n  mstore\n  pop\n    /* \"contracts/lib/eai/EAI.sol\":8516:8549  return Timeout(0, _timeIncrement) */\n  swap1\n  pop\n    /* \"contracts/lib/eai/EAI.sol\":8420:8557  function createTimeout(uint32 _timeIncrement) internal pure returns (Timeout memory ){... */\n  swap2\n  swap1\n  pop\n  jump\t// out\n    /* \"contracts/lib/eai/EAI.sol\":26898:27447  function getTimeInSeconds(uint8 timeUnit) private pure returns(uint32){... */\ntag_43:\n    /* \"contracts/lib/eai/EAI.sol\":26961:26967  uint32 */\n  0x00\n    /* \"contracts/lib/eai/EAI.sol\":872:873  4 */\n  0x04\n    /* \"contracts/lib/eai/EAI.sol\":27041:27057  timeUnit <= WEEK */\n  0xff\n  and\n    /* \"contracts/lib/eai/EAI.sol\":27041:27049  timeUnit */\n  dup3\n    /* \"contracts/lib/eai/EAI.sol\":27041:27057  timeUnit <= WEEK */\n  0xff\n  and\n  gt\n  iszero\n    /* \"contracts/lib/eai/EAI.sol\":27033:27121  require(timeUnit <= WEEK, \"The method getTimeInSeconds doesn't work for MONTH and YEAR\") */\n  tag_61\n  jumpi\n  mload(0x40)\n  0x08c379a000000000000000000000000000000000000000000000000000000000\n  dup2\n  mstore\n  0x04\n  add\n  tag_62\n  swap1\n  tag_63\n  jump\t// in\ntag_62:\n  mload(0x40)\n  dup1\n  swap2\n  sub\n  swap1\n  revert\ntag_61:\n    /* \"contracts/lib/eai/EAI.sol\":754:755  0 */\n  0x00\n    /* \"contracts/lib/eai/EAI.sol\":27137:27155  timeUnit == SECOND */\n  0xff\n  and\n    /* \"contracts/lib/eai/EAI.sol\":27137:27145  timeUnit */\n  dup3\n    /* \"contracts/lib/eai/EAI.sol\":27137:27155  timeUnit == SECOND */\n  0xff\n  and\n  sub\n    /* \"contracts/lib/eai/EAI.sol\":27134:27440  if(timeUnit == SECOND){... */\n  tag_64\n  jumpi\n    /* \"contracts/lib/eai/EAI.sol\":27178:27179  1 */\n  0x01\n    /* \"contracts/lib/eai/EAI.sol\":27171:27179  return 1 */\n  swap1\n  pop\n  jump(tag_60)\n    /* \"contracts/lib/eai/EAI.sol\":27134:27440  if(timeUnit == SECOND){... */\ntag_64:\n    /* \"contracts/lib/eai/EAI.sol\":786:787  1 */\n  0x01\n    /* \"contracts/lib/eai/EAI.sol\":27199:27217  timeUnit == MINUTE */\n  0xff\n  and\n    /* \"contracts/lib/eai/EAI.sol\":27199:27207  timeUnit */\n  dup3\n    /* \"contracts/lib/eai/EAI.sol\":27199:27217  timeUnit == MINUTE */\n  0xff\n  and\n  sub\n    /* \"contracts/lib/eai/EAI.sol\":27196:27440  if(timeUnit == MINUTE){... */\n  tag_66\n  jumpi\n    /* \"contracts/lib/eai/EAI.sol\":27240:27242  60 */\n  0x3c\n    /* \"contracts/lib/eai/EAI.sol\":27233:27242  return 60 */\n  swap1\n  pop\n  jump(tag_60)\n    /* \"contracts/lib/eai/EAI.sol\":27196:27440  if(timeUnit == MINUTE){... */\ntag_66:\n    /* \"contracts/lib/eai/EAI.sol\":815:816  2 */\n  0x02\n    /* \"contracts/lib/eai/EAI.sol\":27262:27278  timeUnit == HOUR */\n  0xff\n  and\n    /* \"contracts/lib/eai/EAI.sol\":27262:27270  timeUnit */\n  dup3\n    /* \"contracts/lib/eai/EAI.sol\":27262:27278  timeUnit == HOUR */\n  0xff\n  and\n  sub\n    /* \"contracts/lib/eai/EAI.sol\":27259:27440  if(timeUnit == HOUR ){... */\n  tag_68\n  jumpi\n    /* \"contracts/lib/eai/EAI.sol\":27302:27307  60*60 */\n  0x0e10\n    /* \"contracts/lib/eai/EAI.sol\":27295:27307  return 60*60 */\n  swap1\n  pop\n  jump(tag_60)\n    /* \"contracts/lib/eai/EAI.sol\":27259:27440  if(timeUnit == HOUR ){... */\ntag_68:\n    /* \"contracts/lib/eai/EAI.sol\":843:844  3 */\n  0x03\n    /* \"contracts/lib/eai/EAI.sol\":27327:27342  timeUnit == DAY */\n  0xff\n  and\n    /* \"contracts/lib/eai/EAI.sol\":27327:27335  timeUnit */\n  dup3\n    /* \"contracts/lib/eai/EAI.sol\":27327:27342  timeUnit == DAY */\n  0xff\n  and\n  sub\n    /* \"contracts/lib/eai/EAI.sol\":27324:27440  if(timeUnit == DAY){... */\n  tag_70\n  jumpi\n    /* \"contracts/lib/eai/EAI.sol\":27365:27373  60*60*24 */\n  0x015180\n    /* \"contracts/lib/eai/EAI.sol\":27358:27373  return 60*60*24 */\n  swap1\n  pop\n  jump(tag_60)\n    /* \"contracts/lib/eai/EAI.sol\":27324:27440  if(timeUnit == DAY){... */\ntag_70:\n    /* \"contracts/lib/eai/EAI.sol\":27411:27421  60*60*24*7 */\n  0x093a80\n    /* \"contracts/lib/eai/EAI.sol\":27404:27421  return 60*60*24*7 */\n  swap1\n  pop\n    /* \"contracts/lib/eai/EAI.sol\":26898:27447  function getTimeInSeconds(uint8 timeUnit) private pure returns(uint32){... */\ntag_60:\n  swap2\n  swap1\n  pop\n  jump\t// out\n    /* \"contracts/study-case-contracts/003-web-of-science/WoS_API_Expanded_basicPlan.sol\":190:7096  contract WoS_API_Expanded_basicPlan {... */\ntag_9:\n  dup3\n  dup1\n  sload\n  tag_72\n  swap1\n  tag_13\n  jump\t// in\ntag_72:\n  swap1\n  0x00\n  mstore\n  keccak256(0x00, 0x20)\n  swap1\n  0x1f\n  add\n  0x20\n  swap1\n  div\n  dup2\n  add\n  swap3\n  dup3\n  tag_74\n  jumpi\n  0x00\n  dup6\n  sstore\n  jump(tag_73)\ntag_74:\n  dup3\n  0x1f\n  lt\n  tag_75\n  jumpi\n  dup1\n  mload\n  not(0xff)\n  and\n  dup4\n  dup1\n  add\n  or\n  dup6\n  sstore\n  jump(tag_73)\ntag_75:\n  dup3\n  dup1\n  add\n  0x01\n  add\n  dup6\n  sstore\n  dup3\n  iszero\n  tag_73\n  jumpi\n  swap2\n  dup3\n  add\ntag_76:\n  dup3\n  dup2\n  gt\n  iszero\n  tag_77\n  jumpi\n  dup3\n  mload\n  dup3\n  sstore\n  swap2\n  0x20\n  add\n  swap2\n  swap1\n  0x01\n  add\n  swap1\n  jump(tag_76)\ntag_77:\ntag_73:\n  pop\n  swap1\n  pop\n  tag_78\n  swap2\n  swap1\n  tag_79\n  jump\t// in\ntag_78:\n  pop\n  swap1\n  jump\t// out\ntag_15:\n  dup3\n  dup1\n  sload\n  tag_80\n  swap1\n  tag_13\n  jump\t// in\ntag_80:\n  swap1\n  0x00\n  mstore\n  keccak256(0x00, 0x20)\n  swap1\n  0x1f\n  add\n  0x20\n  swap1\n  div\n  dup2\n  add\n  swap3\n  dup3\n  tag_82\n  jumpi\n  0x00\n  dup6\n  sstore\n  jump(tag_81)\ntag_82:\n  dup3\n  0x1f\n  lt\n  tag_83\n  jumpi\n  dup1\n  sload\n  dup6\n  sstore\n  jump(tag_81)\ntag_83:\n  dup3\n  dup1\n  add\n  0x01\n  add\n  dup6\n  sstore\n  dup3\n  iszero\n  tag_81\n  jumpi\n  0x00\n  mstore\n  keccak256(0x00, 0x20)\n  swap2\n  0x1f\n  add\n  0x20\n  swap1\n  div\n  dup3\n  add\ntag_84:\n  dup3\n  dup2\n  gt\n  iszero\n  tag_85\n  jumpi\n  dup3\n  sload\n  dup3\n  sstore\n  swap2\n  0x01\n  add\n  swap2\n  swap1\n  0x01\n  add\n  swap1\n  jump(tag_84)\ntag_85:\ntag_81:\n  pop\n  swap1\n  pop\n  tag_86\n  swap2\n  swap1\n  tag_79\n  jump\t// in\ntag_86:\n  pop\n  swap1\n  jump\t// out\ntag_36:\n  mload(0x40)\n  dup1\n  0x60\n  add\n  0x40\n  mstore\n  dup1\n  0x60\n  dup2\n  mstore\n  0x20\n  add\n  and(0xffffffffffffffffffffffffffffffffffffffff, 0x00)\n  dup2\n  mstore\n  0x20\n  add\n  iszero(iszero(0x00))\n  dup2\n  mstore\n  pop\n  swap1\n  jump\t// out\ntag_39:\n  mload(0x40)\n  dup1\n  0xa0\n  add\n  0x40\n  mstore\n  dup1\n  and(0xffffffff, 0x00)\n  dup2\n  mstore\n  0x20\n  add\n  and(0xff, 0x00)\n  dup2\n  mstore\n  0x20\n  add\n  and(0xffffffff, 0x00)\n  dup2\n  mstore\n  0x20\n  add\n  and(0xffffffff, 0x00)\n  dup2\n  mstore\n  0x20\n  add\n  and(0xffffffff, 0x00)\n  dup2\n  mstore\n  pop\n  swap1\n  jump\t// out\ntag_46:\n  mload(0x40)\n  dup1\n  0x60\n  add\n  0x40\n  mstore\n  dup1\n  0x60\n  dup2\n  mstore\n  0x20\n  add\n  0x60\n  dup2\n  mstore\n  0x20\n  add\n  0x00\n  dup2\n  mstore\n  pop\n  swap1\n  jump\t// out\ntag_49:\n  mload(0x40)\n  dup1\n  0x0100\n  add\n  0x40\n  mstore\n  dup1\n  0x60\n  dup2\n  mstore\n  0x20\n  add\n  0x60\n  dup2\n  mstore\n  0x20\n  add\n  0x00\n  dup2\n  mstore\n  0x20\n  add\n  and(0xff, 0x00)\n  dup2\n  mstore\n  0x20\n  add\n  and(0xffffffff, 0x00)\n  dup2\n  mstore\n  0x20\n  add\n  0x00\n  dup2\n  mstore\n  0x20\n  add\n  and(0xffffffff, 0x00)\n  dup2\n  mstore\n  0x20\n  add\n  0x00\n  dup2\n  mstore\n  pop\n  swap1\n  jump\t// out\ntag_58:\n  mload(0x40)\n  dup1\n  0x40\n  add\n  0x40\n  mstore\n  dup1\n  and(0xffffffff, 0x00)\n  dup2\n  mstore\n  0x20\n  add\n  and(0xffffffff, 0x00)\n  dup2\n  mstore\n  pop\n  swap1\n  jump\t// out\ntag_79:\ntag_87:\n  dup1\n  dup3\n  gt\n  iszero\n  tag_88\n  jumpi\n  0x00\n  dup2\n  0x00\n  swap1\n  sstore\n  pop\n  0x01\n  add\n  jump(tag_87)\ntag_88:\n  pop\n  swap1\n  jump\t// out\n    /* \"#utility.yul\":88:205   */\ntag_90:\n    /* \"#utility.yul\":197:198   */\n  0x00\n    /* \"#utility.yul\":194:195   */\n  dup1\n    /* \"#utility.yul\":187:199   */\n  revert\n    /* \"#utility.yul\":334:460   */\ntag_92:\n    /* \"#utility.yul\":371:378   */\n  0x00\n    /* \"#utility.yul\":411:453   */\n  0xffffffffffffffffffffffffffffffffffffffff\n    /* \"#utility.yul\":404:409   */\n  dup3\n    /* \"#utility.yul\":400:454   */\n  and\n    /* \"#utility.yul\":389:454   */\n  swap1\n  pop\n    /* \"#utility.yul\":334:460   */\n  swap2\n  swap1\n  pop\n  jump\t// out\n    /* \"#utility.yul\":466:562   */\ntag_93:\n    /* \"#utility.yul\":503:510   */\n  0x00\n    /* \"#utility.yul\":532:556   */\n  tag_108\n    /* \"#utility.yul\":550:555   */\n  dup3\n    /* \"#utility.yul\":532:556   */\n  tag_92\n  jump\t// in\ntag_108:\n    /* \"#utility.yul\":521:556   */\n  swap1\n  pop\n    /* \"#utility.yul\":466:562   */\n  swap2\n  swap1\n  pop\n  jump\t// out\n    /* \"#utility.yul\":568:690   */\ntag_94:\n    /* \"#utility.yul\":641:665   */\n  tag_110\n    /* \"#utility.yul\":659:664   */\n  dup2\n    /* \"#utility.yul\":641:665   */\n  tag_93\n  jump\t// in\ntag_110:\n    /* \"#utility.yul\":634:639   */\n  dup2\n    /* \"#utility.yul\":631:666   */\n  eq\n    /* \"#utility.yul\":621:684   */\n  tag_111\n  jumpi\n    /* \"#utility.yul\":680:681   */\n  0x00\n    /* \"#utility.yul\":677:678   */\n  dup1\n    /* \"#utility.yul\":670:682   */\n  revert\n    /* \"#utility.yul\":621:684   */\ntag_111:\n    /* \"#utility.yul\":568:690   */\n  pop\n  jump\t// out\n    /* \"#utility.yul\":696:839   */\ntag_95:\n    /* \"#utility.yul\":753:758   */\n  0x00\n    /* \"#utility.yul\":784:790   */\n  dup2\n    /* \"#utility.yul\":778:791   */\n  mload\n    /* \"#utility.yul\":769:791   */\n  swap1\n  pop\n    /* \"#utility.yul\":800:833   */\n  tag_113\n    /* \"#utility.yul\":827:832   */\n  dup2\n    /* \"#utility.yul\":800:833   */\n  tag_94\n  jump\t// in\ntag_113:\n    /* \"#utility.yul\":696:839   */\n  swap3\n  swap2\n  pop\n  pop\n  jump\t// out\n    /* \"#utility.yul\":845:1196   */\ntag_3:\n    /* \"#utility.yul\":915:921   */\n  0x00\n    /* \"#utility.yul\":964:966   */\n  0x20\n    /* \"#utility.yul\":952:961   */\n  dup3\n    /* \"#utility.yul\":943:950   */\n  dup5\n    /* \"#utility.yul\":939:962   */\n  sub\n    /* \"#utility.yul\":935:967   */\n  slt\n    /* \"#utility.yul\":932:1051   */\n  iszero\n  tag_115\n  jumpi\n    /* \"#utility.yul\":970:1049   */\n  tag_116\n  tag_90\n  jump\t// in\ntag_116:\n    /* \"#utility.yul\":932:1051   */\ntag_115:\n    /* \"#utility.yul\":1090:1091   */\n  0x00\n    /* \"#utility.yul\":1115:1179   */\n  tag_117\n    /* \"#utility.yul\":1171:1178   */\n  dup5\n    /* \"#utility.yul\":1162:1168   */\n  dup3\n    /* \"#utility.yul\":1151:1160   */\n  dup6\n    /* \"#utility.yul\":1147:1169   */\n  add\n    /* \"#utility.yul\":1115:1179   */\n  tag_95\n  jump\t// in\ntag_117:\n    /* \"#utility.yul\":1105:1179   */\n  swap2\n  pop\n    /* \"#utility.yul\":1061:1189   */\n  pop\n    /* \"#utility.yul\":845:1196   */\n  swap3\n  swap2\n  pop\n  pop\n  jump\t// out\n    /* \"#utility.yul\":1202:1382   */\ntag_96:\n    /* \"#utility.yul\":1250:1327   */\n  0x4e487b7100000000000000000000000000000000000000000000000000000000\n    /* \"#utility.yul\":1247:1248   */\n  0x00\n    /* \"#utility.yul\":1240:1328   */\n  mstore\n    /* \"#utility.yul\":1347:1351   */\n  0x22\n    /* \"#utility.yul\":1344:1345   */\n  0x04\n    /* \"#utility.yul\":1337:1352   */\n  mstore\n    /* \"#utility.yul\":1371:1375   */\n  0x24\n    /* \"#utility.yul\":1368:1369   */\n  0x00\n    /* \"#utility.yul\":1361:1376   */\n  revert\n    /* \"#utility.yul\":1388:1708   */\ntag_13:\n    /* \"#utility.yul\":1432:1438   */\n  0x00\n    /* \"#utility.yul\":1469:1470   */\n  0x02\n    /* \"#utility.yul\":1463:1467   */\n  dup3\n    /* \"#utility.yul\":1459:1471   */\n  div\n    /* \"#utility.yul\":1449:1471   */\n  swap1\n  pop\n    /* \"#utility.yul\":1516:1517   */\n  0x01\n    /* \"#utility.yul\":1510:1514   */\n  dup3\n    /* \"#utility.yul\":1506:1518   */\n  and\n    /* \"#utility.yul\":1537:1555   */\n  dup1\n    /* \"#utility.yul\":1527:1608   */\n  tag_120\n  jumpi\n    /* \"#utility.yul\":1593:1597   */\n  0x7f\n    /* \"#utility.yul\":1585:1591   */\n  dup3\n    /* \"#utility.yul\":1581:1598   */\n  and\n    /* \"#utility.yul\":1571:1598   */\n  swap2\n  pop\n    /* \"#utility.yul\":1527:1608   */\ntag_120:\n    /* \"#utility.yul\":1655:1657   */\n  0x20\n    /* \"#utility.yul\":1647:1653   */\n  dup3\n    /* \"#utility.yul\":1644:1658   */\n  lt\n    /* \"#utility.yul\":1624:1642   */\n  dup2\n    /* \"#utility.yul\":1621:1659   */\n  sub\n    /* \"#utility.yul\":1618:1702   */\n  tag_121\n  jumpi\n    /* \"#utility.yul\":1674:1692   */\n  tag_122\n  tag_96\n  jump\t// in\ntag_122:\n    /* \"#utility.yul\":1618:1702   */\ntag_121:\n    /* \"#utility.yul\":1439:1708   */\n  pop\n    /* \"#utility.yul\":1388:1708   */\n  swap2\n  swap1\n  pop\n  jump\t// out\n    /* \"#utility.yul\":1714:1791   */\ntag_97:\n    /* \"#utility.yul\":1751:1758   */\n  0x00\n    /* \"#utility.yul\":1780:1785   */\n  dup2\n    /* \"#utility.yul\":1769:1785   */\n  swap1\n  pop\n    /* \"#utility.yul\":1714:1791   */\n  swap2\n  swap1\n  pop\n  jump\t// out\n    /* \"#utility.yul\":1797:1977   */\ntag_98:\n    /* \"#utility.yul\":1845:1922   */\n  0x4e487b7100000000000000000000000000000000000000000000000000000000\n    /* \"#utility.yul\":1842:1843   */\n  0x00\n    /* \"#utility.yul\":1835:1923   */\n  mstore\n    /* \"#utility.yul\":1942:1946   */\n  0x11\n    /* \"#utility.yul\":1939:1940   */\n  0x04\n    /* \"#utility.yul\":1932:1947   */\n  mstore\n    /* \"#utility.yul\":1966:1970   */\n  0x24\n    /* \"#utility.yul\":1963:1964   */\n  0x00\n    /* \"#utility.yul\":1956:1971   */\n  revert\n    /* \"#utility.yul\":1983:2174   */\ntag_56:\n    /* \"#utility.yul\":2023:2027   */\n  0x00\n    /* \"#utility.yul\":2043:2063   */\n  tag_126\n    /* \"#utility.yul\":2061:2062   */\n  dup3\n    /* \"#utility.yul\":2043:2063   */\n  tag_97\n  jump\t// in\ntag_126:\n    /* \"#utility.yul\":2038:2063   */\n  swap2\n  pop\n    /* \"#utility.yul\":2077:2097   */\n  tag_127\n    /* \"#utility.yul\":2095:2096   */\n  dup4\n    /* \"#utility.yul\":2077:2097   */\n  tag_97\n  jump\t// in\ntag_127:\n    /* \"#utility.yul\":2072:2097   */\n  swap3\n  pop\n    /* \"#utility.yul\":2116:2117   */\n  dup3\n    /* \"#utility.yul\":2113:2114   */\n  dup3\n    /* \"#utility.yul\":2110:2118   */\n  lt\n    /* \"#utility.yul\":2107:2141   */\n  iszero\n  tag_128\n  jumpi\n    /* \"#utility.yul\":2121:2139   */\n  tag_129\n  tag_98\n  jump\t// in\ntag_129:\n    /* \"#utility.yul\":2107:2141   */\ntag_128:\n    /* \"#utility.yul\":2166:2167   */\n  dup3\n    /* \"#utility.yul\":2163:2164   */\n  dup3\n    /* \"#utility.yul\":2159:2168   */\n  sub\n    /* \"#utility.yul\":2151:2168   */\n  swap1\n  pop\n    /* \"#utility.yul\":1983:2174   */\n  swap3\n  swap2\n  pop\n  pop\n  jump\t// out\n    /* \"#utility.yul\":2180:2349   */\ntag_99:\n    /* \"#utility.yul\":2264:2275   */\n  0x00\n    /* \"#utility.yul\":2298:2304   */\n  dup3\n    /* \"#utility.yul\":2293:2296   */\n  dup3\n    /* \"#utility.yul\":2286:2305   */\n  mstore\n    /* \"#utility.yul\":2338:2342   */\n  0x20\n    /* \"#utility.yul\":2333:2336   */\n  dup3\n    /* \"#utility.yul\":2329:2343   */\n  add\n    /* \"#utility.yul\":2314:2343   */\n  swap1\n  pop\n    /* \"#utility.yul\":2180:2349   */\n  swap3\n  swap2\n  pop\n  pop\n  jump\t// out\n    /* \"#utility.yul\":2355:2601   */\ntag_100:\n    /* \"#utility.yul\":2495:2529   */\n  0x546865206d6574686f642067657454696d65496e5365636f6e647320646f6573\n    /* \"#utility.yul\":2491:2492   */\n  0x00\n    /* \"#utility.yul\":2483:2489   */\n  dup3\n    /* \"#utility.yul\":2479:2493   */\n  add\n    /* \"#utility.yul\":2472:2530   */\n  mstore\n    /* \"#utility.yul\":2564:2593   */\n  0x6e277420776f726b20666f72204d4f4e544820616e6420594541520000000000\n    /* \"#utility.yul\":2559:2561   */\n  0x20\n    /* \"#utility.yul\":2551:2557   */\n  dup3\n    /* \"#utility.yul\":2547:2562   */\n  add\n    /* \"#utility.yul\":2540:2594   */\n  mstore\n    /* \"#utility.yul\":2355:2601   */\n  pop\n  jump\t// out\n    /* \"#utility.yul\":2607:2973   */\ntag_101:\n    /* \"#utility.yul\":2749:2752   */\n  0x00\n    /* \"#utility.yul\":2770:2837   */\n  tag_133\n    /* \"#utility.yul\":2834:2836   */\n  0x3b\n    /* \"#utility.yul\":2829:2832   */\n  dup4\n    /* \"#utility.yul\":2770:2837   */\n  tag_99\n  jump\t// in\ntag_133:\n    /* \"#utility.yul\":2763:2837   */\n  swap2\n  pop\n    /* \"#utility.yul\":2846:2939   */\n  tag_134\n    /* \"#utility.yul\":2935:2938   */\n  dup3\n    /* \"#utility.yul\":2846:2939   */\n  tag_100\n  jump\t// in\ntag_134:\n    /* \"#utility.yul\":2964:2966   */\n  0x40\n    /* \"#utility.yul\":2959:2962   */\n  dup3\n    /* \"#utility.yul\":2955:2967   */\n  add\n    /* \"#utility.yul\":2948:2967   */\n  swap1\n  pop\n    /* \"#utility.yul\":2607:2973   */\n  swap2\n  swap1\n  pop\n  jump\t// out\n    /* \"#utility.yul\":2979:3398   */\ntag_63:\n    /* \"#utility.yul\":3145:3149   */\n  0x00\n    /* \"#utility.yul\":3183:3185   */\n  0x20\n    /* \"#utility.yul\":3172:3181   */\n  dup3\n    /* \"#utility.yul\":3168:3186   */\n  add\n    /* \"#utility.yul\":3160:3186   */\n  swap1\n  pop\n    /* \"#utility.yul\":3232:3241   */\n  dup2\n    /* \"#utility.yul\":3226:3230   */\n  dup2\n    /* \"#utility.yul\":3222:3242   */\n  sub\n    /* \"#utility.yul\":3218:3219   */\n  0x00\n    /* \"#utility.yul\":3207:3216   */\n  dup4\n    /* \"#utility.yul\":3203:3220   */\n  add\n    /* \"#utility.yul\":3196:3243   */\n  mstore\n    /* \"#utility.yul\":3260:3391   */\n  tag_136\n    /* \"#utility.yul\":3386:3390   */\n  dup2\n    /* \"#utility.yul\":3260:3391   */\n  tag_101\n  jump\t// in\ntag_136:\n    /* \"#utility.yul\":3252:3391   */\n  swap1\n  pop\n    /* \"#utility.yul\":2979:3398   */\n  swap2\n  swap1\n  pop\n  jump\t// out\n    /* \"contracts/study-case-contracts/003-web-of-science/WoS_API_Expanded_basicPlan.sol\":190:7096  contract WoS_API_Expanded_basicPlan {... */\ntag_34:\n  dataSize(sub_0)\n  dup1\n  dataOffset(sub_0)\n  0x00\n  codecopy\n  0x00\n  return\nstop\n\nsub_0: assembly {\n        /* \"contracts/study-case-contracts/003-web-of-science/WoS_API_Expanded_basicPlan.sol\":190:7096  contract WoS_API_Expanded_basicPlan {... */\n      mstore(0x40, 0x80)\n      callvalue\n      dup1\n      iszero\n      tag_1\n      jumpi\n      0x00\n      dup1\n      revert\n    tag_1:\n      pop\n      jumpi(tag_2, lt(calldatasize, 0x04))\n      shr(0xe0, calldataload(0x00))\n      dup1\n      0xb8b4f1a0\n      gt\n      tag_10\n      jumpi\n      dup1\n      0xb8b4f1a0\n      eq\n      tag_6\n      jumpi\n      dup1\n      0xdd46f364\n      eq\n      tag_7\n      jumpi\n      dup1\n      0xe67fa566\n      eq\n      tag_8\n      jumpi\n      dup1\n      0xfb6f8243\n      eq\n      tag_9\n      jumpi\n      jump(tag_2)\n    tag_10:\n      dup1\n      0x5e744c6a\n      eq\n      tag_3\n      jumpi\n      dup1\n      0x70d8915a\n      eq\n      tag_4\n      jumpi\n      dup1\n      0x85931911\n      eq\n      tag_5\n      jumpi\n    tag_2:\n      0x00\n      dup1\n      revert\n        /* \"contracts/study-case-contracts/003-web-of-science/WoS_API_Expanded_basicPlan.sol\":5332:5763  function changeApplicationParty(string memory _name, address _walletAddress) public returns(bool) {       ... */\n    tag_3:\n      tag_11\n      0x04\n      dup1\n      calldatasize\n      sub\n      dup2\n      add\n      swap1\n      tag_12\n      swap2\n      swap1\n      tag_13\n      jump\t// in\n    tag_12:\n      tag_14\n      jump\t// in\n    tag_11:\n      mload(0x40)\n      tag_15\n      swap2\n      swap1\n      tag_16\n      jump\t// in\n    tag_15:\n      mload(0x40)\n      dup1\n      swap2\n      sub\n      swap1\n      return\n        /* \"contracts/study-case-contracts/003-web-of-science/WoS_API_Expanded_basicPlan.sol\":5911:6043  function getApplicationAddress() public view onlyInvolvedParties returns(address){... */\n    tag_4:\n      tag_17\n      tag_18\n      jump\t// in\n    tag_17:\n      mload(0x40)\n      tag_19\n      swap2\n      swap1\n      tag_20\n      jump\t// in\n    tag_19:\n      mload(0x40)\n      dup1\n      swap2\n      sub\n      swap1\n      return\n        /* \"contracts/study-case-contracts/003-web-of-science/WoS_API_Expanded_basicPlan.sol\":5775:5899  function getProcessAddress() public view onlyInvolvedParties returns(address){... */\n    tag_5:\n      tag_21\n      tag_22\n      jump\t// in\n    tag_21:\n      mload(0x40)\n      tag_23\n      swap2\n      swap1\n      tag_20\n      jump\t// in\n    tag_23:\n      mload(0x40)\n      dup1\n      swap2\n      sub\n      swap1\n      return\n        /* \"contracts/study-case-contracts/003-web-of-science/WoS_API_Expanded_basicPlan.sol\":4732:4994  function signContract() public onlyApplication() returns(bool) {... */\n    tag_6:\n      tag_24\n      tag_25\n      jump\t// in\n    tag_24:\n      mload(0x40)\n      tag_26\n      swap2\n      swap1\n      tag_16\n      jump\t// in\n    tag_26:\n      mload(0x40)\n      dup1\n      swap2\n      sub\n      swap1\n      return\n        /* \"contracts/study-case-contracts/003-web-of-science/WoS_API_Expanded_basicPlan.sol\":3872:4398  function obligation_responseWithDocuments (uint32 _accessDateTime) public onlyApplication() returns(bool){... */\n    tag_7:\n      tag_27\n      0x04\n      dup1\n      calldatasize\n      sub\n      dup2\n      add\n      swap1\n      tag_28\n      swap2\n      swap1\n      tag_29\n      jump\t// in\n    tag_28:\n      tag_30\n      jump\t// in\n    tag_27:\n      mload(0x40)\n      tag_31\n      swap2\n      swap1\n      tag_16\n      jump\t// in\n    tag_31:\n      mload(0x40)\n      dup1\n      swap2\n      sub\n      swap1\n      return\n        /* \"contracts/study-case-contracts/003-web-of-science/WoS_API_Expanded_basicPlan.sol\":3029:3864  function right_requestDocuments(uint32 _accessDateTime, int256[] memory  _resultFromXpath_n, uint256[] memory _resultFromXpath_npt) public onlyProcess() returns(bool){... */\n    tag_8:\n      tag_32\n      0x04\n      dup1\n      calldatasize\n      sub\n      dup2\n      add\n      swap1\n      tag_33\n      swap2\n      swap1\n      tag_34\n      jump\t// in\n    tag_33:\n      tag_35\n      jump\t// in\n    tag_32:\n      mload(0x40)\n      tag_36\n      swap2\n      swap1\n      tag_16\n      jump\t// in\n    tag_36:\n      mload(0x40)\n      dup1\n      swap2\n      sub\n      swap1\n      return\n        /* \"contracts/study-case-contracts/003-web-of-science/WoS_API_Expanded_basicPlan.sol\":6051:6200  function getParty(address _walletAddress) public view onlyInvolvedParties returns(EAI.Party memory){... */\n    tag_9:\n      tag_37\n      0x04\n      dup1\n      calldatasize\n      sub\n      dup2\n      add\n      swap1\n      tag_38\n      swap2\n      swap1\n      tag_39\n      jump\t// in\n    tag_38:\n      tag_40\n      jump\t// in\n    tag_37:\n      mload(0x40)\n      tag_41\n      swap2\n      swap1\n      tag_42\n      jump\t// in\n    tag_41:\n      mload(0x40)\n      dup1\n      swap2\n      sub\n      swap1\n      return\n        /* \"contracts/study-case-contracts/003-web-of-science/WoS_API_Expanded_basicPlan.sol\":5332:5763  function changeApplicationParty(string memory _name, address _walletAddress) public returns(bool) {       ... */\n    tag_14:\n        /* \"contracts/study-case-contracts/003-web-of-science/WoS_API_Expanded_basicPlan.sol\":5424:5428  bool */\n      0x00\n        /* \"contracts/study-case-contracts/003-web-of-science/WoS_API_Expanded_basicPlan.sol\":5481:5491  msg.sender */\n      caller\n        /* \"contracts/study-case-contracts/003-web-of-science/WoS_API_Expanded_basicPlan.sol\":5456:5491  process.walletAddress == msg.sender */\n      0xffffffffffffffffffffffffffffffffffffffff\n      and\n        /* \"contracts/study-case-contracts/003-web-of-science/WoS_API_Expanded_basicPlan.sol\":5456:5463  process */\n      0x03\n        /* \"contracts/study-case-contracts/003-web-of-science/WoS_API_Expanded_basicPlan.sol\":5456:5477  process.walletAddress */\n      0x01\n      add\n      0x00\n      swap1\n      sload\n      swap1\n      0x0100\n      exp\n      swap1\n      div\n      0xffffffffffffffffffffffffffffffffffffffff\n      and\n        /* \"contracts/study-case-contracts/003-web-of-science/WoS_API_Expanded_basicPlan.sol\":5456:5491  process.walletAddress == msg.sender */\n      0xffffffffffffffffffffffffffffffffffffffff\n      and\n      eq\n        /* \"contracts/study-case-contracts/003-web-of-science/WoS_API_Expanded_basicPlan.sol\":5448:5539  require(process.walletAddress == msg.sender, \"Only the process can execute this operation\") */\n      tag_49\n      jumpi\n      mload(0x40)\n      0x08c379a000000000000000000000000000000000000000000000000000000000\n      dup2\n      mstore\n      0x04\n      add\n      tag_50\n      swap1\n      tag_51\n      jump\t// in\n    tag_50:\n      mload(0x40)\n      dup1\n      swap2\n      sub\n      swap1\n      revert\n    tag_49:\n        /* \"contracts/study-case-contracts/003-web-of-science/WoS_API_Expanded_basicPlan.sol\":5557:5565  mapParty */\n      0x05\n        /* \"contracts/study-case-contracts/003-web-of-science/WoS_API_Expanded_basicPlan.sol\":5557:5592  mapParty[application.walletAddress] */\n      0x00\n        /* \"contracts/study-case-contracts/003-web-of-science/WoS_API_Expanded_basicPlan.sol\":5566:5577  application */\n      0x01\n        /* \"contracts/study-case-contracts/003-web-of-science/WoS_API_Expanded_basicPlan.sol\":5566:5591  application.walletAddress */\n      dup1\n      add\n      0x00\n      swap1\n      sload\n      swap1\n      0x0100\n      exp\n      swap1\n      div\n      0xffffffffffffffffffffffffffffffffffffffff\n      and\n        /* \"contracts/study-case-contracts/003-web-of-science/WoS_API_Expanded_basicPlan.sol\":5557:5592  mapParty[application.walletAddress] */\n      0xffffffffffffffffffffffffffffffffffffffff\n      and\n      0xffffffffffffffffffffffffffffffffffffffff\n      and\n      dup2\n      mstore\n      0x20\n      add\n      swap1\n      dup2\n      mstore\n      0x20\n      add\n      0x00\n      keccak256\n      0x00\n        /* \"contracts/study-case-contracts/003-web-of-science/WoS_API_Expanded_basicPlan.sol\":5550:5592  delete mapParty[application.walletAddress] */\n      dup1\n      dup3\n      add\n      0x00\n      tag_52\n      swap2\n      swap1\n      tag_53\n      jump\t// in\n    tag_52:\n      0x01\n      dup3\n      add\n      exp(0x0100, 0x00)\n      dup2\n      sload\n      swap1\n      0xffffffffffffffffffffffffffffffffffffffff\n      mul\n      not\n      and\n      swap1\n      sstore\n      0x01\n      dup3\n      add\n      exp(0x0100, 0x14)\n      dup2\n      sload\n      swap1\n      0xff\n      mul\n      not\n      and\n      swap1\n      sstore\n      pop\n      pop\n        /* \"contracts/study-case-contracts/003-web-of-science/WoS_API_Expanded_basicPlan.sol\":5617:5662  EAI.createParty(_name, _walletAddress, false) */\n      tag_54\n        /* \"contracts/study-case-contracts/003-web-of-science/WoS_API_Expanded_basicPlan.sol\":5633:5638  _name */\n      dup4\n        /* \"contracts/study-case-contracts/003-web-of-science/WoS_API_Expanded_basicPlan.sol\":5640:5654  _walletAddress */\n      dup4\n        /* \"contracts/study-case-contracts/003-web-of-science/WoS_API_Expanded_basicPlan.sol\":5656:5661  false */\n      0x00\n        /* \"contracts/study-case-contracts/003-web-of-science/WoS_API_Expanded_basicPlan.sol\":5617:5632  EAI.createParty */\n      tag_43\n        /* \"contracts/study-case-contracts/003-web-of-science/WoS_API_Expanded_basicPlan.sol\":5617:5662  EAI.createParty(_name, _walletAddress, false) */\n      jump\t// in\n    tag_54:\n        /* \"contracts/study-case-contracts/003-web-of-science/WoS_API_Expanded_basicPlan.sol\":5603:5614  application */\n      0x01\n        /* \"contracts/study-case-contracts/003-web-of-science/WoS_API_Expanded_basicPlan.sol\":5603:5662  application = EAI.createParty(_name, _walletAddress, false) */\n      0x00\n      dup3\n      add\n      mload\n      dup2\n      0x00\n      add\n      swap1\n      dup1\n      mload\n      swap1\n      0x20\n      add\n      swap1\n      tag_55\n      swap3\n      swap2\n      swap1\n      tag_56\n      jump\t// in\n    tag_55:\n      pop\n      0x20\n      dup3\n      add\n      mload\n      dup2\n      0x01\n      add\n      exp(0x0100, 0x00)\n      dup2\n      sload\n      dup2\n      0xffffffffffffffffffffffffffffffffffffffff\n      mul\n      not\n      and\n      swap1\n      dup4\n      0xffffffffffffffffffffffffffffffffffffffff\n      and\n      mul\n      or\n      swap1\n      sstore\n      pop\n      0x40\n      dup3\n      add\n      mload\n      dup2\n      0x01\n      add\n      exp(0x0100, 0x14)\n      dup2\n      sload\n      dup2\n      0xff\n      mul\n      not\n      and\n      swap1\n      dup4\n      iszero\n      iszero\n      mul\n      or\n      swap1\n      sstore\n      pop\n      swap1\n      pop\n      pop\n        /* \"contracts/study-case-contracts/003-web-of-science/WoS_API_Expanded_basicPlan.sol\":5683:5726  updateMapParty(_walletAddress, application) */\n      tag_57\n        /* \"contracts/study-case-contracts/003-web-of-science/WoS_API_Expanded_basicPlan.sol\":5698:5712  _walletAddress */\n      dup3\n        /* \"contracts/study-case-contracts/003-web-of-science/WoS_API_Expanded_basicPlan.sol\":5714:5725  application */\n      0x01\n        /* \"contracts/study-case-contracts/003-web-of-science/WoS_API_Expanded_basicPlan.sol\":5683:5697  updateMapParty */\n      tag_58\n        /* \"contracts/study-case-contracts/003-web-of-science/WoS_API_Expanded_basicPlan.sol\":5683:5726  updateMapParty(_walletAddress, application) */\n      jump\t// in\n    tag_57:\n      pop\n        /* \"contracts/study-case-contracts/003-web-of-science/WoS_API_Expanded_basicPlan.sol\":5744:5748  true */\n      0x01\n        /* \"contracts/study-case-contracts/003-web-of-science/WoS_API_Expanded_basicPlan.sol\":5737:5748  return true */\n      swap1\n      pop\n        /* \"contracts/study-case-contracts/003-web-of-science/WoS_API_Expanded_basicPlan.sol\":5332:5763  function changeApplicationParty(string memory _name, address _walletAddress) public returns(bool) {       ... */\n      swap3\n      swap2\n      pop\n      pop\n      jump\t// out\n        /* \"contracts/study-case-contracts/003-web-of-science/WoS_API_Expanded_basicPlan.sol\":5911:6043  function getApplicationAddress() public view onlyInvolvedParties returns(address){... */\n    tag_18:\n        /* \"contracts/study-case-contracts/003-web-of-science/WoS_API_Expanded_basicPlan.sol\":5984:5991  address */\n      0x00\n        /* \"contracts/study-case-contracts/003-web-of-science/WoS_API_Expanded_basicPlan.sol\":6834:6843  activated */\n      dup1\n      0x00\n      swap1\n      sload\n      swap1\n      0x0100\n      exp\n      swap1\n      div\n      0xff\n      and\n        /* \"contracts/study-case-contracts/003-web-of-science/WoS_API_Expanded_basicPlan.sol\":6826:6876  require(activated, \"This contract is deactivated\") */\n      tag_60\n      jumpi\n      mload(0x40)\n      0x08c379a000000000000000000000000000000000000000000000000000000000\n      dup2\n      mstore\n      0x04\n      add\n      tag_61\n      swap1\n      tag_62\n      jump\t// in\n    tag_61:\n      mload(0x40)\n      dup1\n      swap2\n      sub\n      swap1\n      revert\n    tag_60:\n        /* \"contracts/study-case-contracts/003-web-of-science/WoS_API_Expanded_basicPlan.sol\":6939:6949  msg.sender */\n      caller\n        /* \"contracts/study-case-contracts/003-web-of-science/WoS_API_Expanded_basicPlan.sol\":6910:6949  application.walletAddress == msg.sender */\n      0xffffffffffffffffffffffffffffffffffffffff\n      and\n        /* \"contracts/study-case-contracts/003-web-of-science/WoS_API_Expanded_basicPlan.sol\":6910:6921  application */\n      0x01\n        /* \"contracts/study-case-contracts/003-web-of-science/WoS_API_Expanded_basicPlan.sol\":6910:6935  application.walletAddress */\n      dup1\n      add\n      0x00\n      swap1\n      sload\n      swap1\n      0x0100\n      exp\n      swap1\n      div\n      0xffffffffffffffffffffffffffffffffffffffff\n      and\n        /* \"contracts/study-case-contracts/003-web-of-science/WoS_API_Expanded_basicPlan.sol\":6910:6949  application.walletAddress == msg.sender */\n      0xffffffffffffffffffffffffffffffffffffffff\n      and\n      eq\n        /* \"contracts/study-case-contracts/003-web-of-science/WoS_API_Expanded_basicPlan.sol\":6910:6988  application.walletAddress == msg.sender || process.walletAddress == msg.sender */\n      dup1\n      tag_63\n      jumpi\n      pop\n        /* \"contracts/study-case-contracts/003-web-of-science/WoS_API_Expanded_basicPlan.sol\":6978:6988  msg.sender */\n      caller\n        /* \"contracts/study-case-contracts/003-web-of-science/WoS_API_Expanded_basicPlan.sol\":6953:6988  process.walletAddress == msg.sender */\n      0xffffffffffffffffffffffffffffffffffffffff\n      and\n        /* \"contracts/study-case-contracts/003-web-of-science/WoS_API_Expanded_basicPlan.sol\":6953:6960  process */\n      0x03\n        /* \"contracts/study-case-contracts/003-web-of-science/WoS_API_Expanded_basicPlan.sol\":6953:6974  process.walletAddress */\n      0x01\n      add\n      0x00\n      swap1\n      sload\n      swap1\n      0x0100\n      exp\n      swap1\n      div\n      0xffffffffffffffffffffffffffffffffffffffff\n      and\n        /* \"contracts/study-case-contracts/003-web-of-science/WoS_API_Expanded_basicPlan.sol\":6953:6988  process.walletAddress == msg.sender */\n      0xffffffffffffffffffffffffffffffffffffffff\n      and\n      eq\n        /* \"contracts/study-case-contracts/003-web-of-science/WoS_API_Expanded_basicPlan.sol\":6910:6988  application.walletAddress == msg.sender || process.walletAddress == msg.sender */\n    tag_63:\n        /* \"contracts/study-case-contracts/003-web-of-science/WoS_API_Expanded_basicPlan.sol\":6887:7071  require(... */\n      tag_64\n      jumpi\n      mload(0x40)\n      0x08c379a000000000000000000000000000000000000000000000000000000000\n      dup2\n      mstore\n      0x04\n      add\n      tag_65\n      swap1\n      tag_66\n      jump\t// in\n    tag_65:\n      mload(0x40)\n      dup1\n      swap2\n      sub\n      swap1\n      revert\n    tag_64:\n        /* \"contracts/study-case-contracts/003-web-of-science/WoS_API_Expanded_basicPlan.sol\":6010:6021  application */\n      0x01\n        /* \"contracts/study-case-contracts/003-web-of-science/WoS_API_Expanded_basicPlan.sol\":6010:6035  application.walletAddress */\n      dup1\n      add\n      0x00\n      swap1\n      sload\n      swap1\n      0x0100\n      exp\n      swap1\n      div\n      0xffffffffffffffffffffffffffffffffffffffff\n      and\n        /* \"contracts/study-case-contracts/003-web-of-science/WoS_API_Expanded_basicPlan.sol\":6003:6035  return application.walletAddress */\n      swap1\n      pop\n        /* \"contracts/study-case-contracts/003-web-of-science/WoS_API_Expanded_basicPlan.sol\":5911:6043  function getApplicationAddress() public view onlyInvolvedParties returns(address){... */\n      swap1\n      jump\t// out\n        /* \"contracts/study-case-contracts/003-web-of-science/WoS_API_Expanded_basicPlan.sol\":5775:5899  function getProcessAddress() public view onlyInvolvedParties returns(address){... */\n    tag_22:\n        /* \"contracts/study-case-contracts/003-web-of-science/WoS_API_Expanded_basicPlan.sol\":5844:5851  address */\n      0x00\n        /* \"contracts/study-case-contracts/003-web-of-science/WoS_API_Expanded_basicPlan.sol\":6834:6843  activated */\n      dup1\n      0x00\n      swap1\n      sload\n      swap1\n      0x0100\n      exp\n      swap1\n      div\n      0xff\n      and\n        /* \"contracts/study-case-contracts/003-web-of-science/WoS_API_Expanded_basicPlan.sol\":6826:6876  require(activated, \"This contract is deactivated\") */\n      tag_69\n      jumpi\n      mload(0x40)\n      0x08c379a000000000000000000000000000000000000000000000000000000000\n      dup2\n      mstore\n      0x04\n      add\n      tag_70\n      swap1\n      tag_62\n      jump\t// in\n    tag_70:\n      mload(0x40)\n      dup1\n      swap2\n      sub\n      swap1\n      revert\n    tag_69:\n        /* \"contracts/study-case-contracts/003-web-of-science/WoS_API_Expanded_basicPlan.sol\":6939:6949  msg.sender */\n      caller\n        /* \"contracts/study-case-contracts/003-web-of-science/WoS_API_Expanded_basicPlan.sol\":6910:6949  application.walletAddress == msg.sender */\n      0xffffffffffffffffffffffffffffffffffffffff\n      and\n        /* \"contracts/study-case-contracts/003-web-of-science/WoS_API_Expanded_basicPlan.sol\":6910:6921  application */\n      0x01\n        /* \"contracts/study-case-contracts/003-web-of-science/WoS_API_Expanded_basicPlan.sol\":6910:6935  application.walletAddress */\n      dup1\n      add\n      0x00\n      swap1\n      sload\n      swap1\n      0x0100\n      exp\n      swap1\n      div\n      0xffffffffffffffffffffffffffffffffffffffff\n      and\n        /* \"contracts/study-case-contracts/003-web-of-science/WoS_API_Expanded_basicPlan.sol\":6910:6949  application.walletAddress == msg.sender */\n      0xffffffffffffffffffffffffffffffffffffffff\n      and\n      eq\n        /* \"contracts/study-case-contracts/003-web-of-science/WoS_API_Expanded_basicPlan.sol\":6910:6988  application.walletAddress == msg.sender || process.walletAddress == msg.sender */\n      dup1\n      tag_71\n      jumpi\n      pop\n        /* \"contracts/study-case-contracts/003-web-of-science/WoS_API_Expanded_basicPlan.sol\":6978:6988  msg.sender */\n      caller\n        /* \"contracts/study-case-contracts/003-web-of-science/WoS_API_Expanded_basicPlan.sol\":6953:6988  process.walletAddress == msg.sender */\n      0xffffffffffffffffffffffffffffffffffffffff\n      and\n        /* \"contracts/study-case-contracts/003-web-of-science/WoS_API_Expanded_basicPlan.sol\":6953:6960  process */\n      0x03\n        /* \"contracts/study-case-contracts/003-web-of-science/WoS_API_Expanded_basicPlan.sol\":6953:6974  process.walletAddress */\n      0x01\n      add\n      0x00\n      swap1\n      sload\n      swap1\n      0x0100\n      exp\n      swap1\n      div\n      0xffffffffffffffffffffffffffffffffffffffff\n      and\n        /* \"contracts/study-case-contracts/003-web-of-science/WoS_API_Expanded_basicPlan.sol\":6953:6988  process.walletAddress == msg.sender */\n      0xffffffffffffffffffffffffffffffffffffffff\n      and\n      eq\n        /* \"contracts/study-case-contracts/003-web-of-science/WoS_API_Expanded_basicPlan.sol\":6910:6988  application.walletAddress == msg.sender || process.walletAddress == msg.sender */\n    tag_71:\n        /* \"contracts/study-case-contracts/003-web-of-science/WoS_API_Expanded_basicPlan.sol\":6887:7071  require(... */\n      tag_72\n      jumpi\n      mload(0x40)\n      0x08c379a000000000000000000000000000000000000000000000000000000000\n      dup2\n      mstore\n      0x04\n      add\n      tag_73\n      swap1\n      tag_66\n      jump\t// in\n    tag_73:\n      mload(0x40)\n      dup1\n      swap2\n      sub\n      swap1\n      revert\n    tag_72:\n        /* \"contracts/study-case-contracts/003-web-of-science/WoS_API_Expanded_basicPlan.sol\":5870:5877  process */\n      0x03\n        /* \"contracts/study-case-contracts/003-web-of-science/WoS_API_Expanded_basicPlan.sol\":5870:5891  process.walletAddress */\n      0x01\n      add\n      0x00\n      swap1\n      sload\n      swap1\n      0x0100\n      exp\n      swap1\n      div\n      0xffffffffffffffffffffffffffffffffffffffff\n      and\n        /* \"contracts/study-case-contracts/003-web-of-science/WoS_API_Expanded_basicPlan.sol\":5863:5891  return process.walletAddress */\n      swap1\n      pop\n        /* \"contracts/study-case-contracts/003-web-of-science/WoS_API_Expanded_basicPlan.sol\":5775:5899  function getProcessAddress() public view onlyInvolvedParties returns(address){... */\n      swap1\n      jump\t// out\n        /* \"contracts/study-case-contracts/003-web-of-science/WoS_API_Expanded_basicPlan.sol\":4732:4994  function signContract() public onlyApplication() returns(bool) {... */\n    tag_25:\n        /* \"contracts/study-case-contracts/003-web-of-science/WoS_API_Expanded_basicPlan.sol\":4789:4793  bool */\n      0x00\n        /* \"contracts/study-case-contracts/003-web-of-science/WoS_API_Expanded_basicPlan.sol\":6364:6373  activated */\n      dup1\n      0x00\n      swap1\n      sload\n      swap1\n      0x0100\n      exp\n      swap1\n      div\n      0xff\n      and\n        /* \"contracts/study-case-contracts/003-web-of-science/WoS_API_Expanded_basicPlan.sol\":6356:6406  require(activated, \"This contract is deactivated\") */\n      tag_76\n      jumpi\n      mload(0x40)\n      0x08c379a000000000000000000000000000000000000000000000000000000000\n      dup2\n      mstore\n      0x04\n      add\n      tag_77\n      swap1\n      tag_62\n      jump\t// in\n    tag_77:\n      mload(0x40)\n      dup1\n      swap2\n      sub\n      swap1\n      revert\n    tag_76:\n        /* \"contracts/study-case-contracts/003-web-of-science/WoS_API_Expanded_basicPlan.sol\":6470:6480  msg.sender */\n      caller\n        /* \"contracts/study-case-contracts/003-web-of-science/WoS_API_Expanded_basicPlan.sol\":6441:6480  application.walletAddress == msg.sender */\n      0xffffffffffffffffffffffffffffffffffffffff\n      and\n        /* \"contracts/study-case-contracts/003-web-of-science/WoS_API_Expanded_basicPlan.sol\":6441:6452  application */\n      0x01\n        /* \"contracts/study-case-contracts/003-web-of-science/WoS_API_Expanded_basicPlan.sol\":6441:6466  application.walletAddress */\n      dup1\n      add\n      0x00\n      swap1\n      sload\n      swap1\n      0x0100\n      exp\n      swap1\n      div\n      0xffffffffffffffffffffffffffffffffffffffff\n      and\n        /* \"contracts/study-case-contracts/003-web-of-science/WoS_API_Expanded_basicPlan.sol\":6441:6480  application.walletAddress == msg.sender */\n      0xffffffffffffffffffffffffffffffffffffffff\n      and\n      eq\n        /* \"contracts/study-case-contracts/003-web-of-science/WoS_API_Expanded_basicPlan.sol\":6433:6532  require(application.walletAddress == msg.sender, \"Only the application can execute this operation\") */\n      tag_78\n      jumpi\n      mload(0x40)\n      0x08c379a000000000000000000000000000000000000000000000000000000000\n      dup2\n      mstore\n      0x04\n      add\n      tag_79\n      swap1\n      tag_80\n      jump\t// in\n    tag_79:\n      mload(0x40)\n      dup1\n      swap2\n      sub\n      swap1\n      revert\n    tag_78:\n        /* \"contracts/study-case-contracts/003-web-of-science/WoS_API_Expanded_basicPlan.sol\":4835:4840  false */\n      0x00\n        /* \"contracts/study-case-contracts/003-web-of-science/WoS_API_Expanded_basicPlan.sol\":4814:4840  application.aware == false */\n      iszero\n      iszero\n        /* \"contracts/study-case-contracts/003-web-of-science/WoS_API_Expanded_basicPlan.sol\":4814:4825  application */\n      0x01\n        /* \"contracts/study-case-contracts/003-web-of-science/WoS_API_Expanded_basicPlan.sol\":4814:4831  application.aware */\n      dup1\n      add\n      0x14\n      swap1\n      sload\n      swap1\n      0x0100\n      exp\n      swap1\n      div\n      0xff\n      and\n        /* \"contracts/study-case-contracts/003-web-of-science/WoS_API_Expanded_basicPlan.sol\":4814:4840  application.aware == false */\n      iszero\n      iszero\n      eq\n        /* \"contracts/study-case-contracts/003-web-of-science/WoS_API_Expanded_basicPlan.sol\":4806:4875  require(application.aware == false, \"The contract is already signed\") */\n      tag_82\n      jumpi\n      mload(0x40)\n      0x08c379a000000000000000000000000000000000000000000000000000000000\n      dup2\n      mstore\n      0x04\n      add\n      tag_83\n      swap1\n      tag_84\n      jump\t// in\n    tag_83:\n      mload(0x40)\n      dup1\n      swap2\n      sub\n      swap1\n      revert\n    tag_82:\n        /* \"contracts/study-case-contracts/003-web-of-science/WoS_API_Expanded_basicPlan.sol\":4914:4918  true */\n      0x01\n        /* \"contracts/study-case-contracts/003-web-of-science/WoS_API_Expanded_basicPlan.sol\":4894:4905  application */\n      dup1\n        /* \"contracts/study-case-contracts/003-web-of-science/WoS_API_Expanded_basicPlan.sol\":4894:4911  application.aware */\n      0x01\n      add\n      0x14\n        /* \"contracts/study-case-contracts/003-web-of-science/WoS_API_Expanded_basicPlan.sol\":4894:4918  application.aware = true */\n      0x0100\n      exp\n      dup2\n      sload\n      dup2\n      0xff\n      mul\n      not\n      and\n      swap1\n      dup4\n      iszero\n      iszero\n      mul\n      or\n      swap1\n      sstore\n      pop\n        /* \"contracts/study-case-contracts/003-web-of-science/WoS_API_Expanded_basicPlan.sol\":4931:4970  updateMapParty(msg.sender, application) */\n      tag_85\n        /* \"contracts/study-case-contracts/003-web-of-science/WoS_API_Expanded_basicPlan.sol\":4946:4956  msg.sender */\n      caller\n        /* \"contracts/study-case-contracts/003-web-of-science/WoS_API_Expanded_basicPlan.sol\":4958:4969  application */\n      0x01\n        /* \"contracts/study-case-contracts/003-web-of-science/WoS_API_Expanded_basicPlan.sol\":4931:4945  updateMapParty */\n      tag_58\n        /* \"contracts/study-case-contracts/003-web-of-science/WoS_API_Expanded_basicPlan.sol\":4931:4970  updateMapParty(msg.sender, application) */\n      jump\t// in\n    tag_85:\n      pop\n        /* \"contracts/study-case-contracts/003-web-of-science/WoS_API_Expanded_basicPlan.sol\":4982:4986  true */\n      0x01\n        /* \"contracts/study-case-contracts/003-web-of-science/WoS_API_Expanded_basicPlan.sol\":4975:4986  return true */\n      swap1\n      pop\n        /* \"contracts/study-case-contracts/003-web-of-science/WoS_API_Expanded_basicPlan.sol\":4732:4994  function signContract() public onlyApplication() returns(bool) {... */\n      swap1\n      jump\t// out\n        /* \"contracts/study-case-contracts/003-web-of-science/WoS_API_Expanded_basicPlan.sol\":3872:4398  function obligation_responseWithDocuments (uint32 _accessDateTime) public onlyApplication() returns(bool){... */\n    tag_30:\n        /* \"contracts/study-case-contracts/003-web-of-science/WoS_API_Expanded_basicPlan.sol\":3972:3976  bool */\n      0x00\n        /* \"contracts/study-case-contracts/003-web-of-science/WoS_API_Expanded_basicPlan.sol\":6364:6373  activated */\n      dup1\n      0x00\n      swap1\n      sload\n      swap1\n      0x0100\n      exp\n      swap1\n      div\n      0xff\n      and\n        /* \"contracts/study-case-contracts/003-web-of-science/WoS_API_Expanded_basicPlan.sol\":6356:6406  require(activated, \"This contract is deactivated\") */\n      tag_87\n      jumpi\n      mload(0x40)\n      0x08c379a000000000000000000000000000000000000000000000000000000000\n      dup2\n      mstore\n      0x04\n      add\n      tag_88\n      swap1\n      tag_62\n      jump\t// in\n    tag_88:\n      mload(0x40)\n      dup1\n      swap2\n      sub\n      swap1\n      revert\n    tag_87:\n        /* \"contracts/study-case-contracts/003-web-of-science/WoS_API_Expanded_basicPlan.sol\":6470:6480  msg.sender */\n      caller\n        /* \"contracts/study-case-contracts/003-web-of-science/WoS_API_Expanded_basicPlan.sol\":6441:6480  application.walletAddress == msg.sender */\n      0xffffffffffffffffffffffffffffffffffffffff\n      and\n        /* \"contracts/study-case-contracts/003-web-of-science/WoS_API_Expanded_basicPlan.sol\":6441:6452  application */\n      0x01\n        /* \"contracts/study-case-contracts/003-web-of-science/WoS_API_Expanded_basicPlan.sol\":6441:6466  application.walletAddress */\n      dup1\n      add\n      0x00\n      swap1\n      sload\n      swap1\n      0x0100\n      exp\n      swap1\n      div\n      0xffffffffffffffffffffffffffffffffffffffff\n      and\n        /* \"contracts/study-case-contracts/003-web-of-science/WoS_API_Expanded_basicPlan.sol\":6441:6480  application.walletAddress == msg.sender */\n      0xffffffffffffffffffffffffffffffffffffffff\n      and\n      eq\n        /* \"contracts/study-case-contracts/003-web-of-science/WoS_API_Expanded_basicPlan.sol\":6433:6532  require(application.walletAddress == msg.sender, \"Only the application can execute this operation\") */\n      tag_89\n      jumpi\n      mload(0x40)\n      0x08c379a000000000000000000000000000000000000000000000000000000000\n      dup2\n      mstore\n      0x04\n      add\n      tag_90\n      swap1\n      tag_80\n      jump\t// in\n    tag_90:\n      mload(0x40)\n      dup1\n      swap2\n      sub\n      swap1\n      revert\n    tag_89:\n        /* \"contracts/study-case-contracts/003-web-of-science/WoS_API_Expanded_basicPlan.sol\":3994:4039  timeout_C2[0].isTimeoutEnded(_accessDateTime) */\n      tag_92\n        /* \"contracts/study-case-contracts/003-web-of-science/WoS_API_Expanded_basicPlan.sol\":4023:4038  _accessDateTime */\n      dup3\n        /* \"contracts/study-case-contracts/003-web-of-science/WoS_API_Expanded_basicPlan.sol\":3994:4004  timeout_C2 */\n      0x09\n        /* \"contracts/study-case-contracts/003-web-of-science/WoS_API_Expanded_basicPlan.sol\":4005:4006  0 */\n      0x00\n        /* \"contracts/study-case-contracts/003-web-of-science/WoS_API_Expanded_basicPlan.sol\":3994:4007  timeout_C2[0] */\n      dup2\n      sload\n      dup2\n      lt\n      tag_93\n      jumpi\n      tag_94\n      tag_95\n      jump\t// in\n    tag_94:\n    tag_93:\n      swap1\n      0x00\n      mstore\n      keccak256(0x00, 0x20)\n      add\n        /* \"contracts/study-case-contracts/003-web-of-science/WoS_API_Expanded_basicPlan.sol\":3994:4022  timeout_C2[0].isTimeoutEnded */\n      mload(0x40)\n      dup1\n      0x40\n      add\n      0x40\n      mstore\n      swap1\n      dup2\n      0x00\n      dup3\n      add\n      0x00\n      swap1\n      sload\n      swap1\n      0x0100\n      exp\n      swap1\n      div\n      0xffffffff\n      and\n      0xffffffff\n      and\n      0xffffffff\n      and\n      dup2\n      mstore\n      0x20\n      add\n      0x00\n      dup3\n      add\n      0x04\n      swap1\n      sload\n      swap1\n      0x0100\n      exp\n      swap1\n      div\n      0xffffffff\n      and\n      0xffffffff\n      and\n      0xffffffff\n      and\n      dup2\n      mstore\n      pop\n      pop\n      tag_97\n      swap1\n        /* \"contracts/study-case-contracts/003-web-of-science/WoS_API_Expanded_basicPlan.sol\":3994:4039  timeout_C2[0].isTimeoutEnded(_accessDateTime) */\n      swap2\n      swap1\n      0xffffffff\n      and\n      jump\t// in\n    tag_92:\n        /* \"contracts/study-case-contracts/003-web-of-science/WoS_API_Expanded_basicPlan.sol\":3990:4391  if(!timeout_C2[0].isTimeoutEnded(_accessDateTime)){... */\n      tag_98\n      jumpi\n        /* \"contracts/study-case-contracts/003-web-of-science/WoS_API_Expanded_basicPlan.sol\":4060:4097  successEvent(\"Successful execution!\") */\n      0x95a1f3a1dafdd4c1af344e3d7c69a72cbce8a3f15fe1cf95a7f5bd23df2e71a1\n      mload(0x40)\n      tag_99\n      swap1\n      tag_100\n      jump\t// in\n    tag_99:\n      mload(0x40)\n      dup1\n      swap2\n      sub\n      swap1\n      log1\n        /* \"contracts/study-case-contracts/003-web-of-science/WoS_API_Expanded_basicPlan.sol\":4112:4174  maxNumberOfOperationByTime_C1[0].decreaseOneOperation_ByTime() */\n      tag_101\n        /* \"contracts/study-case-contracts/003-web-of-science/WoS_API_Expanded_basicPlan.sol\":4112:4141  maxNumberOfOperationByTime_C1 */\n      0x06\n        /* \"contracts/study-case-contracts/003-web-of-science/WoS_API_Expanded_basicPlan.sol\":4142:4143  0 */\n      0x00\n        /* \"contracts/study-case-contracts/003-web-of-science/WoS_API_Expanded_basicPlan.sol\":4112:4144  maxNumberOfOperationByTime_C1[0] */\n      dup2\n      sload\n      dup2\n      lt\n      tag_102\n      jumpi\n      tag_103\n      tag_95\n      jump\t// in\n    tag_103:\n    tag_102:\n      swap1\n      0x00\n      mstore\n      keccak256(0x00, 0x20)\n      add\n        /* \"contracts/study-case-contracts/003-web-of-science/WoS_API_Expanded_basicPlan.sol\":4112:4172  maxNumberOfOperationByTime_C1[0].decreaseOneOperation_ByTime */\n      tag_105\n        /* \"contracts/study-case-contracts/003-web-of-science/WoS_API_Expanded_basicPlan.sol\":4112:4174  maxNumberOfOperationByTime_C1[0].decreaseOneOperation_ByTime() */\n      jump\t// in\n    tag_101:\n        /* \"contracts/study-case-contracts/003-web-of-science/WoS_API_Expanded_basicPlan.sol\":4189:4259  msgContent_numberPerTime_C1[0].decreaseTheLastContentOfRestingAmount() */\n      tag_106\n        /* \"contracts/study-case-contracts/003-web-of-science/WoS_API_Expanded_basicPlan.sol\":4189:4216  msgContent_numberPerTime_C1 */\n      0x08\n        /* \"contracts/study-case-contracts/003-web-of-science/WoS_API_Expanded_basicPlan.sol\":4217:4218  0 */\n      0x00\n        /* \"contracts/study-case-contracts/003-web-of-science/WoS_API_Expanded_basicPlan.sol\":4189:4219  msgContent_numberPerTime_C1[0] */\n      dup2\n      sload\n      dup2\n      lt\n      tag_107\n      jumpi\n      tag_108\n      tag_95\n      jump\t// in\n    tag_108:\n    tag_107:\n      swap1\n      0x00\n      mstore\n      keccak256(0x00, 0x20)\n      swap1\n      0x07\n      mul\n      add\n        /* \"contracts/study-case-contracts/003-web-of-science/WoS_API_Expanded_basicPlan.sol\":4189:4257  msgContent_numberPerTime_C1[0].decreaseTheLastContentOfRestingAmount */\n      tag_110\n        /* \"contracts/study-case-contracts/003-web-of-science/WoS_API_Expanded_basicPlan.sol\":4189:4259  msgContent_numberPerTime_C1[0].decreaseTheLastContentOfRestingAmount() */\n      jump\t// in\n    tag_106:\n        /* \"contracts/study-case-contracts/003-web-of-science/WoS_API_Expanded_basicPlan.sol\":4281:4285  true */\n      0x01\n        /* \"contracts/study-case-contracts/003-web-of-science/WoS_API_Expanded_basicPlan.sol\":4274:4285  return true */\n      swap1\n      pop\n      jump(tag_91)\n        /* \"contracts/study-case-contracts/003-web-of-science/WoS_API_Expanded_basicPlan.sol\":3990:4391  if(!timeout_C2[0].isTimeoutEnded(_accessDateTime)){... */\n    tag_98:\n        /* \"contracts/study-case-contracts/003-web-of-science/WoS_API_Expanded_basicPlan.sol\":4321:4352  failEvent(\"Condition not meet\") */\n      0x66091b7dc2b097c8f60d5cd6aa99633b097f08d2eb1056f3e15361b22e0ea2ba\n      mload(0x40)\n      tag_112\n      swap1\n      tag_113\n      jump\t// in\n    tag_112:\n      mload(0x40)\n      dup1\n      swap2\n      sub\n      swap1\n      log1\n        /* \"contracts/study-case-contracts/003-web-of-science/WoS_API_Expanded_basicPlan.sol\":4374:4379  false */\n      0x00\n        /* \"contracts/study-case-contracts/003-web-of-science/WoS_API_Expanded_basicPlan.sol\":4367:4379  return false */\n      swap1\n      pop\n        /* \"contracts/study-case-contracts/003-web-of-science/WoS_API_Expanded_basicPlan.sol\":6547:6548  _ */\n    tag_91:\n        /* \"contracts/study-case-contracts/003-web-of-science/WoS_API_Expanded_basicPlan.sol\":3872:4398  function obligation_responseWithDocuments (uint32 _accessDateTime) public onlyApplication() returns(bool){... */\n      swap2\n      swap1\n      pop\n      jump\t// out\n        /* \"contracts/study-case-contracts/003-web-of-science/WoS_API_Expanded_basicPlan.sol\":3029:3864  function right_requestDocuments(uint32 _accessDateTime, int256[] memory  _resultFromXpath_n, uint256[] memory _resultFromXpath_npt) public onlyProcess() returns(bool){... */\n    tag_35:\n        /* \"contracts/study-case-contracts/003-web-of-science/WoS_API_Expanded_basicPlan.sol\":3190:3194  bool */\n      0x00\n        /* \"contracts/study-case-contracts/003-web-of-science/WoS_API_Expanded_basicPlan.sol\":6613:6622  activated */\n      dup1\n      0x00\n      swap1\n      sload\n      swap1\n      0x0100\n      exp\n      swap1\n      div\n      0xff\n      and\n        /* \"contracts/study-case-contracts/003-web-of-science/WoS_API_Expanded_basicPlan.sol\":6605:6655  require(activated, \"This contract is deactivated\") */\n      tag_115\n      jumpi\n      mload(0x40)\n      0x08c379a000000000000000000000000000000000000000000000000000000000\n      dup2\n      mstore\n      0x04\n      add\n      tag_116\n      swap1\n      tag_62\n      jump\t// in\n    tag_116:\n      mload(0x40)\n      dup1\n      swap2\n      sub\n      swap1\n      revert\n    tag_115:\n        /* \"contracts/study-case-contracts/003-web-of-science/WoS_API_Expanded_basicPlan.sol\":6699:6709  msg.sender */\n      caller\n        /* \"contracts/study-case-contracts/003-web-of-science/WoS_API_Expanded_basicPlan.sol\":6674:6709  process.walletAddress == msg.sender */\n      0xffffffffffffffffffffffffffffffffffffffff\n      and\n        /* \"contracts/study-case-contracts/003-web-of-science/WoS_API_Expanded_basicPlan.sol\":6674:6681  process */\n      0x03\n        /* \"contracts/study-case-contracts/003-web-of-science/WoS_API_Expanded_basicPlan.sol\":6674:6695  process.walletAddress */\n      0x01\n      add\n      0x00\n      swap1\n      sload\n      swap1\n      0x0100\n      exp\n      swap1\n      div\n      0xffffffffffffffffffffffffffffffffffffffff\n      and\n        /* \"contracts/study-case-contracts/003-web-of-science/WoS_API_Expanded_basicPlan.sol\":6674:6709  process.walletAddress == msg.sender */\n      0xffffffffffffffffffffffffffffffffffffffff\n      and\n      eq\n        /* \"contracts/study-case-contracts/003-web-of-science/WoS_API_Expanded_basicPlan.sol\":6666:6757  require(process.walletAddress == msg.sender, \"Only the process can execute this operation\") */\n      tag_117\n      jumpi\n      mload(0x40)\n      0x08c379a000000000000000000000000000000000000000000000000000000000\n      dup2\n      mstore\n      0x04\n      add\n      tag_118\n      swap1\n      tag_51\n      jump\t// in\n    tag_118:\n      mload(0x40)\n      dup1\n      swap2\n      sub\n      swap1\n      revert\n    tag_117:\n        /* \"contracts/study-case-contracts/003-web-of-science/WoS_API_Expanded_basicPlan.sol\":3211:3290  maxNumberOfOperationByTime_C1[0].hasAvailableOperations_ByTime(_accessDateTime) */\n      tag_120\n        /* \"contracts/study-case-contracts/003-web-of-science/WoS_API_Expanded_basicPlan.sol\":3274:3289  _accessDateTime */\n      dup5\n        /* \"contracts/study-case-contracts/003-web-of-science/WoS_API_Expanded_basicPlan.sol\":3211:3240  maxNumberOfOperationByTime_C1 */\n      0x06\n        /* \"contracts/study-case-contracts/003-web-of-science/WoS_API_Expanded_basicPlan.sol\":3241:3242  0 */\n      0x00\n        /* \"contracts/study-case-contracts/003-web-of-science/WoS_API_Expanded_basicPlan.sol\":3211:3243  maxNumberOfOperationByTime_C1[0] */\n      dup2\n      sload\n      dup2\n      lt\n      tag_121\n      jumpi\n      tag_122\n      tag_95\n      jump\t// in\n    tag_122:\n    tag_121:\n      swap1\n      0x00\n      mstore\n      keccak256(0x00, 0x20)\n      add\n        /* \"contracts/study-case-contracts/003-web-of-science/WoS_API_Expanded_basicPlan.sol\":3211:3273  maxNumberOfOperationByTime_C1[0].hasAvailableOperations_ByTime */\n      tag_124\n      swap1\n        /* \"contracts/study-case-contracts/003-web-of-science/WoS_API_Expanded_basicPlan.sol\":3211:3290  maxNumberOfOperationByTime_C1[0].hasAvailableOperations_ByTime(_accessDateTime) */\n      swap2\n      swap1\n      0xffffffff\n      and\n      jump\t// in\n    tag_120:\n        /* \"contracts/study-case-contracts/003-web-of-science/WoS_API_Expanded_basicPlan.sol\":3211:3374  maxNumberOfOperationByTime_C1[0].hasAvailableOperations_ByTime(_accessDateTime)&&... */\n      dup1\n      iszero\n      tag_125\n      jumpi\n      pop\n        /* \"contracts/study-case-contracts/003-web-of-science/WoS_API_Expanded_basicPlan.sol\":3306:3374  msgContent_number_C1[0].evaluateNumberContent(_resultFromXpath_n[0]) */\n      tag_126\n        /* \"contracts/study-case-contracts/003-web-of-science/WoS_API_Expanded_basicPlan.sol\":3352:3370  _resultFromXpath_n */\n      dup4\n        /* \"contracts/study-case-contracts/003-web-of-science/WoS_API_Expanded_basicPlan.sol\":3371:3372  0 */\n      0x00\n        /* \"contracts/study-case-contracts/003-web-of-science/WoS_API_Expanded_basicPlan.sol\":3352:3373  _resultFromXpath_n[0] */\n      dup2\n      mload\n      dup2\n      lt\n      tag_127\n      jumpi\n      tag_128\n      tag_95\n      jump\t// in\n    tag_128:\n    tag_127:\n      0x20\n      mul\n      0x20\n      add\n      add\n      mload\n        /* \"contracts/study-case-contracts/003-web-of-science/WoS_API_Expanded_basicPlan.sol\":3306:3326  msgContent_number_C1 */\n      0x07\n        /* \"contracts/study-case-contracts/003-web-of-science/WoS_API_Expanded_basicPlan.sol\":3327:3328  0 */\n      0x00\n        /* \"contracts/study-case-contracts/003-web-of-science/WoS_API_Expanded_basicPlan.sol\":3306:3329  msgContent_number_C1[0] */\n      dup2\n      sload\n      dup2\n      lt\n      tag_129\n      jumpi\n      tag_130\n      tag_95\n      jump\t// in\n    tag_130:\n    tag_129:\n      swap1\n      0x00\n      mstore\n      keccak256(0x00, 0x20)\n      swap1\n      0x03\n      mul\n      add\n        /* \"contracts/study-case-contracts/003-web-of-science/WoS_API_Expanded_basicPlan.sol\":3306:3351  msgContent_number_C1[0].evaluateNumberContent */\n      mload(0x40)\n      dup1\n      0x60\n      add\n      0x40\n      mstore\n      swap1\n      dup2\n      0x00\n      dup3\n      add\n      dup1\n      sload\n      tag_132\n      swap1\n      tag_133\n      jump\t// in\n    tag_132:\n      dup1\n      0x1f\n      add\n      0x20\n      dup1\n      swap2\n      div\n      mul\n      0x20\n      add\n      mload(0x40)\n      swap1\n      dup2\n      add\n      0x40\n      mstore\n      dup1\n      swap3\n      swap2\n      swap1\n      dup2\n      dup2\n      mstore\n      0x20\n      add\n      dup3\n      dup1\n      sload\n      tag_134\n      swap1\n      tag_133\n      jump\t// in\n    tag_134:\n      dup1\n      iszero\n      tag_135\n      jumpi\n      dup1\n      0x1f\n      lt\n      tag_136\n      jumpi\n      0x0100\n      dup1\n      dup4\n      sload\n      div\n      mul\n      dup4\n      mstore\n      swap2\n      0x20\n      add\n      swap2\n      jump(tag_135)\n    tag_136:\n      dup3\n      add\n      swap2\n      swap1\n      0x00\n      mstore\n      keccak256(0x00, 0x20)\n      swap1\n    tag_137:\n      dup2\n      sload\n      dup2\n      mstore\n      swap1\n      0x01\n      add\n      swap1\n      0x20\n      add\n      dup1\n      dup4\n      gt\n      tag_137\n      jumpi\n      dup3\n      swap1\n      sub\n      0x1f\n      and\n      dup3\n      add\n      swap2\n    tag_135:\n      pop\n      pop\n      pop\n      pop\n      pop\n      dup2\n      mstore\n      0x20\n      add\n      0x01\n      dup3\n      add\n      dup1\n      sload\n      tag_138\n      swap1\n      tag_133\n      jump\t// in\n    tag_138:\n      dup1\n      0x1f\n      add\n      0x20\n      dup1\n      swap2\n      div\n      mul\n      0x20\n      add\n      mload(0x40)\n      swap1\n      dup2\n      add\n      0x40\n      mstore\n      dup1\n      swap3\n      swap2\n      swap1\n      dup2\n      dup2\n      mstore\n      0x20\n      add\n      dup3\n      dup1\n      sload\n      tag_139\n      swap1\n      tag_133\n      jump\t// in\n    tag_139:\n      dup1\n      iszero\n      tag_140\n      jumpi\n      dup1\n      0x1f\n      lt\n      tag_141\n      jumpi\n      0x0100\n      dup1\n      dup4\n      sload\n      div\n      mul\n      dup4\n      mstore\n      swap2\n      0x20\n      add\n      swap2\n      jump(tag_140)\n    tag_141:\n      dup3\n      add\n      swap2\n      swap1\n      0x00\n      mstore\n      keccak256(0x00, 0x20)\n      swap1\n    tag_142:\n      dup2\n      sload\n      dup2\n      mstore\n      swap1\n      0x01\n      add\n      swap1\n      0x20\n      add\n      dup1\n      dup4\n      gt\n      tag_142\n      jumpi\n      dup3\n      swap1\n      sub\n      0x1f\n      and\n      dup3\n      add\n      swap2\n    tag_140:\n      pop\n      pop\n      pop\n      pop\n      pop\n      dup2\n      mstore\n      0x20\n      add\n      0x02\n      dup3\n      add\n      sload\n      dup2\n      mstore\n      pop\n      pop\n      tag_143\n      swap1\n        /* \"contracts/study-case-contracts/003-web-of-science/WoS_API_Expanded_basicPlan.sol\":3306:3374  msgContent_number_C1[0].evaluateNumberContent(_resultFromXpath_n[0]) */\n      swap2\n      swap1\n      0xffffffff\n      and\n      jump\t// in\n    tag_126:\n        /* \"contracts/study-case-contracts/003-web-of-science/WoS_API_Expanded_basicPlan.sol\":3211:3374  maxNumberOfOperationByTime_C1[0].hasAvailableOperations_ByTime(_accessDateTime)&&... */\n    tag_125:\n        /* \"contracts/study-case-contracts/003-web-of-science/WoS_API_Expanded_basicPlan.sol\":3211:3485  maxNumberOfOperationByTime_C1[0].hasAvailableOperations_ByTime(_accessDateTime)&&... */\n      dup1\n      iszero\n      tag_144\n      jumpi\n      pop\n        /* \"contracts/study-case-contracts/003-web-of-science/WoS_API_Expanded_basicPlan.sol\":3391:3485  msgContent_numberPerTime_C1[0].evaluateNumberPerTime(_accessDateTime, _resultFromXpath_npt[0]) */\n      tag_145\n        /* \"contracts/study-case-contracts/003-web-of-science/WoS_API_Expanded_basicPlan.sol\":3444:3459  _accessDateTime */\n      dup5\n        /* \"contracts/study-case-contracts/003-web-of-science/WoS_API_Expanded_basicPlan.sol\":3461:3481  _resultFromXpath_npt */\n      dup4\n        /* \"contracts/study-case-contracts/003-web-of-science/WoS_API_Expanded_basicPlan.sol\":3482:3483  0 */\n      0x00\n        /* \"contracts/study-case-contracts/003-web-of-science/WoS_API_Expanded_basicPlan.sol\":3461:3484  _resultFromXpath_npt[0] */\n      dup2\n      mload\n      dup2\n      lt\n      tag_146\n      jumpi\n      tag_147\n      tag_95\n      jump\t// in\n    tag_147:\n    tag_146:\n      0x20\n      mul\n      0x20\n      add\n      add\n      mload\n        /* \"contracts/study-case-contracts/003-web-of-science/WoS_API_Expanded_basicPlan.sol\":3391:3418  msgContent_numberPerTime_C1 */\n      0x08\n        /* \"contracts/study-case-contracts/003-web-of-science/WoS_API_Expanded_basicPlan.sol\":3419:3420  0 */\n      0x00\n        /* \"contracts/study-case-contracts/003-web-of-science/WoS_API_Expanded_basicPlan.sol\":3391:3421  msgContent_numberPerTime_C1[0] */\n      dup2\n      sload\n      dup2\n      lt\n      tag_148\n      jumpi\n      tag_149\n      tag_95\n      jump\t// in\n    tag_149:\n    tag_148:\n      swap1\n      0x00\n      mstore\n      keccak256(0x00, 0x20)\n      swap1\n      0x07\n      mul\n      add\n        /* \"contracts/study-case-contracts/003-web-of-science/WoS_API_Expanded_basicPlan.sol\":3391:3443  msgContent_numberPerTime_C1[0].evaluateNumberPerTime */\n      tag_151\n      swap1\n        /* \"contracts/study-case-contracts/003-web-of-science/WoS_API_Expanded_basicPlan.sol\":3391:3485  msgContent_numberPerTime_C1[0].evaluateNumberPerTime(_accessDateTime, _resultFromXpath_npt[0]) */\n      swap3\n      swap2\n      swap1\n      0xffffffff\n      and\n      jump\t// in\n    tag_145:\n        /* \"contracts/study-case-contracts/003-web-of-science/WoS_API_Expanded_basicPlan.sol\":3211:3485  maxNumberOfOperationByTime_C1[0].hasAvailableOperations_ByTime(_accessDateTime)&&... */\n    tag_144:\n        /* \"contracts/study-case-contracts/003-web-of-science/WoS_API_Expanded_basicPlan.sol\":3208:3854  if(maxNumberOfOperationByTime_C1[0].hasAvailableOperations_ByTime(_accessDateTime)&&... */\n      iszero\n      tag_152\n      jumpi\n        /* \"contracts/study-case-contracts/003-web-of-science/WoS_API_Expanded_basicPlan.sol\":3605:3655  timeout_C2[0].setEndTimeInTimeout(_accessDateTime) */\n      tag_153\n        /* \"contracts/study-case-contracts/003-web-of-science/WoS_API_Expanded_basicPlan.sol\":3639:3654  _accessDateTime */\n      dup5\n        /* \"contracts/study-case-contracts/003-web-of-science/WoS_API_Expanded_basicPlan.sol\":3605:3615  timeout_C2 */\n      0x09\n        /* \"contracts/study-case-contracts/003-web-of-science/WoS_API_Expanded_basicPlan.sol\":3616:3617  0 */\n      0x00\n        /* \"contracts/study-case-contracts/003-web-of-science/WoS_API_Expanded_basicPlan.sol\":3605:3618  timeout_C2[0] */\n      dup2\n      sload\n      dup2\n      lt\n      tag_154\n      jumpi\n      tag_155\n      tag_95\n      jump\t// in\n    tag_155:\n    tag_154:\n      swap1\n      0x00\n      mstore\n      keccak256(0x00, 0x20)\n      add\n        /* \"contracts/study-case-contracts/003-web-of-science/WoS_API_Expanded_basicPlan.sol\":3605:3638  timeout_C2[0].setEndTimeInTimeout */\n      tag_157\n      swap1\n        /* \"contracts/study-case-contracts/003-web-of-science/WoS_API_Expanded_basicPlan.sol\":3605:3655  timeout_C2[0].setEndTimeInTimeout(_accessDateTime) */\n      swap2\n      swap1\n      0xffffffff\n      and\n      jump\t// in\n    tag_153:\n        /* \"contracts/study-case-contracts/003-web-of-science/WoS_API_Expanded_basicPlan.sol\":3675:3712  successEvent(\"Successful execution!\") */\n      0x95a1f3a1dafdd4c1af344e3d7c69a72cbce8a3f15fe1cf95a7f5bd23df2e71a1\n      mload(0x40)\n      tag_158\n      swap1\n      tag_100\n      jump\t// in\n    tag_158:\n      mload(0x40)\n      dup1\n      swap2\n      sub\n      swap1\n      log1\n        /* \"contracts/study-case-contracts/003-web-of-science/WoS_API_Expanded_basicPlan.sol\":3734:3738  true */\n      0x01\n        /* \"contracts/study-case-contracts/003-web-of-science/WoS_API_Expanded_basicPlan.sol\":3727:3738  return true */\n      swap1\n      pop\n      jump(tag_119)\n        /* \"contracts/study-case-contracts/003-web-of-science/WoS_API_Expanded_basicPlan.sol\":3208:3854  if(maxNumberOfOperationByTime_C1[0].hasAvailableOperations_ByTime(_accessDateTime)&&... */\n    tag_152:\n        /* \"contracts/study-case-contracts/003-web-of-science/WoS_API_Expanded_basicPlan.sol\":3775:3815  failEvent(\"Exceded number of docuemnts\") */\n      0x66091b7dc2b097c8f60d5cd6aa99633b097f08d2eb1056f3e15361b22e0ea2ba\n      mload(0x40)\n      tag_160\n      swap1\n      tag_161\n      jump\t// in\n    tag_160:\n      mload(0x40)\n      dup1\n      swap2\n      sub\n      swap1\n      log1\n        /* \"contracts/study-case-contracts/003-web-of-science/WoS_API_Expanded_basicPlan.sol\":3837:3842  false */\n      0x00\n        /* \"contracts/study-case-contracts/003-web-of-science/WoS_API_Expanded_basicPlan.sol\":3830:3842  return false */\n      swap1\n      pop\n        /* \"contracts/study-case-contracts/003-web-of-science/WoS_API_Expanded_basicPlan.sol\":6768:6769  _ */\n    tag_119:\n        /* \"contracts/study-case-contracts/003-web-of-science/WoS_API_Expanded_basicPlan.sol\":3029:3864  function right_requestDocuments(uint32 _accessDateTime, int256[] memory  _resultFromXpath_n, uint256[] memory _resultFromXpath_npt) public onlyProcess() returns(bool){... */\n      swap4\n      swap3\n      pop\n      pop\n      pop\n      jump\t// out\n        /* \"contracts/study-case-contracts/003-web-of-science/WoS_API_Expanded_basicPlan.sol\":6051:6200  function getParty(address _walletAddress) public view onlyInvolvedParties returns(EAI.Party memory){... */\n    tag_40:\n        /* \"contracts/study-case-contracts/003-web-of-science/WoS_API_Expanded_basicPlan.sol\":6133:6149  EAI.Party memory */\n      tag_162\n      tag_163\n      jump\t// in\n    tag_162:\n        /* \"contracts/study-case-contracts/003-web-of-science/WoS_API_Expanded_basicPlan.sol\":6834:6843  activated */\n      0x00\n      dup1\n      sload\n      swap1\n      0x0100\n      exp\n      swap1\n      div\n      0xff\n      and\n        /* \"contracts/study-case-contracts/003-web-of-science/WoS_API_Expanded_basicPlan.sol\":6826:6876  require(activated, \"This contract is deactivated\") */\n      tag_165\n      jumpi\n      mload(0x40)\n      0x08c379a000000000000000000000000000000000000000000000000000000000\n      dup2\n      mstore\n      0x04\n      add\n      tag_166\n      swap1\n      tag_62\n      jump\t// in\n    tag_166:\n      mload(0x40)\n      dup1\n      swap2\n      sub\n      swap1\n      revert\n    tag_165:\n        /* \"contracts/study-case-contracts/003-web-of-science/WoS_API_Expanded_basicPlan.sol\":6939:6949  msg.sender */\n      caller\n        /* \"contracts/study-case-contracts/003-web-of-science/WoS_API_Expanded_basicPlan.sol\":6910:6949  application.walletAddress == msg.sender */\n      0xffffffffffffffffffffffffffffffffffffffff\n      and\n        /* \"contracts/study-case-contracts/003-web-of-science/WoS_API_Expanded_basicPlan.sol\":6910:6921  application */\n      0x01\n        /* \"contracts/study-case-contracts/003-web-of-science/WoS_API_Expanded_basicPlan.sol\":6910:6935  application.walletAddress */\n      dup1\n      add\n      0x00\n      swap1\n      sload\n      swap1\n      0x0100\n      exp\n      swap1\n      div\n      0xffffffffffffffffffffffffffffffffffffffff\n      and\n        /* \"contracts/study-case-contracts/003-web-of-science/WoS_API_Expanded_basicPlan.sol\":6910:6949  application.walletAddress == msg.sender */\n      0xffffffffffffffffffffffffffffffffffffffff\n      and\n      eq\n        /* \"contracts/study-case-contracts/003-web-of-science/WoS_API_Expanded_basicPlan.sol\":6910:6988  application.walletAddress == msg.sender || process.walletAddress == msg.sender */\n      dup1\n      tag_167\n      jumpi\n      pop\n        /* \"contracts/study-case-contracts/003-web-of-science/WoS_API_Expanded_basicPlan.sol\":6978:6988  msg.sender */\n      caller\n        /* \"contracts/study-case-contracts/003-web-of-science/WoS_API_Expanded_basicPlan.sol\":6953:6988  process.walletAddress == msg.sender */\n      0xffffffffffffffffffffffffffffffffffffffff\n      and\n        /* \"contracts/study-case-contracts/003-web-of-science/WoS_API_Expanded_basicPlan.sol\":6953:6960  process */\n      0x03\n        /* \"contracts/study-case-contracts/003-web-of-science/WoS_API_Expanded_basicPlan.sol\":6953:6974  process.walletAddress */\n      0x01\n      add\n      0x00\n      swap1\n      sload\n      swap1\n      0x0100\n      exp\n      swap1\n      div\n      0xffffffffffffffffffffffffffffffffffffffff\n      and\n        /* \"contracts/study-case-contracts/003-web-of-science/WoS_API_Expanded_basicPlan.sol\":6953:6988  process.walletAddress == msg.sender */\n      0xffffffffffffffffffffffffffffffffffffffff\n      and\n      eq\n        /* \"contracts/study-case-contracts/003-web-of-science/WoS_API_Expanded_basicPlan.sol\":6910:6988  application.walletAddress == msg.sender || process.walletAddress == msg.sender */\n    tag_167:\n        /* \"contracts/study-case-contracts/003-web-of-science/WoS_API_Expanded_basicPlan.sol\":6887:7071  require(... */\n      tag_168\n      jumpi\n      mload(0x40)\n      0x08c379a000000000000000000000000000000000000000000000000000000000\n      dup2\n      mstore\n      0x04\n      add\n      tag_169\n      swap1\n      tag_66\n      jump\t// in\n    tag_169:\n      mload(0x40)\n      dup1\n      swap2\n      sub\n      swap1\n      revert\n    tag_168:\n        /* \"contracts/study-case-contracts/003-web-of-science/WoS_API_Expanded_basicPlan.sol\":6168:6176  mapParty */\n      0x05\n        /* \"contracts/study-case-contracts/003-web-of-science/WoS_API_Expanded_basicPlan.sol\":6168:6192  mapParty[_walletAddress] */\n      0x00\n        /* \"contracts/study-case-contracts/003-web-of-science/WoS_API_Expanded_basicPlan.sol\":6177:6191  _walletAddress */\n      dup4\n        /* \"contracts/study-case-contracts/003-web-of-science/WoS_API_Expanded_basicPlan.sol\":6168:6192  mapParty[_walletAddress] */\n      0xffffffffffffffffffffffffffffffffffffffff\n      and\n      0xffffffffffffffffffffffffffffffffffffffff\n      and\n      dup2\n      mstore\n      0x20\n      add\n      swap1\n      dup2\n      mstore\n      0x20\n      add\n      0x00\n      keccak256\n        /* \"contracts/study-case-contracts/003-web-of-science/WoS_API_Expanded_basicPlan.sol\":6161:6192  return mapParty[_walletAddress] */\n      mload(0x40)\n      dup1\n      0x60\n      add\n      0x40\n      mstore\n      swap1\n      dup2\n      0x00\n      dup3\n      add\n      dup1\n      sload\n      tag_171\n      swap1\n      tag_133\n      jump\t// in\n    tag_171:\n      dup1\n      0x1f\n      add\n      0x20\n      dup1\n      swap2\n      div\n      mul\n      0x20\n      add\n      mload(0x40)\n      swap1\n      dup2\n      add\n      0x40\n      mstore\n      dup1\n      swap3\n      swap2\n      swap1\n      dup2\n      dup2\n      mstore\n      0x20\n      add\n      dup3\n      dup1\n      sload\n      tag_172\n      swap1\n      tag_133\n      jump\t// in\n    tag_172:\n      dup1\n      iszero\n      tag_173\n      jumpi\n      dup1\n      0x1f\n      lt\n      tag_174\n      jumpi\n      0x0100\n      dup1\n      dup4\n      sload\n      div\n      mul\n      dup4\n      mstore\n      swap2\n      0x20\n      add\n      swap2\n      jump(tag_173)\n    tag_174:\n      dup3\n      add\n      swap2\n      swap1\n      0x00\n      mstore\n      keccak256(0x00, 0x20)\n      swap1\n    tag_175:\n      dup2\n      sload\n      dup2\n      mstore\n      swap1\n      0x01\n      add\n      swap1\n      0x20\n      add\n      dup1\n      dup4\n      gt\n      tag_175\n      jumpi\n      dup3\n      swap1\n      sub\n      0x1f\n      and\n      dup3\n      add\n      swap2\n    tag_173:\n      pop\n      pop\n      pop\n      pop\n      pop\n      dup2\n      mstore\n      0x20\n      add\n      0x01\n      dup3\n      add\n      0x00\n      swap1\n      sload\n      swap1\n      0x0100\n      exp\n      swap1\n      div\n      0xffffffffffffffffffffffffffffffffffffffff\n      and\n      0xffffffffffffffffffffffffffffffffffffffff\n      and\n      0xffffffffffffffffffffffffffffffffffffffff\n      and\n      dup2\n      mstore\n      0x20\n      add\n      0x01\n      dup3\n      add\n      0x14\n      swap1\n      sload\n      swap1\n      0x0100\n      exp\n      swap1\n      div\n      0xff\n      and\n      iszero\n      iszero\n      iszero\n      iszero\n      dup2\n      mstore\n      pop\n      pop\n      swap1\n      pop\n        /* \"contracts/study-case-contracts/003-web-of-science/WoS_API_Expanded_basicPlan.sol\":6051:6200  function getParty(address _walletAddress) public view onlyInvolvedParties returns(EAI.Party memory){... */\n      swap2\n      swap1\n      pop\n      jump\t// out\n        /* \"contracts/lib/eai/EAI.sol\":1676:1852  function createParty(string memory _name, address _walletAddress, bool _aware) internal pure returns(Party memory){... */\n    tag_43:\n        /* \"contracts/lib/eai/EAI.sol\":1777:1789  Party memory */\n      tag_176\n      tag_163\n      jump\t// in\n    tag_176:\n        /* \"contracts/lib/eai/EAI.sol\":1808:1844  Party(_name, _walletAddress, _aware) */\n      mload(0x40)\n      dup1\n      0x60\n      add\n      0x40\n      mstore\n      dup1\n        /* \"contracts/lib/eai/EAI.sol\":1814:1819  _name */\n      dup6\n        /* \"contracts/lib/eai/EAI.sol\":1808:1844  Party(_name, _walletAddress, _aware) */\n      dup2\n      mstore\n      0x20\n      add\n        /* \"contracts/lib/eai/EAI.sol\":1821:1835  _walletAddress */\n      dup5\n        /* \"contracts/lib/eai/EAI.sol\":1808:1844  Party(_name, _walletAddress, _aware) */\n      0xffffffffffffffffffffffffffffffffffffffff\n      and\n      dup2\n      mstore\n      0x20\n      add\n        /* \"contracts/lib/eai/EAI.sol\":1837:1843  _aware */\n      dup4\n        /* \"contracts/lib/eai/EAI.sol\":1808:1844  Party(_name, _walletAddress, _aware) */\n      iszero\n      iszero\n      dup2\n      mstore\n      pop\n        /* \"contracts/lib/eai/EAI.sol\":1801:1844  return Party(_name, _walletAddress, _aware) */\n      swap1\n      pop\n        /* \"contracts/lib/eai/EAI.sol\":1676:1852  function createParty(string memory _name, address _walletAddress, bool _aware) internal pure returns(Party memory){... */\n      swap4\n      swap3\n      pop\n      pop\n      pop\n      jump\t// out\n        /* \"contracts/lib/eai/EAI.sol\":11004:11635  function createMaxNumberOfOperationByTime(... */\n    tag_44:\n        /* \"contracts/lib/eai/EAI.sol\":11129:11162  MaxNumberOfOperationByTime memory */\n      tag_178\n      tag_179\n      jump\t// in\n    tag_178:\n        /* \"contracts/lib/eai/EAI.sol\":11176:11192  uint32 auxByTime */\n      0x00\n        /* \"contracts/lib/eai/EAI.sol\":872:873  4 */\n      0x04\n        /* \"contracts/lib/eai/EAI.sol\":11208:11225  _timeUnit <= WEEK */\n      0xff\n      and\n        /* \"contracts/lib/eai/EAI.sol\":11208:11217  _timeUnit */\n      dup4\n        /* \"contracts/lib/eai/EAI.sol\":11208:11225  _timeUnit <= WEEK */\n      0xff\n      and\n      gt\n        /* \"contracts/lib/eai/EAI.sol\":11205:11541  if(_timeUnit <= WEEK){... */\n      tag_181\n      jumpi\n        /* \"contracts/lib/eai/EAI.sol\":11358:11385  getTimeInSeconds(_timeUnit) */\n      tag_182\n        /* \"contracts/lib/eai/EAI.sol\":11375:11384  _timeUnit */\n      dup4\n        /* \"contracts/lib/eai/EAI.sol\":11358:11374  getTimeInSeconds */\n      tag_183\n        /* \"contracts/lib/eai/EAI.sol\":11358:11385  getTimeInSeconds(_timeUnit) */\n      jump\t// in\n    tag_182:\n        /* \"contracts/lib/eai/EAI.sol\":11347:11385  auxByTime= getTimeInSeconds(_timeUnit) */\n      swap1\n      pop\n        /* \"contracts/lib/eai/EAI.sol\":11205:11541  if(_timeUnit <= WEEK){... */\n      jump(tag_184)\n    tag_181:\n        /* \"contracts/lib/eai/EAI.sol\":11527:11528  1 */\n      0x01\n        /* \"contracts/lib/eai/EAI.sol\":11515:11528  auxByTime = 1 */\n      swap1\n      pop\n        /* \"contracts/lib/eai/EAI.sol\":11205:11541  if(_timeUnit <= WEEK){... */\n    tag_184:\n        /* \"contracts/lib/eai/EAI.sol\":11558:11627  MaxNumberOfOperationByTime(_amount, _timeUnit, auxByTime, _amount, 0) */\n      mload(0x40)\n      dup1\n      0xa0\n      add\n      0x40\n      mstore\n      dup1\n        /* \"contracts/lib/eai/EAI.sol\":11585:11592  _amount */\n      dup6\n        /* \"contracts/lib/eai/EAI.sol\":11558:11627  MaxNumberOfOperationByTime(_amount, _timeUnit, auxByTime, _amount, 0) */\n      0xffffffff\n      and\n      dup2\n      mstore\n      0x20\n      add\n        /* \"contracts/lib/eai/EAI.sol\":11594:11603  _timeUnit */\n      dup5\n        /* \"contracts/lib/eai/EAI.sol\":11558:11627  MaxNumberOfOperationByTime(_amount, _timeUnit, auxByTime, _amount, 0) */\n      0xff\n      and\n      dup2\n      mstore\n      0x20\n      add\n        /* \"contracts/lib/eai/EAI.sol\":11605:11614  auxByTime */\n      dup3\n        /* \"contracts/lib/eai/EAI.sol\":11558:11627  MaxNumberOfOperationByTime(_amount, _timeUnit, auxByTime, _amount, 0) */\n      0xffffffff\n      and\n      dup2\n      mstore\n      0x20\n      add\n        /* \"contracts/lib/eai/EAI.sol\":11616:11623  _amount */\n      dup6\n        /* \"contracts/lib/eai/EAI.sol\":11558:11627  MaxNumberOfOperationByTime(_amount, _timeUnit, auxByTime, _amount, 0) */\n      0xffffffff\n      and\n      dup2\n      mstore\n      0x20\n      add\n        /* \"contracts/lib/eai/EAI.sol\":11625:11626  0 */\n      0x00\n        /* \"contracts/lib/eai/EAI.sol\":11558:11627  MaxNumberOfOperationByTime(_amount, _timeUnit, auxByTime, _amount, 0) */\n      0xffffffff\n      and\n      dup2\n      mstore\n      pop\n        /* \"contracts/lib/eai/EAI.sol\":11551:11627  return MaxNumberOfOperationByTime(_amount, _timeUnit, auxByTime, _amount, 0) */\n      swap2\n      pop\n      pop\n        /* \"contracts/lib/eai/EAI.sol\":11004:11635  function createMaxNumberOfOperationByTime(... */\n      swap3\n      swap2\n      pop\n      pop\n      jump\t// out\n        /* \"contracts/lib/eai/EAI.sol\":16621:16840  function createMessageContent(string memory _xpath, string memory _op, int256 _content ) internal pure returns(MessageContent_Number memory){        ... */\n    tag_45:\n        /* \"contracts/lib/eai/EAI.sol\":16732:16760  MessageContent_Number memory */\n      tag_185\n      tag_186\n      jump\t// in\n    tag_185:\n        /* \"contracts/lib/eai/EAI.sol\":16787:16831  MessageContent_Number(_xpath, _op, _content) */\n      mload(0x40)\n      dup1\n      0x60\n      add\n      0x40\n      mstore\n      dup1\n        /* \"contracts/lib/eai/EAI.sol\":16809:16815  _xpath */\n      dup6\n        /* \"contracts/lib/eai/EAI.sol\":16787:16831  MessageContent_Number(_xpath, _op, _content) */\n      dup2\n      mstore\n      0x20\n      add\n        /* \"contracts/lib/eai/EAI.sol\":16817:16820  _op */\n      dup5\n        /* \"contracts/lib/eai/EAI.sol\":16787:16831  MessageContent_Number(_xpath, _op, _content) */\n      dup2\n      mstore\n      0x20\n      add\n        /* \"contracts/lib/eai/EAI.sol\":16822:16830  _content */\n      dup4\n        /* \"contracts/lib/eai/EAI.sol\":16787:16831  MessageContent_Number(_xpath, _op, _content) */\n      dup2\n      mstore\n      pop\n        /* \"contracts/lib/eai/EAI.sol\":16780:16831  return MessageContent_Number(_xpath, _op, _content) */\n      swap1\n      pop\n        /* \"contracts/lib/eai/EAI.sol\":16621:16840  function createMessageContent(string memory _xpath, string memory _op, int256 _content ) internal pure returns(MessageContent_Number memory){        ... */\n      swap4\n      swap3\n      pop\n      pop\n      pop\n      jump\t// out\n        /* \"contracts/lib/eai/EAI.sol\":18749:19560  function createMessageContent(... */\n    tag_46:\n        /* \"contracts/lib/eai/EAI.sol\":18923:18958  MessageContent_NumberPerTime memory */\n      tag_188\n      tag_189\n      jump\t// in\n    tag_188:\n        /* \"contracts/lib/eai/EAI.sol\":18972:18988  uint32 auxByTime */\n      0x00\n        /* \"contracts/lib/eai/EAI.sol\":872:873  4 */\n      0x04\n        /* \"contracts/lib/eai/EAI.sol\":19004:19021  _timeUnit <= WEEK */\n      0xff\n      and\n        /* \"contracts/lib/eai/EAI.sol\":19004:19013  _timeUnit */\n      dup4\n        /* \"contracts/lib/eai/EAI.sol\":19004:19021  _timeUnit <= WEEK */\n      0xff\n      and\n      gt\n        /* \"contracts/lib/eai/EAI.sol\":19001:19337  if(_timeUnit <= WEEK){... */\n      tag_191\n      jumpi\n        /* \"contracts/lib/eai/EAI.sol\":19154:19181  getTimeInSeconds(_timeUnit) */\n      tag_192\n        /* \"contracts/lib/eai/EAI.sol\":19171:19180  _timeUnit */\n      dup4\n        /* \"contracts/lib/eai/EAI.sol\":19154:19170  getTimeInSeconds */\n      tag_183\n        /* \"contracts/lib/eai/EAI.sol\":19154:19181  getTimeInSeconds(_timeUnit) */\n      jump\t// in\n    tag_192:\n        /* \"contracts/lib/eai/EAI.sol\":19143:19181  auxByTime= getTimeInSeconds(_timeUnit) */\n      swap1\n      pop\n        /* \"contracts/lib/eai/EAI.sol\":19001:19337  if(_timeUnit <= WEEK){... */\n      jump(tag_193)\n    tag_191:\n        /* \"contracts/lib/eai/EAI.sol\":19323:19324  1 */\n      0x01\n        /* \"contracts/lib/eai/EAI.sol\":19311:19324  auxByTime = 1 */\n      swap1\n      pop\n        /* \"contracts/lib/eai/EAI.sol\":19001:19337  if(_timeUnit <= WEEK){... */\n    tag_193:\n        /* \"contracts/lib/eai/EAI.sol\":19371:19372  1 */\n      0x01\n        /* \"contracts/lib/eai/EAI.sol\":19358:19361  _op */\n      dup6\n        /* \"contracts/lib/eai/EAI.sol\":19352:19369  bytes(_op).length */\n      mload\n        /* \"contracts/lib/eai/EAI.sol\":19352:19372  bytes(_op).length==1 */\n      sub\n        /* \"contracts/lib/eai/EAI.sol\":19349:19446  if(bytes(_op).length==1){... */\n      tag_194\n      jumpi\n        /* \"contracts/lib/eai/EAI.sol\":19388:19398  _op = \"<=\" */\n      mload(0x40)\n      dup1\n      0x40\n      add\n      0x40\n      mstore\n      dup1\n      0x02\n      dup2\n      mstore\n      0x20\n      add\n      0x3c3d000000000000000000000000000000000000000000000000000000000000\n      dup2\n      mstore\n      pop\n      swap5\n      pop\n        /* \"contracts/lib/eai/EAI.sol\":19432:19433  1 */\n      0x01\n        /* \"contracts/lib/eai/EAI.sol\":19424:19431  _amount */\n      dup5\n        /* \"contracts/lib/eai/EAI.sol\":19424:19433  _amount-1 */\n      tag_195\n      swap2\n      swap1\n      tag_196\n      jump\t// in\n    tag_195:\n        /* \"contracts/lib/eai/EAI.sol\":19413:19434  _amount = (_amount-1) */\n      swap4\n      pop\n        /* \"contracts/lib/eai/EAI.sol\":19349:19446  if(bytes(_op).length==1){... */\n    tag_194:\n        /* \"contracts/lib/eai/EAI.sol\":19465:19552  MessageContent_NumberPerTime(_xpath, _op, _amount, _timeUnit, auxByTime, _amount, 0, 0) */\n      mload(0x40)\n      dup1\n      0x0100\n      add\n      0x40\n      mstore\n      dup1\n        /* \"contracts/lib/eai/EAI.sol\":19494:19500  _xpath */\n      dup8\n        /* \"contracts/lib/eai/EAI.sol\":19465:19552  MessageContent_NumberPerTime(_xpath, _op, _amount, _timeUnit, auxByTime, _amount, 0, 0) */\n      dup2\n      mstore\n      0x20\n      add\n        /* \"contracts/lib/eai/EAI.sol\":19502:19505  _op */\n      dup7\n        /* \"contracts/lib/eai/EAI.sol\":19465:19552  MessageContent_NumberPerTime(_xpath, _op, _amount, _timeUnit, auxByTime, _amount, 0, 0) */\n      dup2\n      mstore\n      0x20\n      add\n        /* \"contracts/lib/eai/EAI.sol\":19507:19514  _amount */\n      dup6\n        /* \"contracts/lib/eai/EAI.sol\":19465:19552  MessageContent_NumberPerTime(_xpath, _op, _amount, _timeUnit, auxByTime, _amount, 0, 0) */\n      dup2\n      mstore\n      0x20\n      add\n        /* \"contracts/lib/eai/EAI.sol\":19516:19525  _timeUnit */\n      dup5\n        /* \"contracts/lib/eai/EAI.sol\":19465:19552  MessageContent_NumberPerTime(_xpath, _op, _amount, _timeUnit, auxByTime, _amount, 0, 0) */\n      0xff\n      and\n      dup2\n      mstore\n      0x20\n      add\n        /* \"contracts/lib/eai/EAI.sol\":19527:19536  auxByTime */\n      dup3\n        /* \"contracts/lib/eai/EAI.sol\":19465:19552  MessageContent_NumberPerTime(_xpath, _op, _amount, _timeUnit, auxByTime, _amount, 0, 0) */\n      0xffffffff\n      and\n      dup2\n      mstore\n      0x20\n      add\n        /* \"contracts/lib/eai/EAI.sol\":19538:19545  _amount */\n      dup6\n        /* \"contracts/lib/eai/EAI.sol\":19465:19552  MessageContent_NumberPerTime(_xpath, _op, _amount, _timeUnit, auxByTime, _amount, 0, 0) */\n      dup2\n      mstore\n      0x20\n      add\n        /* \"contracts/lib/eai/EAI.sol\":19547:19548  0 */\n      0x00\n        /* \"contracts/lib/eai/EAI.sol\":19465:19552  MessageContent_NumberPerTime(_xpath, _op, _amount, _timeUnit, auxByTime, _amount, 0, 0) */\n      0xffffffff\n      and\n      dup2\n      mstore\n      0x20\n      add\n        /* \"contracts/lib/eai/EAI.sol\":19550:19551  0 */\n      0x00\n        /* \"contracts/lib/eai/EAI.sol\":19465:19552  MessageContent_NumberPerTime(_xpath, _op, _amount, _timeUnit, auxByTime, _amount, 0, 0) */\n      dup2\n      mstore\n      pop\n        /* \"contracts/lib/eai/EAI.sol\":19458:19552  return MessageContent_NumberPerTime(_xpath, _op, _amount, _timeUnit, auxByTime, _amount, 0, 0) */\n      swap2\n      pop\n      pop\n        /* \"contracts/lib/eai/EAI.sol\":18749:19560  function createMessageContent(... */\n      swap5\n      swap4\n      pop\n      pop\n      pop\n      pop\n      jump\t// out\n        /* \"contracts/lib/eai/EAI.sol\":8420:8557  function createTimeout(uint32 _timeIncrement) internal pure returns (Timeout memory ){... */\n    tag_47:\n        /* \"contracts/lib/eai/EAI.sol\":8489:8503  Timeout memory */\n      tag_197\n      tag_198\n      jump\t// in\n    tag_197:\n        /* \"contracts/lib/eai/EAI.sol\":8523:8549  Timeout(0, _timeIncrement) */\n      mload(0x40)\n      dup1\n      0x40\n      add\n      0x40\n      mstore\n      dup1\n        /* \"contracts/lib/eai/EAI.sol\":8531:8532  0 */\n      0x00\n        /* \"contracts/lib/eai/EAI.sol\":8523:8549  Timeout(0, _timeIncrement) */\n      0xffffffff\n      and\n      dup2\n      mstore\n      0x20\n      add\n        /* \"contracts/lib/eai/EAI.sol\":8534:8548  _timeIncrement */\n      dup4\n        /* \"contracts/lib/eai/EAI.sol\":8523:8549  Timeout(0, _timeIncrement) */\n      0xffffffff\n      and\n      dup2\n      mstore\n      pop\n        /* \"contracts/lib/eai/EAI.sol\":8516:8549  return Timeout(0, _timeIncrement) */\n      swap1\n      pop\n        /* \"contracts/lib/eai/EAI.sol\":8420:8557  function createTimeout(uint32 _timeIncrement) internal pure returns (Timeout memory ){... */\n      swap2\n      swap1\n      pop\n      jump\t// out\n        /* \"contracts/study-case-contracts/003-web-of-science/WoS_API_Expanded_basicPlan.sol\":5002:5172  function updateMapParty(address _walletAddress, EAI.Party storage _party)internal returns(bool){       ... */\n    tag_58:\n        /* \"contracts/study-case-contracts/003-web-of-science/WoS_API_Expanded_basicPlan.sol\":5092:5096  bool */\n      0x00\n        /* \"contracts/study-case-contracts/003-web-of-science/WoS_API_Expanded_basicPlan.sol\":5142:5148  _party */\n      dup2\n        /* \"contracts/study-case-contracts/003-web-of-science/WoS_API_Expanded_basicPlan.sol\":5115:5123  mapParty */\n      0x05\n        /* \"contracts/study-case-contracts/003-web-of-science/WoS_API_Expanded_basicPlan.sol\":5115:5139  mapParty[_walletAddress] */\n      0x00\n        /* \"contracts/study-case-contracts/003-web-of-science/WoS_API_Expanded_basicPlan.sol\":5124:5138  _walletAddress */\n      dup6\n        /* \"contracts/study-case-contracts/003-web-of-science/WoS_API_Expanded_basicPlan.sol\":5115:5139  mapParty[_walletAddress] */\n      0xffffffffffffffffffffffffffffffffffffffff\n      and\n      0xffffffffffffffffffffffffffffffffffffffff\n      and\n      dup2\n      mstore\n      0x20\n      add\n      swap1\n      dup2\n      mstore\n      0x20\n      add\n      0x00\n      keccak256\n        /* \"contracts/study-case-contracts/003-web-of-science/WoS_API_Expanded_basicPlan.sol\":5115:5148  mapParty[_walletAddress] = _party */\n      0x00\n      dup3\n      add\n      dup2\n      0x00\n      add\n      swap1\n      dup1\n      sload\n      tag_201\n      swap1\n      tag_133\n      jump\t// in\n    tag_201:\n      tag_202\n      swap3\n      swap2\n      swap1\n      tag_203\n      jump\t// in\n    tag_202:\n      pop\n      0x01\n      dup3\n      add\n      0x00\n      swap1\n      sload\n      swap1\n      0x0100\n      exp\n      swap1\n      div\n      0xffffffffffffffffffffffffffffffffffffffff\n      and\n      dup2\n      0x01\n      add\n      exp(0x0100, 0x00)\n      dup2\n      sload\n      dup2\n      0xffffffffffffffffffffffffffffffffffffffff\n      mul\n      not\n      and\n      swap1\n      dup4\n      0xffffffffffffffffffffffffffffffffffffffff\n      and\n      mul\n      or\n      swap1\n      sstore\n      pop\n      0x01\n      dup3\n      add\n      0x14\n      swap1\n      sload\n      swap1\n      0x0100\n      exp\n      swap1\n      div\n      0xff\n      and\n      dup2\n      0x01\n      add\n      exp(0x0100, 0x14)\n      dup2\n      sload\n      dup2\n      0xff\n      mul\n      not\n      and\n      swap1\n      dup4\n      iszero\n      iszero\n      mul\n      or\n      swap1\n      sstore\n      pop\n      swap1\n      pop\n      pop\n        /* \"contracts/study-case-contracts/003-web-of-science/WoS_API_Expanded_basicPlan.sol\":5160:5164  true */\n      0x01\n        /* \"contracts/study-case-contracts/003-web-of-science/WoS_API_Expanded_basicPlan.sol\":5153:5164  return true */\n      swap1\n      pop\n        /* \"contracts/study-case-contracts/003-web-of-science/WoS_API_Expanded_basicPlan.sol\":5002:5172  function updateMapParty(address _walletAddress, EAI.Party storage _party)internal returns(bool){       ... */\n      swap3\n      swap2\n      pop\n      pop\n      jump\t// out\n        /* \"contracts/lib/eai/EAI.sol\":8569:8840  function isTimeoutEnded(Timeout memory _timeout, uint32 _accessTime) internal pure onlyValidAccessTime(_accessTime) returns(bool){        ... */\n    tag_97:\n        /* \"contracts/lib/eai/EAI.sol\":8693:8697  bool */\n      0x00\n        /* \"contracts/lib/eai/EAI.sol\":8672:8683  _accessTime */\n      dup2\n        /* \"contracts/lib/eai/EAI.sol\":9311:9332  string memory strTime */\n      0x00\n        /* \"contracts/lib/eai/EAI.sol\":9336:9354  uint2String(_time) */\n      tag_205\n        /* \"contracts/lib/eai/EAI.sol\":9348:9353  _time */\n      dup3\n        /* \"contracts/lib/eai/EAI.sol\":9336:9354  uint2String(_time) */\n      0xffffffff\n      and\n        /* \"contracts/lib/eai/EAI.sol\":9336:9347  uint2String */\n      tag_206\n        /* \"contracts/lib/eai/EAI.sol\":9336:9354  uint2String(_time) */\n      jump\t// in\n    tag_205:\n        /* \"contracts/lib/eai/EAI.sol\":9311:9354  string memory strTime  = uint2String(_time) */\n      swap1\n      pop\n        /* \"contracts/lib/eai/EAI.sol\":9398:9400  10 */\n      0x0a\n        /* \"contracts/lib/eai/EAI.sol\":9379:9386  strTime */\n      dup2\n        /* \"contracts/lib/eai/EAI.sol\":9373:9394  bytes(strTime).length */\n      mload\n        /* \"contracts/lib/eai/EAI.sol\":9373:9400  bytes(strTime).length <= 10 */\n      gt\n      iszero\n        /* \"contracts/lib/eai/EAI.sol\":9365:9401  require(bytes(strTime).length <= 10) */\n      tag_207\n      jumpi\n      0x00\n      dup1\n      revert\n    tag_207:\n        /* \"contracts/lib/eai/EAI.sol\":8744:8745  0 */\n      0x00\n        /* \"contracts/lib/eai/EAI.sol\":8725:8733  _timeout */\n      dup6\n        /* \"contracts/lib/eai/EAI.sol\":8725:8741  _timeout.endTime */\n      0x00\n      add\n      mload\n        /* \"contracts/lib/eai/EAI.sol\":8725:8745  _timeout.endTime > 0 */\n      0xffffffff\n      and\n      gt\n        /* \"contracts/lib/eai/EAI.sol\":8717:8784  require(_timeout.endTime > 0, \"There is no endTime set in timeout\") */\n      tag_209\n      jumpi\n      mload(0x40)\n      0x08c379a000000000000000000000000000000000000000000000000000000000\n      dup2\n      mstore\n      0x04\n      add\n      tag_210\n      swap1\n      tag_211\n      jump\t// in\n    tag_210:\n      mload(0x40)\n      dup1\n      swap2\n      sub\n      swap1\n      revert\n    tag_209:\n        /* \"contracts/lib/eai/EAI.sol\":8816:8824  _timeout */\n      dup5\n        /* \"contracts/lib/eai/EAI.sol\":8816:8832  _timeout.endTime */\n      0x00\n      add\n      mload\n        /* \"contracts/lib/eai/EAI.sol\":8802:8832  _accessTime > _timeout.endTime */\n      0xffffffff\n      and\n        /* \"contracts/lib/eai/EAI.sol\":8802:8813  _accessTime */\n      dup5\n        /* \"contracts/lib/eai/EAI.sol\":8802:8832  _accessTime > _timeout.endTime */\n      0xffffffff\n      and\n      gt\n        /* \"contracts/lib/eai/EAI.sol\":8795:8832  return _accessTime > _timeout.endTime */\n      swap3\n      pop\n        /* \"contracts/lib/eai/EAI.sol\":9300:9445  {... */\n      pop\n        /* \"contracts/lib/eai/EAI.sol\":8569:8840  function isTimeoutEnded(Timeout memory _timeout, uint32 _accessTime) internal pure onlyValidAccessTime(_accessTime) returns(bool){        ... */\n      pop\n      swap3\n      swap2\n      pop\n      pop\n      jump\t// out\n        /* \"contracts/lib/eai/EAI.sol\":12410:12576  function decreaseOneOperation_ByTime(MaxNumberOfOperationByTime storage _maxNumberOfOperationByTime) internal  {... */\n    tag_105:\n        /* \"contracts/lib/eai/EAI.sol\":12567:12568  1 */\n      0x01\n        /* \"contracts/lib/eai/EAI.sol\":12532:12559  _maxNumberOfOperationByTime */\n      dup2\n        /* \"contracts/lib/eai/EAI.sol\":12532:12564  _maxNumberOfOperationByTime.rest */\n      0x00\n      add\n      0x09\n        /* \"contracts/lib/eai/EAI.sol\":12532:12568  _maxNumberOfOperationByTime.rest -=1 */\n      dup3\n      dup3\n      dup3\n      swap1\n      sload\n      swap1\n      0x0100\n      exp\n      swap1\n      div\n      0xffffffff\n      and\n      tag_213\n      swap2\n      swap1\n      tag_214\n      jump\t// in\n    tag_213:\n      swap3\n      pop\n      0x0100\n      exp\n      dup2\n      sload\n      dup2\n      0xffffffff\n      mul\n      not\n      and\n      swap1\n      dup4\n      0xffffffff\n      and\n      mul\n      or\n      swap1\n      sstore\n      pop\n        /* \"contracts/lib/eai/EAI.sol\":12410:12576  function decreaseOneOperation_ByTime(MaxNumberOfOperationByTime storage _maxNumberOfOperationByTime) internal  {... */\n      pop\n      jump\t// out\n        /* \"contracts/lib/eai/EAI.sol\":21322:21846  function decreaseTheLastContentOfRestingAmount( MessageContent_NumberPerTime storage msgContent_NumberPerTime ) internal  {        ... */\n    tag_110:\n        /* \"contracts/lib/eai/EAI.sol\":21510:21511  0 */\n      0x00\n        /* \"contracts/lib/eai/EAI.sol\":21471:21495  msgContent_NumberPerTime */\n      dup2\n        /* \"contracts/lib/eai/EAI.sol\":21471:21507  msgContent_NumberPerTime.lastContent */\n      0x06\n      add\n      sload\n        /* \"contracts/lib/eai/EAI.sol\":21471:21511  msgContent_NumberPerTime.lastContent > 0 */\n      gt\n        /* \"contracts/lib/eai/EAI.sol\":21463:21549  require(msgContent_NumberPerTime.lastContent > 0, \"There in no content to decrease.\" ) */\n      tag_216\n      jumpi\n      mload(0x40)\n      0x08c379a000000000000000000000000000000000000000000000000000000000\n      dup2\n      mstore\n      0x04\n      add\n      tag_217\n      swap1\n      tag_218\n      jump\t// in\n    tag_217:\n      mload(0x40)\n      dup1\n      swap2\n      sub\n      swap1\n      revert\n    tag_216:\n        /* \"contracts/lib/eai/EAI.sol\":21608:21632  msgContent_NumberPerTime */\n      dup1\n        /* \"contracts/lib/eai/EAI.sol\":21608:21637  msgContent_NumberPerTime.rest */\n      0x04\n      add\n      sload\n        /* \"contracts/lib/eai/EAI.sol\":21568:21592  msgContent_NumberPerTime */\n      dup2\n        /* \"contracts/lib/eai/EAI.sol\":21568:21604  msgContent_NumberPerTime.lastContent */\n      0x06\n      add\n      sload\n        /* \"contracts/lib/eai/EAI.sol\":21568:21637  msgContent_NumberPerTime.lastContent <= msgContent_NumberPerTime.rest */\n      gt\n      iszero\n        /* \"contracts/lib/eai/EAI.sol\":21560:21705  require(msgContent_NumberPerTime.lastContent <= msgContent_NumberPerTime.rest, \"The message content number is greater than the remaining amount\") */\n      tag_219\n      jumpi\n      mload(0x40)\n      0x08c379a000000000000000000000000000000000000000000000000000000000\n      dup2\n      mstore\n      0x04\n      add\n      tag_220\n      swap1\n      tag_221\n      jump\t// in\n    tag_220:\n      mload(0x40)\n      dup1\n      swap2\n      sub\n      swap1\n      revert\n    tag_219:\n        /* \"contracts/lib/eai/EAI.sol\":21751:21775  msgContent_NumberPerTime */\n      dup1\n        /* \"contracts/lib/eai/EAI.sol\":21751:21787  msgContent_NumberPerTime.lastContent */\n      0x06\n      add\n      sload\n        /* \"contracts/lib/eai/EAI.sol\":21718:21742  msgContent_NumberPerTime */\n      dup2\n        /* \"contracts/lib/eai/EAI.sol\":21718:21747  msgContent_NumberPerTime.rest */\n      0x04\n      add\n      0x00\n        /* \"contracts/lib/eai/EAI.sol\":21718:21787  msgContent_NumberPerTime.rest -= msgContent_NumberPerTime.lastContent */\n      dup3\n      dup3\n      sload\n      tag_222\n      swap2\n      swap1\n      tag_196\n      jump\t// in\n    tag_222:\n      swap3\n      pop\n      pop\n      dup2\n      swap1\n      sstore\n      pop\n        /* \"contracts/lib/eai/EAI.sol\":21837:21838  0 */\n      0x00\n        /* \"contracts/lib/eai/EAI.sol\":21798:21822  msgContent_NumberPerTime */\n      dup2\n        /* \"contracts/lib/eai/EAI.sol\":21798:21834  msgContent_NumberPerTime.lastContent */\n      0x06\n      add\n        /* \"contracts/lib/eai/EAI.sol\":21798:21838  msgContent_NumberPerTime.lastContent = 0 */\n      dup2\n      swap1\n      sstore\n      pop\n        /* \"contracts/lib/eai/EAI.sol\":21322:21846  function decreaseTheLastContentOfRestingAmount( MessageContent_NumberPerTime storage msgContent_NumberPerTime ) internal  {        ... */\n      pop\n      jump\t// out\n        /* \"contracts/lib/eai/EAI.sol\":11654:12228  function hasAvailableOperations_ByTime(... */\n    tag_124:\n        /* \"contracts/lib/eai/EAI.sol\":11827:11831  bool */\n      0x00\n        /* \"contracts/lib/eai/EAI.sol\":11856:11980  isAccessDatetimeOutOfOldInterval(_maxNumberOfOperationByTime.timeUnit, _maxNumberOfOperationByTime.endTime, _accessDateTime) */\n      tag_224\n        /* \"contracts/lib/eai/EAI.sol\":11889:11916  _maxNumberOfOperationByTime */\n      dup4\n        /* \"contracts/lib/eai/EAI.sol\":11889:11925  _maxNumberOfOperationByTime.timeUnit */\n      0x00\n      add\n      0x04\n      swap1\n      sload\n      swap1\n      0x0100\n      exp\n      swap1\n      div\n      0xff\n      and\n        /* \"contracts/lib/eai/EAI.sol\":11927:11954  _maxNumberOfOperationByTime */\n      dup5\n        /* \"contracts/lib/eai/EAI.sol\":11927:11962  _maxNumberOfOperationByTime.endTime */\n      0x00\n      add\n      0x0d\n      swap1\n      sload\n      swap1\n      0x0100\n      exp\n      swap1\n      div\n      0xffffffff\n      and\n        /* \"contracts/lib/eai/EAI.sol\":11964:11979  _accessDateTime */\n      dup5\n        /* \"contracts/lib/eai/EAI.sol\":11856:11888  isAccessDatetimeOutOfOldInterval */\n      tag_225\n        /* \"contracts/lib/eai/EAI.sol\":11856:11980  isAccessDatetimeOutOfOldInterval(_maxNumberOfOperationByTime.timeUnit, _maxNumberOfOperationByTime.endTime, _accessDateTime) */\n      jump\t// in\n    tag_224:\n        /* \"contracts/lib/eai/EAI.sol\":11853:12090  if(isAccessDatetimeOutOfOldInterval(_maxNumberOfOperationByTime.timeUnit, _maxNumberOfOperationByTime.endTime, _accessDateTime)){... */\n      iszero\n      tag_226\n      jumpi\n        /* \"contracts/lib/eai/EAI.sol\":12000:12078  setNewEndTimeAndRestOfOperations(_maxNumberOfOperationByTime, _accessDateTime) */\n      tag_227\n        /* \"contracts/lib/eai/EAI.sol\":12033:12060  _maxNumberOfOperationByTime */\n      dup4\n        /* \"contracts/lib/eai/EAI.sol\":12062:12077  _accessDateTime */\n      dup4\n        /* \"contracts/lib/eai/EAI.sol\":12000:12032  setNewEndTimeAndRestOfOperations */\n      tag_228\n        /* \"contracts/lib/eai/EAI.sol\":12000:12078  setNewEndTimeAndRestOfOperations(_maxNumberOfOperationByTime, _accessDateTime) */\n      jump\t// in\n    tag_227:\n        /* \"contracts/lib/eai/EAI.sol\":11853:12090  if(isAccessDatetimeOutOfOldInterval(_maxNumberOfOperationByTime.timeUnit, _maxNumberOfOperationByTime.endTime, _accessDateTime)){... */\n    tag_226:\n        /* \"contracts/lib/eai/EAI.sol\":12148:12149  0 */\n      0x00\n        /* \"contracts/lib/eai/EAI.sol\":12113:12140  _maxNumberOfOperationByTime */\n      dup4\n        /* \"contracts/lib/eai/EAI.sol\":12113:12145  _maxNumberOfOperationByTime.rest */\n      0x00\n      add\n      0x09\n      swap1\n      sload\n      swap1\n      0x0100\n      exp\n      swap1\n      div\n      0xffffffff\n      and\n        /* \"contracts/lib/eai/EAI.sol\":12113:12149  _maxNumberOfOperationByTime.rest > 0 */\n      0xffffffff\n      and\n      gt\n        /* \"contracts/lib/eai/EAI.sol\":12110:12198  if(_maxNumberOfOperationByTime.rest > 0){          ... */\n      iszero\n      tag_229\n      jumpi\n        /* \"contracts/lib/eai/EAI.sol\":12182:12186  true */\n      0x01\n        /* \"contracts/lib/eai/EAI.sol\":12175:12186  return true */\n      swap1\n      pop\n      jump(tag_223)\n        /* \"contracts/lib/eai/EAI.sol\":12110:12198  if(_maxNumberOfOperationByTime.rest > 0){          ... */\n    tag_229:\n        /* \"contracts/lib/eai/EAI.sol\":12215:12220  false */\n      0x00\n        /* \"contracts/lib/eai/EAI.sol\":12208:12220  return false */\n      swap1\n      pop\n        /* \"contracts/lib/eai/EAI.sol\":11654:12228  function hasAvailableOperations_ByTime(... */\n    tag_223:\n      swap3\n      swap2\n      pop\n      pop\n      jump\t// out\n        /* \"contracts/lib/eai/EAI.sol\":16848:18119  function evaluateNumberContent(MessageContent_Number memory msgContent, int256 _content) internal pure returns(bool){... */\n    tag_143:\n        /* \"contracts/lib/eai/EAI.sol\":16959:16963  bool */\n      0x00\n        /* \"contracts/lib/eai/EAI.sol\":16975:16993  bytes memory chars */\n      dup1\n        /* \"contracts/lib/eai/EAI.sol\":17002:17012  msgContent */\n      dup4\n        /* \"contracts/lib/eai/EAI.sol\":17002:17015  msgContent.op */\n      0x20\n      add\n      mload\n        /* \"contracts/lib/eai/EAI.sol\":16975:17016  bytes memory chars = bytes(msgContent.op) */\n      swap1\n      pop\n        /* \"contracts/lib/eai/EAI.sol\":17046:17050  0x21 */\n      0x21\n        /* \"contracts/lib/eai/EAI.sol\":17033:17050  chars[0] ==  0x21 */\n      0xf8\n      shl\n        /* \"contracts/lib/eai/EAI.sol\":17033:17038  chars */\n      dup2\n        /* \"contracts/lib/eai/EAI.sol\":17039:17040  0 */\n      0x00\n        /* \"contracts/lib/eai/EAI.sol\":17033:17041  chars[0] */\n      dup2\n      mload\n      dup2\n      lt\n      tag_231\n      jumpi\n      tag_232\n      tag_95\n      jump\t// in\n    tag_232:\n    tag_231:\n      0x20\n      add\n      add\n      mload\n      0xf8\n      shr\n      0xf8\n      shl\n        /* \"contracts/lib/eai/EAI.sol\":17033:17050  chars[0] ==  0x21 */\n      not(0xffffffffffffffffffffffffffffffffffffffffffffffffffffffffffffff)\n      and\n      sub\n        /* \"contracts/lib/eai/EAI.sol\":17029:17915  if( chars[0] ==  0x21 ){// if chars[0] is '!'... */\n      tag_233\n      jumpi\n        /* \"contracts/lib/eai/EAI.sol\":17107:17117  msgContent */\n      dup4\n        /* \"contracts/lib/eai/EAI.sol\":17107:17125  msgContent.content */\n      0x40\n      add\n      mload\n        /* \"contracts/lib/eai/EAI.sol\":17095:17103  _content */\n      dup4\n        /* \"contracts/lib/eai/EAI.sol\":17095:17125  _content != msgContent.content */\n      eq\n      iszero\n        /* \"contracts/lib/eai/EAI.sol\":17088:17125  return _content != msgContent.content */\n      swap2\n      pop\n      pop\n      jump(tag_230)\n        /* \"contracts/lib/eai/EAI.sol\":17029:17915  if( chars[0] ==  0x21 ){// if chars[0] is '!'... */\n    tag_233:\n        /* \"contracts/lib/eai/EAI.sol\":17167:17171  0x3D */\n      0x3d\n        /* \"contracts/lib/eai/EAI.sol\":17155:17171  chars[0] == 0x3D */\n      0xf8\n      shl\n        /* \"contracts/lib/eai/EAI.sol\":17155:17160  chars */\n      dup2\n        /* \"contracts/lib/eai/EAI.sol\":17161:17162  0 */\n      0x00\n        /* \"contracts/lib/eai/EAI.sol\":17155:17163  chars[0] */\n      dup2\n      mload\n      dup2\n      lt\n      tag_235\n      jumpi\n      tag_236\n      tag_95\n      jump\t// in\n    tag_236:\n    tag_235:\n      0x20\n      add\n      add\n      mload\n      0xf8\n      shr\n      0xf8\n      shl\n        /* \"contracts/lib/eai/EAI.sol\":17155:17171  chars[0] == 0x3D */\n      not(0xffffffffffffffffffffffffffffffffffffffffffffffffffffffffffffff)\n      and\n      sub\n        /* \"contracts/lib/eai/EAI.sol\":17151:17915  if( chars[0] == 0x3D ){ // if chars[0] is '='... */\n      tag_237\n      jumpi\n        /* \"contracts/lib/eai/EAI.sol\":17229:17239  msgContent */\n      dup4\n        /* \"contracts/lib/eai/EAI.sol\":17229:17247  msgContent.content */\n      0x40\n      add\n      mload\n        /* \"contracts/lib/eai/EAI.sol\":17217:17225  _content */\n      dup4\n        /* \"contracts/lib/eai/EAI.sol\":17217:17247  _content == msgContent.content */\n      eq\n        /* \"contracts/lib/eai/EAI.sol\":17210:17247  return _content == msgContent.content */\n      swap2\n      pop\n      pop\n      jump(tag_230)\n        /* \"contracts/lib/eai/EAI.sol\":17151:17915  if( chars[0] == 0x3D ){ // if chars[0] is '='... */\n    tag_237:\n        /* \"contracts/lib/eai/EAI.sol\":17290:17294  0x3C */\n      0x3c\n        /* \"contracts/lib/eai/EAI.sol\":17278:17294  chars[0] == 0x3C */\n      0xf8\n      shl\n        /* \"contracts/lib/eai/EAI.sol\":17278:17283  chars */\n      dup2\n        /* \"contracts/lib/eai/EAI.sol\":17284:17285  0 */\n      0x00\n        /* \"contracts/lib/eai/EAI.sol\":17278:17286  chars[0] */\n      dup2\n      mload\n      dup2\n      lt\n      tag_239\n      jumpi\n      tag_240\n      tag_95\n      jump\t// in\n    tag_240:\n    tag_239:\n      0x20\n      add\n      add\n      mload\n      0xf8\n      shr\n      0xf8\n      shl\n        /* \"contracts/lib/eai/EAI.sol\":17278:17294  chars[0] == 0x3C */\n      not(0xffffffffffffffffffffffffffffffffffffffffffffffffffffffffffffff)\n      and\n      sub\n        /* \"contracts/lib/eai/EAI.sol\":17274:17915  if( chars[0] == 0x3C ){// if chars[0] is '<'... */\n      tag_241\n      jumpi\n        /* \"contracts/lib/eai/EAI.sol\":17351:17352  2 */\n      0x02\n        /* \"contracts/lib/eai/EAI.sol\":17335:17340  chars */\n      dup2\n        /* \"contracts/lib/eai/EAI.sol\":17335:17347  chars.length */\n      mload\n        /* \"contracts/lib/eai/EAI.sol\":17335:17352  chars.length == 2 */\n      sub\n        /* \"contracts/lib/eai/EAI.sol\":17332:17550  if(chars.length == 2){// if chars is '<='                ... */\n      tag_242\n      jumpi\n        /* \"contracts/lib/eai/EAI.sol\":17426:17436  msgContent */\n      dup4\n        /* \"contracts/lib/eai/EAI.sol\":17426:17444  msgContent.content */\n      0x40\n      add\n      mload\n        /* \"contracts/lib/eai/EAI.sol\":17414:17422  _content */\n      dup4\n        /* \"contracts/lib/eai/EAI.sol\":17414:17444  _content <= msgContent.content */\n      sgt\n      iszero\n        /* \"contracts/lib/eai/EAI.sol\":17407:17444  return _content <= msgContent.content */\n      swap2\n      pop\n      pop\n      jump(tag_230)\n        /* \"contracts/lib/eai/EAI.sol\":17332:17550  if(chars.length == 2){// if chars is '<='                ... */\n    tag_242:\n        /* \"contracts/lib/eai/EAI.sol\":17516:17526  msgContent */\n      dup4\n        /* \"contracts/lib/eai/EAI.sol\":17516:17534  msgContent.content */\n      0x40\n      add\n      mload\n        /* \"contracts/lib/eai/EAI.sol\":17505:17513  _content */\n      dup4\n        /* \"contracts/lib/eai/EAI.sol\":17505:17534  _content < msgContent.content */\n      slt\n        /* \"contracts/lib/eai/EAI.sol\":17498:17534  return _content < msgContent.content */\n      swap2\n      pop\n      pop\n      jump(tag_230)\n        /* \"contracts/lib/eai/EAI.sol\":17274:17915  if( chars[0] == 0x3C ){// if chars[0] is '<'... */\n    tag_241:\n        /* \"contracts/lib/eai/EAI.sol\":17586:17590  0x3E */\n      0x3e\n        /* \"contracts/lib/eai/EAI.sol\":17574:17590  chars[0] == 0x3E */\n      0xf8\n      shl\n        /* \"contracts/lib/eai/EAI.sol\":17574:17579  chars */\n      dup2\n        /* \"contracts/lib/eai/EAI.sol\":17580:17581  0 */\n      0x00\n        /* \"contracts/lib/eai/EAI.sol\":17574:17582  chars[0] */\n      dup2\n      mload\n      dup2\n      lt\n      tag_245\n      jumpi\n      tag_246\n      tag_95\n      jump\t// in\n    tag_246:\n    tag_245:\n      0x20\n      add\n      add\n      mload\n      0xf8\n      shr\n      0xf8\n      shl\n        /* \"contracts/lib/eai/EAI.sol\":17574:17590  chars[0] == 0x3E */\n      not(0xffffffffffffffffffffffffffffffffffffffffffffffffffffffffffffff)\n      and\n      sub\n        /* \"contracts/lib/eai/EAI.sol\":17570:17915  if( chars[0] == 0x3E ){ // if( chars[0] == 0x3E ){// if chars[0] is '>'... */\n      tag_247\n      jumpi\n        /* \"contracts/lib/eai/EAI.sol\":17675:17676  2 */\n      0x02\n        /* \"contracts/lib/eai/EAI.sol\":17659:17664  chars */\n      dup2\n        /* \"contracts/lib/eai/EAI.sol\":17659:17671  chars.length */\n      mload\n        /* \"contracts/lib/eai/EAI.sol\":17659:17676  chars.length == 2 */\n      sub\n        /* \"contracts/lib/eai/EAI.sol\":17656:17904  if(chars.length == 2){// if chars is '>='              ... */\n      tag_248\n      jumpi\n        /* \"contracts/lib/eai/EAI.sol\":17748:17758  msgContent */\n      dup4\n        /* \"contracts/lib/eai/EAI.sol\":17748:17766  msgContent.content */\n      0x40\n      add\n      mload\n        /* \"contracts/lib/eai/EAI.sol\":17736:17744  _content */\n      dup4\n        /* \"contracts/lib/eai/EAI.sol\":17736:17766  _content >= msgContent.content */\n      slt\n      iszero\n        /* \"contracts/lib/eai/EAI.sol\":17729:17766  return _content >= msgContent.content */\n      swap2\n      pop\n      pop\n      jump(tag_230)\n        /* \"contracts/lib/eai/EAI.sol\":17656:17904  if(chars.length == 2){// if chars is '>='              ... */\n    tag_248:\n        /* \"contracts/lib/eai/EAI.sol\":17854:17864  msgContent */\n      dup4\n        /* \"contracts/lib/eai/EAI.sol\":17854:17872  msgContent.content */\n      0x40\n      add\n      mload\n        /* \"contracts/lib/eai/EAI.sol\":17843:17851  _content */\n      dup4\n        /* \"contracts/lib/eai/EAI.sol\":17843:17872  _content > msgContent.content */\n      sgt\n        /* \"contracts/lib/eai/EAI.sol\":17836:17872  return _content > msgContent.content */\n      swap2\n      pop\n      pop\n      jump(tag_230)\n        /* \"contracts/lib/eai/EAI.sol\":17570:17915  if( chars[0] == 0x3E ){ // if( chars[0] == 0x3E ){// if chars[0] is '>'... */\n    tag_247:\n        /* \"contracts/lib/eai/EAI.sol\":17962:17967  false */\n      0x00\n        /* \"contracts/lib/eai/EAI.sol\":17954:18002  require(false, \"Comparison symbol is not valid\") */\n      tag_250\n      jumpi\n      mload(0x40)\n      0x08c379a000000000000000000000000000000000000000000000000000000000\n      dup2\n      mstore\n      0x04\n      add\n      tag_251\n      swap1\n      tag_252\n      jump\t// in\n    tag_251:\n      mload(0x40)\n      dup1\n      swap2\n      sub\n      swap1\n      revert\n    tag_250:\n        /* \"contracts/lib/eai/EAI.sol\":18020:18025  false */\n      0x00\n        /* \"contracts/lib/eai/EAI.sol\":18013:18025  return false */\n      swap2\n      pop\n      pop\n        /* \"contracts/lib/eai/EAI.sol\":16848:18119  function evaluateNumberContent(MessageContent_Number memory msgContent, int256 _content) internal pure returns(bool){... */\n    tag_230:\n      swap3\n      swap2\n      pop\n      pop\n      jump\t// out\n        /* \"contracts/lib/eai/EAI.sol\":19642:21314  function evaluateNumberPerTime(... */\n    tag_151:\n        /* \"contracts/lib/eai/EAI.sol\":19832:19836  bool */\n      0x00\n        /* \"contracts/lib/eai/EAI.sol\":19870:19871  0 */\n      dup1\n        /* \"contracts/lib/eai/EAI.sol\":19861:19869  _content */\n      dup3\n        /* \"contracts/lib/eai/EAI.sol\":19861:19871  _content>0 */\n      gt\n        /* \"contracts/lib/eai/EAI.sol\":19853:19921  require(_content>0, \"The result of the xpath should be more than 0\") */\n      tag_254\n      jumpi\n      mload(0x40)\n      0x08c379a000000000000000000000000000000000000000000000000000000000\n      dup2\n      mstore\n      0x04\n      add\n      tag_255\n      swap1\n      tag_256\n      jump\t// in\n    tag_255:\n      mload(0x40)\n      dup1\n      swap2\n      sub\n      swap1\n      revert\n    tag_254:\n        /* \"contracts/lib/eai/EAI.sol\":19939:20057  isAccessDatetimeOutOfOldInterval(msgContent_NumberPerTime.timeUnit, msgContent_NumberPerTime.endTime, _accessDateTime) */\n      tag_257\n        /* \"contracts/lib/eai/EAI.sol\":19972:19996  msgContent_NumberPerTime */\n      dup5\n        /* \"contracts/lib/eai/EAI.sol\":19972:20005  msgContent_NumberPerTime.timeUnit */\n      0x03\n      add\n      0x00\n      swap1\n      sload\n      swap1\n      0x0100\n      exp\n      swap1\n      div\n      0xff\n      and\n        /* \"contracts/lib/eai/EAI.sol\":20007:20031  msgContent_NumberPerTime */\n      dup6\n        /* \"contracts/lib/eai/EAI.sol\":20007:20039  msgContent_NumberPerTime.endTime */\n      0x05\n      add\n      0x00\n      swap1\n      sload\n      swap1\n      0x0100\n      exp\n      swap1\n      div\n      0xffffffff\n      and\n        /* \"contracts/lib/eai/EAI.sol\":20041:20056  _accessDateTime */\n      dup6\n        /* \"contracts/lib/eai/EAI.sol\":19939:19971  isAccessDatetimeOutOfOldInterval */\n      tag_225\n        /* \"contracts/lib/eai/EAI.sol\":19939:20057  isAccessDatetimeOutOfOldInterval(msgContent_NumberPerTime.timeUnit, msgContent_NumberPerTime.endTime, _accessDateTime) */\n      jump\t// in\n    tag_257:\n        /* \"contracts/lib/eai/EAI.sol\":19936:20542  if(isAccessDatetimeOutOfOldInterval(msgContent_NumberPerTime.timeUnit, msgContent_NumberPerTime.endTime, _accessDateTime)){... */\n      iszero\n      tag_258\n      jumpi\n        /* \"contracts/lib/eai/EAI.sol\":20126:20150  msgContent_NumberPerTime */\n      dup4\n        /* \"contracts/lib/eai/EAI.sol\":20126:20157  msgContent_NumberPerTime.amount */\n      0x02\n      add\n      sload\n        /* \"contracts/lib/eai/EAI.sol\":20094:20118  msgContent_NumberPerTime */\n      dup5\n        /* \"contracts/lib/eai/EAI.sol\":20094:20123  msgContent_NumberPerTime.rest */\n      0x04\n      add\n        /* \"contracts/lib/eai/EAI.sol\":20094:20157  msgContent_NumberPerTime.rest = msgContent_NumberPerTime.amount */\n      dup2\n      swap1\n      sstore\n      pop\n        /* \"contracts/lib/eai/EAI.sol\":20228:20526  calcNextEndTime(... */\n      tag_259\n        /* \"contracts/lib/eai/EAI.sol\":20294:20318  msgContent_NumberPerTime */\n      dup5\n        /* \"contracts/lib/eai/EAI.sol\":20294:20325  msgContent_NumberPerTime.byTime */\n      0x03\n      add\n      0x01\n      swap1\n      sload\n      swap1\n      0x0100\n      exp\n      swap1\n      div\n      0xffffffff\n      and\n        /* \"contracts/lib/eai/EAI.sol\":20376:20400  msgContent_NumberPerTime */\n      dup6\n        /* \"contracts/lib/eai/EAI.sol\":20376:20409  msgContent_NumberPerTime.timeUnit */\n      0x03\n      add\n      0x00\n      swap1\n      sload\n      swap1\n      0x0100\n      exp\n      swap1\n      div\n      0xff\n      and\n        /* \"contracts/lib/eai/EAI.sol\":20460:20475  _accessDateTime */\n      dup6\n        /* \"contracts/lib/eai/EAI.sol\":20228:20243  calcNextEndTime */\n      tag_260\n        /* \"contracts/lib/eai/EAI.sol\":20228:20526  calcNextEndTime(... */\n      jump\t// in\n    tag_259:\n        /* \"contracts/lib/eai/EAI.sol\":20193:20217  msgContent_NumberPerTime */\n      dup5\n        /* \"contracts/lib/eai/EAI.sol\":20193:20225  msgContent_NumberPerTime.endTime */\n      0x05\n      add\n      0x00\n        /* \"contracts/lib/eai/EAI.sol\":20193:20526  msgContent_NumberPerTime.endTime = calcNextEndTime(... */\n      0x0100\n      exp\n      dup2\n      sload\n      dup2\n      0xffffffff\n      mul\n      not\n      and\n      swap1\n      dup4\n      0xffffffff\n      and\n      mul\n      or\n      swap1\n      sstore\n      pop\n        /* \"contracts/lib/eai/EAI.sol\":19936:20542  if(isAccessDatetimeOutOfOldInterval(msgContent_NumberPerTime.timeUnit, msgContent_NumberPerTime.endTime, _accessDateTime)){... */\n    tag_258:\n        /* \"contracts/lib/eai/EAI.sol\":21101:21125  msgContent_NumberPerTime */\n      dup4\n        /* \"contracts/lib/eai/EAI.sol\":21101:21130  msgContent_NumberPerTime.rest */\n      0x04\n      add\n      sload\n        /* \"contracts/lib/eai/EAI.sol\":21089:21097  _content */\n      dup3\n        /* \"contracts/lib/eai/EAI.sol\":21089:21130  _content <= msgContent_NumberPerTime.rest */\n      gt\n        /* \"contracts/lib/eai/EAI.sol\":21086:21294  if(_content <= msgContent_NumberPerTime.rest){... */\n      tag_261\n      jumpi\n        /* \"contracts/lib/eai/EAI.sol\":21189:21197  _content */\n      dup2\n        /* \"contracts/lib/eai/EAI.sol\":21150:21174  msgContent_NumberPerTime */\n      dup5\n        /* \"contracts/lib/eai/EAI.sol\":21150:21186  msgContent_NumberPerTime.lastContent */\n      0x06\n      add\n        /* \"contracts/lib/eai/EAI.sol\":21150:21197  msgContent_NumberPerTime.lastContent = _content */\n      dup2\n      swap1\n      sstore\n      pop\n        /* \"contracts/lib/eai/EAI.sol\":21223:21227  true */\n      0x01\n        /* \"contracts/lib/eai/EAI.sol\":21216:21227  return true */\n      swap1\n      pop\n      jump(tag_253)\n        /* \"contracts/lib/eai/EAI.sol\":21086:21294  if(_content <= msgContent_NumberPerTime.rest){... */\n    tag_261:\n        /* \"contracts/lib/eai/EAI.sol\":21273:21278  false */\n      0x00\n        /* \"contracts/lib/eai/EAI.sol\":21266:21278  return false */\n      swap1\n      pop\n        /* \"contracts/lib/eai/EAI.sol\":19642:21314  function evaluateNumberPerTime(... */\n    tag_253:\n      swap4\n      swap3\n      pop\n      pop\n      pop\n      jump\t// out\n        /* \"contracts/lib/eai/EAI.sol\":8982:9175  function setEndTimeInTimeout(Timeout storage _timeout, uint32 _startTime)internal onlyValidAccessTime(_startTime){      ... */\n    tag_157:\n        /* \"contracts/lib/eai/EAI.sol\":9084:9094  _startTime */\n      dup1\n        /* \"contracts/lib/eai/EAI.sol\":9311:9332  string memory strTime */\n      0x00\n        /* \"contracts/lib/eai/EAI.sol\":9336:9354  uint2String(_time) */\n      tag_264\n        /* \"contracts/lib/eai/EAI.sol\":9348:9353  _time */\n      dup3\n        /* \"contracts/lib/eai/EAI.sol\":9336:9354  uint2String(_time) */\n      0xffffffff\n      and\n        /* \"contracts/lib/eai/EAI.sol\":9336:9347  uint2String */\n      tag_206\n        /* \"contracts/lib/eai/EAI.sol\":9336:9354  uint2String(_time) */\n      jump\t// in\n    tag_264:\n        /* \"contracts/lib/eai/EAI.sol\":9311:9354  string memory strTime  = uint2String(_time) */\n      swap1\n      pop\n        /* \"contracts/lib/eai/EAI.sol\":9398:9400  10 */\n      0x0a\n        /* \"contracts/lib/eai/EAI.sol\":9379:9386  strTime */\n      dup2\n        /* \"contracts/lib/eai/EAI.sol\":9373:9394  bytes(strTime).length */\n      mload\n        /* \"contracts/lib/eai/EAI.sol\":9373:9400  bytes(strTime).length <= 10 */\n      gt\n      iszero\n        /* \"contracts/lib/eai/EAI.sol\":9365:9401  require(bytes(strTime).length <= 10) */\n      tag_265\n      jumpi\n      0x00\n      dup1\n      revert\n    tag_265:\n        /* \"contracts/lib/eai/EAI.sol\":9144:9152  _timeout */\n      dup4\n        /* \"contracts/lib/eai/EAI.sol\":9144:9166  _timeout.timeIncrement */\n      0x00\n      add\n      0x04\n      swap1\n      sload\n      swap1\n      0x0100\n      exp\n      swap1\n      div\n      0xffffffff\n      and\n        /* \"contracts/lib/eai/EAI.sol\":9131:9141  _startTime */\n      dup4\n        /* \"contracts/lib/eai/EAI.sol\":9131:9166  _startTime + _timeout.timeIncrement */\n      tag_267\n      swap2\n      swap1\n      tag_268\n      jump\t// in\n    tag_267:\n        /* \"contracts/lib/eai/EAI.sol\":9112:9120  _timeout */\n      dup5\n        /* \"contracts/lib/eai/EAI.sol\":9112:9128  _timeout.endTime */\n      0x00\n      add\n      0x00\n        /* \"contracts/lib/eai/EAI.sol\":9112:9166  _timeout.endTime = _startTime + _timeout.timeIncrement */\n      0x0100\n      exp\n      dup2\n      sload\n      dup2\n      0xffffffff\n      mul\n      not\n      and\n      swap1\n      dup4\n      0xffffffff\n      and\n      mul\n      or\n      swap1\n      sstore\n      pop\n        /* \"contracts/lib/eai/EAI.sol\":9300:9445  {... */\n      pop\n        /* \"contracts/lib/eai/EAI.sol\":8982:9175  function setEndTimeInTimeout(Timeout storage _timeout, uint32 _startTime)internal onlyValidAccessTime(_startTime){      ... */\n      pop\n      pop\n      pop\n      jump\t// out\n        /* \"contracts/lib/eai/EAI.sol\":26898:27447  function getTimeInSeconds(uint8 timeUnit) private pure returns(uint32){... */\n    tag_183:\n        /* \"contracts/lib/eai/EAI.sol\":26961:26967  uint32 */\n      0x00\n        /* \"contracts/lib/eai/EAI.sol\":872:873  4 */\n      0x04\n        /* \"contracts/lib/eai/EAI.sol\":27041:27057  timeUnit <= WEEK */\n      0xff\n      and\n        /* \"contracts/lib/eai/EAI.sol\":27041:27049  timeUnit */\n      dup3\n        /* \"contracts/lib/eai/EAI.sol\":27041:27057  timeUnit <= WEEK */\n      0xff\n      and\n      gt\n      iszero\n        /* \"contracts/lib/eai/EAI.sol\":27033:27121  require(timeUnit <= WEEK, \"The method getTimeInSeconds doesn't work for MONTH and YEAR\") */\n      tag_270\n      jumpi\n      mload(0x40)\n      0x08c379a000000000000000000000000000000000000000000000000000000000\n      dup2\n      mstore\n      0x04\n      add\n      tag_271\n      swap1\n      tag_272\n      jump\t// in\n    tag_271:\n      mload(0x40)\n      dup1\n      swap2\n      sub\n      swap1\n      revert\n    tag_270:\n        /* \"contracts/lib/eai/EAI.sol\":754:755  0 */\n      0x00\n        /* \"contracts/lib/eai/EAI.sol\":27137:27155  timeUnit == SECOND */\n      0xff\n      and\n        /* \"contracts/lib/eai/EAI.sol\":27137:27145  timeUnit */\n      dup3\n        /* \"contracts/lib/eai/EAI.sol\":27137:27155  timeUnit == SECOND */\n      0xff\n      and\n      sub\n        /* \"contracts/lib/eai/EAI.sol\":27134:27440  if(timeUnit == SECOND){... */\n      tag_273\n      jumpi\n        /* \"contracts/lib/eai/EAI.sol\":27178:27179  1 */\n      0x01\n        /* \"contracts/lib/eai/EAI.sol\":27171:27179  return 1 */\n      swap1\n      pop\n      jump(tag_269)\n        /* \"contracts/lib/eai/EAI.sol\":27134:27440  if(timeUnit == SECOND){... */\n    tag_273:\n        /* \"contracts/lib/eai/EAI.sol\":786:787  1 */\n      0x01\n        /* \"contracts/lib/eai/EAI.sol\":27199:27217  timeUnit == MINUTE */\n      0xff\n      and\n        /* \"contracts/lib/eai/EAI.sol\":27199:27207  timeUnit */\n      dup3\n        /* \"contracts/lib/eai/EAI.sol\":27199:27217  timeUnit == MINUTE */\n      0xff\n      and\n      sub\n        /* \"contracts/lib/eai/EAI.sol\":27196:27440  if(timeUnit == MINUTE){... */\n      tag_275\n      jumpi\n        /* \"contracts/lib/eai/EAI.sol\":27240:27242  60 */\n      0x3c\n        /* \"contracts/lib/eai/EAI.sol\":27233:27242  return 60 */\n      swap1\n      pop\n      jump(tag_269)\n        /* \"contracts/lib/eai/EAI.sol\":27196:27440  if(timeUnit == MINUTE){... */\n    tag_275:\n        /* \"contracts/lib/eai/EAI.sol\":815:816  2 */\n      0x02\n        /* \"contracts/lib/eai/EAI.sol\":27262:27278  timeUnit == HOUR */\n      0xff\n      and\n        /* \"contracts/lib/eai/EAI.sol\":27262:27270  timeUnit */\n      dup3\n        /* \"contracts/lib/eai/EAI.sol\":27262:27278  timeUnit == HOUR */\n      0xff\n      and\n      sub\n        /* \"contracts/lib/eai/EAI.sol\":27259:27440  if(timeUnit == HOUR ){... */\n      tag_277\n      jumpi\n        /* \"contracts/lib/eai/EAI.sol\":27302:27307  60*60 */\n      0x0e10\n        /* \"contracts/lib/eai/EAI.sol\":27295:27307  return 60*60 */\n      swap1\n      pop\n      jump(tag_269)\n        /* \"contracts/lib/eai/EAI.sol\":27259:27440  if(timeUnit == HOUR ){... */\n    tag_277:\n        /* \"contracts/lib/eai/EAI.sol\":843:844  3 */\n      0x03\n        /* \"contracts/lib/eai/EAI.sol\":27327:27342  timeUnit == DAY */\n      0xff\n      and\n        /* \"contracts/lib/eai/EAI.sol\":27327:27335  timeUnit */\n      dup3\n        /* \"contracts/lib/eai/EAI.sol\":27327:27342  timeUnit == DAY */\n      0xff\n      and\n      sub\n        /* \"contracts/lib/eai/EAI.sol\":27324:27440  if(timeUnit == DAY){... */\n      tag_279\n      jumpi\n        /* \"contracts/lib/eai/EAI.sol\":27365:27373  60*60*24 */\n      0x015180\n        /* \"contracts/lib/eai/EAI.sol\":27358:27373  return 60*60*24 */\n      swap1\n      pop\n      jump(tag_269)\n        /* \"contracts/lib/eai/EAI.sol\":27324:27440  if(timeUnit == DAY){... */\n    tag_279:\n        /* \"contracts/lib/eai/EAI.sol\":27411:27421  60*60*24*7 */\n      0x093a80\n        /* \"contracts/lib/eai/EAI.sol\":27404:27421  return 60*60*24*7 */\n      swap1\n      pop\n        /* \"contracts/lib/eai/EAI.sol\":26898:27447  function getTimeInSeconds(uint8 timeUnit) private pure returns(uint32){... */\n    tag_269:\n      swap2\n      swap1\n      pop\n      jump\t// out\n        /* \"contracts/lib/eai/EAI.sol\":30956:31501  function uint2String(uint256 value) internal pure returns (string memory) {... */\n    tag_206:\n        /* \"contracts/lib/eai/EAI.sol\":31015:31028  string memory */\n      0x60\n        /* \"contracts/lib/eai/EAI.sol\":31064:31065  0 */\n      0x00\n        /* \"contracts/lib/eai/EAI.sol\":31055:31060  value */\n      dup3\n        /* \"contracts/lib/eai/EAI.sol\":31055:31065  value == 0 */\n      sub\n        /* \"contracts/lib/eai/EAI.sol\":31051:31104  if (value == 0) {... */\n      tag_282\n      jumpi\n        /* \"contracts/lib/eai/EAI.sol\":31082:31092  return \"0\" */\n      mload(0x40)\n      dup1\n      0x40\n      add\n      0x40\n      mstore\n      dup1\n      0x01\n      dup2\n      mstore\n      0x20\n      add\n      0x3000000000000000000000000000000000000000000000000000000000000000\n      dup2\n      mstore\n      pop\n      swap1\n      pop\n      jump(tag_281)\n        /* \"contracts/lib/eai/EAI.sol\":31051:31104  if (value == 0) {... */\n    tag_282:\n        /* \"contracts/lib/eai/EAI.sol\":31114:31126  uint256 temp */\n      0x00\n        /* \"contracts/lib/eai/EAI.sol\":31129:31134  value */\n      dup3\n        /* \"contracts/lib/eai/EAI.sol\":31114:31134  uint256 temp = value */\n      swap1\n      pop\n        /* \"contracts/lib/eai/EAI.sol\":31145:31159  uint256 digits */\n      0x00\n        /* \"contracts/lib/eai/EAI.sol\":31170:31248  while (temp != 0) {... */\n    tag_283:\n        /* \"contracts/lib/eai/EAI.sol\":31185:31186  0 */\n      0x00\n        /* \"contracts/lib/eai/EAI.sol\":31177:31181  temp */\n      dup3\n        /* \"contracts/lib/eai/EAI.sol\":31177:31186  temp != 0 */\n      eq\n        /* \"contracts/lib/eai/EAI.sol\":31170:31248  while (temp != 0) {... */\n      tag_284\n      jumpi\n        /* \"contracts/lib/eai/EAI.sol\":31203:31211  digits++ */\n      dup1\n      dup1\n      tag_285\n      swap1\n      tag_286\n      jump\t// in\n    tag_285:\n      swap2\n      pop\n      pop\n        /* \"contracts/lib/eai/EAI.sol\":31234:31236  10 */\n      0x0a\n        /* \"contracts/lib/eai/EAI.sol\":31226:31236  temp /= 10 */\n      dup3\n      tag_287\n      swap2\n      swap1\n      tag_288\n      jump\t// in\n    tag_287:\n      swap2\n      pop\n        /* \"contracts/lib/eai/EAI.sol\":31170:31248  while (temp != 0) {... */\n      jump(tag_283)\n    tag_284:\n        /* \"contracts/lib/eai/EAI.sol\":31258:31277  bytes memory buffer */\n      0x00\n        /* \"contracts/lib/eai/EAI.sol\":31290:31296  digits */\n      dup2\n        /* \"contracts/lib/eai/EAI.sol\":31280:31297  new bytes(digits) */\n      0xffffffffffffffff\n      dup2\n      gt\n      iszero\n      tag_289\n      jumpi\n      tag_290\n      tag_291\n      jump\t// in\n    tag_290:\n    tag_289:\n      mload(0x40)\n      swap1\n      dup1\n      dup3\n      mstore\n      dup1\n      0x1f\n      add\n      not(0x1f)\n      and\n      0x20\n      add\n      dup3\n      add\n      0x40\n      mstore\n      dup1\n      iszero\n      tag_292\n      jumpi\n      dup2\n      0x20\n      add\n      0x01\n      dup3\n      mul\n      dup1\n      calldatasize\n      dup4\n      calldatacopy\n      dup1\n      dup3\n      add\n      swap2\n      pop\n      pop\n      swap1\n      pop\n    tag_292:\n      pop\n        /* \"contracts/lib/eai/EAI.sol\":31258:31297  bytes memory buffer = new bytes(digits) */\n      swap1\n      pop\n        /* \"contracts/lib/eai/EAI.sol\":31308:31462  while (value != 0) {... */\n    tag_293:\n        /* \"contracts/lib/eai/EAI.sol\":31324:31325  0 */\n      0x00\n        /* \"contracts/lib/eai/EAI.sol\":31315:31320  value */\n      dup6\n        /* \"contracts/lib/eai/EAI.sol\":31315:31325  value != 0 */\n      eq\n        /* \"contracts/lib/eai/EAI.sol\":31308:31462  while (value != 0) {... */\n      tag_294\n      jumpi\n        /* \"contracts/lib/eai/EAI.sol\":31352:31353  1 */\n      0x01\n        /* \"contracts/lib/eai/EAI.sol\":31342:31353  digits -= 1 */\n      dup3\n      tag_295\n      swap2\n      swap1\n      tag_196\n      jump\t// in\n    tag_295:\n      swap2\n      pop\n        /* \"contracts/lib/eai/EAI.sol\":31419:31421  10 */\n      0x0a\n        /* \"contracts/lib/eai/EAI.sol\":31411:31416  value */\n      dup6\n        /* \"contracts/lib/eai/EAI.sol\":31411:31421  value % 10 */\n      tag_296\n      swap2\n      swap1\n      tag_297\n      jump\t// in\n    tag_296:\n        /* \"contracts/lib/eai/EAI.sol\":31398:31400  48 */\n      0x30\n        /* \"contracts/lib/eai/EAI.sol\":31398:31422  48 + uint256(value % 10) */\n      tag_298\n      swap2\n      swap1\n      tag_299\n      jump\t// in\n    tag_298:\n        /* \"contracts/lib/eai/EAI.sol\":31385:31424  bytes1(uint8(48 + uint256(value % 10))) */\n      0xf8\n      shl\n        /* \"contracts/lib/eai/EAI.sol\":31368:31374  buffer */\n      dup2\n        /* \"contracts/lib/eai/EAI.sol\":31375:31381  digits */\n      dup4\n        /* \"contracts/lib/eai/EAI.sol\":31368:31382  buffer[digits] */\n      dup2\n      mload\n      dup2\n      lt\n      tag_300\n      jumpi\n      tag_301\n      tag_95\n      jump\t// in\n    tag_301:\n    tag_300:\n      0x20\n      add\n      add\n        /* \"contracts/lib/eai/EAI.sol\":31368:31424  buffer[digits] = bytes1(uint8(48 + uint256(value % 10))) */\n      swap1\n      not(0xffffffffffffffffffffffffffffffffffffffffffffffffffffffffffffff)\n      and\n      swap1\n      dup2\n      0x00\n      byte\n      swap1\n      mstore8\n      pop\n        /* \"contracts/lib/eai/EAI.sol\":31448:31450  10 */\n      0x0a\n        /* \"contracts/lib/eai/EAI.sol\":31439:31450  value /= 10 */\n      dup6\n      tag_302\n      swap2\n      swap1\n      tag_288\n      jump\t// in\n    tag_302:\n      swap5\n      pop\n        /* \"contracts/lib/eai/EAI.sol\":31308:31462  while (value != 0) {... */\n      jump(tag_293)\n    tag_294:\n        /* \"contracts/lib/eai/EAI.sol\":31486:31492  buffer */\n      dup1\n        /* \"contracts/lib/eai/EAI.sol\":31472:31493  return string(buffer) */\n      swap4\n      pop\n      pop\n      pop\n      pop\n        /* \"contracts/lib/eai/EAI.sol\":30956:31501  function uint2String(uint256 value) internal pure returns (string memory) {... */\n    tag_281:\n      swap2\n      swap1\n      pop\n      jump\t// out\n        /* \"contracts/lib/eai/EAI.sol\":25022:25710  function isAccessDatetimeOutOfOldInterval(uint8 _timeUnit, uint32 _endTime, ... */\n    tag_225:\n        /* \"contracts/lib/eai/EAI.sol\":25164:25168  bool */\n      0x00\n        /* \"contracts/lib/eai/EAI.sol\":25191:25205  uint8 timeUnit */\n      dup1\n        /* \"contracts/lib/eai/EAI.sol\":25208:25217  _timeUnit */\n      dup5\n        /* \"contracts/lib/eai/EAI.sol\":25191:25217  uint8 timeUnit = _timeUnit */\n      swap1\n      pop\n        /* \"contracts/lib/eai/EAI.sol\":872:873  4 */\n      0x04\n        /* \"contracts/lib/eai/EAI.sol\":25231:25247  timeUnit <= WEEK */\n      0xff\n      and\n        /* \"contracts/lib/eai/EAI.sol\":25231:25239  timeUnit */\n      dup2\n        /* \"contracts/lib/eai/EAI.sol\":25231:25247  timeUnit <= WEEK */\n      0xff\n      and\n      gt\n        /* \"contracts/lib/eai/EAI.sol\":25228:25572  if(timeUnit <= WEEK){... */\n      tag_304\n      jumpi\n        /* \"contracts/lib/eai/EAI.sol\":25289:25297  _endTime */\n      dup4\n        /* \"contracts/lib/eai/EAI.sol\":25270:25297  _accessDateTime >= _endTime */\n      0xffffffff\n      and\n        /* \"contracts/lib/eai/EAI.sol\":25270:25285  _accessDateTime */\n      dup4\n        /* \"contracts/lib/eai/EAI.sol\":25270:25297  _accessDateTime >= _endTime */\n      0xffffffff\n      and\n      lt\n      iszero\n        /* \"contracts/lib/eai/EAI.sol\":25263:25297  return _accessDateTime >= _endTime */\n      swap2\n      pop\n      pop\n      jump(tag_303)\n        /* \"contracts/lib/eai/EAI.sol\":25228:25572  if(timeUnit <= WEEK){... */\n    tag_304:\n        /* \"contracts/lib/eai/EAI.sol\":902:903  5 */\n      0x05\n        /* \"contracts/lib/eai/EAI.sol\":25318:25335  timeUnit == MONTH */\n      0xff\n      and\n        /* \"contracts/lib/eai/EAI.sol\":25318:25326  timeUnit */\n      dup2\n        /* \"contracts/lib/eai/EAI.sol\":25318:25335  timeUnit == MONTH */\n      0xff\n      and\n      sub\n        /* \"contracts/lib/eai/EAI.sol\":25315:25572  if(timeUnit == MONTH) {            ... */\n      tag_306\n      jumpi\n        /* \"contracts/lib/eai/EAI.sol\":25366:25378  uint32 month */\n      0x00\n        /* \"contracts/lib/eai/EAI.sol\":25383:25415  timeStampToDate(_accessDateTime) */\n      tag_307\n        /* \"contracts/lib/eai/EAI.sol\":25399:25414  _accessDateTime */\n      dup5\n        /* \"contracts/lib/eai/EAI.sol\":25383:25415  timeStampToDate(_accessDateTime) */\n      0xffffffff\n      and\n        /* \"contracts/lib/eai/EAI.sol\":25383:25398  timeStampToDate */\n      tag_308\n        /* \"contracts/lib/eai/EAI.sol\":25383:25415  timeStampToDate(_accessDateTime) */\n      jump\t// in\n    tag_307:\n        /* \"contracts/lib/eai/EAI.sol\":25364:25415  (,uint32 month,) = timeStampToDate(_accessDateTime) */\n      pop\n      swap2\n      pop\n      pop\n        /* \"contracts/lib/eai/EAI.sol\":25450:25452  13 */\n      0x0d\n        /* \"contracts/lib/eai/EAI.sol\":25438:25446  _endTime */\n      dup6\n        /* \"contracts/lib/eai/EAI.sol\":25438:25452  _endTime == 13 */\n      0xffffffff\n      and\n      eq\n        /* \"contracts/lib/eai/EAI.sol\":25437:25467  (_endTime == 13) && (month==1) */\n      dup1\n      iszero\n      tag_309\n      jumpi\n      pop\n        /* \"contracts/lib/eai/EAI.sol\":25465:25466  1 */\n      0x01\n        /* \"contracts/lib/eai/EAI.sol\":25458:25463  month */\n      dup2\n        /* \"contracts/lib/eai/EAI.sol\":25458:25466  month==1 */\n      0xffffffff\n      and\n      eq\n        /* \"contracts/lib/eai/EAI.sol\":25437:25467  (_endTime == 13) && (month==1) */\n    tag_309:\n        /* \"contracts/lib/eai/EAI.sol\":25434:25514  if((_endTime == 13) && (month==1)){... */\n      iszero\n      tag_310\n      jumpi\n        /* \"contracts/lib/eai/EAI.sol\":25494:25498  true */\n      0x01\n        /* \"contracts/lib/eai/EAI.sol\":25487:25498  return true */\n      swap3\n      pop\n      pop\n      pop\n      jump(tag_303)\n        /* \"contracts/lib/eai/EAI.sol\":25434:25514  if((_endTime == 13) && (month==1)){... */\n    tag_310:\n        /* \"contracts/lib/eai/EAI.sol\":25552:25560  _endTime */\n      dup5\n        /* \"contracts/lib/eai/EAI.sol\":25543:25560  month >= _endTime */\n      0xffffffff\n      and\n        /* \"contracts/lib/eai/EAI.sol\":25543:25548  month */\n      dup2\n        /* \"contracts/lib/eai/EAI.sol\":25543:25560  month >= _endTime */\n      0xffffffff\n      and\n      lt\n      iszero\n        /* \"contracts/lib/eai/EAI.sol\":25536:25560  return month >= _endTime */\n      swap3\n      pop\n      pop\n      pop\n      jump(tag_303)\n        /* \"contracts/lib/eai/EAI.sol\":25315:25572  if(timeUnit == MONTH) {            ... */\n    tag_306:\n        /* \"contracts/lib/eai/EAI.sol\":25618:25629  uint32 year */\n      0x00\n        /* \"contracts/lib/eai/EAI.sol\":25636:25668  timeStampToDate(_accessDateTime) */\n      tag_311\n        /* \"contracts/lib/eai/EAI.sol\":25652:25667  _accessDateTime */\n      dup5\n        /* \"contracts/lib/eai/EAI.sol\":25636:25668  timeStampToDate(_accessDateTime) */\n      0xffffffff\n      and\n        /* \"contracts/lib/eai/EAI.sol\":25636:25651  timeStampToDate */\n      tag_308\n        /* \"contracts/lib/eai/EAI.sol\":25636:25668  timeStampToDate(_accessDateTime) */\n      jump\t// in\n    tag_311:\n        /* \"contracts/lib/eai/EAI.sol\":25617:25668  (uint32 year, ,) = timeStampToDate(_accessDateTime) */\n      pop\n      pop\n      swap1\n      pop\n        /* \"contracts/lib/eai/EAI.sol\":25694:25702  _endTime */\n      dup5\n        /* \"contracts/lib/eai/EAI.sol\":25686:25702  year >= _endTime */\n      0xffffffff\n      and\n        /* \"contracts/lib/eai/EAI.sol\":25686:25690  year */\n      dup2\n        /* \"contracts/lib/eai/EAI.sol\":25686:25702  year >= _endTime */\n      0xffffffff\n      and\n      lt\n      iszero\n        /* \"contracts/lib/eai/EAI.sol\":25679:25702  return year >= _endTime */\n      swap3\n      pop\n      pop\n      pop\n        /* \"contracts/lib/eai/EAI.sol\":25022:25710  function isAccessDatetimeOutOfOldInterval(uint8 _timeUnit, uint32 _endTime, ... */\n    tag_303:\n      swap4\n      swap3\n      pop\n      pop\n      pop\n      jump\t// out\n        /* \"contracts/lib/eai/EAI.sol\":12589:13197  function setNewEndTimeAndRestOfOperations(... */\n    tag_228:\n        /* \"contracts/lib/eai/EAI.sol\":12802:12829  _maxNumberOfOperationByTime */\n      dup2\n        /* \"contracts/lib/eai/EAI.sol\":12802:12836  _maxNumberOfOperationByTime.amount */\n      0x00\n      add\n      0x00\n      swap1\n      sload\n      swap1\n      0x0100\n      exp\n      swap1\n      div\n      0xffffffff\n      and\n        /* \"contracts/lib/eai/EAI.sol\":12767:12794  _maxNumberOfOperationByTime */\n      dup3\n        /* \"contracts/lib/eai/EAI.sol\":12767:12799  _maxNumberOfOperationByTime.rest */\n      0x00\n      add\n      0x09\n        /* \"contracts/lib/eai/EAI.sol\":12767:12836  _maxNumberOfOperationByTime.rest = _maxNumberOfOperationByTime.amount */\n      0x0100\n      exp\n      dup2\n      sload\n      dup2\n      0xffffffff\n      mul\n      not\n      and\n      swap1\n      dup4\n      0xffffffff\n      and\n      mul\n      or\n      swap1\n      sstore\n      pop\n        /* \"contracts/lib/eai/EAI.sol\":12885:13189  calcNextEndTime(... */\n      tag_313\n        /* \"contracts/lib/eai/EAI.sol\":12951:12978  _maxNumberOfOperationByTime */\n      dup3\n        /* \"contracts/lib/eai/EAI.sol\":12951:12985  _maxNumberOfOperationByTime.byTime */\n      0x00\n      add\n      0x05\n      swap1\n      sload\n      swap1\n      0x0100\n      exp\n      swap1\n      div\n      0xffffffff\n      and\n        /* \"contracts/lib/eai/EAI.sol\":13036:13063  _maxNumberOfOperationByTime */\n      dup4\n        /* \"contracts/lib/eai/EAI.sol\":13036:13072  _maxNumberOfOperationByTime.timeUnit */\n      0x00\n      add\n      0x04\n      swap1\n      sload\n      swap1\n      0x0100\n      exp\n      swap1\n      div\n      0xff\n      and\n        /* \"contracts/lib/eai/EAI.sol\":13123:13138  _accessDateTime */\n      dup4\n        /* \"contracts/lib/eai/EAI.sol\":12885:12900  calcNextEndTime */\n      tag_260\n        /* \"contracts/lib/eai/EAI.sol\":12885:13189  calcNextEndTime(... */\n      jump\t// in\n    tag_313:\n        /* \"contracts/lib/eai/EAI.sol\":12847:12874  _maxNumberOfOperationByTime */\n      dup3\n        /* \"contracts/lib/eai/EAI.sol\":12847:12882  _maxNumberOfOperationByTime.endTime */\n      0x00\n      add\n      0x0d\n        /* \"contracts/lib/eai/EAI.sol\":12847:13189  _maxNumberOfOperationByTime.endTime = calcNextEndTime(... */\n      0x0100\n      exp\n      dup2\n      sload\n      dup2\n      0xffffffff\n      mul\n      not\n      and\n      swap1\n      dup4\n      0xffffffff\n      and\n      mul\n      or\n      swap1\n      sstore\n      pop\n        /* \"contracts/lib/eai/EAI.sol\":12589:13197  function setNewEndTimeAndRestOfOperations(... */\n      pop\n      pop\n      jump\t// out\n        /* \"contracts/lib/eai/EAI.sol\":25718:26375  function calcNextEndTime(       ... */\n    tag_260:\n        /* \"contracts/lib/eai/EAI.sol\":25872:25878  uint32 */\n      0x00\n        /* \"contracts/lib/eai/EAI.sol\":872:873  4 */\n      0x04\n        /* \"contracts/lib/eai/EAI.sol\":25904:25921  _timeUnit <= WEEK */\n      0xff\n      and\n        /* \"contracts/lib/eai/EAI.sol\":25904:25913  _timeUnit */\n      dup4\n        /* \"contracts/lib/eai/EAI.sol\":25904:25921  _timeUnit <= WEEK */\n      0xff\n      and\n      gt\n        /* \"contracts/lib/eai/EAI.sol\":25900:26368  if (_timeUnit <= WEEK) {... */\n      tag_315\n      jumpi\n        /* \"contracts/lib/eai/EAI.sol\":25945:26077  calcNextEndTimeForSecMinHrDayOrWeek(... */\n      tag_316\n        /* \"contracts/lib/eai/EAI.sol\":25999:26008  _timeUnit */\n      dup4\n        /* \"contracts/lib/eai/EAI.sol\":26028:26043  _accessDateTime */\n      dup4\n        /* \"contracts/lib/eai/EAI.sol\":26063:26076  _timeInterval */\n      dup7\n        /* \"contracts/lib/eai/EAI.sol\":25945:25980  calcNextEndTimeForSecMinHrDayOrWeek */\n      tag_317\n        /* \"contracts/lib/eai/EAI.sol\":25945:26077  calcNextEndTimeForSecMinHrDayOrWeek(... */\n      jump\t// in\n    tag_316:\n        /* \"contracts/lib/eai/EAI.sol\":25938:26077  return calcNextEndTimeForSecMinHrDayOrWeek(... */\n      swap1\n      pop\n      jump(tag_314)\n        /* \"contracts/lib/eai/EAI.sol\":25900:26368  if (_timeUnit <= WEEK) {... */\n    tag_315:\n        /* \"contracts/lib/eai/EAI.sol\":902:903  5 */\n      0x05\n        /* \"contracts/lib/eai/EAI.sol\":26097:26115  _timeUnit == MONTH */\n      0xff\n      and\n        /* \"contracts/lib/eai/EAI.sol\":26097:26106  _timeUnit */\n      dup4\n        /* \"contracts/lib/eai/EAI.sol\":26097:26115  _timeUnit == MONTH */\n      0xff\n      and\n      sub\n        /* \"contracts/lib/eai/EAI.sol\":26094:26368  if(_timeUnit == MONTH){... */\n      tag_319\n      jumpi\n        /* \"contracts/lib/eai/EAI.sol\":26133:26150  uint currentMonth */\n      0x00\n        /* \"contracts/lib/eai/EAI.sol\":26155:26187  timeStampToDate(_accessDateTime) */\n      tag_320\n        /* \"contracts/lib/eai/EAI.sol\":26171:26186  _accessDateTime */\n      dup4\n        /* \"contracts/lib/eai/EAI.sol\":26155:26187  timeStampToDate(_accessDateTime) */\n      0xffffffff\n      and\n        /* \"contracts/lib/eai/EAI.sol\":26155:26170  timeStampToDate */\n      tag_308\n        /* \"contracts/lib/eai/EAI.sol\":26155:26187  timeStampToDate(_accessDateTime) */\n      jump\t// in\n    tag_320:\n        /* \"contracts/lib/eai/EAI.sol\":26131:26187  (,uint currentMonth,) = timeStampToDate(_accessDateTime) */\n      pop\n      0xffffffff\n      and\n      swap2\n      pop\n      pop\n        /* \"contracts/lib/eai/EAI.sol\":26231:26232  1 */\n      0x01\n        /* \"contracts/lib/eai/EAI.sol\":26218:26230  currentMonth */\n      dup2\n        /* \"contracts/lib/eai/EAI.sol\":26218:26232  currentMonth+1 */\n      tag_321\n      swap2\n      swap1\n      tag_299\n      jump\t// in\n    tag_321:\n        /* \"contracts/lib/eai/EAI.sol\":26204:26233  return uint32(currentMonth+1) */\n      swap2\n      pop\n      pop\n      jump(tag_314)\n        /* \"contracts/lib/eai/EAI.sol\":26094:26368  if(_timeUnit == MONTH){... */\n    tag_319:\n        /* \"contracts/lib/eai/EAI.sol\":26271:26280  uint year */\n      0x00\n        /* \"contracts/lib/eai/EAI.sol\":26286:26318  timeStampToDate(_accessDateTime) */\n      tag_323\n        /* \"contracts/lib/eai/EAI.sol\":26302:26317  _accessDateTime */\n      dup4\n        /* \"contracts/lib/eai/EAI.sol\":26286:26318  timeStampToDate(_accessDateTime) */\n      0xffffffff\n      and\n        /* \"contracts/lib/eai/EAI.sol\":26286:26301  timeStampToDate */\n      tag_308\n        /* \"contracts/lib/eai/EAI.sol\":26286:26318  timeStampToDate(_accessDateTime) */\n      jump\t// in\n    tag_323:\n        /* \"contracts/lib/eai/EAI.sol\":26270:26318  (uint year,,) = timeStampToDate(_accessDateTime) */\n      pop\n      pop\n      0xffffffff\n      and\n      swap1\n      pop\n        /* \"contracts/lib/eai/EAI.sol\":26354:26355  1 */\n      0x01\n        /* \"contracts/lib/eai/EAI.sol\":26347:26351  year */\n      dup2\n        /* \"contracts/lib/eai/EAI.sol\":26347:26355  year + 1 */\n      tag_324\n      swap2\n      swap1\n      tag_299\n      jump\t// in\n    tag_324:\n        /* \"contracts/lib/eai/EAI.sol\":26333:26356  return uint32(year + 1) */\n      swap2\n      pop\n      pop\n        /* \"contracts/lib/eai/EAI.sol\":25718:26375  function calcNextEndTime(       ... */\n    tag_314:\n      swap4\n      swap3\n      pop\n      pop\n      pop\n      jump\t// out\n        /* \"contracts/lib/eai/EAI.sol\":27683:28379  function timeStampToDate(uint _timestamp) internal pure returns (uint32 year, uint32 month, uint32 day) {... */\n    tag_308:\n        /* \"contracts/lib/eai/EAI.sol\":27748:27759  uint32 year */\n      0x00\n        /* \"contracts/lib/eai/EAI.sol\":27761:27773  uint32 month */\n      dup1\n        /* \"contracts/lib/eai/EAI.sol\":27775:27785  uint32 day */\n      0x00\n        /* \"contracts/lib/eai/EAI.sol\":27807:27820  uint32 __days */\n      dup1\n        /* \"contracts/lib/eai/EAI.sol\":1161:1169  24*60*60 */\n      0x015180\n        /* \"contracts/lib/eai/EAI.sol\":27830:27858  _timestamp / SECONDS_PER_DAY */\n      0xffffffff\n      and\n        /* \"contracts/lib/eai/EAI.sol\":27830:27840  _timestamp */\n      dup6\n        /* \"contracts/lib/eai/EAI.sol\":27830:27858  _timestamp / SECONDS_PER_DAY */\n      tag_326\n      swap2\n      swap1\n      tag_288\n      jump\t// in\n    tag_326:\n        /* \"contracts/lib/eai/EAI.sol\":27807:27859  uint32 __days = uint32(_timestamp / SECONDS_PER_DAY) */\n      swap1\n      pop\n        /* \"contracts/lib/eai/EAI.sol\":27872:27880  uint32 L */\n      0x00\n        /* \"contracts/lib/eai/EAI.sol\":1209:1216  2440588 */\n      0x253d8c\n        /* \"contracts/lib/eai/EAI.sol\":27892:27897  68569 */\n      0x010bd9\n        /* \"contracts/lib/eai/EAI.sol\":27883:27889  __days */\n      dup4\n        /* \"contracts/lib/eai/EAI.sol\":27883:27897  __days + 68569 */\n      tag_327\n      swap2\n      swap1\n      tag_268\n      jump\t// in\n    tag_327:\n        /* \"contracts/lib/eai/EAI.sol\":27883:27914  __days + 68569 + OFFSET19700101 */\n      tag_328\n      swap2\n      swap1\n      tag_268\n      jump\t// in\n    tag_328:\n        /* \"contracts/lib/eai/EAI.sol\":27872:27914  uint32 L = __days + 68569 + OFFSET19700101 */\n      swap1\n      pop\n        /* \"contracts/lib/eai/EAI.sol\":27925:27933  uint32 N */\n      0x00\n        /* \"contracts/lib/eai/EAI.sol\":27944:27950  146097 */\n      0x023ab1\n        /* \"contracts/lib/eai/EAI.sol\":27940:27941  L */\n      dup3\n        /* \"contracts/lib/eai/EAI.sol\":27936:27937  4 */\n      0x04\n        /* \"contracts/lib/eai/EAI.sol\":27936:27941  4 * L */\n      tag_329\n      swap2\n      swap1\n      tag_330\n      jump\t// in\n    tag_329:\n        /* \"contracts/lib/eai/EAI.sol\":27936:27950  4 * L / 146097 */\n      tag_331\n      swap2\n      swap1\n      tag_332\n      jump\t// in\n    tag_331:\n        /* \"contracts/lib/eai/EAI.sol\":27925:27950  uint32 N = 4 * L / 146097 */\n      swap1\n      pop\n        /* \"contracts/lib/eai/EAI.sol\":27988:27989  4 */\n      0x04\n        /* \"contracts/lib/eai/EAI.sol\":27983:27984  3 */\n      0x03\n        /* \"contracts/lib/eai/EAI.sol\":27979:27980  N */\n      dup3\n        /* \"contracts/lib/eai/EAI.sol\":27970:27976  146097 */\n      0x023ab1\n        /* \"contracts/lib/eai/EAI.sol\":27970:27980  146097 * N */\n      tag_333\n      swap2\n      swap1\n      tag_330\n      jump\t// in\n    tag_333:\n        /* \"contracts/lib/eai/EAI.sol\":27970:27984  146097 * N + 3 */\n      tag_334\n      swap2\n      swap1\n      tag_268\n      jump\t// in\n    tag_334:\n        /* \"contracts/lib/eai/EAI.sol\":27969:27989  (146097 * N + 3) / 4 */\n      tag_335\n      swap2\n      swap1\n      tag_332\n      jump\t// in\n    tag_335:\n        /* \"contracts/lib/eai/EAI.sol\":27965:27966  L */\n      dup3\n        /* \"contracts/lib/eai/EAI.sol\":27965:27989  L - (146097 * N + 3) / 4 */\n      tag_336\n      swap2\n      swap1\n      tag_214\n      jump\t// in\n    tag_336:\n        /* \"contracts/lib/eai/EAI.sol\":27961:27989  L = L - (146097 * N + 3) / 4 */\n      swap2\n      pop\n        /* \"contracts/lib/eai/EAI.sol\":28000:28012  uint32 _year */\n      0x00\n        /* \"contracts/lib/eai/EAI.sol\":28032:28039  1461001 */\n      0x164b09\n        /* \"contracts/lib/eai/EAI.sol\":28027:28028  1 */\n      0x01\n        /* \"contracts/lib/eai/EAI.sol\":28023:28024  L */\n      dup5\n        /* \"contracts/lib/eai/EAI.sol\":28023:28028  L + 1 */\n      tag_337\n      swap2\n      swap1\n      tag_268\n      jump\t// in\n    tag_337:\n        /* \"contracts/lib/eai/EAI.sol\":28015:28019  4000 */\n      0x0fa0\n        /* \"contracts/lib/eai/EAI.sol\":28015:28029  4000 * (L + 1) */\n      tag_338\n      swap2\n      swap1\n      tag_330\n      jump\t// in\n    tag_338:\n        /* \"contracts/lib/eai/EAI.sol\":28015:28039  4000 * (L + 1) / 1461001 */\n      tag_339\n      swap2\n      swap1\n      tag_332\n      jump\t// in\n    tag_339:\n        /* \"contracts/lib/eai/EAI.sol\":28000:28039  uint32 _year = 4000 * (L + 1) / 1461001 */\n      swap1\n      pop\n        /* \"contracts/lib/eai/EAI.sol\":28077:28079  31 */\n      0x1f\n        /* \"contracts/lib/eai/EAI.sol\":28073:28074  4 */\n      0x04\n        /* \"contracts/lib/eai/EAI.sol\":28065:28070  _year */\n      dup3\n        /* \"contracts/lib/eai/EAI.sol\":28058:28062  1461 */\n      0x05b5\n        /* \"contracts/lib/eai/EAI.sol\":28058:28070  1461 * _year */\n      tag_340\n      swap2\n      swap1\n      tag_330\n      jump\t// in\n    tag_340:\n        /* \"contracts/lib/eai/EAI.sol\":28058:28074  1461 * _year / 4 */\n      tag_341\n      swap2\n      swap1\n      tag_332\n      jump\t// in\n    tag_341:\n        /* \"contracts/lib/eai/EAI.sol\":28054:28055  L */\n      dup5\n        /* \"contracts/lib/eai/EAI.sol\":28054:28074  L - 1461 * _year / 4 */\n      tag_342\n      swap2\n      swap1\n      tag_214\n      jump\t// in\n    tag_342:\n        /* \"contracts/lib/eai/EAI.sol\":28054:28079  L - 1461 * _year / 4 + 31 */\n      tag_343\n      swap2\n      swap1\n      tag_268\n      jump\t// in\n    tag_343:\n        /* \"contracts/lib/eai/EAI.sol\":28050:28079  L = L - 1461 * _year / 4 + 31 */\n      swap3\n      pop\n        /* \"contracts/lib/eai/EAI.sol\":28090:28103  uint32 _month */\n      0x00\n        /* \"contracts/lib/eai/EAI.sol\":28115:28119  2447 */\n      0x098f\n        /* \"contracts/lib/eai/EAI.sol\":28111:28112  L */\n      dup5\n        /* \"contracts/lib/eai/EAI.sol\":28106:28108  80 */\n      0x50\n        /* \"contracts/lib/eai/EAI.sol\":28106:28112  80 * L */\n      tag_344\n      swap2\n      swap1\n      tag_330\n      jump\t// in\n    tag_344:\n        /* \"contracts/lib/eai/EAI.sol\":28106:28119  80 * L / 2447 */\n      tag_345\n      swap2\n      swap1\n      tag_332\n      jump\t// in\n    tag_345:\n        /* \"contracts/lib/eai/EAI.sol\":28090:28119  uint32 _month = 80 * L / 2447 */\n      swap1\n      pop\n        /* \"contracts/lib/eai/EAI.sol\":28130:28141  uint32 _day */\n      0x00\n        /* \"contracts/lib/eai/EAI.sol\":28164:28166  80 */\n      0x50\n        /* \"contracts/lib/eai/EAI.sol\":28155:28161  _month */\n      dup3\n        /* \"contracts/lib/eai/EAI.sol\":28148:28152  2447 */\n      0x098f\n        /* \"contracts/lib/eai/EAI.sol\":28148:28161  2447 * _month */\n      tag_346\n      swap2\n      swap1\n      tag_330\n      jump\t// in\n    tag_346:\n        /* \"contracts/lib/eai/EAI.sol\":28148:28166  2447 * _month / 80 */\n      tag_347\n      swap2\n      swap1\n      tag_332\n      jump\t// in\n    tag_347:\n        /* \"contracts/lib/eai/EAI.sol\":28144:28145  L */\n      dup6\n        /* \"contracts/lib/eai/EAI.sol\":28144:28166  L - 2447 * _month / 80 */\n      tag_348\n      swap2\n      swap1\n      tag_214\n      jump\t// in\n    tag_348:\n        /* \"contracts/lib/eai/EAI.sol\":28130:28166  uint32 _day = L - 2447 * _month / 80 */\n      swap1\n      pop\n        /* \"contracts/lib/eai/EAI.sol\":28190:28192  11 */\n      0x0b\n        /* \"contracts/lib/eai/EAI.sol\":28181:28187  _month */\n      dup3\n        /* \"contracts/lib/eai/EAI.sol\":28181:28192  _month / 11 */\n      tag_349\n      swap2\n      swap1\n      tag_332\n      jump\t// in\n    tag_349:\n        /* \"contracts/lib/eai/EAI.sol\":28177:28192  L = _month / 11 */\n      swap5\n      pop\n        /* \"contracts/lib/eai/EAI.sol\":28230:28231  L */\n      dup5\n        /* \"contracts/lib/eai/EAI.sol\":28225:28227  12 */\n      0x0c\n        /* \"contracts/lib/eai/EAI.sol\":28225:28231  12 * L */\n      tag_350\n      swap2\n      swap1\n      tag_330\n      jump\t// in\n    tag_350:\n        /* \"contracts/lib/eai/EAI.sol\":28221:28222  2 */\n      0x02\n        /* \"contracts/lib/eai/EAI.sol\":28212:28218  _month */\n      dup4\n        /* \"contracts/lib/eai/EAI.sol\":28212:28222  _month + 2 */\n      tag_351\n      swap2\n      swap1\n      tag_268\n      jump\t// in\n    tag_351:\n        /* \"contracts/lib/eai/EAI.sol\":28212:28231  _month + 2 - 12 * L */\n      tag_352\n      swap2\n      swap1\n      tag_214\n      jump\t// in\n    tag_352:\n        /* \"contracts/lib/eai/EAI.sol\":28203:28231  _month = _month + 2 - 12 * L */\n      swap2\n      pop\n        /* \"contracts/lib/eai/EAI.sol\":28275:28276  L */\n      dup5\n        /* \"contracts/lib/eai/EAI.sol\":28267:28272  _year */\n      dup4\n        /* \"contracts/lib/eai/EAI.sol\":28261:28263  49 */\n      0x31\n        /* \"contracts/lib/eai/EAI.sol\":28257:28258  N */\n      dup7\n        /* \"contracts/lib/eai/EAI.sol\":28257:28263  N - 49 */\n      tag_353\n      swap2\n      swap1\n      tag_214\n      jump\t// in\n    tag_353:\n        /* \"contracts/lib/eai/EAI.sol\":28250:28253  100 */\n      0x64\n        /* \"contracts/lib/eai/EAI.sol\":28250:28264  100 * (N - 49) */\n      tag_354\n      swap2\n      swap1\n      tag_330\n      jump\t// in\n    tag_354:\n        /* \"contracts/lib/eai/EAI.sol\":28250:28272  100 * (N - 49) + _year */\n      tag_355\n      swap2\n      swap1\n      tag_268\n      jump\t// in\n    tag_355:\n        /* \"contracts/lib/eai/EAI.sol\":28250:28276  100 * (N - 49) + _year + L */\n      tag_356\n      swap2\n      swap1\n      tag_268\n      jump\t// in\n    tag_356:\n        /* \"contracts/lib/eai/EAI.sol\":28242:28276  _year = 100 * (N - 49) + _year + L */\n      swap3\n      pop\n        /* \"contracts/lib/eai/EAI.sol\":28303:28308  _year */\n      dup3\n        /* \"contracts/lib/eai/EAI.sol\":28289:28309  year = uint32(_year) */\n      swap9\n      pop\n        /* \"contracts/lib/eai/EAI.sol\":28335:28341  _month */\n      dup2\n        /* \"contracts/lib/eai/EAI.sol\":28320:28342  month = uint32(_month) */\n      swap8\n      pop\n        /* \"contracts/lib/eai/EAI.sol\":28366:28370  _day */\n      dup1\n        /* \"contracts/lib/eai/EAI.sol\":28353:28371  day = uint32(_day) */\n      swap7\n      pop\n        /* \"contracts/lib/eai/EAI.sol\":27787:28379  {... */\n      pop\n      pop\n      pop\n      pop\n      pop\n      pop\n        /* \"contracts/lib/eai/EAI.sol\":27683:28379  function timeStampToDate(uint _timestamp) internal pure returns (uint32 year, uint32 month, uint32 day) {... */\n      swap2\n      swap4\n      swap1\n      swap3\n      pop\n      jump\t// out\n        /* \"contracts/lib/eai/EAI.sol\":26387:26884  function calcNextEndTimeForSecMinHrDayOrWeek(... */\n    tag_317:\n        /* \"contracts/lib/eai/EAI.sol\":26555:26561  uint32 */\n      0x00\n        /* \"contracts/lib/eai/EAI.sol\":26575:26585  uint32 mod */\n      dup1\n        /* \"contracts/lib/eai/EAI.sol\":26614:26627  _timeInterval */\n      dup3\n        /* \"contracts/lib/eai/EAI.sol\":26596:26611  _accessDateTime */\n      dup5\n        /* \"contracts/lib/eai/EAI.sol\":26596:26627  _accessDateTime % _timeInterval */\n      tag_358\n      swap2\n      swap1\n      tag_359\n      jump\t// in\n    tag_358:\n        /* \"contracts/lib/eai/EAI.sol\":26575:26628  uint32 mod =  uint32(_accessDateTime % _timeInterval) */\n      swap1\n      pop\n        /* \"contracts/lib/eai/EAI.sol\":26639:26663  uint32 timeToNextEndTime */\n      0x00\n        /* \"contracts/lib/eai/EAI.sol\":26683:26686  mod */\n      dup2\n        /* \"contracts/lib/eai/EAI.sol\":26667:26680  _timeInterval */\n      dup5\n        /* \"contracts/lib/eai/EAI.sol\":26667:26686  _timeInterval - mod */\n      tag_360\n      swap2\n      swap1\n      tag_214\n      jump\t// in\n    tag_360:\n        /* \"contracts/lib/eai/EAI.sol\":26639:26686  uint32 timeToNextEndTime  = _timeInterval - mod */\n      swap1\n      pop\n        /* \"contracts/lib/eai/EAI.sol\":872:873  4 */\n      0x04\n        /* \"contracts/lib/eai/EAI.sol\":26722:26739  _timeUnit == WEEK */\n      0xff\n      and\n        /* \"contracts/lib/eai/EAI.sol\":26722:26731  _timeUnit */\n      dup7\n        /* \"contracts/lib/eai/EAI.sol\":26722:26739  _timeUnit == WEEK */\n      0xff\n      and\n      sub\n        /* \"contracts/lib/eai/EAI.sol\":26719:26822  if(_timeUnit == WEEK){... */\n      tag_361\n      jumpi\n        /* \"contracts/lib/eai/EAI.sol\":1309:1315  259200 */\n      0x03f480\n        /* \"contracts/lib/eai/EAI.sol\":26780:26797  timeToNextEndTime */\n      dup2\n        /* \"contracts/lib/eai/EAI.sol\":26762:26777  _accessDateTime */\n      dup7\n        /* \"contracts/lib/eai/EAI.sol\":26762:26797  _accessDateTime + timeToNextEndTime */\n      tag_362\n      swap2\n      swap1\n      tag_268\n      jump\t// in\n    tag_362:\n        /* \"contracts/lib/eai/EAI.sol\":26762:26810  _accessDateTime + timeToNextEndTime + OFFSETWEEK */\n      tag_363\n      swap2\n      swap1\n      tag_268\n      jump\t// in\n    tag_363:\n        /* \"contracts/lib/eai/EAI.sol\":26755:26810  return _accessDateTime + timeToNextEndTime + OFFSETWEEK */\n      swap3\n      pop\n      pop\n      pop\n      jump(tag_357)\n        /* \"contracts/lib/eai/EAI.sol\":26719:26822  if(_timeUnit == WEEK){... */\n    tag_361:\n        /* \"contracts/lib/eai/EAI.sol\":26859:26876  timeToNextEndTime */\n      dup1\n        /* \"contracts/lib/eai/EAI.sol\":26841:26856  _accessDateTime */\n      dup6\n        /* \"contracts/lib/eai/EAI.sol\":26841:26876  _accessDateTime + timeToNextEndTime */\n      tag_364\n      swap2\n      swap1\n      tag_268\n      jump\t// in\n    tag_364:\n        /* \"contracts/lib/eai/EAI.sol\":26834:26876  return _accessDateTime + timeToNextEndTime */\n      swap3\n      pop\n      pop\n      pop\n        /* \"contracts/lib/eai/EAI.sol\":26387:26884  function calcNextEndTimeForSecMinHrDayOrWeek(... */\n    tag_357:\n      swap4\n      swap3\n      pop\n      pop\n      pop\n      jump\t// out\n    tag_53:\n      pop\n      dup1\n      sload\n      tag_365\n      swap1\n      tag_133\n      jump\t// in\n    tag_365:\n      0x00\n      dup3\n      sstore\n      dup1\n      0x1f\n      lt\n      tag_367\n      jumpi\n      pop\n      jump(tag_366)\n    tag_367:\n      0x1f\n      add\n      0x20\n      swap1\n      div\n      swap1\n      0x00\n      mstore\n      keccak256(0x00, 0x20)\n      swap1\n      dup2\n      add\n      swap1\n      tag_368\n      swap2\n      swap1\n      tag_369\n      jump\t// in\n    tag_368:\n    tag_366:\n      pop\n      jump\t// out\n    tag_56:\n      dup3\n      dup1\n      sload\n      tag_370\n      swap1\n      tag_133\n      jump\t// in\n    tag_370:\n      swap1\n      0x00\n      mstore\n      keccak256(0x00, 0x20)\n      swap1\n      0x1f\n      add\n      0x20\n      swap1\n      div\n      dup2\n      add\n      swap3\n      dup3\n      tag_372\n      jumpi\n      0x00\n      dup6\n      sstore\n      jump(tag_371)\n    tag_372:\n      dup3\n      0x1f\n      lt\n      tag_373\n      jumpi\n      dup1\n      mload\n      not(0xff)\n      and\n      dup4\n      dup1\n      add\n      or\n      dup6\n      sstore\n      jump(tag_371)\n    tag_373:\n      dup3\n      dup1\n      add\n      0x01\n      add\n      dup6\n      sstore\n      dup3\n      iszero\n      tag_371\n      jumpi\n      swap2\n      dup3\n      add\n    tag_374:\n      dup3\n      dup2\n      gt\n      iszero\n      tag_375\n      jumpi\n      dup3\n      mload\n      dup3\n      sstore\n      swap2\n      0x20\n      add\n      swap2\n      swap1\n      0x01\n      add\n      swap1\n      jump(tag_374)\n    tag_375:\n    tag_371:\n      pop\n      swap1\n      pop\n      tag_376\n      swap2\n      swap1\n      tag_369\n      jump\t// in\n    tag_376:\n      pop\n      swap1\n      jump\t// out\n    tag_163:\n      mload(0x40)\n      dup1\n      0x60\n      add\n      0x40\n      mstore\n      dup1\n      0x60\n      dup2\n      mstore\n      0x20\n      add\n      and(0xffffffffffffffffffffffffffffffffffffffff, 0x00)\n      dup2\n      mstore\n      0x20\n      add\n      iszero(iszero(0x00))\n      dup2\n      mstore\n      pop\n      swap1\n      jump\t// out\n    tag_179:\n      mload(0x40)\n      dup1\n      0xa0\n      add\n      0x40\n      mstore\n      dup1\n      and(0xffffffff, 0x00)\n      dup2\n      mstore\n      0x20\n      add\n      and(0xff, 0x00)\n      dup2\n      mstore\n      0x20\n      add\n      and(0xffffffff, 0x00)\n      dup2\n      mstore\n      0x20\n      add\n      and(0xffffffff, 0x00)\n      dup2\n      mstore\n      0x20\n      add\n      and(0xffffffff, 0x00)\n      dup2\n      mstore\n      pop\n      swap1\n      jump\t// out\n    tag_186:\n      mload(0x40)\n      dup1\n      0x60\n      add\n      0x40\n      mstore\n      dup1\n      0x60\n      dup2\n      mstore\n      0x20\n      add\n      0x60\n      dup2\n      mstore\n      0x20\n      add\n      0x00\n      dup2\n      mstore\n      pop\n      swap1\n      jump\t// out\n    tag_189:\n      mload(0x40)\n      dup1\n      0x0100\n      add\n      0x40\n      mstore\n      dup1\n      0x60\n      dup2\n      mstore\n      0x20\n      add\n      0x60\n      dup2\n      mstore\n      0x20\n      add\n      0x00\n      dup2\n      mstore\n      0x20\n      add\n      and(0xff, 0x00)\n      dup2\n      mstore\n      0x20\n      add\n      and(0xffffffff, 0x00)\n      dup2\n      mstore\n      0x20\n      add\n      0x00\n      dup2\n      mstore\n      0x20\n      add\n      and(0xffffffff, 0x00)\n      dup2\n      mstore\n      0x20\n      add\n      0x00\n      dup2\n      mstore\n      pop\n      swap1\n      jump\t// out\n    tag_198:\n      mload(0x40)\n      dup1\n      0x40\n      add\n      0x40\n      mstore\n      dup1\n      and(0xffffffff, 0x00)\n      dup2\n      mstore\n      0x20\n      add\n      and(0xffffffff, 0x00)\n      dup2\n      mstore\n      pop\n      swap1\n      jump\t// out\n    tag_203:\n      dup3\n      dup1\n      sload\n      tag_377\n      swap1\n      tag_133\n      jump\t// in\n    tag_377:\n      swap1\n      0x00\n      mstore\n      keccak256(0x00, 0x20)\n      swap1\n      0x1f\n      add\n      0x20\n      swap1\n      div\n      dup2\n      add\n      swap3\n      dup3\n      tag_379\n      jumpi\n      0x00\n      dup6\n      sstore\n      jump(tag_378)\n    tag_379:\n      dup3\n      0x1f\n      lt\n      tag_380\n      jumpi\n      dup1\n      sload\n      dup6\n      sstore\n      jump(tag_378)\n    tag_380:\n      dup3\n      dup1\n      add\n      0x01\n      add\n      dup6\n      sstore\n      dup3\n      iszero\n      tag_378\n      jumpi\n      0x00\n      mstore\n      keccak256(0x00, 0x20)\n      swap2\n      0x1f\n      add\n      0x20\n      swap1\n      div\n      dup3\n      add\n    tag_381:\n      dup3\n      dup2\n      gt\n      iszero\n      tag_382\n      jumpi\n      dup3\n      sload\n      dup3\n      sstore\n      swap2\n      0x01\n      add\n      swap2\n      swap1\n      0x01\n      add\n      swap1\n      jump(tag_381)\n    tag_382:\n    tag_378:\n      pop\n      swap1\n      pop\n      tag_383\n      swap2\n      swap1\n      tag_369\n      jump\t// in\n    tag_383:\n      pop\n      swap1\n      jump\t// out\n    tag_369:\n    tag_384:\n      dup1\n      dup3\n      gt\n      iszero\n      tag_385\n      jumpi\n      0x00\n      dup2\n      0x00\n      swap1\n      sstore\n      pop\n      0x01\n      add\n      jump(tag_384)\n    tag_385:\n      pop\n      swap1\n      jump\t// out\n        /* \"#utility.yul\":7:82   */\n    tag_386:\n        /* \"#utility.yul\":40:46   */\n      0x00\n        /* \"#utility.yul\":73:75   */\n      0x40\n        /* \"#utility.yul\":67:76   */\n      mload\n        /* \"#utility.yul\":57:76   */\n      swap1\n      pop\n        /* \"#utility.yul\":7:82   */\n      swap1\n      jump\t// out\n        /* \"#utility.yul\":88:205   */\n    tag_387:\n        /* \"#utility.yul\":197:198   */\n      0x00\n        /* \"#utility.yul\":194:195   */\n      dup1\n        /* \"#utility.yul\":187:199   */\n      revert\n        /* \"#utility.yul\":211:328   */\n    tag_388:\n        /* \"#utility.yul\":320:321   */\n      0x00\n        /* \"#utility.yul\":317:318   */\n      dup1\n        /* \"#utility.yul\":310:322   */\n      revert\n        /* \"#utility.yul\":334:451   */\n    tag_389:\n        /* \"#utility.yul\":443:444   */\n      0x00\n        /* \"#utility.yul\":440:441   */\n      dup1\n        /* \"#utility.yul\":433:445   */\n      revert\n        /* \"#utility.yul\":457:574   */\n    tag_390:\n        /* \"#utility.yul\":566:567   */\n      0x00\n        /* \"#utility.yul\":563:564   */\n      dup1\n        /* \"#utility.yul\":556:568   */\n      revert\n        /* \"#utility.yul\":580:682   */\n    tag_391:\n        /* \"#utility.yul\":621:627   */\n      0x00\n        /* \"#utility.yul\":672:674   */\n      0x1f\n        /* \"#utility.yul\":668:675   */\n      not\n        /* \"#utility.yul\":663:665   */\n      0x1f\n        /* \"#utility.yul\":656:661   */\n      dup4\n        /* \"#utility.yul\":652:666   */\n      add\n        /* \"#utility.yul\":648:676   */\n      and\n        /* \"#utility.yul\":638:676   */\n      swap1\n      pop\n        /* \"#utility.yul\":580:682   */\n      swap2\n      swap1\n      pop\n      jump\t// out\n        /* \"#utility.yul\":688:868   */\n    tag_291:\n        /* \"#utility.yul\":736:813   */\n      0x4e487b7100000000000000000000000000000000000000000000000000000000\n        /* \"#utility.yul\":733:734   */\n      0x00\n        /* \"#utility.yul\":726:814   */\n      mstore\n        /* \"#utility.yul\":833:837   */\n      0x41\n        /* \"#utility.yul\":830:831   */\n      0x04\n        /* \"#utility.yul\":823:838   */\n      mstore\n        /* \"#utility.yul\":857:861   */\n      0x24\n        /* \"#utility.yul\":854:855   */\n      0x00\n        /* \"#utility.yul\":847:862   */\n      revert\n        /* \"#utility.yul\":874:1155   */\n    tag_392:\n        /* \"#utility.yul\":957:984   */\n      tag_469\n        /* \"#utility.yul\":979:983   */\n      dup3\n        /* \"#utility.yul\":957:984   */\n      tag_391\n      jump\t// in\n    tag_469:\n        /* \"#utility.yul\":949:955   */\n      dup2\n        /* \"#utility.yul\":945:985   */\n      add\n        /* \"#utility.yul\":1087:1093   */\n      dup2\n        /* \"#utility.yul\":1075:1085   */\n      dup2\n        /* \"#utility.yul\":1072:1094   */\n      lt\n        /* \"#utility.yul\":1051:1069   */\n      0xffffffffffffffff\n        /* \"#utility.yul\":1039:1049   */\n      dup3\n        /* \"#utility.yul\":1036:1070   */\n      gt\n        /* \"#utility.yul\":1033:1095   */\n      or\n        /* \"#utility.yul\":1030:1118   */\n      iszero\n      tag_470\n      jumpi\n        /* \"#utility.yul\":1098:1116   */\n      tag_471\n      tag_291\n      jump\t// in\n    tag_471:\n        /* \"#utility.yul\":1030:1118   */\n    tag_470:\n        /* \"#utility.yul\":1138:1148   */\n      dup1\n        /* \"#utility.yul\":1134:1136   */\n      0x40\n        /* \"#utility.yul\":1127:1149   */\n      mstore\n        /* \"#utility.yul\":917:1155   */\n      pop\n        /* \"#utility.yul\":874:1155   */\n      pop\n      pop\n      jump\t// out\n        /* \"#utility.yul\":1161:1290   */\n    tag_393:\n        /* \"#utility.yul\":1195:1201   */\n      0x00\n        /* \"#utility.yul\":1222:1242   */\n      tag_473\n      tag_386\n      jump\t// in\n    tag_473:\n        /* \"#utility.yul\":1212:1242   */\n      swap1\n      pop\n        /* \"#utility.yul\":1251:1284   */\n      tag_474\n        /* \"#utility.yul\":1279:1283   */\n      dup3\n        /* \"#utility.yul\":1271:1277   */\n      dup3\n        /* \"#utility.yul\":1251:1284   */\n      tag_392\n      jump\t// in\n    tag_474:\n        /* \"#utility.yul\":1161:1290   */\n      swap2\n      swap1\n      pop\n      jump\t// out\n        /* \"#utility.yul\":1296:1604   */\n    tag_394:\n        /* \"#utility.yul\":1358:1362   */\n      0x00\n        /* \"#utility.yul\":1448:1466   */\n      0xffffffffffffffff\n        /* \"#utility.yul\":1440:1446   */\n      dup3\n        /* \"#utility.yul\":1437:1467   */\n      gt\n        /* \"#utility.yul\":1434:1490   */\n      iszero\n      tag_476\n      jumpi\n        /* \"#utility.yul\":1470:1488   */\n      tag_477\n      tag_291\n      jump\t// in\n    tag_477:\n        /* \"#utility.yul\":1434:1490   */\n    tag_476:\n        /* \"#utility.yul\":1508:1537   */\n      tag_478\n        /* \"#utility.yul\":1530:1536   */\n      dup3\n        /* \"#utility.yul\":1508:1537   */\n      tag_391\n      jump\t// in\n    tag_478:\n        /* \"#utility.yul\":1500:1537   */\n      swap1\n      pop\n        /* \"#utility.yul\":1592:1596   */\n      0x20\n        /* \"#utility.yul\":1586:1590   */\n      dup2\n        /* \"#utility.yul\":1582:1597   */\n      add\n        /* \"#utility.yul\":1574:1597   */\n      swap1\n      pop\n        /* \"#utility.yul\":1296:1604   */\n      swap2\n      swap1\n      pop\n      jump\t// out\n        /* \"#utility.yul\":1610:1764   */\n    tag_395:\n        /* \"#utility.yul\":1694:1700   */\n      dup3\n        /* \"#utility.yul\":1689:1692   */\n      dup2\n        /* \"#utility.yul\":1684:1687   */\n      dup4\n        /* \"#utility.yul\":1671:1701   */\n      calldatacopy\n        /* \"#utility.yul\":1756:1757   */\n      0x00\n        /* \"#utility.yul\":1747:1753   */\n      dup4\n        /* \"#utility.yul\":1742:1745   */\n      dup4\n        /* \"#utility.yul\":1738:1754   */\n      add\n        /* \"#utility.yul\":1731:1758   */\n      mstore\n        /* \"#utility.yul\":1610:1764   */\n      pop\n      pop\n      pop\n      jump\t// out\n        /* \"#utility.yul\":1770:2182   */\n    tag_396:\n        /* \"#utility.yul\":1848:1853   */\n      0x00\n        /* \"#utility.yul\":1873:1939   */\n      tag_481\n        /* \"#utility.yul\":1889:1938   */\n      tag_482\n        /* \"#utility.yul\":1931:1937   */\n      dup5\n        /* \"#utility.yul\":1889:1938   */\n      tag_394\n      jump\t// in\n    tag_482:\n        /* \"#utility.yul\":1873:1939   */\n      tag_393\n      jump\t// in\n    tag_481:\n        /* \"#utility.yul\":1864:1939   */\n      swap1\n      pop\n        /* \"#utility.yul\":1962:1968   */\n      dup3\n        /* \"#utility.yul\":1955:1960   */\n      dup2\n        /* \"#utility.yul\":1948:1969   */\n      mstore\n        /* \"#utility.yul\":2000:2004   */\n      0x20\n        /* \"#utility.yul\":1993:1998   */\n      dup2\n        /* \"#utility.yul\":1989:2005   */\n      add\n        /* \"#utility.yul\":2038:2041   */\n      dup5\n        /* \"#utility.yul\":2029:2035   */\n      dup5\n        /* \"#utility.yul\":2024:2027   */\n      dup5\n        /* \"#utility.yul\":2020:2036   */\n      add\n        /* \"#utility.yul\":2017:2042   */\n      gt\n        /* \"#utility.yul\":2014:2126   */\n      iszero\n      tag_483\n      jumpi\n        /* \"#utility.yul\":2045:2124   */\n      tag_484\n      tag_390\n      jump\t// in\n    tag_484:\n        /* \"#utility.yul\":2014:2126   */\n    tag_483:\n        /* \"#utility.yul\":2135:2176   */\n      tag_485\n        /* \"#utility.yul\":2169:2175   */\n      dup5\n        /* \"#utility.yul\":2164:2167   */\n      dup3\n        /* \"#utility.yul\":2159:2162   */\n      dup6\n        /* \"#utility.yul\":2135:2176   */\n      tag_395\n      jump\t// in\n    tag_485:\n        /* \"#utility.yul\":1854:2182   */\n      pop\n        /* \"#utility.yul\":1770:2182   */\n      swap4\n      swap3\n      pop\n      pop\n      pop\n      jump\t// out\n        /* \"#utility.yul\":2202:2542   */\n    tag_397:\n        /* \"#utility.yul\":2258:2263   */\n      0x00\n        /* \"#utility.yul\":2307:2310   */\n      dup3\n        /* \"#utility.yul\":2300:2304   */\n      0x1f\n        /* \"#utility.yul\":2292:2298   */\n      dup4\n        /* \"#utility.yul\":2288:2305   */\n      add\n        /* \"#utility.yul\":2284:2311   */\n      slt\n        /* \"#utility.yul\":2274:2396   */\n      tag_487\n      jumpi\n        /* \"#utility.yul\":2315:2394   */\n      tag_488\n      tag_389\n      jump\t// in\n    tag_488:\n        /* \"#utility.yul\":2274:2396   */\n    tag_487:\n        /* \"#utility.yul\":2432:2438   */\n      dup2\n        /* \"#utility.yul\":2419:2439   */\n      calldataload\n        /* \"#utility.yul\":2457:2536   */\n      tag_489\n        /* \"#utility.yul\":2532:2535   */\n      dup5\n        /* \"#utility.yul\":2524:2530   */\n      dup3\n        /* \"#utility.yul\":2517:2521   */\n      0x20\n        /* \"#utility.yul\":2509:2515   */\n      dup7\n        /* \"#utility.yul\":2505:2522   */\n      add\n        /* \"#utility.yul\":2457:2536   */\n      tag_396\n      jump\t// in\n    tag_489:\n        /* \"#utility.yul\":2448:2536   */\n      swap2\n      pop\n        /* \"#utility.yul\":2264:2542   */\n      pop\n        /* \"#utility.yul\":2202:2542   */\n      swap3\n      swap2\n      pop\n      pop\n      jump\t// out\n        /* \"#utility.yul\":2548:2674   */\n    tag_398:\n        /* \"#utility.yul\":2585:2592   */\n      0x00\n        /* \"#utility.yul\":2625:2667   */\n      0xffffffffffffffffffffffffffffffffffffffff\n        /* \"#utility.yul\":2618:2623   */\n      dup3\n        /* \"#utility.yul\":2614:2668   */\n      and\n        /* \"#utility.yul\":2603:2668   */\n      swap1\n      pop\n        /* \"#utility.yul\":2548:2674   */\n      swap2\n      swap1\n      pop\n      jump\t// out\n        /* \"#utility.yul\":2680:2776   */\n    tag_399:\n        /* \"#utility.yul\":2717:2724   */\n      0x00\n        /* \"#utility.yul\":2746:2770   */\n      tag_492\n        /* \"#utility.yul\":2764:2769   */\n      dup3\n        /* \"#utility.yul\":2746:2770   */\n      tag_398\n      jump\t// in\n    tag_492:\n        /* \"#utility.yul\":2735:2770   */\n      swap1\n      pop\n        /* \"#utility.yul\":2680:2776   */\n      swap2\n      swap1\n      pop\n      jump\t// out\n        /* \"#utility.yul\":2782:2904   */\n    tag_400:\n        /* \"#utility.yul\":2855:2879   */\n      tag_494\n        /* \"#utility.yul\":2873:2878   */\n      dup2\n        /* \"#utility.yul\":2855:2879   */\n      tag_399\n      jump\t// in\n    tag_494:\n        /* \"#utility.yul\":2848:2853   */\n      dup2\n        /* \"#utility.yul\":2845:2880   */\n      eq\n        /* \"#utility.yul\":2835:2898   */\n      tag_495\n      jumpi\n        /* \"#utility.yul\":2894:2895   */\n      0x00\n        /* \"#utility.yul\":2891:2892   */\n      dup1\n        /* \"#utility.yul\":2884:2896   */\n      revert\n        /* \"#utility.yul\":2835:2898   */\n    tag_495:\n        /* \"#utility.yul\":2782:2904   */\n      pop\n      jump\t// out\n        /* \"#utility.yul\":2910:3049   */\n    tag_401:\n        /* \"#utility.yul\":2956:2961   */\n      0x00\n        /* \"#utility.yul\":2994:3000   */\n      dup2\n        /* \"#utility.yul\":2981:3001   */\n      calldataload\n        /* \"#utility.yul\":2972:3001   */\n      swap1\n      pop\n        /* \"#utility.yul\":3010:3043   */\n      tag_497\n        /* \"#utility.yul\":3037:3042   */\n      dup2\n        /* \"#utility.yul\":3010:3043   */\n      tag_400\n      jump\t// in\n    tag_497:\n        /* \"#utility.yul\":2910:3049   */\n      swap3\n      swap2\n      pop\n      pop\n      jump\t// out\n        /* \"#utility.yul\":3055:3709   */\n    tag_13:\n        /* \"#utility.yul\":3133:3139   */\n      0x00\n        /* \"#utility.yul\":3141:3147   */\n      dup1\n        /* \"#utility.yul\":3190:3192   */\n      0x40\n        /* \"#utility.yul\":3178:3187   */\n      dup4\n        /* \"#utility.yul\":3169:3176   */\n      dup6\n        /* \"#utility.yul\":3165:3188   */\n      sub\n        /* \"#utility.yul\":3161:3193   */\n      slt\n        /* \"#utility.yul\":3158:3277   */\n      iszero\n      tag_499\n      jumpi\n        /* \"#utility.yul\":3196:3275   */\n      tag_500\n      tag_387\n      jump\t// in\n    tag_500:\n        /* \"#utility.yul\":3158:3277   */\n    tag_499:\n        /* \"#utility.yul\":3344:3345   */\n      0x00\n        /* \"#utility.yul\":3333:3342   */\n      dup4\n        /* \"#utility.yul\":3329:3346   */\n      add\n        /* \"#utility.yul\":3316:3347   */\n      calldataload\n        /* \"#utility.yul\":3374:3392   */\n      0xffffffffffffffff\n        /* \"#utility.yul\":3366:3372   */\n      dup2\n        /* \"#utility.yul\":3363:3393   */\n      gt\n        /* \"#utility.yul\":3360:3477   */\n      iszero\n      tag_501\n      jumpi\n        /* \"#utility.yul\":3396:3475   */\n      tag_502\n      tag_388\n      jump\t// in\n    tag_502:\n        /* \"#utility.yul\":3360:3477   */\n    tag_501:\n        /* \"#utility.yul\":3501:3564   */\n      tag_503\n        /* \"#utility.yul\":3556:3563   */\n      dup6\n        /* \"#utility.yul\":3547:3553   */\n      dup3\n        /* \"#utility.yul\":3536:3545   */\n      dup7\n        /* \"#utility.yul\":3532:3554   */\n      add\n        /* \"#utility.yul\":3501:3564   */\n      tag_397\n      jump\t// in\n    tag_503:\n        /* \"#utility.yul\":3491:3564   */\n      swap3\n      pop\n        /* \"#utility.yul\":3287:3574   */\n      pop\n        /* \"#utility.yul\":3613:3615   */\n      0x20\n        /* \"#utility.yul\":3639:3692   */\n      tag_504\n        /* \"#utility.yul\":3684:3691   */\n      dup6\n        /* \"#utility.yul\":3675:3681   */\n      dup3\n        /* \"#utility.yul\":3664:3673   */\n      dup7\n        /* \"#utility.yul\":3660:3682   */\n      add\n        /* \"#utility.yul\":3639:3692   */\n      tag_401\n      jump\t// in\n    tag_504:\n        /* \"#utility.yul\":3629:3692   */\n      swap2\n      pop\n        /* \"#utility.yul\":3584:3702   */\n      pop\n        /* \"#utility.yul\":3055:3709   */\n      swap3\n      pop\n      swap3\n      swap1\n      pop\n      jump\t// out\n        /* \"#utility.yul\":3715:3805   */\n    tag_402:\n        /* \"#utility.yul\":3749:3756   */\n      0x00\n        /* \"#utility.yul\":3792:3797   */\n      dup2\n        /* \"#utility.yul\":3785:3798   */\n      iszero\n        /* \"#utility.yul\":3778:3799   */\n      iszero\n        /* \"#utility.yul\":3767:3799   */\n      swap1\n      pop\n        /* \"#utility.yul\":3715:3805   */\n      swap2\n      swap1\n      pop\n      jump\t// out\n        /* \"#utility.yul\":3811:3920   */\n    tag_403:\n        /* \"#utility.yul\":3892:3913   */\n      tag_507\n        /* \"#utility.yul\":3907:3912   */\n      dup2\n        /* \"#utility.yul\":3892:3913   */\n      tag_402\n      jump\t// in\n    tag_507:\n        /* \"#utility.yul\":3887:3890   */\n      dup3\n        /* \"#utility.yul\":3880:3914   */\n      mstore\n        /* \"#utility.yul\":3811:3920   */\n      pop\n      pop\n      jump\t// out\n        /* \"#utility.yul\":3926:4136   */\n    tag_16:\n        /* \"#utility.yul\":4013:4017   */\n      0x00\n        /* \"#utility.yul\":4051:4053   */\n      0x20\n        /* \"#utility.yul\":4040:4049   */\n      dup3\n        /* \"#utility.yul\":4036:4054   */\n      add\n        /* \"#utility.yul\":4028:4054   */\n      swap1\n      pop\n        /* \"#utility.yul\":4064:4129   */\n      tag_509\n        /* \"#utility.yul\":4126:4127   */\n      0x00\n        /* \"#utility.yul\":4115:4124   */\n      dup4\n        /* \"#utility.yul\":4111:4128   */\n      add\n        /* \"#utility.yul\":4102:4108   */\n      dup5\n        /* \"#utility.yul\":4064:4129   */\n      tag_403\n      jump\t// in\n    tag_509:\n        /* \"#utility.yul\":3926:4136   */\n      swap3\n      swap2\n      pop\n      pop\n      jump\t// out\n        /* \"#utility.yul\":4142:4260   */\n    tag_404:\n        /* \"#utility.yul\":4229:4253   */\n      tag_511\n        /* \"#utility.yul\":4247:4252   */\n      dup2\n        /* \"#utility.yul\":4229:4253   */\n      tag_399\n      jump\t// in\n    tag_511:\n        /* \"#utility.yul\":4224:4227   */\n      dup3\n        /* \"#utility.yul\":4217:4254   */\n      mstore\n        /* \"#utility.yul\":4142:4260   */\n      pop\n      pop\n      jump\t// out\n        /* \"#utility.yul\":4266:4488   */\n    tag_20:\n        /* \"#utility.yul\":4359:4363   */\n      0x00\n        /* \"#utility.yul\":4397:4399   */\n      0x20\n        /* \"#utility.yul\":4386:4395   */\n      dup3\n        /* \"#utility.yul\":4382:4400   */\n      add\n        /* \"#utility.yul\":4374:4400   */\n      swap1\n      pop\n        /* \"#utility.yul\":4410:4481   */\n      tag_513\n        /* \"#utility.yul\":4478:4479   */\n      0x00\n        /* \"#utility.yul\":4467:4476   */\n      dup4\n        /* \"#utility.yul\":4463:4480   */\n      add\n        /* \"#utility.yul\":4454:4460   */\n      dup5\n        /* \"#utility.yul\":4410:4481   */\n      tag_404\n      jump\t// in\n    tag_513:\n        /* \"#utility.yul\":4266:4488   */\n      swap3\n      swap2\n      pop\n      pop\n      jump\t// out\n        /* \"#utility.yul\":4494:4587   */\n    tag_405:\n        /* \"#utility.yul\":4530:4537   */\n      0x00\n        /* \"#utility.yul\":4570:4580   */\n      0xffffffff\n        /* \"#utility.yul\":4563:4568   */\n      dup3\n        /* \"#utility.yul\":4559:4581   */\n      and\n        /* \"#utility.yul\":4548:4581   */\n      swap1\n      pop\n        /* \"#utility.yul\":4494:4587   */\n      swap2\n      swap1\n      pop\n      jump\t// out\n        /* \"#utility.yul\":4593:4713   */\n    tag_406:\n        /* \"#utility.yul\":4665:4688   */\n      tag_516\n        /* \"#utility.yul\":4682:4687   */\n      dup2\n        /* \"#utility.yul\":4665:4688   */\n      tag_405\n      jump\t// in\n    tag_516:\n        /* \"#utility.yul\":4658:4663   */\n      dup2\n        /* \"#utility.yul\":4655:4689   */\n      eq\n        /* \"#utility.yul\":4645:4707   */\n      tag_517\n      jumpi\n        /* \"#utility.yul\":4703:4704   */\n      0x00\n        /* \"#utility.yul\":4700:4701   */\n      dup1\n        /* \"#utility.yul\":4693:4705   */\n      revert\n        /* \"#utility.yul\":4645:4707   */\n    tag_517:\n        /* \"#utility.yul\":4593:4713   */\n      pop\n      jump\t// out\n        /* \"#utility.yul\":4719:4856   */\n    tag_407:\n        /* \"#utility.yul\":4764:4769   */\n      0x00\n        /* \"#utility.yul\":4802:4808   */\n      dup2\n        /* \"#utility.yul\":4789:4809   */\n      calldataload\n        /* \"#utility.yul\":4780:4809   */\n      swap1\n      pop\n        /* \"#utility.yul\":4818:4850   */\n      tag_519\n        /* \"#utility.yul\":4844:4849   */\n      dup2\n        /* \"#utility.yul\":4818:4850   */\n      tag_406\n      jump\t// in\n    tag_519:\n        /* \"#utility.yul\":4719:4856   */\n      swap3\n      swap2\n      pop\n      pop\n      jump\t// out\n        /* \"#utility.yul\":4862:5189   */\n    tag_29:\n        /* \"#utility.yul\":4920:4926   */\n      0x00\n        /* \"#utility.yul\":4969:4971   */\n      0x20\n        /* \"#utility.yul\":4957:4966   */\n      dup3\n        /* \"#utility.yul\":4948:4955   */\n      dup5\n        /* \"#utility.yul\":4944:4967   */\n      sub\n        /* \"#utility.yul\":4940:4972   */\n      slt\n        /* \"#utility.yul\":4937:5056   */\n      iszero\n      tag_521\n      jumpi\n        /* \"#utility.yul\":4975:5054   */\n      tag_522\n      tag_387\n      jump\t// in\n    tag_522:\n        /* \"#utility.yul\":4937:5056   */\n    tag_521:\n        /* \"#utility.yul\":5095:5096   */\n      0x00\n        /* \"#utility.yul\":5120:5172   */\n      tag_523\n        /* \"#utility.yul\":5164:5171   */\n      dup5\n        /* \"#utility.yul\":5155:5161   */\n      dup3\n        /* \"#utility.yul\":5144:5153   */\n      dup6\n        /* \"#utility.yul\":5140:5162   */\n      add\n        /* \"#utility.yul\":5120:5172   */\n      tag_407\n      jump\t// in\n    tag_523:\n        /* \"#utility.yul\":5110:5172   */\n      swap2\n      pop\n        /* \"#utility.yul\":5066:5182   */\n      pop\n        /* \"#utility.yul\":4862:5189   */\n      swap3\n      swap2\n      pop\n      pop\n      jump\t// out\n        /* \"#utility.yul\":5195:5505   */\n    tag_408:\n        /* \"#utility.yul\":5271:5275   */\n      0x00\n        /* \"#utility.yul\":5361:5379   */\n      0xffffffffffffffff\n        /* \"#utility.yul\":5353:5359   */\n      dup3\n        /* \"#utility.yul\":5350:5380   */\n      gt\n        /* \"#utility.yul\":5347:5403   */\n      iszero\n      tag_525\n      jumpi\n        /* \"#utility.yul\":5383:5401   */\n      tag_526\n      tag_291\n      jump\t// in\n    tag_526:\n        /* \"#utility.yul\":5347:5403   */\n    tag_525:\n        /* \"#utility.yul\":5433:5437   */\n      0x20\n        /* \"#utility.yul\":5425:5431   */\n      dup3\n        /* \"#utility.yul\":5421:5438   */\n      mul\n        /* \"#utility.yul\":5413:5438   */\n      swap1\n      pop\n        /* \"#utility.yul\":5493:5497   */\n      0x20\n        /* \"#utility.yul\":5487:5491   */\n      dup2\n        /* \"#utility.yul\":5483:5498   */\n      add\n        /* \"#utility.yul\":5475:5498   */\n      swap1\n      pop\n        /* \"#utility.yul\":5195:5505   */\n      swap2\n      swap1\n      pop\n      jump\t// out\n        /* \"#utility.yul\":5511:5628   */\n    tag_409:\n        /* \"#utility.yul\":5620:5621   */\n      0x00\n        /* \"#utility.yul\":5617:5618   */\n      dup1\n        /* \"#utility.yul\":5610:5622   */\n      revert\n        /* \"#utility.yul\":5634:5710   */\n    tag_410:\n        /* \"#utility.yul\":5670:5677   */\n      0x00\n        /* \"#utility.yul\":5699:5704   */\n      dup2\n        /* \"#utility.yul\":5688:5704   */\n      swap1\n      pop\n        /* \"#utility.yul\":5634:5710   */\n      swap2\n      swap1\n      pop\n      jump\t// out\n        /* \"#utility.yul\":5716:5836   */\n    tag_411:\n        /* \"#utility.yul\":5788:5811   */\n      tag_530\n        /* \"#utility.yul\":5805:5810   */\n      dup2\n        /* \"#utility.yul\":5788:5811   */\n      tag_410\n      jump\t// in\n    tag_530:\n        /* \"#utility.yul\":5781:5786   */\n      dup2\n        /* \"#utility.yul\":5778:5812   */\n      eq\n        /* \"#utility.yul\":5768:5830   */\n      tag_531\n      jumpi\n        /* \"#utility.yul\":5826:5827   */\n      0x00\n        /* \"#utility.yul\":5823:5824   */\n      dup1\n        /* \"#utility.yul\":5816:5828   */\n      revert\n        /* \"#utility.yul\":5768:5830   */\n    tag_531:\n        /* \"#utility.yul\":5716:5836   */\n      pop\n      jump\t// out\n        /* \"#utility.yul\":5842:5979   */\n    tag_412:\n        /* \"#utility.yul\":5887:5892   */\n      0x00\n        /* \"#utility.yul\":5925:5931   */\n      dup2\n        /* \"#utility.yul\":5912:5932   */\n      calldataload\n        /* \"#utility.yul\":5903:5932   */\n      swap1\n      pop\n        /* \"#utility.yul\":5941:5973   */\n      tag_533\n        /* \"#utility.yul\":5967:5972   */\n      dup2\n        /* \"#utility.yul\":5941:5973   */\n      tag_411\n      jump\t// in\n    tag_533:\n        /* \"#utility.yul\":5842:5979   */\n      swap3\n      swap2\n      pop\n      pop\n      jump\t// out\n        /* \"#utility.yul\":6001:6708   */\n    tag_413:\n        /* \"#utility.yul\":6096:6101   */\n      0x00\n        /* \"#utility.yul\":6121:6201   */\n      tag_535\n        /* \"#utility.yul\":6137:6200   */\n      tag_536\n        /* \"#utility.yul\":6193:6199   */\n      dup5\n        /* \"#utility.yul\":6137:6200   */\n      tag_408\n      jump\t// in\n    tag_536:\n        /* \"#utility.yul\":6121:6201   */\n      tag_393\n      jump\t// in\n    tag_535:\n        /* \"#utility.yul\":6112:6201   */\n      swap1\n      pop\n        /* \"#utility.yul\":6221:6226   */\n      dup1\n        /* \"#utility.yul\":6250:6256   */\n      dup4\n        /* \"#utility.yul\":6243:6248   */\n      dup3\n        /* \"#utility.yul\":6236:6257   */\n      mstore\n        /* \"#utility.yul\":6284:6288   */\n      0x20\n        /* \"#utility.yul\":6277:6282   */\n      dup3\n        /* \"#utility.yul\":6273:6289   */\n      add\n        /* \"#utility.yul\":6266:6289   */\n      swap1\n      pop\n        /* \"#utility.yul\":6337:6341   */\n      0x20\n        /* \"#utility.yul\":6329:6335   */\n      dup5\n        /* \"#utility.yul\":6325:6342   */\n      mul\n        /* \"#utility.yul\":6317:6323   */\n      dup4\n        /* \"#utility.yul\":6313:6343   */\n      add\n        /* \"#utility.yul\":6366:6369   */\n      dup6\n        /* \"#utility.yul\":6358:6364   */\n      dup2\n        /* \"#utility.yul\":6355:6370   */\n      gt\n        /* \"#utility.yul\":6352:6474   */\n      iszero\n      tag_537\n      jumpi\n        /* \"#utility.yul\":6385:6464   */\n      tag_538\n      tag_409\n      jump\t// in\n    tag_538:\n        /* \"#utility.yul\":6352:6474   */\n    tag_537:\n        /* \"#utility.yul\":6500:6506   */\n      dup4\n        /* \"#utility.yul\":6483:6702   */\n    tag_539:\n        /* \"#utility.yul\":6517:6523   */\n      dup2\n        /* \"#utility.yul\":6512:6515   */\n      dup2\n        /* \"#utility.yul\":6509:6524   */\n      lt\n        /* \"#utility.yul\":6483:6702   */\n      iszero\n      tag_541\n      jumpi\n        /* \"#utility.yul\":6592:6595   */\n      dup1\n        /* \"#utility.yul\":6621:6657   */\n      tag_542\n        /* \"#utility.yul\":6653:6656   */\n      dup9\n        /* \"#utility.yul\":6641:6651   */\n      dup3\n        /* \"#utility.yul\":6621:6657   */\n      tag_412\n      jump\t// in\n    tag_542:\n        /* \"#utility.yul\":6616:6619   */\n      dup5\n        /* \"#utility.yul\":6609:6658   */\n      mstore\n        /* \"#utility.yul\":6687:6691   */\n      0x20\n        /* \"#utility.yul\":6682:6685   */\n      dup5\n        /* \"#utility.yul\":6678:6692   */\n      add\n        /* \"#utility.yul\":6671:6692   */\n      swap4\n      pop\n        /* \"#utility.yul\":6559:6702   */\n      pop\n        /* \"#utility.yul\":6543:6547   */\n      0x20\n        /* \"#utility.yul\":6538:6541   */\n      dup2\n        /* \"#utility.yul\":6534:6548   */\n      add\n        /* \"#utility.yul\":6527:6548   */\n      swap1\n      pop\n        /* \"#utility.yul\":6483:6702   */\n      jump(tag_539)\n    tag_541:\n        /* \"#utility.yul\":6487:6508   */\n      pop\n        /* \"#utility.yul\":6102:6708   */\n      pop\n      pop\n        /* \"#utility.yul\":6001:6708   */\n      swap4\n      swap3\n      pop\n      pop\n      pop\n      jump\t// out\n        /* \"#utility.yul\":6730:7098   */\n    tag_414:\n        /* \"#utility.yul\":6800:6805   */\n      0x00\n        /* \"#utility.yul\":6849:6852   */\n      dup3\n        /* \"#utility.yul\":6842:6846   */\n      0x1f\n        /* \"#utility.yul\":6834:6840   */\n      dup4\n        /* \"#utility.yul\":6830:6847   */\n      add\n        /* \"#utility.yul\":6826:6853   */\n      slt\n        /* \"#utility.yul\":6816:6938   */\n      tag_544\n      jumpi\n        /* \"#utility.yul\":6857:6936   */\n      tag_545\n      tag_389\n      jump\t// in\n    tag_545:\n        /* \"#utility.yul\":6816:6938   */\n    tag_544:\n        /* \"#utility.yul\":6974:6980   */\n      dup2\n        /* \"#utility.yul\":6961:6981   */\n      calldataload\n        /* \"#utility.yul\":6999:7092   */\n      tag_546\n        /* \"#utility.yul\":7088:7091   */\n      dup5\n        /* \"#utility.yul\":7080:7086   */\n      dup3\n        /* \"#utility.yul\":7073:7077   */\n      0x20\n        /* \"#utility.yul\":7065:7071   */\n      dup7\n        /* \"#utility.yul\":7061:7078   */\n      add\n        /* \"#utility.yul\":6999:7092   */\n      tag_413\n      jump\t// in\n    tag_546:\n        /* \"#utility.yul\":6990:7092   */\n      swap2\n      pop\n        /* \"#utility.yul\":6806:7098   */\n      pop\n        /* \"#utility.yul\":6730:7098   */\n      swap3\n      swap2\n      pop\n      pop\n      jump\t// out\n        /* \"#utility.yul\":7104:7415   */\n    tag_415:\n        /* \"#utility.yul\":7181:7185   */\n      0x00\n        /* \"#utility.yul\":7271:7289   */\n      0xffffffffffffffff\n        /* \"#utility.yul\":7263:7269   */\n      dup3\n        /* \"#utility.yul\":7260:7290   */\n      gt\n        /* \"#utility.yul\":7257:7313   */\n      iszero\n      tag_548\n      jumpi\n        /* \"#utility.yul\":7293:7311   */\n      tag_549\n      tag_291\n      jump\t// in\n    tag_549:\n        /* \"#utility.yul\":7257:7313   */\n    tag_548:\n        /* \"#utility.yul\":7343:7347   */\n      0x20\n        /* \"#utility.yul\":7335:7341   */\n      dup3\n        /* \"#utility.yul\":7331:7348   */\n      mul\n        /* \"#utility.yul\":7323:7348   */\n      swap1\n      pop\n        /* \"#utility.yul\":7403:7407   */\n      0x20\n        /* \"#utility.yul\":7397:7401   */\n      dup2\n        /* \"#utility.yul\":7393:7408   */\n      add\n        /* \"#utility.yul\":7385:7408   */\n      swap1\n      pop\n        /* \"#utility.yul\":7104:7415   */\n      swap2\n      swap1\n      pop\n      jump\t// out\n        /* \"#utility.yul\":7421:7498   */\n    tag_416:\n        /* \"#utility.yul\":7458:7465   */\n      0x00\n        /* \"#utility.yul\":7487:7492   */\n      dup2\n        /* \"#utility.yul\":7476:7492   */\n      swap1\n      pop\n        /* \"#utility.yul\":7421:7498   */\n      swap2\n      swap1\n      pop\n      jump\t// out\n        /* \"#utility.yul\":7504:7626   */\n    tag_417:\n        /* \"#utility.yul\":7577:7601   */\n      tag_552\n        /* \"#utility.yul\":7595:7600   */\n      dup2\n        /* \"#utility.yul\":7577:7601   */\n      tag_416\n      jump\t// in\n    tag_552:\n        /* \"#utility.yul\":7570:7575   */\n      dup2\n        /* \"#utility.yul\":7567:7602   */\n      eq\n        /* \"#utility.yul\":7557:7620   */\n      tag_553\n      jumpi\n        /* \"#utility.yul\":7616:7617   */\n      0x00\n        /* \"#utility.yul\":7613:7614   */\n      dup1\n        /* \"#utility.yul\":7606:7618   */\n      revert\n        /* \"#utility.yul\":7557:7620   */\n    tag_553:\n        /* \"#utility.yul\":7504:7626   */\n      pop\n      jump\t// out\n        /* \"#utility.yul\":7632:7771   */\n    tag_418:\n        /* \"#utility.yul\":7678:7683   */\n      0x00\n        /* \"#utility.yul\":7716:7722   */\n      dup2\n        /* \"#utility.yul\":7703:7723   */\n      calldataload\n        /* \"#utility.yul\":7694:7723   */\n      swap1\n      pop\n        /* \"#utility.yul\":7732:7765   */\n      tag_555\n        /* \"#utility.yul\":7759:7764   */\n      dup2\n        /* \"#utility.yul\":7732:7765   */\n      tag_417\n      jump\t// in\n    tag_555:\n        /* \"#utility.yul\":7632:7771   */\n      swap3\n      swap2\n      pop\n      pop\n      jump\t// out\n        /* \"#utility.yul\":7794:8504   */\n    tag_419:\n        /* \"#utility.yul\":7890:7895   */\n      0x00\n        /* \"#utility.yul\":7915:7996   */\n      tag_557\n        /* \"#utility.yul\":7931:7995   */\n      tag_558\n        /* \"#utility.yul\":7988:7994   */\n      dup5\n        /* \"#utility.yul\":7931:7995   */\n      tag_415\n      jump\t// in\n    tag_558:\n        /* \"#utility.yul\":7915:7996   */\n      tag_393\n      jump\t// in\n    tag_557:\n        /* \"#utility.yul\":7906:7996   */\n      swap1\n      pop\n        /* \"#utility.yul\":8016:8021   */\n      dup1\n        /* \"#utility.yul\":8045:8051   */\n      dup4\n        /* \"#utility.yul\":8038:8043   */\n      dup3\n        /* \"#utility.yul\":8031:8052   */\n      mstore\n        /* \"#utility.yul\":8079:8083   */\n      0x20\n        /* \"#utility.yul\":8072:8077   */\n      dup3\n        /* \"#utility.yul\":8068:8084   */\n      add\n        /* \"#utility.yul\":8061:8084   */\n      swap1\n      pop\n        /* \"#utility.yul\":8132:8136   */\n      0x20\n        /* \"#utility.yul\":8124:8130   */\n      dup5\n        /* \"#utility.yul\":8120:8137   */\n      mul\n        /* \"#utility.yul\":8112:8118   */\n      dup4\n        /* \"#utility.yul\":8108:8138   */\n      add\n        /* \"#utility.yul\":8161:8164   */\n      dup6\n        /* \"#utility.yul\":8153:8159   */\n      dup2\n        /* \"#utility.yul\":8150:8165   */\n      gt\n        /* \"#utility.yul\":8147:8269   */\n      iszero\n      tag_559\n      jumpi\n        /* \"#utility.yul\":8180:8259   */\n      tag_560\n      tag_409\n      jump\t// in\n    tag_560:\n        /* \"#utility.yul\":8147:8269   */\n    tag_559:\n        /* \"#utility.yul\":8295:8301   */\n      dup4\n        /* \"#utility.yul\":8278:8498   */\n    tag_561:\n        /* \"#utility.yul\":8312:8318   */\n      dup2\n        /* \"#utility.yul\":8307:8310   */\n      dup2\n        /* \"#utility.yul\":8304:8319   */\n      lt\n        /* \"#utility.yul\":8278:8498   */\n      iszero\n      tag_563\n      jumpi\n        /* \"#utility.yul\":8387:8390   */\n      dup1\n        /* \"#utility.yul\":8416:8453   */\n      tag_564\n        /* \"#utility.yul\":8449:8452   */\n      dup9\n        /* \"#utility.yul\":8437:8447   */\n      dup3\n        /* \"#utility.yul\":8416:8453   */\n      tag_418\n      jump\t// in\n    tag_564:\n        /* \"#utility.yul\":8411:8414   */\n      dup5\n        /* \"#utility.yul\":8404:8454   */\n      mstore\n        /* \"#utility.yul\":8483:8487   */\n      0x20\n        /* \"#utility.yul\":8478:8481   */\n      dup5\n        /* \"#utility.yul\":8474:8488   */\n      add\n        /* \"#utility.yul\":8467:8488   */\n      swap4\n      pop\n        /* \"#utility.yul\":8354:8498   */\n      pop\n        /* \"#utility.yul\":8338:8342   */\n      0x20\n        /* \"#utility.yul\":8333:8336   */\n      dup2\n        /* \"#utility.yul\":8329:8343   */\n      add\n        /* \"#utility.yul\":8322:8343   */\n      swap1\n      pop\n        /* \"#utility.yul\":8278:8498   */\n      jump(tag_561)\n    tag_563:\n        /* \"#utility.yul\":8282:8303   */\n      pop\n        /* \"#utility.yul\":7896:8504   */\n      pop\n      pop\n        /* \"#utility.yul\":7794:8504   */\n      swap4\n      swap3\n      pop\n      pop\n      pop\n      jump\t// out\n        /* \"#utility.yul\":8527:8897   */\n    tag_420:\n        /* \"#utility.yul\":8598:8603   */\n      0x00\n        /* \"#utility.yul\":8647:8650   */\n      dup3\n        /* \"#utility.yul\":8640:8644   */\n      0x1f\n        /* \"#utility.yul\":8632:8638   */\n      dup4\n        /* \"#utility.yul\":8628:8645   */\n      add\n        /* \"#utility.yul\":8624:8651   */\n      slt\n        /* \"#utility.yul\":8614:8736   */\n      tag_566\n      jumpi\n        /* \"#utility.yul\":8655:8734   */\n      tag_567\n      tag_389\n      jump\t// in\n    tag_567:\n        /* \"#utility.yul\":8614:8736   */\n    tag_566:\n        /* \"#utility.yul\":8772:8778   */\n      dup2\n        /* \"#utility.yul\":8759:8779   */\n      calldataload\n        /* \"#utility.yul\":8797:8891   */\n      tag_568\n        /* \"#utility.yul\":8887:8890   */\n      dup5\n        /* \"#utility.yul\":8879:8885   */\n      dup3\n        /* \"#utility.yul\":8872:8876   */\n      0x20\n        /* \"#utility.yul\":8864:8870   */\n      dup7\n        /* \"#utility.yul\":8860:8877   */\n      add\n        /* \"#utility.yul\":8797:8891   */\n      tag_419\n      jump\t// in\n    tag_568:\n        /* \"#utility.yul\":8788:8891   */\n      swap2\n      pop\n        /* \"#utility.yul\":8604:8897   */\n      pop\n        /* \"#utility.yul\":8527:8897   */\n      swap3\n      swap2\n      pop\n      pop\n      jump\t// out\n        /* \"#utility.yul\":8903:9938   */\n    tag_34:\n        /* \"#utility.yul\":9028:9034   */\n      0x00\n        /* \"#utility.yul\":9036:9042   */\n      dup1\n        /* \"#utility.yul\":9044:9050   */\n      0x00\n        /* \"#utility.yul\":9093:9095   */\n      0x60\n        /* \"#utility.yul\":9081:9090   */\n      dup5\n        /* \"#utility.yul\":9072:9079   */\n      dup7\n        /* \"#utility.yul\":9068:9091   */\n      sub\n        /* \"#utility.yul\":9064:9096   */\n      slt\n        /* \"#utility.yul\":9061:9180   */\n      iszero\n      tag_570\n      jumpi\n        /* \"#utility.yul\":9099:9178   */\n      tag_571\n      tag_387\n      jump\t// in\n    tag_571:\n        /* \"#utility.yul\":9061:9180   */\n    tag_570:\n        /* \"#utility.yul\":9219:9220   */\n      0x00\n        /* \"#utility.yul\":9244:9296   */\n      tag_572\n        /* \"#utility.yul\":9288:9295   */\n      dup7\n        /* \"#utility.yul\":9279:9285   */\n      dup3\n        /* \"#utility.yul\":9268:9277   */\n      dup8\n        /* \"#utility.yul\":9264:9286   */\n      add\n        /* \"#utility.yul\":9244:9296   */\n      tag_407\n      jump\t// in\n    tag_572:\n        /* \"#utility.yul\":9234:9296   */\n      swap4\n      pop\n        /* \"#utility.yul\":9190:9306   */\n      pop\n        /* \"#utility.yul\":9373:9375   */\n      0x20\n        /* \"#utility.yul\":9362:9371   */\n      dup5\n        /* \"#utility.yul\":9358:9376   */\n      add\n        /* \"#utility.yul\":9345:9377   */\n      calldataload\n        /* \"#utility.yul\":9404:9422   */\n      0xffffffffffffffff\n        /* \"#utility.yul\":9396:9402   */\n      dup2\n        /* \"#utility.yul\":9393:9423   */\n      gt\n        /* \"#utility.yul\":9390:9507   */\n      iszero\n      tag_573\n      jumpi\n        /* \"#utility.yul\":9426:9505   */\n      tag_574\n      tag_388\n      jump\t// in\n    tag_574:\n        /* \"#utility.yul\":9390:9507   */\n    tag_573:\n        /* \"#utility.yul\":9531:9608   */\n      tag_575\n        /* \"#utility.yul\":9600:9607   */\n      dup7\n        /* \"#utility.yul\":9591:9597   */\n      dup3\n        /* \"#utility.yul\":9580:9589   */\n      dup8\n        /* \"#utility.yul\":9576:9598   */\n      add\n        /* \"#utility.yul\":9531:9608   */\n      tag_414\n      jump\t// in\n    tag_575:\n        /* \"#utility.yul\":9521:9608   */\n      swap3\n      pop\n        /* \"#utility.yul\":9316:9618   */\n      pop\n        /* \"#utility.yul\":9685:9687   */\n      0x40\n        /* \"#utility.yul\":9674:9683   */\n      dup5\n        /* \"#utility.yul\":9670:9688   */\n      add\n        /* \"#utility.yul\":9657:9689   */\n      calldataload\n        /* \"#utility.yul\":9716:9734   */\n      0xffffffffffffffff\n        /* \"#utility.yul\":9708:9714   */\n      dup2\n        /* \"#utility.yul\":9705:9735   */\n      gt\n        /* \"#utility.yul\":9702:9819   */\n      iszero\n      tag_576\n      jumpi\n        /* \"#utility.yul\":9738:9817   */\n      tag_577\n      tag_388\n      jump\t// in\n    tag_577:\n        /* \"#utility.yul\":9702:9819   */\n    tag_576:\n        /* \"#utility.yul\":9843:9921   */\n      tag_578\n        /* \"#utility.yul\":9913:9920   */\n      dup7\n        /* \"#utility.yul\":9904:9910   */\n      dup3\n        /* \"#utility.yul\":9893:9902   */\n      dup8\n        /* \"#utility.yul\":9889:9911   */\n      add\n        /* \"#utility.yul\":9843:9921   */\n      tag_420\n      jump\t// in\n    tag_578:\n        /* \"#utility.yul\":9833:9921   */\n      swap2\n      pop\n        /* \"#utility.yul\":9628:9931   */\n      pop\n        /* \"#utility.yul\":8903:9938   */\n      swap3\n      pop\n      swap3\n      pop\n      swap3\n      jump\t// out\n        /* \"#utility.yul\":9944:10273   */\n    tag_39:\n        /* \"#utility.yul\":10003:10009   */\n      0x00\n        /* \"#utility.yul\":10052:10054   */\n      0x20\n        /* \"#utility.yul\":10040:10049   */\n      dup3\n        /* \"#utility.yul\":10031:10038   */\n      dup5\n        /* \"#utility.yul\":10027:10050   */\n      sub\n        /* \"#utility.yul\":10023:10055   */\n      slt\n        /* \"#utility.yul\":10020:10139   */\n      iszero\n      tag_580\n      jumpi\n        /* \"#utility.yul\":10058:10137   */\n      tag_581\n      tag_387\n      jump\t// in\n    tag_581:\n        /* \"#utility.yul\":10020:10139   */\n    tag_580:\n        /* \"#utility.yul\":10178:10179   */\n      0x00\n        /* \"#utility.yul\":10203:10256   */\n      tag_582\n        /* \"#utility.yul\":10248:10255   */\n      dup5\n        /* \"#utility.yul\":10239:10245   */\n      dup3\n        /* \"#utility.yul\":10228:10237   */\n      dup6\n        /* \"#utility.yul\":10224:10246   */\n      add\n        /* \"#utility.yul\":10203:10256   */\n      tag_401\n      jump\t// in\n    tag_582:\n        /* \"#utility.yul\":10193:10256   */\n      swap2\n      pop\n        /* \"#utility.yul\":10149:10266   */\n      pop\n        /* \"#utility.yul\":9944:10273   */\n      swap3\n      swap2\n      pop\n      pop\n      jump\t// out\n        /* \"#utility.yul\":10279:10378   */\n    tag_421:\n        /* \"#utility.yul\":10331:10337   */\n      0x00\n        /* \"#utility.yul\":10365:10370   */\n      dup2\n        /* \"#utility.yul\":10359:10371   */\n      mload\n        /* \"#utility.yul\":10349:10371   */\n      swap1\n      pop\n        /* \"#utility.yul\":10279:10378   */\n      swap2\n      swap1\n      pop\n      jump\t// out\n        /* \"#utility.yul\":10384:10543   */\n    tag_422:\n        /* \"#utility.yul\":10458:10469   */\n      0x00\n        /* \"#utility.yul\":10492:10498   */\n      dup3\n        /* \"#utility.yul\":10487:10490   */\n      dup3\n        /* \"#utility.yul\":10480:10499   */\n      mstore\n        /* \"#utility.yul\":10532:10536   */\n      0x20\n        /* \"#utility.yul\":10527:10530   */\n      dup3\n        /* \"#utility.yul\":10523:10537   */\n      add\n        /* \"#utility.yul\":10508:10537   */\n      swap1\n      pop\n        /* \"#utility.yul\":10384:10543   */\n      swap3\n      swap2\n      pop\n      pop\n      jump\t// out\n        /* \"#utility.yul\":10549:10856   */\n    tag_423:\n        /* \"#utility.yul\":10617:10618   */\n      0x00\n        /* \"#utility.yul\":10627:10740   */\n    tag_586:\n        /* \"#utility.yul\":10641:10647   */\n      dup4\n        /* \"#utility.yul\":10638:10639   */\n      dup2\n        /* \"#utility.yul\":10635:10648   */\n      lt\n        /* \"#utility.yul\":10627:10740   */\n      iszero\n      tag_588\n      jumpi\n        /* \"#utility.yul\":10726:10727   */\n      dup1\n        /* \"#utility.yul\":10721:10724   */\n      dup3\n        /* \"#utility.yul\":10717:10728   */\n      add\n        /* \"#utility.yul\":10711:10729   */\n      mload\n        /* \"#utility.yul\":10707:10708   */\n      dup2\n        /* \"#utility.yul\":10702:10705   */\n      dup5\n        /* \"#utility.yul\":10698:10709   */\n      add\n        /* \"#utility.yul\":10691:10730   */\n      mstore\n        /* \"#utility.yul\":10663:10665   */\n      0x20\n        /* \"#utility.yul\":10660:10661   */\n      dup2\n        /* \"#utility.yul\":10656:10666   */\n      add\n        /* \"#utility.yul\":10651:10666   */\n      swap1\n      pop\n        /* \"#utility.yul\":10627:10740   */\n      jump(tag_586)\n    tag_588:\n        /* \"#utility.yul\":10758:10764   */\n      dup4\n        /* \"#utility.yul\":10755:10756   */\n      dup2\n        /* \"#utility.yul\":10752:10765   */\n      gt\n        /* \"#utility.yul\":10749:10850   */\n      iszero\n      tag_589\n      jumpi\n        /* \"#utility.yul\":10838:10839   */\n      0x00\n        /* \"#utility.yul\":10829:10835   */\n      dup5\n        /* \"#utility.yul\":10824:10827   */\n      dup5\n        /* \"#utility.yul\":10820:10836   */\n      add\n        /* \"#utility.yul\":10813:10840   */\n      mstore\n        /* \"#utility.yul\":10749:10850   */\n    tag_589:\n        /* \"#utility.yul\":10598:10856   */\n      pop\n        /* \"#utility.yul\":10549:10856   */\n      pop\n      pop\n      pop\n      jump\t// out\n        /* \"#utility.yul\":10862:11206   */\n    tag_424:\n        /* \"#utility.yul\":10940:10943   */\n      0x00\n        /* \"#utility.yul\":10968:11007   */\n      tag_591\n        /* \"#utility.yul\":11001:11006   */\n      dup3\n        /* \"#utility.yul\":10968:11007   */\n      tag_421\n      jump\t// in\n    tag_591:\n        /* \"#utility.yul\":11023:11084   */\n      tag_592\n        /* \"#utility.yul\":11077:11083   */\n      dup2\n        /* \"#utility.yul\":11072:11075   */\n      dup6\n        /* \"#utility.yul\":11023:11084   */\n      tag_422\n      jump\t// in\n    tag_592:\n        /* \"#utility.yul\":11016:11084   */\n      swap4\n      pop\n        /* \"#utility.yul\":11093:11145   */\n      tag_593\n        /* \"#utility.yul\":11138:11144   */\n      dup2\n        /* \"#utility.yul\":11133:11136   */\n      dup6\n        /* \"#utility.yul\":11126:11130   */\n      0x20\n        /* \"#utility.yul\":11119:11124   */\n      dup7\n        /* \"#utility.yul\":11115:11131   */\n      add\n        /* \"#utility.yul\":11093:11145   */\n      tag_423\n      jump\t// in\n    tag_593:\n        /* \"#utility.yul\":11170:11199   */\n      tag_594\n        /* \"#utility.yul\":11192:11198   */\n      dup2\n        /* \"#utility.yul\":11170:11199   */\n      tag_391\n      jump\t// in\n    tag_594:\n        /* \"#utility.yul\":11165:11168   */\n      dup5\n        /* \"#utility.yul\":11161:11200   */\n      add\n        /* \"#utility.yul\":11154:11200   */\n      swap2\n      pop\n        /* \"#utility.yul\":10944:11206   */\n      pop\n        /* \"#utility.yul\":10862:11206   */\n      swap3\n      swap2\n      pop\n      pop\n      jump\t// out\n        /* \"#utility.yul\":11212:11320   */\n    tag_425:\n        /* \"#utility.yul\":11289:11313   */\n      tag_596\n        /* \"#utility.yul\":11307:11312   */\n      dup2\n        /* \"#utility.yul\":11289:11313   */\n      tag_399\n      jump\t// in\n    tag_596:\n        /* \"#utility.yul\":11284:11287   */\n      dup3\n        /* \"#utility.yul\":11277:11314   */\n      mstore\n        /* \"#utility.yul\":11212:11320   */\n      pop\n      pop\n      jump\t// out\n        /* \"#utility.yul\":11326:11425   */\n    tag_426:\n        /* \"#utility.yul\":11397:11418   */\n      tag_598\n        /* \"#utility.yul\":11412:11417   */\n      dup2\n        /* \"#utility.yul\":11397:11418   */\n      tag_402\n      jump\t// in\n    tag_598:\n        /* \"#utility.yul\":11392:11395   */\n      dup3\n        /* \"#utility.yul\":11385:11419   */\n      mstore\n        /* \"#utility.yul\":11326:11425   */\n      pop\n      pop\n      jump\t// out\n        /* \"#utility.yul\":11475:12251   */\n    tag_427:\n        /* \"#utility.yul\":11586:11589   */\n      0x00\n        /* \"#utility.yul\":11622:11626   */\n      0x60\n        /* \"#utility.yul\":11617:11620   */\n      dup4\n        /* \"#utility.yul\":11613:11627   */\n      add\n        /* \"#utility.yul\":11709:11713   */\n      0x00\n        /* \"#utility.yul\":11702:11707   */\n      dup4\n        /* \"#utility.yul\":11698:11714   */\n      add\n        /* \"#utility.yul\":11692:11715   */\n      mload\n        /* \"#utility.yul\":11762:11765   */\n      dup5\n        /* \"#utility.yul\":11756:11760   */\n      dup3\n        /* \"#utility.yul\":11752:11766   */\n      sub\n        /* \"#utility.yul\":11745:11749   */\n      0x00\n        /* \"#utility.yul\":11740:11743   */\n      dup7\n        /* \"#utility.yul\":11736:11750   */\n      add\n        /* \"#utility.yul\":11729:11767   */\n      mstore\n        /* \"#utility.yul\":11788:11861   */\n      tag_600\n        /* \"#utility.yul\":11856:11860   */\n      dup3\n        /* \"#utility.yul\":11842:11854   */\n      dup3\n        /* \"#utility.yul\":11788:11861   */\n      tag_424\n      jump\t// in\n    tag_600:\n        /* \"#utility.yul\":11780:11861   */\n      swap2\n      pop\n        /* \"#utility.yul\":11637:11872   */\n      pop\n        /* \"#utility.yul\":11963:11967   */\n      0x20\n        /* \"#utility.yul\":11956:11961   */\n      dup4\n        /* \"#utility.yul\":11952:11968   */\n      add\n        /* \"#utility.yul\":11946:11969   */\n      mload\n        /* \"#utility.yul\":11982:12045   */\n      tag_601\n        /* \"#utility.yul\":12039:12043   */\n      0x20\n        /* \"#utility.yul\":12034:12037   */\n      dup7\n        /* \"#utility.yul\":12030:12044   */\n      add\n        /* \"#utility.yul\":12016:12028   */\n      dup3\n        /* \"#utility.yul\":11982:12045   */\n      tag_425\n      jump\t// in\n    tag_601:\n        /* \"#utility.yul\":11882:12055   */\n      pop\n        /* \"#utility.yul\":12138:12142   */\n      0x40\n        /* \"#utility.yul\":12131:12136   */\n      dup4\n        /* \"#utility.yul\":12127:12143   */\n      add\n        /* \"#utility.yul\":12121:12144   */\n      mload\n        /* \"#utility.yul\":12157:12214   */\n      tag_602\n        /* \"#utility.yul\":12208:12212   */\n      0x40\n        /* \"#utility.yul\":12203:12206   */\n      dup7\n        /* \"#utility.yul\":12199:12213   */\n      add\n        /* \"#utility.yul\":12185:12197   */\n      dup3\n        /* \"#utility.yul\":12157:12214   */\n      tag_426\n      jump\t// in\n    tag_602:\n        /* \"#utility.yul\":12065:12224   */\n      pop\n        /* \"#utility.yul\":12241:12245   */\n      dup1\n        /* \"#utility.yul\":12234:12245   */\n      swap2\n      pop\n        /* \"#utility.yul\":11591:12251   */\n      pop\n        /* \"#utility.yul\":11475:12251   */\n      swap3\n      swap2\n      pop\n      pop\n      jump\t// out\n        /* \"#utility.yul\":12257:12614   */\n    tag_42:\n        /* \"#utility.yul\":12392:12396   */\n      0x00\n        /* \"#utility.yul\":12430:12432   */\n      0x20\n        /* \"#utility.yul\":12419:12428   */\n      dup3\n        /* \"#utility.yul\":12415:12433   */\n      add\n        /* \"#utility.yul\":12407:12433   */\n      swap1\n      pop\n        /* \"#utility.yul\":12479:12488   */\n      dup2\n        /* \"#utility.yul\":12473:12477   */\n      dup2\n        /* \"#utility.yul\":12469:12489   */\n      sub\n        /* \"#utility.yul\":12465:12466   */\n      0x00\n        /* \"#utility.yul\":12454:12463   */\n      dup4\n        /* \"#utility.yul\":12450:12467   */\n      add\n        /* \"#utility.yul\":12443:12490   */\n      mstore\n        /* \"#utility.yul\":12507:12607   */\n      tag_604\n        /* \"#utility.yul\":12602:12606   */\n      dup2\n        /* \"#utility.yul\":12593:12599   */\n      dup5\n        /* \"#utility.yul\":12507:12607   */\n      tag_427\n      jump\t// in\n    tag_604:\n        /* \"#utility.yul\":12499:12607   */\n      swap1\n      pop\n        /* \"#utility.yul\":12257:12614   */\n      swap3\n      swap2\n      pop\n      pop\n      jump\t// out\n        /* \"#utility.yul\":12620:12789   */\n    tag_428:\n        /* \"#utility.yul\":12704:12715   */\n      0x00\n        /* \"#utility.yul\":12738:12744   */\n      dup3\n        /* \"#utility.yul\":12733:12736   */\n      dup3\n        /* \"#utility.yul\":12726:12745   */\n      mstore\n        /* \"#utility.yul\":12778:12782   */\n      0x20\n        /* \"#utility.yul\":12773:12776   */\n      dup3\n        /* \"#utility.yul\":12769:12783   */\n      add\n        /* \"#utility.yul\":12754:12783   */\n      swap1\n      pop\n        /* \"#utility.yul\":12620:12789   */\n      swap3\n      swap2\n      pop\n      pop\n      jump\t// out\n        /* \"#utility.yul\":12795:13025   */\n    tag_429:\n        /* \"#utility.yul\":12935:12969   */\n      0x4f6e6c79207468652070726f636573732063616e206578656375746520746869\n        /* \"#utility.yul\":12931:12932   */\n      0x00\n        /* \"#utility.yul\":12923:12929   */\n      dup3\n        /* \"#utility.yul\":12919:12933   */\n      add\n        /* \"#utility.yul\":12912:12970   */\n      mstore\n        /* \"#utility.yul\":13004:13017   */\n      0x73206f7065726174696f6e000000000000000000000000000000000000000000\n        /* \"#utility.yul\":12999:13001   */\n      0x20\n        /* \"#utility.yul\":12991:12997   */\n      dup3\n        /* \"#utility.yul\":12987:13002   */\n      add\n        /* \"#utility.yul\":12980:13018   */\n      mstore\n        /* \"#utility.yul\":12795:13025   */\n      pop\n      jump\t// out\n        /* \"#utility.yul\":13031:13397   */\n    tag_430:\n        /* \"#utility.yul\":13173:13176   */\n      0x00\n        /* \"#utility.yul\":13194:13261   */\n      tag_608\n        /* \"#utility.yul\":13258:13260   */\n      0x2b\n        /* \"#utility.yul\":13253:13256   */\n      dup4\n        /* \"#utility.yul\":13194:13261   */\n      tag_428\n      jump\t// in\n    tag_608:\n        /* \"#utility.yul\":13187:13261   */\n      swap2\n      pop\n        /* \"#utility.yul\":13270:13363   */\n      tag_609\n        /* \"#utility.yul\":13359:13362   */\n      dup3\n        /* \"#utility.yul\":13270:13363   */\n      tag_429\n      jump\t// in\n    tag_609:\n        /* \"#utility.yul\":13388:13390   */\n      0x40\n        /* \"#utility.yul\":13383:13386   */\n      dup3\n        /* \"#utility.yul\":13379:13391   */\n      add\n        /* \"#utility.yul\":13372:13391   */\n      swap1\n      pop\n        /* \"#utility.yul\":13031:13397   */\n      swap2\n      swap1\n      pop\n      jump\t// out\n        /* \"#utility.yul\":13403:13822   */\n    tag_51:\n        /* \"#utility.yul\":13569:13573   */\n      0x00\n        /* \"#utility.yul\":13607:13609   */\n      0x20\n        /* \"#utility.yul\":13596:13605   */\n      dup3\n        /* \"#utility.yul\":13592:13610   */\n      add\n        /* \"#utility.yul\":13584:13610   */\n      swap1\n      pop\n        /* \"#utility.yul\":13656:13665   */\n      dup2\n        /* \"#utility.yul\":13650:13654   */\n      dup2\n        /* \"#utility.yul\":13646:13666   */\n      sub\n        /* \"#utility.yul\":13642:13643   */\n      0x00\n        /* \"#utility.yul\":13631:13640   */\n      dup4\n        /* \"#utility.yul\":13627:13644   */\n      add\n        /* \"#utility.yul\":13620:13667   */\n      mstore\n        /* \"#utility.yul\":13684:13815   */\n      tag_611\n        /* \"#utility.yul\":13810:13814   */\n      dup2\n        /* \"#utility.yul\":13684:13815   */\n      tag_430\n      jump\t// in\n    tag_611:\n        /* \"#utility.yul\":13676:13815   */\n      swap1\n      pop\n        /* \"#utility.yul\":13403:13822   */\n      swap2\n      swap1\n      pop\n      jump\t// out\n        /* \"#utility.yul\":13828:14006   */\n    tag_431:\n        /* \"#utility.yul\":13968:13998   */\n      0x5468697320636f6e747261637420697320646561637469766174656400000000\n        /* \"#utility.yul\":13964:13965   */\n      0x00\n        /* \"#utility.yul\":13956:13962   */\n      dup3\n        /* \"#utility.yul\":13952:13966   */\n      add\n        /* \"#utility.yul\":13945:13999   */\n      mstore\n        /* \"#utility.yul\":13828:14006   */\n      pop\n      jump\t// out\n        /* \"#utility.yul\":14012:14378   */\n    tag_432:\n        /* \"#utility.yul\":14154:14157   */\n      0x00\n        /* \"#utility.yul\":14175:14242   */\n      tag_614\n        /* \"#utility.yul\":14239:14241   */\n      0x1c\n        /* \"#utility.yul\":14234:14237   */\n      dup4\n        /* \"#utility.yul\":14175:14242   */\n      tag_428\n      jump\t// in\n    tag_614:\n        /* \"#utility.yul\":14168:14242   */\n      swap2\n      pop\n        /* \"#utility.yul\":14251:14344   */\n      tag_615\n        /* \"#utility.yul\":14340:14343   */\n      dup3\n        /* \"#utility.yul\":14251:14344   */\n      tag_431\n      jump\t// in\n    tag_615:\n        /* \"#utility.yul\":14369:14371   */\n      0x20\n        /* \"#utility.yul\":14364:14367   */\n      dup3\n        /* \"#utility.yul\":14360:14372   */\n      add\n        /* \"#utility.yul\":14353:14372   */\n      swap1\n      pop\n        /* \"#utility.yul\":14012:14378   */\n      swap2\n      swap1\n      pop\n      jump\t// out\n        /* \"#utility.yul\":14384:14803   */\n    tag_62:\n        /* \"#utility.yul\":14550:14554   */\n      0x00\n        /* \"#utility.yul\":14588:14590   */\n      0x20\n        /* \"#utility.yul\":14577:14586   */\n      dup3\n        /* \"#utility.yul\":14573:14591   */\n      add\n        /* \"#utility.yul\":14565:14591   */\n      swap1\n      pop\n        /* \"#utility.yul\":14637:14646   */\n      dup2\n        /* \"#utility.yul\":14631:14635   */\n      dup2\n        /* \"#utility.yul\":14627:14647   */\n      sub\n        /* \"#utility.yul\":14623:14624   */\n      0x00\n        /* \"#utility.yul\":14612:14621   */\n      dup4\n        /* \"#utility.yul\":14608:14625   */\n      add\n        /* \"#utility.yul\":14601:14648   */\n      mstore\n        /* \"#utility.yul\":14665:14796   */\n      tag_617\n        /* \"#utility.yul\":14791:14795   */\n      dup2\n        /* \"#utility.yul\":14665:14796   */\n      tag_432\n      jump\t// in\n    tag_617:\n        /* \"#utility.yul\":14657:14796   */\n      swap1\n      pop\n        /* \"#utility.yul\":14384:14803   */\n      swap2\n      swap1\n      pop\n      jump\t// out\n        /* \"#utility.yul\":14809:15058   */\n    tag_433:\n        /* \"#utility.yul\":14949:14983   */\n      0x4f6e6c79207468652070726f63657373206f7220746865206170706c69636174\n        /* \"#utility.yul\":14945:14946   */\n      0x00\n        /* \"#utility.yul\":14937:14943   */\n      dup3\n        /* \"#utility.yul\":14933:14947   */\n      add\n        /* \"#utility.yul\":14926:14984   */\n      mstore\n        /* \"#utility.yul\":15018:15050   */\n      0x696f6e2063616e20657865637574652074686973206f7065726174696f6e0000\n        /* \"#utility.yul\":15013:15015   */\n      0x20\n        /* \"#utility.yul\":15005:15011   */\n      dup3\n        /* \"#utility.yul\":15001:15016   */\n      add\n        /* \"#utility.yul\":14994:15051   */\n      mstore\n        /* \"#utility.yul\":14809:15058   */\n      pop\n      jump\t// out\n        /* \"#utility.yul\":15064:15430   */\n    tag_434:\n        /* \"#utility.yul\":15206:15209   */\n      0x00\n        /* \"#utility.yul\":15227:15294   */\n      tag_620\n        /* \"#utility.yul\":15291:15293   */\n      0x3e\n        /* \"#utility.yul\":15286:15289   */\n      dup4\n        /* \"#utility.yul\":15227:15294   */\n      tag_428\n      jump\t// in\n    tag_620:\n        /* \"#utility.yul\":15220:15294   */\n      swap2\n      pop\n        /* \"#utility.yul\":15303:15396   */\n      tag_621\n        /* \"#utility.yul\":15392:15395   */\n      dup3\n        /* \"#utility.yul\":15303:15396   */\n      tag_433\n      jump\t// in\n    tag_621:\n        /* \"#utility.yul\":15421:15423   */\n      0x40\n        /* \"#utility.yul\":15416:15419   */\n      dup3\n        /* \"#utility.yul\":15412:15424   */\n      add\n        /* \"#utility.yul\":15405:15424   */\n      swap1\n      pop\n        /* \"#utility.yul\":15064:15430   */\n      swap2\n      swap1\n      pop\n      jump\t// out\n        /* \"#utility.yul\":15436:15855   */\n    tag_66:\n        /* \"#utility.yul\":15602:15606   */\n      0x00\n        /* \"#utility.yul\":15640:15642   */\n      0x20\n        /* \"#utility.yul\":15629:15638   */\n      dup3\n        /* \"#utility.yul\":15625:15643   */\n      add\n        /* \"#utility.yul\":15617:15643   */\n      swap1\n      pop\n        /* \"#utility.yul\":15689:15698   */\n      dup2\n        /* \"#utility.yul\":15683:15687   */\n      dup2\n        /* \"#utility.yul\":15679:15699   */\n      sub\n        /* \"#utility.yul\":15675:15676   */\n      0x00\n        /* \"#utility.yul\":15664:15673   */\n      dup4\n        /* \"#utility.yul\":15660:15677   */\n      add\n        /* \"#utility.yul\":15653:15700   */\n      mstore\n        /* \"#utility.yul\":15717:15848   */\n      tag_623\n        /* \"#utility.yul\":15843:15847   */\n      dup2\n        /* \"#utility.yul\":15717:15848   */\n      tag_434\n      jump\t// in\n    tag_623:\n        /* \"#utility.yul\":15709:15848   */\n      swap1\n      pop\n        /* \"#utility.yul\":15436:15855   */\n      swap2\n      swap1\n      pop\n      jump\t// out\n        /* \"#utility.yul\":15861:16095   */\n    tag_435:\n        /* \"#utility.yul\":16001:16035   */\n      0x4f6e6c7920746865206170706c69636174696f6e2063616e2065786563757465\n        /* \"#utility.yul\":15997:15998   */\n      0x00\n        /* \"#utility.yul\":15989:15995   */\n      dup3\n        /* \"#utility.yul\":15985:15999   */\n      add\n        /* \"#utility.yul\":15978:16036   */\n      mstore\n        /* \"#utility.yul\":16070:16087   */\n      0x2074686973206f7065726174696f6e0000000000000000000000000000000000\n        /* \"#utility.yul\":16065:16067   */\n      0x20\n        /* \"#utility.yul\":16057:16063   */\n      dup3\n        /* \"#utility.yul\":16053:16068   */\n      add\n        /* \"#utility.yul\":16046:16088   */\n      mstore\n        /* \"#utility.yul\":15861:16095   */\n      pop\n      jump\t// out\n        /* \"#utility.yul\":16101:16467   */\n    tag_436:\n        /* \"#utility.yul\":16243:16246   */\n      0x00\n        /* \"#utility.yul\":16264:16331   */\n      tag_626\n        /* \"#utility.yul\":16328:16330   */\n      0x2f\n        /* \"#utility.yul\":16323:16326   */\n      dup4\n        /* \"#utility.yul\":16264:16331   */\n      tag_428\n      jump\t// in\n    tag_626:\n        /* \"#utility.yul\":16257:16331   */\n      swap2\n      pop\n        /* \"#utility.yul\":16340:16433   */\n      tag_627\n        /* \"#utility.yul\":16429:16432   */\n      dup3\n        /* \"#utility.yul\":16340:16433   */\n      tag_435\n      jump\t// in\n    tag_627:\n        /* \"#utility.yul\":16458:16460   */\n      0x40\n        /* \"#utility.yul\":16453:16456   */\n      dup3\n        /* \"#utility.yul\":16449:16461   */\n      add\n        /* \"#utility.yul\":16442:16461   */\n      swap1\n      pop\n        /* \"#utility.yul\":16101:16467   */\n      swap2\n      swap1\n      pop\n      jump\t// out\n        /* \"#utility.yul\":16473:16892   */\n    tag_80:\n        /* \"#utility.yul\":16639:16643   */\n      0x00\n        /* \"#utility.yul\":16677:16679   */\n      0x20\n        /* \"#utility.yul\":16666:16675   */\n      dup3\n        /* \"#utility.yul\":16662:16680   */\n      add\n        /* \"#utility.yul\":16654:16680   */\n      swap1\n      pop\n        /* \"#utility.yul\":16726:16735   */\n      dup2\n        /* \"#utility.yul\":16720:16724   */\n      dup2\n        /* \"#utility.yul\":16716:16736   */\n      sub\n        /* \"#utility.yul\":16712:16713   */\n      0x00\n        /* \"#utility.yul\":16701:16710   */\n      dup4\n        /* \"#utility.yul\":16697:16714   */\n      add\n        /* \"#utility.yul\":16690:16737   */\n      mstore\n        /* \"#utility.yul\":16754:16885   */\n      tag_629\n        /* \"#utility.yul\":16880:16884   */\n      dup2\n        /* \"#utility.yul\":16754:16885   */\n      tag_436\n      jump\t// in\n    tag_629:\n        /* \"#utility.yul\":16746:16885   */\n      swap1\n      pop\n        /* \"#utility.yul\":16473:16892   */\n      swap2\n      swap1\n      pop\n      jump\t// out\n        /* \"#utility.yul\":16898:17078   */\n    tag_437:\n        /* \"#utility.yul\":17038:17070   */\n      0x54686520636f6e747261637420697320616c7265616479207369676e65640000\n        /* \"#utility.yul\":17034:17035   */\n      0x00\n        /* \"#utility.yul\":17026:17032   */\n      dup3\n        /* \"#utility.yul\":17022:17036   */\n      add\n        /* \"#utility.yul\":17015:17071   */\n      mstore\n        /* \"#utility.yul\":16898:17078   */\n      pop\n      jump\t// out\n        /* \"#utility.yul\":17084:17450   */\n    tag_438:\n        /* \"#utility.yul\":17226:17229   */\n      0x00\n        /* \"#utility.yul\":17247:17314   */\n      tag_632\n        /* \"#utility.yul\":17311:17313   */\n      0x1e\n        /* \"#utility.yul\":17306:17309   */\n      dup4\n        /* \"#utility.yul\":17247:17314   */\n      tag_428\n      jump\t// in\n    tag_632:\n        /* \"#utility.yul\":17240:17314   */\n      swap2\n      pop\n        /* \"#utility.yul\":17323:17416   */\n      tag_633\n        /* \"#utility.yul\":17412:17415   */\n      dup3\n        /* \"#utility.yul\":17323:17416   */\n      tag_437\n      jump\t// in\n    tag_633:\n        /* \"#utility.yul\":17441:17443   */\n      0x20\n        /* \"#utility.yul\":17436:17439   */\n      dup3\n        /* \"#utility.yul\":17432:17444   */\n      add\n        /* \"#utility.yul\":17425:17444   */\n      swap1\n      pop\n        /* \"#utility.yul\":17084:17450   */\n      swap2\n      swap1\n      pop\n      jump\t// out\n        /* \"#utility.yul\":17456:17875   */\n    tag_84:\n        /* \"#utility.yul\":17622:17626   */\n      0x00\n        /* \"#utility.yul\":17660:17662   */\n      0x20\n        /* \"#utility.yul\":17649:17658   */\n      dup3\n        /* \"#utility.yul\":17645:17663   */\n      add\n        /* \"#utility.yul\":17637:17663   */\n      swap1\n      pop\n        /* \"#utility.yul\":17709:17718   */\n      dup2\n        /* \"#utility.yul\":17703:17707   */\n      dup2\n        /* \"#utility.yul\":17699:17719   */\n      sub\n        /* \"#utility.yul\":17695:17696   */\n      0x00\n        /* \"#utility.yul\":17684:17693   */\n      dup4\n        /* \"#utility.yul\":17680:17697   */\n      add\n        /* \"#utility.yul\":17673:17720   */\n      mstore\n        /* \"#utility.yul\":17737:17868   */\n      tag_635\n        /* \"#utility.yul\":17863:17867   */\n      dup2\n        /* \"#utility.yul\":17737:17868   */\n      tag_438\n      jump\t// in\n    tag_635:\n        /* \"#utility.yul\":17729:17868   */\n      swap1\n      pop\n        /* \"#utility.yul\":17456:17875   */\n      swap2\n      swap1\n      pop\n      jump\t// out\n        /* \"#utility.yul\":17881:18061   */\n    tag_95:\n        /* \"#utility.yul\":17929:18006   */\n      0x4e487b7100000000000000000000000000000000000000000000000000000000\n        /* \"#utility.yul\":17926:17927   */\n      0x00\n        /* \"#utility.yul\":17919:18007   */\n      mstore\n        /* \"#utility.yul\":18026:18030   */\n      0x32\n        /* \"#utility.yul\":18023:18024   */\n      0x04\n        /* \"#utility.yul\":18016:18031   */\n      mstore\n        /* \"#utility.yul\":18050:18054   */\n      0x24\n        /* \"#utility.yul\":18047:18048   */\n      0x00\n        /* \"#utility.yul\":18040:18055   */\n      revert\n        /* \"#utility.yul\":18067:18238   */\n    tag_439:\n        /* \"#utility.yul\":18207:18230   */\n      0x5375636365737366756c20657865637574696f6e210000000000000000000000\n        /* \"#utility.yul\":18203:18204   */\n      0x00\n        /* \"#utility.yul\":18195:18201   */\n      dup3\n        /* \"#utility.yul\":18191:18205   */\n      add\n        /* \"#utility.yul\":18184:18231   */\n      mstore\n        /* \"#utility.yul\":18067:18238   */\n      pop\n      jump\t// out\n        /* \"#utility.yul\":18244:18610   */\n    tag_440:\n        /* \"#utility.yul\":18386:18389   */\n      0x00\n        /* \"#utility.yul\":18407:18474   */\n      tag_639\n        /* \"#utility.yul\":18471:18473   */\n      0x15\n        /* \"#utility.yul\":18466:18469   */\n      dup4\n        /* \"#utility.yul\":18407:18474   */\n      tag_428\n      jump\t// in\n    tag_639:\n        /* \"#utility.yul\":18400:18474   */\n      swap2\n      pop\n        /* \"#utility.yul\":18483:18576   */\n      tag_640\n        /* \"#utility.yul\":18572:18575   */\n      dup3\n        /* \"#utility.yul\":18483:18576   */\n      tag_439\n      jump\t// in\n    tag_640:\n        /* \"#utility.yul\":18601:18603   */\n      0x20\n        /* \"#utility.yul\":18596:18599   */\n      dup3\n        /* \"#utility.yul\":18592:18604   */\n      add\n        /* \"#utility.yul\":18585:18604   */\n      swap1\n      pop\n        /* \"#utility.yul\":18244:18610   */\n      swap2\n      swap1\n      pop\n      jump\t// out\n        /* \"#utility.yul\":18616:19035   */\n    tag_100:\n        /* \"#utility.yul\":18782:18786   */\n      0x00\n        /* \"#utility.yul\":18820:18822   */\n      0x20\n        /* \"#utility.yul\":18809:18818   */\n      dup3\n        /* \"#utility.yul\":18805:18823   */\n      add\n        /* \"#utility.yul\":18797:18823   */\n      swap1\n      pop\n        /* \"#utility.yul\":18869:18878   */\n      dup2\n        /* \"#utility.yul\":18863:18867   */\n      dup2\n        /* \"#utility.yul\":18859:18879   */\n      sub\n        /* \"#utility.yul\":18855:18856   */\n      0x00\n        /* \"#utility.yul\":18844:18853   */\n      dup4\n        /* \"#utility.yul\":18840:18857   */\n      add\n        /* \"#utility.yul\":18833:18880   */\n      mstore\n        /* \"#utility.yul\":18897:19028   */\n      tag_642\n        /* \"#utility.yul\":19023:19027   */\n      dup2\n        /* \"#utility.yul\":18897:19028   */\n      tag_440\n      jump\t// in\n    tag_642:\n        /* \"#utility.yul\":18889:19028   */\n      swap1\n      pop\n        /* \"#utility.yul\":18616:19035   */\n      swap2\n      swap1\n      pop\n      jump\t// out\n        /* \"#utility.yul\":19041:19209   */\n    tag_441:\n        /* \"#utility.yul\":19181:19201   */\n      0x436f6e646974696f6e206e6f74206d6565740000000000000000000000000000\n        /* \"#utility.yul\":19177:19178   */\n      0x00\n        /* \"#utility.yul\":19169:19175   */\n      dup3\n        /* \"#utility.yul\":19165:19179   */\n      add\n        /* \"#utility.yul\":19158:19202   */\n      mstore\n        /* \"#utility.yul\":19041:19209   */\n      pop\n      jump\t// out\n        /* \"#utility.yul\":19215:19581   */\n    tag_442:\n        /* \"#utility.yul\":19357:19360   */\n      0x00\n        /* \"#utility.yul\":19378:19445   */\n      tag_645\n        /* \"#utility.yul\":19442:19444   */\n      0x12\n        /* \"#utility.yul\":19437:19440   */\n      dup4\n        /* \"#utility.yul\":19378:19445   */\n      tag_428\n      jump\t// in\n    tag_645:\n        /* \"#utility.yul\":19371:19445   */\n      swap2\n      pop\n        /* \"#utility.yul\":19454:19547   */\n      tag_646\n        /* \"#utility.yul\":19543:19546   */\n      dup3\n        /* \"#utility.yul\":19454:19547   */\n      tag_441\n      jump\t// in\n    tag_646:\n        /* \"#utility.yul\":19572:19574   */\n      0x20\n        /* \"#utility.yul\":19567:19570   */\n      dup3\n        /* \"#utility.yul\":19563:19575   */\n      add\n        /* \"#utility.yul\":19556:19575   */\n      swap1\n      pop\n        /* \"#utility.yul\":19215:19581   */\n      swap2\n      swap1\n      pop\n      jump\t// out\n        /* \"#utility.yul\":19587:20006   */\n    tag_113:\n        /* \"#utility.yul\":19753:19757   */\n      0x00\n        /* \"#utility.yul\":19791:19793   */\n      0x20\n        /* \"#utility.yul\":19780:19789   */\n      dup3\n        /* \"#utility.yul\":19776:19794   */\n      add\n        /* \"#utility.yul\":19768:19794   */\n      swap1\n      pop\n        /* \"#utility.yul\":19840:19849   */\n      dup2\n        /* \"#utility.yul\":19834:19838   */\n      dup2\n        /* \"#utility.yul\":19830:19850   */\n      sub\n        /* \"#utility.yul\":19826:19827   */\n      0x00\n        /* \"#utility.yul\":19815:19824   */\n      dup4\n        /* \"#utility.yul\":19811:19828   */\n      add\n        /* \"#utility.yul\":19804:19851   */\n      mstore\n        /* \"#utility.yul\":19868:19999   */\n      tag_648\n        /* \"#utility.yul\":19994:19998   */\n      dup2\n        /* \"#utility.yul\":19868:19999   */\n      tag_442\n      jump\t// in\n    tag_648:\n        /* \"#utility.yul\":19860:19999   */\n      swap1\n      pop\n        /* \"#utility.yul\":19587:20006   */\n      swap2\n      swap1\n      pop\n      jump\t// out\n        /* \"#utility.yul\":20012:20192   */\n    tag_443:\n        /* \"#utility.yul\":20060:20137   */\n      0x4e487b7100000000000000000000000000000000000000000000000000000000\n        /* \"#utility.yul\":20057:20058   */\n      0x00\n        /* \"#utility.yul\":20050:20138   */\n      mstore\n        /* \"#utility.yul\":20157:20161   */\n      0x22\n        /* \"#utility.yul\":20154:20155   */\n      0x04\n        /* \"#utility.yul\":20147:20162   */\n      mstore\n        /* \"#utility.yul\":20181:20185   */\n      0x24\n        /* \"#utility.yul\":20178:20179   */\n      0x00\n        /* \"#utility.yul\":20171:20186   */\n      revert\n        /* \"#utility.yul\":20198:20518   */\n    tag_133:\n        /* \"#utility.yul\":20242:20248   */\n      0x00\n        /* \"#utility.yul\":20279:20280   */\n      0x02\n        /* \"#utility.yul\":20273:20277   */\n      dup3\n        /* \"#utility.yul\":20269:20281   */\n      div\n        /* \"#utility.yul\":20259:20281   */\n      swap1\n      pop\n        /* \"#utility.yul\":20326:20327   */\n      0x01\n        /* \"#utility.yul\":20320:20324   */\n      dup3\n        /* \"#utility.yul\":20316:20328   */\n      and\n        /* \"#utility.yul\":20347:20365   */\n      dup1\n        /* \"#utility.yul\":20337:20418   */\n      tag_651\n      jumpi\n        /* \"#utility.yul\":20403:20407   */\n      0x7f\n        /* \"#utility.yul\":20395:20401   */\n      dup3\n        /* \"#utility.yul\":20391:20408   */\n      and\n        /* \"#utility.yul\":20381:20408   */\n      swap2\n      pop\n        /* \"#utility.yul\":20337:20418   */\n    tag_651:\n        /* \"#utility.yul\":20465:20467   */\n      0x20\n        /* \"#utility.yul\":20457:20463   */\n      dup3\n        /* \"#utility.yul\":20454:20468   */\n      lt\n        /* \"#utility.yul\":20434:20452   */\n      dup2\n        /* \"#utility.yul\":20431:20469   */\n      sub\n        /* \"#utility.yul\":20428:20512   */\n      tag_652\n      jumpi\n        /* \"#utility.yul\":20484:20502   */\n      tag_653\n      tag_443\n      jump\t// in\n    tag_653:\n        /* \"#utility.yul\":20428:20512   */\n    tag_652:\n        /* \"#utility.yul\":20249:20518   */\n      pop\n        /* \"#utility.yul\":20198:20518   */\n      swap2\n      swap1\n      pop\n      jump\t// out\n        /* \"#utility.yul\":20524:20701   */\n    tag_444:\n        /* \"#utility.yul\":20664:20693   */\n      0x45786365646564206e756d626572206f6620646f6375656d6e74730000000000\n        /* \"#utility.yul\":20660:20661   */\n      0x00\n        /* \"#utility.yul\":20652:20658   */\n      dup3\n        /* \"#utility.yul\":20648:20662   */\n      add\n        /* \"#utility.yul\":20641:20694   */\n      mstore\n        /* \"#utility.yul\":20524:20701   */\n      pop\n      jump\t// out\n        /* \"#utility.yul\":20707:21073   */\n    tag_445:\n        /* \"#utility.yul\":20849:20852   */\n      0x00\n        /* \"#utility.yul\":20870:20937   */\n      tag_656\n        /* \"#utility.yul\":20934:20936   */\n      0x1b\n        /* \"#utility.yul\":20929:20932   */\n      dup4\n        /* \"#utility.yul\":20870:20937   */\n      tag_428\n      jump\t// in\n    tag_656:\n        /* \"#utility.yul\":20863:20937   */\n      swap2\n      pop\n        /* \"#utility.yul\":20946:21039   */\n      tag_657\n        /* \"#utility.yul\":21035:21038   */\n      dup3\n        /* \"#utility.yul\":20946:21039   */\n      tag_444\n      jump\t// in\n    tag_657:\n        /* \"#utility.yul\":21064:21066   */\n      0x20\n        /* \"#utility.yul\":21059:21062   */\n      dup3\n        /* \"#utility.yul\":21055:21067   */\n      add\n        /* \"#utility.yul\":21048:21067   */\n      swap1\n      pop\n        /* \"#utility.yul\":20707:21073   */\n      swap2\n      swap1\n      pop\n      jump\t// out\n        /* \"#utility.yul\":21079:21498   */\n    tag_161:\n        /* \"#utility.yul\":21245:21249   */\n      0x00\n        /* \"#utility.yul\":21283:21285   */\n      0x20\n        /* \"#utility.yul\":21272:21281   */\n      dup3\n        /* \"#utility.yul\":21268:21286   */\n      add\n        /* \"#utility.yul\":21260:21286   */\n      swap1\n      pop\n        /* \"#utility.yul\":21332:21341   */\n      dup2\n        /* \"#utility.yul\":21326:21330   */\n      dup2\n        /* \"#utility.yul\":21322:21342   */\n      sub\n        /* \"#utility.yul\":21318:21319   */\n      0x00\n        /* \"#utility.yul\":21307:21316   */\n      dup4\n        /* \"#utility.yul\":21303:21320   */\n      add\n        /* \"#utility.yul\":21296:21343   */\n      mstore\n        /* \"#utility.yul\":21360:21491   */\n      tag_659\n        /* \"#utility.yul\":21486:21490   */\n      dup2\n        /* \"#utility.yul\":21360:21491   */\n      tag_445\n      jump\t// in\n    tag_659:\n        /* \"#utility.yul\":21352:21491   */\n      swap1\n      pop\n        /* \"#utility.yul\":21079:21498   */\n      swap2\n      swap1\n      pop\n      jump\t// out\n        /* \"#utility.yul\":21504:21684   */\n    tag_446:\n        /* \"#utility.yul\":21552:21629   */\n      0x4e487b7100000000000000000000000000000000000000000000000000000000\n        /* \"#utility.yul\":21549:21550   */\n      0x00\n        /* \"#utility.yul\":21542:21630   */\n      mstore\n        /* \"#utility.yul\":21649:21653   */\n      0x11\n        /* \"#utility.yul\":21646:21647   */\n      0x04\n        /* \"#utility.yul\":21639:21654   */\n      mstore\n        /* \"#utility.yul\":21673:21677   */\n      0x24\n        /* \"#utility.yul\":21670:21671   */\n      0x00\n        /* \"#utility.yul\":21663:21678   */\n      revert\n        /* \"#utility.yul\":21690:21881   */\n    tag_196:\n        /* \"#utility.yul\":21730:21734   */\n      0x00\n        /* \"#utility.yul\":21750:21770   */\n      tag_662\n        /* \"#utility.yul\":21768:21769   */\n      dup3\n        /* \"#utility.yul\":21750:21770   */\n      tag_416\n      jump\t// in\n    tag_662:\n        /* \"#utility.yul\":21745:21770   */\n      swap2\n      pop\n        /* \"#utility.yul\":21784:21804   */\n      tag_663\n        /* \"#utility.yul\":21802:21803   */\n      dup4\n        /* \"#utility.yul\":21784:21804   */\n      tag_416\n      jump\t// in\n    tag_663:\n        /* \"#utility.yul\":21779:21804   */\n      swap3\n      pop\n        /* \"#utility.yul\":21823:21824   */\n      dup3\n        /* \"#utility.yul\":21820:21821   */\n      dup3\n        /* \"#utility.yul\":21817:21825   */\n      lt\n        /* \"#utility.yul\":21814:21848   */\n      iszero\n      tag_664\n      jumpi\n        /* \"#utility.yul\":21828:21846   */\n      tag_665\n      tag_446\n      jump\t// in\n    tag_665:\n        /* \"#utility.yul\":21814:21848   */\n    tag_664:\n        /* \"#utility.yul\":21873:21874   */\n      dup3\n        /* \"#utility.yul\":21870:21871   */\n      dup3\n        /* \"#utility.yul\":21866:21875   */\n      sub\n        /* \"#utility.yul\":21858:21875   */\n      swap1\n      pop\n        /* \"#utility.yul\":21690:21881   */\n      swap3\n      swap2\n      pop\n      pop\n      jump\t// out\n        /* \"#utility.yul\":21887:22108   */\n    tag_447:\n        /* \"#utility.yul\":22027:22061   */\n      0x5468657265206973206e6f20656e6454696d652073657420696e2074696d656f\n        /* \"#utility.yul\":22023:22024   */\n      0x00\n        /* \"#utility.yul\":22015:22021   */\n      dup3\n        /* \"#utility.yul\":22011:22025   */\n      add\n        /* \"#utility.yul\":22004:22062   */\n      mstore\n        /* \"#utility.yul\":22096:22100   */\n      0x7574000000000000000000000000000000000000000000000000000000000000\n        /* \"#utility.yul\":22091:22093   */\n      0x20\n        /* \"#utility.yul\":22083:22089   */\n      dup3\n        /* \"#utility.yul\":22079:22094   */\n      add\n        /* \"#utility.yul\":22072:22101   */\n      mstore\n        /* \"#utility.yul\":21887:22108   */\n      pop\n      jump\t// out\n        /* \"#utility.yul\":22114:22480   */\n    tag_448:\n        /* \"#utility.yul\":22256:22259   */\n      0x00\n        /* \"#utility.yul\":22277:22344   */\n      tag_668\n        /* \"#utility.yul\":22341:22343   */\n      0x22\n        /* \"#utility.yul\":22336:22339   */\n      dup4\n        /* \"#utility.yul\":22277:22344   */\n      tag_428\n      jump\t// in\n    tag_668:\n        /* \"#utility.yul\":22270:22344   */\n      swap2\n      pop\n        /* \"#utility.yul\":22353:22446   */\n      tag_669\n        /* \"#utility.yul\":22442:22445   */\n      dup3\n        /* \"#utility.yul\":22353:22446   */\n      tag_447\n      jump\t// in\n    tag_669:\n        /* \"#utility.yul\":22471:22473   */\n      0x40\n        /* \"#utility.yul\":22466:22469   */\n      dup3\n        /* \"#utility.yul\":22462:22474   */\n      add\n        /* \"#utility.yul\":22455:22474   */\n      swap1\n      pop\n        /* \"#utility.yul\":22114:22480   */\n      swap2\n      swap1\n      pop\n      jump\t// out\n        /* \"#utility.yul\":22486:22905   */\n    tag_211:\n        /* \"#utility.yul\":22652:22656   */\n      0x00\n        /* \"#utility.yul\":22690:22692   */\n      0x20\n        /* \"#utility.yul\":22679:22688   */\n      dup3\n        /* \"#utility.yul\":22675:22693   */\n      add\n        /* \"#utility.yul\":22667:22693   */\n      swap1\n      pop\n        /* \"#utility.yul\":22739:22748   */\n      dup2\n        /* \"#utility.yul\":22733:22737   */\n      dup2\n        /* \"#utility.yul\":22729:22749   */\n      sub\n        /* \"#utility.yul\":22725:22726   */\n      0x00\n        /* \"#utility.yul\":22714:22723   */\n      dup4\n        /* \"#utility.yul\":22710:22727   */\n      add\n        /* \"#utility.yul\":22703:22750   */\n      mstore\n        /* \"#utility.yul\":22767:22898   */\n      tag_671\n        /* \"#utility.yul\":22893:22897   */\n      dup2\n        /* \"#utility.yul\":22767:22898   */\n      tag_448\n      jump\t// in\n    tag_671:\n        /* \"#utility.yul\":22759:22898   */\n      swap1\n      pop\n        /* \"#utility.yul\":22486:22905   */\n      swap2\n      swap1\n      pop\n      jump\t// out\n        /* \"#utility.yul\":22911:23099   */\n    tag_214:\n        /* \"#utility.yul\":22950:22954   */\n      0x00\n        /* \"#utility.yul\":22970:22989   */\n      tag_673\n        /* \"#utility.yul\":22987:22988   */\n      dup3\n        /* \"#utility.yul\":22970:22989   */\n      tag_405\n      jump\t// in\n    tag_673:\n        /* \"#utility.yul\":22965:22989   */\n      swap2\n      pop\n        /* \"#utility.yul\":23003:23022   */\n      tag_674\n        /* \"#utility.yul\":23020:23021   */\n      dup4\n        /* \"#utility.yul\":23003:23022   */\n      tag_405\n      jump\t// in\n    tag_674:\n        /* \"#utility.yul\":22998:23022   */\n      swap3\n      pop\n        /* \"#utility.yul\":23041:23042   */\n      dup3\n        /* \"#utility.yul\":23038:23039   */\n      dup3\n        /* \"#utility.yul\":23035:23043   */\n      lt\n        /* \"#utility.yul\":23032:23066   */\n      iszero\n      tag_675\n      jumpi\n        /* \"#utility.yul\":23046:23064   */\n      tag_676\n      tag_446\n      jump\t// in\n    tag_676:\n        /* \"#utility.yul\":23032:23066   */\n    tag_675:\n        /* \"#utility.yul\":23091:23092   */\n      dup3\n        /* \"#utility.yul\":23088:23089   */\n      dup3\n        /* \"#utility.yul\":23084:23093   */\n      sub\n        /* \"#utility.yul\":23076:23093   */\n      swap1\n      pop\n        /* \"#utility.yul\":22911:23099   */\n      swap3\n      swap2\n      pop\n      pop\n      jump\t// out\n        /* \"#utility.yul\":23105:23287   */\n    tag_449:\n        /* \"#utility.yul\":23245:23279   */\n      0x546865726520696e206e6f20636f6e74656e7420746f2064656372656173652e\n        /* \"#utility.yul\":23241:23242   */\n      0x00\n        /* \"#utility.yul\":23233:23239   */\n      dup3\n        /* \"#utility.yul\":23229:23243   */\n      add\n        /* \"#utility.yul\":23222:23280   */\n      mstore\n        /* \"#utility.yul\":23105:23287   */\n      pop\n      jump\t// out\n        /* \"#utility.yul\":23293:23659   */\n    tag_450:\n        /* \"#utility.yul\":23435:23438   */\n      0x00\n        /* \"#utility.yul\":23456:23523   */\n      tag_679\n        /* \"#utility.yul\":23520:23522   */\n      0x20\n        /* \"#utility.yul\":23515:23518   */\n      dup4\n        /* \"#utility.yul\":23456:23523   */\n      tag_428\n      jump\t// in\n    tag_679:\n        /* \"#utility.yul\":23449:23523   */\n      swap2\n      pop\n        /* \"#utility.yul\":23532:23625   */\n      tag_680\n        /* \"#utility.yul\":23621:23624   */\n      dup3\n        /* \"#utility.yul\":23532:23625   */\n      tag_449\n      jump\t// in\n    tag_680:\n        /* \"#utility.yul\":23650:23652   */\n      0x20\n        /* \"#utility.yul\":23645:23648   */\n      dup3\n        /* \"#utility.yul\":23641:23653   */\n      add\n        /* \"#utility.yul\":23634:23653   */\n      swap1\n      pop\n        /* \"#utility.yul\":23293:23659   */\n      swap2\n      swap1\n      pop\n      jump\t// out\n        /* \"#utility.yul\":23665:24084   */\n    tag_218:\n        /* \"#utility.yul\":23831:23835   */\n      0x00\n        /* \"#utility.yul\":23869:23871   */\n      0x20\n        /* \"#utility.yul\":23858:23867   */\n      dup3\n        /* \"#utility.yul\":23854:23872   */\n      add\n        /* \"#utility.yul\":23846:23872   */\n      swap1\n      pop\n        /* \"#utility.yul\":23918:23927   */\n      dup2\n        /* \"#utility.yul\":23912:23916   */\n      dup2\n        /* \"#utility.yul\":23908:23928   */\n      sub\n        /* \"#utility.yul\":23904:23905   */\n      0x00\n        /* \"#utility.yul\":23893:23902   */\n      dup4\n        /* \"#utility.yul\":23889:23906   */\n      add\n        /* \"#utility.yul\":23882:23929   */\n      mstore\n        /* \"#utility.yul\":23946:24077   */\n      tag_682\n        /* \"#utility.yul\":24072:24076   */\n      dup2\n        /* \"#utility.yul\":23946:24077   */\n      tag_450\n      jump\t// in\n    tag_682:\n        /* \"#utility.yul\":23938:24077   */\n      swap1\n      pop\n        /* \"#utility.yul\":23665:24084   */\n      swap2\n      swap1\n      pop\n      jump\t// out\n        /* \"#utility.yul\":24090:24340   */\n    tag_451:\n        /* \"#utility.yul\":24230:24264   */\n      0x546865206d65737361676520636f6e74656e74206e756d626572206973206772\n        /* \"#utility.yul\":24226:24227   */\n      0x00\n        /* \"#utility.yul\":24218:24224   */\n      dup3\n        /* \"#utility.yul\":24214:24228   */\n      add\n        /* \"#utility.yul\":24207:24265   */\n      mstore\n        /* \"#utility.yul\":24299:24332   */\n      0x6561746572207468616e207468652072656d61696e696e6720616d6f756e7400\n        /* \"#utility.yul\":24294:24296   */\n      0x20\n        /* \"#utility.yul\":24286:24292   */\n      dup3\n        /* \"#utility.yul\":24282:24297   */\n      add\n        /* \"#utility.yul\":24275:24333   */\n      mstore\n        /* \"#utility.yul\":24090:24340   */\n      pop\n      jump\t// out\n        /* \"#utility.yul\":24346:24712   */\n    tag_452:\n        /* \"#utility.yul\":24488:24491   */\n      0x00\n        /* \"#utility.yul\":24509:24576   */\n      tag_685\n        /* \"#utility.yul\":24573:24575   */\n      0x3f\n        /* \"#utility.yul\":24568:24571   */\n      dup4\n        /* \"#utility.yul\":24509:24576   */\n      tag_428\n      jump\t// in\n    tag_685:\n        /* \"#utility.yul\":24502:24576   */\n      swap2\n      pop\n        /* \"#utility.yul\":24585:24678   */\n      tag_686\n        /* \"#utility.yul\":24674:24677   */\n      dup3\n        /* \"#utility.yul\":24585:24678   */\n      tag_451\n      jump\t// in\n    tag_686:\n        /* \"#utility.yul\":24703:24705   */\n      0x40\n        /* \"#utility.yul\":24698:24701   */\n      dup3\n        /* \"#utility.yul\":24694:24706   */\n      add\n        /* \"#utility.yul\":24687:24706   */\n      swap1\n      pop\n        /* \"#utility.yul\":24346:24712   */\n      swap2\n      swap1\n      pop\n      jump\t// out\n        /* \"#utility.yul\":24718:25137   */\n    tag_221:\n        /* \"#utility.yul\":24884:24888   */\n      0x00\n        /* \"#utility.yul\":24922:24924   */\n      0x20\n        /* \"#utility.yul\":24911:24920   */\n      dup3\n        /* \"#utility.yul\":24907:24925   */\n      add\n        /* \"#utility.yul\":24899:24925   */\n      swap1\n      pop\n        /* \"#utility.yul\":24971:24980   */\n      dup2\n        /* \"#utility.yul\":24965:24969   */\n      dup2\n        /* \"#utility.yul\":24961:24981   */\n      sub\n        /* \"#utility.yul\":24957:24958   */\n      0x00\n        /* \"#utility.yul\":24946:24955   */\n      dup4\n        /* \"#utility.yul\":24942:24959   */\n      add\n        /* \"#utility.yul\":24935:24982   */\n      mstore\n        /* \"#utility.yul\":24999:25130   */\n      tag_688\n        /* \"#utility.yul\":25125:25129   */\n      dup2\n        /* \"#utility.yul\":24999:25130   */\n      tag_452\n      jump\t// in\n    tag_688:\n        /* \"#utility.yul\":24991:25130   */\n      swap1\n      pop\n        /* \"#utility.yul\":24718:25137   */\n      swap2\n      swap1\n      pop\n      jump\t// out\n        /* \"#utility.yul\":25143:25323   */\n    tag_453:\n        /* \"#utility.yul\":25283:25315   */\n      0x436f6d70617269736f6e2073796d626f6c206973206e6f742076616c69640000\n        /* \"#utility.yul\":25279:25280   */\n      0x00\n        /* \"#utility.yul\":25271:25277   */\n      dup3\n        /* \"#utility.yul\":25267:25281   */\n      add\n        /* \"#utility.yul\":25260:25316   */\n      mstore\n        /* \"#utility.yul\":25143:25323   */\n      pop\n      jump\t// out\n        /* \"#utility.yul\":25329:25695   */\n    tag_454:\n        /* \"#utility.yul\":25471:25474   */\n      0x00\n        /* \"#utility.yul\":25492:25559   */\n      tag_691\n        /* \"#utility.yul\":25556:25558   */\n      0x1e\n        /* \"#utility.yul\":25551:25554   */\n      dup4\n        /* \"#utility.yul\":25492:25559   */\n      tag_428\n      jump\t// in\n    tag_691:\n        /* \"#utility.yul\":25485:25559   */\n      swap2\n      pop\n        /* \"#utility.yul\":25568:25661   */\n      tag_692\n        /* \"#utility.yul\":25657:25660   */\n      dup3\n        /* \"#utility.yul\":25568:25661   */\n      tag_453\n      jump\t// in\n    tag_692:\n        /* \"#utility.yul\":25686:25688   */\n      0x20\n        /* \"#utility.yul\":25681:25684   */\n      dup3\n        /* \"#utility.yul\":25677:25689   */\n      add\n        /* \"#utility.yul\":25670:25689   */\n      swap1\n      pop\n        /* \"#utility.yul\":25329:25695   */\n      swap2\n      swap1\n      pop\n      jump\t// out\n        /* \"#utility.yul\":25701:26120   */\n    tag_252:\n        /* \"#utility.yul\":25867:25871   */\n      0x00\n        /* \"#utility.yul\":25905:25907   */\n      0x20\n        /* \"#utility.yul\":25894:25903   */\n      dup3\n        /* \"#utility.yul\":25890:25908   */\n      add\n        /* \"#utility.yul\":25882:25908   */\n      swap1\n      pop\n        /* \"#utility.yul\":25954:25963   */\n      dup2\n        /* \"#utility.yul\":25948:25952   */\n      dup2\n        /* \"#utility.yul\":25944:25964   */\n      sub\n        /* \"#utility.yul\":25940:25941   */\n      0x00\n        /* \"#utility.yul\":25929:25938   */\n      dup4\n        /* \"#utility.yul\":25925:25942   */\n      add\n        /* \"#utility.yul\":25918:25965   */\n      mstore\n        /* \"#utility.yul\":25982:26113   */\n      tag_694\n        /* \"#utility.yul\":26108:26112   */\n      dup2\n        /* \"#utility.yul\":25982:26113   */\n      tag_454\n      jump\t// in\n    tag_694:\n        /* \"#utility.yul\":25974:26113   */\n      swap1\n      pop\n        /* \"#utility.yul\":25701:26120   */\n      swap2\n      swap1\n      pop\n      jump\t// out\n        /* \"#utility.yul\":26126:26358   */\n    tag_455:\n        /* \"#utility.yul\":26266:26300   */\n      0x54686520726573756c74206f66207468652078706174682073686f756c642062\n        /* \"#utility.yul\":26262:26263   */\n      0x00\n        /* \"#utility.yul\":26254:26260   */\n      dup3\n        /* \"#utility.yul\":26250:26264   */\n      add\n        /* \"#utility.yul\":26243:26301   */\n      mstore\n        /* \"#utility.yul\":26335:26350   */\n      0x65206d6f7265207468616e203000000000000000000000000000000000000000\n        /* \"#utility.yul\":26330:26332   */\n      0x20\n        /* \"#utility.yul\":26322:26328   */\n      dup3\n        /* \"#utility.yul\":26318:26333   */\n      add\n        /* \"#utility.yul\":26311:26351   */\n      mstore\n        /* \"#utility.yul\":26126:26358   */\n      pop\n      jump\t// out\n        /* \"#utility.yul\":26364:26730   */\n    tag_456:\n        /* \"#utility.yul\":26506:26509   */\n      0x00\n        /* \"#utility.yul\":26527:26594   */\n      tag_697\n        /* \"#utility.yul\":26591:26593   */\n      0x2d\n        /* \"#utility.yul\":26586:26589   */\n      dup4\n        /* \"#utility.yul\":26527:26594   */\n      tag_428\n      jump\t// in\n    tag_697:\n        /* \"#utility.yul\":26520:26594   */\n      swap2\n      pop\n        /* \"#utility.yul\":26603:26696   */\n      tag_698\n        /* \"#utility.yul\":26692:26695   */\n      dup3\n        /* \"#utility.yul\":26603:26696   */\n      tag_455\n      jump\t// in\n    tag_698:\n        /* \"#utility.yul\":26721:26723   */\n      0x40\n        /* \"#utility.yul\":26716:26719   */\n      dup3\n        /* \"#utility.yul\":26712:26724   */\n      add\n        /* \"#utility.yul\":26705:26724   */\n      swap1\n      pop\n        /* \"#utility.yul\":26364:26730   */\n      swap2\n      swap1\n      pop\n      jump\t// out\n        /* \"#utility.yul\":26736:27155   */\n    tag_256:\n        /* \"#utility.yul\":26902:26906   */\n      0x00\n        /* \"#utility.yul\":26940:26942   */\n      0x20\n        /* \"#utility.yul\":26929:26938   */\n      dup3\n        /* \"#utility.yul\":26925:26943   */\n      add\n        /* \"#utility.yul\":26917:26943   */\n      swap1\n      pop\n        /* \"#utility.yul\":26989:26998   */\n      dup2\n        /* \"#utility.yul\":26983:26987   */\n      dup2\n        /* \"#utility.yul\":26979:26999   */\n      sub\n        /* \"#utility.yul\":26975:26976   */\n      0x00\n        /* \"#utility.yul\":26964:26973   */\n      dup4\n        /* \"#utility.yul\":26960:26977   */\n      add\n        /* \"#utility.yul\":26953:27000   */\n      mstore\n        /* \"#utility.yul\":27017:27148   */\n      tag_700\n        /* \"#utility.yul\":27143:27147   */\n      dup2\n        /* \"#utility.yul\":27017:27148   */\n      tag_456\n      jump\t// in\n    tag_700:\n        /* \"#utility.yul\":27009:27148   */\n      swap1\n      pop\n        /* \"#utility.yul\":26736:27155   */\n      swap2\n      swap1\n      pop\n      jump\t// out\n        /* \"#utility.yul\":27161:27407   */\n    tag_268:\n        /* \"#utility.yul\":27200:27203   */\n      0x00\n        /* \"#utility.yul\":27219:27238   */\n      tag_702\n        /* \"#utility.yul\":27236:27237   */\n      dup3\n        /* \"#utility.yul\":27219:27238   */\n      tag_405\n      jump\t// in\n    tag_702:\n        /* \"#utility.yul\":27214:27238   */\n      swap2\n      pop\n        /* \"#utility.yul\":27252:27271   */\n      tag_703\n        /* \"#utility.yul\":27269:27270   */\n      dup4\n        /* \"#utility.yul\":27252:27271   */\n      tag_405\n      jump\t// in\n    tag_703:\n        /* \"#utility.yul\":27247:27271   */\n      swap3\n      pop\n        /* \"#utility.yul\":27349:27350   */\n      dup3\n        /* \"#utility.yul\":27337:27347   */\n      0xffffffff\n        /* \"#utility.yul\":27333:27351   */\n      sub\n        /* \"#utility.yul\":27330:27331   */\n      dup3\n        /* \"#utility.yul\":27327:27352   */\n      gt\n        /* \"#utility.yul\":27324:27375   */\n      iszero\n      tag_704\n      jumpi\n        /* \"#utility.yul\":27355:27373   */\n      tag_705\n      tag_446\n      jump\t// in\n    tag_705:\n        /* \"#utility.yul\":27324:27375   */\n    tag_704:\n        /* \"#utility.yul\":27399:27400   */\n      dup3\n        /* \"#utility.yul\":27396:27397   */\n      dup3\n        /* \"#utility.yul\":27392:27401   */\n      add\n        /* \"#utility.yul\":27385:27401   */\n      swap1\n      pop\n        /* \"#utility.yul\":27161:27407   */\n      swap3\n      swap2\n      pop\n      pop\n      jump\t// out\n        /* \"#utility.yul\":27413:27659   */\n    tag_457:\n        /* \"#utility.yul\":27553:27587   */\n      0x546865206d6574686f642067657454696d65496e5365636f6e647320646f6573\n        /* \"#utility.yul\":27549:27550   */\n      0x00\n        /* \"#utility.yul\":27541:27547   */\n      dup3\n        /* \"#utility.yul\":27537:27551   */\n      add\n        /* \"#utility.yul\":27530:27588   */\n      mstore\n        /* \"#utility.yul\":27622:27651   */\n      0x6e277420776f726b20666f72204d4f4e544820616e6420594541520000000000\n        /* \"#utility.yul\":27617:27619   */\n      0x20\n        /* \"#utility.yul\":27609:27615   */\n      dup3\n        /* \"#utility.yul\":27605:27620   */\n      add\n        /* \"#utility.yul\":27598:27652   */\n      mstore\n        /* \"#utility.yul\":27413:27659   */\n      pop\n      jump\t// out\n        /* \"#utility.yul\":27665:28031   */\n    tag_458:\n        /* \"#utility.yul\":27807:27810   */\n      0x00\n        /* \"#utility.yul\":27828:27895   */\n      tag_708\n        /* \"#utility.yul\":27892:27894   */\n      0x3b\n        /* \"#utility.yul\":27887:27890   */\n      dup4\n        /* \"#utility.yul\":27828:27895   */\n      tag_428\n      jump\t// in\n    tag_708:\n        /* \"#utility.yul\":27821:27895   */\n      swap2\n      pop\n        /* \"#utility.yul\":27904:27997   */\n      tag_709\n        /* \"#utility.yul\":27993:27996   */\n      dup3\n        /* \"#utility.yul\":27904:27997   */\n      tag_457\n      jump\t// in\n    tag_709:\n        /* \"#utility.yul\":28022:28024   */\n      0x40\n        /* \"#utility.yul\":28017:28020   */\n      dup3\n        /* \"#utility.yul\":28013:28025   */\n      add\n        /* \"#utility.yul\":28006:28025   */\n      swap1\n      pop\n        /* \"#utility.yul\":27665:28031   */\n      swap2\n      swap1\n      pop\n      jump\t// out\n        /* \"#utility.yul\":28037:28456   */\n    tag_272:\n        /* \"#utility.yul\":28203:28207   */\n      0x00\n        /* \"#utility.yul\":28241:28243   */\n      0x20\n        /* \"#utility.yul\":28230:28239   */\n      dup3\n        /* \"#utility.yul\":28226:28244   */\n      add\n        /* \"#utility.yul\":28218:28244   */\n      swap1\n      pop\n        /* \"#utility.yul\":28290:28299   */\n      dup2\n        /* \"#utility.yul\":28284:28288   */\n      dup2\n        /* \"#utility.yul\":28280:28300   */\n      sub\n        /* \"#utility.yul\":28276:28277   */\n      0x00\n        /* \"#utility.yul\":28265:28274   */\n      dup4\n        /* \"#utility.yul\":28261:28278   */\n      add\n        /* \"#utility.yul\":28254:28301   */\n      mstore\n        /* \"#utility.yul\":28318:28449   */\n      tag_711\n        /* \"#utility.yul\":28444:28448   */\n      dup2\n        /* \"#utility.yul\":28318:28449   */\n      tag_458\n      jump\t// in\n    tag_711:\n        /* \"#utility.yul\":28310:28449   */\n      swap1\n      pop\n        /* \"#utility.yul\":28037:28456   */\n      swap2\n      swap1\n      pop\n      jump\t// out\n        /* \"#utility.yul\":28462:28695   */\n    tag_286:\n        /* \"#utility.yul\":28501:28504   */\n      0x00\n        /* \"#utility.yul\":28524:28548   */\n      tag_713\n        /* \"#utility.yul\":28542:28547   */\n      dup3\n        /* \"#utility.yul\":28524:28548   */\n      tag_416\n      jump\t// in\n    tag_713:\n        /* \"#utility.yul\":28515:28548   */\n      swap2\n      pop\n        /* \"#utility.yul\":28570:28636   */\n      0xffffffffffffffffffffffffffffffffffffffffffffffffffffffffffffffff\n        /* \"#utility.yul\":28563:28568   */\n      dup3\n        /* \"#utility.yul\":28560:28637   */\n      sub\n        /* \"#utility.yul\":28557:28660   */\n      tag_714\n      jumpi\n        /* \"#utility.yul\":28640:28658   */\n      tag_715\n      tag_446\n      jump\t// in\n    tag_715:\n        /* \"#utility.yul\":28557:28660   */\n    tag_714:\n        /* \"#utility.yul\":28687:28688   */\n      0x01\n        /* \"#utility.yul\":28680:28685   */\n      dup3\n        /* \"#utility.yul\":28676:28689   */\n      add\n        /* \"#utility.yul\":28669:28689   */\n      swap1\n      pop\n        /* \"#utility.yul\":28462:28695   */\n      swap2\n      swap1\n      pop\n      jump\t// out\n        /* \"#utility.yul\":28701:28881   */\n    tag_459:\n        /* \"#utility.yul\":28749:28826   */\n      0x4e487b7100000000000000000000000000000000000000000000000000000000\n        /* \"#utility.yul\":28746:28747   */\n      0x00\n        /* \"#utility.yul\":28739:28827   */\n      mstore\n        /* \"#utility.yul\":28846:28850   */\n      0x12\n        /* \"#utility.yul\":28843:28844   */\n      0x04\n        /* \"#utility.yul\":28836:28851   */\n      mstore\n        /* \"#utility.yul\":28870:28874   */\n      0x24\n        /* \"#utility.yul\":28867:28868   */\n      0x00\n        /* \"#utility.yul\":28860:28875   */\n      revert\n        /* \"#utility.yul\":28887:29072   */\n    tag_288:\n        /* \"#utility.yul\":28927:28928   */\n      0x00\n        /* \"#utility.yul\":28944:28964   */\n      tag_718\n        /* \"#utility.yul\":28962:28963   */\n      dup3\n        /* \"#utility.yul\":28944:28964   */\n      tag_416\n      jump\t// in\n    tag_718:\n        /* \"#utility.yul\":28939:28964   */\n      swap2\n      pop\n        /* \"#utility.yul\":28978:28998   */\n      tag_719\n        /* \"#utility.yul\":28996:28997   */\n      dup4\n        /* \"#utility.yul\":28978:28998   */\n      tag_416\n      jump\t// in\n    tag_719:\n        /* \"#utility.yul\":28973:28998   */\n      swap3\n      pop\n        /* \"#utility.yul\":29017:29018   */\n      dup3\n        /* \"#utility.yul\":29007:29042   */\n      tag_720\n      jumpi\n        /* \"#utility.yul\":29022:29040   */\n      tag_721\n      tag_459\n      jump\t// in\n    tag_721:\n        /* \"#utility.yul\":29007:29042   */\n    tag_720:\n        /* \"#utility.yul\":29064:29065   */\n      dup3\n        /* \"#utility.yul\":29061:29062   */\n      dup3\n        /* \"#utility.yul\":29057:29066   */\n      div\n        /* \"#utility.yul\":29052:29066   */\n      swap1\n      pop\n        /* \"#utility.yul\":28887:29072   */\n      swap3\n      swap2\n      pop\n      pop\n      jump\t// out\n        /* \"#utility.yul\":29078:29254   */\n    tag_297:\n        /* \"#utility.yul\":29110:29111   */\n      0x00\n        /* \"#utility.yul\":29127:29147   */\n      tag_723\n        /* \"#utility.yul\":29145:29146   */\n      dup3\n        /* \"#utility.yul\":29127:29147   */\n      tag_416\n      jump\t// in\n    tag_723:\n        /* \"#utility.yul\":29122:29147   */\n      swap2\n      pop\n        /* \"#utility.yul\":29161:29181   */\n      tag_724\n        /* \"#utility.yul\":29179:29180   */\n      dup4\n        /* \"#utility.yul\":29161:29181   */\n      tag_416\n      jump\t// in\n    tag_724:\n        /* \"#utility.yul\":29156:29181   */\n      swap3\n      pop\n        /* \"#utility.yul\":29200:29201   */\n      dup3\n        /* \"#utility.yul\":29190:29225   */\n      tag_725\n      jumpi\n        /* \"#utility.yul\":29205:29223   */\n      tag_726\n      tag_459\n      jump\t// in\n    tag_726:\n        /* \"#utility.yul\":29190:29225   */\n    tag_725:\n        /* \"#utility.yul\":29246:29247   */\n      dup3\n        /* \"#utility.yul\":29243:29244   */\n      dup3\n        /* \"#utility.yul\":29239:29248   */\n      mod\n        /* \"#utility.yul\":29234:29248   */\n      swap1\n      pop\n        /* \"#utility.yul\":29078:29254   */\n      swap3\n      swap2\n      pop\n      pop\n      jump\t// out\n        /* \"#utility.yul\":29260:29565   */\n    tag_299:\n        /* \"#utility.yul\":29300:29303   */\n      0x00\n        /* \"#utility.yul\":29319:29339   */\n      tag_728\n        /* \"#utility.yul\":29337:29338   */\n      dup3\n        /* \"#utility.yul\":29319:29339   */\n      tag_416\n      jump\t// in\n    tag_728:\n        /* \"#utility.yul\":29314:29339   */\n      swap2\n      pop\n        /* \"#utility.yul\":29353:29373   */\n      tag_729\n        /* \"#utility.yul\":29371:29372   */\n      dup4\n        /* \"#utility.yul\":29353:29373   */\n      tag_416\n      jump\t// in\n    tag_729:\n        /* \"#utility.yul\":29348:29373   */\n      swap3\n      pop\n        /* \"#utility.yul\":29507:29508   */\n      dup3\n        /* \"#utility.yul\":29439:29505   */\n      0xffffffffffffffffffffffffffffffffffffffffffffffffffffffffffffffff\n        /* \"#utility.yul\":29435:29509   */\n      sub\n        /* \"#utility.yul\":29432:29433   */\n      dup3\n        /* \"#utility.yul\":29429:29510   */\n      gt\n        /* \"#utility.yul\":29426:29533   */\n      iszero\n      tag_730\n      jumpi\n        /* \"#utility.yul\":29513:29531   */\n      tag_731\n      tag_446\n      jump\t// in\n    tag_731:\n        /* \"#utility.yul\":29426:29533   */\n    tag_730:\n        /* \"#utility.yul\":29557:29558   */\n      dup3\n        /* \"#utility.yul\":29554:29555   */\n      dup3\n        /* \"#utility.yul\":29550:29559   */\n      add\n        /* \"#utility.yul\":29543:29559   */\n      swap1\n      pop\n        /* \"#utility.yul\":29260:29565   */\n      swap3\n      swap2\n      pop\n      pop\n      jump\t// out\n        /* \"#utility.yul\":29571:29860   */\n    tag_330:\n        /* \"#utility.yul\":29610:29617   */\n      0x00\n        /* \"#utility.yul\":29633:29652   */\n      tag_733\n        /* \"#utility.yul\":29650:29651   */\n      dup3\n        /* \"#utility.yul\":29633:29652   */\n      tag_405\n      jump\t// in\n    tag_733:\n        /* \"#utility.yul\":29628:29652   */\n      swap2\n      pop\n        /* \"#utility.yul\":29666:29685   */\n      tag_734\n        /* \"#utility.yul\":29683:29684   */\n      dup4\n        /* \"#utility.yul\":29666:29685   */\n      tag_405\n      jump\t// in\n    tag_734:\n        /* \"#utility.yul\":29661:29685   */\n      swap3\n      pop\n        /* \"#utility.yul\":29797:29798   */\n      dup2\n        /* \"#utility.yul\":29785:29795   */\n      0xffffffff\n        /* \"#utility.yul\":29781:29799   */\n      div\n        /* \"#utility.yul\":29778:29779   */\n      dup4\n        /* \"#utility.yul\":29775:29800   */\n      gt\n        /* \"#utility.yul\":29770:29771   */\n      dup3\n        /* \"#utility.yul\":29763:29772   */\n      iszero\n        /* \"#utility.yul\":29756:29773   */\n      iszero\n        /* \"#utility.yul\":29752:29801   */\n      and\n        /* \"#utility.yul\":29749:29824   */\n      iszero\n      tag_735\n      jumpi\n        /* \"#utility.yul\":29804:29822   */\n      tag_736\n      tag_446\n      jump\t// in\n    tag_736:\n        /* \"#utility.yul\":29749:29824   */\n    tag_735:\n        /* \"#utility.yul\":29852:29853   */\n      dup3\n        /* \"#utility.yul\":29849:29850   */\n      dup3\n        /* \"#utility.yul\":29845:29854   */\n      mul\n        /* \"#utility.yul\":29834:29854   */\n      swap1\n      pop\n        /* \"#utility.yul\":29571:29860   */\n      swap3\n      swap2\n      pop\n      pop\n      jump\t// out\n        /* \"#utility.yul\":29866:30048   */\n    tag_332:\n        /* \"#utility.yul\":29905:29906   */\n      0x00\n        /* \"#utility.yul\":29922:29941   */\n      tag_738\n        /* \"#utility.yul\":29939:29940   */\n      dup3\n        /* \"#utility.yul\":29922:29941   */\n      tag_405\n      jump\t// in\n    tag_738:\n        /* \"#utility.yul\":29917:29941   */\n      swap2\n      pop\n        /* \"#utility.yul\":29955:29974   */\n      tag_739\n        /* \"#utility.yul\":29972:29973   */\n      dup4\n        /* \"#utility.yul\":29955:29974   */\n      tag_405\n      jump\t// in\n    tag_739:\n        /* \"#utility.yul\":29950:29974   */\n      swap3\n      pop\n        /* \"#utility.yul\":29993:29994   */\n      dup3\n        /* \"#utility.yul\":29983:30018   */\n      tag_740\n      jumpi\n        /* \"#utility.yul\":29998:30016   */\n      tag_741\n      tag_459\n      jump\t// in\n    tag_741:\n        /* \"#utility.yul\":29983:30018   */\n    tag_740:\n        /* \"#utility.yul\":30040:30041   */\n      dup3\n        /* \"#utility.yul\":30037:30038   */\n      dup3\n        /* \"#utility.yul\":30033:30042   */\n      div\n        /* \"#utility.yul\":30028:30042   */\n      swap1\n      pop\n        /* \"#utility.yul\":29866:30048   */\n      swap3\n      swap2\n      pop\n      pop\n      jump\t// out\n        /* \"#utility.yul\":30054:30227   */\n    tag_359:\n        /* \"#utility.yul\":30085:30086   */\n      0x00\n        /* \"#utility.yul\":30102:30121   */\n      tag_743\n        /* \"#utility.yul\":30119:30120   */\n      dup3\n        /* \"#utility.yul\":30102:30121   */\n      tag_405\n      jump\t// in\n    tag_743:\n        /* \"#utility.yul\":30097:30121   */\n      swap2\n      pop\n        /* \"#utility.yul\":30135:30154   */\n      tag_744\n        /* \"#utility.yul\":30152:30153   */\n      dup4\n        /* \"#utility.yul\":30135:30154   */\n      tag_405\n      jump\t// in\n    tag_744:\n        /* \"#utility.yul\":30130:30154   */\n      swap3\n      pop\n        /* \"#utility.yul\":30173:30174   */\n      dup3\n        /* \"#utility.yul\":30163:30198   */\n      tag_745\n      jumpi\n        /* \"#utility.yul\":30178:30196   */\n      tag_746\n      tag_459\n      jump\t// in\n    tag_746:\n        /* \"#utility.yul\":30163:30198   */\n    tag_745:\n        /* \"#utility.yul\":30219:30220   */\n      dup3\n        /* \"#utility.yul\":30216:30217   */\n      dup3\n        /* \"#utility.yul\":30212:30221   */\n      mod\n        /* \"#utility.yul\":30207:30221   */\n      swap1\n      pop\n        /* \"#utility.yul\":30054:30227   */\n      swap3\n      swap2\n      pop\n      pop\n      jump\t// out\n\n    auxdata: 0xa2646970667358221220b0a9789748588a97193ac936c7bf56b4bde4bafeb70f3e14cb0370d5808ae88a64736f6c634300080d0033\n}\n",
				"bytecode": {
					"linkReferences": {},
					"object": "60806040523480156200001157600080fd5b506040516200420e3803806200420e833981810160405281019062000037919062000df0565b60016000806101000a81548160ff0219169083151502179055506363b13d80600060016101000a81548163ffffffff021916908363ffffffff160217905550636591ac20600060056101000a81548163ffffffff021916908363ffffffff160217905550620000e96040518060400160405280600e81526020017f576562204f6620536369656e63650000000000000000000000000000000000008152508260006200084f60201b6200104d1760201c565b600160008201518160000190805190602001906200010992919062000b20565b5060208201518160010160006101000a81548173ffffffffffffffffffffffffffffffffffffffff021916908373ffffffffffffffffffffffffffffffffffffffff16021790555060408201518160010160146101000a81548160ff021916908315150217905550905050620001c26040518060400160405280601381526020017f496e746567726174696f6e2050726f63657373000000000000000000000000008152503360016200084f60201b6200104d1760201c565b60036000820151816000019080519060200190620001e292919062000b20565b5060208201518160010160006101000a81548173ffffffffffffffffffffffffffffffffffffffff021916908373ffffffffffffffffffffffffffffffffffffffff16021790555060408201518160010160146101000a81548160ff0219169083151502179055509050506003600560003373ffffffffffffffffffffffffffffffffffffffff1673ffffffffffffffffffffffffffffffffffffffff1681526020019081526020016000206000820181600001908054620002a49062000e51565b620002b192919062000bb1565b506001820160009054906101000a900473ffffffffffffffffffffffffffffffffffffffff168160010160006101000a81548173ffffffffffffffffffffffffffffffffffffffff021916908373ffffffffffffffffffffffffffffffffffffffff1602179055506001820160149054906101000a900460ff168160010160146101000a81548160ff0219169083151502179055509050506001600560008373ffffffffffffffffffffffffffffffffffffffff1673ffffffffffffffffffffffffffffffffffffffff1681526020019081526020016000206000820181600001908054620003a09062000e51565b620003ad92919062000bb1565b506001820160009054906101000a900473ffffffffffffffffffffffffffffffffffffffff168160010160006101000a81548173ffffffffffffffffffffffffffffffffffffffff021916908373ffffffffffffffffffffffffffffffffffffffff1602179055506001820160149054906101000a900460ff168160010160146101000a81548160ff021916908315150217905550905050600662000460600260006200089560201b620010911760201c565b9080600181540180825580915050600190039060005260206000200160009091909190915060008201518160000160006101000a81548163ffffffff021916908363ffffffff16021790555060208201518160000160046101000a81548160ff021916908360ff16021790555060408201518160000160056101000a81548163ffffffff021916908363ffffffff16021790555060608201518160000160096101000a81548163ffffffff021916908363ffffffff160217905550608082015181600001600d6101000a81548163ffffffff021916908363ffffffff16021790555050506007620005c96040518060400160405280601681526020017f636f756e74282f2f626f64792f646f63756d656e7429000000000000000000008152506040518060400160405280600281526020017f3c3d00000000000000000000000000000000000000000000000000000000000081525060646200091a60201b6200110a1760201c565b908060018154018082558091505060019003906000526020600020906003020160009091909190915060008201518160000190805190602001906200061092919062000b20565b5060208201518160010190805190602001906200062f92919062000b20565b506040820151816002015550506008620006c46040518060400160405280601681526020017f636f756e74282f2f626f64792f646f63756d656e7429000000000000000000008152506040518060400160405280600281526020017f3c3d00000000000000000000000000000000000000000000000000000000000081525061c35060056200094860201b620011361760201c565b908060018154018082558091505060019003906000526020600020906007020160009091909190915060008201518160000190805190602001906200070b92919062000b20565b5060208201518160010190805190602001906200072a92919062000b20565b506040820151816002015560608201518160030160006101000a81548160ff021916908360ff16021790555060808201518160030160016101000a81548163ffffffff021916908363ffffffff16021790555060a0820151816004015560c08201518160050160006101000a81548163ffffffff021916908363ffffffff16021790555060e0820151816006015550506009620007d3603c62000a2b60201b6200120a1760201c565b9080600181540180825580915050600190039060005260206000200160009091909190915060008201518160000160006101000a81548163ffffffff021916908363ffffffff16021790555060208201518160000160046101000a81548163ffffffff021916908363ffffffff16021790555050505062000fa3565b6200085962000c49565b60405180606001604052808581526020018473ffffffffffffffffffffffffffffffffffffffff16815260200183151581525090509392505050565b6200089f62000c82565b6000600460ff168360ff1611620008c957620008c18362000a5e60201b60201c565b9050620008ce565b600190505b6040518060a001604052808563ffffffff1681526020018460ff1681526020018263ffffffff1681526020018563ffffffff168152602001600063ffffffff1681525091505092915050565b6200092462000ccc565b60405180606001604052808581526020018481526020018381525090509392505050565b6200095262000ced565b6000600460ff168360ff16116200097c57620009748362000a5e60201b60201c565b905062000981565b600190505b6001855103620009d5576040518060400160405280600281526020017f3c3d0000000000000000000000000000000000000000000000000000000000008152509450600184620009d2919062000ebf565b93505b6040518061010001604052808781526020018681526020018581526020018460ff1681526020018263ffffffff168152602001858152602001600063ffffffff1681526020016000815250915050949350505050565b62000a3562000d41565b6040518060400160405280600063ffffffff1681526020018363ffffffff168152509050919050565b6000600460ff168260ff16111562000aad576040517f08c379a000000000000000000000000000000000000000000000000000000000815260040162000aa49062000f81565b60405180910390fd5b600060ff168260ff160362000ac6576001905062000b1b565b600160ff168260ff160362000adf57603c905062000b1b565b600260ff168260ff160362000af957610e10905062000b1b565b600360ff168260ff160362000b145762015180905062000b1b565b62093a8090505b919050565b82805462000b2e9062000e51565b90600052602060002090601f01602090048101928262000b52576000855562000b9e565b82601f1062000b6d57805160ff191683800117855562000b9e565b8280016001018555821562000b9e579182015b8281111562000b9d57825182559160200191906001019062000b80565b5b50905062000bad919062000d67565b5090565b82805462000bbf9062000e51565b90600052602060002090601f01602090048101928262000be3576000855562000c36565b82601f1062000bf6578054855562000c36565b8280016001018555821562000c3657600052602060002091601f016020900482015b8281111562000c3557825482559160010191906001019062000c18565b5b50905062000c45919062000d67565b5090565b604051806060016040528060608152602001600073ffffffffffffffffffffffffffffffffffffffff1681526020016000151581525090565b6040518060a00160405280600063ffffffff168152602001600060ff168152602001600063ffffffff168152602001600063ffffffff168152602001600063ffffffff1681525090565b60405180606001604052806060815260200160608152602001600081525090565b604051806101000160405280606081526020016060815260200160008152602001600060ff168152602001600063ffffffff16815260200160008152602001600063ffffffff168152602001600081525090565b6040518060400160405280600063ffffffff168152602001600063ffffffff1681525090565b5b8082111562000d8257600081600090555060010162000d68565b5090565b600080fd5b600073ffffffffffffffffffffffffffffffffffffffff82169050919050565b600062000db88262000d8b565b9050919050565b62000dca8162000dab565b811462000dd657600080fd5b50565b60008151905062000dea8162000dbf565b92915050565b60006020828403121562000e095762000e0862000d86565b5b600062000e198482850162000dd9565b91505092915050565b7f4e487b7100000000000000000000000000000000000000000000000000000000600052602260045260246000fd5b6000600282049050600182168062000e6a57607f821691505b60208210810362000e805762000e7f62000e22565b5b50919050565b6000819050919050565b7f4e487b7100000000000000000000000000000000000000000000000000000000600052601160045260246000fd5b600062000ecc8262000e86565b915062000ed98362000e86565b92508282101562000eef5762000eee62000e90565b5b828203905092915050565b600082825260208201905092915050565b7f546865206d6574686f642067657454696d65496e5365636f6e647320646f657360008201527f6e277420776f726b20666f72204d4f4e544820616e6420594541520000000000602082015250565b600062000f69603b8362000efa565b915062000f768262000f0b565b604082019050919050565b6000602082019050818103600083015262000f9c8162000f5a565b9050919050565b61325b8062000fb36000396000f3fe608060405234801561001057600080fd5b506004361061007d5760003560e01c8063b8b4f1a01161005b578063b8b4f1a0146100ee578063dd46f3641461010c578063e67fa5661461013c578063fb6f82431461016c5761007d565b80635e744c6a1461008257806370d8915a146100b257806385931911146100d0575b600080fd5b61009c60048036038101906100979190612307565b61019c565b6040516100a9919061237e565b60405180910390f35b6100ba61038d565b6040516100c791906123a8565b60405180910390f35b6100d86104f4565b6040516100e591906123a8565b60405180910390f35b6100f661065c565b604051610103919061237e565b60405180910390f35b610126600480360381019061012191906123ff565b6107c6565b604051610133919061237e565b60405180910390f35b61015660048036038101906101519190612623565b610a03565b604051610163919061237e565b60405180910390f35b610186600480360381019061018191906126ae565b610db7565b60405161019391906127d1565b60405180910390f35b60003373ffffffffffffffffffffffffffffffffffffffff16600360010160009054906101000a900473ffffffffffffffffffffffffffffffffffffffff1673ffffffffffffffffffffffffffffffffffffffff1614610231576040517f08c379a000000000000000000000000000000000000000000000000000000000815260040161022890612876565b60405180910390fd5b600560006001800160009054906101000a900473ffffffffffffffffffffffffffffffffffffffff1673ffffffffffffffffffffffffffffffffffffffff1673ffffffffffffffffffffffffffffffffffffffff168152602001908152602001600020600080820160006102a59190611ec1565b6001820160006101000a81549073ffffffffffffffffffffffffffffffffffffffff02191690556001820160146101000a81549060ff021916905550506102ee8383600061104d565b6001600082015181600001908051906020019061030c929190611f01565b5060208201518160010160006101000a81548173ffffffffffffffffffffffffffffffffffffffff021916908373ffffffffffffffffffffffffffffffffffffffff16021790555060408201518160010160146101000a81548160ff02191690831515021790555090505061038282600161123b565b506001905092915050565b60008060009054906101000a900460ff166103dd576040517f08c379a00000000000000000000000000000000000000000000000000000000081526004016103d4906128e2565b60405180910390fd5b3373ffffffffffffffffffffffffffffffffffffffff166001800160009054906101000a900473ffffffffffffffffffffffffffffffffffffffff1673ffffffffffffffffffffffffffffffffffffffff16148061048b57503373ffffffffffffffffffffffffffffffffffffffff16600360010160009054906101000a900473ffffffffffffffffffffffffffffffffffffffff1673ffffffffffffffffffffffffffffffffffffffff16145b6104ca576040517f08c379a00000000000000000000000000000000000000000000000000000000081526004016104c190612974565b60405180910390fd5b6001800160009054906101000a900473ffffffffffffffffffffffffffffffffffffffff16905090565b60008060009054906101000a900460ff16610544576040517f08c379a000000000000000000000000000000000000000000000000000000000815260040161053b906128e2565b60405180910390fd5b3373ffffffffffffffffffffffffffffffffffffffff166001800160009054906101000a900473ffffffffffffffffffffffffffffffffffffffff1673ffffffffffffffffffffffffffffffffffffffff1614806105f257503373ffffffffffffffffffffffffffffffffffffffff16600360010160009054906101000a900473ffffffffffffffffffffffffffffffffffffffff1673ffffffffffffffffffffffffffffffffffffffff16145b610631576040517f08c379a000000000000000000000000000000000000000000000000000000000815260040161062890612974565b60405180910390fd5b600360010160009054906101000a900473ffffffffffffffffffffffffffffffffffffffff16905090565b60008060009054906101000a900460ff166106ac576040517f08c379a00000000000000000000000000000000000000000000000000000000081526004016106a3906128e2565b60405180910390fd5b3373ffffffffffffffffffffffffffffffffffffffff166001800160009054906101000a900473ffffffffffffffffffffffffffffffffffffffff1673ffffffffffffffffffffffffffffffffffffffff161461073e576040517f08c379a000000000000000000000000000000000000000000000000000000000815260040161073590612a06565b60405180910390fd5b600015156001800160149054906101000a900460ff16151514610796576040517f08c379a000000000000000000000000000000000000000000000000000000000815260040161078d90612a72565b60405180910390fd5b60018060010160146101000a81548160ff0219169083151502179055506107be33600161123b565b506001905090565b60008060009054906101000a900460ff16610816576040517f08c379a000000000000000000000000000000000000000000000000000000000815260040161080d906128e2565b60405180910390fd5b3373ffffffffffffffffffffffffffffffffffffffff166001800160009054906101000a900473ffffffffffffffffffffffffffffffffffffffff1673ffffffffffffffffffffffffffffffffffffffff16146108a8576040517f08c379a000000000000000000000000000000000000000000000000000000000815260040161089f90612a06565b60405180910390fd5b6109308260096000815481106108c1576108c0612a92565b5b906000526020600020016040518060400160405290816000820160009054906101000a900463ffffffff1663ffffffff1663ffffffff1681526020016000820160049054906101000a900463ffffffff1663ffffffff1663ffffffff168152505061133e90919063ffffffff16565b6109c4577f95a1f3a1dafdd4c1af344e3d7c69a72cbce8a3f15fe1cf95a7f5bd23df2e71a160405161096190612b0d565b60405180910390a1610990600660008154811061098157610980612a92565b5b906000526020600020016113cd565b6109bb60086000815481106109a8576109a7612a92565b5b9060005260206000209060070201611412565b600190506109fe565b7f66091b7dc2b097c8f60d5cd6aa99633b097f08d2eb1056f3e15361b22e0ea2ba6040516109f190612b79565b60405180910390a1600090505b919050565b60008060009054906101000a900460ff16610a53576040517f08c379a0000000000000000000000000000000000000000000000000000000008152600401610a4a906128e2565b60405180910390fd5b3373ffffffffffffffffffffffffffffffffffffffff16600360010160009054906101000a900473ffffffffffffffffffffffffffffffffffffffff1673ffffffffffffffffffffffffffffffffffffffff1614610ae6576040517f08c379a0000000000000000000000000000000000000000000000000000000008152600401610add90612876565b60405180910390fd5b610b17846006600081548110610aff57610afe612a92565b5b906000526020600020016114d090919063ffffffff16565b8015610ca85750610ca783600081518110610b3557610b34612a92565b5b60200260200101516007600081548110610b5257610b51612a92565b5b9060005260206000209060030201604051806060016040529081600082018054610b7b90612bc8565b80601f0160208091040260200160405190810160405280929190818152602001828054610ba790612bc8565b8015610bf45780601f10610bc957610100808354040283529160200191610bf4565b820191906000526020600020905b815481529060010190602001808311610bd757829003601f168201915b50505050508152602001600182018054610c0d90612bc8565b80601f0160208091040260200160405190810160405280929190818152602001828054610c3990612bc8565b8015610c865780601f10610c5b57610100808354040283529160200191610c86565b820191906000526020600020905b815481529060010190602001808311610c6957829003601f168201915b5050505050815260200160028201548152505061154990919063ffffffff16565b5b8015610d025750610d018483600081518110610cc757610cc6612a92565b5b60200260200101516008600081548110610ce457610ce3612a92565b5b906000526020600020906007020161173b9092919063ffffffff16565b5b15610d7657610d38846009600081548110610d2057610d1f612a92565b5b9060005260206000200161183d90919063ffffffff16565b7f95a1f3a1dafdd4c1af344e3d7c69a72cbce8a3f15fe1cf95a7f5bd23df2e71a1604051610d6590612b0d565b60405180910390a160019050610db0565b7f66091b7dc2b097c8f60d5cd6aa99633b097f08d2eb1056f3e15361b22e0ea2ba604051610da390612c45565b60405180910390a1600090505b9392505050565b610dbf611f87565b60008054906101000a900460ff16610e0c576040517f08c379a0000000000000000000000000000000000000000000000000000000008152600401610e03906128e2565b60405180910390fd5b3373ffffffffffffffffffffffffffffffffffffffff166001800160009054906101000a900473ffffffffffffffffffffffffffffffffffffffff1673ffffffffffffffffffffffffffffffffffffffff161480610eba57503373ffffffffffffffffffffffffffffffffffffffff16600360010160009054906101000a900473ffffffffffffffffffffffffffffffffffffffff1673ffffffffffffffffffffffffffffffffffffffff16145b610ef9576040517f08c379a0000000000000000000000000000000000000000000000000000000008152600401610ef090612974565b60405180910390fd5b600560008373ffffffffffffffffffffffffffffffffffffffff1673ffffffffffffffffffffffffffffffffffffffff168152602001908152602001600020604051806060016040529081600082018054610f5390612bc8565b80601f0160208091040260200160405190810160405280929190818152602001828054610f7f90612bc8565b8015610fcc5780601f10610fa157610100808354040283529160200191610fcc565b820191906000526020600020905b815481529060010190602001808311610faf57829003601f168201915b505050505081526020016001820160009054906101000a900473ffffffffffffffffffffffffffffffffffffffff1673ffffffffffffffffffffffffffffffffffffffff1673ffffffffffffffffffffffffffffffffffffffff1681526020016001820160149054906101000a900460ff1615151515815250509050919050565b611055611f87565b60405180606001604052808581526020018473ffffffffffffffffffffffffffffffffffffffff16815260200183151581525090509392505050565b611099611fc0565b6000600460ff168360ff16116110b9576110b2836118a8565b90506110be565b600190505b6040518060a001604052808563ffffffff1681526020018460ff1681526020018263ffffffff1681526020018563ffffffff168152602001600063ffffffff1681525091505092915050565b61111261200a565b60405180606001604052808581526020018481526020018381525090509392505050565b61113e61202b565b6000600460ff168360ff161161115e57611157836118a8565b9050611163565b600190505b60018551036111b4576040518060400160405280600281526020017f3c3d00000000000000000000000000000000000000000000000000000000000081525094506001846111b19190612c94565b93505b6040518061010001604052808781526020018681526020018581526020018460ff1681526020018263ffffffff168152602001858152602001600063ffffffff1681526020016000815250915050949350505050565b61121261207f565b6040518060400160405280600063ffffffff1681526020018363ffffffff168152509050919050565b600081600560008573ffffffffffffffffffffffffffffffffffffffff1673ffffffffffffffffffffffffffffffffffffffff168152602001908152602001600020600082018160000190805461129190612bc8565b61129c9291906120a5565b506001820160009054906101000a900473ffffffffffffffffffffffffffffffffffffffff168160010160006101000a81548173ffffffffffffffffffffffffffffffffffffffff021916908373ffffffffffffffffffffffffffffffffffffffff1602179055506001820160149054906101000a900460ff168160010160146101000a81548160ff0219169083151502179055509050506001905092915050565b60008160006113528263ffffffff1661195f565b9050600a8151111561136357600080fd5b6000856000015163ffffffff16116113b0576040517f08c379a00000000000000000000000000000000000000000000000000000000081526004016113a790612d3a565b60405180910390fd5b846000015163ffffffff168463ffffffff16119250505092915050565b60018160000160098282829054906101000a900463ffffffff166113f19190612d5a565b92506101000a81548163ffffffff021916908363ffffffff16021790555050565b6000816006015411611459576040517f08c379a000000000000000000000000000000000000000000000000000000000815260040161145090612dda565b60405180910390fd5b8060040154816006015411156114a4576040517f08c379a000000000000000000000000000000000000000000000000000000000815260040161149b90612e6c565b60405180910390fd5b80600601548160040160008282546114bc9190612c94565b925050819055506000816006018190555050565b60006115028360000160049054906101000a900460ff1684600001600d9054906101000a900463ffffffff1684611abf565b15611512576115118383611b84565b5b60008360000160099054906101000a900463ffffffff1663ffffffff16111561153e5760019050611543565b600090505b92915050565b60008083602001519050602160f81b8160008151811061156c5761156b612a92565b5b602001015160f81c60f81b7effffffffffffffffffffffffffffffffffffffffffffffffffffffffffffff1916036115ae578360400151831415915050611735565b603d60f81b816000815181106115c7576115c6612a92565b5b602001015160f81c60f81b7effffffffffffffffffffffffffffffffffffffffffffffffffffffffffffff1916036116085783604001518314915050611735565b603c60f81b8160008151811061162157611620612a92565b5b602001015160f81c60f81b7effffffffffffffffffffffffffffffffffffffffffffffffffffffffffffff19160361167b57600281510361166c578360400151831315915050611735565b83604001518312915050611735565b603e60f81b8160008151811061169457611693612a92565b5b602001015160f81c60f81b7effffffffffffffffffffffffffffffffffffffffffffffffffffffffffffff1916036116ee5760028151036116df578360400151831215915050611735565b83604001518313915050611735565b600061172f576040517f08c379a000000000000000000000000000000000000000000000000000000000815260040161172690612ed8565b60405180910390fd5b60009150505b92915050565b600080821161177f576040517f08c379a000000000000000000000000000000000000000000000000000000000815260040161177690612f6a565b60405180910390fd5b6117af8460030160009054906101000a900460ff168560050160009054906101000a900463ffffffff1685611abf565b1561181457836002015484600401819055506117f18460030160019054906101000a900463ffffffff168560030160009054906101000a900460ff1685611c11565b8460050160006101000a81548163ffffffff021916908363ffffffff1602179055505b836004015482116118315781846006018190555060019050611836565b600090505b9392505050565b80600061184f8263ffffffff1661195f565b9050600a8151111561186057600080fd5b8360000160049054906101000a900463ffffffff16836118809190612f8a565b8460000160006101000a81548163ffffffff021916908363ffffffff16021790555050505050565b6000600460ff168260ff1611156118f4576040517f08c379a00000000000000000000000000000000000000000000000000000000081526004016118eb90613036565b60405180910390fd5b600060ff168260ff160361190b576001905061195a565b600160ff168260ff160361192257603c905061195a565b600260ff168260ff160361193a57610e10905061195a565b600360ff168260ff16036119535762015180905061195a565b62093a8090505b919050565b6060600082036119a6576040518060400160405280600181526020017f30000000000000000000000000000000000000000000000000000000000000008152509050611aba565b600082905060005b600082146119d85780806119c190613056565b915050600a826119d191906130cd565b91506119ae565b60008167ffffffffffffffff8111156119f4576119f361217e565b5b6040519080825280601f01601f191660200182016040528015611a265781602001600182028036833780820191505090505b5090505b60008514611ab357600182611a3f9190612c94565b9150600a85611a4e91906130fe565b6030611a5a919061312f565b60f81b818381518110611a7057611a6f612a92565b5b60200101907effffffffffffffffffffffffffffffffffffffffffffffffffffffffffffff1916908160001a905350600a85611aac91906130cd565b9450611a2a565b8093505050505b919050565b600080849050600460ff168160ff1611611aeb578363ffffffff168363ffffffff161015915050611b7d565b600560ff168160ff1603611b53576000611b0a8463ffffffff16611ca4565b50915050600d8563ffffffff16148015611b2a575060018163ffffffff16145b15611b3a57600192505050611b7d565b8463ffffffff168163ffffffff16101592505050611b7d565b6000611b648463ffffffff16611ca4565b505090508463ffffffff168163ffffffff161015925050505b9392505050565b8160000160009054906101000a900463ffffffff168260000160096101000a81548163ffffffff021916908363ffffffff160217905550611beb8260000160059054906101000a900463ffffffff168360000160049054906101000a900460ff1683611c11565b82600001600d6101000a81548163ffffffff021916908363ffffffff1602179055505050565b6000600460ff168360ff1611611c3357611c2c838386611e57565b9050611c9d565b600560ff168360ff1603611c71576000611c528363ffffffff16611ca4565b5063ffffffff16915050600181611c69919061312f565b915050611c9d565b6000611c828363ffffffff16611ca4565b505063ffffffff169050600181611c99919061312f565b9150505b9392505050565b6000806000806201518063ffffffff1685611cbf91906130cd565b9050600062253d8c62010bd983611cd69190612f8a565b611ce09190612f8a565b9050600062023ab1826004611cf59190613185565b611cff91906131c3565b9050600460038262023ab1611d149190613185565b611d1e9190612f8a565b611d2891906131c3565b82611d339190612d5a565b9150600062164b09600184611d489190612f8a565b610fa0611d559190613185565b611d5f91906131c3565b9050601f6004826105b5611d739190613185565b611d7d91906131c3565b84611d889190612d5a565b611d929190612f8a565b9250600061098f846050611da69190613185565b611db091906131c3565b9050600060508261098f611dc49190613185565b611dce91906131c3565b85611dd99190612d5a565b9050600b82611de891906131c3565b945084600c611df79190613185565b600283611e049190612f8a565b611e0e9190612d5a565b91508483603186611e1f9190612d5a565b6064611e2b9190613185565b611e359190612f8a565b611e3f9190612f8a565b92508298508197508096505050505050509193909250565b6000808284611e6691906131f4565b905060008184611e769190612d5a565b9050600460ff168660ff1603611ea9576203f4808186611e969190612f8a565b611ea09190612f8a565b92505050611eba565b8085611eb59190612f8a565b925050505b9392505050565b508054611ecd90612bc8565b6000825580601f10611edf5750611efe565b601f016020900490600052602060002090810190611efd9190612132565b5b50565b828054611f0d90612bc8565b90600052602060002090601f016020900481019282611f2f5760008555611f76565b82601f10611f4857805160ff1916838001178555611f76565b82800160010185558215611f76579182015b82811115611f75578251825591602001919060010190611f5a565b5b509050611f839190612132565b5090565b604051806060016040528060608152602001600073ffffffffffffffffffffffffffffffffffffffff1681526020016000151581525090565b6040518060a00160405280600063ffffffff168152602001600060ff168152602001600063ffffffff168152602001600063ffffffff168152602001600063ffffffff1681525090565b60405180606001604052806060815260200160608152602001600081525090565b604051806101000160405280606081526020016060815260200160008152602001600060ff168152602001600063ffffffff16815260200160008152602001600063ffffffff168152602001600081525090565b6040518060400160405280600063ffffffff168152602001600063ffffffff1681525090565b8280546120b190612bc8565b90600052602060002090601f0160209004810192826120d35760008555612121565b82601f106120e45780548555612121565b8280016001018555821561212157600052602060002091601f016020900482015b82811115612120578254825591600101919060010190612105565b5b50905061212e9190612132565b5090565b5b8082111561214b576000816000905550600101612133565b5090565b6000604051905090565b600080fd5b600080fd5b600080fd5b600080fd5b6000601f19601f8301169050919050565b7f4e487b7100000000000000000000000000000000000000000000000000000000600052604160045260246000fd5b6121b68261216d565b810181811067ffffffffffffffff821117156121d5576121d461217e565b5b80604052505050565b60006121e861214f565b90506121f482826121ad565b919050565b600067ffffffffffffffff8211156122145761221361217e565b5b61221d8261216d565b9050602081019050919050565b82818337600083830152505050565b600061224c612247846121f9565b6121de565b90508281526020810184848401111561226857612267612168565b5b61227384828561222a565b509392505050565b600082601f8301126122905761228f612163565b5b81356122a0848260208601612239565b91505092915050565b600073ffffffffffffffffffffffffffffffffffffffff82169050919050565b60006122d4826122a9565b9050919050565b6122e4816122c9565b81146122ef57600080fd5b50565b600081359050612301816122db565b92915050565b6000806040838503121561231e5761231d612159565b5b600083013567ffffffffffffffff81111561233c5761233b61215e565b5b6123488582860161227b565b9250506020612359858286016122f2565b9150509250929050565b60008115159050919050565b61237881612363565b82525050565b6000602082019050612393600083018461236f565b92915050565b6123a2816122c9565b82525050565b60006020820190506123bd6000830184612399565b92915050565b600063ffffffff82169050919050565b6123dc816123c3565b81146123e757600080fd5b50565b6000813590506123f9816123d3565b92915050565b60006020828403121561241557612414612159565b5b6000612423848285016123ea565b91505092915050565b600067ffffffffffffffff8211156124475761244661217e565b5b602082029050602081019050919050565b600080fd5b6000819050919050565b6124708161245d565b811461247b57600080fd5b50565b60008135905061248d81612467565b92915050565b60006124a66124a18461242c565b6121de565b905080838252602082019050602084028301858111156124c9576124c8612458565b5b835b818110156124f257806124de888261247e565b8452602084019350506020810190506124cb565b5050509392505050565b600082601f83011261251157612510612163565b5b8135612521848260208601612493565b91505092915050565b600067ffffffffffffffff8211156125455761254461217e565b5b602082029050602081019050919050565b6000819050919050565b61256981612556565b811461257457600080fd5b50565b60008135905061258681612560565b92915050565b600061259f61259a8461252a565b6121de565b905080838252602082019050602084028301858111156125c2576125c1612458565b5b835b818110156125eb57806125d78882612577565b8452602084019350506020810190506125c4565b5050509392505050565b600082601f83011261260a57612609612163565b5b813561261a84826020860161258c565b91505092915050565b60008060006060848603121561263c5761263b612159565b5b600061264a868287016123ea565b935050602084013567ffffffffffffffff81111561266b5761266a61215e565b5b612677868287016124fc565b925050604084013567ffffffffffffffff8111156126985761269761215e565b5b6126a4868287016125f5565b9150509250925092565b6000602082840312156126c4576126c3612159565b5b60006126d2848285016122f2565b91505092915050565b600081519050919050565b600082825260208201905092915050565b60005b838110156127155780820151818401526020810190506126fa565b83811115612724576000848401525b50505050565b6000612735826126db565b61273f81856126e6565b935061274f8185602086016126f7565b6127588161216d565b840191505092915050565b61276c816122c9565b82525050565b61277b81612363565b82525050565b6000606083016000830151848203600086015261279e828261272a565b91505060208301516127b36020860182612763565b5060408301516127c66040860182612772565b508091505092915050565b600060208201905081810360008301526127eb8184612781565b905092915050565b600082825260208201905092915050565b7f4f6e6c79207468652070726f636573732063616e20657865637574652074686960008201527f73206f7065726174696f6e000000000000000000000000000000000000000000602082015250565b6000612860602b836127f3565b915061286b82612804565b604082019050919050565b6000602082019050818103600083015261288f81612853565b9050919050565b7f5468697320636f6e747261637420697320646561637469766174656400000000600082015250565b60006128cc601c836127f3565b91506128d782612896565b602082019050919050565b600060208201905081810360008301526128fb816128bf565b9050919050565b7f4f6e6c79207468652070726f63657373206f7220746865206170706c6963617460008201527f696f6e2063616e20657865637574652074686973206f7065726174696f6e0000602082015250565b600061295e603e836127f3565b915061296982612902565b604082019050919050565b6000602082019050818103600083015261298d81612951565b9050919050565b7f4f6e6c7920746865206170706c69636174696f6e2063616e206578656375746560008201527f2074686973206f7065726174696f6e0000000000000000000000000000000000602082015250565b60006129f0602f836127f3565b91506129fb82612994565b604082019050919050565b60006020820190508181036000830152612a1f816129e3565b9050919050565b7f54686520636f6e747261637420697320616c7265616479207369676e65640000600082015250565b6000612a5c601e836127f3565b9150612a6782612a26565b602082019050919050565b60006020820190508181036000830152612a8b81612a4f565b9050919050565b7f4e487b7100000000000000000000000000000000000000000000000000000000600052603260045260246000fd5b7f5375636365737366756c20657865637574696f6e210000000000000000000000600082015250565b6000612af76015836127f3565b9150612b0282612ac1565b602082019050919050565b60006020820190508181036000830152612b2681612aea565b9050919050565b7f436f6e646974696f6e206e6f74206d6565740000000000000000000000000000600082015250565b6000612b636012836127f3565b9150612b6e82612b2d565b602082019050919050565b60006020820190508181036000830152612b9281612b56565b9050919050565b7f4e487b7100000000000000000000000000000000000000000000000000000000600052602260045260246000fd5b60006002820490506001821680612be057607f821691505b602082108103612bf357612bf2612b99565b5b50919050565b7f45786365646564206e756d626572206f6620646f6375656d6e74730000000000600082015250565b6000612c2f601b836127f3565b9150612c3a82612bf9565b602082019050919050565b60006020820190508181036000830152612c5e81612c22565b9050919050565b7f4e487b7100000000000000000000000000000000000000000000000000000000600052601160045260246000fd5b6000612c9f82612556565b9150612caa83612556565b925082821015612cbd57612cbc612c65565b5b828203905092915050565b7f5468657265206973206e6f20656e6454696d652073657420696e2074696d656f60008201527f7574000000000000000000000000000000000000000000000000000000000000602082015250565b6000612d246022836127f3565b9150612d2f82612cc8565b604082019050919050565b60006020820190508181036000830152612d5381612d17565b9050919050565b6000612d65826123c3565b9150612d70836123c3565b925082821015612d8357612d82612c65565b5b828203905092915050565b7f546865726520696e206e6f20636f6e74656e7420746f2064656372656173652e600082015250565b6000612dc46020836127f3565b9150612dcf82612d8e565b602082019050919050565b60006020820190508181036000830152612df381612db7565b9050919050565b7f546865206d65737361676520636f6e74656e74206e756d62657220697320677260008201527f6561746572207468616e207468652072656d61696e696e6720616d6f756e7400602082015250565b6000612e56603f836127f3565b9150612e6182612dfa565b604082019050919050565b60006020820190508181036000830152612e8581612e49565b9050919050565b7f436f6d70617269736f6e2073796d626f6c206973206e6f742076616c69640000600082015250565b6000612ec2601e836127f3565b9150612ecd82612e8c565b602082019050919050565b60006020820190508181036000830152612ef181612eb5565b9050919050565b7f54686520726573756c74206f66207468652078706174682073686f756c64206260008201527f65206d6f7265207468616e203000000000000000000000000000000000000000602082015250565b6000612f54602d836127f3565b9150612f5f82612ef8565b604082019050919050565b60006020820190508181036000830152612f8381612f47565b9050919050565b6000612f95826123c3565b9150612fa0836123c3565b92508263ffffffff03821115612fb957612fb8612c65565b5b828201905092915050565b7f546865206d6574686f642067657454696d65496e5365636f6e647320646f657360008201527f6e277420776f726b20666f72204d4f4e544820616e6420594541520000000000602082015250565b6000613020603b836127f3565b915061302b82612fc4565b604082019050919050565b6000602082019050818103600083015261304f81613013565b9050919050565b600061306182612556565b91507fffffffffffffffffffffffffffffffffffffffffffffffffffffffffffffffff820361309357613092612c65565b5b600182019050919050565b7f4e487b7100000000000000000000000000000000000000000000000000000000600052601260045260246000fd5b60006130d882612556565b91506130e383612556565b9250826130f3576130f261309e565b5b828204905092915050565b600061310982612556565b915061311483612556565b9250826131245761312361309e565b5b828206905092915050565b600061313a82612556565b915061314583612556565b9250827fffffffffffffffffffffffffffffffffffffffffffffffffffffffffffffffff0382111561317a57613179612c65565b5b828201905092915050565b6000613190826123c3565b915061319b836123c3565b92508163ffffffff04831182151516156131b8576131b7612c65565b5b828202905092915050565b60006131ce826123c3565b91506131d9836123c3565b9250826131e9576131e861309e565b5b828204905092915050565b60006131ff826123c3565b915061320a836123c3565b92508261321a5761321961309e565b5b82820690509291505056fea2646970667358221220b0a9789748588a97193ac936c7bf56b4bde4bafeb70f3e14cb0370d5808ae88a64736f6c634300080d0033",
					"opcodes": "PUSH1 0x80 PUSH1 0x40 MSTORE CALLVALUE DUP1 ISZERO PUSH3 0x11 JUMPI PUSH1 0x0 DUP1 REVERT JUMPDEST POP PUSH1 0x40 MLOAD PUSH3 0x420E CODESIZE SUB DUP1 PUSH3 0x420E DUP4 CODECOPY DUP2 DUP2 ADD PUSH1 0x40 MSTORE DUP2 ADD SWAP1 PUSH3 0x37 SWAP2 SWAP1 PUSH3 0xDF0 JUMP JUMPDEST PUSH1 0x1 PUSH1 0x0 DUP1 PUSH2 0x100 EXP DUP2 SLOAD DUP2 PUSH1 0xFF MUL NOT AND SWAP1 DUP4 ISZERO ISZERO MUL OR SWAP1 SSTORE POP PUSH4 0x63B13D80 PUSH1 0x0 PUSH1 0x1 PUSH2 0x100 EXP DUP2 SLOAD DUP2 PUSH4 0xFFFFFFFF MUL NOT AND SWAP1 DUP4 PUSH4 0xFFFFFFFF AND MUL OR SWAP1 SSTORE POP PUSH4 0x6591AC20 PUSH1 0x0 PUSH1 0x5 PUSH2 0x100 EXP DUP2 SLOAD DUP2 PUSH4 0xFFFFFFFF MUL NOT AND SWAP1 DUP4 PUSH4 0xFFFFFFFF AND MUL OR SWAP1 SSTORE POP PUSH3 0xE9 PUSH1 0x40 MLOAD DUP1 PUSH1 0x40 ADD PUSH1 0x40 MSTORE DUP1 PUSH1 0xE DUP2 MSTORE PUSH1 0x20 ADD PUSH32 0x576562204F6620536369656E6365000000000000000000000000000000000000 DUP2 MSTORE POP DUP3 PUSH1 0x0 PUSH3 0x84F PUSH1 0x20 SHL PUSH3 0x104D OR PUSH1 0x20 SHR JUMP JUMPDEST PUSH1 0x1 PUSH1 0x0 DUP3 ADD MLOAD DUP2 PUSH1 0x0 ADD SWAP1 DUP1 MLOAD SWAP1 PUSH1 0x20 ADD SWAP1 PUSH3 0x109 SWAP3 SWAP2 SWAP1 PUSH3 0xB20 JUMP JUMPDEST POP PUSH1 0x20 DUP3 ADD MLOAD DUP2 PUSH1 0x1 ADD PUSH1 0x0 PUSH2 0x100 EXP DUP2 SLOAD DUP2 PUSH20 0xFFFFFFFFFFFFFFFFFFFFFFFFFFFFFFFFFFFFFFFF MUL NOT AND SWAP1 DUP4 PUSH20 0xFFFFFFFFFFFFFFFFFFFFFFFFFFFFFFFFFFFFFFFF AND MUL OR SWAP1 SSTORE POP PUSH1 0x40 DUP3 ADD MLOAD DUP2 PUSH1 0x1 ADD PUSH1 0x14 PUSH2 0x100 EXP DUP2 SLOAD DUP2 PUSH1 0xFF MUL NOT AND SWAP1 DUP4 ISZERO ISZERO MUL OR SWAP1 SSTORE POP SWAP1 POP POP PUSH3 0x1C2 PUSH1 0x40 MLOAD DUP1 PUSH1 0x40 ADD PUSH1 0x40 MSTORE DUP1 PUSH1 0x13 DUP2 MSTORE PUSH1 0x20 ADD PUSH32 0x496E746567726174696F6E2050726F6365737300000000000000000000000000 DUP2 MSTORE POP CALLER PUSH1 0x1 PUSH3 0x84F PUSH1 0x20 SHL PUSH3 0x104D OR PUSH1 0x20 SHR JUMP JUMPDEST PUSH1 0x3 PUSH1 0x0 DUP3 ADD MLOAD DUP2 PUSH1 0x0 ADD SWAP1 DUP1 MLOAD SWAP1 PUSH1 0x20 ADD SWAP1 PUSH3 0x1E2 SWAP3 SWAP2 SWAP1 PUSH3 0xB20 JUMP JUMPDEST POP PUSH1 0x20 DUP3 ADD MLOAD DUP2 PUSH1 0x1 ADD PUSH1 0x0 PUSH2 0x100 EXP DUP2 SLOAD DUP2 PUSH20 0xFFFFFFFFFFFFFFFFFFFFFFFFFFFFFFFFFFFFFFFF MUL NOT AND SWAP1 DUP4 PUSH20 0xFFFFFFFFFFFFFFFFFFFFFFFFFFFFFFFFFFFFFFFF AND MUL OR SWAP1 SSTORE POP PUSH1 0x40 DUP3 ADD MLOAD DUP2 PUSH1 0x1 ADD PUSH1 0x14 PUSH2 0x100 EXP DUP2 SLOAD DUP2 PUSH1 0xFF MUL NOT AND SWAP1 DUP4 ISZERO ISZERO MUL OR SWAP1 SSTORE POP SWAP1 POP POP PUSH1 0x3 PUSH1 0x5 PUSH1 0x0 CALLER PUSH20 0xFFFFFFFFFFFFFFFFFFFFFFFFFFFFFFFFFFFFFFFF AND PUSH20 0xFFFFFFFFFFFFFFFFFFFFFFFFFFFFFFFFFFFFFFFF AND DUP2 MSTORE PUSH1 0x20 ADD SWAP1 DUP2 MSTORE PUSH1 0x20 ADD PUSH1 0x0 KECCAK256 PUSH1 0x0 DUP3 ADD DUP2 PUSH1 0x0 ADD SWAP1 DUP1 SLOAD PUSH3 0x2A4 SWAP1 PUSH3 0xE51 JUMP JUMPDEST PUSH3 0x2B1 SWAP3 SWAP2 SWAP1 PUSH3 0xBB1 JUMP JUMPDEST POP PUSH1 0x1 DUP3 ADD PUSH1 0x0 SWAP1 SLOAD SWAP1 PUSH2 0x100 EXP SWAP1 DIV PUSH20 0xFFFFFFFFFFFFFFFFFFFFFFFFFFFFFFFFFFFFFFFF AND DUP2 PUSH1 0x1 ADD PUSH1 0x0 PUSH2 0x100 EXP DUP2 SLOAD DUP2 PUSH20 0xFFFFFFFFFFFFFFFFFFFFFFFFFFFFFFFFFFFFFFFF MUL NOT AND SWAP1 DUP4 PUSH20 0xFFFFFFFFFFFFFFFFFFFFFFFFFFFFFFFFFFFFFFFF AND MUL OR SWAP1 SSTORE POP PUSH1 0x1 DUP3 ADD PUSH1 0x14 SWAP1 SLOAD SWAP1 PUSH2 0x100 EXP SWAP1 DIV PUSH1 0xFF AND DUP2 PUSH1 0x1 ADD PUSH1 0x14 PUSH2 0x100 EXP DUP2 SLOAD DUP2 PUSH1 0xFF MUL NOT AND SWAP1 DUP4 ISZERO ISZERO MUL OR SWAP1 SSTORE POP SWAP1 POP POP PUSH1 0x1 PUSH1 0x5 PUSH1 0x0 DUP4 PUSH20 0xFFFFFFFFFFFFFFFFFFFFFFFFFFFFFFFFFFFFFFFF AND PUSH20 0xFFFFFFFFFFFFFFFFFFFFFFFFFFFFFFFFFFFFFFFF AND DUP2 MSTORE PUSH1 0x20 ADD SWAP1 DUP2 MSTORE PUSH1 0x20 ADD PUSH1 0x0 KECCAK256 PUSH1 0x0 DUP3 ADD DUP2 PUSH1 0x0 ADD SWAP1 DUP1 SLOAD PUSH3 0x3A0 SWAP1 PUSH3 0xE51 JUMP JUMPDEST PUSH3 0x3AD SWAP3 SWAP2 SWAP1 PUSH3 0xBB1 JUMP JUMPDEST POP PUSH1 0x1 DUP3 ADD PUSH1 0x0 SWAP1 SLOAD SWAP1 PUSH2 0x100 EXP SWAP1 DIV PUSH20 0xFFFFFFFFFFFFFFFFFFFFFFFFFFFFFFFFFFFFFFFF AND DUP2 PUSH1 0x1 ADD PUSH1 0x0 PUSH2 0x100 EXP DUP2 SLOAD DUP2 PUSH20 0xFFFFFFFFFFFFFFFFFFFFFFFFFFFFFFFFFFFFFFFF MUL NOT AND SWAP1 DUP4 PUSH20 0xFFFFFFFFFFFFFFFFFFFFFFFFFFFFFFFFFFFFFFFF AND MUL OR SWAP1 SSTORE POP PUSH1 0x1 DUP3 ADD PUSH1 0x14 SWAP1 SLOAD SWAP1 PUSH2 0x100 EXP SWAP1 DIV PUSH1 0xFF AND DUP2 PUSH1 0x1 ADD PUSH1 0x14 PUSH2 0x100 EXP DUP2 SLOAD DUP2 PUSH1 0xFF MUL NOT AND SWAP1 DUP4 ISZERO ISZERO MUL OR SWAP1 SSTORE POP SWAP1 POP POP PUSH1 0x6 PUSH3 0x460 PUSH1 0x2 PUSH1 0x0 PUSH3 0x895 PUSH1 0x20 SHL PUSH3 0x1091 OR PUSH1 0x20 SHR JUMP JUMPDEST SWAP1 DUP1 PUSH1 0x1 DUP2 SLOAD ADD DUP1 DUP3 SSTORE DUP1 SWAP2 POP POP PUSH1 0x1 SWAP1 SUB SWAP1 PUSH1 0x0 MSTORE PUSH1 0x20 PUSH1 0x0 KECCAK256 ADD PUSH1 0x0 SWAP1 SWAP2 SWAP1 SWAP2 SWAP1 SWAP2 POP PUSH1 0x0 DUP3 ADD MLOAD DUP2 PUSH1 0x0 ADD PUSH1 0x0 PUSH2 0x100 EXP DUP2 SLOAD DUP2 PUSH4 0xFFFFFFFF MUL NOT AND SWAP1 DUP4 PUSH4 0xFFFFFFFF AND MUL OR SWAP1 SSTORE POP PUSH1 0x20 DUP3 ADD MLOAD DUP2 PUSH1 0x0 ADD PUSH1 0x4 PUSH2 0x100 EXP DUP2 SLOAD DUP2 PUSH1 0xFF MUL NOT AND SWAP1 DUP4 PUSH1 0xFF AND MUL OR SWAP1 SSTORE POP PUSH1 0x40 DUP3 ADD MLOAD DUP2 PUSH1 0x0 ADD PUSH1 0x5 PUSH2 0x100 EXP DUP2 SLOAD DUP2 PUSH4 0xFFFFFFFF MUL NOT AND SWAP1 DUP4 PUSH4 0xFFFFFFFF AND MUL OR SWAP1 SSTORE POP PUSH1 0x60 DUP3 ADD MLOAD DUP2 PUSH1 0x0 ADD PUSH1 0x9 PUSH2 0x100 EXP DUP2 SLOAD DUP2 PUSH4 0xFFFFFFFF MUL NOT AND SWAP1 DUP4 PUSH4 0xFFFFFFFF AND MUL OR SWAP1 SSTORE POP PUSH1 0x80 DUP3 ADD MLOAD DUP2 PUSH1 0x0 ADD PUSH1 0xD PUSH2 0x100 EXP DUP2 SLOAD DUP2 PUSH4 0xFFFFFFFF MUL NOT AND SWAP1 DUP4 PUSH4 0xFFFFFFFF AND MUL OR SWAP1 SSTORE POP POP POP PUSH1 0x7 PUSH3 0x5C9 PUSH1 0x40 MLOAD DUP1 PUSH1 0x40 ADD PUSH1 0x40 MSTORE DUP1 PUSH1 0x16 DUP2 MSTORE PUSH1 0x20 ADD PUSH32 0x636F756E74282F2F626F64792F646F63756D656E742900000000000000000000 DUP2 MSTORE POP PUSH1 0x40 MLOAD DUP1 PUSH1 0x40 ADD PUSH1 0x40 MSTORE DUP1 PUSH1 0x2 DUP2 MSTORE PUSH1 0x20 ADD PUSH32 0x3C3D000000000000000000000000000000000000000000000000000000000000 DUP2 MSTORE POP PUSH1 0x64 PUSH3 0x91A PUSH1 0x20 SHL PUSH3 0x110A OR PUSH1 0x20 SHR JUMP JUMPDEST SWAP1 DUP1 PUSH1 0x1 DUP2 SLOAD ADD DUP1 DUP3 SSTORE DUP1 SWAP2 POP POP PUSH1 0x1 SWAP1 SUB SWAP1 PUSH1 0x0 MSTORE PUSH1 0x20 PUSH1 0x0 KECCAK256 SWAP1 PUSH1 0x3 MUL ADD PUSH1 0x0 SWAP1 SWAP2 SWAP1 SWAP2 SWAP1 SWAP2 POP PUSH1 0x0 DUP3 ADD MLOAD DUP2 PUSH1 0x0 ADD SWAP1 DUP1 MLOAD SWAP1 PUSH1 0x20 ADD SWAP1 PUSH3 0x610 SWAP3 SWAP2 SWAP1 PUSH3 0xB20 JUMP JUMPDEST POP PUSH1 0x20 DUP3 ADD MLOAD DUP2 PUSH1 0x1 ADD SWAP1 DUP1 MLOAD SWAP1 PUSH1 0x20 ADD SWAP1 PUSH3 0x62F SWAP3 SWAP2 SWAP1 PUSH3 0xB20 JUMP JUMPDEST POP PUSH1 0x40 DUP3 ADD MLOAD DUP2 PUSH1 0x2 ADD SSTORE POP POP PUSH1 0x8 PUSH3 0x6C4 PUSH1 0x40 MLOAD DUP1 PUSH1 0x40 ADD PUSH1 0x40 MSTORE DUP1 PUSH1 0x16 DUP2 MSTORE PUSH1 0x20 ADD PUSH32 0x636F756E74282F2F626F64792F646F63756D656E742900000000000000000000 DUP2 MSTORE POP PUSH1 0x40 MLOAD DUP1 PUSH1 0x40 ADD PUSH1 0x40 MSTORE DUP1 PUSH1 0x2 DUP2 MSTORE PUSH1 0x20 ADD PUSH32 0x3C3D000000000000000000000000000000000000000000000000000000000000 DUP2 MSTORE POP PUSH2 0xC350 PUSH1 0x5 PUSH3 0x948 PUSH1 0x20 SHL PUSH3 0x1136 OR PUSH1 0x20 SHR JUMP JUMPDEST SWAP1 DUP1 PUSH1 0x1 DUP2 SLOAD ADD DUP1 DUP3 SSTORE DUP1 SWAP2 POP POP PUSH1 0x1 SWAP1 SUB SWAP1 PUSH1 0x0 MSTORE PUSH1 0x20 PUSH1 0x0 KECCAK256 SWAP1 PUSH1 0x7 MUL ADD PUSH1 0x0 SWAP1 SWAP2 SWAP1 SWAP2 SWAP1 SWAP2 POP PUSH1 0x0 DUP3 ADD MLOAD DUP2 PUSH1 0x0 ADD SWAP1 DUP1 MLOAD SWAP1 PUSH1 0x20 ADD SWAP1 PUSH3 0x70B SWAP3 SWAP2 SWAP1 PUSH3 0xB20 JUMP JUMPDEST POP PUSH1 0x20 DUP3 ADD MLOAD DUP2 PUSH1 0x1 ADD SWAP1 DUP1 MLOAD SWAP1 PUSH1 0x20 ADD SWAP1 PUSH3 0x72A SWAP3 SWAP2 SWAP1 PUSH3 0xB20 JUMP JUMPDEST POP PUSH1 0x40 DUP3 ADD MLOAD DUP2 PUSH1 0x2 ADD SSTORE PUSH1 0x60 DUP3 ADD MLOAD DUP2 PUSH1 0x3 ADD PUSH1 0x0 PUSH2 0x100 EXP DUP2 SLOAD DUP2 PUSH1 0xFF MUL NOT AND SWAP1 DUP4 PUSH1 0xFF AND MUL OR SWAP1 SSTORE POP PUSH1 0x80 DUP3 ADD MLOAD DUP2 PUSH1 0x3 ADD PUSH1 0x1 PUSH2 0x100 EXP DUP2 SLOAD DUP2 PUSH4 0xFFFFFFFF MUL NOT AND SWAP1 DUP4 PUSH4 0xFFFFFFFF AND MUL OR SWAP1 SSTORE POP PUSH1 0xA0 DUP3 ADD MLOAD DUP2 PUSH1 0x4 ADD SSTORE PUSH1 0xC0 DUP3 ADD MLOAD DUP2 PUSH1 0x5 ADD PUSH1 0x0 PUSH2 0x100 EXP DUP2 SLOAD DUP2 PUSH4 0xFFFFFFFF MUL NOT AND SWAP1 DUP4 PUSH4 0xFFFFFFFF AND MUL OR SWAP1 SSTORE POP PUSH1 0xE0 DUP3 ADD MLOAD DUP2 PUSH1 0x6 ADD SSTORE POP POP PUSH1 0x9 PUSH3 0x7D3 PUSH1 0x3C PUSH3 0xA2B PUSH1 0x20 SHL PUSH3 0x120A OR PUSH1 0x20 SHR JUMP JUMPDEST SWAP1 DUP1 PUSH1 0x1 DUP2 SLOAD ADD DUP1 DUP3 SSTORE DUP1 SWAP2 POP POP PUSH1 0x1 SWAP1 SUB SWAP1 PUSH1 0x0 MSTORE PUSH1 0x20 PUSH1 0x0 KECCAK256 ADD PUSH1 0x0 SWAP1 SWAP2 SWAP1 SWAP2 SWAP1 SWAP2 POP PUSH1 0x0 DUP3 ADD MLOAD DUP2 PUSH1 0x0 ADD PUSH1 0x0 PUSH2 0x100 EXP DUP2 SLOAD DUP2 PUSH4 0xFFFFFFFF MUL NOT AND SWAP1 DUP4 PUSH4 0xFFFFFFFF AND MUL OR SWAP1 SSTORE POP PUSH1 0x20 DUP3 ADD MLOAD DUP2 PUSH1 0x0 ADD PUSH1 0x4 PUSH2 0x100 EXP DUP2 SLOAD DUP2 PUSH4 0xFFFFFFFF MUL NOT AND SWAP1 DUP4 PUSH4 0xFFFFFFFF AND MUL OR SWAP1 SSTORE POP POP POP POP PUSH3 0xFA3 JUMP JUMPDEST PUSH3 0x859 PUSH3 0xC49 JUMP JUMPDEST PUSH1 0x40 MLOAD DUP1 PUSH1 0x60 ADD PUSH1 0x40 MSTORE DUP1 DUP6 DUP2 MSTORE PUSH1 0x20 ADD DUP5 PUSH20 0xFFFFFFFFFFFFFFFFFFFFFFFFFFFFFFFFFFFFFFFF AND DUP2 MSTORE PUSH1 0x20 ADD DUP4 ISZERO ISZERO DUP2 MSTORE POP SWAP1 POP SWAP4 SWAP3 POP POP POP JUMP JUMPDEST PUSH3 0x89F PUSH3 0xC82 JUMP JUMPDEST PUSH1 0x0 PUSH1 0x4 PUSH1 0xFF AND DUP4 PUSH1 0xFF AND GT PUSH3 0x8C9 JUMPI PUSH3 0x8C1 DUP4 PUSH3 0xA5E PUSH1 0x20 SHL PUSH1 0x20 SHR JUMP JUMPDEST SWAP1 POP PUSH3 0x8CE JUMP JUMPDEST PUSH1 0x1 SWAP1 POP JUMPDEST PUSH1 0x40 MLOAD DUP1 PUSH1 0xA0 ADD PUSH1 0x40 MSTORE DUP1 DUP6 PUSH4 0xFFFFFFFF AND DUP2 MSTORE PUSH1 0x20 ADD DUP5 PUSH1 0xFF AND DUP2 MSTORE PUSH1 0x20 ADD DUP3 PUSH4 0xFFFFFFFF AND DUP2 MSTORE PUSH1 0x20 ADD DUP6 PUSH4 0xFFFFFFFF AND DUP2 MSTORE PUSH1 0x20 ADD PUSH1 0x0 PUSH4 0xFFFFFFFF AND DUP2 MSTORE POP SWAP2 POP POP SWAP3 SWAP2 POP POP JUMP JUMPDEST PUSH3 0x924 PUSH3 0xCCC JUMP JUMPDEST PUSH1 0x40 MLOAD DUP1 PUSH1 0x60 ADD PUSH1 0x40 MSTORE DUP1 DUP6 DUP2 MSTORE PUSH1 0x20 ADD DUP5 DUP2 MSTORE PUSH1 0x20 ADD DUP4 DUP2 MSTORE POP SWAP1 POP SWAP4 SWAP3 POP POP POP JUMP JUMPDEST PUSH3 0x952 PUSH3 0xCED JUMP JUMPDEST PUSH1 0x0 PUSH1 0x4 PUSH1 0xFF AND DUP4 PUSH1 0xFF AND GT PUSH3 0x97C JUMPI PUSH3 0x974 DUP4 PUSH3 0xA5E PUSH1 0x20 SHL PUSH1 0x20 SHR JUMP JUMPDEST SWAP1 POP PUSH3 0x981 JUMP JUMPDEST PUSH1 0x1 SWAP1 POP JUMPDEST PUSH1 0x1 DUP6 MLOAD SUB PUSH3 0x9D5 JUMPI PUSH1 0x40 MLOAD DUP1 PUSH1 0x40 ADD PUSH1 0x40 MSTORE DUP1 PUSH1 0x2 DUP2 MSTORE PUSH1 0x20 ADD PUSH32 0x3C3D000000000000000000000000000000000000000000000000000000000000 DUP2 MSTORE POP SWAP5 POP PUSH1 0x1 DUP5 PUSH3 0x9D2 SWAP2 SWAP1 PUSH3 0xEBF JUMP JUMPDEST SWAP4 POP JUMPDEST PUSH1 0x40 MLOAD DUP1 PUSH2 0x100 ADD PUSH1 0x40 MSTORE DUP1 DUP8 DUP2 MSTORE PUSH1 0x20 ADD DUP7 DUP2 MSTORE PUSH1 0x20 ADD DUP6 DUP2 MSTORE PUSH1 0x20 ADD DUP5 PUSH1 0xFF AND DUP2 MSTORE PUSH1 0x20 ADD DUP3 PUSH4 0xFFFFFFFF AND DUP2 MSTORE PUSH1 0x20 ADD DUP6 DUP2 MSTORE PUSH1 0x20 ADD PUSH1 0x0 PUSH4 0xFFFFFFFF AND DUP2 MSTORE PUSH1 0x20 ADD PUSH1 0x0 DUP2 MSTORE POP SWAP2 POP POP SWAP5 SWAP4 POP POP POP POP JUMP JUMPDEST PUSH3 0xA35 PUSH3 0xD41 JUMP JUMPDEST PUSH1 0x40 MLOAD DUP1 PUSH1 0x40 ADD PUSH1 0x40 MSTORE DUP1 PUSH1 0x0 PUSH4 0xFFFFFFFF AND DUP2 MSTORE PUSH1 0x20 ADD DUP4 PUSH4 0xFFFFFFFF AND DUP2 MSTORE POP SWAP1 POP SWAP2 SWAP1 POP JUMP JUMPDEST PUSH1 0x0 PUSH1 0x4 PUSH1 0xFF AND DUP3 PUSH1 0xFF AND GT ISZERO PUSH3 0xAAD JUMPI PUSH1 0x40 MLOAD PUSH32 0x8C379A000000000000000000000000000000000000000000000000000000000 DUP2 MSTORE PUSH1 0x4 ADD PUSH3 0xAA4 SWAP1 PUSH3 0xF81 JUMP JUMPDEST PUSH1 0x40 MLOAD DUP1 SWAP2 SUB SWAP1 REVERT JUMPDEST PUSH1 0x0 PUSH1 0xFF AND DUP3 PUSH1 0xFF AND SUB PUSH3 0xAC6 JUMPI PUSH1 0x1 SWAP1 POP PUSH3 0xB1B JUMP JUMPDEST PUSH1 0x1 PUSH1 0xFF AND DUP3 PUSH1 0xFF AND SUB PUSH3 0xADF JUMPI PUSH1 0x3C SWAP1 POP PUSH3 0xB1B JUMP JUMPDEST PUSH1 0x2 PUSH1 0xFF AND DUP3 PUSH1 0xFF AND SUB PUSH3 0xAF9 JUMPI PUSH2 0xE10 SWAP1 POP PUSH3 0xB1B JUMP JUMPDEST PUSH1 0x3 PUSH1 0xFF AND DUP3 PUSH1 0xFF AND SUB PUSH3 0xB14 JUMPI PUSH3 0x15180 SWAP1 POP PUSH3 0xB1B JUMP JUMPDEST PUSH3 0x93A80 SWAP1 POP JUMPDEST SWAP2 SWAP1 POP JUMP JUMPDEST DUP3 DUP1 SLOAD PUSH3 0xB2E SWAP1 PUSH3 0xE51 JUMP JUMPDEST SWAP1 PUSH1 0x0 MSTORE PUSH1 0x20 PUSH1 0x0 KECCAK256 SWAP1 PUSH1 0x1F ADD PUSH1 0x20 SWAP1 DIV DUP2 ADD SWAP3 DUP3 PUSH3 0xB52 JUMPI PUSH1 0x0 DUP6 SSTORE PUSH3 0xB9E JUMP JUMPDEST DUP3 PUSH1 0x1F LT PUSH3 0xB6D JUMPI DUP1 MLOAD PUSH1 0xFF NOT AND DUP4 DUP1 ADD OR DUP6 SSTORE PUSH3 0xB9E JUMP JUMPDEST DUP3 DUP1 ADD PUSH1 0x1 ADD DUP6 SSTORE DUP3 ISZERO PUSH3 0xB9E JUMPI SWAP2 DUP3 ADD JUMPDEST DUP3 DUP2 GT ISZERO PUSH3 0xB9D JUMPI DUP3 MLOAD DUP3 SSTORE SWAP2 PUSH1 0x20 ADD SWAP2 SWAP1 PUSH1 0x1 ADD SWAP1 PUSH3 0xB80 JUMP JUMPDEST JUMPDEST POP SWAP1 POP PUSH3 0xBAD SWAP2 SWAP1 PUSH3 0xD67 JUMP JUMPDEST POP SWAP1 JUMP JUMPDEST DUP3 DUP1 SLOAD PUSH3 0xBBF SWAP1 PUSH3 0xE51 JUMP JUMPDEST SWAP1 PUSH1 0x0 MSTORE PUSH1 0x20 PUSH1 0x0 KECCAK256 SWAP1 PUSH1 0x1F ADD PUSH1 0x20 SWAP1 DIV DUP2 ADD SWAP3 DUP3 PUSH3 0xBE3 JUMPI PUSH1 0x0 DUP6 SSTORE PUSH3 0xC36 JUMP JUMPDEST DUP3 PUSH1 0x1F LT PUSH3 0xBF6 JUMPI DUP1 SLOAD DUP6 SSTORE PUSH3 0xC36 JUMP JUMPDEST DUP3 DUP1 ADD PUSH1 0x1 ADD DUP6 SSTORE DUP3 ISZERO PUSH3 0xC36 JUMPI PUSH1 0x0 MSTORE PUSH1 0x20 PUSH1 0x0 KECCAK256 SWAP2 PUSH1 0x1F ADD PUSH1 0x20 SWAP1 DIV DUP3 ADD JUMPDEST DUP3 DUP2 GT ISZERO PUSH3 0xC35 JUMPI DUP3 SLOAD DUP3 SSTORE SWAP2 PUSH1 0x1 ADD SWAP2 SWAP1 PUSH1 0x1 ADD SWAP1 PUSH3 0xC18 JUMP JUMPDEST JUMPDEST POP SWAP1 POP PUSH3 0xC45 SWAP2 SWAP1 PUSH3 0xD67 JUMP JUMPDEST POP SWAP1 JUMP JUMPDEST PUSH1 0x40 MLOAD DUP1 PUSH1 0x60 ADD PUSH1 0x40 MSTORE DUP1 PUSH1 0x60 DUP2 MSTORE PUSH1 0x20 ADD PUSH1 0x0 PUSH20 0xFFFFFFFFFFFFFFFFFFFFFFFFFFFFFFFFFFFFFFFF AND DUP2 MSTORE PUSH1 0x20 ADD PUSH1 0x0 ISZERO ISZERO DUP2 MSTORE POP SWAP1 JUMP JUMPDEST PUSH1 0x40 MLOAD DUP1 PUSH1 0xA0 ADD PUSH1 0x40 MSTORE DUP1 PUSH1 0x0 PUSH4 0xFFFFFFFF AND DUP2 MSTORE PUSH1 0x20 ADD PUSH1 0x0 PUSH1 0xFF AND DUP2 MSTORE PUSH1 0x20 ADD PUSH1 0x0 PUSH4 0xFFFFFFFF AND DUP2 MSTORE PUSH1 0x20 ADD PUSH1 0x0 PUSH4 0xFFFFFFFF AND DUP2 MSTORE PUSH1 0x20 ADD PUSH1 0x0 PUSH4 0xFFFFFFFF AND DUP2 MSTORE POP SWAP1 JUMP JUMPDEST PUSH1 0x40 MLOAD DUP1 PUSH1 0x60 ADD PUSH1 0x40 MSTORE DUP1 PUSH1 0x60 DUP2 MSTORE PUSH1 0x20 ADD PUSH1 0x60 DUP2 MSTORE PUSH1 0x20 ADD PUSH1 0x0 DUP2 MSTORE POP SWAP1 JUMP JUMPDEST PUSH1 0x40 MLOAD DUP1 PUSH2 0x100 ADD PUSH1 0x40 MSTORE DUP1 PUSH1 0x60 DUP2 MSTORE PUSH1 0x20 ADD PUSH1 0x60 DUP2 MSTORE PUSH1 0x20 ADD PUSH1 0x0 DUP2 MSTORE PUSH1 0x20 ADD PUSH1 0x0 PUSH1 0xFF AND DUP2 MSTORE PUSH1 0x20 ADD PUSH1 0x0 PUSH4 0xFFFFFFFF AND DUP2 MSTORE PUSH1 0x20 ADD PUSH1 0x0 DUP2 MSTORE PUSH1 0x20 ADD PUSH1 0x0 PUSH4 0xFFFFFFFF AND DUP2 MSTORE PUSH1 0x20 ADD PUSH1 0x0 DUP2 MSTORE POP SWAP1 JUMP JUMPDEST PUSH1 0x40 MLOAD DUP1 PUSH1 0x40 ADD PUSH1 0x40 MSTORE DUP1 PUSH1 0x0 PUSH4 0xFFFFFFFF AND DUP2 MSTORE PUSH1 0x20 ADD PUSH1 0x0 PUSH4 0xFFFFFFFF AND DUP2 MSTORE POP SWAP1 JUMP JUMPDEST JUMPDEST DUP1 DUP3 GT ISZERO PUSH3 0xD82 JUMPI PUSH1 0x0 DUP2 PUSH1 0x0 SWAP1 SSTORE POP PUSH1 0x1 ADD PUSH3 0xD68 JUMP JUMPDEST POP SWAP1 JUMP JUMPDEST PUSH1 0x0 DUP1 REVERT JUMPDEST PUSH1 0x0 PUSH20 0xFFFFFFFFFFFFFFFFFFFFFFFFFFFFFFFFFFFFFFFF DUP3 AND SWAP1 POP SWAP2 SWAP1 POP JUMP JUMPDEST PUSH1 0x0 PUSH3 0xDB8 DUP3 PUSH3 0xD8B JUMP JUMPDEST SWAP1 POP SWAP2 SWAP1 POP JUMP JUMPDEST PUSH3 0xDCA DUP2 PUSH3 0xDAB JUMP JUMPDEST DUP2 EQ PUSH3 0xDD6 JUMPI PUSH1 0x0 DUP1 REVERT JUMPDEST POP JUMP JUMPDEST PUSH1 0x0 DUP2 MLOAD SWAP1 POP PUSH3 0xDEA DUP2 PUSH3 0xDBF JUMP JUMPDEST SWAP3 SWAP2 POP POP JUMP JUMPDEST PUSH1 0x0 PUSH1 0x20 DUP3 DUP5 SUB SLT ISZERO PUSH3 0xE09 JUMPI PUSH3 0xE08 PUSH3 0xD86 JUMP JUMPDEST JUMPDEST PUSH1 0x0 PUSH3 0xE19 DUP5 DUP3 DUP6 ADD PUSH3 0xDD9 JUMP JUMPDEST SWAP2 POP POP SWAP3 SWAP2 POP POP JUMP JUMPDEST PUSH32 0x4E487B7100000000000000000000000000000000000000000000000000000000 PUSH1 0x0 MSTORE PUSH1 0x22 PUSH1 0x4 MSTORE PUSH1 0x24 PUSH1 0x0 REVERT JUMPDEST PUSH1 0x0 PUSH1 0x2 DUP3 DIV SWAP1 POP PUSH1 0x1 DUP3 AND DUP1 PUSH3 0xE6A JUMPI PUSH1 0x7F DUP3 AND SWAP2 POP JUMPDEST PUSH1 0x20 DUP3 LT DUP2 SUB PUSH3 0xE80 JUMPI PUSH3 0xE7F PUSH3 0xE22 JUMP JUMPDEST JUMPDEST POP SWAP2 SWAP1 POP JUMP JUMPDEST PUSH1 0x0 DUP2 SWAP1 POP SWAP2 SWAP1 POP JUMP JUMPDEST PUSH32 0x4E487B7100000000000000000000000000000000000000000000000000000000 PUSH1 0x0 MSTORE PUSH1 0x11 PUSH1 0x4 MSTORE PUSH1 0x24 PUSH1 0x0 REVERT JUMPDEST PUSH1 0x0 PUSH3 0xECC DUP3 PUSH3 0xE86 JUMP JUMPDEST SWAP2 POP PUSH3 0xED9 DUP4 PUSH3 0xE86 JUMP JUMPDEST SWAP3 POP DUP3 DUP3 LT ISZERO PUSH3 0xEEF JUMPI PUSH3 0xEEE PUSH3 0xE90 JUMP JUMPDEST JUMPDEST DUP3 DUP3 SUB SWAP1 POP SWAP3 SWAP2 POP POP JUMP JUMPDEST PUSH1 0x0 DUP3 DUP3 MSTORE PUSH1 0x20 DUP3 ADD SWAP1 POP SWAP3 SWAP2 POP POP JUMP JUMPDEST PUSH32 0x546865206D6574686F642067657454696D65496E5365636F6E647320646F6573 PUSH1 0x0 DUP3 ADD MSTORE PUSH32 0x6E277420776F726B20666F72204D4F4E544820616E6420594541520000000000 PUSH1 0x20 DUP3 ADD MSTORE POP JUMP JUMPDEST PUSH1 0x0 PUSH3 0xF69 PUSH1 0x3B DUP4 PUSH3 0xEFA JUMP JUMPDEST SWAP2 POP PUSH3 0xF76 DUP3 PUSH3 0xF0B JUMP JUMPDEST PUSH1 0x40 DUP3 ADD SWAP1 POP SWAP2 SWAP1 POP JUMP JUMPDEST PUSH1 0x0 PUSH1 0x20 DUP3 ADD SWAP1 POP DUP2 DUP2 SUB PUSH1 0x0 DUP4 ADD MSTORE PUSH3 0xF9C DUP2 PUSH3 0xF5A JUMP JUMPDEST SWAP1 POP SWAP2 SWAP1 POP JUMP JUMPDEST PUSH2 0x325B DUP1 PUSH3 0xFB3 PUSH1 0x0 CODECOPY PUSH1 0x0 RETURN INVALID PUSH1 0x80 PUSH1 0x40 MSTORE CALLVALUE DUP1 ISZERO PUSH2 0x10 JUMPI PUSH1 0x0 DUP1 REVERT JUMPDEST POP PUSH1 0x4 CALLDATASIZE LT PUSH2 0x7D JUMPI PUSH1 0x0 CALLDATALOAD PUSH1 0xE0 SHR DUP1 PUSH4 0xB8B4F1A0 GT PUSH2 0x5B JUMPI DUP1 PUSH4 0xB8B4F1A0 EQ PUSH2 0xEE JUMPI DUP1 PUSH4 0xDD46F364 EQ PUSH2 0x10C JUMPI DUP1 PUSH4 0xE67FA566 EQ PUSH2 0x13C JUMPI DUP1 PUSH4 0xFB6F8243 EQ PUSH2 0x16C JUMPI PUSH2 0x7D JUMP JUMPDEST DUP1 PUSH4 0x5E744C6A EQ PUSH2 0x82 JUMPI DUP1 PUSH4 0x70D8915A EQ PUSH2 0xB2 JUMPI DUP1 PUSH4 0x85931911 EQ PUSH2 0xD0 JUMPI JUMPDEST PUSH1 0x0 DUP1 REVERT JUMPDEST PUSH2 0x9C PUSH1 0x4 DUP1 CALLDATASIZE SUB DUP2 ADD SWAP1 PUSH2 0x97 SWAP2 SWAP1 PUSH2 0x2307 JUMP JUMPDEST PUSH2 0x19C JUMP JUMPDEST PUSH1 0x40 MLOAD PUSH2 0xA9 SWAP2 SWAP1 PUSH2 0x237E JUMP JUMPDEST PUSH1 0x40 MLOAD DUP1 SWAP2 SUB SWAP1 RETURN JUMPDEST PUSH2 0xBA PUSH2 0x38D JUMP JUMPDEST PUSH1 0x40 MLOAD PUSH2 0xC7 SWAP2 SWAP1 PUSH2 0x23A8 JUMP JUMPDEST PUSH1 0x40 MLOAD DUP1 SWAP2 SUB SWAP1 RETURN JUMPDEST PUSH2 0xD8 PUSH2 0x4F4 JUMP JUMPDEST PUSH1 0x40 MLOAD PUSH2 0xE5 SWAP2 SWAP1 PUSH2 0x23A8 JUMP JUMPDEST PUSH1 0x40 MLOAD DUP1 SWAP2 SUB SWAP1 RETURN JUMPDEST PUSH2 0xF6 PUSH2 0x65C JUMP JUMPDEST PUSH1 0x40 MLOAD PUSH2 0x103 SWAP2 SWAP1 PUSH2 0x237E JUMP JUMPDEST PUSH1 0x40 MLOAD DUP1 SWAP2 SUB SWAP1 RETURN JUMPDEST PUSH2 0x126 PUSH1 0x4 DUP1 CALLDATASIZE SUB DUP2 ADD SWAP1 PUSH2 0x121 SWAP2 SWAP1 PUSH2 0x23FF JUMP JUMPDEST PUSH2 0x7C6 JUMP JUMPDEST PUSH1 0x40 MLOAD PUSH2 0x133 SWAP2 SWAP1 PUSH2 0x237E JUMP JUMPDEST PUSH1 0x40 MLOAD DUP1 SWAP2 SUB SWAP1 RETURN JUMPDEST PUSH2 0x156 PUSH1 0x4 DUP1 CALLDATASIZE SUB DUP2 ADD SWAP1 PUSH2 0x151 SWAP2 SWAP1 PUSH2 0x2623 JUMP JUMPDEST PUSH2 0xA03 JUMP JUMPDEST PUSH1 0x40 MLOAD PUSH2 0x163 SWAP2 SWAP1 PUSH2 0x237E JUMP JUMPDEST PUSH1 0x40 MLOAD DUP1 SWAP2 SUB SWAP1 RETURN JUMPDEST PUSH2 0x186 PUSH1 0x4 DUP1 CALLDATASIZE SUB DUP2 ADD SWAP1 PUSH2 0x181 SWAP2 SWAP1 PUSH2 0x26AE JUMP JUMPDEST PUSH2 0xDB7 JUMP JUMPDEST PUSH1 0x40 MLOAD PUSH2 0x193 SWAP2 SWAP1 PUSH2 0x27D1 JUMP JUMPDEST PUSH1 0x40 MLOAD DUP1 SWAP2 SUB SWAP1 RETURN JUMPDEST PUSH1 0x0 CALLER PUSH20 0xFFFFFFFFFFFFFFFFFFFFFFFFFFFFFFFFFFFFFFFF AND PUSH1 0x3 PUSH1 0x1 ADD PUSH1 0x0 SWAP1 SLOAD SWAP1 PUSH2 0x100 EXP SWAP1 DIV PUSH20 0xFFFFFFFFFFFFFFFFFFFFFFFFFFFFFFFFFFFFFFFF AND PUSH20 0xFFFFFFFFFFFFFFFFFFFFFFFFFFFFFFFFFFFFFFFF AND EQ PUSH2 0x231 JUMPI PUSH1 0x40 MLOAD PUSH32 0x8C379A000000000000000000000000000000000000000000000000000000000 DUP2 MSTORE PUSH1 0x4 ADD PUSH2 0x228 SWAP1 PUSH2 0x2876 JUMP JUMPDEST PUSH1 0x40 MLOAD DUP1 SWAP2 SUB SWAP1 REVERT JUMPDEST PUSH1 0x5 PUSH1 0x0 PUSH1 0x1 DUP1 ADD PUSH1 0x0 SWAP1 SLOAD SWAP1 PUSH2 0x100 EXP SWAP1 DIV PUSH20 0xFFFFFFFFFFFFFFFFFFFFFFFFFFFFFFFFFFFFFFFF AND PUSH20 0xFFFFFFFFFFFFFFFFFFFFFFFFFFFFFFFFFFFFFFFF AND PUSH20 0xFFFFFFFFFFFFFFFFFFFFFFFFFFFFFFFFFFFFFFFF AND DUP2 MSTORE PUSH1 0x20 ADD SWAP1 DUP2 MSTORE PUSH1 0x20 ADD PUSH1 0x0 KECCAK256 PUSH1 0x0 DUP1 DUP3 ADD PUSH1 0x0 PUSH2 0x2A5 SWAP2 SWAP1 PUSH2 0x1EC1 JUMP JUMPDEST PUSH1 0x1 DUP3 ADD PUSH1 0x0 PUSH2 0x100 EXP DUP2 SLOAD SWAP1 PUSH20 0xFFFFFFFFFFFFFFFFFFFFFFFFFFFFFFFFFFFFFFFF MUL NOT AND SWAP1 SSTORE PUSH1 0x1 DUP3 ADD PUSH1 0x14 PUSH2 0x100 EXP DUP2 SLOAD SWAP1 PUSH1 0xFF MUL NOT AND SWAP1 SSTORE POP POP PUSH2 0x2EE DUP4 DUP4 PUSH1 0x0 PUSH2 0x104D JUMP JUMPDEST PUSH1 0x1 PUSH1 0x0 DUP3 ADD MLOAD DUP2 PUSH1 0x0 ADD SWAP1 DUP1 MLOAD SWAP1 PUSH1 0x20 ADD SWAP1 PUSH2 0x30C SWAP3 SWAP2 SWAP1 PUSH2 0x1F01 JUMP JUMPDEST POP PUSH1 0x20 DUP3 ADD MLOAD DUP2 PUSH1 0x1 ADD PUSH1 0x0 PUSH2 0x100 EXP DUP2 SLOAD DUP2 PUSH20 0xFFFFFFFFFFFFFFFFFFFFFFFFFFFFFFFFFFFFFFFF MUL NOT AND SWAP1 DUP4 PUSH20 0xFFFFFFFFFFFFFFFFFFFFFFFFFFFFFFFFFFFFFFFF AND MUL OR SWAP1 SSTORE POP PUSH1 0x40 DUP3 ADD MLOAD DUP2 PUSH1 0x1 ADD PUSH1 0x14 PUSH2 0x100 EXP DUP2 SLOAD DUP2 PUSH1 0xFF MUL NOT AND SWAP1 DUP4 ISZERO ISZERO MUL OR SWAP1 SSTORE POP SWAP1 POP POP PUSH2 0x382 DUP3 PUSH1 0x1 PUSH2 0x123B JUMP JUMPDEST POP PUSH1 0x1 SWAP1 POP SWAP3 SWAP2 POP POP JUMP JUMPDEST PUSH1 0x0 DUP1 PUSH1 0x0 SWAP1 SLOAD SWAP1 PUSH2 0x100 EXP SWAP1 DIV PUSH1 0xFF AND PUSH2 0x3DD JUMPI PUSH1 0x40 MLOAD PUSH32 0x8C379A000000000000000000000000000000000000000000000000000000000 DUP2 MSTORE PUSH1 0x4 ADD PUSH2 0x3D4 SWAP1 PUSH2 0x28E2 JUMP JUMPDEST PUSH1 0x40 MLOAD DUP1 SWAP2 SUB SWAP1 REVERT JUMPDEST CALLER PUSH20 0xFFFFFFFFFFFFFFFFFFFFFFFFFFFFFFFFFFFFFFFF AND PUSH1 0x1 DUP1 ADD PUSH1 0x0 SWAP1 SLOAD SWAP1 PUSH2 0x100 EXP SWAP1 DIV PUSH20 0xFFFFFFFFFFFFFFFFFFFFFFFFFFFFFFFFFFFFFFFF AND PUSH20 0xFFFFFFFFFFFFFFFFFFFFFFFFFFFFFFFFFFFFFFFF AND EQ DUP1 PUSH2 0x48B JUMPI POP CALLER PUSH20 0xFFFFFFFFFFFFFFFFFFFFFFFFFFFFFFFFFFFFFFFF AND PUSH1 0x3 PUSH1 0x1 ADD PUSH1 0x0 SWAP1 SLOAD SWAP1 PUSH2 0x100 EXP SWAP1 DIV PUSH20 0xFFFFFFFFFFFFFFFFFFFFFFFFFFFFFFFFFFFFFFFF AND PUSH20 0xFFFFFFFFFFFFFFFFFFFFFFFFFFFFFFFFFFFFFFFF AND EQ JUMPDEST PUSH2 0x4CA JUMPI PUSH1 0x40 MLOAD PUSH32 0x8C379A000000000000000000000000000000000000000000000000000000000 DUP2 MSTORE PUSH1 0x4 ADD PUSH2 0x4C1 SWAP1 PUSH2 0x2974 JUMP JUMPDEST PUSH1 0x40 MLOAD DUP1 SWAP2 SUB SWAP1 REVERT JUMPDEST PUSH1 0x1 DUP1 ADD PUSH1 0x0 SWAP1 SLOAD SWAP1 PUSH2 0x100 EXP SWAP1 DIV PUSH20 0xFFFFFFFFFFFFFFFFFFFFFFFFFFFFFFFFFFFFFFFF AND SWAP1 POP SWAP1 JUMP JUMPDEST PUSH1 0x0 DUP1 PUSH1 0x0 SWAP1 SLOAD SWAP1 PUSH2 0x100 EXP SWAP1 DIV PUSH1 0xFF AND PUSH2 0x544 JUMPI PUSH1 0x40 MLOAD PUSH32 0x8C379A000000000000000000000000000000000000000000000000000000000 DUP2 MSTORE PUSH1 0x4 ADD PUSH2 0x53B SWAP1 PUSH2 0x28E2 JUMP JUMPDEST PUSH1 0x40 MLOAD DUP1 SWAP2 SUB SWAP1 REVERT JUMPDEST CALLER PUSH20 0xFFFFFFFFFFFFFFFFFFFFFFFFFFFFFFFFFFFFFFFF AND PUSH1 0x1 DUP1 ADD PUSH1 0x0 SWAP1 SLOAD SWAP1 PUSH2 0x100 EXP SWAP1 DIV PUSH20 0xFFFFFFFFFFFFFFFFFFFFFFFFFFFFFFFFFFFFFFFF AND PUSH20 0xFFFFFFFFFFFFFFFFFFFFFFFFFFFFFFFFFFFFFFFF AND EQ DUP1 PUSH2 0x5F2 JUMPI POP CALLER PUSH20 0xFFFFFFFFFFFFFFFFFFFFFFFFFFFFFFFFFFFFFFFF AND PUSH1 0x3 PUSH1 0x1 ADD PUSH1 0x0 SWAP1 SLOAD SWAP1 PUSH2 0x100 EXP SWAP1 DIV PUSH20 0xFFFFFFFFFFFFFFFFFFFFFFFFFFFFFFFFFFFFFFFF AND PUSH20 0xFFFFFFFFFFFFFFFFFFFFFFFFFFFFFFFFFFFFFFFF AND EQ JUMPDEST PUSH2 0x631 JUMPI PUSH1 0x40 MLOAD PUSH32 0x8C379A000000000000000000000000000000000000000000000000000000000 DUP2 MSTORE PUSH1 0x4 ADD PUSH2 0x628 SWAP1 PUSH2 0x2974 JUMP JUMPDEST PUSH1 0x40 MLOAD DUP1 SWAP2 SUB SWAP1 REVERT JUMPDEST PUSH1 0x3 PUSH1 0x1 ADD PUSH1 0x0 SWAP1 SLOAD SWAP1 PUSH2 0x100 EXP SWAP1 DIV PUSH20 0xFFFFFFFFFFFFFFFFFFFFFFFFFFFFFFFFFFFFFFFF AND SWAP1 POP SWAP1 JUMP JUMPDEST PUSH1 0x0 DUP1 PUSH1 0x0 SWAP1 SLOAD SWAP1 PUSH2 0x100 EXP SWAP1 DIV PUSH1 0xFF AND PUSH2 0x6AC JUMPI PUSH1 0x40 MLOAD PUSH32 0x8C379A000000000000000000000000000000000000000000000000000000000 DUP2 MSTORE PUSH1 0x4 ADD PUSH2 0x6A3 SWAP1 PUSH2 0x28E2 JUMP JUMPDEST PUSH1 0x40 MLOAD DUP1 SWAP2 SUB SWAP1 REVERT JUMPDEST CALLER PUSH20 0xFFFFFFFFFFFFFFFFFFFFFFFFFFFFFFFFFFFFFFFF AND PUSH1 0x1 DUP1 ADD PUSH1 0x0 SWAP1 SLOAD SWAP1 PUSH2 0x100 EXP SWAP1 DIV PUSH20 0xFFFFFFFFFFFFFFFFFFFFFFFFFFFFFFFFFFFFFFFF AND PUSH20 0xFFFFFFFFFFFFFFFFFFFFFFFFFFFFFFFFFFFFFFFF AND EQ PUSH2 0x73E JUMPI PUSH1 0x40 MLOAD PUSH32 0x8C379A000000000000000000000000000000000000000000000000000000000 DUP2 MSTORE PUSH1 0x4 ADD PUSH2 0x735 SWAP1 PUSH2 0x2A06 JUMP JUMPDEST PUSH1 0x40 MLOAD DUP1 SWAP2 SUB SWAP1 REVERT JUMPDEST PUSH1 0x0 ISZERO ISZERO PUSH1 0x1 DUP1 ADD PUSH1 0x14 SWAP1 SLOAD SWAP1 PUSH2 0x100 EXP SWAP1 DIV PUSH1 0xFF AND ISZERO ISZERO EQ PUSH2 0x796 JUMPI PUSH1 0x40 MLOAD PUSH32 0x8C379A000000000000000000000000000000000000000000000000000000000 DUP2 MSTORE PUSH1 0x4 ADD PUSH2 0x78D SWAP1 PUSH2 0x2A72 JUMP JUMPDEST PUSH1 0x40 MLOAD DUP1 SWAP2 SUB SWAP1 REVERT JUMPDEST PUSH1 0x1 DUP1 PUSH1 0x1 ADD PUSH1 0x14 PUSH2 0x100 EXP DUP2 SLOAD DUP2 PUSH1 0xFF MUL NOT AND SWAP1 DUP4 ISZERO ISZERO MUL OR SWAP1 SSTORE POP PUSH2 0x7BE CALLER PUSH1 0x1 PUSH2 0x123B JUMP JUMPDEST POP PUSH1 0x1 SWAP1 POP SWAP1 JUMP JUMPDEST PUSH1 0x0 DUP1 PUSH1 0x0 SWAP1 SLOAD SWAP1 PUSH2 0x100 EXP SWAP1 DIV PUSH1 0xFF AND PUSH2 0x816 JUMPI PUSH1 0x40 MLOAD PUSH32 0x8C379A000000000000000000000000000000000000000000000000000000000 DUP2 MSTORE PUSH1 0x4 ADD PUSH2 0x80D SWAP1 PUSH2 0x28E2 JUMP JUMPDEST PUSH1 0x40 MLOAD DUP1 SWAP2 SUB SWAP1 REVERT JUMPDEST CALLER PUSH20 0xFFFFFFFFFFFFFFFFFFFFFFFFFFFFFFFFFFFFFFFF AND PUSH1 0x1 DUP1 ADD PUSH1 0x0 SWAP1 SLOAD SWAP1 PUSH2 0x100 EXP SWAP1 DIV PUSH20 0xFFFFFFFFFFFFFFFFFFFFFFFFFFFFFFFFFFFFFFFF AND PUSH20 0xFFFFFFFFFFFFFFFFFFFFFFFFFFFFFFFFFFFFFFFF AND EQ PUSH2 0x8A8 JUMPI PUSH1 0x40 MLOAD PUSH32 0x8C379A000000000000000000000000000000000000000000000000000000000 DUP2 MSTORE PUSH1 0x4 ADD PUSH2 0x89F SWAP1 PUSH2 0x2A06 JUMP JUMPDEST PUSH1 0x40 MLOAD DUP1 SWAP2 SUB SWAP1 REVERT JUMPDEST PUSH2 0x930 DUP3 PUSH1 0x9 PUSH1 0x0 DUP2 SLOAD DUP2 LT PUSH2 0x8C1 JUMPI PUSH2 0x8C0 PUSH2 0x2A92 JUMP JUMPDEST JUMPDEST SWAP1 PUSH1 0x0 MSTORE PUSH1 0x20 PUSH1 0x0 KECCAK256 ADD PUSH1 0x40 MLOAD DUP1 PUSH1 0x40 ADD PUSH1 0x40 MSTORE SWAP1 DUP2 PUSH1 0x0 DUP3 ADD PUSH1 0x0 SWAP1 SLOAD SWAP1 PUSH2 0x100 EXP SWAP1 DIV PUSH4 0xFFFFFFFF AND PUSH4 0xFFFFFFFF AND PUSH4 0xFFFFFFFF AND DUP2 MSTORE PUSH1 0x20 ADD PUSH1 0x0 DUP3 ADD PUSH1 0x4 SWAP1 SLOAD SWAP1 PUSH2 0x100 EXP SWAP1 DIV PUSH4 0xFFFFFFFF AND PUSH4 0xFFFFFFFF AND PUSH4 0xFFFFFFFF AND DUP2 MSTORE POP POP PUSH2 0x133E SWAP1 SWAP2 SWAP1 PUSH4 0xFFFFFFFF AND JUMP JUMPDEST PUSH2 0x9C4 JUMPI PUSH32 0x95A1F3A1DAFDD4C1AF344E3D7C69A72CBCE8A3F15FE1CF95A7F5BD23DF2E71A1 PUSH1 0x40 MLOAD PUSH2 0x961 SWAP1 PUSH2 0x2B0D JUMP JUMPDEST PUSH1 0x40 MLOAD DUP1 SWAP2 SUB SWAP1 LOG1 PUSH2 0x990 PUSH1 0x6 PUSH1 0x0 DUP2 SLOAD DUP2 LT PUSH2 0x981 JUMPI PUSH2 0x980 PUSH2 0x2A92 JUMP JUMPDEST JUMPDEST SWAP1 PUSH1 0x0 MSTORE PUSH1 0x20 PUSH1 0x0 KECCAK256 ADD PUSH2 0x13CD JUMP JUMPDEST PUSH2 0x9BB PUSH1 0x8 PUSH1 0x0 DUP2 SLOAD DUP2 LT PUSH2 0x9A8 JUMPI PUSH2 0x9A7 PUSH2 0x2A92 JUMP JUMPDEST JUMPDEST SWAP1 PUSH1 0x0 MSTORE PUSH1 0x20 PUSH1 0x0 KECCAK256 SWAP1 PUSH1 0x7 MUL ADD PUSH2 0x1412 JUMP JUMPDEST PUSH1 0x1 SWAP1 POP PUSH2 0x9FE JUMP JUMPDEST PUSH32 0x66091B7DC2B097C8F60D5CD6AA99633B097F08D2EB1056F3E15361B22E0EA2BA PUSH1 0x40 MLOAD PUSH2 0x9F1 SWAP1 PUSH2 0x2B79 JUMP JUMPDEST PUSH1 0x40 MLOAD DUP1 SWAP2 SUB SWAP1 LOG1 PUSH1 0x0 SWAP1 POP JUMPDEST SWAP2 SWAP1 POP JUMP JUMPDEST PUSH1 0x0 DUP1 PUSH1 0x0 SWAP1 SLOAD SWAP1 PUSH2 0x100 EXP SWAP1 DIV PUSH1 0xFF AND PUSH2 0xA53 JUMPI PUSH1 0x40 MLOAD PUSH32 0x8C379A000000000000000000000000000000000000000000000000000000000 DUP2 MSTORE PUSH1 0x4 ADD PUSH2 0xA4A SWAP1 PUSH2 0x28E2 JUMP JUMPDEST PUSH1 0x40 MLOAD DUP1 SWAP2 SUB SWAP1 REVERT JUMPDEST CALLER PUSH20 0xFFFFFFFFFFFFFFFFFFFFFFFFFFFFFFFFFFFFFFFF AND PUSH1 0x3 PUSH1 0x1 ADD PUSH1 0x0 SWAP1 SLOAD SWAP1 PUSH2 0x100 EXP SWAP1 DIV PUSH20 0xFFFFFFFFFFFFFFFFFFFFFFFFFFFFFFFFFFFFFFFF AND PUSH20 0xFFFFFFFFFFFFFFFFFFFFFFFFFFFFFFFFFFFFFFFF AND EQ PUSH2 0xAE6 JUMPI PUSH1 0x40 MLOAD PUSH32 0x8C379A000000000000000000000000000000000000000000000000000000000 DUP2 MSTORE PUSH1 0x4 ADD PUSH2 0xADD SWAP1 PUSH2 0x2876 JUMP JUMPDEST PUSH1 0x40 MLOAD DUP1 SWAP2 SUB SWAP1 REVERT JUMPDEST PUSH2 0xB17 DUP5 PUSH1 0x6 PUSH1 0x0 DUP2 SLOAD DUP2 LT PUSH2 0xAFF JUMPI PUSH2 0xAFE PUSH2 0x2A92 JUMP JUMPDEST JUMPDEST SWAP1 PUSH1 0x0 MSTORE PUSH1 0x20 PUSH1 0x0 KECCAK256 ADD PUSH2 0x14D0 SWAP1 SWAP2 SWAP1 PUSH4 0xFFFFFFFF AND JUMP JUMPDEST DUP1 ISZERO PUSH2 0xCA8 JUMPI POP PUSH2 0xCA7 DUP4 PUSH1 0x0 DUP2 MLOAD DUP2 LT PUSH2 0xB35 JUMPI PUSH2 0xB34 PUSH2 0x2A92 JUMP JUMPDEST JUMPDEST PUSH1 0x20 MUL PUSH1 0x20 ADD ADD MLOAD PUSH1 0x7 PUSH1 0x0 DUP2 SLOAD DUP2 LT PUSH2 0xB52 JUMPI PUSH2 0xB51 PUSH2 0x2A92 JUMP JUMPDEST JUMPDEST SWAP1 PUSH1 0x0 MSTORE PUSH1 0x20 PUSH1 0x0 KECCAK256 SWAP1 PUSH1 0x3 MUL ADD PUSH1 0x40 MLOAD DUP1 PUSH1 0x60 ADD PUSH1 0x40 MSTORE SWAP1 DUP2 PUSH1 0x0 DUP3 ADD DUP1 SLOAD PUSH2 0xB7B SWAP1 PUSH2 0x2BC8 JUMP JUMPDEST DUP1 PUSH1 0x1F ADD PUSH1 0x20 DUP1 SWAP2 DIV MUL PUSH1 0x20 ADD PUSH1 0x40 MLOAD SWAP1 DUP2 ADD PUSH1 0x40 MSTORE DUP1 SWAP3 SWAP2 SWAP1 DUP2 DUP2 MSTORE PUSH1 0x20 ADD DUP3 DUP1 SLOAD PUSH2 0xBA7 SWAP1 PUSH2 0x2BC8 JUMP JUMPDEST DUP1 ISZERO PUSH2 0xBF4 JUMPI DUP1 PUSH1 0x1F LT PUSH2 0xBC9 JUMPI PUSH2 0x100 DUP1 DUP4 SLOAD DIV MUL DUP4 MSTORE SWAP2 PUSH1 0x20 ADD SWAP2 PUSH2 0xBF4 JUMP JUMPDEST DUP3 ADD SWAP2 SWAP1 PUSH1 0x0 MSTORE PUSH1 0x20 PUSH1 0x0 KECCAK256 SWAP1 JUMPDEST DUP2 SLOAD DUP2 MSTORE SWAP1 PUSH1 0x1 ADD SWAP1 PUSH1 0x20 ADD DUP1 DUP4 GT PUSH2 0xBD7 JUMPI DUP3 SWAP1 SUB PUSH1 0x1F AND DUP3 ADD SWAP2 JUMPDEST POP POP POP POP POP DUP2 MSTORE PUSH1 0x20 ADD PUSH1 0x1 DUP3 ADD DUP1 SLOAD PUSH2 0xC0D SWAP1 PUSH2 0x2BC8 JUMP JUMPDEST DUP1 PUSH1 0x1F ADD PUSH1 0x20 DUP1 SWAP2 DIV MUL PUSH1 0x20 ADD PUSH1 0x40 MLOAD SWAP1 DUP2 ADD PUSH1 0x40 MSTORE DUP1 SWAP3 SWAP2 SWAP1 DUP2 DUP2 MSTORE PUSH1 0x20 ADD DUP3 DUP1 SLOAD PUSH2 0xC39 SWAP1 PUSH2 0x2BC8 JUMP JUMPDEST DUP1 ISZERO PUSH2 0xC86 JUMPI DUP1 PUSH1 0x1F LT PUSH2 0xC5B JUMPI PUSH2 0x100 DUP1 DUP4 SLOAD DIV MUL DUP4 MSTORE SWAP2 PUSH1 0x20 ADD SWAP2 PUSH2 0xC86 JUMP JUMPDEST DUP3 ADD SWAP2 SWAP1 PUSH1 0x0 MSTORE PUSH1 0x20 PUSH1 0x0 KECCAK256 SWAP1 JUMPDEST DUP2 SLOAD DUP2 MSTORE SWAP1 PUSH1 0x1 ADD SWAP1 PUSH1 0x20 ADD DUP1 DUP4 GT PUSH2 0xC69 JUMPI DUP3 SWAP1 SUB PUSH1 0x1F AND DUP3 ADD SWAP2 JUMPDEST POP POP POP POP POP DUP2 MSTORE PUSH1 0x20 ADD PUSH1 0x2 DUP3 ADD SLOAD DUP2 MSTORE POP POP PUSH2 0x1549 SWAP1 SWAP2 SWAP1 PUSH4 0xFFFFFFFF AND JUMP JUMPDEST JUMPDEST DUP1 ISZERO PUSH2 0xD02 JUMPI POP PUSH2 0xD01 DUP5 DUP4 PUSH1 0x0 DUP2 MLOAD DUP2 LT PUSH2 0xCC7 JUMPI PUSH2 0xCC6 PUSH2 0x2A92 JUMP JUMPDEST JUMPDEST PUSH1 0x20 MUL PUSH1 0x20 ADD ADD MLOAD PUSH1 0x8 PUSH1 0x0 DUP2 SLOAD DUP2 LT PUSH2 0xCE4 JUMPI PUSH2 0xCE3 PUSH2 0x2A92 JUMP JUMPDEST JUMPDEST SWAP1 PUSH1 0x0 MSTORE PUSH1 0x20 PUSH1 0x0 KECCAK256 SWAP1 PUSH1 0x7 MUL ADD PUSH2 0x173B SWAP1 SWAP3 SWAP2 SWAP1 PUSH4 0xFFFFFFFF AND JUMP JUMPDEST JUMPDEST ISZERO PUSH2 0xD76 JUMPI PUSH2 0xD38 DUP5 PUSH1 0x9 PUSH1 0x0 DUP2 SLOAD DUP2 LT PUSH2 0xD20 JUMPI PUSH2 0xD1F PUSH2 0x2A92 JUMP JUMPDEST JUMPDEST SWAP1 PUSH1 0x0 MSTORE PUSH1 0x20 PUSH1 0x0 KECCAK256 ADD PUSH2 0x183D SWAP1 SWAP2 SWAP1 PUSH4 0xFFFFFFFF AND JUMP JUMPDEST PUSH32 0x95A1F3A1DAFDD4C1AF344E3D7C69A72CBCE8A3F15FE1CF95A7F5BD23DF2E71A1 PUSH1 0x40 MLOAD PUSH2 0xD65 SWAP1 PUSH2 0x2B0D JUMP JUMPDEST PUSH1 0x40 MLOAD DUP1 SWAP2 SUB SWAP1 LOG1 PUSH1 0x1 SWAP1 POP PUSH2 0xDB0 JUMP JUMPDEST PUSH32 0x66091B7DC2B097C8F60D5CD6AA99633B097F08D2EB1056F3E15361B22E0EA2BA PUSH1 0x40 MLOAD PUSH2 0xDA3 SWAP1 PUSH2 0x2C45 JUMP JUMPDEST PUSH1 0x40 MLOAD DUP1 SWAP2 SUB SWAP1 LOG1 PUSH1 0x0 SWAP1 POP JUMPDEST SWAP4 SWAP3 POP POP POP JUMP JUMPDEST PUSH2 0xDBF PUSH2 0x1F87 JUMP JUMPDEST PUSH1 0x0 DUP1 SLOAD SWAP1 PUSH2 0x100 EXP SWAP1 DIV PUSH1 0xFF AND PUSH2 0xE0C JUMPI PUSH1 0x40 MLOAD PUSH32 0x8C379A000000000000000000000000000000000000000000000000000000000 DUP2 MSTORE PUSH1 0x4 ADD PUSH2 0xE03 SWAP1 PUSH2 0x28E2 JUMP JUMPDEST PUSH1 0x40 MLOAD DUP1 SWAP2 SUB SWAP1 REVERT JUMPDEST CALLER PUSH20 0xFFFFFFFFFFFFFFFFFFFFFFFFFFFFFFFFFFFFFFFF AND PUSH1 0x1 DUP1 ADD PUSH1 0x0 SWAP1 SLOAD SWAP1 PUSH2 0x100 EXP SWAP1 DIV PUSH20 0xFFFFFFFFFFFFFFFFFFFFFFFFFFFFFFFFFFFFFFFF AND PUSH20 0xFFFFFFFFFFFFFFFFFFFFFFFFFFFFFFFFFFFFFFFF AND EQ DUP1 PUSH2 0xEBA JUMPI POP CALLER PUSH20 0xFFFFFFFFFFFFFFFFFFFFFFFFFFFFFFFFFFFFFFFF AND PUSH1 0x3 PUSH1 0x1 ADD PUSH1 0x0 SWAP1 SLOAD SWAP1 PUSH2 0x100 EXP SWAP1 DIV PUSH20 0xFFFFFFFFFFFFFFFFFFFFFFFFFFFFFFFFFFFFFFFF AND PUSH20 0xFFFFFFFFFFFFFFFFFFFFFFFFFFFFFFFFFFFFFFFF AND EQ JUMPDEST PUSH2 0xEF9 JUMPI PUSH1 0x40 MLOAD PUSH32 0x8C379A000000000000000000000000000000000000000000000000000000000 DUP2 MSTORE PUSH1 0x4 ADD PUSH2 0xEF0 SWAP1 PUSH2 0x2974 JUMP JUMPDEST PUSH1 0x40 MLOAD DUP1 SWAP2 SUB SWAP1 REVERT JUMPDEST PUSH1 0x5 PUSH1 0x0 DUP4 PUSH20 0xFFFFFFFFFFFFFFFFFFFFFFFFFFFFFFFFFFFFFFFF AND PUSH20 0xFFFFFFFFFFFFFFFFFFFFFFFFFFFFFFFFFFFFFFFF AND DUP2 MSTORE PUSH1 0x20 ADD SWAP1 DUP2 MSTORE PUSH1 0x20 ADD PUSH1 0x0 KECCAK256 PUSH1 0x40 MLOAD DUP1 PUSH1 0x60 ADD PUSH1 0x40 MSTORE SWAP1 DUP2 PUSH1 0x0 DUP3 ADD DUP1 SLOAD PUSH2 0xF53 SWAP1 PUSH2 0x2BC8 JUMP JUMPDEST DUP1 PUSH1 0x1F ADD PUSH1 0x20 DUP1 SWAP2 DIV MUL PUSH1 0x20 ADD PUSH1 0x40 MLOAD SWAP1 DUP2 ADD PUSH1 0x40 MSTORE DUP1 SWAP3 SWAP2 SWAP1 DUP2 DUP2 MSTORE PUSH1 0x20 ADD DUP3 DUP1 SLOAD PUSH2 0xF7F SWAP1 PUSH2 0x2BC8 JUMP JUMPDEST DUP1 ISZERO PUSH2 0xFCC JUMPI DUP1 PUSH1 0x1F LT PUSH2 0xFA1 JUMPI PUSH2 0x100 DUP1 DUP4 SLOAD DIV MUL DUP4 MSTORE SWAP2 PUSH1 0x20 ADD SWAP2 PUSH2 0xFCC JUMP JUMPDEST DUP3 ADD SWAP2 SWAP1 PUSH1 0x0 MSTORE PUSH1 0x20 PUSH1 0x0 KECCAK256 SWAP1 JUMPDEST DUP2 SLOAD DUP2 MSTORE SWAP1 PUSH1 0x1 ADD SWAP1 PUSH1 0x20 ADD DUP1 DUP4 GT PUSH2 0xFAF JUMPI DUP3 SWAP1 SUB PUSH1 0x1F AND DUP3 ADD SWAP2 JUMPDEST POP POP POP POP POP DUP2 MSTORE PUSH1 0x20 ADD PUSH1 0x1 DUP3 ADD PUSH1 0x0 SWAP1 SLOAD SWAP1 PUSH2 0x100 EXP SWAP1 DIV PUSH20 0xFFFFFFFFFFFFFFFFFFFFFFFFFFFFFFFFFFFFFFFF AND PUSH20 0xFFFFFFFFFFFFFFFFFFFFFFFFFFFFFFFFFFFFFFFF AND PUSH20 0xFFFFFFFFFFFFFFFFFFFFFFFFFFFFFFFFFFFFFFFF AND DUP2 MSTORE PUSH1 0x20 ADD PUSH1 0x1 DUP3 ADD PUSH1 0x14 SWAP1 SLOAD SWAP1 PUSH2 0x100 EXP SWAP1 DIV PUSH1 0xFF AND ISZERO ISZERO ISZERO ISZERO DUP2 MSTORE POP POP SWAP1 POP SWAP2 SWAP1 POP JUMP JUMPDEST PUSH2 0x1055 PUSH2 0x1F87 JUMP JUMPDEST PUSH1 0x40 MLOAD DUP1 PUSH1 0x60 ADD PUSH1 0x40 MSTORE DUP1 DUP6 DUP2 MSTORE PUSH1 0x20 ADD DUP5 PUSH20 0xFFFFFFFFFFFFFFFFFFFFFFFFFFFFFFFFFFFFFFFF AND DUP2 MSTORE PUSH1 0x20 ADD DUP4 ISZERO ISZERO DUP2 MSTORE POP SWAP1 POP SWAP4 SWAP3 POP POP POP JUMP JUMPDEST PUSH2 0x1099 PUSH2 0x1FC0 JUMP JUMPDEST PUSH1 0x0 PUSH1 0x4 PUSH1 0xFF AND DUP4 PUSH1 0xFF AND GT PUSH2 0x10B9 JUMPI PUSH2 0x10B2 DUP4 PUSH2 0x18A8 JUMP JUMPDEST SWAP1 POP PUSH2 0x10BE JUMP JUMPDEST PUSH1 0x1 SWAP1 POP JUMPDEST PUSH1 0x40 MLOAD DUP1 PUSH1 0xA0 ADD PUSH1 0x40 MSTORE DUP1 DUP6 PUSH4 0xFFFFFFFF AND DUP2 MSTORE PUSH1 0x20 ADD DUP5 PUSH1 0xFF AND DUP2 MSTORE PUSH1 0x20 ADD DUP3 PUSH4 0xFFFFFFFF AND DUP2 MSTORE PUSH1 0x20 ADD DUP6 PUSH4 0xFFFFFFFF AND DUP2 MSTORE PUSH1 0x20 ADD PUSH1 0x0 PUSH4 0xFFFFFFFF AND DUP2 MSTORE POP SWAP2 POP POP SWAP3 SWAP2 POP POP JUMP JUMPDEST PUSH2 0x1112 PUSH2 0x200A JUMP JUMPDEST PUSH1 0x40 MLOAD DUP1 PUSH1 0x60 ADD PUSH1 0x40 MSTORE DUP1 DUP6 DUP2 MSTORE PUSH1 0x20 ADD DUP5 DUP2 MSTORE PUSH1 0x20 ADD DUP4 DUP2 MSTORE POP SWAP1 POP SWAP4 SWAP3 POP POP POP JUMP JUMPDEST PUSH2 0x113E PUSH2 0x202B JUMP JUMPDEST PUSH1 0x0 PUSH1 0x4 PUSH1 0xFF AND DUP4 PUSH1 0xFF AND GT PUSH2 0x115E JUMPI PUSH2 0x1157 DUP4 PUSH2 0x18A8 JUMP JUMPDEST SWAP1 POP PUSH2 0x1163 JUMP JUMPDEST PUSH1 0x1 SWAP1 POP JUMPDEST PUSH1 0x1 DUP6 MLOAD SUB PUSH2 0x11B4 JUMPI PUSH1 0x40 MLOAD DUP1 PUSH1 0x40 ADD PUSH1 0x40 MSTORE DUP1 PUSH1 0x2 DUP2 MSTORE PUSH1 0x20 ADD PUSH32 0x3C3D000000000000000000000000000000000000000000000000000000000000 DUP2 MSTORE POP SWAP5 POP PUSH1 0x1 DUP5 PUSH2 0x11B1 SWAP2 SWAP1 PUSH2 0x2C94 JUMP JUMPDEST SWAP4 POP JUMPDEST PUSH1 0x40 MLOAD DUP1 PUSH2 0x100 ADD PUSH1 0x40 MSTORE DUP1 DUP8 DUP2 MSTORE PUSH1 0x20 ADD DUP7 DUP2 MSTORE PUSH1 0x20 ADD DUP6 DUP2 MSTORE PUSH1 0x20 ADD DUP5 PUSH1 0xFF AND DUP2 MSTORE PUSH1 0x20 ADD DUP3 PUSH4 0xFFFFFFFF AND DUP2 MSTORE PUSH1 0x20 ADD DUP6 DUP2 MSTORE PUSH1 0x20 ADD PUSH1 0x0 PUSH4 0xFFFFFFFF AND DUP2 MSTORE PUSH1 0x20 ADD PUSH1 0x0 DUP2 MSTORE POP SWAP2 POP POP SWAP5 SWAP4 POP POP POP POP JUMP JUMPDEST PUSH2 0x1212 PUSH2 0x207F JUMP JUMPDEST PUSH1 0x40 MLOAD DUP1 PUSH1 0x40 ADD PUSH1 0x40 MSTORE DUP1 PUSH1 0x0 PUSH4 0xFFFFFFFF AND DUP2 MSTORE PUSH1 0x20 ADD DUP4 PUSH4 0xFFFFFFFF AND DUP2 MSTORE POP SWAP1 POP SWAP2 SWAP1 POP JUMP JUMPDEST PUSH1 0x0 DUP2 PUSH1 0x5 PUSH1 0x0 DUP6 PUSH20 0xFFFFFFFFFFFFFFFFFFFFFFFFFFFFFFFFFFFFFFFF AND PUSH20 0xFFFFFFFFFFFFFFFFFFFFFFFFFFFFFFFFFFFFFFFF AND DUP2 MSTORE PUSH1 0x20 ADD SWAP1 DUP2 MSTORE PUSH1 0x20 ADD PUSH1 0x0 KECCAK256 PUSH1 0x0 DUP3 ADD DUP2 PUSH1 0x0 ADD SWAP1 DUP1 SLOAD PUSH2 0x1291 SWAP1 PUSH2 0x2BC8 JUMP JUMPDEST PUSH2 0x129C SWAP3 SWAP2 SWAP1 PUSH2 0x20A5 JUMP JUMPDEST POP PUSH1 0x1 DUP3 ADD PUSH1 0x0 SWAP1 SLOAD SWAP1 PUSH2 0x100 EXP SWAP1 DIV PUSH20 0xFFFFFFFFFFFFFFFFFFFFFFFFFFFFFFFFFFFFFFFF AND DUP2 PUSH1 0x1 ADD PUSH1 0x0 PUSH2 0x100 EXP DUP2 SLOAD DUP2 PUSH20 0xFFFFFFFFFFFFFFFFFFFFFFFFFFFFFFFFFFFFFFFF MUL NOT AND SWAP1 DUP4 PUSH20 0xFFFFFFFFFFFFFFFFFFFFFFFFFFFFFFFFFFFFFFFF AND MUL OR SWAP1 SSTORE POP PUSH1 0x1 DUP3 ADD PUSH1 0x14 SWAP1 SLOAD SWAP1 PUSH2 0x100 EXP SWAP1 DIV PUSH1 0xFF AND DUP2 PUSH1 0x1 ADD PUSH1 0x14 PUSH2 0x100 EXP DUP2 SLOAD DUP2 PUSH1 0xFF MUL NOT AND SWAP1 DUP4 ISZERO ISZERO MUL OR SWAP1 SSTORE POP SWAP1 POP POP PUSH1 0x1 SWAP1 POP SWAP3 SWAP2 POP POP JUMP JUMPDEST PUSH1 0x0 DUP2 PUSH1 0x0 PUSH2 0x1352 DUP3 PUSH4 0xFFFFFFFF AND PUSH2 0x195F JUMP JUMPDEST SWAP1 POP PUSH1 0xA DUP2 MLOAD GT ISZERO PUSH2 0x1363 JUMPI PUSH1 0x0 DUP1 REVERT JUMPDEST PUSH1 0x0 DUP6 PUSH1 0x0 ADD MLOAD PUSH4 0xFFFFFFFF AND GT PUSH2 0x13B0 JUMPI PUSH1 0x40 MLOAD PUSH32 0x8C379A000000000000000000000000000000000000000000000000000000000 DUP2 MSTORE PUSH1 0x4 ADD PUSH2 0x13A7 SWAP1 PUSH2 0x2D3A JUMP JUMPDEST PUSH1 0x40 MLOAD DUP1 SWAP2 SUB SWAP1 REVERT JUMPDEST DUP5 PUSH1 0x0 ADD MLOAD PUSH4 0xFFFFFFFF AND DUP5 PUSH4 0xFFFFFFFF AND GT SWAP3 POP POP POP SWAP3 SWAP2 POP POP JUMP JUMPDEST PUSH1 0x1 DUP2 PUSH1 0x0 ADD PUSH1 0x9 DUP3 DUP3 DUP3 SWAP1 SLOAD SWAP1 PUSH2 0x100 EXP SWAP1 DIV PUSH4 0xFFFFFFFF AND PUSH2 0x13F1 SWAP2 SWAP1 PUSH2 0x2D5A JUMP JUMPDEST SWAP3 POP PUSH2 0x100 EXP DUP2 SLOAD DUP2 PUSH4 0xFFFFFFFF MUL NOT AND SWAP1 DUP4 PUSH4 0xFFFFFFFF AND MUL OR SWAP1 SSTORE POP POP JUMP JUMPDEST PUSH1 0x0 DUP2 PUSH1 0x6 ADD SLOAD GT PUSH2 0x1459 JUMPI PUSH1 0x40 MLOAD PUSH32 0x8C379A000000000000000000000000000000000000000000000000000000000 DUP2 MSTORE PUSH1 0x4 ADD PUSH2 0x1450 SWAP1 PUSH2 0x2DDA JUMP JUMPDEST PUSH1 0x40 MLOAD DUP1 SWAP2 SUB SWAP1 REVERT JUMPDEST DUP1 PUSH1 0x4 ADD SLOAD DUP2 PUSH1 0x6 ADD SLOAD GT ISZERO PUSH2 0x14A4 JUMPI PUSH1 0x40 MLOAD PUSH32 0x8C379A000000000000000000000000000000000000000000000000000000000 DUP2 MSTORE PUSH1 0x4 ADD PUSH2 0x149B SWAP1 PUSH2 0x2E6C JUMP JUMPDEST PUSH1 0x40 MLOAD DUP1 SWAP2 SUB SWAP1 REVERT JUMPDEST DUP1 PUSH1 0x6 ADD SLOAD DUP2 PUSH1 0x4 ADD PUSH1 0x0 DUP3 DUP3 SLOAD PUSH2 0x14BC SWAP2 SWAP1 PUSH2 0x2C94 JUMP JUMPDEST SWAP3 POP POP DUP2 SWAP1 SSTORE POP PUSH1 0x0 DUP2 PUSH1 0x6 ADD DUP2 SWAP1 SSTORE POP POP JUMP JUMPDEST PUSH1 0x0 PUSH2 0x1502 DUP4 PUSH1 0x0 ADD PUSH1 0x4 SWAP1 SLOAD SWAP1 PUSH2 0x100 EXP SWAP1 DIV PUSH1 0xFF AND DUP5 PUSH1 0x0 ADD PUSH1 0xD SWAP1 SLOAD SWAP1 PUSH2 0x100 EXP SWAP1 DIV PUSH4 0xFFFFFFFF AND DUP5 PUSH2 0x1ABF JUMP JUMPDEST ISZERO PUSH2 0x1512 JUMPI PUSH2 0x1511 DUP4 DUP4 PUSH2 0x1B84 JUMP JUMPDEST JUMPDEST PUSH1 0x0 DUP4 PUSH1 0x0 ADD PUSH1 0x9 SWAP1 SLOAD SWAP1 PUSH2 0x100 EXP SWAP1 DIV PUSH4 0xFFFFFFFF AND PUSH4 0xFFFFFFFF AND GT ISZERO PUSH2 0x153E JUMPI PUSH1 0x1 SWAP1 POP PUSH2 0x1543 JUMP JUMPDEST PUSH1 0x0 SWAP1 POP JUMPDEST SWAP3 SWAP2 POP POP JUMP JUMPDEST PUSH1 0x0 DUP1 DUP4 PUSH1 0x20 ADD MLOAD SWAP1 POP PUSH1 0x21 PUSH1 0xF8 SHL DUP2 PUSH1 0x0 DUP2 MLOAD DUP2 LT PUSH2 0x156C JUMPI PUSH2 0x156B PUSH2 0x2A92 JUMP JUMPDEST JUMPDEST PUSH1 0x20 ADD ADD MLOAD PUSH1 0xF8 SHR PUSH1 0xF8 SHL PUSH31 0xFFFFFFFFFFFFFFFFFFFFFFFFFFFFFFFFFFFFFFFFFFFFFFFFFFFFFFFFFFFFFF NOT AND SUB PUSH2 0x15AE JUMPI DUP4 PUSH1 0x40 ADD MLOAD DUP4 EQ ISZERO SWAP2 POP POP PUSH2 0x1735 JUMP JUMPDEST PUSH1 0x3D PUSH1 0xF8 SHL DUP2 PUSH1 0x0 DUP2 MLOAD DUP2 LT PUSH2 0x15C7 JUMPI PUSH2 0x15C6 PUSH2 0x2A92 JUMP JUMPDEST JUMPDEST PUSH1 0x20 ADD ADD MLOAD PUSH1 0xF8 SHR PUSH1 0xF8 SHL PUSH31 0xFFFFFFFFFFFFFFFFFFFFFFFFFFFFFFFFFFFFFFFFFFFFFFFFFFFFFFFFFFFFFF NOT AND SUB PUSH2 0x1608 JUMPI DUP4 PUSH1 0x40 ADD MLOAD DUP4 EQ SWAP2 POP POP PUSH2 0x1735 JUMP JUMPDEST PUSH1 0x3C PUSH1 0xF8 SHL DUP2 PUSH1 0x0 DUP2 MLOAD DUP2 LT PUSH2 0x1621 JUMPI PUSH2 0x1620 PUSH2 0x2A92 JUMP JUMPDEST JUMPDEST PUSH1 0x20 ADD ADD MLOAD PUSH1 0xF8 SHR PUSH1 0xF8 SHL PUSH31 0xFFFFFFFFFFFFFFFFFFFFFFFFFFFFFFFFFFFFFFFFFFFFFFFFFFFFFFFFFFFFFF NOT AND SUB PUSH2 0x167B JUMPI PUSH1 0x2 DUP2 MLOAD SUB PUSH2 0x166C JUMPI DUP4 PUSH1 0x40 ADD MLOAD DUP4 SGT ISZERO SWAP2 POP POP PUSH2 0x1735 JUMP JUMPDEST DUP4 PUSH1 0x40 ADD MLOAD DUP4 SLT SWAP2 POP POP PUSH2 0x1735 JUMP JUMPDEST PUSH1 0x3E PUSH1 0xF8 SHL DUP2 PUSH1 0x0 DUP2 MLOAD DUP2 LT PUSH2 0x1694 JUMPI PUSH2 0x1693 PUSH2 0x2A92 JUMP JUMPDEST JUMPDEST PUSH1 0x20 ADD ADD MLOAD PUSH1 0xF8 SHR PUSH1 0xF8 SHL PUSH31 0xFFFFFFFFFFFFFFFFFFFFFFFFFFFFFFFFFFFFFFFFFFFFFFFFFFFFFFFFFFFFFF NOT AND SUB PUSH2 0x16EE JUMPI PUSH1 0x2 DUP2 MLOAD SUB PUSH2 0x16DF JUMPI DUP4 PUSH1 0x40 ADD MLOAD DUP4 SLT ISZERO SWAP2 POP POP PUSH2 0x1735 JUMP JUMPDEST DUP4 PUSH1 0x40 ADD MLOAD DUP4 SGT SWAP2 POP POP PUSH2 0x1735 JUMP JUMPDEST PUSH1 0x0 PUSH2 0x172F JUMPI PUSH1 0x40 MLOAD PUSH32 0x8C379A000000000000000000000000000000000000000000000000000000000 DUP2 MSTORE PUSH1 0x4 ADD PUSH2 0x1726 SWAP1 PUSH2 0x2ED8 JUMP JUMPDEST PUSH1 0x40 MLOAD DUP1 SWAP2 SUB SWAP1 REVERT JUMPDEST PUSH1 0x0 SWAP2 POP POP JUMPDEST SWAP3 SWAP2 POP POP JUMP JUMPDEST PUSH1 0x0 DUP1 DUP3 GT PUSH2 0x177F JUMPI PUSH1 0x40 MLOAD PUSH32 0x8C379A000000000000000000000000000000000000000000000000000000000 DUP2 MSTORE PUSH1 0x4 ADD PUSH2 0x1776 SWAP1 PUSH2 0x2F6A JUMP JUMPDEST PUSH1 0x40 MLOAD DUP1 SWAP2 SUB SWAP1 REVERT JUMPDEST PUSH2 0x17AF DUP5 PUSH1 0x3 ADD PUSH1 0x0 SWAP1 SLOAD SWAP1 PUSH2 0x100 EXP SWAP1 DIV PUSH1 0xFF AND DUP6 PUSH1 0x5 ADD PUSH1 0x0 SWAP1 SLOAD SWAP1 PUSH2 0x100 EXP SWAP1 DIV PUSH4 0xFFFFFFFF AND DUP6 PUSH2 0x1ABF JUMP JUMPDEST ISZERO PUSH2 0x1814 JUMPI DUP4 PUSH1 0x2 ADD SLOAD DUP5 PUSH1 0x4 ADD DUP2 SWAP1 SSTORE POP PUSH2 0x17F1 DUP5 PUSH1 0x3 ADD PUSH1 0x1 SWAP1 SLOAD SWAP1 PUSH2 0x100 EXP SWAP1 DIV PUSH4 0xFFFFFFFF AND DUP6 PUSH1 0x3 ADD PUSH1 0x0 SWAP1 SLOAD SWAP1 PUSH2 0x100 EXP SWAP1 DIV PUSH1 0xFF AND DUP6 PUSH2 0x1C11 JUMP JUMPDEST DUP5 PUSH1 0x5 ADD PUSH1 0x0 PUSH2 0x100 EXP DUP2 SLOAD DUP2 PUSH4 0xFFFFFFFF MUL NOT AND SWAP1 DUP4 PUSH4 0xFFFFFFFF AND MUL OR SWAP1 SSTORE POP JUMPDEST DUP4 PUSH1 0x4 ADD SLOAD DUP3 GT PUSH2 0x1831 JUMPI DUP2 DUP5 PUSH1 0x6 ADD DUP2 SWAP1 SSTORE POP PUSH1 0x1 SWAP1 POP PUSH2 0x1836 JUMP JUMPDEST PUSH1 0x0 SWAP1 POP JUMPDEST SWAP4 SWAP3 POP POP POP JUMP JUMPDEST DUP1 PUSH1 0x0 PUSH2 0x184F DUP3 PUSH4 0xFFFFFFFF AND PUSH2 0x195F JUMP JUMPDEST SWAP1 POP PUSH1 0xA DUP2 MLOAD GT ISZERO PUSH2 0x1860 JUMPI PUSH1 0x0 DUP1 REVERT JUMPDEST DUP4 PUSH1 0x0 ADD PUSH1 0x4 SWAP1 SLOAD SWAP1 PUSH2 0x100 EXP SWAP1 DIV PUSH4 0xFFFFFFFF AND DUP4 PUSH2 0x1880 SWAP2 SWAP1 PUSH2 0x2F8A JUMP JUMPDEST DUP5 PUSH1 0x0 ADD PUSH1 0x0 PUSH2 0x100 EXP DUP2 SLOAD DUP2 PUSH4 0xFFFFFFFF MUL NOT AND SWAP1 DUP4 PUSH4 0xFFFFFFFF AND MUL OR SWAP1 SSTORE POP POP POP POP POP JUMP JUMPDEST PUSH1 0x0 PUSH1 0x4 PUSH1 0xFF AND DUP3 PUSH1 0xFF AND GT ISZERO PUSH2 0x18F4 JUMPI PUSH1 0x40 MLOAD PUSH32 0x8C379A000000000000000000000000000000000000000000000000000000000 DUP2 MSTORE PUSH1 0x4 ADD PUSH2 0x18EB SWAP1 PUSH2 0x3036 JUMP JUMPDEST PUSH1 0x40 MLOAD DUP1 SWAP2 SUB SWAP1 REVERT JUMPDEST PUSH1 0x0 PUSH1 0xFF AND DUP3 PUSH1 0xFF AND SUB PUSH2 0x190B JUMPI PUSH1 0x1 SWAP1 POP PUSH2 0x195A JUMP JUMPDEST PUSH1 0x1 PUSH1 0xFF AND DUP3 PUSH1 0xFF AND SUB PUSH2 0x1922 JUMPI PUSH1 0x3C SWAP1 POP PUSH2 0x195A JUMP JUMPDEST PUSH1 0x2 PUSH1 0xFF AND DUP3 PUSH1 0xFF AND SUB PUSH2 0x193A JUMPI PUSH2 0xE10 SWAP1 POP PUSH2 0x195A JUMP JUMPDEST PUSH1 0x3 PUSH1 0xFF AND DUP3 PUSH1 0xFF AND SUB PUSH2 0x1953 JUMPI PUSH3 0x15180 SWAP1 POP PUSH2 0x195A JUMP JUMPDEST PUSH3 0x93A80 SWAP1 POP JUMPDEST SWAP2 SWAP1 POP JUMP JUMPDEST PUSH1 0x60 PUSH1 0x0 DUP3 SUB PUSH2 0x19A6 JUMPI PUSH1 0x40 MLOAD DUP1 PUSH1 0x40 ADD PUSH1 0x40 MSTORE DUP1 PUSH1 0x1 DUP2 MSTORE PUSH1 0x20 ADD PUSH32 0x3000000000000000000000000000000000000000000000000000000000000000 DUP2 MSTORE POP SWAP1 POP PUSH2 0x1ABA JUMP JUMPDEST PUSH1 0x0 DUP3 SWAP1 POP PUSH1 0x0 JUMPDEST PUSH1 0x0 DUP3 EQ PUSH2 0x19D8 JUMPI DUP1 DUP1 PUSH2 0x19C1 SWAP1 PUSH2 0x3056 JUMP JUMPDEST SWAP2 POP POP PUSH1 0xA DUP3 PUSH2 0x19D1 SWAP2 SWAP1 PUSH2 0x30CD JUMP JUMPDEST SWAP2 POP PUSH2 0x19AE JUMP JUMPDEST PUSH1 0x0 DUP2 PUSH8 0xFFFFFFFFFFFFFFFF DUP2 GT ISZERO PUSH2 0x19F4 JUMPI PUSH2 0x19F3 PUSH2 0x217E JUMP JUMPDEST JUMPDEST PUSH1 0x40 MLOAD SWAP1 DUP1 DUP3 MSTORE DUP1 PUSH1 0x1F ADD PUSH1 0x1F NOT AND PUSH1 0x20 ADD DUP3 ADD PUSH1 0x40 MSTORE DUP1 ISZERO PUSH2 0x1A26 JUMPI DUP2 PUSH1 0x20 ADD PUSH1 0x1 DUP3 MUL DUP1 CALLDATASIZE DUP4 CALLDATACOPY DUP1 DUP3 ADD SWAP2 POP POP SWAP1 POP JUMPDEST POP SWAP1 POP JUMPDEST PUSH1 0x0 DUP6 EQ PUSH2 0x1AB3 JUMPI PUSH1 0x1 DUP3 PUSH2 0x1A3F SWAP2 SWAP1 PUSH2 0x2C94 JUMP JUMPDEST SWAP2 POP PUSH1 0xA DUP6 PUSH2 0x1A4E SWAP2 SWAP1 PUSH2 0x30FE JUMP JUMPDEST PUSH1 0x30 PUSH2 0x1A5A SWAP2 SWAP1 PUSH2 0x312F JUMP JUMPDEST PUSH1 0xF8 SHL DUP2 DUP4 DUP2 MLOAD DUP2 LT PUSH2 0x1A70 JUMPI PUSH2 0x1A6F PUSH2 0x2A92 JUMP JUMPDEST JUMPDEST PUSH1 0x20 ADD ADD SWAP1 PUSH31 0xFFFFFFFFFFFFFFFFFFFFFFFFFFFFFFFFFFFFFFFFFFFFFFFFFFFFFFFFFFFFFF NOT AND SWAP1 DUP2 PUSH1 0x0 BYTE SWAP1 MSTORE8 POP PUSH1 0xA DUP6 PUSH2 0x1AAC SWAP2 SWAP1 PUSH2 0x30CD JUMP JUMPDEST SWAP5 POP PUSH2 0x1A2A JUMP JUMPDEST DUP1 SWAP4 POP POP POP POP JUMPDEST SWAP2 SWAP1 POP JUMP JUMPDEST PUSH1 0x0 DUP1 DUP5 SWAP1 POP PUSH1 0x4 PUSH1 0xFF AND DUP2 PUSH1 0xFF AND GT PUSH2 0x1AEB JUMPI DUP4 PUSH4 0xFFFFFFFF AND DUP4 PUSH4 0xFFFFFFFF AND LT ISZERO SWAP2 POP POP PUSH2 0x1B7D JUMP JUMPDEST PUSH1 0x5 PUSH1 0xFF AND DUP2 PUSH1 0xFF AND SUB PUSH2 0x1B53 JUMPI PUSH1 0x0 PUSH2 0x1B0A DUP5 PUSH4 0xFFFFFFFF AND PUSH2 0x1CA4 JUMP JUMPDEST POP SWAP2 POP POP PUSH1 0xD DUP6 PUSH4 0xFFFFFFFF AND EQ DUP1 ISZERO PUSH2 0x1B2A JUMPI POP PUSH1 0x1 DUP2 PUSH4 0xFFFFFFFF AND EQ JUMPDEST ISZERO PUSH2 0x1B3A JUMPI PUSH1 0x1 SWAP3 POP POP POP PUSH2 0x1B7D JUMP JUMPDEST DUP5 PUSH4 0xFFFFFFFF AND DUP2 PUSH4 0xFFFFFFFF AND LT ISZERO SWAP3 POP POP POP PUSH2 0x1B7D JUMP JUMPDEST PUSH1 0x0 PUSH2 0x1B64 DUP5 PUSH4 0xFFFFFFFF AND PUSH2 0x1CA4 JUMP JUMPDEST POP POP SWAP1 POP DUP5 PUSH4 0xFFFFFFFF AND DUP2 PUSH4 0xFFFFFFFF AND LT ISZERO SWAP3 POP POP POP JUMPDEST SWAP4 SWAP3 POP POP POP JUMP JUMPDEST DUP2 PUSH1 0x0 ADD PUSH1 0x0 SWAP1 SLOAD SWAP1 PUSH2 0x100 EXP SWAP1 DIV PUSH4 0xFFFFFFFF AND DUP3 PUSH1 0x0 ADD PUSH1 0x9 PUSH2 0x100 EXP DUP2 SLOAD DUP2 PUSH4 0xFFFFFFFF MUL NOT AND SWAP1 DUP4 PUSH4 0xFFFFFFFF AND MUL OR SWAP1 SSTORE POP PUSH2 0x1BEB DUP3 PUSH1 0x0 ADD PUSH1 0x5 SWAP1 SLOAD SWAP1 PUSH2 0x100 EXP SWAP1 DIV PUSH4 0xFFFFFFFF AND DUP4 PUSH1 0x0 ADD PUSH1 0x4 SWAP1 SLOAD SWAP1 PUSH2 0x100 EXP SWAP1 DIV PUSH1 0xFF AND DUP4 PUSH2 0x1C11 JUMP JUMPDEST DUP3 PUSH1 0x0 ADD PUSH1 0xD PUSH2 0x100 EXP DUP2 SLOAD DUP2 PUSH4 0xFFFFFFFF MUL NOT AND SWAP1 DUP4 PUSH4 0xFFFFFFFF AND MUL OR SWAP1 SSTORE POP POP POP JUMP JUMPDEST PUSH1 0x0 PUSH1 0x4 PUSH1 0xFF AND DUP4 PUSH1 0xFF AND GT PUSH2 0x1C33 JUMPI PUSH2 0x1C2C DUP4 DUP4 DUP7 PUSH2 0x1E57 JUMP JUMPDEST SWAP1 POP PUSH2 0x1C9D JUMP JUMPDEST PUSH1 0x5 PUSH1 0xFF AND DUP4 PUSH1 0xFF AND SUB PUSH2 0x1C71 JUMPI PUSH1 0x0 PUSH2 0x1C52 DUP4 PUSH4 0xFFFFFFFF AND PUSH2 0x1CA4 JUMP JUMPDEST POP PUSH4 0xFFFFFFFF AND SWAP2 POP POP PUSH1 0x1 DUP2 PUSH2 0x1C69 SWAP2 SWAP1 PUSH2 0x312F JUMP JUMPDEST SWAP2 POP POP PUSH2 0x1C9D JUMP JUMPDEST PUSH1 0x0 PUSH2 0x1C82 DUP4 PUSH4 0xFFFFFFFF AND PUSH2 0x1CA4 JUMP JUMPDEST POP POP PUSH4 0xFFFFFFFF AND SWAP1 POP PUSH1 0x1 DUP2 PUSH2 0x1C99 SWAP2 SWAP1 PUSH2 0x312F JUMP JUMPDEST SWAP2 POP POP JUMPDEST SWAP4 SWAP3 POP POP POP JUMP JUMPDEST PUSH1 0x0 DUP1 PUSH1 0x0 DUP1 PUSH3 0x15180 PUSH4 0xFFFFFFFF AND DUP6 PUSH2 0x1CBF SWAP2 SWAP1 PUSH2 0x30CD JUMP JUMPDEST SWAP1 POP PUSH1 0x0 PUSH3 0x253D8C PUSH3 0x10BD9 DUP4 PUSH2 0x1CD6 SWAP2 SWAP1 PUSH2 0x2F8A JUMP JUMPDEST PUSH2 0x1CE0 SWAP2 SWAP1 PUSH2 0x2F8A JUMP JUMPDEST SWAP1 POP PUSH1 0x0 PUSH3 0x23AB1 DUP3 PUSH1 0x4 PUSH2 0x1CF5 SWAP2 SWAP1 PUSH2 0x3185 JUMP JUMPDEST PUSH2 0x1CFF SWAP2 SWAP1 PUSH2 0x31C3 JUMP JUMPDEST SWAP1 POP PUSH1 0x4 PUSH1 0x3 DUP3 PUSH3 0x23AB1 PUSH2 0x1D14 SWAP2 SWAP1 PUSH2 0x3185 JUMP JUMPDEST PUSH2 0x1D1E SWAP2 SWAP1 PUSH2 0x2F8A JUMP JUMPDEST PUSH2 0x1D28 SWAP2 SWAP1 PUSH2 0x31C3 JUMP JUMPDEST DUP3 PUSH2 0x1D33 SWAP2 SWAP1 PUSH2 0x2D5A JUMP JUMPDEST SWAP2 POP PUSH1 0x0 PUSH3 0x164B09 PUSH1 0x1 DUP5 PUSH2 0x1D48 SWAP2 SWAP1 PUSH2 0x2F8A JUMP JUMPDEST PUSH2 0xFA0 PUSH2 0x1D55 SWAP2 SWAP1 PUSH2 0x3185 JUMP JUMPDEST PUSH2 0x1D5F SWAP2 SWAP1 PUSH2 0x31C3 JUMP JUMPDEST SWAP1 POP PUSH1 0x1F PUSH1 0x4 DUP3 PUSH2 0x5B5 PUSH2 0x1D73 SWAP2 SWAP1 PUSH2 0x3185 JUMP JUMPDEST PUSH2 0x1D7D SWAP2 SWAP1 PUSH2 0x31C3 JUMP JUMPDEST DUP5 PUSH2 0x1D88 SWAP2 SWAP1 PUSH2 0x2D5A JUMP JUMPDEST PUSH2 0x1D92 SWAP2 SWAP1 PUSH2 0x2F8A JUMP JUMPDEST SWAP3 POP PUSH1 0x0 PUSH2 0x98F DUP5 PUSH1 0x50 PUSH2 0x1DA6 SWAP2 SWAP1 PUSH2 0x3185 JUMP JUMPDEST PUSH2 0x1DB0 SWAP2 SWAP1 PUSH2 0x31C3 JUMP JUMPDEST SWAP1 POP PUSH1 0x0 PUSH1 0x50 DUP3 PUSH2 0x98F PUSH2 0x1DC4 SWAP2 SWAP1 PUSH2 0x3185 JUMP JUMPDEST PUSH2 0x1DCE SWAP2 SWAP1 PUSH2 0x31C3 JUMP JUMPDEST DUP6 PUSH2 0x1DD9 SWAP2 SWAP1 PUSH2 0x2D5A JUMP JUMPDEST SWAP1 POP PUSH1 0xB DUP3 PUSH2 0x1DE8 SWAP2 SWAP1 PUSH2 0x31C3 JUMP JUMPDEST SWAP5 POP DUP5 PUSH1 0xC PUSH2 0x1DF7 SWAP2 SWAP1 PUSH2 0x3185 JUMP JUMPDEST PUSH1 0x2 DUP4 PUSH2 0x1E04 SWAP2 SWAP1 PUSH2 0x2F8A JUMP JUMPDEST PUSH2 0x1E0E SWAP2 SWAP1 PUSH2 0x2D5A JUMP JUMPDEST SWAP2 POP DUP5 DUP4 PUSH1 0x31 DUP7 PUSH2 0x1E1F SWAP2 SWAP1 PUSH2 0x2D5A JUMP JUMPDEST PUSH1 0x64 PUSH2 0x1E2B SWAP2 SWAP1 PUSH2 0x3185 JUMP JUMPDEST PUSH2 0x1E35 SWAP2 SWAP1 PUSH2 0x2F8A JUMP JUMPDEST PUSH2 0x1E3F SWAP2 SWAP1 PUSH2 0x2F8A JUMP JUMPDEST SWAP3 POP DUP3 SWAP9 POP DUP2 SWAP8 POP DUP1 SWAP7 POP POP POP POP POP POP POP SWAP2 SWAP4 SWAP1 SWAP3 POP JUMP JUMPDEST PUSH1 0x0 DUP1 DUP3 DUP5 PUSH2 0x1E66 SWAP2 SWAP1 PUSH2 0x31F4 JUMP JUMPDEST SWAP1 POP PUSH1 0x0 DUP2 DUP5 PUSH2 0x1E76 SWAP2 SWAP1 PUSH2 0x2D5A JUMP JUMPDEST SWAP1 POP PUSH1 0x4 PUSH1 0xFF AND DUP7 PUSH1 0xFF AND SUB PUSH2 0x1EA9 JUMPI PUSH3 0x3F480 DUP2 DUP7 PUSH2 0x1E96 SWAP2 SWAP1 PUSH2 0x2F8A JUMP JUMPDEST PUSH2 0x1EA0 SWAP2 SWAP1 PUSH2 0x2F8A JUMP JUMPDEST SWAP3 POP POP POP PUSH2 0x1EBA JUMP JUMPDEST DUP1 DUP6 PUSH2 0x1EB5 SWAP2 SWAP1 PUSH2 0x2F8A JUMP JUMPDEST SWAP3 POP POP POP JUMPDEST SWAP4 SWAP3 POP POP POP JUMP JUMPDEST POP DUP1 SLOAD PUSH2 0x1ECD SWAP1 PUSH2 0x2BC8 JUMP JUMPDEST PUSH1 0x0 DUP3 SSTORE DUP1 PUSH1 0x1F LT PUSH2 0x1EDF JUMPI POP PUSH2 0x1EFE JUMP JUMPDEST PUSH1 0x1F ADD PUSH1 0x20 SWAP1 DIV SWAP1 PUSH1 0x0 MSTORE PUSH1 0x20 PUSH1 0x0 KECCAK256 SWAP1 DUP2 ADD SWAP1 PUSH2 0x1EFD SWAP2 SWAP1 PUSH2 0x2132 JUMP JUMPDEST JUMPDEST POP JUMP JUMPDEST DUP3 DUP1 SLOAD PUSH2 0x1F0D SWAP1 PUSH2 0x2BC8 JUMP JUMPDEST SWAP1 PUSH1 0x0 MSTORE PUSH1 0x20 PUSH1 0x0 KECCAK256 SWAP1 PUSH1 0x1F ADD PUSH1 0x20 SWAP1 DIV DUP2 ADD SWAP3 DUP3 PUSH2 0x1F2F JUMPI PUSH1 0x0 DUP6 SSTORE PUSH2 0x1F76 JUMP JUMPDEST DUP3 PUSH1 0x1F LT PUSH2 0x1F48 JUMPI DUP1 MLOAD PUSH1 0xFF NOT AND DUP4 DUP1 ADD OR DUP6 SSTORE PUSH2 0x1F76 JUMP JUMPDEST DUP3 DUP1 ADD PUSH1 0x1 ADD DUP6 SSTORE DUP3 ISZERO PUSH2 0x1F76 JUMPI SWAP2 DUP3 ADD JUMPDEST DUP3 DUP2 GT ISZERO PUSH2 0x1F75 JUMPI DUP3 MLOAD DUP3 SSTORE SWAP2 PUSH1 0x20 ADD SWAP2 SWAP1 PUSH1 0x1 ADD SWAP1 PUSH2 0x1F5A JUMP JUMPDEST JUMPDEST POP SWAP1 POP PUSH2 0x1F83 SWAP2 SWAP1 PUSH2 0x2132 JUMP JUMPDEST POP SWAP1 JUMP JUMPDEST PUSH1 0x40 MLOAD DUP1 PUSH1 0x60 ADD PUSH1 0x40 MSTORE DUP1 PUSH1 0x60 DUP2 MSTORE PUSH1 0x20 ADD PUSH1 0x0 PUSH20 0xFFFFFFFFFFFFFFFFFFFFFFFFFFFFFFFFFFFFFFFF AND DUP2 MSTORE PUSH1 0x20 ADD PUSH1 0x0 ISZERO ISZERO DUP2 MSTORE POP SWAP1 JUMP JUMPDEST PUSH1 0x40 MLOAD DUP1 PUSH1 0xA0 ADD PUSH1 0x40 MSTORE DUP1 PUSH1 0x0 PUSH4 0xFFFFFFFF AND DUP2 MSTORE PUSH1 0x20 ADD PUSH1 0x0 PUSH1 0xFF AND DUP2 MSTORE PUSH1 0x20 ADD PUSH1 0x0 PUSH4 0xFFFFFFFF AND DUP2 MSTORE PUSH1 0x20 ADD PUSH1 0x0 PUSH4 0xFFFFFFFF AND DUP2 MSTORE PUSH1 0x20 ADD PUSH1 0x0 PUSH4 0xFFFFFFFF AND DUP2 MSTORE POP SWAP1 JUMP JUMPDEST PUSH1 0x40 MLOAD DUP1 PUSH1 0x60 ADD PUSH1 0x40 MSTORE DUP1 PUSH1 0x60 DUP2 MSTORE PUSH1 0x20 ADD PUSH1 0x60 DUP2 MSTORE PUSH1 0x20 ADD PUSH1 0x0 DUP2 MSTORE POP SWAP1 JUMP JUMPDEST PUSH1 0x40 MLOAD DUP1 PUSH2 0x100 ADD PUSH1 0x40 MSTORE DUP1 PUSH1 0x60 DUP2 MSTORE PUSH1 0x20 ADD PUSH1 0x60 DUP2 MSTORE PUSH1 0x20 ADD PUSH1 0x0 DUP2 MSTORE PUSH1 0x20 ADD PUSH1 0x0 PUSH1 0xFF AND DUP2 MSTORE PUSH1 0x20 ADD PUSH1 0x0 PUSH4 0xFFFFFFFF AND DUP2 MSTORE PUSH1 0x20 ADD PUSH1 0x0 DUP2 MSTORE PUSH1 0x20 ADD PUSH1 0x0 PUSH4 0xFFFFFFFF AND DUP2 MSTORE PUSH1 0x20 ADD PUSH1 0x0 DUP2 MSTORE POP SWAP1 JUMP JUMPDEST PUSH1 0x40 MLOAD DUP1 PUSH1 0x40 ADD PUSH1 0x40 MSTORE DUP1 PUSH1 0x0 PUSH4 0xFFFFFFFF AND DUP2 MSTORE PUSH1 0x20 ADD PUSH1 0x0 PUSH4 0xFFFFFFFF AND DUP2 MSTORE POP SWAP1 JUMP JUMPDEST DUP3 DUP1 SLOAD PUSH2 0x20B1 SWAP1 PUSH2 0x2BC8 JUMP JUMPDEST SWAP1 PUSH1 0x0 MSTORE PUSH1 0x20 PUSH1 0x0 KECCAK256 SWAP1 PUSH1 0x1F ADD PUSH1 0x20 SWAP1 DIV DUP2 ADD SWAP3 DUP3 PUSH2 0x20D3 JUMPI PUSH1 0x0 DUP6 SSTORE PUSH2 0x2121 JUMP JUMPDEST DUP3 PUSH1 0x1F LT PUSH2 0x20E4 JUMPI DUP1 SLOAD DUP6 SSTORE PUSH2 0x2121 JUMP JUMPDEST DUP3 DUP1 ADD PUSH1 0x1 ADD DUP6 SSTORE DUP3 ISZERO PUSH2 0x2121 JUMPI PUSH1 0x0 MSTORE PUSH1 0x20 PUSH1 0x0 KECCAK256 SWAP2 PUSH1 0x1F ADD PUSH1 0x20 SWAP1 DIV DUP3 ADD JUMPDEST DUP3 DUP2 GT ISZERO PUSH2 0x2120 JUMPI DUP3 SLOAD DUP3 SSTORE SWAP2 PUSH1 0x1 ADD SWAP2 SWAP1 PUSH1 0x1 ADD SWAP1 PUSH2 0x2105 JUMP JUMPDEST JUMPDEST POP SWAP1 POP PUSH2 0x212E SWAP2 SWAP1 PUSH2 0x2132 JUMP JUMPDEST POP SWAP1 JUMP JUMPDEST JUMPDEST DUP1 DUP3 GT ISZERO PUSH2 0x214B JUMPI PUSH1 0x0 DUP2 PUSH1 0x0 SWAP1 SSTORE POP PUSH1 0x1 ADD PUSH2 0x2133 JUMP JUMPDEST POP SWAP1 JUMP JUMPDEST PUSH1 0x0 PUSH1 0x40 MLOAD SWAP1 POP SWAP1 JUMP JUMPDEST PUSH1 0x0 DUP1 REVERT JUMPDEST PUSH1 0x0 DUP1 REVERT JUMPDEST PUSH1 0x0 DUP1 REVERT JUMPDEST PUSH1 0x0 DUP1 REVERT JUMPDEST PUSH1 0x0 PUSH1 0x1F NOT PUSH1 0x1F DUP4 ADD AND SWAP1 POP SWAP2 SWAP1 POP JUMP JUMPDEST PUSH32 0x4E487B7100000000000000000000000000000000000000000000000000000000 PUSH1 0x0 MSTORE PUSH1 0x41 PUSH1 0x4 MSTORE PUSH1 0x24 PUSH1 0x0 REVERT JUMPDEST PUSH2 0x21B6 DUP3 PUSH2 0x216D JUMP JUMPDEST DUP2 ADD DUP2 DUP2 LT PUSH8 0xFFFFFFFFFFFFFFFF DUP3 GT OR ISZERO PUSH2 0x21D5 JUMPI PUSH2 0x21D4 PUSH2 0x217E JUMP JUMPDEST JUMPDEST DUP1 PUSH1 0x40 MSTORE POP POP POP JUMP JUMPDEST PUSH1 0x0 PUSH2 0x21E8 PUSH2 0x214F JUMP JUMPDEST SWAP1 POP PUSH2 0x21F4 DUP3 DUP3 PUSH2 0x21AD JUMP JUMPDEST SWAP2 SWAP1 POP JUMP JUMPDEST PUSH1 0x0 PUSH8 0xFFFFFFFFFFFFFFFF DUP3 GT ISZERO PUSH2 0x2214 JUMPI PUSH2 0x2213 PUSH2 0x217E JUMP JUMPDEST JUMPDEST PUSH2 0x221D DUP3 PUSH2 0x216D JUMP JUMPDEST SWAP1 POP PUSH1 0x20 DUP2 ADD SWAP1 POP SWAP2 SWAP1 POP JUMP JUMPDEST DUP3 DUP2 DUP4 CALLDATACOPY PUSH1 0x0 DUP4 DUP4 ADD MSTORE POP POP POP JUMP JUMPDEST PUSH1 0x0 PUSH2 0x224C PUSH2 0x2247 DUP5 PUSH2 0x21F9 JUMP JUMPDEST PUSH2 0x21DE JUMP JUMPDEST SWAP1 POP DUP3 DUP2 MSTORE PUSH1 0x20 DUP2 ADD DUP5 DUP5 DUP5 ADD GT ISZERO PUSH2 0x2268 JUMPI PUSH2 0x2267 PUSH2 0x2168 JUMP JUMPDEST JUMPDEST PUSH2 0x2273 DUP5 DUP3 DUP6 PUSH2 0x222A JUMP JUMPDEST POP SWAP4 SWAP3 POP POP POP JUMP JUMPDEST PUSH1 0x0 DUP3 PUSH1 0x1F DUP4 ADD SLT PUSH2 0x2290 JUMPI PUSH2 0x228F PUSH2 0x2163 JUMP JUMPDEST JUMPDEST DUP2 CALLDATALOAD PUSH2 0x22A0 DUP5 DUP3 PUSH1 0x20 DUP7 ADD PUSH2 0x2239 JUMP JUMPDEST SWAP2 POP POP SWAP3 SWAP2 POP POP JUMP JUMPDEST PUSH1 0x0 PUSH20 0xFFFFFFFFFFFFFFFFFFFFFFFFFFFFFFFFFFFFFFFF DUP3 AND SWAP1 POP SWAP2 SWAP1 POP JUMP JUMPDEST PUSH1 0x0 PUSH2 0x22D4 DUP3 PUSH2 0x22A9 JUMP JUMPDEST SWAP1 POP SWAP2 SWAP1 POP JUMP JUMPDEST PUSH2 0x22E4 DUP2 PUSH2 0x22C9 JUMP JUMPDEST DUP2 EQ PUSH2 0x22EF JUMPI PUSH1 0x0 DUP1 REVERT JUMPDEST POP JUMP JUMPDEST PUSH1 0x0 DUP2 CALLDATALOAD SWAP1 POP PUSH2 0x2301 DUP2 PUSH2 0x22DB JUMP JUMPDEST SWAP3 SWAP2 POP POP JUMP JUMPDEST PUSH1 0x0 DUP1 PUSH1 0x40 DUP4 DUP6 SUB SLT ISZERO PUSH2 0x231E JUMPI PUSH2 0x231D PUSH2 0x2159 JUMP JUMPDEST JUMPDEST PUSH1 0x0 DUP4 ADD CALLDATALOAD PUSH8 0xFFFFFFFFFFFFFFFF DUP2 GT ISZERO PUSH2 0x233C JUMPI PUSH2 0x233B PUSH2 0x215E JUMP JUMPDEST JUMPDEST PUSH2 0x2348 DUP6 DUP3 DUP7 ADD PUSH2 0x227B JUMP JUMPDEST SWAP3 POP POP PUSH1 0x20 PUSH2 0x2359 DUP6 DUP3 DUP7 ADD PUSH2 0x22F2 JUMP JUMPDEST SWAP2 POP POP SWAP3 POP SWAP3 SWAP1 POP JUMP JUMPDEST PUSH1 0x0 DUP2 ISZERO ISZERO SWAP1 POP SWAP2 SWAP1 POP JUMP JUMPDEST PUSH2 0x2378 DUP2 PUSH2 0x2363 JUMP JUMPDEST DUP3 MSTORE POP POP JUMP JUMPDEST PUSH1 0x0 PUSH1 0x20 DUP3 ADD SWAP1 POP PUSH2 0x2393 PUSH1 0x0 DUP4 ADD DUP5 PUSH2 0x236F JUMP JUMPDEST SWAP3 SWAP2 POP POP JUMP JUMPDEST PUSH2 0x23A2 DUP2 PUSH2 0x22C9 JUMP JUMPDEST DUP3 MSTORE POP POP JUMP JUMPDEST PUSH1 0x0 PUSH1 0x20 DUP3 ADD SWAP1 POP PUSH2 0x23BD PUSH1 0x0 DUP4 ADD DUP5 PUSH2 0x2399 JUMP JUMPDEST SWAP3 SWAP2 POP POP JUMP JUMPDEST PUSH1 0x0 PUSH4 0xFFFFFFFF DUP3 AND SWAP1 POP SWAP2 SWAP1 POP JUMP JUMPDEST PUSH2 0x23DC DUP2 PUSH2 0x23C3 JUMP JUMPDEST DUP2 EQ PUSH2 0x23E7 JUMPI PUSH1 0x0 DUP1 REVERT JUMPDEST POP JUMP JUMPDEST PUSH1 0x0 DUP2 CALLDATALOAD SWAP1 POP PUSH2 0x23F9 DUP2 PUSH2 0x23D3 JUMP JUMPDEST SWAP3 SWAP2 POP POP JUMP JUMPDEST PUSH1 0x0 PUSH1 0x20 DUP3 DUP5 SUB SLT ISZERO PUSH2 0x2415 JUMPI PUSH2 0x2414 PUSH2 0x2159 JUMP JUMPDEST JUMPDEST PUSH1 0x0 PUSH2 0x2423 DUP5 DUP3 DUP6 ADD PUSH2 0x23EA JUMP JUMPDEST SWAP2 POP POP SWAP3 SWAP2 POP POP JUMP JUMPDEST PUSH1 0x0 PUSH8 0xFFFFFFFFFFFFFFFF DUP3 GT ISZERO PUSH2 0x2447 JUMPI PUSH2 0x2446 PUSH2 0x217E JUMP JUMPDEST JUMPDEST PUSH1 0x20 DUP3 MUL SWAP1 POP PUSH1 0x20 DUP2 ADD SWAP1 POP SWAP2 SWAP1 POP JUMP JUMPDEST PUSH1 0x0 DUP1 REVERT JUMPDEST PUSH1 0x0 DUP2 SWAP1 POP SWAP2 SWAP1 POP JUMP JUMPDEST PUSH2 0x2470 DUP2 PUSH2 0x245D JUMP JUMPDEST DUP2 EQ PUSH2 0x247B JUMPI PUSH1 0x0 DUP1 REVERT JUMPDEST POP JUMP JUMPDEST PUSH1 0x0 DUP2 CALLDATALOAD SWAP1 POP PUSH2 0x248D DUP2 PUSH2 0x2467 JUMP JUMPDEST SWAP3 SWAP2 POP POP JUMP JUMPDEST PUSH1 0x0 PUSH2 0x24A6 PUSH2 0x24A1 DUP5 PUSH2 0x242C JUMP JUMPDEST PUSH2 0x21DE JUMP JUMPDEST SWAP1 POP DUP1 DUP4 DUP3 MSTORE PUSH1 0x20 DUP3 ADD SWAP1 POP PUSH1 0x20 DUP5 MUL DUP4 ADD DUP6 DUP2 GT ISZERO PUSH2 0x24C9 JUMPI PUSH2 0x24C8 PUSH2 0x2458 JUMP JUMPDEST JUMPDEST DUP4 JUMPDEST DUP2 DUP2 LT ISZERO PUSH2 0x24F2 JUMPI DUP1 PUSH2 0x24DE DUP9 DUP3 PUSH2 0x247E JUMP JUMPDEST DUP5 MSTORE PUSH1 0x20 DUP5 ADD SWAP4 POP POP PUSH1 0x20 DUP2 ADD SWAP1 POP PUSH2 0x24CB JUMP JUMPDEST POP POP POP SWAP4 SWAP3 POP POP POP JUMP JUMPDEST PUSH1 0x0 DUP3 PUSH1 0x1F DUP4 ADD SLT PUSH2 0x2511 JUMPI PUSH2 0x2510 PUSH2 0x2163 JUMP JUMPDEST JUMPDEST DUP2 CALLDATALOAD PUSH2 0x2521 DUP5 DUP3 PUSH1 0x20 DUP7 ADD PUSH2 0x2493 JUMP JUMPDEST SWAP2 POP POP SWAP3 SWAP2 POP POP JUMP JUMPDEST PUSH1 0x0 PUSH8 0xFFFFFFFFFFFFFFFF DUP3 GT ISZERO PUSH2 0x2545 JUMPI PUSH2 0x2544 PUSH2 0x217E JUMP JUMPDEST JUMPDEST PUSH1 0x20 DUP3 MUL SWAP1 POP PUSH1 0x20 DUP2 ADD SWAP1 POP SWAP2 SWAP1 POP JUMP JUMPDEST PUSH1 0x0 DUP2 SWAP1 POP SWAP2 SWAP1 POP JUMP JUMPDEST PUSH2 0x2569 DUP2 PUSH2 0x2556 JUMP JUMPDEST DUP2 EQ PUSH2 0x2574 JUMPI PUSH1 0x0 DUP1 REVERT JUMPDEST POP JUMP JUMPDEST PUSH1 0x0 DUP2 CALLDATALOAD SWAP1 POP PUSH2 0x2586 DUP2 PUSH2 0x2560 JUMP JUMPDEST SWAP3 SWAP2 POP POP JUMP JUMPDEST PUSH1 0x0 PUSH2 0x259F PUSH2 0x259A DUP5 PUSH2 0x252A JUMP JUMPDEST PUSH2 0x21DE JUMP JUMPDEST SWAP1 POP DUP1 DUP4 DUP3 MSTORE PUSH1 0x20 DUP3 ADD SWAP1 POP PUSH1 0x20 DUP5 MUL DUP4 ADD DUP6 DUP2 GT ISZERO PUSH2 0x25C2 JUMPI PUSH2 0x25C1 PUSH2 0x2458 JUMP JUMPDEST JUMPDEST DUP4 JUMPDEST DUP2 DUP2 LT ISZERO PUSH2 0x25EB JUMPI DUP1 PUSH2 0x25D7 DUP9 DUP3 PUSH2 0x2577 JUMP JUMPDEST DUP5 MSTORE PUSH1 0x20 DUP5 ADD SWAP4 POP POP PUSH1 0x20 DUP2 ADD SWAP1 POP PUSH2 0x25C4 JUMP JUMPDEST POP POP POP SWAP4 SWAP3 POP POP POP JUMP JUMPDEST PUSH1 0x0 DUP3 PUSH1 0x1F DUP4 ADD SLT PUSH2 0x260A JUMPI PUSH2 0x2609 PUSH2 0x2163 JUMP JUMPDEST JUMPDEST DUP2 CALLDATALOAD PUSH2 0x261A DUP5 DUP3 PUSH1 0x20 DUP7 ADD PUSH2 0x258C JUMP JUMPDEST SWAP2 POP POP SWAP3 SWAP2 POP POP JUMP JUMPDEST PUSH1 0x0 DUP1 PUSH1 0x0 PUSH1 0x60 DUP5 DUP7 SUB SLT ISZERO PUSH2 0x263C JUMPI PUSH2 0x263B PUSH2 0x2159 JUMP JUMPDEST JUMPDEST PUSH1 0x0 PUSH2 0x264A DUP7 DUP3 DUP8 ADD PUSH2 0x23EA JUMP JUMPDEST SWAP4 POP POP PUSH1 0x20 DUP5 ADD CALLDATALOAD PUSH8 0xFFFFFFFFFFFFFFFF DUP2 GT ISZERO PUSH2 0x266B JUMPI PUSH2 0x266A PUSH2 0x215E JUMP JUMPDEST JUMPDEST PUSH2 0x2677 DUP7 DUP3 DUP8 ADD PUSH2 0x24FC JUMP JUMPDEST SWAP3 POP POP PUSH1 0x40 DUP5 ADD CALLDATALOAD PUSH8 0xFFFFFFFFFFFFFFFF DUP2 GT ISZERO PUSH2 0x2698 JUMPI PUSH2 0x2697 PUSH2 0x215E JUMP JUMPDEST JUMPDEST PUSH2 0x26A4 DUP7 DUP3 DUP8 ADD PUSH2 0x25F5 JUMP JUMPDEST SWAP2 POP POP SWAP3 POP SWAP3 POP SWAP3 JUMP JUMPDEST PUSH1 0x0 PUSH1 0x20 DUP3 DUP5 SUB SLT ISZERO PUSH2 0x26C4 JUMPI PUSH2 0x26C3 PUSH2 0x2159 JUMP JUMPDEST JUMPDEST PUSH1 0x0 PUSH2 0x26D2 DUP5 DUP3 DUP6 ADD PUSH2 0x22F2 JUMP JUMPDEST SWAP2 POP POP SWAP3 SWAP2 POP POP JUMP JUMPDEST PUSH1 0x0 DUP2 MLOAD SWAP1 POP SWAP2 SWAP1 POP JUMP JUMPDEST PUSH1 0x0 DUP3 DUP3 MSTORE PUSH1 0x20 DUP3 ADD SWAP1 POP SWAP3 SWAP2 POP POP JUMP JUMPDEST PUSH1 0x0 JUMPDEST DUP4 DUP2 LT ISZERO PUSH2 0x2715 JUMPI DUP1 DUP3 ADD MLOAD DUP2 DUP5 ADD MSTORE PUSH1 0x20 DUP2 ADD SWAP1 POP PUSH2 0x26FA JUMP JUMPDEST DUP4 DUP2 GT ISZERO PUSH2 0x2724 JUMPI PUSH1 0x0 DUP5 DUP5 ADD MSTORE JUMPDEST POP POP POP POP JUMP JUMPDEST PUSH1 0x0 PUSH2 0x2735 DUP3 PUSH2 0x26DB JUMP JUMPDEST PUSH2 0x273F DUP2 DUP6 PUSH2 0x26E6 JUMP JUMPDEST SWAP4 POP PUSH2 0x274F DUP2 DUP6 PUSH1 0x20 DUP7 ADD PUSH2 0x26F7 JUMP JUMPDEST PUSH2 0x2758 DUP2 PUSH2 0x216D JUMP JUMPDEST DUP5 ADD SWAP2 POP POP SWAP3 SWAP2 POP POP JUMP JUMPDEST PUSH2 0x276C DUP2 PUSH2 0x22C9 JUMP JUMPDEST DUP3 MSTORE POP POP JUMP JUMPDEST PUSH2 0x277B DUP2 PUSH2 0x2363 JUMP JUMPDEST DUP3 MSTORE POP POP JUMP JUMPDEST PUSH1 0x0 PUSH1 0x60 DUP4 ADD PUSH1 0x0 DUP4 ADD MLOAD DUP5 DUP3 SUB PUSH1 0x0 DUP7 ADD MSTORE PUSH2 0x279E DUP3 DUP3 PUSH2 0x272A JUMP JUMPDEST SWAP2 POP POP PUSH1 0x20 DUP4 ADD MLOAD PUSH2 0x27B3 PUSH1 0x20 DUP7 ADD DUP3 PUSH2 0x2763 JUMP JUMPDEST POP PUSH1 0x40 DUP4 ADD MLOAD PUSH2 0x27C6 PUSH1 0x40 DUP7 ADD DUP3 PUSH2 0x2772 JUMP JUMPDEST POP DUP1 SWAP2 POP POP SWAP3 SWAP2 POP POP JUMP JUMPDEST PUSH1 0x0 PUSH1 0x20 DUP3 ADD SWAP1 POP DUP2 DUP2 SUB PUSH1 0x0 DUP4 ADD MSTORE PUSH2 0x27EB DUP2 DUP5 PUSH2 0x2781 JUMP JUMPDEST SWAP1 POP SWAP3 SWAP2 POP POP JUMP JUMPDEST PUSH1 0x0 DUP3 DUP3 MSTORE PUSH1 0x20 DUP3 ADD SWAP1 POP SWAP3 SWAP2 POP POP JUMP JUMPDEST PUSH32 0x4F6E6C79207468652070726F636573732063616E206578656375746520746869 PUSH1 0x0 DUP3 ADD MSTORE PUSH32 0x73206F7065726174696F6E000000000000000000000000000000000000000000 PUSH1 0x20 DUP3 ADD MSTORE POP JUMP JUMPDEST PUSH1 0x0 PUSH2 0x2860 PUSH1 0x2B DUP4 PUSH2 0x27F3 JUMP JUMPDEST SWAP2 POP PUSH2 0x286B DUP3 PUSH2 0x2804 JUMP JUMPDEST PUSH1 0x40 DUP3 ADD SWAP1 POP SWAP2 SWAP1 POP JUMP JUMPDEST PUSH1 0x0 PUSH1 0x20 DUP3 ADD SWAP1 POP DUP2 DUP2 SUB PUSH1 0x0 DUP4 ADD MSTORE PUSH2 0x288F DUP2 PUSH2 0x2853 JUMP JUMPDEST SWAP1 POP SWAP2 SWAP1 POP JUMP JUMPDEST PUSH32 0x5468697320636F6E747261637420697320646561637469766174656400000000 PUSH1 0x0 DUP3 ADD MSTORE POP JUMP JUMPDEST PUSH1 0x0 PUSH2 0x28CC PUSH1 0x1C DUP4 PUSH2 0x27F3 JUMP JUMPDEST SWAP2 POP PUSH2 0x28D7 DUP3 PUSH2 0x2896 JUMP JUMPDEST PUSH1 0x20 DUP3 ADD SWAP1 POP SWAP2 SWAP1 POP JUMP JUMPDEST PUSH1 0x0 PUSH1 0x20 DUP3 ADD SWAP1 POP DUP2 DUP2 SUB PUSH1 0x0 DUP4 ADD MSTORE PUSH2 0x28FB DUP2 PUSH2 0x28BF JUMP JUMPDEST SWAP1 POP SWAP2 SWAP1 POP JUMP JUMPDEST PUSH32 0x4F6E6C79207468652070726F63657373206F7220746865206170706C69636174 PUSH1 0x0 DUP3 ADD MSTORE PUSH32 0x696F6E2063616E20657865637574652074686973206F7065726174696F6E0000 PUSH1 0x20 DUP3 ADD MSTORE POP JUMP JUMPDEST PUSH1 0x0 PUSH2 0x295E PUSH1 0x3E DUP4 PUSH2 0x27F3 JUMP JUMPDEST SWAP2 POP PUSH2 0x2969 DUP3 PUSH2 0x2902 JUMP JUMPDEST PUSH1 0x40 DUP3 ADD SWAP1 POP SWAP2 SWAP1 POP JUMP JUMPDEST PUSH1 0x0 PUSH1 0x20 DUP3 ADD SWAP1 POP DUP2 DUP2 SUB PUSH1 0x0 DUP4 ADD MSTORE PUSH2 0x298D DUP2 PUSH2 0x2951 JUMP JUMPDEST SWAP1 POP SWAP2 SWAP1 POP JUMP JUMPDEST PUSH32 0x4F6E6C7920746865206170706C69636174696F6E2063616E2065786563757465 PUSH1 0x0 DUP3 ADD MSTORE PUSH32 0x2074686973206F7065726174696F6E0000000000000000000000000000000000 PUSH1 0x20 DUP3 ADD MSTORE POP JUMP JUMPDEST PUSH1 0x0 PUSH2 0x29F0 PUSH1 0x2F DUP4 PUSH2 0x27F3 JUMP JUMPDEST SWAP2 POP PUSH2 0x29FB DUP3 PUSH2 0x2994 JUMP JUMPDEST PUSH1 0x40 DUP3 ADD SWAP1 POP SWAP2 SWAP1 POP JUMP JUMPDEST PUSH1 0x0 PUSH1 0x20 DUP3 ADD SWAP1 POP DUP2 DUP2 SUB PUSH1 0x0 DUP4 ADD MSTORE PUSH2 0x2A1F DUP2 PUSH2 0x29E3 JUMP JUMPDEST SWAP1 POP SWAP2 SWAP1 POP JUMP JUMPDEST PUSH32 0x54686520636F6E747261637420697320616C7265616479207369676E65640000 PUSH1 0x0 DUP3 ADD MSTORE POP JUMP JUMPDEST PUSH1 0x0 PUSH2 0x2A5C PUSH1 0x1E DUP4 PUSH2 0x27F3 JUMP JUMPDEST SWAP2 POP PUSH2 0x2A67 DUP3 PUSH2 0x2A26 JUMP JUMPDEST PUSH1 0x20 DUP3 ADD SWAP1 POP SWAP2 SWAP1 POP JUMP JUMPDEST PUSH1 0x0 PUSH1 0x20 DUP3 ADD SWAP1 POP DUP2 DUP2 SUB PUSH1 0x0 DUP4 ADD MSTORE PUSH2 0x2A8B DUP2 PUSH2 0x2A4F JUMP JUMPDEST SWAP1 POP SWAP2 SWAP1 POP JUMP JUMPDEST PUSH32 0x4E487B7100000000000000000000000000000000000000000000000000000000 PUSH1 0x0 MSTORE PUSH1 0x32 PUSH1 0x4 MSTORE PUSH1 0x24 PUSH1 0x0 REVERT JUMPDEST PUSH32 0x5375636365737366756C20657865637574696F6E210000000000000000000000 PUSH1 0x0 DUP3 ADD MSTORE POP JUMP JUMPDEST PUSH1 0x0 PUSH2 0x2AF7 PUSH1 0x15 DUP4 PUSH2 0x27F3 JUMP JUMPDEST SWAP2 POP PUSH2 0x2B02 DUP3 PUSH2 0x2AC1 JUMP JUMPDEST PUSH1 0x20 DUP3 ADD SWAP1 POP SWAP2 SWAP1 POP JUMP JUMPDEST PUSH1 0x0 PUSH1 0x20 DUP3 ADD SWAP1 POP DUP2 DUP2 SUB PUSH1 0x0 DUP4 ADD MSTORE PUSH2 0x2B26 DUP2 PUSH2 0x2AEA JUMP JUMPDEST SWAP1 POP SWAP2 SWAP1 POP JUMP JUMPDEST PUSH32 0x436F6E646974696F6E206E6F74206D6565740000000000000000000000000000 PUSH1 0x0 DUP3 ADD MSTORE POP JUMP JUMPDEST PUSH1 0x0 PUSH2 0x2B63 PUSH1 0x12 DUP4 PUSH2 0x27F3 JUMP JUMPDEST SWAP2 POP PUSH2 0x2B6E DUP3 PUSH2 0x2B2D JUMP JUMPDEST PUSH1 0x20 DUP3 ADD SWAP1 POP SWAP2 SWAP1 POP JUMP JUMPDEST PUSH1 0x0 PUSH1 0x20 DUP3 ADD SWAP1 POP DUP2 DUP2 SUB PUSH1 0x0 DUP4 ADD MSTORE PUSH2 0x2B92 DUP2 PUSH2 0x2B56 JUMP JUMPDEST SWAP1 POP SWAP2 SWAP1 POP JUMP JUMPDEST PUSH32 0x4E487B7100000000000000000000000000000000000000000000000000000000 PUSH1 0x0 MSTORE PUSH1 0x22 PUSH1 0x4 MSTORE PUSH1 0x24 PUSH1 0x0 REVERT JUMPDEST PUSH1 0x0 PUSH1 0x2 DUP3 DIV SWAP1 POP PUSH1 0x1 DUP3 AND DUP1 PUSH2 0x2BE0 JUMPI PUSH1 0x7F DUP3 AND SWAP2 POP JUMPDEST PUSH1 0x20 DUP3 LT DUP2 SUB PUSH2 0x2BF3 JUMPI PUSH2 0x2BF2 PUSH2 0x2B99 JUMP JUMPDEST JUMPDEST POP SWAP2 SWAP1 POP JUMP JUMPDEST PUSH32 0x45786365646564206E756D626572206F6620646F6375656D6E74730000000000 PUSH1 0x0 DUP3 ADD MSTORE POP JUMP JUMPDEST PUSH1 0x0 PUSH2 0x2C2F PUSH1 0x1B DUP4 PUSH2 0x27F3 JUMP JUMPDEST SWAP2 POP PUSH2 0x2C3A DUP3 PUSH2 0x2BF9 JUMP JUMPDEST PUSH1 0x20 DUP3 ADD SWAP1 POP SWAP2 SWAP1 POP JUMP JUMPDEST PUSH1 0x0 PUSH1 0x20 DUP3 ADD SWAP1 POP DUP2 DUP2 SUB PUSH1 0x0 DUP4 ADD MSTORE PUSH2 0x2C5E DUP2 PUSH2 0x2C22 JUMP JUMPDEST SWAP1 POP SWAP2 SWAP1 POP JUMP JUMPDEST PUSH32 0x4E487B7100000000000000000000000000000000000000000000000000000000 PUSH1 0x0 MSTORE PUSH1 0x11 PUSH1 0x4 MSTORE PUSH1 0x24 PUSH1 0x0 REVERT JUMPDEST PUSH1 0x0 PUSH2 0x2C9F DUP3 PUSH2 0x2556 JUMP JUMPDEST SWAP2 POP PUSH2 0x2CAA DUP4 PUSH2 0x2556 JUMP JUMPDEST SWAP3 POP DUP3 DUP3 LT ISZERO PUSH2 0x2CBD JUMPI PUSH2 0x2CBC PUSH2 0x2C65 JUMP JUMPDEST JUMPDEST DUP3 DUP3 SUB SWAP1 POP SWAP3 SWAP2 POP POP JUMP JUMPDEST PUSH32 0x5468657265206973206E6F20656E6454696D652073657420696E2074696D656F PUSH1 0x0 DUP3 ADD MSTORE PUSH32 0x7574000000000000000000000000000000000000000000000000000000000000 PUSH1 0x20 DUP3 ADD MSTORE POP JUMP JUMPDEST PUSH1 0x0 PUSH2 0x2D24 PUSH1 0x22 DUP4 PUSH2 0x27F3 JUMP JUMPDEST SWAP2 POP PUSH2 0x2D2F DUP3 PUSH2 0x2CC8 JUMP JUMPDEST PUSH1 0x40 DUP3 ADD SWAP1 POP SWAP2 SWAP1 POP JUMP JUMPDEST PUSH1 0x0 PUSH1 0x20 DUP3 ADD SWAP1 POP DUP2 DUP2 SUB PUSH1 0x0 DUP4 ADD MSTORE PUSH2 0x2D53 DUP2 PUSH2 0x2D17 JUMP JUMPDEST SWAP1 POP SWAP2 SWAP1 POP JUMP JUMPDEST PUSH1 0x0 PUSH2 0x2D65 DUP3 PUSH2 0x23C3 JUMP JUMPDEST SWAP2 POP PUSH2 0x2D70 DUP4 PUSH2 0x23C3 JUMP JUMPDEST SWAP3 POP DUP3 DUP3 LT ISZERO PUSH2 0x2D83 JUMPI PUSH2 0x2D82 PUSH2 0x2C65 JUMP JUMPDEST JUMPDEST DUP3 DUP3 SUB SWAP1 POP SWAP3 SWAP2 POP POP JUMP JUMPDEST PUSH32 0x546865726520696E206E6F20636F6E74656E7420746F2064656372656173652E PUSH1 0x0 DUP3 ADD MSTORE POP JUMP JUMPDEST PUSH1 0x0 PUSH2 0x2DC4 PUSH1 0x20 DUP4 PUSH2 0x27F3 JUMP JUMPDEST SWAP2 POP PUSH2 0x2DCF DUP3 PUSH2 0x2D8E JUMP JUMPDEST PUSH1 0x20 DUP3 ADD SWAP1 POP SWAP2 SWAP1 POP JUMP JUMPDEST PUSH1 0x0 PUSH1 0x20 DUP3 ADD SWAP1 POP DUP2 DUP2 SUB PUSH1 0x0 DUP4 ADD MSTORE PUSH2 0x2DF3 DUP2 PUSH2 0x2DB7 JUMP JUMPDEST SWAP1 POP SWAP2 SWAP1 POP JUMP JUMPDEST PUSH32 0x546865206D65737361676520636F6E74656E74206E756D626572206973206772 PUSH1 0x0 DUP3 ADD MSTORE PUSH32 0x6561746572207468616E207468652072656D61696E696E6720616D6F756E7400 PUSH1 0x20 DUP3 ADD MSTORE POP JUMP JUMPDEST PUSH1 0x0 PUSH2 0x2E56 PUSH1 0x3F DUP4 PUSH2 0x27F3 JUMP JUMPDEST SWAP2 POP PUSH2 0x2E61 DUP3 PUSH2 0x2DFA JUMP JUMPDEST PUSH1 0x40 DUP3 ADD SWAP1 POP SWAP2 SWAP1 POP JUMP JUMPDEST PUSH1 0x0 PUSH1 0x20 DUP3 ADD SWAP1 POP DUP2 DUP2 SUB PUSH1 0x0 DUP4 ADD MSTORE PUSH2 0x2E85 DUP2 PUSH2 0x2E49 JUMP JUMPDEST SWAP1 POP SWAP2 SWAP1 POP JUMP JUMPDEST PUSH32 0x436F6D70617269736F6E2073796D626F6C206973206E6F742076616C69640000 PUSH1 0x0 DUP3 ADD MSTORE POP JUMP JUMPDEST PUSH1 0x0 PUSH2 0x2EC2 PUSH1 0x1E DUP4 PUSH2 0x27F3 JUMP JUMPDEST SWAP2 POP PUSH2 0x2ECD DUP3 PUSH2 0x2E8C JUMP JUMPDEST PUSH1 0x20 DUP3 ADD SWAP1 POP SWAP2 SWAP1 POP JUMP JUMPDEST PUSH1 0x0 PUSH1 0x20 DUP3 ADD SWAP1 POP DUP2 DUP2 SUB PUSH1 0x0 DUP4 ADD MSTORE PUSH2 0x2EF1 DUP2 PUSH2 0x2EB5 JUMP JUMPDEST SWAP1 POP SWAP2 SWAP1 POP JUMP JUMPDEST PUSH32 0x54686520726573756C74206F66207468652078706174682073686F756C642062 PUSH1 0x0 DUP3 ADD MSTORE PUSH32 0x65206D6F7265207468616E203000000000000000000000000000000000000000 PUSH1 0x20 DUP3 ADD MSTORE POP JUMP JUMPDEST PUSH1 0x0 PUSH2 0x2F54 PUSH1 0x2D DUP4 PUSH2 0x27F3 JUMP JUMPDEST SWAP2 POP PUSH2 0x2F5F DUP3 PUSH2 0x2EF8 JUMP JUMPDEST PUSH1 0x40 DUP3 ADD SWAP1 POP SWAP2 SWAP1 POP JUMP JUMPDEST PUSH1 0x0 PUSH1 0x20 DUP3 ADD SWAP1 POP DUP2 DUP2 SUB PUSH1 0x0 DUP4 ADD MSTORE PUSH2 0x2F83 DUP2 PUSH2 0x2F47 JUMP JUMPDEST SWAP1 POP SWAP2 SWAP1 POP JUMP JUMPDEST PUSH1 0x0 PUSH2 0x2F95 DUP3 PUSH2 0x23C3 JUMP JUMPDEST SWAP2 POP PUSH2 0x2FA0 DUP4 PUSH2 0x23C3 JUMP JUMPDEST SWAP3 POP DUP3 PUSH4 0xFFFFFFFF SUB DUP3 GT ISZERO PUSH2 0x2FB9 JUMPI PUSH2 0x2FB8 PUSH2 0x2C65 JUMP JUMPDEST JUMPDEST DUP3 DUP3 ADD SWAP1 POP SWAP3 SWAP2 POP POP JUMP JUMPDEST PUSH32 0x546865206D6574686F642067657454696D65496E5365636F6E647320646F6573 PUSH1 0x0 DUP3 ADD MSTORE PUSH32 0x6E277420776F726B20666F72204D4F4E544820616E6420594541520000000000 PUSH1 0x20 DUP3 ADD MSTORE POP JUMP JUMPDEST PUSH1 0x0 PUSH2 0x3020 PUSH1 0x3B DUP4 PUSH2 0x27F3 JUMP JUMPDEST SWAP2 POP PUSH2 0x302B DUP3 PUSH2 0x2FC4 JUMP JUMPDEST PUSH1 0x40 DUP3 ADD SWAP1 POP SWAP2 SWAP1 POP JUMP JUMPDEST PUSH1 0x0 PUSH1 0x20 DUP3 ADD SWAP1 POP DUP2 DUP2 SUB PUSH1 0x0 DUP4 ADD MSTORE PUSH2 0x304F DUP2 PUSH2 0x3013 JUMP JUMPDEST SWAP1 POP SWAP2 SWAP1 POP JUMP JUMPDEST PUSH1 0x0 PUSH2 0x3061 DUP3 PUSH2 0x2556 JUMP JUMPDEST SWAP2 POP PUSH32 0xFFFFFFFFFFFFFFFFFFFFFFFFFFFFFFFFFFFFFFFFFFFFFFFFFFFFFFFFFFFFFFFF DUP3 SUB PUSH2 0x3093 JUMPI PUSH2 0x3092 PUSH2 0x2C65 JUMP JUMPDEST JUMPDEST PUSH1 0x1 DUP3 ADD SWAP1 POP SWAP2 SWAP1 POP JUMP JUMPDEST PUSH32 0x4E487B7100000000000000000000000000000000000000000000000000000000 PUSH1 0x0 MSTORE PUSH1 0x12 PUSH1 0x4 MSTORE PUSH1 0x24 PUSH1 0x0 REVERT JUMPDEST PUSH1 0x0 PUSH2 0x30D8 DUP3 PUSH2 0x2556 JUMP JUMPDEST SWAP2 POP PUSH2 0x30E3 DUP4 PUSH2 0x2556 JUMP JUMPDEST SWAP3 POP DUP3 PUSH2 0x30F3 JUMPI PUSH2 0x30F2 PUSH2 0x309E JUMP JUMPDEST JUMPDEST DUP3 DUP3 DIV SWAP1 POP SWAP3 SWAP2 POP POP JUMP JUMPDEST PUSH1 0x0 PUSH2 0x3109 DUP3 PUSH2 0x2556 JUMP JUMPDEST SWAP2 POP PUSH2 0x3114 DUP4 PUSH2 0x2556 JUMP JUMPDEST SWAP3 POP DUP3 PUSH2 0x3124 JUMPI PUSH2 0x3123 PUSH2 0x309E JUMP JUMPDEST JUMPDEST DUP3 DUP3 MOD SWAP1 POP SWAP3 SWAP2 POP POP JUMP JUMPDEST PUSH1 0x0 PUSH2 0x313A DUP3 PUSH2 0x2556 JUMP JUMPDEST SWAP2 POP PUSH2 0x3145 DUP4 PUSH2 0x2556 JUMP JUMPDEST SWAP3 POP DUP3 PUSH32 0xFFFFFFFFFFFFFFFFFFFFFFFFFFFFFFFFFFFFFFFFFFFFFFFFFFFFFFFFFFFFFFFF SUB DUP3 GT ISZERO PUSH2 0x317A JUMPI PUSH2 0x3179 PUSH2 0x2C65 JUMP JUMPDEST JUMPDEST DUP3 DUP3 ADD SWAP1 POP SWAP3 SWAP2 POP POP JUMP JUMPDEST PUSH1 0x0 PUSH2 0x3190 DUP3 PUSH2 0x23C3 JUMP JUMPDEST SWAP2 POP PUSH2 0x319B DUP4 PUSH2 0x23C3 JUMP JUMPDEST SWAP3 POP DUP2 PUSH4 0xFFFFFFFF DIV DUP4 GT DUP3 ISZERO ISZERO AND ISZERO PUSH2 0x31B8 JUMPI PUSH2 0x31B7 PUSH2 0x2C65 JUMP JUMPDEST JUMPDEST DUP3 DUP3 MUL SWAP1 POP SWAP3 SWAP2 POP POP JUMP JUMPDEST PUSH1 0x0 PUSH2 0x31CE DUP3 PUSH2 0x23C3 JUMP JUMPDEST SWAP2 POP PUSH2 0x31D9 DUP4 PUSH2 0x23C3 JUMP JUMPDEST SWAP3 POP DUP3 PUSH2 0x31E9 JUMPI PUSH2 0x31E8 PUSH2 0x309E JUMP JUMPDEST JUMPDEST DUP3 DUP3 DIV SWAP1 POP SWAP3 SWAP2 POP POP JUMP JUMPDEST PUSH1 0x0 PUSH2 0x31FF DUP3 PUSH2 0x23C3 JUMP JUMPDEST SWAP2 POP PUSH2 0x320A DUP4 PUSH2 0x23C3 JUMP JUMPDEST SWAP3 POP DUP3 PUSH2 0x321A JUMPI PUSH2 0x3219 PUSH2 0x309E JUMP JUMPDEST JUMPDEST DUP3 DUP3 MOD SWAP1 POP SWAP3 SWAP2 POP POP JUMP INVALID LOG2 PUSH5 0x6970667358 0x22 SLT KECCAK256 0xB0 0xA9 PUSH25 0x9748588A97193AC936C7BF56B4BDE4BAFEB70F3E14CB0370D5 DUP1 DUP11 0xE8 DUP11 PUSH5 0x736F6C6343 STOP ADDMOD 0xD STOP CALLER "
				},
				"gasEstimates": {
					"creation": {
						"codeDepositCost": "2578200",
						"executionCost": "infinite",
						"totalCost": "infinite"
					},
					"external": {
						"changeApplicationParty(string,address)": "infinite",
						"getApplicationAddress()": "9061",
						"getParty(address)": "infinite",
						"getProcessAddress()": "9083",
						"obligation_responseWithDocuments(uint32)": "infinite",
						"right_requestDocuments(uint32,int256[],uint256[])": "infinite",
						"signContract()": "infinite"
					},
					"internal": {
						"updateMapParty(address,struct EAI.Party storage pointer)": "infinite"
					}
				},
				"methodIdentifiers": {
					"changeApplicationParty(string,address)": "5e744c6a",
					"getApplicationAddress()": "70d8915a",
					"getParty(address)": "fb6f8243",
					"getProcessAddress()": "85931911",
					"obligation_responseWithDocuments(uint32)": "dd46f364",
					"right_requestDocuments(uint32,int256[],uint256[])": "e67fa566",
					"signContract()": "b8b4f1a0"
				}
			},
			"storageLayout": {
				"storage": [
					{
						"astId": 2070,
						"contract": "contracts/study-case-contracts/003-web-of-science/WoS_API_Expanded_basicPlan.sol:WoS_API_Expanded_basicPlan",
						"label": "activated",
						"offset": 0,
						"slot": "0",
						"type": "t_bool"
					},
					{
						"astId": 2072,
						"contract": "contracts/study-case-contracts/003-web-of-science/WoS_API_Expanded_basicPlan.sol:WoS_API_Expanded_basicPlan",
						"label": "beginDate",
						"offset": 1,
						"slot": "0",
						"type": "t_uint32"
					},
					{
						"astId": 2074,
						"contract": "contracts/study-case-contracts/003-web-of-science/WoS_API_Expanded_basicPlan.sol:WoS_API_Expanded_basicPlan",
						"label": "dueDate",
						"offset": 5,
						"slot": "0",
						"type": "t_uint32"
					},
					{
						"astId": 2081,
						"contract": "contracts/study-case-contracts/003-web-of-science/WoS_API_Expanded_basicPlan.sol:WoS_API_Expanded_basicPlan",
						"label": "application",
						"offset": 0,
						"slot": "1",
						"type": "t_struct(Party)75_storage"
					},
					{
						"astId": 2084,
						"contract": "contracts/study-case-contracts/003-web-of-science/WoS_API_Expanded_basicPlan.sol:WoS_API_Expanded_basicPlan",
						"label": "process",
						"offset": 0,
						"slot": "3",
						"type": "t_struct(Party)75_storage"
					},
					{
						"astId": 2089,
						"contract": "contracts/study-case-contracts/003-web-of-science/WoS_API_Expanded_basicPlan.sol:WoS_API_Expanded_basicPlan",
						"label": "mapParty",
						"offset": 0,
						"slot": "5",
						"type": "t_mapping(t_address,t_struct(Party)75_storage)"
					},
					{
						"astId": 2117,
						"contract": "contracts/study-case-contracts/003-web-of-science/WoS_API_Expanded_basicPlan.sol:WoS_API_Expanded_basicPlan",
						"label": "maxNumberOfOperationByTime_C1",
						"offset": 0,
						"slot": "6",
						"type": "t_array(t_struct(MaxNumberOfOperationByTime)778_storage)dyn_storage"
					},
					{
						"astId": 2121,
						"contract": "contracts/study-case-contracts/003-web-of-science/WoS_API_Expanded_basicPlan.sol:WoS_API_Expanded_basicPlan",
						"label": "msgContent_number_C1",
						"offset": 0,
						"slot": "7",
						"type": "t_array(t_struct(MessageContent_Number)1068_storage)dyn_storage"
					},
					{
						"astId": 2125,
						"contract": "contracts/study-case-contracts/003-web-of-science/WoS_API_Expanded_basicPlan.sol:WoS_API_Expanded_basicPlan",
						"label": "msgContent_numberPerTime_C1",
						"offset": 0,
						"slot": "8",
						"type": "t_array(t_struct(MessageContent_NumberPerTime)1202_storage)dyn_storage"
					},
					{
						"astId": 2129,
						"contract": "contracts/study-case-contracts/003-web-of-science/WoS_API_Expanded_basicPlan.sol:WoS_API_Expanded_basicPlan",
						"label": "timeout_C2",
						"offset": 0,
						"slot": "9",
						"type": "t_array(t_struct(Timeout)604_storage)dyn_storage"
					}
				],
				"types": {
					"t_address": {
						"encoding": "inplace",
						"label": "address",
						"numberOfBytes": "20"
					},
					"t_array(t_struct(MaxNumberOfOperationByTime)778_storage)dyn_storage": {
						"base": "t_struct(MaxNumberOfOperationByTime)778_storage",
						"encoding": "dynamic_array",
						"label": "struct EAI.MaxNumberOfOperationByTime[]",
						"numberOfBytes": "32"
					},
					"t_array(t_struct(MessageContent_Number)1068_storage)dyn_storage": {
						"base": "t_struct(MessageContent_Number)1068_storage",
						"encoding": "dynamic_array",
						"label": "struct EAI.MessageContent_Number[]",
						"numberOfBytes": "32"
					},
					"t_array(t_struct(MessageContent_NumberPerTime)1202_storage)dyn_storage": {
						"base": "t_struct(MessageContent_NumberPerTime)1202_storage",
						"encoding": "dynamic_array",
						"label": "struct EAI.MessageContent_NumberPerTime[]",
						"numberOfBytes": "32"
					},
					"t_array(t_struct(Timeout)604_storage)dyn_storage": {
						"base": "t_struct(Timeout)604_storage",
						"encoding": "dynamic_array",
						"label": "struct EAI.Timeout[]",
						"numberOfBytes": "32"
					},
					"t_bool": {
						"encoding": "inplace",
						"label": "bool",
						"numberOfBytes": "1"
					},
					"t_int256": {
						"encoding": "inplace",
						"label": "int256",
						"numberOfBytes": "32"
					},
					"t_mapping(t_address,t_struct(Party)75_storage)": {
						"encoding": "mapping",
						"key": "t_address",
						"label": "mapping(address => struct EAI.Party)",
						"numberOfBytes": "32",
						"value": "t_struct(Party)75_storage"
					},
					"t_string_storage": {
						"encoding": "bytes",
						"label": "string",
						"numberOfBytes": "32"
					},
					"t_struct(MaxNumberOfOperationByTime)778_storage": {
						"encoding": "inplace",
						"label": "struct EAI.MaxNumberOfOperationByTime",
						"members": [
							{
								"astId": 769,
								"contract": "contracts/study-case-contracts/003-web-of-science/WoS_API_Expanded_basicPlan.sol:WoS_API_Expanded_basicPlan",
								"label": "amount",
								"offset": 0,
								"slot": "0",
								"type": "t_uint32"
							},
							{
								"astId": 771,
								"contract": "contracts/study-case-contracts/003-web-of-science/WoS_API_Expanded_basicPlan.sol:WoS_API_Expanded_basicPlan",
								"label": "timeUnit",
								"offset": 4,
								"slot": "0",
								"type": "t_uint8"
							},
							{
								"astId": 773,
								"contract": "contracts/study-case-contracts/003-web-of-science/WoS_API_Expanded_basicPlan.sol:WoS_API_Expanded_basicPlan",
								"label": "byTime",
								"offset": 5,
								"slot": "0",
								"type": "t_uint32"
							},
							{
								"astId": 775,
								"contract": "contracts/study-case-contracts/003-web-of-science/WoS_API_Expanded_basicPlan.sol:WoS_API_Expanded_basicPlan",
								"label": "rest",
								"offset": 9,
								"slot": "0",
								"type": "t_uint32"
							},
							{
								"astId": 777,
								"contract": "contracts/study-case-contracts/003-web-of-science/WoS_API_Expanded_basicPlan.sol:WoS_API_Expanded_basicPlan",
								"label": "endTime",
								"offset": 13,
								"slot": "0",
								"type": "t_uint32"
							}
						],
						"numberOfBytes": "32"
					},
					"t_struct(MessageContent_Number)1068_storage": {
						"encoding": "inplace",
						"label": "struct EAI.MessageContent_Number",
						"members": [
							{
								"astId": 1063,
								"contract": "contracts/study-case-contracts/003-web-of-science/WoS_API_Expanded_basicPlan.sol:WoS_API_Expanded_basicPlan",
								"label": "xpath",
								"offset": 0,
								"slot": "0",
								"type": "t_string_storage"
							},
							{
								"astId": 1065,
								"contract": "contracts/study-case-contracts/003-web-of-science/WoS_API_Expanded_basicPlan.sol:WoS_API_Expanded_basicPlan",
								"label": "op",
								"offset": 0,
								"slot": "1",
								"type": "t_string_storage"
							},
							{
								"astId": 1067,
								"contract": "contracts/study-case-contracts/003-web-of-science/WoS_API_Expanded_basicPlan.sol:WoS_API_Expanded_basicPlan",
								"label": "content",
								"offset": 0,
								"slot": "2",
								"type": "t_int256"
							}
						],
						"numberOfBytes": "96"
					},
					"t_struct(MessageContent_NumberPerTime)1202_storage": {
						"encoding": "inplace",
						"label": "struct EAI.MessageContent_NumberPerTime",
						"members": [
							{
								"astId": 1187,
								"contract": "contracts/study-case-contracts/003-web-of-science/WoS_API_Expanded_basicPlan.sol:WoS_API_Expanded_basicPlan",
								"label": "xpath",
								"offset": 0,
								"slot": "0",
								"type": "t_string_storage"
							},
							{
								"astId": 1189,
								"contract": "contracts/study-case-contracts/003-web-of-science/WoS_API_Expanded_basicPlan.sol:WoS_API_Expanded_basicPlan",
								"label": "op",
								"offset": 0,
								"slot": "1",
								"type": "t_string_storage"
							},
							{
								"astId": 1191,
								"contract": "contracts/study-case-contracts/003-web-of-science/WoS_API_Expanded_basicPlan.sol:WoS_API_Expanded_basicPlan",
								"label": "amount",
								"offset": 0,
								"slot": "2",
								"type": "t_uint256"
							},
							{
								"astId": 1193,
								"contract": "contracts/study-case-contracts/003-web-of-science/WoS_API_Expanded_basicPlan.sol:WoS_API_Expanded_basicPlan",
								"label": "timeUnit",
								"offset": 0,
								"slot": "3",
								"type": "t_uint8"
							},
							{
								"astId": 1195,
								"contract": "contracts/study-case-contracts/003-web-of-science/WoS_API_Expanded_basicPlan.sol:WoS_API_Expanded_basicPlan",
								"label": "byTime",
								"offset": 1,
								"slot": "3",
								"type": "t_uint32"
							},
							{
								"astId": 1197,
								"contract": "contracts/study-case-contracts/003-web-of-science/WoS_API_Expanded_basicPlan.sol:WoS_API_Expanded_basicPlan",
								"label": "rest",
								"offset": 0,
								"slot": "4",
								"type": "t_uint256"
							},
							{
								"astId": 1199,
								"contract": "contracts/study-case-contracts/003-web-of-science/WoS_API_Expanded_basicPlan.sol:WoS_API_Expanded_basicPlan",
								"label": "endTime",
								"offset": 0,
								"slot": "5",
								"type": "t_uint32"
							},
							{
								"astId": 1201,
								"contract": "contracts/study-case-contracts/003-web-of-science/WoS_API_Expanded_basicPlan.sol:WoS_API_Expanded_basicPlan",
								"label": "lastContent",
								"offset": 0,
								"slot": "6",
								"type": "t_uint256"
							}
						],
						"numberOfBytes": "224"
					},
					"t_struct(Party)75_storage": {
						"encoding": "inplace",
						"label": "struct EAI.Party",
						"members": [
							{
								"astId": 70,
								"contract": "contracts/study-case-contracts/003-web-of-science/WoS_API_Expanded_basicPlan.sol:WoS_API_Expanded_basicPlan",
								"label": "name",
								"offset": 0,
								"slot": "0",
								"type": "t_string_storage"
							},
							{
								"astId": 72,
								"contract": "contracts/study-case-contracts/003-web-of-science/WoS_API_Expanded_basicPlan.sol:WoS_API_Expanded_basicPlan",
								"label": "walletAddress",
								"offset": 0,
								"slot": "1",
								"type": "t_address"
							},
							{
								"astId": 74,
								"contract": "contracts/study-case-contracts/003-web-of-science/WoS_API_Expanded_basicPlan.sol:WoS_API_Expanded_basicPlan",
								"label": "aware",
								"offset": 20,
								"slot": "1",
								"type": "t_bool"
							}
						],
						"numberOfBytes": "64"
					},
					"t_struct(Timeout)604_storage": {
						"encoding": "inplace",
						"label": "struct EAI.Timeout",
						"members": [
							{
								"astId": 601,
								"contract": "contracts/study-case-contracts/003-web-of-science/WoS_API_Expanded_basicPlan.sol:WoS_API_Expanded_basicPlan",
								"label": "endTime",
								"offset": 0,
								"slot": "0",
								"type": "t_uint32"
							},
							{
								"astId": 603,
								"contract": "contracts/study-case-contracts/003-web-of-science/WoS_API_Expanded_basicPlan.sol:WoS_API_Expanded_basicPlan",
								"label": "timeIncrement",
								"offset": 4,
								"slot": "0",
								"type": "t_uint32"
							}
						],
						"numberOfBytes": "32"
					},
					"t_uint256": {
						"encoding": "inplace",
						"label": "uint256",
						"numberOfBytes": "32"
					},
					"t_uint32": {
						"encoding": "inplace",
						"label": "uint32",
						"numberOfBytes": "4"
					},
					"t_uint8": {
						"encoding": "inplace",
						"label": "uint8",
						"numberOfBytes": "1"
					}
				}
			},
			"userdoc": {
				"kind": "user",
				"methods": {},
				"version": 1
			}
		}
	}
}