{
	"contracts/lib/eai/EAI.sol": {
		"EAI": {
			"abi": [
				{
					"inputs": [
						{
							"internalType": "string",
							"name": "str",
							"type": "string"
						}
					],
					"name": "isNumber",
					"outputs": [
						{
							"internalType": "bool",
							"name": "",
							"type": "bool"
						}
					],
					"stateMutability": "pure",
					"type": "function"
				}
			],
			"devdoc": {
				"kind": "dev",
				"methods": {},
				"version": 1
			},
			"evm": {
				"assembly": "    /* \"contracts/lib/eai/EAI.sol\":114:31510  library EAI{    ... */\n  dataSize(sub_0)\n  dataOffset(sub_0)\n  0x0b\n  dup3\n  dup3\n  dup3\n  codecopy\n  dup1\n  mload\n  0x00\n  byte\n  0x73\n  eq\n  tag_1\n  jumpi\n  mstore(0x00, 0x4e487b7100000000000000000000000000000000000000000000000000000000)\n  mstore(0x04, 0x00)\n  revert(0x00, 0x24)\ntag_1:\n  mstore(0x00, address)\n  0x73\n  dup2\n  mstore8\n  dup3\n  dup2\n  return\nstop\n\nsub_0: assembly {\n        /* \"contracts/lib/eai/EAI.sol\":114:31510  library EAI{    ... */\n      eq(address, deployTimeAddress())\n      mstore(0x40, 0x80)\n      jumpi(tag_1, lt(calldatasize, 0x04))\n      shr(0xe0, calldataload(0x00))\n      dup1\n      0xe18a89cf\n      eq\n      tag_2\n      jumpi\n    tag_1:\n      0x00\n      dup1\n      revert\n        /* \"contracts/lib/eai/EAI.sol\":28810:28971  function isNumber(string memory str) public pure returns(bool){... */\n    tag_2:\n      tag_3\n      0x04\n      dup1\n      calldatasize\n      sub\n      dup2\n      add\n      swap1\n      tag_4\n      swap2\n      swap1\n      tag_5\n      jump\t// in\n    tag_4:\n      tag_6\n      jump\t// in\n    tag_3:\n      mload(0x40)\n      tag_7\n      swap2\n      swap1\n      tag_8\n      jump\t// in\n    tag_7:\n      mload(0x40)\n      dup1\n      swap2\n      sub\n      swap1\n      return\n    tag_6:\n        /* \"contracts/lib/eai/EAI.sol\":28867:28871  bool */\n      0x00\n        /* \"contracts/lib/eai/EAI.sol\":28883:28894  bytes1 char */\n      dup1\n        /* \"contracts/lib/eai/EAI.sol\":28903:28906  str */\n      dup3\n        /* \"contracts/lib/eai/EAI.sol\":28908:28909  0 */\n      0x00\n        /* \"contracts/lib/eai/EAI.sol\":28897:28910  bytes(str)[0] */\n      dup2\n      mload\n      dup2\n      lt\n      tag_10\n      jumpi\n      tag_11\n      tag_12\n      jump\t// in\n    tag_11:\n    tag_10:\n      0x20\n      add\n      add\n      mload\n      0xf8\n      shr\n      0xf8\n      shl\n        /* \"contracts/lib/eai/EAI.sol\":28883:28910  bytes1 char = bytes(str)[0] */\n      swap1\n      pop\n        /* \"contracts/lib/eai/EAI.sol\":28937:28941  0x30 */\n      0x30\n        /* \"contracts/lib/eai/EAI.sol\":28929:28941  char >= 0x30 */\n      0xf8\n      shl\n        /* \"contracts/lib/eai/EAI.sol\":28929:28933  char */\n      dup2\n        /* \"contracts/lib/eai/EAI.sol\":28929:28941  char >= 0x30 */\n      not(0xffffffffffffffffffffffffffffffffffffffffffffffffffffffffffffff)\n      and\n      lt\n      iszero\n        /* \"contracts/lib/eai/EAI.sol\":28929:28957  char >= 0x30 && char <= 0x39 */\n      dup1\n      iszero\n      tag_13\n      jumpi\n      pop\n        /* \"contracts/lib/eai/EAI.sol\":28953:28957  0x39 */\n      0x39\n        /* \"contracts/lib/eai/EAI.sol\":28945:28957  char <= 0x39 */\n      0xf8\n      shl\n        /* \"contracts/lib/eai/EAI.sol\":28945:28949  char */\n      dup2\n        /* \"contracts/lib/eai/EAI.sol\":28945:28957  char <= 0x39 */\n      not(0xffffffffffffffffffffffffffffffffffffffffffffffffffffffffffffff)\n      and\n      gt\n      iszero\n        /* \"contracts/lib/eai/EAI.sol\":28929:28957  char >= 0x30 && char <= 0x39 */\n    tag_13:\n        /* \"contracts/lib/eai/EAI.sol\":28921:28958  return (char >= 0x30 && char <= 0x39) */\n      swap2\n      pop\n      pop\n        /* \"contracts/lib/eai/EAI.sol\":28810:28971  function isNumber(string memory str) public pure returns(bool){... */\n      swap2\n      swap1\n      pop\n      jump\t// out\n        /* \"#utility.yul\":7:82   */\n    tag_14:\n        /* \"#utility.yul\":40:46   */\n      0x00\n        /* \"#utility.yul\":73:75   */\n      0x40\n        /* \"#utility.yul\":67:76   */\n      mload\n        /* \"#utility.yul\":57:76   */\n      swap1\n      pop\n        /* \"#utility.yul\":7:82   */\n      swap1\n      jump\t// out\n        /* \"#utility.yul\":88:205   */\n    tag_15:\n        /* \"#utility.yul\":197:198   */\n      0x00\n        /* \"#utility.yul\":194:195   */\n      dup1\n        /* \"#utility.yul\":187:199   */\n      revert\n        /* \"#utility.yul\":211:328   */\n    tag_16:\n        /* \"#utility.yul\":320:321   */\n      0x00\n        /* \"#utility.yul\":317:318   */\n      dup1\n        /* \"#utility.yul\":310:322   */\n      revert\n        /* \"#utility.yul\":334:451   */\n    tag_17:\n        /* \"#utility.yul\":443:444   */\n      0x00\n        /* \"#utility.yul\":440:441   */\n      dup1\n        /* \"#utility.yul\":433:445   */\n      revert\n        /* \"#utility.yul\":457:574   */\n    tag_18:\n        /* \"#utility.yul\":566:567   */\n      0x00\n        /* \"#utility.yul\":563:564   */\n      dup1\n        /* \"#utility.yul\":556:568   */\n      revert\n        /* \"#utility.yul\":580:682   */\n    tag_19:\n        /* \"#utility.yul\":621:627   */\n      0x00\n        /* \"#utility.yul\":672:674   */\n      0x1f\n        /* \"#utility.yul\":668:675   */\n      not\n        /* \"#utility.yul\":663:665   */\n      0x1f\n        /* \"#utility.yul\":656:661   */\n      dup4\n        /* \"#utility.yul\":652:666   */\n      add\n        /* \"#utility.yul\":648:676   */\n      and\n        /* \"#utility.yul\":638:676   */\n      swap1\n      pop\n        /* \"#utility.yul\":580:682   */\n      swap2\n      swap1\n      pop\n      jump\t// out\n        /* \"#utility.yul\":688:868   */\n    tag_20:\n        /* \"#utility.yul\":736:813   */\n      0x4e487b7100000000000000000000000000000000000000000000000000000000\n        /* \"#utility.yul\":733:734   */\n      0x00\n        /* \"#utility.yul\":726:814   */\n      mstore\n        /* \"#utility.yul\":833:837   */\n      0x41\n        /* \"#utility.yul\":830:831   */\n      0x04\n        /* \"#utility.yul\":823:838   */\n      mstore\n        /* \"#utility.yul\":857:861   */\n      0x24\n        /* \"#utility.yul\":854:855   */\n      0x00\n        /* \"#utility.yul\":847:862   */\n      revert\n        /* \"#utility.yul\":874:1155   */\n    tag_21:\n        /* \"#utility.yul\":957:984   */\n      tag_38\n        /* \"#utility.yul\":979:983   */\n      dup3\n        /* \"#utility.yul\":957:984   */\n      tag_19\n      jump\t// in\n    tag_38:\n        /* \"#utility.yul\":949:955   */\n      dup2\n        /* \"#utility.yul\":945:985   */\n      add\n        /* \"#utility.yul\":1087:1093   */\n      dup2\n        /* \"#utility.yul\":1075:1085   */\n      dup2\n        /* \"#utility.yul\":1072:1094   */\n      lt\n        /* \"#utility.yul\":1051:1069   */\n      0xffffffffffffffff\n        /* \"#utility.yul\":1039:1049   */\n      dup3\n        /* \"#utility.yul\":1036:1070   */\n      gt\n        /* \"#utility.yul\":1033:1095   */\n      or\n        /* \"#utility.yul\":1030:1118   */\n      iszero\n      tag_39\n      jumpi\n        /* \"#utility.yul\":1098:1116   */\n      tag_40\n      tag_20\n      jump\t// in\n    tag_40:\n        /* \"#utility.yul\":1030:1118   */\n    tag_39:\n        /* \"#utility.yul\":1138:1148   */\n      dup1\n        /* \"#utility.yul\":1134:1136   */\n      0x40\n        /* \"#utility.yul\":1127:1149   */\n      mstore\n        /* \"#utility.yul\":917:1155   */\n      pop\n        /* \"#utility.yul\":874:1155   */\n      pop\n      pop\n      jump\t// out\n        /* \"#utility.yul\":1161:1290   */\n    tag_22:\n        /* \"#utility.yul\":1195:1201   */\n      0x00\n        /* \"#utility.yul\":1222:1242   */\n      tag_42\n      tag_14\n      jump\t// in\n    tag_42:\n        /* \"#utility.yul\":1212:1242   */\n      swap1\n      pop\n        /* \"#utility.yul\":1251:1284   */\n      tag_43\n        /* \"#utility.yul\":1279:1283   */\n      dup3\n        /* \"#utility.yul\":1271:1277   */\n      dup3\n        /* \"#utility.yul\":1251:1284   */\n      tag_21\n      jump\t// in\n    tag_43:\n        /* \"#utility.yul\":1161:1290   */\n      swap2\n      swap1\n      pop\n      jump\t// out\n        /* \"#utility.yul\":1296:1604   */\n    tag_23:\n        /* \"#utility.yul\":1358:1362   */\n      0x00\n        /* \"#utility.yul\":1448:1466   */\n      0xffffffffffffffff\n        /* \"#utility.yul\":1440:1446   */\n      dup3\n        /* \"#utility.yul\":1437:1467   */\n      gt\n        /* \"#utility.yul\":1434:1490   */\n      iszero\n      tag_45\n      jumpi\n        /* \"#utility.yul\":1470:1488   */\n      tag_46\n      tag_20\n      jump\t// in\n    tag_46:\n        /* \"#utility.yul\":1434:1490   */\n    tag_45:\n        /* \"#utility.yul\":1508:1537   */\n      tag_47\n        /* \"#utility.yul\":1530:1536   */\n      dup3\n        /* \"#utility.yul\":1508:1537   */\n      tag_19\n      jump\t// in\n    tag_47:\n        /* \"#utility.yul\":1500:1537   */\n      swap1\n      pop\n        /* \"#utility.yul\":1592:1596   */\n      0x20\n        /* \"#utility.yul\":1586:1590   */\n      dup2\n        /* \"#utility.yul\":1582:1597   */\n      add\n        /* \"#utility.yul\":1574:1597   */\n      swap1\n      pop\n        /* \"#utility.yul\":1296:1604   */\n      swap2\n      swap1\n      pop\n      jump\t// out\n        /* \"#utility.yul\":1610:1764   */\n    tag_24:\n        /* \"#utility.yul\":1694:1700   */\n      dup3\n        /* \"#utility.yul\":1689:1692   */\n      dup2\n        /* \"#utility.yul\":1684:1687   */\n      dup4\n        /* \"#utility.yul\":1671:1701   */\n      calldatacopy\n        /* \"#utility.yul\":1756:1757   */\n      0x00\n        /* \"#utility.yul\":1747:1753   */\n      dup4\n        /* \"#utility.yul\":1742:1745   */\n      dup4\n        /* \"#utility.yul\":1738:1754   */\n      add\n        /* \"#utility.yul\":1731:1758   */\n      mstore\n        /* \"#utility.yul\":1610:1764   */\n      pop\n      pop\n      pop\n      jump\t// out\n        /* \"#utility.yul\":1770:2182   */\n    tag_25:\n        /* \"#utility.yul\":1848:1853   */\n      0x00\n        /* \"#utility.yul\":1873:1939   */\n      tag_50\n        /* \"#utility.yul\":1889:1938   */\n      tag_51\n        /* \"#utility.yul\":1931:1937   */\n      dup5\n        /* \"#utility.yul\":1889:1938   */\n      tag_23\n      jump\t// in\n    tag_51:\n        /* \"#utility.yul\":1873:1939   */\n      tag_22\n      jump\t// in\n    tag_50:\n        /* \"#utility.yul\":1864:1939   */\n      swap1\n      pop\n        /* \"#utility.yul\":1962:1968   */\n      dup3\n        /* \"#utility.yul\":1955:1960   */\n      dup2\n        /* \"#utility.yul\":1948:1969   */\n      mstore\n        /* \"#utility.yul\":2000:2004   */\n      0x20\n        /* \"#utility.yul\":1993:1998   */\n      dup2\n        /* \"#utility.yul\":1989:2005   */\n      add\n        /* \"#utility.yul\":2038:2041   */\n      dup5\n        /* \"#utility.yul\":2029:2035   */\n      dup5\n        /* \"#utility.yul\":2024:2027   */\n      dup5\n        /* \"#utility.yul\":2020:2036   */\n      add\n        /* \"#utility.yul\":2017:2042   */\n      gt\n        /* \"#utility.yul\":2014:2126   */\n      iszero\n      tag_52\n      jumpi\n        /* \"#utility.yul\":2045:2124   */\n      tag_53\n      tag_18\n      jump\t// in\n    tag_53:\n        /* \"#utility.yul\":2014:2126   */\n    tag_52:\n        /* \"#utility.yul\":2135:2176   */\n      tag_54\n        /* \"#utility.yul\":2169:2175   */\n      dup5\n        /* \"#utility.yul\":2164:2167   */\n      dup3\n        /* \"#utility.yul\":2159:2162   */\n      dup6\n        /* \"#utility.yul\":2135:2176   */\n      tag_24\n      jump\t// in\n    tag_54:\n        /* \"#utility.yul\":1854:2182   */\n      pop\n        /* \"#utility.yul\":1770:2182   */\n      swap4\n      swap3\n      pop\n      pop\n      pop\n      jump\t// out\n        /* \"#utility.yul\":2202:2542   */\n    tag_26:\n        /* \"#utility.yul\":2258:2263   */\n      0x00\n        /* \"#utility.yul\":2307:2310   */\n      dup3\n        /* \"#utility.yul\":2300:2304   */\n      0x1f\n        /* \"#utility.yul\":2292:2298   */\n      dup4\n        /* \"#utility.yul\":2288:2305   */\n      add\n        /* \"#utility.yul\":2284:2311   */\n      slt\n        /* \"#utility.yul\":2274:2396   */\n      tag_56\n      jumpi\n        /* \"#utility.yul\":2315:2394   */\n      tag_57\n      tag_17\n      jump\t// in\n    tag_57:\n        /* \"#utility.yul\":2274:2396   */\n    tag_56:\n        /* \"#utility.yul\":2432:2438   */\n      dup2\n        /* \"#utility.yul\":2419:2439   */\n      calldataload\n        /* \"#utility.yul\":2457:2536   */\n      tag_58\n        /* \"#utility.yul\":2532:2535   */\n      dup5\n        /* \"#utility.yul\":2524:2530   */\n      dup3\n        /* \"#utility.yul\":2517:2521   */\n      0x20\n        /* \"#utility.yul\":2509:2515   */\n      dup7\n        /* \"#utility.yul\":2505:2522   */\n      add\n        /* \"#utility.yul\":2457:2536   */\n      tag_25\n      jump\t// in\n    tag_58:\n        /* \"#utility.yul\":2448:2536   */\n      swap2\n      pop\n        /* \"#utility.yul\":2264:2542   */\n      pop\n        /* \"#utility.yul\":2202:2542   */\n      swap3\n      swap2\n      pop\n      pop\n      jump\t// out\n        /* \"#utility.yul\":2548:3057   */\n    tag_5:\n        /* \"#utility.yul\":2617:2623   */\n      0x00\n        /* \"#utility.yul\":2666:2668   */\n      0x20\n        /* \"#utility.yul\":2654:2663   */\n      dup3\n        /* \"#utility.yul\":2645:2652   */\n      dup5\n        /* \"#utility.yul\":2641:2664   */\n      sub\n        /* \"#utility.yul\":2637:2669   */\n      slt\n        /* \"#utility.yul\":2634:2753   */\n      iszero\n      tag_60\n      jumpi\n        /* \"#utility.yul\":2672:2751   */\n      tag_61\n      tag_15\n      jump\t// in\n    tag_61:\n        /* \"#utility.yul\":2634:2753   */\n    tag_60:\n        /* \"#utility.yul\":2820:2821   */\n      0x00\n        /* \"#utility.yul\":2809:2818   */\n      dup3\n        /* \"#utility.yul\":2805:2822   */\n      add\n        /* \"#utility.yul\":2792:2823   */\n      calldataload\n        /* \"#utility.yul\":2850:2868   */\n      0xffffffffffffffff\n        /* \"#utility.yul\":2842:2848   */\n      dup2\n        /* \"#utility.yul\":2839:2869   */\n      gt\n        /* \"#utility.yul\":2836:2953   */\n      iszero\n      tag_62\n      jumpi\n        /* \"#utility.yul\":2872:2951   */\n      tag_63\n      tag_16\n      jump\t// in\n    tag_63:\n        /* \"#utility.yul\":2836:2953   */\n    tag_62:\n        /* \"#utility.yul\":2977:3040   */\n      tag_64\n        /* \"#utility.yul\":3032:3039   */\n      dup5\n        /* \"#utility.yul\":3023:3029   */\n      dup3\n        /* \"#utility.yul\":3012:3021   */\n      dup6\n        /* \"#utility.yul\":3008:3030   */\n      add\n        /* \"#utility.yul\":2977:3040   */\n      tag_26\n      jump\t// in\n    tag_64:\n        /* \"#utility.yul\":2967:3040   */\n      swap2\n      pop\n        /* \"#utility.yul\":2763:3050   */\n      pop\n        /* \"#utility.yul\":2548:3057   */\n      swap3\n      swap2\n      pop\n      pop\n      jump\t// out\n        /* \"#utility.yul\":3063:3153   */\n    tag_27:\n        /* \"#utility.yul\":3097:3104   */\n      0x00\n        /* \"#utility.yul\":3140:3145   */\n      dup2\n        /* \"#utility.yul\":3133:3146   */\n      iszero\n        /* \"#utility.yul\":3126:3147   */\n      iszero\n        /* \"#utility.yul\":3115:3147   */\n      swap1\n      pop\n        /* \"#utility.yul\":3063:3153   */\n      swap2\n      swap1\n      pop\n      jump\t// out\n        /* \"#utility.yul\":3159:3276   */\n    tag_28:\n        /* \"#utility.yul\":3248:3269   */\n      tag_67\n        /* \"#utility.yul\":3263:3268   */\n      dup2\n        /* \"#utility.yul\":3248:3269   */\n      tag_27\n      jump\t// in\n    tag_67:\n        /* \"#utility.yul\":3243:3246   */\n      dup3\n        /* \"#utility.yul\":3236:3270   */\n      mstore\n        /* \"#utility.yul\":3159:3276   */\n      pop\n      pop\n      jump\t// out\n        /* \"#utility.yul\":3282:3508   */\n    tag_8:\n        /* \"#utility.yul\":3377:3381   */\n      0x00\n        /* \"#utility.yul\":3415:3417   */\n      0x20\n        /* \"#utility.yul\":3404:3413   */\n      dup3\n        /* \"#utility.yul\":3400:3418   */\n      add\n        /* \"#utility.yul\":3392:3418   */\n      swap1\n      pop\n        /* \"#utility.yul\":3428:3501   */\n      tag_69\n        /* \"#utility.yul\":3498:3499   */\n      0x00\n        /* \"#utility.yul\":3487:3496   */\n      dup4\n        /* \"#utility.yul\":3483:3500   */\n      add\n        /* \"#utility.yul\":3474:3480   */\n      dup5\n        /* \"#utility.yul\":3428:3501   */\n      tag_28\n      jump\t// in\n    tag_69:\n        /* \"#utility.yul\":3282:3508   */\n      swap3\n      swap2\n      pop\n      pop\n      jump\t// out\n        /* \"#utility.yul\":3514:3694   */\n    tag_12:\n        /* \"#utility.yul\":3562:3639   */\n      0x4e487b7100000000000000000000000000000000000000000000000000000000\n        /* \"#utility.yul\":3559:3560   */\n      0x00\n        /* \"#utility.yul\":3552:3640   */\n      mstore\n        /* \"#utility.yul\":3659:3663   */\n      0x32\n        /* \"#utility.yul\":3656:3657   */\n      0x04\n        /* \"#utility.yul\":3649:3664   */\n      mstore\n        /* \"#utility.yul\":3683:3687   */\n      0x24\n        /* \"#utility.yul\":3680:3681   */\n      0x00\n        /* \"#utility.yul\":3673:3688   */\n      revert\n\n    auxdata: 0xa2646970667358221220bdc93ccdebbd46bd1eca448233fe59d272e172586ccf866e66c77042032c64e964736f6c634300080d0033\n}\n",
				"bytecode": {
					"linkReferences": {},
					"object": "610330610053600b82828239805160001a607314610046577f4e487b7100000000000000000000000000000000000000000000000000000000600052600060045260246000fd5b30600052607381538281f3fe73000000000000000000000000000000000000000030146080604052600436106100355760003560e01c8063e18a89cf1461003a575b600080fd5b610054600480360381019061004f919061024c565b61006a565b60405161006191906102b0565b60405180910390f35b60008082600081518110610081576100806102cb565b5b602001015160f81c60f81b9050603060f81b817effffffffffffffffffffffffffffffffffffffffffffffffffffffffffffff1916101580156100ea5750603960f81b817effffffffffffffffffffffffffffffffffffffffffffffffffffffffffffff191611155b915050919050565b6000604051905090565b600080fd5b600080fd5b600080fd5b600080fd5b6000601f19601f8301169050919050565b7f4e487b7100000000000000000000000000000000000000000000000000000000600052604160045260246000fd5b61015982610110565b810181811067ffffffffffffffff8211171561017857610177610121565b5b80604052505050565b600061018b6100f2565b90506101978282610150565b919050565b600067ffffffffffffffff8211156101b7576101b6610121565b5b6101c082610110565b9050602081019050919050565b82818337600083830152505050565b60006101ef6101ea8461019c565b610181565b90508281526020810184848401111561020b5761020a61010b565b5b6102168482856101cd565b509392505050565b600082601f83011261023357610232610106565b5b81356102438482602086016101dc565b91505092915050565b600060208284031215610262576102616100fc565b5b600082013567ffffffffffffffff8111156102805761027f610101565b5b61028c8482850161021e565b91505092915050565b60008115159050919050565b6102aa81610295565b82525050565b60006020820190506102c560008301846102a1565b92915050565b7f4e487b7100000000000000000000000000000000000000000000000000000000600052603260045260246000fdfea2646970667358221220bdc93ccdebbd46bd1eca448233fe59d272e172586ccf866e66c77042032c64e964736f6c634300080d0033",
					"opcodes": "PUSH2 0x330 PUSH2 0x53 PUSH1 0xB DUP3 DUP3 DUP3 CODECOPY DUP1 MLOAD PUSH1 0x0 BYTE PUSH1 0x73 EQ PUSH2 0x46 JUMPI PUSH32 0x4E487B7100000000000000000000000000000000000000000000000000000000 PUSH1 0x0 MSTORE PUSH1 0x0 PUSH1 0x4 MSTORE PUSH1 0x24 PUSH1 0x0 REVERT JUMPDEST ADDRESS PUSH1 0x0 MSTORE PUSH1 0x73 DUP2 MSTORE8 DUP3 DUP2 RETURN INVALID PUSH20 0x0 ADDRESS EQ PUSH1 0x80 PUSH1 0x40 MSTORE PUSH1 0x4 CALLDATASIZE LT PUSH2 0x35 JUMPI PUSH1 0x0 CALLDATALOAD PUSH1 0xE0 SHR DUP1 PUSH4 0xE18A89CF EQ PUSH2 0x3A JUMPI JUMPDEST PUSH1 0x0 DUP1 REVERT JUMPDEST PUSH2 0x54 PUSH1 0x4 DUP1 CALLDATASIZE SUB DUP2 ADD SWAP1 PUSH2 0x4F SWAP2 SWAP1 PUSH2 0x24C JUMP JUMPDEST PUSH2 0x6A JUMP JUMPDEST PUSH1 0x40 MLOAD PUSH2 0x61 SWAP2 SWAP1 PUSH2 0x2B0 JUMP JUMPDEST PUSH1 0x40 MLOAD DUP1 SWAP2 SUB SWAP1 RETURN JUMPDEST PUSH1 0x0 DUP1 DUP3 PUSH1 0x0 DUP2 MLOAD DUP2 LT PUSH2 0x81 JUMPI PUSH2 0x80 PUSH2 0x2CB JUMP JUMPDEST JUMPDEST PUSH1 0x20 ADD ADD MLOAD PUSH1 0xF8 SHR PUSH1 0xF8 SHL SWAP1 POP PUSH1 0x30 PUSH1 0xF8 SHL DUP2 PUSH31 0xFFFFFFFFFFFFFFFFFFFFFFFFFFFFFFFFFFFFFFFFFFFFFFFFFFFFFFFFFFFFFF NOT AND LT ISZERO DUP1 ISZERO PUSH2 0xEA JUMPI POP PUSH1 0x39 PUSH1 0xF8 SHL DUP2 PUSH31 0xFFFFFFFFFFFFFFFFFFFFFFFFFFFFFFFFFFFFFFFFFFFFFFFFFFFFFFFFFFFFFF NOT AND GT ISZERO JUMPDEST SWAP2 POP POP SWAP2 SWAP1 POP JUMP JUMPDEST PUSH1 0x0 PUSH1 0x40 MLOAD SWAP1 POP SWAP1 JUMP JUMPDEST PUSH1 0x0 DUP1 REVERT JUMPDEST PUSH1 0x0 DUP1 REVERT JUMPDEST PUSH1 0x0 DUP1 REVERT JUMPDEST PUSH1 0x0 DUP1 REVERT JUMPDEST PUSH1 0x0 PUSH1 0x1F NOT PUSH1 0x1F DUP4 ADD AND SWAP1 POP SWAP2 SWAP1 POP JUMP JUMPDEST PUSH32 0x4E487B7100000000000000000000000000000000000000000000000000000000 PUSH1 0x0 MSTORE PUSH1 0x41 PUSH1 0x4 MSTORE PUSH1 0x24 PUSH1 0x0 REVERT JUMPDEST PUSH2 0x159 DUP3 PUSH2 0x110 JUMP JUMPDEST DUP2 ADD DUP2 DUP2 LT PUSH8 0xFFFFFFFFFFFFFFFF DUP3 GT OR ISZERO PUSH2 0x178 JUMPI PUSH2 0x177 PUSH2 0x121 JUMP JUMPDEST JUMPDEST DUP1 PUSH1 0x40 MSTORE POP POP POP JUMP JUMPDEST PUSH1 0x0 PUSH2 0x18B PUSH2 0xF2 JUMP JUMPDEST SWAP1 POP PUSH2 0x197 DUP3 DUP3 PUSH2 0x150 JUMP JUMPDEST SWAP2 SWAP1 POP JUMP JUMPDEST PUSH1 0x0 PUSH8 0xFFFFFFFFFFFFFFFF DUP3 GT ISZERO PUSH2 0x1B7 JUMPI PUSH2 0x1B6 PUSH2 0x121 JUMP JUMPDEST JUMPDEST PUSH2 0x1C0 DUP3 PUSH2 0x110 JUMP JUMPDEST SWAP1 POP PUSH1 0x20 DUP2 ADD SWAP1 POP SWAP2 SWAP1 POP JUMP JUMPDEST DUP3 DUP2 DUP4 CALLDATACOPY PUSH1 0x0 DUP4 DUP4 ADD MSTORE POP POP POP JUMP JUMPDEST PUSH1 0x0 PUSH2 0x1EF PUSH2 0x1EA DUP5 PUSH2 0x19C JUMP JUMPDEST PUSH2 0x181 JUMP JUMPDEST SWAP1 POP DUP3 DUP2 MSTORE PUSH1 0x20 DUP2 ADD DUP5 DUP5 DUP5 ADD GT ISZERO PUSH2 0x20B JUMPI PUSH2 0x20A PUSH2 0x10B JUMP JUMPDEST JUMPDEST PUSH2 0x216 DUP5 DUP3 DUP6 PUSH2 0x1CD JUMP JUMPDEST POP SWAP4 SWAP3 POP POP POP JUMP JUMPDEST PUSH1 0x0 DUP3 PUSH1 0x1F DUP4 ADD SLT PUSH2 0x233 JUMPI PUSH2 0x232 PUSH2 0x106 JUMP JUMPDEST JUMPDEST DUP2 CALLDATALOAD PUSH2 0x243 DUP5 DUP3 PUSH1 0x20 DUP7 ADD PUSH2 0x1DC JUMP JUMPDEST SWAP2 POP POP SWAP3 SWAP2 POP POP JUMP JUMPDEST PUSH1 0x0 PUSH1 0x20 DUP3 DUP5 SUB SLT ISZERO PUSH2 0x262 JUMPI PUSH2 0x261 PUSH2 0xFC JUMP JUMPDEST JUMPDEST PUSH1 0x0 DUP3 ADD CALLDATALOAD PUSH8 0xFFFFFFFFFFFFFFFF DUP2 GT ISZERO PUSH2 0x280 JUMPI PUSH2 0x27F PUSH2 0x101 JUMP JUMPDEST JUMPDEST PUSH2 0x28C DUP5 DUP3 DUP6 ADD PUSH2 0x21E JUMP JUMPDEST SWAP2 POP POP SWAP3 SWAP2 POP POP JUMP JUMPDEST PUSH1 0x0 DUP2 ISZERO ISZERO SWAP1 POP SWAP2 SWAP1 POP JUMP JUMPDEST PUSH2 0x2AA DUP2 PUSH2 0x295 JUMP JUMPDEST DUP3 MSTORE POP POP JUMP JUMPDEST PUSH1 0x0 PUSH1 0x20 DUP3 ADD SWAP1 POP PUSH2 0x2C5 PUSH1 0x0 DUP4 ADD DUP5 PUSH2 0x2A1 JUMP JUMPDEST SWAP3 SWAP2 POP POP JUMP JUMPDEST PUSH32 0x4E487B7100000000000000000000000000000000000000000000000000000000 PUSH1 0x0 MSTORE PUSH1 0x32 PUSH1 0x4 MSTORE PUSH1 0x24 PUSH1 0x0 REVERT INVALID LOG2 PUSH5 0x6970667358 0x22 SLT KECCAK256 0xBD 0xC9 EXTCODECOPY 0xCD 0xEB 0xBD CHAINID 0xBD 0x1E 0xCA DIFFICULTY DUP3 CALLER INVALID MSIZE 0xD2 PUSH19 0xE172586CCF866E66C77042032C64E964736F6C PUSH4 0x4300080D STOP CALLER "
				},
				"gasEstimates": {
					"creation": {
						"codeDepositCost": "163200",
						"executionCost": "233",
						"totalCost": "163433"
					},
					"external": {
						"isNumber(string)": "infinite"
					},
					"internal": {
						"becomeAware(struct EAI.Party storage pointer)": "infinite",
						"calcNextEndTime(uint32,uint8,uint32)": "infinite",
						"calcNextEndTimeForSecMinHrDayOrWeek(uint8,uint32,uint32)": "infinite",
						"createMaxNumberOfOperation(uint32)": "infinite",
						"createMaxNumberOfOperationByTime(uint32,uint8)": "infinite",
						"createMessageContent(string memory,string memory,int256)": "infinite",
						"createMessageContent(string memory,string memory,string memory)": "infinite",
						"createMessageContent(string memory,string memory,uint256,uint8)": "infinite",
						"createMessageContent_onlyXPath_Boolean(string memory)": "infinite",
						"createMessageContent_onlyXPath_Number(string memory)": "infinite",
						"createMessageContent_onlyXPath_String(string memory)": "infinite",
						"createParty(string memory,address,bool)": "infinite",
						"createSessionInteval(uint8,uint8,string memory)": "infinite",
						"createTimeInterval(uint32,uint32)": "infinite",
						"createTimeout(uint32)": "infinite",
						"createWeekDaysInterval(uint8,uint8)": "infinite",
						"decreaseOneOperation(struct EAI.MaxNumberOfOperation storage pointer)": "infinite",
						"decreaseOneOperation_ByTime(struct EAI.MaxNumberOfOperationByTime storage pointer)": "infinite",
						"decreaseTheLastContentOfRestingAmount(struct EAI.MessageContent_NumberPerTime storage pointer)": "infinite",
						"evaluateNumberContent(struct EAI.MessageContent_Number memory,int256)": "infinite",
						"evaluateNumberPerTime(struct EAI.MessageContent_NumberPerTime storage pointer,uint32,uint256)": "infinite",
						"evaluateStringContent(struct EAI.MessageContent_String memory,string memory)": "infinite",
						"getAllTimeIntervals(struct EAI.TimeInterval memory[] memory)": "infinite",
						"getAllWeekDaysIntervals(struct EAI.WeekDaysInterval memory[] memory)": "infinite",
						"getIntervalInSeconds(uint32,uint8)": "infinite",
						"getOneTimeInterval(struct EAI.TimeInterval memory)": "infinite",
						"getOneWeekDaysInterval(struct EAI.WeekDaysInterval memory)": "infinite",
						"getTimeInSeconds(uint8)": "infinite",
						"hasAvailableOperations(struct EAI.MaxNumberOfOperation storage pointer)": "infinite",
						"hasAvailableOperations_ByTime(struct EAI.MaxNumberOfOperationByTime storage pointer,uint32)": "infinite",
						"increaseOneOperation(struct EAI.MaxNumberOfOperation storage pointer,uint32)": "infinite",
						"increaseOneOperation_ByTime(struct EAI.MaxNumberOfOperationByTime storage pointer)": "infinite",
						"isAccessDatetimeOutOfOldInterval(uint8,uint32,uint32)": "infinite",
						"isAware(struct EAI.Party memory)": "infinite",
						"isIntoTimeInterval(struct EAI.TimeInterval memory,uint32)": "infinite",
						"isIntoTimeIntervals(uint32,struct EAI.TimeInterval memory[] memory)": "infinite",
						"isIntoWeekDaysInterval(struct EAI.WeekDaysInterval memory,uint8)": "infinite",
						"isIntoWeekDaysIntervals(uint8,struct EAI.WeekDaysInterval memory[] memory)": "infinite",
						"isTimeoutEnded(struct EAI.Timeout memory,uint32)": "infinite",
						"resetEndTimeInTimeout(struct EAI.Timeout storage pointer)": "infinite",
						"sessionStatus(struct EAI.SessionInterval memory,uint32)": "infinite",
						"setEndTimeInTimeout(struct EAI.Timeout storage pointer,uint32)": "infinite",
						"setNewEndTimeAndRestOfOperations(struct EAI.MaxNumberOfOperationByTime storage pointer,uint32)": "infinite",
						"setPartyAddress(struct EAI.Party storage pointer,address)": "infinite",
						"setPartyName(struct EAI.Party storage pointer,string memory)": "infinite",
						"setTimeInterval(struct EAI.TimeInterval storage pointer,uint32,uint32)": "infinite",
						"setWeekDayInterval(struct EAI.WeekDaysInterval storage pointer,uint8,uint8)": "infinite",
						"startNewSessionInterval(struct EAI.SessionInterval storage pointer,uint32)": "infinite",
						"stringToUint(string memory)": "infinite",
						"timeStampToDate(uint256)": "infinite",
						"uint2String(uint256)": "infinite"
					}
				},
				"methodIdentifiers": {
					"isNumber(string)": "e18a89cf"
				}
			},
			"storageLayout": {
				"storage": [],
				"types": null
			},
			"userdoc": {
				"kind": "user",
				"methods": {},
				"version": 1
			}
		}
	}
}