{
	"contracts/study-case-contracts/001-delivery-hiring/DeliveryHiringRO.sol": {
		"DeliveryHiring_RO": {
			"abi": [
				{
					"inputs": [
						{
							"internalType": "string",
							"name": "_name",
							"type": "string"
						},
						{
							"internalType": "address",
							"name": "_walletAddress",
							"type": "address"
						}
					],
					"name": "changeApplicationParty",
					"outputs": [
						{
							"internalType": "bool",
							"name": "",
							"type": "bool"
						}
					],
					"stateMutability": "nonpayable",
					"type": "function"
				},
				{
					"inputs": [],
					"name": "getApplicationAddress",
					"outputs": [
						{
							"internalType": "address",
							"name": "",
							"type": "address"
						}
					],
					"stateMutability": "view",
					"type": "function"
				},
				{
					"inputs": [
						{
							"internalType": "address",
							"name": "_walletAddress",
							"type": "address"
						}
					],
					"name": "getParty",
					"outputs": [
						{
							"components": [
								{
									"internalType": "string",
									"name": "name",
									"type": "string"
								},
								{
									"internalType": "address",
									"name": "walletAddress",
									"type": "address"
								},
								{
									"internalType": "bool",
									"name": "aware",
									"type": "bool"
								}
							],
							"internalType": "struct EAI.Party",
							"name": "",
							"type": "tuple"
						}
					],
					"stateMutability": "view",
					"type": "function"
				},
				{
					"inputs": [],
					"name": "getProcessAddress",
					"outputs": [
						{
							"internalType": "address",
							"name": "",
							"type": "address"
						}
					],
					"stateMutability": "view",
					"type": "function"
				},
				{
					"inputs": [],
					"name": "signContract",
					"outputs": [
						{
							"internalType": "bool",
							"name": "",
							"type": "bool"
						}
					],
					"stateMutability": "nonpayable",
					"type": "function"
				}
			],
			"devdoc": {
				"kind": "dev",
				"methods": {},
				"version": 1
			},
			"evm": {
				"assembly": "    /* \"contracts/study-case-contracts/001-delivery-hiring/DeliveryHiringRO.sol\":100:5519  contract DeliveryHiring_RO{... */\n  mstore(0x40, 0x80)\n  callvalue\n  dup1\n  iszero\n  tag_1\n  jumpi\n  0x00\n  dup1\n  revert\ntag_1:\n  pop\n  dataSize(sub_0)\n  dup1\n  dataOffset(sub_0)\n  0x00\n  codecopy\n  0x00\n  return\nstop\n\nsub_0: assembly {\n        /* \"contracts/study-case-contracts/001-delivery-hiring/DeliveryHiringRO.sol\":100:5519  contract DeliveryHiring_RO{... */\n      mstore(0x40, 0x80)\n      callvalue\n      dup1\n      iszero\n      tag_1\n      jumpi\n      0x00\n      dup1\n      revert\n    tag_1:\n      pop\n      jumpi(tag_2, lt(calldatasize, 0x04))\n      shr(0xe0, calldataload(0x00))\n      dup1\n      0x5e744c6a\n      eq\n      tag_3\n      jumpi\n      dup1\n      0x70d8915a\n      eq\n      tag_4\n      jumpi\n      dup1\n      0x85931911\n      eq\n      tag_5\n      jumpi\n      dup1\n      0xb8b4f1a0\n      eq\n      tag_6\n      jumpi\n      dup1\n      0xfb6f8243\n      eq\n      tag_7\n      jumpi\n    tag_2:\n      0x00\n      dup1\n      revert\n        /* \"contracts/study-case-contracts/001-delivery-hiring/DeliveryHiringRO.sol\":3596:4027  function changeApplicationParty(string memory _name, address _walletAddress) public returns(bool) {       ... */\n    tag_3:\n      tag_8\n      0x04\n      dup1\n      calldatasize\n      sub\n      dup2\n      add\n      swap1\n      tag_9\n      swap2\n      swap1\n      tag_10\n      jump\t// in\n    tag_9:\n      tag_11\n      jump\t// in\n    tag_8:\n      mload(0x40)\n      tag_12\n      swap2\n      swap1\n      tag_13\n      jump\t// in\n    tag_12:\n      mload(0x40)\n      dup1\n      swap2\n      sub\n      swap1\n      return\n        /* \"contracts/study-case-contracts/001-delivery-hiring/DeliveryHiringRO.sol\":4175:4307  function getApplicationAddress() public view onlyInvolvedParties returns(address){... */\n    tag_4:\n      tag_14\n      tag_15\n      jump\t// in\n    tag_14:\n      mload(0x40)\n      tag_16\n      swap2\n      swap1\n      tag_17\n      jump\t// in\n    tag_16:\n      mload(0x40)\n      dup1\n      swap2\n      sub\n      swap1\n      return\n        /* \"contracts/study-case-contracts/001-delivery-hiring/DeliveryHiringRO.sol\":4039:4163  function getProcessAddress() public view onlyInvolvedParties returns(address){... */\n    tag_5:\n      tag_18\n      tag_19\n      jump\t// in\n    tag_18:\n      mload(0x40)\n      tag_20\n      swap2\n      swap1\n      tag_17\n      jump\t// in\n    tag_20:\n      mload(0x40)\n      dup1\n      swap2\n      sub\n      swap1\n      return\n        /* \"contracts/study-case-contracts/001-delivery-hiring/DeliveryHiringRO.sol\":2997:3258  function signContract() public onlyApplication() returns(bool){... */\n    tag_6:\n      tag_21\n      tag_22\n      jump\t// in\n    tag_21:\n      mload(0x40)\n      tag_23\n      swap2\n      swap1\n      tag_13\n      jump\t// in\n    tag_23:\n      mload(0x40)\n      dup1\n      swap2\n      sub\n      swap1\n      return\n        /* \"contracts/study-case-contracts/001-delivery-hiring/DeliveryHiringRO.sol\":4315:4464  function getParty(address _walletAddress) public view onlyInvolvedParties returns(EAI.Party memory){... */\n    tag_7:\n      tag_24\n      0x04\n      dup1\n      calldatasize\n      sub\n      dup2\n      add\n      swap1\n      tag_25\n      swap2\n      swap1\n      tag_26\n      jump\t// in\n    tag_25:\n      tag_27\n      jump\t// in\n    tag_24:\n      mload(0x40)\n      tag_28\n      swap2\n      swap1\n      tag_29\n      jump\t// in\n    tag_28:\n      mload(0x40)\n      dup1\n      swap2\n      sub\n      swap1\n      return\n        /* \"contracts/study-case-contracts/001-delivery-hiring/DeliveryHiringRO.sol\":3596:4027  function changeApplicationParty(string memory _name, address _walletAddress) public returns(bool) {       ... */\n    tag_11:\n        /* \"contracts/study-case-contracts/001-delivery-hiring/DeliveryHiringRO.sol\":3688:3692  bool */\n      0x00\n        /* \"contracts/study-case-contracts/001-delivery-hiring/DeliveryHiringRO.sol\":3745:3755  msg.sender */\n      caller\n        /* \"contracts/study-case-contracts/001-delivery-hiring/DeliveryHiringRO.sol\":3720:3755  process.walletAddress == msg.sender */\n      0xffffffffffffffffffffffffffffffffffffffff\n      and\n        /* \"contracts/study-case-contracts/001-delivery-hiring/DeliveryHiringRO.sol\":3720:3727  process */\n      0x00\n        /* \"contracts/study-case-contracts/001-delivery-hiring/DeliveryHiringRO.sol\":3720:3741  process.walletAddress */\n      0x01\n      add\n      0x00\n      swap1\n      sload\n      swap1\n      0x0100\n      exp\n      swap1\n      div\n      0xffffffffffffffffffffffffffffffffffffffff\n      and\n        /* \"contracts/study-case-contracts/001-delivery-hiring/DeliveryHiringRO.sol\":3720:3755  process.walletAddress == msg.sender */\n      0xffffffffffffffffffffffffffffffffffffffff\n      and\n      eq\n        /* \"contracts/study-case-contracts/001-delivery-hiring/DeliveryHiringRO.sol\":3712:3803  require(process.walletAddress == msg.sender, \"Only the process can execute this operation\") */\n      tag_31\n      jumpi\n      mload(0x40)\n      0x08c379a000000000000000000000000000000000000000000000000000000000\n      dup2\n      mstore\n      0x04\n      add\n      tag_32\n      swap1\n      tag_33\n      jump\t// in\n    tag_32:\n      mload(0x40)\n      dup1\n      swap2\n      sub\n      swap1\n      revert\n    tag_31:\n        /* \"contracts/study-case-contracts/001-delivery-hiring/DeliveryHiringRO.sol\":3821:3829  mapParty */\n      0x04\n        /* \"contracts/study-case-contracts/001-delivery-hiring/DeliveryHiringRO.sol\":3821:3856  mapParty[application.walletAddress] */\n      0x00\n        /* \"contracts/study-case-contracts/001-delivery-hiring/DeliveryHiringRO.sol\":3830:3841  application */\n      0x02\n        /* \"contracts/study-case-contracts/001-delivery-hiring/DeliveryHiringRO.sol\":3830:3855  application.walletAddress */\n      0x01\n      add\n      0x00\n      swap1\n      sload\n      swap1\n      0x0100\n      exp\n      swap1\n      div\n      0xffffffffffffffffffffffffffffffffffffffff\n      and\n        /* \"contracts/study-case-contracts/001-delivery-hiring/DeliveryHiringRO.sol\":3821:3856  mapParty[application.walletAddress] */\n      0xffffffffffffffffffffffffffffffffffffffff\n      and\n      0xffffffffffffffffffffffffffffffffffffffff\n      and\n      dup2\n      mstore\n      0x20\n      add\n      swap1\n      dup2\n      mstore\n      0x20\n      add\n      0x00\n      keccak256\n      0x00\n        /* \"contracts/study-case-contracts/001-delivery-hiring/DeliveryHiringRO.sol\":3814:3856  delete mapParty[application.walletAddress] */\n      dup1\n      dup3\n      add\n      0x00\n      tag_34\n      swap2\n      swap1\n      tag_35\n      jump\t// in\n    tag_34:\n      0x01\n      dup3\n      add\n      exp(0x0100, 0x00)\n      dup2\n      sload\n      swap1\n      0xffffffffffffffffffffffffffffffffffffffff\n      mul\n      not\n      and\n      swap1\n      sstore\n      0x01\n      dup3\n      add\n      exp(0x0100, 0x14)\n      dup2\n      sload\n      swap1\n      0xff\n      mul\n      not\n      and\n      swap1\n      sstore\n      pop\n      pop\n        /* \"contracts/study-case-contracts/001-delivery-hiring/DeliveryHiringRO.sol\":3881:3926  EAI.createParty(_name, _walletAddress, false) */\n      tag_36\n        /* \"contracts/study-case-contracts/001-delivery-hiring/DeliveryHiringRO.sol\":3897:3902  _name */\n      dup4\n        /* \"contracts/study-case-contracts/001-delivery-hiring/DeliveryHiringRO.sol\":3904:3918  _walletAddress */\n      dup4\n        /* \"contracts/study-case-contracts/001-delivery-hiring/DeliveryHiringRO.sol\":3920:3925  false */\n      0x00\n        /* \"contracts/study-case-contracts/001-delivery-hiring/DeliveryHiringRO.sol\":3881:3896  EAI.createParty */\n      tag_37\n        /* \"contracts/study-case-contracts/001-delivery-hiring/DeliveryHiringRO.sol\":3881:3926  EAI.createParty(_name, _walletAddress, false) */\n      jump\t// in\n    tag_36:\n        /* \"contracts/study-case-contracts/001-delivery-hiring/DeliveryHiringRO.sol\":3867:3878  application */\n      0x02\n        /* \"contracts/study-case-contracts/001-delivery-hiring/DeliveryHiringRO.sol\":3867:3926  application = EAI.createParty(_name, _walletAddress, false) */\n      0x00\n      dup3\n      add\n      mload\n      dup2\n      0x00\n      add\n      swap1\n      dup1\n      mload\n      swap1\n      0x20\n      add\n      swap1\n      tag_38\n      swap3\n      swap2\n      swap1\n      tag_39\n      jump\t// in\n    tag_38:\n      pop\n      0x20\n      dup3\n      add\n      mload\n      dup2\n      0x01\n      add\n      exp(0x0100, 0x00)\n      dup2\n      sload\n      dup2\n      0xffffffffffffffffffffffffffffffffffffffff\n      mul\n      not\n      and\n      swap1\n      dup4\n      0xffffffffffffffffffffffffffffffffffffffff\n      and\n      mul\n      or\n      swap1\n      sstore\n      pop\n      0x40\n      dup3\n      add\n      mload\n      dup2\n      0x01\n      add\n      exp(0x0100, 0x14)\n      dup2\n      sload\n      dup2\n      0xff\n      mul\n      not\n      and\n      swap1\n      dup4\n      iszero\n      iszero\n      mul\n      or\n      swap1\n      sstore\n      pop\n      swap1\n      pop\n      pop\n        /* \"contracts/study-case-contracts/001-delivery-hiring/DeliveryHiringRO.sol\":3947:3990  updateMapParty(_walletAddress, application) */\n      tag_40\n        /* \"contracts/study-case-contracts/001-delivery-hiring/DeliveryHiringRO.sol\":3962:3976  _walletAddress */\n      dup3\n        /* \"contracts/study-case-contracts/001-delivery-hiring/DeliveryHiringRO.sol\":3978:3989  application */\n      0x02\n        /* \"contracts/study-case-contracts/001-delivery-hiring/DeliveryHiringRO.sol\":3947:3961  updateMapParty */\n      tag_41\n        /* \"contracts/study-case-contracts/001-delivery-hiring/DeliveryHiringRO.sol\":3947:3990  updateMapParty(_walletAddress, application) */\n      jump\t// in\n    tag_40:\n      pop\n        /* \"contracts/study-case-contracts/001-delivery-hiring/DeliveryHiringRO.sol\":4008:4012  true */\n      0x01\n        /* \"contracts/study-case-contracts/001-delivery-hiring/DeliveryHiringRO.sol\":4001:4012  return true */\n      swap1\n      pop\n        /* \"contracts/study-case-contracts/001-delivery-hiring/DeliveryHiringRO.sol\":3596:4027  function changeApplicationParty(string memory _name, address _walletAddress) public returns(bool) {       ... */\n      swap3\n      swap2\n      pop\n      pop\n      jump\t// out\n        /* \"contracts/study-case-contracts/001-delivery-hiring/DeliveryHiringRO.sol\":4175:4307  function getApplicationAddress() public view onlyInvolvedParties returns(address){... */\n    tag_15:\n        /* \"contracts/study-case-contracts/001-delivery-hiring/DeliveryHiringRO.sol\":4248:4255  address */\n      0x00\n        /* \"contracts/study-case-contracts/001-delivery-hiring/DeliveryHiringRO.sol\":5172:5182  msg.sender */\n      caller\n        /* \"contracts/study-case-contracts/001-delivery-hiring/DeliveryHiringRO.sol\":5143:5182  application.walletAddress == msg.sender */\n      0xffffffffffffffffffffffffffffffffffffffff\n      and\n        /* \"contracts/study-case-contracts/001-delivery-hiring/DeliveryHiringRO.sol\":5143:5154  application */\n      0x02\n        /* \"contracts/study-case-contracts/001-delivery-hiring/DeliveryHiringRO.sol\":5143:5168  application.walletAddress */\n      0x01\n      add\n      0x00\n      swap1\n      sload\n      swap1\n      0x0100\n      exp\n      swap1\n      div\n      0xffffffffffffffffffffffffffffffffffffffff\n      and\n        /* \"contracts/study-case-contracts/001-delivery-hiring/DeliveryHiringRO.sol\":5143:5182  application.walletAddress == msg.sender */\n      0xffffffffffffffffffffffffffffffffffffffff\n      and\n      eq\n        /* \"contracts/study-case-contracts/001-delivery-hiring/DeliveryHiringRO.sol\":5143:5221  application.walletAddress == msg.sender || process.walletAddress == msg.sender */\n      dup1\n      tag_43\n      jumpi\n      pop\n        /* \"contracts/study-case-contracts/001-delivery-hiring/DeliveryHiringRO.sol\":5211:5221  msg.sender */\n      caller\n        /* \"contracts/study-case-contracts/001-delivery-hiring/DeliveryHiringRO.sol\":5186:5221  process.walletAddress == msg.sender */\n      0xffffffffffffffffffffffffffffffffffffffff\n      and\n        /* \"contracts/study-case-contracts/001-delivery-hiring/DeliveryHiringRO.sol\":5186:5193  process */\n      0x00\n        /* \"contracts/study-case-contracts/001-delivery-hiring/DeliveryHiringRO.sol\":5186:5207  process.walletAddress */\n      0x01\n      add\n      0x00\n      swap1\n      sload\n      swap1\n      0x0100\n      exp\n      swap1\n      div\n      0xffffffffffffffffffffffffffffffffffffffff\n      and\n        /* \"contracts/study-case-contracts/001-delivery-hiring/DeliveryHiringRO.sol\":5186:5221  process.walletAddress == msg.sender */\n      0xffffffffffffffffffffffffffffffffffffffff\n      and\n      eq\n        /* \"contracts/study-case-contracts/001-delivery-hiring/DeliveryHiringRO.sol\":5143:5221  application.walletAddress == msg.sender || process.walletAddress == msg.sender */\n    tag_43:\n        /* \"contracts/study-case-contracts/001-delivery-hiring/DeliveryHiringRO.sol\":5120:5304  require(... */\n      tag_44\n      jumpi\n      mload(0x40)\n      0x08c379a000000000000000000000000000000000000000000000000000000000\n      dup2\n      mstore\n      0x04\n      add\n      tag_45\n      swap1\n      tag_46\n      jump\t// in\n    tag_45:\n      mload(0x40)\n      dup1\n      swap2\n      sub\n      swap1\n      revert\n    tag_44:\n        /* \"contracts/study-case-contracts/001-delivery-hiring/DeliveryHiringRO.sol\":4274:4285  application */\n      0x02\n        /* \"contracts/study-case-contracts/001-delivery-hiring/DeliveryHiringRO.sol\":4274:4299  application.walletAddress */\n      0x01\n      add\n      0x00\n      swap1\n      sload\n      swap1\n      0x0100\n      exp\n      swap1\n      div\n      0xffffffffffffffffffffffffffffffffffffffff\n      and\n        /* \"contracts/study-case-contracts/001-delivery-hiring/DeliveryHiringRO.sol\":4267:4299  return application.walletAddress */\n      swap1\n      pop\n        /* \"contracts/study-case-contracts/001-delivery-hiring/DeliveryHiringRO.sol\":4175:4307  function getApplicationAddress() public view onlyInvolvedParties returns(address){... */\n      swap1\n      jump\t// out\n        /* \"contracts/study-case-contracts/001-delivery-hiring/DeliveryHiringRO.sol\":4039:4163  function getProcessAddress() public view onlyInvolvedParties returns(address){... */\n    tag_19:\n        /* \"contracts/study-case-contracts/001-delivery-hiring/DeliveryHiringRO.sol\":4108:4115  address */\n      0x00\n        /* \"contracts/study-case-contracts/001-delivery-hiring/DeliveryHiringRO.sol\":5172:5182  msg.sender */\n      caller\n        /* \"contracts/study-case-contracts/001-delivery-hiring/DeliveryHiringRO.sol\":5143:5182  application.walletAddress == msg.sender */\n      0xffffffffffffffffffffffffffffffffffffffff\n      and\n        /* \"contracts/study-case-contracts/001-delivery-hiring/DeliveryHiringRO.sol\":5143:5154  application */\n      0x02\n        /* \"contracts/study-case-contracts/001-delivery-hiring/DeliveryHiringRO.sol\":5143:5168  application.walletAddress */\n      0x01\n      add\n      0x00\n      swap1\n      sload\n      swap1\n      0x0100\n      exp\n      swap1\n      div\n      0xffffffffffffffffffffffffffffffffffffffff\n      and\n        /* \"contracts/study-case-contracts/001-delivery-hiring/DeliveryHiringRO.sol\":5143:5182  application.walletAddress == msg.sender */\n      0xffffffffffffffffffffffffffffffffffffffff\n      and\n      eq\n        /* \"contracts/study-case-contracts/001-delivery-hiring/DeliveryHiringRO.sol\":5143:5221  application.walletAddress == msg.sender || process.walletAddress == msg.sender */\n      dup1\n      tag_49\n      jumpi\n      pop\n        /* \"contracts/study-case-contracts/001-delivery-hiring/DeliveryHiringRO.sol\":5211:5221  msg.sender */\n      caller\n        /* \"contracts/study-case-contracts/001-delivery-hiring/DeliveryHiringRO.sol\":5186:5221  process.walletAddress == msg.sender */\n      0xffffffffffffffffffffffffffffffffffffffff\n      and\n        /* \"contracts/study-case-contracts/001-delivery-hiring/DeliveryHiringRO.sol\":5186:5193  process */\n      0x00\n        /* \"contracts/study-case-contracts/001-delivery-hiring/DeliveryHiringRO.sol\":5186:5207  process.walletAddress */\n      0x01\n      add\n      0x00\n      swap1\n      sload\n      swap1\n      0x0100\n      exp\n      swap1\n      div\n      0xffffffffffffffffffffffffffffffffffffffff\n      and\n        /* \"contracts/study-case-contracts/001-delivery-hiring/DeliveryHiringRO.sol\":5186:5221  process.walletAddress == msg.sender */\n      0xffffffffffffffffffffffffffffffffffffffff\n      and\n      eq\n        /* \"contracts/study-case-contracts/001-delivery-hiring/DeliveryHiringRO.sol\":5143:5221  application.walletAddress == msg.sender || process.walletAddress == msg.sender */\n    tag_49:\n        /* \"contracts/study-case-contracts/001-delivery-hiring/DeliveryHiringRO.sol\":5120:5304  require(... */\n      tag_50\n      jumpi\n      mload(0x40)\n      0x08c379a000000000000000000000000000000000000000000000000000000000\n      dup2\n      mstore\n      0x04\n      add\n      tag_51\n      swap1\n      tag_46\n      jump\t// in\n    tag_51:\n      mload(0x40)\n      dup1\n      swap2\n      sub\n      swap1\n      revert\n    tag_50:\n        /* \"contracts/study-case-contracts/001-delivery-hiring/DeliveryHiringRO.sol\":4134:4141  process */\n      0x00\n        /* \"contracts/study-case-contracts/001-delivery-hiring/DeliveryHiringRO.sol\":4134:4155  process.walletAddress */\n      0x01\n      add\n      0x00\n      swap1\n      sload\n      swap1\n      0x0100\n      exp\n      swap1\n      div\n      0xffffffffffffffffffffffffffffffffffffffff\n      and\n        /* \"contracts/study-case-contracts/001-delivery-hiring/DeliveryHiringRO.sol\":4127:4155  return process.walletAddress */\n      swap1\n      pop\n        /* \"contracts/study-case-contracts/001-delivery-hiring/DeliveryHiringRO.sol\":4039:4163  function getProcessAddress() public view onlyInvolvedParties returns(address){... */\n      swap1\n      jump\t// out\n        /* \"contracts/study-case-contracts/001-delivery-hiring/DeliveryHiringRO.sol\":2997:3258  function signContract() public onlyApplication() returns(bool){... */\n    tag_22:\n        /* \"contracts/study-case-contracts/001-delivery-hiring/DeliveryHiringRO.sol\":3054:3058  bool */\n      0x00\n        /* \"contracts/study-case-contracts/001-delivery-hiring/DeliveryHiringRO.sol\":4837:4847  msg.sender */\n      caller\n        /* \"contracts/study-case-contracts/001-delivery-hiring/DeliveryHiringRO.sol\":4808:4847  application.walletAddress == msg.sender */\n      0xffffffffffffffffffffffffffffffffffffffff\n      and\n        /* \"contracts/study-case-contracts/001-delivery-hiring/DeliveryHiringRO.sol\":4808:4819  application */\n      0x02\n        /* \"contracts/study-case-contracts/001-delivery-hiring/DeliveryHiringRO.sol\":4808:4833  application.walletAddress */\n      0x01\n      add\n      0x00\n      swap1\n      sload\n      swap1\n      0x0100\n      exp\n      swap1\n      div\n      0xffffffffffffffffffffffffffffffffffffffff\n      and\n        /* \"contracts/study-case-contracts/001-delivery-hiring/DeliveryHiringRO.sol\":4808:4847  application.walletAddress == msg.sender */\n      0xffffffffffffffffffffffffffffffffffffffff\n      and\n      eq\n        /* \"contracts/study-case-contracts/001-delivery-hiring/DeliveryHiringRO.sol\":4800:4899  require(application.walletAddress == msg.sender, \"Only the application can execute this operation\") */\n      tag_54\n      jumpi\n      mload(0x40)\n      0x08c379a000000000000000000000000000000000000000000000000000000000\n      dup2\n      mstore\n      0x04\n      add\n      tag_55\n      swap1\n      tag_56\n      jump\t// in\n    tag_55:\n      mload(0x40)\n      dup1\n      swap2\n      sub\n      swap1\n      revert\n    tag_54:\n        /* \"contracts/study-case-contracts/001-delivery-hiring/DeliveryHiringRO.sol\":3099:3104  false */\n      0x00\n        /* \"contracts/study-case-contracts/001-delivery-hiring/DeliveryHiringRO.sol\":3078:3104  application.aware == false */\n      iszero\n      iszero\n        /* \"contracts/study-case-contracts/001-delivery-hiring/DeliveryHiringRO.sol\":3078:3089  application */\n      0x02\n        /* \"contracts/study-case-contracts/001-delivery-hiring/DeliveryHiringRO.sol\":3078:3095  application.aware */\n      0x01\n      add\n      0x14\n      swap1\n      sload\n      swap1\n      0x0100\n      exp\n      swap1\n      div\n      0xff\n      and\n        /* \"contracts/study-case-contracts/001-delivery-hiring/DeliveryHiringRO.sol\":3078:3104  application.aware == false */\n      iszero\n      iszero\n      eq\n        /* \"contracts/study-case-contracts/001-delivery-hiring/DeliveryHiringRO.sol\":3070:3139  require(application.aware == false, \"The contract is already signed\") */\n      tag_58\n      jumpi\n      mload(0x40)\n      0x08c379a000000000000000000000000000000000000000000000000000000000\n      dup2\n      mstore\n      0x04\n      add\n      tag_59\n      swap1\n      tag_60\n      jump\t// in\n    tag_59:\n      mload(0x40)\n      dup1\n      swap2\n      sub\n      swap1\n      revert\n    tag_58:\n        /* \"contracts/study-case-contracts/001-delivery-hiring/DeliveryHiringRO.sol\":3178:3182  true */\n      0x01\n        /* \"contracts/study-case-contracts/001-delivery-hiring/DeliveryHiringRO.sol\":3158:3169  application */\n      0x02\n        /* \"contracts/study-case-contracts/001-delivery-hiring/DeliveryHiringRO.sol\":3158:3175  application.aware */\n      0x01\n      add\n      0x14\n        /* \"contracts/study-case-contracts/001-delivery-hiring/DeliveryHiringRO.sol\":3158:3182  application.aware = true */\n      0x0100\n      exp\n      dup2\n      sload\n      dup2\n      0xff\n      mul\n      not\n      and\n      swap1\n      dup4\n      iszero\n      iszero\n      mul\n      or\n      swap1\n      sstore\n      pop\n        /* \"contracts/study-case-contracts/001-delivery-hiring/DeliveryHiringRO.sol\":3195:3234  updateMapParty(msg.sender, application) */\n      tag_61\n        /* \"contracts/study-case-contracts/001-delivery-hiring/DeliveryHiringRO.sol\":3210:3220  msg.sender */\n      caller\n        /* \"contracts/study-case-contracts/001-delivery-hiring/DeliveryHiringRO.sol\":3222:3233  application */\n      0x02\n        /* \"contracts/study-case-contracts/001-delivery-hiring/DeliveryHiringRO.sol\":3195:3209  updateMapParty */\n      tag_41\n        /* \"contracts/study-case-contracts/001-delivery-hiring/DeliveryHiringRO.sol\":3195:3234  updateMapParty(msg.sender, application) */\n      jump\t// in\n    tag_61:\n      pop\n        /* \"contracts/study-case-contracts/001-delivery-hiring/DeliveryHiringRO.sol\":3246:3250  true */\n      0x01\n        /* \"contracts/study-case-contracts/001-delivery-hiring/DeliveryHiringRO.sol\":3239:3250  return true */\n      swap1\n      pop\n        /* \"contracts/study-case-contracts/001-delivery-hiring/DeliveryHiringRO.sol\":2997:3258  function signContract() public onlyApplication() returns(bool){... */\n      swap1\n      jump\t// out\n        /* \"contracts/study-case-contracts/001-delivery-hiring/DeliveryHiringRO.sol\":4315:4464  function getParty(address _walletAddress) public view onlyInvolvedParties returns(EAI.Party memory){... */\n    tag_27:\n        /* \"contracts/study-case-contracts/001-delivery-hiring/DeliveryHiringRO.sol\":4397:4413  EAI.Party memory */\n      tag_62\n      tag_63\n      jump\t// in\n    tag_62:\n        /* \"contracts/study-case-contracts/001-delivery-hiring/DeliveryHiringRO.sol\":5172:5182  msg.sender */\n      caller\n        /* \"contracts/study-case-contracts/001-delivery-hiring/DeliveryHiringRO.sol\":5143:5182  application.walletAddress == msg.sender */\n      0xffffffffffffffffffffffffffffffffffffffff\n      and\n        /* \"contracts/study-case-contracts/001-delivery-hiring/DeliveryHiringRO.sol\":5143:5154  application */\n      0x02\n        /* \"contracts/study-case-contracts/001-delivery-hiring/DeliveryHiringRO.sol\":5143:5168  application.walletAddress */\n      0x01\n      add\n      0x00\n      swap1\n      sload\n      swap1\n      0x0100\n      exp\n      swap1\n      div\n      0xffffffffffffffffffffffffffffffffffffffff\n      and\n        /* \"contracts/study-case-contracts/001-delivery-hiring/DeliveryHiringRO.sol\":5143:5182  application.walletAddress == msg.sender */\n      0xffffffffffffffffffffffffffffffffffffffff\n      and\n      eq\n        /* \"contracts/study-case-contracts/001-delivery-hiring/DeliveryHiringRO.sol\":5143:5221  application.walletAddress == msg.sender || process.walletAddress == msg.sender */\n      dup1\n      tag_65\n      jumpi\n      pop\n        /* \"contracts/study-case-contracts/001-delivery-hiring/DeliveryHiringRO.sol\":5211:5221  msg.sender */\n      caller\n        /* \"contracts/study-case-contracts/001-delivery-hiring/DeliveryHiringRO.sol\":5186:5221  process.walletAddress == msg.sender */\n      0xffffffffffffffffffffffffffffffffffffffff\n      and\n        /* \"contracts/study-case-contracts/001-delivery-hiring/DeliveryHiringRO.sol\":5186:5193  process */\n      0x00\n        /* \"contracts/study-case-contracts/001-delivery-hiring/DeliveryHiringRO.sol\":5186:5207  process.walletAddress */\n      0x01\n      add\n      0x00\n      swap1\n      sload\n      swap1\n      0x0100\n      exp\n      swap1\n      div\n      0xffffffffffffffffffffffffffffffffffffffff\n      and\n        /* \"contracts/study-case-contracts/001-delivery-hiring/DeliveryHiringRO.sol\":5186:5221  process.walletAddress == msg.sender */\n      0xffffffffffffffffffffffffffffffffffffffff\n      and\n      eq\n        /* \"contracts/study-case-contracts/001-delivery-hiring/DeliveryHiringRO.sol\":5143:5221  application.walletAddress == msg.sender || process.walletAddress == msg.sender */\n    tag_65:\n        /* \"contracts/study-case-contracts/001-delivery-hiring/DeliveryHiringRO.sol\":5120:5304  require(... */\n      tag_66\n      jumpi\n      mload(0x40)\n      0x08c379a000000000000000000000000000000000000000000000000000000000\n      dup2\n      mstore\n      0x04\n      add\n      tag_67\n      swap1\n      tag_46\n      jump\t// in\n    tag_67:\n      mload(0x40)\n      dup1\n      swap2\n      sub\n      swap1\n      revert\n    tag_66:\n        /* \"contracts/study-case-contracts/001-delivery-hiring/DeliveryHiringRO.sol\":4432:4440  mapParty */\n      0x04\n        /* \"contracts/study-case-contracts/001-delivery-hiring/DeliveryHiringRO.sol\":4432:4456  mapParty[_walletAddress] */\n      0x00\n        /* \"contracts/study-case-contracts/001-delivery-hiring/DeliveryHiringRO.sol\":4441:4455  _walletAddress */\n      dup4\n        /* \"contracts/study-case-contracts/001-delivery-hiring/DeliveryHiringRO.sol\":4432:4456  mapParty[_walletAddress] */\n      0xffffffffffffffffffffffffffffffffffffffff\n      and\n      0xffffffffffffffffffffffffffffffffffffffff\n      and\n      dup2\n      mstore\n      0x20\n      add\n      swap1\n      dup2\n      mstore\n      0x20\n      add\n      0x00\n      keccak256\n        /* \"contracts/study-case-contracts/001-delivery-hiring/DeliveryHiringRO.sol\":4425:4456  return mapParty[_walletAddress] */\n      mload(0x40)\n      dup1\n      0x60\n      add\n      0x40\n      mstore\n      swap1\n      dup2\n      0x00\n      dup3\n      add\n      dup1\n      sload\n      tag_69\n      swap1\n      tag_70\n      jump\t// in\n    tag_69:\n      dup1\n      0x1f\n      add\n      0x20\n      dup1\n      swap2\n      div\n      mul\n      0x20\n      add\n      mload(0x40)\n      swap1\n      dup2\n      add\n      0x40\n      mstore\n      dup1\n      swap3\n      swap2\n      swap1\n      dup2\n      dup2\n      mstore\n      0x20\n      add\n      dup3\n      dup1\n      sload\n      tag_71\n      swap1\n      tag_70\n      jump\t// in\n    tag_71:\n      dup1\n      iszero\n      tag_72\n      jumpi\n      dup1\n      0x1f\n      lt\n      tag_73\n      jumpi\n      0x0100\n      dup1\n      dup4\n      sload\n      div\n      mul\n      dup4\n      mstore\n      swap2\n      0x20\n      add\n      swap2\n      jump(tag_72)\n    tag_73:\n      dup3\n      add\n      swap2\n      swap1\n      0x00\n      mstore\n      keccak256(0x00, 0x20)\n      swap1\n    tag_74:\n      dup2\n      sload\n      dup2\n      mstore\n      swap1\n      0x01\n      add\n      swap1\n      0x20\n      add\n      dup1\n      dup4\n      gt\n      tag_74\n      jumpi\n      dup3\n      swap1\n      sub\n      0x1f\n      and\n      dup3\n      add\n      swap2\n    tag_72:\n      pop\n      pop\n      pop\n      pop\n      pop\n      dup2\n      mstore\n      0x20\n      add\n      0x01\n      dup3\n      add\n      0x00\n      swap1\n      sload\n      swap1\n      0x0100\n      exp\n      swap1\n      div\n      0xffffffffffffffffffffffffffffffffffffffff\n      and\n      0xffffffffffffffffffffffffffffffffffffffff\n      and\n      0xffffffffffffffffffffffffffffffffffffffff\n      and\n      dup2\n      mstore\n      0x20\n      add\n      0x01\n      dup3\n      add\n      0x14\n      swap1\n      sload\n      swap1\n      0x0100\n      exp\n      swap1\n      div\n      0xff\n      and\n      iszero\n      iszero\n      iszero\n      iszero\n      dup2\n      mstore\n      pop\n      pop\n      swap1\n      pop\n        /* \"contracts/study-case-contracts/001-delivery-hiring/DeliveryHiringRO.sol\":4315:4464  function getParty(address _walletAddress) public view onlyInvolvedParties returns(EAI.Party memory){... */\n      swap2\n      swap1\n      pop\n      jump\t// out\n        /* \"contracts/lib/eai/EAI.sol\":1591:1767  function createParty(string memory _name, address _walletAddress, bool _aware) internal pure returns(Party memory){... */\n    tag_37:\n        /* \"contracts/lib/eai/EAI.sol\":1692:1704  Party memory */\n      tag_75\n      tag_63\n      jump\t// in\n    tag_75:\n        /* \"contracts/lib/eai/EAI.sol\":1723:1759  Party(_name, _walletAddress, _aware) */\n      mload(0x40)\n      dup1\n      0x60\n      add\n      0x40\n      mstore\n      dup1\n        /* \"contracts/lib/eai/EAI.sol\":1729:1734  _name */\n      dup6\n        /* \"contracts/lib/eai/EAI.sol\":1723:1759  Party(_name, _walletAddress, _aware) */\n      dup2\n      mstore\n      0x20\n      add\n        /* \"contracts/lib/eai/EAI.sol\":1736:1750  _walletAddress */\n      dup5\n        /* \"contracts/lib/eai/EAI.sol\":1723:1759  Party(_name, _walletAddress, _aware) */\n      0xffffffffffffffffffffffffffffffffffffffff\n      and\n      dup2\n      mstore\n      0x20\n      add\n        /* \"contracts/lib/eai/EAI.sol\":1752:1758  _aware */\n      dup4\n        /* \"contracts/lib/eai/EAI.sol\":1723:1759  Party(_name, _walletAddress, _aware) */\n      iszero\n      iszero\n      dup2\n      mstore\n      pop\n        /* \"contracts/lib/eai/EAI.sol\":1716:1759  return Party(_name, _walletAddress, _aware) */\n      swap1\n      pop\n        /* \"contracts/lib/eai/EAI.sol\":1591:1767  function createParty(string memory _name, address _walletAddress, bool _aware) internal pure returns(Party memory){... */\n      swap4\n      swap3\n      pop\n      pop\n      pop\n      jump\t// out\n        /* \"contracts/study-case-contracts/001-delivery-hiring/DeliveryHiringRO.sol\":3266:3436  function updateMapParty(address _walletAddress, EAI.Party storage _party)internal returns(bool){       ... */\n    tag_41:\n        /* \"contracts/study-case-contracts/001-delivery-hiring/DeliveryHiringRO.sol\":3356:3360  bool */\n      0x00\n        /* \"contracts/study-case-contracts/001-delivery-hiring/DeliveryHiringRO.sol\":3406:3412  _party */\n      dup2\n        /* \"contracts/study-case-contracts/001-delivery-hiring/DeliveryHiringRO.sol\":3379:3387  mapParty */\n      0x04\n        /* \"contracts/study-case-contracts/001-delivery-hiring/DeliveryHiringRO.sol\":3379:3403  mapParty[_walletAddress] */\n      0x00\n        /* \"contracts/study-case-contracts/001-delivery-hiring/DeliveryHiringRO.sol\":3388:3402  _walletAddress */\n      dup6\n        /* \"contracts/study-case-contracts/001-delivery-hiring/DeliveryHiringRO.sol\":3379:3403  mapParty[_walletAddress] */\n      0xffffffffffffffffffffffffffffffffffffffff\n      and\n      0xffffffffffffffffffffffffffffffffffffffff\n      and\n      dup2\n      mstore\n      0x20\n      add\n      swap1\n      dup2\n      mstore\n      0x20\n      add\n      0x00\n      keccak256\n        /* \"contracts/study-case-contracts/001-delivery-hiring/DeliveryHiringRO.sol\":3379:3412  mapParty[_walletAddress] = _party */\n      0x00\n      dup3\n      add\n      dup2\n      0x00\n      add\n      swap1\n      dup1\n      sload\n      tag_78\n      swap1\n      tag_70\n      jump\t// in\n    tag_78:\n      tag_79\n      swap3\n      swap2\n      swap1\n      tag_80\n      jump\t// in\n    tag_79:\n      pop\n      0x01\n      dup3\n      add\n      0x00\n      swap1\n      sload\n      swap1\n      0x0100\n      exp\n      swap1\n      div\n      0xffffffffffffffffffffffffffffffffffffffff\n      and\n      dup2\n      0x01\n      add\n      exp(0x0100, 0x00)\n      dup2\n      sload\n      dup2\n      0xffffffffffffffffffffffffffffffffffffffff\n      mul\n      not\n      and\n      swap1\n      dup4\n      0xffffffffffffffffffffffffffffffffffffffff\n      and\n      mul\n      or\n      swap1\n      sstore\n      pop\n      0x01\n      dup3\n      add\n      0x14\n      swap1\n      sload\n      swap1\n      0x0100\n      exp\n      swap1\n      div\n      0xff\n      and\n      dup2\n      0x01\n      add\n      exp(0x0100, 0x14)\n      dup2\n      sload\n      dup2\n      0xff\n      mul\n      not\n      and\n      swap1\n      dup4\n      iszero\n      iszero\n      mul\n      or\n      swap1\n      sstore\n      pop\n      swap1\n      pop\n      pop\n        /* \"contracts/study-case-contracts/001-delivery-hiring/DeliveryHiringRO.sol\":3424:3428  true */\n      0x01\n        /* \"contracts/study-case-contracts/001-delivery-hiring/DeliveryHiringRO.sol\":3417:3428  return true */\n      swap1\n      pop\n        /* \"contracts/study-case-contracts/001-delivery-hiring/DeliveryHiringRO.sol\":3266:3436  function updateMapParty(address _walletAddress, EAI.Party storage _party)internal returns(bool){       ... */\n      swap3\n      swap2\n      pop\n      pop\n      jump\t// out\n    tag_35:\n      pop\n      dup1\n      sload\n      tag_81\n      swap1\n      tag_70\n      jump\t// in\n    tag_81:\n      0x00\n      dup3\n      sstore\n      dup1\n      0x1f\n      lt\n      tag_83\n      jumpi\n      pop\n      jump(tag_82)\n    tag_83:\n      0x1f\n      add\n      0x20\n      swap1\n      div\n      swap1\n      0x00\n      mstore\n      keccak256(0x00, 0x20)\n      swap1\n      dup2\n      add\n      swap1\n      tag_84\n      swap2\n      swap1\n      tag_85\n      jump\t// in\n    tag_84:\n    tag_82:\n      pop\n      jump\t// out\n    tag_39:\n      dup3\n      dup1\n      sload\n      tag_86\n      swap1\n      tag_70\n      jump\t// in\n    tag_86:\n      swap1\n      0x00\n      mstore\n      keccak256(0x00, 0x20)\n      swap1\n      0x1f\n      add\n      0x20\n      swap1\n      div\n      dup2\n      add\n      swap3\n      dup3\n      tag_88\n      jumpi\n      0x00\n      dup6\n      sstore\n      jump(tag_87)\n    tag_88:\n      dup3\n      0x1f\n      lt\n      tag_89\n      jumpi\n      dup1\n      mload\n      not(0xff)\n      and\n      dup4\n      dup1\n      add\n      or\n      dup6\n      sstore\n      jump(tag_87)\n    tag_89:\n      dup3\n      dup1\n      add\n      0x01\n      add\n      dup6\n      sstore\n      dup3\n      iszero\n      tag_87\n      jumpi\n      swap2\n      dup3\n      add\n    tag_90:\n      dup3\n      dup2\n      gt\n      iszero\n      tag_91\n      jumpi\n      dup3\n      mload\n      dup3\n      sstore\n      swap2\n      0x20\n      add\n      swap2\n      swap1\n      0x01\n      add\n      swap1\n      jump(tag_90)\n    tag_91:\n    tag_87:\n      pop\n      swap1\n      pop\n      tag_92\n      swap2\n      swap1\n      tag_85\n      jump\t// in\n    tag_92:\n      pop\n      swap1\n      jump\t// out\n    tag_63:\n      mload(0x40)\n      dup1\n      0x60\n      add\n      0x40\n      mstore\n      dup1\n      0x60\n      dup2\n      mstore\n      0x20\n      add\n      and(0xffffffffffffffffffffffffffffffffffffffff, 0x00)\n      dup2\n      mstore\n      0x20\n      add\n      iszero(iszero(0x00))\n      dup2\n      mstore\n      pop\n      swap1\n      jump\t// out\n    tag_80:\n      dup3\n      dup1\n      sload\n      tag_93\n      swap1\n      tag_70\n      jump\t// in\n    tag_93:\n      swap1\n      0x00\n      mstore\n      keccak256(0x00, 0x20)\n      swap1\n      0x1f\n      add\n      0x20\n      swap1\n      div\n      dup2\n      add\n      swap3\n      dup3\n      tag_95\n      jumpi\n      0x00\n      dup6\n      sstore\n      jump(tag_94)\n    tag_95:\n      dup3\n      0x1f\n      lt\n      tag_96\n      jumpi\n      dup1\n      sload\n      dup6\n      sstore\n      jump(tag_94)\n    tag_96:\n      dup3\n      dup1\n      add\n      0x01\n      add\n      dup6\n      sstore\n      dup3\n      iszero\n      tag_94\n      jumpi\n      0x00\n      mstore\n      keccak256(0x00, 0x20)\n      swap2\n      0x1f\n      add\n      0x20\n      swap1\n      div\n      dup3\n      add\n    tag_97:\n      dup3\n      dup2\n      gt\n      iszero\n      tag_98\n      jumpi\n      dup3\n      sload\n      dup3\n      sstore\n      swap2\n      0x01\n      add\n      swap2\n      swap1\n      0x01\n      add\n      swap1\n      jump(tag_97)\n    tag_98:\n    tag_94:\n      pop\n      swap1\n      pop\n      tag_99\n      swap2\n      swap1\n      tag_85\n      jump\t// in\n    tag_99:\n      pop\n      swap1\n      jump\t// out\n    tag_85:\n    tag_100:\n      dup1\n      dup3\n      gt\n      iszero\n      tag_101\n      jumpi\n      0x00\n      dup2\n      0x00\n      swap1\n      sstore\n      pop\n      0x01\n      add\n      jump(tag_100)\n    tag_101:\n      pop\n      swap1\n      jump\t// out\n        /* \"#utility.yul\":7:82   */\n    tag_102:\n        /* \"#utility.yul\":40:46   */\n      0x00\n        /* \"#utility.yul\":73:75   */\n      0x40\n        /* \"#utility.yul\":67:76   */\n      mload\n        /* \"#utility.yul\":57:76   */\n      swap1\n      pop\n        /* \"#utility.yul\":7:82   */\n      swap1\n      jump\t// out\n        /* \"#utility.yul\":88:205   */\n    tag_103:\n        /* \"#utility.yul\":197:198   */\n      0x00\n        /* \"#utility.yul\":194:195   */\n      dup1\n        /* \"#utility.yul\":187:199   */\n      revert\n        /* \"#utility.yul\":211:328   */\n    tag_104:\n        /* \"#utility.yul\":320:321   */\n      0x00\n        /* \"#utility.yul\":317:318   */\n      dup1\n        /* \"#utility.yul\":310:322   */\n      revert\n        /* \"#utility.yul\":334:451   */\n    tag_105:\n        /* \"#utility.yul\":443:444   */\n      0x00\n        /* \"#utility.yul\":440:441   */\n      dup1\n        /* \"#utility.yul\":433:445   */\n      revert\n        /* \"#utility.yul\":457:574   */\n    tag_106:\n        /* \"#utility.yul\":566:567   */\n      0x00\n        /* \"#utility.yul\":563:564   */\n      dup1\n        /* \"#utility.yul\":556:568   */\n      revert\n        /* \"#utility.yul\":580:682   */\n    tag_107:\n        /* \"#utility.yul\":621:627   */\n      0x00\n        /* \"#utility.yul\":672:674   */\n      0x1f\n        /* \"#utility.yul\":668:675   */\n      not\n        /* \"#utility.yul\":663:665   */\n      0x1f\n        /* \"#utility.yul\":656:661   */\n      dup4\n        /* \"#utility.yul\":652:666   */\n      add\n        /* \"#utility.yul\":648:676   */\n      and\n        /* \"#utility.yul\":638:676   */\n      swap1\n      pop\n        /* \"#utility.yul\":580:682   */\n      swap2\n      swap1\n      pop\n      jump\t// out\n        /* \"#utility.yul\":688:868   */\n    tag_108:\n        /* \"#utility.yul\":736:813   */\n      0x4e487b7100000000000000000000000000000000000000000000000000000000\n        /* \"#utility.yul\":733:734   */\n      0x00\n        /* \"#utility.yul\":726:814   */\n      mstore\n        /* \"#utility.yul\":833:837   */\n      0x41\n        /* \"#utility.yul\":830:831   */\n      0x04\n        /* \"#utility.yul\":823:838   */\n      mstore\n        /* \"#utility.yul\":857:861   */\n      0x24\n        /* \"#utility.yul\":854:855   */\n      0x00\n        /* \"#utility.yul\":847:862   */\n      revert\n        /* \"#utility.yul\":874:1155   */\n    tag_109:\n        /* \"#utility.yul\":957:984   */\n      tag_148\n        /* \"#utility.yul\":979:983   */\n      dup3\n        /* \"#utility.yul\":957:984   */\n      tag_107\n      jump\t// in\n    tag_148:\n        /* \"#utility.yul\":949:955   */\n      dup2\n        /* \"#utility.yul\":945:985   */\n      add\n        /* \"#utility.yul\":1087:1093   */\n      dup2\n        /* \"#utility.yul\":1075:1085   */\n      dup2\n        /* \"#utility.yul\":1072:1094   */\n      lt\n        /* \"#utility.yul\":1051:1069   */\n      0xffffffffffffffff\n        /* \"#utility.yul\":1039:1049   */\n      dup3\n        /* \"#utility.yul\":1036:1070   */\n      gt\n        /* \"#utility.yul\":1033:1095   */\n      or\n        /* \"#utility.yul\":1030:1118   */\n      iszero\n      tag_149\n      jumpi\n        /* \"#utility.yul\":1098:1116   */\n      tag_150\n      tag_108\n      jump\t// in\n    tag_150:\n        /* \"#utility.yul\":1030:1118   */\n    tag_149:\n        /* \"#utility.yul\":1138:1148   */\n      dup1\n        /* \"#utility.yul\":1134:1136   */\n      0x40\n        /* \"#utility.yul\":1127:1149   */\n      mstore\n        /* \"#utility.yul\":917:1155   */\n      pop\n        /* \"#utility.yul\":874:1155   */\n      pop\n      pop\n      jump\t// out\n        /* \"#utility.yul\":1161:1290   */\n    tag_110:\n        /* \"#utility.yul\":1195:1201   */\n      0x00\n        /* \"#utility.yul\":1222:1242   */\n      tag_152\n      tag_102\n      jump\t// in\n    tag_152:\n        /* \"#utility.yul\":1212:1242   */\n      swap1\n      pop\n        /* \"#utility.yul\":1251:1284   */\n      tag_153\n        /* \"#utility.yul\":1279:1283   */\n      dup3\n        /* \"#utility.yul\":1271:1277   */\n      dup3\n        /* \"#utility.yul\":1251:1284   */\n      tag_109\n      jump\t// in\n    tag_153:\n        /* \"#utility.yul\":1161:1290   */\n      swap2\n      swap1\n      pop\n      jump\t// out\n        /* \"#utility.yul\":1296:1604   */\n    tag_111:\n        /* \"#utility.yul\":1358:1362   */\n      0x00\n        /* \"#utility.yul\":1448:1466   */\n      0xffffffffffffffff\n        /* \"#utility.yul\":1440:1446   */\n      dup3\n        /* \"#utility.yul\":1437:1467   */\n      gt\n        /* \"#utility.yul\":1434:1490   */\n      iszero\n      tag_155\n      jumpi\n        /* \"#utility.yul\":1470:1488   */\n      tag_156\n      tag_108\n      jump\t// in\n    tag_156:\n        /* \"#utility.yul\":1434:1490   */\n    tag_155:\n        /* \"#utility.yul\":1508:1537   */\n      tag_157\n        /* \"#utility.yul\":1530:1536   */\n      dup3\n        /* \"#utility.yul\":1508:1537   */\n      tag_107\n      jump\t// in\n    tag_157:\n        /* \"#utility.yul\":1500:1537   */\n      swap1\n      pop\n        /* \"#utility.yul\":1592:1596   */\n      0x20\n        /* \"#utility.yul\":1586:1590   */\n      dup2\n        /* \"#utility.yul\":1582:1597   */\n      add\n        /* \"#utility.yul\":1574:1597   */\n      swap1\n      pop\n        /* \"#utility.yul\":1296:1604   */\n      swap2\n      swap1\n      pop\n      jump\t// out\n        /* \"#utility.yul\":1610:1764   */\n    tag_112:\n        /* \"#utility.yul\":1694:1700   */\n      dup3\n        /* \"#utility.yul\":1689:1692   */\n      dup2\n        /* \"#utility.yul\":1684:1687   */\n      dup4\n        /* \"#utility.yul\":1671:1701   */\n      calldatacopy\n        /* \"#utility.yul\":1756:1757   */\n      0x00\n        /* \"#utility.yul\":1747:1753   */\n      dup4\n        /* \"#utility.yul\":1742:1745   */\n      dup4\n        /* \"#utility.yul\":1738:1754   */\n      add\n        /* \"#utility.yul\":1731:1758   */\n      mstore\n        /* \"#utility.yul\":1610:1764   */\n      pop\n      pop\n      pop\n      jump\t// out\n        /* \"#utility.yul\":1770:2182   */\n    tag_113:\n        /* \"#utility.yul\":1848:1853   */\n      0x00\n        /* \"#utility.yul\":1873:1939   */\n      tag_160\n        /* \"#utility.yul\":1889:1938   */\n      tag_161\n        /* \"#utility.yul\":1931:1937   */\n      dup5\n        /* \"#utility.yul\":1889:1938   */\n      tag_111\n      jump\t// in\n    tag_161:\n        /* \"#utility.yul\":1873:1939   */\n      tag_110\n      jump\t// in\n    tag_160:\n        /* \"#utility.yul\":1864:1939   */\n      swap1\n      pop\n        /* \"#utility.yul\":1962:1968   */\n      dup3\n        /* \"#utility.yul\":1955:1960   */\n      dup2\n        /* \"#utility.yul\":1948:1969   */\n      mstore\n        /* \"#utility.yul\":2000:2004   */\n      0x20\n        /* \"#utility.yul\":1993:1998   */\n      dup2\n        /* \"#utility.yul\":1989:2005   */\n      add\n        /* \"#utility.yul\":2038:2041   */\n      dup5\n        /* \"#utility.yul\":2029:2035   */\n      dup5\n        /* \"#utility.yul\":2024:2027   */\n      dup5\n        /* \"#utility.yul\":2020:2036   */\n      add\n        /* \"#utility.yul\":2017:2042   */\n      gt\n        /* \"#utility.yul\":2014:2126   */\n      iszero\n      tag_162\n      jumpi\n        /* \"#utility.yul\":2045:2124   */\n      tag_163\n      tag_106\n      jump\t// in\n    tag_163:\n        /* \"#utility.yul\":2014:2126   */\n    tag_162:\n        /* \"#utility.yul\":2135:2176   */\n      tag_164\n        /* \"#utility.yul\":2169:2175   */\n      dup5\n        /* \"#utility.yul\":2164:2167   */\n      dup3\n        /* \"#utility.yul\":2159:2162   */\n      dup6\n        /* \"#utility.yul\":2135:2176   */\n      tag_112\n      jump\t// in\n    tag_164:\n        /* \"#utility.yul\":1854:2182   */\n      pop\n        /* \"#utility.yul\":1770:2182   */\n      swap4\n      swap3\n      pop\n      pop\n      pop\n      jump\t// out\n        /* \"#utility.yul\":2202:2542   */\n    tag_114:\n        /* \"#utility.yul\":2258:2263   */\n      0x00\n        /* \"#utility.yul\":2307:2310   */\n      dup3\n        /* \"#utility.yul\":2300:2304   */\n      0x1f\n        /* \"#utility.yul\":2292:2298   */\n      dup4\n        /* \"#utility.yul\":2288:2305   */\n      add\n        /* \"#utility.yul\":2284:2311   */\n      slt\n        /* \"#utility.yul\":2274:2396   */\n      tag_166\n      jumpi\n        /* \"#utility.yul\":2315:2394   */\n      tag_167\n      tag_105\n      jump\t// in\n    tag_167:\n        /* \"#utility.yul\":2274:2396   */\n    tag_166:\n        /* \"#utility.yul\":2432:2438   */\n      dup2\n        /* \"#utility.yul\":2419:2439   */\n      calldataload\n        /* \"#utility.yul\":2457:2536   */\n      tag_168\n        /* \"#utility.yul\":2532:2535   */\n      dup5\n        /* \"#utility.yul\":2524:2530   */\n      dup3\n        /* \"#utility.yul\":2517:2521   */\n      0x20\n        /* \"#utility.yul\":2509:2515   */\n      dup7\n        /* \"#utility.yul\":2505:2522   */\n      add\n        /* \"#utility.yul\":2457:2536   */\n      tag_113\n      jump\t// in\n    tag_168:\n        /* \"#utility.yul\":2448:2536   */\n      swap2\n      pop\n        /* \"#utility.yul\":2264:2542   */\n      pop\n        /* \"#utility.yul\":2202:2542   */\n      swap3\n      swap2\n      pop\n      pop\n      jump\t// out\n        /* \"#utility.yul\":2548:2674   */\n    tag_115:\n        /* \"#utility.yul\":2585:2592   */\n      0x00\n        /* \"#utility.yul\":2625:2667   */\n      0xffffffffffffffffffffffffffffffffffffffff\n        /* \"#utility.yul\":2618:2623   */\n      dup3\n        /* \"#utility.yul\":2614:2668   */\n      and\n        /* \"#utility.yul\":2603:2668   */\n      swap1\n      pop\n        /* \"#utility.yul\":2548:2674   */\n      swap2\n      swap1\n      pop\n      jump\t// out\n        /* \"#utility.yul\":2680:2776   */\n    tag_116:\n        /* \"#utility.yul\":2717:2724   */\n      0x00\n        /* \"#utility.yul\":2746:2770   */\n      tag_171\n        /* \"#utility.yul\":2764:2769   */\n      dup3\n        /* \"#utility.yul\":2746:2770   */\n      tag_115\n      jump\t// in\n    tag_171:\n        /* \"#utility.yul\":2735:2770   */\n      swap1\n      pop\n        /* \"#utility.yul\":2680:2776   */\n      swap2\n      swap1\n      pop\n      jump\t// out\n        /* \"#utility.yul\":2782:2904   */\n    tag_117:\n        /* \"#utility.yul\":2855:2879   */\n      tag_173\n        /* \"#utility.yul\":2873:2878   */\n      dup2\n        /* \"#utility.yul\":2855:2879   */\n      tag_116\n      jump\t// in\n    tag_173:\n        /* \"#utility.yul\":2848:2853   */\n      dup2\n        /* \"#utility.yul\":2845:2880   */\n      eq\n        /* \"#utility.yul\":2835:2898   */\n      tag_174\n      jumpi\n        /* \"#utility.yul\":2894:2895   */\n      0x00\n        /* \"#utility.yul\":2891:2892   */\n      dup1\n        /* \"#utility.yul\":2884:2896   */\n      revert\n        /* \"#utility.yul\":2835:2898   */\n    tag_174:\n        /* \"#utility.yul\":2782:2904   */\n      pop\n      jump\t// out\n        /* \"#utility.yul\":2910:3049   */\n    tag_118:\n        /* \"#utility.yul\":2956:2961   */\n      0x00\n        /* \"#utility.yul\":2994:3000   */\n      dup2\n        /* \"#utility.yul\":2981:3001   */\n      calldataload\n        /* \"#utility.yul\":2972:3001   */\n      swap1\n      pop\n        /* \"#utility.yul\":3010:3043   */\n      tag_176\n        /* \"#utility.yul\":3037:3042   */\n      dup2\n        /* \"#utility.yul\":3010:3043   */\n      tag_117\n      jump\t// in\n    tag_176:\n        /* \"#utility.yul\":2910:3049   */\n      swap3\n      swap2\n      pop\n      pop\n      jump\t// out\n        /* \"#utility.yul\":3055:3709   */\n    tag_10:\n        /* \"#utility.yul\":3133:3139   */\n      0x00\n        /* \"#utility.yul\":3141:3147   */\n      dup1\n        /* \"#utility.yul\":3190:3192   */\n      0x40\n        /* \"#utility.yul\":3178:3187   */\n      dup4\n        /* \"#utility.yul\":3169:3176   */\n      dup6\n        /* \"#utility.yul\":3165:3188   */\n      sub\n        /* \"#utility.yul\":3161:3193   */\n      slt\n        /* \"#utility.yul\":3158:3277   */\n      iszero\n      tag_178\n      jumpi\n        /* \"#utility.yul\":3196:3275   */\n      tag_179\n      tag_103\n      jump\t// in\n    tag_179:\n        /* \"#utility.yul\":3158:3277   */\n    tag_178:\n        /* \"#utility.yul\":3344:3345   */\n      0x00\n        /* \"#utility.yul\":3333:3342   */\n      dup4\n        /* \"#utility.yul\":3329:3346   */\n      add\n        /* \"#utility.yul\":3316:3347   */\n      calldataload\n        /* \"#utility.yul\":3374:3392   */\n      0xffffffffffffffff\n        /* \"#utility.yul\":3366:3372   */\n      dup2\n        /* \"#utility.yul\":3363:3393   */\n      gt\n        /* \"#utility.yul\":3360:3477   */\n      iszero\n      tag_180\n      jumpi\n        /* \"#utility.yul\":3396:3475   */\n      tag_181\n      tag_104\n      jump\t// in\n    tag_181:\n        /* \"#utility.yul\":3360:3477   */\n    tag_180:\n        /* \"#utility.yul\":3501:3564   */\n      tag_182\n        /* \"#utility.yul\":3556:3563   */\n      dup6\n        /* \"#utility.yul\":3547:3553   */\n      dup3\n        /* \"#utility.yul\":3536:3545   */\n      dup7\n        /* \"#utility.yul\":3532:3554   */\n      add\n        /* \"#utility.yul\":3501:3564   */\n      tag_114\n      jump\t// in\n    tag_182:\n        /* \"#utility.yul\":3491:3564   */\n      swap3\n      pop\n        /* \"#utility.yul\":3287:3574   */\n      pop\n        /* \"#utility.yul\":3613:3615   */\n      0x20\n        /* \"#utility.yul\":3639:3692   */\n      tag_183\n        /* \"#utility.yul\":3684:3691   */\n      dup6\n        /* \"#utility.yul\":3675:3681   */\n      dup3\n        /* \"#utility.yul\":3664:3673   */\n      dup7\n        /* \"#utility.yul\":3660:3682   */\n      add\n        /* \"#utility.yul\":3639:3692   */\n      tag_118\n      jump\t// in\n    tag_183:\n        /* \"#utility.yul\":3629:3692   */\n      swap2\n      pop\n        /* \"#utility.yul\":3584:3702   */\n      pop\n        /* \"#utility.yul\":3055:3709   */\n      swap3\n      pop\n      swap3\n      swap1\n      pop\n      jump\t// out\n        /* \"#utility.yul\":3715:3805   */\n    tag_119:\n        /* \"#utility.yul\":3749:3756   */\n      0x00\n        /* \"#utility.yul\":3792:3797   */\n      dup2\n        /* \"#utility.yul\":3785:3798   */\n      iszero\n        /* \"#utility.yul\":3778:3799   */\n      iszero\n        /* \"#utility.yul\":3767:3799   */\n      swap1\n      pop\n        /* \"#utility.yul\":3715:3805   */\n      swap2\n      swap1\n      pop\n      jump\t// out\n        /* \"#utility.yul\":3811:3920   */\n    tag_120:\n        /* \"#utility.yul\":3892:3913   */\n      tag_186\n        /* \"#utility.yul\":3907:3912   */\n      dup2\n        /* \"#utility.yul\":3892:3913   */\n      tag_119\n      jump\t// in\n    tag_186:\n        /* \"#utility.yul\":3887:3890   */\n      dup3\n        /* \"#utility.yul\":3880:3914   */\n      mstore\n        /* \"#utility.yul\":3811:3920   */\n      pop\n      pop\n      jump\t// out\n        /* \"#utility.yul\":3926:4136   */\n    tag_13:\n        /* \"#utility.yul\":4013:4017   */\n      0x00\n        /* \"#utility.yul\":4051:4053   */\n      0x20\n        /* \"#utility.yul\":4040:4049   */\n      dup3\n        /* \"#utility.yul\":4036:4054   */\n      add\n        /* \"#utility.yul\":4028:4054   */\n      swap1\n      pop\n        /* \"#utility.yul\":4064:4129   */\n      tag_188\n        /* \"#utility.yul\":4126:4127   */\n      0x00\n        /* \"#utility.yul\":4115:4124   */\n      dup4\n        /* \"#utility.yul\":4111:4128   */\n      add\n        /* \"#utility.yul\":4102:4108   */\n      dup5\n        /* \"#utility.yul\":4064:4129   */\n      tag_120\n      jump\t// in\n    tag_188:\n        /* \"#utility.yul\":3926:4136   */\n      swap3\n      swap2\n      pop\n      pop\n      jump\t// out\n        /* \"#utility.yul\":4142:4260   */\n    tag_121:\n        /* \"#utility.yul\":4229:4253   */\n      tag_190\n        /* \"#utility.yul\":4247:4252   */\n      dup2\n        /* \"#utility.yul\":4229:4253   */\n      tag_116\n      jump\t// in\n    tag_190:\n        /* \"#utility.yul\":4224:4227   */\n      dup3\n        /* \"#utility.yul\":4217:4254   */\n      mstore\n        /* \"#utility.yul\":4142:4260   */\n      pop\n      pop\n      jump\t// out\n        /* \"#utility.yul\":4266:4488   */\n    tag_17:\n        /* \"#utility.yul\":4359:4363   */\n      0x00\n        /* \"#utility.yul\":4397:4399   */\n      0x20\n        /* \"#utility.yul\":4386:4395   */\n      dup3\n        /* \"#utility.yul\":4382:4400   */\n      add\n        /* \"#utility.yul\":4374:4400   */\n      swap1\n      pop\n        /* \"#utility.yul\":4410:4481   */\n      tag_192\n        /* \"#utility.yul\":4478:4479   */\n      0x00\n        /* \"#utility.yul\":4467:4476   */\n      dup4\n        /* \"#utility.yul\":4463:4480   */\n      add\n        /* \"#utility.yul\":4454:4460   */\n      dup5\n        /* \"#utility.yul\":4410:4481   */\n      tag_121\n      jump\t// in\n    tag_192:\n        /* \"#utility.yul\":4266:4488   */\n      swap3\n      swap2\n      pop\n      pop\n      jump\t// out\n        /* \"#utility.yul\":4494:4823   */\n    tag_26:\n        /* \"#utility.yul\":4553:4559   */\n      0x00\n        /* \"#utility.yul\":4602:4604   */\n      0x20\n        /* \"#utility.yul\":4590:4599   */\n      dup3\n        /* \"#utility.yul\":4581:4588   */\n      dup5\n        /* \"#utility.yul\":4577:4600   */\n      sub\n        /* \"#utility.yul\":4573:4605   */\n      slt\n        /* \"#utility.yul\":4570:4689   */\n      iszero\n      tag_194\n      jumpi\n        /* \"#utility.yul\":4608:4687   */\n      tag_195\n      tag_103\n      jump\t// in\n    tag_195:\n        /* \"#utility.yul\":4570:4689   */\n    tag_194:\n        /* \"#utility.yul\":4728:4729   */\n      0x00\n        /* \"#utility.yul\":4753:4806   */\n      tag_196\n        /* \"#utility.yul\":4798:4805   */\n      dup5\n        /* \"#utility.yul\":4789:4795   */\n      dup3\n        /* \"#utility.yul\":4778:4787   */\n      dup6\n        /* \"#utility.yul\":4774:4796   */\n      add\n        /* \"#utility.yul\":4753:4806   */\n      tag_118\n      jump\t// in\n    tag_196:\n        /* \"#utility.yul\":4743:4806   */\n      swap2\n      pop\n        /* \"#utility.yul\":4699:4816   */\n      pop\n        /* \"#utility.yul\":4494:4823   */\n      swap3\n      swap2\n      pop\n      pop\n      jump\t// out\n        /* \"#utility.yul\":4829:4928   */\n    tag_122:\n        /* \"#utility.yul\":4881:4887   */\n      0x00\n        /* \"#utility.yul\":4915:4920   */\n      dup2\n        /* \"#utility.yul\":4909:4921   */\n      mload\n        /* \"#utility.yul\":4899:4921   */\n      swap1\n      pop\n        /* \"#utility.yul\":4829:4928   */\n      swap2\n      swap1\n      pop\n      jump\t// out\n        /* \"#utility.yul\":4934:5093   */\n    tag_123:\n        /* \"#utility.yul\":5008:5019   */\n      0x00\n        /* \"#utility.yul\":5042:5048   */\n      dup3\n        /* \"#utility.yul\":5037:5040   */\n      dup3\n        /* \"#utility.yul\":5030:5049   */\n      mstore\n        /* \"#utility.yul\":5082:5086   */\n      0x20\n        /* \"#utility.yul\":5077:5080   */\n      dup3\n        /* \"#utility.yul\":5073:5087   */\n      add\n        /* \"#utility.yul\":5058:5087   */\n      swap1\n      pop\n        /* \"#utility.yul\":4934:5093   */\n      swap3\n      swap2\n      pop\n      pop\n      jump\t// out\n        /* \"#utility.yul\":5099:5406   */\n    tag_124:\n        /* \"#utility.yul\":5167:5168   */\n      0x00\n        /* \"#utility.yul\":5177:5290   */\n    tag_200:\n        /* \"#utility.yul\":5191:5197   */\n      dup4\n        /* \"#utility.yul\":5188:5189   */\n      dup2\n        /* \"#utility.yul\":5185:5198   */\n      lt\n        /* \"#utility.yul\":5177:5290   */\n      iszero\n      tag_202\n      jumpi\n        /* \"#utility.yul\":5276:5277   */\n      dup1\n        /* \"#utility.yul\":5271:5274   */\n      dup3\n        /* \"#utility.yul\":5267:5278   */\n      add\n        /* \"#utility.yul\":5261:5279   */\n      mload\n        /* \"#utility.yul\":5257:5258   */\n      dup2\n        /* \"#utility.yul\":5252:5255   */\n      dup5\n        /* \"#utility.yul\":5248:5259   */\n      add\n        /* \"#utility.yul\":5241:5280   */\n      mstore\n        /* \"#utility.yul\":5213:5215   */\n      0x20\n        /* \"#utility.yul\":5210:5211   */\n      dup2\n        /* \"#utility.yul\":5206:5216   */\n      add\n        /* \"#utility.yul\":5201:5216   */\n      swap1\n      pop\n        /* \"#utility.yul\":5177:5290   */\n      jump(tag_200)\n    tag_202:\n        /* \"#utility.yul\":5308:5314   */\n      dup4\n        /* \"#utility.yul\":5305:5306   */\n      dup2\n        /* \"#utility.yul\":5302:5315   */\n      gt\n        /* \"#utility.yul\":5299:5400   */\n      iszero\n      tag_203\n      jumpi\n        /* \"#utility.yul\":5388:5389   */\n      0x00\n        /* \"#utility.yul\":5379:5385   */\n      dup5\n        /* \"#utility.yul\":5374:5377   */\n      dup5\n        /* \"#utility.yul\":5370:5386   */\n      add\n        /* \"#utility.yul\":5363:5390   */\n      mstore\n        /* \"#utility.yul\":5299:5400   */\n    tag_203:\n        /* \"#utility.yul\":5148:5406   */\n      pop\n        /* \"#utility.yul\":5099:5406   */\n      pop\n      pop\n      pop\n      jump\t// out\n        /* \"#utility.yul\":5412:5756   */\n    tag_125:\n        /* \"#utility.yul\":5490:5493   */\n      0x00\n        /* \"#utility.yul\":5518:5557   */\n      tag_205\n        /* \"#utility.yul\":5551:5556   */\n      dup3\n        /* \"#utility.yul\":5518:5557   */\n      tag_122\n      jump\t// in\n    tag_205:\n        /* \"#utility.yul\":5573:5634   */\n      tag_206\n        /* \"#utility.yul\":5627:5633   */\n      dup2\n        /* \"#utility.yul\":5622:5625   */\n      dup6\n        /* \"#utility.yul\":5573:5634   */\n      tag_123\n      jump\t// in\n    tag_206:\n        /* \"#utility.yul\":5566:5634   */\n      swap4\n      pop\n        /* \"#utility.yul\":5643:5695   */\n      tag_207\n        /* \"#utility.yul\":5688:5694   */\n      dup2\n        /* \"#utility.yul\":5683:5686   */\n      dup6\n        /* \"#utility.yul\":5676:5680   */\n      0x20\n        /* \"#utility.yul\":5669:5674   */\n      dup7\n        /* \"#utility.yul\":5665:5681   */\n      add\n        /* \"#utility.yul\":5643:5695   */\n      tag_124\n      jump\t// in\n    tag_207:\n        /* \"#utility.yul\":5720:5749   */\n      tag_208\n        /* \"#utility.yul\":5742:5748   */\n      dup2\n        /* \"#utility.yul\":5720:5749   */\n      tag_107\n      jump\t// in\n    tag_208:\n        /* \"#utility.yul\":5715:5718   */\n      dup5\n        /* \"#utility.yul\":5711:5750   */\n      add\n        /* \"#utility.yul\":5704:5750   */\n      swap2\n      pop\n        /* \"#utility.yul\":5494:5756   */\n      pop\n        /* \"#utility.yul\":5412:5756   */\n      swap3\n      swap2\n      pop\n      pop\n      jump\t// out\n        /* \"#utility.yul\":5762:5870   */\n    tag_126:\n        /* \"#utility.yul\":5839:5863   */\n      tag_210\n        /* \"#utility.yul\":5857:5862   */\n      dup2\n        /* \"#utility.yul\":5839:5863   */\n      tag_116\n      jump\t// in\n    tag_210:\n        /* \"#utility.yul\":5834:5837   */\n      dup3\n        /* \"#utility.yul\":5827:5864   */\n      mstore\n        /* \"#utility.yul\":5762:5870   */\n      pop\n      pop\n      jump\t// out\n        /* \"#utility.yul\":5876:5975   */\n    tag_127:\n        /* \"#utility.yul\":5947:5968   */\n      tag_212\n        /* \"#utility.yul\":5962:5967   */\n      dup2\n        /* \"#utility.yul\":5947:5968   */\n      tag_119\n      jump\t// in\n    tag_212:\n        /* \"#utility.yul\":5942:5945   */\n      dup3\n        /* \"#utility.yul\":5935:5969   */\n      mstore\n        /* \"#utility.yul\":5876:5975   */\n      pop\n      pop\n      jump\t// out\n        /* \"#utility.yul\":6025:6801   */\n    tag_128:\n        /* \"#utility.yul\":6136:6139   */\n      0x00\n        /* \"#utility.yul\":6172:6176   */\n      0x60\n        /* \"#utility.yul\":6167:6170   */\n      dup4\n        /* \"#utility.yul\":6163:6177   */\n      add\n        /* \"#utility.yul\":6259:6263   */\n      0x00\n        /* \"#utility.yul\":6252:6257   */\n      dup4\n        /* \"#utility.yul\":6248:6264   */\n      add\n        /* \"#utility.yul\":6242:6265   */\n      mload\n        /* \"#utility.yul\":6312:6315   */\n      dup5\n        /* \"#utility.yul\":6306:6310   */\n      dup3\n        /* \"#utility.yul\":6302:6316   */\n      sub\n        /* \"#utility.yul\":6295:6299   */\n      0x00\n        /* \"#utility.yul\":6290:6293   */\n      dup7\n        /* \"#utility.yul\":6286:6300   */\n      add\n        /* \"#utility.yul\":6279:6317   */\n      mstore\n        /* \"#utility.yul\":6338:6411   */\n      tag_214\n        /* \"#utility.yul\":6406:6410   */\n      dup3\n        /* \"#utility.yul\":6392:6404   */\n      dup3\n        /* \"#utility.yul\":6338:6411   */\n      tag_125\n      jump\t// in\n    tag_214:\n        /* \"#utility.yul\":6330:6411   */\n      swap2\n      pop\n        /* \"#utility.yul\":6187:6422   */\n      pop\n        /* \"#utility.yul\":6513:6517   */\n      0x20\n        /* \"#utility.yul\":6506:6511   */\n      dup4\n        /* \"#utility.yul\":6502:6518   */\n      add\n        /* \"#utility.yul\":6496:6519   */\n      mload\n        /* \"#utility.yul\":6532:6595   */\n      tag_215\n        /* \"#utility.yul\":6589:6593   */\n      0x20\n        /* \"#utility.yul\":6584:6587   */\n      dup7\n        /* \"#utility.yul\":6580:6594   */\n      add\n        /* \"#utility.yul\":6566:6578   */\n      dup3\n        /* \"#utility.yul\":6532:6595   */\n      tag_126\n      jump\t// in\n    tag_215:\n        /* \"#utility.yul\":6432:6605   */\n      pop\n        /* \"#utility.yul\":6688:6692   */\n      0x40\n        /* \"#utility.yul\":6681:6686   */\n      dup4\n        /* \"#utility.yul\":6677:6693   */\n      add\n        /* \"#utility.yul\":6671:6694   */\n      mload\n        /* \"#utility.yul\":6707:6764   */\n      tag_216\n        /* \"#utility.yul\":6758:6762   */\n      0x40\n        /* \"#utility.yul\":6753:6756   */\n      dup7\n        /* \"#utility.yul\":6749:6763   */\n      add\n        /* \"#utility.yul\":6735:6747   */\n      dup3\n        /* \"#utility.yul\":6707:6764   */\n      tag_127\n      jump\t// in\n    tag_216:\n        /* \"#utility.yul\":6615:6774   */\n      pop\n        /* \"#utility.yul\":6791:6795   */\n      dup1\n        /* \"#utility.yul\":6784:6795   */\n      swap2\n      pop\n        /* \"#utility.yul\":6141:6801   */\n      pop\n        /* \"#utility.yul\":6025:6801   */\n      swap3\n      swap2\n      pop\n      pop\n      jump\t// out\n        /* \"#utility.yul\":6807:7164   */\n    tag_29:\n        /* \"#utility.yul\":6942:6946   */\n      0x00\n        /* \"#utility.yul\":6980:6982   */\n      0x20\n        /* \"#utility.yul\":6969:6978   */\n      dup3\n        /* \"#utility.yul\":6965:6983   */\n      add\n        /* \"#utility.yul\":6957:6983   */\n      swap1\n      pop\n        /* \"#utility.yul\":7029:7038   */\n      dup2\n        /* \"#utility.yul\":7023:7027   */\n      dup2\n        /* \"#utility.yul\":7019:7039   */\n      sub\n        /* \"#utility.yul\":7015:7016   */\n      0x00\n        /* \"#utility.yul\":7004:7013   */\n      dup4\n        /* \"#utility.yul\":7000:7017   */\n      add\n        /* \"#utility.yul\":6993:7040   */\n      mstore\n        /* \"#utility.yul\":7057:7157   */\n      tag_218\n        /* \"#utility.yul\":7152:7156   */\n      dup2\n        /* \"#utility.yul\":7143:7149   */\n      dup5\n        /* \"#utility.yul\":7057:7157   */\n      tag_128\n      jump\t// in\n    tag_218:\n        /* \"#utility.yul\":7049:7157   */\n      swap1\n      pop\n        /* \"#utility.yul\":6807:7164   */\n      swap3\n      swap2\n      pop\n      pop\n      jump\t// out\n        /* \"#utility.yul\":7170:7339   */\n    tag_129:\n        /* \"#utility.yul\":7254:7265   */\n      0x00\n        /* \"#utility.yul\":7288:7294   */\n      dup3\n        /* \"#utility.yul\":7283:7286   */\n      dup3\n        /* \"#utility.yul\":7276:7295   */\n      mstore\n        /* \"#utility.yul\":7328:7332   */\n      0x20\n        /* \"#utility.yul\":7323:7326   */\n      dup3\n        /* \"#utility.yul\":7319:7333   */\n      add\n        /* \"#utility.yul\":7304:7333   */\n      swap1\n      pop\n        /* \"#utility.yul\":7170:7339   */\n      swap3\n      swap2\n      pop\n      pop\n      jump\t// out\n        /* \"#utility.yul\":7345:7575   */\n    tag_130:\n        /* \"#utility.yul\":7485:7519   */\n      0x4f6e6c79207468652070726f636573732063616e206578656375746520746869\n        /* \"#utility.yul\":7481:7482   */\n      0x00\n        /* \"#utility.yul\":7473:7479   */\n      dup3\n        /* \"#utility.yul\":7469:7483   */\n      add\n        /* \"#utility.yul\":7462:7520   */\n      mstore\n        /* \"#utility.yul\":7554:7567   */\n      0x73206f7065726174696f6e000000000000000000000000000000000000000000\n        /* \"#utility.yul\":7549:7551   */\n      0x20\n        /* \"#utility.yul\":7541:7547   */\n      dup3\n        /* \"#utility.yul\":7537:7552   */\n      add\n        /* \"#utility.yul\":7530:7568   */\n      mstore\n        /* \"#utility.yul\":7345:7575   */\n      pop\n      jump\t// out\n        /* \"#utility.yul\":7581:7947   */\n    tag_131:\n        /* \"#utility.yul\":7723:7726   */\n      0x00\n        /* \"#utility.yul\":7744:7811   */\n      tag_222\n        /* \"#utility.yul\":7808:7810   */\n      0x2b\n        /* \"#utility.yul\":7803:7806   */\n      dup4\n        /* \"#utility.yul\":7744:7811   */\n      tag_129\n      jump\t// in\n    tag_222:\n        /* \"#utility.yul\":7737:7811   */\n      swap2\n      pop\n        /* \"#utility.yul\":7820:7913   */\n      tag_223\n        /* \"#utility.yul\":7909:7912   */\n      dup3\n        /* \"#utility.yul\":7820:7913   */\n      tag_130\n      jump\t// in\n    tag_223:\n        /* \"#utility.yul\":7938:7940   */\n      0x40\n        /* \"#utility.yul\":7933:7936   */\n      dup3\n        /* \"#utility.yul\":7929:7941   */\n      add\n        /* \"#utility.yul\":7922:7941   */\n      swap1\n      pop\n        /* \"#utility.yul\":7581:7947   */\n      swap2\n      swap1\n      pop\n      jump\t// out\n        /* \"#utility.yul\":7953:8372   */\n    tag_33:\n        /* \"#utility.yul\":8119:8123   */\n      0x00\n        /* \"#utility.yul\":8157:8159   */\n      0x20\n        /* \"#utility.yul\":8146:8155   */\n      dup3\n        /* \"#utility.yul\":8142:8160   */\n      add\n        /* \"#utility.yul\":8134:8160   */\n      swap1\n      pop\n        /* \"#utility.yul\":8206:8215   */\n      dup2\n        /* \"#utility.yul\":8200:8204   */\n      dup2\n        /* \"#utility.yul\":8196:8216   */\n      sub\n        /* \"#utility.yul\":8192:8193   */\n      0x00\n        /* \"#utility.yul\":8181:8190   */\n      dup4\n        /* \"#utility.yul\":8177:8194   */\n      add\n        /* \"#utility.yul\":8170:8217   */\n      mstore\n        /* \"#utility.yul\":8234:8365   */\n      tag_225\n        /* \"#utility.yul\":8360:8364   */\n      dup2\n        /* \"#utility.yul\":8234:8365   */\n      tag_131\n      jump\t// in\n    tag_225:\n        /* \"#utility.yul\":8226:8365   */\n      swap1\n      pop\n        /* \"#utility.yul\":7953:8372   */\n      swap2\n      swap1\n      pop\n      jump\t// out\n        /* \"#utility.yul\":8378:8627   */\n    tag_132:\n        /* \"#utility.yul\":8518:8552   */\n      0x4f6e6c79207468652070726f63657373206f7220746865206170706c69636174\n        /* \"#utility.yul\":8514:8515   */\n      0x00\n        /* \"#utility.yul\":8506:8512   */\n      dup3\n        /* \"#utility.yul\":8502:8516   */\n      add\n        /* \"#utility.yul\":8495:8553   */\n      mstore\n        /* \"#utility.yul\":8587:8619   */\n      0x696f6e2063616e20657865637574652074686973206f7065726174696f6e0000\n        /* \"#utility.yul\":8582:8584   */\n      0x20\n        /* \"#utility.yul\":8574:8580   */\n      dup3\n        /* \"#utility.yul\":8570:8585   */\n      add\n        /* \"#utility.yul\":8563:8620   */\n      mstore\n        /* \"#utility.yul\":8378:8627   */\n      pop\n      jump\t// out\n        /* \"#utility.yul\":8633:8999   */\n    tag_133:\n        /* \"#utility.yul\":8775:8778   */\n      0x00\n        /* \"#utility.yul\":8796:8863   */\n      tag_228\n        /* \"#utility.yul\":8860:8862   */\n      0x3e\n        /* \"#utility.yul\":8855:8858   */\n      dup4\n        /* \"#utility.yul\":8796:8863   */\n      tag_129\n      jump\t// in\n    tag_228:\n        /* \"#utility.yul\":8789:8863   */\n      swap2\n      pop\n        /* \"#utility.yul\":8872:8965   */\n      tag_229\n        /* \"#utility.yul\":8961:8964   */\n      dup3\n        /* \"#utility.yul\":8872:8965   */\n      tag_132\n      jump\t// in\n    tag_229:\n        /* \"#utility.yul\":8990:8992   */\n      0x40\n        /* \"#utility.yul\":8985:8988   */\n      dup3\n        /* \"#utility.yul\":8981:8993   */\n      add\n        /* \"#utility.yul\":8974:8993   */\n      swap1\n      pop\n        /* \"#utility.yul\":8633:8999   */\n      swap2\n      swap1\n      pop\n      jump\t// out\n        /* \"#utility.yul\":9005:9424   */\n    tag_46:\n        /* \"#utility.yul\":9171:9175   */\n      0x00\n        /* \"#utility.yul\":9209:9211   */\n      0x20\n        /* \"#utility.yul\":9198:9207   */\n      dup3\n        /* \"#utility.yul\":9194:9212   */\n      add\n        /* \"#utility.yul\":9186:9212   */\n      swap1\n      pop\n        /* \"#utility.yul\":9258:9267   */\n      dup2\n        /* \"#utility.yul\":9252:9256   */\n      dup2\n        /* \"#utility.yul\":9248:9268   */\n      sub\n        /* \"#utility.yul\":9244:9245   */\n      0x00\n        /* \"#utility.yul\":9233:9242   */\n      dup4\n        /* \"#utility.yul\":9229:9246   */\n      add\n        /* \"#utility.yul\":9222:9269   */\n      mstore\n        /* \"#utility.yul\":9286:9417   */\n      tag_231\n        /* \"#utility.yul\":9412:9416   */\n      dup2\n        /* \"#utility.yul\":9286:9417   */\n      tag_133\n      jump\t// in\n    tag_231:\n        /* \"#utility.yul\":9278:9417   */\n      swap1\n      pop\n        /* \"#utility.yul\":9005:9424   */\n      swap2\n      swap1\n      pop\n      jump\t// out\n        /* \"#utility.yul\":9430:9664   */\n    tag_134:\n        /* \"#utility.yul\":9570:9604   */\n      0x4f6e6c7920746865206170706c69636174696f6e2063616e2065786563757465\n        /* \"#utility.yul\":9566:9567   */\n      0x00\n        /* \"#utility.yul\":9558:9564   */\n      dup3\n        /* \"#utility.yul\":9554:9568   */\n      add\n        /* \"#utility.yul\":9547:9605   */\n      mstore\n        /* \"#utility.yul\":9639:9656   */\n      0x2074686973206f7065726174696f6e0000000000000000000000000000000000\n        /* \"#utility.yul\":9634:9636   */\n      0x20\n        /* \"#utility.yul\":9626:9632   */\n      dup3\n        /* \"#utility.yul\":9622:9637   */\n      add\n        /* \"#utility.yul\":9615:9657   */\n      mstore\n        /* \"#utility.yul\":9430:9664   */\n      pop\n      jump\t// out\n        /* \"#utility.yul\":9670:10036   */\n    tag_135:\n        /* \"#utility.yul\":9812:9815   */\n      0x00\n        /* \"#utility.yul\":9833:9900   */\n      tag_234\n        /* \"#utility.yul\":9897:9899   */\n      0x2f\n        /* \"#utility.yul\":9892:9895   */\n      dup4\n        /* \"#utility.yul\":9833:9900   */\n      tag_129\n      jump\t// in\n    tag_234:\n        /* \"#utility.yul\":9826:9900   */\n      swap2\n      pop\n        /* \"#utility.yul\":9909:10002   */\n      tag_235\n        /* \"#utility.yul\":9998:10001   */\n      dup3\n        /* \"#utility.yul\":9909:10002   */\n      tag_134\n      jump\t// in\n    tag_235:\n        /* \"#utility.yul\":10027:10029   */\n      0x40\n        /* \"#utility.yul\":10022:10025   */\n      dup3\n        /* \"#utility.yul\":10018:10030   */\n      add\n        /* \"#utility.yul\":10011:10030   */\n      swap1\n      pop\n        /* \"#utility.yul\":9670:10036   */\n      swap2\n      swap1\n      pop\n      jump\t// out\n        /* \"#utility.yul\":10042:10461   */\n    tag_56:\n        /* \"#utility.yul\":10208:10212   */\n      0x00\n        /* \"#utility.yul\":10246:10248   */\n      0x20\n        /* \"#utility.yul\":10235:10244   */\n      dup3\n        /* \"#utility.yul\":10231:10249   */\n      add\n        /* \"#utility.yul\":10223:10249   */\n      swap1\n      pop\n        /* \"#utility.yul\":10295:10304   */\n      dup2\n        /* \"#utility.yul\":10289:10293   */\n      dup2\n        /* \"#utility.yul\":10285:10305   */\n      sub\n        /* \"#utility.yul\":10281:10282   */\n      0x00\n        /* \"#utility.yul\":10270:10279   */\n      dup4\n        /* \"#utility.yul\":10266:10283   */\n      add\n        /* \"#utility.yul\":10259:10306   */\n      mstore\n        /* \"#utility.yul\":10323:10454   */\n      tag_237\n        /* \"#utility.yul\":10449:10453   */\n      dup2\n        /* \"#utility.yul\":10323:10454   */\n      tag_135\n      jump\t// in\n    tag_237:\n        /* \"#utility.yul\":10315:10454   */\n      swap1\n      pop\n        /* \"#utility.yul\":10042:10461   */\n      swap2\n      swap1\n      pop\n      jump\t// out\n        /* \"#utility.yul\":10467:10647   */\n    tag_136:\n        /* \"#utility.yul\":10607:10639   */\n      0x54686520636f6e747261637420697320616c7265616479207369676e65640000\n        /* \"#utility.yul\":10603:10604   */\n      0x00\n        /* \"#utility.yul\":10595:10601   */\n      dup3\n        /* \"#utility.yul\":10591:10605   */\n      add\n        /* \"#utility.yul\":10584:10640   */\n      mstore\n        /* \"#utility.yul\":10467:10647   */\n      pop\n      jump\t// out\n        /* \"#utility.yul\":10653:11019   */\n    tag_137:\n        /* \"#utility.yul\":10795:10798   */\n      0x00\n        /* \"#utility.yul\":10816:10883   */\n      tag_240\n        /* \"#utility.yul\":10880:10882   */\n      0x1e\n        /* \"#utility.yul\":10875:10878   */\n      dup4\n        /* \"#utility.yul\":10816:10883   */\n      tag_129\n      jump\t// in\n    tag_240:\n        /* \"#utility.yul\":10809:10883   */\n      swap2\n      pop\n        /* \"#utility.yul\":10892:10985   */\n      tag_241\n        /* \"#utility.yul\":10981:10984   */\n      dup3\n        /* \"#utility.yul\":10892:10985   */\n      tag_136\n      jump\t// in\n    tag_241:\n        /* \"#utility.yul\":11010:11012   */\n      0x20\n        /* \"#utility.yul\":11005:11008   */\n      dup3\n        /* \"#utility.yul\":11001:11013   */\n      add\n        /* \"#utility.yul\":10994:11013   */\n      swap1\n      pop\n        /* \"#utility.yul\":10653:11019   */\n      swap2\n      swap1\n      pop\n      jump\t// out\n        /* \"#utility.yul\":11025:11444   */\n    tag_60:\n        /* \"#utility.yul\":11191:11195   */\n      0x00\n        /* \"#utility.yul\":11229:11231   */\n      0x20\n        /* \"#utility.yul\":11218:11227   */\n      dup3\n        /* \"#utility.yul\":11214:11232   */\n      add\n        /* \"#utility.yul\":11206:11232   */\n      swap1\n      pop\n        /* \"#utility.yul\":11278:11287   */\n      dup2\n        /* \"#utility.yul\":11272:11276   */\n      dup2\n        /* \"#utility.yul\":11268:11288   */\n      sub\n        /* \"#utility.yul\":11264:11265   */\n      0x00\n        /* \"#utility.yul\":11253:11262   */\n      dup4\n        /* \"#utility.yul\":11249:11266   */\n      add\n        /* \"#utility.yul\":11242:11289   */\n      mstore\n        /* \"#utility.yul\":11306:11437   */\n      tag_243\n        /* \"#utility.yul\":11432:11436   */\n      dup2\n        /* \"#utility.yul\":11306:11437   */\n      tag_137\n      jump\t// in\n    tag_243:\n        /* \"#utility.yul\":11298:11437   */\n      swap1\n      pop\n        /* \"#utility.yul\":11025:11444   */\n      swap2\n      swap1\n      pop\n      jump\t// out\n        /* \"#utility.yul\":11450:11630   */\n    tag_138:\n        /* \"#utility.yul\":11498:11575   */\n      0x4e487b7100000000000000000000000000000000000000000000000000000000\n        /* \"#utility.yul\":11495:11496   */\n      0x00\n        /* \"#utility.yul\":11488:11576   */\n      mstore\n        /* \"#utility.yul\":11595:11599   */\n      0x22\n        /* \"#utility.yul\":11592:11593   */\n      0x04\n        /* \"#utility.yul\":11585:11600   */\n      mstore\n        /* \"#utility.yul\":11619:11623   */\n      0x24\n        /* \"#utility.yul\":11616:11617   */\n      0x00\n        /* \"#utility.yul\":11609:11624   */\n      revert\n        /* \"#utility.yul\":11636:11956   */\n    tag_70:\n        /* \"#utility.yul\":11680:11686   */\n      0x00\n        /* \"#utility.yul\":11717:11718   */\n      0x02\n        /* \"#utility.yul\":11711:11715   */\n      dup3\n        /* \"#utility.yul\":11707:11719   */\n      div\n        /* \"#utility.yul\":11697:11719   */\n      swap1\n      pop\n        /* \"#utility.yul\":11764:11765   */\n      0x01\n        /* \"#utility.yul\":11758:11762   */\n      dup3\n        /* \"#utility.yul\":11754:11766   */\n      and\n        /* \"#utility.yul\":11785:11803   */\n      dup1\n        /* \"#utility.yul\":11775:11856   */\n      tag_246\n      jumpi\n        /* \"#utility.yul\":11841:11845   */\n      0x7f\n        /* \"#utility.yul\":11833:11839   */\n      dup3\n        /* \"#utility.yul\":11829:11846   */\n      and\n        /* \"#utility.yul\":11819:11846   */\n      swap2\n      pop\n        /* \"#utility.yul\":11775:11856   */\n    tag_246:\n        /* \"#utility.yul\":11903:11905   */\n      0x20\n        /* \"#utility.yul\":11895:11901   */\n      dup3\n        /* \"#utility.yul\":11892:11906   */\n      lt\n        /* \"#utility.yul\":11872:11890   */\n      dup2\n        /* \"#utility.yul\":11869:11907   */\n      sub\n        /* \"#utility.yul\":11866:11950   */\n      tag_247\n      jumpi\n        /* \"#utility.yul\":11922:11940   */\n      tag_248\n      tag_138\n      jump\t// in\n    tag_248:\n        /* \"#utility.yul\":11866:11950   */\n    tag_247:\n        /* \"#utility.yul\":11687:11956   */\n      pop\n        /* \"#utility.yul\":11636:11956   */\n      swap2\n      swap1\n      pop\n      jump\t// out\n\n    auxdata: 0xa2646970667358221220751d7cbfe4f87418103b7e409582a97dfaeb67e30162abff4d0b7a1d928f327b64736f6c634300080d0033\n}\n",
				"bytecode": {
					"linkReferences": {},
					"object": "608060405234801561001057600080fd5b50611219806100206000396000f3fe608060405234801561001057600080fd5b50600436106100575760003560e01c80635e744c6a1461005c57806370d8915a1461008c57806385931911146100aa578063b8b4f1a0146100c8578063fb6f8243146100e6575b600080fd5b61007660048036038101906100719190610d4f565b610116565b6040516100839190610dc6565b60405180910390f35b610094610308565b6040516100a19190610df0565b60405180910390f35b6100b2610423565b6040516100bf9190610df0565b60405180910390f35b6100d061053e565b6040516100dd9190610dc6565b60405180910390f35b61010060048036038101906100fb9190610e0b565b61065d565b60405161010d9190610f2e565b60405180910390f35b60003373ffffffffffffffffffffffffffffffffffffffff16600060010160009054906101000a900473ffffffffffffffffffffffffffffffffffffffff1673ffffffffffffffffffffffffffffffffffffffff16146101ab576040517f08c379a00000000000000000000000000000000000000000000000000000000081526004016101a290610fd3565b60405180910390fd5b60046000600260010160009054906101000a900473ffffffffffffffffffffffffffffffffffffffff1673ffffffffffffffffffffffffffffffffffffffff1673ffffffffffffffffffffffffffffffffffffffff1681526020019081526020016000206000808201600061022091906109ee565b6001820160006101000a81549073ffffffffffffffffffffffffffffffffffffffff02191690556001820160146101000a81549060ff02191690555050610269838360006108a7565b60026000820151816000019080519060200190610287929190610a2e565b5060208201518160010160006101000a81548173ffffffffffffffffffffffffffffffffffffffff021916908373ffffffffffffffffffffffffffffffffffffffff16021790555060408201518160010160146101000a81548160ff0219169083151502179055509050506102fd8260026108eb565b506001905092915050565b60003373ffffffffffffffffffffffffffffffffffffffff16600260010160009054906101000a900473ffffffffffffffffffffffffffffffffffffffff1673ffffffffffffffffffffffffffffffffffffffff1614806103b957503373ffffffffffffffffffffffffffffffffffffffff16600060010160009054906101000a900473ffffffffffffffffffffffffffffffffffffffff1673ffffffffffffffffffffffffffffffffffffffff16145b6103f8576040517f08c379a00000000000000000000000000000000000000000000000000000000081526004016103ef90611065565b60405180910390fd5b600260010160009054906101000a900473ffffffffffffffffffffffffffffffffffffffff16905090565b60003373ffffffffffffffffffffffffffffffffffffffff16600260010160009054906101000a900473ffffffffffffffffffffffffffffffffffffffff1673ffffffffffffffffffffffffffffffffffffffff1614806104d457503373ffffffffffffffffffffffffffffffffffffffff16600060010160009054906101000a900473ffffffffffffffffffffffffffffffffffffffff1673ffffffffffffffffffffffffffffffffffffffff16145b610513576040517f08c379a000000000000000000000000000000000000000000000000000000000815260040161050a90611065565b60405180910390fd5b600060010160009054906101000a900473ffffffffffffffffffffffffffffffffffffffff16905090565b60003373ffffffffffffffffffffffffffffffffffffffff16600260010160009054906101000a900473ffffffffffffffffffffffffffffffffffffffff1673ffffffffffffffffffffffffffffffffffffffff16146105d3576040517f08c379a00000000000000000000000000000000000000000000000000000000081526004016105ca906110f7565b60405180910390fd5b60001515600260010160149054906101000a900460ff1615151461062c576040517f08c379a000000000000000000000000000000000000000000000000000000000815260040161062390611163565b60405180910390fd5b6001600260010160146101000a81548160ff0219169083151502179055506106553360026108eb565b506001905090565b610665610ab4565b3373ffffffffffffffffffffffffffffffffffffffff16600260010160009054906101000a900473ffffffffffffffffffffffffffffffffffffffff1673ffffffffffffffffffffffffffffffffffffffff16148061071457503373ffffffffffffffffffffffffffffffffffffffff16600060010160009054906101000a900473ffffffffffffffffffffffffffffffffffffffff1673ffffffffffffffffffffffffffffffffffffffff16145b610753576040517f08c379a000000000000000000000000000000000000000000000000000000000815260040161074a90611065565b60405180910390fd5b600460008373ffffffffffffffffffffffffffffffffffffffff1673ffffffffffffffffffffffffffffffffffffffff1681526020019081526020016000206040518060600160405290816000820180546107ad906111b2565b80601f01602080910402602001604051908101604052809291908181526020018280546107d9906111b2565b80156108265780601f106107fb57610100808354040283529160200191610826565b820191906000526020600020905b81548152906001019060200180831161080957829003601f168201915b505050505081526020016001820160009054906101000a900473ffffffffffffffffffffffffffffffffffffffff1673ffffffffffffffffffffffffffffffffffffffff1673ffffffffffffffffffffffffffffffffffffffff1681526020016001820160149054906101000a900460ff1615151515815250509050919050565b6108af610ab4565b60405180606001604052808581526020018473ffffffffffffffffffffffffffffffffffffffff16815260200183151581525090509392505050565b600081600460008573ffffffffffffffffffffffffffffffffffffffff1673ffffffffffffffffffffffffffffffffffffffff1681526020019081526020016000206000820181600001908054610941906111b2565b61094c929190610aed565b506001820160009054906101000a900473ffffffffffffffffffffffffffffffffffffffff168160010160006101000a81548173ffffffffffffffffffffffffffffffffffffffff021916908373ffffffffffffffffffffffffffffffffffffffff1602179055506001820160149054906101000a900460ff168160010160146101000a81548160ff0219169083151502179055509050506001905092915050565b5080546109fa906111b2565b6000825580601f10610a0c5750610a2b565b601f016020900490600052602060002090810190610a2a9190610b7a565b5b50565b828054610a3a906111b2565b90600052602060002090601f016020900481019282610a5c5760008555610aa3565b82601f10610a7557805160ff1916838001178555610aa3565b82800160010185558215610aa3579182015b82811115610aa2578251825591602001919060010190610a87565b5b509050610ab09190610b7a565b5090565b604051806060016040528060608152602001600073ffffffffffffffffffffffffffffffffffffffff1681526020016000151581525090565b828054610af9906111b2565b90600052602060002090601f016020900481019282610b1b5760008555610b69565b82601f10610b2c5780548555610b69565b82800160010185558215610b6957600052602060002091601f016020900482015b82811115610b68578254825591600101919060010190610b4d565b5b509050610b769190610b7a565b5090565b5b80821115610b93576000816000905550600101610b7b565b5090565b6000604051905090565b600080fd5b600080fd5b600080fd5b600080fd5b6000601f19601f8301169050919050565b7f4e487b7100000000000000000000000000000000000000000000000000000000600052604160045260246000fd5b610bfe82610bb5565b810181811067ffffffffffffffff82111715610c1d57610c1c610bc6565b5b80604052505050565b6000610c30610b97565b9050610c3c8282610bf5565b919050565b600067ffffffffffffffff821115610c5c57610c5b610bc6565b5b610c6582610bb5565b9050602081019050919050565b82818337600083830152505050565b6000610c94610c8f84610c41565b610c26565b905082815260208101848484011115610cb057610caf610bb0565b5b610cbb848285610c72565b509392505050565b600082601f830112610cd857610cd7610bab565b5b8135610ce8848260208601610c81565b91505092915050565b600073ffffffffffffffffffffffffffffffffffffffff82169050919050565b6000610d1c82610cf1565b9050919050565b610d2c81610d11565b8114610d3757600080fd5b50565b600081359050610d4981610d23565b92915050565b60008060408385031215610d6657610d65610ba1565b5b600083013567ffffffffffffffff811115610d8457610d83610ba6565b5b610d9085828601610cc3565b9250506020610da185828601610d3a565b9150509250929050565b60008115159050919050565b610dc081610dab565b82525050565b6000602082019050610ddb6000830184610db7565b92915050565b610dea81610d11565b82525050565b6000602082019050610e056000830184610de1565b92915050565b600060208284031215610e2157610e20610ba1565b5b6000610e2f84828501610d3a565b91505092915050565b600081519050919050565b600082825260208201905092915050565b60005b83811015610e72578082015181840152602081019050610e57565b83811115610e81576000848401525b50505050565b6000610e9282610e38565b610e9c8185610e43565b9350610eac818560208601610e54565b610eb581610bb5565b840191505092915050565b610ec981610d11565b82525050565b610ed881610dab565b82525050565b60006060830160008301518482036000860152610efb8282610e87565b9150506020830151610f106020860182610ec0565b506040830151610f236040860182610ecf565b508091505092915050565b60006020820190508181036000830152610f488184610ede565b905092915050565b600082825260208201905092915050565b7f4f6e6c79207468652070726f636573732063616e20657865637574652074686960008201527f73206f7065726174696f6e000000000000000000000000000000000000000000602082015250565b6000610fbd602b83610f50565b9150610fc882610f61565b604082019050919050565b60006020820190508181036000830152610fec81610fb0565b9050919050565b7f4f6e6c79207468652070726f63657373206f7220746865206170706c6963617460008201527f696f6e2063616e20657865637574652074686973206f7065726174696f6e0000602082015250565b600061104f603e83610f50565b915061105a82610ff3565b604082019050919050565b6000602082019050818103600083015261107e81611042565b9050919050565b7f4f6e6c7920746865206170706c69636174696f6e2063616e206578656375746560008201527f2074686973206f7065726174696f6e0000000000000000000000000000000000602082015250565b60006110e1602f83610f50565b91506110ec82611085565b604082019050919050565b60006020820190508181036000830152611110816110d4565b9050919050565b7f54686520636f6e747261637420697320616c7265616479207369676e65640000600082015250565b600061114d601e83610f50565b915061115882611117565b602082019050919050565b6000602082019050818103600083015261117c81611140565b9050919050565b7f4e487b7100000000000000000000000000000000000000000000000000000000600052602260045260246000fd5b600060028204905060018216806111ca57607f821691505b6020821081036111dd576111dc611183565b5b5091905056fea2646970667358221220751d7cbfe4f87418103b7e409582a97dfaeb67e30162abff4d0b7a1d928f327b64736f6c634300080d0033",
					"opcodes": "PUSH1 0x80 PUSH1 0x40 MSTORE CALLVALUE DUP1 ISZERO PUSH2 0x10 JUMPI PUSH1 0x0 DUP1 REVERT JUMPDEST POP PUSH2 0x1219 DUP1 PUSH2 0x20 PUSH1 0x0 CODECOPY PUSH1 0x0 RETURN INVALID PUSH1 0x80 PUSH1 0x40 MSTORE CALLVALUE DUP1 ISZERO PUSH2 0x10 JUMPI PUSH1 0x0 DUP1 REVERT JUMPDEST POP PUSH1 0x4 CALLDATASIZE LT PUSH2 0x57 JUMPI PUSH1 0x0 CALLDATALOAD PUSH1 0xE0 SHR DUP1 PUSH4 0x5E744C6A EQ PUSH2 0x5C JUMPI DUP1 PUSH4 0x70D8915A EQ PUSH2 0x8C JUMPI DUP1 PUSH4 0x85931911 EQ PUSH2 0xAA JUMPI DUP1 PUSH4 0xB8B4F1A0 EQ PUSH2 0xC8 JUMPI DUP1 PUSH4 0xFB6F8243 EQ PUSH2 0xE6 JUMPI JUMPDEST PUSH1 0x0 DUP1 REVERT JUMPDEST PUSH2 0x76 PUSH1 0x4 DUP1 CALLDATASIZE SUB DUP2 ADD SWAP1 PUSH2 0x71 SWAP2 SWAP1 PUSH2 0xD4F JUMP JUMPDEST PUSH2 0x116 JUMP JUMPDEST PUSH1 0x40 MLOAD PUSH2 0x83 SWAP2 SWAP1 PUSH2 0xDC6 JUMP JUMPDEST PUSH1 0x40 MLOAD DUP1 SWAP2 SUB SWAP1 RETURN JUMPDEST PUSH2 0x94 PUSH2 0x308 JUMP JUMPDEST PUSH1 0x40 MLOAD PUSH2 0xA1 SWAP2 SWAP1 PUSH2 0xDF0 JUMP JUMPDEST PUSH1 0x40 MLOAD DUP1 SWAP2 SUB SWAP1 RETURN JUMPDEST PUSH2 0xB2 PUSH2 0x423 JUMP JUMPDEST PUSH1 0x40 MLOAD PUSH2 0xBF SWAP2 SWAP1 PUSH2 0xDF0 JUMP JUMPDEST PUSH1 0x40 MLOAD DUP1 SWAP2 SUB SWAP1 RETURN JUMPDEST PUSH2 0xD0 PUSH2 0x53E JUMP JUMPDEST PUSH1 0x40 MLOAD PUSH2 0xDD SWAP2 SWAP1 PUSH2 0xDC6 JUMP JUMPDEST PUSH1 0x40 MLOAD DUP1 SWAP2 SUB SWAP1 RETURN JUMPDEST PUSH2 0x100 PUSH1 0x4 DUP1 CALLDATASIZE SUB DUP2 ADD SWAP1 PUSH2 0xFB SWAP2 SWAP1 PUSH2 0xE0B JUMP JUMPDEST PUSH2 0x65D JUMP JUMPDEST PUSH1 0x40 MLOAD PUSH2 0x10D SWAP2 SWAP1 PUSH2 0xF2E JUMP JUMPDEST PUSH1 0x40 MLOAD DUP1 SWAP2 SUB SWAP1 RETURN JUMPDEST PUSH1 0x0 CALLER PUSH20 0xFFFFFFFFFFFFFFFFFFFFFFFFFFFFFFFFFFFFFFFF AND PUSH1 0x0 PUSH1 0x1 ADD PUSH1 0x0 SWAP1 SLOAD SWAP1 PUSH2 0x100 EXP SWAP1 DIV PUSH20 0xFFFFFFFFFFFFFFFFFFFFFFFFFFFFFFFFFFFFFFFF AND PUSH20 0xFFFFFFFFFFFFFFFFFFFFFFFFFFFFFFFFFFFFFFFF AND EQ PUSH2 0x1AB JUMPI PUSH1 0x40 MLOAD PUSH32 0x8C379A000000000000000000000000000000000000000000000000000000000 DUP2 MSTORE PUSH1 0x4 ADD PUSH2 0x1A2 SWAP1 PUSH2 0xFD3 JUMP JUMPDEST PUSH1 0x40 MLOAD DUP1 SWAP2 SUB SWAP1 REVERT JUMPDEST PUSH1 0x4 PUSH1 0x0 PUSH1 0x2 PUSH1 0x1 ADD PUSH1 0x0 SWAP1 SLOAD SWAP1 PUSH2 0x100 EXP SWAP1 DIV PUSH20 0xFFFFFFFFFFFFFFFFFFFFFFFFFFFFFFFFFFFFFFFF AND PUSH20 0xFFFFFFFFFFFFFFFFFFFFFFFFFFFFFFFFFFFFFFFF AND PUSH20 0xFFFFFFFFFFFFFFFFFFFFFFFFFFFFFFFFFFFFFFFF AND DUP2 MSTORE PUSH1 0x20 ADD SWAP1 DUP2 MSTORE PUSH1 0x20 ADD PUSH1 0x0 KECCAK256 PUSH1 0x0 DUP1 DUP3 ADD PUSH1 0x0 PUSH2 0x220 SWAP2 SWAP1 PUSH2 0x9EE JUMP JUMPDEST PUSH1 0x1 DUP3 ADD PUSH1 0x0 PUSH2 0x100 EXP DUP2 SLOAD SWAP1 PUSH20 0xFFFFFFFFFFFFFFFFFFFFFFFFFFFFFFFFFFFFFFFF MUL NOT AND SWAP1 SSTORE PUSH1 0x1 DUP3 ADD PUSH1 0x14 PUSH2 0x100 EXP DUP2 SLOAD SWAP1 PUSH1 0xFF MUL NOT AND SWAP1 SSTORE POP POP PUSH2 0x269 DUP4 DUP4 PUSH1 0x0 PUSH2 0x8A7 JUMP JUMPDEST PUSH1 0x2 PUSH1 0x0 DUP3 ADD MLOAD DUP2 PUSH1 0x0 ADD SWAP1 DUP1 MLOAD SWAP1 PUSH1 0x20 ADD SWAP1 PUSH2 0x287 SWAP3 SWAP2 SWAP1 PUSH2 0xA2E JUMP JUMPDEST POP PUSH1 0x20 DUP3 ADD MLOAD DUP2 PUSH1 0x1 ADD PUSH1 0x0 PUSH2 0x100 EXP DUP2 SLOAD DUP2 PUSH20 0xFFFFFFFFFFFFFFFFFFFFFFFFFFFFFFFFFFFFFFFF MUL NOT AND SWAP1 DUP4 PUSH20 0xFFFFFFFFFFFFFFFFFFFFFFFFFFFFFFFFFFFFFFFF AND MUL OR SWAP1 SSTORE POP PUSH1 0x40 DUP3 ADD MLOAD DUP2 PUSH1 0x1 ADD PUSH1 0x14 PUSH2 0x100 EXP DUP2 SLOAD DUP2 PUSH1 0xFF MUL NOT AND SWAP1 DUP4 ISZERO ISZERO MUL OR SWAP1 SSTORE POP SWAP1 POP POP PUSH2 0x2FD DUP3 PUSH1 0x2 PUSH2 0x8EB JUMP JUMPDEST POP PUSH1 0x1 SWAP1 POP SWAP3 SWAP2 POP POP JUMP JUMPDEST PUSH1 0x0 CALLER PUSH20 0xFFFFFFFFFFFFFFFFFFFFFFFFFFFFFFFFFFFFFFFF AND PUSH1 0x2 PUSH1 0x1 ADD PUSH1 0x0 SWAP1 SLOAD SWAP1 PUSH2 0x100 EXP SWAP1 DIV PUSH20 0xFFFFFFFFFFFFFFFFFFFFFFFFFFFFFFFFFFFFFFFF AND PUSH20 0xFFFFFFFFFFFFFFFFFFFFFFFFFFFFFFFFFFFFFFFF AND EQ DUP1 PUSH2 0x3B9 JUMPI POP CALLER PUSH20 0xFFFFFFFFFFFFFFFFFFFFFFFFFFFFFFFFFFFFFFFF AND PUSH1 0x0 PUSH1 0x1 ADD PUSH1 0x0 SWAP1 SLOAD SWAP1 PUSH2 0x100 EXP SWAP1 DIV PUSH20 0xFFFFFFFFFFFFFFFFFFFFFFFFFFFFFFFFFFFFFFFF AND PUSH20 0xFFFFFFFFFFFFFFFFFFFFFFFFFFFFFFFFFFFFFFFF AND EQ JUMPDEST PUSH2 0x3F8 JUMPI PUSH1 0x40 MLOAD PUSH32 0x8C379A000000000000000000000000000000000000000000000000000000000 DUP2 MSTORE PUSH1 0x4 ADD PUSH2 0x3EF SWAP1 PUSH2 0x1065 JUMP JUMPDEST PUSH1 0x40 MLOAD DUP1 SWAP2 SUB SWAP1 REVERT JUMPDEST PUSH1 0x2 PUSH1 0x1 ADD PUSH1 0x0 SWAP1 SLOAD SWAP1 PUSH2 0x100 EXP SWAP1 DIV PUSH20 0xFFFFFFFFFFFFFFFFFFFFFFFFFFFFFFFFFFFFFFFF AND SWAP1 POP SWAP1 JUMP JUMPDEST PUSH1 0x0 CALLER PUSH20 0xFFFFFFFFFFFFFFFFFFFFFFFFFFFFFFFFFFFFFFFF AND PUSH1 0x2 PUSH1 0x1 ADD PUSH1 0x0 SWAP1 SLOAD SWAP1 PUSH2 0x100 EXP SWAP1 DIV PUSH20 0xFFFFFFFFFFFFFFFFFFFFFFFFFFFFFFFFFFFFFFFF AND PUSH20 0xFFFFFFFFFFFFFFFFFFFFFFFFFFFFFFFFFFFFFFFF AND EQ DUP1 PUSH2 0x4D4 JUMPI POP CALLER PUSH20 0xFFFFFFFFFFFFFFFFFFFFFFFFFFFFFFFFFFFFFFFF AND PUSH1 0x0 PUSH1 0x1 ADD PUSH1 0x0 SWAP1 SLOAD SWAP1 PUSH2 0x100 EXP SWAP1 DIV PUSH20 0xFFFFFFFFFFFFFFFFFFFFFFFFFFFFFFFFFFFFFFFF AND PUSH20 0xFFFFFFFFFFFFFFFFFFFFFFFFFFFFFFFFFFFFFFFF AND EQ JUMPDEST PUSH2 0x513 JUMPI PUSH1 0x40 MLOAD PUSH32 0x8C379A000000000000000000000000000000000000000000000000000000000 DUP2 MSTORE PUSH1 0x4 ADD PUSH2 0x50A SWAP1 PUSH2 0x1065 JUMP JUMPDEST PUSH1 0x40 MLOAD DUP1 SWAP2 SUB SWAP1 REVERT JUMPDEST PUSH1 0x0 PUSH1 0x1 ADD PUSH1 0x0 SWAP1 SLOAD SWAP1 PUSH2 0x100 EXP SWAP1 DIV PUSH20 0xFFFFFFFFFFFFFFFFFFFFFFFFFFFFFFFFFFFFFFFF AND SWAP1 POP SWAP1 JUMP JUMPDEST PUSH1 0x0 CALLER PUSH20 0xFFFFFFFFFFFFFFFFFFFFFFFFFFFFFFFFFFFFFFFF AND PUSH1 0x2 PUSH1 0x1 ADD PUSH1 0x0 SWAP1 SLOAD SWAP1 PUSH2 0x100 EXP SWAP1 DIV PUSH20 0xFFFFFFFFFFFFFFFFFFFFFFFFFFFFFFFFFFFFFFFF AND PUSH20 0xFFFFFFFFFFFFFFFFFFFFFFFFFFFFFFFFFFFFFFFF AND EQ PUSH2 0x5D3 JUMPI PUSH1 0x40 MLOAD PUSH32 0x8C379A000000000000000000000000000000000000000000000000000000000 DUP2 MSTORE PUSH1 0x4 ADD PUSH2 0x5CA SWAP1 PUSH2 0x10F7 JUMP JUMPDEST PUSH1 0x40 MLOAD DUP1 SWAP2 SUB SWAP1 REVERT JUMPDEST PUSH1 0x0 ISZERO ISZERO PUSH1 0x2 PUSH1 0x1 ADD PUSH1 0x14 SWAP1 SLOAD SWAP1 PUSH2 0x100 EXP SWAP1 DIV PUSH1 0xFF AND ISZERO ISZERO EQ PUSH2 0x62C JUMPI PUSH1 0x40 MLOAD PUSH32 0x8C379A000000000000000000000000000000000000000000000000000000000 DUP2 MSTORE PUSH1 0x4 ADD PUSH2 0x623 SWAP1 PUSH2 0x1163 JUMP JUMPDEST PUSH1 0x40 MLOAD DUP1 SWAP2 SUB SWAP1 REVERT JUMPDEST PUSH1 0x1 PUSH1 0x2 PUSH1 0x1 ADD PUSH1 0x14 PUSH2 0x100 EXP DUP2 SLOAD DUP2 PUSH1 0xFF MUL NOT AND SWAP1 DUP4 ISZERO ISZERO MUL OR SWAP1 SSTORE POP PUSH2 0x655 CALLER PUSH1 0x2 PUSH2 0x8EB JUMP JUMPDEST POP PUSH1 0x1 SWAP1 POP SWAP1 JUMP JUMPDEST PUSH2 0x665 PUSH2 0xAB4 JUMP JUMPDEST CALLER PUSH20 0xFFFFFFFFFFFFFFFFFFFFFFFFFFFFFFFFFFFFFFFF AND PUSH1 0x2 PUSH1 0x1 ADD PUSH1 0x0 SWAP1 SLOAD SWAP1 PUSH2 0x100 EXP SWAP1 DIV PUSH20 0xFFFFFFFFFFFFFFFFFFFFFFFFFFFFFFFFFFFFFFFF AND PUSH20 0xFFFFFFFFFFFFFFFFFFFFFFFFFFFFFFFFFFFFFFFF AND EQ DUP1 PUSH2 0x714 JUMPI POP CALLER PUSH20 0xFFFFFFFFFFFFFFFFFFFFFFFFFFFFFFFFFFFFFFFF AND PUSH1 0x0 PUSH1 0x1 ADD PUSH1 0x0 SWAP1 SLOAD SWAP1 PUSH2 0x100 EXP SWAP1 DIV PUSH20 0xFFFFFFFFFFFFFFFFFFFFFFFFFFFFFFFFFFFFFFFF AND PUSH20 0xFFFFFFFFFFFFFFFFFFFFFFFFFFFFFFFFFFFFFFFF AND EQ JUMPDEST PUSH2 0x753 JUMPI PUSH1 0x40 MLOAD PUSH32 0x8C379A000000000000000000000000000000000000000000000000000000000 DUP2 MSTORE PUSH1 0x4 ADD PUSH2 0x74A SWAP1 PUSH2 0x1065 JUMP JUMPDEST PUSH1 0x40 MLOAD DUP1 SWAP2 SUB SWAP1 REVERT JUMPDEST PUSH1 0x4 PUSH1 0x0 DUP4 PUSH20 0xFFFFFFFFFFFFFFFFFFFFFFFFFFFFFFFFFFFFFFFF AND PUSH20 0xFFFFFFFFFFFFFFFFFFFFFFFFFFFFFFFFFFFFFFFF AND DUP2 MSTORE PUSH1 0x20 ADD SWAP1 DUP2 MSTORE PUSH1 0x20 ADD PUSH1 0x0 KECCAK256 PUSH1 0x40 MLOAD DUP1 PUSH1 0x60 ADD PUSH1 0x40 MSTORE SWAP1 DUP2 PUSH1 0x0 DUP3 ADD DUP1 SLOAD PUSH2 0x7AD SWAP1 PUSH2 0x11B2 JUMP JUMPDEST DUP1 PUSH1 0x1F ADD PUSH1 0x20 DUP1 SWAP2 DIV MUL PUSH1 0x20 ADD PUSH1 0x40 MLOAD SWAP1 DUP2 ADD PUSH1 0x40 MSTORE DUP1 SWAP3 SWAP2 SWAP1 DUP2 DUP2 MSTORE PUSH1 0x20 ADD DUP3 DUP1 SLOAD PUSH2 0x7D9 SWAP1 PUSH2 0x11B2 JUMP JUMPDEST DUP1 ISZERO PUSH2 0x826 JUMPI DUP1 PUSH1 0x1F LT PUSH2 0x7FB JUMPI PUSH2 0x100 DUP1 DUP4 SLOAD DIV MUL DUP4 MSTORE SWAP2 PUSH1 0x20 ADD SWAP2 PUSH2 0x826 JUMP JUMPDEST DUP3 ADD SWAP2 SWAP1 PUSH1 0x0 MSTORE PUSH1 0x20 PUSH1 0x0 KECCAK256 SWAP1 JUMPDEST DUP2 SLOAD DUP2 MSTORE SWAP1 PUSH1 0x1 ADD SWAP1 PUSH1 0x20 ADD DUP1 DUP4 GT PUSH2 0x809 JUMPI DUP3 SWAP1 SUB PUSH1 0x1F AND DUP3 ADD SWAP2 JUMPDEST POP POP POP POP POP DUP2 MSTORE PUSH1 0x20 ADD PUSH1 0x1 DUP3 ADD PUSH1 0x0 SWAP1 SLOAD SWAP1 PUSH2 0x100 EXP SWAP1 DIV PUSH20 0xFFFFFFFFFFFFFFFFFFFFFFFFFFFFFFFFFFFFFFFF AND PUSH20 0xFFFFFFFFFFFFFFFFFFFFFFFFFFFFFFFFFFFFFFFF AND PUSH20 0xFFFFFFFFFFFFFFFFFFFFFFFFFFFFFFFFFFFFFFFF AND DUP2 MSTORE PUSH1 0x20 ADD PUSH1 0x1 DUP3 ADD PUSH1 0x14 SWAP1 SLOAD SWAP1 PUSH2 0x100 EXP SWAP1 DIV PUSH1 0xFF AND ISZERO ISZERO ISZERO ISZERO DUP2 MSTORE POP POP SWAP1 POP SWAP2 SWAP1 POP JUMP JUMPDEST PUSH2 0x8AF PUSH2 0xAB4 JUMP JUMPDEST PUSH1 0x40 MLOAD DUP1 PUSH1 0x60 ADD PUSH1 0x40 MSTORE DUP1 DUP6 DUP2 MSTORE PUSH1 0x20 ADD DUP5 PUSH20 0xFFFFFFFFFFFFFFFFFFFFFFFFFFFFFFFFFFFFFFFF AND DUP2 MSTORE PUSH1 0x20 ADD DUP4 ISZERO ISZERO DUP2 MSTORE POP SWAP1 POP SWAP4 SWAP3 POP POP POP JUMP JUMPDEST PUSH1 0x0 DUP2 PUSH1 0x4 PUSH1 0x0 DUP6 PUSH20 0xFFFFFFFFFFFFFFFFFFFFFFFFFFFFFFFFFFFFFFFF AND PUSH20 0xFFFFFFFFFFFFFFFFFFFFFFFFFFFFFFFFFFFFFFFF AND DUP2 MSTORE PUSH1 0x20 ADD SWAP1 DUP2 MSTORE PUSH1 0x20 ADD PUSH1 0x0 KECCAK256 PUSH1 0x0 DUP3 ADD DUP2 PUSH1 0x0 ADD SWAP1 DUP1 SLOAD PUSH2 0x941 SWAP1 PUSH2 0x11B2 JUMP JUMPDEST PUSH2 0x94C SWAP3 SWAP2 SWAP1 PUSH2 0xAED JUMP JUMPDEST POP PUSH1 0x1 DUP3 ADD PUSH1 0x0 SWAP1 SLOAD SWAP1 PUSH2 0x100 EXP SWAP1 DIV PUSH20 0xFFFFFFFFFFFFFFFFFFFFFFFFFFFFFFFFFFFFFFFF AND DUP2 PUSH1 0x1 ADD PUSH1 0x0 PUSH2 0x100 EXP DUP2 SLOAD DUP2 PUSH20 0xFFFFFFFFFFFFFFFFFFFFFFFFFFFFFFFFFFFFFFFF MUL NOT AND SWAP1 DUP4 PUSH20 0xFFFFFFFFFFFFFFFFFFFFFFFFFFFFFFFFFFFFFFFF AND MUL OR SWAP1 SSTORE POP PUSH1 0x1 DUP3 ADD PUSH1 0x14 SWAP1 SLOAD SWAP1 PUSH2 0x100 EXP SWAP1 DIV PUSH1 0xFF AND DUP2 PUSH1 0x1 ADD PUSH1 0x14 PUSH2 0x100 EXP DUP2 SLOAD DUP2 PUSH1 0xFF MUL NOT AND SWAP1 DUP4 ISZERO ISZERO MUL OR SWAP1 SSTORE POP SWAP1 POP POP PUSH1 0x1 SWAP1 POP SWAP3 SWAP2 POP POP JUMP JUMPDEST POP DUP1 SLOAD PUSH2 0x9FA SWAP1 PUSH2 0x11B2 JUMP JUMPDEST PUSH1 0x0 DUP3 SSTORE DUP1 PUSH1 0x1F LT PUSH2 0xA0C JUMPI POP PUSH2 0xA2B JUMP JUMPDEST PUSH1 0x1F ADD PUSH1 0x20 SWAP1 DIV SWAP1 PUSH1 0x0 MSTORE PUSH1 0x20 PUSH1 0x0 KECCAK256 SWAP1 DUP2 ADD SWAP1 PUSH2 0xA2A SWAP2 SWAP1 PUSH2 0xB7A JUMP JUMPDEST JUMPDEST POP JUMP JUMPDEST DUP3 DUP1 SLOAD PUSH2 0xA3A SWAP1 PUSH2 0x11B2 JUMP JUMPDEST SWAP1 PUSH1 0x0 MSTORE PUSH1 0x20 PUSH1 0x0 KECCAK256 SWAP1 PUSH1 0x1F ADD PUSH1 0x20 SWAP1 DIV DUP2 ADD SWAP3 DUP3 PUSH2 0xA5C JUMPI PUSH1 0x0 DUP6 SSTORE PUSH2 0xAA3 JUMP JUMPDEST DUP3 PUSH1 0x1F LT PUSH2 0xA75 JUMPI DUP1 MLOAD PUSH1 0xFF NOT AND DUP4 DUP1 ADD OR DUP6 SSTORE PUSH2 0xAA3 JUMP JUMPDEST DUP3 DUP1 ADD PUSH1 0x1 ADD DUP6 SSTORE DUP3 ISZERO PUSH2 0xAA3 JUMPI SWAP2 DUP3 ADD JUMPDEST DUP3 DUP2 GT ISZERO PUSH2 0xAA2 JUMPI DUP3 MLOAD DUP3 SSTORE SWAP2 PUSH1 0x20 ADD SWAP2 SWAP1 PUSH1 0x1 ADD SWAP1 PUSH2 0xA87 JUMP JUMPDEST JUMPDEST POP SWAP1 POP PUSH2 0xAB0 SWAP2 SWAP1 PUSH2 0xB7A JUMP JUMPDEST POP SWAP1 JUMP JUMPDEST PUSH1 0x40 MLOAD DUP1 PUSH1 0x60 ADD PUSH1 0x40 MSTORE DUP1 PUSH1 0x60 DUP2 MSTORE PUSH1 0x20 ADD PUSH1 0x0 PUSH20 0xFFFFFFFFFFFFFFFFFFFFFFFFFFFFFFFFFFFFFFFF AND DUP2 MSTORE PUSH1 0x20 ADD PUSH1 0x0 ISZERO ISZERO DUP2 MSTORE POP SWAP1 JUMP JUMPDEST DUP3 DUP1 SLOAD PUSH2 0xAF9 SWAP1 PUSH2 0x11B2 JUMP JUMPDEST SWAP1 PUSH1 0x0 MSTORE PUSH1 0x20 PUSH1 0x0 KECCAK256 SWAP1 PUSH1 0x1F ADD PUSH1 0x20 SWAP1 DIV DUP2 ADD SWAP3 DUP3 PUSH2 0xB1B JUMPI PUSH1 0x0 DUP6 SSTORE PUSH2 0xB69 JUMP JUMPDEST DUP3 PUSH1 0x1F LT PUSH2 0xB2C JUMPI DUP1 SLOAD DUP6 SSTORE PUSH2 0xB69 JUMP JUMPDEST DUP3 DUP1 ADD PUSH1 0x1 ADD DUP6 SSTORE DUP3 ISZERO PUSH2 0xB69 JUMPI PUSH1 0x0 MSTORE PUSH1 0x20 PUSH1 0x0 KECCAK256 SWAP2 PUSH1 0x1F ADD PUSH1 0x20 SWAP1 DIV DUP3 ADD JUMPDEST DUP3 DUP2 GT ISZERO PUSH2 0xB68 JUMPI DUP3 SLOAD DUP3 SSTORE SWAP2 PUSH1 0x1 ADD SWAP2 SWAP1 PUSH1 0x1 ADD SWAP1 PUSH2 0xB4D JUMP JUMPDEST JUMPDEST POP SWAP1 POP PUSH2 0xB76 SWAP2 SWAP1 PUSH2 0xB7A JUMP JUMPDEST POP SWAP1 JUMP JUMPDEST JUMPDEST DUP1 DUP3 GT ISZERO PUSH2 0xB93 JUMPI PUSH1 0x0 DUP2 PUSH1 0x0 SWAP1 SSTORE POP PUSH1 0x1 ADD PUSH2 0xB7B JUMP JUMPDEST POP SWAP1 JUMP JUMPDEST PUSH1 0x0 PUSH1 0x40 MLOAD SWAP1 POP SWAP1 JUMP JUMPDEST PUSH1 0x0 DUP1 REVERT JUMPDEST PUSH1 0x0 DUP1 REVERT JUMPDEST PUSH1 0x0 DUP1 REVERT JUMPDEST PUSH1 0x0 DUP1 REVERT JUMPDEST PUSH1 0x0 PUSH1 0x1F NOT PUSH1 0x1F DUP4 ADD AND SWAP1 POP SWAP2 SWAP1 POP JUMP JUMPDEST PUSH32 0x4E487B7100000000000000000000000000000000000000000000000000000000 PUSH1 0x0 MSTORE PUSH1 0x41 PUSH1 0x4 MSTORE PUSH1 0x24 PUSH1 0x0 REVERT JUMPDEST PUSH2 0xBFE DUP3 PUSH2 0xBB5 JUMP JUMPDEST DUP2 ADD DUP2 DUP2 LT PUSH8 0xFFFFFFFFFFFFFFFF DUP3 GT OR ISZERO PUSH2 0xC1D JUMPI PUSH2 0xC1C PUSH2 0xBC6 JUMP JUMPDEST JUMPDEST DUP1 PUSH1 0x40 MSTORE POP POP POP JUMP JUMPDEST PUSH1 0x0 PUSH2 0xC30 PUSH2 0xB97 JUMP JUMPDEST SWAP1 POP PUSH2 0xC3C DUP3 DUP3 PUSH2 0xBF5 JUMP JUMPDEST SWAP2 SWAP1 POP JUMP JUMPDEST PUSH1 0x0 PUSH8 0xFFFFFFFFFFFFFFFF DUP3 GT ISZERO PUSH2 0xC5C JUMPI PUSH2 0xC5B PUSH2 0xBC6 JUMP JUMPDEST JUMPDEST PUSH2 0xC65 DUP3 PUSH2 0xBB5 JUMP JUMPDEST SWAP1 POP PUSH1 0x20 DUP2 ADD SWAP1 POP SWAP2 SWAP1 POP JUMP JUMPDEST DUP3 DUP2 DUP4 CALLDATACOPY PUSH1 0x0 DUP4 DUP4 ADD MSTORE POP POP POP JUMP JUMPDEST PUSH1 0x0 PUSH2 0xC94 PUSH2 0xC8F DUP5 PUSH2 0xC41 JUMP JUMPDEST PUSH2 0xC26 JUMP JUMPDEST SWAP1 POP DUP3 DUP2 MSTORE PUSH1 0x20 DUP2 ADD DUP5 DUP5 DUP5 ADD GT ISZERO PUSH2 0xCB0 JUMPI PUSH2 0xCAF PUSH2 0xBB0 JUMP JUMPDEST JUMPDEST PUSH2 0xCBB DUP5 DUP3 DUP6 PUSH2 0xC72 JUMP JUMPDEST POP SWAP4 SWAP3 POP POP POP JUMP JUMPDEST PUSH1 0x0 DUP3 PUSH1 0x1F DUP4 ADD SLT PUSH2 0xCD8 JUMPI PUSH2 0xCD7 PUSH2 0xBAB JUMP JUMPDEST JUMPDEST DUP2 CALLDATALOAD PUSH2 0xCE8 DUP5 DUP3 PUSH1 0x20 DUP7 ADD PUSH2 0xC81 JUMP JUMPDEST SWAP2 POP POP SWAP3 SWAP2 POP POP JUMP JUMPDEST PUSH1 0x0 PUSH20 0xFFFFFFFFFFFFFFFFFFFFFFFFFFFFFFFFFFFFFFFF DUP3 AND SWAP1 POP SWAP2 SWAP1 POP JUMP JUMPDEST PUSH1 0x0 PUSH2 0xD1C DUP3 PUSH2 0xCF1 JUMP JUMPDEST SWAP1 POP SWAP2 SWAP1 POP JUMP JUMPDEST PUSH2 0xD2C DUP2 PUSH2 0xD11 JUMP JUMPDEST DUP2 EQ PUSH2 0xD37 JUMPI PUSH1 0x0 DUP1 REVERT JUMPDEST POP JUMP JUMPDEST PUSH1 0x0 DUP2 CALLDATALOAD SWAP1 POP PUSH2 0xD49 DUP2 PUSH2 0xD23 JUMP JUMPDEST SWAP3 SWAP2 POP POP JUMP JUMPDEST PUSH1 0x0 DUP1 PUSH1 0x40 DUP4 DUP6 SUB SLT ISZERO PUSH2 0xD66 JUMPI PUSH2 0xD65 PUSH2 0xBA1 JUMP JUMPDEST JUMPDEST PUSH1 0x0 DUP4 ADD CALLDATALOAD PUSH8 0xFFFFFFFFFFFFFFFF DUP2 GT ISZERO PUSH2 0xD84 JUMPI PUSH2 0xD83 PUSH2 0xBA6 JUMP JUMPDEST JUMPDEST PUSH2 0xD90 DUP6 DUP3 DUP7 ADD PUSH2 0xCC3 JUMP JUMPDEST SWAP3 POP POP PUSH1 0x20 PUSH2 0xDA1 DUP6 DUP3 DUP7 ADD PUSH2 0xD3A JUMP JUMPDEST SWAP2 POP POP SWAP3 POP SWAP3 SWAP1 POP JUMP JUMPDEST PUSH1 0x0 DUP2 ISZERO ISZERO SWAP1 POP SWAP2 SWAP1 POP JUMP JUMPDEST PUSH2 0xDC0 DUP2 PUSH2 0xDAB JUMP JUMPDEST DUP3 MSTORE POP POP JUMP JUMPDEST PUSH1 0x0 PUSH1 0x20 DUP3 ADD SWAP1 POP PUSH2 0xDDB PUSH1 0x0 DUP4 ADD DUP5 PUSH2 0xDB7 JUMP JUMPDEST SWAP3 SWAP2 POP POP JUMP JUMPDEST PUSH2 0xDEA DUP2 PUSH2 0xD11 JUMP JUMPDEST DUP3 MSTORE POP POP JUMP JUMPDEST PUSH1 0x0 PUSH1 0x20 DUP3 ADD SWAP1 POP PUSH2 0xE05 PUSH1 0x0 DUP4 ADD DUP5 PUSH2 0xDE1 JUMP JUMPDEST SWAP3 SWAP2 POP POP JUMP JUMPDEST PUSH1 0x0 PUSH1 0x20 DUP3 DUP5 SUB SLT ISZERO PUSH2 0xE21 JUMPI PUSH2 0xE20 PUSH2 0xBA1 JUMP JUMPDEST JUMPDEST PUSH1 0x0 PUSH2 0xE2F DUP5 DUP3 DUP6 ADD PUSH2 0xD3A JUMP JUMPDEST SWAP2 POP POP SWAP3 SWAP2 POP POP JUMP JUMPDEST PUSH1 0x0 DUP2 MLOAD SWAP1 POP SWAP2 SWAP1 POP JUMP JUMPDEST PUSH1 0x0 DUP3 DUP3 MSTORE PUSH1 0x20 DUP3 ADD SWAP1 POP SWAP3 SWAP2 POP POP JUMP JUMPDEST PUSH1 0x0 JUMPDEST DUP4 DUP2 LT ISZERO PUSH2 0xE72 JUMPI DUP1 DUP3 ADD MLOAD DUP2 DUP5 ADD MSTORE PUSH1 0x20 DUP2 ADD SWAP1 POP PUSH2 0xE57 JUMP JUMPDEST DUP4 DUP2 GT ISZERO PUSH2 0xE81 JUMPI PUSH1 0x0 DUP5 DUP5 ADD MSTORE JUMPDEST POP POP POP POP JUMP JUMPDEST PUSH1 0x0 PUSH2 0xE92 DUP3 PUSH2 0xE38 JUMP JUMPDEST PUSH2 0xE9C DUP2 DUP6 PUSH2 0xE43 JUMP JUMPDEST SWAP4 POP PUSH2 0xEAC DUP2 DUP6 PUSH1 0x20 DUP7 ADD PUSH2 0xE54 JUMP JUMPDEST PUSH2 0xEB5 DUP2 PUSH2 0xBB5 JUMP JUMPDEST DUP5 ADD SWAP2 POP POP SWAP3 SWAP2 POP POP JUMP JUMPDEST PUSH2 0xEC9 DUP2 PUSH2 0xD11 JUMP JUMPDEST DUP3 MSTORE POP POP JUMP JUMPDEST PUSH2 0xED8 DUP2 PUSH2 0xDAB JUMP JUMPDEST DUP3 MSTORE POP POP JUMP JUMPDEST PUSH1 0x0 PUSH1 0x60 DUP4 ADD PUSH1 0x0 DUP4 ADD MLOAD DUP5 DUP3 SUB PUSH1 0x0 DUP7 ADD MSTORE PUSH2 0xEFB DUP3 DUP3 PUSH2 0xE87 JUMP JUMPDEST SWAP2 POP POP PUSH1 0x20 DUP4 ADD MLOAD PUSH2 0xF10 PUSH1 0x20 DUP7 ADD DUP3 PUSH2 0xEC0 JUMP JUMPDEST POP PUSH1 0x40 DUP4 ADD MLOAD PUSH2 0xF23 PUSH1 0x40 DUP7 ADD DUP3 PUSH2 0xECF JUMP JUMPDEST POP DUP1 SWAP2 POP POP SWAP3 SWAP2 POP POP JUMP JUMPDEST PUSH1 0x0 PUSH1 0x20 DUP3 ADD SWAP1 POP DUP2 DUP2 SUB PUSH1 0x0 DUP4 ADD MSTORE PUSH2 0xF48 DUP2 DUP5 PUSH2 0xEDE JUMP JUMPDEST SWAP1 POP SWAP3 SWAP2 POP POP JUMP JUMPDEST PUSH1 0x0 DUP3 DUP3 MSTORE PUSH1 0x20 DUP3 ADD SWAP1 POP SWAP3 SWAP2 POP POP JUMP JUMPDEST PUSH32 0x4F6E6C79207468652070726F636573732063616E206578656375746520746869 PUSH1 0x0 DUP3 ADD MSTORE PUSH32 0x73206F7065726174696F6E000000000000000000000000000000000000000000 PUSH1 0x20 DUP3 ADD MSTORE POP JUMP JUMPDEST PUSH1 0x0 PUSH2 0xFBD PUSH1 0x2B DUP4 PUSH2 0xF50 JUMP JUMPDEST SWAP2 POP PUSH2 0xFC8 DUP3 PUSH2 0xF61 JUMP JUMPDEST PUSH1 0x40 DUP3 ADD SWAP1 POP SWAP2 SWAP1 POP JUMP JUMPDEST PUSH1 0x0 PUSH1 0x20 DUP3 ADD SWAP1 POP DUP2 DUP2 SUB PUSH1 0x0 DUP4 ADD MSTORE PUSH2 0xFEC DUP2 PUSH2 0xFB0 JUMP JUMPDEST SWAP1 POP SWAP2 SWAP1 POP JUMP JUMPDEST PUSH32 0x4F6E6C79207468652070726F63657373206F7220746865206170706C69636174 PUSH1 0x0 DUP3 ADD MSTORE PUSH32 0x696F6E2063616E20657865637574652074686973206F7065726174696F6E0000 PUSH1 0x20 DUP3 ADD MSTORE POP JUMP JUMPDEST PUSH1 0x0 PUSH2 0x104F PUSH1 0x3E DUP4 PUSH2 0xF50 JUMP JUMPDEST SWAP2 POP PUSH2 0x105A DUP3 PUSH2 0xFF3 JUMP JUMPDEST PUSH1 0x40 DUP3 ADD SWAP1 POP SWAP2 SWAP1 POP JUMP JUMPDEST PUSH1 0x0 PUSH1 0x20 DUP3 ADD SWAP1 POP DUP2 DUP2 SUB PUSH1 0x0 DUP4 ADD MSTORE PUSH2 0x107E DUP2 PUSH2 0x1042 JUMP JUMPDEST SWAP1 POP SWAP2 SWAP1 POP JUMP JUMPDEST PUSH32 0x4F6E6C7920746865206170706C69636174696F6E2063616E2065786563757465 PUSH1 0x0 DUP3 ADD MSTORE PUSH32 0x2074686973206F7065726174696F6E0000000000000000000000000000000000 PUSH1 0x20 DUP3 ADD MSTORE POP JUMP JUMPDEST PUSH1 0x0 PUSH2 0x10E1 PUSH1 0x2F DUP4 PUSH2 0xF50 JUMP JUMPDEST SWAP2 POP PUSH2 0x10EC DUP3 PUSH2 0x1085 JUMP JUMPDEST PUSH1 0x40 DUP3 ADD SWAP1 POP SWAP2 SWAP1 POP JUMP JUMPDEST PUSH1 0x0 PUSH1 0x20 DUP3 ADD SWAP1 POP DUP2 DUP2 SUB PUSH1 0x0 DUP4 ADD MSTORE PUSH2 0x1110 DUP2 PUSH2 0x10D4 JUMP JUMPDEST SWAP1 POP SWAP2 SWAP1 POP JUMP JUMPDEST PUSH32 0x54686520636F6E747261637420697320616C7265616479207369676E65640000 PUSH1 0x0 DUP3 ADD MSTORE POP JUMP JUMPDEST PUSH1 0x0 PUSH2 0x114D PUSH1 0x1E DUP4 PUSH2 0xF50 JUMP JUMPDEST SWAP2 POP PUSH2 0x1158 DUP3 PUSH2 0x1117 JUMP JUMPDEST PUSH1 0x20 DUP3 ADD SWAP1 POP SWAP2 SWAP1 POP JUMP JUMPDEST PUSH1 0x0 PUSH1 0x20 DUP3 ADD SWAP1 POP DUP2 DUP2 SUB PUSH1 0x0 DUP4 ADD MSTORE PUSH2 0x117C DUP2 PUSH2 0x1140 JUMP JUMPDEST SWAP1 POP SWAP2 SWAP1 POP JUMP JUMPDEST PUSH32 0x4E487B7100000000000000000000000000000000000000000000000000000000 PUSH1 0x0 MSTORE PUSH1 0x22 PUSH1 0x4 MSTORE PUSH1 0x24 PUSH1 0x0 REVERT JUMPDEST PUSH1 0x0 PUSH1 0x2 DUP3 DIV SWAP1 POP PUSH1 0x1 DUP3 AND DUP1 PUSH2 0x11CA JUMPI PUSH1 0x7F DUP3 AND SWAP2 POP JUMPDEST PUSH1 0x20 DUP3 LT DUP2 SUB PUSH2 0x11DD JUMPI PUSH2 0x11DC PUSH2 0x1183 JUMP JUMPDEST JUMPDEST POP SWAP2 SWAP1 POP JUMP INVALID LOG2 PUSH5 0x6970667358 0x22 SLT KECCAK256 PUSH22 0x1D7CBFE4F87418103B7E409582A97DFAEB67E30162AB SELFDESTRUCT 0x4D SIGNEXTEND PUSH27 0x1D928F327B64736F6C634300080D00330000000000000000000000 "
				},
				"gasEstimates": {
					"creation": {
						"codeDepositCost": "926600",
						"executionCost": "962",
						"totalCost": "927562"
					},
					"external": {
						"changeApplicationParty(string,address)": "infinite",
						"getApplicationAddress()": "6885",
						"getParty(address)": "infinite",
						"getProcessAddress()": "6907",
						"signContract()": "infinite"
					},
					"internal": {
						"updateMapParty(address,struct EAI.Party storage pointer)": "infinite"
					}
				},
				"methodIdentifiers": {
					"changeApplicationParty(string,address)": "5e744c6a",
					"getApplicationAddress()": "70d8915a",
					"getParty(address)": "fb6f8243",
					"getProcessAddress()": "85931911",
					"signContract()": "b8b4f1a0"
				}
			},
			"storageLayout": {
				"storage": [
					{
						"astId": 1964,
						"contract": "contracts/study-case-contracts/001-delivery-hiring/DeliveryHiringRO.sol:DeliveryHiring_RO",
						"label": "process",
						"offset": 0,
						"slot": "0",
						"type": "t_struct(Party)69_storage"
					},
					{
						"astId": 1967,
						"contract": "contracts/study-case-contracts/001-delivery-hiring/DeliveryHiringRO.sol:DeliveryHiring_RO",
						"label": "application",
						"offset": 0,
						"slot": "2",
						"type": "t_struct(Party)69_storage"
					},
					{
						"astId": 1972,
						"contract": "contracts/study-case-contracts/001-delivery-hiring/DeliveryHiringRO.sol:DeliveryHiring_RO",
						"label": "mapParty",
						"offset": 0,
						"slot": "4",
						"type": "t_mapping(t_address,t_struct(Party)69_storage)"
					},
					{
						"astId": 1974,
						"contract": "contracts/study-case-contracts/001-delivery-hiring/DeliveryHiringRO.sol:DeliveryHiring_RO",
						"label": "beginDate",
						"offset": 0,
						"slot": "5",
						"type": "t_uint32"
					},
					{
						"astId": 1976,
						"contract": "contracts/study-case-contracts/001-delivery-hiring/DeliveryHiringRO.sol:DeliveryHiring_RO",
						"label": "dueDate",
						"offset": 4,
						"slot": "5",
						"type": "t_uint32"
					}
				],
				"types": {
					"t_address": {
						"encoding": "inplace",
						"label": "address",
						"numberOfBytes": "20"
					},
					"t_bool": {
						"encoding": "inplace",
						"label": "bool",
						"numberOfBytes": "1"
					},
					"t_mapping(t_address,t_struct(Party)69_storage)": {
						"encoding": "mapping",
						"key": "t_address",
						"label": "mapping(address => struct EAI.Party)",
						"numberOfBytes": "32",
						"value": "t_struct(Party)69_storage"
					},
					"t_string_storage": {
						"encoding": "bytes",
						"label": "string",
						"numberOfBytes": "32"
					},
					"t_struct(Party)69_storage": {
						"encoding": "inplace",
						"label": "struct EAI.Party",
						"members": [
							{
								"astId": 64,
								"contract": "contracts/study-case-contracts/001-delivery-hiring/DeliveryHiringRO.sol:DeliveryHiring_RO",
								"label": "name",
								"offset": 0,
								"slot": "0",
								"type": "t_string_storage"
							},
							{
								"astId": 66,
								"contract": "contracts/study-case-contracts/001-delivery-hiring/DeliveryHiringRO.sol:DeliveryHiring_RO",
								"label": "walletAddress",
								"offset": 0,
								"slot": "1",
								"type": "t_address"
							},
							{
								"astId": 68,
								"contract": "contracts/study-case-contracts/001-delivery-hiring/DeliveryHiringRO.sol:DeliveryHiring_RO",
								"label": "aware",
								"offset": 20,
								"slot": "1",
								"type": "t_bool"
							}
						],
						"numberOfBytes": "64"
					},
					"t_uint32": {
						"encoding": "inplace",
						"label": "uint32",
						"numberOfBytes": "4"
					}
				}
			},
			"userdoc": {
				"kind": "user",
				"methods": {},
				"version": 1
			}
		}
	}
}