{
	"contracts/study-case-contracts/001-delivery-hiring/DeliveryHiring_O.sol": {
		"DeliveryHiring_O": {
			"abi": [
				{
					"inputs": [
						{
							"internalType": "address",
							"name": "_applicationWallet",
							"type": "address"
						}
					],
					"stateMutability": "nonpayable",
					"type": "constructor"
				},
				{
					"anonymous": false,
					"inputs": [
						{
							"indexed": false,
							"internalType": "string",
							"name": "_logMessage",
							"type": "string"
						}
					],
					"name": "failEvent",
					"type": "event"
				},
				{
					"anonymous": false,
					"inputs": [
						{
							"indexed": false,
							"internalType": "string",
							"name": "_logMessage",
							"type": "string"
						}
					],
					"name": "successEvent",
					"type": "event"
				},
				{
					"inputs": [
						{
							"internalType": "string",
							"name": "_name",
							"type": "string"
						},
						{
							"internalType": "address",
							"name": "_walletAddress",
							"type": "address"
						}
					],
					"name": "changeApplicationParty",
					"outputs": [
						{
							"internalType": "bool",
							"name": "",
							"type": "bool"
						}
					],
					"stateMutability": "nonpayable",
					"type": "function"
				},
				{
					"inputs": [],
					"name": "getApplicationAddress",
					"outputs": [
						{
							"internalType": "address",
							"name": "",
							"type": "address"
						}
					],
					"stateMutability": "view",
					"type": "function"
				},
				{
					"inputs": [
						{
							"internalType": "address",
							"name": "_walletAddress",
							"type": "address"
						}
					],
					"name": "getParty",
					"outputs": [
						{
							"components": [
								{
									"internalType": "string",
									"name": "name",
									"type": "string"
								},
								{
									"internalType": "address",
									"name": "walletAddress",
									"type": "address"
								},
								{
									"internalType": "bool",
									"name": "aware",
									"type": "bool"
								}
							],
							"internalType": "struct EAI.Party",
							"name": "",
							"type": "tuple"
						}
					],
					"stateMutability": "view",
					"type": "function"
				},
				{
					"inputs": [],
					"name": "getProcessAddress",
					"outputs": [
						{
							"internalType": "address",
							"name": "",
							"type": "address"
						}
					],
					"stateMutability": "view",
					"type": "function"
				},
				{
					"inputs": [
						{
							"internalType": "uint32",
							"name": "_accessDateTime",
							"type": "uint32"
						}
					],
					"name": "onlyForTest",
					"outputs": [],
					"stateMutability": "nonpayable",
					"type": "function"
				},
				{
					"inputs": [
						{
							"internalType": "uint32",
							"name": "_accessDateTime",
							"type": "uint32"
						},
						{
							"internalType": "string[]",
							"name": "_xPathContent",
							"type": "string[]"
						}
					],
					"name": "responderOrder",
					"outputs": [
						{
							"internalType": "bool",
							"name": "",
							"type": "bool"
						}
					],
					"stateMutability": "nonpayable",
					"type": "function"
				},
				{
					"inputs": [],
					"name": "signContract",
					"outputs": [
						{
							"internalType": "bool",
							"name": "",
							"type": "bool"
						}
					],
					"stateMutability": "nonpayable",
					"type": "function"
				}
			],
			"devdoc": {
				"kind": "dev",
				"methods": {},
				"version": 1
			},
			"evm": {
				"assembly": "    /* \"contracts/study-case-contracts/001-delivery-hiring/DeliveryHiring_O.sol\":103:5429  contract DeliveryHiring_O{... */\n  mstore(0x40, 0x80)\n    /* \"contracts/study-case-contracts/001-delivery-hiring/DeliveryHiring_O.sol\":1034:1547  constructor(address _applicationWallet){... */\n  callvalue\n  dup1\n  iszero\n  tag_1\n  jumpi\n  0x00\n  dup1\n  revert\ntag_1:\n  pop\n  mload(0x40)\n  sub(codesize, bytecodeSize)\n  dup1\n  bytecodeSize\n  dup4\n  codecopy\n  dup2\n  dup2\n  add\n  0x40\n  mstore\n  dup2\n  add\n  swap1\n  tag_2\n  swap2\n  swap1\n  tag_3\n  jump\t// in\ntag_2:\n    /* \"contracts/study-case-contracts/001-delivery-hiring/DeliveryHiring_O.sol\":1091:1101  1672561800 */\n  0x63b14488\n    /* \"contracts/study-case-contracts/001-delivery-hiring/DeliveryHiring_O.sol\":1079:1088  beginDate */\n  0x05\n  0x00\n    /* \"contracts/study-case-contracts/001-delivery-hiring/DeliveryHiring_O.sol\":1079:1101  beginDate = 1672561800 */\n  0x0100\n  exp\n  dup2\n  sload\n  dup2\n  0xffffffff\n  mul\n  not\n  and\n  swap1\n  dup4\n  0xffffffff\n  and\n  mul\n  or\n  swap1\n  sstore\n  pop\n    /* \"contracts/study-case-contracts/001-delivery-hiring/DeliveryHiring_O.sol\":1119:1129  1704097800 */\n  0x65927808\n    /* \"contracts/study-case-contracts/001-delivery-hiring/DeliveryHiring_O.sol\":1109:1116  dueDate */\n  0x05\n  0x04\n    /* \"contracts/study-case-contracts/001-delivery-hiring/DeliveryHiring_O.sol\":1109:1129  dueDate = 1704097800 */\n  0x0100\n  exp\n  dup2\n  sload\n  dup2\n  0xffffffff\n  mul\n  not\n  and\n  swap1\n  dup4\n  0xffffffff\n  and\n  mul\n  or\n  swap1\n  sstore\n  pop\n    /* \"contracts/study-case-contracts/001-delivery-hiring/DeliveryHiring_O.sol\":1161:1217  EAI.createParty(\"Integration Process\", msg.sender, true) */\n  tag_6\n  mload(0x40)\n  dup1\n  0x40\n  add\n  0x40\n  mstore\n  dup1\n  0x13\n  dup2\n  mstore\n  0x20\n  add\n  0x496e746567726174696f6e2050726f6365737300000000000000000000000000\n  dup2\n  mstore\n  pop\n    /* \"contracts/study-case-contracts/001-delivery-hiring/DeliveryHiring_O.sol\":1200:1210  msg.sender */\n  caller\n    /* \"contracts/study-case-contracts/001-delivery-hiring/DeliveryHiring_O.sol\":1212:1216  true */\n  0x01\n    /* \"contracts/study-case-contracts/001-delivery-hiring/DeliveryHiring_O.sol\":1161:1176  EAI.createParty */\n  or(tag_0_42, shl(0x20, tag_7))\n    /* \"contracts/study-case-contracts/001-delivery-hiring/DeliveryHiring_O.sol\":1161:1217  EAI.createParty(\"Integration Process\", msg.sender, true) */\n  0x20\n  shr\n  jump\t// in\ntag_6:\n    /* \"contracts/study-case-contracts/001-delivery-hiring/DeliveryHiring_O.sol\":1151:1158  process */\n  0x00\n    /* \"contracts/study-case-contracts/001-delivery-hiring/DeliveryHiring_O.sol\":1151:1217  process = EAI.createParty(\"Integration Process\", msg.sender, true) */\n  dup1\n  dup3\n  add\n  mload\n  dup2\n  0x00\n  add\n  swap1\n  dup1\n  mload\n  swap1\n  0x20\n  add\n  swap1\n  tag_8\n  swap3\n  swap2\n  swap1\n  tag_9\n  jump\t// in\ntag_8:\n  pop\n  0x20\n  dup3\n  add\n  mload\n  dup2\n  0x01\n  add\n  exp(0x0100, 0x00)\n  dup2\n  sload\n  dup2\n  0xffffffffffffffffffffffffffffffffffffffff\n  mul\n  not\n  and\n  swap1\n  dup4\n  0xffffffffffffffffffffffffffffffffffffffff\n  and\n  mul\n  or\n  swap1\n  sstore\n  pop\n  0x40\n  dup3\n  add\n  mload\n  dup2\n  0x01\n  add\n  exp(0x0100, 0x14)\n  dup2\n  sload\n  dup2\n  0xff\n  mul\n  not\n  and\n  swap1\n  dup4\n  iszero\n  iszero\n  mul\n  or\n  swap1\n  sstore\n  pop\n  swap1\n  pop\n  pop\n    /* \"contracts/study-case-contracts/001-delivery-hiring/DeliveryHiring_O.sol\":1239:1300  EAI.createParty(\"Delivery System\", _applicationWallet, false) */\n  tag_10\n  mload(0x40)\n  dup1\n  0x40\n  add\n  0x40\n  mstore\n  dup1\n  0x0f\n  dup2\n  mstore\n  0x20\n  add\n  0x44656c69766572792053797374656d0000000000000000000000000000000000\n  dup2\n  mstore\n  pop\n    /* \"contracts/study-case-contracts/001-delivery-hiring/DeliveryHiring_O.sol\":1274:1292  _applicationWallet */\n  dup3\n    /* \"contracts/study-case-contracts/001-delivery-hiring/DeliveryHiring_O.sol\":1294:1299  false */\n  0x00\n    /* \"contracts/study-case-contracts/001-delivery-hiring/DeliveryHiring_O.sol\":1239:1254  EAI.createParty */\n  or(tag_0_42, shl(0x20, tag_7))\n    /* \"contracts/study-case-contracts/001-delivery-hiring/DeliveryHiring_O.sol\":1239:1300  EAI.createParty(\"Delivery System\", _applicationWallet, false) */\n  0x20\n  shr\n  jump\t// in\ntag_10:\n    /* \"contracts/study-case-contracts/001-delivery-hiring/DeliveryHiring_O.sol\":1225:1236  application */\n  0x02\n    /* \"contracts/study-case-contracts/001-delivery-hiring/DeliveryHiring_O.sol\":1225:1300  application = EAI.createParty(\"Delivery System\", _applicationWallet, false) */\n  0x00\n  dup3\n  add\n  mload\n  dup2\n  0x00\n  add\n  swap1\n  dup1\n  mload\n  swap1\n  0x20\n  add\n  swap1\n  tag_11\n  swap3\n  swap2\n  swap1\n  tag_9\n  jump\t// in\ntag_11:\n  pop\n  0x20\n  dup3\n  add\n  mload\n  dup2\n  0x01\n  add\n  exp(0x0100, 0x00)\n  dup2\n  sload\n  dup2\n  0xffffffffffffffffffffffffffffffffffffffff\n  mul\n  not\n  and\n  swap1\n  dup4\n  0xffffffffffffffffffffffffffffffffffffffff\n  and\n  mul\n  or\n  swap1\n  sstore\n  pop\n  0x40\n  dup3\n  add\n  mload\n  dup2\n  0x01\n  add\n  exp(0x0100, 0x14)\n  dup2\n  sload\n  dup2\n  0xff\n  mul\n  not\n  and\n  swap1\n  dup4\n  iszero\n  iszero\n  mul\n  or\n  swap1\n  sstore\n  pop\n  swap1\n  pop\n  pop\n    /* \"contracts/study-case-contracts/001-delivery-hiring/DeliveryHiring_O.sol\":1342:1349  process */\n  0x00\n    /* \"contracts/study-case-contracts/001-delivery-hiring/DeliveryHiring_O.sol\":1319:1327  mapParty */\n  0x04\n    /* \"contracts/study-case-contracts/001-delivery-hiring/DeliveryHiring_O.sol\":1319:1339  mapParty[msg.sender] */\n  0x00\n    /* \"contracts/study-case-contracts/001-delivery-hiring/DeliveryHiring_O.sol\":1328:1338  msg.sender */\n  caller\n    /* \"contracts/study-case-contracts/001-delivery-hiring/DeliveryHiring_O.sol\":1319:1339  mapParty[msg.sender] */\n  0xffffffffffffffffffffffffffffffffffffffff\n  and\n  0xffffffffffffffffffffffffffffffffffffffff\n  and\n  dup2\n  mstore\n  0x20\n  add\n  swap1\n  dup2\n  mstore\n  0x20\n  add\n  0x00\n  keccak256\n    /* \"contracts/study-case-contracts/001-delivery-hiring/DeliveryHiring_O.sol\":1319:1349  mapParty[msg.sender] = process */\n  0x00\n  dup3\n  add\n  dup2\n  0x00\n  add\n  swap1\n  dup1\n  sload\n  tag_12\n  swap1\n  tag_13\n  jump\t// in\ntag_12:\n  tag_14\n  swap3\n  swap2\n  swap1\n  tag_15\n  jump\t// in\ntag_14:\n  pop\n  0x01\n  dup3\n  add\n  0x00\n  swap1\n  sload\n  swap1\n  0x0100\n  exp\n  swap1\n  div\n  0xffffffffffffffffffffffffffffffffffffffff\n  and\n  dup2\n  0x01\n  add\n  exp(0x0100, 0x00)\n  dup2\n  sload\n  dup2\n  0xffffffffffffffffffffffffffffffffffffffff\n  mul\n  not\n  and\n  swap1\n  dup4\n  0xffffffffffffffffffffffffffffffffffffffff\n  and\n  mul\n  or\n  swap1\n  sstore\n  pop\n  0x01\n  dup3\n  add\n  0x14\n  swap1\n  sload\n  swap1\n  0x0100\n  exp\n  swap1\n  div\n  0xff\n  and\n  dup2\n  0x01\n  add\n  exp(0x0100, 0x14)\n  dup2\n  sload\n  dup2\n  0xff\n  mul\n  not\n  and\n  swap1\n  dup4\n  iszero\n  iszero\n  mul\n  or\n  swap1\n  sstore\n  pop\n  swap1\n  pop\n  pop\n    /* \"contracts/study-case-contracts/001-delivery-hiring/DeliveryHiring_O.sol\":1391:1402  application */\n  0x02\n    /* \"contracts/study-case-contracts/001-delivery-hiring/DeliveryHiring_O.sol\":1360:1368  mapParty */\n  0x04\n    /* \"contracts/study-case-contracts/001-delivery-hiring/DeliveryHiring_O.sol\":1360:1388  mapParty[_applicationWallet] */\n  0x00\n    /* \"contracts/study-case-contracts/001-delivery-hiring/DeliveryHiring_O.sol\":1369:1387  _applicationWallet */\n  dup4\n    /* \"contracts/study-case-contracts/001-delivery-hiring/DeliveryHiring_O.sol\":1360:1388  mapParty[_applicationWallet] */\n  0xffffffffffffffffffffffffffffffffffffffff\n  and\n  0xffffffffffffffffffffffffffffffffffffffff\n  and\n  dup2\n  mstore\n  0x20\n  add\n  swap1\n  dup2\n  mstore\n  0x20\n  add\n  0x00\n  keccak256\n    /* \"contracts/study-case-contracts/001-delivery-hiring/DeliveryHiring_O.sol\":1360:1402  mapParty[_applicationWallet] = application */\n  0x00\n  dup3\n  add\n  dup2\n  0x00\n  add\n  swap1\n  dup1\n  sload\n  tag_16\n  swap1\n  tag_13\n  jump\t// in\ntag_16:\n  tag_17\n  swap3\n  swap2\n  swap1\n  tag_15\n  jump\t// in\ntag_17:\n  pop\n  0x01\n  dup3\n  add\n  0x00\n  swap1\n  sload\n  swap1\n  0x0100\n  exp\n  swap1\n  div\n  0xffffffffffffffffffffffffffffffffffffffff\n  and\n  dup2\n  0x01\n  add\n  exp(0x0100, 0x00)\n  dup2\n  sload\n  dup2\n  0xffffffffffffffffffffffffffffffffffffffff\n  mul\n  not\n  and\n  swap1\n  dup4\n  0xffffffffffffffffffffffffffffffffffffffff\n  and\n  mul\n  or\n  swap1\n  sstore\n  pop\n  0x01\n  dup3\n  add\n  0x14\n  swap1\n  sload\n  swap1\n  0x0100\n  exp\n  swap1\n  div\n  0xff\n  and\n  dup2\n  0x01\n  add\n  exp(0x0100, 0x14)\n  dup2\n  sload\n  dup2\n  0xff\n  mul\n  not\n  and\n  swap1\n  dup4\n  iszero\n  iszero\n  mul\n  or\n  swap1\n  sstore\n  pop\n  swap1\n  pop\n  pop\n    /* \"contracts/study-case-contracts/001-delivery-hiring/DeliveryHiring_O.sol\":1409:1416  timeout */\n  0x06\n    /* \"contracts/study-case-contracts/001-delivery-hiring/DeliveryHiring_O.sol\":1422:1443  EAI.createTimeout(40) */\n  tag_18\n    /* \"contracts/study-case-contracts/001-delivery-hiring/DeliveryHiring_O.sol\":1440:1442  40 */\n  0x28\n    /* \"contracts/study-case-contracts/001-delivery-hiring/DeliveryHiring_O.sol\":1422:1439  EAI.createTimeout */\n  or(tag_0_43, shl(0x20, tag_19))\n    /* \"contracts/study-case-contracts/001-delivery-hiring/DeliveryHiring_O.sol\":1422:1443  EAI.createTimeout(40) */\n  0x20\n  shr\n  jump\t// in\ntag_18:\n    /* \"contracts/study-case-contracts/001-delivery-hiring/DeliveryHiring_O.sol\":1409:1444  timeout.push(EAI.createTimeout(40)) */\n  swap1\n  dup1\n  0x01\n  dup2\n  sload\n  add\n  dup1\n  dup3\n  sstore\n  dup1\n  swap2\n  pop\n  pop\n  0x01\n  swap1\n  sub\n  swap1\n  0x00\n  mstore\n  keccak256(0x00, 0x20)\n  add\n  0x00\n  swap1\n  swap2\n  swap1\n  swap2\n  swap1\n  swap2\n  pop\n  0x00\n  dup3\n  add\n  mload\n  dup2\n  0x00\n  add\n  exp(0x0100, 0x00)\n  dup2\n  sload\n  dup2\n  0xffffffff\n  mul\n  not\n  and\n  swap1\n  dup4\n  0xffffffff\n  and\n  mul\n  or\n  swap1\n  sstore\n  pop\n  0x20\n  dup3\n  add\n  mload\n  dup2\n  0x00\n  add\n  exp(0x0100, 0x04)\n  dup2\n  sload\n  dup2\n  0xffffffff\n  mul\n  not\n  and\n  swap1\n  dup4\n  0xffffffff\n  and\n  mul\n  or\n  swap1\n  sstore\n  pop\n  pop\n  pop\n    /* \"contracts/study-case-contracts/001-delivery-hiring/DeliveryHiring_O.sol\":1457:1471  messageContent */\n  0x07\n    /* \"contracts/study-case-contracts/001-delivery-hiring/DeliveryHiring_O.sol\":1477:1533  EAI.createMessageContent(\"//budget/id/text()\", \"!=\", \"\") */\n  tag_21\n  mload(0x40)\n  dup1\n  0x40\n  add\n  0x40\n  mstore\n  dup1\n  0x12\n  dup2\n  mstore\n  0x20\n  add\n  0x2f2f6275646765742f69642f7465787428290000000000000000000000000000\n  dup2\n  mstore\n  pop\n  mload(0x40)\n  dup1\n  0x40\n  add\n  0x40\n  mstore\n  dup1\n  0x02\n  dup2\n  mstore\n  0x20\n  add\n  0x213d000000000000000000000000000000000000000000000000000000000000\n  dup2\n  mstore\n  pop\n  mload(0x40)\n  dup1\n  0x20\n  add\n  0x40\n  mstore\n  dup1\n  0x00\n  dup2\n  mstore\n  pop\n    /* \"contracts/study-case-contracts/001-delivery-hiring/DeliveryHiring_O.sol\":1477:1501  EAI.createMessageContent */\n  or(tag_0_44, shl(0x20, tag_22))\n    /* \"contracts/study-case-contracts/001-delivery-hiring/DeliveryHiring_O.sol\":1477:1533  EAI.createMessageContent(\"//budget/id/text()\", \"!=\", \"\") */\n  0x20\n  shr\n  jump\t// in\ntag_21:\n    /* \"contracts/study-case-contracts/001-delivery-hiring/DeliveryHiring_O.sol\":1457:1534  messageContent.push(EAI.createMessageContent(\"//budget/id/text()\", \"!=\", \"\")) */\n  swap1\n  dup1\n  0x01\n  dup2\n  sload\n  add\n  dup1\n  dup3\n  sstore\n  dup1\n  swap2\n  pop\n  pop\n  0x01\n  swap1\n  sub\n  swap1\n  0x00\n  mstore\n  keccak256(0x00, 0x20)\n  swap1\n  0x03\n  mul\n  add\n  0x00\n  swap1\n  swap2\n  swap1\n  swap2\n  swap1\n  swap2\n  pop\n  0x00\n  dup3\n  add\n  mload\n  dup2\n  0x00\n  add\n  swap1\n  dup1\n  mload\n  swap1\n  0x20\n  add\n  swap1\n  tag_24\n  swap3\n  swap2\n  swap1\n  tag_9\n  jump\t// in\ntag_24:\n  pop\n  0x20\n  dup3\n  add\n  mload\n  dup2\n  0x01\n  add\n  swap1\n  dup1\n  mload\n  swap1\n  0x20\n  add\n  swap1\n  tag_25\n  swap3\n  swap2\n  swap1\n  tag_9\n  jump\t// in\ntag_25:\n  pop\n  0x40\n  dup3\n  add\n  mload\n  dup2\n  0x02\n  add\n  swap1\n  dup1\n  mload\n  swap1\n  0x20\n  add\n  swap1\n  tag_26\n  swap3\n  swap2\n  swap1\n  tag_9\n  jump\t// in\ntag_26:\n  pop\n  pop\n  pop\n    /* \"contracts/study-case-contracts/001-delivery-hiring/DeliveryHiring_O.sol\":1034:1547  constructor(address _applicationWallet){... */\n  pop\n    /* \"contracts/study-case-contracts/001-delivery-hiring/DeliveryHiring_O.sol\":103:5429  contract DeliveryHiring_O{... */\n  jump(tag_27)\n    /* \"contracts/lib/eai/EAI.sol\":1591:1767  function createParty(string memory _name, address _walletAddress, bool _aware) internal pure returns(Party memory){... */\ntag_7:\n    /* \"contracts/lib/eai/EAI.sol\":1692:1704  Party memory */\n  tag_28\n  tag_29\n  jump\t// in\ntag_28:\n    /* \"contracts/lib/eai/EAI.sol\":1723:1759  Party(_name, _walletAddress, _aware) */\n  mload(0x40)\n  dup1\n  0x60\n  add\n  0x40\n  mstore\n  dup1\n    /* \"contracts/lib/eai/EAI.sol\":1729:1734  _name */\n  dup6\n    /* \"contracts/lib/eai/EAI.sol\":1723:1759  Party(_name, _walletAddress, _aware) */\n  dup2\n  mstore\n  0x20\n  add\n    /* \"contracts/lib/eai/EAI.sol\":1736:1750  _walletAddress */\n  dup5\n    /* \"contracts/lib/eai/EAI.sol\":1723:1759  Party(_name, _walletAddress, _aware) */\n  0xffffffffffffffffffffffffffffffffffffffff\n  and\n  dup2\n  mstore\n  0x20\n  add\n    /* \"contracts/lib/eai/EAI.sol\":1752:1758  _aware */\n  dup4\n    /* \"contracts/lib/eai/EAI.sol\":1723:1759  Party(_name, _walletAddress, _aware) */\n  iszero\n  iszero\n  dup2\n  mstore\n  pop\n    /* \"contracts/lib/eai/EAI.sol\":1716:1759  return Party(_name, _walletAddress, _aware) */\n  swap1\n  pop\n    /* \"contracts/lib/eai/EAI.sol\":1591:1767  function createParty(string memory _name, address _walletAddress, bool _aware) internal pure returns(Party memory){... */\n  swap4\n  swap3\n  pop\n  pop\n  pop\n  jump\t// out\n    /* \"contracts/lib/eai/EAI.sol\":8321:8458  function createTimeout(uint32 _timeIncrement) internal pure returns (Timeout memory ){... */\ntag_19:\n    /* \"contracts/lib/eai/EAI.sol\":8390:8404  Timeout memory */\n  tag_31\n  tag_32\n  jump\t// in\ntag_31:\n    /* \"contracts/lib/eai/EAI.sol\":8424:8450  Timeout(0, _timeIncrement) */\n  mload(0x40)\n  dup1\n  0x40\n  add\n  0x40\n  mstore\n  dup1\n    /* \"contracts/lib/eai/EAI.sol\":8432:8433  0 */\n  0x00\n    /* \"contracts/lib/eai/EAI.sol\":8424:8450  Timeout(0, _timeIncrement) */\n  0xffffffff\n  and\n  dup2\n  mstore\n  0x20\n  add\n    /* \"contracts/lib/eai/EAI.sol\":8435:8449  _timeIncrement */\n  dup4\n    /* \"contracts/lib/eai/EAI.sol\":8424:8450  Timeout(0, _timeIncrement) */\n  0xffffffff\n  and\n  dup2\n  mstore\n  pop\n    /* \"contracts/lib/eai/EAI.sol\":8417:8450  return Timeout(0, _timeIncrement) */\n  swap1\n  pop\n    /* \"contracts/lib/eai/EAI.sol\":8321:8458  function createTimeout(uint32 _timeIncrement) internal pure returns (Timeout memory ){... */\n  swap2\n  swap1\n  pop\n  jump\t// out\n    /* \"contracts/lib/eai/EAI.sol\":13428:13793  function createMessageContent(string memory _xpath, string memory _op, string memory _content ) internal pure returns(MessageContent_String memory){... */\ntag_22:\n    /* \"contracts/lib/eai/EAI.sol\":13546:13574  MessageContent_String memory */\n  tag_34\n  tag_35\n  jump\t// in\ntag_34:\n    /* \"contracts/lib/eai/EAI.sol\":13586:13597  bytes1 char */\n  0x00\n    /* \"contracts/lib/eai/EAI.sol\":13606:13609  _op */\n  dup4\n    /* \"contracts/lib/eai/EAI.sol\":13611:13612  0 */\n  0x00\n    /* \"contracts/lib/eai/EAI.sol\":13600:13613  bytes(_op)[0] */\n  dup2\n  mload\n  dup2\n  lt\n  tag_37\n  jumpi\n  tag_38\n  tag_39\n  jump\t// in\ntag_38:\ntag_37:\n  0x20\n  add\n  add\n  mload\n  0xf8\n  shr\n  0xf8\n  shl\n    /* \"contracts/lib/eai/EAI.sol\":13586:13613  bytes1 char = bytes(_op)[0] */\n  swap1\n  pop\n    /* \"contracts/lib/eai/EAI.sol\":13641:13645  0x21 */\n  0x21\n    /* \"contracts/lib/eai/EAI.sol\":13633:13645  char == 0x21 */\n  0xf8\n  shl\n    /* \"contracts/lib/eai/EAI.sol\":13633:13637  char */\n  dup2\n    /* \"contracts/lib/eai/EAI.sol\":13633:13645  char == 0x21 */\n  not(0xffffffffffffffffffffffffffffffffffffffffffffffffffffffffffffff)\n  and\n  eq\n    /* \"contracts/lib/eai/EAI.sol\":13633:13661  char == 0x21 || char == 0x3D */\n  dup1\n  tag_40\n  jumpi\n  pop\n    /* \"contracts/lib/eai/EAI.sol\":13657:13661  0x3D */\n  0x3d\n    /* \"contracts/lib/eai/EAI.sol\":13649:13661  char == 0x3D */\n  0xf8\n  shl\n    /* \"contracts/lib/eai/EAI.sol\":13649:13653  char */\n  dup2\n    /* \"contracts/lib/eai/EAI.sol\":13649:13661  char == 0x3D */\n  not(0xffffffffffffffffffffffffffffffffffffffffffffffffffffffffffffff)\n  and\n  eq\n    /* \"contracts/lib/eai/EAI.sol\":13633:13661  char == 0x21 || char == 0x3D */\ntag_40:\n    /* \"contracts/lib/eai/EAI.sol\":13624:13722  require((char == 0x21 || char == 0x3D) ,\"Only '!=' or '==' operators is allow to compare strings\") */\n  tag_41\n  jumpi\n  mload(0x40)\n  0x08c379a000000000000000000000000000000000000000000000000000000000\n  dup2\n  mstore\n  0x04\n  add\n  tag_42\n  swap1\n  tag_43\n  jump\t// in\ntag_42:\n  mload(0x40)\n  dup1\n  swap2\n  sub\n  swap1\n  revert\ntag_41:\n    /* \"contracts/lib/eai/EAI.sol\":13740:13784  MessageContent_String(_xpath, _op, _content) */\n  mload(0x40)\n  dup1\n  0x60\n  add\n  0x40\n  mstore\n  dup1\n    /* \"contracts/lib/eai/EAI.sol\":13762:13768  _xpath */\n  dup7\n    /* \"contracts/lib/eai/EAI.sol\":13740:13784  MessageContent_String(_xpath, _op, _content) */\n  dup2\n  mstore\n  0x20\n  add\n    /* \"contracts/lib/eai/EAI.sol\":13770:13773  _op */\n  dup6\n    /* \"contracts/lib/eai/EAI.sol\":13740:13784  MessageContent_String(_xpath, _op, _content) */\n  dup2\n  mstore\n  0x20\n  add\n    /* \"contracts/lib/eai/EAI.sol\":13775:13783  _content */\n  dup5\n    /* \"contracts/lib/eai/EAI.sol\":13740:13784  MessageContent_String(_xpath, _op, _content) */\n  dup2\n  mstore\n  pop\n    /* \"contracts/lib/eai/EAI.sol\":13733:13784  return MessageContent_String(_xpath, _op, _content) */\n  swap2\n  pop\n  pop\n    /* \"contracts/lib/eai/EAI.sol\":13428:13793  function createMessageContent(string memory _xpath, string memory _op, string memory _content ) internal pure returns(MessageContent_String memory){... */\n  swap4\n  swap3\n  pop\n  pop\n  pop\n  jump\t// out\n    /* \"contracts/study-case-contracts/001-delivery-hiring/DeliveryHiring_O.sol\":103:5429  contract DeliveryHiring_O{... */\ntag_9:\n  dup3\n  dup1\n  sload\n  tag_44\n  swap1\n  tag_13\n  jump\t// in\ntag_44:\n  swap1\n  0x00\n  mstore\n  keccak256(0x00, 0x20)\n  swap1\n  0x1f\n  add\n  0x20\n  swap1\n  div\n  dup2\n  add\n  swap3\n  dup3\n  tag_46\n  jumpi\n  0x00\n  dup6\n  sstore\n  jump(tag_45)\ntag_46:\n  dup3\n  0x1f\n  lt\n  tag_47\n  jumpi\n  dup1\n  mload\n  not(0xff)\n  and\n  dup4\n  dup1\n  add\n  or\n  dup6\n  sstore\n  jump(tag_45)\ntag_47:\n  dup3\n  dup1\n  add\n  0x01\n  add\n  dup6\n  sstore\n  dup3\n  iszero\n  tag_45\n  jumpi\n  swap2\n  dup3\n  add\ntag_48:\n  dup3\n  dup2\n  gt\n  iszero\n  tag_49\n  jumpi\n  dup3\n  mload\n  dup3\n  sstore\n  swap2\n  0x20\n  add\n  swap2\n  swap1\n  0x01\n  add\n  swap1\n  jump(tag_48)\ntag_49:\ntag_45:\n  pop\n  swap1\n  pop\n  tag_50\n  swap2\n  swap1\n  tag_51\n  jump\t// in\ntag_50:\n  pop\n  swap1\n  jump\t// out\ntag_15:\n  dup3\n  dup1\n  sload\n  tag_52\n  swap1\n  tag_13\n  jump\t// in\ntag_52:\n  swap1\n  0x00\n  mstore\n  keccak256(0x00, 0x20)\n  swap1\n  0x1f\n  add\n  0x20\n  swap1\n  div\n  dup2\n  add\n  swap3\n  dup3\n  tag_54\n  jumpi\n  0x00\n  dup6\n  sstore\n  jump(tag_53)\ntag_54:\n  dup3\n  0x1f\n  lt\n  tag_55\n  jumpi\n  dup1\n  sload\n  dup6\n  sstore\n  jump(tag_53)\ntag_55:\n  dup3\n  dup1\n  add\n  0x01\n  add\n  dup6\n  sstore\n  dup3\n  iszero\n  tag_53\n  jumpi\n  0x00\n  mstore\n  keccak256(0x00, 0x20)\n  swap2\n  0x1f\n  add\n  0x20\n  swap1\n  div\n  dup3\n  add\ntag_56:\n  dup3\n  dup2\n  gt\n  iszero\n  tag_57\n  jumpi\n  dup3\n  sload\n  dup3\n  sstore\n  swap2\n  0x01\n  add\n  swap2\n  swap1\n  0x01\n  add\n  swap1\n  jump(tag_56)\ntag_57:\ntag_53:\n  pop\n  swap1\n  pop\n  tag_58\n  swap2\n  swap1\n  tag_51\n  jump\t// in\ntag_58:\n  pop\n  swap1\n  jump\t// out\ntag_29:\n  mload(0x40)\n  dup1\n  0x60\n  add\n  0x40\n  mstore\n  dup1\n  0x60\n  dup2\n  mstore\n  0x20\n  add\n  and(0xffffffffffffffffffffffffffffffffffffffff, 0x00)\n  dup2\n  mstore\n  0x20\n  add\n  iszero(iszero(0x00))\n  dup2\n  mstore\n  pop\n  swap1\n  jump\t// out\ntag_32:\n  mload(0x40)\n  dup1\n  0x40\n  add\n  0x40\n  mstore\n  dup1\n  and(0xffffffff, 0x00)\n  dup2\n  mstore\n  0x20\n  add\n  and(0xffffffff, 0x00)\n  dup2\n  mstore\n  pop\n  swap1\n  jump\t// out\ntag_35:\n  mload(0x40)\n  dup1\n  0x60\n  add\n  0x40\n  mstore\n  dup1\n  0x60\n  dup2\n  mstore\n  0x20\n  add\n  0x60\n  dup2\n  mstore\n  0x20\n  add\n  0x60\n  dup2\n  mstore\n  pop\n  swap1\n  jump\t// out\ntag_51:\ntag_59:\n  dup1\n  dup3\n  gt\n  iszero\n  tag_60\n  jumpi\n  0x00\n  dup2\n  0x00\n  swap1\n  sstore\n  pop\n  0x01\n  add\n  jump(tag_59)\ntag_60:\n  pop\n  swap1\n  jump\t// out\n    /* \"#utility.yul\":88:205   */\ntag_62:\n    /* \"#utility.yul\":197:198   */\n  0x00\n    /* \"#utility.yul\":194:195   */\n  dup1\n    /* \"#utility.yul\":187:199   */\n  revert\n    /* \"#utility.yul\":334:460   */\ntag_64:\n    /* \"#utility.yul\":371:378   */\n  0x00\n    /* \"#utility.yul\":411:453   */\n  0xffffffffffffffffffffffffffffffffffffffff\n    /* \"#utility.yul\":404:409   */\n  dup3\n    /* \"#utility.yul\":400:454   */\n  and\n    /* \"#utility.yul\":389:454   */\n  swap1\n  pop\n    /* \"#utility.yul\":334:460   */\n  swap2\n  swap1\n  pop\n  jump\t// out\n    /* \"#utility.yul\":466:562   */\ntag_65:\n    /* \"#utility.yul\":503:510   */\n  0x00\n    /* \"#utility.yul\":532:556   */\n  tag_78\n    /* \"#utility.yul\":550:555   */\n  dup3\n    /* \"#utility.yul\":532:556   */\n  tag_64\n  jump\t// in\ntag_78:\n    /* \"#utility.yul\":521:556   */\n  swap1\n  pop\n    /* \"#utility.yul\":466:562   */\n  swap2\n  swap1\n  pop\n  jump\t// out\n    /* \"#utility.yul\":568:690   */\ntag_66:\n    /* \"#utility.yul\":641:665   */\n  tag_80\n    /* \"#utility.yul\":659:664   */\n  dup2\n    /* \"#utility.yul\":641:665   */\n  tag_65\n  jump\t// in\ntag_80:\n    /* \"#utility.yul\":634:639   */\n  dup2\n    /* \"#utility.yul\":631:666   */\n  eq\n    /* \"#utility.yul\":621:684   */\n  tag_81\n  jumpi\n    /* \"#utility.yul\":680:681   */\n  0x00\n    /* \"#utility.yul\":677:678   */\n  dup1\n    /* \"#utility.yul\":670:682   */\n  revert\n    /* \"#utility.yul\":621:684   */\ntag_81:\n    /* \"#utility.yul\":568:690   */\n  pop\n  jump\t// out\n    /* \"#utility.yul\":696:839   */\ntag_67:\n    /* \"#utility.yul\":753:758   */\n  0x00\n    /* \"#utility.yul\":784:790   */\n  dup2\n    /* \"#utility.yul\":778:791   */\n  mload\n    /* \"#utility.yul\":769:791   */\n  swap1\n  pop\n    /* \"#utility.yul\":800:833   */\n  tag_83\n    /* \"#utility.yul\":827:832   */\n  dup2\n    /* \"#utility.yul\":800:833   */\n  tag_66\n  jump\t// in\ntag_83:\n    /* \"#utility.yul\":696:839   */\n  swap3\n  swap2\n  pop\n  pop\n  jump\t// out\n    /* \"#utility.yul\":845:1196   */\ntag_3:\n    /* \"#utility.yul\":915:921   */\n  0x00\n    /* \"#utility.yul\":964:966   */\n  0x20\n    /* \"#utility.yul\":952:961   */\n  dup3\n    /* \"#utility.yul\":943:950   */\n  dup5\n    /* \"#utility.yul\":939:962   */\n  sub\n    /* \"#utility.yul\":935:967   */\n  slt\n    /* \"#utility.yul\":932:1051   */\n  iszero\n  tag_85\n  jumpi\n    /* \"#utility.yul\":970:1049   */\n  tag_86\n  tag_62\n  jump\t// in\ntag_86:\n    /* \"#utility.yul\":932:1051   */\ntag_85:\n    /* \"#utility.yul\":1090:1091   */\n  0x00\n    /* \"#utility.yul\":1115:1179   */\n  tag_87\n    /* \"#utility.yul\":1171:1178   */\n  dup5\n    /* \"#utility.yul\":1162:1168   */\n  dup3\n    /* \"#utility.yul\":1151:1160   */\n  dup6\n    /* \"#utility.yul\":1147:1169   */\n  add\n    /* \"#utility.yul\":1115:1179   */\n  tag_67\n  jump\t// in\ntag_87:\n    /* \"#utility.yul\":1105:1179   */\n  swap2\n  pop\n    /* \"#utility.yul\":1061:1189   */\n  pop\n    /* \"#utility.yul\":845:1196   */\n  swap3\n  swap2\n  pop\n  pop\n  jump\t// out\n    /* \"#utility.yul\":1202:1382   */\ntag_68:\n    /* \"#utility.yul\":1250:1327   */\n  0x4e487b7100000000000000000000000000000000000000000000000000000000\n    /* \"#utility.yul\":1247:1248   */\n  0x00\n    /* \"#utility.yul\":1240:1328   */\n  mstore\n    /* \"#utility.yul\":1347:1351   */\n  0x22\n    /* \"#utility.yul\":1344:1345   */\n  0x04\n    /* \"#utility.yul\":1337:1352   */\n  mstore\n    /* \"#utility.yul\":1371:1375   */\n  0x24\n    /* \"#utility.yul\":1368:1369   */\n  0x00\n    /* \"#utility.yul\":1361:1376   */\n  revert\n    /* \"#utility.yul\":1388:1708   */\ntag_13:\n    /* \"#utility.yul\":1432:1438   */\n  0x00\n    /* \"#utility.yul\":1469:1470   */\n  0x02\n    /* \"#utility.yul\":1463:1467   */\n  dup3\n    /* \"#utility.yul\":1459:1471   */\n  div\n    /* \"#utility.yul\":1449:1471   */\n  swap1\n  pop\n    /* \"#utility.yul\":1516:1517   */\n  0x01\n    /* \"#utility.yul\":1510:1514   */\n  dup3\n    /* \"#utility.yul\":1506:1518   */\n  and\n    /* \"#utility.yul\":1537:1555   */\n  dup1\n    /* \"#utility.yul\":1527:1608   */\n  tag_90\n  jumpi\n    /* \"#utility.yul\":1593:1597   */\n  0x7f\n    /* \"#utility.yul\":1585:1591   */\n  dup3\n    /* \"#utility.yul\":1581:1598   */\n  and\n    /* \"#utility.yul\":1571:1598   */\n  swap2\n  pop\n    /* \"#utility.yul\":1527:1608   */\ntag_90:\n    /* \"#utility.yul\":1655:1657   */\n  0x20\n    /* \"#utility.yul\":1647:1653   */\n  dup3\n    /* \"#utility.yul\":1644:1658   */\n  lt\n    /* \"#utility.yul\":1624:1642   */\n  dup2\n    /* \"#utility.yul\":1621:1659   */\n  sub\n    /* \"#utility.yul\":1618:1702   */\n  tag_91\n  jumpi\n    /* \"#utility.yul\":1674:1692   */\n  tag_92\n  tag_68\n  jump\t// in\ntag_92:\n    /* \"#utility.yul\":1618:1702   */\ntag_91:\n    /* \"#utility.yul\":1439:1708   */\n  pop\n    /* \"#utility.yul\":1388:1708   */\n  swap2\n  swap1\n  pop\n  jump\t// out\n    /* \"#utility.yul\":1714:1894   */\ntag_39:\n    /* \"#utility.yul\":1762:1839   */\n  0x4e487b7100000000000000000000000000000000000000000000000000000000\n    /* \"#utility.yul\":1759:1760   */\n  0x00\n    /* \"#utility.yul\":1752:1840   */\n  mstore\n    /* \"#utility.yul\":1859:1863   */\n  0x32\n    /* \"#utility.yul\":1856:1857   */\n  0x04\n    /* \"#utility.yul\":1849:1864   */\n  mstore\n    /* \"#utility.yul\":1883:1887   */\n  0x24\n    /* \"#utility.yul\":1880:1881   */\n  0x00\n    /* \"#utility.yul\":1873:1888   */\n  revert\n    /* \"#utility.yul\":1900:2069   */\ntag_69:\n    /* \"#utility.yul\":1984:1995   */\n  0x00\n    /* \"#utility.yul\":2018:2024   */\n  dup3\n    /* \"#utility.yul\":2013:2016   */\n  dup3\n    /* \"#utility.yul\":2006:2025   */\n  mstore\n    /* \"#utility.yul\":2058:2062   */\n  0x20\n    /* \"#utility.yul\":2053:2056   */\n  dup3\n    /* \"#utility.yul\":2049:2063   */\n  add\n    /* \"#utility.yul\":2034:2063   */\n  swap1\n  pop\n    /* \"#utility.yul\":1900:2069   */\n  swap3\n  swap2\n  pop\n  pop\n  jump\t// out\n    /* \"#utility.yul\":2075:2317   */\ntag_70:\n    /* \"#utility.yul\":2215:2249   */\n  0x4f6e6c792027213d27206f7220273d3d27206f70657261746f72732069732061\n    /* \"#utility.yul\":2211:2212   */\n  0x00\n    /* \"#utility.yul\":2203:2209   */\n  dup3\n    /* \"#utility.yul\":2199:2213   */\n  add\n    /* \"#utility.yul\":2192:2250   */\n  mstore\n    /* \"#utility.yul\":2284:2309   */\n  0x6c6c6f7720746f20636f6d7061726520737472696e6773000000000000000000\n    /* \"#utility.yul\":2279:2281   */\n  0x20\n    /* \"#utility.yul\":2271:2277   */\n  dup3\n    /* \"#utility.yul\":2267:2282   */\n  add\n    /* \"#utility.yul\":2260:2310   */\n  mstore\n    /* \"#utility.yul\":2075:2317   */\n  pop\n  jump\t// out\n    /* \"#utility.yul\":2323:2689   */\ntag_71:\n    /* \"#utility.yul\":2465:2468   */\n  0x00\n    /* \"#utility.yul\":2486:2553   */\n  tag_97\n    /* \"#utility.yul\":2550:2552   */\n  0x37\n    /* \"#utility.yul\":2545:2548   */\n  dup4\n    /* \"#utility.yul\":2486:2553   */\n  tag_69\n  jump\t// in\ntag_97:\n    /* \"#utility.yul\":2479:2553   */\n  swap2\n  pop\n    /* \"#utility.yul\":2562:2655   */\n  tag_98\n    /* \"#utility.yul\":2651:2654   */\n  dup3\n    /* \"#utility.yul\":2562:2655   */\n  tag_70\n  jump\t// in\ntag_98:\n    /* \"#utility.yul\":2680:2682   */\n  0x40\n    /* \"#utility.yul\":2675:2678   */\n  dup3\n    /* \"#utility.yul\":2671:2683   */\n  add\n    /* \"#utility.yul\":2664:2683   */\n  swap1\n  pop\n    /* \"#utility.yul\":2323:2689   */\n  swap2\n  swap1\n  pop\n  jump\t// out\n    /* \"#utility.yul\":2695:3114   */\ntag_43:\n    /* \"#utility.yul\":2861:2865   */\n  0x00\n    /* \"#utility.yul\":2899:2901   */\n  0x20\n    /* \"#utility.yul\":2888:2897   */\n  dup3\n    /* \"#utility.yul\":2884:2902   */\n  add\n    /* \"#utility.yul\":2876:2902   */\n  swap1\n  pop\n    /* \"#utility.yul\":2948:2957   */\n  dup2\n    /* \"#utility.yul\":2942:2946   */\n  dup2\n    /* \"#utility.yul\":2938:2958   */\n  sub\n    /* \"#utility.yul\":2934:2935   */\n  0x00\n    /* \"#utility.yul\":2923:2932   */\n  dup4\n    /* \"#utility.yul\":2919:2936   */\n  add\n    /* \"#utility.yul\":2912:2959   */\n  mstore\n    /* \"#utility.yul\":2976:3107   */\n  tag_100\n    /* \"#utility.yul\":3102:3106   */\n  dup2\n    /* \"#utility.yul\":2976:3107   */\n  tag_71\n  jump\t// in\ntag_100:\n    /* \"#utility.yul\":2968:3107   */\n  swap1\n  pop\n    /* \"#utility.yul\":2695:3114   */\n  swap2\n  swap1\n  pop\n  jump\t// out\n    /* \"contracts/study-case-contracts/001-delivery-hiring/DeliveryHiring_O.sol\":103:5429  contract DeliveryHiring_O{... */\ntag_27:\n  dataSize(sub_0)\n  dup1\n  dataOffset(sub_0)\n  0x00\n  codecopy\n  0x00\n  return\nstop\n\nsub_0: assembly {\n        /* \"contracts/study-case-contracts/001-delivery-hiring/DeliveryHiring_O.sol\":103:5429  contract DeliveryHiring_O{... */\n      mstore(0x40, 0x80)\n      callvalue\n      dup1\n      iszero\n      tag_1\n      jumpi\n      0x00\n      dup1\n      revert\n    tag_1:\n      pop\n      jumpi(tag_2, lt(calldatasize, 0x04))\n      shr(0xe0, calldataload(0x00))\n      dup1\n      0x70d8915a\n      gt\n      tag_10\n      jumpi\n      dup1\n      0x70d8915a\n      eq\n      tag_6\n      jumpi\n      dup1\n      0x85931911\n      eq\n      tag_7\n      jumpi\n      dup1\n      0xb8b4f1a0\n      eq\n      tag_8\n      jumpi\n      dup1\n      0xfb6f8243\n      eq\n      tag_9\n      jumpi\n      jump(tag_2)\n    tag_10:\n      dup1\n      0x7cb3ed\n      eq\n      tag_3\n      jumpi\n      dup1\n      0x1e900392\n      eq\n      tag_4\n      jumpi\n      dup1\n      0x5e744c6a\n      eq\n      tag_5\n      jumpi\n    tag_2:\n      0x00\n      dup1\n      revert\n        /* \"contracts/study-case-contracts/001-delivery-hiring/DeliveryHiring_O.sol\":1695:2369  function responderOrder(uint32 _accessDateTime, string[] memory _xPathContent) public onlyApplication() returns(bool){... */\n    tag_3:\n      tag_11\n      0x04\n      dup1\n      calldatasize\n      sub\n      dup2\n      add\n      swap1\n      tag_12\n      swap2\n      swap1\n      tag_13\n      jump\t// in\n    tag_12:\n      tag_14\n      jump\t// in\n    tag_11:\n      mload(0x40)\n      tag_15\n      swap2\n      swap1\n      tag_16\n      jump\t// in\n    tag_15:\n      mload(0x40)\n      dup1\n      swap2\n      sub\n      swap1\n      return\n        /* \"contracts/study-case-contracts/001-delivery-hiring/DeliveryHiring_O.sol\":1558:1690  function onlyForTest(uint32 _accessDateTime) public onlyProcess() {... */\n    tag_4:\n      tag_17\n      0x04\n      dup1\n      calldatasize\n      sub\n      dup2\n      add\n      swap1\n      tag_18\n      swap2\n      swap1\n      tag_19\n      jump\t// in\n    tag_18:\n      tag_20\n      jump\t// in\n    tag_17:\n      stop\n        /* \"contracts/study-case-contracts/001-delivery-hiring/DeliveryHiring_O.sol\":3506:3937  function changeApplicationParty(string memory _name, address _walletAddress) public returns(bool) {       ... */\n    tag_5:\n      tag_21\n      0x04\n      dup1\n      calldatasize\n      sub\n      dup2\n      add\n      swap1\n      tag_22\n      swap2\n      swap1\n      tag_23\n      jump\t// in\n    tag_22:\n      tag_24\n      jump\t// in\n    tag_21:\n      mload(0x40)\n      tag_25\n      swap2\n      swap1\n      tag_16\n      jump\t// in\n    tag_25:\n      mload(0x40)\n      dup1\n      swap2\n      sub\n      swap1\n      return\n        /* \"contracts/study-case-contracts/001-delivery-hiring/DeliveryHiring_O.sol\":4085:4217  function getApplicationAddress() public view onlyInvolvedParties returns(address){... */\n    tag_6:\n      tag_26\n      tag_27\n      jump\t// in\n    tag_26:\n      mload(0x40)\n      tag_28\n      swap2\n      swap1\n      tag_29\n      jump\t// in\n    tag_28:\n      mload(0x40)\n      dup1\n      swap2\n      sub\n      swap1\n      return\n        /* \"contracts/study-case-contracts/001-delivery-hiring/DeliveryHiring_O.sol\":3949:4073  function getProcessAddress() public view onlyInvolvedParties returns(address){... */\n    tag_7:\n      tag_30\n      tag_31\n      jump\t// in\n    tag_30:\n      mload(0x40)\n      tag_32\n      swap2\n      swap1\n      tag_29\n      jump\t// in\n    tag_32:\n      mload(0x40)\n      dup1\n      swap2\n      sub\n      swap1\n      return\n        /* \"contracts/study-case-contracts/001-delivery-hiring/DeliveryHiring_O.sol\":2907:3168  function signContract() public onlyApplication() returns(bool){... */\n    tag_8:\n      tag_33\n      tag_34\n      jump\t// in\n    tag_33:\n      mload(0x40)\n      tag_35\n      swap2\n      swap1\n      tag_16\n      jump\t// in\n    tag_35:\n      mload(0x40)\n      dup1\n      swap2\n      sub\n      swap1\n      return\n        /* \"contracts/study-case-contracts/001-delivery-hiring/DeliveryHiring_O.sol\":4225:4374  function getParty(address _walletAddress) public view onlyInvolvedParties returns(EAI.Party memory){... */\n    tag_9:\n      tag_36\n      0x04\n      dup1\n      calldatasize\n      sub\n      dup2\n      add\n      swap1\n      tag_37\n      swap2\n      swap1\n      tag_38\n      jump\t// in\n    tag_37:\n      tag_39\n      jump\t// in\n    tag_36:\n      mload(0x40)\n      tag_40\n      swap2\n      swap1\n      tag_41\n      jump\t// in\n    tag_40:\n      mload(0x40)\n      dup1\n      swap2\n      sub\n      swap1\n      return\n        /* \"contracts/study-case-contracts/001-delivery-hiring/DeliveryHiring_O.sol\":1695:2369  function responderOrder(uint32 _accessDateTime, string[] memory _xPathContent) public onlyApplication() returns(bool){... */\n    tag_14:\n        /* \"contracts/study-case-contracts/001-delivery-hiring/DeliveryHiring_O.sol\":1807:1811  bool */\n      0x00\n        /* \"contracts/study-case-contracts/001-delivery-hiring/DeliveryHiring_O.sol\":4747:4757  msg.sender */\n      caller\n        /* \"contracts/study-case-contracts/001-delivery-hiring/DeliveryHiring_O.sol\":4718:4757  application.walletAddress == msg.sender */\n      0xffffffffffffffffffffffffffffffffffffffff\n      and\n        /* \"contracts/study-case-contracts/001-delivery-hiring/DeliveryHiring_O.sol\":4718:4729  application */\n      0x02\n        /* \"contracts/study-case-contracts/001-delivery-hiring/DeliveryHiring_O.sol\":4718:4743  application.walletAddress */\n      0x01\n      add\n      0x00\n      swap1\n      sload\n      swap1\n      0x0100\n      exp\n      swap1\n      div\n      0xffffffffffffffffffffffffffffffffffffffff\n      and\n        /* \"contracts/study-case-contracts/001-delivery-hiring/DeliveryHiring_O.sol\":4718:4757  application.walletAddress == msg.sender */\n      0xffffffffffffffffffffffffffffffffffffffff\n      and\n      eq\n        /* \"contracts/study-case-contracts/001-delivery-hiring/DeliveryHiring_O.sol\":4710:4809  require(application.walletAddress == msg.sender, \"Only the application can execute this operation\") */\n      tag_46\n      jumpi\n      mload(0x40)\n      0x08c379a000000000000000000000000000000000000000000000000000000000\n      dup2\n      mstore\n      0x04\n      add\n      tag_47\n      swap1\n      tag_48\n      jump\t// in\n    tag_47:\n      mload(0x40)\n      dup1\n      swap2\n      sub\n      swap1\n      revert\n    tag_46:\n        /* \"contracts/study-case-contracts/001-delivery-hiring/DeliveryHiring_O.sol\":1890:1920  mapParty[msg.sender].isAware() */\n      tag_50\n        /* \"contracts/study-case-contracts/001-delivery-hiring/DeliveryHiring_O.sol\":1890:1898  mapParty */\n      0x04\n        /* \"contracts/study-case-contracts/001-delivery-hiring/DeliveryHiring_O.sol\":1890:1910  mapParty[msg.sender] */\n      0x00\n        /* \"contracts/study-case-contracts/001-delivery-hiring/DeliveryHiring_O.sol\":1899:1909  msg.sender */\n      caller\n        /* \"contracts/study-case-contracts/001-delivery-hiring/DeliveryHiring_O.sol\":1890:1910  mapParty[msg.sender] */\n      0xffffffffffffffffffffffffffffffffffffffff\n      and\n      0xffffffffffffffffffffffffffffffffffffffff\n      and\n      dup2\n      mstore\n      0x20\n      add\n      swap1\n      dup2\n      mstore\n      0x20\n      add\n      0x00\n      keccak256\n        /* \"contracts/study-case-contracts/001-delivery-hiring/DeliveryHiring_O.sol\":1890:1918  mapParty[msg.sender].isAware */\n      mload(0x40)\n      dup1\n      0x60\n      add\n      0x40\n      mstore\n      swap1\n      dup2\n      0x00\n      dup3\n      add\n      dup1\n      sload\n      tag_51\n      swap1\n      tag_52\n      jump\t// in\n    tag_51:\n      dup1\n      0x1f\n      add\n      0x20\n      dup1\n      swap2\n      div\n      mul\n      0x20\n      add\n      mload(0x40)\n      swap1\n      dup2\n      add\n      0x40\n      mstore\n      dup1\n      swap3\n      swap2\n      swap1\n      dup2\n      dup2\n      mstore\n      0x20\n      add\n      dup3\n      dup1\n      sload\n      tag_53\n      swap1\n      tag_52\n      jump\t// in\n    tag_53:\n      dup1\n      iszero\n      tag_54\n      jumpi\n      dup1\n      0x1f\n      lt\n      tag_55\n      jumpi\n      0x0100\n      dup1\n      dup4\n      sload\n      div\n      mul\n      dup4\n      mstore\n      swap2\n      0x20\n      add\n      swap2\n      jump(tag_54)\n    tag_55:\n      dup3\n      add\n      swap2\n      swap1\n      0x00\n      mstore\n      keccak256(0x00, 0x20)\n      swap1\n    tag_56:\n      dup2\n      sload\n      dup2\n      mstore\n      swap1\n      0x01\n      add\n      swap1\n      0x20\n      add\n      dup1\n      dup4\n      gt\n      tag_56\n      jumpi\n      dup3\n      swap1\n      sub\n      0x1f\n      and\n      dup3\n      add\n      swap2\n    tag_54:\n      pop\n      pop\n      pop\n      pop\n      pop\n      dup2\n      mstore\n      0x20\n      add\n      0x01\n      dup3\n      add\n      0x00\n      swap1\n      sload\n      swap1\n      0x0100\n      exp\n      swap1\n      div\n      0xffffffffffffffffffffffffffffffffffffffff\n      and\n      0xffffffffffffffffffffffffffffffffffffffff\n      and\n      0xffffffffffffffffffffffffffffffffffffffff\n      and\n      dup2\n      mstore\n      0x20\n      add\n      0x01\n      dup3\n      add\n      0x14\n      swap1\n      sload\n      swap1\n      0x0100\n      exp\n      swap1\n      div\n      0xff\n      and\n      iszero\n      iszero\n      iszero\n      iszero\n      dup2\n      mstore\n      pop\n      pop\n      tag_57\n        /* \"contracts/study-case-contracts/001-delivery-hiring/DeliveryHiring_O.sol\":1890:1920  mapParty[msg.sender].isAware() */\n      jump\t// in\n    tag_50:\n        /* \"contracts/study-case-contracts/001-delivery-hiring/DeliveryHiring_O.sol\":1882:1996  require(mapParty[msg.sender].isAware(), \"The Application party should sign the contract before interact with it.\") */\n      tag_58\n      jumpi\n      mload(0x40)\n      0x08c379a000000000000000000000000000000000000000000000000000000000\n      dup2\n      mstore\n      0x04\n      add\n      tag_59\n      swap1\n      tag_60\n      jump\t// in\n    tag_59:\n      mload(0x40)\n      dup1\n      swap2\n      sub\n      swap1\n      revert\n    tag_58:\n        /* \"contracts/study-case-contracts/001-delivery-hiring/DeliveryHiring_O.sol\":2018:2060  timeout[0].isTimeoutEnded(_accessDateTime) */\n      tag_61\n        /* \"contracts/study-case-contracts/001-delivery-hiring/DeliveryHiring_O.sol\":2044:2059  _accessDateTime */\n      dup4\n        /* \"contracts/study-case-contracts/001-delivery-hiring/DeliveryHiring_O.sol\":2018:2025  timeout */\n      0x06\n        /* \"contracts/study-case-contracts/001-delivery-hiring/DeliveryHiring_O.sol\":2026:2027  0 */\n      0x00\n        /* \"contracts/study-case-contracts/001-delivery-hiring/DeliveryHiring_O.sol\":2018:2028  timeout[0] */\n      dup2\n      sload\n      dup2\n      lt\n      tag_62\n      jumpi\n      tag_63\n      tag_64\n      jump\t// in\n    tag_63:\n    tag_62:\n      swap1\n      0x00\n      mstore\n      keccak256(0x00, 0x20)\n      add\n        /* \"contracts/study-case-contracts/001-delivery-hiring/DeliveryHiring_O.sol\":2018:2043  timeout[0].isTimeoutEnded */\n      mload(0x40)\n      dup1\n      0x40\n      add\n      0x40\n      mstore\n      swap1\n      dup2\n      0x00\n      dup3\n      add\n      0x00\n      swap1\n      sload\n      swap1\n      0x0100\n      exp\n      swap1\n      div\n      0xffffffff\n      and\n      0xffffffff\n      and\n      0xffffffff\n      and\n      dup2\n      mstore\n      0x20\n      add\n      0x00\n      dup3\n      add\n      0x04\n      swap1\n      sload\n      swap1\n      0x0100\n      exp\n      swap1\n      div\n      0xffffffff\n      and\n      0xffffffff\n      and\n      0xffffffff\n      and\n      dup2\n      mstore\n      pop\n      pop\n      tag_66\n      swap1\n        /* \"contracts/study-case-contracts/001-delivery-hiring/DeliveryHiring_O.sol\":2018:2060  timeout[0].isTimeoutEnded(_accessDateTime) */\n      swap2\n      swap1\n      0xffffffff\n      and\n      jump\t// in\n    tag_61:\n        /* \"contracts/study-case-contracts/001-delivery-hiring/DeliveryHiring_O.sol\":2017:2060  !timeout[0].isTimeoutEnded(_accessDateTime) */\n      iszero\n        /* \"contracts/study-case-contracts/001-delivery-hiring/DeliveryHiring_O.sol\":2017:2129  !timeout[0].isTimeoutEnded(_accessDateTime)  &&\t\t\t... */\n      dup1\n      iszero\n      tag_67\n      jumpi\n      pop\n        /* \"contracts/study-case-contracts/001-delivery-hiring/DeliveryHiring_O.sol\":2072:2129  messageContent[0].evaluateStringContent(_xPathContent[0]) */\n      tag_68\n        /* \"contracts/study-case-contracts/001-delivery-hiring/DeliveryHiring_O.sol\":2112:2125  _xPathContent */\n      dup3\n        /* \"contracts/study-case-contracts/001-delivery-hiring/DeliveryHiring_O.sol\":2126:2127  0 */\n      0x00\n        /* \"contracts/study-case-contracts/001-delivery-hiring/DeliveryHiring_O.sol\":2112:2128  _xPathContent[0] */\n      dup2\n      mload\n      dup2\n      lt\n      tag_69\n      jumpi\n      tag_70\n      tag_64\n      jump\t// in\n    tag_70:\n    tag_69:\n      0x20\n      mul\n      0x20\n      add\n      add\n      mload\n        /* \"contracts/study-case-contracts/001-delivery-hiring/DeliveryHiring_O.sol\":2072:2086  messageContent */\n      0x07\n        /* \"contracts/study-case-contracts/001-delivery-hiring/DeliveryHiring_O.sol\":2087:2088  0 */\n      0x00\n        /* \"contracts/study-case-contracts/001-delivery-hiring/DeliveryHiring_O.sol\":2072:2089  messageContent[0] */\n      dup2\n      sload\n      dup2\n      lt\n      tag_71\n      jumpi\n      tag_72\n      tag_64\n      jump\t// in\n    tag_72:\n    tag_71:\n      swap1\n      0x00\n      mstore\n      keccak256(0x00, 0x20)\n      swap1\n      0x03\n      mul\n      add\n        /* \"contracts/study-case-contracts/001-delivery-hiring/DeliveryHiring_O.sol\":2072:2111  messageContent[0].evaluateStringContent */\n      mload(0x40)\n      dup1\n      0x60\n      add\n      0x40\n      mstore\n      swap1\n      dup2\n      0x00\n      dup3\n      add\n      dup1\n      sload\n      tag_74\n      swap1\n      tag_52\n      jump\t// in\n    tag_74:\n      dup1\n      0x1f\n      add\n      0x20\n      dup1\n      swap2\n      div\n      mul\n      0x20\n      add\n      mload(0x40)\n      swap1\n      dup2\n      add\n      0x40\n      mstore\n      dup1\n      swap3\n      swap2\n      swap1\n      dup2\n      dup2\n      mstore\n      0x20\n      add\n      dup3\n      dup1\n      sload\n      tag_75\n      swap1\n      tag_52\n      jump\t// in\n    tag_75:\n      dup1\n      iszero\n      tag_76\n      jumpi\n      dup1\n      0x1f\n      lt\n      tag_77\n      jumpi\n      0x0100\n      dup1\n      dup4\n      sload\n      div\n      mul\n      dup4\n      mstore\n      swap2\n      0x20\n      add\n      swap2\n      jump(tag_76)\n    tag_77:\n      dup3\n      add\n      swap2\n      swap1\n      0x00\n      mstore\n      keccak256(0x00, 0x20)\n      swap1\n    tag_78:\n      dup2\n      sload\n      dup2\n      mstore\n      swap1\n      0x01\n      add\n      swap1\n      0x20\n      add\n      dup1\n      dup4\n      gt\n      tag_78\n      jumpi\n      dup3\n      swap1\n      sub\n      0x1f\n      and\n      dup3\n      add\n      swap2\n    tag_76:\n      pop\n      pop\n      pop\n      pop\n      pop\n      dup2\n      mstore\n      0x20\n      add\n      0x01\n      dup3\n      add\n      dup1\n      sload\n      tag_79\n      swap1\n      tag_52\n      jump\t// in\n    tag_79:\n      dup1\n      0x1f\n      add\n      0x20\n      dup1\n      swap2\n      div\n      mul\n      0x20\n      add\n      mload(0x40)\n      swap1\n      dup2\n      add\n      0x40\n      mstore\n      dup1\n      swap3\n      swap2\n      swap1\n      dup2\n      dup2\n      mstore\n      0x20\n      add\n      dup3\n      dup1\n      sload\n      tag_80\n      swap1\n      tag_52\n      jump\t// in\n    tag_80:\n      dup1\n      iszero\n      tag_81\n      jumpi\n      dup1\n      0x1f\n      lt\n      tag_82\n      jumpi\n      0x0100\n      dup1\n      dup4\n      sload\n      div\n      mul\n      dup4\n      mstore\n      swap2\n      0x20\n      add\n      swap2\n      jump(tag_81)\n    tag_82:\n      dup3\n      add\n      swap2\n      swap1\n      0x00\n      mstore\n      keccak256(0x00, 0x20)\n      swap1\n    tag_83:\n      dup2\n      sload\n      dup2\n      mstore\n      swap1\n      0x01\n      add\n      swap1\n      0x20\n      add\n      dup1\n      dup4\n      gt\n      tag_83\n      jumpi\n      dup3\n      swap1\n      sub\n      0x1f\n      and\n      dup3\n      add\n      swap2\n    tag_81:\n      pop\n      pop\n      pop\n      pop\n      pop\n      dup2\n      mstore\n      0x20\n      add\n      0x02\n      dup3\n      add\n      dup1\n      sload\n      tag_84\n      swap1\n      tag_52\n      jump\t// in\n    tag_84:\n      dup1\n      0x1f\n      add\n      0x20\n      dup1\n      swap2\n      div\n      mul\n      0x20\n      add\n      mload(0x40)\n      swap1\n      dup2\n      add\n      0x40\n      mstore\n      dup1\n      swap3\n      swap2\n      swap1\n      dup2\n      dup2\n      mstore\n      0x20\n      add\n      dup3\n      dup1\n      sload\n      tag_85\n      swap1\n      tag_52\n      jump\t// in\n    tag_85:\n      dup1\n      iszero\n      tag_86\n      jumpi\n      dup1\n      0x1f\n      lt\n      tag_87\n      jumpi\n      0x0100\n      dup1\n      dup4\n      sload\n      div\n      mul\n      dup4\n      mstore\n      swap2\n      0x20\n      add\n      swap2\n      jump(tag_86)\n    tag_87:\n      dup3\n      add\n      swap2\n      swap1\n      0x00\n      mstore\n      keccak256(0x00, 0x20)\n      swap1\n    tag_88:\n      dup2\n      sload\n      dup2\n      mstore\n      swap1\n      0x01\n      add\n      swap1\n      0x20\n      add\n      dup1\n      dup4\n      gt\n      tag_88\n      jumpi\n      dup3\n      swap1\n      sub\n      0x1f\n      and\n      dup3\n      add\n      swap2\n    tag_86:\n      pop\n      pop\n      pop\n      pop\n      pop\n      dup2\n      mstore\n      pop\n      pop\n      tag_89\n      swap1\n        /* \"contracts/study-case-contracts/001-delivery-hiring/DeliveryHiring_O.sol\":2072:2129  messageContent[0].evaluateStringContent(_xPathContent[0]) */\n      swap2\n      swap1\n      0xffffffff\n      and\n      jump\t// in\n    tag_68:\n        /* \"contracts/study-case-contracts/001-delivery-hiring/DeliveryHiring_O.sol\":2017:2129  !timeout[0].isTimeoutEnded(_accessDateTime)  &&\t\t\t... */\n    tag_67:\n        /* \"contracts/study-case-contracts/001-delivery-hiring/DeliveryHiring_O.sol\":2014:2251  if(!timeout[0].isTimeoutEnded(_accessDateTime)  &&\t\t\t... */\n      iszero\n      tag_90\n      jumpi\n        /* \"contracts/study-case-contracts/001-delivery-hiring/DeliveryHiring_O.sol\":2180:2217  successEvent(\"Successful execution!\") */\n      0x95a1f3a1dafdd4c1af344e3d7c69a72cbce8a3f15fe1cf95a7f5bd23df2e71a1\n      mload(0x40)\n      tag_91\n      swap1\n      tag_92\n      jump\t// in\n    tag_91:\n      mload(0x40)\n      dup1\n      swap2\n      sub\n      swap1\n      log1\n        /* \"contracts/study-case-contracts/001-delivery-hiring/DeliveryHiring_O.sol\":2237:2241  true */\n      0x01\n        /* \"contracts/study-case-contracts/001-delivery-hiring/DeliveryHiring_O.sol\":2230:2241  return true */\n      swap1\n      pop\n      jump(tag_49)\n        /* \"contracts/study-case-contracts/001-delivery-hiring/DeliveryHiring_O.sol\":2014:2251  if(!timeout[0].isTimeoutEnded(_accessDateTime)  &&\t\t\t... */\n    tag_90:\n        /* \"contracts/study-case-contracts/001-delivery-hiring/DeliveryHiring_O.sol\":2270:2347  failEvent(\"Request made outside of allowed hours or distance limit exceeded\") */\n      0x66091b7dc2b097c8f60d5cd6aa99633b097f08d2eb1056f3e15361b22e0ea2ba\n      mload(0x40)\n      tag_93\n      swap1\n      tag_94\n      jump\t// in\n    tag_93:\n      mload(0x40)\n      dup1\n      swap2\n      sub\n      swap1\n      log1\n        /* \"contracts/study-case-contracts/001-delivery-hiring/DeliveryHiring_O.sol\":2359:2364  false */\n      0x00\n        /* \"contracts/study-case-contracts/001-delivery-hiring/DeliveryHiring_O.sol\":2352:2364  return false */\n      swap1\n      pop\n        /* \"contracts/study-case-contracts/001-delivery-hiring/DeliveryHiring_O.sol\":4820:4821  _ */\n    tag_49:\n        /* \"contracts/study-case-contracts/001-delivery-hiring/DeliveryHiring_O.sol\":1695:2369  function responderOrder(uint32 _accessDateTime, string[] memory _xPathContent) public onlyApplication() returns(bool){... */\n      swap3\n      swap2\n      pop\n      pop\n      jump\t// out\n        /* \"contracts/study-case-contracts/001-delivery-hiring/DeliveryHiring_O.sol\":1558:1690  function onlyForTest(uint32 _accessDateTime) public onlyProcess() {... */\n    tag_20:\n        /* \"contracts/study-case-contracts/001-delivery-hiring/DeliveryHiring_O.sol\":4903:4913  msg.sender */\n      caller\n        /* \"contracts/study-case-contracts/001-delivery-hiring/DeliveryHiring_O.sol\":4878:4913  process.walletAddress == msg.sender */\n      0xffffffffffffffffffffffffffffffffffffffff\n      and\n        /* \"contracts/study-case-contracts/001-delivery-hiring/DeliveryHiring_O.sol\":4878:4885  process */\n      0x00\n        /* \"contracts/study-case-contracts/001-delivery-hiring/DeliveryHiring_O.sol\":4878:4899  process.walletAddress */\n      0x01\n      add\n      0x00\n      swap1\n      sload\n      swap1\n      0x0100\n      exp\n      swap1\n      div\n      0xffffffffffffffffffffffffffffffffffffffff\n      and\n        /* \"contracts/study-case-contracts/001-delivery-hiring/DeliveryHiring_O.sol\":4878:4913  process.walletAddress == msg.sender */\n      0xffffffffffffffffffffffffffffffffffffffff\n      and\n      eq\n        /* \"contracts/study-case-contracts/001-delivery-hiring/DeliveryHiring_O.sol\":4870:4961  require(process.walletAddress == msg.sender, \"Only the process can execute this operation\") */\n      tag_96\n      jumpi\n      mload(0x40)\n      0x08c379a000000000000000000000000000000000000000000000000000000000\n      dup2\n      mstore\n      0x04\n      add\n      tag_97\n      swap1\n      tag_98\n      jump\t// in\n    tag_97:\n      mload(0x40)\n      dup1\n      swap2\n      sub\n      swap1\n      revert\n    tag_96:\n        /* \"contracts/study-case-contracts/001-delivery-hiring/DeliveryHiring_O.sol\":1635:1682  timeout[0].setEndTimeInTimeout(_accessDateTime) */\n      tag_100\n        /* \"contracts/study-case-contracts/001-delivery-hiring/DeliveryHiring_O.sol\":1666:1681  _accessDateTime */\n      dup2\n        /* \"contracts/study-case-contracts/001-delivery-hiring/DeliveryHiring_O.sol\":1635:1642  timeout */\n      0x06\n        /* \"contracts/study-case-contracts/001-delivery-hiring/DeliveryHiring_O.sol\":1643:1644  0 */\n      0x00\n        /* \"contracts/study-case-contracts/001-delivery-hiring/DeliveryHiring_O.sol\":1635:1645  timeout[0] */\n      dup2\n      sload\n      dup2\n      lt\n      tag_101\n      jumpi\n      tag_102\n      tag_64\n      jump\t// in\n    tag_102:\n    tag_101:\n      swap1\n      0x00\n      mstore\n      keccak256(0x00, 0x20)\n      add\n        /* \"contracts/study-case-contracts/001-delivery-hiring/DeliveryHiring_O.sol\":1635:1665  timeout[0].setEndTimeInTimeout */\n      tag_104\n      swap1\n        /* \"contracts/study-case-contracts/001-delivery-hiring/DeliveryHiring_O.sol\":1635:1682  timeout[0].setEndTimeInTimeout(_accessDateTime) */\n      swap2\n      swap1\n      0xffffffff\n      and\n      jump\t// in\n    tag_100:\n        /* \"contracts/study-case-contracts/001-delivery-hiring/DeliveryHiring_O.sol\":1558:1690  function onlyForTest(uint32 _accessDateTime) public onlyProcess() {... */\n      pop\n      jump\t// out\n        /* \"contracts/study-case-contracts/001-delivery-hiring/DeliveryHiring_O.sol\":3506:3937  function changeApplicationParty(string memory _name, address _walletAddress) public returns(bool) {       ... */\n    tag_24:\n        /* \"contracts/study-case-contracts/001-delivery-hiring/DeliveryHiring_O.sol\":3598:3602  bool */\n      0x00\n        /* \"contracts/study-case-contracts/001-delivery-hiring/DeliveryHiring_O.sol\":3655:3665  msg.sender */\n      caller\n        /* \"contracts/study-case-contracts/001-delivery-hiring/DeliveryHiring_O.sol\":3630:3665  process.walletAddress == msg.sender */\n      0xffffffffffffffffffffffffffffffffffffffff\n      and\n        /* \"contracts/study-case-contracts/001-delivery-hiring/DeliveryHiring_O.sol\":3630:3637  process */\n      0x00\n        /* \"contracts/study-case-contracts/001-delivery-hiring/DeliveryHiring_O.sol\":3630:3651  process.walletAddress */\n      0x01\n      add\n      0x00\n      swap1\n      sload\n      swap1\n      0x0100\n      exp\n      swap1\n      div\n      0xffffffffffffffffffffffffffffffffffffffff\n      and\n        /* \"contracts/study-case-contracts/001-delivery-hiring/DeliveryHiring_O.sol\":3630:3665  process.walletAddress == msg.sender */\n      0xffffffffffffffffffffffffffffffffffffffff\n      and\n      eq\n        /* \"contracts/study-case-contracts/001-delivery-hiring/DeliveryHiring_O.sol\":3622:3713  require(process.walletAddress == msg.sender, \"Only the process can execute this operation\") */\n      tag_106\n      jumpi\n      mload(0x40)\n      0x08c379a000000000000000000000000000000000000000000000000000000000\n      dup2\n      mstore\n      0x04\n      add\n      tag_107\n      swap1\n      tag_98\n      jump\t// in\n    tag_107:\n      mload(0x40)\n      dup1\n      swap2\n      sub\n      swap1\n      revert\n    tag_106:\n        /* \"contracts/study-case-contracts/001-delivery-hiring/DeliveryHiring_O.sol\":3731:3739  mapParty */\n      0x04\n        /* \"contracts/study-case-contracts/001-delivery-hiring/DeliveryHiring_O.sol\":3731:3766  mapParty[application.walletAddress] */\n      0x00\n        /* \"contracts/study-case-contracts/001-delivery-hiring/DeliveryHiring_O.sol\":3740:3751  application */\n      0x02\n        /* \"contracts/study-case-contracts/001-delivery-hiring/DeliveryHiring_O.sol\":3740:3765  application.walletAddress */\n      0x01\n      add\n      0x00\n      swap1\n      sload\n      swap1\n      0x0100\n      exp\n      swap1\n      div\n      0xffffffffffffffffffffffffffffffffffffffff\n      and\n        /* \"contracts/study-case-contracts/001-delivery-hiring/DeliveryHiring_O.sol\":3731:3766  mapParty[application.walletAddress] */\n      0xffffffffffffffffffffffffffffffffffffffff\n      and\n      0xffffffffffffffffffffffffffffffffffffffff\n      and\n      dup2\n      mstore\n      0x20\n      add\n      swap1\n      dup2\n      mstore\n      0x20\n      add\n      0x00\n      keccak256\n      0x00\n        /* \"contracts/study-case-contracts/001-delivery-hiring/DeliveryHiring_O.sol\":3724:3766  delete mapParty[application.walletAddress] */\n      dup1\n      dup3\n      add\n      0x00\n      tag_108\n      swap2\n      swap1\n      tag_109\n      jump\t// in\n    tag_108:\n      0x01\n      dup3\n      add\n      exp(0x0100, 0x00)\n      dup2\n      sload\n      swap1\n      0xffffffffffffffffffffffffffffffffffffffff\n      mul\n      not\n      and\n      swap1\n      sstore\n      0x01\n      dup3\n      add\n      exp(0x0100, 0x14)\n      dup2\n      sload\n      swap1\n      0xff\n      mul\n      not\n      and\n      swap1\n      sstore\n      pop\n      pop\n        /* \"contracts/study-case-contracts/001-delivery-hiring/DeliveryHiring_O.sol\":3791:3836  EAI.createParty(_name, _walletAddress, false) */\n      tag_110\n        /* \"contracts/study-case-contracts/001-delivery-hiring/DeliveryHiring_O.sol\":3807:3812  _name */\n      dup4\n        /* \"contracts/study-case-contracts/001-delivery-hiring/DeliveryHiring_O.sol\":3814:3828  _walletAddress */\n      dup4\n        /* \"contracts/study-case-contracts/001-delivery-hiring/DeliveryHiring_O.sol\":3830:3835  false */\n      0x00\n        /* \"contracts/study-case-contracts/001-delivery-hiring/DeliveryHiring_O.sol\":3791:3806  EAI.createParty */\n      tag_42\n        /* \"contracts/study-case-contracts/001-delivery-hiring/DeliveryHiring_O.sol\":3791:3836  EAI.createParty(_name, _walletAddress, false) */\n      jump\t// in\n    tag_110:\n        /* \"contracts/study-case-contracts/001-delivery-hiring/DeliveryHiring_O.sol\":3777:3788  application */\n      0x02\n        /* \"contracts/study-case-contracts/001-delivery-hiring/DeliveryHiring_O.sol\":3777:3836  application = EAI.createParty(_name, _walletAddress, false) */\n      0x00\n      dup3\n      add\n      mload\n      dup2\n      0x00\n      add\n      swap1\n      dup1\n      mload\n      swap1\n      0x20\n      add\n      swap1\n      tag_111\n      swap3\n      swap2\n      swap1\n      tag_112\n      jump\t// in\n    tag_111:\n      pop\n      0x20\n      dup3\n      add\n      mload\n      dup2\n      0x01\n      add\n      exp(0x0100, 0x00)\n      dup2\n      sload\n      dup2\n      0xffffffffffffffffffffffffffffffffffffffff\n      mul\n      not\n      and\n      swap1\n      dup4\n      0xffffffffffffffffffffffffffffffffffffffff\n      and\n      mul\n      or\n      swap1\n      sstore\n      pop\n      0x40\n      dup3\n      add\n      mload\n      dup2\n      0x01\n      add\n      exp(0x0100, 0x14)\n      dup2\n      sload\n      dup2\n      0xff\n      mul\n      not\n      and\n      swap1\n      dup4\n      iszero\n      iszero\n      mul\n      or\n      swap1\n      sstore\n      pop\n      swap1\n      pop\n      pop\n        /* \"contracts/study-case-contracts/001-delivery-hiring/DeliveryHiring_O.sol\":3857:3900  updateMapParty(_walletAddress, application) */\n      tag_113\n        /* \"contracts/study-case-contracts/001-delivery-hiring/DeliveryHiring_O.sol\":3872:3886  _walletAddress */\n      dup3\n        /* \"contracts/study-case-contracts/001-delivery-hiring/DeliveryHiring_O.sol\":3888:3899  application */\n      0x02\n        /* \"contracts/study-case-contracts/001-delivery-hiring/DeliveryHiring_O.sol\":3857:3871  updateMapParty */\n      tag_114\n        /* \"contracts/study-case-contracts/001-delivery-hiring/DeliveryHiring_O.sol\":3857:3900  updateMapParty(_walletAddress, application) */\n      jump\t// in\n    tag_113:\n      pop\n        /* \"contracts/study-case-contracts/001-delivery-hiring/DeliveryHiring_O.sol\":3918:3922  true */\n      0x01\n        /* \"contracts/study-case-contracts/001-delivery-hiring/DeliveryHiring_O.sol\":3911:3922  return true */\n      swap1\n      pop\n        /* \"contracts/study-case-contracts/001-delivery-hiring/DeliveryHiring_O.sol\":3506:3937  function changeApplicationParty(string memory _name, address _walletAddress) public returns(bool) {       ... */\n      swap3\n      swap2\n      pop\n      pop\n      jump\t// out\n        /* \"contracts/study-case-contracts/001-delivery-hiring/DeliveryHiring_O.sol\":4085:4217  function getApplicationAddress() public view onlyInvolvedParties returns(address){... */\n    tag_27:\n        /* \"contracts/study-case-contracts/001-delivery-hiring/DeliveryHiring_O.sol\":4158:4165  address */\n      0x00\n        /* \"contracts/study-case-contracts/001-delivery-hiring/DeliveryHiring_O.sol\":5082:5092  msg.sender */\n      caller\n        /* \"contracts/study-case-contracts/001-delivery-hiring/DeliveryHiring_O.sol\":5053:5092  application.walletAddress == msg.sender */\n      0xffffffffffffffffffffffffffffffffffffffff\n      and\n        /* \"contracts/study-case-contracts/001-delivery-hiring/DeliveryHiring_O.sol\":5053:5064  application */\n      0x02\n        /* \"contracts/study-case-contracts/001-delivery-hiring/DeliveryHiring_O.sol\":5053:5078  application.walletAddress */\n      0x01\n      add\n      0x00\n      swap1\n      sload\n      swap1\n      0x0100\n      exp\n      swap1\n      div\n      0xffffffffffffffffffffffffffffffffffffffff\n      and\n        /* \"contracts/study-case-contracts/001-delivery-hiring/DeliveryHiring_O.sol\":5053:5092  application.walletAddress == msg.sender */\n      0xffffffffffffffffffffffffffffffffffffffff\n      and\n      eq\n        /* \"contracts/study-case-contracts/001-delivery-hiring/DeliveryHiring_O.sol\":5053:5131  application.walletAddress == msg.sender || process.walletAddress == msg.sender */\n      dup1\n      tag_116\n      jumpi\n      pop\n        /* \"contracts/study-case-contracts/001-delivery-hiring/DeliveryHiring_O.sol\":5121:5131  msg.sender */\n      caller\n        /* \"contracts/study-case-contracts/001-delivery-hiring/DeliveryHiring_O.sol\":5096:5131  process.walletAddress == msg.sender */\n      0xffffffffffffffffffffffffffffffffffffffff\n      and\n        /* \"contracts/study-case-contracts/001-delivery-hiring/DeliveryHiring_O.sol\":5096:5103  process */\n      0x00\n        /* \"contracts/study-case-contracts/001-delivery-hiring/DeliveryHiring_O.sol\":5096:5117  process.walletAddress */\n      0x01\n      add\n      0x00\n      swap1\n      sload\n      swap1\n      0x0100\n      exp\n      swap1\n      div\n      0xffffffffffffffffffffffffffffffffffffffff\n      and\n        /* \"contracts/study-case-contracts/001-delivery-hiring/DeliveryHiring_O.sol\":5096:5131  process.walletAddress == msg.sender */\n      0xffffffffffffffffffffffffffffffffffffffff\n      and\n      eq\n        /* \"contracts/study-case-contracts/001-delivery-hiring/DeliveryHiring_O.sol\":5053:5131  application.walletAddress == msg.sender || process.walletAddress == msg.sender */\n    tag_116:\n        /* \"contracts/study-case-contracts/001-delivery-hiring/DeliveryHiring_O.sol\":5030:5214  require(... */\n      tag_117\n      jumpi\n      mload(0x40)\n      0x08c379a000000000000000000000000000000000000000000000000000000000\n      dup2\n      mstore\n      0x04\n      add\n      tag_118\n      swap1\n      tag_119\n      jump\t// in\n    tag_118:\n      mload(0x40)\n      dup1\n      swap2\n      sub\n      swap1\n      revert\n    tag_117:\n        /* \"contracts/study-case-contracts/001-delivery-hiring/DeliveryHiring_O.sol\":4184:4195  application */\n      0x02\n        /* \"contracts/study-case-contracts/001-delivery-hiring/DeliveryHiring_O.sol\":4184:4209  application.walletAddress */\n      0x01\n      add\n      0x00\n      swap1\n      sload\n      swap1\n      0x0100\n      exp\n      swap1\n      div\n      0xffffffffffffffffffffffffffffffffffffffff\n      and\n        /* \"contracts/study-case-contracts/001-delivery-hiring/DeliveryHiring_O.sol\":4177:4209  return application.walletAddress */\n      swap1\n      pop\n        /* \"contracts/study-case-contracts/001-delivery-hiring/DeliveryHiring_O.sol\":4085:4217  function getApplicationAddress() public view onlyInvolvedParties returns(address){... */\n      swap1\n      jump\t// out\n        /* \"contracts/study-case-contracts/001-delivery-hiring/DeliveryHiring_O.sol\":3949:4073  function getProcessAddress() public view onlyInvolvedParties returns(address){... */\n    tag_31:\n        /* \"contracts/study-case-contracts/001-delivery-hiring/DeliveryHiring_O.sol\":4018:4025  address */\n      0x00\n        /* \"contracts/study-case-contracts/001-delivery-hiring/DeliveryHiring_O.sol\":5082:5092  msg.sender */\n      caller\n        /* \"contracts/study-case-contracts/001-delivery-hiring/DeliveryHiring_O.sol\":5053:5092  application.walletAddress == msg.sender */\n      0xffffffffffffffffffffffffffffffffffffffff\n      and\n        /* \"contracts/study-case-contracts/001-delivery-hiring/DeliveryHiring_O.sol\":5053:5064  application */\n      0x02\n        /* \"contracts/study-case-contracts/001-delivery-hiring/DeliveryHiring_O.sol\":5053:5078  application.walletAddress */\n      0x01\n      add\n      0x00\n      swap1\n      sload\n      swap1\n      0x0100\n      exp\n      swap1\n      div\n      0xffffffffffffffffffffffffffffffffffffffff\n      and\n        /* \"contracts/study-case-contracts/001-delivery-hiring/DeliveryHiring_O.sol\":5053:5092  application.walletAddress == msg.sender */\n      0xffffffffffffffffffffffffffffffffffffffff\n      and\n      eq\n        /* \"contracts/study-case-contracts/001-delivery-hiring/DeliveryHiring_O.sol\":5053:5131  application.walletAddress == msg.sender || process.walletAddress == msg.sender */\n      dup1\n      tag_122\n      jumpi\n      pop\n        /* \"contracts/study-case-contracts/001-delivery-hiring/DeliveryHiring_O.sol\":5121:5131  msg.sender */\n      caller\n        /* \"contracts/study-case-contracts/001-delivery-hiring/DeliveryHiring_O.sol\":5096:5131  process.walletAddress == msg.sender */\n      0xffffffffffffffffffffffffffffffffffffffff\n      and\n        /* \"contracts/study-case-contracts/001-delivery-hiring/DeliveryHiring_O.sol\":5096:5103  process */\n      0x00\n        /* \"contracts/study-case-contracts/001-delivery-hiring/DeliveryHiring_O.sol\":5096:5117  process.walletAddress */\n      0x01\n      add\n      0x00\n      swap1\n      sload\n      swap1\n      0x0100\n      exp\n      swap1\n      div\n      0xffffffffffffffffffffffffffffffffffffffff\n      and\n        /* \"contracts/study-case-contracts/001-delivery-hiring/DeliveryHiring_O.sol\":5096:5131  process.walletAddress == msg.sender */\n      0xffffffffffffffffffffffffffffffffffffffff\n      and\n      eq\n        /* \"contracts/study-case-contracts/001-delivery-hiring/DeliveryHiring_O.sol\":5053:5131  application.walletAddress == msg.sender || process.walletAddress == msg.sender */\n    tag_122:\n        /* \"contracts/study-case-contracts/001-delivery-hiring/DeliveryHiring_O.sol\":5030:5214  require(... */\n      tag_123\n      jumpi\n      mload(0x40)\n      0x08c379a000000000000000000000000000000000000000000000000000000000\n      dup2\n      mstore\n      0x04\n      add\n      tag_124\n      swap1\n      tag_119\n      jump\t// in\n    tag_124:\n      mload(0x40)\n      dup1\n      swap2\n      sub\n      swap1\n      revert\n    tag_123:\n        /* \"contracts/study-case-contracts/001-delivery-hiring/DeliveryHiring_O.sol\":4044:4051  process */\n      0x00\n        /* \"contracts/study-case-contracts/001-delivery-hiring/DeliveryHiring_O.sol\":4044:4065  process.walletAddress */\n      0x01\n      add\n      0x00\n      swap1\n      sload\n      swap1\n      0x0100\n      exp\n      swap1\n      div\n      0xffffffffffffffffffffffffffffffffffffffff\n      and\n        /* \"contracts/study-case-contracts/001-delivery-hiring/DeliveryHiring_O.sol\":4037:4065  return process.walletAddress */\n      swap1\n      pop\n        /* \"contracts/study-case-contracts/001-delivery-hiring/DeliveryHiring_O.sol\":3949:4073  function getProcessAddress() public view onlyInvolvedParties returns(address){... */\n      swap1\n      jump\t// out\n        /* \"contracts/study-case-contracts/001-delivery-hiring/DeliveryHiring_O.sol\":2907:3168  function signContract() public onlyApplication() returns(bool){... */\n    tag_34:\n        /* \"contracts/study-case-contracts/001-delivery-hiring/DeliveryHiring_O.sol\":2964:2968  bool */\n      0x00\n        /* \"contracts/study-case-contracts/001-delivery-hiring/DeliveryHiring_O.sol\":4747:4757  msg.sender */\n      caller\n        /* \"contracts/study-case-contracts/001-delivery-hiring/DeliveryHiring_O.sol\":4718:4757  application.walletAddress == msg.sender */\n      0xffffffffffffffffffffffffffffffffffffffff\n      and\n        /* \"contracts/study-case-contracts/001-delivery-hiring/DeliveryHiring_O.sol\":4718:4729  application */\n      0x02\n        /* \"contracts/study-case-contracts/001-delivery-hiring/DeliveryHiring_O.sol\":4718:4743  application.walletAddress */\n      0x01\n      add\n      0x00\n      swap1\n      sload\n      swap1\n      0x0100\n      exp\n      swap1\n      div\n      0xffffffffffffffffffffffffffffffffffffffff\n      and\n        /* \"contracts/study-case-contracts/001-delivery-hiring/DeliveryHiring_O.sol\":4718:4757  application.walletAddress == msg.sender */\n      0xffffffffffffffffffffffffffffffffffffffff\n      and\n      eq\n        /* \"contracts/study-case-contracts/001-delivery-hiring/DeliveryHiring_O.sol\":4710:4809  require(application.walletAddress == msg.sender, \"Only the application can execute this operation\") */\n      tag_127\n      jumpi\n      mload(0x40)\n      0x08c379a000000000000000000000000000000000000000000000000000000000\n      dup2\n      mstore\n      0x04\n      add\n      tag_128\n      swap1\n      tag_48\n      jump\t// in\n    tag_128:\n      mload(0x40)\n      dup1\n      swap2\n      sub\n      swap1\n      revert\n    tag_127:\n        /* \"contracts/study-case-contracts/001-delivery-hiring/DeliveryHiring_O.sol\":3009:3014  false */\n      0x00\n        /* \"contracts/study-case-contracts/001-delivery-hiring/DeliveryHiring_O.sol\":2988:3014  application.aware == false */\n      iszero\n      iszero\n        /* \"contracts/study-case-contracts/001-delivery-hiring/DeliveryHiring_O.sol\":2988:2999  application */\n      0x02\n        /* \"contracts/study-case-contracts/001-delivery-hiring/DeliveryHiring_O.sol\":2988:3005  application.aware */\n      0x01\n      add\n      0x14\n      swap1\n      sload\n      swap1\n      0x0100\n      exp\n      swap1\n      div\n      0xff\n      and\n        /* \"contracts/study-case-contracts/001-delivery-hiring/DeliveryHiring_O.sol\":2988:3014  application.aware == false */\n      iszero\n      iszero\n      eq\n        /* \"contracts/study-case-contracts/001-delivery-hiring/DeliveryHiring_O.sol\":2980:3049  require(application.aware == false, \"The contract is already signed\") */\n      tag_130\n      jumpi\n      mload(0x40)\n      0x08c379a000000000000000000000000000000000000000000000000000000000\n      dup2\n      mstore\n      0x04\n      add\n      tag_131\n      swap1\n      tag_132\n      jump\t// in\n    tag_131:\n      mload(0x40)\n      dup1\n      swap2\n      sub\n      swap1\n      revert\n    tag_130:\n        /* \"contracts/study-case-contracts/001-delivery-hiring/DeliveryHiring_O.sol\":3088:3092  true */\n      0x01\n        /* \"contracts/study-case-contracts/001-delivery-hiring/DeliveryHiring_O.sol\":3068:3079  application */\n      0x02\n        /* \"contracts/study-case-contracts/001-delivery-hiring/DeliveryHiring_O.sol\":3068:3085  application.aware */\n      0x01\n      add\n      0x14\n        /* \"contracts/study-case-contracts/001-delivery-hiring/DeliveryHiring_O.sol\":3068:3092  application.aware = true */\n      0x0100\n      exp\n      dup2\n      sload\n      dup2\n      0xff\n      mul\n      not\n      and\n      swap1\n      dup4\n      iszero\n      iszero\n      mul\n      or\n      swap1\n      sstore\n      pop\n        /* \"contracts/study-case-contracts/001-delivery-hiring/DeliveryHiring_O.sol\":3105:3144  updateMapParty(msg.sender, application) */\n      tag_133\n        /* \"contracts/study-case-contracts/001-delivery-hiring/DeliveryHiring_O.sol\":3120:3130  msg.sender */\n      caller\n        /* \"contracts/study-case-contracts/001-delivery-hiring/DeliveryHiring_O.sol\":3132:3143  application */\n      0x02\n        /* \"contracts/study-case-contracts/001-delivery-hiring/DeliveryHiring_O.sol\":3105:3119  updateMapParty */\n      tag_114\n        /* \"contracts/study-case-contracts/001-delivery-hiring/DeliveryHiring_O.sol\":3105:3144  updateMapParty(msg.sender, application) */\n      jump\t// in\n    tag_133:\n      pop\n        /* \"contracts/study-case-contracts/001-delivery-hiring/DeliveryHiring_O.sol\":3156:3160  true */\n      0x01\n        /* \"contracts/study-case-contracts/001-delivery-hiring/DeliveryHiring_O.sol\":3149:3160  return true */\n      swap1\n      pop\n        /* \"contracts/study-case-contracts/001-delivery-hiring/DeliveryHiring_O.sol\":2907:3168  function signContract() public onlyApplication() returns(bool){... */\n      swap1\n      jump\t// out\n        /* \"contracts/study-case-contracts/001-delivery-hiring/DeliveryHiring_O.sol\":4225:4374  function getParty(address _walletAddress) public view onlyInvolvedParties returns(EAI.Party memory){... */\n    tag_39:\n        /* \"contracts/study-case-contracts/001-delivery-hiring/DeliveryHiring_O.sol\":4307:4323  EAI.Party memory */\n      tag_134\n      tag_135\n      jump\t// in\n    tag_134:\n        /* \"contracts/study-case-contracts/001-delivery-hiring/DeliveryHiring_O.sol\":5082:5092  msg.sender */\n      caller\n        /* \"contracts/study-case-contracts/001-delivery-hiring/DeliveryHiring_O.sol\":5053:5092  application.walletAddress == msg.sender */\n      0xffffffffffffffffffffffffffffffffffffffff\n      and\n        /* \"contracts/study-case-contracts/001-delivery-hiring/DeliveryHiring_O.sol\":5053:5064  application */\n      0x02\n        /* \"contracts/study-case-contracts/001-delivery-hiring/DeliveryHiring_O.sol\":5053:5078  application.walletAddress */\n      0x01\n      add\n      0x00\n      swap1\n      sload\n      swap1\n      0x0100\n      exp\n      swap1\n      div\n      0xffffffffffffffffffffffffffffffffffffffff\n      and\n        /* \"contracts/study-case-contracts/001-delivery-hiring/DeliveryHiring_O.sol\":5053:5092  application.walletAddress == msg.sender */\n      0xffffffffffffffffffffffffffffffffffffffff\n      and\n      eq\n        /* \"contracts/study-case-contracts/001-delivery-hiring/DeliveryHiring_O.sol\":5053:5131  application.walletAddress == msg.sender || process.walletAddress == msg.sender */\n      dup1\n      tag_137\n      jumpi\n      pop\n        /* \"contracts/study-case-contracts/001-delivery-hiring/DeliveryHiring_O.sol\":5121:5131  msg.sender */\n      caller\n        /* \"contracts/study-case-contracts/001-delivery-hiring/DeliveryHiring_O.sol\":5096:5131  process.walletAddress == msg.sender */\n      0xffffffffffffffffffffffffffffffffffffffff\n      and\n        /* \"contracts/study-case-contracts/001-delivery-hiring/DeliveryHiring_O.sol\":5096:5103  process */\n      0x00\n        /* \"contracts/study-case-contracts/001-delivery-hiring/DeliveryHiring_O.sol\":5096:5117  process.walletAddress */\n      0x01\n      add\n      0x00\n      swap1\n      sload\n      swap1\n      0x0100\n      exp\n      swap1\n      div\n      0xffffffffffffffffffffffffffffffffffffffff\n      and\n        /* \"contracts/study-case-contracts/001-delivery-hiring/DeliveryHiring_O.sol\":5096:5131  process.walletAddress == msg.sender */\n      0xffffffffffffffffffffffffffffffffffffffff\n      and\n      eq\n        /* \"contracts/study-case-contracts/001-delivery-hiring/DeliveryHiring_O.sol\":5053:5131  application.walletAddress == msg.sender || process.walletAddress == msg.sender */\n    tag_137:\n        /* \"contracts/study-case-contracts/001-delivery-hiring/DeliveryHiring_O.sol\":5030:5214  require(... */\n      tag_138\n      jumpi\n      mload(0x40)\n      0x08c379a000000000000000000000000000000000000000000000000000000000\n      dup2\n      mstore\n      0x04\n      add\n      tag_139\n      swap1\n      tag_119\n      jump\t// in\n    tag_139:\n      mload(0x40)\n      dup1\n      swap2\n      sub\n      swap1\n      revert\n    tag_138:\n        /* \"contracts/study-case-contracts/001-delivery-hiring/DeliveryHiring_O.sol\":4342:4350  mapParty */\n      0x04\n        /* \"contracts/study-case-contracts/001-delivery-hiring/DeliveryHiring_O.sol\":4342:4366  mapParty[_walletAddress] */\n      0x00\n        /* \"contracts/study-case-contracts/001-delivery-hiring/DeliveryHiring_O.sol\":4351:4365  _walletAddress */\n      dup4\n        /* \"contracts/study-case-contracts/001-delivery-hiring/DeliveryHiring_O.sol\":4342:4366  mapParty[_walletAddress] */\n      0xffffffffffffffffffffffffffffffffffffffff\n      and\n      0xffffffffffffffffffffffffffffffffffffffff\n      and\n      dup2\n      mstore\n      0x20\n      add\n      swap1\n      dup2\n      mstore\n      0x20\n      add\n      0x00\n      keccak256\n        /* \"contracts/study-case-contracts/001-delivery-hiring/DeliveryHiring_O.sol\":4335:4366  return mapParty[_walletAddress] */\n      mload(0x40)\n      dup1\n      0x60\n      add\n      0x40\n      mstore\n      swap1\n      dup2\n      0x00\n      dup3\n      add\n      dup1\n      sload\n      tag_141\n      swap1\n      tag_52\n      jump\t// in\n    tag_141:\n      dup1\n      0x1f\n      add\n      0x20\n      dup1\n      swap2\n      div\n      mul\n      0x20\n      add\n      mload(0x40)\n      swap1\n      dup2\n      add\n      0x40\n      mstore\n      dup1\n      swap3\n      swap2\n      swap1\n      dup2\n      dup2\n      mstore\n      0x20\n      add\n      dup3\n      dup1\n      sload\n      tag_142\n      swap1\n      tag_52\n      jump\t// in\n    tag_142:\n      dup1\n      iszero\n      tag_143\n      jumpi\n      dup1\n      0x1f\n      lt\n      tag_144\n      jumpi\n      0x0100\n      dup1\n      dup4\n      sload\n      div\n      mul\n      dup4\n      mstore\n      swap2\n      0x20\n      add\n      swap2\n      jump(tag_143)\n    tag_144:\n      dup3\n      add\n      swap2\n      swap1\n      0x00\n      mstore\n      keccak256(0x00, 0x20)\n      swap1\n    tag_145:\n      dup2\n      sload\n      dup2\n      mstore\n      swap1\n      0x01\n      add\n      swap1\n      0x20\n      add\n      dup1\n      dup4\n      gt\n      tag_145\n      jumpi\n      dup3\n      swap1\n      sub\n      0x1f\n      and\n      dup3\n      add\n      swap2\n    tag_143:\n      pop\n      pop\n      pop\n      pop\n      pop\n      dup2\n      mstore\n      0x20\n      add\n      0x01\n      dup3\n      add\n      0x00\n      swap1\n      sload\n      swap1\n      0x0100\n      exp\n      swap1\n      div\n      0xffffffffffffffffffffffffffffffffffffffff\n      and\n      0xffffffffffffffffffffffffffffffffffffffff\n      and\n      0xffffffffffffffffffffffffffffffffffffffff\n      and\n      dup2\n      mstore\n      0x20\n      add\n      0x01\n      dup3\n      add\n      0x14\n      swap1\n      sload\n      swap1\n      0x0100\n      exp\n      swap1\n      div\n      0xff\n      and\n      iszero\n      iszero\n      iszero\n      iszero\n      dup2\n      mstore\n      pop\n      pop\n      swap1\n      pop\n        /* \"contracts/study-case-contracts/001-delivery-hiring/DeliveryHiring_O.sol\":4225:4374  function getParty(address _walletAddress) public view onlyInvolvedParties returns(EAI.Party memory){... */\n      swap2\n      swap1\n      pop\n      jump\t// out\n        /* \"contracts/lib/eai/EAI.sol\":1591:1767  function createParty(string memory _name, address _walletAddress, bool _aware) internal pure returns(Party memory){... */\n    tag_42:\n        /* \"contracts/lib/eai/EAI.sol\":1692:1704  Party memory */\n      tag_146\n      tag_135\n      jump\t// in\n    tag_146:\n        /* \"contracts/lib/eai/EAI.sol\":1723:1759  Party(_name, _walletAddress, _aware) */\n      mload(0x40)\n      dup1\n      0x60\n      add\n      0x40\n      mstore\n      dup1\n        /* \"contracts/lib/eai/EAI.sol\":1729:1734  _name */\n      dup6\n        /* \"contracts/lib/eai/EAI.sol\":1723:1759  Party(_name, _walletAddress, _aware) */\n      dup2\n      mstore\n      0x20\n      add\n        /* \"contracts/lib/eai/EAI.sol\":1736:1750  _walletAddress */\n      dup5\n        /* \"contracts/lib/eai/EAI.sol\":1723:1759  Party(_name, _walletAddress, _aware) */\n      0xffffffffffffffffffffffffffffffffffffffff\n      and\n      dup2\n      mstore\n      0x20\n      add\n        /* \"contracts/lib/eai/EAI.sol\":1752:1758  _aware */\n      dup4\n        /* \"contracts/lib/eai/EAI.sol\":1723:1759  Party(_name, _walletAddress, _aware) */\n      iszero\n      iszero\n      dup2\n      mstore\n      pop\n        /* \"contracts/lib/eai/EAI.sol\":1716:1759  return Party(_name, _walletAddress, _aware) */\n      swap1\n      pop\n        /* \"contracts/lib/eai/EAI.sol\":1591:1767  function createParty(string memory _name, address _walletAddress, bool _aware) internal pure returns(Party memory){... */\n      swap4\n      swap3\n      pop\n      pop\n      pop\n      jump\t// out\n        /* \"contracts/lib/eai/EAI.sol\":8321:8458  function createTimeout(uint32 _timeIncrement) internal pure returns (Timeout memory ){... */\n    tag_43:\n        /* \"contracts/lib/eai/EAI.sol\":8390:8404  Timeout memory */\n      tag_148\n      tag_149\n      jump\t// in\n    tag_148:\n        /* \"contracts/lib/eai/EAI.sol\":8424:8450  Timeout(0, _timeIncrement) */\n      mload(0x40)\n      dup1\n      0x40\n      add\n      0x40\n      mstore\n      dup1\n        /* \"contracts/lib/eai/EAI.sol\":8432:8433  0 */\n      0x00\n        /* \"contracts/lib/eai/EAI.sol\":8424:8450  Timeout(0, _timeIncrement) */\n      0xffffffff\n      and\n      dup2\n      mstore\n      0x20\n      add\n        /* \"contracts/lib/eai/EAI.sol\":8435:8449  _timeIncrement */\n      dup4\n        /* \"contracts/lib/eai/EAI.sol\":8424:8450  Timeout(0, _timeIncrement) */\n      0xffffffff\n      and\n      dup2\n      mstore\n      pop\n        /* \"contracts/lib/eai/EAI.sol\":8417:8450  return Timeout(0, _timeIncrement) */\n      swap1\n      pop\n        /* \"contracts/lib/eai/EAI.sol\":8321:8458  function createTimeout(uint32 _timeIncrement) internal pure returns (Timeout memory ){... */\n      swap2\n      swap1\n      pop\n      jump\t// out\n        /* \"contracts/lib/eai/EAI.sol\":13428:13793  function createMessageContent(string memory _xpath, string memory _op, string memory _content ) internal pure returns(MessageContent_String memory){... */\n    tag_44:\n        /* \"contracts/lib/eai/EAI.sol\":13546:13574  MessageContent_String memory */\n      tag_151\n      tag_152\n      jump\t// in\n    tag_151:\n        /* \"contracts/lib/eai/EAI.sol\":13586:13597  bytes1 char */\n      0x00\n        /* \"contracts/lib/eai/EAI.sol\":13606:13609  _op */\n      dup4\n        /* \"contracts/lib/eai/EAI.sol\":13611:13612  0 */\n      0x00\n        /* \"contracts/lib/eai/EAI.sol\":13600:13613  bytes(_op)[0] */\n      dup2\n      mload\n      dup2\n      lt\n      tag_154\n      jumpi\n      tag_155\n      tag_64\n      jump\t// in\n    tag_155:\n    tag_154:\n      0x20\n      add\n      add\n      mload\n      0xf8\n      shr\n      0xf8\n      shl\n        /* \"contracts/lib/eai/EAI.sol\":13586:13613  bytes1 char = bytes(_op)[0] */\n      swap1\n      pop\n        /* \"contracts/lib/eai/EAI.sol\":13641:13645  0x21 */\n      0x21\n        /* \"contracts/lib/eai/EAI.sol\":13633:13645  char == 0x21 */\n      0xf8\n      shl\n        /* \"contracts/lib/eai/EAI.sol\":13633:13637  char */\n      dup2\n        /* \"contracts/lib/eai/EAI.sol\":13633:13645  char == 0x21 */\n      not(0xffffffffffffffffffffffffffffffffffffffffffffffffffffffffffffff)\n      and\n      eq\n        /* \"contracts/lib/eai/EAI.sol\":13633:13661  char == 0x21 || char == 0x3D */\n      dup1\n      tag_156\n      jumpi\n      pop\n        /* \"contracts/lib/eai/EAI.sol\":13657:13661  0x3D */\n      0x3d\n        /* \"contracts/lib/eai/EAI.sol\":13649:13661  char == 0x3D */\n      0xf8\n      shl\n        /* \"contracts/lib/eai/EAI.sol\":13649:13653  char */\n      dup2\n        /* \"contracts/lib/eai/EAI.sol\":13649:13661  char == 0x3D */\n      not(0xffffffffffffffffffffffffffffffffffffffffffffffffffffffffffffff)\n      and\n      eq\n        /* \"contracts/lib/eai/EAI.sol\":13633:13661  char == 0x21 || char == 0x3D */\n    tag_156:\n        /* \"contracts/lib/eai/EAI.sol\":13624:13722  require((char == 0x21 || char == 0x3D) ,\"Only '!=' or '==' operators is allow to compare strings\") */\n      tag_157\n      jumpi\n      mload(0x40)\n      0x08c379a000000000000000000000000000000000000000000000000000000000\n      dup2\n      mstore\n      0x04\n      add\n      tag_158\n      swap1\n      tag_159\n      jump\t// in\n    tag_158:\n      mload(0x40)\n      dup1\n      swap2\n      sub\n      swap1\n      revert\n    tag_157:\n        /* \"contracts/lib/eai/EAI.sol\":13740:13784  MessageContent_String(_xpath, _op, _content) */\n      mload(0x40)\n      dup1\n      0x60\n      add\n      0x40\n      mstore\n      dup1\n        /* \"contracts/lib/eai/EAI.sol\":13762:13768  _xpath */\n      dup7\n        /* \"contracts/lib/eai/EAI.sol\":13740:13784  MessageContent_String(_xpath, _op, _content) */\n      dup2\n      mstore\n      0x20\n      add\n        /* \"contracts/lib/eai/EAI.sol\":13770:13773  _op */\n      dup6\n        /* \"contracts/lib/eai/EAI.sol\":13740:13784  MessageContent_String(_xpath, _op, _content) */\n      dup2\n      mstore\n      0x20\n      add\n        /* \"contracts/lib/eai/EAI.sol\":13775:13783  _content */\n      dup5\n        /* \"contracts/lib/eai/EAI.sol\":13740:13784  MessageContent_String(_xpath, _op, _content) */\n      dup2\n      mstore\n      pop\n        /* \"contracts/lib/eai/EAI.sol\":13733:13784  return MessageContent_String(_xpath, _op, _content) */\n      swap2\n      pop\n      pop\n        /* \"contracts/lib/eai/EAI.sol\":13428:13793  function createMessageContent(string memory _xpath, string memory _op, string memory _content ) internal pure returns(MessageContent_String memory){... */\n      swap4\n      swap3\n      pop\n      pop\n      pop\n      jump\t// out\n        /* \"contracts/lib/eai/EAI.sol\":2373:2476  function isAware(Party memory _party) internal pure returns(bool){... */\n    tag_57:\n        /* \"contracts/lib/eai/EAI.sol\":2433:2437  bool */\n      0x00\n        /* \"contracts/lib/eai/EAI.sol\":2456:2462  _party */\n      dup2\n        /* \"contracts/lib/eai/EAI.sol\":2456:2468  _party.aware */\n      0x40\n      add\n      mload\n        /* \"contracts/lib/eai/EAI.sol\":2449:2468  return _party.aware */\n      swap1\n      pop\n        /* \"contracts/lib/eai/EAI.sol\":2373:2476  function isAware(Party memory _party) internal pure returns(bool){... */\n      swap2\n      swap1\n      pop\n      jump\t// out\n        /* \"contracts/lib/eai/EAI.sol\":8470:8741  function isTimeoutEnded(Timeout memory _timeout, uint32 _accessTime) internal pure onlyValidAccessTime(_accessTime) returns(bool){        ... */\n    tag_66:\n        /* \"contracts/lib/eai/EAI.sol\":8594:8598  bool */\n      0x00\n        /* \"contracts/lib/eai/EAI.sol\":8573:8584  _accessTime */\n      dup2\n        /* \"contracts/lib/eai/EAI.sol\":9078:9099  string memory strTime */\n      0x00\n        /* \"contracts/lib/eai/EAI.sol\":9103:9121  uint2String(_time) */\n      tag_162\n        /* \"contracts/lib/eai/EAI.sol\":9115:9120  _time */\n      dup3\n        /* \"contracts/lib/eai/EAI.sol\":9103:9121  uint2String(_time) */\n      0xffffffff\n      and\n        /* \"contracts/lib/eai/EAI.sol\":9103:9114  uint2String */\n      tag_163\n        /* \"contracts/lib/eai/EAI.sol\":9103:9121  uint2String(_time) */\n      jump\t// in\n    tag_162:\n        /* \"contracts/lib/eai/EAI.sol\":9078:9121  string memory strTime  = uint2String(_time) */\n      swap1\n      pop\n        /* \"contracts/lib/eai/EAI.sol\":9165:9167  10 */\n      0x0a\n        /* \"contracts/lib/eai/EAI.sol\":9146:9153  strTime */\n      dup2\n        /* \"contracts/lib/eai/EAI.sol\":9140:9161  bytes(strTime).length */\n      mload\n        /* \"contracts/lib/eai/EAI.sol\":9140:9167  bytes(strTime).length <= 10 */\n      gt\n      iszero\n        /* \"contracts/lib/eai/EAI.sol\":9132:9168  require(bytes(strTime).length <= 10) */\n      tag_164\n      jumpi\n      0x00\n      dup1\n      revert\n    tag_164:\n        /* \"contracts/lib/eai/EAI.sol\":8645:8646  0 */\n      0x00\n        /* \"contracts/lib/eai/EAI.sol\":8626:8634  _timeout */\n      dup6\n        /* \"contracts/lib/eai/EAI.sol\":8626:8642  _timeout.endTime */\n      0x00\n      add\n      mload\n        /* \"contracts/lib/eai/EAI.sol\":8626:8646  _timeout.endTime > 0 */\n      0xffffffff\n      and\n      gt\n        /* \"contracts/lib/eai/EAI.sol\":8618:8685  require(_timeout.endTime > 0, \"There is no endTime set in timeout\") */\n      tag_166\n      jumpi\n      mload(0x40)\n      0x08c379a000000000000000000000000000000000000000000000000000000000\n      dup2\n      mstore\n      0x04\n      add\n      tag_167\n      swap1\n      tag_168\n      jump\t// in\n    tag_167:\n      mload(0x40)\n      dup1\n      swap2\n      sub\n      swap1\n      revert\n    tag_166:\n        /* \"contracts/lib/eai/EAI.sol\":8717:8725  _timeout */\n      dup5\n        /* \"contracts/lib/eai/EAI.sol\":8717:8733  _timeout.endTime */\n      0x00\n      add\n      mload\n        /* \"contracts/lib/eai/EAI.sol\":8703:8733  _accessTime > _timeout.endTime */\n      0xffffffff\n      and\n        /* \"contracts/lib/eai/EAI.sol\":8703:8714  _accessTime */\n      dup5\n        /* \"contracts/lib/eai/EAI.sol\":8703:8733  _accessTime > _timeout.endTime */\n      0xffffffff\n      and\n      gt\n        /* \"contracts/lib/eai/EAI.sol\":8696:8733  return _accessTime > _timeout.endTime */\n      swap3\n      pop\n        /* \"contracts/lib/eai/EAI.sol\":9067:9212  {... */\n      pop\n        /* \"contracts/lib/eai/EAI.sol\":8470:8741  function isTimeoutEnded(Timeout memory _timeout, uint32 _accessTime) internal pure onlyValidAccessTime(_accessTime) returns(bool){        ... */\n      pop\n      swap3\n      swap2\n      pop\n      pop\n      jump\t// out\n        /* \"contracts/lib/eai/EAI.sol\":13801:14447  function evaluateStringContent(MessageContent_String memory msgContent, string memory _value) internal pure returns(bool){       ... */\n    tag_89:\n        /* \"contracts/lib/eai/EAI.sol\":13917:13921  bool */\n      0x00\n        /* \"contracts/lib/eai/EAI.sol\":13971:13975  0x21 */\n      0x21\n        /* \"contracts/lib/eai/EAI.sol\":13944:13975  bytes(msgContent.op)[0] == 0x21 */\n      0xf8\n      shl\n        /* \"contracts/lib/eai/EAI.sol\":13950:13960  msgContent */\n      dup4\n        /* \"contracts/lib/eai/EAI.sol\":13950:13963  msgContent.op */\n      0x20\n      add\n      mload\n        /* \"contracts/lib/eai/EAI.sol\":13965:13966  0 */\n      0x00\n        /* \"contracts/lib/eai/EAI.sol\":13944:13967  bytes(msgContent.op)[0] */\n      dup2\n      mload\n      dup2\n      lt\n      tag_170\n      jumpi\n      tag_171\n      tag_64\n      jump\t// in\n    tag_171:\n    tag_170:\n      0x20\n      add\n      add\n      mload\n      0xf8\n      shr\n      0xf8\n      shl\n        /* \"contracts/lib/eai/EAI.sol\":13944:13975  bytes(msgContent.op)[0] == 0x21 */\n      not(0xffffffffffffffffffffffffffffffffffffffffffffffffffffffffffffff)\n      and\n      sub\n        /* \"contracts/lib/eai/EAI.sol\":13940:14417  if( bytes(msgContent.op)[0] == 0x21){ // if msgContent.op start with '!' enter:... */\n      tag_172\n      jumpi\n        /* \"contracts/lib/eai/EAI.sol\":14103:14113  msgContent */\n      dup3\n        /* \"contracts/lib/eai/EAI.sol\":14103:14121  msgContent.content */\n      0x40\n      add\n      mload\n        /* \"contracts/lib/eai/EAI.sol\":14086:14122  abi.encodePacked(msgContent.content) */\n      add(0x20, mload(0x40))\n      tag_173\n      swap2\n      swap1\n      tag_174\n      jump\t// in\n    tag_173:\n      mload(0x40)\n      0x20\n      dup2\n      dup4\n      sub\n      sub\n      dup2\n      mstore\n      swap1\n      0x40\n      mstore\n        /* \"contracts/lib/eai/EAI.sol\":14076:14123  keccak256(abi.encodePacked(msgContent.content)) */\n      dup1\n      mload\n      swap1\n      0x20\n      add\n      keccak256\n        /* \"contracts/lib/eai/EAI.sol\":14064:14070  _value */\n      dup3\n        /* \"contracts/lib/eai/EAI.sol\":14047:14071  abi.encodePacked(_value) */\n      add(0x20, mload(0x40))\n      tag_175\n      swap2\n      swap1\n      tag_174\n      jump\t// in\n    tag_175:\n      mload(0x40)\n      0x20\n      dup2\n      dup4\n      sub\n      sub\n      dup2\n      mstore\n      swap1\n      0x40\n      mstore\n        /* \"contracts/lib/eai/EAI.sol\":14037:14072  keccak256(abi.encodePacked(_value)) */\n      dup1\n      mload\n      swap1\n      0x20\n      add\n      keccak256\n        /* \"contracts/lib/eai/EAI.sol\":14037:14123  keccak256(abi.encodePacked(_value)) != keccak256(abi.encodePacked(msgContent.content)) */\n      eq\n        /* \"contracts/lib/eai/EAI.sol\":14033:14172  if (keccak256(abi.encodePacked(_value)) != keccak256(abi.encodePacked(msgContent.content)) ) {... */\n      tag_176\n      jumpi\n        /* \"contracts/lib/eai/EAI.sol\":14152:14156  true */\n      0x01\n        /* \"contracts/lib/eai/EAI.sol\":14145:14156  return true */\n      swap1\n      pop\n      jump(tag_169)\n        /* \"contracts/lib/eai/EAI.sol\":14033:14172  if (keccak256(abi.encodePacked(_value)) != keccak256(abi.encodePacked(msgContent.content)) ) {... */\n    tag_176:\n        /* \"contracts/lib/eai/EAI.sol\":13940:14417  if( bytes(msgContent.op)[0] == 0x21){ // if msgContent.op start with '!' enter:... */\n      jump(tag_177)\n    tag_172:\n        /* \"contracts/lib/eai/EAI.sol\":14337:14347  msgContent */\n      dup3\n        /* \"contracts/lib/eai/EAI.sol\":14337:14355  msgContent.content */\n      0x40\n      add\n      mload\n        /* \"contracts/lib/eai/EAI.sol\":14320:14356  abi.encodePacked(msgContent.content) */\n      add(0x20, mload(0x40))\n      tag_178\n      swap2\n      swap1\n      tag_174\n      jump\t// in\n    tag_178:\n      mload(0x40)\n      0x20\n      dup2\n      dup4\n      sub\n      sub\n      dup2\n      mstore\n      swap1\n      0x40\n      mstore\n        /* \"contracts/lib/eai/EAI.sol\":14310:14357  keccak256(abi.encodePacked(msgContent.content)) */\n      dup1\n      mload\n      swap1\n      0x20\n      add\n      keccak256\n        /* \"contracts/lib/eai/EAI.sol\":14298:14304  _value */\n      dup3\n        /* \"contracts/lib/eai/EAI.sol\":14281:14305  abi.encodePacked(_value) */\n      add(0x20, mload(0x40))\n      tag_179\n      swap2\n      swap1\n      tag_174\n      jump\t// in\n    tag_179:\n      mload(0x40)\n      0x20\n      dup2\n      dup4\n      sub\n      sub\n      dup2\n      mstore\n      swap1\n      0x40\n      mstore\n        /* \"contracts/lib/eai/EAI.sol\":14271:14306  keccak256(abi.encodePacked(_value)) */\n      dup1\n      mload\n      swap1\n      0x20\n      add\n      keccak256\n        /* \"contracts/lib/eai/EAI.sol\":14271:14357  keccak256(abi.encodePacked(_value)) == keccak256(abi.encodePacked(msgContent.content)) */\n      sub\n        /* \"contracts/lib/eai/EAI.sol\":14267:14406  if (keccak256(abi.encodePacked(_value)) == keccak256(abi.encodePacked(msgContent.content)) ) {... */\n      tag_180\n      jumpi\n        /* \"contracts/lib/eai/EAI.sol\":14386:14390  true */\n      0x01\n        /* \"contracts/lib/eai/EAI.sol\":14379:14390  return true */\n      swap1\n      pop\n      jump(tag_169)\n        /* \"contracts/lib/eai/EAI.sol\":14267:14406  if (keccak256(abi.encodePacked(_value)) == keccak256(abi.encodePacked(msgContent.content)) ) {... */\n    tag_180:\n        /* \"contracts/lib/eai/EAI.sol\":13940:14417  if( bytes(msgContent.op)[0] == 0x21){ // if msgContent.op start with '!' enter:... */\n    tag_177:\n        /* \"contracts/lib/eai/EAI.sol\":14434:14439  false */\n      0x00\n        /* \"contracts/lib/eai/EAI.sol\":14427:14439  return false */\n      swap1\n      pop\n        /* \"contracts/lib/eai/EAI.sol\":13801:14447  function evaluateStringContent(MessageContent_String memory msgContent, string memory _value) internal pure returns(bool){       ... */\n    tag_169:\n      swap3\n      swap2\n      pop\n      pop\n      jump\t// out\n        /* \"contracts/lib/eai/EAI.sol\":8749:8942  function setEndTimeInTimeout(Timeout storage _timeout, uint32 _startTime)internal onlyValidAccessTime(_startTime){      ... */\n    tag_104:\n        /* \"contracts/lib/eai/EAI.sol\":8851:8861  _startTime */\n      dup1\n        /* \"contracts/lib/eai/EAI.sol\":9078:9099  string memory strTime */\n      0x00\n        /* \"contracts/lib/eai/EAI.sol\":9103:9121  uint2String(_time) */\n      tag_182\n        /* \"contracts/lib/eai/EAI.sol\":9115:9120  _time */\n      dup3\n        /* \"contracts/lib/eai/EAI.sol\":9103:9121  uint2String(_time) */\n      0xffffffff\n      and\n        /* \"contracts/lib/eai/EAI.sol\":9103:9114  uint2String */\n      tag_163\n        /* \"contracts/lib/eai/EAI.sol\":9103:9121  uint2String(_time) */\n      jump\t// in\n    tag_182:\n        /* \"contracts/lib/eai/EAI.sol\":9078:9121  string memory strTime  = uint2String(_time) */\n      swap1\n      pop\n        /* \"contracts/lib/eai/EAI.sol\":9165:9167  10 */\n      0x0a\n        /* \"contracts/lib/eai/EAI.sol\":9146:9153  strTime */\n      dup2\n        /* \"contracts/lib/eai/EAI.sol\":9140:9161  bytes(strTime).length */\n      mload\n        /* \"contracts/lib/eai/EAI.sol\":9140:9167  bytes(strTime).length <= 10 */\n      gt\n      iszero\n        /* \"contracts/lib/eai/EAI.sol\":9132:9168  require(bytes(strTime).length <= 10) */\n      tag_183\n      jumpi\n      0x00\n      dup1\n      revert\n    tag_183:\n        /* \"contracts/lib/eai/EAI.sol\":8911:8919  _timeout */\n      dup4\n        /* \"contracts/lib/eai/EAI.sol\":8911:8933  _timeout.timeIncrement */\n      0x00\n      add\n      0x04\n      swap1\n      sload\n      swap1\n      0x0100\n      exp\n      swap1\n      div\n      0xffffffff\n      and\n        /* \"contracts/lib/eai/EAI.sol\":8898:8908  _startTime */\n      dup4\n        /* \"contracts/lib/eai/EAI.sol\":8898:8933  _startTime + _timeout.timeIncrement */\n      tag_185\n      swap2\n      swap1\n      tag_186\n      jump\t// in\n    tag_185:\n        /* \"contracts/lib/eai/EAI.sol\":8879:8887  _timeout */\n      dup5\n        /* \"contracts/lib/eai/EAI.sol\":8879:8895  _timeout.endTime */\n      0x00\n      add\n      0x00\n        /* \"contracts/lib/eai/EAI.sol\":8879:8933  _timeout.endTime = _startTime + _timeout.timeIncrement */\n      0x0100\n      exp\n      dup2\n      sload\n      dup2\n      0xffffffff\n      mul\n      not\n      and\n      swap1\n      dup4\n      0xffffffff\n      and\n      mul\n      or\n      swap1\n      sstore\n      pop\n        /* \"contracts/lib/eai/EAI.sol\":9067:9212  {... */\n      pop\n        /* \"contracts/lib/eai/EAI.sol\":8749:8942  function setEndTimeInTimeout(Timeout storage _timeout, uint32 _startTime)internal onlyValidAccessTime(_startTime){      ... */\n      pop\n      pop\n      pop\n      jump\t// out\n        /* \"contracts/study-case-contracts/001-delivery-hiring/DeliveryHiring_O.sol\":3176:3346  function updateMapParty(address _walletAddress, EAI.Party storage _party)internal returns(bool){       ... */\n    tag_114:\n        /* \"contracts/study-case-contracts/001-delivery-hiring/DeliveryHiring_O.sol\":3266:3270  bool */\n      0x00\n        /* \"contracts/study-case-contracts/001-delivery-hiring/DeliveryHiring_O.sol\":3316:3322  _party */\n      dup2\n        /* \"contracts/study-case-contracts/001-delivery-hiring/DeliveryHiring_O.sol\":3289:3297  mapParty */\n      0x04\n        /* \"contracts/study-case-contracts/001-delivery-hiring/DeliveryHiring_O.sol\":3289:3313  mapParty[_walletAddress] */\n      0x00\n        /* \"contracts/study-case-contracts/001-delivery-hiring/DeliveryHiring_O.sol\":3298:3312  _walletAddress */\n      dup6\n        /* \"contracts/study-case-contracts/001-delivery-hiring/DeliveryHiring_O.sol\":3289:3313  mapParty[_walletAddress] */\n      0xffffffffffffffffffffffffffffffffffffffff\n      and\n      0xffffffffffffffffffffffffffffffffffffffff\n      and\n      dup2\n      mstore\n      0x20\n      add\n      swap1\n      dup2\n      mstore\n      0x20\n      add\n      0x00\n      keccak256\n        /* \"contracts/study-case-contracts/001-delivery-hiring/DeliveryHiring_O.sol\":3289:3322  mapParty[_walletAddress] = _party */\n      0x00\n      dup3\n      add\n      dup2\n      0x00\n      add\n      swap1\n      dup1\n      sload\n      tag_188\n      swap1\n      tag_52\n      jump\t// in\n    tag_188:\n      tag_189\n      swap3\n      swap2\n      swap1\n      tag_190\n      jump\t// in\n    tag_189:\n      pop\n      0x01\n      dup3\n      add\n      0x00\n      swap1\n      sload\n      swap1\n      0x0100\n      exp\n      swap1\n      div\n      0xffffffffffffffffffffffffffffffffffffffff\n      and\n      dup2\n      0x01\n      add\n      exp(0x0100, 0x00)\n      dup2\n      sload\n      dup2\n      0xffffffffffffffffffffffffffffffffffffffff\n      mul\n      not\n      and\n      swap1\n      dup4\n      0xffffffffffffffffffffffffffffffffffffffff\n      and\n      mul\n      or\n      swap1\n      sstore\n      pop\n      0x01\n      dup3\n      add\n      0x14\n      swap1\n      sload\n      swap1\n      0x0100\n      exp\n      swap1\n      div\n      0xff\n      and\n      dup2\n      0x01\n      add\n      exp(0x0100, 0x14)\n      dup2\n      sload\n      dup2\n      0xff\n      mul\n      not\n      and\n      swap1\n      dup4\n      iszero\n      iszero\n      mul\n      or\n      swap1\n      sstore\n      pop\n      swap1\n      pop\n      pop\n        /* \"contracts/study-case-contracts/001-delivery-hiring/DeliveryHiring_O.sol\":3334:3338  true */\n      0x01\n        /* \"contracts/study-case-contracts/001-delivery-hiring/DeliveryHiring_O.sol\":3327:3338  return true */\n      swap1\n      pop\n        /* \"contracts/study-case-contracts/001-delivery-hiring/DeliveryHiring_O.sol\":3176:3346  function updateMapParty(address _walletAddress, EAI.Party storage _party)internal returns(bool){       ... */\n      swap3\n      swap2\n      pop\n      pop\n      jump\t// out\n        /* \"contracts/lib/eai/EAI.sol\":28880:29425  function uint2String(uint256 value) internal pure returns (string memory) {... */\n    tag_163:\n        /* \"contracts/lib/eai/EAI.sol\":28939:28952  string memory */\n      0x60\n        /* \"contracts/lib/eai/EAI.sol\":28988:28989  0 */\n      0x00\n        /* \"contracts/lib/eai/EAI.sol\":28979:28984  value */\n      dup3\n        /* \"contracts/lib/eai/EAI.sol\":28979:28989  value == 0 */\n      sub\n        /* \"contracts/lib/eai/EAI.sol\":28975:29028  if (value == 0) {... */\n      tag_192\n      jumpi\n        /* \"contracts/lib/eai/EAI.sol\":29006:29016  return \"0\" */\n      mload(0x40)\n      dup1\n      0x40\n      add\n      0x40\n      mstore\n      dup1\n      0x01\n      dup2\n      mstore\n      0x20\n      add\n      0x3000000000000000000000000000000000000000000000000000000000000000\n      dup2\n      mstore\n      pop\n      swap1\n      pop\n      jump(tag_191)\n        /* \"contracts/lib/eai/EAI.sol\":28975:29028  if (value == 0) {... */\n    tag_192:\n        /* \"contracts/lib/eai/EAI.sol\":29038:29050  uint256 temp */\n      0x00\n        /* \"contracts/lib/eai/EAI.sol\":29053:29058  value */\n      dup3\n        /* \"contracts/lib/eai/EAI.sol\":29038:29058  uint256 temp = value */\n      swap1\n      pop\n        /* \"contracts/lib/eai/EAI.sol\":29069:29083  uint256 digits */\n      0x00\n        /* \"contracts/lib/eai/EAI.sol\":29094:29172  while (temp != 0) {... */\n    tag_193:\n        /* \"contracts/lib/eai/EAI.sol\":29109:29110  0 */\n      0x00\n        /* \"contracts/lib/eai/EAI.sol\":29101:29105  temp */\n      dup3\n        /* \"contracts/lib/eai/EAI.sol\":29101:29110  temp != 0 */\n      eq\n        /* \"contracts/lib/eai/EAI.sol\":29094:29172  while (temp != 0) {... */\n      tag_194\n      jumpi\n        /* \"contracts/lib/eai/EAI.sol\":29127:29135  digits++ */\n      dup1\n      dup1\n      tag_195\n      swap1\n      tag_196\n      jump\t// in\n    tag_195:\n      swap2\n      pop\n      pop\n        /* \"contracts/lib/eai/EAI.sol\":29158:29160  10 */\n      0x0a\n        /* \"contracts/lib/eai/EAI.sol\":29150:29160  temp /= 10 */\n      dup3\n      tag_197\n      swap2\n      swap1\n      tag_198\n      jump\t// in\n    tag_197:\n      swap2\n      pop\n        /* \"contracts/lib/eai/EAI.sol\":29094:29172  while (temp != 0) {... */\n      jump(tag_193)\n    tag_194:\n        /* \"contracts/lib/eai/EAI.sol\":29182:29201  bytes memory buffer */\n      0x00\n        /* \"contracts/lib/eai/EAI.sol\":29214:29220  digits */\n      dup2\n        /* \"contracts/lib/eai/EAI.sol\":29204:29221  new bytes(digits) */\n      0xffffffffffffffff\n      dup2\n      gt\n      iszero\n      tag_199\n      jumpi\n      tag_200\n      tag_201\n      jump\t// in\n    tag_200:\n    tag_199:\n      mload(0x40)\n      swap1\n      dup1\n      dup3\n      mstore\n      dup1\n      0x1f\n      add\n      not(0x1f)\n      and\n      0x20\n      add\n      dup3\n      add\n      0x40\n      mstore\n      dup1\n      iszero\n      tag_202\n      jumpi\n      dup2\n      0x20\n      add\n      0x01\n      dup3\n      mul\n      dup1\n      calldatasize\n      dup4\n      calldatacopy\n      dup1\n      dup3\n      add\n      swap2\n      pop\n      pop\n      swap1\n      pop\n    tag_202:\n      pop\n        /* \"contracts/lib/eai/EAI.sol\":29182:29221  bytes memory buffer = new bytes(digits) */\n      swap1\n      pop\n        /* \"contracts/lib/eai/EAI.sol\":29232:29386  while (value != 0) {... */\n    tag_203:\n        /* \"contracts/lib/eai/EAI.sol\":29248:29249  0 */\n      0x00\n        /* \"contracts/lib/eai/EAI.sol\":29239:29244  value */\n      dup6\n        /* \"contracts/lib/eai/EAI.sol\":29239:29249  value != 0 */\n      eq\n        /* \"contracts/lib/eai/EAI.sol\":29232:29386  while (value != 0) {... */\n      tag_204\n      jumpi\n        /* \"contracts/lib/eai/EAI.sol\":29276:29277  1 */\n      0x01\n        /* \"contracts/lib/eai/EAI.sol\":29266:29277  digits -= 1 */\n      dup3\n      tag_205\n      swap2\n      swap1\n      tag_206\n      jump\t// in\n    tag_205:\n      swap2\n      pop\n        /* \"contracts/lib/eai/EAI.sol\":29343:29345  10 */\n      0x0a\n        /* \"contracts/lib/eai/EAI.sol\":29335:29340  value */\n      dup6\n        /* \"contracts/lib/eai/EAI.sol\":29335:29345  value % 10 */\n      tag_207\n      swap2\n      swap1\n      tag_208\n      jump\t// in\n    tag_207:\n        /* \"contracts/lib/eai/EAI.sol\":29322:29324  48 */\n      0x30\n        /* \"contracts/lib/eai/EAI.sol\":29322:29346  48 + uint256(value % 10) */\n      tag_209\n      swap2\n      swap1\n      tag_210\n      jump\t// in\n    tag_209:\n        /* \"contracts/lib/eai/EAI.sol\":29309:29348  bytes1(uint8(48 + uint256(value % 10))) */\n      0xf8\n      shl\n        /* \"contracts/lib/eai/EAI.sol\":29292:29298  buffer */\n      dup2\n        /* \"contracts/lib/eai/EAI.sol\":29299:29305  digits */\n      dup4\n        /* \"contracts/lib/eai/EAI.sol\":29292:29306  buffer[digits] */\n      dup2\n      mload\n      dup2\n      lt\n      tag_211\n      jumpi\n      tag_212\n      tag_64\n      jump\t// in\n    tag_212:\n    tag_211:\n      0x20\n      add\n      add\n        /* \"contracts/lib/eai/EAI.sol\":29292:29348  buffer[digits] = bytes1(uint8(48 + uint256(value % 10))) */\n      swap1\n      not(0xffffffffffffffffffffffffffffffffffffffffffffffffffffffffffffff)\n      and\n      swap1\n      dup2\n      0x00\n      byte\n      swap1\n      mstore8\n      pop\n        /* \"contracts/lib/eai/EAI.sol\":29372:29374  10 */\n      0x0a\n        /* \"contracts/lib/eai/EAI.sol\":29363:29374  value /= 10 */\n      dup6\n      tag_213\n      swap2\n      swap1\n      tag_198\n      jump\t// in\n    tag_213:\n      swap5\n      pop\n        /* \"contracts/lib/eai/EAI.sol\":29232:29386  while (value != 0) {... */\n      jump(tag_203)\n    tag_204:\n        /* \"contracts/lib/eai/EAI.sol\":29410:29416  buffer */\n      dup1\n        /* \"contracts/lib/eai/EAI.sol\":29396:29417  return string(buffer) */\n      swap4\n      pop\n      pop\n      pop\n      pop\n        /* \"contracts/lib/eai/EAI.sol\":28880:29425  function uint2String(uint256 value) internal pure returns (string memory) {... */\n    tag_191:\n      swap2\n      swap1\n      pop\n      jump\t// out\n    tag_109:\n      pop\n      dup1\n      sload\n      tag_214\n      swap1\n      tag_52\n      jump\t// in\n    tag_214:\n      0x00\n      dup3\n      sstore\n      dup1\n      0x1f\n      lt\n      tag_216\n      jumpi\n      pop\n      jump(tag_215)\n    tag_216:\n      0x1f\n      add\n      0x20\n      swap1\n      div\n      swap1\n      0x00\n      mstore\n      keccak256(0x00, 0x20)\n      swap1\n      dup2\n      add\n      swap1\n      tag_217\n      swap2\n      swap1\n      tag_218\n      jump\t// in\n    tag_217:\n    tag_215:\n      pop\n      jump\t// out\n    tag_112:\n      dup3\n      dup1\n      sload\n      tag_219\n      swap1\n      tag_52\n      jump\t// in\n    tag_219:\n      swap1\n      0x00\n      mstore\n      keccak256(0x00, 0x20)\n      swap1\n      0x1f\n      add\n      0x20\n      swap1\n      div\n      dup2\n      add\n      swap3\n      dup3\n      tag_221\n      jumpi\n      0x00\n      dup6\n      sstore\n      jump(tag_220)\n    tag_221:\n      dup3\n      0x1f\n      lt\n      tag_222\n      jumpi\n      dup1\n      mload\n      not(0xff)\n      and\n      dup4\n      dup1\n      add\n      or\n      dup6\n      sstore\n      jump(tag_220)\n    tag_222:\n      dup3\n      dup1\n      add\n      0x01\n      add\n      dup6\n      sstore\n      dup3\n      iszero\n      tag_220\n      jumpi\n      swap2\n      dup3\n      add\n    tag_223:\n      dup3\n      dup2\n      gt\n      iszero\n      tag_224\n      jumpi\n      dup3\n      mload\n      dup3\n      sstore\n      swap2\n      0x20\n      add\n      swap2\n      swap1\n      0x01\n      add\n      swap1\n      jump(tag_223)\n    tag_224:\n    tag_220:\n      pop\n      swap1\n      pop\n      tag_225\n      swap2\n      swap1\n      tag_218\n      jump\t// in\n    tag_225:\n      pop\n      swap1\n      jump\t// out\n    tag_135:\n      mload(0x40)\n      dup1\n      0x60\n      add\n      0x40\n      mstore\n      dup1\n      0x60\n      dup2\n      mstore\n      0x20\n      add\n      and(0xffffffffffffffffffffffffffffffffffffffff, 0x00)\n      dup2\n      mstore\n      0x20\n      add\n      iszero(iszero(0x00))\n      dup2\n      mstore\n      pop\n      swap1\n      jump\t// out\n    tag_149:\n      mload(0x40)\n      dup1\n      0x40\n      add\n      0x40\n      mstore\n      dup1\n      and(0xffffffff, 0x00)\n      dup2\n      mstore\n      0x20\n      add\n      and(0xffffffff, 0x00)\n      dup2\n      mstore\n      pop\n      swap1\n      jump\t// out\n    tag_152:\n      mload(0x40)\n      dup1\n      0x60\n      add\n      0x40\n      mstore\n      dup1\n      0x60\n      dup2\n      mstore\n      0x20\n      add\n      0x60\n      dup2\n      mstore\n      0x20\n      add\n      0x60\n      dup2\n      mstore\n      pop\n      swap1\n      jump\t// out\n    tag_190:\n      dup3\n      dup1\n      sload\n      tag_226\n      swap1\n      tag_52\n      jump\t// in\n    tag_226:\n      swap1\n      0x00\n      mstore\n      keccak256(0x00, 0x20)\n      swap1\n      0x1f\n      add\n      0x20\n      swap1\n      div\n      dup2\n      add\n      swap3\n      dup3\n      tag_228\n      jumpi\n      0x00\n      dup6\n      sstore\n      jump(tag_227)\n    tag_228:\n      dup3\n      0x1f\n      lt\n      tag_229\n      jumpi\n      dup1\n      sload\n      dup6\n      sstore\n      jump(tag_227)\n    tag_229:\n      dup3\n      dup1\n      add\n      0x01\n      add\n      dup6\n      sstore\n      dup3\n      iszero\n      tag_227\n      jumpi\n      0x00\n      mstore\n      keccak256(0x00, 0x20)\n      swap2\n      0x1f\n      add\n      0x20\n      swap1\n      div\n      dup3\n      add\n    tag_230:\n      dup3\n      dup2\n      gt\n      iszero\n      tag_231\n      jumpi\n      dup3\n      sload\n      dup3\n      sstore\n      swap2\n      0x01\n      add\n      swap2\n      swap1\n      0x01\n      add\n      swap1\n      jump(tag_230)\n    tag_231:\n    tag_227:\n      pop\n      swap1\n      pop\n      tag_232\n      swap2\n      swap1\n      tag_218\n      jump\t// in\n    tag_232:\n      pop\n      swap1\n      jump\t// out\n    tag_218:\n    tag_233:\n      dup1\n      dup3\n      gt\n      iszero\n      tag_234\n      jumpi\n      0x00\n      dup2\n      0x00\n      swap1\n      sstore\n      pop\n      0x01\n      add\n      jump(tag_233)\n    tag_234:\n      pop\n      swap1\n      jump\t// out\n        /* \"#utility.yul\":7:82   */\n    tag_235:\n        /* \"#utility.yul\":40:46   */\n      0x00\n        /* \"#utility.yul\":73:75   */\n      0x40\n        /* \"#utility.yul\":67:76   */\n      mload\n        /* \"#utility.yul\":57:76   */\n      swap1\n      pop\n        /* \"#utility.yul\":7:82   */\n      swap1\n      jump\t// out\n        /* \"#utility.yul\":88:205   */\n    tag_236:\n        /* \"#utility.yul\":197:198   */\n      0x00\n        /* \"#utility.yul\":194:195   */\n      dup1\n        /* \"#utility.yul\":187:199   */\n      revert\n        /* \"#utility.yul\":211:328   */\n    tag_237:\n        /* \"#utility.yul\":320:321   */\n      0x00\n        /* \"#utility.yul\":317:318   */\n      dup1\n        /* \"#utility.yul\":310:322   */\n      revert\n        /* \"#utility.yul\":334:427   */\n    tag_238:\n        /* \"#utility.yul\":370:377   */\n      0x00\n        /* \"#utility.yul\":410:420   */\n      0xffffffff\n        /* \"#utility.yul\":403:408   */\n      dup3\n        /* \"#utility.yul\":399:421   */\n      and\n        /* \"#utility.yul\":388:421   */\n      swap1\n      pop\n        /* \"#utility.yul\":334:427   */\n      swap2\n      swap1\n      pop\n      jump\t// out\n        /* \"#utility.yul\":433:553   */\n    tag_239:\n        /* \"#utility.yul\":505:528   */\n      tag_299\n        /* \"#utility.yul\":522:527   */\n      dup2\n        /* \"#utility.yul\":505:528   */\n      tag_238\n      jump\t// in\n    tag_299:\n        /* \"#utility.yul\":498:503   */\n      dup2\n        /* \"#utility.yul\":495:529   */\n      eq\n        /* \"#utility.yul\":485:547   */\n      tag_300\n      jumpi\n        /* \"#utility.yul\":543:544   */\n      0x00\n        /* \"#utility.yul\":540:541   */\n      dup1\n        /* \"#utility.yul\":533:545   */\n      revert\n        /* \"#utility.yul\":485:547   */\n    tag_300:\n        /* \"#utility.yul\":433:553   */\n      pop\n      jump\t// out\n        /* \"#utility.yul\":559:696   */\n    tag_240:\n        /* \"#utility.yul\":604:609   */\n      0x00\n        /* \"#utility.yul\":642:648   */\n      dup2\n        /* \"#utility.yul\":629:649   */\n      calldataload\n        /* \"#utility.yul\":620:649   */\n      swap1\n      pop\n        /* \"#utility.yul\":658:690   */\n      tag_302\n        /* \"#utility.yul\":684:689   */\n      dup2\n        /* \"#utility.yul\":658:690   */\n      tag_239\n      jump\t// in\n    tag_302:\n        /* \"#utility.yul\":559:696   */\n      swap3\n      swap2\n      pop\n      pop\n      jump\t// out\n        /* \"#utility.yul\":702:819   */\n    tag_241:\n        /* \"#utility.yul\":811:812   */\n      0x00\n        /* \"#utility.yul\":808:809   */\n      dup1\n        /* \"#utility.yul\":801:813   */\n      revert\n        /* \"#utility.yul\":825:927   */\n    tag_242:\n        /* \"#utility.yul\":866:872   */\n      0x00\n        /* \"#utility.yul\":917:919   */\n      0x1f\n        /* \"#utility.yul\":913:920   */\n      not\n        /* \"#utility.yul\":908:910   */\n      0x1f\n        /* \"#utility.yul\":901:906   */\n      dup4\n        /* \"#utility.yul\":897:911   */\n      add\n        /* \"#utility.yul\":893:921   */\n      and\n        /* \"#utility.yul\":883:921   */\n      swap1\n      pop\n        /* \"#utility.yul\":825:927   */\n      swap2\n      swap1\n      pop\n      jump\t// out\n        /* \"#utility.yul\":933:1113   */\n    tag_201:\n        /* \"#utility.yul\":981:1058   */\n      0x4e487b7100000000000000000000000000000000000000000000000000000000\n        /* \"#utility.yul\":978:979   */\n      0x00\n        /* \"#utility.yul\":971:1059   */\n      mstore\n        /* \"#utility.yul\":1078:1082   */\n      0x41\n        /* \"#utility.yul\":1075:1076   */\n      0x04\n        /* \"#utility.yul\":1068:1083   */\n      mstore\n        /* \"#utility.yul\":1102:1106   */\n      0x24\n        /* \"#utility.yul\":1099:1100   */\n      0x00\n        /* \"#utility.yul\":1092:1107   */\n      revert\n        /* \"#utility.yul\":1119:1400   */\n    tag_243:\n        /* \"#utility.yul\":1202:1229   */\n      tag_307\n        /* \"#utility.yul\":1224:1228   */\n      dup3\n        /* \"#utility.yul\":1202:1229   */\n      tag_242\n      jump\t// in\n    tag_307:\n        /* \"#utility.yul\":1194:1200   */\n      dup2\n        /* \"#utility.yul\":1190:1230   */\n      add\n        /* \"#utility.yul\":1332:1338   */\n      dup2\n        /* \"#utility.yul\":1320:1330   */\n      dup2\n        /* \"#utility.yul\":1317:1339   */\n      lt\n        /* \"#utility.yul\":1296:1314   */\n      0xffffffffffffffff\n        /* \"#utility.yul\":1284:1294   */\n      dup3\n        /* \"#utility.yul\":1281:1315   */\n      gt\n        /* \"#utility.yul\":1278:1340   */\n      or\n        /* \"#utility.yul\":1275:1363   */\n      iszero\n      tag_308\n      jumpi\n        /* \"#utility.yul\":1343:1361   */\n      tag_309\n      tag_201\n      jump\t// in\n    tag_309:\n        /* \"#utility.yul\":1275:1363   */\n    tag_308:\n        /* \"#utility.yul\":1383:1393   */\n      dup1\n        /* \"#utility.yul\":1379:1381   */\n      0x40\n        /* \"#utility.yul\":1372:1394   */\n      mstore\n        /* \"#utility.yul\":1162:1400   */\n      pop\n        /* \"#utility.yul\":1119:1400   */\n      pop\n      pop\n      jump\t// out\n        /* \"#utility.yul\":1406:1535   */\n    tag_244:\n        /* \"#utility.yul\":1440:1446   */\n      0x00\n        /* \"#utility.yul\":1467:1487   */\n      tag_311\n      tag_235\n      jump\t// in\n    tag_311:\n        /* \"#utility.yul\":1457:1487   */\n      swap1\n      pop\n        /* \"#utility.yul\":1496:1529   */\n      tag_312\n        /* \"#utility.yul\":1524:1528   */\n      dup3\n        /* \"#utility.yul\":1516:1522   */\n      dup3\n        /* \"#utility.yul\":1496:1529   */\n      tag_243\n      jump\t// in\n    tag_312:\n        /* \"#utility.yul\":1406:1535   */\n      swap2\n      swap1\n      pop\n      jump\t// out\n        /* \"#utility.yul\":1541:1862   */\n    tag_245:\n        /* \"#utility.yul\":1628:1632   */\n      0x00\n        /* \"#utility.yul\":1718:1736   */\n      0xffffffffffffffff\n        /* \"#utility.yul\":1710:1716   */\n      dup3\n        /* \"#utility.yul\":1707:1737   */\n      gt\n        /* \"#utility.yul\":1704:1760   */\n      iszero\n      tag_314\n      jumpi\n        /* \"#utility.yul\":1740:1758   */\n      tag_315\n      tag_201\n      jump\t// in\n    tag_315:\n        /* \"#utility.yul\":1704:1760   */\n    tag_314:\n        /* \"#utility.yul\":1790:1794   */\n      0x20\n        /* \"#utility.yul\":1782:1788   */\n      dup3\n        /* \"#utility.yul\":1778:1795   */\n      mul\n        /* \"#utility.yul\":1770:1795   */\n      swap1\n      pop\n        /* \"#utility.yul\":1850:1854   */\n      0x20\n        /* \"#utility.yul\":1844:1848   */\n      dup2\n        /* \"#utility.yul\":1840:1855   */\n      add\n        /* \"#utility.yul\":1832:1855   */\n      swap1\n      pop\n        /* \"#utility.yul\":1541:1862   */\n      swap2\n      swap1\n      pop\n      jump\t// out\n        /* \"#utility.yul\":1868:1985   */\n    tag_246:\n        /* \"#utility.yul\":1977:1978   */\n      0x00\n        /* \"#utility.yul\":1974:1975   */\n      dup1\n        /* \"#utility.yul\":1967:1979   */\n      revert\n        /* \"#utility.yul\":1991:2108   */\n    tag_247:\n        /* \"#utility.yul\":2100:2101   */\n      0x00\n        /* \"#utility.yul\":2097:2098   */\n      dup1\n        /* \"#utility.yul\":2090:2102   */\n      revert\n        /* \"#utility.yul\":2114:2422   */\n    tag_248:\n        /* \"#utility.yul\":2176:2180   */\n      0x00\n        /* \"#utility.yul\":2266:2284   */\n      0xffffffffffffffff\n        /* \"#utility.yul\":2258:2264   */\n      dup3\n        /* \"#utility.yul\":2255:2285   */\n      gt\n        /* \"#utility.yul\":2252:2308   */\n      iszero\n      tag_319\n      jumpi\n        /* \"#utility.yul\":2288:2306   */\n      tag_320\n      tag_201\n      jump\t// in\n    tag_320:\n        /* \"#utility.yul\":2252:2308   */\n    tag_319:\n        /* \"#utility.yul\":2326:2355   */\n      tag_321\n        /* \"#utility.yul\":2348:2354   */\n      dup3\n        /* \"#utility.yul\":2326:2355   */\n      tag_242\n      jump\t// in\n    tag_321:\n        /* \"#utility.yul\":2318:2355   */\n      swap1\n      pop\n        /* \"#utility.yul\":2410:2414   */\n      0x20\n        /* \"#utility.yul\":2404:2408   */\n      dup2\n        /* \"#utility.yul\":2400:2415   */\n      add\n        /* \"#utility.yul\":2392:2415   */\n      swap1\n      pop\n        /* \"#utility.yul\":2114:2422   */\n      swap2\n      swap1\n      pop\n      jump\t// out\n        /* \"#utility.yul\":2428:2582   */\n    tag_249:\n        /* \"#utility.yul\":2512:2518   */\n      dup3\n        /* \"#utility.yul\":2507:2510   */\n      dup2\n        /* \"#utility.yul\":2502:2505   */\n      dup4\n        /* \"#utility.yul\":2489:2519   */\n      calldatacopy\n        /* \"#utility.yul\":2574:2575   */\n      0x00\n        /* \"#utility.yul\":2565:2571   */\n      dup4\n        /* \"#utility.yul\":2560:2563   */\n      dup4\n        /* \"#utility.yul\":2556:2572   */\n      add\n        /* \"#utility.yul\":2549:2576   */\n      mstore\n        /* \"#utility.yul\":2428:2582   */\n      pop\n      pop\n      pop\n      jump\t// out\n        /* \"#utility.yul\":2588:3000   */\n    tag_250:\n        /* \"#utility.yul\":2666:2671   */\n      0x00\n        /* \"#utility.yul\":2691:2757   */\n      tag_324\n        /* \"#utility.yul\":2707:2756   */\n      tag_325\n        /* \"#utility.yul\":2749:2755   */\n      dup5\n        /* \"#utility.yul\":2707:2756   */\n      tag_248\n      jump\t// in\n    tag_325:\n        /* \"#utility.yul\":2691:2757   */\n      tag_244\n      jump\t// in\n    tag_324:\n        /* \"#utility.yul\":2682:2757   */\n      swap1\n      pop\n        /* \"#utility.yul\":2780:2786   */\n      dup3\n        /* \"#utility.yul\":2773:2778   */\n      dup2\n        /* \"#utility.yul\":2766:2787   */\n      mstore\n        /* \"#utility.yul\":2818:2822   */\n      0x20\n        /* \"#utility.yul\":2811:2816   */\n      dup2\n        /* \"#utility.yul\":2807:2823   */\n      add\n        /* \"#utility.yul\":2856:2859   */\n      dup5\n        /* \"#utility.yul\":2847:2853   */\n      dup5\n        /* \"#utility.yul\":2842:2845   */\n      dup5\n        /* \"#utility.yul\":2838:2854   */\n      add\n        /* \"#utility.yul\":2835:2860   */\n      gt\n        /* \"#utility.yul\":2832:2944   */\n      iszero\n      tag_326\n      jumpi\n        /* \"#utility.yul\":2863:2942   */\n      tag_327\n      tag_247\n      jump\t// in\n    tag_327:\n        /* \"#utility.yul\":2832:2944   */\n    tag_326:\n        /* \"#utility.yul\":2953:2994   */\n      tag_328\n        /* \"#utility.yul\":2987:2993   */\n      dup5\n        /* \"#utility.yul\":2982:2985   */\n      dup3\n        /* \"#utility.yul\":2977:2980   */\n      dup6\n        /* \"#utility.yul\":2953:2994   */\n      tag_249\n      jump\t// in\n    tag_328:\n        /* \"#utility.yul\":2672:3000   */\n      pop\n        /* \"#utility.yul\":2588:3000   */\n      swap4\n      swap3\n      pop\n      pop\n      pop\n      jump\t// out\n        /* \"#utility.yul\":3020:3360   */\n    tag_251:\n        /* \"#utility.yul\":3076:3081   */\n      0x00\n        /* \"#utility.yul\":3125:3128   */\n      dup3\n        /* \"#utility.yul\":3118:3122   */\n      0x1f\n        /* \"#utility.yul\":3110:3116   */\n      dup4\n        /* \"#utility.yul\":3106:3123   */\n      add\n        /* \"#utility.yul\":3102:3129   */\n      slt\n        /* \"#utility.yul\":3092:3214   */\n      tag_330\n      jumpi\n        /* \"#utility.yul\":3133:3212   */\n      tag_331\n      tag_241\n      jump\t// in\n    tag_331:\n        /* \"#utility.yul\":3092:3214   */\n    tag_330:\n        /* \"#utility.yul\":3250:3256   */\n      dup2\n        /* \"#utility.yul\":3237:3257   */\n      calldataload\n        /* \"#utility.yul\":3275:3354   */\n      tag_332\n        /* \"#utility.yul\":3350:3353   */\n      dup5\n        /* \"#utility.yul\":3342:3348   */\n      dup3\n        /* \"#utility.yul\":3335:3339   */\n      0x20\n        /* \"#utility.yul\":3327:3333   */\n      dup7\n        /* \"#utility.yul\":3323:3340   */\n      add\n        /* \"#utility.yul\":3275:3354   */\n      tag_250\n      jump\t// in\n    tag_332:\n        /* \"#utility.yul\":3266:3354   */\n      swap2\n      pop\n        /* \"#utility.yul\":3082:3360   */\n      pop\n        /* \"#utility.yul\":3020:3360   */\n      swap3\n      swap2\n      pop\n      pop\n      jump\t// out\n        /* \"#utility.yul\":3382:4327   */\n    tag_252:\n        /* \"#utility.yul\":3488:3493   */\n      0x00\n        /* \"#utility.yul\":3513:3604   */\n      tag_334\n        /* \"#utility.yul\":3529:3603   */\n      tag_335\n        /* \"#utility.yul\":3596:3602   */\n      dup5\n        /* \"#utility.yul\":3529:3603   */\n      tag_245\n      jump\t// in\n    tag_335:\n        /* \"#utility.yul\":3513:3604   */\n      tag_244\n      jump\t// in\n    tag_334:\n        /* \"#utility.yul\":3504:3604   */\n      swap1\n      pop\n        /* \"#utility.yul\":3624:3629   */\n      dup1\n        /* \"#utility.yul\":3653:3659   */\n      dup4\n        /* \"#utility.yul\":3646:3651   */\n      dup3\n        /* \"#utility.yul\":3639:3660   */\n      mstore\n        /* \"#utility.yul\":3687:3691   */\n      0x20\n        /* \"#utility.yul\":3680:3685   */\n      dup3\n        /* \"#utility.yul\":3676:3692   */\n      add\n        /* \"#utility.yul\":3669:3692   */\n      swap1\n      pop\n        /* \"#utility.yul\":3740:3744   */\n      0x20\n        /* \"#utility.yul\":3732:3738   */\n      dup5\n        /* \"#utility.yul\":3728:3745   */\n      mul\n        /* \"#utility.yul\":3720:3726   */\n      dup4\n        /* \"#utility.yul\":3716:3746   */\n      add\n        /* \"#utility.yul\":3769:3772   */\n      dup6\n        /* \"#utility.yul\":3761:3767   */\n      dup2\n        /* \"#utility.yul\":3758:3773   */\n      gt\n        /* \"#utility.yul\":3755:3877   */\n      iszero\n      tag_336\n      jumpi\n        /* \"#utility.yul\":3788:3867   */\n      tag_337\n      tag_246\n      jump\t// in\n    tag_337:\n        /* \"#utility.yul\":3755:3877   */\n    tag_336:\n        /* \"#utility.yul\":3903:3909   */\n      dup4\n        /* \"#utility.yul\":3886:4321   */\n    tag_338:\n        /* \"#utility.yul\":3920:3926   */\n      dup2\n        /* \"#utility.yul\":3915:3918   */\n      dup2\n        /* \"#utility.yul\":3912:3927   */\n      lt\n        /* \"#utility.yul\":3886:4321   */\n      iszero\n      tag_340\n      jumpi\n        /* \"#utility.yul\":4009:4012   */\n      dup1\n        /* \"#utility.yul\":3996:4013   */\n      calldataload\n        /* \"#utility.yul\":4045:4063   */\n      0xffffffffffffffff\n        /* \"#utility.yul\":4032:4043   */\n      dup2\n        /* \"#utility.yul\":4029:4064   */\n      gt\n        /* \"#utility.yul\":4026:4148   */\n      iszero\n      tag_341\n      jumpi\n        /* \"#utility.yul\":4067:4146   */\n      tag_342\n      tag_241\n      jump\t// in\n    tag_342:\n        /* \"#utility.yul\":4026:4148   */\n    tag_341:\n        /* \"#utility.yul\":4191:4202   */\n      dup1\n        /* \"#utility.yul\":4183:4189   */\n      dup7\n        /* \"#utility.yul\":4179:4203   */\n      add\n        /* \"#utility.yul\":4229:4276   */\n      tag_343\n        /* \"#utility.yul\":4272:4275   */\n      dup10\n        /* \"#utility.yul\":4260:4270   */\n      dup3\n        /* \"#utility.yul\":4229:4276   */\n      tag_251\n      jump\t// in\n    tag_343:\n        /* \"#utility.yul\":4224:4227   */\n      dup6\n        /* \"#utility.yul\":4217:4277   */\n      mstore\n        /* \"#utility.yul\":4306:4310   */\n      0x20\n        /* \"#utility.yul\":4301:4304   */\n      dup6\n        /* \"#utility.yul\":4297:4311   */\n      add\n        /* \"#utility.yul\":4290:4311   */\n      swap5\n      pop\n        /* \"#utility.yul\":3962:4321   */\n      pop\n      pop\n        /* \"#utility.yul\":3946:3950   */\n      0x20\n        /* \"#utility.yul\":3941:3944   */\n      dup2\n        /* \"#utility.yul\":3937:3951   */\n      add\n        /* \"#utility.yul\":3930:3951   */\n      swap1\n      pop\n        /* \"#utility.yul\":3886:4321   */\n      jump(tag_338)\n    tag_340:\n        /* \"#utility.yul\":3890:3911   */\n      pop\n        /* \"#utility.yul\":3494:4327   */\n      pop\n      pop\n        /* \"#utility.yul\":3382:4327   */\n      swap4\n      swap3\n      pop\n      pop\n      pop\n      jump\t// out\n        /* \"#utility.yul\":4349:4739   */\n    tag_253:\n        /* \"#utility.yul\":4430:4435   */\n      0x00\n        /* \"#utility.yul\":4479:4482   */\n      dup3\n        /* \"#utility.yul\":4472:4476   */\n      0x1f\n        /* \"#utility.yul\":4464:4470   */\n      dup4\n        /* \"#utility.yul\":4460:4477   */\n      add\n        /* \"#utility.yul\":4456:4483   */\n      slt\n        /* \"#utility.yul\":4446:4568   */\n      tag_345\n      jumpi\n        /* \"#utility.yul\":4487:4566   */\n      tag_346\n      tag_241\n      jump\t// in\n    tag_346:\n        /* \"#utility.yul\":4446:4568   */\n    tag_345:\n        /* \"#utility.yul\":4604:4610   */\n      dup2\n        /* \"#utility.yul\":4591:4611   */\n      calldataload\n        /* \"#utility.yul\":4629:4733   */\n      tag_347\n        /* \"#utility.yul\":4729:4732   */\n      dup5\n        /* \"#utility.yul\":4721:4727   */\n      dup3\n        /* \"#utility.yul\":4714:4718   */\n      0x20\n        /* \"#utility.yul\":4706:4712   */\n      dup7\n        /* \"#utility.yul\":4702:4719   */\n      add\n        /* \"#utility.yul\":4629:4733   */\n      tag_252\n      jump\t// in\n    tag_347:\n        /* \"#utility.yul\":4620:4733   */\n      swap2\n      pop\n        /* \"#utility.yul\":4436:4739   */\n      pop\n        /* \"#utility.yul\":4349:4739   */\n      swap3\n      swap2\n      pop\n      pop\n      jump\t// out\n        /* \"#utility.yul\":4745:5447   */\n    tag_13:\n        /* \"#utility.yul\":4847:4853   */\n      0x00\n        /* \"#utility.yul\":4855:4861   */\n      dup1\n        /* \"#utility.yul\":4904:4906   */\n      0x40\n        /* \"#utility.yul\":4892:4901   */\n      dup4\n        /* \"#utility.yul\":4883:4890   */\n      dup6\n        /* \"#utility.yul\":4879:4902   */\n      sub\n        /* \"#utility.yul\":4875:4907   */\n      slt\n        /* \"#utility.yul\":4872:4991   */\n      iszero\n      tag_349\n      jumpi\n        /* \"#utility.yul\":4910:4989   */\n      tag_350\n      tag_236\n      jump\t// in\n    tag_350:\n        /* \"#utility.yul\":4872:4991   */\n    tag_349:\n        /* \"#utility.yul\":5030:5031   */\n      0x00\n        /* \"#utility.yul\":5055:5107   */\n      tag_351\n        /* \"#utility.yul\":5099:5106   */\n      dup6\n        /* \"#utility.yul\":5090:5096   */\n      dup3\n        /* \"#utility.yul\":5079:5088   */\n      dup7\n        /* \"#utility.yul\":5075:5097   */\n      add\n        /* \"#utility.yul\":5055:5107   */\n      tag_240\n      jump\t// in\n    tag_351:\n        /* \"#utility.yul\":5045:5107   */\n      swap3\n      pop\n        /* \"#utility.yul\":5001:5117   */\n      pop\n        /* \"#utility.yul\":5184:5186   */\n      0x20\n        /* \"#utility.yul\":5173:5182   */\n      dup4\n        /* \"#utility.yul\":5169:5187   */\n      add\n        /* \"#utility.yul\":5156:5188   */\n      calldataload\n        /* \"#utility.yul\":5215:5233   */\n      0xffffffffffffffff\n        /* \"#utility.yul\":5207:5213   */\n      dup2\n        /* \"#utility.yul\":5204:5234   */\n      gt\n        /* \"#utility.yul\":5201:5318   */\n      iszero\n      tag_352\n      jumpi\n        /* \"#utility.yul\":5237:5316   */\n      tag_353\n      tag_237\n      jump\t// in\n    tag_353:\n        /* \"#utility.yul\":5201:5318   */\n    tag_352:\n        /* \"#utility.yul\":5342:5430   */\n      tag_354\n        /* \"#utility.yul\":5422:5429   */\n      dup6\n        /* \"#utility.yul\":5413:5419   */\n      dup3\n        /* \"#utility.yul\":5402:5411   */\n      dup7\n        /* \"#utility.yul\":5398:5420   */\n      add\n        /* \"#utility.yul\":5342:5430   */\n      tag_253\n      jump\t// in\n    tag_354:\n        /* \"#utility.yul\":5332:5430   */\n      swap2\n      pop\n        /* \"#utility.yul\":5127:5440   */\n      pop\n        /* \"#utility.yul\":4745:5447   */\n      swap3\n      pop\n      swap3\n      swap1\n      pop\n      jump\t// out\n        /* \"#utility.yul\":5453:5543   */\n    tag_254:\n        /* \"#utility.yul\":5487:5494   */\n      0x00\n        /* \"#utility.yul\":5530:5535   */\n      dup2\n        /* \"#utility.yul\":5523:5536   */\n      iszero\n        /* \"#utility.yul\":5516:5537   */\n      iszero\n        /* \"#utility.yul\":5505:5537   */\n      swap1\n      pop\n        /* \"#utility.yul\":5453:5543   */\n      swap2\n      swap1\n      pop\n      jump\t// out\n        /* \"#utility.yul\":5549:5658   */\n    tag_255:\n        /* \"#utility.yul\":5630:5651   */\n      tag_357\n        /* \"#utility.yul\":5645:5650   */\n      dup2\n        /* \"#utility.yul\":5630:5651   */\n      tag_254\n      jump\t// in\n    tag_357:\n        /* \"#utility.yul\":5625:5628   */\n      dup3\n        /* \"#utility.yul\":5618:5652   */\n      mstore\n        /* \"#utility.yul\":5549:5658   */\n      pop\n      pop\n      jump\t// out\n        /* \"#utility.yul\":5664:5874   */\n    tag_16:\n        /* \"#utility.yul\":5751:5755   */\n      0x00\n        /* \"#utility.yul\":5789:5791   */\n      0x20\n        /* \"#utility.yul\":5778:5787   */\n      dup3\n        /* \"#utility.yul\":5774:5792   */\n      add\n        /* \"#utility.yul\":5766:5792   */\n      swap1\n      pop\n        /* \"#utility.yul\":5802:5867   */\n      tag_359\n        /* \"#utility.yul\":5864:5865   */\n      0x00\n        /* \"#utility.yul\":5853:5862   */\n      dup4\n        /* \"#utility.yul\":5849:5866   */\n      add\n        /* \"#utility.yul\":5840:5846   */\n      dup5\n        /* \"#utility.yul\":5802:5867   */\n      tag_255\n      jump\t// in\n    tag_359:\n        /* \"#utility.yul\":5664:5874   */\n      swap3\n      swap2\n      pop\n      pop\n      jump\t// out\n        /* \"#utility.yul\":5880:6207   */\n    tag_19:\n        /* \"#utility.yul\":5938:5944   */\n      0x00\n        /* \"#utility.yul\":5987:5989   */\n      0x20\n        /* \"#utility.yul\":5975:5984   */\n      dup3\n        /* \"#utility.yul\":5966:5973   */\n      dup5\n        /* \"#utility.yul\":5962:5985   */\n      sub\n        /* \"#utility.yul\":5958:5990   */\n      slt\n        /* \"#utility.yul\":5955:6074   */\n      iszero\n      tag_361\n      jumpi\n        /* \"#utility.yul\":5993:6072   */\n      tag_362\n      tag_236\n      jump\t// in\n    tag_362:\n        /* \"#utility.yul\":5955:6074   */\n    tag_361:\n        /* \"#utility.yul\":6113:6114   */\n      0x00\n        /* \"#utility.yul\":6138:6190   */\n      tag_363\n        /* \"#utility.yul\":6182:6189   */\n      dup5\n        /* \"#utility.yul\":6173:6179   */\n      dup3\n        /* \"#utility.yul\":6162:6171   */\n      dup6\n        /* \"#utility.yul\":6158:6180   */\n      add\n        /* \"#utility.yul\":6138:6190   */\n      tag_240\n      jump\t// in\n    tag_363:\n        /* \"#utility.yul\":6128:6190   */\n      swap2\n      pop\n        /* \"#utility.yul\":6084:6200   */\n      pop\n        /* \"#utility.yul\":5880:6207   */\n      swap3\n      swap2\n      pop\n      pop\n      jump\t// out\n        /* \"#utility.yul\":6213:6339   */\n    tag_256:\n        /* \"#utility.yul\":6250:6257   */\n      0x00\n        /* \"#utility.yul\":6290:6332   */\n      0xffffffffffffffffffffffffffffffffffffffff\n        /* \"#utility.yul\":6283:6288   */\n      dup3\n        /* \"#utility.yul\":6279:6333   */\n      and\n        /* \"#utility.yul\":6268:6333   */\n      swap1\n      pop\n        /* \"#utility.yul\":6213:6339   */\n      swap2\n      swap1\n      pop\n      jump\t// out\n        /* \"#utility.yul\":6345:6441   */\n    tag_257:\n        /* \"#utility.yul\":6382:6389   */\n      0x00\n        /* \"#utility.yul\":6411:6435   */\n      tag_366\n        /* \"#utility.yul\":6429:6434   */\n      dup3\n        /* \"#utility.yul\":6411:6435   */\n      tag_256\n      jump\t// in\n    tag_366:\n        /* \"#utility.yul\":6400:6435   */\n      swap1\n      pop\n        /* \"#utility.yul\":6345:6441   */\n      swap2\n      swap1\n      pop\n      jump\t// out\n        /* \"#utility.yul\":6447:6569   */\n    tag_258:\n        /* \"#utility.yul\":6520:6544   */\n      tag_368\n        /* \"#utility.yul\":6538:6543   */\n      dup2\n        /* \"#utility.yul\":6520:6544   */\n      tag_257\n      jump\t// in\n    tag_368:\n        /* \"#utility.yul\":6513:6518   */\n      dup2\n        /* \"#utility.yul\":6510:6545   */\n      eq\n        /* \"#utility.yul\":6500:6563   */\n      tag_369\n      jumpi\n        /* \"#utility.yul\":6559:6560   */\n      0x00\n        /* \"#utility.yul\":6556:6557   */\n      dup1\n        /* \"#utility.yul\":6549:6561   */\n      revert\n        /* \"#utility.yul\":6500:6563   */\n    tag_369:\n        /* \"#utility.yul\":6447:6569   */\n      pop\n      jump\t// out\n        /* \"#utility.yul\":6575:6714   */\n    tag_259:\n        /* \"#utility.yul\":6621:6626   */\n      0x00\n        /* \"#utility.yul\":6659:6665   */\n      dup2\n        /* \"#utility.yul\":6646:6666   */\n      calldataload\n        /* \"#utility.yul\":6637:6666   */\n      swap1\n      pop\n        /* \"#utility.yul\":6675:6708   */\n      tag_371\n        /* \"#utility.yul\":6702:6707   */\n      dup2\n        /* \"#utility.yul\":6675:6708   */\n      tag_258\n      jump\t// in\n    tag_371:\n        /* \"#utility.yul\":6575:6714   */\n      swap3\n      swap2\n      pop\n      pop\n      jump\t// out\n        /* \"#utility.yul\":6720:7374   */\n    tag_23:\n        /* \"#utility.yul\":6798:6804   */\n      0x00\n        /* \"#utility.yul\":6806:6812   */\n      dup1\n        /* \"#utility.yul\":6855:6857   */\n      0x40\n        /* \"#utility.yul\":6843:6852   */\n      dup4\n        /* \"#utility.yul\":6834:6841   */\n      dup6\n        /* \"#utility.yul\":6830:6853   */\n      sub\n        /* \"#utility.yul\":6826:6858   */\n      slt\n        /* \"#utility.yul\":6823:6942   */\n      iszero\n      tag_373\n      jumpi\n        /* \"#utility.yul\":6861:6940   */\n      tag_374\n      tag_236\n      jump\t// in\n    tag_374:\n        /* \"#utility.yul\":6823:6942   */\n    tag_373:\n        /* \"#utility.yul\":7009:7010   */\n      0x00\n        /* \"#utility.yul\":6998:7007   */\n      dup4\n        /* \"#utility.yul\":6994:7011   */\n      add\n        /* \"#utility.yul\":6981:7012   */\n      calldataload\n        /* \"#utility.yul\":7039:7057   */\n      0xffffffffffffffff\n        /* \"#utility.yul\":7031:7037   */\n      dup2\n        /* \"#utility.yul\":7028:7058   */\n      gt\n        /* \"#utility.yul\":7025:7142   */\n      iszero\n      tag_375\n      jumpi\n        /* \"#utility.yul\":7061:7140   */\n      tag_376\n      tag_237\n      jump\t// in\n    tag_376:\n        /* \"#utility.yul\":7025:7142   */\n    tag_375:\n        /* \"#utility.yul\":7166:7229   */\n      tag_377\n        /* \"#utility.yul\":7221:7228   */\n      dup6\n        /* \"#utility.yul\":7212:7218   */\n      dup3\n        /* \"#utility.yul\":7201:7210   */\n      dup7\n        /* \"#utility.yul\":7197:7219   */\n      add\n        /* \"#utility.yul\":7166:7229   */\n      tag_251\n      jump\t// in\n    tag_377:\n        /* \"#utility.yul\":7156:7229   */\n      swap3\n      pop\n        /* \"#utility.yul\":6952:7239   */\n      pop\n        /* \"#utility.yul\":7278:7280   */\n      0x20\n        /* \"#utility.yul\":7304:7357   */\n      tag_378\n        /* \"#utility.yul\":7349:7356   */\n      dup6\n        /* \"#utility.yul\":7340:7346   */\n      dup3\n        /* \"#utility.yul\":7329:7338   */\n      dup7\n        /* \"#utility.yul\":7325:7347   */\n      add\n        /* \"#utility.yul\":7304:7357   */\n      tag_259\n      jump\t// in\n    tag_378:\n        /* \"#utility.yul\":7294:7357   */\n      swap2\n      pop\n        /* \"#utility.yul\":7249:7367   */\n      pop\n        /* \"#utility.yul\":6720:7374   */\n      swap3\n      pop\n      swap3\n      swap1\n      pop\n      jump\t// out\n        /* \"#utility.yul\":7380:7498   */\n    tag_260:\n        /* \"#utility.yul\":7467:7491   */\n      tag_380\n        /* \"#utility.yul\":7485:7490   */\n      dup2\n        /* \"#utility.yul\":7467:7491   */\n      tag_257\n      jump\t// in\n    tag_380:\n        /* \"#utility.yul\":7462:7465   */\n      dup3\n        /* \"#utility.yul\":7455:7492   */\n      mstore\n        /* \"#utility.yul\":7380:7498   */\n      pop\n      pop\n      jump\t// out\n        /* \"#utility.yul\":7504:7726   */\n    tag_29:\n        /* \"#utility.yul\":7597:7601   */\n      0x00\n        /* \"#utility.yul\":7635:7637   */\n      0x20\n        /* \"#utility.yul\":7624:7633   */\n      dup3\n        /* \"#utility.yul\":7620:7638   */\n      add\n        /* \"#utility.yul\":7612:7638   */\n      swap1\n      pop\n        /* \"#utility.yul\":7648:7719   */\n      tag_382\n        /* \"#utility.yul\":7716:7717   */\n      0x00\n        /* \"#utility.yul\":7705:7714   */\n      dup4\n        /* \"#utility.yul\":7701:7718   */\n      add\n        /* \"#utility.yul\":7692:7698   */\n      dup5\n        /* \"#utility.yul\":7648:7719   */\n      tag_260\n      jump\t// in\n    tag_382:\n        /* \"#utility.yul\":7504:7726   */\n      swap3\n      swap2\n      pop\n      pop\n      jump\t// out\n        /* \"#utility.yul\":7732:8061   */\n    tag_38:\n        /* \"#utility.yul\":7791:7797   */\n      0x00\n        /* \"#utility.yul\":7840:7842   */\n      0x20\n        /* \"#utility.yul\":7828:7837   */\n      dup3\n        /* \"#utility.yul\":7819:7826   */\n      dup5\n        /* \"#utility.yul\":7815:7838   */\n      sub\n        /* \"#utility.yul\":7811:7843   */\n      slt\n        /* \"#utility.yul\":7808:7927   */\n      iszero\n      tag_384\n      jumpi\n        /* \"#utility.yul\":7846:7925   */\n      tag_385\n      tag_236\n      jump\t// in\n    tag_385:\n        /* \"#utility.yul\":7808:7927   */\n    tag_384:\n        /* \"#utility.yul\":7966:7967   */\n      0x00\n        /* \"#utility.yul\":7991:8044   */\n      tag_386\n        /* \"#utility.yul\":8036:8043   */\n      dup5\n        /* \"#utility.yul\":8027:8033   */\n      dup3\n        /* \"#utility.yul\":8016:8025   */\n      dup6\n        /* \"#utility.yul\":8012:8034   */\n      add\n        /* \"#utility.yul\":7991:8044   */\n      tag_259\n      jump\t// in\n    tag_386:\n        /* \"#utility.yul\":7981:8044   */\n      swap2\n      pop\n        /* \"#utility.yul\":7937:8054   */\n      pop\n        /* \"#utility.yul\":7732:8061   */\n      swap3\n      swap2\n      pop\n      pop\n      jump\t// out\n        /* \"#utility.yul\":8067:8166   */\n    tag_261:\n        /* \"#utility.yul\":8119:8125   */\n      0x00\n        /* \"#utility.yul\":8153:8158   */\n      dup2\n        /* \"#utility.yul\":8147:8159   */\n      mload\n        /* \"#utility.yul\":8137:8159   */\n      swap1\n      pop\n        /* \"#utility.yul\":8067:8166   */\n      swap2\n      swap1\n      pop\n      jump\t// out\n        /* \"#utility.yul\":8172:8331   */\n    tag_262:\n        /* \"#utility.yul\":8246:8257   */\n      0x00\n        /* \"#utility.yul\":8280:8286   */\n      dup3\n        /* \"#utility.yul\":8275:8278   */\n      dup3\n        /* \"#utility.yul\":8268:8287   */\n      mstore\n        /* \"#utility.yul\":8320:8324   */\n      0x20\n        /* \"#utility.yul\":8315:8318   */\n      dup3\n        /* \"#utility.yul\":8311:8325   */\n      add\n        /* \"#utility.yul\":8296:8325   */\n      swap1\n      pop\n        /* \"#utility.yul\":8172:8331   */\n      swap3\n      swap2\n      pop\n      pop\n      jump\t// out\n        /* \"#utility.yul\":8337:8644   */\n    tag_263:\n        /* \"#utility.yul\":8405:8406   */\n      0x00\n        /* \"#utility.yul\":8415:8528   */\n    tag_390:\n        /* \"#utility.yul\":8429:8435   */\n      dup4\n        /* \"#utility.yul\":8426:8427   */\n      dup2\n        /* \"#utility.yul\":8423:8436   */\n      lt\n        /* \"#utility.yul\":8415:8528   */\n      iszero\n      tag_392\n      jumpi\n        /* \"#utility.yul\":8514:8515   */\n      dup1\n        /* \"#utility.yul\":8509:8512   */\n      dup3\n        /* \"#utility.yul\":8505:8516   */\n      add\n        /* \"#utility.yul\":8499:8517   */\n      mload\n        /* \"#utility.yul\":8495:8496   */\n      dup2\n        /* \"#utility.yul\":8490:8493   */\n      dup5\n        /* \"#utility.yul\":8486:8497   */\n      add\n        /* \"#utility.yul\":8479:8518   */\n      mstore\n        /* \"#utility.yul\":8451:8453   */\n      0x20\n        /* \"#utility.yul\":8448:8449   */\n      dup2\n        /* \"#utility.yul\":8444:8454   */\n      add\n        /* \"#utility.yul\":8439:8454   */\n      swap1\n      pop\n        /* \"#utility.yul\":8415:8528   */\n      jump(tag_390)\n    tag_392:\n        /* \"#utility.yul\":8546:8552   */\n      dup4\n        /* \"#utility.yul\":8543:8544   */\n      dup2\n        /* \"#utility.yul\":8540:8553   */\n      gt\n        /* \"#utility.yul\":8537:8638   */\n      iszero\n      tag_393\n      jumpi\n        /* \"#utility.yul\":8626:8627   */\n      0x00\n        /* \"#utility.yul\":8617:8623   */\n      dup5\n        /* \"#utility.yul\":8612:8615   */\n      dup5\n        /* \"#utility.yul\":8608:8624   */\n      add\n        /* \"#utility.yul\":8601:8628   */\n      mstore\n        /* \"#utility.yul\":8537:8638   */\n    tag_393:\n        /* \"#utility.yul\":8386:8644   */\n      pop\n        /* \"#utility.yul\":8337:8644   */\n      pop\n      pop\n      pop\n      jump\t// out\n        /* \"#utility.yul\":8650:8994   */\n    tag_264:\n        /* \"#utility.yul\":8728:8731   */\n      0x00\n        /* \"#utility.yul\":8756:8795   */\n      tag_395\n        /* \"#utility.yul\":8789:8794   */\n      dup3\n        /* \"#utility.yul\":8756:8795   */\n      tag_261\n      jump\t// in\n    tag_395:\n        /* \"#utility.yul\":8811:8872   */\n      tag_396\n        /* \"#utility.yul\":8865:8871   */\n      dup2\n        /* \"#utility.yul\":8860:8863   */\n      dup6\n        /* \"#utility.yul\":8811:8872   */\n      tag_262\n      jump\t// in\n    tag_396:\n        /* \"#utility.yul\":8804:8872   */\n      swap4\n      pop\n        /* \"#utility.yul\":8881:8933   */\n      tag_397\n        /* \"#utility.yul\":8926:8932   */\n      dup2\n        /* \"#utility.yul\":8921:8924   */\n      dup6\n        /* \"#utility.yul\":8914:8918   */\n      0x20\n        /* \"#utility.yul\":8907:8912   */\n      dup7\n        /* \"#utility.yul\":8903:8919   */\n      add\n        /* \"#utility.yul\":8881:8933   */\n      tag_263\n      jump\t// in\n    tag_397:\n        /* \"#utility.yul\":8958:8987   */\n      tag_398\n        /* \"#utility.yul\":8980:8986   */\n      dup2\n        /* \"#utility.yul\":8958:8987   */\n      tag_242\n      jump\t// in\n    tag_398:\n        /* \"#utility.yul\":8953:8956   */\n      dup5\n        /* \"#utility.yul\":8949:8988   */\n      add\n        /* \"#utility.yul\":8942:8988   */\n      swap2\n      pop\n        /* \"#utility.yul\":8732:8994   */\n      pop\n        /* \"#utility.yul\":8650:8994   */\n      swap3\n      swap2\n      pop\n      pop\n      jump\t// out\n        /* \"#utility.yul\":9000:9108   */\n    tag_265:\n        /* \"#utility.yul\":9077:9101   */\n      tag_400\n        /* \"#utility.yul\":9095:9100   */\n      dup2\n        /* \"#utility.yul\":9077:9101   */\n      tag_257\n      jump\t// in\n    tag_400:\n        /* \"#utility.yul\":9072:9075   */\n      dup3\n        /* \"#utility.yul\":9065:9102   */\n      mstore\n        /* \"#utility.yul\":9000:9108   */\n      pop\n      pop\n      jump\t// out\n        /* \"#utility.yul\":9114:9213   */\n    tag_266:\n        /* \"#utility.yul\":9185:9206   */\n      tag_402\n        /* \"#utility.yul\":9200:9205   */\n      dup2\n        /* \"#utility.yul\":9185:9206   */\n      tag_254\n      jump\t// in\n    tag_402:\n        /* \"#utility.yul\":9180:9183   */\n      dup3\n        /* \"#utility.yul\":9173:9207   */\n      mstore\n        /* \"#utility.yul\":9114:9213   */\n      pop\n      pop\n      jump\t// out\n        /* \"#utility.yul\":9263:10039   */\n    tag_267:\n        /* \"#utility.yul\":9374:9377   */\n      0x00\n        /* \"#utility.yul\":9410:9414   */\n      0x60\n        /* \"#utility.yul\":9405:9408   */\n      dup4\n        /* \"#utility.yul\":9401:9415   */\n      add\n        /* \"#utility.yul\":9497:9501   */\n      0x00\n        /* \"#utility.yul\":9490:9495   */\n      dup4\n        /* \"#utility.yul\":9486:9502   */\n      add\n        /* \"#utility.yul\":9480:9503   */\n      mload\n        /* \"#utility.yul\":9550:9553   */\n      dup5\n        /* \"#utility.yul\":9544:9548   */\n      dup3\n        /* \"#utility.yul\":9540:9554   */\n      sub\n        /* \"#utility.yul\":9533:9537   */\n      0x00\n        /* \"#utility.yul\":9528:9531   */\n      dup7\n        /* \"#utility.yul\":9524:9538   */\n      add\n        /* \"#utility.yul\":9517:9555   */\n      mstore\n        /* \"#utility.yul\":9576:9649   */\n      tag_404\n        /* \"#utility.yul\":9644:9648   */\n      dup3\n        /* \"#utility.yul\":9630:9642   */\n      dup3\n        /* \"#utility.yul\":9576:9649   */\n      tag_264\n      jump\t// in\n    tag_404:\n        /* \"#utility.yul\":9568:9649   */\n      swap2\n      pop\n        /* \"#utility.yul\":9425:9660   */\n      pop\n        /* \"#utility.yul\":9751:9755   */\n      0x20\n        /* \"#utility.yul\":9744:9749   */\n      dup4\n        /* \"#utility.yul\":9740:9756   */\n      add\n        /* \"#utility.yul\":9734:9757   */\n      mload\n        /* \"#utility.yul\":9770:9833   */\n      tag_405\n        /* \"#utility.yul\":9827:9831   */\n      0x20\n        /* \"#utility.yul\":9822:9825   */\n      dup7\n        /* \"#utility.yul\":9818:9832   */\n      add\n        /* \"#utility.yul\":9804:9816   */\n      dup3\n        /* \"#utility.yul\":9770:9833   */\n      tag_265\n      jump\t// in\n    tag_405:\n        /* \"#utility.yul\":9670:9843   */\n      pop\n        /* \"#utility.yul\":9926:9930   */\n      0x40\n        /* \"#utility.yul\":9919:9924   */\n      dup4\n        /* \"#utility.yul\":9915:9931   */\n      add\n        /* \"#utility.yul\":9909:9932   */\n      mload\n        /* \"#utility.yul\":9945:10002   */\n      tag_406\n        /* \"#utility.yul\":9996:10000   */\n      0x40\n        /* \"#utility.yul\":9991:9994   */\n      dup7\n        /* \"#utility.yul\":9987:10001   */\n      add\n        /* \"#utility.yul\":9973:9985   */\n      dup3\n        /* \"#utility.yul\":9945:10002   */\n      tag_266\n      jump\t// in\n    tag_406:\n        /* \"#utility.yul\":9853:10012   */\n      pop\n        /* \"#utility.yul\":10029:10033   */\n      dup1\n        /* \"#utility.yul\":10022:10033   */\n      swap2\n      pop\n        /* \"#utility.yul\":9379:10039   */\n      pop\n        /* \"#utility.yul\":9263:10039   */\n      swap3\n      swap2\n      pop\n      pop\n      jump\t// out\n        /* \"#utility.yul\":10045:10402   */\n    tag_41:\n        /* \"#utility.yul\":10180:10184   */\n      0x00\n        /* \"#utility.yul\":10218:10220   */\n      0x20\n        /* \"#utility.yul\":10207:10216   */\n      dup3\n        /* \"#utility.yul\":10203:10221   */\n      add\n        /* \"#utility.yul\":10195:10221   */\n      swap1\n      pop\n        /* \"#utility.yul\":10267:10276   */\n      dup2\n        /* \"#utility.yul\":10261:10265   */\n      dup2\n        /* \"#utility.yul\":10257:10277   */\n      sub\n        /* \"#utility.yul\":10253:10254   */\n      0x00\n        /* \"#utility.yul\":10242:10251   */\n      dup4\n        /* \"#utility.yul\":10238:10255   */\n      add\n        /* \"#utility.yul\":10231:10278   */\n      mstore\n        /* \"#utility.yul\":10295:10395   */\n      tag_408\n        /* \"#utility.yul\":10390:10394   */\n      dup2\n        /* \"#utility.yul\":10381:10387   */\n      dup5\n        /* \"#utility.yul\":10295:10395   */\n      tag_267\n      jump\t// in\n    tag_408:\n        /* \"#utility.yul\":10287:10395   */\n      swap1\n      pop\n        /* \"#utility.yul\":10045:10402   */\n      swap3\n      swap2\n      pop\n      pop\n      jump\t// out\n        /* \"#utility.yul\":10408:10577   */\n    tag_268:\n        /* \"#utility.yul\":10492:10503   */\n      0x00\n        /* \"#utility.yul\":10526:10532   */\n      dup3\n        /* \"#utility.yul\":10521:10524   */\n      dup3\n        /* \"#utility.yul\":10514:10533   */\n      mstore\n        /* \"#utility.yul\":10566:10570   */\n      0x20\n        /* \"#utility.yul\":10561:10564   */\n      dup3\n        /* \"#utility.yul\":10557:10571   */\n      add\n        /* \"#utility.yul\":10542:10571   */\n      swap1\n      pop\n        /* \"#utility.yul\":10408:10577   */\n      swap3\n      swap2\n      pop\n      pop\n      jump\t// out\n        /* \"#utility.yul\":10583:10817   */\n    tag_269:\n        /* \"#utility.yul\":10723:10757   */\n      0x4f6e6c7920746865206170706c69636174696f6e2063616e2065786563757465\n        /* \"#utility.yul\":10719:10720   */\n      0x00\n        /* \"#utility.yul\":10711:10717   */\n      dup3\n        /* \"#utility.yul\":10707:10721   */\n      add\n        /* \"#utility.yul\":10700:10758   */\n      mstore\n        /* \"#utility.yul\":10792:10809   */\n      0x2074686973206f7065726174696f6e0000000000000000000000000000000000\n        /* \"#utility.yul\":10787:10789   */\n      0x20\n        /* \"#utility.yul\":10779:10785   */\n      dup3\n        /* \"#utility.yul\":10775:10790   */\n      add\n        /* \"#utility.yul\":10768:10810   */\n      mstore\n        /* \"#utility.yul\":10583:10817   */\n      pop\n      jump\t// out\n        /* \"#utility.yul\":10823:11189   */\n    tag_270:\n        /* \"#utility.yul\":10965:10968   */\n      0x00\n        /* \"#utility.yul\":10986:11053   */\n      tag_412\n        /* \"#utility.yul\":11050:11052   */\n      0x2f\n        /* \"#utility.yul\":11045:11048   */\n      dup4\n        /* \"#utility.yul\":10986:11053   */\n      tag_268\n      jump\t// in\n    tag_412:\n        /* \"#utility.yul\":10979:11053   */\n      swap2\n      pop\n        /* \"#utility.yul\":11062:11155   */\n      tag_413\n        /* \"#utility.yul\":11151:11154   */\n      dup3\n        /* \"#utility.yul\":11062:11155   */\n      tag_269\n      jump\t// in\n    tag_413:\n        /* \"#utility.yul\":11180:11182   */\n      0x40\n        /* \"#utility.yul\":11175:11178   */\n      dup3\n        /* \"#utility.yul\":11171:11183   */\n      add\n        /* \"#utility.yul\":11164:11183   */\n      swap1\n      pop\n        /* \"#utility.yul\":10823:11189   */\n      swap2\n      swap1\n      pop\n      jump\t// out\n        /* \"#utility.yul\":11195:11614   */\n    tag_48:\n        /* \"#utility.yul\":11361:11365   */\n      0x00\n        /* \"#utility.yul\":11399:11401   */\n      0x20\n        /* \"#utility.yul\":11388:11397   */\n      dup3\n        /* \"#utility.yul\":11384:11402   */\n      add\n        /* \"#utility.yul\":11376:11402   */\n      swap1\n      pop\n        /* \"#utility.yul\":11448:11457   */\n      dup2\n        /* \"#utility.yul\":11442:11446   */\n      dup2\n        /* \"#utility.yul\":11438:11458   */\n      sub\n        /* \"#utility.yul\":11434:11435   */\n      0x00\n        /* \"#utility.yul\":11423:11432   */\n      dup4\n        /* \"#utility.yul\":11419:11436   */\n      add\n        /* \"#utility.yul\":11412:11459   */\n      mstore\n        /* \"#utility.yul\":11476:11607   */\n      tag_415\n        /* \"#utility.yul\":11602:11606   */\n      dup2\n        /* \"#utility.yul\":11476:11607   */\n      tag_270\n      jump\t// in\n    tag_415:\n        /* \"#utility.yul\":11468:11607   */\n      swap1\n      pop\n        /* \"#utility.yul\":11195:11614   */\n      swap2\n      swap1\n      pop\n      jump\t// out\n        /* \"#utility.yul\":11620:11800   */\n    tag_271:\n        /* \"#utility.yul\":11668:11745   */\n      0x4e487b7100000000000000000000000000000000000000000000000000000000\n        /* \"#utility.yul\":11665:11666   */\n      0x00\n        /* \"#utility.yul\":11658:11746   */\n      mstore\n        /* \"#utility.yul\":11765:11769   */\n      0x22\n        /* \"#utility.yul\":11762:11763   */\n      0x04\n        /* \"#utility.yul\":11755:11770   */\n      mstore\n        /* \"#utility.yul\":11789:11793   */\n      0x24\n        /* \"#utility.yul\":11786:11787   */\n      0x00\n        /* \"#utility.yul\":11779:11794   */\n      revert\n        /* \"#utility.yul\":11806:12126   */\n    tag_52:\n        /* \"#utility.yul\":11850:11856   */\n      0x00\n        /* \"#utility.yul\":11887:11888   */\n      0x02\n        /* \"#utility.yul\":11881:11885   */\n      dup3\n        /* \"#utility.yul\":11877:11889   */\n      div\n        /* \"#utility.yul\":11867:11889   */\n      swap1\n      pop\n        /* \"#utility.yul\":11934:11935   */\n      0x01\n        /* \"#utility.yul\":11928:11932   */\n      dup3\n        /* \"#utility.yul\":11924:11936   */\n      and\n        /* \"#utility.yul\":11955:11973   */\n      dup1\n        /* \"#utility.yul\":11945:12026   */\n      tag_418\n      jumpi\n        /* \"#utility.yul\":12011:12015   */\n      0x7f\n        /* \"#utility.yul\":12003:12009   */\n      dup3\n        /* \"#utility.yul\":11999:12016   */\n      and\n        /* \"#utility.yul\":11989:12016   */\n      swap2\n      pop\n        /* \"#utility.yul\":11945:12026   */\n    tag_418:\n        /* \"#utility.yul\":12073:12075   */\n      0x20\n        /* \"#utility.yul\":12065:12071   */\n      dup3\n        /* \"#utility.yul\":12062:12076   */\n      lt\n        /* \"#utility.yul\":12042:12060   */\n      dup2\n        /* \"#utility.yul\":12039:12077   */\n      sub\n        /* \"#utility.yul\":12036:12120   */\n      tag_419\n      jumpi\n        /* \"#utility.yul\":12092:12110   */\n      tag_420\n      tag_271\n      jump\t// in\n    tag_420:\n        /* \"#utility.yul\":12036:12120   */\n    tag_419:\n        /* \"#utility.yul\":11857:12126   */\n      pop\n        /* \"#utility.yul\":11806:12126   */\n      swap2\n      swap1\n      pop\n      jump\t// out\n        /* \"#utility.yul\":12132:12427   */\n    tag_272:\n        /* \"#utility.yul\":12272:12306   */\n      0x546865204170706c69636174696f6e2070617274792073686f756c6420736967\n        /* \"#utility.yul\":12268:12269   */\n      0x00\n        /* \"#utility.yul\":12260:12266   */\n      dup3\n        /* \"#utility.yul\":12256:12270   */\n      add\n        /* \"#utility.yul\":12249:12307   */\n      mstore\n        /* \"#utility.yul\":12341:12375   */\n      0x6e2074686520636f6e7472616374206265666f726520696e7465726163742077\n        /* \"#utility.yul\":12336:12338   */\n      0x20\n        /* \"#utility.yul\":12328:12334   */\n      dup3\n        /* \"#utility.yul\":12324:12339   */\n      add\n        /* \"#utility.yul\":12317:12376   */\n      mstore\n        /* \"#utility.yul\":12410:12419   */\n      0x6974682069742e00000000000000000000000000000000000000000000000000\n        /* \"#utility.yul\":12405:12407   */\n      0x40\n        /* \"#utility.yul\":12397:12403   */\n      dup3\n        /* \"#utility.yul\":12393:12408   */\n      add\n        /* \"#utility.yul\":12386:12420   */\n      mstore\n        /* \"#utility.yul\":12132:12427   */\n      pop\n      jump\t// out\n        /* \"#utility.yul\":12433:12799   */\n    tag_273:\n        /* \"#utility.yul\":12575:12578   */\n      0x00\n        /* \"#utility.yul\":12596:12663   */\n      tag_423\n        /* \"#utility.yul\":12660:12662   */\n      0x47\n        /* \"#utility.yul\":12655:12658   */\n      dup4\n        /* \"#utility.yul\":12596:12663   */\n      tag_268\n      jump\t// in\n    tag_423:\n        /* \"#utility.yul\":12589:12663   */\n      swap2\n      pop\n        /* \"#utility.yul\":12672:12765   */\n      tag_424\n        /* \"#utility.yul\":12761:12764   */\n      dup3\n        /* \"#utility.yul\":12672:12765   */\n      tag_272\n      jump\t// in\n    tag_424:\n        /* \"#utility.yul\":12790:12792   */\n      0x60\n        /* \"#utility.yul\":12785:12788   */\n      dup3\n        /* \"#utility.yul\":12781:12793   */\n      add\n        /* \"#utility.yul\":12774:12793   */\n      swap1\n      pop\n        /* \"#utility.yul\":12433:12799   */\n      swap2\n      swap1\n      pop\n      jump\t// out\n        /* \"#utility.yul\":12805:13224   */\n    tag_60:\n        /* \"#utility.yul\":12971:12975   */\n      0x00\n        /* \"#utility.yul\":13009:13011   */\n      0x20\n        /* \"#utility.yul\":12998:13007   */\n      dup3\n        /* \"#utility.yul\":12994:13012   */\n      add\n        /* \"#utility.yul\":12986:13012   */\n      swap1\n      pop\n        /* \"#utility.yul\":13058:13067   */\n      dup2\n        /* \"#utility.yul\":13052:13056   */\n      dup2\n        /* \"#utility.yul\":13048:13068   */\n      sub\n        /* \"#utility.yul\":13044:13045   */\n      0x00\n        /* \"#utility.yul\":13033:13042   */\n      dup4\n        /* \"#utility.yul\":13029:13046   */\n      add\n        /* \"#utility.yul\":13022:13069   */\n      mstore\n        /* \"#utility.yul\":13086:13217   */\n      tag_426\n        /* \"#utility.yul\":13212:13216   */\n      dup2\n        /* \"#utility.yul\":13086:13217   */\n      tag_273\n      jump\t// in\n    tag_426:\n        /* \"#utility.yul\":13078:13217   */\n      swap1\n      pop\n        /* \"#utility.yul\":12805:13224   */\n      swap2\n      swap1\n      pop\n      jump\t// out\n        /* \"#utility.yul\":13230:13410   */\n    tag_64:\n        /* \"#utility.yul\":13278:13355   */\n      0x4e487b7100000000000000000000000000000000000000000000000000000000\n        /* \"#utility.yul\":13275:13276   */\n      0x00\n        /* \"#utility.yul\":13268:13356   */\n      mstore\n        /* \"#utility.yul\":13375:13379   */\n      0x32\n        /* \"#utility.yul\":13372:13373   */\n      0x04\n        /* \"#utility.yul\":13365:13380   */\n      mstore\n        /* \"#utility.yul\":13399:13403   */\n      0x24\n        /* \"#utility.yul\":13396:13397   */\n      0x00\n        /* \"#utility.yul\":13389:13404   */\n      revert\n        /* \"#utility.yul\":13416:13587   */\n    tag_274:\n        /* \"#utility.yul\":13556:13579   */\n      0x5375636365737366756c20657865637574696f6e210000000000000000000000\n        /* \"#utility.yul\":13552:13553   */\n      0x00\n        /* \"#utility.yul\":13544:13550   */\n      dup3\n        /* \"#utility.yul\":13540:13554   */\n      add\n        /* \"#utility.yul\":13533:13580   */\n      mstore\n        /* \"#utility.yul\":13416:13587   */\n      pop\n      jump\t// out\n        /* \"#utility.yul\":13593:13959   */\n    tag_275:\n        /* \"#utility.yul\":13735:13738   */\n      0x00\n        /* \"#utility.yul\":13756:13823   */\n      tag_430\n        /* \"#utility.yul\":13820:13822   */\n      0x15\n        /* \"#utility.yul\":13815:13818   */\n      dup4\n        /* \"#utility.yul\":13756:13823   */\n      tag_268\n      jump\t// in\n    tag_430:\n        /* \"#utility.yul\":13749:13823   */\n      swap2\n      pop\n        /* \"#utility.yul\":13832:13925   */\n      tag_431\n        /* \"#utility.yul\":13921:13924   */\n      dup3\n        /* \"#utility.yul\":13832:13925   */\n      tag_274\n      jump\t// in\n    tag_431:\n        /* \"#utility.yul\":13950:13952   */\n      0x20\n        /* \"#utility.yul\":13945:13948   */\n      dup3\n        /* \"#utility.yul\":13941:13953   */\n      add\n        /* \"#utility.yul\":13934:13953   */\n      swap1\n      pop\n        /* \"#utility.yul\":13593:13959   */\n      swap2\n      swap1\n      pop\n      jump\t// out\n        /* \"#utility.yul\":13965:14384   */\n    tag_92:\n        /* \"#utility.yul\":14131:14135   */\n      0x00\n        /* \"#utility.yul\":14169:14171   */\n      0x20\n        /* \"#utility.yul\":14158:14167   */\n      dup3\n        /* \"#utility.yul\":14154:14172   */\n      add\n        /* \"#utility.yul\":14146:14172   */\n      swap1\n      pop\n        /* \"#utility.yul\":14218:14227   */\n      dup2\n        /* \"#utility.yul\":14212:14216   */\n      dup2\n        /* \"#utility.yul\":14208:14228   */\n      sub\n        /* \"#utility.yul\":14204:14205   */\n      0x00\n        /* \"#utility.yul\":14193:14202   */\n      dup4\n        /* \"#utility.yul\":14189:14206   */\n      add\n        /* \"#utility.yul\":14182:14229   */\n      mstore\n        /* \"#utility.yul\":14246:14377   */\n      tag_433\n        /* \"#utility.yul\":14372:14376   */\n      dup2\n        /* \"#utility.yul\":14246:14377   */\n      tag_275\n      jump\t// in\n    tag_433:\n        /* \"#utility.yul\":14238:14377   */\n      swap1\n      pop\n        /* \"#utility.yul\":13965:14384   */\n      swap2\n      swap1\n      pop\n      jump\t// out\n        /* \"#utility.yul\":14390:14641   */\n    tag_276:\n        /* \"#utility.yul\":14530:14564   */\n      0x52657175657374206d616465206f757473696465206f6620616c6c6f77656420\n        /* \"#utility.yul\":14526:14527   */\n      0x00\n        /* \"#utility.yul\":14518:14524   */\n      dup3\n        /* \"#utility.yul\":14514:14528   */\n      add\n        /* \"#utility.yul\":14507:14565   */\n      mstore\n        /* \"#utility.yul\":14599:14633   */\n      0x686f757273206f722064697374616e6365206c696d6974206578636565646564\n        /* \"#utility.yul\":14594:14596   */\n      0x20\n        /* \"#utility.yul\":14586:14592   */\n      dup3\n        /* \"#utility.yul\":14582:14597   */\n      add\n        /* \"#utility.yul\":14575:14634   */\n      mstore\n        /* \"#utility.yul\":14390:14641   */\n      pop\n      jump\t// out\n        /* \"#utility.yul\":14647:15013   */\n    tag_277:\n        /* \"#utility.yul\":14789:14792   */\n      0x00\n        /* \"#utility.yul\":14810:14877   */\n      tag_436\n        /* \"#utility.yul\":14874:14876   */\n      0x40\n        /* \"#utility.yul\":14869:14872   */\n      dup4\n        /* \"#utility.yul\":14810:14877   */\n      tag_268\n      jump\t// in\n    tag_436:\n        /* \"#utility.yul\":14803:14877   */\n      swap2\n      pop\n        /* \"#utility.yul\":14886:14979   */\n      tag_437\n        /* \"#utility.yul\":14975:14978   */\n      dup3\n        /* \"#utility.yul\":14886:14979   */\n      tag_276\n      jump\t// in\n    tag_437:\n        /* \"#utility.yul\":15004:15006   */\n      0x40\n        /* \"#utility.yul\":14999:15002   */\n      dup3\n        /* \"#utility.yul\":14995:15007   */\n      add\n        /* \"#utility.yul\":14988:15007   */\n      swap1\n      pop\n        /* \"#utility.yul\":14647:15013   */\n      swap2\n      swap1\n      pop\n      jump\t// out\n        /* \"#utility.yul\":15019:15438   */\n    tag_94:\n        /* \"#utility.yul\":15185:15189   */\n      0x00\n        /* \"#utility.yul\":15223:15225   */\n      0x20\n        /* \"#utility.yul\":15212:15221   */\n      dup3\n        /* \"#utility.yul\":15208:15226   */\n      add\n        /* \"#utility.yul\":15200:15226   */\n      swap1\n      pop\n        /* \"#utility.yul\":15272:15281   */\n      dup2\n        /* \"#utility.yul\":15266:15270   */\n      dup2\n        /* \"#utility.yul\":15262:15282   */\n      sub\n        /* \"#utility.yul\":15258:15259   */\n      0x00\n        /* \"#utility.yul\":15247:15256   */\n      dup4\n        /* \"#utility.yul\":15243:15260   */\n      add\n        /* \"#utility.yul\":15236:15283   */\n      mstore\n        /* \"#utility.yul\":15300:15431   */\n      tag_439\n        /* \"#utility.yul\":15426:15430   */\n      dup2\n        /* \"#utility.yul\":15300:15431   */\n      tag_277\n      jump\t// in\n    tag_439:\n        /* \"#utility.yul\":15292:15431   */\n      swap1\n      pop\n        /* \"#utility.yul\":15019:15438   */\n      swap2\n      swap1\n      pop\n      jump\t// out\n        /* \"#utility.yul\":15444:15674   */\n    tag_278:\n        /* \"#utility.yul\":15584:15618   */\n      0x4f6e6c79207468652070726f636573732063616e206578656375746520746869\n        /* \"#utility.yul\":15580:15581   */\n      0x00\n        /* \"#utility.yul\":15572:15578   */\n      dup3\n        /* \"#utility.yul\":15568:15582   */\n      add\n        /* \"#utility.yul\":15561:15619   */\n      mstore\n        /* \"#utility.yul\":15653:15666   */\n      0x73206f7065726174696f6e000000000000000000000000000000000000000000\n        /* \"#utility.yul\":15648:15650   */\n      0x20\n        /* \"#utility.yul\":15640:15646   */\n      dup3\n        /* \"#utility.yul\":15636:15651   */\n      add\n        /* \"#utility.yul\":15629:15667   */\n      mstore\n        /* \"#utility.yul\":15444:15674   */\n      pop\n      jump\t// out\n        /* \"#utility.yul\":15680:16046   */\n    tag_279:\n        /* \"#utility.yul\":15822:15825   */\n      0x00\n        /* \"#utility.yul\":15843:15910   */\n      tag_442\n        /* \"#utility.yul\":15907:15909   */\n      0x2b\n        /* \"#utility.yul\":15902:15905   */\n      dup4\n        /* \"#utility.yul\":15843:15910   */\n      tag_268\n      jump\t// in\n    tag_442:\n        /* \"#utility.yul\":15836:15910   */\n      swap2\n      pop\n        /* \"#utility.yul\":15919:16012   */\n      tag_443\n        /* \"#utility.yul\":16008:16011   */\n      dup3\n        /* \"#utility.yul\":15919:16012   */\n      tag_278\n      jump\t// in\n    tag_443:\n        /* \"#utility.yul\":16037:16039   */\n      0x40\n        /* \"#utility.yul\":16032:16035   */\n      dup3\n        /* \"#utility.yul\":16028:16040   */\n      add\n        /* \"#utility.yul\":16021:16040   */\n      swap1\n      pop\n        /* \"#utility.yul\":15680:16046   */\n      swap2\n      swap1\n      pop\n      jump\t// out\n        /* \"#utility.yul\":16052:16471   */\n    tag_98:\n        /* \"#utility.yul\":16218:16222   */\n      0x00\n        /* \"#utility.yul\":16256:16258   */\n      0x20\n        /* \"#utility.yul\":16245:16254   */\n      dup3\n        /* \"#utility.yul\":16241:16259   */\n      add\n        /* \"#utility.yul\":16233:16259   */\n      swap1\n      pop\n        /* \"#utility.yul\":16305:16314   */\n      dup2\n        /* \"#utility.yul\":16299:16303   */\n      dup2\n        /* \"#utility.yul\":16295:16315   */\n      sub\n        /* \"#utility.yul\":16291:16292   */\n      0x00\n        /* \"#utility.yul\":16280:16289   */\n      dup4\n        /* \"#utility.yul\":16276:16293   */\n      add\n        /* \"#utility.yul\":16269:16316   */\n      mstore\n        /* \"#utility.yul\":16333:16464   */\n      tag_445\n        /* \"#utility.yul\":16459:16463   */\n      dup2\n        /* \"#utility.yul\":16333:16464   */\n      tag_279\n      jump\t// in\n    tag_445:\n        /* \"#utility.yul\":16325:16464   */\n      swap1\n      pop\n        /* \"#utility.yul\":16052:16471   */\n      swap2\n      swap1\n      pop\n      jump\t// out\n        /* \"#utility.yul\":16477:16726   */\n    tag_280:\n        /* \"#utility.yul\":16617:16651   */\n      0x4f6e6c79207468652070726f63657373206f7220746865206170706c69636174\n        /* \"#utility.yul\":16613:16614   */\n      0x00\n        /* \"#utility.yul\":16605:16611   */\n      dup3\n        /* \"#utility.yul\":16601:16615   */\n      add\n        /* \"#utility.yul\":16594:16652   */\n      mstore\n        /* \"#utility.yul\":16686:16718   */\n      0x696f6e2063616e20657865637574652074686973206f7065726174696f6e0000\n        /* \"#utility.yul\":16681:16683   */\n      0x20\n        /* \"#utility.yul\":16673:16679   */\n      dup3\n        /* \"#utility.yul\":16669:16684   */\n      add\n        /* \"#utility.yul\":16662:16719   */\n      mstore\n        /* \"#utility.yul\":16477:16726   */\n      pop\n      jump\t// out\n        /* \"#utility.yul\":16732:17098   */\n    tag_281:\n        /* \"#utility.yul\":16874:16877   */\n      0x00\n        /* \"#utility.yul\":16895:16962   */\n      tag_448\n        /* \"#utility.yul\":16959:16961   */\n      0x3e\n        /* \"#utility.yul\":16954:16957   */\n      dup4\n        /* \"#utility.yul\":16895:16962   */\n      tag_268\n      jump\t// in\n    tag_448:\n        /* \"#utility.yul\":16888:16962   */\n      swap2\n      pop\n        /* \"#utility.yul\":16971:17064   */\n      tag_449\n        /* \"#utility.yul\":17060:17063   */\n      dup3\n        /* \"#utility.yul\":16971:17064   */\n      tag_280\n      jump\t// in\n    tag_449:\n        /* \"#utility.yul\":17089:17091   */\n      0x40\n        /* \"#utility.yul\":17084:17087   */\n      dup3\n        /* \"#utility.yul\":17080:17092   */\n      add\n        /* \"#utility.yul\":17073:17092   */\n      swap1\n      pop\n        /* \"#utility.yul\":16732:17098   */\n      swap2\n      swap1\n      pop\n      jump\t// out\n        /* \"#utility.yul\":17104:17523   */\n    tag_119:\n        /* \"#utility.yul\":17270:17274   */\n      0x00\n        /* \"#utility.yul\":17308:17310   */\n      0x20\n        /* \"#utility.yul\":17297:17306   */\n      dup3\n        /* \"#utility.yul\":17293:17311   */\n      add\n        /* \"#utility.yul\":17285:17311   */\n      swap1\n      pop\n        /* \"#utility.yul\":17357:17366   */\n      dup2\n        /* \"#utility.yul\":17351:17355   */\n      dup2\n        /* \"#utility.yul\":17347:17367   */\n      sub\n        /* \"#utility.yul\":17343:17344   */\n      0x00\n        /* \"#utility.yul\":17332:17341   */\n      dup4\n        /* \"#utility.yul\":17328:17345   */\n      add\n        /* \"#utility.yul\":17321:17368   */\n      mstore\n        /* \"#utility.yul\":17385:17516   */\n      tag_451\n        /* \"#utility.yul\":17511:17515   */\n      dup2\n        /* \"#utility.yul\":17385:17516   */\n      tag_281\n      jump\t// in\n    tag_451:\n        /* \"#utility.yul\":17377:17516   */\n      swap1\n      pop\n        /* \"#utility.yul\":17104:17523   */\n      swap2\n      swap1\n      pop\n      jump\t// out\n        /* \"#utility.yul\":17529:17709   */\n    tag_282:\n        /* \"#utility.yul\":17669:17701   */\n      0x54686520636f6e747261637420697320616c7265616479207369676e65640000\n        /* \"#utility.yul\":17665:17666   */\n      0x00\n        /* \"#utility.yul\":17657:17663   */\n      dup3\n        /* \"#utility.yul\":17653:17667   */\n      add\n        /* \"#utility.yul\":17646:17702   */\n      mstore\n        /* \"#utility.yul\":17529:17709   */\n      pop\n      jump\t// out\n        /* \"#utility.yul\":17715:18081   */\n    tag_283:\n        /* \"#utility.yul\":17857:17860   */\n      0x00\n        /* \"#utility.yul\":17878:17945   */\n      tag_454\n        /* \"#utility.yul\":17942:17944   */\n      0x1e\n        /* \"#utility.yul\":17937:17940   */\n      dup4\n        /* \"#utility.yul\":17878:17945   */\n      tag_268\n      jump\t// in\n    tag_454:\n        /* \"#utility.yul\":17871:17945   */\n      swap2\n      pop\n        /* \"#utility.yul\":17954:18047   */\n      tag_455\n        /* \"#utility.yul\":18043:18046   */\n      dup3\n        /* \"#utility.yul\":17954:18047   */\n      tag_282\n      jump\t// in\n    tag_455:\n        /* \"#utility.yul\":18072:18074   */\n      0x20\n        /* \"#utility.yul\":18067:18070   */\n      dup3\n        /* \"#utility.yul\":18063:18075   */\n      add\n        /* \"#utility.yul\":18056:18075   */\n      swap1\n      pop\n        /* \"#utility.yul\":17715:18081   */\n      swap2\n      swap1\n      pop\n      jump\t// out\n        /* \"#utility.yul\":18087:18506   */\n    tag_132:\n        /* \"#utility.yul\":18253:18257   */\n      0x00\n        /* \"#utility.yul\":18291:18293   */\n      0x20\n        /* \"#utility.yul\":18280:18289   */\n      dup3\n        /* \"#utility.yul\":18276:18294   */\n      add\n        /* \"#utility.yul\":18268:18294   */\n      swap1\n      pop\n        /* \"#utility.yul\":18340:18349   */\n      dup2\n        /* \"#utility.yul\":18334:18338   */\n      dup2\n        /* \"#utility.yul\":18330:18350   */\n      sub\n        /* \"#utility.yul\":18326:18327   */\n      0x00\n        /* \"#utility.yul\":18315:18324   */\n      dup4\n        /* \"#utility.yul\":18311:18328   */\n      add\n        /* \"#utility.yul\":18304:18351   */\n      mstore\n        /* \"#utility.yul\":18368:18499   */\n      tag_457\n        /* \"#utility.yul\":18494:18498   */\n      dup2\n        /* \"#utility.yul\":18368:18499   */\n      tag_283\n      jump\t// in\n    tag_457:\n        /* \"#utility.yul\":18360:18499   */\n      swap1\n      pop\n        /* \"#utility.yul\":18087:18506   */\n      swap2\n      swap1\n      pop\n      jump\t// out\n        /* \"#utility.yul\":18512:18754   */\n    tag_284:\n        /* \"#utility.yul\":18652:18686   */\n      0x4f6e6c792027213d27206f7220273d3d27206f70657261746f72732069732061\n        /* \"#utility.yul\":18648:18649   */\n      0x00\n        /* \"#utility.yul\":18640:18646   */\n      dup3\n        /* \"#utility.yul\":18636:18650   */\n      add\n        /* \"#utility.yul\":18629:18687   */\n      mstore\n        /* \"#utility.yul\":18721:18746   */\n      0x6c6c6f7720746f20636f6d7061726520737472696e6773000000000000000000\n        /* \"#utility.yul\":18716:18718   */\n      0x20\n        /* \"#utility.yul\":18708:18714   */\n      dup3\n        /* \"#utility.yul\":18704:18719   */\n      add\n        /* \"#utility.yul\":18697:18747   */\n      mstore\n        /* \"#utility.yul\":18512:18754   */\n      pop\n      jump\t// out\n        /* \"#utility.yul\":18760:19126   */\n    tag_285:\n        /* \"#utility.yul\":18902:18905   */\n      0x00\n        /* \"#utility.yul\":18923:18990   */\n      tag_460\n        /* \"#utility.yul\":18987:18989   */\n      0x37\n        /* \"#utility.yul\":18982:18985   */\n      dup4\n        /* \"#utility.yul\":18923:18990   */\n      tag_268\n      jump\t// in\n    tag_460:\n        /* \"#utility.yul\":18916:18990   */\n      swap2\n      pop\n        /* \"#utility.yul\":18999:19092   */\n      tag_461\n        /* \"#utility.yul\":19088:19091   */\n      dup3\n        /* \"#utility.yul\":18999:19092   */\n      tag_284\n      jump\t// in\n    tag_461:\n        /* \"#utility.yul\":19117:19119   */\n      0x40\n        /* \"#utility.yul\":19112:19115   */\n      dup3\n        /* \"#utility.yul\":19108:19120   */\n      add\n        /* \"#utility.yul\":19101:19120   */\n      swap1\n      pop\n        /* \"#utility.yul\":18760:19126   */\n      swap2\n      swap1\n      pop\n      jump\t// out\n        /* \"#utility.yul\":19132:19551   */\n    tag_159:\n        /* \"#utility.yul\":19298:19302   */\n      0x00\n        /* \"#utility.yul\":19336:19338   */\n      0x20\n        /* \"#utility.yul\":19325:19334   */\n      dup3\n        /* \"#utility.yul\":19321:19339   */\n      add\n        /* \"#utility.yul\":19313:19339   */\n      swap1\n      pop\n        /* \"#utility.yul\":19385:19394   */\n      dup2\n        /* \"#utility.yul\":19379:19383   */\n      dup2\n        /* \"#utility.yul\":19375:19395   */\n      sub\n        /* \"#utility.yul\":19371:19372   */\n      0x00\n        /* \"#utility.yul\":19360:19369   */\n      dup4\n        /* \"#utility.yul\":19356:19373   */\n      add\n        /* \"#utility.yul\":19349:19396   */\n      mstore\n        /* \"#utility.yul\":19413:19544   */\n      tag_463\n        /* \"#utility.yul\":19539:19543   */\n      dup2\n        /* \"#utility.yul\":19413:19544   */\n      tag_285\n      jump\t// in\n    tag_463:\n        /* \"#utility.yul\":19405:19544   */\n      swap1\n      pop\n        /* \"#utility.yul\":19132:19551   */\n      swap2\n      swap1\n      pop\n      jump\t// out\n        /* \"#utility.yul\":19557:19778   */\n    tag_286:\n        /* \"#utility.yul\":19697:19731   */\n      0x5468657265206973206e6f20656e6454696d652073657420696e2074696d656f\n        /* \"#utility.yul\":19693:19694   */\n      0x00\n        /* \"#utility.yul\":19685:19691   */\n      dup3\n        /* \"#utility.yul\":19681:19695   */\n      add\n        /* \"#utility.yul\":19674:19732   */\n      mstore\n        /* \"#utility.yul\":19766:19770   */\n      0x7574000000000000000000000000000000000000000000000000000000000000\n        /* \"#utility.yul\":19761:19763   */\n      0x20\n        /* \"#utility.yul\":19753:19759   */\n      dup3\n        /* \"#utility.yul\":19749:19764   */\n      add\n        /* \"#utility.yul\":19742:19771   */\n      mstore\n        /* \"#utility.yul\":19557:19778   */\n      pop\n      jump\t// out\n        /* \"#utility.yul\":19784:20150   */\n    tag_287:\n        /* \"#utility.yul\":19926:19929   */\n      0x00\n        /* \"#utility.yul\":19947:20014   */\n      tag_466\n        /* \"#utility.yul\":20011:20013   */\n      0x22\n        /* \"#utility.yul\":20006:20009   */\n      dup4\n        /* \"#utility.yul\":19947:20014   */\n      tag_268\n      jump\t// in\n    tag_466:\n        /* \"#utility.yul\":19940:20014   */\n      swap2\n      pop\n        /* \"#utility.yul\":20023:20116   */\n      tag_467\n        /* \"#utility.yul\":20112:20115   */\n      dup3\n        /* \"#utility.yul\":20023:20116   */\n      tag_286\n      jump\t// in\n    tag_467:\n        /* \"#utility.yul\":20141:20143   */\n      0x40\n        /* \"#utility.yul\":20136:20139   */\n      dup3\n        /* \"#utility.yul\":20132:20144   */\n      add\n        /* \"#utility.yul\":20125:20144   */\n      swap1\n      pop\n        /* \"#utility.yul\":19784:20150   */\n      swap2\n      swap1\n      pop\n      jump\t// out\n        /* \"#utility.yul\":20156:20575   */\n    tag_168:\n        /* \"#utility.yul\":20322:20326   */\n      0x00\n        /* \"#utility.yul\":20360:20362   */\n      0x20\n        /* \"#utility.yul\":20349:20358   */\n      dup3\n        /* \"#utility.yul\":20345:20363   */\n      add\n        /* \"#utility.yul\":20337:20363   */\n      swap1\n      pop\n        /* \"#utility.yul\":20409:20418   */\n      dup2\n        /* \"#utility.yul\":20403:20407   */\n      dup2\n        /* \"#utility.yul\":20399:20419   */\n      sub\n        /* \"#utility.yul\":20395:20396   */\n      0x00\n        /* \"#utility.yul\":20384:20393   */\n      dup4\n        /* \"#utility.yul\":20380:20397   */\n      add\n        /* \"#utility.yul\":20373:20420   */\n      mstore\n        /* \"#utility.yul\":20437:20568   */\n      tag_469\n        /* \"#utility.yul\":20563:20567   */\n      dup2\n        /* \"#utility.yul\":20437:20568   */\n      tag_287\n      jump\t// in\n    tag_469:\n        /* \"#utility.yul\":20429:20568   */\n      swap1\n      pop\n        /* \"#utility.yul\":20156:20575   */\n      swap2\n      swap1\n      pop\n      jump\t// out\n        /* \"#utility.yul\":20581:20729   */\n    tag_288:\n        /* \"#utility.yul\":20683:20694   */\n      0x00\n        /* \"#utility.yul\":20720:20723   */\n      dup2\n        /* \"#utility.yul\":20705:20723   */\n      swap1\n      pop\n        /* \"#utility.yul\":20581:20729   */\n      swap3\n      swap2\n      pop\n      pop\n      jump\t// out\n        /* \"#utility.yul\":20735:21112   */\n    tag_289:\n        /* \"#utility.yul\":20841:20844   */\n      0x00\n        /* \"#utility.yul\":20869:20908   */\n      tag_472\n        /* \"#utility.yul\":20902:20907   */\n      dup3\n        /* \"#utility.yul\":20869:20908   */\n      tag_261\n      jump\t// in\n    tag_472:\n        /* \"#utility.yul\":20924:21013   */\n      tag_473\n        /* \"#utility.yul\":21006:21012   */\n      dup2\n        /* \"#utility.yul\":21001:21004   */\n      dup6\n        /* \"#utility.yul\":20924:21013   */\n      tag_288\n      jump\t// in\n    tag_473:\n        /* \"#utility.yul\":20917:21013   */\n      swap4\n      pop\n        /* \"#utility.yul\":21022:21074   */\n      tag_474\n        /* \"#utility.yul\":21067:21073   */\n      dup2\n        /* \"#utility.yul\":21062:21065   */\n      dup6\n        /* \"#utility.yul\":21055:21059   */\n      0x20\n        /* \"#utility.yul\":21048:21053   */\n      dup7\n        /* \"#utility.yul\":21044:21060   */\n      add\n        /* \"#utility.yul\":21022:21074   */\n      tag_263\n      jump\t// in\n    tag_474:\n        /* \"#utility.yul\":21099:21105   */\n      dup1\n        /* \"#utility.yul\":21094:21097   */\n      dup5\n        /* \"#utility.yul\":21090:21106   */\n      add\n        /* \"#utility.yul\":21083:21106   */\n      swap2\n      pop\n        /* \"#utility.yul\":20845:21112   */\n      pop\n        /* \"#utility.yul\":20735:21112   */\n      swap3\n      swap2\n      pop\n      pop\n      jump\t// out\n        /* \"#utility.yul\":21118:21393   */\n    tag_174:\n        /* \"#utility.yul\":21250:21253   */\n      0x00\n        /* \"#utility.yul\":21272:21367   */\n      tag_476\n        /* \"#utility.yul\":21363:21366   */\n      dup3\n        /* \"#utility.yul\":21354:21360   */\n      dup5\n        /* \"#utility.yul\":21272:21367   */\n      tag_289\n      jump\t// in\n    tag_476:\n        /* \"#utility.yul\":21265:21367   */\n      swap2\n      pop\n        /* \"#utility.yul\":21384:21387   */\n      dup2\n        /* \"#utility.yul\":21377:21387   */\n      swap1\n      pop\n        /* \"#utility.yul\":21118:21393   */\n      swap3\n      swap2\n      pop\n      pop\n      jump\t// out\n        /* \"#utility.yul\":21399:21579   */\n    tag_290:\n        /* \"#utility.yul\":21447:21524   */\n      0x4e487b7100000000000000000000000000000000000000000000000000000000\n        /* \"#utility.yul\":21444:21445   */\n      0x00\n        /* \"#utility.yul\":21437:21525   */\n      mstore\n        /* \"#utility.yul\":21544:21548   */\n      0x11\n        /* \"#utility.yul\":21541:21542   */\n      0x04\n        /* \"#utility.yul\":21534:21549   */\n      mstore\n        /* \"#utility.yul\":21568:21572   */\n      0x24\n        /* \"#utility.yul\":21565:21566   */\n      0x00\n        /* \"#utility.yul\":21558:21573   */\n      revert\n        /* \"#utility.yul\":21585:21831   */\n    tag_186:\n        /* \"#utility.yul\":21624:21627   */\n      0x00\n        /* \"#utility.yul\":21643:21662   */\n      tag_479\n        /* \"#utility.yul\":21660:21661   */\n      dup3\n        /* \"#utility.yul\":21643:21662   */\n      tag_238\n      jump\t// in\n    tag_479:\n        /* \"#utility.yul\":21638:21662   */\n      swap2\n      pop\n        /* \"#utility.yul\":21676:21695   */\n      tag_480\n        /* \"#utility.yul\":21693:21694   */\n      dup4\n        /* \"#utility.yul\":21676:21695   */\n      tag_238\n      jump\t// in\n    tag_480:\n        /* \"#utility.yul\":21671:21695   */\n      swap3\n      pop\n        /* \"#utility.yul\":21773:21774   */\n      dup3\n        /* \"#utility.yul\":21761:21771   */\n      0xffffffff\n        /* \"#utility.yul\":21757:21775   */\n      sub\n        /* \"#utility.yul\":21754:21755   */\n      dup3\n        /* \"#utility.yul\":21751:21776   */\n      gt\n        /* \"#utility.yul\":21748:21799   */\n      iszero\n      tag_481\n      jumpi\n        /* \"#utility.yul\":21779:21797   */\n      tag_482\n      tag_290\n      jump\t// in\n    tag_482:\n        /* \"#utility.yul\":21748:21799   */\n    tag_481:\n        /* \"#utility.yul\":21823:21824   */\n      dup3\n        /* \"#utility.yul\":21820:21821   */\n      dup3\n        /* \"#utility.yul\":21816:21825   */\n      add\n        /* \"#utility.yul\":21809:21825   */\n      swap1\n      pop\n        /* \"#utility.yul\":21585:21831   */\n      swap3\n      swap2\n      pop\n      pop\n      jump\t// out\n        /* \"#utility.yul\":21837:21914   */\n    tag_291:\n        /* \"#utility.yul\":21874:21881   */\n      0x00\n        /* \"#utility.yul\":21903:21908   */\n      dup2\n        /* \"#utility.yul\":21892:21908   */\n      swap1\n      pop\n        /* \"#utility.yul\":21837:21914   */\n      swap2\n      swap1\n      pop\n      jump\t// out\n        /* \"#utility.yul\":21920:22153   */\n    tag_196:\n        /* \"#utility.yul\":21959:21962   */\n      0x00\n        /* \"#utility.yul\":21982:22006   */\n      tag_485\n        /* \"#utility.yul\":22000:22005   */\n      dup3\n        /* \"#utility.yul\":21982:22006   */\n      tag_291\n      jump\t// in\n    tag_485:\n        /* \"#utility.yul\":21973:22006   */\n      swap2\n      pop\n        /* \"#utility.yul\":22028:22094   */\n      0xffffffffffffffffffffffffffffffffffffffffffffffffffffffffffffffff\n        /* \"#utility.yul\":22021:22026   */\n      dup3\n        /* \"#utility.yul\":22018:22095   */\n      sub\n        /* \"#utility.yul\":22015:22118   */\n      tag_486\n      jumpi\n        /* \"#utility.yul\":22098:22116   */\n      tag_487\n      tag_290\n      jump\t// in\n    tag_487:\n        /* \"#utility.yul\":22015:22118   */\n    tag_486:\n        /* \"#utility.yul\":22145:22146   */\n      0x01\n        /* \"#utility.yul\":22138:22143   */\n      dup3\n        /* \"#utility.yul\":22134:22147   */\n      add\n        /* \"#utility.yul\":22127:22147   */\n      swap1\n      pop\n        /* \"#utility.yul\":21920:22153   */\n      swap2\n      swap1\n      pop\n      jump\t// out\n        /* \"#utility.yul\":22159:22339   */\n    tag_292:\n        /* \"#utility.yul\":22207:22284   */\n      0x4e487b7100000000000000000000000000000000000000000000000000000000\n        /* \"#utility.yul\":22204:22205   */\n      0x00\n        /* \"#utility.yul\":22197:22285   */\n      mstore\n        /* \"#utility.yul\":22304:22308   */\n      0x12\n        /* \"#utility.yul\":22301:22302   */\n      0x04\n        /* \"#utility.yul\":22294:22309   */\n      mstore\n        /* \"#utility.yul\":22328:22332   */\n      0x24\n        /* \"#utility.yul\":22325:22326   */\n      0x00\n        /* \"#utility.yul\":22318:22333   */\n      revert\n        /* \"#utility.yul\":22345:22530   */\n    tag_198:\n        /* \"#utility.yul\":22385:22386   */\n      0x00\n        /* \"#utility.yul\":22402:22422   */\n      tag_490\n        /* \"#utility.yul\":22420:22421   */\n      dup3\n        /* \"#utility.yul\":22402:22422   */\n      tag_291\n      jump\t// in\n    tag_490:\n        /* \"#utility.yul\":22397:22422   */\n      swap2\n      pop\n        /* \"#utility.yul\":22436:22456   */\n      tag_491\n        /* \"#utility.yul\":22454:22455   */\n      dup4\n        /* \"#utility.yul\":22436:22456   */\n      tag_291\n      jump\t// in\n    tag_491:\n        /* \"#utility.yul\":22431:22456   */\n      swap3\n      pop\n        /* \"#utility.yul\":22475:22476   */\n      dup3\n        /* \"#utility.yul\":22465:22500   */\n      tag_492\n      jumpi\n        /* \"#utility.yul\":22480:22498   */\n      tag_493\n      tag_292\n      jump\t// in\n    tag_493:\n        /* \"#utility.yul\":22465:22500   */\n    tag_492:\n        /* \"#utility.yul\":22522:22523   */\n      dup3\n        /* \"#utility.yul\":22519:22520   */\n      dup3\n        /* \"#utility.yul\":22515:22524   */\n      div\n        /* \"#utility.yul\":22510:22524   */\n      swap1\n      pop\n        /* \"#utility.yul\":22345:22530   */\n      swap3\n      swap2\n      pop\n      pop\n      jump\t// out\n        /* \"#utility.yul\":22536:22727   */\n    tag_206:\n        /* \"#utility.yul\":22576:22580   */\n      0x00\n        /* \"#utility.yul\":22596:22616   */\n      tag_495\n        /* \"#utility.yul\":22614:22615   */\n      dup3\n        /* \"#utility.yul\":22596:22616   */\n      tag_291\n      jump\t// in\n    tag_495:\n        /* \"#utility.yul\":22591:22616   */\n      swap2\n      pop\n        /* \"#utility.yul\":22630:22650   */\n      tag_496\n        /* \"#utility.yul\":22648:22649   */\n      dup4\n        /* \"#utility.yul\":22630:22650   */\n      tag_291\n      jump\t// in\n    tag_496:\n        /* \"#utility.yul\":22625:22650   */\n      swap3\n      pop\n        /* \"#utility.yul\":22669:22670   */\n      dup3\n        /* \"#utility.yul\":22666:22667   */\n      dup3\n        /* \"#utility.yul\":22663:22671   */\n      lt\n        /* \"#utility.yul\":22660:22694   */\n      iszero\n      tag_497\n      jumpi\n        /* \"#utility.yul\":22674:22692   */\n      tag_498\n      tag_290\n      jump\t// in\n    tag_498:\n        /* \"#utility.yul\":22660:22694   */\n    tag_497:\n        /* \"#utility.yul\":22719:22720   */\n      dup3\n        /* \"#utility.yul\":22716:22717   */\n      dup3\n        /* \"#utility.yul\":22712:22721   */\n      sub\n        /* \"#utility.yul\":22704:22721   */\n      swap1\n      pop\n        /* \"#utility.yul\":22536:22727   */\n      swap3\n      swap2\n      pop\n      pop\n      jump\t// out\n        /* \"#utility.yul\":22733:22909   */\n    tag_208:\n        /* \"#utility.yul\":22765:22766   */\n      0x00\n        /* \"#utility.yul\":22782:22802   */\n      tag_500\n        /* \"#utility.yul\":22800:22801   */\n      dup3\n        /* \"#utility.yul\":22782:22802   */\n      tag_291\n      jump\t// in\n    tag_500:\n        /* \"#utility.yul\":22777:22802   */\n      swap2\n      pop\n        /* \"#utility.yul\":22816:22836   */\n      tag_501\n        /* \"#utility.yul\":22834:22835   */\n      dup4\n        /* \"#utility.yul\":22816:22836   */\n      tag_291\n      jump\t// in\n    tag_501:\n        /* \"#utility.yul\":22811:22836   */\n      swap3\n      pop\n        /* \"#utility.yul\":22855:22856   */\n      dup3\n        /* \"#utility.yul\":22845:22880   */\n      tag_502\n      jumpi\n        /* \"#utility.yul\":22860:22878   */\n      tag_503\n      tag_292\n      jump\t// in\n    tag_503:\n        /* \"#utility.yul\":22845:22880   */\n    tag_502:\n        /* \"#utility.yul\":22901:22902   */\n      dup3\n        /* \"#utility.yul\":22898:22899   */\n      dup3\n        /* \"#utility.yul\":22894:22903   */\n      mod\n        /* \"#utility.yul\":22889:22903   */\n      swap1\n      pop\n        /* \"#utility.yul\":22733:22909   */\n      swap3\n      swap2\n      pop\n      pop\n      jump\t// out\n        /* \"#utility.yul\":22915:23220   */\n    tag_210:\n        /* \"#utility.yul\":22955:22958   */\n      0x00\n        /* \"#utility.yul\":22974:22994   */\n      tag_505\n        /* \"#utility.yul\":22992:22993   */\n      dup3\n        /* \"#utility.yul\":22974:22994   */\n      tag_291\n      jump\t// in\n    tag_505:\n        /* \"#utility.yul\":22969:22994   */\n      swap2\n      pop\n        /* \"#utility.yul\":23008:23028   */\n      tag_506\n        /* \"#utility.yul\":23026:23027   */\n      dup4\n        /* \"#utility.yul\":23008:23028   */\n      tag_291\n      jump\t// in\n    tag_506:\n        /* \"#utility.yul\":23003:23028   */\n      swap3\n      pop\n        /* \"#utility.yul\":23162:23163   */\n      dup3\n        /* \"#utility.yul\":23094:23160   */\n      0xffffffffffffffffffffffffffffffffffffffffffffffffffffffffffffffff\n        /* \"#utility.yul\":23090:23164   */\n      sub\n        /* \"#utility.yul\":23087:23088   */\n      dup3\n        /* \"#utility.yul\":23084:23165   */\n      gt\n        /* \"#utility.yul\":23081:23188   */\n      iszero\n      tag_507\n      jumpi\n        /* \"#utility.yul\":23168:23186   */\n      tag_508\n      tag_290\n      jump\t// in\n    tag_508:\n        /* \"#utility.yul\":23081:23188   */\n    tag_507:\n        /* \"#utility.yul\":23212:23213   */\n      dup3\n        /* \"#utility.yul\":23209:23210   */\n      dup3\n        /* \"#utility.yul\":23205:23214   */\n      add\n        /* \"#utility.yul\":23198:23214   */\n      swap1\n      pop\n        /* \"#utility.yul\":22915:23220   */\n      swap3\n      swap2\n      pop\n      pop\n      jump\t// out\n\n    auxdata: 0xa2646970667358221220a08d8d37a73e443c7316be108f3b88c03b6e42a4145413955a57d5371d822f6b64736f6c634300080d0033\n}\n",
				"bytecode": {
					"linkReferences": {},
					"object": "60806040523480156200001157600080fd5b5060405162002f5a38038062002f5a833981810160405281019062000037919062000976565b6363b14488600560006101000a81548163ffffffff021916908363ffffffff1602179055506365927808600560046101000a81548163ffffffff021916908363ffffffff160217905550620000cf6040518060400160405280601381526020017f496e746567726174696f6e2050726f6365737300000000000000000000000000815250336001620005da60201b62000f2d1760201c565b600080820151816000019080519060200190620000ee92919062000744565b5060208201518160010160006101000a81548173ffffffffffffffffffffffffffffffffffffffff021916908373ffffffffffffffffffffffffffffffffffffffff16021790555060408201518160010160146101000a81548160ff021916908315150217905550905050620001a76040518060400160405280600f81526020017f44656c69766572792053797374656d0000000000000000000000000000000000815250826000620005da60201b62000f2d1760201c565b60026000820151816000019080519060200190620001c792919062000744565b5060208201518160010160006101000a81548173ffffffffffffffffffffffffffffffffffffffff021916908373ffffffffffffffffffffffffffffffffffffffff16021790555060408201518160010160146101000a81548160ff0219169083151502179055509050506000600460003373ffffffffffffffffffffffffffffffffffffffff1673ffffffffffffffffffffffffffffffffffffffff16815260200190815260200160002060008201816000019080546200028990620009d7565b62000296929190620007d5565b506001820160009054906101000a900473ffffffffffffffffffffffffffffffffffffffff168160010160006101000a81548173ffffffffffffffffffffffffffffffffffffffff021916908373ffffffffffffffffffffffffffffffffffffffff1602179055506001820160149054906101000a900460ff168160010160146101000a81548160ff0219169083151502179055509050506002600460008373ffffffffffffffffffffffffffffffffffffffff1673ffffffffffffffffffffffffffffffffffffffff16815260200190815260200160002060008201816000019080546200038590620009d7565b62000392929190620007d5565b506001820160009054906101000a900473ffffffffffffffffffffffffffffffffffffffff168160010160006101000a81548173ffffffffffffffffffffffffffffffffffffffff021916908373ffffffffffffffffffffffffffffffffffffffff1602179055506001820160149054906101000a900460ff168160010160146101000a81548160ff02191690831515021790555090505060066200044360286200062060201b62000f711760201c565b9080600181540180825580915050600190039060005260206000200160009091909190915060008201518160000160006101000a81548163ffffffff021916908363ffffffff16021790555060208201518160000160046101000a81548163ffffffff021916908363ffffffff160217905550505060076200054b6040518060400160405280601281526020017f2f2f6275646765742f69642f74657874282900000000000000000000000000008152506040518060400160405280600281526020017f213d000000000000000000000000000000000000000000000000000000000000815250604051806020016040528060008152506200065360201b62000fa21760201c565b908060018154018082558091505060019003906000526020600020906003020160009091909190915060008201518160000190805190602001906200059292919062000744565b506020820151816001019080519060200190620005b192919062000744565b506040820151816002019080519060200190620005d092919062000744565b5050505062000ae4565b620005e46200086d565b60405180606001604052808581526020018473ffffffffffffffffffffffffffffffffffffffff16815260200183151581525090509392505050565b6200062a620008a6565b6040518060400160405280600063ffffffff1681526020018363ffffffff168152509050919050565b6200065d620008cc565b60008360008151811062000676576200067562000a0c565b5b602001015160f81c60f81b9050602160f81b817effffffffffffffffffffffffffffffffffffffffffffffffffffffffffffff19161480620006dd5750603d60f81b817effffffffffffffffffffffffffffffffffffffffffffffffffffffffffffff1916145b6200071f576040517f08c379a0000000000000000000000000000000000000000000000000000000008152600401620007169062000ac2565b60405180910390fd5b6040518060600160405280868152602001858152602001848152509150509392505050565b8280546200075290620009d7565b90600052602060002090601f016020900481019282620007765760008555620007c2565b82601f106200079157805160ff1916838001178555620007c2565b82800160010185558215620007c2579182015b82811115620007c1578251825591602001919060010190620007a4565b5b509050620007d19190620008ed565b5090565b828054620007e390620009d7565b90600052602060002090601f0160209004810192826200080757600085556200085a565b82601f106200081a57805485556200085a565b828001600101855582156200085a57600052602060002091601f016020900482015b82811115620008595782548255916001019190600101906200083c565b5b509050620008699190620008ed565b5090565b604051806060016040528060608152602001600073ffffffffffffffffffffffffffffffffffffffff1681526020016000151581525090565b6040518060400160405280600063ffffffff168152602001600063ffffffff1681525090565b60405180606001604052806060815260200160608152602001606081525090565b5b8082111562000908576000816000905550600101620008ee565b5090565b600080fd5b600073ffffffffffffffffffffffffffffffffffffffff82169050919050565b60006200093e8262000911565b9050919050565b620009508162000931565b81146200095c57600080fd5b50565b600081519050620009708162000945565b92915050565b6000602082840312156200098f576200098e6200090c565b5b60006200099f848285016200095f565b91505092915050565b7f4e487b7100000000000000000000000000000000000000000000000000000000600052602260045260246000fd5b60006002820490506001821680620009f057607f821691505b60208210810362000a065762000a05620009a8565b5b50919050565b7f4e487b7100000000000000000000000000000000000000000000000000000000600052603260045260246000fd5b600082825260208201905092915050565b7f4f6e6c792027213d27206f7220273d3d27206f70657261746f7273206973206160008201527f6c6c6f7720746f20636f6d7061726520737472696e6773000000000000000000602082015250565b600062000aaa60378362000a3b565b915062000ab78262000a4c565b604082019050919050565b6000602082019050818103600083015262000add8162000a9b565b9050919050565b6124668062000af46000396000f3fe608060405234801561001057600080fd5b506004361061007c5760003560e01c806370d8915a1161005b57806370d8915a146100fd578063859319111461011b578063b8b4f1a014610139578063fb6f8243146101575761007c565b80627cb3ed146100815780631e900392146100b15780635e744c6a146100cd575b600080fd5b61009b60048036038101906100969190611983565b610187565b6040516100a891906119fa565b60405180910390f35b6100cb60048036038101906100c69190611a15565b6106d5565b005b6100e760048036038101906100e29190611aa0565b61079c565b6040516100f491906119fa565b60405180910390f35b61010561098e565b6040516101129190611b0b565b60405180910390f35b610123610aa9565b6040516101309190611b0b565b60405180910390f35b610141610bc4565b60405161014e91906119fa565b60405180910390f35b610171600480360381019061016c9190611b26565b610ce3565b60405161017e9190611c49565b60405180910390f35b60003373ffffffffffffffffffffffffffffffffffffffff16600260010160009054906101000a900473ffffffffffffffffffffffffffffffffffffffff1673ffffffffffffffffffffffffffffffffffffffff161461021c576040517f08c379a000000000000000000000000000000000000000000000000000000000815260040161021390611cee565b60405180910390fd5b610371600460003373ffffffffffffffffffffffffffffffffffffffff1673ffffffffffffffffffffffffffffffffffffffff16815260200190815260200160002060405180606001604052908160008201805461027990611d3d565b80601f01602080910402602001604051908101604052809291908181526020018280546102a590611d3d565b80156102f25780601f106102c7576101008083540402835291602001916102f2565b820191906000526020600020905b8154815290600101906020018083116102d557829003601f168201915b505050505081526020016001820160009054906101000a900473ffffffffffffffffffffffffffffffffffffffff1673ffffffffffffffffffffffffffffffffffffffff1673ffffffffffffffffffffffffffffffffffffffff1681526020016001820160149054906101000a900460ff16151515158152505061108a565b6103b0576040517f08c379a00000000000000000000000000000000000000000000000000000000081526004016103a790611e06565b60405180910390fd5b6104388360066000815481106103c9576103c8611e26565b5b906000526020600020016040518060400160405290816000820160009054906101000a900463ffffffff1663ffffffff1663ffffffff1681526020016000820160049054906101000a900463ffffffff1663ffffffff1663ffffffff168152505061109890919063ffffffff16565b15801561065257506106518260008151811061045757610456611e26565b5b6020026020010151600760008154811061047457610473611e26565b5b906000526020600020906003020160405180606001604052908160008201805461049d90611d3d565b80601f01602080910402602001604051908101604052809291908181526020018280546104c990611d3d565b80156105165780601f106104eb57610100808354040283529160200191610516565b820191906000526020600020905b8154815290600101906020018083116104f957829003601f168201915b5050505050815260200160018201805461052f90611d3d565b80601f016020809104026020016040519081016040528092919081815260200182805461055b90611d3d565b80156105a85780601f1061057d576101008083540402835291602001916105a8565b820191906000526020600020905b81548152906001019060200180831161058b57829003601f168201915b505050505081526020016002820180546105c190611d3d565b80601f01602080910402602001604051908101604052809291908181526020018280546105ed90611d3d565b801561063a5780601f1061060f5761010080835404028352916020019161063a565b820191906000526020600020905b81548152906001019060200180831161061d57829003601f168201915b50505050508152505061112790919063ffffffff16565b5b15610695577f95a1f3a1dafdd4c1af344e3d7c69a72cbce8a3f15fe1cf95a7f5bd23df2e71a160405161068490611ea1565b60405180910390a1600190506106cf565b7f66091b7dc2b097c8f60d5cd6aa99633b097f08d2eb1056f3e15361b22e0ea2ba6040516106c290611f33565b60405180910390a1600090505b92915050565b3373ffffffffffffffffffffffffffffffffffffffff16600060010160009054906101000a900473ffffffffffffffffffffffffffffffffffffffff1673ffffffffffffffffffffffffffffffffffffffff1614610768576040517f08c379a000000000000000000000000000000000000000000000000000000000815260040161075f90611fc5565b60405180910390fd5b61079981600660008154811061078157610780611e26565b5b9060005260206000200161124990919063ffffffff16565b50565b60003373ffffffffffffffffffffffffffffffffffffffff16600060010160009054906101000a900473ffffffffffffffffffffffffffffffffffffffff1673ffffffffffffffffffffffffffffffffffffffff1614610831576040517f08c379a000000000000000000000000000000000000000000000000000000000815260040161082890611fc5565b60405180910390fd5b60046000600260010160009054906101000a900473ffffffffffffffffffffffffffffffffffffffff1673ffffffffffffffffffffffffffffffffffffffff1673ffffffffffffffffffffffffffffffffffffffff168152602001908152602001600020600080820160006108a69190611517565b6001820160006101000a81549073ffffffffffffffffffffffffffffffffffffffff02191690556001820160146101000a81549060ff021916905550506108ef83836000610f2d565b6002600082015181600001908051906020019061090d929190611557565b5060208201518160010160006101000a81548173ffffffffffffffffffffffffffffffffffffffff021916908373ffffffffffffffffffffffffffffffffffffffff16021790555060408201518160010160146101000a81548160ff0219169083151502179055509050506109838260026112b4565b506001905092915050565b60003373ffffffffffffffffffffffffffffffffffffffff16600260010160009054906101000a900473ffffffffffffffffffffffffffffffffffffffff1673ffffffffffffffffffffffffffffffffffffffff161480610a3f57503373ffffffffffffffffffffffffffffffffffffffff16600060010160009054906101000a900473ffffffffffffffffffffffffffffffffffffffff1673ffffffffffffffffffffffffffffffffffffffff16145b610a7e576040517f08c379a0000000000000000000000000000000000000000000000000000000008152600401610a7590612057565b60405180910390fd5b600260010160009054906101000a900473ffffffffffffffffffffffffffffffffffffffff16905090565b60003373ffffffffffffffffffffffffffffffffffffffff16600260010160009054906101000a900473ffffffffffffffffffffffffffffffffffffffff1673ffffffffffffffffffffffffffffffffffffffff161480610b5a57503373ffffffffffffffffffffffffffffffffffffffff16600060010160009054906101000a900473ffffffffffffffffffffffffffffffffffffffff1673ffffffffffffffffffffffffffffffffffffffff16145b610b99576040517f08c379a0000000000000000000000000000000000000000000000000000000008152600401610b9090612057565b60405180910390fd5b600060010160009054906101000a900473ffffffffffffffffffffffffffffffffffffffff16905090565b60003373ffffffffffffffffffffffffffffffffffffffff16600260010160009054906101000a900473ffffffffffffffffffffffffffffffffffffffff1673ffffffffffffffffffffffffffffffffffffffff1614610c59576040517f08c379a0000000000000000000000000000000000000000000000000000000008152600401610c5090611cee565b60405180910390fd5b60001515600260010160149054906101000a900460ff16151514610cb2576040517f08c379a0000000000000000000000000000000000000000000000000000000008152600401610ca9906120c3565b60405180910390fd5b6001600260010160146101000a81548160ff021916908315150217905550610cdb3360026112b4565b506001905090565b610ceb6115dd565b3373ffffffffffffffffffffffffffffffffffffffff16600260010160009054906101000a900473ffffffffffffffffffffffffffffffffffffffff1673ffffffffffffffffffffffffffffffffffffffff161480610d9a57503373ffffffffffffffffffffffffffffffffffffffff16600060010160009054906101000a900473ffffffffffffffffffffffffffffffffffffffff1673ffffffffffffffffffffffffffffffffffffffff16145b610dd9576040517f08c379a0000000000000000000000000000000000000000000000000000000008152600401610dd090612057565b60405180910390fd5b600460008373ffffffffffffffffffffffffffffffffffffffff1673ffffffffffffffffffffffffffffffffffffffff168152602001908152602001600020604051806060016040529081600082018054610e3390611d3d565b80601f0160208091040260200160405190810160405280929190818152602001828054610e5f90611d3d565b8015610eac5780601f10610e8157610100808354040283529160200191610eac565b820191906000526020600020905b815481529060010190602001808311610e8f57829003601f168201915b505050505081526020016001820160009054906101000a900473ffffffffffffffffffffffffffffffffffffffff1673ffffffffffffffffffffffffffffffffffffffff1673ffffffffffffffffffffffffffffffffffffffff1681526020016001820160149054906101000a900460ff1615151515815250509050919050565b610f356115dd565b60405180606001604052808581526020018473ffffffffffffffffffffffffffffffffffffffff16815260200183151581525090509392505050565b610f79611616565b6040518060400160405280600063ffffffff1681526020018363ffffffff168152509050919050565b610faa61163c565b600083600081518110610fc057610fbf611e26565b5b602001015160f81c60f81b9050602160f81b817effffffffffffffffffffffffffffffffffffffffffffffffffffffffffffff191614806110265750603d60f81b817effffffffffffffffffffffffffffffffffffffffffffffffffffffffffffff1916145b611065576040517f08c379a000000000000000000000000000000000000000000000000000000000815260040161105c90612155565b60405180910390fd5b6040518060600160405280868152602001858152602001848152509150509392505050565b600081604001519050919050565b60008160006110ac8263ffffffff166113b7565b9050600a815111156110bd57600080fd5b6000856000015163ffffffff161161110a576040517f08c379a0000000000000000000000000000000000000000000000000000000008152600401611101906121e7565b60405180910390fd5b846000015163ffffffff168463ffffffff16119250505092915050565b6000602160f81b836020015160008151811061114657611145611e26565b5b602001015160f81c60f81b7effffffffffffffffffffffffffffffffffffffffffffffffffffffffffffff1916036111dd57826040015160405160200161118d9190612243565b60405160208183030381529060405280519060200120826040516020016111b49190612243565b60405160208183030381529060405280519060200120146111d85760019050611243565b61123e565b82604001516040516020016111f29190612243565b60405160208183030381529060405280519060200120826040516020016112199190612243565b604051602081830303815290604052805190602001200361123d5760019050611243565b5b600090505b92915050565b80600061125b8263ffffffff166113b7565b9050600a8151111561126c57600080fd5b8360000160049054906101000a900463ffffffff168361128c9190612289565b8460000160006101000a81548163ffffffff021916908363ffffffff16021790555050505050565b600081600460008573ffffffffffffffffffffffffffffffffffffffff1673ffffffffffffffffffffffffffffffffffffffff168152602001908152602001600020600082018160000190805461130a90611d3d565b61131592919061165d565b506001820160009054906101000a900473ffffffffffffffffffffffffffffffffffffffff168160010160006101000a81548173ffffffffffffffffffffffffffffffffffffffff021916908373ffffffffffffffffffffffffffffffffffffffff1602179055506001820160149054906101000a900460ff168160010160146101000a81548160ff0219169083151502179055509050506001905092915050565b6060600082036113fe576040518060400160405280600181526020017f30000000000000000000000000000000000000000000000000000000000000008152509050611512565b600082905060005b60008214611430578080611419906122cd565b915050600a826114299190612344565b9150611406565b60008167ffffffffffffffff81111561144c5761144b61176d565b5b6040519080825280601f01601f19166020018201604052801561147e5781602001600182028036833780820191505090505b5090505b6000851461150b576001826114979190612375565b9150600a856114a691906123a9565b60306114b291906123da565b60f81b8183815181106114c8576114c7611e26565b5b60200101907effffffffffffffffffffffffffffffffffffffffffffffffffffffffffffff1916908160001a905350600a856115049190612344565b9450611482565b8093505050505b919050565b50805461152390611d3d565b6000825580601f106115355750611554565b601f01602090049060005260206000209081019061155391906116ea565b5b50565b82805461156390611d3d565b90600052602060002090601f01602090048101928261158557600085556115cc565b82601f1061159e57805160ff19168380011785556115cc565b828001600101855582156115cc579182015b828111156115cb5782518255916020019190600101906115b0565b5b5090506115d991906116ea565b5090565b604051806060016040528060608152602001600073ffffffffffffffffffffffffffffffffffffffff1681526020016000151581525090565b6040518060400160405280600063ffffffff168152602001600063ffffffff1681525090565b60405180606001604052806060815260200160608152602001606081525090565b82805461166990611d3d565b90600052602060002090601f01602090048101928261168b57600085556116d9565b82601f1061169c57805485556116d9565b828001600101855582156116d957600052602060002091601f016020900482015b828111156116d85782548255916001019190600101906116bd565b5b5090506116e691906116ea565b5090565b5b808211156117035760008160009055506001016116eb565b5090565b6000604051905090565b600080fd5b600080fd5b600063ffffffff82169050919050565b6117348161171b565b811461173f57600080fd5b50565b6000813590506117518161172b565b92915050565b600080fd5b6000601f19601f8301169050919050565b7f4e487b7100000000000000000000000000000000000000000000000000000000600052604160045260246000fd5b6117a58261175c565b810181811067ffffffffffffffff821117156117c4576117c361176d565b5b80604052505050565b60006117d7611707565b90506117e3828261179c565b919050565b600067ffffffffffffffff8211156118035761180261176d565b5b602082029050602081019050919050565b600080fd5b600080fd5b600067ffffffffffffffff8211156118395761183861176d565b5b6118428261175c565b9050602081019050919050565b82818337600083830152505050565b600061187161186c8461181e565b6117cd565b90508281526020810184848401111561188d5761188c611819565b5b61189884828561184f565b509392505050565b600082601f8301126118b5576118b4611757565b5b81356118c584826020860161185e565b91505092915050565b60006118e16118dc846117e8565b6117cd565b9050808382526020820190506020840283018581111561190457611903611814565b5b835b8181101561194b57803567ffffffffffffffff81111561192957611928611757565b5b80860161193689826118a0565b85526020850194505050602081019050611906565b5050509392505050565b600082601f83011261196a57611969611757565b5b813561197a8482602086016118ce565b91505092915050565b6000806040838503121561199a57611999611711565b5b60006119a885828601611742565b925050602083013567ffffffffffffffff8111156119c9576119c8611716565b5b6119d585828601611955565b9150509250929050565b60008115159050919050565b6119f4816119df565b82525050565b6000602082019050611a0f60008301846119eb565b92915050565b600060208284031215611a2b57611a2a611711565b5b6000611a3984828501611742565b91505092915050565b600073ffffffffffffffffffffffffffffffffffffffff82169050919050565b6000611a6d82611a42565b9050919050565b611a7d81611a62565b8114611a8857600080fd5b50565b600081359050611a9a81611a74565b92915050565b60008060408385031215611ab757611ab6611711565b5b600083013567ffffffffffffffff811115611ad557611ad4611716565b5b611ae1858286016118a0565b9250506020611af285828601611a8b565b9150509250929050565b611b0581611a62565b82525050565b6000602082019050611b206000830184611afc565b92915050565b600060208284031215611b3c57611b3b611711565b5b6000611b4a84828501611a8b565b91505092915050565b600081519050919050565b600082825260208201905092915050565b60005b83811015611b8d578082015181840152602081019050611b72565b83811115611b9c576000848401525b50505050565b6000611bad82611b53565b611bb78185611b5e565b9350611bc7818560208601611b6f565b611bd08161175c565b840191505092915050565b611be481611a62565b82525050565b611bf3816119df565b82525050565b60006060830160008301518482036000860152611c168282611ba2565b9150506020830151611c2b6020860182611bdb565b506040830151611c3e6040860182611bea565b508091505092915050565b60006020820190508181036000830152611c638184611bf9565b905092915050565b600082825260208201905092915050565b7f4f6e6c7920746865206170706c69636174696f6e2063616e206578656375746560008201527f2074686973206f7065726174696f6e0000000000000000000000000000000000602082015250565b6000611cd8602f83611c6b565b9150611ce382611c7c565b604082019050919050565b60006020820190508181036000830152611d0781611ccb565b9050919050565b7f4e487b7100000000000000000000000000000000000000000000000000000000600052602260045260246000fd5b60006002820490506001821680611d5557607f821691505b602082108103611d6857611d67611d0e565b5b50919050565b7f546865204170706c69636174696f6e2070617274792073686f756c642073696760008201527f6e2074686520636f6e7472616374206265666f726520696e746572616374207760208201527f6974682069742e00000000000000000000000000000000000000000000000000604082015250565b6000611df0604783611c6b565b9150611dfb82611d6e565b606082019050919050565b60006020820190508181036000830152611e1f81611de3565b9050919050565b7f4e487b7100000000000000000000000000000000000000000000000000000000600052603260045260246000fd5b7f5375636365737366756c20657865637574696f6e210000000000000000000000600082015250565b6000611e8b601583611c6b565b9150611e9682611e55565b602082019050919050565b60006020820190508181036000830152611eba81611e7e565b9050919050565b7f52657175657374206d616465206f757473696465206f6620616c6c6f7765642060008201527f686f757273206f722064697374616e6365206c696d6974206578636565646564602082015250565b6000611f1d604083611c6b565b9150611f2882611ec1565b604082019050919050565b60006020820190508181036000830152611f4c81611f10565b9050919050565b7f4f6e6c79207468652070726f636573732063616e20657865637574652074686960008201527f73206f7065726174696f6e000000000000000000000000000000000000000000602082015250565b6000611faf602b83611c6b565b9150611fba82611f53565b604082019050919050565b60006020820190508181036000830152611fde81611fa2565b9050919050565b7f4f6e6c79207468652070726f63657373206f7220746865206170706c6963617460008201527f696f6e2063616e20657865637574652074686973206f7065726174696f6e0000602082015250565b6000612041603e83611c6b565b915061204c82611fe5565b604082019050919050565b6000602082019050818103600083015261207081612034565b9050919050565b7f54686520636f6e747261637420697320616c7265616479207369676e65640000600082015250565b60006120ad601e83611c6b565b91506120b882612077565b602082019050919050565b600060208201905081810360008301526120dc816120a0565b9050919050565b7f4f6e6c792027213d27206f7220273d3d27206f70657261746f7273206973206160008201527f6c6c6f7720746f20636f6d7061726520737472696e6773000000000000000000602082015250565b600061213f603783611c6b565b915061214a826120e3565b604082019050919050565b6000602082019050818103600083015261216e81612132565b9050919050565b7f5468657265206973206e6f20656e6454696d652073657420696e2074696d656f60008201527f7574000000000000000000000000000000000000000000000000000000000000602082015250565b60006121d1602283611c6b565b91506121dc82612175565b604082019050919050565b60006020820190508181036000830152612200816121c4565b9050919050565b600081905092915050565b600061221d82611b53565b6122278185612207565b9350612237818560208601611b6f565b80840191505092915050565b600061224f8284612212565b915081905092915050565b7f4e487b7100000000000000000000000000000000000000000000000000000000600052601160045260246000fd5b60006122948261171b565b915061229f8361171b565b92508263ffffffff038211156122b8576122b761225a565b5b828201905092915050565b6000819050919050565b60006122d8826122c3565b91507fffffffffffffffffffffffffffffffffffffffffffffffffffffffffffffffff820361230a5761230961225a565b5b600182019050919050565b7f4e487b7100000000000000000000000000000000000000000000000000000000600052601260045260246000fd5b600061234f826122c3565b915061235a836122c3565b92508261236a57612369612315565b5b828204905092915050565b6000612380826122c3565b915061238b836122c3565b92508282101561239e5761239d61225a565b5b828203905092915050565b60006123b4826122c3565b91506123bf836122c3565b9250826123cf576123ce612315565b5b828206905092915050565b60006123e5826122c3565b91506123f0836122c3565b9250827fffffffffffffffffffffffffffffffffffffffffffffffffffffffffffffffff038211156124255761242461225a565b5b82820190509291505056fea2646970667358221220a08d8d37a73e443c7316be108f3b88c03b6e42a4145413955a57d5371d822f6b64736f6c634300080d0033",
					"opcodes": "PUSH1 0x80 PUSH1 0x40 MSTORE CALLVALUE DUP1 ISZERO PUSH3 0x11 JUMPI PUSH1 0x0 DUP1 REVERT JUMPDEST POP PUSH1 0x40 MLOAD PUSH3 0x2F5A CODESIZE SUB DUP1 PUSH3 0x2F5A DUP4 CODECOPY DUP2 DUP2 ADD PUSH1 0x40 MSTORE DUP2 ADD SWAP1 PUSH3 0x37 SWAP2 SWAP1 PUSH3 0x976 JUMP JUMPDEST PUSH4 0x63B14488 PUSH1 0x5 PUSH1 0x0 PUSH2 0x100 EXP DUP2 SLOAD DUP2 PUSH4 0xFFFFFFFF MUL NOT AND SWAP1 DUP4 PUSH4 0xFFFFFFFF AND MUL OR SWAP1 SSTORE POP PUSH4 0x65927808 PUSH1 0x5 PUSH1 0x4 PUSH2 0x100 EXP DUP2 SLOAD DUP2 PUSH4 0xFFFFFFFF MUL NOT AND SWAP1 DUP4 PUSH4 0xFFFFFFFF AND MUL OR SWAP1 SSTORE POP PUSH3 0xCF PUSH1 0x40 MLOAD DUP1 PUSH1 0x40 ADD PUSH1 0x40 MSTORE DUP1 PUSH1 0x13 DUP2 MSTORE PUSH1 0x20 ADD PUSH32 0x496E746567726174696F6E2050726F6365737300000000000000000000000000 DUP2 MSTORE POP CALLER PUSH1 0x1 PUSH3 0x5DA PUSH1 0x20 SHL PUSH3 0xF2D OR PUSH1 0x20 SHR JUMP JUMPDEST PUSH1 0x0 DUP1 DUP3 ADD MLOAD DUP2 PUSH1 0x0 ADD SWAP1 DUP1 MLOAD SWAP1 PUSH1 0x20 ADD SWAP1 PUSH3 0xEE SWAP3 SWAP2 SWAP1 PUSH3 0x744 JUMP JUMPDEST POP PUSH1 0x20 DUP3 ADD MLOAD DUP2 PUSH1 0x1 ADD PUSH1 0x0 PUSH2 0x100 EXP DUP2 SLOAD DUP2 PUSH20 0xFFFFFFFFFFFFFFFFFFFFFFFFFFFFFFFFFFFFFFFF MUL NOT AND SWAP1 DUP4 PUSH20 0xFFFFFFFFFFFFFFFFFFFFFFFFFFFFFFFFFFFFFFFF AND MUL OR SWAP1 SSTORE POP PUSH1 0x40 DUP3 ADD MLOAD DUP2 PUSH1 0x1 ADD PUSH1 0x14 PUSH2 0x100 EXP DUP2 SLOAD DUP2 PUSH1 0xFF MUL NOT AND SWAP1 DUP4 ISZERO ISZERO MUL OR SWAP1 SSTORE POP SWAP1 POP POP PUSH3 0x1A7 PUSH1 0x40 MLOAD DUP1 PUSH1 0x40 ADD PUSH1 0x40 MSTORE DUP1 PUSH1 0xF DUP2 MSTORE PUSH1 0x20 ADD PUSH32 0x44656C69766572792053797374656D0000000000000000000000000000000000 DUP2 MSTORE POP DUP3 PUSH1 0x0 PUSH3 0x5DA PUSH1 0x20 SHL PUSH3 0xF2D OR PUSH1 0x20 SHR JUMP JUMPDEST PUSH1 0x2 PUSH1 0x0 DUP3 ADD MLOAD DUP2 PUSH1 0x0 ADD SWAP1 DUP1 MLOAD SWAP1 PUSH1 0x20 ADD SWAP1 PUSH3 0x1C7 SWAP3 SWAP2 SWAP1 PUSH3 0x744 JUMP JUMPDEST POP PUSH1 0x20 DUP3 ADD MLOAD DUP2 PUSH1 0x1 ADD PUSH1 0x0 PUSH2 0x100 EXP DUP2 SLOAD DUP2 PUSH20 0xFFFFFFFFFFFFFFFFFFFFFFFFFFFFFFFFFFFFFFFF MUL NOT AND SWAP1 DUP4 PUSH20 0xFFFFFFFFFFFFFFFFFFFFFFFFFFFFFFFFFFFFFFFF AND MUL OR SWAP1 SSTORE POP PUSH1 0x40 DUP3 ADD MLOAD DUP2 PUSH1 0x1 ADD PUSH1 0x14 PUSH2 0x100 EXP DUP2 SLOAD DUP2 PUSH1 0xFF MUL NOT AND SWAP1 DUP4 ISZERO ISZERO MUL OR SWAP1 SSTORE POP SWAP1 POP POP PUSH1 0x0 PUSH1 0x4 PUSH1 0x0 CALLER PUSH20 0xFFFFFFFFFFFFFFFFFFFFFFFFFFFFFFFFFFFFFFFF AND PUSH20 0xFFFFFFFFFFFFFFFFFFFFFFFFFFFFFFFFFFFFFFFF AND DUP2 MSTORE PUSH1 0x20 ADD SWAP1 DUP2 MSTORE PUSH1 0x20 ADD PUSH1 0x0 KECCAK256 PUSH1 0x0 DUP3 ADD DUP2 PUSH1 0x0 ADD SWAP1 DUP1 SLOAD PUSH3 0x289 SWAP1 PUSH3 0x9D7 JUMP JUMPDEST PUSH3 0x296 SWAP3 SWAP2 SWAP1 PUSH3 0x7D5 JUMP JUMPDEST POP PUSH1 0x1 DUP3 ADD PUSH1 0x0 SWAP1 SLOAD SWAP1 PUSH2 0x100 EXP SWAP1 DIV PUSH20 0xFFFFFFFFFFFFFFFFFFFFFFFFFFFFFFFFFFFFFFFF AND DUP2 PUSH1 0x1 ADD PUSH1 0x0 PUSH2 0x100 EXP DUP2 SLOAD DUP2 PUSH20 0xFFFFFFFFFFFFFFFFFFFFFFFFFFFFFFFFFFFFFFFF MUL NOT AND SWAP1 DUP4 PUSH20 0xFFFFFFFFFFFFFFFFFFFFFFFFFFFFFFFFFFFFFFFF AND MUL OR SWAP1 SSTORE POP PUSH1 0x1 DUP3 ADD PUSH1 0x14 SWAP1 SLOAD SWAP1 PUSH2 0x100 EXP SWAP1 DIV PUSH1 0xFF AND DUP2 PUSH1 0x1 ADD PUSH1 0x14 PUSH2 0x100 EXP DUP2 SLOAD DUP2 PUSH1 0xFF MUL NOT AND SWAP1 DUP4 ISZERO ISZERO MUL OR SWAP1 SSTORE POP SWAP1 POP POP PUSH1 0x2 PUSH1 0x4 PUSH1 0x0 DUP4 PUSH20 0xFFFFFFFFFFFFFFFFFFFFFFFFFFFFFFFFFFFFFFFF AND PUSH20 0xFFFFFFFFFFFFFFFFFFFFFFFFFFFFFFFFFFFFFFFF AND DUP2 MSTORE PUSH1 0x20 ADD SWAP1 DUP2 MSTORE PUSH1 0x20 ADD PUSH1 0x0 KECCAK256 PUSH1 0x0 DUP3 ADD DUP2 PUSH1 0x0 ADD SWAP1 DUP1 SLOAD PUSH3 0x385 SWAP1 PUSH3 0x9D7 JUMP JUMPDEST PUSH3 0x392 SWAP3 SWAP2 SWAP1 PUSH3 0x7D5 JUMP JUMPDEST POP PUSH1 0x1 DUP3 ADD PUSH1 0x0 SWAP1 SLOAD SWAP1 PUSH2 0x100 EXP SWAP1 DIV PUSH20 0xFFFFFFFFFFFFFFFFFFFFFFFFFFFFFFFFFFFFFFFF AND DUP2 PUSH1 0x1 ADD PUSH1 0x0 PUSH2 0x100 EXP DUP2 SLOAD DUP2 PUSH20 0xFFFFFFFFFFFFFFFFFFFFFFFFFFFFFFFFFFFFFFFF MUL NOT AND SWAP1 DUP4 PUSH20 0xFFFFFFFFFFFFFFFFFFFFFFFFFFFFFFFFFFFFFFFF AND MUL OR SWAP1 SSTORE POP PUSH1 0x1 DUP3 ADD PUSH1 0x14 SWAP1 SLOAD SWAP1 PUSH2 0x100 EXP SWAP1 DIV PUSH1 0xFF AND DUP2 PUSH1 0x1 ADD PUSH1 0x14 PUSH2 0x100 EXP DUP2 SLOAD DUP2 PUSH1 0xFF MUL NOT AND SWAP1 DUP4 ISZERO ISZERO MUL OR SWAP1 SSTORE POP SWAP1 POP POP PUSH1 0x6 PUSH3 0x443 PUSH1 0x28 PUSH3 0x620 PUSH1 0x20 SHL PUSH3 0xF71 OR PUSH1 0x20 SHR JUMP JUMPDEST SWAP1 DUP1 PUSH1 0x1 DUP2 SLOAD ADD DUP1 DUP3 SSTORE DUP1 SWAP2 POP POP PUSH1 0x1 SWAP1 SUB SWAP1 PUSH1 0x0 MSTORE PUSH1 0x20 PUSH1 0x0 KECCAK256 ADD PUSH1 0x0 SWAP1 SWAP2 SWAP1 SWAP2 SWAP1 SWAP2 POP PUSH1 0x0 DUP3 ADD MLOAD DUP2 PUSH1 0x0 ADD PUSH1 0x0 PUSH2 0x100 EXP DUP2 SLOAD DUP2 PUSH4 0xFFFFFFFF MUL NOT AND SWAP1 DUP4 PUSH4 0xFFFFFFFF AND MUL OR SWAP1 SSTORE POP PUSH1 0x20 DUP3 ADD MLOAD DUP2 PUSH1 0x0 ADD PUSH1 0x4 PUSH2 0x100 EXP DUP2 SLOAD DUP2 PUSH4 0xFFFFFFFF MUL NOT AND SWAP1 DUP4 PUSH4 0xFFFFFFFF AND MUL OR SWAP1 SSTORE POP POP POP PUSH1 0x7 PUSH3 0x54B PUSH1 0x40 MLOAD DUP1 PUSH1 0x40 ADD PUSH1 0x40 MSTORE DUP1 PUSH1 0x12 DUP2 MSTORE PUSH1 0x20 ADD PUSH32 0x2F2F6275646765742F69642F7465787428290000000000000000000000000000 DUP2 MSTORE POP PUSH1 0x40 MLOAD DUP1 PUSH1 0x40 ADD PUSH1 0x40 MSTORE DUP1 PUSH1 0x2 DUP2 MSTORE PUSH1 0x20 ADD PUSH32 0x213D000000000000000000000000000000000000000000000000000000000000 DUP2 MSTORE POP PUSH1 0x40 MLOAD DUP1 PUSH1 0x20 ADD PUSH1 0x40 MSTORE DUP1 PUSH1 0x0 DUP2 MSTORE POP PUSH3 0x653 PUSH1 0x20 SHL PUSH3 0xFA2 OR PUSH1 0x20 SHR JUMP JUMPDEST SWAP1 DUP1 PUSH1 0x1 DUP2 SLOAD ADD DUP1 DUP3 SSTORE DUP1 SWAP2 POP POP PUSH1 0x1 SWAP1 SUB SWAP1 PUSH1 0x0 MSTORE PUSH1 0x20 PUSH1 0x0 KECCAK256 SWAP1 PUSH1 0x3 MUL ADD PUSH1 0x0 SWAP1 SWAP2 SWAP1 SWAP2 SWAP1 SWAP2 POP PUSH1 0x0 DUP3 ADD MLOAD DUP2 PUSH1 0x0 ADD SWAP1 DUP1 MLOAD SWAP1 PUSH1 0x20 ADD SWAP1 PUSH3 0x592 SWAP3 SWAP2 SWAP1 PUSH3 0x744 JUMP JUMPDEST POP PUSH1 0x20 DUP3 ADD MLOAD DUP2 PUSH1 0x1 ADD SWAP1 DUP1 MLOAD SWAP1 PUSH1 0x20 ADD SWAP1 PUSH3 0x5B1 SWAP3 SWAP2 SWAP1 PUSH3 0x744 JUMP JUMPDEST POP PUSH1 0x40 DUP3 ADD MLOAD DUP2 PUSH1 0x2 ADD SWAP1 DUP1 MLOAD SWAP1 PUSH1 0x20 ADD SWAP1 PUSH3 0x5D0 SWAP3 SWAP2 SWAP1 PUSH3 0x744 JUMP JUMPDEST POP POP POP POP PUSH3 0xAE4 JUMP JUMPDEST PUSH3 0x5E4 PUSH3 0x86D JUMP JUMPDEST PUSH1 0x40 MLOAD DUP1 PUSH1 0x60 ADD PUSH1 0x40 MSTORE DUP1 DUP6 DUP2 MSTORE PUSH1 0x20 ADD DUP5 PUSH20 0xFFFFFFFFFFFFFFFFFFFFFFFFFFFFFFFFFFFFFFFF AND DUP2 MSTORE PUSH1 0x20 ADD DUP4 ISZERO ISZERO DUP2 MSTORE POP SWAP1 POP SWAP4 SWAP3 POP POP POP JUMP JUMPDEST PUSH3 0x62A PUSH3 0x8A6 JUMP JUMPDEST PUSH1 0x40 MLOAD DUP1 PUSH1 0x40 ADD PUSH1 0x40 MSTORE DUP1 PUSH1 0x0 PUSH4 0xFFFFFFFF AND DUP2 MSTORE PUSH1 0x20 ADD DUP4 PUSH4 0xFFFFFFFF AND DUP2 MSTORE POP SWAP1 POP SWAP2 SWAP1 POP JUMP JUMPDEST PUSH3 0x65D PUSH3 0x8CC JUMP JUMPDEST PUSH1 0x0 DUP4 PUSH1 0x0 DUP2 MLOAD DUP2 LT PUSH3 0x676 JUMPI PUSH3 0x675 PUSH3 0xA0C JUMP JUMPDEST JUMPDEST PUSH1 0x20 ADD ADD MLOAD PUSH1 0xF8 SHR PUSH1 0xF8 SHL SWAP1 POP PUSH1 0x21 PUSH1 0xF8 SHL DUP2 PUSH31 0xFFFFFFFFFFFFFFFFFFFFFFFFFFFFFFFFFFFFFFFFFFFFFFFFFFFFFFFFFFFFFF NOT AND EQ DUP1 PUSH3 0x6DD JUMPI POP PUSH1 0x3D PUSH1 0xF8 SHL DUP2 PUSH31 0xFFFFFFFFFFFFFFFFFFFFFFFFFFFFFFFFFFFFFFFFFFFFFFFFFFFFFFFFFFFFFF NOT AND EQ JUMPDEST PUSH3 0x71F JUMPI PUSH1 0x40 MLOAD PUSH32 0x8C379A000000000000000000000000000000000000000000000000000000000 DUP2 MSTORE PUSH1 0x4 ADD PUSH3 0x716 SWAP1 PUSH3 0xAC2 JUMP JUMPDEST PUSH1 0x40 MLOAD DUP1 SWAP2 SUB SWAP1 REVERT JUMPDEST PUSH1 0x40 MLOAD DUP1 PUSH1 0x60 ADD PUSH1 0x40 MSTORE DUP1 DUP7 DUP2 MSTORE PUSH1 0x20 ADD DUP6 DUP2 MSTORE PUSH1 0x20 ADD DUP5 DUP2 MSTORE POP SWAP2 POP POP SWAP4 SWAP3 POP POP POP JUMP JUMPDEST DUP3 DUP1 SLOAD PUSH3 0x752 SWAP1 PUSH3 0x9D7 JUMP JUMPDEST SWAP1 PUSH1 0x0 MSTORE PUSH1 0x20 PUSH1 0x0 KECCAK256 SWAP1 PUSH1 0x1F ADD PUSH1 0x20 SWAP1 DIV DUP2 ADD SWAP3 DUP3 PUSH3 0x776 JUMPI PUSH1 0x0 DUP6 SSTORE PUSH3 0x7C2 JUMP JUMPDEST DUP3 PUSH1 0x1F LT PUSH3 0x791 JUMPI DUP1 MLOAD PUSH1 0xFF NOT AND DUP4 DUP1 ADD OR DUP6 SSTORE PUSH3 0x7C2 JUMP JUMPDEST DUP3 DUP1 ADD PUSH1 0x1 ADD DUP6 SSTORE DUP3 ISZERO PUSH3 0x7C2 JUMPI SWAP2 DUP3 ADD JUMPDEST DUP3 DUP2 GT ISZERO PUSH3 0x7C1 JUMPI DUP3 MLOAD DUP3 SSTORE SWAP2 PUSH1 0x20 ADD SWAP2 SWAP1 PUSH1 0x1 ADD SWAP1 PUSH3 0x7A4 JUMP JUMPDEST JUMPDEST POP SWAP1 POP PUSH3 0x7D1 SWAP2 SWAP1 PUSH3 0x8ED JUMP JUMPDEST POP SWAP1 JUMP JUMPDEST DUP3 DUP1 SLOAD PUSH3 0x7E3 SWAP1 PUSH3 0x9D7 JUMP JUMPDEST SWAP1 PUSH1 0x0 MSTORE PUSH1 0x20 PUSH1 0x0 KECCAK256 SWAP1 PUSH1 0x1F ADD PUSH1 0x20 SWAP1 DIV DUP2 ADD SWAP3 DUP3 PUSH3 0x807 JUMPI PUSH1 0x0 DUP6 SSTORE PUSH3 0x85A JUMP JUMPDEST DUP3 PUSH1 0x1F LT PUSH3 0x81A JUMPI DUP1 SLOAD DUP6 SSTORE PUSH3 0x85A JUMP JUMPDEST DUP3 DUP1 ADD PUSH1 0x1 ADD DUP6 SSTORE DUP3 ISZERO PUSH3 0x85A JUMPI PUSH1 0x0 MSTORE PUSH1 0x20 PUSH1 0x0 KECCAK256 SWAP2 PUSH1 0x1F ADD PUSH1 0x20 SWAP1 DIV DUP3 ADD JUMPDEST DUP3 DUP2 GT ISZERO PUSH3 0x859 JUMPI DUP3 SLOAD DUP3 SSTORE SWAP2 PUSH1 0x1 ADD SWAP2 SWAP1 PUSH1 0x1 ADD SWAP1 PUSH3 0x83C JUMP JUMPDEST JUMPDEST POP SWAP1 POP PUSH3 0x869 SWAP2 SWAP1 PUSH3 0x8ED JUMP JUMPDEST POP SWAP1 JUMP JUMPDEST PUSH1 0x40 MLOAD DUP1 PUSH1 0x60 ADD PUSH1 0x40 MSTORE DUP1 PUSH1 0x60 DUP2 MSTORE PUSH1 0x20 ADD PUSH1 0x0 PUSH20 0xFFFFFFFFFFFFFFFFFFFFFFFFFFFFFFFFFFFFFFFF AND DUP2 MSTORE PUSH1 0x20 ADD PUSH1 0x0 ISZERO ISZERO DUP2 MSTORE POP SWAP1 JUMP JUMPDEST PUSH1 0x40 MLOAD DUP1 PUSH1 0x40 ADD PUSH1 0x40 MSTORE DUP1 PUSH1 0x0 PUSH4 0xFFFFFFFF AND DUP2 MSTORE PUSH1 0x20 ADD PUSH1 0x0 PUSH4 0xFFFFFFFF AND DUP2 MSTORE POP SWAP1 JUMP JUMPDEST PUSH1 0x40 MLOAD DUP1 PUSH1 0x60 ADD PUSH1 0x40 MSTORE DUP1 PUSH1 0x60 DUP2 MSTORE PUSH1 0x20 ADD PUSH1 0x60 DUP2 MSTORE PUSH1 0x20 ADD PUSH1 0x60 DUP2 MSTORE POP SWAP1 JUMP JUMPDEST JUMPDEST DUP1 DUP3 GT ISZERO PUSH3 0x908 JUMPI PUSH1 0x0 DUP2 PUSH1 0x0 SWAP1 SSTORE POP PUSH1 0x1 ADD PUSH3 0x8EE JUMP JUMPDEST POP SWAP1 JUMP JUMPDEST PUSH1 0x0 DUP1 REVERT JUMPDEST PUSH1 0x0 PUSH20 0xFFFFFFFFFFFFFFFFFFFFFFFFFFFFFFFFFFFFFFFF DUP3 AND SWAP1 POP SWAP2 SWAP1 POP JUMP JUMPDEST PUSH1 0x0 PUSH3 0x93E DUP3 PUSH3 0x911 JUMP JUMPDEST SWAP1 POP SWAP2 SWAP1 POP JUMP JUMPDEST PUSH3 0x950 DUP2 PUSH3 0x931 JUMP JUMPDEST DUP2 EQ PUSH3 0x95C JUMPI PUSH1 0x0 DUP1 REVERT JUMPDEST POP JUMP JUMPDEST PUSH1 0x0 DUP2 MLOAD SWAP1 POP PUSH3 0x970 DUP2 PUSH3 0x945 JUMP JUMPDEST SWAP3 SWAP2 POP POP JUMP JUMPDEST PUSH1 0x0 PUSH1 0x20 DUP3 DUP5 SUB SLT ISZERO PUSH3 0x98F JUMPI PUSH3 0x98E PUSH3 0x90C JUMP JUMPDEST JUMPDEST PUSH1 0x0 PUSH3 0x99F DUP5 DUP3 DUP6 ADD PUSH3 0x95F JUMP JUMPDEST SWAP2 POP POP SWAP3 SWAP2 POP POP JUMP JUMPDEST PUSH32 0x4E487B7100000000000000000000000000000000000000000000000000000000 PUSH1 0x0 MSTORE PUSH1 0x22 PUSH1 0x4 MSTORE PUSH1 0x24 PUSH1 0x0 REVERT JUMPDEST PUSH1 0x0 PUSH1 0x2 DUP3 DIV SWAP1 POP PUSH1 0x1 DUP3 AND DUP1 PUSH3 0x9F0 JUMPI PUSH1 0x7F DUP3 AND SWAP2 POP JUMPDEST PUSH1 0x20 DUP3 LT DUP2 SUB PUSH3 0xA06 JUMPI PUSH3 0xA05 PUSH3 0x9A8 JUMP JUMPDEST JUMPDEST POP SWAP2 SWAP1 POP JUMP JUMPDEST PUSH32 0x4E487B7100000000000000000000000000000000000000000000000000000000 PUSH1 0x0 MSTORE PUSH1 0x32 PUSH1 0x4 MSTORE PUSH1 0x24 PUSH1 0x0 REVERT JUMPDEST PUSH1 0x0 DUP3 DUP3 MSTORE PUSH1 0x20 DUP3 ADD SWAP1 POP SWAP3 SWAP2 POP POP JUMP JUMPDEST PUSH32 0x4F6E6C792027213D27206F7220273D3D27206F70657261746F72732069732061 PUSH1 0x0 DUP3 ADD MSTORE PUSH32 0x6C6C6F7720746F20636F6D7061726520737472696E6773000000000000000000 PUSH1 0x20 DUP3 ADD MSTORE POP JUMP JUMPDEST PUSH1 0x0 PUSH3 0xAAA PUSH1 0x37 DUP4 PUSH3 0xA3B JUMP JUMPDEST SWAP2 POP PUSH3 0xAB7 DUP3 PUSH3 0xA4C JUMP JUMPDEST PUSH1 0x40 DUP3 ADD SWAP1 POP SWAP2 SWAP1 POP JUMP JUMPDEST PUSH1 0x0 PUSH1 0x20 DUP3 ADD SWAP1 POP DUP2 DUP2 SUB PUSH1 0x0 DUP4 ADD MSTORE PUSH3 0xADD DUP2 PUSH3 0xA9B JUMP JUMPDEST SWAP1 POP SWAP2 SWAP1 POP JUMP JUMPDEST PUSH2 0x2466 DUP1 PUSH3 0xAF4 PUSH1 0x0 CODECOPY PUSH1 0x0 RETURN INVALID PUSH1 0x80 PUSH1 0x40 MSTORE CALLVALUE DUP1 ISZERO PUSH2 0x10 JUMPI PUSH1 0x0 DUP1 REVERT JUMPDEST POP PUSH1 0x4 CALLDATASIZE LT PUSH2 0x7C JUMPI PUSH1 0x0 CALLDATALOAD PUSH1 0xE0 SHR DUP1 PUSH4 0x70D8915A GT PUSH2 0x5B JUMPI DUP1 PUSH4 0x70D8915A EQ PUSH2 0xFD JUMPI DUP1 PUSH4 0x85931911 EQ PUSH2 0x11B JUMPI DUP1 PUSH4 0xB8B4F1A0 EQ PUSH2 0x139 JUMPI DUP1 PUSH4 0xFB6F8243 EQ PUSH2 0x157 JUMPI PUSH2 0x7C JUMP JUMPDEST DUP1 PUSH3 0x7CB3ED EQ PUSH2 0x81 JUMPI DUP1 PUSH4 0x1E900392 EQ PUSH2 0xB1 JUMPI DUP1 PUSH4 0x5E744C6A EQ PUSH2 0xCD JUMPI JUMPDEST PUSH1 0x0 DUP1 REVERT JUMPDEST PUSH2 0x9B PUSH1 0x4 DUP1 CALLDATASIZE SUB DUP2 ADD SWAP1 PUSH2 0x96 SWAP2 SWAP1 PUSH2 0x1983 JUMP JUMPDEST PUSH2 0x187 JUMP JUMPDEST PUSH1 0x40 MLOAD PUSH2 0xA8 SWAP2 SWAP1 PUSH2 0x19FA JUMP JUMPDEST PUSH1 0x40 MLOAD DUP1 SWAP2 SUB SWAP1 RETURN JUMPDEST PUSH2 0xCB PUSH1 0x4 DUP1 CALLDATASIZE SUB DUP2 ADD SWAP1 PUSH2 0xC6 SWAP2 SWAP1 PUSH2 0x1A15 JUMP JUMPDEST PUSH2 0x6D5 JUMP JUMPDEST STOP JUMPDEST PUSH2 0xE7 PUSH1 0x4 DUP1 CALLDATASIZE SUB DUP2 ADD SWAP1 PUSH2 0xE2 SWAP2 SWAP1 PUSH2 0x1AA0 JUMP JUMPDEST PUSH2 0x79C JUMP JUMPDEST PUSH1 0x40 MLOAD PUSH2 0xF4 SWAP2 SWAP1 PUSH2 0x19FA JUMP JUMPDEST PUSH1 0x40 MLOAD DUP1 SWAP2 SUB SWAP1 RETURN JUMPDEST PUSH2 0x105 PUSH2 0x98E JUMP JUMPDEST PUSH1 0x40 MLOAD PUSH2 0x112 SWAP2 SWAP1 PUSH2 0x1B0B JUMP JUMPDEST PUSH1 0x40 MLOAD DUP1 SWAP2 SUB SWAP1 RETURN JUMPDEST PUSH2 0x123 PUSH2 0xAA9 JUMP JUMPDEST PUSH1 0x40 MLOAD PUSH2 0x130 SWAP2 SWAP1 PUSH2 0x1B0B JUMP JUMPDEST PUSH1 0x40 MLOAD DUP1 SWAP2 SUB SWAP1 RETURN JUMPDEST PUSH2 0x141 PUSH2 0xBC4 JUMP JUMPDEST PUSH1 0x40 MLOAD PUSH2 0x14E SWAP2 SWAP1 PUSH2 0x19FA JUMP JUMPDEST PUSH1 0x40 MLOAD DUP1 SWAP2 SUB SWAP1 RETURN JUMPDEST PUSH2 0x171 PUSH1 0x4 DUP1 CALLDATASIZE SUB DUP2 ADD SWAP1 PUSH2 0x16C SWAP2 SWAP1 PUSH2 0x1B26 JUMP JUMPDEST PUSH2 0xCE3 JUMP JUMPDEST PUSH1 0x40 MLOAD PUSH2 0x17E SWAP2 SWAP1 PUSH2 0x1C49 JUMP JUMPDEST PUSH1 0x40 MLOAD DUP1 SWAP2 SUB SWAP1 RETURN JUMPDEST PUSH1 0x0 CALLER PUSH20 0xFFFFFFFFFFFFFFFFFFFFFFFFFFFFFFFFFFFFFFFF AND PUSH1 0x2 PUSH1 0x1 ADD PUSH1 0x0 SWAP1 SLOAD SWAP1 PUSH2 0x100 EXP SWAP1 DIV PUSH20 0xFFFFFFFFFFFFFFFFFFFFFFFFFFFFFFFFFFFFFFFF AND PUSH20 0xFFFFFFFFFFFFFFFFFFFFFFFFFFFFFFFFFFFFFFFF AND EQ PUSH2 0x21C JUMPI PUSH1 0x40 MLOAD PUSH32 0x8C379A000000000000000000000000000000000000000000000000000000000 DUP2 MSTORE PUSH1 0x4 ADD PUSH2 0x213 SWAP1 PUSH2 0x1CEE JUMP JUMPDEST PUSH1 0x40 MLOAD DUP1 SWAP2 SUB SWAP1 REVERT JUMPDEST PUSH2 0x371 PUSH1 0x4 PUSH1 0x0 CALLER PUSH20 0xFFFFFFFFFFFFFFFFFFFFFFFFFFFFFFFFFFFFFFFF AND PUSH20 0xFFFFFFFFFFFFFFFFFFFFFFFFFFFFFFFFFFFFFFFF AND DUP2 MSTORE PUSH1 0x20 ADD SWAP1 DUP2 MSTORE PUSH1 0x20 ADD PUSH1 0x0 KECCAK256 PUSH1 0x40 MLOAD DUP1 PUSH1 0x60 ADD PUSH1 0x40 MSTORE SWAP1 DUP2 PUSH1 0x0 DUP3 ADD DUP1 SLOAD PUSH2 0x279 SWAP1 PUSH2 0x1D3D JUMP JUMPDEST DUP1 PUSH1 0x1F ADD PUSH1 0x20 DUP1 SWAP2 DIV MUL PUSH1 0x20 ADD PUSH1 0x40 MLOAD SWAP1 DUP2 ADD PUSH1 0x40 MSTORE DUP1 SWAP3 SWAP2 SWAP1 DUP2 DUP2 MSTORE PUSH1 0x20 ADD DUP3 DUP1 SLOAD PUSH2 0x2A5 SWAP1 PUSH2 0x1D3D JUMP JUMPDEST DUP1 ISZERO PUSH2 0x2F2 JUMPI DUP1 PUSH1 0x1F LT PUSH2 0x2C7 JUMPI PUSH2 0x100 DUP1 DUP4 SLOAD DIV MUL DUP4 MSTORE SWAP2 PUSH1 0x20 ADD SWAP2 PUSH2 0x2F2 JUMP JUMPDEST DUP3 ADD SWAP2 SWAP1 PUSH1 0x0 MSTORE PUSH1 0x20 PUSH1 0x0 KECCAK256 SWAP1 JUMPDEST DUP2 SLOAD DUP2 MSTORE SWAP1 PUSH1 0x1 ADD SWAP1 PUSH1 0x20 ADD DUP1 DUP4 GT PUSH2 0x2D5 JUMPI DUP3 SWAP1 SUB PUSH1 0x1F AND DUP3 ADD SWAP2 JUMPDEST POP POP POP POP POP DUP2 MSTORE PUSH1 0x20 ADD PUSH1 0x1 DUP3 ADD PUSH1 0x0 SWAP1 SLOAD SWAP1 PUSH2 0x100 EXP SWAP1 DIV PUSH20 0xFFFFFFFFFFFFFFFFFFFFFFFFFFFFFFFFFFFFFFFF AND PUSH20 0xFFFFFFFFFFFFFFFFFFFFFFFFFFFFFFFFFFFFFFFF AND PUSH20 0xFFFFFFFFFFFFFFFFFFFFFFFFFFFFFFFFFFFFFFFF AND DUP2 MSTORE PUSH1 0x20 ADD PUSH1 0x1 DUP3 ADD PUSH1 0x14 SWAP1 SLOAD SWAP1 PUSH2 0x100 EXP SWAP1 DIV PUSH1 0xFF AND ISZERO ISZERO ISZERO ISZERO DUP2 MSTORE POP POP PUSH2 0x108A JUMP JUMPDEST PUSH2 0x3B0 JUMPI PUSH1 0x40 MLOAD PUSH32 0x8C379A000000000000000000000000000000000000000000000000000000000 DUP2 MSTORE PUSH1 0x4 ADD PUSH2 0x3A7 SWAP1 PUSH2 0x1E06 JUMP JUMPDEST PUSH1 0x40 MLOAD DUP1 SWAP2 SUB SWAP1 REVERT JUMPDEST PUSH2 0x438 DUP4 PUSH1 0x6 PUSH1 0x0 DUP2 SLOAD DUP2 LT PUSH2 0x3C9 JUMPI PUSH2 0x3C8 PUSH2 0x1E26 JUMP JUMPDEST JUMPDEST SWAP1 PUSH1 0x0 MSTORE PUSH1 0x20 PUSH1 0x0 KECCAK256 ADD PUSH1 0x40 MLOAD DUP1 PUSH1 0x40 ADD PUSH1 0x40 MSTORE SWAP1 DUP2 PUSH1 0x0 DUP3 ADD PUSH1 0x0 SWAP1 SLOAD SWAP1 PUSH2 0x100 EXP SWAP1 DIV PUSH4 0xFFFFFFFF AND PUSH4 0xFFFFFFFF AND PUSH4 0xFFFFFFFF AND DUP2 MSTORE PUSH1 0x20 ADD PUSH1 0x0 DUP3 ADD PUSH1 0x4 SWAP1 SLOAD SWAP1 PUSH2 0x100 EXP SWAP1 DIV PUSH4 0xFFFFFFFF AND PUSH4 0xFFFFFFFF AND PUSH4 0xFFFFFFFF AND DUP2 MSTORE POP POP PUSH2 0x1098 SWAP1 SWAP2 SWAP1 PUSH4 0xFFFFFFFF AND JUMP JUMPDEST ISZERO DUP1 ISZERO PUSH2 0x652 JUMPI POP PUSH2 0x651 DUP3 PUSH1 0x0 DUP2 MLOAD DUP2 LT PUSH2 0x457 JUMPI PUSH2 0x456 PUSH2 0x1E26 JUMP JUMPDEST JUMPDEST PUSH1 0x20 MUL PUSH1 0x20 ADD ADD MLOAD PUSH1 0x7 PUSH1 0x0 DUP2 SLOAD DUP2 LT PUSH2 0x474 JUMPI PUSH2 0x473 PUSH2 0x1E26 JUMP JUMPDEST JUMPDEST SWAP1 PUSH1 0x0 MSTORE PUSH1 0x20 PUSH1 0x0 KECCAK256 SWAP1 PUSH1 0x3 MUL ADD PUSH1 0x40 MLOAD DUP1 PUSH1 0x60 ADD PUSH1 0x40 MSTORE SWAP1 DUP2 PUSH1 0x0 DUP3 ADD DUP1 SLOAD PUSH2 0x49D SWAP1 PUSH2 0x1D3D JUMP JUMPDEST DUP1 PUSH1 0x1F ADD PUSH1 0x20 DUP1 SWAP2 DIV MUL PUSH1 0x20 ADD PUSH1 0x40 MLOAD SWAP1 DUP2 ADD PUSH1 0x40 MSTORE DUP1 SWAP3 SWAP2 SWAP1 DUP2 DUP2 MSTORE PUSH1 0x20 ADD DUP3 DUP1 SLOAD PUSH2 0x4C9 SWAP1 PUSH2 0x1D3D JUMP JUMPDEST DUP1 ISZERO PUSH2 0x516 JUMPI DUP1 PUSH1 0x1F LT PUSH2 0x4EB JUMPI PUSH2 0x100 DUP1 DUP4 SLOAD DIV MUL DUP4 MSTORE SWAP2 PUSH1 0x20 ADD SWAP2 PUSH2 0x516 JUMP JUMPDEST DUP3 ADD SWAP2 SWAP1 PUSH1 0x0 MSTORE PUSH1 0x20 PUSH1 0x0 KECCAK256 SWAP1 JUMPDEST DUP2 SLOAD DUP2 MSTORE SWAP1 PUSH1 0x1 ADD SWAP1 PUSH1 0x20 ADD DUP1 DUP4 GT PUSH2 0x4F9 JUMPI DUP3 SWAP1 SUB PUSH1 0x1F AND DUP3 ADD SWAP2 JUMPDEST POP POP POP POP POP DUP2 MSTORE PUSH1 0x20 ADD PUSH1 0x1 DUP3 ADD DUP1 SLOAD PUSH2 0x52F SWAP1 PUSH2 0x1D3D JUMP JUMPDEST DUP1 PUSH1 0x1F ADD PUSH1 0x20 DUP1 SWAP2 DIV MUL PUSH1 0x20 ADD PUSH1 0x40 MLOAD SWAP1 DUP2 ADD PUSH1 0x40 MSTORE DUP1 SWAP3 SWAP2 SWAP1 DUP2 DUP2 MSTORE PUSH1 0x20 ADD DUP3 DUP1 SLOAD PUSH2 0x55B SWAP1 PUSH2 0x1D3D JUMP JUMPDEST DUP1 ISZERO PUSH2 0x5A8 JUMPI DUP1 PUSH1 0x1F LT PUSH2 0x57D JUMPI PUSH2 0x100 DUP1 DUP4 SLOAD DIV MUL DUP4 MSTORE SWAP2 PUSH1 0x20 ADD SWAP2 PUSH2 0x5A8 JUMP JUMPDEST DUP3 ADD SWAP2 SWAP1 PUSH1 0x0 MSTORE PUSH1 0x20 PUSH1 0x0 KECCAK256 SWAP1 JUMPDEST DUP2 SLOAD DUP2 MSTORE SWAP1 PUSH1 0x1 ADD SWAP1 PUSH1 0x20 ADD DUP1 DUP4 GT PUSH2 0x58B JUMPI DUP3 SWAP1 SUB PUSH1 0x1F AND DUP3 ADD SWAP2 JUMPDEST POP POP POP POP POP DUP2 MSTORE PUSH1 0x20 ADD PUSH1 0x2 DUP3 ADD DUP1 SLOAD PUSH2 0x5C1 SWAP1 PUSH2 0x1D3D JUMP JUMPDEST DUP1 PUSH1 0x1F ADD PUSH1 0x20 DUP1 SWAP2 DIV MUL PUSH1 0x20 ADD PUSH1 0x40 MLOAD SWAP1 DUP2 ADD PUSH1 0x40 MSTORE DUP1 SWAP3 SWAP2 SWAP1 DUP2 DUP2 MSTORE PUSH1 0x20 ADD DUP3 DUP1 SLOAD PUSH2 0x5ED SWAP1 PUSH2 0x1D3D JUMP JUMPDEST DUP1 ISZERO PUSH2 0x63A JUMPI DUP1 PUSH1 0x1F LT PUSH2 0x60F JUMPI PUSH2 0x100 DUP1 DUP4 SLOAD DIV MUL DUP4 MSTORE SWAP2 PUSH1 0x20 ADD SWAP2 PUSH2 0x63A JUMP JUMPDEST DUP3 ADD SWAP2 SWAP1 PUSH1 0x0 MSTORE PUSH1 0x20 PUSH1 0x0 KECCAK256 SWAP1 JUMPDEST DUP2 SLOAD DUP2 MSTORE SWAP1 PUSH1 0x1 ADD SWAP1 PUSH1 0x20 ADD DUP1 DUP4 GT PUSH2 0x61D JUMPI DUP3 SWAP1 SUB PUSH1 0x1F AND DUP3 ADD SWAP2 JUMPDEST POP POP POP POP POP DUP2 MSTORE POP POP PUSH2 0x1127 SWAP1 SWAP2 SWAP1 PUSH4 0xFFFFFFFF AND JUMP JUMPDEST JUMPDEST ISZERO PUSH2 0x695 JUMPI PUSH32 0x95A1F3A1DAFDD4C1AF344E3D7C69A72CBCE8A3F15FE1CF95A7F5BD23DF2E71A1 PUSH1 0x40 MLOAD PUSH2 0x684 SWAP1 PUSH2 0x1EA1 JUMP JUMPDEST PUSH1 0x40 MLOAD DUP1 SWAP2 SUB SWAP1 LOG1 PUSH1 0x1 SWAP1 POP PUSH2 0x6CF JUMP JUMPDEST PUSH32 0x66091B7DC2B097C8F60D5CD6AA99633B097F08D2EB1056F3E15361B22E0EA2BA PUSH1 0x40 MLOAD PUSH2 0x6C2 SWAP1 PUSH2 0x1F33 JUMP JUMPDEST PUSH1 0x40 MLOAD DUP1 SWAP2 SUB SWAP1 LOG1 PUSH1 0x0 SWAP1 POP JUMPDEST SWAP3 SWAP2 POP POP JUMP JUMPDEST CALLER PUSH20 0xFFFFFFFFFFFFFFFFFFFFFFFFFFFFFFFFFFFFFFFF AND PUSH1 0x0 PUSH1 0x1 ADD PUSH1 0x0 SWAP1 SLOAD SWAP1 PUSH2 0x100 EXP SWAP1 DIV PUSH20 0xFFFFFFFFFFFFFFFFFFFFFFFFFFFFFFFFFFFFFFFF AND PUSH20 0xFFFFFFFFFFFFFFFFFFFFFFFFFFFFFFFFFFFFFFFF AND EQ PUSH2 0x768 JUMPI PUSH1 0x40 MLOAD PUSH32 0x8C379A000000000000000000000000000000000000000000000000000000000 DUP2 MSTORE PUSH1 0x4 ADD PUSH2 0x75F SWAP1 PUSH2 0x1FC5 JUMP JUMPDEST PUSH1 0x40 MLOAD DUP1 SWAP2 SUB SWAP1 REVERT JUMPDEST PUSH2 0x799 DUP2 PUSH1 0x6 PUSH1 0x0 DUP2 SLOAD DUP2 LT PUSH2 0x781 JUMPI PUSH2 0x780 PUSH2 0x1E26 JUMP JUMPDEST JUMPDEST SWAP1 PUSH1 0x0 MSTORE PUSH1 0x20 PUSH1 0x0 KECCAK256 ADD PUSH2 0x1249 SWAP1 SWAP2 SWAP1 PUSH4 0xFFFFFFFF AND JUMP JUMPDEST POP JUMP JUMPDEST PUSH1 0x0 CALLER PUSH20 0xFFFFFFFFFFFFFFFFFFFFFFFFFFFFFFFFFFFFFFFF AND PUSH1 0x0 PUSH1 0x1 ADD PUSH1 0x0 SWAP1 SLOAD SWAP1 PUSH2 0x100 EXP SWAP1 DIV PUSH20 0xFFFFFFFFFFFFFFFFFFFFFFFFFFFFFFFFFFFFFFFF AND PUSH20 0xFFFFFFFFFFFFFFFFFFFFFFFFFFFFFFFFFFFFFFFF AND EQ PUSH2 0x831 JUMPI PUSH1 0x40 MLOAD PUSH32 0x8C379A000000000000000000000000000000000000000000000000000000000 DUP2 MSTORE PUSH1 0x4 ADD PUSH2 0x828 SWAP1 PUSH2 0x1FC5 JUMP JUMPDEST PUSH1 0x40 MLOAD DUP1 SWAP2 SUB SWAP1 REVERT JUMPDEST PUSH1 0x4 PUSH1 0x0 PUSH1 0x2 PUSH1 0x1 ADD PUSH1 0x0 SWAP1 SLOAD SWAP1 PUSH2 0x100 EXP SWAP1 DIV PUSH20 0xFFFFFFFFFFFFFFFFFFFFFFFFFFFFFFFFFFFFFFFF AND PUSH20 0xFFFFFFFFFFFFFFFFFFFFFFFFFFFFFFFFFFFFFFFF AND PUSH20 0xFFFFFFFFFFFFFFFFFFFFFFFFFFFFFFFFFFFFFFFF AND DUP2 MSTORE PUSH1 0x20 ADD SWAP1 DUP2 MSTORE PUSH1 0x20 ADD PUSH1 0x0 KECCAK256 PUSH1 0x0 DUP1 DUP3 ADD PUSH1 0x0 PUSH2 0x8A6 SWAP2 SWAP1 PUSH2 0x1517 JUMP JUMPDEST PUSH1 0x1 DUP3 ADD PUSH1 0x0 PUSH2 0x100 EXP DUP2 SLOAD SWAP1 PUSH20 0xFFFFFFFFFFFFFFFFFFFFFFFFFFFFFFFFFFFFFFFF MUL NOT AND SWAP1 SSTORE PUSH1 0x1 DUP3 ADD PUSH1 0x14 PUSH2 0x100 EXP DUP2 SLOAD SWAP1 PUSH1 0xFF MUL NOT AND SWAP1 SSTORE POP POP PUSH2 0x8EF DUP4 DUP4 PUSH1 0x0 PUSH2 0xF2D JUMP JUMPDEST PUSH1 0x2 PUSH1 0x0 DUP3 ADD MLOAD DUP2 PUSH1 0x0 ADD SWAP1 DUP1 MLOAD SWAP1 PUSH1 0x20 ADD SWAP1 PUSH2 0x90D SWAP3 SWAP2 SWAP1 PUSH2 0x1557 JUMP JUMPDEST POP PUSH1 0x20 DUP3 ADD MLOAD DUP2 PUSH1 0x1 ADD PUSH1 0x0 PUSH2 0x100 EXP DUP2 SLOAD DUP2 PUSH20 0xFFFFFFFFFFFFFFFFFFFFFFFFFFFFFFFFFFFFFFFF MUL NOT AND SWAP1 DUP4 PUSH20 0xFFFFFFFFFFFFFFFFFFFFFFFFFFFFFFFFFFFFFFFF AND MUL OR SWAP1 SSTORE POP PUSH1 0x40 DUP3 ADD MLOAD DUP2 PUSH1 0x1 ADD PUSH1 0x14 PUSH2 0x100 EXP DUP2 SLOAD DUP2 PUSH1 0xFF MUL NOT AND SWAP1 DUP4 ISZERO ISZERO MUL OR SWAP1 SSTORE POP SWAP1 POP POP PUSH2 0x983 DUP3 PUSH1 0x2 PUSH2 0x12B4 JUMP JUMPDEST POP PUSH1 0x1 SWAP1 POP SWAP3 SWAP2 POP POP JUMP JUMPDEST PUSH1 0x0 CALLER PUSH20 0xFFFFFFFFFFFFFFFFFFFFFFFFFFFFFFFFFFFFFFFF AND PUSH1 0x2 PUSH1 0x1 ADD PUSH1 0x0 SWAP1 SLOAD SWAP1 PUSH2 0x100 EXP SWAP1 DIV PUSH20 0xFFFFFFFFFFFFFFFFFFFFFFFFFFFFFFFFFFFFFFFF AND PUSH20 0xFFFFFFFFFFFFFFFFFFFFFFFFFFFFFFFFFFFFFFFF AND EQ DUP1 PUSH2 0xA3F JUMPI POP CALLER PUSH20 0xFFFFFFFFFFFFFFFFFFFFFFFFFFFFFFFFFFFFFFFF AND PUSH1 0x0 PUSH1 0x1 ADD PUSH1 0x0 SWAP1 SLOAD SWAP1 PUSH2 0x100 EXP SWAP1 DIV PUSH20 0xFFFFFFFFFFFFFFFFFFFFFFFFFFFFFFFFFFFFFFFF AND PUSH20 0xFFFFFFFFFFFFFFFFFFFFFFFFFFFFFFFFFFFFFFFF AND EQ JUMPDEST PUSH2 0xA7E JUMPI PUSH1 0x40 MLOAD PUSH32 0x8C379A000000000000000000000000000000000000000000000000000000000 DUP2 MSTORE PUSH1 0x4 ADD PUSH2 0xA75 SWAP1 PUSH2 0x2057 JUMP JUMPDEST PUSH1 0x40 MLOAD DUP1 SWAP2 SUB SWAP1 REVERT JUMPDEST PUSH1 0x2 PUSH1 0x1 ADD PUSH1 0x0 SWAP1 SLOAD SWAP1 PUSH2 0x100 EXP SWAP1 DIV PUSH20 0xFFFFFFFFFFFFFFFFFFFFFFFFFFFFFFFFFFFFFFFF AND SWAP1 POP SWAP1 JUMP JUMPDEST PUSH1 0x0 CALLER PUSH20 0xFFFFFFFFFFFFFFFFFFFFFFFFFFFFFFFFFFFFFFFF AND PUSH1 0x2 PUSH1 0x1 ADD PUSH1 0x0 SWAP1 SLOAD SWAP1 PUSH2 0x100 EXP SWAP1 DIV PUSH20 0xFFFFFFFFFFFFFFFFFFFFFFFFFFFFFFFFFFFFFFFF AND PUSH20 0xFFFFFFFFFFFFFFFFFFFFFFFFFFFFFFFFFFFFFFFF AND EQ DUP1 PUSH2 0xB5A JUMPI POP CALLER PUSH20 0xFFFFFFFFFFFFFFFFFFFFFFFFFFFFFFFFFFFFFFFF AND PUSH1 0x0 PUSH1 0x1 ADD PUSH1 0x0 SWAP1 SLOAD SWAP1 PUSH2 0x100 EXP SWAP1 DIV PUSH20 0xFFFFFFFFFFFFFFFFFFFFFFFFFFFFFFFFFFFFFFFF AND PUSH20 0xFFFFFFFFFFFFFFFFFFFFFFFFFFFFFFFFFFFFFFFF AND EQ JUMPDEST PUSH2 0xB99 JUMPI PUSH1 0x40 MLOAD PUSH32 0x8C379A000000000000000000000000000000000000000000000000000000000 DUP2 MSTORE PUSH1 0x4 ADD PUSH2 0xB90 SWAP1 PUSH2 0x2057 JUMP JUMPDEST PUSH1 0x40 MLOAD DUP1 SWAP2 SUB SWAP1 REVERT JUMPDEST PUSH1 0x0 PUSH1 0x1 ADD PUSH1 0x0 SWAP1 SLOAD SWAP1 PUSH2 0x100 EXP SWAP1 DIV PUSH20 0xFFFFFFFFFFFFFFFFFFFFFFFFFFFFFFFFFFFFFFFF AND SWAP1 POP SWAP1 JUMP JUMPDEST PUSH1 0x0 CALLER PUSH20 0xFFFFFFFFFFFFFFFFFFFFFFFFFFFFFFFFFFFFFFFF AND PUSH1 0x2 PUSH1 0x1 ADD PUSH1 0x0 SWAP1 SLOAD SWAP1 PUSH2 0x100 EXP SWAP1 DIV PUSH20 0xFFFFFFFFFFFFFFFFFFFFFFFFFFFFFFFFFFFFFFFF AND PUSH20 0xFFFFFFFFFFFFFFFFFFFFFFFFFFFFFFFFFFFFFFFF AND EQ PUSH2 0xC59 JUMPI PUSH1 0x40 MLOAD PUSH32 0x8C379A000000000000000000000000000000000000000000000000000000000 DUP2 MSTORE PUSH1 0x4 ADD PUSH2 0xC50 SWAP1 PUSH2 0x1CEE JUMP JUMPDEST PUSH1 0x40 MLOAD DUP1 SWAP2 SUB SWAP1 REVERT JUMPDEST PUSH1 0x0 ISZERO ISZERO PUSH1 0x2 PUSH1 0x1 ADD PUSH1 0x14 SWAP1 SLOAD SWAP1 PUSH2 0x100 EXP SWAP1 DIV PUSH1 0xFF AND ISZERO ISZERO EQ PUSH2 0xCB2 JUMPI PUSH1 0x40 MLOAD PUSH32 0x8C379A000000000000000000000000000000000000000000000000000000000 DUP2 MSTORE PUSH1 0x4 ADD PUSH2 0xCA9 SWAP1 PUSH2 0x20C3 JUMP JUMPDEST PUSH1 0x40 MLOAD DUP1 SWAP2 SUB SWAP1 REVERT JUMPDEST PUSH1 0x1 PUSH1 0x2 PUSH1 0x1 ADD PUSH1 0x14 PUSH2 0x100 EXP DUP2 SLOAD DUP2 PUSH1 0xFF MUL NOT AND SWAP1 DUP4 ISZERO ISZERO MUL OR SWAP1 SSTORE POP PUSH2 0xCDB CALLER PUSH1 0x2 PUSH2 0x12B4 JUMP JUMPDEST POP PUSH1 0x1 SWAP1 POP SWAP1 JUMP JUMPDEST PUSH2 0xCEB PUSH2 0x15DD JUMP JUMPDEST CALLER PUSH20 0xFFFFFFFFFFFFFFFFFFFFFFFFFFFFFFFFFFFFFFFF AND PUSH1 0x2 PUSH1 0x1 ADD PUSH1 0x0 SWAP1 SLOAD SWAP1 PUSH2 0x100 EXP SWAP1 DIV PUSH20 0xFFFFFFFFFFFFFFFFFFFFFFFFFFFFFFFFFFFFFFFF AND PUSH20 0xFFFFFFFFFFFFFFFFFFFFFFFFFFFFFFFFFFFFFFFF AND EQ DUP1 PUSH2 0xD9A JUMPI POP CALLER PUSH20 0xFFFFFFFFFFFFFFFFFFFFFFFFFFFFFFFFFFFFFFFF AND PUSH1 0x0 PUSH1 0x1 ADD PUSH1 0x0 SWAP1 SLOAD SWAP1 PUSH2 0x100 EXP SWAP1 DIV PUSH20 0xFFFFFFFFFFFFFFFFFFFFFFFFFFFFFFFFFFFFFFFF AND PUSH20 0xFFFFFFFFFFFFFFFFFFFFFFFFFFFFFFFFFFFFFFFF AND EQ JUMPDEST PUSH2 0xDD9 JUMPI PUSH1 0x40 MLOAD PUSH32 0x8C379A000000000000000000000000000000000000000000000000000000000 DUP2 MSTORE PUSH1 0x4 ADD PUSH2 0xDD0 SWAP1 PUSH2 0x2057 JUMP JUMPDEST PUSH1 0x40 MLOAD DUP1 SWAP2 SUB SWAP1 REVERT JUMPDEST PUSH1 0x4 PUSH1 0x0 DUP4 PUSH20 0xFFFFFFFFFFFFFFFFFFFFFFFFFFFFFFFFFFFFFFFF AND PUSH20 0xFFFFFFFFFFFFFFFFFFFFFFFFFFFFFFFFFFFFFFFF AND DUP2 MSTORE PUSH1 0x20 ADD SWAP1 DUP2 MSTORE PUSH1 0x20 ADD PUSH1 0x0 KECCAK256 PUSH1 0x40 MLOAD DUP1 PUSH1 0x60 ADD PUSH1 0x40 MSTORE SWAP1 DUP2 PUSH1 0x0 DUP3 ADD DUP1 SLOAD PUSH2 0xE33 SWAP1 PUSH2 0x1D3D JUMP JUMPDEST DUP1 PUSH1 0x1F ADD PUSH1 0x20 DUP1 SWAP2 DIV MUL PUSH1 0x20 ADD PUSH1 0x40 MLOAD SWAP1 DUP2 ADD PUSH1 0x40 MSTORE DUP1 SWAP3 SWAP2 SWAP1 DUP2 DUP2 MSTORE PUSH1 0x20 ADD DUP3 DUP1 SLOAD PUSH2 0xE5F SWAP1 PUSH2 0x1D3D JUMP JUMPDEST DUP1 ISZERO PUSH2 0xEAC JUMPI DUP1 PUSH1 0x1F LT PUSH2 0xE81 JUMPI PUSH2 0x100 DUP1 DUP4 SLOAD DIV MUL DUP4 MSTORE SWAP2 PUSH1 0x20 ADD SWAP2 PUSH2 0xEAC JUMP JUMPDEST DUP3 ADD SWAP2 SWAP1 PUSH1 0x0 MSTORE PUSH1 0x20 PUSH1 0x0 KECCAK256 SWAP1 JUMPDEST DUP2 SLOAD DUP2 MSTORE SWAP1 PUSH1 0x1 ADD SWAP1 PUSH1 0x20 ADD DUP1 DUP4 GT PUSH2 0xE8F JUMPI DUP3 SWAP1 SUB PUSH1 0x1F AND DUP3 ADD SWAP2 JUMPDEST POP POP POP POP POP DUP2 MSTORE PUSH1 0x20 ADD PUSH1 0x1 DUP3 ADD PUSH1 0x0 SWAP1 SLOAD SWAP1 PUSH2 0x100 EXP SWAP1 DIV PUSH20 0xFFFFFFFFFFFFFFFFFFFFFFFFFFFFFFFFFFFFFFFF AND PUSH20 0xFFFFFFFFFFFFFFFFFFFFFFFFFFFFFFFFFFFFFFFF AND PUSH20 0xFFFFFFFFFFFFFFFFFFFFFFFFFFFFFFFFFFFFFFFF AND DUP2 MSTORE PUSH1 0x20 ADD PUSH1 0x1 DUP3 ADD PUSH1 0x14 SWAP1 SLOAD SWAP1 PUSH2 0x100 EXP SWAP1 DIV PUSH1 0xFF AND ISZERO ISZERO ISZERO ISZERO DUP2 MSTORE POP POP SWAP1 POP SWAP2 SWAP1 POP JUMP JUMPDEST PUSH2 0xF35 PUSH2 0x15DD JUMP JUMPDEST PUSH1 0x40 MLOAD DUP1 PUSH1 0x60 ADD PUSH1 0x40 MSTORE DUP1 DUP6 DUP2 MSTORE PUSH1 0x20 ADD DUP5 PUSH20 0xFFFFFFFFFFFFFFFFFFFFFFFFFFFFFFFFFFFFFFFF AND DUP2 MSTORE PUSH1 0x20 ADD DUP4 ISZERO ISZERO DUP2 MSTORE POP SWAP1 POP SWAP4 SWAP3 POP POP POP JUMP JUMPDEST PUSH2 0xF79 PUSH2 0x1616 JUMP JUMPDEST PUSH1 0x40 MLOAD DUP1 PUSH1 0x40 ADD PUSH1 0x40 MSTORE DUP1 PUSH1 0x0 PUSH4 0xFFFFFFFF AND DUP2 MSTORE PUSH1 0x20 ADD DUP4 PUSH4 0xFFFFFFFF AND DUP2 MSTORE POP SWAP1 POP SWAP2 SWAP1 POP JUMP JUMPDEST PUSH2 0xFAA PUSH2 0x163C JUMP JUMPDEST PUSH1 0x0 DUP4 PUSH1 0x0 DUP2 MLOAD DUP2 LT PUSH2 0xFC0 JUMPI PUSH2 0xFBF PUSH2 0x1E26 JUMP JUMPDEST JUMPDEST PUSH1 0x20 ADD ADD MLOAD PUSH1 0xF8 SHR PUSH1 0xF8 SHL SWAP1 POP PUSH1 0x21 PUSH1 0xF8 SHL DUP2 PUSH31 0xFFFFFFFFFFFFFFFFFFFFFFFFFFFFFFFFFFFFFFFFFFFFFFFFFFFFFFFFFFFFFF NOT AND EQ DUP1 PUSH2 0x1026 JUMPI POP PUSH1 0x3D PUSH1 0xF8 SHL DUP2 PUSH31 0xFFFFFFFFFFFFFFFFFFFFFFFFFFFFFFFFFFFFFFFFFFFFFFFFFFFFFFFFFFFFFF NOT AND EQ JUMPDEST PUSH2 0x1065 JUMPI PUSH1 0x40 MLOAD PUSH32 0x8C379A000000000000000000000000000000000000000000000000000000000 DUP2 MSTORE PUSH1 0x4 ADD PUSH2 0x105C SWAP1 PUSH2 0x2155 JUMP JUMPDEST PUSH1 0x40 MLOAD DUP1 SWAP2 SUB SWAP1 REVERT JUMPDEST PUSH1 0x40 MLOAD DUP1 PUSH1 0x60 ADD PUSH1 0x40 MSTORE DUP1 DUP7 DUP2 MSTORE PUSH1 0x20 ADD DUP6 DUP2 MSTORE PUSH1 0x20 ADD DUP5 DUP2 MSTORE POP SWAP2 POP POP SWAP4 SWAP3 POP POP POP JUMP JUMPDEST PUSH1 0x0 DUP2 PUSH1 0x40 ADD MLOAD SWAP1 POP SWAP2 SWAP1 POP JUMP JUMPDEST PUSH1 0x0 DUP2 PUSH1 0x0 PUSH2 0x10AC DUP3 PUSH4 0xFFFFFFFF AND PUSH2 0x13B7 JUMP JUMPDEST SWAP1 POP PUSH1 0xA DUP2 MLOAD GT ISZERO PUSH2 0x10BD JUMPI PUSH1 0x0 DUP1 REVERT JUMPDEST PUSH1 0x0 DUP6 PUSH1 0x0 ADD MLOAD PUSH4 0xFFFFFFFF AND GT PUSH2 0x110A JUMPI PUSH1 0x40 MLOAD PUSH32 0x8C379A000000000000000000000000000000000000000000000000000000000 DUP2 MSTORE PUSH1 0x4 ADD PUSH2 0x1101 SWAP1 PUSH2 0x21E7 JUMP JUMPDEST PUSH1 0x40 MLOAD DUP1 SWAP2 SUB SWAP1 REVERT JUMPDEST DUP5 PUSH1 0x0 ADD MLOAD PUSH4 0xFFFFFFFF AND DUP5 PUSH4 0xFFFFFFFF AND GT SWAP3 POP POP POP SWAP3 SWAP2 POP POP JUMP JUMPDEST PUSH1 0x0 PUSH1 0x21 PUSH1 0xF8 SHL DUP4 PUSH1 0x20 ADD MLOAD PUSH1 0x0 DUP2 MLOAD DUP2 LT PUSH2 0x1146 JUMPI PUSH2 0x1145 PUSH2 0x1E26 JUMP JUMPDEST JUMPDEST PUSH1 0x20 ADD ADD MLOAD PUSH1 0xF8 SHR PUSH1 0xF8 SHL PUSH31 0xFFFFFFFFFFFFFFFFFFFFFFFFFFFFFFFFFFFFFFFFFFFFFFFFFFFFFFFFFFFFFF NOT AND SUB PUSH2 0x11DD JUMPI DUP3 PUSH1 0x40 ADD MLOAD PUSH1 0x40 MLOAD PUSH1 0x20 ADD PUSH2 0x118D SWAP2 SWAP1 PUSH2 0x2243 JUMP JUMPDEST PUSH1 0x40 MLOAD PUSH1 0x20 DUP2 DUP4 SUB SUB DUP2 MSTORE SWAP1 PUSH1 0x40 MSTORE DUP1 MLOAD SWAP1 PUSH1 0x20 ADD KECCAK256 DUP3 PUSH1 0x40 MLOAD PUSH1 0x20 ADD PUSH2 0x11B4 SWAP2 SWAP1 PUSH2 0x2243 JUMP JUMPDEST PUSH1 0x40 MLOAD PUSH1 0x20 DUP2 DUP4 SUB SUB DUP2 MSTORE SWAP1 PUSH1 0x40 MSTORE DUP1 MLOAD SWAP1 PUSH1 0x20 ADD KECCAK256 EQ PUSH2 0x11D8 JUMPI PUSH1 0x1 SWAP1 POP PUSH2 0x1243 JUMP JUMPDEST PUSH2 0x123E JUMP JUMPDEST DUP3 PUSH1 0x40 ADD MLOAD PUSH1 0x40 MLOAD PUSH1 0x20 ADD PUSH2 0x11F2 SWAP2 SWAP1 PUSH2 0x2243 JUMP JUMPDEST PUSH1 0x40 MLOAD PUSH1 0x20 DUP2 DUP4 SUB SUB DUP2 MSTORE SWAP1 PUSH1 0x40 MSTORE DUP1 MLOAD SWAP1 PUSH1 0x20 ADD KECCAK256 DUP3 PUSH1 0x40 MLOAD PUSH1 0x20 ADD PUSH2 0x1219 SWAP2 SWAP1 PUSH2 0x2243 JUMP JUMPDEST PUSH1 0x40 MLOAD PUSH1 0x20 DUP2 DUP4 SUB SUB DUP2 MSTORE SWAP1 PUSH1 0x40 MSTORE DUP1 MLOAD SWAP1 PUSH1 0x20 ADD KECCAK256 SUB PUSH2 0x123D JUMPI PUSH1 0x1 SWAP1 POP PUSH2 0x1243 JUMP JUMPDEST JUMPDEST PUSH1 0x0 SWAP1 POP JUMPDEST SWAP3 SWAP2 POP POP JUMP JUMPDEST DUP1 PUSH1 0x0 PUSH2 0x125B DUP3 PUSH4 0xFFFFFFFF AND PUSH2 0x13B7 JUMP JUMPDEST SWAP1 POP PUSH1 0xA DUP2 MLOAD GT ISZERO PUSH2 0x126C JUMPI PUSH1 0x0 DUP1 REVERT JUMPDEST DUP4 PUSH1 0x0 ADD PUSH1 0x4 SWAP1 SLOAD SWAP1 PUSH2 0x100 EXP SWAP1 DIV PUSH4 0xFFFFFFFF AND DUP4 PUSH2 0x128C SWAP2 SWAP1 PUSH2 0x2289 JUMP JUMPDEST DUP5 PUSH1 0x0 ADD PUSH1 0x0 PUSH2 0x100 EXP DUP2 SLOAD DUP2 PUSH4 0xFFFFFFFF MUL NOT AND SWAP1 DUP4 PUSH4 0xFFFFFFFF AND MUL OR SWAP1 SSTORE POP POP POP POP POP JUMP JUMPDEST PUSH1 0x0 DUP2 PUSH1 0x4 PUSH1 0x0 DUP6 PUSH20 0xFFFFFFFFFFFFFFFFFFFFFFFFFFFFFFFFFFFFFFFF AND PUSH20 0xFFFFFFFFFFFFFFFFFFFFFFFFFFFFFFFFFFFFFFFF AND DUP2 MSTORE PUSH1 0x20 ADD SWAP1 DUP2 MSTORE PUSH1 0x20 ADD PUSH1 0x0 KECCAK256 PUSH1 0x0 DUP3 ADD DUP2 PUSH1 0x0 ADD SWAP1 DUP1 SLOAD PUSH2 0x130A SWAP1 PUSH2 0x1D3D JUMP JUMPDEST PUSH2 0x1315 SWAP3 SWAP2 SWAP1 PUSH2 0x165D JUMP JUMPDEST POP PUSH1 0x1 DUP3 ADD PUSH1 0x0 SWAP1 SLOAD SWAP1 PUSH2 0x100 EXP SWAP1 DIV PUSH20 0xFFFFFFFFFFFFFFFFFFFFFFFFFFFFFFFFFFFFFFFF AND DUP2 PUSH1 0x1 ADD PUSH1 0x0 PUSH2 0x100 EXP DUP2 SLOAD DUP2 PUSH20 0xFFFFFFFFFFFFFFFFFFFFFFFFFFFFFFFFFFFFFFFF MUL NOT AND SWAP1 DUP4 PUSH20 0xFFFFFFFFFFFFFFFFFFFFFFFFFFFFFFFFFFFFFFFF AND MUL OR SWAP1 SSTORE POP PUSH1 0x1 DUP3 ADD PUSH1 0x14 SWAP1 SLOAD SWAP1 PUSH2 0x100 EXP SWAP1 DIV PUSH1 0xFF AND DUP2 PUSH1 0x1 ADD PUSH1 0x14 PUSH2 0x100 EXP DUP2 SLOAD DUP2 PUSH1 0xFF MUL NOT AND SWAP1 DUP4 ISZERO ISZERO MUL OR SWAP1 SSTORE POP SWAP1 POP POP PUSH1 0x1 SWAP1 POP SWAP3 SWAP2 POP POP JUMP JUMPDEST PUSH1 0x60 PUSH1 0x0 DUP3 SUB PUSH2 0x13FE JUMPI PUSH1 0x40 MLOAD DUP1 PUSH1 0x40 ADD PUSH1 0x40 MSTORE DUP1 PUSH1 0x1 DUP2 MSTORE PUSH1 0x20 ADD PUSH32 0x3000000000000000000000000000000000000000000000000000000000000000 DUP2 MSTORE POP SWAP1 POP PUSH2 0x1512 JUMP JUMPDEST PUSH1 0x0 DUP3 SWAP1 POP PUSH1 0x0 JUMPDEST PUSH1 0x0 DUP3 EQ PUSH2 0x1430 JUMPI DUP1 DUP1 PUSH2 0x1419 SWAP1 PUSH2 0x22CD JUMP JUMPDEST SWAP2 POP POP PUSH1 0xA DUP3 PUSH2 0x1429 SWAP2 SWAP1 PUSH2 0x2344 JUMP JUMPDEST SWAP2 POP PUSH2 0x1406 JUMP JUMPDEST PUSH1 0x0 DUP2 PUSH8 0xFFFFFFFFFFFFFFFF DUP2 GT ISZERO PUSH2 0x144C JUMPI PUSH2 0x144B PUSH2 0x176D JUMP JUMPDEST JUMPDEST PUSH1 0x40 MLOAD SWAP1 DUP1 DUP3 MSTORE DUP1 PUSH1 0x1F ADD PUSH1 0x1F NOT AND PUSH1 0x20 ADD DUP3 ADD PUSH1 0x40 MSTORE DUP1 ISZERO PUSH2 0x147E JUMPI DUP2 PUSH1 0x20 ADD PUSH1 0x1 DUP3 MUL DUP1 CALLDATASIZE DUP4 CALLDATACOPY DUP1 DUP3 ADD SWAP2 POP POP SWAP1 POP JUMPDEST POP SWAP1 POP JUMPDEST PUSH1 0x0 DUP6 EQ PUSH2 0x150B JUMPI PUSH1 0x1 DUP3 PUSH2 0x1497 SWAP2 SWAP1 PUSH2 0x2375 JUMP JUMPDEST SWAP2 POP PUSH1 0xA DUP6 PUSH2 0x14A6 SWAP2 SWAP1 PUSH2 0x23A9 JUMP JUMPDEST PUSH1 0x30 PUSH2 0x14B2 SWAP2 SWAP1 PUSH2 0x23DA JUMP JUMPDEST PUSH1 0xF8 SHL DUP2 DUP4 DUP2 MLOAD DUP2 LT PUSH2 0x14C8 JUMPI PUSH2 0x14C7 PUSH2 0x1E26 JUMP JUMPDEST JUMPDEST PUSH1 0x20 ADD ADD SWAP1 PUSH31 0xFFFFFFFFFFFFFFFFFFFFFFFFFFFFFFFFFFFFFFFFFFFFFFFFFFFFFFFFFFFFFF NOT AND SWAP1 DUP2 PUSH1 0x0 BYTE SWAP1 MSTORE8 POP PUSH1 0xA DUP6 PUSH2 0x1504 SWAP2 SWAP1 PUSH2 0x2344 JUMP JUMPDEST SWAP5 POP PUSH2 0x1482 JUMP JUMPDEST DUP1 SWAP4 POP POP POP POP JUMPDEST SWAP2 SWAP1 POP JUMP JUMPDEST POP DUP1 SLOAD PUSH2 0x1523 SWAP1 PUSH2 0x1D3D JUMP JUMPDEST PUSH1 0x0 DUP3 SSTORE DUP1 PUSH1 0x1F LT PUSH2 0x1535 JUMPI POP PUSH2 0x1554 JUMP JUMPDEST PUSH1 0x1F ADD PUSH1 0x20 SWAP1 DIV SWAP1 PUSH1 0x0 MSTORE PUSH1 0x20 PUSH1 0x0 KECCAK256 SWAP1 DUP2 ADD SWAP1 PUSH2 0x1553 SWAP2 SWAP1 PUSH2 0x16EA JUMP JUMPDEST JUMPDEST POP JUMP JUMPDEST DUP3 DUP1 SLOAD PUSH2 0x1563 SWAP1 PUSH2 0x1D3D JUMP JUMPDEST SWAP1 PUSH1 0x0 MSTORE PUSH1 0x20 PUSH1 0x0 KECCAK256 SWAP1 PUSH1 0x1F ADD PUSH1 0x20 SWAP1 DIV DUP2 ADD SWAP3 DUP3 PUSH2 0x1585 JUMPI PUSH1 0x0 DUP6 SSTORE PUSH2 0x15CC JUMP JUMPDEST DUP3 PUSH1 0x1F LT PUSH2 0x159E JUMPI DUP1 MLOAD PUSH1 0xFF NOT AND DUP4 DUP1 ADD OR DUP6 SSTORE PUSH2 0x15CC JUMP JUMPDEST DUP3 DUP1 ADD PUSH1 0x1 ADD DUP6 SSTORE DUP3 ISZERO PUSH2 0x15CC JUMPI SWAP2 DUP3 ADD JUMPDEST DUP3 DUP2 GT ISZERO PUSH2 0x15CB JUMPI DUP3 MLOAD DUP3 SSTORE SWAP2 PUSH1 0x20 ADD SWAP2 SWAP1 PUSH1 0x1 ADD SWAP1 PUSH2 0x15B0 JUMP JUMPDEST JUMPDEST POP SWAP1 POP PUSH2 0x15D9 SWAP2 SWAP1 PUSH2 0x16EA JUMP JUMPDEST POP SWAP1 JUMP JUMPDEST PUSH1 0x40 MLOAD DUP1 PUSH1 0x60 ADD PUSH1 0x40 MSTORE DUP1 PUSH1 0x60 DUP2 MSTORE PUSH1 0x20 ADD PUSH1 0x0 PUSH20 0xFFFFFFFFFFFFFFFFFFFFFFFFFFFFFFFFFFFFFFFF AND DUP2 MSTORE PUSH1 0x20 ADD PUSH1 0x0 ISZERO ISZERO DUP2 MSTORE POP SWAP1 JUMP JUMPDEST PUSH1 0x40 MLOAD DUP1 PUSH1 0x40 ADD PUSH1 0x40 MSTORE DUP1 PUSH1 0x0 PUSH4 0xFFFFFFFF AND DUP2 MSTORE PUSH1 0x20 ADD PUSH1 0x0 PUSH4 0xFFFFFFFF AND DUP2 MSTORE POP SWAP1 JUMP JUMPDEST PUSH1 0x40 MLOAD DUP1 PUSH1 0x60 ADD PUSH1 0x40 MSTORE DUP1 PUSH1 0x60 DUP2 MSTORE PUSH1 0x20 ADD PUSH1 0x60 DUP2 MSTORE PUSH1 0x20 ADD PUSH1 0x60 DUP2 MSTORE POP SWAP1 JUMP JUMPDEST DUP3 DUP1 SLOAD PUSH2 0x1669 SWAP1 PUSH2 0x1D3D JUMP JUMPDEST SWAP1 PUSH1 0x0 MSTORE PUSH1 0x20 PUSH1 0x0 KECCAK256 SWAP1 PUSH1 0x1F ADD PUSH1 0x20 SWAP1 DIV DUP2 ADD SWAP3 DUP3 PUSH2 0x168B JUMPI PUSH1 0x0 DUP6 SSTORE PUSH2 0x16D9 JUMP JUMPDEST DUP3 PUSH1 0x1F LT PUSH2 0x169C JUMPI DUP1 SLOAD DUP6 SSTORE PUSH2 0x16D9 JUMP JUMPDEST DUP3 DUP1 ADD PUSH1 0x1 ADD DUP6 SSTORE DUP3 ISZERO PUSH2 0x16D9 JUMPI PUSH1 0x0 MSTORE PUSH1 0x20 PUSH1 0x0 KECCAK256 SWAP2 PUSH1 0x1F ADD PUSH1 0x20 SWAP1 DIV DUP3 ADD JUMPDEST DUP3 DUP2 GT ISZERO PUSH2 0x16D8 JUMPI DUP3 SLOAD DUP3 SSTORE SWAP2 PUSH1 0x1 ADD SWAP2 SWAP1 PUSH1 0x1 ADD SWAP1 PUSH2 0x16BD JUMP JUMPDEST JUMPDEST POP SWAP1 POP PUSH2 0x16E6 SWAP2 SWAP1 PUSH2 0x16EA JUMP JUMPDEST POP SWAP1 JUMP JUMPDEST JUMPDEST DUP1 DUP3 GT ISZERO PUSH2 0x1703 JUMPI PUSH1 0x0 DUP2 PUSH1 0x0 SWAP1 SSTORE POP PUSH1 0x1 ADD PUSH2 0x16EB JUMP JUMPDEST POP SWAP1 JUMP JUMPDEST PUSH1 0x0 PUSH1 0x40 MLOAD SWAP1 POP SWAP1 JUMP JUMPDEST PUSH1 0x0 DUP1 REVERT JUMPDEST PUSH1 0x0 DUP1 REVERT JUMPDEST PUSH1 0x0 PUSH4 0xFFFFFFFF DUP3 AND SWAP1 POP SWAP2 SWAP1 POP JUMP JUMPDEST PUSH2 0x1734 DUP2 PUSH2 0x171B JUMP JUMPDEST DUP2 EQ PUSH2 0x173F JUMPI PUSH1 0x0 DUP1 REVERT JUMPDEST POP JUMP JUMPDEST PUSH1 0x0 DUP2 CALLDATALOAD SWAP1 POP PUSH2 0x1751 DUP2 PUSH2 0x172B JUMP JUMPDEST SWAP3 SWAP2 POP POP JUMP JUMPDEST PUSH1 0x0 DUP1 REVERT JUMPDEST PUSH1 0x0 PUSH1 0x1F NOT PUSH1 0x1F DUP4 ADD AND SWAP1 POP SWAP2 SWAP1 POP JUMP JUMPDEST PUSH32 0x4E487B7100000000000000000000000000000000000000000000000000000000 PUSH1 0x0 MSTORE PUSH1 0x41 PUSH1 0x4 MSTORE PUSH1 0x24 PUSH1 0x0 REVERT JUMPDEST PUSH2 0x17A5 DUP3 PUSH2 0x175C JUMP JUMPDEST DUP2 ADD DUP2 DUP2 LT PUSH8 0xFFFFFFFFFFFFFFFF DUP3 GT OR ISZERO PUSH2 0x17C4 JUMPI PUSH2 0x17C3 PUSH2 0x176D JUMP JUMPDEST JUMPDEST DUP1 PUSH1 0x40 MSTORE POP POP POP JUMP JUMPDEST PUSH1 0x0 PUSH2 0x17D7 PUSH2 0x1707 JUMP JUMPDEST SWAP1 POP PUSH2 0x17E3 DUP3 DUP3 PUSH2 0x179C JUMP JUMPDEST SWAP2 SWAP1 POP JUMP JUMPDEST PUSH1 0x0 PUSH8 0xFFFFFFFFFFFFFFFF DUP3 GT ISZERO PUSH2 0x1803 JUMPI PUSH2 0x1802 PUSH2 0x176D JUMP JUMPDEST JUMPDEST PUSH1 0x20 DUP3 MUL SWAP1 POP PUSH1 0x20 DUP2 ADD SWAP1 POP SWAP2 SWAP1 POP JUMP JUMPDEST PUSH1 0x0 DUP1 REVERT JUMPDEST PUSH1 0x0 DUP1 REVERT JUMPDEST PUSH1 0x0 PUSH8 0xFFFFFFFFFFFFFFFF DUP3 GT ISZERO PUSH2 0x1839 JUMPI PUSH2 0x1838 PUSH2 0x176D JUMP JUMPDEST JUMPDEST PUSH2 0x1842 DUP3 PUSH2 0x175C JUMP JUMPDEST SWAP1 POP PUSH1 0x20 DUP2 ADD SWAP1 POP SWAP2 SWAP1 POP JUMP JUMPDEST DUP3 DUP2 DUP4 CALLDATACOPY PUSH1 0x0 DUP4 DUP4 ADD MSTORE POP POP POP JUMP JUMPDEST PUSH1 0x0 PUSH2 0x1871 PUSH2 0x186C DUP5 PUSH2 0x181E JUMP JUMPDEST PUSH2 0x17CD JUMP JUMPDEST SWAP1 POP DUP3 DUP2 MSTORE PUSH1 0x20 DUP2 ADD DUP5 DUP5 DUP5 ADD GT ISZERO PUSH2 0x188D JUMPI PUSH2 0x188C PUSH2 0x1819 JUMP JUMPDEST JUMPDEST PUSH2 0x1898 DUP5 DUP3 DUP6 PUSH2 0x184F JUMP JUMPDEST POP SWAP4 SWAP3 POP POP POP JUMP JUMPDEST PUSH1 0x0 DUP3 PUSH1 0x1F DUP4 ADD SLT PUSH2 0x18B5 JUMPI PUSH2 0x18B4 PUSH2 0x1757 JUMP JUMPDEST JUMPDEST DUP2 CALLDATALOAD PUSH2 0x18C5 DUP5 DUP3 PUSH1 0x20 DUP7 ADD PUSH2 0x185E JUMP JUMPDEST SWAP2 POP POP SWAP3 SWAP2 POP POP JUMP JUMPDEST PUSH1 0x0 PUSH2 0x18E1 PUSH2 0x18DC DUP5 PUSH2 0x17E8 JUMP JUMPDEST PUSH2 0x17CD JUMP JUMPDEST SWAP1 POP DUP1 DUP4 DUP3 MSTORE PUSH1 0x20 DUP3 ADD SWAP1 POP PUSH1 0x20 DUP5 MUL DUP4 ADD DUP6 DUP2 GT ISZERO PUSH2 0x1904 JUMPI PUSH2 0x1903 PUSH2 0x1814 JUMP JUMPDEST JUMPDEST DUP4 JUMPDEST DUP2 DUP2 LT ISZERO PUSH2 0x194B JUMPI DUP1 CALLDATALOAD PUSH8 0xFFFFFFFFFFFFFFFF DUP2 GT ISZERO PUSH2 0x1929 JUMPI PUSH2 0x1928 PUSH2 0x1757 JUMP JUMPDEST JUMPDEST DUP1 DUP7 ADD PUSH2 0x1936 DUP10 DUP3 PUSH2 0x18A0 JUMP JUMPDEST DUP6 MSTORE PUSH1 0x20 DUP6 ADD SWAP5 POP POP POP PUSH1 0x20 DUP2 ADD SWAP1 POP PUSH2 0x1906 JUMP JUMPDEST POP POP POP SWAP4 SWAP3 POP POP POP JUMP JUMPDEST PUSH1 0x0 DUP3 PUSH1 0x1F DUP4 ADD SLT PUSH2 0x196A JUMPI PUSH2 0x1969 PUSH2 0x1757 JUMP JUMPDEST JUMPDEST DUP2 CALLDATALOAD PUSH2 0x197A DUP5 DUP3 PUSH1 0x20 DUP7 ADD PUSH2 0x18CE JUMP JUMPDEST SWAP2 POP POP SWAP3 SWAP2 POP POP JUMP JUMPDEST PUSH1 0x0 DUP1 PUSH1 0x40 DUP4 DUP6 SUB SLT ISZERO PUSH2 0x199A JUMPI PUSH2 0x1999 PUSH2 0x1711 JUMP JUMPDEST JUMPDEST PUSH1 0x0 PUSH2 0x19A8 DUP6 DUP3 DUP7 ADD PUSH2 0x1742 JUMP JUMPDEST SWAP3 POP POP PUSH1 0x20 DUP4 ADD CALLDATALOAD PUSH8 0xFFFFFFFFFFFFFFFF DUP2 GT ISZERO PUSH2 0x19C9 JUMPI PUSH2 0x19C8 PUSH2 0x1716 JUMP JUMPDEST JUMPDEST PUSH2 0x19D5 DUP6 DUP3 DUP7 ADD PUSH2 0x1955 JUMP JUMPDEST SWAP2 POP POP SWAP3 POP SWAP3 SWAP1 POP JUMP JUMPDEST PUSH1 0x0 DUP2 ISZERO ISZERO SWAP1 POP SWAP2 SWAP1 POP JUMP JUMPDEST PUSH2 0x19F4 DUP2 PUSH2 0x19DF JUMP JUMPDEST DUP3 MSTORE POP POP JUMP JUMPDEST PUSH1 0x0 PUSH1 0x20 DUP3 ADD SWAP1 POP PUSH2 0x1A0F PUSH1 0x0 DUP4 ADD DUP5 PUSH2 0x19EB JUMP JUMPDEST SWAP3 SWAP2 POP POP JUMP JUMPDEST PUSH1 0x0 PUSH1 0x20 DUP3 DUP5 SUB SLT ISZERO PUSH2 0x1A2B JUMPI PUSH2 0x1A2A PUSH2 0x1711 JUMP JUMPDEST JUMPDEST PUSH1 0x0 PUSH2 0x1A39 DUP5 DUP3 DUP6 ADD PUSH2 0x1742 JUMP JUMPDEST SWAP2 POP POP SWAP3 SWAP2 POP POP JUMP JUMPDEST PUSH1 0x0 PUSH20 0xFFFFFFFFFFFFFFFFFFFFFFFFFFFFFFFFFFFFFFFF DUP3 AND SWAP1 POP SWAP2 SWAP1 POP JUMP JUMPDEST PUSH1 0x0 PUSH2 0x1A6D DUP3 PUSH2 0x1A42 JUMP JUMPDEST SWAP1 POP SWAP2 SWAP1 POP JUMP JUMPDEST PUSH2 0x1A7D DUP2 PUSH2 0x1A62 JUMP JUMPDEST DUP2 EQ PUSH2 0x1A88 JUMPI PUSH1 0x0 DUP1 REVERT JUMPDEST POP JUMP JUMPDEST PUSH1 0x0 DUP2 CALLDATALOAD SWAP1 POP PUSH2 0x1A9A DUP2 PUSH2 0x1A74 JUMP JUMPDEST SWAP3 SWAP2 POP POP JUMP JUMPDEST PUSH1 0x0 DUP1 PUSH1 0x40 DUP4 DUP6 SUB SLT ISZERO PUSH2 0x1AB7 JUMPI PUSH2 0x1AB6 PUSH2 0x1711 JUMP JUMPDEST JUMPDEST PUSH1 0x0 DUP4 ADD CALLDATALOAD PUSH8 0xFFFFFFFFFFFFFFFF DUP2 GT ISZERO PUSH2 0x1AD5 JUMPI PUSH2 0x1AD4 PUSH2 0x1716 JUMP JUMPDEST JUMPDEST PUSH2 0x1AE1 DUP6 DUP3 DUP7 ADD PUSH2 0x18A0 JUMP JUMPDEST SWAP3 POP POP PUSH1 0x20 PUSH2 0x1AF2 DUP6 DUP3 DUP7 ADD PUSH2 0x1A8B JUMP JUMPDEST SWAP2 POP POP SWAP3 POP SWAP3 SWAP1 POP JUMP JUMPDEST PUSH2 0x1B05 DUP2 PUSH2 0x1A62 JUMP JUMPDEST DUP3 MSTORE POP POP JUMP JUMPDEST PUSH1 0x0 PUSH1 0x20 DUP3 ADD SWAP1 POP PUSH2 0x1B20 PUSH1 0x0 DUP4 ADD DUP5 PUSH2 0x1AFC JUMP JUMPDEST SWAP3 SWAP2 POP POP JUMP JUMPDEST PUSH1 0x0 PUSH1 0x20 DUP3 DUP5 SUB SLT ISZERO PUSH2 0x1B3C JUMPI PUSH2 0x1B3B PUSH2 0x1711 JUMP JUMPDEST JUMPDEST PUSH1 0x0 PUSH2 0x1B4A DUP5 DUP3 DUP6 ADD PUSH2 0x1A8B JUMP JUMPDEST SWAP2 POP POP SWAP3 SWAP2 POP POP JUMP JUMPDEST PUSH1 0x0 DUP2 MLOAD SWAP1 POP SWAP2 SWAP1 POP JUMP JUMPDEST PUSH1 0x0 DUP3 DUP3 MSTORE PUSH1 0x20 DUP3 ADD SWAP1 POP SWAP3 SWAP2 POP POP JUMP JUMPDEST PUSH1 0x0 JUMPDEST DUP4 DUP2 LT ISZERO PUSH2 0x1B8D JUMPI DUP1 DUP3 ADD MLOAD DUP2 DUP5 ADD MSTORE PUSH1 0x20 DUP2 ADD SWAP1 POP PUSH2 0x1B72 JUMP JUMPDEST DUP4 DUP2 GT ISZERO PUSH2 0x1B9C JUMPI PUSH1 0x0 DUP5 DUP5 ADD MSTORE JUMPDEST POP POP POP POP JUMP JUMPDEST PUSH1 0x0 PUSH2 0x1BAD DUP3 PUSH2 0x1B53 JUMP JUMPDEST PUSH2 0x1BB7 DUP2 DUP6 PUSH2 0x1B5E JUMP JUMPDEST SWAP4 POP PUSH2 0x1BC7 DUP2 DUP6 PUSH1 0x20 DUP7 ADD PUSH2 0x1B6F JUMP JUMPDEST PUSH2 0x1BD0 DUP2 PUSH2 0x175C JUMP JUMPDEST DUP5 ADD SWAP2 POP POP SWAP3 SWAP2 POP POP JUMP JUMPDEST PUSH2 0x1BE4 DUP2 PUSH2 0x1A62 JUMP JUMPDEST DUP3 MSTORE POP POP JUMP JUMPDEST PUSH2 0x1BF3 DUP2 PUSH2 0x19DF JUMP JUMPDEST DUP3 MSTORE POP POP JUMP JUMPDEST PUSH1 0x0 PUSH1 0x60 DUP4 ADD PUSH1 0x0 DUP4 ADD MLOAD DUP5 DUP3 SUB PUSH1 0x0 DUP7 ADD MSTORE PUSH2 0x1C16 DUP3 DUP3 PUSH2 0x1BA2 JUMP JUMPDEST SWAP2 POP POP PUSH1 0x20 DUP4 ADD MLOAD PUSH2 0x1C2B PUSH1 0x20 DUP7 ADD DUP3 PUSH2 0x1BDB JUMP JUMPDEST POP PUSH1 0x40 DUP4 ADD MLOAD PUSH2 0x1C3E PUSH1 0x40 DUP7 ADD DUP3 PUSH2 0x1BEA JUMP JUMPDEST POP DUP1 SWAP2 POP POP SWAP3 SWAP2 POP POP JUMP JUMPDEST PUSH1 0x0 PUSH1 0x20 DUP3 ADD SWAP1 POP DUP2 DUP2 SUB PUSH1 0x0 DUP4 ADD MSTORE PUSH2 0x1C63 DUP2 DUP5 PUSH2 0x1BF9 JUMP JUMPDEST SWAP1 POP SWAP3 SWAP2 POP POP JUMP JUMPDEST PUSH1 0x0 DUP3 DUP3 MSTORE PUSH1 0x20 DUP3 ADD SWAP1 POP SWAP3 SWAP2 POP POP JUMP JUMPDEST PUSH32 0x4F6E6C7920746865206170706C69636174696F6E2063616E2065786563757465 PUSH1 0x0 DUP3 ADD MSTORE PUSH32 0x2074686973206F7065726174696F6E0000000000000000000000000000000000 PUSH1 0x20 DUP3 ADD MSTORE POP JUMP JUMPDEST PUSH1 0x0 PUSH2 0x1CD8 PUSH1 0x2F DUP4 PUSH2 0x1C6B JUMP JUMPDEST SWAP2 POP PUSH2 0x1CE3 DUP3 PUSH2 0x1C7C JUMP JUMPDEST PUSH1 0x40 DUP3 ADD SWAP1 POP SWAP2 SWAP1 POP JUMP JUMPDEST PUSH1 0x0 PUSH1 0x20 DUP3 ADD SWAP1 POP DUP2 DUP2 SUB PUSH1 0x0 DUP4 ADD MSTORE PUSH2 0x1D07 DUP2 PUSH2 0x1CCB JUMP JUMPDEST SWAP1 POP SWAP2 SWAP1 POP JUMP JUMPDEST PUSH32 0x4E487B7100000000000000000000000000000000000000000000000000000000 PUSH1 0x0 MSTORE PUSH1 0x22 PUSH1 0x4 MSTORE PUSH1 0x24 PUSH1 0x0 REVERT JUMPDEST PUSH1 0x0 PUSH1 0x2 DUP3 DIV SWAP1 POP PUSH1 0x1 DUP3 AND DUP1 PUSH2 0x1D55 JUMPI PUSH1 0x7F DUP3 AND SWAP2 POP JUMPDEST PUSH1 0x20 DUP3 LT DUP2 SUB PUSH2 0x1D68 JUMPI PUSH2 0x1D67 PUSH2 0x1D0E JUMP JUMPDEST JUMPDEST POP SWAP2 SWAP1 POP JUMP JUMPDEST PUSH32 0x546865204170706C69636174696F6E2070617274792073686F756C6420736967 PUSH1 0x0 DUP3 ADD MSTORE PUSH32 0x6E2074686520636F6E7472616374206265666F726520696E7465726163742077 PUSH1 0x20 DUP3 ADD MSTORE PUSH32 0x6974682069742E00000000000000000000000000000000000000000000000000 PUSH1 0x40 DUP3 ADD MSTORE POP JUMP JUMPDEST PUSH1 0x0 PUSH2 0x1DF0 PUSH1 0x47 DUP4 PUSH2 0x1C6B JUMP JUMPDEST SWAP2 POP PUSH2 0x1DFB DUP3 PUSH2 0x1D6E JUMP JUMPDEST PUSH1 0x60 DUP3 ADD SWAP1 POP SWAP2 SWAP1 POP JUMP JUMPDEST PUSH1 0x0 PUSH1 0x20 DUP3 ADD SWAP1 POP DUP2 DUP2 SUB PUSH1 0x0 DUP4 ADD MSTORE PUSH2 0x1E1F DUP2 PUSH2 0x1DE3 JUMP JUMPDEST SWAP1 POP SWAP2 SWAP1 POP JUMP JUMPDEST PUSH32 0x4E487B7100000000000000000000000000000000000000000000000000000000 PUSH1 0x0 MSTORE PUSH1 0x32 PUSH1 0x4 MSTORE PUSH1 0x24 PUSH1 0x0 REVERT JUMPDEST PUSH32 0x5375636365737366756C20657865637574696F6E210000000000000000000000 PUSH1 0x0 DUP3 ADD MSTORE POP JUMP JUMPDEST PUSH1 0x0 PUSH2 0x1E8B PUSH1 0x15 DUP4 PUSH2 0x1C6B JUMP JUMPDEST SWAP2 POP PUSH2 0x1E96 DUP3 PUSH2 0x1E55 JUMP JUMPDEST PUSH1 0x20 DUP3 ADD SWAP1 POP SWAP2 SWAP1 POP JUMP JUMPDEST PUSH1 0x0 PUSH1 0x20 DUP3 ADD SWAP1 POP DUP2 DUP2 SUB PUSH1 0x0 DUP4 ADD MSTORE PUSH2 0x1EBA DUP2 PUSH2 0x1E7E JUMP JUMPDEST SWAP1 POP SWAP2 SWAP1 POP JUMP JUMPDEST PUSH32 0x52657175657374206D616465206F757473696465206F6620616C6C6F77656420 PUSH1 0x0 DUP3 ADD MSTORE PUSH32 0x686F757273206F722064697374616E6365206C696D6974206578636565646564 PUSH1 0x20 DUP3 ADD MSTORE POP JUMP JUMPDEST PUSH1 0x0 PUSH2 0x1F1D PUSH1 0x40 DUP4 PUSH2 0x1C6B JUMP JUMPDEST SWAP2 POP PUSH2 0x1F28 DUP3 PUSH2 0x1EC1 JUMP JUMPDEST PUSH1 0x40 DUP3 ADD SWAP1 POP SWAP2 SWAP1 POP JUMP JUMPDEST PUSH1 0x0 PUSH1 0x20 DUP3 ADD SWAP1 POP DUP2 DUP2 SUB PUSH1 0x0 DUP4 ADD MSTORE PUSH2 0x1F4C DUP2 PUSH2 0x1F10 JUMP JUMPDEST SWAP1 POP SWAP2 SWAP1 POP JUMP JUMPDEST PUSH32 0x4F6E6C79207468652070726F636573732063616E206578656375746520746869 PUSH1 0x0 DUP3 ADD MSTORE PUSH32 0x73206F7065726174696F6E000000000000000000000000000000000000000000 PUSH1 0x20 DUP3 ADD MSTORE POP JUMP JUMPDEST PUSH1 0x0 PUSH2 0x1FAF PUSH1 0x2B DUP4 PUSH2 0x1C6B JUMP JUMPDEST SWAP2 POP PUSH2 0x1FBA DUP3 PUSH2 0x1F53 JUMP JUMPDEST PUSH1 0x40 DUP3 ADD SWAP1 POP SWAP2 SWAP1 POP JUMP JUMPDEST PUSH1 0x0 PUSH1 0x20 DUP3 ADD SWAP1 POP DUP2 DUP2 SUB PUSH1 0x0 DUP4 ADD MSTORE PUSH2 0x1FDE DUP2 PUSH2 0x1FA2 JUMP JUMPDEST SWAP1 POP SWAP2 SWAP1 POP JUMP JUMPDEST PUSH32 0x4F6E6C79207468652070726F63657373206F7220746865206170706C69636174 PUSH1 0x0 DUP3 ADD MSTORE PUSH32 0x696F6E2063616E20657865637574652074686973206F7065726174696F6E0000 PUSH1 0x20 DUP3 ADD MSTORE POP JUMP JUMPDEST PUSH1 0x0 PUSH2 0x2041 PUSH1 0x3E DUP4 PUSH2 0x1C6B JUMP JUMPDEST SWAP2 POP PUSH2 0x204C DUP3 PUSH2 0x1FE5 JUMP JUMPDEST PUSH1 0x40 DUP3 ADD SWAP1 POP SWAP2 SWAP1 POP JUMP JUMPDEST PUSH1 0x0 PUSH1 0x20 DUP3 ADD SWAP1 POP DUP2 DUP2 SUB PUSH1 0x0 DUP4 ADD MSTORE PUSH2 0x2070 DUP2 PUSH2 0x2034 JUMP JUMPDEST SWAP1 POP SWAP2 SWAP1 POP JUMP JUMPDEST PUSH32 0x54686520636F6E747261637420697320616C7265616479207369676E65640000 PUSH1 0x0 DUP3 ADD MSTORE POP JUMP JUMPDEST PUSH1 0x0 PUSH2 0x20AD PUSH1 0x1E DUP4 PUSH2 0x1C6B JUMP JUMPDEST SWAP2 POP PUSH2 0x20B8 DUP3 PUSH2 0x2077 JUMP JUMPDEST PUSH1 0x20 DUP3 ADD SWAP1 POP SWAP2 SWAP1 POP JUMP JUMPDEST PUSH1 0x0 PUSH1 0x20 DUP3 ADD SWAP1 POP DUP2 DUP2 SUB PUSH1 0x0 DUP4 ADD MSTORE PUSH2 0x20DC DUP2 PUSH2 0x20A0 JUMP JUMPDEST SWAP1 POP SWAP2 SWAP1 POP JUMP JUMPDEST PUSH32 0x4F6E6C792027213D27206F7220273D3D27206F70657261746F72732069732061 PUSH1 0x0 DUP3 ADD MSTORE PUSH32 0x6C6C6F7720746F20636F6D7061726520737472696E6773000000000000000000 PUSH1 0x20 DUP3 ADD MSTORE POP JUMP JUMPDEST PUSH1 0x0 PUSH2 0x213F PUSH1 0x37 DUP4 PUSH2 0x1C6B JUMP JUMPDEST SWAP2 POP PUSH2 0x214A DUP3 PUSH2 0x20E3 JUMP JUMPDEST PUSH1 0x40 DUP3 ADD SWAP1 POP SWAP2 SWAP1 POP JUMP JUMPDEST PUSH1 0x0 PUSH1 0x20 DUP3 ADD SWAP1 POP DUP2 DUP2 SUB PUSH1 0x0 DUP4 ADD MSTORE PUSH2 0x216E DUP2 PUSH2 0x2132 JUMP JUMPDEST SWAP1 POP SWAP2 SWAP1 POP JUMP JUMPDEST PUSH32 0x5468657265206973206E6F20656E6454696D652073657420696E2074696D656F PUSH1 0x0 DUP3 ADD MSTORE PUSH32 0x7574000000000000000000000000000000000000000000000000000000000000 PUSH1 0x20 DUP3 ADD MSTORE POP JUMP JUMPDEST PUSH1 0x0 PUSH2 0x21D1 PUSH1 0x22 DUP4 PUSH2 0x1C6B JUMP JUMPDEST SWAP2 POP PUSH2 0x21DC DUP3 PUSH2 0x2175 JUMP JUMPDEST PUSH1 0x40 DUP3 ADD SWAP1 POP SWAP2 SWAP1 POP JUMP JUMPDEST PUSH1 0x0 PUSH1 0x20 DUP3 ADD SWAP1 POP DUP2 DUP2 SUB PUSH1 0x0 DUP4 ADD MSTORE PUSH2 0x2200 DUP2 PUSH2 0x21C4 JUMP JUMPDEST SWAP1 POP SWAP2 SWAP1 POP JUMP JUMPDEST PUSH1 0x0 DUP2 SWAP1 POP SWAP3 SWAP2 POP POP JUMP JUMPDEST PUSH1 0x0 PUSH2 0x221D DUP3 PUSH2 0x1B53 JUMP JUMPDEST PUSH2 0x2227 DUP2 DUP6 PUSH2 0x2207 JUMP JUMPDEST SWAP4 POP PUSH2 0x2237 DUP2 DUP6 PUSH1 0x20 DUP7 ADD PUSH2 0x1B6F JUMP JUMPDEST DUP1 DUP5 ADD SWAP2 POP POP SWAP3 SWAP2 POP POP JUMP JUMPDEST PUSH1 0x0 PUSH2 0x224F DUP3 DUP5 PUSH2 0x2212 JUMP JUMPDEST SWAP2 POP DUP2 SWAP1 POP SWAP3 SWAP2 POP POP JUMP JUMPDEST PUSH32 0x4E487B7100000000000000000000000000000000000000000000000000000000 PUSH1 0x0 MSTORE PUSH1 0x11 PUSH1 0x4 MSTORE PUSH1 0x24 PUSH1 0x0 REVERT JUMPDEST PUSH1 0x0 PUSH2 0x2294 DUP3 PUSH2 0x171B JUMP JUMPDEST SWAP2 POP PUSH2 0x229F DUP4 PUSH2 0x171B JUMP JUMPDEST SWAP3 POP DUP3 PUSH4 0xFFFFFFFF SUB DUP3 GT ISZERO PUSH2 0x22B8 JUMPI PUSH2 0x22B7 PUSH2 0x225A JUMP JUMPDEST JUMPDEST DUP3 DUP3 ADD SWAP1 POP SWAP3 SWAP2 POP POP JUMP JUMPDEST PUSH1 0x0 DUP2 SWAP1 POP SWAP2 SWAP1 POP JUMP JUMPDEST PUSH1 0x0 PUSH2 0x22D8 DUP3 PUSH2 0x22C3 JUMP JUMPDEST SWAP2 POP PUSH32 0xFFFFFFFFFFFFFFFFFFFFFFFFFFFFFFFFFFFFFFFFFFFFFFFFFFFFFFFFFFFFFFFF DUP3 SUB PUSH2 0x230A JUMPI PUSH2 0x2309 PUSH2 0x225A JUMP JUMPDEST JUMPDEST PUSH1 0x1 DUP3 ADD SWAP1 POP SWAP2 SWAP1 POP JUMP JUMPDEST PUSH32 0x4E487B7100000000000000000000000000000000000000000000000000000000 PUSH1 0x0 MSTORE PUSH1 0x12 PUSH1 0x4 MSTORE PUSH1 0x24 PUSH1 0x0 REVERT JUMPDEST PUSH1 0x0 PUSH2 0x234F DUP3 PUSH2 0x22C3 JUMP JUMPDEST SWAP2 POP PUSH2 0x235A DUP4 PUSH2 0x22C3 JUMP JUMPDEST SWAP3 POP DUP3 PUSH2 0x236A JUMPI PUSH2 0x2369 PUSH2 0x2315 JUMP JUMPDEST JUMPDEST DUP3 DUP3 DIV SWAP1 POP SWAP3 SWAP2 POP POP JUMP JUMPDEST PUSH1 0x0 PUSH2 0x2380 DUP3 PUSH2 0x22C3 JUMP JUMPDEST SWAP2 POP PUSH2 0x238B DUP4 PUSH2 0x22C3 JUMP JUMPDEST SWAP3 POP DUP3 DUP3 LT ISZERO PUSH2 0x239E JUMPI PUSH2 0x239D PUSH2 0x225A JUMP JUMPDEST JUMPDEST DUP3 DUP3 SUB SWAP1 POP SWAP3 SWAP2 POP POP JUMP JUMPDEST PUSH1 0x0 PUSH2 0x23B4 DUP3 PUSH2 0x22C3 JUMP JUMPDEST SWAP2 POP PUSH2 0x23BF DUP4 PUSH2 0x22C3 JUMP JUMPDEST SWAP3 POP DUP3 PUSH2 0x23CF JUMPI PUSH2 0x23CE PUSH2 0x2315 JUMP JUMPDEST JUMPDEST DUP3 DUP3 MOD SWAP1 POP SWAP3 SWAP2 POP POP JUMP JUMPDEST PUSH1 0x0 PUSH2 0x23E5 DUP3 PUSH2 0x22C3 JUMP JUMPDEST SWAP2 POP PUSH2 0x23F0 DUP4 PUSH2 0x22C3 JUMP JUMPDEST SWAP3 POP DUP3 PUSH32 0xFFFFFFFFFFFFFFFFFFFFFFFFFFFFFFFFFFFFFFFFFFFFFFFFFFFFFFFFFFFFFFFF SUB DUP3 GT ISZERO PUSH2 0x2425 JUMPI PUSH2 0x2424 PUSH2 0x225A JUMP JUMPDEST JUMPDEST DUP3 DUP3 ADD SWAP1 POP SWAP3 SWAP2 POP POP JUMP INVALID LOG2 PUSH5 0x6970667358 0x22 SLT KECCAK256 LOG0 DUP14 DUP14 CALLDATACOPY 0xA7 RETURNDATACOPY DIFFICULTY EXTCODECOPY PUSH20 0x16BE108F3B88C03B6E42A4145413955A57D5371D DUP3 0x2F PUSH12 0x64736F6C634300080D003300 "
				},
				"gasEstimates": {
					"creation": {
						"codeDepositCost": "1863600",
						"executionCost": "infinite",
						"totalCost": "infinite"
					},
					"external": {
						"changeApplicationParty(string,address)": "infinite",
						"getApplicationAddress()": "6885",
						"getParty(address)": "infinite",
						"getProcessAddress()": "6907",
						"onlyForTest(uint32)": "infinite",
						"responderOrder(uint32,string[])": "infinite",
						"signContract()": "infinite"
					},
					"internal": {
						"updateMapParty(address,struct EAI.Party storage pointer)": "infinite"
					}
				},
				"methodIdentifiers": {
					"changeApplicationParty(string,address)": "5e744c6a",
					"getApplicationAddress()": "70d8915a",
					"getParty(address)": "fb6f8243",
					"getProcessAddress()": "85931911",
					"onlyForTest(uint32)": "1e900392",
					"responderOrder(uint32,string[])": "007cb3ed",
					"signContract()": "b8b4f1a0"
				}
			},
			"storageLayout": {
				"storage": [
					{
						"astId": 1964,
						"contract": "contracts/study-case-contracts/001-delivery-hiring/DeliveryHiring_O.sol:DeliveryHiring_O",
						"label": "process",
						"offset": 0,
						"slot": "0",
						"type": "t_struct(Party)69_storage"
					},
					{
						"astId": 1967,
						"contract": "contracts/study-case-contracts/001-delivery-hiring/DeliveryHiring_O.sol:DeliveryHiring_O",
						"label": "application",
						"offset": 0,
						"slot": "2",
						"type": "t_struct(Party)69_storage"
					},
					{
						"astId": 1972,
						"contract": "contracts/study-case-contracts/001-delivery-hiring/DeliveryHiring_O.sol:DeliveryHiring_O",
						"label": "mapParty",
						"offset": 0,
						"slot": "4",
						"type": "t_mapping(t_address,t_struct(Party)69_storage)"
					},
					{
						"astId": 1974,
						"contract": "contracts/study-case-contracts/001-delivery-hiring/DeliveryHiring_O.sol:DeliveryHiring_O",
						"label": "beginDate",
						"offset": 0,
						"slot": "5",
						"type": "t_uint32"
					},
					{
						"astId": 1976,
						"contract": "contracts/study-case-contracts/001-delivery-hiring/DeliveryHiring_O.sol:DeliveryHiring_O",
						"label": "dueDate",
						"offset": 4,
						"slot": "5",
						"type": "t_uint32"
					},
					{
						"astId": 1980,
						"contract": "contracts/study-case-contracts/001-delivery-hiring/DeliveryHiring_O.sol:DeliveryHiring_O",
						"label": "timeout",
						"offset": 0,
						"slot": "6",
						"type": "t_array(t_struct(Timeout)598_storage)dyn_storage"
					},
					{
						"astId": 1984,
						"contract": "contracts/study-case-contracts/001-delivery-hiring/DeliveryHiring_O.sol:DeliveryHiring_O",
						"label": "messageContent",
						"offset": 0,
						"slot": "7",
						"type": "t_array(t_struct(MessageContent_String)868_storage)dyn_storage"
					}
				],
				"types": {
					"t_address": {
						"encoding": "inplace",
						"label": "address",
						"numberOfBytes": "20"
					},
					"t_array(t_struct(MessageContent_String)868_storage)dyn_storage": {
						"base": "t_struct(MessageContent_String)868_storage",
						"encoding": "dynamic_array",
						"label": "struct EAI.MessageContent_String[]",
						"numberOfBytes": "32"
					},
					"t_array(t_struct(Timeout)598_storage)dyn_storage": {
						"base": "t_struct(Timeout)598_storage",
						"encoding": "dynamic_array",
						"label": "struct EAI.Timeout[]",
						"numberOfBytes": "32"
					},
					"t_bool": {
						"encoding": "inplace",
						"label": "bool",
						"numberOfBytes": "1"
					},
					"t_mapping(t_address,t_struct(Party)69_storage)": {
						"encoding": "mapping",
						"key": "t_address",
						"label": "mapping(address => struct EAI.Party)",
						"numberOfBytes": "32",
						"value": "t_struct(Party)69_storage"
					},
					"t_string_storage": {
						"encoding": "bytes",
						"label": "string",
						"numberOfBytes": "32"
					},
					"t_struct(MessageContent_String)868_storage": {
						"encoding": "inplace",
						"label": "struct EAI.MessageContent_String",
						"members": [
							{
								"astId": 863,
								"contract": "contracts/study-case-contracts/001-delivery-hiring/DeliveryHiring_O.sol:DeliveryHiring_O",
								"label": "xpath",
								"offset": 0,
								"slot": "0",
								"type": "t_string_storage"
							},
							{
								"astId": 865,
								"contract": "contracts/study-case-contracts/001-delivery-hiring/DeliveryHiring_O.sol:DeliveryHiring_O",
								"label": "op",
								"offset": 0,
								"slot": "1",
								"type": "t_string_storage"
							},
							{
								"astId": 867,
								"contract": "contracts/study-case-contracts/001-delivery-hiring/DeliveryHiring_O.sol:DeliveryHiring_O",
								"label": "content",
								"offset": 0,
								"slot": "2",
								"type": "t_string_storage"
							}
						],
						"numberOfBytes": "96"
					},
					"t_struct(Party)69_storage": {
						"encoding": "inplace",
						"label": "struct EAI.Party",
						"members": [
							{
								"astId": 64,
								"contract": "contracts/study-case-contracts/001-delivery-hiring/DeliveryHiring_O.sol:DeliveryHiring_O",
								"label": "name",
								"offset": 0,
								"slot": "0",
								"type": "t_string_storage"
							},
							{
								"astId": 66,
								"contract": "contracts/study-case-contracts/001-delivery-hiring/DeliveryHiring_O.sol:DeliveryHiring_O",
								"label": "walletAddress",
								"offset": 0,
								"slot": "1",
								"type": "t_address"
							},
							{
								"astId": 68,
								"contract": "contracts/study-case-contracts/001-delivery-hiring/DeliveryHiring_O.sol:DeliveryHiring_O",
								"label": "aware",
								"offset": 20,
								"slot": "1",
								"type": "t_bool"
							}
						],
						"numberOfBytes": "64"
					},
					"t_struct(Timeout)598_storage": {
						"encoding": "inplace",
						"label": "struct EAI.Timeout",
						"members": [
							{
								"astId": 595,
								"contract": "contracts/study-case-contracts/001-delivery-hiring/DeliveryHiring_O.sol:DeliveryHiring_O",
								"label": "endTime",
								"offset": 0,
								"slot": "0",
								"type": "t_uint32"
							},
							{
								"astId": 597,
								"contract": "contracts/study-case-contracts/001-delivery-hiring/DeliveryHiring_O.sol:DeliveryHiring_O",
								"label": "timeIncrement",
								"offset": 4,
								"slot": "0",
								"type": "t_uint32"
							}
						],
						"numberOfBytes": "32"
					},
					"t_uint32": {
						"encoding": "inplace",
						"label": "uint32",
						"numberOfBytes": "4"
					}
				}
			},
			"userdoc": {
				"kind": "user",
				"methods": {},
				"version": 1
			}
		}
	}
}