{
	"data": {
		"bytecode": {
			"linkReferences": {},
			"object": "60806040523480156200001157600080fd5b5060405162003c4e38038062003c4e833981810160405281019062000037919062000de7565b6363b13d806000806101000a81548163ffffffff021916908363ffffffff1602179055506367733400600060046101000a81548163ffffffff021916908363ffffffff160217905550620000ce6040518060400160405280600981526020017f4f726369642041504900000000000000000000000000000000000000000000008152508260006200074b60201b62000d981760201c565b60016000820151816000019080519060200190620000ee92919062000b33565b5060208201518160010160006101000a81548173ffffffffffffffffffffffffffffffffffffffff021916908373ffffffffffffffffffffffffffffffffffffffff16021790555060408201518160010160146101000a81548160ff021916908315150217905550905050620001a76040518060400160405280601381526020017f496e746567726174696f6e2050726f63657373000000000000000000000000008152503360016200074b60201b62000d981760201c565b60036000820151816000019080519060200190620001c792919062000b33565b5060208201518160010160006101000a81548173ffffffffffffffffffffffffffffffffffffffff021916908373ffffffffffffffffffffffffffffffffffffffff16021790555060408201518160010160146101000a81548160ff0219169083151502179055509050506003600560003373ffffffffffffffffffffffffffffffffffffffff1673ffffffffffffffffffffffffffffffffffffffff1681526020019081526020016000206000820181600001908054620002899062000e48565b6200029692919062000bc4565b506001820160009054906101000a900473ffffffffffffffffffffffffffffffffffffffff168160010160006101000a81548173ffffffffffffffffffffffffffffffffffffffff021916908373ffffffffffffffffffffffffffffffffffffffff1602179055506001820160149054906101000a900460ff168160010160146101000a81548160ff0219169083151502179055509050506001600560008373ffffffffffffffffffffffffffffffffffffffff1673ffffffffffffffffffffffffffffffffffffffff1681526020019081526020016000206000820181600001908054620003859062000e48565b6200039292919062000bc4565b506001820160009054906101000a900473ffffffffffffffffffffffffffffffffffffffff168160010160006101000a81548173ffffffffffffffffffffffffffffffffffffffff021916908373ffffffffffffffffffffffffffffffffffffffff1602179055506001820160149054906101000a900460ff168160010160146101000a81548160ff021916908315150217905550905050600662000445600060066200079160201b62000ddc1760201c565b9080600181540180825580915050600190039060005260206000200160009091909190915060008201518160000160006101000a81548160ff021916908360ff16021790555060208201518160000160016101000a81548160ff021916908360ff16021790555050506007620004cb60006201517f6200088460201b62000ec51760201c565b9080600181540180825580915050600190039060005260206000200160009091909190915060008201518160000160006101000a81548163ffffffff021916908363ffffffff16021790555060208201518160000160046101000a81548163ffffffff021916908363ffffffff160217905550505060086200055b601860006200099960201b62000fd01760201c565b9080600181540180825580915050600190039060005260206000200160009091909190915060008201518160000160006101000a81548163ffffffff021916908363ffffffff16021790555060208201518160000160046101000a81548160ff021916908360ff16021790555060408201518160000160056101000a81548163ffffffff021916908363ffffffff16021790555060608201518160000160096101000a81548163ffffffff021916908363ffffffff160217905550608082015181600001600d6101000a81548163ffffffff021916908363ffffffff1602179055505050600962000658603c62000a1e60201b620010491760201c565b9080600181540180825580915050600190039060005260206000200160009091909190915060008201518160000160006101000a81548163ffffffff021916908363ffffffff16021790555060208201518160000160046101000a81548163ffffffff021916908363ffffffff1602179055505050600a620006fe60405180608001604052806041815260200162003c0d6041913962000a5160201b6200107a1760201c565b9080600181540180825580915050600190039060005260206000200160009091909190915060008201518160000190805190602001906200074192919062000b33565b5050505062001056565b6200075562000c5c565b60405180606001604052808581526020018473ffffffffffffffffffffffffffffffffffffffff16815260200183151581525090509392505050565b6200079b62000c95565b8282600060ff168260ff1610158015620007bc5750600660ff168260ff1611155b620007fe576040517f08c379a0000000000000000000000000000000000000000000000000000000008152600401620007f59062000f04565b60405180910390fd5b600060ff168160ff16101580156200081d5750600660ff168160ff1611155b6200085f576040517f08c379a0000000000000000000000000000000000000000000000000000000008152600401620008569062000f9c565b60405180910390fd5b60405180604001604052808660ff1681526020018560ff168152509250505092915050565b6200088e62000cb5565b8282600063ffffffff168263ffffffff1610158015620008bd57506201517f63ffffffff168263ffffffff1611155b620008ff576040517f08c379a0000000000000000000000000000000000000000000000000000000008152600401620008f69062000f04565b60405180910390fd5b600063ffffffff168163ffffffff16101580156200092c57506201517f63ffffffff168163ffffffff1611155b6200096e576040517f08c379a0000000000000000000000000000000000000000000000000000000008152600401620009659062000f9c565b60405180910390fd5b60405180604001604052808663ffffffff1681526020018563ffffffff168152509250505092915050565b620009a362000cdb565b6000600460ff168360ff1611620009cd57620009c58362000a7160201b60201c565b9050620009d2565b600190505b6040518060a001604052808563ffffffff1681526020018460ff1681526020018263ffffffff1681526020018563ffffffff168152602001600063ffffffff1681525091505092915050565b62000a2862000d25565b6040518060400160405280600063ffffffff1681526020018363ffffffff168152509050919050565b62000a5b62000d4b565b6040518060200160405280838152509050919050565b6000600460ff168260ff16111562000ac0576040517f08c379a000000000000000000000000000000000000000000000000000000000815260040162000ab79062001034565b60405180910390fd5b600060ff168260ff160362000ad9576001905062000b2e565b600160ff168260ff160362000af257603c905062000b2e565b600260ff168260ff160362000b0c57610e10905062000b2e565b600360ff168260ff160362000b275762015180905062000b2e565b62093a8090505b919050565b82805462000b419062000e48565b90600052602060002090601f01602090048101928262000b65576000855562000bb1565b82601f1062000b8057805160ff191683800117855562000bb1565b8280016001018555821562000bb1579182015b8281111562000bb057825182559160200191906001019062000b93565b5b50905062000bc0919062000d5e565b5090565b82805462000bd29062000e48565b90600052602060002090601f01602090048101928262000bf6576000855562000c49565b82601f1062000c09578054855562000c49565b8280016001018555821562000c4957600052602060002091601f016020900482015b8281111562000c4857825482559160010191906001019062000c2b565b5b50905062000c58919062000d5e565b5090565b604051806060016040528060608152602001600073ffffffffffffffffffffffffffffffffffffffff1681526020016000151581525090565b6040518060400160405280600060ff168152602001600060ff1681525090565b6040518060400160405280600063ffffffff168152602001600063ffffffff1681525090565b6040518060a00160405280600063ffffffff168152602001600060ff168152602001600063ffffffff168152602001600063ffffffff168152602001600063ffffffff1681525090565b6040518060400160405280600063ffffffff168152602001600063ffffffff1681525090565b6040518060200160405280606081525090565b5b8082111562000d7957600081600090555060010162000d5f565b5090565b600080fd5b600073ffffffffffffffffffffffffffffffffffffffff82169050919050565b600062000daf8262000d82565b9050919050565b62000dc18162000da2565b811462000dcd57600080fd5b50565b60008151905062000de18162000db6565b92915050565b60006020828403121562000e005762000dff62000d7d565b5b600062000e108482850162000dd0565b91505092915050565b7f4e487b7100000000000000000000000000000000000000000000000000000000600052602260045260246000fd5b6000600282049050600182168062000e6157607f821691505b60208210810362000e775762000e7662000e19565b5b50919050565b600082825260208201905092915050565b7f546865205f7374617274446179206e6f7420726570726573656e74732061207660008201527f616c696420646179000000000000000000000000000000000000000000000000602082015250565b600062000eec60288362000e7d565b915062000ef98262000e8e565b604082019050919050565b6000602082019050818103600083015262000f1f8162000edd565b9050919050565b7f546865205f656e64446179206e6f7420726570726573656e747320612076616c60008201527f6964206461790000000000000000000000000000000000000000000000000000602082015250565b600062000f8460268362000e7d565b915062000f918262000f26565b604082019050919050565b6000602082019050818103600083015262000fb78162000f75565b9050919050565b7f546865206d6574686f642067657454696d65496e5365636f6e647320646f657360008201527f6e277420776f726b20666f72204d4f4e544820616e6420594541520000000000602082015250565b60006200101c603b8362000e7d565b9150620010298262000fbe565b604082019050919050565b600060208201905081810360008301526200104f816200100d565b9050919050565b612ba780620010666000396000f3fe608060405234801561001057600080fd5b506004361061007d5760003560e01c8063859319111161005b57806385931911146101005780639c7642231461011e578063b8b4f1a01461014e578063fb6f82431461016c5761007d565b806322d53d53146100825780635e744c6a146100b257806370d8915a146100e2575b600080fd5b61009c60048036038101906100979190611ef5565b61019c565b6040516100a99190611f60565b60405180910390f35b6100cc60048036038101906100c7919061208e565b610386565b6040516100d99190611f60565b60405180910390f35b6100ea610577565b6040516100f791906120f9565b60405180910390f35b610108610690565b60405161011591906120f9565b60405180910390f35b6101386004803603810190610133919061214d565b6107aa565b6040516101459190611f60565b60405180910390f35b610156610a33565b6040516101639190611f60565b60405180910390f35b610186600480360381019061018191906121a0565b610b4f565b60405161019391906122c3565b60405180910390f35b60003373ffffffffffffffffffffffffffffffffffffffff166001800160009054906101000a900473ffffffffffffffffffffffffffffffffffffffff1673ffffffffffffffffffffffffffffffffffffffff1614610230576040517f08c379a000000000000000000000000000000000000000000000000000000000815260040161022790612368565b60405180910390fd5b6102b883600960008154811061024957610248612388565b5b906000526020600020016040518060400160405290816000820160009054906101000a900463ffffffff1663ffffffff1663ffffffff1681526020016000820160049054906101000a900463ffffffff1663ffffffff1663ffffffff168152505061109890919063ffffffff16565b80156102dc5750816000815181106102d3576102d2612388565b5b60200260200101515b156103465761030860086000815481106102f9576102f8612388565b5b90600052602060002001611127565b7f95a1f3a1dafdd4c1af344e3d7c69a72cbce8a3f15fe1cf95a7f5bd23df2e71a160405161033590612403565b60405180910390a160019050610380565b7f66091b7dc2b097c8f60d5cd6aa99633b097f08d2eb1056f3e15361b22e0ea2ba6040516103739061246f565b60405180910390a1600090505b92915050565b60003373ffffffffffffffffffffffffffffffffffffffff16600360010160009054906101000a900473ffffffffffffffffffffffffffffffffffffffff1673ffffffffffffffffffffffffffffffffffffffff161461041b576040517f08c379a000000000000000000000000000000000000000000000000000000000815260040161041290612501565b60405180910390fd5b600560006001800160009054906101000a900473ffffffffffffffffffffffffffffffffffffffff1673ffffffffffffffffffffffffffffffffffffffff1673ffffffffffffffffffffffffffffffffffffffff1681526020019081526020016000206000808201600061048f9190611aa2565b6001820160006101000a81549073ffffffffffffffffffffffffffffffffffffffff02191690556001820160146101000a81549060ff021916905550506104d883836000610d98565b600160008201518160000190805190602001906104f6929190611ae2565b5060208201518160010160006101000a81548173ffffffffffffffffffffffffffffffffffffffff021916908373ffffffffffffffffffffffffffffffffffffffff16021790555060408201518160010160146101000a81548160ff02191690831515021790555090505061056c82600161116c565b506001905092915050565b60003373ffffffffffffffffffffffffffffffffffffffff166001800160009054906101000a900473ffffffffffffffffffffffffffffffffffffffff1673ffffffffffffffffffffffffffffffffffffffff16148061062757503373ffffffffffffffffffffffffffffffffffffffff16600360010160009054906101000a900473ffffffffffffffffffffffffffffffffffffffff1673ffffffffffffffffffffffffffffffffffffffff16145b610666576040517f08c379a000000000000000000000000000000000000000000000000000000000815260040161065d90612593565b60405180910390fd5b6001800160009054906101000a900473ffffffffffffffffffffffffffffffffffffffff16905090565b60003373ffffffffffffffffffffffffffffffffffffffff166001800160009054906101000a900473ffffffffffffffffffffffffffffffffffffffff1673ffffffffffffffffffffffffffffffffffffffff16148061074057503373ffffffffffffffffffffffffffffffffffffffff16600360010160009054906101000a900473ffffffffffffffffffffffffffffffffffffffff1673ffffffffffffffffffffffffffffffffffffffff16145b61077f576040517f08c379a000000000000000000000000000000000000000000000000000000000815260040161077690612593565b60405180910390fd5b600360010160009054906101000a900473ffffffffffffffffffffffffffffffffffffffff16905090565b60003373ffffffffffffffffffffffffffffffffffffffff16600360010160009054906101000a900473ffffffffffffffffffffffffffffffffffffffff1673ffffffffffffffffffffffffffffffffffffffff161461083f576040517f08c379a000000000000000000000000000000000000000000000000000000000815260040161083690612501565b60405180910390fd5b6108b584600660008154811061085857610857612388565b5b906000526020600020016040518060400160405290816000820160009054906101000a900460ff1660ff1660ff1681526020016000820160019054906101000a900460ff1660ff1660ff168152505061126f90919063ffffffff16565b801561094557506109448360076000815481106108d5576108d4612388565b5b906000526020600020016040518060400160405290816000820160009054906101000a900463ffffffff1663ffffffff1663ffffffff1681526020016000820160049054906101000a900463ffffffff1663ffffffff1663ffffffff16815250506112fb90919063ffffffff16565b5b801561097e575061097d82600860008154811061096557610964612388565b5b906000526020600020016113a590919063ffffffff16565b5b156109f2576109b482600960008154811061099c5761099b612388565b5b9060005260206000200161141e90919063ffffffff16565b7f95a1f3a1dafdd4c1af344e3d7c69a72cbce8a3f15fe1cf95a7f5bd23df2e71a16040516109e190612403565b60405180910390a160019050610a2c565b7f66091b7dc2b097c8f60d5cd6aa99633b097f08d2eb1056f3e15361b22e0ea2ba604051610a1f9061246f565b60405180910390a1600090505b9392505050565b60003373ffffffffffffffffffffffffffffffffffffffff166001800160009054906101000a900473ffffffffffffffffffffffffffffffffffffffff1673ffffffffffffffffffffffffffffffffffffffff1614610ac7576040517f08c379a0000000000000000000000000000000000000000000000000000000008152600401610abe90612368565b60405180910390fd5b600015156001800160149054906101000a900460ff16151514610b1f576040517f08c379a0000000000000000000000000000000000000000000000000000000008152600401610b16906125ff565b60405180910390fd5b60018060010160146101000a81548160ff021916908315150217905550610b4733600161116c565b506001905090565b610b57611b68565b3373ffffffffffffffffffffffffffffffffffffffff166001800160009054906101000a900473ffffffffffffffffffffffffffffffffffffffff1673ffffffffffffffffffffffffffffffffffffffff161480610c0557503373ffffffffffffffffffffffffffffffffffffffff16600360010160009054906101000a900473ffffffffffffffffffffffffffffffffffffffff1673ffffffffffffffffffffffffffffffffffffffff16145b610c44576040517f08c379a0000000000000000000000000000000000000000000000000000000008152600401610c3b90612593565b60405180910390fd5b600560008373ffffffffffffffffffffffffffffffffffffffff1673ffffffffffffffffffffffffffffffffffffffff168152602001908152602001600020604051806060016040529081600082018054610c9e9061264e565b80601f0160208091040260200160405190810160405280929190818152602001828054610cca9061264e565b8015610d175780601f10610cec57610100808354040283529160200191610d17565b820191906000526020600020905b815481529060010190602001808311610cfa57829003601f168201915b505050505081526020016001820160009054906101000a900473ffffffffffffffffffffffffffffffffffffffff1673ffffffffffffffffffffffffffffffffffffffff1673ffffffffffffffffffffffffffffffffffffffff1681526020016001820160149054906101000a900460ff1615151515815250509050919050565b610da0611b68565b60405180606001604052808581526020018473ffffffffffffffffffffffffffffffffffffffff16815260200183151581525090509392505050565b610de4611ba1565b8282600060ff168260ff1610158015610e045750600660ff168260ff1611155b610e43576040517f08c379a0000000000000000000000000000000000000000000000000000000008152600401610e3a906126f1565b60405180910390fd5b600060ff168160ff1610158015610e615750600660ff168160ff1611155b610ea0576040517f08c379a0000000000000000000000000000000000000000000000000000000008152600401610e9790612783565b60405180910390fd5b60405180604001604052808660ff1681526020018560ff168152509250505092915050565b610ecd611bc1565b8282600063ffffffff168263ffffffff1610158015610efb57506201517f63ffffffff168263ffffffff1611155b610f3a576040517f08c379a0000000000000000000000000000000000000000000000000000000008152600401610f31906126f1565b60405180910390fd5b600063ffffffff168163ffffffff1610158015610f6657506201517f63ffffffff168163ffffffff1611155b610fa5576040517f08c379a0000000000000000000000000000000000000000000000000000000008152600401610f9c90612783565b60405180910390fd5b60405180604001604052808663ffffffff1681526020018563ffffffff168152509250505092915050565b610fd8611be7565b6000600460ff168360ff1611610ff857610ff183611489565b9050610ffd565b600190505b6040518060a001604052808563ffffffff1681526020018460ff1681526020018263ffffffff1681526020018563ffffffff168152602001600063ffffffff1681525091505092915050565b611051611c31565b6040518060400160405280600063ffffffff1681526020018363ffffffff168152509050919050565b611082611c57565b6040518060200160405280838152509050919050565b60008160006110ac8263ffffffff16611540565b9050600a815111156110bd57600080fd5b6000856000015163ffffffff161161110a576040517f08c379a000000000000000000000000000000000000000000000000000000000815260040161110190612815565b60405180910390fd5b846000015163ffffffff168463ffffffff16119250505092915050565b60018160000160098282829054906101000a900463ffffffff1661114b9190612864565b92506101000a81548163ffffffff021916908363ffffffff16021790555050565b600081600560008573ffffffffffffffffffffffffffffffffffffffff1673ffffffffffffffffffffffffffffffffffffffff16815260200190815260200160002060008201816000019080546111c29061264e565b6111cd929190611c6a565b506001820160009054906101000a900473ffffffffffffffffffffffffffffffffffffffff168160010160006101000a81548173ffffffffffffffffffffffffffffffffffffffff021916908373ffffffffffffffffffffffffffffffffffffffff1602179055506001820160149054906101000a900460ff168160010160146101000a81548160ff0219169083151502179055509050506001905092915050565b6000826020015160ff16836000015160ff1610156112be57826000015160ff168260ff16101580156112ab5750826020015160ff168260ff1611155b156112b957600190506112f5565b6112f0565b826000015160ff168260ff161015806112e15750826020015160ff168260ff1611155b156112ef57600190506112f5565b5b600090505b92915050565b6000826020015163ffffffff16836000015163ffffffff16101561135c57826000015163ffffffff168263ffffffff16101580156113495750826020015163ffffffff168263ffffffff1611155b15611357576001905061139f565b61139a565b826000015163ffffffff168263ffffffff1610158061138b5750826020015163ffffffff168263ffffffff1611155b15611399576001905061139f565b5b600090505b92915050565b60006113d78360000160049054906101000a900460ff1684600001600d9054906101000a900463ffffffff16846116a0565b156113e7576113e68383611765565b5b60008360000160099054906101000a900463ffffffff1663ffffffff1611156114135760019050611418565b600090505b92915050565b8060006114308263ffffffff16611540565b9050600a8151111561144157600080fd5b8360000160049054906101000a900463ffffffff16836114619190612898565b8460000160006101000a81548163ffffffff021916908363ffffffff16021790555050505050565b6000600460ff168260ff1611156114d5576040517f08c379a00000000000000000000000000000000000000000000000000000000081526004016114cc90612944565b60405180910390fd5b600060ff168260ff16036114ec576001905061153b565b600160ff168260ff160361150357603c905061153b565b600260ff168260ff160361151b57610e10905061153b565b600360ff168260ff16036115345762015180905061153b565b62093a8090505b919050565b606060008203611587576040518060400160405280600181526020017f3000000000000000000000000000000000000000000000000000000000000000815250905061169b565b600082905060005b600082146115b95780806115a29061296e565b915050600a826115b291906129e5565b915061158f565b60008167ffffffffffffffff8111156115d5576115d4611d7a565b5b6040519080825280601f01601f1916602001820160405280156116075781602001600182028036833780820191505090505b5090505b60008514611694576001826116209190612a16565b9150600a8561162f9190612a4a565b603061163b9190612a7b565b60f81b81838151811061165157611650612388565b5b60200101907effffffffffffffffffffffffffffffffffffffffffffffffffffffffffffff1916908160001a905350600a8561168d91906129e5565b945061160b565b8093505050505b919050565b600080849050600460ff168160ff16116116cc578363ffffffff168363ffffffff16101591505061175e565b600560ff168160ff16036117345760006116eb8463ffffffff166117f2565b50915050600d8563ffffffff1614801561170b575060018163ffffffff16145b1561171b5760019250505061175e565b8463ffffffff168163ffffffff1610159250505061175e565b60006117458463ffffffff166117f2565b505090508463ffffffff168163ffffffff161015925050505b9392505050565b8160000160009054906101000a900463ffffffff168260000160096101000a81548163ffffffff021916908363ffffffff1602179055506117cc8260000160059054906101000a900463ffffffff168360000160049054906101000a900460ff16836119a5565b82600001600d6101000a81548163ffffffff021916908363ffffffff1602179055505050565b6000806000806201518063ffffffff168561180d91906129e5565b9050600062253d8c62010bd9836118249190612898565b61182e9190612898565b9050600062023ab18260046118439190612ad1565b61184d9190612b0f565b9050600460038262023ab16118629190612ad1565b61186c9190612898565b6118769190612b0f565b826118819190612864565b9150600062164b096001846118969190612898565b610fa06118a39190612ad1565b6118ad9190612b0f565b9050601f6004826105b56118c19190612ad1565b6118cb9190612b0f565b846118d69190612864565b6118e09190612898565b9250600061098f8460506118f49190612ad1565b6118fe9190612b0f565b9050600060508261098f6119129190612ad1565b61191c9190612b0f565b856119279190612864565b9050600b826119369190612b0f565b945084600c6119459190612ad1565b6002836119529190612898565b61195c9190612864565b9150848360318661196d9190612864565b60646119799190612ad1565b6119839190612898565b61198d9190612898565b92508298508197508096505050505050509193909250565b6000600460ff168360ff16116119c7576119c0838386611a38565b9050611a31565b600560ff168360ff1603611a055760006119e68363ffffffff166117f2565b5063ffffffff169150506001816119fd9190612a7b565b915050611a31565b6000611a168363ffffffff166117f2565b505063ffffffff169050600181611a2d9190612a7b565b9150505b9392505050565b6000808284611a479190612b40565b905060008184611a579190612864565b9050600460ff168660ff1603611a8a576203f4808186611a779190612898565b611a819190612898565b92505050611a9b565b8085611a969190612898565b925050505b9392505050565b508054611aae9061264e565b6000825580601f10611ac05750611adf565b601f016020900490600052602060002090810190611ade9190611cf7565b5b50565b828054611aee9061264e565b90600052602060002090601f016020900481019282611b105760008555611b57565b82601f10611b2957805160ff1916838001178555611b57565b82800160010185558215611b57579182015b82811115611b56578251825591602001919060010190611b3b565b5b509050611b649190611cf7565b5090565b604051806060016040528060608152602001600073ffffffffffffffffffffffffffffffffffffffff1681526020016000151581525090565b6040518060400160405280600060ff168152602001600060ff1681525090565b6040518060400160405280600063ffffffff168152602001600063ffffffff1681525090565b6040518060a00160405280600063ffffffff168152602001600060ff168152602001600063ffffffff168152602001600063ffffffff168152602001600063ffffffff1681525090565b6040518060400160405280600063ffffffff168152602001600063ffffffff1681525090565b6040518060200160405280606081525090565b828054611c769061264e565b90600052602060002090601f016020900481019282611c985760008555611ce6565b82601f10611ca95780548555611ce6565b82800160010185558215611ce657600052602060002091601f016020900482015b82811115611ce5578254825591600101919060010190611cca565b5b509050611cf39190611cf7565b5090565b5b80821115611d10576000816000905550600101611cf8565b5090565b6000604051905090565b600080fd5b600080fd5b600063ffffffff82169050919050565b611d4181611d28565b8114611d4c57600080fd5b50565b600081359050611d5e81611d38565b92915050565b600080fd5b6000601f19601f8301169050919050565b7f4e487b7100000000000000000000000000000000000000000000000000000000600052604160045260246000fd5b611db282611d69565b810181811067ffffffffffffffff82111715611dd157611dd0611d7a565b5b80604052505050565b6000611de4611d14565b9050611df08282611da9565b919050565b600067ffffffffffffffff821115611e1057611e0f611d7a565b5b602082029050602081019050919050565b600080fd5b60008115159050919050565b611e3b81611e26565b8114611e4657600080fd5b50565b600081359050611e5881611e32565b92915050565b6000611e71611e6c84611df5565b611dda565b90508083825260208201905060208402830185811115611e9457611e93611e21565b5b835b81811015611ebd5780611ea98882611e49565b845260208401935050602081019050611e96565b5050509392505050565b600082601f830112611edc57611edb611d64565b5b8135611eec848260208601611e5e565b91505092915050565b60008060408385031215611f0c57611f0b611d1e565b5b6000611f1a85828601611d4f565b925050602083013567ffffffffffffffff811115611f3b57611f3a611d23565b5b611f4785828601611ec7565b9150509250929050565b611f5a81611e26565b82525050565b6000602082019050611f756000830184611f51565b92915050565b600080fd5b600067ffffffffffffffff821115611f9b57611f9a611d7a565b5b611fa482611d69565b9050602081019050919050565b82818337600083830152505050565b6000611fd3611fce84611f80565b611dda565b905082815260208101848484011115611fef57611fee611f7b565b5b611ffa848285611fb1565b509392505050565b600082601f83011261201757612016611d64565b5b8135612027848260208601611fc0565b91505092915050565b600073ffffffffffffffffffffffffffffffffffffffff82169050919050565b600061205b82612030565b9050919050565b61206b81612050565b811461207657600080fd5b50565b60008135905061208881612062565b92915050565b600080604083850312156120a5576120a4611d1e565b5b600083013567ffffffffffffffff8111156120c3576120c2611d23565b5b6120cf85828601612002565b92505060206120e085828601612079565b9150509250929050565b6120f381612050565b82525050565b600060208201905061210e60008301846120ea565b92915050565b600060ff82169050919050565b61212a81612114565b811461213557600080fd5b50565b60008135905061214781612121565b92915050565b60008060006060848603121561216657612165611d1e565b5b600061217486828701612138565b935050602061218586828701611d4f565b925050604061219686828701611d4f565b9150509250925092565b6000602082840312156121b6576121b5611d1e565b5b60006121c484828501612079565b91505092915050565b600081519050919050565b600082825260208201905092915050565b60005b838110156122075780820151818401526020810190506121ec565b83811115612216576000848401525b50505050565b6000612227826121cd565b61223181856121d8565b93506122418185602086016121e9565b61224a81611d69565b840191505092915050565b61225e81612050565b82525050565b61226d81611e26565b82525050565b60006060830160008301518482036000860152612290828261221c565b91505060208301516122a56020860182612255565b5060408301516122b86040860182612264565b508091505092915050565b600060208201905081810360008301526122dd8184612273565b905092915050565b600082825260208201905092915050565b7f4f6e6c7920746865206170706c69636174696f6e2063616e206578656375746560008201527f2074686973206f7065726174696f6e0000000000000000000000000000000000602082015250565b6000612352602f836122e5565b915061235d826122f6565b604082019050919050565b6000602082019050818103600083015261238181612345565b9050919050565b7f4e487b7100000000000000000000000000000000000000000000000000000000600052603260045260246000fd5b7f5375636365737366756c20657865637574696f6e210000000000000000000000600082015250565b60006123ed6015836122e5565b91506123f8826123b7565b602082019050919050565b6000602082019050818103600083015261241c816123e0565b9050919050565b7f436f6e646974696f6e7320646f206e6f74206d65657400000000000000000000600082015250565b60006124596016836122e5565b915061246482612423565b602082019050919050565b600060208201905081810360008301526124888161244c565b9050919050565b7f4f6e6c79207468652070726f636573732063616e20657865637574652074686960008201527f73206f7065726174696f6e000000000000000000000000000000000000000000602082015250565b60006124eb602b836122e5565b91506124f68261248f565b604082019050919050565b6000602082019050818103600083015261251a816124de565b9050919050565b7f4f6e6c79207468652070726f63657373206f7220746865206170706c6963617460008201527f696f6e2063616e20657865637574652074686973206f7065726174696f6e0000602082015250565b600061257d603e836122e5565b915061258882612521565b604082019050919050565b600060208201905081810360008301526125ac81612570565b9050919050565b7f54686520636f6e747261637420697320616c7265616479207369676e65640000600082015250565b60006125e9601e836122e5565b91506125f4826125b3565b602082019050919050565b60006020820190508181036000830152612618816125dc565b9050919050565b7f4e487b7100000000000000000000000000000000000000000000000000000000600052602260045260246000fd5b6000600282049050600182168061266657607f821691505b6020821081036126795761267861261f565b5b50919050565b7f546865205f7374617274446179206e6f7420726570726573656e74732061207660008201527f616c696420646179000000000000000000000000000000000000000000000000602082015250565b60006126db6028836122e5565b91506126e68261267f565b604082019050919050565b6000602082019050818103600083015261270a816126ce565b9050919050565b7f546865205f656e64446179206e6f7420726570726573656e747320612076616c60008201527f6964206461790000000000000000000000000000000000000000000000000000602082015250565b600061276d6026836122e5565b915061277882612711565b604082019050919050565b6000602082019050818103600083015261279c81612760565b9050919050565b7f5468657265206973206e6f20656e6454696d652073657420696e2074696d656f60008201527f7574000000000000000000000000000000000000000000000000000000000000602082015250565b60006127ff6022836122e5565b915061280a826127a3565b604082019050919050565b6000602082019050818103600083015261282e816127f2565b9050919050565b7f4e487b7100000000000000000000000000000000000000000000000000000000600052601160045260246000fd5b600061286f82611d28565b915061287a83611d28565b92508282101561288d5761288c612835565b5b828203905092915050565b60006128a382611d28565b91506128ae83611d28565b92508263ffffffff038211156128c7576128c6612835565b5b828201905092915050565b7f546865206d6574686f642067657454696d65496e5365636f6e647320646f657360008201527f6e277420776f726b20666f72204d4f4e544820616e6420594541520000000000602082015250565b600061292e603b836122e5565b9150612939826128d2565b604082019050919050565b6000602082019050818103600083015261295d81612921565b9050919050565b6000819050919050565b600061297982612964565b91507fffffffffffffffffffffffffffffffffffffffffffffffffffffffffffffffff82036129ab576129aa612835565b5b600182019050919050565b7f4e487b7100000000000000000000000000000000000000000000000000000000600052601260045260246000fd5b60006129f082612964565b91506129fb83612964565b925082612a0b57612a0a6129b6565b5b828204905092915050565b6000612a2182612964565b9150612a2c83612964565b925082821015612a3f57612a3e612835565b5b828203905092915050565b6000612a5582612964565b9150612a6083612964565b925082612a7057612a6f6129b6565b5b828206905092915050565b6000612a8682612964565b9150612a9183612964565b9250827fffffffffffffffffffffffffffffffffffffffffffffffffffffffffffffffff03821115612ac657612ac5612835565b5b828201905092915050565b6000612adc82611d28565b9150612ae783611d28565b92508163ffffffff0483118215151615612b0457612b03612835565b5b828202905092915050565b6000612b1a82611d28565b9150612b2583611d28565b925082612b3557612b346129b6565b5b828204905092915050565b6000612b4b82611d28565b9150612b5683611d28565b925082612b6657612b656129b6565b5b82820690509291505056fea26469706673582212209fb011a9640213cc933d7b5bfbe5151ea57fc4654cb5823c4d42fbbba1c704c064736f6c634300080d0033636f756e74282f2f626f64792f726571756573742f646f63756d656e7429203d3d20636f756e74282f2f626f64792f726573706f6e73652f646f63756d656e7429",
			"opcodes": "PUSH1 0x80 PUSH1 0x40 MSTORE CALLVALUE DUP1 ISZERO PUSH3 0x11 JUMPI PUSH1 0x0 DUP1 REVERT JUMPDEST POP PUSH1 0x40 MLOAD PUSH3 0x3C4E CODESIZE SUB DUP1 PUSH3 0x3C4E DUP4 CODECOPY DUP2 DUP2 ADD PUSH1 0x40 MSTORE DUP2 ADD SWAP1 PUSH3 0x37 SWAP2 SWAP1 PUSH3 0xDE7 JUMP JUMPDEST PUSH4 0x63B13D80 PUSH1 0x0 DUP1 PUSH2 0x100 EXP DUP2 SLOAD DUP2 PUSH4 0xFFFFFFFF MUL NOT AND SWAP1 DUP4 PUSH4 0xFFFFFFFF AND MUL OR SWAP1 SSTORE POP PUSH4 0x67733400 PUSH1 0x0 PUSH1 0x4 PUSH2 0x100 EXP DUP2 SLOAD DUP2 PUSH4 0xFFFFFFFF MUL NOT AND SWAP1 DUP4 PUSH4 0xFFFFFFFF AND MUL OR SWAP1 SSTORE POP PUSH3 0xCE PUSH1 0x40 MLOAD DUP1 PUSH1 0x40 ADD PUSH1 0x40 MSTORE DUP1 PUSH1 0x9 DUP2 MSTORE PUSH1 0x20 ADD PUSH32 0x4F72636964204150490000000000000000000000000000000000000000000000 DUP2 MSTORE POP DUP3 PUSH1 0x0 PUSH3 0x74B PUSH1 0x20 SHL PUSH3 0xD98 OR PUSH1 0x20 SHR JUMP JUMPDEST PUSH1 0x1 PUSH1 0x0 DUP3 ADD MLOAD DUP2 PUSH1 0x0 ADD SWAP1 DUP1 MLOAD SWAP1 PUSH1 0x20 ADD SWAP1 PUSH3 0xEE SWAP3 SWAP2 SWAP1 PUSH3 0xB33 JUMP JUMPDEST POP PUSH1 0x20 DUP3 ADD MLOAD DUP2 PUSH1 0x1 ADD PUSH1 0x0 PUSH2 0x100 EXP DUP2 SLOAD DUP2 PUSH20 0xFFFFFFFFFFFFFFFFFFFFFFFFFFFFFFFFFFFFFFFF MUL NOT AND SWAP1 DUP4 PUSH20 0xFFFFFFFFFFFFFFFFFFFFFFFFFFFFFFFFFFFFFFFF AND MUL OR SWAP1 SSTORE POP PUSH1 0x40 DUP3 ADD MLOAD DUP2 PUSH1 0x1 ADD PUSH1 0x14 PUSH2 0x100 EXP DUP2 SLOAD DUP2 PUSH1 0xFF MUL NOT AND SWAP1 DUP4 ISZERO ISZERO MUL OR SWAP1 SSTORE POP SWAP1 POP POP PUSH3 0x1A7 PUSH1 0x40 MLOAD DUP1 PUSH1 0x40 ADD PUSH1 0x40 MSTORE DUP1 PUSH1 0x13 DUP2 MSTORE PUSH1 0x20 ADD PUSH32 0x496E746567726174696F6E2050726F6365737300000000000000000000000000 DUP2 MSTORE POP CALLER PUSH1 0x1 PUSH3 0x74B PUSH1 0x20 SHL PUSH3 0xD98 OR PUSH1 0x20 SHR JUMP JUMPDEST PUSH1 0x3 PUSH1 0x0 DUP3 ADD MLOAD DUP2 PUSH1 0x0 ADD SWAP1 DUP1 MLOAD SWAP1 PUSH1 0x20 ADD SWAP1 PUSH3 0x1C7 SWAP3 SWAP2 SWAP1 PUSH3 0xB33 JUMP JUMPDEST POP PUSH1 0x20 DUP3 ADD MLOAD DUP2 PUSH1 0x1 ADD PUSH1 0x0 PUSH2 0x100 EXP DUP2 SLOAD DUP2 PUSH20 0xFFFFFFFFFFFFFFFFFFFFFFFFFFFFFFFFFFFFFFFF MUL NOT AND SWAP1 DUP4 PUSH20 0xFFFFFFFFFFFFFFFFFFFFFFFFFFFFFFFFFFFFFFFF AND MUL OR SWAP1 SSTORE POP PUSH1 0x40 DUP3 ADD MLOAD DUP2 PUSH1 0x1 ADD PUSH1 0x14 PUSH2 0x100 EXP DUP2 SLOAD DUP2 PUSH1 0xFF MUL NOT AND SWAP1 DUP4 ISZERO ISZERO MUL OR SWAP1 SSTORE POP SWAP1 POP POP PUSH1 0x3 PUSH1 0x5 PUSH1 0x0 CALLER PUSH20 0xFFFFFFFFFFFFFFFFFFFFFFFFFFFFFFFFFFFFFFFF AND PUSH20 0xFFFFFFFFFFFFFFFFFFFFFFFFFFFFFFFFFFFFFFFF AND DUP2 MSTORE PUSH1 0x20 ADD SWAP1 DUP2 MSTORE PUSH1 0x20 ADD PUSH1 0x0 KECCAK256 PUSH1 0x0 DUP3 ADD DUP2 PUSH1 0x0 ADD SWAP1 DUP1 SLOAD PUSH3 0x289 SWAP1 PUSH3 0xE48 JUMP JUMPDEST PUSH3 0x296 SWAP3 SWAP2 SWAP1 PUSH3 0xBC4 JUMP JUMPDEST POP PUSH1 0x1 DUP3 ADD PUSH1 0x0 SWAP1 SLOAD SWAP1 PUSH2 0x100 EXP SWAP1 DIV PUSH20 0xFFFFFFFFFFFFFFFFFFFFFFFFFFFFFFFFFFFFFFFF AND DUP2 PUSH1 0x1 ADD PUSH1 0x0 PUSH2 0x100 EXP DUP2 SLOAD DUP2 PUSH20 0xFFFFFFFFFFFFFFFFFFFFFFFFFFFFFFFFFFFFFFFF MUL NOT AND SWAP1 DUP4 PUSH20 0xFFFFFFFFFFFFFFFFFFFFFFFFFFFFFFFFFFFFFFFF AND MUL OR SWAP1 SSTORE POP PUSH1 0x1 DUP3 ADD PUSH1 0x14 SWAP1 SLOAD SWAP1 PUSH2 0x100 EXP SWAP1 DIV PUSH1 0xFF AND DUP2 PUSH1 0x1 ADD PUSH1 0x14 PUSH2 0x100 EXP DUP2 SLOAD DUP2 PUSH1 0xFF MUL NOT AND SWAP1 DUP4 ISZERO ISZERO MUL OR SWAP1 SSTORE POP SWAP1 POP POP PUSH1 0x1 PUSH1 0x5 PUSH1 0x0 DUP4 PUSH20 0xFFFFFFFFFFFFFFFFFFFFFFFFFFFFFFFFFFFFFFFF AND PUSH20 0xFFFFFFFFFFFFFFFFFFFFFFFFFFFFFFFFFFFFFFFF AND DUP2 MSTORE PUSH1 0x20 ADD SWAP1 DUP2 MSTORE PUSH1 0x20 ADD PUSH1 0x0 KECCAK256 PUSH1 0x0 DUP3 ADD DUP2 PUSH1 0x0 ADD SWAP1 DUP1 SLOAD PUSH3 0x385 SWAP1 PUSH3 0xE48 JUMP JUMPDEST PUSH3 0x392 SWAP3 SWAP2 SWAP1 PUSH3 0xBC4 JUMP JUMPDEST POP PUSH1 0x1 DUP3 ADD PUSH1 0x0 SWAP1 SLOAD SWAP1 PUSH2 0x100 EXP SWAP1 DIV PUSH20 0xFFFFFFFFFFFFFFFFFFFFFFFFFFFFFFFFFFFFFFFF AND DUP2 PUSH1 0x1 ADD PUSH1 0x0 PUSH2 0x100 EXP DUP2 SLOAD DUP2 PUSH20 0xFFFFFFFFFFFFFFFFFFFFFFFFFFFFFFFFFFFFFFFF MUL NOT AND SWAP1 DUP4 PUSH20 0xFFFFFFFFFFFFFFFFFFFFFFFFFFFFFFFFFFFFFFFF AND MUL OR SWAP1 SSTORE POP PUSH1 0x1 DUP3 ADD PUSH1 0x14 SWAP1 SLOAD SWAP1 PUSH2 0x100 EXP SWAP1 DIV PUSH1 0xFF AND DUP2 PUSH1 0x1 ADD PUSH1 0x14 PUSH2 0x100 EXP DUP2 SLOAD DUP2 PUSH1 0xFF MUL NOT AND SWAP1 DUP4 ISZERO ISZERO MUL OR SWAP1 SSTORE POP SWAP1 POP POP PUSH1 0x6 PUSH3 0x445 PUSH1 0x0 PUSH1 0x6 PUSH3 0x791 PUSH1 0x20 SHL PUSH3 0xDDC OR PUSH1 0x20 SHR JUMP JUMPDEST SWAP1 DUP1 PUSH1 0x1 DUP2 SLOAD ADD DUP1 DUP3 SSTORE DUP1 SWAP2 POP POP PUSH1 0x1 SWAP1 SUB SWAP1 PUSH1 0x0 MSTORE PUSH1 0x20 PUSH1 0x0 KECCAK256 ADD PUSH1 0x0 SWAP1 SWAP2 SWAP1 SWAP2 SWAP1 SWAP2 POP PUSH1 0x0 DUP3 ADD MLOAD DUP2 PUSH1 0x0 ADD PUSH1 0x0 PUSH2 0x100 EXP DUP2 SLOAD DUP2 PUSH1 0xFF MUL NOT AND SWAP1 DUP4 PUSH1 0xFF AND MUL OR SWAP1 SSTORE POP PUSH1 0x20 DUP3 ADD MLOAD DUP2 PUSH1 0x0 ADD PUSH1 0x1 PUSH2 0x100 EXP DUP2 SLOAD DUP2 PUSH1 0xFF MUL NOT AND SWAP1 DUP4 PUSH1 0xFF AND MUL OR SWAP1 SSTORE POP POP POP PUSH1 0x7 PUSH3 0x4CB PUSH1 0x0 PUSH3 0x1517F PUSH3 0x884 PUSH1 0x20 SHL PUSH3 0xEC5 OR PUSH1 0x20 SHR JUMP JUMPDEST SWAP1 DUP1 PUSH1 0x1 DUP2 SLOAD ADD DUP1 DUP3 SSTORE DUP1 SWAP2 POP POP PUSH1 0x1 SWAP1 SUB SWAP1 PUSH1 0x0 MSTORE PUSH1 0x20 PUSH1 0x0 KECCAK256 ADD PUSH1 0x0 SWAP1 SWAP2 SWAP1 SWAP2 SWAP1 SWAP2 POP PUSH1 0x0 DUP3 ADD MLOAD DUP2 PUSH1 0x0 ADD PUSH1 0x0 PUSH2 0x100 EXP DUP2 SLOAD DUP2 PUSH4 0xFFFFFFFF MUL NOT AND SWAP1 DUP4 PUSH4 0xFFFFFFFF AND MUL OR SWAP1 SSTORE POP PUSH1 0x20 DUP3 ADD MLOAD DUP2 PUSH1 0x0 ADD PUSH1 0x4 PUSH2 0x100 EXP DUP2 SLOAD DUP2 PUSH4 0xFFFFFFFF MUL NOT AND SWAP1 DUP4 PUSH4 0xFFFFFFFF AND MUL OR SWAP1 SSTORE POP POP POP PUSH1 0x8 PUSH3 0x55B PUSH1 0x18 PUSH1 0x0 PUSH3 0x999 PUSH1 0x20 SHL PUSH3 0xFD0 OR PUSH1 0x20 SHR JUMP JUMPDEST SWAP1 DUP1 PUSH1 0x1 DUP2 SLOAD ADD DUP1 DUP3 SSTORE DUP1 SWAP2 POP POP PUSH1 0x1 SWAP1 SUB SWAP1 PUSH1 0x0 MSTORE PUSH1 0x20 PUSH1 0x0 KECCAK256 ADD PUSH1 0x0 SWAP1 SWAP2 SWAP1 SWAP2 SWAP1 SWAP2 POP PUSH1 0x0 DUP3 ADD MLOAD DUP2 PUSH1 0x0 ADD PUSH1 0x0 PUSH2 0x100 EXP DUP2 SLOAD DUP2 PUSH4 0xFFFFFFFF MUL NOT AND SWAP1 DUP4 PUSH4 0xFFFFFFFF AND MUL OR SWAP1 SSTORE POP PUSH1 0x20 DUP3 ADD MLOAD DUP2 PUSH1 0x0 ADD PUSH1 0x4 PUSH2 0x100 EXP DUP2 SLOAD DUP2 PUSH1 0xFF MUL NOT AND SWAP1 DUP4 PUSH1 0xFF AND MUL OR SWAP1 SSTORE POP PUSH1 0x40 DUP3 ADD MLOAD DUP2 PUSH1 0x0 ADD PUSH1 0x5 PUSH2 0x100 EXP DUP2 SLOAD DUP2 PUSH4 0xFFFFFFFF MUL NOT AND SWAP1 DUP4 PUSH4 0xFFFFFFFF AND MUL OR SWAP1 SSTORE POP PUSH1 0x60 DUP3 ADD MLOAD DUP2 PUSH1 0x0 ADD PUSH1 0x9 PUSH2 0x100 EXP DUP2 SLOAD DUP2 PUSH4 0xFFFFFFFF MUL NOT AND SWAP1 DUP4 PUSH4 0xFFFFFFFF AND MUL OR SWAP1 SSTORE POP PUSH1 0x80 DUP3 ADD MLOAD DUP2 PUSH1 0x0 ADD PUSH1 0xD PUSH2 0x100 EXP DUP2 SLOAD DUP2 PUSH4 0xFFFFFFFF MUL NOT AND SWAP1 DUP4 PUSH4 0xFFFFFFFF AND MUL OR SWAP1 SSTORE POP POP POP PUSH1 0x9 PUSH3 0x658 PUSH1 0x3C PUSH3 0xA1E PUSH1 0x20 SHL PUSH3 0x1049 OR PUSH1 0x20 SHR JUMP JUMPDEST SWAP1 DUP1 PUSH1 0x1 DUP2 SLOAD ADD DUP1 DUP3 SSTORE DUP1 SWAP2 POP POP PUSH1 0x1 SWAP1 SUB SWAP1 PUSH1 0x0 MSTORE PUSH1 0x20 PUSH1 0x0 KECCAK256 ADD PUSH1 0x0 SWAP1 SWAP2 SWAP1 SWAP2 SWAP1 SWAP2 POP PUSH1 0x0 DUP3 ADD MLOAD DUP2 PUSH1 0x0 ADD PUSH1 0x0 PUSH2 0x100 EXP DUP2 SLOAD DUP2 PUSH4 0xFFFFFFFF MUL NOT AND SWAP1 DUP4 PUSH4 0xFFFFFFFF AND MUL OR SWAP1 SSTORE POP PUSH1 0x20 DUP3 ADD MLOAD DUP2 PUSH1 0x0 ADD PUSH1 0x4 PUSH2 0x100 EXP DUP2 SLOAD DUP2 PUSH4 0xFFFFFFFF MUL NOT AND SWAP1 DUP4 PUSH4 0xFFFFFFFF AND MUL OR SWAP1 SSTORE POP POP POP PUSH1 0xA PUSH3 0x6FE PUSH1 0x40 MLOAD DUP1 PUSH1 0x80 ADD PUSH1 0x40 MSTORE DUP1 PUSH1 0x41 DUP2 MSTORE PUSH1 0x20 ADD PUSH3 0x3C0D PUSH1 0x41 SWAP2 CODECOPY PUSH3 0xA51 PUSH1 0x20 SHL PUSH3 0x107A OR PUSH1 0x20 SHR JUMP JUMPDEST SWAP1 DUP1 PUSH1 0x1 DUP2 SLOAD ADD DUP1 DUP3 SSTORE DUP1 SWAP2 POP POP PUSH1 0x1 SWAP1 SUB SWAP1 PUSH1 0x0 MSTORE PUSH1 0x20 PUSH1 0x0 KECCAK256 ADD PUSH1 0x0 SWAP1 SWAP2 SWAP1 SWAP2 SWAP1 SWAP2 POP PUSH1 0x0 DUP3 ADD MLOAD DUP2 PUSH1 0x0 ADD SWAP1 DUP1 MLOAD SWAP1 PUSH1 0x20 ADD SWAP1 PUSH3 0x741 SWAP3 SWAP2 SWAP1 PUSH3 0xB33 JUMP JUMPDEST POP POP POP POP PUSH3 0x1056 JUMP JUMPDEST PUSH3 0x755 PUSH3 0xC5C JUMP JUMPDEST PUSH1 0x40 MLOAD DUP1 PUSH1 0x60 ADD PUSH1 0x40 MSTORE DUP1 DUP6 DUP2 MSTORE PUSH1 0x20 ADD DUP5 PUSH20 0xFFFFFFFFFFFFFFFFFFFFFFFFFFFFFFFFFFFFFFFF AND DUP2 MSTORE PUSH1 0x20 ADD DUP4 ISZERO ISZERO DUP2 MSTORE POP SWAP1 POP SWAP4 SWAP3 POP POP POP JUMP JUMPDEST PUSH3 0x79B PUSH3 0xC95 JUMP JUMPDEST DUP3 DUP3 PUSH1 0x0 PUSH1 0xFF AND DUP3 PUSH1 0xFF AND LT ISZERO DUP1 ISZERO PUSH3 0x7BC JUMPI POP PUSH1 0x6 PUSH1 0xFF AND DUP3 PUSH1 0xFF AND GT ISZERO JUMPDEST PUSH3 0x7FE JUMPI PUSH1 0x40 MLOAD PUSH32 0x8C379A000000000000000000000000000000000000000000000000000000000 DUP2 MSTORE PUSH1 0x4 ADD PUSH3 0x7F5 SWAP1 PUSH3 0xF04 JUMP JUMPDEST PUSH1 0x40 MLOAD DUP1 SWAP2 SUB SWAP1 REVERT JUMPDEST PUSH1 0x0 PUSH1 0xFF AND DUP2 PUSH1 0xFF AND LT ISZERO DUP1 ISZERO PUSH3 0x81D JUMPI POP PUSH1 0x6 PUSH1 0xFF AND DUP2 PUSH1 0xFF AND GT ISZERO JUMPDEST PUSH3 0x85F JUMPI PUSH1 0x40 MLOAD PUSH32 0x8C379A000000000000000000000000000000000000000000000000000000000 DUP2 MSTORE PUSH1 0x4 ADD PUSH3 0x856 SWAP1 PUSH3 0xF9C JUMP JUMPDEST PUSH1 0x40 MLOAD DUP1 SWAP2 SUB SWAP1 REVERT JUMPDEST PUSH1 0x40 MLOAD DUP1 PUSH1 0x40 ADD PUSH1 0x40 MSTORE DUP1 DUP7 PUSH1 0xFF AND DUP2 MSTORE PUSH1 0x20 ADD DUP6 PUSH1 0xFF AND DUP2 MSTORE POP SWAP3 POP POP POP SWAP3 SWAP2 POP POP JUMP JUMPDEST PUSH3 0x88E PUSH3 0xCB5 JUMP JUMPDEST DUP3 DUP3 PUSH1 0x0 PUSH4 0xFFFFFFFF AND DUP3 PUSH4 0xFFFFFFFF AND LT ISZERO DUP1 ISZERO PUSH3 0x8BD JUMPI POP PUSH3 0x1517F PUSH4 0xFFFFFFFF AND DUP3 PUSH4 0xFFFFFFFF AND GT ISZERO JUMPDEST PUSH3 0x8FF JUMPI PUSH1 0x40 MLOAD PUSH32 0x8C379A000000000000000000000000000000000000000000000000000000000 DUP2 MSTORE PUSH1 0x4 ADD PUSH3 0x8F6 SWAP1 PUSH3 0xF04 JUMP JUMPDEST PUSH1 0x40 MLOAD DUP1 SWAP2 SUB SWAP1 REVERT JUMPDEST PUSH1 0x0 PUSH4 0xFFFFFFFF AND DUP2 PUSH4 0xFFFFFFFF AND LT ISZERO DUP1 ISZERO PUSH3 0x92C JUMPI POP PUSH3 0x1517F PUSH4 0xFFFFFFFF AND DUP2 PUSH4 0xFFFFFFFF AND GT ISZERO JUMPDEST PUSH3 0x96E JUMPI PUSH1 0x40 MLOAD PUSH32 0x8C379A000000000000000000000000000000000000000000000000000000000 DUP2 MSTORE PUSH1 0x4 ADD PUSH3 0x965 SWAP1 PUSH3 0xF9C JUMP JUMPDEST PUSH1 0x40 MLOAD DUP1 SWAP2 SUB SWAP1 REVERT JUMPDEST PUSH1 0x40 MLOAD DUP1 PUSH1 0x40 ADD PUSH1 0x40 MSTORE DUP1 DUP7 PUSH4 0xFFFFFFFF AND DUP2 MSTORE PUSH1 0x20 ADD DUP6 PUSH4 0xFFFFFFFF AND DUP2 MSTORE POP SWAP3 POP POP POP SWAP3 SWAP2 POP POP JUMP JUMPDEST PUSH3 0x9A3 PUSH3 0xCDB JUMP JUMPDEST PUSH1 0x0 PUSH1 0x4 PUSH1 0xFF AND DUP4 PUSH1 0xFF AND GT PUSH3 0x9CD JUMPI PUSH3 0x9C5 DUP4 PUSH3 0xA71 PUSH1 0x20 SHL PUSH1 0x20 SHR JUMP JUMPDEST SWAP1 POP PUSH3 0x9D2 JUMP JUMPDEST PUSH1 0x1 SWAP1 POP JUMPDEST PUSH1 0x40 MLOAD DUP1 PUSH1 0xA0 ADD PUSH1 0x40 MSTORE DUP1 DUP6 PUSH4 0xFFFFFFFF AND DUP2 MSTORE PUSH1 0x20 ADD DUP5 PUSH1 0xFF AND DUP2 MSTORE PUSH1 0x20 ADD DUP3 PUSH4 0xFFFFFFFF AND DUP2 MSTORE PUSH1 0x20 ADD DUP6 PUSH4 0xFFFFFFFF AND DUP2 MSTORE PUSH1 0x20 ADD PUSH1 0x0 PUSH4 0xFFFFFFFF AND DUP2 MSTORE POP SWAP2 POP POP SWAP3 SWAP2 POP POP JUMP JUMPDEST PUSH3 0xA28 PUSH3 0xD25 JUMP JUMPDEST PUSH1 0x40 MLOAD DUP1 PUSH1 0x40 ADD PUSH1 0x40 MSTORE DUP1 PUSH1 0x0 PUSH4 0xFFFFFFFF AND DUP2 MSTORE PUSH1 0x20 ADD DUP4 PUSH4 0xFFFFFFFF AND DUP2 MSTORE POP SWAP1 POP SWAP2 SWAP1 POP JUMP JUMPDEST PUSH3 0xA5B PUSH3 0xD4B JUMP JUMPDEST PUSH1 0x40 MLOAD DUP1 PUSH1 0x20 ADD PUSH1 0x40 MSTORE DUP1 DUP4 DUP2 MSTORE POP SWAP1 POP SWAP2 SWAP1 POP JUMP JUMPDEST PUSH1 0x0 PUSH1 0x4 PUSH1 0xFF AND DUP3 PUSH1 0xFF AND GT ISZERO PUSH3 0xAC0 JUMPI PUSH1 0x40 MLOAD PUSH32 0x8C379A000000000000000000000000000000000000000000000000000000000 DUP2 MSTORE PUSH1 0x4 ADD PUSH3 0xAB7 SWAP1 PUSH3 0x1034 JUMP JUMPDEST PUSH1 0x40 MLOAD DUP1 SWAP2 SUB SWAP1 REVERT JUMPDEST PUSH1 0x0 PUSH1 0xFF AND DUP3 PUSH1 0xFF AND SUB PUSH3 0xAD9 JUMPI PUSH1 0x1 SWAP1 POP PUSH3 0xB2E JUMP JUMPDEST PUSH1 0x1 PUSH1 0xFF AND DUP3 PUSH1 0xFF AND SUB PUSH3 0xAF2 JUMPI PUSH1 0x3C SWAP1 POP PUSH3 0xB2E JUMP JUMPDEST PUSH1 0x2 PUSH1 0xFF AND DUP3 PUSH1 0xFF AND SUB PUSH3 0xB0C JUMPI PUSH2 0xE10 SWAP1 POP PUSH3 0xB2E JUMP JUMPDEST PUSH1 0x3 PUSH1 0xFF AND DUP3 PUSH1 0xFF AND SUB PUSH3 0xB27 JUMPI PUSH3 0x15180 SWAP1 POP PUSH3 0xB2E JUMP JUMPDEST PUSH3 0x93A80 SWAP1 POP JUMPDEST SWAP2 SWAP1 POP JUMP JUMPDEST DUP3 DUP1 SLOAD PUSH3 0xB41 SWAP1 PUSH3 0xE48 JUMP JUMPDEST SWAP1 PUSH1 0x0 MSTORE PUSH1 0x20 PUSH1 0x0 KECCAK256 SWAP1 PUSH1 0x1F ADD PUSH1 0x20 SWAP1 DIV DUP2 ADD SWAP3 DUP3 PUSH3 0xB65 JUMPI PUSH1 0x0 DUP6 SSTORE PUSH3 0xBB1 JUMP JUMPDEST DUP3 PUSH1 0x1F LT PUSH3 0xB80 JUMPI DUP1 MLOAD PUSH1 0xFF NOT AND DUP4 DUP1 ADD OR DUP6 SSTORE PUSH3 0xBB1 JUMP JUMPDEST DUP3 DUP1 ADD PUSH1 0x1 ADD DUP6 SSTORE DUP3 ISZERO PUSH3 0xBB1 JUMPI SWAP2 DUP3 ADD JUMPDEST DUP3 DUP2 GT ISZERO PUSH3 0xBB0 JUMPI DUP3 MLOAD DUP3 SSTORE SWAP2 PUSH1 0x20 ADD SWAP2 SWAP1 PUSH1 0x1 ADD SWAP1 PUSH3 0xB93 JUMP JUMPDEST JUMPDEST POP SWAP1 POP PUSH3 0xBC0 SWAP2 SWAP1 PUSH3 0xD5E JUMP JUMPDEST POP SWAP1 JUMP JUMPDEST DUP3 DUP1 SLOAD PUSH3 0xBD2 SWAP1 PUSH3 0xE48 JUMP JUMPDEST SWAP1 PUSH1 0x0 MSTORE PUSH1 0x20 PUSH1 0x0 KECCAK256 SWAP1 PUSH1 0x1F ADD PUSH1 0x20 SWAP1 DIV DUP2 ADD SWAP3 DUP3 PUSH3 0xBF6 JUMPI PUSH1 0x0 DUP6 SSTORE PUSH3 0xC49 JUMP JUMPDEST DUP3 PUSH1 0x1F LT PUSH3 0xC09 JUMPI DUP1 SLOAD DUP6 SSTORE PUSH3 0xC49 JUMP JUMPDEST DUP3 DUP1 ADD PUSH1 0x1 ADD DUP6 SSTORE DUP3 ISZERO PUSH3 0xC49 JUMPI PUSH1 0x0 MSTORE PUSH1 0x20 PUSH1 0x0 KECCAK256 SWAP2 PUSH1 0x1F ADD PUSH1 0x20 SWAP1 DIV DUP3 ADD JUMPDEST DUP3 DUP2 GT ISZERO PUSH3 0xC48 JUMPI DUP3 SLOAD DUP3 SSTORE SWAP2 PUSH1 0x1 ADD SWAP2 SWAP1 PUSH1 0x1 ADD SWAP1 PUSH3 0xC2B JUMP JUMPDEST JUMPDEST POP SWAP1 POP PUSH3 0xC58 SWAP2 SWAP1 PUSH3 0xD5E JUMP JUMPDEST POP SWAP1 JUMP JUMPDEST PUSH1 0x40 MLOAD DUP1 PUSH1 0x60 ADD PUSH1 0x40 MSTORE DUP1 PUSH1 0x60 DUP2 MSTORE PUSH1 0x20 ADD PUSH1 0x0 PUSH20 0xFFFFFFFFFFFFFFFFFFFFFFFFFFFFFFFFFFFFFFFF AND DUP2 MSTORE PUSH1 0x20 ADD PUSH1 0x0 ISZERO ISZERO DUP2 MSTORE POP SWAP1 JUMP JUMPDEST PUSH1 0x40 MLOAD DUP1 PUSH1 0x40 ADD PUSH1 0x40 MSTORE DUP1 PUSH1 0x0 PUSH1 0xFF AND DUP2 MSTORE PUSH1 0x20 ADD PUSH1 0x0 PUSH1 0xFF AND DUP2 MSTORE POP SWAP1 JUMP JUMPDEST PUSH1 0x40 MLOAD DUP1 PUSH1 0x40 ADD PUSH1 0x40 MSTORE DUP1 PUSH1 0x0 PUSH4 0xFFFFFFFF AND DUP2 MSTORE PUSH1 0x20 ADD PUSH1 0x0 PUSH4 0xFFFFFFFF AND DUP2 MSTORE POP SWAP1 JUMP JUMPDEST PUSH1 0x40 MLOAD DUP1 PUSH1 0xA0 ADD PUSH1 0x40 MSTORE DUP1 PUSH1 0x0 PUSH4 0xFFFFFFFF AND DUP2 MSTORE PUSH1 0x20 ADD PUSH1 0x0 PUSH1 0xFF AND DUP2 MSTORE PUSH1 0x20 ADD PUSH1 0x0 PUSH4 0xFFFFFFFF AND DUP2 MSTORE PUSH1 0x20 ADD PUSH1 0x0 PUSH4 0xFFFFFFFF AND DUP2 MSTORE PUSH1 0x20 ADD PUSH1 0x0 PUSH4 0xFFFFFFFF AND DUP2 MSTORE POP SWAP1 JUMP JUMPDEST PUSH1 0x40 MLOAD DUP1 PUSH1 0x40 ADD PUSH1 0x40 MSTORE DUP1 PUSH1 0x0 PUSH4 0xFFFFFFFF AND DUP2 MSTORE PUSH1 0x20 ADD PUSH1 0x0 PUSH4 0xFFFFFFFF AND DUP2 MSTORE POP SWAP1 JUMP JUMPDEST PUSH1 0x40 MLOAD DUP1 PUSH1 0x20 ADD PUSH1 0x40 MSTORE DUP1 PUSH1 0x60 DUP2 MSTORE POP SWAP1 JUMP JUMPDEST JUMPDEST DUP1 DUP3 GT ISZERO PUSH3 0xD79 JUMPI PUSH1 0x0 DUP2 PUSH1 0x0 SWAP1 SSTORE POP PUSH1 0x1 ADD PUSH3 0xD5F JUMP JUMPDEST POP SWAP1 JUMP JUMPDEST PUSH1 0x0 DUP1 REVERT JUMPDEST PUSH1 0x0 PUSH20 0xFFFFFFFFFFFFFFFFFFFFFFFFFFFFFFFFFFFFFFFF DUP3 AND SWAP1 POP SWAP2 SWAP1 POP JUMP JUMPDEST PUSH1 0x0 PUSH3 0xDAF DUP3 PUSH3 0xD82 JUMP JUMPDEST SWAP1 POP SWAP2 SWAP1 POP JUMP JUMPDEST PUSH3 0xDC1 DUP2 PUSH3 0xDA2 JUMP JUMPDEST DUP2 EQ PUSH3 0xDCD JUMPI PUSH1 0x0 DUP1 REVERT JUMPDEST POP JUMP JUMPDEST PUSH1 0x0 DUP2 MLOAD SWAP1 POP PUSH3 0xDE1 DUP2 PUSH3 0xDB6 JUMP JUMPDEST SWAP3 SWAP2 POP POP JUMP JUMPDEST PUSH1 0x0 PUSH1 0x20 DUP3 DUP5 SUB SLT ISZERO PUSH3 0xE00 JUMPI PUSH3 0xDFF PUSH3 0xD7D JUMP JUMPDEST JUMPDEST PUSH1 0x0 PUSH3 0xE10 DUP5 DUP3 DUP6 ADD PUSH3 0xDD0 JUMP JUMPDEST SWAP2 POP POP SWAP3 SWAP2 POP POP JUMP JUMPDEST PUSH32 0x4E487B7100000000000000000000000000000000000000000000000000000000 PUSH1 0x0 MSTORE PUSH1 0x22 PUSH1 0x4 MSTORE PUSH1 0x24 PUSH1 0x0 REVERT JUMPDEST PUSH1 0x0 PUSH1 0x2 DUP3 DIV SWAP1 POP PUSH1 0x1 DUP3 AND DUP1 PUSH3 0xE61 JUMPI PUSH1 0x7F DUP3 AND SWAP2 POP JUMPDEST PUSH1 0x20 DUP3 LT DUP2 SUB PUSH3 0xE77 JUMPI PUSH3 0xE76 PUSH3 0xE19 JUMP JUMPDEST JUMPDEST POP SWAP2 SWAP1 POP JUMP JUMPDEST PUSH1 0x0 DUP3 DUP3 MSTORE PUSH1 0x20 DUP3 ADD SWAP1 POP SWAP3 SWAP2 POP POP JUMP JUMPDEST PUSH32 0x546865205F7374617274446179206E6F7420726570726573656E747320612076 PUSH1 0x0 DUP3 ADD MSTORE PUSH32 0x616C696420646179000000000000000000000000000000000000000000000000 PUSH1 0x20 DUP3 ADD MSTORE POP JUMP JUMPDEST PUSH1 0x0 PUSH3 0xEEC PUSH1 0x28 DUP4 PUSH3 0xE7D JUMP JUMPDEST SWAP2 POP PUSH3 0xEF9 DUP3 PUSH3 0xE8E JUMP JUMPDEST PUSH1 0x40 DUP3 ADD SWAP1 POP SWAP2 SWAP1 POP JUMP JUMPDEST PUSH1 0x0 PUSH1 0x20 DUP3 ADD SWAP1 POP DUP2 DUP2 SUB PUSH1 0x0 DUP4 ADD MSTORE PUSH3 0xF1F DUP2 PUSH3 0xEDD JUMP JUMPDEST SWAP1 POP SWAP2 SWAP1 POP JUMP JUMPDEST PUSH32 0x546865205F656E64446179206E6F7420726570726573656E747320612076616C PUSH1 0x0 DUP3 ADD MSTORE PUSH32 0x6964206461790000000000000000000000000000000000000000000000000000 PUSH1 0x20 DUP3 ADD MSTORE POP JUMP JUMPDEST PUSH1 0x0 PUSH3 0xF84 PUSH1 0x26 DUP4 PUSH3 0xE7D JUMP JUMPDEST SWAP2 POP PUSH3 0xF91 DUP3 PUSH3 0xF26 JUMP JUMPDEST PUSH1 0x40 DUP3 ADD SWAP1 POP SWAP2 SWAP1 POP JUMP JUMPDEST PUSH1 0x0 PUSH1 0x20 DUP3 ADD SWAP1 POP DUP2 DUP2 SUB PUSH1 0x0 DUP4 ADD MSTORE PUSH3 0xFB7 DUP2 PUSH3 0xF75 JUMP JUMPDEST SWAP1 POP SWAP2 SWAP1 POP JUMP JUMPDEST PUSH32 0x546865206D6574686F642067657454696D65496E5365636F6E647320646F6573 PUSH1 0x0 DUP3 ADD MSTORE PUSH32 0x6E277420776F726B20666F72204D4F4E544820616E6420594541520000000000 PUSH1 0x20 DUP3 ADD MSTORE POP JUMP JUMPDEST PUSH1 0x0 PUSH3 0x101C PUSH1 0x3B DUP4 PUSH3 0xE7D JUMP JUMPDEST SWAP2 POP PUSH3 0x1029 DUP3 PUSH3 0xFBE JUMP JUMPDEST PUSH1 0x40 DUP3 ADD SWAP1 POP SWAP2 SWAP1 POP JUMP JUMPDEST PUSH1 0x0 PUSH1 0x20 DUP3 ADD SWAP1 POP DUP2 DUP2 SUB PUSH1 0x0 DUP4 ADD MSTORE PUSH3 0x104F DUP2 PUSH3 0x100D JUMP JUMPDEST SWAP1 POP SWAP2 SWAP1 POP JUMP JUMPDEST PUSH2 0x2BA7 DUP1 PUSH3 0x1066 PUSH1 0x0 CODECOPY PUSH1 0x0 RETURN INVALID PUSH1 0x80 PUSH1 0x40 MSTORE CALLVALUE DUP1 ISZERO PUSH2 0x10 JUMPI PUSH1 0x0 DUP1 REVERT JUMPDEST POP PUSH1 0x4 CALLDATASIZE LT PUSH2 0x7D JUMPI PUSH1 0x0 CALLDATALOAD PUSH1 0xE0 SHR DUP1 PUSH4 0x85931911 GT PUSH2 0x5B JUMPI DUP1 PUSH4 0x85931911 EQ PUSH2 0x100 JUMPI DUP1 PUSH4 0x9C764223 EQ PUSH2 0x11E JUMPI DUP1 PUSH4 0xB8B4F1A0 EQ PUSH2 0x14E JUMPI DUP1 PUSH4 0xFB6F8243 EQ PUSH2 0x16C JUMPI PUSH2 0x7D JUMP JUMPDEST DUP1 PUSH4 0x22D53D53 EQ PUSH2 0x82 JUMPI DUP1 PUSH4 0x5E744C6A EQ PUSH2 0xB2 JUMPI DUP1 PUSH4 0x70D8915A EQ PUSH2 0xE2 JUMPI JUMPDEST PUSH1 0x0 DUP1 REVERT JUMPDEST PUSH2 0x9C PUSH1 0x4 DUP1 CALLDATASIZE SUB DUP2 ADD SWAP1 PUSH2 0x97 SWAP2 SWAP1 PUSH2 0x1EF5 JUMP JUMPDEST PUSH2 0x19C JUMP JUMPDEST PUSH1 0x40 MLOAD PUSH2 0xA9 SWAP2 SWAP1 PUSH2 0x1F60 JUMP JUMPDEST PUSH1 0x40 MLOAD DUP1 SWAP2 SUB SWAP1 RETURN JUMPDEST PUSH2 0xCC PUSH1 0x4 DUP1 CALLDATASIZE SUB DUP2 ADD SWAP1 PUSH2 0xC7 SWAP2 SWAP1 PUSH2 0x208E JUMP JUMPDEST PUSH2 0x386 JUMP JUMPDEST PUSH1 0x40 MLOAD PUSH2 0xD9 SWAP2 SWAP1 PUSH2 0x1F60 JUMP JUMPDEST PUSH1 0x40 MLOAD DUP1 SWAP2 SUB SWAP1 RETURN JUMPDEST PUSH2 0xEA PUSH2 0x577 JUMP JUMPDEST PUSH1 0x40 MLOAD PUSH2 0xF7 SWAP2 SWAP1 PUSH2 0x20F9 JUMP JUMPDEST PUSH1 0x40 MLOAD DUP1 SWAP2 SUB SWAP1 RETURN JUMPDEST PUSH2 0x108 PUSH2 0x690 JUMP JUMPDEST PUSH1 0x40 MLOAD PUSH2 0x115 SWAP2 SWAP1 PUSH2 0x20F9 JUMP JUMPDEST PUSH1 0x40 MLOAD DUP1 SWAP2 SUB SWAP1 RETURN JUMPDEST PUSH2 0x138 PUSH1 0x4 DUP1 CALLDATASIZE SUB DUP2 ADD SWAP1 PUSH2 0x133 SWAP2 SWAP1 PUSH2 0x214D JUMP JUMPDEST PUSH2 0x7AA JUMP JUMPDEST PUSH1 0x40 MLOAD PUSH2 0x145 SWAP2 SWAP1 PUSH2 0x1F60 JUMP JUMPDEST PUSH1 0x40 MLOAD DUP1 SWAP2 SUB SWAP1 RETURN JUMPDEST PUSH2 0x156 PUSH2 0xA33 JUMP JUMPDEST PUSH1 0x40 MLOAD PUSH2 0x163 SWAP2 SWAP1 PUSH2 0x1F60 JUMP JUMPDEST PUSH1 0x40 MLOAD DUP1 SWAP2 SUB SWAP1 RETURN JUMPDEST PUSH2 0x186 PUSH1 0x4 DUP1 CALLDATASIZE SUB DUP2 ADD SWAP1 PUSH2 0x181 SWAP2 SWAP1 PUSH2 0x21A0 JUMP JUMPDEST PUSH2 0xB4F JUMP JUMPDEST PUSH1 0x40 MLOAD PUSH2 0x193 SWAP2 SWAP1 PUSH2 0x22C3 JUMP JUMPDEST PUSH1 0x40 MLOAD DUP1 SWAP2 SUB SWAP1 RETURN JUMPDEST PUSH1 0x0 CALLER PUSH20 0xFFFFFFFFFFFFFFFFFFFFFFFFFFFFFFFFFFFFFFFF AND PUSH1 0x1 DUP1 ADD PUSH1 0x0 SWAP1 SLOAD SWAP1 PUSH2 0x100 EXP SWAP1 DIV PUSH20 0xFFFFFFFFFFFFFFFFFFFFFFFFFFFFFFFFFFFFFFFF AND PUSH20 0xFFFFFFFFFFFFFFFFFFFFFFFFFFFFFFFFFFFFFFFF AND EQ PUSH2 0x230 JUMPI PUSH1 0x40 MLOAD PUSH32 0x8C379A000000000000000000000000000000000000000000000000000000000 DUP2 MSTORE PUSH1 0x4 ADD PUSH2 0x227 SWAP1 PUSH2 0x2368 JUMP JUMPDEST PUSH1 0x40 MLOAD DUP1 SWAP2 SUB SWAP1 REVERT JUMPDEST PUSH2 0x2B8 DUP4 PUSH1 0x9 PUSH1 0x0 DUP2 SLOAD DUP2 LT PUSH2 0x249 JUMPI PUSH2 0x248 PUSH2 0x2388 JUMP JUMPDEST JUMPDEST SWAP1 PUSH1 0x0 MSTORE PUSH1 0x20 PUSH1 0x0 KECCAK256 ADD PUSH1 0x40 MLOAD DUP1 PUSH1 0x40 ADD PUSH1 0x40 MSTORE SWAP1 DUP2 PUSH1 0x0 DUP3 ADD PUSH1 0x0 SWAP1 SLOAD SWAP1 PUSH2 0x100 EXP SWAP1 DIV PUSH4 0xFFFFFFFF AND PUSH4 0xFFFFFFFF AND PUSH4 0xFFFFFFFF AND DUP2 MSTORE PUSH1 0x20 ADD PUSH1 0x0 DUP3 ADD PUSH1 0x4 SWAP1 SLOAD SWAP1 PUSH2 0x100 EXP SWAP1 DIV PUSH4 0xFFFFFFFF AND PUSH4 0xFFFFFFFF AND PUSH4 0xFFFFFFFF AND DUP2 MSTORE POP POP PUSH2 0x1098 SWAP1 SWAP2 SWAP1 PUSH4 0xFFFFFFFF AND JUMP JUMPDEST DUP1 ISZERO PUSH2 0x2DC JUMPI POP DUP2 PUSH1 0x0 DUP2 MLOAD DUP2 LT PUSH2 0x2D3 JUMPI PUSH2 0x2D2 PUSH2 0x2388 JUMP JUMPDEST JUMPDEST PUSH1 0x20 MUL PUSH1 0x20 ADD ADD MLOAD JUMPDEST ISZERO PUSH2 0x346 JUMPI PUSH2 0x308 PUSH1 0x8 PUSH1 0x0 DUP2 SLOAD DUP2 LT PUSH2 0x2F9 JUMPI PUSH2 0x2F8 PUSH2 0x2388 JUMP JUMPDEST JUMPDEST SWAP1 PUSH1 0x0 MSTORE PUSH1 0x20 PUSH1 0x0 KECCAK256 ADD PUSH2 0x1127 JUMP JUMPDEST PUSH32 0x95A1F3A1DAFDD4C1AF344E3D7C69A72CBCE8A3F15FE1CF95A7F5BD23DF2E71A1 PUSH1 0x40 MLOAD PUSH2 0x335 SWAP1 PUSH2 0x2403 JUMP JUMPDEST PUSH1 0x40 MLOAD DUP1 SWAP2 SUB SWAP1 LOG1 PUSH1 0x1 SWAP1 POP PUSH2 0x380 JUMP JUMPDEST PUSH32 0x66091B7DC2B097C8F60D5CD6AA99633B097F08D2EB1056F3E15361B22E0EA2BA PUSH1 0x40 MLOAD PUSH2 0x373 SWAP1 PUSH2 0x246F JUMP JUMPDEST PUSH1 0x40 MLOAD DUP1 SWAP2 SUB SWAP1 LOG1 PUSH1 0x0 SWAP1 POP JUMPDEST SWAP3 SWAP2 POP POP JUMP JUMPDEST PUSH1 0x0 CALLER PUSH20 0xFFFFFFFFFFFFFFFFFFFFFFFFFFFFFFFFFFFFFFFF AND PUSH1 0x3 PUSH1 0x1 ADD PUSH1 0x0 SWAP1 SLOAD SWAP1 PUSH2 0x100 EXP SWAP1 DIV PUSH20 0xFFFFFFFFFFFFFFFFFFFFFFFFFFFFFFFFFFFFFFFF AND PUSH20 0xFFFFFFFFFFFFFFFFFFFFFFFFFFFFFFFFFFFFFFFF AND EQ PUSH2 0x41B JUMPI PUSH1 0x40 MLOAD PUSH32 0x8C379A000000000000000000000000000000000000000000000000000000000 DUP2 MSTORE PUSH1 0x4 ADD PUSH2 0x412 SWAP1 PUSH2 0x2501 JUMP JUMPDEST PUSH1 0x40 MLOAD DUP1 SWAP2 SUB SWAP1 REVERT JUMPDEST PUSH1 0x5 PUSH1 0x0 PUSH1 0x1 DUP1 ADD PUSH1 0x0 SWAP1 SLOAD SWAP1 PUSH2 0x100 EXP SWAP1 DIV PUSH20 0xFFFFFFFFFFFFFFFFFFFFFFFFFFFFFFFFFFFFFFFF AND PUSH20 0xFFFFFFFFFFFFFFFFFFFFFFFFFFFFFFFFFFFFFFFF AND PUSH20 0xFFFFFFFFFFFFFFFFFFFFFFFFFFFFFFFFFFFFFFFF AND DUP2 MSTORE PUSH1 0x20 ADD SWAP1 DUP2 MSTORE PUSH1 0x20 ADD PUSH1 0x0 KECCAK256 PUSH1 0x0 DUP1 DUP3 ADD PUSH1 0x0 PUSH2 0x48F SWAP2 SWAP1 PUSH2 0x1AA2 JUMP JUMPDEST PUSH1 0x1 DUP3 ADD PUSH1 0x0 PUSH2 0x100 EXP DUP2 SLOAD SWAP1 PUSH20 0xFFFFFFFFFFFFFFFFFFFFFFFFFFFFFFFFFFFFFFFF MUL NOT AND SWAP1 SSTORE PUSH1 0x1 DUP3 ADD PUSH1 0x14 PUSH2 0x100 EXP DUP2 SLOAD SWAP1 PUSH1 0xFF MUL NOT AND SWAP1 SSTORE POP POP PUSH2 0x4D8 DUP4 DUP4 PUSH1 0x0 PUSH2 0xD98 JUMP JUMPDEST PUSH1 0x1 PUSH1 0x0 DUP3 ADD MLOAD DUP2 PUSH1 0x0 ADD SWAP1 DUP1 MLOAD SWAP1 PUSH1 0x20 ADD SWAP1 PUSH2 0x4F6 SWAP3 SWAP2 SWAP1 PUSH2 0x1AE2 JUMP JUMPDEST POP PUSH1 0x20 DUP3 ADD MLOAD DUP2 PUSH1 0x1 ADD PUSH1 0x0 PUSH2 0x100 EXP DUP2 SLOAD DUP2 PUSH20 0xFFFFFFFFFFFFFFFFFFFFFFFFFFFFFFFFFFFFFFFF MUL NOT AND SWAP1 DUP4 PUSH20 0xFFFFFFFFFFFFFFFFFFFFFFFFFFFFFFFFFFFFFFFF AND MUL OR SWAP1 SSTORE POP PUSH1 0x40 DUP3 ADD MLOAD DUP2 PUSH1 0x1 ADD PUSH1 0x14 PUSH2 0x100 EXP DUP2 SLOAD DUP2 PUSH1 0xFF MUL NOT AND SWAP1 DUP4 ISZERO ISZERO MUL OR SWAP1 SSTORE POP SWAP1 POP POP PUSH2 0x56C DUP3 PUSH1 0x1 PUSH2 0x116C JUMP JUMPDEST POP PUSH1 0x1 SWAP1 POP SWAP3 SWAP2 POP POP JUMP JUMPDEST PUSH1 0x0 CALLER PUSH20 0xFFFFFFFFFFFFFFFFFFFFFFFFFFFFFFFFFFFFFFFF AND PUSH1 0x1 DUP1 ADD PUSH1 0x0 SWAP1 SLOAD SWAP1 PUSH2 0x100 EXP SWAP1 DIV PUSH20 0xFFFFFFFFFFFFFFFFFFFFFFFFFFFFFFFFFFFFFFFF AND PUSH20 0xFFFFFFFFFFFFFFFFFFFFFFFFFFFFFFFFFFFFFFFF AND EQ DUP1 PUSH2 0x627 JUMPI POP CALLER PUSH20 0xFFFFFFFFFFFFFFFFFFFFFFFFFFFFFFFFFFFFFFFF AND PUSH1 0x3 PUSH1 0x1 ADD PUSH1 0x0 SWAP1 SLOAD SWAP1 PUSH2 0x100 EXP SWAP1 DIV PUSH20 0xFFFFFFFFFFFFFFFFFFFFFFFFFFFFFFFFFFFFFFFF AND PUSH20 0xFFFFFFFFFFFFFFFFFFFFFFFFFFFFFFFFFFFFFFFF AND EQ JUMPDEST PUSH2 0x666 JUMPI PUSH1 0x40 MLOAD PUSH32 0x8C379A000000000000000000000000000000000000000000000000000000000 DUP2 MSTORE PUSH1 0x4 ADD PUSH2 0x65D SWAP1 PUSH2 0x2593 JUMP JUMPDEST PUSH1 0x40 MLOAD DUP1 SWAP2 SUB SWAP1 REVERT JUMPDEST PUSH1 0x1 DUP1 ADD PUSH1 0x0 SWAP1 SLOAD SWAP1 PUSH2 0x100 EXP SWAP1 DIV PUSH20 0xFFFFFFFFFFFFFFFFFFFFFFFFFFFFFFFFFFFFFFFF AND SWAP1 POP SWAP1 JUMP JUMPDEST PUSH1 0x0 CALLER PUSH20 0xFFFFFFFFFFFFFFFFFFFFFFFFFFFFFFFFFFFFFFFF AND PUSH1 0x1 DUP1 ADD PUSH1 0x0 SWAP1 SLOAD SWAP1 PUSH2 0x100 EXP SWAP1 DIV PUSH20 0xFFFFFFFFFFFFFFFFFFFFFFFFFFFFFFFFFFFFFFFF AND PUSH20 0xFFFFFFFFFFFFFFFFFFFFFFFFFFFFFFFFFFFFFFFF AND EQ DUP1 PUSH2 0x740 JUMPI POP CALLER PUSH20 0xFFFFFFFFFFFFFFFFFFFFFFFFFFFFFFFFFFFFFFFF AND PUSH1 0x3 PUSH1 0x1 ADD PUSH1 0x0 SWAP1 SLOAD SWAP1 PUSH2 0x100 EXP SWAP1 DIV PUSH20 0xFFFFFFFFFFFFFFFFFFFFFFFFFFFFFFFFFFFFFFFF AND PUSH20 0xFFFFFFFFFFFFFFFFFFFFFFFFFFFFFFFFFFFFFFFF AND EQ JUMPDEST PUSH2 0x77F JUMPI PUSH1 0x40 MLOAD PUSH32 0x8C379A000000000000000000000000000000000000000000000000000000000 DUP2 MSTORE PUSH1 0x4 ADD PUSH2 0x776 SWAP1 PUSH2 0x2593 JUMP JUMPDEST PUSH1 0x40 MLOAD DUP1 SWAP2 SUB SWAP1 REVERT JUMPDEST PUSH1 0x3 PUSH1 0x1 ADD PUSH1 0x0 SWAP1 SLOAD SWAP1 PUSH2 0x100 EXP SWAP1 DIV PUSH20 0xFFFFFFFFFFFFFFFFFFFFFFFFFFFFFFFFFFFFFFFF AND SWAP1 POP SWAP1 JUMP JUMPDEST PUSH1 0x0 CALLER PUSH20 0xFFFFFFFFFFFFFFFFFFFFFFFFFFFFFFFFFFFFFFFF AND PUSH1 0x3 PUSH1 0x1 ADD PUSH1 0x0 SWAP1 SLOAD SWAP1 PUSH2 0x100 EXP SWAP1 DIV PUSH20 0xFFFFFFFFFFFFFFFFFFFFFFFFFFFFFFFFFFFFFFFF AND PUSH20 0xFFFFFFFFFFFFFFFFFFFFFFFFFFFFFFFFFFFFFFFF AND EQ PUSH2 0x83F JUMPI PUSH1 0x40 MLOAD PUSH32 0x8C379A000000000000000000000000000000000000000000000000000000000 DUP2 MSTORE PUSH1 0x4 ADD PUSH2 0x836 SWAP1 PUSH2 0x2501 JUMP JUMPDEST PUSH1 0x40 MLOAD DUP1 SWAP2 SUB SWAP1 REVERT JUMPDEST PUSH2 0x8B5 DUP5 PUSH1 0x6 PUSH1 0x0 DUP2 SLOAD DUP2 LT PUSH2 0x858 JUMPI PUSH2 0x857 PUSH2 0x2388 JUMP JUMPDEST JUMPDEST SWAP1 PUSH1 0x0 MSTORE PUSH1 0x20 PUSH1 0x0 KECCAK256 ADD PUSH1 0x40 MLOAD DUP1 PUSH1 0x40 ADD PUSH1 0x40 MSTORE SWAP1 DUP2 PUSH1 0x0 DUP3 ADD PUSH1 0x0 SWAP1 SLOAD SWAP1 PUSH2 0x100 EXP SWAP1 DIV PUSH1 0xFF AND PUSH1 0xFF AND PUSH1 0xFF AND DUP2 MSTORE PUSH1 0x20 ADD PUSH1 0x0 DUP3 ADD PUSH1 0x1 SWAP1 SLOAD SWAP1 PUSH2 0x100 EXP SWAP1 DIV PUSH1 0xFF AND PUSH1 0xFF AND PUSH1 0xFF AND DUP2 MSTORE POP POP PUSH2 0x126F SWAP1 SWAP2 SWAP1 PUSH4 0xFFFFFFFF AND JUMP JUMPDEST DUP1 ISZERO PUSH2 0x945 JUMPI POP PUSH2 0x944 DUP4 PUSH1 0x7 PUSH1 0x0 DUP2 SLOAD DUP2 LT PUSH2 0x8D5 JUMPI PUSH2 0x8D4 PUSH2 0x2388 JUMP JUMPDEST JUMPDEST SWAP1 PUSH1 0x0 MSTORE PUSH1 0x20 PUSH1 0x0 KECCAK256 ADD PUSH1 0x40 MLOAD DUP1 PUSH1 0x40 ADD PUSH1 0x40 MSTORE SWAP1 DUP2 PUSH1 0x0 DUP3 ADD PUSH1 0x0 SWAP1 SLOAD SWAP1 PUSH2 0x100 EXP SWAP1 DIV PUSH4 0xFFFFFFFF AND PUSH4 0xFFFFFFFF AND PUSH4 0xFFFFFFFF AND DUP2 MSTORE PUSH1 0x20 ADD PUSH1 0x0 DUP3 ADD PUSH1 0x4 SWAP1 SLOAD SWAP1 PUSH2 0x100 EXP SWAP1 DIV PUSH4 0xFFFFFFFF AND PUSH4 0xFFFFFFFF AND PUSH4 0xFFFFFFFF AND DUP2 MSTORE POP POP PUSH2 0x12FB SWAP1 SWAP2 SWAP1 PUSH4 0xFFFFFFFF AND JUMP JUMPDEST JUMPDEST DUP1 ISZERO PUSH2 0x97E JUMPI POP PUSH2 0x97D DUP3 PUSH1 0x8 PUSH1 0x0 DUP2 SLOAD DUP2 LT PUSH2 0x965 JUMPI PUSH2 0x964 PUSH2 0x2388 JUMP JUMPDEST JUMPDEST SWAP1 PUSH1 0x0 MSTORE PUSH1 0x20 PUSH1 0x0 KECCAK256 ADD PUSH2 0x13A5 SWAP1 SWAP2 SWAP1 PUSH4 0xFFFFFFFF AND JUMP JUMPDEST JUMPDEST ISZERO PUSH2 0x9F2 JUMPI PUSH2 0x9B4 DUP3 PUSH1 0x9 PUSH1 0x0 DUP2 SLOAD DUP2 LT PUSH2 0x99C JUMPI PUSH2 0x99B PUSH2 0x2388 JUMP JUMPDEST JUMPDEST SWAP1 PUSH1 0x0 MSTORE PUSH1 0x20 PUSH1 0x0 KECCAK256 ADD PUSH2 0x141E SWAP1 SWAP2 SWAP1 PUSH4 0xFFFFFFFF AND JUMP JUMPDEST PUSH32 0x95A1F3A1DAFDD4C1AF344E3D7C69A72CBCE8A3F15FE1CF95A7F5BD23DF2E71A1 PUSH1 0x40 MLOAD PUSH2 0x9E1 SWAP1 PUSH2 0x2403 JUMP JUMPDEST PUSH1 0x40 MLOAD DUP1 SWAP2 SUB SWAP1 LOG1 PUSH1 0x1 SWAP1 POP PUSH2 0xA2C JUMP JUMPDEST PUSH32 0x66091B7DC2B097C8F60D5CD6AA99633B097F08D2EB1056F3E15361B22E0EA2BA PUSH1 0x40 MLOAD PUSH2 0xA1F SWAP1 PUSH2 0x246F JUMP JUMPDEST PUSH1 0x40 MLOAD DUP1 SWAP2 SUB SWAP1 LOG1 PUSH1 0x0 SWAP1 POP JUMPDEST SWAP4 SWAP3 POP POP POP JUMP JUMPDEST PUSH1 0x0 CALLER PUSH20 0xFFFFFFFFFFFFFFFFFFFFFFFFFFFFFFFFFFFFFFFF AND PUSH1 0x1 DUP1 ADD PUSH1 0x0 SWAP1 SLOAD SWAP1 PUSH2 0x100 EXP SWAP1 DIV PUSH20 0xFFFFFFFFFFFFFFFFFFFFFFFFFFFFFFFFFFFFFFFF AND PUSH20 0xFFFFFFFFFFFFFFFFFFFFFFFFFFFFFFFFFFFFFFFF AND EQ PUSH2 0xAC7 JUMPI PUSH1 0x40 MLOAD PUSH32 0x8C379A000000000000000000000000000000000000000000000000000000000 DUP2 MSTORE PUSH1 0x4 ADD PUSH2 0xABE SWAP1 PUSH2 0x2368 JUMP JUMPDEST PUSH1 0x40 MLOAD DUP1 SWAP2 SUB SWAP1 REVERT JUMPDEST PUSH1 0x0 ISZERO ISZERO PUSH1 0x1 DUP1 ADD PUSH1 0x14 SWAP1 SLOAD SWAP1 PUSH2 0x100 EXP SWAP1 DIV PUSH1 0xFF AND ISZERO ISZERO EQ PUSH2 0xB1F JUMPI PUSH1 0x40 MLOAD PUSH32 0x8C379A000000000000000000000000000000000000000000000000000000000 DUP2 MSTORE PUSH1 0x4 ADD PUSH2 0xB16 SWAP1 PUSH2 0x25FF JUMP JUMPDEST PUSH1 0x40 MLOAD DUP1 SWAP2 SUB SWAP1 REVERT JUMPDEST PUSH1 0x1 DUP1 PUSH1 0x1 ADD PUSH1 0x14 PUSH2 0x100 EXP DUP2 SLOAD DUP2 PUSH1 0xFF MUL NOT AND SWAP1 DUP4 ISZERO ISZERO MUL OR SWAP1 SSTORE POP PUSH2 0xB47 CALLER PUSH1 0x1 PUSH2 0x116C JUMP JUMPDEST POP PUSH1 0x1 SWAP1 POP SWAP1 JUMP JUMPDEST PUSH2 0xB57 PUSH2 0x1B68 JUMP JUMPDEST CALLER PUSH20 0xFFFFFFFFFFFFFFFFFFFFFFFFFFFFFFFFFFFFFFFF AND PUSH1 0x1 DUP1 ADD PUSH1 0x0 SWAP1 SLOAD SWAP1 PUSH2 0x100 EXP SWAP1 DIV PUSH20 0xFFFFFFFFFFFFFFFFFFFFFFFFFFFFFFFFFFFFFFFF AND PUSH20 0xFFFFFFFFFFFFFFFFFFFFFFFFFFFFFFFFFFFFFFFF AND EQ DUP1 PUSH2 0xC05 JUMPI POP CALLER PUSH20 0xFFFFFFFFFFFFFFFFFFFFFFFFFFFFFFFFFFFFFFFF AND PUSH1 0x3 PUSH1 0x1 ADD PUSH1 0x0 SWAP1 SLOAD SWAP1 PUSH2 0x100 EXP SWAP1 DIV PUSH20 0xFFFFFFFFFFFFFFFFFFFFFFFFFFFFFFFFFFFFFFFF AND PUSH20 0xFFFFFFFFFFFFFFFFFFFFFFFFFFFFFFFFFFFFFFFF AND EQ JUMPDEST PUSH2 0xC44 JUMPI PUSH1 0x40 MLOAD PUSH32 0x8C379A000000000000000000000000000000000000000000000000000000000 DUP2 MSTORE PUSH1 0x4 ADD PUSH2 0xC3B SWAP1 PUSH2 0x2593 JUMP JUMPDEST PUSH1 0x40 MLOAD DUP1 SWAP2 SUB SWAP1 REVERT JUMPDEST PUSH1 0x5 PUSH1 0x0 DUP4 PUSH20 0xFFFFFFFFFFFFFFFFFFFFFFFFFFFFFFFFFFFFFFFF AND PUSH20 0xFFFFFFFFFFFFFFFFFFFFFFFFFFFFFFFFFFFFFFFF AND DUP2 MSTORE PUSH1 0x20 ADD SWAP1 DUP2 MSTORE PUSH1 0x20 ADD PUSH1 0x0 KECCAK256 PUSH1 0x40 MLOAD DUP1 PUSH1 0x60 ADD PUSH1 0x40 MSTORE SWAP1 DUP2 PUSH1 0x0 DUP3 ADD DUP1 SLOAD PUSH2 0xC9E SWAP1 PUSH2 0x264E JUMP JUMPDEST DUP1 PUSH1 0x1F ADD PUSH1 0x20 DUP1 SWAP2 DIV MUL PUSH1 0x20 ADD PUSH1 0x40 MLOAD SWAP1 DUP2 ADD PUSH1 0x40 MSTORE DUP1 SWAP3 SWAP2 SWAP1 DUP2 DUP2 MSTORE PUSH1 0x20 ADD DUP3 DUP1 SLOAD PUSH2 0xCCA SWAP1 PUSH2 0x264E JUMP JUMPDEST DUP1 ISZERO PUSH2 0xD17 JUMPI DUP1 PUSH1 0x1F LT PUSH2 0xCEC JUMPI PUSH2 0x100 DUP1 DUP4 SLOAD DIV MUL DUP4 MSTORE SWAP2 PUSH1 0x20 ADD SWAP2 PUSH2 0xD17 JUMP JUMPDEST DUP3 ADD SWAP2 SWAP1 PUSH1 0x0 MSTORE PUSH1 0x20 PUSH1 0x0 KECCAK256 SWAP1 JUMPDEST DUP2 SLOAD DUP2 MSTORE SWAP1 PUSH1 0x1 ADD SWAP1 PUSH1 0x20 ADD DUP1 DUP4 GT PUSH2 0xCFA JUMPI DUP3 SWAP1 SUB PUSH1 0x1F AND DUP3 ADD SWAP2 JUMPDEST POP POP POP POP POP DUP2 MSTORE PUSH1 0x20 ADD PUSH1 0x1 DUP3 ADD PUSH1 0x0 SWAP1 SLOAD SWAP1 PUSH2 0x100 EXP SWAP1 DIV PUSH20 0xFFFFFFFFFFFFFFFFFFFFFFFFFFFFFFFFFFFFFFFF AND PUSH20 0xFFFFFFFFFFFFFFFFFFFFFFFFFFFFFFFFFFFFFFFF AND PUSH20 0xFFFFFFFFFFFFFFFFFFFFFFFFFFFFFFFFFFFFFFFF AND DUP2 MSTORE PUSH1 0x20 ADD PUSH1 0x1 DUP3 ADD PUSH1 0x14 SWAP1 SLOAD SWAP1 PUSH2 0x100 EXP SWAP1 DIV PUSH1 0xFF AND ISZERO ISZERO ISZERO ISZERO DUP2 MSTORE POP POP SWAP1 POP SWAP2 SWAP1 POP JUMP JUMPDEST PUSH2 0xDA0 PUSH2 0x1B68 JUMP JUMPDEST PUSH1 0x40 MLOAD DUP1 PUSH1 0x60 ADD PUSH1 0x40 MSTORE DUP1 DUP6 DUP2 MSTORE PUSH1 0x20 ADD DUP5 PUSH20 0xFFFFFFFFFFFFFFFFFFFFFFFFFFFFFFFFFFFFFFFF AND DUP2 MSTORE PUSH1 0x20 ADD DUP4 ISZERO ISZERO DUP2 MSTORE POP SWAP1 POP SWAP4 SWAP3 POP POP POP JUMP JUMPDEST PUSH2 0xDE4 PUSH2 0x1BA1 JUMP JUMPDEST DUP3 DUP3 PUSH1 0x0 PUSH1 0xFF AND DUP3 PUSH1 0xFF AND LT ISZERO DUP1 ISZERO PUSH2 0xE04 JUMPI POP PUSH1 0x6 PUSH1 0xFF AND DUP3 PUSH1 0xFF AND GT ISZERO JUMPDEST PUSH2 0xE43 JUMPI PUSH1 0x40 MLOAD PUSH32 0x8C379A000000000000000000000000000000000000000000000000000000000 DUP2 MSTORE PUSH1 0x4 ADD PUSH2 0xE3A SWAP1 PUSH2 0x26F1 JUMP JUMPDEST PUSH1 0x40 MLOAD DUP1 SWAP2 SUB SWAP1 REVERT JUMPDEST PUSH1 0x0 PUSH1 0xFF AND DUP2 PUSH1 0xFF AND LT ISZERO DUP1 ISZERO PUSH2 0xE61 JUMPI POP PUSH1 0x6 PUSH1 0xFF AND DUP2 PUSH1 0xFF AND GT ISZERO JUMPDEST PUSH2 0xEA0 JUMPI PUSH1 0x40 MLOAD PUSH32 0x8C379A000000000000000000000000000000000000000000000000000000000 DUP2 MSTORE PUSH1 0x4 ADD PUSH2 0xE97 SWAP1 PUSH2 0x2783 JUMP JUMPDEST PUSH1 0x40 MLOAD DUP1 SWAP2 SUB SWAP1 REVERT JUMPDEST PUSH1 0x40 MLOAD DUP1 PUSH1 0x40 ADD PUSH1 0x40 MSTORE DUP1 DUP7 PUSH1 0xFF AND DUP2 MSTORE PUSH1 0x20 ADD DUP6 PUSH1 0xFF AND DUP2 MSTORE POP SWAP3 POP POP POP SWAP3 SWAP2 POP POP JUMP JUMPDEST PUSH2 0xECD PUSH2 0x1BC1 JUMP JUMPDEST DUP3 DUP3 PUSH1 0x0 PUSH4 0xFFFFFFFF AND DUP3 PUSH4 0xFFFFFFFF AND LT ISZERO DUP1 ISZERO PUSH2 0xEFB JUMPI POP PUSH3 0x1517F PUSH4 0xFFFFFFFF AND DUP3 PUSH4 0xFFFFFFFF AND GT ISZERO JUMPDEST PUSH2 0xF3A JUMPI PUSH1 0x40 MLOAD PUSH32 0x8C379A000000000000000000000000000000000000000000000000000000000 DUP2 MSTORE PUSH1 0x4 ADD PUSH2 0xF31 SWAP1 PUSH2 0x26F1 JUMP JUMPDEST PUSH1 0x40 MLOAD DUP1 SWAP2 SUB SWAP1 REVERT JUMPDEST PUSH1 0x0 PUSH4 0xFFFFFFFF AND DUP2 PUSH4 0xFFFFFFFF AND LT ISZERO DUP1 ISZERO PUSH2 0xF66 JUMPI POP PUSH3 0x1517F PUSH4 0xFFFFFFFF AND DUP2 PUSH4 0xFFFFFFFF AND GT ISZERO JUMPDEST PUSH2 0xFA5 JUMPI PUSH1 0x40 MLOAD PUSH32 0x8C379A000000000000000000000000000000000000000000000000000000000 DUP2 MSTORE PUSH1 0x4 ADD PUSH2 0xF9C SWAP1 PUSH2 0x2783 JUMP JUMPDEST PUSH1 0x40 MLOAD DUP1 SWAP2 SUB SWAP1 REVERT JUMPDEST PUSH1 0x40 MLOAD DUP1 PUSH1 0x40 ADD PUSH1 0x40 MSTORE DUP1 DUP7 PUSH4 0xFFFFFFFF AND DUP2 MSTORE PUSH1 0x20 ADD DUP6 PUSH4 0xFFFFFFFF AND DUP2 MSTORE POP SWAP3 POP POP POP SWAP3 SWAP2 POP POP JUMP JUMPDEST PUSH2 0xFD8 PUSH2 0x1BE7 JUMP JUMPDEST PUSH1 0x0 PUSH1 0x4 PUSH1 0xFF AND DUP4 PUSH1 0xFF AND GT PUSH2 0xFF8 JUMPI PUSH2 0xFF1 DUP4 PUSH2 0x1489 JUMP JUMPDEST SWAP1 POP PUSH2 0xFFD JUMP JUMPDEST PUSH1 0x1 SWAP1 POP JUMPDEST PUSH1 0x40 MLOAD DUP1 PUSH1 0xA0 ADD PUSH1 0x40 MSTORE DUP1 DUP6 PUSH4 0xFFFFFFFF AND DUP2 MSTORE PUSH1 0x20 ADD DUP5 PUSH1 0xFF AND DUP2 MSTORE PUSH1 0x20 ADD DUP3 PUSH4 0xFFFFFFFF AND DUP2 MSTORE PUSH1 0x20 ADD DUP6 PUSH4 0xFFFFFFFF AND DUP2 MSTORE PUSH1 0x20 ADD PUSH1 0x0 PUSH4 0xFFFFFFFF AND DUP2 MSTORE POP SWAP2 POP POP SWAP3 SWAP2 POP POP JUMP JUMPDEST PUSH2 0x1051 PUSH2 0x1C31 JUMP JUMPDEST PUSH1 0x40 MLOAD DUP1 PUSH1 0x40 ADD PUSH1 0x40 MSTORE DUP1 PUSH1 0x0 PUSH4 0xFFFFFFFF AND DUP2 MSTORE PUSH1 0x20 ADD DUP4 PUSH4 0xFFFFFFFF AND DUP2 MSTORE POP SWAP1 POP SWAP2 SWAP1 POP JUMP JUMPDEST PUSH2 0x1082 PUSH2 0x1C57 JUMP JUMPDEST PUSH1 0x40 MLOAD DUP1 PUSH1 0x20 ADD PUSH1 0x40 MSTORE DUP1 DUP4 DUP2 MSTORE POP SWAP1 POP SWAP2 SWAP1 POP JUMP JUMPDEST PUSH1 0x0 DUP2 PUSH1 0x0 PUSH2 0x10AC DUP3 PUSH4 0xFFFFFFFF AND PUSH2 0x1540 JUMP JUMPDEST SWAP1 POP PUSH1 0xA DUP2 MLOAD GT ISZERO PUSH2 0x10BD JUMPI PUSH1 0x0 DUP1 REVERT JUMPDEST PUSH1 0x0 DUP6 PUSH1 0x0 ADD MLOAD PUSH4 0xFFFFFFFF AND GT PUSH2 0x110A JUMPI PUSH1 0x40 MLOAD PUSH32 0x8C379A000000000000000000000000000000000000000000000000000000000 DUP2 MSTORE PUSH1 0x4 ADD PUSH2 0x1101 SWAP1 PUSH2 0x2815 JUMP JUMPDEST PUSH1 0x40 MLOAD DUP1 SWAP2 SUB SWAP1 REVERT JUMPDEST DUP5 PUSH1 0x0 ADD MLOAD PUSH4 0xFFFFFFFF AND DUP5 PUSH4 0xFFFFFFFF AND GT SWAP3 POP POP POP SWAP3 SWAP2 POP POP JUMP JUMPDEST PUSH1 0x1 DUP2 PUSH1 0x0 ADD PUSH1 0x9 DUP3 DUP3 DUP3 SWAP1 SLOAD SWAP1 PUSH2 0x100 EXP SWAP1 DIV PUSH4 0xFFFFFFFF AND PUSH2 0x114B SWAP2 SWAP1 PUSH2 0x2864 JUMP JUMPDEST SWAP3 POP PUSH2 0x100 EXP DUP2 SLOAD DUP2 PUSH4 0xFFFFFFFF MUL NOT AND SWAP1 DUP4 PUSH4 0xFFFFFFFF AND MUL OR SWAP1 SSTORE POP POP JUMP JUMPDEST PUSH1 0x0 DUP2 PUSH1 0x5 PUSH1 0x0 DUP6 PUSH20 0xFFFFFFFFFFFFFFFFFFFFFFFFFFFFFFFFFFFFFFFF AND PUSH20 0xFFFFFFFFFFFFFFFFFFFFFFFFFFFFFFFFFFFFFFFF AND DUP2 MSTORE PUSH1 0x20 ADD SWAP1 DUP2 MSTORE PUSH1 0x20 ADD PUSH1 0x0 KECCAK256 PUSH1 0x0 DUP3 ADD DUP2 PUSH1 0x0 ADD SWAP1 DUP1 SLOAD PUSH2 0x11C2 SWAP1 PUSH2 0x264E JUMP JUMPDEST PUSH2 0x11CD SWAP3 SWAP2 SWAP1 PUSH2 0x1C6A JUMP JUMPDEST POP PUSH1 0x1 DUP3 ADD PUSH1 0x0 SWAP1 SLOAD SWAP1 PUSH2 0x100 EXP SWAP1 DIV PUSH20 0xFFFFFFFFFFFFFFFFFFFFFFFFFFFFFFFFFFFFFFFF AND DUP2 PUSH1 0x1 ADD PUSH1 0x0 PUSH2 0x100 EXP DUP2 SLOAD DUP2 PUSH20 0xFFFFFFFFFFFFFFFFFFFFFFFFFFFFFFFFFFFFFFFF MUL NOT AND SWAP1 DUP4 PUSH20 0xFFFFFFFFFFFFFFFFFFFFFFFFFFFFFFFFFFFFFFFF AND MUL OR SWAP1 SSTORE POP PUSH1 0x1 DUP3 ADD PUSH1 0x14 SWAP1 SLOAD SWAP1 PUSH2 0x100 EXP SWAP1 DIV PUSH1 0xFF AND DUP2 PUSH1 0x1 ADD PUSH1 0x14 PUSH2 0x100 EXP DUP2 SLOAD DUP2 PUSH1 0xFF MUL NOT AND SWAP1 DUP4 ISZERO ISZERO MUL OR SWAP1 SSTORE POP SWAP1 POP POP PUSH1 0x1 SWAP1 POP SWAP3 SWAP2 POP POP JUMP JUMPDEST PUSH1 0x0 DUP3 PUSH1 0x20 ADD MLOAD PUSH1 0xFF AND DUP4 PUSH1 0x0 ADD MLOAD PUSH1 0xFF AND LT ISZERO PUSH2 0x12BE JUMPI DUP3 PUSH1 0x0 ADD MLOAD PUSH1 0xFF AND DUP3 PUSH1 0xFF AND LT ISZERO DUP1 ISZERO PUSH2 0x12AB JUMPI POP DUP3 PUSH1 0x20 ADD MLOAD PUSH1 0xFF AND DUP3 PUSH1 0xFF AND GT ISZERO JUMPDEST ISZERO PUSH2 0x12B9 JUMPI PUSH1 0x1 SWAP1 POP PUSH2 0x12F5 JUMP JUMPDEST PUSH2 0x12F0 JUMP JUMPDEST DUP3 PUSH1 0x0 ADD MLOAD PUSH1 0xFF AND DUP3 PUSH1 0xFF AND LT ISZERO DUP1 PUSH2 0x12E1 JUMPI POP DUP3 PUSH1 0x20 ADD MLOAD PUSH1 0xFF AND DUP3 PUSH1 0xFF AND GT ISZERO JUMPDEST ISZERO PUSH2 0x12EF JUMPI PUSH1 0x1 SWAP1 POP PUSH2 0x12F5 JUMP JUMPDEST JUMPDEST PUSH1 0x0 SWAP1 POP JUMPDEST SWAP3 SWAP2 POP POP JUMP JUMPDEST PUSH1 0x0 DUP3 PUSH1 0x20 ADD MLOAD PUSH4 0xFFFFFFFF AND DUP4 PUSH1 0x0 ADD MLOAD PUSH4 0xFFFFFFFF AND LT ISZERO PUSH2 0x135C JUMPI DUP3 PUSH1 0x0 ADD MLOAD PUSH4 0xFFFFFFFF AND DUP3 PUSH4 0xFFFFFFFF AND LT ISZERO DUP1 ISZERO PUSH2 0x1349 JUMPI POP DUP3 PUSH1 0x20 ADD MLOAD PUSH4 0xFFFFFFFF AND DUP3 PUSH4 0xFFFFFFFF AND GT ISZERO JUMPDEST ISZERO PUSH2 0x1357 JUMPI PUSH1 0x1 SWAP1 POP PUSH2 0x139F JUMP JUMPDEST PUSH2 0x139A JUMP JUMPDEST DUP3 PUSH1 0x0 ADD MLOAD PUSH4 0xFFFFFFFF AND DUP3 PUSH4 0xFFFFFFFF AND LT ISZERO DUP1 PUSH2 0x138B JUMPI POP DUP3 PUSH1 0x20 ADD MLOAD PUSH4 0xFFFFFFFF AND DUP3 PUSH4 0xFFFFFFFF AND GT ISZERO JUMPDEST ISZERO PUSH2 0x1399 JUMPI PUSH1 0x1 SWAP1 POP PUSH2 0x139F JUMP JUMPDEST JUMPDEST PUSH1 0x0 SWAP1 POP JUMPDEST SWAP3 SWAP2 POP POP JUMP JUMPDEST PUSH1 0x0 PUSH2 0x13D7 DUP4 PUSH1 0x0 ADD PUSH1 0x4 SWAP1 SLOAD SWAP1 PUSH2 0x100 EXP SWAP1 DIV PUSH1 0xFF AND DUP5 PUSH1 0x0 ADD PUSH1 0xD SWAP1 SLOAD SWAP1 PUSH2 0x100 EXP SWAP1 DIV PUSH4 0xFFFFFFFF AND DUP5 PUSH2 0x16A0 JUMP JUMPDEST ISZERO PUSH2 0x13E7 JUMPI PUSH2 0x13E6 DUP4 DUP4 PUSH2 0x1765 JUMP JUMPDEST JUMPDEST PUSH1 0x0 DUP4 PUSH1 0x0 ADD PUSH1 0x9 SWAP1 SLOAD SWAP1 PUSH2 0x100 EXP SWAP1 DIV PUSH4 0xFFFFFFFF AND PUSH4 0xFFFFFFFF AND GT ISZERO PUSH2 0x1413 JUMPI PUSH1 0x1 SWAP1 POP PUSH2 0x1418 JUMP JUMPDEST PUSH1 0x0 SWAP1 POP JUMPDEST SWAP3 SWAP2 POP POP JUMP JUMPDEST DUP1 PUSH1 0x0 PUSH2 0x1430 DUP3 PUSH4 0xFFFFFFFF AND PUSH2 0x1540 JUMP JUMPDEST SWAP1 POP PUSH1 0xA DUP2 MLOAD GT ISZERO PUSH2 0x1441 JUMPI PUSH1 0x0 DUP1 REVERT JUMPDEST DUP4 PUSH1 0x0 ADD PUSH1 0x4 SWAP1 SLOAD SWAP1 PUSH2 0x100 EXP SWAP1 DIV PUSH4 0xFFFFFFFF AND DUP4 PUSH2 0x1461 SWAP2 SWAP1 PUSH2 0x2898 JUMP JUMPDEST DUP5 PUSH1 0x0 ADD PUSH1 0x0 PUSH2 0x100 EXP DUP2 SLOAD DUP2 PUSH4 0xFFFFFFFF MUL NOT AND SWAP1 DUP4 PUSH4 0xFFFFFFFF AND MUL OR SWAP1 SSTORE POP POP POP POP POP JUMP JUMPDEST PUSH1 0x0 PUSH1 0x4 PUSH1 0xFF AND DUP3 PUSH1 0xFF AND GT ISZERO PUSH2 0x14D5 JUMPI PUSH1 0x40 MLOAD PUSH32 0x8C379A000000000000000000000000000000000000000000000000000000000 DUP2 MSTORE PUSH1 0x4 ADD PUSH2 0x14CC SWAP1 PUSH2 0x2944 JUMP JUMPDEST PUSH1 0x40 MLOAD DUP1 SWAP2 SUB SWAP1 REVERT JUMPDEST PUSH1 0x0 PUSH1 0xFF AND DUP3 PUSH1 0xFF AND SUB PUSH2 0x14EC JUMPI PUSH1 0x1 SWAP1 POP PUSH2 0x153B JUMP JUMPDEST PUSH1 0x1 PUSH1 0xFF AND DUP3 PUSH1 0xFF AND SUB PUSH2 0x1503 JUMPI PUSH1 0x3C SWAP1 POP PUSH2 0x153B JUMP JUMPDEST PUSH1 0x2 PUSH1 0xFF AND DUP3 PUSH1 0xFF AND SUB PUSH2 0x151B JUMPI PUSH2 0xE10 SWAP1 POP PUSH2 0x153B JUMP JUMPDEST PUSH1 0x3 PUSH1 0xFF AND DUP3 PUSH1 0xFF AND SUB PUSH2 0x1534 JUMPI PUSH3 0x15180 SWAP1 POP PUSH2 0x153B JUMP JUMPDEST PUSH3 0x93A80 SWAP1 POP JUMPDEST SWAP2 SWAP1 POP JUMP JUMPDEST PUSH1 0x60 PUSH1 0x0 DUP3 SUB PUSH2 0x1587 JUMPI PUSH1 0x40 MLOAD DUP1 PUSH1 0x40 ADD PUSH1 0x40 MSTORE DUP1 PUSH1 0x1 DUP2 MSTORE PUSH1 0x20 ADD PUSH32 0x3000000000000000000000000000000000000000000000000000000000000000 DUP2 MSTORE POP SWAP1 POP PUSH2 0x169B JUMP JUMPDEST PUSH1 0x0 DUP3 SWAP1 POP PUSH1 0x0 JUMPDEST PUSH1 0x0 DUP3 EQ PUSH2 0x15B9 JUMPI DUP1 DUP1 PUSH2 0x15A2 SWAP1 PUSH2 0x296E JUMP JUMPDEST SWAP2 POP POP PUSH1 0xA DUP3 PUSH2 0x15B2 SWAP2 SWAP1 PUSH2 0x29E5 JUMP JUMPDEST SWAP2 POP PUSH2 0x158F JUMP JUMPDEST PUSH1 0x0 DUP2 PUSH8 0xFFFFFFFFFFFFFFFF DUP2 GT ISZERO PUSH2 0x15D5 JUMPI PUSH2 0x15D4 PUSH2 0x1D7A JUMP JUMPDEST JUMPDEST PUSH1 0x40 MLOAD SWAP1 DUP1 DUP3 MSTORE DUP1 PUSH1 0x1F ADD PUSH1 0x1F NOT AND PUSH1 0x20 ADD DUP3 ADD PUSH1 0x40 MSTORE DUP1 ISZERO PUSH2 0x1607 JUMPI DUP2 PUSH1 0x20 ADD PUSH1 0x1 DUP3 MUL DUP1 CALLDATASIZE DUP4 CALLDATACOPY DUP1 DUP3 ADD SWAP2 POP POP SWAP1 POP JUMPDEST POP SWAP1 POP JUMPDEST PUSH1 0x0 DUP6 EQ PUSH2 0x1694 JUMPI PUSH1 0x1 DUP3 PUSH2 0x1620 SWAP2 SWAP1 PUSH2 0x2A16 JUMP JUMPDEST SWAP2 POP PUSH1 0xA DUP6 PUSH2 0x162F SWAP2 SWAP1 PUSH2 0x2A4A JUMP JUMPDEST PUSH1 0x30 PUSH2 0x163B SWAP2 SWAP1 PUSH2 0x2A7B JUMP JUMPDEST PUSH1 0xF8 SHL DUP2 DUP4 DUP2 MLOAD DUP2 LT PUSH2 0x1651 JUMPI PUSH2 0x1650 PUSH2 0x2388 JUMP JUMPDEST JUMPDEST PUSH1 0x20 ADD ADD SWAP1 PUSH31 0xFFFFFFFFFFFFFFFFFFFFFFFFFFFFFFFFFFFFFFFFFFFFFFFFFFFFFFFFFFFFFF NOT AND SWAP1 DUP2 PUSH1 0x0 BYTE SWAP1 MSTORE8 POP PUSH1 0xA DUP6 PUSH2 0x168D SWAP2 SWAP1 PUSH2 0x29E5 JUMP JUMPDEST SWAP5 POP PUSH2 0x160B JUMP JUMPDEST DUP1 SWAP4 POP POP POP POP JUMPDEST SWAP2 SWAP1 POP JUMP JUMPDEST PUSH1 0x0 DUP1 DUP5 SWAP1 POP PUSH1 0x4 PUSH1 0xFF AND DUP2 PUSH1 0xFF AND GT PUSH2 0x16CC JUMPI DUP4 PUSH4 0xFFFFFFFF AND DUP4 PUSH4 0xFFFFFFFF AND LT ISZERO SWAP2 POP POP PUSH2 0x175E JUMP JUMPDEST PUSH1 0x5 PUSH1 0xFF AND DUP2 PUSH1 0xFF AND SUB PUSH2 0x1734 JUMPI PUSH1 0x0 PUSH2 0x16EB DUP5 PUSH4 0xFFFFFFFF AND PUSH2 0x17F2 JUMP JUMPDEST POP SWAP2 POP POP PUSH1 0xD DUP6 PUSH4 0xFFFFFFFF AND EQ DUP1 ISZERO PUSH2 0x170B JUMPI POP PUSH1 0x1 DUP2 PUSH4 0xFFFFFFFF AND EQ JUMPDEST ISZERO PUSH2 0x171B JUMPI PUSH1 0x1 SWAP3 POP POP POP PUSH2 0x175E JUMP JUMPDEST DUP5 PUSH4 0xFFFFFFFF AND DUP2 PUSH4 0xFFFFFFFF AND LT ISZERO SWAP3 POP POP POP PUSH2 0x175E JUMP JUMPDEST PUSH1 0x0 PUSH2 0x1745 DUP5 PUSH4 0xFFFFFFFF AND PUSH2 0x17F2 JUMP JUMPDEST POP POP SWAP1 POP DUP5 PUSH4 0xFFFFFFFF AND DUP2 PUSH4 0xFFFFFFFF AND LT ISZERO SWAP3 POP POP POP JUMPDEST SWAP4 SWAP3 POP POP POP JUMP JUMPDEST DUP2 PUSH1 0x0 ADD PUSH1 0x0 SWAP1 SLOAD SWAP1 PUSH2 0x100 EXP SWAP1 DIV PUSH4 0xFFFFFFFF AND DUP3 PUSH1 0x0 ADD PUSH1 0x9 PUSH2 0x100 EXP DUP2 SLOAD DUP2 PUSH4 0xFFFFFFFF MUL NOT AND SWAP1 DUP4 PUSH4 0xFFFFFFFF AND MUL OR SWAP1 SSTORE POP PUSH2 0x17CC DUP3 PUSH1 0x0 ADD PUSH1 0x5 SWAP1 SLOAD SWAP1 PUSH2 0x100 EXP SWAP1 DIV PUSH4 0xFFFFFFFF AND DUP4 PUSH1 0x0 ADD PUSH1 0x4 SWAP1 SLOAD SWAP1 PUSH2 0x100 EXP SWAP1 DIV PUSH1 0xFF AND DUP4 PUSH2 0x19A5 JUMP JUMPDEST DUP3 PUSH1 0x0 ADD PUSH1 0xD PUSH2 0x100 EXP DUP2 SLOAD DUP2 PUSH4 0xFFFFFFFF MUL NOT AND SWAP1 DUP4 PUSH4 0xFFFFFFFF AND MUL OR SWAP1 SSTORE POP POP POP JUMP JUMPDEST PUSH1 0x0 DUP1 PUSH1 0x0 DUP1 PUSH3 0x15180 PUSH4 0xFFFFFFFF AND DUP6 PUSH2 0x180D SWAP2 SWAP1 PUSH2 0x29E5 JUMP JUMPDEST SWAP1 POP PUSH1 0x0 PUSH3 0x253D8C PUSH3 0x10BD9 DUP4 PUSH2 0x1824 SWAP2 SWAP1 PUSH2 0x2898 JUMP JUMPDEST PUSH2 0x182E SWAP2 SWAP1 PUSH2 0x2898 JUMP JUMPDEST SWAP1 POP PUSH1 0x0 PUSH3 0x23AB1 DUP3 PUSH1 0x4 PUSH2 0x1843 SWAP2 SWAP1 PUSH2 0x2AD1 JUMP JUMPDEST PUSH2 0x184D SWAP2 SWAP1 PUSH2 0x2B0F JUMP JUMPDEST SWAP1 POP PUSH1 0x4 PUSH1 0x3 DUP3 PUSH3 0x23AB1 PUSH2 0x1862 SWAP2 SWAP1 PUSH2 0x2AD1 JUMP JUMPDEST PUSH2 0x186C SWAP2 SWAP1 PUSH2 0x2898 JUMP JUMPDEST PUSH2 0x1876 SWAP2 SWAP1 PUSH2 0x2B0F JUMP JUMPDEST DUP3 PUSH2 0x1881 SWAP2 SWAP1 PUSH2 0x2864 JUMP JUMPDEST SWAP2 POP PUSH1 0x0 PUSH3 0x164B09 PUSH1 0x1 DUP5 PUSH2 0x1896 SWAP2 SWAP1 PUSH2 0x2898 JUMP JUMPDEST PUSH2 0xFA0 PUSH2 0x18A3 SWAP2 SWAP1 PUSH2 0x2AD1 JUMP JUMPDEST PUSH2 0x18AD SWAP2 SWAP1 PUSH2 0x2B0F JUMP JUMPDEST SWAP1 POP PUSH1 0x1F PUSH1 0x4 DUP3 PUSH2 0x5B5 PUSH2 0x18C1 SWAP2 SWAP1 PUSH2 0x2AD1 JUMP JUMPDEST PUSH2 0x18CB SWAP2 SWAP1 PUSH2 0x2B0F JUMP JUMPDEST DUP5 PUSH2 0x18D6 SWAP2 SWAP1 PUSH2 0x2864 JUMP JUMPDEST PUSH2 0x18E0 SWAP2 SWAP1 PUSH2 0x2898 JUMP JUMPDEST SWAP3 POP PUSH1 0x0 PUSH2 0x98F DUP5 PUSH1 0x50 PUSH2 0x18F4 SWAP2 SWAP1 PUSH2 0x2AD1 JUMP JUMPDEST PUSH2 0x18FE SWAP2 SWAP1 PUSH2 0x2B0F JUMP JUMPDEST SWAP1 POP PUSH1 0x0 PUSH1 0x50 DUP3 PUSH2 0x98F PUSH2 0x1912 SWAP2 SWAP1 PUSH2 0x2AD1 JUMP JUMPDEST PUSH2 0x191C SWAP2 SWAP1 PUSH2 0x2B0F JUMP JUMPDEST DUP6 PUSH2 0x1927 SWAP2 SWAP1 PUSH2 0x2864 JUMP JUMPDEST SWAP1 POP PUSH1 0xB DUP3 PUSH2 0x1936 SWAP2 SWAP1 PUSH2 0x2B0F JUMP JUMPDEST SWAP5 POP DUP5 PUSH1 0xC PUSH2 0x1945 SWAP2 SWAP1 PUSH2 0x2AD1 JUMP JUMPDEST PUSH1 0x2 DUP4 PUSH2 0x1952 SWAP2 SWAP1 PUSH2 0x2898 JUMP JUMPDEST PUSH2 0x195C SWAP2 SWAP1 PUSH2 0x2864 JUMP JUMPDEST SWAP2 POP DUP5 DUP4 PUSH1 0x31 DUP7 PUSH2 0x196D SWAP2 SWAP1 PUSH2 0x2864 JUMP JUMPDEST PUSH1 0x64 PUSH2 0x1979 SWAP2 SWAP1 PUSH2 0x2AD1 JUMP JUMPDEST PUSH2 0x1983 SWAP2 SWAP1 PUSH2 0x2898 JUMP JUMPDEST PUSH2 0x198D SWAP2 SWAP1 PUSH2 0x2898 JUMP JUMPDEST SWAP3 POP DUP3 SWAP9 POP DUP2 SWAP8 POP DUP1 SWAP7 POP POP POP POP POP POP POP SWAP2 SWAP4 SWAP1 SWAP3 POP JUMP JUMPDEST PUSH1 0x0 PUSH1 0x4 PUSH1 0xFF AND DUP4 PUSH1 0xFF AND GT PUSH2 0x19C7 JUMPI PUSH2 0x19C0 DUP4 DUP4 DUP7 PUSH2 0x1A38 JUMP JUMPDEST SWAP1 POP PUSH2 0x1A31 JUMP JUMPDEST PUSH1 0x5 PUSH1 0xFF AND DUP4 PUSH1 0xFF AND SUB PUSH2 0x1A05 JUMPI PUSH1 0x0 PUSH2 0x19E6 DUP4 PUSH4 0xFFFFFFFF AND PUSH2 0x17F2 JUMP JUMPDEST POP PUSH4 0xFFFFFFFF AND SWAP2 POP POP PUSH1 0x1 DUP2 PUSH2 0x19FD SWAP2 SWAP1 PUSH2 0x2A7B JUMP JUMPDEST SWAP2 POP POP PUSH2 0x1A31 JUMP JUMPDEST PUSH1 0x0 PUSH2 0x1A16 DUP4 PUSH4 0xFFFFFFFF AND PUSH2 0x17F2 JUMP JUMPDEST POP POP PUSH4 0xFFFFFFFF AND SWAP1 POP PUSH1 0x1 DUP2 PUSH2 0x1A2D SWAP2 SWAP1 PUSH2 0x2A7B JUMP JUMPDEST SWAP2 POP POP JUMPDEST SWAP4 SWAP3 POP POP POP JUMP JUMPDEST PUSH1 0x0 DUP1 DUP3 DUP5 PUSH2 0x1A47 SWAP2 SWAP1 PUSH2 0x2B40 JUMP JUMPDEST SWAP1 POP PUSH1 0x0 DUP2 DUP5 PUSH2 0x1A57 SWAP2 SWAP1 PUSH2 0x2864 JUMP JUMPDEST SWAP1 POP PUSH1 0x4 PUSH1 0xFF AND DUP7 PUSH1 0xFF AND SUB PUSH2 0x1A8A JUMPI PUSH3 0x3F480 DUP2 DUP7 PUSH2 0x1A77 SWAP2 SWAP1 PUSH2 0x2898 JUMP JUMPDEST PUSH2 0x1A81 SWAP2 SWAP1 PUSH2 0x2898 JUMP JUMPDEST SWAP3 POP POP POP PUSH2 0x1A9B JUMP JUMPDEST DUP1 DUP6 PUSH2 0x1A96 SWAP2 SWAP1 PUSH2 0x2898 JUMP JUMPDEST SWAP3 POP POP POP JUMPDEST SWAP4 SWAP3 POP POP POP JUMP JUMPDEST POP DUP1 SLOAD PUSH2 0x1AAE SWAP1 PUSH2 0x264E JUMP JUMPDEST PUSH1 0x0 DUP3 SSTORE DUP1 PUSH1 0x1F LT PUSH2 0x1AC0 JUMPI POP PUSH2 0x1ADF JUMP JUMPDEST PUSH1 0x1F ADD PUSH1 0x20 SWAP1 DIV SWAP1 PUSH1 0x0 MSTORE PUSH1 0x20 PUSH1 0x0 KECCAK256 SWAP1 DUP2 ADD SWAP1 PUSH2 0x1ADE SWAP2 SWAP1 PUSH2 0x1CF7 JUMP JUMPDEST JUMPDEST POP JUMP JUMPDEST DUP3 DUP1 SLOAD PUSH2 0x1AEE SWAP1 PUSH2 0x264E JUMP JUMPDEST SWAP1 PUSH1 0x0 MSTORE PUSH1 0x20 PUSH1 0x0 KECCAK256 SWAP1 PUSH1 0x1F ADD PUSH1 0x20 SWAP1 DIV DUP2 ADD SWAP3 DUP3 PUSH2 0x1B10 JUMPI PUSH1 0x0 DUP6 SSTORE PUSH2 0x1B57 JUMP JUMPDEST DUP3 PUSH1 0x1F LT PUSH2 0x1B29 JUMPI DUP1 MLOAD PUSH1 0xFF NOT AND DUP4 DUP1 ADD OR DUP6 SSTORE PUSH2 0x1B57 JUMP JUMPDEST DUP3 DUP1 ADD PUSH1 0x1 ADD DUP6 SSTORE DUP3 ISZERO PUSH2 0x1B57 JUMPI SWAP2 DUP3 ADD JUMPDEST DUP3 DUP2 GT ISZERO PUSH2 0x1B56 JUMPI DUP3 MLOAD DUP3 SSTORE SWAP2 PUSH1 0x20 ADD SWAP2 SWAP1 PUSH1 0x1 ADD SWAP1 PUSH2 0x1B3B JUMP JUMPDEST JUMPDEST POP SWAP1 POP PUSH2 0x1B64 SWAP2 SWAP1 PUSH2 0x1CF7 JUMP JUMPDEST POP SWAP1 JUMP JUMPDEST PUSH1 0x40 MLOAD DUP1 PUSH1 0x60 ADD PUSH1 0x40 MSTORE DUP1 PUSH1 0x60 DUP2 MSTORE PUSH1 0x20 ADD PUSH1 0x0 PUSH20 0xFFFFFFFFFFFFFFFFFFFFFFFFFFFFFFFFFFFFFFFF AND DUP2 MSTORE PUSH1 0x20 ADD PUSH1 0x0 ISZERO ISZERO DUP2 MSTORE POP SWAP1 JUMP JUMPDEST PUSH1 0x40 MLOAD DUP1 PUSH1 0x40 ADD PUSH1 0x40 MSTORE DUP1 PUSH1 0x0 PUSH1 0xFF AND DUP2 MSTORE PUSH1 0x20 ADD PUSH1 0x0 PUSH1 0xFF AND DUP2 MSTORE POP SWAP1 JUMP JUMPDEST PUSH1 0x40 MLOAD DUP1 PUSH1 0x40 ADD PUSH1 0x40 MSTORE DUP1 PUSH1 0x0 PUSH4 0xFFFFFFFF AND DUP2 MSTORE PUSH1 0x20 ADD PUSH1 0x0 PUSH4 0xFFFFFFFF AND DUP2 MSTORE POP SWAP1 JUMP JUMPDEST PUSH1 0x40 MLOAD DUP1 PUSH1 0xA0 ADD PUSH1 0x40 MSTORE DUP1 PUSH1 0x0 PUSH4 0xFFFFFFFF AND DUP2 MSTORE PUSH1 0x20 ADD PUSH1 0x0 PUSH1 0xFF AND DUP2 MSTORE PUSH1 0x20 ADD PUSH1 0x0 PUSH4 0xFFFFFFFF AND DUP2 MSTORE PUSH1 0x20 ADD PUSH1 0x0 PUSH4 0xFFFFFFFF AND DUP2 MSTORE PUSH1 0x20 ADD PUSH1 0x0 PUSH4 0xFFFFFFFF AND DUP2 MSTORE POP SWAP1 JUMP JUMPDEST PUSH1 0x40 MLOAD DUP1 PUSH1 0x40 ADD PUSH1 0x40 MSTORE DUP1 PUSH1 0x0 PUSH4 0xFFFFFFFF AND DUP2 MSTORE PUSH1 0x20 ADD PUSH1 0x0 PUSH4 0xFFFFFFFF AND DUP2 MSTORE POP SWAP1 JUMP JUMPDEST PUSH1 0x40 MLOAD DUP1 PUSH1 0x20 ADD PUSH1 0x40 MSTORE DUP1 PUSH1 0x60 DUP2 MSTORE POP SWAP1 JUMP JUMPDEST DUP3 DUP1 SLOAD PUSH2 0x1C76 SWAP1 PUSH2 0x264E JUMP JUMPDEST SWAP1 PUSH1 0x0 MSTORE PUSH1 0x20 PUSH1 0x0 KECCAK256 SWAP1 PUSH1 0x1F ADD PUSH1 0x20 SWAP1 DIV DUP2 ADD SWAP3 DUP3 PUSH2 0x1C98 JUMPI PUSH1 0x0 DUP6 SSTORE PUSH2 0x1CE6 JUMP JUMPDEST DUP3 PUSH1 0x1F LT PUSH2 0x1CA9 JUMPI DUP1 SLOAD DUP6 SSTORE PUSH2 0x1CE6 JUMP JUMPDEST DUP3 DUP1 ADD PUSH1 0x1 ADD DUP6 SSTORE DUP3 ISZERO PUSH2 0x1CE6 JUMPI PUSH1 0x0 MSTORE PUSH1 0x20 PUSH1 0x0 KECCAK256 SWAP2 PUSH1 0x1F ADD PUSH1 0x20 SWAP1 DIV DUP3 ADD JUMPDEST DUP3 DUP2 GT ISZERO PUSH2 0x1CE5 JUMPI DUP3 SLOAD DUP3 SSTORE SWAP2 PUSH1 0x1 ADD SWAP2 SWAP1 PUSH1 0x1 ADD SWAP1 PUSH2 0x1CCA JUMP JUMPDEST JUMPDEST POP SWAP1 POP PUSH2 0x1CF3 SWAP2 SWAP1 PUSH2 0x1CF7 JUMP JUMPDEST POP SWAP1 JUMP JUMPDEST JUMPDEST DUP1 DUP3 GT ISZERO PUSH2 0x1D10 JUMPI PUSH1 0x0 DUP2 PUSH1 0x0 SWAP1 SSTORE POP PUSH1 0x1 ADD PUSH2 0x1CF8 JUMP JUMPDEST POP SWAP1 JUMP JUMPDEST PUSH1 0x0 PUSH1 0x40 MLOAD SWAP1 POP SWAP1 JUMP JUMPDEST PUSH1 0x0 DUP1 REVERT JUMPDEST PUSH1 0x0 DUP1 REVERT JUMPDEST PUSH1 0x0 PUSH4 0xFFFFFFFF DUP3 AND SWAP1 POP SWAP2 SWAP1 POP JUMP JUMPDEST PUSH2 0x1D41 DUP2 PUSH2 0x1D28 JUMP JUMPDEST DUP2 EQ PUSH2 0x1D4C JUMPI PUSH1 0x0 DUP1 REVERT JUMPDEST POP JUMP JUMPDEST PUSH1 0x0 DUP2 CALLDATALOAD SWAP1 POP PUSH2 0x1D5E DUP2 PUSH2 0x1D38 JUMP JUMPDEST SWAP3 SWAP2 POP POP JUMP JUMPDEST PUSH1 0x0 DUP1 REVERT JUMPDEST PUSH1 0x0 PUSH1 0x1F NOT PUSH1 0x1F DUP4 ADD AND SWAP1 POP SWAP2 SWAP1 POP JUMP JUMPDEST PUSH32 0x4E487B7100000000000000000000000000000000000000000000000000000000 PUSH1 0x0 MSTORE PUSH1 0x41 PUSH1 0x4 MSTORE PUSH1 0x24 PUSH1 0x0 REVERT JUMPDEST PUSH2 0x1DB2 DUP3 PUSH2 0x1D69 JUMP JUMPDEST DUP2 ADD DUP2 DUP2 LT PUSH8 0xFFFFFFFFFFFFFFFF DUP3 GT OR ISZERO PUSH2 0x1DD1 JUMPI PUSH2 0x1DD0 PUSH2 0x1D7A JUMP JUMPDEST JUMPDEST DUP1 PUSH1 0x40 MSTORE POP POP POP JUMP JUMPDEST PUSH1 0x0 PUSH2 0x1DE4 PUSH2 0x1D14 JUMP JUMPDEST SWAP1 POP PUSH2 0x1DF0 DUP3 DUP3 PUSH2 0x1DA9 JUMP JUMPDEST SWAP2 SWAP1 POP JUMP JUMPDEST PUSH1 0x0 PUSH8 0xFFFFFFFFFFFFFFFF DUP3 GT ISZERO PUSH2 0x1E10 JUMPI PUSH2 0x1E0F PUSH2 0x1D7A JUMP JUMPDEST JUMPDEST PUSH1 0x20 DUP3 MUL SWAP1 POP PUSH1 0x20 DUP2 ADD SWAP1 POP SWAP2 SWAP1 POP JUMP JUMPDEST PUSH1 0x0 DUP1 REVERT JUMPDEST PUSH1 0x0 DUP2 ISZERO ISZERO SWAP1 POP SWAP2 SWAP1 POP JUMP JUMPDEST PUSH2 0x1E3B DUP2 PUSH2 0x1E26 JUMP JUMPDEST DUP2 EQ PUSH2 0x1E46 JUMPI PUSH1 0x0 DUP1 REVERT JUMPDEST POP JUMP JUMPDEST PUSH1 0x0 DUP2 CALLDATALOAD SWAP1 POP PUSH2 0x1E58 DUP2 PUSH2 0x1E32 JUMP JUMPDEST SWAP3 SWAP2 POP POP JUMP JUMPDEST PUSH1 0x0 PUSH2 0x1E71 PUSH2 0x1E6C DUP5 PUSH2 0x1DF5 JUMP JUMPDEST PUSH2 0x1DDA JUMP JUMPDEST SWAP1 POP DUP1 DUP4 DUP3 MSTORE PUSH1 0x20 DUP3 ADD SWAP1 POP PUSH1 0x20 DUP5 MUL DUP4 ADD DUP6 DUP2 GT ISZERO PUSH2 0x1E94 JUMPI PUSH2 0x1E93 PUSH2 0x1E21 JUMP JUMPDEST JUMPDEST DUP4 JUMPDEST DUP2 DUP2 LT ISZERO PUSH2 0x1EBD JUMPI DUP1 PUSH2 0x1EA9 DUP9 DUP3 PUSH2 0x1E49 JUMP JUMPDEST DUP5 MSTORE PUSH1 0x20 DUP5 ADD SWAP4 POP POP PUSH1 0x20 DUP2 ADD SWAP1 POP PUSH2 0x1E96 JUMP JUMPDEST POP POP POP SWAP4 SWAP3 POP POP POP JUMP JUMPDEST PUSH1 0x0 DUP3 PUSH1 0x1F DUP4 ADD SLT PUSH2 0x1EDC JUMPI PUSH2 0x1EDB PUSH2 0x1D64 JUMP JUMPDEST JUMPDEST DUP2 CALLDATALOAD PUSH2 0x1EEC DUP5 DUP3 PUSH1 0x20 DUP7 ADD PUSH2 0x1E5E JUMP JUMPDEST SWAP2 POP POP SWAP3 SWAP2 POP POP JUMP JUMPDEST PUSH1 0x0 DUP1 PUSH1 0x40 DUP4 DUP6 SUB SLT ISZERO PUSH2 0x1F0C JUMPI PUSH2 0x1F0B PUSH2 0x1D1E JUMP JUMPDEST JUMPDEST PUSH1 0x0 PUSH2 0x1F1A DUP6 DUP3 DUP7 ADD PUSH2 0x1D4F JUMP JUMPDEST SWAP3 POP POP PUSH1 0x20 DUP4 ADD CALLDATALOAD PUSH8 0xFFFFFFFFFFFFFFFF DUP2 GT ISZERO PUSH2 0x1F3B JUMPI PUSH2 0x1F3A PUSH2 0x1D23 JUMP JUMPDEST JUMPDEST PUSH2 0x1F47 DUP6 DUP3 DUP7 ADD PUSH2 0x1EC7 JUMP JUMPDEST SWAP2 POP POP SWAP3 POP SWAP3 SWAP1 POP JUMP JUMPDEST PUSH2 0x1F5A DUP2 PUSH2 0x1E26 JUMP JUMPDEST DUP3 MSTORE POP POP JUMP JUMPDEST PUSH1 0x0 PUSH1 0x20 DUP3 ADD SWAP1 POP PUSH2 0x1F75 PUSH1 0x0 DUP4 ADD DUP5 PUSH2 0x1F51 JUMP JUMPDEST SWAP3 SWAP2 POP POP JUMP JUMPDEST PUSH1 0x0 DUP1 REVERT JUMPDEST PUSH1 0x0 PUSH8 0xFFFFFFFFFFFFFFFF DUP3 GT ISZERO PUSH2 0x1F9B JUMPI PUSH2 0x1F9A PUSH2 0x1D7A JUMP JUMPDEST JUMPDEST PUSH2 0x1FA4 DUP3 PUSH2 0x1D69 JUMP JUMPDEST SWAP1 POP PUSH1 0x20 DUP2 ADD SWAP1 POP SWAP2 SWAP1 POP JUMP JUMPDEST DUP3 DUP2 DUP4 CALLDATACOPY PUSH1 0x0 DUP4 DUP4 ADD MSTORE POP POP POP JUMP JUMPDEST PUSH1 0x0 PUSH2 0x1FD3 PUSH2 0x1FCE DUP5 PUSH2 0x1F80 JUMP JUMPDEST PUSH2 0x1DDA JUMP JUMPDEST SWAP1 POP DUP3 DUP2 MSTORE PUSH1 0x20 DUP2 ADD DUP5 DUP5 DUP5 ADD GT ISZERO PUSH2 0x1FEF JUMPI PUSH2 0x1FEE PUSH2 0x1F7B JUMP JUMPDEST JUMPDEST PUSH2 0x1FFA DUP5 DUP3 DUP6 PUSH2 0x1FB1 JUMP JUMPDEST POP SWAP4 SWAP3 POP POP POP JUMP JUMPDEST PUSH1 0x0 DUP3 PUSH1 0x1F DUP4 ADD SLT PUSH2 0x2017 JUMPI PUSH2 0x2016 PUSH2 0x1D64 JUMP JUMPDEST JUMPDEST DUP2 CALLDATALOAD PUSH2 0x2027 DUP5 DUP3 PUSH1 0x20 DUP7 ADD PUSH2 0x1FC0 JUMP JUMPDEST SWAP2 POP POP SWAP3 SWAP2 POP POP JUMP JUMPDEST PUSH1 0x0 PUSH20 0xFFFFFFFFFFFFFFFFFFFFFFFFFFFFFFFFFFFFFFFF DUP3 AND SWAP1 POP SWAP2 SWAP1 POP JUMP JUMPDEST PUSH1 0x0 PUSH2 0x205B DUP3 PUSH2 0x2030 JUMP JUMPDEST SWAP1 POP SWAP2 SWAP1 POP JUMP JUMPDEST PUSH2 0x206B DUP2 PUSH2 0x2050 JUMP JUMPDEST DUP2 EQ PUSH2 0x2076 JUMPI PUSH1 0x0 DUP1 REVERT JUMPDEST POP JUMP JUMPDEST PUSH1 0x0 DUP2 CALLDATALOAD SWAP1 POP PUSH2 0x2088 DUP2 PUSH2 0x2062 JUMP JUMPDEST SWAP3 SWAP2 POP POP JUMP JUMPDEST PUSH1 0x0 DUP1 PUSH1 0x40 DUP4 DUP6 SUB SLT ISZERO PUSH2 0x20A5 JUMPI PUSH2 0x20A4 PUSH2 0x1D1E JUMP JUMPDEST JUMPDEST PUSH1 0x0 DUP4 ADD CALLDATALOAD PUSH8 0xFFFFFFFFFFFFFFFF DUP2 GT ISZERO PUSH2 0x20C3 JUMPI PUSH2 0x20C2 PUSH2 0x1D23 JUMP JUMPDEST JUMPDEST PUSH2 0x20CF DUP6 DUP3 DUP7 ADD PUSH2 0x2002 JUMP JUMPDEST SWAP3 POP POP PUSH1 0x20 PUSH2 0x20E0 DUP6 DUP3 DUP7 ADD PUSH2 0x2079 JUMP JUMPDEST SWAP2 POP POP SWAP3 POP SWAP3 SWAP1 POP JUMP JUMPDEST PUSH2 0x20F3 DUP2 PUSH2 0x2050 JUMP JUMPDEST DUP3 MSTORE POP POP JUMP JUMPDEST PUSH1 0x0 PUSH1 0x20 DUP3 ADD SWAP1 POP PUSH2 0x210E PUSH1 0x0 DUP4 ADD DUP5 PUSH2 0x20EA JUMP JUMPDEST SWAP3 SWAP2 POP POP JUMP JUMPDEST PUSH1 0x0 PUSH1 0xFF DUP3 AND SWAP1 POP SWAP2 SWAP1 POP JUMP JUMPDEST PUSH2 0x212A DUP2 PUSH2 0x2114 JUMP JUMPDEST DUP2 EQ PUSH2 0x2135 JUMPI PUSH1 0x0 DUP1 REVERT JUMPDEST POP JUMP JUMPDEST PUSH1 0x0 DUP2 CALLDATALOAD SWAP1 POP PUSH2 0x2147 DUP2 PUSH2 0x2121 JUMP JUMPDEST SWAP3 SWAP2 POP POP JUMP JUMPDEST PUSH1 0x0 DUP1 PUSH1 0x0 PUSH1 0x60 DUP5 DUP7 SUB SLT ISZERO PUSH2 0x2166 JUMPI PUSH2 0x2165 PUSH2 0x1D1E JUMP JUMPDEST JUMPDEST PUSH1 0x0 PUSH2 0x2174 DUP7 DUP3 DUP8 ADD PUSH2 0x2138 JUMP JUMPDEST SWAP4 POP POP PUSH1 0x20 PUSH2 0x2185 DUP7 DUP3 DUP8 ADD PUSH2 0x1D4F JUMP JUMPDEST SWAP3 POP POP PUSH1 0x40 PUSH2 0x2196 DUP7 DUP3 DUP8 ADD PUSH2 0x1D4F JUMP JUMPDEST SWAP2 POP POP SWAP3 POP SWAP3 POP SWAP3 JUMP JUMPDEST PUSH1 0x0 PUSH1 0x20 DUP3 DUP5 SUB SLT ISZERO PUSH2 0x21B6 JUMPI PUSH2 0x21B5 PUSH2 0x1D1E JUMP JUMPDEST JUMPDEST PUSH1 0x0 PUSH2 0x21C4 DUP5 DUP3 DUP6 ADD PUSH2 0x2079 JUMP JUMPDEST SWAP2 POP POP SWAP3 SWAP2 POP POP JUMP JUMPDEST PUSH1 0x0 DUP2 MLOAD SWAP1 POP SWAP2 SWAP1 POP JUMP JUMPDEST PUSH1 0x0 DUP3 DUP3 MSTORE PUSH1 0x20 DUP3 ADD SWAP1 POP SWAP3 SWAP2 POP POP JUMP JUMPDEST PUSH1 0x0 JUMPDEST DUP4 DUP2 LT ISZERO PUSH2 0x2207 JUMPI DUP1 DUP3 ADD MLOAD DUP2 DUP5 ADD MSTORE PUSH1 0x20 DUP2 ADD SWAP1 POP PUSH2 0x21EC JUMP JUMPDEST DUP4 DUP2 GT ISZERO PUSH2 0x2216 JUMPI PUSH1 0x0 DUP5 DUP5 ADD MSTORE JUMPDEST POP POP POP POP JUMP JUMPDEST PUSH1 0x0 PUSH2 0x2227 DUP3 PUSH2 0x21CD JUMP JUMPDEST PUSH2 0x2231 DUP2 DUP6 PUSH2 0x21D8 JUMP JUMPDEST SWAP4 POP PUSH2 0x2241 DUP2 DUP6 PUSH1 0x20 DUP7 ADD PUSH2 0x21E9 JUMP JUMPDEST PUSH2 0x224A DUP2 PUSH2 0x1D69 JUMP JUMPDEST DUP5 ADD SWAP2 POP POP SWAP3 SWAP2 POP POP JUMP JUMPDEST PUSH2 0x225E DUP2 PUSH2 0x2050 JUMP JUMPDEST DUP3 MSTORE POP POP JUMP JUMPDEST PUSH2 0x226D DUP2 PUSH2 0x1E26 JUMP JUMPDEST DUP3 MSTORE POP POP JUMP JUMPDEST PUSH1 0x0 PUSH1 0x60 DUP4 ADD PUSH1 0x0 DUP4 ADD MLOAD DUP5 DUP3 SUB PUSH1 0x0 DUP7 ADD MSTORE PUSH2 0x2290 DUP3 DUP3 PUSH2 0x221C JUMP JUMPDEST SWAP2 POP POP PUSH1 0x20 DUP4 ADD MLOAD PUSH2 0x22A5 PUSH1 0x20 DUP7 ADD DUP3 PUSH2 0x2255 JUMP JUMPDEST POP PUSH1 0x40 DUP4 ADD MLOAD PUSH2 0x22B8 PUSH1 0x40 DUP7 ADD DUP3 PUSH2 0x2264 JUMP JUMPDEST POP DUP1 SWAP2 POP POP SWAP3 SWAP2 POP POP JUMP JUMPDEST PUSH1 0x0 PUSH1 0x20 DUP3 ADD SWAP1 POP DUP2 DUP2 SUB PUSH1 0x0 DUP4 ADD MSTORE PUSH2 0x22DD DUP2 DUP5 PUSH2 0x2273 JUMP JUMPDEST SWAP1 POP SWAP3 SWAP2 POP POP JUMP JUMPDEST PUSH1 0x0 DUP3 DUP3 MSTORE PUSH1 0x20 DUP3 ADD SWAP1 POP SWAP3 SWAP2 POP POP JUMP JUMPDEST PUSH32 0x4F6E6C7920746865206170706C69636174696F6E2063616E2065786563757465 PUSH1 0x0 DUP3 ADD MSTORE PUSH32 0x2074686973206F7065726174696F6E0000000000000000000000000000000000 PUSH1 0x20 DUP3 ADD MSTORE POP JUMP JUMPDEST PUSH1 0x0 PUSH2 0x2352 PUSH1 0x2F DUP4 PUSH2 0x22E5 JUMP JUMPDEST SWAP2 POP PUSH2 0x235D DUP3 PUSH2 0x22F6 JUMP JUMPDEST PUSH1 0x40 DUP3 ADD SWAP1 POP SWAP2 SWAP1 POP JUMP JUMPDEST PUSH1 0x0 PUSH1 0x20 DUP3 ADD SWAP1 POP DUP2 DUP2 SUB PUSH1 0x0 DUP4 ADD MSTORE PUSH2 0x2381 DUP2 PUSH2 0x2345 JUMP JUMPDEST SWAP1 POP SWAP2 SWAP1 POP JUMP JUMPDEST PUSH32 0x4E487B7100000000000000000000000000000000000000000000000000000000 PUSH1 0x0 MSTORE PUSH1 0x32 PUSH1 0x4 MSTORE PUSH1 0x24 PUSH1 0x0 REVERT JUMPDEST PUSH32 0x5375636365737366756C20657865637574696F6E210000000000000000000000 PUSH1 0x0 DUP3 ADD MSTORE POP JUMP JUMPDEST PUSH1 0x0 PUSH2 0x23ED PUSH1 0x15 DUP4 PUSH2 0x22E5 JUMP JUMPDEST SWAP2 POP PUSH2 0x23F8 DUP3 PUSH2 0x23B7 JUMP JUMPDEST PUSH1 0x20 DUP3 ADD SWAP1 POP SWAP2 SWAP1 POP JUMP JUMPDEST PUSH1 0x0 PUSH1 0x20 DUP3 ADD SWAP1 POP DUP2 DUP2 SUB PUSH1 0x0 DUP4 ADD MSTORE PUSH2 0x241C DUP2 PUSH2 0x23E0 JUMP JUMPDEST SWAP1 POP SWAP2 SWAP1 POP JUMP JUMPDEST PUSH32 0x436F6E646974696F6E7320646F206E6F74206D65657400000000000000000000 PUSH1 0x0 DUP3 ADD MSTORE POP JUMP JUMPDEST PUSH1 0x0 PUSH2 0x2459 PUSH1 0x16 DUP4 PUSH2 0x22E5 JUMP JUMPDEST SWAP2 POP PUSH2 0x2464 DUP3 PUSH2 0x2423 JUMP JUMPDEST PUSH1 0x20 DUP3 ADD SWAP1 POP SWAP2 SWAP1 POP JUMP JUMPDEST PUSH1 0x0 PUSH1 0x20 DUP3 ADD SWAP1 POP DUP2 DUP2 SUB PUSH1 0x0 DUP4 ADD MSTORE PUSH2 0x2488 DUP2 PUSH2 0x244C JUMP JUMPDEST SWAP1 POP SWAP2 SWAP1 POP JUMP JUMPDEST PUSH32 0x4F6E6C79207468652070726F636573732063616E206578656375746520746869 PUSH1 0x0 DUP3 ADD MSTORE PUSH32 0x73206F7065726174696F6E000000000000000000000000000000000000000000 PUSH1 0x20 DUP3 ADD MSTORE POP JUMP JUMPDEST PUSH1 0x0 PUSH2 0x24EB PUSH1 0x2B DUP4 PUSH2 0x22E5 JUMP JUMPDEST SWAP2 POP PUSH2 0x24F6 DUP3 PUSH2 0x248F JUMP JUMPDEST PUSH1 0x40 DUP3 ADD SWAP1 POP SWAP2 SWAP1 POP JUMP JUMPDEST PUSH1 0x0 PUSH1 0x20 DUP3 ADD SWAP1 POP DUP2 DUP2 SUB PUSH1 0x0 DUP4 ADD MSTORE PUSH2 0x251A DUP2 PUSH2 0x24DE JUMP JUMPDEST SWAP1 POP SWAP2 SWAP1 POP JUMP JUMPDEST PUSH32 0x4F6E6C79207468652070726F63657373206F7220746865206170706C69636174 PUSH1 0x0 DUP3 ADD MSTORE PUSH32 0x696F6E2063616E20657865637574652074686973206F7065726174696F6E0000 PUSH1 0x20 DUP3 ADD MSTORE POP JUMP JUMPDEST PUSH1 0x0 PUSH2 0x257D PUSH1 0x3E DUP4 PUSH2 0x22E5 JUMP JUMPDEST SWAP2 POP PUSH2 0x2588 DUP3 PUSH2 0x2521 JUMP JUMPDEST PUSH1 0x40 DUP3 ADD SWAP1 POP SWAP2 SWAP1 POP JUMP JUMPDEST PUSH1 0x0 PUSH1 0x20 DUP3 ADD SWAP1 POP DUP2 DUP2 SUB PUSH1 0x0 DUP4 ADD MSTORE PUSH2 0x25AC DUP2 PUSH2 0x2570 JUMP JUMPDEST SWAP1 POP SWAP2 SWAP1 POP JUMP JUMPDEST PUSH32 0x54686520636F6E747261637420697320616C7265616479207369676E65640000 PUSH1 0x0 DUP3 ADD MSTORE POP JUMP JUMPDEST PUSH1 0x0 PUSH2 0x25E9 PUSH1 0x1E DUP4 PUSH2 0x22E5 JUMP JUMPDEST SWAP2 POP PUSH2 0x25F4 DUP3 PUSH2 0x25B3 JUMP JUMPDEST PUSH1 0x20 DUP3 ADD SWAP1 POP SWAP2 SWAP1 POP JUMP JUMPDEST PUSH1 0x0 PUSH1 0x20 DUP3 ADD SWAP1 POP DUP2 DUP2 SUB PUSH1 0x0 DUP4 ADD MSTORE PUSH2 0x2618 DUP2 PUSH2 0x25DC JUMP JUMPDEST SWAP1 POP SWAP2 SWAP1 POP JUMP JUMPDEST PUSH32 0x4E487B7100000000000000000000000000000000000000000000000000000000 PUSH1 0x0 MSTORE PUSH1 0x22 PUSH1 0x4 MSTORE PUSH1 0x24 PUSH1 0x0 REVERT JUMPDEST PUSH1 0x0 PUSH1 0x2 DUP3 DIV SWAP1 POP PUSH1 0x1 DUP3 AND DUP1 PUSH2 0x2666 JUMPI PUSH1 0x7F DUP3 AND SWAP2 POP JUMPDEST PUSH1 0x20 DUP3 LT DUP2 SUB PUSH2 0x2679 JUMPI PUSH2 0x2678 PUSH2 0x261F JUMP JUMPDEST JUMPDEST POP SWAP2 SWAP1 POP JUMP JUMPDEST PUSH32 0x546865205F7374617274446179206E6F7420726570726573656E747320612076 PUSH1 0x0 DUP3 ADD MSTORE PUSH32 0x616C696420646179000000000000000000000000000000000000000000000000 PUSH1 0x20 DUP3 ADD MSTORE POP JUMP JUMPDEST PUSH1 0x0 PUSH2 0x26DB PUSH1 0x28 DUP4 PUSH2 0x22E5 JUMP JUMPDEST SWAP2 POP PUSH2 0x26E6 DUP3 PUSH2 0x267F JUMP JUMPDEST PUSH1 0x40 DUP3 ADD SWAP1 POP SWAP2 SWAP1 POP JUMP JUMPDEST PUSH1 0x0 PUSH1 0x20 DUP3 ADD SWAP1 POP DUP2 DUP2 SUB PUSH1 0x0 DUP4 ADD MSTORE PUSH2 0x270A DUP2 PUSH2 0x26CE JUMP JUMPDEST SWAP1 POP SWAP2 SWAP1 POP JUMP JUMPDEST PUSH32 0x546865205F656E64446179206E6F7420726570726573656E747320612076616C PUSH1 0x0 DUP3 ADD MSTORE PUSH32 0x6964206461790000000000000000000000000000000000000000000000000000 PUSH1 0x20 DUP3 ADD MSTORE POP JUMP JUMPDEST PUSH1 0x0 PUSH2 0x276D PUSH1 0x26 DUP4 PUSH2 0x22E5 JUMP JUMPDEST SWAP2 POP PUSH2 0x2778 DUP3 PUSH2 0x2711 JUMP JUMPDEST PUSH1 0x40 DUP3 ADD SWAP1 POP SWAP2 SWAP1 POP JUMP JUMPDEST PUSH1 0x0 PUSH1 0x20 DUP3 ADD SWAP1 POP DUP2 DUP2 SUB PUSH1 0x0 DUP4 ADD MSTORE PUSH2 0x279C DUP2 PUSH2 0x2760 JUMP JUMPDEST SWAP1 POP SWAP2 SWAP1 POP JUMP JUMPDEST PUSH32 0x5468657265206973206E6F20656E6454696D652073657420696E2074696D656F PUSH1 0x0 DUP3 ADD MSTORE PUSH32 0x7574000000000000000000000000000000000000000000000000000000000000 PUSH1 0x20 DUP3 ADD MSTORE POP JUMP JUMPDEST PUSH1 0x0 PUSH2 0x27FF PUSH1 0x22 DUP4 PUSH2 0x22E5 JUMP JUMPDEST SWAP2 POP PUSH2 0x280A DUP3 PUSH2 0x27A3 JUMP JUMPDEST PUSH1 0x40 DUP3 ADD SWAP1 POP SWAP2 SWAP1 POP JUMP JUMPDEST PUSH1 0x0 PUSH1 0x20 DUP3 ADD SWAP1 POP DUP2 DUP2 SUB PUSH1 0x0 DUP4 ADD MSTORE PUSH2 0x282E DUP2 PUSH2 0x27F2 JUMP JUMPDEST SWAP1 POP SWAP2 SWAP1 POP JUMP JUMPDEST PUSH32 0x4E487B7100000000000000000000000000000000000000000000000000000000 PUSH1 0x0 MSTORE PUSH1 0x11 PUSH1 0x4 MSTORE PUSH1 0x24 PUSH1 0x0 REVERT JUMPDEST PUSH1 0x0 PUSH2 0x286F DUP3 PUSH2 0x1D28 JUMP JUMPDEST SWAP2 POP PUSH2 0x287A DUP4 PUSH2 0x1D28 JUMP JUMPDEST SWAP3 POP DUP3 DUP3 LT ISZERO PUSH2 0x288D JUMPI PUSH2 0x288C PUSH2 0x2835 JUMP JUMPDEST JUMPDEST DUP3 DUP3 SUB SWAP1 POP SWAP3 SWAP2 POP POP JUMP JUMPDEST PUSH1 0x0 PUSH2 0x28A3 DUP3 PUSH2 0x1D28 JUMP JUMPDEST SWAP2 POP PUSH2 0x28AE DUP4 PUSH2 0x1D28 JUMP JUMPDEST SWAP3 POP DUP3 PUSH4 0xFFFFFFFF SUB DUP3 GT ISZERO PUSH2 0x28C7 JUMPI PUSH2 0x28C6 PUSH2 0x2835 JUMP JUMPDEST JUMPDEST DUP3 DUP3 ADD SWAP1 POP SWAP3 SWAP2 POP POP JUMP JUMPDEST PUSH32 0x546865206D6574686F642067657454696D65496E5365636F6E647320646F6573 PUSH1 0x0 DUP3 ADD MSTORE PUSH32 0x6E277420776F726B20666F72204D4F4E544820616E6420594541520000000000 PUSH1 0x20 DUP3 ADD MSTORE POP JUMP JUMPDEST PUSH1 0x0 PUSH2 0x292E PUSH1 0x3B DUP4 PUSH2 0x22E5 JUMP JUMPDEST SWAP2 POP PUSH2 0x2939 DUP3 PUSH2 0x28D2 JUMP JUMPDEST PUSH1 0x40 DUP3 ADD SWAP1 POP SWAP2 SWAP1 POP JUMP JUMPDEST PUSH1 0x0 PUSH1 0x20 DUP3 ADD SWAP1 POP DUP2 DUP2 SUB PUSH1 0x0 DUP4 ADD MSTORE PUSH2 0x295D DUP2 PUSH2 0x2921 JUMP JUMPDEST SWAP1 POP SWAP2 SWAP1 POP JUMP JUMPDEST PUSH1 0x0 DUP2 SWAP1 POP SWAP2 SWAP1 POP JUMP JUMPDEST PUSH1 0x0 PUSH2 0x2979 DUP3 PUSH2 0x2964 JUMP JUMPDEST SWAP2 POP PUSH32 0xFFFFFFFFFFFFFFFFFFFFFFFFFFFFFFFFFFFFFFFFFFFFFFFFFFFFFFFFFFFFFFFF DUP3 SUB PUSH2 0x29AB JUMPI PUSH2 0x29AA PUSH2 0x2835 JUMP JUMPDEST JUMPDEST PUSH1 0x1 DUP3 ADD SWAP1 POP SWAP2 SWAP1 POP JUMP JUMPDEST PUSH32 0x4E487B7100000000000000000000000000000000000000000000000000000000 PUSH1 0x0 MSTORE PUSH1 0x12 PUSH1 0x4 MSTORE PUSH1 0x24 PUSH1 0x0 REVERT JUMPDEST PUSH1 0x0 PUSH2 0x29F0 DUP3 PUSH2 0x2964 JUMP JUMPDEST SWAP2 POP PUSH2 0x29FB DUP4 PUSH2 0x2964 JUMP JUMPDEST SWAP3 POP DUP3 PUSH2 0x2A0B JUMPI PUSH2 0x2A0A PUSH2 0x29B6 JUMP JUMPDEST JUMPDEST DUP3 DUP3 DIV SWAP1 POP SWAP3 SWAP2 POP POP JUMP JUMPDEST PUSH1 0x0 PUSH2 0x2A21 DUP3 PUSH2 0x2964 JUMP JUMPDEST SWAP2 POP PUSH2 0x2A2C DUP4 PUSH2 0x2964 JUMP JUMPDEST SWAP3 POP DUP3 DUP3 LT ISZERO PUSH2 0x2A3F JUMPI PUSH2 0x2A3E PUSH2 0x2835 JUMP JUMPDEST JUMPDEST DUP3 DUP3 SUB SWAP1 POP SWAP3 SWAP2 POP POP JUMP JUMPDEST PUSH1 0x0 PUSH2 0x2A55 DUP3 PUSH2 0x2964 JUMP JUMPDEST SWAP2 POP PUSH2 0x2A60 DUP4 PUSH2 0x2964 JUMP JUMPDEST SWAP3 POP DUP3 PUSH2 0x2A70 JUMPI PUSH2 0x2A6F PUSH2 0x29B6 JUMP JUMPDEST JUMPDEST DUP3 DUP3 MOD SWAP1 POP SWAP3 SWAP2 POP POP JUMP JUMPDEST PUSH1 0x0 PUSH2 0x2A86 DUP3 PUSH2 0x2964 JUMP JUMPDEST SWAP2 POP PUSH2 0x2A91 DUP4 PUSH2 0x2964 JUMP JUMPDEST SWAP3 POP DUP3 PUSH32 0xFFFFFFFFFFFFFFFFFFFFFFFFFFFFFFFFFFFFFFFFFFFFFFFFFFFFFFFFFFFFFFFF SUB DUP3 GT ISZERO PUSH2 0x2AC6 JUMPI PUSH2 0x2AC5 PUSH2 0x2835 JUMP JUMPDEST JUMPDEST DUP3 DUP3 ADD SWAP1 POP SWAP3 SWAP2 POP POP JUMP JUMPDEST PUSH1 0x0 PUSH2 0x2ADC DUP3 PUSH2 0x1D28 JUMP JUMPDEST SWAP2 POP PUSH2 0x2AE7 DUP4 PUSH2 0x1D28 JUMP JUMPDEST SWAP3 POP DUP2 PUSH4 0xFFFFFFFF DIV DUP4 GT DUP3 ISZERO ISZERO AND ISZERO PUSH2 0x2B04 JUMPI PUSH2 0x2B03 PUSH2 0x2835 JUMP JUMPDEST JUMPDEST DUP3 DUP3 MUL SWAP1 POP SWAP3 SWAP2 POP POP JUMP JUMPDEST PUSH1 0x0 PUSH2 0x2B1A DUP3 PUSH2 0x1D28 JUMP JUMPDEST SWAP2 POP PUSH2 0x2B25 DUP4 PUSH2 0x1D28 JUMP JUMPDEST SWAP3 POP DUP3 PUSH2 0x2B35 JUMPI PUSH2 0x2B34 PUSH2 0x29B6 JUMP JUMPDEST JUMPDEST DUP3 DUP3 DIV SWAP1 POP SWAP3 SWAP2 POP POP JUMP JUMPDEST PUSH1 0x0 PUSH2 0x2B4B DUP3 PUSH2 0x1D28 JUMP JUMPDEST SWAP2 POP PUSH2 0x2B56 DUP4 PUSH2 0x1D28 JUMP JUMPDEST SWAP3 POP DUP3 PUSH2 0x2B66 JUMPI PUSH2 0x2B65 PUSH2 0x29B6 JUMP JUMPDEST JUMPDEST DUP3 DUP3 MOD SWAP1 POP SWAP3 SWAP2 POP POP JUMP INVALID LOG2 PUSH5 0x6970667358 0x22 SLT KECCAK256 SWAP16 0xB0 GT 0xA9 PUSH5 0x213CC933D PUSH28 0x5BFBE5151EA57FC4654CB5823C4D42FBBBA1C704C064736F6C634300 ADDMOD 0xD STOP CALLER PUSH4 0x6F756E74 0x28 0x2F 0x2F PUSH3 0x6F6479 0x2F PUSH19 0x6571756573742F646F63756D656E7429203D3D KECCAK256 PUSH4 0x6F756E74 0x28 0x2F 0x2F PUSH3 0x6F6479 0x2F PUSH19 0x6573706F6E73652F646F63756D656E74290000 "
		},
		"gasEstimates": {
			"creation": {
				"codeDepositCost": "2235000",
				"executionCost": "infinite",
				"totalCost": "infinite"
			},
			"external": {
				"changeApplicationParty(string,address)": "infinite",
				"getApplicationAddress()": "6930",
				"getParty(address)": "infinite",
				"getProcessAddress()": "6885",
				"obligation_responseWorks(uint32,bool[])": "infinite",
				"right_requestAllWorks(uint8,uint32,uint32)": "infinite",
				"signContract()": "infinite"
			},
			"internal": {
				"updateMapParty(address,struct EAI.Party storage pointer)": "infinite"
			}
		},
		"methodIdentifiers": {
			"changeApplicationParty(string,address)": "5e744c6a",
			"getApplicationAddress()": "70d8915a",
			"getParty(address)": "fb6f8243",
			"getProcessAddress()": "85931911",
			"obligation_responseWorks(uint32,bool[])": "22d53d53",
			"right_requestAllWorks(uint8,uint32,uint32)": "9c764223",
			"signContract()": "b8b4f1a0"
		}
	},
	"abi": [
		{
			"inputs": [
				{
					"internalType": "address",
					"name": "_applicationWallet",
					"type": "address"
				}
			],
			"stateMutability": "nonpayable",
			"type": "constructor"
		},
		{
			"anonymous": false,
			"inputs": [
				{
					"indexed": false,
					"internalType": "string",
					"name": "_logMessage",
					"type": "string"
				}
			],
			"name": "failEvent",
			"type": "event"
		},
		{
			"anonymous": false,
			"inputs": [
				{
					"indexed": false,
					"internalType": "string",
					"name": "_logMessage",
					"type": "string"
				}
			],
			"name": "successEvent",
			"type": "event"
		},
		{
			"inputs": [
				{
					"internalType": "string",
					"name": "_name",
					"type": "string"
				},
				{
					"internalType": "address",
					"name": "_walletAddress",
					"type": "address"
				}
			],
			"name": "changeApplicationParty",
			"outputs": [
				{
					"internalType": "bool",
					"name": "",
					"type": "bool"
				}
			],
			"stateMutability": "nonpayable",
			"type": "function"
		},
		{
			"inputs": [],
			"name": "getApplicationAddress",
			"outputs": [
				{
					"internalType": "address",
					"name": "",
					"type": "address"
				}
			],
			"stateMutability": "view",
			"type": "function"
		},
		{
			"inputs": [
				{
					"internalType": "address",
					"name": "_walletAddress",
					"type": "address"
				}
			],
			"name": "getParty",
			"outputs": [
				{
					"components": [
						{
							"internalType": "string",
							"name": "name",
							"type": "string"
						},
						{
							"internalType": "address",
							"name": "walletAddress",
							"type": "address"
						},
						{
							"internalType": "bool",
							"name": "aware",
							"type": "bool"
						}
					],
					"internalType": "struct EAI.Party",
					"name": "",
					"type": "tuple"
				}
			],
			"stateMutability": "view",
			"type": "function"
		},
		{
			"inputs": [],
			"name": "getProcessAddress",
			"outputs": [
				{
					"internalType": "address",
					"name": "",
					"type": "address"
				}
			],
			"stateMutability": "view",
			"type": "function"
		},
		{
			"inputs": [
				{
					"internalType": "uint32",
					"name": "_accessDateTime",
					"type": "uint32"
				},
				{
					"internalType": "bool[]",
					"name": "_resultFromXpath",
					"type": "bool[]"
				}
			],
			"name": "obligation_responseWorks",
			"outputs": [
				{
					"internalType": "bool",
					"name": "",
					"type": "bool"
				}
			],
			"stateMutability": "nonpayable",
			"type": "function"
		},
		{
			"inputs": [
				{
					"internalType": "uint8",
					"name": "_weekDay",
					"type": "uint8"
				},
				{
					"internalType": "uint32",
					"name": "_accessTime",
					"type": "uint32"
				},
				{
					"internalType": "uint32",
					"name": "_accessDateTime",
					"type": "uint32"
				}
			],
			"name": "right_requestAllWorks",
			"outputs": [
				{
					"internalType": "bool",
					"name": "",
					"type": "bool"
				}
			],
			"stateMutability": "nonpayable",
			"type": "function"
		},
		{
			"inputs": [],
			"name": "signContract",
			"outputs": [
				{
					"internalType": "bool",
					"name": "",
					"type": "bool"
				}
			],
			"stateMutability": "nonpayable",
			"type": "function"
		}
	]
}