{
	"contracts/study-case-contracts/004-whatsapp/WhatsappProcessWrite.sol": {
		"WhatsappProcessWrite": {
			"abi": [
				{
					"inputs": [
						{
							"internalType": "address",
							"name": "_applicationWallet",
							"type": "address"
						}
					],
					"stateMutability": "nonpayable",
					"type": "constructor"
				},
				{
					"anonymous": false,
					"inputs": [
						{
							"indexed": false,
							"internalType": "string",
							"name": "_logMessage",
							"type": "string"
						}
					],
					"name": "failEvent",
					"type": "event"
				},
				{
					"anonymous": false,
					"inputs": [
						{
							"indexed": false,
							"internalType": "string",
							"name": "_logMessage",
							"type": "string"
						}
					],
					"name": "successEvent",
					"type": "event"
				},
				{
					"inputs": [
						{
							"internalType": "string",
							"name": "_name",
							"type": "string"
						},
						{
							"internalType": "address",
							"name": "_walletAddress",
							"type": "address"
						}
					],
					"name": "changeApplicationParty",
					"outputs": [
						{
							"internalType": "bool",
							"name": "",
							"type": "bool"
						}
					],
					"stateMutability": "nonpayable",
					"type": "function"
				},
				{
					"inputs": [],
					"name": "getApplicationAddress",
					"outputs": [
						{
							"internalType": "address",
							"name": "",
							"type": "address"
						}
					],
					"stateMutability": "view",
					"type": "function"
				},
				{
					"inputs": [
						{
							"internalType": "address",
							"name": "_walletAddress",
							"type": "address"
						}
					],
					"name": "getParty",
					"outputs": [
						{
							"components": [
								{
									"internalType": "string",
									"name": "name",
									"type": "string"
								},
								{
									"internalType": "address",
									"name": "walletAddress",
									"type": "address"
								},
								{
									"internalType": "bool",
									"name": "aware",
									"type": "bool"
								}
							],
							"internalType": "struct EAI.Party",
							"name": "",
							"type": "tuple"
						}
					],
					"stateMutability": "view",
					"type": "function"
				},
				{
					"inputs": [],
					"name": "getProcessAddress",
					"outputs": [
						{
							"internalType": "address",
							"name": "",
							"type": "address"
						}
					],
					"stateMutability": "view",
					"type": "function"
				},
				{
					"inputs": [
						{
							"internalType": "uint8",
							"name": "_weekDayAccess",
							"type": "uint8"
						},
						{
							"internalType": "string",
							"name": "_resultXPath_k2",
							"type": "string"
						},
						{
							"internalType": "uint32",
							"name": "_accessDateTime",
							"type": "uint32"
						},
						{
							"internalType": "string",
							"name": "_resultXPath_onlyString",
							"type": "string"
						}
					],
					"name": "rigth_sendMessage",
					"outputs": [
						{
							"internalType": "bool",
							"name": "",
							"type": "bool"
						}
					],
					"stateMutability": "nonpayable",
					"type": "function"
				},
				{
					"inputs": [],
					"name": "signContract",
					"outputs": [
						{
							"internalType": "bool",
							"name": "",
							"type": "bool"
						}
					],
					"stateMutability": "nonpayable",
					"type": "function"
				}
			],
			"devdoc": {
				"kind": "dev",
				"methods": {},
				"version": 1
			},
			"evm": {
				"assembly": "    /* \"contracts/study-case-contracts/004-whatsapp/WhatsappProcessWrite.sol\":190:7823  contract WhatsappProcessWrite {... */\n  mstore(0x40, 0x80)\n    /* \"contracts/study-case-contracts/004-whatsapp/WhatsappProcessWrite.sol\":2473:3798  constructor(address _applicationWallet){... */\n  callvalue\n  dup1\n  iszero\n  tag_1\n  jumpi\n  0x00\n  dup1\n  revert\ntag_1:\n  pop\n  mload(0x40)\n  sub(codesize, bytecodeSize)\n  dup1\n  bytecodeSize\n  dup4\n  codecopy\n  dup2\n  dup2\n  add\n  0x40\n  mstore\n  dup2\n  add\n  swap1\n  tag_2\n  swap2\n  swap1\n  tag_3\n  jump\t// in\ntag_2:\n    /* \"contracts/study-case-contracts/004-whatsapp/WhatsappProcessWrite.sol\":2540:2544  true */\n  0x01\n    /* \"contracts/study-case-contracts/004-whatsapp/WhatsappProcessWrite.sol\":2528:2537  activated */\n  0x00\n  dup1\n    /* \"contracts/study-case-contracts/004-whatsapp/WhatsappProcessWrite.sol\":2528:2544  activated = true */\n  0x0100\n  exp\n  dup2\n  sload\n  dup2\n  0xff\n  mul\n  not\n  and\n  swap1\n  dup4\n  iszero\n  iszero\n  mul\n  or\n  swap1\n  sstore\n  pop\n    /* \"contracts/study-case-contracts/004-whatsapp/WhatsappProcessWrite.sol\":2626:2636  1672560000 */\n  0x63b13d80\n    /* \"contracts/study-case-contracts/004-whatsapp/WhatsappProcessWrite.sol\":2614:2623  beginDate */\n  0x00\n  0x01\n    /* \"contracts/study-case-contracts/004-whatsapp/WhatsappProcessWrite.sol\":2614:2636  beginDate = 1672560000 */\n  0x0100\n  exp\n  dup2\n  sload\n  dup2\n  0xffffffff\n  mul\n  not\n  and\n  swap1\n  dup4\n  0xffffffff\n  and\n  mul\n  or\n  swap1\n  sstore\n  pop\n    /* \"contracts/study-case-contracts/004-whatsapp/WhatsappProcessWrite.sol\":2679:2689  1704045600 */\n  0x6591ac20\n    /* \"contracts/study-case-contracts/004-whatsapp/WhatsappProcessWrite.sol\":2669:2676  dueDate */\n  0x00\n  0x05\n    /* \"contracts/study-case-contracts/004-whatsapp/WhatsappProcessWrite.sol\":2669:2689  dueDate = 1704045600 */\n  0x0100\n  exp\n  dup2\n  sload\n  dup2\n  0xffffffff\n  mul\n  not\n  and\n  swap1\n  dup4\n  0xffffffff\n  and\n  mul\n  or\n  swap1\n  sstore\n  pop\n    /* \"contracts/study-case-contracts/004-whatsapp/WhatsappProcessWrite.sol\":2808:2862  EAI.createParty(\"Whatsapp\", _applicationWallet, false) */\n  tag_6\n  mload(0x40)\n  dup1\n  0x40\n  add\n  0x40\n  mstore\n  dup1\n  0x08\n  dup2\n  mstore\n  0x20\n  add\n  0x5768617473617070000000000000000000000000000000000000000000000000\n  dup2\n  mstore\n  pop\n    /* \"contracts/study-case-contracts/004-whatsapp/WhatsappProcessWrite.sol\":2836:2854  _applicationWallet */\n  dup3\n    /* \"contracts/study-case-contracts/004-whatsapp/WhatsappProcessWrite.sol\":2856:2861  false */\n  0x00\n    /* \"contracts/study-case-contracts/004-whatsapp/WhatsappProcessWrite.sol\":2808:2823  EAI.createParty */\n  or(tag_0_36, shl(0x20, tag_7))\n    /* \"contracts/study-case-contracts/004-whatsapp/WhatsappProcessWrite.sol\":2808:2862  EAI.createParty(\"Whatsapp\", _applicationWallet, false) */\n  0x20\n  shr\n  jump\t// in\ntag_6:\n    /* \"contracts/study-case-contracts/004-whatsapp/WhatsappProcessWrite.sol\":2794:2805  application */\n  0x01\n    /* \"contracts/study-case-contracts/004-whatsapp/WhatsappProcessWrite.sol\":2794:2862  application = EAI.createParty(\"Whatsapp\", _applicationWallet, false) */\n  0x00\n  dup3\n  add\n  mload\n  dup2\n  0x00\n  add\n  swap1\n  dup1\n  mload\n  swap1\n  0x20\n  add\n  swap1\n  tag_8\n  swap3\n  swap2\n  swap1\n  tag_9\n  jump\t// in\ntag_8:\n  pop\n  0x20\n  dup3\n  add\n  mload\n  dup2\n  0x01\n  add\n  exp(0x0100, 0x00)\n  dup2\n  sload\n  dup2\n  0xffffffffffffffffffffffffffffffffffffffff\n  mul\n  not\n  and\n  swap1\n  dup4\n  0xffffffffffffffffffffffffffffffffffffffff\n  and\n  mul\n  or\n  swap1\n  sstore\n  pop\n  0x40\n  dup3\n  add\n  mload\n  dup2\n  0x01\n  add\n  exp(0x0100, 0x14)\n  dup2\n  sload\n  dup2\n  0xff\n  mul\n  not\n  and\n  swap1\n  dup4\n  iszero\n  iszero\n  mul\n  or\n  swap1\n  sstore\n  pop\n  swap1\n  pop\n  pop\n    /* \"contracts/study-case-contracts/004-whatsapp/WhatsappProcessWrite.sol\":2915:2971  EAI.createParty(\"Integration Process\", msg.sender, true) */\n  tag_10\n  mload(0x40)\n  dup1\n  0x40\n  add\n  0x40\n  mstore\n  dup1\n  0x13\n  dup2\n  mstore\n  0x20\n  add\n  0x496e746567726174696f6e2050726f6365737300000000000000000000000000\n  dup2\n  mstore\n  pop\n    /* \"contracts/study-case-contracts/004-whatsapp/WhatsappProcessWrite.sol\":2954:2964  msg.sender */\n  caller\n    /* \"contracts/study-case-contracts/004-whatsapp/WhatsappProcessWrite.sol\":2966:2970  true */\n  0x01\n    /* \"contracts/study-case-contracts/004-whatsapp/WhatsappProcessWrite.sol\":2915:2930  EAI.createParty */\n  or(tag_0_36, shl(0x20, tag_7))\n    /* \"contracts/study-case-contracts/004-whatsapp/WhatsappProcessWrite.sol\":2915:2971  EAI.createParty(\"Integration Process\", msg.sender, true) */\n  0x20\n  shr\n  jump\t// in\ntag_10:\n    /* \"contracts/study-case-contracts/004-whatsapp/WhatsappProcessWrite.sol\":2905:2912  process */\n  0x03\n    /* \"contracts/study-case-contracts/004-whatsapp/WhatsappProcessWrite.sol\":2905:2971  process = EAI.createParty(\"Integration Process\", msg.sender, true) */\n  0x00\n  dup3\n  add\n  mload\n  dup2\n  0x00\n  add\n  swap1\n  dup1\n  mload\n  swap1\n  0x20\n  add\n  swap1\n  tag_11\n  swap3\n  swap2\n  swap1\n  tag_9\n  jump\t// in\ntag_11:\n  pop\n  0x20\n  dup3\n  add\n  mload\n  dup2\n  0x01\n  add\n  exp(0x0100, 0x00)\n  dup2\n  sload\n  dup2\n  0xffffffffffffffffffffffffffffffffffffffff\n  mul\n  not\n  and\n  swap1\n  dup4\n  0xffffffffffffffffffffffffffffffffffffffff\n  and\n  mul\n  or\n  swap1\n  sstore\n  pop\n  0x40\n  dup3\n  add\n  mload\n  dup2\n  0x01\n  add\n  exp(0x0100, 0x14)\n  dup2\n  sload\n  dup2\n  0xff\n  mul\n  not\n  and\n  swap1\n  dup4\n  iszero\n  iszero\n  mul\n  or\n  swap1\n  sstore\n  pop\n  swap1\n  pop\n  pop\n    /* \"contracts/study-case-contracts/004-whatsapp/WhatsappProcessWrite.sol\":3046:3053  process */\n  0x03\n    /* \"contracts/study-case-contracts/004-whatsapp/WhatsappProcessWrite.sol\":3023:3031  mapParty */\n  0x05\n    /* \"contracts/study-case-contracts/004-whatsapp/WhatsappProcessWrite.sol\":3023:3043  mapParty[msg.sender] */\n  0x00\n    /* \"contracts/study-case-contracts/004-whatsapp/WhatsappProcessWrite.sol\":3032:3042  msg.sender */\n  caller\n    /* \"contracts/study-case-contracts/004-whatsapp/WhatsappProcessWrite.sol\":3023:3043  mapParty[msg.sender] */\n  0xffffffffffffffffffffffffffffffffffffffff\n  and\n  0xffffffffffffffffffffffffffffffffffffffff\n  and\n  dup2\n  mstore\n  0x20\n  add\n  swap1\n  dup2\n  mstore\n  0x20\n  add\n  0x00\n  keccak256\n    /* \"contracts/study-case-contracts/004-whatsapp/WhatsappProcessWrite.sol\":3023:3053  mapParty[msg.sender] = process */\n  0x00\n  dup3\n  add\n  dup2\n  0x00\n  add\n  swap1\n  dup1\n  sload\n  tag_12\n  swap1\n  tag_13\n  jump\t// in\ntag_12:\n  tag_14\n  swap3\n  swap2\n  swap1\n  tag_15\n  jump\t// in\ntag_14:\n  pop\n  0x01\n  dup3\n  add\n  0x00\n  swap1\n  sload\n  swap1\n  0x0100\n  exp\n  swap1\n  div\n  0xffffffffffffffffffffffffffffffffffffffff\n  and\n  dup2\n  0x01\n  add\n  exp(0x0100, 0x00)\n  dup2\n  sload\n  dup2\n  0xffffffffffffffffffffffffffffffffffffffff\n  mul\n  not\n  and\n  swap1\n  dup4\n  0xffffffffffffffffffffffffffffffffffffffff\n  and\n  mul\n  or\n  swap1\n  sstore\n  pop\n  0x01\n  dup3\n  add\n  0x14\n  swap1\n  sload\n  swap1\n  0x0100\n  exp\n  swap1\n  div\n  0xff\n  and\n  dup2\n  0x01\n  add\n  exp(0x0100, 0x14)\n  dup2\n  sload\n  dup2\n  0xff\n  mul\n  not\n  and\n  swap1\n  dup4\n  iszero\n  iszero\n  mul\n  or\n  swap1\n  sstore\n  pop\n  swap1\n  pop\n  pop\n    /* \"contracts/study-case-contracts/004-whatsapp/WhatsappProcessWrite.sol\":3095:3106  application */\n  0x01\n    /* \"contracts/study-case-contracts/004-whatsapp/WhatsappProcessWrite.sol\":3064:3072  mapParty */\n  0x05\n    /* \"contracts/study-case-contracts/004-whatsapp/WhatsappProcessWrite.sol\":3064:3092  mapParty[_applicationWallet] */\n  0x00\n    /* \"contracts/study-case-contracts/004-whatsapp/WhatsappProcessWrite.sol\":3073:3091  _applicationWallet */\n  dup4\n    /* \"contracts/study-case-contracts/004-whatsapp/WhatsappProcessWrite.sol\":3064:3092  mapParty[_applicationWallet] */\n  0xffffffffffffffffffffffffffffffffffffffff\n  and\n  0xffffffffffffffffffffffffffffffffffffffff\n  and\n  dup2\n  mstore\n  0x20\n  add\n  swap1\n  dup2\n  mstore\n  0x20\n  add\n  0x00\n  keccak256\n    /* \"contracts/study-case-contracts/004-whatsapp/WhatsappProcessWrite.sol\":3064:3106  mapParty[_applicationWallet] = application */\n  0x00\n  dup3\n  add\n  dup2\n  0x00\n  add\n  swap1\n  dup1\n  sload\n  tag_16\n  swap1\n  tag_13\n  jump\t// in\ntag_16:\n  tag_17\n  swap3\n  swap2\n  swap1\n  tag_15\n  jump\t// in\ntag_17:\n  pop\n  0x01\n  dup3\n  add\n  0x00\n  swap1\n  sload\n  swap1\n  0x0100\n  exp\n  swap1\n  div\n  0xffffffffffffffffffffffffffffffffffffffff\n  and\n  dup2\n  0x01\n  add\n  exp(0x0100, 0x00)\n  dup2\n  sload\n  dup2\n  0xffffffffffffffffffffffffffffffffffffffff\n  mul\n  not\n  and\n  swap1\n  dup4\n  0xffffffffffffffffffffffffffffffffffffffff\n  and\n  mul\n  or\n  swap1\n  sstore\n  pop\n  0x01\n  dup3\n  add\n  0x14\n  swap1\n  sload\n  swap1\n  0x0100\n  exp\n  swap1\n  div\n  0xff\n  and\n  dup2\n  0x01\n  add\n  exp(0x0100, 0x14)\n  dup2\n  sload\n  dup2\n  0xff\n  mul\n  not\n  and\n  swap1\n  dup4\n  iszero\n  iszero\n  mul\n  or\n  swap1\n  sstore\n  pop\n  swap1\n  pop\n  pop\n    /* \"contracts/study-case-contracts/004-whatsapp/WhatsappProcessWrite.sol\":3260:3279  weekDaysInterval_C1 */\n  0x06\n    /* \"contracts/study-case-contracts/004-whatsapp/WhatsappProcessWrite.sol\":3285:3335  EAI.createWeekDaysInterval(EAI.MONDAY, EAI.FRIDAY) */\n  tag_18\n    /* \"contracts/lib/eai/EAI.sol\":549:550  1 */\n  0x01\n    /* \"contracts/lib/eai/EAI.sol\":675:676  5 */\n  0x05\n    /* \"contracts/study-case-contracts/004-whatsapp/WhatsappProcessWrite.sol\":3285:3311  EAI.createWeekDaysInterval */\n  or(tag_0_37, shl(0x20, tag_19))\n    /* \"contracts/study-case-contracts/004-whatsapp/WhatsappProcessWrite.sol\":3285:3335  EAI.createWeekDaysInterval(EAI.MONDAY, EAI.FRIDAY) */\n  0x20\n  shr\n  jump\t// in\ntag_18:\n    /* \"contracts/study-case-contracts/004-whatsapp/WhatsappProcessWrite.sol\":3260:3336  weekDaysInterval_C1.push(EAI.createWeekDaysInterval(EAI.MONDAY, EAI.FRIDAY)) */\n  swap1\n  dup1\n  0x01\n  dup2\n  sload\n  add\n  dup1\n  dup3\n  sstore\n  dup1\n  swap2\n  pop\n  pop\n  0x01\n  swap1\n  sub\n  swap1\n  0x00\n  mstore\n  keccak256(0x00, 0x20)\n  add\n  0x00\n  swap1\n  swap2\n  swap1\n  swap2\n  swap1\n  swap2\n  pop\n  0x00\n  dup3\n  add\n  mload\n  dup2\n  0x00\n  add\n  exp(0x0100, 0x00)\n  dup2\n  sload\n  dup2\n  0xff\n  mul\n  not\n  and\n  swap1\n  dup4\n  0xff\n  and\n  mul\n  or\n  swap1\n  sstore\n  pop\n  0x20\n  dup3\n  add\n  mload\n  dup2\n  0x00\n  add\n  exp(0x0100, 0x01)\n  dup2\n  sload\n  dup2\n  0xff\n  mul\n  not\n  and\n  swap1\n  dup4\n  0xff\n  and\n  mul\n  or\n  swap1\n  sstore\n  pop\n  pop\n  pop\n    /* \"contracts/study-case-contracts/004-whatsapp/WhatsappProcessWrite.sol\":3357:3375  sessionInterval_C1 */\n  0x07\n    /* \"contracts/study-case-contracts/004-whatsapp/WhatsappProcessWrite.sol\":3381:3446  EAI.createSessionInteval(24, EAI.HOUR, \"//conversationId/text()\") */\n  tag_21\n    /* \"contracts/study-case-contracts/004-whatsapp/WhatsappProcessWrite.sol\":3406:3408  24 */\n  0x18\n    /* \"contracts/lib/eai/EAI.sol\":815:816  2 */\n  0x02\n    /* \"contracts/study-case-contracts/004-whatsapp/WhatsappProcessWrite.sol\":3381:3446  EAI.createSessionInteval(24, EAI.HOUR, \"//conversationId/text()\") */\n  mload(0x40)\n  dup1\n  0x40\n  add\n  0x40\n  mstore\n  dup1\n  0x17\n  dup2\n  mstore\n  0x20\n  add\n  0x2f2f636f6e766572736174696f6e49642f746578742829000000000000000000\n  dup2\n  mstore\n  pop\n    /* \"contracts/study-case-contracts/004-whatsapp/WhatsappProcessWrite.sol\":3381:3405  EAI.createSessionInteval */\n  or(tag_0_38, shl(0x20, tag_22))\n    /* \"contracts/study-case-contracts/004-whatsapp/WhatsappProcessWrite.sol\":3381:3446  EAI.createSessionInteval(24, EAI.HOUR, \"//conversationId/text()\") */\n  0x20\n  shr\n  jump\t// in\ntag_21:\n    /* \"contracts/study-case-contracts/004-whatsapp/WhatsappProcessWrite.sol\":3357:3447  sessionInterval_C1.push(EAI.createSessionInteval(24, EAI.HOUR, \"//conversationId/text()\")) */\n  swap1\n  dup1\n  0x01\n  dup2\n  sload\n  add\n  dup1\n  dup3\n  sstore\n  dup1\n  swap2\n  pop\n  pop\n  0x01\n  swap1\n  sub\n  swap1\n  0x00\n  mstore\n  keccak256(0x00, 0x20)\n  swap1\n  0x03\n  mul\n  add\n  0x00\n  swap1\n  swap2\n  swap1\n  swap2\n  swap1\n  swap2\n  pop\n  0x00\n  dup3\n  add\n  mload\n  dup2\n  0x00\n  add\n  exp(0x0100, 0x00)\n  dup2\n  sload\n  dup2\n  0xff\n  mul\n  not\n  and\n  swap1\n  dup4\n  0xff\n  and\n  mul\n  or\n  swap1\n  sstore\n  pop\n  0x20\n  dup3\n  add\n  mload\n  dup2\n  0x00\n  add\n  exp(0x0100, 0x01)\n  dup2\n  sload\n  dup2\n  0xff\n  mul\n  not\n  and\n  swap1\n  dup4\n  0xff\n  and\n  mul\n  or\n  swap1\n  sstore\n  pop\n  0x40\n  dup3\n  add\n  mload\n  dup2\n  0x00\n  add\n  exp(0x0100, 0x02)\n  dup2\n  sload\n  dup2\n  0xffffffff\n  mul\n  not\n  and\n  swap1\n  dup4\n  0xffffffff\n  and\n  mul\n  or\n  swap1\n  sstore\n  pop\n  0x60\n  dup3\n  add\n  mload\n  dup2\n  0x01\n  add\n  swap1\n  dup1\n  mload\n  swap1\n  0x20\n  add\n  swap1\n  tag_24\n  swap3\n  swap2\n  swap1\n  tag_9\n  jump\t// in\ntag_24:\n  pop\n  0x80\n  dup3\n  add\n  mload\n  dup2\n  0x02\n  add\n  exp(0x0100, 0x00)\n  dup2\n  sload\n  dup2\n  0xffffffff\n  mul\n  not\n  and\n  swap1\n  dup4\n  0xffffffff\n  and\n  mul\n  or\n  swap1\n  sstore\n  pop\n  pop\n  pop\n    /* \"contracts/study-case-contracts/004-whatsapp/WhatsappProcessWrite.sol\":3458:3465  keys_k1 */\n  0x0a\n    /* \"contracts/study-case-contracts/004-whatsapp/WhatsappProcessWrite.sol\":3471:3489  sessionInterval_C1 */\n  0x07\n    /* \"contracts/study-case-contracts/004-whatsapp/WhatsappProcessWrite.sol\":3490:3491  0 */\n  0x00\n    /* \"contracts/study-case-contracts/004-whatsapp/WhatsappProcessWrite.sol\":3471:3492  sessionInterval_C1[0] */\n  dup2\n  sload\n  dup2\n  lt\n  tag_25\n  jumpi\n  tag_26\n  tag_27\n  jump\t// in\ntag_26:\ntag_25:\n  swap1\n  0x00\n  mstore\n  keccak256(0x00, 0x20)\n  swap1\n  0x03\n  mul\n  add\n    /* \"contracts/study-case-contracts/004-whatsapp/WhatsappProcessWrite.sol\":3471:3498  sessionInterval_C1[0].xpath */\n  0x01\n  add\n    /* \"contracts/study-case-contracts/004-whatsapp/WhatsappProcessWrite.sol\":3458:3499  keys_k1.push(sessionInterval_C1[0].xpath) */\n  swap1\n  dup1\n  0x01\n  dup2\n  sload\n  add\n  dup1\n  dup3\n  sstore\n  dup1\n  swap2\n  pop\n  pop\n  0x01\n  swap1\n  sub\n  swap1\n  0x00\n  mstore\n  keccak256(0x00, 0x20)\n  add\n  0x00\n  swap1\n  swap2\n  swap1\n  swap2\n  swap1\n  swap2\n  pop\n  swap1\n  dup1\n  sload\n  tag_30\n  swap1\n  tag_13\n  jump\t// in\ntag_30:\n  tag_31\n  swap3\n  swap2\n  swap1\n  tag_32\n  jump\t// in\ntag_31:\n  pop\n    /* \"contracts/study-case-contracts/004-whatsapp/WhatsappProcessWrite.sol\":3564:3568  true */\n  0x01\n    /* \"contracts/study-case-contracts/004-whatsapp/WhatsappProcessWrite.sol\":3523:3532  exists_k1 */\n  0x0c\n    /* \"contracts/study-case-contracts/004-whatsapp/WhatsappProcessWrite.sol\":3533:3551  sessionInterval_C1 */\n  0x07\n    /* \"contracts/study-case-contracts/004-whatsapp/WhatsappProcessWrite.sol\":3552:3553  0 */\n  0x00\n    /* \"contracts/study-case-contracts/004-whatsapp/WhatsappProcessWrite.sol\":3533:3554  sessionInterval_C1[0] */\n  dup2\n  sload\n  dup2\n  lt\n  tag_33\n  jumpi\n  tag_34\n  tag_27\n  jump\t// in\ntag_34:\ntag_33:\n  swap1\n  0x00\n  mstore\n  keccak256(0x00, 0x20)\n  swap1\n  0x03\n  mul\n  add\n    /* \"contracts/study-case-contracts/004-whatsapp/WhatsappProcessWrite.sol\":3533:3560  sessionInterval_C1[0].xpath */\n  0x01\n  add\n    /* \"contracts/study-case-contracts/004-whatsapp/WhatsappProcessWrite.sol\":3523:3561  exists_k1[sessionInterval_C1[0].xpath] */\n  mload(0x40)\n  tag_36\n  swap2\n  swap1\n  tag_37\n  jump\t// in\ntag_36:\n  swap1\n  dup2\n  mstore\n  0x20\n  add\n  mload(0x40)\n  dup1\n  swap2\n  sub\n  swap1\n  keccak256\n  0x00\n    /* \"contracts/study-case-contracts/004-whatsapp/WhatsappProcessWrite.sol\":3523:3568  exists_k1[sessionInterval_C1[0].xpath] = true */\n  0x0100\n  exp\n  dup2\n  sload\n  dup2\n  0xff\n  mul\n  not\n  and\n  swap1\n  dup4\n  iszero\n  iszero\n  mul\n  or\n  swap1\n  sstore\n  pop\n    /* \"contracts/study-case-contracts/004-whatsapp/WhatsappProcessWrite.sol\":3581:3610  msgContent_onlyPath_String_C1 */\n  0x0e\n    /* \"contracts/study-case-contracts/004-whatsapp/WhatsappProcessWrite.sol\":3616:3689  EAI.createMessageContent_onlyXPath_String(\"//conversationStarter/text()\") */\n  tag_38\n  mload(0x40)\n  dup1\n  0x40\n  add\n  0x40\n  mstore\n  dup1\n  0x1c\n  dup2\n  mstore\n  0x20\n  add\n  0x2f2f636f6e766572736174696f6e537461727465722f74657874282900000000\n  dup2\n  mstore\n  pop\n    /* \"contracts/study-case-contracts/004-whatsapp/WhatsappProcessWrite.sol\":3616:3657  EAI.createMessageContent_onlyXPath_String */\n  or(tag_0_39, shl(0x20, tag_39))\n    /* \"contracts/study-case-contracts/004-whatsapp/WhatsappProcessWrite.sol\":3616:3689  EAI.createMessageContent_onlyXPath_String(\"//conversationStarter/text()\") */\n  0x20\n  shr\n  jump\t// in\ntag_38:\n    /* \"contracts/study-case-contracts/004-whatsapp/WhatsappProcessWrite.sol\":3581:3690  msgContent_onlyPath_String_C1.push(EAI.createMessageContent_onlyXPath_String(\"//conversationStarter/text()\")) */\n  swap1\n  dup1\n  0x01\n  dup2\n  sload\n  add\n  dup1\n  dup3\n  sstore\n  dup1\n  swap2\n  pop\n  pop\n  0x01\n  swap1\n  sub\n  swap1\n  0x00\n  mstore\n  keccak256(0x00, 0x20)\n  add\n  0x00\n  swap1\n  swap2\n  swap1\n  swap2\n  swap1\n  swap2\n  pop\n  0x00\n  dup3\n  add\n  mload\n  dup2\n  0x00\n  add\n  swap1\n  dup1\n  mload\n  swap1\n  0x20\n  add\n  swap1\n  tag_41\n  swap3\n  swap2\n  swap1\n  tag_9\n  jump\t// in\ntag_41:\n  pop\n  pop\n  pop\n    /* \"contracts/study-case-contracts/004-whatsapp/WhatsappProcessWrite.sol\":3701:3730  maxNumberOfOperationByTime_C1 */\n  0x0f\n    /* \"contracts/study-case-contracts/004-whatsapp/WhatsappProcessWrite.sol\":3736:3790  EAI.createMaxNumberOfOperationByTime(10000, EAI.MONTH) */\n  tag_42\n    /* \"contracts/study-case-contracts/004-whatsapp/WhatsappProcessWrite.sol\":3773:3778  10000 */\n  0x2710\n    /* \"contracts/lib/eai/EAI.sol\":902:903  5 */\n  0x05\n    /* \"contracts/study-case-contracts/004-whatsapp/WhatsappProcessWrite.sol\":3736:3772  EAI.createMaxNumberOfOperationByTime */\n  or(tag_0_40, shl(0x20, tag_43))\n    /* \"contracts/study-case-contracts/004-whatsapp/WhatsappProcessWrite.sol\":3736:3790  EAI.createMaxNumberOfOperationByTime(10000, EAI.MONTH) */\n  0x20\n  shr\n  jump\t// in\ntag_42:\n    /* \"contracts/study-case-contracts/004-whatsapp/WhatsappProcessWrite.sol\":3701:3791  maxNumberOfOperationByTime_C1.push(EAI.createMaxNumberOfOperationByTime(10000, EAI.MONTH)) */\n  swap1\n  dup1\n  0x01\n  dup2\n  sload\n  add\n  dup1\n  dup3\n  sstore\n  dup1\n  swap2\n  pop\n  pop\n  0x01\n  swap1\n  sub\n  swap1\n  0x00\n  mstore\n  keccak256(0x00, 0x20)\n  add\n  0x00\n  swap1\n  swap2\n  swap1\n  swap2\n  swap1\n  swap2\n  pop\n  0x00\n  dup3\n  add\n  mload\n  dup2\n  0x00\n  add\n  exp(0x0100, 0x00)\n  dup2\n  sload\n  dup2\n  0xffffffff\n  mul\n  not\n  and\n  swap1\n  dup4\n  0xffffffff\n  and\n  mul\n  or\n  swap1\n  sstore\n  pop\n  0x20\n  dup3\n  add\n  mload\n  dup2\n  0x00\n  add\n  exp(0x0100, 0x04)\n  dup2\n  sload\n  dup2\n  0xff\n  mul\n  not\n  and\n  swap1\n  dup4\n  0xff\n  and\n  mul\n  or\n  swap1\n  sstore\n  pop\n  0x40\n  dup3\n  add\n  mload\n  dup2\n  0x00\n  add\n  exp(0x0100, 0x05)\n  dup2\n  sload\n  dup2\n  0xffffffff\n  mul\n  not\n  and\n  swap1\n  dup4\n  0xffffffff\n  and\n  mul\n  or\n  swap1\n  sstore\n  pop\n  0x60\n  dup3\n  add\n  mload\n  dup2\n  0x00\n  add\n  exp(0x0100, 0x09)\n  dup2\n  sload\n  dup2\n  0xffffffff\n  mul\n  not\n  and\n  swap1\n  dup4\n  0xffffffff\n  and\n  mul\n  or\n  swap1\n  sstore\n  pop\n  0x80\n  dup3\n  add\n  mload\n  dup2\n  0x00\n  add\n  exp(0x0100, 0x0d)\n  dup2\n  sload\n  dup2\n  0xffffffff\n  mul\n  not\n  and\n  swap1\n  dup4\n  0xffffffff\n  and\n  mul\n  or\n  swap1\n  sstore\n  pop\n  pop\n  pop\n    /* \"contracts/study-case-contracts/004-whatsapp/WhatsappProcessWrite.sol\":2473:3798  constructor(address _applicationWallet){... */\n  pop\n    /* \"contracts/study-case-contracts/004-whatsapp/WhatsappProcessWrite.sol\":190:7823  contract WhatsappProcessWrite {... */\n  jump(tag_45)\n    /* \"contracts/lib/eai/EAI.sol\":1676:1852  function createParty(string memory _name, address _walletAddress, bool _aware) internal pure returns(Party memory){... */\ntag_7:\n    /* \"contracts/lib/eai/EAI.sol\":1777:1789  Party memory */\n  tag_46\n  tag_47\n  jump\t// in\ntag_46:\n    /* \"contracts/lib/eai/EAI.sol\":1808:1844  Party(_name, _walletAddress, _aware) */\n  mload(0x40)\n  dup1\n  0x60\n  add\n  0x40\n  mstore\n  dup1\n    /* \"contracts/lib/eai/EAI.sol\":1814:1819  _name */\n  dup6\n    /* \"contracts/lib/eai/EAI.sol\":1808:1844  Party(_name, _walletAddress, _aware) */\n  dup2\n  mstore\n  0x20\n  add\n    /* \"contracts/lib/eai/EAI.sol\":1821:1835  _walletAddress */\n  dup5\n    /* \"contracts/lib/eai/EAI.sol\":1808:1844  Party(_name, _walletAddress, _aware) */\n  0xffffffffffffffffffffffffffffffffffffffff\n  and\n  dup2\n  mstore\n  0x20\n  add\n    /* \"contracts/lib/eai/EAI.sol\":1837:1843  _aware */\n  dup4\n    /* \"contracts/lib/eai/EAI.sol\":1808:1844  Party(_name, _walletAddress, _aware) */\n  iszero\n  iszero\n  dup2\n  mstore\n  pop\n    /* \"contracts/lib/eai/EAI.sol\":1801:1844  return Party(_name, _walletAddress, _aware) */\n  swap1\n  pop\n    /* \"contracts/lib/eai/EAI.sol\":1676:1852  function createParty(string memory _name, address _walletAddress, bool _aware) internal pure returns(Party memory){... */\n  swap4\n  swap3\n  pop\n  pop\n  pop\n  jump\t// out\n    /* \"contracts/lib/eai/EAI.sol\":2896:3116  function createWeekDaysInterval(... */\ntag_19:\n    /* \"contracts/lib/eai/EAI.sol\":3036:3059  WeekDaysInterval memory */\n  tag_49\n  tag_50\n  jump\t// in\ntag_49:\n    /* \"contracts/lib/eai/EAI.sol\":3012:3018  _start */\n  dup3\n    /* \"contracts/lib/eai/EAI.sol\":3020:3024  _end */\n  dup3\n    /* \"contracts/lib/eai/EAI.sol\":519:520  0 */\n  0x00\n    /* \"contracts/lib/eai/EAI.sol\":5041:5060  _startDay >= SUNDAY */\n  0xff\n  and\n    /* \"contracts/lib/eai/EAI.sol\":5041:5050  _startDay */\n  dup3\n    /* \"contracts/lib/eai/EAI.sol\":5041:5060  _startDay >= SUNDAY */\n  0xff\n  and\n  lt\n  iszero\n    /* \"contracts/lib/eai/EAI.sol\":5041:5085  _startDay >= SUNDAY && _startDay <= SATURDAY */\n  dup1\n  iszero\n  tag_52\n  jumpi\n  pop\n    /* \"contracts/lib/eai/EAI.sol\":707:708  6 */\n  0x06\n    /* \"contracts/lib/eai/EAI.sol\":5064:5085  _startDay <= SATURDAY */\n  0xff\n  and\n    /* \"contracts/lib/eai/EAI.sol\":5064:5073  _startDay */\n  dup3\n    /* \"contracts/lib/eai/EAI.sol\":5064:5085  _startDay <= SATURDAY */\n  0xff\n  and\n  gt\n  iszero\n    /* \"contracts/lib/eai/EAI.sol\":5041:5085  _startDay >= SUNDAY && _startDay <= SATURDAY */\ntag_52:\n    /* \"contracts/lib/eai/EAI.sol\":5032:5130  require( _startDay >= SUNDAY && _startDay <= SATURDAY, \"The _startDay not represents a valid day\") */\n  tag_53\n  jumpi\n  mload(0x40)\n  0x08c379a000000000000000000000000000000000000000000000000000000000\n  dup2\n  mstore\n  0x04\n  add\n  tag_54\n  swap1\n  tag_55\n  jump\t// in\ntag_54:\n  mload(0x40)\n  dup1\n  swap2\n  sub\n  swap1\n  revert\ntag_53:\n    /* \"contracts/lib/eai/EAI.sol\":519:520  0 */\n  0x00\n    /* \"contracts/lib/eai/EAI.sol\":5149:5166  _endDay >= SUNDAY */\n  0xff\n  and\n    /* \"contracts/lib/eai/EAI.sol\":5149:5156  _endDay */\n  dup2\n    /* \"contracts/lib/eai/EAI.sol\":5149:5166  _endDay >= SUNDAY */\n  0xff\n  and\n  lt\n  iszero\n    /* \"contracts/lib/eai/EAI.sol\":5149:5189  _endDay >= SUNDAY && _endDay <= SATURDAY */\n  dup1\n  iszero\n  tag_56\n  jumpi\n  pop\n    /* \"contracts/lib/eai/EAI.sol\":707:708  6 */\n  0x06\n    /* \"contracts/lib/eai/EAI.sol\":5170:5189  _endDay <= SATURDAY */\n  0xff\n  and\n    /* \"contracts/lib/eai/EAI.sol\":5170:5177  _endDay */\n  dup2\n    /* \"contracts/lib/eai/EAI.sol\":5170:5189  _endDay <= SATURDAY */\n  0xff\n  and\n  gt\n  iszero\n    /* \"contracts/lib/eai/EAI.sol\":5149:5189  _endDay >= SUNDAY && _endDay <= SATURDAY */\ntag_56:\n    /* \"contracts/lib/eai/EAI.sol\":5141:5233  require(_endDay >= SUNDAY && _endDay <= SATURDAY,  \"The _endDay not represents a valid day\") */\n  tag_57\n  jumpi\n  mload(0x40)\n  0x08c379a000000000000000000000000000000000000000000000000000000000\n  dup2\n  mstore\n  0x04\n  add\n  tag_58\n  swap1\n  tag_59\n  jump\t// in\ntag_58:\n  mload(0x40)\n  dup1\n  swap2\n  sub\n  swap1\n  revert\ntag_57:\n    /* \"contracts/lib/eai/EAI.sol\":3078:3108  WeekDaysInterval(_start, _end) */\n  mload(0x40)\n  dup1\n  0x40\n  add\n  0x40\n  mstore\n  dup1\n    /* \"contracts/lib/eai/EAI.sol\":3095:3101  _start */\n  dup7\n    /* \"contracts/lib/eai/EAI.sol\":3078:3108  WeekDaysInterval(_start, _end) */\n  0xff\n  and\n  dup2\n  mstore\n  0x20\n  add\n    /* \"contracts/lib/eai/EAI.sol\":3103:3107  _end */\n  dup6\n    /* \"contracts/lib/eai/EAI.sol\":3078:3108  WeekDaysInterval(_start, _end) */\n  0xff\n  and\n  dup2\n  mstore\n  pop\n    /* \"contracts/lib/eai/EAI.sol\":3071:3108  return WeekDaysInterval(_start, _end) */\n  swap3\n  pop\n    /* \"contracts/lib/eai/EAI.sol\":2896:3116  function createWeekDaysInterval(... */\n  pop\n  pop\n  swap3\n  swap2\n  pop\n  pop\n  jump\t// out\n    /* \"contracts/lib/eai/EAI.sol\":23408:23794  function createSessionInteval(uint8 _duration, uint8 _timeUnit, string memory _xpath)internal pure returns (SessionInterval memory){... */\ntag_22:\n    /* \"contracts/lib/eai/EAI.sol\":23516:23538  SessionInterval memory */\n  tag_61\n  tag_62\n  jump\t// in\ntag_61:\n    /* \"contracts/lib/eai/EAI.sol\":23550:23575  uint32 _durationInSeconds */\n  0x00\n    /* \"contracts/lib/eai/EAI.sol\":872:873  4 */\n  0x04\n    /* \"contracts/lib/eai/EAI.sol\":23593:23610  _timeUnit <= WEEK */\n  0xff\n  and\n    /* \"contracts/lib/eai/EAI.sol\":23593:23602  _timeUnit */\n  dup5\n    /* \"contracts/lib/eai/EAI.sol\":23593:23610  _timeUnit <= WEEK */\n  0xff\n  and\n  gt\n    /* \"contracts/lib/eai/EAI.sol\":23590:23701  if(_timeUnit <= WEEK){... */\n  tag_64\n  jumpi\n    /* \"contracts/lib/eai/EAI.sol\":23647:23689  getIntervalInSeconds(_duration, _timeUnit) */\n  tag_65\n    /* \"contracts/lib/eai/EAI.sol\":23668:23677  _duration */\n  dup6\n    /* \"contracts/lib/eai/EAI.sol\":23647:23689  getIntervalInSeconds(_duration, _timeUnit) */\n  0xff\n  and\n    /* \"contracts/lib/eai/EAI.sol\":23679:23688  _timeUnit */\n  dup6\n    /* \"contracts/lib/eai/EAI.sol\":23647:23667  getIntervalInSeconds */\n  shl(0x20, tag_66)\n    /* \"contracts/lib/eai/EAI.sol\":23647:23689  getIntervalInSeconds(_duration, _timeUnit) */\n  0x20\n  shr\n  jump\t// in\ntag_65:\n    /* \"contracts/lib/eai/EAI.sol\":23626:23689  _durationInSeconds = getIntervalInSeconds(_duration, _timeUnit) */\n  swap1\n  pop\n    /* \"contracts/lib/eai/EAI.sol\":23590:23701  if(_timeUnit <= WEEK){... */\ntag_64:\n    /* \"contracts/lib/eai/EAI.sol\":23718:23786  SessionInterval(_duration, _timeUnit, _durationInSeconds, _xpath, 0) */\n  mload(0x40)\n  dup1\n  0xa0\n  add\n  0x40\n  mstore\n  dup1\n    /* \"contracts/lib/eai/EAI.sol\":23734:23743  _duration */\n  dup7\n    /* \"contracts/lib/eai/EAI.sol\":23718:23786  SessionInterval(_duration, _timeUnit, _durationInSeconds, _xpath, 0) */\n  0xff\n  and\n  dup2\n  mstore\n  0x20\n  add\n    /* \"contracts/lib/eai/EAI.sol\":23745:23754  _timeUnit */\n  dup6\n    /* \"contracts/lib/eai/EAI.sol\":23718:23786  SessionInterval(_duration, _timeUnit, _durationInSeconds, _xpath, 0) */\n  0xff\n  and\n  dup2\n  mstore\n  0x20\n  add\n    /* \"contracts/lib/eai/EAI.sol\":23756:23774  _durationInSeconds */\n  dup3\n    /* \"contracts/lib/eai/EAI.sol\":23718:23786  SessionInterval(_duration, _timeUnit, _durationInSeconds, _xpath, 0) */\n  0xffffffff\n  and\n  dup2\n  mstore\n  0x20\n  add\n    /* \"contracts/lib/eai/EAI.sol\":23776:23782  _xpath */\n  dup5\n    /* \"contracts/lib/eai/EAI.sol\":23718:23786  SessionInterval(_duration, _timeUnit, _durationInSeconds, _xpath, 0) */\n  dup2\n  mstore\n  0x20\n  add\n    /* \"contracts/lib/eai/EAI.sol\":23784:23785  0 */\n  0x00\n    /* \"contracts/lib/eai/EAI.sol\":23718:23786  SessionInterval(_duration, _timeUnit, _durationInSeconds, _xpath, 0) */\n  0xffffffff\n  and\n  dup2\n  mstore\n  pop\n    /* \"contracts/lib/eai/EAI.sol\":23711:23786  return SessionInterval(_duration, _timeUnit, _durationInSeconds, _xpath, 0) */\n  swap2\n  pop\n  pop\n    /* \"contracts/lib/eai/EAI.sol\":23408:23794  function createSessionInteval(uint8 _duration, uint8 _timeUnit, string memory _xpath)internal pure returns (SessionInterval memory){... */\n  swap4\n  swap3\n  pop\n  pop\n  pop\n  jump\t// out\n    /* \"contracts/lib/eai/EAI.sol\":14612:14807  function createMessageContent_onlyXPath_String(string memory _xpath) internal pure returns(MessageContent_onlyXPath_String memory){... */\ntag_39:\n    /* \"contracts/lib/eai/EAI.sol\":14703:14741  MessageContent_onlyXPath_String memory */\n  tag_67\n  tag_68\n  jump\t// in\ntag_67:\n    /* \"contracts/lib/eai/EAI.sol\":14760:14799  MessageContent_onlyXPath_String(_xpath) */\n  mload(0x40)\n  dup1\n  0x20\n  add\n  0x40\n  mstore\n  dup1\n    /* \"contracts/lib/eai/EAI.sol\":14792:14798  _xpath */\n  dup4\n    /* \"contracts/lib/eai/EAI.sol\":14760:14799  MessageContent_onlyXPath_String(_xpath) */\n  dup2\n  mstore\n  pop\n    /* \"contracts/lib/eai/EAI.sol\":14753:14799  return MessageContent_onlyXPath_String(_xpath) */\n  swap1\n  pop\n    /* \"contracts/lib/eai/EAI.sol\":14612:14807  function createMessageContent_onlyXPath_String(string memory _xpath) internal pure returns(MessageContent_onlyXPath_String memory){... */\n  swap2\n  swap1\n  pop\n  jump\t// out\n    /* \"contracts/lib/eai/EAI.sol\":11004:11635  function createMaxNumberOfOperationByTime(... */\ntag_43:\n    /* \"contracts/lib/eai/EAI.sol\":11129:11162  MaxNumberOfOperationByTime memory */\n  tag_70\n  tag_71\n  jump\t// in\ntag_70:\n    /* \"contracts/lib/eai/EAI.sol\":11176:11192  uint32 auxByTime */\n  0x00\n    /* \"contracts/lib/eai/EAI.sol\":872:873  4 */\n  0x04\n    /* \"contracts/lib/eai/EAI.sol\":11208:11225  _timeUnit <= WEEK */\n  0xff\n  and\n    /* \"contracts/lib/eai/EAI.sol\":11208:11217  _timeUnit */\n  dup4\n    /* \"contracts/lib/eai/EAI.sol\":11208:11225  _timeUnit <= WEEK */\n  0xff\n  and\n  gt\n    /* \"contracts/lib/eai/EAI.sol\":11205:11541  if(_timeUnit <= WEEK){... */\n  tag_73\n  jumpi\n    /* \"contracts/lib/eai/EAI.sol\":11358:11385  getTimeInSeconds(_timeUnit) */\n  tag_74\n    /* \"contracts/lib/eai/EAI.sol\":11375:11384  _timeUnit */\n  dup4\n    /* \"contracts/lib/eai/EAI.sol\":11358:11374  getTimeInSeconds */\n  shl(0x20, tag_75)\n    /* \"contracts/lib/eai/EAI.sol\":11358:11385  getTimeInSeconds(_timeUnit) */\n  0x20\n  shr\n  jump\t// in\ntag_74:\n    /* \"contracts/lib/eai/EAI.sol\":11347:11385  auxByTime= getTimeInSeconds(_timeUnit) */\n  swap1\n  pop\n    /* \"contracts/lib/eai/EAI.sol\":11205:11541  if(_timeUnit <= WEEK){... */\n  jump(tag_76)\ntag_73:\n    /* \"contracts/lib/eai/EAI.sol\":11527:11528  1 */\n  0x01\n    /* \"contracts/lib/eai/EAI.sol\":11515:11528  auxByTime = 1 */\n  swap1\n  pop\n    /* \"contracts/lib/eai/EAI.sol\":11205:11541  if(_timeUnit <= WEEK){... */\ntag_76:\n    /* \"contracts/lib/eai/EAI.sol\":11558:11627  MaxNumberOfOperationByTime(_amount, _timeUnit, auxByTime, _amount, 0) */\n  mload(0x40)\n  dup1\n  0xa0\n  add\n  0x40\n  mstore\n  dup1\n    /* \"contracts/lib/eai/EAI.sol\":11585:11592  _amount */\n  dup6\n    /* \"contracts/lib/eai/EAI.sol\":11558:11627  MaxNumberOfOperationByTime(_amount, _timeUnit, auxByTime, _amount, 0) */\n  0xffffffff\n  and\n  dup2\n  mstore\n  0x20\n  add\n    /* \"contracts/lib/eai/EAI.sol\":11594:11603  _timeUnit */\n  dup5\n    /* \"contracts/lib/eai/EAI.sol\":11558:11627  MaxNumberOfOperationByTime(_amount, _timeUnit, auxByTime, _amount, 0) */\n  0xff\n  and\n  dup2\n  mstore\n  0x20\n  add\n    /* \"contracts/lib/eai/EAI.sol\":11605:11614  auxByTime */\n  dup3\n    /* \"contracts/lib/eai/EAI.sol\":11558:11627  MaxNumberOfOperationByTime(_amount, _timeUnit, auxByTime, _amount, 0) */\n  0xffffffff\n  and\n  dup2\n  mstore\n  0x20\n  add\n    /* \"contracts/lib/eai/EAI.sol\":11616:11623  _amount */\n  dup6\n    /* \"contracts/lib/eai/EAI.sol\":11558:11627  MaxNumberOfOperationByTime(_amount, _timeUnit, auxByTime, _amount, 0) */\n  0xffffffff\n  and\n  dup2\n  mstore\n  0x20\n  add\n    /* \"contracts/lib/eai/EAI.sol\":11625:11626  0 */\n  0x00\n    /* \"contracts/lib/eai/EAI.sol\":11558:11627  MaxNumberOfOperationByTime(_amount, _timeUnit, auxByTime, _amount, 0) */\n  0xffffffff\n  and\n  dup2\n  mstore\n  pop\n    /* \"contracts/lib/eai/EAI.sol\":11551:11627  return MaxNumberOfOperationByTime(_amount, _timeUnit, auxByTime, _amount, 0) */\n  swap2\n  pop\n  pop\n    /* \"contracts/lib/eai/EAI.sol\":11004:11635  function createMaxNumberOfOperationByTime(... */\n  swap3\n  swap2\n  pop\n  pop\n  jump\t// out\n    /* \"contracts/lib/eai/EAI.sol\":27749:27961  function getIntervalInSeconds(uint32 _duration, uint8 _timeUnit)internal pure returns(uint32){... */\ntag_66:\n    /* \"contracts/lib/eai/EAI.sol\":27835:27841  uint32 */\n  0x00\n    /* \"contracts/lib/eai/EAI.sol\":27852:27876  uint32 timeUnitInSeconds */\n  dup1\n    /* \"contracts/lib/eai/EAI.sol\":27880:27907  getTimeInSeconds(_timeUnit) */\n  tag_78\n    /* \"contracts/lib/eai/EAI.sol\":27897:27906  _timeUnit */\n  dup4\n    /* \"contracts/lib/eai/EAI.sol\":27880:27896  getTimeInSeconds */\n  shl(0x20, tag_75)\n    /* \"contracts/lib/eai/EAI.sol\":27880:27907  getTimeInSeconds(_timeUnit) */\n  0x20\n  shr\n  jump\t// in\ntag_78:\n    /* \"contracts/lib/eai/EAI.sol\":27852:27907  uint32 timeUnitInSeconds =  getTimeInSeconds(_timeUnit) */\n  swap1\n  pop\n    /* \"contracts/lib/eai/EAI.sol\":27936:27953  timeUnitInSeconds */\n  dup1\n    /* \"contracts/lib/eai/EAI.sol\":27924:27933  _duration */\n  dup5\n    /* \"contracts/lib/eai/EAI.sol\":27924:27953  _duration * timeUnitInSeconds */\n  tag_79\n  swap2\n  swap1\n  tag_80\n  jump\t// in\ntag_79:\n    /* \"contracts/lib/eai/EAI.sol\":27917:27953  return _duration * timeUnitInSeconds */\n  swap2\n  pop\n  pop\n    /* \"contracts/lib/eai/EAI.sol\":27749:27961  function getIntervalInSeconds(uint32 _duration, uint8 _timeUnit)internal pure returns(uint32){... */\n  swap3\n  swap2\n  pop\n  pop\n  jump\t// out\n    /* \"contracts/lib/eai/EAI.sol\":27184:27733  function getTimeInSeconds(uint8 timeUnit) private pure returns(uint32){... */\ntag_75:\n    /* \"contracts/lib/eai/EAI.sol\":27247:27253  uint32 */\n  0x00\n    /* \"contracts/lib/eai/EAI.sol\":872:873  4 */\n  0x04\n    /* \"contracts/lib/eai/EAI.sol\":27327:27343  timeUnit <= WEEK */\n  0xff\n  and\n    /* \"contracts/lib/eai/EAI.sol\":27327:27335  timeUnit */\n  dup3\n    /* \"contracts/lib/eai/EAI.sol\":27327:27343  timeUnit <= WEEK */\n  0xff\n  and\n  gt\n  iszero\n    /* \"contracts/lib/eai/EAI.sol\":27319:27407  require(timeUnit <= WEEK, \"The method getTimeInSeconds doesn't work for MONTH and YEAR\") */\n  tag_82\n  jumpi\n  mload(0x40)\n  0x08c379a000000000000000000000000000000000000000000000000000000000\n  dup2\n  mstore\n  0x04\n  add\n  tag_83\n  swap1\n  tag_84\n  jump\t// in\ntag_83:\n  mload(0x40)\n  dup1\n  swap2\n  sub\n  swap1\n  revert\ntag_82:\n    /* \"contracts/lib/eai/EAI.sol\":754:755  0 */\n  0x00\n    /* \"contracts/lib/eai/EAI.sol\":27423:27441  timeUnit == SECOND */\n  0xff\n  and\n    /* \"contracts/lib/eai/EAI.sol\":27423:27431  timeUnit */\n  dup3\n    /* \"contracts/lib/eai/EAI.sol\":27423:27441  timeUnit == SECOND */\n  0xff\n  and\n  sub\n    /* \"contracts/lib/eai/EAI.sol\":27420:27726  if(timeUnit == SECOND){... */\n  tag_85\n  jumpi\n    /* \"contracts/lib/eai/EAI.sol\":27464:27465  1 */\n  0x01\n    /* \"contracts/lib/eai/EAI.sol\":27457:27465  return 1 */\n  swap1\n  pop\n  jump(tag_81)\n    /* \"contracts/lib/eai/EAI.sol\":27420:27726  if(timeUnit == SECOND){... */\ntag_85:\n    /* \"contracts/lib/eai/EAI.sol\":786:787  1 */\n  0x01\n    /* \"contracts/lib/eai/EAI.sol\":27485:27503  timeUnit == MINUTE */\n  0xff\n  and\n    /* \"contracts/lib/eai/EAI.sol\":27485:27493  timeUnit */\n  dup3\n    /* \"contracts/lib/eai/EAI.sol\":27485:27503  timeUnit == MINUTE */\n  0xff\n  and\n  sub\n    /* \"contracts/lib/eai/EAI.sol\":27482:27726  if(timeUnit == MINUTE){... */\n  tag_87\n  jumpi\n    /* \"contracts/lib/eai/EAI.sol\":27526:27528  60 */\n  0x3c\n    /* \"contracts/lib/eai/EAI.sol\":27519:27528  return 60 */\n  swap1\n  pop\n  jump(tag_81)\n    /* \"contracts/lib/eai/EAI.sol\":27482:27726  if(timeUnit == MINUTE){... */\ntag_87:\n    /* \"contracts/lib/eai/EAI.sol\":815:816  2 */\n  0x02\n    /* \"contracts/lib/eai/EAI.sol\":27548:27564  timeUnit == HOUR */\n  0xff\n  and\n    /* \"contracts/lib/eai/EAI.sol\":27548:27556  timeUnit */\n  dup3\n    /* \"contracts/lib/eai/EAI.sol\":27548:27564  timeUnit == HOUR */\n  0xff\n  and\n  sub\n    /* \"contracts/lib/eai/EAI.sol\":27545:27726  if(timeUnit == HOUR ){... */\n  tag_89\n  jumpi\n    /* \"contracts/lib/eai/EAI.sol\":27588:27593  60*60 */\n  0x0e10\n    /* \"contracts/lib/eai/EAI.sol\":27581:27593  return 60*60 */\n  swap1\n  pop\n  jump(tag_81)\n    /* \"contracts/lib/eai/EAI.sol\":27545:27726  if(timeUnit == HOUR ){... */\ntag_89:\n    /* \"contracts/lib/eai/EAI.sol\":843:844  3 */\n  0x03\n    /* \"contracts/lib/eai/EAI.sol\":27613:27628  timeUnit == DAY */\n  0xff\n  and\n    /* \"contracts/lib/eai/EAI.sol\":27613:27621  timeUnit */\n  dup3\n    /* \"contracts/lib/eai/EAI.sol\":27613:27628  timeUnit == DAY */\n  0xff\n  and\n  sub\n    /* \"contracts/lib/eai/EAI.sol\":27610:27726  if(timeUnit == DAY){... */\n  tag_91\n  jumpi\n    /* \"contracts/lib/eai/EAI.sol\":27651:27659  60*60*24 */\n  0x015180\n    /* \"contracts/lib/eai/EAI.sol\":27644:27659  return 60*60*24 */\n  swap1\n  pop\n  jump(tag_81)\n    /* \"contracts/lib/eai/EAI.sol\":27610:27726  if(timeUnit == DAY){... */\ntag_91:\n    /* \"contracts/lib/eai/EAI.sol\":27697:27707  60*60*24*7 */\n  0x093a80\n    /* \"contracts/lib/eai/EAI.sol\":27690:27707  return 60*60*24*7 */\n  swap1\n  pop\n    /* \"contracts/lib/eai/EAI.sol\":27184:27733  function getTimeInSeconds(uint8 timeUnit) private pure returns(uint32){... */\ntag_81:\n  swap2\n  swap1\n  pop\n  jump\t// out\n    /* \"contracts/study-case-contracts/004-whatsapp/WhatsappProcessWrite.sol\":190:7823  contract WhatsappProcessWrite {... */\ntag_9:\n  dup3\n  dup1\n  sload\n  tag_93\n  swap1\n  tag_13\n  jump\t// in\ntag_93:\n  swap1\n  0x00\n  mstore\n  keccak256(0x00, 0x20)\n  swap1\n  0x1f\n  add\n  0x20\n  swap1\n  div\n  dup2\n  add\n  swap3\n  dup3\n  tag_95\n  jumpi\n  0x00\n  dup6\n  sstore\n  jump(tag_94)\ntag_95:\n  dup3\n  0x1f\n  lt\n  tag_96\n  jumpi\n  dup1\n  mload\n  not(0xff)\n  and\n  dup4\n  dup1\n  add\n  or\n  dup6\n  sstore\n  jump(tag_94)\ntag_96:\n  dup3\n  dup1\n  add\n  0x01\n  add\n  dup6\n  sstore\n  dup3\n  iszero\n  tag_94\n  jumpi\n  swap2\n  dup3\n  add\ntag_97:\n  dup3\n  dup2\n  gt\n  iszero\n  tag_98\n  jumpi\n  dup3\n  mload\n  dup3\n  sstore\n  swap2\n  0x20\n  add\n  swap2\n  swap1\n  0x01\n  add\n  swap1\n  jump(tag_97)\ntag_98:\ntag_94:\n  pop\n  swap1\n  pop\n  tag_99\n  swap2\n  swap1\n  tag_100\n  jump\t// in\ntag_99:\n  pop\n  swap1\n  jump\t// out\ntag_15:\n  dup3\n  dup1\n  sload\n  tag_101\n  swap1\n  tag_13\n  jump\t// in\ntag_101:\n  swap1\n  0x00\n  mstore\n  keccak256(0x00, 0x20)\n  swap1\n  0x1f\n  add\n  0x20\n  swap1\n  div\n  dup2\n  add\n  swap3\n  dup3\n  tag_103\n  jumpi\n  0x00\n  dup6\n  sstore\n  jump(tag_102)\ntag_103:\n  dup3\n  0x1f\n  lt\n  tag_104\n  jumpi\n  dup1\n  sload\n  dup6\n  sstore\n  jump(tag_102)\ntag_104:\n  dup3\n  dup1\n  add\n  0x01\n  add\n  dup6\n  sstore\n  dup3\n  iszero\n  tag_102\n  jumpi\n  0x00\n  mstore\n  keccak256(0x00, 0x20)\n  swap2\n  0x1f\n  add\n  0x20\n  swap1\n  div\n  dup3\n  add\ntag_105:\n  dup3\n  dup2\n  gt\n  iszero\n  tag_106\n  jumpi\n  dup3\n  sload\n  dup3\n  sstore\n  swap2\n  0x01\n  add\n  swap2\n  swap1\n  0x01\n  add\n  swap1\n  jump(tag_105)\ntag_106:\ntag_102:\n  pop\n  swap1\n  pop\n  tag_107\n  swap2\n  swap1\n  tag_100\n  jump\t// in\ntag_107:\n  pop\n  swap1\n  jump\t// out\ntag_32:\n  dup3\n  dup1\n  sload\n  tag_108\n  swap1\n  tag_13\n  jump\t// in\ntag_108:\n  swap1\n  0x00\n  mstore\n  keccak256(0x00, 0x20)\n  swap1\n  0x1f\n  add\n  0x20\n  swap1\n  div\n  dup2\n  add\n  swap3\n  dup3\n  tag_110\n  jumpi\n  0x00\n  dup6\n  sstore\n  jump(tag_109)\ntag_110:\n  dup3\n  0x1f\n  lt\n  tag_111\n  jumpi\n  dup1\n  sload\n  dup6\n  sstore\n  jump(tag_109)\ntag_111:\n  dup3\n  dup1\n  add\n  0x01\n  add\n  dup6\n  sstore\n  dup3\n  iszero\n  tag_109\n  jumpi\n  0x00\n  mstore\n  keccak256(0x00, 0x20)\n  swap2\n  0x1f\n  add\n  0x20\n  swap1\n  div\n  dup3\n  add\ntag_112:\n  dup3\n  dup2\n  gt\n  iszero\n  tag_113\n  jumpi\n  dup3\n  sload\n  dup3\n  sstore\n  swap2\n  0x01\n  add\n  swap2\n  swap1\n  0x01\n  add\n  swap1\n  jump(tag_112)\ntag_113:\ntag_109:\n  pop\n  swap1\n  pop\n  tag_114\n  swap2\n  swap1\n  tag_100\n  jump\t// in\ntag_114:\n  pop\n  swap1\n  jump\t// out\ntag_47:\n  mload(0x40)\n  dup1\n  0x60\n  add\n  0x40\n  mstore\n  dup1\n  0x60\n  dup2\n  mstore\n  0x20\n  add\n  and(0xffffffffffffffffffffffffffffffffffffffff, 0x00)\n  dup2\n  mstore\n  0x20\n  add\n  iszero(iszero(0x00))\n  dup2\n  mstore\n  pop\n  swap1\n  jump\t// out\ntag_50:\n  mload(0x40)\n  dup1\n  0x40\n  add\n  0x40\n  mstore\n  dup1\n  and(0xff, 0x00)\n  dup2\n  mstore\n  0x20\n  add\n  and(0xff, 0x00)\n  dup2\n  mstore\n  pop\n  swap1\n  jump\t// out\ntag_62:\n  mload(0x40)\n  dup1\n  0xa0\n  add\n  0x40\n  mstore\n  dup1\n  and(0xff, 0x00)\n  dup2\n  mstore\n  0x20\n  add\n  and(0xff, 0x00)\n  dup2\n  mstore\n  0x20\n  add\n  and(0xffffffff, 0x00)\n  dup2\n  mstore\n  0x20\n  add\n  0x60\n  dup2\n  mstore\n  0x20\n  add\n  and(0xffffffff, 0x00)\n  dup2\n  mstore\n  pop\n  swap1\n  jump\t// out\ntag_68:\n  mload(0x40)\n  dup1\n  0x20\n  add\n  0x40\n  mstore\n  dup1\n  0x60\n  dup2\n  mstore\n  pop\n  swap1\n  jump\t// out\ntag_71:\n  mload(0x40)\n  dup1\n  0xa0\n  add\n  0x40\n  mstore\n  dup1\n  and(0xffffffff, 0x00)\n  dup2\n  mstore\n  0x20\n  add\n  and(0xff, 0x00)\n  dup2\n  mstore\n  0x20\n  add\n  and(0xffffffff, 0x00)\n  dup2\n  mstore\n  0x20\n  add\n  and(0xffffffff, 0x00)\n  dup2\n  mstore\n  0x20\n  add\n  and(0xffffffff, 0x00)\n  dup2\n  mstore\n  pop\n  swap1\n  jump\t// out\ntag_100:\ntag_115:\n  dup1\n  dup3\n  gt\n  iszero\n  tag_116\n  jumpi\n  0x00\n  dup2\n  0x00\n  swap1\n  sstore\n  pop\n  0x01\n  add\n  jump(tag_115)\ntag_116:\n  pop\n  swap1\n  jump\t// out\n    /* \"#utility.yul\":88:205   */\ntag_118:\n    /* \"#utility.yul\":197:198   */\n  0x00\n    /* \"#utility.yul\":194:195   */\n  dup1\n    /* \"#utility.yul\":187:199   */\n  revert\n    /* \"#utility.yul\":334:460   */\ntag_120:\n    /* \"#utility.yul\":371:378   */\n  0x00\n    /* \"#utility.yul\":411:453   */\n  0xffffffffffffffffffffffffffffffffffffffff\n    /* \"#utility.yul\":404:409   */\n  dup3\n    /* \"#utility.yul\":400:454   */\n  and\n    /* \"#utility.yul\":389:454   */\n  swap1\n  pop\n    /* \"#utility.yul\":334:460   */\n  swap2\n  swap1\n  pop\n  jump\t// out\n    /* \"#utility.yul\":466:562   */\ntag_121:\n    /* \"#utility.yul\":503:510   */\n  0x00\n    /* \"#utility.yul\":532:556   */\n  tag_143\n    /* \"#utility.yul\":550:555   */\n  dup3\n    /* \"#utility.yul\":532:556   */\n  tag_120\n  jump\t// in\ntag_143:\n    /* \"#utility.yul\":521:556   */\n  swap1\n  pop\n    /* \"#utility.yul\":466:562   */\n  swap2\n  swap1\n  pop\n  jump\t// out\n    /* \"#utility.yul\":568:690   */\ntag_122:\n    /* \"#utility.yul\":641:665   */\n  tag_145\n    /* \"#utility.yul\":659:664   */\n  dup2\n    /* \"#utility.yul\":641:665   */\n  tag_121\n  jump\t// in\ntag_145:\n    /* \"#utility.yul\":634:639   */\n  dup2\n    /* \"#utility.yul\":631:666   */\n  eq\n    /* \"#utility.yul\":621:684   */\n  tag_146\n  jumpi\n    /* \"#utility.yul\":680:681   */\n  0x00\n    /* \"#utility.yul\":677:678   */\n  dup1\n    /* \"#utility.yul\":670:682   */\n  revert\n    /* \"#utility.yul\":621:684   */\ntag_146:\n    /* \"#utility.yul\":568:690   */\n  pop\n  jump\t// out\n    /* \"#utility.yul\":696:839   */\ntag_123:\n    /* \"#utility.yul\":753:758   */\n  0x00\n    /* \"#utility.yul\":784:790   */\n  dup2\n    /* \"#utility.yul\":778:791   */\n  mload\n    /* \"#utility.yul\":769:791   */\n  swap1\n  pop\n    /* \"#utility.yul\":800:833   */\n  tag_148\n    /* \"#utility.yul\":827:832   */\n  dup2\n    /* \"#utility.yul\":800:833   */\n  tag_122\n  jump\t// in\ntag_148:\n    /* \"#utility.yul\":696:839   */\n  swap3\n  swap2\n  pop\n  pop\n  jump\t// out\n    /* \"#utility.yul\":845:1196   */\ntag_3:\n    /* \"#utility.yul\":915:921   */\n  0x00\n    /* \"#utility.yul\":964:966   */\n  0x20\n    /* \"#utility.yul\":952:961   */\n  dup3\n    /* \"#utility.yul\":943:950   */\n  dup5\n    /* \"#utility.yul\":939:962   */\n  sub\n    /* \"#utility.yul\":935:967   */\n  slt\n    /* \"#utility.yul\":932:1051   */\n  iszero\n  tag_150\n  jumpi\n    /* \"#utility.yul\":970:1049   */\n  tag_151\n  tag_118\n  jump\t// in\ntag_151:\n    /* \"#utility.yul\":932:1051   */\ntag_150:\n    /* \"#utility.yul\":1090:1091   */\n  0x00\n    /* \"#utility.yul\":1115:1179   */\n  tag_152\n    /* \"#utility.yul\":1171:1178   */\n  dup5\n    /* \"#utility.yul\":1162:1168   */\n  dup3\n    /* \"#utility.yul\":1151:1160   */\n  dup6\n    /* \"#utility.yul\":1147:1169   */\n  add\n    /* \"#utility.yul\":1115:1179   */\n  tag_123\n  jump\t// in\ntag_152:\n    /* \"#utility.yul\":1105:1179   */\n  swap2\n  pop\n    /* \"#utility.yul\":1061:1189   */\n  pop\n    /* \"#utility.yul\":845:1196   */\n  swap3\n  swap2\n  pop\n  pop\n  jump\t// out\n    /* \"#utility.yul\":1202:1382   */\ntag_124:\n    /* \"#utility.yul\":1250:1327   */\n  0x4e487b7100000000000000000000000000000000000000000000000000000000\n    /* \"#utility.yul\":1247:1248   */\n  0x00\n    /* \"#utility.yul\":1240:1328   */\n  mstore\n    /* \"#utility.yul\":1347:1351   */\n  0x22\n    /* \"#utility.yul\":1344:1345   */\n  0x04\n    /* \"#utility.yul\":1337:1352   */\n  mstore\n    /* \"#utility.yul\":1371:1375   */\n  0x24\n    /* \"#utility.yul\":1368:1369   */\n  0x00\n    /* \"#utility.yul\":1361:1376   */\n  revert\n    /* \"#utility.yul\":1388:1708   */\ntag_13:\n    /* \"#utility.yul\":1432:1438   */\n  0x00\n    /* \"#utility.yul\":1469:1470   */\n  0x02\n    /* \"#utility.yul\":1463:1467   */\n  dup3\n    /* \"#utility.yul\":1459:1471   */\n  div\n    /* \"#utility.yul\":1449:1471   */\n  swap1\n  pop\n    /* \"#utility.yul\":1516:1517   */\n  0x01\n    /* \"#utility.yul\":1510:1514   */\n  dup3\n    /* \"#utility.yul\":1506:1518   */\n  and\n    /* \"#utility.yul\":1537:1555   */\n  dup1\n    /* \"#utility.yul\":1527:1608   */\n  tag_155\n  jumpi\n    /* \"#utility.yul\":1593:1597   */\n  0x7f\n    /* \"#utility.yul\":1585:1591   */\n  dup3\n    /* \"#utility.yul\":1581:1598   */\n  and\n    /* \"#utility.yul\":1571:1598   */\n  swap2\n  pop\n    /* \"#utility.yul\":1527:1608   */\ntag_155:\n    /* \"#utility.yul\":1655:1657   */\n  0x20\n    /* \"#utility.yul\":1647:1653   */\n  dup3\n    /* \"#utility.yul\":1644:1658   */\n  lt\n    /* \"#utility.yul\":1624:1642   */\n  dup2\n    /* \"#utility.yul\":1621:1659   */\n  sub\n    /* \"#utility.yul\":1618:1702   */\n  tag_156\n  jumpi\n    /* \"#utility.yul\":1674:1692   */\n  tag_157\n  tag_124\n  jump\t// in\ntag_157:\n    /* \"#utility.yul\":1618:1702   */\ntag_156:\n    /* \"#utility.yul\":1439:1708   */\n  pop\n    /* \"#utility.yul\":1388:1708   */\n  swap2\n  swap1\n  pop\n  jump\t// out\n    /* \"#utility.yul\":1714:1894   */\ntag_27:\n    /* \"#utility.yul\":1762:1839   */\n  0x4e487b7100000000000000000000000000000000000000000000000000000000\n    /* \"#utility.yul\":1759:1760   */\n  0x00\n    /* \"#utility.yul\":1752:1840   */\n  mstore\n    /* \"#utility.yul\":1859:1863   */\n  0x32\n    /* \"#utility.yul\":1856:1857   */\n  0x04\n    /* \"#utility.yul\":1849:1864   */\n  mstore\n    /* \"#utility.yul\":1883:1887   */\n  0x24\n    /* \"#utility.yul\":1880:1881   */\n  0x00\n    /* \"#utility.yul\":1873:1888   */\n  revert\n    /* \"#utility.yul\":1900:2048   */\ntag_125:\n    /* \"#utility.yul\":2002:2013   */\n  0x00\n    /* \"#utility.yul\":2039:2042   */\n  dup2\n    /* \"#utility.yul\":2024:2042   */\n  swap1\n  pop\n    /* \"#utility.yul\":1900:2048   */\n  swap3\n  swap2\n  pop\n  pop\n  jump\t// out\n    /* \"#utility.yul\":2054:2195   */\ntag_126:\n    /* \"#utility.yul\":2103:2107   */\n  0x00\n    /* \"#utility.yul\":2126:2129   */\n  dup2\n    /* \"#utility.yul\":2118:2129   */\n  swap1\n  pop\n    /* \"#utility.yul\":2149:2152   */\n  dup2\n    /* \"#utility.yul\":2146:2147   */\n  0x00\n    /* \"#utility.yul\":2139:2153   */\n  mstore\n    /* \"#utility.yul\":2183:2187   */\n  0x20\n    /* \"#utility.yul\":2180:2181   */\n  0x00\n    /* \"#utility.yul\":2170:2188   */\n  keccak256\n    /* \"#utility.yul\":2162:2188   */\n  swap1\n  pop\n    /* \"#utility.yul\":2054:2195   */\n  swap2\n  swap1\n  pop\n  jump\t// out\n    /* \"#utility.yul\":2225:3070   */\ntag_127:\n    /* \"#utility.yul\":2328:2331   */\n  0x00\n    /* \"#utility.yul\":2365:2370   */\n  dup2\n    /* \"#utility.yul\":2359:2371   */\n  sload\n    /* \"#utility.yul\":2394:2430   */\n  tag_162\n    /* \"#utility.yul\":2420:2429   */\n  dup2\n    /* \"#utility.yul\":2394:2430   */\n  tag_13\n  jump\t// in\ntag_162:\n    /* \"#utility.yul\":2446:2535   */\n  tag_163\n    /* \"#utility.yul\":2528:2534   */\n  dup2\n    /* \"#utility.yul\":2523:2526   */\n  dup7\n    /* \"#utility.yul\":2446:2535   */\n  tag_125\n  jump\t// in\ntag_163:\n    /* \"#utility.yul\":2439:2535   */\n  swap5\n  pop\n    /* \"#utility.yul\":2566:2567   */\n  0x01\n    /* \"#utility.yul\":2555:2564   */\n  dup3\n    /* \"#utility.yul\":2551:2568   */\n  and\n    /* \"#utility.yul\":2582:2583   */\n  0x00\n    /* \"#utility.yul\":2577:2714   */\n  dup2\n  eq\n  tag_165\n  jumpi\n    /* \"#utility.yul\":2728:2729   */\n  0x01\n    /* \"#utility.yul\":2723:3064   */\n  dup2\n  eq\n  tag_166\n  jumpi\n    /* \"#utility.yul\":2544:3064   */\n  jump(tag_164)\n    /* \"#utility.yul\":2577:2714   */\ntag_165:\n    /* \"#utility.yul\":2661:2665   */\n  0xff\n    /* \"#utility.yul\":2657:2666   */\n  not\n    /* \"#utility.yul\":2646:2655   */\n  dup4\n    /* \"#utility.yul\":2642:2667   */\n  and\n    /* \"#utility.yul\":2637:2640   */\n  dup7\n    /* \"#utility.yul\":2630:2668   */\n  mstore\n    /* \"#utility.yul\":2697:2703   */\n  dup2\n    /* \"#utility.yul\":2692:2695   */\n  dup7\n    /* \"#utility.yul\":2688:2704   */\n  add\n    /* \"#utility.yul\":2681:2704   */\n  swap4\n  pop\n    /* \"#utility.yul\":2577:2714   */\n  jump(tag_164)\n    /* \"#utility.yul\":2723:3064   */\ntag_166:\n    /* \"#utility.yul\":2790:2828   */\n  tag_167\n    /* \"#utility.yul\":2822:2827   */\n  dup6\n    /* \"#utility.yul\":2790:2828   */\n  tag_126\n  jump\t// in\ntag_167:\n    /* \"#utility.yul\":2850:2851   */\n  0x00\n    /* \"#utility.yul\":2864:3018   */\ntag_168:\n    /* \"#utility.yul\":2878:2884   */\n  dup4\n    /* \"#utility.yul\":2875:2876   */\n  dup2\n    /* \"#utility.yul\":2872:2885   */\n  lt\n    /* \"#utility.yul\":2864:3018   */\n  iszero\n  tag_170\n  jumpi\n    /* \"#utility.yul\":2952:2959   */\n  dup2\n    /* \"#utility.yul\":2946:2960   */\n  sload\n    /* \"#utility.yul\":2942:2943   */\n  dup2\n    /* \"#utility.yul\":2937:2940   */\n  dup10\n    /* \"#utility.yul\":2933:2944   */\n  add\n    /* \"#utility.yul\":2926:2961   */\n  mstore\n    /* \"#utility.yul\":3002:3003   */\n  0x01\n    /* \"#utility.yul\":2993:3000   */\n  dup3\n    /* \"#utility.yul\":2989:3004   */\n  add\n    /* \"#utility.yul\":2978:3004   */\n  swap2\n  pop\n    /* \"#utility.yul\":2900:2904   */\n  0x20\n    /* \"#utility.yul\":2897:2898   */\n  dup2\n    /* \"#utility.yul\":2893:2905   */\n  add\n    /* \"#utility.yul\":2888:2905   */\n  swap1\n  pop\n    /* \"#utility.yul\":2864:3018   */\n  jump(tag_168)\ntag_170:\n    /* \"#utility.yul\":3047:3053   */\n  dup4\n    /* \"#utility.yul\":3042:3045   */\n  dup9\n    /* \"#utility.yul\":3038:3054   */\n  add\n    /* \"#utility.yul\":3031:3054   */\n  swap6\n  pop\n    /* \"#utility.yul\":2730:3064   */\n  pop\n  pop\n    /* \"#utility.yul\":2544:3064   */\ntag_164:\n  pop\n    /* \"#utility.yul\":2332:3070   */\n  pop\n  pop\n    /* \"#utility.yul\":2225:3070   */\n  swap3\n  swap2\n  pop\n  pop\n  jump\t// out\n    /* \"#utility.yul\":3076:3345   */\ntag_37:\n    /* \"#utility.yul\":3205:3208   */\n  0x00\n    /* \"#utility.yul\":3227:3319   */\n  tag_172\n    /* \"#utility.yul\":3315:3318   */\n  dup3\n    /* \"#utility.yul\":3306:3312   */\n  dup5\n    /* \"#utility.yul\":3227:3319   */\n  tag_127\n  jump\t// in\ntag_172:\n    /* \"#utility.yul\":3220:3319   */\n  swap2\n  pop\n    /* \"#utility.yul\":3336:3339   */\n  dup2\n    /* \"#utility.yul\":3329:3339   */\n  swap1\n  pop\n    /* \"#utility.yul\":3076:3345   */\n  swap3\n  swap2\n  pop\n  pop\n  jump\t// out\n    /* \"#utility.yul\":3351:3520   */\ntag_128:\n    /* \"#utility.yul\":3435:3446   */\n  0x00\n    /* \"#utility.yul\":3469:3475   */\n  dup3\n    /* \"#utility.yul\":3464:3467   */\n  dup3\n    /* \"#utility.yul\":3457:3476   */\n  mstore\n    /* \"#utility.yul\":3509:3513   */\n  0x20\n    /* \"#utility.yul\":3504:3507   */\n  dup3\n    /* \"#utility.yul\":3500:3514   */\n  add\n    /* \"#utility.yul\":3485:3514   */\n  swap1\n  pop\n    /* \"#utility.yul\":3351:3520   */\n  swap3\n  swap2\n  pop\n  pop\n  jump\t// out\n    /* \"#utility.yul\":3526:3753   */\ntag_129:\n    /* \"#utility.yul\":3666:3700   */\n  0x546865205f7374617274446179206e6f7420726570726573656e747320612076\n    /* \"#utility.yul\":3662:3663   */\n  0x00\n    /* \"#utility.yul\":3654:3660   */\n  dup3\n    /* \"#utility.yul\":3650:3664   */\n  add\n    /* \"#utility.yul\":3643:3701   */\n  mstore\n    /* \"#utility.yul\":3735:3745   */\n  0x616c696420646179000000000000000000000000000000000000000000000000\n    /* \"#utility.yul\":3730:3732   */\n  0x20\n    /* \"#utility.yul\":3722:3728   */\n  dup3\n    /* \"#utility.yul\":3718:3733   */\n  add\n    /* \"#utility.yul\":3711:3746   */\n  mstore\n    /* \"#utility.yul\":3526:3753   */\n  pop\n  jump\t// out\n    /* \"#utility.yul\":3759:4125   */\ntag_130:\n    /* \"#utility.yul\":3901:3904   */\n  0x00\n    /* \"#utility.yul\":3922:3989   */\n  tag_176\n    /* \"#utility.yul\":3986:3988   */\n  0x28\n    /* \"#utility.yul\":3981:3984   */\n  dup4\n    /* \"#utility.yul\":3922:3989   */\n  tag_128\n  jump\t// in\ntag_176:\n    /* \"#utility.yul\":3915:3989   */\n  swap2\n  pop\n    /* \"#utility.yul\":3998:4091   */\n  tag_177\n    /* \"#utility.yul\":4087:4090   */\n  dup3\n    /* \"#utility.yul\":3998:4091   */\n  tag_129\n  jump\t// in\ntag_177:\n    /* \"#utility.yul\":4116:4118   */\n  0x40\n    /* \"#utility.yul\":4111:4114   */\n  dup3\n    /* \"#utility.yul\":4107:4119   */\n  add\n    /* \"#utility.yul\":4100:4119   */\n  swap1\n  pop\n    /* \"#utility.yul\":3759:4125   */\n  swap2\n  swap1\n  pop\n  jump\t// out\n    /* \"#utility.yul\":4131:4550   */\ntag_55:\n    /* \"#utility.yul\":4297:4301   */\n  0x00\n    /* \"#utility.yul\":4335:4337   */\n  0x20\n    /* \"#utility.yul\":4324:4333   */\n  dup3\n    /* \"#utility.yul\":4320:4338   */\n  add\n    /* \"#utility.yul\":4312:4338   */\n  swap1\n  pop\n    /* \"#utility.yul\":4384:4393   */\n  dup2\n    /* \"#utility.yul\":4378:4382   */\n  dup2\n    /* \"#utility.yul\":4374:4394   */\n  sub\n    /* \"#utility.yul\":4370:4371   */\n  0x00\n    /* \"#utility.yul\":4359:4368   */\n  dup4\n    /* \"#utility.yul\":4355:4372   */\n  add\n    /* \"#utility.yul\":4348:4395   */\n  mstore\n    /* \"#utility.yul\":4412:4543   */\n  tag_179\n    /* \"#utility.yul\":4538:4542   */\n  dup2\n    /* \"#utility.yul\":4412:4543   */\n  tag_130\n  jump\t// in\ntag_179:\n    /* \"#utility.yul\":4404:4543   */\n  swap1\n  pop\n    /* \"#utility.yul\":4131:4550   */\n  swap2\n  swap1\n  pop\n  jump\t// out\n    /* \"#utility.yul\":4556:4781   */\ntag_131:\n    /* \"#utility.yul\":4696:4730   */\n  0x546865205f656e64446179206e6f7420726570726573656e747320612076616c\n    /* \"#utility.yul\":4692:4693   */\n  0x00\n    /* \"#utility.yul\":4684:4690   */\n  dup3\n    /* \"#utility.yul\":4680:4694   */\n  add\n    /* \"#utility.yul\":4673:4731   */\n  mstore\n    /* \"#utility.yul\":4765:4773   */\n  0x6964206461790000000000000000000000000000000000000000000000000000\n    /* \"#utility.yul\":4760:4762   */\n  0x20\n    /* \"#utility.yul\":4752:4758   */\n  dup3\n    /* \"#utility.yul\":4748:4763   */\n  add\n    /* \"#utility.yul\":4741:4774   */\n  mstore\n    /* \"#utility.yul\":4556:4781   */\n  pop\n  jump\t// out\n    /* \"#utility.yul\":4787:5153   */\ntag_132:\n    /* \"#utility.yul\":4929:4932   */\n  0x00\n    /* \"#utility.yul\":4950:5017   */\n  tag_182\n    /* \"#utility.yul\":5014:5016   */\n  0x26\n    /* \"#utility.yul\":5009:5012   */\n  dup4\n    /* \"#utility.yul\":4950:5017   */\n  tag_128\n  jump\t// in\ntag_182:\n    /* \"#utility.yul\":4943:5017   */\n  swap2\n  pop\n    /* \"#utility.yul\":5026:5119   */\n  tag_183\n    /* \"#utility.yul\":5115:5118   */\n  dup3\n    /* \"#utility.yul\":5026:5119   */\n  tag_131\n  jump\t// in\ntag_183:\n    /* \"#utility.yul\":5144:5146   */\n  0x40\n    /* \"#utility.yul\":5139:5142   */\n  dup3\n    /* \"#utility.yul\":5135:5147   */\n  add\n    /* \"#utility.yul\":5128:5147   */\n  swap1\n  pop\n    /* \"#utility.yul\":4787:5153   */\n  swap2\n  swap1\n  pop\n  jump\t// out\n    /* \"#utility.yul\":5159:5578   */\ntag_59:\n    /* \"#utility.yul\":5325:5329   */\n  0x00\n    /* \"#utility.yul\":5363:5365   */\n  0x20\n    /* \"#utility.yul\":5352:5361   */\n  dup3\n    /* \"#utility.yul\":5348:5366   */\n  add\n    /* \"#utility.yul\":5340:5366   */\n  swap1\n  pop\n    /* \"#utility.yul\":5412:5421   */\n  dup2\n    /* \"#utility.yul\":5406:5410   */\n  dup2\n    /* \"#utility.yul\":5402:5422   */\n  sub\n    /* \"#utility.yul\":5398:5399   */\n  0x00\n    /* \"#utility.yul\":5387:5396   */\n  dup4\n    /* \"#utility.yul\":5383:5400   */\n  add\n    /* \"#utility.yul\":5376:5423   */\n  mstore\n    /* \"#utility.yul\":5440:5571   */\n  tag_185\n    /* \"#utility.yul\":5566:5570   */\n  dup2\n    /* \"#utility.yul\":5440:5571   */\n  tag_132\n  jump\t// in\ntag_185:\n    /* \"#utility.yul\":5432:5571   */\n  swap1\n  pop\n    /* \"#utility.yul\":5159:5578   */\n  swap2\n  swap1\n  pop\n  jump\t// out\n    /* \"#utility.yul\":5584:5677   */\ntag_133:\n    /* \"#utility.yul\":5620:5627   */\n  0x00\n    /* \"#utility.yul\":5660:5670   */\n  0xffffffff\n    /* \"#utility.yul\":5653:5658   */\n  dup3\n    /* \"#utility.yul\":5649:5671   */\n  and\n    /* \"#utility.yul\":5638:5671   */\n  swap1\n  pop\n    /* \"#utility.yul\":5584:5677   */\n  swap2\n  swap1\n  pop\n  jump\t// out\n    /* \"#utility.yul\":5683:5863   */\ntag_134:\n    /* \"#utility.yul\":5731:5808   */\n  0x4e487b7100000000000000000000000000000000000000000000000000000000\n    /* \"#utility.yul\":5728:5729   */\n  0x00\n    /* \"#utility.yul\":5721:5809   */\n  mstore\n    /* \"#utility.yul\":5828:5832   */\n  0x11\n    /* \"#utility.yul\":5825:5826   */\n  0x04\n    /* \"#utility.yul\":5818:5833   */\n  mstore\n    /* \"#utility.yul\":5852:5856   */\n  0x24\n    /* \"#utility.yul\":5849:5850   */\n  0x00\n    /* \"#utility.yul\":5842:5857   */\n  revert\n    /* \"#utility.yul\":5869:6158   */\ntag_80:\n    /* \"#utility.yul\":5908:5915   */\n  0x00\n    /* \"#utility.yul\":5931:5950   */\n  tag_189\n    /* \"#utility.yul\":5948:5949   */\n  dup3\n    /* \"#utility.yul\":5931:5950   */\n  tag_133\n  jump\t// in\ntag_189:\n    /* \"#utility.yul\":5926:5950   */\n  swap2\n  pop\n    /* \"#utility.yul\":5964:5983   */\n  tag_190\n    /* \"#utility.yul\":5981:5982   */\n  dup4\n    /* \"#utility.yul\":5964:5983   */\n  tag_133\n  jump\t// in\ntag_190:\n    /* \"#utility.yul\":5959:5983   */\n  swap3\n  pop\n    /* \"#utility.yul\":6095:6096   */\n  dup2\n    /* \"#utility.yul\":6083:6093   */\n  0xffffffff\n    /* \"#utility.yul\":6079:6097   */\n  div\n    /* \"#utility.yul\":6076:6077   */\n  dup4\n    /* \"#utility.yul\":6073:6098   */\n  gt\n    /* \"#utility.yul\":6068:6069   */\n  dup3\n    /* \"#utility.yul\":6061:6070   */\n  iszero\n    /* \"#utility.yul\":6054:6071   */\n  iszero\n    /* \"#utility.yul\":6050:6099   */\n  and\n    /* \"#utility.yul\":6047:6122   */\n  iszero\n  tag_191\n  jumpi\n    /* \"#utility.yul\":6102:6120   */\n  tag_192\n  tag_134\n  jump\t// in\ntag_192:\n    /* \"#utility.yul\":6047:6122   */\ntag_191:\n    /* \"#utility.yul\":6150:6151   */\n  dup3\n    /* \"#utility.yul\":6147:6148   */\n  dup3\n    /* \"#utility.yul\":6143:6152   */\n  mul\n    /* \"#utility.yul\":6132:6152   */\n  swap1\n  pop\n    /* \"#utility.yul\":5869:6158   */\n  swap3\n  swap2\n  pop\n  pop\n  jump\t// out\n    /* \"#utility.yul\":6164:6410   */\ntag_135:\n    /* \"#utility.yul\":6304:6338   */\n  0x546865206d6574686f642067657454696d65496e5365636f6e647320646f6573\n    /* \"#utility.yul\":6300:6301   */\n  0x00\n    /* \"#utility.yul\":6292:6298   */\n  dup3\n    /* \"#utility.yul\":6288:6302   */\n  add\n    /* \"#utility.yul\":6281:6339   */\n  mstore\n    /* \"#utility.yul\":6373:6402   */\n  0x6e277420776f726b20666f72204d4f4e544820616e6420594541520000000000\n    /* \"#utility.yul\":6368:6370   */\n  0x20\n    /* \"#utility.yul\":6360:6366   */\n  dup3\n    /* \"#utility.yul\":6356:6371   */\n  add\n    /* \"#utility.yul\":6349:6403   */\n  mstore\n    /* \"#utility.yul\":6164:6410   */\n  pop\n  jump\t// out\n    /* \"#utility.yul\":6416:6782   */\ntag_136:\n    /* \"#utility.yul\":6558:6561   */\n  0x00\n    /* \"#utility.yul\":6579:6646   */\n  tag_195\n    /* \"#utility.yul\":6643:6645   */\n  0x3b\n    /* \"#utility.yul\":6638:6641   */\n  dup4\n    /* \"#utility.yul\":6579:6646   */\n  tag_128\n  jump\t// in\ntag_195:\n    /* \"#utility.yul\":6572:6646   */\n  swap2\n  pop\n    /* \"#utility.yul\":6655:6748   */\n  tag_196\n    /* \"#utility.yul\":6744:6747   */\n  dup3\n    /* \"#utility.yul\":6655:6748   */\n  tag_135\n  jump\t// in\ntag_196:\n    /* \"#utility.yul\":6773:6775   */\n  0x40\n    /* \"#utility.yul\":6768:6771   */\n  dup3\n    /* \"#utility.yul\":6764:6776   */\n  add\n    /* \"#utility.yul\":6757:6776   */\n  swap1\n  pop\n    /* \"#utility.yul\":6416:6782   */\n  swap2\n  swap1\n  pop\n  jump\t// out\n    /* \"#utility.yul\":6788:7207   */\ntag_84:\n    /* \"#utility.yul\":6954:6958   */\n  0x00\n    /* \"#utility.yul\":6992:6994   */\n  0x20\n    /* \"#utility.yul\":6981:6990   */\n  dup3\n    /* \"#utility.yul\":6977:6995   */\n  add\n    /* \"#utility.yul\":6969:6995   */\n  swap1\n  pop\n    /* \"#utility.yul\":7041:7050   */\n  dup2\n    /* \"#utility.yul\":7035:7039   */\n  dup2\n    /* \"#utility.yul\":7031:7051   */\n  sub\n    /* \"#utility.yul\":7027:7028   */\n  0x00\n    /* \"#utility.yul\":7016:7025   */\n  dup4\n    /* \"#utility.yul\":7012:7029   */\n  add\n    /* \"#utility.yul\":7005:7052   */\n  mstore\n    /* \"#utility.yul\":7069:7200   */\n  tag_198\n    /* \"#utility.yul\":7195:7199   */\n  dup2\n    /* \"#utility.yul\":7069:7200   */\n  tag_136\n  jump\t// in\ntag_198:\n    /* \"#utility.yul\":7061:7200   */\n  swap1\n  pop\n    /* \"#utility.yul\":6788:7207   */\n  swap2\n  swap1\n  pop\n  jump\t// out\n    /* \"contracts/study-case-contracts/004-whatsapp/WhatsappProcessWrite.sol\":190:7823  contract WhatsappProcessWrite {... */\ntag_45:\n  dataSize(sub_0)\n  dup1\n  dataOffset(sub_0)\n  0x00\n  codecopy\n  0x00\n  return\nstop\n\nsub_0: assembly {\n        /* \"contracts/study-case-contracts/004-whatsapp/WhatsappProcessWrite.sol\":190:7823  contract WhatsappProcessWrite {... */\n      mstore(0x40, 0x80)\n      callvalue\n      dup1\n      iszero\n      tag_1\n      jumpi\n      0x00\n      dup1\n      revert\n    tag_1:\n      pop\n      jumpi(tag_2, lt(calldatasize, 0x04))\n      shr(0xe0, calldataload(0x00))\n      dup1\n      0x27f540ae\n      eq\n      tag_3\n      jumpi\n      dup1\n      0x5e744c6a\n      eq\n      tag_4\n      jumpi\n      dup1\n      0x70d8915a\n      eq\n      tag_5\n      jumpi\n      dup1\n      0x85931911\n      eq\n      tag_6\n      jumpi\n      dup1\n      0xb8b4f1a0\n      eq\n      tag_7\n      jumpi\n      dup1\n      0xfb6f8243\n      eq\n      tag_8\n      jumpi\n    tag_2:\n      0x00\n      dup1\n      revert\n        /* \"contracts/study-case-contracts/004-whatsapp/WhatsappProcessWrite.sol\":3889:5141  function rigth_sendMessage(uint8 _weekDayAccess, string memory _resultXPath_k2, uint32 _accessDateTime, string memory _resultXPath_onlyString) public onlyProcess() returns(bool){... */\n    tag_3:\n      tag_9\n      0x04\n      dup1\n      calldatasize\n      sub\n      dup2\n      add\n      swap1\n      tag_10\n      swap2\n      swap1\n      tag_11\n      jump\t// in\n    tag_10:\n      tag_12\n      jump\t// in\n    tag_9:\n      mload(0x40)\n      tag_13\n      swap2\n      swap1\n      tag_14\n      jump\t// in\n    tag_13:\n      mload(0x40)\n      dup1\n      swap2\n      sub\n      swap1\n      return\n        /* \"contracts/study-case-contracts/004-whatsapp/WhatsappProcessWrite.sol\":6075:6506  function changeApplicationParty(string memory _name, address _walletAddress) public returns(bool) {       ... */\n    tag_4:\n      tag_15\n      0x04\n      dup1\n      calldatasize\n      sub\n      dup2\n      add\n      swap1\n      tag_16\n      swap2\n      swap1\n      tag_17\n      jump\t// in\n    tag_16:\n      tag_18\n      jump\t// in\n    tag_15:\n      mload(0x40)\n      tag_19\n      swap2\n      swap1\n      tag_14\n      jump\t// in\n    tag_19:\n      mload(0x40)\n      dup1\n      swap2\n      sub\n      swap1\n      return\n        /* \"contracts/study-case-contracts/004-whatsapp/WhatsappProcessWrite.sol\":6654:6786  function getApplicationAddress() public view onlyInvolvedParties returns(address){... */\n    tag_5:\n      tag_20\n      tag_21\n      jump\t// in\n    tag_20:\n      mload(0x40)\n      tag_22\n      swap2\n      swap1\n      tag_23\n      jump\t// in\n    tag_22:\n      mload(0x40)\n      dup1\n      swap2\n      sub\n      swap1\n      return\n        /* \"contracts/study-case-contracts/004-whatsapp/WhatsappProcessWrite.sol\":6518:6642  function getProcessAddress() public view onlyInvolvedParties returns(address){... */\n    tag_6:\n      tag_24\n      tag_25\n      jump\t// in\n    tag_24:\n      mload(0x40)\n      tag_26\n      swap2\n      swap1\n      tag_23\n      jump\t// in\n    tag_26:\n      mload(0x40)\n      dup1\n      swap2\n      sub\n      swap1\n      return\n        /* \"contracts/study-case-contracts/004-whatsapp/WhatsappProcessWrite.sol\":5475:5737  function signContract() public onlyApplication() returns(bool) {... */\n    tag_7:\n      tag_27\n      tag_28\n      jump\t// in\n    tag_27:\n      mload(0x40)\n      tag_29\n      swap2\n      swap1\n      tag_14\n      jump\t// in\n    tag_29:\n      mload(0x40)\n      dup1\n      swap2\n      sub\n      swap1\n      return\n        /* \"contracts/study-case-contracts/004-whatsapp/WhatsappProcessWrite.sol\":6794:6943  function getParty(address _walletAddress) public view onlyInvolvedParties returns(EAI.Party memory){... */\n    tag_8:\n      tag_30\n      0x04\n      dup1\n      calldatasize\n      sub\n      dup2\n      add\n      swap1\n      tag_31\n      swap2\n      swap1\n      tag_32\n      jump\t// in\n    tag_31:\n      tag_33\n      jump\t// in\n    tag_30:\n      mload(0x40)\n      tag_34\n      swap2\n      swap1\n      tag_35\n      jump\t// in\n    tag_34:\n      mload(0x40)\n      dup1\n      swap2\n      sub\n      swap1\n      return\n        /* \"contracts/study-case-contracts/004-whatsapp/WhatsappProcessWrite.sol\":3889:5141  function rigth_sendMessage(uint8 _weekDayAccess, string memory _resultXPath_k2, uint32 _accessDateTime, string memory _resultXPath_onlyString) public onlyProcess() returns(bool){... */\n    tag_12:\n        /* \"contracts/study-case-contracts/004-whatsapp/WhatsappProcessWrite.sol\":4061:4065  bool */\n      0x00\n        /* \"contracts/study-case-contracts/004-whatsapp/WhatsappProcessWrite.sol\":7340:7349  activated */\n      dup1\n      0x00\n      swap1\n      sload\n      swap1\n      0x0100\n      exp\n      swap1\n      div\n      0xff\n      and\n        /* \"contracts/study-case-contracts/004-whatsapp/WhatsappProcessWrite.sol\":7332:7382  require(activated, \"This contract is deactivated\") */\n      tag_42\n      jumpi\n      mload(0x40)\n      0x08c379a000000000000000000000000000000000000000000000000000000000\n      dup2\n      mstore\n      0x04\n      add\n      tag_43\n      swap1\n      tag_44\n      jump\t// in\n    tag_43:\n      mload(0x40)\n      dup1\n      swap2\n      sub\n      swap1\n      revert\n    tag_42:\n        /* \"contracts/study-case-contracts/004-whatsapp/WhatsappProcessWrite.sol\":7426:7436  msg.sender */\n      caller\n        /* \"contracts/study-case-contracts/004-whatsapp/WhatsappProcessWrite.sol\":7401:7436  process.walletAddress == msg.sender */\n      0xffffffffffffffffffffffffffffffffffffffff\n      and\n        /* \"contracts/study-case-contracts/004-whatsapp/WhatsappProcessWrite.sol\":7401:7408  process */\n      0x03\n        /* \"contracts/study-case-contracts/004-whatsapp/WhatsappProcessWrite.sol\":7401:7422  process.walletAddress */\n      0x01\n      add\n      0x00\n      swap1\n      sload\n      swap1\n      0x0100\n      exp\n      swap1\n      div\n      0xffffffffffffffffffffffffffffffffffffffff\n      and\n        /* \"contracts/study-case-contracts/004-whatsapp/WhatsappProcessWrite.sol\":7401:7436  process.walletAddress == msg.sender */\n      0xffffffffffffffffffffffffffffffffffffffff\n      and\n      eq\n        /* \"contracts/study-case-contracts/004-whatsapp/WhatsappProcessWrite.sol\":7393:7484  require(process.walletAddress == msg.sender, \"Only the process can execute this operation\") */\n      tag_45\n      jumpi\n      mload(0x40)\n      0x08c379a000000000000000000000000000000000000000000000000000000000\n      dup2\n      mstore\n      0x04\n      add\n      tag_46\n      swap1\n      tag_47\n      jump\t// in\n    tag_46:\n      mload(0x40)\n      dup1\n      swap2\n      sub\n      swap1\n      revert\n    tag_45:\n        /* \"contracts/study-case-contracts/004-whatsapp/WhatsappProcessWrite.sol\":4082:4143  weekDaysInterval_C1[0].isIntoWeekDaysInterval(_weekDayAccess) */\n      tag_49\n        /* \"contracts/study-case-contracts/004-whatsapp/WhatsappProcessWrite.sol\":4128:4142  _weekDayAccess */\n      dup6\n        /* \"contracts/study-case-contracts/004-whatsapp/WhatsappProcessWrite.sol\":4082:4101  weekDaysInterval_C1 */\n      0x06\n        /* \"contracts/study-case-contracts/004-whatsapp/WhatsappProcessWrite.sol\":4102:4103  0 */\n      0x00\n        /* \"contracts/study-case-contracts/004-whatsapp/WhatsappProcessWrite.sol\":4082:4104  weekDaysInterval_C1[0] */\n      dup2\n      sload\n      dup2\n      lt\n      tag_50\n      jumpi\n      tag_51\n      tag_52\n      jump\t// in\n    tag_51:\n    tag_50:\n      swap1\n      0x00\n      mstore\n      keccak256(0x00, 0x20)\n      add\n        /* \"contracts/study-case-contracts/004-whatsapp/WhatsappProcessWrite.sol\":4082:4127  weekDaysInterval_C1[0].isIntoWeekDaysInterval */\n      mload(0x40)\n      dup1\n      0x40\n      add\n      0x40\n      mstore\n      swap1\n      dup2\n      0x00\n      dup3\n      add\n      0x00\n      swap1\n      sload\n      swap1\n      0x0100\n      exp\n      swap1\n      div\n      0xff\n      and\n      0xff\n      and\n      0xff\n      and\n      dup2\n      mstore\n      0x20\n      add\n      0x00\n      dup3\n      add\n      0x01\n      swap1\n      sload\n      swap1\n      0x0100\n      exp\n      swap1\n      div\n      0xff\n      and\n      0xff\n      and\n      0xff\n      and\n      dup2\n      mstore\n      pop\n      pop\n      tag_54\n      swap1\n        /* \"contracts/study-case-contracts/004-whatsapp/WhatsappProcessWrite.sol\":4082:4143  weekDaysInterval_C1[0].isIntoWeekDaysInterval(_weekDayAccess) */\n      swap2\n      swap1\n      0xffffffff\n      and\n      jump\t// in\n    tag_49:\n        /* \"contracts/study-case-contracts/004-whatsapp/WhatsappProcessWrite.sol\":4079:5090  if(weekDaysInterval_C1[0].isIntoWeekDaysInterval(_weekDayAccess)){... */\n      iszero\n      tag_55\n      jumpi\n        /* \"contracts/study-case-contracts/004-whatsapp/WhatsappProcessWrite.sol\":4163:4177  exists_k1mapk2 */\n      0x09\n        /* \"contracts/study-case-contracts/004-whatsapp/WhatsappProcessWrite.sol\":4178:4185  keys_k1 */\n      0x0a\n        /* \"contracts/study-case-contracts/004-whatsapp/WhatsappProcessWrite.sol\":4186:4187  0 */\n      0x00\n        /* \"contracts/study-case-contracts/004-whatsapp/WhatsappProcessWrite.sol\":4178:4188  keys_k1[0] */\n      dup2\n      sload\n      dup2\n      lt\n      tag_56\n      jumpi\n      tag_57\n      tag_52\n      jump\t// in\n    tag_57:\n    tag_56:\n      swap1\n      0x00\n      mstore\n      keccak256(0x00, 0x20)\n      add\n        /* \"contracts/study-case-contracts/004-whatsapp/WhatsappProcessWrite.sol\":4163:4189  exists_k1mapk2[keys_k1[0]] */\n      mload(0x40)\n      tag_59\n      swap2\n      swap1\n      tag_60\n      jump\t// in\n    tag_59:\n      swap1\n      dup2\n      mstore\n      0x20\n      add\n      mload(0x40)\n      dup1\n      swap2\n      sub\n      swap1\n      keccak256\n        /* \"contracts/study-case-contracts/004-whatsapp/WhatsappProcessWrite.sol\":4190:4205  _resultXPath_k2 */\n      dup5\n        /* \"contracts/study-case-contracts/004-whatsapp/WhatsappProcessWrite.sol\":4163:4206  exists_k1mapk2[keys_k1[0]][_resultXPath_k2] */\n      mload(0x40)\n      tag_61\n      swap2\n      swap1\n      tag_62\n      jump\t// in\n    tag_61:\n      swap1\n      dup2\n      mstore\n      0x20\n      add\n      mload(0x40)\n      dup1\n      swap2\n      sub\n      swap1\n      keccak256\n      0x00\n      swap1\n      sload\n      swap1\n      0x0100\n      exp\n      swap1\n      div\n      0xff\n      and\n        /* \"contracts/study-case-contracts/004-whatsapp/WhatsappProcessWrite.sol\":4159:4533  if(!exists_k1mapk2[keys_k1[0]][_resultXPath_k2]){... */\n      tag_63\n      jumpi\n        /* \"contracts/study-case-contracts/004-whatsapp/WhatsappProcessWrite.sol\":4272:4276  true */\n      0x01\n        /* \"contracts/study-case-contracts/004-whatsapp/WhatsappProcessWrite.sol\":4226:4240  exists_k1mapk2 */\n      0x09\n        /* \"contracts/study-case-contracts/004-whatsapp/WhatsappProcessWrite.sol\":4241:4248  keys_k1 */\n      0x0a\n        /* \"contracts/study-case-contracts/004-whatsapp/WhatsappProcessWrite.sol\":4249:4250  0 */\n      0x00\n        /* \"contracts/study-case-contracts/004-whatsapp/WhatsappProcessWrite.sol\":4241:4251  keys_k1[0] */\n      dup2\n      sload\n      dup2\n      lt\n      tag_64\n      jumpi\n      tag_65\n      tag_52\n      jump\t// in\n    tag_65:\n    tag_64:\n      swap1\n      0x00\n      mstore\n      keccak256(0x00, 0x20)\n      add\n        /* \"contracts/study-case-contracts/004-whatsapp/WhatsappProcessWrite.sol\":4226:4252  exists_k1mapk2[keys_k1[0]] */\n      mload(0x40)\n      tag_67\n      swap2\n      swap1\n      tag_60\n      jump\t// in\n    tag_67:\n      swap1\n      dup2\n      mstore\n      0x20\n      add\n      mload(0x40)\n      dup1\n      swap2\n      sub\n      swap1\n      keccak256\n        /* \"contracts/study-case-contracts/004-whatsapp/WhatsappProcessWrite.sol\":4253:4268  _resultXPath_k2 */\n      dup6\n        /* \"contracts/study-case-contracts/004-whatsapp/WhatsappProcessWrite.sol\":4226:4269  exists_k1mapk2[keys_k1[0]][_resultXPath_k2] */\n      mload(0x40)\n      tag_68\n      swap2\n      swap1\n      tag_62\n      jump\t// in\n    tag_68:\n      swap1\n      dup2\n      mstore\n      0x20\n      add\n      mload(0x40)\n      dup1\n      swap2\n      sub\n      swap1\n      keccak256\n      0x00\n        /* \"contracts/study-case-contracts/004-whatsapp/WhatsappProcessWrite.sol\":4226:4276  exists_k1mapk2[keys_k1[0]][_resultXPath_k2] = true */\n      0x0100\n      exp\n      dup2\n      sload\n      dup2\n      0xff\n      mul\n      not\n      and\n      swap1\n      dup4\n      iszero\n      iszero\n      mul\n      or\n      swap1\n      sstore\n      pop\n        /* \"contracts/study-case-contracts/004-whatsapp/WhatsappProcessWrite.sol\":4295:4302  keys_k2 */\n      0x0b\n        /* \"contracts/study-case-contracts/004-whatsapp/WhatsappProcessWrite.sol\":4308:4323  _resultXPath_k2 */\n      dup5\n        /* \"contracts/study-case-contracts/004-whatsapp/WhatsappProcessWrite.sol\":4295:4324  keys_k2.push(_resultXPath_k2) */\n      swap1\n      dup1\n      0x01\n      dup2\n      sload\n      add\n      dup1\n      dup3\n      sstore\n      dup1\n      swap2\n      pop\n      pop\n      0x01\n      swap1\n      sub\n      swap1\n      0x00\n      mstore\n      keccak256(0x00, 0x20)\n      add\n      0x00\n      swap1\n      swap2\n      swap1\n      swap2\n      swap1\n      swap2\n      pop\n      swap1\n      dup1\n      mload\n      swap1\n      0x20\n      add\n      swap1\n      tag_70\n      swap3\n      swap2\n      swap1\n      tag_71\n      jump\t// in\n    tag_70:\n      pop\n        /* \"contracts/study-case-contracts/004-whatsapp/WhatsappProcessWrite.sol\":4391:4409  sessionInterval_C1 */\n      0x07\n        /* \"contracts/study-case-contracts/004-whatsapp/WhatsappProcessWrite.sol\":4410:4411  0 */\n      0x00\n        /* \"contracts/study-case-contracts/004-whatsapp/WhatsappProcessWrite.sol\":4391:4412  sessionInterval_C1[0] */\n      dup2\n      sload\n      dup2\n      lt\n      tag_72\n      jumpi\n      tag_73\n      tag_52\n      jump\t// in\n    tag_73:\n    tag_72:\n      swap1\n      0x00\n      mstore\n      keccak256(0x00, 0x20)\n      swap1\n      0x03\n      mul\n      add\n        /* \"contracts/study-case-contracts/004-whatsapp/WhatsappProcessWrite.sol\":4343:4359  sessionByContent */\n      0x08\n        /* \"contracts/study-case-contracts/004-whatsapp/WhatsappProcessWrite.sol\":4360:4367  keys_k1 */\n      0x0a\n        /* \"contracts/study-case-contracts/004-whatsapp/WhatsappProcessWrite.sol\":4368:4369  0 */\n      0x00\n        /* \"contracts/study-case-contracts/004-whatsapp/WhatsappProcessWrite.sol\":4360:4370  keys_k1[0] */\n      dup2\n      sload\n      dup2\n      lt\n      tag_75\n      jumpi\n      tag_76\n      tag_52\n      jump\t// in\n    tag_76:\n    tag_75:\n      swap1\n      0x00\n      mstore\n      keccak256(0x00, 0x20)\n      add\n        /* \"contracts/study-case-contracts/004-whatsapp/WhatsappProcessWrite.sol\":4343:4371  sessionByContent[keys_k1[0]] */\n      mload(0x40)\n      tag_78\n      swap2\n      swap1\n      tag_60\n      jump\t// in\n    tag_78:\n      swap1\n      dup2\n      mstore\n      0x20\n      add\n      mload(0x40)\n      dup1\n      swap2\n      sub\n      swap1\n      keccak256\n        /* \"contracts/study-case-contracts/004-whatsapp/WhatsappProcessWrite.sol\":4372:4387  _resultXPath_k2 */\n      dup6\n        /* \"contracts/study-case-contracts/004-whatsapp/WhatsappProcessWrite.sol\":4343:4388  sessionByContent[keys_k1[0]][_resultXPath_k2] */\n      mload(0x40)\n      tag_79\n      swap2\n      swap1\n      tag_62\n      jump\t// in\n    tag_79:\n      swap1\n      dup2\n      mstore\n      0x20\n      add\n      mload(0x40)\n      dup1\n      swap2\n      sub\n      swap1\n      keccak256\n        /* \"contracts/study-case-contracts/004-whatsapp/WhatsappProcessWrite.sol\":4343:4412  sessionByContent[keys_k1[0]][_resultXPath_k2] = sessionInterval_C1[0] */\n      0x00\n      dup3\n      add\n      0x00\n      swap1\n      sload\n      swap1\n      0x0100\n      exp\n      swap1\n      div\n      0xff\n      and\n      dup2\n      0x00\n      add\n      exp(0x0100, 0x00)\n      dup2\n      sload\n      dup2\n      0xff\n      mul\n      not\n      and\n      swap1\n      dup4\n      0xff\n      and\n      mul\n      or\n      swap1\n      sstore\n      pop\n      0x00\n      dup3\n      add\n      0x01\n      swap1\n      sload\n      swap1\n      0x0100\n      exp\n      swap1\n      div\n      0xff\n      and\n      dup2\n      0x00\n      add\n      exp(0x0100, 0x01)\n      dup2\n      sload\n      dup2\n      0xff\n      mul\n      not\n      and\n      swap1\n      dup4\n      0xff\n      and\n      mul\n      or\n      swap1\n      sstore\n      pop\n      0x00\n      dup3\n      add\n      0x02\n      swap1\n      sload\n      swap1\n      0x0100\n      exp\n      swap1\n      div\n      0xffffffff\n      and\n      dup2\n      0x00\n      add\n      exp(0x0100, 0x02)\n      dup2\n      sload\n      dup2\n      0xffffffff\n      mul\n      not\n      and\n      swap1\n      dup4\n      0xffffffff\n      and\n      mul\n      or\n      swap1\n      sstore\n      pop\n      0x01\n      dup3\n      add\n      dup2\n      0x01\n      add\n      swap1\n      dup1\n      sload\n      tag_80\n      swap1\n      tag_81\n      jump\t// in\n    tag_80:\n      tag_82\n      swap3\n      swap2\n      swap1\n      tag_83\n      jump\t// in\n    tag_82:\n      pop\n      0x02\n      dup3\n      add\n      0x00\n      swap1\n      sload\n      swap1\n      0x0100\n      exp\n      swap1\n      div\n      0xffffffff\n      and\n      dup2\n      0x02\n      add\n      exp(0x0100, 0x00)\n      dup2\n      sload\n      dup2\n      0xffffffff\n      mul\n      not\n      and\n      swap1\n      dup4\n      0xffffffff\n      and\n      mul\n      or\n      swap1\n      sstore\n      pop\n      swap1\n      pop\n      pop\n        /* \"contracts/study-case-contracts/004-whatsapp/WhatsappProcessWrite.sol\":4431:4517  sessionByContent[keys_k1[0]][_resultXPath_k2].startNewSessionInterval(_accessDateTime) */\n      tag_84\n        /* \"contracts/study-case-contracts/004-whatsapp/WhatsappProcessWrite.sol\":4501:4516  _accessDateTime */\n      dup4\n        /* \"contracts/study-case-contracts/004-whatsapp/WhatsappProcessWrite.sol\":4431:4447  sessionByContent */\n      0x08\n        /* \"contracts/study-case-contracts/004-whatsapp/WhatsappProcessWrite.sol\":4448:4455  keys_k1 */\n      0x0a\n        /* \"contracts/study-case-contracts/004-whatsapp/WhatsappProcessWrite.sol\":4456:4457  0 */\n      0x00\n        /* \"contracts/study-case-contracts/004-whatsapp/WhatsappProcessWrite.sol\":4448:4458  keys_k1[0] */\n      dup2\n      sload\n      dup2\n      lt\n      tag_85\n      jumpi\n      tag_86\n      tag_52\n      jump\t// in\n    tag_86:\n    tag_85:\n      swap1\n      0x00\n      mstore\n      keccak256(0x00, 0x20)\n      add\n        /* \"contracts/study-case-contracts/004-whatsapp/WhatsappProcessWrite.sol\":4431:4459  sessionByContent[keys_k1[0]] */\n      mload(0x40)\n      tag_88\n      swap2\n      swap1\n      tag_60\n      jump\t// in\n    tag_88:\n      swap1\n      dup2\n      mstore\n      0x20\n      add\n      mload(0x40)\n      dup1\n      swap2\n      sub\n      swap1\n      keccak256\n        /* \"contracts/study-case-contracts/004-whatsapp/WhatsappProcessWrite.sol\":4460:4475  _resultXPath_k2 */\n      dup7\n        /* \"contracts/study-case-contracts/004-whatsapp/WhatsappProcessWrite.sol\":4431:4476  sessionByContent[keys_k1[0]][_resultXPath_k2] */\n      mload(0x40)\n      tag_89\n      swap2\n      swap1\n      tag_62\n      jump\t// in\n    tag_89:\n      swap1\n      dup2\n      mstore\n      0x20\n      add\n      mload(0x40)\n      dup1\n      swap2\n      sub\n      swap1\n      keccak256\n        /* \"contracts/study-case-contracts/004-whatsapp/WhatsappProcessWrite.sol\":4431:4500  sessionByContent[keys_k1[0]][_resultXPath_k2].startNewSessionInterval */\n      tag_90\n      swap1\n        /* \"contracts/study-case-contracts/004-whatsapp/WhatsappProcessWrite.sol\":4431:4517  sessionByContent[keys_k1[0]][_resultXPath_k2].startNewSessionInterval(_accessDateTime) */\n      swap2\n      swap1\n      0xffffffff\n      and\n      jump\t// in\n    tag_84:\n        /* \"contracts/study-case-contracts/004-whatsapp/WhatsappProcessWrite.sol\":4159:4533  if(!exists_k1mapk2[keys_k1[0]][_resultXPath_k2]){... */\n    tag_63:\n        /* \"contracts/lib/eai/EAI.sol\":438:439  0 */\n      0x00\n        /* \"contracts/study-case-contracts/004-whatsapp/WhatsappProcessWrite.sol\":4552:4642  sessionByContent[keys_k1[0]][_resultXPath_k2].sessionStatus(_accessDateTime) == EAI.CLOSED */\n      0xff\n      and\n        /* \"contracts/study-case-contracts/004-whatsapp/WhatsappProcessWrite.sol\":4552:4628  sessionByContent[keys_k1[0]][_resultXPath_k2].sessionStatus(_accessDateTime) */\n      tag_91\n        /* \"contracts/study-case-contracts/004-whatsapp/WhatsappProcessWrite.sol\":4612:4627  _accessDateTime */\n      dup5\n        /* \"contracts/study-case-contracts/004-whatsapp/WhatsappProcessWrite.sol\":4552:4568  sessionByContent */\n      0x08\n        /* \"contracts/study-case-contracts/004-whatsapp/WhatsappProcessWrite.sol\":4569:4576  keys_k1 */\n      0x0a\n        /* \"contracts/study-case-contracts/004-whatsapp/WhatsappProcessWrite.sol\":4577:4578  0 */\n      0x00\n        /* \"contracts/study-case-contracts/004-whatsapp/WhatsappProcessWrite.sol\":4569:4579  keys_k1[0] */\n      dup2\n      sload\n      dup2\n      lt\n      tag_92\n      jumpi\n      tag_93\n      tag_52\n      jump\t// in\n    tag_93:\n    tag_92:\n      swap1\n      0x00\n      mstore\n      keccak256(0x00, 0x20)\n      add\n        /* \"contracts/study-case-contracts/004-whatsapp/WhatsappProcessWrite.sol\":4552:4580  sessionByContent[keys_k1[0]] */\n      mload(0x40)\n      tag_95\n      swap2\n      swap1\n      tag_60\n      jump\t// in\n    tag_95:\n      swap1\n      dup2\n      mstore\n      0x20\n      add\n      mload(0x40)\n      dup1\n      swap2\n      sub\n      swap1\n      keccak256\n        /* \"contracts/study-case-contracts/004-whatsapp/WhatsappProcessWrite.sol\":4581:4596  _resultXPath_k2 */\n      dup8\n        /* \"contracts/study-case-contracts/004-whatsapp/WhatsappProcessWrite.sol\":4552:4597  sessionByContent[keys_k1[0]][_resultXPath_k2] */\n      mload(0x40)\n      tag_96\n      swap2\n      swap1\n      tag_62\n      jump\t// in\n    tag_96:\n      swap1\n      dup2\n      mstore\n      0x20\n      add\n      mload(0x40)\n      dup1\n      swap2\n      sub\n      swap1\n      keccak256\n        /* \"contracts/study-case-contracts/004-whatsapp/WhatsappProcessWrite.sol\":4552:4611  sessionByContent[keys_k1[0]][_resultXPath_k2].sessionStatus */\n      mload(0x40)\n      dup1\n      0xa0\n      add\n      0x40\n      mstore\n      swap1\n      dup2\n      0x00\n      dup3\n      add\n      0x00\n      swap1\n      sload\n      swap1\n      0x0100\n      exp\n      swap1\n      div\n      0xff\n      and\n      0xff\n      and\n      0xff\n      and\n      dup2\n      mstore\n      0x20\n      add\n      0x00\n      dup3\n      add\n      0x01\n      swap1\n      sload\n      swap1\n      0x0100\n      exp\n      swap1\n      div\n      0xff\n      and\n      0xff\n      and\n      0xff\n      and\n      dup2\n      mstore\n      0x20\n      add\n      0x00\n      dup3\n      add\n      0x02\n      swap1\n      sload\n      swap1\n      0x0100\n      exp\n      swap1\n      div\n      0xffffffff\n      and\n      0xffffffff\n      and\n      0xffffffff\n      and\n      dup2\n      mstore\n      0x20\n      add\n      0x01\n      dup3\n      add\n      dup1\n      sload\n      tag_97\n      swap1\n      tag_81\n      jump\t// in\n    tag_97:\n      dup1\n      0x1f\n      add\n      0x20\n      dup1\n      swap2\n      div\n      mul\n      0x20\n      add\n      mload(0x40)\n      swap1\n      dup2\n      add\n      0x40\n      mstore\n      dup1\n      swap3\n      swap2\n      swap1\n      dup2\n      dup2\n      mstore\n      0x20\n      add\n      dup3\n      dup1\n      sload\n      tag_98\n      swap1\n      tag_81\n      jump\t// in\n    tag_98:\n      dup1\n      iszero\n      tag_99\n      jumpi\n      dup1\n      0x1f\n      lt\n      tag_100\n      jumpi\n      0x0100\n      dup1\n      dup4\n      sload\n      div\n      mul\n      dup4\n      mstore\n      swap2\n      0x20\n      add\n      swap2\n      jump(tag_99)\n    tag_100:\n      dup3\n      add\n      swap2\n      swap1\n      0x00\n      mstore\n      keccak256(0x00, 0x20)\n      swap1\n    tag_101:\n      dup2\n      sload\n      dup2\n      mstore\n      swap1\n      0x01\n      add\n      swap1\n      0x20\n      add\n      dup1\n      dup4\n      gt\n      tag_101\n      jumpi\n      dup3\n      swap1\n      sub\n      0x1f\n      and\n      dup3\n      add\n      swap2\n    tag_99:\n      pop\n      pop\n      pop\n      pop\n      pop\n      dup2\n      mstore\n      0x20\n      add\n      0x02\n      dup3\n      add\n      0x00\n      swap1\n      sload\n      swap1\n      0x0100\n      exp\n      swap1\n      div\n      0xffffffff\n      and\n      0xffffffff\n      and\n      0xffffffff\n      and\n      dup2\n      mstore\n      pop\n      pop\n      tag_102\n      swap1\n        /* \"contracts/study-case-contracts/004-whatsapp/WhatsappProcessWrite.sol\":4552:4628  sessionByContent[keys_k1[0]][_resultXPath_k2].sessionStatus(_accessDateTime) */\n      swap2\n      swap1\n      0xffffffff\n      and\n      jump\t// in\n    tag_91:\n        /* \"contracts/study-case-contracts/004-whatsapp/WhatsappProcessWrite.sol\":4552:4642  sessionByContent[keys_k1[0]][_resultXPath_k2].sessionStatus(_accessDateTime) == EAI.CLOSED */\n      eq\n        /* \"contracts/study-case-contracts/004-whatsapp/WhatsappProcessWrite.sol\":4552:4715  sessionByContent[keys_k1[0]][_resultXPath_k2].sessionStatus(_accessDateTime) == EAI.CLOSED &&... */\n      dup1\n      iszero\n      tag_103\n      jumpi\n      pop\n        /* \"contracts/study-case-contracts/004-whatsapp/WhatsappProcessWrite.sol\":4662:4715  _resultXPath_onlyString.isEqual(\"Business-initiated\") */\n      tag_104\n      mload(0x40)\n      dup1\n      0x40\n      add\n      0x40\n      mstore\n      dup1\n      0x12\n      dup2\n      mstore\n      0x20\n      add\n      0x427573696e6573732d696e697469617465640000000000000000000000000000\n      dup2\n      mstore\n      pop\n        /* \"contracts/study-case-contracts/004-whatsapp/WhatsappProcessWrite.sol\":4662:4685  _resultXPath_onlyString */\n      dup4\n        /* \"contracts/study-case-contracts/004-whatsapp/WhatsappProcessWrite.sol\":4662:4693  _resultXPath_onlyString.isEqual */\n      tag_105\n      swap1\n        /* \"contracts/study-case-contracts/004-whatsapp/WhatsappProcessWrite.sol\":4662:4715  _resultXPath_onlyString.isEqual(\"Business-initiated\") */\n      swap2\n      swap1\n      0xffffffff\n      and\n      jump\t// in\n    tag_104:\n        /* \"contracts/study-case-contracts/004-whatsapp/WhatsappProcessWrite.sol\":4552:4715  sessionByContent[keys_k1[0]][_resultXPath_k2].sessionStatus(_accessDateTime) == EAI.CLOSED &&... */\n    tag_103:\n        /* \"contracts/study-case-contracts/004-whatsapp/WhatsappProcessWrite.sol\":4549:5079  if(sessionByContent[keys_k1[0]][_resultXPath_k2].sessionStatus(_accessDateTime) == EAI.CLOSED &&... */\n      iszero\n      tag_106\n      jumpi\n        /* \"contracts/study-case-contracts/004-whatsapp/WhatsappProcessWrite.sol\":4842:4921  maxNumberOfOperationByTime_C1[0].hasAvailableOperations_ByTime(_accessDateTime) */\n      tag_107\n        /* \"contracts/study-case-contracts/004-whatsapp/WhatsappProcessWrite.sol\":4905:4920  _accessDateTime */\n      dup4\n        /* \"contracts/study-case-contracts/004-whatsapp/WhatsappProcessWrite.sol\":4842:4871  maxNumberOfOperationByTime_C1 */\n      0x0f\n        /* \"contracts/study-case-contracts/004-whatsapp/WhatsappProcessWrite.sol\":4872:4873  0 */\n      0x00\n        /* \"contracts/study-case-contracts/004-whatsapp/WhatsappProcessWrite.sol\":4842:4874  maxNumberOfOperationByTime_C1[0] */\n      dup2\n      sload\n      dup2\n      lt\n      tag_108\n      jumpi\n      tag_109\n      tag_52\n      jump\t// in\n    tag_109:\n    tag_108:\n      swap1\n      0x00\n      mstore\n      keccak256(0x00, 0x20)\n      add\n        /* \"contracts/study-case-contracts/004-whatsapp/WhatsappProcessWrite.sol\":4842:4904  maxNumberOfOperationByTime_C1[0].hasAvailableOperations_ByTime */\n      tag_111\n      swap1\n        /* \"contracts/study-case-contracts/004-whatsapp/WhatsappProcessWrite.sol\":4842:4921  maxNumberOfOperationByTime_C1[0].hasAvailableOperations_ByTime(_accessDateTime) */\n      swap2\n      swap1\n      0xffffffff\n      and\n      jump\t// in\n    tag_107:\n        /* \"contracts/study-case-contracts/004-whatsapp/WhatsappProcessWrite.sol\":4839:5061  if(maxNumberOfOperationByTime_C1[0].hasAvailableOperations_ByTime(_accessDateTime)){... */\n      iszero\n      tag_112\n      jumpi\n        /* \"contracts/study-case-contracts/004-whatsapp/WhatsappProcessWrite.sol\":4945:5007  maxNumberOfOperationByTime_C1[0].decreaseOneOperation_ByTime() */\n      tag_113\n        /* \"contracts/study-case-contracts/004-whatsapp/WhatsappProcessWrite.sol\":4945:4974  maxNumberOfOperationByTime_C1 */\n      0x0f\n        /* \"contracts/study-case-contracts/004-whatsapp/WhatsappProcessWrite.sol\":4975:4976  0 */\n      0x00\n        /* \"contracts/study-case-contracts/004-whatsapp/WhatsappProcessWrite.sol\":4945:4977  maxNumberOfOperationByTime_C1[0] */\n      dup2\n      sload\n      dup2\n      lt\n      tag_114\n      jumpi\n      tag_115\n      tag_52\n      jump\t// in\n    tag_115:\n    tag_114:\n      swap1\n      0x00\n      mstore\n      keccak256(0x00, 0x20)\n      add\n        /* \"contracts/study-case-contracts/004-whatsapp/WhatsappProcessWrite.sol\":4945:5005  maxNumberOfOperationByTime_C1[0].decreaseOneOperation_ByTime */\n      tag_117\n        /* \"contracts/study-case-contracts/004-whatsapp/WhatsappProcessWrite.sol\":4945:5007  maxNumberOfOperationByTime_C1[0].decreaseOneOperation_ByTime() */\n      jump\t// in\n    tag_113:\n        /* \"contracts/study-case-contracts/004-whatsapp/WhatsappProcessWrite.sol\":5037:5041  true */\n      0x01\n        /* \"contracts/study-case-contracts/004-whatsapp/WhatsappProcessWrite.sol\":5030:5041  return true */\n      swap1\n      pop\n      jump(tag_48)\n        /* \"contracts/study-case-contracts/004-whatsapp/WhatsappProcessWrite.sol\":4839:5061  if(maxNumberOfOperationByTime_C1[0].hasAvailableOperations_ByTime(_accessDateTime)){... */\n    tag_112:\n        /* \"contracts/study-case-contracts/004-whatsapp/WhatsappProcessWrite.sol\":4549:5079  if(sessionByContent[keys_k1[0]][_resultXPath_k2].sessionStatus(_accessDateTime) == EAI.CLOSED &&... */\n    tag_106:\n        /* \"contracts/study-case-contracts/004-whatsapp/WhatsappProcessWrite.sol\":4079:5090  if(weekDaysInterval_C1[0].isIntoWeekDaysInterval(_weekDayAccess)){... */\n    tag_55:\n        /* \"contracts/study-case-contracts/004-whatsapp/WhatsappProcessWrite.sol\":5109:5114  false */\n      0x00\n        /* \"contracts/study-case-contracts/004-whatsapp/WhatsappProcessWrite.sol\":5102:5114  return false */\n      swap1\n      pop\n        /* \"contracts/study-case-contracts/004-whatsapp/WhatsappProcessWrite.sol\":7495:7496  _ */\n    tag_48:\n        /* \"contracts/study-case-contracts/004-whatsapp/WhatsappProcessWrite.sol\":3889:5141  function rigth_sendMessage(uint8 _weekDayAccess, string memory _resultXPath_k2, uint32 _accessDateTime, string memory _resultXPath_onlyString) public onlyProcess() returns(bool){... */\n      swap5\n      swap4\n      pop\n      pop\n      pop\n      pop\n      jump\t// out\n        /* \"contracts/study-case-contracts/004-whatsapp/WhatsappProcessWrite.sol\":6075:6506  function changeApplicationParty(string memory _name, address _walletAddress) public returns(bool) {       ... */\n    tag_18:\n        /* \"contracts/study-case-contracts/004-whatsapp/WhatsappProcessWrite.sol\":6167:6171  bool */\n      0x00\n        /* \"contracts/study-case-contracts/004-whatsapp/WhatsappProcessWrite.sol\":6224:6234  msg.sender */\n      caller\n        /* \"contracts/study-case-contracts/004-whatsapp/WhatsappProcessWrite.sol\":6199:6234  process.walletAddress == msg.sender */\n      0xffffffffffffffffffffffffffffffffffffffff\n      and\n        /* \"contracts/study-case-contracts/004-whatsapp/WhatsappProcessWrite.sol\":6199:6206  process */\n      0x03\n        /* \"contracts/study-case-contracts/004-whatsapp/WhatsappProcessWrite.sol\":6199:6220  process.walletAddress */\n      0x01\n      add\n      0x00\n      swap1\n      sload\n      swap1\n      0x0100\n      exp\n      swap1\n      div\n      0xffffffffffffffffffffffffffffffffffffffff\n      and\n        /* \"contracts/study-case-contracts/004-whatsapp/WhatsappProcessWrite.sol\":6199:6234  process.walletAddress == msg.sender */\n      0xffffffffffffffffffffffffffffffffffffffff\n      and\n      eq\n        /* \"contracts/study-case-contracts/004-whatsapp/WhatsappProcessWrite.sol\":6191:6282  require(process.walletAddress == msg.sender, \"Only the process can execute this operation\") */\n      tag_119\n      jumpi\n      mload(0x40)\n      0x08c379a000000000000000000000000000000000000000000000000000000000\n      dup2\n      mstore\n      0x04\n      add\n      tag_120\n      swap1\n      tag_47\n      jump\t// in\n    tag_120:\n      mload(0x40)\n      dup1\n      swap2\n      sub\n      swap1\n      revert\n    tag_119:\n        /* \"contracts/study-case-contracts/004-whatsapp/WhatsappProcessWrite.sol\":6300:6308  mapParty */\n      0x05\n        /* \"contracts/study-case-contracts/004-whatsapp/WhatsappProcessWrite.sol\":6300:6335  mapParty[application.walletAddress] */\n      0x00\n        /* \"contracts/study-case-contracts/004-whatsapp/WhatsappProcessWrite.sol\":6309:6320  application */\n      0x01\n        /* \"contracts/study-case-contracts/004-whatsapp/WhatsappProcessWrite.sol\":6309:6334  application.walletAddress */\n      dup1\n      add\n      0x00\n      swap1\n      sload\n      swap1\n      0x0100\n      exp\n      swap1\n      div\n      0xffffffffffffffffffffffffffffffffffffffff\n      and\n        /* \"contracts/study-case-contracts/004-whatsapp/WhatsappProcessWrite.sol\":6300:6335  mapParty[application.walletAddress] */\n      0xffffffffffffffffffffffffffffffffffffffff\n      and\n      0xffffffffffffffffffffffffffffffffffffffff\n      and\n      dup2\n      mstore\n      0x20\n      add\n      swap1\n      dup2\n      mstore\n      0x20\n      add\n      0x00\n      keccak256\n      0x00\n        /* \"contracts/study-case-contracts/004-whatsapp/WhatsappProcessWrite.sol\":6293:6335  delete mapParty[application.walletAddress] */\n      dup1\n      dup3\n      add\n      0x00\n      tag_121\n      swap2\n      swap1\n      tag_122\n      jump\t// in\n    tag_121:\n      0x01\n      dup3\n      add\n      exp(0x0100, 0x00)\n      dup2\n      sload\n      swap1\n      0xffffffffffffffffffffffffffffffffffffffff\n      mul\n      not\n      and\n      swap1\n      sstore\n      0x01\n      dup3\n      add\n      exp(0x0100, 0x14)\n      dup2\n      sload\n      swap1\n      0xff\n      mul\n      not\n      and\n      swap1\n      sstore\n      pop\n      pop\n        /* \"contracts/study-case-contracts/004-whatsapp/WhatsappProcessWrite.sol\":6360:6405  EAI.createParty(_name, _walletAddress, false) */\n      tag_123\n        /* \"contracts/study-case-contracts/004-whatsapp/WhatsappProcessWrite.sol\":6376:6381  _name */\n      dup4\n        /* \"contracts/study-case-contracts/004-whatsapp/WhatsappProcessWrite.sol\":6383:6397  _walletAddress */\n      dup4\n        /* \"contracts/study-case-contracts/004-whatsapp/WhatsappProcessWrite.sol\":6399:6404  false */\n      0x00\n        /* \"contracts/study-case-contracts/004-whatsapp/WhatsappProcessWrite.sol\":6360:6375  EAI.createParty */\n      tag_36\n        /* \"contracts/study-case-contracts/004-whatsapp/WhatsappProcessWrite.sol\":6360:6405  EAI.createParty(_name, _walletAddress, false) */\n      jump\t// in\n    tag_123:\n        /* \"contracts/study-case-contracts/004-whatsapp/WhatsappProcessWrite.sol\":6346:6357  application */\n      0x01\n        /* \"contracts/study-case-contracts/004-whatsapp/WhatsappProcessWrite.sol\":6346:6405  application = EAI.createParty(_name, _walletAddress, false) */\n      0x00\n      dup3\n      add\n      mload\n      dup2\n      0x00\n      add\n      swap1\n      dup1\n      mload\n      swap1\n      0x20\n      add\n      swap1\n      tag_124\n      swap3\n      swap2\n      swap1\n      tag_71\n      jump\t// in\n    tag_124:\n      pop\n      0x20\n      dup3\n      add\n      mload\n      dup2\n      0x01\n      add\n      exp(0x0100, 0x00)\n      dup2\n      sload\n      dup2\n      0xffffffffffffffffffffffffffffffffffffffff\n      mul\n      not\n      and\n      swap1\n      dup4\n      0xffffffffffffffffffffffffffffffffffffffff\n      and\n      mul\n      or\n      swap1\n      sstore\n      pop\n      0x40\n      dup3\n      add\n      mload\n      dup2\n      0x01\n      add\n      exp(0x0100, 0x14)\n      dup2\n      sload\n      dup2\n      0xff\n      mul\n      not\n      and\n      swap1\n      dup4\n      iszero\n      iszero\n      mul\n      or\n      swap1\n      sstore\n      pop\n      swap1\n      pop\n      pop\n        /* \"contracts/study-case-contracts/004-whatsapp/WhatsappProcessWrite.sol\":6426:6469  updateMapParty(_walletAddress, application) */\n      tag_125\n        /* \"contracts/study-case-contracts/004-whatsapp/WhatsappProcessWrite.sol\":6441:6455  _walletAddress */\n      dup3\n        /* \"contracts/study-case-contracts/004-whatsapp/WhatsappProcessWrite.sol\":6457:6468  application */\n      0x01\n        /* \"contracts/study-case-contracts/004-whatsapp/WhatsappProcessWrite.sol\":6426:6440  updateMapParty */\n      tag_126\n        /* \"contracts/study-case-contracts/004-whatsapp/WhatsappProcessWrite.sol\":6426:6469  updateMapParty(_walletAddress, application) */\n      jump\t// in\n    tag_125:\n      pop\n        /* \"contracts/study-case-contracts/004-whatsapp/WhatsappProcessWrite.sol\":6487:6491  true */\n      0x01\n        /* \"contracts/study-case-contracts/004-whatsapp/WhatsappProcessWrite.sol\":6480:6491  return true */\n      swap1\n      pop\n        /* \"contracts/study-case-contracts/004-whatsapp/WhatsappProcessWrite.sol\":6075:6506  function changeApplicationParty(string memory _name, address _walletAddress) public returns(bool) {       ... */\n      swap3\n      swap2\n      pop\n      pop\n      jump\t// out\n        /* \"contracts/study-case-contracts/004-whatsapp/WhatsappProcessWrite.sol\":6654:6786  function getApplicationAddress() public view onlyInvolvedParties returns(address){... */\n    tag_21:\n        /* \"contracts/study-case-contracts/004-whatsapp/WhatsappProcessWrite.sol\":6727:6734  address */\n      0x00\n        /* \"contracts/study-case-contracts/004-whatsapp/WhatsappProcessWrite.sol\":7561:7570  activated */\n      dup1\n      0x00\n      swap1\n      sload\n      swap1\n      0x0100\n      exp\n      swap1\n      div\n      0xff\n      and\n        /* \"contracts/study-case-contracts/004-whatsapp/WhatsappProcessWrite.sol\":7553:7603  require(activated, \"This contract is deactivated\") */\n      tag_128\n      jumpi\n      mload(0x40)\n      0x08c379a000000000000000000000000000000000000000000000000000000000\n      dup2\n      mstore\n      0x04\n      add\n      tag_129\n      swap1\n      tag_44\n      jump\t// in\n    tag_129:\n      mload(0x40)\n      dup1\n      swap2\n      sub\n      swap1\n      revert\n    tag_128:\n        /* \"contracts/study-case-contracts/004-whatsapp/WhatsappProcessWrite.sol\":7666:7676  msg.sender */\n      caller\n        /* \"contracts/study-case-contracts/004-whatsapp/WhatsappProcessWrite.sol\":7637:7676  application.walletAddress == msg.sender */\n      0xffffffffffffffffffffffffffffffffffffffff\n      and\n        /* \"contracts/study-case-contracts/004-whatsapp/WhatsappProcessWrite.sol\":7637:7648  application */\n      0x01\n        /* \"contracts/study-case-contracts/004-whatsapp/WhatsappProcessWrite.sol\":7637:7662  application.walletAddress */\n      dup1\n      add\n      0x00\n      swap1\n      sload\n      swap1\n      0x0100\n      exp\n      swap1\n      div\n      0xffffffffffffffffffffffffffffffffffffffff\n      and\n        /* \"contracts/study-case-contracts/004-whatsapp/WhatsappProcessWrite.sol\":7637:7676  application.walletAddress == msg.sender */\n      0xffffffffffffffffffffffffffffffffffffffff\n      and\n      eq\n        /* \"contracts/study-case-contracts/004-whatsapp/WhatsappProcessWrite.sol\":7637:7715  application.walletAddress == msg.sender || process.walletAddress == msg.sender */\n      dup1\n      tag_130\n      jumpi\n      pop\n        /* \"contracts/study-case-contracts/004-whatsapp/WhatsappProcessWrite.sol\":7705:7715  msg.sender */\n      caller\n        /* \"contracts/study-case-contracts/004-whatsapp/WhatsappProcessWrite.sol\":7680:7715  process.walletAddress == msg.sender */\n      0xffffffffffffffffffffffffffffffffffffffff\n      and\n        /* \"contracts/study-case-contracts/004-whatsapp/WhatsappProcessWrite.sol\":7680:7687  process */\n      0x03\n        /* \"contracts/study-case-contracts/004-whatsapp/WhatsappProcessWrite.sol\":7680:7701  process.walletAddress */\n      0x01\n      add\n      0x00\n      swap1\n      sload\n      swap1\n      0x0100\n      exp\n      swap1\n      div\n      0xffffffffffffffffffffffffffffffffffffffff\n      and\n        /* \"contracts/study-case-contracts/004-whatsapp/WhatsappProcessWrite.sol\":7680:7715  process.walletAddress == msg.sender */\n      0xffffffffffffffffffffffffffffffffffffffff\n      and\n      eq\n        /* \"contracts/study-case-contracts/004-whatsapp/WhatsappProcessWrite.sol\":7637:7715  application.walletAddress == msg.sender || process.walletAddress == msg.sender */\n    tag_130:\n        /* \"contracts/study-case-contracts/004-whatsapp/WhatsappProcessWrite.sol\":7614:7798  require(... */\n      tag_131\n      jumpi\n      mload(0x40)\n      0x08c379a000000000000000000000000000000000000000000000000000000000\n      dup2\n      mstore\n      0x04\n      add\n      tag_132\n      swap1\n      tag_133\n      jump\t// in\n    tag_132:\n      mload(0x40)\n      dup1\n      swap2\n      sub\n      swap1\n      revert\n    tag_131:\n        /* \"contracts/study-case-contracts/004-whatsapp/WhatsappProcessWrite.sol\":6753:6764  application */\n      0x01\n        /* \"contracts/study-case-contracts/004-whatsapp/WhatsappProcessWrite.sol\":6753:6778  application.walletAddress */\n      dup1\n      add\n      0x00\n      swap1\n      sload\n      swap1\n      0x0100\n      exp\n      swap1\n      div\n      0xffffffffffffffffffffffffffffffffffffffff\n      and\n        /* \"contracts/study-case-contracts/004-whatsapp/WhatsappProcessWrite.sol\":6746:6778  return application.walletAddress */\n      swap1\n      pop\n        /* \"contracts/study-case-contracts/004-whatsapp/WhatsappProcessWrite.sol\":6654:6786  function getApplicationAddress() public view onlyInvolvedParties returns(address){... */\n      swap1\n      jump\t// out\n        /* \"contracts/study-case-contracts/004-whatsapp/WhatsappProcessWrite.sol\":6518:6642  function getProcessAddress() public view onlyInvolvedParties returns(address){... */\n    tag_25:\n        /* \"contracts/study-case-contracts/004-whatsapp/WhatsappProcessWrite.sol\":6587:6594  address */\n      0x00\n        /* \"contracts/study-case-contracts/004-whatsapp/WhatsappProcessWrite.sol\":7561:7570  activated */\n      dup1\n      0x00\n      swap1\n      sload\n      swap1\n      0x0100\n      exp\n      swap1\n      div\n      0xff\n      and\n        /* \"contracts/study-case-contracts/004-whatsapp/WhatsappProcessWrite.sol\":7553:7603  require(activated, \"This contract is deactivated\") */\n      tag_136\n      jumpi\n      mload(0x40)\n      0x08c379a000000000000000000000000000000000000000000000000000000000\n      dup2\n      mstore\n      0x04\n      add\n      tag_137\n      swap1\n      tag_44\n      jump\t// in\n    tag_137:\n      mload(0x40)\n      dup1\n      swap2\n      sub\n      swap1\n      revert\n    tag_136:\n        /* \"contracts/study-case-contracts/004-whatsapp/WhatsappProcessWrite.sol\":7666:7676  msg.sender */\n      caller\n        /* \"contracts/study-case-contracts/004-whatsapp/WhatsappProcessWrite.sol\":7637:7676  application.walletAddress == msg.sender */\n      0xffffffffffffffffffffffffffffffffffffffff\n      and\n        /* \"contracts/study-case-contracts/004-whatsapp/WhatsappProcessWrite.sol\":7637:7648  application */\n      0x01\n        /* \"contracts/study-case-contracts/004-whatsapp/WhatsappProcessWrite.sol\":7637:7662  application.walletAddress */\n      dup1\n      add\n      0x00\n      swap1\n      sload\n      swap1\n      0x0100\n      exp\n      swap1\n      div\n      0xffffffffffffffffffffffffffffffffffffffff\n      and\n        /* \"contracts/study-case-contracts/004-whatsapp/WhatsappProcessWrite.sol\":7637:7676  application.walletAddress == msg.sender */\n      0xffffffffffffffffffffffffffffffffffffffff\n      and\n      eq\n        /* \"contracts/study-case-contracts/004-whatsapp/WhatsappProcessWrite.sol\":7637:7715  application.walletAddress == msg.sender || process.walletAddress == msg.sender */\n      dup1\n      tag_138\n      jumpi\n      pop\n        /* \"contracts/study-case-contracts/004-whatsapp/WhatsappProcessWrite.sol\":7705:7715  msg.sender */\n      caller\n        /* \"contracts/study-case-contracts/004-whatsapp/WhatsappProcessWrite.sol\":7680:7715  process.walletAddress == msg.sender */\n      0xffffffffffffffffffffffffffffffffffffffff\n      and\n        /* \"contracts/study-case-contracts/004-whatsapp/WhatsappProcessWrite.sol\":7680:7687  process */\n      0x03\n        /* \"contracts/study-case-contracts/004-whatsapp/WhatsappProcessWrite.sol\":7680:7701  process.walletAddress */\n      0x01\n      add\n      0x00\n      swap1\n      sload\n      swap1\n      0x0100\n      exp\n      swap1\n      div\n      0xffffffffffffffffffffffffffffffffffffffff\n      and\n        /* \"contracts/study-case-contracts/004-whatsapp/WhatsappProcessWrite.sol\":7680:7715  process.walletAddress == msg.sender */\n      0xffffffffffffffffffffffffffffffffffffffff\n      and\n      eq\n        /* \"contracts/study-case-contracts/004-whatsapp/WhatsappProcessWrite.sol\":7637:7715  application.walletAddress == msg.sender || process.walletAddress == msg.sender */\n    tag_138:\n        /* \"contracts/study-case-contracts/004-whatsapp/WhatsappProcessWrite.sol\":7614:7798  require(... */\n      tag_139\n      jumpi\n      mload(0x40)\n      0x08c379a000000000000000000000000000000000000000000000000000000000\n      dup2\n      mstore\n      0x04\n      add\n      tag_140\n      swap1\n      tag_133\n      jump\t// in\n    tag_140:\n      mload(0x40)\n      dup1\n      swap2\n      sub\n      swap1\n      revert\n    tag_139:\n        /* \"contracts/study-case-contracts/004-whatsapp/WhatsappProcessWrite.sol\":6613:6620  process */\n      0x03\n        /* \"contracts/study-case-contracts/004-whatsapp/WhatsappProcessWrite.sol\":6613:6634  process.walletAddress */\n      0x01\n      add\n      0x00\n      swap1\n      sload\n      swap1\n      0x0100\n      exp\n      swap1\n      div\n      0xffffffffffffffffffffffffffffffffffffffff\n      and\n        /* \"contracts/study-case-contracts/004-whatsapp/WhatsappProcessWrite.sol\":6606:6634  return process.walletAddress */\n      swap1\n      pop\n        /* \"contracts/study-case-contracts/004-whatsapp/WhatsappProcessWrite.sol\":6518:6642  function getProcessAddress() public view onlyInvolvedParties returns(address){... */\n      swap1\n      jump\t// out\n        /* \"contracts/study-case-contracts/004-whatsapp/WhatsappProcessWrite.sol\":5475:5737  function signContract() public onlyApplication() returns(bool) {... */\n    tag_28:\n        /* \"contracts/study-case-contracts/004-whatsapp/WhatsappProcessWrite.sol\":5532:5536  bool */\n      0x00\n        /* \"contracts/study-case-contracts/004-whatsapp/WhatsappProcessWrite.sol\":7099:7108  activated */\n      dup1\n      0x00\n      swap1\n      sload\n      swap1\n      0x0100\n      exp\n      swap1\n      div\n      0xff\n      and\n        /* \"contracts/study-case-contracts/004-whatsapp/WhatsappProcessWrite.sol\":7091:7141  require(activated, \"This contract is deactivated\") */\n      tag_143\n      jumpi\n      mload(0x40)\n      0x08c379a000000000000000000000000000000000000000000000000000000000\n      dup2\n      mstore\n      0x04\n      add\n      tag_144\n      swap1\n      tag_44\n      jump\t// in\n    tag_144:\n      mload(0x40)\n      dup1\n      swap2\n      sub\n      swap1\n      revert\n    tag_143:\n        /* \"contracts/study-case-contracts/004-whatsapp/WhatsappProcessWrite.sol\":7201:7211  msg.sender */\n      caller\n        /* \"contracts/study-case-contracts/004-whatsapp/WhatsappProcessWrite.sol\":7172:7211  application.walletAddress == msg.sender */\n      0xffffffffffffffffffffffffffffffffffffffff\n      and\n        /* \"contracts/study-case-contracts/004-whatsapp/WhatsappProcessWrite.sol\":7172:7183  application */\n      0x01\n        /* \"contracts/study-case-contracts/004-whatsapp/WhatsappProcessWrite.sol\":7172:7197  application.walletAddress */\n      dup1\n      add\n      0x00\n      swap1\n      sload\n      swap1\n      0x0100\n      exp\n      swap1\n      div\n      0xffffffffffffffffffffffffffffffffffffffff\n      and\n        /* \"contracts/study-case-contracts/004-whatsapp/WhatsappProcessWrite.sol\":7172:7211  application.walletAddress == msg.sender */\n      0xffffffffffffffffffffffffffffffffffffffff\n      and\n      eq\n        /* \"contracts/study-case-contracts/004-whatsapp/WhatsappProcessWrite.sol\":7164:7263  require(application.walletAddress == msg.sender, \"Only the application can execute this operation\") */\n      tag_145\n      jumpi\n      mload(0x40)\n      0x08c379a000000000000000000000000000000000000000000000000000000000\n      dup2\n      mstore\n      0x04\n      add\n      tag_146\n      swap1\n      tag_147\n      jump\t// in\n    tag_146:\n      mload(0x40)\n      dup1\n      swap2\n      sub\n      swap1\n      revert\n    tag_145:\n        /* \"contracts/study-case-contracts/004-whatsapp/WhatsappProcessWrite.sol\":5578:5583  false */\n      0x00\n        /* \"contracts/study-case-contracts/004-whatsapp/WhatsappProcessWrite.sol\":5557:5583  application.aware == false */\n      iszero\n      iszero\n        /* \"contracts/study-case-contracts/004-whatsapp/WhatsappProcessWrite.sol\":5557:5568  application */\n      0x01\n        /* \"contracts/study-case-contracts/004-whatsapp/WhatsappProcessWrite.sol\":5557:5574  application.aware */\n      dup1\n      add\n      0x14\n      swap1\n      sload\n      swap1\n      0x0100\n      exp\n      swap1\n      div\n      0xff\n      and\n        /* \"contracts/study-case-contracts/004-whatsapp/WhatsappProcessWrite.sol\":5557:5583  application.aware == false */\n      iszero\n      iszero\n      eq\n        /* \"contracts/study-case-contracts/004-whatsapp/WhatsappProcessWrite.sol\":5549:5618  require(application.aware == false, \"The contract is already signed\") */\n      tag_149\n      jumpi\n      mload(0x40)\n      0x08c379a000000000000000000000000000000000000000000000000000000000\n      dup2\n      mstore\n      0x04\n      add\n      tag_150\n      swap1\n      tag_151\n      jump\t// in\n    tag_150:\n      mload(0x40)\n      dup1\n      swap2\n      sub\n      swap1\n      revert\n    tag_149:\n        /* \"contracts/study-case-contracts/004-whatsapp/WhatsappProcessWrite.sol\":5657:5661  true */\n      0x01\n        /* \"contracts/study-case-contracts/004-whatsapp/WhatsappProcessWrite.sol\":5637:5648  application */\n      dup1\n        /* \"contracts/study-case-contracts/004-whatsapp/WhatsappProcessWrite.sol\":5637:5654  application.aware */\n      0x01\n      add\n      0x14\n        /* \"contracts/study-case-contracts/004-whatsapp/WhatsappProcessWrite.sol\":5637:5661  application.aware = true */\n      0x0100\n      exp\n      dup2\n      sload\n      dup2\n      0xff\n      mul\n      not\n      and\n      swap1\n      dup4\n      iszero\n      iszero\n      mul\n      or\n      swap1\n      sstore\n      pop\n        /* \"contracts/study-case-contracts/004-whatsapp/WhatsappProcessWrite.sol\":5674:5713  updateMapParty(msg.sender, application) */\n      tag_152\n        /* \"contracts/study-case-contracts/004-whatsapp/WhatsappProcessWrite.sol\":5689:5699  msg.sender */\n      caller\n        /* \"contracts/study-case-contracts/004-whatsapp/WhatsappProcessWrite.sol\":5701:5712  application */\n      0x01\n        /* \"contracts/study-case-contracts/004-whatsapp/WhatsappProcessWrite.sol\":5674:5688  updateMapParty */\n      tag_126\n        /* \"contracts/study-case-contracts/004-whatsapp/WhatsappProcessWrite.sol\":5674:5713  updateMapParty(msg.sender, application) */\n      jump\t// in\n    tag_152:\n      pop\n        /* \"contracts/study-case-contracts/004-whatsapp/WhatsappProcessWrite.sol\":5725:5729  true */\n      0x01\n        /* \"contracts/study-case-contracts/004-whatsapp/WhatsappProcessWrite.sol\":5718:5729  return true */\n      swap1\n      pop\n        /* \"contracts/study-case-contracts/004-whatsapp/WhatsappProcessWrite.sol\":5475:5737  function signContract() public onlyApplication() returns(bool) {... */\n      swap1\n      jump\t// out\n        /* \"contracts/study-case-contracts/004-whatsapp/WhatsappProcessWrite.sol\":6794:6943  function getParty(address _walletAddress) public view onlyInvolvedParties returns(EAI.Party memory){... */\n    tag_33:\n        /* \"contracts/study-case-contracts/004-whatsapp/WhatsappProcessWrite.sol\":6876:6892  EAI.Party memory */\n      tag_153\n      tag_154\n      jump\t// in\n    tag_153:\n        /* \"contracts/study-case-contracts/004-whatsapp/WhatsappProcessWrite.sol\":7561:7570  activated */\n      0x00\n      dup1\n      sload\n      swap1\n      0x0100\n      exp\n      swap1\n      div\n      0xff\n      and\n        /* \"contracts/study-case-contracts/004-whatsapp/WhatsappProcessWrite.sol\":7553:7603  require(activated, \"This contract is deactivated\") */\n      tag_156\n      jumpi\n      mload(0x40)\n      0x08c379a000000000000000000000000000000000000000000000000000000000\n      dup2\n      mstore\n      0x04\n      add\n      tag_157\n      swap1\n      tag_44\n      jump\t// in\n    tag_157:\n      mload(0x40)\n      dup1\n      swap2\n      sub\n      swap1\n      revert\n    tag_156:\n        /* \"contracts/study-case-contracts/004-whatsapp/WhatsappProcessWrite.sol\":7666:7676  msg.sender */\n      caller\n        /* \"contracts/study-case-contracts/004-whatsapp/WhatsappProcessWrite.sol\":7637:7676  application.walletAddress == msg.sender */\n      0xffffffffffffffffffffffffffffffffffffffff\n      and\n        /* \"contracts/study-case-contracts/004-whatsapp/WhatsappProcessWrite.sol\":7637:7648  application */\n      0x01\n        /* \"contracts/study-case-contracts/004-whatsapp/WhatsappProcessWrite.sol\":7637:7662  application.walletAddress */\n      dup1\n      add\n      0x00\n      swap1\n      sload\n      swap1\n      0x0100\n      exp\n      swap1\n      div\n      0xffffffffffffffffffffffffffffffffffffffff\n      and\n        /* \"contracts/study-case-contracts/004-whatsapp/WhatsappProcessWrite.sol\":7637:7676  application.walletAddress == msg.sender */\n      0xffffffffffffffffffffffffffffffffffffffff\n      and\n      eq\n        /* \"contracts/study-case-contracts/004-whatsapp/WhatsappProcessWrite.sol\":7637:7715  application.walletAddress == msg.sender || process.walletAddress == msg.sender */\n      dup1\n      tag_158\n      jumpi\n      pop\n        /* \"contracts/study-case-contracts/004-whatsapp/WhatsappProcessWrite.sol\":7705:7715  msg.sender */\n      caller\n        /* \"contracts/study-case-contracts/004-whatsapp/WhatsappProcessWrite.sol\":7680:7715  process.walletAddress == msg.sender */\n      0xffffffffffffffffffffffffffffffffffffffff\n      and\n        /* \"contracts/study-case-contracts/004-whatsapp/WhatsappProcessWrite.sol\":7680:7687  process */\n      0x03\n        /* \"contracts/study-case-contracts/004-whatsapp/WhatsappProcessWrite.sol\":7680:7701  process.walletAddress */\n      0x01\n      add\n      0x00\n      swap1\n      sload\n      swap1\n      0x0100\n      exp\n      swap1\n      div\n      0xffffffffffffffffffffffffffffffffffffffff\n      and\n        /* \"contracts/study-case-contracts/004-whatsapp/WhatsappProcessWrite.sol\":7680:7715  process.walletAddress == msg.sender */\n      0xffffffffffffffffffffffffffffffffffffffff\n      and\n      eq\n        /* \"contracts/study-case-contracts/004-whatsapp/WhatsappProcessWrite.sol\":7637:7715  application.walletAddress == msg.sender || process.walletAddress == msg.sender */\n    tag_158:\n        /* \"contracts/study-case-contracts/004-whatsapp/WhatsappProcessWrite.sol\":7614:7798  require(... */\n      tag_159\n      jumpi\n      mload(0x40)\n      0x08c379a000000000000000000000000000000000000000000000000000000000\n      dup2\n      mstore\n      0x04\n      add\n      tag_160\n      swap1\n      tag_133\n      jump\t// in\n    tag_160:\n      mload(0x40)\n      dup1\n      swap2\n      sub\n      swap1\n      revert\n    tag_159:\n        /* \"contracts/study-case-contracts/004-whatsapp/WhatsappProcessWrite.sol\":6911:6919  mapParty */\n      0x05\n        /* \"contracts/study-case-contracts/004-whatsapp/WhatsappProcessWrite.sol\":6911:6935  mapParty[_walletAddress] */\n      0x00\n        /* \"contracts/study-case-contracts/004-whatsapp/WhatsappProcessWrite.sol\":6920:6934  _walletAddress */\n      dup4\n        /* \"contracts/study-case-contracts/004-whatsapp/WhatsappProcessWrite.sol\":6911:6935  mapParty[_walletAddress] */\n      0xffffffffffffffffffffffffffffffffffffffff\n      and\n      0xffffffffffffffffffffffffffffffffffffffff\n      and\n      dup2\n      mstore\n      0x20\n      add\n      swap1\n      dup2\n      mstore\n      0x20\n      add\n      0x00\n      keccak256\n        /* \"contracts/study-case-contracts/004-whatsapp/WhatsappProcessWrite.sol\":6904:6935  return mapParty[_walletAddress] */\n      mload(0x40)\n      dup1\n      0x60\n      add\n      0x40\n      mstore\n      swap1\n      dup2\n      0x00\n      dup3\n      add\n      dup1\n      sload\n      tag_162\n      swap1\n      tag_81\n      jump\t// in\n    tag_162:\n      dup1\n      0x1f\n      add\n      0x20\n      dup1\n      swap2\n      div\n      mul\n      0x20\n      add\n      mload(0x40)\n      swap1\n      dup2\n      add\n      0x40\n      mstore\n      dup1\n      swap3\n      swap2\n      swap1\n      dup2\n      dup2\n      mstore\n      0x20\n      add\n      dup3\n      dup1\n      sload\n      tag_163\n      swap1\n      tag_81\n      jump\t// in\n    tag_163:\n      dup1\n      iszero\n      tag_164\n      jumpi\n      dup1\n      0x1f\n      lt\n      tag_165\n      jumpi\n      0x0100\n      dup1\n      dup4\n      sload\n      div\n      mul\n      dup4\n      mstore\n      swap2\n      0x20\n      add\n      swap2\n      jump(tag_164)\n    tag_165:\n      dup3\n      add\n      swap2\n      swap1\n      0x00\n      mstore\n      keccak256(0x00, 0x20)\n      swap1\n    tag_166:\n      dup2\n      sload\n      dup2\n      mstore\n      swap1\n      0x01\n      add\n      swap1\n      0x20\n      add\n      dup1\n      dup4\n      gt\n      tag_166\n      jumpi\n      dup3\n      swap1\n      sub\n      0x1f\n      and\n      dup3\n      add\n      swap2\n    tag_164:\n      pop\n      pop\n      pop\n      pop\n      pop\n      dup2\n      mstore\n      0x20\n      add\n      0x01\n      dup3\n      add\n      0x00\n      swap1\n      sload\n      swap1\n      0x0100\n      exp\n      swap1\n      div\n      0xffffffffffffffffffffffffffffffffffffffff\n      and\n      0xffffffffffffffffffffffffffffffffffffffff\n      and\n      0xffffffffffffffffffffffffffffffffffffffff\n      and\n      dup2\n      mstore\n      0x20\n      add\n      0x01\n      dup3\n      add\n      0x14\n      swap1\n      sload\n      swap1\n      0x0100\n      exp\n      swap1\n      div\n      0xff\n      and\n      iszero\n      iszero\n      iszero\n      iszero\n      dup2\n      mstore\n      pop\n      pop\n      swap1\n      pop\n        /* \"contracts/study-case-contracts/004-whatsapp/WhatsappProcessWrite.sol\":6794:6943  function getParty(address _walletAddress) public view onlyInvolvedParties returns(EAI.Party memory){... */\n      swap2\n      swap1\n      pop\n      jump\t// out\n        /* \"contracts/lib/eai/EAI.sol\":1676:1852  function createParty(string memory _name, address _walletAddress, bool _aware) internal pure returns(Party memory){... */\n    tag_36:\n        /* \"contracts/lib/eai/EAI.sol\":1777:1789  Party memory */\n      tag_167\n      tag_154\n      jump\t// in\n    tag_167:\n        /* \"contracts/lib/eai/EAI.sol\":1808:1844  Party(_name, _walletAddress, _aware) */\n      mload(0x40)\n      dup1\n      0x60\n      add\n      0x40\n      mstore\n      dup1\n        /* \"contracts/lib/eai/EAI.sol\":1814:1819  _name */\n      dup6\n        /* \"contracts/lib/eai/EAI.sol\":1808:1844  Party(_name, _walletAddress, _aware) */\n      dup2\n      mstore\n      0x20\n      add\n        /* \"contracts/lib/eai/EAI.sol\":1821:1835  _walletAddress */\n      dup5\n        /* \"contracts/lib/eai/EAI.sol\":1808:1844  Party(_name, _walletAddress, _aware) */\n      0xffffffffffffffffffffffffffffffffffffffff\n      and\n      dup2\n      mstore\n      0x20\n      add\n        /* \"contracts/lib/eai/EAI.sol\":1837:1843  _aware */\n      dup4\n        /* \"contracts/lib/eai/EAI.sol\":1808:1844  Party(_name, _walletAddress, _aware) */\n      iszero\n      iszero\n      dup2\n      mstore\n      pop\n        /* \"contracts/lib/eai/EAI.sol\":1801:1844  return Party(_name, _walletAddress, _aware) */\n      swap1\n      pop\n        /* \"contracts/lib/eai/EAI.sol\":1676:1852  function createParty(string memory _name, address _walletAddress, bool _aware) internal pure returns(Party memory){... */\n      swap4\n      swap3\n      pop\n      pop\n      pop\n      jump\t// out\n        /* \"contracts/lib/eai/EAI.sol\":2896:3116  function createWeekDaysInterval(... */\n    tag_37:\n        /* \"contracts/lib/eai/EAI.sol\":3036:3059  WeekDaysInterval memory */\n      tag_169\n      tag_170\n      jump\t// in\n    tag_169:\n        /* \"contracts/lib/eai/EAI.sol\":3012:3018  _start */\n      dup3\n        /* \"contracts/lib/eai/EAI.sol\":3020:3024  _end */\n      dup3\n        /* \"contracts/lib/eai/EAI.sol\":519:520  0 */\n      0x00\n        /* \"contracts/lib/eai/EAI.sol\":5041:5060  _startDay >= SUNDAY */\n      0xff\n      and\n        /* \"contracts/lib/eai/EAI.sol\":5041:5050  _startDay */\n      dup3\n        /* \"contracts/lib/eai/EAI.sol\":5041:5060  _startDay >= SUNDAY */\n      0xff\n      and\n      lt\n      iszero\n        /* \"contracts/lib/eai/EAI.sol\":5041:5085  _startDay >= SUNDAY && _startDay <= SATURDAY */\n      dup1\n      iszero\n      tag_172\n      jumpi\n      pop\n        /* \"contracts/lib/eai/EAI.sol\":707:708  6 */\n      0x06\n        /* \"contracts/lib/eai/EAI.sol\":5064:5085  _startDay <= SATURDAY */\n      0xff\n      and\n        /* \"contracts/lib/eai/EAI.sol\":5064:5073  _startDay */\n      dup3\n        /* \"contracts/lib/eai/EAI.sol\":5064:5085  _startDay <= SATURDAY */\n      0xff\n      and\n      gt\n      iszero\n        /* \"contracts/lib/eai/EAI.sol\":5041:5085  _startDay >= SUNDAY && _startDay <= SATURDAY */\n    tag_172:\n        /* \"contracts/lib/eai/EAI.sol\":5032:5130  require( _startDay >= SUNDAY && _startDay <= SATURDAY, \"The _startDay not represents a valid day\") */\n      tag_173\n      jumpi\n      mload(0x40)\n      0x08c379a000000000000000000000000000000000000000000000000000000000\n      dup2\n      mstore\n      0x04\n      add\n      tag_174\n      swap1\n      tag_175\n      jump\t// in\n    tag_174:\n      mload(0x40)\n      dup1\n      swap2\n      sub\n      swap1\n      revert\n    tag_173:\n        /* \"contracts/lib/eai/EAI.sol\":519:520  0 */\n      0x00\n        /* \"contracts/lib/eai/EAI.sol\":5149:5166  _endDay >= SUNDAY */\n      0xff\n      and\n        /* \"contracts/lib/eai/EAI.sol\":5149:5156  _endDay */\n      dup2\n        /* \"contracts/lib/eai/EAI.sol\":5149:5166  _endDay >= SUNDAY */\n      0xff\n      and\n      lt\n      iszero\n        /* \"contracts/lib/eai/EAI.sol\":5149:5189  _endDay >= SUNDAY && _endDay <= SATURDAY */\n      dup1\n      iszero\n      tag_176\n      jumpi\n      pop\n        /* \"contracts/lib/eai/EAI.sol\":707:708  6 */\n      0x06\n        /* \"contracts/lib/eai/EAI.sol\":5170:5189  _endDay <= SATURDAY */\n      0xff\n      and\n        /* \"contracts/lib/eai/EAI.sol\":5170:5177  _endDay */\n      dup2\n        /* \"contracts/lib/eai/EAI.sol\":5170:5189  _endDay <= SATURDAY */\n      0xff\n      and\n      gt\n      iszero\n        /* \"contracts/lib/eai/EAI.sol\":5149:5189  _endDay >= SUNDAY && _endDay <= SATURDAY */\n    tag_176:\n        /* \"contracts/lib/eai/EAI.sol\":5141:5233  require(_endDay >= SUNDAY && _endDay <= SATURDAY,  \"The _endDay not represents a valid day\") */\n      tag_177\n      jumpi\n      mload(0x40)\n      0x08c379a000000000000000000000000000000000000000000000000000000000\n      dup2\n      mstore\n      0x04\n      add\n      tag_178\n      swap1\n      tag_179\n      jump\t// in\n    tag_178:\n      mload(0x40)\n      dup1\n      swap2\n      sub\n      swap1\n      revert\n    tag_177:\n        /* \"contracts/lib/eai/EAI.sol\":3078:3108  WeekDaysInterval(_start, _end) */\n      mload(0x40)\n      dup1\n      0x40\n      add\n      0x40\n      mstore\n      dup1\n        /* \"contracts/lib/eai/EAI.sol\":3095:3101  _start */\n      dup7\n        /* \"contracts/lib/eai/EAI.sol\":3078:3108  WeekDaysInterval(_start, _end) */\n      0xff\n      and\n      dup2\n      mstore\n      0x20\n      add\n        /* \"contracts/lib/eai/EAI.sol\":3103:3107  _end */\n      dup6\n        /* \"contracts/lib/eai/EAI.sol\":3078:3108  WeekDaysInterval(_start, _end) */\n      0xff\n      and\n      dup2\n      mstore\n      pop\n        /* \"contracts/lib/eai/EAI.sol\":3071:3108  return WeekDaysInterval(_start, _end) */\n      swap3\n      pop\n        /* \"contracts/lib/eai/EAI.sol\":2896:3116  function createWeekDaysInterval(... */\n      pop\n      pop\n      swap3\n      swap2\n      pop\n      pop\n      jump\t// out\n        /* \"contracts/lib/eai/EAI.sol\":23408:23794  function createSessionInteval(uint8 _duration, uint8 _timeUnit, string memory _xpath)internal pure returns (SessionInterval memory){... */\n    tag_38:\n        /* \"contracts/lib/eai/EAI.sol\":23516:23538  SessionInterval memory */\n      tag_181\n      tag_182\n      jump\t// in\n    tag_181:\n        /* \"contracts/lib/eai/EAI.sol\":23550:23575  uint32 _durationInSeconds */\n      0x00\n        /* \"contracts/lib/eai/EAI.sol\":872:873  4 */\n      0x04\n        /* \"contracts/lib/eai/EAI.sol\":23593:23610  _timeUnit <= WEEK */\n      0xff\n      and\n        /* \"contracts/lib/eai/EAI.sol\":23593:23602  _timeUnit */\n      dup5\n        /* \"contracts/lib/eai/EAI.sol\":23593:23610  _timeUnit <= WEEK */\n      0xff\n      and\n      gt\n        /* \"contracts/lib/eai/EAI.sol\":23590:23701  if(_timeUnit <= WEEK){... */\n      tag_184\n      jumpi\n        /* \"contracts/lib/eai/EAI.sol\":23647:23689  getIntervalInSeconds(_duration, _timeUnit) */\n      tag_185\n        /* \"contracts/lib/eai/EAI.sol\":23668:23677  _duration */\n      dup6\n        /* \"contracts/lib/eai/EAI.sol\":23647:23689  getIntervalInSeconds(_duration, _timeUnit) */\n      0xff\n      and\n        /* \"contracts/lib/eai/EAI.sol\":23679:23688  _timeUnit */\n      dup6\n        /* \"contracts/lib/eai/EAI.sol\":23647:23667  getIntervalInSeconds */\n      tag_186\n        /* \"contracts/lib/eai/EAI.sol\":23647:23689  getIntervalInSeconds(_duration, _timeUnit) */\n      jump\t// in\n    tag_185:\n        /* \"contracts/lib/eai/EAI.sol\":23626:23689  _durationInSeconds = getIntervalInSeconds(_duration, _timeUnit) */\n      swap1\n      pop\n        /* \"contracts/lib/eai/EAI.sol\":23590:23701  if(_timeUnit <= WEEK){... */\n    tag_184:\n        /* \"contracts/lib/eai/EAI.sol\":23718:23786  SessionInterval(_duration, _timeUnit, _durationInSeconds, _xpath, 0) */\n      mload(0x40)\n      dup1\n      0xa0\n      add\n      0x40\n      mstore\n      dup1\n        /* \"contracts/lib/eai/EAI.sol\":23734:23743  _duration */\n      dup7\n        /* \"contracts/lib/eai/EAI.sol\":23718:23786  SessionInterval(_duration, _timeUnit, _durationInSeconds, _xpath, 0) */\n      0xff\n      and\n      dup2\n      mstore\n      0x20\n      add\n        /* \"contracts/lib/eai/EAI.sol\":23745:23754  _timeUnit */\n      dup6\n        /* \"contracts/lib/eai/EAI.sol\":23718:23786  SessionInterval(_duration, _timeUnit, _durationInSeconds, _xpath, 0) */\n      0xff\n      and\n      dup2\n      mstore\n      0x20\n      add\n        /* \"contracts/lib/eai/EAI.sol\":23756:23774  _durationInSeconds */\n      dup3\n        /* \"contracts/lib/eai/EAI.sol\":23718:23786  SessionInterval(_duration, _timeUnit, _durationInSeconds, _xpath, 0) */\n      0xffffffff\n      and\n      dup2\n      mstore\n      0x20\n      add\n        /* \"contracts/lib/eai/EAI.sol\":23776:23782  _xpath */\n      dup5\n        /* \"contracts/lib/eai/EAI.sol\":23718:23786  SessionInterval(_duration, _timeUnit, _durationInSeconds, _xpath, 0) */\n      dup2\n      mstore\n      0x20\n      add\n        /* \"contracts/lib/eai/EAI.sol\":23784:23785  0 */\n      0x00\n        /* \"contracts/lib/eai/EAI.sol\":23718:23786  SessionInterval(_duration, _timeUnit, _durationInSeconds, _xpath, 0) */\n      0xffffffff\n      and\n      dup2\n      mstore\n      pop\n        /* \"contracts/lib/eai/EAI.sol\":23711:23786  return SessionInterval(_duration, _timeUnit, _durationInSeconds, _xpath, 0) */\n      swap2\n      pop\n      pop\n        /* \"contracts/lib/eai/EAI.sol\":23408:23794  function createSessionInteval(uint8 _duration, uint8 _timeUnit, string memory _xpath)internal pure returns (SessionInterval memory){... */\n      swap4\n      swap3\n      pop\n      pop\n      pop\n      jump\t// out\n        /* \"contracts/lib/eai/EAI.sol\":14612:14807  function createMessageContent_onlyXPath_String(string memory _xpath) internal pure returns(MessageContent_onlyXPath_String memory){... */\n    tag_39:\n        /* \"contracts/lib/eai/EAI.sol\":14703:14741  MessageContent_onlyXPath_String memory */\n      tag_187\n      tag_188\n      jump\t// in\n    tag_187:\n        /* \"contracts/lib/eai/EAI.sol\":14760:14799  MessageContent_onlyXPath_String(_xpath) */\n      mload(0x40)\n      dup1\n      0x20\n      add\n      0x40\n      mstore\n      dup1\n        /* \"contracts/lib/eai/EAI.sol\":14792:14798  _xpath */\n      dup4\n        /* \"contracts/lib/eai/EAI.sol\":14760:14799  MessageContent_onlyXPath_String(_xpath) */\n      dup2\n      mstore\n      pop\n        /* \"contracts/lib/eai/EAI.sol\":14753:14799  return MessageContent_onlyXPath_String(_xpath) */\n      swap1\n      pop\n        /* \"contracts/lib/eai/EAI.sol\":14612:14807  function createMessageContent_onlyXPath_String(string memory _xpath) internal pure returns(MessageContent_onlyXPath_String memory){... */\n      swap2\n      swap1\n      pop\n      jump\t// out\n        /* \"contracts/lib/eai/EAI.sol\":11004:11635  function createMaxNumberOfOperationByTime(... */\n    tag_40:\n        /* \"contracts/lib/eai/EAI.sol\":11129:11162  MaxNumberOfOperationByTime memory */\n      tag_190\n      tag_191\n      jump\t// in\n    tag_190:\n        /* \"contracts/lib/eai/EAI.sol\":11176:11192  uint32 auxByTime */\n      0x00\n        /* \"contracts/lib/eai/EAI.sol\":872:873  4 */\n      0x04\n        /* \"contracts/lib/eai/EAI.sol\":11208:11225  _timeUnit <= WEEK */\n      0xff\n      and\n        /* \"contracts/lib/eai/EAI.sol\":11208:11217  _timeUnit */\n      dup4\n        /* \"contracts/lib/eai/EAI.sol\":11208:11225  _timeUnit <= WEEK */\n      0xff\n      and\n      gt\n        /* \"contracts/lib/eai/EAI.sol\":11205:11541  if(_timeUnit <= WEEK){... */\n      tag_193\n      jumpi\n        /* \"contracts/lib/eai/EAI.sol\":11358:11385  getTimeInSeconds(_timeUnit) */\n      tag_194\n        /* \"contracts/lib/eai/EAI.sol\":11375:11384  _timeUnit */\n      dup4\n        /* \"contracts/lib/eai/EAI.sol\":11358:11374  getTimeInSeconds */\n      tag_195\n        /* \"contracts/lib/eai/EAI.sol\":11358:11385  getTimeInSeconds(_timeUnit) */\n      jump\t// in\n    tag_194:\n        /* \"contracts/lib/eai/EAI.sol\":11347:11385  auxByTime= getTimeInSeconds(_timeUnit) */\n      swap1\n      pop\n        /* \"contracts/lib/eai/EAI.sol\":11205:11541  if(_timeUnit <= WEEK){... */\n      jump(tag_196)\n    tag_193:\n        /* \"contracts/lib/eai/EAI.sol\":11527:11528  1 */\n      0x01\n        /* \"contracts/lib/eai/EAI.sol\":11515:11528  auxByTime = 1 */\n      swap1\n      pop\n        /* \"contracts/lib/eai/EAI.sol\":11205:11541  if(_timeUnit <= WEEK){... */\n    tag_196:\n        /* \"contracts/lib/eai/EAI.sol\":11558:11627  MaxNumberOfOperationByTime(_amount, _timeUnit, auxByTime, _amount, 0) */\n      mload(0x40)\n      dup1\n      0xa0\n      add\n      0x40\n      mstore\n      dup1\n        /* \"contracts/lib/eai/EAI.sol\":11585:11592  _amount */\n      dup6\n        /* \"contracts/lib/eai/EAI.sol\":11558:11627  MaxNumberOfOperationByTime(_amount, _timeUnit, auxByTime, _amount, 0) */\n      0xffffffff\n      and\n      dup2\n      mstore\n      0x20\n      add\n        /* \"contracts/lib/eai/EAI.sol\":11594:11603  _timeUnit */\n      dup5\n        /* \"contracts/lib/eai/EAI.sol\":11558:11627  MaxNumberOfOperationByTime(_amount, _timeUnit, auxByTime, _amount, 0) */\n      0xff\n      and\n      dup2\n      mstore\n      0x20\n      add\n        /* \"contracts/lib/eai/EAI.sol\":11605:11614  auxByTime */\n      dup3\n        /* \"contracts/lib/eai/EAI.sol\":11558:11627  MaxNumberOfOperationByTime(_amount, _timeUnit, auxByTime, _amount, 0) */\n      0xffffffff\n      and\n      dup2\n      mstore\n      0x20\n      add\n        /* \"contracts/lib/eai/EAI.sol\":11616:11623  _amount */\n      dup6\n        /* \"contracts/lib/eai/EAI.sol\":11558:11627  MaxNumberOfOperationByTime(_amount, _timeUnit, auxByTime, _amount, 0) */\n      0xffffffff\n      and\n      dup2\n      mstore\n      0x20\n      add\n        /* \"contracts/lib/eai/EAI.sol\":11625:11626  0 */\n      0x00\n        /* \"contracts/lib/eai/EAI.sol\":11558:11627  MaxNumberOfOperationByTime(_amount, _timeUnit, auxByTime, _amount, 0) */\n      0xffffffff\n      and\n      dup2\n      mstore\n      pop\n        /* \"contracts/lib/eai/EAI.sol\":11551:11627  return MaxNumberOfOperationByTime(_amount, _timeUnit, auxByTime, _amount, 0) */\n      swap2\n      pop\n      pop\n        /* \"contracts/lib/eai/EAI.sol\":11004:11635  function createMaxNumberOfOperationByTime(... */\n      swap3\n      swap2\n      pop\n      pop\n      jump\t// out\n        /* \"contracts/lib/eai/EAI.sol\":4319:4876  function isIntoWeekDaysInterval(       ... */\n    tag_54:\n        /* \"contracts/lib/eai/EAI.sol\":4468:4472  bool */\n      0x00\n        /* \"contracts/lib/eai/EAI.sol\":4516:4527  _wdInterval */\n      dup3\n        /* \"contracts/lib/eai/EAI.sol\":4516:4531  _wdInterval.end */\n      0x20\n      add\n      mload\n        /* \"contracts/lib/eai/EAI.sol\":4496:4531  _wdInterval.start < _wdInterval.end */\n      0xff\n      and\n        /* \"contracts/lib/eai/EAI.sol\":4496:4507  _wdInterval */\n      dup4\n        /* \"contracts/lib/eai/EAI.sol\":4496:4513  _wdInterval.start */\n      0x00\n      add\n      mload\n        /* \"contracts/lib/eai/EAI.sol\":4496:4531  _wdInterval.start < _wdInterval.end */\n      0xff\n      and\n      lt\n        /* \"contracts/lib/eai/EAI.sol\":4493:4840  if(_wdInterval.start < _wdInterval.end ){... */\n      iszero\n      tag_198\n      jumpi\n        /* \"contracts/lib/eai/EAI.sol\":4573:4584  _wdInterval */\n      dup3\n        /* \"contracts/lib/eai/EAI.sol\":4573:4590  _wdInterval.start */\n      0x00\n      add\n      mload\n        /* \"contracts/lib/eai/EAI.sol\":4555:4590  _weekDayAccess >= _wdInterval.start */\n      0xff\n      and\n        /* \"contracts/lib/eai/EAI.sol\":4555:4569  _weekDayAccess */\n      dup3\n        /* \"contracts/lib/eai/EAI.sol\":4555:4590  _weekDayAccess >= _wdInterval.start */\n      0xff\n      and\n      lt\n      iszero\n        /* \"contracts/lib/eai/EAI.sol\":4555:4627  _weekDayAccess >= _wdInterval.start &&  _weekDayAccess<= _wdInterval.end */\n      dup1\n      iszero\n      tag_199\n      jumpi\n      pop\n        /* \"contracts/lib/eai/EAI.sol\":4612:4623  _wdInterval */\n      dup3\n        /* \"contracts/lib/eai/EAI.sol\":4612:4627  _wdInterval.end */\n      0x20\n      add\n      mload\n        /* \"contracts/lib/eai/EAI.sol\":4595:4627  _weekDayAccess<= _wdInterval.end */\n      0xff\n      and\n        /* \"contracts/lib/eai/EAI.sol\":4595:4609  _weekDayAccess */\n      dup3\n        /* \"contracts/lib/eai/EAI.sol\":4595:4627  _weekDayAccess<= _wdInterval.end */\n      0xff\n      and\n      gt\n      iszero\n        /* \"contracts/lib/eai/EAI.sol\":4555:4627  _weekDayAccess >= _wdInterval.start &&  _weekDayAccess<= _wdInterval.end */\n    tag_199:\n        /* \"contracts/lib/eai/EAI.sol\":4552:4674  if(_weekDayAccess >= _wdInterval.start &&  _weekDayAccess<= _wdInterval.end){... */\n      iszero\n      tag_200\n      jumpi\n        /* \"contracts/lib/eai/EAI.sol\":4654:4658  true */\n      0x01\n        /* \"contracts/lib/eai/EAI.sol\":4647:4658  return true */\n      swap1\n      pop\n      jump(tag_197)\n        /* \"contracts/lib/eai/EAI.sol\":4552:4674  if(_weekDayAccess >= _wdInterval.start &&  _weekDayAccess<= _wdInterval.end){... */\n    tag_200:\n        /* \"contracts/lib/eai/EAI.sol\":4493:4840  if(_wdInterval.start < _wdInterval.end ){... */\n      jump(tag_201)\n    tag_198:\n        /* \"contracts/lib/eai/EAI.sol\":4726:4737  _wdInterval */\n      dup3\n        /* \"contracts/lib/eai/EAI.sol\":4726:4743  _wdInterval.start */\n      0x00\n      add\n      mload\n        /* \"contracts/lib/eai/EAI.sol\":4708:4743  _weekDayAccess >= _wdInterval.start */\n      0xff\n      and\n        /* \"contracts/lib/eai/EAI.sol\":4708:4722  _weekDayAccess */\n      dup3\n        /* \"contracts/lib/eai/EAI.sol\":4708:4743  _weekDayAccess >= _wdInterval.start */\n      0xff\n      and\n      lt\n      iszero\n        /* \"contracts/lib/eai/EAI.sol\":4708:4779  _weekDayAccess >= _wdInterval.start ||  _weekDayAccess<=_wdInterval.end */\n      dup1\n      tag_202\n      jumpi\n      pop\n        /* \"contracts/lib/eai/EAI.sol\":4764:4775  _wdInterval */\n      dup3\n        /* \"contracts/lib/eai/EAI.sol\":4764:4779  _wdInterval.end */\n      0x20\n      add\n      mload\n        /* \"contracts/lib/eai/EAI.sol\":4748:4779  _weekDayAccess<=_wdInterval.end */\n      0xff\n      and\n        /* \"contracts/lib/eai/EAI.sol\":4748:4762  _weekDayAccess */\n      dup3\n        /* \"contracts/lib/eai/EAI.sol\":4748:4779  _weekDayAccess<=_wdInterval.end */\n      0xff\n      and\n      gt\n      iszero\n        /* \"contracts/lib/eai/EAI.sol\":4708:4779  _weekDayAccess >= _wdInterval.start ||  _weekDayAccess<=_wdInterval.end */\n    tag_202:\n        /* \"contracts/lib/eai/EAI.sol\":4705:4826  if(_weekDayAccess >= _wdInterval.start ||  _weekDayAccess<=_wdInterval.end){... */\n      iszero\n      tag_203\n      jumpi\n        /* \"contracts/lib/eai/EAI.sol\":4806:4810  true */\n      0x01\n        /* \"contracts/lib/eai/EAI.sol\":4799:4810  return true */\n      swap1\n      pop\n      jump(tag_197)\n        /* \"contracts/lib/eai/EAI.sol\":4705:4826  if(_weekDayAccess >= _wdInterval.start ||  _weekDayAccess<=_wdInterval.end){... */\n    tag_203:\n        /* \"contracts/lib/eai/EAI.sol\":4493:4840  if(_wdInterval.start < _wdInterval.end ){... */\n    tag_201:\n        /* \"contracts/lib/eai/EAI.sol\":4864:4869  false */\n      0x00\n        /* \"contracts/lib/eai/EAI.sol\":4857:4869  return false */\n      swap1\n      pop\n        /* \"contracts/lib/eai/EAI.sol\":4319:4876  function isIntoWeekDaysInterval(       ... */\n    tag_197:\n      swap3\n      swap2\n      pop\n      pop\n      jump\t// out\n        /* \"contracts/lib/eai/EAI.sol\":24493:24888  function startNewSessionInterval(SessionInterval storage _session, uint32 _accessDateTime)internal{       ... */\n    tag_90:\n        /* \"contracts/lib/eai/EAI.sol\":24634:24635  0 */\n      0x00\n        /* \"contracts/lib/eai/EAI.sol\":24614:24622  _session */\n      dup3\n        /* \"contracts/lib/eai/EAI.sol\":24614:24630  _session.endTime */\n      0x02\n      add\n      0x00\n      swap1\n      sload\n      swap1\n      0x0100\n      exp\n      swap1\n      div\n      0xffffffff\n      and\n        /* \"contracts/lib/eai/EAI.sol\":24614:24635  _session.endTime == 0 */\n      0xffffffff\n      and\n      eq\n        /* \"contracts/lib/eai/EAI.sol\":24613:24677  (_session.endTime == 0) || (_accessDateTime >= _session.endTime) */\n      dup1\n      tag_205\n      jumpi\n      pop\n        /* \"contracts/lib/eai/EAI.sol\":24660:24668  _session */\n      dup2\n        /* \"contracts/lib/eai/EAI.sol\":24660:24676  _session.endTime */\n      0x02\n      add\n      0x00\n      swap1\n      sload\n      swap1\n      0x0100\n      exp\n      swap1\n      div\n      0xffffffff\n      and\n        /* \"contracts/lib/eai/EAI.sol\":24641:24676  _accessDateTime >= _session.endTime */\n      0xffffffff\n      and\n        /* \"contracts/lib/eai/EAI.sol\":24641:24656  _accessDateTime */\n      dup2\n        /* \"contracts/lib/eai/EAI.sol\":24641:24676  _accessDateTime >= _session.endTime */\n      0xffffffff\n      and\n      lt\n      iszero\n        /* \"contracts/lib/eai/EAI.sol\":24613:24677  (_session.endTime == 0) || (_accessDateTime >= _session.endTime) */\n    tag_205:\n        /* \"contracts/lib/eai/EAI.sol\":24609:24776  if ((_session.endTime == 0) || (_accessDateTime >= _session.endTime)){         ... */\n      iszero\n      tag_206\n      jumpi\n        /* \"contracts/lib/eai/EAI.sol\":24738:24746  _session */\n      dup2\n        /* \"contracts/lib/eai/EAI.sol\":24738:24764  _session.durationInSeconds */\n      0x00\n      add\n      0x02\n      swap1\n      sload\n      swap1\n      0x0100\n      exp\n      swap1\n      div\n      0xffffffff\n      and\n        /* \"contracts/lib/eai/EAI.sol\":24720:24735  _accessDateTime */\n      dup2\n        /* \"contracts/lib/eai/EAI.sol\":24720:24764  _accessDateTime + _session.durationInSeconds */\n      tag_207\n      swap2\n      swap1\n      tag_208\n      jump\t// in\n    tag_207:\n        /* \"contracts/lib/eai/EAI.sol\":24701:24709  _session */\n      dup3\n        /* \"contracts/lib/eai/EAI.sol\":24701:24717  _session.endTime */\n      0x02\n      add\n      0x00\n        /* \"contracts/lib/eai/EAI.sol\":24701:24764  _session.endTime = _accessDateTime + _session.durationInSeconds */\n      0x0100\n      exp\n      dup2\n      sload\n      dup2\n      0xffffffff\n      mul\n      not\n      and\n      swap1\n      dup4\n      0xffffffff\n      and\n      mul\n      or\n      swap1\n      sstore\n      pop\n        /* \"contracts/lib/eai/EAI.sol\":24609:24776  if ((_session.endTime == 0) || (_accessDateTime >= _session.endTime)){         ... */\n    tag_206:\n        /* \"contracts/lib/eai/EAI.sol\":24493:24888  function startNewSessionInterval(SessionInterval storage _session, uint32 _accessDateTime)internal{       ... */\n      pop\n      pop\n      jump\t// out\n        /* \"contracts/lib/eai/EAI.sol\":24062:24352  function sessionStatus(SessionInterval memory _session, uint32 _accessDateTime) internal  pure returns(uint){        ... */\n    tag_102:\n        /* \"contracts/lib/eai/EAI.sol\":24165:24169  uint */\n      0x00\n        /* \"contracts/lib/eai/EAI.sol\":24214:24215  0 */\n      dup1\n        /* \"contracts/lib/eai/EAI.sol\":24194:24202  _session */\n      dup4\n        /* \"contracts/lib/eai/EAI.sol\":24194:24210  _session.endTime */\n      0x80\n      add\n      mload\n        /* \"contracts/lib/eai/EAI.sol\":24194:24215  _session.endTime == 0 */\n      0xffffffff\n      and\n      eq\n        /* \"contracts/lib/eai/EAI.sol\":24193:24257  (_session.endTime == 0) || (_accessDateTime >= _session.endTime) */\n      dup1\n      tag_210\n      jumpi\n      pop\n        /* \"contracts/lib/eai/EAI.sol\":24240:24248  _session */\n      dup3\n        /* \"contracts/lib/eai/EAI.sol\":24240:24256  _session.endTime */\n      0x80\n      add\n      mload\n        /* \"contracts/lib/eai/EAI.sol\":24221:24256  _accessDateTime >= _session.endTime */\n      0xffffffff\n      and\n        /* \"contracts/lib/eai/EAI.sol\":24221:24236  _accessDateTime */\n      dup3\n        /* \"contracts/lib/eai/EAI.sol\":24221:24256  _accessDateTime >= _session.endTime */\n      0xffffffff\n      and\n      lt\n      iszero\n        /* \"contracts/lib/eai/EAI.sol\":24193:24257  (_session.endTime == 0) || (_accessDateTime >= _session.endTime) */\n    tag_210:\n        /* \"contracts/lib/eai/EAI.sol\":24189:24307  if ((_session.endTime == 0) || (_accessDateTime >= _session.endTime)){         ... */\n      iszero\n      tag_211\n      jumpi\n        /* \"contracts/lib/eai/EAI.sol\":438:439  0 */\n      0x00\n        /* \"contracts/lib/eai/EAI.sol\":24282:24295  return CLOSED */\n      0xff\n      and\n      swap1\n      pop\n      jump(tag_209)\n        /* \"contracts/lib/eai/EAI.sol\":24189:24307  if ((_session.endTime == 0) || (_accessDateTime >= _session.endTime)){         ... */\n    tag_211:\n        /* \"contracts/lib/eai/EAI.sol\":468:469  1 */\n      0x01\n        /* \"contracts/lib/eai/EAI.sol\":24325:24336  return OPEN */\n      0xff\n      and\n      swap1\n      pop\n        /* \"contracts/lib/eai/EAI.sol\":24062:24352  function sessionStatus(SessionInterval memory _session, uint32 _accessDateTime) internal  pure returns(uint){        ... */\n    tag_209:\n      swap3\n      swap2\n      pop\n      pop\n      jump\t// out\n        /* \"contracts/lib/eai/EAI.sol\":16229:16509  function isEqual(string memory str_1, string memory str_2) internal pure returns(bool){... */\n    tag_105:\n        /* \"contracts/lib/eai/EAI.sol\":16310:16314  bool */\n      0x00\n        /* \"contracts/lib/eai/EAI.sol\":16395:16400  str_2 */\n      dup2\n        /* \"contracts/lib/eai/EAI.sol\":16378:16401  abi.encodePacked(str_2) */\n      add(0x20, mload(0x40))\n      tag_213\n      swap2\n      swap1\n      tag_62\n      jump\t// in\n    tag_213:\n      mload(0x40)\n      0x20\n      dup2\n      dup4\n      sub\n      sub\n      dup2\n      mstore\n      swap1\n      0x40\n      mstore\n        /* \"contracts/lib/eai/EAI.sol\":16368:16402  keccak256(abi.encodePacked(str_2)) */\n      dup1\n      mload\n      swap1\n      0x20\n      add\n      keccak256\n        /* \"contracts/lib/eai/EAI.sol\":16357:16362  str_1 */\n      dup4\n        /* \"contracts/lib/eai/EAI.sol\":16340:16363  abi.encodePacked(str_1) */\n      add(0x20, mload(0x40))\n      tag_214\n      swap2\n      swap1\n      tag_62\n      jump\t// in\n    tag_214:\n      mload(0x40)\n      0x20\n      dup2\n      dup4\n      sub\n      sub\n      dup2\n      mstore\n      swap1\n      0x40\n      mstore\n        /* \"contracts/lib/eai/EAI.sol\":16330:16364  keccak256(abi.encodePacked(str_1)) */\n      dup1\n      mload\n      swap1\n      0x20\n      add\n      keccak256\n        /* \"contracts/lib/eai/EAI.sol\":16330:16402  keccak256(abi.encodePacked(str_1)) == keccak256(abi.encodePacked(str_2)) */\n      sub\n        /* \"contracts/lib/eai/EAI.sol\":16326:16502  if (keccak256(abi.encodePacked(str_1)) == keccak256(abi.encodePacked(str_2)) ) {... */\n      tag_215\n      jumpi\n        /* \"contracts/lib/eai/EAI.sol\":16431:16435  true */\n      0x01\n        /* \"contracts/lib/eai/EAI.sol\":16424:16435  return true */\n      swap1\n      pop\n      jump(tag_212)\n        /* \"contracts/lib/eai/EAI.sol\":16326:16502  if (keccak256(abi.encodePacked(str_1)) == keccak256(abi.encodePacked(str_2)) ) {... */\n    tag_215:\n        /* \"contracts/lib/eai/EAI.sol\":16481:16486  false */\n      0x00\n        /* \"contracts/lib/eai/EAI.sol\":16474:16486  return false */\n      swap1\n      pop\n        /* \"contracts/lib/eai/EAI.sol\":16229:16509  function isEqual(string memory str_1, string memory str_2) internal pure returns(bool){... */\n    tag_212:\n      swap3\n      swap2\n      pop\n      pop\n      jump\t// out\n        /* \"contracts/lib/eai/EAI.sol\":11654:12228  function hasAvailableOperations_ByTime(... */\n    tag_111:\n        /* \"contracts/lib/eai/EAI.sol\":11827:11831  bool */\n      0x00\n        /* \"contracts/lib/eai/EAI.sol\":11856:11980  isAccessDatetimeOutOfOldInterval(_maxNumberOfOperationByTime.timeUnit, _maxNumberOfOperationByTime.endTime, _accessDateTime) */\n      tag_218\n        /* \"contracts/lib/eai/EAI.sol\":11889:11916  _maxNumberOfOperationByTime */\n      dup4\n        /* \"contracts/lib/eai/EAI.sol\":11889:11925  _maxNumberOfOperationByTime.timeUnit */\n      0x00\n      add\n      0x04\n      swap1\n      sload\n      swap1\n      0x0100\n      exp\n      swap1\n      div\n      0xff\n      and\n        /* \"contracts/lib/eai/EAI.sol\":11927:11954  _maxNumberOfOperationByTime */\n      dup5\n        /* \"contracts/lib/eai/EAI.sol\":11927:11962  _maxNumberOfOperationByTime.endTime */\n      0x00\n      add\n      0x0d\n      swap1\n      sload\n      swap1\n      0x0100\n      exp\n      swap1\n      div\n      0xffffffff\n      and\n        /* \"contracts/lib/eai/EAI.sol\":11964:11979  _accessDateTime */\n      dup5\n        /* \"contracts/lib/eai/EAI.sol\":11856:11888  isAccessDatetimeOutOfOldInterval */\n      tag_219\n        /* \"contracts/lib/eai/EAI.sol\":11856:11980  isAccessDatetimeOutOfOldInterval(_maxNumberOfOperationByTime.timeUnit, _maxNumberOfOperationByTime.endTime, _accessDateTime) */\n      jump\t// in\n    tag_218:\n        /* \"contracts/lib/eai/EAI.sol\":11853:12090  if(isAccessDatetimeOutOfOldInterval(_maxNumberOfOperationByTime.timeUnit, _maxNumberOfOperationByTime.endTime, _accessDateTime)){... */\n      iszero\n      tag_220\n      jumpi\n        /* \"contracts/lib/eai/EAI.sol\":12000:12078  setNewEndTimeAndRestOfOperations(_maxNumberOfOperationByTime, _accessDateTime) */\n      tag_221\n        /* \"contracts/lib/eai/EAI.sol\":12033:12060  _maxNumberOfOperationByTime */\n      dup4\n        /* \"contracts/lib/eai/EAI.sol\":12062:12077  _accessDateTime */\n      dup4\n        /* \"contracts/lib/eai/EAI.sol\":12000:12032  setNewEndTimeAndRestOfOperations */\n      tag_222\n        /* \"contracts/lib/eai/EAI.sol\":12000:12078  setNewEndTimeAndRestOfOperations(_maxNumberOfOperationByTime, _accessDateTime) */\n      jump\t// in\n    tag_221:\n        /* \"contracts/lib/eai/EAI.sol\":11853:12090  if(isAccessDatetimeOutOfOldInterval(_maxNumberOfOperationByTime.timeUnit, _maxNumberOfOperationByTime.endTime, _accessDateTime)){... */\n    tag_220:\n        /* \"contracts/lib/eai/EAI.sol\":12148:12149  0 */\n      0x00\n        /* \"contracts/lib/eai/EAI.sol\":12113:12140  _maxNumberOfOperationByTime */\n      dup4\n        /* \"contracts/lib/eai/EAI.sol\":12113:12145  _maxNumberOfOperationByTime.rest */\n      0x00\n      add\n      0x09\n      swap1\n      sload\n      swap1\n      0x0100\n      exp\n      swap1\n      div\n      0xffffffff\n      and\n        /* \"contracts/lib/eai/EAI.sol\":12113:12149  _maxNumberOfOperationByTime.rest > 0 */\n      0xffffffff\n      and\n      gt\n        /* \"contracts/lib/eai/EAI.sol\":12110:12198  if(_maxNumberOfOperationByTime.rest > 0){          ... */\n      iszero\n      tag_223\n      jumpi\n        /* \"contracts/lib/eai/EAI.sol\":12182:12186  true */\n      0x01\n        /* \"contracts/lib/eai/EAI.sol\":12175:12186  return true */\n      swap1\n      pop\n      jump(tag_217)\n        /* \"contracts/lib/eai/EAI.sol\":12110:12198  if(_maxNumberOfOperationByTime.rest > 0){          ... */\n    tag_223:\n        /* \"contracts/lib/eai/EAI.sol\":12215:12220  false */\n      0x00\n        /* \"contracts/lib/eai/EAI.sol\":12208:12220  return false */\n      swap1\n      pop\n        /* \"contracts/lib/eai/EAI.sol\":11654:12228  function hasAvailableOperations_ByTime(... */\n    tag_217:\n      swap3\n      swap2\n      pop\n      pop\n      jump\t// out\n        /* \"contracts/lib/eai/EAI.sol\":12410:12576  function decreaseOneOperation_ByTime(MaxNumberOfOperationByTime storage _maxNumberOfOperationByTime) internal  {... */\n    tag_117:\n        /* \"contracts/lib/eai/EAI.sol\":12567:12568  1 */\n      0x01\n        /* \"contracts/lib/eai/EAI.sol\":12532:12559  _maxNumberOfOperationByTime */\n      dup2\n        /* \"contracts/lib/eai/EAI.sol\":12532:12564  _maxNumberOfOperationByTime.rest */\n      0x00\n      add\n      0x09\n        /* \"contracts/lib/eai/EAI.sol\":12532:12568  _maxNumberOfOperationByTime.rest -=1 */\n      dup3\n      dup3\n      dup3\n      swap1\n      sload\n      swap1\n      0x0100\n      exp\n      swap1\n      div\n      0xffffffff\n      and\n      tag_225\n      swap2\n      swap1\n      tag_226\n      jump\t// in\n    tag_225:\n      swap3\n      pop\n      0x0100\n      exp\n      dup2\n      sload\n      dup2\n      0xffffffff\n      mul\n      not\n      and\n      swap1\n      dup4\n      0xffffffff\n      and\n      mul\n      or\n      swap1\n      sstore\n      pop\n        /* \"contracts/lib/eai/EAI.sol\":12410:12576  function decreaseOneOperation_ByTime(MaxNumberOfOperationByTime storage _maxNumberOfOperationByTime) internal  {... */\n      pop\n      jump\t// out\n        /* \"contracts/study-case-contracts/004-whatsapp/WhatsappProcessWrite.sol\":5745:5915  function updateMapParty(address _walletAddress, EAI.Party storage _party)internal returns(bool){       ... */\n    tag_126:\n        /* \"contracts/study-case-contracts/004-whatsapp/WhatsappProcessWrite.sol\":5835:5839  bool */\n      0x00\n        /* \"contracts/study-case-contracts/004-whatsapp/WhatsappProcessWrite.sol\":5885:5891  _party */\n      dup2\n        /* \"contracts/study-case-contracts/004-whatsapp/WhatsappProcessWrite.sol\":5858:5866  mapParty */\n      0x05\n        /* \"contracts/study-case-contracts/004-whatsapp/WhatsappProcessWrite.sol\":5858:5882  mapParty[_walletAddress] */\n      0x00\n        /* \"contracts/study-case-contracts/004-whatsapp/WhatsappProcessWrite.sol\":5867:5881  _walletAddress */\n      dup6\n        /* \"contracts/study-case-contracts/004-whatsapp/WhatsappProcessWrite.sol\":5858:5882  mapParty[_walletAddress] */\n      0xffffffffffffffffffffffffffffffffffffffff\n      and\n      0xffffffffffffffffffffffffffffffffffffffff\n      and\n      dup2\n      mstore\n      0x20\n      add\n      swap1\n      dup2\n      mstore\n      0x20\n      add\n      0x00\n      keccak256\n        /* \"contracts/study-case-contracts/004-whatsapp/WhatsappProcessWrite.sol\":5858:5891  mapParty[_walletAddress] = _party */\n      0x00\n      dup3\n      add\n      dup2\n      0x00\n      add\n      swap1\n      dup1\n      sload\n      tag_228\n      swap1\n      tag_81\n      jump\t// in\n    tag_228:\n      tag_229\n      swap3\n      swap2\n      swap1\n      tag_83\n      jump\t// in\n    tag_229:\n      pop\n      0x01\n      dup3\n      add\n      0x00\n      swap1\n      sload\n      swap1\n      0x0100\n      exp\n      swap1\n      div\n      0xffffffffffffffffffffffffffffffffffffffff\n      and\n      dup2\n      0x01\n      add\n      exp(0x0100, 0x00)\n      dup2\n      sload\n      dup2\n      0xffffffffffffffffffffffffffffffffffffffff\n      mul\n      not\n      and\n      swap1\n      dup4\n      0xffffffffffffffffffffffffffffffffffffffff\n      and\n      mul\n      or\n      swap1\n      sstore\n      pop\n      0x01\n      dup3\n      add\n      0x14\n      swap1\n      sload\n      swap1\n      0x0100\n      exp\n      swap1\n      div\n      0xff\n      and\n      dup2\n      0x01\n      add\n      exp(0x0100, 0x14)\n      dup2\n      sload\n      dup2\n      0xff\n      mul\n      not\n      and\n      swap1\n      dup4\n      iszero\n      iszero\n      mul\n      or\n      swap1\n      sstore\n      pop\n      swap1\n      pop\n      pop\n        /* \"contracts/study-case-contracts/004-whatsapp/WhatsappProcessWrite.sol\":5903:5907  true */\n      0x01\n        /* \"contracts/study-case-contracts/004-whatsapp/WhatsappProcessWrite.sol\":5896:5907  return true */\n      swap1\n      pop\n        /* \"contracts/study-case-contracts/004-whatsapp/WhatsappProcessWrite.sol\":5745:5915  function updateMapParty(address _walletAddress, EAI.Party storage _party)internal returns(bool){       ... */\n      swap3\n      swap2\n      pop\n      pop\n      jump\t// out\n        /* \"contracts/lib/eai/EAI.sol\":27749:27961  function getIntervalInSeconds(uint32 _duration, uint8 _timeUnit)internal pure returns(uint32){... */\n    tag_186:\n        /* \"contracts/lib/eai/EAI.sol\":27835:27841  uint32 */\n      0x00\n        /* \"contracts/lib/eai/EAI.sol\":27852:27876  uint32 timeUnitInSeconds */\n      dup1\n        /* \"contracts/lib/eai/EAI.sol\":27880:27907  getTimeInSeconds(_timeUnit) */\n      tag_231\n        /* \"contracts/lib/eai/EAI.sol\":27897:27906  _timeUnit */\n      dup4\n        /* \"contracts/lib/eai/EAI.sol\":27880:27896  getTimeInSeconds */\n      tag_195\n        /* \"contracts/lib/eai/EAI.sol\":27880:27907  getTimeInSeconds(_timeUnit) */\n      jump\t// in\n    tag_231:\n        /* \"contracts/lib/eai/EAI.sol\":27852:27907  uint32 timeUnitInSeconds =  getTimeInSeconds(_timeUnit) */\n      swap1\n      pop\n        /* \"contracts/lib/eai/EAI.sol\":27936:27953  timeUnitInSeconds */\n      dup1\n        /* \"contracts/lib/eai/EAI.sol\":27924:27933  _duration */\n      dup5\n        /* \"contracts/lib/eai/EAI.sol\":27924:27953  _duration * timeUnitInSeconds */\n      tag_232\n      swap2\n      swap1\n      tag_233\n      jump\t// in\n    tag_232:\n        /* \"contracts/lib/eai/EAI.sol\":27917:27953  return _duration * timeUnitInSeconds */\n      swap2\n      pop\n      pop\n        /* \"contracts/lib/eai/EAI.sol\":27749:27961  function getIntervalInSeconds(uint32 _duration, uint8 _timeUnit)internal pure returns(uint32){... */\n      swap3\n      swap2\n      pop\n      pop\n      jump\t// out\n        /* \"contracts/lib/eai/EAI.sol\":27184:27733  function getTimeInSeconds(uint8 timeUnit) private pure returns(uint32){... */\n    tag_195:\n        /* \"contracts/lib/eai/EAI.sol\":27247:27253  uint32 */\n      0x00\n        /* \"contracts/lib/eai/EAI.sol\":872:873  4 */\n      0x04\n        /* \"contracts/lib/eai/EAI.sol\":27327:27343  timeUnit <= WEEK */\n      0xff\n      and\n        /* \"contracts/lib/eai/EAI.sol\":27327:27335  timeUnit */\n      dup3\n        /* \"contracts/lib/eai/EAI.sol\":27327:27343  timeUnit <= WEEK */\n      0xff\n      and\n      gt\n      iszero\n        /* \"contracts/lib/eai/EAI.sol\":27319:27407  require(timeUnit <= WEEK, \"The method getTimeInSeconds doesn't work for MONTH and YEAR\") */\n      tag_235\n      jumpi\n      mload(0x40)\n      0x08c379a000000000000000000000000000000000000000000000000000000000\n      dup2\n      mstore\n      0x04\n      add\n      tag_236\n      swap1\n      tag_237\n      jump\t// in\n    tag_236:\n      mload(0x40)\n      dup1\n      swap2\n      sub\n      swap1\n      revert\n    tag_235:\n        /* \"contracts/lib/eai/EAI.sol\":754:755  0 */\n      0x00\n        /* \"contracts/lib/eai/EAI.sol\":27423:27441  timeUnit == SECOND */\n      0xff\n      and\n        /* \"contracts/lib/eai/EAI.sol\":27423:27431  timeUnit */\n      dup3\n        /* \"contracts/lib/eai/EAI.sol\":27423:27441  timeUnit == SECOND */\n      0xff\n      and\n      sub\n        /* \"contracts/lib/eai/EAI.sol\":27420:27726  if(timeUnit == SECOND){... */\n      tag_238\n      jumpi\n        /* \"contracts/lib/eai/EAI.sol\":27464:27465  1 */\n      0x01\n        /* \"contracts/lib/eai/EAI.sol\":27457:27465  return 1 */\n      swap1\n      pop\n      jump(tag_234)\n        /* \"contracts/lib/eai/EAI.sol\":27420:27726  if(timeUnit == SECOND){... */\n    tag_238:\n        /* \"contracts/lib/eai/EAI.sol\":786:787  1 */\n      0x01\n        /* \"contracts/lib/eai/EAI.sol\":27485:27503  timeUnit == MINUTE */\n      0xff\n      and\n        /* \"contracts/lib/eai/EAI.sol\":27485:27493  timeUnit */\n      dup3\n        /* \"contracts/lib/eai/EAI.sol\":27485:27503  timeUnit == MINUTE */\n      0xff\n      and\n      sub\n        /* \"contracts/lib/eai/EAI.sol\":27482:27726  if(timeUnit == MINUTE){... */\n      tag_240\n      jumpi\n        /* \"contracts/lib/eai/EAI.sol\":27526:27528  60 */\n      0x3c\n        /* \"contracts/lib/eai/EAI.sol\":27519:27528  return 60 */\n      swap1\n      pop\n      jump(tag_234)\n        /* \"contracts/lib/eai/EAI.sol\":27482:27726  if(timeUnit == MINUTE){... */\n    tag_240:\n        /* \"contracts/lib/eai/EAI.sol\":815:816  2 */\n      0x02\n        /* \"contracts/lib/eai/EAI.sol\":27548:27564  timeUnit == HOUR */\n      0xff\n      and\n        /* \"contracts/lib/eai/EAI.sol\":27548:27556  timeUnit */\n      dup3\n        /* \"contracts/lib/eai/EAI.sol\":27548:27564  timeUnit == HOUR */\n      0xff\n      and\n      sub\n        /* \"contracts/lib/eai/EAI.sol\":27545:27726  if(timeUnit == HOUR ){... */\n      tag_242\n      jumpi\n        /* \"contracts/lib/eai/EAI.sol\":27588:27593  60*60 */\n      0x0e10\n        /* \"contracts/lib/eai/EAI.sol\":27581:27593  return 60*60 */\n      swap1\n      pop\n      jump(tag_234)\n        /* \"contracts/lib/eai/EAI.sol\":27545:27726  if(timeUnit == HOUR ){... */\n    tag_242:\n        /* \"contracts/lib/eai/EAI.sol\":843:844  3 */\n      0x03\n        /* \"contracts/lib/eai/EAI.sol\":27613:27628  timeUnit == DAY */\n      0xff\n      and\n        /* \"contracts/lib/eai/EAI.sol\":27613:27621  timeUnit */\n      dup3\n        /* \"contracts/lib/eai/EAI.sol\":27613:27628  timeUnit == DAY */\n      0xff\n      and\n      sub\n        /* \"contracts/lib/eai/EAI.sol\":27610:27726  if(timeUnit == DAY){... */\n      tag_244\n      jumpi\n        /* \"contracts/lib/eai/EAI.sol\":27651:27659  60*60*24 */\n      0x015180\n        /* \"contracts/lib/eai/EAI.sol\":27644:27659  return 60*60*24 */\n      swap1\n      pop\n      jump(tag_234)\n        /* \"contracts/lib/eai/EAI.sol\":27610:27726  if(timeUnit == DAY){... */\n    tag_244:\n        /* \"contracts/lib/eai/EAI.sol\":27697:27707  60*60*24*7 */\n      0x093a80\n        /* \"contracts/lib/eai/EAI.sol\":27690:27707  return 60*60*24*7 */\n      swap1\n      pop\n        /* \"contracts/lib/eai/EAI.sol\":27184:27733  function getTimeInSeconds(uint8 timeUnit) private pure returns(uint32){... */\n    tag_234:\n      swap2\n      swap1\n      pop\n      jump\t// out\n        /* \"contracts/lib/eai/EAI.sol\":25308:25996  function isAccessDatetimeOutOfOldInterval(uint8 _timeUnit, uint32 _endTime, ... */\n    tag_219:\n        /* \"contracts/lib/eai/EAI.sol\":25450:25454  bool */\n      0x00\n        /* \"contracts/lib/eai/EAI.sol\":25477:25491  uint8 timeUnit */\n      dup1\n        /* \"contracts/lib/eai/EAI.sol\":25494:25503  _timeUnit */\n      dup5\n        /* \"contracts/lib/eai/EAI.sol\":25477:25503  uint8 timeUnit = _timeUnit */\n      swap1\n      pop\n        /* \"contracts/lib/eai/EAI.sol\":872:873  4 */\n      0x04\n        /* \"contracts/lib/eai/EAI.sol\":25517:25533  timeUnit <= WEEK */\n      0xff\n      and\n        /* \"contracts/lib/eai/EAI.sol\":25517:25525  timeUnit */\n      dup2\n        /* \"contracts/lib/eai/EAI.sol\":25517:25533  timeUnit <= WEEK */\n      0xff\n      and\n      gt\n        /* \"contracts/lib/eai/EAI.sol\":25514:25858  if(timeUnit <= WEEK){... */\n      tag_247\n      jumpi\n        /* \"contracts/lib/eai/EAI.sol\":25575:25583  _endTime */\n      dup4\n        /* \"contracts/lib/eai/EAI.sol\":25556:25583  _accessDateTime >= _endTime */\n      0xffffffff\n      and\n        /* \"contracts/lib/eai/EAI.sol\":25556:25571  _accessDateTime */\n      dup4\n        /* \"contracts/lib/eai/EAI.sol\":25556:25583  _accessDateTime >= _endTime */\n      0xffffffff\n      and\n      lt\n      iszero\n        /* \"contracts/lib/eai/EAI.sol\":25549:25583  return _accessDateTime >= _endTime */\n      swap2\n      pop\n      pop\n      jump(tag_246)\n        /* \"contracts/lib/eai/EAI.sol\":25514:25858  if(timeUnit <= WEEK){... */\n    tag_247:\n        /* \"contracts/lib/eai/EAI.sol\":902:903  5 */\n      0x05\n        /* \"contracts/lib/eai/EAI.sol\":25604:25621  timeUnit == MONTH */\n      0xff\n      and\n        /* \"contracts/lib/eai/EAI.sol\":25604:25612  timeUnit */\n      dup2\n        /* \"contracts/lib/eai/EAI.sol\":25604:25621  timeUnit == MONTH */\n      0xff\n      and\n      sub\n        /* \"contracts/lib/eai/EAI.sol\":25601:25858  if(timeUnit == MONTH) {            ... */\n      tag_249\n      jumpi\n        /* \"contracts/lib/eai/EAI.sol\":25652:25664  uint32 month */\n      0x00\n        /* \"contracts/lib/eai/EAI.sol\":25669:25701  timeStampToDate(_accessDateTime) */\n      tag_250\n        /* \"contracts/lib/eai/EAI.sol\":25685:25700  _accessDateTime */\n      dup5\n        /* \"contracts/lib/eai/EAI.sol\":25669:25701  timeStampToDate(_accessDateTime) */\n      0xffffffff\n      and\n        /* \"contracts/lib/eai/EAI.sol\":25669:25684  timeStampToDate */\n      tag_251\n        /* \"contracts/lib/eai/EAI.sol\":25669:25701  timeStampToDate(_accessDateTime) */\n      jump\t// in\n    tag_250:\n        /* \"contracts/lib/eai/EAI.sol\":25650:25701  (,uint32 month,) = timeStampToDate(_accessDateTime) */\n      pop\n      swap2\n      pop\n      pop\n        /* \"contracts/lib/eai/EAI.sol\":25736:25738  13 */\n      0x0d\n        /* \"contracts/lib/eai/EAI.sol\":25724:25732  _endTime */\n      dup6\n        /* \"contracts/lib/eai/EAI.sol\":25724:25738  _endTime == 13 */\n      0xffffffff\n      and\n      eq\n        /* \"contracts/lib/eai/EAI.sol\":25723:25753  (_endTime == 13) && (month==1) */\n      dup1\n      iszero\n      tag_252\n      jumpi\n      pop\n        /* \"contracts/lib/eai/EAI.sol\":25751:25752  1 */\n      0x01\n        /* \"contracts/lib/eai/EAI.sol\":25744:25749  month */\n      dup2\n        /* \"contracts/lib/eai/EAI.sol\":25744:25752  month==1 */\n      0xffffffff\n      and\n      eq\n        /* \"contracts/lib/eai/EAI.sol\":25723:25753  (_endTime == 13) && (month==1) */\n    tag_252:\n        /* \"contracts/lib/eai/EAI.sol\":25720:25800  if((_endTime == 13) && (month==1)){... */\n      iszero\n      tag_253\n      jumpi\n        /* \"contracts/lib/eai/EAI.sol\":25780:25784  true */\n      0x01\n        /* \"contracts/lib/eai/EAI.sol\":25773:25784  return true */\n      swap3\n      pop\n      pop\n      pop\n      jump(tag_246)\n        /* \"contracts/lib/eai/EAI.sol\":25720:25800  if((_endTime == 13) && (month==1)){... */\n    tag_253:\n        /* \"contracts/lib/eai/EAI.sol\":25838:25846  _endTime */\n      dup5\n        /* \"contracts/lib/eai/EAI.sol\":25829:25846  month >= _endTime */\n      0xffffffff\n      and\n        /* \"contracts/lib/eai/EAI.sol\":25829:25834  month */\n      dup2\n        /* \"contracts/lib/eai/EAI.sol\":25829:25846  month >= _endTime */\n      0xffffffff\n      and\n      lt\n      iszero\n        /* \"contracts/lib/eai/EAI.sol\":25822:25846  return month >= _endTime */\n      swap3\n      pop\n      pop\n      pop\n      jump(tag_246)\n        /* \"contracts/lib/eai/EAI.sol\":25601:25858  if(timeUnit == MONTH) {            ... */\n    tag_249:\n        /* \"contracts/lib/eai/EAI.sol\":25904:25915  uint32 year */\n      0x00\n        /* \"contracts/lib/eai/EAI.sol\":25922:25954  timeStampToDate(_accessDateTime) */\n      tag_254\n        /* \"contracts/lib/eai/EAI.sol\":25938:25953  _accessDateTime */\n      dup5\n        /* \"contracts/lib/eai/EAI.sol\":25922:25954  timeStampToDate(_accessDateTime) */\n      0xffffffff\n      and\n        /* \"contracts/lib/eai/EAI.sol\":25922:25937  timeStampToDate */\n      tag_251\n        /* \"contracts/lib/eai/EAI.sol\":25922:25954  timeStampToDate(_accessDateTime) */\n      jump\t// in\n    tag_254:\n        /* \"contracts/lib/eai/EAI.sol\":25903:25954  (uint32 year, ,) = timeStampToDate(_accessDateTime) */\n      pop\n      pop\n      swap1\n      pop\n        /* \"contracts/lib/eai/EAI.sol\":25980:25988  _endTime */\n      dup5\n        /* \"contracts/lib/eai/EAI.sol\":25972:25988  year >= _endTime */\n      0xffffffff\n      and\n        /* \"contracts/lib/eai/EAI.sol\":25972:25976  year */\n      dup2\n        /* \"contracts/lib/eai/EAI.sol\":25972:25988  year >= _endTime */\n      0xffffffff\n      and\n      lt\n      iszero\n        /* \"contracts/lib/eai/EAI.sol\":25965:25988  return year >= _endTime */\n      swap3\n      pop\n      pop\n      pop\n        /* \"contracts/lib/eai/EAI.sol\":25308:25996  function isAccessDatetimeOutOfOldInterval(uint8 _timeUnit, uint32 _endTime, ... */\n    tag_246:\n      swap4\n      swap3\n      pop\n      pop\n      pop\n      jump\t// out\n        /* \"contracts/lib/eai/EAI.sol\":12589:13197  function setNewEndTimeAndRestOfOperations(... */\n    tag_222:\n        /* \"contracts/lib/eai/EAI.sol\":12802:12829  _maxNumberOfOperationByTime */\n      dup2\n        /* \"contracts/lib/eai/EAI.sol\":12802:12836  _maxNumberOfOperationByTime.amount */\n      0x00\n      add\n      0x00\n      swap1\n      sload\n      swap1\n      0x0100\n      exp\n      swap1\n      div\n      0xffffffff\n      and\n        /* \"contracts/lib/eai/EAI.sol\":12767:12794  _maxNumberOfOperationByTime */\n      dup3\n        /* \"contracts/lib/eai/EAI.sol\":12767:12799  _maxNumberOfOperationByTime.rest */\n      0x00\n      add\n      0x09\n        /* \"contracts/lib/eai/EAI.sol\":12767:12836  _maxNumberOfOperationByTime.rest = _maxNumberOfOperationByTime.amount */\n      0x0100\n      exp\n      dup2\n      sload\n      dup2\n      0xffffffff\n      mul\n      not\n      and\n      swap1\n      dup4\n      0xffffffff\n      and\n      mul\n      or\n      swap1\n      sstore\n      pop\n        /* \"contracts/lib/eai/EAI.sol\":12885:13189  calcNextEndTime(... */\n      tag_256\n        /* \"contracts/lib/eai/EAI.sol\":12951:12978  _maxNumberOfOperationByTime */\n      dup3\n        /* \"contracts/lib/eai/EAI.sol\":12951:12985  _maxNumberOfOperationByTime.byTime */\n      0x00\n      add\n      0x05\n      swap1\n      sload\n      swap1\n      0x0100\n      exp\n      swap1\n      div\n      0xffffffff\n      and\n        /* \"contracts/lib/eai/EAI.sol\":13036:13063  _maxNumberOfOperationByTime */\n      dup4\n        /* \"contracts/lib/eai/EAI.sol\":13036:13072  _maxNumberOfOperationByTime.timeUnit */\n      0x00\n      add\n      0x04\n      swap1\n      sload\n      swap1\n      0x0100\n      exp\n      swap1\n      div\n      0xff\n      and\n        /* \"contracts/lib/eai/EAI.sol\":13123:13138  _accessDateTime */\n      dup4\n        /* \"contracts/lib/eai/EAI.sol\":12885:12900  calcNextEndTime */\n      tag_257\n        /* \"contracts/lib/eai/EAI.sol\":12885:13189  calcNextEndTime(... */\n      jump\t// in\n    tag_256:\n        /* \"contracts/lib/eai/EAI.sol\":12847:12874  _maxNumberOfOperationByTime */\n      dup3\n        /* \"contracts/lib/eai/EAI.sol\":12847:12882  _maxNumberOfOperationByTime.endTime */\n      0x00\n      add\n      0x0d\n        /* \"contracts/lib/eai/EAI.sol\":12847:13189  _maxNumberOfOperationByTime.endTime = calcNextEndTime(... */\n      0x0100\n      exp\n      dup2\n      sload\n      dup2\n      0xffffffff\n      mul\n      not\n      and\n      swap1\n      dup4\n      0xffffffff\n      and\n      mul\n      or\n      swap1\n      sstore\n      pop\n        /* \"contracts/lib/eai/EAI.sol\":12589:13197  function setNewEndTimeAndRestOfOperations(... */\n      pop\n      pop\n      jump\t// out\n        /* \"contracts/lib/eai/EAI.sol\":27969:28665  function timeStampToDate(uint _timestamp) internal pure returns (uint32 year, uint32 month, uint32 day) {... */\n    tag_251:\n        /* \"contracts/lib/eai/EAI.sol\":28034:28045  uint32 year */\n      0x00\n        /* \"contracts/lib/eai/EAI.sol\":28047:28059  uint32 month */\n      dup1\n        /* \"contracts/lib/eai/EAI.sol\":28061:28071  uint32 day */\n      0x00\n        /* \"contracts/lib/eai/EAI.sol\":28093:28106  uint32 __days */\n      dup1\n        /* \"contracts/lib/eai/EAI.sol\":1161:1169  24*60*60 */\n      0x015180\n        /* \"contracts/lib/eai/EAI.sol\":28116:28144  _timestamp / SECONDS_PER_DAY */\n      0xffffffff\n      and\n        /* \"contracts/lib/eai/EAI.sol\":28116:28126  _timestamp */\n      dup6\n        /* \"contracts/lib/eai/EAI.sol\":28116:28144  _timestamp / SECONDS_PER_DAY */\n      tag_259\n      swap2\n      swap1\n      tag_260\n      jump\t// in\n    tag_259:\n        /* \"contracts/lib/eai/EAI.sol\":28093:28145  uint32 __days = uint32(_timestamp / SECONDS_PER_DAY) */\n      swap1\n      pop\n        /* \"contracts/lib/eai/EAI.sol\":28158:28166  uint32 L */\n      0x00\n        /* \"contracts/lib/eai/EAI.sol\":1209:1216  2440588 */\n      0x253d8c\n        /* \"contracts/lib/eai/EAI.sol\":28178:28183  68569 */\n      0x010bd9\n        /* \"contracts/lib/eai/EAI.sol\":28169:28175  __days */\n      dup4\n        /* \"contracts/lib/eai/EAI.sol\":28169:28183  __days + 68569 */\n      tag_261\n      swap2\n      swap1\n      tag_208\n      jump\t// in\n    tag_261:\n        /* \"contracts/lib/eai/EAI.sol\":28169:28200  __days + 68569 + OFFSET19700101 */\n      tag_262\n      swap2\n      swap1\n      tag_208\n      jump\t// in\n    tag_262:\n        /* \"contracts/lib/eai/EAI.sol\":28158:28200  uint32 L = __days + 68569 + OFFSET19700101 */\n      swap1\n      pop\n        /* \"contracts/lib/eai/EAI.sol\":28211:28219  uint32 N */\n      0x00\n        /* \"contracts/lib/eai/EAI.sol\":28230:28236  146097 */\n      0x023ab1\n        /* \"contracts/lib/eai/EAI.sol\":28226:28227  L */\n      dup3\n        /* \"contracts/lib/eai/EAI.sol\":28222:28223  4 */\n      0x04\n        /* \"contracts/lib/eai/EAI.sol\":28222:28227  4 * L */\n      tag_263\n      swap2\n      swap1\n      tag_233\n      jump\t// in\n    tag_263:\n        /* \"contracts/lib/eai/EAI.sol\":28222:28236  4 * L / 146097 */\n      tag_264\n      swap2\n      swap1\n      tag_265\n      jump\t// in\n    tag_264:\n        /* \"contracts/lib/eai/EAI.sol\":28211:28236  uint32 N = 4 * L / 146097 */\n      swap1\n      pop\n        /* \"contracts/lib/eai/EAI.sol\":28274:28275  4 */\n      0x04\n        /* \"contracts/lib/eai/EAI.sol\":28269:28270  3 */\n      0x03\n        /* \"contracts/lib/eai/EAI.sol\":28265:28266  N */\n      dup3\n        /* \"contracts/lib/eai/EAI.sol\":28256:28262  146097 */\n      0x023ab1\n        /* \"contracts/lib/eai/EAI.sol\":28256:28266  146097 * N */\n      tag_266\n      swap2\n      swap1\n      tag_233\n      jump\t// in\n    tag_266:\n        /* \"contracts/lib/eai/EAI.sol\":28256:28270  146097 * N + 3 */\n      tag_267\n      swap2\n      swap1\n      tag_208\n      jump\t// in\n    tag_267:\n        /* \"contracts/lib/eai/EAI.sol\":28255:28275  (146097 * N + 3) / 4 */\n      tag_268\n      swap2\n      swap1\n      tag_265\n      jump\t// in\n    tag_268:\n        /* \"contracts/lib/eai/EAI.sol\":28251:28252  L */\n      dup3\n        /* \"contracts/lib/eai/EAI.sol\":28251:28275  L - (146097 * N + 3) / 4 */\n      tag_269\n      swap2\n      swap1\n      tag_226\n      jump\t// in\n    tag_269:\n        /* \"contracts/lib/eai/EAI.sol\":28247:28275  L = L - (146097 * N + 3) / 4 */\n      swap2\n      pop\n        /* \"contracts/lib/eai/EAI.sol\":28286:28298  uint32 _year */\n      0x00\n        /* \"contracts/lib/eai/EAI.sol\":28318:28325  1461001 */\n      0x164b09\n        /* \"contracts/lib/eai/EAI.sol\":28313:28314  1 */\n      0x01\n        /* \"contracts/lib/eai/EAI.sol\":28309:28310  L */\n      dup5\n        /* \"contracts/lib/eai/EAI.sol\":28309:28314  L + 1 */\n      tag_270\n      swap2\n      swap1\n      tag_208\n      jump\t// in\n    tag_270:\n        /* \"contracts/lib/eai/EAI.sol\":28301:28305  4000 */\n      0x0fa0\n        /* \"contracts/lib/eai/EAI.sol\":28301:28315  4000 * (L + 1) */\n      tag_271\n      swap2\n      swap1\n      tag_233\n      jump\t// in\n    tag_271:\n        /* \"contracts/lib/eai/EAI.sol\":28301:28325  4000 * (L + 1) / 1461001 */\n      tag_272\n      swap2\n      swap1\n      tag_265\n      jump\t// in\n    tag_272:\n        /* \"contracts/lib/eai/EAI.sol\":28286:28325  uint32 _year = 4000 * (L + 1) / 1461001 */\n      swap1\n      pop\n        /* \"contracts/lib/eai/EAI.sol\":28363:28365  31 */\n      0x1f\n        /* \"contracts/lib/eai/EAI.sol\":28359:28360  4 */\n      0x04\n        /* \"contracts/lib/eai/EAI.sol\":28351:28356  _year */\n      dup3\n        /* \"contracts/lib/eai/EAI.sol\":28344:28348  1461 */\n      0x05b5\n        /* \"contracts/lib/eai/EAI.sol\":28344:28356  1461 * _year */\n      tag_273\n      swap2\n      swap1\n      tag_233\n      jump\t// in\n    tag_273:\n        /* \"contracts/lib/eai/EAI.sol\":28344:28360  1461 * _year / 4 */\n      tag_274\n      swap2\n      swap1\n      tag_265\n      jump\t// in\n    tag_274:\n        /* \"contracts/lib/eai/EAI.sol\":28340:28341  L */\n      dup5\n        /* \"contracts/lib/eai/EAI.sol\":28340:28360  L - 1461 * _year / 4 */\n      tag_275\n      swap2\n      swap1\n      tag_226\n      jump\t// in\n    tag_275:\n        /* \"contracts/lib/eai/EAI.sol\":28340:28365  L - 1461 * _year / 4 + 31 */\n      tag_276\n      swap2\n      swap1\n      tag_208\n      jump\t// in\n    tag_276:\n        /* \"contracts/lib/eai/EAI.sol\":28336:28365  L = L - 1461 * _year / 4 + 31 */\n      swap3\n      pop\n        /* \"contracts/lib/eai/EAI.sol\":28376:28389  uint32 _month */\n      0x00\n        /* \"contracts/lib/eai/EAI.sol\":28401:28405  2447 */\n      0x098f\n        /* \"contracts/lib/eai/EAI.sol\":28397:28398  L */\n      dup5\n        /* \"contracts/lib/eai/EAI.sol\":28392:28394  80 */\n      0x50\n        /* \"contracts/lib/eai/EAI.sol\":28392:28398  80 * L */\n      tag_277\n      swap2\n      swap1\n      tag_233\n      jump\t// in\n    tag_277:\n        /* \"contracts/lib/eai/EAI.sol\":28392:28405  80 * L / 2447 */\n      tag_278\n      swap2\n      swap1\n      tag_265\n      jump\t// in\n    tag_278:\n        /* \"contracts/lib/eai/EAI.sol\":28376:28405  uint32 _month = 80 * L / 2447 */\n      swap1\n      pop\n        /* \"contracts/lib/eai/EAI.sol\":28416:28427  uint32 _day */\n      0x00\n        /* \"contracts/lib/eai/EAI.sol\":28450:28452  80 */\n      0x50\n        /* \"contracts/lib/eai/EAI.sol\":28441:28447  _month */\n      dup3\n        /* \"contracts/lib/eai/EAI.sol\":28434:28438  2447 */\n      0x098f\n        /* \"contracts/lib/eai/EAI.sol\":28434:28447  2447 * _month */\n      tag_279\n      swap2\n      swap1\n      tag_233\n      jump\t// in\n    tag_279:\n        /* \"contracts/lib/eai/EAI.sol\":28434:28452  2447 * _month / 80 */\n      tag_280\n      swap2\n      swap1\n      tag_265\n      jump\t// in\n    tag_280:\n        /* \"contracts/lib/eai/EAI.sol\":28430:28431  L */\n      dup6\n        /* \"contracts/lib/eai/EAI.sol\":28430:28452  L - 2447 * _month / 80 */\n      tag_281\n      swap2\n      swap1\n      tag_226\n      jump\t// in\n    tag_281:\n        /* \"contracts/lib/eai/EAI.sol\":28416:28452  uint32 _day = L - 2447 * _month / 80 */\n      swap1\n      pop\n        /* \"contracts/lib/eai/EAI.sol\":28476:28478  11 */\n      0x0b\n        /* \"contracts/lib/eai/EAI.sol\":28467:28473  _month */\n      dup3\n        /* \"contracts/lib/eai/EAI.sol\":28467:28478  _month / 11 */\n      tag_282\n      swap2\n      swap1\n      tag_265\n      jump\t// in\n    tag_282:\n        /* \"contracts/lib/eai/EAI.sol\":28463:28478  L = _month / 11 */\n      swap5\n      pop\n        /* \"contracts/lib/eai/EAI.sol\":28516:28517  L */\n      dup5\n        /* \"contracts/lib/eai/EAI.sol\":28511:28513  12 */\n      0x0c\n        /* \"contracts/lib/eai/EAI.sol\":28511:28517  12 * L */\n      tag_283\n      swap2\n      swap1\n      tag_233\n      jump\t// in\n    tag_283:\n        /* \"contracts/lib/eai/EAI.sol\":28507:28508  2 */\n      0x02\n        /* \"contracts/lib/eai/EAI.sol\":28498:28504  _month */\n      dup4\n        /* \"contracts/lib/eai/EAI.sol\":28498:28508  _month + 2 */\n      tag_284\n      swap2\n      swap1\n      tag_208\n      jump\t// in\n    tag_284:\n        /* \"contracts/lib/eai/EAI.sol\":28498:28517  _month + 2 - 12 * L */\n      tag_285\n      swap2\n      swap1\n      tag_226\n      jump\t// in\n    tag_285:\n        /* \"contracts/lib/eai/EAI.sol\":28489:28517  _month = _month + 2 - 12 * L */\n      swap2\n      pop\n        /* \"contracts/lib/eai/EAI.sol\":28561:28562  L */\n      dup5\n        /* \"contracts/lib/eai/EAI.sol\":28553:28558  _year */\n      dup4\n        /* \"contracts/lib/eai/EAI.sol\":28547:28549  49 */\n      0x31\n        /* \"contracts/lib/eai/EAI.sol\":28543:28544  N */\n      dup7\n        /* \"contracts/lib/eai/EAI.sol\":28543:28549  N - 49 */\n      tag_286\n      swap2\n      swap1\n      tag_226\n      jump\t// in\n    tag_286:\n        /* \"contracts/lib/eai/EAI.sol\":28536:28539  100 */\n      0x64\n        /* \"contracts/lib/eai/EAI.sol\":28536:28550  100 * (N - 49) */\n      tag_287\n      swap2\n      swap1\n      tag_233\n      jump\t// in\n    tag_287:\n        /* \"contracts/lib/eai/EAI.sol\":28536:28558  100 * (N - 49) + _year */\n      tag_288\n      swap2\n      swap1\n      tag_208\n      jump\t// in\n    tag_288:\n        /* \"contracts/lib/eai/EAI.sol\":28536:28562  100 * (N - 49) + _year + L */\n      tag_289\n      swap2\n      swap1\n      tag_208\n      jump\t// in\n    tag_289:\n        /* \"contracts/lib/eai/EAI.sol\":28528:28562  _year = 100 * (N - 49) + _year + L */\n      swap3\n      pop\n        /* \"contracts/lib/eai/EAI.sol\":28589:28594  _year */\n      dup3\n        /* \"contracts/lib/eai/EAI.sol\":28575:28595  year = uint32(_year) */\n      swap9\n      pop\n        /* \"contracts/lib/eai/EAI.sol\":28621:28627  _month */\n      dup2\n        /* \"contracts/lib/eai/EAI.sol\":28606:28628  month = uint32(_month) */\n      swap8\n      pop\n        /* \"contracts/lib/eai/EAI.sol\":28652:28656  _day */\n      dup1\n        /* \"contracts/lib/eai/EAI.sol\":28639:28657  day = uint32(_day) */\n      swap7\n      pop\n        /* \"contracts/lib/eai/EAI.sol\":28073:28665  {... */\n      pop\n      pop\n      pop\n      pop\n      pop\n      pop\n        /* \"contracts/lib/eai/EAI.sol\":27969:28665  function timeStampToDate(uint _timestamp) internal pure returns (uint32 year, uint32 month, uint32 day) {... */\n      swap2\n      swap4\n      swap1\n      swap3\n      pop\n      jump\t// out\n        /* \"contracts/lib/eai/EAI.sol\":26004:26661  function calcNextEndTime(       ... */\n    tag_257:\n        /* \"contracts/lib/eai/EAI.sol\":26158:26164  uint32 */\n      0x00\n        /* \"contracts/lib/eai/EAI.sol\":872:873  4 */\n      0x04\n        /* \"contracts/lib/eai/EAI.sol\":26190:26207  _timeUnit <= WEEK */\n      0xff\n      and\n        /* \"contracts/lib/eai/EAI.sol\":26190:26199  _timeUnit */\n      dup4\n        /* \"contracts/lib/eai/EAI.sol\":26190:26207  _timeUnit <= WEEK */\n      0xff\n      and\n      gt\n        /* \"contracts/lib/eai/EAI.sol\":26186:26654  if (_timeUnit <= WEEK) {... */\n      tag_291\n      jumpi\n        /* \"contracts/lib/eai/EAI.sol\":26231:26363  calcNextEndTimeForSecMinHrDayOrWeek(... */\n      tag_292\n        /* \"contracts/lib/eai/EAI.sol\":26285:26294  _timeUnit */\n      dup4\n        /* \"contracts/lib/eai/EAI.sol\":26314:26329  _accessDateTime */\n      dup4\n        /* \"contracts/lib/eai/EAI.sol\":26349:26362  _timeInterval */\n      dup7\n        /* \"contracts/lib/eai/EAI.sol\":26231:26266  calcNextEndTimeForSecMinHrDayOrWeek */\n      tag_293\n        /* \"contracts/lib/eai/EAI.sol\":26231:26363  calcNextEndTimeForSecMinHrDayOrWeek(... */\n      jump\t// in\n    tag_292:\n        /* \"contracts/lib/eai/EAI.sol\":26224:26363  return calcNextEndTimeForSecMinHrDayOrWeek(... */\n      swap1\n      pop\n      jump(tag_290)\n        /* \"contracts/lib/eai/EAI.sol\":26186:26654  if (_timeUnit <= WEEK) {... */\n    tag_291:\n        /* \"contracts/lib/eai/EAI.sol\":902:903  5 */\n      0x05\n        /* \"contracts/lib/eai/EAI.sol\":26383:26401  _timeUnit == MONTH */\n      0xff\n      and\n        /* \"contracts/lib/eai/EAI.sol\":26383:26392  _timeUnit */\n      dup4\n        /* \"contracts/lib/eai/EAI.sol\":26383:26401  _timeUnit == MONTH */\n      0xff\n      and\n      sub\n        /* \"contracts/lib/eai/EAI.sol\":26380:26654  if(_timeUnit == MONTH){... */\n      tag_295\n      jumpi\n        /* \"contracts/lib/eai/EAI.sol\":26419:26436  uint currentMonth */\n      0x00\n        /* \"contracts/lib/eai/EAI.sol\":26441:26473  timeStampToDate(_accessDateTime) */\n      tag_296\n        /* \"contracts/lib/eai/EAI.sol\":26457:26472  _accessDateTime */\n      dup4\n        /* \"contracts/lib/eai/EAI.sol\":26441:26473  timeStampToDate(_accessDateTime) */\n      0xffffffff\n      and\n        /* \"contracts/lib/eai/EAI.sol\":26441:26456  timeStampToDate */\n      tag_251\n        /* \"contracts/lib/eai/EAI.sol\":26441:26473  timeStampToDate(_accessDateTime) */\n      jump\t// in\n    tag_296:\n        /* \"contracts/lib/eai/EAI.sol\":26417:26473  (,uint currentMonth,) = timeStampToDate(_accessDateTime) */\n      pop\n      0xffffffff\n      and\n      swap2\n      pop\n      pop\n        /* \"contracts/lib/eai/EAI.sol\":26517:26518  1 */\n      0x01\n        /* \"contracts/lib/eai/EAI.sol\":26504:26516  currentMonth */\n      dup2\n        /* \"contracts/lib/eai/EAI.sol\":26504:26518  currentMonth+1 */\n      tag_297\n      swap2\n      swap1\n      tag_298\n      jump\t// in\n    tag_297:\n        /* \"contracts/lib/eai/EAI.sol\":26490:26519  return uint32(currentMonth+1) */\n      swap2\n      pop\n      pop\n      jump(tag_290)\n        /* \"contracts/lib/eai/EAI.sol\":26380:26654  if(_timeUnit == MONTH){... */\n    tag_295:\n        /* \"contracts/lib/eai/EAI.sol\":26557:26566  uint year */\n      0x00\n        /* \"contracts/lib/eai/EAI.sol\":26572:26604  timeStampToDate(_accessDateTime) */\n      tag_300\n        /* \"contracts/lib/eai/EAI.sol\":26588:26603  _accessDateTime */\n      dup4\n        /* \"contracts/lib/eai/EAI.sol\":26572:26604  timeStampToDate(_accessDateTime) */\n      0xffffffff\n      and\n        /* \"contracts/lib/eai/EAI.sol\":26572:26587  timeStampToDate */\n      tag_251\n        /* \"contracts/lib/eai/EAI.sol\":26572:26604  timeStampToDate(_accessDateTime) */\n      jump\t// in\n    tag_300:\n        /* \"contracts/lib/eai/EAI.sol\":26556:26604  (uint year,,) = timeStampToDate(_accessDateTime) */\n      pop\n      pop\n      0xffffffff\n      and\n      swap1\n      pop\n        /* \"contracts/lib/eai/EAI.sol\":26640:26641  1 */\n      0x01\n        /* \"contracts/lib/eai/EAI.sol\":26633:26637  year */\n      dup2\n        /* \"contracts/lib/eai/EAI.sol\":26633:26641  year + 1 */\n      tag_301\n      swap2\n      swap1\n      tag_298\n      jump\t// in\n    tag_301:\n        /* \"contracts/lib/eai/EAI.sol\":26619:26642  return uint32(year + 1) */\n      swap2\n      pop\n      pop\n        /* \"contracts/lib/eai/EAI.sol\":26004:26661  function calcNextEndTime(       ... */\n    tag_290:\n      swap4\n      swap3\n      pop\n      pop\n      pop\n      jump\t// out\n        /* \"contracts/lib/eai/EAI.sol\":26673:27170  function calcNextEndTimeForSecMinHrDayOrWeek(... */\n    tag_293:\n        /* \"contracts/lib/eai/EAI.sol\":26841:26847  uint32 */\n      0x00\n        /* \"contracts/lib/eai/EAI.sol\":26861:26871  uint32 mod */\n      dup1\n        /* \"contracts/lib/eai/EAI.sol\":26900:26913  _timeInterval */\n      dup3\n        /* \"contracts/lib/eai/EAI.sol\":26882:26897  _accessDateTime */\n      dup5\n        /* \"contracts/lib/eai/EAI.sol\":26882:26913  _accessDateTime % _timeInterval */\n      tag_303\n      swap2\n      swap1\n      tag_304\n      jump\t// in\n    tag_303:\n        /* \"contracts/lib/eai/EAI.sol\":26861:26914  uint32 mod =  uint32(_accessDateTime % _timeInterval) */\n      swap1\n      pop\n        /* \"contracts/lib/eai/EAI.sol\":26925:26949  uint32 timeToNextEndTime */\n      0x00\n        /* \"contracts/lib/eai/EAI.sol\":26969:26972  mod */\n      dup2\n        /* \"contracts/lib/eai/EAI.sol\":26953:26966  _timeInterval */\n      dup5\n        /* \"contracts/lib/eai/EAI.sol\":26953:26972  _timeInterval - mod */\n      tag_305\n      swap2\n      swap1\n      tag_226\n      jump\t// in\n    tag_305:\n        /* \"contracts/lib/eai/EAI.sol\":26925:26972  uint32 timeToNextEndTime  = _timeInterval - mod */\n      swap1\n      pop\n        /* \"contracts/lib/eai/EAI.sol\":872:873  4 */\n      0x04\n        /* \"contracts/lib/eai/EAI.sol\":27008:27025  _timeUnit == WEEK */\n      0xff\n      and\n        /* \"contracts/lib/eai/EAI.sol\":27008:27017  _timeUnit */\n      dup7\n        /* \"contracts/lib/eai/EAI.sol\":27008:27025  _timeUnit == WEEK */\n      0xff\n      and\n      sub\n        /* \"contracts/lib/eai/EAI.sol\":27005:27108  if(_timeUnit == WEEK){... */\n      tag_306\n      jumpi\n        /* \"contracts/lib/eai/EAI.sol\":1309:1315  259200 */\n      0x03f480\n        /* \"contracts/lib/eai/EAI.sol\":27066:27083  timeToNextEndTime */\n      dup2\n        /* \"contracts/lib/eai/EAI.sol\":27048:27063  _accessDateTime */\n      dup7\n        /* \"contracts/lib/eai/EAI.sol\":27048:27083  _accessDateTime + timeToNextEndTime */\n      tag_307\n      swap2\n      swap1\n      tag_208\n      jump\t// in\n    tag_307:\n        /* \"contracts/lib/eai/EAI.sol\":27048:27096  _accessDateTime + timeToNextEndTime + OFFSETWEEK */\n      tag_308\n      swap2\n      swap1\n      tag_208\n      jump\t// in\n    tag_308:\n        /* \"contracts/lib/eai/EAI.sol\":27041:27096  return _accessDateTime + timeToNextEndTime + OFFSETWEEK */\n      swap3\n      pop\n      pop\n      pop\n      jump(tag_302)\n        /* \"contracts/lib/eai/EAI.sol\":27005:27108  if(_timeUnit == WEEK){... */\n    tag_306:\n        /* \"contracts/lib/eai/EAI.sol\":27145:27162  timeToNextEndTime */\n      dup1\n        /* \"contracts/lib/eai/EAI.sol\":27127:27142  _accessDateTime */\n      dup6\n        /* \"contracts/lib/eai/EAI.sol\":27127:27162  _accessDateTime + timeToNextEndTime */\n      tag_309\n      swap2\n      swap1\n      tag_208\n      jump\t// in\n    tag_309:\n        /* \"contracts/lib/eai/EAI.sol\":27120:27162  return _accessDateTime + timeToNextEndTime */\n      swap3\n      pop\n      pop\n      pop\n        /* \"contracts/lib/eai/EAI.sol\":26673:27170  function calcNextEndTimeForSecMinHrDayOrWeek(... */\n    tag_302:\n      swap4\n      swap3\n      pop\n      pop\n      pop\n      jump\t// out\n    tag_71:\n      dup3\n      dup1\n      sload\n      tag_310\n      swap1\n      tag_81\n      jump\t// in\n    tag_310:\n      swap1\n      0x00\n      mstore\n      keccak256(0x00, 0x20)\n      swap1\n      0x1f\n      add\n      0x20\n      swap1\n      div\n      dup2\n      add\n      swap3\n      dup3\n      tag_312\n      jumpi\n      0x00\n      dup6\n      sstore\n      jump(tag_311)\n    tag_312:\n      dup3\n      0x1f\n      lt\n      tag_313\n      jumpi\n      dup1\n      mload\n      not(0xff)\n      and\n      dup4\n      dup1\n      add\n      or\n      dup6\n      sstore\n      jump(tag_311)\n    tag_313:\n      dup3\n      dup1\n      add\n      0x01\n      add\n      dup6\n      sstore\n      dup3\n      iszero\n      tag_311\n      jumpi\n      swap2\n      dup3\n      add\n    tag_314:\n      dup3\n      dup2\n      gt\n      iszero\n      tag_315\n      jumpi\n      dup3\n      mload\n      dup3\n      sstore\n      swap2\n      0x20\n      add\n      swap2\n      swap1\n      0x01\n      add\n      swap1\n      jump(tag_314)\n    tag_315:\n    tag_311:\n      pop\n      swap1\n      pop\n      tag_316\n      swap2\n      swap1\n      tag_317\n      jump\t// in\n    tag_316:\n      pop\n      swap1\n      jump\t// out\n    tag_83:\n      dup3\n      dup1\n      sload\n      tag_318\n      swap1\n      tag_81\n      jump\t// in\n    tag_318:\n      swap1\n      0x00\n      mstore\n      keccak256(0x00, 0x20)\n      swap1\n      0x1f\n      add\n      0x20\n      swap1\n      div\n      dup2\n      add\n      swap3\n      dup3\n      tag_320\n      jumpi\n      0x00\n      dup6\n      sstore\n      jump(tag_319)\n    tag_320:\n      dup3\n      0x1f\n      lt\n      tag_321\n      jumpi\n      dup1\n      sload\n      dup6\n      sstore\n      jump(tag_319)\n    tag_321:\n      dup3\n      dup1\n      add\n      0x01\n      add\n      dup6\n      sstore\n      dup3\n      iszero\n      tag_319\n      jumpi\n      0x00\n      mstore\n      keccak256(0x00, 0x20)\n      swap2\n      0x1f\n      add\n      0x20\n      swap1\n      div\n      dup3\n      add\n    tag_322:\n      dup3\n      dup2\n      gt\n      iszero\n      tag_323\n      jumpi\n      dup3\n      sload\n      dup3\n      sstore\n      swap2\n      0x01\n      add\n      swap2\n      swap1\n      0x01\n      add\n      swap1\n      jump(tag_322)\n    tag_323:\n    tag_319:\n      pop\n      swap1\n      pop\n      tag_324\n      swap2\n      swap1\n      tag_317\n      jump\t// in\n    tag_324:\n      pop\n      swap1\n      jump\t// out\n    tag_122:\n      pop\n      dup1\n      sload\n      tag_325\n      swap1\n      tag_81\n      jump\t// in\n    tag_325:\n      0x00\n      dup3\n      sstore\n      dup1\n      0x1f\n      lt\n      tag_327\n      jumpi\n      pop\n      jump(tag_326)\n    tag_327:\n      0x1f\n      add\n      0x20\n      swap1\n      div\n      swap1\n      0x00\n      mstore\n      keccak256(0x00, 0x20)\n      swap1\n      dup2\n      add\n      swap1\n      tag_328\n      swap2\n      swap1\n      tag_317\n      jump\t// in\n    tag_328:\n    tag_326:\n      pop\n      jump\t// out\n    tag_154:\n      mload(0x40)\n      dup1\n      0x60\n      add\n      0x40\n      mstore\n      dup1\n      0x60\n      dup2\n      mstore\n      0x20\n      add\n      and(0xffffffffffffffffffffffffffffffffffffffff, 0x00)\n      dup2\n      mstore\n      0x20\n      add\n      iszero(iszero(0x00))\n      dup2\n      mstore\n      pop\n      swap1\n      jump\t// out\n    tag_170:\n      mload(0x40)\n      dup1\n      0x40\n      add\n      0x40\n      mstore\n      dup1\n      and(0xff, 0x00)\n      dup2\n      mstore\n      0x20\n      add\n      and(0xff, 0x00)\n      dup2\n      mstore\n      pop\n      swap1\n      jump\t// out\n    tag_182:\n      mload(0x40)\n      dup1\n      0xa0\n      add\n      0x40\n      mstore\n      dup1\n      and(0xff, 0x00)\n      dup2\n      mstore\n      0x20\n      add\n      and(0xff, 0x00)\n      dup2\n      mstore\n      0x20\n      add\n      and(0xffffffff, 0x00)\n      dup2\n      mstore\n      0x20\n      add\n      0x60\n      dup2\n      mstore\n      0x20\n      add\n      and(0xffffffff, 0x00)\n      dup2\n      mstore\n      pop\n      swap1\n      jump\t// out\n    tag_188:\n      mload(0x40)\n      dup1\n      0x20\n      add\n      0x40\n      mstore\n      dup1\n      0x60\n      dup2\n      mstore\n      pop\n      swap1\n      jump\t// out\n    tag_191:\n      mload(0x40)\n      dup1\n      0xa0\n      add\n      0x40\n      mstore\n      dup1\n      and(0xffffffff, 0x00)\n      dup2\n      mstore\n      0x20\n      add\n      and(0xff, 0x00)\n      dup2\n      mstore\n      0x20\n      add\n      and(0xffffffff, 0x00)\n      dup2\n      mstore\n      0x20\n      add\n      and(0xffffffff, 0x00)\n      dup2\n      mstore\n      0x20\n      add\n      and(0xffffffff, 0x00)\n      dup2\n      mstore\n      pop\n      swap1\n      jump\t// out\n    tag_317:\n    tag_329:\n      dup1\n      dup3\n      gt\n      iszero\n      tag_330\n      jumpi\n      0x00\n      dup2\n      0x00\n      swap1\n      sstore\n      pop\n      0x01\n      add\n      jump(tag_329)\n    tag_330:\n      pop\n      swap1\n      jump\t// out\n        /* \"#utility.yul\":7:82   */\n    tag_331:\n        /* \"#utility.yul\":40:46   */\n      0x00\n        /* \"#utility.yul\":73:75   */\n      0x40\n        /* \"#utility.yul\":67:76   */\n      mload\n        /* \"#utility.yul\":57:76   */\n      swap1\n      pop\n        /* \"#utility.yul\":7:82   */\n      swap1\n      jump\t// out\n        /* \"#utility.yul\":88:205   */\n    tag_332:\n        /* \"#utility.yul\":197:198   */\n      0x00\n        /* \"#utility.yul\":194:195   */\n      dup1\n        /* \"#utility.yul\":187:199   */\n      revert\n        /* \"#utility.yul\":211:328   */\n    tag_333:\n        /* \"#utility.yul\":320:321   */\n      0x00\n        /* \"#utility.yul\":317:318   */\n      dup1\n        /* \"#utility.yul\":310:322   */\n      revert\n        /* \"#utility.yul\":334:420   */\n    tag_334:\n        /* \"#utility.yul\":369:376   */\n      0x00\n        /* \"#utility.yul\":409:413   */\n      0xff\n        /* \"#utility.yul\":402:407   */\n      dup3\n        /* \"#utility.yul\":398:414   */\n      and\n        /* \"#utility.yul\":387:414   */\n      swap1\n      pop\n        /* \"#utility.yul\":334:420   */\n      swap2\n      swap1\n      pop\n      jump\t// out\n        /* \"#utility.yul\":426:544   */\n    tag_335:\n        /* \"#utility.yul\":497:519   */\n      tag_395\n        /* \"#utility.yul\":513:518   */\n      dup2\n        /* \"#utility.yul\":497:519   */\n      tag_334\n      jump\t// in\n    tag_395:\n        /* \"#utility.yul\":490:495   */\n      dup2\n        /* \"#utility.yul\":487:520   */\n      eq\n        /* \"#utility.yul\":477:538   */\n      tag_396\n      jumpi\n        /* \"#utility.yul\":534:535   */\n      0x00\n        /* \"#utility.yul\":531:532   */\n      dup1\n        /* \"#utility.yul\":524:536   */\n      revert\n        /* \"#utility.yul\":477:538   */\n    tag_396:\n        /* \"#utility.yul\":426:544   */\n      pop\n      jump\t// out\n        /* \"#utility.yul\":550:685   */\n    tag_336:\n        /* \"#utility.yul\":594:599   */\n      0x00\n        /* \"#utility.yul\":632:638   */\n      dup2\n        /* \"#utility.yul\":619:639   */\n      calldataload\n        /* \"#utility.yul\":610:639   */\n      swap1\n      pop\n        /* \"#utility.yul\":648:679   */\n      tag_398\n        /* \"#utility.yul\":673:678   */\n      dup2\n        /* \"#utility.yul\":648:679   */\n      tag_335\n      jump\t// in\n    tag_398:\n        /* \"#utility.yul\":550:685   */\n      swap3\n      swap2\n      pop\n      pop\n      jump\t// out\n        /* \"#utility.yul\":691:808   */\n    tag_337:\n        /* \"#utility.yul\":800:801   */\n      0x00\n        /* \"#utility.yul\":797:798   */\n      dup1\n        /* \"#utility.yul\":790:802   */\n      revert\n        /* \"#utility.yul\":814:931   */\n    tag_338:\n        /* \"#utility.yul\":923:924   */\n      0x00\n        /* \"#utility.yul\":920:921   */\n      dup1\n        /* \"#utility.yul\":913:925   */\n      revert\n        /* \"#utility.yul\":937:1039   */\n    tag_339:\n        /* \"#utility.yul\":978:984   */\n      0x00\n        /* \"#utility.yul\":1029:1031   */\n      0x1f\n        /* \"#utility.yul\":1025:1032   */\n      not\n        /* \"#utility.yul\":1020:1022   */\n      0x1f\n        /* \"#utility.yul\":1013:1018   */\n      dup4\n        /* \"#utility.yul\":1009:1023   */\n      add\n        /* \"#utility.yul\":1005:1033   */\n      and\n        /* \"#utility.yul\":995:1033   */\n      swap1\n      pop\n        /* \"#utility.yul\":937:1039   */\n      swap2\n      swap1\n      pop\n      jump\t// out\n        /* \"#utility.yul\":1045:1225   */\n    tag_340:\n        /* \"#utility.yul\":1093:1170   */\n      0x4e487b7100000000000000000000000000000000000000000000000000000000\n        /* \"#utility.yul\":1090:1091   */\n      0x00\n        /* \"#utility.yul\":1083:1171   */\n      mstore\n        /* \"#utility.yul\":1190:1194   */\n      0x41\n        /* \"#utility.yul\":1187:1188   */\n      0x04\n        /* \"#utility.yul\":1180:1195   */\n      mstore\n        /* \"#utility.yul\":1214:1218   */\n      0x24\n        /* \"#utility.yul\":1211:1212   */\n      0x00\n        /* \"#utility.yul\":1204:1219   */\n      revert\n        /* \"#utility.yul\":1231:1512   */\n    tag_341:\n        /* \"#utility.yul\":1314:1341   */\n      tag_404\n        /* \"#utility.yul\":1336:1340   */\n      dup3\n        /* \"#utility.yul\":1314:1341   */\n      tag_339\n      jump\t// in\n    tag_404:\n        /* \"#utility.yul\":1306:1312   */\n      dup2\n        /* \"#utility.yul\":1302:1342   */\n      add\n        /* \"#utility.yul\":1444:1450   */\n      dup2\n        /* \"#utility.yul\":1432:1442   */\n      dup2\n        /* \"#utility.yul\":1429:1451   */\n      lt\n        /* \"#utility.yul\":1408:1426   */\n      0xffffffffffffffff\n        /* \"#utility.yul\":1396:1406   */\n      dup3\n        /* \"#utility.yul\":1393:1427   */\n      gt\n        /* \"#utility.yul\":1390:1452   */\n      or\n        /* \"#utility.yul\":1387:1475   */\n      iszero\n      tag_405\n      jumpi\n        /* \"#utility.yul\":1455:1473   */\n      tag_406\n      tag_340\n      jump\t// in\n    tag_406:\n        /* \"#utility.yul\":1387:1475   */\n    tag_405:\n        /* \"#utility.yul\":1495:1505   */\n      dup1\n        /* \"#utility.yul\":1491:1493   */\n      0x40\n        /* \"#utility.yul\":1484:1506   */\n      mstore\n        /* \"#utility.yul\":1274:1512   */\n      pop\n        /* \"#utility.yul\":1231:1512   */\n      pop\n      pop\n      jump\t// out\n        /* \"#utility.yul\":1518:1647   */\n    tag_342:\n        /* \"#utility.yul\":1552:1558   */\n      0x00\n        /* \"#utility.yul\":1579:1599   */\n      tag_408\n      tag_331\n      jump\t// in\n    tag_408:\n        /* \"#utility.yul\":1569:1599   */\n      swap1\n      pop\n        /* \"#utility.yul\":1608:1641   */\n      tag_409\n        /* \"#utility.yul\":1636:1640   */\n      dup3\n        /* \"#utility.yul\":1628:1634   */\n      dup3\n        /* \"#utility.yul\":1608:1641   */\n      tag_341\n      jump\t// in\n    tag_409:\n        /* \"#utility.yul\":1518:1647   */\n      swap2\n      swap1\n      pop\n      jump\t// out\n        /* \"#utility.yul\":1653:1961   */\n    tag_343:\n        /* \"#utility.yul\":1715:1719   */\n      0x00\n        /* \"#utility.yul\":1805:1823   */\n      0xffffffffffffffff\n        /* \"#utility.yul\":1797:1803   */\n      dup3\n        /* \"#utility.yul\":1794:1824   */\n      gt\n        /* \"#utility.yul\":1791:1847   */\n      iszero\n      tag_411\n      jumpi\n        /* \"#utility.yul\":1827:1845   */\n      tag_412\n      tag_340\n      jump\t// in\n    tag_412:\n        /* \"#utility.yul\":1791:1847   */\n    tag_411:\n        /* \"#utility.yul\":1865:1894   */\n      tag_413\n        /* \"#utility.yul\":1887:1893   */\n      dup3\n        /* \"#utility.yul\":1865:1894   */\n      tag_339\n      jump\t// in\n    tag_413:\n        /* \"#utility.yul\":1857:1894   */\n      swap1\n      pop\n        /* \"#utility.yul\":1949:1953   */\n      0x20\n        /* \"#utility.yul\":1943:1947   */\n      dup2\n        /* \"#utility.yul\":1939:1954   */\n      add\n        /* \"#utility.yul\":1931:1954   */\n      swap1\n      pop\n        /* \"#utility.yul\":1653:1961   */\n      swap2\n      swap1\n      pop\n      jump\t// out\n        /* \"#utility.yul\":1967:2121   */\n    tag_344:\n        /* \"#utility.yul\":2051:2057   */\n      dup3\n        /* \"#utility.yul\":2046:2049   */\n      dup2\n        /* \"#utility.yul\":2041:2044   */\n      dup4\n        /* \"#utility.yul\":2028:2058   */\n      calldatacopy\n        /* \"#utility.yul\":2113:2114   */\n      0x00\n        /* \"#utility.yul\":2104:2110   */\n      dup4\n        /* \"#utility.yul\":2099:2102   */\n      dup4\n        /* \"#utility.yul\":2095:2111   */\n      add\n        /* \"#utility.yul\":2088:2115   */\n      mstore\n        /* \"#utility.yul\":1967:2121   */\n      pop\n      pop\n      pop\n      jump\t// out\n        /* \"#utility.yul\":2127:2539   */\n    tag_345:\n        /* \"#utility.yul\":2205:2210   */\n      0x00\n        /* \"#utility.yul\":2230:2296   */\n      tag_416\n        /* \"#utility.yul\":2246:2295   */\n      tag_417\n        /* \"#utility.yul\":2288:2294   */\n      dup5\n        /* \"#utility.yul\":2246:2295   */\n      tag_343\n      jump\t// in\n    tag_417:\n        /* \"#utility.yul\":2230:2296   */\n      tag_342\n      jump\t// in\n    tag_416:\n        /* \"#utility.yul\":2221:2296   */\n      swap1\n      pop\n        /* \"#utility.yul\":2319:2325   */\n      dup3\n        /* \"#utility.yul\":2312:2317   */\n      dup2\n        /* \"#utility.yul\":2305:2326   */\n      mstore\n        /* \"#utility.yul\":2357:2361   */\n      0x20\n        /* \"#utility.yul\":2350:2355   */\n      dup2\n        /* \"#utility.yul\":2346:2362   */\n      add\n        /* \"#utility.yul\":2395:2398   */\n      dup5\n        /* \"#utility.yul\":2386:2392   */\n      dup5\n        /* \"#utility.yul\":2381:2384   */\n      dup5\n        /* \"#utility.yul\":2377:2393   */\n      add\n        /* \"#utility.yul\":2374:2399   */\n      gt\n        /* \"#utility.yul\":2371:2483   */\n      iszero\n      tag_418\n      jumpi\n        /* \"#utility.yul\":2402:2481   */\n      tag_419\n      tag_338\n      jump\t// in\n    tag_419:\n        /* \"#utility.yul\":2371:2483   */\n    tag_418:\n        /* \"#utility.yul\":2492:2533   */\n      tag_420\n        /* \"#utility.yul\":2526:2532   */\n      dup5\n        /* \"#utility.yul\":2521:2524   */\n      dup3\n        /* \"#utility.yul\":2516:2519   */\n      dup6\n        /* \"#utility.yul\":2492:2533   */\n      tag_344\n      jump\t// in\n    tag_420:\n        /* \"#utility.yul\":2211:2539   */\n      pop\n        /* \"#utility.yul\":2127:2539   */\n      swap4\n      swap3\n      pop\n      pop\n      pop\n      jump\t// out\n        /* \"#utility.yul\":2559:2899   */\n    tag_346:\n        /* \"#utility.yul\":2615:2620   */\n      0x00\n        /* \"#utility.yul\":2664:2667   */\n      dup3\n        /* \"#utility.yul\":2657:2661   */\n      0x1f\n        /* \"#utility.yul\":2649:2655   */\n      dup4\n        /* \"#utility.yul\":2645:2662   */\n      add\n        /* \"#utility.yul\":2641:2668   */\n      slt\n        /* \"#utility.yul\":2631:2753   */\n      tag_422\n      jumpi\n        /* \"#utility.yul\":2672:2751   */\n      tag_423\n      tag_337\n      jump\t// in\n    tag_423:\n        /* \"#utility.yul\":2631:2753   */\n    tag_422:\n        /* \"#utility.yul\":2789:2795   */\n      dup2\n        /* \"#utility.yul\":2776:2796   */\n      calldataload\n        /* \"#utility.yul\":2814:2893   */\n      tag_424\n        /* \"#utility.yul\":2889:2892   */\n      dup5\n        /* \"#utility.yul\":2881:2887   */\n      dup3\n        /* \"#utility.yul\":2874:2878   */\n      0x20\n        /* \"#utility.yul\":2866:2872   */\n      dup7\n        /* \"#utility.yul\":2862:2879   */\n      add\n        /* \"#utility.yul\":2814:2893   */\n      tag_345\n      jump\t// in\n    tag_424:\n        /* \"#utility.yul\":2805:2893   */\n      swap2\n      pop\n        /* \"#utility.yul\":2621:2899   */\n      pop\n        /* \"#utility.yul\":2559:2899   */\n      swap3\n      swap2\n      pop\n      pop\n      jump\t// out\n        /* \"#utility.yul\":2905:2998   */\n    tag_347:\n        /* \"#utility.yul\":2941:2948   */\n      0x00\n        /* \"#utility.yul\":2981:2991   */\n      0xffffffff\n        /* \"#utility.yul\":2974:2979   */\n      dup3\n        /* \"#utility.yul\":2970:2992   */\n      and\n        /* \"#utility.yul\":2959:2992   */\n      swap1\n      pop\n        /* \"#utility.yul\":2905:2998   */\n      swap2\n      swap1\n      pop\n      jump\t// out\n        /* \"#utility.yul\":3004:3124   */\n    tag_348:\n        /* \"#utility.yul\":3076:3099   */\n      tag_427\n        /* \"#utility.yul\":3093:3098   */\n      dup2\n        /* \"#utility.yul\":3076:3099   */\n      tag_347\n      jump\t// in\n    tag_427:\n        /* \"#utility.yul\":3069:3074   */\n      dup2\n        /* \"#utility.yul\":3066:3100   */\n      eq\n        /* \"#utility.yul\":3056:3118   */\n      tag_428\n      jumpi\n        /* \"#utility.yul\":3114:3115   */\n      0x00\n        /* \"#utility.yul\":3111:3112   */\n      dup1\n        /* \"#utility.yul\":3104:3116   */\n      revert\n        /* \"#utility.yul\":3056:3118   */\n    tag_428:\n        /* \"#utility.yul\":3004:3124   */\n      pop\n      jump\t// out\n        /* \"#utility.yul\":3130:3267   */\n    tag_349:\n        /* \"#utility.yul\":3175:3180   */\n      0x00\n        /* \"#utility.yul\":3213:3219   */\n      dup2\n        /* \"#utility.yul\":3200:3220   */\n      calldataload\n        /* \"#utility.yul\":3191:3220   */\n      swap1\n      pop\n        /* \"#utility.yul\":3229:3261   */\n      tag_430\n        /* \"#utility.yul\":3255:3260   */\n      dup2\n        /* \"#utility.yul\":3229:3261   */\n      tag_348\n      jump\t// in\n    tag_430:\n        /* \"#utility.yul\":3130:3267   */\n      swap3\n      swap2\n      pop\n      pop\n      jump\t// out\n        /* \"#utility.yul\":3273:4392   */\n    tag_11:\n        /* \"#utility.yul\":3376:3382   */\n      0x00\n        /* \"#utility.yul\":3384:3390   */\n      dup1\n        /* \"#utility.yul\":3392:3398   */\n      0x00\n        /* \"#utility.yul\":3400:3406   */\n      dup1\n        /* \"#utility.yul\":3449:3452   */\n      0x80\n        /* \"#utility.yul\":3437:3446   */\n      dup6\n        /* \"#utility.yul\":3428:3435   */\n      dup8\n        /* \"#utility.yul\":3424:3447   */\n      sub\n        /* \"#utility.yul\":3420:3453   */\n      slt\n        /* \"#utility.yul\":3417:3537   */\n      iszero\n      tag_432\n      jumpi\n        /* \"#utility.yul\":3456:3535   */\n      tag_433\n      tag_332\n      jump\t// in\n    tag_433:\n        /* \"#utility.yul\":3417:3537   */\n    tag_432:\n        /* \"#utility.yul\":3576:3577   */\n      0x00\n        /* \"#utility.yul\":3601:3652   */\n      tag_434\n        /* \"#utility.yul\":3644:3651   */\n      dup8\n        /* \"#utility.yul\":3635:3641   */\n      dup3\n        /* \"#utility.yul\":3624:3633   */\n      dup9\n        /* \"#utility.yul\":3620:3642   */\n      add\n        /* \"#utility.yul\":3601:3652   */\n      tag_336\n      jump\t// in\n    tag_434:\n        /* \"#utility.yul\":3591:3652   */\n      swap5\n      pop\n        /* \"#utility.yul\":3547:3662   */\n      pop\n        /* \"#utility.yul\":3729:3731   */\n      0x20\n        /* \"#utility.yul\":3718:3727   */\n      dup6\n        /* \"#utility.yul\":3714:3732   */\n      add\n        /* \"#utility.yul\":3701:3733   */\n      calldataload\n        /* \"#utility.yul\":3760:3778   */\n      0xffffffffffffffff\n        /* \"#utility.yul\":3752:3758   */\n      dup2\n        /* \"#utility.yul\":3749:3779   */\n      gt\n        /* \"#utility.yul\":3746:3863   */\n      iszero\n      tag_435\n      jumpi\n        /* \"#utility.yul\":3782:3861   */\n      tag_436\n      tag_333\n      jump\t// in\n    tag_436:\n        /* \"#utility.yul\":3746:3863   */\n    tag_435:\n        /* \"#utility.yul\":3887:3950   */\n      tag_437\n        /* \"#utility.yul\":3942:3949   */\n      dup8\n        /* \"#utility.yul\":3933:3939   */\n      dup3\n        /* \"#utility.yul\":3922:3931   */\n      dup9\n        /* \"#utility.yul\":3918:3940   */\n      add\n        /* \"#utility.yul\":3887:3950   */\n      tag_346\n      jump\t// in\n    tag_437:\n        /* \"#utility.yul\":3877:3950   */\n      swap4\n      pop\n        /* \"#utility.yul\":3672:3960   */\n      pop\n        /* \"#utility.yul\":3999:4001   */\n      0x40\n        /* \"#utility.yul\":4025:4077   */\n      tag_438\n        /* \"#utility.yul\":4069:4076   */\n      dup8\n        /* \"#utility.yul\":4060:4066   */\n      dup3\n        /* \"#utility.yul\":4049:4058   */\n      dup9\n        /* \"#utility.yul\":4045:4067   */\n      add\n        /* \"#utility.yul\":4025:4077   */\n      tag_349\n      jump\t// in\n    tag_438:\n        /* \"#utility.yul\":4015:4077   */\n      swap3\n      pop\n        /* \"#utility.yul\":3970:4087   */\n      pop\n        /* \"#utility.yul\":4154:4156   */\n      0x60\n        /* \"#utility.yul\":4143:4152   */\n      dup6\n        /* \"#utility.yul\":4139:4157   */\n      add\n        /* \"#utility.yul\":4126:4158   */\n      calldataload\n        /* \"#utility.yul\":4185:4203   */\n      0xffffffffffffffff\n        /* \"#utility.yul\":4177:4183   */\n      dup2\n        /* \"#utility.yul\":4174:4204   */\n      gt\n        /* \"#utility.yul\":4171:4288   */\n      iszero\n      tag_439\n      jumpi\n        /* \"#utility.yul\":4207:4286   */\n      tag_440\n      tag_333\n      jump\t// in\n    tag_440:\n        /* \"#utility.yul\":4171:4288   */\n    tag_439:\n        /* \"#utility.yul\":4312:4375   */\n      tag_441\n        /* \"#utility.yul\":4367:4374   */\n      dup8\n        /* \"#utility.yul\":4358:4364   */\n      dup3\n        /* \"#utility.yul\":4347:4356   */\n      dup9\n        /* \"#utility.yul\":4343:4365   */\n      add\n        /* \"#utility.yul\":4312:4375   */\n      tag_346\n      jump\t// in\n    tag_441:\n        /* \"#utility.yul\":4302:4375   */\n      swap2\n      pop\n        /* \"#utility.yul\":4097:4385   */\n      pop\n        /* \"#utility.yul\":3273:4392   */\n      swap3\n      swap6\n      swap2\n      swap5\n      pop\n      swap3\n      pop\n      jump\t// out\n        /* \"#utility.yul\":4398:4488   */\n    tag_350:\n        /* \"#utility.yul\":4432:4439   */\n      0x00\n        /* \"#utility.yul\":4475:4480   */\n      dup2\n        /* \"#utility.yul\":4468:4481   */\n      iszero\n        /* \"#utility.yul\":4461:4482   */\n      iszero\n        /* \"#utility.yul\":4450:4482   */\n      swap1\n      pop\n        /* \"#utility.yul\":4398:4488   */\n      swap2\n      swap1\n      pop\n      jump\t// out\n        /* \"#utility.yul\":4494:4603   */\n    tag_351:\n        /* \"#utility.yul\":4575:4596   */\n      tag_444\n        /* \"#utility.yul\":4590:4595   */\n      dup2\n        /* \"#utility.yul\":4575:4596   */\n      tag_350\n      jump\t// in\n    tag_444:\n        /* \"#utility.yul\":4570:4573   */\n      dup3\n        /* \"#utility.yul\":4563:4597   */\n      mstore\n        /* \"#utility.yul\":4494:4603   */\n      pop\n      pop\n      jump\t// out\n        /* \"#utility.yul\":4609:4819   */\n    tag_14:\n        /* \"#utility.yul\":4696:4700   */\n      0x00\n        /* \"#utility.yul\":4734:4736   */\n      0x20\n        /* \"#utility.yul\":4723:4732   */\n      dup3\n        /* \"#utility.yul\":4719:4737   */\n      add\n        /* \"#utility.yul\":4711:4737   */\n      swap1\n      pop\n        /* \"#utility.yul\":4747:4812   */\n      tag_446\n        /* \"#utility.yul\":4809:4810   */\n      0x00\n        /* \"#utility.yul\":4798:4807   */\n      dup4\n        /* \"#utility.yul\":4794:4811   */\n      add\n        /* \"#utility.yul\":4785:4791   */\n      dup5\n        /* \"#utility.yul\":4747:4812   */\n      tag_351\n      jump\t// in\n    tag_446:\n        /* \"#utility.yul\":4609:4819   */\n      swap3\n      swap2\n      pop\n      pop\n      jump\t// out\n        /* \"#utility.yul\":4825:4951   */\n    tag_352:\n        /* \"#utility.yul\":4862:4869   */\n      0x00\n        /* \"#utility.yul\":4902:4944   */\n      0xffffffffffffffffffffffffffffffffffffffff\n        /* \"#utility.yul\":4895:4900   */\n      dup3\n        /* \"#utility.yul\":4891:4945   */\n      and\n        /* \"#utility.yul\":4880:4945   */\n      swap1\n      pop\n        /* \"#utility.yul\":4825:4951   */\n      swap2\n      swap1\n      pop\n      jump\t// out\n        /* \"#utility.yul\":4957:5053   */\n    tag_353:\n        /* \"#utility.yul\":4994:5001   */\n      0x00\n        /* \"#utility.yul\":5023:5047   */\n      tag_449\n        /* \"#utility.yul\":5041:5046   */\n      dup3\n        /* \"#utility.yul\":5023:5047   */\n      tag_352\n      jump\t// in\n    tag_449:\n        /* \"#utility.yul\":5012:5047   */\n      swap1\n      pop\n        /* \"#utility.yul\":4957:5053   */\n      swap2\n      swap1\n      pop\n      jump\t// out\n        /* \"#utility.yul\":5059:5181   */\n    tag_354:\n        /* \"#utility.yul\":5132:5156   */\n      tag_451\n        /* \"#utility.yul\":5150:5155   */\n      dup2\n        /* \"#utility.yul\":5132:5156   */\n      tag_353\n      jump\t// in\n    tag_451:\n        /* \"#utility.yul\":5125:5130   */\n      dup2\n        /* \"#utility.yul\":5122:5157   */\n      eq\n        /* \"#utility.yul\":5112:5175   */\n      tag_452\n      jumpi\n        /* \"#utility.yul\":5171:5172   */\n      0x00\n        /* \"#utility.yul\":5168:5169   */\n      dup1\n        /* \"#utility.yul\":5161:5173   */\n      revert\n        /* \"#utility.yul\":5112:5175   */\n    tag_452:\n        /* \"#utility.yul\":5059:5181   */\n      pop\n      jump\t// out\n        /* \"#utility.yul\":5187:5326   */\n    tag_355:\n        /* \"#utility.yul\":5233:5238   */\n      0x00\n        /* \"#utility.yul\":5271:5277   */\n      dup2\n        /* \"#utility.yul\":5258:5278   */\n      calldataload\n        /* \"#utility.yul\":5249:5278   */\n      swap1\n      pop\n        /* \"#utility.yul\":5287:5320   */\n      tag_454\n        /* \"#utility.yul\":5314:5319   */\n      dup2\n        /* \"#utility.yul\":5287:5320   */\n      tag_354\n      jump\t// in\n    tag_454:\n        /* \"#utility.yul\":5187:5326   */\n      swap3\n      swap2\n      pop\n      pop\n      jump\t// out\n        /* \"#utility.yul\":5332:5986   */\n    tag_17:\n        /* \"#utility.yul\":5410:5416   */\n      0x00\n        /* \"#utility.yul\":5418:5424   */\n      dup1\n        /* \"#utility.yul\":5467:5469   */\n      0x40\n        /* \"#utility.yul\":5455:5464   */\n      dup4\n        /* \"#utility.yul\":5446:5453   */\n      dup6\n        /* \"#utility.yul\":5442:5465   */\n      sub\n        /* \"#utility.yul\":5438:5470   */\n      slt\n        /* \"#utility.yul\":5435:5554   */\n      iszero\n      tag_456\n      jumpi\n        /* \"#utility.yul\":5473:5552   */\n      tag_457\n      tag_332\n      jump\t// in\n    tag_457:\n        /* \"#utility.yul\":5435:5554   */\n    tag_456:\n        /* \"#utility.yul\":5621:5622   */\n      0x00\n        /* \"#utility.yul\":5610:5619   */\n      dup4\n        /* \"#utility.yul\":5606:5623   */\n      add\n        /* \"#utility.yul\":5593:5624   */\n      calldataload\n        /* \"#utility.yul\":5651:5669   */\n      0xffffffffffffffff\n        /* \"#utility.yul\":5643:5649   */\n      dup2\n        /* \"#utility.yul\":5640:5670   */\n      gt\n        /* \"#utility.yul\":5637:5754   */\n      iszero\n      tag_458\n      jumpi\n        /* \"#utility.yul\":5673:5752   */\n      tag_459\n      tag_333\n      jump\t// in\n    tag_459:\n        /* \"#utility.yul\":5637:5754   */\n    tag_458:\n        /* \"#utility.yul\":5778:5841   */\n      tag_460\n        /* \"#utility.yul\":5833:5840   */\n      dup6\n        /* \"#utility.yul\":5824:5830   */\n      dup3\n        /* \"#utility.yul\":5813:5822   */\n      dup7\n        /* \"#utility.yul\":5809:5831   */\n      add\n        /* \"#utility.yul\":5778:5841   */\n      tag_346\n      jump\t// in\n    tag_460:\n        /* \"#utility.yul\":5768:5841   */\n      swap3\n      pop\n        /* \"#utility.yul\":5564:5851   */\n      pop\n        /* \"#utility.yul\":5890:5892   */\n      0x20\n        /* \"#utility.yul\":5916:5969   */\n      tag_461\n        /* \"#utility.yul\":5961:5968   */\n      dup6\n        /* \"#utility.yul\":5952:5958   */\n      dup3\n        /* \"#utility.yul\":5941:5950   */\n      dup7\n        /* \"#utility.yul\":5937:5959   */\n      add\n        /* \"#utility.yul\":5916:5969   */\n      tag_355\n      jump\t// in\n    tag_461:\n        /* \"#utility.yul\":5906:5969   */\n      swap2\n      pop\n        /* \"#utility.yul\":5861:5979   */\n      pop\n        /* \"#utility.yul\":5332:5986   */\n      swap3\n      pop\n      swap3\n      swap1\n      pop\n      jump\t// out\n        /* \"#utility.yul\":5992:6110   */\n    tag_356:\n        /* \"#utility.yul\":6079:6103   */\n      tag_463\n        /* \"#utility.yul\":6097:6102   */\n      dup2\n        /* \"#utility.yul\":6079:6103   */\n      tag_353\n      jump\t// in\n    tag_463:\n        /* \"#utility.yul\":6074:6077   */\n      dup3\n        /* \"#utility.yul\":6067:6104   */\n      mstore\n        /* \"#utility.yul\":5992:6110   */\n      pop\n      pop\n      jump\t// out\n        /* \"#utility.yul\":6116:6338   */\n    tag_23:\n        /* \"#utility.yul\":6209:6213   */\n      0x00\n        /* \"#utility.yul\":6247:6249   */\n      0x20\n        /* \"#utility.yul\":6236:6245   */\n      dup3\n        /* \"#utility.yul\":6232:6250   */\n      add\n        /* \"#utility.yul\":6224:6250   */\n      swap1\n      pop\n        /* \"#utility.yul\":6260:6331   */\n      tag_465\n        /* \"#utility.yul\":6328:6329   */\n      0x00\n        /* \"#utility.yul\":6317:6326   */\n      dup4\n        /* \"#utility.yul\":6313:6330   */\n      add\n        /* \"#utility.yul\":6304:6310   */\n      dup5\n        /* \"#utility.yul\":6260:6331   */\n      tag_356\n      jump\t// in\n    tag_465:\n        /* \"#utility.yul\":6116:6338   */\n      swap3\n      swap2\n      pop\n      pop\n      jump\t// out\n        /* \"#utility.yul\":6344:6673   */\n    tag_32:\n        /* \"#utility.yul\":6403:6409   */\n      0x00\n        /* \"#utility.yul\":6452:6454   */\n      0x20\n        /* \"#utility.yul\":6440:6449   */\n      dup3\n        /* \"#utility.yul\":6431:6438   */\n      dup5\n        /* \"#utility.yul\":6427:6450   */\n      sub\n        /* \"#utility.yul\":6423:6455   */\n      slt\n        /* \"#utility.yul\":6420:6539   */\n      iszero\n      tag_467\n      jumpi\n        /* \"#utility.yul\":6458:6537   */\n      tag_468\n      tag_332\n      jump\t// in\n    tag_468:\n        /* \"#utility.yul\":6420:6539   */\n    tag_467:\n        /* \"#utility.yul\":6578:6579   */\n      0x00\n        /* \"#utility.yul\":6603:6656   */\n      tag_469\n        /* \"#utility.yul\":6648:6655   */\n      dup5\n        /* \"#utility.yul\":6639:6645   */\n      dup3\n        /* \"#utility.yul\":6628:6637   */\n      dup6\n        /* \"#utility.yul\":6624:6646   */\n      add\n        /* \"#utility.yul\":6603:6656   */\n      tag_355\n      jump\t// in\n    tag_469:\n        /* \"#utility.yul\":6593:6656   */\n      swap2\n      pop\n        /* \"#utility.yul\":6549:6666   */\n      pop\n        /* \"#utility.yul\":6344:6673   */\n      swap3\n      swap2\n      pop\n      pop\n      jump\t// out\n        /* \"#utility.yul\":6679:6778   */\n    tag_357:\n        /* \"#utility.yul\":6731:6737   */\n      0x00\n        /* \"#utility.yul\":6765:6770   */\n      dup2\n        /* \"#utility.yul\":6759:6771   */\n      mload\n        /* \"#utility.yul\":6749:6771   */\n      swap1\n      pop\n        /* \"#utility.yul\":6679:6778   */\n      swap2\n      swap1\n      pop\n      jump\t// out\n        /* \"#utility.yul\":6784:6943   */\n    tag_358:\n        /* \"#utility.yul\":6858:6869   */\n      0x00\n        /* \"#utility.yul\":6892:6898   */\n      dup3\n        /* \"#utility.yul\":6887:6890   */\n      dup3\n        /* \"#utility.yul\":6880:6899   */\n      mstore\n        /* \"#utility.yul\":6932:6936   */\n      0x20\n        /* \"#utility.yul\":6927:6930   */\n      dup3\n        /* \"#utility.yul\":6923:6937   */\n      add\n        /* \"#utility.yul\":6908:6937   */\n      swap1\n      pop\n        /* \"#utility.yul\":6784:6943   */\n      swap3\n      swap2\n      pop\n      pop\n      jump\t// out\n        /* \"#utility.yul\":6949:7256   */\n    tag_359:\n        /* \"#utility.yul\":7017:7018   */\n      0x00\n        /* \"#utility.yul\":7027:7140   */\n    tag_473:\n        /* \"#utility.yul\":7041:7047   */\n      dup4\n        /* \"#utility.yul\":7038:7039   */\n      dup2\n        /* \"#utility.yul\":7035:7048   */\n      lt\n        /* \"#utility.yul\":7027:7140   */\n      iszero\n      tag_475\n      jumpi\n        /* \"#utility.yul\":7126:7127   */\n      dup1\n        /* \"#utility.yul\":7121:7124   */\n      dup3\n        /* \"#utility.yul\":7117:7128   */\n      add\n        /* \"#utility.yul\":7111:7129   */\n      mload\n        /* \"#utility.yul\":7107:7108   */\n      dup2\n        /* \"#utility.yul\":7102:7105   */\n      dup5\n        /* \"#utility.yul\":7098:7109   */\n      add\n        /* \"#utility.yul\":7091:7130   */\n      mstore\n        /* \"#utility.yul\":7063:7065   */\n      0x20\n        /* \"#utility.yul\":7060:7061   */\n      dup2\n        /* \"#utility.yul\":7056:7066   */\n      add\n        /* \"#utility.yul\":7051:7066   */\n      swap1\n      pop\n        /* \"#utility.yul\":7027:7140   */\n      jump(tag_473)\n    tag_475:\n        /* \"#utility.yul\":7158:7164   */\n      dup4\n        /* \"#utility.yul\":7155:7156   */\n      dup2\n        /* \"#utility.yul\":7152:7165   */\n      gt\n        /* \"#utility.yul\":7149:7250   */\n      iszero\n      tag_476\n      jumpi\n        /* \"#utility.yul\":7238:7239   */\n      0x00\n        /* \"#utility.yul\":7229:7235   */\n      dup5\n        /* \"#utility.yul\":7224:7227   */\n      dup5\n        /* \"#utility.yul\":7220:7236   */\n      add\n        /* \"#utility.yul\":7213:7240   */\n      mstore\n        /* \"#utility.yul\":7149:7250   */\n    tag_476:\n        /* \"#utility.yul\":6998:7256   */\n      pop\n        /* \"#utility.yul\":6949:7256   */\n      pop\n      pop\n      pop\n      jump\t// out\n        /* \"#utility.yul\":7262:7606   */\n    tag_360:\n        /* \"#utility.yul\":7340:7343   */\n      0x00\n        /* \"#utility.yul\":7368:7407   */\n      tag_478\n        /* \"#utility.yul\":7401:7406   */\n      dup3\n        /* \"#utility.yul\":7368:7407   */\n      tag_357\n      jump\t// in\n    tag_478:\n        /* \"#utility.yul\":7423:7484   */\n      tag_479\n        /* \"#utility.yul\":7477:7483   */\n      dup2\n        /* \"#utility.yul\":7472:7475   */\n      dup6\n        /* \"#utility.yul\":7423:7484   */\n      tag_358\n      jump\t// in\n    tag_479:\n        /* \"#utility.yul\":7416:7484   */\n      swap4\n      pop\n        /* \"#utility.yul\":7493:7545   */\n      tag_480\n        /* \"#utility.yul\":7538:7544   */\n      dup2\n        /* \"#utility.yul\":7533:7536   */\n      dup6\n        /* \"#utility.yul\":7526:7530   */\n      0x20\n        /* \"#utility.yul\":7519:7524   */\n      dup7\n        /* \"#utility.yul\":7515:7531   */\n      add\n        /* \"#utility.yul\":7493:7545   */\n      tag_359\n      jump\t// in\n    tag_480:\n        /* \"#utility.yul\":7570:7599   */\n      tag_481\n        /* \"#utility.yul\":7592:7598   */\n      dup2\n        /* \"#utility.yul\":7570:7599   */\n      tag_339\n      jump\t// in\n    tag_481:\n        /* \"#utility.yul\":7565:7568   */\n      dup5\n        /* \"#utility.yul\":7561:7600   */\n      add\n        /* \"#utility.yul\":7554:7600   */\n      swap2\n      pop\n        /* \"#utility.yul\":7344:7606   */\n      pop\n        /* \"#utility.yul\":7262:7606   */\n      swap3\n      swap2\n      pop\n      pop\n      jump\t// out\n        /* \"#utility.yul\":7612:7720   */\n    tag_361:\n        /* \"#utility.yul\":7689:7713   */\n      tag_483\n        /* \"#utility.yul\":7707:7712   */\n      dup2\n        /* \"#utility.yul\":7689:7713   */\n      tag_353\n      jump\t// in\n    tag_483:\n        /* \"#utility.yul\":7684:7687   */\n      dup3\n        /* \"#utility.yul\":7677:7714   */\n      mstore\n        /* \"#utility.yul\":7612:7720   */\n      pop\n      pop\n      jump\t// out\n        /* \"#utility.yul\":7726:7825   */\n    tag_362:\n        /* \"#utility.yul\":7797:7818   */\n      tag_485\n        /* \"#utility.yul\":7812:7817   */\n      dup2\n        /* \"#utility.yul\":7797:7818   */\n      tag_350\n      jump\t// in\n    tag_485:\n        /* \"#utility.yul\":7792:7795   */\n      dup3\n        /* \"#utility.yul\":7785:7819   */\n      mstore\n        /* \"#utility.yul\":7726:7825   */\n      pop\n      pop\n      jump\t// out\n        /* \"#utility.yul\":7875:8651   */\n    tag_363:\n        /* \"#utility.yul\":7986:7989   */\n      0x00\n        /* \"#utility.yul\":8022:8026   */\n      0x60\n        /* \"#utility.yul\":8017:8020   */\n      dup4\n        /* \"#utility.yul\":8013:8027   */\n      add\n        /* \"#utility.yul\":8109:8113   */\n      0x00\n        /* \"#utility.yul\":8102:8107   */\n      dup4\n        /* \"#utility.yul\":8098:8114   */\n      add\n        /* \"#utility.yul\":8092:8115   */\n      mload\n        /* \"#utility.yul\":8162:8165   */\n      dup5\n        /* \"#utility.yul\":8156:8160   */\n      dup3\n        /* \"#utility.yul\":8152:8166   */\n      sub\n        /* \"#utility.yul\":8145:8149   */\n      0x00\n        /* \"#utility.yul\":8140:8143   */\n      dup7\n        /* \"#utility.yul\":8136:8150   */\n      add\n        /* \"#utility.yul\":8129:8167   */\n      mstore\n        /* \"#utility.yul\":8188:8261   */\n      tag_487\n        /* \"#utility.yul\":8256:8260   */\n      dup3\n        /* \"#utility.yul\":8242:8254   */\n      dup3\n        /* \"#utility.yul\":8188:8261   */\n      tag_360\n      jump\t// in\n    tag_487:\n        /* \"#utility.yul\":8180:8261   */\n      swap2\n      pop\n        /* \"#utility.yul\":8037:8272   */\n      pop\n        /* \"#utility.yul\":8363:8367   */\n      0x20\n        /* \"#utility.yul\":8356:8361   */\n      dup4\n        /* \"#utility.yul\":8352:8368   */\n      add\n        /* \"#utility.yul\":8346:8369   */\n      mload\n        /* \"#utility.yul\":8382:8445   */\n      tag_488\n        /* \"#utility.yul\":8439:8443   */\n      0x20\n        /* \"#utility.yul\":8434:8437   */\n      dup7\n        /* \"#utility.yul\":8430:8444   */\n      add\n        /* \"#utility.yul\":8416:8428   */\n      dup3\n        /* \"#utility.yul\":8382:8445   */\n      tag_361\n      jump\t// in\n    tag_488:\n        /* \"#utility.yul\":8282:8455   */\n      pop\n        /* \"#utility.yul\":8538:8542   */\n      0x40\n        /* \"#utility.yul\":8531:8536   */\n      dup4\n        /* \"#utility.yul\":8527:8543   */\n      add\n        /* \"#utility.yul\":8521:8544   */\n      mload\n        /* \"#utility.yul\":8557:8614   */\n      tag_489\n        /* \"#utility.yul\":8608:8612   */\n      0x40\n        /* \"#utility.yul\":8603:8606   */\n      dup7\n        /* \"#utility.yul\":8599:8613   */\n      add\n        /* \"#utility.yul\":8585:8597   */\n      dup3\n        /* \"#utility.yul\":8557:8614   */\n      tag_362\n      jump\t// in\n    tag_489:\n        /* \"#utility.yul\":8465:8624   */\n      pop\n        /* \"#utility.yul\":8641:8645   */\n      dup1\n        /* \"#utility.yul\":8634:8645   */\n      swap2\n      pop\n        /* \"#utility.yul\":7991:8651   */\n      pop\n        /* \"#utility.yul\":7875:8651   */\n      swap3\n      swap2\n      pop\n      pop\n      jump\t// out\n        /* \"#utility.yul\":8657:9014   */\n    tag_35:\n        /* \"#utility.yul\":8792:8796   */\n      0x00\n        /* \"#utility.yul\":8830:8832   */\n      0x20\n        /* \"#utility.yul\":8819:8828   */\n      dup3\n        /* \"#utility.yul\":8815:8833   */\n      add\n        /* \"#utility.yul\":8807:8833   */\n      swap1\n      pop\n        /* \"#utility.yul\":8879:8888   */\n      dup2\n        /* \"#utility.yul\":8873:8877   */\n      dup2\n        /* \"#utility.yul\":8869:8889   */\n      sub\n        /* \"#utility.yul\":8865:8866   */\n      0x00\n        /* \"#utility.yul\":8854:8863   */\n      dup4\n        /* \"#utility.yul\":8850:8867   */\n      add\n        /* \"#utility.yul\":8843:8890   */\n      mstore\n        /* \"#utility.yul\":8907:9007   */\n      tag_491\n        /* \"#utility.yul\":9002:9006   */\n      dup2\n        /* \"#utility.yul\":8993:8999   */\n      dup5\n        /* \"#utility.yul\":8907:9007   */\n      tag_363\n      jump\t// in\n    tag_491:\n        /* \"#utility.yul\":8899:9007   */\n      swap1\n      pop\n        /* \"#utility.yul\":8657:9014   */\n      swap3\n      swap2\n      pop\n      pop\n      jump\t// out\n        /* \"#utility.yul\":9020:9189   */\n    tag_364:\n        /* \"#utility.yul\":9104:9115   */\n      0x00\n        /* \"#utility.yul\":9138:9144   */\n      dup3\n        /* \"#utility.yul\":9133:9136   */\n      dup3\n        /* \"#utility.yul\":9126:9145   */\n      mstore\n        /* \"#utility.yul\":9178:9182   */\n      0x20\n        /* \"#utility.yul\":9173:9176   */\n      dup3\n        /* \"#utility.yul\":9169:9183   */\n      add\n        /* \"#utility.yul\":9154:9183   */\n      swap1\n      pop\n        /* \"#utility.yul\":9020:9189   */\n      swap3\n      swap2\n      pop\n      pop\n      jump\t// out\n        /* \"#utility.yul\":9195:9373   */\n    tag_365:\n        /* \"#utility.yul\":9335:9365   */\n      0x5468697320636f6e747261637420697320646561637469766174656400000000\n        /* \"#utility.yul\":9331:9332   */\n      0x00\n        /* \"#utility.yul\":9323:9329   */\n      dup3\n        /* \"#utility.yul\":9319:9333   */\n      add\n        /* \"#utility.yul\":9312:9366   */\n      mstore\n        /* \"#utility.yul\":9195:9373   */\n      pop\n      jump\t// out\n        /* \"#utility.yul\":9379:9745   */\n    tag_366:\n        /* \"#utility.yul\":9521:9524   */\n      0x00\n        /* \"#utility.yul\":9542:9609   */\n      tag_495\n        /* \"#utility.yul\":9606:9608   */\n      0x1c\n        /* \"#utility.yul\":9601:9604   */\n      dup4\n        /* \"#utility.yul\":9542:9609   */\n      tag_364\n      jump\t// in\n    tag_495:\n        /* \"#utility.yul\":9535:9609   */\n      swap2\n      pop\n        /* \"#utility.yul\":9618:9711   */\n      tag_496\n        /* \"#utility.yul\":9707:9710   */\n      dup3\n        /* \"#utility.yul\":9618:9711   */\n      tag_365\n      jump\t// in\n    tag_496:\n        /* \"#utility.yul\":9736:9738   */\n      0x20\n        /* \"#utility.yul\":9731:9734   */\n      dup3\n        /* \"#utility.yul\":9727:9739   */\n      add\n        /* \"#utility.yul\":9720:9739   */\n      swap1\n      pop\n        /* \"#utility.yul\":9379:9745   */\n      swap2\n      swap1\n      pop\n      jump\t// out\n        /* \"#utility.yul\":9751:10170   */\n    tag_44:\n        /* \"#utility.yul\":9917:9921   */\n      0x00\n        /* \"#utility.yul\":9955:9957   */\n      0x20\n        /* \"#utility.yul\":9944:9953   */\n      dup3\n        /* \"#utility.yul\":9940:9958   */\n      add\n        /* \"#utility.yul\":9932:9958   */\n      swap1\n      pop\n        /* \"#utility.yul\":10004:10013   */\n      dup2\n        /* \"#utility.yul\":9998:10002   */\n      dup2\n        /* \"#utility.yul\":9994:10014   */\n      sub\n        /* \"#utility.yul\":9990:9991   */\n      0x00\n        /* \"#utility.yul\":9979:9988   */\n      dup4\n        /* \"#utility.yul\":9975:9992   */\n      add\n        /* \"#utility.yul\":9968:10015   */\n      mstore\n        /* \"#utility.yul\":10032:10163   */\n      tag_498\n        /* \"#utility.yul\":10158:10162   */\n      dup2\n        /* \"#utility.yul\":10032:10163   */\n      tag_366\n      jump\t// in\n    tag_498:\n        /* \"#utility.yul\":10024:10163   */\n      swap1\n      pop\n        /* \"#utility.yul\":9751:10170   */\n      swap2\n      swap1\n      pop\n      jump\t// out\n        /* \"#utility.yul\":10176:10406   */\n    tag_367:\n        /* \"#utility.yul\":10316:10350   */\n      0x4f6e6c79207468652070726f636573732063616e206578656375746520746869\n        /* \"#utility.yul\":10312:10313   */\n      0x00\n        /* \"#utility.yul\":10304:10310   */\n      dup3\n        /* \"#utility.yul\":10300:10314   */\n      add\n        /* \"#utility.yul\":10293:10351   */\n      mstore\n        /* \"#utility.yul\":10385:10398   */\n      0x73206f7065726174696f6e000000000000000000000000000000000000000000\n        /* \"#utility.yul\":10380:10382   */\n      0x20\n        /* \"#utility.yul\":10372:10378   */\n      dup3\n        /* \"#utility.yul\":10368:10383   */\n      add\n        /* \"#utility.yul\":10361:10399   */\n      mstore\n        /* \"#utility.yul\":10176:10406   */\n      pop\n      jump\t// out\n        /* \"#utility.yul\":10412:10778   */\n    tag_368:\n        /* \"#utility.yul\":10554:10557   */\n      0x00\n        /* \"#utility.yul\":10575:10642   */\n      tag_501\n        /* \"#utility.yul\":10639:10641   */\n      0x2b\n        /* \"#utility.yul\":10634:10637   */\n      dup4\n        /* \"#utility.yul\":10575:10642   */\n      tag_364\n      jump\t// in\n    tag_501:\n        /* \"#utility.yul\":10568:10642   */\n      swap2\n      pop\n        /* \"#utility.yul\":10651:10744   */\n      tag_502\n        /* \"#utility.yul\":10740:10743   */\n      dup3\n        /* \"#utility.yul\":10651:10744   */\n      tag_367\n      jump\t// in\n    tag_502:\n        /* \"#utility.yul\":10769:10771   */\n      0x40\n        /* \"#utility.yul\":10764:10767   */\n      dup3\n        /* \"#utility.yul\":10760:10772   */\n      add\n        /* \"#utility.yul\":10753:10772   */\n      swap1\n      pop\n        /* \"#utility.yul\":10412:10778   */\n      swap2\n      swap1\n      pop\n      jump\t// out\n        /* \"#utility.yul\":10784:11203   */\n    tag_47:\n        /* \"#utility.yul\":10950:10954   */\n      0x00\n        /* \"#utility.yul\":10988:10990   */\n      0x20\n        /* \"#utility.yul\":10977:10986   */\n      dup3\n        /* \"#utility.yul\":10973:10991   */\n      add\n        /* \"#utility.yul\":10965:10991   */\n      swap1\n      pop\n        /* \"#utility.yul\":11037:11046   */\n      dup2\n        /* \"#utility.yul\":11031:11035   */\n      dup2\n        /* \"#utility.yul\":11027:11047   */\n      sub\n        /* \"#utility.yul\":11023:11024   */\n      0x00\n        /* \"#utility.yul\":11012:11021   */\n      dup4\n        /* \"#utility.yul\":11008:11025   */\n      add\n        /* \"#utility.yul\":11001:11048   */\n      mstore\n        /* \"#utility.yul\":11065:11196   */\n      tag_504\n        /* \"#utility.yul\":11191:11195   */\n      dup2\n        /* \"#utility.yul\":11065:11196   */\n      tag_368\n      jump\t// in\n    tag_504:\n        /* \"#utility.yul\":11057:11196   */\n      swap1\n      pop\n        /* \"#utility.yul\":10784:11203   */\n      swap2\n      swap1\n      pop\n      jump\t// out\n        /* \"#utility.yul\":11209:11389   */\n    tag_52:\n        /* \"#utility.yul\":11257:11334   */\n      0x4e487b7100000000000000000000000000000000000000000000000000000000\n        /* \"#utility.yul\":11254:11255   */\n      0x00\n        /* \"#utility.yul\":11247:11335   */\n      mstore\n        /* \"#utility.yul\":11354:11358   */\n      0x32\n        /* \"#utility.yul\":11351:11352   */\n      0x04\n        /* \"#utility.yul\":11344:11359   */\n      mstore\n        /* \"#utility.yul\":11378:11382   */\n      0x24\n        /* \"#utility.yul\":11375:11376   */\n      0x00\n        /* \"#utility.yul\":11368:11383   */\n      revert\n        /* \"#utility.yul\":11395:11575   */\n    tag_369:\n        /* \"#utility.yul\":11443:11520   */\n      0x4e487b7100000000000000000000000000000000000000000000000000000000\n        /* \"#utility.yul\":11440:11441   */\n      0x00\n        /* \"#utility.yul\":11433:11521   */\n      mstore\n        /* \"#utility.yul\":11540:11544   */\n      0x22\n        /* \"#utility.yul\":11537:11538   */\n      0x04\n        /* \"#utility.yul\":11530:11545   */\n      mstore\n        /* \"#utility.yul\":11564:11568   */\n      0x24\n        /* \"#utility.yul\":11561:11562   */\n      0x00\n        /* \"#utility.yul\":11554:11569   */\n      revert\n        /* \"#utility.yul\":11581:11901   */\n    tag_81:\n        /* \"#utility.yul\":11625:11631   */\n      0x00\n        /* \"#utility.yul\":11662:11663   */\n      0x02\n        /* \"#utility.yul\":11656:11660   */\n      dup3\n        /* \"#utility.yul\":11652:11664   */\n      div\n        /* \"#utility.yul\":11642:11664   */\n      swap1\n      pop\n        /* \"#utility.yul\":11709:11710   */\n      0x01\n        /* \"#utility.yul\":11703:11707   */\n      dup3\n        /* \"#utility.yul\":11699:11711   */\n      and\n        /* \"#utility.yul\":11730:11748   */\n      dup1\n        /* \"#utility.yul\":11720:11801   */\n      tag_508\n      jumpi\n        /* \"#utility.yul\":11786:11790   */\n      0x7f\n        /* \"#utility.yul\":11778:11784   */\n      dup3\n        /* \"#utility.yul\":11774:11791   */\n      and\n        /* \"#utility.yul\":11764:11791   */\n      swap2\n      pop\n        /* \"#utility.yul\":11720:11801   */\n    tag_508:\n        /* \"#utility.yul\":11848:11850   */\n      0x20\n        /* \"#utility.yul\":11840:11846   */\n      dup3\n        /* \"#utility.yul\":11837:11851   */\n      lt\n        /* \"#utility.yul\":11817:11835   */\n      dup2\n        /* \"#utility.yul\":11814:11852   */\n      sub\n        /* \"#utility.yul\":11811:11895   */\n      tag_509\n      jumpi\n        /* \"#utility.yul\":11867:11885   */\n      tag_510\n      tag_369\n      jump\t// in\n    tag_510:\n        /* \"#utility.yul\":11811:11895   */\n    tag_509:\n        /* \"#utility.yul\":11632:11901   */\n      pop\n        /* \"#utility.yul\":11581:11901   */\n      swap2\n      swap1\n      pop\n      jump\t// out\n        /* \"#utility.yul\":11907:12055   */\n    tag_370:\n        /* \"#utility.yul\":12009:12020   */\n      0x00\n        /* \"#utility.yul\":12046:12049   */\n      dup2\n        /* \"#utility.yul\":12031:12049   */\n      swap1\n      pop\n        /* \"#utility.yul\":11907:12055   */\n      swap3\n      swap2\n      pop\n      pop\n      jump\t// out\n        /* \"#utility.yul\":12061:12202   */\n    tag_371:\n        /* \"#utility.yul\":12110:12114   */\n      0x00\n        /* \"#utility.yul\":12133:12136   */\n      dup2\n        /* \"#utility.yul\":12125:12136   */\n      swap1\n      pop\n        /* \"#utility.yul\":12156:12159   */\n      dup2\n        /* \"#utility.yul\":12153:12154   */\n      0x00\n        /* \"#utility.yul\":12146:12160   */\n      mstore\n        /* \"#utility.yul\":12190:12194   */\n      0x20\n        /* \"#utility.yul\":12187:12188   */\n      0x00\n        /* \"#utility.yul\":12177:12195   */\n      keccak256\n        /* \"#utility.yul\":12169:12195   */\n      swap1\n      pop\n        /* \"#utility.yul\":12061:12202   */\n      swap2\n      swap1\n      pop\n      jump\t// out\n        /* \"#utility.yul\":12232:13077   */\n    tag_372:\n        /* \"#utility.yul\":12335:12338   */\n      0x00\n        /* \"#utility.yul\":12372:12377   */\n      dup2\n        /* \"#utility.yul\":12366:12378   */\n      sload\n        /* \"#utility.yul\":12401:12437   */\n      tag_514\n        /* \"#utility.yul\":12427:12436   */\n      dup2\n        /* \"#utility.yul\":12401:12437   */\n      tag_81\n      jump\t// in\n    tag_514:\n        /* \"#utility.yul\":12453:12542   */\n      tag_515\n        /* \"#utility.yul\":12535:12541   */\n      dup2\n        /* \"#utility.yul\":12530:12533   */\n      dup7\n        /* \"#utility.yul\":12453:12542   */\n      tag_370\n      jump\t// in\n    tag_515:\n        /* \"#utility.yul\":12446:12542   */\n      swap5\n      pop\n        /* \"#utility.yul\":12573:12574   */\n      0x01\n        /* \"#utility.yul\":12562:12571   */\n      dup3\n        /* \"#utility.yul\":12558:12575   */\n      and\n        /* \"#utility.yul\":12589:12590   */\n      0x00\n        /* \"#utility.yul\":12584:12721   */\n      dup2\n      eq\n      tag_517\n      jumpi\n        /* \"#utility.yul\":12735:12736   */\n      0x01\n        /* \"#utility.yul\":12730:13071   */\n      dup2\n      eq\n      tag_518\n      jumpi\n        /* \"#utility.yul\":12551:13071   */\n      jump(tag_516)\n        /* \"#utility.yul\":12584:12721   */\n    tag_517:\n        /* \"#utility.yul\":12668:12672   */\n      0xff\n        /* \"#utility.yul\":12664:12673   */\n      not\n        /* \"#utility.yul\":12653:12662   */\n      dup4\n        /* \"#utility.yul\":12649:12674   */\n      and\n        /* \"#utility.yul\":12644:12647   */\n      dup7\n        /* \"#utility.yul\":12637:12675   */\n      mstore\n        /* \"#utility.yul\":12704:12710   */\n      dup2\n        /* \"#utility.yul\":12699:12702   */\n      dup7\n        /* \"#utility.yul\":12695:12711   */\n      add\n        /* \"#utility.yul\":12688:12711   */\n      swap4\n      pop\n        /* \"#utility.yul\":12584:12721   */\n      jump(tag_516)\n        /* \"#utility.yul\":12730:13071   */\n    tag_518:\n        /* \"#utility.yul\":12797:12835   */\n      tag_519\n        /* \"#utility.yul\":12829:12834   */\n      dup6\n        /* \"#utility.yul\":12797:12835   */\n      tag_371\n      jump\t// in\n    tag_519:\n        /* \"#utility.yul\":12857:12858   */\n      0x00\n        /* \"#utility.yul\":12871:13025   */\n    tag_520:\n        /* \"#utility.yul\":12885:12891   */\n      dup4\n        /* \"#utility.yul\":12882:12883   */\n      dup2\n        /* \"#utility.yul\":12879:12892   */\n      lt\n        /* \"#utility.yul\":12871:13025   */\n      iszero\n      tag_522\n      jumpi\n        /* \"#utility.yul\":12959:12966   */\n      dup2\n        /* \"#utility.yul\":12953:12967   */\n      sload\n        /* \"#utility.yul\":12949:12950   */\n      dup2\n        /* \"#utility.yul\":12944:12947   */\n      dup10\n        /* \"#utility.yul\":12940:12951   */\n      add\n        /* \"#utility.yul\":12933:12968   */\n      mstore\n        /* \"#utility.yul\":13009:13010   */\n      0x01\n        /* \"#utility.yul\":13000:13007   */\n      dup3\n        /* \"#utility.yul\":12996:13011   */\n      add\n        /* \"#utility.yul\":12985:13011   */\n      swap2\n      pop\n        /* \"#utility.yul\":12907:12911   */\n      0x20\n        /* \"#utility.yul\":12904:12905   */\n      dup2\n        /* \"#utility.yul\":12900:12912   */\n      add\n        /* \"#utility.yul\":12895:12912   */\n      swap1\n      pop\n        /* \"#utility.yul\":12871:13025   */\n      jump(tag_520)\n    tag_522:\n        /* \"#utility.yul\":13054:13060   */\n      dup4\n        /* \"#utility.yul\":13049:13052   */\n      dup9\n        /* \"#utility.yul\":13045:13061   */\n      add\n        /* \"#utility.yul\":13038:13061   */\n      swap6\n      pop\n        /* \"#utility.yul\":12737:13071   */\n      pop\n      pop\n        /* \"#utility.yul\":12551:13071   */\n    tag_516:\n      pop\n        /* \"#utility.yul\":12339:13077   */\n      pop\n      pop\n        /* \"#utility.yul\":12232:13077   */\n      swap3\n      swap2\n      pop\n      pop\n      jump\t// out\n        /* \"#utility.yul\":13083:13352   */\n    tag_60:\n        /* \"#utility.yul\":13212:13215   */\n      0x00\n        /* \"#utility.yul\":13234:13326   */\n      tag_524\n        /* \"#utility.yul\":13322:13325   */\n      dup3\n        /* \"#utility.yul\":13313:13319   */\n      dup5\n        /* \"#utility.yul\":13234:13326   */\n      tag_372\n      jump\t// in\n    tag_524:\n        /* \"#utility.yul\":13227:13326   */\n      swap2\n      pop\n        /* \"#utility.yul\":13343:13346   */\n      dup2\n        /* \"#utility.yul\":13336:13346   */\n      swap1\n      pop\n        /* \"#utility.yul\":13083:13352   */\n      swap3\n      swap2\n      pop\n      pop\n      jump\t// out\n        /* \"#utility.yul\":13358:13735   */\n    tag_373:\n        /* \"#utility.yul\":13464:13467   */\n      0x00\n        /* \"#utility.yul\":13492:13531   */\n      tag_526\n        /* \"#utility.yul\":13525:13530   */\n      dup3\n        /* \"#utility.yul\":13492:13531   */\n      tag_357\n      jump\t// in\n    tag_526:\n        /* \"#utility.yul\":13547:13636   */\n      tag_527\n        /* \"#utility.yul\":13629:13635   */\n      dup2\n        /* \"#utility.yul\":13624:13627   */\n      dup6\n        /* \"#utility.yul\":13547:13636   */\n      tag_370\n      jump\t// in\n    tag_527:\n        /* \"#utility.yul\":13540:13636   */\n      swap4\n      pop\n        /* \"#utility.yul\":13645:13697   */\n      tag_528\n        /* \"#utility.yul\":13690:13696   */\n      dup2\n        /* \"#utility.yul\":13685:13688   */\n      dup6\n        /* \"#utility.yul\":13678:13682   */\n      0x20\n        /* \"#utility.yul\":13671:13676   */\n      dup7\n        /* \"#utility.yul\":13667:13683   */\n      add\n        /* \"#utility.yul\":13645:13697   */\n      tag_359\n      jump\t// in\n    tag_528:\n        /* \"#utility.yul\":13722:13728   */\n      dup1\n        /* \"#utility.yul\":13717:13720   */\n      dup5\n        /* \"#utility.yul\":13713:13729   */\n      add\n        /* \"#utility.yul\":13706:13729   */\n      swap2\n      pop\n        /* \"#utility.yul\":13468:13735   */\n      pop\n        /* \"#utility.yul\":13358:13735   */\n      swap3\n      swap2\n      pop\n      pop\n      jump\t// out\n        /* \"#utility.yul\":13741:14016   */\n    tag_62:\n        /* \"#utility.yul\":13873:13876   */\n      0x00\n        /* \"#utility.yul\":13895:13990   */\n      tag_530\n        /* \"#utility.yul\":13986:13989   */\n      dup3\n        /* \"#utility.yul\":13977:13983   */\n      dup5\n        /* \"#utility.yul\":13895:13990   */\n      tag_373\n      jump\t// in\n    tag_530:\n        /* \"#utility.yul\":13888:13990   */\n      swap2\n      pop\n        /* \"#utility.yul\":14007:14010   */\n      dup2\n        /* \"#utility.yul\":14000:14010   */\n      swap1\n      pop\n        /* \"#utility.yul\":13741:14016   */\n      swap3\n      swap2\n      pop\n      pop\n      jump\t// out\n        /* \"#utility.yul\":14022:14271   */\n    tag_374:\n        /* \"#utility.yul\":14162:14196   */\n      0x4f6e6c79207468652070726f63657373206f7220746865206170706c69636174\n        /* \"#utility.yul\":14158:14159   */\n      0x00\n        /* \"#utility.yul\":14150:14156   */\n      dup3\n        /* \"#utility.yul\":14146:14160   */\n      add\n        /* \"#utility.yul\":14139:14197   */\n      mstore\n        /* \"#utility.yul\":14231:14263   */\n      0x696f6e2063616e20657865637574652074686973206f7065726174696f6e0000\n        /* \"#utility.yul\":14226:14228   */\n      0x20\n        /* \"#utility.yul\":14218:14224   */\n      dup3\n        /* \"#utility.yul\":14214:14229   */\n      add\n        /* \"#utility.yul\":14207:14264   */\n      mstore\n        /* \"#utility.yul\":14022:14271   */\n      pop\n      jump\t// out\n        /* \"#utility.yul\":14277:14643   */\n    tag_375:\n        /* \"#utility.yul\":14419:14422   */\n      0x00\n        /* \"#utility.yul\":14440:14507   */\n      tag_533\n        /* \"#utility.yul\":14504:14506   */\n      0x3e\n        /* \"#utility.yul\":14499:14502   */\n      dup4\n        /* \"#utility.yul\":14440:14507   */\n      tag_364\n      jump\t// in\n    tag_533:\n        /* \"#utility.yul\":14433:14507   */\n      swap2\n      pop\n        /* \"#utility.yul\":14516:14609   */\n      tag_534\n        /* \"#utility.yul\":14605:14608   */\n      dup3\n        /* \"#utility.yul\":14516:14609   */\n      tag_374\n      jump\t// in\n    tag_534:\n        /* \"#utility.yul\":14634:14636   */\n      0x40\n        /* \"#utility.yul\":14629:14632   */\n      dup3\n        /* \"#utility.yul\":14625:14637   */\n      add\n        /* \"#utility.yul\":14618:14637   */\n      swap1\n      pop\n        /* \"#utility.yul\":14277:14643   */\n      swap2\n      swap1\n      pop\n      jump\t// out\n        /* \"#utility.yul\":14649:15068   */\n    tag_133:\n        /* \"#utility.yul\":14815:14819   */\n      0x00\n        /* \"#utility.yul\":14853:14855   */\n      0x20\n        /* \"#utility.yul\":14842:14851   */\n      dup3\n        /* \"#utility.yul\":14838:14856   */\n      add\n        /* \"#utility.yul\":14830:14856   */\n      swap1\n      pop\n        /* \"#utility.yul\":14902:14911   */\n      dup2\n        /* \"#utility.yul\":14896:14900   */\n      dup2\n        /* \"#utility.yul\":14892:14912   */\n      sub\n        /* \"#utility.yul\":14888:14889   */\n      0x00\n        /* \"#utility.yul\":14877:14886   */\n      dup4\n        /* \"#utility.yul\":14873:14890   */\n      add\n        /* \"#utility.yul\":14866:14913   */\n      mstore\n        /* \"#utility.yul\":14930:15061   */\n      tag_536\n        /* \"#utility.yul\":15056:15060   */\n      dup2\n        /* \"#utility.yul\":14930:15061   */\n      tag_375\n      jump\t// in\n    tag_536:\n        /* \"#utility.yul\":14922:15061   */\n      swap1\n      pop\n        /* \"#utility.yul\":14649:15068   */\n      swap2\n      swap1\n      pop\n      jump\t// out\n        /* \"#utility.yul\":15074:15308   */\n    tag_376:\n        /* \"#utility.yul\":15214:15248   */\n      0x4f6e6c7920746865206170706c69636174696f6e2063616e2065786563757465\n        /* \"#utility.yul\":15210:15211   */\n      0x00\n        /* \"#utility.yul\":15202:15208   */\n      dup3\n        /* \"#utility.yul\":15198:15212   */\n      add\n        /* \"#utility.yul\":15191:15249   */\n      mstore\n        /* \"#utility.yul\":15283:15300   */\n      0x2074686973206f7065726174696f6e0000000000000000000000000000000000\n        /* \"#utility.yul\":15278:15280   */\n      0x20\n        /* \"#utility.yul\":15270:15276   */\n      dup3\n        /* \"#utility.yul\":15266:15281   */\n      add\n        /* \"#utility.yul\":15259:15301   */\n      mstore\n        /* \"#utility.yul\":15074:15308   */\n      pop\n      jump\t// out\n        /* \"#utility.yul\":15314:15680   */\n    tag_377:\n        /* \"#utility.yul\":15456:15459   */\n      0x00\n        /* \"#utility.yul\":15477:15544   */\n      tag_539\n        /* \"#utility.yul\":15541:15543   */\n      0x2f\n        /* \"#utility.yul\":15536:15539   */\n      dup4\n        /* \"#utility.yul\":15477:15544   */\n      tag_364\n      jump\t// in\n    tag_539:\n        /* \"#utility.yul\":15470:15544   */\n      swap2\n      pop\n        /* \"#utility.yul\":15553:15646   */\n      tag_540\n        /* \"#utility.yul\":15642:15645   */\n      dup3\n        /* \"#utility.yul\":15553:15646   */\n      tag_376\n      jump\t// in\n    tag_540:\n        /* \"#utility.yul\":15671:15673   */\n      0x40\n        /* \"#utility.yul\":15666:15669   */\n      dup3\n        /* \"#utility.yul\":15662:15674   */\n      add\n        /* \"#utility.yul\":15655:15674   */\n      swap1\n      pop\n        /* \"#utility.yul\":15314:15680   */\n      swap2\n      swap1\n      pop\n      jump\t// out\n        /* \"#utility.yul\":15686:16105   */\n    tag_147:\n        /* \"#utility.yul\":15852:15856   */\n      0x00\n        /* \"#utility.yul\":15890:15892   */\n      0x20\n        /* \"#utility.yul\":15879:15888   */\n      dup3\n        /* \"#utility.yul\":15875:15893   */\n      add\n        /* \"#utility.yul\":15867:15893   */\n      swap1\n      pop\n        /* \"#utility.yul\":15939:15948   */\n      dup2\n        /* \"#utility.yul\":15933:15937   */\n      dup2\n        /* \"#utility.yul\":15929:15949   */\n      sub\n        /* \"#utility.yul\":15925:15926   */\n      0x00\n        /* \"#utility.yul\":15914:15923   */\n      dup4\n        /* \"#utility.yul\":15910:15927   */\n      add\n        /* \"#utility.yul\":15903:15950   */\n      mstore\n        /* \"#utility.yul\":15967:16098   */\n      tag_542\n        /* \"#utility.yul\":16093:16097   */\n      dup2\n        /* \"#utility.yul\":15967:16098   */\n      tag_377\n      jump\t// in\n    tag_542:\n        /* \"#utility.yul\":15959:16098   */\n      swap1\n      pop\n        /* \"#utility.yul\":15686:16105   */\n      swap2\n      swap1\n      pop\n      jump\t// out\n        /* \"#utility.yul\":16111:16291   */\n    tag_378:\n        /* \"#utility.yul\":16251:16283   */\n      0x54686520636f6e747261637420697320616c7265616479207369676e65640000\n        /* \"#utility.yul\":16247:16248   */\n      0x00\n        /* \"#utility.yul\":16239:16245   */\n      dup3\n        /* \"#utility.yul\":16235:16249   */\n      add\n        /* \"#utility.yul\":16228:16284   */\n      mstore\n        /* \"#utility.yul\":16111:16291   */\n      pop\n      jump\t// out\n        /* \"#utility.yul\":16297:16663   */\n    tag_379:\n        /* \"#utility.yul\":16439:16442   */\n      0x00\n        /* \"#utility.yul\":16460:16527   */\n      tag_545\n        /* \"#utility.yul\":16524:16526   */\n      0x1e\n        /* \"#utility.yul\":16519:16522   */\n      dup4\n        /* \"#utility.yul\":16460:16527   */\n      tag_364\n      jump\t// in\n    tag_545:\n        /* \"#utility.yul\":16453:16527   */\n      swap2\n      pop\n        /* \"#utility.yul\":16536:16629   */\n      tag_546\n        /* \"#utility.yul\":16625:16628   */\n      dup3\n        /* \"#utility.yul\":16536:16629   */\n      tag_378\n      jump\t// in\n    tag_546:\n        /* \"#utility.yul\":16654:16656   */\n      0x20\n        /* \"#utility.yul\":16649:16652   */\n      dup3\n        /* \"#utility.yul\":16645:16657   */\n      add\n        /* \"#utility.yul\":16638:16657   */\n      swap1\n      pop\n        /* \"#utility.yul\":16297:16663   */\n      swap2\n      swap1\n      pop\n      jump\t// out\n        /* \"#utility.yul\":16669:17088   */\n    tag_151:\n        /* \"#utility.yul\":16835:16839   */\n      0x00\n        /* \"#utility.yul\":16873:16875   */\n      0x20\n        /* \"#utility.yul\":16862:16871   */\n      dup3\n        /* \"#utility.yul\":16858:16876   */\n      add\n        /* \"#utility.yul\":16850:16876   */\n      swap1\n      pop\n        /* \"#utility.yul\":16922:16931   */\n      dup2\n        /* \"#utility.yul\":16916:16920   */\n      dup2\n        /* \"#utility.yul\":16912:16932   */\n      sub\n        /* \"#utility.yul\":16908:16909   */\n      0x00\n        /* \"#utility.yul\":16897:16906   */\n      dup4\n        /* \"#utility.yul\":16893:16910   */\n      add\n        /* \"#utility.yul\":16886:16933   */\n      mstore\n        /* \"#utility.yul\":16950:17081   */\n      tag_548\n        /* \"#utility.yul\":17076:17080   */\n      dup2\n        /* \"#utility.yul\":16950:17081   */\n      tag_379\n      jump\t// in\n    tag_548:\n        /* \"#utility.yul\":16942:17081   */\n      swap1\n      pop\n        /* \"#utility.yul\":16669:17088   */\n      swap2\n      swap1\n      pop\n      jump\t// out\n        /* \"#utility.yul\":17094:17321   */\n    tag_380:\n        /* \"#utility.yul\":17234:17268   */\n      0x546865205f7374617274446179206e6f7420726570726573656e747320612076\n        /* \"#utility.yul\":17230:17231   */\n      0x00\n        /* \"#utility.yul\":17222:17228   */\n      dup3\n        /* \"#utility.yul\":17218:17232   */\n      add\n        /* \"#utility.yul\":17211:17269   */\n      mstore\n        /* \"#utility.yul\":17303:17313   */\n      0x616c696420646179000000000000000000000000000000000000000000000000\n        /* \"#utility.yul\":17298:17300   */\n      0x20\n        /* \"#utility.yul\":17290:17296   */\n      dup3\n        /* \"#utility.yul\":17286:17301   */\n      add\n        /* \"#utility.yul\":17279:17314   */\n      mstore\n        /* \"#utility.yul\":17094:17321   */\n      pop\n      jump\t// out\n        /* \"#utility.yul\":17327:17693   */\n    tag_381:\n        /* \"#utility.yul\":17469:17472   */\n      0x00\n        /* \"#utility.yul\":17490:17557   */\n      tag_551\n        /* \"#utility.yul\":17554:17556   */\n      0x28\n        /* \"#utility.yul\":17549:17552   */\n      dup4\n        /* \"#utility.yul\":17490:17557   */\n      tag_364\n      jump\t// in\n    tag_551:\n        /* \"#utility.yul\":17483:17557   */\n      swap2\n      pop\n        /* \"#utility.yul\":17566:17659   */\n      tag_552\n        /* \"#utility.yul\":17655:17658   */\n      dup3\n        /* \"#utility.yul\":17566:17659   */\n      tag_380\n      jump\t// in\n    tag_552:\n        /* \"#utility.yul\":17684:17686   */\n      0x40\n        /* \"#utility.yul\":17679:17682   */\n      dup3\n        /* \"#utility.yul\":17675:17687   */\n      add\n        /* \"#utility.yul\":17668:17687   */\n      swap1\n      pop\n        /* \"#utility.yul\":17327:17693   */\n      swap2\n      swap1\n      pop\n      jump\t// out\n        /* \"#utility.yul\":17699:18118   */\n    tag_175:\n        /* \"#utility.yul\":17865:17869   */\n      0x00\n        /* \"#utility.yul\":17903:17905   */\n      0x20\n        /* \"#utility.yul\":17892:17901   */\n      dup3\n        /* \"#utility.yul\":17888:17906   */\n      add\n        /* \"#utility.yul\":17880:17906   */\n      swap1\n      pop\n        /* \"#utility.yul\":17952:17961   */\n      dup2\n        /* \"#utility.yul\":17946:17950   */\n      dup2\n        /* \"#utility.yul\":17942:17962   */\n      sub\n        /* \"#utility.yul\":17938:17939   */\n      0x00\n        /* \"#utility.yul\":17927:17936   */\n      dup4\n        /* \"#utility.yul\":17923:17940   */\n      add\n        /* \"#utility.yul\":17916:17963   */\n      mstore\n        /* \"#utility.yul\":17980:18111   */\n      tag_554\n        /* \"#utility.yul\":18106:18110   */\n      dup2\n        /* \"#utility.yul\":17980:18111   */\n      tag_381\n      jump\t// in\n    tag_554:\n        /* \"#utility.yul\":17972:18111   */\n      swap1\n      pop\n        /* \"#utility.yul\":17699:18118   */\n      swap2\n      swap1\n      pop\n      jump\t// out\n        /* \"#utility.yul\":18124:18349   */\n    tag_382:\n        /* \"#utility.yul\":18264:18298   */\n      0x546865205f656e64446179206e6f7420726570726573656e747320612076616c\n        /* \"#utility.yul\":18260:18261   */\n      0x00\n        /* \"#utility.yul\":18252:18258   */\n      dup3\n        /* \"#utility.yul\":18248:18262   */\n      add\n        /* \"#utility.yul\":18241:18299   */\n      mstore\n        /* \"#utility.yul\":18333:18341   */\n      0x6964206461790000000000000000000000000000000000000000000000000000\n        /* \"#utility.yul\":18328:18330   */\n      0x20\n        /* \"#utility.yul\":18320:18326   */\n      dup3\n        /* \"#utility.yul\":18316:18331   */\n      add\n        /* \"#utility.yul\":18309:18342   */\n      mstore\n        /* \"#utility.yul\":18124:18349   */\n      pop\n      jump\t// out\n        /* \"#utility.yul\":18355:18721   */\n    tag_383:\n        /* \"#utility.yul\":18497:18500   */\n      0x00\n        /* \"#utility.yul\":18518:18585   */\n      tag_557\n        /* \"#utility.yul\":18582:18584   */\n      0x26\n        /* \"#utility.yul\":18577:18580   */\n      dup4\n        /* \"#utility.yul\":18518:18585   */\n      tag_364\n      jump\t// in\n    tag_557:\n        /* \"#utility.yul\":18511:18585   */\n      swap2\n      pop\n        /* \"#utility.yul\":18594:18687   */\n      tag_558\n        /* \"#utility.yul\":18683:18686   */\n      dup3\n        /* \"#utility.yul\":18594:18687   */\n      tag_382\n      jump\t// in\n    tag_558:\n        /* \"#utility.yul\":18712:18714   */\n      0x40\n        /* \"#utility.yul\":18707:18710   */\n      dup3\n        /* \"#utility.yul\":18703:18715   */\n      add\n        /* \"#utility.yul\":18696:18715   */\n      swap1\n      pop\n        /* \"#utility.yul\":18355:18721   */\n      swap2\n      swap1\n      pop\n      jump\t// out\n        /* \"#utility.yul\":18727:19146   */\n    tag_179:\n        /* \"#utility.yul\":18893:18897   */\n      0x00\n        /* \"#utility.yul\":18931:18933   */\n      0x20\n        /* \"#utility.yul\":18920:18929   */\n      dup3\n        /* \"#utility.yul\":18916:18934   */\n      add\n        /* \"#utility.yul\":18908:18934   */\n      swap1\n      pop\n        /* \"#utility.yul\":18980:18989   */\n      dup2\n        /* \"#utility.yul\":18974:18978   */\n      dup2\n        /* \"#utility.yul\":18970:18990   */\n      sub\n        /* \"#utility.yul\":18966:18967   */\n      0x00\n        /* \"#utility.yul\":18955:18964   */\n      dup4\n        /* \"#utility.yul\":18951:18968   */\n      add\n        /* \"#utility.yul\":18944:18991   */\n      mstore\n        /* \"#utility.yul\":19008:19139   */\n      tag_560\n        /* \"#utility.yul\":19134:19138   */\n      dup2\n        /* \"#utility.yul\":19008:19139   */\n      tag_383\n      jump\t// in\n    tag_560:\n        /* \"#utility.yul\":19000:19139   */\n      swap1\n      pop\n        /* \"#utility.yul\":18727:19146   */\n      swap2\n      swap1\n      pop\n      jump\t// out\n        /* \"#utility.yul\":19152:19332   */\n    tag_384:\n        /* \"#utility.yul\":19200:19277   */\n      0x4e487b7100000000000000000000000000000000000000000000000000000000\n        /* \"#utility.yul\":19197:19198   */\n      0x00\n        /* \"#utility.yul\":19190:19278   */\n      mstore\n        /* \"#utility.yul\":19297:19301   */\n      0x11\n        /* \"#utility.yul\":19294:19295   */\n      0x04\n        /* \"#utility.yul\":19287:19302   */\n      mstore\n        /* \"#utility.yul\":19321:19325   */\n      0x24\n        /* \"#utility.yul\":19318:19319   */\n      0x00\n        /* \"#utility.yul\":19311:19326   */\n      revert\n        /* \"#utility.yul\":19338:19584   */\n    tag_208:\n        /* \"#utility.yul\":19377:19380   */\n      0x00\n        /* \"#utility.yul\":19396:19415   */\n      tag_563\n        /* \"#utility.yul\":19413:19414   */\n      dup3\n        /* \"#utility.yul\":19396:19415   */\n      tag_347\n      jump\t// in\n    tag_563:\n        /* \"#utility.yul\":19391:19415   */\n      swap2\n      pop\n        /* \"#utility.yul\":19429:19448   */\n      tag_564\n        /* \"#utility.yul\":19446:19447   */\n      dup4\n        /* \"#utility.yul\":19429:19448   */\n      tag_347\n      jump\t// in\n    tag_564:\n        /* \"#utility.yul\":19424:19448   */\n      swap3\n      pop\n        /* \"#utility.yul\":19526:19527   */\n      dup3\n        /* \"#utility.yul\":19514:19524   */\n      0xffffffff\n        /* \"#utility.yul\":19510:19528   */\n      sub\n        /* \"#utility.yul\":19507:19508   */\n      dup3\n        /* \"#utility.yul\":19504:19529   */\n      gt\n        /* \"#utility.yul\":19501:19552   */\n      iszero\n      tag_565\n      jumpi\n        /* \"#utility.yul\":19532:19550   */\n      tag_566\n      tag_384\n      jump\t// in\n    tag_566:\n        /* \"#utility.yul\":19501:19552   */\n    tag_565:\n        /* \"#utility.yul\":19576:19577   */\n      dup3\n        /* \"#utility.yul\":19573:19574   */\n      dup3\n        /* \"#utility.yul\":19569:19578   */\n      add\n        /* \"#utility.yul\":19562:19578   */\n      swap1\n      pop\n        /* \"#utility.yul\":19338:19584   */\n      swap3\n      swap2\n      pop\n      pop\n      jump\t// out\n        /* \"#utility.yul\":19590:19778   */\n    tag_226:\n        /* \"#utility.yul\":19629:19633   */\n      0x00\n        /* \"#utility.yul\":19649:19668   */\n      tag_568\n        /* \"#utility.yul\":19666:19667   */\n      dup3\n        /* \"#utility.yul\":19649:19668   */\n      tag_347\n      jump\t// in\n    tag_568:\n        /* \"#utility.yul\":19644:19668   */\n      swap2\n      pop\n        /* \"#utility.yul\":19682:19701   */\n      tag_569\n        /* \"#utility.yul\":19699:19700   */\n      dup4\n        /* \"#utility.yul\":19682:19701   */\n      tag_347\n      jump\t// in\n    tag_569:\n        /* \"#utility.yul\":19677:19701   */\n      swap3\n      pop\n        /* \"#utility.yul\":19720:19721   */\n      dup3\n        /* \"#utility.yul\":19717:19718   */\n      dup3\n        /* \"#utility.yul\":19714:19722   */\n      lt\n        /* \"#utility.yul\":19711:19745   */\n      iszero\n      tag_570\n      jumpi\n        /* \"#utility.yul\":19725:19743   */\n      tag_571\n      tag_384\n      jump\t// in\n    tag_571:\n        /* \"#utility.yul\":19711:19745   */\n    tag_570:\n        /* \"#utility.yul\":19770:19771   */\n      dup3\n        /* \"#utility.yul\":19767:19768   */\n      dup3\n        /* \"#utility.yul\":19763:19772   */\n      sub\n        /* \"#utility.yul\":19755:19772   */\n      swap1\n      pop\n        /* \"#utility.yul\":19590:19778   */\n      swap3\n      swap2\n      pop\n      pop\n      jump\t// out\n        /* \"#utility.yul\":19784:20073   */\n    tag_233:\n        /* \"#utility.yul\":19823:19830   */\n      0x00\n        /* \"#utility.yul\":19846:19865   */\n      tag_573\n        /* \"#utility.yul\":19863:19864   */\n      dup3\n        /* \"#utility.yul\":19846:19865   */\n      tag_347\n      jump\t// in\n    tag_573:\n        /* \"#utility.yul\":19841:19865   */\n      swap2\n      pop\n        /* \"#utility.yul\":19879:19898   */\n      tag_574\n        /* \"#utility.yul\":19896:19897   */\n      dup4\n        /* \"#utility.yul\":19879:19898   */\n      tag_347\n      jump\t// in\n    tag_574:\n        /* \"#utility.yul\":19874:19898   */\n      swap3\n      pop\n        /* \"#utility.yul\":20010:20011   */\n      dup2\n        /* \"#utility.yul\":19998:20008   */\n      0xffffffff\n        /* \"#utility.yul\":19994:20012   */\n      div\n        /* \"#utility.yul\":19991:19992   */\n      dup4\n        /* \"#utility.yul\":19988:20013   */\n      gt\n        /* \"#utility.yul\":19983:19984   */\n      dup3\n        /* \"#utility.yul\":19976:19985   */\n      iszero\n        /* \"#utility.yul\":19969:19986   */\n      iszero\n        /* \"#utility.yul\":19965:20014   */\n      and\n        /* \"#utility.yul\":19962:20037   */\n      iszero\n      tag_575\n      jumpi\n        /* \"#utility.yul\":20017:20035   */\n      tag_576\n      tag_384\n      jump\t// in\n    tag_576:\n        /* \"#utility.yul\":19962:20037   */\n    tag_575:\n        /* \"#utility.yul\":20065:20066   */\n      dup3\n        /* \"#utility.yul\":20062:20063   */\n      dup3\n        /* \"#utility.yul\":20058:20067   */\n      mul\n        /* \"#utility.yul\":20047:20067   */\n      swap1\n      pop\n        /* \"#utility.yul\":19784:20073   */\n      swap3\n      swap2\n      pop\n      pop\n      jump\t// out\n        /* \"#utility.yul\":20079:20325   */\n    tag_385:\n        /* \"#utility.yul\":20219:20253   */\n      0x546865206d6574686f642067657454696d65496e5365636f6e647320646f6573\n        /* \"#utility.yul\":20215:20216   */\n      0x00\n        /* \"#utility.yul\":20207:20213   */\n      dup3\n        /* \"#utility.yul\":20203:20217   */\n      add\n        /* \"#utility.yul\":20196:20254   */\n      mstore\n        /* \"#utility.yul\":20288:20317   */\n      0x6e277420776f726b20666f72204d4f4e544820616e6420594541520000000000\n        /* \"#utility.yul\":20283:20285   */\n      0x20\n        /* \"#utility.yul\":20275:20281   */\n      dup3\n        /* \"#utility.yul\":20271:20286   */\n      add\n        /* \"#utility.yul\":20264:20318   */\n      mstore\n        /* \"#utility.yul\":20079:20325   */\n      pop\n      jump\t// out\n        /* \"#utility.yul\":20331:20697   */\n    tag_386:\n        /* \"#utility.yul\":20473:20476   */\n      0x00\n        /* \"#utility.yul\":20494:20561   */\n      tag_579\n        /* \"#utility.yul\":20558:20560   */\n      0x3b\n        /* \"#utility.yul\":20553:20556   */\n      dup4\n        /* \"#utility.yul\":20494:20561   */\n      tag_364\n      jump\t// in\n    tag_579:\n        /* \"#utility.yul\":20487:20561   */\n      swap2\n      pop\n        /* \"#utility.yul\":20570:20663   */\n      tag_580\n        /* \"#utility.yul\":20659:20662   */\n      dup3\n        /* \"#utility.yul\":20570:20663   */\n      tag_385\n      jump\t// in\n    tag_580:\n        /* \"#utility.yul\":20688:20690   */\n      0x40\n        /* \"#utility.yul\":20683:20686   */\n      dup3\n        /* \"#utility.yul\":20679:20691   */\n      add\n        /* \"#utility.yul\":20672:20691   */\n      swap1\n      pop\n        /* \"#utility.yul\":20331:20697   */\n      swap2\n      swap1\n      pop\n      jump\t// out\n        /* \"#utility.yul\":20703:21122   */\n    tag_237:\n        /* \"#utility.yul\":20869:20873   */\n      0x00\n        /* \"#utility.yul\":20907:20909   */\n      0x20\n        /* \"#utility.yul\":20896:20905   */\n      dup3\n        /* \"#utility.yul\":20892:20910   */\n      add\n        /* \"#utility.yul\":20884:20910   */\n      swap1\n      pop\n        /* \"#utility.yul\":20956:20965   */\n      dup2\n        /* \"#utility.yul\":20950:20954   */\n      dup2\n        /* \"#utility.yul\":20946:20966   */\n      sub\n        /* \"#utility.yul\":20942:20943   */\n      0x00\n        /* \"#utility.yul\":20931:20940   */\n      dup4\n        /* \"#utility.yul\":20927:20944   */\n      add\n        /* \"#utility.yul\":20920:20967   */\n      mstore\n        /* \"#utility.yul\":20984:21115   */\n      tag_582\n        /* \"#utility.yul\":21110:21114   */\n      dup2\n        /* \"#utility.yul\":20984:21115   */\n      tag_386\n      jump\t// in\n    tag_582:\n        /* \"#utility.yul\":20976:21115   */\n      swap1\n      pop\n        /* \"#utility.yul\":20703:21122   */\n      swap2\n      swap1\n      pop\n      jump\t// out\n        /* \"#utility.yul\":21128:21205   */\n    tag_387:\n        /* \"#utility.yul\":21165:21172   */\n      0x00\n        /* \"#utility.yul\":21194:21199   */\n      dup2\n        /* \"#utility.yul\":21183:21199   */\n      swap1\n      pop\n        /* \"#utility.yul\":21128:21205   */\n      swap2\n      swap1\n      pop\n      jump\t// out\n        /* \"#utility.yul\":21211:21391   */\n    tag_388:\n        /* \"#utility.yul\":21259:21336   */\n      0x4e487b7100000000000000000000000000000000000000000000000000000000\n        /* \"#utility.yul\":21256:21257   */\n      0x00\n        /* \"#utility.yul\":21249:21337   */\n      mstore\n        /* \"#utility.yul\":21356:21360   */\n      0x12\n        /* \"#utility.yul\":21353:21354   */\n      0x04\n        /* \"#utility.yul\":21346:21361   */\n      mstore\n        /* \"#utility.yul\":21380:21384   */\n      0x24\n        /* \"#utility.yul\":21377:21378   */\n      0x00\n        /* \"#utility.yul\":21370:21385   */\n      revert\n        /* \"#utility.yul\":21397:21582   */\n    tag_260:\n        /* \"#utility.yul\":21437:21438   */\n      0x00\n        /* \"#utility.yul\":21454:21474   */\n      tag_586\n        /* \"#utility.yul\":21472:21473   */\n      dup3\n        /* \"#utility.yul\":21454:21474   */\n      tag_387\n      jump\t// in\n    tag_586:\n        /* \"#utility.yul\":21449:21474   */\n      swap2\n      pop\n        /* \"#utility.yul\":21488:21508   */\n      tag_587\n        /* \"#utility.yul\":21506:21507   */\n      dup4\n        /* \"#utility.yul\":21488:21508   */\n      tag_387\n      jump\t// in\n    tag_587:\n        /* \"#utility.yul\":21483:21508   */\n      swap3\n      pop\n        /* \"#utility.yul\":21527:21528   */\n      dup3\n        /* \"#utility.yul\":21517:21552   */\n      tag_588\n      jumpi\n        /* \"#utility.yul\":21532:21550   */\n      tag_589\n      tag_388\n      jump\t// in\n    tag_589:\n        /* \"#utility.yul\":21517:21552   */\n    tag_588:\n        /* \"#utility.yul\":21574:21575   */\n      dup3\n        /* \"#utility.yul\":21571:21572   */\n      dup3\n        /* \"#utility.yul\":21567:21576   */\n      div\n        /* \"#utility.yul\":21562:21576   */\n      swap1\n      pop\n        /* \"#utility.yul\":21397:21582   */\n      swap3\n      swap2\n      pop\n      pop\n      jump\t// out\n        /* \"#utility.yul\":21588:21770   */\n    tag_265:\n        /* \"#utility.yul\":21627:21628   */\n      0x00\n        /* \"#utility.yul\":21644:21663   */\n      tag_591\n        /* \"#utility.yul\":21661:21662   */\n      dup3\n        /* \"#utility.yul\":21644:21663   */\n      tag_347\n      jump\t// in\n    tag_591:\n        /* \"#utility.yul\":21639:21663   */\n      swap2\n      pop\n        /* \"#utility.yul\":21677:21696   */\n      tag_592\n        /* \"#utility.yul\":21694:21695   */\n      dup4\n        /* \"#utility.yul\":21677:21696   */\n      tag_347\n      jump\t// in\n    tag_592:\n        /* \"#utility.yul\":21672:21696   */\n      swap3\n      pop\n        /* \"#utility.yul\":21715:21716   */\n      dup3\n        /* \"#utility.yul\":21705:21740   */\n      tag_593\n      jumpi\n        /* \"#utility.yul\":21720:21738   */\n      tag_594\n      tag_388\n      jump\t// in\n    tag_594:\n        /* \"#utility.yul\":21705:21740   */\n    tag_593:\n        /* \"#utility.yul\":21762:21763   */\n      dup3\n        /* \"#utility.yul\":21759:21760   */\n      dup3\n        /* \"#utility.yul\":21755:21764   */\n      div\n        /* \"#utility.yul\":21750:21764   */\n      swap1\n      pop\n        /* \"#utility.yul\":21588:21770   */\n      swap3\n      swap2\n      pop\n      pop\n      jump\t// out\n        /* \"#utility.yul\":21776:22081   */\n    tag_298:\n        /* \"#utility.yul\":21816:21819   */\n      0x00\n        /* \"#utility.yul\":21835:21855   */\n      tag_596\n        /* \"#utility.yul\":21853:21854   */\n      dup3\n        /* \"#utility.yul\":21835:21855   */\n      tag_387\n      jump\t// in\n    tag_596:\n        /* \"#utility.yul\":21830:21855   */\n      swap2\n      pop\n        /* \"#utility.yul\":21869:21889   */\n      tag_597\n        /* \"#utility.yul\":21887:21888   */\n      dup4\n        /* \"#utility.yul\":21869:21889   */\n      tag_387\n      jump\t// in\n    tag_597:\n        /* \"#utility.yul\":21864:21889   */\n      swap3\n      pop\n        /* \"#utility.yul\":22023:22024   */\n      dup3\n        /* \"#utility.yul\":21955:22021   */\n      0xffffffffffffffffffffffffffffffffffffffffffffffffffffffffffffffff\n        /* \"#utility.yul\":21951:22025   */\n      sub\n        /* \"#utility.yul\":21948:21949   */\n      dup3\n        /* \"#utility.yul\":21945:22026   */\n      gt\n        /* \"#utility.yul\":21942:22049   */\n      iszero\n      tag_598\n      jumpi\n        /* \"#utility.yul\":22029:22047   */\n      tag_599\n      tag_384\n      jump\t// in\n    tag_599:\n        /* \"#utility.yul\":21942:22049   */\n    tag_598:\n        /* \"#utility.yul\":22073:22074   */\n      dup3\n        /* \"#utility.yul\":22070:22071   */\n      dup3\n        /* \"#utility.yul\":22066:22075   */\n      add\n        /* \"#utility.yul\":22059:22075   */\n      swap1\n      pop\n        /* \"#utility.yul\":21776:22081   */\n      swap3\n      swap2\n      pop\n      pop\n      jump\t// out\n        /* \"#utility.yul\":22087:22260   */\n    tag_304:\n        /* \"#utility.yul\":22118:22119   */\n      0x00\n        /* \"#utility.yul\":22135:22154   */\n      tag_601\n        /* \"#utility.yul\":22152:22153   */\n      dup3\n        /* \"#utility.yul\":22135:22154   */\n      tag_347\n      jump\t// in\n    tag_601:\n        /* \"#utility.yul\":22130:22154   */\n      swap2\n      pop\n        /* \"#utility.yul\":22168:22187   */\n      tag_602\n        /* \"#utility.yul\":22185:22186   */\n      dup4\n        /* \"#utility.yul\":22168:22187   */\n      tag_347\n      jump\t// in\n    tag_602:\n        /* \"#utility.yul\":22163:22187   */\n      swap3\n      pop\n        /* \"#utility.yul\":22206:22207   */\n      dup3\n        /* \"#utility.yul\":22196:22231   */\n      tag_603\n      jumpi\n        /* \"#utility.yul\":22211:22229   */\n      tag_604\n      tag_388\n      jump\t// in\n    tag_604:\n        /* \"#utility.yul\":22196:22231   */\n    tag_603:\n        /* \"#utility.yul\":22252:22253   */\n      dup3\n        /* \"#utility.yul\":22249:22250   */\n      dup3\n        /* \"#utility.yul\":22245:22254   */\n      mod\n        /* \"#utility.yul\":22240:22254   */\n      swap1\n      pop\n        /* \"#utility.yul\":22087:22260   */\n      swap3\n      swap2\n      pop\n      pop\n      jump\t// out\n\n    auxdata: 0xa26469706673582212201061a17bb089062687a12775016a85fb4c2c519a7f8a1d141067b79c347a4b5364736f6c634300080d0033\n}\n",
				"bytecode": {
					"linkReferences": {},
					"object": "60806040523480156200001157600080fd5b5060405162003d7538038062003d75833981810160405281019062000037919062000ee0565b60016000806101000a81548160ff0219169083151502179055506363b13d80600060016101000a81548163ffffffff021916908363ffffffff160217905550636591ac20600060056101000a81548163ffffffff021916908363ffffffff160217905550620000e96040518060400160405280600881526020017f57686174736170700000000000000000000000000000000000000000000000008152508260006200085b60201b620010b61760201c565b600160008201518160000190805190602001906200010992919062000b9f565b5060208201518160010160006101000a81548173ffffffffffffffffffffffffffffffffffffffff021916908373ffffffffffffffffffffffffffffffffffffffff16021790555060408201518160010160146101000a81548160ff021916908315150217905550905050620001c26040518060400160405280601381526020017f496e746567726174696f6e2050726f63657373000000000000000000000000008152503360016200085b60201b620010b61760201c565b60036000820151816000019080519060200190620001e292919062000b9f565b5060208201518160010160006101000a81548173ffffffffffffffffffffffffffffffffffffffff021916908373ffffffffffffffffffffffffffffffffffffffff16021790555060408201518160010160146101000a81548160ff0219169083151502179055509050506003600560003373ffffffffffffffffffffffffffffffffffffffff1673ffffffffffffffffffffffffffffffffffffffff1681526020019081526020016000206000820181600001908054620002a49062000f41565b620002b192919062000c30565b506001820160009054906101000a900473ffffffffffffffffffffffffffffffffffffffff168160010160006101000a81548173ffffffffffffffffffffffffffffffffffffffff021916908373ffffffffffffffffffffffffffffffffffffffff1602179055506001820160149054906101000a900460ff168160010160146101000a81548160ff0219169083151502179055509050506001600560008373ffffffffffffffffffffffffffffffffffffffff1673ffffffffffffffffffffffffffffffffffffffff1681526020019081526020016000206000820181600001908054620003a09062000f41565b620003ad92919062000c30565b506001820160009054906101000a900473ffffffffffffffffffffffffffffffffffffffff168160010160006101000a81548173ffffffffffffffffffffffffffffffffffffffff021916908373ffffffffffffffffffffffffffffffffffffffff1602179055506001820160149054906101000a900460ff168160010160146101000a81548160ff02191690831515021790555090505060066200046060016005620008a160201b620010fa1760201c565b9080600181540180825580915050600190039060005260206000200160009091909190915060008201518160000160006101000a81548160ff021916908360ff16021790555060208201518160000160016101000a81548160ff021916908360ff160217905550505060076200051a601860026040518060400160405280601781526020017f2f2f636f6e766572736174696f6e49642f7465787428290000000000000000008152506200099460201b620011e31760201c565b908060018154018082558091505060019003906000526020600020906003020160009091909190915060008201518160000160006101000a81548160ff021916908360ff16021790555060208201518160000160016101000a81548160ff021916908360ff16021790555060408201518160000160026101000a81548163ffffffff021916908363ffffffff1602179055506060820151816001019080519060200190620005ca92919062000b9f565b5060808201518160020160006101000a81548163ffffffff021916908363ffffffff1602179055505050600a60076000815481106200060e576200060d62000f76565b5b906000526020600020906003020160010190806001815401808255809150506001900390600052602060002001600090919091909150908054620006529062000f41565b6200065f92919062000cc8565b506001600c60076000815481106200067c576200067b62000f76565b5b90600052602060002090600302016001016040516200069c919062001050565b908152602001604051809103902060006101000a81548160ff021916908315150217905550600e6200070e6040518060400160405280601c81526020017f2f2f636f6e766572736174696f6e537461727465722f7465787428290000000081525062000a0b60201b6200124f1760201c565b9080600181540180825580915050600190039060005260206000200160009091909190915060008201518160000190805190602001906200075192919062000b9f565b505050600f62000770612710600562000a2b60201b6200126d1760201c565b9080600181540180825580915050600190039060005260206000200160009091909190915060008201518160000160006101000a81548163ffffffff021916908363ffffffff16021790555060208201518160000160046101000a81548160ff021916908360ff16021790555060408201518160000160056101000a81548163ffffffff021916908363ffffffff16021790555060608201518160000160096101000a81548163ffffffff021916908363ffffffff160217905550608082015181600001600d6101000a81548163ffffffff021916908363ffffffff160217905550505050620012c6565b6200086562000d60565b60405180606001604052808581526020018473ffffffffffffffffffffffffffffffffffffffff16815260200183151581525090509392505050565b620008ab62000d99565b8282600060ff168260ff1610158015620008cc5750600660ff168260ff1611155b6200090e576040517f08c379a00000000000000000000000000000000000000000000000000000000081526004016200090590620010f0565b60405180910390fd5b600060ff168160ff16101580156200092d5750600660ff168160ff1611155b6200096f576040517f08c379a0000000000000000000000000000000000000000000000000000000008152600401620009669062001188565b60405180910390fd5b60405180604001604052808660ff1681526020018560ff168152509250505092915050565b6200099e62000db9565b6000600460ff168460ff1611620009c757620009c48560ff168562000ab060201b60201c565b90505b6040518060a001604052808660ff1681526020018560ff1681526020018263ffffffff168152602001848152602001600063ffffffff168152509150509392505050565b62000a1562000dfa565b6040518060200160405280838152509050919050565b62000a3562000e0d565b6000600460ff168360ff161162000a5f5762000a578362000add60201b60201c565b905062000a64565b600190505b6040518060a001604052808563ffffffff1681526020018460ff1681526020018263ffffffff1681526020018563ffffffff168152602001600063ffffffff1681525091505092915050565b60008062000ac48362000add60201b60201c565b9050808462000ad49190620011e9565b91505092915050565b6000600460ff168260ff16111562000b2c576040517f08c379a000000000000000000000000000000000000000000000000000000000815260040162000b2390620012a4565b60405180910390fd5b600060ff168260ff160362000b45576001905062000b9a565b600160ff168260ff160362000b5e57603c905062000b9a565b600260ff168260ff160362000b7857610e10905062000b9a565b600360ff168260ff160362000b935762015180905062000b9a565b62093a8090505b919050565b82805462000bad9062000f41565b90600052602060002090601f01602090048101928262000bd1576000855562000c1d565b82601f1062000bec57805160ff191683800117855562000c1d565b8280016001018555821562000c1d579182015b8281111562000c1c57825182559160200191906001019062000bff565b5b50905062000c2c919062000e57565b5090565b82805462000c3e9062000f41565b90600052602060002090601f01602090048101928262000c62576000855562000cb5565b82601f1062000c75578054855562000cb5565b8280016001018555821562000cb557600052602060002091601f016020900482015b8281111562000cb457825482559160010191906001019062000c97565b5b50905062000cc4919062000e57565b5090565b82805462000cd69062000f41565b90600052602060002090601f01602090048101928262000cfa576000855562000d4d565b82601f1062000d0d578054855562000d4d565b8280016001018555821562000d4d57600052602060002091601f016020900482015b8281111562000d4c57825482559160010191906001019062000d2f565b5b50905062000d5c919062000e57565b5090565b604051806060016040528060608152602001600073ffffffffffffffffffffffffffffffffffffffff1681526020016000151581525090565b6040518060400160405280600060ff168152602001600060ff1681525090565b6040518060a00160405280600060ff168152602001600060ff168152602001600063ffffffff16815260200160608152602001600063ffffffff1681525090565b6040518060200160405280606081525090565b6040518060a00160405280600063ffffffff168152602001600060ff168152602001600063ffffffff168152602001600063ffffffff168152602001600063ffffffff1681525090565b5b8082111562000e7257600081600090555060010162000e58565b5090565b600080fd5b600073ffffffffffffffffffffffffffffffffffffffff82169050919050565b600062000ea88262000e7b565b9050919050565b62000eba8162000e9b565b811462000ec657600080fd5b50565b60008151905062000eda8162000eaf565b92915050565b60006020828403121562000ef95762000ef862000e76565b5b600062000f098482850162000ec9565b91505092915050565b7f4e487b7100000000000000000000000000000000000000000000000000000000600052602260045260246000fd5b6000600282049050600182168062000f5a57607f821691505b60208210810362000f705762000f6f62000f12565b5b50919050565b7f4e487b7100000000000000000000000000000000000000000000000000000000600052603260045260246000fd5b600081905092915050565b60008190508160005260206000209050919050565b6000815462000fd48162000f41565b62000fe0818662000fa5565b9450600182166000811462000ffe5760018114620010105762001047565b60ff1983168652818601935062001047565b6200101b8562000fb0565b60005b838110156200103f578154818901526001820191506020810190506200101e565b838801955050505b50505092915050565b60006200105e828462000fc5565b915081905092915050565b600082825260208201905092915050565b7f546865205f7374617274446179206e6f7420726570726573656e74732061207660008201527f616c696420646179000000000000000000000000000000000000000000000000602082015250565b6000620010d860288362001069565b9150620010e5826200107a565b604082019050919050565b600060208201905081810360008301526200110b81620010c9565b9050919050565b7f546865205f656e64446179206e6f7420726570726573656e747320612076616c60008201527f6964206461790000000000000000000000000000000000000000000000000000602082015250565b60006200117060268362001069565b91506200117d8262001112565b604082019050919050565b60006020820190508181036000830152620011a38162001161565b9050919050565b600063ffffffff82169050919050565b7f4e487b7100000000000000000000000000000000000000000000000000000000600052601160045260246000fd5b6000620011f682620011aa565b91506200120383620011aa565b92508163ffffffff0483118215151615620012235762001222620011ba565b5b828202905092915050565b7f546865206d6574686f642067657454696d65496e5365636f6e647320646f657360008201527f6e277420776f726b20666f72204d4f4e544820616e6420594541520000000000602082015250565b60006200128c603b8362001069565b915062001299826200122e565b604082019050919050565b60006020820190508181036000830152620012bf816200127d565b9050919050565b612a9f80620012d66000396000f3fe608060405234801561001057600080fd5b50600436106100625760003560e01c806327f540ae146100675780635e744c6a1461009757806370d8915a146100c757806385931911146100e5578063b8b4f1a014610103578063fb6f824314610121575b600080fd5b610081600480360381019061007c9190611f8c565b610151565b60405161008e9190612046565b60405180910390f35b6100b160048036038101906100ac91906120bf565b6107f6565b6040516100be9190612046565b60405180910390f35b6100cf6109e7565b6040516100dc919061212a565b60405180910390f35b6100ed610b4e565b6040516100fa919061212a565b60405180910390f35b61010b610cb6565b6040516101189190612046565b60405180910390f35b61013b60048036038101906101369190612145565b610e20565b6040516101489190612268565b60405180910390f35b60008060009054906101000a900460ff166101a1576040517f08c379a0000000000000000000000000000000000000000000000000000000008152600401610198906122e7565b60405180910390fd5b3373ffffffffffffffffffffffffffffffffffffffff16600360010160009054906101000a900473ffffffffffffffffffffffffffffffffffffffff1673ffffffffffffffffffffffffffffffffffffffff1614610234576040517f08c379a000000000000000000000000000000000000000000000000000000000815260040161022b90612379565b60405180910390fd5b6102aa85600660008154811061024d5761024c612399565b5b906000526020600020016040518060400160405290816000820160009054906101000a900460ff1660ff1660ff1681526020016000820160019054906101000a900460ff1660ff1660ff16815250506112e690919063ffffffff16565b156107e9576009600a6000815481106102c6576102c5612399565b5b906000526020600020016040516102dd91906124c7565b9081526020016040518091039020846040516102f9919061250f565b908152602001604051809103902060009054906101000a900460ff166105995760016009600a60008154811061033257610331612399565b5b9060005260206000200160405161034991906124c7565b908152602001604051809103902085604051610365919061250f565b908152602001604051809103902060006101000a81548160ff021916908315150217905550600b849080600181540180825580915050600190039060005260206000200160009091909190915090805190602001906103c5929190611b56565b5060076000815481106103db576103da612399565b5b90600052602060002090600302016008600a600081548110610400576103ff612399565b5b9060005260206000200160405161041791906124c7565b908152602001604051809103902085604051610433919061250f565b90815260200160405180910390206000820160009054906101000a900460ff168160000160006101000a81548160ff021916908360ff1602179055506000820160019054906101000a900460ff168160000160016101000a81548160ff021916908360ff1602179055506000820160029054906101000a900463ffffffff168160000160026101000a81548163ffffffff021916908363ffffffff16021790555060018201816001019080546104e8906123f7565b6104f3929190611bdc565b506002820160009054906101000a900463ffffffff168160020160006101000a81548163ffffffff021916908363ffffffff160217905550905050610598836008600a60008154811061054957610548612399565b5b9060005260206000200160405161056091906124c7565b90815260200160405180910390208660405161057c919061250f565b908152602001604051809103902061137290919063ffffffff16565b5b600060ff1661072b846008600a6000815481106105b9576105b8612399565b5b906000526020600020016040516105d091906124c7565b9081526020016040518091039020876040516105ec919061250f565b90815260200160405180910390206040518060a00160405290816000820160009054906101000a900460ff1660ff1660ff1681526020016000820160019054906101000a900460ff1660ff1660ff1681526020016000820160029054906101000a900463ffffffff1663ffffffff1663ffffffff168152602001600182018054610675906123f7565b80601f01602080910402602001604051908101604052809291908181526020018280546106a1906123f7565b80156106ee5780601f106106c3576101008083540402835291602001916106ee565b820191906000526020600020905b8154815290600101906020018083116106d157829003601f168201915b505050505081526020016002820160009054906101000a900463ffffffff1663ffffffff1663ffffffff168152505061140790919063ffffffff16565b14801561077c575061077b6040518060400160405280601281526020017f427573696e6573732d696e6974696174656400000000000000000000000000008152508361145090919063ffffffff16565b5b156107e8576107b283600f60008154811061079a57610799612399565b5b906000526020600020016114b990919063ffffffff16565b156107e7576107de600f6000815481106107cf576107ce612399565b5b90600052602060002001611532565b600190506107ee565b5b5b600090505b949350505050565b60003373ffffffffffffffffffffffffffffffffffffffff16600360010160009054906101000a900473ffffffffffffffffffffffffffffffffffffffff1673ffffffffffffffffffffffffffffffffffffffff161461088b576040517f08c379a000000000000000000000000000000000000000000000000000000000815260040161088290612379565b60405180910390fd5b600560006001800160009054906101000a900473ffffffffffffffffffffffffffffffffffffffff1673ffffffffffffffffffffffffffffffffffffffff1673ffffffffffffffffffffffffffffffffffffffff168152602001908152602001600020600080820160006108ff9190611c69565b6001820160006101000a81549073ffffffffffffffffffffffffffffffffffffffff02191690556001820160146101000a81549060ff02191690555050610948838360006110b6565b60016000820151816000019080519060200190610966929190611b56565b5060208201518160010160006101000a81548173ffffffffffffffffffffffffffffffffffffffff021916908373ffffffffffffffffffffffffffffffffffffffff16021790555060408201518160010160146101000a81548160ff0219169083151502179055509050506109dc826001611577565b506001905092915050565b60008060009054906101000a900460ff16610a37576040517f08c379a0000000000000000000000000000000000000000000000000000000008152600401610a2e906122e7565b60405180910390fd5b3373ffffffffffffffffffffffffffffffffffffffff166001800160009054906101000a900473ffffffffffffffffffffffffffffffffffffffff1673ffffffffffffffffffffffffffffffffffffffff161480610ae557503373ffffffffffffffffffffffffffffffffffffffff16600360010160009054906101000a900473ffffffffffffffffffffffffffffffffffffffff1673ffffffffffffffffffffffffffffffffffffffff16145b610b24576040517f08c379a0000000000000000000000000000000000000000000000000000000008152600401610b1b90612598565b60405180910390fd5b6001800160009054906101000a900473ffffffffffffffffffffffffffffffffffffffff16905090565b60008060009054906101000a900460ff16610b9e576040517f08c379a0000000000000000000000000000000000000000000000000000000008152600401610b95906122e7565b60405180910390fd5b3373ffffffffffffffffffffffffffffffffffffffff166001800160009054906101000a900473ffffffffffffffffffffffffffffffffffffffff1673ffffffffffffffffffffffffffffffffffffffff161480610c4c57503373ffffffffffffffffffffffffffffffffffffffff16600360010160009054906101000a900473ffffffffffffffffffffffffffffffffffffffff1673ffffffffffffffffffffffffffffffffffffffff16145b610c8b576040517f08c379a0000000000000000000000000000000000000000000000000000000008152600401610c8290612598565b60405180910390fd5b600360010160009054906101000a900473ffffffffffffffffffffffffffffffffffffffff16905090565b60008060009054906101000a900460ff16610d06576040517f08c379a0000000000000000000000000000000000000000000000000000000008152600401610cfd906122e7565b60405180910390fd5b3373ffffffffffffffffffffffffffffffffffffffff166001800160009054906101000a900473ffffffffffffffffffffffffffffffffffffffff1673ffffffffffffffffffffffffffffffffffffffff1614610d98576040517f08c379a0000000000000000000000000000000000000000000000000000000008152600401610d8f9061262a565b60405180910390fd5b600015156001800160149054906101000a900460ff16151514610df0576040517f08c379a0000000000000000000000000000000000000000000000000000000008152600401610de790612696565b60405180910390fd5b60018060010160146101000a81548160ff021916908315150217905550610e18336001611577565b506001905090565b610e28611ca9565b60008054906101000a900460ff16610e75576040517f08c379a0000000000000000000000000000000000000000000000000000000008152600401610e6c906122e7565b60405180910390fd5b3373ffffffffffffffffffffffffffffffffffffffff166001800160009054906101000a900473ffffffffffffffffffffffffffffffffffffffff1673ffffffffffffffffffffffffffffffffffffffff161480610f2357503373ffffffffffffffffffffffffffffffffffffffff16600360010160009054906101000a900473ffffffffffffffffffffffffffffffffffffffff1673ffffffffffffffffffffffffffffffffffffffff16145b610f62576040517f08c379a0000000000000000000000000000000000000000000000000000000008152600401610f5990612598565b60405180910390fd5b600560008373ffffffffffffffffffffffffffffffffffffffff1673ffffffffffffffffffffffffffffffffffffffff168152602001908152602001600020604051806060016040529081600082018054610fbc906123f7565b80601f0160208091040260200160405190810160405280929190818152602001828054610fe8906123f7565b80156110355780601f1061100a57610100808354040283529160200191611035565b820191906000526020600020905b81548152906001019060200180831161101857829003601f168201915b505050505081526020016001820160009054906101000a900473ffffffffffffffffffffffffffffffffffffffff1673ffffffffffffffffffffffffffffffffffffffff1673ffffffffffffffffffffffffffffffffffffffff1681526020016001820160149054906101000a900460ff1615151515815250509050919050565b6110be611ca9565b60405180606001604052808581526020018473ffffffffffffffffffffffffffffffffffffffff16815260200183151581525090509392505050565b611102611ce2565b8282600060ff168260ff16101580156111225750600660ff168260ff1611155b611161576040517f08c379a000000000000000000000000000000000000000000000000000000000815260040161115890612728565b60405180910390fd5b600060ff168160ff161015801561117f5750600660ff168160ff1611155b6111be576040517f08c379a00000000000000000000000000000000000000000000000000000000081526004016111b5906127ba565b60405180910390fd5b60405180604001604052808660ff1681526020018560ff168152509250505092915050565b6111eb611d02565b6000600460ff168460ff161161120b576112088560ff168561167a565b90505b6040518060a001604052808660ff1681526020018560ff1681526020018263ffffffff168152602001848152602001600063ffffffff168152509150509392505050565b611257611d43565b6040518060200160405280838152509050919050565b611275611d56565b6000600460ff168360ff16116112955761128e8361169d565b905061129a565b600190505b6040518060a001604052808563ffffffff1681526020018460ff1681526020018263ffffffff1681526020018563ffffffff168152602001600063ffffffff1681525091505092915050565b6000826020015160ff16836000015160ff16101561133557826000015160ff168260ff16101580156113225750826020015160ff168260ff1611155b15611330576001905061136c565b611367565b826000015160ff168260ff161015806113585750826020015160ff168260ff1611155b15611366576001905061136c565b5b600090505b92915050565b60008260020160009054906101000a900463ffffffff1663ffffffff1614806113bb57508160020160009054906101000a900463ffffffff1663ffffffff168163ffffffff1610155b15611403578160000160029054906101000a900463ffffffff16816113e09190612809565b8260020160006101000a81548163ffffffff021916908363ffffffff1602179055505b5050565b600080836080015163ffffffff1614806114315750826080015163ffffffff168263ffffffff1610155b1561144257600060ff16905061144a565b600160ff1690505b92915050565b600081604051602001611463919061250f565b604051602081830303815290604052805190602001208360405160200161148a919061250f565b60405160208183030381529060405280519060200120036114ae57600190506114b3565b600090505b92915050565b60006114eb8360000160049054906101000a900460ff1684600001600d9054906101000a900463ffffffff1684611754565b156114fb576114fa8383611819565b5b60008360000160099054906101000a900463ffffffff1663ffffffff161115611527576001905061152c565b600090505b92915050565b60018160000160098282829054906101000a900463ffffffff166115569190612843565b92506101000a81548163ffffffff021916908363ffffffff16021790555050565b600081600560008573ffffffffffffffffffffffffffffffffffffffff1673ffffffffffffffffffffffffffffffffffffffff16815260200190815260200160002060008201816000019080546115cd906123f7565b6115d8929190611bdc565b506001820160009054906101000a900473ffffffffffffffffffffffffffffffffffffffff168160010160006101000a81548173ffffffffffffffffffffffffffffffffffffffff021916908373ffffffffffffffffffffffffffffffffffffffff1602179055506001820160149054906101000a900460ff168160010160146101000a81548160ff0219169083151502179055509050506001905092915050565b6000806116868361169d565b905080846116949190612877565b91505092915050565b6000600460ff168260ff1611156116e9576040517f08c379a00000000000000000000000000000000000000000000000000000000081526004016116e090612927565b60405180910390fd5b600060ff168260ff1603611700576001905061174f565b600160ff168260ff160361171757603c905061174f565b600260ff168260ff160361172f57610e10905061174f565b600360ff168260ff16036117485762015180905061174f565b62093a8090505b919050565b600080849050600460ff168160ff1611611780578363ffffffff168363ffffffff161015915050611812565b600560ff168160ff16036117e857600061179f8463ffffffff166118a6565b50915050600d8563ffffffff161480156117bf575060018163ffffffff16145b156117cf57600192505050611812565b8463ffffffff168163ffffffff16101592505050611812565b60006117f98463ffffffff166118a6565b505090508463ffffffff168163ffffffff161015925050505b9392505050565b8160000160009054906101000a900463ffffffff168260000160096101000a81548163ffffffff021916908363ffffffff1602179055506118808260000160059054906101000a900463ffffffff168360000160049054906101000a900460ff1683611a59565b82600001600d6101000a81548163ffffffff021916908363ffffffff1602179055505050565b6000806000806201518063ffffffff16856118c19190612980565b9050600062253d8c62010bd9836118d89190612809565b6118e29190612809565b9050600062023ab18260046118f79190612877565b61190191906129b1565b9050600460038262023ab16119169190612877565b6119209190612809565b61192a91906129b1565b826119359190612843565b9150600062164b0960018461194a9190612809565b610fa06119579190612877565b61196191906129b1565b9050601f6004826105b56119759190612877565b61197f91906129b1565b8461198a9190612843565b6119949190612809565b9250600061098f8460506119a89190612877565b6119b291906129b1565b9050600060508261098f6119c69190612877565b6119d091906129b1565b856119db9190612843565b9050600b826119ea91906129b1565b945084600c6119f99190612877565b600283611a069190612809565b611a109190612843565b91508483603186611a219190612843565b6064611a2d9190612877565b611a379190612809565b611a419190612809565b92508298508197508096505050505050509193909250565b6000600460ff168360ff1611611a7b57611a74838386611aec565b9050611ae5565b600560ff168360ff1603611ab9576000611a9a8363ffffffff166118a6565b5063ffffffff16915050600181611ab191906129e2565b915050611ae5565b6000611aca8363ffffffff166118a6565b505063ffffffff169050600181611ae191906129e2565b9150505b9392505050565b6000808284611afb9190612a38565b905060008184611b0b9190612843565b9050600460ff168660ff1603611b3e576203f4808186611b2b9190612809565b611b359190612809565b92505050611b4f565b8085611b4a9190612809565b925050505b9392505050565b828054611b62906123f7565b90600052602060002090601f016020900481019282611b845760008555611bcb565b82601f10611b9d57805160ff1916838001178555611bcb565b82800160010185558215611bcb579182015b82811115611bca578251825591602001919060010190611baf565b5b509050611bd89190611da0565b5090565b828054611be8906123f7565b90600052602060002090601f016020900481019282611c0a5760008555611c58565b82601f10611c1b5780548555611c58565b82800160010185558215611c5857600052602060002091601f016020900482015b82811115611c57578254825591600101919060010190611c3c565b5b509050611c659190611da0565b5090565b508054611c75906123f7565b6000825580601f10611c875750611ca6565b601f016020900490600052602060002090810190611ca59190611da0565b5b50565b604051806060016040528060608152602001600073ffffffffffffffffffffffffffffffffffffffff1681526020016000151581525090565b6040518060400160405280600060ff168152602001600060ff1681525090565b6040518060a00160405280600060ff168152602001600060ff168152602001600063ffffffff16815260200160608152602001600063ffffffff1681525090565b6040518060200160405280606081525090565b6040518060a00160405280600063ffffffff168152602001600060ff168152602001600063ffffffff168152602001600063ffffffff168152602001600063ffffffff1681525090565b5b80821115611db9576000816000905550600101611da1565b5090565b6000604051905090565b600080fd5b600080fd5b600060ff82169050919050565b611de781611dd1565b8114611df257600080fd5b50565b600081359050611e0481611dde565b92915050565b600080fd5b600080fd5b6000601f19601f8301169050919050565b7f4e487b7100000000000000000000000000000000000000000000000000000000600052604160045260246000fd5b611e5d82611e14565b810181811067ffffffffffffffff82111715611e7c57611e7b611e25565b5b80604052505050565b6000611e8f611dbd565b9050611e9b8282611e54565b919050565b600067ffffffffffffffff821115611ebb57611eba611e25565b5b611ec482611e14565b9050602081019050919050565b82818337600083830152505050565b6000611ef3611eee84611ea0565b611e85565b905082815260208101848484011115611f0f57611f0e611e0f565b5b611f1a848285611ed1565b509392505050565b600082601f830112611f3757611f36611e0a565b5b8135611f47848260208601611ee0565b91505092915050565b600063ffffffff82169050919050565b611f6981611f50565b8114611f7457600080fd5b50565b600081359050611f8681611f60565b92915050565b60008060008060808587031215611fa657611fa5611dc7565b5b6000611fb487828801611df5565b945050602085013567ffffffffffffffff811115611fd557611fd4611dcc565b5b611fe187828801611f22565b9350506040611ff287828801611f77565b925050606085013567ffffffffffffffff81111561201357612012611dcc565b5b61201f87828801611f22565b91505092959194509250565b60008115159050919050565b6120408161202b565b82525050565b600060208201905061205b6000830184612037565b92915050565b600073ffffffffffffffffffffffffffffffffffffffff82169050919050565b600061208c82612061565b9050919050565b61209c81612081565b81146120a757600080fd5b50565b6000813590506120b981612093565b92915050565b600080604083850312156120d6576120d5611dc7565b5b600083013567ffffffffffffffff8111156120f4576120f3611dcc565b5b61210085828601611f22565b9250506020612111858286016120aa565b9150509250929050565b61212481612081565b82525050565b600060208201905061213f600083018461211b565b92915050565b60006020828403121561215b5761215a611dc7565b5b6000612169848285016120aa565b91505092915050565b600081519050919050565b600082825260208201905092915050565b60005b838110156121ac578082015181840152602081019050612191565b838111156121bb576000848401525b50505050565b60006121cc82612172565b6121d6818561217d565b93506121e681856020860161218e565b6121ef81611e14565b840191505092915050565b61220381612081565b82525050565b6122128161202b565b82525050565b6000606083016000830151848203600086015261223582826121c1565b915050602083015161224a60208601826121fa565b50604083015161225d6040860182612209565b508091505092915050565b600060208201905081810360008301526122828184612218565b905092915050565b600082825260208201905092915050565b7f5468697320636f6e747261637420697320646561637469766174656400000000600082015250565b60006122d1601c8361228a565b91506122dc8261229b565b602082019050919050565b60006020820190508181036000830152612300816122c4565b9050919050565b7f4f6e6c79207468652070726f636573732063616e20657865637574652074686960008201527f73206f7065726174696f6e000000000000000000000000000000000000000000602082015250565b6000612363602b8361228a565b915061236e82612307565b604082019050919050565b6000602082019050818103600083015261239281612356565b9050919050565b7f4e487b7100000000000000000000000000000000000000000000000000000000600052603260045260246000fd5b7f4e487b7100000000000000000000000000000000000000000000000000000000600052602260045260246000fd5b6000600282049050600182168061240f57607f821691505b602082108103612422576124216123c8565b5b50919050565b600081905092915050565b60008190508160005260206000209050919050565b60008154612455816123f7565b61245f8186612428565b9450600182166000811461247a576001811461248b576124be565b60ff198316865281860193506124be565b61249485612433565b60005b838110156124b657815481890152600182019150602081019050612497565b838801955050505b50505092915050565b60006124d38284612448565b915081905092915050565b60006124e982612172565b6124f38185612428565b935061250381856020860161218e565b80840191505092915050565b600061251b82846124de565b915081905092915050565b7f4f6e6c79207468652070726f63657373206f7220746865206170706c6963617460008201527f696f6e2063616e20657865637574652074686973206f7065726174696f6e0000602082015250565b6000612582603e8361228a565b915061258d82612526565b604082019050919050565b600060208201905081810360008301526125b181612575565b9050919050565b7f4f6e6c7920746865206170706c69636174696f6e2063616e206578656375746560008201527f2074686973206f7065726174696f6e0000000000000000000000000000000000602082015250565b6000612614602f8361228a565b915061261f826125b8565b604082019050919050565b6000602082019050818103600083015261264381612607565b9050919050565b7f54686520636f6e747261637420697320616c7265616479207369676e65640000600082015250565b6000612680601e8361228a565b915061268b8261264a565b602082019050919050565b600060208201905081810360008301526126af81612673565b9050919050565b7f546865205f7374617274446179206e6f7420726570726573656e74732061207660008201527f616c696420646179000000000000000000000000000000000000000000000000602082015250565b600061271260288361228a565b915061271d826126b6565b604082019050919050565b6000602082019050818103600083015261274181612705565b9050919050565b7f546865205f656e64446179206e6f7420726570726573656e747320612076616c60008201527f6964206461790000000000000000000000000000000000000000000000000000602082015250565b60006127a460268361228a565b91506127af82612748565b604082019050919050565b600060208201905081810360008301526127d381612797565b9050919050565b7f4e487b7100000000000000000000000000000000000000000000000000000000600052601160045260246000fd5b600061281482611f50565b915061281f83611f50565b92508263ffffffff03821115612838576128376127da565b5b828201905092915050565b600061284e82611f50565b915061285983611f50565b92508282101561286c5761286b6127da565b5b828203905092915050565b600061288282611f50565b915061288d83611f50565b92508163ffffffff04831182151516156128aa576128a96127da565b5b828202905092915050565b7f546865206d6574686f642067657454696d65496e5365636f6e647320646f657360008201527f6e277420776f726b20666f72204d4f4e544820616e6420594541520000000000602082015250565b6000612911603b8361228a565b915061291c826128b5565b604082019050919050565b6000602082019050818103600083015261294081612904565b9050919050565b6000819050919050565b7f4e487b7100000000000000000000000000000000000000000000000000000000600052601260045260246000fd5b600061298b82612947565b915061299683612947565b9250826129a6576129a5612951565b5b828204905092915050565b60006129bc82611f50565b91506129c783611f50565b9250826129d7576129d6612951565b5b828204905092915050565b60006129ed82612947565b91506129f883612947565b9250827fffffffffffffffffffffffffffffffffffffffffffffffffffffffffffffffff03821115612a2d57612a2c6127da565b5b828201905092915050565b6000612a4382611f50565b9150612a4e83611f50565b925082612a5e57612a5d612951565b5b82820690509291505056fea26469706673582212201061a17bb089062687a12775016a85fb4c2c519a7f8a1d141067b79c347a4b5364736f6c634300080d0033",
					"opcodes": "PUSH1 0x80 PUSH1 0x40 MSTORE CALLVALUE DUP1 ISZERO PUSH3 0x11 JUMPI PUSH1 0x0 DUP1 REVERT JUMPDEST POP PUSH1 0x40 MLOAD PUSH3 0x3D75 CODESIZE SUB DUP1 PUSH3 0x3D75 DUP4 CODECOPY DUP2 DUP2 ADD PUSH1 0x40 MSTORE DUP2 ADD SWAP1 PUSH3 0x37 SWAP2 SWAP1 PUSH3 0xEE0 JUMP JUMPDEST PUSH1 0x1 PUSH1 0x0 DUP1 PUSH2 0x100 EXP DUP2 SLOAD DUP2 PUSH1 0xFF MUL NOT AND SWAP1 DUP4 ISZERO ISZERO MUL OR SWAP1 SSTORE POP PUSH4 0x63B13D80 PUSH1 0x0 PUSH1 0x1 PUSH2 0x100 EXP DUP2 SLOAD DUP2 PUSH4 0xFFFFFFFF MUL NOT AND SWAP1 DUP4 PUSH4 0xFFFFFFFF AND MUL OR SWAP1 SSTORE POP PUSH4 0x6591AC20 PUSH1 0x0 PUSH1 0x5 PUSH2 0x100 EXP DUP2 SLOAD DUP2 PUSH4 0xFFFFFFFF MUL NOT AND SWAP1 DUP4 PUSH4 0xFFFFFFFF AND MUL OR SWAP1 SSTORE POP PUSH3 0xE9 PUSH1 0x40 MLOAD DUP1 PUSH1 0x40 ADD PUSH1 0x40 MSTORE DUP1 PUSH1 0x8 DUP2 MSTORE PUSH1 0x20 ADD PUSH32 0x5768617473617070000000000000000000000000000000000000000000000000 DUP2 MSTORE POP DUP3 PUSH1 0x0 PUSH3 0x85B PUSH1 0x20 SHL PUSH3 0x10B6 OR PUSH1 0x20 SHR JUMP JUMPDEST PUSH1 0x1 PUSH1 0x0 DUP3 ADD MLOAD DUP2 PUSH1 0x0 ADD SWAP1 DUP1 MLOAD SWAP1 PUSH1 0x20 ADD SWAP1 PUSH3 0x109 SWAP3 SWAP2 SWAP1 PUSH3 0xB9F JUMP JUMPDEST POP PUSH1 0x20 DUP3 ADD MLOAD DUP2 PUSH1 0x1 ADD PUSH1 0x0 PUSH2 0x100 EXP DUP2 SLOAD DUP2 PUSH20 0xFFFFFFFFFFFFFFFFFFFFFFFFFFFFFFFFFFFFFFFF MUL NOT AND SWAP1 DUP4 PUSH20 0xFFFFFFFFFFFFFFFFFFFFFFFFFFFFFFFFFFFFFFFF AND MUL OR SWAP1 SSTORE POP PUSH1 0x40 DUP3 ADD MLOAD DUP2 PUSH1 0x1 ADD PUSH1 0x14 PUSH2 0x100 EXP DUP2 SLOAD DUP2 PUSH1 0xFF MUL NOT AND SWAP1 DUP4 ISZERO ISZERO MUL OR SWAP1 SSTORE POP SWAP1 POP POP PUSH3 0x1C2 PUSH1 0x40 MLOAD DUP1 PUSH1 0x40 ADD PUSH1 0x40 MSTORE DUP1 PUSH1 0x13 DUP2 MSTORE PUSH1 0x20 ADD PUSH32 0x496E746567726174696F6E2050726F6365737300000000000000000000000000 DUP2 MSTORE POP CALLER PUSH1 0x1 PUSH3 0x85B PUSH1 0x20 SHL PUSH3 0x10B6 OR PUSH1 0x20 SHR JUMP JUMPDEST PUSH1 0x3 PUSH1 0x0 DUP3 ADD MLOAD DUP2 PUSH1 0x0 ADD SWAP1 DUP1 MLOAD SWAP1 PUSH1 0x20 ADD SWAP1 PUSH3 0x1E2 SWAP3 SWAP2 SWAP1 PUSH3 0xB9F JUMP JUMPDEST POP PUSH1 0x20 DUP3 ADD MLOAD DUP2 PUSH1 0x1 ADD PUSH1 0x0 PUSH2 0x100 EXP DUP2 SLOAD DUP2 PUSH20 0xFFFFFFFFFFFFFFFFFFFFFFFFFFFFFFFFFFFFFFFF MUL NOT AND SWAP1 DUP4 PUSH20 0xFFFFFFFFFFFFFFFFFFFFFFFFFFFFFFFFFFFFFFFF AND MUL OR SWAP1 SSTORE POP PUSH1 0x40 DUP3 ADD MLOAD DUP2 PUSH1 0x1 ADD PUSH1 0x14 PUSH2 0x100 EXP DUP2 SLOAD DUP2 PUSH1 0xFF MUL NOT AND SWAP1 DUP4 ISZERO ISZERO MUL OR SWAP1 SSTORE POP SWAP1 POP POP PUSH1 0x3 PUSH1 0x5 PUSH1 0x0 CALLER PUSH20 0xFFFFFFFFFFFFFFFFFFFFFFFFFFFFFFFFFFFFFFFF AND PUSH20 0xFFFFFFFFFFFFFFFFFFFFFFFFFFFFFFFFFFFFFFFF AND DUP2 MSTORE PUSH1 0x20 ADD SWAP1 DUP2 MSTORE PUSH1 0x20 ADD PUSH1 0x0 KECCAK256 PUSH1 0x0 DUP3 ADD DUP2 PUSH1 0x0 ADD SWAP1 DUP1 SLOAD PUSH3 0x2A4 SWAP1 PUSH3 0xF41 JUMP JUMPDEST PUSH3 0x2B1 SWAP3 SWAP2 SWAP1 PUSH3 0xC30 JUMP JUMPDEST POP PUSH1 0x1 DUP3 ADD PUSH1 0x0 SWAP1 SLOAD SWAP1 PUSH2 0x100 EXP SWAP1 DIV PUSH20 0xFFFFFFFFFFFFFFFFFFFFFFFFFFFFFFFFFFFFFFFF AND DUP2 PUSH1 0x1 ADD PUSH1 0x0 PUSH2 0x100 EXP DUP2 SLOAD DUP2 PUSH20 0xFFFFFFFFFFFFFFFFFFFFFFFFFFFFFFFFFFFFFFFF MUL NOT AND SWAP1 DUP4 PUSH20 0xFFFFFFFFFFFFFFFFFFFFFFFFFFFFFFFFFFFFFFFF AND MUL OR SWAP1 SSTORE POP PUSH1 0x1 DUP3 ADD PUSH1 0x14 SWAP1 SLOAD SWAP1 PUSH2 0x100 EXP SWAP1 DIV PUSH1 0xFF AND DUP2 PUSH1 0x1 ADD PUSH1 0x14 PUSH2 0x100 EXP DUP2 SLOAD DUP2 PUSH1 0xFF MUL NOT AND SWAP1 DUP4 ISZERO ISZERO MUL OR SWAP1 SSTORE POP SWAP1 POP POP PUSH1 0x1 PUSH1 0x5 PUSH1 0x0 DUP4 PUSH20 0xFFFFFFFFFFFFFFFFFFFFFFFFFFFFFFFFFFFFFFFF AND PUSH20 0xFFFFFFFFFFFFFFFFFFFFFFFFFFFFFFFFFFFFFFFF AND DUP2 MSTORE PUSH1 0x20 ADD SWAP1 DUP2 MSTORE PUSH1 0x20 ADD PUSH1 0x0 KECCAK256 PUSH1 0x0 DUP3 ADD DUP2 PUSH1 0x0 ADD SWAP1 DUP1 SLOAD PUSH3 0x3A0 SWAP1 PUSH3 0xF41 JUMP JUMPDEST PUSH3 0x3AD SWAP3 SWAP2 SWAP1 PUSH3 0xC30 JUMP JUMPDEST POP PUSH1 0x1 DUP3 ADD PUSH1 0x0 SWAP1 SLOAD SWAP1 PUSH2 0x100 EXP SWAP1 DIV PUSH20 0xFFFFFFFFFFFFFFFFFFFFFFFFFFFFFFFFFFFFFFFF AND DUP2 PUSH1 0x1 ADD PUSH1 0x0 PUSH2 0x100 EXP DUP2 SLOAD DUP2 PUSH20 0xFFFFFFFFFFFFFFFFFFFFFFFFFFFFFFFFFFFFFFFF MUL NOT AND SWAP1 DUP4 PUSH20 0xFFFFFFFFFFFFFFFFFFFFFFFFFFFFFFFFFFFFFFFF AND MUL OR SWAP1 SSTORE POP PUSH1 0x1 DUP3 ADD PUSH1 0x14 SWAP1 SLOAD SWAP1 PUSH2 0x100 EXP SWAP1 DIV PUSH1 0xFF AND DUP2 PUSH1 0x1 ADD PUSH1 0x14 PUSH2 0x100 EXP DUP2 SLOAD DUP2 PUSH1 0xFF MUL NOT AND SWAP1 DUP4 ISZERO ISZERO MUL OR SWAP1 SSTORE POP SWAP1 POP POP PUSH1 0x6 PUSH3 0x460 PUSH1 0x1 PUSH1 0x5 PUSH3 0x8A1 PUSH1 0x20 SHL PUSH3 0x10FA OR PUSH1 0x20 SHR JUMP JUMPDEST SWAP1 DUP1 PUSH1 0x1 DUP2 SLOAD ADD DUP1 DUP3 SSTORE DUP1 SWAP2 POP POP PUSH1 0x1 SWAP1 SUB SWAP1 PUSH1 0x0 MSTORE PUSH1 0x20 PUSH1 0x0 KECCAK256 ADD PUSH1 0x0 SWAP1 SWAP2 SWAP1 SWAP2 SWAP1 SWAP2 POP PUSH1 0x0 DUP3 ADD MLOAD DUP2 PUSH1 0x0 ADD PUSH1 0x0 PUSH2 0x100 EXP DUP2 SLOAD DUP2 PUSH1 0xFF MUL NOT AND SWAP1 DUP4 PUSH1 0xFF AND MUL OR SWAP1 SSTORE POP PUSH1 0x20 DUP3 ADD MLOAD DUP2 PUSH1 0x0 ADD PUSH1 0x1 PUSH2 0x100 EXP DUP2 SLOAD DUP2 PUSH1 0xFF MUL NOT AND SWAP1 DUP4 PUSH1 0xFF AND MUL OR SWAP1 SSTORE POP POP POP PUSH1 0x7 PUSH3 0x51A PUSH1 0x18 PUSH1 0x2 PUSH1 0x40 MLOAD DUP1 PUSH1 0x40 ADD PUSH1 0x40 MSTORE DUP1 PUSH1 0x17 DUP2 MSTORE PUSH1 0x20 ADD PUSH32 0x2F2F636F6E766572736174696F6E49642F746578742829000000000000000000 DUP2 MSTORE POP PUSH3 0x994 PUSH1 0x20 SHL PUSH3 0x11E3 OR PUSH1 0x20 SHR JUMP JUMPDEST SWAP1 DUP1 PUSH1 0x1 DUP2 SLOAD ADD DUP1 DUP3 SSTORE DUP1 SWAP2 POP POP PUSH1 0x1 SWAP1 SUB SWAP1 PUSH1 0x0 MSTORE PUSH1 0x20 PUSH1 0x0 KECCAK256 SWAP1 PUSH1 0x3 MUL ADD PUSH1 0x0 SWAP1 SWAP2 SWAP1 SWAP2 SWAP1 SWAP2 POP PUSH1 0x0 DUP3 ADD MLOAD DUP2 PUSH1 0x0 ADD PUSH1 0x0 PUSH2 0x100 EXP DUP2 SLOAD DUP2 PUSH1 0xFF MUL NOT AND SWAP1 DUP4 PUSH1 0xFF AND MUL OR SWAP1 SSTORE POP PUSH1 0x20 DUP3 ADD MLOAD DUP2 PUSH1 0x0 ADD PUSH1 0x1 PUSH2 0x100 EXP DUP2 SLOAD DUP2 PUSH1 0xFF MUL NOT AND SWAP1 DUP4 PUSH1 0xFF AND MUL OR SWAP1 SSTORE POP PUSH1 0x40 DUP3 ADD MLOAD DUP2 PUSH1 0x0 ADD PUSH1 0x2 PUSH2 0x100 EXP DUP2 SLOAD DUP2 PUSH4 0xFFFFFFFF MUL NOT AND SWAP1 DUP4 PUSH4 0xFFFFFFFF AND MUL OR SWAP1 SSTORE POP PUSH1 0x60 DUP3 ADD MLOAD DUP2 PUSH1 0x1 ADD SWAP1 DUP1 MLOAD SWAP1 PUSH1 0x20 ADD SWAP1 PUSH3 0x5CA SWAP3 SWAP2 SWAP1 PUSH3 0xB9F JUMP JUMPDEST POP PUSH1 0x80 DUP3 ADD MLOAD DUP2 PUSH1 0x2 ADD PUSH1 0x0 PUSH2 0x100 EXP DUP2 SLOAD DUP2 PUSH4 0xFFFFFFFF MUL NOT AND SWAP1 DUP4 PUSH4 0xFFFFFFFF AND MUL OR SWAP1 SSTORE POP POP POP PUSH1 0xA PUSH1 0x7 PUSH1 0x0 DUP2 SLOAD DUP2 LT PUSH3 0x60E JUMPI PUSH3 0x60D PUSH3 0xF76 JUMP JUMPDEST JUMPDEST SWAP1 PUSH1 0x0 MSTORE PUSH1 0x20 PUSH1 0x0 KECCAK256 SWAP1 PUSH1 0x3 MUL ADD PUSH1 0x1 ADD SWAP1 DUP1 PUSH1 0x1 DUP2 SLOAD ADD DUP1 DUP3 SSTORE DUP1 SWAP2 POP POP PUSH1 0x1 SWAP1 SUB SWAP1 PUSH1 0x0 MSTORE PUSH1 0x20 PUSH1 0x0 KECCAK256 ADD PUSH1 0x0 SWAP1 SWAP2 SWAP1 SWAP2 SWAP1 SWAP2 POP SWAP1 DUP1 SLOAD PUSH3 0x652 SWAP1 PUSH3 0xF41 JUMP JUMPDEST PUSH3 0x65F SWAP3 SWAP2 SWAP1 PUSH3 0xCC8 JUMP JUMPDEST POP PUSH1 0x1 PUSH1 0xC PUSH1 0x7 PUSH1 0x0 DUP2 SLOAD DUP2 LT PUSH3 0x67C JUMPI PUSH3 0x67B PUSH3 0xF76 JUMP JUMPDEST JUMPDEST SWAP1 PUSH1 0x0 MSTORE PUSH1 0x20 PUSH1 0x0 KECCAK256 SWAP1 PUSH1 0x3 MUL ADD PUSH1 0x1 ADD PUSH1 0x40 MLOAD PUSH3 0x69C SWAP2 SWAP1 PUSH3 0x1050 JUMP JUMPDEST SWAP1 DUP2 MSTORE PUSH1 0x20 ADD PUSH1 0x40 MLOAD DUP1 SWAP2 SUB SWAP1 KECCAK256 PUSH1 0x0 PUSH2 0x100 EXP DUP2 SLOAD DUP2 PUSH1 0xFF MUL NOT AND SWAP1 DUP4 ISZERO ISZERO MUL OR SWAP1 SSTORE POP PUSH1 0xE PUSH3 0x70E PUSH1 0x40 MLOAD DUP1 PUSH1 0x40 ADD PUSH1 0x40 MSTORE DUP1 PUSH1 0x1C DUP2 MSTORE PUSH1 0x20 ADD PUSH32 0x2F2F636F6E766572736174696F6E537461727465722F74657874282900000000 DUP2 MSTORE POP PUSH3 0xA0B PUSH1 0x20 SHL PUSH3 0x124F OR PUSH1 0x20 SHR JUMP JUMPDEST SWAP1 DUP1 PUSH1 0x1 DUP2 SLOAD ADD DUP1 DUP3 SSTORE DUP1 SWAP2 POP POP PUSH1 0x1 SWAP1 SUB SWAP1 PUSH1 0x0 MSTORE PUSH1 0x20 PUSH1 0x0 KECCAK256 ADD PUSH1 0x0 SWAP1 SWAP2 SWAP1 SWAP2 SWAP1 SWAP2 POP PUSH1 0x0 DUP3 ADD MLOAD DUP2 PUSH1 0x0 ADD SWAP1 DUP1 MLOAD SWAP1 PUSH1 0x20 ADD SWAP1 PUSH3 0x751 SWAP3 SWAP2 SWAP1 PUSH3 0xB9F JUMP JUMPDEST POP POP POP PUSH1 0xF PUSH3 0x770 PUSH2 0x2710 PUSH1 0x5 PUSH3 0xA2B PUSH1 0x20 SHL PUSH3 0x126D OR PUSH1 0x20 SHR JUMP JUMPDEST SWAP1 DUP1 PUSH1 0x1 DUP2 SLOAD ADD DUP1 DUP3 SSTORE DUP1 SWAP2 POP POP PUSH1 0x1 SWAP1 SUB SWAP1 PUSH1 0x0 MSTORE PUSH1 0x20 PUSH1 0x0 KECCAK256 ADD PUSH1 0x0 SWAP1 SWAP2 SWAP1 SWAP2 SWAP1 SWAP2 POP PUSH1 0x0 DUP3 ADD MLOAD DUP2 PUSH1 0x0 ADD PUSH1 0x0 PUSH2 0x100 EXP DUP2 SLOAD DUP2 PUSH4 0xFFFFFFFF MUL NOT AND SWAP1 DUP4 PUSH4 0xFFFFFFFF AND MUL OR SWAP1 SSTORE POP PUSH1 0x20 DUP3 ADD MLOAD DUP2 PUSH1 0x0 ADD PUSH1 0x4 PUSH2 0x100 EXP DUP2 SLOAD DUP2 PUSH1 0xFF MUL NOT AND SWAP1 DUP4 PUSH1 0xFF AND MUL OR SWAP1 SSTORE POP PUSH1 0x40 DUP3 ADD MLOAD DUP2 PUSH1 0x0 ADD PUSH1 0x5 PUSH2 0x100 EXP DUP2 SLOAD DUP2 PUSH4 0xFFFFFFFF MUL NOT AND SWAP1 DUP4 PUSH4 0xFFFFFFFF AND MUL OR SWAP1 SSTORE POP PUSH1 0x60 DUP3 ADD MLOAD DUP2 PUSH1 0x0 ADD PUSH1 0x9 PUSH2 0x100 EXP DUP2 SLOAD DUP2 PUSH4 0xFFFFFFFF MUL NOT AND SWAP1 DUP4 PUSH4 0xFFFFFFFF AND MUL OR SWAP1 SSTORE POP PUSH1 0x80 DUP3 ADD MLOAD DUP2 PUSH1 0x0 ADD PUSH1 0xD PUSH2 0x100 EXP DUP2 SLOAD DUP2 PUSH4 0xFFFFFFFF MUL NOT AND SWAP1 DUP4 PUSH4 0xFFFFFFFF AND MUL OR SWAP1 SSTORE POP POP POP POP PUSH3 0x12C6 JUMP JUMPDEST PUSH3 0x865 PUSH3 0xD60 JUMP JUMPDEST PUSH1 0x40 MLOAD DUP1 PUSH1 0x60 ADD PUSH1 0x40 MSTORE DUP1 DUP6 DUP2 MSTORE PUSH1 0x20 ADD DUP5 PUSH20 0xFFFFFFFFFFFFFFFFFFFFFFFFFFFFFFFFFFFFFFFF AND DUP2 MSTORE PUSH1 0x20 ADD DUP4 ISZERO ISZERO DUP2 MSTORE POP SWAP1 POP SWAP4 SWAP3 POP POP POP JUMP JUMPDEST PUSH3 0x8AB PUSH3 0xD99 JUMP JUMPDEST DUP3 DUP3 PUSH1 0x0 PUSH1 0xFF AND DUP3 PUSH1 0xFF AND LT ISZERO DUP1 ISZERO PUSH3 0x8CC JUMPI POP PUSH1 0x6 PUSH1 0xFF AND DUP3 PUSH1 0xFF AND GT ISZERO JUMPDEST PUSH3 0x90E JUMPI PUSH1 0x40 MLOAD PUSH32 0x8C379A000000000000000000000000000000000000000000000000000000000 DUP2 MSTORE PUSH1 0x4 ADD PUSH3 0x905 SWAP1 PUSH3 0x10F0 JUMP JUMPDEST PUSH1 0x40 MLOAD DUP1 SWAP2 SUB SWAP1 REVERT JUMPDEST PUSH1 0x0 PUSH1 0xFF AND DUP2 PUSH1 0xFF AND LT ISZERO DUP1 ISZERO PUSH3 0x92D JUMPI POP PUSH1 0x6 PUSH1 0xFF AND DUP2 PUSH1 0xFF AND GT ISZERO JUMPDEST PUSH3 0x96F JUMPI PUSH1 0x40 MLOAD PUSH32 0x8C379A000000000000000000000000000000000000000000000000000000000 DUP2 MSTORE PUSH1 0x4 ADD PUSH3 0x966 SWAP1 PUSH3 0x1188 JUMP JUMPDEST PUSH1 0x40 MLOAD DUP1 SWAP2 SUB SWAP1 REVERT JUMPDEST PUSH1 0x40 MLOAD DUP1 PUSH1 0x40 ADD PUSH1 0x40 MSTORE DUP1 DUP7 PUSH1 0xFF AND DUP2 MSTORE PUSH1 0x20 ADD DUP6 PUSH1 0xFF AND DUP2 MSTORE POP SWAP3 POP POP POP SWAP3 SWAP2 POP POP JUMP JUMPDEST PUSH3 0x99E PUSH3 0xDB9 JUMP JUMPDEST PUSH1 0x0 PUSH1 0x4 PUSH1 0xFF AND DUP5 PUSH1 0xFF AND GT PUSH3 0x9C7 JUMPI PUSH3 0x9C4 DUP6 PUSH1 0xFF AND DUP6 PUSH3 0xAB0 PUSH1 0x20 SHL PUSH1 0x20 SHR JUMP JUMPDEST SWAP1 POP JUMPDEST PUSH1 0x40 MLOAD DUP1 PUSH1 0xA0 ADD PUSH1 0x40 MSTORE DUP1 DUP7 PUSH1 0xFF AND DUP2 MSTORE PUSH1 0x20 ADD DUP6 PUSH1 0xFF AND DUP2 MSTORE PUSH1 0x20 ADD DUP3 PUSH4 0xFFFFFFFF AND DUP2 MSTORE PUSH1 0x20 ADD DUP5 DUP2 MSTORE PUSH1 0x20 ADD PUSH1 0x0 PUSH4 0xFFFFFFFF AND DUP2 MSTORE POP SWAP2 POP POP SWAP4 SWAP3 POP POP POP JUMP JUMPDEST PUSH3 0xA15 PUSH3 0xDFA JUMP JUMPDEST PUSH1 0x40 MLOAD DUP1 PUSH1 0x20 ADD PUSH1 0x40 MSTORE DUP1 DUP4 DUP2 MSTORE POP SWAP1 POP SWAP2 SWAP1 POP JUMP JUMPDEST PUSH3 0xA35 PUSH3 0xE0D JUMP JUMPDEST PUSH1 0x0 PUSH1 0x4 PUSH1 0xFF AND DUP4 PUSH1 0xFF AND GT PUSH3 0xA5F JUMPI PUSH3 0xA57 DUP4 PUSH3 0xADD PUSH1 0x20 SHL PUSH1 0x20 SHR JUMP JUMPDEST SWAP1 POP PUSH3 0xA64 JUMP JUMPDEST PUSH1 0x1 SWAP1 POP JUMPDEST PUSH1 0x40 MLOAD DUP1 PUSH1 0xA0 ADD PUSH1 0x40 MSTORE DUP1 DUP6 PUSH4 0xFFFFFFFF AND DUP2 MSTORE PUSH1 0x20 ADD DUP5 PUSH1 0xFF AND DUP2 MSTORE PUSH1 0x20 ADD DUP3 PUSH4 0xFFFFFFFF AND DUP2 MSTORE PUSH1 0x20 ADD DUP6 PUSH4 0xFFFFFFFF AND DUP2 MSTORE PUSH1 0x20 ADD PUSH1 0x0 PUSH4 0xFFFFFFFF AND DUP2 MSTORE POP SWAP2 POP POP SWAP3 SWAP2 POP POP JUMP JUMPDEST PUSH1 0x0 DUP1 PUSH3 0xAC4 DUP4 PUSH3 0xADD PUSH1 0x20 SHL PUSH1 0x20 SHR JUMP JUMPDEST SWAP1 POP DUP1 DUP5 PUSH3 0xAD4 SWAP2 SWAP1 PUSH3 0x11E9 JUMP JUMPDEST SWAP2 POP POP SWAP3 SWAP2 POP POP JUMP JUMPDEST PUSH1 0x0 PUSH1 0x4 PUSH1 0xFF AND DUP3 PUSH1 0xFF AND GT ISZERO PUSH3 0xB2C JUMPI PUSH1 0x40 MLOAD PUSH32 0x8C379A000000000000000000000000000000000000000000000000000000000 DUP2 MSTORE PUSH1 0x4 ADD PUSH3 0xB23 SWAP1 PUSH3 0x12A4 JUMP JUMPDEST PUSH1 0x40 MLOAD DUP1 SWAP2 SUB SWAP1 REVERT JUMPDEST PUSH1 0x0 PUSH1 0xFF AND DUP3 PUSH1 0xFF AND SUB PUSH3 0xB45 JUMPI PUSH1 0x1 SWAP1 POP PUSH3 0xB9A JUMP JUMPDEST PUSH1 0x1 PUSH1 0xFF AND DUP3 PUSH1 0xFF AND SUB PUSH3 0xB5E JUMPI PUSH1 0x3C SWAP1 POP PUSH3 0xB9A JUMP JUMPDEST PUSH1 0x2 PUSH1 0xFF AND DUP3 PUSH1 0xFF AND SUB PUSH3 0xB78 JUMPI PUSH2 0xE10 SWAP1 POP PUSH3 0xB9A JUMP JUMPDEST PUSH1 0x3 PUSH1 0xFF AND DUP3 PUSH1 0xFF AND SUB PUSH3 0xB93 JUMPI PUSH3 0x15180 SWAP1 POP PUSH3 0xB9A JUMP JUMPDEST PUSH3 0x93A80 SWAP1 POP JUMPDEST SWAP2 SWAP1 POP JUMP JUMPDEST DUP3 DUP1 SLOAD PUSH3 0xBAD SWAP1 PUSH3 0xF41 JUMP JUMPDEST SWAP1 PUSH1 0x0 MSTORE PUSH1 0x20 PUSH1 0x0 KECCAK256 SWAP1 PUSH1 0x1F ADD PUSH1 0x20 SWAP1 DIV DUP2 ADD SWAP3 DUP3 PUSH3 0xBD1 JUMPI PUSH1 0x0 DUP6 SSTORE PUSH3 0xC1D JUMP JUMPDEST DUP3 PUSH1 0x1F LT PUSH3 0xBEC JUMPI DUP1 MLOAD PUSH1 0xFF NOT AND DUP4 DUP1 ADD OR DUP6 SSTORE PUSH3 0xC1D JUMP JUMPDEST DUP3 DUP1 ADD PUSH1 0x1 ADD DUP6 SSTORE DUP3 ISZERO PUSH3 0xC1D JUMPI SWAP2 DUP3 ADD JUMPDEST DUP3 DUP2 GT ISZERO PUSH3 0xC1C JUMPI DUP3 MLOAD DUP3 SSTORE SWAP2 PUSH1 0x20 ADD SWAP2 SWAP1 PUSH1 0x1 ADD SWAP1 PUSH3 0xBFF JUMP JUMPDEST JUMPDEST POP SWAP1 POP PUSH3 0xC2C SWAP2 SWAP1 PUSH3 0xE57 JUMP JUMPDEST POP SWAP1 JUMP JUMPDEST DUP3 DUP1 SLOAD PUSH3 0xC3E SWAP1 PUSH3 0xF41 JUMP JUMPDEST SWAP1 PUSH1 0x0 MSTORE PUSH1 0x20 PUSH1 0x0 KECCAK256 SWAP1 PUSH1 0x1F ADD PUSH1 0x20 SWAP1 DIV DUP2 ADD SWAP3 DUP3 PUSH3 0xC62 JUMPI PUSH1 0x0 DUP6 SSTORE PUSH3 0xCB5 JUMP JUMPDEST DUP3 PUSH1 0x1F LT PUSH3 0xC75 JUMPI DUP1 SLOAD DUP6 SSTORE PUSH3 0xCB5 JUMP JUMPDEST DUP3 DUP1 ADD PUSH1 0x1 ADD DUP6 SSTORE DUP3 ISZERO PUSH3 0xCB5 JUMPI PUSH1 0x0 MSTORE PUSH1 0x20 PUSH1 0x0 KECCAK256 SWAP2 PUSH1 0x1F ADD PUSH1 0x20 SWAP1 DIV DUP3 ADD JUMPDEST DUP3 DUP2 GT ISZERO PUSH3 0xCB4 JUMPI DUP3 SLOAD DUP3 SSTORE SWAP2 PUSH1 0x1 ADD SWAP2 SWAP1 PUSH1 0x1 ADD SWAP1 PUSH3 0xC97 JUMP JUMPDEST JUMPDEST POP SWAP1 POP PUSH3 0xCC4 SWAP2 SWAP1 PUSH3 0xE57 JUMP JUMPDEST POP SWAP1 JUMP JUMPDEST DUP3 DUP1 SLOAD PUSH3 0xCD6 SWAP1 PUSH3 0xF41 JUMP JUMPDEST SWAP1 PUSH1 0x0 MSTORE PUSH1 0x20 PUSH1 0x0 KECCAK256 SWAP1 PUSH1 0x1F ADD PUSH1 0x20 SWAP1 DIV DUP2 ADD SWAP3 DUP3 PUSH3 0xCFA JUMPI PUSH1 0x0 DUP6 SSTORE PUSH3 0xD4D JUMP JUMPDEST DUP3 PUSH1 0x1F LT PUSH3 0xD0D JUMPI DUP1 SLOAD DUP6 SSTORE PUSH3 0xD4D JUMP JUMPDEST DUP3 DUP1 ADD PUSH1 0x1 ADD DUP6 SSTORE DUP3 ISZERO PUSH3 0xD4D JUMPI PUSH1 0x0 MSTORE PUSH1 0x20 PUSH1 0x0 KECCAK256 SWAP2 PUSH1 0x1F ADD PUSH1 0x20 SWAP1 DIV DUP3 ADD JUMPDEST DUP3 DUP2 GT ISZERO PUSH3 0xD4C JUMPI DUP3 SLOAD DUP3 SSTORE SWAP2 PUSH1 0x1 ADD SWAP2 SWAP1 PUSH1 0x1 ADD SWAP1 PUSH3 0xD2F JUMP JUMPDEST JUMPDEST POP SWAP1 POP PUSH3 0xD5C SWAP2 SWAP1 PUSH3 0xE57 JUMP JUMPDEST POP SWAP1 JUMP JUMPDEST PUSH1 0x40 MLOAD DUP1 PUSH1 0x60 ADD PUSH1 0x40 MSTORE DUP1 PUSH1 0x60 DUP2 MSTORE PUSH1 0x20 ADD PUSH1 0x0 PUSH20 0xFFFFFFFFFFFFFFFFFFFFFFFFFFFFFFFFFFFFFFFF AND DUP2 MSTORE PUSH1 0x20 ADD PUSH1 0x0 ISZERO ISZERO DUP2 MSTORE POP SWAP1 JUMP JUMPDEST PUSH1 0x40 MLOAD DUP1 PUSH1 0x40 ADD PUSH1 0x40 MSTORE DUP1 PUSH1 0x0 PUSH1 0xFF AND DUP2 MSTORE PUSH1 0x20 ADD PUSH1 0x0 PUSH1 0xFF AND DUP2 MSTORE POP SWAP1 JUMP JUMPDEST PUSH1 0x40 MLOAD DUP1 PUSH1 0xA0 ADD PUSH1 0x40 MSTORE DUP1 PUSH1 0x0 PUSH1 0xFF AND DUP2 MSTORE PUSH1 0x20 ADD PUSH1 0x0 PUSH1 0xFF AND DUP2 MSTORE PUSH1 0x20 ADD PUSH1 0x0 PUSH4 0xFFFFFFFF AND DUP2 MSTORE PUSH1 0x20 ADD PUSH1 0x60 DUP2 MSTORE PUSH1 0x20 ADD PUSH1 0x0 PUSH4 0xFFFFFFFF AND DUP2 MSTORE POP SWAP1 JUMP JUMPDEST PUSH1 0x40 MLOAD DUP1 PUSH1 0x20 ADD PUSH1 0x40 MSTORE DUP1 PUSH1 0x60 DUP2 MSTORE POP SWAP1 JUMP JUMPDEST PUSH1 0x40 MLOAD DUP1 PUSH1 0xA0 ADD PUSH1 0x40 MSTORE DUP1 PUSH1 0x0 PUSH4 0xFFFFFFFF AND DUP2 MSTORE PUSH1 0x20 ADD PUSH1 0x0 PUSH1 0xFF AND DUP2 MSTORE PUSH1 0x20 ADD PUSH1 0x0 PUSH4 0xFFFFFFFF AND DUP2 MSTORE PUSH1 0x20 ADD PUSH1 0x0 PUSH4 0xFFFFFFFF AND DUP2 MSTORE PUSH1 0x20 ADD PUSH1 0x0 PUSH4 0xFFFFFFFF AND DUP2 MSTORE POP SWAP1 JUMP JUMPDEST JUMPDEST DUP1 DUP3 GT ISZERO PUSH3 0xE72 JUMPI PUSH1 0x0 DUP2 PUSH1 0x0 SWAP1 SSTORE POP PUSH1 0x1 ADD PUSH3 0xE58 JUMP JUMPDEST POP SWAP1 JUMP JUMPDEST PUSH1 0x0 DUP1 REVERT JUMPDEST PUSH1 0x0 PUSH20 0xFFFFFFFFFFFFFFFFFFFFFFFFFFFFFFFFFFFFFFFF DUP3 AND SWAP1 POP SWAP2 SWAP1 POP JUMP JUMPDEST PUSH1 0x0 PUSH3 0xEA8 DUP3 PUSH3 0xE7B JUMP JUMPDEST SWAP1 POP SWAP2 SWAP1 POP JUMP JUMPDEST PUSH3 0xEBA DUP2 PUSH3 0xE9B JUMP JUMPDEST DUP2 EQ PUSH3 0xEC6 JUMPI PUSH1 0x0 DUP1 REVERT JUMPDEST POP JUMP JUMPDEST PUSH1 0x0 DUP2 MLOAD SWAP1 POP PUSH3 0xEDA DUP2 PUSH3 0xEAF JUMP JUMPDEST SWAP3 SWAP2 POP POP JUMP JUMPDEST PUSH1 0x0 PUSH1 0x20 DUP3 DUP5 SUB SLT ISZERO PUSH3 0xEF9 JUMPI PUSH3 0xEF8 PUSH3 0xE76 JUMP JUMPDEST JUMPDEST PUSH1 0x0 PUSH3 0xF09 DUP5 DUP3 DUP6 ADD PUSH3 0xEC9 JUMP JUMPDEST SWAP2 POP POP SWAP3 SWAP2 POP POP JUMP JUMPDEST PUSH32 0x4E487B7100000000000000000000000000000000000000000000000000000000 PUSH1 0x0 MSTORE PUSH1 0x22 PUSH1 0x4 MSTORE PUSH1 0x24 PUSH1 0x0 REVERT JUMPDEST PUSH1 0x0 PUSH1 0x2 DUP3 DIV SWAP1 POP PUSH1 0x1 DUP3 AND DUP1 PUSH3 0xF5A JUMPI PUSH1 0x7F DUP3 AND SWAP2 POP JUMPDEST PUSH1 0x20 DUP3 LT DUP2 SUB PUSH3 0xF70 JUMPI PUSH3 0xF6F PUSH3 0xF12 JUMP JUMPDEST JUMPDEST POP SWAP2 SWAP1 POP JUMP JUMPDEST PUSH32 0x4E487B7100000000000000000000000000000000000000000000000000000000 PUSH1 0x0 MSTORE PUSH1 0x32 PUSH1 0x4 MSTORE PUSH1 0x24 PUSH1 0x0 REVERT JUMPDEST PUSH1 0x0 DUP2 SWAP1 POP SWAP3 SWAP2 POP POP JUMP JUMPDEST PUSH1 0x0 DUP2 SWAP1 POP DUP2 PUSH1 0x0 MSTORE PUSH1 0x20 PUSH1 0x0 KECCAK256 SWAP1 POP SWAP2 SWAP1 POP JUMP JUMPDEST PUSH1 0x0 DUP2 SLOAD PUSH3 0xFD4 DUP2 PUSH3 0xF41 JUMP JUMPDEST PUSH3 0xFE0 DUP2 DUP7 PUSH3 0xFA5 JUMP JUMPDEST SWAP5 POP PUSH1 0x1 DUP3 AND PUSH1 0x0 DUP2 EQ PUSH3 0xFFE JUMPI PUSH1 0x1 DUP2 EQ PUSH3 0x1010 JUMPI PUSH3 0x1047 JUMP JUMPDEST PUSH1 0xFF NOT DUP4 AND DUP7 MSTORE DUP2 DUP7 ADD SWAP4 POP PUSH3 0x1047 JUMP JUMPDEST PUSH3 0x101B DUP6 PUSH3 0xFB0 JUMP JUMPDEST PUSH1 0x0 JUMPDEST DUP4 DUP2 LT ISZERO PUSH3 0x103F JUMPI DUP2 SLOAD DUP2 DUP10 ADD MSTORE PUSH1 0x1 DUP3 ADD SWAP2 POP PUSH1 0x20 DUP2 ADD SWAP1 POP PUSH3 0x101E JUMP JUMPDEST DUP4 DUP9 ADD SWAP6 POP POP POP JUMPDEST POP POP POP SWAP3 SWAP2 POP POP JUMP JUMPDEST PUSH1 0x0 PUSH3 0x105E DUP3 DUP5 PUSH3 0xFC5 JUMP JUMPDEST SWAP2 POP DUP2 SWAP1 POP SWAP3 SWAP2 POP POP JUMP JUMPDEST PUSH1 0x0 DUP3 DUP3 MSTORE PUSH1 0x20 DUP3 ADD SWAP1 POP SWAP3 SWAP2 POP POP JUMP JUMPDEST PUSH32 0x546865205F7374617274446179206E6F7420726570726573656E747320612076 PUSH1 0x0 DUP3 ADD MSTORE PUSH32 0x616C696420646179000000000000000000000000000000000000000000000000 PUSH1 0x20 DUP3 ADD MSTORE POP JUMP JUMPDEST PUSH1 0x0 PUSH3 0x10D8 PUSH1 0x28 DUP4 PUSH3 0x1069 JUMP JUMPDEST SWAP2 POP PUSH3 0x10E5 DUP3 PUSH3 0x107A JUMP JUMPDEST PUSH1 0x40 DUP3 ADD SWAP1 POP SWAP2 SWAP1 POP JUMP JUMPDEST PUSH1 0x0 PUSH1 0x20 DUP3 ADD SWAP1 POP DUP2 DUP2 SUB PUSH1 0x0 DUP4 ADD MSTORE PUSH3 0x110B DUP2 PUSH3 0x10C9 JUMP JUMPDEST SWAP1 POP SWAP2 SWAP1 POP JUMP JUMPDEST PUSH32 0x546865205F656E64446179206E6F7420726570726573656E747320612076616C PUSH1 0x0 DUP3 ADD MSTORE PUSH32 0x6964206461790000000000000000000000000000000000000000000000000000 PUSH1 0x20 DUP3 ADD MSTORE POP JUMP JUMPDEST PUSH1 0x0 PUSH3 0x1170 PUSH1 0x26 DUP4 PUSH3 0x1069 JUMP JUMPDEST SWAP2 POP PUSH3 0x117D DUP3 PUSH3 0x1112 JUMP JUMPDEST PUSH1 0x40 DUP3 ADD SWAP1 POP SWAP2 SWAP1 POP JUMP JUMPDEST PUSH1 0x0 PUSH1 0x20 DUP3 ADD SWAP1 POP DUP2 DUP2 SUB PUSH1 0x0 DUP4 ADD MSTORE PUSH3 0x11A3 DUP2 PUSH3 0x1161 JUMP JUMPDEST SWAP1 POP SWAP2 SWAP1 POP JUMP JUMPDEST PUSH1 0x0 PUSH4 0xFFFFFFFF DUP3 AND SWAP1 POP SWAP2 SWAP1 POP JUMP JUMPDEST PUSH32 0x4E487B7100000000000000000000000000000000000000000000000000000000 PUSH1 0x0 MSTORE PUSH1 0x11 PUSH1 0x4 MSTORE PUSH1 0x24 PUSH1 0x0 REVERT JUMPDEST PUSH1 0x0 PUSH3 0x11F6 DUP3 PUSH3 0x11AA JUMP JUMPDEST SWAP2 POP PUSH3 0x1203 DUP4 PUSH3 0x11AA JUMP JUMPDEST SWAP3 POP DUP2 PUSH4 0xFFFFFFFF DIV DUP4 GT DUP3 ISZERO ISZERO AND ISZERO PUSH3 0x1223 JUMPI PUSH3 0x1222 PUSH3 0x11BA JUMP JUMPDEST JUMPDEST DUP3 DUP3 MUL SWAP1 POP SWAP3 SWAP2 POP POP JUMP JUMPDEST PUSH32 0x546865206D6574686F642067657454696D65496E5365636F6E647320646F6573 PUSH1 0x0 DUP3 ADD MSTORE PUSH32 0x6E277420776F726B20666F72204D4F4E544820616E6420594541520000000000 PUSH1 0x20 DUP3 ADD MSTORE POP JUMP JUMPDEST PUSH1 0x0 PUSH3 0x128C PUSH1 0x3B DUP4 PUSH3 0x1069 JUMP JUMPDEST SWAP2 POP PUSH3 0x1299 DUP3 PUSH3 0x122E JUMP JUMPDEST PUSH1 0x40 DUP3 ADD SWAP1 POP SWAP2 SWAP1 POP JUMP JUMPDEST PUSH1 0x0 PUSH1 0x20 DUP3 ADD SWAP1 POP DUP2 DUP2 SUB PUSH1 0x0 DUP4 ADD MSTORE PUSH3 0x12BF DUP2 PUSH3 0x127D JUMP JUMPDEST SWAP1 POP SWAP2 SWAP1 POP JUMP JUMPDEST PUSH2 0x2A9F DUP1 PUSH3 0x12D6 PUSH1 0x0 CODECOPY PUSH1 0x0 RETURN INVALID PUSH1 0x80 PUSH1 0x40 MSTORE CALLVALUE DUP1 ISZERO PUSH2 0x10 JUMPI PUSH1 0x0 DUP1 REVERT JUMPDEST POP PUSH1 0x4 CALLDATASIZE LT PUSH2 0x62 JUMPI PUSH1 0x0 CALLDATALOAD PUSH1 0xE0 SHR DUP1 PUSH4 0x27F540AE EQ PUSH2 0x67 JUMPI DUP1 PUSH4 0x5E744C6A EQ PUSH2 0x97 JUMPI DUP1 PUSH4 0x70D8915A EQ PUSH2 0xC7 JUMPI DUP1 PUSH4 0x85931911 EQ PUSH2 0xE5 JUMPI DUP1 PUSH4 0xB8B4F1A0 EQ PUSH2 0x103 JUMPI DUP1 PUSH4 0xFB6F8243 EQ PUSH2 0x121 JUMPI JUMPDEST PUSH1 0x0 DUP1 REVERT JUMPDEST PUSH2 0x81 PUSH1 0x4 DUP1 CALLDATASIZE SUB DUP2 ADD SWAP1 PUSH2 0x7C SWAP2 SWAP1 PUSH2 0x1F8C JUMP JUMPDEST PUSH2 0x151 JUMP JUMPDEST PUSH1 0x40 MLOAD PUSH2 0x8E SWAP2 SWAP1 PUSH2 0x2046 JUMP JUMPDEST PUSH1 0x40 MLOAD DUP1 SWAP2 SUB SWAP1 RETURN JUMPDEST PUSH2 0xB1 PUSH1 0x4 DUP1 CALLDATASIZE SUB DUP2 ADD SWAP1 PUSH2 0xAC SWAP2 SWAP1 PUSH2 0x20BF JUMP JUMPDEST PUSH2 0x7F6 JUMP JUMPDEST PUSH1 0x40 MLOAD PUSH2 0xBE SWAP2 SWAP1 PUSH2 0x2046 JUMP JUMPDEST PUSH1 0x40 MLOAD DUP1 SWAP2 SUB SWAP1 RETURN JUMPDEST PUSH2 0xCF PUSH2 0x9E7 JUMP JUMPDEST PUSH1 0x40 MLOAD PUSH2 0xDC SWAP2 SWAP1 PUSH2 0x212A JUMP JUMPDEST PUSH1 0x40 MLOAD DUP1 SWAP2 SUB SWAP1 RETURN JUMPDEST PUSH2 0xED PUSH2 0xB4E JUMP JUMPDEST PUSH1 0x40 MLOAD PUSH2 0xFA SWAP2 SWAP1 PUSH2 0x212A JUMP JUMPDEST PUSH1 0x40 MLOAD DUP1 SWAP2 SUB SWAP1 RETURN JUMPDEST PUSH2 0x10B PUSH2 0xCB6 JUMP JUMPDEST PUSH1 0x40 MLOAD PUSH2 0x118 SWAP2 SWAP1 PUSH2 0x2046 JUMP JUMPDEST PUSH1 0x40 MLOAD DUP1 SWAP2 SUB SWAP1 RETURN JUMPDEST PUSH2 0x13B PUSH1 0x4 DUP1 CALLDATASIZE SUB DUP2 ADD SWAP1 PUSH2 0x136 SWAP2 SWAP1 PUSH2 0x2145 JUMP JUMPDEST PUSH2 0xE20 JUMP JUMPDEST PUSH1 0x40 MLOAD PUSH2 0x148 SWAP2 SWAP1 PUSH2 0x2268 JUMP JUMPDEST PUSH1 0x40 MLOAD DUP1 SWAP2 SUB SWAP1 RETURN JUMPDEST PUSH1 0x0 DUP1 PUSH1 0x0 SWAP1 SLOAD SWAP1 PUSH2 0x100 EXP SWAP1 DIV PUSH1 0xFF AND PUSH2 0x1A1 JUMPI PUSH1 0x40 MLOAD PUSH32 0x8C379A000000000000000000000000000000000000000000000000000000000 DUP2 MSTORE PUSH1 0x4 ADD PUSH2 0x198 SWAP1 PUSH2 0x22E7 JUMP JUMPDEST PUSH1 0x40 MLOAD DUP1 SWAP2 SUB SWAP1 REVERT JUMPDEST CALLER PUSH20 0xFFFFFFFFFFFFFFFFFFFFFFFFFFFFFFFFFFFFFFFF AND PUSH1 0x3 PUSH1 0x1 ADD PUSH1 0x0 SWAP1 SLOAD SWAP1 PUSH2 0x100 EXP SWAP1 DIV PUSH20 0xFFFFFFFFFFFFFFFFFFFFFFFFFFFFFFFFFFFFFFFF AND PUSH20 0xFFFFFFFFFFFFFFFFFFFFFFFFFFFFFFFFFFFFFFFF AND EQ PUSH2 0x234 JUMPI PUSH1 0x40 MLOAD PUSH32 0x8C379A000000000000000000000000000000000000000000000000000000000 DUP2 MSTORE PUSH1 0x4 ADD PUSH2 0x22B SWAP1 PUSH2 0x2379 JUMP JUMPDEST PUSH1 0x40 MLOAD DUP1 SWAP2 SUB SWAP1 REVERT JUMPDEST PUSH2 0x2AA DUP6 PUSH1 0x6 PUSH1 0x0 DUP2 SLOAD DUP2 LT PUSH2 0x24D JUMPI PUSH2 0x24C PUSH2 0x2399 JUMP JUMPDEST JUMPDEST SWAP1 PUSH1 0x0 MSTORE PUSH1 0x20 PUSH1 0x0 KECCAK256 ADD PUSH1 0x40 MLOAD DUP1 PUSH1 0x40 ADD PUSH1 0x40 MSTORE SWAP1 DUP2 PUSH1 0x0 DUP3 ADD PUSH1 0x0 SWAP1 SLOAD SWAP1 PUSH2 0x100 EXP SWAP1 DIV PUSH1 0xFF AND PUSH1 0xFF AND PUSH1 0xFF AND DUP2 MSTORE PUSH1 0x20 ADD PUSH1 0x0 DUP3 ADD PUSH1 0x1 SWAP1 SLOAD SWAP1 PUSH2 0x100 EXP SWAP1 DIV PUSH1 0xFF AND PUSH1 0xFF AND PUSH1 0xFF AND DUP2 MSTORE POP POP PUSH2 0x12E6 SWAP1 SWAP2 SWAP1 PUSH4 0xFFFFFFFF AND JUMP JUMPDEST ISZERO PUSH2 0x7E9 JUMPI PUSH1 0x9 PUSH1 0xA PUSH1 0x0 DUP2 SLOAD DUP2 LT PUSH2 0x2C6 JUMPI PUSH2 0x2C5 PUSH2 0x2399 JUMP JUMPDEST JUMPDEST SWAP1 PUSH1 0x0 MSTORE PUSH1 0x20 PUSH1 0x0 KECCAK256 ADD PUSH1 0x40 MLOAD PUSH2 0x2DD SWAP2 SWAP1 PUSH2 0x24C7 JUMP JUMPDEST SWAP1 DUP2 MSTORE PUSH1 0x20 ADD PUSH1 0x40 MLOAD DUP1 SWAP2 SUB SWAP1 KECCAK256 DUP5 PUSH1 0x40 MLOAD PUSH2 0x2F9 SWAP2 SWAP1 PUSH2 0x250F JUMP JUMPDEST SWAP1 DUP2 MSTORE PUSH1 0x20 ADD PUSH1 0x40 MLOAD DUP1 SWAP2 SUB SWAP1 KECCAK256 PUSH1 0x0 SWAP1 SLOAD SWAP1 PUSH2 0x100 EXP SWAP1 DIV PUSH1 0xFF AND PUSH2 0x599 JUMPI PUSH1 0x1 PUSH1 0x9 PUSH1 0xA PUSH1 0x0 DUP2 SLOAD DUP2 LT PUSH2 0x332 JUMPI PUSH2 0x331 PUSH2 0x2399 JUMP JUMPDEST JUMPDEST SWAP1 PUSH1 0x0 MSTORE PUSH1 0x20 PUSH1 0x0 KECCAK256 ADD PUSH1 0x40 MLOAD PUSH2 0x349 SWAP2 SWAP1 PUSH2 0x24C7 JUMP JUMPDEST SWAP1 DUP2 MSTORE PUSH1 0x20 ADD PUSH1 0x40 MLOAD DUP1 SWAP2 SUB SWAP1 KECCAK256 DUP6 PUSH1 0x40 MLOAD PUSH2 0x365 SWAP2 SWAP1 PUSH2 0x250F JUMP JUMPDEST SWAP1 DUP2 MSTORE PUSH1 0x20 ADD PUSH1 0x40 MLOAD DUP1 SWAP2 SUB SWAP1 KECCAK256 PUSH1 0x0 PUSH2 0x100 EXP DUP2 SLOAD DUP2 PUSH1 0xFF MUL NOT AND SWAP1 DUP4 ISZERO ISZERO MUL OR SWAP1 SSTORE POP PUSH1 0xB DUP5 SWAP1 DUP1 PUSH1 0x1 DUP2 SLOAD ADD DUP1 DUP3 SSTORE DUP1 SWAP2 POP POP PUSH1 0x1 SWAP1 SUB SWAP1 PUSH1 0x0 MSTORE PUSH1 0x20 PUSH1 0x0 KECCAK256 ADD PUSH1 0x0 SWAP1 SWAP2 SWAP1 SWAP2 SWAP1 SWAP2 POP SWAP1 DUP1 MLOAD SWAP1 PUSH1 0x20 ADD SWAP1 PUSH2 0x3C5 SWAP3 SWAP2 SWAP1 PUSH2 0x1B56 JUMP JUMPDEST POP PUSH1 0x7 PUSH1 0x0 DUP2 SLOAD DUP2 LT PUSH2 0x3DB JUMPI PUSH2 0x3DA PUSH2 0x2399 JUMP JUMPDEST JUMPDEST SWAP1 PUSH1 0x0 MSTORE PUSH1 0x20 PUSH1 0x0 KECCAK256 SWAP1 PUSH1 0x3 MUL ADD PUSH1 0x8 PUSH1 0xA PUSH1 0x0 DUP2 SLOAD DUP2 LT PUSH2 0x400 JUMPI PUSH2 0x3FF PUSH2 0x2399 JUMP JUMPDEST JUMPDEST SWAP1 PUSH1 0x0 MSTORE PUSH1 0x20 PUSH1 0x0 KECCAK256 ADD PUSH1 0x40 MLOAD PUSH2 0x417 SWAP2 SWAP1 PUSH2 0x24C7 JUMP JUMPDEST SWAP1 DUP2 MSTORE PUSH1 0x20 ADD PUSH1 0x40 MLOAD DUP1 SWAP2 SUB SWAP1 KECCAK256 DUP6 PUSH1 0x40 MLOAD PUSH2 0x433 SWAP2 SWAP1 PUSH2 0x250F JUMP JUMPDEST SWAP1 DUP2 MSTORE PUSH1 0x20 ADD PUSH1 0x40 MLOAD DUP1 SWAP2 SUB SWAP1 KECCAK256 PUSH1 0x0 DUP3 ADD PUSH1 0x0 SWAP1 SLOAD SWAP1 PUSH2 0x100 EXP SWAP1 DIV PUSH1 0xFF AND DUP2 PUSH1 0x0 ADD PUSH1 0x0 PUSH2 0x100 EXP DUP2 SLOAD DUP2 PUSH1 0xFF MUL NOT AND SWAP1 DUP4 PUSH1 0xFF AND MUL OR SWAP1 SSTORE POP PUSH1 0x0 DUP3 ADD PUSH1 0x1 SWAP1 SLOAD SWAP1 PUSH2 0x100 EXP SWAP1 DIV PUSH1 0xFF AND DUP2 PUSH1 0x0 ADD PUSH1 0x1 PUSH2 0x100 EXP DUP2 SLOAD DUP2 PUSH1 0xFF MUL NOT AND SWAP1 DUP4 PUSH1 0xFF AND MUL OR SWAP1 SSTORE POP PUSH1 0x0 DUP3 ADD PUSH1 0x2 SWAP1 SLOAD SWAP1 PUSH2 0x100 EXP SWAP1 DIV PUSH4 0xFFFFFFFF AND DUP2 PUSH1 0x0 ADD PUSH1 0x2 PUSH2 0x100 EXP DUP2 SLOAD DUP2 PUSH4 0xFFFFFFFF MUL NOT AND SWAP1 DUP4 PUSH4 0xFFFFFFFF AND MUL OR SWAP1 SSTORE POP PUSH1 0x1 DUP3 ADD DUP2 PUSH1 0x1 ADD SWAP1 DUP1 SLOAD PUSH2 0x4E8 SWAP1 PUSH2 0x23F7 JUMP JUMPDEST PUSH2 0x4F3 SWAP3 SWAP2 SWAP1 PUSH2 0x1BDC JUMP JUMPDEST POP PUSH1 0x2 DUP3 ADD PUSH1 0x0 SWAP1 SLOAD SWAP1 PUSH2 0x100 EXP SWAP1 DIV PUSH4 0xFFFFFFFF AND DUP2 PUSH1 0x2 ADD PUSH1 0x0 PUSH2 0x100 EXP DUP2 SLOAD DUP2 PUSH4 0xFFFFFFFF MUL NOT AND SWAP1 DUP4 PUSH4 0xFFFFFFFF AND MUL OR SWAP1 SSTORE POP SWAP1 POP POP PUSH2 0x598 DUP4 PUSH1 0x8 PUSH1 0xA PUSH1 0x0 DUP2 SLOAD DUP2 LT PUSH2 0x549 JUMPI PUSH2 0x548 PUSH2 0x2399 JUMP JUMPDEST JUMPDEST SWAP1 PUSH1 0x0 MSTORE PUSH1 0x20 PUSH1 0x0 KECCAK256 ADD PUSH1 0x40 MLOAD PUSH2 0x560 SWAP2 SWAP1 PUSH2 0x24C7 JUMP JUMPDEST SWAP1 DUP2 MSTORE PUSH1 0x20 ADD PUSH1 0x40 MLOAD DUP1 SWAP2 SUB SWAP1 KECCAK256 DUP7 PUSH1 0x40 MLOAD PUSH2 0x57C SWAP2 SWAP1 PUSH2 0x250F JUMP JUMPDEST SWAP1 DUP2 MSTORE PUSH1 0x20 ADD PUSH1 0x40 MLOAD DUP1 SWAP2 SUB SWAP1 KECCAK256 PUSH2 0x1372 SWAP1 SWAP2 SWAP1 PUSH4 0xFFFFFFFF AND JUMP JUMPDEST JUMPDEST PUSH1 0x0 PUSH1 0xFF AND PUSH2 0x72B DUP5 PUSH1 0x8 PUSH1 0xA PUSH1 0x0 DUP2 SLOAD DUP2 LT PUSH2 0x5B9 JUMPI PUSH2 0x5B8 PUSH2 0x2399 JUMP JUMPDEST JUMPDEST SWAP1 PUSH1 0x0 MSTORE PUSH1 0x20 PUSH1 0x0 KECCAK256 ADD PUSH1 0x40 MLOAD PUSH2 0x5D0 SWAP2 SWAP1 PUSH2 0x24C7 JUMP JUMPDEST SWAP1 DUP2 MSTORE PUSH1 0x20 ADD PUSH1 0x40 MLOAD DUP1 SWAP2 SUB SWAP1 KECCAK256 DUP8 PUSH1 0x40 MLOAD PUSH2 0x5EC SWAP2 SWAP1 PUSH2 0x250F JUMP JUMPDEST SWAP1 DUP2 MSTORE PUSH1 0x20 ADD PUSH1 0x40 MLOAD DUP1 SWAP2 SUB SWAP1 KECCAK256 PUSH1 0x40 MLOAD DUP1 PUSH1 0xA0 ADD PUSH1 0x40 MSTORE SWAP1 DUP2 PUSH1 0x0 DUP3 ADD PUSH1 0x0 SWAP1 SLOAD SWAP1 PUSH2 0x100 EXP SWAP1 DIV PUSH1 0xFF AND PUSH1 0xFF AND PUSH1 0xFF AND DUP2 MSTORE PUSH1 0x20 ADD PUSH1 0x0 DUP3 ADD PUSH1 0x1 SWAP1 SLOAD SWAP1 PUSH2 0x100 EXP SWAP1 DIV PUSH1 0xFF AND PUSH1 0xFF AND PUSH1 0xFF AND DUP2 MSTORE PUSH1 0x20 ADD PUSH1 0x0 DUP3 ADD PUSH1 0x2 SWAP1 SLOAD SWAP1 PUSH2 0x100 EXP SWAP1 DIV PUSH4 0xFFFFFFFF AND PUSH4 0xFFFFFFFF AND PUSH4 0xFFFFFFFF AND DUP2 MSTORE PUSH1 0x20 ADD PUSH1 0x1 DUP3 ADD DUP1 SLOAD PUSH2 0x675 SWAP1 PUSH2 0x23F7 JUMP JUMPDEST DUP1 PUSH1 0x1F ADD PUSH1 0x20 DUP1 SWAP2 DIV MUL PUSH1 0x20 ADD PUSH1 0x40 MLOAD SWAP1 DUP2 ADD PUSH1 0x40 MSTORE DUP1 SWAP3 SWAP2 SWAP1 DUP2 DUP2 MSTORE PUSH1 0x20 ADD DUP3 DUP1 SLOAD PUSH2 0x6A1 SWAP1 PUSH2 0x23F7 JUMP JUMPDEST DUP1 ISZERO PUSH2 0x6EE JUMPI DUP1 PUSH1 0x1F LT PUSH2 0x6C3 JUMPI PUSH2 0x100 DUP1 DUP4 SLOAD DIV MUL DUP4 MSTORE SWAP2 PUSH1 0x20 ADD SWAP2 PUSH2 0x6EE JUMP JUMPDEST DUP3 ADD SWAP2 SWAP1 PUSH1 0x0 MSTORE PUSH1 0x20 PUSH1 0x0 KECCAK256 SWAP1 JUMPDEST DUP2 SLOAD DUP2 MSTORE SWAP1 PUSH1 0x1 ADD SWAP1 PUSH1 0x20 ADD DUP1 DUP4 GT PUSH2 0x6D1 JUMPI DUP3 SWAP1 SUB PUSH1 0x1F AND DUP3 ADD SWAP2 JUMPDEST POP POP POP POP POP DUP2 MSTORE PUSH1 0x20 ADD PUSH1 0x2 DUP3 ADD PUSH1 0x0 SWAP1 SLOAD SWAP1 PUSH2 0x100 EXP SWAP1 DIV PUSH4 0xFFFFFFFF AND PUSH4 0xFFFFFFFF AND PUSH4 0xFFFFFFFF AND DUP2 MSTORE POP POP PUSH2 0x1407 SWAP1 SWAP2 SWAP1 PUSH4 0xFFFFFFFF AND JUMP JUMPDEST EQ DUP1 ISZERO PUSH2 0x77C JUMPI POP PUSH2 0x77B PUSH1 0x40 MLOAD DUP1 PUSH1 0x40 ADD PUSH1 0x40 MSTORE DUP1 PUSH1 0x12 DUP2 MSTORE PUSH1 0x20 ADD PUSH32 0x427573696E6573732D696E697469617465640000000000000000000000000000 DUP2 MSTORE POP DUP4 PUSH2 0x1450 SWAP1 SWAP2 SWAP1 PUSH4 0xFFFFFFFF AND JUMP JUMPDEST JUMPDEST ISZERO PUSH2 0x7E8 JUMPI PUSH2 0x7B2 DUP4 PUSH1 0xF PUSH1 0x0 DUP2 SLOAD DUP2 LT PUSH2 0x79A JUMPI PUSH2 0x799 PUSH2 0x2399 JUMP JUMPDEST JUMPDEST SWAP1 PUSH1 0x0 MSTORE PUSH1 0x20 PUSH1 0x0 KECCAK256 ADD PUSH2 0x14B9 SWAP1 SWAP2 SWAP1 PUSH4 0xFFFFFFFF AND JUMP JUMPDEST ISZERO PUSH2 0x7E7 JUMPI PUSH2 0x7DE PUSH1 0xF PUSH1 0x0 DUP2 SLOAD DUP2 LT PUSH2 0x7CF JUMPI PUSH2 0x7CE PUSH2 0x2399 JUMP JUMPDEST JUMPDEST SWAP1 PUSH1 0x0 MSTORE PUSH1 0x20 PUSH1 0x0 KECCAK256 ADD PUSH2 0x1532 JUMP JUMPDEST PUSH1 0x1 SWAP1 POP PUSH2 0x7EE JUMP JUMPDEST JUMPDEST JUMPDEST PUSH1 0x0 SWAP1 POP JUMPDEST SWAP5 SWAP4 POP POP POP POP JUMP JUMPDEST PUSH1 0x0 CALLER PUSH20 0xFFFFFFFFFFFFFFFFFFFFFFFFFFFFFFFFFFFFFFFF AND PUSH1 0x3 PUSH1 0x1 ADD PUSH1 0x0 SWAP1 SLOAD SWAP1 PUSH2 0x100 EXP SWAP1 DIV PUSH20 0xFFFFFFFFFFFFFFFFFFFFFFFFFFFFFFFFFFFFFFFF AND PUSH20 0xFFFFFFFFFFFFFFFFFFFFFFFFFFFFFFFFFFFFFFFF AND EQ PUSH2 0x88B JUMPI PUSH1 0x40 MLOAD PUSH32 0x8C379A000000000000000000000000000000000000000000000000000000000 DUP2 MSTORE PUSH1 0x4 ADD PUSH2 0x882 SWAP1 PUSH2 0x2379 JUMP JUMPDEST PUSH1 0x40 MLOAD DUP1 SWAP2 SUB SWAP1 REVERT JUMPDEST PUSH1 0x5 PUSH1 0x0 PUSH1 0x1 DUP1 ADD PUSH1 0x0 SWAP1 SLOAD SWAP1 PUSH2 0x100 EXP SWAP1 DIV PUSH20 0xFFFFFFFFFFFFFFFFFFFFFFFFFFFFFFFFFFFFFFFF AND PUSH20 0xFFFFFFFFFFFFFFFFFFFFFFFFFFFFFFFFFFFFFFFF AND PUSH20 0xFFFFFFFFFFFFFFFFFFFFFFFFFFFFFFFFFFFFFFFF AND DUP2 MSTORE PUSH1 0x20 ADD SWAP1 DUP2 MSTORE PUSH1 0x20 ADD PUSH1 0x0 KECCAK256 PUSH1 0x0 DUP1 DUP3 ADD PUSH1 0x0 PUSH2 0x8FF SWAP2 SWAP1 PUSH2 0x1C69 JUMP JUMPDEST PUSH1 0x1 DUP3 ADD PUSH1 0x0 PUSH2 0x100 EXP DUP2 SLOAD SWAP1 PUSH20 0xFFFFFFFFFFFFFFFFFFFFFFFFFFFFFFFFFFFFFFFF MUL NOT AND SWAP1 SSTORE PUSH1 0x1 DUP3 ADD PUSH1 0x14 PUSH2 0x100 EXP DUP2 SLOAD SWAP1 PUSH1 0xFF MUL NOT AND SWAP1 SSTORE POP POP PUSH2 0x948 DUP4 DUP4 PUSH1 0x0 PUSH2 0x10B6 JUMP JUMPDEST PUSH1 0x1 PUSH1 0x0 DUP3 ADD MLOAD DUP2 PUSH1 0x0 ADD SWAP1 DUP1 MLOAD SWAP1 PUSH1 0x20 ADD SWAP1 PUSH2 0x966 SWAP3 SWAP2 SWAP1 PUSH2 0x1B56 JUMP JUMPDEST POP PUSH1 0x20 DUP3 ADD MLOAD DUP2 PUSH1 0x1 ADD PUSH1 0x0 PUSH2 0x100 EXP DUP2 SLOAD DUP2 PUSH20 0xFFFFFFFFFFFFFFFFFFFFFFFFFFFFFFFFFFFFFFFF MUL NOT AND SWAP1 DUP4 PUSH20 0xFFFFFFFFFFFFFFFFFFFFFFFFFFFFFFFFFFFFFFFF AND MUL OR SWAP1 SSTORE POP PUSH1 0x40 DUP3 ADD MLOAD DUP2 PUSH1 0x1 ADD PUSH1 0x14 PUSH2 0x100 EXP DUP2 SLOAD DUP2 PUSH1 0xFF MUL NOT AND SWAP1 DUP4 ISZERO ISZERO MUL OR SWAP1 SSTORE POP SWAP1 POP POP PUSH2 0x9DC DUP3 PUSH1 0x1 PUSH2 0x1577 JUMP JUMPDEST POP PUSH1 0x1 SWAP1 POP SWAP3 SWAP2 POP POP JUMP JUMPDEST PUSH1 0x0 DUP1 PUSH1 0x0 SWAP1 SLOAD SWAP1 PUSH2 0x100 EXP SWAP1 DIV PUSH1 0xFF AND PUSH2 0xA37 JUMPI PUSH1 0x40 MLOAD PUSH32 0x8C379A000000000000000000000000000000000000000000000000000000000 DUP2 MSTORE PUSH1 0x4 ADD PUSH2 0xA2E SWAP1 PUSH2 0x22E7 JUMP JUMPDEST PUSH1 0x40 MLOAD DUP1 SWAP2 SUB SWAP1 REVERT JUMPDEST CALLER PUSH20 0xFFFFFFFFFFFFFFFFFFFFFFFFFFFFFFFFFFFFFFFF AND PUSH1 0x1 DUP1 ADD PUSH1 0x0 SWAP1 SLOAD SWAP1 PUSH2 0x100 EXP SWAP1 DIV PUSH20 0xFFFFFFFFFFFFFFFFFFFFFFFFFFFFFFFFFFFFFFFF AND PUSH20 0xFFFFFFFFFFFFFFFFFFFFFFFFFFFFFFFFFFFFFFFF AND EQ DUP1 PUSH2 0xAE5 JUMPI POP CALLER PUSH20 0xFFFFFFFFFFFFFFFFFFFFFFFFFFFFFFFFFFFFFFFF AND PUSH1 0x3 PUSH1 0x1 ADD PUSH1 0x0 SWAP1 SLOAD SWAP1 PUSH2 0x100 EXP SWAP1 DIV PUSH20 0xFFFFFFFFFFFFFFFFFFFFFFFFFFFFFFFFFFFFFFFF AND PUSH20 0xFFFFFFFFFFFFFFFFFFFFFFFFFFFFFFFFFFFFFFFF AND EQ JUMPDEST PUSH2 0xB24 JUMPI PUSH1 0x40 MLOAD PUSH32 0x8C379A000000000000000000000000000000000000000000000000000000000 DUP2 MSTORE PUSH1 0x4 ADD PUSH2 0xB1B SWAP1 PUSH2 0x2598 JUMP JUMPDEST PUSH1 0x40 MLOAD DUP1 SWAP2 SUB SWAP1 REVERT JUMPDEST PUSH1 0x1 DUP1 ADD PUSH1 0x0 SWAP1 SLOAD SWAP1 PUSH2 0x100 EXP SWAP1 DIV PUSH20 0xFFFFFFFFFFFFFFFFFFFFFFFFFFFFFFFFFFFFFFFF AND SWAP1 POP SWAP1 JUMP JUMPDEST PUSH1 0x0 DUP1 PUSH1 0x0 SWAP1 SLOAD SWAP1 PUSH2 0x100 EXP SWAP1 DIV PUSH1 0xFF AND PUSH2 0xB9E JUMPI PUSH1 0x40 MLOAD PUSH32 0x8C379A000000000000000000000000000000000000000000000000000000000 DUP2 MSTORE PUSH1 0x4 ADD PUSH2 0xB95 SWAP1 PUSH2 0x22E7 JUMP JUMPDEST PUSH1 0x40 MLOAD DUP1 SWAP2 SUB SWAP1 REVERT JUMPDEST CALLER PUSH20 0xFFFFFFFFFFFFFFFFFFFFFFFFFFFFFFFFFFFFFFFF AND PUSH1 0x1 DUP1 ADD PUSH1 0x0 SWAP1 SLOAD SWAP1 PUSH2 0x100 EXP SWAP1 DIV PUSH20 0xFFFFFFFFFFFFFFFFFFFFFFFFFFFFFFFFFFFFFFFF AND PUSH20 0xFFFFFFFFFFFFFFFFFFFFFFFFFFFFFFFFFFFFFFFF AND EQ DUP1 PUSH2 0xC4C JUMPI POP CALLER PUSH20 0xFFFFFFFFFFFFFFFFFFFFFFFFFFFFFFFFFFFFFFFF AND PUSH1 0x3 PUSH1 0x1 ADD PUSH1 0x0 SWAP1 SLOAD SWAP1 PUSH2 0x100 EXP SWAP1 DIV PUSH20 0xFFFFFFFFFFFFFFFFFFFFFFFFFFFFFFFFFFFFFFFF AND PUSH20 0xFFFFFFFFFFFFFFFFFFFFFFFFFFFFFFFFFFFFFFFF AND EQ JUMPDEST PUSH2 0xC8B JUMPI PUSH1 0x40 MLOAD PUSH32 0x8C379A000000000000000000000000000000000000000000000000000000000 DUP2 MSTORE PUSH1 0x4 ADD PUSH2 0xC82 SWAP1 PUSH2 0x2598 JUMP JUMPDEST PUSH1 0x40 MLOAD DUP1 SWAP2 SUB SWAP1 REVERT JUMPDEST PUSH1 0x3 PUSH1 0x1 ADD PUSH1 0x0 SWAP1 SLOAD SWAP1 PUSH2 0x100 EXP SWAP1 DIV PUSH20 0xFFFFFFFFFFFFFFFFFFFFFFFFFFFFFFFFFFFFFFFF AND SWAP1 POP SWAP1 JUMP JUMPDEST PUSH1 0x0 DUP1 PUSH1 0x0 SWAP1 SLOAD SWAP1 PUSH2 0x100 EXP SWAP1 DIV PUSH1 0xFF AND PUSH2 0xD06 JUMPI PUSH1 0x40 MLOAD PUSH32 0x8C379A000000000000000000000000000000000000000000000000000000000 DUP2 MSTORE PUSH1 0x4 ADD PUSH2 0xCFD SWAP1 PUSH2 0x22E7 JUMP JUMPDEST PUSH1 0x40 MLOAD DUP1 SWAP2 SUB SWAP1 REVERT JUMPDEST CALLER PUSH20 0xFFFFFFFFFFFFFFFFFFFFFFFFFFFFFFFFFFFFFFFF AND PUSH1 0x1 DUP1 ADD PUSH1 0x0 SWAP1 SLOAD SWAP1 PUSH2 0x100 EXP SWAP1 DIV PUSH20 0xFFFFFFFFFFFFFFFFFFFFFFFFFFFFFFFFFFFFFFFF AND PUSH20 0xFFFFFFFFFFFFFFFFFFFFFFFFFFFFFFFFFFFFFFFF AND EQ PUSH2 0xD98 JUMPI PUSH1 0x40 MLOAD PUSH32 0x8C379A000000000000000000000000000000000000000000000000000000000 DUP2 MSTORE PUSH1 0x4 ADD PUSH2 0xD8F SWAP1 PUSH2 0x262A JUMP JUMPDEST PUSH1 0x40 MLOAD DUP1 SWAP2 SUB SWAP1 REVERT JUMPDEST PUSH1 0x0 ISZERO ISZERO PUSH1 0x1 DUP1 ADD PUSH1 0x14 SWAP1 SLOAD SWAP1 PUSH2 0x100 EXP SWAP1 DIV PUSH1 0xFF AND ISZERO ISZERO EQ PUSH2 0xDF0 JUMPI PUSH1 0x40 MLOAD PUSH32 0x8C379A000000000000000000000000000000000000000000000000000000000 DUP2 MSTORE PUSH1 0x4 ADD PUSH2 0xDE7 SWAP1 PUSH2 0x2696 JUMP JUMPDEST PUSH1 0x40 MLOAD DUP1 SWAP2 SUB SWAP1 REVERT JUMPDEST PUSH1 0x1 DUP1 PUSH1 0x1 ADD PUSH1 0x14 PUSH2 0x100 EXP DUP2 SLOAD DUP2 PUSH1 0xFF MUL NOT AND SWAP1 DUP4 ISZERO ISZERO MUL OR SWAP1 SSTORE POP PUSH2 0xE18 CALLER PUSH1 0x1 PUSH2 0x1577 JUMP JUMPDEST POP PUSH1 0x1 SWAP1 POP SWAP1 JUMP JUMPDEST PUSH2 0xE28 PUSH2 0x1CA9 JUMP JUMPDEST PUSH1 0x0 DUP1 SLOAD SWAP1 PUSH2 0x100 EXP SWAP1 DIV PUSH1 0xFF AND PUSH2 0xE75 JUMPI PUSH1 0x40 MLOAD PUSH32 0x8C379A000000000000000000000000000000000000000000000000000000000 DUP2 MSTORE PUSH1 0x4 ADD PUSH2 0xE6C SWAP1 PUSH2 0x22E7 JUMP JUMPDEST PUSH1 0x40 MLOAD DUP1 SWAP2 SUB SWAP1 REVERT JUMPDEST CALLER PUSH20 0xFFFFFFFFFFFFFFFFFFFFFFFFFFFFFFFFFFFFFFFF AND PUSH1 0x1 DUP1 ADD PUSH1 0x0 SWAP1 SLOAD SWAP1 PUSH2 0x100 EXP SWAP1 DIV PUSH20 0xFFFFFFFFFFFFFFFFFFFFFFFFFFFFFFFFFFFFFFFF AND PUSH20 0xFFFFFFFFFFFFFFFFFFFFFFFFFFFFFFFFFFFFFFFF AND EQ DUP1 PUSH2 0xF23 JUMPI POP CALLER PUSH20 0xFFFFFFFFFFFFFFFFFFFFFFFFFFFFFFFFFFFFFFFF AND PUSH1 0x3 PUSH1 0x1 ADD PUSH1 0x0 SWAP1 SLOAD SWAP1 PUSH2 0x100 EXP SWAP1 DIV PUSH20 0xFFFFFFFFFFFFFFFFFFFFFFFFFFFFFFFFFFFFFFFF AND PUSH20 0xFFFFFFFFFFFFFFFFFFFFFFFFFFFFFFFFFFFFFFFF AND EQ JUMPDEST PUSH2 0xF62 JUMPI PUSH1 0x40 MLOAD PUSH32 0x8C379A000000000000000000000000000000000000000000000000000000000 DUP2 MSTORE PUSH1 0x4 ADD PUSH2 0xF59 SWAP1 PUSH2 0x2598 JUMP JUMPDEST PUSH1 0x40 MLOAD DUP1 SWAP2 SUB SWAP1 REVERT JUMPDEST PUSH1 0x5 PUSH1 0x0 DUP4 PUSH20 0xFFFFFFFFFFFFFFFFFFFFFFFFFFFFFFFFFFFFFFFF AND PUSH20 0xFFFFFFFFFFFFFFFFFFFFFFFFFFFFFFFFFFFFFFFF AND DUP2 MSTORE PUSH1 0x20 ADD SWAP1 DUP2 MSTORE PUSH1 0x20 ADD PUSH1 0x0 KECCAK256 PUSH1 0x40 MLOAD DUP1 PUSH1 0x60 ADD PUSH1 0x40 MSTORE SWAP1 DUP2 PUSH1 0x0 DUP3 ADD DUP1 SLOAD PUSH2 0xFBC SWAP1 PUSH2 0x23F7 JUMP JUMPDEST DUP1 PUSH1 0x1F ADD PUSH1 0x20 DUP1 SWAP2 DIV MUL PUSH1 0x20 ADD PUSH1 0x40 MLOAD SWAP1 DUP2 ADD PUSH1 0x40 MSTORE DUP1 SWAP3 SWAP2 SWAP1 DUP2 DUP2 MSTORE PUSH1 0x20 ADD DUP3 DUP1 SLOAD PUSH2 0xFE8 SWAP1 PUSH2 0x23F7 JUMP JUMPDEST DUP1 ISZERO PUSH2 0x1035 JUMPI DUP1 PUSH1 0x1F LT PUSH2 0x100A JUMPI PUSH2 0x100 DUP1 DUP4 SLOAD DIV MUL DUP4 MSTORE SWAP2 PUSH1 0x20 ADD SWAP2 PUSH2 0x1035 JUMP JUMPDEST DUP3 ADD SWAP2 SWAP1 PUSH1 0x0 MSTORE PUSH1 0x20 PUSH1 0x0 KECCAK256 SWAP1 JUMPDEST DUP2 SLOAD DUP2 MSTORE SWAP1 PUSH1 0x1 ADD SWAP1 PUSH1 0x20 ADD DUP1 DUP4 GT PUSH2 0x1018 JUMPI DUP3 SWAP1 SUB PUSH1 0x1F AND DUP3 ADD SWAP2 JUMPDEST POP POP POP POP POP DUP2 MSTORE PUSH1 0x20 ADD PUSH1 0x1 DUP3 ADD PUSH1 0x0 SWAP1 SLOAD SWAP1 PUSH2 0x100 EXP SWAP1 DIV PUSH20 0xFFFFFFFFFFFFFFFFFFFFFFFFFFFFFFFFFFFFFFFF AND PUSH20 0xFFFFFFFFFFFFFFFFFFFFFFFFFFFFFFFFFFFFFFFF AND PUSH20 0xFFFFFFFFFFFFFFFFFFFFFFFFFFFFFFFFFFFFFFFF AND DUP2 MSTORE PUSH1 0x20 ADD PUSH1 0x1 DUP3 ADD PUSH1 0x14 SWAP1 SLOAD SWAP1 PUSH2 0x100 EXP SWAP1 DIV PUSH1 0xFF AND ISZERO ISZERO ISZERO ISZERO DUP2 MSTORE POP POP SWAP1 POP SWAP2 SWAP1 POP JUMP JUMPDEST PUSH2 0x10BE PUSH2 0x1CA9 JUMP JUMPDEST PUSH1 0x40 MLOAD DUP1 PUSH1 0x60 ADD PUSH1 0x40 MSTORE DUP1 DUP6 DUP2 MSTORE PUSH1 0x20 ADD DUP5 PUSH20 0xFFFFFFFFFFFFFFFFFFFFFFFFFFFFFFFFFFFFFFFF AND DUP2 MSTORE PUSH1 0x20 ADD DUP4 ISZERO ISZERO DUP2 MSTORE POP SWAP1 POP SWAP4 SWAP3 POP POP POP JUMP JUMPDEST PUSH2 0x1102 PUSH2 0x1CE2 JUMP JUMPDEST DUP3 DUP3 PUSH1 0x0 PUSH1 0xFF AND DUP3 PUSH1 0xFF AND LT ISZERO DUP1 ISZERO PUSH2 0x1122 JUMPI POP PUSH1 0x6 PUSH1 0xFF AND DUP3 PUSH1 0xFF AND GT ISZERO JUMPDEST PUSH2 0x1161 JUMPI PUSH1 0x40 MLOAD PUSH32 0x8C379A000000000000000000000000000000000000000000000000000000000 DUP2 MSTORE PUSH1 0x4 ADD PUSH2 0x1158 SWAP1 PUSH2 0x2728 JUMP JUMPDEST PUSH1 0x40 MLOAD DUP1 SWAP2 SUB SWAP1 REVERT JUMPDEST PUSH1 0x0 PUSH1 0xFF AND DUP2 PUSH1 0xFF AND LT ISZERO DUP1 ISZERO PUSH2 0x117F JUMPI POP PUSH1 0x6 PUSH1 0xFF AND DUP2 PUSH1 0xFF AND GT ISZERO JUMPDEST PUSH2 0x11BE JUMPI PUSH1 0x40 MLOAD PUSH32 0x8C379A000000000000000000000000000000000000000000000000000000000 DUP2 MSTORE PUSH1 0x4 ADD PUSH2 0x11B5 SWAP1 PUSH2 0x27BA JUMP JUMPDEST PUSH1 0x40 MLOAD DUP1 SWAP2 SUB SWAP1 REVERT JUMPDEST PUSH1 0x40 MLOAD DUP1 PUSH1 0x40 ADD PUSH1 0x40 MSTORE DUP1 DUP7 PUSH1 0xFF AND DUP2 MSTORE PUSH1 0x20 ADD DUP6 PUSH1 0xFF AND DUP2 MSTORE POP SWAP3 POP POP POP SWAP3 SWAP2 POP POP JUMP JUMPDEST PUSH2 0x11EB PUSH2 0x1D02 JUMP JUMPDEST PUSH1 0x0 PUSH1 0x4 PUSH1 0xFF AND DUP5 PUSH1 0xFF AND GT PUSH2 0x120B JUMPI PUSH2 0x1208 DUP6 PUSH1 0xFF AND DUP6 PUSH2 0x167A JUMP JUMPDEST SWAP1 POP JUMPDEST PUSH1 0x40 MLOAD DUP1 PUSH1 0xA0 ADD PUSH1 0x40 MSTORE DUP1 DUP7 PUSH1 0xFF AND DUP2 MSTORE PUSH1 0x20 ADD DUP6 PUSH1 0xFF AND DUP2 MSTORE PUSH1 0x20 ADD DUP3 PUSH4 0xFFFFFFFF AND DUP2 MSTORE PUSH1 0x20 ADD DUP5 DUP2 MSTORE PUSH1 0x20 ADD PUSH1 0x0 PUSH4 0xFFFFFFFF AND DUP2 MSTORE POP SWAP2 POP POP SWAP4 SWAP3 POP POP POP JUMP JUMPDEST PUSH2 0x1257 PUSH2 0x1D43 JUMP JUMPDEST PUSH1 0x40 MLOAD DUP1 PUSH1 0x20 ADD PUSH1 0x40 MSTORE DUP1 DUP4 DUP2 MSTORE POP SWAP1 POP SWAP2 SWAP1 POP JUMP JUMPDEST PUSH2 0x1275 PUSH2 0x1D56 JUMP JUMPDEST PUSH1 0x0 PUSH1 0x4 PUSH1 0xFF AND DUP4 PUSH1 0xFF AND GT PUSH2 0x1295 JUMPI PUSH2 0x128E DUP4 PUSH2 0x169D JUMP JUMPDEST SWAP1 POP PUSH2 0x129A JUMP JUMPDEST PUSH1 0x1 SWAP1 POP JUMPDEST PUSH1 0x40 MLOAD DUP1 PUSH1 0xA0 ADD PUSH1 0x40 MSTORE DUP1 DUP6 PUSH4 0xFFFFFFFF AND DUP2 MSTORE PUSH1 0x20 ADD DUP5 PUSH1 0xFF AND DUP2 MSTORE PUSH1 0x20 ADD DUP3 PUSH4 0xFFFFFFFF AND DUP2 MSTORE PUSH1 0x20 ADD DUP6 PUSH4 0xFFFFFFFF AND DUP2 MSTORE PUSH1 0x20 ADD PUSH1 0x0 PUSH4 0xFFFFFFFF AND DUP2 MSTORE POP SWAP2 POP POP SWAP3 SWAP2 POP POP JUMP JUMPDEST PUSH1 0x0 DUP3 PUSH1 0x20 ADD MLOAD PUSH1 0xFF AND DUP4 PUSH1 0x0 ADD MLOAD PUSH1 0xFF AND LT ISZERO PUSH2 0x1335 JUMPI DUP3 PUSH1 0x0 ADD MLOAD PUSH1 0xFF AND DUP3 PUSH1 0xFF AND LT ISZERO DUP1 ISZERO PUSH2 0x1322 JUMPI POP DUP3 PUSH1 0x20 ADD MLOAD PUSH1 0xFF AND DUP3 PUSH1 0xFF AND GT ISZERO JUMPDEST ISZERO PUSH2 0x1330 JUMPI PUSH1 0x1 SWAP1 POP PUSH2 0x136C JUMP JUMPDEST PUSH2 0x1367 JUMP JUMPDEST DUP3 PUSH1 0x0 ADD MLOAD PUSH1 0xFF AND DUP3 PUSH1 0xFF AND LT ISZERO DUP1 PUSH2 0x1358 JUMPI POP DUP3 PUSH1 0x20 ADD MLOAD PUSH1 0xFF AND DUP3 PUSH1 0xFF AND GT ISZERO JUMPDEST ISZERO PUSH2 0x1366 JUMPI PUSH1 0x1 SWAP1 POP PUSH2 0x136C JUMP JUMPDEST JUMPDEST PUSH1 0x0 SWAP1 POP JUMPDEST SWAP3 SWAP2 POP POP JUMP JUMPDEST PUSH1 0x0 DUP3 PUSH1 0x2 ADD PUSH1 0x0 SWAP1 SLOAD SWAP1 PUSH2 0x100 EXP SWAP1 DIV PUSH4 0xFFFFFFFF AND PUSH4 0xFFFFFFFF AND EQ DUP1 PUSH2 0x13BB JUMPI POP DUP2 PUSH1 0x2 ADD PUSH1 0x0 SWAP1 SLOAD SWAP1 PUSH2 0x100 EXP SWAP1 DIV PUSH4 0xFFFFFFFF AND PUSH4 0xFFFFFFFF AND DUP2 PUSH4 0xFFFFFFFF AND LT ISZERO JUMPDEST ISZERO PUSH2 0x1403 JUMPI DUP2 PUSH1 0x0 ADD PUSH1 0x2 SWAP1 SLOAD SWAP1 PUSH2 0x100 EXP SWAP1 DIV PUSH4 0xFFFFFFFF AND DUP2 PUSH2 0x13E0 SWAP2 SWAP1 PUSH2 0x2809 JUMP JUMPDEST DUP3 PUSH1 0x2 ADD PUSH1 0x0 PUSH2 0x100 EXP DUP2 SLOAD DUP2 PUSH4 0xFFFFFFFF MUL NOT AND SWAP1 DUP4 PUSH4 0xFFFFFFFF AND MUL OR SWAP1 SSTORE POP JUMPDEST POP POP JUMP JUMPDEST PUSH1 0x0 DUP1 DUP4 PUSH1 0x80 ADD MLOAD PUSH4 0xFFFFFFFF AND EQ DUP1 PUSH2 0x1431 JUMPI POP DUP3 PUSH1 0x80 ADD MLOAD PUSH4 0xFFFFFFFF AND DUP3 PUSH4 0xFFFFFFFF AND LT ISZERO JUMPDEST ISZERO PUSH2 0x1442 JUMPI PUSH1 0x0 PUSH1 0xFF AND SWAP1 POP PUSH2 0x144A JUMP JUMPDEST PUSH1 0x1 PUSH1 0xFF AND SWAP1 POP JUMPDEST SWAP3 SWAP2 POP POP JUMP JUMPDEST PUSH1 0x0 DUP2 PUSH1 0x40 MLOAD PUSH1 0x20 ADD PUSH2 0x1463 SWAP2 SWAP1 PUSH2 0x250F JUMP JUMPDEST PUSH1 0x40 MLOAD PUSH1 0x20 DUP2 DUP4 SUB SUB DUP2 MSTORE SWAP1 PUSH1 0x40 MSTORE DUP1 MLOAD SWAP1 PUSH1 0x20 ADD KECCAK256 DUP4 PUSH1 0x40 MLOAD PUSH1 0x20 ADD PUSH2 0x148A SWAP2 SWAP1 PUSH2 0x250F JUMP JUMPDEST PUSH1 0x40 MLOAD PUSH1 0x20 DUP2 DUP4 SUB SUB DUP2 MSTORE SWAP1 PUSH1 0x40 MSTORE DUP1 MLOAD SWAP1 PUSH1 0x20 ADD KECCAK256 SUB PUSH2 0x14AE JUMPI PUSH1 0x1 SWAP1 POP PUSH2 0x14B3 JUMP JUMPDEST PUSH1 0x0 SWAP1 POP JUMPDEST SWAP3 SWAP2 POP POP JUMP JUMPDEST PUSH1 0x0 PUSH2 0x14EB DUP4 PUSH1 0x0 ADD PUSH1 0x4 SWAP1 SLOAD SWAP1 PUSH2 0x100 EXP SWAP1 DIV PUSH1 0xFF AND DUP5 PUSH1 0x0 ADD PUSH1 0xD SWAP1 SLOAD SWAP1 PUSH2 0x100 EXP SWAP1 DIV PUSH4 0xFFFFFFFF AND DUP5 PUSH2 0x1754 JUMP JUMPDEST ISZERO PUSH2 0x14FB JUMPI PUSH2 0x14FA DUP4 DUP4 PUSH2 0x1819 JUMP JUMPDEST JUMPDEST PUSH1 0x0 DUP4 PUSH1 0x0 ADD PUSH1 0x9 SWAP1 SLOAD SWAP1 PUSH2 0x100 EXP SWAP1 DIV PUSH4 0xFFFFFFFF AND PUSH4 0xFFFFFFFF AND GT ISZERO PUSH2 0x1527 JUMPI PUSH1 0x1 SWAP1 POP PUSH2 0x152C JUMP JUMPDEST PUSH1 0x0 SWAP1 POP JUMPDEST SWAP3 SWAP2 POP POP JUMP JUMPDEST PUSH1 0x1 DUP2 PUSH1 0x0 ADD PUSH1 0x9 DUP3 DUP3 DUP3 SWAP1 SLOAD SWAP1 PUSH2 0x100 EXP SWAP1 DIV PUSH4 0xFFFFFFFF AND PUSH2 0x1556 SWAP2 SWAP1 PUSH2 0x2843 JUMP JUMPDEST SWAP3 POP PUSH2 0x100 EXP DUP2 SLOAD DUP2 PUSH4 0xFFFFFFFF MUL NOT AND SWAP1 DUP4 PUSH4 0xFFFFFFFF AND MUL OR SWAP1 SSTORE POP POP JUMP JUMPDEST PUSH1 0x0 DUP2 PUSH1 0x5 PUSH1 0x0 DUP6 PUSH20 0xFFFFFFFFFFFFFFFFFFFFFFFFFFFFFFFFFFFFFFFF AND PUSH20 0xFFFFFFFFFFFFFFFFFFFFFFFFFFFFFFFFFFFFFFFF AND DUP2 MSTORE PUSH1 0x20 ADD SWAP1 DUP2 MSTORE PUSH1 0x20 ADD PUSH1 0x0 KECCAK256 PUSH1 0x0 DUP3 ADD DUP2 PUSH1 0x0 ADD SWAP1 DUP1 SLOAD PUSH2 0x15CD SWAP1 PUSH2 0x23F7 JUMP JUMPDEST PUSH2 0x15D8 SWAP3 SWAP2 SWAP1 PUSH2 0x1BDC JUMP JUMPDEST POP PUSH1 0x1 DUP3 ADD PUSH1 0x0 SWAP1 SLOAD SWAP1 PUSH2 0x100 EXP SWAP1 DIV PUSH20 0xFFFFFFFFFFFFFFFFFFFFFFFFFFFFFFFFFFFFFFFF AND DUP2 PUSH1 0x1 ADD PUSH1 0x0 PUSH2 0x100 EXP DUP2 SLOAD DUP2 PUSH20 0xFFFFFFFFFFFFFFFFFFFFFFFFFFFFFFFFFFFFFFFF MUL NOT AND SWAP1 DUP4 PUSH20 0xFFFFFFFFFFFFFFFFFFFFFFFFFFFFFFFFFFFFFFFF AND MUL OR SWAP1 SSTORE POP PUSH1 0x1 DUP3 ADD PUSH1 0x14 SWAP1 SLOAD SWAP1 PUSH2 0x100 EXP SWAP1 DIV PUSH1 0xFF AND DUP2 PUSH1 0x1 ADD PUSH1 0x14 PUSH2 0x100 EXP DUP2 SLOAD DUP2 PUSH1 0xFF MUL NOT AND SWAP1 DUP4 ISZERO ISZERO MUL OR SWAP1 SSTORE POP SWAP1 POP POP PUSH1 0x1 SWAP1 POP SWAP3 SWAP2 POP POP JUMP JUMPDEST PUSH1 0x0 DUP1 PUSH2 0x1686 DUP4 PUSH2 0x169D JUMP JUMPDEST SWAP1 POP DUP1 DUP5 PUSH2 0x1694 SWAP2 SWAP1 PUSH2 0x2877 JUMP JUMPDEST SWAP2 POP POP SWAP3 SWAP2 POP POP JUMP JUMPDEST PUSH1 0x0 PUSH1 0x4 PUSH1 0xFF AND DUP3 PUSH1 0xFF AND GT ISZERO PUSH2 0x16E9 JUMPI PUSH1 0x40 MLOAD PUSH32 0x8C379A000000000000000000000000000000000000000000000000000000000 DUP2 MSTORE PUSH1 0x4 ADD PUSH2 0x16E0 SWAP1 PUSH2 0x2927 JUMP JUMPDEST PUSH1 0x40 MLOAD DUP1 SWAP2 SUB SWAP1 REVERT JUMPDEST PUSH1 0x0 PUSH1 0xFF AND DUP3 PUSH1 0xFF AND SUB PUSH2 0x1700 JUMPI PUSH1 0x1 SWAP1 POP PUSH2 0x174F JUMP JUMPDEST PUSH1 0x1 PUSH1 0xFF AND DUP3 PUSH1 0xFF AND SUB PUSH2 0x1717 JUMPI PUSH1 0x3C SWAP1 POP PUSH2 0x174F JUMP JUMPDEST PUSH1 0x2 PUSH1 0xFF AND DUP3 PUSH1 0xFF AND SUB PUSH2 0x172F JUMPI PUSH2 0xE10 SWAP1 POP PUSH2 0x174F JUMP JUMPDEST PUSH1 0x3 PUSH1 0xFF AND DUP3 PUSH1 0xFF AND SUB PUSH2 0x1748 JUMPI PUSH3 0x15180 SWAP1 POP PUSH2 0x174F JUMP JUMPDEST PUSH3 0x93A80 SWAP1 POP JUMPDEST SWAP2 SWAP1 POP JUMP JUMPDEST PUSH1 0x0 DUP1 DUP5 SWAP1 POP PUSH1 0x4 PUSH1 0xFF AND DUP2 PUSH1 0xFF AND GT PUSH2 0x1780 JUMPI DUP4 PUSH4 0xFFFFFFFF AND DUP4 PUSH4 0xFFFFFFFF AND LT ISZERO SWAP2 POP POP PUSH2 0x1812 JUMP JUMPDEST PUSH1 0x5 PUSH1 0xFF AND DUP2 PUSH1 0xFF AND SUB PUSH2 0x17E8 JUMPI PUSH1 0x0 PUSH2 0x179F DUP5 PUSH4 0xFFFFFFFF AND PUSH2 0x18A6 JUMP JUMPDEST POP SWAP2 POP POP PUSH1 0xD DUP6 PUSH4 0xFFFFFFFF AND EQ DUP1 ISZERO PUSH2 0x17BF JUMPI POP PUSH1 0x1 DUP2 PUSH4 0xFFFFFFFF AND EQ JUMPDEST ISZERO PUSH2 0x17CF JUMPI PUSH1 0x1 SWAP3 POP POP POP PUSH2 0x1812 JUMP JUMPDEST DUP5 PUSH4 0xFFFFFFFF AND DUP2 PUSH4 0xFFFFFFFF AND LT ISZERO SWAP3 POP POP POP PUSH2 0x1812 JUMP JUMPDEST PUSH1 0x0 PUSH2 0x17F9 DUP5 PUSH4 0xFFFFFFFF AND PUSH2 0x18A6 JUMP JUMPDEST POP POP SWAP1 POP DUP5 PUSH4 0xFFFFFFFF AND DUP2 PUSH4 0xFFFFFFFF AND LT ISZERO SWAP3 POP POP POP JUMPDEST SWAP4 SWAP3 POP POP POP JUMP JUMPDEST DUP2 PUSH1 0x0 ADD PUSH1 0x0 SWAP1 SLOAD SWAP1 PUSH2 0x100 EXP SWAP1 DIV PUSH4 0xFFFFFFFF AND DUP3 PUSH1 0x0 ADD PUSH1 0x9 PUSH2 0x100 EXP DUP2 SLOAD DUP2 PUSH4 0xFFFFFFFF MUL NOT AND SWAP1 DUP4 PUSH4 0xFFFFFFFF AND MUL OR SWAP1 SSTORE POP PUSH2 0x1880 DUP3 PUSH1 0x0 ADD PUSH1 0x5 SWAP1 SLOAD SWAP1 PUSH2 0x100 EXP SWAP1 DIV PUSH4 0xFFFFFFFF AND DUP4 PUSH1 0x0 ADD PUSH1 0x4 SWAP1 SLOAD SWAP1 PUSH2 0x100 EXP SWAP1 DIV PUSH1 0xFF AND DUP4 PUSH2 0x1A59 JUMP JUMPDEST DUP3 PUSH1 0x0 ADD PUSH1 0xD PUSH2 0x100 EXP DUP2 SLOAD DUP2 PUSH4 0xFFFFFFFF MUL NOT AND SWAP1 DUP4 PUSH4 0xFFFFFFFF AND MUL OR SWAP1 SSTORE POP POP POP JUMP JUMPDEST PUSH1 0x0 DUP1 PUSH1 0x0 DUP1 PUSH3 0x15180 PUSH4 0xFFFFFFFF AND DUP6 PUSH2 0x18C1 SWAP2 SWAP1 PUSH2 0x2980 JUMP JUMPDEST SWAP1 POP PUSH1 0x0 PUSH3 0x253D8C PUSH3 0x10BD9 DUP4 PUSH2 0x18D8 SWAP2 SWAP1 PUSH2 0x2809 JUMP JUMPDEST PUSH2 0x18E2 SWAP2 SWAP1 PUSH2 0x2809 JUMP JUMPDEST SWAP1 POP PUSH1 0x0 PUSH3 0x23AB1 DUP3 PUSH1 0x4 PUSH2 0x18F7 SWAP2 SWAP1 PUSH2 0x2877 JUMP JUMPDEST PUSH2 0x1901 SWAP2 SWAP1 PUSH2 0x29B1 JUMP JUMPDEST SWAP1 POP PUSH1 0x4 PUSH1 0x3 DUP3 PUSH3 0x23AB1 PUSH2 0x1916 SWAP2 SWAP1 PUSH2 0x2877 JUMP JUMPDEST PUSH2 0x1920 SWAP2 SWAP1 PUSH2 0x2809 JUMP JUMPDEST PUSH2 0x192A SWAP2 SWAP1 PUSH2 0x29B1 JUMP JUMPDEST DUP3 PUSH2 0x1935 SWAP2 SWAP1 PUSH2 0x2843 JUMP JUMPDEST SWAP2 POP PUSH1 0x0 PUSH3 0x164B09 PUSH1 0x1 DUP5 PUSH2 0x194A SWAP2 SWAP1 PUSH2 0x2809 JUMP JUMPDEST PUSH2 0xFA0 PUSH2 0x1957 SWAP2 SWAP1 PUSH2 0x2877 JUMP JUMPDEST PUSH2 0x1961 SWAP2 SWAP1 PUSH2 0x29B1 JUMP JUMPDEST SWAP1 POP PUSH1 0x1F PUSH1 0x4 DUP3 PUSH2 0x5B5 PUSH2 0x1975 SWAP2 SWAP1 PUSH2 0x2877 JUMP JUMPDEST PUSH2 0x197F SWAP2 SWAP1 PUSH2 0x29B1 JUMP JUMPDEST DUP5 PUSH2 0x198A SWAP2 SWAP1 PUSH2 0x2843 JUMP JUMPDEST PUSH2 0x1994 SWAP2 SWAP1 PUSH2 0x2809 JUMP JUMPDEST SWAP3 POP PUSH1 0x0 PUSH2 0x98F DUP5 PUSH1 0x50 PUSH2 0x19A8 SWAP2 SWAP1 PUSH2 0x2877 JUMP JUMPDEST PUSH2 0x19B2 SWAP2 SWAP1 PUSH2 0x29B1 JUMP JUMPDEST SWAP1 POP PUSH1 0x0 PUSH1 0x50 DUP3 PUSH2 0x98F PUSH2 0x19C6 SWAP2 SWAP1 PUSH2 0x2877 JUMP JUMPDEST PUSH2 0x19D0 SWAP2 SWAP1 PUSH2 0x29B1 JUMP JUMPDEST DUP6 PUSH2 0x19DB SWAP2 SWAP1 PUSH2 0x2843 JUMP JUMPDEST SWAP1 POP PUSH1 0xB DUP3 PUSH2 0x19EA SWAP2 SWAP1 PUSH2 0x29B1 JUMP JUMPDEST SWAP5 POP DUP5 PUSH1 0xC PUSH2 0x19F9 SWAP2 SWAP1 PUSH2 0x2877 JUMP JUMPDEST PUSH1 0x2 DUP4 PUSH2 0x1A06 SWAP2 SWAP1 PUSH2 0x2809 JUMP JUMPDEST PUSH2 0x1A10 SWAP2 SWAP1 PUSH2 0x2843 JUMP JUMPDEST SWAP2 POP DUP5 DUP4 PUSH1 0x31 DUP7 PUSH2 0x1A21 SWAP2 SWAP1 PUSH2 0x2843 JUMP JUMPDEST PUSH1 0x64 PUSH2 0x1A2D SWAP2 SWAP1 PUSH2 0x2877 JUMP JUMPDEST PUSH2 0x1A37 SWAP2 SWAP1 PUSH2 0x2809 JUMP JUMPDEST PUSH2 0x1A41 SWAP2 SWAP1 PUSH2 0x2809 JUMP JUMPDEST SWAP3 POP DUP3 SWAP9 POP DUP2 SWAP8 POP DUP1 SWAP7 POP POP POP POP POP POP POP SWAP2 SWAP4 SWAP1 SWAP3 POP JUMP JUMPDEST PUSH1 0x0 PUSH1 0x4 PUSH1 0xFF AND DUP4 PUSH1 0xFF AND GT PUSH2 0x1A7B JUMPI PUSH2 0x1A74 DUP4 DUP4 DUP7 PUSH2 0x1AEC JUMP JUMPDEST SWAP1 POP PUSH2 0x1AE5 JUMP JUMPDEST PUSH1 0x5 PUSH1 0xFF AND DUP4 PUSH1 0xFF AND SUB PUSH2 0x1AB9 JUMPI PUSH1 0x0 PUSH2 0x1A9A DUP4 PUSH4 0xFFFFFFFF AND PUSH2 0x18A6 JUMP JUMPDEST POP PUSH4 0xFFFFFFFF AND SWAP2 POP POP PUSH1 0x1 DUP2 PUSH2 0x1AB1 SWAP2 SWAP1 PUSH2 0x29E2 JUMP JUMPDEST SWAP2 POP POP PUSH2 0x1AE5 JUMP JUMPDEST PUSH1 0x0 PUSH2 0x1ACA DUP4 PUSH4 0xFFFFFFFF AND PUSH2 0x18A6 JUMP JUMPDEST POP POP PUSH4 0xFFFFFFFF AND SWAP1 POP PUSH1 0x1 DUP2 PUSH2 0x1AE1 SWAP2 SWAP1 PUSH2 0x29E2 JUMP JUMPDEST SWAP2 POP POP JUMPDEST SWAP4 SWAP3 POP POP POP JUMP JUMPDEST PUSH1 0x0 DUP1 DUP3 DUP5 PUSH2 0x1AFB SWAP2 SWAP1 PUSH2 0x2A38 JUMP JUMPDEST SWAP1 POP PUSH1 0x0 DUP2 DUP5 PUSH2 0x1B0B SWAP2 SWAP1 PUSH2 0x2843 JUMP JUMPDEST SWAP1 POP PUSH1 0x4 PUSH1 0xFF AND DUP7 PUSH1 0xFF AND SUB PUSH2 0x1B3E JUMPI PUSH3 0x3F480 DUP2 DUP7 PUSH2 0x1B2B SWAP2 SWAP1 PUSH2 0x2809 JUMP JUMPDEST PUSH2 0x1B35 SWAP2 SWAP1 PUSH2 0x2809 JUMP JUMPDEST SWAP3 POP POP POP PUSH2 0x1B4F JUMP JUMPDEST DUP1 DUP6 PUSH2 0x1B4A SWAP2 SWAP1 PUSH2 0x2809 JUMP JUMPDEST SWAP3 POP POP POP JUMPDEST SWAP4 SWAP3 POP POP POP JUMP JUMPDEST DUP3 DUP1 SLOAD PUSH2 0x1B62 SWAP1 PUSH2 0x23F7 JUMP JUMPDEST SWAP1 PUSH1 0x0 MSTORE PUSH1 0x20 PUSH1 0x0 KECCAK256 SWAP1 PUSH1 0x1F ADD PUSH1 0x20 SWAP1 DIV DUP2 ADD SWAP3 DUP3 PUSH2 0x1B84 JUMPI PUSH1 0x0 DUP6 SSTORE PUSH2 0x1BCB JUMP JUMPDEST DUP3 PUSH1 0x1F LT PUSH2 0x1B9D JUMPI DUP1 MLOAD PUSH1 0xFF NOT AND DUP4 DUP1 ADD OR DUP6 SSTORE PUSH2 0x1BCB JUMP JUMPDEST DUP3 DUP1 ADD PUSH1 0x1 ADD DUP6 SSTORE DUP3 ISZERO PUSH2 0x1BCB JUMPI SWAP2 DUP3 ADD JUMPDEST DUP3 DUP2 GT ISZERO PUSH2 0x1BCA JUMPI DUP3 MLOAD DUP3 SSTORE SWAP2 PUSH1 0x20 ADD SWAP2 SWAP1 PUSH1 0x1 ADD SWAP1 PUSH2 0x1BAF JUMP JUMPDEST JUMPDEST POP SWAP1 POP PUSH2 0x1BD8 SWAP2 SWAP1 PUSH2 0x1DA0 JUMP JUMPDEST POP SWAP1 JUMP JUMPDEST DUP3 DUP1 SLOAD PUSH2 0x1BE8 SWAP1 PUSH2 0x23F7 JUMP JUMPDEST SWAP1 PUSH1 0x0 MSTORE PUSH1 0x20 PUSH1 0x0 KECCAK256 SWAP1 PUSH1 0x1F ADD PUSH1 0x20 SWAP1 DIV DUP2 ADD SWAP3 DUP3 PUSH2 0x1C0A JUMPI PUSH1 0x0 DUP6 SSTORE PUSH2 0x1C58 JUMP JUMPDEST DUP3 PUSH1 0x1F LT PUSH2 0x1C1B JUMPI DUP1 SLOAD DUP6 SSTORE PUSH2 0x1C58 JUMP JUMPDEST DUP3 DUP1 ADD PUSH1 0x1 ADD DUP6 SSTORE DUP3 ISZERO PUSH2 0x1C58 JUMPI PUSH1 0x0 MSTORE PUSH1 0x20 PUSH1 0x0 KECCAK256 SWAP2 PUSH1 0x1F ADD PUSH1 0x20 SWAP1 DIV DUP3 ADD JUMPDEST DUP3 DUP2 GT ISZERO PUSH2 0x1C57 JUMPI DUP3 SLOAD DUP3 SSTORE SWAP2 PUSH1 0x1 ADD SWAP2 SWAP1 PUSH1 0x1 ADD SWAP1 PUSH2 0x1C3C JUMP JUMPDEST JUMPDEST POP SWAP1 POP PUSH2 0x1C65 SWAP2 SWAP1 PUSH2 0x1DA0 JUMP JUMPDEST POP SWAP1 JUMP JUMPDEST POP DUP1 SLOAD PUSH2 0x1C75 SWAP1 PUSH2 0x23F7 JUMP JUMPDEST PUSH1 0x0 DUP3 SSTORE DUP1 PUSH1 0x1F LT PUSH2 0x1C87 JUMPI POP PUSH2 0x1CA6 JUMP JUMPDEST PUSH1 0x1F ADD PUSH1 0x20 SWAP1 DIV SWAP1 PUSH1 0x0 MSTORE PUSH1 0x20 PUSH1 0x0 KECCAK256 SWAP1 DUP2 ADD SWAP1 PUSH2 0x1CA5 SWAP2 SWAP1 PUSH2 0x1DA0 JUMP JUMPDEST JUMPDEST POP JUMP JUMPDEST PUSH1 0x40 MLOAD DUP1 PUSH1 0x60 ADD PUSH1 0x40 MSTORE DUP1 PUSH1 0x60 DUP2 MSTORE PUSH1 0x20 ADD PUSH1 0x0 PUSH20 0xFFFFFFFFFFFFFFFFFFFFFFFFFFFFFFFFFFFFFFFF AND DUP2 MSTORE PUSH1 0x20 ADD PUSH1 0x0 ISZERO ISZERO DUP2 MSTORE POP SWAP1 JUMP JUMPDEST PUSH1 0x40 MLOAD DUP1 PUSH1 0x40 ADD PUSH1 0x40 MSTORE DUP1 PUSH1 0x0 PUSH1 0xFF AND DUP2 MSTORE PUSH1 0x20 ADD PUSH1 0x0 PUSH1 0xFF AND DUP2 MSTORE POP SWAP1 JUMP JUMPDEST PUSH1 0x40 MLOAD DUP1 PUSH1 0xA0 ADD PUSH1 0x40 MSTORE DUP1 PUSH1 0x0 PUSH1 0xFF AND DUP2 MSTORE PUSH1 0x20 ADD PUSH1 0x0 PUSH1 0xFF AND DUP2 MSTORE PUSH1 0x20 ADD PUSH1 0x0 PUSH4 0xFFFFFFFF AND DUP2 MSTORE PUSH1 0x20 ADD PUSH1 0x60 DUP2 MSTORE PUSH1 0x20 ADD PUSH1 0x0 PUSH4 0xFFFFFFFF AND DUP2 MSTORE POP SWAP1 JUMP JUMPDEST PUSH1 0x40 MLOAD DUP1 PUSH1 0x20 ADD PUSH1 0x40 MSTORE DUP1 PUSH1 0x60 DUP2 MSTORE POP SWAP1 JUMP JUMPDEST PUSH1 0x40 MLOAD DUP1 PUSH1 0xA0 ADD PUSH1 0x40 MSTORE DUP1 PUSH1 0x0 PUSH4 0xFFFFFFFF AND DUP2 MSTORE PUSH1 0x20 ADD PUSH1 0x0 PUSH1 0xFF AND DUP2 MSTORE PUSH1 0x20 ADD PUSH1 0x0 PUSH4 0xFFFFFFFF AND DUP2 MSTORE PUSH1 0x20 ADD PUSH1 0x0 PUSH4 0xFFFFFFFF AND DUP2 MSTORE PUSH1 0x20 ADD PUSH1 0x0 PUSH4 0xFFFFFFFF AND DUP2 MSTORE POP SWAP1 JUMP JUMPDEST JUMPDEST DUP1 DUP3 GT ISZERO PUSH2 0x1DB9 JUMPI PUSH1 0x0 DUP2 PUSH1 0x0 SWAP1 SSTORE POP PUSH1 0x1 ADD PUSH2 0x1DA1 JUMP JUMPDEST POP SWAP1 JUMP JUMPDEST PUSH1 0x0 PUSH1 0x40 MLOAD SWAP1 POP SWAP1 JUMP JUMPDEST PUSH1 0x0 DUP1 REVERT JUMPDEST PUSH1 0x0 DUP1 REVERT JUMPDEST PUSH1 0x0 PUSH1 0xFF DUP3 AND SWAP1 POP SWAP2 SWAP1 POP JUMP JUMPDEST PUSH2 0x1DE7 DUP2 PUSH2 0x1DD1 JUMP JUMPDEST DUP2 EQ PUSH2 0x1DF2 JUMPI PUSH1 0x0 DUP1 REVERT JUMPDEST POP JUMP JUMPDEST PUSH1 0x0 DUP2 CALLDATALOAD SWAP1 POP PUSH2 0x1E04 DUP2 PUSH2 0x1DDE JUMP JUMPDEST SWAP3 SWAP2 POP POP JUMP JUMPDEST PUSH1 0x0 DUP1 REVERT JUMPDEST PUSH1 0x0 DUP1 REVERT JUMPDEST PUSH1 0x0 PUSH1 0x1F NOT PUSH1 0x1F DUP4 ADD AND SWAP1 POP SWAP2 SWAP1 POP JUMP JUMPDEST PUSH32 0x4E487B7100000000000000000000000000000000000000000000000000000000 PUSH1 0x0 MSTORE PUSH1 0x41 PUSH1 0x4 MSTORE PUSH1 0x24 PUSH1 0x0 REVERT JUMPDEST PUSH2 0x1E5D DUP3 PUSH2 0x1E14 JUMP JUMPDEST DUP2 ADD DUP2 DUP2 LT PUSH8 0xFFFFFFFFFFFFFFFF DUP3 GT OR ISZERO PUSH2 0x1E7C JUMPI PUSH2 0x1E7B PUSH2 0x1E25 JUMP JUMPDEST JUMPDEST DUP1 PUSH1 0x40 MSTORE POP POP POP JUMP JUMPDEST PUSH1 0x0 PUSH2 0x1E8F PUSH2 0x1DBD JUMP JUMPDEST SWAP1 POP PUSH2 0x1E9B DUP3 DUP3 PUSH2 0x1E54 JUMP JUMPDEST SWAP2 SWAP1 POP JUMP JUMPDEST PUSH1 0x0 PUSH8 0xFFFFFFFFFFFFFFFF DUP3 GT ISZERO PUSH2 0x1EBB JUMPI PUSH2 0x1EBA PUSH2 0x1E25 JUMP JUMPDEST JUMPDEST PUSH2 0x1EC4 DUP3 PUSH2 0x1E14 JUMP JUMPDEST SWAP1 POP PUSH1 0x20 DUP2 ADD SWAP1 POP SWAP2 SWAP1 POP JUMP JUMPDEST DUP3 DUP2 DUP4 CALLDATACOPY PUSH1 0x0 DUP4 DUP4 ADD MSTORE POP POP POP JUMP JUMPDEST PUSH1 0x0 PUSH2 0x1EF3 PUSH2 0x1EEE DUP5 PUSH2 0x1EA0 JUMP JUMPDEST PUSH2 0x1E85 JUMP JUMPDEST SWAP1 POP DUP3 DUP2 MSTORE PUSH1 0x20 DUP2 ADD DUP5 DUP5 DUP5 ADD GT ISZERO PUSH2 0x1F0F JUMPI PUSH2 0x1F0E PUSH2 0x1E0F JUMP JUMPDEST JUMPDEST PUSH2 0x1F1A DUP5 DUP3 DUP6 PUSH2 0x1ED1 JUMP JUMPDEST POP SWAP4 SWAP3 POP POP POP JUMP JUMPDEST PUSH1 0x0 DUP3 PUSH1 0x1F DUP4 ADD SLT PUSH2 0x1F37 JUMPI PUSH2 0x1F36 PUSH2 0x1E0A JUMP JUMPDEST JUMPDEST DUP2 CALLDATALOAD PUSH2 0x1F47 DUP5 DUP3 PUSH1 0x20 DUP7 ADD PUSH2 0x1EE0 JUMP JUMPDEST SWAP2 POP POP SWAP3 SWAP2 POP POP JUMP JUMPDEST PUSH1 0x0 PUSH4 0xFFFFFFFF DUP3 AND SWAP1 POP SWAP2 SWAP1 POP JUMP JUMPDEST PUSH2 0x1F69 DUP2 PUSH2 0x1F50 JUMP JUMPDEST DUP2 EQ PUSH2 0x1F74 JUMPI PUSH1 0x0 DUP1 REVERT JUMPDEST POP JUMP JUMPDEST PUSH1 0x0 DUP2 CALLDATALOAD SWAP1 POP PUSH2 0x1F86 DUP2 PUSH2 0x1F60 JUMP JUMPDEST SWAP3 SWAP2 POP POP JUMP JUMPDEST PUSH1 0x0 DUP1 PUSH1 0x0 DUP1 PUSH1 0x80 DUP6 DUP8 SUB SLT ISZERO PUSH2 0x1FA6 JUMPI PUSH2 0x1FA5 PUSH2 0x1DC7 JUMP JUMPDEST JUMPDEST PUSH1 0x0 PUSH2 0x1FB4 DUP8 DUP3 DUP9 ADD PUSH2 0x1DF5 JUMP JUMPDEST SWAP5 POP POP PUSH1 0x20 DUP6 ADD CALLDATALOAD PUSH8 0xFFFFFFFFFFFFFFFF DUP2 GT ISZERO PUSH2 0x1FD5 JUMPI PUSH2 0x1FD4 PUSH2 0x1DCC JUMP JUMPDEST JUMPDEST PUSH2 0x1FE1 DUP8 DUP3 DUP9 ADD PUSH2 0x1F22 JUMP JUMPDEST SWAP4 POP POP PUSH1 0x40 PUSH2 0x1FF2 DUP8 DUP3 DUP9 ADD PUSH2 0x1F77 JUMP JUMPDEST SWAP3 POP POP PUSH1 0x60 DUP6 ADD CALLDATALOAD PUSH8 0xFFFFFFFFFFFFFFFF DUP2 GT ISZERO PUSH2 0x2013 JUMPI PUSH2 0x2012 PUSH2 0x1DCC JUMP JUMPDEST JUMPDEST PUSH2 0x201F DUP8 DUP3 DUP9 ADD PUSH2 0x1F22 JUMP JUMPDEST SWAP2 POP POP SWAP3 SWAP6 SWAP2 SWAP5 POP SWAP3 POP JUMP JUMPDEST PUSH1 0x0 DUP2 ISZERO ISZERO SWAP1 POP SWAP2 SWAP1 POP JUMP JUMPDEST PUSH2 0x2040 DUP2 PUSH2 0x202B JUMP JUMPDEST DUP3 MSTORE POP POP JUMP JUMPDEST PUSH1 0x0 PUSH1 0x20 DUP3 ADD SWAP1 POP PUSH2 0x205B PUSH1 0x0 DUP4 ADD DUP5 PUSH2 0x2037 JUMP JUMPDEST SWAP3 SWAP2 POP POP JUMP JUMPDEST PUSH1 0x0 PUSH20 0xFFFFFFFFFFFFFFFFFFFFFFFFFFFFFFFFFFFFFFFF DUP3 AND SWAP1 POP SWAP2 SWAP1 POP JUMP JUMPDEST PUSH1 0x0 PUSH2 0x208C DUP3 PUSH2 0x2061 JUMP JUMPDEST SWAP1 POP SWAP2 SWAP1 POP JUMP JUMPDEST PUSH2 0x209C DUP2 PUSH2 0x2081 JUMP JUMPDEST DUP2 EQ PUSH2 0x20A7 JUMPI PUSH1 0x0 DUP1 REVERT JUMPDEST POP JUMP JUMPDEST PUSH1 0x0 DUP2 CALLDATALOAD SWAP1 POP PUSH2 0x20B9 DUP2 PUSH2 0x2093 JUMP JUMPDEST SWAP3 SWAP2 POP POP JUMP JUMPDEST PUSH1 0x0 DUP1 PUSH1 0x40 DUP4 DUP6 SUB SLT ISZERO PUSH2 0x20D6 JUMPI PUSH2 0x20D5 PUSH2 0x1DC7 JUMP JUMPDEST JUMPDEST PUSH1 0x0 DUP4 ADD CALLDATALOAD PUSH8 0xFFFFFFFFFFFFFFFF DUP2 GT ISZERO PUSH2 0x20F4 JUMPI PUSH2 0x20F3 PUSH2 0x1DCC JUMP JUMPDEST JUMPDEST PUSH2 0x2100 DUP6 DUP3 DUP7 ADD PUSH2 0x1F22 JUMP JUMPDEST SWAP3 POP POP PUSH1 0x20 PUSH2 0x2111 DUP6 DUP3 DUP7 ADD PUSH2 0x20AA JUMP JUMPDEST SWAP2 POP POP SWAP3 POP SWAP3 SWAP1 POP JUMP JUMPDEST PUSH2 0x2124 DUP2 PUSH2 0x2081 JUMP JUMPDEST DUP3 MSTORE POP POP JUMP JUMPDEST PUSH1 0x0 PUSH1 0x20 DUP3 ADD SWAP1 POP PUSH2 0x213F PUSH1 0x0 DUP4 ADD DUP5 PUSH2 0x211B JUMP JUMPDEST SWAP3 SWAP2 POP POP JUMP JUMPDEST PUSH1 0x0 PUSH1 0x20 DUP3 DUP5 SUB SLT ISZERO PUSH2 0x215B JUMPI PUSH2 0x215A PUSH2 0x1DC7 JUMP JUMPDEST JUMPDEST PUSH1 0x0 PUSH2 0x2169 DUP5 DUP3 DUP6 ADD PUSH2 0x20AA JUMP JUMPDEST SWAP2 POP POP SWAP3 SWAP2 POP POP JUMP JUMPDEST PUSH1 0x0 DUP2 MLOAD SWAP1 POP SWAP2 SWAP1 POP JUMP JUMPDEST PUSH1 0x0 DUP3 DUP3 MSTORE PUSH1 0x20 DUP3 ADD SWAP1 POP SWAP3 SWAP2 POP POP JUMP JUMPDEST PUSH1 0x0 JUMPDEST DUP4 DUP2 LT ISZERO PUSH2 0x21AC JUMPI DUP1 DUP3 ADD MLOAD DUP2 DUP5 ADD MSTORE PUSH1 0x20 DUP2 ADD SWAP1 POP PUSH2 0x2191 JUMP JUMPDEST DUP4 DUP2 GT ISZERO PUSH2 0x21BB JUMPI PUSH1 0x0 DUP5 DUP5 ADD MSTORE JUMPDEST POP POP POP POP JUMP JUMPDEST PUSH1 0x0 PUSH2 0x21CC DUP3 PUSH2 0x2172 JUMP JUMPDEST PUSH2 0x21D6 DUP2 DUP6 PUSH2 0x217D JUMP JUMPDEST SWAP4 POP PUSH2 0x21E6 DUP2 DUP6 PUSH1 0x20 DUP7 ADD PUSH2 0x218E JUMP JUMPDEST PUSH2 0x21EF DUP2 PUSH2 0x1E14 JUMP JUMPDEST DUP5 ADD SWAP2 POP POP SWAP3 SWAP2 POP POP JUMP JUMPDEST PUSH2 0x2203 DUP2 PUSH2 0x2081 JUMP JUMPDEST DUP3 MSTORE POP POP JUMP JUMPDEST PUSH2 0x2212 DUP2 PUSH2 0x202B JUMP JUMPDEST DUP3 MSTORE POP POP JUMP JUMPDEST PUSH1 0x0 PUSH1 0x60 DUP4 ADD PUSH1 0x0 DUP4 ADD MLOAD DUP5 DUP3 SUB PUSH1 0x0 DUP7 ADD MSTORE PUSH2 0x2235 DUP3 DUP3 PUSH2 0x21C1 JUMP JUMPDEST SWAP2 POP POP PUSH1 0x20 DUP4 ADD MLOAD PUSH2 0x224A PUSH1 0x20 DUP7 ADD DUP3 PUSH2 0x21FA JUMP JUMPDEST POP PUSH1 0x40 DUP4 ADD MLOAD PUSH2 0x225D PUSH1 0x40 DUP7 ADD DUP3 PUSH2 0x2209 JUMP JUMPDEST POP DUP1 SWAP2 POP POP SWAP3 SWAP2 POP POP JUMP JUMPDEST PUSH1 0x0 PUSH1 0x20 DUP3 ADD SWAP1 POP DUP2 DUP2 SUB PUSH1 0x0 DUP4 ADD MSTORE PUSH2 0x2282 DUP2 DUP5 PUSH2 0x2218 JUMP JUMPDEST SWAP1 POP SWAP3 SWAP2 POP POP JUMP JUMPDEST PUSH1 0x0 DUP3 DUP3 MSTORE PUSH1 0x20 DUP3 ADD SWAP1 POP SWAP3 SWAP2 POP POP JUMP JUMPDEST PUSH32 0x5468697320636F6E747261637420697320646561637469766174656400000000 PUSH1 0x0 DUP3 ADD MSTORE POP JUMP JUMPDEST PUSH1 0x0 PUSH2 0x22D1 PUSH1 0x1C DUP4 PUSH2 0x228A JUMP JUMPDEST SWAP2 POP PUSH2 0x22DC DUP3 PUSH2 0x229B JUMP JUMPDEST PUSH1 0x20 DUP3 ADD SWAP1 POP SWAP2 SWAP1 POP JUMP JUMPDEST PUSH1 0x0 PUSH1 0x20 DUP3 ADD SWAP1 POP DUP2 DUP2 SUB PUSH1 0x0 DUP4 ADD MSTORE PUSH2 0x2300 DUP2 PUSH2 0x22C4 JUMP JUMPDEST SWAP1 POP SWAP2 SWAP1 POP JUMP JUMPDEST PUSH32 0x4F6E6C79207468652070726F636573732063616E206578656375746520746869 PUSH1 0x0 DUP3 ADD MSTORE PUSH32 0x73206F7065726174696F6E000000000000000000000000000000000000000000 PUSH1 0x20 DUP3 ADD MSTORE POP JUMP JUMPDEST PUSH1 0x0 PUSH2 0x2363 PUSH1 0x2B DUP4 PUSH2 0x228A JUMP JUMPDEST SWAP2 POP PUSH2 0x236E DUP3 PUSH2 0x2307 JUMP JUMPDEST PUSH1 0x40 DUP3 ADD SWAP1 POP SWAP2 SWAP1 POP JUMP JUMPDEST PUSH1 0x0 PUSH1 0x20 DUP3 ADD SWAP1 POP DUP2 DUP2 SUB PUSH1 0x0 DUP4 ADD MSTORE PUSH2 0x2392 DUP2 PUSH2 0x2356 JUMP JUMPDEST SWAP1 POP SWAP2 SWAP1 POP JUMP JUMPDEST PUSH32 0x4E487B7100000000000000000000000000000000000000000000000000000000 PUSH1 0x0 MSTORE PUSH1 0x32 PUSH1 0x4 MSTORE PUSH1 0x24 PUSH1 0x0 REVERT JUMPDEST PUSH32 0x4E487B7100000000000000000000000000000000000000000000000000000000 PUSH1 0x0 MSTORE PUSH1 0x22 PUSH1 0x4 MSTORE PUSH1 0x24 PUSH1 0x0 REVERT JUMPDEST PUSH1 0x0 PUSH1 0x2 DUP3 DIV SWAP1 POP PUSH1 0x1 DUP3 AND DUP1 PUSH2 0x240F JUMPI PUSH1 0x7F DUP3 AND SWAP2 POP JUMPDEST PUSH1 0x20 DUP3 LT DUP2 SUB PUSH2 0x2422 JUMPI PUSH2 0x2421 PUSH2 0x23C8 JUMP JUMPDEST JUMPDEST POP SWAP2 SWAP1 POP JUMP JUMPDEST PUSH1 0x0 DUP2 SWAP1 POP SWAP3 SWAP2 POP POP JUMP JUMPDEST PUSH1 0x0 DUP2 SWAP1 POP DUP2 PUSH1 0x0 MSTORE PUSH1 0x20 PUSH1 0x0 KECCAK256 SWAP1 POP SWAP2 SWAP1 POP JUMP JUMPDEST PUSH1 0x0 DUP2 SLOAD PUSH2 0x2455 DUP2 PUSH2 0x23F7 JUMP JUMPDEST PUSH2 0x245F DUP2 DUP7 PUSH2 0x2428 JUMP JUMPDEST SWAP5 POP PUSH1 0x1 DUP3 AND PUSH1 0x0 DUP2 EQ PUSH2 0x247A JUMPI PUSH1 0x1 DUP2 EQ PUSH2 0x248B JUMPI PUSH2 0x24BE JUMP JUMPDEST PUSH1 0xFF NOT DUP4 AND DUP7 MSTORE DUP2 DUP7 ADD SWAP4 POP PUSH2 0x24BE JUMP JUMPDEST PUSH2 0x2494 DUP6 PUSH2 0x2433 JUMP JUMPDEST PUSH1 0x0 JUMPDEST DUP4 DUP2 LT ISZERO PUSH2 0x24B6 JUMPI DUP2 SLOAD DUP2 DUP10 ADD MSTORE PUSH1 0x1 DUP3 ADD SWAP2 POP PUSH1 0x20 DUP2 ADD SWAP1 POP PUSH2 0x2497 JUMP JUMPDEST DUP4 DUP9 ADD SWAP6 POP POP POP JUMPDEST POP POP POP SWAP3 SWAP2 POP POP JUMP JUMPDEST PUSH1 0x0 PUSH2 0x24D3 DUP3 DUP5 PUSH2 0x2448 JUMP JUMPDEST SWAP2 POP DUP2 SWAP1 POP SWAP3 SWAP2 POP POP JUMP JUMPDEST PUSH1 0x0 PUSH2 0x24E9 DUP3 PUSH2 0x2172 JUMP JUMPDEST PUSH2 0x24F3 DUP2 DUP6 PUSH2 0x2428 JUMP JUMPDEST SWAP4 POP PUSH2 0x2503 DUP2 DUP6 PUSH1 0x20 DUP7 ADD PUSH2 0x218E JUMP JUMPDEST DUP1 DUP5 ADD SWAP2 POP POP SWAP3 SWAP2 POP POP JUMP JUMPDEST PUSH1 0x0 PUSH2 0x251B DUP3 DUP5 PUSH2 0x24DE JUMP JUMPDEST SWAP2 POP DUP2 SWAP1 POP SWAP3 SWAP2 POP POP JUMP JUMPDEST PUSH32 0x4F6E6C79207468652070726F63657373206F7220746865206170706C69636174 PUSH1 0x0 DUP3 ADD MSTORE PUSH32 0x696F6E2063616E20657865637574652074686973206F7065726174696F6E0000 PUSH1 0x20 DUP3 ADD MSTORE POP JUMP JUMPDEST PUSH1 0x0 PUSH2 0x2582 PUSH1 0x3E DUP4 PUSH2 0x228A JUMP JUMPDEST SWAP2 POP PUSH2 0x258D DUP3 PUSH2 0x2526 JUMP JUMPDEST PUSH1 0x40 DUP3 ADD SWAP1 POP SWAP2 SWAP1 POP JUMP JUMPDEST PUSH1 0x0 PUSH1 0x20 DUP3 ADD SWAP1 POP DUP2 DUP2 SUB PUSH1 0x0 DUP4 ADD MSTORE PUSH2 0x25B1 DUP2 PUSH2 0x2575 JUMP JUMPDEST SWAP1 POP SWAP2 SWAP1 POP JUMP JUMPDEST PUSH32 0x4F6E6C7920746865206170706C69636174696F6E2063616E2065786563757465 PUSH1 0x0 DUP3 ADD MSTORE PUSH32 0x2074686973206F7065726174696F6E0000000000000000000000000000000000 PUSH1 0x20 DUP3 ADD MSTORE POP JUMP JUMPDEST PUSH1 0x0 PUSH2 0x2614 PUSH1 0x2F DUP4 PUSH2 0x228A JUMP JUMPDEST SWAP2 POP PUSH2 0x261F DUP3 PUSH2 0x25B8 JUMP JUMPDEST PUSH1 0x40 DUP3 ADD SWAP1 POP SWAP2 SWAP1 POP JUMP JUMPDEST PUSH1 0x0 PUSH1 0x20 DUP3 ADD SWAP1 POP DUP2 DUP2 SUB PUSH1 0x0 DUP4 ADD MSTORE PUSH2 0x2643 DUP2 PUSH2 0x2607 JUMP JUMPDEST SWAP1 POP SWAP2 SWAP1 POP JUMP JUMPDEST PUSH32 0x54686520636F6E747261637420697320616C7265616479207369676E65640000 PUSH1 0x0 DUP3 ADD MSTORE POP JUMP JUMPDEST PUSH1 0x0 PUSH2 0x2680 PUSH1 0x1E DUP4 PUSH2 0x228A JUMP JUMPDEST SWAP2 POP PUSH2 0x268B DUP3 PUSH2 0x264A JUMP JUMPDEST PUSH1 0x20 DUP3 ADD SWAP1 POP SWAP2 SWAP1 POP JUMP JUMPDEST PUSH1 0x0 PUSH1 0x20 DUP3 ADD SWAP1 POP DUP2 DUP2 SUB PUSH1 0x0 DUP4 ADD MSTORE PUSH2 0x26AF DUP2 PUSH2 0x2673 JUMP JUMPDEST SWAP1 POP SWAP2 SWAP1 POP JUMP JUMPDEST PUSH32 0x546865205F7374617274446179206E6F7420726570726573656E747320612076 PUSH1 0x0 DUP3 ADD MSTORE PUSH32 0x616C696420646179000000000000000000000000000000000000000000000000 PUSH1 0x20 DUP3 ADD MSTORE POP JUMP JUMPDEST PUSH1 0x0 PUSH2 0x2712 PUSH1 0x28 DUP4 PUSH2 0x228A JUMP JUMPDEST SWAP2 POP PUSH2 0x271D DUP3 PUSH2 0x26B6 JUMP JUMPDEST PUSH1 0x40 DUP3 ADD SWAP1 POP SWAP2 SWAP1 POP JUMP JUMPDEST PUSH1 0x0 PUSH1 0x20 DUP3 ADD SWAP1 POP DUP2 DUP2 SUB PUSH1 0x0 DUP4 ADD MSTORE PUSH2 0x2741 DUP2 PUSH2 0x2705 JUMP JUMPDEST SWAP1 POP SWAP2 SWAP1 POP JUMP JUMPDEST PUSH32 0x546865205F656E64446179206E6F7420726570726573656E747320612076616C PUSH1 0x0 DUP3 ADD MSTORE PUSH32 0x6964206461790000000000000000000000000000000000000000000000000000 PUSH1 0x20 DUP3 ADD MSTORE POP JUMP JUMPDEST PUSH1 0x0 PUSH2 0x27A4 PUSH1 0x26 DUP4 PUSH2 0x228A JUMP JUMPDEST SWAP2 POP PUSH2 0x27AF DUP3 PUSH2 0x2748 JUMP JUMPDEST PUSH1 0x40 DUP3 ADD SWAP1 POP SWAP2 SWAP1 POP JUMP JUMPDEST PUSH1 0x0 PUSH1 0x20 DUP3 ADD SWAP1 POP DUP2 DUP2 SUB PUSH1 0x0 DUP4 ADD MSTORE PUSH2 0x27D3 DUP2 PUSH2 0x2797 JUMP JUMPDEST SWAP1 POP SWAP2 SWAP1 POP JUMP JUMPDEST PUSH32 0x4E487B7100000000000000000000000000000000000000000000000000000000 PUSH1 0x0 MSTORE PUSH1 0x11 PUSH1 0x4 MSTORE PUSH1 0x24 PUSH1 0x0 REVERT JUMPDEST PUSH1 0x0 PUSH2 0x2814 DUP3 PUSH2 0x1F50 JUMP JUMPDEST SWAP2 POP PUSH2 0x281F DUP4 PUSH2 0x1F50 JUMP JUMPDEST SWAP3 POP DUP3 PUSH4 0xFFFFFFFF SUB DUP3 GT ISZERO PUSH2 0x2838 JUMPI PUSH2 0x2837 PUSH2 0x27DA JUMP JUMPDEST JUMPDEST DUP3 DUP3 ADD SWAP1 POP SWAP3 SWAP2 POP POP JUMP JUMPDEST PUSH1 0x0 PUSH2 0x284E DUP3 PUSH2 0x1F50 JUMP JUMPDEST SWAP2 POP PUSH2 0x2859 DUP4 PUSH2 0x1F50 JUMP JUMPDEST SWAP3 POP DUP3 DUP3 LT ISZERO PUSH2 0x286C JUMPI PUSH2 0x286B PUSH2 0x27DA JUMP JUMPDEST JUMPDEST DUP3 DUP3 SUB SWAP1 POP SWAP3 SWAP2 POP POP JUMP JUMPDEST PUSH1 0x0 PUSH2 0x2882 DUP3 PUSH2 0x1F50 JUMP JUMPDEST SWAP2 POP PUSH2 0x288D DUP4 PUSH2 0x1F50 JUMP JUMPDEST SWAP3 POP DUP2 PUSH4 0xFFFFFFFF DIV DUP4 GT DUP3 ISZERO ISZERO AND ISZERO PUSH2 0x28AA JUMPI PUSH2 0x28A9 PUSH2 0x27DA JUMP JUMPDEST JUMPDEST DUP3 DUP3 MUL SWAP1 POP SWAP3 SWAP2 POP POP JUMP JUMPDEST PUSH32 0x546865206D6574686F642067657454696D65496E5365636F6E647320646F6573 PUSH1 0x0 DUP3 ADD MSTORE PUSH32 0x6E277420776F726B20666F72204D4F4E544820616E6420594541520000000000 PUSH1 0x20 DUP3 ADD MSTORE POP JUMP JUMPDEST PUSH1 0x0 PUSH2 0x2911 PUSH1 0x3B DUP4 PUSH2 0x228A JUMP JUMPDEST SWAP2 POP PUSH2 0x291C DUP3 PUSH2 0x28B5 JUMP JUMPDEST PUSH1 0x40 DUP3 ADD SWAP1 POP SWAP2 SWAP1 POP JUMP JUMPDEST PUSH1 0x0 PUSH1 0x20 DUP3 ADD SWAP1 POP DUP2 DUP2 SUB PUSH1 0x0 DUP4 ADD MSTORE PUSH2 0x2940 DUP2 PUSH2 0x2904 JUMP JUMPDEST SWAP1 POP SWAP2 SWAP1 POP JUMP JUMPDEST PUSH1 0x0 DUP2 SWAP1 POP SWAP2 SWAP1 POP JUMP JUMPDEST PUSH32 0x4E487B7100000000000000000000000000000000000000000000000000000000 PUSH1 0x0 MSTORE PUSH1 0x12 PUSH1 0x4 MSTORE PUSH1 0x24 PUSH1 0x0 REVERT JUMPDEST PUSH1 0x0 PUSH2 0x298B DUP3 PUSH2 0x2947 JUMP JUMPDEST SWAP2 POP PUSH2 0x2996 DUP4 PUSH2 0x2947 JUMP JUMPDEST SWAP3 POP DUP3 PUSH2 0x29A6 JUMPI PUSH2 0x29A5 PUSH2 0x2951 JUMP JUMPDEST JUMPDEST DUP3 DUP3 DIV SWAP1 POP SWAP3 SWAP2 POP POP JUMP JUMPDEST PUSH1 0x0 PUSH2 0x29BC DUP3 PUSH2 0x1F50 JUMP JUMPDEST SWAP2 POP PUSH2 0x29C7 DUP4 PUSH2 0x1F50 JUMP JUMPDEST SWAP3 POP DUP3 PUSH2 0x29D7 JUMPI PUSH2 0x29D6 PUSH2 0x2951 JUMP JUMPDEST JUMPDEST DUP3 DUP3 DIV SWAP1 POP SWAP3 SWAP2 POP POP JUMP JUMPDEST PUSH1 0x0 PUSH2 0x29ED DUP3 PUSH2 0x2947 JUMP JUMPDEST SWAP2 POP PUSH2 0x29F8 DUP4 PUSH2 0x2947 JUMP JUMPDEST SWAP3 POP DUP3 PUSH32 0xFFFFFFFFFFFFFFFFFFFFFFFFFFFFFFFFFFFFFFFFFFFFFFFFFFFFFFFFFFFFFFFF SUB DUP3 GT ISZERO PUSH2 0x2A2D JUMPI PUSH2 0x2A2C PUSH2 0x27DA JUMP JUMPDEST JUMPDEST DUP3 DUP3 ADD SWAP1 POP SWAP3 SWAP2 POP POP JUMP JUMPDEST PUSH1 0x0 PUSH2 0x2A43 DUP3 PUSH2 0x1F50 JUMP JUMPDEST SWAP2 POP PUSH2 0x2A4E DUP4 PUSH2 0x1F50 JUMP JUMPDEST SWAP3 POP DUP3 PUSH2 0x2A5E JUMPI PUSH2 0x2A5D PUSH2 0x2951 JUMP JUMPDEST JUMPDEST DUP3 DUP3 MOD SWAP1 POP SWAP3 SWAP2 POP POP JUMP INVALID LOG2 PUSH5 0x6970667358 0x22 SLT KECCAK256 LT PUSH2 0xA17B 0xB0 DUP10 MOD 0x26 DUP8 LOG1 0x27 PUSH22 0x16A85FB4C2C519A7F8A1D141067B79C347A4B536473 PUSH16 0x6C634300080D00330000000000000000 "
				},
				"gasEstimates": {
					"creation": {
						"codeDepositCost": "2182200",
						"executionCost": "infinite",
						"totalCost": "infinite"
					},
					"external": {
						"changeApplicationParty(string,address)": "infinite",
						"getApplicationAddress()": "9060",
						"getParty(address)": "infinite",
						"getProcessAddress()": "9082",
						"rigth_sendMessage(uint8,string,uint32,string)": "infinite",
						"signContract()": "infinite"
					},
					"internal": {
						"updateMapParty(address,struct EAI.Party storage pointer)": "infinite"
					}
				},
				"methodIdentifiers": {
					"changeApplicationParty(string,address)": "5e744c6a",
					"getApplicationAddress()": "70d8915a",
					"getParty(address)": "fb6f8243",
					"getProcessAddress()": "85931911",
					"rigth_sendMessage(uint8,string,uint32,string)": "27f540ae",
					"signContract()": "b8b4f1a0"
				}
			},
			"storageLayout": {
				"storage": [
					{
						"astId": 2100,
						"contract": "contracts/study-case-contracts/004-whatsapp/WhatsappProcessWrite.sol:WhatsappProcessWrite",
						"label": "activated",
						"offset": 0,
						"slot": "0",
						"type": "t_bool"
					},
					{
						"astId": 2102,
						"contract": "contracts/study-case-contracts/004-whatsapp/WhatsappProcessWrite.sol:WhatsappProcessWrite",
						"label": "beginDate",
						"offset": 1,
						"slot": "0",
						"type": "t_uint32"
					},
					{
						"astId": 2104,
						"contract": "contracts/study-case-contracts/004-whatsapp/WhatsappProcessWrite.sol:WhatsappProcessWrite",
						"label": "dueDate",
						"offset": 5,
						"slot": "0",
						"type": "t_uint32"
					},
					{
						"astId": 2111,
						"contract": "contracts/study-case-contracts/004-whatsapp/WhatsappProcessWrite.sol:WhatsappProcessWrite",
						"label": "application",
						"offset": 0,
						"slot": "1",
						"type": "t_struct(Party)75_storage"
					},
					{
						"astId": 2114,
						"contract": "contracts/study-case-contracts/004-whatsapp/WhatsappProcessWrite.sol:WhatsappProcessWrite",
						"label": "process",
						"offset": 0,
						"slot": "3",
						"type": "t_struct(Party)75_storage"
					},
					{
						"astId": 2119,
						"contract": "contracts/study-case-contracts/004-whatsapp/WhatsappProcessWrite.sol:WhatsappProcessWrite",
						"label": "mapParty",
						"offset": 0,
						"slot": "5",
						"type": "t_mapping(t_address,t_struct(Party)75_storage)"
					},
					{
						"astId": 2150,
						"contract": "contracts/study-case-contracts/004-whatsapp/WhatsappProcessWrite.sol:WhatsappProcessWrite",
						"label": "weekDaysInterval_C1",
						"offset": 0,
						"slot": "6",
						"type": "t_array(t_struct(WeekDaysInterval)160_storage)dyn_storage"
					},
					{
						"astId": 2154,
						"contract": "contracts/study-case-contracts/004-whatsapp/WhatsappProcessWrite.sol:WhatsappProcessWrite",
						"label": "sessionInterval_C1",
						"offset": 0,
						"slot": "7",
						"type": "t_array(t_struct(SessionInterval)1410_storage)dyn_storage"
					},
					{
						"astId": 2161,
						"contract": "contracts/study-case-contracts/004-whatsapp/WhatsappProcessWrite.sol:WhatsappProcessWrite",
						"label": "sessionByContent",
						"offset": 0,
						"slot": "8",
						"type": "t_mapping(t_string_memory_ptr,t_mapping(t_string_memory_ptr,t_struct(SessionInterval)1410_storage))"
					},
					{
						"astId": 2167,
						"contract": "contracts/study-case-contracts/004-whatsapp/WhatsappProcessWrite.sol:WhatsappProcessWrite",
						"label": "exists_k1mapk2",
						"offset": 0,
						"slot": "9",
						"type": "t_mapping(t_string_memory_ptr,t_mapping(t_string_memory_ptr,t_bool))"
					},
					{
						"astId": 2170,
						"contract": "contracts/study-case-contracts/004-whatsapp/WhatsappProcessWrite.sol:WhatsappProcessWrite",
						"label": "keys_k1",
						"offset": 0,
						"slot": "10",
						"type": "t_array(t_string_storage)dyn_storage"
					},
					{
						"astId": 2173,
						"contract": "contracts/study-case-contracts/004-whatsapp/WhatsappProcessWrite.sol:WhatsappProcessWrite",
						"label": "keys_k2",
						"offset": 0,
						"slot": "11",
						"type": "t_array(t_string_storage)dyn_storage"
					},
					{
						"astId": 2177,
						"contract": "contracts/study-case-contracts/004-whatsapp/WhatsappProcessWrite.sol:WhatsappProcessWrite",
						"label": "exists_k1",
						"offset": 0,
						"slot": "12",
						"type": "t_mapping(t_string_memory_ptr,t_bool)"
					},
					{
						"astId": 2181,
						"contract": "contracts/study-case-contracts/004-whatsapp/WhatsappProcessWrite.sol:WhatsappProcessWrite",
						"label": "exists_k2",
						"offset": 0,
						"slot": "13",
						"type": "t_mapping(t_string_memory_ptr,t_bool)"
					},
					{
						"astId": 2185,
						"contract": "contracts/study-case-contracts/004-whatsapp/WhatsappProcessWrite.sol:WhatsappProcessWrite",
						"label": "msgContent_onlyPath_String_C1",
						"offset": 0,
						"slot": "14",
						"type": "t_array(t_struct(MessageContent_onlyXPath_String)940_storage)dyn_storage"
					},
					{
						"astId": 2189,
						"contract": "contracts/study-case-contracts/004-whatsapp/WhatsappProcessWrite.sol:WhatsappProcessWrite",
						"label": "maxNumberOfOperationByTime_C1",
						"offset": 0,
						"slot": "15",
						"type": "t_array(t_struct(MaxNumberOfOperationByTime)778_storage)dyn_storage"
					}
				],
				"types": {
					"t_address": {
						"encoding": "inplace",
						"label": "address",
						"numberOfBytes": "20"
					},
					"t_array(t_string_storage)dyn_storage": {
						"base": "t_string_storage",
						"encoding": "dynamic_array",
						"label": "string[]",
						"numberOfBytes": "32"
					},
					"t_array(t_struct(MaxNumberOfOperationByTime)778_storage)dyn_storage": {
						"base": "t_struct(MaxNumberOfOperationByTime)778_storage",
						"encoding": "dynamic_array",
						"label": "struct EAI.MaxNumberOfOperationByTime[]",
						"numberOfBytes": "32"
					},
					"t_array(t_struct(MessageContent_onlyXPath_String)940_storage)dyn_storage": {
						"base": "t_struct(MessageContent_onlyXPath_String)940_storage",
						"encoding": "dynamic_array",
						"label": "struct EAI.MessageContent_onlyXPath_String[]",
						"numberOfBytes": "32"
					},
					"t_array(t_struct(SessionInterval)1410_storage)dyn_storage": {
						"base": "t_struct(SessionInterval)1410_storage",
						"encoding": "dynamic_array",
						"label": "struct EAI.SessionInterval[]",
						"numberOfBytes": "32"
					},
					"t_array(t_struct(WeekDaysInterval)160_storage)dyn_storage": {
						"base": "t_struct(WeekDaysInterval)160_storage",
						"encoding": "dynamic_array",
						"label": "struct EAI.WeekDaysInterval[]",
						"numberOfBytes": "32"
					},
					"t_bool": {
						"encoding": "inplace",
						"label": "bool",
						"numberOfBytes": "1"
					},
					"t_mapping(t_address,t_struct(Party)75_storage)": {
						"encoding": "mapping",
						"key": "t_address",
						"label": "mapping(address => struct EAI.Party)",
						"numberOfBytes": "32",
						"value": "t_struct(Party)75_storage"
					},
					"t_mapping(t_string_memory_ptr,t_bool)": {
						"encoding": "mapping",
						"key": "t_string_memory_ptr",
						"label": "mapping(string => bool)",
						"numberOfBytes": "32",
						"value": "t_bool"
					},
					"t_mapping(t_string_memory_ptr,t_mapping(t_string_memory_ptr,t_bool))": {
						"encoding": "mapping",
						"key": "t_string_memory_ptr",
						"label": "mapping(string => mapping(string => bool))",
						"numberOfBytes": "32",
						"value": "t_mapping(t_string_memory_ptr,t_bool)"
					},
					"t_mapping(t_string_memory_ptr,t_mapping(t_string_memory_ptr,t_struct(SessionInterval)1410_storage))": {
						"encoding": "mapping",
						"key": "t_string_memory_ptr",
						"label": "mapping(string => mapping(string => struct EAI.SessionInterval))",
						"numberOfBytes": "32",
						"value": "t_mapping(t_string_memory_ptr,t_struct(SessionInterval)1410_storage)"
					},
					"t_mapping(t_string_memory_ptr,t_struct(SessionInterval)1410_storage)": {
						"encoding": "mapping",
						"key": "t_string_memory_ptr",
						"label": "mapping(string => struct EAI.SessionInterval)",
						"numberOfBytes": "32",
						"value": "t_struct(SessionInterval)1410_storage"
					},
					"t_string_memory_ptr": {
						"encoding": "bytes",
						"label": "string",
						"numberOfBytes": "32"
					},
					"t_string_storage": {
						"encoding": "bytes",
						"label": "string",
						"numberOfBytes": "32"
					},
					"t_struct(MaxNumberOfOperationByTime)778_storage": {
						"encoding": "inplace",
						"label": "struct EAI.MaxNumberOfOperationByTime",
						"members": [
							{
								"astId": 769,
								"contract": "contracts/study-case-contracts/004-whatsapp/WhatsappProcessWrite.sol:WhatsappProcessWrite",
								"label": "amount",
								"offset": 0,
								"slot": "0",
								"type": "t_uint32"
							},
							{
								"astId": 771,
								"contract": "contracts/study-case-contracts/004-whatsapp/WhatsappProcessWrite.sol:WhatsappProcessWrite",
								"label": "timeUnit",
								"offset": 4,
								"slot": "0",
								"type": "t_uint8"
							},
							{
								"astId": 773,
								"contract": "contracts/study-case-contracts/004-whatsapp/WhatsappProcessWrite.sol:WhatsappProcessWrite",
								"label": "byTime",
								"offset": 5,
								"slot": "0",
								"type": "t_uint32"
							},
							{
								"astId": 775,
								"contract": "contracts/study-case-contracts/004-whatsapp/WhatsappProcessWrite.sol:WhatsappProcessWrite",
								"label": "rest",
								"offset": 9,
								"slot": "0",
								"type": "t_uint32"
							},
							{
								"astId": 777,
								"contract": "contracts/study-case-contracts/004-whatsapp/WhatsappProcessWrite.sol:WhatsappProcessWrite",
								"label": "endTime",
								"offset": 13,
								"slot": "0",
								"type": "t_uint32"
							}
						],
						"numberOfBytes": "32"
					},
					"t_struct(MessageContent_onlyXPath_String)940_storage": {
						"encoding": "inplace",
						"label": "struct EAI.MessageContent_onlyXPath_String",
						"members": [
							{
								"astId": 939,
								"contract": "contracts/study-case-contracts/004-whatsapp/WhatsappProcessWrite.sol:WhatsappProcessWrite",
								"label": "xpath",
								"offset": 0,
								"slot": "0",
								"type": "t_string_storage"
							}
						],
						"numberOfBytes": "32"
					},
					"t_struct(Party)75_storage": {
						"encoding": "inplace",
						"label": "struct EAI.Party",
						"members": [
							{
								"astId": 70,
								"contract": "contracts/study-case-contracts/004-whatsapp/WhatsappProcessWrite.sol:WhatsappProcessWrite",
								"label": "name",
								"offset": 0,
								"slot": "0",
								"type": "t_string_storage"
							},
							{
								"astId": 72,
								"contract": "contracts/study-case-contracts/004-whatsapp/WhatsappProcessWrite.sol:WhatsappProcessWrite",
								"label": "walletAddress",
								"offset": 0,
								"slot": "1",
								"type": "t_address"
							},
							{
								"astId": 74,
								"contract": "contracts/study-case-contracts/004-whatsapp/WhatsappProcessWrite.sol:WhatsappProcessWrite",
								"label": "aware",
								"offset": 20,
								"slot": "1",
								"type": "t_bool"
							}
						],
						"numberOfBytes": "64"
					},
					"t_struct(SessionInterval)1410_storage": {
						"encoding": "inplace",
						"label": "struct EAI.SessionInterval",
						"members": [
							{
								"astId": 1401,
								"contract": "contracts/study-case-contracts/004-whatsapp/WhatsappProcessWrite.sol:WhatsappProcessWrite",
								"label": "duration",
								"offset": 0,
								"slot": "0",
								"type": "t_uint8"
							},
							{
								"astId": 1403,
								"contract": "contracts/study-case-contracts/004-whatsapp/WhatsappProcessWrite.sol:WhatsappProcessWrite",
								"label": "timeUnit",
								"offset": 1,
								"slot": "0",
								"type": "t_uint8"
							},
							{
								"astId": 1405,
								"contract": "contracts/study-case-contracts/004-whatsapp/WhatsappProcessWrite.sol:WhatsappProcessWrite",
								"label": "durationInSeconds",
								"offset": 2,
								"slot": "0",
								"type": "t_uint32"
							},
							{
								"astId": 1407,
								"contract": "contracts/study-case-contracts/004-whatsapp/WhatsappProcessWrite.sol:WhatsappProcessWrite",
								"label": "xpath",
								"offset": 0,
								"slot": "1",
								"type": "t_string_storage"
							},
							{
								"astId": 1409,
								"contract": "contracts/study-case-contracts/004-whatsapp/WhatsappProcessWrite.sol:WhatsappProcessWrite",
								"label": "endTime",
								"offset": 0,
								"slot": "2",
								"type": "t_uint32"
							}
						],
						"numberOfBytes": "96"
					},
					"t_struct(WeekDaysInterval)160_storage": {
						"encoding": "inplace",
						"label": "struct EAI.WeekDaysInterval",
						"members": [
							{
								"astId": 157,
								"contract": "contracts/study-case-contracts/004-whatsapp/WhatsappProcessWrite.sol:WhatsappProcessWrite",
								"label": "start",
								"offset": 0,
								"slot": "0",
								"type": "t_uint8"
							},
							{
								"astId": 159,
								"contract": "contracts/study-case-contracts/004-whatsapp/WhatsappProcessWrite.sol:WhatsappProcessWrite",
								"label": "end",
								"offset": 1,
								"slot": "0",
								"type": "t_uint8"
							}
						],
						"numberOfBytes": "32"
					},
					"t_uint32": {
						"encoding": "inplace",
						"label": "uint32",
						"numberOfBytes": "4"
					},
					"t_uint8": {
						"encoding": "inplace",
						"label": "uint8",
						"numberOfBytes": "1"
					}
				}
			},
			"userdoc": {
				"kind": "user",
				"methods": {},
				"version": 1
			}
		}
	}
}