{
	"data": {
		"bytecode": {
			"linkReferences": {},
			"object": "60806040523480156200001157600080fd5b5060405162003bbb38038062003bbb833981810160405281019062000037919062000d9f565b6363b14488600060016101000a81548163ffffffff021916908363ffffffff1602179055506365927808600060056101000a81548163ffffffff021916908363ffffffff160217905550620000cf6040518060400160405280600f81526020017f44656c69766572792053797374656d00000000000000000000000000000000008152508260006200074060201b62000e6e1760201c565b60016000820151816000019080519060200190620000ef92919062000b03565b5060208201518160010160006101000a81548173ffffffffffffffffffffffffffffffffffffffff021916908373ffffffffffffffffffffffffffffffffffffffff16021790555060408201518160010160146101000a81548160ff021916908315150217905550905050620001a86040518060400160405280601381526020017f496e746567726174696f6e2050726f63657373000000000000000000000000008152503360016200074060201b62000e6e1760201c565b60036000820151816000019080519060200190620001c892919062000b03565b5060208201518160010160006101000a81548173ffffffffffffffffffffffffffffffffffffffff021916908373ffffffffffffffffffffffffffffffffffffffff16021790555060408201518160010160146101000a81548160ff0219169083151502179055509050506003600560003373ffffffffffffffffffffffffffffffffffffffff1673ffffffffffffffffffffffffffffffffffffffff16815260200190815260200160002060008201816000019080546200028a9062000e00565b6200029792919062000b94565b506001820160009054906101000a900473ffffffffffffffffffffffffffffffffffffffff168160010160006101000a81548173ffffffffffffffffffffffffffffffffffffffff021916908373ffffffffffffffffffffffffffffffffffffffff1602179055506001820160149054906101000a900460ff168160010160146101000a81548160ff0219169083151502179055509050506001600560008373ffffffffffffffffffffffffffffffffffffffff1673ffffffffffffffffffffffffffffffffffffffff1681526020019081526020016000206000820181600001908054620003869062000e00565b6200039392919062000b94565b506001820160009054906101000a900473ffffffffffffffffffffffffffffffffffffffff168160010160006101000a81548173ffffffffffffffffffffffffffffffffffffffff021916908373ffffffffffffffffffffffffffffffffffffffff1602179055506001820160149054906101000a900460ff168160010160146101000a81548160ff021916908315150217905550905050600662000446600660006200078660201b62000eb21760201c565b9080600181540180825580915050600190039060005260206000200160009091909190915060008201518160000160006101000a81548160ff021916908360ff16021790555060208201518160000160016101000a81548160ff021916908360ff16021790555050506007620004cd620104286177886200087960201b62000f9b1760201c565b9080600181540180825580915050600190039060005260206000200160009091909190915060008201518160000160006101000a81548163ffffffff021916908363ffffffff16021790555060208201518160000160046101000a81548163ffffffff021916908363ffffffff160217905550505060086200055d600560036200098e60201b620010a61760201c565b9080600181540180825580915050600190039060005260206000200160009091909190915060008201518160000160006101000a81548163ffffffff021916908363ffffffff16021790555060208201518160000160046101000a81548160ff021916908360ff16021790555060408201518160000160056101000a81548163ffffffff021916908363ffffffff16021790555060608201518160000160096101000a81548163ffffffff021916908363ffffffff160217905550608082015181600001600d6101000a81548163ffffffff021916908363ffffffff16021790555050506009620006c66040518060400160405280601081526020017f636f756e74282f2f6164647265737329000000000000000000000000000000008152506040518060400160405280600281526020017f3c3d000000000000000000000000000000000000000000000000000000000000815250600162000a1360201b6200111f1760201c565b908060018154018082558091505060019003906000526020600020906003020160009091909190915060008201518160000190805190602001906200070d92919062000b03565b5060208201518160010190805190602001906200072c92919062000b03565b50604082015181600201555050506200100e565b6200074a62000c2c565b60405180606001604052808581526020018473ffffffffffffffffffffffffffffffffffffffff16815260200183151581525090509392505050565b6200079062000c65565b8282600060ff168260ff1610158015620007b15750600660ff168260ff1611155b620007f3576040517f08c379a0000000000000000000000000000000000000000000000000000000008152600401620007ea9062000ebc565b60405180910390fd5b600060ff168160ff1610158015620008125750600660ff168160ff1611155b62000854576040517f08c379a00000000000000000000000000000000000000000000000000000000081526004016200084b9062000f54565b60405180910390fd5b60405180604001604052808660ff1681526020018560ff168152509250505092915050565b6200088362000c85565b8282600063ffffffff168263ffffffff1610158015620008b257506201517f63ffffffff168263ffffffff1611155b620008f4576040517f08c379a0000000000000000000000000000000000000000000000000000000008152600401620008eb9062000ebc565b60405180910390fd5b600063ffffffff168163ffffffff16101580156200092157506201517f63ffffffff168163ffffffff1611155b62000963576040517f08c379a00000000000000000000000000000000000000000000000000000000081526004016200095a9062000f54565b60405180910390fd5b60405180604001604052808663ffffffff1681526020018563ffffffff168152509250505092915050565b6200099862000cab565b6000600460ff168360ff1611620009c257620009ba8362000a4160201b60201c565b9050620009c7565b600190505b6040518060a001604052808563ffffffff1681526020018460ff1681526020018263ffffffff1681526020018563ffffffff168152602001600063ffffffff1681525091505092915050565b62000a1d62000cf5565b60405180606001604052808581526020018481526020018381525090509392505050565b6000600460ff168260ff16111562000a90576040517f08c379a000000000000000000000000000000000000000000000000000000000815260040162000a879062000fec565b60405180910390fd5b600060ff168260ff160362000aa9576001905062000afe565b600160ff168260ff160362000ac257603c905062000afe565b600260ff168260ff160362000adc57610e10905062000afe565b600360ff168260ff160362000af75762015180905062000afe565b62093a8090505b919050565b82805462000b119062000e00565b90600052602060002090601f01602090048101928262000b35576000855562000b81565b82601f1062000b5057805160ff191683800117855562000b81565b8280016001018555821562000b81579182015b8281111562000b8057825182559160200191906001019062000b63565b5b50905062000b90919062000d16565b5090565b82805462000ba29062000e00565b90600052602060002090601f01602090048101928262000bc6576000855562000c19565b82601f1062000bd9578054855562000c19565b8280016001018555821562000c1957600052602060002091601f016020900482015b8281111562000c1857825482559160010191906001019062000bfb565b5b50905062000c28919062000d16565b5090565b604051806060016040528060608152602001600073ffffffffffffffffffffffffffffffffffffffff1681526020016000151581525090565b6040518060400160405280600060ff168152602001600060ff1681525090565b6040518060400160405280600063ffffffff168152602001600063ffffffff1681525090565b6040518060a00160405280600063ffffffff168152602001600060ff168152602001600063ffffffff168152602001600063ffffffff168152602001600063ffffffff1681525090565b60405180606001604052806060815260200160608152602001600081525090565b5b8082111562000d3157600081600090555060010162000d17565b5090565b600080fd5b600073ffffffffffffffffffffffffffffffffffffffff82169050919050565b600062000d678262000d3a565b9050919050565b62000d798162000d5a565b811462000d8557600080fd5b50565b60008151905062000d998162000d6e565b92915050565b60006020828403121562000db85762000db762000d35565b5b600062000dc88482850162000d88565b91505092915050565b7f4e487b7100000000000000000000000000000000000000000000000000000000600052602260045260246000fd5b6000600282049050600182168062000e1957607f821691505b60208210810362000e2f5762000e2e62000dd1565b5b50919050565b600082825260208201905092915050565b7f546865205f7374617274446179206e6f7420726570726573656e74732061207660008201527f616c696420646179000000000000000000000000000000000000000000000000602082015250565b600062000ea460288362000e35565b915062000eb18262000e46565b604082019050919050565b6000602082019050818103600083015262000ed78162000e95565b9050919050565b7f546865205f656e64446179206e6f7420726570726573656e747320612076616c60008201527f6964206461790000000000000000000000000000000000000000000000000000602082015250565b600062000f3c60268362000e35565b915062000f498262000ede565b604082019050919050565b6000602082019050818103600083015262000f6f8162000f2d565b9050919050565b7f546865206d6574686f642067657454696d65496e5365636f6e647320646f657360008201527f6e277420776f726b20666f72204d4f4e544820616e6420594541520000000000602082015250565b600062000fd4603b8362000e35565b915062000fe18262000f76565b604082019050919050565b60006020820190508181036000830152620010078162000fc5565b9050919050565b612b9d806200101e6000396000f3fe608060405234801561001057600080fd5b50600436106100625760003560e01c80635e744c6a1461006757806370d8915a1461009757806385931911146100b5578063b8b4f1a0146100d3578063dcddde78146100f1578063fb6f824314610121575b600080fd5b610081600480360381019061007c9190611eff565b610151565b60405161008e9190611f76565b60405180910390f35b61009f610342565b6040516100ac9190611fa0565b60405180910390f35b6100bd6104a9565b6040516100ca9190611fa0565b60405180910390f35b6100db610611565b6040516100e89190611f76565b60405180910390f35b61010b6004803603810190610106919061212e565b61077b565b6040516101189190611f76565b60405180910390f35b61013b600480360381019061013691906121b1565b610bd8565b60405161014891906122d4565b60405180910390f35b60003373ffffffffffffffffffffffffffffffffffffffff16600360010160009054906101000a900473ffffffffffffffffffffffffffffffffffffffff1673ffffffffffffffffffffffffffffffffffffffff16146101e6576040517f08c379a00000000000000000000000000000000000000000000000000000000081526004016101dd90612379565b60405180910390fd5b600560006001800160009054906101000a900473ffffffffffffffffffffffffffffffffffffffff1673ffffffffffffffffffffffffffffffffffffffff1673ffffffffffffffffffffffffffffffffffffffff1681526020019081526020016000206000808201600061025a9190611aed565b6001820160006101000a81549073ffffffffffffffffffffffffffffffffffffffff02191690556001820160146101000a81549060ff021916905550506102a383836000610e6e565b600160008201518160000190805190602001906102c1929190611b2d565b5060208201518160010160006101000a81548173ffffffffffffffffffffffffffffffffffffffff021916908373ffffffffffffffffffffffffffffffffffffffff16021790555060408201518160010160146101000a81548160ff02191690831515021790555090505061033782600161114b565b506001905092915050565b60008060009054906101000a900460ff16610392576040517f08c379a0000000000000000000000000000000000000000000000000000000008152600401610389906123e5565b60405180910390fd5b3373ffffffffffffffffffffffffffffffffffffffff166001800160009054906101000a900473ffffffffffffffffffffffffffffffffffffffff1673ffffffffffffffffffffffffffffffffffffffff16148061044057503373ffffffffffffffffffffffffffffffffffffffff16600360010160009054906101000a900473ffffffffffffffffffffffffffffffffffffffff1673ffffffffffffffffffffffffffffffffffffffff16145b61047f576040517f08c379a000000000000000000000000000000000000000000000000000000000815260040161047690612477565b60405180910390fd5b6001800160009054906101000a900473ffffffffffffffffffffffffffffffffffffffff16905090565b60008060009054906101000a900460ff166104f9576040517f08c379a00000000000000000000000000000000000000000000000000000000081526004016104f0906123e5565b60405180910390fd5b3373ffffffffffffffffffffffffffffffffffffffff166001800160009054906101000a900473ffffffffffffffffffffffffffffffffffffffff1673ffffffffffffffffffffffffffffffffffffffff1614806105a757503373ffffffffffffffffffffffffffffffffffffffff16600360010160009054906101000a900473ffffffffffffffffffffffffffffffffffffffff1673ffffffffffffffffffffffffffffffffffffffff16145b6105e6576040517f08c379a00000000000000000000000000000000000000000000000000000000081526004016105dd90612477565b60405180910390fd5b600360010160009054906101000a900473ffffffffffffffffffffffffffffffffffffffff16905090565b60008060009054906101000a900460ff16610661576040517f08c379a0000000000000000000000000000000000000000000000000000000008152600401610658906123e5565b60405180910390fd5b3373ffffffffffffffffffffffffffffffffffffffff166001800160009054906101000a900473ffffffffffffffffffffffffffffffffffffffff1673ffffffffffffffffffffffffffffffffffffffff16146106f3576040517f08c379a00000000000000000000000000000000000000000000000000000000081526004016106ea90612509565b60405180910390fd5b600015156001800160149054906101000a900460ff1615151461074b576040517f08c379a000000000000000000000000000000000000000000000000000000000815260040161074290612575565b60405180910390fd5b60018060010160146101000a81548160ff02191690831515021790555061077333600161114b565b506001905090565b60008060009054906101000a900460ff166107cb576040517f08c379a00000000000000000000000000000000000000000000000000000000081526004016107c2906123e5565b60405180910390fd5b3373ffffffffffffffffffffffffffffffffffffffff16600360010160009054906101000a900473ffffffffffffffffffffffffffffffffffffffff1673ffffffffffffffffffffffffffffffffffffffff161461085e576040517f08c379a000000000000000000000000000000000000000000000000000000000815260040161085590612379565b60405180910390fd5b6108d485600660008154811061087757610876612595565b5b906000526020600020016040518060400160405290816000820160009054906101000a900460ff1660ff1660ff1681526020016000820160019054906101000a900460ff1660ff1660ff168152505061124e90919063ffffffff16565b8061096357506109628460076000815481106108f3576108f2612595565b5b906000526020600020016040518060400160405290816000820160009054906101000a900463ffffffff1663ffffffff1663ffffffff1681526020016000820160049054906101000a900463ffffffff1663ffffffff1663ffffffff16815250506112da90919063ffffffff16565b5b8061099c575061099a83600860008154811061098257610981612595565b5b9060005260206000200161138490919063ffffffff16565b155b80610b2c5750610b2b826000815181106109b9576109b8612595565b5b602002602001015160096000815481106109d6576109d5612595565b5b90600052602060002090600302016040518060600160405290816000820180546109ff906125f3565b80601f0160208091040260200160405190810160405280929190818152602001828054610a2b906125f3565b8015610a785780601f10610a4d57610100808354040283529160200191610a78565b820191906000526020600020905b815481529060010190602001808311610a5b57829003601f168201915b50505050508152602001600182018054610a91906125f3565b80601f0160208091040260200160405190810160405280929190818152602001828054610abd906125f3565b8015610b0a5780601f10610adf57610100808354040283529160200191610b0a565b820191906000526020600020905b815481529060010190602001808311610aed57829003601f168201915b505050505081526020016002820154815250506113fd90919063ffffffff16565b5b15610b6f577f66091b7dc2b097c8f60d5cd6aa99633b097f08d2eb1056f3e15361b22e0ea2ba604051610b5e906126bc565b60405180910390a160009050610bd0565b610b966008600081548110610b8757610b86612595565b5b906000526020600020016115ef565b7f95a1f3a1dafdd4c1af344e3d7c69a72cbce8a3f15fe1cf95a7f5bd23df2e71a1604051610bc390612728565b60405180910390a1600190505b949350505050565b610be0611bb3565b60008054906101000a900460ff16610c2d576040517f08c379a0000000000000000000000000000000000000000000000000000000008152600401610c24906123e5565b60405180910390fd5b3373ffffffffffffffffffffffffffffffffffffffff166001800160009054906101000a900473ffffffffffffffffffffffffffffffffffffffff1673ffffffffffffffffffffffffffffffffffffffff161480610cdb57503373ffffffffffffffffffffffffffffffffffffffff16600360010160009054906101000a900473ffffffffffffffffffffffffffffffffffffffff1673ffffffffffffffffffffffffffffffffffffffff16145b610d1a576040517f08c379a0000000000000000000000000000000000000000000000000000000008152600401610d1190612477565b60405180910390fd5b600560008373ffffffffffffffffffffffffffffffffffffffff1673ffffffffffffffffffffffffffffffffffffffff168152602001908152602001600020604051806060016040529081600082018054610d74906125f3565b80601f0160208091040260200160405190810160405280929190818152602001828054610da0906125f3565b8015610ded5780601f10610dc257610100808354040283529160200191610ded565b820191906000526020600020905b815481529060010190602001808311610dd057829003601f168201915b505050505081526020016001820160009054906101000a900473ffffffffffffffffffffffffffffffffffffffff1673ffffffffffffffffffffffffffffffffffffffff1673ffffffffffffffffffffffffffffffffffffffff1681526020016001820160149054906101000a900460ff1615151515815250509050919050565b610e76611bb3565b60405180606001604052808581526020018473ffffffffffffffffffffffffffffffffffffffff16815260200183151581525090509392505050565b610eba611bec565b8282600060ff168260ff1610158015610eda5750600660ff168260ff1611155b610f19576040517f08c379a0000000000000000000000000000000000000000000000000000000008152600401610f10906127ba565b60405180910390fd5b600060ff168160ff1610158015610f375750600660ff168160ff1611155b610f76576040517f08c379a0000000000000000000000000000000000000000000000000000000008152600401610f6d9061284c565b60405180910390fd5b60405180604001604052808660ff1681526020018560ff168152509250505092915050565b610fa3611c0c565b8282600063ffffffff168263ffffffff1610158015610fd157506201517f63ffffffff168263ffffffff1611155b611010576040517f08c379a0000000000000000000000000000000000000000000000000000000008152600401611007906127ba565b60405180910390fd5b600063ffffffff168163ffffffff161015801561103c57506201517f63ffffffff168163ffffffff1611155b61107b576040517f08c379a00000000000000000000000000000000000000000000000000000000081526004016110729061284c565b60405180910390fd5b60405180604001604052808663ffffffff1681526020018563ffffffff168152509250505092915050565b6110ae611c32565b6000600460ff168360ff16116110ce576110c783611634565b90506110d3565b600190505b6040518060a001604052808563ffffffff1681526020018460ff1681526020018263ffffffff1681526020018563ffffffff168152602001600063ffffffff1681525091505092915050565b611127611c7c565b60405180606001604052808581526020018481526020018381525090509392505050565b600081600560008573ffffffffffffffffffffffffffffffffffffffff1673ffffffffffffffffffffffffffffffffffffffff16815260200190815260200160002060008201816000019080546111a1906125f3565b6111ac929190611c9d565b506001820160009054906101000a900473ffffffffffffffffffffffffffffffffffffffff168160010160006101000a81548173ffffffffffffffffffffffffffffffffffffffff021916908373ffffffffffffffffffffffffffffffffffffffff1602179055506001820160149054906101000a900460ff168160010160146101000a81548160ff0219169083151502179055509050506001905092915050565b6000826020015160ff16836000015160ff16101561129d57826000015160ff168260ff161015801561128a5750826020015160ff168260ff1611155b1561129857600190506112d4565b6112cf565b826000015160ff168260ff161015806112c05750826020015160ff168260ff1611155b156112ce57600190506112d4565b5b600090505b92915050565b6000826020015163ffffffff16836000015163ffffffff16101561133b57826000015163ffffffff168263ffffffff16101580156113285750826020015163ffffffff168263ffffffff1611155b15611336576001905061137e565b611379565b826000015163ffffffff168263ffffffff1610158061136a5750826020015163ffffffff168263ffffffff1611155b15611378576001905061137e565b5b600090505b92915050565b60006113b68360000160049054906101000a900460ff1684600001600d9054906101000a900463ffffffff16846116eb565b156113c6576113c583836117b0565b5b60008360000160099054906101000a900463ffffffff1663ffffffff1611156113f257600190506113f7565b600090505b92915050565b60008083602001519050602160f81b816000815181106114205761141f612595565b5b602001015160f81c60f81b7effffffffffffffffffffffffffffffffffffffffffffffffffffffffffffff1916036114625783604001518314159150506115e9565b603d60f81b8160008151811061147b5761147a612595565b5b602001015160f81c60f81b7effffffffffffffffffffffffffffffffffffffffffffffffffffffffffffff1916036114bc57836040015183149150506115e9565b603c60f81b816000815181106114d5576114d4612595565b5b602001015160f81c60f81b7effffffffffffffffffffffffffffffffffffffffffffffffffffffffffffff19160361152f5760028151036115205783604001518313159150506115e9565b836040015183129150506115e9565b603e60f81b8160008151811061154857611547612595565b5b602001015160f81c60f81b7effffffffffffffffffffffffffffffffffffffffffffffffffffffffffffff1916036115a25760028151036115935783604001518312159150506115e9565b836040015183139150506115e9565b60006115e3576040517f08c379a00000000000000000000000000000000000000000000000000000000081526004016115da906128b8565b60405180910390fd5b60009150505b92915050565b60018160000160098282829054906101000a900463ffffffff166116139190612907565b92506101000a81548163ffffffff021916908363ffffffff16021790555050565b6000600460ff168260ff161115611680576040517f08c379a0000000000000000000000000000000000000000000000000000000008152600401611677906129ad565b60405180910390fd5b600060ff168260ff160361169757600190506116e6565b600160ff168260ff16036116ae57603c90506116e6565b600260ff168260ff16036116c657610e1090506116e6565b600360ff168260ff16036116df576201518090506116e6565b62093a8090505b919050565b600080849050600460ff168160ff1611611717578363ffffffff168363ffffffff1610159150506117a9565b600560ff168160ff160361177f5760006117368463ffffffff1661183d565b50915050600d8563ffffffff16148015611756575060018163ffffffff16145b15611766576001925050506117a9565b8463ffffffff168163ffffffff161015925050506117a9565b60006117908463ffffffff1661183d565b505090508463ffffffff168163ffffffff161015925050505b9392505050565b8160000160009054906101000a900463ffffffff168260000160096101000a81548163ffffffff021916908363ffffffff1602179055506118178260000160059054906101000a900463ffffffff168360000160049054906101000a900460ff16836119f0565b82600001600d6101000a81548163ffffffff021916908363ffffffff1602179055505050565b6000806000806201518063ffffffff16856118589190612a06565b9050600062253d8c62010bd98361186f9190612a37565b6118799190612a37565b9050600062023ab182600461188e9190612a71565b6118989190612aaf565b9050600460038262023ab16118ad9190612a71565b6118b79190612a37565b6118c19190612aaf565b826118cc9190612907565b9150600062164b096001846118e19190612a37565b610fa06118ee9190612a71565b6118f89190612aaf565b9050601f6004826105b561190c9190612a71565b6119169190612aaf565b846119219190612907565b61192b9190612a37565b9250600061098f84605061193f9190612a71565b6119499190612aaf565b9050600060508261098f61195d9190612a71565b6119679190612aaf565b856119729190612907565b9050600b826119819190612aaf565b945084600c6119909190612a71565b60028361199d9190612a37565b6119a79190612907565b915084836031866119b89190612907565b60646119c49190612a71565b6119ce9190612a37565b6119d89190612a37565b92508298508197508096505050505050509193909250565b6000600460ff168360ff1611611a1257611a0b838386611a83565b9050611a7c565b600560ff168360ff1603611a50576000611a318363ffffffff1661183d565b5063ffffffff16915050600181611a489190612ae0565b915050611a7c565b6000611a618363ffffffff1661183d565b505063ffffffff169050600181611a789190612ae0565b9150505b9392505050565b6000808284611a929190612b36565b905060008184611aa29190612907565b9050600460ff168660ff1603611ad5576203f4808186611ac29190612a37565b611acc9190612a37565b92505050611ae6565b8085611ae19190612a37565b925050505b9392505050565b508054611af9906125f3565b6000825580601f10611b0b5750611b2a565b601f016020900490600052602060002090810190611b299190611d2a565b5b50565b828054611b39906125f3565b90600052602060002090601f016020900481019282611b5b5760008555611ba2565b82601f10611b7457805160ff1916838001178555611ba2565b82800160010185558215611ba2579182015b82811115611ba1578251825591602001919060010190611b86565b5b509050611baf9190611d2a565b5090565b604051806060016040528060608152602001600073ffffffffffffffffffffffffffffffffffffffff1681526020016000151581525090565b6040518060400160405280600060ff168152602001600060ff1681525090565b6040518060400160405280600063ffffffff168152602001600063ffffffff1681525090565b6040518060a00160405280600063ffffffff168152602001600060ff168152602001600063ffffffff168152602001600063ffffffff168152602001600063ffffffff1681525090565b60405180606001604052806060815260200160608152602001600081525090565b828054611ca9906125f3565b90600052602060002090601f016020900481019282611ccb5760008555611d19565b82601f10611cdc5780548555611d19565b82800160010185558215611d1957600052602060002091601f016020900482015b82811115611d18578254825591600101919060010190611cfd565b5b509050611d269190611d2a565b5090565b5b80821115611d43576000816000905550600101611d2b565b5090565b6000604051905090565b600080fd5b600080fd5b600080fd5b600080fd5b6000601f19601f8301169050919050565b7f4e487b7100000000000000000000000000000000000000000000000000000000600052604160045260246000fd5b611dae82611d65565b810181811067ffffffffffffffff82111715611dcd57611dcc611d76565b5b80604052505050565b6000611de0611d47565b9050611dec8282611da5565b919050565b600067ffffffffffffffff821115611e0c57611e0b611d76565b5b611e1582611d65565b9050602081019050919050565b82818337600083830152505050565b6000611e44611e3f84611df1565b611dd6565b905082815260208101848484011115611e6057611e5f611d60565b5b611e6b848285611e22565b509392505050565b600082601f830112611e8857611e87611d5b565b5b8135611e98848260208601611e31565b91505092915050565b600073ffffffffffffffffffffffffffffffffffffffff82169050919050565b6000611ecc82611ea1565b9050919050565b611edc81611ec1565b8114611ee757600080fd5b50565b600081359050611ef981611ed3565b92915050565b60008060408385031215611f1657611f15611d51565b5b600083013567ffffffffffffffff811115611f3457611f33611d56565b5b611f4085828601611e73565b9250506020611f5185828601611eea565b9150509250929050565b60008115159050919050565b611f7081611f5b565b82525050565b6000602082019050611f8b6000830184611f67565b92915050565b611f9a81611ec1565b82525050565b6000602082019050611fb56000830184611f91565b92915050565b600060ff82169050919050565b611fd181611fbb565b8114611fdc57600080fd5b50565b600081359050611fee81611fc8565b92915050565b600063ffffffff82169050919050565b61200d81611ff4565b811461201857600080fd5b50565b60008135905061202a81612004565b92915050565b600067ffffffffffffffff82111561204b5761204a611d76565b5b602082029050602081019050919050565b600080fd5b6000819050919050565b61207481612061565b811461207f57600080fd5b50565b6000813590506120918161206b565b92915050565b60006120aa6120a584612030565b611dd6565b905080838252602082019050602084028301858111156120cd576120cc61205c565b5b835b818110156120f657806120e28882612082565b8452602084019350506020810190506120cf565b5050509392505050565b600082601f83011261211557612114611d5b565b5b8135612125848260208601612097565b91505092915050565b6000806000806080858703121561214857612147611d51565b5b600061215687828801611fdf565b94505060206121678782880161201b565b93505060406121788782880161201b565b925050606085013567ffffffffffffffff81111561219957612198611d56565b5b6121a587828801612100565b91505092959194509250565b6000602082840312156121c7576121c6611d51565b5b60006121d584828501611eea565b91505092915050565b600081519050919050565b600082825260208201905092915050565b60005b838110156122185780820151818401526020810190506121fd565b83811115612227576000848401525b50505050565b6000612238826121de565b61224281856121e9565b93506122528185602086016121fa565b61225b81611d65565b840191505092915050565b61226f81611ec1565b82525050565b61227e81611f5b565b82525050565b600060608301600083015184820360008601526122a1828261222d565b91505060208301516122b66020860182612266565b5060408301516122c96040860182612275565b508091505092915050565b600060208201905081810360008301526122ee8184612284565b905092915050565b600082825260208201905092915050565b7f4f6e6c79207468652070726f636573732063616e20657865637574652074686960008201527f73206f7065726174696f6e000000000000000000000000000000000000000000602082015250565b6000612363602b836122f6565b915061236e82612307565b604082019050919050565b6000602082019050818103600083015261239281612356565b9050919050565b7f5468697320636f6e747261637420697320646561637469766174656400000000600082015250565b60006123cf601c836122f6565b91506123da82612399565b602082019050919050565b600060208201905081810360008301526123fe816123c2565b9050919050565b7f4f6e6c79207468652070726f63657373206f7220746865206170706c6963617460008201527f696f6e2063616e20657865637574652074686973206f7065726174696f6e0000602082015250565b6000612461603e836122f6565b915061246c82612405565b604082019050919050565b6000602082019050818103600083015261249081612454565b9050919050565b7f4f6e6c7920746865206170706c69636174696f6e2063616e206578656375746560008201527f2074686973206f7065726174696f6e0000000000000000000000000000000000602082015250565b60006124f3602f836122f6565b91506124fe82612497565b604082019050919050565b60006020820190508181036000830152612522816124e6565b9050919050565b7f54686520636f6e747261637420697320616c7265616479207369676e65640000600082015250565b600061255f601e836122f6565b915061256a82612529565b602082019050919050565b6000602082019050818103600083015261258e81612552565b9050919050565b7f4e487b7100000000000000000000000000000000000000000000000000000000600052603260045260246000fd5b7f4e487b7100000000000000000000000000000000000000000000000000000000600052602260045260246000fd5b6000600282049050600182168061260b57607f821691505b60208210810361261e5761261d6125c4565b5b50919050565b7f52657175657374206f7065726174696f6e20706572666f726d6564206f75747360008201527f696465206f6620616c6c6f77656420686f757273206f72206c696d6974206f7060208201527f65726174696f6e20657863656564656400000000000000000000000000000000604082015250565b60006126a66050836122f6565b91506126b182612624565b606082019050919050565b600060208201905081810360008301526126d581612699565b9050919050565b7f5375636365737366756c20657865637574696f6e210000000000000000000000600082015250565b60006127126015836122f6565b915061271d826126dc565b602082019050919050565b6000602082019050818103600083015261274181612705565b9050919050565b7f546865205f7374617274446179206e6f7420726570726573656e74732061207660008201527f616c696420646179000000000000000000000000000000000000000000000000602082015250565b60006127a46028836122f6565b91506127af82612748565b604082019050919050565b600060208201905081810360008301526127d381612797565b9050919050565b7f546865205f656e64446179206e6f7420726570726573656e747320612076616c60008201527f6964206461790000000000000000000000000000000000000000000000000000602082015250565b60006128366026836122f6565b9150612841826127da565b604082019050919050565b6000602082019050818103600083015261286581612829565b9050919050565b7f436f6d70617269736f6e2073796d626f6c206973206e6f742076616c69640000600082015250565b60006128a2601e836122f6565b91506128ad8261286c565b602082019050919050565b600060208201905081810360008301526128d181612895565b9050919050565b7f4e487b7100000000000000000000000000000000000000000000000000000000600052601160045260246000fd5b600061291282611ff4565b915061291d83611ff4565b9250828210156129305761292f6128d8565b5b828203905092915050565b7f546865206d6574686f642067657454696d65496e5365636f6e647320646f657360008201527f6e277420776f726b20666f72204d4f4e544820616e6420594541520000000000602082015250565b6000612997603b836122f6565b91506129a28261293b565b604082019050919050565b600060208201905081810360008301526129c68161298a565b9050919050565b6000819050919050565b7f4e487b7100000000000000000000000000000000000000000000000000000000600052601260045260246000fd5b6000612a11826129cd565b9150612a1c836129cd565b925082612a2c57612a2b6129d7565b5b828204905092915050565b6000612a4282611ff4565b9150612a4d83611ff4565b92508263ffffffff03821115612a6657612a656128d8565b5b828201905092915050565b6000612a7c82611ff4565b9150612a8783611ff4565b92508163ffffffff0483118215151615612aa457612aa36128d8565b5b828202905092915050565b6000612aba82611ff4565b9150612ac583611ff4565b925082612ad557612ad46129d7565b5b828204905092915050565b6000612aeb826129cd565b9150612af6836129cd565b9250827fffffffffffffffffffffffffffffffffffffffffffffffffffffffffffffffff03821115612b2b57612b2a6128d8565b5b828201905092915050565b6000612b4182611ff4565b9150612b4c83611ff4565b925082612b5c57612b5b6129d7565b5b82820690509291505056fea2646970667358221220eb2e30faaa1dfa67cbb13a500afcefdc819c33ee74bb5fccdd3831acfb7579bb64736f6c634300080d0033",
			"opcodes": "PUSH1 0x80 PUSH1 0x40 MSTORE CALLVALUE DUP1 ISZERO PUSH3 0x11 JUMPI PUSH1 0x0 DUP1 REVERT JUMPDEST POP PUSH1 0x40 MLOAD PUSH3 0x3BBB CODESIZE SUB DUP1 PUSH3 0x3BBB DUP4 CODECOPY DUP2 DUP2 ADD PUSH1 0x40 MSTORE DUP2 ADD SWAP1 PUSH3 0x37 SWAP2 SWAP1 PUSH3 0xD9F JUMP JUMPDEST PUSH4 0x63B14488 PUSH1 0x0 PUSH1 0x1 PUSH2 0x100 EXP DUP2 SLOAD DUP2 PUSH4 0xFFFFFFFF MUL NOT AND SWAP1 DUP4 PUSH4 0xFFFFFFFF AND MUL OR SWAP1 SSTORE POP PUSH4 0x65927808 PUSH1 0x0 PUSH1 0x5 PUSH2 0x100 EXP DUP2 SLOAD DUP2 PUSH4 0xFFFFFFFF MUL NOT AND SWAP1 DUP4 PUSH4 0xFFFFFFFF AND MUL OR SWAP1 SSTORE POP PUSH3 0xCF PUSH1 0x40 MLOAD DUP1 PUSH1 0x40 ADD PUSH1 0x40 MSTORE DUP1 PUSH1 0xF DUP2 MSTORE PUSH1 0x20 ADD PUSH32 0x44656C69766572792053797374656D0000000000000000000000000000000000 DUP2 MSTORE POP DUP3 PUSH1 0x0 PUSH3 0x740 PUSH1 0x20 SHL PUSH3 0xE6E OR PUSH1 0x20 SHR JUMP JUMPDEST PUSH1 0x1 PUSH1 0x0 DUP3 ADD MLOAD DUP2 PUSH1 0x0 ADD SWAP1 DUP1 MLOAD SWAP1 PUSH1 0x20 ADD SWAP1 PUSH3 0xEF SWAP3 SWAP2 SWAP1 PUSH3 0xB03 JUMP JUMPDEST POP PUSH1 0x20 DUP3 ADD MLOAD DUP2 PUSH1 0x1 ADD PUSH1 0x0 PUSH2 0x100 EXP DUP2 SLOAD DUP2 PUSH20 0xFFFFFFFFFFFFFFFFFFFFFFFFFFFFFFFFFFFFFFFF MUL NOT AND SWAP1 DUP4 PUSH20 0xFFFFFFFFFFFFFFFFFFFFFFFFFFFFFFFFFFFFFFFF AND MUL OR SWAP1 SSTORE POP PUSH1 0x40 DUP3 ADD MLOAD DUP2 PUSH1 0x1 ADD PUSH1 0x14 PUSH2 0x100 EXP DUP2 SLOAD DUP2 PUSH1 0xFF MUL NOT AND SWAP1 DUP4 ISZERO ISZERO MUL OR SWAP1 SSTORE POP SWAP1 POP POP PUSH3 0x1A8 PUSH1 0x40 MLOAD DUP1 PUSH1 0x40 ADD PUSH1 0x40 MSTORE DUP1 PUSH1 0x13 DUP2 MSTORE PUSH1 0x20 ADD PUSH32 0x496E746567726174696F6E2050726F6365737300000000000000000000000000 DUP2 MSTORE POP CALLER PUSH1 0x1 PUSH3 0x740 PUSH1 0x20 SHL PUSH3 0xE6E OR PUSH1 0x20 SHR JUMP JUMPDEST PUSH1 0x3 PUSH1 0x0 DUP3 ADD MLOAD DUP2 PUSH1 0x0 ADD SWAP1 DUP1 MLOAD SWAP1 PUSH1 0x20 ADD SWAP1 PUSH3 0x1C8 SWAP3 SWAP2 SWAP1 PUSH3 0xB03 JUMP JUMPDEST POP PUSH1 0x20 DUP3 ADD MLOAD DUP2 PUSH1 0x1 ADD PUSH1 0x0 PUSH2 0x100 EXP DUP2 SLOAD DUP2 PUSH20 0xFFFFFFFFFFFFFFFFFFFFFFFFFFFFFFFFFFFFFFFF MUL NOT AND SWAP1 DUP4 PUSH20 0xFFFFFFFFFFFFFFFFFFFFFFFFFFFFFFFFFFFFFFFF AND MUL OR SWAP1 SSTORE POP PUSH1 0x40 DUP3 ADD MLOAD DUP2 PUSH1 0x1 ADD PUSH1 0x14 PUSH2 0x100 EXP DUP2 SLOAD DUP2 PUSH1 0xFF MUL NOT AND SWAP1 DUP4 ISZERO ISZERO MUL OR SWAP1 SSTORE POP SWAP1 POP POP PUSH1 0x3 PUSH1 0x5 PUSH1 0x0 CALLER PUSH20 0xFFFFFFFFFFFFFFFFFFFFFFFFFFFFFFFFFFFFFFFF AND PUSH20 0xFFFFFFFFFFFFFFFFFFFFFFFFFFFFFFFFFFFFFFFF AND DUP2 MSTORE PUSH1 0x20 ADD SWAP1 DUP2 MSTORE PUSH1 0x20 ADD PUSH1 0x0 KECCAK256 PUSH1 0x0 DUP3 ADD DUP2 PUSH1 0x0 ADD SWAP1 DUP1 SLOAD PUSH3 0x28A SWAP1 PUSH3 0xE00 JUMP JUMPDEST PUSH3 0x297 SWAP3 SWAP2 SWAP1 PUSH3 0xB94 JUMP JUMPDEST POP PUSH1 0x1 DUP3 ADD PUSH1 0x0 SWAP1 SLOAD SWAP1 PUSH2 0x100 EXP SWAP1 DIV PUSH20 0xFFFFFFFFFFFFFFFFFFFFFFFFFFFFFFFFFFFFFFFF AND DUP2 PUSH1 0x1 ADD PUSH1 0x0 PUSH2 0x100 EXP DUP2 SLOAD DUP2 PUSH20 0xFFFFFFFFFFFFFFFFFFFFFFFFFFFFFFFFFFFFFFFF MUL NOT AND SWAP1 DUP4 PUSH20 0xFFFFFFFFFFFFFFFFFFFFFFFFFFFFFFFFFFFFFFFF AND MUL OR SWAP1 SSTORE POP PUSH1 0x1 DUP3 ADD PUSH1 0x14 SWAP1 SLOAD SWAP1 PUSH2 0x100 EXP SWAP1 DIV PUSH1 0xFF AND DUP2 PUSH1 0x1 ADD PUSH1 0x14 PUSH2 0x100 EXP DUP2 SLOAD DUP2 PUSH1 0xFF MUL NOT AND SWAP1 DUP4 ISZERO ISZERO MUL OR SWAP1 SSTORE POP SWAP1 POP POP PUSH1 0x1 PUSH1 0x5 PUSH1 0x0 DUP4 PUSH20 0xFFFFFFFFFFFFFFFFFFFFFFFFFFFFFFFFFFFFFFFF AND PUSH20 0xFFFFFFFFFFFFFFFFFFFFFFFFFFFFFFFFFFFFFFFF AND DUP2 MSTORE PUSH1 0x20 ADD SWAP1 DUP2 MSTORE PUSH1 0x20 ADD PUSH1 0x0 KECCAK256 PUSH1 0x0 DUP3 ADD DUP2 PUSH1 0x0 ADD SWAP1 DUP1 SLOAD PUSH3 0x386 SWAP1 PUSH3 0xE00 JUMP JUMPDEST PUSH3 0x393 SWAP3 SWAP2 SWAP1 PUSH3 0xB94 JUMP JUMPDEST POP PUSH1 0x1 DUP3 ADD PUSH1 0x0 SWAP1 SLOAD SWAP1 PUSH2 0x100 EXP SWAP1 DIV PUSH20 0xFFFFFFFFFFFFFFFFFFFFFFFFFFFFFFFFFFFFFFFF AND DUP2 PUSH1 0x1 ADD PUSH1 0x0 PUSH2 0x100 EXP DUP2 SLOAD DUP2 PUSH20 0xFFFFFFFFFFFFFFFFFFFFFFFFFFFFFFFFFFFFFFFF MUL NOT AND SWAP1 DUP4 PUSH20 0xFFFFFFFFFFFFFFFFFFFFFFFFFFFFFFFFFFFFFFFF AND MUL OR SWAP1 SSTORE POP PUSH1 0x1 DUP3 ADD PUSH1 0x14 SWAP1 SLOAD SWAP1 PUSH2 0x100 EXP SWAP1 DIV PUSH1 0xFF AND DUP2 PUSH1 0x1 ADD PUSH1 0x14 PUSH2 0x100 EXP DUP2 SLOAD DUP2 PUSH1 0xFF MUL NOT AND SWAP1 DUP4 ISZERO ISZERO MUL OR SWAP1 SSTORE POP SWAP1 POP POP PUSH1 0x6 PUSH3 0x446 PUSH1 0x6 PUSH1 0x0 PUSH3 0x786 PUSH1 0x20 SHL PUSH3 0xEB2 OR PUSH1 0x20 SHR JUMP JUMPDEST SWAP1 DUP1 PUSH1 0x1 DUP2 SLOAD ADD DUP1 DUP3 SSTORE DUP1 SWAP2 POP POP PUSH1 0x1 SWAP1 SUB SWAP1 PUSH1 0x0 MSTORE PUSH1 0x20 PUSH1 0x0 KECCAK256 ADD PUSH1 0x0 SWAP1 SWAP2 SWAP1 SWAP2 SWAP1 SWAP2 POP PUSH1 0x0 DUP3 ADD MLOAD DUP2 PUSH1 0x0 ADD PUSH1 0x0 PUSH2 0x100 EXP DUP2 SLOAD DUP2 PUSH1 0xFF MUL NOT AND SWAP1 DUP4 PUSH1 0xFF AND MUL OR SWAP1 SSTORE POP PUSH1 0x20 DUP3 ADD MLOAD DUP2 PUSH1 0x0 ADD PUSH1 0x1 PUSH2 0x100 EXP DUP2 SLOAD DUP2 PUSH1 0xFF MUL NOT AND SWAP1 DUP4 PUSH1 0xFF AND MUL OR SWAP1 SSTORE POP POP POP PUSH1 0x7 PUSH3 0x4CD PUSH3 0x10428 PUSH2 0x7788 PUSH3 0x879 PUSH1 0x20 SHL PUSH3 0xF9B OR PUSH1 0x20 SHR JUMP JUMPDEST SWAP1 DUP1 PUSH1 0x1 DUP2 SLOAD ADD DUP1 DUP3 SSTORE DUP1 SWAP2 POP POP PUSH1 0x1 SWAP1 SUB SWAP1 PUSH1 0x0 MSTORE PUSH1 0x20 PUSH1 0x0 KECCAK256 ADD PUSH1 0x0 SWAP1 SWAP2 SWAP1 SWAP2 SWAP1 SWAP2 POP PUSH1 0x0 DUP3 ADD MLOAD DUP2 PUSH1 0x0 ADD PUSH1 0x0 PUSH2 0x100 EXP DUP2 SLOAD DUP2 PUSH4 0xFFFFFFFF MUL NOT AND SWAP1 DUP4 PUSH4 0xFFFFFFFF AND MUL OR SWAP1 SSTORE POP PUSH1 0x20 DUP3 ADD MLOAD DUP2 PUSH1 0x0 ADD PUSH1 0x4 PUSH2 0x100 EXP DUP2 SLOAD DUP2 PUSH4 0xFFFFFFFF MUL NOT AND SWAP1 DUP4 PUSH4 0xFFFFFFFF AND MUL OR SWAP1 SSTORE POP POP POP PUSH1 0x8 PUSH3 0x55D PUSH1 0x5 PUSH1 0x3 PUSH3 0x98E PUSH1 0x20 SHL PUSH3 0x10A6 OR PUSH1 0x20 SHR JUMP JUMPDEST SWAP1 DUP1 PUSH1 0x1 DUP2 SLOAD ADD DUP1 DUP3 SSTORE DUP1 SWAP2 POP POP PUSH1 0x1 SWAP1 SUB SWAP1 PUSH1 0x0 MSTORE PUSH1 0x20 PUSH1 0x0 KECCAK256 ADD PUSH1 0x0 SWAP1 SWAP2 SWAP1 SWAP2 SWAP1 SWAP2 POP PUSH1 0x0 DUP3 ADD MLOAD DUP2 PUSH1 0x0 ADD PUSH1 0x0 PUSH2 0x100 EXP DUP2 SLOAD DUP2 PUSH4 0xFFFFFFFF MUL NOT AND SWAP1 DUP4 PUSH4 0xFFFFFFFF AND MUL OR SWAP1 SSTORE POP PUSH1 0x20 DUP3 ADD MLOAD DUP2 PUSH1 0x0 ADD PUSH1 0x4 PUSH2 0x100 EXP DUP2 SLOAD DUP2 PUSH1 0xFF MUL NOT AND SWAP1 DUP4 PUSH1 0xFF AND MUL OR SWAP1 SSTORE POP PUSH1 0x40 DUP3 ADD MLOAD DUP2 PUSH1 0x0 ADD PUSH1 0x5 PUSH2 0x100 EXP DUP2 SLOAD DUP2 PUSH4 0xFFFFFFFF MUL NOT AND SWAP1 DUP4 PUSH4 0xFFFFFFFF AND MUL OR SWAP1 SSTORE POP PUSH1 0x60 DUP3 ADD MLOAD DUP2 PUSH1 0x0 ADD PUSH1 0x9 PUSH2 0x100 EXP DUP2 SLOAD DUP2 PUSH4 0xFFFFFFFF MUL NOT AND SWAP1 DUP4 PUSH4 0xFFFFFFFF AND MUL OR SWAP1 SSTORE POP PUSH1 0x80 DUP3 ADD MLOAD DUP2 PUSH1 0x0 ADD PUSH1 0xD PUSH2 0x100 EXP DUP2 SLOAD DUP2 PUSH4 0xFFFFFFFF MUL NOT AND SWAP1 DUP4 PUSH4 0xFFFFFFFF AND MUL OR SWAP1 SSTORE POP POP POP PUSH1 0x9 PUSH3 0x6C6 PUSH1 0x40 MLOAD DUP1 PUSH1 0x40 ADD PUSH1 0x40 MSTORE DUP1 PUSH1 0x10 DUP2 MSTORE PUSH1 0x20 ADD PUSH32 0x636F756E74282F2F616464726573732900000000000000000000000000000000 DUP2 MSTORE POP PUSH1 0x40 MLOAD DUP1 PUSH1 0x40 ADD PUSH1 0x40 MSTORE DUP1 PUSH1 0x2 DUP2 MSTORE PUSH1 0x20 ADD PUSH32 0x3C3D000000000000000000000000000000000000000000000000000000000000 DUP2 MSTORE POP PUSH1 0x1 PUSH3 0xA13 PUSH1 0x20 SHL PUSH3 0x111F OR PUSH1 0x20 SHR JUMP JUMPDEST SWAP1 DUP1 PUSH1 0x1 DUP2 SLOAD ADD DUP1 DUP3 SSTORE DUP1 SWAP2 POP POP PUSH1 0x1 SWAP1 SUB SWAP1 PUSH1 0x0 MSTORE PUSH1 0x20 PUSH1 0x0 KECCAK256 SWAP1 PUSH1 0x3 MUL ADD PUSH1 0x0 SWAP1 SWAP2 SWAP1 SWAP2 SWAP1 SWAP2 POP PUSH1 0x0 DUP3 ADD MLOAD DUP2 PUSH1 0x0 ADD SWAP1 DUP1 MLOAD SWAP1 PUSH1 0x20 ADD SWAP1 PUSH3 0x70D SWAP3 SWAP2 SWAP1 PUSH3 0xB03 JUMP JUMPDEST POP PUSH1 0x20 DUP3 ADD MLOAD DUP2 PUSH1 0x1 ADD SWAP1 DUP1 MLOAD SWAP1 PUSH1 0x20 ADD SWAP1 PUSH3 0x72C SWAP3 SWAP2 SWAP1 PUSH3 0xB03 JUMP JUMPDEST POP PUSH1 0x40 DUP3 ADD MLOAD DUP2 PUSH1 0x2 ADD SSTORE POP POP POP PUSH3 0x100E JUMP JUMPDEST PUSH3 0x74A PUSH3 0xC2C JUMP JUMPDEST PUSH1 0x40 MLOAD DUP1 PUSH1 0x60 ADD PUSH1 0x40 MSTORE DUP1 DUP6 DUP2 MSTORE PUSH1 0x20 ADD DUP5 PUSH20 0xFFFFFFFFFFFFFFFFFFFFFFFFFFFFFFFFFFFFFFFF AND DUP2 MSTORE PUSH1 0x20 ADD DUP4 ISZERO ISZERO DUP2 MSTORE POP SWAP1 POP SWAP4 SWAP3 POP POP POP JUMP JUMPDEST PUSH3 0x790 PUSH3 0xC65 JUMP JUMPDEST DUP3 DUP3 PUSH1 0x0 PUSH1 0xFF AND DUP3 PUSH1 0xFF AND LT ISZERO DUP1 ISZERO PUSH3 0x7B1 JUMPI POP PUSH1 0x6 PUSH1 0xFF AND DUP3 PUSH1 0xFF AND GT ISZERO JUMPDEST PUSH3 0x7F3 JUMPI PUSH1 0x40 MLOAD PUSH32 0x8C379A000000000000000000000000000000000000000000000000000000000 DUP2 MSTORE PUSH1 0x4 ADD PUSH3 0x7EA SWAP1 PUSH3 0xEBC JUMP JUMPDEST PUSH1 0x40 MLOAD DUP1 SWAP2 SUB SWAP1 REVERT JUMPDEST PUSH1 0x0 PUSH1 0xFF AND DUP2 PUSH1 0xFF AND LT ISZERO DUP1 ISZERO PUSH3 0x812 JUMPI POP PUSH1 0x6 PUSH1 0xFF AND DUP2 PUSH1 0xFF AND GT ISZERO JUMPDEST PUSH3 0x854 JUMPI PUSH1 0x40 MLOAD PUSH32 0x8C379A000000000000000000000000000000000000000000000000000000000 DUP2 MSTORE PUSH1 0x4 ADD PUSH3 0x84B SWAP1 PUSH3 0xF54 JUMP JUMPDEST PUSH1 0x40 MLOAD DUP1 SWAP2 SUB SWAP1 REVERT JUMPDEST PUSH1 0x40 MLOAD DUP1 PUSH1 0x40 ADD PUSH1 0x40 MSTORE DUP1 DUP7 PUSH1 0xFF AND DUP2 MSTORE PUSH1 0x20 ADD DUP6 PUSH1 0xFF AND DUP2 MSTORE POP SWAP3 POP POP POP SWAP3 SWAP2 POP POP JUMP JUMPDEST PUSH3 0x883 PUSH3 0xC85 JUMP JUMPDEST DUP3 DUP3 PUSH1 0x0 PUSH4 0xFFFFFFFF AND DUP3 PUSH4 0xFFFFFFFF AND LT ISZERO DUP1 ISZERO PUSH3 0x8B2 JUMPI POP PUSH3 0x1517F PUSH4 0xFFFFFFFF AND DUP3 PUSH4 0xFFFFFFFF AND GT ISZERO JUMPDEST PUSH3 0x8F4 JUMPI PUSH1 0x40 MLOAD PUSH32 0x8C379A000000000000000000000000000000000000000000000000000000000 DUP2 MSTORE PUSH1 0x4 ADD PUSH3 0x8EB SWAP1 PUSH3 0xEBC JUMP JUMPDEST PUSH1 0x40 MLOAD DUP1 SWAP2 SUB SWAP1 REVERT JUMPDEST PUSH1 0x0 PUSH4 0xFFFFFFFF AND DUP2 PUSH4 0xFFFFFFFF AND LT ISZERO DUP1 ISZERO PUSH3 0x921 JUMPI POP PUSH3 0x1517F PUSH4 0xFFFFFFFF AND DUP2 PUSH4 0xFFFFFFFF AND GT ISZERO JUMPDEST PUSH3 0x963 JUMPI PUSH1 0x40 MLOAD PUSH32 0x8C379A000000000000000000000000000000000000000000000000000000000 DUP2 MSTORE PUSH1 0x4 ADD PUSH3 0x95A SWAP1 PUSH3 0xF54 JUMP JUMPDEST PUSH1 0x40 MLOAD DUP1 SWAP2 SUB SWAP1 REVERT JUMPDEST PUSH1 0x40 MLOAD DUP1 PUSH1 0x40 ADD PUSH1 0x40 MSTORE DUP1 DUP7 PUSH4 0xFFFFFFFF AND DUP2 MSTORE PUSH1 0x20 ADD DUP6 PUSH4 0xFFFFFFFF AND DUP2 MSTORE POP SWAP3 POP POP POP SWAP3 SWAP2 POP POP JUMP JUMPDEST PUSH3 0x998 PUSH3 0xCAB JUMP JUMPDEST PUSH1 0x0 PUSH1 0x4 PUSH1 0xFF AND DUP4 PUSH1 0xFF AND GT PUSH3 0x9C2 JUMPI PUSH3 0x9BA DUP4 PUSH3 0xA41 PUSH1 0x20 SHL PUSH1 0x20 SHR JUMP JUMPDEST SWAP1 POP PUSH3 0x9C7 JUMP JUMPDEST PUSH1 0x1 SWAP1 POP JUMPDEST PUSH1 0x40 MLOAD DUP1 PUSH1 0xA0 ADD PUSH1 0x40 MSTORE DUP1 DUP6 PUSH4 0xFFFFFFFF AND DUP2 MSTORE PUSH1 0x20 ADD DUP5 PUSH1 0xFF AND DUP2 MSTORE PUSH1 0x20 ADD DUP3 PUSH4 0xFFFFFFFF AND DUP2 MSTORE PUSH1 0x20 ADD DUP6 PUSH4 0xFFFFFFFF AND DUP2 MSTORE PUSH1 0x20 ADD PUSH1 0x0 PUSH4 0xFFFFFFFF AND DUP2 MSTORE POP SWAP2 POP POP SWAP3 SWAP2 POP POP JUMP JUMPDEST PUSH3 0xA1D PUSH3 0xCF5 JUMP JUMPDEST PUSH1 0x40 MLOAD DUP1 PUSH1 0x60 ADD PUSH1 0x40 MSTORE DUP1 DUP6 DUP2 MSTORE PUSH1 0x20 ADD DUP5 DUP2 MSTORE PUSH1 0x20 ADD DUP4 DUP2 MSTORE POP SWAP1 POP SWAP4 SWAP3 POP POP POP JUMP JUMPDEST PUSH1 0x0 PUSH1 0x4 PUSH1 0xFF AND DUP3 PUSH1 0xFF AND GT ISZERO PUSH3 0xA90 JUMPI PUSH1 0x40 MLOAD PUSH32 0x8C379A000000000000000000000000000000000000000000000000000000000 DUP2 MSTORE PUSH1 0x4 ADD PUSH3 0xA87 SWAP1 PUSH3 0xFEC JUMP JUMPDEST PUSH1 0x40 MLOAD DUP1 SWAP2 SUB SWAP1 REVERT JUMPDEST PUSH1 0x0 PUSH1 0xFF AND DUP3 PUSH1 0xFF AND SUB PUSH3 0xAA9 JUMPI PUSH1 0x1 SWAP1 POP PUSH3 0xAFE JUMP JUMPDEST PUSH1 0x1 PUSH1 0xFF AND DUP3 PUSH1 0xFF AND SUB PUSH3 0xAC2 JUMPI PUSH1 0x3C SWAP1 POP PUSH3 0xAFE JUMP JUMPDEST PUSH1 0x2 PUSH1 0xFF AND DUP3 PUSH1 0xFF AND SUB PUSH3 0xADC JUMPI PUSH2 0xE10 SWAP1 POP PUSH3 0xAFE JUMP JUMPDEST PUSH1 0x3 PUSH1 0xFF AND DUP3 PUSH1 0xFF AND SUB PUSH3 0xAF7 JUMPI PUSH3 0x15180 SWAP1 POP PUSH3 0xAFE JUMP JUMPDEST PUSH3 0x93A80 SWAP1 POP JUMPDEST SWAP2 SWAP1 POP JUMP JUMPDEST DUP3 DUP1 SLOAD PUSH3 0xB11 SWAP1 PUSH3 0xE00 JUMP JUMPDEST SWAP1 PUSH1 0x0 MSTORE PUSH1 0x20 PUSH1 0x0 KECCAK256 SWAP1 PUSH1 0x1F ADD PUSH1 0x20 SWAP1 DIV DUP2 ADD SWAP3 DUP3 PUSH3 0xB35 JUMPI PUSH1 0x0 DUP6 SSTORE PUSH3 0xB81 JUMP JUMPDEST DUP3 PUSH1 0x1F LT PUSH3 0xB50 JUMPI DUP1 MLOAD PUSH1 0xFF NOT AND DUP4 DUP1 ADD OR DUP6 SSTORE PUSH3 0xB81 JUMP JUMPDEST DUP3 DUP1 ADD PUSH1 0x1 ADD DUP6 SSTORE DUP3 ISZERO PUSH3 0xB81 JUMPI SWAP2 DUP3 ADD JUMPDEST DUP3 DUP2 GT ISZERO PUSH3 0xB80 JUMPI DUP3 MLOAD DUP3 SSTORE SWAP2 PUSH1 0x20 ADD SWAP2 SWAP1 PUSH1 0x1 ADD SWAP1 PUSH3 0xB63 JUMP JUMPDEST JUMPDEST POP SWAP1 POP PUSH3 0xB90 SWAP2 SWAP1 PUSH3 0xD16 JUMP JUMPDEST POP SWAP1 JUMP JUMPDEST DUP3 DUP1 SLOAD PUSH3 0xBA2 SWAP1 PUSH3 0xE00 JUMP JUMPDEST SWAP1 PUSH1 0x0 MSTORE PUSH1 0x20 PUSH1 0x0 KECCAK256 SWAP1 PUSH1 0x1F ADD PUSH1 0x20 SWAP1 DIV DUP2 ADD SWAP3 DUP3 PUSH3 0xBC6 JUMPI PUSH1 0x0 DUP6 SSTORE PUSH3 0xC19 JUMP JUMPDEST DUP3 PUSH1 0x1F LT PUSH3 0xBD9 JUMPI DUP1 SLOAD DUP6 SSTORE PUSH3 0xC19 JUMP JUMPDEST DUP3 DUP1 ADD PUSH1 0x1 ADD DUP6 SSTORE DUP3 ISZERO PUSH3 0xC19 JUMPI PUSH1 0x0 MSTORE PUSH1 0x20 PUSH1 0x0 KECCAK256 SWAP2 PUSH1 0x1F ADD PUSH1 0x20 SWAP1 DIV DUP3 ADD JUMPDEST DUP3 DUP2 GT ISZERO PUSH3 0xC18 JUMPI DUP3 SLOAD DUP3 SSTORE SWAP2 PUSH1 0x1 ADD SWAP2 SWAP1 PUSH1 0x1 ADD SWAP1 PUSH3 0xBFB JUMP JUMPDEST JUMPDEST POP SWAP1 POP PUSH3 0xC28 SWAP2 SWAP1 PUSH3 0xD16 JUMP JUMPDEST POP SWAP1 JUMP JUMPDEST PUSH1 0x40 MLOAD DUP1 PUSH1 0x60 ADD PUSH1 0x40 MSTORE DUP1 PUSH1 0x60 DUP2 MSTORE PUSH1 0x20 ADD PUSH1 0x0 PUSH20 0xFFFFFFFFFFFFFFFFFFFFFFFFFFFFFFFFFFFFFFFF AND DUP2 MSTORE PUSH1 0x20 ADD PUSH1 0x0 ISZERO ISZERO DUP2 MSTORE POP SWAP1 JUMP JUMPDEST PUSH1 0x40 MLOAD DUP1 PUSH1 0x40 ADD PUSH1 0x40 MSTORE DUP1 PUSH1 0x0 PUSH1 0xFF AND DUP2 MSTORE PUSH1 0x20 ADD PUSH1 0x0 PUSH1 0xFF AND DUP2 MSTORE POP SWAP1 JUMP JUMPDEST PUSH1 0x40 MLOAD DUP1 PUSH1 0x40 ADD PUSH1 0x40 MSTORE DUP1 PUSH1 0x0 PUSH4 0xFFFFFFFF AND DUP2 MSTORE PUSH1 0x20 ADD PUSH1 0x0 PUSH4 0xFFFFFFFF AND DUP2 MSTORE POP SWAP1 JUMP JUMPDEST PUSH1 0x40 MLOAD DUP1 PUSH1 0xA0 ADD PUSH1 0x40 MSTORE DUP1 PUSH1 0x0 PUSH4 0xFFFFFFFF AND DUP2 MSTORE PUSH1 0x20 ADD PUSH1 0x0 PUSH1 0xFF AND DUP2 MSTORE PUSH1 0x20 ADD PUSH1 0x0 PUSH4 0xFFFFFFFF AND DUP2 MSTORE PUSH1 0x20 ADD PUSH1 0x0 PUSH4 0xFFFFFFFF AND DUP2 MSTORE PUSH1 0x20 ADD PUSH1 0x0 PUSH4 0xFFFFFFFF AND DUP2 MSTORE POP SWAP1 JUMP JUMPDEST PUSH1 0x40 MLOAD DUP1 PUSH1 0x60 ADD PUSH1 0x40 MSTORE DUP1 PUSH1 0x60 DUP2 MSTORE PUSH1 0x20 ADD PUSH1 0x60 DUP2 MSTORE PUSH1 0x20 ADD PUSH1 0x0 DUP2 MSTORE POP SWAP1 JUMP JUMPDEST JUMPDEST DUP1 DUP3 GT ISZERO PUSH3 0xD31 JUMPI PUSH1 0x0 DUP2 PUSH1 0x0 SWAP1 SSTORE POP PUSH1 0x1 ADD PUSH3 0xD17 JUMP JUMPDEST POP SWAP1 JUMP JUMPDEST PUSH1 0x0 DUP1 REVERT JUMPDEST PUSH1 0x0 PUSH20 0xFFFFFFFFFFFFFFFFFFFFFFFFFFFFFFFFFFFFFFFF DUP3 AND SWAP1 POP SWAP2 SWAP1 POP JUMP JUMPDEST PUSH1 0x0 PUSH3 0xD67 DUP3 PUSH3 0xD3A JUMP JUMPDEST SWAP1 POP SWAP2 SWAP1 POP JUMP JUMPDEST PUSH3 0xD79 DUP2 PUSH3 0xD5A JUMP JUMPDEST DUP2 EQ PUSH3 0xD85 JUMPI PUSH1 0x0 DUP1 REVERT JUMPDEST POP JUMP JUMPDEST PUSH1 0x0 DUP2 MLOAD SWAP1 POP PUSH3 0xD99 DUP2 PUSH3 0xD6E JUMP JUMPDEST SWAP3 SWAP2 POP POP JUMP JUMPDEST PUSH1 0x0 PUSH1 0x20 DUP3 DUP5 SUB SLT ISZERO PUSH3 0xDB8 JUMPI PUSH3 0xDB7 PUSH3 0xD35 JUMP JUMPDEST JUMPDEST PUSH1 0x0 PUSH3 0xDC8 DUP5 DUP3 DUP6 ADD PUSH3 0xD88 JUMP JUMPDEST SWAP2 POP POP SWAP3 SWAP2 POP POP JUMP JUMPDEST PUSH32 0x4E487B7100000000000000000000000000000000000000000000000000000000 PUSH1 0x0 MSTORE PUSH1 0x22 PUSH1 0x4 MSTORE PUSH1 0x24 PUSH1 0x0 REVERT JUMPDEST PUSH1 0x0 PUSH1 0x2 DUP3 DIV SWAP1 POP PUSH1 0x1 DUP3 AND DUP1 PUSH3 0xE19 JUMPI PUSH1 0x7F DUP3 AND SWAP2 POP JUMPDEST PUSH1 0x20 DUP3 LT DUP2 SUB PUSH3 0xE2F JUMPI PUSH3 0xE2E PUSH3 0xDD1 JUMP JUMPDEST JUMPDEST POP SWAP2 SWAP1 POP JUMP JUMPDEST PUSH1 0x0 DUP3 DUP3 MSTORE PUSH1 0x20 DUP3 ADD SWAP1 POP SWAP3 SWAP2 POP POP JUMP JUMPDEST PUSH32 0x546865205F7374617274446179206E6F7420726570726573656E747320612076 PUSH1 0x0 DUP3 ADD MSTORE PUSH32 0x616C696420646179000000000000000000000000000000000000000000000000 PUSH1 0x20 DUP3 ADD MSTORE POP JUMP JUMPDEST PUSH1 0x0 PUSH3 0xEA4 PUSH1 0x28 DUP4 PUSH3 0xE35 JUMP JUMPDEST SWAP2 POP PUSH3 0xEB1 DUP3 PUSH3 0xE46 JUMP JUMPDEST PUSH1 0x40 DUP3 ADD SWAP1 POP SWAP2 SWAP1 POP JUMP JUMPDEST PUSH1 0x0 PUSH1 0x20 DUP3 ADD SWAP1 POP DUP2 DUP2 SUB PUSH1 0x0 DUP4 ADD MSTORE PUSH3 0xED7 DUP2 PUSH3 0xE95 JUMP JUMPDEST SWAP1 POP SWAP2 SWAP1 POP JUMP JUMPDEST PUSH32 0x546865205F656E64446179206E6F7420726570726573656E747320612076616C PUSH1 0x0 DUP3 ADD MSTORE PUSH32 0x6964206461790000000000000000000000000000000000000000000000000000 PUSH1 0x20 DUP3 ADD MSTORE POP JUMP JUMPDEST PUSH1 0x0 PUSH3 0xF3C PUSH1 0x26 DUP4 PUSH3 0xE35 JUMP JUMPDEST SWAP2 POP PUSH3 0xF49 DUP3 PUSH3 0xEDE JUMP JUMPDEST PUSH1 0x40 DUP3 ADD SWAP1 POP SWAP2 SWAP1 POP JUMP JUMPDEST PUSH1 0x0 PUSH1 0x20 DUP3 ADD SWAP1 POP DUP2 DUP2 SUB PUSH1 0x0 DUP4 ADD MSTORE PUSH3 0xF6F DUP2 PUSH3 0xF2D JUMP JUMPDEST SWAP1 POP SWAP2 SWAP1 POP JUMP JUMPDEST PUSH32 0x546865206D6574686F642067657454696D65496E5365636F6E647320646F6573 PUSH1 0x0 DUP3 ADD MSTORE PUSH32 0x6E277420776F726B20666F72204D4F4E544820616E6420594541520000000000 PUSH1 0x20 DUP3 ADD MSTORE POP JUMP JUMPDEST PUSH1 0x0 PUSH3 0xFD4 PUSH1 0x3B DUP4 PUSH3 0xE35 JUMP JUMPDEST SWAP2 POP PUSH3 0xFE1 DUP3 PUSH3 0xF76 JUMP JUMPDEST PUSH1 0x40 DUP3 ADD SWAP1 POP SWAP2 SWAP1 POP JUMP JUMPDEST PUSH1 0x0 PUSH1 0x20 DUP3 ADD SWAP1 POP DUP2 DUP2 SUB PUSH1 0x0 DUP4 ADD MSTORE PUSH3 0x1007 DUP2 PUSH3 0xFC5 JUMP JUMPDEST SWAP1 POP SWAP2 SWAP1 POP JUMP JUMPDEST PUSH2 0x2B9D DUP1 PUSH3 0x101E PUSH1 0x0 CODECOPY PUSH1 0x0 RETURN INVALID PUSH1 0x80 PUSH1 0x40 MSTORE CALLVALUE DUP1 ISZERO PUSH2 0x10 JUMPI PUSH1 0x0 DUP1 REVERT JUMPDEST POP PUSH1 0x4 CALLDATASIZE LT PUSH2 0x62 JUMPI PUSH1 0x0 CALLDATALOAD PUSH1 0xE0 SHR DUP1 PUSH4 0x5E744C6A EQ PUSH2 0x67 JUMPI DUP1 PUSH4 0x70D8915A EQ PUSH2 0x97 JUMPI DUP1 PUSH4 0x85931911 EQ PUSH2 0xB5 JUMPI DUP1 PUSH4 0xB8B4F1A0 EQ PUSH2 0xD3 JUMPI DUP1 PUSH4 0xDCDDDE78 EQ PUSH2 0xF1 JUMPI DUP1 PUSH4 0xFB6F8243 EQ PUSH2 0x121 JUMPI JUMPDEST PUSH1 0x0 DUP1 REVERT JUMPDEST PUSH2 0x81 PUSH1 0x4 DUP1 CALLDATASIZE SUB DUP2 ADD SWAP1 PUSH2 0x7C SWAP2 SWAP1 PUSH2 0x1EFF JUMP JUMPDEST PUSH2 0x151 JUMP JUMPDEST PUSH1 0x40 MLOAD PUSH2 0x8E SWAP2 SWAP1 PUSH2 0x1F76 JUMP JUMPDEST PUSH1 0x40 MLOAD DUP1 SWAP2 SUB SWAP1 RETURN JUMPDEST PUSH2 0x9F PUSH2 0x342 JUMP JUMPDEST PUSH1 0x40 MLOAD PUSH2 0xAC SWAP2 SWAP1 PUSH2 0x1FA0 JUMP JUMPDEST PUSH1 0x40 MLOAD DUP1 SWAP2 SUB SWAP1 RETURN JUMPDEST PUSH2 0xBD PUSH2 0x4A9 JUMP JUMPDEST PUSH1 0x40 MLOAD PUSH2 0xCA SWAP2 SWAP1 PUSH2 0x1FA0 JUMP JUMPDEST PUSH1 0x40 MLOAD DUP1 SWAP2 SUB SWAP1 RETURN JUMPDEST PUSH2 0xDB PUSH2 0x611 JUMP JUMPDEST PUSH1 0x40 MLOAD PUSH2 0xE8 SWAP2 SWAP1 PUSH2 0x1F76 JUMP JUMPDEST PUSH1 0x40 MLOAD DUP1 SWAP2 SUB SWAP1 RETURN JUMPDEST PUSH2 0x10B PUSH1 0x4 DUP1 CALLDATASIZE SUB DUP2 ADD SWAP1 PUSH2 0x106 SWAP2 SWAP1 PUSH2 0x212E JUMP JUMPDEST PUSH2 0x77B JUMP JUMPDEST PUSH1 0x40 MLOAD PUSH2 0x118 SWAP2 SWAP1 PUSH2 0x1F76 JUMP JUMPDEST PUSH1 0x40 MLOAD DUP1 SWAP2 SUB SWAP1 RETURN JUMPDEST PUSH2 0x13B PUSH1 0x4 DUP1 CALLDATASIZE SUB DUP2 ADD SWAP1 PUSH2 0x136 SWAP2 SWAP1 PUSH2 0x21B1 JUMP JUMPDEST PUSH2 0xBD8 JUMP JUMPDEST PUSH1 0x40 MLOAD PUSH2 0x148 SWAP2 SWAP1 PUSH2 0x22D4 JUMP JUMPDEST PUSH1 0x40 MLOAD DUP1 SWAP2 SUB SWAP1 RETURN JUMPDEST PUSH1 0x0 CALLER PUSH20 0xFFFFFFFFFFFFFFFFFFFFFFFFFFFFFFFFFFFFFFFF AND PUSH1 0x3 PUSH1 0x1 ADD PUSH1 0x0 SWAP1 SLOAD SWAP1 PUSH2 0x100 EXP SWAP1 DIV PUSH20 0xFFFFFFFFFFFFFFFFFFFFFFFFFFFFFFFFFFFFFFFF AND PUSH20 0xFFFFFFFFFFFFFFFFFFFFFFFFFFFFFFFFFFFFFFFF AND EQ PUSH2 0x1E6 JUMPI PUSH1 0x40 MLOAD PUSH32 0x8C379A000000000000000000000000000000000000000000000000000000000 DUP2 MSTORE PUSH1 0x4 ADD PUSH2 0x1DD SWAP1 PUSH2 0x2379 JUMP JUMPDEST PUSH1 0x40 MLOAD DUP1 SWAP2 SUB SWAP1 REVERT JUMPDEST PUSH1 0x5 PUSH1 0x0 PUSH1 0x1 DUP1 ADD PUSH1 0x0 SWAP1 SLOAD SWAP1 PUSH2 0x100 EXP SWAP1 DIV PUSH20 0xFFFFFFFFFFFFFFFFFFFFFFFFFFFFFFFFFFFFFFFF AND PUSH20 0xFFFFFFFFFFFFFFFFFFFFFFFFFFFFFFFFFFFFFFFF AND PUSH20 0xFFFFFFFFFFFFFFFFFFFFFFFFFFFFFFFFFFFFFFFF AND DUP2 MSTORE PUSH1 0x20 ADD SWAP1 DUP2 MSTORE PUSH1 0x20 ADD PUSH1 0x0 KECCAK256 PUSH1 0x0 DUP1 DUP3 ADD PUSH1 0x0 PUSH2 0x25A SWAP2 SWAP1 PUSH2 0x1AED JUMP JUMPDEST PUSH1 0x1 DUP3 ADD PUSH1 0x0 PUSH2 0x100 EXP DUP2 SLOAD SWAP1 PUSH20 0xFFFFFFFFFFFFFFFFFFFFFFFFFFFFFFFFFFFFFFFF MUL NOT AND SWAP1 SSTORE PUSH1 0x1 DUP3 ADD PUSH1 0x14 PUSH2 0x100 EXP DUP2 SLOAD SWAP1 PUSH1 0xFF MUL NOT AND SWAP1 SSTORE POP POP PUSH2 0x2A3 DUP4 DUP4 PUSH1 0x0 PUSH2 0xE6E JUMP JUMPDEST PUSH1 0x1 PUSH1 0x0 DUP3 ADD MLOAD DUP2 PUSH1 0x0 ADD SWAP1 DUP1 MLOAD SWAP1 PUSH1 0x20 ADD SWAP1 PUSH2 0x2C1 SWAP3 SWAP2 SWAP1 PUSH2 0x1B2D JUMP JUMPDEST POP PUSH1 0x20 DUP3 ADD MLOAD DUP2 PUSH1 0x1 ADD PUSH1 0x0 PUSH2 0x100 EXP DUP2 SLOAD DUP2 PUSH20 0xFFFFFFFFFFFFFFFFFFFFFFFFFFFFFFFFFFFFFFFF MUL NOT AND SWAP1 DUP4 PUSH20 0xFFFFFFFFFFFFFFFFFFFFFFFFFFFFFFFFFFFFFFFF AND MUL OR SWAP1 SSTORE POP PUSH1 0x40 DUP3 ADD MLOAD DUP2 PUSH1 0x1 ADD PUSH1 0x14 PUSH2 0x100 EXP DUP2 SLOAD DUP2 PUSH1 0xFF MUL NOT AND SWAP1 DUP4 ISZERO ISZERO MUL OR SWAP1 SSTORE POP SWAP1 POP POP PUSH2 0x337 DUP3 PUSH1 0x1 PUSH2 0x114B JUMP JUMPDEST POP PUSH1 0x1 SWAP1 POP SWAP3 SWAP2 POP POP JUMP JUMPDEST PUSH1 0x0 DUP1 PUSH1 0x0 SWAP1 SLOAD SWAP1 PUSH2 0x100 EXP SWAP1 DIV PUSH1 0xFF AND PUSH2 0x392 JUMPI PUSH1 0x40 MLOAD PUSH32 0x8C379A000000000000000000000000000000000000000000000000000000000 DUP2 MSTORE PUSH1 0x4 ADD PUSH2 0x389 SWAP1 PUSH2 0x23E5 JUMP JUMPDEST PUSH1 0x40 MLOAD DUP1 SWAP2 SUB SWAP1 REVERT JUMPDEST CALLER PUSH20 0xFFFFFFFFFFFFFFFFFFFFFFFFFFFFFFFFFFFFFFFF AND PUSH1 0x1 DUP1 ADD PUSH1 0x0 SWAP1 SLOAD SWAP1 PUSH2 0x100 EXP SWAP1 DIV PUSH20 0xFFFFFFFFFFFFFFFFFFFFFFFFFFFFFFFFFFFFFFFF AND PUSH20 0xFFFFFFFFFFFFFFFFFFFFFFFFFFFFFFFFFFFFFFFF AND EQ DUP1 PUSH2 0x440 JUMPI POP CALLER PUSH20 0xFFFFFFFFFFFFFFFFFFFFFFFFFFFFFFFFFFFFFFFF AND PUSH1 0x3 PUSH1 0x1 ADD PUSH1 0x0 SWAP1 SLOAD SWAP1 PUSH2 0x100 EXP SWAP1 DIV PUSH20 0xFFFFFFFFFFFFFFFFFFFFFFFFFFFFFFFFFFFFFFFF AND PUSH20 0xFFFFFFFFFFFFFFFFFFFFFFFFFFFFFFFFFFFFFFFF AND EQ JUMPDEST PUSH2 0x47F JUMPI PUSH1 0x40 MLOAD PUSH32 0x8C379A000000000000000000000000000000000000000000000000000000000 DUP2 MSTORE PUSH1 0x4 ADD PUSH2 0x476 SWAP1 PUSH2 0x2477 JUMP JUMPDEST PUSH1 0x40 MLOAD DUP1 SWAP2 SUB SWAP1 REVERT JUMPDEST PUSH1 0x1 DUP1 ADD PUSH1 0x0 SWAP1 SLOAD SWAP1 PUSH2 0x100 EXP SWAP1 DIV PUSH20 0xFFFFFFFFFFFFFFFFFFFFFFFFFFFFFFFFFFFFFFFF AND SWAP1 POP SWAP1 JUMP JUMPDEST PUSH1 0x0 DUP1 PUSH1 0x0 SWAP1 SLOAD SWAP1 PUSH2 0x100 EXP SWAP1 DIV PUSH1 0xFF AND PUSH2 0x4F9 JUMPI PUSH1 0x40 MLOAD PUSH32 0x8C379A000000000000000000000000000000000000000000000000000000000 DUP2 MSTORE PUSH1 0x4 ADD PUSH2 0x4F0 SWAP1 PUSH2 0x23E5 JUMP JUMPDEST PUSH1 0x40 MLOAD DUP1 SWAP2 SUB SWAP1 REVERT JUMPDEST CALLER PUSH20 0xFFFFFFFFFFFFFFFFFFFFFFFFFFFFFFFFFFFFFFFF AND PUSH1 0x1 DUP1 ADD PUSH1 0x0 SWAP1 SLOAD SWAP1 PUSH2 0x100 EXP SWAP1 DIV PUSH20 0xFFFFFFFFFFFFFFFFFFFFFFFFFFFFFFFFFFFFFFFF AND PUSH20 0xFFFFFFFFFFFFFFFFFFFFFFFFFFFFFFFFFFFFFFFF AND EQ DUP1 PUSH2 0x5A7 JUMPI POP CALLER PUSH20 0xFFFFFFFFFFFFFFFFFFFFFFFFFFFFFFFFFFFFFFFF AND PUSH1 0x3 PUSH1 0x1 ADD PUSH1 0x0 SWAP1 SLOAD SWAP1 PUSH2 0x100 EXP SWAP1 DIV PUSH20 0xFFFFFFFFFFFFFFFFFFFFFFFFFFFFFFFFFFFFFFFF AND PUSH20 0xFFFFFFFFFFFFFFFFFFFFFFFFFFFFFFFFFFFFFFFF AND EQ JUMPDEST PUSH2 0x5E6 JUMPI PUSH1 0x40 MLOAD PUSH32 0x8C379A000000000000000000000000000000000000000000000000000000000 DUP2 MSTORE PUSH1 0x4 ADD PUSH2 0x5DD SWAP1 PUSH2 0x2477 JUMP JUMPDEST PUSH1 0x40 MLOAD DUP1 SWAP2 SUB SWAP1 REVERT JUMPDEST PUSH1 0x3 PUSH1 0x1 ADD PUSH1 0x0 SWAP1 SLOAD SWAP1 PUSH2 0x100 EXP SWAP1 DIV PUSH20 0xFFFFFFFFFFFFFFFFFFFFFFFFFFFFFFFFFFFFFFFF AND SWAP1 POP SWAP1 JUMP JUMPDEST PUSH1 0x0 DUP1 PUSH1 0x0 SWAP1 SLOAD SWAP1 PUSH2 0x100 EXP SWAP1 DIV PUSH1 0xFF AND PUSH2 0x661 JUMPI PUSH1 0x40 MLOAD PUSH32 0x8C379A000000000000000000000000000000000000000000000000000000000 DUP2 MSTORE PUSH1 0x4 ADD PUSH2 0x658 SWAP1 PUSH2 0x23E5 JUMP JUMPDEST PUSH1 0x40 MLOAD DUP1 SWAP2 SUB SWAP1 REVERT JUMPDEST CALLER PUSH20 0xFFFFFFFFFFFFFFFFFFFFFFFFFFFFFFFFFFFFFFFF AND PUSH1 0x1 DUP1 ADD PUSH1 0x0 SWAP1 SLOAD SWAP1 PUSH2 0x100 EXP SWAP1 DIV PUSH20 0xFFFFFFFFFFFFFFFFFFFFFFFFFFFFFFFFFFFFFFFF AND PUSH20 0xFFFFFFFFFFFFFFFFFFFFFFFFFFFFFFFFFFFFFFFF AND EQ PUSH2 0x6F3 JUMPI PUSH1 0x40 MLOAD PUSH32 0x8C379A000000000000000000000000000000000000000000000000000000000 DUP2 MSTORE PUSH1 0x4 ADD PUSH2 0x6EA SWAP1 PUSH2 0x2509 JUMP JUMPDEST PUSH1 0x40 MLOAD DUP1 SWAP2 SUB SWAP1 REVERT JUMPDEST PUSH1 0x0 ISZERO ISZERO PUSH1 0x1 DUP1 ADD PUSH1 0x14 SWAP1 SLOAD SWAP1 PUSH2 0x100 EXP SWAP1 DIV PUSH1 0xFF AND ISZERO ISZERO EQ PUSH2 0x74B JUMPI PUSH1 0x40 MLOAD PUSH32 0x8C379A000000000000000000000000000000000000000000000000000000000 DUP2 MSTORE PUSH1 0x4 ADD PUSH2 0x742 SWAP1 PUSH2 0x2575 JUMP JUMPDEST PUSH1 0x40 MLOAD DUP1 SWAP2 SUB SWAP1 REVERT JUMPDEST PUSH1 0x1 DUP1 PUSH1 0x1 ADD PUSH1 0x14 PUSH2 0x100 EXP DUP2 SLOAD DUP2 PUSH1 0xFF MUL NOT AND SWAP1 DUP4 ISZERO ISZERO MUL OR SWAP1 SSTORE POP PUSH2 0x773 CALLER PUSH1 0x1 PUSH2 0x114B JUMP JUMPDEST POP PUSH1 0x1 SWAP1 POP SWAP1 JUMP JUMPDEST PUSH1 0x0 DUP1 PUSH1 0x0 SWAP1 SLOAD SWAP1 PUSH2 0x100 EXP SWAP1 DIV PUSH1 0xFF AND PUSH2 0x7CB JUMPI PUSH1 0x40 MLOAD PUSH32 0x8C379A000000000000000000000000000000000000000000000000000000000 DUP2 MSTORE PUSH1 0x4 ADD PUSH2 0x7C2 SWAP1 PUSH2 0x23E5 JUMP JUMPDEST PUSH1 0x40 MLOAD DUP1 SWAP2 SUB SWAP1 REVERT JUMPDEST CALLER PUSH20 0xFFFFFFFFFFFFFFFFFFFFFFFFFFFFFFFFFFFFFFFF AND PUSH1 0x3 PUSH1 0x1 ADD PUSH1 0x0 SWAP1 SLOAD SWAP1 PUSH2 0x100 EXP SWAP1 DIV PUSH20 0xFFFFFFFFFFFFFFFFFFFFFFFFFFFFFFFFFFFFFFFF AND PUSH20 0xFFFFFFFFFFFFFFFFFFFFFFFFFFFFFFFFFFFFFFFF AND EQ PUSH2 0x85E JUMPI PUSH1 0x40 MLOAD PUSH32 0x8C379A000000000000000000000000000000000000000000000000000000000 DUP2 MSTORE PUSH1 0x4 ADD PUSH2 0x855 SWAP1 PUSH2 0x2379 JUMP JUMPDEST PUSH1 0x40 MLOAD DUP1 SWAP2 SUB SWAP1 REVERT JUMPDEST PUSH2 0x8D4 DUP6 PUSH1 0x6 PUSH1 0x0 DUP2 SLOAD DUP2 LT PUSH2 0x877 JUMPI PUSH2 0x876 PUSH2 0x2595 JUMP JUMPDEST JUMPDEST SWAP1 PUSH1 0x0 MSTORE PUSH1 0x20 PUSH1 0x0 KECCAK256 ADD PUSH1 0x40 MLOAD DUP1 PUSH1 0x40 ADD PUSH1 0x40 MSTORE SWAP1 DUP2 PUSH1 0x0 DUP3 ADD PUSH1 0x0 SWAP1 SLOAD SWAP1 PUSH2 0x100 EXP SWAP1 DIV PUSH1 0xFF AND PUSH1 0xFF AND PUSH1 0xFF AND DUP2 MSTORE PUSH1 0x20 ADD PUSH1 0x0 DUP3 ADD PUSH1 0x1 SWAP1 SLOAD SWAP1 PUSH2 0x100 EXP SWAP1 DIV PUSH1 0xFF AND PUSH1 0xFF AND PUSH1 0xFF AND DUP2 MSTORE POP POP PUSH2 0x124E SWAP1 SWAP2 SWAP1 PUSH4 0xFFFFFFFF AND JUMP JUMPDEST DUP1 PUSH2 0x963 JUMPI POP PUSH2 0x962 DUP5 PUSH1 0x7 PUSH1 0x0 DUP2 SLOAD DUP2 LT PUSH2 0x8F3 JUMPI PUSH2 0x8F2 PUSH2 0x2595 JUMP JUMPDEST JUMPDEST SWAP1 PUSH1 0x0 MSTORE PUSH1 0x20 PUSH1 0x0 KECCAK256 ADD PUSH1 0x40 MLOAD DUP1 PUSH1 0x40 ADD PUSH1 0x40 MSTORE SWAP1 DUP2 PUSH1 0x0 DUP3 ADD PUSH1 0x0 SWAP1 SLOAD SWAP1 PUSH2 0x100 EXP SWAP1 DIV PUSH4 0xFFFFFFFF AND PUSH4 0xFFFFFFFF AND PUSH4 0xFFFFFFFF AND DUP2 MSTORE PUSH1 0x20 ADD PUSH1 0x0 DUP3 ADD PUSH1 0x4 SWAP1 SLOAD SWAP1 PUSH2 0x100 EXP SWAP1 DIV PUSH4 0xFFFFFFFF AND PUSH4 0xFFFFFFFF AND PUSH4 0xFFFFFFFF AND DUP2 MSTORE POP POP PUSH2 0x12DA SWAP1 SWAP2 SWAP1 PUSH4 0xFFFFFFFF AND JUMP JUMPDEST JUMPDEST DUP1 PUSH2 0x99C JUMPI POP PUSH2 0x99A DUP4 PUSH1 0x8 PUSH1 0x0 DUP2 SLOAD DUP2 LT PUSH2 0x982 JUMPI PUSH2 0x981 PUSH2 0x2595 JUMP JUMPDEST JUMPDEST SWAP1 PUSH1 0x0 MSTORE PUSH1 0x20 PUSH1 0x0 KECCAK256 ADD PUSH2 0x1384 SWAP1 SWAP2 SWAP1 PUSH4 0xFFFFFFFF AND JUMP JUMPDEST ISZERO JUMPDEST DUP1 PUSH2 0xB2C JUMPI POP PUSH2 0xB2B DUP3 PUSH1 0x0 DUP2 MLOAD DUP2 LT PUSH2 0x9B9 JUMPI PUSH2 0x9B8 PUSH2 0x2595 JUMP JUMPDEST JUMPDEST PUSH1 0x20 MUL PUSH1 0x20 ADD ADD MLOAD PUSH1 0x9 PUSH1 0x0 DUP2 SLOAD DUP2 LT PUSH2 0x9D6 JUMPI PUSH2 0x9D5 PUSH2 0x2595 JUMP JUMPDEST JUMPDEST SWAP1 PUSH1 0x0 MSTORE PUSH1 0x20 PUSH1 0x0 KECCAK256 SWAP1 PUSH1 0x3 MUL ADD PUSH1 0x40 MLOAD DUP1 PUSH1 0x60 ADD PUSH1 0x40 MSTORE SWAP1 DUP2 PUSH1 0x0 DUP3 ADD DUP1 SLOAD PUSH2 0x9FF SWAP1 PUSH2 0x25F3 JUMP JUMPDEST DUP1 PUSH1 0x1F ADD PUSH1 0x20 DUP1 SWAP2 DIV MUL PUSH1 0x20 ADD PUSH1 0x40 MLOAD SWAP1 DUP2 ADD PUSH1 0x40 MSTORE DUP1 SWAP3 SWAP2 SWAP1 DUP2 DUP2 MSTORE PUSH1 0x20 ADD DUP3 DUP1 SLOAD PUSH2 0xA2B SWAP1 PUSH2 0x25F3 JUMP JUMPDEST DUP1 ISZERO PUSH2 0xA78 JUMPI DUP1 PUSH1 0x1F LT PUSH2 0xA4D JUMPI PUSH2 0x100 DUP1 DUP4 SLOAD DIV MUL DUP4 MSTORE SWAP2 PUSH1 0x20 ADD SWAP2 PUSH2 0xA78 JUMP JUMPDEST DUP3 ADD SWAP2 SWAP1 PUSH1 0x0 MSTORE PUSH1 0x20 PUSH1 0x0 KECCAK256 SWAP1 JUMPDEST DUP2 SLOAD DUP2 MSTORE SWAP1 PUSH1 0x1 ADD SWAP1 PUSH1 0x20 ADD DUP1 DUP4 GT PUSH2 0xA5B JUMPI DUP3 SWAP1 SUB PUSH1 0x1F AND DUP3 ADD SWAP2 JUMPDEST POP POP POP POP POP DUP2 MSTORE PUSH1 0x20 ADD PUSH1 0x1 DUP3 ADD DUP1 SLOAD PUSH2 0xA91 SWAP1 PUSH2 0x25F3 JUMP JUMPDEST DUP1 PUSH1 0x1F ADD PUSH1 0x20 DUP1 SWAP2 DIV MUL PUSH1 0x20 ADD PUSH1 0x40 MLOAD SWAP1 DUP2 ADD PUSH1 0x40 MSTORE DUP1 SWAP3 SWAP2 SWAP1 DUP2 DUP2 MSTORE PUSH1 0x20 ADD DUP3 DUP1 SLOAD PUSH2 0xABD SWAP1 PUSH2 0x25F3 JUMP JUMPDEST DUP1 ISZERO PUSH2 0xB0A JUMPI DUP1 PUSH1 0x1F LT PUSH2 0xADF JUMPI PUSH2 0x100 DUP1 DUP4 SLOAD DIV MUL DUP4 MSTORE SWAP2 PUSH1 0x20 ADD SWAP2 PUSH2 0xB0A JUMP JUMPDEST DUP3 ADD SWAP2 SWAP1 PUSH1 0x0 MSTORE PUSH1 0x20 PUSH1 0x0 KECCAK256 SWAP1 JUMPDEST DUP2 SLOAD DUP2 MSTORE SWAP1 PUSH1 0x1 ADD SWAP1 PUSH1 0x20 ADD DUP1 DUP4 GT PUSH2 0xAED JUMPI DUP3 SWAP1 SUB PUSH1 0x1F AND DUP3 ADD SWAP2 JUMPDEST POP POP POP POP POP DUP2 MSTORE PUSH1 0x20 ADD PUSH1 0x2 DUP3 ADD SLOAD DUP2 MSTORE POP POP PUSH2 0x13FD SWAP1 SWAP2 SWAP1 PUSH4 0xFFFFFFFF AND JUMP JUMPDEST JUMPDEST ISZERO PUSH2 0xB6F JUMPI PUSH32 0x66091B7DC2B097C8F60D5CD6AA99633B097F08D2EB1056F3E15361B22E0EA2BA PUSH1 0x40 MLOAD PUSH2 0xB5E SWAP1 PUSH2 0x26BC JUMP JUMPDEST PUSH1 0x40 MLOAD DUP1 SWAP2 SUB SWAP1 LOG1 PUSH1 0x0 SWAP1 POP PUSH2 0xBD0 JUMP JUMPDEST PUSH2 0xB96 PUSH1 0x8 PUSH1 0x0 DUP2 SLOAD DUP2 LT PUSH2 0xB87 JUMPI PUSH2 0xB86 PUSH2 0x2595 JUMP JUMPDEST JUMPDEST SWAP1 PUSH1 0x0 MSTORE PUSH1 0x20 PUSH1 0x0 KECCAK256 ADD PUSH2 0x15EF JUMP JUMPDEST PUSH32 0x95A1F3A1DAFDD4C1AF344E3D7C69A72CBCE8A3F15FE1CF95A7F5BD23DF2E71A1 PUSH1 0x40 MLOAD PUSH2 0xBC3 SWAP1 PUSH2 0x2728 JUMP JUMPDEST PUSH1 0x40 MLOAD DUP1 SWAP2 SUB SWAP1 LOG1 PUSH1 0x1 SWAP1 POP JUMPDEST SWAP5 SWAP4 POP POP POP POP JUMP JUMPDEST PUSH2 0xBE0 PUSH2 0x1BB3 JUMP JUMPDEST PUSH1 0x0 DUP1 SLOAD SWAP1 PUSH2 0x100 EXP SWAP1 DIV PUSH1 0xFF AND PUSH2 0xC2D JUMPI PUSH1 0x40 MLOAD PUSH32 0x8C379A000000000000000000000000000000000000000000000000000000000 DUP2 MSTORE PUSH1 0x4 ADD PUSH2 0xC24 SWAP1 PUSH2 0x23E5 JUMP JUMPDEST PUSH1 0x40 MLOAD DUP1 SWAP2 SUB SWAP1 REVERT JUMPDEST CALLER PUSH20 0xFFFFFFFFFFFFFFFFFFFFFFFFFFFFFFFFFFFFFFFF AND PUSH1 0x1 DUP1 ADD PUSH1 0x0 SWAP1 SLOAD SWAP1 PUSH2 0x100 EXP SWAP1 DIV PUSH20 0xFFFFFFFFFFFFFFFFFFFFFFFFFFFFFFFFFFFFFFFF AND PUSH20 0xFFFFFFFFFFFFFFFFFFFFFFFFFFFFFFFFFFFFFFFF AND EQ DUP1 PUSH2 0xCDB JUMPI POP CALLER PUSH20 0xFFFFFFFFFFFFFFFFFFFFFFFFFFFFFFFFFFFFFFFF AND PUSH1 0x3 PUSH1 0x1 ADD PUSH1 0x0 SWAP1 SLOAD SWAP1 PUSH2 0x100 EXP SWAP1 DIV PUSH20 0xFFFFFFFFFFFFFFFFFFFFFFFFFFFFFFFFFFFFFFFF AND PUSH20 0xFFFFFFFFFFFFFFFFFFFFFFFFFFFFFFFFFFFFFFFF AND EQ JUMPDEST PUSH2 0xD1A JUMPI PUSH1 0x40 MLOAD PUSH32 0x8C379A000000000000000000000000000000000000000000000000000000000 DUP2 MSTORE PUSH1 0x4 ADD PUSH2 0xD11 SWAP1 PUSH2 0x2477 JUMP JUMPDEST PUSH1 0x40 MLOAD DUP1 SWAP2 SUB SWAP1 REVERT JUMPDEST PUSH1 0x5 PUSH1 0x0 DUP4 PUSH20 0xFFFFFFFFFFFFFFFFFFFFFFFFFFFFFFFFFFFFFFFF AND PUSH20 0xFFFFFFFFFFFFFFFFFFFFFFFFFFFFFFFFFFFFFFFF AND DUP2 MSTORE PUSH1 0x20 ADD SWAP1 DUP2 MSTORE PUSH1 0x20 ADD PUSH1 0x0 KECCAK256 PUSH1 0x40 MLOAD DUP1 PUSH1 0x60 ADD PUSH1 0x40 MSTORE SWAP1 DUP2 PUSH1 0x0 DUP3 ADD DUP1 SLOAD PUSH2 0xD74 SWAP1 PUSH2 0x25F3 JUMP JUMPDEST DUP1 PUSH1 0x1F ADD PUSH1 0x20 DUP1 SWAP2 DIV MUL PUSH1 0x20 ADD PUSH1 0x40 MLOAD SWAP1 DUP2 ADD PUSH1 0x40 MSTORE DUP1 SWAP3 SWAP2 SWAP1 DUP2 DUP2 MSTORE PUSH1 0x20 ADD DUP3 DUP1 SLOAD PUSH2 0xDA0 SWAP1 PUSH2 0x25F3 JUMP JUMPDEST DUP1 ISZERO PUSH2 0xDED JUMPI DUP1 PUSH1 0x1F LT PUSH2 0xDC2 JUMPI PUSH2 0x100 DUP1 DUP4 SLOAD DIV MUL DUP4 MSTORE SWAP2 PUSH1 0x20 ADD SWAP2 PUSH2 0xDED JUMP JUMPDEST DUP3 ADD SWAP2 SWAP1 PUSH1 0x0 MSTORE PUSH1 0x20 PUSH1 0x0 KECCAK256 SWAP1 JUMPDEST DUP2 SLOAD DUP2 MSTORE SWAP1 PUSH1 0x1 ADD SWAP1 PUSH1 0x20 ADD DUP1 DUP4 GT PUSH2 0xDD0 JUMPI DUP3 SWAP1 SUB PUSH1 0x1F AND DUP3 ADD SWAP2 JUMPDEST POP POP POP POP POP DUP2 MSTORE PUSH1 0x20 ADD PUSH1 0x1 DUP3 ADD PUSH1 0x0 SWAP1 SLOAD SWAP1 PUSH2 0x100 EXP SWAP1 DIV PUSH20 0xFFFFFFFFFFFFFFFFFFFFFFFFFFFFFFFFFFFFFFFF AND PUSH20 0xFFFFFFFFFFFFFFFFFFFFFFFFFFFFFFFFFFFFFFFF AND PUSH20 0xFFFFFFFFFFFFFFFFFFFFFFFFFFFFFFFFFFFFFFFF AND DUP2 MSTORE PUSH1 0x20 ADD PUSH1 0x1 DUP3 ADD PUSH1 0x14 SWAP1 SLOAD SWAP1 PUSH2 0x100 EXP SWAP1 DIV PUSH1 0xFF AND ISZERO ISZERO ISZERO ISZERO DUP2 MSTORE POP POP SWAP1 POP SWAP2 SWAP1 POP JUMP JUMPDEST PUSH2 0xE76 PUSH2 0x1BB3 JUMP JUMPDEST PUSH1 0x40 MLOAD DUP1 PUSH1 0x60 ADD PUSH1 0x40 MSTORE DUP1 DUP6 DUP2 MSTORE PUSH1 0x20 ADD DUP5 PUSH20 0xFFFFFFFFFFFFFFFFFFFFFFFFFFFFFFFFFFFFFFFF AND DUP2 MSTORE PUSH1 0x20 ADD DUP4 ISZERO ISZERO DUP2 MSTORE POP SWAP1 POP SWAP4 SWAP3 POP POP POP JUMP JUMPDEST PUSH2 0xEBA PUSH2 0x1BEC JUMP JUMPDEST DUP3 DUP3 PUSH1 0x0 PUSH1 0xFF AND DUP3 PUSH1 0xFF AND LT ISZERO DUP1 ISZERO PUSH2 0xEDA JUMPI POP PUSH1 0x6 PUSH1 0xFF AND DUP3 PUSH1 0xFF AND GT ISZERO JUMPDEST PUSH2 0xF19 JUMPI PUSH1 0x40 MLOAD PUSH32 0x8C379A000000000000000000000000000000000000000000000000000000000 DUP2 MSTORE PUSH1 0x4 ADD PUSH2 0xF10 SWAP1 PUSH2 0x27BA JUMP JUMPDEST PUSH1 0x40 MLOAD DUP1 SWAP2 SUB SWAP1 REVERT JUMPDEST PUSH1 0x0 PUSH1 0xFF AND DUP2 PUSH1 0xFF AND LT ISZERO DUP1 ISZERO PUSH2 0xF37 JUMPI POP PUSH1 0x6 PUSH1 0xFF AND DUP2 PUSH1 0xFF AND GT ISZERO JUMPDEST PUSH2 0xF76 JUMPI PUSH1 0x40 MLOAD PUSH32 0x8C379A000000000000000000000000000000000000000000000000000000000 DUP2 MSTORE PUSH1 0x4 ADD PUSH2 0xF6D SWAP1 PUSH2 0x284C JUMP JUMPDEST PUSH1 0x40 MLOAD DUP1 SWAP2 SUB SWAP1 REVERT JUMPDEST PUSH1 0x40 MLOAD DUP1 PUSH1 0x40 ADD PUSH1 0x40 MSTORE DUP1 DUP7 PUSH1 0xFF AND DUP2 MSTORE PUSH1 0x20 ADD DUP6 PUSH1 0xFF AND DUP2 MSTORE POP SWAP3 POP POP POP SWAP3 SWAP2 POP POP JUMP JUMPDEST PUSH2 0xFA3 PUSH2 0x1C0C JUMP JUMPDEST DUP3 DUP3 PUSH1 0x0 PUSH4 0xFFFFFFFF AND DUP3 PUSH4 0xFFFFFFFF AND LT ISZERO DUP1 ISZERO PUSH2 0xFD1 JUMPI POP PUSH3 0x1517F PUSH4 0xFFFFFFFF AND DUP3 PUSH4 0xFFFFFFFF AND GT ISZERO JUMPDEST PUSH2 0x1010 JUMPI PUSH1 0x40 MLOAD PUSH32 0x8C379A000000000000000000000000000000000000000000000000000000000 DUP2 MSTORE PUSH1 0x4 ADD PUSH2 0x1007 SWAP1 PUSH2 0x27BA JUMP JUMPDEST PUSH1 0x40 MLOAD DUP1 SWAP2 SUB SWAP1 REVERT JUMPDEST PUSH1 0x0 PUSH4 0xFFFFFFFF AND DUP2 PUSH4 0xFFFFFFFF AND LT ISZERO DUP1 ISZERO PUSH2 0x103C JUMPI POP PUSH3 0x1517F PUSH4 0xFFFFFFFF AND DUP2 PUSH4 0xFFFFFFFF AND GT ISZERO JUMPDEST PUSH2 0x107B JUMPI PUSH1 0x40 MLOAD PUSH32 0x8C379A000000000000000000000000000000000000000000000000000000000 DUP2 MSTORE PUSH1 0x4 ADD PUSH2 0x1072 SWAP1 PUSH2 0x284C JUMP JUMPDEST PUSH1 0x40 MLOAD DUP1 SWAP2 SUB SWAP1 REVERT JUMPDEST PUSH1 0x40 MLOAD DUP1 PUSH1 0x40 ADD PUSH1 0x40 MSTORE DUP1 DUP7 PUSH4 0xFFFFFFFF AND DUP2 MSTORE PUSH1 0x20 ADD DUP6 PUSH4 0xFFFFFFFF AND DUP2 MSTORE POP SWAP3 POP POP POP SWAP3 SWAP2 POP POP JUMP JUMPDEST PUSH2 0x10AE PUSH2 0x1C32 JUMP JUMPDEST PUSH1 0x0 PUSH1 0x4 PUSH1 0xFF AND DUP4 PUSH1 0xFF AND GT PUSH2 0x10CE JUMPI PUSH2 0x10C7 DUP4 PUSH2 0x1634 JUMP JUMPDEST SWAP1 POP PUSH2 0x10D3 JUMP JUMPDEST PUSH1 0x1 SWAP1 POP JUMPDEST PUSH1 0x40 MLOAD DUP1 PUSH1 0xA0 ADD PUSH1 0x40 MSTORE DUP1 DUP6 PUSH4 0xFFFFFFFF AND DUP2 MSTORE PUSH1 0x20 ADD DUP5 PUSH1 0xFF AND DUP2 MSTORE PUSH1 0x20 ADD DUP3 PUSH4 0xFFFFFFFF AND DUP2 MSTORE PUSH1 0x20 ADD DUP6 PUSH4 0xFFFFFFFF AND DUP2 MSTORE PUSH1 0x20 ADD PUSH1 0x0 PUSH4 0xFFFFFFFF AND DUP2 MSTORE POP SWAP2 POP POP SWAP3 SWAP2 POP POP JUMP JUMPDEST PUSH2 0x1127 PUSH2 0x1C7C JUMP JUMPDEST PUSH1 0x40 MLOAD DUP1 PUSH1 0x60 ADD PUSH1 0x40 MSTORE DUP1 DUP6 DUP2 MSTORE PUSH1 0x20 ADD DUP5 DUP2 MSTORE PUSH1 0x20 ADD DUP4 DUP2 MSTORE POP SWAP1 POP SWAP4 SWAP3 POP POP POP JUMP JUMPDEST PUSH1 0x0 DUP2 PUSH1 0x5 PUSH1 0x0 DUP6 PUSH20 0xFFFFFFFFFFFFFFFFFFFFFFFFFFFFFFFFFFFFFFFF AND PUSH20 0xFFFFFFFFFFFFFFFFFFFFFFFFFFFFFFFFFFFFFFFF AND DUP2 MSTORE PUSH1 0x20 ADD SWAP1 DUP2 MSTORE PUSH1 0x20 ADD PUSH1 0x0 KECCAK256 PUSH1 0x0 DUP3 ADD DUP2 PUSH1 0x0 ADD SWAP1 DUP1 SLOAD PUSH2 0x11A1 SWAP1 PUSH2 0x25F3 JUMP JUMPDEST PUSH2 0x11AC SWAP3 SWAP2 SWAP1 PUSH2 0x1C9D JUMP JUMPDEST POP PUSH1 0x1 DUP3 ADD PUSH1 0x0 SWAP1 SLOAD SWAP1 PUSH2 0x100 EXP SWAP1 DIV PUSH20 0xFFFFFFFFFFFFFFFFFFFFFFFFFFFFFFFFFFFFFFFF AND DUP2 PUSH1 0x1 ADD PUSH1 0x0 PUSH2 0x100 EXP DUP2 SLOAD DUP2 PUSH20 0xFFFFFFFFFFFFFFFFFFFFFFFFFFFFFFFFFFFFFFFF MUL NOT AND SWAP1 DUP4 PUSH20 0xFFFFFFFFFFFFFFFFFFFFFFFFFFFFFFFFFFFFFFFF AND MUL OR SWAP1 SSTORE POP PUSH1 0x1 DUP3 ADD PUSH1 0x14 SWAP1 SLOAD SWAP1 PUSH2 0x100 EXP SWAP1 DIV PUSH1 0xFF AND DUP2 PUSH1 0x1 ADD PUSH1 0x14 PUSH2 0x100 EXP DUP2 SLOAD DUP2 PUSH1 0xFF MUL NOT AND SWAP1 DUP4 ISZERO ISZERO MUL OR SWAP1 SSTORE POP SWAP1 POP POP PUSH1 0x1 SWAP1 POP SWAP3 SWAP2 POP POP JUMP JUMPDEST PUSH1 0x0 DUP3 PUSH1 0x20 ADD MLOAD PUSH1 0xFF AND DUP4 PUSH1 0x0 ADD MLOAD PUSH1 0xFF AND LT ISZERO PUSH2 0x129D JUMPI DUP3 PUSH1 0x0 ADD MLOAD PUSH1 0xFF AND DUP3 PUSH1 0xFF AND LT ISZERO DUP1 ISZERO PUSH2 0x128A JUMPI POP DUP3 PUSH1 0x20 ADD MLOAD PUSH1 0xFF AND DUP3 PUSH1 0xFF AND GT ISZERO JUMPDEST ISZERO PUSH2 0x1298 JUMPI PUSH1 0x1 SWAP1 POP PUSH2 0x12D4 JUMP JUMPDEST PUSH2 0x12CF JUMP JUMPDEST DUP3 PUSH1 0x0 ADD MLOAD PUSH1 0xFF AND DUP3 PUSH1 0xFF AND LT ISZERO DUP1 PUSH2 0x12C0 JUMPI POP DUP3 PUSH1 0x20 ADD MLOAD PUSH1 0xFF AND DUP3 PUSH1 0xFF AND GT ISZERO JUMPDEST ISZERO PUSH2 0x12CE JUMPI PUSH1 0x1 SWAP1 POP PUSH2 0x12D4 JUMP JUMPDEST JUMPDEST PUSH1 0x0 SWAP1 POP JUMPDEST SWAP3 SWAP2 POP POP JUMP JUMPDEST PUSH1 0x0 DUP3 PUSH1 0x20 ADD MLOAD PUSH4 0xFFFFFFFF AND DUP4 PUSH1 0x0 ADD MLOAD PUSH4 0xFFFFFFFF AND LT ISZERO PUSH2 0x133B JUMPI DUP3 PUSH1 0x0 ADD MLOAD PUSH4 0xFFFFFFFF AND DUP3 PUSH4 0xFFFFFFFF AND LT ISZERO DUP1 ISZERO PUSH2 0x1328 JUMPI POP DUP3 PUSH1 0x20 ADD MLOAD PUSH4 0xFFFFFFFF AND DUP3 PUSH4 0xFFFFFFFF AND GT ISZERO JUMPDEST ISZERO PUSH2 0x1336 JUMPI PUSH1 0x1 SWAP1 POP PUSH2 0x137E JUMP JUMPDEST PUSH2 0x1379 JUMP JUMPDEST DUP3 PUSH1 0x0 ADD MLOAD PUSH4 0xFFFFFFFF AND DUP3 PUSH4 0xFFFFFFFF AND LT ISZERO DUP1 PUSH2 0x136A JUMPI POP DUP3 PUSH1 0x20 ADD MLOAD PUSH4 0xFFFFFFFF AND DUP3 PUSH4 0xFFFFFFFF AND GT ISZERO JUMPDEST ISZERO PUSH2 0x1378 JUMPI PUSH1 0x1 SWAP1 POP PUSH2 0x137E JUMP JUMPDEST JUMPDEST PUSH1 0x0 SWAP1 POP JUMPDEST SWAP3 SWAP2 POP POP JUMP JUMPDEST PUSH1 0x0 PUSH2 0x13B6 DUP4 PUSH1 0x0 ADD PUSH1 0x4 SWAP1 SLOAD SWAP1 PUSH2 0x100 EXP SWAP1 DIV PUSH1 0xFF AND DUP5 PUSH1 0x0 ADD PUSH1 0xD SWAP1 SLOAD SWAP1 PUSH2 0x100 EXP SWAP1 DIV PUSH4 0xFFFFFFFF AND DUP5 PUSH2 0x16EB JUMP JUMPDEST ISZERO PUSH2 0x13C6 JUMPI PUSH2 0x13C5 DUP4 DUP4 PUSH2 0x17B0 JUMP JUMPDEST JUMPDEST PUSH1 0x0 DUP4 PUSH1 0x0 ADD PUSH1 0x9 SWAP1 SLOAD SWAP1 PUSH2 0x100 EXP SWAP1 DIV PUSH4 0xFFFFFFFF AND PUSH4 0xFFFFFFFF AND GT ISZERO PUSH2 0x13F2 JUMPI PUSH1 0x1 SWAP1 POP PUSH2 0x13F7 JUMP JUMPDEST PUSH1 0x0 SWAP1 POP JUMPDEST SWAP3 SWAP2 POP POP JUMP JUMPDEST PUSH1 0x0 DUP1 DUP4 PUSH1 0x20 ADD MLOAD SWAP1 POP PUSH1 0x21 PUSH1 0xF8 SHL DUP2 PUSH1 0x0 DUP2 MLOAD DUP2 LT PUSH2 0x1420 JUMPI PUSH2 0x141F PUSH2 0x2595 JUMP JUMPDEST JUMPDEST PUSH1 0x20 ADD ADD MLOAD PUSH1 0xF8 SHR PUSH1 0xF8 SHL PUSH31 0xFFFFFFFFFFFFFFFFFFFFFFFFFFFFFFFFFFFFFFFFFFFFFFFFFFFFFFFFFFFFFF NOT AND SUB PUSH2 0x1462 JUMPI DUP4 PUSH1 0x40 ADD MLOAD DUP4 EQ ISZERO SWAP2 POP POP PUSH2 0x15E9 JUMP JUMPDEST PUSH1 0x3D PUSH1 0xF8 SHL DUP2 PUSH1 0x0 DUP2 MLOAD DUP2 LT PUSH2 0x147B JUMPI PUSH2 0x147A PUSH2 0x2595 JUMP JUMPDEST JUMPDEST PUSH1 0x20 ADD ADD MLOAD PUSH1 0xF8 SHR PUSH1 0xF8 SHL PUSH31 0xFFFFFFFFFFFFFFFFFFFFFFFFFFFFFFFFFFFFFFFFFFFFFFFFFFFFFFFFFFFFFF NOT AND SUB PUSH2 0x14BC JUMPI DUP4 PUSH1 0x40 ADD MLOAD DUP4 EQ SWAP2 POP POP PUSH2 0x15E9 JUMP JUMPDEST PUSH1 0x3C PUSH1 0xF8 SHL DUP2 PUSH1 0x0 DUP2 MLOAD DUP2 LT PUSH2 0x14D5 JUMPI PUSH2 0x14D4 PUSH2 0x2595 JUMP JUMPDEST JUMPDEST PUSH1 0x20 ADD ADD MLOAD PUSH1 0xF8 SHR PUSH1 0xF8 SHL PUSH31 0xFFFFFFFFFFFFFFFFFFFFFFFFFFFFFFFFFFFFFFFFFFFFFFFFFFFFFFFFFFFFFF NOT AND SUB PUSH2 0x152F JUMPI PUSH1 0x2 DUP2 MLOAD SUB PUSH2 0x1520 JUMPI DUP4 PUSH1 0x40 ADD MLOAD DUP4 SGT ISZERO SWAP2 POP POP PUSH2 0x15E9 JUMP JUMPDEST DUP4 PUSH1 0x40 ADD MLOAD DUP4 SLT SWAP2 POP POP PUSH2 0x15E9 JUMP JUMPDEST PUSH1 0x3E PUSH1 0xF8 SHL DUP2 PUSH1 0x0 DUP2 MLOAD DUP2 LT PUSH2 0x1548 JUMPI PUSH2 0x1547 PUSH2 0x2595 JUMP JUMPDEST JUMPDEST PUSH1 0x20 ADD ADD MLOAD PUSH1 0xF8 SHR PUSH1 0xF8 SHL PUSH31 0xFFFFFFFFFFFFFFFFFFFFFFFFFFFFFFFFFFFFFFFFFFFFFFFFFFFFFFFFFFFFFF NOT AND SUB PUSH2 0x15A2 JUMPI PUSH1 0x2 DUP2 MLOAD SUB PUSH2 0x1593 JUMPI DUP4 PUSH1 0x40 ADD MLOAD DUP4 SLT ISZERO SWAP2 POP POP PUSH2 0x15E9 JUMP JUMPDEST DUP4 PUSH1 0x40 ADD MLOAD DUP4 SGT SWAP2 POP POP PUSH2 0x15E9 JUMP JUMPDEST PUSH1 0x0 PUSH2 0x15E3 JUMPI PUSH1 0x40 MLOAD PUSH32 0x8C379A000000000000000000000000000000000000000000000000000000000 DUP2 MSTORE PUSH1 0x4 ADD PUSH2 0x15DA SWAP1 PUSH2 0x28B8 JUMP JUMPDEST PUSH1 0x40 MLOAD DUP1 SWAP2 SUB SWAP1 REVERT JUMPDEST PUSH1 0x0 SWAP2 POP POP JUMPDEST SWAP3 SWAP2 POP POP JUMP JUMPDEST PUSH1 0x1 DUP2 PUSH1 0x0 ADD PUSH1 0x9 DUP3 DUP3 DUP3 SWAP1 SLOAD SWAP1 PUSH2 0x100 EXP SWAP1 DIV PUSH4 0xFFFFFFFF AND PUSH2 0x1613 SWAP2 SWAP1 PUSH2 0x2907 JUMP JUMPDEST SWAP3 POP PUSH2 0x100 EXP DUP2 SLOAD DUP2 PUSH4 0xFFFFFFFF MUL NOT AND SWAP1 DUP4 PUSH4 0xFFFFFFFF AND MUL OR SWAP1 SSTORE POP POP JUMP JUMPDEST PUSH1 0x0 PUSH1 0x4 PUSH1 0xFF AND DUP3 PUSH1 0xFF AND GT ISZERO PUSH2 0x1680 JUMPI PUSH1 0x40 MLOAD PUSH32 0x8C379A000000000000000000000000000000000000000000000000000000000 DUP2 MSTORE PUSH1 0x4 ADD PUSH2 0x1677 SWAP1 PUSH2 0x29AD JUMP JUMPDEST PUSH1 0x40 MLOAD DUP1 SWAP2 SUB SWAP1 REVERT JUMPDEST PUSH1 0x0 PUSH1 0xFF AND DUP3 PUSH1 0xFF AND SUB PUSH2 0x1697 JUMPI PUSH1 0x1 SWAP1 POP PUSH2 0x16E6 JUMP JUMPDEST PUSH1 0x1 PUSH1 0xFF AND DUP3 PUSH1 0xFF AND SUB PUSH2 0x16AE JUMPI PUSH1 0x3C SWAP1 POP PUSH2 0x16E6 JUMP JUMPDEST PUSH1 0x2 PUSH1 0xFF AND DUP3 PUSH1 0xFF AND SUB PUSH2 0x16C6 JUMPI PUSH2 0xE10 SWAP1 POP PUSH2 0x16E6 JUMP JUMPDEST PUSH1 0x3 PUSH1 0xFF AND DUP3 PUSH1 0xFF AND SUB PUSH2 0x16DF JUMPI PUSH3 0x15180 SWAP1 POP PUSH2 0x16E6 JUMP JUMPDEST PUSH3 0x93A80 SWAP1 POP JUMPDEST SWAP2 SWAP1 POP JUMP JUMPDEST PUSH1 0x0 DUP1 DUP5 SWAP1 POP PUSH1 0x4 PUSH1 0xFF AND DUP2 PUSH1 0xFF AND GT PUSH2 0x1717 JUMPI DUP4 PUSH4 0xFFFFFFFF AND DUP4 PUSH4 0xFFFFFFFF AND LT ISZERO SWAP2 POP POP PUSH2 0x17A9 JUMP JUMPDEST PUSH1 0x5 PUSH1 0xFF AND DUP2 PUSH1 0xFF AND SUB PUSH2 0x177F JUMPI PUSH1 0x0 PUSH2 0x1736 DUP5 PUSH4 0xFFFFFFFF AND PUSH2 0x183D JUMP JUMPDEST POP SWAP2 POP POP PUSH1 0xD DUP6 PUSH4 0xFFFFFFFF AND EQ DUP1 ISZERO PUSH2 0x1756 JUMPI POP PUSH1 0x1 DUP2 PUSH4 0xFFFFFFFF AND EQ JUMPDEST ISZERO PUSH2 0x1766 JUMPI PUSH1 0x1 SWAP3 POP POP POP PUSH2 0x17A9 JUMP JUMPDEST DUP5 PUSH4 0xFFFFFFFF AND DUP2 PUSH4 0xFFFFFFFF AND LT ISZERO SWAP3 POP POP POP PUSH2 0x17A9 JUMP JUMPDEST PUSH1 0x0 PUSH2 0x1790 DUP5 PUSH4 0xFFFFFFFF AND PUSH2 0x183D JUMP JUMPDEST POP POP SWAP1 POP DUP5 PUSH4 0xFFFFFFFF AND DUP2 PUSH4 0xFFFFFFFF AND LT ISZERO SWAP3 POP POP POP JUMPDEST SWAP4 SWAP3 POP POP POP JUMP JUMPDEST DUP2 PUSH1 0x0 ADD PUSH1 0x0 SWAP1 SLOAD SWAP1 PUSH2 0x100 EXP SWAP1 DIV PUSH4 0xFFFFFFFF AND DUP3 PUSH1 0x0 ADD PUSH1 0x9 PUSH2 0x100 EXP DUP2 SLOAD DUP2 PUSH4 0xFFFFFFFF MUL NOT AND SWAP1 DUP4 PUSH4 0xFFFFFFFF AND MUL OR SWAP1 SSTORE POP PUSH2 0x1817 DUP3 PUSH1 0x0 ADD PUSH1 0x5 SWAP1 SLOAD SWAP1 PUSH2 0x100 EXP SWAP1 DIV PUSH4 0xFFFFFFFF AND DUP4 PUSH1 0x0 ADD PUSH1 0x4 SWAP1 SLOAD SWAP1 PUSH2 0x100 EXP SWAP1 DIV PUSH1 0xFF AND DUP4 PUSH2 0x19F0 JUMP JUMPDEST DUP3 PUSH1 0x0 ADD PUSH1 0xD PUSH2 0x100 EXP DUP2 SLOAD DUP2 PUSH4 0xFFFFFFFF MUL NOT AND SWAP1 DUP4 PUSH4 0xFFFFFFFF AND MUL OR SWAP1 SSTORE POP POP POP JUMP JUMPDEST PUSH1 0x0 DUP1 PUSH1 0x0 DUP1 PUSH3 0x15180 PUSH4 0xFFFFFFFF AND DUP6 PUSH2 0x1858 SWAP2 SWAP1 PUSH2 0x2A06 JUMP JUMPDEST SWAP1 POP PUSH1 0x0 PUSH3 0x253D8C PUSH3 0x10BD9 DUP4 PUSH2 0x186F SWAP2 SWAP1 PUSH2 0x2A37 JUMP JUMPDEST PUSH2 0x1879 SWAP2 SWAP1 PUSH2 0x2A37 JUMP JUMPDEST SWAP1 POP PUSH1 0x0 PUSH3 0x23AB1 DUP3 PUSH1 0x4 PUSH2 0x188E SWAP2 SWAP1 PUSH2 0x2A71 JUMP JUMPDEST PUSH2 0x1898 SWAP2 SWAP1 PUSH2 0x2AAF JUMP JUMPDEST SWAP1 POP PUSH1 0x4 PUSH1 0x3 DUP3 PUSH3 0x23AB1 PUSH2 0x18AD SWAP2 SWAP1 PUSH2 0x2A71 JUMP JUMPDEST PUSH2 0x18B7 SWAP2 SWAP1 PUSH2 0x2A37 JUMP JUMPDEST PUSH2 0x18C1 SWAP2 SWAP1 PUSH2 0x2AAF JUMP JUMPDEST DUP3 PUSH2 0x18CC SWAP2 SWAP1 PUSH2 0x2907 JUMP JUMPDEST SWAP2 POP PUSH1 0x0 PUSH3 0x164B09 PUSH1 0x1 DUP5 PUSH2 0x18E1 SWAP2 SWAP1 PUSH2 0x2A37 JUMP JUMPDEST PUSH2 0xFA0 PUSH2 0x18EE SWAP2 SWAP1 PUSH2 0x2A71 JUMP JUMPDEST PUSH2 0x18F8 SWAP2 SWAP1 PUSH2 0x2AAF JUMP JUMPDEST SWAP1 POP PUSH1 0x1F PUSH1 0x4 DUP3 PUSH2 0x5B5 PUSH2 0x190C SWAP2 SWAP1 PUSH2 0x2A71 JUMP JUMPDEST PUSH2 0x1916 SWAP2 SWAP1 PUSH2 0x2AAF JUMP JUMPDEST DUP5 PUSH2 0x1921 SWAP2 SWAP1 PUSH2 0x2907 JUMP JUMPDEST PUSH2 0x192B SWAP2 SWAP1 PUSH2 0x2A37 JUMP JUMPDEST SWAP3 POP PUSH1 0x0 PUSH2 0x98F DUP5 PUSH1 0x50 PUSH2 0x193F SWAP2 SWAP1 PUSH2 0x2A71 JUMP JUMPDEST PUSH2 0x1949 SWAP2 SWAP1 PUSH2 0x2AAF JUMP JUMPDEST SWAP1 POP PUSH1 0x0 PUSH1 0x50 DUP3 PUSH2 0x98F PUSH2 0x195D SWAP2 SWAP1 PUSH2 0x2A71 JUMP JUMPDEST PUSH2 0x1967 SWAP2 SWAP1 PUSH2 0x2AAF JUMP JUMPDEST DUP6 PUSH2 0x1972 SWAP2 SWAP1 PUSH2 0x2907 JUMP JUMPDEST SWAP1 POP PUSH1 0xB DUP3 PUSH2 0x1981 SWAP2 SWAP1 PUSH2 0x2AAF JUMP JUMPDEST SWAP5 POP DUP5 PUSH1 0xC PUSH2 0x1990 SWAP2 SWAP1 PUSH2 0x2A71 JUMP JUMPDEST PUSH1 0x2 DUP4 PUSH2 0x199D SWAP2 SWAP1 PUSH2 0x2A37 JUMP JUMPDEST PUSH2 0x19A7 SWAP2 SWAP1 PUSH2 0x2907 JUMP JUMPDEST SWAP2 POP DUP5 DUP4 PUSH1 0x31 DUP7 PUSH2 0x19B8 SWAP2 SWAP1 PUSH2 0x2907 JUMP JUMPDEST PUSH1 0x64 PUSH2 0x19C4 SWAP2 SWAP1 PUSH2 0x2A71 JUMP JUMPDEST PUSH2 0x19CE SWAP2 SWAP1 PUSH2 0x2A37 JUMP JUMPDEST PUSH2 0x19D8 SWAP2 SWAP1 PUSH2 0x2A37 JUMP JUMPDEST SWAP3 POP DUP3 SWAP9 POP DUP2 SWAP8 POP DUP1 SWAP7 POP POP POP POP POP POP POP SWAP2 SWAP4 SWAP1 SWAP3 POP JUMP JUMPDEST PUSH1 0x0 PUSH1 0x4 PUSH1 0xFF AND DUP4 PUSH1 0xFF AND GT PUSH2 0x1A12 JUMPI PUSH2 0x1A0B DUP4 DUP4 DUP7 PUSH2 0x1A83 JUMP JUMPDEST SWAP1 POP PUSH2 0x1A7C JUMP JUMPDEST PUSH1 0x5 PUSH1 0xFF AND DUP4 PUSH1 0xFF AND SUB PUSH2 0x1A50 JUMPI PUSH1 0x0 PUSH2 0x1A31 DUP4 PUSH4 0xFFFFFFFF AND PUSH2 0x183D JUMP JUMPDEST POP PUSH4 0xFFFFFFFF AND SWAP2 POP POP PUSH1 0x1 DUP2 PUSH2 0x1A48 SWAP2 SWAP1 PUSH2 0x2AE0 JUMP JUMPDEST SWAP2 POP POP PUSH2 0x1A7C JUMP JUMPDEST PUSH1 0x0 PUSH2 0x1A61 DUP4 PUSH4 0xFFFFFFFF AND PUSH2 0x183D JUMP JUMPDEST POP POP PUSH4 0xFFFFFFFF AND SWAP1 POP PUSH1 0x1 DUP2 PUSH2 0x1A78 SWAP2 SWAP1 PUSH2 0x2AE0 JUMP JUMPDEST SWAP2 POP POP JUMPDEST SWAP4 SWAP3 POP POP POP JUMP JUMPDEST PUSH1 0x0 DUP1 DUP3 DUP5 PUSH2 0x1A92 SWAP2 SWAP1 PUSH2 0x2B36 JUMP JUMPDEST SWAP1 POP PUSH1 0x0 DUP2 DUP5 PUSH2 0x1AA2 SWAP2 SWAP1 PUSH2 0x2907 JUMP JUMPDEST SWAP1 POP PUSH1 0x4 PUSH1 0xFF AND DUP7 PUSH1 0xFF AND SUB PUSH2 0x1AD5 JUMPI PUSH3 0x3F480 DUP2 DUP7 PUSH2 0x1AC2 SWAP2 SWAP1 PUSH2 0x2A37 JUMP JUMPDEST PUSH2 0x1ACC SWAP2 SWAP1 PUSH2 0x2A37 JUMP JUMPDEST SWAP3 POP POP POP PUSH2 0x1AE6 JUMP JUMPDEST DUP1 DUP6 PUSH2 0x1AE1 SWAP2 SWAP1 PUSH2 0x2A37 JUMP JUMPDEST SWAP3 POP POP POP JUMPDEST SWAP4 SWAP3 POP POP POP JUMP JUMPDEST POP DUP1 SLOAD PUSH2 0x1AF9 SWAP1 PUSH2 0x25F3 JUMP JUMPDEST PUSH1 0x0 DUP3 SSTORE DUP1 PUSH1 0x1F LT PUSH2 0x1B0B JUMPI POP PUSH2 0x1B2A JUMP JUMPDEST PUSH1 0x1F ADD PUSH1 0x20 SWAP1 DIV SWAP1 PUSH1 0x0 MSTORE PUSH1 0x20 PUSH1 0x0 KECCAK256 SWAP1 DUP2 ADD SWAP1 PUSH2 0x1B29 SWAP2 SWAP1 PUSH2 0x1D2A JUMP JUMPDEST JUMPDEST POP JUMP JUMPDEST DUP3 DUP1 SLOAD PUSH2 0x1B39 SWAP1 PUSH2 0x25F3 JUMP JUMPDEST SWAP1 PUSH1 0x0 MSTORE PUSH1 0x20 PUSH1 0x0 KECCAK256 SWAP1 PUSH1 0x1F ADD PUSH1 0x20 SWAP1 DIV DUP2 ADD SWAP3 DUP3 PUSH2 0x1B5B JUMPI PUSH1 0x0 DUP6 SSTORE PUSH2 0x1BA2 JUMP JUMPDEST DUP3 PUSH1 0x1F LT PUSH2 0x1B74 JUMPI DUP1 MLOAD PUSH1 0xFF NOT AND DUP4 DUP1 ADD OR DUP6 SSTORE PUSH2 0x1BA2 JUMP JUMPDEST DUP3 DUP1 ADD PUSH1 0x1 ADD DUP6 SSTORE DUP3 ISZERO PUSH2 0x1BA2 JUMPI SWAP2 DUP3 ADD JUMPDEST DUP3 DUP2 GT ISZERO PUSH2 0x1BA1 JUMPI DUP3 MLOAD DUP3 SSTORE SWAP2 PUSH1 0x20 ADD SWAP2 SWAP1 PUSH1 0x1 ADD SWAP1 PUSH2 0x1B86 JUMP JUMPDEST JUMPDEST POP SWAP1 POP PUSH2 0x1BAF SWAP2 SWAP1 PUSH2 0x1D2A JUMP JUMPDEST POP SWAP1 JUMP JUMPDEST PUSH1 0x40 MLOAD DUP1 PUSH1 0x60 ADD PUSH1 0x40 MSTORE DUP1 PUSH1 0x60 DUP2 MSTORE PUSH1 0x20 ADD PUSH1 0x0 PUSH20 0xFFFFFFFFFFFFFFFFFFFFFFFFFFFFFFFFFFFFFFFF AND DUP2 MSTORE PUSH1 0x20 ADD PUSH1 0x0 ISZERO ISZERO DUP2 MSTORE POP SWAP1 JUMP JUMPDEST PUSH1 0x40 MLOAD DUP1 PUSH1 0x40 ADD PUSH1 0x40 MSTORE DUP1 PUSH1 0x0 PUSH1 0xFF AND DUP2 MSTORE PUSH1 0x20 ADD PUSH1 0x0 PUSH1 0xFF AND DUP2 MSTORE POP SWAP1 JUMP JUMPDEST PUSH1 0x40 MLOAD DUP1 PUSH1 0x40 ADD PUSH1 0x40 MSTORE DUP1 PUSH1 0x0 PUSH4 0xFFFFFFFF AND DUP2 MSTORE PUSH1 0x20 ADD PUSH1 0x0 PUSH4 0xFFFFFFFF AND DUP2 MSTORE POP SWAP1 JUMP JUMPDEST PUSH1 0x40 MLOAD DUP1 PUSH1 0xA0 ADD PUSH1 0x40 MSTORE DUP1 PUSH1 0x0 PUSH4 0xFFFFFFFF AND DUP2 MSTORE PUSH1 0x20 ADD PUSH1 0x0 PUSH1 0xFF AND DUP2 MSTORE PUSH1 0x20 ADD PUSH1 0x0 PUSH4 0xFFFFFFFF AND DUP2 MSTORE PUSH1 0x20 ADD PUSH1 0x0 PUSH4 0xFFFFFFFF AND DUP2 MSTORE PUSH1 0x20 ADD PUSH1 0x0 PUSH4 0xFFFFFFFF AND DUP2 MSTORE POP SWAP1 JUMP JUMPDEST PUSH1 0x40 MLOAD DUP1 PUSH1 0x60 ADD PUSH1 0x40 MSTORE DUP1 PUSH1 0x60 DUP2 MSTORE PUSH1 0x20 ADD PUSH1 0x60 DUP2 MSTORE PUSH1 0x20 ADD PUSH1 0x0 DUP2 MSTORE POP SWAP1 JUMP JUMPDEST DUP3 DUP1 SLOAD PUSH2 0x1CA9 SWAP1 PUSH2 0x25F3 JUMP JUMPDEST SWAP1 PUSH1 0x0 MSTORE PUSH1 0x20 PUSH1 0x0 KECCAK256 SWAP1 PUSH1 0x1F ADD PUSH1 0x20 SWAP1 DIV DUP2 ADD SWAP3 DUP3 PUSH2 0x1CCB JUMPI PUSH1 0x0 DUP6 SSTORE PUSH2 0x1D19 JUMP JUMPDEST DUP3 PUSH1 0x1F LT PUSH2 0x1CDC JUMPI DUP1 SLOAD DUP6 SSTORE PUSH2 0x1D19 JUMP JUMPDEST DUP3 DUP1 ADD PUSH1 0x1 ADD DUP6 SSTORE DUP3 ISZERO PUSH2 0x1D19 JUMPI PUSH1 0x0 MSTORE PUSH1 0x20 PUSH1 0x0 KECCAK256 SWAP2 PUSH1 0x1F ADD PUSH1 0x20 SWAP1 DIV DUP3 ADD JUMPDEST DUP3 DUP2 GT ISZERO PUSH2 0x1D18 JUMPI DUP3 SLOAD DUP3 SSTORE SWAP2 PUSH1 0x1 ADD SWAP2 SWAP1 PUSH1 0x1 ADD SWAP1 PUSH2 0x1CFD JUMP JUMPDEST JUMPDEST POP SWAP1 POP PUSH2 0x1D26 SWAP2 SWAP1 PUSH2 0x1D2A JUMP JUMPDEST POP SWAP1 JUMP JUMPDEST JUMPDEST DUP1 DUP3 GT ISZERO PUSH2 0x1D43 JUMPI PUSH1 0x0 DUP2 PUSH1 0x0 SWAP1 SSTORE POP PUSH1 0x1 ADD PUSH2 0x1D2B JUMP JUMPDEST POP SWAP1 JUMP JUMPDEST PUSH1 0x0 PUSH1 0x40 MLOAD SWAP1 POP SWAP1 JUMP JUMPDEST PUSH1 0x0 DUP1 REVERT JUMPDEST PUSH1 0x0 DUP1 REVERT JUMPDEST PUSH1 0x0 DUP1 REVERT JUMPDEST PUSH1 0x0 DUP1 REVERT JUMPDEST PUSH1 0x0 PUSH1 0x1F NOT PUSH1 0x1F DUP4 ADD AND SWAP1 POP SWAP2 SWAP1 POP JUMP JUMPDEST PUSH32 0x4E487B7100000000000000000000000000000000000000000000000000000000 PUSH1 0x0 MSTORE PUSH1 0x41 PUSH1 0x4 MSTORE PUSH1 0x24 PUSH1 0x0 REVERT JUMPDEST PUSH2 0x1DAE DUP3 PUSH2 0x1D65 JUMP JUMPDEST DUP2 ADD DUP2 DUP2 LT PUSH8 0xFFFFFFFFFFFFFFFF DUP3 GT OR ISZERO PUSH2 0x1DCD JUMPI PUSH2 0x1DCC PUSH2 0x1D76 JUMP JUMPDEST JUMPDEST DUP1 PUSH1 0x40 MSTORE POP POP POP JUMP JUMPDEST PUSH1 0x0 PUSH2 0x1DE0 PUSH2 0x1D47 JUMP JUMPDEST SWAP1 POP PUSH2 0x1DEC DUP3 DUP3 PUSH2 0x1DA5 JUMP JUMPDEST SWAP2 SWAP1 POP JUMP JUMPDEST PUSH1 0x0 PUSH8 0xFFFFFFFFFFFFFFFF DUP3 GT ISZERO PUSH2 0x1E0C JUMPI PUSH2 0x1E0B PUSH2 0x1D76 JUMP JUMPDEST JUMPDEST PUSH2 0x1E15 DUP3 PUSH2 0x1D65 JUMP JUMPDEST SWAP1 POP PUSH1 0x20 DUP2 ADD SWAP1 POP SWAP2 SWAP1 POP JUMP JUMPDEST DUP3 DUP2 DUP4 CALLDATACOPY PUSH1 0x0 DUP4 DUP4 ADD MSTORE POP POP POP JUMP JUMPDEST PUSH1 0x0 PUSH2 0x1E44 PUSH2 0x1E3F DUP5 PUSH2 0x1DF1 JUMP JUMPDEST PUSH2 0x1DD6 JUMP JUMPDEST SWAP1 POP DUP3 DUP2 MSTORE PUSH1 0x20 DUP2 ADD DUP5 DUP5 DUP5 ADD GT ISZERO PUSH2 0x1E60 JUMPI PUSH2 0x1E5F PUSH2 0x1D60 JUMP JUMPDEST JUMPDEST PUSH2 0x1E6B DUP5 DUP3 DUP6 PUSH2 0x1E22 JUMP JUMPDEST POP SWAP4 SWAP3 POP POP POP JUMP JUMPDEST PUSH1 0x0 DUP3 PUSH1 0x1F DUP4 ADD SLT PUSH2 0x1E88 JUMPI PUSH2 0x1E87 PUSH2 0x1D5B JUMP JUMPDEST JUMPDEST DUP2 CALLDATALOAD PUSH2 0x1E98 DUP5 DUP3 PUSH1 0x20 DUP7 ADD PUSH2 0x1E31 JUMP JUMPDEST SWAP2 POP POP SWAP3 SWAP2 POP POP JUMP JUMPDEST PUSH1 0x0 PUSH20 0xFFFFFFFFFFFFFFFFFFFFFFFFFFFFFFFFFFFFFFFF DUP3 AND SWAP1 POP SWAP2 SWAP1 POP JUMP JUMPDEST PUSH1 0x0 PUSH2 0x1ECC DUP3 PUSH2 0x1EA1 JUMP JUMPDEST SWAP1 POP SWAP2 SWAP1 POP JUMP JUMPDEST PUSH2 0x1EDC DUP2 PUSH2 0x1EC1 JUMP JUMPDEST DUP2 EQ PUSH2 0x1EE7 JUMPI PUSH1 0x0 DUP1 REVERT JUMPDEST POP JUMP JUMPDEST PUSH1 0x0 DUP2 CALLDATALOAD SWAP1 POP PUSH2 0x1EF9 DUP2 PUSH2 0x1ED3 JUMP JUMPDEST SWAP3 SWAP2 POP POP JUMP JUMPDEST PUSH1 0x0 DUP1 PUSH1 0x40 DUP4 DUP6 SUB SLT ISZERO PUSH2 0x1F16 JUMPI PUSH2 0x1F15 PUSH2 0x1D51 JUMP JUMPDEST JUMPDEST PUSH1 0x0 DUP4 ADD CALLDATALOAD PUSH8 0xFFFFFFFFFFFFFFFF DUP2 GT ISZERO PUSH2 0x1F34 JUMPI PUSH2 0x1F33 PUSH2 0x1D56 JUMP JUMPDEST JUMPDEST PUSH2 0x1F40 DUP6 DUP3 DUP7 ADD PUSH2 0x1E73 JUMP JUMPDEST SWAP3 POP POP PUSH1 0x20 PUSH2 0x1F51 DUP6 DUP3 DUP7 ADD PUSH2 0x1EEA JUMP JUMPDEST SWAP2 POP POP SWAP3 POP SWAP3 SWAP1 POP JUMP JUMPDEST PUSH1 0x0 DUP2 ISZERO ISZERO SWAP1 POP SWAP2 SWAP1 POP JUMP JUMPDEST PUSH2 0x1F70 DUP2 PUSH2 0x1F5B JUMP JUMPDEST DUP3 MSTORE POP POP JUMP JUMPDEST PUSH1 0x0 PUSH1 0x20 DUP3 ADD SWAP1 POP PUSH2 0x1F8B PUSH1 0x0 DUP4 ADD DUP5 PUSH2 0x1F67 JUMP JUMPDEST SWAP3 SWAP2 POP POP JUMP JUMPDEST PUSH2 0x1F9A DUP2 PUSH2 0x1EC1 JUMP JUMPDEST DUP3 MSTORE POP POP JUMP JUMPDEST PUSH1 0x0 PUSH1 0x20 DUP3 ADD SWAP1 POP PUSH2 0x1FB5 PUSH1 0x0 DUP4 ADD DUP5 PUSH2 0x1F91 JUMP JUMPDEST SWAP3 SWAP2 POP POP JUMP JUMPDEST PUSH1 0x0 PUSH1 0xFF DUP3 AND SWAP1 POP SWAP2 SWAP1 POP JUMP JUMPDEST PUSH2 0x1FD1 DUP2 PUSH2 0x1FBB JUMP JUMPDEST DUP2 EQ PUSH2 0x1FDC JUMPI PUSH1 0x0 DUP1 REVERT JUMPDEST POP JUMP JUMPDEST PUSH1 0x0 DUP2 CALLDATALOAD SWAP1 POP PUSH2 0x1FEE DUP2 PUSH2 0x1FC8 JUMP JUMPDEST SWAP3 SWAP2 POP POP JUMP JUMPDEST PUSH1 0x0 PUSH4 0xFFFFFFFF DUP3 AND SWAP1 POP SWAP2 SWAP1 POP JUMP JUMPDEST PUSH2 0x200D DUP2 PUSH2 0x1FF4 JUMP JUMPDEST DUP2 EQ PUSH2 0x2018 JUMPI PUSH1 0x0 DUP1 REVERT JUMPDEST POP JUMP JUMPDEST PUSH1 0x0 DUP2 CALLDATALOAD SWAP1 POP PUSH2 0x202A DUP2 PUSH2 0x2004 JUMP JUMPDEST SWAP3 SWAP2 POP POP JUMP JUMPDEST PUSH1 0x0 PUSH8 0xFFFFFFFFFFFFFFFF DUP3 GT ISZERO PUSH2 0x204B JUMPI PUSH2 0x204A PUSH2 0x1D76 JUMP JUMPDEST JUMPDEST PUSH1 0x20 DUP3 MUL SWAP1 POP PUSH1 0x20 DUP2 ADD SWAP1 POP SWAP2 SWAP1 POP JUMP JUMPDEST PUSH1 0x0 DUP1 REVERT JUMPDEST PUSH1 0x0 DUP2 SWAP1 POP SWAP2 SWAP1 POP JUMP JUMPDEST PUSH2 0x2074 DUP2 PUSH2 0x2061 JUMP JUMPDEST DUP2 EQ PUSH2 0x207F JUMPI PUSH1 0x0 DUP1 REVERT JUMPDEST POP JUMP JUMPDEST PUSH1 0x0 DUP2 CALLDATALOAD SWAP1 POP PUSH2 0x2091 DUP2 PUSH2 0x206B JUMP JUMPDEST SWAP3 SWAP2 POP POP JUMP JUMPDEST PUSH1 0x0 PUSH2 0x20AA PUSH2 0x20A5 DUP5 PUSH2 0x2030 JUMP JUMPDEST PUSH2 0x1DD6 JUMP JUMPDEST SWAP1 POP DUP1 DUP4 DUP3 MSTORE PUSH1 0x20 DUP3 ADD SWAP1 POP PUSH1 0x20 DUP5 MUL DUP4 ADD DUP6 DUP2 GT ISZERO PUSH2 0x20CD JUMPI PUSH2 0x20CC PUSH2 0x205C JUMP JUMPDEST JUMPDEST DUP4 JUMPDEST DUP2 DUP2 LT ISZERO PUSH2 0x20F6 JUMPI DUP1 PUSH2 0x20E2 DUP9 DUP3 PUSH2 0x2082 JUMP JUMPDEST DUP5 MSTORE PUSH1 0x20 DUP5 ADD SWAP4 POP POP PUSH1 0x20 DUP2 ADD SWAP1 POP PUSH2 0x20CF JUMP JUMPDEST POP POP POP SWAP4 SWAP3 POP POP POP JUMP JUMPDEST PUSH1 0x0 DUP3 PUSH1 0x1F DUP4 ADD SLT PUSH2 0x2115 JUMPI PUSH2 0x2114 PUSH2 0x1D5B JUMP JUMPDEST JUMPDEST DUP2 CALLDATALOAD PUSH2 0x2125 DUP5 DUP3 PUSH1 0x20 DUP7 ADD PUSH2 0x2097 JUMP JUMPDEST SWAP2 POP POP SWAP3 SWAP2 POP POP JUMP JUMPDEST PUSH1 0x0 DUP1 PUSH1 0x0 DUP1 PUSH1 0x80 DUP6 DUP8 SUB SLT ISZERO PUSH2 0x2148 JUMPI PUSH2 0x2147 PUSH2 0x1D51 JUMP JUMPDEST JUMPDEST PUSH1 0x0 PUSH2 0x2156 DUP8 DUP3 DUP9 ADD PUSH2 0x1FDF JUMP JUMPDEST SWAP5 POP POP PUSH1 0x20 PUSH2 0x2167 DUP8 DUP3 DUP9 ADD PUSH2 0x201B JUMP JUMPDEST SWAP4 POP POP PUSH1 0x40 PUSH2 0x2178 DUP8 DUP3 DUP9 ADD PUSH2 0x201B JUMP JUMPDEST SWAP3 POP POP PUSH1 0x60 DUP6 ADD CALLDATALOAD PUSH8 0xFFFFFFFFFFFFFFFF DUP2 GT ISZERO PUSH2 0x2199 JUMPI PUSH2 0x2198 PUSH2 0x1D56 JUMP JUMPDEST JUMPDEST PUSH2 0x21A5 DUP8 DUP3 DUP9 ADD PUSH2 0x2100 JUMP JUMPDEST SWAP2 POP POP SWAP3 SWAP6 SWAP2 SWAP5 POP SWAP3 POP JUMP JUMPDEST PUSH1 0x0 PUSH1 0x20 DUP3 DUP5 SUB SLT ISZERO PUSH2 0x21C7 JUMPI PUSH2 0x21C6 PUSH2 0x1D51 JUMP JUMPDEST JUMPDEST PUSH1 0x0 PUSH2 0x21D5 DUP5 DUP3 DUP6 ADD PUSH2 0x1EEA JUMP JUMPDEST SWAP2 POP POP SWAP3 SWAP2 POP POP JUMP JUMPDEST PUSH1 0x0 DUP2 MLOAD SWAP1 POP SWAP2 SWAP1 POP JUMP JUMPDEST PUSH1 0x0 DUP3 DUP3 MSTORE PUSH1 0x20 DUP3 ADD SWAP1 POP SWAP3 SWAP2 POP POP JUMP JUMPDEST PUSH1 0x0 JUMPDEST DUP4 DUP2 LT ISZERO PUSH2 0x2218 JUMPI DUP1 DUP3 ADD MLOAD DUP2 DUP5 ADD MSTORE PUSH1 0x20 DUP2 ADD SWAP1 POP PUSH2 0x21FD JUMP JUMPDEST DUP4 DUP2 GT ISZERO PUSH2 0x2227 JUMPI PUSH1 0x0 DUP5 DUP5 ADD MSTORE JUMPDEST POP POP POP POP JUMP JUMPDEST PUSH1 0x0 PUSH2 0x2238 DUP3 PUSH2 0x21DE JUMP JUMPDEST PUSH2 0x2242 DUP2 DUP6 PUSH2 0x21E9 JUMP JUMPDEST SWAP4 POP PUSH2 0x2252 DUP2 DUP6 PUSH1 0x20 DUP7 ADD PUSH2 0x21FA JUMP JUMPDEST PUSH2 0x225B DUP2 PUSH2 0x1D65 JUMP JUMPDEST DUP5 ADD SWAP2 POP POP SWAP3 SWAP2 POP POP JUMP JUMPDEST PUSH2 0x226F DUP2 PUSH2 0x1EC1 JUMP JUMPDEST DUP3 MSTORE POP POP JUMP JUMPDEST PUSH2 0x227E DUP2 PUSH2 0x1F5B JUMP JUMPDEST DUP3 MSTORE POP POP JUMP JUMPDEST PUSH1 0x0 PUSH1 0x60 DUP4 ADD PUSH1 0x0 DUP4 ADD MLOAD DUP5 DUP3 SUB PUSH1 0x0 DUP7 ADD MSTORE PUSH2 0x22A1 DUP3 DUP3 PUSH2 0x222D JUMP JUMPDEST SWAP2 POP POP PUSH1 0x20 DUP4 ADD MLOAD PUSH2 0x22B6 PUSH1 0x20 DUP7 ADD DUP3 PUSH2 0x2266 JUMP JUMPDEST POP PUSH1 0x40 DUP4 ADD MLOAD PUSH2 0x22C9 PUSH1 0x40 DUP7 ADD DUP3 PUSH2 0x2275 JUMP JUMPDEST POP DUP1 SWAP2 POP POP SWAP3 SWAP2 POP POP JUMP JUMPDEST PUSH1 0x0 PUSH1 0x20 DUP3 ADD SWAP1 POP DUP2 DUP2 SUB PUSH1 0x0 DUP4 ADD MSTORE PUSH2 0x22EE DUP2 DUP5 PUSH2 0x2284 JUMP JUMPDEST SWAP1 POP SWAP3 SWAP2 POP POP JUMP JUMPDEST PUSH1 0x0 DUP3 DUP3 MSTORE PUSH1 0x20 DUP3 ADD SWAP1 POP SWAP3 SWAP2 POP POP JUMP JUMPDEST PUSH32 0x4F6E6C79207468652070726F636573732063616E206578656375746520746869 PUSH1 0x0 DUP3 ADD MSTORE PUSH32 0x73206F7065726174696F6E000000000000000000000000000000000000000000 PUSH1 0x20 DUP3 ADD MSTORE POP JUMP JUMPDEST PUSH1 0x0 PUSH2 0x2363 PUSH1 0x2B DUP4 PUSH2 0x22F6 JUMP JUMPDEST SWAP2 POP PUSH2 0x236E DUP3 PUSH2 0x2307 JUMP JUMPDEST PUSH1 0x40 DUP3 ADD SWAP1 POP SWAP2 SWAP1 POP JUMP JUMPDEST PUSH1 0x0 PUSH1 0x20 DUP3 ADD SWAP1 POP DUP2 DUP2 SUB PUSH1 0x0 DUP4 ADD MSTORE PUSH2 0x2392 DUP2 PUSH2 0x2356 JUMP JUMPDEST SWAP1 POP SWAP2 SWAP1 POP JUMP JUMPDEST PUSH32 0x5468697320636F6E747261637420697320646561637469766174656400000000 PUSH1 0x0 DUP3 ADD MSTORE POP JUMP JUMPDEST PUSH1 0x0 PUSH2 0x23CF PUSH1 0x1C DUP4 PUSH2 0x22F6 JUMP JUMPDEST SWAP2 POP PUSH2 0x23DA DUP3 PUSH2 0x2399 JUMP JUMPDEST PUSH1 0x20 DUP3 ADD SWAP1 POP SWAP2 SWAP1 POP JUMP JUMPDEST PUSH1 0x0 PUSH1 0x20 DUP3 ADD SWAP1 POP DUP2 DUP2 SUB PUSH1 0x0 DUP4 ADD MSTORE PUSH2 0x23FE DUP2 PUSH2 0x23C2 JUMP JUMPDEST SWAP1 POP SWAP2 SWAP1 POP JUMP JUMPDEST PUSH32 0x4F6E6C79207468652070726F63657373206F7220746865206170706C69636174 PUSH1 0x0 DUP3 ADD MSTORE PUSH32 0x696F6E2063616E20657865637574652074686973206F7065726174696F6E0000 PUSH1 0x20 DUP3 ADD MSTORE POP JUMP JUMPDEST PUSH1 0x0 PUSH2 0x2461 PUSH1 0x3E DUP4 PUSH2 0x22F6 JUMP JUMPDEST SWAP2 POP PUSH2 0x246C DUP3 PUSH2 0x2405 JUMP JUMPDEST PUSH1 0x40 DUP3 ADD SWAP1 POP SWAP2 SWAP1 POP JUMP JUMPDEST PUSH1 0x0 PUSH1 0x20 DUP3 ADD SWAP1 POP DUP2 DUP2 SUB PUSH1 0x0 DUP4 ADD MSTORE PUSH2 0x2490 DUP2 PUSH2 0x2454 JUMP JUMPDEST SWAP1 POP SWAP2 SWAP1 POP JUMP JUMPDEST PUSH32 0x4F6E6C7920746865206170706C69636174696F6E2063616E2065786563757465 PUSH1 0x0 DUP3 ADD MSTORE PUSH32 0x2074686973206F7065726174696F6E0000000000000000000000000000000000 PUSH1 0x20 DUP3 ADD MSTORE POP JUMP JUMPDEST PUSH1 0x0 PUSH2 0x24F3 PUSH1 0x2F DUP4 PUSH2 0x22F6 JUMP JUMPDEST SWAP2 POP PUSH2 0x24FE DUP3 PUSH2 0x2497 JUMP JUMPDEST PUSH1 0x40 DUP3 ADD SWAP1 POP SWAP2 SWAP1 POP JUMP JUMPDEST PUSH1 0x0 PUSH1 0x20 DUP3 ADD SWAP1 POP DUP2 DUP2 SUB PUSH1 0x0 DUP4 ADD MSTORE PUSH2 0x2522 DUP2 PUSH2 0x24E6 JUMP JUMPDEST SWAP1 POP SWAP2 SWAP1 POP JUMP JUMPDEST PUSH32 0x54686520636F6E747261637420697320616C7265616479207369676E65640000 PUSH1 0x0 DUP3 ADD MSTORE POP JUMP JUMPDEST PUSH1 0x0 PUSH2 0x255F PUSH1 0x1E DUP4 PUSH2 0x22F6 JUMP JUMPDEST SWAP2 POP PUSH2 0x256A DUP3 PUSH2 0x2529 JUMP JUMPDEST PUSH1 0x20 DUP3 ADD SWAP1 POP SWAP2 SWAP1 POP JUMP JUMPDEST PUSH1 0x0 PUSH1 0x20 DUP3 ADD SWAP1 POP DUP2 DUP2 SUB PUSH1 0x0 DUP4 ADD MSTORE PUSH2 0x258E DUP2 PUSH2 0x2552 JUMP JUMPDEST SWAP1 POP SWAP2 SWAP1 POP JUMP JUMPDEST PUSH32 0x4E487B7100000000000000000000000000000000000000000000000000000000 PUSH1 0x0 MSTORE PUSH1 0x32 PUSH1 0x4 MSTORE PUSH1 0x24 PUSH1 0x0 REVERT JUMPDEST PUSH32 0x4E487B7100000000000000000000000000000000000000000000000000000000 PUSH1 0x0 MSTORE PUSH1 0x22 PUSH1 0x4 MSTORE PUSH1 0x24 PUSH1 0x0 REVERT JUMPDEST PUSH1 0x0 PUSH1 0x2 DUP3 DIV SWAP1 POP PUSH1 0x1 DUP3 AND DUP1 PUSH2 0x260B JUMPI PUSH1 0x7F DUP3 AND SWAP2 POP JUMPDEST PUSH1 0x20 DUP3 LT DUP2 SUB PUSH2 0x261E JUMPI PUSH2 0x261D PUSH2 0x25C4 JUMP JUMPDEST JUMPDEST POP SWAP2 SWAP1 POP JUMP JUMPDEST PUSH32 0x52657175657374206F7065726174696F6E20706572666F726D6564206F757473 PUSH1 0x0 DUP3 ADD MSTORE PUSH32 0x696465206F6620616C6C6F77656420686F757273206F72206C696D6974206F70 PUSH1 0x20 DUP3 ADD MSTORE PUSH32 0x65726174696F6E20657863656564656400000000000000000000000000000000 PUSH1 0x40 DUP3 ADD MSTORE POP JUMP JUMPDEST PUSH1 0x0 PUSH2 0x26A6 PUSH1 0x50 DUP4 PUSH2 0x22F6 JUMP JUMPDEST SWAP2 POP PUSH2 0x26B1 DUP3 PUSH2 0x2624 JUMP JUMPDEST PUSH1 0x60 DUP3 ADD SWAP1 POP SWAP2 SWAP1 POP JUMP JUMPDEST PUSH1 0x0 PUSH1 0x20 DUP3 ADD SWAP1 POP DUP2 DUP2 SUB PUSH1 0x0 DUP4 ADD MSTORE PUSH2 0x26D5 DUP2 PUSH2 0x2699 JUMP JUMPDEST SWAP1 POP SWAP2 SWAP1 POP JUMP JUMPDEST PUSH32 0x5375636365737366756C20657865637574696F6E210000000000000000000000 PUSH1 0x0 DUP3 ADD MSTORE POP JUMP JUMPDEST PUSH1 0x0 PUSH2 0x2712 PUSH1 0x15 DUP4 PUSH2 0x22F6 JUMP JUMPDEST SWAP2 POP PUSH2 0x271D DUP3 PUSH2 0x26DC JUMP JUMPDEST PUSH1 0x20 DUP3 ADD SWAP1 POP SWAP2 SWAP1 POP JUMP JUMPDEST PUSH1 0x0 PUSH1 0x20 DUP3 ADD SWAP1 POP DUP2 DUP2 SUB PUSH1 0x0 DUP4 ADD MSTORE PUSH2 0x2741 DUP2 PUSH2 0x2705 JUMP JUMPDEST SWAP1 POP SWAP2 SWAP1 POP JUMP JUMPDEST PUSH32 0x546865205F7374617274446179206E6F7420726570726573656E747320612076 PUSH1 0x0 DUP3 ADD MSTORE PUSH32 0x616C696420646179000000000000000000000000000000000000000000000000 PUSH1 0x20 DUP3 ADD MSTORE POP JUMP JUMPDEST PUSH1 0x0 PUSH2 0x27A4 PUSH1 0x28 DUP4 PUSH2 0x22F6 JUMP JUMPDEST SWAP2 POP PUSH2 0x27AF DUP3 PUSH2 0x2748 JUMP JUMPDEST PUSH1 0x40 DUP3 ADD SWAP1 POP SWAP2 SWAP1 POP JUMP JUMPDEST PUSH1 0x0 PUSH1 0x20 DUP3 ADD SWAP1 POP DUP2 DUP2 SUB PUSH1 0x0 DUP4 ADD MSTORE PUSH2 0x27D3 DUP2 PUSH2 0x2797 JUMP JUMPDEST SWAP1 POP SWAP2 SWAP1 POP JUMP JUMPDEST PUSH32 0x546865205F656E64446179206E6F7420726570726573656E747320612076616C PUSH1 0x0 DUP3 ADD MSTORE PUSH32 0x6964206461790000000000000000000000000000000000000000000000000000 PUSH1 0x20 DUP3 ADD MSTORE POP JUMP JUMPDEST PUSH1 0x0 PUSH2 0x2836 PUSH1 0x26 DUP4 PUSH2 0x22F6 JUMP JUMPDEST SWAP2 POP PUSH2 0x2841 DUP3 PUSH2 0x27DA JUMP JUMPDEST PUSH1 0x40 DUP3 ADD SWAP1 POP SWAP2 SWAP1 POP JUMP JUMPDEST PUSH1 0x0 PUSH1 0x20 DUP3 ADD SWAP1 POP DUP2 DUP2 SUB PUSH1 0x0 DUP4 ADD MSTORE PUSH2 0x2865 DUP2 PUSH2 0x2829 JUMP JUMPDEST SWAP1 POP SWAP2 SWAP1 POP JUMP JUMPDEST PUSH32 0x436F6D70617269736F6E2073796D626F6C206973206E6F742076616C69640000 PUSH1 0x0 DUP3 ADD MSTORE POP JUMP JUMPDEST PUSH1 0x0 PUSH2 0x28A2 PUSH1 0x1E DUP4 PUSH2 0x22F6 JUMP JUMPDEST SWAP2 POP PUSH2 0x28AD DUP3 PUSH2 0x286C JUMP JUMPDEST PUSH1 0x20 DUP3 ADD SWAP1 POP SWAP2 SWAP1 POP JUMP JUMPDEST PUSH1 0x0 PUSH1 0x20 DUP3 ADD SWAP1 POP DUP2 DUP2 SUB PUSH1 0x0 DUP4 ADD MSTORE PUSH2 0x28D1 DUP2 PUSH2 0x2895 JUMP JUMPDEST SWAP1 POP SWAP2 SWAP1 POP JUMP JUMPDEST PUSH32 0x4E487B7100000000000000000000000000000000000000000000000000000000 PUSH1 0x0 MSTORE PUSH1 0x11 PUSH1 0x4 MSTORE PUSH1 0x24 PUSH1 0x0 REVERT JUMPDEST PUSH1 0x0 PUSH2 0x2912 DUP3 PUSH2 0x1FF4 JUMP JUMPDEST SWAP2 POP PUSH2 0x291D DUP4 PUSH2 0x1FF4 JUMP JUMPDEST SWAP3 POP DUP3 DUP3 LT ISZERO PUSH2 0x2930 JUMPI PUSH2 0x292F PUSH2 0x28D8 JUMP JUMPDEST JUMPDEST DUP3 DUP3 SUB SWAP1 POP SWAP3 SWAP2 POP POP JUMP JUMPDEST PUSH32 0x546865206D6574686F642067657454696D65496E5365636F6E647320646F6573 PUSH1 0x0 DUP3 ADD MSTORE PUSH32 0x6E277420776F726B20666F72204D4F4E544820616E6420594541520000000000 PUSH1 0x20 DUP3 ADD MSTORE POP JUMP JUMPDEST PUSH1 0x0 PUSH2 0x2997 PUSH1 0x3B DUP4 PUSH2 0x22F6 JUMP JUMPDEST SWAP2 POP PUSH2 0x29A2 DUP3 PUSH2 0x293B JUMP JUMPDEST PUSH1 0x40 DUP3 ADD SWAP1 POP SWAP2 SWAP1 POP JUMP JUMPDEST PUSH1 0x0 PUSH1 0x20 DUP3 ADD SWAP1 POP DUP2 DUP2 SUB PUSH1 0x0 DUP4 ADD MSTORE PUSH2 0x29C6 DUP2 PUSH2 0x298A JUMP JUMPDEST SWAP1 POP SWAP2 SWAP1 POP JUMP JUMPDEST PUSH1 0x0 DUP2 SWAP1 POP SWAP2 SWAP1 POP JUMP JUMPDEST PUSH32 0x4E487B7100000000000000000000000000000000000000000000000000000000 PUSH1 0x0 MSTORE PUSH1 0x12 PUSH1 0x4 MSTORE PUSH1 0x24 PUSH1 0x0 REVERT JUMPDEST PUSH1 0x0 PUSH2 0x2A11 DUP3 PUSH2 0x29CD JUMP JUMPDEST SWAP2 POP PUSH2 0x2A1C DUP4 PUSH2 0x29CD JUMP JUMPDEST SWAP3 POP DUP3 PUSH2 0x2A2C JUMPI PUSH2 0x2A2B PUSH2 0x29D7 JUMP JUMPDEST JUMPDEST DUP3 DUP3 DIV SWAP1 POP SWAP3 SWAP2 POP POP JUMP JUMPDEST PUSH1 0x0 PUSH2 0x2A42 DUP3 PUSH2 0x1FF4 JUMP JUMPDEST SWAP2 POP PUSH2 0x2A4D DUP4 PUSH2 0x1FF4 JUMP JUMPDEST SWAP3 POP DUP3 PUSH4 0xFFFFFFFF SUB DUP3 GT ISZERO PUSH2 0x2A66 JUMPI PUSH2 0x2A65 PUSH2 0x28D8 JUMP JUMPDEST JUMPDEST DUP3 DUP3 ADD SWAP1 POP SWAP3 SWAP2 POP POP JUMP JUMPDEST PUSH1 0x0 PUSH2 0x2A7C DUP3 PUSH2 0x1FF4 JUMP JUMPDEST SWAP2 POP PUSH2 0x2A87 DUP4 PUSH2 0x1FF4 JUMP JUMPDEST SWAP3 POP DUP2 PUSH4 0xFFFFFFFF DIV DUP4 GT DUP3 ISZERO ISZERO AND ISZERO PUSH2 0x2AA4 JUMPI PUSH2 0x2AA3 PUSH2 0x28D8 JUMP JUMPDEST JUMPDEST DUP3 DUP3 MUL SWAP1 POP SWAP3 SWAP2 POP POP JUMP JUMPDEST PUSH1 0x0 PUSH2 0x2ABA DUP3 PUSH2 0x1FF4 JUMP JUMPDEST SWAP2 POP PUSH2 0x2AC5 DUP4 PUSH2 0x1FF4 JUMP JUMPDEST SWAP3 POP DUP3 PUSH2 0x2AD5 JUMPI PUSH2 0x2AD4 PUSH2 0x29D7 JUMP JUMPDEST JUMPDEST DUP3 DUP3 DIV SWAP1 POP SWAP3 SWAP2 POP POP JUMP JUMPDEST PUSH1 0x0 PUSH2 0x2AEB DUP3 PUSH2 0x29CD JUMP JUMPDEST SWAP2 POP PUSH2 0x2AF6 DUP4 PUSH2 0x29CD JUMP JUMPDEST SWAP3 POP DUP3 PUSH32 0xFFFFFFFFFFFFFFFFFFFFFFFFFFFFFFFFFFFFFFFFFFFFFFFFFFFFFFFFFFFFFFFF SUB DUP3 GT ISZERO PUSH2 0x2B2B JUMPI PUSH2 0x2B2A PUSH2 0x28D8 JUMP JUMPDEST JUMPDEST DUP3 DUP3 ADD SWAP1 POP SWAP3 SWAP2 POP POP JUMP JUMPDEST PUSH1 0x0 PUSH2 0x2B41 DUP3 PUSH2 0x1FF4 JUMP JUMPDEST SWAP2 POP PUSH2 0x2B4C DUP4 PUSH2 0x1FF4 JUMP JUMPDEST SWAP3 POP DUP3 PUSH2 0x2B5C JUMPI PUSH2 0x2B5B PUSH2 0x29D7 JUMP JUMPDEST JUMPDEST DUP3 DUP3 MOD SWAP1 POP SWAP3 SWAP2 POP POP JUMP INVALID LOG2 PUSH5 0x6970667358 0x22 SLT KECCAK256 0xEB 0x2E ADDRESS STATICCALL 0xAA SAR STATICCALL PUSH8 0xCBB13A500AFCEFDC DUP2 SWAP13 CALLER 0xEE PUSH21 0xBB5FCCDD3831ACFB7579BB64736F6C634300080D00 CALLER "
		},
		"gasEstimates": {
			"creation": {
				"codeDepositCost": "2233000",
				"executionCost": "infinite",
				"totalCost": "infinite"
			},
			"external": {
				"changeApplicationParty(string,address)": "infinite",
				"getApplicationAddress()": "9038",
				"getParty(address)": "infinite",
				"getProcessAddress()": "9060",
				"prohibition_requestDelivery(uint8,uint32,uint32,int256[])": "infinite",
				"signContract()": "infinite"
			},
			"internal": {
				"updateMapParty(address,struct EAI.Party storage pointer)": "infinite"
			}
		},
		"methodIdentifiers": {
			"changeApplicationParty(string,address)": "5e744c6a",
			"getApplicationAddress()": "70d8915a",
			"getParty(address)": "fb6f8243",
			"getProcessAddress()": "85931911",
			"prohibition_requestDelivery(uint8,uint32,uint32,int256[])": "dcddde78",
			"signContract()": "b8b4f1a0"
		}
	},
	"abi": [
		{
			"inputs": [
				{
					"internalType": "address",
					"name": "_applicationWallet",
					"type": "address"
				}
			],
			"stateMutability": "nonpayable",
			"type": "constructor"
		},
		{
			"anonymous": false,
			"inputs": [
				{
					"indexed": false,
					"internalType": "string",
					"name": "_logMessage",
					"type": "string"
				}
			],
			"name": "failEvent",
			"type": "event"
		},
		{
			"anonymous": false,
			"inputs": [
				{
					"indexed": false,
					"internalType": "string",
					"name": "_logMessage",
					"type": "string"
				}
			],
			"name": "successEvent",
			"type": "event"
		},
		{
			"inputs": [
				{
					"internalType": "string",
					"name": "_name",
					"type": "string"
				},
				{
					"internalType": "address",
					"name": "_walletAddress",
					"type": "address"
				}
			],
			"name": "changeApplicationParty",
			"outputs": [
				{
					"internalType": "bool",
					"name": "",
					"type": "bool"
				}
			],
			"stateMutability": "nonpayable",
			"type": "function"
		},
		{
			"inputs": [],
			"name": "getApplicationAddress",
			"outputs": [
				{
					"internalType": "address",
					"name": "",
					"type": "address"
				}
			],
			"stateMutability": "view",
			"type": "function"
		},
		{
			"inputs": [
				{
					"internalType": "address",
					"name": "_walletAddress",
					"type": "address"
				}
			],
			"name": "getParty",
			"outputs": [
				{
					"components": [
						{
							"internalType": "string",
							"name": "name",
							"type": "string"
						},
						{
							"internalType": "address",
							"name": "walletAddress",
							"type": "address"
						},
						{
							"internalType": "bool",
							"name": "aware",
							"type": "bool"
						}
					],
					"internalType": "struct EAI.Party",
					"name": "",
					"type": "tuple"
				}
			],
			"stateMutability": "view",
			"type": "function"
		},
		{
			"inputs": [],
			"name": "getProcessAddress",
			"outputs": [
				{
					"internalType": "address",
					"name": "",
					"type": "address"
				}
			],
			"stateMutability": "view",
			"type": "function"
		},
		{
			"inputs": [
				{
					"internalType": "uint8",
					"name": "_weekDay",
					"type": "uint8"
				},
				{
					"internalType": "uint32",
					"name": "_hourOfDay",
					"type": "uint32"
				},
				{
					"internalType": "uint32",
					"name": "_accessDateTime",
					"type": "uint32"
				},
				{
					"internalType": "int256[]",
					"name": "_resultFromXpath",
					"type": "int256[]"
				}
			],
			"name": "prohibition_requestDelivery",
			"outputs": [
				{
					"internalType": "bool",
					"name": "",
					"type": "bool"
				}
			],
			"stateMutability": "nonpayable",
			"type": "function"
		},
		{
			"inputs": [],
			"name": "signContract",
			"outputs": [
				{
					"internalType": "bool",
					"name": "",
					"type": "bool"
				}
			],
			"stateMutability": "nonpayable",
			"type": "function"
		}
	]
}