{
	"contracts/study-case-contracts/001-delivery-hiring/DeliveryHiring_R.sol": {
		"DeliveryHiring_R": {
			"abi": [
				{
					"inputs": [
						{
							"internalType": "address",
							"name": "_applicationWallet",
							"type": "address"
						}
					],
					"stateMutability": "nonpayable",
					"type": "constructor"
				},
				{
					"anonymous": false,
					"inputs": [
						{
							"indexed": false,
							"internalType": "string",
							"name": "_logMessage",
							"type": "string"
						}
					],
					"name": "failEvent",
					"type": "event"
				},
				{
					"anonymous": false,
					"inputs": [
						{
							"indexed": false,
							"internalType": "string",
							"name": "_logMessage",
							"type": "string"
						}
					],
					"name": "successEvent",
					"type": "event"
				},
				{
					"inputs": [
						{
							"internalType": "string",
							"name": "_name",
							"type": "string"
						},
						{
							"internalType": "address",
							"name": "_walletAddress",
							"type": "address"
						}
					],
					"name": "changeApplicationParty",
					"outputs": [
						{
							"internalType": "bool",
							"name": "",
							"type": "bool"
						}
					],
					"stateMutability": "nonpayable",
					"type": "function"
				},
				{
					"inputs": [],
					"name": "getApplicationAddress",
					"outputs": [
						{
							"internalType": "address",
							"name": "",
							"type": "address"
						}
					],
					"stateMutability": "view",
					"type": "function"
				},
				{
					"inputs": [
						{
							"internalType": "address",
							"name": "_walletAddress",
							"type": "address"
						}
					],
					"name": "getParty",
					"outputs": [
						{
							"components": [
								{
									"internalType": "string",
									"name": "name",
									"type": "string"
								},
								{
									"internalType": "address",
									"name": "walletAddress",
									"type": "address"
								},
								{
									"internalType": "bool",
									"name": "aware",
									"type": "bool"
								}
							],
							"internalType": "struct EAI.Party",
							"name": "",
							"type": "tuple"
						}
					],
					"stateMutability": "view",
					"type": "function"
				},
				{
					"inputs": [],
					"name": "getProcessAddress",
					"outputs": [
						{
							"internalType": "address",
							"name": "",
							"type": "address"
						}
					],
					"stateMutability": "view",
					"type": "function"
				},
				{
					"inputs": [],
					"name": "onlyForTest_decreaseOperation",
					"outputs": [
						{
							"internalType": "uint32",
							"name": "",
							"type": "uint32"
						}
					],
					"stateMutability": "nonpayable",
					"type": "function"
				},
				{
					"inputs": [
						{
							"internalType": "uint32",
							"name": "_accessDateTime",
							"type": "uint32"
						},
						{
							"internalType": "uint8",
							"name": "_weekDay",
							"type": "uint8"
						},
						{
							"internalType": "uint32",
							"name": "_hourOfDay",
							"type": "uint32"
						},
						{
							"internalType": "int256[]",
							"name": "_resultFromXpath",
							"type": "int256[]"
						},
						{
							"internalType": "uint256[]",
							"name": "_resultFromXpath_numberPerTime",
							"type": "uint256[]"
						}
					],
					"name": "right_requestDelivery",
					"outputs": [
						{
							"internalType": "bool",
							"name": "",
							"type": "bool"
						}
					],
					"stateMutability": "nonpayable",
					"type": "function"
				},
				{
					"inputs": [],
					"name": "signContract",
					"outputs": [
						{
							"internalType": "bool",
							"name": "",
							"type": "bool"
						}
					],
					"stateMutability": "nonpayable",
					"type": "function"
				}
			],
			"devdoc": {
				"kind": "dev",
				"methods": {},
				"version": 1
			},
			"evm": {
				"assembly": "    /* \"contracts/study-case-contracts/001-delivery-hiring/DeliveryHiring_R.sol\":190:7181  contract DeliveryHiring_R {... */\n  mstore(0x40, 0x80)\n    /* \"contracts/study-case-contracts/001-delivery-hiring/DeliveryHiring_R.sol\":1219:1294  string numberOfAddresses = \"count(//body/perosonalInformation/address/cep)\" */\n  mload(0x40)\n  dup1\n  0x60\n  add\n  0x40\n  mstore\n  dup1\n  0x2e\n  dup2\n  mstore\n  0x20\n  add\n  data_8db4f537e4773daf3b42fc9b069ffea1a74d1920b50a1fe9a37f0966abb9c4fc\n  0x2e\n  swap2\n  codecopy\n  0x06\n  swap1\n  dup1\n  mload\n  swap1\n  0x20\n  add\n  swap1\n  tag_1\n  swap3\n  swap2\n  swap1\n  tag_2\n  jump\t// in\ntag_1:\n  pop\n    /* \"contracts/study-case-contracts/001-delivery-hiring/DeliveryHiring_R.sol\":1932:3136  constructor(address _applicationWallet){... */\n  callvalue\n  dup1\n  iszero\n  tag_3\n  jumpi\n  0x00\n  dup1\n  revert\ntag_3:\n  pop\n  mload(0x40)\n  sub(codesize, bytecodeSize)\n  dup1\n  bytecodeSize\n  dup4\n  codecopy\n  dup2\n  dup2\n  add\n  0x40\n  mstore\n  dup2\n  add\n  swap1\n  tag_4\n  swap2\n  swap1\n  tag_5\n  jump\t// in\ntag_4:\n    /* \"contracts/study-case-contracts/001-delivery-hiring/DeliveryHiring_R.sol\":1994:1998  true */\n  0x01\n    /* \"contracts/study-case-contracts/001-delivery-hiring/DeliveryHiring_R.sol\":1982:1991  activated */\n  0x00\n  dup1\n    /* \"contracts/study-case-contracts/001-delivery-hiring/DeliveryHiring_R.sol\":1982:1998  activated = true */\n  0x0100\n  exp\n  dup2\n  sload\n  dup2\n  0xff\n  mul\n  not\n  and\n  swap1\n  dup4\n  iszero\n  iszero\n  mul\n  or\n  swap1\n  sstore\n  pop\n    /* \"contracts/study-case-contracts/001-delivery-hiring/DeliveryHiring_R.sol\":2064:2074  1672561800 */\n  0x63b14488\n    /* \"contracts/study-case-contracts/001-delivery-hiring/DeliveryHiring_R.sol\":2052:2061  beginDate */\n  0x00\n  0x01\n    /* \"contracts/study-case-contracts/001-delivery-hiring/DeliveryHiring_R.sol\":2052:2074  beginDate = 1672561800 */\n  0x0100\n  exp\n  dup2\n  sload\n  dup2\n  0xffffffff\n  mul\n  not\n  and\n  swap1\n  dup4\n  0xffffffff\n  and\n  mul\n  or\n  swap1\n  sstore\n  pop\n    /* \"contracts/study-case-contracts/001-delivery-hiring/DeliveryHiring_R.sol\":2092:2102  1704097800 */\n  0x65927808\n    /* \"contracts/study-case-contracts/001-delivery-hiring/DeliveryHiring_R.sol\":2082:2089  dueDate */\n  0x00\n  0x05\n    /* \"contracts/study-case-contracts/001-delivery-hiring/DeliveryHiring_R.sol\":2082:2102  dueDate = 1704097800 */\n  0x0100\n  exp\n  dup2\n  sload\n  dup2\n  0xffffffff\n  mul\n  not\n  and\n  swap1\n  dup4\n  0xffffffff\n  and\n  mul\n  or\n  swap1\n  sstore\n  pop\n    /* \"contracts/study-case-contracts/001-delivery-hiring/DeliveryHiring_R.sol\":2189:2250  EAI.createParty(\"Delivery System\", _applicationWallet, false) */\n  tag_8\n  mload(0x40)\n  dup1\n  0x40\n  add\n  0x40\n  mstore\n  dup1\n  0x0f\n  dup2\n  mstore\n  0x20\n  add\n  0x44656c69766572792053797374656d0000000000000000000000000000000000\n  dup2\n  mstore\n  pop\n    /* \"contracts/study-case-contracts/001-delivery-hiring/DeliveryHiring_R.sol\":2224:2242  _applicationWallet */\n  dup3\n    /* \"contracts/study-case-contracts/001-delivery-hiring/DeliveryHiring_R.sol\":2244:2249  false */\n  0x00\n    /* \"contracts/study-case-contracts/001-delivery-hiring/DeliveryHiring_R.sol\":2189:2204  EAI.createParty */\n  or(tag_0_42, shl(0x20, tag_9))\n    /* \"contracts/study-case-contracts/001-delivery-hiring/DeliveryHiring_R.sol\":2189:2250  EAI.createParty(\"Delivery System\", _applicationWallet, false) */\n  0x20\n  shr\n  jump\t// in\ntag_8:\n    /* \"contracts/study-case-contracts/001-delivery-hiring/DeliveryHiring_R.sol\":2175:2186  application */\n  0x01\n    /* \"contracts/study-case-contracts/001-delivery-hiring/DeliveryHiring_R.sol\":2175:2250  application = EAI.createParty(\"Delivery System\", _applicationWallet, false) */\n  0x00\n  dup3\n  add\n  mload\n  dup2\n  0x00\n  add\n  swap1\n  dup1\n  mload\n  swap1\n  0x20\n  add\n  swap1\n  tag_10\n  swap3\n  swap2\n  swap1\n  tag_2\n  jump\t// in\ntag_10:\n  pop\n  0x20\n  dup3\n  add\n  mload\n  dup2\n  0x01\n  add\n  exp(0x0100, 0x00)\n  dup2\n  sload\n  dup2\n  0xffffffffffffffffffffffffffffffffffffffff\n  mul\n  not\n  and\n  swap1\n  dup4\n  0xffffffffffffffffffffffffffffffffffffffff\n  and\n  mul\n  or\n  swap1\n  sstore\n  pop\n  0x40\n  dup3\n  add\n  mload\n  dup2\n  0x01\n  add\n  exp(0x0100, 0x14)\n  dup2\n  sload\n  dup2\n  0xff\n  mul\n  not\n  and\n  swap1\n  dup4\n  iszero\n  iszero\n  mul\n  or\n  swap1\n  sstore\n  pop\n  swap1\n  pop\n  pop\n    /* \"contracts/study-case-contracts/001-delivery-hiring/DeliveryHiring_R.sol\":2279:2335  EAI.createParty(\"Integration Process\", msg.sender, true) */\n  tag_11\n  mload(0x40)\n  dup1\n  0x40\n  add\n  0x40\n  mstore\n  dup1\n  0x13\n  dup2\n  mstore\n  0x20\n  add\n  0x496e746567726174696f6e2050726f6365737300000000000000000000000000\n  dup2\n  mstore\n  pop\n    /* \"contracts/study-case-contracts/001-delivery-hiring/DeliveryHiring_R.sol\":2318:2328  msg.sender */\n  caller\n    /* \"contracts/study-case-contracts/001-delivery-hiring/DeliveryHiring_R.sol\":2330:2334  true */\n  0x01\n    /* \"contracts/study-case-contracts/001-delivery-hiring/DeliveryHiring_R.sol\":2279:2294  EAI.createParty */\n  or(tag_0_42, shl(0x20, tag_9))\n    /* \"contracts/study-case-contracts/001-delivery-hiring/DeliveryHiring_R.sol\":2279:2335  EAI.createParty(\"Integration Process\", msg.sender, true) */\n  0x20\n  shr\n  jump\t// in\ntag_11:\n    /* \"contracts/study-case-contracts/001-delivery-hiring/DeliveryHiring_R.sol\":2269:2276  process */\n  0x03\n    /* \"contracts/study-case-contracts/001-delivery-hiring/DeliveryHiring_R.sol\":2269:2335  process = EAI.createParty(\"Integration Process\", msg.sender, true) */\n  0x00\n  dup3\n  add\n  mload\n  dup2\n  0x00\n  add\n  swap1\n  dup1\n  mload\n  swap1\n  0x20\n  add\n  swap1\n  tag_12\n  swap3\n  swap2\n  swap1\n  tag_2\n  jump\t// in\ntag_12:\n  pop\n  0x20\n  dup3\n  add\n  mload\n  dup2\n  0x01\n  add\n  exp(0x0100, 0x00)\n  dup2\n  sload\n  dup2\n  0xffffffffffffffffffffffffffffffffffffffff\n  mul\n  not\n  and\n  swap1\n  dup4\n  0xffffffffffffffffffffffffffffffffffffffff\n  and\n  mul\n  or\n  swap1\n  sstore\n  pop\n  0x40\n  dup3\n  add\n  mload\n  dup2\n  0x01\n  add\n  exp(0x0100, 0x14)\n  dup2\n  sload\n  dup2\n  0xff\n  mul\n  not\n  and\n  swap1\n  dup4\n  iszero\n  iszero\n  mul\n  or\n  swap1\n  sstore\n  pop\n  swap1\n  pop\n  pop\n    /* \"contracts/study-case-contracts/001-delivery-hiring/DeliveryHiring_R.sol\":2369:2376  process */\n  0x03\n    /* \"contracts/study-case-contracts/001-delivery-hiring/DeliveryHiring_R.sol\":2346:2354  mapParty */\n  0x05\n    /* \"contracts/study-case-contracts/001-delivery-hiring/DeliveryHiring_R.sol\":2346:2366  mapParty[msg.sender] */\n  0x00\n    /* \"contracts/study-case-contracts/001-delivery-hiring/DeliveryHiring_R.sol\":2355:2365  msg.sender */\n  caller\n    /* \"contracts/study-case-contracts/001-delivery-hiring/DeliveryHiring_R.sol\":2346:2366  mapParty[msg.sender] */\n  0xffffffffffffffffffffffffffffffffffffffff\n  and\n  0xffffffffffffffffffffffffffffffffffffffff\n  and\n  dup2\n  mstore\n  0x20\n  add\n  swap1\n  dup2\n  mstore\n  0x20\n  add\n  0x00\n  keccak256\n    /* \"contracts/study-case-contracts/001-delivery-hiring/DeliveryHiring_R.sol\":2346:2376  mapParty[msg.sender] = process */\n  0x00\n  dup3\n  add\n  dup2\n  0x00\n  add\n  swap1\n  dup1\n  sload\n  tag_13\n  swap1\n  tag_14\n  jump\t// in\ntag_13:\n  tag_15\n  swap3\n  swap2\n  swap1\n  tag_16\n  jump\t// in\ntag_15:\n  pop\n  0x01\n  dup3\n  add\n  0x00\n  swap1\n  sload\n  swap1\n  0x0100\n  exp\n  swap1\n  div\n  0xffffffffffffffffffffffffffffffffffffffff\n  and\n  dup2\n  0x01\n  add\n  exp(0x0100, 0x00)\n  dup2\n  sload\n  dup2\n  0xffffffffffffffffffffffffffffffffffffffff\n  mul\n  not\n  and\n  swap1\n  dup4\n  0xffffffffffffffffffffffffffffffffffffffff\n  and\n  mul\n  or\n  swap1\n  sstore\n  pop\n  0x01\n  dup3\n  add\n  0x14\n  swap1\n  sload\n  swap1\n  0x0100\n  exp\n  swap1\n  div\n  0xff\n  and\n  dup2\n  0x01\n  add\n  exp(0x0100, 0x14)\n  dup2\n  sload\n  dup2\n  0xff\n  mul\n  not\n  and\n  swap1\n  dup4\n  iszero\n  iszero\n  mul\n  or\n  swap1\n  sstore\n  pop\n  swap1\n  pop\n  pop\n    /* \"contracts/study-case-contracts/001-delivery-hiring/DeliveryHiring_R.sol\":2418:2429  application */\n  0x01\n    /* \"contracts/study-case-contracts/001-delivery-hiring/DeliveryHiring_R.sol\":2387:2395  mapParty */\n  0x05\n    /* \"contracts/study-case-contracts/001-delivery-hiring/DeliveryHiring_R.sol\":2387:2415  mapParty[_applicationWallet] */\n  0x00\n    /* \"contracts/study-case-contracts/001-delivery-hiring/DeliveryHiring_R.sol\":2396:2414  _applicationWallet */\n  dup4\n    /* \"contracts/study-case-contracts/001-delivery-hiring/DeliveryHiring_R.sol\":2387:2415  mapParty[_applicationWallet] */\n  0xffffffffffffffffffffffffffffffffffffffff\n  and\n  0xffffffffffffffffffffffffffffffffffffffff\n  and\n  dup2\n  mstore\n  0x20\n  add\n  swap1\n  dup2\n  mstore\n  0x20\n  add\n  0x00\n  keccak256\n    /* \"contracts/study-case-contracts/001-delivery-hiring/DeliveryHiring_R.sol\":2387:2429  mapParty[_applicationWallet] = application */\n  0x00\n  dup3\n  add\n  dup2\n  0x00\n  add\n  swap1\n  dup1\n  sload\n  tag_17\n  swap1\n  tag_14\n  jump\t// in\ntag_17:\n  tag_18\n  swap3\n  swap2\n  swap1\n  tag_16\n  jump\t// in\ntag_18:\n  pop\n  0x01\n  dup3\n  add\n  0x00\n  swap1\n  sload\n  swap1\n  0x0100\n  exp\n  swap1\n  div\n  0xffffffffffffffffffffffffffffffffffffffff\n  and\n  dup2\n  0x01\n  add\n  exp(0x0100, 0x00)\n  dup2\n  sload\n  dup2\n  0xffffffffffffffffffffffffffffffffffffffff\n  mul\n  not\n  and\n  swap1\n  dup4\n  0xffffffffffffffffffffffffffffffffffffffff\n  and\n  mul\n  or\n  swap1\n  sstore\n  pop\n  0x01\n  dup3\n  add\n  0x14\n  swap1\n  sload\n  swap1\n  0x0100\n  exp\n  swap1\n  div\n  0xff\n  and\n  dup2\n  0x01\n  add\n  exp(0x0100, 0x14)\n  dup2\n  sload\n  dup2\n  0xff\n  mul\n  not\n  and\n  swap1\n  dup4\n  iszero\n  iszero\n  mul\n  or\n  swap1\n  sstore\n  pop\n  swap1\n  pop\n  pop\n    /* \"contracts/study-case-contracts/001-delivery-hiring/DeliveryHiring_R.sol\":2548:2567  weekDaysInterval_C1 */\n  0x07\n    /* \"contracts/study-case-contracts/001-delivery-hiring/DeliveryHiring_R.sol\":2573:2623  EAI.createWeekDaysInterval(EAI.MONDAY, EAI.FRIDAY) */\n  tag_19\n    /* \"contracts/lib/eai/EAI.sol\":461:462  1 */\n  0x01\n    /* \"contracts/lib/eai/EAI.sol\":587:588  5 */\n  0x05\n    /* \"contracts/study-case-contracts/001-delivery-hiring/DeliveryHiring_R.sol\":2573:2599  EAI.createWeekDaysInterval */\n  or(tag_0_43, shl(0x20, tag_20))\n    /* \"contracts/study-case-contracts/001-delivery-hiring/DeliveryHiring_R.sol\":2573:2623  EAI.createWeekDaysInterval(EAI.MONDAY, EAI.FRIDAY) */\n  0x20\n  shr\n  jump\t// in\ntag_19:\n    /* \"contracts/study-case-contracts/001-delivery-hiring/DeliveryHiring_R.sol\":2548:2624  weekDaysInterval_C1.push(EAI.createWeekDaysInterval(EAI.MONDAY, EAI.FRIDAY)) */\n  swap1\n  dup1\n  0x01\n  dup2\n  sload\n  add\n  dup1\n  dup3\n  sstore\n  dup1\n  swap2\n  pop\n  pop\n  0x01\n  swap1\n  sub\n  swap1\n  0x00\n  mstore\n  keccak256(0x00, 0x20)\n  add\n  0x00\n  swap1\n  swap2\n  swap1\n  swap2\n  swap1\n  swap2\n  pop\n  0x00\n  dup3\n  add\n  mload\n  dup2\n  0x00\n  add\n  exp(0x0100, 0x00)\n  dup2\n  sload\n  dup2\n  0xff\n  mul\n  not\n  and\n  swap1\n  dup4\n  0xff\n  and\n  mul\n  or\n  swap1\n  sstore\n  pop\n  0x20\n  dup3\n  add\n  mload\n  dup2\n  0x00\n  add\n  exp(0x0100, 0x01)\n  dup2\n  sload\n  dup2\n  0xff\n  mul\n  not\n  and\n  swap1\n  dup4\n  0xff\n  and\n  mul\n  or\n  swap1\n  sstore\n  pop\n  pop\n  pop\n    /* \"contracts/study-case-contracts/001-delivery-hiring/DeliveryHiring_R.sol\":2635:2650  timeInterval_C1 */\n  0x08\n    /* \"contracts/study-case-contracts/001-delivery-hiring/DeliveryHiring_R.sol\":2656:2691  EAI.createTimeInterval(30600,66600) */\n  tag_22\n    /* \"contracts/study-case-contracts/001-delivery-hiring/DeliveryHiring_R.sol\":2679:2684  30600 */\n  0x7788\n    /* \"contracts/study-case-contracts/001-delivery-hiring/DeliveryHiring_R.sol\":2685:2690  66600 */\n  0x010428\n    /* \"contracts/study-case-contracts/001-delivery-hiring/DeliveryHiring_R.sol\":2656:2678  EAI.createTimeInterval */\n  or(tag_0_44, shl(0x20, tag_23))\n    /* \"contracts/study-case-contracts/001-delivery-hiring/DeliveryHiring_R.sol\":2656:2691  EAI.createTimeInterval(30600,66600) */\n  0x20\n  shr\n  jump\t// in\ntag_22:\n    /* \"contracts/study-case-contracts/001-delivery-hiring/DeliveryHiring_R.sol\":2635:2692  timeInterval_C1.push(EAI.createTimeInterval(30600,66600)) */\n  swap1\n  dup1\n  0x01\n  dup2\n  sload\n  add\n  dup1\n  dup3\n  sstore\n  dup1\n  swap2\n  pop\n  pop\n  0x01\n  swap1\n  sub\n  swap1\n  0x00\n  mstore\n  keccak256(0x00, 0x20)\n  add\n  0x00\n  swap1\n  swap2\n  swap1\n  swap2\n  swap1\n  swap2\n  pop\n  0x00\n  dup3\n  add\n  mload\n  dup2\n  0x00\n  add\n  exp(0x0100, 0x00)\n  dup2\n  sload\n  dup2\n  0xffffffff\n  mul\n  not\n  and\n  swap1\n  dup4\n  0xffffffff\n  and\n  mul\n  or\n  swap1\n  sstore\n  pop\n  0x20\n  dup3\n  add\n  mload\n  dup2\n  0x00\n  add\n  exp(0x0100, 0x04)\n  dup2\n  sload\n  dup2\n  0xffffffff\n  mul\n  not\n  and\n  swap1\n  dup4\n  0xffffffff\n  and\n  mul\n  or\n  swap1\n  sstore\n  pop\n  pop\n  pop\n    /* \"contracts/study-case-contracts/001-delivery-hiring/DeliveryHiring_R.sol\":2744:2773  maxNumberOfOperationByTime_C1 */\n  0x09\n    /* \"contracts/study-case-contracts/001-delivery-hiring/DeliveryHiring_R.sol\":2779:2827  EAI.createMaxNumberOfOperationByTime(5, EAI.DAY) */\n  tag_25\n    /* \"contracts/study-case-contracts/001-delivery-hiring/DeliveryHiring_R.sol\":2816:2817  5 */\n  0x05\n    /* \"contracts/lib/eai/EAI.sol\":755:756  3 */\n  0x03\n    /* \"contracts/study-case-contracts/001-delivery-hiring/DeliveryHiring_R.sol\":2779:2815  EAI.createMaxNumberOfOperationByTime */\n  or(tag_0_45, shl(0x20, tag_26))\n    /* \"contracts/study-case-contracts/001-delivery-hiring/DeliveryHiring_R.sol\":2779:2827  EAI.createMaxNumberOfOperationByTime(5, EAI.DAY) */\n  0x20\n  shr\n  jump\t// in\ntag_25:\n    /* \"contracts/study-case-contracts/001-delivery-hiring/DeliveryHiring_R.sol\":2744:2828  maxNumberOfOperationByTime_C1.push(EAI.createMaxNumberOfOperationByTime(5, EAI.DAY)) */\n  swap1\n  dup1\n  0x01\n  dup2\n  sload\n  add\n  dup1\n  dup3\n  sstore\n  dup1\n  swap2\n  pop\n  pop\n  0x01\n  swap1\n  sub\n  swap1\n  0x00\n  mstore\n  keccak256(0x00, 0x20)\n  add\n  0x00\n  swap1\n  swap2\n  swap1\n  swap2\n  swap1\n  swap2\n  pop\n  0x00\n  dup3\n  add\n  mload\n  dup2\n  0x00\n  add\n  exp(0x0100, 0x00)\n  dup2\n  sload\n  dup2\n  0xffffffff\n  mul\n  not\n  and\n  swap1\n  dup4\n  0xffffffff\n  and\n  mul\n  or\n  swap1\n  sstore\n  pop\n  0x20\n  dup3\n  add\n  mload\n  dup2\n  0x00\n  add\n  exp(0x0100, 0x04)\n  dup2\n  sload\n  dup2\n  0xff\n  mul\n  not\n  and\n  swap1\n  dup4\n  0xff\n  and\n  mul\n  or\n  swap1\n  sstore\n  pop\n  0x40\n  dup3\n  add\n  mload\n  dup2\n  0x00\n  add\n  exp(0x0100, 0x05)\n  dup2\n  sload\n  dup2\n  0xffffffff\n  mul\n  not\n  and\n  swap1\n  dup4\n  0xffffffff\n  and\n  mul\n  or\n  swap1\n  sstore\n  pop\n  0x60\n  dup3\n  add\n  mload\n  dup2\n  0x00\n  add\n  exp(0x0100, 0x09)\n  dup2\n  sload\n  dup2\n  0xffffffff\n  mul\n  not\n  and\n  swap1\n  dup4\n  0xffffffff\n  and\n  mul\n  or\n  swap1\n  sstore\n  pop\n  0x80\n  dup3\n  add\n  mload\n  dup2\n  0x00\n  add\n  exp(0x0100, 0x0d)\n  dup2\n  sload\n  dup2\n  0xffffffff\n  mul\n  not\n  and\n  swap1\n  dup4\n  0xffffffff\n  and\n  mul\n  or\n  swap1\n  sstore\n  pop\n  pop\n  pop\n    /* \"contracts/study-case-contracts/001-delivery-hiring/DeliveryHiring_R.sol\":2833:2853  msgContent_number_C1 */\n  0x0a\n    /* \"contracts/study-case-contracts/001-delivery-hiring/DeliveryHiring_R.sol\":2859:2911  EAI.createMessageContent(numberOfAddresses, \">=\", 1) */\n  tag_28\n    /* \"contracts/study-case-contracts/001-delivery-hiring/DeliveryHiring_R.sol\":2884:2901  numberOfAddresses */\n  0x06\n    /* \"contracts/study-case-contracts/001-delivery-hiring/DeliveryHiring_R.sol\":2859:2911  EAI.createMessageContent(numberOfAddresses, \">=\", 1) */\n  dup1\n  sload\n  tag_29\n  swap1\n  tag_14\n  jump\t// in\ntag_29:\n  dup1\n  0x1f\n  add\n  0x20\n  dup1\n  swap2\n  div\n  mul\n  0x20\n  add\n  mload(0x40)\n  swap1\n  dup2\n  add\n  0x40\n  mstore\n  dup1\n  swap3\n  swap2\n  swap1\n  dup2\n  dup2\n  mstore\n  0x20\n  add\n  dup3\n  dup1\n  sload\n  tag_30\n  swap1\n  tag_14\n  jump\t// in\ntag_30:\n  dup1\n  iszero\n  tag_31\n  jumpi\n  dup1\n  0x1f\n  lt\n  tag_32\n  jumpi\n  0x0100\n  dup1\n  dup4\n  sload\n  div\n  mul\n  dup4\n  mstore\n  swap2\n  0x20\n  add\n  swap2\n  jump(tag_31)\ntag_32:\n  dup3\n  add\n  swap2\n  swap1\n  0x00\n  mstore\n  keccak256(0x00, 0x20)\n  swap1\ntag_33:\n  dup2\n  sload\n  dup2\n  mstore\n  swap1\n  0x01\n  add\n  swap1\n  0x20\n  add\n  dup1\n  dup4\n  gt\n  tag_33\n  jumpi\n  dup3\n  swap1\n  sub\n  0x1f\n  and\n  dup3\n  add\n  swap2\ntag_31:\n  pop\n  pop\n  pop\n  pop\n  pop\n  mload(0x40)\n  dup1\n  0x40\n  add\n  0x40\n  mstore\n  dup1\n  0x02\n  dup2\n  mstore\n  0x20\n  add\n  0x3e3d000000000000000000000000000000000000000000000000000000000000\n  dup2\n  mstore\n  pop\n    /* \"contracts/study-case-contracts/001-delivery-hiring/DeliveryHiring_R.sol\":2909:2910  1 */\n  0x01\n    /* \"contracts/study-case-contracts/001-delivery-hiring/DeliveryHiring_R.sol\":2859:2883  EAI.createMessageContent */\n  or(tag_0_46, shl(0x20, tag_34))\n    /* \"contracts/study-case-contracts/001-delivery-hiring/DeliveryHiring_R.sol\":2859:2911  EAI.createMessageContent(numberOfAddresses, \">=\", 1) */\n  0x20\n  shr\n  jump\t// in\ntag_28:\n    /* \"contracts/study-case-contracts/001-delivery-hiring/DeliveryHiring_R.sol\":2833:2912  msgContent_number_C1.push(EAI.createMessageContent(numberOfAddresses, \">=\", 1)) */\n  swap1\n  dup1\n  0x01\n  dup2\n  sload\n  add\n  dup1\n  dup3\n  sstore\n  dup1\n  swap2\n  pop\n  pop\n  0x01\n  swap1\n  sub\n  swap1\n  0x00\n  mstore\n  keccak256(0x00, 0x20)\n  swap1\n  0x03\n  mul\n  add\n  0x00\n  swap1\n  swap2\n  swap1\n  swap2\n  swap1\n  swap2\n  pop\n  0x00\n  dup3\n  add\n  mload\n  dup2\n  0x00\n  add\n  swap1\n  dup1\n  mload\n  swap1\n  0x20\n  add\n  swap1\n  tag_36\n  swap3\n  swap2\n  swap1\n  tag_2\n  jump\t// in\ntag_36:\n  pop\n  0x20\n  dup3\n  add\n  mload\n  dup2\n  0x01\n  add\n  swap1\n  dup1\n  mload\n  swap1\n  0x20\n  add\n  swap1\n  tag_37\n  swap3\n  swap2\n  swap1\n  tag_2\n  jump\t// in\ntag_37:\n  pop\n  0x40\n  dup3\n  add\n  mload\n  dup2\n  0x02\n  add\n  sstore\n  pop\n  pop\n    /* \"contracts/study-case-contracts/001-delivery-hiring/DeliveryHiring_R.sol\":2931:2951  msgContent_number_C1 */\n  0x0a\n    /* \"contracts/study-case-contracts/001-delivery-hiring/DeliveryHiring_R.sol\":2957:3009  EAI.createMessageContent(numberOfAddresses, \"<=\", 3) */\n  tag_38\n    /* \"contracts/study-case-contracts/001-delivery-hiring/DeliveryHiring_R.sol\":2982:2999  numberOfAddresses */\n  0x06\n    /* \"contracts/study-case-contracts/001-delivery-hiring/DeliveryHiring_R.sol\":2957:3009  EAI.createMessageContent(numberOfAddresses, \"<=\", 3) */\n  dup1\n  sload\n  tag_39\n  swap1\n  tag_14\n  jump\t// in\ntag_39:\n  dup1\n  0x1f\n  add\n  0x20\n  dup1\n  swap2\n  div\n  mul\n  0x20\n  add\n  mload(0x40)\n  swap1\n  dup2\n  add\n  0x40\n  mstore\n  dup1\n  swap3\n  swap2\n  swap1\n  dup2\n  dup2\n  mstore\n  0x20\n  add\n  dup3\n  dup1\n  sload\n  tag_40\n  swap1\n  tag_14\n  jump\t// in\ntag_40:\n  dup1\n  iszero\n  tag_41\n  jumpi\n  dup1\n  0x1f\n  lt\n  tag_42\n  jumpi\n  0x0100\n  dup1\n  dup4\n  sload\n  div\n  mul\n  dup4\n  mstore\n  swap2\n  0x20\n  add\n  swap2\n  jump(tag_41)\ntag_42:\n  dup3\n  add\n  swap2\n  swap1\n  0x00\n  mstore\n  keccak256(0x00, 0x20)\n  swap1\ntag_43:\n  dup2\n  sload\n  dup2\n  mstore\n  swap1\n  0x01\n  add\n  swap1\n  0x20\n  add\n  dup1\n  dup4\n  gt\n  tag_43\n  jumpi\n  dup3\n  swap1\n  sub\n  0x1f\n  and\n  dup3\n  add\n  swap2\ntag_41:\n  pop\n  pop\n  pop\n  pop\n  pop\n  mload(0x40)\n  dup1\n  0x40\n  add\n  0x40\n  mstore\n  dup1\n  0x02\n  dup2\n  mstore\n  0x20\n  add\n  0x3c3d000000000000000000000000000000000000000000000000000000000000\n  dup2\n  mstore\n  pop\n    /* \"contracts/study-case-contracts/001-delivery-hiring/DeliveryHiring_R.sol\":3007:3008  3 */\n  0x03\n    /* \"contracts/study-case-contracts/001-delivery-hiring/DeliveryHiring_R.sol\":2957:2981  EAI.createMessageContent */\n  or(tag_0_46, shl(0x20, tag_34))\n    /* \"contracts/study-case-contracts/001-delivery-hiring/DeliveryHiring_R.sol\":2957:3009  EAI.createMessageContent(numberOfAddresses, \"<=\", 3) */\n  0x20\n  shr\n  jump\t// in\ntag_38:\n    /* \"contracts/study-case-contracts/001-delivery-hiring/DeliveryHiring_R.sol\":2931:3010  msgContent_number_C1.push(EAI.createMessageContent(numberOfAddresses, \"<=\", 3)) */\n  swap1\n  dup1\n  0x01\n  dup2\n  sload\n  add\n  dup1\n  dup3\n  sstore\n  dup1\n  swap2\n  pop\n  pop\n  0x01\n  swap1\n  sub\n  swap1\n  0x00\n  mstore\n  keccak256(0x00, 0x20)\n  swap1\n  0x03\n  mul\n  add\n  0x00\n  swap1\n  swap2\n  swap1\n  swap2\n  swap1\n  swap2\n  pop\n  0x00\n  dup3\n  add\n  mload\n  dup2\n  0x00\n  add\n  swap1\n  dup1\n  mload\n  swap1\n  0x20\n  add\n  swap1\n  tag_45\n  swap3\n  swap2\n  swap1\n  tag_2\n  jump\t// in\ntag_45:\n  pop\n  0x20\n  dup3\n  add\n  mload\n  dup2\n  0x01\n  add\n  swap1\n  dup1\n  mload\n  swap1\n  0x20\n  add\n  swap1\n  tag_46\n  swap3\n  swap2\n  swap1\n  tag_2\n  jump\t// in\ntag_46:\n  pop\n  0x40\n  dup3\n  add\n  mload\n  dup2\n  0x02\n  add\n  sstore\n  pop\n  pop\n    /* \"contracts/study-case-contracts/001-delivery-hiring/DeliveryHiring_R.sol\":3029:3056  msgContent_numberPerTime_C1 */\n  0x0b\n    /* \"contracts/study-case-contracts/001-delivery-hiring/DeliveryHiring_R.sol\":3062:3128  EAI.createMessageContent(numberOfAddresses, \"<=\", 1000, EAI.MONTH) */\n  tag_47\n    /* \"contracts/study-case-contracts/001-delivery-hiring/DeliveryHiring_R.sol\":3087:3104  numberOfAddresses */\n  0x06\n    /* \"contracts/study-case-contracts/001-delivery-hiring/DeliveryHiring_R.sol\":3062:3128  EAI.createMessageContent(numberOfAddresses, \"<=\", 1000, EAI.MONTH) */\n  dup1\n  sload\n  tag_48\n  swap1\n  tag_14\n  jump\t// in\ntag_48:\n  dup1\n  0x1f\n  add\n  0x20\n  dup1\n  swap2\n  div\n  mul\n  0x20\n  add\n  mload(0x40)\n  swap1\n  dup2\n  add\n  0x40\n  mstore\n  dup1\n  swap3\n  swap2\n  swap1\n  dup2\n  dup2\n  mstore\n  0x20\n  add\n  dup3\n  dup1\n  sload\n  tag_49\n  swap1\n  tag_14\n  jump\t// in\ntag_49:\n  dup1\n  iszero\n  tag_50\n  jumpi\n  dup1\n  0x1f\n  lt\n  tag_51\n  jumpi\n  0x0100\n  dup1\n  dup4\n  sload\n  div\n  mul\n  dup4\n  mstore\n  swap2\n  0x20\n  add\n  swap2\n  jump(tag_50)\ntag_51:\n  dup3\n  add\n  swap2\n  swap1\n  0x00\n  mstore\n  keccak256(0x00, 0x20)\n  swap1\ntag_52:\n  dup2\n  sload\n  dup2\n  mstore\n  swap1\n  0x01\n  add\n  swap1\n  0x20\n  add\n  dup1\n  dup4\n  gt\n  tag_52\n  jumpi\n  dup3\n  swap1\n  sub\n  0x1f\n  and\n  dup3\n  add\n  swap2\ntag_50:\n  pop\n  pop\n  pop\n  pop\n  pop\n  mload(0x40)\n  dup1\n  0x40\n  add\n  0x40\n  mstore\n  dup1\n  0x02\n  dup2\n  mstore\n  0x20\n  add\n  0x3c3d000000000000000000000000000000000000000000000000000000000000\n  dup2\n  mstore\n  pop\n    /* \"contracts/study-case-contracts/001-delivery-hiring/DeliveryHiring_R.sol\":3112:3116  1000 */\n  0x03e8\n    /* \"contracts/lib/eai/EAI.sol\":814:815  5 */\n  0x05\n    /* \"contracts/study-case-contracts/001-delivery-hiring/DeliveryHiring_R.sol\":3062:3086  EAI.createMessageContent */\n  or(tag_0_47, shl(0x20, tag_53))\n    /* \"contracts/study-case-contracts/001-delivery-hiring/DeliveryHiring_R.sol\":3062:3128  EAI.createMessageContent(numberOfAddresses, \"<=\", 1000, EAI.MONTH) */\n  0x20\n  shr\n  jump\t// in\ntag_47:\n    /* \"contracts/study-case-contracts/001-delivery-hiring/DeliveryHiring_R.sol\":3029:3129  msgContent_numberPerTime_C1.push(EAI.createMessageContent(numberOfAddresses, \"<=\", 1000, EAI.MONTH)) */\n  swap1\n  dup1\n  0x01\n  dup2\n  sload\n  add\n  dup1\n  dup3\n  sstore\n  dup1\n  swap2\n  pop\n  pop\n  0x01\n  swap1\n  sub\n  swap1\n  0x00\n  mstore\n  keccak256(0x00, 0x20)\n  swap1\n  0x06\n  mul\n  add\n  0x00\n  swap1\n  swap2\n  swap1\n  swap2\n  swap1\n  swap2\n  pop\n  0x00\n  dup3\n  add\n  mload\n  dup2\n  0x00\n  add\n  swap1\n  dup1\n  mload\n  swap1\n  0x20\n  add\n  swap1\n  tag_55\n  swap3\n  swap2\n  swap1\n  tag_2\n  jump\t// in\ntag_55:\n  pop\n  0x20\n  dup3\n  add\n  mload\n  dup2\n  0x01\n  add\n  swap1\n  dup1\n  mload\n  swap1\n  0x20\n  add\n  swap1\n  tag_56\n  swap3\n  swap2\n  swap1\n  tag_2\n  jump\t// in\ntag_56:\n  pop\n  0x40\n  dup3\n  add\n  mload\n  dup2\n  0x02\n  add\n  sstore\n  0x60\n  dup3\n  add\n  mload\n  dup2\n  0x03\n  add\n  exp(0x0100, 0x00)\n  dup2\n  sload\n  dup2\n  0xff\n  mul\n  not\n  and\n  swap1\n  dup4\n  0xff\n  and\n  mul\n  or\n  swap1\n  sstore\n  pop\n  0x80\n  dup3\n  add\n  mload\n  dup2\n  0x03\n  add\n  exp(0x0100, 0x01)\n  dup2\n  sload\n  dup2\n  0xffffffff\n  mul\n  not\n  and\n  swap1\n  dup4\n  0xffffffff\n  and\n  mul\n  or\n  swap1\n  sstore\n  pop\n  0xa0\n  dup3\n  add\n  mload\n  dup2\n  0x04\n  add\n  sstore\n  0xc0\n  dup3\n  add\n  mload\n  dup2\n  0x05\n  add\n  exp(0x0100, 0x00)\n  dup2\n  sload\n  dup2\n  0xffffffff\n  mul\n  not\n  and\n  swap1\n  dup4\n  0xffffffff\n  and\n  mul\n  or\n  swap1\n  sstore\n  pop\n  pop\n  pop\n    /* \"contracts/study-case-contracts/001-delivery-hiring/DeliveryHiring_R.sol\":1932:3136  constructor(address _applicationWallet){... */\n  pop\n    /* \"contracts/study-case-contracts/001-delivery-hiring/DeliveryHiring_R.sol\":190:7181  contract DeliveryHiring_R {... */\n  jump(tag_57)\n    /* \"contracts/lib/eai/EAI.sol\":1588:1764  function createParty(string memory _name, address _walletAddress, bool _aware) internal pure returns(Party memory){... */\ntag_9:\n    /* \"contracts/lib/eai/EAI.sol\":1689:1701  Party memory */\n  tag_58\n  tag_59\n  jump\t// in\ntag_58:\n    /* \"contracts/lib/eai/EAI.sol\":1720:1756  Party(_name, _walletAddress, _aware) */\n  mload(0x40)\n  dup1\n  0x60\n  add\n  0x40\n  mstore\n  dup1\n    /* \"contracts/lib/eai/EAI.sol\":1726:1731  _name */\n  dup6\n    /* \"contracts/lib/eai/EAI.sol\":1720:1756  Party(_name, _walletAddress, _aware) */\n  dup2\n  mstore\n  0x20\n  add\n    /* \"contracts/lib/eai/EAI.sol\":1733:1747  _walletAddress */\n  dup5\n    /* \"contracts/lib/eai/EAI.sol\":1720:1756  Party(_name, _walletAddress, _aware) */\n  0xffffffffffffffffffffffffffffffffffffffff\n  and\n  dup2\n  mstore\n  0x20\n  add\n    /* \"contracts/lib/eai/EAI.sol\":1749:1755  _aware */\n  dup4\n    /* \"contracts/lib/eai/EAI.sol\":1720:1756  Party(_name, _walletAddress, _aware) */\n  iszero\n  iszero\n  dup2\n  mstore\n  pop\n    /* \"contracts/lib/eai/EAI.sol\":1713:1756  return Party(_name, _walletAddress, _aware) */\n  swap1\n  pop\n    /* \"contracts/lib/eai/EAI.sol\":1588:1764  function createParty(string memory _name, address _walletAddress, bool _aware) internal pure returns(Party memory){... */\n  swap4\n  swap3\n  pop\n  pop\n  pop\n  jump\t// out\n    /* \"contracts/lib/eai/EAI.sol\":2808:3028  function createWeekDaysInterval(... */\ntag_20:\n    /* \"contracts/lib/eai/EAI.sol\":2948:2971  WeekDaysInterval memory */\n  tag_61\n  tag_62\n  jump\t// in\ntag_61:\n    /* \"contracts/lib/eai/EAI.sol\":2924:2930  _start */\n  dup3\n    /* \"contracts/lib/eai/EAI.sol\":2932:2936  _end */\n  dup3\n    /* \"contracts/lib/eai/EAI.sol\":431:432  0 */\n  0x00\n    /* \"contracts/lib/eai/EAI.sol\":4953:4972  _startDay >= SUNDAY */\n  0xff\n  and\n    /* \"contracts/lib/eai/EAI.sol\":4953:4962  _startDay */\n  dup3\n    /* \"contracts/lib/eai/EAI.sol\":4953:4972  _startDay >= SUNDAY */\n  0xff\n  and\n  lt\n  iszero\n    /* \"contracts/lib/eai/EAI.sol\":4953:4997  _startDay >= SUNDAY && _startDay <= SATURDAY */\n  dup1\n  iszero\n  tag_64\n  jumpi\n  pop\n    /* \"contracts/lib/eai/EAI.sol\":619:620  6 */\n  0x06\n    /* \"contracts/lib/eai/EAI.sol\":4976:4997  _startDay <= SATURDAY */\n  0xff\n  and\n    /* \"contracts/lib/eai/EAI.sol\":4976:4985  _startDay */\n  dup3\n    /* \"contracts/lib/eai/EAI.sol\":4976:4997  _startDay <= SATURDAY */\n  0xff\n  and\n  gt\n  iszero\n    /* \"contracts/lib/eai/EAI.sol\":4953:4997  _startDay >= SUNDAY && _startDay <= SATURDAY */\ntag_64:\n    /* \"contracts/lib/eai/EAI.sol\":4944:5042  require( _startDay >= SUNDAY && _startDay <= SATURDAY, \"The _startDay not represents a valid day\") */\n  tag_65\n  jumpi\n  mload(0x40)\n  0x08c379a000000000000000000000000000000000000000000000000000000000\n  dup2\n  mstore\n  0x04\n  add\n  tag_66\n  swap1\n  tag_67\n  jump\t// in\ntag_66:\n  mload(0x40)\n  dup1\n  swap2\n  sub\n  swap1\n  revert\ntag_65:\n    /* \"contracts/lib/eai/EAI.sol\":431:432  0 */\n  0x00\n    /* \"contracts/lib/eai/EAI.sol\":5061:5078  _endDay >= SUNDAY */\n  0xff\n  and\n    /* \"contracts/lib/eai/EAI.sol\":5061:5068  _endDay */\n  dup2\n    /* \"contracts/lib/eai/EAI.sol\":5061:5078  _endDay >= SUNDAY */\n  0xff\n  and\n  lt\n  iszero\n    /* \"contracts/lib/eai/EAI.sol\":5061:5101  _endDay >= SUNDAY && _endDay <= SATURDAY */\n  dup1\n  iszero\n  tag_68\n  jumpi\n  pop\n    /* \"contracts/lib/eai/EAI.sol\":619:620  6 */\n  0x06\n    /* \"contracts/lib/eai/EAI.sol\":5082:5101  _endDay <= SATURDAY */\n  0xff\n  and\n    /* \"contracts/lib/eai/EAI.sol\":5082:5089  _endDay */\n  dup2\n    /* \"contracts/lib/eai/EAI.sol\":5082:5101  _endDay <= SATURDAY */\n  0xff\n  and\n  gt\n  iszero\n    /* \"contracts/lib/eai/EAI.sol\":5061:5101  _endDay >= SUNDAY && _endDay <= SATURDAY */\ntag_68:\n    /* \"contracts/lib/eai/EAI.sol\":5053:5145  require(_endDay >= SUNDAY && _endDay <= SATURDAY,  \"The _endDay not represents a valid day\") */\n  tag_69\n  jumpi\n  mload(0x40)\n  0x08c379a000000000000000000000000000000000000000000000000000000000\n  dup2\n  mstore\n  0x04\n  add\n  tag_70\n  swap1\n  tag_71\n  jump\t// in\ntag_70:\n  mload(0x40)\n  dup1\n  swap2\n  sub\n  swap1\n  revert\ntag_69:\n    /* \"contracts/lib/eai/EAI.sol\":2990:3020  WeekDaysInterval(_start, _end) */\n  mload(0x40)\n  dup1\n  0x40\n  add\n  0x40\n  mstore\n  dup1\n    /* \"contracts/lib/eai/EAI.sol\":3007:3013  _start */\n  dup7\n    /* \"contracts/lib/eai/EAI.sol\":2990:3020  WeekDaysInterval(_start, _end) */\n  0xff\n  and\n  dup2\n  mstore\n  0x20\n  add\n    /* \"contracts/lib/eai/EAI.sol\":3015:3019  _end */\n  dup6\n    /* \"contracts/lib/eai/EAI.sol\":2990:3020  WeekDaysInterval(_start, _end) */\n  0xff\n  and\n  dup2\n  mstore\n  pop\n    /* \"contracts/lib/eai/EAI.sol\":2983:3020  return WeekDaysInterval(_start, _end) */\n  swap3\n  pop\n    /* \"contracts/lib/eai/EAI.sol\":2808:3028  function createWeekDaysInterval(... */\n  pop\n  pop\n  swap3\n  swap2\n  pop\n  pop\n  jump\t// out\n    /* \"contracts/lib/eai/EAI.sol\":5722:5933  function createTimeInterval(... */\ntag_23:\n    /* \"contracts/lib/eai/EAI.sol\":5861:5880  TimeInterval memory */\n  tag_73\n  tag_74\n  jump\t// in\ntag_73:\n    /* \"contracts/lib/eai/EAI.sol\":5837:5843  _start */\n  dup3\n    /* \"contracts/lib/eai/EAI.sol\":5845:5849  _end */\n  dup3\n    /* \"contracts/lib/eai/EAI.sol\":990:991  0 */\n  0x00\n    /* \"contracts/lib/eai/EAI.sol\":7600:7620  _startHr >= MIN_HOUR */\n  0xffffffff\n  and\n    /* \"contracts/lib/eai/EAI.sol\":7600:7608  _startHr */\n  dup3\n    /* \"contracts/lib/eai/EAI.sol\":7600:7620  _startHr >= MIN_HOUR */\n  0xffffffff\n  and\n  lt\n  iszero\n    /* \"contracts/lib/eai/EAI.sol\":7600:7644  _startHr >= MIN_HOUR && _startHr <= MAX_HOUR */\n  dup1\n  iszero\n  tag_76\n  jumpi\n  pop\n    /* \"contracts/lib/eai/EAI.sol\":1024:1029  86399 */\n  0x01517f\n    /* \"contracts/lib/eai/EAI.sol\":7624:7644  _startHr <= MAX_HOUR */\n  0xffffffff\n  and\n    /* \"contracts/lib/eai/EAI.sol\":7624:7632  _startHr */\n  dup3\n    /* \"contracts/lib/eai/EAI.sol\":7624:7644  _startHr <= MAX_HOUR */\n  0xffffffff\n  and\n  gt\n  iszero\n    /* \"contracts/lib/eai/EAI.sol\":7600:7644  _startHr >= MIN_HOUR && _startHr <= MAX_HOUR */\ntag_76:\n    /* \"contracts/lib/eai/EAI.sol\":7591:7689  require( _startHr >= MIN_HOUR && _startHr <= MAX_HOUR, \"The _startDay not represents a valid day\") */\n  tag_77\n  jumpi\n  mload(0x40)\n  0x08c379a000000000000000000000000000000000000000000000000000000000\n  dup2\n  mstore\n  0x04\n  add\n  tag_78\n  swap1\n  tag_67\n  jump\t// in\ntag_78:\n  mload(0x40)\n  dup1\n  swap2\n  sub\n  swap1\n  revert\ntag_77:\n    /* \"contracts/lib/eai/EAI.sol\":990:991  0 */\n  0x00\n    /* \"contracts/lib/eai/EAI.sol\":7708:7726  _endHr >= MIN_HOUR */\n  0xffffffff\n  and\n    /* \"contracts/lib/eai/EAI.sol\":7708:7714  _endHr */\n  dup2\n    /* \"contracts/lib/eai/EAI.sol\":7708:7726  _endHr >= MIN_HOUR */\n  0xffffffff\n  and\n  lt\n  iszero\n    /* \"contracts/lib/eai/EAI.sol\":7708:7748  _endHr >= MIN_HOUR && _endHr <= MAX_HOUR */\n  dup1\n  iszero\n  tag_79\n  jumpi\n  pop\n    /* \"contracts/lib/eai/EAI.sol\":1024:1029  86399 */\n  0x01517f\n    /* \"contracts/lib/eai/EAI.sol\":7730:7748  _endHr <= MAX_HOUR */\n  0xffffffff\n  and\n    /* \"contracts/lib/eai/EAI.sol\":7730:7736  _endHr */\n  dup2\n    /* \"contracts/lib/eai/EAI.sol\":7730:7748  _endHr <= MAX_HOUR */\n  0xffffffff\n  and\n  gt\n  iszero\n    /* \"contracts/lib/eai/EAI.sol\":7708:7748  _endHr >= MIN_HOUR && _endHr <= MAX_HOUR */\ntag_79:\n    /* \"contracts/lib/eai/EAI.sol\":7700:7792  require(_endHr >= MIN_HOUR && _endHr <= MAX_HOUR,  \"The _endDay not represents a valid day\") */\n  tag_80\n  jumpi\n  mload(0x40)\n  0x08c379a000000000000000000000000000000000000000000000000000000000\n  dup2\n  mstore\n  0x04\n  add\n  tag_81\n  swap1\n  tag_71\n  jump\t// in\ntag_81:\n  mload(0x40)\n  dup1\n  swap2\n  sub\n  swap1\n  revert\ntag_80:\n    /* \"contracts/lib/eai/EAI.sol\":5899:5925  TimeInterval(_start, _end) */\n  mload(0x40)\n  dup1\n  0x40\n  add\n  0x40\n  mstore\n  dup1\n    /* \"contracts/lib/eai/EAI.sol\":5912:5918  _start */\n  dup7\n    /* \"contracts/lib/eai/EAI.sol\":5899:5925  TimeInterval(_start, _end) */\n  0xffffffff\n  and\n  dup2\n  mstore\n  0x20\n  add\n    /* \"contracts/lib/eai/EAI.sol\":5920:5924  _end */\n  dup6\n    /* \"contracts/lib/eai/EAI.sol\":5899:5925  TimeInterval(_start, _end) */\n  0xffffffff\n  and\n  dup2\n  mstore\n  pop\n    /* \"contracts/lib/eai/EAI.sol\":5892:5925  return TimeInterval(_start, _end) */\n  swap3\n  pop\n    /* \"contracts/lib/eai/EAI.sol\":5722:5933  function createTimeInterval(... */\n  pop\n  pop\n  swap3\n  swap2\n  pop\n  pop\n  jump\t// out\n    /* \"contracts/lib/eai/EAI.sol\":10916:11547  function createMaxNumberOfOperationByTime(... */\ntag_26:\n    /* \"contracts/lib/eai/EAI.sol\":11041:11074  MaxNumberOfOperationByTime memory */\n  tag_83\n  tag_84\n  jump\t// in\ntag_83:\n    /* \"contracts/lib/eai/EAI.sol\":11088:11104  uint32 auxByTime */\n  0x00\n    /* \"contracts/lib/eai/EAI.sol\":784:785  4 */\n  0x04\n    /* \"contracts/lib/eai/EAI.sol\":11120:11137  _timeUnit <= WEEK */\n  0xff\n  and\n    /* \"contracts/lib/eai/EAI.sol\":11120:11129  _timeUnit */\n  dup4\n    /* \"contracts/lib/eai/EAI.sol\":11120:11137  _timeUnit <= WEEK */\n  0xff\n  and\n  gt\n    /* \"contracts/lib/eai/EAI.sol\":11117:11453  if(_timeUnit <= WEEK){... */\n  tag_86\n  jumpi\n    /* \"contracts/lib/eai/EAI.sol\":11270:11297  getTimeInSeconds(_timeUnit) */\n  tag_87\n    /* \"contracts/lib/eai/EAI.sol\":11287:11296  _timeUnit */\n  dup4\n    /* \"contracts/lib/eai/EAI.sol\":11270:11286  getTimeInSeconds */\n  shl(0x20, tag_88)\n    /* \"contracts/lib/eai/EAI.sol\":11270:11297  getTimeInSeconds(_timeUnit) */\n  0x20\n  shr\n  jump\t// in\ntag_87:\n    /* \"contracts/lib/eai/EAI.sol\":11259:11297  auxByTime= getTimeInSeconds(_timeUnit) */\n  swap1\n  pop\n    /* \"contracts/lib/eai/EAI.sol\":11117:11453  if(_timeUnit <= WEEK){... */\n  jump(tag_89)\ntag_86:\n    /* \"contracts/lib/eai/EAI.sol\":11439:11440  1 */\n  0x01\n    /* \"contracts/lib/eai/EAI.sol\":11427:11440  auxByTime = 1 */\n  swap1\n  pop\n    /* \"contracts/lib/eai/EAI.sol\":11117:11453  if(_timeUnit <= WEEK){... */\ntag_89:\n    /* \"contracts/lib/eai/EAI.sol\":11470:11539  MaxNumberOfOperationByTime(_amount, _timeUnit, auxByTime, _amount, 0) */\n  mload(0x40)\n  dup1\n  0xa0\n  add\n  0x40\n  mstore\n  dup1\n    /* \"contracts/lib/eai/EAI.sol\":11497:11504  _amount */\n  dup6\n    /* \"contracts/lib/eai/EAI.sol\":11470:11539  MaxNumberOfOperationByTime(_amount, _timeUnit, auxByTime, _amount, 0) */\n  0xffffffff\n  and\n  dup2\n  mstore\n  0x20\n  add\n    /* \"contracts/lib/eai/EAI.sol\":11506:11515  _timeUnit */\n  dup5\n    /* \"contracts/lib/eai/EAI.sol\":11470:11539  MaxNumberOfOperationByTime(_amount, _timeUnit, auxByTime, _amount, 0) */\n  0xff\n  and\n  dup2\n  mstore\n  0x20\n  add\n    /* \"contracts/lib/eai/EAI.sol\":11517:11526  auxByTime */\n  dup3\n    /* \"contracts/lib/eai/EAI.sol\":11470:11539  MaxNumberOfOperationByTime(_amount, _timeUnit, auxByTime, _amount, 0) */\n  0xffffffff\n  and\n  dup2\n  mstore\n  0x20\n  add\n    /* \"contracts/lib/eai/EAI.sol\":11528:11535  _amount */\n  dup6\n    /* \"contracts/lib/eai/EAI.sol\":11470:11539  MaxNumberOfOperationByTime(_amount, _timeUnit, auxByTime, _amount, 0) */\n  0xffffffff\n  and\n  dup2\n  mstore\n  0x20\n  add\n    /* \"contracts/lib/eai/EAI.sol\":11537:11538  0 */\n  0x00\n    /* \"contracts/lib/eai/EAI.sol\":11470:11539  MaxNumberOfOperationByTime(_amount, _timeUnit, auxByTime, _amount, 0) */\n  0xffffffff\n  and\n  dup2\n  mstore\n  pop\n    /* \"contracts/lib/eai/EAI.sol\":11463:11539  return MaxNumberOfOperationByTime(_amount, _timeUnit, auxByTime, _amount, 0) */\n  swap2\n  pop\n  pop\n    /* \"contracts/lib/eai/EAI.sol\":10916:11547  function createMaxNumberOfOperationByTime(... */\n  swap3\n  swap2\n  pop\n  pop\n  jump\t// out\n    /* \"contracts/lib/eai/EAI.sol\":15443:15662  function createMessageContent(string memory _xpath, string memory _op, int256 _content ) internal pure returns(MessageContent_Number memory){        ... */\ntag_34:\n    /* \"contracts/lib/eai/EAI.sol\":15554:15582  MessageContent_Number memory */\n  tag_90\n  tag_91\n  jump\t// in\ntag_90:\n    /* \"contracts/lib/eai/EAI.sol\":15609:15653  MessageContent_Number(_xpath, _op, _content) */\n  mload(0x40)\n  dup1\n  0x60\n  add\n  0x40\n  mstore\n  dup1\n    /* \"contracts/lib/eai/EAI.sol\":15631:15637  _xpath */\n  dup6\n    /* \"contracts/lib/eai/EAI.sol\":15609:15653  MessageContent_Number(_xpath, _op, _content) */\n  dup2\n  mstore\n  0x20\n  add\n    /* \"contracts/lib/eai/EAI.sol\":15639:15642  _op */\n  dup5\n    /* \"contracts/lib/eai/EAI.sol\":15609:15653  MessageContent_Number(_xpath, _op, _content) */\n  dup2\n  mstore\n  0x20\n  add\n    /* \"contracts/lib/eai/EAI.sol\":15644:15652  _content */\n  dup4\n    /* \"contracts/lib/eai/EAI.sol\":15609:15653  MessageContent_Number(_xpath, _op, _content) */\n  dup2\n  mstore\n  pop\n    /* \"contracts/lib/eai/EAI.sol\":15602:15653  return MessageContent_Number(_xpath, _op, _content) */\n  swap1\n  pop\n    /* \"contracts/lib/eai/EAI.sol\":15443:15662  function createMessageContent(string memory _xpath, string memory _op, int256 _content ) internal pure returns(MessageContent_Number memory){        ... */\n  swap4\n  swap3\n  pop\n  pop\n  pop\n  jump\t// out\n    /* \"contracts/lib/eai/EAI.sol\":17533:18341  function createMessageContent(... */\ntag_53:\n    /* \"contracts/lib/eai/EAI.sol\":17707:17742  MessageContent_NumberPerTime memory */\n  tag_93\n  tag_94\n  jump\t// in\ntag_93:\n    /* \"contracts/lib/eai/EAI.sol\":17756:17772  uint32 auxByTime */\n  0x00\n    /* \"contracts/lib/eai/EAI.sol\":784:785  4 */\n  0x04\n    /* \"contracts/lib/eai/EAI.sol\":17788:17805  _timeUnit <= WEEK */\n  0xff\n  and\n    /* \"contracts/lib/eai/EAI.sol\":17788:17797  _timeUnit */\n  dup4\n    /* \"contracts/lib/eai/EAI.sol\":17788:17805  _timeUnit <= WEEK */\n  0xff\n  and\n  gt\n    /* \"contracts/lib/eai/EAI.sol\":17785:18121  if(_timeUnit <= WEEK){... */\n  tag_96\n  jumpi\n    /* \"contracts/lib/eai/EAI.sol\":17938:17965  getTimeInSeconds(_timeUnit) */\n  tag_97\n    /* \"contracts/lib/eai/EAI.sol\":17955:17964  _timeUnit */\n  dup4\n    /* \"contracts/lib/eai/EAI.sol\":17938:17954  getTimeInSeconds */\n  shl(0x20, tag_88)\n    /* \"contracts/lib/eai/EAI.sol\":17938:17965  getTimeInSeconds(_timeUnit) */\n  0x20\n  shr\n  jump\t// in\ntag_97:\n    /* \"contracts/lib/eai/EAI.sol\":17927:17965  auxByTime= getTimeInSeconds(_timeUnit) */\n  swap1\n  pop\n    /* \"contracts/lib/eai/EAI.sol\":17785:18121  if(_timeUnit <= WEEK){... */\n  jump(tag_98)\ntag_96:\n    /* \"contracts/lib/eai/EAI.sol\":18107:18108  1 */\n  0x01\n    /* \"contracts/lib/eai/EAI.sol\":18095:18108  auxByTime = 1 */\n  swap1\n  pop\n    /* \"contracts/lib/eai/EAI.sol\":17785:18121  if(_timeUnit <= WEEK){... */\ntag_98:\n    /* \"contracts/lib/eai/EAI.sol\":18155:18156  1 */\n  0x01\n    /* \"contracts/lib/eai/EAI.sol\":18142:18145  _op */\n  dup6\n    /* \"contracts/lib/eai/EAI.sol\":18136:18153  bytes(_op).length */\n  mload\n    /* \"contracts/lib/eai/EAI.sol\":18136:18156  bytes(_op).length==1 */\n  sub\n    /* \"contracts/lib/eai/EAI.sol\":18133:18230  if(bytes(_op).length==1){... */\n  tag_99\n  jumpi\n    /* \"contracts/lib/eai/EAI.sol\":18172:18182  _op = \"<=\" */\n  mload(0x40)\n  dup1\n  0x40\n  add\n  0x40\n  mstore\n  dup1\n  0x02\n  dup2\n  mstore\n  0x20\n  add\n  0x3c3d000000000000000000000000000000000000000000000000000000000000\n  dup2\n  mstore\n  pop\n  swap5\n  pop\n    /* \"contracts/lib/eai/EAI.sol\":18216:18217  1 */\n  0x01\n    /* \"contracts/lib/eai/EAI.sol\":18208:18215  _amount */\n  dup5\n    /* \"contracts/lib/eai/EAI.sol\":18208:18217  _amount-1 */\n  tag_100\n  swap2\n  swap1\n  tag_101\n  jump\t// in\ntag_100:\n    /* \"contracts/lib/eai/EAI.sol\":18197:18218  _amount = (_amount-1) */\n  swap4\n  pop\n    /* \"contracts/lib/eai/EAI.sol\":18133:18230  if(bytes(_op).length==1){... */\ntag_99:\n    /* \"contracts/lib/eai/EAI.sol\":18249:18333  MessageContent_NumberPerTime(_xpath, _op, _amount, _timeUnit, auxByTime, _amount, 0) */\n  mload(0x40)\n  dup1\n  0xe0\n  add\n  0x40\n  mstore\n  dup1\n    /* \"contracts/lib/eai/EAI.sol\":18278:18284  _xpath */\n  dup8\n    /* \"contracts/lib/eai/EAI.sol\":18249:18333  MessageContent_NumberPerTime(_xpath, _op, _amount, _timeUnit, auxByTime, _amount, 0) */\n  dup2\n  mstore\n  0x20\n  add\n    /* \"contracts/lib/eai/EAI.sol\":18286:18289  _op */\n  dup7\n    /* \"contracts/lib/eai/EAI.sol\":18249:18333  MessageContent_NumberPerTime(_xpath, _op, _amount, _timeUnit, auxByTime, _amount, 0) */\n  dup2\n  mstore\n  0x20\n  add\n    /* \"contracts/lib/eai/EAI.sol\":18291:18298  _amount */\n  dup6\n    /* \"contracts/lib/eai/EAI.sol\":18249:18333  MessageContent_NumberPerTime(_xpath, _op, _amount, _timeUnit, auxByTime, _amount, 0) */\n  dup2\n  mstore\n  0x20\n  add\n    /* \"contracts/lib/eai/EAI.sol\":18300:18309  _timeUnit */\n  dup5\n    /* \"contracts/lib/eai/EAI.sol\":18249:18333  MessageContent_NumberPerTime(_xpath, _op, _amount, _timeUnit, auxByTime, _amount, 0) */\n  0xff\n  and\n  dup2\n  mstore\n  0x20\n  add\n    /* \"contracts/lib/eai/EAI.sol\":18311:18320  auxByTime */\n  dup3\n    /* \"contracts/lib/eai/EAI.sol\":18249:18333  MessageContent_NumberPerTime(_xpath, _op, _amount, _timeUnit, auxByTime, _amount, 0) */\n  0xffffffff\n  and\n  dup2\n  mstore\n  0x20\n  add\n    /* \"contracts/lib/eai/EAI.sol\":18322:18329  _amount */\n  dup6\n    /* \"contracts/lib/eai/EAI.sol\":18249:18333  MessageContent_NumberPerTime(_xpath, _op, _amount, _timeUnit, auxByTime, _amount, 0) */\n  dup2\n  mstore\n  0x20\n  add\n    /* \"contracts/lib/eai/EAI.sol\":18331:18332  0 */\n  0x00\n    /* \"contracts/lib/eai/EAI.sol\":18249:18333  MessageContent_NumberPerTime(_xpath, _op, _amount, _timeUnit, auxByTime, _amount, 0) */\n  0xffffffff\n  and\n  dup2\n  mstore\n  pop\n    /* \"contracts/lib/eai/EAI.sol\":18242:18333  return MessageContent_NumberPerTime(_xpath, _op, _amount, _timeUnit, auxByTime, _amount, 0) */\n  swap2\n  pop\n  pop\n    /* \"contracts/lib/eai/EAI.sol\":17533:18341  function createMessageContent(... */\n  swap5\n  swap4\n  pop\n  pop\n  pop\n  pop\n  jump\t// out\n    /* \"contracts/lib/eai/EAI.sol\":25529:26078  function getTimeInSeconds(uint8 timeUnit) private pure returns(uint32){... */\ntag_88:\n    /* \"contracts/lib/eai/EAI.sol\":25592:25598  uint32 */\n  0x00\n    /* \"contracts/lib/eai/EAI.sol\":784:785  4 */\n  0x04\n    /* \"contracts/lib/eai/EAI.sol\":25672:25688  timeUnit <= WEEK */\n  0xff\n  and\n    /* \"contracts/lib/eai/EAI.sol\":25672:25680  timeUnit */\n  dup3\n    /* \"contracts/lib/eai/EAI.sol\":25672:25688  timeUnit <= WEEK */\n  0xff\n  and\n  gt\n  iszero\n    /* \"contracts/lib/eai/EAI.sol\":25664:25752  require(timeUnit <= WEEK, \"The method getTimeInSeconds doesn't work for MONTH and YEAR\") */\n  tag_103\n  jumpi\n  mload(0x40)\n  0x08c379a000000000000000000000000000000000000000000000000000000000\n  dup2\n  mstore\n  0x04\n  add\n  tag_104\n  swap1\n  tag_105\n  jump\t// in\ntag_104:\n  mload(0x40)\n  dup1\n  swap2\n  sub\n  swap1\n  revert\ntag_103:\n    /* \"contracts/lib/eai/EAI.sol\":666:667  0 */\n  0x00\n    /* \"contracts/lib/eai/EAI.sol\":25768:25786  timeUnit == SECOND */\n  0xff\n  and\n    /* \"contracts/lib/eai/EAI.sol\":25768:25776  timeUnit */\n  dup3\n    /* \"contracts/lib/eai/EAI.sol\":25768:25786  timeUnit == SECOND */\n  0xff\n  and\n  sub\n    /* \"contracts/lib/eai/EAI.sol\":25765:26071  if(timeUnit == SECOND){... */\n  tag_106\n  jumpi\n    /* \"contracts/lib/eai/EAI.sol\":25809:25810  1 */\n  0x01\n    /* \"contracts/lib/eai/EAI.sol\":25802:25810  return 1 */\n  swap1\n  pop\n  jump(tag_102)\n    /* \"contracts/lib/eai/EAI.sol\":25765:26071  if(timeUnit == SECOND){... */\ntag_106:\n    /* \"contracts/lib/eai/EAI.sol\":698:699  1 */\n  0x01\n    /* \"contracts/lib/eai/EAI.sol\":25830:25848  timeUnit == MINUTE */\n  0xff\n  and\n    /* \"contracts/lib/eai/EAI.sol\":25830:25838  timeUnit */\n  dup3\n    /* \"contracts/lib/eai/EAI.sol\":25830:25848  timeUnit == MINUTE */\n  0xff\n  and\n  sub\n    /* \"contracts/lib/eai/EAI.sol\":25827:26071  if(timeUnit == MINUTE){... */\n  tag_108\n  jumpi\n    /* \"contracts/lib/eai/EAI.sol\":25871:25873  60 */\n  0x3c\n    /* \"contracts/lib/eai/EAI.sol\":25864:25873  return 60 */\n  swap1\n  pop\n  jump(tag_102)\n    /* \"contracts/lib/eai/EAI.sol\":25827:26071  if(timeUnit == MINUTE){... */\ntag_108:\n    /* \"contracts/lib/eai/EAI.sol\":727:728  2 */\n  0x02\n    /* \"contracts/lib/eai/EAI.sol\":25893:25909  timeUnit == HOUR */\n  0xff\n  and\n    /* \"contracts/lib/eai/EAI.sol\":25893:25901  timeUnit */\n  dup3\n    /* \"contracts/lib/eai/EAI.sol\":25893:25909  timeUnit == HOUR */\n  0xff\n  and\n  sub\n    /* \"contracts/lib/eai/EAI.sol\":25890:26071  if(timeUnit == HOUR ){... */\n  tag_110\n  jumpi\n    /* \"contracts/lib/eai/EAI.sol\":25933:25938  60*60 */\n  0x0e10\n    /* \"contracts/lib/eai/EAI.sol\":25926:25938  return 60*60 */\n  swap1\n  pop\n  jump(tag_102)\n    /* \"contracts/lib/eai/EAI.sol\":25890:26071  if(timeUnit == HOUR ){... */\ntag_110:\n    /* \"contracts/lib/eai/EAI.sol\":755:756  3 */\n  0x03\n    /* \"contracts/lib/eai/EAI.sol\":25958:25973  timeUnit == DAY */\n  0xff\n  and\n    /* \"contracts/lib/eai/EAI.sol\":25958:25966  timeUnit */\n  dup3\n    /* \"contracts/lib/eai/EAI.sol\":25958:25973  timeUnit == DAY */\n  0xff\n  and\n  sub\n    /* \"contracts/lib/eai/EAI.sol\":25955:26071  if(timeUnit == DAY){... */\n  tag_112\n  jumpi\n    /* \"contracts/lib/eai/EAI.sol\":25996:26004  60*60*24 */\n  0x015180\n    /* \"contracts/lib/eai/EAI.sol\":25989:26004  return 60*60*24 */\n  swap1\n  pop\n  jump(tag_102)\n    /* \"contracts/lib/eai/EAI.sol\":25955:26071  if(timeUnit == DAY){... */\ntag_112:\n    /* \"contracts/lib/eai/EAI.sol\":26042:26052  60*60*24*7 */\n  0x093a80\n    /* \"contracts/lib/eai/EAI.sol\":26035:26052  return 60*60*24*7 */\n  swap1\n  pop\n    /* \"contracts/lib/eai/EAI.sol\":25529:26078  function getTimeInSeconds(uint8 timeUnit) private pure returns(uint32){... */\ntag_102:\n  swap2\n  swap1\n  pop\n  jump\t// out\n    /* \"contracts/study-case-contracts/001-delivery-hiring/DeliveryHiring_R.sol\":190:7181  contract DeliveryHiring_R {... */\ntag_2:\n  dup3\n  dup1\n  sload\n  tag_114\n  swap1\n  tag_14\n  jump\t// in\ntag_114:\n  swap1\n  0x00\n  mstore\n  keccak256(0x00, 0x20)\n  swap1\n  0x1f\n  add\n  0x20\n  swap1\n  div\n  dup2\n  add\n  swap3\n  dup3\n  tag_116\n  jumpi\n  0x00\n  dup6\n  sstore\n  jump(tag_115)\ntag_116:\n  dup3\n  0x1f\n  lt\n  tag_117\n  jumpi\n  dup1\n  mload\n  not(0xff)\n  and\n  dup4\n  dup1\n  add\n  or\n  dup6\n  sstore\n  jump(tag_115)\ntag_117:\n  dup3\n  dup1\n  add\n  0x01\n  add\n  dup6\n  sstore\n  dup3\n  iszero\n  tag_115\n  jumpi\n  swap2\n  dup3\n  add\ntag_118:\n  dup3\n  dup2\n  gt\n  iszero\n  tag_119\n  jumpi\n  dup3\n  mload\n  dup3\n  sstore\n  swap2\n  0x20\n  add\n  swap2\n  swap1\n  0x01\n  add\n  swap1\n  jump(tag_118)\ntag_119:\ntag_115:\n  pop\n  swap1\n  pop\n  tag_120\n  swap2\n  swap1\n  tag_121\n  jump\t// in\ntag_120:\n  pop\n  swap1\n  jump\t// out\ntag_16:\n  dup3\n  dup1\n  sload\n  tag_122\n  swap1\n  tag_14\n  jump\t// in\ntag_122:\n  swap1\n  0x00\n  mstore\n  keccak256(0x00, 0x20)\n  swap1\n  0x1f\n  add\n  0x20\n  swap1\n  div\n  dup2\n  add\n  swap3\n  dup3\n  tag_124\n  jumpi\n  0x00\n  dup6\n  sstore\n  jump(tag_123)\ntag_124:\n  dup3\n  0x1f\n  lt\n  tag_125\n  jumpi\n  dup1\n  sload\n  dup6\n  sstore\n  jump(tag_123)\ntag_125:\n  dup3\n  dup1\n  add\n  0x01\n  add\n  dup6\n  sstore\n  dup3\n  iszero\n  tag_123\n  jumpi\n  0x00\n  mstore\n  keccak256(0x00, 0x20)\n  swap2\n  0x1f\n  add\n  0x20\n  swap1\n  div\n  dup3\n  add\ntag_126:\n  dup3\n  dup2\n  gt\n  iszero\n  tag_127\n  jumpi\n  dup3\n  sload\n  dup3\n  sstore\n  swap2\n  0x01\n  add\n  swap2\n  swap1\n  0x01\n  add\n  swap1\n  jump(tag_126)\ntag_127:\ntag_123:\n  pop\n  swap1\n  pop\n  tag_128\n  swap2\n  swap1\n  tag_121\n  jump\t// in\ntag_128:\n  pop\n  swap1\n  jump\t// out\ntag_59:\n  mload(0x40)\n  dup1\n  0x60\n  add\n  0x40\n  mstore\n  dup1\n  0x60\n  dup2\n  mstore\n  0x20\n  add\n  and(0xffffffffffffffffffffffffffffffffffffffff, 0x00)\n  dup2\n  mstore\n  0x20\n  add\n  iszero(iszero(0x00))\n  dup2\n  mstore\n  pop\n  swap1\n  jump\t// out\ntag_62:\n  mload(0x40)\n  dup1\n  0x40\n  add\n  0x40\n  mstore\n  dup1\n  and(0xff, 0x00)\n  dup2\n  mstore\n  0x20\n  add\n  and(0xff, 0x00)\n  dup2\n  mstore\n  pop\n  swap1\n  jump\t// out\ntag_74:\n  mload(0x40)\n  dup1\n  0x40\n  add\n  0x40\n  mstore\n  dup1\n  and(0xffffffff, 0x00)\n  dup2\n  mstore\n  0x20\n  add\n  and(0xffffffff, 0x00)\n  dup2\n  mstore\n  pop\n  swap1\n  jump\t// out\ntag_84:\n  mload(0x40)\n  dup1\n  0xa0\n  add\n  0x40\n  mstore\n  dup1\n  and(0xffffffff, 0x00)\n  dup2\n  mstore\n  0x20\n  add\n  and(0xff, 0x00)\n  dup2\n  mstore\n  0x20\n  add\n  and(0xffffffff, 0x00)\n  dup2\n  mstore\n  0x20\n  add\n  and(0xffffffff, 0x00)\n  dup2\n  mstore\n  0x20\n  add\n  and(0xffffffff, 0x00)\n  dup2\n  mstore\n  pop\n  swap1\n  jump\t// out\ntag_91:\n  mload(0x40)\n  dup1\n  0x60\n  add\n  0x40\n  mstore\n  dup1\n  0x60\n  dup2\n  mstore\n  0x20\n  add\n  0x60\n  dup2\n  mstore\n  0x20\n  add\n  0x00\n  dup2\n  mstore\n  pop\n  swap1\n  jump\t// out\ntag_94:\n  mload(0x40)\n  dup1\n  0xe0\n  add\n  0x40\n  mstore\n  dup1\n  0x60\n  dup2\n  mstore\n  0x20\n  add\n  0x60\n  dup2\n  mstore\n  0x20\n  add\n  0x00\n  dup2\n  mstore\n  0x20\n  add\n  and(0xff, 0x00)\n  dup2\n  mstore\n  0x20\n  add\n  and(0xffffffff, 0x00)\n  dup2\n  mstore\n  0x20\n  add\n  0x00\n  dup2\n  mstore\n  0x20\n  add\n  and(0xffffffff, 0x00)\n  dup2\n  mstore\n  pop\n  swap1\n  jump\t// out\ntag_121:\ntag_129:\n  dup1\n  dup3\n  gt\n  iszero\n  tag_130\n  jumpi\n  0x00\n  dup2\n  0x00\n  swap1\n  sstore\n  pop\n  0x01\n  add\n  jump(tag_129)\ntag_130:\n  pop\n  swap1\n  jump\t// out\n    /* \"#utility.yul\":88:205   */\ntag_132:\n    /* \"#utility.yul\":197:198   */\n  0x00\n    /* \"#utility.yul\":194:195   */\n  dup1\n    /* \"#utility.yul\":187:199   */\n  revert\n    /* \"#utility.yul\":334:460   */\ntag_134:\n    /* \"#utility.yul\":371:378   */\n  0x00\n    /* \"#utility.yul\":411:453   */\n  0xffffffffffffffffffffffffffffffffffffffff\n    /* \"#utility.yul\":404:409   */\n  dup3\n    /* \"#utility.yul\":400:454   */\n  and\n    /* \"#utility.yul\":389:454   */\n  swap1\n  pop\n    /* \"#utility.yul\":334:460   */\n  swap2\n  swap1\n  pop\n  jump\t// out\n    /* \"#utility.yul\":466:562   */\ntag_135:\n    /* \"#utility.yul\":503:510   */\n  0x00\n    /* \"#utility.yul\":532:556   */\n  tag_154\n    /* \"#utility.yul\":550:555   */\n  dup3\n    /* \"#utility.yul\":532:556   */\n  tag_134\n  jump\t// in\ntag_154:\n    /* \"#utility.yul\":521:556   */\n  swap1\n  pop\n    /* \"#utility.yul\":466:562   */\n  swap2\n  swap1\n  pop\n  jump\t// out\n    /* \"#utility.yul\":568:690   */\ntag_136:\n    /* \"#utility.yul\":641:665   */\n  tag_156\n    /* \"#utility.yul\":659:664   */\n  dup2\n    /* \"#utility.yul\":641:665   */\n  tag_135\n  jump\t// in\ntag_156:\n    /* \"#utility.yul\":634:639   */\n  dup2\n    /* \"#utility.yul\":631:666   */\n  eq\n    /* \"#utility.yul\":621:684   */\n  tag_157\n  jumpi\n    /* \"#utility.yul\":680:681   */\n  0x00\n    /* \"#utility.yul\":677:678   */\n  dup1\n    /* \"#utility.yul\":670:682   */\n  revert\n    /* \"#utility.yul\":621:684   */\ntag_157:\n    /* \"#utility.yul\":568:690   */\n  pop\n  jump\t// out\n    /* \"#utility.yul\":696:839   */\ntag_137:\n    /* \"#utility.yul\":753:758   */\n  0x00\n    /* \"#utility.yul\":784:790   */\n  dup2\n    /* \"#utility.yul\":778:791   */\n  mload\n    /* \"#utility.yul\":769:791   */\n  swap1\n  pop\n    /* \"#utility.yul\":800:833   */\n  tag_159\n    /* \"#utility.yul\":827:832   */\n  dup2\n    /* \"#utility.yul\":800:833   */\n  tag_136\n  jump\t// in\ntag_159:\n    /* \"#utility.yul\":696:839   */\n  swap3\n  swap2\n  pop\n  pop\n  jump\t// out\n    /* \"#utility.yul\":845:1196   */\ntag_5:\n    /* \"#utility.yul\":915:921   */\n  0x00\n    /* \"#utility.yul\":964:966   */\n  0x20\n    /* \"#utility.yul\":952:961   */\n  dup3\n    /* \"#utility.yul\":943:950   */\n  dup5\n    /* \"#utility.yul\":939:962   */\n  sub\n    /* \"#utility.yul\":935:967   */\n  slt\n    /* \"#utility.yul\":932:1051   */\n  iszero\n  tag_161\n  jumpi\n    /* \"#utility.yul\":970:1049   */\n  tag_162\n  tag_132\n  jump\t// in\ntag_162:\n    /* \"#utility.yul\":932:1051   */\ntag_161:\n    /* \"#utility.yul\":1090:1091   */\n  0x00\n    /* \"#utility.yul\":1115:1179   */\n  tag_163\n    /* \"#utility.yul\":1171:1178   */\n  dup5\n    /* \"#utility.yul\":1162:1168   */\n  dup3\n    /* \"#utility.yul\":1151:1160   */\n  dup6\n    /* \"#utility.yul\":1147:1169   */\n  add\n    /* \"#utility.yul\":1115:1179   */\n  tag_137\n  jump\t// in\ntag_163:\n    /* \"#utility.yul\":1105:1179   */\n  swap2\n  pop\n    /* \"#utility.yul\":1061:1189   */\n  pop\n    /* \"#utility.yul\":845:1196   */\n  swap3\n  swap2\n  pop\n  pop\n  jump\t// out\n    /* \"#utility.yul\":1202:1382   */\ntag_138:\n    /* \"#utility.yul\":1250:1327   */\n  0x4e487b7100000000000000000000000000000000000000000000000000000000\n    /* \"#utility.yul\":1247:1248   */\n  0x00\n    /* \"#utility.yul\":1240:1328   */\n  mstore\n    /* \"#utility.yul\":1347:1351   */\n  0x22\n    /* \"#utility.yul\":1344:1345   */\n  0x04\n    /* \"#utility.yul\":1337:1352   */\n  mstore\n    /* \"#utility.yul\":1371:1375   */\n  0x24\n    /* \"#utility.yul\":1368:1369   */\n  0x00\n    /* \"#utility.yul\":1361:1376   */\n  revert\n    /* \"#utility.yul\":1388:1708   */\ntag_14:\n    /* \"#utility.yul\":1432:1438   */\n  0x00\n    /* \"#utility.yul\":1469:1470   */\n  0x02\n    /* \"#utility.yul\":1463:1467   */\n  dup3\n    /* \"#utility.yul\":1459:1471   */\n  div\n    /* \"#utility.yul\":1449:1471   */\n  swap1\n  pop\n    /* \"#utility.yul\":1516:1517   */\n  0x01\n    /* \"#utility.yul\":1510:1514   */\n  dup3\n    /* \"#utility.yul\":1506:1518   */\n  and\n    /* \"#utility.yul\":1537:1555   */\n  dup1\n    /* \"#utility.yul\":1527:1608   */\n  tag_166\n  jumpi\n    /* \"#utility.yul\":1593:1597   */\n  0x7f\n    /* \"#utility.yul\":1585:1591   */\n  dup3\n    /* \"#utility.yul\":1581:1598   */\n  and\n    /* \"#utility.yul\":1571:1598   */\n  swap2\n  pop\n    /* \"#utility.yul\":1527:1608   */\ntag_166:\n    /* \"#utility.yul\":1655:1657   */\n  0x20\n    /* \"#utility.yul\":1647:1653   */\n  dup3\n    /* \"#utility.yul\":1644:1658   */\n  lt\n    /* \"#utility.yul\":1624:1642   */\n  dup2\n    /* \"#utility.yul\":1621:1659   */\n  sub\n    /* \"#utility.yul\":1618:1702   */\n  tag_167\n  jumpi\n    /* \"#utility.yul\":1674:1692   */\n  tag_168\n  tag_138\n  jump\t// in\ntag_168:\n    /* \"#utility.yul\":1618:1702   */\ntag_167:\n    /* \"#utility.yul\":1439:1708   */\n  pop\n    /* \"#utility.yul\":1388:1708   */\n  swap2\n  swap1\n  pop\n  jump\t// out\n    /* \"#utility.yul\":1714:1883   */\ntag_139:\n    /* \"#utility.yul\":1798:1809   */\n  0x00\n    /* \"#utility.yul\":1832:1838   */\n  dup3\n    /* \"#utility.yul\":1827:1830   */\n  dup3\n    /* \"#utility.yul\":1820:1839   */\n  mstore\n    /* \"#utility.yul\":1872:1876   */\n  0x20\n    /* \"#utility.yul\":1867:1870   */\n  dup3\n    /* \"#utility.yul\":1863:1877   */\n  add\n    /* \"#utility.yul\":1848:1877   */\n  swap1\n  pop\n    /* \"#utility.yul\":1714:1883   */\n  swap3\n  swap2\n  pop\n  pop\n  jump\t// out\n    /* \"#utility.yul\":1889:2116   */\ntag_140:\n    /* \"#utility.yul\":2029:2063   */\n  0x546865205f7374617274446179206e6f7420726570726573656e747320612076\n    /* \"#utility.yul\":2025:2026   */\n  0x00\n    /* \"#utility.yul\":2017:2023   */\n  dup3\n    /* \"#utility.yul\":2013:2027   */\n  add\n    /* \"#utility.yul\":2006:2064   */\n  mstore\n    /* \"#utility.yul\":2098:2108   */\n  0x616c696420646179000000000000000000000000000000000000000000000000\n    /* \"#utility.yul\":2093:2095   */\n  0x20\n    /* \"#utility.yul\":2085:2091   */\n  dup3\n    /* \"#utility.yul\":2081:2096   */\n  add\n    /* \"#utility.yul\":2074:2109   */\n  mstore\n    /* \"#utility.yul\":1889:2116   */\n  pop\n  jump\t// out\n    /* \"#utility.yul\":2122:2488   */\ntag_141:\n    /* \"#utility.yul\":2264:2267   */\n  0x00\n    /* \"#utility.yul\":2285:2352   */\n  tag_172\n    /* \"#utility.yul\":2349:2351   */\n  0x28\n    /* \"#utility.yul\":2344:2347   */\n  dup4\n    /* \"#utility.yul\":2285:2352   */\n  tag_139\n  jump\t// in\ntag_172:\n    /* \"#utility.yul\":2278:2352   */\n  swap2\n  pop\n    /* \"#utility.yul\":2361:2454   */\n  tag_173\n    /* \"#utility.yul\":2450:2453   */\n  dup3\n    /* \"#utility.yul\":2361:2454   */\n  tag_140\n  jump\t// in\ntag_173:\n    /* \"#utility.yul\":2479:2481   */\n  0x40\n    /* \"#utility.yul\":2474:2477   */\n  dup3\n    /* \"#utility.yul\":2470:2482   */\n  add\n    /* \"#utility.yul\":2463:2482   */\n  swap1\n  pop\n    /* \"#utility.yul\":2122:2488   */\n  swap2\n  swap1\n  pop\n  jump\t// out\n    /* \"#utility.yul\":2494:2913   */\ntag_67:\n    /* \"#utility.yul\":2660:2664   */\n  0x00\n    /* \"#utility.yul\":2698:2700   */\n  0x20\n    /* \"#utility.yul\":2687:2696   */\n  dup3\n    /* \"#utility.yul\":2683:2701   */\n  add\n    /* \"#utility.yul\":2675:2701   */\n  swap1\n  pop\n    /* \"#utility.yul\":2747:2756   */\n  dup2\n    /* \"#utility.yul\":2741:2745   */\n  dup2\n    /* \"#utility.yul\":2737:2757   */\n  sub\n    /* \"#utility.yul\":2733:2734   */\n  0x00\n    /* \"#utility.yul\":2722:2731   */\n  dup4\n    /* \"#utility.yul\":2718:2735   */\n  add\n    /* \"#utility.yul\":2711:2758   */\n  mstore\n    /* \"#utility.yul\":2775:2906   */\n  tag_175\n    /* \"#utility.yul\":2901:2905   */\n  dup2\n    /* \"#utility.yul\":2775:2906   */\n  tag_141\n  jump\t// in\ntag_175:\n    /* \"#utility.yul\":2767:2906   */\n  swap1\n  pop\n    /* \"#utility.yul\":2494:2913   */\n  swap2\n  swap1\n  pop\n  jump\t// out\n    /* \"#utility.yul\":2919:3144   */\ntag_142:\n    /* \"#utility.yul\":3059:3093   */\n  0x546865205f656e64446179206e6f7420726570726573656e747320612076616c\n    /* \"#utility.yul\":3055:3056   */\n  0x00\n    /* \"#utility.yul\":3047:3053   */\n  dup3\n    /* \"#utility.yul\":3043:3057   */\n  add\n    /* \"#utility.yul\":3036:3094   */\n  mstore\n    /* \"#utility.yul\":3128:3136   */\n  0x6964206461790000000000000000000000000000000000000000000000000000\n    /* \"#utility.yul\":3123:3125   */\n  0x20\n    /* \"#utility.yul\":3115:3121   */\n  dup3\n    /* \"#utility.yul\":3111:3126   */\n  add\n    /* \"#utility.yul\":3104:3137   */\n  mstore\n    /* \"#utility.yul\":2919:3144   */\n  pop\n  jump\t// out\n    /* \"#utility.yul\":3150:3516   */\ntag_143:\n    /* \"#utility.yul\":3292:3295   */\n  0x00\n    /* \"#utility.yul\":3313:3380   */\n  tag_178\n    /* \"#utility.yul\":3377:3379   */\n  0x26\n    /* \"#utility.yul\":3372:3375   */\n  dup4\n    /* \"#utility.yul\":3313:3380   */\n  tag_139\n  jump\t// in\ntag_178:\n    /* \"#utility.yul\":3306:3380   */\n  swap2\n  pop\n    /* \"#utility.yul\":3389:3482   */\n  tag_179\n    /* \"#utility.yul\":3478:3481   */\n  dup3\n    /* \"#utility.yul\":3389:3482   */\n  tag_142\n  jump\t// in\ntag_179:\n    /* \"#utility.yul\":3507:3509   */\n  0x40\n    /* \"#utility.yul\":3502:3505   */\n  dup3\n    /* \"#utility.yul\":3498:3510   */\n  add\n    /* \"#utility.yul\":3491:3510   */\n  swap1\n  pop\n    /* \"#utility.yul\":3150:3516   */\n  swap2\n  swap1\n  pop\n  jump\t// out\n    /* \"#utility.yul\":3522:3941   */\ntag_71:\n    /* \"#utility.yul\":3688:3692   */\n  0x00\n    /* \"#utility.yul\":3726:3728   */\n  0x20\n    /* \"#utility.yul\":3715:3724   */\n  dup3\n    /* \"#utility.yul\":3711:3729   */\n  add\n    /* \"#utility.yul\":3703:3729   */\n  swap1\n  pop\n    /* \"#utility.yul\":3775:3784   */\n  dup2\n    /* \"#utility.yul\":3769:3773   */\n  dup2\n    /* \"#utility.yul\":3765:3785   */\n  sub\n    /* \"#utility.yul\":3761:3762   */\n  0x00\n    /* \"#utility.yul\":3750:3759   */\n  dup4\n    /* \"#utility.yul\":3746:3763   */\n  add\n    /* \"#utility.yul\":3739:3786   */\n  mstore\n    /* \"#utility.yul\":3803:3934   */\n  tag_181\n    /* \"#utility.yul\":3929:3933   */\n  dup2\n    /* \"#utility.yul\":3803:3934   */\n  tag_143\n  jump\t// in\ntag_181:\n    /* \"#utility.yul\":3795:3934   */\n  swap1\n  pop\n    /* \"#utility.yul\":3522:3941   */\n  swap2\n  swap1\n  pop\n  jump\t// out\n    /* \"#utility.yul\":3947:4024   */\ntag_144:\n    /* \"#utility.yul\":3984:3991   */\n  0x00\n    /* \"#utility.yul\":4013:4018   */\n  dup2\n    /* \"#utility.yul\":4002:4018   */\n  swap1\n  pop\n    /* \"#utility.yul\":3947:4024   */\n  swap2\n  swap1\n  pop\n  jump\t// out\n    /* \"#utility.yul\":4030:4210   */\ntag_145:\n    /* \"#utility.yul\":4078:4155   */\n  0x4e487b7100000000000000000000000000000000000000000000000000000000\n    /* \"#utility.yul\":4075:4076   */\n  0x00\n    /* \"#utility.yul\":4068:4156   */\n  mstore\n    /* \"#utility.yul\":4175:4179   */\n  0x11\n    /* \"#utility.yul\":4172:4173   */\n  0x04\n    /* \"#utility.yul\":4165:4180   */\n  mstore\n    /* \"#utility.yul\":4199:4203   */\n  0x24\n    /* \"#utility.yul\":4196:4197   */\n  0x00\n    /* \"#utility.yul\":4189:4204   */\n  revert\n    /* \"#utility.yul\":4216:4407   */\ntag_101:\n    /* \"#utility.yul\":4256:4260   */\n  0x00\n    /* \"#utility.yul\":4276:4296   */\n  tag_185\n    /* \"#utility.yul\":4294:4295   */\n  dup3\n    /* \"#utility.yul\":4276:4296   */\n  tag_144\n  jump\t// in\ntag_185:\n    /* \"#utility.yul\":4271:4296   */\n  swap2\n  pop\n    /* \"#utility.yul\":4310:4330   */\n  tag_186\n    /* \"#utility.yul\":4328:4329   */\n  dup4\n    /* \"#utility.yul\":4310:4330   */\n  tag_144\n  jump\t// in\ntag_186:\n    /* \"#utility.yul\":4305:4330   */\n  swap3\n  pop\n    /* \"#utility.yul\":4349:4350   */\n  dup3\n    /* \"#utility.yul\":4346:4347   */\n  dup3\n    /* \"#utility.yul\":4343:4351   */\n  lt\n    /* \"#utility.yul\":4340:4374   */\n  iszero\n  tag_187\n  jumpi\n    /* \"#utility.yul\":4354:4372   */\n  tag_188\n  tag_145\n  jump\t// in\ntag_188:\n    /* \"#utility.yul\":4340:4374   */\ntag_187:\n    /* \"#utility.yul\":4399:4400   */\n  dup3\n    /* \"#utility.yul\":4396:4397   */\n  dup3\n    /* \"#utility.yul\":4392:4401   */\n  sub\n    /* \"#utility.yul\":4384:4401   */\n  swap1\n  pop\n    /* \"#utility.yul\":4216:4407   */\n  swap3\n  swap2\n  pop\n  pop\n  jump\t// out\n    /* \"#utility.yul\":4413:4659   */\ntag_146:\n    /* \"#utility.yul\":4553:4587   */\n  0x546865206d6574686f642067657454696d65496e5365636f6e647320646f6573\n    /* \"#utility.yul\":4549:4550   */\n  0x00\n    /* \"#utility.yul\":4541:4547   */\n  dup3\n    /* \"#utility.yul\":4537:4551   */\n  add\n    /* \"#utility.yul\":4530:4588   */\n  mstore\n    /* \"#utility.yul\":4622:4651   */\n  0x6e277420776f726b20666f72204d4f4e544820616e6420594541520000000000\n    /* \"#utility.yul\":4617:4619   */\n  0x20\n    /* \"#utility.yul\":4609:4615   */\n  dup3\n    /* \"#utility.yul\":4605:4620   */\n  add\n    /* \"#utility.yul\":4598:4652   */\n  mstore\n    /* \"#utility.yul\":4413:4659   */\n  pop\n  jump\t// out\n    /* \"#utility.yul\":4665:5031   */\ntag_147:\n    /* \"#utility.yul\":4807:4810   */\n  0x00\n    /* \"#utility.yul\":4828:4895   */\n  tag_191\n    /* \"#utility.yul\":4892:4894   */\n  0x3b\n    /* \"#utility.yul\":4887:4890   */\n  dup4\n    /* \"#utility.yul\":4828:4895   */\n  tag_139\n  jump\t// in\ntag_191:\n    /* \"#utility.yul\":4821:4895   */\n  swap2\n  pop\n    /* \"#utility.yul\":4904:4997   */\n  tag_192\n    /* \"#utility.yul\":4993:4996   */\n  dup3\n    /* \"#utility.yul\":4904:4997   */\n  tag_146\n  jump\t// in\ntag_192:\n    /* \"#utility.yul\":5022:5024   */\n  0x40\n    /* \"#utility.yul\":5017:5020   */\n  dup3\n    /* \"#utility.yul\":5013:5025   */\n  add\n    /* \"#utility.yul\":5006:5025   */\n  swap1\n  pop\n    /* \"#utility.yul\":4665:5031   */\n  swap2\n  swap1\n  pop\n  jump\t// out\n    /* \"#utility.yul\":5037:5456   */\ntag_105:\n    /* \"#utility.yul\":5203:5207   */\n  0x00\n    /* \"#utility.yul\":5241:5243   */\n  0x20\n    /* \"#utility.yul\":5230:5239   */\n  dup3\n    /* \"#utility.yul\":5226:5244   */\n  add\n    /* \"#utility.yul\":5218:5244   */\n  swap1\n  pop\n    /* \"#utility.yul\":5290:5299   */\n  dup2\n    /* \"#utility.yul\":5284:5288   */\n  dup2\n    /* \"#utility.yul\":5280:5300   */\n  sub\n    /* \"#utility.yul\":5276:5277   */\n  0x00\n    /* \"#utility.yul\":5265:5274   */\n  dup4\n    /* \"#utility.yul\":5261:5278   */\n  add\n    /* \"#utility.yul\":5254:5301   */\n  mstore\n    /* \"#utility.yul\":5318:5449   */\n  tag_194\n    /* \"#utility.yul\":5444:5448   */\n  dup2\n    /* \"#utility.yul\":5318:5449   */\n  tag_147\n  jump\t// in\ntag_194:\n    /* \"#utility.yul\":5310:5449   */\n  swap1\n  pop\n    /* \"#utility.yul\":5037:5456   */\n  swap2\n  swap1\n  pop\n  jump\t// out\n    /* \"contracts/study-case-contracts/001-delivery-hiring/DeliveryHiring_R.sol\":190:7181  contract DeliveryHiring_R {... */\ntag_57:\n  dataSize(sub_0)\n  dup1\n  dataOffset(sub_0)\n  0x00\n  codecopy\n  0x00\n  return\nstop\ndata_8db4f537e4773daf3b42fc9b069ffea1a74d1920b50a1fe9a37f0966abb9c4fc 636f756e74282f2f626f64792f7065726f736f6e616c496e666f726d6174696f6e2f616464726573732f63657029\n\nsub_0: assembly {\n        /* \"contracts/study-case-contracts/001-delivery-hiring/DeliveryHiring_R.sol\":190:7181  contract DeliveryHiring_R {... */\n      mstore(0x40, 0x80)\n      callvalue\n      dup1\n      iszero\n      tag_1\n      jumpi\n      0x00\n      dup1\n      revert\n    tag_1:\n      pop\n      jumpi(tag_2, lt(calldatasize, 0x04))\n      shr(0xe0, calldataload(0x00))\n      dup1\n      0x85931911\n      gt\n      tag_10\n      jumpi\n      dup1\n      0x85931911\n      eq\n      tag_6\n      jumpi\n      dup1\n      0x95d3bcdf\n      eq\n      tag_7\n      jumpi\n      dup1\n      0xb8b4f1a0\n      eq\n      tag_8\n      jumpi\n      dup1\n      0xfb6f8243\n      eq\n      tag_9\n      jumpi\n      jump(tag_2)\n    tag_10:\n      dup1\n      0x5d76e17a\n      eq\n      tag_3\n      jumpi\n      dup1\n      0x5e744c6a\n      eq\n      tag_4\n      jumpi\n      dup1\n      0x70d8915a\n      eq\n      tag_5\n      jumpi\n    tag_2:\n      0x00\n      dup1\n      revert\n        /* \"contracts/study-case-contracts/001-delivery-hiring/DeliveryHiring_R.sol\":4272:4485  function onlyForTest_decreaseOperation() public returns(uint32) {... */\n    tag_3:\n      tag_11\n      tag_12\n      jump\t// in\n    tag_11:\n      mload(0x40)\n      tag_13\n      swap2\n      swap1\n      tag_14\n      jump\t// in\n    tag_13:\n      mload(0x40)\n      dup1\n      swap2\n      sub\n      swap1\n      return\n        /* \"contracts/study-case-contracts/001-delivery-hiring/DeliveryHiring_R.sol\":5413:5844  function changeApplicationParty(string memory _name, address _walletAddress) public returns(bool) {       ... */\n    tag_4:\n      tag_15\n      0x04\n      dup1\n      calldatasize\n      sub\n      dup2\n      add\n      swap1\n      tag_16\n      swap2\n      swap1\n      tag_17\n      jump\t// in\n    tag_16:\n      tag_18\n      jump\t// in\n    tag_15:\n      mload(0x40)\n      tag_19\n      swap2\n      swap1\n      tag_20\n      jump\t// in\n    tag_19:\n      mload(0x40)\n      dup1\n      swap2\n      sub\n      swap1\n      return\n        /* \"contracts/study-case-contracts/001-delivery-hiring/DeliveryHiring_R.sol\":5992:6124  function getApplicationAddress() public view onlyInvolvedParties returns(address){... */\n    tag_5:\n      tag_21\n      tag_22\n      jump\t// in\n    tag_21:\n      mload(0x40)\n      tag_23\n      swap2\n      swap1\n      tag_24\n      jump\t// in\n    tag_23:\n      mload(0x40)\n      dup1\n      swap2\n      sub\n      swap1\n      return\n        /* \"contracts/study-case-contracts/001-delivery-hiring/DeliveryHiring_R.sol\":5856:5980  function getProcessAddress() public view onlyInvolvedParties returns(address){... */\n    tag_6:\n      tag_25\n      tag_26\n      jump\t// in\n    tag_25:\n      mload(0x40)\n      tag_27\n      swap2\n      swap1\n      tag_24\n      jump\t// in\n    tag_27:\n      mload(0x40)\n      dup1\n      swap2\n      sub\n      swap1\n      return\n        /* \"contracts/study-case-contracts/001-delivery-hiring/DeliveryHiring_R.sol\":3199:4255  function right_requestDelivery(... */\n    tag_7:\n      tag_28\n      0x04\n      dup1\n      calldatasize\n      sub\n      dup2\n      add\n      swap1\n      tag_29\n      swap2\n      swap1\n      tag_30\n      jump\t// in\n    tag_29:\n      tag_31\n      jump\t// in\n    tag_28:\n      mload(0x40)\n      tag_32\n      swap2\n      swap1\n      tag_20\n      jump\t// in\n    tag_32:\n      mload(0x40)\n      dup1\n      swap2\n      sub\n      swap1\n      return\n        /* \"contracts/study-case-contracts/001-delivery-hiring/DeliveryHiring_R.sol\":4813:5075  function signContract() public onlyApplication() returns(bool) {... */\n    tag_8:\n      tag_33\n      tag_34\n      jump\t// in\n    tag_33:\n      mload(0x40)\n      tag_35\n      swap2\n      swap1\n      tag_20\n      jump\t// in\n    tag_35:\n      mload(0x40)\n      dup1\n      swap2\n      sub\n      swap1\n      return\n        /* \"contracts/study-case-contracts/001-delivery-hiring/DeliveryHiring_R.sol\":6132:6281  function getParty(address _walletAddress) public view onlyInvolvedParties returns(EAI.Party memory){... */\n    tag_9:\n      tag_36\n      0x04\n      dup1\n      calldatasize\n      sub\n      dup2\n      add\n      swap1\n      tag_37\n      swap2\n      swap1\n      tag_38\n      jump\t// in\n    tag_37:\n      tag_39\n      jump\t// in\n    tag_36:\n      mload(0x40)\n      tag_40\n      swap2\n      swap1\n      tag_41\n      jump\t// in\n    tag_40:\n      mload(0x40)\n      dup1\n      swap2\n      sub\n      swap1\n      return\n        /* \"contracts/study-case-contracts/001-delivery-hiring/DeliveryHiring_R.sol\":4272:4485  function onlyForTest_decreaseOperation() public returns(uint32) {... */\n    tag_12:\n        /* \"contracts/study-case-contracts/001-delivery-hiring/DeliveryHiring_R.sol\":4328:4334  uint32 */\n      0x00\n        /* \"contracts/study-case-contracts/001-delivery-hiring/DeliveryHiring_R.sol\":4347:4409  maxNumberOfOperationByTime_C1[0].decreaseOneOperation_ByTime() */\n      tag_49\n        /* \"contracts/study-case-contracts/001-delivery-hiring/DeliveryHiring_R.sol\":4347:4376  maxNumberOfOperationByTime_C1 */\n      0x09\n        /* \"contracts/study-case-contracts/001-delivery-hiring/DeliveryHiring_R.sol\":4377:4378  0 */\n      0x00\n        /* \"contracts/study-case-contracts/001-delivery-hiring/DeliveryHiring_R.sol\":4347:4379  maxNumberOfOperationByTime_C1[0] */\n      dup2\n      sload\n      dup2\n      lt\n      tag_50\n      jumpi\n      tag_51\n      tag_52\n      jump\t// in\n    tag_51:\n    tag_50:\n      swap1\n      0x00\n      mstore\n      keccak256(0x00, 0x20)\n      add\n        /* \"contracts/study-case-contracts/001-delivery-hiring/DeliveryHiring_R.sol\":4347:4407  maxNumberOfOperationByTime_C1[0].decreaseOneOperation_ByTime */\n      tag_54\n        /* \"contracts/study-case-contracts/001-delivery-hiring/DeliveryHiring_R.sol\":4347:4409  maxNumberOfOperationByTime_C1[0].decreaseOneOperation_ByTime() */\n      jump\t// in\n    tag_49:\n        /* \"contracts/study-case-contracts/001-delivery-hiring/DeliveryHiring_R.sol\":4436:4465  maxNumberOfOperationByTime_C1 */\n      0x09\n        /* \"contracts/study-case-contracts/001-delivery-hiring/DeliveryHiring_R.sol\":4466:4467  0 */\n      0x00\n        /* \"contracts/study-case-contracts/001-delivery-hiring/DeliveryHiring_R.sol\":4436:4468  maxNumberOfOperationByTime_C1[0] */\n      dup2\n      sload\n      dup2\n      lt\n      tag_55\n      jumpi\n      tag_56\n      tag_52\n      jump\t// in\n    tag_56:\n    tag_55:\n      swap1\n      0x00\n      mstore\n      keccak256(0x00, 0x20)\n      add\n        /* \"contracts/study-case-contracts/001-delivery-hiring/DeliveryHiring_R.sol\":4436:4473  maxNumberOfOperationByTime_C1[0].rest */\n      0x00\n      add\n      0x09\n      swap1\n      sload\n      swap1\n      0x0100\n      exp\n      swap1\n      div\n      0xffffffff\n      and\n        /* \"contracts/study-case-contracts/001-delivery-hiring/DeliveryHiring_R.sol\":4429:4473  return maxNumberOfOperationByTime_C1[0].rest */\n      swap1\n      pop\n        /* \"contracts/study-case-contracts/001-delivery-hiring/DeliveryHiring_R.sol\":4272:4485  function onlyForTest_decreaseOperation() public returns(uint32) {... */\n      swap1\n      jump\t// out\n        /* \"contracts/study-case-contracts/001-delivery-hiring/DeliveryHiring_R.sol\":5413:5844  function changeApplicationParty(string memory _name, address _walletAddress) public returns(bool) {       ... */\n    tag_18:\n        /* \"contracts/study-case-contracts/001-delivery-hiring/DeliveryHiring_R.sol\":5505:5509  bool */\n      0x00\n        /* \"contracts/study-case-contracts/001-delivery-hiring/DeliveryHiring_R.sol\":5562:5572  msg.sender */\n      caller\n        /* \"contracts/study-case-contracts/001-delivery-hiring/DeliveryHiring_R.sol\":5537:5572  process.walletAddress == msg.sender */\n      0xffffffffffffffffffffffffffffffffffffffff\n      and\n        /* \"contracts/study-case-contracts/001-delivery-hiring/DeliveryHiring_R.sol\":5537:5544  process */\n      0x03\n        /* \"contracts/study-case-contracts/001-delivery-hiring/DeliveryHiring_R.sol\":5537:5558  process.walletAddress */\n      0x01\n      add\n      0x00\n      swap1\n      sload\n      swap1\n      0x0100\n      exp\n      swap1\n      div\n      0xffffffffffffffffffffffffffffffffffffffff\n      and\n        /* \"contracts/study-case-contracts/001-delivery-hiring/DeliveryHiring_R.sol\":5537:5572  process.walletAddress == msg.sender */\n      0xffffffffffffffffffffffffffffffffffffffff\n      and\n      eq\n        /* \"contracts/study-case-contracts/001-delivery-hiring/DeliveryHiring_R.sol\":5529:5620  require(process.walletAddress == msg.sender, \"Only the process can execute this operation\") */\n      tag_59\n      jumpi\n      mload(0x40)\n      0x08c379a000000000000000000000000000000000000000000000000000000000\n      dup2\n      mstore\n      0x04\n      add\n      tag_60\n      swap1\n      tag_61\n      jump\t// in\n    tag_60:\n      mload(0x40)\n      dup1\n      swap2\n      sub\n      swap1\n      revert\n    tag_59:\n        /* \"contracts/study-case-contracts/001-delivery-hiring/DeliveryHiring_R.sol\":5638:5646  mapParty */\n      0x05\n        /* \"contracts/study-case-contracts/001-delivery-hiring/DeliveryHiring_R.sol\":5638:5673  mapParty[application.walletAddress] */\n      0x00\n        /* \"contracts/study-case-contracts/001-delivery-hiring/DeliveryHiring_R.sol\":5647:5658  application */\n      0x01\n        /* \"contracts/study-case-contracts/001-delivery-hiring/DeliveryHiring_R.sol\":5647:5672  application.walletAddress */\n      dup1\n      add\n      0x00\n      swap1\n      sload\n      swap1\n      0x0100\n      exp\n      swap1\n      div\n      0xffffffffffffffffffffffffffffffffffffffff\n      and\n        /* \"contracts/study-case-contracts/001-delivery-hiring/DeliveryHiring_R.sol\":5638:5673  mapParty[application.walletAddress] */\n      0xffffffffffffffffffffffffffffffffffffffff\n      and\n      0xffffffffffffffffffffffffffffffffffffffff\n      and\n      dup2\n      mstore\n      0x20\n      add\n      swap1\n      dup2\n      mstore\n      0x20\n      add\n      0x00\n      keccak256\n      0x00\n        /* \"contracts/study-case-contracts/001-delivery-hiring/DeliveryHiring_R.sol\":5631:5673  delete mapParty[application.walletAddress] */\n      dup1\n      dup3\n      add\n      0x00\n      tag_62\n      swap2\n      swap1\n      tag_63\n      jump\t// in\n    tag_62:\n      0x01\n      dup3\n      add\n      exp(0x0100, 0x00)\n      dup2\n      sload\n      swap1\n      0xffffffffffffffffffffffffffffffffffffffff\n      mul\n      not\n      and\n      swap1\n      sstore\n      0x01\n      dup3\n      add\n      exp(0x0100, 0x14)\n      dup2\n      sload\n      swap1\n      0xff\n      mul\n      not\n      and\n      swap1\n      sstore\n      pop\n      pop\n        /* \"contracts/study-case-contracts/001-delivery-hiring/DeliveryHiring_R.sol\":5698:5743  EAI.createParty(_name, _walletAddress, false) */\n      tag_64\n        /* \"contracts/study-case-contracts/001-delivery-hiring/DeliveryHiring_R.sol\":5714:5719  _name */\n      dup4\n        /* \"contracts/study-case-contracts/001-delivery-hiring/DeliveryHiring_R.sol\":5721:5735  _walletAddress */\n      dup4\n        /* \"contracts/study-case-contracts/001-delivery-hiring/DeliveryHiring_R.sol\":5737:5742  false */\n      0x00\n        /* \"contracts/study-case-contracts/001-delivery-hiring/DeliveryHiring_R.sol\":5698:5713  EAI.createParty */\n      tag_42\n        /* \"contracts/study-case-contracts/001-delivery-hiring/DeliveryHiring_R.sol\":5698:5743  EAI.createParty(_name, _walletAddress, false) */\n      jump\t// in\n    tag_64:\n        /* \"contracts/study-case-contracts/001-delivery-hiring/DeliveryHiring_R.sol\":5684:5695  application */\n      0x01\n        /* \"contracts/study-case-contracts/001-delivery-hiring/DeliveryHiring_R.sol\":5684:5743  application = EAI.createParty(_name, _walletAddress, false) */\n      0x00\n      dup3\n      add\n      mload\n      dup2\n      0x00\n      add\n      swap1\n      dup1\n      mload\n      swap1\n      0x20\n      add\n      swap1\n      tag_65\n      swap3\n      swap2\n      swap1\n      tag_66\n      jump\t// in\n    tag_65:\n      pop\n      0x20\n      dup3\n      add\n      mload\n      dup2\n      0x01\n      add\n      exp(0x0100, 0x00)\n      dup2\n      sload\n      dup2\n      0xffffffffffffffffffffffffffffffffffffffff\n      mul\n      not\n      and\n      swap1\n      dup4\n      0xffffffffffffffffffffffffffffffffffffffff\n      and\n      mul\n      or\n      swap1\n      sstore\n      pop\n      0x40\n      dup3\n      add\n      mload\n      dup2\n      0x01\n      add\n      exp(0x0100, 0x14)\n      dup2\n      sload\n      dup2\n      0xff\n      mul\n      not\n      and\n      swap1\n      dup4\n      iszero\n      iszero\n      mul\n      or\n      swap1\n      sstore\n      pop\n      swap1\n      pop\n      pop\n        /* \"contracts/study-case-contracts/001-delivery-hiring/DeliveryHiring_R.sol\":5764:5807  updateMapParty(_walletAddress, application) */\n      tag_67\n        /* \"contracts/study-case-contracts/001-delivery-hiring/DeliveryHiring_R.sol\":5779:5793  _walletAddress */\n      dup3\n        /* \"contracts/study-case-contracts/001-delivery-hiring/DeliveryHiring_R.sol\":5795:5806  application */\n      0x01\n        /* \"contracts/study-case-contracts/001-delivery-hiring/DeliveryHiring_R.sol\":5764:5778  updateMapParty */\n      tag_68\n        /* \"contracts/study-case-contracts/001-delivery-hiring/DeliveryHiring_R.sol\":5764:5807  updateMapParty(_walletAddress, application) */\n      jump\t// in\n    tag_67:\n      pop\n        /* \"contracts/study-case-contracts/001-delivery-hiring/DeliveryHiring_R.sol\":5825:5829  true */\n      0x01\n        /* \"contracts/study-case-contracts/001-delivery-hiring/DeliveryHiring_R.sol\":5818:5829  return true */\n      swap1\n      pop\n        /* \"contracts/study-case-contracts/001-delivery-hiring/DeliveryHiring_R.sol\":5413:5844  function changeApplicationParty(string memory _name, address _walletAddress) public returns(bool) {       ... */\n      swap3\n      swap2\n      pop\n      pop\n      jump\t// out\n        /* \"contracts/study-case-contracts/001-delivery-hiring/DeliveryHiring_R.sol\":5992:6124  function getApplicationAddress() public view onlyInvolvedParties returns(address){... */\n    tag_22:\n        /* \"contracts/study-case-contracts/001-delivery-hiring/DeliveryHiring_R.sol\":6065:6072  address */\n      0x00\n        /* \"contracts/study-case-contracts/001-delivery-hiring/DeliveryHiring_R.sol\":6919:6928  activated */\n      dup1\n      0x00\n      swap1\n      sload\n      swap1\n      0x0100\n      exp\n      swap1\n      div\n      0xff\n      and\n        /* \"contracts/study-case-contracts/001-delivery-hiring/DeliveryHiring_R.sol\":6911:6961  require(activated, \"This contract is deactivated\") */\n      tag_70\n      jumpi\n      mload(0x40)\n      0x08c379a000000000000000000000000000000000000000000000000000000000\n      dup2\n      mstore\n      0x04\n      add\n      tag_71\n      swap1\n      tag_72\n      jump\t// in\n    tag_71:\n      mload(0x40)\n      dup1\n      swap2\n      sub\n      swap1\n      revert\n    tag_70:\n        /* \"contracts/study-case-contracts/001-delivery-hiring/DeliveryHiring_R.sol\":7024:7034  msg.sender */\n      caller\n        /* \"contracts/study-case-contracts/001-delivery-hiring/DeliveryHiring_R.sol\":6995:7034  application.walletAddress == msg.sender */\n      0xffffffffffffffffffffffffffffffffffffffff\n      and\n        /* \"contracts/study-case-contracts/001-delivery-hiring/DeliveryHiring_R.sol\":6995:7006  application */\n      0x01\n        /* \"contracts/study-case-contracts/001-delivery-hiring/DeliveryHiring_R.sol\":6995:7020  application.walletAddress */\n      dup1\n      add\n      0x00\n      swap1\n      sload\n      swap1\n      0x0100\n      exp\n      swap1\n      div\n      0xffffffffffffffffffffffffffffffffffffffff\n      and\n        /* \"contracts/study-case-contracts/001-delivery-hiring/DeliveryHiring_R.sol\":6995:7034  application.walletAddress == msg.sender */\n      0xffffffffffffffffffffffffffffffffffffffff\n      and\n      eq\n        /* \"contracts/study-case-contracts/001-delivery-hiring/DeliveryHiring_R.sol\":6995:7073  application.walletAddress == msg.sender || process.walletAddress == msg.sender */\n      dup1\n      tag_73\n      jumpi\n      pop\n        /* \"contracts/study-case-contracts/001-delivery-hiring/DeliveryHiring_R.sol\":7063:7073  msg.sender */\n      caller\n        /* \"contracts/study-case-contracts/001-delivery-hiring/DeliveryHiring_R.sol\":7038:7073  process.walletAddress == msg.sender */\n      0xffffffffffffffffffffffffffffffffffffffff\n      and\n        /* \"contracts/study-case-contracts/001-delivery-hiring/DeliveryHiring_R.sol\":7038:7045  process */\n      0x03\n        /* \"contracts/study-case-contracts/001-delivery-hiring/DeliveryHiring_R.sol\":7038:7059  process.walletAddress */\n      0x01\n      add\n      0x00\n      swap1\n      sload\n      swap1\n      0x0100\n      exp\n      swap1\n      div\n      0xffffffffffffffffffffffffffffffffffffffff\n      and\n        /* \"contracts/study-case-contracts/001-delivery-hiring/DeliveryHiring_R.sol\":7038:7073  process.walletAddress == msg.sender */\n      0xffffffffffffffffffffffffffffffffffffffff\n      and\n      eq\n        /* \"contracts/study-case-contracts/001-delivery-hiring/DeliveryHiring_R.sol\":6995:7073  application.walletAddress == msg.sender || process.walletAddress == msg.sender */\n    tag_73:\n        /* \"contracts/study-case-contracts/001-delivery-hiring/DeliveryHiring_R.sol\":6972:7156  require(... */\n      tag_74\n      jumpi\n      mload(0x40)\n      0x08c379a000000000000000000000000000000000000000000000000000000000\n      dup2\n      mstore\n      0x04\n      add\n      tag_75\n      swap1\n      tag_76\n      jump\t// in\n    tag_75:\n      mload(0x40)\n      dup1\n      swap2\n      sub\n      swap1\n      revert\n    tag_74:\n        /* \"contracts/study-case-contracts/001-delivery-hiring/DeliveryHiring_R.sol\":6091:6102  application */\n      0x01\n        /* \"contracts/study-case-contracts/001-delivery-hiring/DeliveryHiring_R.sol\":6091:6116  application.walletAddress */\n      dup1\n      add\n      0x00\n      swap1\n      sload\n      swap1\n      0x0100\n      exp\n      swap1\n      div\n      0xffffffffffffffffffffffffffffffffffffffff\n      and\n        /* \"contracts/study-case-contracts/001-delivery-hiring/DeliveryHiring_R.sol\":6084:6116  return application.walletAddress */\n      swap1\n      pop\n        /* \"contracts/study-case-contracts/001-delivery-hiring/DeliveryHiring_R.sol\":5992:6124  function getApplicationAddress() public view onlyInvolvedParties returns(address){... */\n      swap1\n      jump\t// out\n        /* \"contracts/study-case-contracts/001-delivery-hiring/DeliveryHiring_R.sol\":5856:5980  function getProcessAddress() public view onlyInvolvedParties returns(address){... */\n    tag_26:\n        /* \"contracts/study-case-contracts/001-delivery-hiring/DeliveryHiring_R.sol\":5925:5932  address */\n      0x00\n        /* \"contracts/study-case-contracts/001-delivery-hiring/DeliveryHiring_R.sol\":6919:6928  activated */\n      dup1\n      0x00\n      swap1\n      sload\n      swap1\n      0x0100\n      exp\n      swap1\n      div\n      0xff\n      and\n        /* \"contracts/study-case-contracts/001-delivery-hiring/DeliveryHiring_R.sol\":6911:6961  require(activated, \"This contract is deactivated\") */\n      tag_79\n      jumpi\n      mload(0x40)\n      0x08c379a000000000000000000000000000000000000000000000000000000000\n      dup2\n      mstore\n      0x04\n      add\n      tag_80\n      swap1\n      tag_72\n      jump\t// in\n    tag_80:\n      mload(0x40)\n      dup1\n      swap2\n      sub\n      swap1\n      revert\n    tag_79:\n        /* \"contracts/study-case-contracts/001-delivery-hiring/DeliveryHiring_R.sol\":7024:7034  msg.sender */\n      caller\n        /* \"contracts/study-case-contracts/001-delivery-hiring/DeliveryHiring_R.sol\":6995:7034  application.walletAddress == msg.sender */\n      0xffffffffffffffffffffffffffffffffffffffff\n      and\n        /* \"contracts/study-case-contracts/001-delivery-hiring/DeliveryHiring_R.sol\":6995:7006  application */\n      0x01\n        /* \"contracts/study-case-contracts/001-delivery-hiring/DeliveryHiring_R.sol\":6995:7020  application.walletAddress */\n      dup1\n      add\n      0x00\n      swap1\n      sload\n      swap1\n      0x0100\n      exp\n      swap1\n      div\n      0xffffffffffffffffffffffffffffffffffffffff\n      and\n        /* \"contracts/study-case-contracts/001-delivery-hiring/DeliveryHiring_R.sol\":6995:7034  application.walletAddress == msg.sender */\n      0xffffffffffffffffffffffffffffffffffffffff\n      and\n      eq\n        /* \"contracts/study-case-contracts/001-delivery-hiring/DeliveryHiring_R.sol\":6995:7073  application.walletAddress == msg.sender || process.walletAddress == msg.sender */\n      dup1\n      tag_81\n      jumpi\n      pop\n        /* \"contracts/study-case-contracts/001-delivery-hiring/DeliveryHiring_R.sol\":7063:7073  msg.sender */\n      caller\n        /* \"contracts/study-case-contracts/001-delivery-hiring/DeliveryHiring_R.sol\":7038:7073  process.walletAddress == msg.sender */\n      0xffffffffffffffffffffffffffffffffffffffff\n      and\n        /* \"contracts/study-case-contracts/001-delivery-hiring/DeliveryHiring_R.sol\":7038:7045  process */\n      0x03\n        /* \"contracts/study-case-contracts/001-delivery-hiring/DeliveryHiring_R.sol\":7038:7059  process.walletAddress */\n      0x01\n      add\n      0x00\n      swap1\n      sload\n      swap1\n      0x0100\n      exp\n      swap1\n      div\n      0xffffffffffffffffffffffffffffffffffffffff\n      and\n        /* \"contracts/study-case-contracts/001-delivery-hiring/DeliveryHiring_R.sol\":7038:7073  process.walletAddress == msg.sender */\n      0xffffffffffffffffffffffffffffffffffffffff\n      and\n      eq\n        /* \"contracts/study-case-contracts/001-delivery-hiring/DeliveryHiring_R.sol\":6995:7073  application.walletAddress == msg.sender || process.walletAddress == msg.sender */\n    tag_81:\n        /* \"contracts/study-case-contracts/001-delivery-hiring/DeliveryHiring_R.sol\":6972:7156  require(... */\n      tag_82\n      jumpi\n      mload(0x40)\n      0x08c379a000000000000000000000000000000000000000000000000000000000\n      dup2\n      mstore\n      0x04\n      add\n      tag_83\n      swap1\n      tag_76\n      jump\t// in\n    tag_83:\n      mload(0x40)\n      dup1\n      swap2\n      sub\n      swap1\n      revert\n    tag_82:\n        /* \"contracts/study-case-contracts/001-delivery-hiring/DeliveryHiring_R.sol\":5951:5958  process */\n      0x03\n        /* \"contracts/study-case-contracts/001-delivery-hiring/DeliveryHiring_R.sol\":5951:5972  process.walletAddress */\n      0x01\n      add\n      0x00\n      swap1\n      sload\n      swap1\n      0x0100\n      exp\n      swap1\n      div\n      0xffffffffffffffffffffffffffffffffffffffff\n      and\n        /* \"contracts/study-case-contracts/001-delivery-hiring/DeliveryHiring_R.sol\":5944:5972  return process.walletAddress */\n      swap1\n      pop\n        /* \"contracts/study-case-contracts/001-delivery-hiring/DeliveryHiring_R.sol\":5856:5980  function getProcessAddress() public view onlyInvolvedParties returns(address){... */\n      swap1\n      jump\t// out\n        /* \"contracts/study-case-contracts/001-delivery-hiring/DeliveryHiring_R.sol\":3199:4255  function right_requestDelivery(... */\n    tag_31:\n        /* \"contracts/study-case-contracts/001-delivery-hiring/DeliveryHiring_R.sol\":3461:3465  bool */\n      0x00\n        /* \"contracts/study-case-contracts/001-delivery-hiring/DeliveryHiring_R.sol\":6698:6707  activated */\n      dup1\n      0x00\n      swap1\n      sload\n      swap1\n      0x0100\n      exp\n      swap1\n      div\n      0xff\n      and\n        /* \"contracts/study-case-contracts/001-delivery-hiring/DeliveryHiring_R.sol\":6690:6740  require(activated, \"This contract is deactivated\") */\n      tag_86\n      jumpi\n      mload(0x40)\n      0x08c379a000000000000000000000000000000000000000000000000000000000\n      dup2\n      mstore\n      0x04\n      add\n      tag_87\n      swap1\n      tag_72\n      jump\t// in\n    tag_87:\n      mload(0x40)\n      dup1\n      swap2\n      sub\n      swap1\n      revert\n    tag_86:\n        /* \"contracts/study-case-contracts/001-delivery-hiring/DeliveryHiring_R.sol\":6784:6794  msg.sender */\n      caller\n        /* \"contracts/study-case-contracts/001-delivery-hiring/DeliveryHiring_R.sol\":6759:6794  process.walletAddress == msg.sender */\n      0xffffffffffffffffffffffffffffffffffffffff\n      and\n        /* \"contracts/study-case-contracts/001-delivery-hiring/DeliveryHiring_R.sol\":6759:6766  process */\n      0x03\n        /* \"contracts/study-case-contracts/001-delivery-hiring/DeliveryHiring_R.sol\":6759:6780  process.walletAddress */\n      0x01\n      add\n      0x00\n      swap1\n      sload\n      swap1\n      0x0100\n      exp\n      swap1\n      div\n      0xffffffffffffffffffffffffffffffffffffffff\n      and\n        /* \"contracts/study-case-contracts/001-delivery-hiring/DeliveryHiring_R.sol\":6759:6794  process.walletAddress == msg.sender */\n      0xffffffffffffffffffffffffffffffffffffffff\n      and\n      eq\n        /* \"contracts/study-case-contracts/001-delivery-hiring/DeliveryHiring_R.sol\":6751:6842  require(process.walletAddress == msg.sender, \"Only the process can execute this operation\") */\n      tag_88\n      jumpi\n      mload(0x40)\n      0x08c379a000000000000000000000000000000000000000000000000000000000\n      dup2\n      mstore\n      0x04\n      add\n      tag_89\n      swap1\n      tag_61\n      jump\t// in\n    tag_89:\n      mload(0x40)\n      dup1\n      swap2\n      sub\n      swap1\n      revert\n    tag_88:\n        /* \"contracts/study-case-contracts/001-delivery-hiring/DeliveryHiring_R.sol\":3482:3537  weekDaysInterval_C1[0].isIntoWeekDaysInterval(_weekDay) */\n      tag_91\n        /* \"contracts/study-case-contracts/001-delivery-hiring/DeliveryHiring_R.sol\":3528:3536  _weekDay */\n      dup6\n        /* \"contracts/study-case-contracts/001-delivery-hiring/DeliveryHiring_R.sol\":3482:3501  weekDaysInterval_C1 */\n      0x07\n        /* \"contracts/study-case-contracts/001-delivery-hiring/DeliveryHiring_R.sol\":3502:3503  0 */\n      0x00\n        /* \"contracts/study-case-contracts/001-delivery-hiring/DeliveryHiring_R.sol\":3482:3504  weekDaysInterval_C1[0] */\n      dup2\n      sload\n      dup2\n      lt\n      tag_92\n      jumpi\n      tag_93\n      tag_52\n      jump\t// in\n    tag_93:\n    tag_92:\n      swap1\n      0x00\n      mstore\n      keccak256(0x00, 0x20)\n      add\n        /* \"contracts/study-case-contracts/001-delivery-hiring/DeliveryHiring_R.sol\":3482:3527  weekDaysInterval_C1[0].isIntoWeekDaysInterval */\n      mload(0x40)\n      dup1\n      0x40\n      add\n      0x40\n      mstore\n      swap1\n      dup2\n      0x00\n      dup3\n      add\n      0x00\n      swap1\n      sload\n      swap1\n      0x0100\n      exp\n      swap1\n      div\n      0xff\n      and\n      0xff\n      and\n      0xff\n      and\n      dup2\n      mstore\n      0x20\n      add\n      0x00\n      dup3\n      add\n      0x01\n      swap1\n      sload\n      swap1\n      0x0100\n      exp\n      swap1\n      div\n      0xff\n      and\n      0xff\n      and\n      0xff\n      and\n      dup2\n      mstore\n      pop\n      pop\n      tag_95\n      swap1\n        /* \"contracts/study-case-contracts/001-delivery-hiring/DeliveryHiring_R.sol\":3482:3537  weekDaysInterval_C1[0].isIntoWeekDaysInterval(_weekDay) */\n      swap2\n      swap1\n      0xffffffff\n      and\n      jump\t// in\n    tag_91:\n        /* \"contracts/study-case-contracts/001-delivery-hiring/DeliveryHiring_R.sol\":3482:3602  weekDaysInterval_C1[0].isIntoWeekDaysInterval(_weekDay) &&... */\n      dup1\n      iszero\n      tag_96\n      jumpi\n      pop\n        /* \"contracts/study-case-contracts/001-delivery-hiring/DeliveryHiring_R.sol\":3553:3602  timeInterval_C1[0].isIntoTimeInterval(_hourOfDay) */\n      tag_97\n        /* \"contracts/study-case-contracts/001-delivery-hiring/DeliveryHiring_R.sol\":3591:3601  _hourOfDay */\n      dup5\n        /* \"contracts/study-case-contracts/001-delivery-hiring/DeliveryHiring_R.sol\":3553:3568  timeInterval_C1 */\n      0x08\n        /* \"contracts/study-case-contracts/001-delivery-hiring/DeliveryHiring_R.sol\":3569:3570  0 */\n      0x00\n        /* \"contracts/study-case-contracts/001-delivery-hiring/DeliveryHiring_R.sol\":3553:3571  timeInterval_C1[0] */\n      dup2\n      sload\n      dup2\n      lt\n      tag_98\n      jumpi\n      tag_99\n      tag_52\n      jump\t// in\n    tag_99:\n    tag_98:\n      swap1\n      0x00\n      mstore\n      keccak256(0x00, 0x20)\n      add\n        /* \"contracts/study-case-contracts/001-delivery-hiring/DeliveryHiring_R.sol\":3553:3590  timeInterval_C1[0].isIntoTimeInterval */\n      mload(0x40)\n      dup1\n      0x40\n      add\n      0x40\n      mstore\n      swap1\n      dup2\n      0x00\n      dup3\n      add\n      0x00\n      swap1\n      sload\n      swap1\n      0x0100\n      exp\n      swap1\n      div\n      0xffffffff\n      and\n      0xffffffff\n      and\n      0xffffffff\n      and\n      dup2\n      mstore\n      0x20\n      add\n      0x00\n      dup3\n      add\n      0x04\n      swap1\n      sload\n      swap1\n      0x0100\n      exp\n      swap1\n      div\n      0xffffffff\n      and\n      0xffffffff\n      and\n      0xffffffff\n      and\n      dup2\n      mstore\n      pop\n      pop\n      tag_101\n      swap1\n        /* \"contracts/study-case-contracts/001-delivery-hiring/DeliveryHiring_R.sol\":3553:3602  timeInterval_C1[0].isIntoTimeInterval(_hourOfDay) */\n      swap2\n      swap1\n      0xffffffff\n      and\n      jump\t// in\n    tag_97:\n        /* \"contracts/study-case-contracts/001-delivery-hiring/DeliveryHiring_R.sol\":3482:3602  weekDaysInterval_C1[0].isIntoWeekDaysInterval(_weekDay) &&... */\n    tag_96:\n        /* \"contracts/study-case-contracts/001-delivery-hiring/DeliveryHiring_R.sol\":3482:3697  weekDaysInterval_C1[0].isIntoWeekDaysInterval(_weekDay) &&... */\n      dup1\n      iszero\n      tag_102\n      jumpi\n      pop\n        /* \"contracts/study-case-contracts/001-delivery-hiring/DeliveryHiring_R.sol\":3618:3697  maxNumberOfOperationByTime_C1[0].hasAvailableOperations_ByTime(_accessDateTime) */\n      tag_103\n        /* \"contracts/study-case-contracts/001-delivery-hiring/DeliveryHiring_R.sol\":3681:3696  _accessDateTime */\n      dup7\n        /* \"contracts/study-case-contracts/001-delivery-hiring/DeliveryHiring_R.sol\":3618:3647  maxNumberOfOperationByTime_C1 */\n      0x09\n        /* \"contracts/study-case-contracts/001-delivery-hiring/DeliveryHiring_R.sol\":3648:3649  0 */\n      0x00\n        /* \"contracts/study-case-contracts/001-delivery-hiring/DeliveryHiring_R.sol\":3618:3650  maxNumberOfOperationByTime_C1[0] */\n      dup2\n      sload\n      dup2\n      lt\n      tag_104\n      jumpi\n      tag_105\n      tag_52\n      jump\t// in\n    tag_105:\n    tag_104:\n      swap1\n      0x00\n      mstore\n      keccak256(0x00, 0x20)\n      add\n        /* \"contracts/study-case-contracts/001-delivery-hiring/DeliveryHiring_R.sol\":3618:3680  maxNumberOfOperationByTime_C1[0].hasAvailableOperations_ByTime */\n      tag_107\n      swap1\n        /* \"contracts/study-case-contracts/001-delivery-hiring/DeliveryHiring_R.sol\":3618:3697  maxNumberOfOperationByTime_C1[0].hasAvailableOperations_ByTime(_accessDateTime) */\n      swap2\n      swap1\n      0xffffffff\n      and\n      jump\t// in\n    tag_103:\n        /* \"contracts/study-case-contracts/001-delivery-hiring/DeliveryHiring_R.sol\":3482:3697  weekDaysInterval_C1[0].isIntoWeekDaysInterval(_weekDay) &&... */\n    tag_102:\n        /* \"contracts/study-case-contracts/001-delivery-hiring/DeliveryHiring_R.sol\":3482:3778  weekDaysInterval_C1[0].isIntoWeekDaysInterval(_weekDay) &&... */\n      dup1\n      iszero\n      tag_108\n      jumpi\n      pop\n        /* \"contracts/study-case-contracts/001-delivery-hiring/DeliveryHiring_R.sol\":3712:3778  msgContent_number_C1[0].evaluateNumberContent(_resultFromXpath[0]) */\n      tag_109\n        /* \"contracts/study-case-contracts/001-delivery-hiring/DeliveryHiring_R.sol\":3758:3774  _resultFromXpath */\n      dup4\n        /* \"contracts/study-case-contracts/001-delivery-hiring/DeliveryHiring_R.sol\":3775:3776  0 */\n      0x00\n        /* \"contracts/study-case-contracts/001-delivery-hiring/DeliveryHiring_R.sol\":3758:3777  _resultFromXpath[0] */\n      dup2\n      mload\n      dup2\n      lt\n      tag_110\n      jumpi\n      tag_111\n      tag_52\n      jump\t// in\n    tag_111:\n    tag_110:\n      0x20\n      mul\n      0x20\n      add\n      add\n      mload\n        /* \"contracts/study-case-contracts/001-delivery-hiring/DeliveryHiring_R.sol\":3712:3732  msgContent_number_C1 */\n      0x0a\n        /* \"contracts/study-case-contracts/001-delivery-hiring/DeliveryHiring_R.sol\":3733:3734  0 */\n      0x00\n        /* \"contracts/study-case-contracts/001-delivery-hiring/DeliveryHiring_R.sol\":3712:3735  msgContent_number_C1[0] */\n      dup2\n      sload\n      dup2\n      lt\n      tag_112\n      jumpi\n      tag_113\n      tag_52\n      jump\t// in\n    tag_113:\n    tag_112:\n      swap1\n      0x00\n      mstore\n      keccak256(0x00, 0x20)\n      swap1\n      0x03\n      mul\n      add\n        /* \"contracts/study-case-contracts/001-delivery-hiring/DeliveryHiring_R.sol\":3712:3757  msgContent_number_C1[0].evaluateNumberContent */\n      mload(0x40)\n      dup1\n      0x60\n      add\n      0x40\n      mstore\n      swap1\n      dup2\n      0x00\n      dup3\n      add\n      dup1\n      sload\n      tag_115\n      swap1\n      tag_116\n      jump\t// in\n    tag_115:\n      dup1\n      0x1f\n      add\n      0x20\n      dup1\n      swap2\n      div\n      mul\n      0x20\n      add\n      mload(0x40)\n      swap1\n      dup2\n      add\n      0x40\n      mstore\n      dup1\n      swap3\n      swap2\n      swap1\n      dup2\n      dup2\n      mstore\n      0x20\n      add\n      dup3\n      dup1\n      sload\n      tag_117\n      swap1\n      tag_116\n      jump\t// in\n    tag_117:\n      dup1\n      iszero\n      tag_118\n      jumpi\n      dup1\n      0x1f\n      lt\n      tag_119\n      jumpi\n      0x0100\n      dup1\n      dup4\n      sload\n      div\n      mul\n      dup4\n      mstore\n      swap2\n      0x20\n      add\n      swap2\n      jump(tag_118)\n    tag_119:\n      dup3\n      add\n      swap2\n      swap1\n      0x00\n      mstore\n      keccak256(0x00, 0x20)\n      swap1\n    tag_120:\n      dup2\n      sload\n      dup2\n      mstore\n      swap1\n      0x01\n      add\n      swap1\n      0x20\n      add\n      dup1\n      dup4\n      gt\n      tag_120\n      jumpi\n      dup3\n      swap1\n      sub\n      0x1f\n      and\n      dup3\n      add\n      swap2\n    tag_118:\n      pop\n      pop\n      pop\n      pop\n      pop\n      dup2\n      mstore\n      0x20\n      add\n      0x01\n      dup3\n      add\n      dup1\n      sload\n      tag_121\n      swap1\n      tag_116\n      jump\t// in\n    tag_121:\n      dup1\n      0x1f\n      add\n      0x20\n      dup1\n      swap2\n      div\n      mul\n      0x20\n      add\n      mload(0x40)\n      swap1\n      dup2\n      add\n      0x40\n      mstore\n      dup1\n      swap3\n      swap2\n      swap1\n      dup2\n      dup2\n      mstore\n      0x20\n      add\n      dup3\n      dup1\n      sload\n      tag_122\n      swap1\n      tag_116\n      jump\t// in\n    tag_122:\n      dup1\n      iszero\n      tag_123\n      jumpi\n      dup1\n      0x1f\n      lt\n      tag_124\n      jumpi\n      0x0100\n      dup1\n      dup4\n      sload\n      div\n      mul\n      dup4\n      mstore\n      swap2\n      0x20\n      add\n      swap2\n      jump(tag_123)\n    tag_124:\n      dup3\n      add\n      swap2\n      swap1\n      0x00\n      mstore\n      keccak256(0x00, 0x20)\n      swap1\n    tag_125:\n      dup2\n      sload\n      dup2\n      mstore\n      swap1\n      0x01\n      add\n      swap1\n      0x20\n      add\n      dup1\n      dup4\n      gt\n      tag_125\n      jumpi\n      dup3\n      swap1\n      sub\n      0x1f\n      and\n      dup3\n      add\n      swap2\n    tag_123:\n      pop\n      pop\n      pop\n      pop\n      pop\n      dup2\n      mstore\n      0x20\n      add\n      0x02\n      dup3\n      add\n      sload\n      dup2\n      mstore\n      pop\n      pop\n      tag_126\n      swap1\n        /* \"contracts/study-case-contracts/001-delivery-hiring/DeliveryHiring_R.sol\":3712:3778  msgContent_number_C1[0].evaluateNumberContent(_resultFromXpath[0]) */\n      swap2\n      swap1\n      0xffffffff\n      and\n      jump\t// in\n    tag_109:\n        /* \"contracts/study-case-contracts/001-delivery-hiring/DeliveryHiring_R.sol\":3482:3778  weekDaysInterval_C1[0].isIntoWeekDaysInterval(_weekDay) &&... */\n    tag_108:\n        /* \"contracts/study-case-contracts/001-delivery-hiring/DeliveryHiring_R.sol\":3482:3860  weekDaysInterval_C1[0].isIntoWeekDaysInterval(_weekDay) &&... */\n      dup1\n      iszero\n      tag_127\n      jumpi\n      pop\n        /* \"contracts/study-case-contracts/001-delivery-hiring/DeliveryHiring_R.sol\":3794:3860  msgContent_number_C1[1].evaluateNumberContent(_resultFromXpath[1]) */\n      tag_128\n        /* \"contracts/study-case-contracts/001-delivery-hiring/DeliveryHiring_R.sol\":3840:3856  _resultFromXpath */\n      dup4\n        /* \"contracts/study-case-contracts/001-delivery-hiring/DeliveryHiring_R.sol\":3857:3858  1 */\n      0x01\n        /* \"contracts/study-case-contracts/001-delivery-hiring/DeliveryHiring_R.sol\":3840:3859  _resultFromXpath[1] */\n      dup2\n      mload\n      dup2\n      lt\n      tag_129\n      jumpi\n      tag_130\n      tag_52\n      jump\t// in\n    tag_130:\n    tag_129:\n      0x20\n      mul\n      0x20\n      add\n      add\n      mload\n        /* \"contracts/study-case-contracts/001-delivery-hiring/DeliveryHiring_R.sol\":3794:3814  msgContent_number_C1 */\n      0x0a\n        /* \"contracts/study-case-contracts/001-delivery-hiring/DeliveryHiring_R.sol\":3815:3816  1 */\n      0x01\n        /* \"contracts/study-case-contracts/001-delivery-hiring/DeliveryHiring_R.sol\":3794:3817  msgContent_number_C1[1] */\n      dup2\n      sload\n      dup2\n      lt\n      tag_131\n      jumpi\n      tag_132\n      tag_52\n      jump\t// in\n    tag_132:\n    tag_131:\n      swap1\n      0x00\n      mstore\n      keccak256(0x00, 0x20)\n      swap1\n      0x03\n      mul\n      add\n        /* \"contracts/study-case-contracts/001-delivery-hiring/DeliveryHiring_R.sol\":3794:3839  msgContent_number_C1[1].evaluateNumberContent */\n      mload(0x40)\n      dup1\n      0x60\n      add\n      0x40\n      mstore\n      swap1\n      dup2\n      0x00\n      dup3\n      add\n      dup1\n      sload\n      tag_134\n      swap1\n      tag_116\n      jump\t// in\n    tag_134:\n      dup1\n      0x1f\n      add\n      0x20\n      dup1\n      swap2\n      div\n      mul\n      0x20\n      add\n      mload(0x40)\n      swap1\n      dup2\n      add\n      0x40\n      mstore\n      dup1\n      swap3\n      swap2\n      swap1\n      dup2\n      dup2\n      mstore\n      0x20\n      add\n      dup3\n      dup1\n      sload\n      tag_135\n      swap1\n      tag_116\n      jump\t// in\n    tag_135:\n      dup1\n      iszero\n      tag_136\n      jumpi\n      dup1\n      0x1f\n      lt\n      tag_137\n      jumpi\n      0x0100\n      dup1\n      dup4\n      sload\n      div\n      mul\n      dup4\n      mstore\n      swap2\n      0x20\n      add\n      swap2\n      jump(tag_136)\n    tag_137:\n      dup3\n      add\n      swap2\n      swap1\n      0x00\n      mstore\n      keccak256(0x00, 0x20)\n      swap1\n    tag_138:\n      dup2\n      sload\n      dup2\n      mstore\n      swap1\n      0x01\n      add\n      swap1\n      0x20\n      add\n      dup1\n      dup4\n      gt\n      tag_138\n      jumpi\n      dup3\n      swap1\n      sub\n      0x1f\n      and\n      dup3\n      add\n      swap2\n    tag_136:\n      pop\n      pop\n      pop\n      pop\n      pop\n      dup2\n      mstore\n      0x20\n      add\n      0x01\n      dup3\n      add\n      dup1\n      sload\n      tag_139\n      swap1\n      tag_116\n      jump\t// in\n    tag_139:\n      dup1\n      0x1f\n      add\n      0x20\n      dup1\n      swap2\n      div\n      mul\n      0x20\n      add\n      mload(0x40)\n      swap1\n      dup2\n      add\n      0x40\n      mstore\n      dup1\n      swap3\n      swap2\n      swap1\n      dup2\n      dup2\n      mstore\n      0x20\n      add\n      dup3\n      dup1\n      sload\n      tag_140\n      swap1\n      tag_116\n      jump\t// in\n    tag_140:\n      dup1\n      iszero\n      tag_141\n      jumpi\n      dup1\n      0x1f\n      lt\n      tag_142\n      jumpi\n      0x0100\n      dup1\n      dup4\n      sload\n      div\n      mul\n      dup4\n      mstore\n      swap2\n      0x20\n      add\n      swap2\n      jump(tag_141)\n    tag_142:\n      dup3\n      add\n      swap2\n      swap1\n      0x00\n      mstore\n      keccak256(0x00, 0x20)\n      swap1\n    tag_143:\n      dup2\n      sload\n      dup2\n      mstore\n      swap1\n      0x01\n      add\n      swap1\n      0x20\n      add\n      dup1\n      dup4\n      gt\n      tag_143\n      jumpi\n      dup3\n      swap1\n      sub\n      0x1f\n      and\n      dup3\n      add\n      swap2\n    tag_141:\n      pop\n      pop\n      pop\n      pop\n      pop\n      dup2\n      mstore\n      0x20\n      add\n      0x02\n      dup3\n      add\n      sload\n      dup2\n      mstore\n      pop\n      pop\n      tag_126\n      swap1\n        /* \"contracts/study-case-contracts/001-delivery-hiring/DeliveryHiring_R.sol\":3794:3860  msgContent_number_C1[1].evaluateNumberContent(_resultFromXpath[1]) */\n      swap2\n      swap1\n      0xffffffff\n      and\n      jump\t// in\n    tag_128:\n        /* \"contracts/study-case-contracts/001-delivery-hiring/DeliveryHiring_R.sol\":3482:3860  weekDaysInterval_C1[0].isIntoWeekDaysInterval(_weekDay) &&... */\n    tag_127:\n        /* \"contracts/study-case-contracts/001-delivery-hiring/DeliveryHiring_R.sol\":3482:3991  weekDaysInterval_C1[0].isIntoWeekDaysInterval(_weekDay) &&... */\n      dup1\n      iszero\n      tag_144\n      jumpi\n      pop\n        /* \"contracts/study-case-contracts/001-delivery-hiring/DeliveryHiring_R.sol\":3876:3991  msgContent_numberPerTime_C1[0].evaluateAndDecreaseNumberPerTime(_accessDateTime, _resultFromXpath_numberPerTime[0]) */\n      tag_145\n        /* \"contracts/study-case-contracts/001-delivery-hiring/DeliveryHiring_R.sol\":3940:3955  _accessDateTime */\n      dup7\n        /* \"contracts/study-case-contracts/001-delivery-hiring/DeliveryHiring_R.sol\":3957:3987  _resultFromXpath_numberPerTime */\n      dup4\n        /* \"contracts/study-case-contracts/001-delivery-hiring/DeliveryHiring_R.sol\":3988:3989  0 */\n      0x00\n        /* \"contracts/study-case-contracts/001-delivery-hiring/DeliveryHiring_R.sol\":3957:3990  _resultFromXpath_numberPerTime[0] */\n      dup2\n      mload\n      dup2\n      lt\n      tag_146\n      jumpi\n      tag_147\n      tag_52\n      jump\t// in\n    tag_147:\n    tag_146:\n      0x20\n      mul\n      0x20\n      add\n      add\n      mload\n        /* \"contracts/study-case-contracts/001-delivery-hiring/DeliveryHiring_R.sol\":3876:3903  msgContent_numberPerTime_C1 */\n      0x0b\n        /* \"contracts/study-case-contracts/001-delivery-hiring/DeliveryHiring_R.sol\":3904:3905  0 */\n      0x00\n        /* \"contracts/study-case-contracts/001-delivery-hiring/DeliveryHiring_R.sol\":3876:3906  msgContent_numberPerTime_C1[0] */\n      dup2\n      sload\n      dup2\n      lt\n      tag_148\n      jumpi\n      tag_149\n      tag_52\n      jump\t// in\n    tag_149:\n    tag_148:\n      swap1\n      0x00\n      mstore\n      keccak256(0x00, 0x20)\n      swap1\n      0x06\n      mul\n      add\n        /* \"contracts/study-case-contracts/001-delivery-hiring/DeliveryHiring_R.sol\":3876:3939  msgContent_numberPerTime_C1[0].evaluateAndDecreaseNumberPerTime */\n      tag_151\n      swap1\n        /* \"contracts/study-case-contracts/001-delivery-hiring/DeliveryHiring_R.sol\":3876:3991  msgContent_numberPerTime_C1[0].evaluateAndDecreaseNumberPerTime(_accessDateTime, _resultFromXpath_numberPerTime[0]) */\n      swap3\n      swap2\n      swap1\n      0xffffffff\n      and\n      jump\t// in\n    tag_145:\n        /* \"contracts/study-case-contracts/001-delivery-hiring/DeliveryHiring_R.sol\":3482:3991  weekDaysInterval_C1[0].isIntoWeekDaysInterval(_weekDay) &&... */\n    tag_144:\n        /* \"contracts/study-case-contracts/001-delivery-hiring/DeliveryHiring_R.sol\":3479:4248  if(weekDaysInterval_C1[0].isIntoWeekDaysInterval(_weekDay) &&... */\n      iszero\n      tag_152\n      jumpi\n        /* \"contracts/study-case-contracts/001-delivery-hiring/DeliveryHiring_R.sol\":4022:4059  successEvent(\"Successful execution!\") */\n      0x95a1f3a1dafdd4c1af344e3d7c69a72cbce8a3f15fe1cf95a7f5bd23df2e71a1\n      mload(0x40)\n      tag_153\n      swap1\n      tag_154\n      jump\t// in\n    tag_153:\n      mload(0x40)\n      dup1\n      swap2\n      sub\n      swap1\n      log1\n        /* \"contracts/study-case-contracts/001-delivery-hiring/DeliveryHiring_R.sol\":4081:4085  true */\n      0x01\n        /* \"contracts/study-case-contracts/001-delivery-hiring/DeliveryHiring_R.sol\":4074:4085  return true */\n      swap1\n      pop\n      jump(tag_90)\n        /* \"contracts/study-case-contracts/001-delivery-hiring/DeliveryHiring_R.sol\":3479:4248  if(weekDaysInterval_C1[0].isIntoWeekDaysInterval(_weekDay) &&... */\n    tag_152:\n        /* \"contracts/study-case-contracts/001-delivery-hiring/DeliveryHiring_R.sol\":4122:4215  failEvent(\"Request operation performed outside of allowed hours or limit operation exceeded\") */\n      0x66091b7dc2b097c8f60d5cd6aa99633b097f08d2eb1056f3e15361b22e0ea2ba\n      mload(0x40)\n      tag_156\n      swap1\n      tag_157\n      jump\t// in\n    tag_156:\n      mload(0x40)\n      dup1\n      swap2\n      sub\n      swap1\n      log1\n        /* \"contracts/study-case-contracts/001-delivery-hiring/DeliveryHiring_R.sol\":4231:4236  false */\n      0x00\n        /* \"contracts/study-case-contracts/001-delivery-hiring/DeliveryHiring_R.sol\":4224:4236  return false */\n      swap1\n      pop\n        /* \"contracts/study-case-contracts/001-delivery-hiring/DeliveryHiring_R.sol\":6853:6854  _ */\n    tag_90:\n        /* \"contracts/study-case-contracts/001-delivery-hiring/DeliveryHiring_R.sol\":3199:4255  function right_requestDelivery(... */\n      swap6\n      swap5\n      pop\n      pop\n      pop\n      pop\n      pop\n      jump\t// out\n        /* \"contracts/study-case-contracts/001-delivery-hiring/DeliveryHiring_R.sol\":4813:5075  function signContract() public onlyApplication() returns(bool) {... */\n    tag_34:\n        /* \"contracts/study-case-contracts/001-delivery-hiring/DeliveryHiring_R.sol\":4870:4874  bool */\n      0x00\n        /* \"contracts/study-case-contracts/001-delivery-hiring/DeliveryHiring_R.sol\":6449:6458  activated */\n      dup1\n      0x00\n      swap1\n      sload\n      swap1\n      0x0100\n      exp\n      swap1\n      div\n      0xff\n      and\n        /* \"contracts/study-case-contracts/001-delivery-hiring/DeliveryHiring_R.sol\":6441:6491  require(activated, \"This contract is deactivated\") */\n      tag_159\n      jumpi\n      mload(0x40)\n      0x08c379a000000000000000000000000000000000000000000000000000000000\n      dup2\n      mstore\n      0x04\n      add\n      tag_160\n      swap1\n      tag_72\n      jump\t// in\n    tag_160:\n      mload(0x40)\n      dup1\n      swap2\n      sub\n      swap1\n      revert\n    tag_159:\n        /* \"contracts/study-case-contracts/001-delivery-hiring/DeliveryHiring_R.sol\":6555:6565  msg.sender */\n      caller\n        /* \"contracts/study-case-contracts/001-delivery-hiring/DeliveryHiring_R.sol\":6526:6565  application.walletAddress == msg.sender */\n      0xffffffffffffffffffffffffffffffffffffffff\n      and\n        /* \"contracts/study-case-contracts/001-delivery-hiring/DeliveryHiring_R.sol\":6526:6537  application */\n      0x01\n        /* \"contracts/study-case-contracts/001-delivery-hiring/DeliveryHiring_R.sol\":6526:6551  application.walletAddress */\n      dup1\n      add\n      0x00\n      swap1\n      sload\n      swap1\n      0x0100\n      exp\n      swap1\n      div\n      0xffffffffffffffffffffffffffffffffffffffff\n      and\n        /* \"contracts/study-case-contracts/001-delivery-hiring/DeliveryHiring_R.sol\":6526:6565  application.walletAddress == msg.sender */\n      0xffffffffffffffffffffffffffffffffffffffff\n      and\n      eq\n        /* \"contracts/study-case-contracts/001-delivery-hiring/DeliveryHiring_R.sol\":6518:6617  require(application.walletAddress == msg.sender, \"Only the application can execute this operation\") */\n      tag_161\n      jumpi\n      mload(0x40)\n      0x08c379a000000000000000000000000000000000000000000000000000000000\n      dup2\n      mstore\n      0x04\n      add\n      tag_162\n      swap1\n      tag_163\n      jump\t// in\n    tag_162:\n      mload(0x40)\n      dup1\n      swap2\n      sub\n      swap1\n      revert\n    tag_161:\n        /* \"contracts/study-case-contracts/001-delivery-hiring/DeliveryHiring_R.sol\":4916:4921  false */\n      0x00\n        /* \"contracts/study-case-contracts/001-delivery-hiring/DeliveryHiring_R.sol\":4895:4921  application.aware == false */\n      iszero\n      iszero\n        /* \"contracts/study-case-contracts/001-delivery-hiring/DeliveryHiring_R.sol\":4895:4906  application */\n      0x01\n        /* \"contracts/study-case-contracts/001-delivery-hiring/DeliveryHiring_R.sol\":4895:4912  application.aware */\n      dup1\n      add\n      0x14\n      swap1\n      sload\n      swap1\n      0x0100\n      exp\n      swap1\n      div\n      0xff\n      and\n        /* \"contracts/study-case-contracts/001-delivery-hiring/DeliveryHiring_R.sol\":4895:4921  application.aware == false */\n      iszero\n      iszero\n      eq\n        /* \"contracts/study-case-contracts/001-delivery-hiring/DeliveryHiring_R.sol\":4887:4956  require(application.aware == false, \"The contract is already signed\") */\n      tag_165\n      jumpi\n      mload(0x40)\n      0x08c379a000000000000000000000000000000000000000000000000000000000\n      dup2\n      mstore\n      0x04\n      add\n      tag_166\n      swap1\n      tag_167\n      jump\t// in\n    tag_166:\n      mload(0x40)\n      dup1\n      swap2\n      sub\n      swap1\n      revert\n    tag_165:\n        /* \"contracts/study-case-contracts/001-delivery-hiring/DeliveryHiring_R.sol\":4995:4999  true */\n      0x01\n        /* \"contracts/study-case-contracts/001-delivery-hiring/DeliveryHiring_R.sol\":4975:4986  application */\n      dup1\n        /* \"contracts/study-case-contracts/001-delivery-hiring/DeliveryHiring_R.sol\":4975:4992  application.aware */\n      0x01\n      add\n      0x14\n        /* \"contracts/study-case-contracts/001-delivery-hiring/DeliveryHiring_R.sol\":4975:4999  application.aware = true */\n      0x0100\n      exp\n      dup2\n      sload\n      dup2\n      0xff\n      mul\n      not\n      and\n      swap1\n      dup4\n      iszero\n      iszero\n      mul\n      or\n      swap1\n      sstore\n      pop\n        /* \"contracts/study-case-contracts/001-delivery-hiring/DeliveryHiring_R.sol\":5012:5051  updateMapParty(msg.sender, application) */\n      tag_168\n        /* \"contracts/study-case-contracts/001-delivery-hiring/DeliveryHiring_R.sol\":5027:5037  msg.sender */\n      caller\n        /* \"contracts/study-case-contracts/001-delivery-hiring/DeliveryHiring_R.sol\":5039:5050  application */\n      0x01\n        /* \"contracts/study-case-contracts/001-delivery-hiring/DeliveryHiring_R.sol\":5012:5026  updateMapParty */\n      tag_68\n        /* \"contracts/study-case-contracts/001-delivery-hiring/DeliveryHiring_R.sol\":5012:5051  updateMapParty(msg.sender, application) */\n      jump\t// in\n    tag_168:\n      pop\n        /* \"contracts/study-case-contracts/001-delivery-hiring/DeliveryHiring_R.sol\":5063:5067  true */\n      0x01\n        /* \"contracts/study-case-contracts/001-delivery-hiring/DeliveryHiring_R.sol\":5056:5067  return true */\n      swap1\n      pop\n        /* \"contracts/study-case-contracts/001-delivery-hiring/DeliveryHiring_R.sol\":4813:5075  function signContract() public onlyApplication() returns(bool) {... */\n      swap1\n      jump\t// out\n        /* \"contracts/study-case-contracts/001-delivery-hiring/DeliveryHiring_R.sol\":6132:6281  function getParty(address _walletAddress) public view onlyInvolvedParties returns(EAI.Party memory){... */\n    tag_39:\n        /* \"contracts/study-case-contracts/001-delivery-hiring/DeliveryHiring_R.sol\":6214:6230  EAI.Party memory */\n      tag_169\n      tag_170\n      jump\t// in\n    tag_169:\n        /* \"contracts/study-case-contracts/001-delivery-hiring/DeliveryHiring_R.sol\":6919:6928  activated */\n      0x00\n      dup1\n      sload\n      swap1\n      0x0100\n      exp\n      swap1\n      div\n      0xff\n      and\n        /* \"contracts/study-case-contracts/001-delivery-hiring/DeliveryHiring_R.sol\":6911:6961  require(activated, \"This contract is deactivated\") */\n      tag_172\n      jumpi\n      mload(0x40)\n      0x08c379a000000000000000000000000000000000000000000000000000000000\n      dup2\n      mstore\n      0x04\n      add\n      tag_173\n      swap1\n      tag_72\n      jump\t// in\n    tag_173:\n      mload(0x40)\n      dup1\n      swap2\n      sub\n      swap1\n      revert\n    tag_172:\n        /* \"contracts/study-case-contracts/001-delivery-hiring/DeliveryHiring_R.sol\":7024:7034  msg.sender */\n      caller\n        /* \"contracts/study-case-contracts/001-delivery-hiring/DeliveryHiring_R.sol\":6995:7034  application.walletAddress == msg.sender */\n      0xffffffffffffffffffffffffffffffffffffffff\n      and\n        /* \"contracts/study-case-contracts/001-delivery-hiring/DeliveryHiring_R.sol\":6995:7006  application */\n      0x01\n        /* \"contracts/study-case-contracts/001-delivery-hiring/DeliveryHiring_R.sol\":6995:7020  application.walletAddress */\n      dup1\n      add\n      0x00\n      swap1\n      sload\n      swap1\n      0x0100\n      exp\n      swap1\n      div\n      0xffffffffffffffffffffffffffffffffffffffff\n      and\n        /* \"contracts/study-case-contracts/001-delivery-hiring/DeliveryHiring_R.sol\":6995:7034  application.walletAddress == msg.sender */\n      0xffffffffffffffffffffffffffffffffffffffff\n      and\n      eq\n        /* \"contracts/study-case-contracts/001-delivery-hiring/DeliveryHiring_R.sol\":6995:7073  application.walletAddress == msg.sender || process.walletAddress == msg.sender */\n      dup1\n      tag_174\n      jumpi\n      pop\n        /* \"contracts/study-case-contracts/001-delivery-hiring/DeliveryHiring_R.sol\":7063:7073  msg.sender */\n      caller\n        /* \"contracts/study-case-contracts/001-delivery-hiring/DeliveryHiring_R.sol\":7038:7073  process.walletAddress == msg.sender */\n      0xffffffffffffffffffffffffffffffffffffffff\n      and\n        /* \"contracts/study-case-contracts/001-delivery-hiring/DeliveryHiring_R.sol\":7038:7045  process */\n      0x03\n        /* \"contracts/study-case-contracts/001-delivery-hiring/DeliveryHiring_R.sol\":7038:7059  process.walletAddress */\n      0x01\n      add\n      0x00\n      swap1\n      sload\n      swap1\n      0x0100\n      exp\n      swap1\n      div\n      0xffffffffffffffffffffffffffffffffffffffff\n      and\n        /* \"contracts/study-case-contracts/001-delivery-hiring/DeliveryHiring_R.sol\":7038:7073  process.walletAddress == msg.sender */\n      0xffffffffffffffffffffffffffffffffffffffff\n      and\n      eq\n        /* \"contracts/study-case-contracts/001-delivery-hiring/DeliveryHiring_R.sol\":6995:7073  application.walletAddress == msg.sender || process.walletAddress == msg.sender */\n    tag_174:\n        /* \"contracts/study-case-contracts/001-delivery-hiring/DeliveryHiring_R.sol\":6972:7156  require(... */\n      tag_175\n      jumpi\n      mload(0x40)\n      0x08c379a000000000000000000000000000000000000000000000000000000000\n      dup2\n      mstore\n      0x04\n      add\n      tag_176\n      swap1\n      tag_76\n      jump\t// in\n    tag_176:\n      mload(0x40)\n      dup1\n      swap2\n      sub\n      swap1\n      revert\n    tag_175:\n        /* \"contracts/study-case-contracts/001-delivery-hiring/DeliveryHiring_R.sol\":6249:6257  mapParty */\n      0x05\n        /* \"contracts/study-case-contracts/001-delivery-hiring/DeliveryHiring_R.sol\":6249:6273  mapParty[_walletAddress] */\n      0x00\n        /* \"contracts/study-case-contracts/001-delivery-hiring/DeliveryHiring_R.sol\":6258:6272  _walletAddress */\n      dup4\n        /* \"contracts/study-case-contracts/001-delivery-hiring/DeliveryHiring_R.sol\":6249:6273  mapParty[_walletAddress] */\n      0xffffffffffffffffffffffffffffffffffffffff\n      and\n      0xffffffffffffffffffffffffffffffffffffffff\n      and\n      dup2\n      mstore\n      0x20\n      add\n      swap1\n      dup2\n      mstore\n      0x20\n      add\n      0x00\n      keccak256\n        /* \"contracts/study-case-contracts/001-delivery-hiring/DeliveryHiring_R.sol\":6242:6273  return mapParty[_walletAddress] */\n      mload(0x40)\n      dup1\n      0x60\n      add\n      0x40\n      mstore\n      swap1\n      dup2\n      0x00\n      dup3\n      add\n      dup1\n      sload\n      tag_178\n      swap1\n      tag_116\n      jump\t// in\n    tag_178:\n      dup1\n      0x1f\n      add\n      0x20\n      dup1\n      swap2\n      div\n      mul\n      0x20\n      add\n      mload(0x40)\n      swap1\n      dup2\n      add\n      0x40\n      mstore\n      dup1\n      swap3\n      swap2\n      swap1\n      dup2\n      dup2\n      mstore\n      0x20\n      add\n      dup3\n      dup1\n      sload\n      tag_179\n      swap1\n      tag_116\n      jump\t// in\n    tag_179:\n      dup1\n      iszero\n      tag_180\n      jumpi\n      dup1\n      0x1f\n      lt\n      tag_181\n      jumpi\n      0x0100\n      dup1\n      dup4\n      sload\n      div\n      mul\n      dup4\n      mstore\n      swap2\n      0x20\n      add\n      swap2\n      jump(tag_180)\n    tag_181:\n      dup3\n      add\n      swap2\n      swap1\n      0x00\n      mstore\n      keccak256(0x00, 0x20)\n      swap1\n    tag_182:\n      dup2\n      sload\n      dup2\n      mstore\n      swap1\n      0x01\n      add\n      swap1\n      0x20\n      add\n      dup1\n      dup4\n      gt\n      tag_182\n      jumpi\n      dup3\n      swap1\n      sub\n      0x1f\n      and\n      dup3\n      add\n      swap2\n    tag_180:\n      pop\n      pop\n      pop\n      pop\n      pop\n      dup2\n      mstore\n      0x20\n      add\n      0x01\n      dup3\n      add\n      0x00\n      swap1\n      sload\n      swap1\n      0x0100\n      exp\n      swap1\n      div\n      0xffffffffffffffffffffffffffffffffffffffff\n      and\n      0xffffffffffffffffffffffffffffffffffffffff\n      and\n      0xffffffffffffffffffffffffffffffffffffffff\n      and\n      dup2\n      mstore\n      0x20\n      add\n      0x01\n      dup3\n      add\n      0x14\n      swap1\n      sload\n      swap1\n      0x0100\n      exp\n      swap1\n      div\n      0xff\n      and\n      iszero\n      iszero\n      iszero\n      iszero\n      dup2\n      mstore\n      pop\n      pop\n      swap1\n      pop\n        /* \"contracts/study-case-contracts/001-delivery-hiring/DeliveryHiring_R.sol\":6132:6281  function getParty(address _walletAddress) public view onlyInvolvedParties returns(EAI.Party memory){... */\n      swap2\n      swap1\n      pop\n      jump\t// out\n        /* \"contracts/lib/eai/EAI.sol\":1588:1764  function createParty(string memory _name, address _walletAddress, bool _aware) internal pure returns(Party memory){... */\n    tag_42:\n        /* \"contracts/lib/eai/EAI.sol\":1689:1701  Party memory */\n      tag_183\n      tag_170\n      jump\t// in\n    tag_183:\n        /* \"contracts/lib/eai/EAI.sol\":1720:1756  Party(_name, _walletAddress, _aware) */\n      mload(0x40)\n      dup1\n      0x60\n      add\n      0x40\n      mstore\n      dup1\n        /* \"contracts/lib/eai/EAI.sol\":1726:1731  _name */\n      dup6\n        /* \"contracts/lib/eai/EAI.sol\":1720:1756  Party(_name, _walletAddress, _aware) */\n      dup2\n      mstore\n      0x20\n      add\n        /* \"contracts/lib/eai/EAI.sol\":1733:1747  _walletAddress */\n      dup5\n        /* \"contracts/lib/eai/EAI.sol\":1720:1756  Party(_name, _walletAddress, _aware) */\n      0xffffffffffffffffffffffffffffffffffffffff\n      and\n      dup2\n      mstore\n      0x20\n      add\n        /* \"contracts/lib/eai/EAI.sol\":1749:1755  _aware */\n      dup4\n        /* \"contracts/lib/eai/EAI.sol\":1720:1756  Party(_name, _walletAddress, _aware) */\n      iszero\n      iszero\n      dup2\n      mstore\n      pop\n        /* \"contracts/lib/eai/EAI.sol\":1713:1756  return Party(_name, _walletAddress, _aware) */\n      swap1\n      pop\n        /* \"contracts/lib/eai/EAI.sol\":1588:1764  function createParty(string memory _name, address _walletAddress, bool _aware) internal pure returns(Party memory){... */\n      swap4\n      swap3\n      pop\n      pop\n      pop\n      jump\t// out\n        /* \"contracts/lib/eai/EAI.sol\":2808:3028  function createWeekDaysInterval(... */\n    tag_43:\n        /* \"contracts/lib/eai/EAI.sol\":2948:2971  WeekDaysInterval memory */\n      tag_185\n      tag_186\n      jump\t// in\n    tag_185:\n        /* \"contracts/lib/eai/EAI.sol\":2924:2930  _start */\n      dup3\n        /* \"contracts/lib/eai/EAI.sol\":2932:2936  _end */\n      dup3\n        /* \"contracts/lib/eai/EAI.sol\":431:432  0 */\n      0x00\n        /* \"contracts/lib/eai/EAI.sol\":4953:4972  _startDay >= SUNDAY */\n      0xff\n      and\n        /* \"contracts/lib/eai/EAI.sol\":4953:4962  _startDay */\n      dup3\n        /* \"contracts/lib/eai/EAI.sol\":4953:4972  _startDay >= SUNDAY */\n      0xff\n      and\n      lt\n      iszero\n        /* \"contracts/lib/eai/EAI.sol\":4953:4997  _startDay >= SUNDAY && _startDay <= SATURDAY */\n      dup1\n      iszero\n      tag_188\n      jumpi\n      pop\n        /* \"contracts/lib/eai/EAI.sol\":619:620  6 */\n      0x06\n        /* \"contracts/lib/eai/EAI.sol\":4976:4997  _startDay <= SATURDAY */\n      0xff\n      and\n        /* \"contracts/lib/eai/EAI.sol\":4976:4985  _startDay */\n      dup3\n        /* \"contracts/lib/eai/EAI.sol\":4976:4997  _startDay <= SATURDAY */\n      0xff\n      and\n      gt\n      iszero\n        /* \"contracts/lib/eai/EAI.sol\":4953:4997  _startDay >= SUNDAY && _startDay <= SATURDAY */\n    tag_188:\n        /* \"contracts/lib/eai/EAI.sol\":4944:5042  require( _startDay >= SUNDAY && _startDay <= SATURDAY, \"The _startDay not represents a valid day\") */\n      tag_189\n      jumpi\n      mload(0x40)\n      0x08c379a000000000000000000000000000000000000000000000000000000000\n      dup2\n      mstore\n      0x04\n      add\n      tag_190\n      swap1\n      tag_191\n      jump\t// in\n    tag_190:\n      mload(0x40)\n      dup1\n      swap2\n      sub\n      swap1\n      revert\n    tag_189:\n        /* \"contracts/lib/eai/EAI.sol\":431:432  0 */\n      0x00\n        /* \"contracts/lib/eai/EAI.sol\":5061:5078  _endDay >= SUNDAY */\n      0xff\n      and\n        /* \"contracts/lib/eai/EAI.sol\":5061:5068  _endDay */\n      dup2\n        /* \"contracts/lib/eai/EAI.sol\":5061:5078  _endDay >= SUNDAY */\n      0xff\n      and\n      lt\n      iszero\n        /* \"contracts/lib/eai/EAI.sol\":5061:5101  _endDay >= SUNDAY && _endDay <= SATURDAY */\n      dup1\n      iszero\n      tag_192\n      jumpi\n      pop\n        /* \"contracts/lib/eai/EAI.sol\":619:620  6 */\n      0x06\n        /* \"contracts/lib/eai/EAI.sol\":5082:5101  _endDay <= SATURDAY */\n      0xff\n      and\n        /* \"contracts/lib/eai/EAI.sol\":5082:5089  _endDay */\n      dup2\n        /* \"contracts/lib/eai/EAI.sol\":5082:5101  _endDay <= SATURDAY */\n      0xff\n      and\n      gt\n      iszero\n        /* \"contracts/lib/eai/EAI.sol\":5061:5101  _endDay >= SUNDAY && _endDay <= SATURDAY */\n    tag_192:\n        /* \"contracts/lib/eai/EAI.sol\":5053:5145  require(_endDay >= SUNDAY && _endDay <= SATURDAY,  \"The _endDay not represents a valid day\") */\n      tag_193\n      jumpi\n      mload(0x40)\n      0x08c379a000000000000000000000000000000000000000000000000000000000\n      dup2\n      mstore\n      0x04\n      add\n      tag_194\n      swap1\n      tag_195\n      jump\t// in\n    tag_194:\n      mload(0x40)\n      dup1\n      swap2\n      sub\n      swap1\n      revert\n    tag_193:\n        /* \"contracts/lib/eai/EAI.sol\":2990:3020  WeekDaysInterval(_start, _end) */\n      mload(0x40)\n      dup1\n      0x40\n      add\n      0x40\n      mstore\n      dup1\n        /* \"contracts/lib/eai/EAI.sol\":3007:3013  _start */\n      dup7\n        /* \"contracts/lib/eai/EAI.sol\":2990:3020  WeekDaysInterval(_start, _end) */\n      0xff\n      and\n      dup2\n      mstore\n      0x20\n      add\n        /* \"contracts/lib/eai/EAI.sol\":3015:3019  _end */\n      dup6\n        /* \"contracts/lib/eai/EAI.sol\":2990:3020  WeekDaysInterval(_start, _end) */\n      0xff\n      and\n      dup2\n      mstore\n      pop\n        /* \"contracts/lib/eai/EAI.sol\":2983:3020  return WeekDaysInterval(_start, _end) */\n      swap3\n      pop\n        /* \"contracts/lib/eai/EAI.sol\":2808:3028  function createWeekDaysInterval(... */\n      pop\n      pop\n      swap3\n      swap2\n      pop\n      pop\n      jump\t// out\n        /* \"contracts/lib/eai/EAI.sol\":5722:5933  function createTimeInterval(... */\n    tag_44:\n        /* \"contracts/lib/eai/EAI.sol\":5861:5880  TimeInterval memory */\n      tag_197\n      tag_198\n      jump\t// in\n    tag_197:\n        /* \"contracts/lib/eai/EAI.sol\":5837:5843  _start */\n      dup3\n        /* \"contracts/lib/eai/EAI.sol\":5845:5849  _end */\n      dup3\n        /* \"contracts/lib/eai/EAI.sol\":990:991  0 */\n      0x00\n        /* \"contracts/lib/eai/EAI.sol\":7600:7620  _startHr >= MIN_HOUR */\n      0xffffffff\n      and\n        /* \"contracts/lib/eai/EAI.sol\":7600:7608  _startHr */\n      dup3\n        /* \"contracts/lib/eai/EAI.sol\":7600:7620  _startHr >= MIN_HOUR */\n      0xffffffff\n      and\n      lt\n      iszero\n        /* \"contracts/lib/eai/EAI.sol\":7600:7644  _startHr >= MIN_HOUR && _startHr <= MAX_HOUR */\n      dup1\n      iszero\n      tag_200\n      jumpi\n      pop\n        /* \"contracts/lib/eai/EAI.sol\":1024:1029  86399 */\n      0x01517f\n        /* \"contracts/lib/eai/EAI.sol\":7624:7644  _startHr <= MAX_HOUR */\n      0xffffffff\n      and\n        /* \"contracts/lib/eai/EAI.sol\":7624:7632  _startHr */\n      dup3\n        /* \"contracts/lib/eai/EAI.sol\":7624:7644  _startHr <= MAX_HOUR */\n      0xffffffff\n      and\n      gt\n      iszero\n        /* \"contracts/lib/eai/EAI.sol\":7600:7644  _startHr >= MIN_HOUR && _startHr <= MAX_HOUR */\n    tag_200:\n        /* \"contracts/lib/eai/EAI.sol\":7591:7689  require( _startHr >= MIN_HOUR && _startHr <= MAX_HOUR, \"The _startDay not represents a valid day\") */\n      tag_201\n      jumpi\n      mload(0x40)\n      0x08c379a000000000000000000000000000000000000000000000000000000000\n      dup2\n      mstore\n      0x04\n      add\n      tag_202\n      swap1\n      tag_191\n      jump\t// in\n    tag_202:\n      mload(0x40)\n      dup1\n      swap2\n      sub\n      swap1\n      revert\n    tag_201:\n        /* \"contracts/lib/eai/EAI.sol\":990:991  0 */\n      0x00\n        /* \"contracts/lib/eai/EAI.sol\":7708:7726  _endHr >= MIN_HOUR */\n      0xffffffff\n      and\n        /* \"contracts/lib/eai/EAI.sol\":7708:7714  _endHr */\n      dup2\n        /* \"contracts/lib/eai/EAI.sol\":7708:7726  _endHr >= MIN_HOUR */\n      0xffffffff\n      and\n      lt\n      iszero\n        /* \"contracts/lib/eai/EAI.sol\":7708:7748  _endHr >= MIN_HOUR && _endHr <= MAX_HOUR */\n      dup1\n      iszero\n      tag_203\n      jumpi\n      pop\n        /* \"contracts/lib/eai/EAI.sol\":1024:1029  86399 */\n      0x01517f\n        /* \"contracts/lib/eai/EAI.sol\":7730:7748  _endHr <= MAX_HOUR */\n      0xffffffff\n      and\n        /* \"contracts/lib/eai/EAI.sol\":7730:7736  _endHr */\n      dup2\n        /* \"contracts/lib/eai/EAI.sol\":7730:7748  _endHr <= MAX_HOUR */\n      0xffffffff\n      and\n      gt\n      iszero\n        /* \"contracts/lib/eai/EAI.sol\":7708:7748  _endHr >= MIN_HOUR && _endHr <= MAX_HOUR */\n    tag_203:\n        /* \"contracts/lib/eai/EAI.sol\":7700:7792  require(_endHr >= MIN_HOUR && _endHr <= MAX_HOUR,  \"The _endDay not represents a valid day\") */\n      tag_204\n      jumpi\n      mload(0x40)\n      0x08c379a000000000000000000000000000000000000000000000000000000000\n      dup2\n      mstore\n      0x04\n      add\n      tag_205\n      swap1\n      tag_195\n      jump\t// in\n    tag_205:\n      mload(0x40)\n      dup1\n      swap2\n      sub\n      swap1\n      revert\n    tag_204:\n        /* \"contracts/lib/eai/EAI.sol\":5899:5925  TimeInterval(_start, _end) */\n      mload(0x40)\n      dup1\n      0x40\n      add\n      0x40\n      mstore\n      dup1\n        /* \"contracts/lib/eai/EAI.sol\":5912:5918  _start */\n      dup7\n        /* \"contracts/lib/eai/EAI.sol\":5899:5925  TimeInterval(_start, _end) */\n      0xffffffff\n      and\n      dup2\n      mstore\n      0x20\n      add\n        /* \"contracts/lib/eai/EAI.sol\":5920:5924  _end */\n      dup6\n        /* \"contracts/lib/eai/EAI.sol\":5899:5925  TimeInterval(_start, _end) */\n      0xffffffff\n      and\n      dup2\n      mstore\n      pop\n        /* \"contracts/lib/eai/EAI.sol\":5892:5925  return TimeInterval(_start, _end) */\n      swap3\n      pop\n        /* \"contracts/lib/eai/EAI.sol\":5722:5933  function createTimeInterval(... */\n      pop\n      pop\n      swap3\n      swap2\n      pop\n      pop\n      jump\t// out\n        /* \"contracts/lib/eai/EAI.sol\":10916:11547  function createMaxNumberOfOperationByTime(... */\n    tag_45:\n        /* \"contracts/lib/eai/EAI.sol\":11041:11074  MaxNumberOfOperationByTime memory */\n      tag_207\n      tag_208\n      jump\t// in\n    tag_207:\n        /* \"contracts/lib/eai/EAI.sol\":11088:11104  uint32 auxByTime */\n      0x00\n        /* \"contracts/lib/eai/EAI.sol\":784:785  4 */\n      0x04\n        /* \"contracts/lib/eai/EAI.sol\":11120:11137  _timeUnit <= WEEK */\n      0xff\n      and\n        /* \"contracts/lib/eai/EAI.sol\":11120:11129  _timeUnit */\n      dup4\n        /* \"contracts/lib/eai/EAI.sol\":11120:11137  _timeUnit <= WEEK */\n      0xff\n      and\n      gt\n        /* \"contracts/lib/eai/EAI.sol\":11117:11453  if(_timeUnit <= WEEK){... */\n      tag_210\n      jumpi\n        /* \"contracts/lib/eai/EAI.sol\":11270:11297  getTimeInSeconds(_timeUnit) */\n      tag_211\n        /* \"contracts/lib/eai/EAI.sol\":11287:11296  _timeUnit */\n      dup4\n        /* \"contracts/lib/eai/EAI.sol\":11270:11286  getTimeInSeconds */\n      tag_212\n        /* \"contracts/lib/eai/EAI.sol\":11270:11297  getTimeInSeconds(_timeUnit) */\n      jump\t// in\n    tag_211:\n        /* \"contracts/lib/eai/EAI.sol\":11259:11297  auxByTime= getTimeInSeconds(_timeUnit) */\n      swap1\n      pop\n        /* \"contracts/lib/eai/EAI.sol\":11117:11453  if(_timeUnit <= WEEK){... */\n      jump(tag_213)\n    tag_210:\n        /* \"contracts/lib/eai/EAI.sol\":11439:11440  1 */\n      0x01\n        /* \"contracts/lib/eai/EAI.sol\":11427:11440  auxByTime = 1 */\n      swap1\n      pop\n        /* \"contracts/lib/eai/EAI.sol\":11117:11453  if(_timeUnit <= WEEK){... */\n    tag_213:\n        /* \"contracts/lib/eai/EAI.sol\":11470:11539  MaxNumberOfOperationByTime(_amount, _timeUnit, auxByTime, _amount, 0) */\n      mload(0x40)\n      dup1\n      0xa0\n      add\n      0x40\n      mstore\n      dup1\n        /* \"contracts/lib/eai/EAI.sol\":11497:11504  _amount */\n      dup6\n        /* \"contracts/lib/eai/EAI.sol\":11470:11539  MaxNumberOfOperationByTime(_amount, _timeUnit, auxByTime, _amount, 0) */\n      0xffffffff\n      and\n      dup2\n      mstore\n      0x20\n      add\n        /* \"contracts/lib/eai/EAI.sol\":11506:11515  _timeUnit */\n      dup5\n        /* \"contracts/lib/eai/EAI.sol\":11470:11539  MaxNumberOfOperationByTime(_amount, _timeUnit, auxByTime, _amount, 0) */\n      0xff\n      and\n      dup2\n      mstore\n      0x20\n      add\n        /* \"contracts/lib/eai/EAI.sol\":11517:11526  auxByTime */\n      dup3\n        /* \"contracts/lib/eai/EAI.sol\":11470:11539  MaxNumberOfOperationByTime(_amount, _timeUnit, auxByTime, _amount, 0) */\n      0xffffffff\n      and\n      dup2\n      mstore\n      0x20\n      add\n        /* \"contracts/lib/eai/EAI.sol\":11528:11535  _amount */\n      dup6\n        /* \"contracts/lib/eai/EAI.sol\":11470:11539  MaxNumberOfOperationByTime(_amount, _timeUnit, auxByTime, _amount, 0) */\n      0xffffffff\n      and\n      dup2\n      mstore\n      0x20\n      add\n        /* \"contracts/lib/eai/EAI.sol\":11537:11538  0 */\n      0x00\n        /* \"contracts/lib/eai/EAI.sol\":11470:11539  MaxNumberOfOperationByTime(_amount, _timeUnit, auxByTime, _amount, 0) */\n      0xffffffff\n      and\n      dup2\n      mstore\n      pop\n        /* \"contracts/lib/eai/EAI.sol\":11463:11539  return MaxNumberOfOperationByTime(_amount, _timeUnit, auxByTime, _amount, 0) */\n      swap2\n      pop\n      pop\n        /* \"contracts/lib/eai/EAI.sol\":10916:11547  function createMaxNumberOfOperationByTime(... */\n      swap3\n      swap2\n      pop\n      pop\n      jump\t// out\n        /* \"contracts/lib/eai/EAI.sol\":15443:15662  function createMessageContent(string memory _xpath, string memory _op, int256 _content ) internal pure returns(MessageContent_Number memory){        ... */\n    tag_46:\n        /* \"contracts/lib/eai/EAI.sol\":15554:15582  MessageContent_Number memory */\n      tag_214\n      tag_215\n      jump\t// in\n    tag_214:\n        /* \"contracts/lib/eai/EAI.sol\":15609:15653  MessageContent_Number(_xpath, _op, _content) */\n      mload(0x40)\n      dup1\n      0x60\n      add\n      0x40\n      mstore\n      dup1\n        /* \"contracts/lib/eai/EAI.sol\":15631:15637  _xpath */\n      dup6\n        /* \"contracts/lib/eai/EAI.sol\":15609:15653  MessageContent_Number(_xpath, _op, _content) */\n      dup2\n      mstore\n      0x20\n      add\n        /* \"contracts/lib/eai/EAI.sol\":15639:15642  _op */\n      dup5\n        /* \"contracts/lib/eai/EAI.sol\":15609:15653  MessageContent_Number(_xpath, _op, _content) */\n      dup2\n      mstore\n      0x20\n      add\n        /* \"contracts/lib/eai/EAI.sol\":15644:15652  _content */\n      dup4\n        /* \"contracts/lib/eai/EAI.sol\":15609:15653  MessageContent_Number(_xpath, _op, _content) */\n      dup2\n      mstore\n      pop\n        /* \"contracts/lib/eai/EAI.sol\":15602:15653  return MessageContent_Number(_xpath, _op, _content) */\n      swap1\n      pop\n        /* \"contracts/lib/eai/EAI.sol\":15443:15662  function createMessageContent(string memory _xpath, string memory _op, int256 _content ) internal pure returns(MessageContent_Number memory){        ... */\n      swap4\n      swap3\n      pop\n      pop\n      pop\n      jump\t// out\n        /* \"contracts/lib/eai/EAI.sol\":17533:18341  function createMessageContent(... */\n    tag_47:\n        /* \"contracts/lib/eai/EAI.sol\":17707:17742  MessageContent_NumberPerTime memory */\n      tag_217\n      tag_218\n      jump\t// in\n    tag_217:\n        /* \"contracts/lib/eai/EAI.sol\":17756:17772  uint32 auxByTime */\n      0x00\n        /* \"contracts/lib/eai/EAI.sol\":784:785  4 */\n      0x04\n        /* \"contracts/lib/eai/EAI.sol\":17788:17805  _timeUnit <= WEEK */\n      0xff\n      and\n        /* \"contracts/lib/eai/EAI.sol\":17788:17797  _timeUnit */\n      dup4\n        /* \"contracts/lib/eai/EAI.sol\":17788:17805  _timeUnit <= WEEK */\n      0xff\n      and\n      gt\n        /* \"contracts/lib/eai/EAI.sol\":17785:18121  if(_timeUnit <= WEEK){... */\n      tag_220\n      jumpi\n        /* \"contracts/lib/eai/EAI.sol\":17938:17965  getTimeInSeconds(_timeUnit) */\n      tag_221\n        /* \"contracts/lib/eai/EAI.sol\":17955:17964  _timeUnit */\n      dup4\n        /* \"contracts/lib/eai/EAI.sol\":17938:17954  getTimeInSeconds */\n      tag_212\n        /* \"contracts/lib/eai/EAI.sol\":17938:17965  getTimeInSeconds(_timeUnit) */\n      jump\t// in\n    tag_221:\n        /* \"contracts/lib/eai/EAI.sol\":17927:17965  auxByTime= getTimeInSeconds(_timeUnit) */\n      swap1\n      pop\n        /* \"contracts/lib/eai/EAI.sol\":17785:18121  if(_timeUnit <= WEEK){... */\n      jump(tag_222)\n    tag_220:\n        /* \"contracts/lib/eai/EAI.sol\":18107:18108  1 */\n      0x01\n        /* \"contracts/lib/eai/EAI.sol\":18095:18108  auxByTime = 1 */\n      swap1\n      pop\n        /* \"contracts/lib/eai/EAI.sol\":17785:18121  if(_timeUnit <= WEEK){... */\n    tag_222:\n        /* \"contracts/lib/eai/EAI.sol\":18155:18156  1 */\n      0x01\n        /* \"contracts/lib/eai/EAI.sol\":18142:18145  _op */\n      dup6\n        /* \"contracts/lib/eai/EAI.sol\":18136:18153  bytes(_op).length */\n      mload\n        /* \"contracts/lib/eai/EAI.sol\":18136:18156  bytes(_op).length==1 */\n      sub\n        /* \"contracts/lib/eai/EAI.sol\":18133:18230  if(bytes(_op).length==1){... */\n      tag_223\n      jumpi\n        /* \"contracts/lib/eai/EAI.sol\":18172:18182  _op = \"<=\" */\n      mload(0x40)\n      dup1\n      0x40\n      add\n      0x40\n      mstore\n      dup1\n      0x02\n      dup2\n      mstore\n      0x20\n      add\n      0x3c3d000000000000000000000000000000000000000000000000000000000000\n      dup2\n      mstore\n      pop\n      swap5\n      pop\n        /* \"contracts/lib/eai/EAI.sol\":18216:18217  1 */\n      0x01\n        /* \"contracts/lib/eai/EAI.sol\":18208:18215  _amount */\n      dup5\n        /* \"contracts/lib/eai/EAI.sol\":18208:18217  _amount-1 */\n      tag_224\n      swap2\n      swap1\n      tag_225\n      jump\t// in\n    tag_224:\n        /* \"contracts/lib/eai/EAI.sol\":18197:18218  _amount = (_amount-1) */\n      swap4\n      pop\n        /* \"contracts/lib/eai/EAI.sol\":18133:18230  if(bytes(_op).length==1){... */\n    tag_223:\n        /* \"contracts/lib/eai/EAI.sol\":18249:18333  MessageContent_NumberPerTime(_xpath, _op, _amount, _timeUnit, auxByTime, _amount, 0) */\n      mload(0x40)\n      dup1\n      0xe0\n      add\n      0x40\n      mstore\n      dup1\n        /* \"contracts/lib/eai/EAI.sol\":18278:18284  _xpath */\n      dup8\n        /* \"contracts/lib/eai/EAI.sol\":18249:18333  MessageContent_NumberPerTime(_xpath, _op, _amount, _timeUnit, auxByTime, _amount, 0) */\n      dup2\n      mstore\n      0x20\n      add\n        /* \"contracts/lib/eai/EAI.sol\":18286:18289  _op */\n      dup7\n        /* \"contracts/lib/eai/EAI.sol\":18249:18333  MessageContent_NumberPerTime(_xpath, _op, _amount, _timeUnit, auxByTime, _amount, 0) */\n      dup2\n      mstore\n      0x20\n      add\n        /* \"contracts/lib/eai/EAI.sol\":18291:18298  _amount */\n      dup6\n        /* \"contracts/lib/eai/EAI.sol\":18249:18333  MessageContent_NumberPerTime(_xpath, _op, _amount, _timeUnit, auxByTime, _amount, 0) */\n      dup2\n      mstore\n      0x20\n      add\n        /* \"contracts/lib/eai/EAI.sol\":18300:18309  _timeUnit */\n      dup5\n        /* \"contracts/lib/eai/EAI.sol\":18249:18333  MessageContent_NumberPerTime(_xpath, _op, _amount, _timeUnit, auxByTime, _amount, 0) */\n      0xff\n      and\n      dup2\n      mstore\n      0x20\n      add\n        /* \"contracts/lib/eai/EAI.sol\":18311:18320  auxByTime */\n      dup3\n        /* \"contracts/lib/eai/EAI.sol\":18249:18333  MessageContent_NumberPerTime(_xpath, _op, _amount, _timeUnit, auxByTime, _amount, 0) */\n      0xffffffff\n      and\n      dup2\n      mstore\n      0x20\n      add\n        /* \"contracts/lib/eai/EAI.sol\":18322:18329  _amount */\n      dup6\n        /* \"contracts/lib/eai/EAI.sol\":18249:18333  MessageContent_NumberPerTime(_xpath, _op, _amount, _timeUnit, auxByTime, _amount, 0) */\n      dup2\n      mstore\n      0x20\n      add\n        /* \"contracts/lib/eai/EAI.sol\":18331:18332  0 */\n      0x00\n        /* \"contracts/lib/eai/EAI.sol\":18249:18333  MessageContent_NumberPerTime(_xpath, _op, _amount, _timeUnit, auxByTime, _amount, 0) */\n      0xffffffff\n      and\n      dup2\n      mstore\n      pop\n        /* \"contracts/lib/eai/EAI.sol\":18242:18333  return MessageContent_NumberPerTime(_xpath, _op, _amount, _timeUnit, auxByTime, _amount, 0) */\n      swap2\n      pop\n      pop\n        /* \"contracts/lib/eai/EAI.sol\":17533:18341  function createMessageContent(... */\n      swap5\n      swap4\n      pop\n      pop\n      pop\n      pop\n      jump\t// out\n        /* \"contracts/lib/eai/EAI.sol\":12322:12488  function decreaseOneOperation_ByTime(MaxNumberOfOperationByTime storage _maxNumberOfOperationByTime) internal  {... */\n    tag_54:\n        /* \"contracts/lib/eai/EAI.sol\":12479:12480  1 */\n      0x01\n        /* \"contracts/lib/eai/EAI.sol\":12444:12471  _maxNumberOfOperationByTime */\n      dup2\n        /* \"contracts/lib/eai/EAI.sol\":12444:12476  _maxNumberOfOperationByTime.rest */\n      0x00\n      add\n      0x09\n        /* \"contracts/lib/eai/EAI.sol\":12444:12480  _maxNumberOfOperationByTime.rest -=1 */\n      dup3\n      dup3\n      dup3\n      swap1\n      sload\n      swap1\n      0x0100\n      exp\n      swap1\n      div\n      0xffffffff\n      and\n      tag_227\n      swap2\n      swap1\n      tag_228\n      jump\t// in\n    tag_227:\n      swap3\n      pop\n      0x0100\n      exp\n      dup2\n      sload\n      dup2\n      0xffffffff\n      mul\n      not\n      and\n      swap1\n      dup4\n      0xffffffff\n      and\n      mul\n      or\n      swap1\n      sstore\n      pop\n        /* \"contracts/lib/eai/EAI.sol\":12322:12488  function decreaseOneOperation_ByTime(MaxNumberOfOperationByTime storage _maxNumberOfOperationByTime) internal  {... */\n      pop\n      jump\t// out\n        /* \"contracts/study-case-contracts/001-delivery-hiring/DeliveryHiring_R.sol\":5083:5253  function updateMapParty(address _walletAddress, EAI.Party storage _party)internal returns(bool){       ... */\n    tag_68:\n        /* \"contracts/study-case-contracts/001-delivery-hiring/DeliveryHiring_R.sol\":5173:5177  bool */\n      0x00\n        /* \"contracts/study-case-contracts/001-delivery-hiring/DeliveryHiring_R.sol\":5223:5229  _party */\n      dup2\n        /* \"contracts/study-case-contracts/001-delivery-hiring/DeliveryHiring_R.sol\":5196:5204  mapParty */\n      0x05\n        /* \"contracts/study-case-contracts/001-delivery-hiring/DeliveryHiring_R.sol\":5196:5220  mapParty[_walletAddress] */\n      0x00\n        /* \"contracts/study-case-contracts/001-delivery-hiring/DeliveryHiring_R.sol\":5205:5219  _walletAddress */\n      dup6\n        /* \"contracts/study-case-contracts/001-delivery-hiring/DeliveryHiring_R.sol\":5196:5220  mapParty[_walletAddress] */\n      0xffffffffffffffffffffffffffffffffffffffff\n      and\n      0xffffffffffffffffffffffffffffffffffffffff\n      and\n      dup2\n      mstore\n      0x20\n      add\n      swap1\n      dup2\n      mstore\n      0x20\n      add\n      0x00\n      keccak256\n        /* \"contracts/study-case-contracts/001-delivery-hiring/DeliveryHiring_R.sol\":5196:5229  mapParty[_walletAddress] = _party */\n      0x00\n      dup3\n      add\n      dup2\n      0x00\n      add\n      swap1\n      dup1\n      sload\n      tag_230\n      swap1\n      tag_116\n      jump\t// in\n    tag_230:\n      tag_231\n      swap3\n      swap2\n      swap1\n      tag_232\n      jump\t// in\n    tag_231:\n      pop\n      0x01\n      dup3\n      add\n      0x00\n      swap1\n      sload\n      swap1\n      0x0100\n      exp\n      swap1\n      div\n      0xffffffffffffffffffffffffffffffffffffffff\n      and\n      dup2\n      0x01\n      add\n      exp(0x0100, 0x00)\n      dup2\n      sload\n      dup2\n      0xffffffffffffffffffffffffffffffffffffffff\n      mul\n      not\n      and\n      swap1\n      dup4\n      0xffffffffffffffffffffffffffffffffffffffff\n      and\n      mul\n      or\n      swap1\n      sstore\n      pop\n      0x01\n      dup3\n      add\n      0x14\n      swap1\n      sload\n      swap1\n      0x0100\n      exp\n      swap1\n      div\n      0xff\n      and\n      dup2\n      0x01\n      add\n      exp(0x0100, 0x14)\n      dup2\n      sload\n      dup2\n      0xff\n      mul\n      not\n      and\n      swap1\n      dup4\n      iszero\n      iszero\n      mul\n      or\n      swap1\n      sstore\n      pop\n      swap1\n      pop\n      pop\n        /* \"contracts/study-case-contracts/001-delivery-hiring/DeliveryHiring_R.sol\":5241:5245  true */\n      0x01\n        /* \"contracts/study-case-contracts/001-delivery-hiring/DeliveryHiring_R.sol\":5234:5245  return true */\n      swap1\n      pop\n        /* \"contracts/study-case-contracts/001-delivery-hiring/DeliveryHiring_R.sol\":5083:5253  function updateMapParty(address _walletAddress, EAI.Party storage _party)internal returns(bool){       ... */\n      swap3\n      swap2\n      pop\n      pop\n      jump\t// out\n        /* \"contracts/lib/eai/EAI.sol\":4231:4788  function isIntoWeekDaysInterval(       ... */\n    tag_95:\n        /* \"contracts/lib/eai/EAI.sol\":4380:4384  bool */\n      0x00\n        /* \"contracts/lib/eai/EAI.sol\":4428:4439  _wdInterval */\n      dup3\n        /* \"contracts/lib/eai/EAI.sol\":4428:4443  _wdInterval.end */\n      0x20\n      add\n      mload\n        /* \"contracts/lib/eai/EAI.sol\":4408:4443  _wdInterval.start < _wdInterval.end */\n      0xff\n      and\n        /* \"contracts/lib/eai/EAI.sol\":4408:4419  _wdInterval */\n      dup4\n        /* \"contracts/lib/eai/EAI.sol\":4408:4425  _wdInterval.start */\n      0x00\n      add\n      mload\n        /* \"contracts/lib/eai/EAI.sol\":4408:4443  _wdInterval.start < _wdInterval.end */\n      0xff\n      and\n      lt\n        /* \"contracts/lib/eai/EAI.sol\":4405:4752  if(_wdInterval.start < _wdInterval.end ){... */\n      iszero\n      tag_234\n      jumpi\n        /* \"contracts/lib/eai/EAI.sol\":4485:4496  _wdInterval */\n      dup3\n        /* \"contracts/lib/eai/EAI.sol\":4485:4502  _wdInterval.start */\n      0x00\n      add\n      mload\n        /* \"contracts/lib/eai/EAI.sol\":4467:4502  _weekDayAccess >= _wdInterval.start */\n      0xff\n      and\n        /* \"contracts/lib/eai/EAI.sol\":4467:4481  _weekDayAccess */\n      dup3\n        /* \"contracts/lib/eai/EAI.sol\":4467:4502  _weekDayAccess >= _wdInterval.start */\n      0xff\n      and\n      lt\n      iszero\n        /* \"contracts/lib/eai/EAI.sol\":4467:4539  _weekDayAccess >= _wdInterval.start &&  _weekDayAccess<= _wdInterval.end */\n      dup1\n      iszero\n      tag_235\n      jumpi\n      pop\n        /* \"contracts/lib/eai/EAI.sol\":4524:4535  _wdInterval */\n      dup3\n        /* \"contracts/lib/eai/EAI.sol\":4524:4539  _wdInterval.end */\n      0x20\n      add\n      mload\n        /* \"contracts/lib/eai/EAI.sol\":4507:4539  _weekDayAccess<= _wdInterval.end */\n      0xff\n      and\n        /* \"contracts/lib/eai/EAI.sol\":4507:4521  _weekDayAccess */\n      dup3\n        /* \"contracts/lib/eai/EAI.sol\":4507:4539  _weekDayAccess<= _wdInterval.end */\n      0xff\n      and\n      gt\n      iszero\n        /* \"contracts/lib/eai/EAI.sol\":4467:4539  _weekDayAccess >= _wdInterval.start &&  _weekDayAccess<= _wdInterval.end */\n    tag_235:\n        /* \"contracts/lib/eai/EAI.sol\":4464:4586  if(_weekDayAccess >= _wdInterval.start &&  _weekDayAccess<= _wdInterval.end){... */\n      iszero\n      tag_236\n      jumpi\n        /* \"contracts/lib/eai/EAI.sol\":4566:4570  true */\n      0x01\n        /* \"contracts/lib/eai/EAI.sol\":4559:4570  return true */\n      swap1\n      pop\n      jump(tag_233)\n        /* \"contracts/lib/eai/EAI.sol\":4464:4586  if(_weekDayAccess >= _wdInterval.start &&  _weekDayAccess<= _wdInterval.end){... */\n    tag_236:\n        /* \"contracts/lib/eai/EAI.sol\":4405:4752  if(_wdInterval.start < _wdInterval.end ){... */\n      jump(tag_237)\n    tag_234:\n        /* \"contracts/lib/eai/EAI.sol\":4638:4649  _wdInterval */\n      dup3\n        /* \"contracts/lib/eai/EAI.sol\":4638:4655  _wdInterval.start */\n      0x00\n      add\n      mload\n        /* \"contracts/lib/eai/EAI.sol\":4620:4655  _weekDayAccess >= _wdInterval.start */\n      0xff\n      and\n        /* \"contracts/lib/eai/EAI.sol\":4620:4634  _weekDayAccess */\n      dup3\n        /* \"contracts/lib/eai/EAI.sol\":4620:4655  _weekDayAccess >= _wdInterval.start */\n      0xff\n      and\n      lt\n      iszero\n        /* \"contracts/lib/eai/EAI.sol\":4620:4691  _weekDayAccess >= _wdInterval.start ||  _weekDayAccess<=_wdInterval.end */\n      dup1\n      tag_238\n      jumpi\n      pop\n        /* \"contracts/lib/eai/EAI.sol\":4676:4687  _wdInterval */\n      dup3\n        /* \"contracts/lib/eai/EAI.sol\":4676:4691  _wdInterval.end */\n      0x20\n      add\n      mload\n        /* \"contracts/lib/eai/EAI.sol\":4660:4691  _weekDayAccess<=_wdInterval.end */\n      0xff\n      and\n        /* \"contracts/lib/eai/EAI.sol\":4660:4674  _weekDayAccess */\n      dup3\n        /* \"contracts/lib/eai/EAI.sol\":4660:4691  _weekDayAccess<=_wdInterval.end */\n      0xff\n      and\n      gt\n      iszero\n        /* \"contracts/lib/eai/EAI.sol\":4620:4691  _weekDayAccess >= _wdInterval.start ||  _weekDayAccess<=_wdInterval.end */\n    tag_238:\n        /* \"contracts/lib/eai/EAI.sol\":4617:4738  if(_weekDayAccess >= _wdInterval.start ||  _weekDayAccess<=_wdInterval.end){... */\n      iszero\n      tag_239\n      jumpi\n        /* \"contracts/lib/eai/EAI.sol\":4718:4722  true */\n      0x01\n        /* \"contracts/lib/eai/EAI.sol\":4711:4722  return true */\n      swap1\n      pop\n      jump(tag_233)\n        /* \"contracts/lib/eai/EAI.sol\":4617:4738  if(_weekDayAccess >= _wdInterval.start ||  _weekDayAccess<=_wdInterval.end){... */\n    tag_239:\n        /* \"contracts/lib/eai/EAI.sol\":4405:4752  if(_wdInterval.start < _wdInterval.end ){... */\n    tag_237:\n        /* \"contracts/lib/eai/EAI.sol\":4776:4781  false */\n      0x00\n        /* \"contracts/lib/eai/EAI.sol\":4769:4781  return false */\n      swap1\n      pop\n        /* \"contracts/lib/eai/EAI.sol\":4231:4788  function isIntoWeekDaysInterval(       ... */\n    tag_233:\n      swap3\n      swap2\n      pop\n      pop\n      jump\t// out\n        /* \"contracts/lib/eai/EAI.sol\":6952:7434  function isIntoTimeInterval(... */\n    tag_101:\n        /* \"contracts/lib/eai/EAI.sol\":7084:7088  bool */\n      0x00\n        /* \"contracts/lib/eai/EAI.sol\":7124:7127  _ti */\n      dup3\n        /* \"contracts/lib/eai/EAI.sol\":7124:7131  _ti.end */\n      0x20\n      add\n      mload\n        /* \"contracts/lib/eai/EAI.sol\":7112:7131  _ti.start < _ti.end */\n      0xffffffff\n      and\n        /* \"contracts/lib/eai/EAI.sol\":7112:7115  _ti */\n      dup4\n        /* \"contracts/lib/eai/EAI.sol\":7112:7121  _ti.start */\n      0x00\n      add\n      mload\n        /* \"contracts/lib/eai/EAI.sol\":7112:7131  _ti.start < _ti.end */\n      0xffffffff\n      and\n      lt\n        /* \"contracts/lib/eai/EAI.sol\":7109:7398  if(_ti.start < _ti.end ){... */\n      iszero\n      tag_241\n      jumpi\n        /* \"contracts/lib/eai/EAI.sol\":7170:7173  _ti */\n      dup3\n        /* \"contracts/lib/eai/EAI.sol\":7170:7179  _ti.start */\n      0x00\n      add\n      mload\n        /* \"contracts/lib/eai/EAI.sol\":7155:7179  _timeAccess >= _ti.start */\n      0xffffffff\n      and\n        /* \"contracts/lib/eai/EAI.sol\":7155:7166  _timeAccess */\n      dup3\n        /* \"contracts/lib/eai/EAI.sol\":7155:7179  _timeAccess >= _ti.start */\n      0xffffffff\n      and\n      lt\n      iszero\n        /* \"contracts/lib/eai/EAI.sol\":7155:7206  _timeAccess >= _ti.start &&  _timeAccess <= _ti.end */\n      dup1\n      iszero\n      tag_242\n      jumpi\n      pop\n        /* \"contracts/lib/eai/EAI.sol\":7199:7202  _ti */\n      dup3\n        /* \"contracts/lib/eai/EAI.sol\":7199:7206  _ti.end */\n      0x20\n      add\n      mload\n        /* \"contracts/lib/eai/EAI.sol\":7184:7206  _timeAccess <= _ti.end */\n      0xffffffff\n      and\n        /* \"contracts/lib/eai/EAI.sol\":7184:7195  _timeAccess */\n      dup3\n        /* \"contracts/lib/eai/EAI.sol\":7184:7206  _timeAccess <= _ti.end */\n      0xffffffff\n      and\n      gt\n      iszero\n        /* \"contracts/lib/eai/EAI.sol\":7155:7206  _timeAccess >= _ti.start &&  _timeAccess <= _ti.end */\n    tag_242:\n        /* \"contracts/lib/eai/EAI.sol\":7152:7253  if(_timeAccess >= _ti.start &&  _timeAccess <= _ti.end){... */\n      iszero\n      tag_243\n      jumpi\n        /* \"contracts/lib/eai/EAI.sol\":7233:7237  true */\n      0x01\n        /* \"contracts/lib/eai/EAI.sol\":7226:7237  return true */\n      swap1\n      pop\n      jump(tag_240)\n        /* \"contracts/lib/eai/EAI.sol\":7152:7253  if(_timeAccess >= _ti.start &&  _timeAccess <= _ti.end){... */\n    tag_243:\n        /* \"contracts/lib/eai/EAI.sol\":7109:7398  if(_ti.start < _ti.end ){... */\n      jump(tag_244)\n    tag_241:\n        /* \"contracts/lib/eai/EAI.sol\":7302:7305  _ti */\n      dup3\n        /* \"contracts/lib/eai/EAI.sol\":7302:7311  _ti.start */\n      0x00\n      add\n      mload\n        /* \"contracts/lib/eai/EAI.sol\":7287:7311  _timeAccess >= _ti.start */\n      0xffffffff\n      and\n        /* \"contracts/lib/eai/EAI.sol\":7287:7298  _timeAccess */\n      dup3\n        /* \"contracts/lib/eai/EAI.sol\":7287:7311  _timeAccess >= _ti.start */\n      0xffffffff\n      and\n      lt\n      iszero\n        /* \"contracts/lib/eai/EAI.sol\":7287:7337  _timeAccess >= _ti.start ||  _timeAccess <=_ti.end */\n      dup1\n      tag_245\n      jumpi\n      pop\n        /* \"contracts/lib/eai/EAI.sol\":7330:7333  _ti */\n      dup3\n        /* \"contracts/lib/eai/EAI.sol\":7330:7337  _ti.end */\n      0x20\n      add\n      mload\n        /* \"contracts/lib/eai/EAI.sol\":7316:7337  _timeAccess <=_ti.end */\n      0xffffffff\n      and\n        /* \"contracts/lib/eai/EAI.sol\":7316:7327  _timeAccess */\n      dup3\n        /* \"contracts/lib/eai/EAI.sol\":7316:7337  _timeAccess <=_ti.end */\n      0xffffffff\n      and\n      gt\n      iszero\n        /* \"contracts/lib/eai/EAI.sol\":7287:7337  _timeAccess >= _ti.start ||  _timeAccess <=_ti.end */\n    tag_245:\n        /* \"contracts/lib/eai/EAI.sol\":7284:7384  if(_timeAccess >= _ti.start ||  _timeAccess <=_ti.end){... */\n      iszero\n      tag_246\n      jumpi\n        /* \"contracts/lib/eai/EAI.sol\":7364:7368  true */\n      0x01\n        /* \"contracts/lib/eai/EAI.sol\":7357:7368  return true */\n      swap1\n      pop\n      jump(tag_240)\n        /* \"contracts/lib/eai/EAI.sol\":7284:7384  if(_timeAccess >= _ti.start ||  _timeAccess <=_ti.end){... */\n    tag_246:\n        /* \"contracts/lib/eai/EAI.sol\":7109:7398  if(_ti.start < _ti.end ){... */\n    tag_244:\n        /* \"contracts/lib/eai/EAI.sol\":7422:7427  false */\n      0x00\n        /* \"contracts/lib/eai/EAI.sol\":7415:7427  return false */\n      swap1\n      pop\n        /* \"contracts/lib/eai/EAI.sol\":6952:7434  function isIntoTimeInterval(... */\n    tag_240:\n      swap3\n      swap2\n      pop\n      pop\n      jump\t// out\n        /* \"contracts/lib/eai/EAI.sol\":11566:12140  function hasAvailableOperations_ByTime(... */\n    tag_107:\n        /* \"contracts/lib/eai/EAI.sol\":11739:11743  bool */\n      0x00\n        /* \"contracts/lib/eai/EAI.sol\":11768:11892  isAccessDatetimeOutOfOldInterval(_maxNumberOfOperationByTime.timeUnit, _maxNumberOfOperationByTime.endTime, _accessDateTime) */\n      tag_248\n        /* \"contracts/lib/eai/EAI.sol\":11801:11828  _maxNumberOfOperationByTime */\n      dup4\n        /* \"contracts/lib/eai/EAI.sol\":11801:11837  _maxNumberOfOperationByTime.timeUnit */\n      0x00\n      add\n      0x04\n      swap1\n      sload\n      swap1\n      0x0100\n      exp\n      swap1\n      div\n      0xff\n      and\n        /* \"contracts/lib/eai/EAI.sol\":11839:11866  _maxNumberOfOperationByTime */\n      dup5\n        /* \"contracts/lib/eai/EAI.sol\":11839:11874  _maxNumberOfOperationByTime.endTime */\n      0x00\n      add\n      0x0d\n      swap1\n      sload\n      swap1\n      0x0100\n      exp\n      swap1\n      div\n      0xffffffff\n      and\n        /* \"contracts/lib/eai/EAI.sol\":11876:11891  _accessDateTime */\n      dup5\n        /* \"contracts/lib/eai/EAI.sol\":11768:11800  isAccessDatetimeOutOfOldInterval */\n      tag_249\n        /* \"contracts/lib/eai/EAI.sol\":11768:11892  isAccessDatetimeOutOfOldInterval(_maxNumberOfOperationByTime.timeUnit, _maxNumberOfOperationByTime.endTime, _accessDateTime) */\n      jump\t// in\n    tag_248:\n        /* \"contracts/lib/eai/EAI.sol\":11765:12002  if(isAccessDatetimeOutOfOldInterval(_maxNumberOfOperationByTime.timeUnit, _maxNumberOfOperationByTime.endTime, _accessDateTime)){... */\n      iszero\n      tag_250\n      jumpi\n        /* \"contracts/lib/eai/EAI.sol\":11912:11990  setNewEndTimeAndRestOfOperations(_maxNumberOfOperationByTime, _accessDateTime) */\n      tag_251\n        /* \"contracts/lib/eai/EAI.sol\":11945:11972  _maxNumberOfOperationByTime */\n      dup4\n        /* \"contracts/lib/eai/EAI.sol\":11974:11989  _accessDateTime */\n      dup4\n        /* \"contracts/lib/eai/EAI.sol\":11912:11944  setNewEndTimeAndRestOfOperations */\n      tag_252\n        /* \"contracts/lib/eai/EAI.sol\":11912:11990  setNewEndTimeAndRestOfOperations(_maxNumberOfOperationByTime, _accessDateTime) */\n      jump\t// in\n    tag_251:\n        /* \"contracts/lib/eai/EAI.sol\":11765:12002  if(isAccessDatetimeOutOfOldInterval(_maxNumberOfOperationByTime.timeUnit, _maxNumberOfOperationByTime.endTime, _accessDateTime)){... */\n    tag_250:\n        /* \"contracts/lib/eai/EAI.sol\":12060:12061  0 */\n      0x00\n        /* \"contracts/lib/eai/EAI.sol\":12025:12052  _maxNumberOfOperationByTime */\n      dup4\n        /* \"contracts/lib/eai/EAI.sol\":12025:12057  _maxNumberOfOperationByTime.rest */\n      0x00\n      add\n      0x09\n      swap1\n      sload\n      swap1\n      0x0100\n      exp\n      swap1\n      div\n      0xffffffff\n      and\n        /* \"contracts/lib/eai/EAI.sol\":12025:12061  _maxNumberOfOperationByTime.rest > 0 */\n      0xffffffff\n      and\n      gt\n        /* \"contracts/lib/eai/EAI.sol\":12022:12110  if(_maxNumberOfOperationByTime.rest > 0){          ... */\n      iszero\n      tag_253\n      jumpi\n        /* \"contracts/lib/eai/EAI.sol\":12094:12098  true */\n      0x01\n        /* \"contracts/lib/eai/EAI.sol\":12087:12098  return true */\n      swap1\n      pop\n      jump(tag_247)\n        /* \"contracts/lib/eai/EAI.sol\":12022:12110  if(_maxNumberOfOperationByTime.rest > 0){          ... */\n    tag_253:\n        /* \"contracts/lib/eai/EAI.sol\":12127:12132  false */\n      0x00\n        /* \"contracts/lib/eai/EAI.sol\":12120:12132  return false */\n      swap1\n      pop\n        /* \"contracts/lib/eai/EAI.sol\":11566:12140  function hasAvailableOperations_ByTime(... */\n    tag_247:\n      swap3\n      swap2\n      pop\n      pop\n      jump\t// out\n        /* \"contracts/lib/eai/EAI.sol\":15670:16941  function evaluateNumberContent(MessageContent_Number memory msgContent, int256 _content) internal pure returns(bool){... */\n    tag_126:\n        /* \"contracts/lib/eai/EAI.sol\":15781:15785  bool */\n      0x00\n        /* \"contracts/lib/eai/EAI.sol\":15797:15815  bytes memory chars */\n      dup1\n        /* \"contracts/lib/eai/EAI.sol\":15824:15834  msgContent */\n      dup4\n        /* \"contracts/lib/eai/EAI.sol\":15824:15837  msgContent.op */\n      0x20\n      add\n      mload\n        /* \"contracts/lib/eai/EAI.sol\":15797:15838  bytes memory chars = bytes(msgContent.op) */\n      swap1\n      pop\n        /* \"contracts/lib/eai/EAI.sol\":15868:15872  0x21 */\n      0x21\n        /* \"contracts/lib/eai/EAI.sol\":15855:15872  chars[0] ==  0x21 */\n      0xf8\n      shl\n        /* \"contracts/lib/eai/EAI.sol\":15855:15860  chars */\n      dup2\n        /* \"contracts/lib/eai/EAI.sol\":15861:15862  0 */\n      0x00\n        /* \"contracts/lib/eai/EAI.sol\":15855:15863  chars[0] */\n      dup2\n      mload\n      dup2\n      lt\n      tag_255\n      jumpi\n      tag_256\n      tag_52\n      jump\t// in\n    tag_256:\n    tag_255:\n      0x20\n      add\n      add\n      mload\n      0xf8\n      shr\n      0xf8\n      shl\n        /* \"contracts/lib/eai/EAI.sol\":15855:15872  chars[0] ==  0x21 */\n      not(0xffffffffffffffffffffffffffffffffffffffffffffffffffffffffffffff)\n      and\n      sub\n        /* \"contracts/lib/eai/EAI.sol\":15851:16737  if( chars[0] ==  0x21 ){// if chars[0] is '!'... */\n      tag_257\n      jumpi\n        /* \"contracts/lib/eai/EAI.sol\":15929:15939  msgContent */\n      dup4\n        /* \"contracts/lib/eai/EAI.sol\":15929:15947  msgContent.content */\n      0x40\n      add\n      mload\n        /* \"contracts/lib/eai/EAI.sol\":15917:15925  _content */\n      dup4\n        /* \"contracts/lib/eai/EAI.sol\":15917:15947  _content != msgContent.content */\n      eq\n      iszero\n        /* \"contracts/lib/eai/EAI.sol\":15910:15947  return _content != msgContent.content */\n      swap2\n      pop\n      pop\n      jump(tag_254)\n        /* \"contracts/lib/eai/EAI.sol\":15851:16737  if( chars[0] ==  0x21 ){// if chars[0] is '!'... */\n    tag_257:\n        /* \"contracts/lib/eai/EAI.sol\":15989:15993  0x3D */\n      0x3d\n        /* \"contracts/lib/eai/EAI.sol\":15977:15993  chars[0] == 0x3D */\n      0xf8\n      shl\n        /* \"contracts/lib/eai/EAI.sol\":15977:15982  chars */\n      dup2\n        /* \"contracts/lib/eai/EAI.sol\":15983:15984  0 */\n      0x00\n        /* \"contracts/lib/eai/EAI.sol\":15977:15985  chars[0] */\n      dup2\n      mload\n      dup2\n      lt\n      tag_259\n      jumpi\n      tag_260\n      tag_52\n      jump\t// in\n    tag_260:\n    tag_259:\n      0x20\n      add\n      add\n      mload\n      0xf8\n      shr\n      0xf8\n      shl\n        /* \"contracts/lib/eai/EAI.sol\":15977:15993  chars[0] == 0x3D */\n      not(0xffffffffffffffffffffffffffffffffffffffffffffffffffffffffffffff)\n      and\n      sub\n        /* \"contracts/lib/eai/EAI.sol\":15973:16737  if( chars[0] == 0x3D ){ // if chars[0] is '='... */\n      tag_261\n      jumpi\n        /* \"contracts/lib/eai/EAI.sol\":16051:16061  msgContent */\n      dup4\n        /* \"contracts/lib/eai/EAI.sol\":16051:16069  msgContent.content */\n      0x40\n      add\n      mload\n        /* \"contracts/lib/eai/EAI.sol\":16039:16047  _content */\n      dup4\n        /* \"contracts/lib/eai/EAI.sol\":16039:16069  _content == msgContent.content */\n      eq\n        /* \"contracts/lib/eai/EAI.sol\":16032:16069  return _content == msgContent.content */\n      swap2\n      pop\n      pop\n      jump(tag_254)\n        /* \"contracts/lib/eai/EAI.sol\":15973:16737  if( chars[0] == 0x3D ){ // if chars[0] is '='... */\n    tag_261:\n        /* \"contracts/lib/eai/EAI.sol\":16112:16116  0x3C */\n      0x3c\n        /* \"contracts/lib/eai/EAI.sol\":16100:16116  chars[0] == 0x3C */\n      0xf8\n      shl\n        /* \"contracts/lib/eai/EAI.sol\":16100:16105  chars */\n      dup2\n        /* \"contracts/lib/eai/EAI.sol\":16106:16107  0 */\n      0x00\n        /* \"contracts/lib/eai/EAI.sol\":16100:16108  chars[0] */\n      dup2\n      mload\n      dup2\n      lt\n      tag_263\n      jumpi\n      tag_264\n      tag_52\n      jump\t// in\n    tag_264:\n    tag_263:\n      0x20\n      add\n      add\n      mload\n      0xf8\n      shr\n      0xf8\n      shl\n        /* \"contracts/lib/eai/EAI.sol\":16100:16116  chars[0] == 0x3C */\n      not(0xffffffffffffffffffffffffffffffffffffffffffffffffffffffffffffff)\n      and\n      sub\n        /* \"contracts/lib/eai/EAI.sol\":16096:16737  if( chars[0] == 0x3C ){// if chars[0] is '<'... */\n      tag_265\n      jumpi\n        /* \"contracts/lib/eai/EAI.sol\":16173:16174  2 */\n      0x02\n        /* \"contracts/lib/eai/EAI.sol\":16157:16162  chars */\n      dup2\n        /* \"contracts/lib/eai/EAI.sol\":16157:16169  chars.length */\n      mload\n        /* \"contracts/lib/eai/EAI.sol\":16157:16174  chars.length == 2 */\n      sub\n        /* \"contracts/lib/eai/EAI.sol\":16154:16372  if(chars.length == 2){// if chars is '<='                ... */\n      tag_266\n      jumpi\n        /* \"contracts/lib/eai/EAI.sol\":16248:16258  msgContent */\n      dup4\n        /* \"contracts/lib/eai/EAI.sol\":16248:16266  msgContent.content */\n      0x40\n      add\n      mload\n        /* \"contracts/lib/eai/EAI.sol\":16236:16244  _content */\n      dup4\n        /* \"contracts/lib/eai/EAI.sol\":16236:16266  _content <= msgContent.content */\n      sgt\n      iszero\n        /* \"contracts/lib/eai/EAI.sol\":16229:16266  return _content <= msgContent.content */\n      swap2\n      pop\n      pop\n      jump(tag_254)\n        /* \"contracts/lib/eai/EAI.sol\":16154:16372  if(chars.length == 2){// if chars is '<='                ... */\n    tag_266:\n        /* \"contracts/lib/eai/EAI.sol\":16338:16348  msgContent */\n      dup4\n        /* \"contracts/lib/eai/EAI.sol\":16338:16356  msgContent.content */\n      0x40\n      add\n      mload\n        /* \"contracts/lib/eai/EAI.sol\":16327:16335  _content */\n      dup4\n        /* \"contracts/lib/eai/EAI.sol\":16327:16356  _content < msgContent.content */\n      slt\n        /* \"contracts/lib/eai/EAI.sol\":16320:16356  return _content < msgContent.content */\n      swap2\n      pop\n      pop\n      jump(tag_254)\n        /* \"contracts/lib/eai/EAI.sol\":16096:16737  if( chars[0] == 0x3C ){// if chars[0] is '<'... */\n    tag_265:\n        /* \"contracts/lib/eai/EAI.sol\":16408:16412  0x3E */\n      0x3e\n        /* \"contracts/lib/eai/EAI.sol\":16396:16412  chars[0] == 0x3E */\n      0xf8\n      shl\n        /* \"contracts/lib/eai/EAI.sol\":16396:16401  chars */\n      dup2\n        /* \"contracts/lib/eai/EAI.sol\":16402:16403  0 */\n      0x00\n        /* \"contracts/lib/eai/EAI.sol\":16396:16404  chars[0] */\n      dup2\n      mload\n      dup2\n      lt\n      tag_269\n      jumpi\n      tag_270\n      tag_52\n      jump\t// in\n    tag_270:\n    tag_269:\n      0x20\n      add\n      add\n      mload\n      0xf8\n      shr\n      0xf8\n      shl\n        /* \"contracts/lib/eai/EAI.sol\":16396:16412  chars[0] == 0x3E */\n      not(0xffffffffffffffffffffffffffffffffffffffffffffffffffffffffffffff)\n      and\n      sub\n        /* \"contracts/lib/eai/EAI.sol\":16392:16737  if( chars[0] == 0x3E ){ // if( chars[0] == 0x3E ){// if chars[0] is '>'... */\n      tag_271\n      jumpi\n        /* \"contracts/lib/eai/EAI.sol\":16497:16498  2 */\n      0x02\n        /* \"contracts/lib/eai/EAI.sol\":16481:16486  chars */\n      dup2\n        /* \"contracts/lib/eai/EAI.sol\":16481:16493  chars.length */\n      mload\n        /* \"contracts/lib/eai/EAI.sol\":16481:16498  chars.length == 2 */\n      sub\n        /* \"contracts/lib/eai/EAI.sol\":16478:16726  if(chars.length == 2){// if chars is '>='              ... */\n      tag_272\n      jumpi\n        /* \"contracts/lib/eai/EAI.sol\":16570:16580  msgContent */\n      dup4\n        /* \"contracts/lib/eai/EAI.sol\":16570:16588  msgContent.content */\n      0x40\n      add\n      mload\n        /* \"contracts/lib/eai/EAI.sol\":16558:16566  _content */\n      dup4\n        /* \"contracts/lib/eai/EAI.sol\":16558:16588  _content >= msgContent.content */\n      slt\n      iszero\n        /* \"contracts/lib/eai/EAI.sol\":16551:16588  return _content >= msgContent.content */\n      swap2\n      pop\n      pop\n      jump(tag_254)\n        /* \"contracts/lib/eai/EAI.sol\":16478:16726  if(chars.length == 2){// if chars is '>='              ... */\n    tag_272:\n        /* \"contracts/lib/eai/EAI.sol\":16676:16686  msgContent */\n      dup4\n        /* \"contracts/lib/eai/EAI.sol\":16676:16694  msgContent.content */\n      0x40\n      add\n      mload\n        /* \"contracts/lib/eai/EAI.sol\":16665:16673  _content */\n      dup4\n        /* \"contracts/lib/eai/EAI.sol\":16665:16694  _content > msgContent.content */\n      sgt\n        /* \"contracts/lib/eai/EAI.sol\":16658:16694  return _content > msgContent.content */\n      swap2\n      pop\n      pop\n      jump(tag_254)\n        /* \"contracts/lib/eai/EAI.sol\":16392:16737  if( chars[0] == 0x3E ){ // if( chars[0] == 0x3E ){// if chars[0] is '>'... */\n    tag_271:\n        /* \"contracts/lib/eai/EAI.sol\":16784:16789  false */\n      0x00\n        /* \"contracts/lib/eai/EAI.sol\":16776:16824  require(false, \"Comparison symbol is not valid\") */\n      tag_274\n      jumpi\n      mload(0x40)\n      0x08c379a000000000000000000000000000000000000000000000000000000000\n      dup2\n      mstore\n      0x04\n      add\n      tag_275\n      swap1\n      tag_276\n      jump\t// in\n    tag_275:\n      mload(0x40)\n      dup1\n      swap2\n      sub\n      swap1\n      revert\n    tag_274:\n        /* \"contracts/lib/eai/EAI.sol\":16842:16847  false */\n      0x00\n        /* \"contracts/lib/eai/EAI.sol\":16835:16847  return false */\n      swap2\n      pop\n      pop\n        /* \"contracts/lib/eai/EAI.sol\":15670:16941  function evaluateNumberContent(MessageContent_Number memory msgContent, int256 _content) internal pure returns(bool){... */\n    tag_254:\n      swap3\n      swap2\n      pop\n      pop\n      jump\t// out\n        /* \"contracts/lib/eai/EAI.sol\":18423:20518  function evaluateAndDecreaseNumberPerTime(... */\n    tag_151:\n        /* \"contracts/lib/eai/EAI.sol\":18624:18628  bool */\n      0x00\n        /* \"contracts/lib/eai/EAI.sol\":18662:18663  0 */\n      dup1\n        /* \"contracts/lib/eai/EAI.sol\":18653:18661  _content */\n      dup3\n        /* \"contracts/lib/eai/EAI.sol\":18653:18663  _content>0 */\n      gt\n        /* \"contracts/lib/eai/EAI.sol\":18645:18713  require(_content>0, \"The result of the xpath should be more than 0\") */\n      tag_278\n      jumpi\n      mload(0x40)\n      0x08c379a000000000000000000000000000000000000000000000000000000000\n      dup2\n      mstore\n      0x04\n      add\n      tag_279\n      swap1\n      tag_280\n      jump\t// in\n    tag_279:\n      mload(0x40)\n      dup1\n      swap2\n      sub\n      swap1\n      revert\n    tag_278:\n        /* \"contracts/lib/eai/EAI.sol\":18731:18849  isAccessDatetimeOutOfOldInterval(msgContent_NumberPerTime.timeUnit, msgContent_NumberPerTime.endTime, _accessDateTime) */\n      tag_281\n        /* \"contracts/lib/eai/EAI.sol\":18764:18788  msgContent_NumberPerTime */\n      dup5\n        /* \"contracts/lib/eai/EAI.sol\":18764:18797  msgContent_NumberPerTime.timeUnit */\n      0x03\n      add\n      0x00\n      swap1\n      sload\n      swap1\n      0x0100\n      exp\n      swap1\n      div\n      0xff\n      and\n        /* \"contracts/lib/eai/EAI.sol\":18799:18823  msgContent_NumberPerTime */\n      dup6\n        /* \"contracts/lib/eai/EAI.sol\":18799:18831  msgContent_NumberPerTime.endTime */\n      0x05\n      add\n      0x00\n      swap1\n      sload\n      swap1\n      0x0100\n      exp\n      swap1\n      div\n      0xffffffff\n      and\n        /* \"contracts/lib/eai/EAI.sol\":18833:18848  _accessDateTime */\n      dup6\n        /* \"contracts/lib/eai/EAI.sol\":18731:18763  isAccessDatetimeOutOfOldInterval */\n      tag_249\n        /* \"contracts/lib/eai/EAI.sol\":18731:18849  isAccessDatetimeOutOfOldInterval(msgContent_NumberPerTime.timeUnit, msgContent_NumberPerTime.endTime, _accessDateTime) */\n      jump\t// in\n    tag_281:\n        /* \"contracts/lib/eai/EAI.sol\":18728:19300  if(isAccessDatetimeOutOfOldInterval(msgContent_NumberPerTime.timeUnit, msgContent_NumberPerTime.endTime, _accessDateTime)){... */\n      iszero\n      tag_282\n      jumpi\n        /* \"contracts/lib/eai/EAI.sol\":18901:18925  msgContent_NumberPerTime */\n      dup4\n        /* \"contracts/lib/eai/EAI.sol\":18901:18932  msgContent_NumberPerTime.amount */\n      0x02\n      add\n      sload\n        /* \"contracts/lib/eai/EAI.sol\":18869:18893  msgContent_NumberPerTime */\n      dup5\n        /* \"contracts/lib/eai/EAI.sol\":18869:18898  msgContent_NumberPerTime.rest */\n      0x04\n      add\n        /* \"contracts/lib/eai/EAI.sol\":18869:18932  msgContent_NumberPerTime.rest = msgContent_NumberPerTime.amount */\n      dup2\n      swap1\n      sstore\n      pop\n        /* \"contracts/lib/eai/EAI.sol\":18986:19284  calcNextEndTime(... */\n      tag_283\n        /* \"contracts/lib/eai/EAI.sol\":19052:19076  msgContent_NumberPerTime */\n      dup5\n        /* \"contracts/lib/eai/EAI.sol\":19052:19083  msgContent_NumberPerTime.byTime */\n      0x03\n      add\n      0x01\n      swap1\n      sload\n      swap1\n      0x0100\n      exp\n      swap1\n      div\n      0xffffffff\n      and\n        /* \"contracts/lib/eai/EAI.sol\":19134:19158  msgContent_NumberPerTime */\n      dup6\n        /* \"contracts/lib/eai/EAI.sol\":19134:19167  msgContent_NumberPerTime.timeUnit */\n      0x03\n      add\n      0x00\n      swap1\n      sload\n      swap1\n      0x0100\n      exp\n      swap1\n      div\n      0xff\n      and\n        /* \"contracts/lib/eai/EAI.sol\":19218:19233  _accessDateTime */\n      dup6\n        /* \"contracts/lib/eai/EAI.sol\":18986:19001  calcNextEndTime */\n      tag_284\n        /* \"contracts/lib/eai/EAI.sol\":18986:19284  calcNextEndTime(... */\n      jump\t// in\n    tag_283:\n        /* \"contracts/lib/eai/EAI.sol\":18951:18975  msgContent_NumberPerTime */\n      dup5\n        /* \"contracts/lib/eai/EAI.sol\":18951:18983  msgContent_NumberPerTime.endTime */\n      0x05\n      add\n      0x00\n        /* \"contracts/lib/eai/EAI.sol\":18951:19284  msgContent_NumberPerTime.endTime = calcNextEndTime(... */\n      0x0100\n      exp\n      dup2\n      sload\n      dup2\n      0xffffffff\n      mul\n      not\n      and\n      swap1\n      dup4\n      0xffffffff\n      and\n      mul\n      or\n      swap1\n      sstore\n      pop\n        /* \"contracts/lib/eai/EAI.sol\":18728:19300  if(isAccessDatetimeOutOfOldInterval(msgContent_NumberPerTime.timeUnit, msgContent_NumberPerTime.endTime, _accessDateTime)){... */\n    tag_282:\n        /* \"contracts/lib/eai/EAI.sol\":19328:19355  string memory revertMessage */\n      0x00\n        /* \"contracts/lib/eai/EAI.sol\":19419:19461  uint2String(msgContent_NumberPerTime.rest) */\n      tag_285\n        /* \"contracts/lib/eai/EAI.sol\":19431:19455  msgContent_NumberPerTime */\n      dup6\n        /* \"contracts/lib/eai/EAI.sol\":19431:19460  msgContent_NumberPerTime.rest */\n      0x04\n      add\n      sload\n        /* \"contracts/lib/eai/EAI.sol\":19419:19430  uint2String */\n      tag_286\n        /* \"contracts/lib/eai/EAI.sol\":19419:19461  uint2String(msgContent_NumberPerTime.rest) */\n      jump\t// in\n    tag_285:\n        /* \"contracts/lib/eai/EAI.sol\":19491:19535  uint2String(msgContent_NumberPerTime.amount) */\n      tag_287\n        /* \"contracts/lib/eai/EAI.sol\":19503:19527  msgContent_NumberPerTime */\n      dup7\n        /* \"contracts/lib/eai/EAI.sol\":19503:19534  msgContent_NumberPerTime.amount */\n      0x02\n      add\n      sload\n        /* \"contracts/lib/eai/EAI.sol\":19491:19502  uint2String */\n      tag_286\n        /* \"contracts/lib/eai/EAI.sol\":19491:19535  uint2String(msgContent_NumberPerTime.amount) */\n      jump\t// in\n    tag_287:\n        /* \"contracts/lib/eai/EAI.sol\":19589:19610  uint2String(_content) */\n      tag_288\n        /* \"contracts/lib/eai/EAI.sol\":19601:19609  _content */\n      dup6\n        /* \"contracts/lib/eai/EAI.sol\":19589:19600  uint2String */\n      tag_286\n        /* \"contracts/lib/eai/EAI.sol\":19589:19610  uint2String(_content) */\n      jump\t// in\n    tag_288:\n        /* \"contracts/lib/eai/EAI.sol\":19366:19611  abi.encodePacked(... */\n      add(0x20, mload(0x40))\n      tag_289\n      swap4\n      swap3\n      swap2\n      swap1\n      tag_290\n      jump\t// in\n    tag_289:\n      mload(0x40)\n      0x20\n      dup2\n      dup4\n      sub\n      sub\n      dup2\n      mstore\n      swap1\n      0x40\n      mstore\n        /* \"contracts/lib/eai/EAI.sol\":19328:19612  string memory revertMessage =  string(abi.encodePacked(... */\n      swap1\n      pop\n        /* \"contracts/lib/eai/EAI.sol\":20337:20361  msgContent_NumberPerTime */\n      dup5\n        /* \"contracts/lib/eai/EAI.sol\":20337:20366  msgContent_NumberPerTime.rest */\n      0x04\n      add\n      sload\n        /* \"contracts/lib/eai/EAI.sol\":20325:20333  _content */\n      dup4\n        /* \"contracts/lib/eai/EAI.sol\":20325:20366  _content <= msgContent_NumberPerTime.rest */\n      gt\n      iszero\n        /* \"contracts/lib/eai/EAI.sol\":20368:20381  revertMessage */\n      dup2\n        /* \"contracts/lib/eai/EAI.sol\":20317:20382  require(_content <= msgContent_NumberPerTime.rest, revertMessage) */\n      swap1\n      tag_291\n      jumpi\n      mload(0x40)\n      0x08c379a000000000000000000000000000000000000000000000000000000000\n      dup2\n      mstore\n      0x04\n      add\n      tag_292\n      swap2\n      swap1\n      tag_293\n      jump\t// in\n    tag_292:\n      mload(0x40)\n      dup1\n      swap2\n      sub\n      swap1\n      revert\n    tag_291:\n      pop\n        /* \"contracts/lib/eai/EAI.sol\":20462:20470  _content */\n      dup3\n        /* \"contracts/lib/eai/EAI.sol\":20429:20453  msgContent_NumberPerTime */\n      dup6\n        /* \"contracts/lib/eai/EAI.sol\":20429:20458  msgContent_NumberPerTime.rest */\n      0x04\n      add\n      0x00\n        /* \"contracts/lib/eai/EAI.sol\":20429:20470  msgContent_NumberPerTime.rest -= _content */\n      dup3\n      dup3\n      sload\n      tag_294\n      swap2\n      swap1\n      tag_225\n      jump\t// in\n    tag_294:\n      swap3\n      pop\n      pop\n      dup2\n      swap1\n      sstore\n      pop\n        /* \"contracts/lib/eai/EAI.sol\":20506:20510  true */\n      0x01\n        /* \"contracts/lib/eai/EAI.sol\":20499:20510  return true */\n      swap2\n      pop\n      pop\n        /* \"contracts/lib/eai/EAI.sol\":18423:20518  function evaluateAndDecreaseNumberPerTime(... */\n      swap4\n      swap3\n      pop\n      pop\n      pop\n      jump\t// out\n        /* \"contracts/lib/eai/EAI.sol\":25529:26078  function getTimeInSeconds(uint8 timeUnit) private pure returns(uint32){... */\n    tag_212:\n        /* \"contracts/lib/eai/EAI.sol\":25592:25598  uint32 */\n      0x00\n        /* \"contracts/lib/eai/EAI.sol\":784:785  4 */\n      0x04\n        /* \"contracts/lib/eai/EAI.sol\":25672:25688  timeUnit <= WEEK */\n      0xff\n      and\n        /* \"contracts/lib/eai/EAI.sol\":25672:25680  timeUnit */\n      dup3\n        /* \"contracts/lib/eai/EAI.sol\":25672:25688  timeUnit <= WEEK */\n      0xff\n      and\n      gt\n      iszero\n        /* \"contracts/lib/eai/EAI.sol\":25664:25752  require(timeUnit <= WEEK, \"The method getTimeInSeconds doesn't work for MONTH and YEAR\") */\n      tag_296\n      jumpi\n      mload(0x40)\n      0x08c379a000000000000000000000000000000000000000000000000000000000\n      dup2\n      mstore\n      0x04\n      add\n      tag_297\n      swap1\n      tag_298\n      jump\t// in\n    tag_297:\n      mload(0x40)\n      dup1\n      swap2\n      sub\n      swap1\n      revert\n    tag_296:\n        /* \"contracts/lib/eai/EAI.sol\":666:667  0 */\n      0x00\n        /* \"contracts/lib/eai/EAI.sol\":25768:25786  timeUnit == SECOND */\n      0xff\n      and\n        /* \"contracts/lib/eai/EAI.sol\":25768:25776  timeUnit */\n      dup3\n        /* \"contracts/lib/eai/EAI.sol\":25768:25786  timeUnit == SECOND */\n      0xff\n      and\n      sub\n        /* \"contracts/lib/eai/EAI.sol\":25765:26071  if(timeUnit == SECOND){... */\n      tag_299\n      jumpi\n        /* \"contracts/lib/eai/EAI.sol\":25809:25810  1 */\n      0x01\n        /* \"contracts/lib/eai/EAI.sol\":25802:25810  return 1 */\n      swap1\n      pop\n      jump(tag_295)\n        /* \"contracts/lib/eai/EAI.sol\":25765:26071  if(timeUnit == SECOND){... */\n    tag_299:\n        /* \"contracts/lib/eai/EAI.sol\":698:699  1 */\n      0x01\n        /* \"contracts/lib/eai/EAI.sol\":25830:25848  timeUnit == MINUTE */\n      0xff\n      and\n        /* \"contracts/lib/eai/EAI.sol\":25830:25838  timeUnit */\n      dup3\n        /* \"contracts/lib/eai/EAI.sol\":25830:25848  timeUnit == MINUTE */\n      0xff\n      and\n      sub\n        /* \"contracts/lib/eai/EAI.sol\":25827:26071  if(timeUnit == MINUTE){... */\n      tag_301\n      jumpi\n        /* \"contracts/lib/eai/EAI.sol\":25871:25873  60 */\n      0x3c\n        /* \"contracts/lib/eai/EAI.sol\":25864:25873  return 60 */\n      swap1\n      pop\n      jump(tag_295)\n        /* \"contracts/lib/eai/EAI.sol\":25827:26071  if(timeUnit == MINUTE){... */\n    tag_301:\n        /* \"contracts/lib/eai/EAI.sol\":727:728  2 */\n      0x02\n        /* \"contracts/lib/eai/EAI.sol\":25893:25909  timeUnit == HOUR */\n      0xff\n      and\n        /* \"contracts/lib/eai/EAI.sol\":25893:25901  timeUnit */\n      dup3\n        /* \"contracts/lib/eai/EAI.sol\":25893:25909  timeUnit == HOUR */\n      0xff\n      and\n      sub\n        /* \"contracts/lib/eai/EAI.sol\":25890:26071  if(timeUnit == HOUR ){... */\n      tag_303\n      jumpi\n        /* \"contracts/lib/eai/EAI.sol\":25933:25938  60*60 */\n      0x0e10\n        /* \"contracts/lib/eai/EAI.sol\":25926:25938  return 60*60 */\n      swap1\n      pop\n      jump(tag_295)\n        /* \"contracts/lib/eai/EAI.sol\":25890:26071  if(timeUnit == HOUR ){... */\n    tag_303:\n        /* \"contracts/lib/eai/EAI.sol\":755:756  3 */\n      0x03\n        /* \"contracts/lib/eai/EAI.sol\":25958:25973  timeUnit == DAY */\n      0xff\n      and\n        /* \"contracts/lib/eai/EAI.sol\":25958:25966  timeUnit */\n      dup3\n        /* \"contracts/lib/eai/EAI.sol\":25958:25973  timeUnit == DAY */\n      0xff\n      and\n      sub\n        /* \"contracts/lib/eai/EAI.sol\":25955:26071  if(timeUnit == DAY){... */\n      tag_305\n      jumpi\n        /* \"contracts/lib/eai/EAI.sol\":25996:26004  60*60*24 */\n      0x015180\n        /* \"contracts/lib/eai/EAI.sol\":25989:26004  return 60*60*24 */\n      swap1\n      pop\n      jump(tag_295)\n        /* \"contracts/lib/eai/EAI.sol\":25955:26071  if(timeUnit == DAY){... */\n    tag_305:\n        /* \"contracts/lib/eai/EAI.sol\":26042:26052  60*60*24*7 */\n      0x093a80\n        /* \"contracts/lib/eai/EAI.sol\":26035:26052  return 60*60*24*7 */\n      swap1\n      pop\n        /* \"contracts/lib/eai/EAI.sol\":25529:26078  function getTimeInSeconds(uint8 timeUnit) private pure returns(uint32){... */\n    tag_295:\n      swap2\n      swap1\n      pop\n      jump\t// out\n        /* \"contracts/lib/eai/EAI.sol\":23653:24341  function isAccessDatetimeOutOfOldInterval(uint8 _timeUnit, uint32 _endTime, ... */\n    tag_249:\n        /* \"contracts/lib/eai/EAI.sol\":23795:23799  bool */\n      0x00\n        /* \"contracts/lib/eai/EAI.sol\":23822:23836  uint8 timeUnit */\n      dup1\n        /* \"contracts/lib/eai/EAI.sol\":23839:23848  _timeUnit */\n      dup5\n        /* \"contracts/lib/eai/EAI.sol\":23822:23848  uint8 timeUnit = _timeUnit */\n      swap1\n      pop\n        /* \"contracts/lib/eai/EAI.sol\":784:785  4 */\n      0x04\n        /* \"contracts/lib/eai/EAI.sol\":23862:23878  timeUnit <= WEEK */\n      0xff\n      and\n        /* \"contracts/lib/eai/EAI.sol\":23862:23870  timeUnit */\n      dup2\n        /* \"contracts/lib/eai/EAI.sol\":23862:23878  timeUnit <= WEEK */\n      0xff\n      and\n      gt\n        /* \"contracts/lib/eai/EAI.sol\":23859:24203  if(timeUnit <= WEEK){... */\n      tag_308\n      jumpi\n        /* \"contracts/lib/eai/EAI.sol\":23920:23928  _endTime */\n      dup4\n        /* \"contracts/lib/eai/EAI.sol\":23901:23928  _accessDateTime >= _endTime */\n      0xffffffff\n      and\n        /* \"contracts/lib/eai/EAI.sol\":23901:23916  _accessDateTime */\n      dup4\n        /* \"contracts/lib/eai/EAI.sol\":23901:23928  _accessDateTime >= _endTime */\n      0xffffffff\n      and\n      lt\n      iszero\n        /* \"contracts/lib/eai/EAI.sol\":23894:23928  return _accessDateTime >= _endTime */\n      swap2\n      pop\n      pop\n      jump(tag_307)\n        /* \"contracts/lib/eai/EAI.sol\":23859:24203  if(timeUnit <= WEEK){... */\n    tag_308:\n        /* \"contracts/lib/eai/EAI.sol\":814:815  5 */\n      0x05\n        /* \"contracts/lib/eai/EAI.sol\":23949:23966  timeUnit == MONTH */\n      0xff\n      and\n        /* \"contracts/lib/eai/EAI.sol\":23949:23957  timeUnit */\n      dup2\n        /* \"contracts/lib/eai/EAI.sol\":23949:23966  timeUnit == MONTH */\n      0xff\n      and\n      sub\n        /* \"contracts/lib/eai/EAI.sol\":23946:24203  if(timeUnit == MONTH) {            ... */\n      tag_310\n      jumpi\n        /* \"contracts/lib/eai/EAI.sol\":23997:24009  uint32 month */\n      0x00\n        /* \"contracts/lib/eai/EAI.sol\":24014:24046  timeStampToDate(_accessDateTime) */\n      tag_311\n        /* \"contracts/lib/eai/EAI.sol\":24030:24045  _accessDateTime */\n      dup5\n        /* \"contracts/lib/eai/EAI.sol\":24014:24046  timeStampToDate(_accessDateTime) */\n      0xffffffff\n      and\n        /* \"contracts/lib/eai/EAI.sol\":24014:24029  timeStampToDate */\n      tag_312\n        /* \"contracts/lib/eai/EAI.sol\":24014:24046  timeStampToDate(_accessDateTime) */\n      jump\t// in\n    tag_311:\n        /* \"contracts/lib/eai/EAI.sol\":23995:24046  (,uint32 month,) = timeStampToDate(_accessDateTime) */\n      pop\n      swap2\n      pop\n      pop\n        /* \"contracts/lib/eai/EAI.sol\":24081:24083  13 */\n      0x0d\n        /* \"contracts/lib/eai/EAI.sol\":24069:24077  _endTime */\n      dup6\n        /* \"contracts/lib/eai/EAI.sol\":24069:24083  _endTime == 13 */\n      0xffffffff\n      and\n      eq\n        /* \"contracts/lib/eai/EAI.sol\":24068:24098  (_endTime == 13) && (month==1) */\n      dup1\n      iszero\n      tag_313\n      jumpi\n      pop\n        /* \"contracts/lib/eai/EAI.sol\":24096:24097  1 */\n      0x01\n        /* \"contracts/lib/eai/EAI.sol\":24089:24094  month */\n      dup2\n        /* \"contracts/lib/eai/EAI.sol\":24089:24097  month==1 */\n      0xffffffff\n      and\n      eq\n        /* \"contracts/lib/eai/EAI.sol\":24068:24098  (_endTime == 13) && (month==1) */\n    tag_313:\n        /* \"contracts/lib/eai/EAI.sol\":24065:24145  if((_endTime == 13) && (month==1)){... */\n      iszero\n      tag_314\n      jumpi\n        /* \"contracts/lib/eai/EAI.sol\":24125:24129  true */\n      0x01\n        /* \"contracts/lib/eai/EAI.sol\":24118:24129  return true */\n      swap3\n      pop\n      pop\n      pop\n      jump(tag_307)\n        /* \"contracts/lib/eai/EAI.sol\":24065:24145  if((_endTime == 13) && (month==1)){... */\n    tag_314:\n        /* \"contracts/lib/eai/EAI.sol\":24183:24191  _endTime */\n      dup5\n        /* \"contracts/lib/eai/EAI.sol\":24174:24191  month >= _endTime */\n      0xffffffff\n      and\n        /* \"contracts/lib/eai/EAI.sol\":24174:24179  month */\n      dup2\n        /* \"contracts/lib/eai/EAI.sol\":24174:24191  month >= _endTime */\n      0xffffffff\n      and\n      lt\n      iszero\n        /* \"contracts/lib/eai/EAI.sol\":24167:24191  return month >= _endTime */\n      swap3\n      pop\n      pop\n      pop\n      jump(tag_307)\n        /* \"contracts/lib/eai/EAI.sol\":23946:24203  if(timeUnit == MONTH) {            ... */\n    tag_310:\n        /* \"contracts/lib/eai/EAI.sol\":24249:24260  uint32 year */\n      0x00\n        /* \"contracts/lib/eai/EAI.sol\":24267:24299  timeStampToDate(_accessDateTime) */\n      tag_315\n        /* \"contracts/lib/eai/EAI.sol\":24283:24298  _accessDateTime */\n      dup5\n        /* \"contracts/lib/eai/EAI.sol\":24267:24299  timeStampToDate(_accessDateTime) */\n      0xffffffff\n      and\n        /* \"contracts/lib/eai/EAI.sol\":24267:24282  timeStampToDate */\n      tag_312\n        /* \"contracts/lib/eai/EAI.sol\":24267:24299  timeStampToDate(_accessDateTime) */\n      jump\t// in\n    tag_315:\n        /* \"contracts/lib/eai/EAI.sol\":24248:24299  (uint32 year, ,) = timeStampToDate(_accessDateTime) */\n      pop\n      pop\n      swap1\n      pop\n        /* \"contracts/lib/eai/EAI.sol\":24325:24333  _endTime */\n      dup5\n        /* \"contracts/lib/eai/EAI.sol\":24317:24333  year >= _endTime */\n      0xffffffff\n      and\n        /* \"contracts/lib/eai/EAI.sol\":24317:24321  year */\n      dup2\n        /* \"contracts/lib/eai/EAI.sol\":24317:24333  year >= _endTime */\n      0xffffffff\n      and\n      lt\n      iszero\n        /* \"contracts/lib/eai/EAI.sol\":24310:24333  return year >= _endTime */\n      swap3\n      pop\n      pop\n      pop\n        /* \"contracts/lib/eai/EAI.sol\":23653:24341  function isAccessDatetimeOutOfOldInterval(uint8 _timeUnit, uint32 _endTime, ... */\n    tag_307:\n      swap4\n      swap3\n      pop\n      pop\n      pop\n      jump\t// out\n        /* \"contracts/lib/eai/EAI.sol\":12507:13115  function setNewEndTimeAndRestOfOperations(... */\n    tag_252:\n        /* \"contracts/lib/eai/EAI.sol\":12720:12747  _maxNumberOfOperationByTime */\n      dup2\n        /* \"contracts/lib/eai/EAI.sol\":12720:12754  _maxNumberOfOperationByTime.amount */\n      0x00\n      add\n      0x00\n      swap1\n      sload\n      swap1\n      0x0100\n      exp\n      swap1\n      div\n      0xffffffff\n      and\n        /* \"contracts/lib/eai/EAI.sol\":12685:12712  _maxNumberOfOperationByTime */\n      dup3\n        /* \"contracts/lib/eai/EAI.sol\":12685:12717  _maxNumberOfOperationByTime.rest */\n      0x00\n      add\n      0x09\n        /* \"contracts/lib/eai/EAI.sol\":12685:12754  _maxNumberOfOperationByTime.rest = _maxNumberOfOperationByTime.amount */\n      0x0100\n      exp\n      dup2\n      sload\n      dup2\n      0xffffffff\n      mul\n      not\n      and\n      swap1\n      dup4\n      0xffffffff\n      and\n      mul\n      or\n      swap1\n      sstore\n      pop\n        /* \"contracts/lib/eai/EAI.sol\":12803:13107  calcNextEndTime(... */\n      tag_317\n        /* \"contracts/lib/eai/EAI.sol\":12869:12896  _maxNumberOfOperationByTime */\n      dup3\n        /* \"contracts/lib/eai/EAI.sol\":12869:12903  _maxNumberOfOperationByTime.byTime */\n      0x00\n      add\n      0x05\n      swap1\n      sload\n      swap1\n      0x0100\n      exp\n      swap1\n      div\n      0xffffffff\n      and\n        /* \"contracts/lib/eai/EAI.sol\":12954:12981  _maxNumberOfOperationByTime */\n      dup4\n        /* \"contracts/lib/eai/EAI.sol\":12954:12990  _maxNumberOfOperationByTime.timeUnit */\n      0x00\n      add\n      0x04\n      swap1\n      sload\n      swap1\n      0x0100\n      exp\n      swap1\n      div\n      0xff\n      and\n        /* \"contracts/lib/eai/EAI.sol\":13041:13056  _accessDateTime */\n      dup4\n        /* \"contracts/lib/eai/EAI.sol\":12803:12818  calcNextEndTime */\n      tag_284\n        /* \"contracts/lib/eai/EAI.sol\":12803:13107  calcNextEndTime(... */\n      jump\t// in\n    tag_317:\n        /* \"contracts/lib/eai/EAI.sol\":12765:12792  _maxNumberOfOperationByTime */\n      dup3\n        /* \"contracts/lib/eai/EAI.sol\":12765:12800  _maxNumberOfOperationByTime.endTime */\n      0x00\n      add\n      0x0d\n        /* \"contracts/lib/eai/EAI.sol\":12765:13107  _maxNumberOfOperationByTime.endTime = calcNextEndTime(... */\n      0x0100\n      exp\n      dup2\n      sload\n      dup2\n      0xffffffff\n      mul\n      not\n      and\n      swap1\n      dup4\n      0xffffffff\n      and\n      mul\n      or\n      swap1\n      sstore\n      pop\n        /* \"contracts/lib/eai/EAI.sol\":12507:13115  function setNewEndTimeAndRestOfOperations(... */\n      pop\n      pop\n      jump\t// out\n        /* \"contracts/lib/eai/EAI.sol\":24349:25006  function calcNextEndTime(       ... */\n    tag_284:\n        /* \"contracts/lib/eai/EAI.sol\":24503:24509  uint32 */\n      0x00\n        /* \"contracts/lib/eai/EAI.sol\":784:785  4 */\n      0x04\n        /* \"contracts/lib/eai/EAI.sol\":24535:24552  _timeUnit <= WEEK */\n      0xff\n      and\n        /* \"contracts/lib/eai/EAI.sol\":24535:24544  _timeUnit */\n      dup4\n        /* \"contracts/lib/eai/EAI.sol\":24535:24552  _timeUnit <= WEEK */\n      0xff\n      and\n      gt\n        /* \"contracts/lib/eai/EAI.sol\":24531:24999  if (_timeUnit <= WEEK) {... */\n      tag_319\n      jumpi\n        /* \"contracts/lib/eai/EAI.sol\":24576:24708  calcNextEndTimeForSecMinHrDayOrWeek(... */\n      tag_320\n        /* \"contracts/lib/eai/EAI.sol\":24630:24639  _timeUnit */\n      dup4\n        /* \"contracts/lib/eai/EAI.sol\":24659:24674  _accessDateTime */\n      dup4\n        /* \"contracts/lib/eai/EAI.sol\":24694:24707  _timeInterval */\n      dup7\n        /* \"contracts/lib/eai/EAI.sol\":24576:24611  calcNextEndTimeForSecMinHrDayOrWeek */\n      tag_321\n        /* \"contracts/lib/eai/EAI.sol\":24576:24708  calcNextEndTimeForSecMinHrDayOrWeek(... */\n      jump\t// in\n    tag_320:\n        /* \"contracts/lib/eai/EAI.sol\":24569:24708  return calcNextEndTimeForSecMinHrDayOrWeek(... */\n      swap1\n      pop\n      jump(tag_318)\n        /* \"contracts/lib/eai/EAI.sol\":24531:24999  if (_timeUnit <= WEEK) {... */\n    tag_319:\n        /* \"contracts/lib/eai/EAI.sol\":814:815  5 */\n      0x05\n        /* \"contracts/lib/eai/EAI.sol\":24728:24746  _timeUnit == MONTH */\n      0xff\n      and\n        /* \"contracts/lib/eai/EAI.sol\":24728:24737  _timeUnit */\n      dup4\n        /* \"contracts/lib/eai/EAI.sol\":24728:24746  _timeUnit == MONTH */\n      0xff\n      and\n      sub\n        /* \"contracts/lib/eai/EAI.sol\":24725:24999  if(_timeUnit == MONTH){... */\n      tag_323\n      jumpi\n        /* \"contracts/lib/eai/EAI.sol\":24764:24781  uint currentMonth */\n      0x00\n        /* \"contracts/lib/eai/EAI.sol\":24786:24818  timeStampToDate(_accessDateTime) */\n      tag_324\n        /* \"contracts/lib/eai/EAI.sol\":24802:24817  _accessDateTime */\n      dup4\n        /* \"contracts/lib/eai/EAI.sol\":24786:24818  timeStampToDate(_accessDateTime) */\n      0xffffffff\n      and\n        /* \"contracts/lib/eai/EAI.sol\":24786:24801  timeStampToDate */\n      tag_312\n        /* \"contracts/lib/eai/EAI.sol\":24786:24818  timeStampToDate(_accessDateTime) */\n      jump\t// in\n    tag_324:\n        /* \"contracts/lib/eai/EAI.sol\":24762:24818  (,uint currentMonth,) = timeStampToDate(_accessDateTime) */\n      pop\n      0xffffffff\n      and\n      swap2\n      pop\n      pop\n        /* \"contracts/lib/eai/EAI.sol\":24862:24863  1 */\n      0x01\n        /* \"contracts/lib/eai/EAI.sol\":24849:24861  currentMonth */\n      dup2\n        /* \"contracts/lib/eai/EAI.sol\":24849:24863  currentMonth+1 */\n      tag_325\n      swap2\n      swap1\n      tag_326\n      jump\t// in\n    tag_325:\n        /* \"contracts/lib/eai/EAI.sol\":24835:24864  return uint32(currentMonth+1) */\n      swap2\n      pop\n      pop\n      jump(tag_318)\n        /* \"contracts/lib/eai/EAI.sol\":24725:24999  if(_timeUnit == MONTH){... */\n    tag_323:\n        /* \"contracts/lib/eai/EAI.sol\":24902:24911  uint year */\n      0x00\n        /* \"contracts/lib/eai/EAI.sol\":24917:24949  timeStampToDate(_accessDateTime) */\n      tag_328\n        /* \"contracts/lib/eai/EAI.sol\":24933:24948  _accessDateTime */\n      dup4\n        /* \"contracts/lib/eai/EAI.sol\":24917:24949  timeStampToDate(_accessDateTime) */\n      0xffffffff\n      and\n        /* \"contracts/lib/eai/EAI.sol\":24917:24932  timeStampToDate */\n      tag_312\n        /* \"contracts/lib/eai/EAI.sol\":24917:24949  timeStampToDate(_accessDateTime) */\n      jump\t// in\n    tag_328:\n        /* \"contracts/lib/eai/EAI.sol\":24901:24949  (uint year,,) = timeStampToDate(_accessDateTime) */\n      pop\n      pop\n      0xffffffff\n      and\n      swap1\n      pop\n        /* \"contracts/lib/eai/EAI.sol\":24985:24986  1 */\n      0x01\n        /* \"contracts/lib/eai/EAI.sol\":24978:24982  year */\n      dup2\n        /* \"contracts/lib/eai/EAI.sol\":24978:24986  year + 1 */\n      tag_329\n      swap2\n      swap1\n      tag_326\n      jump\t// in\n    tag_329:\n        /* \"contracts/lib/eai/EAI.sol\":24964:24987  return uint32(year + 1) */\n      swap2\n      pop\n      pop\n        /* \"contracts/lib/eai/EAI.sol\":24349:25006  function calcNextEndTime(       ... */\n    tag_318:\n      swap4\n      swap3\n      pop\n      pop\n      pop\n      jump\t// out\n        /* \"contracts/lib/eai/EAI.sol\":29587:30132  function uint2String(uint256 value) internal pure returns (string memory) {... */\n    tag_286:\n        /* \"contracts/lib/eai/EAI.sol\":29646:29659  string memory */\n      0x60\n        /* \"contracts/lib/eai/EAI.sol\":29695:29696  0 */\n      0x00\n        /* \"contracts/lib/eai/EAI.sol\":29686:29691  value */\n      dup3\n        /* \"contracts/lib/eai/EAI.sol\":29686:29696  value == 0 */\n      sub\n        /* \"contracts/lib/eai/EAI.sol\":29682:29735  if (value == 0) {... */\n      tag_331\n      jumpi\n        /* \"contracts/lib/eai/EAI.sol\":29713:29723  return \"0\" */\n      mload(0x40)\n      dup1\n      0x40\n      add\n      0x40\n      mstore\n      dup1\n      0x01\n      dup2\n      mstore\n      0x20\n      add\n      0x3000000000000000000000000000000000000000000000000000000000000000\n      dup2\n      mstore\n      pop\n      swap1\n      pop\n      jump(tag_330)\n        /* \"contracts/lib/eai/EAI.sol\":29682:29735  if (value == 0) {... */\n    tag_331:\n        /* \"contracts/lib/eai/EAI.sol\":29745:29757  uint256 temp */\n      0x00\n        /* \"contracts/lib/eai/EAI.sol\":29760:29765  value */\n      dup3\n        /* \"contracts/lib/eai/EAI.sol\":29745:29765  uint256 temp = value */\n      swap1\n      pop\n        /* \"contracts/lib/eai/EAI.sol\":29776:29790  uint256 digits */\n      0x00\n        /* \"contracts/lib/eai/EAI.sol\":29801:29879  while (temp != 0) {... */\n    tag_332:\n        /* \"contracts/lib/eai/EAI.sol\":29816:29817  0 */\n      0x00\n        /* \"contracts/lib/eai/EAI.sol\":29808:29812  temp */\n      dup3\n        /* \"contracts/lib/eai/EAI.sol\":29808:29817  temp != 0 */\n      eq\n        /* \"contracts/lib/eai/EAI.sol\":29801:29879  while (temp != 0) {... */\n      tag_333\n      jumpi\n        /* \"contracts/lib/eai/EAI.sol\":29834:29842  digits++ */\n      dup1\n      dup1\n      tag_334\n      swap1\n      tag_335\n      jump\t// in\n    tag_334:\n      swap2\n      pop\n      pop\n        /* \"contracts/lib/eai/EAI.sol\":29865:29867  10 */\n      0x0a\n        /* \"contracts/lib/eai/EAI.sol\":29857:29867  temp /= 10 */\n      dup3\n      tag_336\n      swap2\n      swap1\n      tag_337\n      jump\t// in\n    tag_336:\n      swap2\n      pop\n        /* \"contracts/lib/eai/EAI.sol\":29801:29879  while (temp != 0) {... */\n      jump(tag_332)\n    tag_333:\n        /* \"contracts/lib/eai/EAI.sol\":29889:29908  bytes memory buffer */\n      0x00\n        /* \"contracts/lib/eai/EAI.sol\":29921:29927  digits */\n      dup2\n        /* \"contracts/lib/eai/EAI.sol\":29911:29928  new bytes(digits) */\n      0xffffffffffffffff\n      dup2\n      gt\n      iszero\n      tag_338\n      jumpi\n      tag_339\n      tag_340\n      jump\t// in\n    tag_339:\n    tag_338:\n      mload(0x40)\n      swap1\n      dup1\n      dup3\n      mstore\n      dup1\n      0x1f\n      add\n      not(0x1f)\n      and\n      0x20\n      add\n      dup3\n      add\n      0x40\n      mstore\n      dup1\n      iszero\n      tag_341\n      jumpi\n      dup2\n      0x20\n      add\n      0x01\n      dup3\n      mul\n      dup1\n      calldatasize\n      dup4\n      calldatacopy\n      dup1\n      dup3\n      add\n      swap2\n      pop\n      pop\n      swap1\n      pop\n    tag_341:\n      pop\n        /* \"contracts/lib/eai/EAI.sol\":29889:29928  bytes memory buffer = new bytes(digits) */\n      swap1\n      pop\n        /* \"contracts/lib/eai/EAI.sol\":29939:30093  while (value != 0) {... */\n    tag_342:\n        /* \"contracts/lib/eai/EAI.sol\":29955:29956  0 */\n      0x00\n        /* \"contracts/lib/eai/EAI.sol\":29946:29951  value */\n      dup6\n        /* \"contracts/lib/eai/EAI.sol\":29946:29956  value != 0 */\n      eq\n        /* \"contracts/lib/eai/EAI.sol\":29939:30093  while (value != 0) {... */\n      tag_343\n      jumpi\n        /* \"contracts/lib/eai/EAI.sol\":29983:29984  1 */\n      0x01\n        /* \"contracts/lib/eai/EAI.sol\":29973:29984  digits -= 1 */\n      dup3\n      tag_344\n      swap2\n      swap1\n      tag_225\n      jump\t// in\n    tag_344:\n      swap2\n      pop\n        /* \"contracts/lib/eai/EAI.sol\":30050:30052  10 */\n      0x0a\n        /* \"contracts/lib/eai/EAI.sol\":30042:30047  value */\n      dup6\n        /* \"contracts/lib/eai/EAI.sol\":30042:30052  value % 10 */\n      tag_345\n      swap2\n      swap1\n      tag_346\n      jump\t// in\n    tag_345:\n        /* \"contracts/lib/eai/EAI.sol\":30029:30031  48 */\n      0x30\n        /* \"contracts/lib/eai/EAI.sol\":30029:30053  48 + uint256(value % 10) */\n      tag_347\n      swap2\n      swap1\n      tag_326\n      jump\t// in\n    tag_347:\n        /* \"contracts/lib/eai/EAI.sol\":30016:30055  bytes1(uint8(48 + uint256(value % 10))) */\n      0xf8\n      shl\n        /* \"contracts/lib/eai/EAI.sol\":29999:30005  buffer */\n      dup2\n        /* \"contracts/lib/eai/EAI.sol\":30006:30012  digits */\n      dup4\n        /* \"contracts/lib/eai/EAI.sol\":29999:30013  buffer[digits] */\n      dup2\n      mload\n      dup2\n      lt\n      tag_348\n      jumpi\n      tag_349\n      tag_52\n      jump\t// in\n    tag_349:\n    tag_348:\n      0x20\n      add\n      add\n        /* \"contracts/lib/eai/EAI.sol\":29999:30055  buffer[digits] = bytes1(uint8(48 + uint256(value % 10))) */\n      swap1\n      not(0xffffffffffffffffffffffffffffffffffffffffffffffffffffffffffffff)\n      and\n      swap1\n      dup2\n      0x00\n      byte\n      swap1\n      mstore8\n      pop\n        /* \"contracts/lib/eai/EAI.sol\":30079:30081  10 */\n      0x0a\n        /* \"contracts/lib/eai/EAI.sol\":30070:30081  value /= 10 */\n      dup6\n      tag_350\n      swap2\n      swap1\n      tag_337\n      jump\t// in\n    tag_350:\n      swap5\n      pop\n        /* \"contracts/lib/eai/EAI.sol\":29939:30093  while (value != 0) {... */\n      jump(tag_342)\n    tag_343:\n        /* \"contracts/lib/eai/EAI.sol\":30117:30123  buffer */\n      dup1\n        /* \"contracts/lib/eai/EAI.sol\":30103:30124  return string(buffer) */\n      swap4\n      pop\n      pop\n      pop\n      pop\n        /* \"contracts/lib/eai/EAI.sol\":29587:30132  function uint2String(uint256 value) internal pure returns (string memory) {... */\n    tag_330:\n      swap2\n      swap1\n      pop\n      jump\t// out\n        /* \"contracts/lib/eai/EAI.sol\":26314:27010  function timeStampToDate(uint _timestamp) internal pure returns (uint32 year, uint32 month, uint32 day) {... */\n    tag_312:\n        /* \"contracts/lib/eai/EAI.sol\":26379:26390  uint32 year */\n      0x00\n        /* \"contracts/lib/eai/EAI.sol\":26392:26404  uint32 month */\n      dup1\n        /* \"contracts/lib/eai/EAI.sol\":26406:26416  uint32 day */\n      0x00\n        /* \"contracts/lib/eai/EAI.sol\":26438:26451  uint32 __days */\n      dup1\n        /* \"contracts/lib/eai/EAI.sol\":1073:1081  24*60*60 */\n      0x015180\n        /* \"contracts/lib/eai/EAI.sol\":26461:26489  _timestamp / SECONDS_PER_DAY */\n      0xffffffff\n      and\n        /* \"contracts/lib/eai/EAI.sol\":26461:26471  _timestamp */\n      dup6\n        /* \"contracts/lib/eai/EAI.sol\":26461:26489  _timestamp / SECONDS_PER_DAY */\n      tag_352\n      swap2\n      swap1\n      tag_337\n      jump\t// in\n    tag_352:\n        /* \"contracts/lib/eai/EAI.sol\":26438:26490  uint32 __days = uint32(_timestamp / SECONDS_PER_DAY) */\n      swap1\n      pop\n        /* \"contracts/lib/eai/EAI.sol\":26503:26511  uint32 L */\n      0x00\n        /* \"contracts/lib/eai/EAI.sol\":1121:1128  2440588 */\n      0x253d8c\n        /* \"contracts/lib/eai/EAI.sol\":26523:26528  68569 */\n      0x010bd9\n        /* \"contracts/lib/eai/EAI.sol\":26514:26520  __days */\n      dup4\n        /* \"contracts/lib/eai/EAI.sol\":26514:26528  __days + 68569 */\n      tag_353\n      swap2\n      swap1\n      tag_354\n      jump\t// in\n    tag_353:\n        /* \"contracts/lib/eai/EAI.sol\":26514:26545  __days + 68569 + OFFSET19700101 */\n      tag_355\n      swap2\n      swap1\n      tag_354\n      jump\t// in\n    tag_355:\n        /* \"contracts/lib/eai/EAI.sol\":26503:26545  uint32 L = __days + 68569 + OFFSET19700101 */\n      swap1\n      pop\n        /* \"contracts/lib/eai/EAI.sol\":26556:26564  uint32 N */\n      0x00\n        /* \"contracts/lib/eai/EAI.sol\":26575:26581  146097 */\n      0x023ab1\n        /* \"contracts/lib/eai/EAI.sol\":26571:26572  L */\n      dup3\n        /* \"contracts/lib/eai/EAI.sol\":26567:26568  4 */\n      0x04\n        /* \"contracts/lib/eai/EAI.sol\":26567:26572  4 * L */\n      tag_356\n      swap2\n      swap1\n      tag_357\n      jump\t// in\n    tag_356:\n        /* \"contracts/lib/eai/EAI.sol\":26567:26581  4 * L / 146097 */\n      tag_358\n      swap2\n      swap1\n      tag_359\n      jump\t// in\n    tag_358:\n        /* \"contracts/lib/eai/EAI.sol\":26556:26581  uint32 N = 4 * L / 146097 */\n      swap1\n      pop\n        /* \"contracts/lib/eai/EAI.sol\":26619:26620  4 */\n      0x04\n        /* \"contracts/lib/eai/EAI.sol\":26614:26615  3 */\n      0x03\n        /* \"contracts/lib/eai/EAI.sol\":26610:26611  N */\n      dup3\n        /* \"contracts/lib/eai/EAI.sol\":26601:26607  146097 */\n      0x023ab1\n        /* \"contracts/lib/eai/EAI.sol\":26601:26611  146097 * N */\n      tag_360\n      swap2\n      swap1\n      tag_357\n      jump\t// in\n    tag_360:\n        /* \"contracts/lib/eai/EAI.sol\":26601:26615  146097 * N + 3 */\n      tag_361\n      swap2\n      swap1\n      tag_354\n      jump\t// in\n    tag_361:\n        /* \"contracts/lib/eai/EAI.sol\":26600:26620  (146097 * N + 3) / 4 */\n      tag_362\n      swap2\n      swap1\n      tag_359\n      jump\t// in\n    tag_362:\n        /* \"contracts/lib/eai/EAI.sol\":26596:26597  L */\n      dup3\n        /* \"contracts/lib/eai/EAI.sol\":26596:26620  L - (146097 * N + 3) / 4 */\n      tag_363\n      swap2\n      swap1\n      tag_228\n      jump\t// in\n    tag_363:\n        /* \"contracts/lib/eai/EAI.sol\":26592:26620  L = L - (146097 * N + 3) / 4 */\n      swap2\n      pop\n        /* \"contracts/lib/eai/EAI.sol\":26631:26643  uint32 _year */\n      0x00\n        /* \"contracts/lib/eai/EAI.sol\":26663:26670  1461001 */\n      0x164b09\n        /* \"contracts/lib/eai/EAI.sol\":26658:26659  1 */\n      0x01\n        /* \"contracts/lib/eai/EAI.sol\":26654:26655  L */\n      dup5\n        /* \"contracts/lib/eai/EAI.sol\":26654:26659  L + 1 */\n      tag_364\n      swap2\n      swap1\n      tag_354\n      jump\t// in\n    tag_364:\n        /* \"contracts/lib/eai/EAI.sol\":26646:26650  4000 */\n      0x0fa0\n        /* \"contracts/lib/eai/EAI.sol\":26646:26660  4000 * (L + 1) */\n      tag_365\n      swap2\n      swap1\n      tag_357\n      jump\t// in\n    tag_365:\n        /* \"contracts/lib/eai/EAI.sol\":26646:26670  4000 * (L + 1) / 1461001 */\n      tag_366\n      swap2\n      swap1\n      tag_359\n      jump\t// in\n    tag_366:\n        /* \"contracts/lib/eai/EAI.sol\":26631:26670  uint32 _year = 4000 * (L + 1) / 1461001 */\n      swap1\n      pop\n        /* \"contracts/lib/eai/EAI.sol\":26708:26710  31 */\n      0x1f\n        /* \"contracts/lib/eai/EAI.sol\":26704:26705  4 */\n      0x04\n        /* \"contracts/lib/eai/EAI.sol\":26696:26701  _year */\n      dup3\n        /* \"contracts/lib/eai/EAI.sol\":26689:26693  1461 */\n      0x05b5\n        /* \"contracts/lib/eai/EAI.sol\":26689:26701  1461 * _year */\n      tag_367\n      swap2\n      swap1\n      tag_357\n      jump\t// in\n    tag_367:\n        /* \"contracts/lib/eai/EAI.sol\":26689:26705  1461 * _year / 4 */\n      tag_368\n      swap2\n      swap1\n      tag_359\n      jump\t// in\n    tag_368:\n        /* \"contracts/lib/eai/EAI.sol\":26685:26686  L */\n      dup5\n        /* \"contracts/lib/eai/EAI.sol\":26685:26705  L - 1461 * _year / 4 */\n      tag_369\n      swap2\n      swap1\n      tag_228\n      jump\t// in\n    tag_369:\n        /* \"contracts/lib/eai/EAI.sol\":26685:26710  L - 1461 * _year / 4 + 31 */\n      tag_370\n      swap2\n      swap1\n      tag_354\n      jump\t// in\n    tag_370:\n        /* \"contracts/lib/eai/EAI.sol\":26681:26710  L = L - 1461 * _year / 4 + 31 */\n      swap3\n      pop\n        /* \"contracts/lib/eai/EAI.sol\":26721:26734  uint32 _month */\n      0x00\n        /* \"contracts/lib/eai/EAI.sol\":26746:26750  2447 */\n      0x098f\n        /* \"contracts/lib/eai/EAI.sol\":26742:26743  L */\n      dup5\n        /* \"contracts/lib/eai/EAI.sol\":26737:26739  80 */\n      0x50\n        /* \"contracts/lib/eai/EAI.sol\":26737:26743  80 * L */\n      tag_371\n      swap2\n      swap1\n      tag_357\n      jump\t// in\n    tag_371:\n        /* \"contracts/lib/eai/EAI.sol\":26737:26750  80 * L / 2447 */\n      tag_372\n      swap2\n      swap1\n      tag_359\n      jump\t// in\n    tag_372:\n        /* \"contracts/lib/eai/EAI.sol\":26721:26750  uint32 _month = 80 * L / 2447 */\n      swap1\n      pop\n        /* \"contracts/lib/eai/EAI.sol\":26761:26772  uint32 _day */\n      0x00\n        /* \"contracts/lib/eai/EAI.sol\":26795:26797  80 */\n      0x50\n        /* \"contracts/lib/eai/EAI.sol\":26786:26792  _month */\n      dup3\n        /* \"contracts/lib/eai/EAI.sol\":26779:26783  2447 */\n      0x098f\n        /* \"contracts/lib/eai/EAI.sol\":26779:26792  2447 * _month */\n      tag_373\n      swap2\n      swap1\n      tag_357\n      jump\t// in\n    tag_373:\n        /* \"contracts/lib/eai/EAI.sol\":26779:26797  2447 * _month / 80 */\n      tag_374\n      swap2\n      swap1\n      tag_359\n      jump\t// in\n    tag_374:\n        /* \"contracts/lib/eai/EAI.sol\":26775:26776  L */\n      dup6\n        /* \"contracts/lib/eai/EAI.sol\":26775:26797  L - 2447 * _month / 80 */\n      tag_375\n      swap2\n      swap1\n      tag_228\n      jump\t// in\n    tag_375:\n        /* \"contracts/lib/eai/EAI.sol\":26761:26797  uint32 _day = L - 2447 * _month / 80 */\n      swap1\n      pop\n        /* \"contracts/lib/eai/EAI.sol\":26821:26823  11 */\n      0x0b\n        /* \"contracts/lib/eai/EAI.sol\":26812:26818  _month */\n      dup3\n        /* \"contracts/lib/eai/EAI.sol\":26812:26823  _month / 11 */\n      tag_376\n      swap2\n      swap1\n      tag_359\n      jump\t// in\n    tag_376:\n        /* \"contracts/lib/eai/EAI.sol\":26808:26823  L = _month / 11 */\n      swap5\n      pop\n        /* \"contracts/lib/eai/EAI.sol\":26861:26862  L */\n      dup5\n        /* \"contracts/lib/eai/EAI.sol\":26856:26858  12 */\n      0x0c\n        /* \"contracts/lib/eai/EAI.sol\":26856:26862  12 * L */\n      tag_377\n      swap2\n      swap1\n      tag_357\n      jump\t// in\n    tag_377:\n        /* \"contracts/lib/eai/EAI.sol\":26852:26853  2 */\n      0x02\n        /* \"contracts/lib/eai/EAI.sol\":26843:26849  _month */\n      dup4\n        /* \"contracts/lib/eai/EAI.sol\":26843:26853  _month + 2 */\n      tag_378\n      swap2\n      swap1\n      tag_354\n      jump\t// in\n    tag_378:\n        /* \"contracts/lib/eai/EAI.sol\":26843:26862  _month + 2 - 12 * L */\n      tag_379\n      swap2\n      swap1\n      tag_228\n      jump\t// in\n    tag_379:\n        /* \"contracts/lib/eai/EAI.sol\":26834:26862  _month = _month + 2 - 12 * L */\n      swap2\n      pop\n        /* \"contracts/lib/eai/EAI.sol\":26906:26907  L */\n      dup5\n        /* \"contracts/lib/eai/EAI.sol\":26898:26903  _year */\n      dup4\n        /* \"contracts/lib/eai/EAI.sol\":26892:26894  49 */\n      0x31\n        /* \"contracts/lib/eai/EAI.sol\":26888:26889  N */\n      dup7\n        /* \"contracts/lib/eai/EAI.sol\":26888:26894  N - 49 */\n      tag_380\n      swap2\n      swap1\n      tag_228\n      jump\t// in\n    tag_380:\n        /* \"contracts/lib/eai/EAI.sol\":26881:26884  100 */\n      0x64\n        /* \"contracts/lib/eai/EAI.sol\":26881:26895  100 * (N - 49) */\n      tag_381\n      swap2\n      swap1\n      tag_357\n      jump\t// in\n    tag_381:\n        /* \"contracts/lib/eai/EAI.sol\":26881:26903  100 * (N - 49) + _year */\n      tag_382\n      swap2\n      swap1\n      tag_354\n      jump\t// in\n    tag_382:\n        /* \"contracts/lib/eai/EAI.sol\":26881:26907  100 * (N - 49) + _year + L */\n      tag_383\n      swap2\n      swap1\n      tag_354\n      jump\t// in\n    tag_383:\n        /* \"contracts/lib/eai/EAI.sol\":26873:26907  _year = 100 * (N - 49) + _year + L */\n      swap3\n      pop\n        /* \"contracts/lib/eai/EAI.sol\":26934:26939  _year */\n      dup3\n        /* \"contracts/lib/eai/EAI.sol\":26920:26940  year = uint32(_year) */\n      swap9\n      pop\n        /* \"contracts/lib/eai/EAI.sol\":26966:26972  _month */\n      dup2\n        /* \"contracts/lib/eai/EAI.sol\":26951:26973  month = uint32(_month) */\n      swap8\n      pop\n        /* \"contracts/lib/eai/EAI.sol\":26997:27001  _day */\n      dup1\n        /* \"contracts/lib/eai/EAI.sol\":26984:27002  day = uint32(_day) */\n      swap7\n      pop\n        /* \"contracts/lib/eai/EAI.sol\":26418:27010  {... */\n      pop\n      pop\n      pop\n      pop\n      pop\n      pop\n        /* \"contracts/lib/eai/EAI.sol\":26314:27010  function timeStampToDate(uint _timestamp) internal pure returns (uint32 year, uint32 month, uint32 day) {... */\n      swap2\n      swap4\n      swap1\n      swap3\n      pop\n      jump\t// out\n        /* \"contracts/lib/eai/EAI.sol\":25018:25515  function calcNextEndTimeForSecMinHrDayOrWeek(... */\n    tag_321:\n        /* \"contracts/lib/eai/EAI.sol\":25186:25192  uint32 */\n      0x00\n        /* \"contracts/lib/eai/EAI.sol\":25206:25216  uint32 mod */\n      dup1\n        /* \"contracts/lib/eai/EAI.sol\":25245:25258  _timeInterval */\n      dup3\n        /* \"contracts/lib/eai/EAI.sol\":25227:25242  _accessDateTime */\n      dup5\n        /* \"contracts/lib/eai/EAI.sol\":25227:25258  _accessDateTime % _timeInterval */\n      tag_385\n      swap2\n      swap1\n      tag_386\n      jump\t// in\n    tag_385:\n        /* \"contracts/lib/eai/EAI.sol\":25206:25259  uint32 mod =  uint32(_accessDateTime % _timeInterval) */\n      swap1\n      pop\n        /* \"contracts/lib/eai/EAI.sol\":25270:25294  uint32 timeToNextEndTime */\n      0x00\n        /* \"contracts/lib/eai/EAI.sol\":25314:25317  mod */\n      dup2\n        /* \"contracts/lib/eai/EAI.sol\":25298:25311  _timeInterval */\n      dup5\n        /* \"contracts/lib/eai/EAI.sol\":25298:25317  _timeInterval - mod */\n      tag_387\n      swap2\n      swap1\n      tag_228\n      jump\t// in\n    tag_387:\n        /* \"contracts/lib/eai/EAI.sol\":25270:25317  uint32 timeToNextEndTime  = _timeInterval - mod */\n      swap1\n      pop\n        /* \"contracts/lib/eai/EAI.sol\":784:785  4 */\n      0x04\n        /* \"contracts/lib/eai/EAI.sol\":25353:25370  _timeUnit == WEEK */\n      0xff\n      and\n        /* \"contracts/lib/eai/EAI.sol\":25353:25362  _timeUnit */\n      dup7\n        /* \"contracts/lib/eai/EAI.sol\":25353:25370  _timeUnit == WEEK */\n      0xff\n      and\n      sub\n        /* \"contracts/lib/eai/EAI.sol\":25350:25453  if(_timeUnit == WEEK){... */\n      tag_388\n      jumpi\n        /* \"contracts/lib/eai/EAI.sol\":1221:1227  259200 */\n      0x03f480\n        /* \"contracts/lib/eai/EAI.sol\":25411:25428  timeToNextEndTime */\n      dup2\n        /* \"contracts/lib/eai/EAI.sol\":25393:25408  _accessDateTime */\n      dup7\n        /* \"contracts/lib/eai/EAI.sol\":25393:25428  _accessDateTime + timeToNextEndTime */\n      tag_389\n      swap2\n      swap1\n      tag_354\n      jump\t// in\n    tag_389:\n        /* \"contracts/lib/eai/EAI.sol\":25393:25441  _accessDateTime + timeToNextEndTime + OFFSETWEEK */\n      tag_390\n      swap2\n      swap1\n      tag_354\n      jump\t// in\n    tag_390:\n        /* \"contracts/lib/eai/EAI.sol\":25386:25441  return _accessDateTime + timeToNextEndTime + OFFSETWEEK */\n      swap3\n      pop\n      pop\n      pop\n      jump(tag_384)\n        /* \"contracts/lib/eai/EAI.sol\":25350:25453  if(_timeUnit == WEEK){... */\n    tag_388:\n        /* \"contracts/lib/eai/EAI.sol\":25490:25507  timeToNextEndTime */\n      dup1\n        /* \"contracts/lib/eai/EAI.sol\":25472:25487  _accessDateTime */\n      dup6\n        /* \"contracts/lib/eai/EAI.sol\":25472:25507  _accessDateTime + timeToNextEndTime */\n      tag_391\n      swap2\n      swap1\n      tag_354\n      jump\t// in\n    tag_391:\n        /* \"contracts/lib/eai/EAI.sol\":25465:25507  return _accessDateTime + timeToNextEndTime */\n      swap3\n      pop\n      pop\n      pop\n        /* \"contracts/lib/eai/EAI.sol\":25018:25515  function calcNextEndTimeForSecMinHrDayOrWeek(... */\n    tag_384:\n      swap4\n      swap3\n      pop\n      pop\n      pop\n      jump\t// out\n    tag_63:\n      pop\n      dup1\n      sload\n      tag_392\n      swap1\n      tag_116\n      jump\t// in\n    tag_392:\n      0x00\n      dup3\n      sstore\n      dup1\n      0x1f\n      lt\n      tag_394\n      jumpi\n      pop\n      jump(tag_393)\n    tag_394:\n      0x1f\n      add\n      0x20\n      swap1\n      div\n      swap1\n      0x00\n      mstore\n      keccak256(0x00, 0x20)\n      swap1\n      dup2\n      add\n      swap1\n      tag_395\n      swap2\n      swap1\n      tag_396\n      jump\t// in\n    tag_395:\n    tag_393:\n      pop\n      jump\t// out\n    tag_66:\n      dup3\n      dup1\n      sload\n      tag_397\n      swap1\n      tag_116\n      jump\t// in\n    tag_397:\n      swap1\n      0x00\n      mstore\n      keccak256(0x00, 0x20)\n      swap1\n      0x1f\n      add\n      0x20\n      swap1\n      div\n      dup2\n      add\n      swap3\n      dup3\n      tag_399\n      jumpi\n      0x00\n      dup6\n      sstore\n      jump(tag_398)\n    tag_399:\n      dup3\n      0x1f\n      lt\n      tag_400\n      jumpi\n      dup1\n      mload\n      not(0xff)\n      and\n      dup4\n      dup1\n      add\n      or\n      dup6\n      sstore\n      jump(tag_398)\n    tag_400:\n      dup3\n      dup1\n      add\n      0x01\n      add\n      dup6\n      sstore\n      dup3\n      iszero\n      tag_398\n      jumpi\n      swap2\n      dup3\n      add\n    tag_401:\n      dup3\n      dup2\n      gt\n      iszero\n      tag_402\n      jumpi\n      dup3\n      mload\n      dup3\n      sstore\n      swap2\n      0x20\n      add\n      swap2\n      swap1\n      0x01\n      add\n      swap1\n      jump(tag_401)\n    tag_402:\n    tag_398:\n      pop\n      swap1\n      pop\n      tag_403\n      swap2\n      swap1\n      tag_396\n      jump\t// in\n    tag_403:\n      pop\n      swap1\n      jump\t// out\n    tag_170:\n      mload(0x40)\n      dup1\n      0x60\n      add\n      0x40\n      mstore\n      dup1\n      0x60\n      dup2\n      mstore\n      0x20\n      add\n      and(0xffffffffffffffffffffffffffffffffffffffff, 0x00)\n      dup2\n      mstore\n      0x20\n      add\n      iszero(iszero(0x00))\n      dup2\n      mstore\n      pop\n      swap1\n      jump\t// out\n    tag_186:\n      mload(0x40)\n      dup1\n      0x40\n      add\n      0x40\n      mstore\n      dup1\n      and(0xff, 0x00)\n      dup2\n      mstore\n      0x20\n      add\n      and(0xff, 0x00)\n      dup2\n      mstore\n      pop\n      swap1\n      jump\t// out\n    tag_198:\n      mload(0x40)\n      dup1\n      0x40\n      add\n      0x40\n      mstore\n      dup1\n      and(0xffffffff, 0x00)\n      dup2\n      mstore\n      0x20\n      add\n      and(0xffffffff, 0x00)\n      dup2\n      mstore\n      pop\n      swap1\n      jump\t// out\n    tag_208:\n      mload(0x40)\n      dup1\n      0xa0\n      add\n      0x40\n      mstore\n      dup1\n      and(0xffffffff, 0x00)\n      dup2\n      mstore\n      0x20\n      add\n      and(0xff, 0x00)\n      dup2\n      mstore\n      0x20\n      add\n      and(0xffffffff, 0x00)\n      dup2\n      mstore\n      0x20\n      add\n      and(0xffffffff, 0x00)\n      dup2\n      mstore\n      0x20\n      add\n      and(0xffffffff, 0x00)\n      dup2\n      mstore\n      pop\n      swap1\n      jump\t// out\n    tag_215:\n      mload(0x40)\n      dup1\n      0x60\n      add\n      0x40\n      mstore\n      dup1\n      0x60\n      dup2\n      mstore\n      0x20\n      add\n      0x60\n      dup2\n      mstore\n      0x20\n      add\n      0x00\n      dup2\n      mstore\n      pop\n      swap1\n      jump\t// out\n    tag_218:\n      mload(0x40)\n      dup1\n      0xe0\n      add\n      0x40\n      mstore\n      dup1\n      0x60\n      dup2\n      mstore\n      0x20\n      add\n      0x60\n      dup2\n      mstore\n      0x20\n      add\n      0x00\n      dup2\n      mstore\n      0x20\n      add\n      and(0xff, 0x00)\n      dup2\n      mstore\n      0x20\n      add\n      and(0xffffffff, 0x00)\n      dup2\n      mstore\n      0x20\n      add\n      0x00\n      dup2\n      mstore\n      0x20\n      add\n      and(0xffffffff, 0x00)\n      dup2\n      mstore\n      pop\n      swap1\n      jump\t// out\n    tag_232:\n      dup3\n      dup1\n      sload\n      tag_404\n      swap1\n      tag_116\n      jump\t// in\n    tag_404:\n      swap1\n      0x00\n      mstore\n      keccak256(0x00, 0x20)\n      swap1\n      0x1f\n      add\n      0x20\n      swap1\n      div\n      dup2\n      add\n      swap3\n      dup3\n      tag_406\n      jumpi\n      0x00\n      dup6\n      sstore\n      jump(tag_405)\n    tag_406:\n      dup3\n      0x1f\n      lt\n      tag_407\n      jumpi\n      dup1\n      sload\n      dup6\n      sstore\n      jump(tag_405)\n    tag_407:\n      dup3\n      dup1\n      add\n      0x01\n      add\n      dup6\n      sstore\n      dup3\n      iszero\n      tag_405\n      jumpi\n      0x00\n      mstore\n      keccak256(0x00, 0x20)\n      swap2\n      0x1f\n      add\n      0x20\n      swap1\n      div\n      dup3\n      add\n    tag_408:\n      dup3\n      dup2\n      gt\n      iszero\n      tag_409\n      jumpi\n      dup3\n      sload\n      dup3\n      sstore\n      swap2\n      0x01\n      add\n      swap2\n      swap1\n      0x01\n      add\n      swap1\n      jump(tag_408)\n    tag_409:\n    tag_405:\n      pop\n      swap1\n      pop\n      tag_410\n      swap2\n      swap1\n      tag_396\n      jump\t// in\n    tag_410:\n      pop\n      swap1\n      jump\t// out\n    tag_396:\n    tag_411:\n      dup1\n      dup3\n      gt\n      iszero\n      tag_412\n      jumpi\n      0x00\n      dup2\n      0x00\n      swap1\n      sstore\n      pop\n      0x01\n      add\n      jump(tag_411)\n    tag_412:\n      pop\n      swap1\n      jump\t// out\n        /* \"#utility.yul\":7:100   */\n    tag_413:\n        /* \"#utility.yul\":43:50   */\n      0x00\n        /* \"#utility.yul\":83:93   */\n      0xffffffff\n        /* \"#utility.yul\":76:81   */\n      dup3\n        /* \"#utility.yul\":72:94   */\n      and\n        /* \"#utility.yul\":61:94   */\n      swap1\n      pop\n        /* \"#utility.yul\":7:100   */\n      swap2\n      swap1\n      pop\n      jump\t// out\n        /* \"#utility.yul\":106:221   */\n    tag_414:\n        /* \"#utility.yul\":191:214   */\n      tag_499\n        /* \"#utility.yul\":208:213   */\n      dup2\n        /* \"#utility.yul\":191:214   */\n      tag_413\n      jump\t// in\n    tag_499:\n        /* \"#utility.yul\":186:189   */\n      dup3\n        /* \"#utility.yul\":179:215   */\n      mstore\n        /* \"#utility.yul\":106:221   */\n      pop\n      pop\n      jump\t// out\n        /* \"#utility.yul\":227:445   */\n    tag_14:\n        /* \"#utility.yul\":318:322   */\n      0x00\n        /* \"#utility.yul\":356:358   */\n      0x20\n        /* \"#utility.yul\":345:354   */\n      dup3\n        /* \"#utility.yul\":341:359   */\n      add\n        /* \"#utility.yul\":333:359   */\n      swap1\n      pop\n        /* \"#utility.yul\":369:438   */\n      tag_501\n        /* \"#utility.yul\":435:436   */\n      0x00\n        /* \"#utility.yul\":424:433   */\n      dup4\n        /* \"#utility.yul\":420:437   */\n      add\n        /* \"#utility.yul\":411:417   */\n      dup5\n        /* \"#utility.yul\":369:438   */\n      tag_414\n      jump\t// in\n    tag_501:\n        /* \"#utility.yul\":227:445   */\n      swap3\n      swap2\n      pop\n      pop\n      jump\t// out\n        /* \"#utility.yul\":451:526   */\n    tag_415:\n        /* \"#utility.yul\":484:490   */\n      0x00\n        /* \"#utility.yul\":517:519   */\n      0x40\n        /* \"#utility.yul\":511:520   */\n      mload\n        /* \"#utility.yul\":501:520   */\n      swap1\n      pop\n        /* \"#utility.yul\":451:526   */\n      swap1\n      jump\t// out\n        /* \"#utility.yul\":532:649   */\n    tag_416:\n        /* \"#utility.yul\":641:642   */\n      0x00\n        /* \"#utility.yul\":638:639   */\n      dup1\n        /* \"#utility.yul\":631:643   */\n      revert\n        /* \"#utility.yul\":655:772   */\n    tag_417:\n        /* \"#utility.yul\":764:765   */\n      0x00\n        /* \"#utility.yul\":761:762   */\n      dup1\n        /* \"#utility.yul\":754:766   */\n      revert\n        /* \"#utility.yul\":778:895   */\n    tag_418:\n        /* \"#utility.yul\":887:888   */\n      0x00\n        /* \"#utility.yul\":884:885   */\n      dup1\n        /* \"#utility.yul\":877:889   */\n      revert\n        /* \"#utility.yul\":901:1018   */\n    tag_419:\n        /* \"#utility.yul\":1010:1011   */\n      0x00\n        /* \"#utility.yul\":1007:1008   */\n      dup1\n        /* \"#utility.yul\":1000:1012   */\n      revert\n        /* \"#utility.yul\":1024:1126   */\n    tag_420:\n        /* \"#utility.yul\":1065:1071   */\n      0x00\n        /* \"#utility.yul\":1116:1118   */\n      0x1f\n        /* \"#utility.yul\":1112:1119   */\n      not\n        /* \"#utility.yul\":1107:1109   */\n      0x1f\n        /* \"#utility.yul\":1100:1105   */\n      dup4\n        /* \"#utility.yul\":1096:1110   */\n      add\n        /* \"#utility.yul\":1092:1120   */\n      and\n        /* \"#utility.yul\":1082:1120   */\n      swap1\n      pop\n        /* \"#utility.yul\":1024:1126   */\n      swap2\n      swap1\n      pop\n      jump\t// out\n        /* \"#utility.yul\":1132:1312   */\n    tag_340:\n        /* \"#utility.yul\":1180:1257   */\n      0x4e487b7100000000000000000000000000000000000000000000000000000000\n        /* \"#utility.yul\":1177:1178   */\n      0x00\n        /* \"#utility.yul\":1170:1258   */\n      mstore\n        /* \"#utility.yul\":1277:1281   */\n      0x41\n        /* \"#utility.yul\":1274:1275   */\n      0x04\n        /* \"#utility.yul\":1267:1282   */\n      mstore\n        /* \"#utility.yul\":1301:1305   */\n      0x24\n        /* \"#utility.yul\":1298:1299   */\n      0x00\n        /* \"#utility.yul\":1291:1306   */\n      revert\n        /* \"#utility.yul\":1318:1599   */\n    tag_421:\n        /* \"#utility.yul\":1401:1428   */\n      tag_510\n        /* \"#utility.yul\":1423:1427   */\n      dup3\n        /* \"#utility.yul\":1401:1428   */\n      tag_420\n      jump\t// in\n    tag_510:\n        /* \"#utility.yul\":1393:1399   */\n      dup2\n        /* \"#utility.yul\":1389:1429   */\n      add\n        /* \"#utility.yul\":1531:1537   */\n      dup2\n        /* \"#utility.yul\":1519:1529   */\n      dup2\n        /* \"#utility.yul\":1516:1538   */\n      lt\n        /* \"#utility.yul\":1495:1513   */\n      0xffffffffffffffff\n        /* \"#utility.yul\":1483:1493   */\n      dup3\n        /* \"#utility.yul\":1480:1514   */\n      gt\n        /* \"#utility.yul\":1477:1539   */\n      or\n        /* \"#utility.yul\":1474:1562   */\n      iszero\n      tag_511\n      jumpi\n        /* \"#utility.yul\":1542:1560   */\n      tag_512\n      tag_340\n      jump\t// in\n    tag_512:\n        /* \"#utility.yul\":1474:1562   */\n    tag_511:\n        /* \"#utility.yul\":1582:1592   */\n      dup1\n        /* \"#utility.yul\":1578:1580   */\n      0x40\n        /* \"#utility.yul\":1571:1593   */\n      mstore\n        /* \"#utility.yul\":1361:1599   */\n      pop\n        /* \"#utility.yul\":1318:1599   */\n      pop\n      pop\n      jump\t// out\n        /* \"#utility.yul\":1605:1734   */\n    tag_422:\n        /* \"#utility.yul\":1639:1645   */\n      0x00\n        /* \"#utility.yul\":1666:1686   */\n      tag_514\n      tag_415\n      jump\t// in\n    tag_514:\n        /* \"#utility.yul\":1656:1686   */\n      swap1\n      pop\n        /* \"#utility.yul\":1695:1728   */\n      tag_515\n        /* \"#utility.yul\":1723:1727   */\n      dup3\n        /* \"#utility.yul\":1715:1721   */\n      dup3\n        /* \"#utility.yul\":1695:1728   */\n      tag_421\n      jump\t// in\n    tag_515:\n        /* \"#utility.yul\":1605:1734   */\n      swap2\n      swap1\n      pop\n      jump\t// out\n        /* \"#utility.yul\":1740:2048   */\n    tag_423:\n        /* \"#utility.yul\":1802:1806   */\n      0x00\n        /* \"#utility.yul\":1892:1910   */\n      0xffffffffffffffff\n        /* \"#utility.yul\":1884:1890   */\n      dup3\n        /* \"#utility.yul\":1881:1911   */\n      gt\n        /* \"#utility.yul\":1878:1934   */\n      iszero\n      tag_517\n      jumpi\n        /* \"#utility.yul\":1914:1932   */\n      tag_518\n      tag_340\n      jump\t// in\n    tag_518:\n        /* \"#utility.yul\":1878:1934   */\n    tag_517:\n        /* \"#utility.yul\":1952:1981   */\n      tag_519\n        /* \"#utility.yul\":1974:1980   */\n      dup3\n        /* \"#utility.yul\":1952:1981   */\n      tag_420\n      jump\t// in\n    tag_519:\n        /* \"#utility.yul\":1944:1981   */\n      swap1\n      pop\n        /* \"#utility.yul\":2036:2040   */\n      0x20\n        /* \"#utility.yul\":2030:2034   */\n      dup2\n        /* \"#utility.yul\":2026:2041   */\n      add\n        /* \"#utility.yul\":2018:2041   */\n      swap1\n      pop\n        /* \"#utility.yul\":1740:2048   */\n      swap2\n      swap1\n      pop\n      jump\t// out\n        /* \"#utility.yul\":2054:2208   */\n    tag_424:\n        /* \"#utility.yul\":2138:2144   */\n      dup3\n        /* \"#utility.yul\":2133:2136   */\n      dup2\n        /* \"#utility.yul\":2128:2131   */\n      dup4\n        /* \"#utility.yul\":2115:2145   */\n      calldatacopy\n        /* \"#utility.yul\":2200:2201   */\n      0x00\n        /* \"#utility.yul\":2191:2197   */\n      dup4\n        /* \"#utility.yul\":2186:2189   */\n      dup4\n        /* \"#utility.yul\":2182:2198   */\n      add\n        /* \"#utility.yul\":2175:2202   */\n      mstore\n        /* \"#utility.yul\":2054:2208   */\n      pop\n      pop\n      pop\n      jump\t// out\n        /* \"#utility.yul\":2214:2626   */\n    tag_425:\n        /* \"#utility.yul\":2292:2297   */\n      0x00\n        /* \"#utility.yul\":2317:2383   */\n      tag_522\n        /* \"#utility.yul\":2333:2382   */\n      tag_523\n        /* \"#utility.yul\":2375:2381   */\n      dup5\n        /* \"#utility.yul\":2333:2382   */\n      tag_423\n      jump\t// in\n    tag_523:\n        /* \"#utility.yul\":2317:2383   */\n      tag_422\n      jump\t// in\n    tag_522:\n        /* \"#utility.yul\":2308:2383   */\n      swap1\n      pop\n        /* \"#utility.yul\":2406:2412   */\n      dup3\n        /* \"#utility.yul\":2399:2404   */\n      dup2\n        /* \"#utility.yul\":2392:2413   */\n      mstore\n        /* \"#utility.yul\":2444:2448   */\n      0x20\n        /* \"#utility.yul\":2437:2442   */\n      dup2\n        /* \"#utility.yul\":2433:2449   */\n      add\n        /* \"#utility.yul\":2482:2485   */\n      dup5\n        /* \"#utility.yul\":2473:2479   */\n      dup5\n        /* \"#utility.yul\":2468:2471   */\n      dup5\n        /* \"#utility.yul\":2464:2480   */\n      add\n        /* \"#utility.yul\":2461:2486   */\n      gt\n        /* \"#utility.yul\":2458:2570   */\n      iszero\n      tag_524\n      jumpi\n        /* \"#utility.yul\":2489:2568   */\n      tag_525\n      tag_419\n      jump\t// in\n    tag_525:\n        /* \"#utility.yul\":2458:2570   */\n    tag_524:\n        /* \"#utility.yul\":2579:2620   */\n      tag_526\n        /* \"#utility.yul\":2613:2619   */\n      dup5\n        /* \"#utility.yul\":2608:2611   */\n      dup3\n        /* \"#utility.yul\":2603:2606   */\n      dup6\n        /* \"#utility.yul\":2579:2620   */\n      tag_424\n      jump\t// in\n    tag_526:\n        /* \"#utility.yul\":2298:2626   */\n      pop\n        /* \"#utility.yul\":2214:2626   */\n      swap4\n      swap3\n      pop\n      pop\n      pop\n      jump\t// out\n        /* \"#utility.yul\":2646:2986   */\n    tag_426:\n        /* \"#utility.yul\":2702:2707   */\n      0x00\n        /* \"#utility.yul\":2751:2754   */\n      dup3\n        /* \"#utility.yul\":2744:2748   */\n      0x1f\n        /* \"#utility.yul\":2736:2742   */\n      dup4\n        /* \"#utility.yul\":2732:2749   */\n      add\n        /* \"#utility.yul\":2728:2755   */\n      slt\n        /* \"#utility.yul\":2718:2840   */\n      tag_528\n      jumpi\n        /* \"#utility.yul\":2759:2838   */\n      tag_529\n      tag_418\n      jump\t// in\n    tag_529:\n        /* \"#utility.yul\":2718:2840   */\n    tag_528:\n        /* \"#utility.yul\":2876:2882   */\n      dup2\n        /* \"#utility.yul\":2863:2883   */\n      calldataload\n        /* \"#utility.yul\":2901:2980   */\n      tag_530\n        /* \"#utility.yul\":2976:2979   */\n      dup5\n        /* \"#utility.yul\":2968:2974   */\n      dup3\n        /* \"#utility.yul\":2961:2965   */\n      0x20\n        /* \"#utility.yul\":2953:2959   */\n      dup7\n        /* \"#utility.yul\":2949:2966   */\n      add\n        /* \"#utility.yul\":2901:2980   */\n      tag_425\n      jump\t// in\n    tag_530:\n        /* \"#utility.yul\":2892:2980   */\n      swap2\n      pop\n        /* \"#utility.yul\":2708:2986   */\n      pop\n        /* \"#utility.yul\":2646:2986   */\n      swap3\n      swap2\n      pop\n      pop\n      jump\t// out\n        /* \"#utility.yul\":2992:3118   */\n    tag_427:\n        /* \"#utility.yul\":3029:3036   */\n      0x00\n        /* \"#utility.yul\":3069:3111   */\n      0xffffffffffffffffffffffffffffffffffffffff\n        /* \"#utility.yul\":3062:3067   */\n      dup3\n        /* \"#utility.yul\":3058:3112   */\n      and\n        /* \"#utility.yul\":3047:3112   */\n      swap1\n      pop\n        /* \"#utility.yul\":2992:3118   */\n      swap2\n      swap1\n      pop\n      jump\t// out\n        /* \"#utility.yul\":3124:3220   */\n    tag_428:\n        /* \"#utility.yul\":3161:3168   */\n      0x00\n        /* \"#utility.yul\":3190:3214   */\n      tag_533\n        /* \"#utility.yul\":3208:3213   */\n      dup3\n        /* \"#utility.yul\":3190:3214   */\n      tag_427\n      jump\t// in\n    tag_533:\n        /* \"#utility.yul\":3179:3214   */\n      swap1\n      pop\n        /* \"#utility.yul\":3124:3220   */\n      swap2\n      swap1\n      pop\n      jump\t// out\n        /* \"#utility.yul\":3226:3348   */\n    tag_429:\n        /* \"#utility.yul\":3299:3323   */\n      tag_535\n        /* \"#utility.yul\":3317:3322   */\n      dup2\n        /* \"#utility.yul\":3299:3323   */\n      tag_428\n      jump\t// in\n    tag_535:\n        /* \"#utility.yul\":3292:3297   */\n      dup2\n        /* \"#utility.yul\":3289:3324   */\n      eq\n        /* \"#utility.yul\":3279:3342   */\n      tag_536\n      jumpi\n        /* \"#utility.yul\":3338:3339   */\n      0x00\n        /* \"#utility.yul\":3335:3336   */\n      dup1\n        /* \"#utility.yul\":3328:3340   */\n      revert\n        /* \"#utility.yul\":3279:3342   */\n    tag_536:\n        /* \"#utility.yul\":3226:3348   */\n      pop\n      jump\t// out\n        /* \"#utility.yul\":3354:3493   */\n    tag_430:\n        /* \"#utility.yul\":3400:3405   */\n      0x00\n        /* \"#utility.yul\":3438:3444   */\n      dup2\n        /* \"#utility.yul\":3425:3445   */\n      calldataload\n        /* \"#utility.yul\":3416:3445   */\n      swap1\n      pop\n        /* \"#utility.yul\":3454:3487   */\n      tag_538\n        /* \"#utility.yul\":3481:3486   */\n      dup2\n        /* \"#utility.yul\":3454:3487   */\n      tag_429\n      jump\t// in\n    tag_538:\n        /* \"#utility.yul\":3354:3493   */\n      swap3\n      swap2\n      pop\n      pop\n      jump\t// out\n        /* \"#utility.yul\":3499:4153   */\n    tag_17:\n        /* \"#utility.yul\":3577:3583   */\n      0x00\n        /* \"#utility.yul\":3585:3591   */\n      dup1\n        /* \"#utility.yul\":3634:3636   */\n      0x40\n        /* \"#utility.yul\":3622:3631   */\n      dup4\n        /* \"#utility.yul\":3613:3620   */\n      dup6\n        /* \"#utility.yul\":3609:3632   */\n      sub\n        /* \"#utility.yul\":3605:3637   */\n      slt\n        /* \"#utility.yul\":3602:3721   */\n      iszero\n      tag_540\n      jumpi\n        /* \"#utility.yul\":3640:3719   */\n      tag_541\n      tag_416\n      jump\t// in\n    tag_541:\n        /* \"#utility.yul\":3602:3721   */\n    tag_540:\n        /* \"#utility.yul\":3788:3789   */\n      0x00\n        /* \"#utility.yul\":3777:3786   */\n      dup4\n        /* \"#utility.yul\":3773:3790   */\n      add\n        /* \"#utility.yul\":3760:3791   */\n      calldataload\n        /* \"#utility.yul\":3818:3836   */\n      0xffffffffffffffff\n        /* \"#utility.yul\":3810:3816   */\n      dup2\n        /* \"#utility.yul\":3807:3837   */\n      gt\n        /* \"#utility.yul\":3804:3921   */\n      iszero\n      tag_542\n      jumpi\n        /* \"#utility.yul\":3840:3919   */\n      tag_543\n      tag_417\n      jump\t// in\n    tag_543:\n        /* \"#utility.yul\":3804:3921   */\n    tag_542:\n        /* \"#utility.yul\":3945:4008   */\n      tag_544\n        /* \"#utility.yul\":4000:4007   */\n      dup6\n        /* \"#utility.yul\":3991:3997   */\n      dup3\n        /* \"#utility.yul\":3980:3989   */\n      dup7\n        /* \"#utility.yul\":3976:3998   */\n      add\n        /* \"#utility.yul\":3945:4008   */\n      tag_426\n      jump\t// in\n    tag_544:\n        /* \"#utility.yul\":3935:4008   */\n      swap3\n      pop\n        /* \"#utility.yul\":3731:4018   */\n      pop\n        /* \"#utility.yul\":4057:4059   */\n      0x20\n        /* \"#utility.yul\":4083:4136   */\n      tag_545\n        /* \"#utility.yul\":4128:4135   */\n      dup6\n        /* \"#utility.yul\":4119:4125   */\n      dup3\n        /* \"#utility.yul\":4108:4117   */\n      dup7\n        /* \"#utility.yul\":4104:4126   */\n      add\n        /* \"#utility.yul\":4083:4136   */\n      tag_430\n      jump\t// in\n    tag_545:\n        /* \"#utility.yul\":4073:4136   */\n      swap2\n      pop\n        /* \"#utility.yul\":4028:4146   */\n      pop\n        /* \"#utility.yul\":3499:4153   */\n      swap3\n      pop\n      swap3\n      swap1\n      pop\n      jump\t// out\n        /* \"#utility.yul\":4159:4249   */\n    tag_431:\n        /* \"#utility.yul\":4193:4200   */\n      0x00\n        /* \"#utility.yul\":4236:4241   */\n      dup2\n        /* \"#utility.yul\":4229:4242   */\n      iszero\n        /* \"#utility.yul\":4222:4243   */\n      iszero\n        /* \"#utility.yul\":4211:4243   */\n      swap1\n      pop\n        /* \"#utility.yul\":4159:4249   */\n      swap2\n      swap1\n      pop\n      jump\t// out\n        /* \"#utility.yul\":4255:4364   */\n    tag_432:\n        /* \"#utility.yul\":4336:4357   */\n      tag_548\n        /* \"#utility.yul\":4351:4356   */\n      dup2\n        /* \"#utility.yul\":4336:4357   */\n      tag_431\n      jump\t// in\n    tag_548:\n        /* \"#utility.yul\":4331:4334   */\n      dup3\n        /* \"#utility.yul\":4324:4358   */\n      mstore\n        /* \"#utility.yul\":4255:4364   */\n      pop\n      pop\n      jump\t// out\n        /* \"#utility.yul\":4370:4580   */\n    tag_20:\n        /* \"#utility.yul\":4457:4461   */\n      0x00\n        /* \"#utility.yul\":4495:4497   */\n      0x20\n        /* \"#utility.yul\":4484:4493   */\n      dup3\n        /* \"#utility.yul\":4480:4498   */\n      add\n        /* \"#utility.yul\":4472:4498   */\n      swap1\n      pop\n        /* \"#utility.yul\":4508:4573   */\n      tag_550\n        /* \"#utility.yul\":4570:4571   */\n      0x00\n        /* \"#utility.yul\":4559:4568   */\n      dup4\n        /* \"#utility.yul\":4555:4572   */\n      add\n        /* \"#utility.yul\":4546:4552   */\n      dup5\n        /* \"#utility.yul\":4508:4573   */\n      tag_432\n      jump\t// in\n    tag_550:\n        /* \"#utility.yul\":4370:4580   */\n      swap3\n      swap2\n      pop\n      pop\n      jump\t// out\n        /* \"#utility.yul\":4586:4704   */\n    tag_433:\n        /* \"#utility.yul\":4673:4697   */\n      tag_552\n        /* \"#utility.yul\":4691:4696   */\n      dup2\n        /* \"#utility.yul\":4673:4697   */\n      tag_428\n      jump\t// in\n    tag_552:\n        /* \"#utility.yul\":4668:4671   */\n      dup3\n        /* \"#utility.yul\":4661:4698   */\n      mstore\n        /* \"#utility.yul\":4586:4704   */\n      pop\n      pop\n      jump\t// out\n        /* \"#utility.yul\":4710:4932   */\n    tag_24:\n        /* \"#utility.yul\":4803:4807   */\n      0x00\n        /* \"#utility.yul\":4841:4843   */\n      0x20\n        /* \"#utility.yul\":4830:4839   */\n      dup3\n        /* \"#utility.yul\":4826:4844   */\n      add\n        /* \"#utility.yul\":4818:4844   */\n      swap1\n      pop\n        /* \"#utility.yul\":4854:4925   */\n      tag_554\n        /* \"#utility.yul\":4922:4923   */\n      0x00\n        /* \"#utility.yul\":4911:4920   */\n      dup4\n        /* \"#utility.yul\":4907:4924   */\n      add\n        /* \"#utility.yul\":4898:4904   */\n      dup5\n        /* \"#utility.yul\":4854:4925   */\n      tag_433\n      jump\t// in\n    tag_554:\n        /* \"#utility.yul\":4710:4932   */\n      swap3\n      swap2\n      pop\n      pop\n      jump\t// out\n        /* \"#utility.yul\":4938:5058   */\n    tag_434:\n        /* \"#utility.yul\":5010:5033   */\n      tag_556\n        /* \"#utility.yul\":5027:5032   */\n      dup2\n        /* \"#utility.yul\":5010:5033   */\n      tag_413\n      jump\t// in\n    tag_556:\n        /* \"#utility.yul\":5003:5008   */\n      dup2\n        /* \"#utility.yul\":5000:5034   */\n      eq\n        /* \"#utility.yul\":4990:5052   */\n      tag_557\n      jumpi\n        /* \"#utility.yul\":5048:5049   */\n      0x00\n        /* \"#utility.yul\":5045:5046   */\n      dup1\n        /* \"#utility.yul\":5038:5050   */\n      revert\n        /* \"#utility.yul\":4990:5052   */\n    tag_557:\n        /* \"#utility.yul\":4938:5058   */\n      pop\n      jump\t// out\n        /* \"#utility.yul\":5064:5201   */\n    tag_435:\n        /* \"#utility.yul\":5109:5114   */\n      0x00\n        /* \"#utility.yul\":5147:5153   */\n      dup2\n        /* \"#utility.yul\":5134:5154   */\n      calldataload\n        /* \"#utility.yul\":5125:5154   */\n      swap1\n      pop\n        /* \"#utility.yul\":5163:5195   */\n      tag_559\n        /* \"#utility.yul\":5189:5194   */\n      dup2\n        /* \"#utility.yul\":5163:5195   */\n      tag_434\n      jump\t// in\n    tag_559:\n        /* \"#utility.yul\":5064:5201   */\n      swap3\n      swap2\n      pop\n      pop\n      jump\t// out\n        /* \"#utility.yul\":5207:5293   */\n    tag_436:\n        /* \"#utility.yul\":5242:5249   */\n      0x00\n        /* \"#utility.yul\":5282:5286   */\n      0xff\n        /* \"#utility.yul\":5275:5280   */\n      dup3\n        /* \"#utility.yul\":5271:5287   */\n      and\n        /* \"#utility.yul\":5260:5287   */\n      swap1\n      pop\n        /* \"#utility.yul\":5207:5293   */\n      swap2\n      swap1\n      pop\n      jump\t// out\n        /* \"#utility.yul\":5299:5417   */\n    tag_437:\n        /* \"#utility.yul\":5370:5392   */\n      tag_562\n        /* \"#utility.yul\":5386:5391   */\n      dup2\n        /* \"#utility.yul\":5370:5392   */\n      tag_436\n      jump\t// in\n    tag_562:\n        /* \"#utility.yul\":5363:5368   */\n      dup2\n        /* \"#utility.yul\":5360:5393   */\n      eq\n        /* \"#utility.yul\":5350:5411   */\n      tag_563\n      jumpi\n        /* \"#utility.yul\":5407:5408   */\n      0x00\n        /* \"#utility.yul\":5404:5405   */\n      dup1\n        /* \"#utility.yul\":5397:5409   */\n      revert\n        /* \"#utility.yul\":5350:5411   */\n    tag_563:\n        /* \"#utility.yul\":5299:5417   */\n      pop\n      jump\t// out\n        /* \"#utility.yul\":5423:5558   */\n    tag_438:\n        /* \"#utility.yul\":5467:5472   */\n      0x00\n        /* \"#utility.yul\":5505:5511   */\n      dup2\n        /* \"#utility.yul\":5492:5512   */\n      calldataload\n        /* \"#utility.yul\":5483:5512   */\n      swap1\n      pop\n        /* \"#utility.yul\":5521:5552   */\n      tag_565\n        /* \"#utility.yul\":5546:5551   */\n      dup2\n        /* \"#utility.yul\":5521:5552   */\n      tag_437\n      jump\t// in\n    tag_565:\n        /* \"#utility.yul\":5423:5558   */\n      swap3\n      swap2\n      pop\n      pop\n      jump\t// out\n        /* \"#utility.yul\":5564:5874   */\n    tag_439:\n        /* \"#utility.yul\":5640:5644   */\n      0x00\n        /* \"#utility.yul\":5730:5748   */\n      0xffffffffffffffff\n        /* \"#utility.yul\":5722:5728   */\n      dup3\n        /* \"#utility.yul\":5719:5749   */\n      gt\n        /* \"#utility.yul\":5716:5772   */\n      iszero\n      tag_567\n      jumpi\n        /* \"#utility.yul\":5752:5770   */\n      tag_568\n      tag_340\n      jump\t// in\n    tag_568:\n        /* \"#utility.yul\":5716:5772   */\n    tag_567:\n        /* \"#utility.yul\":5802:5806   */\n      0x20\n        /* \"#utility.yul\":5794:5800   */\n      dup3\n        /* \"#utility.yul\":5790:5807   */\n      mul\n        /* \"#utility.yul\":5782:5807   */\n      swap1\n      pop\n        /* \"#utility.yul\":5862:5866   */\n      0x20\n        /* \"#utility.yul\":5856:5860   */\n      dup2\n        /* \"#utility.yul\":5852:5867   */\n      add\n        /* \"#utility.yul\":5844:5867   */\n      swap1\n      pop\n        /* \"#utility.yul\":5564:5874   */\n      swap2\n      swap1\n      pop\n      jump\t// out\n        /* \"#utility.yul\":5880:5997   */\n    tag_440:\n        /* \"#utility.yul\":5989:5990   */\n      0x00\n        /* \"#utility.yul\":5986:5987   */\n      dup1\n        /* \"#utility.yul\":5979:5991   */\n      revert\n        /* \"#utility.yul\":6003:6079   */\n    tag_441:\n        /* \"#utility.yul\":6039:6046   */\n      0x00\n        /* \"#utility.yul\":6068:6073   */\n      dup2\n        /* \"#utility.yul\":6057:6073   */\n      swap1\n      pop\n        /* \"#utility.yul\":6003:6079   */\n      swap2\n      swap1\n      pop\n      jump\t// out\n        /* \"#utility.yul\":6085:6205   */\n    tag_442:\n        /* \"#utility.yul\":6157:6180   */\n      tag_572\n        /* \"#utility.yul\":6174:6179   */\n      dup2\n        /* \"#utility.yul\":6157:6180   */\n      tag_441\n      jump\t// in\n    tag_572:\n        /* \"#utility.yul\":6150:6155   */\n      dup2\n        /* \"#utility.yul\":6147:6181   */\n      eq\n        /* \"#utility.yul\":6137:6199   */\n      tag_573\n      jumpi\n        /* \"#utility.yul\":6195:6196   */\n      0x00\n        /* \"#utility.yul\":6192:6193   */\n      dup1\n        /* \"#utility.yul\":6185:6197   */\n      revert\n        /* \"#utility.yul\":6137:6199   */\n    tag_573:\n        /* \"#utility.yul\":6085:6205   */\n      pop\n      jump\t// out\n        /* \"#utility.yul\":6211:6348   */\n    tag_443:\n        /* \"#utility.yul\":6256:6261   */\n      0x00\n        /* \"#utility.yul\":6294:6300   */\n      dup2\n        /* \"#utility.yul\":6281:6301   */\n      calldataload\n        /* \"#utility.yul\":6272:6301   */\n      swap1\n      pop\n        /* \"#utility.yul\":6310:6342   */\n      tag_575\n        /* \"#utility.yul\":6336:6341   */\n      dup2\n        /* \"#utility.yul\":6310:6342   */\n      tag_442\n      jump\t// in\n    tag_575:\n        /* \"#utility.yul\":6211:6348   */\n      swap3\n      swap2\n      pop\n      pop\n      jump\t// out\n        /* \"#utility.yul\":6370:7077   */\n    tag_444:\n        /* \"#utility.yul\":6465:6470   */\n      0x00\n        /* \"#utility.yul\":6490:6570   */\n      tag_577\n        /* \"#utility.yul\":6506:6569   */\n      tag_578\n        /* \"#utility.yul\":6562:6568   */\n      dup5\n        /* \"#utility.yul\":6506:6569   */\n      tag_439\n      jump\t// in\n    tag_578:\n        /* \"#utility.yul\":6490:6570   */\n      tag_422\n      jump\t// in\n    tag_577:\n        /* \"#utility.yul\":6481:6570   */\n      swap1\n      pop\n        /* \"#utility.yul\":6590:6595   */\n      dup1\n        /* \"#utility.yul\":6619:6625   */\n      dup4\n        /* \"#utility.yul\":6612:6617   */\n      dup3\n        /* \"#utility.yul\":6605:6626   */\n      mstore\n        /* \"#utility.yul\":6653:6657   */\n      0x20\n        /* \"#utility.yul\":6646:6651   */\n      dup3\n        /* \"#utility.yul\":6642:6658   */\n      add\n        /* \"#utility.yul\":6635:6658   */\n      swap1\n      pop\n        /* \"#utility.yul\":6706:6710   */\n      0x20\n        /* \"#utility.yul\":6698:6704   */\n      dup5\n        /* \"#utility.yul\":6694:6711   */\n      mul\n        /* \"#utility.yul\":6686:6692   */\n      dup4\n        /* \"#utility.yul\":6682:6712   */\n      add\n        /* \"#utility.yul\":6735:6738   */\n      dup6\n        /* \"#utility.yul\":6727:6733   */\n      dup2\n        /* \"#utility.yul\":6724:6739   */\n      gt\n        /* \"#utility.yul\":6721:6843   */\n      iszero\n      tag_579\n      jumpi\n        /* \"#utility.yul\":6754:6833   */\n      tag_580\n      tag_440\n      jump\t// in\n    tag_580:\n        /* \"#utility.yul\":6721:6843   */\n    tag_579:\n        /* \"#utility.yul\":6869:6875   */\n      dup4\n        /* \"#utility.yul\":6852:7071   */\n    tag_581:\n        /* \"#utility.yul\":6886:6892   */\n      dup2\n        /* \"#utility.yul\":6881:6884   */\n      dup2\n        /* \"#utility.yul\":6878:6893   */\n      lt\n        /* \"#utility.yul\":6852:7071   */\n      iszero\n      tag_583\n      jumpi\n        /* \"#utility.yul\":6961:6964   */\n      dup1\n        /* \"#utility.yul\":6990:7026   */\n      tag_584\n        /* \"#utility.yul\":7022:7025   */\n      dup9\n        /* \"#utility.yul\":7010:7020   */\n      dup3\n        /* \"#utility.yul\":6990:7026   */\n      tag_443\n      jump\t// in\n    tag_584:\n        /* \"#utility.yul\":6985:6988   */\n      dup5\n        /* \"#utility.yul\":6978:7027   */\n      mstore\n        /* \"#utility.yul\":7056:7060   */\n      0x20\n        /* \"#utility.yul\":7051:7054   */\n      dup5\n        /* \"#utility.yul\":7047:7061   */\n      add\n        /* \"#utility.yul\":7040:7061   */\n      swap4\n      pop\n        /* \"#utility.yul\":6928:7071   */\n      pop\n        /* \"#utility.yul\":6912:6916   */\n      0x20\n        /* \"#utility.yul\":6907:6910   */\n      dup2\n        /* \"#utility.yul\":6903:6917   */\n      add\n        /* \"#utility.yul\":6896:6917   */\n      swap1\n      pop\n        /* \"#utility.yul\":6852:7071   */\n      jump(tag_581)\n    tag_583:\n        /* \"#utility.yul\":6856:6877   */\n      pop\n        /* \"#utility.yul\":6471:7077   */\n      pop\n      pop\n        /* \"#utility.yul\":6370:7077   */\n      swap4\n      swap3\n      pop\n      pop\n      pop\n      jump\t// out\n        /* \"#utility.yul\":7099:7467   */\n    tag_445:\n        /* \"#utility.yul\":7169:7174   */\n      0x00\n        /* \"#utility.yul\":7218:7221   */\n      dup3\n        /* \"#utility.yul\":7211:7215   */\n      0x1f\n        /* \"#utility.yul\":7203:7209   */\n      dup4\n        /* \"#utility.yul\":7199:7216   */\n      add\n        /* \"#utility.yul\":7195:7222   */\n      slt\n        /* \"#utility.yul\":7185:7307   */\n      tag_586\n      jumpi\n        /* \"#utility.yul\":7226:7305   */\n      tag_587\n      tag_418\n      jump\t// in\n    tag_587:\n        /* \"#utility.yul\":7185:7307   */\n    tag_586:\n        /* \"#utility.yul\":7343:7349   */\n      dup2\n        /* \"#utility.yul\":7330:7350   */\n      calldataload\n        /* \"#utility.yul\":7368:7461   */\n      tag_588\n        /* \"#utility.yul\":7457:7460   */\n      dup5\n        /* \"#utility.yul\":7449:7455   */\n      dup3\n        /* \"#utility.yul\":7442:7446   */\n      0x20\n        /* \"#utility.yul\":7434:7440   */\n      dup7\n        /* \"#utility.yul\":7430:7447   */\n      add\n        /* \"#utility.yul\":7368:7461   */\n      tag_444\n      jump\t// in\n    tag_588:\n        /* \"#utility.yul\":7359:7461   */\n      swap2\n      pop\n        /* \"#utility.yul\":7175:7467   */\n      pop\n        /* \"#utility.yul\":7099:7467   */\n      swap3\n      swap2\n      pop\n      pop\n      jump\t// out\n        /* \"#utility.yul\":7473:7784   */\n    tag_446:\n        /* \"#utility.yul\":7550:7554   */\n      0x00\n        /* \"#utility.yul\":7640:7658   */\n      0xffffffffffffffff\n        /* \"#utility.yul\":7632:7638   */\n      dup3\n        /* \"#utility.yul\":7629:7659   */\n      gt\n        /* \"#utility.yul\":7626:7682   */\n      iszero\n      tag_590\n      jumpi\n        /* \"#utility.yul\":7662:7680   */\n      tag_591\n      tag_340\n      jump\t// in\n    tag_591:\n        /* \"#utility.yul\":7626:7682   */\n    tag_590:\n        /* \"#utility.yul\":7712:7716   */\n      0x20\n        /* \"#utility.yul\":7704:7710   */\n      dup3\n        /* \"#utility.yul\":7700:7717   */\n      mul\n        /* \"#utility.yul\":7692:7717   */\n      swap1\n      pop\n        /* \"#utility.yul\":7772:7776   */\n      0x20\n        /* \"#utility.yul\":7766:7770   */\n      dup2\n        /* \"#utility.yul\":7762:7777   */\n      add\n        /* \"#utility.yul\":7754:7777   */\n      swap1\n      pop\n        /* \"#utility.yul\":7473:7784   */\n      swap2\n      swap1\n      pop\n      jump\t// out\n        /* \"#utility.yul\":7790:7867   */\n    tag_447:\n        /* \"#utility.yul\":7827:7834   */\n      0x00\n        /* \"#utility.yul\":7856:7861   */\n      dup2\n        /* \"#utility.yul\":7845:7861   */\n      swap1\n      pop\n        /* \"#utility.yul\":7790:7867   */\n      swap2\n      swap1\n      pop\n      jump\t// out\n        /* \"#utility.yul\":7873:7995   */\n    tag_448:\n        /* \"#utility.yul\":7946:7970   */\n      tag_594\n        /* \"#utility.yul\":7964:7969   */\n      dup2\n        /* \"#utility.yul\":7946:7970   */\n      tag_447\n      jump\t// in\n    tag_594:\n        /* \"#utility.yul\":7939:7944   */\n      dup2\n        /* \"#utility.yul\":7936:7971   */\n      eq\n        /* \"#utility.yul\":7926:7989   */\n      tag_595\n      jumpi\n        /* \"#utility.yul\":7985:7986   */\n      0x00\n        /* \"#utility.yul\":7982:7983   */\n      dup1\n        /* \"#utility.yul\":7975:7987   */\n      revert\n        /* \"#utility.yul\":7926:7989   */\n    tag_595:\n        /* \"#utility.yul\":7873:7995   */\n      pop\n      jump\t// out\n        /* \"#utility.yul\":8001:8140   */\n    tag_449:\n        /* \"#utility.yul\":8047:8052   */\n      0x00\n        /* \"#utility.yul\":8085:8091   */\n      dup2\n        /* \"#utility.yul\":8072:8092   */\n      calldataload\n        /* \"#utility.yul\":8063:8092   */\n      swap1\n      pop\n        /* \"#utility.yul\":8101:8134   */\n      tag_597\n        /* \"#utility.yul\":8128:8133   */\n      dup2\n        /* \"#utility.yul\":8101:8134   */\n      tag_448\n      jump\t// in\n    tag_597:\n        /* \"#utility.yul\":8001:8140   */\n      swap3\n      swap2\n      pop\n      pop\n      jump\t// out\n        /* \"#utility.yul\":8163:8873   */\n    tag_450:\n        /* \"#utility.yul\":8259:8264   */\n      0x00\n        /* \"#utility.yul\":8284:8365   */\n      tag_599\n        /* \"#utility.yul\":8300:8364   */\n      tag_600\n        /* \"#utility.yul\":8357:8363   */\n      dup5\n        /* \"#utility.yul\":8300:8364   */\n      tag_446\n      jump\t// in\n    tag_600:\n        /* \"#utility.yul\":8284:8365   */\n      tag_422\n      jump\t// in\n    tag_599:\n        /* \"#utility.yul\":8275:8365   */\n      swap1\n      pop\n        /* \"#utility.yul\":8385:8390   */\n      dup1\n        /* \"#utility.yul\":8414:8420   */\n      dup4\n        /* \"#utility.yul\":8407:8412   */\n      dup3\n        /* \"#utility.yul\":8400:8421   */\n      mstore\n        /* \"#utility.yul\":8448:8452   */\n      0x20\n        /* \"#utility.yul\":8441:8446   */\n      dup3\n        /* \"#utility.yul\":8437:8453   */\n      add\n        /* \"#utility.yul\":8430:8453   */\n      swap1\n      pop\n        /* \"#utility.yul\":8501:8505   */\n      0x20\n        /* \"#utility.yul\":8493:8499   */\n      dup5\n        /* \"#utility.yul\":8489:8506   */\n      mul\n        /* \"#utility.yul\":8481:8487   */\n      dup4\n        /* \"#utility.yul\":8477:8507   */\n      add\n        /* \"#utility.yul\":8530:8533   */\n      dup6\n        /* \"#utility.yul\":8522:8528   */\n      dup2\n        /* \"#utility.yul\":8519:8534   */\n      gt\n        /* \"#utility.yul\":8516:8638   */\n      iszero\n      tag_601\n      jumpi\n        /* \"#utility.yul\":8549:8628   */\n      tag_602\n      tag_440\n      jump\t// in\n    tag_602:\n        /* \"#utility.yul\":8516:8638   */\n    tag_601:\n        /* \"#utility.yul\":8664:8670   */\n      dup4\n        /* \"#utility.yul\":8647:8867   */\n    tag_603:\n        /* \"#utility.yul\":8681:8687   */\n      dup2\n        /* \"#utility.yul\":8676:8679   */\n      dup2\n        /* \"#utility.yul\":8673:8688   */\n      lt\n        /* \"#utility.yul\":8647:8867   */\n      iszero\n      tag_605\n      jumpi\n        /* \"#utility.yul\":8756:8759   */\n      dup1\n        /* \"#utility.yul\":8785:8822   */\n      tag_606\n        /* \"#utility.yul\":8818:8821   */\n      dup9\n        /* \"#utility.yul\":8806:8816   */\n      dup3\n        /* \"#utility.yul\":8785:8822   */\n      tag_449\n      jump\t// in\n    tag_606:\n        /* \"#utility.yul\":8780:8783   */\n      dup5\n        /* \"#utility.yul\":8773:8823   */\n      mstore\n        /* \"#utility.yul\":8852:8856   */\n      0x20\n        /* \"#utility.yul\":8847:8850   */\n      dup5\n        /* \"#utility.yul\":8843:8857   */\n      add\n        /* \"#utility.yul\":8836:8857   */\n      swap4\n      pop\n        /* \"#utility.yul\":8723:8867   */\n      pop\n        /* \"#utility.yul\":8707:8711   */\n      0x20\n        /* \"#utility.yul\":8702:8705   */\n      dup2\n        /* \"#utility.yul\":8698:8712   */\n      add\n        /* \"#utility.yul\":8691:8712   */\n      swap1\n      pop\n        /* \"#utility.yul\":8647:8867   */\n      jump(tag_603)\n    tag_605:\n        /* \"#utility.yul\":8651:8672   */\n      pop\n        /* \"#utility.yul\":8265:8873   */\n      pop\n      pop\n        /* \"#utility.yul\":8163:8873   */\n      swap4\n      swap3\n      pop\n      pop\n      pop\n      jump\t// out\n        /* \"#utility.yul\":8896:9266   */\n    tag_451:\n        /* \"#utility.yul\":8967:8972   */\n      0x00\n        /* \"#utility.yul\":9016:9019   */\n      dup3\n        /* \"#utility.yul\":9009:9013   */\n      0x1f\n        /* \"#utility.yul\":9001:9007   */\n      dup4\n        /* \"#utility.yul\":8997:9014   */\n      add\n        /* \"#utility.yul\":8993:9020   */\n      slt\n        /* \"#utility.yul\":8983:9105   */\n      tag_608\n      jumpi\n        /* \"#utility.yul\":9024:9103   */\n      tag_609\n      tag_418\n      jump\t// in\n    tag_609:\n        /* \"#utility.yul\":8983:9105   */\n    tag_608:\n        /* \"#utility.yul\":9141:9147   */\n      dup2\n        /* \"#utility.yul\":9128:9148   */\n      calldataload\n        /* \"#utility.yul\":9166:9260   */\n      tag_610\n        /* \"#utility.yul\":9256:9259   */\n      dup5\n        /* \"#utility.yul\":9248:9254   */\n      dup3\n        /* \"#utility.yul\":9241:9245   */\n      0x20\n        /* \"#utility.yul\":9233:9239   */\n      dup7\n        /* \"#utility.yul\":9229:9246   */\n      add\n        /* \"#utility.yul\":9166:9260   */\n      tag_450\n      jump\t// in\n    tag_610:\n        /* \"#utility.yul\":9157:9260   */\n      swap2\n      pop\n        /* \"#utility.yul\":8973:9266   */\n      pop\n        /* \"#utility.yul\":8896:9266   */\n      swap3\n      swap2\n      pop\n      pop\n      jump\t// out\n        /* \"#utility.yul\":9272:10593   */\n    tag_30:\n        /* \"#utility.yul\":9412:9418   */\n      0x00\n        /* \"#utility.yul\":9420:9426   */\n      dup1\n        /* \"#utility.yul\":9428:9434   */\n      0x00\n        /* \"#utility.yul\":9436:9442   */\n      dup1\n        /* \"#utility.yul\":9444:9450   */\n      0x00\n        /* \"#utility.yul\":9493:9496   */\n      0xa0\n        /* \"#utility.yul\":9481:9490   */\n      dup7\n        /* \"#utility.yul\":9472:9479   */\n      dup9\n        /* \"#utility.yul\":9468:9491   */\n      sub\n        /* \"#utility.yul\":9464:9497   */\n      slt\n        /* \"#utility.yul\":9461:9581   */\n      iszero\n      tag_612\n      jumpi\n        /* \"#utility.yul\":9500:9579   */\n      tag_613\n      tag_416\n      jump\t// in\n    tag_613:\n        /* \"#utility.yul\":9461:9581   */\n    tag_612:\n        /* \"#utility.yul\":9620:9621   */\n      0x00\n        /* \"#utility.yul\":9645:9697   */\n      tag_614\n        /* \"#utility.yul\":9689:9696   */\n      dup9\n        /* \"#utility.yul\":9680:9686   */\n      dup3\n        /* \"#utility.yul\":9669:9678   */\n      dup10\n        /* \"#utility.yul\":9665:9687   */\n      add\n        /* \"#utility.yul\":9645:9697   */\n      tag_435\n      jump\t// in\n    tag_614:\n        /* \"#utility.yul\":9635:9697   */\n      swap6\n      pop\n        /* \"#utility.yul\":9591:9707   */\n      pop\n        /* \"#utility.yul\":9746:9748   */\n      0x20\n        /* \"#utility.yul\":9772:9823   */\n      tag_615\n        /* \"#utility.yul\":9815:9822   */\n      dup9\n        /* \"#utility.yul\":9806:9812   */\n      dup3\n        /* \"#utility.yul\":9795:9804   */\n      dup10\n        /* \"#utility.yul\":9791:9813   */\n      add\n        /* \"#utility.yul\":9772:9823   */\n      tag_438\n      jump\t// in\n    tag_615:\n        /* \"#utility.yul\":9762:9823   */\n      swap5\n      pop\n        /* \"#utility.yul\":9717:9833   */\n      pop\n        /* \"#utility.yul\":9872:9874   */\n      0x40\n        /* \"#utility.yul\":9898:9950   */\n      tag_616\n        /* \"#utility.yul\":9942:9949   */\n      dup9\n        /* \"#utility.yul\":9933:9939   */\n      dup3\n        /* \"#utility.yul\":9922:9931   */\n      dup10\n        /* \"#utility.yul\":9918:9940   */\n      add\n        /* \"#utility.yul\":9898:9950   */\n      tag_435\n      jump\t// in\n    tag_616:\n        /* \"#utility.yul\":9888:9950   */\n      swap4\n      pop\n        /* \"#utility.yul\":9843:9960   */\n      pop\n        /* \"#utility.yul\":10027:10029   */\n      0x60\n        /* \"#utility.yul\":10016:10025   */\n      dup7\n        /* \"#utility.yul\":10012:10030   */\n      add\n        /* \"#utility.yul\":9999:10031   */\n      calldataload\n        /* \"#utility.yul\":10058:10076   */\n      0xffffffffffffffff\n        /* \"#utility.yul\":10050:10056   */\n      dup2\n        /* \"#utility.yul\":10047:10077   */\n      gt\n        /* \"#utility.yul\":10044:10161   */\n      iszero\n      tag_617\n      jumpi\n        /* \"#utility.yul\":10080:10159   */\n      tag_618\n      tag_417\n      jump\t// in\n    tag_618:\n        /* \"#utility.yul\":10044:10161   */\n    tag_617:\n        /* \"#utility.yul\":10185:10262   */\n      tag_619\n        /* \"#utility.yul\":10254:10261   */\n      dup9\n        /* \"#utility.yul\":10245:10251   */\n      dup3\n        /* \"#utility.yul\":10234:10243   */\n      dup10\n        /* \"#utility.yul\":10230:10252   */\n      add\n        /* \"#utility.yul\":10185:10262   */\n      tag_445\n      jump\t// in\n    tag_619:\n        /* \"#utility.yul\":10175:10262   */\n      swap3\n      pop\n        /* \"#utility.yul\":9970:10272   */\n      pop\n        /* \"#utility.yul\":10339:10342   */\n      0x80\n        /* \"#utility.yul\":10328:10337   */\n      dup7\n        /* \"#utility.yul\":10324:10343   */\n      add\n        /* \"#utility.yul\":10311:10344   */\n      calldataload\n        /* \"#utility.yul\":10371:10389   */\n      0xffffffffffffffff\n        /* \"#utility.yul\":10363:10369   */\n      dup2\n        /* \"#utility.yul\":10360:10390   */\n      gt\n        /* \"#utility.yul\":10357:10474   */\n      iszero\n      tag_620\n      jumpi\n        /* \"#utility.yul\":10393:10472   */\n      tag_621\n      tag_417\n      jump\t// in\n    tag_621:\n        /* \"#utility.yul\":10357:10474   */\n    tag_620:\n        /* \"#utility.yul\":10498:10576   */\n      tag_622\n        /* \"#utility.yul\":10568:10575   */\n      dup9\n        /* \"#utility.yul\":10559:10565   */\n      dup3\n        /* \"#utility.yul\":10548:10557   */\n      dup10\n        /* \"#utility.yul\":10544:10566   */\n      add\n        /* \"#utility.yul\":10498:10576   */\n      tag_451\n      jump\t// in\n    tag_622:\n        /* \"#utility.yul\":10488:10576   */\n      swap2\n      pop\n        /* \"#utility.yul\":10282:10586   */\n      pop\n        /* \"#utility.yul\":9272:10593   */\n      swap3\n      swap6\n      pop\n      swap3\n      swap6\n      swap1\n      swap4\n      pop\n      jump\t// out\n        /* \"#utility.yul\":10599:10928   */\n    tag_38:\n        /* \"#utility.yul\":10658:10664   */\n      0x00\n        /* \"#utility.yul\":10707:10709   */\n      0x20\n        /* \"#utility.yul\":10695:10704   */\n      dup3\n        /* \"#utility.yul\":10686:10693   */\n      dup5\n        /* \"#utility.yul\":10682:10705   */\n      sub\n        /* \"#utility.yul\":10678:10710   */\n      slt\n        /* \"#utility.yul\":10675:10794   */\n      iszero\n      tag_624\n      jumpi\n        /* \"#utility.yul\":10713:10792   */\n      tag_625\n      tag_416\n      jump\t// in\n    tag_625:\n        /* \"#utility.yul\":10675:10794   */\n    tag_624:\n        /* \"#utility.yul\":10833:10834   */\n      0x00\n        /* \"#utility.yul\":10858:10911   */\n      tag_626\n        /* \"#utility.yul\":10903:10910   */\n      dup5\n        /* \"#utility.yul\":10894:10900   */\n      dup3\n        /* \"#utility.yul\":10883:10892   */\n      dup6\n        /* \"#utility.yul\":10879:10901   */\n      add\n        /* \"#utility.yul\":10858:10911   */\n      tag_430\n      jump\t// in\n    tag_626:\n        /* \"#utility.yul\":10848:10911   */\n      swap2\n      pop\n        /* \"#utility.yul\":10804:10921   */\n      pop\n        /* \"#utility.yul\":10599:10928   */\n      swap3\n      swap2\n      pop\n      pop\n      jump\t// out\n        /* \"#utility.yul\":10934:11033   */\n    tag_452:\n        /* \"#utility.yul\":10986:10992   */\n      0x00\n        /* \"#utility.yul\":11020:11025   */\n      dup2\n        /* \"#utility.yul\":11014:11026   */\n      mload\n        /* \"#utility.yul\":11004:11026   */\n      swap1\n      pop\n        /* \"#utility.yul\":10934:11033   */\n      swap2\n      swap1\n      pop\n      jump\t// out\n        /* \"#utility.yul\":11039:11198   */\n    tag_453:\n        /* \"#utility.yul\":11113:11124   */\n      0x00\n        /* \"#utility.yul\":11147:11153   */\n      dup3\n        /* \"#utility.yul\":11142:11145   */\n      dup3\n        /* \"#utility.yul\":11135:11154   */\n      mstore\n        /* \"#utility.yul\":11187:11191   */\n      0x20\n        /* \"#utility.yul\":11182:11185   */\n      dup3\n        /* \"#utility.yul\":11178:11192   */\n      add\n        /* \"#utility.yul\":11163:11192   */\n      swap1\n      pop\n        /* \"#utility.yul\":11039:11198   */\n      swap3\n      swap2\n      pop\n      pop\n      jump\t// out\n        /* \"#utility.yul\":11204:11511   */\n    tag_454:\n        /* \"#utility.yul\":11272:11273   */\n      0x00\n        /* \"#utility.yul\":11282:11395   */\n    tag_630:\n        /* \"#utility.yul\":11296:11302   */\n      dup4\n        /* \"#utility.yul\":11293:11294   */\n      dup2\n        /* \"#utility.yul\":11290:11303   */\n      lt\n        /* \"#utility.yul\":11282:11395   */\n      iszero\n      tag_632\n      jumpi\n        /* \"#utility.yul\":11381:11382   */\n      dup1\n        /* \"#utility.yul\":11376:11379   */\n      dup3\n        /* \"#utility.yul\":11372:11383   */\n      add\n        /* \"#utility.yul\":11366:11384   */\n      mload\n        /* \"#utility.yul\":11362:11363   */\n      dup2\n        /* \"#utility.yul\":11357:11360   */\n      dup5\n        /* \"#utility.yul\":11353:11364   */\n      add\n        /* \"#utility.yul\":11346:11385   */\n      mstore\n        /* \"#utility.yul\":11318:11320   */\n      0x20\n        /* \"#utility.yul\":11315:11316   */\n      dup2\n        /* \"#utility.yul\":11311:11321   */\n      add\n        /* \"#utility.yul\":11306:11321   */\n      swap1\n      pop\n        /* \"#utility.yul\":11282:11395   */\n      jump(tag_630)\n    tag_632:\n        /* \"#utility.yul\":11413:11419   */\n      dup4\n        /* \"#utility.yul\":11410:11411   */\n      dup2\n        /* \"#utility.yul\":11407:11420   */\n      gt\n        /* \"#utility.yul\":11404:11505   */\n      iszero\n      tag_633\n      jumpi\n        /* \"#utility.yul\":11493:11494   */\n      0x00\n        /* \"#utility.yul\":11484:11490   */\n      dup5\n        /* \"#utility.yul\":11479:11482   */\n      dup5\n        /* \"#utility.yul\":11475:11491   */\n      add\n        /* \"#utility.yul\":11468:11495   */\n      mstore\n        /* \"#utility.yul\":11404:11505   */\n    tag_633:\n        /* \"#utility.yul\":11253:11511   */\n      pop\n        /* \"#utility.yul\":11204:11511   */\n      pop\n      pop\n      pop\n      jump\t// out\n        /* \"#utility.yul\":11517:11861   */\n    tag_455:\n        /* \"#utility.yul\":11595:11598   */\n      0x00\n        /* \"#utility.yul\":11623:11662   */\n      tag_635\n        /* \"#utility.yul\":11656:11661   */\n      dup3\n        /* \"#utility.yul\":11623:11662   */\n      tag_452\n      jump\t// in\n    tag_635:\n        /* \"#utility.yul\":11678:11739   */\n      tag_636\n        /* \"#utility.yul\":11732:11738   */\n      dup2\n        /* \"#utility.yul\":11727:11730   */\n      dup6\n        /* \"#utility.yul\":11678:11739   */\n      tag_453\n      jump\t// in\n    tag_636:\n        /* \"#utility.yul\":11671:11739   */\n      swap4\n      pop\n        /* \"#utility.yul\":11748:11800   */\n      tag_637\n        /* \"#utility.yul\":11793:11799   */\n      dup2\n        /* \"#utility.yul\":11788:11791   */\n      dup6\n        /* \"#utility.yul\":11781:11785   */\n      0x20\n        /* \"#utility.yul\":11774:11779   */\n      dup7\n        /* \"#utility.yul\":11770:11786   */\n      add\n        /* \"#utility.yul\":11748:11800   */\n      tag_454\n      jump\t// in\n    tag_637:\n        /* \"#utility.yul\":11825:11854   */\n      tag_638\n        /* \"#utility.yul\":11847:11853   */\n      dup2\n        /* \"#utility.yul\":11825:11854   */\n      tag_420\n      jump\t// in\n    tag_638:\n        /* \"#utility.yul\":11820:11823   */\n      dup5\n        /* \"#utility.yul\":11816:11855   */\n      add\n        /* \"#utility.yul\":11809:11855   */\n      swap2\n      pop\n        /* \"#utility.yul\":11599:11861   */\n      pop\n        /* \"#utility.yul\":11517:11861   */\n      swap3\n      swap2\n      pop\n      pop\n      jump\t// out\n        /* \"#utility.yul\":11867:11975   */\n    tag_456:\n        /* \"#utility.yul\":11944:11968   */\n      tag_640\n        /* \"#utility.yul\":11962:11967   */\n      dup2\n        /* \"#utility.yul\":11944:11968   */\n      tag_428\n      jump\t// in\n    tag_640:\n        /* \"#utility.yul\":11939:11942   */\n      dup3\n        /* \"#utility.yul\":11932:11969   */\n      mstore\n        /* \"#utility.yul\":11867:11975   */\n      pop\n      pop\n      jump\t// out\n        /* \"#utility.yul\":11981:12080   */\n    tag_457:\n        /* \"#utility.yul\":12052:12073   */\n      tag_642\n        /* \"#utility.yul\":12067:12072   */\n      dup2\n        /* \"#utility.yul\":12052:12073   */\n      tag_431\n      jump\t// in\n    tag_642:\n        /* \"#utility.yul\":12047:12050   */\n      dup3\n        /* \"#utility.yul\":12040:12074   */\n      mstore\n        /* \"#utility.yul\":11981:12080   */\n      pop\n      pop\n      jump\t// out\n        /* \"#utility.yul\":12130:12906   */\n    tag_458:\n        /* \"#utility.yul\":12241:12244   */\n      0x00\n        /* \"#utility.yul\":12277:12281   */\n      0x60\n        /* \"#utility.yul\":12272:12275   */\n      dup4\n        /* \"#utility.yul\":12268:12282   */\n      add\n        /* \"#utility.yul\":12364:12368   */\n      0x00\n        /* \"#utility.yul\":12357:12362   */\n      dup4\n        /* \"#utility.yul\":12353:12369   */\n      add\n        /* \"#utility.yul\":12347:12370   */\n      mload\n        /* \"#utility.yul\":12417:12420   */\n      dup5\n        /* \"#utility.yul\":12411:12415   */\n      dup3\n        /* \"#utility.yul\":12407:12421   */\n      sub\n        /* \"#utility.yul\":12400:12404   */\n      0x00\n        /* \"#utility.yul\":12395:12398   */\n      dup7\n        /* \"#utility.yul\":12391:12405   */\n      add\n        /* \"#utility.yul\":12384:12422   */\n      mstore\n        /* \"#utility.yul\":12443:12516   */\n      tag_644\n        /* \"#utility.yul\":12511:12515   */\n      dup3\n        /* \"#utility.yul\":12497:12509   */\n      dup3\n        /* \"#utility.yul\":12443:12516   */\n      tag_455\n      jump\t// in\n    tag_644:\n        /* \"#utility.yul\":12435:12516   */\n      swap2\n      pop\n        /* \"#utility.yul\":12292:12527   */\n      pop\n        /* \"#utility.yul\":12618:12622   */\n      0x20\n        /* \"#utility.yul\":12611:12616   */\n      dup4\n        /* \"#utility.yul\":12607:12623   */\n      add\n        /* \"#utility.yul\":12601:12624   */\n      mload\n        /* \"#utility.yul\":12637:12700   */\n      tag_645\n        /* \"#utility.yul\":12694:12698   */\n      0x20\n        /* \"#utility.yul\":12689:12692   */\n      dup7\n        /* \"#utility.yul\":12685:12699   */\n      add\n        /* \"#utility.yul\":12671:12683   */\n      dup3\n        /* \"#utility.yul\":12637:12700   */\n      tag_456\n      jump\t// in\n    tag_645:\n        /* \"#utility.yul\":12537:12710   */\n      pop\n        /* \"#utility.yul\":12793:12797   */\n      0x40\n        /* \"#utility.yul\":12786:12791   */\n      dup4\n        /* \"#utility.yul\":12782:12798   */\n      add\n        /* \"#utility.yul\":12776:12799   */\n      mload\n        /* \"#utility.yul\":12812:12869   */\n      tag_646\n        /* \"#utility.yul\":12863:12867   */\n      0x40\n        /* \"#utility.yul\":12858:12861   */\n      dup7\n        /* \"#utility.yul\":12854:12868   */\n      add\n        /* \"#utility.yul\":12840:12852   */\n      dup3\n        /* \"#utility.yul\":12812:12869   */\n      tag_457\n      jump\t// in\n    tag_646:\n        /* \"#utility.yul\":12720:12879   */\n      pop\n        /* \"#utility.yul\":12896:12900   */\n      dup1\n        /* \"#utility.yul\":12889:12900   */\n      swap2\n      pop\n        /* \"#utility.yul\":12246:12906   */\n      pop\n        /* \"#utility.yul\":12130:12906   */\n      swap3\n      swap2\n      pop\n      pop\n      jump\t// out\n        /* \"#utility.yul\":12912:13269   */\n    tag_41:\n        /* \"#utility.yul\":13047:13051   */\n      0x00\n        /* \"#utility.yul\":13085:13087   */\n      0x20\n        /* \"#utility.yul\":13074:13083   */\n      dup3\n        /* \"#utility.yul\":13070:13088   */\n      add\n        /* \"#utility.yul\":13062:13088   */\n      swap1\n      pop\n        /* \"#utility.yul\":13134:13143   */\n      dup2\n        /* \"#utility.yul\":13128:13132   */\n      dup2\n        /* \"#utility.yul\":13124:13144   */\n      sub\n        /* \"#utility.yul\":13120:13121   */\n      0x00\n        /* \"#utility.yul\":13109:13118   */\n      dup4\n        /* \"#utility.yul\":13105:13122   */\n      add\n        /* \"#utility.yul\":13098:13145   */\n      mstore\n        /* \"#utility.yul\":13162:13262   */\n      tag_648\n        /* \"#utility.yul\":13257:13261   */\n      dup2\n        /* \"#utility.yul\":13248:13254   */\n      dup5\n        /* \"#utility.yul\":13162:13262   */\n      tag_458\n      jump\t// in\n    tag_648:\n        /* \"#utility.yul\":13154:13262   */\n      swap1\n      pop\n        /* \"#utility.yul\":12912:13269   */\n      swap3\n      swap2\n      pop\n      pop\n      jump\t// out\n        /* \"#utility.yul\":13275:13455   */\n    tag_52:\n        /* \"#utility.yul\":13323:13400   */\n      0x4e487b7100000000000000000000000000000000000000000000000000000000\n        /* \"#utility.yul\":13320:13321   */\n      0x00\n        /* \"#utility.yul\":13313:13401   */\n      mstore\n        /* \"#utility.yul\":13420:13424   */\n      0x32\n        /* \"#utility.yul\":13417:13418   */\n      0x04\n        /* \"#utility.yul\":13410:13425   */\n      mstore\n        /* \"#utility.yul\":13444:13448   */\n      0x24\n        /* \"#utility.yul\":13441:13442   */\n      0x00\n        /* \"#utility.yul\":13434:13449   */\n      revert\n        /* \"#utility.yul\":13461:13630   */\n    tag_459:\n        /* \"#utility.yul\":13545:13556   */\n      0x00\n        /* \"#utility.yul\":13579:13585   */\n      dup3\n        /* \"#utility.yul\":13574:13577   */\n      dup3\n        /* \"#utility.yul\":13567:13586   */\n      mstore\n        /* \"#utility.yul\":13619:13623   */\n      0x20\n        /* \"#utility.yul\":13614:13617   */\n      dup3\n        /* \"#utility.yul\":13610:13624   */\n      add\n        /* \"#utility.yul\":13595:13624   */\n      swap1\n      pop\n        /* \"#utility.yul\":13461:13630   */\n      swap3\n      swap2\n      pop\n      pop\n      jump\t// out\n        /* \"#utility.yul\":13636:13866   */\n    tag_460:\n        /* \"#utility.yul\":13776:13810   */\n      0x4f6e6c79207468652070726f636573732063616e206578656375746520746869\n        /* \"#utility.yul\":13772:13773   */\n      0x00\n        /* \"#utility.yul\":13764:13770   */\n      dup3\n        /* \"#utility.yul\":13760:13774   */\n      add\n        /* \"#utility.yul\":13753:13811   */\n      mstore\n        /* \"#utility.yul\":13845:13858   */\n      0x73206f7065726174696f6e000000000000000000000000000000000000000000\n        /* \"#utility.yul\":13840:13842   */\n      0x20\n        /* \"#utility.yul\":13832:13838   */\n      dup3\n        /* \"#utility.yul\":13828:13843   */\n      add\n        /* \"#utility.yul\":13821:13859   */\n      mstore\n        /* \"#utility.yul\":13636:13866   */\n      pop\n      jump\t// out\n        /* \"#utility.yul\":13872:14238   */\n    tag_461:\n        /* \"#utility.yul\":14014:14017   */\n      0x00\n        /* \"#utility.yul\":14035:14102   */\n      tag_653\n        /* \"#utility.yul\":14099:14101   */\n      0x2b\n        /* \"#utility.yul\":14094:14097   */\n      dup4\n        /* \"#utility.yul\":14035:14102   */\n      tag_459\n      jump\t// in\n    tag_653:\n        /* \"#utility.yul\":14028:14102   */\n      swap2\n      pop\n        /* \"#utility.yul\":14111:14204   */\n      tag_654\n        /* \"#utility.yul\":14200:14203   */\n      dup3\n        /* \"#utility.yul\":14111:14204   */\n      tag_460\n      jump\t// in\n    tag_654:\n        /* \"#utility.yul\":14229:14231   */\n      0x40\n        /* \"#utility.yul\":14224:14227   */\n      dup3\n        /* \"#utility.yul\":14220:14232   */\n      add\n        /* \"#utility.yul\":14213:14232   */\n      swap1\n      pop\n        /* \"#utility.yul\":13872:14238   */\n      swap2\n      swap1\n      pop\n      jump\t// out\n        /* \"#utility.yul\":14244:14663   */\n    tag_61:\n        /* \"#utility.yul\":14410:14414   */\n      0x00\n        /* \"#utility.yul\":14448:14450   */\n      0x20\n        /* \"#utility.yul\":14437:14446   */\n      dup3\n        /* \"#utility.yul\":14433:14451   */\n      add\n        /* \"#utility.yul\":14425:14451   */\n      swap1\n      pop\n        /* \"#utility.yul\":14497:14506   */\n      dup2\n        /* \"#utility.yul\":14491:14495   */\n      dup2\n        /* \"#utility.yul\":14487:14507   */\n      sub\n        /* \"#utility.yul\":14483:14484   */\n      0x00\n        /* \"#utility.yul\":14472:14481   */\n      dup4\n        /* \"#utility.yul\":14468:14485   */\n      add\n        /* \"#utility.yul\":14461:14508   */\n      mstore\n        /* \"#utility.yul\":14525:14656   */\n      tag_656\n        /* \"#utility.yul\":14651:14655   */\n      dup2\n        /* \"#utility.yul\":14525:14656   */\n      tag_461\n      jump\t// in\n    tag_656:\n        /* \"#utility.yul\":14517:14656   */\n      swap1\n      pop\n        /* \"#utility.yul\":14244:14663   */\n      swap2\n      swap1\n      pop\n      jump\t// out\n        /* \"#utility.yul\":14669:14847   */\n    tag_462:\n        /* \"#utility.yul\":14809:14839   */\n      0x5468697320636f6e747261637420697320646561637469766174656400000000\n        /* \"#utility.yul\":14805:14806   */\n      0x00\n        /* \"#utility.yul\":14797:14803   */\n      dup3\n        /* \"#utility.yul\":14793:14807   */\n      add\n        /* \"#utility.yul\":14786:14840   */\n      mstore\n        /* \"#utility.yul\":14669:14847   */\n      pop\n      jump\t// out\n        /* \"#utility.yul\":14853:15219   */\n    tag_463:\n        /* \"#utility.yul\":14995:14998   */\n      0x00\n        /* \"#utility.yul\":15016:15083   */\n      tag_659\n        /* \"#utility.yul\":15080:15082   */\n      0x1c\n        /* \"#utility.yul\":15075:15078   */\n      dup4\n        /* \"#utility.yul\":15016:15083   */\n      tag_459\n      jump\t// in\n    tag_659:\n        /* \"#utility.yul\":15009:15083   */\n      swap2\n      pop\n        /* \"#utility.yul\":15092:15185   */\n      tag_660\n        /* \"#utility.yul\":15181:15184   */\n      dup3\n        /* \"#utility.yul\":15092:15185   */\n      tag_462\n      jump\t// in\n    tag_660:\n        /* \"#utility.yul\":15210:15212   */\n      0x20\n        /* \"#utility.yul\":15205:15208   */\n      dup3\n        /* \"#utility.yul\":15201:15213   */\n      add\n        /* \"#utility.yul\":15194:15213   */\n      swap1\n      pop\n        /* \"#utility.yul\":14853:15219   */\n      swap2\n      swap1\n      pop\n      jump\t// out\n        /* \"#utility.yul\":15225:15644   */\n    tag_72:\n        /* \"#utility.yul\":15391:15395   */\n      0x00\n        /* \"#utility.yul\":15429:15431   */\n      0x20\n        /* \"#utility.yul\":15418:15427   */\n      dup3\n        /* \"#utility.yul\":15414:15432   */\n      add\n        /* \"#utility.yul\":15406:15432   */\n      swap1\n      pop\n        /* \"#utility.yul\":15478:15487   */\n      dup2\n        /* \"#utility.yul\":15472:15476   */\n      dup2\n        /* \"#utility.yul\":15468:15488   */\n      sub\n        /* \"#utility.yul\":15464:15465   */\n      0x00\n        /* \"#utility.yul\":15453:15462   */\n      dup4\n        /* \"#utility.yul\":15449:15466   */\n      add\n        /* \"#utility.yul\":15442:15489   */\n      mstore\n        /* \"#utility.yul\":15506:15637   */\n      tag_662\n        /* \"#utility.yul\":15632:15636   */\n      dup2\n        /* \"#utility.yul\":15506:15637   */\n      tag_463\n      jump\t// in\n    tag_662:\n        /* \"#utility.yul\":15498:15637   */\n      swap1\n      pop\n        /* \"#utility.yul\":15225:15644   */\n      swap2\n      swap1\n      pop\n      jump\t// out\n        /* \"#utility.yul\":15650:15899   */\n    tag_464:\n        /* \"#utility.yul\":15790:15824   */\n      0x4f6e6c79207468652070726f63657373206f7220746865206170706c69636174\n        /* \"#utility.yul\":15786:15787   */\n      0x00\n        /* \"#utility.yul\":15778:15784   */\n      dup3\n        /* \"#utility.yul\":15774:15788   */\n      add\n        /* \"#utility.yul\":15767:15825   */\n      mstore\n        /* \"#utility.yul\":15859:15891   */\n      0x696f6e2063616e20657865637574652074686973206f7065726174696f6e0000\n        /* \"#utility.yul\":15854:15856   */\n      0x20\n        /* \"#utility.yul\":15846:15852   */\n      dup3\n        /* \"#utility.yul\":15842:15857   */\n      add\n        /* \"#utility.yul\":15835:15892   */\n      mstore\n        /* \"#utility.yul\":15650:15899   */\n      pop\n      jump\t// out\n        /* \"#utility.yul\":15905:16271   */\n    tag_465:\n        /* \"#utility.yul\":16047:16050   */\n      0x00\n        /* \"#utility.yul\":16068:16135   */\n      tag_665\n        /* \"#utility.yul\":16132:16134   */\n      0x3e\n        /* \"#utility.yul\":16127:16130   */\n      dup4\n        /* \"#utility.yul\":16068:16135   */\n      tag_459\n      jump\t// in\n    tag_665:\n        /* \"#utility.yul\":16061:16135   */\n      swap2\n      pop\n        /* \"#utility.yul\":16144:16237   */\n      tag_666\n        /* \"#utility.yul\":16233:16236   */\n      dup3\n        /* \"#utility.yul\":16144:16237   */\n      tag_464\n      jump\t// in\n    tag_666:\n        /* \"#utility.yul\":16262:16264   */\n      0x40\n        /* \"#utility.yul\":16257:16260   */\n      dup3\n        /* \"#utility.yul\":16253:16265   */\n      add\n        /* \"#utility.yul\":16246:16265   */\n      swap1\n      pop\n        /* \"#utility.yul\":15905:16271   */\n      swap2\n      swap1\n      pop\n      jump\t// out\n        /* \"#utility.yul\":16277:16696   */\n    tag_76:\n        /* \"#utility.yul\":16443:16447   */\n      0x00\n        /* \"#utility.yul\":16481:16483   */\n      0x20\n        /* \"#utility.yul\":16470:16479   */\n      dup3\n        /* \"#utility.yul\":16466:16484   */\n      add\n        /* \"#utility.yul\":16458:16484   */\n      swap1\n      pop\n        /* \"#utility.yul\":16530:16539   */\n      dup2\n        /* \"#utility.yul\":16524:16528   */\n      dup2\n        /* \"#utility.yul\":16520:16540   */\n      sub\n        /* \"#utility.yul\":16516:16517   */\n      0x00\n        /* \"#utility.yul\":16505:16514   */\n      dup4\n        /* \"#utility.yul\":16501:16518   */\n      add\n        /* \"#utility.yul\":16494:16541   */\n      mstore\n        /* \"#utility.yul\":16558:16689   */\n      tag_668\n        /* \"#utility.yul\":16684:16688   */\n      dup2\n        /* \"#utility.yul\":16558:16689   */\n      tag_465\n      jump\t// in\n    tag_668:\n        /* \"#utility.yul\":16550:16689   */\n      swap1\n      pop\n        /* \"#utility.yul\":16277:16696   */\n      swap2\n      swap1\n      pop\n      jump\t// out\n        /* \"#utility.yul\":16702:16882   */\n    tag_466:\n        /* \"#utility.yul\":16750:16827   */\n      0x4e487b7100000000000000000000000000000000000000000000000000000000\n        /* \"#utility.yul\":16747:16748   */\n      0x00\n        /* \"#utility.yul\":16740:16828   */\n      mstore\n        /* \"#utility.yul\":16847:16851   */\n      0x22\n        /* \"#utility.yul\":16844:16845   */\n      0x04\n        /* \"#utility.yul\":16837:16852   */\n      mstore\n        /* \"#utility.yul\":16871:16875   */\n      0x24\n        /* \"#utility.yul\":16868:16869   */\n      0x00\n        /* \"#utility.yul\":16861:16876   */\n      revert\n        /* \"#utility.yul\":16888:17208   */\n    tag_116:\n        /* \"#utility.yul\":16932:16938   */\n      0x00\n        /* \"#utility.yul\":16969:16970   */\n      0x02\n        /* \"#utility.yul\":16963:16967   */\n      dup3\n        /* \"#utility.yul\":16959:16971   */\n      div\n        /* \"#utility.yul\":16949:16971   */\n      swap1\n      pop\n        /* \"#utility.yul\":17016:17017   */\n      0x01\n        /* \"#utility.yul\":17010:17014   */\n      dup3\n        /* \"#utility.yul\":17006:17018   */\n      and\n        /* \"#utility.yul\":17037:17055   */\n      dup1\n        /* \"#utility.yul\":17027:17108   */\n      tag_671\n      jumpi\n        /* \"#utility.yul\":17093:17097   */\n      0x7f\n        /* \"#utility.yul\":17085:17091   */\n      dup3\n        /* \"#utility.yul\":17081:17098   */\n      and\n        /* \"#utility.yul\":17071:17098   */\n      swap2\n      pop\n        /* \"#utility.yul\":17027:17108   */\n    tag_671:\n        /* \"#utility.yul\":17155:17157   */\n      0x20\n        /* \"#utility.yul\":17147:17153   */\n      dup3\n        /* \"#utility.yul\":17144:17158   */\n      lt\n        /* \"#utility.yul\":17124:17142   */\n      dup2\n        /* \"#utility.yul\":17121:17159   */\n      sub\n        /* \"#utility.yul\":17118:17202   */\n      tag_672\n      jumpi\n        /* \"#utility.yul\":17174:17192   */\n      tag_673\n      tag_466\n      jump\t// in\n    tag_673:\n        /* \"#utility.yul\":17118:17202   */\n    tag_672:\n        /* \"#utility.yul\":16939:17208   */\n      pop\n        /* \"#utility.yul\":16888:17208   */\n      swap2\n      swap1\n      pop\n      jump\t// out\n        /* \"#utility.yul\":17214:17385   */\n    tag_467:\n        /* \"#utility.yul\":17354:17377   */\n      0x5375636365737366756c20657865637574696f6e210000000000000000000000\n        /* \"#utility.yul\":17350:17351   */\n      0x00\n        /* \"#utility.yul\":17342:17348   */\n      dup3\n        /* \"#utility.yul\":17338:17352   */\n      add\n        /* \"#utility.yul\":17331:17378   */\n      mstore\n        /* \"#utility.yul\":17214:17385   */\n      pop\n      jump\t// out\n        /* \"#utility.yul\":17391:17757   */\n    tag_468:\n        /* \"#utility.yul\":17533:17536   */\n      0x00\n        /* \"#utility.yul\":17554:17621   */\n      tag_676\n        /* \"#utility.yul\":17618:17620   */\n      0x15\n        /* \"#utility.yul\":17613:17616   */\n      dup4\n        /* \"#utility.yul\":17554:17621   */\n      tag_459\n      jump\t// in\n    tag_676:\n        /* \"#utility.yul\":17547:17621   */\n      swap2\n      pop\n        /* \"#utility.yul\":17630:17723   */\n      tag_677\n        /* \"#utility.yul\":17719:17722   */\n      dup3\n        /* \"#utility.yul\":17630:17723   */\n      tag_467\n      jump\t// in\n    tag_677:\n        /* \"#utility.yul\":17748:17750   */\n      0x20\n        /* \"#utility.yul\":17743:17746   */\n      dup3\n        /* \"#utility.yul\":17739:17751   */\n      add\n        /* \"#utility.yul\":17732:17751   */\n      swap1\n      pop\n        /* \"#utility.yul\":17391:17757   */\n      swap2\n      swap1\n      pop\n      jump\t// out\n        /* \"#utility.yul\":17763:18182   */\n    tag_154:\n        /* \"#utility.yul\":17929:17933   */\n      0x00\n        /* \"#utility.yul\":17967:17969   */\n      0x20\n        /* \"#utility.yul\":17956:17965   */\n      dup3\n        /* \"#utility.yul\":17952:17970   */\n      add\n        /* \"#utility.yul\":17944:17970   */\n      swap1\n      pop\n        /* \"#utility.yul\":18016:18025   */\n      dup2\n        /* \"#utility.yul\":18010:18014   */\n      dup2\n        /* \"#utility.yul\":18006:18026   */\n      sub\n        /* \"#utility.yul\":18002:18003   */\n      0x00\n        /* \"#utility.yul\":17991:18000   */\n      dup4\n        /* \"#utility.yul\":17987:18004   */\n      add\n        /* \"#utility.yul\":17980:18027   */\n      mstore\n        /* \"#utility.yul\":18044:18175   */\n      tag_679\n        /* \"#utility.yul\":18170:18174   */\n      dup2\n        /* \"#utility.yul\":18044:18175   */\n      tag_468\n      jump\t// in\n    tag_679:\n        /* \"#utility.yul\":18036:18175   */\n      swap1\n      pop\n        /* \"#utility.yul\":17763:18182   */\n      swap2\n      swap1\n      pop\n      jump\t// out\n        /* \"#utility.yul\":18188:18492   */\n    tag_469:\n        /* \"#utility.yul\":18328:18362   */\n      0x52657175657374206f7065726174696f6e20706572666f726d6564206f757473\n        /* \"#utility.yul\":18324:18325   */\n      0x00\n        /* \"#utility.yul\":18316:18322   */\n      dup3\n        /* \"#utility.yul\":18312:18326   */\n      add\n        /* \"#utility.yul\":18305:18363   */\n      mstore\n        /* \"#utility.yul\":18397:18431   */\n      0x696465206f6620616c6c6f77656420686f757273206f72206c696d6974206f70\n        /* \"#utility.yul\":18392:18394   */\n      0x20\n        /* \"#utility.yul\":18384:18390   */\n      dup3\n        /* \"#utility.yul\":18380:18395   */\n      add\n        /* \"#utility.yul\":18373:18432   */\n      mstore\n        /* \"#utility.yul\":18466:18484   */\n      0x65726174696f6e20657863656564656400000000000000000000000000000000\n        /* \"#utility.yul\":18461:18463   */\n      0x40\n        /* \"#utility.yul\":18453:18459   */\n      dup3\n        /* \"#utility.yul\":18449:18464   */\n      add\n        /* \"#utility.yul\":18442:18485   */\n      mstore\n        /* \"#utility.yul\":18188:18492   */\n      pop\n      jump\t// out\n        /* \"#utility.yul\":18498:18864   */\n    tag_470:\n        /* \"#utility.yul\":18640:18643   */\n      0x00\n        /* \"#utility.yul\":18661:18728   */\n      tag_682\n        /* \"#utility.yul\":18725:18727   */\n      0x50\n        /* \"#utility.yul\":18720:18723   */\n      dup4\n        /* \"#utility.yul\":18661:18728   */\n      tag_459\n      jump\t// in\n    tag_682:\n        /* \"#utility.yul\":18654:18728   */\n      swap2\n      pop\n        /* \"#utility.yul\":18737:18830   */\n      tag_683\n        /* \"#utility.yul\":18826:18829   */\n      dup3\n        /* \"#utility.yul\":18737:18830   */\n      tag_469\n      jump\t// in\n    tag_683:\n        /* \"#utility.yul\":18855:18857   */\n      0x60\n        /* \"#utility.yul\":18850:18853   */\n      dup3\n        /* \"#utility.yul\":18846:18858   */\n      add\n        /* \"#utility.yul\":18839:18858   */\n      swap1\n      pop\n        /* \"#utility.yul\":18498:18864   */\n      swap2\n      swap1\n      pop\n      jump\t// out\n        /* \"#utility.yul\":18870:19289   */\n    tag_157:\n        /* \"#utility.yul\":19036:19040   */\n      0x00\n        /* \"#utility.yul\":19074:19076   */\n      0x20\n        /* \"#utility.yul\":19063:19072   */\n      dup3\n        /* \"#utility.yul\":19059:19077   */\n      add\n        /* \"#utility.yul\":19051:19077   */\n      swap1\n      pop\n        /* \"#utility.yul\":19123:19132   */\n      dup2\n        /* \"#utility.yul\":19117:19121   */\n      dup2\n        /* \"#utility.yul\":19113:19133   */\n      sub\n        /* \"#utility.yul\":19109:19110   */\n      0x00\n        /* \"#utility.yul\":19098:19107   */\n      dup4\n        /* \"#utility.yul\":19094:19111   */\n      add\n        /* \"#utility.yul\":19087:19134   */\n      mstore\n        /* \"#utility.yul\":19151:19282   */\n      tag_685\n        /* \"#utility.yul\":19277:19281   */\n      dup2\n        /* \"#utility.yul\":19151:19282   */\n      tag_470\n      jump\t// in\n    tag_685:\n        /* \"#utility.yul\":19143:19282   */\n      swap1\n      pop\n        /* \"#utility.yul\":18870:19289   */\n      swap2\n      swap1\n      pop\n      jump\t// out\n        /* \"#utility.yul\":19295:19529   */\n    tag_471:\n        /* \"#utility.yul\":19435:19469   */\n      0x4f6e6c7920746865206170706c69636174696f6e2063616e2065786563757465\n        /* \"#utility.yul\":19431:19432   */\n      0x00\n        /* \"#utility.yul\":19423:19429   */\n      dup3\n        /* \"#utility.yul\":19419:19433   */\n      add\n        /* \"#utility.yul\":19412:19470   */\n      mstore\n        /* \"#utility.yul\":19504:19521   */\n      0x2074686973206f7065726174696f6e0000000000000000000000000000000000\n        /* \"#utility.yul\":19499:19501   */\n      0x20\n        /* \"#utility.yul\":19491:19497   */\n      dup3\n        /* \"#utility.yul\":19487:19502   */\n      add\n        /* \"#utility.yul\":19480:19522   */\n      mstore\n        /* \"#utility.yul\":19295:19529   */\n      pop\n      jump\t// out\n        /* \"#utility.yul\":19535:19901   */\n    tag_472:\n        /* \"#utility.yul\":19677:19680   */\n      0x00\n        /* \"#utility.yul\":19698:19765   */\n      tag_688\n        /* \"#utility.yul\":19762:19764   */\n      0x2f\n        /* \"#utility.yul\":19757:19760   */\n      dup4\n        /* \"#utility.yul\":19698:19765   */\n      tag_459\n      jump\t// in\n    tag_688:\n        /* \"#utility.yul\":19691:19765   */\n      swap2\n      pop\n        /* \"#utility.yul\":19774:19867   */\n      tag_689\n        /* \"#utility.yul\":19863:19866   */\n      dup3\n        /* \"#utility.yul\":19774:19867   */\n      tag_471\n      jump\t// in\n    tag_689:\n        /* \"#utility.yul\":19892:19894   */\n      0x40\n        /* \"#utility.yul\":19887:19890   */\n      dup3\n        /* \"#utility.yul\":19883:19895   */\n      add\n        /* \"#utility.yul\":19876:19895   */\n      swap1\n      pop\n        /* \"#utility.yul\":19535:19901   */\n      swap2\n      swap1\n      pop\n      jump\t// out\n        /* \"#utility.yul\":19907:20326   */\n    tag_163:\n        /* \"#utility.yul\":20073:20077   */\n      0x00\n        /* \"#utility.yul\":20111:20113   */\n      0x20\n        /* \"#utility.yul\":20100:20109   */\n      dup3\n        /* \"#utility.yul\":20096:20114   */\n      add\n        /* \"#utility.yul\":20088:20114   */\n      swap1\n      pop\n        /* \"#utility.yul\":20160:20169   */\n      dup2\n        /* \"#utility.yul\":20154:20158   */\n      dup2\n        /* \"#utility.yul\":20150:20170   */\n      sub\n        /* \"#utility.yul\":20146:20147   */\n      0x00\n        /* \"#utility.yul\":20135:20144   */\n      dup4\n        /* \"#utility.yul\":20131:20148   */\n      add\n        /* \"#utility.yul\":20124:20171   */\n      mstore\n        /* \"#utility.yul\":20188:20319   */\n      tag_691\n        /* \"#utility.yul\":20314:20318   */\n      dup2\n        /* \"#utility.yul\":20188:20319   */\n      tag_472\n      jump\t// in\n    tag_691:\n        /* \"#utility.yul\":20180:20319   */\n      swap1\n      pop\n        /* \"#utility.yul\":19907:20326   */\n      swap2\n      swap1\n      pop\n      jump\t// out\n        /* \"#utility.yul\":20332:20512   */\n    tag_473:\n        /* \"#utility.yul\":20472:20504   */\n      0x54686520636f6e747261637420697320616c7265616479207369676e65640000\n        /* \"#utility.yul\":20468:20469   */\n      0x00\n        /* \"#utility.yul\":20460:20466   */\n      dup3\n        /* \"#utility.yul\":20456:20470   */\n      add\n        /* \"#utility.yul\":20449:20505   */\n      mstore\n        /* \"#utility.yul\":20332:20512   */\n      pop\n      jump\t// out\n        /* \"#utility.yul\":20518:20884   */\n    tag_474:\n        /* \"#utility.yul\":20660:20663   */\n      0x00\n        /* \"#utility.yul\":20681:20748   */\n      tag_694\n        /* \"#utility.yul\":20745:20747   */\n      0x1e\n        /* \"#utility.yul\":20740:20743   */\n      dup4\n        /* \"#utility.yul\":20681:20748   */\n      tag_459\n      jump\t// in\n    tag_694:\n        /* \"#utility.yul\":20674:20748   */\n      swap2\n      pop\n        /* \"#utility.yul\":20757:20850   */\n      tag_695\n        /* \"#utility.yul\":20846:20849   */\n      dup3\n        /* \"#utility.yul\":20757:20850   */\n      tag_473\n      jump\t// in\n    tag_695:\n        /* \"#utility.yul\":20875:20877   */\n      0x20\n        /* \"#utility.yul\":20870:20873   */\n      dup3\n        /* \"#utility.yul\":20866:20878   */\n      add\n        /* \"#utility.yul\":20859:20878   */\n      swap1\n      pop\n        /* \"#utility.yul\":20518:20884   */\n      swap2\n      swap1\n      pop\n      jump\t// out\n        /* \"#utility.yul\":20890:21309   */\n    tag_167:\n        /* \"#utility.yul\":21056:21060   */\n      0x00\n        /* \"#utility.yul\":21094:21096   */\n      0x20\n        /* \"#utility.yul\":21083:21092   */\n      dup3\n        /* \"#utility.yul\":21079:21097   */\n      add\n        /* \"#utility.yul\":21071:21097   */\n      swap1\n      pop\n        /* \"#utility.yul\":21143:21152   */\n      dup2\n        /* \"#utility.yul\":21137:21141   */\n      dup2\n        /* \"#utility.yul\":21133:21153   */\n      sub\n        /* \"#utility.yul\":21129:21130   */\n      0x00\n        /* \"#utility.yul\":21118:21127   */\n      dup4\n        /* \"#utility.yul\":21114:21131   */\n      add\n        /* \"#utility.yul\":21107:21154   */\n      mstore\n        /* \"#utility.yul\":21171:21302   */\n      tag_697\n        /* \"#utility.yul\":21297:21301   */\n      dup2\n        /* \"#utility.yul\":21171:21302   */\n      tag_474\n      jump\t// in\n    tag_697:\n        /* \"#utility.yul\":21163:21302   */\n      swap1\n      pop\n        /* \"#utility.yul\":20890:21309   */\n      swap2\n      swap1\n      pop\n      jump\t// out\n        /* \"#utility.yul\":21315:21542   */\n    tag_475:\n        /* \"#utility.yul\":21455:21489   */\n      0x546865205f7374617274446179206e6f7420726570726573656e747320612076\n        /* \"#utility.yul\":21451:21452   */\n      0x00\n        /* \"#utility.yul\":21443:21449   */\n      dup3\n        /* \"#utility.yul\":21439:21453   */\n      add\n        /* \"#utility.yul\":21432:21490   */\n      mstore\n        /* \"#utility.yul\":21524:21534   */\n      0x616c696420646179000000000000000000000000000000000000000000000000\n        /* \"#utility.yul\":21519:21521   */\n      0x20\n        /* \"#utility.yul\":21511:21517   */\n      dup3\n        /* \"#utility.yul\":21507:21522   */\n      add\n        /* \"#utility.yul\":21500:21535   */\n      mstore\n        /* \"#utility.yul\":21315:21542   */\n      pop\n      jump\t// out\n        /* \"#utility.yul\":21548:21914   */\n    tag_476:\n        /* \"#utility.yul\":21690:21693   */\n      0x00\n        /* \"#utility.yul\":21711:21778   */\n      tag_700\n        /* \"#utility.yul\":21775:21777   */\n      0x28\n        /* \"#utility.yul\":21770:21773   */\n      dup4\n        /* \"#utility.yul\":21711:21778   */\n      tag_459\n      jump\t// in\n    tag_700:\n        /* \"#utility.yul\":21704:21778   */\n      swap2\n      pop\n        /* \"#utility.yul\":21787:21880   */\n      tag_701\n        /* \"#utility.yul\":21876:21879   */\n      dup3\n        /* \"#utility.yul\":21787:21880   */\n      tag_475\n      jump\t// in\n    tag_701:\n        /* \"#utility.yul\":21905:21907   */\n      0x40\n        /* \"#utility.yul\":21900:21903   */\n      dup3\n        /* \"#utility.yul\":21896:21908   */\n      add\n        /* \"#utility.yul\":21889:21908   */\n      swap1\n      pop\n        /* \"#utility.yul\":21548:21914   */\n      swap2\n      swap1\n      pop\n      jump\t// out\n        /* \"#utility.yul\":21920:22339   */\n    tag_191:\n        /* \"#utility.yul\":22086:22090   */\n      0x00\n        /* \"#utility.yul\":22124:22126   */\n      0x20\n        /* \"#utility.yul\":22113:22122   */\n      dup3\n        /* \"#utility.yul\":22109:22127   */\n      add\n        /* \"#utility.yul\":22101:22127   */\n      swap1\n      pop\n        /* \"#utility.yul\":22173:22182   */\n      dup2\n        /* \"#utility.yul\":22167:22171   */\n      dup2\n        /* \"#utility.yul\":22163:22183   */\n      sub\n        /* \"#utility.yul\":22159:22160   */\n      0x00\n        /* \"#utility.yul\":22148:22157   */\n      dup4\n        /* \"#utility.yul\":22144:22161   */\n      add\n        /* \"#utility.yul\":22137:22184   */\n      mstore\n        /* \"#utility.yul\":22201:22332   */\n      tag_703\n        /* \"#utility.yul\":22327:22331   */\n      dup2\n        /* \"#utility.yul\":22201:22332   */\n      tag_476\n      jump\t// in\n    tag_703:\n        /* \"#utility.yul\":22193:22332   */\n      swap1\n      pop\n        /* \"#utility.yul\":21920:22339   */\n      swap2\n      swap1\n      pop\n      jump\t// out\n        /* \"#utility.yul\":22345:22570   */\n    tag_477:\n        /* \"#utility.yul\":22485:22519   */\n      0x546865205f656e64446179206e6f7420726570726573656e747320612076616c\n        /* \"#utility.yul\":22481:22482   */\n      0x00\n        /* \"#utility.yul\":22473:22479   */\n      dup3\n        /* \"#utility.yul\":22469:22483   */\n      add\n        /* \"#utility.yul\":22462:22520   */\n      mstore\n        /* \"#utility.yul\":22554:22562   */\n      0x6964206461790000000000000000000000000000000000000000000000000000\n        /* \"#utility.yul\":22549:22551   */\n      0x20\n        /* \"#utility.yul\":22541:22547   */\n      dup3\n        /* \"#utility.yul\":22537:22552   */\n      add\n        /* \"#utility.yul\":22530:22563   */\n      mstore\n        /* \"#utility.yul\":22345:22570   */\n      pop\n      jump\t// out\n        /* \"#utility.yul\":22576:22942   */\n    tag_478:\n        /* \"#utility.yul\":22718:22721   */\n      0x00\n        /* \"#utility.yul\":22739:22806   */\n      tag_706\n        /* \"#utility.yul\":22803:22805   */\n      0x26\n        /* \"#utility.yul\":22798:22801   */\n      dup4\n        /* \"#utility.yul\":22739:22806   */\n      tag_459\n      jump\t// in\n    tag_706:\n        /* \"#utility.yul\":22732:22806   */\n      swap2\n      pop\n        /* \"#utility.yul\":22815:22908   */\n      tag_707\n        /* \"#utility.yul\":22904:22907   */\n      dup3\n        /* \"#utility.yul\":22815:22908   */\n      tag_477\n      jump\t// in\n    tag_707:\n        /* \"#utility.yul\":22933:22935   */\n      0x40\n        /* \"#utility.yul\":22928:22931   */\n      dup3\n        /* \"#utility.yul\":22924:22936   */\n      add\n        /* \"#utility.yul\":22917:22936   */\n      swap1\n      pop\n        /* \"#utility.yul\":22576:22942   */\n      swap2\n      swap1\n      pop\n      jump\t// out\n        /* \"#utility.yul\":22948:23367   */\n    tag_195:\n        /* \"#utility.yul\":23114:23118   */\n      0x00\n        /* \"#utility.yul\":23152:23154   */\n      0x20\n        /* \"#utility.yul\":23141:23150   */\n      dup3\n        /* \"#utility.yul\":23137:23155   */\n      add\n        /* \"#utility.yul\":23129:23155   */\n      swap1\n      pop\n        /* \"#utility.yul\":23201:23210   */\n      dup2\n        /* \"#utility.yul\":23195:23199   */\n      dup2\n        /* \"#utility.yul\":23191:23211   */\n      sub\n        /* \"#utility.yul\":23187:23188   */\n      0x00\n        /* \"#utility.yul\":23176:23185   */\n      dup4\n        /* \"#utility.yul\":23172:23189   */\n      add\n        /* \"#utility.yul\":23165:23212   */\n      mstore\n        /* \"#utility.yul\":23229:23360   */\n      tag_709\n        /* \"#utility.yul\":23355:23359   */\n      dup2\n        /* \"#utility.yul\":23229:23360   */\n      tag_478\n      jump\t// in\n    tag_709:\n        /* \"#utility.yul\":23221:23360   */\n      swap1\n      pop\n        /* \"#utility.yul\":22948:23367   */\n      swap2\n      swap1\n      pop\n      jump\t// out\n        /* \"#utility.yul\":23373:23553   */\n    tag_479:\n        /* \"#utility.yul\":23421:23498   */\n      0x4e487b7100000000000000000000000000000000000000000000000000000000\n        /* \"#utility.yul\":23418:23419   */\n      0x00\n        /* \"#utility.yul\":23411:23499   */\n      mstore\n        /* \"#utility.yul\":23518:23522   */\n      0x11\n        /* \"#utility.yul\":23515:23516   */\n      0x04\n        /* \"#utility.yul\":23508:23523   */\n      mstore\n        /* \"#utility.yul\":23542:23546   */\n      0x24\n        /* \"#utility.yul\":23539:23540   */\n      0x00\n        /* \"#utility.yul\":23532:23547   */\n      revert\n        /* \"#utility.yul\":23559:23750   */\n    tag_225:\n        /* \"#utility.yul\":23599:23603   */\n      0x00\n        /* \"#utility.yul\":23619:23639   */\n      tag_712\n        /* \"#utility.yul\":23637:23638   */\n      dup3\n        /* \"#utility.yul\":23619:23639   */\n      tag_447\n      jump\t// in\n    tag_712:\n        /* \"#utility.yul\":23614:23639   */\n      swap2\n      pop\n        /* \"#utility.yul\":23653:23673   */\n      tag_713\n        /* \"#utility.yul\":23671:23672   */\n      dup4\n        /* \"#utility.yul\":23653:23673   */\n      tag_447\n      jump\t// in\n    tag_713:\n        /* \"#utility.yul\":23648:23673   */\n      swap3\n      pop\n        /* \"#utility.yul\":23692:23693   */\n      dup3\n        /* \"#utility.yul\":23689:23690   */\n      dup3\n        /* \"#utility.yul\":23686:23694   */\n      lt\n        /* \"#utility.yul\":23683:23717   */\n      iszero\n      tag_714\n      jumpi\n        /* \"#utility.yul\":23697:23715   */\n      tag_715\n      tag_479\n      jump\t// in\n    tag_715:\n        /* \"#utility.yul\":23683:23717   */\n    tag_714:\n        /* \"#utility.yul\":23742:23743   */\n      dup3\n        /* \"#utility.yul\":23739:23740   */\n      dup3\n        /* \"#utility.yul\":23735:23744   */\n      sub\n        /* \"#utility.yul\":23727:23744   */\n      swap1\n      pop\n        /* \"#utility.yul\":23559:23750   */\n      swap3\n      swap2\n      pop\n      pop\n      jump\t// out\n        /* \"#utility.yul\":23756:23944   */\n    tag_228:\n        /* \"#utility.yul\":23795:23799   */\n      0x00\n        /* \"#utility.yul\":23815:23834   */\n      tag_717\n        /* \"#utility.yul\":23832:23833   */\n      dup3\n        /* \"#utility.yul\":23815:23834   */\n      tag_413\n      jump\t// in\n    tag_717:\n        /* \"#utility.yul\":23810:23834   */\n      swap2\n      pop\n        /* \"#utility.yul\":23848:23867   */\n      tag_718\n        /* \"#utility.yul\":23865:23866   */\n      dup4\n        /* \"#utility.yul\":23848:23867   */\n      tag_413\n      jump\t// in\n    tag_718:\n        /* \"#utility.yul\":23843:23867   */\n      swap3\n      pop\n        /* \"#utility.yul\":23886:23887   */\n      dup3\n        /* \"#utility.yul\":23883:23884   */\n      dup3\n        /* \"#utility.yul\":23880:23888   */\n      lt\n        /* \"#utility.yul\":23877:23911   */\n      iszero\n      tag_719\n      jumpi\n        /* \"#utility.yul\":23891:23909   */\n      tag_720\n      tag_479\n      jump\t// in\n    tag_720:\n        /* \"#utility.yul\":23877:23911   */\n    tag_719:\n        /* \"#utility.yul\":23936:23937   */\n      dup3\n        /* \"#utility.yul\":23933:23934   */\n      dup3\n        /* \"#utility.yul\":23929:23938   */\n      sub\n        /* \"#utility.yul\":23921:23938   */\n      swap1\n      pop\n        /* \"#utility.yul\":23756:23944   */\n      swap3\n      swap2\n      pop\n      pop\n      jump\t// out\n        /* \"#utility.yul\":23950:24130   */\n    tag_480:\n        /* \"#utility.yul\":24090:24122   */\n      0x436f6d70617269736f6e2073796d626f6c206973206e6f742076616c69640000\n        /* \"#utility.yul\":24086:24087   */\n      0x00\n        /* \"#utility.yul\":24078:24084   */\n      dup3\n        /* \"#utility.yul\":24074:24088   */\n      add\n        /* \"#utility.yul\":24067:24123   */\n      mstore\n        /* \"#utility.yul\":23950:24130   */\n      pop\n      jump\t// out\n        /* \"#utility.yul\":24136:24502   */\n    tag_481:\n        /* \"#utility.yul\":24278:24281   */\n      0x00\n        /* \"#utility.yul\":24299:24366   */\n      tag_723\n        /* \"#utility.yul\":24363:24365   */\n      0x1e\n        /* \"#utility.yul\":24358:24361   */\n      dup4\n        /* \"#utility.yul\":24299:24366   */\n      tag_459\n      jump\t// in\n    tag_723:\n        /* \"#utility.yul\":24292:24366   */\n      swap2\n      pop\n        /* \"#utility.yul\":24375:24468   */\n      tag_724\n        /* \"#utility.yul\":24464:24467   */\n      dup3\n        /* \"#utility.yul\":24375:24468   */\n      tag_480\n      jump\t// in\n    tag_724:\n        /* \"#utility.yul\":24493:24495   */\n      0x20\n        /* \"#utility.yul\":24488:24491   */\n      dup3\n        /* \"#utility.yul\":24484:24496   */\n      add\n        /* \"#utility.yul\":24477:24496   */\n      swap1\n      pop\n        /* \"#utility.yul\":24136:24502   */\n      swap2\n      swap1\n      pop\n      jump\t// out\n        /* \"#utility.yul\":24508:24927   */\n    tag_276:\n        /* \"#utility.yul\":24674:24678   */\n      0x00\n        /* \"#utility.yul\":24712:24714   */\n      0x20\n        /* \"#utility.yul\":24701:24710   */\n      dup3\n        /* \"#utility.yul\":24697:24715   */\n      add\n        /* \"#utility.yul\":24689:24715   */\n      swap1\n      pop\n        /* \"#utility.yul\":24761:24770   */\n      dup2\n        /* \"#utility.yul\":24755:24759   */\n      dup2\n        /* \"#utility.yul\":24751:24771   */\n      sub\n        /* \"#utility.yul\":24747:24748   */\n      0x00\n        /* \"#utility.yul\":24736:24745   */\n      dup4\n        /* \"#utility.yul\":24732:24749   */\n      add\n        /* \"#utility.yul\":24725:24772   */\n      mstore\n        /* \"#utility.yul\":24789:24920   */\n      tag_726\n        /* \"#utility.yul\":24915:24919   */\n      dup2\n        /* \"#utility.yul\":24789:24920   */\n      tag_481\n      jump\t// in\n    tag_726:\n        /* \"#utility.yul\":24781:24920   */\n      swap1\n      pop\n        /* \"#utility.yul\":24508:24927   */\n      swap2\n      swap1\n      pop\n      jump\t// out\n        /* \"#utility.yul\":24933:25165   */\n    tag_482:\n        /* \"#utility.yul\":25073:25107   */\n      0x54686520726573756c74206f66207468652078706174682073686f756c642062\n        /* \"#utility.yul\":25069:25070   */\n      0x00\n        /* \"#utility.yul\":25061:25067   */\n      dup3\n        /* \"#utility.yul\":25057:25071   */\n      add\n        /* \"#utility.yul\":25050:25108   */\n      mstore\n        /* \"#utility.yul\":25142:25157   */\n      0x65206d6f7265207468616e203000000000000000000000000000000000000000\n        /* \"#utility.yul\":25137:25139   */\n      0x20\n        /* \"#utility.yul\":25129:25135   */\n      dup3\n        /* \"#utility.yul\":25125:25140   */\n      add\n        /* \"#utility.yul\":25118:25158   */\n      mstore\n        /* \"#utility.yul\":24933:25165   */\n      pop\n      jump\t// out\n        /* \"#utility.yul\":25171:25537   */\n    tag_483:\n        /* \"#utility.yul\":25313:25316   */\n      0x00\n        /* \"#utility.yul\":25334:25401   */\n      tag_729\n        /* \"#utility.yul\":25398:25400   */\n      0x2d\n        /* \"#utility.yul\":25393:25396   */\n      dup4\n        /* \"#utility.yul\":25334:25401   */\n      tag_459\n      jump\t// in\n    tag_729:\n        /* \"#utility.yul\":25327:25401   */\n      swap2\n      pop\n        /* \"#utility.yul\":25410:25503   */\n      tag_730\n        /* \"#utility.yul\":25499:25502   */\n      dup3\n        /* \"#utility.yul\":25410:25503   */\n      tag_482\n      jump\t// in\n    tag_730:\n        /* \"#utility.yul\":25528:25530   */\n      0x40\n        /* \"#utility.yul\":25523:25526   */\n      dup3\n        /* \"#utility.yul\":25519:25531   */\n      add\n        /* \"#utility.yul\":25512:25531   */\n      swap1\n      pop\n        /* \"#utility.yul\":25171:25537   */\n      swap2\n      swap1\n      pop\n      jump\t// out\n        /* \"#utility.yul\":25543:25962   */\n    tag_280:\n        /* \"#utility.yul\":25709:25713   */\n      0x00\n        /* \"#utility.yul\":25747:25749   */\n      0x20\n        /* \"#utility.yul\":25736:25745   */\n      dup3\n        /* \"#utility.yul\":25732:25750   */\n      add\n        /* \"#utility.yul\":25724:25750   */\n      swap1\n      pop\n        /* \"#utility.yul\":25796:25805   */\n      dup2\n        /* \"#utility.yul\":25790:25794   */\n      dup2\n        /* \"#utility.yul\":25786:25806   */\n      sub\n        /* \"#utility.yul\":25782:25783   */\n      0x00\n        /* \"#utility.yul\":25771:25780   */\n      dup4\n        /* \"#utility.yul\":25767:25784   */\n      add\n        /* \"#utility.yul\":25760:25807   */\n      mstore\n        /* \"#utility.yul\":25824:25955   */\n      tag_732\n        /* \"#utility.yul\":25950:25954   */\n      dup2\n        /* \"#utility.yul\":25824:25955   */\n      tag_483\n      jump\t// in\n    tag_732:\n        /* \"#utility.yul\":25816:25955   */\n      swap1\n      pop\n        /* \"#utility.yul\":25543:25962   */\n      swap2\n      swap1\n      pop\n      jump\t// out\n        /* \"#utility.yul\":25968:26116   */\n    tag_484:\n        /* \"#utility.yul\":26070:26081   */\n      0x00\n        /* \"#utility.yul\":26107:26110   */\n      dup2\n        /* \"#utility.yul\":26092:26110   */\n      swap1\n      pop\n        /* \"#utility.yul\":25968:26116   */\n      swap3\n      swap2\n      pop\n      pop\n      jump\t// out\n        /* \"#utility.yul\":26122:26286   */\n    tag_485:\n        /* \"#utility.yul\":26262:26278   */\n      0x596f752068617665206f6e6c7920000000000000000000000000000000000000\n        /* \"#utility.yul\":26258:26259   */\n      0x00\n        /* \"#utility.yul\":26250:26256   */\n      dup3\n        /* \"#utility.yul\":26246:26260   */\n      add\n        /* \"#utility.yul\":26239:26279   */\n      mstore\n        /* \"#utility.yul\":26122:26286   */\n      pop\n      jump\t// out\n        /* \"#utility.yul\":26292:26694   */\n    tag_486:\n        /* \"#utility.yul\":26452:26455   */\n      0x00\n        /* \"#utility.yul\":26473:26558   */\n      tag_736\n        /* \"#utility.yul\":26555:26557   */\n      0x0e\n        /* \"#utility.yul\":26550:26553   */\n      dup4\n        /* \"#utility.yul\":26473:26558   */\n      tag_484\n      jump\t// in\n    tag_736:\n        /* \"#utility.yul\":26466:26558   */\n      swap2\n      pop\n        /* \"#utility.yul\":26567:26660   */\n      tag_737\n        /* \"#utility.yul\":26656:26659   */\n      dup3\n        /* \"#utility.yul\":26567:26660   */\n      tag_485\n      jump\t// in\n    tag_737:\n        /* \"#utility.yul\":26685:26687   */\n      0x0e\n        /* \"#utility.yul\":26680:26683   */\n      dup3\n        /* \"#utility.yul\":26676:26688   */\n      add\n        /* \"#utility.yul\":26669:26688   */\n      swap1\n      pop\n        /* \"#utility.yul\":26292:26694   */\n      swap2\n      swap1\n      pop\n      jump\t// out\n        /* \"#utility.yul\":26700:27077   */\n    tag_487:\n        /* \"#utility.yul\":26806:26809   */\n      0x00\n        /* \"#utility.yul\":26834:26873   */\n      tag_739\n        /* \"#utility.yul\":26867:26872   */\n      dup3\n        /* \"#utility.yul\":26834:26873   */\n      tag_452\n      jump\t// in\n    tag_739:\n        /* \"#utility.yul\":26889:26978   */\n      tag_740\n        /* \"#utility.yul\":26971:26977   */\n      dup2\n        /* \"#utility.yul\":26966:26969   */\n      dup6\n        /* \"#utility.yul\":26889:26978   */\n      tag_484\n      jump\t// in\n    tag_740:\n        /* \"#utility.yul\":26882:26978   */\n      swap4\n      pop\n        /* \"#utility.yul\":26987:27039   */\n      tag_741\n        /* \"#utility.yul\":27032:27038   */\n      dup2\n        /* \"#utility.yul\":27027:27030   */\n      dup6\n        /* \"#utility.yul\":27020:27024   */\n      0x20\n        /* \"#utility.yul\":27013:27018   */\n      dup7\n        /* \"#utility.yul\":27009:27025   */\n      add\n        /* \"#utility.yul\":26987:27039   */\n      tag_454\n      jump\t// in\n    tag_741:\n        /* \"#utility.yul\":27064:27070   */\n      dup1\n        /* \"#utility.yul\":27059:27062   */\n      dup5\n        /* \"#utility.yul\":27055:27071   */\n      add\n        /* \"#utility.yul\":27048:27071   */\n      swap2\n      pop\n        /* \"#utility.yul\":26810:27077   */\n      pop\n        /* \"#utility.yul\":26700:27077   */\n      swap3\n      swap2\n      pop\n      pop\n      jump\t// out\n        /* \"#utility.yul\":27083:27239   */\n    tag_488:\n        /* \"#utility.yul\":27223:27231   */\n      0x2066726f6d200000000000000000000000000000000000000000000000000000\n        /* \"#utility.yul\":27219:27220   */\n      0x00\n        /* \"#utility.yul\":27211:27217   */\n      dup3\n        /* \"#utility.yul\":27207:27221   */\n      add\n        /* \"#utility.yul\":27200:27232   */\n      mstore\n        /* \"#utility.yul\":27083:27239   */\n      pop\n      jump\t// out\n        /* \"#utility.yul\":27245:27645   */\n    tag_489:\n        /* \"#utility.yul\":27405:27408   */\n      0x00\n        /* \"#utility.yul\":27426:27510   */\n      tag_744\n        /* \"#utility.yul\":27508:27509   */\n      0x06\n        /* \"#utility.yul\":27503:27506   */\n      dup4\n        /* \"#utility.yul\":27426:27510   */\n      tag_484\n      jump\t// in\n    tag_744:\n        /* \"#utility.yul\":27419:27510   */\n      swap2\n      pop\n        /* \"#utility.yul\":27519:27612   */\n      tag_745\n        /* \"#utility.yul\":27608:27611   */\n      dup3\n        /* \"#utility.yul\":27519:27612   */\n      tag_488\n      jump\t// in\n    tag_745:\n        /* \"#utility.yul\":27637:27638   */\n      0x06\n        /* \"#utility.yul\":27632:27635   */\n      dup3\n        /* \"#utility.yul\":27628:27639   */\n      add\n        /* \"#utility.yul\":27621:27639   */\n      swap1\n      pop\n        /* \"#utility.yul\":27245:27645   */\n      swap2\n      swap1\n      pop\n      jump\t// out\n        /* \"#utility.yul\":27651:27887   */\n    tag_490:\n        /* \"#utility.yul\":27791:27825   */\n      0x2072657374696e672c20616e6420746865206d65737361676520636f6e746574\n        /* \"#utility.yul\":27787:27788   */\n      0x00\n        /* \"#utility.yul\":27779:27785   */\n      dup3\n        /* \"#utility.yul\":27775:27789   */\n      add\n        /* \"#utility.yul\":27768:27826   */\n      mstore\n        /* \"#utility.yul\":27860:27879   */\n      0x20787061746820726573756c7420697320000000000000000000000000000000\n        /* \"#utility.yul\":27855:27857   */\n      0x20\n        /* \"#utility.yul\":27847:27853   */\n      dup3\n        /* \"#utility.yul\":27843:27858   */\n      add\n        /* \"#utility.yul\":27836:27880   */\n      mstore\n        /* \"#utility.yul\":27651:27887   */\n      pop\n      jump\t// out\n        /* \"#utility.yul\":27893:28295   */\n    tag_491:\n        /* \"#utility.yul\":28053:28056   */\n      0x00\n        /* \"#utility.yul\":28074:28159   */\n      tag_748\n        /* \"#utility.yul\":28156:28158   */\n      0x31\n        /* \"#utility.yul\":28151:28154   */\n      dup4\n        /* \"#utility.yul\":28074:28159   */\n      tag_484\n      jump\t// in\n    tag_748:\n        /* \"#utility.yul\":28067:28159   */\n      swap2\n      pop\n        /* \"#utility.yul\":28168:28261   */\n      tag_749\n        /* \"#utility.yul\":28257:28260   */\n      dup3\n        /* \"#utility.yul\":28168:28261   */\n      tag_490\n      jump\t// in\n    tag_749:\n        /* \"#utility.yul\":28286:28288   */\n      0x31\n        /* \"#utility.yul\":28281:28284   */\n      dup3\n        /* \"#utility.yul\":28277:28289   */\n      add\n        /* \"#utility.yul\":28270:28289   */\n      swap1\n      pop\n        /* \"#utility.yul\":27893:28295   */\n      swap2\n      swap1\n      pop\n      jump\t// out\n        /* \"#utility.yul\":28301:29694   */\n    tag_290:\n        /* \"#utility.yul\":28832:28835   */\n      0x00\n        /* \"#utility.yul\":28854:29002   */\n      tag_751\n        /* \"#utility.yul\":28998:29001   */\n      dup3\n        /* \"#utility.yul\":28854:29002   */\n      tag_486\n      jump\t// in\n    tag_751:\n        /* \"#utility.yul\":28847:29002   */\n      swap2\n      pop\n        /* \"#utility.yul\":29019:29114   */\n      tag_752\n        /* \"#utility.yul\":29110:29113   */\n      dup3\n        /* \"#utility.yul\":29101:29107   */\n      dup7\n        /* \"#utility.yul\":29019:29114   */\n      tag_487\n      jump\t// in\n    tag_752:\n        /* \"#utility.yul\":29012:29114   */\n      swap2\n      pop\n        /* \"#utility.yul\":29131:29279   */\n      tag_753\n        /* \"#utility.yul\":29275:29278   */\n      dup3\n        /* \"#utility.yul\":29131:29279   */\n      tag_489\n      jump\t// in\n    tag_753:\n        /* \"#utility.yul\":29124:29279   */\n      swap2\n      pop\n        /* \"#utility.yul\":29296:29391   */\n      tag_754\n        /* \"#utility.yul\":29387:29390   */\n      dup3\n        /* \"#utility.yul\":29378:29384   */\n      dup6\n        /* \"#utility.yul\":29296:29391   */\n      tag_487\n      jump\t// in\n    tag_754:\n        /* \"#utility.yul\":29289:29391   */\n      swap2\n      pop\n        /* \"#utility.yul\":29408:29556   */\n      tag_755\n        /* \"#utility.yul\":29552:29555   */\n      dup3\n        /* \"#utility.yul\":29408:29556   */\n      tag_491\n      jump\t// in\n    tag_755:\n        /* \"#utility.yul\":29401:29556   */\n      swap2\n      pop\n        /* \"#utility.yul\":29573:29668   */\n      tag_756\n        /* \"#utility.yul\":29664:29667   */\n      dup3\n        /* \"#utility.yul\":29655:29661   */\n      dup5\n        /* \"#utility.yul\":29573:29668   */\n      tag_487\n      jump\t// in\n    tag_756:\n        /* \"#utility.yul\":29566:29668   */\n      swap2\n      pop\n        /* \"#utility.yul\":29685:29688   */\n      dup2\n        /* \"#utility.yul\":29678:29688   */\n      swap1\n      pop\n        /* \"#utility.yul\":28301:29694   */\n      swap5\n      swap4\n      pop\n      pop\n      pop\n      pop\n      jump\t// out\n        /* \"#utility.yul\":29700:30064   */\n    tag_492:\n        /* \"#utility.yul\":29788:29791   */\n      0x00\n        /* \"#utility.yul\":29816:29855   */\n      tag_758\n        /* \"#utility.yul\":29849:29854   */\n      dup3\n        /* \"#utility.yul\":29816:29855   */\n      tag_452\n      jump\t// in\n    tag_758:\n        /* \"#utility.yul\":29871:29942   */\n      tag_759\n        /* \"#utility.yul\":29935:29941   */\n      dup2\n        /* \"#utility.yul\":29930:29933   */\n      dup6\n        /* \"#utility.yul\":29871:29942   */\n      tag_459\n      jump\t// in\n    tag_759:\n        /* \"#utility.yul\":29864:29942   */\n      swap4\n      pop\n        /* \"#utility.yul\":29951:30003   */\n      tag_760\n        /* \"#utility.yul\":29996:30002   */\n      dup2\n        /* \"#utility.yul\":29991:29994   */\n      dup6\n        /* \"#utility.yul\":29984:29988   */\n      0x20\n        /* \"#utility.yul\":29977:29982   */\n      dup7\n        /* \"#utility.yul\":29973:29989   */\n      add\n        /* \"#utility.yul\":29951:30003   */\n      tag_454\n      jump\t// in\n    tag_760:\n        /* \"#utility.yul\":30028:30057   */\n      tag_761\n        /* \"#utility.yul\":30050:30056   */\n      dup2\n        /* \"#utility.yul\":30028:30057   */\n      tag_420\n      jump\t// in\n    tag_761:\n        /* \"#utility.yul\":30023:30026   */\n      dup5\n        /* \"#utility.yul\":30019:30058   */\n      add\n        /* \"#utility.yul\":30012:30058   */\n      swap2\n      pop\n        /* \"#utility.yul\":29792:30064   */\n      pop\n        /* \"#utility.yul\":29700:30064   */\n      swap3\n      swap2\n      pop\n      pop\n      jump\t// out\n        /* \"#utility.yul\":30070:30383   */\n    tag_293:\n        /* \"#utility.yul\":30183:30187   */\n      0x00\n        /* \"#utility.yul\":30221:30223   */\n      0x20\n        /* \"#utility.yul\":30210:30219   */\n      dup3\n        /* \"#utility.yul\":30206:30224   */\n      add\n        /* \"#utility.yul\":30198:30224   */\n      swap1\n      pop\n        /* \"#utility.yul\":30270:30279   */\n      dup2\n        /* \"#utility.yul\":30264:30268   */\n      dup2\n        /* \"#utility.yul\":30260:30280   */\n      sub\n        /* \"#utility.yul\":30256:30257   */\n      0x00\n        /* \"#utility.yul\":30245:30254   */\n      dup4\n        /* \"#utility.yul\":30241:30258   */\n      add\n        /* \"#utility.yul\":30234:30281   */\n      mstore\n        /* \"#utility.yul\":30298:30376   */\n      tag_763\n        /* \"#utility.yul\":30371:30375   */\n      dup2\n        /* \"#utility.yul\":30362:30368   */\n      dup5\n        /* \"#utility.yul\":30298:30376   */\n      tag_492\n      jump\t// in\n    tag_763:\n        /* \"#utility.yul\":30290:30376   */\n      swap1\n      pop\n        /* \"#utility.yul\":30070:30383   */\n      swap3\n      swap2\n      pop\n      pop\n      jump\t// out\n        /* \"#utility.yul\":30389:30635   */\n    tag_493:\n        /* \"#utility.yul\":30529:30563   */\n      0x546865206d6574686f642067657454696d65496e5365636f6e647320646f6573\n        /* \"#utility.yul\":30525:30526   */\n      0x00\n        /* \"#utility.yul\":30517:30523   */\n      dup3\n        /* \"#utility.yul\":30513:30527   */\n      add\n        /* \"#utility.yul\":30506:30564   */\n      mstore\n        /* \"#utility.yul\":30598:30627   */\n      0x6e277420776f726b20666f72204d4f4e544820616e6420594541520000000000\n        /* \"#utility.yul\":30593:30595   */\n      0x20\n        /* \"#utility.yul\":30585:30591   */\n      dup3\n        /* \"#utility.yul\":30581:30596   */\n      add\n        /* \"#utility.yul\":30574:30628   */\n      mstore\n        /* \"#utility.yul\":30389:30635   */\n      pop\n      jump\t// out\n        /* \"#utility.yul\":30641:31007   */\n    tag_494:\n        /* \"#utility.yul\":30783:30786   */\n      0x00\n        /* \"#utility.yul\":30804:30871   */\n      tag_766\n        /* \"#utility.yul\":30868:30870   */\n      0x3b\n        /* \"#utility.yul\":30863:30866   */\n      dup4\n        /* \"#utility.yul\":30804:30871   */\n      tag_459\n      jump\t// in\n    tag_766:\n        /* \"#utility.yul\":30797:30871   */\n      swap2\n      pop\n        /* \"#utility.yul\":30880:30973   */\n      tag_767\n        /* \"#utility.yul\":30969:30972   */\n      dup3\n        /* \"#utility.yul\":30880:30973   */\n      tag_493\n      jump\t// in\n    tag_767:\n        /* \"#utility.yul\":30998:31000   */\n      0x40\n        /* \"#utility.yul\":30993:30996   */\n      dup3\n        /* \"#utility.yul\":30989:31001   */\n      add\n        /* \"#utility.yul\":30982:31001   */\n      swap1\n      pop\n        /* \"#utility.yul\":30641:31007   */\n      swap2\n      swap1\n      pop\n      jump\t// out\n        /* \"#utility.yul\":31013:31432   */\n    tag_298:\n        /* \"#utility.yul\":31179:31183   */\n      0x00\n        /* \"#utility.yul\":31217:31219   */\n      0x20\n        /* \"#utility.yul\":31206:31215   */\n      dup3\n        /* \"#utility.yul\":31202:31220   */\n      add\n        /* \"#utility.yul\":31194:31220   */\n      swap1\n      pop\n        /* \"#utility.yul\":31266:31275   */\n      dup2\n        /* \"#utility.yul\":31260:31264   */\n      dup2\n        /* \"#utility.yul\":31256:31276   */\n      sub\n        /* \"#utility.yul\":31252:31253   */\n      0x00\n        /* \"#utility.yul\":31241:31250   */\n      dup4\n        /* \"#utility.yul\":31237:31254   */\n      add\n        /* \"#utility.yul\":31230:31277   */\n      mstore\n        /* \"#utility.yul\":31294:31425   */\n      tag_769\n        /* \"#utility.yul\":31420:31424   */\n      dup2\n        /* \"#utility.yul\":31294:31425   */\n      tag_494\n      jump\t// in\n    tag_769:\n        /* \"#utility.yul\":31286:31425   */\n      swap1\n      pop\n        /* \"#utility.yul\":31013:31432   */\n      swap2\n      swap1\n      pop\n      jump\t// out\n        /* \"#utility.yul\":31438:31743   */\n    tag_326:\n        /* \"#utility.yul\":31478:31481   */\n      0x00\n        /* \"#utility.yul\":31497:31517   */\n      tag_771\n        /* \"#utility.yul\":31515:31516   */\n      dup3\n        /* \"#utility.yul\":31497:31517   */\n      tag_447\n      jump\t// in\n    tag_771:\n        /* \"#utility.yul\":31492:31517   */\n      swap2\n      pop\n        /* \"#utility.yul\":31531:31551   */\n      tag_772\n        /* \"#utility.yul\":31549:31550   */\n      dup4\n        /* \"#utility.yul\":31531:31551   */\n      tag_447\n      jump\t// in\n    tag_772:\n        /* \"#utility.yul\":31526:31551   */\n      swap3\n      pop\n        /* \"#utility.yul\":31685:31686   */\n      dup3\n        /* \"#utility.yul\":31617:31683   */\n      0xffffffffffffffffffffffffffffffffffffffffffffffffffffffffffffffff\n        /* \"#utility.yul\":31613:31687   */\n      sub\n        /* \"#utility.yul\":31610:31611   */\n      dup3\n        /* \"#utility.yul\":31607:31688   */\n      gt\n        /* \"#utility.yul\":31604:31711   */\n      iszero\n      tag_773\n      jumpi\n        /* \"#utility.yul\":31691:31709   */\n      tag_774\n      tag_479\n      jump\t// in\n    tag_774:\n        /* \"#utility.yul\":31604:31711   */\n    tag_773:\n        /* \"#utility.yul\":31735:31736   */\n      dup3\n        /* \"#utility.yul\":31732:31733   */\n      dup3\n        /* \"#utility.yul\":31728:31737   */\n      add\n        /* \"#utility.yul\":31721:31737   */\n      swap1\n      pop\n        /* \"#utility.yul\":31438:31743   */\n      swap3\n      swap2\n      pop\n      pop\n      jump\t// out\n        /* \"#utility.yul\":31749:31982   */\n    tag_335:\n        /* \"#utility.yul\":31788:31791   */\n      0x00\n        /* \"#utility.yul\":31811:31835   */\n      tag_776\n        /* \"#utility.yul\":31829:31834   */\n      dup3\n        /* \"#utility.yul\":31811:31835   */\n      tag_447\n      jump\t// in\n    tag_776:\n        /* \"#utility.yul\":31802:31835   */\n      swap2\n      pop\n        /* \"#utility.yul\":31857:31923   */\n      0xffffffffffffffffffffffffffffffffffffffffffffffffffffffffffffffff\n        /* \"#utility.yul\":31850:31855   */\n      dup3\n        /* \"#utility.yul\":31847:31924   */\n      sub\n        /* \"#utility.yul\":31844:31947   */\n      tag_777\n      jumpi\n        /* \"#utility.yul\":31927:31945   */\n      tag_778\n      tag_479\n      jump\t// in\n    tag_778:\n        /* \"#utility.yul\":31844:31947   */\n    tag_777:\n        /* \"#utility.yul\":31974:31975   */\n      0x01\n        /* \"#utility.yul\":31967:31972   */\n      dup3\n        /* \"#utility.yul\":31963:31976   */\n      add\n        /* \"#utility.yul\":31956:31976   */\n      swap1\n      pop\n        /* \"#utility.yul\":31749:31982   */\n      swap2\n      swap1\n      pop\n      jump\t// out\n        /* \"#utility.yul\":31988:32168   */\n    tag_495:\n        /* \"#utility.yul\":32036:32113   */\n      0x4e487b7100000000000000000000000000000000000000000000000000000000\n        /* \"#utility.yul\":32033:32034   */\n      0x00\n        /* \"#utility.yul\":32026:32114   */\n      mstore\n        /* \"#utility.yul\":32133:32137   */\n      0x12\n        /* \"#utility.yul\":32130:32131   */\n      0x04\n        /* \"#utility.yul\":32123:32138   */\n      mstore\n        /* \"#utility.yul\":32157:32161   */\n      0x24\n        /* \"#utility.yul\":32154:32155   */\n      0x00\n        /* \"#utility.yul\":32147:32162   */\n      revert\n        /* \"#utility.yul\":32174:32359   */\n    tag_337:\n        /* \"#utility.yul\":32214:32215   */\n      0x00\n        /* \"#utility.yul\":32231:32251   */\n      tag_781\n        /* \"#utility.yul\":32249:32250   */\n      dup3\n        /* \"#utility.yul\":32231:32251   */\n      tag_447\n      jump\t// in\n    tag_781:\n        /* \"#utility.yul\":32226:32251   */\n      swap2\n      pop\n        /* \"#utility.yul\":32265:32285   */\n      tag_782\n        /* \"#utility.yul\":32283:32284   */\n      dup4\n        /* \"#utility.yul\":32265:32285   */\n      tag_447\n      jump\t// in\n    tag_782:\n        /* \"#utility.yul\":32260:32285   */\n      swap3\n      pop\n        /* \"#utility.yul\":32304:32305   */\n      dup3\n        /* \"#utility.yul\":32294:32329   */\n      tag_783\n      jumpi\n        /* \"#utility.yul\":32309:32327   */\n      tag_784\n      tag_495\n      jump\t// in\n    tag_784:\n        /* \"#utility.yul\":32294:32329   */\n    tag_783:\n        /* \"#utility.yul\":32351:32352   */\n      dup3\n        /* \"#utility.yul\":32348:32349   */\n      dup3\n        /* \"#utility.yul\":32344:32353   */\n      div\n        /* \"#utility.yul\":32339:32353   */\n      swap1\n      pop\n        /* \"#utility.yul\":32174:32359   */\n      swap3\n      swap2\n      pop\n      pop\n      jump\t// out\n        /* \"#utility.yul\":32365:32541   */\n    tag_346:\n        /* \"#utility.yul\":32397:32398   */\n      0x00\n        /* \"#utility.yul\":32414:32434   */\n      tag_786\n        /* \"#utility.yul\":32432:32433   */\n      dup3\n        /* \"#utility.yul\":32414:32434   */\n      tag_447\n      jump\t// in\n    tag_786:\n        /* \"#utility.yul\":32409:32434   */\n      swap2\n      pop\n        /* \"#utility.yul\":32448:32468   */\n      tag_787\n        /* \"#utility.yul\":32466:32467   */\n      dup4\n        /* \"#utility.yul\":32448:32468   */\n      tag_447\n      jump\t// in\n    tag_787:\n        /* \"#utility.yul\":32443:32468   */\n      swap3\n      pop\n        /* \"#utility.yul\":32487:32488   */\n      dup3\n        /* \"#utility.yul\":32477:32512   */\n      tag_788\n      jumpi\n        /* \"#utility.yul\":32492:32510   */\n      tag_789\n      tag_495\n      jump\t// in\n    tag_789:\n        /* \"#utility.yul\":32477:32512   */\n    tag_788:\n        /* \"#utility.yul\":32533:32534   */\n      dup3\n        /* \"#utility.yul\":32530:32531   */\n      dup3\n        /* \"#utility.yul\":32526:32535   */\n      mod\n        /* \"#utility.yul\":32521:32535   */\n      swap1\n      pop\n        /* \"#utility.yul\":32365:32541   */\n      swap3\n      swap2\n      pop\n      pop\n      jump\t// out\n        /* \"#utility.yul\":32547:32793   */\n    tag_354:\n        /* \"#utility.yul\":32586:32589   */\n      0x00\n        /* \"#utility.yul\":32605:32624   */\n      tag_791\n        /* \"#utility.yul\":32622:32623   */\n      dup3\n        /* \"#utility.yul\":32605:32624   */\n      tag_413\n      jump\t// in\n    tag_791:\n        /* \"#utility.yul\":32600:32624   */\n      swap2\n      pop\n        /* \"#utility.yul\":32638:32657   */\n      tag_792\n        /* \"#utility.yul\":32655:32656   */\n      dup4\n        /* \"#utility.yul\":32638:32657   */\n      tag_413\n      jump\t// in\n    tag_792:\n        /* \"#utility.yul\":32633:32657   */\n      swap3\n      pop\n        /* \"#utility.yul\":32735:32736   */\n      dup3\n        /* \"#utility.yul\":32723:32733   */\n      0xffffffff\n        /* \"#utility.yul\":32719:32737   */\n      sub\n        /* \"#utility.yul\":32716:32717   */\n      dup3\n        /* \"#utility.yul\":32713:32738   */\n      gt\n        /* \"#utility.yul\":32710:32761   */\n      iszero\n      tag_793\n      jumpi\n        /* \"#utility.yul\":32741:32759   */\n      tag_794\n      tag_479\n      jump\t// in\n    tag_794:\n        /* \"#utility.yul\":32710:32761   */\n    tag_793:\n        /* \"#utility.yul\":32785:32786   */\n      dup3\n        /* \"#utility.yul\":32782:32783   */\n      dup3\n        /* \"#utility.yul\":32778:32787   */\n      add\n        /* \"#utility.yul\":32771:32787   */\n      swap1\n      pop\n        /* \"#utility.yul\":32547:32793   */\n      swap3\n      swap2\n      pop\n      pop\n      jump\t// out\n        /* \"#utility.yul\":32799:33088   */\n    tag_357:\n        /* \"#utility.yul\":32838:32845   */\n      0x00\n        /* \"#utility.yul\":32861:32880   */\n      tag_796\n        /* \"#utility.yul\":32878:32879   */\n      dup3\n        /* \"#utility.yul\":32861:32880   */\n      tag_413\n      jump\t// in\n    tag_796:\n        /* \"#utility.yul\":32856:32880   */\n      swap2\n      pop\n        /* \"#utility.yul\":32894:32913   */\n      tag_797\n        /* \"#utility.yul\":32911:32912   */\n      dup4\n        /* \"#utility.yul\":32894:32913   */\n      tag_413\n      jump\t// in\n    tag_797:\n        /* \"#utility.yul\":32889:32913   */\n      swap3\n      pop\n        /* \"#utility.yul\":33025:33026   */\n      dup2\n        /* \"#utility.yul\":33013:33023   */\n      0xffffffff\n        /* \"#utility.yul\":33009:33027   */\n      div\n        /* \"#utility.yul\":33006:33007   */\n      dup4\n        /* \"#utility.yul\":33003:33028   */\n      gt\n        /* \"#utility.yul\":32998:32999   */\n      dup3\n        /* \"#utility.yul\":32991:33000   */\n      iszero\n        /* \"#utility.yul\":32984:33001   */\n      iszero\n        /* \"#utility.yul\":32980:33029   */\n      and\n        /* \"#utility.yul\":32977:33052   */\n      iszero\n      tag_798\n      jumpi\n        /* \"#utility.yul\":33032:33050   */\n      tag_799\n      tag_479\n      jump\t// in\n    tag_799:\n        /* \"#utility.yul\":32977:33052   */\n    tag_798:\n        /* \"#utility.yul\":33080:33081   */\n      dup3\n        /* \"#utility.yul\":33077:33078   */\n      dup3\n        /* \"#utility.yul\":33073:33082   */\n      mul\n        /* \"#utility.yul\":33062:33082   */\n      swap1\n      pop\n        /* \"#utility.yul\":32799:33088   */\n      swap3\n      swap2\n      pop\n      pop\n      jump\t// out\n        /* \"#utility.yul\":33094:33276   */\n    tag_359:\n        /* \"#utility.yul\":33133:33134   */\n      0x00\n        /* \"#utility.yul\":33150:33169   */\n      tag_801\n        /* \"#utility.yul\":33167:33168   */\n      dup3\n        /* \"#utility.yul\":33150:33169   */\n      tag_413\n      jump\t// in\n    tag_801:\n        /* \"#utility.yul\":33145:33169   */\n      swap2\n      pop\n        /* \"#utility.yul\":33183:33202   */\n      tag_802\n        /* \"#utility.yul\":33200:33201   */\n      dup4\n        /* \"#utility.yul\":33183:33202   */\n      tag_413\n      jump\t// in\n    tag_802:\n        /* \"#utility.yul\":33178:33202   */\n      swap3\n      pop\n        /* \"#utility.yul\":33221:33222   */\n      dup3\n        /* \"#utility.yul\":33211:33246   */\n      tag_803\n      jumpi\n        /* \"#utility.yul\":33226:33244   */\n      tag_804\n      tag_495\n      jump\t// in\n    tag_804:\n        /* \"#utility.yul\":33211:33246   */\n    tag_803:\n        /* \"#utility.yul\":33268:33269   */\n      dup3\n        /* \"#utility.yul\":33265:33266   */\n      dup3\n        /* \"#utility.yul\":33261:33270   */\n      div\n        /* \"#utility.yul\":33256:33270   */\n      swap1\n      pop\n        /* \"#utility.yul\":33094:33276   */\n      swap3\n      swap2\n      pop\n      pop\n      jump\t// out\n        /* \"#utility.yul\":33282:33455   */\n    tag_386:\n        /* \"#utility.yul\":33313:33314   */\n      0x00\n        /* \"#utility.yul\":33330:33349   */\n      tag_806\n        /* \"#utility.yul\":33347:33348   */\n      dup3\n        /* \"#utility.yul\":33330:33349   */\n      tag_413\n      jump\t// in\n    tag_806:\n        /* \"#utility.yul\":33325:33349   */\n      swap2\n      pop\n        /* \"#utility.yul\":33363:33382   */\n      tag_807\n        /* \"#utility.yul\":33380:33381   */\n      dup4\n        /* \"#utility.yul\":33363:33382   */\n      tag_413\n      jump\t// in\n    tag_807:\n        /* \"#utility.yul\":33358:33382   */\n      swap3\n      pop\n        /* \"#utility.yul\":33401:33402   */\n      dup3\n        /* \"#utility.yul\":33391:33426   */\n      tag_808\n      jumpi\n        /* \"#utility.yul\":33406:33424   */\n      tag_809\n      tag_495\n      jump\t// in\n    tag_809:\n        /* \"#utility.yul\":33391:33426   */\n    tag_808:\n        /* \"#utility.yul\":33447:33448   */\n      dup3\n        /* \"#utility.yul\":33444:33445   */\n      dup3\n        /* \"#utility.yul\":33440:33449   */\n      mod\n        /* \"#utility.yul\":33435:33449   */\n      swap1\n      pop\n        /* \"#utility.yul\":33282:33455   */\n      swap3\n      swap2\n      pop\n      pop\n      jump\t// out\n\n    auxdata: 0xa26469706673582212205837315b4326501bb5c7d6b373c7ca84f4270f777e79f374596b46b26fa9a10364736f6c634300080d0033\n}\n",
				"bytecode": {
					"linkReferences": {},
					"object": "60806040526040518060600160405280602e815260200162004c0c602e9139600690805190602001906200003592919062000fad565b503480156200004357600080fd5b5060405162004c3a38038062004c3a833981810160405281019062000069919062001295565b60016000806101000a81548160ff0219169083151502179055506363b14488600060016101000a81548163ffffffff021916908363ffffffff1602179055506365927808600060056101000a81548163ffffffff021916908363ffffffff1602179055506200011b6040518060400160405280600f81526020017f44656c69766572792053797374656d000000000000000000000000000000000081525082600062000b0f60201b620010cf1760201c565b600160008201518160000190805190602001906200013b92919062000fad565b5060208201518160010160006101000a81548173ffffffffffffffffffffffffffffffffffffffff021916908373ffffffffffffffffffffffffffffffffffffffff16021790555060408201518160010160146101000a81548160ff021916908315150217905550905050620001f46040518060400160405280601381526020017f496e746567726174696f6e2050726f636573730000000000000000000000000081525033600162000b0f60201b620010cf1760201c565b600360008201518160000190805190602001906200021492919062000fad565b5060208201518160010160006101000a81548173ffffffffffffffffffffffffffffffffffffffff021916908373ffffffffffffffffffffffffffffffffffffffff16021790555060408201518160010160146101000a81548160ff0219169083151502179055509050506003600560003373ffffffffffffffffffffffffffffffffffffffff1673ffffffffffffffffffffffffffffffffffffffff1681526020019081526020016000206000820181600001908054620002d690620012f6565b620002e39291906200103e565b506001820160009054906101000a900473ffffffffffffffffffffffffffffffffffffffff168160010160006101000a81548173ffffffffffffffffffffffffffffffffffffffff021916908373ffffffffffffffffffffffffffffffffffffffff1602179055506001820160149054906101000a900460ff168160010160146101000a81548160ff0219169083151502179055509050506001600560008373ffffffffffffffffffffffffffffffffffffffff1673ffffffffffffffffffffffffffffffffffffffff1681526020019081526020016000206000820181600001908054620003d290620012f6565b620003df9291906200103e565b506001820160009054906101000a900473ffffffffffffffffffffffffffffffffffffffff168160010160006101000a81548173ffffffffffffffffffffffffffffffffffffffff021916908373ffffffffffffffffffffffffffffffffffffffff1602179055506001820160149054906101000a900460ff168160010160146101000a81548160ff0219169083151502179055509050506007620004926001600562000b5560201b620011131760201c565b9080600181540180825580915050600190039060005260206000200160009091909190915060008201518160000160006101000a81548160ff021916908360ff16021790555060208201518160000160016101000a81548160ff021916908360ff16021790555050506008620005196177886201042862000c4860201b620011fc1760201c565b9080600181540180825580915050600190039060005260206000200160009091909190915060008201518160000160006101000a81548163ffffffff021916908363ffffffff16021790555060208201518160000160046101000a81548163ffffffff021916908363ffffffff16021790555050506009620005a96005600362000d5d60201b620013071760201c565b9080600181540180825580915050600190039060005260206000200160009091909190915060008201518160000160006101000a81548163ffffffff021916908363ffffffff16021790555060208201518160000160046101000a81548160ff021916908360ff16021790555060408201518160000160056101000a81548163ffffffff021916908363ffffffff16021790555060608201518160000160096101000a81548163ffffffff021916908363ffffffff160217905550608082015181600001600d6101000a81548163ffffffff021916908363ffffffff1602179055505050600a6200076f60068054620006a290620012f6565b80601f0160208091040260200160405190810160405280929190818152602001828054620006d090620012f6565b8015620007215780601f10620006f55761010080835404028352916020019162000721565b820191906000526020600020905b8154815290600101906020018083116200070357829003601f168201915b50505050506040518060400160405280600281526020017f3e3d000000000000000000000000000000000000000000000000000000000000815250600162000de260201b620013801760201c565b90806001815401808255809150506001900390600052602060002090600302016000909190919091506000820151816000019080519060200190620007b692919062000fad565b506020820151816001019080519060200190620007d592919062000fad565b50604082015181600201555050600a620008c460068054620007f790620012f6565b80601f01602080910402602001604051908101604052809291908181526020018280546200082590620012f6565b8015620008765780601f106200084a5761010080835404028352916020019162000876565b820191906000526020600020905b8154815290600101906020018083116200085857829003601f168201915b50505050506040518060400160405280600281526020017f3c3d000000000000000000000000000000000000000000000000000000000000815250600362000de260201b620013801760201c565b908060018154018082558091505060019003906000526020600020906003020160009091909190915060008201518160000190805190602001906200090b92919062000fad565b5060208201518160010190805190602001906200092a92919062000fad565b50604082015181600201555050600b62000a1c600680546200094c90620012f6565b80601f01602080910402602001604051908101604052809291908181526020018280546200097a90620012f6565b8015620009cb5780601f106200099f57610100808354040283529160200191620009cb565b820191906000526020600020905b815481529060010190602001808311620009ad57829003601f168201915b50505050506040518060400160405280600281526020017f3c3d0000000000000000000000000000000000000000000000000000000000008152506103e8600562000e1060201b620013ac1760201c565b9080600181540180825580915050600190039060005260206000209060060201600090919091909150600082015181600001908051906020019062000a6392919062000fad565b50602082015181600101908051906020019062000a8292919062000fad565b506040820151816002015560608201518160030160006101000a81548160ff021916908360ff16021790555060808201518160030160016101000a81548163ffffffff021916908363ffffffff16021790555060a0820151816004015560c08201518160050160006101000a81548163ffffffff021916908363ffffffff16021790555050505062001578565b62000b19620010d6565b60405180606001604052808581526020018473ffffffffffffffffffffffffffffffffffffffff16815260200183151581525090509392505050565b62000b5f6200110f565b8282600060ff168260ff161015801562000b805750600660ff168260ff1611155b62000bc2576040517f08c379a000000000000000000000000000000000000000000000000000000000815260040162000bb990620013b2565b60405180910390fd5b600060ff168160ff161015801562000be15750600660ff168160ff1611155b62000c23576040517f08c379a000000000000000000000000000000000000000000000000000000000815260040162000c1a906200144a565b60405180910390fd5b60405180604001604052808660ff1681526020018560ff168152509250505092915050565b62000c526200112f565b8282600063ffffffff168263ffffffff161015801562000c8157506201517f63ffffffff168263ffffffff1611155b62000cc3576040517f08c379a000000000000000000000000000000000000000000000000000000000815260040162000cba90620013b2565b60405180910390fd5b600063ffffffff168163ffffffff161015801562000cf057506201517f63ffffffff168163ffffffff1611155b62000d32576040517f08c379a000000000000000000000000000000000000000000000000000000000815260040162000d29906200144a565b60405180910390fd5b60405180604001604052808663ffffffff1681526020018563ffffffff168152509250505092915050565b62000d6762001155565b6000600460ff168360ff161162000d915762000d898362000eeb60201b60201c565b905062000d96565b600190505b6040518060a001604052808563ffffffff1681526020018460ff1681526020018263ffffffff1681526020018563ffffffff168152602001600063ffffffff1681525091505092915050565b62000dec6200119f565b60405180606001604052808581526020018481526020018381525090509392505050565b62000e1a620011c0565b6000600460ff168360ff161162000e445762000e3c8362000eeb60201b60201c565b905062000e49565b600190505b600185510362000e9d576040518060400160405280600281526020017f3c3d000000000000000000000000000000000000000000000000000000000000815250945060018462000e9a9190620014a5565b93505b6040518060e001604052808781526020018681526020018581526020018460ff1681526020018263ffffffff168152602001858152602001600063ffffffff16815250915050949350505050565b6000600460ff168260ff16111562000f3a576040517f08c379a000000000000000000000000000000000000000000000000000000000815260040162000f319062001556565b60405180910390fd5b600060ff168260ff160362000f53576001905062000fa8565b600160ff168260ff160362000f6c57603c905062000fa8565b600260ff168260ff160362000f8657610e10905062000fa8565b600360ff168260ff160362000fa15762015180905062000fa8565b62093a8090505b919050565b82805462000fbb90620012f6565b90600052602060002090601f01602090048101928262000fdf57600085556200102b565b82601f1062000ffa57805160ff19168380011785556200102b565b828001600101855582156200102b579182015b828111156200102a5782518255916020019190600101906200100d565b5b5090506200103a91906200120c565b5090565b8280546200104c90620012f6565b90600052602060002090601f016020900481019282620010705760008555620010c3565b82601f10620010835780548555620010c3565b82800160010185558215620010c357600052602060002091601f016020900482015b82811115620010c2578254825591600101919060010190620010a5565b5b509050620010d291906200120c565b5090565b604051806060016040528060608152602001600073ffffffffffffffffffffffffffffffffffffffff1681526020016000151581525090565b6040518060400160405280600060ff168152602001600060ff1681525090565b6040518060400160405280600063ffffffff168152602001600063ffffffff1681525090565b6040518060a00160405280600063ffffffff168152602001600060ff168152602001600063ffffffff168152602001600063ffffffff168152602001600063ffffffff1681525090565b60405180606001604052806060815260200160608152602001600081525090565b6040518060e00160405280606081526020016060815260200160008152602001600060ff168152602001600063ffffffff16815260200160008152602001600063ffffffff1681525090565b5b80821115620012275760008160009055506001016200120d565b5090565b600080fd5b600073ffffffffffffffffffffffffffffffffffffffff82169050919050565b60006200125d8262001230565b9050919050565b6200126f8162001250565b81146200127b57600080fd5b50565b6000815190506200128f8162001264565b92915050565b600060208284031215620012ae57620012ad6200122b565b5b6000620012be848285016200127e565b91505092915050565b7f4e487b7100000000000000000000000000000000000000000000000000000000600052602260045260246000fd5b600060028204905060018216806200130f57607f821691505b602082108103620013255762001324620012c7565b5b50919050565b600082825260208201905092915050565b7f546865205f7374617274446179206e6f7420726570726573656e74732061207660008201527f616c696420646179000000000000000000000000000000000000000000000000602082015250565b60006200139a6028836200132b565b9150620013a7826200133c565b604082019050919050565b60006020820190508181036000830152620013cd816200138b565b9050919050565b7f546865205f656e64446179206e6f7420726570726573656e747320612076616c60008201527f6964206461790000000000000000000000000000000000000000000000000000602082015250565b6000620014326026836200132b565b91506200143f82620013d4565b604082019050919050565b60006020820190508181036000830152620014658162001423565b9050919050565b6000819050919050565b7f4e487b7100000000000000000000000000000000000000000000000000000000600052601160045260246000fd5b6000620014b2826200146c565b9150620014bf836200146c565b925082821015620014d557620014d462001476565b5b828203905092915050565b7f546865206d6574686f642067657454696d65496e5365636f6e647320646f657360008201527f6e277420776f726b20666f72204d4f4e544820616e6420594541520000000000602082015250565b60006200153e603b836200132b565b91506200154b82620014e0565b604082019050919050565b6000602082019050818103600083015262001571816200152f565b9050919050565b61368480620015886000396000f3fe608060405234801561001057600080fd5b506004361061007d5760003560e01c8063859319111161005b57806385931911146100ee57806395d3bcdf1461010c578063b8b4f1a01461013c578063fb6f82431461015a5761007d565b80635d76e17a146100825780635e744c6a146100a057806370d8915a146100d0575b600080fd5b61008a61018a565b60405161009791906123d2565b60405180910390f35b6100ba60048036038101906100b591906125a5565b6101eb565b6040516100c7919061261c565b60405180910390f35b6100d86103dc565b6040516100e59190612646565b60405180910390f35b6100f6610543565b6040516101039190612646565b60405180910390f35b610126600480360381019061012191906128bd565b6106ab565b604051610133919061261c565b60405180910390f35b610144610ccf565b604051610151919061261c565b60405180910390f35b610174600480360381019061016f9190612970565b610e39565b6040516101819190612a93565b60405180910390f35b60006101b360096000815481106101a4576101a3612ab5565b5b90600052602060002001611478565b60096000815481106101c8576101c7612ab5565b5b9060005260206000200160000160099054906101000a900463ffffffff16905090565b60003373ffffffffffffffffffffffffffffffffffffffff16600360010160009054906101000a900473ffffffffffffffffffffffffffffffffffffffff1673ffffffffffffffffffffffffffffffffffffffff1614610280576040517f08c379a000000000000000000000000000000000000000000000000000000000815260040161027790612b67565b60405180910390fd5b600560006001800160009054906101000a900473ffffffffffffffffffffffffffffffffffffffff1673ffffffffffffffffffffffffffffffffffffffff1673ffffffffffffffffffffffffffffffffffffffff168152602001908152602001600020600080820160006102f4919061210d565b6001820160006101000a81549073ffffffffffffffffffffffffffffffffffffffff02191690556001820160146101000a81549060ff0219169055505061033d838360006110cf565b6001600082015181600001908051906020019061035b92919061214d565b5060208201518160010160006101000a81548173ffffffffffffffffffffffffffffffffffffffff021916908373ffffffffffffffffffffffffffffffffffffffff16021790555060408201518160010160146101000a81548160ff0219169083151502179055509050506103d18260016114bd565b506001905092915050565b60008060009054906101000a900460ff1661042c576040517f08c379a000000000000000000000000000000000000000000000000000000000815260040161042390612bd3565b60405180910390fd5b3373ffffffffffffffffffffffffffffffffffffffff166001800160009054906101000a900473ffffffffffffffffffffffffffffffffffffffff1673ffffffffffffffffffffffffffffffffffffffff1614806104da57503373ffffffffffffffffffffffffffffffffffffffff16600360010160009054906101000a900473ffffffffffffffffffffffffffffffffffffffff1673ffffffffffffffffffffffffffffffffffffffff16145b610519576040517f08c379a000000000000000000000000000000000000000000000000000000000815260040161051090612c65565b60405180910390fd5b6001800160009054906101000a900473ffffffffffffffffffffffffffffffffffffffff16905090565b60008060009054906101000a900460ff16610593576040517f08c379a000000000000000000000000000000000000000000000000000000000815260040161058a90612bd3565b60405180910390fd5b3373ffffffffffffffffffffffffffffffffffffffff166001800160009054906101000a900473ffffffffffffffffffffffffffffffffffffffff1673ffffffffffffffffffffffffffffffffffffffff16148061064157503373ffffffffffffffffffffffffffffffffffffffff16600360010160009054906101000a900473ffffffffffffffffffffffffffffffffffffffff1673ffffffffffffffffffffffffffffffffffffffff16145b610680576040517f08c379a000000000000000000000000000000000000000000000000000000000815260040161067790612c65565b60405180910390fd5b600360010160009054906101000a900473ffffffffffffffffffffffffffffffffffffffff16905090565b60008060009054906101000a900460ff166106fb576040517f08c379a00000000000000000000000000000000000000000000000000000000081526004016106f290612bd3565b60405180910390fd5b3373ffffffffffffffffffffffffffffffffffffffff16600360010160009054906101000a900473ffffffffffffffffffffffffffffffffffffffff1673ffffffffffffffffffffffffffffffffffffffff161461078e576040517f08c379a000000000000000000000000000000000000000000000000000000000815260040161078590612b67565b60405180910390fd5b6108048560076000815481106107a7576107a6612ab5565b5b906000526020600020016040518060400160405290816000820160009054906101000a900460ff1660ff1660ff1681526020016000820160019054906101000a900460ff1660ff1660ff16815250506115c090919063ffffffff16565b8015610894575061089384600860008154811061082457610823612ab5565b5b906000526020600020016040518060400160405290816000820160009054906101000a900463ffffffff1663ffffffff1663ffffffff1681526020016000820160049054906101000a900463ffffffff1663ffffffff1663ffffffff168152505061164c90919063ffffffff16565b5b80156108cd57506108cc8660096000815481106108b4576108b3612ab5565b5b906000526020600020016116f690919063ffffffff16565b5b8015610a5e5750610a5d836000815181106108eb576108ea612ab5565b5b6020026020010151600a60008154811061090857610907612ab5565b5b906000526020600020906003020160405180606001604052908160008201805461093190612cb4565b80601f016020809104026020016040519081016040528092919081815260200182805461095d90612cb4565b80156109aa5780601f1061097f576101008083540402835291602001916109aa565b820191906000526020600020905b81548152906001019060200180831161098d57829003601f168201915b505050505081526020016001820180546109c390612cb4565b80601f01602080910402602001604051908101604052809291908181526020018280546109ef90612cb4565b8015610a3c5780601f10610a1157610100808354040283529160200191610a3c565b820191906000526020600020905b815481529060010190602001808311610a1f57829003601f168201915b5050505050815260200160028201548152505061176f90919063ffffffff16565b5b8015610bef5750610bee83600181518110610a7c57610a7b612ab5565b5b6020026020010151600a600181548110610a9957610a98612ab5565b5b9060005260206000209060030201604051806060016040529081600082018054610ac290612cb4565b80601f0160208091040260200160405190810160405280929190818152602001828054610aee90612cb4565b8015610b3b5780601f10610b1057610100808354040283529160200191610b3b565b820191906000526020600020905b815481529060010190602001808311610b1e57829003601f168201915b50505050508152602001600182018054610b5490612cb4565b80601f0160208091040260200160405190810160405280929190818152602001828054610b8090612cb4565b8015610bcd5780601f10610ba257610100808354040283529160200191610bcd565b820191906000526020600020905b815481529060010190602001808311610bb057829003601f168201915b5050505050815260200160028201548152505061176f90919063ffffffff16565b5b8015610c495750610c488683600081518110610c0e57610c0d612ab5565b5b6020026020010151600b600081548110610c2b57610c2a612ab5565b5b90600052602060002090600602016119619092919063ffffffff16565b5b15610c8c577f95a1f3a1dafdd4c1af344e3d7c69a72cbce8a3f15fe1cf95a7f5bd23df2e71a1604051610c7b90612d31565b60405180910390a160019050610cc6565b7f66091b7dc2b097c8f60d5cd6aa99633b097f08d2eb1056f3e15361b22e0ea2ba604051610cb990612de9565b60405180910390a1600090505b95945050505050565b60008060009054906101000a900460ff16610d1f576040517f08c379a0000000000000000000000000000000000000000000000000000000008152600401610d1690612bd3565b60405180910390fd5b3373ffffffffffffffffffffffffffffffffffffffff166001800160009054906101000a900473ffffffffffffffffffffffffffffffffffffffff1673ffffffffffffffffffffffffffffffffffffffff1614610db1576040517f08c379a0000000000000000000000000000000000000000000000000000000008152600401610da890612e7b565b60405180910390fd5b600015156001800160149054906101000a900460ff16151514610e09576040517f08c379a0000000000000000000000000000000000000000000000000000000008152600401610e0090612ee7565b60405180910390fd5b60018060010160146101000a81548160ff021916908315150217905550610e313360016114bd565b506001905090565b610e416121d3565b60008054906101000a900460ff16610e8e576040517f08c379a0000000000000000000000000000000000000000000000000000000008152600401610e8590612bd3565b60405180910390fd5b3373ffffffffffffffffffffffffffffffffffffffff166001800160009054906101000a900473ffffffffffffffffffffffffffffffffffffffff1673ffffffffffffffffffffffffffffffffffffffff161480610f3c57503373ffffffffffffffffffffffffffffffffffffffff16600360010160009054906101000a900473ffffffffffffffffffffffffffffffffffffffff1673ffffffffffffffffffffffffffffffffffffffff16145b610f7b576040517f08c379a0000000000000000000000000000000000000000000000000000000008152600401610f7290612c65565b60405180910390fd5b600560008373ffffffffffffffffffffffffffffffffffffffff1673ffffffffffffffffffffffffffffffffffffffff168152602001908152602001600020604051806060016040529081600082018054610fd590612cb4565b80601f016020809104026020016040519081016040528092919081815260200182805461100190612cb4565b801561104e5780601f106110235761010080835404028352916020019161104e565b820191906000526020600020905b81548152906001019060200180831161103157829003601f168201915b505050505081526020016001820160009054906101000a900473ffffffffffffffffffffffffffffffffffffffff1673ffffffffffffffffffffffffffffffffffffffff1673ffffffffffffffffffffffffffffffffffffffff1681526020016001820160149054906101000a900460ff1615151515815250509050919050565b6110d76121d3565b60405180606001604052808581526020018473ffffffffffffffffffffffffffffffffffffffff16815260200183151581525090509392505050565b61111b61220c565b8282600060ff168260ff161015801561113b5750600660ff168260ff1611155b61117a576040517f08c379a000000000000000000000000000000000000000000000000000000000815260040161117190612f79565b60405180910390fd5b600060ff168160ff16101580156111985750600660ff168160ff1611155b6111d7576040517f08c379a00000000000000000000000000000000000000000000000000000000081526004016111ce9061300b565b60405180910390fd5b60405180604001604052808660ff1681526020018560ff168152509250505092915050565b61120461222c565b8282600063ffffffff168263ffffffff161015801561123257506201517f63ffffffff168263ffffffff1611155b611271576040517f08c379a000000000000000000000000000000000000000000000000000000000815260040161126890612f79565b60405180910390fd5b600063ffffffff168163ffffffff161015801561129d57506201517f63ffffffff168163ffffffff1611155b6112dc576040517f08c379a00000000000000000000000000000000000000000000000000000000081526004016112d39061300b565b60405180910390fd5b60405180604001604052808663ffffffff1681526020018563ffffffff168152509250505092915050565b61130f612252565b6000600460ff168360ff161161132f5761132883611af4565b9050611334565b600190505b6040518060a001604052808563ffffffff1681526020018460ff1681526020018263ffffffff1681526020018563ffffffff168152602001600063ffffffff1681525091505092915050565b61138861229c565b60405180606001604052808581526020018481526020018381525090509392505050565b6113b46122bd565b6000600460ff168360ff16116113d4576113cd83611af4565b90506113d9565b600190505b600185510361142a576040518060400160405280600281526020017f3c3d0000000000000000000000000000000000000000000000000000000000008152509450600184611427919061305a565b93505b6040518060e001604052808781526020018681526020018581526020018460ff1681526020018263ffffffff168152602001858152602001600063ffffffff16815250915050949350505050565b60018160000160098282829054906101000a900463ffffffff1661149c919061308e565b92506101000a81548163ffffffff021916908363ffffffff16021790555050565b600081600560008573ffffffffffffffffffffffffffffffffffffffff1673ffffffffffffffffffffffffffffffffffffffff168152602001908152602001600020600082018160000190805461151390612cb4565b61151e929190612309565b506001820160009054906101000a900473ffffffffffffffffffffffffffffffffffffffff168160010160006101000a81548173ffffffffffffffffffffffffffffffffffffffff021916908373ffffffffffffffffffffffffffffffffffffffff1602179055506001820160149054906101000a900460ff168160010160146101000a81548160ff0219169083151502179055509050506001905092915050565b6000826020015160ff16836000015160ff16101561160f57826000015160ff168260ff16101580156115fc5750826020015160ff168260ff1611155b1561160a5760019050611646565b611641565b826000015160ff168260ff161015806116325750826020015160ff168260ff1611155b156116405760019050611646565b5b600090505b92915050565b6000826020015163ffffffff16836000015163ffffffff1610156116ad57826000015163ffffffff168263ffffffff161015801561169a5750826020015163ffffffff168263ffffffff1611155b156116a857600190506116f0565b6116eb565b826000015163ffffffff168263ffffffff161015806116dc5750826020015163ffffffff168263ffffffff1611155b156116ea57600190506116f0565b5b600090505b92915050565b60006117288360000160049054906101000a900460ff1684600001600d9054906101000a900463ffffffff1684611bab565b15611738576117378383611c70565b5b60008360000160099054906101000a900463ffffffff1663ffffffff1611156117645760019050611769565b600090505b92915050565b60008083602001519050602160f81b8160008151811061179257611791612ab5565b5b602001015160f81c60f81b7effffffffffffffffffffffffffffffffffffffffffffffffffffffffffffff1916036117d457836040015183141591505061195b565b603d60f81b816000815181106117ed576117ec612ab5565b5b602001015160f81c60f81b7effffffffffffffffffffffffffffffffffffffffffffffffffffffffffffff19160361182e578360400151831491505061195b565b603c60f81b8160008151811061184757611846612ab5565b5b602001015160f81c60f81b7effffffffffffffffffffffffffffffffffffffffffffffffffffffffffffff1916036118a157600281510361189257836040015183131591505061195b565b8360400151831291505061195b565b603e60f81b816000815181106118ba576118b9612ab5565b5b602001015160f81c60f81b7effffffffffffffffffffffffffffffffffffffffffffffffffffffffffffff19160361191457600281510361190557836040015183121591505061195b565b8360400151831391505061195b565b6000611955576040517f08c379a000000000000000000000000000000000000000000000000000000000815260040161194c9061310e565b60405180910390fd5b60009150505b92915050565b60008082116119a5576040517f08c379a000000000000000000000000000000000000000000000000000000000815260040161199c906131a0565b60405180910390fd5b6119d58460030160009054906101000a900460ff168560050160009054906101000a900463ffffffff1685611bab565b15611a3a5783600201548460040181905550611a178460030160019054906101000a900463ffffffff168560030160009054906101000a900460ff1685611cfd565b8460050160006101000a81548163ffffffff021916908363ffffffff1602179055505b6000611a498560040154611d90565b611a568660020154611d90565b611a5f85611d90565b604051602001611a7193929190613306565b604051602081830303815290604052905084600401548311158190611acc576040517f08c379a0000000000000000000000000000000000000000000000000000000008152600401611ac39190613391565b60405180910390fd5b5082856004016000828254611ae1919061305a565b9250508190555060019150509392505050565b6000600460ff168260ff161115611b40576040517f08c379a0000000000000000000000000000000000000000000000000000000008152600401611b3790613425565b60405180910390fd5b600060ff168260ff1603611b575760019050611ba6565b600160ff168260ff1603611b6e57603c9050611ba6565b600260ff168260ff1603611b8657610e109050611ba6565b600360ff168260ff1603611b9f57620151809050611ba6565b62093a8090505b919050565b600080849050600460ff168160ff1611611bd7578363ffffffff168363ffffffff161015915050611c69565b600560ff168160ff1603611c3f576000611bf68463ffffffff16611ef0565b50915050600d8563ffffffff16148015611c16575060018163ffffffff16145b15611c2657600192505050611c69565b8463ffffffff168163ffffffff16101592505050611c69565b6000611c508463ffffffff16611ef0565b505090508463ffffffff168163ffffffff161015925050505b9392505050565b8160000160009054906101000a900463ffffffff168260000160096101000a81548163ffffffff021916908363ffffffff160217905550611cd78260000160059054906101000a900463ffffffff168360000160049054906101000a900460ff1683611cfd565b82600001600d6101000a81548163ffffffff021916908363ffffffff1602179055505050565b6000600460ff168360ff1611611d1f57611d188383866120a3565b9050611d89565b600560ff168360ff1603611d5d576000611d3e8363ffffffff16611ef0565b5063ffffffff16915050600181611d559190613445565b915050611d89565b6000611d6e8363ffffffff16611ef0565b505063ffffffff169050600181611d859190613445565b9150505b9392505050565b606060008203611dd7576040518060400160405280600181526020017f30000000000000000000000000000000000000000000000000000000000000008152509050611eeb565b600082905060005b60008214611e09578080611df29061349b565b915050600a82611e029190613512565b9150611ddf565b60008167ffffffffffffffff811115611e2557611e2461241c565b5b6040519080825280601f01601f191660200182016040528015611e575781602001600182028036833780820191505090505b5090505b60008514611ee457600182611e70919061305a565b9150600a85611e7f9190613543565b6030611e8b9190613445565b60f81b818381518110611ea157611ea0612ab5565b5b60200101907effffffffffffffffffffffffffffffffffffffffffffffffffffffffffffff1916908160001a905350600a85611edd9190613512565b9450611e5b565b8093505050505b919050565b6000806000806201518063ffffffff1685611f0b9190613512565b9050600062253d8c62010bd983611f229190613574565b611f2c9190613574565b9050600062023ab1826004611f4191906135ae565b611f4b91906135ec565b9050600460038262023ab1611f6091906135ae565b611f6a9190613574565b611f7491906135ec565b82611f7f919061308e565b9150600062164b09600184611f949190613574565b610fa0611fa191906135ae565b611fab91906135ec565b9050601f6004826105b5611fbf91906135ae565b611fc991906135ec565b84611fd4919061308e565b611fde9190613574565b9250600061098f846050611ff291906135ae565b611ffc91906135ec565b9050600060508261098f61201091906135ae565b61201a91906135ec565b85612025919061308e565b9050600b8261203491906135ec565b945084600c61204391906135ae565b6002836120509190613574565b61205a919061308e565b9150848360318661206b919061308e565b606461207791906135ae565b6120819190613574565b61208b9190613574565b92508298508197508096505050505050509193909250565b60008082846120b2919061361d565b9050600081846120c2919061308e565b9050600460ff168660ff16036120f5576203f48081866120e29190613574565b6120ec9190613574565b92505050612106565b80856121019190613574565b925050505b9392505050565b50805461211990612cb4565b6000825580601f1061212b575061214a565b601f0160209004906000526020600020908101906121499190612396565b5b50565b82805461215990612cb4565b90600052602060002090601f01602090048101928261217b57600085556121c2565b82601f1061219457805160ff19168380011785556121c2565b828001600101855582156121c2579182015b828111156121c15782518255916020019190600101906121a6565b5b5090506121cf9190612396565b5090565b604051806060016040528060608152602001600073ffffffffffffffffffffffffffffffffffffffff1681526020016000151581525090565b6040518060400160405280600060ff168152602001600060ff1681525090565b6040518060400160405280600063ffffffff168152602001600063ffffffff1681525090565b6040518060a00160405280600063ffffffff168152602001600060ff168152602001600063ffffffff168152602001600063ffffffff168152602001600063ffffffff1681525090565b60405180606001604052806060815260200160608152602001600081525090565b6040518060e00160405280606081526020016060815260200160008152602001600060ff168152602001600063ffffffff16815260200160008152602001600063ffffffff1681525090565b82805461231590612cb4565b90600052602060002090601f0160209004810192826123375760008555612385565b82601f106123485780548555612385565b8280016001018555821561238557600052602060002091601f016020900482015b82811115612384578254825591600101919060010190612369565b5b5090506123929190612396565b5090565b5b808211156123af576000816000905550600101612397565b5090565b600063ffffffff82169050919050565b6123cc816123b3565b82525050565b60006020820190506123e760008301846123c3565b92915050565b6000604051905090565b600080fd5b600080fd5b600080fd5b600080fd5b6000601f19601f8301169050919050565b7f4e487b7100000000000000000000000000000000000000000000000000000000600052604160045260246000fd5b6124548261240b565b810181811067ffffffffffffffff821117156124735761247261241c565b5b80604052505050565b60006124866123ed565b9050612492828261244b565b919050565b600067ffffffffffffffff8211156124b2576124b161241c565b5b6124bb8261240b565b9050602081019050919050565b82818337600083830152505050565b60006124ea6124e584612497565b61247c565b90508281526020810184848401111561250657612505612406565b5b6125118482856124c8565b509392505050565b600082601f83011261252e5761252d612401565b5b813561253e8482602086016124d7565b91505092915050565b600073ffffffffffffffffffffffffffffffffffffffff82169050919050565b600061257282612547565b9050919050565b61258281612567565b811461258d57600080fd5b50565b60008135905061259f81612579565b92915050565b600080604083850312156125bc576125bb6123f7565b5b600083013567ffffffffffffffff8111156125da576125d96123fc565b5b6125e685828601612519565b92505060206125f785828601612590565b9150509250929050565b60008115159050919050565b61261681612601565b82525050565b6000602082019050612631600083018461260d565b92915050565b61264081612567565b82525050565b600060208201905061265b6000830184612637565b92915050565b61266a816123b3565b811461267557600080fd5b50565b60008135905061268781612661565b92915050565b600060ff82169050919050565b6126a38161268d565b81146126ae57600080fd5b50565b6000813590506126c08161269a565b92915050565b600067ffffffffffffffff8211156126e1576126e061241c565b5b602082029050602081019050919050565b600080fd5b6000819050919050565b61270a816126f7565b811461271557600080fd5b50565b60008135905061272781612701565b92915050565b600061274061273b846126c6565b61247c565b90508083825260208201905060208402830185811115612763576127626126f2565b5b835b8181101561278c57806127788882612718565b845260208401935050602081019050612765565b5050509392505050565b600082601f8301126127ab576127aa612401565b5b81356127bb84826020860161272d565b91505092915050565b600067ffffffffffffffff8211156127df576127de61241c565b5b602082029050602081019050919050565b6000819050919050565b612803816127f0565b811461280e57600080fd5b50565b600081359050612820816127fa565b92915050565b6000612839612834846127c4565b61247c565b9050808382526020820190506020840283018581111561285c5761285b6126f2565b5b835b8181101561288557806128718882612811565b84526020840193505060208101905061285e565b5050509392505050565b600082601f8301126128a4576128a3612401565b5b81356128b4848260208601612826565b91505092915050565b600080600080600060a086880312156128d9576128d86123f7565b5b60006128e788828901612678565b95505060206128f8888289016126b1565b945050604061290988828901612678565b935050606086013567ffffffffffffffff81111561292a576129296123fc565b5b61293688828901612796565b925050608086013567ffffffffffffffff811115612957576129566123fc565b5b6129638882890161288f565b9150509295509295909350565b600060208284031215612986576129856123f7565b5b600061299484828501612590565b91505092915050565b600081519050919050565b600082825260208201905092915050565b60005b838110156129d75780820151818401526020810190506129bc565b838111156129e6576000848401525b50505050565b60006129f78261299d565b612a0181856129a8565b9350612a118185602086016129b9565b612a1a8161240b565b840191505092915050565b612a2e81612567565b82525050565b612a3d81612601565b82525050565b60006060830160008301518482036000860152612a6082826129ec565b9150506020830151612a756020860182612a25565b506040830151612a886040860182612a34565b508091505092915050565b60006020820190508181036000830152612aad8184612a43565b905092915050565b7f4e487b7100000000000000000000000000000000000000000000000000000000600052603260045260246000fd5b600082825260208201905092915050565b7f4f6e6c79207468652070726f636573732063616e20657865637574652074686960008201527f73206f7065726174696f6e000000000000000000000000000000000000000000602082015250565b6000612b51602b83612ae4565b9150612b5c82612af5565b604082019050919050565b60006020820190508181036000830152612b8081612b44565b9050919050565b7f5468697320636f6e747261637420697320646561637469766174656400000000600082015250565b6000612bbd601c83612ae4565b9150612bc882612b87565b602082019050919050565b60006020820190508181036000830152612bec81612bb0565b9050919050565b7f4f6e6c79207468652070726f63657373206f7220746865206170706c6963617460008201527f696f6e2063616e20657865637574652074686973206f7065726174696f6e0000602082015250565b6000612c4f603e83612ae4565b9150612c5a82612bf3565b604082019050919050565b60006020820190508181036000830152612c7e81612c42565b9050919050565b7f4e487b7100000000000000000000000000000000000000000000000000000000600052602260045260246000fd5b60006002820490506001821680612ccc57607f821691505b602082108103612cdf57612cde612c85565b5b50919050565b7f5375636365737366756c20657865637574696f6e210000000000000000000000600082015250565b6000612d1b601583612ae4565b9150612d2682612ce5565b602082019050919050565b60006020820190508181036000830152612d4a81612d0e565b9050919050565b7f52657175657374206f7065726174696f6e20706572666f726d6564206f75747360008201527f696465206f6620616c6c6f77656420686f757273206f72206c696d6974206f7060208201527f65726174696f6e20657863656564656400000000000000000000000000000000604082015250565b6000612dd3605083612ae4565b9150612dde82612d51565b606082019050919050565b60006020820190508181036000830152612e0281612dc6565b9050919050565b7f4f6e6c7920746865206170706c69636174696f6e2063616e206578656375746560008201527f2074686973206f7065726174696f6e0000000000000000000000000000000000602082015250565b6000612e65602f83612ae4565b9150612e7082612e09565b604082019050919050565b60006020820190508181036000830152612e9481612e58565b9050919050565b7f54686520636f6e747261637420697320616c7265616479207369676e65640000600082015250565b6000612ed1601e83612ae4565b9150612edc82612e9b565b602082019050919050565b60006020820190508181036000830152612f0081612ec4565b9050919050565b7f546865205f7374617274446179206e6f7420726570726573656e74732061207660008201527f616c696420646179000000000000000000000000000000000000000000000000602082015250565b6000612f63602883612ae4565b9150612f6e82612f07565b604082019050919050565b60006020820190508181036000830152612f9281612f56565b9050919050565b7f546865205f656e64446179206e6f7420726570726573656e747320612076616c60008201527f6964206461790000000000000000000000000000000000000000000000000000602082015250565b6000612ff5602683612ae4565b915061300082612f99565b604082019050919050565b6000602082019050818103600083015261302481612fe8565b9050919050565b7f4e487b7100000000000000000000000000000000000000000000000000000000600052601160045260246000fd5b6000613065826127f0565b9150613070836127f0565b9250828210156130835761308261302b565b5b828203905092915050565b6000613099826123b3565b91506130a4836123b3565b9250828210156130b7576130b661302b565b5b828203905092915050565b7f436f6d70617269736f6e2073796d626f6c206973206e6f742076616c69640000600082015250565b60006130f8601e83612ae4565b9150613103826130c2565b602082019050919050565b60006020820190508181036000830152613127816130eb565b9050919050565b7f54686520726573756c74206f66207468652078706174682073686f756c64206260008201527f65206d6f7265207468616e203000000000000000000000000000000000000000602082015250565b600061318a602d83612ae4565b91506131958261312e565b604082019050919050565b600060208201905081810360008301526131b98161317d565b9050919050565b600081905092915050565b7f596f752068617665206f6e6c7920000000000000000000000000000000000000600082015250565b6000613201600e836131c0565b915061320c826131cb565b600e82019050919050565b60006132228261299d565b61322c81856131c0565b935061323c8185602086016129b9565b80840191505092915050565b7f2066726f6d200000000000000000000000000000000000000000000000000000600082015250565b600061327e6006836131c0565b915061328982613248565b600682019050919050565b7f2072657374696e672c20616e6420746865206d65737361676520636f6e74657460008201527f20787061746820726573756c7420697320000000000000000000000000000000602082015250565b60006132f06031836131c0565b91506132fb82613294565b603182019050919050565b6000613311826131f4565b915061331d8286613217565b915061332882613271565b91506133348285613217565b915061333f826132e3565b915061334b8284613217565b9150819050949350505050565b60006133638261299d565b61336d8185612ae4565b935061337d8185602086016129b9565b6133868161240b565b840191505092915050565b600060208201905081810360008301526133ab8184613358565b905092915050565b7f546865206d6574686f642067657454696d65496e5365636f6e647320646f657360008201527f6e277420776f726b20666f72204d4f4e544820616e6420594541520000000000602082015250565b600061340f603b83612ae4565b915061341a826133b3565b604082019050919050565b6000602082019050818103600083015261343e81613402565b9050919050565b6000613450826127f0565b915061345b836127f0565b9250827fffffffffffffffffffffffffffffffffffffffffffffffffffffffffffffffff038211156134905761348f61302b565b5b828201905092915050565b60006134a6826127f0565b91507fffffffffffffffffffffffffffffffffffffffffffffffffffffffffffffffff82036134d8576134d761302b565b5b600182019050919050565b7f4e487b7100000000000000000000000000000000000000000000000000000000600052601260045260246000fd5b600061351d826127f0565b9150613528836127f0565b925082613538576135376134e3565b5b828204905092915050565b600061354e826127f0565b9150613559836127f0565b925082613569576135686134e3565b5b828206905092915050565b600061357f826123b3565b915061358a836123b3565b92508263ffffffff038211156135a3576135a261302b565b5b828201905092915050565b60006135b9826123b3565b91506135c4836123b3565b92508163ffffffff04831182151516156135e1576135e061302b565b5b828202905092915050565b60006135f7826123b3565b9150613602836123b3565b925082613612576136116134e3565b5b828204905092915050565b6000613628826123b3565b9150613633836123b3565b925082613643576136426134e3565b5b82820690509291505056fea26469706673582212205837315b4326501bb5c7d6b373c7ca84f4270f777e79f374596b46b26fa9a10364736f6c634300080d0033636f756e74282f2f626f64792f7065726f736f6e616c496e666f726d6174696f6e2f616464726573732f63657029",
					"opcodes": "PUSH1 0x80 PUSH1 0x40 MSTORE PUSH1 0x40 MLOAD DUP1 PUSH1 0x60 ADD PUSH1 0x40 MSTORE DUP1 PUSH1 0x2E DUP2 MSTORE PUSH1 0x20 ADD PUSH3 0x4C0C PUSH1 0x2E SWAP2 CODECOPY PUSH1 0x6 SWAP1 DUP1 MLOAD SWAP1 PUSH1 0x20 ADD SWAP1 PUSH3 0x35 SWAP3 SWAP2 SWAP1 PUSH3 0xFAD JUMP JUMPDEST POP CALLVALUE DUP1 ISZERO PUSH3 0x43 JUMPI PUSH1 0x0 DUP1 REVERT JUMPDEST POP PUSH1 0x40 MLOAD PUSH3 0x4C3A CODESIZE SUB DUP1 PUSH3 0x4C3A DUP4 CODECOPY DUP2 DUP2 ADD PUSH1 0x40 MSTORE DUP2 ADD SWAP1 PUSH3 0x69 SWAP2 SWAP1 PUSH3 0x1295 JUMP JUMPDEST PUSH1 0x1 PUSH1 0x0 DUP1 PUSH2 0x100 EXP DUP2 SLOAD DUP2 PUSH1 0xFF MUL NOT AND SWAP1 DUP4 ISZERO ISZERO MUL OR SWAP1 SSTORE POP PUSH4 0x63B14488 PUSH1 0x0 PUSH1 0x1 PUSH2 0x100 EXP DUP2 SLOAD DUP2 PUSH4 0xFFFFFFFF MUL NOT AND SWAP1 DUP4 PUSH4 0xFFFFFFFF AND MUL OR SWAP1 SSTORE POP PUSH4 0x65927808 PUSH1 0x0 PUSH1 0x5 PUSH2 0x100 EXP DUP2 SLOAD DUP2 PUSH4 0xFFFFFFFF MUL NOT AND SWAP1 DUP4 PUSH4 0xFFFFFFFF AND MUL OR SWAP1 SSTORE POP PUSH3 0x11B PUSH1 0x40 MLOAD DUP1 PUSH1 0x40 ADD PUSH1 0x40 MSTORE DUP1 PUSH1 0xF DUP2 MSTORE PUSH1 0x20 ADD PUSH32 0x44656C69766572792053797374656D0000000000000000000000000000000000 DUP2 MSTORE POP DUP3 PUSH1 0x0 PUSH3 0xB0F PUSH1 0x20 SHL PUSH3 0x10CF OR PUSH1 0x20 SHR JUMP JUMPDEST PUSH1 0x1 PUSH1 0x0 DUP3 ADD MLOAD DUP2 PUSH1 0x0 ADD SWAP1 DUP1 MLOAD SWAP1 PUSH1 0x20 ADD SWAP1 PUSH3 0x13B SWAP3 SWAP2 SWAP1 PUSH3 0xFAD JUMP JUMPDEST POP PUSH1 0x20 DUP3 ADD MLOAD DUP2 PUSH1 0x1 ADD PUSH1 0x0 PUSH2 0x100 EXP DUP2 SLOAD DUP2 PUSH20 0xFFFFFFFFFFFFFFFFFFFFFFFFFFFFFFFFFFFFFFFF MUL NOT AND SWAP1 DUP4 PUSH20 0xFFFFFFFFFFFFFFFFFFFFFFFFFFFFFFFFFFFFFFFF AND MUL OR SWAP1 SSTORE POP PUSH1 0x40 DUP3 ADD MLOAD DUP2 PUSH1 0x1 ADD PUSH1 0x14 PUSH2 0x100 EXP DUP2 SLOAD DUP2 PUSH1 0xFF MUL NOT AND SWAP1 DUP4 ISZERO ISZERO MUL OR SWAP1 SSTORE POP SWAP1 POP POP PUSH3 0x1F4 PUSH1 0x40 MLOAD DUP1 PUSH1 0x40 ADD PUSH1 0x40 MSTORE DUP1 PUSH1 0x13 DUP2 MSTORE PUSH1 0x20 ADD PUSH32 0x496E746567726174696F6E2050726F6365737300000000000000000000000000 DUP2 MSTORE POP CALLER PUSH1 0x1 PUSH3 0xB0F PUSH1 0x20 SHL PUSH3 0x10CF OR PUSH1 0x20 SHR JUMP JUMPDEST PUSH1 0x3 PUSH1 0x0 DUP3 ADD MLOAD DUP2 PUSH1 0x0 ADD SWAP1 DUP1 MLOAD SWAP1 PUSH1 0x20 ADD SWAP1 PUSH3 0x214 SWAP3 SWAP2 SWAP1 PUSH3 0xFAD JUMP JUMPDEST POP PUSH1 0x20 DUP3 ADD MLOAD DUP2 PUSH1 0x1 ADD PUSH1 0x0 PUSH2 0x100 EXP DUP2 SLOAD DUP2 PUSH20 0xFFFFFFFFFFFFFFFFFFFFFFFFFFFFFFFFFFFFFFFF MUL NOT AND SWAP1 DUP4 PUSH20 0xFFFFFFFFFFFFFFFFFFFFFFFFFFFFFFFFFFFFFFFF AND MUL OR SWAP1 SSTORE POP PUSH1 0x40 DUP3 ADD MLOAD DUP2 PUSH1 0x1 ADD PUSH1 0x14 PUSH2 0x100 EXP DUP2 SLOAD DUP2 PUSH1 0xFF MUL NOT AND SWAP1 DUP4 ISZERO ISZERO MUL OR SWAP1 SSTORE POP SWAP1 POP POP PUSH1 0x3 PUSH1 0x5 PUSH1 0x0 CALLER PUSH20 0xFFFFFFFFFFFFFFFFFFFFFFFFFFFFFFFFFFFFFFFF AND PUSH20 0xFFFFFFFFFFFFFFFFFFFFFFFFFFFFFFFFFFFFFFFF AND DUP2 MSTORE PUSH1 0x20 ADD SWAP1 DUP2 MSTORE PUSH1 0x20 ADD PUSH1 0x0 KECCAK256 PUSH1 0x0 DUP3 ADD DUP2 PUSH1 0x0 ADD SWAP1 DUP1 SLOAD PUSH3 0x2D6 SWAP1 PUSH3 0x12F6 JUMP JUMPDEST PUSH3 0x2E3 SWAP3 SWAP2 SWAP1 PUSH3 0x103E JUMP JUMPDEST POP PUSH1 0x1 DUP3 ADD PUSH1 0x0 SWAP1 SLOAD SWAP1 PUSH2 0x100 EXP SWAP1 DIV PUSH20 0xFFFFFFFFFFFFFFFFFFFFFFFFFFFFFFFFFFFFFFFF AND DUP2 PUSH1 0x1 ADD PUSH1 0x0 PUSH2 0x100 EXP DUP2 SLOAD DUP2 PUSH20 0xFFFFFFFFFFFFFFFFFFFFFFFFFFFFFFFFFFFFFFFF MUL NOT AND SWAP1 DUP4 PUSH20 0xFFFFFFFFFFFFFFFFFFFFFFFFFFFFFFFFFFFFFFFF AND MUL OR SWAP1 SSTORE POP PUSH1 0x1 DUP3 ADD PUSH1 0x14 SWAP1 SLOAD SWAP1 PUSH2 0x100 EXP SWAP1 DIV PUSH1 0xFF AND DUP2 PUSH1 0x1 ADD PUSH1 0x14 PUSH2 0x100 EXP DUP2 SLOAD DUP2 PUSH1 0xFF MUL NOT AND SWAP1 DUP4 ISZERO ISZERO MUL OR SWAP1 SSTORE POP SWAP1 POP POP PUSH1 0x1 PUSH1 0x5 PUSH1 0x0 DUP4 PUSH20 0xFFFFFFFFFFFFFFFFFFFFFFFFFFFFFFFFFFFFFFFF AND PUSH20 0xFFFFFFFFFFFFFFFFFFFFFFFFFFFFFFFFFFFFFFFF AND DUP2 MSTORE PUSH1 0x20 ADD SWAP1 DUP2 MSTORE PUSH1 0x20 ADD PUSH1 0x0 KECCAK256 PUSH1 0x0 DUP3 ADD DUP2 PUSH1 0x0 ADD SWAP1 DUP1 SLOAD PUSH3 0x3D2 SWAP1 PUSH3 0x12F6 JUMP JUMPDEST PUSH3 0x3DF SWAP3 SWAP2 SWAP1 PUSH3 0x103E JUMP JUMPDEST POP PUSH1 0x1 DUP3 ADD PUSH1 0x0 SWAP1 SLOAD SWAP1 PUSH2 0x100 EXP SWAP1 DIV PUSH20 0xFFFFFFFFFFFFFFFFFFFFFFFFFFFFFFFFFFFFFFFF AND DUP2 PUSH1 0x1 ADD PUSH1 0x0 PUSH2 0x100 EXP DUP2 SLOAD DUP2 PUSH20 0xFFFFFFFFFFFFFFFFFFFFFFFFFFFFFFFFFFFFFFFF MUL NOT AND SWAP1 DUP4 PUSH20 0xFFFFFFFFFFFFFFFFFFFFFFFFFFFFFFFFFFFFFFFF AND MUL OR SWAP1 SSTORE POP PUSH1 0x1 DUP3 ADD PUSH1 0x14 SWAP1 SLOAD SWAP1 PUSH2 0x100 EXP SWAP1 DIV PUSH1 0xFF AND DUP2 PUSH1 0x1 ADD PUSH1 0x14 PUSH2 0x100 EXP DUP2 SLOAD DUP2 PUSH1 0xFF MUL NOT AND SWAP1 DUP4 ISZERO ISZERO MUL OR SWAP1 SSTORE POP SWAP1 POP POP PUSH1 0x7 PUSH3 0x492 PUSH1 0x1 PUSH1 0x5 PUSH3 0xB55 PUSH1 0x20 SHL PUSH3 0x1113 OR PUSH1 0x20 SHR JUMP JUMPDEST SWAP1 DUP1 PUSH1 0x1 DUP2 SLOAD ADD DUP1 DUP3 SSTORE DUP1 SWAP2 POP POP PUSH1 0x1 SWAP1 SUB SWAP1 PUSH1 0x0 MSTORE PUSH1 0x20 PUSH1 0x0 KECCAK256 ADD PUSH1 0x0 SWAP1 SWAP2 SWAP1 SWAP2 SWAP1 SWAP2 POP PUSH1 0x0 DUP3 ADD MLOAD DUP2 PUSH1 0x0 ADD PUSH1 0x0 PUSH2 0x100 EXP DUP2 SLOAD DUP2 PUSH1 0xFF MUL NOT AND SWAP1 DUP4 PUSH1 0xFF AND MUL OR SWAP1 SSTORE POP PUSH1 0x20 DUP3 ADD MLOAD DUP2 PUSH1 0x0 ADD PUSH1 0x1 PUSH2 0x100 EXP DUP2 SLOAD DUP2 PUSH1 0xFF MUL NOT AND SWAP1 DUP4 PUSH1 0xFF AND MUL OR SWAP1 SSTORE POP POP POP PUSH1 0x8 PUSH3 0x519 PUSH2 0x7788 PUSH3 0x10428 PUSH3 0xC48 PUSH1 0x20 SHL PUSH3 0x11FC OR PUSH1 0x20 SHR JUMP JUMPDEST SWAP1 DUP1 PUSH1 0x1 DUP2 SLOAD ADD DUP1 DUP3 SSTORE DUP1 SWAP2 POP POP PUSH1 0x1 SWAP1 SUB SWAP1 PUSH1 0x0 MSTORE PUSH1 0x20 PUSH1 0x0 KECCAK256 ADD PUSH1 0x0 SWAP1 SWAP2 SWAP1 SWAP2 SWAP1 SWAP2 POP PUSH1 0x0 DUP3 ADD MLOAD DUP2 PUSH1 0x0 ADD PUSH1 0x0 PUSH2 0x100 EXP DUP2 SLOAD DUP2 PUSH4 0xFFFFFFFF MUL NOT AND SWAP1 DUP4 PUSH4 0xFFFFFFFF AND MUL OR SWAP1 SSTORE POP PUSH1 0x20 DUP3 ADD MLOAD DUP2 PUSH1 0x0 ADD PUSH1 0x4 PUSH2 0x100 EXP DUP2 SLOAD DUP2 PUSH4 0xFFFFFFFF MUL NOT AND SWAP1 DUP4 PUSH4 0xFFFFFFFF AND MUL OR SWAP1 SSTORE POP POP POP PUSH1 0x9 PUSH3 0x5A9 PUSH1 0x5 PUSH1 0x3 PUSH3 0xD5D PUSH1 0x20 SHL PUSH3 0x1307 OR PUSH1 0x20 SHR JUMP JUMPDEST SWAP1 DUP1 PUSH1 0x1 DUP2 SLOAD ADD DUP1 DUP3 SSTORE DUP1 SWAP2 POP POP PUSH1 0x1 SWAP1 SUB SWAP1 PUSH1 0x0 MSTORE PUSH1 0x20 PUSH1 0x0 KECCAK256 ADD PUSH1 0x0 SWAP1 SWAP2 SWAP1 SWAP2 SWAP1 SWAP2 POP PUSH1 0x0 DUP3 ADD MLOAD DUP2 PUSH1 0x0 ADD PUSH1 0x0 PUSH2 0x100 EXP DUP2 SLOAD DUP2 PUSH4 0xFFFFFFFF MUL NOT AND SWAP1 DUP4 PUSH4 0xFFFFFFFF AND MUL OR SWAP1 SSTORE POP PUSH1 0x20 DUP3 ADD MLOAD DUP2 PUSH1 0x0 ADD PUSH1 0x4 PUSH2 0x100 EXP DUP2 SLOAD DUP2 PUSH1 0xFF MUL NOT AND SWAP1 DUP4 PUSH1 0xFF AND MUL OR SWAP1 SSTORE POP PUSH1 0x40 DUP3 ADD MLOAD DUP2 PUSH1 0x0 ADD PUSH1 0x5 PUSH2 0x100 EXP DUP2 SLOAD DUP2 PUSH4 0xFFFFFFFF MUL NOT AND SWAP1 DUP4 PUSH4 0xFFFFFFFF AND MUL OR SWAP1 SSTORE POP PUSH1 0x60 DUP3 ADD MLOAD DUP2 PUSH1 0x0 ADD PUSH1 0x9 PUSH2 0x100 EXP DUP2 SLOAD DUP2 PUSH4 0xFFFFFFFF MUL NOT AND SWAP1 DUP4 PUSH4 0xFFFFFFFF AND MUL OR SWAP1 SSTORE POP PUSH1 0x80 DUP3 ADD MLOAD DUP2 PUSH1 0x0 ADD PUSH1 0xD PUSH2 0x100 EXP DUP2 SLOAD DUP2 PUSH4 0xFFFFFFFF MUL NOT AND SWAP1 DUP4 PUSH4 0xFFFFFFFF AND MUL OR SWAP1 SSTORE POP POP POP PUSH1 0xA PUSH3 0x76F PUSH1 0x6 DUP1 SLOAD PUSH3 0x6A2 SWAP1 PUSH3 0x12F6 JUMP JUMPDEST DUP1 PUSH1 0x1F ADD PUSH1 0x20 DUP1 SWAP2 DIV MUL PUSH1 0x20 ADD PUSH1 0x40 MLOAD SWAP1 DUP2 ADD PUSH1 0x40 MSTORE DUP1 SWAP3 SWAP2 SWAP1 DUP2 DUP2 MSTORE PUSH1 0x20 ADD DUP3 DUP1 SLOAD PUSH3 0x6D0 SWAP1 PUSH3 0x12F6 JUMP JUMPDEST DUP1 ISZERO PUSH3 0x721 JUMPI DUP1 PUSH1 0x1F LT PUSH3 0x6F5 JUMPI PUSH2 0x100 DUP1 DUP4 SLOAD DIV MUL DUP4 MSTORE SWAP2 PUSH1 0x20 ADD SWAP2 PUSH3 0x721 JUMP JUMPDEST DUP3 ADD SWAP2 SWAP1 PUSH1 0x0 MSTORE PUSH1 0x20 PUSH1 0x0 KECCAK256 SWAP1 JUMPDEST DUP2 SLOAD DUP2 MSTORE SWAP1 PUSH1 0x1 ADD SWAP1 PUSH1 0x20 ADD DUP1 DUP4 GT PUSH3 0x703 JUMPI DUP3 SWAP1 SUB PUSH1 0x1F AND DUP3 ADD SWAP2 JUMPDEST POP POP POP POP POP PUSH1 0x40 MLOAD DUP1 PUSH1 0x40 ADD PUSH1 0x40 MSTORE DUP1 PUSH1 0x2 DUP2 MSTORE PUSH1 0x20 ADD PUSH32 0x3E3D000000000000000000000000000000000000000000000000000000000000 DUP2 MSTORE POP PUSH1 0x1 PUSH3 0xDE2 PUSH1 0x20 SHL PUSH3 0x1380 OR PUSH1 0x20 SHR JUMP JUMPDEST SWAP1 DUP1 PUSH1 0x1 DUP2 SLOAD ADD DUP1 DUP3 SSTORE DUP1 SWAP2 POP POP PUSH1 0x1 SWAP1 SUB SWAP1 PUSH1 0x0 MSTORE PUSH1 0x20 PUSH1 0x0 KECCAK256 SWAP1 PUSH1 0x3 MUL ADD PUSH1 0x0 SWAP1 SWAP2 SWAP1 SWAP2 SWAP1 SWAP2 POP PUSH1 0x0 DUP3 ADD MLOAD DUP2 PUSH1 0x0 ADD SWAP1 DUP1 MLOAD SWAP1 PUSH1 0x20 ADD SWAP1 PUSH3 0x7B6 SWAP3 SWAP2 SWAP1 PUSH3 0xFAD JUMP JUMPDEST POP PUSH1 0x20 DUP3 ADD MLOAD DUP2 PUSH1 0x1 ADD SWAP1 DUP1 MLOAD SWAP1 PUSH1 0x20 ADD SWAP1 PUSH3 0x7D5 SWAP3 SWAP2 SWAP1 PUSH3 0xFAD JUMP JUMPDEST POP PUSH1 0x40 DUP3 ADD MLOAD DUP2 PUSH1 0x2 ADD SSTORE POP POP PUSH1 0xA PUSH3 0x8C4 PUSH1 0x6 DUP1 SLOAD PUSH3 0x7F7 SWAP1 PUSH3 0x12F6 JUMP JUMPDEST DUP1 PUSH1 0x1F ADD PUSH1 0x20 DUP1 SWAP2 DIV MUL PUSH1 0x20 ADD PUSH1 0x40 MLOAD SWAP1 DUP2 ADD PUSH1 0x40 MSTORE DUP1 SWAP3 SWAP2 SWAP1 DUP2 DUP2 MSTORE PUSH1 0x20 ADD DUP3 DUP1 SLOAD PUSH3 0x825 SWAP1 PUSH3 0x12F6 JUMP JUMPDEST DUP1 ISZERO PUSH3 0x876 JUMPI DUP1 PUSH1 0x1F LT PUSH3 0x84A JUMPI PUSH2 0x100 DUP1 DUP4 SLOAD DIV MUL DUP4 MSTORE SWAP2 PUSH1 0x20 ADD SWAP2 PUSH3 0x876 JUMP JUMPDEST DUP3 ADD SWAP2 SWAP1 PUSH1 0x0 MSTORE PUSH1 0x20 PUSH1 0x0 KECCAK256 SWAP1 JUMPDEST DUP2 SLOAD DUP2 MSTORE SWAP1 PUSH1 0x1 ADD SWAP1 PUSH1 0x20 ADD DUP1 DUP4 GT PUSH3 0x858 JUMPI DUP3 SWAP1 SUB PUSH1 0x1F AND DUP3 ADD SWAP2 JUMPDEST POP POP POP POP POP PUSH1 0x40 MLOAD DUP1 PUSH1 0x40 ADD PUSH1 0x40 MSTORE DUP1 PUSH1 0x2 DUP2 MSTORE PUSH1 0x20 ADD PUSH32 0x3C3D000000000000000000000000000000000000000000000000000000000000 DUP2 MSTORE POP PUSH1 0x3 PUSH3 0xDE2 PUSH1 0x20 SHL PUSH3 0x1380 OR PUSH1 0x20 SHR JUMP JUMPDEST SWAP1 DUP1 PUSH1 0x1 DUP2 SLOAD ADD DUP1 DUP3 SSTORE DUP1 SWAP2 POP POP PUSH1 0x1 SWAP1 SUB SWAP1 PUSH1 0x0 MSTORE PUSH1 0x20 PUSH1 0x0 KECCAK256 SWAP1 PUSH1 0x3 MUL ADD PUSH1 0x0 SWAP1 SWAP2 SWAP1 SWAP2 SWAP1 SWAP2 POP PUSH1 0x0 DUP3 ADD MLOAD DUP2 PUSH1 0x0 ADD SWAP1 DUP1 MLOAD SWAP1 PUSH1 0x20 ADD SWAP1 PUSH3 0x90B SWAP3 SWAP2 SWAP1 PUSH3 0xFAD JUMP JUMPDEST POP PUSH1 0x20 DUP3 ADD MLOAD DUP2 PUSH1 0x1 ADD SWAP1 DUP1 MLOAD SWAP1 PUSH1 0x20 ADD SWAP1 PUSH3 0x92A SWAP3 SWAP2 SWAP1 PUSH3 0xFAD JUMP JUMPDEST POP PUSH1 0x40 DUP3 ADD MLOAD DUP2 PUSH1 0x2 ADD SSTORE POP POP PUSH1 0xB PUSH3 0xA1C PUSH1 0x6 DUP1 SLOAD PUSH3 0x94C SWAP1 PUSH3 0x12F6 JUMP JUMPDEST DUP1 PUSH1 0x1F ADD PUSH1 0x20 DUP1 SWAP2 DIV MUL PUSH1 0x20 ADD PUSH1 0x40 MLOAD SWAP1 DUP2 ADD PUSH1 0x40 MSTORE DUP1 SWAP3 SWAP2 SWAP1 DUP2 DUP2 MSTORE PUSH1 0x20 ADD DUP3 DUP1 SLOAD PUSH3 0x97A SWAP1 PUSH3 0x12F6 JUMP JUMPDEST DUP1 ISZERO PUSH3 0x9CB JUMPI DUP1 PUSH1 0x1F LT PUSH3 0x99F JUMPI PUSH2 0x100 DUP1 DUP4 SLOAD DIV MUL DUP4 MSTORE SWAP2 PUSH1 0x20 ADD SWAP2 PUSH3 0x9CB JUMP JUMPDEST DUP3 ADD SWAP2 SWAP1 PUSH1 0x0 MSTORE PUSH1 0x20 PUSH1 0x0 KECCAK256 SWAP1 JUMPDEST DUP2 SLOAD DUP2 MSTORE SWAP1 PUSH1 0x1 ADD SWAP1 PUSH1 0x20 ADD DUP1 DUP4 GT PUSH3 0x9AD JUMPI DUP3 SWAP1 SUB PUSH1 0x1F AND DUP3 ADD SWAP2 JUMPDEST POP POP POP POP POP PUSH1 0x40 MLOAD DUP1 PUSH1 0x40 ADD PUSH1 0x40 MSTORE DUP1 PUSH1 0x2 DUP2 MSTORE PUSH1 0x20 ADD PUSH32 0x3C3D000000000000000000000000000000000000000000000000000000000000 DUP2 MSTORE POP PUSH2 0x3E8 PUSH1 0x5 PUSH3 0xE10 PUSH1 0x20 SHL PUSH3 0x13AC OR PUSH1 0x20 SHR JUMP JUMPDEST SWAP1 DUP1 PUSH1 0x1 DUP2 SLOAD ADD DUP1 DUP3 SSTORE DUP1 SWAP2 POP POP PUSH1 0x1 SWAP1 SUB SWAP1 PUSH1 0x0 MSTORE PUSH1 0x20 PUSH1 0x0 KECCAK256 SWAP1 PUSH1 0x6 MUL ADD PUSH1 0x0 SWAP1 SWAP2 SWAP1 SWAP2 SWAP1 SWAP2 POP PUSH1 0x0 DUP3 ADD MLOAD DUP2 PUSH1 0x0 ADD SWAP1 DUP1 MLOAD SWAP1 PUSH1 0x20 ADD SWAP1 PUSH3 0xA63 SWAP3 SWAP2 SWAP1 PUSH3 0xFAD JUMP JUMPDEST POP PUSH1 0x20 DUP3 ADD MLOAD DUP2 PUSH1 0x1 ADD SWAP1 DUP1 MLOAD SWAP1 PUSH1 0x20 ADD SWAP1 PUSH3 0xA82 SWAP3 SWAP2 SWAP1 PUSH3 0xFAD JUMP JUMPDEST POP PUSH1 0x40 DUP3 ADD MLOAD DUP2 PUSH1 0x2 ADD SSTORE PUSH1 0x60 DUP3 ADD MLOAD DUP2 PUSH1 0x3 ADD PUSH1 0x0 PUSH2 0x100 EXP DUP2 SLOAD DUP2 PUSH1 0xFF MUL NOT AND SWAP1 DUP4 PUSH1 0xFF AND MUL OR SWAP1 SSTORE POP PUSH1 0x80 DUP3 ADD MLOAD DUP2 PUSH1 0x3 ADD PUSH1 0x1 PUSH2 0x100 EXP DUP2 SLOAD DUP2 PUSH4 0xFFFFFFFF MUL NOT AND SWAP1 DUP4 PUSH4 0xFFFFFFFF AND MUL OR SWAP1 SSTORE POP PUSH1 0xA0 DUP3 ADD MLOAD DUP2 PUSH1 0x4 ADD SSTORE PUSH1 0xC0 DUP3 ADD MLOAD DUP2 PUSH1 0x5 ADD PUSH1 0x0 PUSH2 0x100 EXP DUP2 SLOAD DUP2 PUSH4 0xFFFFFFFF MUL NOT AND SWAP1 DUP4 PUSH4 0xFFFFFFFF AND MUL OR SWAP1 SSTORE POP POP POP POP PUSH3 0x1578 JUMP JUMPDEST PUSH3 0xB19 PUSH3 0x10D6 JUMP JUMPDEST PUSH1 0x40 MLOAD DUP1 PUSH1 0x60 ADD PUSH1 0x40 MSTORE DUP1 DUP6 DUP2 MSTORE PUSH1 0x20 ADD DUP5 PUSH20 0xFFFFFFFFFFFFFFFFFFFFFFFFFFFFFFFFFFFFFFFF AND DUP2 MSTORE PUSH1 0x20 ADD DUP4 ISZERO ISZERO DUP2 MSTORE POP SWAP1 POP SWAP4 SWAP3 POP POP POP JUMP JUMPDEST PUSH3 0xB5F PUSH3 0x110F JUMP JUMPDEST DUP3 DUP3 PUSH1 0x0 PUSH1 0xFF AND DUP3 PUSH1 0xFF AND LT ISZERO DUP1 ISZERO PUSH3 0xB80 JUMPI POP PUSH1 0x6 PUSH1 0xFF AND DUP3 PUSH1 0xFF AND GT ISZERO JUMPDEST PUSH3 0xBC2 JUMPI PUSH1 0x40 MLOAD PUSH32 0x8C379A000000000000000000000000000000000000000000000000000000000 DUP2 MSTORE PUSH1 0x4 ADD PUSH3 0xBB9 SWAP1 PUSH3 0x13B2 JUMP JUMPDEST PUSH1 0x40 MLOAD DUP1 SWAP2 SUB SWAP1 REVERT JUMPDEST PUSH1 0x0 PUSH1 0xFF AND DUP2 PUSH1 0xFF AND LT ISZERO DUP1 ISZERO PUSH3 0xBE1 JUMPI POP PUSH1 0x6 PUSH1 0xFF AND DUP2 PUSH1 0xFF AND GT ISZERO JUMPDEST PUSH3 0xC23 JUMPI PUSH1 0x40 MLOAD PUSH32 0x8C379A000000000000000000000000000000000000000000000000000000000 DUP2 MSTORE PUSH1 0x4 ADD PUSH3 0xC1A SWAP1 PUSH3 0x144A JUMP JUMPDEST PUSH1 0x40 MLOAD DUP1 SWAP2 SUB SWAP1 REVERT JUMPDEST PUSH1 0x40 MLOAD DUP1 PUSH1 0x40 ADD PUSH1 0x40 MSTORE DUP1 DUP7 PUSH1 0xFF AND DUP2 MSTORE PUSH1 0x20 ADD DUP6 PUSH1 0xFF AND DUP2 MSTORE POP SWAP3 POP POP POP SWAP3 SWAP2 POP POP JUMP JUMPDEST PUSH3 0xC52 PUSH3 0x112F JUMP JUMPDEST DUP3 DUP3 PUSH1 0x0 PUSH4 0xFFFFFFFF AND DUP3 PUSH4 0xFFFFFFFF AND LT ISZERO DUP1 ISZERO PUSH3 0xC81 JUMPI POP PUSH3 0x1517F PUSH4 0xFFFFFFFF AND DUP3 PUSH4 0xFFFFFFFF AND GT ISZERO JUMPDEST PUSH3 0xCC3 JUMPI PUSH1 0x40 MLOAD PUSH32 0x8C379A000000000000000000000000000000000000000000000000000000000 DUP2 MSTORE PUSH1 0x4 ADD PUSH3 0xCBA SWAP1 PUSH3 0x13B2 JUMP JUMPDEST PUSH1 0x40 MLOAD DUP1 SWAP2 SUB SWAP1 REVERT JUMPDEST PUSH1 0x0 PUSH4 0xFFFFFFFF AND DUP2 PUSH4 0xFFFFFFFF AND LT ISZERO DUP1 ISZERO PUSH3 0xCF0 JUMPI POP PUSH3 0x1517F PUSH4 0xFFFFFFFF AND DUP2 PUSH4 0xFFFFFFFF AND GT ISZERO JUMPDEST PUSH3 0xD32 JUMPI PUSH1 0x40 MLOAD PUSH32 0x8C379A000000000000000000000000000000000000000000000000000000000 DUP2 MSTORE PUSH1 0x4 ADD PUSH3 0xD29 SWAP1 PUSH3 0x144A JUMP JUMPDEST PUSH1 0x40 MLOAD DUP1 SWAP2 SUB SWAP1 REVERT JUMPDEST PUSH1 0x40 MLOAD DUP1 PUSH1 0x40 ADD PUSH1 0x40 MSTORE DUP1 DUP7 PUSH4 0xFFFFFFFF AND DUP2 MSTORE PUSH1 0x20 ADD DUP6 PUSH4 0xFFFFFFFF AND DUP2 MSTORE POP SWAP3 POP POP POP SWAP3 SWAP2 POP POP JUMP JUMPDEST PUSH3 0xD67 PUSH3 0x1155 JUMP JUMPDEST PUSH1 0x0 PUSH1 0x4 PUSH1 0xFF AND DUP4 PUSH1 0xFF AND GT PUSH3 0xD91 JUMPI PUSH3 0xD89 DUP4 PUSH3 0xEEB PUSH1 0x20 SHL PUSH1 0x20 SHR JUMP JUMPDEST SWAP1 POP PUSH3 0xD96 JUMP JUMPDEST PUSH1 0x1 SWAP1 POP JUMPDEST PUSH1 0x40 MLOAD DUP1 PUSH1 0xA0 ADD PUSH1 0x40 MSTORE DUP1 DUP6 PUSH4 0xFFFFFFFF AND DUP2 MSTORE PUSH1 0x20 ADD DUP5 PUSH1 0xFF AND DUP2 MSTORE PUSH1 0x20 ADD DUP3 PUSH4 0xFFFFFFFF AND DUP2 MSTORE PUSH1 0x20 ADD DUP6 PUSH4 0xFFFFFFFF AND DUP2 MSTORE PUSH1 0x20 ADD PUSH1 0x0 PUSH4 0xFFFFFFFF AND DUP2 MSTORE POP SWAP2 POP POP SWAP3 SWAP2 POP POP JUMP JUMPDEST PUSH3 0xDEC PUSH3 0x119F JUMP JUMPDEST PUSH1 0x40 MLOAD DUP1 PUSH1 0x60 ADD PUSH1 0x40 MSTORE DUP1 DUP6 DUP2 MSTORE PUSH1 0x20 ADD DUP5 DUP2 MSTORE PUSH1 0x20 ADD DUP4 DUP2 MSTORE POP SWAP1 POP SWAP4 SWAP3 POP POP POP JUMP JUMPDEST PUSH3 0xE1A PUSH3 0x11C0 JUMP JUMPDEST PUSH1 0x0 PUSH1 0x4 PUSH1 0xFF AND DUP4 PUSH1 0xFF AND GT PUSH3 0xE44 JUMPI PUSH3 0xE3C DUP4 PUSH3 0xEEB PUSH1 0x20 SHL PUSH1 0x20 SHR JUMP JUMPDEST SWAP1 POP PUSH3 0xE49 JUMP JUMPDEST PUSH1 0x1 SWAP1 POP JUMPDEST PUSH1 0x1 DUP6 MLOAD SUB PUSH3 0xE9D JUMPI PUSH1 0x40 MLOAD DUP1 PUSH1 0x40 ADD PUSH1 0x40 MSTORE DUP1 PUSH1 0x2 DUP2 MSTORE PUSH1 0x20 ADD PUSH32 0x3C3D000000000000000000000000000000000000000000000000000000000000 DUP2 MSTORE POP SWAP5 POP PUSH1 0x1 DUP5 PUSH3 0xE9A SWAP2 SWAP1 PUSH3 0x14A5 JUMP JUMPDEST SWAP4 POP JUMPDEST PUSH1 0x40 MLOAD DUP1 PUSH1 0xE0 ADD PUSH1 0x40 MSTORE DUP1 DUP8 DUP2 MSTORE PUSH1 0x20 ADD DUP7 DUP2 MSTORE PUSH1 0x20 ADD DUP6 DUP2 MSTORE PUSH1 0x20 ADD DUP5 PUSH1 0xFF AND DUP2 MSTORE PUSH1 0x20 ADD DUP3 PUSH4 0xFFFFFFFF AND DUP2 MSTORE PUSH1 0x20 ADD DUP6 DUP2 MSTORE PUSH1 0x20 ADD PUSH1 0x0 PUSH4 0xFFFFFFFF AND DUP2 MSTORE POP SWAP2 POP POP SWAP5 SWAP4 POP POP POP POP JUMP JUMPDEST PUSH1 0x0 PUSH1 0x4 PUSH1 0xFF AND DUP3 PUSH1 0xFF AND GT ISZERO PUSH3 0xF3A JUMPI PUSH1 0x40 MLOAD PUSH32 0x8C379A000000000000000000000000000000000000000000000000000000000 DUP2 MSTORE PUSH1 0x4 ADD PUSH3 0xF31 SWAP1 PUSH3 0x1556 JUMP JUMPDEST PUSH1 0x40 MLOAD DUP1 SWAP2 SUB SWAP1 REVERT JUMPDEST PUSH1 0x0 PUSH1 0xFF AND DUP3 PUSH1 0xFF AND SUB PUSH3 0xF53 JUMPI PUSH1 0x1 SWAP1 POP PUSH3 0xFA8 JUMP JUMPDEST PUSH1 0x1 PUSH1 0xFF AND DUP3 PUSH1 0xFF AND SUB PUSH3 0xF6C JUMPI PUSH1 0x3C SWAP1 POP PUSH3 0xFA8 JUMP JUMPDEST PUSH1 0x2 PUSH1 0xFF AND DUP3 PUSH1 0xFF AND SUB PUSH3 0xF86 JUMPI PUSH2 0xE10 SWAP1 POP PUSH3 0xFA8 JUMP JUMPDEST PUSH1 0x3 PUSH1 0xFF AND DUP3 PUSH1 0xFF AND SUB PUSH3 0xFA1 JUMPI PUSH3 0x15180 SWAP1 POP PUSH3 0xFA8 JUMP JUMPDEST PUSH3 0x93A80 SWAP1 POP JUMPDEST SWAP2 SWAP1 POP JUMP JUMPDEST DUP3 DUP1 SLOAD PUSH3 0xFBB SWAP1 PUSH3 0x12F6 JUMP JUMPDEST SWAP1 PUSH1 0x0 MSTORE PUSH1 0x20 PUSH1 0x0 KECCAK256 SWAP1 PUSH1 0x1F ADD PUSH1 0x20 SWAP1 DIV DUP2 ADD SWAP3 DUP3 PUSH3 0xFDF JUMPI PUSH1 0x0 DUP6 SSTORE PUSH3 0x102B JUMP JUMPDEST DUP3 PUSH1 0x1F LT PUSH3 0xFFA JUMPI DUP1 MLOAD PUSH1 0xFF NOT AND DUP4 DUP1 ADD OR DUP6 SSTORE PUSH3 0x102B JUMP JUMPDEST DUP3 DUP1 ADD PUSH1 0x1 ADD DUP6 SSTORE DUP3 ISZERO PUSH3 0x102B JUMPI SWAP2 DUP3 ADD JUMPDEST DUP3 DUP2 GT ISZERO PUSH3 0x102A JUMPI DUP3 MLOAD DUP3 SSTORE SWAP2 PUSH1 0x20 ADD SWAP2 SWAP1 PUSH1 0x1 ADD SWAP1 PUSH3 0x100D JUMP JUMPDEST JUMPDEST POP SWAP1 POP PUSH3 0x103A SWAP2 SWAP1 PUSH3 0x120C JUMP JUMPDEST POP SWAP1 JUMP JUMPDEST DUP3 DUP1 SLOAD PUSH3 0x104C SWAP1 PUSH3 0x12F6 JUMP JUMPDEST SWAP1 PUSH1 0x0 MSTORE PUSH1 0x20 PUSH1 0x0 KECCAK256 SWAP1 PUSH1 0x1F ADD PUSH1 0x20 SWAP1 DIV DUP2 ADD SWAP3 DUP3 PUSH3 0x1070 JUMPI PUSH1 0x0 DUP6 SSTORE PUSH3 0x10C3 JUMP JUMPDEST DUP3 PUSH1 0x1F LT PUSH3 0x1083 JUMPI DUP1 SLOAD DUP6 SSTORE PUSH3 0x10C3 JUMP JUMPDEST DUP3 DUP1 ADD PUSH1 0x1 ADD DUP6 SSTORE DUP3 ISZERO PUSH3 0x10C3 JUMPI PUSH1 0x0 MSTORE PUSH1 0x20 PUSH1 0x0 KECCAK256 SWAP2 PUSH1 0x1F ADD PUSH1 0x20 SWAP1 DIV DUP3 ADD JUMPDEST DUP3 DUP2 GT ISZERO PUSH3 0x10C2 JUMPI DUP3 SLOAD DUP3 SSTORE SWAP2 PUSH1 0x1 ADD SWAP2 SWAP1 PUSH1 0x1 ADD SWAP1 PUSH3 0x10A5 JUMP JUMPDEST JUMPDEST POP SWAP1 POP PUSH3 0x10D2 SWAP2 SWAP1 PUSH3 0x120C JUMP JUMPDEST POP SWAP1 JUMP JUMPDEST PUSH1 0x40 MLOAD DUP1 PUSH1 0x60 ADD PUSH1 0x40 MSTORE DUP1 PUSH1 0x60 DUP2 MSTORE PUSH1 0x20 ADD PUSH1 0x0 PUSH20 0xFFFFFFFFFFFFFFFFFFFFFFFFFFFFFFFFFFFFFFFF AND DUP2 MSTORE PUSH1 0x20 ADD PUSH1 0x0 ISZERO ISZERO DUP2 MSTORE POP SWAP1 JUMP JUMPDEST PUSH1 0x40 MLOAD DUP1 PUSH1 0x40 ADD PUSH1 0x40 MSTORE DUP1 PUSH1 0x0 PUSH1 0xFF AND DUP2 MSTORE PUSH1 0x20 ADD PUSH1 0x0 PUSH1 0xFF AND DUP2 MSTORE POP SWAP1 JUMP JUMPDEST PUSH1 0x40 MLOAD DUP1 PUSH1 0x40 ADD PUSH1 0x40 MSTORE DUP1 PUSH1 0x0 PUSH4 0xFFFFFFFF AND DUP2 MSTORE PUSH1 0x20 ADD PUSH1 0x0 PUSH4 0xFFFFFFFF AND DUP2 MSTORE POP SWAP1 JUMP JUMPDEST PUSH1 0x40 MLOAD DUP1 PUSH1 0xA0 ADD PUSH1 0x40 MSTORE DUP1 PUSH1 0x0 PUSH4 0xFFFFFFFF AND DUP2 MSTORE PUSH1 0x20 ADD PUSH1 0x0 PUSH1 0xFF AND DUP2 MSTORE PUSH1 0x20 ADD PUSH1 0x0 PUSH4 0xFFFFFFFF AND DUP2 MSTORE PUSH1 0x20 ADD PUSH1 0x0 PUSH4 0xFFFFFFFF AND DUP2 MSTORE PUSH1 0x20 ADD PUSH1 0x0 PUSH4 0xFFFFFFFF AND DUP2 MSTORE POP SWAP1 JUMP JUMPDEST PUSH1 0x40 MLOAD DUP1 PUSH1 0x60 ADD PUSH1 0x40 MSTORE DUP1 PUSH1 0x60 DUP2 MSTORE PUSH1 0x20 ADD PUSH1 0x60 DUP2 MSTORE PUSH1 0x20 ADD PUSH1 0x0 DUP2 MSTORE POP SWAP1 JUMP JUMPDEST PUSH1 0x40 MLOAD DUP1 PUSH1 0xE0 ADD PUSH1 0x40 MSTORE DUP1 PUSH1 0x60 DUP2 MSTORE PUSH1 0x20 ADD PUSH1 0x60 DUP2 MSTORE PUSH1 0x20 ADD PUSH1 0x0 DUP2 MSTORE PUSH1 0x20 ADD PUSH1 0x0 PUSH1 0xFF AND DUP2 MSTORE PUSH1 0x20 ADD PUSH1 0x0 PUSH4 0xFFFFFFFF AND DUP2 MSTORE PUSH1 0x20 ADD PUSH1 0x0 DUP2 MSTORE PUSH1 0x20 ADD PUSH1 0x0 PUSH4 0xFFFFFFFF AND DUP2 MSTORE POP SWAP1 JUMP JUMPDEST JUMPDEST DUP1 DUP3 GT ISZERO PUSH3 0x1227 JUMPI PUSH1 0x0 DUP2 PUSH1 0x0 SWAP1 SSTORE POP PUSH1 0x1 ADD PUSH3 0x120D JUMP JUMPDEST POP SWAP1 JUMP JUMPDEST PUSH1 0x0 DUP1 REVERT JUMPDEST PUSH1 0x0 PUSH20 0xFFFFFFFFFFFFFFFFFFFFFFFFFFFFFFFFFFFFFFFF DUP3 AND SWAP1 POP SWAP2 SWAP1 POP JUMP JUMPDEST PUSH1 0x0 PUSH3 0x125D DUP3 PUSH3 0x1230 JUMP JUMPDEST SWAP1 POP SWAP2 SWAP1 POP JUMP JUMPDEST PUSH3 0x126F DUP2 PUSH3 0x1250 JUMP JUMPDEST DUP2 EQ PUSH3 0x127B JUMPI PUSH1 0x0 DUP1 REVERT JUMPDEST POP JUMP JUMPDEST PUSH1 0x0 DUP2 MLOAD SWAP1 POP PUSH3 0x128F DUP2 PUSH3 0x1264 JUMP JUMPDEST SWAP3 SWAP2 POP POP JUMP JUMPDEST PUSH1 0x0 PUSH1 0x20 DUP3 DUP5 SUB SLT ISZERO PUSH3 0x12AE JUMPI PUSH3 0x12AD PUSH3 0x122B JUMP JUMPDEST JUMPDEST PUSH1 0x0 PUSH3 0x12BE DUP5 DUP3 DUP6 ADD PUSH3 0x127E JUMP JUMPDEST SWAP2 POP POP SWAP3 SWAP2 POP POP JUMP JUMPDEST PUSH32 0x4E487B7100000000000000000000000000000000000000000000000000000000 PUSH1 0x0 MSTORE PUSH1 0x22 PUSH1 0x4 MSTORE PUSH1 0x24 PUSH1 0x0 REVERT JUMPDEST PUSH1 0x0 PUSH1 0x2 DUP3 DIV SWAP1 POP PUSH1 0x1 DUP3 AND DUP1 PUSH3 0x130F JUMPI PUSH1 0x7F DUP3 AND SWAP2 POP JUMPDEST PUSH1 0x20 DUP3 LT DUP2 SUB PUSH3 0x1325 JUMPI PUSH3 0x1324 PUSH3 0x12C7 JUMP JUMPDEST JUMPDEST POP SWAP2 SWAP1 POP JUMP JUMPDEST PUSH1 0x0 DUP3 DUP3 MSTORE PUSH1 0x20 DUP3 ADD SWAP1 POP SWAP3 SWAP2 POP POP JUMP JUMPDEST PUSH32 0x546865205F7374617274446179206E6F7420726570726573656E747320612076 PUSH1 0x0 DUP3 ADD MSTORE PUSH32 0x616C696420646179000000000000000000000000000000000000000000000000 PUSH1 0x20 DUP3 ADD MSTORE POP JUMP JUMPDEST PUSH1 0x0 PUSH3 0x139A PUSH1 0x28 DUP4 PUSH3 0x132B JUMP JUMPDEST SWAP2 POP PUSH3 0x13A7 DUP3 PUSH3 0x133C JUMP JUMPDEST PUSH1 0x40 DUP3 ADD SWAP1 POP SWAP2 SWAP1 POP JUMP JUMPDEST PUSH1 0x0 PUSH1 0x20 DUP3 ADD SWAP1 POP DUP2 DUP2 SUB PUSH1 0x0 DUP4 ADD MSTORE PUSH3 0x13CD DUP2 PUSH3 0x138B JUMP JUMPDEST SWAP1 POP SWAP2 SWAP1 POP JUMP JUMPDEST PUSH32 0x546865205F656E64446179206E6F7420726570726573656E747320612076616C PUSH1 0x0 DUP3 ADD MSTORE PUSH32 0x6964206461790000000000000000000000000000000000000000000000000000 PUSH1 0x20 DUP3 ADD MSTORE POP JUMP JUMPDEST PUSH1 0x0 PUSH3 0x1432 PUSH1 0x26 DUP4 PUSH3 0x132B JUMP JUMPDEST SWAP2 POP PUSH3 0x143F DUP3 PUSH3 0x13D4 JUMP JUMPDEST PUSH1 0x40 DUP3 ADD SWAP1 POP SWAP2 SWAP1 POP JUMP JUMPDEST PUSH1 0x0 PUSH1 0x20 DUP3 ADD SWAP1 POP DUP2 DUP2 SUB PUSH1 0x0 DUP4 ADD MSTORE PUSH3 0x1465 DUP2 PUSH3 0x1423 JUMP JUMPDEST SWAP1 POP SWAP2 SWAP1 POP JUMP JUMPDEST PUSH1 0x0 DUP2 SWAP1 POP SWAP2 SWAP1 POP JUMP JUMPDEST PUSH32 0x4E487B7100000000000000000000000000000000000000000000000000000000 PUSH1 0x0 MSTORE PUSH1 0x11 PUSH1 0x4 MSTORE PUSH1 0x24 PUSH1 0x0 REVERT JUMPDEST PUSH1 0x0 PUSH3 0x14B2 DUP3 PUSH3 0x146C JUMP JUMPDEST SWAP2 POP PUSH3 0x14BF DUP4 PUSH3 0x146C JUMP JUMPDEST SWAP3 POP DUP3 DUP3 LT ISZERO PUSH3 0x14D5 JUMPI PUSH3 0x14D4 PUSH3 0x1476 JUMP JUMPDEST JUMPDEST DUP3 DUP3 SUB SWAP1 POP SWAP3 SWAP2 POP POP JUMP JUMPDEST PUSH32 0x546865206D6574686F642067657454696D65496E5365636F6E647320646F6573 PUSH1 0x0 DUP3 ADD MSTORE PUSH32 0x6E277420776F726B20666F72204D4F4E544820616E6420594541520000000000 PUSH1 0x20 DUP3 ADD MSTORE POP JUMP JUMPDEST PUSH1 0x0 PUSH3 0x153E PUSH1 0x3B DUP4 PUSH3 0x132B JUMP JUMPDEST SWAP2 POP PUSH3 0x154B DUP3 PUSH3 0x14E0 JUMP JUMPDEST PUSH1 0x40 DUP3 ADD SWAP1 POP SWAP2 SWAP1 POP JUMP JUMPDEST PUSH1 0x0 PUSH1 0x20 DUP3 ADD SWAP1 POP DUP2 DUP2 SUB PUSH1 0x0 DUP4 ADD MSTORE PUSH3 0x1571 DUP2 PUSH3 0x152F JUMP JUMPDEST SWAP1 POP SWAP2 SWAP1 POP JUMP JUMPDEST PUSH2 0x3684 DUP1 PUSH3 0x1588 PUSH1 0x0 CODECOPY PUSH1 0x0 RETURN INVALID PUSH1 0x80 PUSH1 0x40 MSTORE CALLVALUE DUP1 ISZERO PUSH2 0x10 JUMPI PUSH1 0x0 DUP1 REVERT JUMPDEST POP PUSH1 0x4 CALLDATASIZE LT PUSH2 0x7D JUMPI PUSH1 0x0 CALLDATALOAD PUSH1 0xE0 SHR DUP1 PUSH4 0x85931911 GT PUSH2 0x5B JUMPI DUP1 PUSH4 0x85931911 EQ PUSH2 0xEE JUMPI DUP1 PUSH4 0x95D3BCDF EQ PUSH2 0x10C JUMPI DUP1 PUSH4 0xB8B4F1A0 EQ PUSH2 0x13C JUMPI DUP1 PUSH4 0xFB6F8243 EQ PUSH2 0x15A JUMPI PUSH2 0x7D JUMP JUMPDEST DUP1 PUSH4 0x5D76E17A EQ PUSH2 0x82 JUMPI DUP1 PUSH4 0x5E744C6A EQ PUSH2 0xA0 JUMPI DUP1 PUSH4 0x70D8915A EQ PUSH2 0xD0 JUMPI JUMPDEST PUSH1 0x0 DUP1 REVERT JUMPDEST PUSH2 0x8A PUSH2 0x18A JUMP JUMPDEST PUSH1 0x40 MLOAD PUSH2 0x97 SWAP2 SWAP1 PUSH2 0x23D2 JUMP JUMPDEST PUSH1 0x40 MLOAD DUP1 SWAP2 SUB SWAP1 RETURN JUMPDEST PUSH2 0xBA PUSH1 0x4 DUP1 CALLDATASIZE SUB DUP2 ADD SWAP1 PUSH2 0xB5 SWAP2 SWAP1 PUSH2 0x25A5 JUMP JUMPDEST PUSH2 0x1EB JUMP JUMPDEST PUSH1 0x40 MLOAD PUSH2 0xC7 SWAP2 SWAP1 PUSH2 0x261C JUMP JUMPDEST PUSH1 0x40 MLOAD DUP1 SWAP2 SUB SWAP1 RETURN JUMPDEST PUSH2 0xD8 PUSH2 0x3DC JUMP JUMPDEST PUSH1 0x40 MLOAD PUSH2 0xE5 SWAP2 SWAP1 PUSH2 0x2646 JUMP JUMPDEST PUSH1 0x40 MLOAD DUP1 SWAP2 SUB SWAP1 RETURN JUMPDEST PUSH2 0xF6 PUSH2 0x543 JUMP JUMPDEST PUSH1 0x40 MLOAD PUSH2 0x103 SWAP2 SWAP1 PUSH2 0x2646 JUMP JUMPDEST PUSH1 0x40 MLOAD DUP1 SWAP2 SUB SWAP1 RETURN JUMPDEST PUSH2 0x126 PUSH1 0x4 DUP1 CALLDATASIZE SUB DUP2 ADD SWAP1 PUSH2 0x121 SWAP2 SWAP1 PUSH2 0x28BD JUMP JUMPDEST PUSH2 0x6AB JUMP JUMPDEST PUSH1 0x40 MLOAD PUSH2 0x133 SWAP2 SWAP1 PUSH2 0x261C JUMP JUMPDEST PUSH1 0x40 MLOAD DUP1 SWAP2 SUB SWAP1 RETURN JUMPDEST PUSH2 0x144 PUSH2 0xCCF JUMP JUMPDEST PUSH1 0x40 MLOAD PUSH2 0x151 SWAP2 SWAP1 PUSH2 0x261C JUMP JUMPDEST PUSH1 0x40 MLOAD DUP1 SWAP2 SUB SWAP1 RETURN JUMPDEST PUSH2 0x174 PUSH1 0x4 DUP1 CALLDATASIZE SUB DUP2 ADD SWAP1 PUSH2 0x16F SWAP2 SWAP1 PUSH2 0x2970 JUMP JUMPDEST PUSH2 0xE39 JUMP JUMPDEST PUSH1 0x40 MLOAD PUSH2 0x181 SWAP2 SWAP1 PUSH2 0x2A93 JUMP JUMPDEST PUSH1 0x40 MLOAD DUP1 SWAP2 SUB SWAP1 RETURN JUMPDEST PUSH1 0x0 PUSH2 0x1B3 PUSH1 0x9 PUSH1 0x0 DUP2 SLOAD DUP2 LT PUSH2 0x1A4 JUMPI PUSH2 0x1A3 PUSH2 0x2AB5 JUMP JUMPDEST JUMPDEST SWAP1 PUSH1 0x0 MSTORE PUSH1 0x20 PUSH1 0x0 KECCAK256 ADD PUSH2 0x1478 JUMP JUMPDEST PUSH1 0x9 PUSH1 0x0 DUP2 SLOAD DUP2 LT PUSH2 0x1C8 JUMPI PUSH2 0x1C7 PUSH2 0x2AB5 JUMP JUMPDEST JUMPDEST SWAP1 PUSH1 0x0 MSTORE PUSH1 0x20 PUSH1 0x0 KECCAK256 ADD PUSH1 0x0 ADD PUSH1 0x9 SWAP1 SLOAD SWAP1 PUSH2 0x100 EXP SWAP1 DIV PUSH4 0xFFFFFFFF AND SWAP1 POP SWAP1 JUMP JUMPDEST PUSH1 0x0 CALLER PUSH20 0xFFFFFFFFFFFFFFFFFFFFFFFFFFFFFFFFFFFFFFFF AND PUSH1 0x3 PUSH1 0x1 ADD PUSH1 0x0 SWAP1 SLOAD SWAP1 PUSH2 0x100 EXP SWAP1 DIV PUSH20 0xFFFFFFFFFFFFFFFFFFFFFFFFFFFFFFFFFFFFFFFF AND PUSH20 0xFFFFFFFFFFFFFFFFFFFFFFFFFFFFFFFFFFFFFFFF AND EQ PUSH2 0x280 JUMPI PUSH1 0x40 MLOAD PUSH32 0x8C379A000000000000000000000000000000000000000000000000000000000 DUP2 MSTORE PUSH1 0x4 ADD PUSH2 0x277 SWAP1 PUSH2 0x2B67 JUMP JUMPDEST PUSH1 0x40 MLOAD DUP1 SWAP2 SUB SWAP1 REVERT JUMPDEST PUSH1 0x5 PUSH1 0x0 PUSH1 0x1 DUP1 ADD PUSH1 0x0 SWAP1 SLOAD SWAP1 PUSH2 0x100 EXP SWAP1 DIV PUSH20 0xFFFFFFFFFFFFFFFFFFFFFFFFFFFFFFFFFFFFFFFF AND PUSH20 0xFFFFFFFFFFFFFFFFFFFFFFFFFFFFFFFFFFFFFFFF AND PUSH20 0xFFFFFFFFFFFFFFFFFFFFFFFFFFFFFFFFFFFFFFFF AND DUP2 MSTORE PUSH1 0x20 ADD SWAP1 DUP2 MSTORE PUSH1 0x20 ADD PUSH1 0x0 KECCAK256 PUSH1 0x0 DUP1 DUP3 ADD PUSH1 0x0 PUSH2 0x2F4 SWAP2 SWAP1 PUSH2 0x210D JUMP JUMPDEST PUSH1 0x1 DUP3 ADD PUSH1 0x0 PUSH2 0x100 EXP DUP2 SLOAD SWAP1 PUSH20 0xFFFFFFFFFFFFFFFFFFFFFFFFFFFFFFFFFFFFFFFF MUL NOT AND SWAP1 SSTORE PUSH1 0x1 DUP3 ADD PUSH1 0x14 PUSH2 0x100 EXP DUP2 SLOAD SWAP1 PUSH1 0xFF MUL NOT AND SWAP1 SSTORE POP POP PUSH2 0x33D DUP4 DUP4 PUSH1 0x0 PUSH2 0x10CF JUMP JUMPDEST PUSH1 0x1 PUSH1 0x0 DUP3 ADD MLOAD DUP2 PUSH1 0x0 ADD SWAP1 DUP1 MLOAD SWAP1 PUSH1 0x20 ADD SWAP1 PUSH2 0x35B SWAP3 SWAP2 SWAP1 PUSH2 0x214D JUMP JUMPDEST POP PUSH1 0x20 DUP3 ADD MLOAD DUP2 PUSH1 0x1 ADD PUSH1 0x0 PUSH2 0x100 EXP DUP2 SLOAD DUP2 PUSH20 0xFFFFFFFFFFFFFFFFFFFFFFFFFFFFFFFFFFFFFFFF MUL NOT AND SWAP1 DUP4 PUSH20 0xFFFFFFFFFFFFFFFFFFFFFFFFFFFFFFFFFFFFFFFF AND MUL OR SWAP1 SSTORE POP PUSH1 0x40 DUP3 ADD MLOAD DUP2 PUSH1 0x1 ADD PUSH1 0x14 PUSH2 0x100 EXP DUP2 SLOAD DUP2 PUSH1 0xFF MUL NOT AND SWAP1 DUP4 ISZERO ISZERO MUL OR SWAP1 SSTORE POP SWAP1 POP POP PUSH2 0x3D1 DUP3 PUSH1 0x1 PUSH2 0x14BD JUMP JUMPDEST POP PUSH1 0x1 SWAP1 POP SWAP3 SWAP2 POP POP JUMP JUMPDEST PUSH1 0x0 DUP1 PUSH1 0x0 SWAP1 SLOAD SWAP1 PUSH2 0x100 EXP SWAP1 DIV PUSH1 0xFF AND PUSH2 0x42C JUMPI PUSH1 0x40 MLOAD PUSH32 0x8C379A000000000000000000000000000000000000000000000000000000000 DUP2 MSTORE PUSH1 0x4 ADD PUSH2 0x423 SWAP1 PUSH2 0x2BD3 JUMP JUMPDEST PUSH1 0x40 MLOAD DUP1 SWAP2 SUB SWAP1 REVERT JUMPDEST CALLER PUSH20 0xFFFFFFFFFFFFFFFFFFFFFFFFFFFFFFFFFFFFFFFF AND PUSH1 0x1 DUP1 ADD PUSH1 0x0 SWAP1 SLOAD SWAP1 PUSH2 0x100 EXP SWAP1 DIV PUSH20 0xFFFFFFFFFFFFFFFFFFFFFFFFFFFFFFFFFFFFFFFF AND PUSH20 0xFFFFFFFFFFFFFFFFFFFFFFFFFFFFFFFFFFFFFFFF AND EQ DUP1 PUSH2 0x4DA JUMPI POP CALLER PUSH20 0xFFFFFFFFFFFFFFFFFFFFFFFFFFFFFFFFFFFFFFFF AND PUSH1 0x3 PUSH1 0x1 ADD PUSH1 0x0 SWAP1 SLOAD SWAP1 PUSH2 0x100 EXP SWAP1 DIV PUSH20 0xFFFFFFFFFFFFFFFFFFFFFFFFFFFFFFFFFFFFFFFF AND PUSH20 0xFFFFFFFFFFFFFFFFFFFFFFFFFFFFFFFFFFFFFFFF AND EQ JUMPDEST PUSH2 0x519 JUMPI PUSH1 0x40 MLOAD PUSH32 0x8C379A000000000000000000000000000000000000000000000000000000000 DUP2 MSTORE PUSH1 0x4 ADD PUSH2 0x510 SWAP1 PUSH2 0x2C65 JUMP JUMPDEST PUSH1 0x40 MLOAD DUP1 SWAP2 SUB SWAP1 REVERT JUMPDEST PUSH1 0x1 DUP1 ADD PUSH1 0x0 SWAP1 SLOAD SWAP1 PUSH2 0x100 EXP SWAP1 DIV PUSH20 0xFFFFFFFFFFFFFFFFFFFFFFFFFFFFFFFFFFFFFFFF AND SWAP1 POP SWAP1 JUMP JUMPDEST PUSH1 0x0 DUP1 PUSH1 0x0 SWAP1 SLOAD SWAP1 PUSH2 0x100 EXP SWAP1 DIV PUSH1 0xFF AND PUSH2 0x593 JUMPI PUSH1 0x40 MLOAD PUSH32 0x8C379A000000000000000000000000000000000000000000000000000000000 DUP2 MSTORE PUSH1 0x4 ADD PUSH2 0x58A SWAP1 PUSH2 0x2BD3 JUMP JUMPDEST PUSH1 0x40 MLOAD DUP1 SWAP2 SUB SWAP1 REVERT JUMPDEST CALLER PUSH20 0xFFFFFFFFFFFFFFFFFFFFFFFFFFFFFFFFFFFFFFFF AND PUSH1 0x1 DUP1 ADD PUSH1 0x0 SWAP1 SLOAD SWAP1 PUSH2 0x100 EXP SWAP1 DIV PUSH20 0xFFFFFFFFFFFFFFFFFFFFFFFFFFFFFFFFFFFFFFFF AND PUSH20 0xFFFFFFFFFFFFFFFFFFFFFFFFFFFFFFFFFFFFFFFF AND EQ DUP1 PUSH2 0x641 JUMPI POP CALLER PUSH20 0xFFFFFFFFFFFFFFFFFFFFFFFFFFFFFFFFFFFFFFFF AND PUSH1 0x3 PUSH1 0x1 ADD PUSH1 0x0 SWAP1 SLOAD SWAP1 PUSH2 0x100 EXP SWAP1 DIV PUSH20 0xFFFFFFFFFFFFFFFFFFFFFFFFFFFFFFFFFFFFFFFF AND PUSH20 0xFFFFFFFFFFFFFFFFFFFFFFFFFFFFFFFFFFFFFFFF AND EQ JUMPDEST PUSH2 0x680 JUMPI PUSH1 0x40 MLOAD PUSH32 0x8C379A000000000000000000000000000000000000000000000000000000000 DUP2 MSTORE PUSH1 0x4 ADD PUSH2 0x677 SWAP1 PUSH2 0x2C65 JUMP JUMPDEST PUSH1 0x40 MLOAD DUP1 SWAP2 SUB SWAP1 REVERT JUMPDEST PUSH1 0x3 PUSH1 0x1 ADD PUSH1 0x0 SWAP1 SLOAD SWAP1 PUSH2 0x100 EXP SWAP1 DIV PUSH20 0xFFFFFFFFFFFFFFFFFFFFFFFFFFFFFFFFFFFFFFFF AND SWAP1 POP SWAP1 JUMP JUMPDEST PUSH1 0x0 DUP1 PUSH1 0x0 SWAP1 SLOAD SWAP1 PUSH2 0x100 EXP SWAP1 DIV PUSH1 0xFF AND PUSH2 0x6FB JUMPI PUSH1 0x40 MLOAD PUSH32 0x8C379A000000000000000000000000000000000000000000000000000000000 DUP2 MSTORE PUSH1 0x4 ADD PUSH2 0x6F2 SWAP1 PUSH2 0x2BD3 JUMP JUMPDEST PUSH1 0x40 MLOAD DUP1 SWAP2 SUB SWAP1 REVERT JUMPDEST CALLER PUSH20 0xFFFFFFFFFFFFFFFFFFFFFFFFFFFFFFFFFFFFFFFF AND PUSH1 0x3 PUSH1 0x1 ADD PUSH1 0x0 SWAP1 SLOAD SWAP1 PUSH2 0x100 EXP SWAP1 DIV PUSH20 0xFFFFFFFFFFFFFFFFFFFFFFFFFFFFFFFFFFFFFFFF AND PUSH20 0xFFFFFFFFFFFFFFFFFFFFFFFFFFFFFFFFFFFFFFFF AND EQ PUSH2 0x78E JUMPI PUSH1 0x40 MLOAD PUSH32 0x8C379A000000000000000000000000000000000000000000000000000000000 DUP2 MSTORE PUSH1 0x4 ADD PUSH2 0x785 SWAP1 PUSH2 0x2B67 JUMP JUMPDEST PUSH1 0x40 MLOAD DUP1 SWAP2 SUB SWAP1 REVERT JUMPDEST PUSH2 0x804 DUP6 PUSH1 0x7 PUSH1 0x0 DUP2 SLOAD DUP2 LT PUSH2 0x7A7 JUMPI PUSH2 0x7A6 PUSH2 0x2AB5 JUMP JUMPDEST JUMPDEST SWAP1 PUSH1 0x0 MSTORE PUSH1 0x20 PUSH1 0x0 KECCAK256 ADD PUSH1 0x40 MLOAD DUP1 PUSH1 0x40 ADD PUSH1 0x40 MSTORE SWAP1 DUP2 PUSH1 0x0 DUP3 ADD PUSH1 0x0 SWAP1 SLOAD SWAP1 PUSH2 0x100 EXP SWAP1 DIV PUSH1 0xFF AND PUSH1 0xFF AND PUSH1 0xFF AND DUP2 MSTORE PUSH1 0x20 ADD PUSH1 0x0 DUP3 ADD PUSH1 0x1 SWAP1 SLOAD SWAP1 PUSH2 0x100 EXP SWAP1 DIV PUSH1 0xFF AND PUSH1 0xFF AND PUSH1 0xFF AND DUP2 MSTORE POP POP PUSH2 0x15C0 SWAP1 SWAP2 SWAP1 PUSH4 0xFFFFFFFF AND JUMP JUMPDEST DUP1 ISZERO PUSH2 0x894 JUMPI POP PUSH2 0x893 DUP5 PUSH1 0x8 PUSH1 0x0 DUP2 SLOAD DUP2 LT PUSH2 0x824 JUMPI PUSH2 0x823 PUSH2 0x2AB5 JUMP JUMPDEST JUMPDEST SWAP1 PUSH1 0x0 MSTORE PUSH1 0x20 PUSH1 0x0 KECCAK256 ADD PUSH1 0x40 MLOAD DUP1 PUSH1 0x40 ADD PUSH1 0x40 MSTORE SWAP1 DUP2 PUSH1 0x0 DUP3 ADD PUSH1 0x0 SWAP1 SLOAD SWAP1 PUSH2 0x100 EXP SWAP1 DIV PUSH4 0xFFFFFFFF AND PUSH4 0xFFFFFFFF AND PUSH4 0xFFFFFFFF AND DUP2 MSTORE PUSH1 0x20 ADD PUSH1 0x0 DUP3 ADD PUSH1 0x4 SWAP1 SLOAD SWAP1 PUSH2 0x100 EXP SWAP1 DIV PUSH4 0xFFFFFFFF AND PUSH4 0xFFFFFFFF AND PUSH4 0xFFFFFFFF AND DUP2 MSTORE POP POP PUSH2 0x164C SWAP1 SWAP2 SWAP1 PUSH4 0xFFFFFFFF AND JUMP JUMPDEST JUMPDEST DUP1 ISZERO PUSH2 0x8CD JUMPI POP PUSH2 0x8CC DUP7 PUSH1 0x9 PUSH1 0x0 DUP2 SLOAD DUP2 LT PUSH2 0x8B4 JUMPI PUSH2 0x8B3 PUSH2 0x2AB5 JUMP JUMPDEST JUMPDEST SWAP1 PUSH1 0x0 MSTORE PUSH1 0x20 PUSH1 0x0 KECCAK256 ADD PUSH2 0x16F6 SWAP1 SWAP2 SWAP1 PUSH4 0xFFFFFFFF AND JUMP JUMPDEST JUMPDEST DUP1 ISZERO PUSH2 0xA5E JUMPI POP PUSH2 0xA5D DUP4 PUSH1 0x0 DUP2 MLOAD DUP2 LT PUSH2 0x8EB JUMPI PUSH2 0x8EA PUSH2 0x2AB5 JUMP JUMPDEST JUMPDEST PUSH1 0x20 MUL PUSH1 0x20 ADD ADD MLOAD PUSH1 0xA PUSH1 0x0 DUP2 SLOAD DUP2 LT PUSH2 0x908 JUMPI PUSH2 0x907 PUSH2 0x2AB5 JUMP JUMPDEST JUMPDEST SWAP1 PUSH1 0x0 MSTORE PUSH1 0x20 PUSH1 0x0 KECCAK256 SWAP1 PUSH1 0x3 MUL ADD PUSH1 0x40 MLOAD DUP1 PUSH1 0x60 ADD PUSH1 0x40 MSTORE SWAP1 DUP2 PUSH1 0x0 DUP3 ADD DUP1 SLOAD PUSH2 0x931 SWAP1 PUSH2 0x2CB4 JUMP JUMPDEST DUP1 PUSH1 0x1F ADD PUSH1 0x20 DUP1 SWAP2 DIV MUL PUSH1 0x20 ADD PUSH1 0x40 MLOAD SWAP1 DUP2 ADD PUSH1 0x40 MSTORE DUP1 SWAP3 SWAP2 SWAP1 DUP2 DUP2 MSTORE PUSH1 0x20 ADD DUP3 DUP1 SLOAD PUSH2 0x95D SWAP1 PUSH2 0x2CB4 JUMP JUMPDEST DUP1 ISZERO PUSH2 0x9AA JUMPI DUP1 PUSH1 0x1F LT PUSH2 0x97F JUMPI PUSH2 0x100 DUP1 DUP4 SLOAD DIV MUL DUP4 MSTORE SWAP2 PUSH1 0x20 ADD SWAP2 PUSH2 0x9AA JUMP JUMPDEST DUP3 ADD SWAP2 SWAP1 PUSH1 0x0 MSTORE PUSH1 0x20 PUSH1 0x0 KECCAK256 SWAP1 JUMPDEST DUP2 SLOAD DUP2 MSTORE SWAP1 PUSH1 0x1 ADD SWAP1 PUSH1 0x20 ADD DUP1 DUP4 GT PUSH2 0x98D JUMPI DUP3 SWAP1 SUB PUSH1 0x1F AND DUP3 ADD SWAP2 JUMPDEST POP POP POP POP POP DUP2 MSTORE PUSH1 0x20 ADD PUSH1 0x1 DUP3 ADD DUP1 SLOAD PUSH2 0x9C3 SWAP1 PUSH2 0x2CB4 JUMP JUMPDEST DUP1 PUSH1 0x1F ADD PUSH1 0x20 DUP1 SWAP2 DIV MUL PUSH1 0x20 ADD PUSH1 0x40 MLOAD SWAP1 DUP2 ADD PUSH1 0x40 MSTORE DUP1 SWAP3 SWAP2 SWAP1 DUP2 DUP2 MSTORE PUSH1 0x20 ADD DUP3 DUP1 SLOAD PUSH2 0x9EF SWAP1 PUSH2 0x2CB4 JUMP JUMPDEST DUP1 ISZERO PUSH2 0xA3C JUMPI DUP1 PUSH1 0x1F LT PUSH2 0xA11 JUMPI PUSH2 0x100 DUP1 DUP4 SLOAD DIV MUL DUP4 MSTORE SWAP2 PUSH1 0x20 ADD SWAP2 PUSH2 0xA3C JUMP JUMPDEST DUP3 ADD SWAP2 SWAP1 PUSH1 0x0 MSTORE PUSH1 0x20 PUSH1 0x0 KECCAK256 SWAP1 JUMPDEST DUP2 SLOAD DUP2 MSTORE SWAP1 PUSH1 0x1 ADD SWAP1 PUSH1 0x20 ADD DUP1 DUP4 GT PUSH2 0xA1F JUMPI DUP3 SWAP1 SUB PUSH1 0x1F AND DUP3 ADD SWAP2 JUMPDEST POP POP POP POP POP DUP2 MSTORE PUSH1 0x20 ADD PUSH1 0x2 DUP3 ADD SLOAD DUP2 MSTORE POP POP PUSH2 0x176F SWAP1 SWAP2 SWAP1 PUSH4 0xFFFFFFFF AND JUMP JUMPDEST JUMPDEST DUP1 ISZERO PUSH2 0xBEF JUMPI POP PUSH2 0xBEE DUP4 PUSH1 0x1 DUP2 MLOAD DUP2 LT PUSH2 0xA7C JUMPI PUSH2 0xA7B PUSH2 0x2AB5 JUMP JUMPDEST JUMPDEST PUSH1 0x20 MUL PUSH1 0x20 ADD ADD MLOAD PUSH1 0xA PUSH1 0x1 DUP2 SLOAD DUP2 LT PUSH2 0xA99 JUMPI PUSH2 0xA98 PUSH2 0x2AB5 JUMP JUMPDEST JUMPDEST SWAP1 PUSH1 0x0 MSTORE PUSH1 0x20 PUSH1 0x0 KECCAK256 SWAP1 PUSH1 0x3 MUL ADD PUSH1 0x40 MLOAD DUP1 PUSH1 0x60 ADD PUSH1 0x40 MSTORE SWAP1 DUP2 PUSH1 0x0 DUP3 ADD DUP1 SLOAD PUSH2 0xAC2 SWAP1 PUSH2 0x2CB4 JUMP JUMPDEST DUP1 PUSH1 0x1F ADD PUSH1 0x20 DUP1 SWAP2 DIV MUL PUSH1 0x20 ADD PUSH1 0x40 MLOAD SWAP1 DUP2 ADD PUSH1 0x40 MSTORE DUP1 SWAP3 SWAP2 SWAP1 DUP2 DUP2 MSTORE PUSH1 0x20 ADD DUP3 DUP1 SLOAD PUSH2 0xAEE SWAP1 PUSH2 0x2CB4 JUMP JUMPDEST DUP1 ISZERO PUSH2 0xB3B JUMPI DUP1 PUSH1 0x1F LT PUSH2 0xB10 JUMPI PUSH2 0x100 DUP1 DUP4 SLOAD DIV MUL DUP4 MSTORE SWAP2 PUSH1 0x20 ADD SWAP2 PUSH2 0xB3B JUMP JUMPDEST DUP3 ADD SWAP2 SWAP1 PUSH1 0x0 MSTORE PUSH1 0x20 PUSH1 0x0 KECCAK256 SWAP1 JUMPDEST DUP2 SLOAD DUP2 MSTORE SWAP1 PUSH1 0x1 ADD SWAP1 PUSH1 0x20 ADD DUP1 DUP4 GT PUSH2 0xB1E JUMPI DUP3 SWAP1 SUB PUSH1 0x1F AND DUP3 ADD SWAP2 JUMPDEST POP POP POP POP POP DUP2 MSTORE PUSH1 0x20 ADD PUSH1 0x1 DUP3 ADD DUP1 SLOAD PUSH2 0xB54 SWAP1 PUSH2 0x2CB4 JUMP JUMPDEST DUP1 PUSH1 0x1F ADD PUSH1 0x20 DUP1 SWAP2 DIV MUL PUSH1 0x20 ADD PUSH1 0x40 MLOAD SWAP1 DUP2 ADD PUSH1 0x40 MSTORE DUP1 SWAP3 SWAP2 SWAP1 DUP2 DUP2 MSTORE PUSH1 0x20 ADD DUP3 DUP1 SLOAD PUSH2 0xB80 SWAP1 PUSH2 0x2CB4 JUMP JUMPDEST DUP1 ISZERO PUSH2 0xBCD JUMPI DUP1 PUSH1 0x1F LT PUSH2 0xBA2 JUMPI PUSH2 0x100 DUP1 DUP4 SLOAD DIV MUL DUP4 MSTORE SWAP2 PUSH1 0x20 ADD SWAP2 PUSH2 0xBCD JUMP JUMPDEST DUP3 ADD SWAP2 SWAP1 PUSH1 0x0 MSTORE PUSH1 0x20 PUSH1 0x0 KECCAK256 SWAP1 JUMPDEST DUP2 SLOAD DUP2 MSTORE SWAP1 PUSH1 0x1 ADD SWAP1 PUSH1 0x20 ADD DUP1 DUP4 GT PUSH2 0xBB0 JUMPI DUP3 SWAP1 SUB PUSH1 0x1F AND DUP3 ADD SWAP2 JUMPDEST POP POP POP POP POP DUP2 MSTORE PUSH1 0x20 ADD PUSH1 0x2 DUP3 ADD SLOAD DUP2 MSTORE POP POP PUSH2 0x176F SWAP1 SWAP2 SWAP1 PUSH4 0xFFFFFFFF AND JUMP JUMPDEST JUMPDEST DUP1 ISZERO PUSH2 0xC49 JUMPI POP PUSH2 0xC48 DUP7 DUP4 PUSH1 0x0 DUP2 MLOAD DUP2 LT PUSH2 0xC0E JUMPI PUSH2 0xC0D PUSH2 0x2AB5 JUMP JUMPDEST JUMPDEST PUSH1 0x20 MUL PUSH1 0x20 ADD ADD MLOAD PUSH1 0xB PUSH1 0x0 DUP2 SLOAD DUP2 LT PUSH2 0xC2B JUMPI PUSH2 0xC2A PUSH2 0x2AB5 JUMP JUMPDEST JUMPDEST SWAP1 PUSH1 0x0 MSTORE PUSH1 0x20 PUSH1 0x0 KECCAK256 SWAP1 PUSH1 0x6 MUL ADD PUSH2 0x1961 SWAP1 SWAP3 SWAP2 SWAP1 PUSH4 0xFFFFFFFF AND JUMP JUMPDEST JUMPDEST ISZERO PUSH2 0xC8C JUMPI PUSH32 0x95A1F3A1DAFDD4C1AF344E3D7C69A72CBCE8A3F15FE1CF95A7F5BD23DF2E71A1 PUSH1 0x40 MLOAD PUSH2 0xC7B SWAP1 PUSH2 0x2D31 JUMP JUMPDEST PUSH1 0x40 MLOAD DUP1 SWAP2 SUB SWAP1 LOG1 PUSH1 0x1 SWAP1 POP PUSH2 0xCC6 JUMP JUMPDEST PUSH32 0x66091B7DC2B097C8F60D5CD6AA99633B097F08D2EB1056F3E15361B22E0EA2BA PUSH1 0x40 MLOAD PUSH2 0xCB9 SWAP1 PUSH2 0x2DE9 JUMP JUMPDEST PUSH1 0x40 MLOAD DUP1 SWAP2 SUB SWAP1 LOG1 PUSH1 0x0 SWAP1 POP JUMPDEST SWAP6 SWAP5 POP POP POP POP POP JUMP JUMPDEST PUSH1 0x0 DUP1 PUSH1 0x0 SWAP1 SLOAD SWAP1 PUSH2 0x100 EXP SWAP1 DIV PUSH1 0xFF AND PUSH2 0xD1F JUMPI PUSH1 0x40 MLOAD PUSH32 0x8C379A000000000000000000000000000000000000000000000000000000000 DUP2 MSTORE PUSH1 0x4 ADD PUSH2 0xD16 SWAP1 PUSH2 0x2BD3 JUMP JUMPDEST PUSH1 0x40 MLOAD DUP1 SWAP2 SUB SWAP1 REVERT JUMPDEST CALLER PUSH20 0xFFFFFFFFFFFFFFFFFFFFFFFFFFFFFFFFFFFFFFFF AND PUSH1 0x1 DUP1 ADD PUSH1 0x0 SWAP1 SLOAD SWAP1 PUSH2 0x100 EXP SWAP1 DIV PUSH20 0xFFFFFFFFFFFFFFFFFFFFFFFFFFFFFFFFFFFFFFFF AND PUSH20 0xFFFFFFFFFFFFFFFFFFFFFFFFFFFFFFFFFFFFFFFF AND EQ PUSH2 0xDB1 JUMPI PUSH1 0x40 MLOAD PUSH32 0x8C379A000000000000000000000000000000000000000000000000000000000 DUP2 MSTORE PUSH1 0x4 ADD PUSH2 0xDA8 SWAP1 PUSH2 0x2E7B JUMP JUMPDEST PUSH1 0x40 MLOAD DUP1 SWAP2 SUB SWAP1 REVERT JUMPDEST PUSH1 0x0 ISZERO ISZERO PUSH1 0x1 DUP1 ADD PUSH1 0x14 SWAP1 SLOAD SWAP1 PUSH2 0x100 EXP SWAP1 DIV PUSH1 0xFF AND ISZERO ISZERO EQ PUSH2 0xE09 JUMPI PUSH1 0x40 MLOAD PUSH32 0x8C379A000000000000000000000000000000000000000000000000000000000 DUP2 MSTORE PUSH1 0x4 ADD PUSH2 0xE00 SWAP1 PUSH2 0x2EE7 JUMP JUMPDEST PUSH1 0x40 MLOAD DUP1 SWAP2 SUB SWAP1 REVERT JUMPDEST PUSH1 0x1 DUP1 PUSH1 0x1 ADD PUSH1 0x14 PUSH2 0x100 EXP DUP2 SLOAD DUP2 PUSH1 0xFF MUL NOT AND SWAP1 DUP4 ISZERO ISZERO MUL OR SWAP1 SSTORE POP PUSH2 0xE31 CALLER PUSH1 0x1 PUSH2 0x14BD JUMP JUMPDEST POP PUSH1 0x1 SWAP1 POP SWAP1 JUMP JUMPDEST PUSH2 0xE41 PUSH2 0x21D3 JUMP JUMPDEST PUSH1 0x0 DUP1 SLOAD SWAP1 PUSH2 0x100 EXP SWAP1 DIV PUSH1 0xFF AND PUSH2 0xE8E JUMPI PUSH1 0x40 MLOAD PUSH32 0x8C379A000000000000000000000000000000000000000000000000000000000 DUP2 MSTORE PUSH1 0x4 ADD PUSH2 0xE85 SWAP1 PUSH2 0x2BD3 JUMP JUMPDEST PUSH1 0x40 MLOAD DUP1 SWAP2 SUB SWAP1 REVERT JUMPDEST CALLER PUSH20 0xFFFFFFFFFFFFFFFFFFFFFFFFFFFFFFFFFFFFFFFF AND PUSH1 0x1 DUP1 ADD PUSH1 0x0 SWAP1 SLOAD SWAP1 PUSH2 0x100 EXP SWAP1 DIV PUSH20 0xFFFFFFFFFFFFFFFFFFFFFFFFFFFFFFFFFFFFFFFF AND PUSH20 0xFFFFFFFFFFFFFFFFFFFFFFFFFFFFFFFFFFFFFFFF AND EQ DUP1 PUSH2 0xF3C JUMPI POP CALLER PUSH20 0xFFFFFFFFFFFFFFFFFFFFFFFFFFFFFFFFFFFFFFFF AND PUSH1 0x3 PUSH1 0x1 ADD PUSH1 0x0 SWAP1 SLOAD SWAP1 PUSH2 0x100 EXP SWAP1 DIV PUSH20 0xFFFFFFFFFFFFFFFFFFFFFFFFFFFFFFFFFFFFFFFF AND PUSH20 0xFFFFFFFFFFFFFFFFFFFFFFFFFFFFFFFFFFFFFFFF AND EQ JUMPDEST PUSH2 0xF7B JUMPI PUSH1 0x40 MLOAD PUSH32 0x8C379A000000000000000000000000000000000000000000000000000000000 DUP2 MSTORE PUSH1 0x4 ADD PUSH2 0xF72 SWAP1 PUSH2 0x2C65 JUMP JUMPDEST PUSH1 0x40 MLOAD DUP1 SWAP2 SUB SWAP1 REVERT JUMPDEST PUSH1 0x5 PUSH1 0x0 DUP4 PUSH20 0xFFFFFFFFFFFFFFFFFFFFFFFFFFFFFFFFFFFFFFFF AND PUSH20 0xFFFFFFFFFFFFFFFFFFFFFFFFFFFFFFFFFFFFFFFF AND DUP2 MSTORE PUSH1 0x20 ADD SWAP1 DUP2 MSTORE PUSH1 0x20 ADD PUSH1 0x0 KECCAK256 PUSH1 0x40 MLOAD DUP1 PUSH1 0x60 ADD PUSH1 0x40 MSTORE SWAP1 DUP2 PUSH1 0x0 DUP3 ADD DUP1 SLOAD PUSH2 0xFD5 SWAP1 PUSH2 0x2CB4 JUMP JUMPDEST DUP1 PUSH1 0x1F ADD PUSH1 0x20 DUP1 SWAP2 DIV MUL PUSH1 0x20 ADD PUSH1 0x40 MLOAD SWAP1 DUP2 ADD PUSH1 0x40 MSTORE DUP1 SWAP3 SWAP2 SWAP1 DUP2 DUP2 MSTORE PUSH1 0x20 ADD DUP3 DUP1 SLOAD PUSH2 0x1001 SWAP1 PUSH2 0x2CB4 JUMP JUMPDEST DUP1 ISZERO PUSH2 0x104E JUMPI DUP1 PUSH1 0x1F LT PUSH2 0x1023 JUMPI PUSH2 0x100 DUP1 DUP4 SLOAD DIV MUL DUP4 MSTORE SWAP2 PUSH1 0x20 ADD SWAP2 PUSH2 0x104E JUMP JUMPDEST DUP3 ADD SWAP2 SWAP1 PUSH1 0x0 MSTORE PUSH1 0x20 PUSH1 0x0 KECCAK256 SWAP1 JUMPDEST DUP2 SLOAD DUP2 MSTORE SWAP1 PUSH1 0x1 ADD SWAP1 PUSH1 0x20 ADD DUP1 DUP4 GT PUSH2 0x1031 JUMPI DUP3 SWAP1 SUB PUSH1 0x1F AND DUP3 ADD SWAP2 JUMPDEST POP POP POP POP POP DUP2 MSTORE PUSH1 0x20 ADD PUSH1 0x1 DUP3 ADD PUSH1 0x0 SWAP1 SLOAD SWAP1 PUSH2 0x100 EXP SWAP1 DIV PUSH20 0xFFFFFFFFFFFFFFFFFFFFFFFFFFFFFFFFFFFFFFFF AND PUSH20 0xFFFFFFFFFFFFFFFFFFFFFFFFFFFFFFFFFFFFFFFF AND PUSH20 0xFFFFFFFFFFFFFFFFFFFFFFFFFFFFFFFFFFFFFFFF AND DUP2 MSTORE PUSH1 0x20 ADD PUSH1 0x1 DUP3 ADD PUSH1 0x14 SWAP1 SLOAD SWAP1 PUSH2 0x100 EXP SWAP1 DIV PUSH1 0xFF AND ISZERO ISZERO ISZERO ISZERO DUP2 MSTORE POP POP SWAP1 POP SWAP2 SWAP1 POP JUMP JUMPDEST PUSH2 0x10D7 PUSH2 0x21D3 JUMP JUMPDEST PUSH1 0x40 MLOAD DUP1 PUSH1 0x60 ADD PUSH1 0x40 MSTORE DUP1 DUP6 DUP2 MSTORE PUSH1 0x20 ADD DUP5 PUSH20 0xFFFFFFFFFFFFFFFFFFFFFFFFFFFFFFFFFFFFFFFF AND DUP2 MSTORE PUSH1 0x20 ADD DUP4 ISZERO ISZERO DUP2 MSTORE POP SWAP1 POP SWAP4 SWAP3 POP POP POP JUMP JUMPDEST PUSH2 0x111B PUSH2 0x220C JUMP JUMPDEST DUP3 DUP3 PUSH1 0x0 PUSH1 0xFF AND DUP3 PUSH1 0xFF AND LT ISZERO DUP1 ISZERO PUSH2 0x113B JUMPI POP PUSH1 0x6 PUSH1 0xFF AND DUP3 PUSH1 0xFF AND GT ISZERO JUMPDEST PUSH2 0x117A JUMPI PUSH1 0x40 MLOAD PUSH32 0x8C379A000000000000000000000000000000000000000000000000000000000 DUP2 MSTORE PUSH1 0x4 ADD PUSH2 0x1171 SWAP1 PUSH2 0x2F79 JUMP JUMPDEST PUSH1 0x40 MLOAD DUP1 SWAP2 SUB SWAP1 REVERT JUMPDEST PUSH1 0x0 PUSH1 0xFF AND DUP2 PUSH1 0xFF AND LT ISZERO DUP1 ISZERO PUSH2 0x1198 JUMPI POP PUSH1 0x6 PUSH1 0xFF AND DUP2 PUSH1 0xFF AND GT ISZERO JUMPDEST PUSH2 0x11D7 JUMPI PUSH1 0x40 MLOAD PUSH32 0x8C379A000000000000000000000000000000000000000000000000000000000 DUP2 MSTORE PUSH1 0x4 ADD PUSH2 0x11CE SWAP1 PUSH2 0x300B JUMP JUMPDEST PUSH1 0x40 MLOAD DUP1 SWAP2 SUB SWAP1 REVERT JUMPDEST PUSH1 0x40 MLOAD DUP1 PUSH1 0x40 ADD PUSH1 0x40 MSTORE DUP1 DUP7 PUSH1 0xFF AND DUP2 MSTORE PUSH1 0x20 ADD DUP6 PUSH1 0xFF AND DUP2 MSTORE POP SWAP3 POP POP POP SWAP3 SWAP2 POP POP JUMP JUMPDEST PUSH2 0x1204 PUSH2 0x222C JUMP JUMPDEST DUP3 DUP3 PUSH1 0x0 PUSH4 0xFFFFFFFF AND DUP3 PUSH4 0xFFFFFFFF AND LT ISZERO DUP1 ISZERO PUSH2 0x1232 JUMPI POP PUSH3 0x1517F PUSH4 0xFFFFFFFF AND DUP3 PUSH4 0xFFFFFFFF AND GT ISZERO JUMPDEST PUSH2 0x1271 JUMPI PUSH1 0x40 MLOAD PUSH32 0x8C379A000000000000000000000000000000000000000000000000000000000 DUP2 MSTORE PUSH1 0x4 ADD PUSH2 0x1268 SWAP1 PUSH2 0x2F79 JUMP JUMPDEST PUSH1 0x40 MLOAD DUP1 SWAP2 SUB SWAP1 REVERT JUMPDEST PUSH1 0x0 PUSH4 0xFFFFFFFF AND DUP2 PUSH4 0xFFFFFFFF AND LT ISZERO DUP1 ISZERO PUSH2 0x129D JUMPI POP PUSH3 0x1517F PUSH4 0xFFFFFFFF AND DUP2 PUSH4 0xFFFFFFFF AND GT ISZERO JUMPDEST PUSH2 0x12DC JUMPI PUSH1 0x40 MLOAD PUSH32 0x8C379A000000000000000000000000000000000000000000000000000000000 DUP2 MSTORE PUSH1 0x4 ADD PUSH2 0x12D3 SWAP1 PUSH2 0x300B JUMP JUMPDEST PUSH1 0x40 MLOAD DUP1 SWAP2 SUB SWAP1 REVERT JUMPDEST PUSH1 0x40 MLOAD DUP1 PUSH1 0x40 ADD PUSH1 0x40 MSTORE DUP1 DUP7 PUSH4 0xFFFFFFFF AND DUP2 MSTORE PUSH1 0x20 ADD DUP6 PUSH4 0xFFFFFFFF AND DUP2 MSTORE POP SWAP3 POP POP POP SWAP3 SWAP2 POP POP JUMP JUMPDEST PUSH2 0x130F PUSH2 0x2252 JUMP JUMPDEST PUSH1 0x0 PUSH1 0x4 PUSH1 0xFF AND DUP4 PUSH1 0xFF AND GT PUSH2 0x132F JUMPI PUSH2 0x1328 DUP4 PUSH2 0x1AF4 JUMP JUMPDEST SWAP1 POP PUSH2 0x1334 JUMP JUMPDEST PUSH1 0x1 SWAP1 POP JUMPDEST PUSH1 0x40 MLOAD DUP1 PUSH1 0xA0 ADD PUSH1 0x40 MSTORE DUP1 DUP6 PUSH4 0xFFFFFFFF AND DUP2 MSTORE PUSH1 0x20 ADD DUP5 PUSH1 0xFF AND DUP2 MSTORE PUSH1 0x20 ADD DUP3 PUSH4 0xFFFFFFFF AND DUP2 MSTORE PUSH1 0x20 ADD DUP6 PUSH4 0xFFFFFFFF AND DUP2 MSTORE PUSH1 0x20 ADD PUSH1 0x0 PUSH4 0xFFFFFFFF AND DUP2 MSTORE POP SWAP2 POP POP SWAP3 SWAP2 POP POP JUMP JUMPDEST PUSH2 0x1388 PUSH2 0x229C JUMP JUMPDEST PUSH1 0x40 MLOAD DUP1 PUSH1 0x60 ADD PUSH1 0x40 MSTORE DUP1 DUP6 DUP2 MSTORE PUSH1 0x20 ADD DUP5 DUP2 MSTORE PUSH1 0x20 ADD DUP4 DUP2 MSTORE POP SWAP1 POP SWAP4 SWAP3 POP POP POP JUMP JUMPDEST PUSH2 0x13B4 PUSH2 0x22BD JUMP JUMPDEST PUSH1 0x0 PUSH1 0x4 PUSH1 0xFF AND DUP4 PUSH1 0xFF AND GT PUSH2 0x13D4 JUMPI PUSH2 0x13CD DUP4 PUSH2 0x1AF4 JUMP JUMPDEST SWAP1 POP PUSH2 0x13D9 JUMP JUMPDEST PUSH1 0x1 SWAP1 POP JUMPDEST PUSH1 0x1 DUP6 MLOAD SUB PUSH2 0x142A JUMPI PUSH1 0x40 MLOAD DUP1 PUSH1 0x40 ADD PUSH1 0x40 MSTORE DUP1 PUSH1 0x2 DUP2 MSTORE PUSH1 0x20 ADD PUSH32 0x3C3D000000000000000000000000000000000000000000000000000000000000 DUP2 MSTORE POP SWAP5 POP PUSH1 0x1 DUP5 PUSH2 0x1427 SWAP2 SWAP1 PUSH2 0x305A JUMP JUMPDEST SWAP4 POP JUMPDEST PUSH1 0x40 MLOAD DUP1 PUSH1 0xE0 ADD PUSH1 0x40 MSTORE DUP1 DUP8 DUP2 MSTORE PUSH1 0x20 ADD DUP7 DUP2 MSTORE PUSH1 0x20 ADD DUP6 DUP2 MSTORE PUSH1 0x20 ADD DUP5 PUSH1 0xFF AND DUP2 MSTORE PUSH1 0x20 ADD DUP3 PUSH4 0xFFFFFFFF AND DUP2 MSTORE PUSH1 0x20 ADD DUP6 DUP2 MSTORE PUSH1 0x20 ADD PUSH1 0x0 PUSH4 0xFFFFFFFF AND DUP2 MSTORE POP SWAP2 POP POP SWAP5 SWAP4 POP POP POP POP JUMP JUMPDEST PUSH1 0x1 DUP2 PUSH1 0x0 ADD PUSH1 0x9 DUP3 DUP3 DUP3 SWAP1 SLOAD SWAP1 PUSH2 0x100 EXP SWAP1 DIV PUSH4 0xFFFFFFFF AND PUSH2 0x149C SWAP2 SWAP1 PUSH2 0x308E JUMP JUMPDEST SWAP3 POP PUSH2 0x100 EXP DUP2 SLOAD DUP2 PUSH4 0xFFFFFFFF MUL NOT AND SWAP1 DUP4 PUSH4 0xFFFFFFFF AND MUL OR SWAP1 SSTORE POP POP JUMP JUMPDEST PUSH1 0x0 DUP2 PUSH1 0x5 PUSH1 0x0 DUP6 PUSH20 0xFFFFFFFFFFFFFFFFFFFFFFFFFFFFFFFFFFFFFFFF AND PUSH20 0xFFFFFFFFFFFFFFFFFFFFFFFFFFFFFFFFFFFFFFFF AND DUP2 MSTORE PUSH1 0x20 ADD SWAP1 DUP2 MSTORE PUSH1 0x20 ADD PUSH1 0x0 KECCAK256 PUSH1 0x0 DUP3 ADD DUP2 PUSH1 0x0 ADD SWAP1 DUP1 SLOAD PUSH2 0x1513 SWAP1 PUSH2 0x2CB4 JUMP JUMPDEST PUSH2 0x151E SWAP3 SWAP2 SWAP1 PUSH2 0x2309 JUMP JUMPDEST POP PUSH1 0x1 DUP3 ADD PUSH1 0x0 SWAP1 SLOAD SWAP1 PUSH2 0x100 EXP SWAP1 DIV PUSH20 0xFFFFFFFFFFFFFFFFFFFFFFFFFFFFFFFFFFFFFFFF AND DUP2 PUSH1 0x1 ADD PUSH1 0x0 PUSH2 0x100 EXP DUP2 SLOAD DUP2 PUSH20 0xFFFFFFFFFFFFFFFFFFFFFFFFFFFFFFFFFFFFFFFF MUL NOT AND SWAP1 DUP4 PUSH20 0xFFFFFFFFFFFFFFFFFFFFFFFFFFFFFFFFFFFFFFFF AND MUL OR SWAP1 SSTORE POP PUSH1 0x1 DUP3 ADD PUSH1 0x14 SWAP1 SLOAD SWAP1 PUSH2 0x100 EXP SWAP1 DIV PUSH1 0xFF AND DUP2 PUSH1 0x1 ADD PUSH1 0x14 PUSH2 0x100 EXP DUP2 SLOAD DUP2 PUSH1 0xFF MUL NOT AND SWAP1 DUP4 ISZERO ISZERO MUL OR SWAP1 SSTORE POP SWAP1 POP POP PUSH1 0x1 SWAP1 POP SWAP3 SWAP2 POP POP JUMP JUMPDEST PUSH1 0x0 DUP3 PUSH1 0x20 ADD MLOAD PUSH1 0xFF AND DUP4 PUSH1 0x0 ADD MLOAD PUSH1 0xFF AND LT ISZERO PUSH2 0x160F JUMPI DUP3 PUSH1 0x0 ADD MLOAD PUSH1 0xFF AND DUP3 PUSH1 0xFF AND LT ISZERO DUP1 ISZERO PUSH2 0x15FC JUMPI POP DUP3 PUSH1 0x20 ADD MLOAD PUSH1 0xFF AND DUP3 PUSH1 0xFF AND GT ISZERO JUMPDEST ISZERO PUSH2 0x160A JUMPI PUSH1 0x1 SWAP1 POP PUSH2 0x1646 JUMP JUMPDEST PUSH2 0x1641 JUMP JUMPDEST DUP3 PUSH1 0x0 ADD MLOAD PUSH1 0xFF AND DUP3 PUSH1 0xFF AND LT ISZERO DUP1 PUSH2 0x1632 JUMPI POP DUP3 PUSH1 0x20 ADD MLOAD PUSH1 0xFF AND DUP3 PUSH1 0xFF AND GT ISZERO JUMPDEST ISZERO PUSH2 0x1640 JUMPI PUSH1 0x1 SWAP1 POP PUSH2 0x1646 JUMP JUMPDEST JUMPDEST PUSH1 0x0 SWAP1 POP JUMPDEST SWAP3 SWAP2 POP POP JUMP JUMPDEST PUSH1 0x0 DUP3 PUSH1 0x20 ADD MLOAD PUSH4 0xFFFFFFFF AND DUP4 PUSH1 0x0 ADD MLOAD PUSH4 0xFFFFFFFF AND LT ISZERO PUSH2 0x16AD JUMPI DUP3 PUSH1 0x0 ADD MLOAD PUSH4 0xFFFFFFFF AND DUP3 PUSH4 0xFFFFFFFF AND LT ISZERO DUP1 ISZERO PUSH2 0x169A JUMPI POP DUP3 PUSH1 0x20 ADD MLOAD PUSH4 0xFFFFFFFF AND DUP3 PUSH4 0xFFFFFFFF AND GT ISZERO JUMPDEST ISZERO PUSH2 0x16A8 JUMPI PUSH1 0x1 SWAP1 POP PUSH2 0x16F0 JUMP JUMPDEST PUSH2 0x16EB JUMP JUMPDEST DUP3 PUSH1 0x0 ADD MLOAD PUSH4 0xFFFFFFFF AND DUP3 PUSH4 0xFFFFFFFF AND LT ISZERO DUP1 PUSH2 0x16DC JUMPI POP DUP3 PUSH1 0x20 ADD MLOAD PUSH4 0xFFFFFFFF AND DUP3 PUSH4 0xFFFFFFFF AND GT ISZERO JUMPDEST ISZERO PUSH2 0x16EA JUMPI PUSH1 0x1 SWAP1 POP PUSH2 0x16F0 JUMP JUMPDEST JUMPDEST PUSH1 0x0 SWAP1 POP JUMPDEST SWAP3 SWAP2 POP POP JUMP JUMPDEST PUSH1 0x0 PUSH2 0x1728 DUP4 PUSH1 0x0 ADD PUSH1 0x4 SWAP1 SLOAD SWAP1 PUSH2 0x100 EXP SWAP1 DIV PUSH1 0xFF AND DUP5 PUSH1 0x0 ADD PUSH1 0xD SWAP1 SLOAD SWAP1 PUSH2 0x100 EXP SWAP1 DIV PUSH4 0xFFFFFFFF AND DUP5 PUSH2 0x1BAB JUMP JUMPDEST ISZERO PUSH2 0x1738 JUMPI PUSH2 0x1737 DUP4 DUP4 PUSH2 0x1C70 JUMP JUMPDEST JUMPDEST PUSH1 0x0 DUP4 PUSH1 0x0 ADD PUSH1 0x9 SWAP1 SLOAD SWAP1 PUSH2 0x100 EXP SWAP1 DIV PUSH4 0xFFFFFFFF AND PUSH4 0xFFFFFFFF AND GT ISZERO PUSH2 0x1764 JUMPI PUSH1 0x1 SWAP1 POP PUSH2 0x1769 JUMP JUMPDEST PUSH1 0x0 SWAP1 POP JUMPDEST SWAP3 SWAP2 POP POP JUMP JUMPDEST PUSH1 0x0 DUP1 DUP4 PUSH1 0x20 ADD MLOAD SWAP1 POP PUSH1 0x21 PUSH1 0xF8 SHL DUP2 PUSH1 0x0 DUP2 MLOAD DUP2 LT PUSH2 0x1792 JUMPI PUSH2 0x1791 PUSH2 0x2AB5 JUMP JUMPDEST JUMPDEST PUSH1 0x20 ADD ADD MLOAD PUSH1 0xF8 SHR PUSH1 0xF8 SHL PUSH31 0xFFFFFFFFFFFFFFFFFFFFFFFFFFFFFFFFFFFFFFFFFFFFFFFFFFFFFFFFFFFFFF NOT AND SUB PUSH2 0x17D4 JUMPI DUP4 PUSH1 0x40 ADD MLOAD DUP4 EQ ISZERO SWAP2 POP POP PUSH2 0x195B JUMP JUMPDEST PUSH1 0x3D PUSH1 0xF8 SHL DUP2 PUSH1 0x0 DUP2 MLOAD DUP2 LT PUSH2 0x17ED JUMPI PUSH2 0x17EC PUSH2 0x2AB5 JUMP JUMPDEST JUMPDEST PUSH1 0x20 ADD ADD MLOAD PUSH1 0xF8 SHR PUSH1 0xF8 SHL PUSH31 0xFFFFFFFFFFFFFFFFFFFFFFFFFFFFFFFFFFFFFFFFFFFFFFFFFFFFFFFFFFFFFF NOT AND SUB PUSH2 0x182E JUMPI DUP4 PUSH1 0x40 ADD MLOAD DUP4 EQ SWAP2 POP POP PUSH2 0x195B JUMP JUMPDEST PUSH1 0x3C PUSH1 0xF8 SHL DUP2 PUSH1 0x0 DUP2 MLOAD DUP2 LT PUSH2 0x1847 JUMPI PUSH2 0x1846 PUSH2 0x2AB5 JUMP JUMPDEST JUMPDEST PUSH1 0x20 ADD ADD MLOAD PUSH1 0xF8 SHR PUSH1 0xF8 SHL PUSH31 0xFFFFFFFFFFFFFFFFFFFFFFFFFFFFFFFFFFFFFFFFFFFFFFFFFFFFFFFFFFFFFF NOT AND SUB PUSH2 0x18A1 JUMPI PUSH1 0x2 DUP2 MLOAD SUB PUSH2 0x1892 JUMPI DUP4 PUSH1 0x40 ADD MLOAD DUP4 SGT ISZERO SWAP2 POP POP PUSH2 0x195B JUMP JUMPDEST DUP4 PUSH1 0x40 ADD MLOAD DUP4 SLT SWAP2 POP POP PUSH2 0x195B JUMP JUMPDEST PUSH1 0x3E PUSH1 0xF8 SHL DUP2 PUSH1 0x0 DUP2 MLOAD DUP2 LT PUSH2 0x18BA JUMPI PUSH2 0x18B9 PUSH2 0x2AB5 JUMP JUMPDEST JUMPDEST PUSH1 0x20 ADD ADD MLOAD PUSH1 0xF8 SHR PUSH1 0xF8 SHL PUSH31 0xFFFFFFFFFFFFFFFFFFFFFFFFFFFFFFFFFFFFFFFFFFFFFFFFFFFFFFFFFFFFFF NOT AND SUB PUSH2 0x1914 JUMPI PUSH1 0x2 DUP2 MLOAD SUB PUSH2 0x1905 JUMPI DUP4 PUSH1 0x40 ADD MLOAD DUP4 SLT ISZERO SWAP2 POP POP PUSH2 0x195B JUMP JUMPDEST DUP4 PUSH1 0x40 ADD MLOAD DUP4 SGT SWAP2 POP POP PUSH2 0x195B JUMP JUMPDEST PUSH1 0x0 PUSH2 0x1955 JUMPI PUSH1 0x40 MLOAD PUSH32 0x8C379A000000000000000000000000000000000000000000000000000000000 DUP2 MSTORE PUSH1 0x4 ADD PUSH2 0x194C SWAP1 PUSH2 0x310E JUMP JUMPDEST PUSH1 0x40 MLOAD DUP1 SWAP2 SUB SWAP1 REVERT JUMPDEST PUSH1 0x0 SWAP2 POP POP JUMPDEST SWAP3 SWAP2 POP POP JUMP JUMPDEST PUSH1 0x0 DUP1 DUP3 GT PUSH2 0x19A5 JUMPI PUSH1 0x40 MLOAD PUSH32 0x8C379A000000000000000000000000000000000000000000000000000000000 DUP2 MSTORE PUSH1 0x4 ADD PUSH2 0x199C SWAP1 PUSH2 0x31A0 JUMP JUMPDEST PUSH1 0x40 MLOAD DUP1 SWAP2 SUB SWAP1 REVERT JUMPDEST PUSH2 0x19D5 DUP5 PUSH1 0x3 ADD PUSH1 0x0 SWAP1 SLOAD SWAP1 PUSH2 0x100 EXP SWAP1 DIV PUSH1 0xFF AND DUP6 PUSH1 0x5 ADD PUSH1 0x0 SWAP1 SLOAD SWAP1 PUSH2 0x100 EXP SWAP1 DIV PUSH4 0xFFFFFFFF AND DUP6 PUSH2 0x1BAB JUMP JUMPDEST ISZERO PUSH2 0x1A3A JUMPI DUP4 PUSH1 0x2 ADD SLOAD DUP5 PUSH1 0x4 ADD DUP2 SWAP1 SSTORE POP PUSH2 0x1A17 DUP5 PUSH1 0x3 ADD PUSH1 0x1 SWAP1 SLOAD SWAP1 PUSH2 0x100 EXP SWAP1 DIV PUSH4 0xFFFFFFFF AND DUP6 PUSH1 0x3 ADD PUSH1 0x0 SWAP1 SLOAD SWAP1 PUSH2 0x100 EXP SWAP1 DIV PUSH1 0xFF AND DUP6 PUSH2 0x1CFD JUMP JUMPDEST DUP5 PUSH1 0x5 ADD PUSH1 0x0 PUSH2 0x100 EXP DUP2 SLOAD DUP2 PUSH4 0xFFFFFFFF MUL NOT AND SWAP1 DUP4 PUSH4 0xFFFFFFFF AND MUL OR SWAP1 SSTORE POP JUMPDEST PUSH1 0x0 PUSH2 0x1A49 DUP6 PUSH1 0x4 ADD SLOAD PUSH2 0x1D90 JUMP JUMPDEST PUSH2 0x1A56 DUP7 PUSH1 0x2 ADD SLOAD PUSH2 0x1D90 JUMP JUMPDEST PUSH2 0x1A5F DUP6 PUSH2 0x1D90 JUMP JUMPDEST PUSH1 0x40 MLOAD PUSH1 0x20 ADD PUSH2 0x1A71 SWAP4 SWAP3 SWAP2 SWAP1 PUSH2 0x3306 JUMP JUMPDEST PUSH1 0x40 MLOAD PUSH1 0x20 DUP2 DUP4 SUB SUB DUP2 MSTORE SWAP1 PUSH1 0x40 MSTORE SWAP1 POP DUP5 PUSH1 0x4 ADD SLOAD DUP4 GT ISZERO DUP2 SWAP1 PUSH2 0x1ACC JUMPI PUSH1 0x40 MLOAD PUSH32 0x8C379A000000000000000000000000000000000000000000000000000000000 DUP2 MSTORE PUSH1 0x4 ADD PUSH2 0x1AC3 SWAP2 SWAP1 PUSH2 0x3391 JUMP JUMPDEST PUSH1 0x40 MLOAD DUP1 SWAP2 SUB SWAP1 REVERT JUMPDEST POP DUP3 DUP6 PUSH1 0x4 ADD PUSH1 0x0 DUP3 DUP3 SLOAD PUSH2 0x1AE1 SWAP2 SWAP1 PUSH2 0x305A JUMP JUMPDEST SWAP3 POP POP DUP2 SWAP1 SSTORE POP PUSH1 0x1 SWAP2 POP POP SWAP4 SWAP3 POP POP POP JUMP JUMPDEST PUSH1 0x0 PUSH1 0x4 PUSH1 0xFF AND DUP3 PUSH1 0xFF AND GT ISZERO PUSH2 0x1B40 JUMPI PUSH1 0x40 MLOAD PUSH32 0x8C379A000000000000000000000000000000000000000000000000000000000 DUP2 MSTORE PUSH1 0x4 ADD PUSH2 0x1B37 SWAP1 PUSH2 0x3425 JUMP JUMPDEST PUSH1 0x40 MLOAD DUP1 SWAP2 SUB SWAP1 REVERT JUMPDEST PUSH1 0x0 PUSH1 0xFF AND DUP3 PUSH1 0xFF AND SUB PUSH2 0x1B57 JUMPI PUSH1 0x1 SWAP1 POP PUSH2 0x1BA6 JUMP JUMPDEST PUSH1 0x1 PUSH1 0xFF AND DUP3 PUSH1 0xFF AND SUB PUSH2 0x1B6E JUMPI PUSH1 0x3C SWAP1 POP PUSH2 0x1BA6 JUMP JUMPDEST PUSH1 0x2 PUSH1 0xFF AND DUP3 PUSH1 0xFF AND SUB PUSH2 0x1B86 JUMPI PUSH2 0xE10 SWAP1 POP PUSH2 0x1BA6 JUMP JUMPDEST PUSH1 0x3 PUSH1 0xFF AND DUP3 PUSH1 0xFF AND SUB PUSH2 0x1B9F JUMPI PUSH3 0x15180 SWAP1 POP PUSH2 0x1BA6 JUMP JUMPDEST PUSH3 0x93A80 SWAP1 POP JUMPDEST SWAP2 SWAP1 POP JUMP JUMPDEST PUSH1 0x0 DUP1 DUP5 SWAP1 POP PUSH1 0x4 PUSH1 0xFF AND DUP2 PUSH1 0xFF AND GT PUSH2 0x1BD7 JUMPI DUP4 PUSH4 0xFFFFFFFF AND DUP4 PUSH4 0xFFFFFFFF AND LT ISZERO SWAP2 POP POP PUSH2 0x1C69 JUMP JUMPDEST PUSH1 0x5 PUSH1 0xFF AND DUP2 PUSH1 0xFF AND SUB PUSH2 0x1C3F JUMPI PUSH1 0x0 PUSH2 0x1BF6 DUP5 PUSH4 0xFFFFFFFF AND PUSH2 0x1EF0 JUMP JUMPDEST POP SWAP2 POP POP PUSH1 0xD DUP6 PUSH4 0xFFFFFFFF AND EQ DUP1 ISZERO PUSH2 0x1C16 JUMPI POP PUSH1 0x1 DUP2 PUSH4 0xFFFFFFFF AND EQ JUMPDEST ISZERO PUSH2 0x1C26 JUMPI PUSH1 0x1 SWAP3 POP POP POP PUSH2 0x1C69 JUMP JUMPDEST DUP5 PUSH4 0xFFFFFFFF AND DUP2 PUSH4 0xFFFFFFFF AND LT ISZERO SWAP3 POP POP POP PUSH2 0x1C69 JUMP JUMPDEST PUSH1 0x0 PUSH2 0x1C50 DUP5 PUSH4 0xFFFFFFFF AND PUSH2 0x1EF0 JUMP JUMPDEST POP POP SWAP1 POP DUP5 PUSH4 0xFFFFFFFF AND DUP2 PUSH4 0xFFFFFFFF AND LT ISZERO SWAP3 POP POP POP JUMPDEST SWAP4 SWAP3 POP POP POP JUMP JUMPDEST DUP2 PUSH1 0x0 ADD PUSH1 0x0 SWAP1 SLOAD SWAP1 PUSH2 0x100 EXP SWAP1 DIV PUSH4 0xFFFFFFFF AND DUP3 PUSH1 0x0 ADD PUSH1 0x9 PUSH2 0x100 EXP DUP2 SLOAD DUP2 PUSH4 0xFFFFFFFF MUL NOT AND SWAP1 DUP4 PUSH4 0xFFFFFFFF AND MUL OR SWAP1 SSTORE POP PUSH2 0x1CD7 DUP3 PUSH1 0x0 ADD PUSH1 0x5 SWAP1 SLOAD SWAP1 PUSH2 0x100 EXP SWAP1 DIV PUSH4 0xFFFFFFFF AND DUP4 PUSH1 0x0 ADD PUSH1 0x4 SWAP1 SLOAD SWAP1 PUSH2 0x100 EXP SWAP1 DIV PUSH1 0xFF AND DUP4 PUSH2 0x1CFD JUMP JUMPDEST DUP3 PUSH1 0x0 ADD PUSH1 0xD PUSH2 0x100 EXP DUP2 SLOAD DUP2 PUSH4 0xFFFFFFFF MUL NOT AND SWAP1 DUP4 PUSH4 0xFFFFFFFF AND MUL OR SWAP1 SSTORE POP POP POP JUMP JUMPDEST PUSH1 0x0 PUSH1 0x4 PUSH1 0xFF AND DUP4 PUSH1 0xFF AND GT PUSH2 0x1D1F JUMPI PUSH2 0x1D18 DUP4 DUP4 DUP7 PUSH2 0x20A3 JUMP JUMPDEST SWAP1 POP PUSH2 0x1D89 JUMP JUMPDEST PUSH1 0x5 PUSH1 0xFF AND DUP4 PUSH1 0xFF AND SUB PUSH2 0x1D5D JUMPI PUSH1 0x0 PUSH2 0x1D3E DUP4 PUSH4 0xFFFFFFFF AND PUSH2 0x1EF0 JUMP JUMPDEST POP PUSH4 0xFFFFFFFF AND SWAP2 POP POP PUSH1 0x1 DUP2 PUSH2 0x1D55 SWAP2 SWAP1 PUSH2 0x3445 JUMP JUMPDEST SWAP2 POP POP PUSH2 0x1D89 JUMP JUMPDEST PUSH1 0x0 PUSH2 0x1D6E DUP4 PUSH4 0xFFFFFFFF AND PUSH2 0x1EF0 JUMP JUMPDEST POP POP PUSH4 0xFFFFFFFF AND SWAP1 POP PUSH1 0x1 DUP2 PUSH2 0x1D85 SWAP2 SWAP1 PUSH2 0x3445 JUMP JUMPDEST SWAP2 POP POP JUMPDEST SWAP4 SWAP3 POP POP POP JUMP JUMPDEST PUSH1 0x60 PUSH1 0x0 DUP3 SUB PUSH2 0x1DD7 JUMPI PUSH1 0x40 MLOAD DUP1 PUSH1 0x40 ADD PUSH1 0x40 MSTORE DUP1 PUSH1 0x1 DUP2 MSTORE PUSH1 0x20 ADD PUSH32 0x3000000000000000000000000000000000000000000000000000000000000000 DUP2 MSTORE POP SWAP1 POP PUSH2 0x1EEB JUMP JUMPDEST PUSH1 0x0 DUP3 SWAP1 POP PUSH1 0x0 JUMPDEST PUSH1 0x0 DUP3 EQ PUSH2 0x1E09 JUMPI DUP1 DUP1 PUSH2 0x1DF2 SWAP1 PUSH2 0x349B JUMP JUMPDEST SWAP2 POP POP PUSH1 0xA DUP3 PUSH2 0x1E02 SWAP2 SWAP1 PUSH2 0x3512 JUMP JUMPDEST SWAP2 POP PUSH2 0x1DDF JUMP JUMPDEST PUSH1 0x0 DUP2 PUSH8 0xFFFFFFFFFFFFFFFF DUP2 GT ISZERO PUSH2 0x1E25 JUMPI PUSH2 0x1E24 PUSH2 0x241C JUMP JUMPDEST JUMPDEST PUSH1 0x40 MLOAD SWAP1 DUP1 DUP3 MSTORE DUP1 PUSH1 0x1F ADD PUSH1 0x1F NOT AND PUSH1 0x20 ADD DUP3 ADD PUSH1 0x40 MSTORE DUP1 ISZERO PUSH2 0x1E57 JUMPI DUP2 PUSH1 0x20 ADD PUSH1 0x1 DUP3 MUL DUP1 CALLDATASIZE DUP4 CALLDATACOPY DUP1 DUP3 ADD SWAP2 POP POP SWAP1 POP JUMPDEST POP SWAP1 POP JUMPDEST PUSH1 0x0 DUP6 EQ PUSH2 0x1EE4 JUMPI PUSH1 0x1 DUP3 PUSH2 0x1E70 SWAP2 SWAP1 PUSH2 0x305A JUMP JUMPDEST SWAP2 POP PUSH1 0xA DUP6 PUSH2 0x1E7F SWAP2 SWAP1 PUSH2 0x3543 JUMP JUMPDEST PUSH1 0x30 PUSH2 0x1E8B SWAP2 SWAP1 PUSH2 0x3445 JUMP JUMPDEST PUSH1 0xF8 SHL DUP2 DUP4 DUP2 MLOAD DUP2 LT PUSH2 0x1EA1 JUMPI PUSH2 0x1EA0 PUSH2 0x2AB5 JUMP JUMPDEST JUMPDEST PUSH1 0x20 ADD ADD SWAP1 PUSH31 0xFFFFFFFFFFFFFFFFFFFFFFFFFFFFFFFFFFFFFFFFFFFFFFFFFFFFFFFFFFFFFF NOT AND SWAP1 DUP2 PUSH1 0x0 BYTE SWAP1 MSTORE8 POP PUSH1 0xA DUP6 PUSH2 0x1EDD SWAP2 SWAP1 PUSH2 0x3512 JUMP JUMPDEST SWAP5 POP PUSH2 0x1E5B JUMP JUMPDEST DUP1 SWAP4 POP POP POP POP JUMPDEST SWAP2 SWAP1 POP JUMP JUMPDEST PUSH1 0x0 DUP1 PUSH1 0x0 DUP1 PUSH3 0x15180 PUSH4 0xFFFFFFFF AND DUP6 PUSH2 0x1F0B SWAP2 SWAP1 PUSH2 0x3512 JUMP JUMPDEST SWAP1 POP PUSH1 0x0 PUSH3 0x253D8C PUSH3 0x10BD9 DUP4 PUSH2 0x1F22 SWAP2 SWAP1 PUSH2 0x3574 JUMP JUMPDEST PUSH2 0x1F2C SWAP2 SWAP1 PUSH2 0x3574 JUMP JUMPDEST SWAP1 POP PUSH1 0x0 PUSH3 0x23AB1 DUP3 PUSH1 0x4 PUSH2 0x1F41 SWAP2 SWAP1 PUSH2 0x35AE JUMP JUMPDEST PUSH2 0x1F4B SWAP2 SWAP1 PUSH2 0x35EC JUMP JUMPDEST SWAP1 POP PUSH1 0x4 PUSH1 0x3 DUP3 PUSH3 0x23AB1 PUSH2 0x1F60 SWAP2 SWAP1 PUSH2 0x35AE JUMP JUMPDEST PUSH2 0x1F6A SWAP2 SWAP1 PUSH2 0x3574 JUMP JUMPDEST PUSH2 0x1F74 SWAP2 SWAP1 PUSH2 0x35EC JUMP JUMPDEST DUP3 PUSH2 0x1F7F SWAP2 SWAP1 PUSH2 0x308E JUMP JUMPDEST SWAP2 POP PUSH1 0x0 PUSH3 0x164B09 PUSH1 0x1 DUP5 PUSH2 0x1F94 SWAP2 SWAP1 PUSH2 0x3574 JUMP JUMPDEST PUSH2 0xFA0 PUSH2 0x1FA1 SWAP2 SWAP1 PUSH2 0x35AE JUMP JUMPDEST PUSH2 0x1FAB SWAP2 SWAP1 PUSH2 0x35EC JUMP JUMPDEST SWAP1 POP PUSH1 0x1F PUSH1 0x4 DUP3 PUSH2 0x5B5 PUSH2 0x1FBF SWAP2 SWAP1 PUSH2 0x35AE JUMP JUMPDEST PUSH2 0x1FC9 SWAP2 SWAP1 PUSH2 0x35EC JUMP JUMPDEST DUP5 PUSH2 0x1FD4 SWAP2 SWAP1 PUSH2 0x308E JUMP JUMPDEST PUSH2 0x1FDE SWAP2 SWAP1 PUSH2 0x3574 JUMP JUMPDEST SWAP3 POP PUSH1 0x0 PUSH2 0x98F DUP5 PUSH1 0x50 PUSH2 0x1FF2 SWAP2 SWAP1 PUSH2 0x35AE JUMP JUMPDEST PUSH2 0x1FFC SWAP2 SWAP1 PUSH2 0x35EC JUMP JUMPDEST SWAP1 POP PUSH1 0x0 PUSH1 0x50 DUP3 PUSH2 0x98F PUSH2 0x2010 SWAP2 SWAP1 PUSH2 0x35AE JUMP JUMPDEST PUSH2 0x201A SWAP2 SWAP1 PUSH2 0x35EC JUMP JUMPDEST DUP6 PUSH2 0x2025 SWAP2 SWAP1 PUSH2 0x308E JUMP JUMPDEST SWAP1 POP PUSH1 0xB DUP3 PUSH2 0x2034 SWAP2 SWAP1 PUSH2 0x35EC JUMP JUMPDEST SWAP5 POP DUP5 PUSH1 0xC PUSH2 0x2043 SWAP2 SWAP1 PUSH2 0x35AE JUMP JUMPDEST PUSH1 0x2 DUP4 PUSH2 0x2050 SWAP2 SWAP1 PUSH2 0x3574 JUMP JUMPDEST PUSH2 0x205A SWAP2 SWAP1 PUSH2 0x308E JUMP JUMPDEST SWAP2 POP DUP5 DUP4 PUSH1 0x31 DUP7 PUSH2 0x206B SWAP2 SWAP1 PUSH2 0x308E JUMP JUMPDEST PUSH1 0x64 PUSH2 0x2077 SWAP2 SWAP1 PUSH2 0x35AE JUMP JUMPDEST PUSH2 0x2081 SWAP2 SWAP1 PUSH2 0x3574 JUMP JUMPDEST PUSH2 0x208B SWAP2 SWAP1 PUSH2 0x3574 JUMP JUMPDEST SWAP3 POP DUP3 SWAP9 POP DUP2 SWAP8 POP DUP1 SWAP7 POP POP POP POP POP POP POP SWAP2 SWAP4 SWAP1 SWAP3 POP JUMP JUMPDEST PUSH1 0x0 DUP1 DUP3 DUP5 PUSH2 0x20B2 SWAP2 SWAP1 PUSH2 0x361D JUMP JUMPDEST SWAP1 POP PUSH1 0x0 DUP2 DUP5 PUSH2 0x20C2 SWAP2 SWAP1 PUSH2 0x308E JUMP JUMPDEST SWAP1 POP PUSH1 0x4 PUSH1 0xFF AND DUP7 PUSH1 0xFF AND SUB PUSH2 0x20F5 JUMPI PUSH3 0x3F480 DUP2 DUP7 PUSH2 0x20E2 SWAP2 SWAP1 PUSH2 0x3574 JUMP JUMPDEST PUSH2 0x20EC SWAP2 SWAP1 PUSH2 0x3574 JUMP JUMPDEST SWAP3 POP POP POP PUSH2 0x2106 JUMP JUMPDEST DUP1 DUP6 PUSH2 0x2101 SWAP2 SWAP1 PUSH2 0x3574 JUMP JUMPDEST SWAP3 POP POP POP JUMPDEST SWAP4 SWAP3 POP POP POP JUMP JUMPDEST POP DUP1 SLOAD PUSH2 0x2119 SWAP1 PUSH2 0x2CB4 JUMP JUMPDEST PUSH1 0x0 DUP3 SSTORE DUP1 PUSH1 0x1F LT PUSH2 0x212B JUMPI POP PUSH2 0x214A JUMP JUMPDEST PUSH1 0x1F ADD PUSH1 0x20 SWAP1 DIV SWAP1 PUSH1 0x0 MSTORE PUSH1 0x20 PUSH1 0x0 KECCAK256 SWAP1 DUP2 ADD SWAP1 PUSH2 0x2149 SWAP2 SWAP1 PUSH2 0x2396 JUMP JUMPDEST JUMPDEST POP JUMP JUMPDEST DUP3 DUP1 SLOAD PUSH2 0x2159 SWAP1 PUSH2 0x2CB4 JUMP JUMPDEST SWAP1 PUSH1 0x0 MSTORE PUSH1 0x20 PUSH1 0x0 KECCAK256 SWAP1 PUSH1 0x1F ADD PUSH1 0x20 SWAP1 DIV DUP2 ADD SWAP3 DUP3 PUSH2 0x217B JUMPI PUSH1 0x0 DUP6 SSTORE PUSH2 0x21C2 JUMP JUMPDEST DUP3 PUSH1 0x1F LT PUSH2 0x2194 JUMPI DUP1 MLOAD PUSH1 0xFF NOT AND DUP4 DUP1 ADD OR DUP6 SSTORE PUSH2 0x21C2 JUMP JUMPDEST DUP3 DUP1 ADD PUSH1 0x1 ADD DUP6 SSTORE DUP3 ISZERO PUSH2 0x21C2 JUMPI SWAP2 DUP3 ADD JUMPDEST DUP3 DUP2 GT ISZERO PUSH2 0x21C1 JUMPI DUP3 MLOAD DUP3 SSTORE SWAP2 PUSH1 0x20 ADD SWAP2 SWAP1 PUSH1 0x1 ADD SWAP1 PUSH2 0x21A6 JUMP JUMPDEST JUMPDEST POP SWAP1 POP PUSH2 0x21CF SWAP2 SWAP1 PUSH2 0x2396 JUMP JUMPDEST POP SWAP1 JUMP JUMPDEST PUSH1 0x40 MLOAD DUP1 PUSH1 0x60 ADD PUSH1 0x40 MSTORE DUP1 PUSH1 0x60 DUP2 MSTORE PUSH1 0x20 ADD PUSH1 0x0 PUSH20 0xFFFFFFFFFFFFFFFFFFFFFFFFFFFFFFFFFFFFFFFF AND DUP2 MSTORE PUSH1 0x20 ADD PUSH1 0x0 ISZERO ISZERO DUP2 MSTORE POP SWAP1 JUMP JUMPDEST PUSH1 0x40 MLOAD DUP1 PUSH1 0x40 ADD PUSH1 0x40 MSTORE DUP1 PUSH1 0x0 PUSH1 0xFF AND DUP2 MSTORE PUSH1 0x20 ADD PUSH1 0x0 PUSH1 0xFF AND DUP2 MSTORE POP SWAP1 JUMP JUMPDEST PUSH1 0x40 MLOAD DUP1 PUSH1 0x40 ADD PUSH1 0x40 MSTORE DUP1 PUSH1 0x0 PUSH4 0xFFFFFFFF AND DUP2 MSTORE PUSH1 0x20 ADD PUSH1 0x0 PUSH4 0xFFFFFFFF AND DUP2 MSTORE POP SWAP1 JUMP JUMPDEST PUSH1 0x40 MLOAD DUP1 PUSH1 0xA0 ADD PUSH1 0x40 MSTORE DUP1 PUSH1 0x0 PUSH4 0xFFFFFFFF AND DUP2 MSTORE PUSH1 0x20 ADD PUSH1 0x0 PUSH1 0xFF AND DUP2 MSTORE PUSH1 0x20 ADD PUSH1 0x0 PUSH4 0xFFFFFFFF AND DUP2 MSTORE PUSH1 0x20 ADD PUSH1 0x0 PUSH4 0xFFFFFFFF AND DUP2 MSTORE PUSH1 0x20 ADD PUSH1 0x0 PUSH4 0xFFFFFFFF AND DUP2 MSTORE POP SWAP1 JUMP JUMPDEST PUSH1 0x40 MLOAD DUP1 PUSH1 0x60 ADD PUSH1 0x40 MSTORE DUP1 PUSH1 0x60 DUP2 MSTORE PUSH1 0x20 ADD PUSH1 0x60 DUP2 MSTORE PUSH1 0x20 ADD PUSH1 0x0 DUP2 MSTORE POP SWAP1 JUMP JUMPDEST PUSH1 0x40 MLOAD DUP1 PUSH1 0xE0 ADD PUSH1 0x40 MSTORE DUP1 PUSH1 0x60 DUP2 MSTORE PUSH1 0x20 ADD PUSH1 0x60 DUP2 MSTORE PUSH1 0x20 ADD PUSH1 0x0 DUP2 MSTORE PUSH1 0x20 ADD PUSH1 0x0 PUSH1 0xFF AND DUP2 MSTORE PUSH1 0x20 ADD PUSH1 0x0 PUSH4 0xFFFFFFFF AND DUP2 MSTORE PUSH1 0x20 ADD PUSH1 0x0 DUP2 MSTORE PUSH1 0x20 ADD PUSH1 0x0 PUSH4 0xFFFFFFFF AND DUP2 MSTORE POP SWAP1 JUMP JUMPDEST DUP3 DUP1 SLOAD PUSH2 0x2315 SWAP1 PUSH2 0x2CB4 JUMP JUMPDEST SWAP1 PUSH1 0x0 MSTORE PUSH1 0x20 PUSH1 0x0 KECCAK256 SWAP1 PUSH1 0x1F ADD PUSH1 0x20 SWAP1 DIV DUP2 ADD SWAP3 DUP3 PUSH2 0x2337 JUMPI PUSH1 0x0 DUP6 SSTORE PUSH2 0x2385 JUMP JUMPDEST DUP3 PUSH1 0x1F LT PUSH2 0x2348 JUMPI DUP1 SLOAD DUP6 SSTORE PUSH2 0x2385 JUMP JUMPDEST DUP3 DUP1 ADD PUSH1 0x1 ADD DUP6 SSTORE DUP3 ISZERO PUSH2 0x2385 JUMPI PUSH1 0x0 MSTORE PUSH1 0x20 PUSH1 0x0 KECCAK256 SWAP2 PUSH1 0x1F ADD PUSH1 0x20 SWAP1 DIV DUP3 ADD JUMPDEST DUP3 DUP2 GT ISZERO PUSH2 0x2384 JUMPI DUP3 SLOAD DUP3 SSTORE SWAP2 PUSH1 0x1 ADD SWAP2 SWAP1 PUSH1 0x1 ADD SWAP1 PUSH2 0x2369 JUMP JUMPDEST JUMPDEST POP SWAP1 POP PUSH2 0x2392 SWAP2 SWAP1 PUSH2 0x2396 JUMP JUMPDEST POP SWAP1 JUMP JUMPDEST JUMPDEST DUP1 DUP3 GT ISZERO PUSH2 0x23AF JUMPI PUSH1 0x0 DUP2 PUSH1 0x0 SWAP1 SSTORE POP PUSH1 0x1 ADD PUSH2 0x2397 JUMP JUMPDEST POP SWAP1 JUMP JUMPDEST PUSH1 0x0 PUSH4 0xFFFFFFFF DUP3 AND SWAP1 POP SWAP2 SWAP1 POP JUMP JUMPDEST PUSH2 0x23CC DUP2 PUSH2 0x23B3 JUMP JUMPDEST DUP3 MSTORE POP POP JUMP JUMPDEST PUSH1 0x0 PUSH1 0x20 DUP3 ADD SWAP1 POP PUSH2 0x23E7 PUSH1 0x0 DUP4 ADD DUP5 PUSH2 0x23C3 JUMP JUMPDEST SWAP3 SWAP2 POP POP JUMP JUMPDEST PUSH1 0x0 PUSH1 0x40 MLOAD SWAP1 POP SWAP1 JUMP JUMPDEST PUSH1 0x0 DUP1 REVERT JUMPDEST PUSH1 0x0 DUP1 REVERT JUMPDEST PUSH1 0x0 DUP1 REVERT JUMPDEST PUSH1 0x0 DUP1 REVERT JUMPDEST PUSH1 0x0 PUSH1 0x1F NOT PUSH1 0x1F DUP4 ADD AND SWAP1 POP SWAP2 SWAP1 POP JUMP JUMPDEST PUSH32 0x4E487B7100000000000000000000000000000000000000000000000000000000 PUSH1 0x0 MSTORE PUSH1 0x41 PUSH1 0x4 MSTORE PUSH1 0x24 PUSH1 0x0 REVERT JUMPDEST PUSH2 0x2454 DUP3 PUSH2 0x240B JUMP JUMPDEST DUP2 ADD DUP2 DUP2 LT PUSH8 0xFFFFFFFFFFFFFFFF DUP3 GT OR ISZERO PUSH2 0x2473 JUMPI PUSH2 0x2472 PUSH2 0x241C JUMP JUMPDEST JUMPDEST DUP1 PUSH1 0x40 MSTORE POP POP POP JUMP JUMPDEST PUSH1 0x0 PUSH2 0x2486 PUSH2 0x23ED JUMP JUMPDEST SWAP1 POP PUSH2 0x2492 DUP3 DUP3 PUSH2 0x244B JUMP JUMPDEST SWAP2 SWAP1 POP JUMP JUMPDEST PUSH1 0x0 PUSH8 0xFFFFFFFFFFFFFFFF DUP3 GT ISZERO PUSH2 0x24B2 JUMPI PUSH2 0x24B1 PUSH2 0x241C JUMP JUMPDEST JUMPDEST PUSH2 0x24BB DUP3 PUSH2 0x240B JUMP JUMPDEST SWAP1 POP PUSH1 0x20 DUP2 ADD SWAP1 POP SWAP2 SWAP1 POP JUMP JUMPDEST DUP3 DUP2 DUP4 CALLDATACOPY PUSH1 0x0 DUP4 DUP4 ADD MSTORE POP POP POP JUMP JUMPDEST PUSH1 0x0 PUSH2 0x24EA PUSH2 0x24E5 DUP5 PUSH2 0x2497 JUMP JUMPDEST PUSH2 0x247C JUMP JUMPDEST SWAP1 POP DUP3 DUP2 MSTORE PUSH1 0x20 DUP2 ADD DUP5 DUP5 DUP5 ADD GT ISZERO PUSH2 0x2506 JUMPI PUSH2 0x2505 PUSH2 0x2406 JUMP JUMPDEST JUMPDEST PUSH2 0x2511 DUP5 DUP3 DUP6 PUSH2 0x24C8 JUMP JUMPDEST POP SWAP4 SWAP3 POP POP POP JUMP JUMPDEST PUSH1 0x0 DUP3 PUSH1 0x1F DUP4 ADD SLT PUSH2 0x252E JUMPI PUSH2 0x252D PUSH2 0x2401 JUMP JUMPDEST JUMPDEST DUP2 CALLDATALOAD PUSH2 0x253E DUP5 DUP3 PUSH1 0x20 DUP7 ADD PUSH2 0x24D7 JUMP JUMPDEST SWAP2 POP POP SWAP3 SWAP2 POP POP JUMP JUMPDEST PUSH1 0x0 PUSH20 0xFFFFFFFFFFFFFFFFFFFFFFFFFFFFFFFFFFFFFFFF DUP3 AND SWAP1 POP SWAP2 SWAP1 POP JUMP JUMPDEST PUSH1 0x0 PUSH2 0x2572 DUP3 PUSH2 0x2547 JUMP JUMPDEST SWAP1 POP SWAP2 SWAP1 POP JUMP JUMPDEST PUSH2 0x2582 DUP2 PUSH2 0x2567 JUMP JUMPDEST DUP2 EQ PUSH2 0x258D JUMPI PUSH1 0x0 DUP1 REVERT JUMPDEST POP JUMP JUMPDEST PUSH1 0x0 DUP2 CALLDATALOAD SWAP1 POP PUSH2 0x259F DUP2 PUSH2 0x2579 JUMP JUMPDEST SWAP3 SWAP2 POP POP JUMP JUMPDEST PUSH1 0x0 DUP1 PUSH1 0x40 DUP4 DUP6 SUB SLT ISZERO PUSH2 0x25BC JUMPI PUSH2 0x25BB PUSH2 0x23F7 JUMP JUMPDEST JUMPDEST PUSH1 0x0 DUP4 ADD CALLDATALOAD PUSH8 0xFFFFFFFFFFFFFFFF DUP2 GT ISZERO PUSH2 0x25DA JUMPI PUSH2 0x25D9 PUSH2 0x23FC JUMP JUMPDEST JUMPDEST PUSH2 0x25E6 DUP6 DUP3 DUP7 ADD PUSH2 0x2519 JUMP JUMPDEST SWAP3 POP POP PUSH1 0x20 PUSH2 0x25F7 DUP6 DUP3 DUP7 ADD PUSH2 0x2590 JUMP JUMPDEST SWAP2 POP POP SWAP3 POP SWAP3 SWAP1 POP JUMP JUMPDEST PUSH1 0x0 DUP2 ISZERO ISZERO SWAP1 POP SWAP2 SWAP1 POP JUMP JUMPDEST PUSH2 0x2616 DUP2 PUSH2 0x2601 JUMP JUMPDEST DUP3 MSTORE POP POP JUMP JUMPDEST PUSH1 0x0 PUSH1 0x20 DUP3 ADD SWAP1 POP PUSH2 0x2631 PUSH1 0x0 DUP4 ADD DUP5 PUSH2 0x260D JUMP JUMPDEST SWAP3 SWAP2 POP POP JUMP JUMPDEST PUSH2 0x2640 DUP2 PUSH2 0x2567 JUMP JUMPDEST DUP3 MSTORE POP POP JUMP JUMPDEST PUSH1 0x0 PUSH1 0x20 DUP3 ADD SWAP1 POP PUSH2 0x265B PUSH1 0x0 DUP4 ADD DUP5 PUSH2 0x2637 JUMP JUMPDEST SWAP3 SWAP2 POP POP JUMP JUMPDEST PUSH2 0x266A DUP2 PUSH2 0x23B3 JUMP JUMPDEST DUP2 EQ PUSH2 0x2675 JUMPI PUSH1 0x0 DUP1 REVERT JUMPDEST POP JUMP JUMPDEST PUSH1 0x0 DUP2 CALLDATALOAD SWAP1 POP PUSH2 0x2687 DUP2 PUSH2 0x2661 JUMP JUMPDEST SWAP3 SWAP2 POP POP JUMP JUMPDEST PUSH1 0x0 PUSH1 0xFF DUP3 AND SWAP1 POP SWAP2 SWAP1 POP JUMP JUMPDEST PUSH2 0x26A3 DUP2 PUSH2 0x268D JUMP JUMPDEST DUP2 EQ PUSH2 0x26AE JUMPI PUSH1 0x0 DUP1 REVERT JUMPDEST POP JUMP JUMPDEST PUSH1 0x0 DUP2 CALLDATALOAD SWAP1 POP PUSH2 0x26C0 DUP2 PUSH2 0x269A JUMP JUMPDEST SWAP3 SWAP2 POP POP JUMP JUMPDEST PUSH1 0x0 PUSH8 0xFFFFFFFFFFFFFFFF DUP3 GT ISZERO PUSH2 0x26E1 JUMPI PUSH2 0x26E0 PUSH2 0x241C JUMP JUMPDEST JUMPDEST PUSH1 0x20 DUP3 MUL SWAP1 POP PUSH1 0x20 DUP2 ADD SWAP1 POP SWAP2 SWAP1 POP JUMP JUMPDEST PUSH1 0x0 DUP1 REVERT JUMPDEST PUSH1 0x0 DUP2 SWAP1 POP SWAP2 SWAP1 POP JUMP JUMPDEST PUSH2 0x270A DUP2 PUSH2 0x26F7 JUMP JUMPDEST DUP2 EQ PUSH2 0x2715 JUMPI PUSH1 0x0 DUP1 REVERT JUMPDEST POP JUMP JUMPDEST PUSH1 0x0 DUP2 CALLDATALOAD SWAP1 POP PUSH2 0x2727 DUP2 PUSH2 0x2701 JUMP JUMPDEST SWAP3 SWAP2 POP POP JUMP JUMPDEST PUSH1 0x0 PUSH2 0x2740 PUSH2 0x273B DUP5 PUSH2 0x26C6 JUMP JUMPDEST PUSH2 0x247C JUMP JUMPDEST SWAP1 POP DUP1 DUP4 DUP3 MSTORE PUSH1 0x20 DUP3 ADD SWAP1 POP PUSH1 0x20 DUP5 MUL DUP4 ADD DUP6 DUP2 GT ISZERO PUSH2 0x2763 JUMPI PUSH2 0x2762 PUSH2 0x26F2 JUMP JUMPDEST JUMPDEST DUP4 JUMPDEST DUP2 DUP2 LT ISZERO PUSH2 0x278C JUMPI DUP1 PUSH2 0x2778 DUP9 DUP3 PUSH2 0x2718 JUMP JUMPDEST DUP5 MSTORE PUSH1 0x20 DUP5 ADD SWAP4 POP POP PUSH1 0x20 DUP2 ADD SWAP1 POP PUSH2 0x2765 JUMP JUMPDEST POP POP POP SWAP4 SWAP3 POP POP POP JUMP JUMPDEST PUSH1 0x0 DUP3 PUSH1 0x1F DUP4 ADD SLT PUSH2 0x27AB JUMPI PUSH2 0x27AA PUSH2 0x2401 JUMP JUMPDEST JUMPDEST DUP2 CALLDATALOAD PUSH2 0x27BB DUP5 DUP3 PUSH1 0x20 DUP7 ADD PUSH2 0x272D JUMP JUMPDEST SWAP2 POP POP SWAP3 SWAP2 POP POP JUMP JUMPDEST PUSH1 0x0 PUSH8 0xFFFFFFFFFFFFFFFF DUP3 GT ISZERO PUSH2 0x27DF JUMPI PUSH2 0x27DE PUSH2 0x241C JUMP JUMPDEST JUMPDEST PUSH1 0x20 DUP3 MUL SWAP1 POP PUSH1 0x20 DUP2 ADD SWAP1 POP SWAP2 SWAP1 POP JUMP JUMPDEST PUSH1 0x0 DUP2 SWAP1 POP SWAP2 SWAP1 POP JUMP JUMPDEST PUSH2 0x2803 DUP2 PUSH2 0x27F0 JUMP JUMPDEST DUP2 EQ PUSH2 0x280E JUMPI PUSH1 0x0 DUP1 REVERT JUMPDEST POP JUMP JUMPDEST PUSH1 0x0 DUP2 CALLDATALOAD SWAP1 POP PUSH2 0x2820 DUP2 PUSH2 0x27FA JUMP JUMPDEST SWAP3 SWAP2 POP POP JUMP JUMPDEST PUSH1 0x0 PUSH2 0x2839 PUSH2 0x2834 DUP5 PUSH2 0x27C4 JUMP JUMPDEST PUSH2 0x247C JUMP JUMPDEST SWAP1 POP DUP1 DUP4 DUP3 MSTORE PUSH1 0x20 DUP3 ADD SWAP1 POP PUSH1 0x20 DUP5 MUL DUP4 ADD DUP6 DUP2 GT ISZERO PUSH2 0x285C JUMPI PUSH2 0x285B PUSH2 0x26F2 JUMP JUMPDEST JUMPDEST DUP4 JUMPDEST DUP2 DUP2 LT ISZERO PUSH2 0x2885 JUMPI DUP1 PUSH2 0x2871 DUP9 DUP3 PUSH2 0x2811 JUMP JUMPDEST DUP5 MSTORE PUSH1 0x20 DUP5 ADD SWAP4 POP POP PUSH1 0x20 DUP2 ADD SWAP1 POP PUSH2 0x285E JUMP JUMPDEST POP POP POP SWAP4 SWAP3 POP POP POP JUMP JUMPDEST PUSH1 0x0 DUP3 PUSH1 0x1F DUP4 ADD SLT PUSH2 0x28A4 JUMPI PUSH2 0x28A3 PUSH2 0x2401 JUMP JUMPDEST JUMPDEST DUP2 CALLDATALOAD PUSH2 0x28B4 DUP5 DUP3 PUSH1 0x20 DUP7 ADD PUSH2 0x2826 JUMP JUMPDEST SWAP2 POP POP SWAP3 SWAP2 POP POP JUMP JUMPDEST PUSH1 0x0 DUP1 PUSH1 0x0 DUP1 PUSH1 0x0 PUSH1 0xA0 DUP7 DUP9 SUB SLT ISZERO PUSH2 0x28D9 JUMPI PUSH2 0x28D8 PUSH2 0x23F7 JUMP JUMPDEST JUMPDEST PUSH1 0x0 PUSH2 0x28E7 DUP9 DUP3 DUP10 ADD PUSH2 0x2678 JUMP JUMPDEST SWAP6 POP POP PUSH1 0x20 PUSH2 0x28F8 DUP9 DUP3 DUP10 ADD PUSH2 0x26B1 JUMP JUMPDEST SWAP5 POP POP PUSH1 0x40 PUSH2 0x2909 DUP9 DUP3 DUP10 ADD PUSH2 0x2678 JUMP JUMPDEST SWAP4 POP POP PUSH1 0x60 DUP7 ADD CALLDATALOAD PUSH8 0xFFFFFFFFFFFFFFFF DUP2 GT ISZERO PUSH2 0x292A JUMPI PUSH2 0x2929 PUSH2 0x23FC JUMP JUMPDEST JUMPDEST PUSH2 0x2936 DUP9 DUP3 DUP10 ADD PUSH2 0x2796 JUMP JUMPDEST SWAP3 POP POP PUSH1 0x80 DUP7 ADD CALLDATALOAD PUSH8 0xFFFFFFFFFFFFFFFF DUP2 GT ISZERO PUSH2 0x2957 JUMPI PUSH2 0x2956 PUSH2 0x23FC JUMP JUMPDEST JUMPDEST PUSH2 0x2963 DUP9 DUP3 DUP10 ADD PUSH2 0x288F JUMP JUMPDEST SWAP2 POP POP SWAP3 SWAP6 POP SWAP3 SWAP6 SWAP1 SWAP4 POP JUMP JUMPDEST PUSH1 0x0 PUSH1 0x20 DUP3 DUP5 SUB SLT ISZERO PUSH2 0x2986 JUMPI PUSH2 0x2985 PUSH2 0x23F7 JUMP JUMPDEST JUMPDEST PUSH1 0x0 PUSH2 0x2994 DUP5 DUP3 DUP6 ADD PUSH2 0x2590 JUMP JUMPDEST SWAP2 POP POP SWAP3 SWAP2 POP POP JUMP JUMPDEST PUSH1 0x0 DUP2 MLOAD SWAP1 POP SWAP2 SWAP1 POP JUMP JUMPDEST PUSH1 0x0 DUP3 DUP3 MSTORE PUSH1 0x20 DUP3 ADD SWAP1 POP SWAP3 SWAP2 POP POP JUMP JUMPDEST PUSH1 0x0 JUMPDEST DUP4 DUP2 LT ISZERO PUSH2 0x29D7 JUMPI DUP1 DUP3 ADD MLOAD DUP2 DUP5 ADD MSTORE PUSH1 0x20 DUP2 ADD SWAP1 POP PUSH2 0x29BC JUMP JUMPDEST DUP4 DUP2 GT ISZERO PUSH2 0x29E6 JUMPI PUSH1 0x0 DUP5 DUP5 ADD MSTORE JUMPDEST POP POP POP POP JUMP JUMPDEST PUSH1 0x0 PUSH2 0x29F7 DUP3 PUSH2 0x299D JUMP JUMPDEST PUSH2 0x2A01 DUP2 DUP6 PUSH2 0x29A8 JUMP JUMPDEST SWAP4 POP PUSH2 0x2A11 DUP2 DUP6 PUSH1 0x20 DUP7 ADD PUSH2 0x29B9 JUMP JUMPDEST PUSH2 0x2A1A DUP2 PUSH2 0x240B JUMP JUMPDEST DUP5 ADD SWAP2 POP POP SWAP3 SWAP2 POP POP JUMP JUMPDEST PUSH2 0x2A2E DUP2 PUSH2 0x2567 JUMP JUMPDEST DUP3 MSTORE POP POP JUMP JUMPDEST PUSH2 0x2A3D DUP2 PUSH2 0x2601 JUMP JUMPDEST DUP3 MSTORE POP POP JUMP JUMPDEST PUSH1 0x0 PUSH1 0x60 DUP4 ADD PUSH1 0x0 DUP4 ADD MLOAD DUP5 DUP3 SUB PUSH1 0x0 DUP7 ADD MSTORE PUSH2 0x2A60 DUP3 DUP3 PUSH2 0x29EC JUMP JUMPDEST SWAP2 POP POP PUSH1 0x20 DUP4 ADD MLOAD PUSH2 0x2A75 PUSH1 0x20 DUP7 ADD DUP3 PUSH2 0x2A25 JUMP JUMPDEST POP PUSH1 0x40 DUP4 ADD MLOAD PUSH2 0x2A88 PUSH1 0x40 DUP7 ADD DUP3 PUSH2 0x2A34 JUMP JUMPDEST POP DUP1 SWAP2 POP POP SWAP3 SWAP2 POP POP JUMP JUMPDEST PUSH1 0x0 PUSH1 0x20 DUP3 ADD SWAP1 POP DUP2 DUP2 SUB PUSH1 0x0 DUP4 ADD MSTORE PUSH2 0x2AAD DUP2 DUP5 PUSH2 0x2A43 JUMP JUMPDEST SWAP1 POP SWAP3 SWAP2 POP POP JUMP JUMPDEST PUSH32 0x4E487B7100000000000000000000000000000000000000000000000000000000 PUSH1 0x0 MSTORE PUSH1 0x32 PUSH1 0x4 MSTORE PUSH1 0x24 PUSH1 0x0 REVERT JUMPDEST PUSH1 0x0 DUP3 DUP3 MSTORE PUSH1 0x20 DUP3 ADD SWAP1 POP SWAP3 SWAP2 POP POP JUMP JUMPDEST PUSH32 0x4F6E6C79207468652070726F636573732063616E206578656375746520746869 PUSH1 0x0 DUP3 ADD MSTORE PUSH32 0x73206F7065726174696F6E000000000000000000000000000000000000000000 PUSH1 0x20 DUP3 ADD MSTORE POP JUMP JUMPDEST PUSH1 0x0 PUSH2 0x2B51 PUSH1 0x2B DUP4 PUSH2 0x2AE4 JUMP JUMPDEST SWAP2 POP PUSH2 0x2B5C DUP3 PUSH2 0x2AF5 JUMP JUMPDEST PUSH1 0x40 DUP3 ADD SWAP1 POP SWAP2 SWAP1 POP JUMP JUMPDEST PUSH1 0x0 PUSH1 0x20 DUP3 ADD SWAP1 POP DUP2 DUP2 SUB PUSH1 0x0 DUP4 ADD MSTORE PUSH2 0x2B80 DUP2 PUSH2 0x2B44 JUMP JUMPDEST SWAP1 POP SWAP2 SWAP1 POP JUMP JUMPDEST PUSH32 0x5468697320636F6E747261637420697320646561637469766174656400000000 PUSH1 0x0 DUP3 ADD MSTORE POP JUMP JUMPDEST PUSH1 0x0 PUSH2 0x2BBD PUSH1 0x1C DUP4 PUSH2 0x2AE4 JUMP JUMPDEST SWAP2 POP PUSH2 0x2BC8 DUP3 PUSH2 0x2B87 JUMP JUMPDEST PUSH1 0x20 DUP3 ADD SWAP1 POP SWAP2 SWAP1 POP JUMP JUMPDEST PUSH1 0x0 PUSH1 0x20 DUP3 ADD SWAP1 POP DUP2 DUP2 SUB PUSH1 0x0 DUP4 ADD MSTORE PUSH2 0x2BEC DUP2 PUSH2 0x2BB0 JUMP JUMPDEST SWAP1 POP SWAP2 SWAP1 POP JUMP JUMPDEST PUSH32 0x4F6E6C79207468652070726F63657373206F7220746865206170706C69636174 PUSH1 0x0 DUP3 ADD MSTORE PUSH32 0x696F6E2063616E20657865637574652074686973206F7065726174696F6E0000 PUSH1 0x20 DUP3 ADD MSTORE POP JUMP JUMPDEST PUSH1 0x0 PUSH2 0x2C4F PUSH1 0x3E DUP4 PUSH2 0x2AE4 JUMP JUMPDEST SWAP2 POP PUSH2 0x2C5A DUP3 PUSH2 0x2BF3 JUMP JUMPDEST PUSH1 0x40 DUP3 ADD SWAP1 POP SWAP2 SWAP1 POP JUMP JUMPDEST PUSH1 0x0 PUSH1 0x20 DUP3 ADD SWAP1 POP DUP2 DUP2 SUB PUSH1 0x0 DUP4 ADD MSTORE PUSH2 0x2C7E DUP2 PUSH2 0x2C42 JUMP JUMPDEST SWAP1 POP SWAP2 SWAP1 POP JUMP JUMPDEST PUSH32 0x4E487B7100000000000000000000000000000000000000000000000000000000 PUSH1 0x0 MSTORE PUSH1 0x22 PUSH1 0x4 MSTORE PUSH1 0x24 PUSH1 0x0 REVERT JUMPDEST PUSH1 0x0 PUSH1 0x2 DUP3 DIV SWAP1 POP PUSH1 0x1 DUP3 AND DUP1 PUSH2 0x2CCC JUMPI PUSH1 0x7F DUP3 AND SWAP2 POP JUMPDEST PUSH1 0x20 DUP3 LT DUP2 SUB PUSH2 0x2CDF JUMPI PUSH2 0x2CDE PUSH2 0x2C85 JUMP JUMPDEST JUMPDEST POP SWAP2 SWAP1 POP JUMP JUMPDEST PUSH32 0x5375636365737366756C20657865637574696F6E210000000000000000000000 PUSH1 0x0 DUP3 ADD MSTORE POP JUMP JUMPDEST PUSH1 0x0 PUSH2 0x2D1B PUSH1 0x15 DUP4 PUSH2 0x2AE4 JUMP JUMPDEST SWAP2 POP PUSH2 0x2D26 DUP3 PUSH2 0x2CE5 JUMP JUMPDEST PUSH1 0x20 DUP3 ADD SWAP1 POP SWAP2 SWAP1 POP JUMP JUMPDEST PUSH1 0x0 PUSH1 0x20 DUP3 ADD SWAP1 POP DUP2 DUP2 SUB PUSH1 0x0 DUP4 ADD MSTORE PUSH2 0x2D4A DUP2 PUSH2 0x2D0E JUMP JUMPDEST SWAP1 POP SWAP2 SWAP1 POP JUMP JUMPDEST PUSH32 0x52657175657374206F7065726174696F6E20706572666F726D6564206F757473 PUSH1 0x0 DUP3 ADD MSTORE PUSH32 0x696465206F6620616C6C6F77656420686F757273206F72206C696D6974206F70 PUSH1 0x20 DUP3 ADD MSTORE PUSH32 0x65726174696F6E20657863656564656400000000000000000000000000000000 PUSH1 0x40 DUP3 ADD MSTORE POP JUMP JUMPDEST PUSH1 0x0 PUSH2 0x2DD3 PUSH1 0x50 DUP4 PUSH2 0x2AE4 JUMP JUMPDEST SWAP2 POP PUSH2 0x2DDE DUP3 PUSH2 0x2D51 JUMP JUMPDEST PUSH1 0x60 DUP3 ADD SWAP1 POP SWAP2 SWAP1 POP JUMP JUMPDEST PUSH1 0x0 PUSH1 0x20 DUP3 ADD SWAP1 POP DUP2 DUP2 SUB PUSH1 0x0 DUP4 ADD MSTORE PUSH2 0x2E02 DUP2 PUSH2 0x2DC6 JUMP JUMPDEST SWAP1 POP SWAP2 SWAP1 POP JUMP JUMPDEST PUSH32 0x4F6E6C7920746865206170706C69636174696F6E2063616E2065786563757465 PUSH1 0x0 DUP3 ADD MSTORE PUSH32 0x2074686973206F7065726174696F6E0000000000000000000000000000000000 PUSH1 0x20 DUP3 ADD MSTORE POP JUMP JUMPDEST PUSH1 0x0 PUSH2 0x2E65 PUSH1 0x2F DUP4 PUSH2 0x2AE4 JUMP JUMPDEST SWAP2 POP PUSH2 0x2E70 DUP3 PUSH2 0x2E09 JUMP JUMPDEST PUSH1 0x40 DUP3 ADD SWAP1 POP SWAP2 SWAP1 POP JUMP JUMPDEST PUSH1 0x0 PUSH1 0x20 DUP3 ADD SWAP1 POP DUP2 DUP2 SUB PUSH1 0x0 DUP4 ADD MSTORE PUSH2 0x2E94 DUP2 PUSH2 0x2E58 JUMP JUMPDEST SWAP1 POP SWAP2 SWAP1 POP JUMP JUMPDEST PUSH32 0x54686520636F6E747261637420697320616C7265616479207369676E65640000 PUSH1 0x0 DUP3 ADD MSTORE POP JUMP JUMPDEST PUSH1 0x0 PUSH2 0x2ED1 PUSH1 0x1E DUP4 PUSH2 0x2AE4 JUMP JUMPDEST SWAP2 POP PUSH2 0x2EDC DUP3 PUSH2 0x2E9B JUMP JUMPDEST PUSH1 0x20 DUP3 ADD SWAP1 POP SWAP2 SWAP1 POP JUMP JUMPDEST PUSH1 0x0 PUSH1 0x20 DUP3 ADD SWAP1 POP DUP2 DUP2 SUB PUSH1 0x0 DUP4 ADD MSTORE PUSH2 0x2F00 DUP2 PUSH2 0x2EC4 JUMP JUMPDEST SWAP1 POP SWAP2 SWAP1 POP JUMP JUMPDEST PUSH32 0x546865205F7374617274446179206E6F7420726570726573656E747320612076 PUSH1 0x0 DUP3 ADD MSTORE PUSH32 0x616C696420646179000000000000000000000000000000000000000000000000 PUSH1 0x20 DUP3 ADD MSTORE POP JUMP JUMPDEST PUSH1 0x0 PUSH2 0x2F63 PUSH1 0x28 DUP4 PUSH2 0x2AE4 JUMP JUMPDEST SWAP2 POP PUSH2 0x2F6E DUP3 PUSH2 0x2F07 JUMP JUMPDEST PUSH1 0x40 DUP3 ADD SWAP1 POP SWAP2 SWAP1 POP JUMP JUMPDEST PUSH1 0x0 PUSH1 0x20 DUP3 ADD SWAP1 POP DUP2 DUP2 SUB PUSH1 0x0 DUP4 ADD MSTORE PUSH2 0x2F92 DUP2 PUSH2 0x2F56 JUMP JUMPDEST SWAP1 POP SWAP2 SWAP1 POP JUMP JUMPDEST PUSH32 0x546865205F656E64446179206E6F7420726570726573656E747320612076616C PUSH1 0x0 DUP3 ADD MSTORE PUSH32 0x6964206461790000000000000000000000000000000000000000000000000000 PUSH1 0x20 DUP3 ADD MSTORE POP JUMP JUMPDEST PUSH1 0x0 PUSH2 0x2FF5 PUSH1 0x26 DUP4 PUSH2 0x2AE4 JUMP JUMPDEST SWAP2 POP PUSH2 0x3000 DUP3 PUSH2 0x2F99 JUMP JUMPDEST PUSH1 0x40 DUP3 ADD SWAP1 POP SWAP2 SWAP1 POP JUMP JUMPDEST PUSH1 0x0 PUSH1 0x20 DUP3 ADD SWAP1 POP DUP2 DUP2 SUB PUSH1 0x0 DUP4 ADD MSTORE PUSH2 0x3024 DUP2 PUSH2 0x2FE8 JUMP JUMPDEST SWAP1 POP SWAP2 SWAP1 POP JUMP JUMPDEST PUSH32 0x4E487B7100000000000000000000000000000000000000000000000000000000 PUSH1 0x0 MSTORE PUSH1 0x11 PUSH1 0x4 MSTORE PUSH1 0x24 PUSH1 0x0 REVERT JUMPDEST PUSH1 0x0 PUSH2 0x3065 DUP3 PUSH2 0x27F0 JUMP JUMPDEST SWAP2 POP PUSH2 0x3070 DUP4 PUSH2 0x27F0 JUMP JUMPDEST SWAP3 POP DUP3 DUP3 LT ISZERO PUSH2 0x3083 JUMPI PUSH2 0x3082 PUSH2 0x302B JUMP JUMPDEST JUMPDEST DUP3 DUP3 SUB SWAP1 POP SWAP3 SWAP2 POP POP JUMP JUMPDEST PUSH1 0x0 PUSH2 0x3099 DUP3 PUSH2 0x23B3 JUMP JUMPDEST SWAP2 POP PUSH2 0x30A4 DUP4 PUSH2 0x23B3 JUMP JUMPDEST SWAP3 POP DUP3 DUP3 LT ISZERO PUSH2 0x30B7 JUMPI PUSH2 0x30B6 PUSH2 0x302B JUMP JUMPDEST JUMPDEST DUP3 DUP3 SUB SWAP1 POP SWAP3 SWAP2 POP POP JUMP JUMPDEST PUSH32 0x436F6D70617269736F6E2073796D626F6C206973206E6F742076616C69640000 PUSH1 0x0 DUP3 ADD MSTORE POP JUMP JUMPDEST PUSH1 0x0 PUSH2 0x30F8 PUSH1 0x1E DUP4 PUSH2 0x2AE4 JUMP JUMPDEST SWAP2 POP PUSH2 0x3103 DUP3 PUSH2 0x30C2 JUMP JUMPDEST PUSH1 0x20 DUP3 ADD SWAP1 POP SWAP2 SWAP1 POP JUMP JUMPDEST PUSH1 0x0 PUSH1 0x20 DUP3 ADD SWAP1 POP DUP2 DUP2 SUB PUSH1 0x0 DUP4 ADD MSTORE PUSH2 0x3127 DUP2 PUSH2 0x30EB JUMP JUMPDEST SWAP1 POP SWAP2 SWAP1 POP JUMP JUMPDEST PUSH32 0x54686520726573756C74206F66207468652078706174682073686F756C642062 PUSH1 0x0 DUP3 ADD MSTORE PUSH32 0x65206D6F7265207468616E203000000000000000000000000000000000000000 PUSH1 0x20 DUP3 ADD MSTORE POP JUMP JUMPDEST PUSH1 0x0 PUSH2 0x318A PUSH1 0x2D DUP4 PUSH2 0x2AE4 JUMP JUMPDEST SWAP2 POP PUSH2 0x3195 DUP3 PUSH2 0x312E JUMP JUMPDEST PUSH1 0x40 DUP3 ADD SWAP1 POP SWAP2 SWAP1 POP JUMP JUMPDEST PUSH1 0x0 PUSH1 0x20 DUP3 ADD SWAP1 POP DUP2 DUP2 SUB PUSH1 0x0 DUP4 ADD MSTORE PUSH2 0x31B9 DUP2 PUSH2 0x317D JUMP JUMPDEST SWAP1 POP SWAP2 SWAP1 POP JUMP JUMPDEST PUSH1 0x0 DUP2 SWAP1 POP SWAP3 SWAP2 POP POP JUMP JUMPDEST PUSH32 0x596F752068617665206F6E6C7920000000000000000000000000000000000000 PUSH1 0x0 DUP3 ADD MSTORE POP JUMP JUMPDEST PUSH1 0x0 PUSH2 0x3201 PUSH1 0xE DUP4 PUSH2 0x31C0 JUMP JUMPDEST SWAP2 POP PUSH2 0x320C DUP3 PUSH2 0x31CB JUMP JUMPDEST PUSH1 0xE DUP3 ADD SWAP1 POP SWAP2 SWAP1 POP JUMP JUMPDEST PUSH1 0x0 PUSH2 0x3222 DUP3 PUSH2 0x299D JUMP JUMPDEST PUSH2 0x322C DUP2 DUP6 PUSH2 0x31C0 JUMP JUMPDEST SWAP4 POP PUSH2 0x323C DUP2 DUP6 PUSH1 0x20 DUP7 ADD PUSH2 0x29B9 JUMP JUMPDEST DUP1 DUP5 ADD SWAP2 POP POP SWAP3 SWAP2 POP POP JUMP JUMPDEST PUSH32 0x2066726F6D200000000000000000000000000000000000000000000000000000 PUSH1 0x0 DUP3 ADD MSTORE POP JUMP JUMPDEST PUSH1 0x0 PUSH2 0x327E PUSH1 0x6 DUP4 PUSH2 0x31C0 JUMP JUMPDEST SWAP2 POP PUSH2 0x3289 DUP3 PUSH2 0x3248 JUMP JUMPDEST PUSH1 0x6 DUP3 ADD SWAP1 POP SWAP2 SWAP1 POP JUMP JUMPDEST PUSH32 0x2072657374696E672C20616E6420746865206D65737361676520636F6E746574 PUSH1 0x0 DUP3 ADD MSTORE PUSH32 0x20787061746820726573756C7420697320000000000000000000000000000000 PUSH1 0x20 DUP3 ADD MSTORE POP JUMP JUMPDEST PUSH1 0x0 PUSH2 0x32F0 PUSH1 0x31 DUP4 PUSH2 0x31C0 JUMP JUMPDEST SWAP2 POP PUSH2 0x32FB DUP3 PUSH2 0x3294 JUMP JUMPDEST PUSH1 0x31 DUP3 ADD SWAP1 POP SWAP2 SWAP1 POP JUMP JUMPDEST PUSH1 0x0 PUSH2 0x3311 DUP3 PUSH2 0x31F4 JUMP JUMPDEST SWAP2 POP PUSH2 0x331D DUP3 DUP7 PUSH2 0x3217 JUMP JUMPDEST SWAP2 POP PUSH2 0x3328 DUP3 PUSH2 0x3271 JUMP JUMPDEST SWAP2 POP PUSH2 0x3334 DUP3 DUP6 PUSH2 0x3217 JUMP JUMPDEST SWAP2 POP PUSH2 0x333F DUP3 PUSH2 0x32E3 JUMP JUMPDEST SWAP2 POP PUSH2 0x334B DUP3 DUP5 PUSH2 0x3217 JUMP JUMPDEST SWAP2 POP DUP2 SWAP1 POP SWAP5 SWAP4 POP POP POP POP JUMP JUMPDEST PUSH1 0x0 PUSH2 0x3363 DUP3 PUSH2 0x299D JUMP JUMPDEST PUSH2 0x336D DUP2 DUP6 PUSH2 0x2AE4 JUMP JUMPDEST SWAP4 POP PUSH2 0x337D DUP2 DUP6 PUSH1 0x20 DUP7 ADD PUSH2 0x29B9 JUMP JUMPDEST PUSH2 0x3386 DUP2 PUSH2 0x240B JUMP JUMPDEST DUP5 ADD SWAP2 POP POP SWAP3 SWAP2 POP POP JUMP JUMPDEST PUSH1 0x0 PUSH1 0x20 DUP3 ADD SWAP1 POP DUP2 DUP2 SUB PUSH1 0x0 DUP4 ADD MSTORE PUSH2 0x33AB DUP2 DUP5 PUSH2 0x3358 JUMP JUMPDEST SWAP1 POP SWAP3 SWAP2 POP POP JUMP JUMPDEST PUSH32 0x546865206D6574686F642067657454696D65496E5365636F6E647320646F6573 PUSH1 0x0 DUP3 ADD MSTORE PUSH32 0x6E277420776F726B20666F72204D4F4E544820616E6420594541520000000000 PUSH1 0x20 DUP3 ADD MSTORE POP JUMP JUMPDEST PUSH1 0x0 PUSH2 0x340F PUSH1 0x3B DUP4 PUSH2 0x2AE4 JUMP JUMPDEST SWAP2 POP PUSH2 0x341A DUP3 PUSH2 0x33B3 JUMP JUMPDEST PUSH1 0x40 DUP3 ADD SWAP1 POP SWAP2 SWAP1 POP JUMP JUMPDEST PUSH1 0x0 PUSH1 0x20 DUP3 ADD SWAP1 POP DUP2 DUP2 SUB PUSH1 0x0 DUP4 ADD MSTORE PUSH2 0x343E DUP2 PUSH2 0x3402 JUMP JUMPDEST SWAP1 POP SWAP2 SWAP1 POP JUMP JUMPDEST PUSH1 0x0 PUSH2 0x3450 DUP3 PUSH2 0x27F0 JUMP JUMPDEST SWAP2 POP PUSH2 0x345B DUP4 PUSH2 0x27F0 JUMP JUMPDEST SWAP3 POP DUP3 PUSH32 0xFFFFFFFFFFFFFFFFFFFFFFFFFFFFFFFFFFFFFFFFFFFFFFFFFFFFFFFFFFFFFFFF SUB DUP3 GT ISZERO PUSH2 0x3490 JUMPI PUSH2 0x348F PUSH2 0x302B JUMP JUMPDEST JUMPDEST DUP3 DUP3 ADD SWAP1 POP SWAP3 SWAP2 POP POP JUMP JUMPDEST PUSH1 0x0 PUSH2 0x34A6 DUP3 PUSH2 0x27F0 JUMP JUMPDEST SWAP2 POP PUSH32 0xFFFFFFFFFFFFFFFFFFFFFFFFFFFFFFFFFFFFFFFFFFFFFFFFFFFFFFFFFFFFFFFF DUP3 SUB PUSH2 0x34D8 JUMPI PUSH2 0x34D7 PUSH2 0x302B JUMP JUMPDEST JUMPDEST PUSH1 0x1 DUP3 ADD SWAP1 POP SWAP2 SWAP1 POP JUMP JUMPDEST PUSH32 0x4E487B7100000000000000000000000000000000000000000000000000000000 PUSH1 0x0 MSTORE PUSH1 0x12 PUSH1 0x4 MSTORE PUSH1 0x24 PUSH1 0x0 REVERT JUMPDEST PUSH1 0x0 PUSH2 0x351D DUP3 PUSH2 0x27F0 JUMP JUMPDEST SWAP2 POP PUSH2 0x3528 DUP4 PUSH2 0x27F0 JUMP JUMPDEST SWAP3 POP DUP3 PUSH2 0x3538 JUMPI PUSH2 0x3537 PUSH2 0x34E3 JUMP JUMPDEST JUMPDEST DUP3 DUP3 DIV SWAP1 POP SWAP3 SWAP2 POP POP JUMP JUMPDEST PUSH1 0x0 PUSH2 0x354E DUP3 PUSH2 0x27F0 JUMP JUMPDEST SWAP2 POP PUSH2 0x3559 DUP4 PUSH2 0x27F0 JUMP JUMPDEST SWAP3 POP DUP3 PUSH2 0x3569 JUMPI PUSH2 0x3568 PUSH2 0x34E3 JUMP JUMPDEST JUMPDEST DUP3 DUP3 MOD SWAP1 POP SWAP3 SWAP2 POP POP JUMP JUMPDEST PUSH1 0x0 PUSH2 0x357F DUP3 PUSH2 0x23B3 JUMP JUMPDEST SWAP2 POP PUSH2 0x358A DUP4 PUSH2 0x23B3 JUMP JUMPDEST SWAP3 POP DUP3 PUSH4 0xFFFFFFFF SUB DUP3 GT ISZERO PUSH2 0x35A3 JUMPI PUSH2 0x35A2 PUSH2 0x302B JUMP JUMPDEST JUMPDEST DUP3 DUP3 ADD SWAP1 POP SWAP3 SWAP2 POP POP JUMP JUMPDEST PUSH1 0x0 PUSH2 0x35B9 DUP3 PUSH2 0x23B3 JUMP JUMPDEST SWAP2 POP PUSH2 0x35C4 DUP4 PUSH2 0x23B3 JUMP JUMPDEST SWAP3 POP DUP2 PUSH4 0xFFFFFFFF DIV DUP4 GT DUP3 ISZERO ISZERO AND ISZERO PUSH2 0x35E1 JUMPI PUSH2 0x35E0 PUSH2 0x302B JUMP JUMPDEST JUMPDEST DUP3 DUP3 MUL SWAP1 POP SWAP3 SWAP2 POP POP JUMP JUMPDEST PUSH1 0x0 PUSH2 0x35F7 DUP3 PUSH2 0x23B3 JUMP JUMPDEST SWAP2 POP PUSH2 0x3602 DUP4 PUSH2 0x23B3 JUMP JUMPDEST SWAP3 POP DUP3 PUSH2 0x3612 JUMPI PUSH2 0x3611 PUSH2 0x34E3 JUMP JUMPDEST JUMPDEST DUP3 DUP3 DIV SWAP1 POP SWAP3 SWAP2 POP POP JUMP JUMPDEST PUSH1 0x0 PUSH2 0x3628 DUP3 PUSH2 0x23B3 JUMP JUMPDEST SWAP2 POP PUSH2 0x3633 DUP4 PUSH2 0x23B3 JUMP JUMPDEST SWAP3 POP DUP3 PUSH2 0x3643 JUMPI PUSH2 0x3642 PUSH2 0x34E3 JUMP JUMPDEST JUMPDEST DUP3 DUP3 MOD SWAP1 POP SWAP3 SWAP2 POP POP JUMP INVALID LOG2 PUSH5 0x6970667358 0x22 SLT KECCAK256 PC CALLDATACOPY BALANCE JUMPDEST NUMBER 0x26 POP SHL 0xB5 0xC7 0xD6 0xB3 PUSH20 0xC7CA84F4270F777E79F374596B46B26FA9A10364 PUSH20 0x6F6C634300080D0033636F756E74282F2F626F64 PUSH26 0x2F7065726F736F6E616C496E666F726D6174696F6E2F61646472 PUSH6 0x73732F636570 0x29 "
				},
				"gasEstimates": {
					"creation": {
						"codeDepositCost": "2791200",
						"executionCost": "infinite",
						"totalCost": "infinite"
					},
					"external": {
						"changeApplicationParty(string,address)": "infinite",
						"getApplicationAddress()": "9083",
						"getParty(address)": "infinite",
						"getProcessAddress()": "9038",
						"onlyForTest_decreaseOperation()": "infinite",
						"right_requestDelivery(uint32,uint8,uint32,int256[],uint256[])": "infinite",
						"signContract()": "infinite"
					},
					"internal": {
						"updateMapParty(address,struct EAI.Party storage pointer)": "infinite"
					}
				},
				"methodIdentifiers": {
					"changeApplicationParty(string,address)": "5e744c6a",
					"getApplicationAddress()": "70d8915a",
					"getParty(address)": "fb6f8243",
					"getProcessAddress()": "85931911",
					"onlyForTest_decreaseOperation()": "5d76e17a",
					"right_requestDelivery(uint32,uint8,uint32,int256[],uint256[])": "95d3bcdf",
					"signContract()": "b8b4f1a0"
				}
			},
			"storageLayout": {
				"storage": [
					{
						"astId": 2009,
						"contract": "contracts/study-case-contracts/001-delivery-hiring/DeliveryHiring_R.sol:DeliveryHiring_R",
						"label": "activated",
						"offset": 0,
						"slot": "0",
						"type": "t_bool"
					},
					{
						"astId": 2011,
						"contract": "contracts/study-case-contracts/001-delivery-hiring/DeliveryHiring_R.sol:DeliveryHiring_R",
						"label": "beginDate",
						"offset": 1,
						"slot": "0",
						"type": "t_uint32"
					},
					{
						"astId": 2013,
						"contract": "contracts/study-case-contracts/001-delivery-hiring/DeliveryHiring_R.sol:DeliveryHiring_R",
						"label": "dueDate",
						"offset": 5,
						"slot": "0",
						"type": "t_uint32"
					},
					{
						"astId": 2020,
						"contract": "contracts/study-case-contracts/001-delivery-hiring/DeliveryHiring_R.sol:DeliveryHiring_R",
						"label": "application",
						"offset": 0,
						"slot": "1",
						"type": "t_struct(Party)69_storage"
					},
					{
						"astId": 2023,
						"contract": "contracts/study-case-contracts/001-delivery-hiring/DeliveryHiring_R.sol:DeliveryHiring_R",
						"label": "process",
						"offset": 0,
						"slot": "3",
						"type": "t_struct(Party)69_storage"
					},
					{
						"astId": 2028,
						"contract": "contracts/study-case-contracts/001-delivery-hiring/DeliveryHiring_R.sol:DeliveryHiring_R",
						"label": "mapParty",
						"offset": 0,
						"slot": "5",
						"type": "t_mapping(t_address,t_struct(Party)69_storage)"
					},
					{
						"astId": 2059,
						"contract": "contracts/study-case-contracts/001-delivery-hiring/DeliveryHiring_R.sol:DeliveryHiring_R",
						"label": "numberOfAddresses",
						"offset": 0,
						"slot": "6",
						"type": "t_string_storage"
					},
					{
						"astId": 2063,
						"contract": "contracts/study-case-contracts/001-delivery-hiring/DeliveryHiring_R.sol:DeliveryHiring_R",
						"label": "weekDaysInterval_C1",
						"offset": 0,
						"slot": "7",
						"type": "t_array(t_struct(WeekDaysInterval)154_storage)dyn_storage"
					},
					{
						"astId": 2067,
						"contract": "contracts/study-case-contracts/001-delivery-hiring/DeliveryHiring_R.sol:DeliveryHiring_R",
						"label": "timeInterval_C1",
						"offset": 0,
						"slot": "8",
						"type": "t_array(t_struct(TimeInterval)376_storage)dyn_storage"
					},
					{
						"astId": 2071,
						"contract": "contracts/study-case-contracts/001-delivery-hiring/DeliveryHiring_R.sol:DeliveryHiring_R",
						"label": "maxNumberOfOperationByTime_C1",
						"offset": 0,
						"slot": "9",
						"type": "t_array(t_struct(MaxNumberOfOperationByTime)772_storage)dyn_storage"
					},
					{
						"astId": 2075,
						"contract": "contracts/study-case-contracts/001-delivery-hiring/DeliveryHiring_R.sol:DeliveryHiring_R",
						"label": "msgContent_number_C1",
						"offset": 0,
						"slot": "10",
						"type": "t_array(t_struct(MessageContent_Number)1030_storage)dyn_storage"
					},
					{
						"astId": 2079,
						"contract": "contracts/study-case-contracts/001-delivery-hiring/DeliveryHiring_R.sol:DeliveryHiring_R",
						"label": "msgContent_numberPerTime_C1",
						"offset": 0,
						"slot": "11",
						"type": "t_array(t_struct(MessageContent_NumberPerTime)1162_storage)dyn_storage"
					}
				],
				"types": {
					"t_address": {
						"encoding": "inplace",
						"label": "address",
						"numberOfBytes": "20"
					},
					"t_array(t_struct(MaxNumberOfOperationByTime)772_storage)dyn_storage": {
						"base": "t_struct(MaxNumberOfOperationByTime)772_storage",
						"encoding": "dynamic_array",
						"label": "struct EAI.MaxNumberOfOperationByTime[]",
						"numberOfBytes": "32"
					},
					"t_array(t_struct(MessageContent_Number)1030_storage)dyn_storage": {
						"base": "t_struct(MessageContent_Number)1030_storage",
						"encoding": "dynamic_array",
						"label": "struct EAI.MessageContent_Number[]",
						"numberOfBytes": "32"
					},
					"t_array(t_struct(MessageContent_NumberPerTime)1162_storage)dyn_storage": {
						"base": "t_struct(MessageContent_NumberPerTime)1162_storage",
						"encoding": "dynamic_array",
						"label": "struct EAI.MessageContent_NumberPerTime[]",
						"numberOfBytes": "32"
					},
					"t_array(t_struct(TimeInterval)376_storage)dyn_storage": {
						"base": "t_struct(TimeInterval)376_storage",
						"encoding": "dynamic_array",
						"label": "struct EAI.TimeInterval[]",
						"numberOfBytes": "32"
					},
					"t_array(t_struct(WeekDaysInterval)154_storage)dyn_storage": {
						"base": "t_struct(WeekDaysInterval)154_storage",
						"encoding": "dynamic_array",
						"label": "struct EAI.WeekDaysInterval[]",
						"numberOfBytes": "32"
					},
					"t_bool": {
						"encoding": "inplace",
						"label": "bool",
						"numberOfBytes": "1"
					},
					"t_int256": {
						"encoding": "inplace",
						"label": "int256",
						"numberOfBytes": "32"
					},
					"t_mapping(t_address,t_struct(Party)69_storage)": {
						"encoding": "mapping",
						"key": "t_address",
						"label": "mapping(address => struct EAI.Party)",
						"numberOfBytes": "32",
						"value": "t_struct(Party)69_storage"
					},
					"t_string_storage": {
						"encoding": "bytes",
						"label": "string",
						"numberOfBytes": "32"
					},
					"t_struct(MaxNumberOfOperationByTime)772_storage": {
						"encoding": "inplace",
						"label": "struct EAI.MaxNumberOfOperationByTime",
						"members": [
							{
								"astId": 763,
								"contract": "contracts/study-case-contracts/001-delivery-hiring/DeliveryHiring_R.sol:DeliveryHiring_R",
								"label": "amount",
								"offset": 0,
								"slot": "0",
								"type": "t_uint32"
							},
							{
								"astId": 765,
								"contract": "contracts/study-case-contracts/001-delivery-hiring/DeliveryHiring_R.sol:DeliveryHiring_R",
								"label": "timeUnit",
								"offset": 4,
								"slot": "0",
								"type": "t_uint8"
							},
							{
								"astId": 767,
								"contract": "contracts/study-case-contracts/001-delivery-hiring/DeliveryHiring_R.sol:DeliveryHiring_R",
								"label": "byTime",
								"offset": 5,
								"slot": "0",
								"type": "t_uint32"
							},
							{
								"astId": 769,
								"contract": "contracts/study-case-contracts/001-delivery-hiring/DeliveryHiring_R.sol:DeliveryHiring_R",
								"label": "rest",
								"offset": 9,
								"slot": "0",
								"type": "t_uint32"
							},
							{
								"astId": 771,
								"contract": "contracts/study-case-contracts/001-delivery-hiring/DeliveryHiring_R.sol:DeliveryHiring_R",
								"label": "endTime",
								"offset": 13,
								"slot": "0",
								"type": "t_uint32"
							}
						],
						"numberOfBytes": "32"
					},
					"t_struct(MessageContent_Number)1030_storage": {
						"encoding": "inplace",
						"label": "struct EAI.MessageContent_Number",
						"members": [
							{
								"astId": 1025,
								"contract": "contracts/study-case-contracts/001-delivery-hiring/DeliveryHiring_R.sol:DeliveryHiring_R",
								"label": "xpath",
								"offset": 0,
								"slot": "0",
								"type": "t_string_storage"
							},
							{
								"astId": 1027,
								"contract": "contracts/study-case-contracts/001-delivery-hiring/DeliveryHiring_R.sol:DeliveryHiring_R",
								"label": "op",
								"offset": 0,
								"slot": "1",
								"type": "t_string_storage"
							},
							{
								"astId": 1029,
								"contract": "contracts/study-case-contracts/001-delivery-hiring/DeliveryHiring_R.sol:DeliveryHiring_R",
								"label": "content",
								"offset": 0,
								"slot": "2",
								"type": "t_int256"
							}
						],
						"numberOfBytes": "96"
					},
					"t_struct(MessageContent_NumberPerTime)1162_storage": {
						"encoding": "inplace",
						"label": "struct EAI.MessageContent_NumberPerTime",
						"members": [
							{
								"astId": 1149,
								"contract": "contracts/study-case-contracts/001-delivery-hiring/DeliveryHiring_R.sol:DeliveryHiring_R",
								"label": "xpath",
								"offset": 0,
								"slot": "0",
								"type": "t_string_storage"
							},
							{
								"astId": 1151,
								"contract": "contracts/study-case-contracts/001-delivery-hiring/DeliveryHiring_R.sol:DeliveryHiring_R",
								"label": "op",
								"offset": 0,
								"slot": "1",
								"type": "t_string_storage"
							},
							{
								"astId": 1153,
								"contract": "contracts/study-case-contracts/001-delivery-hiring/DeliveryHiring_R.sol:DeliveryHiring_R",
								"label": "amount",
								"offset": 0,
								"slot": "2",
								"type": "t_uint256"
							},
							{
								"astId": 1155,
								"contract": "contracts/study-case-contracts/001-delivery-hiring/DeliveryHiring_R.sol:DeliveryHiring_R",
								"label": "timeUnit",
								"offset": 0,
								"slot": "3",
								"type": "t_uint8"
							},
							{
								"astId": 1157,
								"contract": "contracts/study-case-contracts/001-delivery-hiring/DeliveryHiring_R.sol:DeliveryHiring_R",
								"label": "byTime",
								"offset": 1,
								"slot": "3",
								"type": "t_uint32"
							},
							{
								"astId": 1159,
								"contract": "contracts/study-case-contracts/001-delivery-hiring/DeliveryHiring_R.sol:DeliveryHiring_R",
								"label": "rest",
								"offset": 0,
								"slot": "4",
								"type": "t_uint256"
							},
							{
								"astId": 1161,
								"contract": "contracts/study-case-contracts/001-delivery-hiring/DeliveryHiring_R.sol:DeliveryHiring_R",
								"label": "endTime",
								"offset": 0,
								"slot": "5",
								"type": "t_uint32"
							}
						],
						"numberOfBytes": "192"
					},
					"t_struct(Party)69_storage": {
						"encoding": "inplace",
						"label": "struct EAI.Party",
						"members": [
							{
								"astId": 64,
								"contract": "contracts/study-case-contracts/001-delivery-hiring/DeliveryHiring_R.sol:DeliveryHiring_R",
								"label": "name",
								"offset": 0,
								"slot": "0",
								"type": "t_string_storage"
							},
							{
								"astId": 66,
								"contract": "contracts/study-case-contracts/001-delivery-hiring/DeliveryHiring_R.sol:DeliveryHiring_R",
								"label": "walletAddress",
								"offset": 0,
								"slot": "1",
								"type": "t_address"
							},
							{
								"astId": 68,
								"contract": "contracts/study-case-contracts/001-delivery-hiring/DeliveryHiring_R.sol:DeliveryHiring_R",
								"label": "aware",
								"offset": 20,
								"slot": "1",
								"type": "t_bool"
							}
						],
						"numberOfBytes": "64"
					},
					"t_struct(TimeInterval)376_storage": {
						"encoding": "inplace",
						"label": "struct EAI.TimeInterval",
						"members": [
							{
								"astId": 373,
								"contract": "contracts/study-case-contracts/001-delivery-hiring/DeliveryHiring_R.sol:DeliveryHiring_R",
								"label": "start",
								"offset": 0,
								"slot": "0",
								"type": "t_uint32"
							},
							{
								"astId": 375,
								"contract": "contracts/study-case-contracts/001-delivery-hiring/DeliveryHiring_R.sol:DeliveryHiring_R",
								"label": "end",
								"offset": 4,
								"slot": "0",
								"type": "t_uint32"
							}
						],
						"numberOfBytes": "32"
					},
					"t_struct(WeekDaysInterval)154_storage": {
						"encoding": "inplace",
						"label": "struct EAI.WeekDaysInterval",
						"members": [
							{
								"astId": 151,
								"contract": "contracts/study-case-contracts/001-delivery-hiring/DeliveryHiring_R.sol:DeliveryHiring_R",
								"label": "start",
								"offset": 0,
								"slot": "0",
								"type": "t_uint8"
							},
							{
								"astId": 153,
								"contract": "contracts/study-case-contracts/001-delivery-hiring/DeliveryHiring_R.sol:DeliveryHiring_R",
								"label": "end",
								"offset": 1,
								"slot": "0",
								"type": "t_uint8"
							}
						],
						"numberOfBytes": "32"
					},
					"t_uint256": {
						"encoding": "inplace",
						"label": "uint256",
						"numberOfBytes": "32"
					},
					"t_uint32": {
						"encoding": "inplace",
						"label": "uint32",
						"numberOfBytes": "4"
					},
					"t_uint8": {
						"encoding": "inplace",
						"label": "uint8",
						"numberOfBytes": "1"
					}
				}
			},
			"userdoc": {
				"kind": "user",
				"methods": {},
				"version": 1
			}
		}
	}
}