{
	"contracts/study-case-contracts/001-delivery-hiring/DeliveryHiring_O.sol": {
		"DeliveryHiring_O": {
			"abi": [
				{
					"inputs": [
						{
							"internalType": "address",
							"name": "_applicationWallet",
							"type": "address"
						}
					],
					"stateMutability": "nonpayable",
					"type": "constructor"
				},
				{
					"anonymous": false,
					"inputs": [
						{
							"indexed": false,
							"internalType": "string",
							"name": "_logMessage",
							"type": "string"
						}
					],
					"name": "failEvent",
					"type": "event"
				},
				{
					"anonymous": false,
					"inputs": [
						{
							"indexed": false,
							"internalType": "string",
							"name": "_logMessage",
							"type": "string"
						}
					],
					"name": "successEvent",
					"type": "event"
				},
				{
					"inputs": [],
					"name": "activateContract",
					"outputs": [],
					"stateMutability": "nonpayable",
					"type": "function"
				},
				{
					"inputs": [
						{
							"internalType": "string",
							"name": "_name",
							"type": "string"
						},
						{
							"internalType": "address",
							"name": "_walletAddress",
							"type": "address"
						}
					],
					"name": "changeApplicationParty",
					"outputs": [
						{
							"internalType": "bool",
							"name": "",
							"type": "bool"
						}
					],
					"stateMutability": "nonpayable",
					"type": "function"
				},
				{
					"inputs": [],
					"name": "deactivateContract",
					"outputs": [],
					"stateMutability": "nonpayable",
					"type": "function"
				},
				{
					"inputs": [],
					"name": "getApplicationAddress",
					"outputs": [
						{
							"internalType": "address",
							"name": "",
							"type": "address"
						}
					],
					"stateMutability": "view",
					"type": "function"
				},
				{
					"inputs": [
						{
							"internalType": "address",
							"name": "_walletAddress",
							"type": "address"
						}
					],
					"name": "getParty",
					"outputs": [
						{
							"components": [
								{
									"internalType": "string",
									"name": "name",
									"type": "string"
								},
								{
									"internalType": "address",
									"name": "walletAddress",
									"type": "address"
								},
								{
									"internalType": "bool",
									"name": "aware",
									"type": "bool"
								}
							],
							"internalType": "struct EAI.Party",
							"name": "",
							"type": "tuple"
						}
					],
					"stateMutability": "view",
					"type": "function"
				},
				{
					"inputs": [],
					"name": "getProcessAddress",
					"outputs": [
						{
							"internalType": "address",
							"name": "",
							"type": "address"
						}
					],
					"stateMutability": "view",
					"type": "function"
				},
				{
					"inputs": [
						{
							"internalType": "uint32",
							"name": "_accessDateTime",
							"type": "uint32"
						}
					],
					"name": "onlyForTest",
					"outputs": [],
					"stateMutability": "nonpayable",
					"type": "function"
				},
				{
					"inputs": [
						{
							"internalType": "uint32",
							"name": "_accessDateTime",
							"type": "uint32"
						},
						{
							"internalType": "int256[]",
							"name": "_xPathContent",
							"type": "int256[]"
						}
					],
					"name": "responderOrder",
					"outputs": [
						{
							"internalType": "bool",
							"name": "",
							"type": "bool"
						}
					],
					"stateMutability": "nonpayable",
					"type": "function"
				},
				{
					"inputs": [],
					"name": "signContract",
					"outputs": [
						{
							"internalType": "bool",
							"name": "",
							"type": "bool"
						}
					],
					"stateMutability": "nonpayable",
					"type": "function"
				}
			],
			"devdoc": {
				"kind": "dev",
				"methods": {},
				"version": 1
			},
			"evm": {
				"assembly": "    /* \"contracts/study-case-contracts/001-delivery-hiring/DeliveryHiring_O.sol\":190:6076  contract DeliveryHiring_O {... */\n  mstore(0x40, 0x80)\n    /* \"contracts/study-case-contracts/001-delivery-hiring/DeliveryHiring_O.sol\":1553:2312  constructor(address _applicationWallet){... */\n  callvalue\n  dup1\n  iszero\n  tag_1\n  jumpi\n  0x00\n  dup1\n  revert\ntag_1:\n  pop\n  mload(0x40)\n  sub(codesize, bytecodeSize)\n  dup1\n  bytecodeSize\n  dup4\n  codecopy\n  dup2\n  dup2\n  add\n  0x40\n  mstore\n  dup2\n  add\n  swap1\n  tag_2\n  swap2\n  swap1\n  tag_3\n  jump\t// in\ntag_2:\n    /* \"contracts/study-case-contracts/001-delivery-hiring/DeliveryHiring_O.sol\":1608:1612  true */\n  0x01\n    /* \"contracts/study-case-contracts/001-delivery-hiring/DeliveryHiring_O.sol\":1598:1607  activated */\n  0x00\n  dup1\n    /* \"contracts/study-case-contracts/001-delivery-hiring/DeliveryHiring_O.sol\":1598:1612  activated=true */\n  0x0100\n  exp\n  dup2\n  sload\n  dup2\n  0xff\n  mul\n  not\n  and\n  swap1\n  dup4\n  iszero\n  iszero\n  mul\n  or\n  swap1\n  sstore\n  pop\n    /* \"contracts/study-case-contracts/001-delivery-hiring/DeliveryHiring_O.sol\":1684:1694  1672561800 */\n  0x63b14488\n    /* \"contracts/study-case-contracts/001-delivery-hiring/DeliveryHiring_O.sol\":1672:1681  beginDate */\n  0x00\n  0x01\n    /* \"contracts/study-case-contracts/001-delivery-hiring/DeliveryHiring_O.sol\":1672:1694  beginDate = 1672561800 */\n  0x0100\n  exp\n  dup2\n  sload\n  dup2\n  0xffffffff\n  mul\n  not\n  and\n  swap1\n  dup4\n  0xffffffff\n  and\n  mul\n  or\n  swap1\n  sstore\n  pop\n    /* \"contracts/study-case-contracts/001-delivery-hiring/DeliveryHiring_O.sol\":1712:1722  1704097800 */\n  0x65927808\n    /* \"contracts/study-case-contracts/001-delivery-hiring/DeliveryHiring_O.sol\":1702:1709  dueDate */\n  0x00\n  0x05\n    /* \"contracts/study-case-contracts/001-delivery-hiring/DeliveryHiring_O.sol\":1702:1722  dueDate = 1704097800 */\n  0x0100\n  exp\n  dup2\n  sload\n  dup2\n  0xffffffff\n  mul\n  not\n  and\n  swap1\n  dup4\n  0xffffffff\n  and\n  mul\n  or\n  swap1\n  sstore\n  pop\n    /* \"contracts/study-case-contracts/001-delivery-hiring/DeliveryHiring_O.sol\":1815:1876  EAI.createParty(\"Delivery System\", _applicationWallet, false) */\n  tag_6\n  mload(0x40)\n  dup1\n  0x40\n  add\n  0x40\n  mstore\n  dup1\n  0x0f\n  dup2\n  mstore\n  0x20\n  add\n  0x44656c69766572792053797374656d0000000000000000000000000000000000\n  dup2\n  mstore\n  pop\n    /* \"contracts/study-case-contracts/001-delivery-hiring/DeliveryHiring_O.sol\":1850:1868  _applicationWallet */\n  dup3\n    /* \"contracts/study-case-contracts/001-delivery-hiring/DeliveryHiring_O.sol\":1870:1875  false */\n  0x00\n    /* \"contracts/study-case-contracts/001-delivery-hiring/DeliveryHiring_O.sol\":1815:1830  EAI.createParty */\n  or(tag_0_48, shl(0x20, tag_7))\n    /* \"contracts/study-case-contracts/001-delivery-hiring/DeliveryHiring_O.sol\":1815:1876  EAI.createParty(\"Delivery System\", _applicationWallet, false) */\n  0x20\n  shr\n  jump\t// in\ntag_6:\n    /* \"contracts/study-case-contracts/001-delivery-hiring/DeliveryHiring_O.sol\":1801:1812  application */\n  0x01\n    /* \"contracts/study-case-contracts/001-delivery-hiring/DeliveryHiring_O.sol\":1801:1876  application = EAI.createParty(\"Delivery System\", _applicationWallet, false) */\n  0x00\n  dup3\n  add\n  mload\n  dup2\n  0x00\n  add\n  swap1\n  dup1\n  mload\n  swap1\n  0x20\n  add\n  swap1\n  tag_8\n  swap3\n  swap2\n  swap1\n  tag_9\n  jump\t// in\ntag_8:\n  pop\n  0x20\n  dup3\n  add\n  mload\n  dup2\n  0x01\n  add\n  exp(0x0100, 0x00)\n  dup2\n  sload\n  dup2\n  0xffffffffffffffffffffffffffffffffffffffff\n  mul\n  not\n  and\n  swap1\n  dup4\n  0xffffffffffffffffffffffffffffffffffffffff\n  and\n  mul\n  or\n  swap1\n  sstore\n  pop\n  0x40\n  dup3\n  add\n  mload\n  dup2\n  0x01\n  add\n  exp(0x0100, 0x14)\n  dup2\n  sload\n  dup2\n  0xff\n  mul\n  not\n  and\n  swap1\n  dup4\n  iszero\n  iszero\n  mul\n  or\n  swap1\n  sstore\n  pop\n  swap1\n  pop\n  pop\n    /* \"contracts/study-case-contracts/001-delivery-hiring/DeliveryHiring_O.sol\":1905:1961  EAI.createParty(\"Integration Process\", msg.sender, true) */\n  tag_10\n  mload(0x40)\n  dup1\n  0x40\n  add\n  0x40\n  mstore\n  dup1\n  0x13\n  dup2\n  mstore\n  0x20\n  add\n  0x496e746567726174696f6e2050726f6365737300000000000000000000000000\n  dup2\n  mstore\n  pop\n    /* \"contracts/study-case-contracts/001-delivery-hiring/DeliveryHiring_O.sol\":1944:1954  msg.sender */\n  caller\n    /* \"contracts/study-case-contracts/001-delivery-hiring/DeliveryHiring_O.sol\":1956:1960  true */\n  0x01\n    /* \"contracts/study-case-contracts/001-delivery-hiring/DeliveryHiring_O.sol\":1905:1920  EAI.createParty */\n  or(tag_0_48, shl(0x20, tag_7))\n    /* \"contracts/study-case-contracts/001-delivery-hiring/DeliveryHiring_O.sol\":1905:1961  EAI.createParty(\"Integration Process\", msg.sender, true) */\n  0x20\n  shr\n  jump\t// in\ntag_10:\n    /* \"contracts/study-case-contracts/001-delivery-hiring/DeliveryHiring_O.sol\":1895:1902  process */\n  0x03\n    /* \"contracts/study-case-contracts/001-delivery-hiring/DeliveryHiring_O.sol\":1895:1961  process = EAI.createParty(\"Integration Process\", msg.sender, true) */\n  0x00\n  dup3\n  add\n  mload\n  dup2\n  0x00\n  add\n  swap1\n  dup1\n  mload\n  swap1\n  0x20\n  add\n  swap1\n  tag_11\n  swap3\n  swap2\n  swap1\n  tag_9\n  jump\t// in\ntag_11:\n  pop\n  0x20\n  dup3\n  add\n  mload\n  dup2\n  0x01\n  add\n  exp(0x0100, 0x00)\n  dup2\n  sload\n  dup2\n  0xffffffffffffffffffffffffffffffffffffffff\n  mul\n  not\n  and\n  swap1\n  dup4\n  0xffffffffffffffffffffffffffffffffffffffff\n  and\n  mul\n  or\n  swap1\n  sstore\n  pop\n  0x40\n  dup3\n  add\n  mload\n  dup2\n  0x01\n  add\n  exp(0x0100, 0x14)\n  dup2\n  sload\n  dup2\n  0xff\n  mul\n  not\n  and\n  swap1\n  dup4\n  iszero\n  iszero\n  mul\n  or\n  swap1\n  sstore\n  pop\n  swap1\n  pop\n  pop\n    /* \"contracts/study-case-contracts/001-delivery-hiring/DeliveryHiring_O.sol\":1995:2002  process */\n  0x03\n    /* \"contracts/study-case-contracts/001-delivery-hiring/DeliveryHiring_O.sol\":1972:1980  mapParty */\n  0x05\n    /* \"contracts/study-case-contracts/001-delivery-hiring/DeliveryHiring_O.sol\":1972:1992  mapParty[msg.sender] */\n  0x00\n    /* \"contracts/study-case-contracts/001-delivery-hiring/DeliveryHiring_O.sol\":1981:1991  msg.sender */\n  caller\n    /* \"contracts/study-case-contracts/001-delivery-hiring/DeliveryHiring_O.sol\":1972:1992  mapParty[msg.sender] */\n  0xffffffffffffffffffffffffffffffffffffffff\n  and\n  0xffffffffffffffffffffffffffffffffffffffff\n  and\n  dup2\n  mstore\n  0x20\n  add\n  swap1\n  dup2\n  mstore\n  0x20\n  add\n  0x00\n  keccak256\n    /* \"contracts/study-case-contracts/001-delivery-hiring/DeliveryHiring_O.sol\":1972:2002  mapParty[msg.sender] = process */\n  0x00\n  dup3\n  add\n  dup2\n  0x00\n  add\n  swap1\n  dup1\n  sload\n  tag_12\n  swap1\n  tag_13\n  jump\t// in\ntag_12:\n  tag_14\n  swap3\n  swap2\n  swap1\n  tag_15\n  jump\t// in\ntag_14:\n  pop\n  0x01\n  dup3\n  add\n  0x00\n  swap1\n  sload\n  swap1\n  0x0100\n  exp\n  swap1\n  div\n  0xffffffffffffffffffffffffffffffffffffffff\n  and\n  dup2\n  0x01\n  add\n  exp(0x0100, 0x00)\n  dup2\n  sload\n  dup2\n  0xffffffffffffffffffffffffffffffffffffffff\n  mul\n  not\n  and\n  swap1\n  dup4\n  0xffffffffffffffffffffffffffffffffffffffff\n  and\n  mul\n  or\n  swap1\n  sstore\n  pop\n  0x01\n  dup3\n  add\n  0x14\n  swap1\n  sload\n  swap1\n  0x0100\n  exp\n  swap1\n  div\n  0xff\n  and\n  dup2\n  0x01\n  add\n  exp(0x0100, 0x14)\n  dup2\n  sload\n  dup2\n  0xff\n  mul\n  not\n  and\n  swap1\n  dup4\n  iszero\n  iszero\n  mul\n  or\n  swap1\n  sstore\n  pop\n  swap1\n  pop\n  pop\n    /* \"contracts/study-case-contracts/001-delivery-hiring/DeliveryHiring_O.sol\":2044:2055  application */\n  0x01\n    /* \"contracts/study-case-contracts/001-delivery-hiring/DeliveryHiring_O.sol\":2013:2021  mapParty */\n  0x05\n    /* \"contracts/study-case-contracts/001-delivery-hiring/DeliveryHiring_O.sol\":2013:2041  mapParty[_applicationWallet] */\n  0x00\n    /* \"contracts/study-case-contracts/001-delivery-hiring/DeliveryHiring_O.sol\":2022:2040  _applicationWallet */\n  dup4\n    /* \"contracts/study-case-contracts/001-delivery-hiring/DeliveryHiring_O.sol\":2013:2041  mapParty[_applicationWallet] */\n  0xffffffffffffffffffffffffffffffffffffffff\n  and\n  0xffffffffffffffffffffffffffffffffffffffff\n  and\n  dup2\n  mstore\n  0x20\n  add\n  swap1\n  dup2\n  mstore\n  0x20\n  add\n  0x00\n  keccak256\n    /* \"contracts/study-case-contracts/001-delivery-hiring/DeliveryHiring_O.sol\":2013:2055  mapParty[_applicationWallet] = application */\n  0x00\n  dup3\n  add\n  dup2\n  0x00\n  add\n  swap1\n  dup1\n  sload\n  tag_16\n  swap1\n  tag_13\n  jump\t// in\ntag_16:\n  tag_17\n  swap3\n  swap2\n  swap1\n  tag_15\n  jump\t// in\ntag_17:\n  pop\n  0x01\n  dup3\n  add\n  0x00\n  swap1\n  sload\n  swap1\n  0x0100\n  exp\n  swap1\n  div\n  0xffffffffffffffffffffffffffffffffffffffff\n  and\n  dup2\n  0x01\n  add\n  exp(0x0100, 0x00)\n  dup2\n  sload\n  dup2\n  0xffffffffffffffffffffffffffffffffffffffff\n  mul\n  not\n  and\n  swap1\n  dup4\n  0xffffffffffffffffffffffffffffffffffffffff\n  and\n  mul\n  or\n  swap1\n  sstore\n  pop\n  0x01\n  dup3\n  add\n  0x14\n  swap1\n  sload\n  swap1\n  0x0100\n  exp\n  swap1\n  div\n  0xff\n  and\n  dup2\n  0x01\n  add\n  exp(0x0100, 0x14)\n  dup2\n  sload\n  dup2\n  0xff\n  mul\n  not\n  and\n  swap1\n  dup4\n  iszero\n  iszero\n  mul\n  or\n  swap1\n  sstore\n  pop\n  swap1\n  pop\n  pop\n    /* \"contracts/study-case-contracts/001-delivery-hiring/DeliveryHiring_O.sol\":2169:2179  timeout_C1 */\n  0x06\n    /* \"contracts/study-case-contracts/001-delivery-hiring/DeliveryHiring_O.sol\":2185:2206  EAI.createTimeout(30) */\n  tag_18\n    /* \"contracts/study-case-contracts/001-delivery-hiring/DeliveryHiring_O.sol\":2203:2205  30 */\n  0x1e\n    /* \"contracts/study-case-contracts/001-delivery-hiring/DeliveryHiring_O.sol\":2185:2202  EAI.createTimeout */\n  or(tag_0_49, shl(0x20, tag_19))\n    /* \"contracts/study-case-contracts/001-delivery-hiring/DeliveryHiring_O.sol\":2185:2206  EAI.createTimeout(30) */\n  0x20\n  shr\n  jump\t// in\ntag_18:\n    /* \"contracts/study-case-contracts/001-delivery-hiring/DeliveryHiring_O.sol\":2169:2207  timeout_C1.push(EAI.createTimeout(30)) */\n  swap1\n  dup1\n  0x01\n  dup2\n  sload\n  add\n  dup1\n  dup3\n  sstore\n  dup1\n  swap2\n  pop\n  pop\n  0x01\n  swap1\n  sub\n  swap1\n  0x00\n  mstore\n  keccak256(0x00, 0x20)\n  add\n  0x00\n  swap1\n  swap2\n  swap1\n  swap2\n  swap1\n  swap2\n  pop\n  0x00\n  dup3\n  add\n  mload\n  dup2\n  0x00\n  add\n  exp(0x0100, 0x00)\n  dup2\n  sload\n  dup2\n  0xffffffff\n  mul\n  not\n  and\n  swap1\n  dup4\n  0xffffffff\n  and\n  mul\n  or\n  swap1\n  sstore\n  pop\n  0x20\n  dup3\n  add\n  mload\n  dup2\n  0x00\n  add\n  exp(0x0100, 0x04)\n  dup2\n  sload\n  dup2\n  0xffffffff\n  mul\n  not\n  and\n  swap1\n  dup4\n  0xffffffff\n  and\n  mul\n  or\n  swap1\n  sstore\n  pop\n  pop\n  pop\n    /* \"contracts/study-case-contracts/001-delivery-hiring/DeliveryHiring_O.sol\":2220:2237  messageContent_C1 */\n  0x07\n    /* \"contracts/study-case-contracts/001-delivery-hiring/DeliveryHiring_O.sol\":2243:2298  EAI.createMessageContent(\"//budget/id/text()\", \">=\", 0) */\n  tag_21\n  mload(0x40)\n  dup1\n  0x40\n  add\n  0x40\n  mstore\n  dup1\n  0x12\n  dup2\n  mstore\n  0x20\n  add\n  0x2f2f6275646765742f69642f7465787428290000000000000000000000000000\n  dup2\n  mstore\n  pop\n  mload(0x40)\n  dup1\n  0x40\n  add\n  0x40\n  mstore\n  dup1\n  0x02\n  dup2\n  mstore\n  0x20\n  add\n  0x3e3d000000000000000000000000000000000000000000000000000000000000\n  dup2\n  mstore\n  pop\n    /* \"contracts/study-case-contracts/001-delivery-hiring/DeliveryHiring_O.sol\":2296:2297  0 */\n  0x00\n    /* \"contracts/study-case-contracts/001-delivery-hiring/DeliveryHiring_O.sol\":2243:2267  EAI.createMessageContent */\n  or(tag_0_50, shl(0x20, tag_22))\n    /* \"contracts/study-case-contracts/001-delivery-hiring/DeliveryHiring_O.sol\":2243:2298  EAI.createMessageContent(\"//budget/id/text()\", \">=\", 0) */\n  0x20\n  shr\n  jump\t// in\ntag_21:\n    /* \"contracts/study-case-contracts/001-delivery-hiring/DeliveryHiring_O.sol\":2220:2299  messageContent_C1.push(EAI.createMessageContent(\"//budget/id/text()\", \">=\", 0)) */\n  swap1\n  dup1\n  0x01\n  dup2\n  sload\n  add\n  dup1\n  dup3\n  sstore\n  dup1\n  swap2\n  pop\n  pop\n  0x01\n  swap1\n  sub\n  swap1\n  0x00\n  mstore\n  keccak256(0x00, 0x20)\n  swap1\n  0x03\n  mul\n  add\n  0x00\n  swap1\n  swap2\n  swap1\n  swap2\n  swap1\n  swap2\n  pop\n  0x00\n  dup3\n  add\n  mload\n  dup2\n  0x00\n  add\n  swap1\n  dup1\n  mload\n  swap1\n  0x20\n  add\n  swap1\n  tag_24\n  swap3\n  swap2\n  swap1\n  tag_9\n  jump\t// in\ntag_24:\n  pop\n  0x20\n  dup3\n  add\n  mload\n  dup2\n  0x01\n  add\n  swap1\n  dup1\n  mload\n  swap1\n  0x20\n  add\n  swap1\n  tag_25\n  swap3\n  swap2\n  swap1\n  tag_9\n  jump\t// in\ntag_25:\n  pop\n  0x40\n  dup3\n  add\n  mload\n  dup2\n  0x02\n  add\n  sstore\n  pop\n  pop\n    /* \"contracts/study-case-contracts/001-delivery-hiring/DeliveryHiring_O.sol\":1553:2312  constructor(address _applicationWallet){... */\n  pop\n    /* \"contracts/study-case-contracts/001-delivery-hiring/DeliveryHiring_O.sol\":190:6076  contract DeliveryHiring_O {... */\n  jump(tag_26)\n    /* \"contracts/lib/eai/EAI.sol\":1676:1852  function createParty(string memory _name, address _walletAddress, bool _aware) internal pure returns(Party memory){... */\ntag_7:\n    /* \"contracts/lib/eai/EAI.sol\":1777:1789  Party memory */\n  tag_27\n  tag_28\n  jump\t// in\ntag_27:\n    /* \"contracts/lib/eai/EAI.sol\":1808:1844  Party(_name, _walletAddress, _aware) */\n  mload(0x40)\n  dup1\n  0x60\n  add\n  0x40\n  mstore\n  dup1\n    /* \"contracts/lib/eai/EAI.sol\":1814:1819  _name */\n  dup6\n    /* \"contracts/lib/eai/EAI.sol\":1808:1844  Party(_name, _walletAddress, _aware) */\n  dup2\n  mstore\n  0x20\n  add\n    /* \"contracts/lib/eai/EAI.sol\":1821:1835  _walletAddress */\n  dup5\n    /* \"contracts/lib/eai/EAI.sol\":1808:1844  Party(_name, _walletAddress, _aware) */\n  0xffffffffffffffffffffffffffffffffffffffff\n  and\n  dup2\n  mstore\n  0x20\n  add\n    /* \"contracts/lib/eai/EAI.sol\":1837:1843  _aware */\n  dup4\n    /* \"contracts/lib/eai/EAI.sol\":1808:1844  Party(_name, _walletAddress, _aware) */\n  iszero\n  iszero\n  dup2\n  mstore\n  pop\n    /* \"contracts/lib/eai/EAI.sol\":1801:1844  return Party(_name, _walletAddress, _aware) */\n  swap1\n  pop\n    /* \"contracts/lib/eai/EAI.sol\":1676:1852  function createParty(string memory _name, address _walletAddress, bool _aware) internal pure returns(Party memory){... */\n  swap4\n  swap3\n  pop\n  pop\n  pop\n  jump\t// out\n    /* \"contracts/lib/eai/EAI.sol\":8420:8557  function createTimeout(uint32 _timeIncrement) internal pure returns (Timeout memory ){... */\ntag_19:\n    /* \"contracts/lib/eai/EAI.sol\":8489:8503  Timeout memory */\n  tag_30\n  tag_31\n  jump\t// in\ntag_30:\n    /* \"contracts/lib/eai/EAI.sol\":8523:8549  Timeout(0, _timeIncrement) */\n  mload(0x40)\n  dup1\n  0x40\n  add\n  0x40\n  mstore\n  dup1\n    /* \"contracts/lib/eai/EAI.sol\":8531:8532  0 */\n  0x00\n    /* \"contracts/lib/eai/EAI.sol\":8523:8549  Timeout(0, _timeIncrement) */\n  0xffffffff\n  and\n  dup2\n  mstore\n  0x20\n  add\n    /* \"contracts/lib/eai/EAI.sol\":8534:8548  _timeIncrement */\n  dup4\n    /* \"contracts/lib/eai/EAI.sol\":8523:8549  Timeout(0, _timeIncrement) */\n  0xffffffff\n  and\n  dup2\n  mstore\n  pop\n    /* \"contracts/lib/eai/EAI.sol\":8516:8549  return Timeout(0, _timeIncrement) */\n  swap1\n  pop\n    /* \"contracts/lib/eai/EAI.sol\":8420:8557  function createTimeout(uint32 _timeIncrement) internal pure returns (Timeout memory ){... */\n  swap2\n  swap1\n  pop\n  jump\t// out\n    /* \"contracts/lib/eai/EAI.sol\":16907:17126  function createMessageContent(string memory _xpath, string memory _op, int256 _content ) internal pure returns(MessageContent_Number memory){        ... */\ntag_22:\n    /* \"contracts/lib/eai/EAI.sol\":17018:17046  MessageContent_Number memory */\n  tag_33\n  tag_34\n  jump\t// in\ntag_33:\n    /* \"contracts/lib/eai/EAI.sol\":17073:17117  MessageContent_Number(_xpath, _op, _content) */\n  mload(0x40)\n  dup1\n  0x60\n  add\n  0x40\n  mstore\n  dup1\n    /* \"contracts/lib/eai/EAI.sol\":17095:17101  _xpath */\n  dup6\n    /* \"contracts/lib/eai/EAI.sol\":17073:17117  MessageContent_Number(_xpath, _op, _content) */\n  dup2\n  mstore\n  0x20\n  add\n    /* \"contracts/lib/eai/EAI.sol\":17103:17106  _op */\n  dup5\n    /* \"contracts/lib/eai/EAI.sol\":17073:17117  MessageContent_Number(_xpath, _op, _content) */\n  dup2\n  mstore\n  0x20\n  add\n    /* \"contracts/lib/eai/EAI.sol\":17108:17116  _content */\n  dup4\n    /* \"contracts/lib/eai/EAI.sol\":17073:17117  MessageContent_Number(_xpath, _op, _content) */\n  dup2\n  mstore\n  pop\n    /* \"contracts/lib/eai/EAI.sol\":17066:17117  return MessageContent_Number(_xpath, _op, _content) */\n  swap1\n  pop\n    /* \"contracts/lib/eai/EAI.sol\":16907:17126  function createMessageContent(string memory _xpath, string memory _op, int256 _content ) internal pure returns(MessageContent_Number memory){        ... */\n  swap4\n  swap3\n  pop\n  pop\n  pop\n  jump\t// out\n    /* \"contracts/study-case-contracts/001-delivery-hiring/DeliveryHiring_O.sol\":190:6076  contract DeliveryHiring_O {... */\ntag_9:\n  dup3\n  dup1\n  sload\n  tag_36\n  swap1\n  tag_13\n  jump\t// in\ntag_36:\n  swap1\n  0x00\n  mstore\n  keccak256(0x00, 0x20)\n  swap1\n  0x1f\n  add\n  0x20\n  swap1\n  div\n  dup2\n  add\n  swap3\n  dup3\n  tag_38\n  jumpi\n  0x00\n  dup6\n  sstore\n  jump(tag_37)\ntag_38:\n  dup3\n  0x1f\n  lt\n  tag_39\n  jumpi\n  dup1\n  mload\n  not(0xff)\n  and\n  dup4\n  dup1\n  add\n  or\n  dup6\n  sstore\n  jump(tag_37)\ntag_39:\n  dup3\n  dup1\n  add\n  0x01\n  add\n  dup6\n  sstore\n  dup3\n  iszero\n  tag_37\n  jumpi\n  swap2\n  dup3\n  add\ntag_40:\n  dup3\n  dup2\n  gt\n  iszero\n  tag_41\n  jumpi\n  dup3\n  mload\n  dup3\n  sstore\n  swap2\n  0x20\n  add\n  swap2\n  swap1\n  0x01\n  add\n  swap1\n  jump(tag_40)\ntag_41:\ntag_37:\n  pop\n  swap1\n  pop\n  tag_42\n  swap2\n  swap1\n  tag_43\n  jump\t// in\ntag_42:\n  pop\n  swap1\n  jump\t// out\ntag_15:\n  dup3\n  dup1\n  sload\n  tag_44\n  swap1\n  tag_13\n  jump\t// in\ntag_44:\n  swap1\n  0x00\n  mstore\n  keccak256(0x00, 0x20)\n  swap1\n  0x1f\n  add\n  0x20\n  swap1\n  div\n  dup2\n  add\n  swap3\n  dup3\n  tag_46\n  jumpi\n  0x00\n  dup6\n  sstore\n  jump(tag_45)\ntag_46:\n  dup3\n  0x1f\n  lt\n  tag_47\n  jumpi\n  dup1\n  sload\n  dup6\n  sstore\n  jump(tag_45)\ntag_47:\n  dup3\n  dup1\n  add\n  0x01\n  add\n  dup6\n  sstore\n  dup3\n  iszero\n  tag_45\n  jumpi\n  0x00\n  mstore\n  keccak256(0x00, 0x20)\n  swap2\n  0x1f\n  add\n  0x20\n  swap1\n  div\n  dup3\n  add\ntag_48:\n  dup3\n  dup2\n  gt\n  iszero\n  tag_49\n  jumpi\n  dup3\n  sload\n  dup3\n  sstore\n  swap2\n  0x01\n  add\n  swap2\n  swap1\n  0x01\n  add\n  swap1\n  jump(tag_48)\ntag_49:\ntag_45:\n  pop\n  swap1\n  pop\n  tag_50\n  swap2\n  swap1\n  tag_43\n  jump\t// in\ntag_50:\n  pop\n  swap1\n  jump\t// out\ntag_28:\n  mload(0x40)\n  dup1\n  0x60\n  add\n  0x40\n  mstore\n  dup1\n  0x60\n  dup2\n  mstore\n  0x20\n  add\n  and(0xffffffffffffffffffffffffffffffffffffffff, 0x00)\n  dup2\n  mstore\n  0x20\n  add\n  iszero(iszero(0x00))\n  dup2\n  mstore\n  pop\n  swap1\n  jump\t// out\ntag_31:\n  mload(0x40)\n  dup1\n  0x40\n  add\n  0x40\n  mstore\n  dup1\n  and(0xffffffff, 0x00)\n  dup2\n  mstore\n  0x20\n  add\n  and(0xffffffff, 0x00)\n  dup2\n  mstore\n  pop\n  swap1\n  jump\t// out\ntag_34:\n  mload(0x40)\n  dup1\n  0x60\n  add\n  0x40\n  mstore\n  dup1\n  0x60\n  dup2\n  mstore\n  0x20\n  add\n  0x60\n  dup2\n  mstore\n  0x20\n  add\n  0x00\n  dup2\n  mstore\n  pop\n  swap1\n  jump\t// out\ntag_43:\ntag_51:\n  dup1\n  dup3\n  gt\n  iszero\n  tag_52\n  jumpi\n  0x00\n  dup2\n  0x00\n  swap1\n  sstore\n  pop\n  0x01\n  add\n  jump(tag_51)\ntag_52:\n  pop\n  swap1\n  jump\t// out\n    /* \"#utility.yul\":88:205   */\ntag_54:\n    /* \"#utility.yul\":197:198   */\n  0x00\n    /* \"#utility.yul\":194:195   */\n  dup1\n    /* \"#utility.yul\":187:199   */\n  revert\n    /* \"#utility.yul\":334:460   */\ntag_56:\n    /* \"#utility.yul\":371:378   */\n  0x00\n    /* \"#utility.yul\":411:453   */\n  0xffffffffffffffffffffffffffffffffffffffff\n    /* \"#utility.yul\":404:409   */\n  dup3\n    /* \"#utility.yul\":400:454   */\n  and\n    /* \"#utility.yul\":389:454   */\n  swap1\n  pop\n    /* \"#utility.yul\":334:460   */\n  swap2\n  swap1\n  pop\n  jump\t// out\n    /* \"#utility.yul\":466:562   */\ntag_57:\n    /* \"#utility.yul\":503:510   */\n  0x00\n    /* \"#utility.yul\":532:556   */\n  tag_67\n    /* \"#utility.yul\":550:555   */\n  dup3\n    /* \"#utility.yul\":532:556   */\n  tag_56\n  jump\t// in\ntag_67:\n    /* \"#utility.yul\":521:556   */\n  swap1\n  pop\n    /* \"#utility.yul\":466:562   */\n  swap2\n  swap1\n  pop\n  jump\t// out\n    /* \"#utility.yul\":568:690   */\ntag_58:\n    /* \"#utility.yul\":641:665   */\n  tag_69\n    /* \"#utility.yul\":659:664   */\n  dup2\n    /* \"#utility.yul\":641:665   */\n  tag_57\n  jump\t// in\ntag_69:\n    /* \"#utility.yul\":634:639   */\n  dup2\n    /* \"#utility.yul\":631:666   */\n  eq\n    /* \"#utility.yul\":621:684   */\n  tag_70\n  jumpi\n    /* \"#utility.yul\":680:681   */\n  0x00\n    /* \"#utility.yul\":677:678   */\n  dup1\n    /* \"#utility.yul\":670:682   */\n  revert\n    /* \"#utility.yul\":621:684   */\ntag_70:\n    /* \"#utility.yul\":568:690   */\n  pop\n  jump\t// out\n    /* \"#utility.yul\":696:839   */\ntag_59:\n    /* \"#utility.yul\":753:758   */\n  0x00\n    /* \"#utility.yul\":784:790   */\n  dup2\n    /* \"#utility.yul\":778:791   */\n  mload\n    /* \"#utility.yul\":769:791   */\n  swap1\n  pop\n    /* \"#utility.yul\":800:833   */\n  tag_72\n    /* \"#utility.yul\":827:832   */\n  dup2\n    /* \"#utility.yul\":800:833   */\n  tag_58\n  jump\t// in\ntag_72:\n    /* \"#utility.yul\":696:839   */\n  swap3\n  swap2\n  pop\n  pop\n  jump\t// out\n    /* \"#utility.yul\":845:1196   */\ntag_3:\n    /* \"#utility.yul\":915:921   */\n  0x00\n    /* \"#utility.yul\":964:966   */\n  0x20\n    /* \"#utility.yul\":952:961   */\n  dup3\n    /* \"#utility.yul\":943:950   */\n  dup5\n    /* \"#utility.yul\":939:962   */\n  sub\n    /* \"#utility.yul\":935:967   */\n  slt\n    /* \"#utility.yul\":932:1051   */\n  iszero\n  tag_74\n  jumpi\n    /* \"#utility.yul\":970:1049   */\n  tag_75\n  tag_54\n  jump\t// in\ntag_75:\n    /* \"#utility.yul\":932:1051   */\ntag_74:\n    /* \"#utility.yul\":1090:1091   */\n  0x00\n    /* \"#utility.yul\":1115:1179   */\n  tag_76\n    /* \"#utility.yul\":1171:1178   */\n  dup5\n    /* \"#utility.yul\":1162:1168   */\n  dup3\n    /* \"#utility.yul\":1151:1160   */\n  dup6\n    /* \"#utility.yul\":1147:1169   */\n  add\n    /* \"#utility.yul\":1115:1179   */\n  tag_59\n  jump\t// in\ntag_76:\n    /* \"#utility.yul\":1105:1179   */\n  swap2\n  pop\n    /* \"#utility.yul\":1061:1189   */\n  pop\n    /* \"#utility.yul\":845:1196   */\n  swap3\n  swap2\n  pop\n  pop\n  jump\t// out\n    /* \"#utility.yul\":1202:1382   */\ntag_60:\n    /* \"#utility.yul\":1250:1327   */\n  0x4e487b7100000000000000000000000000000000000000000000000000000000\n    /* \"#utility.yul\":1247:1248   */\n  0x00\n    /* \"#utility.yul\":1240:1328   */\n  mstore\n    /* \"#utility.yul\":1347:1351   */\n  0x22\n    /* \"#utility.yul\":1344:1345   */\n  0x04\n    /* \"#utility.yul\":1337:1352   */\n  mstore\n    /* \"#utility.yul\":1371:1375   */\n  0x24\n    /* \"#utility.yul\":1368:1369   */\n  0x00\n    /* \"#utility.yul\":1361:1376   */\n  revert\n    /* \"#utility.yul\":1388:1708   */\ntag_13:\n    /* \"#utility.yul\":1432:1438   */\n  0x00\n    /* \"#utility.yul\":1469:1470   */\n  0x02\n    /* \"#utility.yul\":1463:1467   */\n  dup3\n    /* \"#utility.yul\":1459:1471   */\n  div\n    /* \"#utility.yul\":1449:1471   */\n  swap1\n  pop\n    /* \"#utility.yul\":1516:1517   */\n  0x01\n    /* \"#utility.yul\":1510:1514   */\n  dup3\n    /* \"#utility.yul\":1506:1518   */\n  and\n    /* \"#utility.yul\":1537:1555   */\n  dup1\n    /* \"#utility.yul\":1527:1608   */\n  tag_79\n  jumpi\n    /* \"#utility.yul\":1593:1597   */\n  0x7f\n    /* \"#utility.yul\":1585:1591   */\n  dup3\n    /* \"#utility.yul\":1581:1598   */\n  and\n    /* \"#utility.yul\":1571:1598   */\n  swap2\n  pop\n    /* \"#utility.yul\":1527:1608   */\ntag_79:\n    /* \"#utility.yul\":1655:1657   */\n  0x20\n    /* \"#utility.yul\":1647:1653   */\n  dup3\n    /* \"#utility.yul\":1644:1658   */\n  lt\n    /* \"#utility.yul\":1624:1642   */\n  dup2\n    /* \"#utility.yul\":1621:1659   */\n  eq\n    /* \"#utility.yul\":1618:1702   */\n  iszero\n  tag_80\n  jumpi\n    /* \"#utility.yul\":1674:1692   */\n  tag_81\n  tag_60\n  jump\t// in\ntag_81:\n    /* \"#utility.yul\":1618:1702   */\ntag_80:\n    /* \"#utility.yul\":1439:1708   */\n  pop\n    /* \"#utility.yul\":1388:1708   */\n  swap2\n  swap1\n  pop\n  jump\t// out\n    /* \"contracts/study-case-contracts/001-delivery-hiring/DeliveryHiring_O.sol\":190:6076  contract DeliveryHiring_O {... */\ntag_26:\n  dataSize(sub_0)\n  dup1\n  dataOffset(sub_0)\n  0x00\n  codecopy\n  0x00\n  return\nstop\n\nsub_0: assembly {\n        /* \"contracts/study-case-contracts/001-delivery-hiring/DeliveryHiring_O.sol\":190:6076  contract DeliveryHiring_O {... */\n      mstore(0x40, 0x80)\n      callvalue\n      dup1\n      iszero\n      tag_1\n      jumpi\n      0x00\n      dup1\n      revert\n    tag_1:\n      pop\n      jumpi(tag_2, lt(calldatasize, 0x04))\n      shr(0xe0, calldataload(0x00))\n      dup1\n      0x85931911\n      gt\n      tag_12\n      jumpi\n      dup1\n      0x85931911\n      eq\n      tag_7\n      jumpi\n      dup1\n      0x8fda356d\n      eq\n      tag_8\n      jumpi\n      dup1\n      0xb8b4f1a0\n      eq\n      tag_9\n      jumpi\n      dup1\n      0xbca353be\n      eq\n      tag_10\n      jumpi\n      dup1\n      0xfb6f8243\n      eq\n      tag_11\n      jumpi\n      jump(tag_2)\n    tag_12:\n      dup1\n      0x1e900392\n      eq\n      tag_3\n      jumpi\n      dup1\n      0x3bbd6e54\n      eq\n      tag_4\n      jumpi\n      dup1\n      0x5e744c6a\n      eq\n      tag_5\n      jumpi\n      dup1\n      0x70d8915a\n      eq\n      tag_6\n      jumpi\n    tag_2:\n      0x00\n      dup1\n      revert\n        /* \"contracts/study-case-contracts/001-delivery-hiring/DeliveryHiring_O.sol\":2372:2507  function onlyForTest(uint32 _accessDateTime) public onlyProcess() {... */\n    tag_3:\n      tag_13\n      0x04\n      dup1\n      calldatasize\n      sub\n      dup2\n      add\n      swap1\n      tag_14\n      swap2\n      swap1\n      tag_15\n      jump\t// in\n    tag_14:\n      tag_16\n      jump\t// in\n    tag_13:\n      stop\n        /* \"contracts/study-case-contracts/001-delivery-hiring/DeliveryHiring_O.sol\":2512:3183  function responderOrder(uint32 _accessDateTime, int[] memory _xPathContent) public onlyApplication() returns(bool){... */\n    tag_4:\n      tag_17\n      0x04\n      dup1\n      calldatasize\n      sub\n      dup2\n      add\n      swap1\n      tag_18\n      swap2\n      swap1\n      tag_19\n      jump\t// in\n    tag_18:\n      tag_20\n      jump\t// in\n    tag_17:\n      mload(0x40)\n      tag_21\n      swap2\n      swap1\n      tag_22\n      jump\t// in\n    tag_21:\n      mload(0x40)\n      dup1\n      swap2\n      sub\n      swap1\n      return\n        /* \"contracts/study-case-contracts/001-delivery-hiring/DeliveryHiring_O.sol\":4115:4546  function changeApplicationParty(string memory _name, address _walletAddress) public returns(bool) {       ... */\n    tag_5:\n      tag_23\n      0x04\n      dup1\n      calldatasize\n      sub\n      dup2\n      add\n      swap1\n      tag_24\n      swap2\n      swap1\n      tag_25\n      jump\t// in\n    tag_24:\n      tag_26\n      jump\t// in\n    tag_23:\n      mload(0x40)\n      tag_27\n      swap2\n      swap1\n      tag_22\n      jump\t// in\n    tag_27:\n      mload(0x40)\n      dup1\n      swap2\n      sub\n      swap1\n      return\n        /* \"contracts/study-case-contracts/001-delivery-hiring/DeliveryHiring_O.sol\":4694:4826  function getApplicationAddress() public view onlyInvolvedParties returns(address){... */\n    tag_6:\n      tag_28\n      tag_29\n      jump\t// in\n    tag_28:\n      mload(0x40)\n      tag_30\n      swap2\n      swap1\n      tag_31\n      jump\t// in\n    tag_30:\n      mload(0x40)\n      dup1\n      swap2\n      sub\n      swap1\n      return\n        /* \"contracts/study-case-contracts/001-delivery-hiring/DeliveryHiring_O.sol\":4558:4682  function getProcessAddress() public view onlyInvolvedParties returns(address){... */\n    tag_7:\n      tag_32\n      tag_33\n      jump\t// in\n    tag_32:\n      mload(0x40)\n      tag_34\n      swap2\n      swap1\n      tag_31\n      jump\t// in\n    tag_34:\n      mload(0x40)\n      dup1\n      swap2\n      sub\n      swap1\n      return\n        /* \"contracts/study-case-contracts/001-delivery-hiring/DeliveryHiring_O.sol\":4991:5081  function activateContract()public onlyInvolvedParties(){... */\n    tag_8:\n      tag_35\n      tag_36\n      jump\t// in\n    tag_35:\n      stop\n        /* \"contracts/study-case-contracts/001-delivery-hiring/DeliveryHiring_O.sol\":3515:3777  function signContract() public onlyApplication() returns(bool) {... */\n    tag_9:\n      tag_37\n      tag_38\n      jump\t// in\n    tag_37:\n      mload(0x40)\n      tag_39\n      swap2\n      swap1\n      tag_22\n      jump\t// in\n    tag_39:\n      mload(0x40)\n      dup1\n      swap2\n      sub\n      swap1\n      return\n        /* \"contracts/study-case-contracts/001-delivery-hiring/DeliveryHiring_O.sol\":5087:5180  function deactivateContract()public onlyInvolvedParties(){... */\n    tag_10:\n      tag_40\n      tag_41\n      jump\t// in\n    tag_40:\n      stop\n        /* \"contracts/study-case-contracts/001-delivery-hiring/DeliveryHiring_O.sol\":4834:4983  function getParty(address _walletAddress) public view onlyInvolvedParties returns(EAI.Party memory){... */\n    tag_11:\n      tag_42\n      0x04\n      dup1\n      calldatasize\n      sub\n      dup2\n      add\n      swap1\n      tag_43\n      swap2\n      swap1\n      tag_44\n      jump\t// in\n    tag_43:\n      tag_45\n      jump\t// in\n    tag_42:\n      mload(0x40)\n      tag_46\n      swap2\n      swap1\n      tag_47\n      jump\t// in\n    tag_46:\n      mload(0x40)\n      dup1\n      swap2\n      sub\n      swap1\n      return\n        /* \"contracts/study-case-contracts/001-delivery-hiring/DeliveryHiring_O.sol\":2372:2507  function onlyForTest(uint32 _accessDateTime) public onlyProcess() {... */\n    tag_16:\n        /* \"contracts/study-case-contracts/001-delivery-hiring/DeliveryHiring_O.sol\":5593:5602  activated */\n      0x00\n      dup1\n      sload\n      swap1\n      0x0100\n      exp\n      swap1\n      div\n      0xff\n      and\n        /* \"contracts/study-case-contracts/001-delivery-hiring/DeliveryHiring_O.sol\":5585:5635  require(activated, \"This contract is deactivated\") */\n      tag_52\n      jumpi\n      mload(0x40)\n      0x08c379a000000000000000000000000000000000000000000000000000000000\n      dup2\n      mstore\n      0x04\n      add\n      tag_53\n      swap1\n      tag_54\n      jump\t// in\n    tag_53:\n      mload(0x40)\n      dup1\n      swap2\n      sub\n      swap1\n      revert\n    tag_52:\n        /* \"contracts/study-case-contracts/001-delivery-hiring/DeliveryHiring_O.sol\":5679:5689  msg.sender */\n      caller\n        /* \"contracts/study-case-contracts/001-delivery-hiring/DeliveryHiring_O.sol\":5654:5689  process.walletAddress == msg.sender */\n      0xffffffffffffffffffffffffffffffffffffffff\n      and\n        /* \"contracts/study-case-contracts/001-delivery-hiring/DeliveryHiring_O.sol\":5654:5661  process */\n      0x03\n        /* \"contracts/study-case-contracts/001-delivery-hiring/DeliveryHiring_O.sol\":5654:5675  process.walletAddress */\n      0x01\n      add\n      0x00\n      swap1\n      sload\n      swap1\n      0x0100\n      exp\n      swap1\n      div\n      0xffffffffffffffffffffffffffffffffffffffff\n      and\n        /* \"contracts/study-case-contracts/001-delivery-hiring/DeliveryHiring_O.sol\":5654:5689  process.walletAddress == msg.sender */\n      0xffffffffffffffffffffffffffffffffffffffff\n      and\n      eq\n        /* \"contracts/study-case-contracts/001-delivery-hiring/DeliveryHiring_O.sol\":5646:5737  require(process.walletAddress == msg.sender, \"Only the process can execute this operation\") */\n      tag_55\n      jumpi\n      mload(0x40)\n      0x08c379a000000000000000000000000000000000000000000000000000000000\n      dup2\n      mstore\n      0x04\n      add\n      tag_56\n      swap1\n      tag_57\n      jump\t// in\n    tag_56:\n      mload(0x40)\n      dup1\n      swap2\n      sub\n      swap1\n      revert\n    tag_55:\n        /* \"contracts/study-case-contracts/001-delivery-hiring/DeliveryHiring_O.sol\":2449:2499  timeout_C1[0].setEndTimeInTimeout(_accessDateTime) */\n      tag_59\n        /* \"contracts/study-case-contracts/001-delivery-hiring/DeliveryHiring_O.sol\":2483:2498  _accessDateTime */\n      dup2\n        /* \"contracts/study-case-contracts/001-delivery-hiring/DeliveryHiring_O.sol\":2449:2459  timeout_C1 */\n      0x06\n        /* \"contracts/study-case-contracts/001-delivery-hiring/DeliveryHiring_O.sol\":2460:2461  0 */\n      0x00\n        /* \"contracts/study-case-contracts/001-delivery-hiring/DeliveryHiring_O.sol\":2449:2462  timeout_C1[0] */\n      dup2\n      sload\n      dup2\n      lt\n      tag_60\n      jumpi\n      tag_61\n      tag_62\n      jump\t// in\n    tag_61:\n    tag_60:\n      swap1\n      0x00\n      mstore\n      keccak256(0x00, 0x20)\n      add\n        /* \"contracts/study-case-contracts/001-delivery-hiring/DeliveryHiring_O.sol\":2449:2482  timeout_C1[0].setEndTimeInTimeout */\n      tag_64\n      swap1\n        /* \"contracts/study-case-contracts/001-delivery-hiring/DeliveryHiring_O.sol\":2449:2499  timeout_C1[0].setEndTimeInTimeout(_accessDateTime) */\n      swap2\n      swap1\n      0xffffffff\n      and\n      jump\t// in\n    tag_59:\n        /* \"contracts/study-case-contracts/001-delivery-hiring/DeliveryHiring_O.sol\":2372:2507  function onlyForTest(uint32 _accessDateTime) public onlyProcess() {... */\n      pop\n      jump\t// out\n        /* \"contracts/study-case-contracts/001-delivery-hiring/DeliveryHiring_O.sol\":2512:3183  function responderOrder(uint32 _accessDateTime, int[] memory _xPathContent) public onlyApplication() returns(bool){... */\n    tag_20:\n        /* \"contracts/study-case-contracts/001-delivery-hiring/DeliveryHiring_O.sol\":2621:2625  bool */\n      0x00\n        /* \"contracts/study-case-contracts/001-delivery-hiring/DeliveryHiring_O.sol\":5344:5353  activated */\n      dup1\n      0x00\n      swap1\n      sload\n      swap1\n      0x0100\n      exp\n      swap1\n      div\n      0xff\n      and\n        /* \"contracts/study-case-contracts/001-delivery-hiring/DeliveryHiring_O.sol\":5336:5386  require(activated, \"This contract is deactivated\") */\n      tag_66\n      jumpi\n      mload(0x40)\n      0x08c379a000000000000000000000000000000000000000000000000000000000\n      dup2\n      mstore\n      0x04\n      add\n      tag_67\n      swap1\n      tag_54\n      jump\t// in\n    tag_67:\n      mload(0x40)\n      dup1\n      swap2\n      sub\n      swap1\n      revert\n    tag_66:\n        /* \"contracts/study-case-contracts/001-delivery-hiring/DeliveryHiring_O.sol\":5450:5460  msg.sender */\n      caller\n        /* \"contracts/study-case-contracts/001-delivery-hiring/DeliveryHiring_O.sol\":5421:5460  application.walletAddress == msg.sender */\n      0xffffffffffffffffffffffffffffffffffffffff\n      and\n        /* \"contracts/study-case-contracts/001-delivery-hiring/DeliveryHiring_O.sol\":5421:5432  application */\n      0x01\n        /* \"contracts/study-case-contracts/001-delivery-hiring/DeliveryHiring_O.sol\":5421:5446  application.walletAddress */\n      dup1\n      add\n      0x00\n      swap1\n      sload\n      swap1\n      0x0100\n      exp\n      swap1\n      div\n      0xffffffffffffffffffffffffffffffffffffffff\n      and\n        /* \"contracts/study-case-contracts/001-delivery-hiring/DeliveryHiring_O.sol\":5421:5460  application.walletAddress == msg.sender */\n      0xffffffffffffffffffffffffffffffffffffffff\n      and\n      eq\n        /* \"contracts/study-case-contracts/001-delivery-hiring/DeliveryHiring_O.sol\":5413:5512  require(application.walletAddress == msg.sender, \"Only the application can execute this operation\") */\n      tag_68\n      jumpi\n      mload(0x40)\n      0x08c379a000000000000000000000000000000000000000000000000000000000\n      dup2\n      mstore\n      0x04\n      add\n      tag_69\n      swap1\n      tag_70\n      jump\t// in\n    tag_69:\n      mload(0x40)\n      dup1\n      swap2\n      sub\n      swap1\n      revert\n    tag_68:\n        /* \"contracts/study-case-contracts/001-delivery-hiring/DeliveryHiring_O.sol\":2704:2734  mapParty[msg.sender].isAware() */\n      tag_72\n        /* \"contracts/study-case-contracts/001-delivery-hiring/DeliveryHiring_O.sol\":2704:2712  mapParty */\n      0x05\n        /* \"contracts/study-case-contracts/001-delivery-hiring/DeliveryHiring_O.sol\":2704:2724  mapParty[msg.sender] */\n      0x00\n        /* \"contracts/study-case-contracts/001-delivery-hiring/DeliveryHiring_O.sol\":2713:2723  msg.sender */\n      caller\n        /* \"contracts/study-case-contracts/001-delivery-hiring/DeliveryHiring_O.sol\":2704:2724  mapParty[msg.sender] */\n      0xffffffffffffffffffffffffffffffffffffffff\n      and\n      0xffffffffffffffffffffffffffffffffffffffff\n      and\n      dup2\n      mstore\n      0x20\n      add\n      swap1\n      dup2\n      mstore\n      0x20\n      add\n      0x00\n      keccak256\n        /* \"contracts/study-case-contracts/001-delivery-hiring/DeliveryHiring_O.sol\":2704:2732  mapParty[msg.sender].isAware */\n      mload(0x40)\n      dup1\n      0x60\n      add\n      0x40\n      mstore\n      swap1\n      dup2\n      0x00\n      dup3\n      add\n      dup1\n      sload\n      tag_73\n      swap1\n      tag_74\n      jump\t// in\n    tag_73:\n      dup1\n      0x1f\n      add\n      0x20\n      dup1\n      swap2\n      div\n      mul\n      0x20\n      add\n      mload(0x40)\n      swap1\n      dup2\n      add\n      0x40\n      mstore\n      dup1\n      swap3\n      swap2\n      swap1\n      dup2\n      dup2\n      mstore\n      0x20\n      add\n      dup3\n      dup1\n      sload\n      tag_75\n      swap1\n      tag_74\n      jump\t// in\n    tag_75:\n      dup1\n      iszero\n      tag_76\n      jumpi\n      dup1\n      0x1f\n      lt\n      tag_77\n      jumpi\n      0x0100\n      dup1\n      dup4\n      sload\n      div\n      mul\n      dup4\n      mstore\n      swap2\n      0x20\n      add\n      swap2\n      jump(tag_76)\n    tag_77:\n      dup3\n      add\n      swap2\n      swap1\n      0x00\n      mstore\n      keccak256(0x00, 0x20)\n      swap1\n    tag_78:\n      dup2\n      sload\n      dup2\n      mstore\n      swap1\n      0x01\n      add\n      swap1\n      0x20\n      add\n      dup1\n      dup4\n      gt\n      tag_78\n      jumpi\n      dup3\n      swap1\n      sub\n      0x1f\n      and\n      dup3\n      add\n      swap2\n    tag_76:\n      pop\n      pop\n      pop\n      pop\n      pop\n      dup2\n      mstore\n      0x20\n      add\n      0x01\n      dup3\n      add\n      0x00\n      swap1\n      sload\n      swap1\n      0x0100\n      exp\n      swap1\n      div\n      0xffffffffffffffffffffffffffffffffffffffff\n      and\n      0xffffffffffffffffffffffffffffffffffffffff\n      and\n      0xffffffffffffffffffffffffffffffffffffffff\n      and\n      dup2\n      mstore\n      0x20\n      add\n      0x01\n      dup3\n      add\n      0x14\n      swap1\n      sload\n      swap1\n      0x0100\n      exp\n      swap1\n      div\n      0xff\n      and\n      iszero\n      iszero\n      iszero\n      iszero\n      dup2\n      mstore\n      pop\n      pop\n      tag_79\n        /* \"contracts/study-case-contracts/001-delivery-hiring/DeliveryHiring_O.sol\":2704:2734  mapParty[msg.sender].isAware() */\n      jump\t// in\n    tag_72:\n        /* \"contracts/study-case-contracts/001-delivery-hiring/DeliveryHiring_O.sol\":2696:2810  require(mapParty[msg.sender].isAware(), \"The Application party should sign the contract before interact with it.\") */\n      tag_80\n      jumpi\n      mload(0x40)\n      0x08c379a000000000000000000000000000000000000000000000000000000000\n      dup2\n      mstore\n      0x04\n      add\n      tag_81\n      swap1\n      tag_82\n      jump\t// in\n    tag_81:\n      mload(0x40)\n      dup1\n      swap2\n      sub\n      swap1\n      revert\n    tag_80:\n        /* \"contracts/study-case-contracts/001-delivery-hiring/DeliveryHiring_O.sol\":2832:2877  timeout_C1[0].isTimeoutEnded(_accessDateTime) */\n      tag_83\n        /* \"contracts/study-case-contracts/001-delivery-hiring/DeliveryHiring_O.sol\":2861:2876  _accessDateTime */\n      dup4\n        /* \"contracts/study-case-contracts/001-delivery-hiring/DeliveryHiring_O.sol\":2832:2842  timeout_C1 */\n      0x06\n        /* \"contracts/study-case-contracts/001-delivery-hiring/DeliveryHiring_O.sol\":2843:2844  0 */\n      0x00\n        /* \"contracts/study-case-contracts/001-delivery-hiring/DeliveryHiring_O.sol\":2832:2845  timeout_C1[0] */\n      dup2\n      sload\n      dup2\n      lt\n      tag_84\n      jumpi\n      tag_85\n      tag_62\n      jump\t// in\n    tag_85:\n    tag_84:\n      swap1\n      0x00\n      mstore\n      keccak256(0x00, 0x20)\n      add\n        /* \"contracts/study-case-contracts/001-delivery-hiring/DeliveryHiring_O.sol\":2832:2860  timeout_C1[0].isTimeoutEnded */\n      mload(0x40)\n      dup1\n      0x40\n      add\n      0x40\n      mstore\n      swap1\n      dup2\n      0x00\n      dup3\n      add\n      0x00\n      swap1\n      sload\n      swap1\n      0x0100\n      exp\n      swap1\n      div\n      0xffffffff\n      and\n      0xffffffff\n      and\n      0xffffffff\n      and\n      dup2\n      mstore\n      0x20\n      add\n      0x00\n      dup3\n      add\n      0x04\n      swap1\n      sload\n      swap1\n      0x0100\n      exp\n      swap1\n      div\n      0xffffffff\n      and\n      0xffffffff\n      and\n      0xffffffff\n      and\n      dup2\n      mstore\n      pop\n      pop\n      tag_87\n      swap1\n        /* \"contracts/study-case-contracts/001-delivery-hiring/DeliveryHiring_O.sol\":2832:2877  timeout_C1[0].isTimeoutEnded(_accessDateTime) */\n      swap2\n      swap1\n      0xffffffff\n      and\n      jump\t// in\n    tag_83:\n        /* \"contracts/study-case-contracts/001-delivery-hiring/DeliveryHiring_O.sol\":2831:2877  !timeout_C1[0].isTimeoutEnded(_accessDateTime) */\n      iszero\n        /* \"contracts/study-case-contracts/001-delivery-hiring/DeliveryHiring_O.sol\":2831:2949  !timeout_C1[0].isTimeoutEnded(_accessDateTime)  &&\t\t\t... */\n      dup1\n      iszero\n      tag_88\n      jumpi\n      pop\n        /* \"contracts/study-case-contracts/001-delivery-hiring/DeliveryHiring_O.sol\":2889:2949  messageContent_C1[0].evaluateNumberContent(_xPathContent[0]) */\n      tag_89\n        /* \"contracts/study-case-contracts/001-delivery-hiring/DeliveryHiring_O.sol\":2932:2945  _xPathContent */\n      dup3\n        /* \"contracts/study-case-contracts/001-delivery-hiring/DeliveryHiring_O.sol\":2946:2947  0 */\n      0x00\n        /* \"contracts/study-case-contracts/001-delivery-hiring/DeliveryHiring_O.sol\":2932:2948  _xPathContent[0] */\n      dup2\n      mload\n      dup2\n      lt\n      tag_90\n      jumpi\n      tag_91\n      tag_62\n      jump\t// in\n    tag_91:\n    tag_90:\n      0x20\n      mul\n      0x20\n      add\n      add\n      mload\n        /* \"contracts/study-case-contracts/001-delivery-hiring/DeliveryHiring_O.sol\":2889:2906  messageContent_C1 */\n      0x07\n        /* \"contracts/study-case-contracts/001-delivery-hiring/DeliveryHiring_O.sol\":2907:2908  0 */\n      0x00\n        /* \"contracts/study-case-contracts/001-delivery-hiring/DeliveryHiring_O.sol\":2889:2909  messageContent_C1[0] */\n      dup2\n      sload\n      dup2\n      lt\n      tag_92\n      jumpi\n      tag_93\n      tag_62\n      jump\t// in\n    tag_93:\n    tag_92:\n      swap1\n      0x00\n      mstore\n      keccak256(0x00, 0x20)\n      swap1\n      0x03\n      mul\n      add\n        /* \"contracts/study-case-contracts/001-delivery-hiring/DeliveryHiring_O.sol\":2889:2931  messageContent_C1[0].evaluateNumberContent */\n      mload(0x40)\n      dup1\n      0x60\n      add\n      0x40\n      mstore\n      swap1\n      dup2\n      0x00\n      dup3\n      add\n      dup1\n      sload\n      tag_95\n      swap1\n      tag_74\n      jump\t// in\n    tag_95:\n      dup1\n      0x1f\n      add\n      0x20\n      dup1\n      swap2\n      div\n      mul\n      0x20\n      add\n      mload(0x40)\n      swap1\n      dup2\n      add\n      0x40\n      mstore\n      dup1\n      swap3\n      swap2\n      swap1\n      dup2\n      dup2\n      mstore\n      0x20\n      add\n      dup3\n      dup1\n      sload\n      tag_96\n      swap1\n      tag_74\n      jump\t// in\n    tag_96:\n      dup1\n      iszero\n      tag_97\n      jumpi\n      dup1\n      0x1f\n      lt\n      tag_98\n      jumpi\n      0x0100\n      dup1\n      dup4\n      sload\n      div\n      mul\n      dup4\n      mstore\n      swap2\n      0x20\n      add\n      swap2\n      jump(tag_97)\n    tag_98:\n      dup3\n      add\n      swap2\n      swap1\n      0x00\n      mstore\n      keccak256(0x00, 0x20)\n      swap1\n    tag_99:\n      dup2\n      sload\n      dup2\n      mstore\n      swap1\n      0x01\n      add\n      swap1\n      0x20\n      add\n      dup1\n      dup4\n      gt\n      tag_99\n      jumpi\n      dup3\n      swap1\n      sub\n      0x1f\n      and\n      dup3\n      add\n      swap2\n    tag_97:\n      pop\n      pop\n      pop\n      pop\n      pop\n      dup2\n      mstore\n      0x20\n      add\n      0x01\n      dup3\n      add\n      dup1\n      sload\n      tag_100\n      swap1\n      tag_74\n      jump\t// in\n    tag_100:\n      dup1\n      0x1f\n      add\n      0x20\n      dup1\n      swap2\n      div\n      mul\n      0x20\n      add\n      mload(0x40)\n      swap1\n      dup2\n      add\n      0x40\n      mstore\n      dup1\n      swap3\n      swap2\n      swap1\n      dup2\n      dup2\n      mstore\n      0x20\n      add\n      dup3\n      dup1\n      sload\n      tag_101\n      swap1\n      tag_74\n      jump\t// in\n    tag_101:\n      dup1\n      iszero\n      tag_102\n      jumpi\n      dup1\n      0x1f\n      lt\n      tag_103\n      jumpi\n      0x0100\n      dup1\n      dup4\n      sload\n      div\n      mul\n      dup4\n      mstore\n      swap2\n      0x20\n      add\n      swap2\n      jump(tag_102)\n    tag_103:\n      dup3\n      add\n      swap2\n      swap1\n      0x00\n      mstore\n      keccak256(0x00, 0x20)\n      swap1\n    tag_104:\n      dup2\n      sload\n      dup2\n      mstore\n      swap1\n      0x01\n      add\n      swap1\n      0x20\n      add\n      dup1\n      dup4\n      gt\n      tag_104\n      jumpi\n      dup3\n      swap1\n      sub\n      0x1f\n      and\n      dup3\n      add\n      swap2\n    tag_102:\n      pop\n      pop\n      pop\n      pop\n      pop\n      dup2\n      mstore\n      0x20\n      add\n      0x02\n      dup3\n      add\n      sload\n      dup2\n      mstore\n      pop\n      pop\n      tag_105\n      swap1\n        /* \"contracts/study-case-contracts/001-delivery-hiring/DeliveryHiring_O.sol\":2889:2949  messageContent_C1[0].evaluateNumberContent(_xPathContent[0]) */\n      swap2\n      swap1\n      0xffffffff\n      and\n      jump\t// in\n    tag_89:\n        /* \"contracts/study-case-contracts/001-delivery-hiring/DeliveryHiring_O.sol\":2831:2949  !timeout_C1[0].isTimeoutEnded(_accessDateTime)  &&\t\t\t... */\n    tag_88:\n        /* \"contracts/study-case-contracts/001-delivery-hiring/DeliveryHiring_O.sol\":2828:3071  if(!timeout_C1[0].isTimeoutEnded(_accessDateTime)  &&\t\t\t... */\n      iszero\n      tag_106\n      jumpi\n        /* \"contracts/study-case-contracts/001-delivery-hiring/DeliveryHiring_O.sol\":3000:3037  successEvent(\"Successful execution!\") */\n      0x95a1f3a1dafdd4c1af344e3d7c69a72cbce8a3f15fe1cf95a7f5bd23df2e71a1\n      mload(0x40)\n      tag_107\n      swap1\n      tag_108\n      jump\t// in\n    tag_107:\n      mload(0x40)\n      dup1\n      swap2\n      sub\n      swap1\n      log1\n        /* \"contracts/study-case-contracts/001-delivery-hiring/DeliveryHiring_O.sol\":3057:3061  true */\n      0x01\n        /* \"contracts/study-case-contracts/001-delivery-hiring/DeliveryHiring_O.sol\":3050:3061  return true */\n      swap1\n      pop\n      jump(tag_71)\n        /* \"contracts/study-case-contracts/001-delivery-hiring/DeliveryHiring_O.sol\":2828:3071  if(!timeout_C1[0].isTimeoutEnded(_accessDateTime)  &&\t\t\t... */\n    tag_106:\n        /* \"contracts/study-case-contracts/001-delivery-hiring/DeliveryHiring_O.sol\":3090:3161  failEvent(\"Request made outside of allowed hours or budget Id missing\") */\n      0x66091b7dc2b097c8f60d5cd6aa99633b097f08d2eb1056f3e15361b22e0ea2ba\n      mload(0x40)\n      tag_109\n      swap1\n      tag_110\n      jump\t// in\n    tag_109:\n      mload(0x40)\n      dup1\n      swap2\n      sub\n      swap1\n      log1\n        /* \"contracts/study-case-contracts/001-delivery-hiring/DeliveryHiring_O.sol\":3173:3178  false */\n      0x00\n        /* \"contracts/study-case-contracts/001-delivery-hiring/DeliveryHiring_O.sol\":3166:3178  return false */\n      swap1\n      pop\n        /* \"contracts/study-case-contracts/001-delivery-hiring/DeliveryHiring_O.sol\":5527:5528  _ */\n    tag_71:\n        /* \"contracts/study-case-contracts/001-delivery-hiring/DeliveryHiring_O.sol\":2512:3183  function responderOrder(uint32 _accessDateTime, int[] memory _xPathContent) public onlyApplication() returns(bool){... */\n      swap3\n      swap2\n      pop\n      pop\n      jump\t// out\n        /* \"contracts/study-case-contracts/001-delivery-hiring/DeliveryHiring_O.sol\":4115:4546  function changeApplicationParty(string memory _name, address _walletAddress) public returns(bool) {       ... */\n    tag_26:\n        /* \"contracts/study-case-contracts/001-delivery-hiring/DeliveryHiring_O.sol\":4207:4211  bool */\n      0x00\n        /* \"contracts/study-case-contracts/001-delivery-hiring/DeliveryHiring_O.sol\":4264:4274  msg.sender */\n      caller\n        /* \"contracts/study-case-contracts/001-delivery-hiring/DeliveryHiring_O.sol\":4239:4274  process.walletAddress == msg.sender */\n      0xffffffffffffffffffffffffffffffffffffffff\n      and\n        /* \"contracts/study-case-contracts/001-delivery-hiring/DeliveryHiring_O.sol\":4239:4246  process */\n      0x03\n        /* \"contracts/study-case-contracts/001-delivery-hiring/DeliveryHiring_O.sol\":4239:4260  process.walletAddress */\n      0x01\n      add\n      0x00\n      swap1\n      sload\n      swap1\n      0x0100\n      exp\n      swap1\n      div\n      0xffffffffffffffffffffffffffffffffffffffff\n      and\n        /* \"contracts/study-case-contracts/001-delivery-hiring/DeliveryHiring_O.sol\":4239:4274  process.walletAddress == msg.sender */\n      0xffffffffffffffffffffffffffffffffffffffff\n      and\n      eq\n        /* \"contracts/study-case-contracts/001-delivery-hiring/DeliveryHiring_O.sol\":4231:4322  require(process.walletAddress == msg.sender, \"Only the process can execute this operation\") */\n      tag_112\n      jumpi\n      mload(0x40)\n      0x08c379a000000000000000000000000000000000000000000000000000000000\n      dup2\n      mstore\n      0x04\n      add\n      tag_113\n      swap1\n      tag_57\n      jump\t// in\n    tag_113:\n      mload(0x40)\n      dup1\n      swap2\n      sub\n      swap1\n      revert\n    tag_112:\n        /* \"contracts/study-case-contracts/001-delivery-hiring/DeliveryHiring_O.sol\":4340:4348  mapParty */\n      0x05\n        /* \"contracts/study-case-contracts/001-delivery-hiring/DeliveryHiring_O.sol\":4340:4375  mapParty[application.walletAddress] */\n      0x00\n        /* \"contracts/study-case-contracts/001-delivery-hiring/DeliveryHiring_O.sol\":4349:4360  application */\n      0x01\n        /* \"contracts/study-case-contracts/001-delivery-hiring/DeliveryHiring_O.sol\":4349:4374  application.walletAddress */\n      dup1\n      add\n      0x00\n      swap1\n      sload\n      swap1\n      0x0100\n      exp\n      swap1\n      div\n      0xffffffffffffffffffffffffffffffffffffffff\n      and\n        /* \"contracts/study-case-contracts/001-delivery-hiring/DeliveryHiring_O.sol\":4340:4375  mapParty[application.walletAddress] */\n      0xffffffffffffffffffffffffffffffffffffffff\n      and\n      0xffffffffffffffffffffffffffffffffffffffff\n      and\n      dup2\n      mstore\n      0x20\n      add\n      swap1\n      dup2\n      mstore\n      0x20\n      add\n      0x00\n      keccak256\n      0x00\n        /* \"contracts/study-case-contracts/001-delivery-hiring/DeliveryHiring_O.sol\":4333:4375  delete mapParty[application.walletAddress] */\n      dup1\n      dup3\n      add\n      0x00\n      tag_114\n      swap2\n      swap1\n      tag_115\n      jump\t// in\n    tag_114:\n      0x01\n      dup3\n      add\n      exp(0x0100, 0x00)\n      dup2\n      sload\n      swap1\n      0xffffffffffffffffffffffffffffffffffffffff\n      mul\n      not\n      and\n      swap1\n      sstore\n      0x01\n      dup3\n      add\n      exp(0x0100, 0x14)\n      dup2\n      sload\n      swap1\n      0xff\n      mul\n      not\n      and\n      swap1\n      sstore\n      pop\n      pop\n        /* \"contracts/study-case-contracts/001-delivery-hiring/DeliveryHiring_O.sol\":4400:4445  EAI.createParty(_name, _walletAddress, false) */\n      tag_116\n        /* \"contracts/study-case-contracts/001-delivery-hiring/DeliveryHiring_O.sol\":4416:4421  _name */\n      dup4\n        /* \"contracts/study-case-contracts/001-delivery-hiring/DeliveryHiring_O.sol\":4423:4437  _walletAddress */\n      dup4\n        /* \"contracts/study-case-contracts/001-delivery-hiring/DeliveryHiring_O.sol\":4439:4444  false */\n      0x00\n        /* \"contracts/study-case-contracts/001-delivery-hiring/DeliveryHiring_O.sol\":4400:4415  EAI.createParty */\n      tag_48\n        /* \"contracts/study-case-contracts/001-delivery-hiring/DeliveryHiring_O.sol\":4400:4445  EAI.createParty(_name, _walletAddress, false) */\n      jump\t// in\n    tag_116:\n        /* \"contracts/study-case-contracts/001-delivery-hiring/DeliveryHiring_O.sol\":4386:4397  application */\n      0x01\n        /* \"contracts/study-case-contracts/001-delivery-hiring/DeliveryHiring_O.sol\":4386:4445  application = EAI.createParty(_name, _walletAddress, false) */\n      0x00\n      dup3\n      add\n      mload\n      dup2\n      0x00\n      add\n      swap1\n      dup1\n      mload\n      swap1\n      0x20\n      add\n      swap1\n      tag_117\n      swap3\n      swap2\n      swap1\n      tag_118\n      jump\t// in\n    tag_117:\n      pop\n      0x20\n      dup3\n      add\n      mload\n      dup2\n      0x01\n      add\n      exp(0x0100, 0x00)\n      dup2\n      sload\n      dup2\n      0xffffffffffffffffffffffffffffffffffffffff\n      mul\n      not\n      and\n      swap1\n      dup4\n      0xffffffffffffffffffffffffffffffffffffffff\n      and\n      mul\n      or\n      swap1\n      sstore\n      pop\n      0x40\n      dup3\n      add\n      mload\n      dup2\n      0x01\n      add\n      exp(0x0100, 0x14)\n      dup2\n      sload\n      dup2\n      0xff\n      mul\n      not\n      and\n      swap1\n      dup4\n      iszero\n      iszero\n      mul\n      or\n      swap1\n      sstore\n      pop\n      swap1\n      pop\n      pop\n        /* \"contracts/study-case-contracts/001-delivery-hiring/DeliveryHiring_O.sol\":4466:4509  updateMapParty(_walletAddress, application) */\n      tag_119\n        /* \"contracts/study-case-contracts/001-delivery-hiring/DeliveryHiring_O.sol\":4481:4495  _walletAddress */\n      dup3\n        /* \"contracts/study-case-contracts/001-delivery-hiring/DeliveryHiring_O.sol\":4497:4508  application */\n      0x01\n        /* \"contracts/study-case-contracts/001-delivery-hiring/DeliveryHiring_O.sol\":4466:4480  updateMapParty */\n      tag_120\n        /* \"contracts/study-case-contracts/001-delivery-hiring/DeliveryHiring_O.sol\":4466:4509  updateMapParty(_walletAddress, application) */\n      jump\t// in\n    tag_119:\n      pop\n        /* \"contracts/study-case-contracts/001-delivery-hiring/DeliveryHiring_O.sol\":4527:4531  true */\n      0x01\n        /* \"contracts/study-case-contracts/001-delivery-hiring/DeliveryHiring_O.sol\":4520:4531  return true */\n      swap1\n      pop\n        /* \"contracts/study-case-contracts/001-delivery-hiring/DeliveryHiring_O.sol\":4115:4546  function changeApplicationParty(string memory _name, address _walletAddress) public returns(bool) {       ... */\n      swap3\n      swap2\n      pop\n      pop\n      jump\t// out\n        /* \"contracts/study-case-contracts/001-delivery-hiring/DeliveryHiring_O.sol\":4694:4826  function getApplicationAddress() public view onlyInvolvedParties returns(address){... */\n    tag_29:\n        /* \"contracts/study-case-contracts/001-delivery-hiring/DeliveryHiring_O.sol\":4767:4774  address */\n      0x00\n        /* \"contracts/study-case-contracts/001-delivery-hiring/DeliveryHiring_O.sol\":5814:5823  activated */\n      dup1\n      0x00\n      swap1\n      sload\n      swap1\n      0x0100\n      exp\n      swap1\n      div\n      0xff\n      and\n        /* \"contracts/study-case-contracts/001-delivery-hiring/DeliveryHiring_O.sol\":5806:5856  require(activated, \"This contract is deactivated\") */\n      tag_122\n      jumpi\n      mload(0x40)\n      0x08c379a000000000000000000000000000000000000000000000000000000000\n      dup2\n      mstore\n      0x04\n      add\n      tag_123\n      swap1\n      tag_54\n      jump\t// in\n    tag_123:\n      mload(0x40)\n      dup1\n      swap2\n      sub\n      swap1\n      revert\n    tag_122:\n        /* \"contracts/study-case-contracts/001-delivery-hiring/DeliveryHiring_O.sol\":5919:5929  msg.sender */\n      caller\n        /* \"contracts/study-case-contracts/001-delivery-hiring/DeliveryHiring_O.sol\":5890:5929  application.walletAddress == msg.sender */\n      0xffffffffffffffffffffffffffffffffffffffff\n      and\n        /* \"contracts/study-case-contracts/001-delivery-hiring/DeliveryHiring_O.sol\":5890:5901  application */\n      0x01\n        /* \"contracts/study-case-contracts/001-delivery-hiring/DeliveryHiring_O.sol\":5890:5915  application.walletAddress */\n      dup1\n      add\n      0x00\n      swap1\n      sload\n      swap1\n      0x0100\n      exp\n      swap1\n      div\n      0xffffffffffffffffffffffffffffffffffffffff\n      and\n        /* \"contracts/study-case-contracts/001-delivery-hiring/DeliveryHiring_O.sol\":5890:5929  application.walletAddress == msg.sender */\n      0xffffffffffffffffffffffffffffffffffffffff\n      and\n      eq\n        /* \"contracts/study-case-contracts/001-delivery-hiring/DeliveryHiring_O.sol\":5890:5968  application.walletAddress == msg.sender || process.walletAddress == msg.sender */\n      dup1\n      tag_124\n      jumpi\n      pop\n        /* \"contracts/study-case-contracts/001-delivery-hiring/DeliveryHiring_O.sol\":5958:5968  msg.sender */\n      caller\n        /* \"contracts/study-case-contracts/001-delivery-hiring/DeliveryHiring_O.sol\":5933:5968  process.walletAddress == msg.sender */\n      0xffffffffffffffffffffffffffffffffffffffff\n      and\n        /* \"contracts/study-case-contracts/001-delivery-hiring/DeliveryHiring_O.sol\":5933:5940  process */\n      0x03\n        /* \"contracts/study-case-contracts/001-delivery-hiring/DeliveryHiring_O.sol\":5933:5954  process.walletAddress */\n      0x01\n      add\n      0x00\n      swap1\n      sload\n      swap1\n      0x0100\n      exp\n      swap1\n      div\n      0xffffffffffffffffffffffffffffffffffffffff\n      and\n        /* \"contracts/study-case-contracts/001-delivery-hiring/DeliveryHiring_O.sol\":5933:5968  process.walletAddress == msg.sender */\n      0xffffffffffffffffffffffffffffffffffffffff\n      and\n      eq\n        /* \"contracts/study-case-contracts/001-delivery-hiring/DeliveryHiring_O.sol\":5890:5968  application.walletAddress == msg.sender || process.walletAddress == msg.sender */\n    tag_124:\n        /* \"contracts/study-case-contracts/001-delivery-hiring/DeliveryHiring_O.sol\":5867:6051  require(... */\n      tag_125\n      jumpi\n      mload(0x40)\n      0x08c379a000000000000000000000000000000000000000000000000000000000\n      dup2\n      mstore\n      0x04\n      add\n      tag_126\n      swap1\n      tag_127\n      jump\t// in\n    tag_126:\n      mload(0x40)\n      dup1\n      swap2\n      sub\n      swap1\n      revert\n    tag_125:\n        /* \"contracts/study-case-contracts/001-delivery-hiring/DeliveryHiring_O.sol\":4793:4804  application */\n      0x01\n        /* \"contracts/study-case-contracts/001-delivery-hiring/DeliveryHiring_O.sol\":4793:4818  application.walletAddress */\n      dup1\n      add\n      0x00\n      swap1\n      sload\n      swap1\n      0x0100\n      exp\n      swap1\n      div\n      0xffffffffffffffffffffffffffffffffffffffff\n      and\n        /* \"contracts/study-case-contracts/001-delivery-hiring/DeliveryHiring_O.sol\":4786:4818  return application.walletAddress */\n      swap1\n      pop\n        /* \"contracts/study-case-contracts/001-delivery-hiring/DeliveryHiring_O.sol\":4694:4826  function getApplicationAddress() public view onlyInvolvedParties returns(address){... */\n      swap1\n      jump\t// out\n        /* \"contracts/study-case-contracts/001-delivery-hiring/DeliveryHiring_O.sol\":4558:4682  function getProcessAddress() public view onlyInvolvedParties returns(address){... */\n    tag_33:\n        /* \"contracts/study-case-contracts/001-delivery-hiring/DeliveryHiring_O.sol\":4627:4634  address */\n      0x00\n        /* \"contracts/study-case-contracts/001-delivery-hiring/DeliveryHiring_O.sol\":5814:5823  activated */\n      dup1\n      0x00\n      swap1\n      sload\n      swap1\n      0x0100\n      exp\n      swap1\n      div\n      0xff\n      and\n        /* \"contracts/study-case-contracts/001-delivery-hiring/DeliveryHiring_O.sol\":5806:5856  require(activated, \"This contract is deactivated\") */\n      tag_130\n      jumpi\n      mload(0x40)\n      0x08c379a000000000000000000000000000000000000000000000000000000000\n      dup2\n      mstore\n      0x04\n      add\n      tag_131\n      swap1\n      tag_54\n      jump\t// in\n    tag_131:\n      mload(0x40)\n      dup1\n      swap2\n      sub\n      swap1\n      revert\n    tag_130:\n        /* \"contracts/study-case-contracts/001-delivery-hiring/DeliveryHiring_O.sol\":5919:5929  msg.sender */\n      caller\n        /* \"contracts/study-case-contracts/001-delivery-hiring/DeliveryHiring_O.sol\":5890:5929  application.walletAddress == msg.sender */\n      0xffffffffffffffffffffffffffffffffffffffff\n      and\n        /* \"contracts/study-case-contracts/001-delivery-hiring/DeliveryHiring_O.sol\":5890:5901  application */\n      0x01\n        /* \"contracts/study-case-contracts/001-delivery-hiring/DeliveryHiring_O.sol\":5890:5915  application.walletAddress */\n      dup1\n      add\n      0x00\n      swap1\n      sload\n      swap1\n      0x0100\n      exp\n      swap1\n      div\n      0xffffffffffffffffffffffffffffffffffffffff\n      and\n        /* \"contracts/study-case-contracts/001-delivery-hiring/DeliveryHiring_O.sol\":5890:5929  application.walletAddress == msg.sender */\n      0xffffffffffffffffffffffffffffffffffffffff\n      and\n      eq\n        /* \"contracts/study-case-contracts/001-delivery-hiring/DeliveryHiring_O.sol\":5890:5968  application.walletAddress == msg.sender || process.walletAddress == msg.sender */\n      dup1\n      tag_132\n      jumpi\n      pop\n        /* \"contracts/study-case-contracts/001-delivery-hiring/DeliveryHiring_O.sol\":5958:5968  msg.sender */\n      caller\n        /* \"contracts/study-case-contracts/001-delivery-hiring/DeliveryHiring_O.sol\":5933:5968  process.walletAddress == msg.sender */\n      0xffffffffffffffffffffffffffffffffffffffff\n      and\n        /* \"contracts/study-case-contracts/001-delivery-hiring/DeliveryHiring_O.sol\":5933:5940  process */\n      0x03\n        /* \"contracts/study-case-contracts/001-delivery-hiring/DeliveryHiring_O.sol\":5933:5954  process.walletAddress */\n      0x01\n      add\n      0x00\n      swap1\n      sload\n      swap1\n      0x0100\n      exp\n      swap1\n      div\n      0xffffffffffffffffffffffffffffffffffffffff\n      and\n        /* \"contracts/study-case-contracts/001-delivery-hiring/DeliveryHiring_O.sol\":5933:5968  process.walletAddress == msg.sender */\n      0xffffffffffffffffffffffffffffffffffffffff\n      and\n      eq\n        /* \"contracts/study-case-contracts/001-delivery-hiring/DeliveryHiring_O.sol\":5890:5968  application.walletAddress == msg.sender || process.walletAddress == msg.sender */\n    tag_132:\n        /* \"contracts/study-case-contracts/001-delivery-hiring/DeliveryHiring_O.sol\":5867:6051  require(... */\n      tag_133\n      jumpi\n      mload(0x40)\n      0x08c379a000000000000000000000000000000000000000000000000000000000\n      dup2\n      mstore\n      0x04\n      add\n      tag_134\n      swap1\n      tag_127\n      jump\t// in\n    tag_134:\n      mload(0x40)\n      dup1\n      swap2\n      sub\n      swap1\n      revert\n    tag_133:\n        /* \"contracts/study-case-contracts/001-delivery-hiring/DeliveryHiring_O.sol\":4653:4660  process */\n      0x03\n        /* \"contracts/study-case-contracts/001-delivery-hiring/DeliveryHiring_O.sol\":4653:4674  process.walletAddress */\n      0x01\n      add\n      0x00\n      swap1\n      sload\n      swap1\n      0x0100\n      exp\n      swap1\n      div\n      0xffffffffffffffffffffffffffffffffffffffff\n      and\n        /* \"contracts/study-case-contracts/001-delivery-hiring/DeliveryHiring_O.sol\":4646:4674  return process.walletAddress */\n      swap1\n      pop\n        /* \"contracts/study-case-contracts/001-delivery-hiring/DeliveryHiring_O.sol\":4558:4682  function getProcessAddress() public view onlyInvolvedParties returns(address){... */\n      swap1\n      jump\t// out\n        /* \"contracts/study-case-contracts/001-delivery-hiring/DeliveryHiring_O.sol\":4991:5081  function activateContract()public onlyInvolvedParties(){... */\n    tag_36:\n        /* \"contracts/study-case-contracts/001-delivery-hiring/DeliveryHiring_O.sol\":5814:5823  activated */\n      0x00\n      dup1\n      sload\n      swap1\n      0x0100\n      exp\n      swap1\n      div\n      0xff\n      and\n        /* \"contracts/study-case-contracts/001-delivery-hiring/DeliveryHiring_O.sol\":5806:5856  require(activated, \"This contract is deactivated\") */\n      tag_137\n      jumpi\n      mload(0x40)\n      0x08c379a000000000000000000000000000000000000000000000000000000000\n      dup2\n      mstore\n      0x04\n      add\n      tag_138\n      swap1\n      tag_54\n      jump\t// in\n    tag_138:\n      mload(0x40)\n      dup1\n      swap2\n      sub\n      swap1\n      revert\n    tag_137:\n        /* \"contracts/study-case-contracts/001-delivery-hiring/DeliveryHiring_O.sol\":5919:5929  msg.sender */\n      caller\n        /* \"contracts/study-case-contracts/001-delivery-hiring/DeliveryHiring_O.sol\":5890:5929  application.walletAddress == msg.sender */\n      0xffffffffffffffffffffffffffffffffffffffff\n      and\n        /* \"contracts/study-case-contracts/001-delivery-hiring/DeliveryHiring_O.sol\":5890:5901  application */\n      0x01\n        /* \"contracts/study-case-contracts/001-delivery-hiring/DeliveryHiring_O.sol\":5890:5915  application.walletAddress */\n      dup1\n      add\n      0x00\n      swap1\n      sload\n      swap1\n      0x0100\n      exp\n      swap1\n      div\n      0xffffffffffffffffffffffffffffffffffffffff\n      and\n        /* \"contracts/study-case-contracts/001-delivery-hiring/DeliveryHiring_O.sol\":5890:5929  application.walletAddress == msg.sender */\n      0xffffffffffffffffffffffffffffffffffffffff\n      and\n      eq\n        /* \"contracts/study-case-contracts/001-delivery-hiring/DeliveryHiring_O.sol\":5890:5968  application.walletAddress == msg.sender || process.walletAddress == msg.sender */\n      dup1\n      tag_139\n      jumpi\n      pop\n        /* \"contracts/study-case-contracts/001-delivery-hiring/DeliveryHiring_O.sol\":5958:5968  msg.sender */\n      caller\n        /* \"contracts/study-case-contracts/001-delivery-hiring/DeliveryHiring_O.sol\":5933:5968  process.walletAddress == msg.sender */\n      0xffffffffffffffffffffffffffffffffffffffff\n      and\n        /* \"contracts/study-case-contracts/001-delivery-hiring/DeliveryHiring_O.sol\":5933:5940  process */\n      0x03\n        /* \"contracts/study-case-contracts/001-delivery-hiring/DeliveryHiring_O.sol\":5933:5954  process.walletAddress */\n      0x01\n      add\n      0x00\n      swap1\n      sload\n      swap1\n      0x0100\n      exp\n      swap1\n      div\n      0xffffffffffffffffffffffffffffffffffffffff\n      and\n        /* \"contracts/study-case-contracts/001-delivery-hiring/DeliveryHiring_O.sol\":5933:5968  process.walletAddress == msg.sender */\n      0xffffffffffffffffffffffffffffffffffffffff\n      and\n      eq\n        /* \"contracts/study-case-contracts/001-delivery-hiring/DeliveryHiring_O.sol\":5890:5968  application.walletAddress == msg.sender || process.walletAddress == msg.sender */\n    tag_139:\n        /* \"contracts/study-case-contracts/001-delivery-hiring/DeliveryHiring_O.sol\":5867:6051  require(... */\n      tag_140\n      jumpi\n      mload(0x40)\n      0x08c379a000000000000000000000000000000000000000000000000000000000\n      dup2\n      mstore\n      0x04\n      add\n      tag_141\n      swap1\n      tag_127\n      jump\t// in\n    tag_141:\n      mload(0x40)\n      dup1\n      swap2\n      sub\n      swap1\n      revert\n    tag_140:\n        /* \"contracts/study-case-contracts/001-delivery-hiring/DeliveryHiring_O.sol\":5069:5073  true */\n      0x01\n        /* \"contracts/study-case-contracts/001-delivery-hiring/DeliveryHiring_O.sol\":5057:5066  activated */\n      0x00\n      dup1\n        /* \"contracts/study-case-contracts/001-delivery-hiring/DeliveryHiring_O.sol\":5057:5073  activated = true */\n      0x0100\n      exp\n      dup2\n      sload\n      dup2\n      0xff\n      mul\n      not\n      and\n      swap1\n      dup4\n      iszero\n      iszero\n      mul\n      or\n      swap1\n      sstore\n      pop\n        /* \"contracts/study-case-contracts/001-delivery-hiring/DeliveryHiring_O.sol\":4991:5081  function activateContract()public onlyInvolvedParties(){... */\n      jump\t// out\n        /* \"contracts/study-case-contracts/001-delivery-hiring/DeliveryHiring_O.sol\":3515:3777  function signContract() public onlyApplication() returns(bool) {... */\n    tag_38:\n        /* \"contracts/study-case-contracts/001-delivery-hiring/DeliveryHiring_O.sol\":3572:3576  bool */\n      0x00\n        /* \"contracts/study-case-contracts/001-delivery-hiring/DeliveryHiring_O.sol\":5344:5353  activated */\n      dup1\n      0x00\n      swap1\n      sload\n      swap1\n      0x0100\n      exp\n      swap1\n      div\n      0xff\n      and\n        /* \"contracts/study-case-contracts/001-delivery-hiring/DeliveryHiring_O.sol\":5336:5386  require(activated, \"This contract is deactivated\") */\n      tag_144\n      jumpi\n      mload(0x40)\n      0x08c379a000000000000000000000000000000000000000000000000000000000\n      dup2\n      mstore\n      0x04\n      add\n      tag_145\n      swap1\n      tag_54\n      jump\t// in\n    tag_145:\n      mload(0x40)\n      dup1\n      swap2\n      sub\n      swap1\n      revert\n    tag_144:\n        /* \"contracts/study-case-contracts/001-delivery-hiring/DeliveryHiring_O.sol\":5450:5460  msg.sender */\n      caller\n        /* \"contracts/study-case-contracts/001-delivery-hiring/DeliveryHiring_O.sol\":5421:5460  application.walletAddress == msg.sender */\n      0xffffffffffffffffffffffffffffffffffffffff\n      and\n        /* \"contracts/study-case-contracts/001-delivery-hiring/DeliveryHiring_O.sol\":5421:5432  application */\n      0x01\n        /* \"contracts/study-case-contracts/001-delivery-hiring/DeliveryHiring_O.sol\":5421:5446  application.walletAddress */\n      dup1\n      add\n      0x00\n      swap1\n      sload\n      swap1\n      0x0100\n      exp\n      swap1\n      div\n      0xffffffffffffffffffffffffffffffffffffffff\n      and\n        /* \"contracts/study-case-contracts/001-delivery-hiring/DeliveryHiring_O.sol\":5421:5460  application.walletAddress == msg.sender */\n      0xffffffffffffffffffffffffffffffffffffffff\n      and\n      eq\n        /* \"contracts/study-case-contracts/001-delivery-hiring/DeliveryHiring_O.sol\":5413:5512  require(application.walletAddress == msg.sender, \"Only the application can execute this operation\") */\n      tag_146\n      jumpi\n      mload(0x40)\n      0x08c379a000000000000000000000000000000000000000000000000000000000\n      dup2\n      mstore\n      0x04\n      add\n      tag_147\n      swap1\n      tag_70\n      jump\t// in\n    tag_147:\n      mload(0x40)\n      dup1\n      swap2\n      sub\n      swap1\n      revert\n    tag_146:\n        /* \"contracts/study-case-contracts/001-delivery-hiring/DeliveryHiring_O.sol\":3618:3623  false */\n      0x00\n        /* \"contracts/study-case-contracts/001-delivery-hiring/DeliveryHiring_O.sol\":3597:3623  application.aware == false */\n      iszero\n      iszero\n        /* \"contracts/study-case-contracts/001-delivery-hiring/DeliveryHiring_O.sol\":3597:3608  application */\n      0x01\n        /* \"contracts/study-case-contracts/001-delivery-hiring/DeliveryHiring_O.sol\":3597:3614  application.aware */\n      dup1\n      add\n      0x14\n      swap1\n      sload\n      swap1\n      0x0100\n      exp\n      swap1\n      div\n      0xff\n      and\n        /* \"contracts/study-case-contracts/001-delivery-hiring/DeliveryHiring_O.sol\":3597:3623  application.aware == false */\n      iszero\n      iszero\n      eq\n        /* \"contracts/study-case-contracts/001-delivery-hiring/DeliveryHiring_O.sol\":3589:3658  require(application.aware == false, \"The contract is already signed\") */\n      tag_149\n      jumpi\n      mload(0x40)\n      0x08c379a000000000000000000000000000000000000000000000000000000000\n      dup2\n      mstore\n      0x04\n      add\n      tag_150\n      swap1\n      tag_151\n      jump\t// in\n    tag_150:\n      mload(0x40)\n      dup1\n      swap2\n      sub\n      swap1\n      revert\n    tag_149:\n        /* \"contracts/study-case-contracts/001-delivery-hiring/DeliveryHiring_O.sol\":3697:3701  true */\n      0x01\n        /* \"contracts/study-case-contracts/001-delivery-hiring/DeliveryHiring_O.sol\":3677:3688  application */\n      dup1\n        /* \"contracts/study-case-contracts/001-delivery-hiring/DeliveryHiring_O.sol\":3677:3694  application.aware */\n      0x01\n      add\n      0x14\n        /* \"contracts/study-case-contracts/001-delivery-hiring/DeliveryHiring_O.sol\":3677:3701  application.aware = true */\n      0x0100\n      exp\n      dup2\n      sload\n      dup2\n      0xff\n      mul\n      not\n      and\n      swap1\n      dup4\n      iszero\n      iszero\n      mul\n      or\n      swap1\n      sstore\n      pop\n        /* \"contracts/study-case-contracts/001-delivery-hiring/DeliveryHiring_O.sol\":3714:3753  updateMapParty(msg.sender, application) */\n      tag_152\n        /* \"contracts/study-case-contracts/001-delivery-hiring/DeliveryHiring_O.sol\":3729:3739  msg.sender */\n      caller\n        /* \"contracts/study-case-contracts/001-delivery-hiring/DeliveryHiring_O.sol\":3741:3752  application */\n      0x01\n        /* \"contracts/study-case-contracts/001-delivery-hiring/DeliveryHiring_O.sol\":3714:3728  updateMapParty */\n      tag_120\n        /* \"contracts/study-case-contracts/001-delivery-hiring/DeliveryHiring_O.sol\":3714:3753  updateMapParty(msg.sender, application) */\n      jump\t// in\n    tag_152:\n      pop\n        /* \"contracts/study-case-contracts/001-delivery-hiring/DeliveryHiring_O.sol\":3765:3769  true */\n      0x01\n        /* \"contracts/study-case-contracts/001-delivery-hiring/DeliveryHiring_O.sol\":3758:3769  return true */\n      swap1\n      pop\n        /* \"contracts/study-case-contracts/001-delivery-hiring/DeliveryHiring_O.sol\":3515:3777  function signContract() public onlyApplication() returns(bool) {... */\n      swap1\n      jump\t// out\n        /* \"contracts/study-case-contracts/001-delivery-hiring/DeliveryHiring_O.sol\":5087:5180  function deactivateContract()public onlyInvolvedParties(){... */\n    tag_41:\n        /* \"contracts/study-case-contracts/001-delivery-hiring/DeliveryHiring_O.sol\":5814:5823  activated */\n      0x00\n      dup1\n      sload\n      swap1\n      0x0100\n      exp\n      swap1\n      div\n      0xff\n      and\n        /* \"contracts/study-case-contracts/001-delivery-hiring/DeliveryHiring_O.sol\":5806:5856  require(activated, \"This contract is deactivated\") */\n      tag_154\n      jumpi\n      mload(0x40)\n      0x08c379a000000000000000000000000000000000000000000000000000000000\n      dup2\n      mstore\n      0x04\n      add\n      tag_155\n      swap1\n      tag_54\n      jump\t// in\n    tag_155:\n      mload(0x40)\n      dup1\n      swap2\n      sub\n      swap1\n      revert\n    tag_154:\n        /* \"contracts/study-case-contracts/001-delivery-hiring/DeliveryHiring_O.sol\":5919:5929  msg.sender */\n      caller\n        /* \"contracts/study-case-contracts/001-delivery-hiring/DeliveryHiring_O.sol\":5890:5929  application.walletAddress == msg.sender */\n      0xffffffffffffffffffffffffffffffffffffffff\n      and\n        /* \"contracts/study-case-contracts/001-delivery-hiring/DeliveryHiring_O.sol\":5890:5901  application */\n      0x01\n        /* \"contracts/study-case-contracts/001-delivery-hiring/DeliveryHiring_O.sol\":5890:5915  application.walletAddress */\n      dup1\n      add\n      0x00\n      swap1\n      sload\n      swap1\n      0x0100\n      exp\n      swap1\n      div\n      0xffffffffffffffffffffffffffffffffffffffff\n      and\n        /* \"contracts/study-case-contracts/001-delivery-hiring/DeliveryHiring_O.sol\":5890:5929  application.walletAddress == msg.sender */\n      0xffffffffffffffffffffffffffffffffffffffff\n      and\n      eq\n        /* \"contracts/study-case-contracts/001-delivery-hiring/DeliveryHiring_O.sol\":5890:5968  application.walletAddress == msg.sender || process.walletAddress == msg.sender */\n      dup1\n      tag_156\n      jumpi\n      pop\n        /* \"contracts/study-case-contracts/001-delivery-hiring/DeliveryHiring_O.sol\":5958:5968  msg.sender */\n      caller\n        /* \"contracts/study-case-contracts/001-delivery-hiring/DeliveryHiring_O.sol\":5933:5968  process.walletAddress == msg.sender */\n      0xffffffffffffffffffffffffffffffffffffffff\n      and\n        /* \"contracts/study-case-contracts/001-delivery-hiring/DeliveryHiring_O.sol\":5933:5940  process */\n      0x03\n        /* \"contracts/study-case-contracts/001-delivery-hiring/DeliveryHiring_O.sol\":5933:5954  process.walletAddress */\n      0x01\n      add\n      0x00\n      swap1\n      sload\n      swap1\n      0x0100\n      exp\n      swap1\n      div\n      0xffffffffffffffffffffffffffffffffffffffff\n      and\n        /* \"contracts/study-case-contracts/001-delivery-hiring/DeliveryHiring_O.sol\":5933:5968  process.walletAddress == msg.sender */\n      0xffffffffffffffffffffffffffffffffffffffff\n      and\n      eq\n        /* \"contracts/study-case-contracts/001-delivery-hiring/DeliveryHiring_O.sol\":5890:5968  application.walletAddress == msg.sender || process.walletAddress == msg.sender */\n    tag_156:\n        /* \"contracts/study-case-contracts/001-delivery-hiring/DeliveryHiring_O.sol\":5867:6051  require(... */\n      tag_157\n      jumpi\n      mload(0x40)\n      0x08c379a000000000000000000000000000000000000000000000000000000000\n      dup2\n      mstore\n      0x04\n      add\n      tag_158\n      swap1\n      tag_127\n      jump\t// in\n    tag_158:\n      mload(0x40)\n      dup1\n      swap2\n      sub\n      swap1\n      revert\n    tag_157:\n        /* \"contracts/study-case-contracts/001-delivery-hiring/DeliveryHiring_O.sol\":5167:5172  false */\n      0x00\n        /* \"contracts/study-case-contracts/001-delivery-hiring/DeliveryHiring_O.sol\":5155:5164  activated */\n      dup1\n      0x00\n        /* \"contracts/study-case-contracts/001-delivery-hiring/DeliveryHiring_O.sol\":5155:5172  activated = false */\n      0x0100\n      exp\n      dup2\n      sload\n      dup2\n      0xff\n      mul\n      not\n      and\n      swap1\n      dup4\n      iszero\n      iszero\n      mul\n      or\n      swap1\n      sstore\n      pop\n        /* \"contracts/study-case-contracts/001-delivery-hiring/DeliveryHiring_O.sol\":5087:5180  function deactivateContract()public onlyInvolvedParties(){... */\n      jump\t// out\n        /* \"contracts/study-case-contracts/001-delivery-hiring/DeliveryHiring_O.sol\":4834:4983  function getParty(address _walletAddress) public view onlyInvolvedParties returns(EAI.Party memory){... */\n    tag_45:\n        /* \"contracts/study-case-contracts/001-delivery-hiring/DeliveryHiring_O.sol\":4916:4932  EAI.Party memory */\n      tag_160\n      tag_161\n      jump\t// in\n    tag_160:\n        /* \"contracts/study-case-contracts/001-delivery-hiring/DeliveryHiring_O.sol\":5814:5823  activated */\n      0x00\n      dup1\n      sload\n      swap1\n      0x0100\n      exp\n      swap1\n      div\n      0xff\n      and\n        /* \"contracts/study-case-contracts/001-delivery-hiring/DeliveryHiring_O.sol\":5806:5856  require(activated, \"This contract is deactivated\") */\n      tag_163\n      jumpi\n      mload(0x40)\n      0x08c379a000000000000000000000000000000000000000000000000000000000\n      dup2\n      mstore\n      0x04\n      add\n      tag_164\n      swap1\n      tag_54\n      jump\t// in\n    tag_164:\n      mload(0x40)\n      dup1\n      swap2\n      sub\n      swap1\n      revert\n    tag_163:\n        /* \"contracts/study-case-contracts/001-delivery-hiring/DeliveryHiring_O.sol\":5919:5929  msg.sender */\n      caller\n        /* \"contracts/study-case-contracts/001-delivery-hiring/DeliveryHiring_O.sol\":5890:5929  application.walletAddress == msg.sender */\n      0xffffffffffffffffffffffffffffffffffffffff\n      and\n        /* \"contracts/study-case-contracts/001-delivery-hiring/DeliveryHiring_O.sol\":5890:5901  application */\n      0x01\n        /* \"contracts/study-case-contracts/001-delivery-hiring/DeliveryHiring_O.sol\":5890:5915  application.walletAddress */\n      dup1\n      add\n      0x00\n      swap1\n      sload\n      swap1\n      0x0100\n      exp\n      swap1\n      div\n      0xffffffffffffffffffffffffffffffffffffffff\n      and\n        /* \"contracts/study-case-contracts/001-delivery-hiring/DeliveryHiring_O.sol\":5890:5929  application.walletAddress == msg.sender */\n      0xffffffffffffffffffffffffffffffffffffffff\n      and\n      eq\n        /* \"contracts/study-case-contracts/001-delivery-hiring/DeliveryHiring_O.sol\":5890:5968  application.walletAddress == msg.sender || process.walletAddress == msg.sender */\n      dup1\n      tag_165\n      jumpi\n      pop\n        /* \"contracts/study-case-contracts/001-delivery-hiring/DeliveryHiring_O.sol\":5958:5968  msg.sender */\n      caller\n        /* \"contracts/study-case-contracts/001-delivery-hiring/DeliveryHiring_O.sol\":5933:5968  process.walletAddress == msg.sender */\n      0xffffffffffffffffffffffffffffffffffffffff\n      and\n        /* \"contracts/study-case-contracts/001-delivery-hiring/DeliveryHiring_O.sol\":5933:5940  process */\n      0x03\n        /* \"contracts/study-case-contracts/001-delivery-hiring/DeliveryHiring_O.sol\":5933:5954  process.walletAddress */\n      0x01\n      add\n      0x00\n      swap1\n      sload\n      swap1\n      0x0100\n      exp\n      swap1\n      div\n      0xffffffffffffffffffffffffffffffffffffffff\n      and\n        /* \"contracts/study-case-contracts/001-delivery-hiring/DeliveryHiring_O.sol\":5933:5968  process.walletAddress == msg.sender */\n      0xffffffffffffffffffffffffffffffffffffffff\n      and\n      eq\n        /* \"contracts/study-case-contracts/001-delivery-hiring/DeliveryHiring_O.sol\":5890:5968  application.walletAddress == msg.sender || process.walletAddress == msg.sender */\n    tag_165:\n        /* \"contracts/study-case-contracts/001-delivery-hiring/DeliveryHiring_O.sol\":5867:6051  require(... */\n      tag_166\n      jumpi\n      mload(0x40)\n      0x08c379a000000000000000000000000000000000000000000000000000000000\n      dup2\n      mstore\n      0x04\n      add\n      tag_167\n      swap1\n      tag_127\n      jump\t// in\n    tag_167:\n      mload(0x40)\n      dup1\n      swap2\n      sub\n      swap1\n      revert\n    tag_166:\n        /* \"contracts/study-case-contracts/001-delivery-hiring/DeliveryHiring_O.sol\":4951:4959  mapParty */\n      0x05\n        /* \"contracts/study-case-contracts/001-delivery-hiring/DeliveryHiring_O.sol\":4951:4975  mapParty[_walletAddress] */\n      0x00\n        /* \"contracts/study-case-contracts/001-delivery-hiring/DeliveryHiring_O.sol\":4960:4974  _walletAddress */\n      dup4\n        /* \"contracts/study-case-contracts/001-delivery-hiring/DeliveryHiring_O.sol\":4951:4975  mapParty[_walletAddress] */\n      0xffffffffffffffffffffffffffffffffffffffff\n      and\n      0xffffffffffffffffffffffffffffffffffffffff\n      and\n      dup2\n      mstore\n      0x20\n      add\n      swap1\n      dup2\n      mstore\n      0x20\n      add\n      0x00\n      keccak256\n        /* \"contracts/study-case-contracts/001-delivery-hiring/DeliveryHiring_O.sol\":4944:4975  return mapParty[_walletAddress] */\n      mload(0x40)\n      dup1\n      0x60\n      add\n      0x40\n      mstore\n      swap1\n      dup2\n      0x00\n      dup3\n      add\n      dup1\n      sload\n      tag_169\n      swap1\n      tag_74\n      jump\t// in\n    tag_169:\n      dup1\n      0x1f\n      add\n      0x20\n      dup1\n      swap2\n      div\n      mul\n      0x20\n      add\n      mload(0x40)\n      swap1\n      dup2\n      add\n      0x40\n      mstore\n      dup1\n      swap3\n      swap2\n      swap1\n      dup2\n      dup2\n      mstore\n      0x20\n      add\n      dup3\n      dup1\n      sload\n      tag_170\n      swap1\n      tag_74\n      jump\t// in\n    tag_170:\n      dup1\n      iszero\n      tag_171\n      jumpi\n      dup1\n      0x1f\n      lt\n      tag_172\n      jumpi\n      0x0100\n      dup1\n      dup4\n      sload\n      div\n      mul\n      dup4\n      mstore\n      swap2\n      0x20\n      add\n      swap2\n      jump(tag_171)\n    tag_172:\n      dup3\n      add\n      swap2\n      swap1\n      0x00\n      mstore\n      keccak256(0x00, 0x20)\n      swap1\n    tag_173:\n      dup2\n      sload\n      dup2\n      mstore\n      swap1\n      0x01\n      add\n      swap1\n      0x20\n      add\n      dup1\n      dup4\n      gt\n      tag_173\n      jumpi\n      dup3\n      swap1\n      sub\n      0x1f\n      and\n      dup3\n      add\n      swap2\n    tag_171:\n      pop\n      pop\n      pop\n      pop\n      pop\n      dup2\n      mstore\n      0x20\n      add\n      0x01\n      dup3\n      add\n      0x00\n      swap1\n      sload\n      swap1\n      0x0100\n      exp\n      swap1\n      div\n      0xffffffffffffffffffffffffffffffffffffffff\n      and\n      0xffffffffffffffffffffffffffffffffffffffff\n      and\n      0xffffffffffffffffffffffffffffffffffffffff\n      and\n      dup2\n      mstore\n      0x20\n      add\n      0x01\n      dup3\n      add\n      0x14\n      swap1\n      sload\n      swap1\n      0x0100\n      exp\n      swap1\n      div\n      0xff\n      and\n      iszero\n      iszero\n      iszero\n      iszero\n      dup2\n      mstore\n      pop\n      pop\n      swap1\n      pop\n        /* \"contracts/study-case-contracts/001-delivery-hiring/DeliveryHiring_O.sol\":4834:4983  function getParty(address _walletAddress) public view onlyInvolvedParties returns(EAI.Party memory){... */\n      swap2\n      swap1\n      pop\n      jump\t// out\n        /* \"contracts/lib/eai/EAI.sol\":1676:1852  function createParty(string memory _name, address _walletAddress, bool _aware) internal pure returns(Party memory){... */\n    tag_48:\n        /* \"contracts/lib/eai/EAI.sol\":1777:1789  Party memory */\n      tag_174\n      tag_161\n      jump\t// in\n    tag_174:\n        /* \"contracts/lib/eai/EAI.sol\":1808:1844  Party(_name, _walletAddress, _aware) */\n      mload(0x40)\n      dup1\n      0x60\n      add\n      0x40\n      mstore\n      dup1\n        /* \"contracts/lib/eai/EAI.sol\":1814:1819  _name */\n      dup6\n        /* \"contracts/lib/eai/EAI.sol\":1808:1844  Party(_name, _walletAddress, _aware) */\n      dup2\n      mstore\n      0x20\n      add\n        /* \"contracts/lib/eai/EAI.sol\":1821:1835  _walletAddress */\n      dup5\n        /* \"contracts/lib/eai/EAI.sol\":1808:1844  Party(_name, _walletAddress, _aware) */\n      0xffffffffffffffffffffffffffffffffffffffff\n      and\n      dup2\n      mstore\n      0x20\n      add\n        /* \"contracts/lib/eai/EAI.sol\":1837:1843  _aware */\n      dup4\n        /* \"contracts/lib/eai/EAI.sol\":1808:1844  Party(_name, _walletAddress, _aware) */\n      iszero\n      iszero\n      dup2\n      mstore\n      pop\n        /* \"contracts/lib/eai/EAI.sol\":1801:1844  return Party(_name, _walletAddress, _aware) */\n      swap1\n      pop\n        /* \"contracts/lib/eai/EAI.sol\":1676:1852  function createParty(string memory _name, address _walletAddress, bool _aware) internal pure returns(Party memory){... */\n      swap4\n      swap3\n      pop\n      pop\n      pop\n      jump\t// out\n        /* \"contracts/lib/eai/EAI.sol\":8420:8557  function createTimeout(uint32 _timeIncrement) internal pure returns (Timeout memory ){... */\n    tag_49:\n        /* \"contracts/lib/eai/EAI.sol\":8489:8503  Timeout memory */\n      tag_176\n      tag_177\n      jump\t// in\n    tag_176:\n        /* \"contracts/lib/eai/EAI.sol\":8523:8549  Timeout(0, _timeIncrement) */\n      mload(0x40)\n      dup1\n      0x40\n      add\n      0x40\n      mstore\n      dup1\n        /* \"contracts/lib/eai/EAI.sol\":8531:8532  0 */\n      0x00\n        /* \"contracts/lib/eai/EAI.sol\":8523:8549  Timeout(0, _timeIncrement) */\n      0xffffffff\n      and\n      dup2\n      mstore\n      0x20\n      add\n        /* \"contracts/lib/eai/EAI.sol\":8534:8548  _timeIncrement */\n      dup4\n        /* \"contracts/lib/eai/EAI.sol\":8523:8549  Timeout(0, _timeIncrement) */\n      0xffffffff\n      and\n      dup2\n      mstore\n      pop\n        /* \"contracts/lib/eai/EAI.sol\":8516:8549  return Timeout(0, _timeIncrement) */\n      swap1\n      pop\n        /* \"contracts/lib/eai/EAI.sol\":8420:8557  function createTimeout(uint32 _timeIncrement) internal pure returns (Timeout memory ){... */\n      swap2\n      swap1\n      pop\n      jump\t// out\n        /* \"contracts/lib/eai/EAI.sol\":16907:17126  function createMessageContent(string memory _xpath, string memory _op, int256 _content ) internal pure returns(MessageContent_Number memory){        ... */\n    tag_50:\n        /* \"contracts/lib/eai/EAI.sol\":17018:17046  MessageContent_Number memory */\n      tag_179\n      tag_180\n      jump\t// in\n    tag_179:\n        /* \"contracts/lib/eai/EAI.sol\":17073:17117  MessageContent_Number(_xpath, _op, _content) */\n      mload(0x40)\n      dup1\n      0x60\n      add\n      0x40\n      mstore\n      dup1\n        /* \"contracts/lib/eai/EAI.sol\":17095:17101  _xpath */\n      dup6\n        /* \"contracts/lib/eai/EAI.sol\":17073:17117  MessageContent_Number(_xpath, _op, _content) */\n      dup2\n      mstore\n      0x20\n      add\n        /* \"contracts/lib/eai/EAI.sol\":17103:17106  _op */\n      dup5\n        /* \"contracts/lib/eai/EAI.sol\":17073:17117  MessageContent_Number(_xpath, _op, _content) */\n      dup2\n      mstore\n      0x20\n      add\n        /* \"contracts/lib/eai/EAI.sol\":17108:17116  _content */\n      dup4\n        /* \"contracts/lib/eai/EAI.sol\":17073:17117  MessageContent_Number(_xpath, _op, _content) */\n      dup2\n      mstore\n      pop\n        /* \"contracts/lib/eai/EAI.sol\":17066:17117  return MessageContent_Number(_xpath, _op, _content) */\n      swap1\n      pop\n        /* \"contracts/lib/eai/EAI.sol\":16907:17126  function createMessageContent(string memory _xpath, string memory _op, int256 _content ) internal pure returns(MessageContent_Number memory){        ... */\n      swap4\n      swap3\n      pop\n      pop\n      pop\n      jump\t// out\n        /* \"contracts/lib/eai/EAI.sol\":8982:9175  function setEndTimeInTimeout(Timeout storage _timeout, uint32 _startTime)internal onlyValidAccessTime(_startTime){      ... */\n    tag_64:\n        /* \"contracts/lib/eai/EAI.sol\":9084:9094  _startTime */\n      dup1\n        /* \"contracts/lib/eai/EAI.sol\":9311:9332  string memory strTime */\n      0x00\n        /* \"contracts/lib/eai/EAI.sol\":9336:9354  uint2String(_time) */\n      tag_183\n        /* \"contracts/lib/eai/EAI.sol\":9348:9353  _time */\n      dup3\n        /* \"contracts/lib/eai/EAI.sol\":9336:9354  uint2String(_time) */\n      0xffffffff\n      and\n        /* \"contracts/lib/eai/EAI.sol\":9336:9347  uint2String */\n      tag_184\n        /* \"contracts/lib/eai/EAI.sol\":9336:9354  uint2String(_time) */\n      jump\t// in\n    tag_183:\n        /* \"contracts/lib/eai/EAI.sol\":9311:9354  string memory strTime  = uint2String(_time) */\n      swap1\n      pop\n        /* \"contracts/lib/eai/EAI.sol\":9398:9400  10 */\n      0x0a\n        /* \"contracts/lib/eai/EAI.sol\":9379:9386  strTime */\n      dup2\n        /* \"contracts/lib/eai/EAI.sol\":9373:9394  bytes(strTime).length */\n      mload\n        /* \"contracts/lib/eai/EAI.sol\":9373:9400  bytes(strTime).length <= 10 */\n      gt\n      iszero\n        /* \"contracts/lib/eai/EAI.sol\":9365:9401  require(bytes(strTime).length <= 10) */\n      tag_185\n      jumpi\n      0x00\n      dup1\n      revert\n    tag_185:\n        /* \"contracts/lib/eai/EAI.sol\":9144:9152  _timeout */\n      dup4\n        /* \"contracts/lib/eai/EAI.sol\":9144:9166  _timeout.timeIncrement */\n      0x00\n      add\n      0x04\n      swap1\n      sload\n      swap1\n      0x0100\n      exp\n      swap1\n      div\n      0xffffffff\n      and\n        /* \"contracts/lib/eai/EAI.sol\":9131:9141  _startTime */\n      dup4\n        /* \"contracts/lib/eai/EAI.sol\":9131:9166  _startTime + _timeout.timeIncrement */\n      tag_187\n      swap2\n      swap1\n      tag_188\n      jump\t// in\n    tag_187:\n        /* \"contracts/lib/eai/EAI.sol\":9112:9120  _timeout */\n      dup5\n        /* \"contracts/lib/eai/EAI.sol\":9112:9128  _timeout.endTime */\n      0x00\n      add\n      0x00\n        /* \"contracts/lib/eai/EAI.sol\":9112:9166  _timeout.endTime = _startTime + _timeout.timeIncrement */\n      0x0100\n      exp\n      dup2\n      sload\n      dup2\n      0xffffffff\n      mul\n      not\n      and\n      swap1\n      dup4\n      0xffffffff\n      and\n      mul\n      or\n      swap1\n      sstore\n      pop\n        /* \"contracts/lib/eai/EAI.sol\":9300:9445  {... */\n      pop\n        /* \"contracts/lib/eai/EAI.sol\":8982:9175  function setEndTimeInTimeout(Timeout storage _timeout, uint32 _startTime)internal onlyValidAccessTime(_startTime){      ... */\n      pop\n      pop\n      pop\n      jump\t// out\n        /* \"contracts/lib/eai/EAI.sol\":2458:2561  function isAware(Party memory _party) internal pure returns(bool){... */\n    tag_79:\n        /* \"contracts/lib/eai/EAI.sol\":2518:2522  bool */\n      0x00\n        /* \"contracts/lib/eai/EAI.sol\":2541:2547  _party */\n      dup2\n        /* \"contracts/lib/eai/EAI.sol\":2541:2553  _party.aware */\n      0x40\n      add\n      mload\n        /* \"contracts/lib/eai/EAI.sol\":2534:2553  return _party.aware */\n      swap1\n      pop\n        /* \"contracts/lib/eai/EAI.sol\":2458:2561  function isAware(Party memory _party) internal pure returns(bool){... */\n      swap2\n      swap1\n      pop\n      jump\t// out\n        /* \"contracts/lib/eai/EAI.sol\":8569:8840  function isTimeoutEnded(Timeout memory _timeout, uint32 _accessTime) internal pure onlyValidAccessTime(_accessTime) returns(bool){        ... */\n    tag_87:\n        /* \"contracts/lib/eai/EAI.sol\":8693:8697  bool */\n      0x00\n        /* \"contracts/lib/eai/EAI.sol\":8672:8683  _accessTime */\n      dup2\n        /* \"contracts/lib/eai/EAI.sol\":9311:9332  string memory strTime */\n      0x00\n        /* \"contracts/lib/eai/EAI.sol\":9336:9354  uint2String(_time) */\n      tag_191\n        /* \"contracts/lib/eai/EAI.sol\":9348:9353  _time */\n      dup3\n        /* \"contracts/lib/eai/EAI.sol\":9336:9354  uint2String(_time) */\n      0xffffffff\n      and\n        /* \"contracts/lib/eai/EAI.sol\":9336:9347  uint2String */\n      tag_184\n        /* \"contracts/lib/eai/EAI.sol\":9336:9354  uint2String(_time) */\n      jump\t// in\n    tag_191:\n        /* \"contracts/lib/eai/EAI.sol\":9311:9354  string memory strTime  = uint2String(_time) */\n      swap1\n      pop\n        /* \"contracts/lib/eai/EAI.sol\":9398:9400  10 */\n      0x0a\n        /* \"contracts/lib/eai/EAI.sol\":9379:9386  strTime */\n      dup2\n        /* \"contracts/lib/eai/EAI.sol\":9373:9394  bytes(strTime).length */\n      mload\n        /* \"contracts/lib/eai/EAI.sol\":9373:9400  bytes(strTime).length <= 10 */\n      gt\n      iszero\n        /* \"contracts/lib/eai/EAI.sol\":9365:9401  require(bytes(strTime).length <= 10) */\n      tag_192\n      jumpi\n      0x00\n      dup1\n      revert\n    tag_192:\n        /* \"contracts/lib/eai/EAI.sol\":8744:8745  0 */\n      0x00\n        /* \"contracts/lib/eai/EAI.sol\":8725:8733  _timeout */\n      dup6\n        /* \"contracts/lib/eai/EAI.sol\":8725:8741  _timeout.endTime */\n      0x00\n      add\n      mload\n        /* \"contracts/lib/eai/EAI.sol\":8725:8745  _timeout.endTime > 0 */\n      0xffffffff\n      and\n      gt\n        /* \"contracts/lib/eai/EAI.sol\":8717:8784  require(_timeout.endTime > 0, \"There is no endTime set in timeout\") */\n      tag_194\n      jumpi\n      mload(0x40)\n      0x08c379a000000000000000000000000000000000000000000000000000000000\n      dup2\n      mstore\n      0x04\n      add\n      tag_195\n      swap1\n      tag_196\n      jump\t// in\n    tag_195:\n      mload(0x40)\n      dup1\n      swap2\n      sub\n      swap1\n      revert\n    tag_194:\n        /* \"contracts/lib/eai/EAI.sol\":8816:8824  _timeout */\n      dup5\n        /* \"contracts/lib/eai/EAI.sol\":8816:8832  _timeout.endTime */\n      0x00\n      add\n      mload\n        /* \"contracts/lib/eai/EAI.sol\":8802:8832  _accessTime > _timeout.endTime */\n      0xffffffff\n      and\n        /* \"contracts/lib/eai/EAI.sol\":8802:8813  _accessTime */\n      dup5\n        /* \"contracts/lib/eai/EAI.sol\":8802:8832  _accessTime > _timeout.endTime */\n      0xffffffff\n      and\n      gt\n        /* \"contracts/lib/eai/EAI.sol\":8795:8832  return _accessTime > _timeout.endTime */\n      swap3\n      pop\n        /* \"contracts/lib/eai/EAI.sol\":9300:9445  {... */\n      pop\n        /* \"contracts/lib/eai/EAI.sol\":8569:8840  function isTimeoutEnded(Timeout memory _timeout, uint32 _accessTime) internal pure onlyValidAccessTime(_accessTime) returns(bool){        ... */\n      pop\n      swap3\n      swap2\n      pop\n      pop\n      jump\t// out\n        /* \"contracts/lib/eai/EAI.sol\":17134:18405  function evaluateNumberContent(MessageContent_Number memory msgContent, int256 _content) internal pure returns(bool){... */\n    tag_105:\n        /* \"contracts/lib/eai/EAI.sol\":17245:17249  bool */\n      0x00\n        /* \"contracts/lib/eai/EAI.sol\":17261:17279  bytes memory chars */\n      dup1\n        /* \"contracts/lib/eai/EAI.sol\":17288:17298  msgContent */\n      dup4\n        /* \"contracts/lib/eai/EAI.sol\":17288:17301  msgContent.op */\n      0x20\n      add\n      mload\n        /* \"contracts/lib/eai/EAI.sol\":17261:17302  bytes memory chars = bytes(msgContent.op) */\n      swap1\n      pop\n        /* \"contracts/lib/eai/EAI.sol\":17332:17336  0x21 */\n      0x21\n        /* \"contracts/lib/eai/EAI.sol\":17319:17336  chars[0] ==  0x21 */\n      0xf8\n      shl\n        /* \"contracts/lib/eai/EAI.sol\":17319:17324  chars */\n      dup2\n        /* \"contracts/lib/eai/EAI.sol\":17325:17326  0 */\n      0x00\n        /* \"contracts/lib/eai/EAI.sol\":17319:17327  chars[0] */\n      dup2\n      mload\n      dup2\n      lt\n      tag_198\n      jumpi\n      tag_199\n      tag_62\n      jump\t// in\n    tag_199:\n    tag_198:\n      0x20\n      add\n      add\n      mload\n      0xf8\n      shr\n      0xf8\n      shl\n        /* \"contracts/lib/eai/EAI.sol\":17319:17336  chars[0] ==  0x21 */\n      not(0xffffffffffffffffffffffffffffffffffffffffffffffffffffffffffffff)\n      and\n      eq\n        /* \"contracts/lib/eai/EAI.sol\":17315:18201  if( chars[0] ==  0x21 ){// if chars[0] is '!'... */\n      iszero\n      tag_200\n      jumpi\n        /* \"contracts/lib/eai/EAI.sol\":17393:17403  msgContent */\n      dup4\n        /* \"contracts/lib/eai/EAI.sol\":17393:17411  msgContent.content */\n      0x40\n      add\n      mload\n        /* \"contracts/lib/eai/EAI.sol\":17381:17389  _content */\n      dup4\n        /* \"contracts/lib/eai/EAI.sol\":17381:17411  _content != msgContent.content */\n      eq\n      iszero\n        /* \"contracts/lib/eai/EAI.sol\":17374:17411  return _content != msgContent.content */\n      swap2\n      pop\n      pop\n      jump(tag_197)\n        /* \"contracts/lib/eai/EAI.sol\":17315:18201  if( chars[0] ==  0x21 ){// if chars[0] is '!'... */\n    tag_200:\n        /* \"contracts/lib/eai/EAI.sol\":17453:17457  0x3D */\n      0x3d\n        /* \"contracts/lib/eai/EAI.sol\":17441:17457  chars[0] == 0x3D */\n      0xf8\n      shl\n        /* \"contracts/lib/eai/EAI.sol\":17441:17446  chars */\n      dup2\n        /* \"contracts/lib/eai/EAI.sol\":17447:17448  0 */\n      0x00\n        /* \"contracts/lib/eai/EAI.sol\":17441:17449  chars[0] */\n      dup2\n      mload\n      dup2\n      lt\n      tag_202\n      jumpi\n      tag_203\n      tag_62\n      jump\t// in\n    tag_203:\n    tag_202:\n      0x20\n      add\n      add\n      mload\n      0xf8\n      shr\n      0xf8\n      shl\n        /* \"contracts/lib/eai/EAI.sol\":17441:17457  chars[0] == 0x3D */\n      not(0xffffffffffffffffffffffffffffffffffffffffffffffffffffffffffffff)\n      and\n      eq\n        /* \"contracts/lib/eai/EAI.sol\":17437:18201  if( chars[0] == 0x3D ){ // if chars[0] is '='... */\n      iszero\n      tag_204\n      jumpi\n        /* \"contracts/lib/eai/EAI.sol\":17515:17525  msgContent */\n      dup4\n        /* \"contracts/lib/eai/EAI.sol\":17515:17533  msgContent.content */\n      0x40\n      add\n      mload\n        /* \"contracts/lib/eai/EAI.sol\":17503:17511  _content */\n      dup4\n        /* \"contracts/lib/eai/EAI.sol\":17503:17533  _content == msgContent.content */\n      eq\n        /* \"contracts/lib/eai/EAI.sol\":17496:17533  return _content == msgContent.content */\n      swap2\n      pop\n      pop\n      jump(tag_197)\n        /* \"contracts/lib/eai/EAI.sol\":17437:18201  if( chars[0] == 0x3D ){ // if chars[0] is '='... */\n    tag_204:\n        /* \"contracts/lib/eai/EAI.sol\":17576:17580  0x3C */\n      0x3c\n        /* \"contracts/lib/eai/EAI.sol\":17564:17580  chars[0] == 0x3C */\n      0xf8\n      shl\n        /* \"contracts/lib/eai/EAI.sol\":17564:17569  chars */\n      dup2\n        /* \"contracts/lib/eai/EAI.sol\":17570:17571  0 */\n      0x00\n        /* \"contracts/lib/eai/EAI.sol\":17564:17572  chars[0] */\n      dup2\n      mload\n      dup2\n      lt\n      tag_206\n      jumpi\n      tag_207\n      tag_62\n      jump\t// in\n    tag_207:\n    tag_206:\n      0x20\n      add\n      add\n      mload\n      0xf8\n      shr\n      0xf8\n      shl\n        /* \"contracts/lib/eai/EAI.sol\":17564:17580  chars[0] == 0x3C */\n      not(0xffffffffffffffffffffffffffffffffffffffffffffffffffffffffffffff)\n      and\n      eq\n        /* \"contracts/lib/eai/EAI.sol\":17560:18201  if( chars[0] == 0x3C ){// if chars[0] is '<'... */\n      iszero\n      tag_208\n      jumpi\n        /* \"contracts/lib/eai/EAI.sol\":17637:17638  2 */\n      0x02\n        /* \"contracts/lib/eai/EAI.sol\":17621:17626  chars */\n      dup2\n        /* \"contracts/lib/eai/EAI.sol\":17621:17633  chars.length */\n      mload\n        /* \"contracts/lib/eai/EAI.sol\":17621:17638  chars.length == 2 */\n      eq\n        /* \"contracts/lib/eai/EAI.sol\":17618:17836  if(chars.length == 2){// if chars is '<='                ... */\n      iszero\n      tag_209\n      jumpi\n        /* \"contracts/lib/eai/EAI.sol\":17712:17722  msgContent */\n      dup4\n        /* \"contracts/lib/eai/EAI.sol\":17712:17730  msgContent.content */\n      0x40\n      add\n      mload\n        /* \"contracts/lib/eai/EAI.sol\":17700:17708  _content */\n      dup4\n        /* \"contracts/lib/eai/EAI.sol\":17700:17730  _content <= msgContent.content */\n      sgt\n      iszero\n        /* \"contracts/lib/eai/EAI.sol\":17693:17730  return _content <= msgContent.content */\n      swap2\n      pop\n      pop\n      jump(tag_197)\n        /* \"contracts/lib/eai/EAI.sol\":17618:17836  if(chars.length == 2){// if chars is '<='                ... */\n    tag_209:\n        /* \"contracts/lib/eai/EAI.sol\":17802:17812  msgContent */\n      dup4\n        /* \"contracts/lib/eai/EAI.sol\":17802:17820  msgContent.content */\n      0x40\n      add\n      mload\n        /* \"contracts/lib/eai/EAI.sol\":17791:17799  _content */\n      dup4\n        /* \"contracts/lib/eai/EAI.sol\":17791:17820  _content < msgContent.content */\n      slt\n        /* \"contracts/lib/eai/EAI.sol\":17784:17820  return _content < msgContent.content */\n      swap2\n      pop\n      pop\n      jump(tag_197)\n        /* \"contracts/lib/eai/EAI.sol\":17560:18201  if( chars[0] == 0x3C ){// if chars[0] is '<'... */\n    tag_208:\n        /* \"contracts/lib/eai/EAI.sol\":17872:17876  0x3E */\n      0x3e\n        /* \"contracts/lib/eai/EAI.sol\":17860:17876  chars[0] == 0x3E */\n      0xf8\n      shl\n        /* \"contracts/lib/eai/EAI.sol\":17860:17865  chars */\n      dup2\n        /* \"contracts/lib/eai/EAI.sol\":17866:17867  0 */\n      0x00\n        /* \"contracts/lib/eai/EAI.sol\":17860:17868  chars[0] */\n      dup2\n      mload\n      dup2\n      lt\n      tag_212\n      jumpi\n      tag_213\n      tag_62\n      jump\t// in\n    tag_213:\n    tag_212:\n      0x20\n      add\n      add\n      mload\n      0xf8\n      shr\n      0xf8\n      shl\n        /* \"contracts/lib/eai/EAI.sol\":17860:17876  chars[0] == 0x3E */\n      not(0xffffffffffffffffffffffffffffffffffffffffffffffffffffffffffffff)\n      and\n      eq\n        /* \"contracts/lib/eai/EAI.sol\":17856:18201  if( chars[0] == 0x3E ){ // if( chars[0] == 0x3E ){// if chars[0] is '>'... */\n      iszero\n      tag_214\n      jumpi\n        /* \"contracts/lib/eai/EAI.sol\":17961:17962  2 */\n      0x02\n        /* \"contracts/lib/eai/EAI.sol\":17945:17950  chars */\n      dup2\n        /* \"contracts/lib/eai/EAI.sol\":17945:17957  chars.length */\n      mload\n        /* \"contracts/lib/eai/EAI.sol\":17945:17962  chars.length == 2 */\n      eq\n        /* \"contracts/lib/eai/EAI.sol\":17942:18190  if(chars.length == 2){// if chars is '>='              ... */\n      iszero\n      tag_215\n      jumpi\n        /* \"contracts/lib/eai/EAI.sol\":18034:18044  msgContent */\n      dup4\n        /* \"contracts/lib/eai/EAI.sol\":18034:18052  msgContent.content */\n      0x40\n      add\n      mload\n        /* \"contracts/lib/eai/EAI.sol\":18022:18030  _content */\n      dup4\n        /* \"contracts/lib/eai/EAI.sol\":18022:18052  _content >= msgContent.content */\n      slt\n      iszero\n        /* \"contracts/lib/eai/EAI.sol\":18015:18052  return _content >= msgContent.content */\n      swap2\n      pop\n      pop\n      jump(tag_197)\n        /* \"contracts/lib/eai/EAI.sol\":17942:18190  if(chars.length == 2){// if chars is '>='              ... */\n    tag_215:\n        /* \"contracts/lib/eai/EAI.sol\":18140:18150  msgContent */\n      dup4\n        /* \"contracts/lib/eai/EAI.sol\":18140:18158  msgContent.content */\n      0x40\n      add\n      mload\n        /* \"contracts/lib/eai/EAI.sol\":18129:18137  _content */\n      dup4\n        /* \"contracts/lib/eai/EAI.sol\":18129:18158  _content > msgContent.content */\n      sgt\n        /* \"contracts/lib/eai/EAI.sol\":18122:18158  return _content > msgContent.content */\n      swap2\n      pop\n      pop\n      jump(tag_197)\n        /* \"contracts/lib/eai/EAI.sol\":17856:18201  if( chars[0] == 0x3E ){ // if( chars[0] == 0x3E ){// if chars[0] is '>'... */\n    tag_214:\n        /* \"contracts/lib/eai/EAI.sol\":18248:18253  false */\n      0x00\n        /* \"contracts/lib/eai/EAI.sol\":18240:18288  require(false, \"Comparison symbol is not valid\") */\n      tag_217\n      jumpi\n      mload(0x40)\n      0x08c379a000000000000000000000000000000000000000000000000000000000\n      dup2\n      mstore\n      0x04\n      add\n      tag_218\n      swap1\n      tag_219\n      jump\t// in\n    tag_218:\n      mload(0x40)\n      dup1\n      swap2\n      sub\n      swap1\n      revert\n    tag_217:\n        /* \"contracts/lib/eai/EAI.sol\":18306:18311  false */\n      0x00\n        /* \"contracts/lib/eai/EAI.sol\":18299:18311  return false */\n      swap2\n      pop\n      pop\n        /* \"contracts/lib/eai/EAI.sol\":17134:18405  function evaluateNumberContent(MessageContent_Number memory msgContent, int256 _content) internal pure returns(bool){... */\n    tag_197:\n      swap3\n      swap2\n      pop\n      pop\n      jump\t// out\n        /* \"contracts/study-case-contracts/001-delivery-hiring/DeliveryHiring_O.sol\":3785:3955  function updateMapParty(address _walletAddress, EAI.Party storage _party)internal returns(bool){       ... */\n    tag_120:\n        /* \"contracts/study-case-contracts/001-delivery-hiring/DeliveryHiring_O.sol\":3875:3879  bool */\n      0x00\n        /* \"contracts/study-case-contracts/001-delivery-hiring/DeliveryHiring_O.sol\":3925:3931  _party */\n      dup2\n        /* \"contracts/study-case-contracts/001-delivery-hiring/DeliveryHiring_O.sol\":3898:3906  mapParty */\n      0x05\n        /* \"contracts/study-case-contracts/001-delivery-hiring/DeliveryHiring_O.sol\":3898:3922  mapParty[_walletAddress] */\n      0x00\n        /* \"contracts/study-case-contracts/001-delivery-hiring/DeliveryHiring_O.sol\":3907:3921  _walletAddress */\n      dup6\n        /* \"contracts/study-case-contracts/001-delivery-hiring/DeliveryHiring_O.sol\":3898:3922  mapParty[_walletAddress] */\n      0xffffffffffffffffffffffffffffffffffffffff\n      and\n      0xffffffffffffffffffffffffffffffffffffffff\n      and\n      dup2\n      mstore\n      0x20\n      add\n      swap1\n      dup2\n      mstore\n      0x20\n      add\n      0x00\n      keccak256\n        /* \"contracts/study-case-contracts/001-delivery-hiring/DeliveryHiring_O.sol\":3898:3931  mapParty[_walletAddress] = _party */\n      0x00\n      dup3\n      add\n      dup2\n      0x00\n      add\n      swap1\n      dup1\n      sload\n      tag_221\n      swap1\n      tag_74\n      jump\t// in\n    tag_221:\n      tag_222\n      swap3\n      swap2\n      swap1\n      tag_223\n      jump\t// in\n    tag_222:\n      pop\n      0x01\n      dup3\n      add\n      0x00\n      swap1\n      sload\n      swap1\n      0x0100\n      exp\n      swap1\n      div\n      0xffffffffffffffffffffffffffffffffffffffff\n      and\n      dup2\n      0x01\n      add\n      exp(0x0100, 0x00)\n      dup2\n      sload\n      dup2\n      0xffffffffffffffffffffffffffffffffffffffff\n      mul\n      not\n      and\n      swap1\n      dup4\n      0xffffffffffffffffffffffffffffffffffffffff\n      and\n      mul\n      or\n      swap1\n      sstore\n      pop\n      0x01\n      dup3\n      add\n      0x14\n      swap1\n      sload\n      swap1\n      0x0100\n      exp\n      swap1\n      div\n      0xff\n      and\n      dup2\n      0x01\n      add\n      exp(0x0100, 0x14)\n      dup2\n      sload\n      dup2\n      0xff\n      mul\n      not\n      and\n      swap1\n      dup4\n      iszero\n      iszero\n      mul\n      or\n      swap1\n      sstore\n      pop\n      swap1\n      pop\n      pop\n        /* \"contracts/study-case-contracts/001-delivery-hiring/DeliveryHiring_O.sol\":3943:3947  true */\n      0x01\n        /* \"contracts/study-case-contracts/001-delivery-hiring/DeliveryHiring_O.sol\":3936:3947  return true */\n      swap1\n      pop\n        /* \"contracts/study-case-contracts/001-delivery-hiring/DeliveryHiring_O.sol\":3785:3955  function updateMapParty(address _walletAddress, EAI.Party storage _party)internal returns(bool){       ... */\n      swap3\n      swap2\n      pop\n      pop\n      jump\t// out\n        /* \"contracts/lib/eai/EAI.sol\":31242:31787  function uint2String(uint256 value) internal pure returns (string memory) {... */\n    tag_184:\n        /* \"contracts/lib/eai/EAI.sol\":31301:31314  string memory */\n      0x60\n        /* \"contracts/lib/eai/EAI.sol\":31350:31351  0 */\n      0x00\n        /* \"contracts/lib/eai/EAI.sol\":31341:31346  value */\n      dup3\n        /* \"contracts/lib/eai/EAI.sol\":31341:31351  value == 0 */\n      eq\n        /* \"contracts/lib/eai/EAI.sol\":31337:31390  if (value == 0) {... */\n      iszero\n      tag_225\n      jumpi\n        /* \"contracts/lib/eai/EAI.sol\":31368:31378  return \"0\" */\n      mload(0x40)\n      dup1\n      0x40\n      add\n      0x40\n      mstore\n      dup1\n      0x01\n      dup2\n      mstore\n      0x20\n      add\n      0x3000000000000000000000000000000000000000000000000000000000000000\n      dup2\n      mstore\n      pop\n      swap1\n      pop\n      jump(tag_224)\n        /* \"contracts/lib/eai/EAI.sol\":31337:31390  if (value == 0) {... */\n    tag_225:\n        /* \"contracts/lib/eai/EAI.sol\":31400:31412  uint256 temp */\n      0x00\n        /* \"contracts/lib/eai/EAI.sol\":31415:31420  value */\n      dup3\n        /* \"contracts/lib/eai/EAI.sol\":31400:31420  uint256 temp = value */\n      swap1\n      pop\n        /* \"contracts/lib/eai/EAI.sol\":31431:31445  uint256 digits */\n      0x00\n        /* \"contracts/lib/eai/EAI.sol\":31456:31534  while (temp != 0) {... */\n    tag_226:\n        /* \"contracts/lib/eai/EAI.sol\":31471:31472  0 */\n      0x00\n        /* \"contracts/lib/eai/EAI.sol\":31463:31467  temp */\n      dup3\n        /* \"contracts/lib/eai/EAI.sol\":31463:31472  temp != 0 */\n      eq\n        /* \"contracts/lib/eai/EAI.sol\":31456:31534  while (temp != 0) {... */\n      tag_227\n      jumpi\n        /* \"contracts/lib/eai/EAI.sol\":31489:31497  digits++ */\n      dup1\n      dup1\n      tag_228\n      swap1\n      tag_229\n      jump\t// in\n    tag_228:\n      swap2\n      pop\n      pop\n        /* \"contracts/lib/eai/EAI.sol\":31520:31522  10 */\n      0x0a\n        /* \"contracts/lib/eai/EAI.sol\":31512:31522  temp /= 10 */\n      dup3\n      tag_230\n      swap2\n      swap1\n      tag_231\n      jump\t// in\n    tag_230:\n      swap2\n      pop\n        /* \"contracts/lib/eai/EAI.sol\":31456:31534  while (temp != 0) {... */\n      jump(tag_226)\n    tag_227:\n        /* \"contracts/lib/eai/EAI.sol\":31544:31563  bytes memory buffer */\n      0x00\n        /* \"contracts/lib/eai/EAI.sol\":31576:31582  digits */\n      dup2\n        /* \"contracts/lib/eai/EAI.sol\":31566:31583  new bytes(digits) */\n      0xffffffffffffffff\n      dup2\n      gt\n      iszero\n      tag_232\n      jumpi\n      tag_233\n      tag_234\n      jump\t// in\n    tag_233:\n    tag_232:\n      mload(0x40)\n      swap1\n      dup1\n      dup3\n      mstore\n      dup1\n      0x1f\n      add\n      not(0x1f)\n      and\n      0x20\n      add\n      dup3\n      add\n      0x40\n      mstore\n      dup1\n      iszero\n      tag_235\n      jumpi\n      dup2\n      0x20\n      add\n      0x01\n      dup3\n      mul\n      dup1\n      calldatasize\n      dup4\n      calldatacopy\n      dup1\n      dup3\n      add\n      swap2\n      pop\n      pop\n      swap1\n      pop\n    tag_235:\n      pop\n        /* \"contracts/lib/eai/EAI.sol\":31544:31583  bytes memory buffer = new bytes(digits) */\n      swap1\n      pop\n        /* \"contracts/lib/eai/EAI.sol\":31594:31748  while (value != 0) {... */\n    tag_236:\n        /* \"contracts/lib/eai/EAI.sol\":31610:31611  0 */\n      0x00\n        /* \"contracts/lib/eai/EAI.sol\":31601:31606  value */\n      dup6\n        /* \"contracts/lib/eai/EAI.sol\":31601:31611  value != 0 */\n      eq\n        /* \"contracts/lib/eai/EAI.sol\":31594:31748  while (value != 0) {... */\n      tag_237\n      jumpi\n        /* \"contracts/lib/eai/EAI.sol\":31638:31639  1 */\n      0x01\n        /* \"contracts/lib/eai/EAI.sol\":31628:31639  digits -= 1 */\n      dup3\n      tag_238\n      swap2\n      swap1\n      tag_239\n      jump\t// in\n    tag_238:\n      swap2\n      pop\n        /* \"contracts/lib/eai/EAI.sol\":31705:31707  10 */\n      0x0a\n        /* \"contracts/lib/eai/EAI.sol\":31697:31702  value */\n      dup6\n        /* \"contracts/lib/eai/EAI.sol\":31697:31707  value % 10 */\n      tag_240\n      swap2\n      swap1\n      tag_241\n      jump\t// in\n    tag_240:\n        /* \"contracts/lib/eai/EAI.sol\":31684:31686  48 */\n      0x30\n        /* \"contracts/lib/eai/EAI.sol\":31684:31708  48 + uint256(value % 10) */\n      tag_242\n      swap2\n      swap1\n      tag_243\n      jump\t// in\n    tag_242:\n        /* \"contracts/lib/eai/EAI.sol\":31671:31710  bytes1(uint8(48 + uint256(value % 10))) */\n      0xf8\n      shl\n        /* \"contracts/lib/eai/EAI.sol\":31654:31660  buffer */\n      dup2\n        /* \"contracts/lib/eai/EAI.sol\":31661:31667  digits */\n      dup4\n        /* \"contracts/lib/eai/EAI.sol\":31654:31668  buffer[digits] */\n      dup2\n      mload\n      dup2\n      lt\n      tag_244\n      jumpi\n      tag_245\n      tag_62\n      jump\t// in\n    tag_245:\n    tag_244:\n      0x20\n      add\n      add\n        /* \"contracts/lib/eai/EAI.sol\":31654:31710  buffer[digits] = bytes1(uint8(48 + uint256(value % 10))) */\n      swap1\n      not(0xffffffffffffffffffffffffffffffffffffffffffffffffffffffffffffff)\n      and\n      swap1\n      dup2\n      0x00\n      byte\n      swap1\n      mstore8\n      pop\n        /* \"contracts/lib/eai/EAI.sol\":31734:31736  10 */\n      0x0a\n        /* \"contracts/lib/eai/EAI.sol\":31725:31736  value /= 10 */\n      dup6\n      tag_246\n      swap2\n      swap1\n      tag_231\n      jump\t// in\n    tag_246:\n      swap5\n      pop\n        /* \"contracts/lib/eai/EAI.sol\":31594:31748  while (value != 0) {... */\n      jump(tag_236)\n    tag_237:\n        /* \"contracts/lib/eai/EAI.sol\":31772:31778  buffer */\n      dup1\n        /* \"contracts/lib/eai/EAI.sol\":31758:31779  return string(buffer) */\n      swap4\n      pop\n      pop\n      pop\n      pop\n        /* \"contracts/lib/eai/EAI.sol\":31242:31787  function uint2String(uint256 value) internal pure returns (string memory) {... */\n    tag_224:\n      swap2\n      swap1\n      pop\n      jump\t// out\n    tag_115:\n      pop\n      dup1\n      sload\n      tag_247\n      swap1\n      tag_74\n      jump\t// in\n    tag_247:\n      0x00\n      dup3\n      sstore\n      dup1\n      0x1f\n      lt\n      tag_249\n      jumpi\n      pop\n      jump(tag_248)\n    tag_249:\n      0x1f\n      add\n      0x20\n      swap1\n      div\n      swap1\n      0x00\n      mstore\n      keccak256(0x00, 0x20)\n      swap1\n      dup2\n      add\n      swap1\n      tag_250\n      swap2\n      swap1\n      tag_251\n      jump\t// in\n    tag_250:\n    tag_248:\n      pop\n      jump\t// out\n    tag_118:\n      dup3\n      dup1\n      sload\n      tag_252\n      swap1\n      tag_74\n      jump\t// in\n    tag_252:\n      swap1\n      0x00\n      mstore\n      keccak256(0x00, 0x20)\n      swap1\n      0x1f\n      add\n      0x20\n      swap1\n      div\n      dup2\n      add\n      swap3\n      dup3\n      tag_254\n      jumpi\n      0x00\n      dup6\n      sstore\n      jump(tag_253)\n    tag_254:\n      dup3\n      0x1f\n      lt\n      tag_255\n      jumpi\n      dup1\n      mload\n      not(0xff)\n      and\n      dup4\n      dup1\n      add\n      or\n      dup6\n      sstore\n      jump(tag_253)\n    tag_255:\n      dup3\n      dup1\n      add\n      0x01\n      add\n      dup6\n      sstore\n      dup3\n      iszero\n      tag_253\n      jumpi\n      swap2\n      dup3\n      add\n    tag_256:\n      dup3\n      dup2\n      gt\n      iszero\n      tag_257\n      jumpi\n      dup3\n      mload\n      dup3\n      sstore\n      swap2\n      0x20\n      add\n      swap2\n      swap1\n      0x01\n      add\n      swap1\n      jump(tag_256)\n    tag_257:\n    tag_253:\n      pop\n      swap1\n      pop\n      tag_258\n      swap2\n      swap1\n      tag_251\n      jump\t// in\n    tag_258:\n      pop\n      swap1\n      jump\t// out\n    tag_161:\n      mload(0x40)\n      dup1\n      0x60\n      add\n      0x40\n      mstore\n      dup1\n      0x60\n      dup2\n      mstore\n      0x20\n      add\n      and(0xffffffffffffffffffffffffffffffffffffffff, 0x00)\n      dup2\n      mstore\n      0x20\n      add\n      iszero(iszero(0x00))\n      dup2\n      mstore\n      pop\n      swap1\n      jump\t// out\n    tag_177:\n      mload(0x40)\n      dup1\n      0x40\n      add\n      0x40\n      mstore\n      dup1\n      and(0xffffffff, 0x00)\n      dup2\n      mstore\n      0x20\n      add\n      and(0xffffffff, 0x00)\n      dup2\n      mstore\n      pop\n      swap1\n      jump\t// out\n    tag_180:\n      mload(0x40)\n      dup1\n      0x60\n      add\n      0x40\n      mstore\n      dup1\n      0x60\n      dup2\n      mstore\n      0x20\n      add\n      0x60\n      dup2\n      mstore\n      0x20\n      add\n      0x00\n      dup2\n      mstore\n      pop\n      swap1\n      jump\t// out\n    tag_223:\n      dup3\n      dup1\n      sload\n      tag_259\n      swap1\n      tag_74\n      jump\t// in\n    tag_259:\n      swap1\n      0x00\n      mstore\n      keccak256(0x00, 0x20)\n      swap1\n      0x1f\n      add\n      0x20\n      swap1\n      div\n      dup2\n      add\n      swap3\n      dup3\n      tag_261\n      jumpi\n      0x00\n      dup6\n      sstore\n      jump(tag_260)\n    tag_261:\n      dup3\n      0x1f\n      lt\n      tag_262\n      jumpi\n      dup1\n      sload\n      dup6\n      sstore\n      jump(tag_260)\n    tag_262:\n      dup3\n      dup1\n      add\n      0x01\n      add\n      dup6\n      sstore\n      dup3\n      iszero\n      tag_260\n      jumpi\n      0x00\n      mstore\n      keccak256(0x00, 0x20)\n      swap2\n      0x1f\n      add\n      0x20\n      swap1\n      div\n      dup3\n      add\n    tag_263:\n      dup3\n      dup2\n      gt\n      iszero\n      tag_264\n      jumpi\n      dup3\n      sload\n      dup3\n      sstore\n      swap2\n      0x01\n      add\n      swap2\n      swap1\n      0x01\n      add\n      swap1\n      jump(tag_263)\n    tag_264:\n    tag_260:\n      pop\n      swap1\n      pop\n      tag_265\n      swap2\n      swap1\n      tag_251\n      jump\t// in\n    tag_265:\n      pop\n      swap1\n      jump\t// out\n    tag_251:\n    tag_266:\n      dup1\n      dup3\n      gt\n      iszero\n      tag_267\n      jumpi\n      0x00\n      dup2\n      0x00\n      swap1\n      sstore\n      pop\n      0x01\n      add\n      jump(tag_266)\n    tag_267:\n      pop\n      swap1\n      jump\t// out\n        /* \"#utility.yul\":7:82   */\n    tag_268:\n        /* \"#utility.yul\":40:46   */\n      0x00\n        /* \"#utility.yul\":73:75   */\n      0x40\n        /* \"#utility.yul\":67:76   */\n      mload\n        /* \"#utility.yul\":57:76   */\n      swap1\n      pop\n        /* \"#utility.yul\":7:82   */\n      swap1\n      jump\t// out\n        /* \"#utility.yul\":88:205   */\n    tag_269:\n        /* \"#utility.yul\":197:198   */\n      0x00\n        /* \"#utility.yul\":194:195   */\n      dup1\n        /* \"#utility.yul\":187:199   */\n      revert\n        /* \"#utility.yul\":211:328   */\n    tag_270:\n        /* \"#utility.yul\":320:321   */\n      0x00\n        /* \"#utility.yul\":317:318   */\n      dup1\n        /* \"#utility.yul\":310:322   */\n      revert\n        /* \"#utility.yul\":334:427   */\n    tag_271:\n        /* \"#utility.yul\":370:377   */\n      0x00\n        /* \"#utility.yul\":410:420   */\n      0xffffffff\n        /* \"#utility.yul\":403:408   */\n      dup3\n        /* \"#utility.yul\":399:421   */\n      and\n        /* \"#utility.yul\":388:421   */\n      swap1\n      pop\n        /* \"#utility.yul\":334:427   */\n      swap2\n      swap1\n      pop\n      jump\t// out\n        /* \"#utility.yul\":433:553   */\n    tag_272:\n        /* \"#utility.yul\":505:528   */\n      tag_335\n        /* \"#utility.yul\":522:527   */\n      dup2\n        /* \"#utility.yul\":505:528   */\n      tag_271\n      jump\t// in\n    tag_335:\n        /* \"#utility.yul\":498:503   */\n      dup2\n        /* \"#utility.yul\":495:529   */\n      eq\n        /* \"#utility.yul\":485:547   */\n      tag_336\n      jumpi\n        /* \"#utility.yul\":543:544   */\n      0x00\n        /* \"#utility.yul\":540:541   */\n      dup1\n        /* \"#utility.yul\":533:545   */\n      revert\n        /* \"#utility.yul\":485:547   */\n    tag_336:\n        /* \"#utility.yul\":433:553   */\n      pop\n      jump\t// out\n        /* \"#utility.yul\":559:696   */\n    tag_273:\n        /* \"#utility.yul\":604:609   */\n      0x00\n        /* \"#utility.yul\":642:648   */\n      dup2\n        /* \"#utility.yul\":629:649   */\n      calldataload\n        /* \"#utility.yul\":620:649   */\n      swap1\n      pop\n        /* \"#utility.yul\":658:690   */\n      tag_338\n        /* \"#utility.yul\":684:689   */\n      dup2\n        /* \"#utility.yul\":658:690   */\n      tag_272\n      jump\t// in\n    tag_338:\n        /* \"#utility.yul\":559:696   */\n      swap3\n      swap2\n      pop\n      pop\n      jump\t// out\n        /* \"#utility.yul\":702:1029   */\n    tag_15:\n        /* \"#utility.yul\":760:766   */\n      0x00\n        /* \"#utility.yul\":809:811   */\n      0x20\n        /* \"#utility.yul\":797:806   */\n      dup3\n        /* \"#utility.yul\":788:795   */\n      dup5\n        /* \"#utility.yul\":784:807   */\n      sub\n        /* \"#utility.yul\":780:812   */\n      slt\n        /* \"#utility.yul\":777:896   */\n      iszero\n      tag_340\n      jumpi\n        /* \"#utility.yul\":815:894   */\n      tag_341\n      tag_269\n      jump\t// in\n    tag_341:\n        /* \"#utility.yul\":777:896   */\n    tag_340:\n        /* \"#utility.yul\":935:936   */\n      0x00\n        /* \"#utility.yul\":960:1012   */\n      tag_342\n        /* \"#utility.yul\":1004:1011   */\n      dup5\n        /* \"#utility.yul\":995:1001   */\n      dup3\n        /* \"#utility.yul\":984:993   */\n      dup6\n        /* \"#utility.yul\":980:1002   */\n      add\n        /* \"#utility.yul\":960:1012   */\n      tag_273\n      jump\t// in\n    tag_342:\n        /* \"#utility.yul\":950:1012   */\n      swap2\n      pop\n        /* \"#utility.yul\":906:1022   */\n      pop\n        /* \"#utility.yul\":702:1029   */\n      swap3\n      swap2\n      pop\n      pop\n      jump\t// out\n        /* \"#utility.yul\":1035:1152   */\n    tag_274:\n        /* \"#utility.yul\":1144:1145   */\n      0x00\n        /* \"#utility.yul\":1141:1142   */\n      dup1\n        /* \"#utility.yul\":1134:1146   */\n      revert\n        /* \"#utility.yul\":1158:1260   */\n    tag_275:\n        /* \"#utility.yul\":1199:1205   */\n      0x00\n        /* \"#utility.yul\":1250:1252   */\n      0x1f\n        /* \"#utility.yul\":1246:1253   */\n      not\n        /* \"#utility.yul\":1241:1243   */\n      0x1f\n        /* \"#utility.yul\":1234:1239   */\n      dup4\n        /* \"#utility.yul\":1230:1244   */\n      add\n        /* \"#utility.yul\":1226:1254   */\n      and\n        /* \"#utility.yul\":1216:1254   */\n      swap1\n      pop\n        /* \"#utility.yul\":1158:1260   */\n      swap2\n      swap1\n      pop\n      jump\t// out\n        /* \"#utility.yul\":1266:1446   */\n    tag_234:\n        /* \"#utility.yul\":1314:1391   */\n      0x4e487b7100000000000000000000000000000000000000000000000000000000\n        /* \"#utility.yul\":1311:1312   */\n      0x00\n        /* \"#utility.yul\":1304:1392   */\n      mstore\n        /* \"#utility.yul\":1411:1415   */\n      0x41\n        /* \"#utility.yul\":1408:1409   */\n      0x04\n        /* \"#utility.yul\":1401:1416   */\n      mstore\n        /* \"#utility.yul\":1435:1439   */\n      0x24\n        /* \"#utility.yul\":1432:1433   */\n      0x00\n        /* \"#utility.yul\":1425:1440   */\n      revert\n        /* \"#utility.yul\":1452:1733   */\n    tag_276:\n        /* \"#utility.yul\":1535:1562   */\n      tag_347\n        /* \"#utility.yul\":1557:1561   */\n      dup3\n        /* \"#utility.yul\":1535:1562   */\n      tag_275\n      jump\t// in\n    tag_347:\n        /* \"#utility.yul\":1527:1533   */\n      dup2\n        /* \"#utility.yul\":1523:1563   */\n      add\n        /* \"#utility.yul\":1665:1671   */\n      dup2\n        /* \"#utility.yul\":1653:1663   */\n      dup2\n        /* \"#utility.yul\":1650:1672   */\n      lt\n        /* \"#utility.yul\":1629:1647   */\n      0xffffffffffffffff\n        /* \"#utility.yul\":1617:1627   */\n      dup3\n        /* \"#utility.yul\":1614:1648   */\n      gt\n        /* \"#utility.yul\":1611:1673   */\n      or\n        /* \"#utility.yul\":1608:1696   */\n      iszero\n      tag_348\n      jumpi\n        /* \"#utility.yul\":1676:1694   */\n      tag_349\n      tag_234\n      jump\t// in\n    tag_349:\n        /* \"#utility.yul\":1608:1696   */\n    tag_348:\n        /* \"#utility.yul\":1716:1726   */\n      dup1\n        /* \"#utility.yul\":1712:1714   */\n      0x40\n        /* \"#utility.yul\":1705:1727   */\n      mstore\n        /* \"#utility.yul\":1495:1733   */\n      pop\n        /* \"#utility.yul\":1452:1733   */\n      pop\n      pop\n      jump\t// out\n        /* \"#utility.yul\":1739:1868   */\n    tag_277:\n        /* \"#utility.yul\":1773:1779   */\n      0x00\n        /* \"#utility.yul\":1800:1820   */\n      tag_351\n      tag_268\n      jump\t// in\n    tag_351:\n        /* \"#utility.yul\":1790:1820   */\n      swap1\n      pop\n        /* \"#utility.yul\":1829:1862   */\n      tag_352\n        /* \"#utility.yul\":1857:1861   */\n      dup3\n        /* \"#utility.yul\":1849:1855   */\n      dup3\n        /* \"#utility.yul\":1829:1862   */\n      tag_276\n      jump\t// in\n    tag_352:\n        /* \"#utility.yul\":1739:1868   */\n      swap2\n      swap1\n      pop\n      jump\t// out\n        /* \"#utility.yul\":1874:2184   */\n    tag_278:\n        /* \"#utility.yul\":1950:1954   */\n      0x00\n        /* \"#utility.yul\":2040:2058   */\n      0xffffffffffffffff\n        /* \"#utility.yul\":2032:2038   */\n      dup3\n        /* \"#utility.yul\":2029:2059   */\n      gt\n        /* \"#utility.yul\":2026:2082   */\n      iszero\n      tag_354\n      jumpi\n        /* \"#utility.yul\":2062:2080   */\n      tag_355\n      tag_234\n      jump\t// in\n    tag_355:\n        /* \"#utility.yul\":2026:2082   */\n    tag_354:\n        /* \"#utility.yul\":2112:2116   */\n      0x20\n        /* \"#utility.yul\":2104:2110   */\n      dup3\n        /* \"#utility.yul\":2100:2117   */\n      mul\n        /* \"#utility.yul\":2092:2117   */\n      swap1\n      pop\n        /* \"#utility.yul\":2172:2176   */\n      0x20\n        /* \"#utility.yul\":2166:2170   */\n      dup2\n        /* \"#utility.yul\":2162:2177   */\n      add\n        /* \"#utility.yul\":2154:2177   */\n      swap1\n      pop\n        /* \"#utility.yul\":1874:2184   */\n      swap2\n      swap1\n      pop\n      jump\t// out\n        /* \"#utility.yul\":2190:2307   */\n    tag_279:\n        /* \"#utility.yul\":2299:2300   */\n      0x00\n        /* \"#utility.yul\":2296:2297   */\n      dup1\n        /* \"#utility.yul\":2289:2301   */\n      revert\n        /* \"#utility.yul\":2313:2389   */\n    tag_280:\n        /* \"#utility.yul\":2349:2356   */\n      0x00\n        /* \"#utility.yul\":2378:2383   */\n      dup2\n        /* \"#utility.yul\":2367:2383   */\n      swap1\n      pop\n        /* \"#utility.yul\":2313:2389   */\n      swap2\n      swap1\n      pop\n      jump\t// out\n        /* \"#utility.yul\":2395:2515   */\n    tag_281:\n        /* \"#utility.yul\":2467:2490   */\n      tag_359\n        /* \"#utility.yul\":2484:2489   */\n      dup2\n        /* \"#utility.yul\":2467:2490   */\n      tag_280\n      jump\t// in\n    tag_359:\n        /* \"#utility.yul\":2460:2465   */\n      dup2\n        /* \"#utility.yul\":2457:2491   */\n      eq\n        /* \"#utility.yul\":2447:2509   */\n      tag_360\n      jumpi\n        /* \"#utility.yul\":2505:2506   */\n      0x00\n        /* \"#utility.yul\":2502:2503   */\n      dup1\n        /* \"#utility.yul\":2495:2507   */\n      revert\n        /* \"#utility.yul\":2447:2509   */\n    tag_360:\n        /* \"#utility.yul\":2395:2515   */\n      pop\n      jump\t// out\n        /* \"#utility.yul\":2521:2658   */\n    tag_282:\n        /* \"#utility.yul\":2566:2571   */\n      0x00\n        /* \"#utility.yul\":2604:2610   */\n      dup2\n        /* \"#utility.yul\":2591:2611   */\n      calldataload\n        /* \"#utility.yul\":2582:2611   */\n      swap1\n      pop\n        /* \"#utility.yul\":2620:2652   */\n      tag_362\n        /* \"#utility.yul\":2646:2651   */\n      dup2\n        /* \"#utility.yul\":2620:2652   */\n      tag_281\n      jump\t// in\n    tag_362:\n        /* \"#utility.yul\":2521:2658   */\n      swap3\n      swap2\n      pop\n      pop\n      jump\t// out\n        /* \"#utility.yul\":2680:3387   */\n    tag_283:\n        /* \"#utility.yul\":2775:2780   */\n      0x00\n        /* \"#utility.yul\":2800:2880   */\n      tag_364\n        /* \"#utility.yul\":2816:2879   */\n      tag_365\n        /* \"#utility.yul\":2872:2878   */\n      dup5\n        /* \"#utility.yul\":2816:2879   */\n      tag_278\n      jump\t// in\n    tag_365:\n        /* \"#utility.yul\":2800:2880   */\n      tag_277\n      jump\t// in\n    tag_364:\n        /* \"#utility.yul\":2791:2880   */\n      swap1\n      pop\n        /* \"#utility.yul\":2900:2905   */\n      dup1\n        /* \"#utility.yul\":2929:2935   */\n      dup4\n        /* \"#utility.yul\":2922:2927   */\n      dup3\n        /* \"#utility.yul\":2915:2936   */\n      mstore\n        /* \"#utility.yul\":2963:2967   */\n      0x20\n        /* \"#utility.yul\":2956:2961   */\n      dup3\n        /* \"#utility.yul\":2952:2968   */\n      add\n        /* \"#utility.yul\":2945:2968   */\n      swap1\n      pop\n        /* \"#utility.yul\":3016:3020   */\n      0x20\n        /* \"#utility.yul\":3008:3014   */\n      dup5\n        /* \"#utility.yul\":3004:3021   */\n      mul\n        /* \"#utility.yul\":2996:3002   */\n      dup4\n        /* \"#utility.yul\":2992:3022   */\n      add\n        /* \"#utility.yul\":3045:3048   */\n      dup6\n        /* \"#utility.yul\":3037:3043   */\n      dup2\n        /* \"#utility.yul\":3034:3049   */\n      gt\n        /* \"#utility.yul\":3031:3153   */\n      iszero\n      tag_366\n      jumpi\n        /* \"#utility.yul\":3064:3143   */\n      tag_367\n      tag_279\n      jump\t// in\n    tag_367:\n        /* \"#utility.yul\":3031:3153   */\n    tag_366:\n        /* \"#utility.yul\":3179:3185   */\n      dup4\n        /* \"#utility.yul\":3162:3381   */\n    tag_368:\n        /* \"#utility.yul\":3196:3202   */\n      dup2\n        /* \"#utility.yul\":3191:3194   */\n      dup2\n        /* \"#utility.yul\":3188:3203   */\n      lt\n        /* \"#utility.yul\":3162:3381   */\n      iszero\n      tag_370\n      jumpi\n        /* \"#utility.yul\":3271:3274   */\n      dup1\n        /* \"#utility.yul\":3300:3336   */\n      tag_371\n        /* \"#utility.yul\":3332:3335   */\n      dup9\n        /* \"#utility.yul\":3320:3330   */\n      dup3\n        /* \"#utility.yul\":3300:3336   */\n      tag_282\n      jump\t// in\n    tag_371:\n        /* \"#utility.yul\":3295:3298   */\n      dup5\n        /* \"#utility.yul\":3288:3337   */\n      mstore\n        /* \"#utility.yul\":3366:3370   */\n      0x20\n        /* \"#utility.yul\":3361:3364   */\n      dup5\n        /* \"#utility.yul\":3357:3371   */\n      add\n        /* \"#utility.yul\":3350:3371   */\n      swap4\n      pop\n        /* \"#utility.yul\":3238:3381   */\n      pop\n        /* \"#utility.yul\":3222:3226   */\n      0x20\n        /* \"#utility.yul\":3217:3220   */\n      dup2\n        /* \"#utility.yul\":3213:3227   */\n      add\n        /* \"#utility.yul\":3206:3227   */\n      swap1\n      pop\n        /* \"#utility.yul\":3162:3381   */\n      jump(tag_368)\n    tag_370:\n        /* \"#utility.yul\":3166:3187   */\n      pop\n        /* \"#utility.yul\":2781:3387   */\n      pop\n      pop\n        /* \"#utility.yul\":2680:3387   */\n      swap4\n      swap3\n      pop\n      pop\n      pop\n      jump\t// out\n        /* \"#utility.yul\":3409:3777   */\n    tag_284:\n        /* \"#utility.yul\":3479:3484   */\n      0x00\n        /* \"#utility.yul\":3528:3531   */\n      dup3\n        /* \"#utility.yul\":3521:3525   */\n      0x1f\n        /* \"#utility.yul\":3513:3519   */\n      dup4\n        /* \"#utility.yul\":3509:3526   */\n      add\n        /* \"#utility.yul\":3505:3532   */\n      slt\n        /* \"#utility.yul\":3495:3617   */\n      tag_373\n      jumpi\n        /* \"#utility.yul\":3536:3615   */\n      tag_374\n      tag_274\n      jump\t// in\n    tag_374:\n        /* \"#utility.yul\":3495:3617   */\n    tag_373:\n        /* \"#utility.yul\":3653:3659   */\n      dup2\n        /* \"#utility.yul\":3640:3660   */\n      calldataload\n        /* \"#utility.yul\":3678:3771   */\n      tag_375\n        /* \"#utility.yul\":3767:3770   */\n      dup5\n        /* \"#utility.yul\":3759:3765   */\n      dup3\n        /* \"#utility.yul\":3752:3756   */\n      0x20\n        /* \"#utility.yul\":3744:3750   */\n      dup7\n        /* \"#utility.yul\":3740:3757   */\n      add\n        /* \"#utility.yul\":3678:3771   */\n      tag_283\n      jump\t// in\n    tag_375:\n        /* \"#utility.yul\":3669:3771   */\n      swap2\n      pop\n        /* \"#utility.yul\":3485:3777   */\n      pop\n        /* \"#utility.yul\":3409:3777   */\n      swap3\n      swap2\n      pop\n      pop\n      jump\t// out\n        /* \"#utility.yul\":3783:4463   */\n    tag_19:\n        /* \"#utility.yul\":3874:3880   */\n      0x00\n        /* \"#utility.yul\":3882:3888   */\n      dup1\n        /* \"#utility.yul\":3931:3933   */\n      0x40\n        /* \"#utility.yul\":3919:3928   */\n      dup4\n        /* \"#utility.yul\":3910:3917   */\n      dup6\n        /* \"#utility.yul\":3906:3929   */\n      sub\n        /* \"#utility.yul\":3902:3934   */\n      slt\n        /* \"#utility.yul\":3899:4018   */\n      iszero\n      tag_377\n      jumpi\n        /* \"#utility.yul\":3937:4016   */\n      tag_378\n      tag_269\n      jump\t// in\n    tag_378:\n        /* \"#utility.yul\":3899:4018   */\n    tag_377:\n        /* \"#utility.yul\":4057:4058   */\n      0x00\n        /* \"#utility.yul\":4082:4134   */\n      tag_379\n        /* \"#utility.yul\":4126:4133   */\n      dup6\n        /* \"#utility.yul\":4117:4123   */\n      dup3\n        /* \"#utility.yul\":4106:4115   */\n      dup7\n        /* \"#utility.yul\":4102:4124   */\n      add\n        /* \"#utility.yul\":4082:4134   */\n      tag_273\n      jump\t// in\n    tag_379:\n        /* \"#utility.yul\":4072:4134   */\n      swap3\n      pop\n        /* \"#utility.yul\":4028:4144   */\n      pop\n        /* \"#utility.yul\":4211:4213   */\n      0x20\n        /* \"#utility.yul\":4200:4209   */\n      dup4\n        /* \"#utility.yul\":4196:4214   */\n      add\n        /* \"#utility.yul\":4183:4215   */\n      calldataload\n        /* \"#utility.yul\":4242:4260   */\n      0xffffffffffffffff\n        /* \"#utility.yul\":4234:4240   */\n      dup2\n        /* \"#utility.yul\":4231:4261   */\n      gt\n        /* \"#utility.yul\":4228:4345   */\n      iszero\n      tag_380\n      jumpi\n        /* \"#utility.yul\":4264:4343   */\n      tag_381\n      tag_270\n      jump\t// in\n    tag_381:\n        /* \"#utility.yul\":4228:4345   */\n    tag_380:\n        /* \"#utility.yul\":4369:4446   */\n      tag_382\n        /* \"#utility.yul\":4438:4445   */\n      dup6\n        /* \"#utility.yul\":4429:4435   */\n      dup3\n        /* \"#utility.yul\":4418:4427   */\n      dup7\n        /* \"#utility.yul\":4414:4436   */\n      add\n        /* \"#utility.yul\":4369:4446   */\n      tag_284\n      jump\t// in\n    tag_382:\n        /* \"#utility.yul\":4359:4446   */\n      swap2\n      pop\n        /* \"#utility.yul\":4154:4456   */\n      pop\n        /* \"#utility.yul\":3783:4463   */\n      swap3\n      pop\n      swap3\n      swap1\n      pop\n      jump\t// out\n        /* \"#utility.yul\":4469:4559   */\n    tag_285:\n        /* \"#utility.yul\":4503:4510   */\n      0x00\n        /* \"#utility.yul\":4546:4551   */\n      dup2\n        /* \"#utility.yul\":4539:4552   */\n      iszero\n        /* \"#utility.yul\":4532:4553   */\n      iszero\n        /* \"#utility.yul\":4521:4553   */\n      swap1\n      pop\n        /* \"#utility.yul\":4469:4559   */\n      swap2\n      swap1\n      pop\n      jump\t// out\n        /* \"#utility.yul\":4565:4674   */\n    tag_286:\n        /* \"#utility.yul\":4646:4667   */\n      tag_385\n        /* \"#utility.yul\":4661:4666   */\n      dup2\n        /* \"#utility.yul\":4646:4667   */\n      tag_285\n      jump\t// in\n    tag_385:\n        /* \"#utility.yul\":4641:4644   */\n      dup3\n        /* \"#utility.yul\":4634:4668   */\n      mstore\n        /* \"#utility.yul\":4565:4674   */\n      pop\n      pop\n      jump\t// out\n        /* \"#utility.yul\":4680:4890   */\n    tag_22:\n        /* \"#utility.yul\":4767:4771   */\n      0x00\n        /* \"#utility.yul\":4805:4807   */\n      0x20\n        /* \"#utility.yul\":4794:4803   */\n      dup3\n        /* \"#utility.yul\":4790:4808   */\n      add\n        /* \"#utility.yul\":4782:4808   */\n      swap1\n      pop\n        /* \"#utility.yul\":4818:4883   */\n      tag_387\n        /* \"#utility.yul\":4880:4881   */\n      0x00\n        /* \"#utility.yul\":4869:4878   */\n      dup4\n        /* \"#utility.yul\":4865:4882   */\n      add\n        /* \"#utility.yul\":4856:4862   */\n      dup5\n        /* \"#utility.yul\":4818:4883   */\n      tag_286\n      jump\t// in\n    tag_387:\n        /* \"#utility.yul\":4680:4890   */\n      swap3\n      swap2\n      pop\n      pop\n      jump\t// out\n        /* \"#utility.yul\":4896:5013   */\n    tag_287:\n        /* \"#utility.yul\":5005:5006   */\n      0x00\n        /* \"#utility.yul\":5002:5003   */\n      dup1\n        /* \"#utility.yul\":4995:5007   */\n      revert\n        /* \"#utility.yul\":5019:5327   */\n    tag_288:\n        /* \"#utility.yul\":5081:5085   */\n      0x00\n        /* \"#utility.yul\":5171:5189   */\n      0xffffffffffffffff\n        /* \"#utility.yul\":5163:5169   */\n      dup3\n        /* \"#utility.yul\":5160:5190   */\n      gt\n        /* \"#utility.yul\":5157:5213   */\n      iszero\n      tag_390\n      jumpi\n        /* \"#utility.yul\":5193:5211   */\n      tag_391\n      tag_234\n      jump\t// in\n    tag_391:\n        /* \"#utility.yul\":5157:5213   */\n    tag_390:\n        /* \"#utility.yul\":5231:5260   */\n      tag_392\n        /* \"#utility.yul\":5253:5259   */\n      dup3\n        /* \"#utility.yul\":5231:5260   */\n      tag_275\n      jump\t// in\n    tag_392:\n        /* \"#utility.yul\":5223:5260   */\n      swap1\n      pop\n        /* \"#utility.yul\":5315:5319   */\n      0x20\n        /* \"#utility.yul\":5309:5313   */\n      dup2\n        /* \"#utility.yul\":5305:5320   */\n      add\n        /* \"#utility.yul\":5297:5320   */\n      swap1\n      pop\n        /* \"#utility.yul\":5019:5327   */\n      swap2\n      swap1\n      pop\n      jump\t// out\n        /* \"#utility.yul\":5333:5487   */\n    tag_289:\n        /* \"#utility.yul\":5417:5423   */\n      dup3\n        /* \"#utility.yul\":5412:5415   */\n      dup2\n        /* \"#utility.yul\":5407:5410   */\n      dup4\n        /* \"#utility.yul\":5394:5424   */\n      calldatacopy\n        /* \"#utility.yul\":5479:5480   */\n      0x00\n        /* \"#utility.yul\":5470:5476   */\n      dup4\n        /* \"#utility.yul\":5465:5468   */\n      dup4\n        /* \"#utility.yul\":5461:5477   */\n      add\n        /* \"#utility.yul\":5454:5481   */\n      mstore\n        /* \"#utility.yul\":5333:5487   */\n      pop\n      pop\n      pop\n      jump\t// out\n        /* \"#utility.yul\":5493:5905   */\n    tag_290:\n        /* \"#utility.yul\":5571:5576   */\n      0x00\n        /* \"#utility.yul\":5596:5662   */\n      tag_395\n        /* \"#utility.yul\":5612:5661   */\n      tag_396\n        /* \"#utility.yul\":5654:5660   */\n      dup5\n        /* \"#utility.yul\":5612:5661   */\n      tag_288\n      jump\t// in\n    tag_396:\n        /* \"#utility.yul\":5596:5662   */\n      tag_277\n      jump\t// in\n    tag_395:\n        /* \"#utility.yul\":5587:5662   */\n      swap1\n      pop\n        /* \"#utility.yul\":5685:5691   */\n      dup3\n        /* \"#utility.yul\":5678:5683   */\n      dup2\n        /* \"#utility.yul\":5671:5692   */\n      mstore\n        /* \"#utility.yul\":5723:5727   */\n      0x20\n        /* \"#utility.yul\":5716:5721   */\n      dup2\n        /* \"#utility.yul\":5712:5728   */\n      add\n        /* \"#utility.yul\":5761:5764   */\n      dup5\n        /* \"#utility.yul\":5752:5758   */\n      dup5\n        /* \"#utility.yul\":5747:5750   */\n      dup5\n        /* \"#utility.yul\":5743:5759   */\n      add\n        /* \"#utility.yul\":5740:5765   */\n      gt\n        /* \"#utility.yul\":5737:5849   */\n      iszero\n      tag_397\n      jumpi\n        /* \"#utility.yul\":5768:5847   */\n      tag_398\n      tag_287\n      jump\t// in\n    tag_398:\n        /* \"#utility.yul\":5737:5849   */\n    tag_397:\n        /* \"#utility.yul\":5858:5899   */\n      tag_399\n        /* \"#utility.yul\":5892:5898   */\n      dup5\n        /* \"#utility.yul\":5887:5890   */\n      dup3\n        /* \"#utility.yul\":5882:5885   */\n      dup6\n        /* \"#utility.yul\":5858:5899   */\n      tag_289\n      jump\t// in\n    tag_399:\n        /* \"#utility.yul\":5577:5905   */\n      pop\n        /* \"#utility.yul\":5493:5905   */\n      swap4\n      swap3\n      pop\n      pop\n      pop\n      jump\t// out\n        /* \"#utility.yul\":5925:6265   */\n    tag_291:\n        /* \"#utility.yul\":5981:5986   */\n      0x00\n        /* \"#utility.yul\":6030:6033   */\n      dup3\n        /* \"#utility.yul\":6023:6027   */\n      0x1f\n        /* \"#utility.yul\":6015:6021   */\n      dup4\n        /* \"#utility.yul\":6011:6028   */\n      add\n        /* \"#utility.yul\":6007:6034   */\n      slt\n        /* \"#utility.yul\":5997:6119   */\n      tag_401\n      jumpi\n        /* \"#utility.yul\":6038:6117   */\n      tag_402\n      tag_274\n      jump\t// in\n    tag_402:\n        /* \"#utility.yul\":5997:6119   */\n    tag_401:\n        /* \"#utility.yul\":6155:6161   */\n      dup2\n        /* \"#utility.yul\":6142:6162   */\n      calldataload\n        /* \"#utility.yul\":6180:6259   */\n      tag_403\n        /* \"#utility.yul\":6255:6258   */\n      dup5\n        /* \"#utility.yul\":6247:6253   */\n      dup3\n        /* \"#utility.yul\":6240:6244   */\n      0x20\n        /* \"#utility.yul\":6232:6238   */\n      dup7\n        /* \"#utility.yul\":6228:6245   */\n      add\n        /* \"#utility.yul\":6180:6259   */\n      tag_290\n      jump\t// in\n    tag_403:\n        /* \"#utility.yul\":6171:6259   */\n      swap2\n      pop\n        /* \"#utility.yul\":5987:6265   */\n      pop\n        /* \"#utility.yul\":5925:6265   */\n      swap3\n      swap2\n      pop\n      pop\n      jump\t// out\n        /* \"#utility.yul\":6271:6397   */\n    tag_292:\n        /* \"#utility.yul\":6308:6315   */\n      0x00\n        /* \"#utility.yul\":6348:6390   */\n      0xffffffffffffffffffffffffffffffffffffffff\n        /* \"#utility.yul\":6341:6346   */\n      dup3\n        /* \"#utility.yul\":6337:6391   */\n      and\n        /* \"#utility.yul\":6326:6391   */\n      swap1\n      pop\n        /* \"#utility.yul\":6271:6397   */\n      swap2\n      swap1\n      pop\n      jump\t// out\n        /* \"#utility.yul\":6403:6499   */\n    tag_293:\n        /* \"#utility.yul\":6440:6447   */\n      0x00\n        /* \"#utility.yul\":6469:6493   */\n      tag_406\n        /* \"#utility.yul\":6487:6492   */\n      dup3\n        /* \"#utility.yul\":6469:6493   */\n      tag_292\n      jump\t// in\n    tag_406:\n        /* \"#utility.yul\":6458:6493   */\n      swap1\n      pop\n        /* \"#utility.yul\":6403:6499   */\n      swap2\n      swap1\n      pop\n      jump\t// out\n        /* \"#utility.yul\":6505:6627   */\n    tag_294:\n        /* \"#utility.yul\":6578:6602   */\n      tag_408\n        /* \"#utility.yul\":6596:6601   */\n      dup2\n        /* \"#utility.yul\":6578:6602   */\n      tag_293\n      jump\t// in\n    tag_408:\n        /* \"#utility.yul\":6571:6576   */\n      dup2\n        /* \"#utility.yul\":6568:6603   */\n      eq\n        /* \"#utility.yul\":6558:6621   */\n      tag_409\n      jumpi\n        /* \"#utility.yul\":6617:6618   */\n      0x00\n        /* \"#utility.yul\":6614:6615   */\n      dup1\n        /* \"#utility.yul\":6607:6619   */\n      revert\n        /* \"#utility.yul\":6558:6621   */\n    tag_409:\n        /* \"#utility.yul\":6505:6627   */\n      pop\n      jump\t// out\n        /* \"#utility.yul\":6633:6772   */\n    tag_295:\n        /* \"#utility.yul\":6679:6684   */\n      0x00\n        /* \"#utility.yul\":6717:6723   */\n      dup2\n        /* \"#utility.yul\":6704:6724   */\n      calldataload\n        /* \"#utility.yul\":6695:6724   */\n      swap1\n      pop\n        /* \"#utility.yul\":6733:6766   */\n      tag_411\n        /* \"#utility.yul\":6760:6765   */\n      dup2\n        /* \"#utility.yul\":6733:6766   */\n      tag_294\n      jump\t// in\n    tag_411:\n        /* \"#utility.yul\":6633:6772   */\n      swap3\n      swap2\n      pop\n      pop\n      jump\t// out\n        /* \"#utility.yul\":6778:7432   */\n    tag_25:\n        /* \"#utility.yul\":6856:6862   */\n      0x00\n        /* \"#utility.yul\":6864:6870   */\n      dup1\n        /* \"#utility.yul\":6913:6915   */\n      0x40\n        /* \"#utility.yul\":6901:6910   */\n      dup4\n        /* \"#utility.yul\":6892:6899   */\n      dup6\n        /* \"#utility.yul\":6888:6911   */\n      sub\n        /* \"#utility.yul\":6884:6916   */\n      slt\n        /* \"#utility.yul\":6881:7000   */\n      iszero\n      tag_413\n      jumpi\n        /* \"#utility.yul\":6919:6998   */\n      tag_414\n      tag_269\n      jump\t// in\n    tag_414:\n        /* \"#utility.yul\":6881:7000   */\n    tag_413:\n        /* \"#utility.yul\":7067:7068   */\n      0x00\n        /* \"#utility.yul\":7056:7065   */\n      dup4\n        /* \"#utility.yul\":7052:7069   */\n      add\n        /* \"#utility.yul\":7039:7070   */\n      calldataload\n        /* \"#utility.yul\":7097:7115   */\n      0xffffffffffffffff\n        /* \"#utility.yul\":7089:7095   */\n      dup2\n        /* \"#utility.yul\":7086:7116   */\n      gt\n        /* \"#utility.yul\":7083:7200   */\n      iszero\n      tag_415\n      jumpi\n        /* \"#utility.yul\":7119:7198   */\n      tag_416\n      tag_270\n      jump\t// in\n    tag_416:\n        /* \"#utility.yul\":7083:7200   */\n    tag_415:\n        /* \"#utility.yul\":7224:7287   */\n      tag_417\n        /* \"#utility.yul\":7279:7286   */\n      dup6\n        /* \"#utility.yul\":7270:7276   */\n      dup3\n        /* \"#utility.yul\":7259:7268   */\n      dup7\n        /* \"#utility.yul\":7255:7277   */\n      add\n        /* \"#utility.yul\":7224:7287   */\n      tag_291\n      jump\t// in\n    tag_417:\n        /* \"#utility.yul\":7214:7287   */\n      swap3\n      pop\n        /* \"#utility.yul\":7010:7297   */\n      pop\n        /* \"#utility.yul\":7336:7338   */\n      0x20\n        /* \"#utility.yul\":7362:7415   */\n      tag_418\n        /* \"#utility.yul\":7407:7414   */\n      dup6\n        /* \"#utility.yul\":7398:7404   */\n      dup3\n        /* \"#utility.yul\":7387:7396   */\n      dup7\n        /* \"#utility.yul\":7383:7405   */\n      add\n        /* \"#utility.yul\":7362:7415   */\n      tag_295\n      jump\t// in\n    tag_418:\n        /* \"#utility.yul\":7352:7415   */\n      swap2\n      pop\n        /* \"#utility.yul\":7307:7425   */\n      pop\n        /* \"#utility.yul\":6778:7432   */\n      swap3\n      pop\n      swap3\n      swap1\n      pop\n      jump\t// out\n        /* \"#utility.yul\":7438:7556   */\n    tag_296:\n        /* \"#utility.yul\":7525:7549   */\n      tag_420\n        /* \"#utility.yul\":7543:7548   */\n      dup2\n        /* \"#utility.yul\":7525:7549   */\n      tag_293\n      jump\t// in\n    tag_420:\n        /* \"#utility.yul\":7520:7523   */\n      dup3\n        /* \"#utility.yul\":7513:7550   */\n      mstore\n        /* \"#utility.yul\":7438:7556   */\n      pop\n      pop\n      jump\t// out\n        /* \"#utility.yul\":7562:7784   */\n    tag_31:\n        /* \"#utility.yul\":7655:7659   */\n      0x00\n        /* \"#utility.yul\":7693:7695   */\n      0x20\n        /* \"#utility.yul\":7682:7691   */\n      dup3\n        /* \"#utility.yul\":7678:7696   */\n      add\n        /* \"#utility.yul\":7670:7696   */\n      swap1\n      pop\n        /* \"#utility.yul\":7706:7777   */\n      tag_422\n        /* \"#utility.yul\":7774:7775   */\n      0x00\n        /* \"#utility.yul\":7763:7772   */\n      dup4\n        /* \"#utility.yul\":7759:7776   */\n      add\n        /* \"#utility.yul\":7750:7756   */\n      dup5\n        /* \"#utility.yul\":7706:7777   */\n      tag_296\n      jump\t// in\n    tag_422:\n        /* \"#utility.yul\":7562:7784   */\n      swap3\n      swap2\n      pop\n      pop\n      jump\t// out\n        /* \"#utility.yul\":7790:8119   */\n    tag_44:\n        /* \"#utility.yul\":7849:7855   */\n      0x00\n        /* \"#utility.yul\":7898:7900   */\n      0x20\n        /* \"#utility.yul\":7886:7895   */\n      dup3\n        /* \"#utility.yul\":7877:7884   */\n      dup5\n        /* \"#utility.yul\":7873:7896   */\n      sub\n        /* \"#utility.yul\":7869:7901   */\n      slt\n        /* \"#utility.yul\":7866:7985   */\n      iszero\n      tag_424\n      jumpi\n        /* \"#utility.yul\":7904:7983   */\n      tag_425\n      tag_269\n      jump\t// in\n    tag_425:\n        /* \"#utility.yul\":7866:7985   */\n    tag_424:\n        /* \"#utility.yul\":8024:8025   */\n      0x00\n        /* \"#utility.yul\":8049:8102   */\n      tag_426\n        /* \"#utility.yul\":8094:8101   */\n      dup5\n        /* \"#utility.yul\":8085:8091   */\n      dup3\n        /* \"#utility.yul\":8074:8083   */\n      dup6\n        /* \"#utility.yul\":8070:8092   */\n      add\n        /* \"#utility.yul\":8049:8102   */\n      tag_295\n      jump\t// in\n    tag_426:\n        /* \"#utility.yul\":8039:8102   */\n      swap2\n      pop\n        /* \"#utility.yul\":7995:8112   */\n      pop\n        /* \"#utility.yul\":7790:8119   */\n      swap3\n      swap2\n      pop\n      pop\n      jump\t// out\n        /* \"#utility.yul\":8125:8224   */\n    tag_297:\n        /* \"#utility.yul\":8177:8183   */\n      0x00\n        /* \"#utility.yul\":8211:8216   */\n      dup2\n        /* \"#utility.yul\":8205:8217   */\n      mload\n        /* \"#utility.yul\":8195:8217   */\n      swap1\n      pop\n        /* \"#utility.yul\":8125:8224   */\n      swap2\n      swap1\n      pop\n      jump\t// out\n        /* \"#utility.yul\":8230:8389   */\n    tag_298:\n        /* \"#utility.yul\":8304:8315   */\n      0x00\n        /* \"#utility.yul\":8338:8344   */\n      dup3\n        /* \"#utility.yul\":8333:8336   */\n      dup3\n        /* \"#utility.yul\":8326:8345   */\n      mstore\n        /* \"#utility.yul\":8378:8382   */\n      0x20\n        /* \"#utility.yul\":8373:8376   */\n      dup3\n        /* \"#utility.yul\":8369:8383   */\n      add\n        /* \"#utility.yul\":8354:8383   */\n      swap1\n      pop\n        /* \"#utility.yul\":8230:8389   */\n      swap3\n      swap2\n      pop\n      pop\n      jump\t// out\n        /* \"#utility.yul\":8395:8702   */\n    tag_299:\n        /* \"#utility.yul\":8463:8464   */\n      0x00\n        /* \"#utility.yul\":8473:8586   */\n    tag_430:\n        /* \"#utility.yul\":8487:8493   */\n      dup4\n        /* \"#utility.yul\":8484:8485   */\n      dup2\n        /* \"#utility.yul\":8481:8494   */\n      lt\n        /* \"#utility.yul\":8473:8586   */\n      iszero\n      tag_432\n      jumpi\n        /* \"#utility.yul\":8572:8573   */\n      dup1\n        /* \"#utility.yul\":8567:8570   */\n      dup3\n        /* \"#utility.yul\":8563:8574   */\n      add\n        /* \"#utility.yul\":8557:8575   */\n      mload\n        /* \"#utility.yul\":8553:8554   */\n      dup2\n        /* \"#utility.yul\":8548:8551   */\n      dup5\n        /* \"#utility.yul\":8544:8555   */\n      add\n        /* \"#utility.yul\":8537:8576   */\n      mstore\n        /* \"#utility.yul\":8509:8511   */\n      0x20\n        /* \"#utility.yul\":8506:8507   */\n      dup2\n        /* \"#utility.yul\":8502:8512   */\n      add\n        /* \"#utility.yul\":8497:8512   */\n      swap1\n      pop\n        /* \"#utility.yul\":8473:8586   */\n      jump(tag_430)\n    tag_432:\n        /* \"#utility.yul\":8604:8610   */\n      dup4\n        /* \"#utility.yul\":8601:8602   */\n      dup2\n        /* \"#utility.yul\":8598:8611   */\n      gt\n        /* \"#utility.yul\":8595:8696   */\n      iszero\n      tag_433\n      jumpi\n        /* \"#utility.yul\":8684:8685   */\n      0x00\n        /* \"#utility.yul\":8675:8681   */\n      dup5\n        /* \"#utility.yul\":8670:8673   */\n      dup5\n        /* \"#utility.yul\":8666:8682   */\n      add\n        /* \"#utility.yul\":8659:8686   */\n      mstore\n        /* \"#utility.yul\":8595:8696   */\n    tag_433:\n        /* \"#utility.yul\":8444:8702   */\n      pop\n        /* \"#utility.yul\":8395:8702   */\n      pop\n      pop\n      pop\n      jump\t// out\n        /* \"#utility.yul\":8708:9052   */\n    tag_300:\n        /* \"#utility.yul\":8786:8789   */\n      0x00\n        /* \"#utility.yul\":8814:8853   */\n      tag_435\n        /* \"#utility.yul\":8847:8852   */\n      dup3\n        /* \"#utility.yul\":8814:8853   */\n      tag_297\n      jump\t// in\n    tag_435:\n        /* \"#utility.yul\":8869:8930   */\n      tag_436\n        /* \"#utility.yul\":8923:8929   */\n      dup2\n        /* \"#utility.yul\":8918:8921   */\n      dup6\n        /* \"#utility.yul\":8869:8930   */\n      tag_298\n      jump\t// in\n    tag_436:\n        /* \"#utility.yul\":8862:8930   */\n      swap4\n      pop\n        /* \"#utility.yul\":8939:8991   */\n      tag_437\n        /* \"#utility.yul\":8984:8990   */\n      dup2\n        /* \"#utility.yul\":8979:8982   */\n      dup6\n        /* \"#utility.yul\":8972:8976   */\n      0x20\n        /* \"#utility.yul\":8965:8970   */\n      dup7\n        /* \"#utility.yul\":8961:8977   */\n      add\n        /* \"#utility.yul\":8939:8991   */\n      tag_299\n      jump\t// in\n    tag_437:\n        /* \"#utility.yul\":9016:9045   */\n      tag_438\n        /* \"#utility.yul\":9038:9044   */\n      dup2\n        /* \"#utility.yul\":9016:9045   */\n      tag_275\n      jump\t// in\n    tag_438:\n        /* \"#utility.yul\":9011:9014   */\n      dup5\n        /* \"#utility.yul\":9007:9046   */\n      add\n        /* \"#utility.yul\":9000:9046   */\n      swap2\n      pop\n        /* \"#utility.yul\":8790:9052   */\n      pop\n        /* \"#utility.yul\":8708:9052   */\n      swap3\n      swap2\n      pop\n      pop\n      jump\t// out\n        /* \"#utility.yul\":9058:9166   */\n    tag_301:\n        /* \"#utility.yul\":9135:9159   */\n      tag_440\n        /* \"#utility.yul\":9153:9158   */\n      dup2\n        /* \"#utility.yul\":9135:9159   */\n      tag_293\n      jump\t// in\n    tag_440:\n        /* \"#utility.yul\":9130:9133   */\n      dup3\n        /* \"#utility.yul\":9123:9160   */\n      mstore\n        /* \"#utility.yul\":9058:9166   */\n      pop\n      pop\n      jump\t// out\n        /* \"#utility.yul\":9172:9271   */\n    tag_302:\n        /* \"#utility.yul\":9243:9264   */\n      tag_442\n        /* \"#utility.yul\":9258:9263   */\n      dup2\n        /* \"#utility.yul\":9243:9264   */\n      tag_285\n      jump\t// in\n    tag_442:\n        /* \"#utility.yul\":9238:9241   */\n      dup3\n        /* \"#utility.yul\":9231:9265   */\n      mstore\n        /* \"#utility.yul\":9172:9271   */\n      pop\n      pop\n      jump\t// out\n        /* \"#utility.yul\":9321:10097   */\n    tag_303:\n        /* \"#utility.yul\":9432:9435   */\n      0x00\n        /* \"#utility.yul\":9468:9472   */\n      0x60\n        /* \"#utility.yul\":9463:9466   */\n      dup4\n        /* \"#utility.yul\":9459:9473   */\n      add\n        /* \"#utility.yul\":9555:9559   */\n      0x00\n        /* \"#utility.yul\":9548:9553   */\n      dup4\n        /* \"#utility.yul\":9544:9560   */\n      add\n        /* \"#utility.yul\":9538:9561   */\n      mload\n        /* \"#utility.yul\":9608:9611   */\n      dup5\n        /* \"#utility.yul\":9602:9606   */\n      dup3\n        /* \"#utility.yul\":9598:9612   */\n      sub\n        /* \"#utility.yul\":9591:9595   */\n      0x00\n        /* \"#utility.yul\":9586:9589   */\n      dup7\n        /* \"#utility.yul\":9582:9596   */\n      add\n        /* \"#utility.yul\":9575:9613   */\n      mstore\n        /* \"#utility.yul\":9634:9707   */\n      tag_444\n        /* \"#utility.yul\":9702:9706   */\n      dup3\n        /* \"#utility.yul\":9688:9700   */\n      dup3\n        /* \"#utility.yul\":9634:9707   */\n      tag_300\n      jump\t// in\n    tag_444:\n        /* \"#utility.yul\":9626:9707   */\n      swap2\n      pop\n        /* \"#utility.yul\":9483:9718   */\n      pop\n        /* \"#utility.yul\":9809:9813   */\n      0x20\n        /* \"#utility.yul\":9802:9807   */\n      dup4\n        /* \"#utility.yul\":9798:9814   */\n      add\n        /* \"#utility.yul\":9792:9815   */\n      mload\n        /* \"#utility.yul\":9828:9891   */\n      tag_445\n        /* \"#utility.yul\":9885:9889   */\n      0x20\n        /* \"#utility.yul\":9880:9883   */\n      dup7\n        /* \"#utility.yul\":9876:9890   */\n      add\n        /* \"#utility.yul\":9862:9874   */\n      dup3\n        /* \"#utility.yul\":9828:9891   */\n      tag_301\n      jump\t// in\n    tag_445:\n        /* \"#utility.yul\":9728:9901   */\n      pop\n        /* \"#utility.yul\":9984:9988   */\n      0x40\n        /* \"#utility.yul\":9977:9982   */\n      dup4\n        /* \"#utility.yul\":9973:9989   */\n      add\n        /* \"#utility.yul\":9967:9990   */\n      mload\n        /* \"#utility.yul\":10003:10060   */\n      tag_446\n        /* \"#utility.yul\":10054:10058   */\n      0x40\n        /* \"#utility.yul\":10049:10052   */\n      dup7\n        /* \"#utility.yul\":10045:10059   */\n      add\n        /* \"#utility.yul\":10031:10043   */\n      dup3\n        /* \"#utility.yul\":10003:10060   */\n      tag_302\n      jump\t// in\n    tag_446:\n        /* \"#utility.yul\":9911:10070   */\n      pop\n        /* \"#utility.yul\":10087:10091   */\n      dup1\n        /* \"#utility.yul\":10080:10091   */\n      swap2\n      pop\n        /* \"#utility.yul\":9437:10097   */\n      pop\n        /* \"#utility.yul\":9321:10097   */\n      swap3\n      swap2\n      pop\n      pop\n      jump\t// out\n        /* \"#utility.yul\":10103:10460   */\n    tag_47:\n        /* \"#utility.yul\":10238:10242   */\n      0x00\n        /* \"#utility.yul\":10276:10278   */\n      0x20\n        /* \"#utility.yul\":10265:10274   */\n      dup3\n        /* \"#utility.yul\":10261:10279   */\n      add\n        /* \"#utility.yul\":10253:10279   */\n      swap1\n      pop\n        /* \"#utility.yul\":10325:10334   */\n      dup2\n        /* \"#utility.yul\":10319:10323   */\n      dup2\n        /* \"#utility.yul\":10315:10335   */\n      sub\n        /* \"#utility.yul\":10311:10312   */\n      0x00\n        /* \"#utility.yul\":10300:10309   */\n      dup4\n        /* \"#utility.yul\":10296:10313   */\n      add\n        /* \"#utility.yul\":10289:10336   */\n      mstore\n        /* \"#utility.yul\":10353:10453   */\n      tag_448\n        /* \"#utility.yul\":10448:10452   */\n      dup2\n        /* \"#utility.yul\":10439:10445   */\n      dup5\n        /* \"#utility.yul\":10353:10453   */\n      tag_303\n      jump\t// in\n    tag_448:\n        /* \"#utility.yul\":10345:10453   */\n      swap1\n      pop\n        /* \"#utility.yul\":10103:10460   */\n      swap3\n      swap2\n      pop\n      pop\n      jump\t// out\n        /* \"#utility.yul\":10466:10635   */\n    tag_304:\n        /* \"#utility.yul\":10550:10561   */\n      0x00\n        /* \"#utility.yul\":10584:10590   */\n      dup3\n        /* \"#utility.yul\":10579:10582   */\n      dup3\n        /* \"#utility.yul\":10572:10591   */\n      mstore\n        /* \"#utility.yul\":10624:10628   */\n      0x20\n        /* \"#utility.yul\":10619:10622   */\n      dup3\n        /* \"#utility.yul\":10615:10629   */\n      add\n        /* \"#utility.yul\":10600:10629   */\n      swap1\n      pop\n        /* \"#utility.yul\":10466:10635   */\n      swap3\n      swap2\n      pop\n      pop\n      jump\t// out\n        /* \"#utility.yul\":10641:10819   */\n    tag_305:\n        /* \"#utility.yul\":10781:10811   */\n      0x5468697320636f6e747261637420697320646561637469766174656400000000\n        /* \"#utility.yul\":10777:10778   */\n      0x00\n        /* \"#utility.yul\":10769:10775   */\n      dup3\n        /* \"#utility.yul\":10765:10779   */\n      add\n        /* \"#utility.yul\":10758:10812   */\n      mstore\n        /* \"#utility.yul\":10641:10819   */\n      pop\n      jump\t// out\n        /* \"#utility.yul\":10825:11191   */\n    tag_306:\n        /* \"#utility.yul\":10967:10970   */\n      0x00\n        /* \"#utility.yul\":10988:11055   */\n      tag_452\n        /* \"#utility.yul\":11052:11054   */\n      0x1c\n        /* \"#utility.yul\":11047:11050   */\n      dup4\n        /* \"#utility.yul\":10988:11055   */\n      tag_304\n      jump\t// in\n    tag_452:\n        /* \"#utility.yul\":10981:11055   */\n      swap2\n      pop\n        /* \"#utility.yul\":11064:11157   */\n      tag_453\n        /* \"#utility.yul\":11153:11156   */\n      dup3\n        /* \"#utility.yul\":11064:11157   */\n      tag_305\n      jump\t// in\n    tag_453:\n        /* \"#utility.yul\":11182:11184   */\n      0x20\n        /* \"#utility.yul\":11177:11180   */\n      dup3\n        /* \"#utility.yul\":11173:11185   */\n      add\n        /* \"#utility.yul\":11166:11185   */\n      swap1\n      pop\n        /* \"#utility.yul\":10825:11191   */\n      swap2\n      swap1\n      pop\n      jump\t// out\n        /* \"#utility.yul\":11197:11616   */\n    tag_54:\n        /* \"#utility.yul\":11363:11367   */\n      0x00\n        /* \"#utility.yul\":11401:11403   */\n      0x20\n        /* \"#utility.yul\":11390:11399   */\n      dup3\n        /* \"#utility.yul\":11386:11404   */\n      add\n        /* \"#utility.yul\":11378:11404   */\n      swap1\n      pop\n        /* \"#utility.yul\":11450:11459   */\n      dup2\n        /* \"#utility.yul\":11444:11448   */\n      dup2\n        /* \"#utility.yul\":11440:11460   */\n      sub\n        /* \"#utility.yul\":11436:11437   */\n      0x00\n        /* \"#utility.yul\":11425:11434   */\n      dup4\n        /* \"#utility.yul\":11421:11438   */\n      add\n        /* \"#utility.yul\":11414:11461   */\n      mstore\n        /* \"#utility.yul\":11478:11609   */\n      tag_455\n        /* \"#utility.yul\":11604:11608   */\n      dup2\n        /* \"#utility.yul\":11478:11609   */\n      tag_306\n      jump\t// in\n    tag_455:\n        /* \"#utility.yul\":11470:11609   */\n      swap1\n      pop\n        /* \"#utility.yul\":11197:11616   */\n      swap2\n      swap1\n      pop\n      jump\t// out\n        /* \"#utility.yul\":11622:11852   */\n    tag_307:\n        /* \"#utility.yul\":11762:11796   */\n      0x4f6e6c79207468652070726f636573732063616e206578656375746520746869\n        /* \"#utility.yul\":11758:11759   */\n      0x00\n        /* \"#utility.yul\":11750:11756   */\n      dup3\n        /* \"#utility.yul\":11746:11760   */\n      add\n        /* \"#utility.yul\":11739:11797   */\n      mstore\n        /* \"#utility.yul\":11831:11844   */\n      0x73206f7065726174696f6e000000000000000000000000000000000000000000\n        /* \"#utility.yul\":11826:11828   */\n      0x20\n        /* \"#utility.yul\":11818:11824   */\n      dup3\n        /* \"#utility.yul\":11814:11829   */\n      add\n        /* \"#utility.yul\":11807:11845   */\n      mstore\n        /* \"#utility.yul\":11622:11852   */\n      pop\n      jump\t// out\n        /* \"#utility.yul\":11858:12224   */\n    tag_308:\n        /* \"#utility.yul\":12000:12003   */\n      0x00\n        /* \"#utility.yul\":12021:12088   */\n      tag_458\n        /* \"#utility.yul\":12085:12087   */\n      0x2b\n        /* \"#utility.yul\":12080:12083   */\n      dup4\n        /* \"#utility.yul\":12021:12088   */\n      tag_304\n      jump\t// in\n    tag_458:\n        /* \"#utility.yul\":12014:12088   */\n      swap2\n      pop\n        /* \"#utility.yul\":12097:12190   */\n      tag_459\n        /* \"#utility.yul\":12186:12189   */\n      dup3\n        /* \"#utility.yul\":12097:12190   */\n      tag_307\n      jump\t// in\n    tag_459:\n        /* \"#utility.yul\":12215:12217   */\n      0x40\n        /* \"#utility.yul\":12210:12213   */\n      dup3\n        /* \"#utility.yul\":12206:12218   */\n      add\n        /* \"#utility.yul\":12199:12218   */\n      swap1\n      pop\n        /* \"#utility.yul\":11858:12224   */\n      swap2\n      swap1\n      pop\n      jump\t// out\n        /* \"#utility.yul\":12230:12649   */\n    tag_57:\n        /* \"#utility.yul\":12396:12400   */\n      0x00\n        /* \"#utility.yul\":12434:12436   */\n      0x20\n        /* \"#utility.yul\":12423:12432   */\n      dup3\n        /* \"#utility.yul\":12419:12437   */\n      add\n        /* \"#utility.yul\":12411:12437   */\n      swap1\n      pop\n        /* \"#utility.yul\":12483:12492   */\n      dup2\n        /* \"#utility.yul\":12477:12481   */\n      dup2\n        /* \"#utility.yul\":12473:12493   */\n      sub\n        /* \"#utility.yul\":12469:12470   */\n      0x00\n        /* \"#utility.yul\":12458:12467   */\n      dup4\n        /* \"#utility.yul\":12454:12471   */\n      add\n        /* \"#utility.yul\":12447:12494   */\n      mstore\n        /* \"#utility.yul\":12511:12642   */\n      tag_461\n        /* \"#utility.yul\":12637:12641   */\n      dup2\n        /* \"#utility.yul\":12511:12642   */\n      tag_308\n      jump\t// in\n    tag_461:\n        /* \"#utility.yul\":12503:12642   */\n      swap1\n      pop\n        /* \"#utility.yul\":12230:12649   */\n      swap2\n      swap1\n      pop\n      jump\t// out\n        /* \"#utility.yul\":12655:12835   */\n    tag_62:\n        /* \"#utility.yul\":12703:12780   */\n      0x4e487b7100000000000000000000000000000000000000000000000000000000\n        /* \"#utility.yul\":12700:12701   */\n      0x00\n        /* \"#utility.yul\":12693:12781   */\n      mstore\n        /* \"#utility.yul\":12800:12804   */\n      0x32\n        /* \"#utility.yul\":12797:12798   */\n      0x04\n        /* \"#utility.yul\":12790:12805   */\n      mstore\n        /* \"#utility.yul\":12824:12828   */\n      0x24\n        /* \"#utility.yul\":12821:12822   */\n      0x00\n        /* \"#utility.yul\":12814:12829   */\n      revert\n        /* \"#utility.yul\":12841:13075   */\n    tag_309:\n        /* \"#utility.yul\":12981:13015   */\n      0x4f6e6c7920746865206170706c69636174696f6e2063616e2065786563757465\n        /* \"#utility.yul\":12977:12978   */\n      0x00\n        /* \"#utility.yul\":12969:12975   */\n      dup3\n        /* \"#utility.yul\":12965:12979   */\n      add\n        /* \"#utility.yul\":12958:13016   */\n      mstore\n        /* \"#utility.yul\":13050:13067   */\n      0x2074686973206f7065726174696f6e0000000000000000000000000000000000\n        /* \"#utility.yul\":13045:13047   */\n      0x20\n        /* \"#utility.yul\":13037:13043   */\n      dup3\n        /* \"#utility.yul\":13033:13048   */\n      add\n        /* \"#utility.yul\":13026:13068   */\n      mstore\n        /* \"#utility.yul\":12841:13075   */\n      pop\n      jump\t// out\n        /* \"#utility.yul\":13081:13447   */\n    tag_310:\n        /* \"#utility.yul\":13223:13226   */\n      0x00\n        /* \"#utility.yul\":13244:13311   */\n      tag_465\n        /* \"#utility.yul\":13308:13310   */\n      0x2f\n        /* \"#utility.yul\":13303:13306   */\n      dup4\n        /* \"#utility.yul\":13244:13311   */\n      tag_304\n      jump\t// in\n    tag_465:\n        /* \"#utility.yul\":13237:13311   */\n      swap2\n      pop\n        /* \"#utility.yul\":13320:13413   */\n      tag_466\n        /* \"#utility.yul\":13409:13412   */\n      dup3\n        /* \"#utility.yul\":13320:13413   */\n      tag_309\n      jump\t// in\n    tag_466:\n        /* \"#utility.yul\":13438:13440   */\n      0x40\n        /* \"#utility.yul\":13433:13436   */\n      dup3\n        /* \"#utility.yul\":13429:13441   */\n      add\n        /* \"#utility.yul\":13422:13441   */\n      swap1\n      pop\n        /* \"#utility.yul\":13081:13447   */\n      swap2\n      swap1\n      pop\n      jump\t// out\n        /* \"#utility.yul\":13453:13872   */\n    tag_70:\n        /* \"#utility.yul\":13619:13623   */\n      0x00\n        /* \"#utility.yul\":13657:13659   */\n      0x20\n        /* \"#utility.yul\":13646:13655   */\n      dup3\n        /* \"#utility.yul\":13642:13660   */\n      add\n        /* \"#utility.yul\":13634:13660   */\n      swap1\n      pop\n        /* \"#utility.yul\":13706:13715   */\n      dup2\n        /* \"#utility.yul\":13700:13704   */\n      dup2\n        /* \"#utility.yul\":13696:13716   */\n      sub\n        /* \"#utility.yul\":13692:13693   */\n      0x00\n        /* \"#utility.yul\":13681:13690   */\n      dup4\n        /* \"#utility.yul\":13677:13694   */\n      add\n        /* \"#utility.yul\":13670:13717   */\n      mstore\n        /* \"#utility.yul\":13734:13865   */\n      tag_468\n        /* \"#utility.yul\":13860:13864   */\n      dup2\n        /* \"#utility.yul\":13734:13865   */\n      tag_310\n      jump\t// in\n    tag_468:\n        /* \"#utility.yul\":13726:13865   */\n      swap1\n      pop\n        /* \"#utility.yul\":13453:13872   */\n      swap2\n      swap1\n      pop\n      jump\t// out\n        /* \"#utility.yul\":13878:14058   */\n    tag_311:\n        /* \"#utility.yul\":13926:14003   */\n      0x4e487b7100000000000000000000000000000000000000000000000000000000\n        /* \"#utility.yul\":13923:13924   */\n      0x00\n        /* \"#utility.yul\":13916:14004   */\n      mstore\n        /* \"#utility.yul\":14023:14027   */\n      0x22\n        /* \"#utility.yul\":14020:14021   */\n      0x04\n        /* \"#utility.yul\":14013:14028   */\n      mstore\n        /* \"#utility.yul\":14047:14051   */\n      0x24\n        /* \"#utility.yul\":14044:14045   */\n      0x00\n        /* \"#utility.yul\":14037:14052   */\n      revert\n        /* \"#utility.yul\":14064:14384   */\n    tag_74:\n        /* \"#utility.yul\":14108:14114   */\n      0x00\n        /* \"#utility.yul\":14145:14146   */\n      0x02\n        /* \"#utility.yul\":14139:14143   */\n      dup3\n        /* \"#utility.yul\":14135:14147   */\n      div\n        /* \"#utility.yul\":14125:14147   */\n      swap1\n      pop\n        /* \"#utility.yul\":14192:14193   */\n      0x01\n        /* \"#utility.yul\":14186:14190   */\n      dup3\n        /* \"#utility.yul\":14182:14194   */\n      and\n        /* \"#utility.yul\":14213:14231   */\n      dup1\n        /* \"#utility.yul\":14203:14284   */\n      tag_471\n      jumpi\n        /* \"#utility.yul\":14269:14273   */\n      0x7f\n        /* \"#utility.yul\":14261:14267   */\n      dup3\n        /* \"#utility.yul\":14257:14274   */\n      and\n        /* \"#utility.yul\":14247:14274   */\n      swap2\n      pop\n        /* \"#utility.yul\":14203:14284   */\n    tag_471:\n        /* \"#utility.yul\":14331:14333   */\n      0x20\n        /* \"#utility.yul\":14323:14329   */\n      dup3\n        /* \"#utility.yul\":14320:14334   */\n      lt\n        /* \"#utility.yul\":14300:14318   */\n      dup2\n        /* \"#utility.yul\":14297:14335   */\n      eq\n        /* \"#utility.yul\":14294:14378   */\n      iszero\n      tag_472\n      jumpi\n        /* \"#utility.yul\":14350:14368   */\n      tag_473\n      tag_311\n      jump\t// in\n    tag_473:\n        /* \"#utility.yul\":14294:14378   */\n    tag_472:\n        /* \"#utility.yul\":14115:14384   */\n      pop\n        /* \"#utility.yul\":14064:14384   */\n      swap2\n      swap1\n      pop\n      jump\t// out\n        /* \"#utility.yul\":14390:14685   */\n    tag_312:\n        /* \"#utility.yul\":14530:14564   */\n      0x546865204170706c69636174696f6e2070617274792073686f756c6420736967\n        /* \"#utility.yul\":14526:14527   */\n      0x00\n        /* \"#utility.yul\":14518:14524   */\n      dup3\n        /* \"#utility.yul\":14514:14528   */\n      add\n        /* \"#utility.yul\":14507:14565   */\n      mstore\n        /* \"#utility.yul\":14599:14633   */\n      0x6e2074686520636f6e7472616374206265666f726520696e7465726163742077\n        /* \"#utility.yul\":14594:14596   */\n      0x20\n        /* \"#utility.yul\":14586:14592   */\n      dup3\n        /* \"#utility.yul\":14582:14597   */\n      add\n        /* \"#utility.yul\":14575:14634   */\n      mstore\n        /* \"#utility.yul\":14668:14677   */\n      0x6974682069742e00000000000000000000000000000000000000000000000000\n        /* \"#utility.yul\":14663:14665   */\n      0x40\n        /* \"#utility.yul\":14655:14661   */\n      dup3\n        /* \"#utility.yul\":14651:14666   */\n      add\n        /* \"#utility.yul\":14644:14678   */\n      mstore\n        /* \"#utility.yul\":14390:14685   */\n      pop\n      jump\t// out\n        /* \"#utility.yul\":14691:15057   */\n    tag_313:\n        /* \"#utility.yul\":14833:14836   */\n      0x00\n        /* \"#utility.yul\":14854:14921   */\n      tag_476\n        /* \"#utility.yul\":14918:14920   */\n      0x47\n        /* \"#utility.yul\":14913:14916   */\n      dup4\n        /* \"#utility.yul\":14854:14921   */\n      tag_304\n      jump\t// in\n    tag_476:\n        /* \"#utility.yul\":14847:14921   */\n      swap2\n      pop\n        /* \"#utility.yul\":14930:15023   */\n      tag_477\n        /* \"#utility.yul\":15019:15022   */\n      dup3\n        /* \"#utility.yul\":14930:15023   */\n      tag_312\n      jump\t// in\n    tag_477:\n        /* \"#utility.yul\":15048:15050   */\n      0x60\n        /* \"#utility.yul\":15043:15046   */\n      dup3\n        /* \"#utility.yul\":15039:15051   */\n      add\n        /* \"#utility.yul\":15032:15051   */\n      swap1\n      pop\n        /* \"#utility.yul\":14691:15057   */\n      swap2\n      swap1\n      pop\n      jump\t// out\n        /* \"#utility.yul\":15063:15482   */\n    tag_82:\n        /* \"#utility.yul\":15229:15233   */\n      0x00\n        /* \"#utility.yul\":15267:15269   */\n      0x20\n        /* \"#utility.yul\":15256:15265   */\n      dup3\n        /* \"#utility.yul\":15252:15270   */\n      add\n        /* \"#utility.yul\":15244:15270   */\n      swap1\n      pop\n        /* \"#utility.yul\":15316:15325   */\n      dup2\n        /* \"#utility.yul\":15310:15314   */\n      dup2\n        /* \"#utility.yul\":15306:15326   */\n      sub\n        /* \"#utility.yul\":15302:15303   */\n      0x00\n        /* \"#utility.yul\":15291:15300   */\n      dup4\n        /* \"#utility.yul\":15287:15304   */\n      add\n        /* \"#utility.yul\":15280:15327   */\n      mstore\n        /* \"#utility.yul\":15344:15475   */\n      tag_479\n        /* \"#utility.yul\":15470:15474   */\n      dup2\n        /* \"#utility.yul\":15344:15475   */\n      tag_313\n      jump\t// in\n    tag_479:\n        /* \"#utility.yul\":15336:15475   */\n      swap1\n      pop\n        /* \"#utility.yul\":15063:15482   */\n      swap2\n      swap1\n      pop\n      jump\t// out\n        /* \"#utility.yul\":15488:15659   */\n    tag_314:\n        /* \"#utility.yul\":15628:15651   */\n      0x5375636365737366756c20657865637574696f6e210000000000000000000000\n        /* \"#utility.yul\":15624:15625   */\n      0x00\n        /* \"#utility.yul\":15616:15622   */\n      dup3\n        /* \"#utility.yul\":15612:15626   */\n      add\n        /* \"#utility.yul\":15605:15652   */\n      mstore\n        /* \"#utility.yul\":15488:15659   */\n      pop\n      jump\t// out\n        /* \"#utility.yul\":15665:16031   */\n    tag_315:\n        /* \"#utility.yul\":15807:15810   */\n      0x00\n        /* \"#utility.yul\":15828:15895   */\n      tag_482\n        /* \"#utility.yul\":15892:15894   */\n      0x15\n        /* \"#utility.yul\":15887:15890   */\n      dup4\n        /* \"#utility.yul\":15828:15895   */\n      tag_304\n      jump\t// in\n    tag_482:\n        /* \"#utility.yul\":15821:15895   */\n      swap2\n      pop\n        /* \"#utility.yul\":15904:15997   */\n      tag_483\n        /* \"#utility.yul\":15993:15996   */\n      dup3\n        /* \"#utility.yul\":15904:15997   */\n      tag_314\n      jump\t// in\n    tag_483:\n        /* \"#utility.yul\":16022:16024   */\n      0x20\n        /* \"#utility.yul\":16017:16020   */\n      dup3\n        /* \"#utility.yul\":16013:16025   */\n      add\n        /* \"#utility.yul\":16006:16025   */\n      swap1\n      pop\n        /* \"#utility.yul\":15665:16031   */\n      swap2\n      swap1\n      pop\n      jump\t// out\n        /* \"#utility.yul\":16037:16456   */\n    tag_108:\n        /* \"#utility.yul\":16203:16207   */\n      0x00\n        /* \"#utility.yul\":16241:16243   */\n      0x20\n        /* \"#utility.yul\":16230:16239   */\n      dup3\n        /* \"#utility.yul\":16226:16244   */\n      add\n        /* \"#utility.yul\":16218:16244   */\n      swap1\n      pop\n        /* \"#utility.yul\":16290:16299   */\n      dup2\n        /* \"#utility.yul\":16284:16288   */\n      dup2\n        /* \"#utility.yul\":16280:16300   */\n      sub\n        /* \"#utility.yul\":16276:16277   */\n      0x00\n        /* \"#utility.yul\":16265:16274   */\n      dup4\n        /* \"#utility.yul\":16261:16278   */\n      add\n        /* \"#utility.yul\":16254:16301   */\n      mstore\n        /* \"#utility.yul\":16318:16449   */\n      tag_485\n        /* \"#utility.yul\":16444:16448   */\n      dup2\n        /* \"#utility.yul\":16318:16449   */\n      tag_315\n      jump\t// in\n    tag_485:\n        /* \"#utility.yul\":16310:16449   */\n      swap1\n      pop\n        /* \"#utility.yul\":16037:16456   */\n      swap2\n      swap1\n      pop\n      jump\t// out\n        /* \"#utility.yul\":16462:16707   */\n    tag_316:\n        /* \"#utility.yul\":16602:16636   */\n      0x52657175657374206d616465206f757473696465206f6620616c6c6f77656420\n        /* \"#utility.yul\":16598:16599   */\n      0x00\n        /* \"#utility.yul\":16590:16596   */\n      dup3\n        /* \"#utility.yul\":16586:16600   */\n      add\n        /* \"#utility.yul\":16579:16637   */\n      mstore\n        /* \"#utility.yul\":16671:16699   */\n      0x686f757273206f7220627564676574204964206d697373696e67000000000000\n        /* \"#utility.yul\":16666:16668   */\n      0x20\n        /* \"#utility.yul\":16658:16664   */\n      dup3\n        /* \"#utility.yul\":16654:16669   */\n      add\n        /* \"#utility.yul\":16647:16700   */\n      mstore\n        /* \"#utility.yul\":16462:16707   */\n      pop\n      jump\t// out\n        /* \"#utility.yul\":16713:17079   */\n    tag_317:\n        /* \"#utility.yul\":16855:16858   */\n      0x00\n        /* \"#utility.yul\":16876:16943   */\n      tag_488\n        /* \"#utility.yul\":16940:16942   */\n      0x3a\n        /* \"#utility.yul\":16935:16938   */\n      dup4\n        /* \"#utility.yul\":16876:16943   */\n      tag_304\n      jump\t// in\n    tag_488:\n        /* \"#utility.yul\":16869:16943   */\n      swap2\n      pop\n        /* \"#utility.yul\":16952:17045   */\n      tag_489\n        /* \"#utility.yul\":17041:17044   */\n      dup3\n        /* \"#utility.yul\":16952:17045   */\n      tag_316\n      jump\t// in\n    tag_489:\n        /* \"#utility.yul\":17070:17072   */\n      0x40\n        /* \"#utility.yul\":17065:17068   */\n      dup3\n        /* \"#utility.yul\":17061:17073   */\n      add\n        /* \"#utility.yul\":17054:17073   */\n      swap1\n      pop\n        /* \"#utility.yul\":16713:17079   */\n      swap2\n      swap1\n      pop\n      jump\t// out\n        /* \"#utility.yul\":17085:17504   */\n    tag_110:\n        /* \"#utility.yul\":17251:17255   */\n      0x00\n        /* \"#utility.yul\":17289:17291   */\n      0x20\n        /* \"#utility.yul\":17278:17287   */\n      dup3\n        /* \"#utility.yul\":17274:17292   */\n      add\n        /* \"#utility.yul\":17266:17292   */\n      swap1\n      pop\n        /* \"#utility.yul\":17338:17347   */\n      dup2\n        /* \"#utility.yul\":17332:17336   */\n      dup2\n        /* \"#utility.yul\":17328:17348   */\n      sub\n        /* \"#utility.yul\":17324:17325   */\n      0x00\n        /* \"#utility.yul\":17313:17322   */\n      dup4\n        /* \"#utility.yul\":17309:17326   */\n      add\n        /* \"#utility.yul\":17302:17349   */\n      mstore\n        /* \"#utility.yul\":17366:17497   */\n      tag_491\n        /* \"#utility.yul\":17492:17496   */\n      dup2\n        /* \"#utility.yul\":17366:17497   */\n      tag_317\n      jump\t// in\n    tag_491:\n        /* \"#utility.yul\":17358:17497   */\n      swap1\n      pop\n        /* \"#utility.yul\":17085:17504   */\n      swap2\n      swap1\n      pop\n      jump\t// out\n        /* \"#utility.yul\":17510:17759   */\n    tag_318:\n        /* \"#utility.yul\":17650:17684   */\n      0x4f6e6c79207468652070726f63657373206f7220746865206170706c69636174\n        /* \"#utility.yul\":17646:17647   */\n      0x00\n        /* \"#utility.yul\":17638:17644   */\n      dup3\n        /* \"#utility.yul\":17634:17648   */\n      add\n        /* \"#utility.yul\":17627:17685   */\n      mstore\n        /* \"#utility.yul\":17719:17751   */\n      0x696f6e2063616e20657865637574652074686973206f7065726174696f6e0000\n        /* \"#utility.yul\":17714:17716   */\n      0x20\n        /* \"#utility.yul\":17706:17712   */\n      dup3\n        /* \"#utility.yul\":17702:17717   */\n      add\n        /* \"#utility.yul\":17695:17752   */\n      mstore\n        /* \"#utility.yul\":17510:17759   */\n      pop\n      jump\t// out\n        /* \"#utility.yul\":17765:18131   */\n    tag_319:\n        /* \"#utility.yul\":17907:17910   */\n      0x00\n        /* \"#utility.yul\":17928:17995   */\n      tag_494\n        /* \"#utility.yul\":17992:17994   */\n      0x3e\n        /* \"#utility.yul\":17987:17990   */\n      dup4\n        /* \"#utility.yul\":17928:17995   */\n      tag_304\n      jump\t// in\n    tag_494:\n        /* \"#utility.yul\":17921:17995   */\n      swap2\n      pop\n        /* \"#utility.yul\":18004:18097   */\n      tag_495\n        /* \"#utility.yul\":18093:18096   */\n      dup3\n        /* \"#utility.yul\":18004:18097   */\n      tag_318\n      jump\t// in\n    tag_495:\n        /* \"#utility.yul\":18122:18124   */\n      0x40\n        /* \"#utility.yul\":18117:18120   */\n      dup3\n        /* \"#utility.yul\":18113:18125   */\n      add\n        /* \"#utility.yul\":18106:18125   */\n      swap1\n      pop\n        /* \"#utility.yul\":17765:18131   */\n      swap2\n      swap1\n      pop\n      jump\t// out\n        /* \"#utility.yul\":18137:18556   */\n    tag_127:\n        /* \"#utility.yul\":18303:18307   */\n      0x00\n        /* \"#utility.yul\":18341:18343   */\n      0x20\n        /* \"#utility.yul\":18330:18339   */\n      dup3\n        /* \"#utility.yul\":18326:18344   */\n      add\n        /* \"#utility.yul\":18318:18344   */\n      swap1\n      pop\n        /* \"#utility.yul\":18390:18399   */\n      dup2\n        /* \"#utility.yul\":18384:18388   */\n      dup2\n        /* \"#utility.yul\":18380:18400   */\n      sub\n        /* \"#utility.yul\":18376:18377   */\n      0x00\n        /* \"#utility.yul\":18365:18374   */\n      dup4\n        /* \"#utility.yul\":18361:18378   */\n      add\n        /* \"#utility.yul\":18354:18401   */\n      mstore\n        /* \"#utility.yul\":18418:18549   */\n      tag_497\n        /* \"#utility.yul\":18544:18548   */\n      dup2\n        /* \"#utility.yul\":18418:18549   */\n      tag_319\n      jump\t// in\n    tag_497:\n        /* \"#utility.yul\":18410:18549   */\n      swap1\n      pop\n        /* \"#utility.yul\":18137:18556   */\n      swap2\n      swap1\n      pop\n      jump\t// out\n        /* \"#utility.yul\":18562:18742   */\n    tag_320:\n        /* \"#utility.yul\":18702:18734   */\n      0x54686520636f6e747261637420697320616c7265616479207369676e65640000\n        /* \"#utility.yul\":18698:18699   */\n      0x00\n        /* \"#utility.yul\":18690:18696   */\n      dup3\n        /* \"#utility.yul\":18686:18700   */\n      add\n        /* \"#utility.yul\":18679:18735   */\n      mstore\n        /* \"#utility.yul\":18562:18742   */\n      pop\n      jump\t// out\n        /* \"#utility.yul\":18748:19114   */\n    tag_321:\n        /* \"#utility.yul\":18890:18893   */\n      0x00\n        /* \"#utility.yul\":18911:18978   */\n      tag_500\n        /* \"#utility.yul\":18975:18977   */\n      0x1e\n        /* \"#utility.yul\":18970:18973   */\n      dup4\n        /* \"#utility.yul\":18911:18978   */\n      tag_304\n      jump\t// in\n    tag_500:\n        /* \"#utility.yul\":18904:18978   */\n      swap2\n      pop\n        /* \"#utility.yul\":18987:19080   */\n      tag_501\n        /* \"#utility.yul\":19076:19079   */\n      dup3\n        /* \"#utility.yul\":18987:19080   */\n      tag_320\n      jump\t// in\n    tag_501:\n        /* \"#utility.yul\":19105:19107   */\n      0x20\n        /* \"#utility.yul\":19100:19103   */\n      dup3\n        /* \"#utility.yul\":19096:19108   */\n      add\n        /* \"#utility.yul\":19089:19108   */\n      swap1\n      pop\n        /* \"#utility.yul\":18748:19114   */\n      swap2\n      swap1\n      pop\n      jump\t// out\n        /* \"#utility.yul\":19120:19539   */\n    tag_151:\n        /* \"#utility.yul\":19286:19290   */\n      0x00\n        /* \"#utility.yul\":19324:19326   */\n      0x20\n        /* \"#utility.yul\":19313:19322   */\n      dup3\n        /* \"#utility.yul\":19309:19327   */\n      add\n        /* \"#utility.yul\":19301:19327   */\n      swap1\n      pop\n        /* \"#utility.yul\":19373:19382   */\n      dup2\n        /* \"#utility.yul\":19367:19371   */\n      dup2\n        /* \"#utility.yul\":19363:19383   */\n      sub\n        /* \"#utility.yul\":19359:19360   */\n      0x00\n        /* \"#utility.yul\":19348:19357   */\n      dup4\n        /* \"#utility.yul\":19344:19361   */\n      add\n        /* \"#utility.yul\":19337:19384   */\n      mstore\n        /* \"#utility.yul\":19401:19532   */\n      tag_503\n        /* \"#utility.yul\":19527:19531   */\n      dup2\n        /* \"#utility.yul\":19401:19532   */\n      tag_321\n      jump\t// in\n    tag_503:\n        /* \"#utility.yul\":19393:19532   */\n      swap1\n      pop\n        /* \"#utility.yul\":19120:19539   */\n      swap2\n      swap1\n      pop\n      jump\t// out\n        /* \"#utility.yul\":19545:19725   */\n    tag_322:\n        /* \"#utility.yul\":19593:19670   */\n      0x4e487b7100000000000000000000000000000000000000000000000000000000\n        /* \"#utility.yul\":19590:19591   */\n      0x00\n        /* \"#utility.yul\":19583:19671   */\n      mstore\n        /* \"#utility.yul\":19690:19694   */\n      0x11\n        /* \"#utility.yul\":19687:19688   */\n      0x04\n        /* \"#utility.yul\":19680:19695   */\n      mstore\n        /* \"#utility.yul\":19714:19718   */\n      0x24\n        /* \"#utility.yul\":19711:19712   */\n      0x00\n        /* \"#utility.yul\":19704:19719   */\n      revert\n        /* \"#utility.yul\":19731:19977   */\n    tag_188:\n        /* \"#utility.yul\":19770:19773   */\n      0x00\n        /* \"#utility.yul\":19789:19808   */\n      tag_506\n        /* \"#utility.yul\":19806:19807   */\n      dup3\n        /* \"#utility.yul\":19789:19808   */\n      tag_271\n      jump\t// in\n    tag_506:\n        /* \"#utility.yul\":19784:19808   */\n      swap2\n      pop\n        /* \"#utility.yul\":19822:19841   */\n      tag_507\n        /* \"#utility.yul\":19839:19840   */\n      dup4\n        /* \"#utility.yul\":19822:19841   */\n      tag_271\n      jump\t// in\n    tag_507:\n        /* \"#utility.yul\":19817:19841   */\n      swap3\n      pop\n        /* \"#utility.yul\":19919:19920   */\n      dup3\n        /* \"#utility.yul\":19907:19917   */\n      0xffffffff\n        /* \"#utility.yul\":19903:19921   */\n      sub\n        /* \"#utility.yul\":19900:19901   */\n      dup3\n        /* \"#utility.yul\":19897:19922   */\n      gt\n        /* \"#utility.yul\":19894:19945   */\n      iszero\n      tag_508\n      jumpi\n        /* \"#utility.yul\":19925:19943   */\n      tag_509\n      tag_322\n      jump\t// in\n    tag_509:\n        /* \"#utility.yul\":19894:19945   */\n    tag_508:\n        /* \"#utility.yul\":19969:19970   */\n      dup3\n        /* \"#utility.yul\":19966:19967   */\n      dup3\n        /* \"#utility.yul\":19962:19971   */\n      add\n        /* \"#utility.yul\":19955:19971   */\n      swap1\n      pop\n        /* \"#utility.yul\":19731:19977   */\n      swap3\n      swap2\n      pop\n      pop\n      jump\t// out\n        /* \"#utility.yul\":19983:20204   */\n    tag_323:\n        /* \"#utility.yul\":20123:20157   */\n      0x5468657265206973206e6f20656e6454696d652073657420696e2074696d656f\n        /* \"#utility.yul\":20119:20120   */\n      0x00\n        /* \"#utility.yul\":20111:20117   */\n      dup3\n        /* \"#utility.yul\":20107:20121   */\n      add\n        /* \"#utility.yul\":20100:20158   */\n      mstore\n        /* \"#utility.yul\":20192:20196   */\n      0x7574000000000000000000000000000000000000000000000000000000000000\n        /* \"#utility.yul\":20187:20189   */\n      0x20\n        /* \"#utility.yul\":20179:20185   */\n      dup3\n        /* \"#utility.yul\":20175:20190   */\n      add\n        /* \"#utility.yul\":20168:20197   */\n      mstore\n        /* \"#utility.yul\":19983:20204   */\n      pop\n      jump\t// out\n        /* \"#utility.yul\":20210:20576   */\n    tag_324:\n        /* \"#utility.yul\":20352:20355   */\n      0x00\n        /* \"#utility.yul\":20373:20440   */\n      tag_512\n        /* \"#utility.yul\":20437:20439   */\n      0x22\n        /* \"#utility.yul\":20432:20435   */\n      dup4\n        /* \"#utility.yul\":20373:20440   */\n      tag_304\n      jump\t// in\n    tag_512:\n        /* \"#utility.yul\":20366:20440   */\n      swap2\n      pop\n        /* \"#utility.yul\":20449:20542   */\n      tag_513\n        /* \"#utility.yul\":20538:20541   */\n      dup3\n        /* \"#utility.yul\":20449:20542   */\n      tag_323\n      jump\t// in\n    tag_513:\n        /* \"#utility.yul\":20567:20569   */\n      0x40\n        /* \"#utility.yul\":20562:20565   */\n      dup3\n        /* \"#utility.yul\":20558:20570   */\n      add\n        /* \"#utility.yul\":20551:20570   */\n      swap1\n      pop\n        /* \"#utility.yul\":20210:20576   */\n      swap2\n      swap1\n      pop\n      jump\t// out\n        /* \"#utility.yul\":20582:21001   */\n    tag_196:\n        /* \"#utility.yul\":20748:20752   */\n      0x00\n        /* \"#utility.yul\":20786:20788   */\n      0x20\n        /* \"#utility.yul\":20775:20784   */\n      dup3\n        /* \"#utility.yul\":20771:20789   */\n      add\n        /* \"#utility.yul\":20763:20789   */\n      swap1\n      pop\n        /* \"#utility.yul\":20835:20844   */\n      dup2\n        /* \"#utility.yul\":20829:20833   */\n      dup2\n        /* \"#utility.yul\":20825:20845   */\n      sub\n        /* \"#utility.yul\":20821:20822   */\n      0x00\n        /* \"#utility.yul\":20810:20819   */\n      dup4\n        /* \"#utility.yul\":20806:20823   */\n      add\n        /* \"#utility.yul\":20799:20846   */\n      mstore\n        /* \"#utility.yul\":20863:20994   */\n      tag_515\n        /* \"#utility.yul\":20989:20993   */\n      dup2\n        /* \"#utility.yul\":20863:20994   */\n      tag_324\n      jump\t// in\n    tag_515:\n        /* \"#utility.yul\":20855:20994   */\n      swap1\n      pop\n        /* \"#utility.yul\":20582:21001   */\n      swap2\n      swap1\n      pop\n      jump\t// out\n        /* \"#utility.yul\":21007:21187   */\n    tag_325:\n        /* \"#utility.yul\":21147:21179   */\n      0x436f6d70617269736f6e2073796d626f6c206973206e6f742076616c69640000\n        /* \"#utility.yul\":21143:21144   */\n      0x00\n        /* \"#utility.yul\":21135:21141   */\n      dup3\n        /* \"#utility.yul\":21131:21145   */\n      add\n        /* \"#utility.yul\":21124:21180   */\n      mstore\n        /* \"#utility.yul\":21007:21187   */\n      pop\n      jump\t// out\n        /* \"#utility.yul\":21193:21559   */\n    tag_326:\n        /* \"#utility.yul\":21335:21338   */\n      0x00\n        /* \"#utility.yul\":21356:21423   */\n      tag_518\n        /* \"#utility.yul\":21420:21422   */\n      0x1e\n        /* \"#utility.yul\":21415:21418   */\n      dup4\n        /* \"#utility.yul\":21356:21423   */\n      tag_304\n      jump\t// in\n    tag_518:\n        /* \"#utility.yul\":21349:21423   */\n      swap2\n      pop\n        /* \"#utility.yul\":21432:21525   */\n      tag_519\n        /* \"#utility.yul\":21521:21524   */\n      dup3\n        /* \"#utility.yul\":21432:21525   */\n      tag_325\n      jump\t// in\n    tag_519:\n        /* \"#utility.yul\":21550:21552   */\n      0x20\n        /* \"#utility.yul\":21545:21548   */\n      dup3\n        /* \"#utility.yul\":21541:21553   */\n      add\n        /* \"#utility.yul\":21534:21553   */\n      swap1\n      pop\n        /* \"#utility.yul\":21193:21559   */\n      swap2\n      swap1\n      pop\n      jump\t// out\n        /* \"#utility.yul\":21565:21984   */\n    tag_219:\n        /* \"#utility.yul\":21731:21735   */\n      0x00\n        /* \"#utility.yul\":21769:21771   */\n      0x20\n        /* \"#utility.yul\":21758:21767   */\n      dup3\n        /* \"#utility.yul\":21754:21772   */\n      add\n        /* \"#utility.yul\":21746:21772   */\n      swap1\n      pop\n        /* \"#utility.yul\":21818:21827   */\n      dup2\n        /* \"#utility.yul\":21812:21816   */\n      dup2\n        /* \"#utility.yul\":21808:21828   */\n      sub\n        /* \"#utility.yul\":21804:21805   */\n      0x00\n        /* \"#utility.yul\":21793:21802   */\n      dup4\n        /* \"#utility.yul\":21789:21806   */\n      add\n        /* \"#utility.yul\":21782:21829   */\n      mstore\n        /* \"#utility.yul\":21846:21977   */\n      tag_521\n        /* \"#utility.yul\":21972:21976   */\n      dup2\n        /* \"#utility.yul\":21846:21977   */\n      tag_326\n      jump\t// in\n    tag_521:\n        /* \"#utility.yul\":21838:21977   */\n      swap1\n      pop\n        /* \"#utility.yul\":21565:21984   */\n      swap2\n      swap1\n      pop\n      jump\t// out\n        /* \"#utility.yul\":21990:22067   */\n    tag_327:\n        /* \"#utility.yul\":22027:22034   */\n      0x00\n        /* \"#utility.yul\":22056:22061   */\n      dup2\n        /* \"#utility.yul\":22045:22061   */\n      swap1\n      pop\n        /* \"#utility.yul\":21990:22067   */\n      swap2\n      swap1\n      pop\n      jump\t// out\n        /* \"#utility.yul\":22073:22306   */\n    tag_229:\n        /* \"#utility.yul\":22112:22115   */\n      0x00\n        /* \"#utility.yul\":22135:22159   */\n      tag_524\n        /* \"#utility.yul\":22153:22158   */\n      dup3\n        /* \"#utility.yul\":22135:22159   */\n      tag_327\n      jump\t// in\n    tag_524:\n        /* \"#utility.yul\":22126:22159   */\n      swap2\n      pop\n        /* \"#utility.yul\":22181:22247   */\n      0xffffffffffffffffffffffffffffffffffffffffffffffffffffffffffffffff\n        /* \"#utility.yul\":22174:22179   */\n      dup3\n        /* \"#utility.yul\":22171:22248   */\n      eq\n        /* \"#utility.yul\":22168:22271   */\n      iszero\n      tag_525\n      jumpi\n        /* \"#utility.yul\":22251:22269   */\n      tag_526\n      tag_322\n      jump\t// in\n    tag_526:\n        /* \"#utility.yul\":22168:22271   */\n    tag_525:\n        /* \"#utility.yul\":22298:22299   */\n      0x01\n        /* \"#utility.yul\":22291:22296   */\n      dup3\n        /* \"#utility.yul\":22287:22300   */\n      add\n        /* \"#utility.yul\":22280:22300   */\n      swap1\n      pop\n        /* \"#utility.yul\":22073:22306   */\n      swap2\n      swap1\n      pop\n      jump\t// out\n        /* \"#utility.yul\":22312:22492   */\n    tag_328:\n        /* \"#utility.yul\":22360:22437   */\n      0x4e487b7100000000000000000000000000000000000000000000000000000000\n        /* \"#utility.yul\":22357:22358   */\n      0x00\n        /* \"#utility.yul\":22350:22438   */\n      mstore\n        /* \"#utility.yul\":22457:22461   */\n      0x12\n        /* \"#utility.yul\":22454:22455   */\n      0x04\n        /* \"#utility.yul\":22447:22462   */\n      mstore\n        /* \"#utility.yul\":22481:22485   */\n      0x24\n        /* \"#utility.yul\":22478:22479   */\n      0x00\n        /* \"#utility.yul\":22471:22486   */\n      revert\n        /* \"#utility.yul\":22498:22683   */\n    tag_231:\n        /* \"#utility.yul\":22538:22539   */\n      0x00\n        /* \"#utility.yul\":22555:22575   */\n      tag_529\n        /* \"#utility.yul\":22573:22574   */\n      dup3\n        /* \"#utility.yul\":22555:22575   */\n      tag_327\n      jump\t// in\n    tag_529:\n        /* \"#utility.yul\":22550:22575   */\n      swap2\n      pop\n        /* \"#utility.yul\":22589:22609   */\n      tag_530\n        /* \"#utility.yul\":22607:22608   */\n      dup4\n        /* \"#utility.yul\":22589:22609   */\n      tag_327\n      jump\t// in\n    tag_530:\n        /* \"#utility.yul\":22584:22609   */\n      swap3\n      pop\n        /* \"#utility.yul\":22628:22629   */\n      dup3\n        /* \"#utility.yul\":22618:22653   */\n      tag_531\n      jumpi\n        /* \"#utility.yul\":22633:22651   */\n      tag_532\n      tag_328\n      jump\t// in\n    tag_532:\n        /* \"#utility.yul\":22618:22653   */\n    tag_531:\n        /* \"#utility.yul\":22675:22676   */\n      dup3\n        /* \"#utility.yul\":22672:22673   */\n      dup3\n        /* \"#utility.yul\":22668:22677   */\n      div\n        /* \"#utility.yul\":22663:22677   */\n      swap1\n      pop\n        /* \"#utility.yul\":22498:22683   */\n      swap3\n      swap2\n      pop\n      pop\n      jump\t// out\n        /* \"#utility.yul\":22689:22880   */\n    tag_239:\n        /* \"#utility.yul\":22729:22733   */\n      0x00\n        /* \"#utility.yul\":22749:22769   */\n      tag_534\n        /* \"#utility.yul\":22767:22768   */\n      dup3\n        /* \"#utility.yul\":22749:22769   */\n      tag_327\n      jump\t// in\n    tag_534:\n        /* \"#utility.yul\":22744:22769   */\n      swap2\n      pop\n        /* \"#utility.yul\":22783:22803   */\n      tag_535\n        /* \"#utility.yul\":22801:22802   */\n      dup4\n        /* \"#utility.yul\":22783:22803   */\n      tag_327\n      jump\t// in\n    tag_535:\n        /* \"#utility.yul\":22778:22803   */\n      swap3\n      pop\n        /* \"#utility.yul\":22822:22823   */\n      dup3\n        /* \"#utility.yul\":22819:22820   */\n      dup3\n        /* \"#utility.yul\":22816:22824   */\n      lt\n        /* \"#utility.yul\":22813:22847   */\n      iszero\n      tag_536\n      jumpi\n        /* \"#utility.yul\":22827:22845   */\n      tag_537\n      tag_322\n      jump\t// in\n    tag_537:\n        /* \"#utility.yul\":22813:22847   */\n    tag_536:\n        /* \"#utility.yul\":22872:22873   */\n      dup3\n        /* \"#utility.yul\":22869:22870   */\n      dup3\n        /* \"#utility.yul\":22865:22874   */\n      sub\n        /* \"#utility.yul\":22857:22874   */\n      swap1\n      pop\n        /* \"#utility.yul\":22689:22880   */\n      swap3\n      swap2\n      pop\n      pop\n      jump\t// out\n        /* \"#utility.yul\":22886:23062   */\n    tag_241:\n        /* \"#utility.yul\":22918:22919   */\n      0x00\n        /* \"#utility.yul\":22935:22955   */\n      tag_539\n        /* \"#utility.yul\":22953:22954   */\n      dup3\n        /* \"#utility.yul\":22935:22955   */\n      tag_327\n      jump\t// in\n    tag_539:\n        /* \"#utility.yul\":22930:22955   */\n      swap2\n      pop\n        /* \"#utility.yul\":22969:22989   */\n      tag_540\n        /* \"#utility.yul\":22987:22988   */\n      dup4\n        /* \"#utility.yul\":22969:22989   */\n      tag_327\n      jump\t// in\n    tag_540:\n        /* \"#utility.yul\":22964:22989   */\n      swap3\n      pop\n        /* \"#utility.yul\":23008:23009   */\n      dup3\n        /* \"#utility.yul\":22998:23033   */\n      tag_541\n      jumpi\n        /* \"#utility.yul\":23013:23031   */\n      tag_542\n      tag_328\n      jump\t// in\n    tag_542:\n        /* \"#utility.yul\":22998:23033   */\n    tag_541:\n        /* \"#utility.yul\":23054:23055   */\n      dup3\n        /* \"#utility.yul\":23051:23052   */\n      dup3\n        /* \"#utility.yul\":23047:23056   */\n      mod\n        /* \"#utility.yul\":23042:23056   */\n      swap1\n      pop\n        /* \"#utility.yul\":22886:23062   */\n      swap3\n      swap2\n      pop\n      pop\n      jump\t// out\n        /* \"#utility.yul\":23068:23373   */\n    tag_243:\n        /* \"#utility.yul\":23108:23111   */\n      0x00\n        /* \"#utility.yul\":23127:23147   */\n      tag_544\n        /* \"#utility.yul\":23145:23146   */\n      dup3\n        /* \"#utility.yul\":23127:23147   */\n      tag_327\n      jump\t// in\n    tag_544:\n        /* \"#utility.yul\":23122:23147   */\n      swap2\n      pop\n        /* \"#utility.yul\":23161:23181   */\n      tag_545\n        /* \"#utility.yul\":23179:23180   */\n      dup4\n        /* \"#utility.yul\":23161:23181   */\n      tag_327\n      jump\t// in\n    tag_545:\n        /* \"#utility.yul\":23156:23181   */\n      swap3\n      pop\n        /* \"#utility.yul\":23315:23316   */\n      dup3\n        /* \"#utility.yul\":23247:23313   */\n      0xffffffffffffffffffffffffffffffffffffffffffffffffffffffffffffffff\n        /* \"#utility.yul\":23243:23317   */\n      sub\n        /* \"#utility.yul\":23240:23241   */\n      dup3\n        /* \"#utility.yul\":23237:23318   */\n      gt\n        /* \"#utility.yul\":23234:23341   */\n      iszero\n      tag_546\n      jumpi\n        /* \"#utility.yul\":23321:23339   */\n      tag_547\n      tag_322\n      jump\t// in\n    tag_547:\n        /* \"#utility.yul\":23234:23341   */\n    tag_546:\n        /* \"#utility.yul\":23365:23366   */\n      dup3\n        /* \"#utility.yul\":23362:23363   */\n      dup3\n        /* \"#utility.yul\":23358:23367   */\n      add\n        /* \"#utility.yul\":23351:23367   */\n      swap1\n      pop\n        /* \"#utility.yul\":23068:23373   */\n      swap3\n      swap2\n      pop\n      pop\n      jump\t// out\n\n    auxdata: 0xa26469706673582212207382fa6c68a8bbd9ccb915653b9f92cda637f6460baf0e33f65113187d587fba64736f6c63430008090033\n}\n",
				"bytecode": {
					"linkReferences": {},
					"object": "60806040523480156200001157600080fd5b50604051620031f8380380620031f88339818101604052810190620000379190620008ab565b60016000806101000a81548160ff0219169083151502179055506363b14488600060016101000a81548163ffffffff021916908363ffffffff1602179055506365927808600060056101000a81548163ffffffff021916908363ffffffff160217905550620000e96040518060400160405280600f81526020017f44656c69766572792053797374656d0000000000000000000000000000000000815250826000620005d260201b620013451760201c565b600160008201518160000190805190602001906200010992919062000679565b5060208201518160010160006101000a81548173ffffffffffffffffffffffffffffffffffffffff021916908373ffffffffffffffffffffffffffffffffffffffff16021790555060408201518160010160146101000a81548160ff021916908315150217905550905050620001c26040518060400160405280601381526020017f496e746567726174696f6e2050726f6365737300000000000000000000000000815250336001620005d260201b620013451760201c565b60036000820151816000019080519060200190620001e292919062000679565b5060208201518160010160006101000a81548173ffffffffffffffffffffffffffffffffffffffff021916908373ffffffffffffffffffffffffffffffffffffffff16021790555060408201518160010160146101000a81548160ff0219169083151502179055509050506003600560003373ffffffffffffffffffffffffffffffffffffffff1673ffffffffffffffffffffffffffffffffffffffff1681526020019081526020016000206000820181600001908054620002a4906200090c565b620002b19291906200070a565b506001820160009054906101000a900473ffffffffffffffffffffffffffffffffffffffff168160010160006101000a81548173ffffffffffffffffffffffffffffffffffffffff021916908373ffffffffffffffffffffffffffffffffffffffff1602179055506001820160149054906101000a900460ff168160010160146101000a81548160ff0219169083151502179055509050506001600560008373ffffffffffffffffffffffffffffffffffffffff1673ffffffffffffffffffffffffffffffffffffffff1681526020019081526020016000206000820181600001908054620003a0906200090c565b620003ad9291906200070a565b506001820160009054906101000a900473ffffffffffffffffffffffffffffffffffffffff168160010160006101000a81548173ffffffffffffffffffffffffffffffffffffffff021916908373ffffffffffffffffffffffffffffffffffffffff1602179055506001820160149054906101000a900460ff168160010160146101000a81548160ff02191690831515021790555090505060066200045e601e6200061860201b620013891760201c565b9080600181540180825580915050600190039060005260206000200160009091909190915060008201518160000160006101000a81548163ffffffff021916908363ffffffff16021790555060208201518160000160046101000a81548163ffffffff021916908363ffffffff16021790555050506007620005586040518060400160405280601281526020017f2f2f6275646765742f69642f74657874282900000000000000000000000000008152506040518060400160405280600281526020017f3e3d00000000000000000000000000000000000000000000000000000000000081525060006200064b60201b620013ba1760201c565b908060018154018082558091505060019003906000526020600020906003020160009091909190915060008201518160000190805190602001906200059f92919062000679565b506020820151816001019080519060200190620005be92919062000679565b506040820151816002015550505062000942565b620005dc620007a2565b60405180606001604052808581526020018473ffffffffffffffffffffffffffffffffffffffff16815260200183151581525090509392505050565b62000622620007db565b6040518060400160405280600063ffffffff1681526020018363ffffffff168152509050919050565b6200065562000801565b60405180606001604052808581526020018481526020018381525090509392505050565b82805462000687906200090c565b90600052602060002090601f016020900481019282620006ab5760008555620006f7565b82601f10620006c657805160ff1916838001178555620006f7565b82800160010185558215620006f7579182015b82811115620006f6578251825591602001919060010190620006d9565b5b50905062000706919062000822565b5090565b82805462000718906200090c565b90600052602060002090601f0160209004810192826200073c57600085556200078f565b82601f106200074f57805485556200078f565b828001600101855582156200078f57600052602060002091601f016020900482015b828111156200078e57825482559160010191906001019062000771565b5b5090506200079e919062000822565b5090565b604051806060016040528060608152602001600073ffffffffffffffffffffffffffffffffffffffff1681526020016000151581525090565b6040518060400160405280600063ffffffff168152602001600063ffffffff1681525090565b60405180606001604052806060815260200160608152602001600081525090565b5b808211156200083d57600081600090555060010162000823565b5090565b600080fd5b600073ffffffffffffffffffffffffffffffffffffffff82169050919050565b6000620008738262000846565b9050919050565b620008858162000866565b81146200089157600080fd5b50565b600081519050620008a5816200087a565b92915050565b600060208284031215620008c457620008c362000841565b5b6000620008d48482850162000894565b91505092915050565b7f4e487b7100000000000000000000000000000000000000000000000000000000600052602260045260246000fd5b600060028204905060018216806200092557607f821691505b602082108114156200093c576200093b620008dd565b5b50919050565b6128a680620009526000396000f3fe608060405234801561001057600080fd5b50600436106100935760003560e01c8063859319111161006657806385931911146101325780638fda356d14610150578063b8b4f1a01461015a578063bca353be14610178578063fb6f82431461018257610093565b80631e900392146100985780633bbd6e54146100b45780635e744c6a146100e457806370d8915a14610114575b600080fd5b6100b260048036038101906100ad9190611b8a565b6101b2565b005b6100ce60048036038101906100c99190611d46565b6102c6565b6040516100db9190611dbd565b60405180910390f35b6100fe60048036038101906100f99190611eeb565b6107d9565b60405161010b9190611dbd565b60405180910390f35b61011c6109ca565b6040516101299190611f56565b60405180910390f35b61013a610b31565b6040516101479190611f56565b60405180910390f35b610158610c99565b005b610162610def565b60405161016f9190611dbd565b60405180910390f35b610180610f59565b005b61019c60048036038101906101979190611f71565b6110af565b6040516101a99190612094565b60405180910390f35b60008054906101000a900460ff166101ff576040517f08c379a00000000000000000000000000000000000000000000000000000000081526004016101f690612113565b60405180910390fd5b3373ffffffffffffffffffffffffffffffffffffffff16600360010160009054906101000a900473ffffffffffffffffffffffffffffffffffffffff1673ffffffffffffffffffffffffffffffffffffffff1614610292576040517f08c379a0000000000000000000000000000000000000000000000000000000008152600401610289906121a5565b60405180910390fd5b6102c38160066000815481106102ab576102aa6121c5565b5b906000526020600020016113e690919063ffffffff16565b50565b60008060009054906101000a900460ff16610316576040517f08c379a000000000000000000000000000000000000000000000000000000000815260040161030d90612113565b60405180910390fd5b3373ffffffffffffffffffffffffffffffffffffffff166001800160009054906101000a900473ffffffffffffffffffffffffffffffffffffffff1673ffffffffffffffffffffffffffffffffffffffff16146103a8576040517f08c379a000000000000000000000000000000000000000000000000000000000815260040161039f90612266565b60405180910390fd5b6104fd600560003373ffffffffffffffffffffffffffffffffffffffff1673ffffffffffffffffffffffffffffffffffffffff168152602001908152602001600020604051806060016040529081600082018054610405906122b5565b80601f0160208091040260200160405190810160405280929190818152602001828054610431906122b5565b801561047e5780601f106104535761010080835404028352916020019161047e565b820191906000526020600020905b81548152906001019060200180831161046157829003601f168201915b505050505081526020016001820160009054906101000a900473ffffffffffffffffffffffffffffffffffffffff1673ffffffffffffffffffffffffffffffffffffffff1673ffffffffffffffffffffffffffffffffffffffff1681526020016001820160149054906101000a900460ff161515151581525050611451565b61053c576040517f08c379a00000000000000000000000000000000000000000000000000000000081526004016105339061237f565b60405180910390fd5b6105c4836006600081548110610555576105546121c5565b5b906000526020600020016040518060400160405290816000820160009054906101000a900463ffffffff1663ffffffff1663ffffffff1681526020016000820160049054906101000a900463ffffffff1663ffffffff1663ffffffff168152505061145f90919063ffffffff16565b1580156107565750610755826000815181106105e3576105e26121c5565b5b60200260200101516007600081548110610600576105ff6121c5565b5b9060005260206000209060030201604051806060016040529081600082018054610629906122b5565b80601f0160208091040260200160405190810160405280929190818152602001828054610655906122b5565b80156106a25780601f10610677576101008083540402835291602001916106a2565b820191906000526020600020905b81548152906001019060200180831161068557829003601f168201915b505050505081526020016001820180546106bb906122b5565b80601f01602080910402602001604051908101604052809291908181526020018280546106e7906122b5565b80156107345780601f1061070957610100808354040283529160200191610734565b820191906000526020600020905b81548152906001019060200180831161071757829003601f168201915b505050505081526020016002820154815250506114ee90919063ffffffff16565b5b15610799577f95a1f3a1dafdd4c1af344e3d7c69a72cbce8a3f15fe1cf95a7f5bd23df2e71a1604051610788906123eb565b60405180910390a1600190506107d3565b7f66091b7dc2b097c8f60d5cd6aa99633b097f08d2eb1056f3e15361b22e0ea2ba6040516107c69061247d565b60405180910390a1600090505b92915050565b60003373ffffffffffffffffffffffffffffffffffffffff16600360010160009054906101000a900473ffffffffffffffffffffffffffffffffffffffff1673ffffffffffffffffffffffffffffffffffffffff161461086e576040517f08c379a0000000000000000000000000000000000000000000000000000000008152600401610865906121a5565b60405180910390fd5b600560006001800160009054906101000a900473ffffffffffffffffffffffffffffffffffffffff1673ffffffffffffffffffffffffffffffffffffffff1673ffffffffffffffffffffffffffffffffffffffff168152602001908152602001600020600080820160006108e2919061194a565b6001820160006101000a81549073ffffffffffffffffffffffffffffffffffffffff02191690556001820160146101000a81549060ff0219169055505061092b83836000611345565b6001600082015181600001908051906020019061094992919061198a565b5060208201518160010160006101000a81548173ffffffffffffffffffffffffffffffffffffffff021916908373ffffffffffffffffffffffffffffffffffffffff16021790555060408201518160010160146101000a81548160ff0219169083151502179055509050506109bf8260016116e6565b506001905092915050565b60008060009054906101000a900460ff16610a1a576040517f08c379a0000000000000000000000000000000000000000000000000000000008152600401610a1190612113565b60405180910390fd5b3373ffffffffffffffffffffffffffffffffffffffff166001800160009054906101000a900473ffffffffffffffffffffffffffffffffffffffff1673ffffffffffffffffffffffffffffffffffffffff161480610ac857503373ffffffffffffffffffffffffffffffffffffffff16600360010160009054906101000a900473ffffffffffffffffffffffffffffffffffffffff1673ffffffffffffffffffffffffffffffffffffffff16145b610b07576040517f08c379a0000000000000000000000000000000000000000000000000000000008152600401610afe9061250f565b60405180910390fd5b6001800160009054906101000a900473ffffffffffffffffffffffffffffffffffffffff16905090565b60008060009054906101000a900460ff16610b81576040517f08c379a0000000000000000000000000000000000000000000000000000000008152600401610b7890612113565b60405180910390fd5b3373ffffffffffffffffffffffffffffffffffffffff166001800160009054906101000a900473ffffffffffffffffffffffffffffffffffffffff1673ffffffffffffffffffffffffffffffffffffffff161480610c2f57503373ffffffffffffffffffffffffffffffffffffffff16600360010160009054906101000a900473ffffffffffffffffffffffffffffffffffffffff1673ffffffffffffffffffffffffffffffffffffffff16145b610c6e576040517f08c379a0000000000000000000000000000000000000000000000000000000008152600401610c659061250f565b60405180910390fd5b600360010160009054906101000a900473ffffffffffffffffffffffffffffffffffffffff16905090565b60008054906101000a900460ff16610ce6576040517f08c379a0000000000000000000000000000000000000000000000000000000008152600401610cdd90612113565b60405180910390fd5b3373ffffffffffffffffffffffffffffffffffffffff166001800160009054906101000a900473ffffffffffffffffffffffffffffffffffffffff1673ffffffffffffffffffffffffffffffffffffffff161480610d9457503373ffffffffffffffffffffffffffffffffffffffff16600360010160009054906101000a900473ffffffffffffffffffffffffffffffffffffffff1673ffffffffffffffffffffffffffffffffffffffff16145b610dd3576040517f08c379a0000000000000000000000000000000000000000000000000000000008152600401610dca9061250f565b60405180910390fd5b60016000806101000a81548160ff021916908315150217905550565b60008060009054906101000a900460ff16610e3f576040517f08c379a0000000000000000000000000000000000000000000000000000000008152600401610e3690612113565b60405180910390fd5b3373ffffffffffffffffffffffffffffffffffffffff166001800160009054906101000a900473ffffffffffffffffffffffffffffffffffffffff1673ffffffffffffffffffffffffffffffffffffffff1614610ed1576040517f08c379a0000000000000000000000000000000000000000000000000000000008152600401610ec890612266565b60405180910390fd5b600015156001800160149054906101000a900460ff16151514610f29576040517f08c379a0000000000000000000000000000000000000000000000000000000008152600401610f209061257b565b60405180910390fd5b60018060010160146101000a81548160ff021916908315150217905550610f513360016116e6565b506001905090565b60008054906101000a900460ff16610fa6576040517f08c379a0000000000000000000000000000000000000000000000000000000008152600401610f9d90612113565b60405180910390fd5b3373ffffffffffffffffffffffffffffffffffffffff166001800160009054906101000a900473ffffffffffffffffffffffffffffffffffffffff1673ffffffffffffffffffffffffffffffffffffffff16148061105457503373ffffffffffffffffffffffffffffffffffffffff16600360010160009054906101000a900473ffffffffffffffffffffffffffffffffffffffff1673ffffffffffffffffffffffffffffffffffffffff16145b611093576040517f08c379a000000000000000000000000000000000000000000000000000000000815260040161108a9061250f565b60405180910390fd5b60008060006101000a81548160ff021916908315150217905550565b6110b7611a10565b60008054906101000a900460ff16611104576040517f08c379a00000000000000000000000000000000000000000000000000000000081526004016110fb90612113565b60405180910390fd5b3373ffffffffffffffffffffffffffffffffffffffff166001800160009054906101000a900473ffffffffffffffffffffffffffffffffffffffff1673ffffffffffffffffffffffffffffffffffffffff1614806111b257503373ffffffffffffffffffffffffffffffffffffffff16600360010160009054906101000a900473ffffffffffffffffffffffffffffffffffffffff1673ffffffffffffffffffffffffffffffffffffffff16145b6111f1576040517f08c379a00000000000000000000000000000000000000000000000000000000081526004016111e89061250f565b60405180910390fd5b600560008373ffffffffffffffffffffffffffffffffffffffff1673ffffffffffffffffffffffffffffffffffffffff16815260200190815260200160002060405180606001604052908160008201805461124b906122b5565b80601f0160208091040260200160405190810160405280929190818152602001828054611277906122b5565b80156112c45780601f10611299576101008083540402835291602001916112c4565b820191906000526020600020905b8154815290600101906020018083116112a757829003601f168201915b505050505081526020016001820160009054906101000a900473ffffffffffffffffffffffffffffffffffffffff1673ffffffffffffffffffffffffffffffffffffffff1673ffffffffffffffffffffffffffffffffffffffff1681526020016001820160149054906101000a900460ff1615151515815250509050919050565b61134d611a10565b60405180606001604052808581526020018473ffffffffffffffffffffffffffffffffffffffff16815260200183151581525090509392505050565b611391611a49565b6040518060400160405280600063ffffffff1681526020018363ffffffff168152509050919050565b6113c2611a6f565b60405180606001604052808581526020018481526020018381525090509392505050565b8060006113f88263ffffffff166117e9565b9050600a8151111561140957600080fd5b8360000160049054906101000a900463ffffffff168361142991906125ca565b8460000160006101000a81548163ffffffff021916908363ffffffff16021790555050505050565b600081604001519050919050565b60008160006114738263ffffffff166117e9565b9050600a8151111561148457600080fd5b6000856000015163ffffffff16116114d1576040517f08c379a00000000000000000000000000000000000000000000000000000000081526004016114c890612676565b60405180910390fd5b846000015163ffffffff168463ffffffff16119250505092915050565b60008083602001519050602160f81b81600081518110611511576115106121c5565b5b602001015160f81c60f81b7effffffffffffffffffffffffffffffffffffffffffffffffffffffffffffff191614156115545783604001518314159150506116e0565b603d60f81b8160008151811061156d5761156c6121c5565b5b602001015160f81c60f81b7effffffffffffffffffffffffffffffffffffffffffffffffffffffffffffff191614156115af57836040015183149150506116e0565b603c60f81b816000815181106115c8576115c76121c5565b5b602001015160f81c60f81b7effffffffffffffffffffffffffffffffffffffffffffffffffffffffffffff19161415611624576002815114156116155783604001518313159150506116e0565b836040015183129150506116e0565b603e60f81b8160008151811061163d5761163c6121c5565b5b602001015160f81c60f81b7effffffffffffffffffffffffffffffffffffffffffffffffffffffffffffff191614156116995760028151141561168a5783604001518312159150506116e0565b836040015183139150506116e0565b60006116da576040517f08c379a00000000000000000000000000000000000000000000000000000000081526004016116d1906126e2565b60405180910390fd5b60009150505b92915050565b600081600560008573ffffffffffffffffffffffffffffffffffffffff1673ffffffffffffffffffffffffffffffffffffffff168152602001908152602001600020600082018160000190805461173c906122b5565b611747929190611a90565b506001820160009054906101000a900473ffffffffffffffffffffffffffffffffffffffff168160010160006101000a81548173ffffffffffffffffffffffffffffffffffffffff021916908373ffffffffffffffffffffffffffffffffffffffff1602179055506001820160149054906101000a900460ff168160010160146101000a81548160ff0219169083151502179055509050506001905092915050565b60606000821415611831576040518060400160405280600181526020017f30000000000000000000000000000000000000000000000000000000000000008152509050611945565b600082905060005b6000821461186357808061184c9061270c565b915050600a8261185c9190612784565b9150611839565b60008167ffffffffffffffff81111561187f5761187e611bcd565b5b6040519080825280601f01601f1916602001820160405280156118b15781602001600182028036833780820191505090505b5090505b6000851461193e576001826118ca91906127b5565b9150600a856118d991906127e9565b60306118e5919061281a565b60f81b8183815181106118fb576118fa6121c5565b5b60200101907effffffffffffffffffffffffffffffffffffffffffffffffffffffffffffff1916908160001a905350600a856119379190612784565b94506118b5565b8093505050505b919050565b508054611956906122b5565b6000825580601f106119685750611987565b601f0160209004906000526020600020908101906119869190611b1d565b5b50565b828054611996906122b5565b90600052602060002090601f0160209004810192826119b857600085556119ff565b82601f106119d157805160ff19168380011785556119ff565b828001600101855582156119ff579182015b828111156119fe5782518255916020019190600101906119e3565b5b509050611a0c9190611b1d565b5090565b604051806060016040528060608152602001600073ffffffffffffffffffffffffffffffffffffffff1681526020016000151581525090565b6040518060400160405280600063ffffffff168152602001600063ffffffff1681525090565b60405180606001604052806060815260200160608152602001600081525090565b828054611a9c906122b5565b90600052602060002090601f016020900481019282611abe5760008555611b0c565b82601f10611acf5780548555611b0c565b82800160010185558215611b0c57600052602060002091601f016020900482015b82811115611b0b578254825591600101919060010190611af0565b5b509050611b199190611b1d565b5090565b5b80821115611b36576000816000905550600101611b1e565b5090565b6000604051905090565b600080fd5b600080fd5b600063ffffffff82169050919050565b611b6781611b4e565b8114611b7257600080fd5b50565b600081359050611b8481611b5e565b92915050565b600060208284031215611ba057611b9f611b44565b5b6000611bae84828501611b75565b91505092915050565b600080fd5b6000601f19601f8301169050919050565b7f4e487b7100000000000000000000000000000000000000000000000000000000600052604160045260246000fd5b611c0582611bbc565b810181811067ffffffffffffffff82111715611c2457611c23611bcd565b5b80604052505050565b6000611c37611b3a565b9050611c438282611bfc565b919050565b600067ffffffffffffffff821115611c6357611c62611bcd565b5b602082029050602081019050919050565b600080fd5b6000819050919050565b611c8c81611c79565b8114611c9757600080fd5b50565b600081359050611ca981611c83565b92915050565b6000611cc2611cbd84611c48565b611c2d565b90508083825260208201905060208402830185811115611ce557611ce4611c74565b5b835b81811015611d0e5780611cfa8882611c9a565b845260208401935050602081019050611ce7565b5050509392505050565b600082601f830112611d2d57611d2c611bb7565b5b8135611d3d848260208601611caf565b91505092915050565b60008060408385031215611d5d57611d5c611b44565b5b6000611d6b85828601611b75565b925050602083013567ffffffffffffffff811115611d8c57611d8b611b49565b5b611d9885828601611d18565b9150509250929050565b60008115159050919050565b611db781611da2565b82525050565b6000602082019050611dd26000830184611dae565b92915050565b600080fd5b600067ffffffffffffffff821115611df857611df7611bcd565b5b611e0182611bbc565b9050602081019050919050565b82818337600083830152505050565b6000611e30611e2b84611ddd565b611c2d565b905082815260208101848484011115611e4c57611e4b611dd8565b5b611e57848285611e0e565b509392505050565b600082601f830112611e7457611e73611bb7565b5b8135611e84848260208601611e1d565b91505092915050565b600073ffffffffffffffffffffffffffffffffffffffff82169050919050565b6000611eb882611e8d565b9050919050565b611ec881611ead565b8114611ed357600080fd5b50565b600081359050611ee581611ebf565b92915050565b60008060408385031215611f0257611f01611b44565b5b600083013567ffffffffffffffff811115611f2057611f1f611b49565b5b611f2c85828601611e5f565b9250506020611f3d85828601611ed6565b9150509250929050565b611f5081611ead565b82525050565b6000602082019050611f6b6000830184611f47565b92915050565b600060208284031215611f8757611f86611b44565b5b6000611f9584828501611ed6565b91505092915050565b600081519050919050565b600082825260208201905092915050565b60005b83811015611fd8578082015181840152602081019050611fbd565b83811115611fe7576000848401525b50505050565b6000611ff882611f9e565b6120028185611fa9565b9350612012818560208601611fba565b61201b81611bbc565b840191505092915050565b61202f81611ead565b82525050565b61203e81611da2565b82525050565b600060608301600083015184820360008601526120618282611fed565b91505060208301516120766020860182612026565b5060408301516120896040860182612035565b508091505092915050565b600060208201905081810360008301526120ae8184612044565b905092915050565b600082825260208201905092915050565b7f5468697320636f6e747261637420697320646561637469766174656400000000600082015250565b60006120fd601c836120b6565b9150612108826120c7565b602082019050919050565b6000602082019050818103600083015261212c816120f0565b9050919050565b7f4f6e6c79207468652070726f636573732063616e20657865637574652074686960008201527f73206f7065726174696f6e000000000000000000000000000000000000000000602082015250565b600061218f602b836120b6565b915061219a82612133565b604082019050919050565b600060208201905081810360008301526121be81612182565b9050919050565b7f4e487b7100000000000000000000000000000000000000000000000000000000600052603260045260246000fd5b7f4f6e6c7920746865206170706c69636174696f6e2063616e206578656375746560008201527f2074686973206f7065726174696f6e0000000000000000000000000000000000602082015250565b6000612250602f836120b6565b915061225b826121f4565b604082019050919050565b6000602082019050818103600083015261227f81612243565b9050919050565b7f4e487b7100000000000000000000000000000000000000000000000000000000600052602260045260246000fd5b600060028204905060018216806122cd57607f821691505b602082108114156122e1576122e0612286565b5b50919050565b7f546865204170706c69636174696f6e2070617274792073686f756c642073696760008201527f6e2074686520636f6e7472616374206265666f726520696e746572616374207760208201527f6974682069742e00000000000000000000000000000000000000000000000000604082015250565b60006123696047836120b6565b9150612374826122e7565b606082019050919050565b600060208201905081810360008301526123988161235c565b9050919050565b7f5375636365737366756c20657865637574696f6e210000000000000000000000600082015250565b60006123d56015836120b6565b91506123e08261239f565b602082019050919050565b60006020820190508181036000830152612404816123c8565b9050919050565b7f52657175657374206d616465206f757473696465206f6620616c6c6f7765642060008201527f686f757273206f7220627564676574204964206d697373696e67000000000000602082015250565b6000612467603a836120b6565b91506124728261240b565b604082019050919050565b600060208201905081810360008301526124968161245a565b9050919050565b7f4f6e6c79207468652070726f63657373206f7220746865206170706c6963617460008201527f696f6e2063616e20657865637574652074686973206f7065726174696f6e0000602082015250565b60006124f9603e836120b6565b91506125048261249d565b604082019050919050565b60006020820190508181036000830152612528816124ec565b9050919050565b7f54686520636f6e747261637420697320616c7265616479207369676e65640000600082015250565b6000612565601e836120b6565b91506125708261252f565b602082019050919050565b6000602082019050818103600083015261259481612558565b9050919050565b7f4e487b7100000000000000000000000000000000000000000000000000000000600052601160045260246000fd5b60006125d582611b4e565b91506125e083611b4e565b92508263ffffffff038211156125f9576125f861259b565b5b828201905092915050565b7f5468657265206973206e6f20656e6454696d652073657420696e2074696d656f60008201527f7574000000000000000000000000000000000000000000000000000000000000602082015250565b60006126606022836120b6565b915061266b82612604565b604082019050919050565b6000602082019050818103600083015261268f81612653565b9050919050565b7f436f6d70617269736f6e2073796d626f6c206973206e6f742076616c69640000600082015250565b60006126cc601e836120b6565b91506126d782612696565b602082019050919050565b600060208201905081810360008301526126fb816126bf565b9050919050565b6000819050919050565b600061271782612702565b91507fffffffffffffffffffffffffffffffffffffffffffffffffffffffffffffffff82141561274a5761274961259b565b5b600182019050919050565b7f4e487b7100000000000000000000000000000000000000000000000000000000600052601260045260246000fd5b600061278f82612702565b915061279a83612702565b9250826127aa576127a9612755565b5b828204905092915050565b60006127c082612702565b91506127cb83612702565b9250828210156127de576127dd61259b565b5b828203905092915050565b60006127f482612702565b91506127ff83612702565b92508261280f5761280e612755565b5b828206905092915050565b600061282582612702565b915061283083612702565b9250827fffffffffffffffffffffffffffffffffffffffffffffffffffffffffffffffff038211156128655761286461259b565b5b82820190509291505056fea26469706673582212207382fa6c68a8bbd9ccb915653b9f92cda637f6460baf0e33f65113187d587fba64736f6c63430008090033",
					"opcodes": "PUSH1 0x80 PUSH1 0x40 MSTORE CALLVALUE DUP1 ISZERO PUSH3 0x11 JUMPI PUSH1 0x0 DUP1 REVERT JUMPDEST POP PUSH1 0x40 MLOAD PUSH3 0x31F8 CODESIZE SUB DUP1 PUSH3 0x31F8 DUP4 CODECOPY DUP2 DUP2 ADD PUSH1 0x40 MSTORE DUP2 ADD SWAP1 PUSH3 0x37 SWAP2 SWAP1 PUSH3 0x8AB JUMP JUMPDEST PUSH1 0x1 PUSH1 0x0 DUP1 PUSH2 0x100 EXP DUP2 SLOAD DUP2 PUSH1 0xFF MUL NOT AND SWAP1 DUP4 ISZERO ISZERO MUL OR SWAP1 SSTORE POP PUSH4 0x63B14488 PUSH1 0x0 PUSH1 0x1 PUSH2 0x100 EXP DUP2 SLOAD DUP2 PUSH4 0xFFFFFFFF MUL NOT AND SWAP1 DUP4 PUSH4 0xFFFFFFFF AND MUL OR SWAP1 SSTORE POP PUSH4 0x65927808 PUSH1 0x0 PUSH1 0x5 PUSH2 0x100 EXP DUP2 SLOAD DUP2 PUSH4 0xFFFFFFFF MUL NOT AND SWAP1 DUP4 PUSH4 0xFFFFFFFF AND MUL OR SWAP1 SSTORE POP PUSH3 0xE9 PUSH1 0x40 MLOAD DUP1 PUSH1 0x40 ADD PUSH1 0x40 MSTORE DUP1 PUSH1 0xF DUP2 MSTORE PUSH1 0x20 ADD PUSH32 0x44656C69766572792053797374656D0000000000000000000000000000000000 DUP2 MSTORE POP DUP3 PUSH1 0x0 PUSH3 0x5D2 PUSH1 0x20 SHL PUSH3 0x1345 OR PUSH1 0x20 SHR JUMP JUMPDEST PUSH1 0x1 PUSH1 0x0 DUP3 ADD MLOAD DUP2 PUSH1 0x0 ADD SWAP1 DUP1 MLOAD SWAP1 PUSH1 0x20 ADD SWAP1 PUSH3 0x109 SWAP3 SWAP2 SWAP1 PUSH3 0x679 JUMP JUMPDEST POP PUSH1 0x20 DUP3 ADD MLOAD DUP2 PUSH1 0x1 ADD PUSH1 0x0 PUSH2 0x100 EXP DUP2 SLOAD DUP2 PUSH20 0xFFFFFFFFFFFFFFFFFFFFFFFFFFFFFFFFFFFFFFFF MUL NOT AND SWAP1 DUP4 PUSH20 0xFFFFFFFFFFFFFFFFFFFFFFFFFFFFFFFFFFFFFFFF AND MUL OR SWAP1 SSTORE POP PUSH1 0x40 DUP3 ADD MLOAD DUP2 PUSH1 0x1 ADD PUSH1 0x14 PUSH2 0x100 EXP DUP2 SLOAD DUP2 PUSH1 0xFF MUL NOT AND SWAP1 DUP4 ISZERO ISZERO MUL OR SWAP1 SSTORE POP SWAP1 POP POP PUSH3 0x1C2 PUSH1 0x40 MLOAD DUP1 PUSH1 0x40 ADD PUSH1 0x40 MSTORE DUP1 PUSH1 0x13 DUP2 MSTORE PUSH1 0x20 ADD PUSH32 0x496E746567726174696F6E2050726F6365737300000000000000000000000000 DUP2 MSTORE POP CALLER PUSH1 0x1 PUSH3 0x5D2 PUSH1 0x20 SHL PUSH3 0x1345 OR PUSH1 0x20 SHR JUMP JUMPDEST PUSH1 0x3 PUSH1 0x0 DUP3 ADD MLOAD DUP2 PUSH1 0x0 ADD SWAP1 DUP1 MLOAD SWAP1 PUSH1 0x20 ADD SWAP1 PUSH3 0x1E2 SWAP3 SWAP2 SWAP1 PUSH3 0x679 JUMP JUMPDEST POP PUSH1 0x20 DUP3 ADD MLOAD DUP2 PUSH1 0x1 ADD PUSH1 0x0 PUSH2 0x100 EXP DUP2 SLOAD DUP2 PUSH20 0xFFFFFFFFFFFFFFFFFFFFFFFFFFFFFFFFFFFFFFFF MUL NOT AND SWAP1 DUP4 PUSH20 0xFFFFFFFFFFFFFFFFFFFFFFFFFFFFFFFFFFFFFFFF AND MUL OR SWAP1 SSTORE POP PUSH1 0x40 DUP3 ADD MLOAD DUP2 PUSH1 0x1 ADD PUSH1 0x14 PUSH2 0x100 EXP DUP2 SLOAD DUP2 PUSH1 0xFF MUL NOT AND SWAP1 DUP4 ISZERO ISZERO MUL OR SWAP1 SSTORE POP SWAP1 POP POP PUSH1 0x3 PUSH1 0x5 PUSH1 0x0 CALLER PUSH20 0xFFFFFFFFFFFFFFFFFFFFFFFFFFFFFFFFFFFFFFFF AND PUSH20 0xFFFFFFFFFFFFFFFFFFFFFFFFFFFFFFFFFFFFFFFF AND DUP2 MSTORE PUSH1 0x20 ADD SWAP1 DUP2 MSTORE PUSH1 0x20 ADD PUSH1 0x0 KECCAK256 PUSH1 0x0 DUP3 ADD DUP2 PUSH1 0x0 ADD SWAP1 DUP1 SLOAD PUSH3 0x2A4 SWAP1 PUSH3 0x90C JUMP JUMPDEST PUSH3 0x2B1 SWAP3 SWAP2 SWAP1 PUSH3 0x70A JUMP JUMPDEST POP PUSH1 0x1 DUP3 ADD PUSH1 0x0 SWAP1 SLOAD SWAP1 PUSH2 0x100 EXP SWAP1 DIV PUSH20 0xFFFFFFFFFFFFFFFFFFFFFFFFFFFFFFFFFFFFFFFF AND DUP2 PUSH1 0x1 ADD PUSH1 0x0 PUSH2 0x100 EXP DUP2 SLOAD DUP2 PUSH20 0xFFFFFFFFFFFFFFFFFFFFFFFFFFFFFFFFFFFFFFFF MUL NOT AND SWAP1 DUP4 PUSH20 0xFFFFFFFFFFFFFFFFFFFFFFFFFFFFFFFFFFFFFFFF AND MUL OR SWAP1 SSTORE POP PUSH1 0x1 DUP3 ADD PUSH1 0x14 SWAP1 SLOAD SWAP1 PUSH2 0x100 EXP SWAP1 DIV PUSH1 0xFF AND DUP2 PUSH1 0x1 ADD PUSH1 0x14 PUSH2 0x100 EXP DUP2 SLOAD DUP2 PUSH1 0xFF MUL NOT AND SWAP1 DUP4 ISZERO ISZERO MUL OR SWAP1 SSTORE POP SWAP1 POP POP PUSH1 0x1 PUSH1 0x5 PUSH1 0x0 DUP4 PUSH20 0xFFFFFFFFFFFFFFFFFFFFFFFFFFFFFFFFFFFFFFFF AND PUSH20 0xFFFFFFFFFFFFFFFFFFFFFFFFFFFFFFFFFFFFFFFF AND DUP2 MSTORE PUSH1 0x20 ADD SWAP1 DUP2 MSTORE PUSH1 0x20 ADD PUSH1 0x0 KECCAK256 PUSH1 0x0 DUP3 ADD DUP2 PUSH1 0x0 ADD SWAP1 DUP1 SLOAD PUSH3 0x3A0 SWAP1 PUSH3 0x90C JUMP JUMPDEST PUSH3 0x3AD SWAP3 SWAP2 SWAP1 PUSH3 0x70A JUMP JUMPDEST POP PUSH1 0x1 DUP3 ADD PUSH1 0x0 SWAP1 SLOAD SWAP1 PUSH2 0x100 EXP SWAP1 DIV PUSH20 0xFFFFFFFFFFFFFFFFFFFFFFFFFFFFFFFFFFFFFFFF AND DUP2 PUSH1 0x1 ADD PUSH1 0x0 PUSH2 0x100 EXP DUP2 SLOAD DUP2 PUSH20 0xFFFFFFFFFFFFFFFFFFFFFFFFFFFFFFFFFFFFFFFF MUL NOT AND SWAP1 DUP4 PUSH20 0xFFFFFFFFFFFFFFFFFFFFFFFFFFFFFFFFFFFFFFFF AND MUL OR SWAP1 SSTORE POP PUSH1 0x1 DUP3 ADD PUSH1 0x14 SWAP1 SLOAD SWAP1 PUSH2 0x100 EXP SWAP1 DIV PUSH1 0xFF AND DUP2 PUSH1 0x1 ADD PUSH1 0x14 PUSH2 0x100 EXP DUP2 SLOAD DUP2 PUSH1 0xFF MUL NOT AND SWAP1 DUP4 ISZERO ISZERO MUL OR SWAP1 SSTORE POP SWAP1 POP POP PUSH1 0x6 PUSH3 0x45E PUSH1 0x1E PUSH3 0x618 PUSH1 0x20 SHL PUSH3 0x1389 OR PUSH1 0x20 SHR JUMP JUMPDEST SWAP1 DUP1 PUSH1 0x1 DUP2 SLOAD ADD DUP1 DUP3 SSTORE DUP1 SWAP2 POP POP PUSH1 0x1 SWAP1 SUB SWAP1 PUSH1 0x0 MSTORE PUSH1 0x20 PUSH1 0x0 KECCAK256 ADD PUSH1 0x0 SWAP1 SWAP2 SWAP1 SWAP2 SWAP1 SWAP2 POP PUSH1 0x0 DUP3 ADD MLOAD DUP2 PUSH1 0x0 ADD PUSH1 0x0 PUSH2 0x100 EXP DUP2 SLOAD DUP2 PUSH4 0xFFFFFFFF MUL NOT AND SWAP1 DUP4 PUSH4 0xFFFFFFFF AND MUL OR SWAP1 SSTORE POP PUSH1 0x20 DUP3 ADD MLOAD DUP2 PUSH1 0x0 ADD PUSH1 0x4 PUSH2 0x100 EXP DUP2 SLOAD DUP2 PUSH4 0xFFFFFFFF MUL NOT AND SWAP1 DUP4 PUSH4 0xFFFFFFFF AND MUL OR SWAP1 SSTORE POP POP POP PUSH1 0x7 PUSH3 0x558 PUSH1 0x40 MLOAD DUP1 PUSH1 0x40 ADD PUSH1 0x40 MSTORE DUP1 PUSH1 0x12 DUP2 MSTORE PUSH1 0x20 ADD PUSH32 0x2F2F6275646765742F69642F7465787428290000000000000000000000000000 DUP2 MSTORE POP PUSH1 0x40 MLOAD DUP1 PUSH1 0x40 ADD PUSH1 0x40 MSTORE DUP1 PUSH1 0x2 DUP2 MSTORE PUSH1 0x20 ADD PUSH32 0x3E3D000000000000000000000000000000000000000000000000000000000000 DUP2 MSTORE POP PUSH1 0x0 PUSH3 0x64B PUSH1 0x20 SHL PUSH3 0x13BA OR PUSH1 0x20 SHR JUMP JUMPDEST SWAP1 DUP1 PUSH1 0x1 DUP2 SLOAD ADD DUP1 DUP3 SSTORE DUP1 SWAP2 POP POP PUSH1 0x1 SWAP1 SUB SWAP1 PUSH1 0x0 MSTORE PUSH1 0x20 PUSH1 0x0 KECCAK256 SWAP1 PUSH1 0x3 MUL ADD PUSH1 0x0 SWAP1 SWAP2 SWAP1 SWAP2 SWAP1 SWAP2 POP PUSH1 0x0 DUP3 ADD MLOAD DUP2 PUSH1 0x0 ADD SWAP1 DUP1 MLOAD SWAP1 PUSH1 0x20 ADD SWAP1 PUSH3 0x59F SWAP3 SWAP2 SWAP1 PUSH3 0x679 JUMP JUMPDEST POP PUSH1 0x20 DUP3 ADD MLOAD DUP2 PUSH1 0x1 ADD SWAP1 DUP1 MLOAD SWAP1 PUSH1 0x20 ADD SWAP1 PUSH3 0x5BE SWAP3 SWAP2 SWAP1 PUSH3 0x679 JUMP JUMPDEST POP PUSH1 0x40 DUP3 ADD MLOAD DUP2 PUSH1 0x2 ADD SSTORE POP POP POP PUSH3 0x942 JUMP JUMPDEST PUSH3 0x5DC PUSH3 0x7A2 JUMP JUMPDEST PUSH1 0x40 MLOAD DUP1 PUSH1 0x60 ADD PUSH1 0x40 MSTORE DUP1 DUP6 DUP2 MSTORE PUSH1 0x20 ADD DUP5 PUSH20 0xFFFFFFFFFFFFFFFFFFFFFFFFFFFFFFFFFFFFFFFF AND DUP2 MSTORE PUSH1 0x20 ADD DUP4 ISZERO ISZERO DUP2 MSTORE POP SWAP1 POP SWAP4 SWAP3 POP POP POP JUMP JUMPDEST PUSH3 0x622 PUSH3 0x7DB JUMP JUMPDEST PUSH1 0x40 MLOAD DUP1 PUSH1 0x40 ADD PUSH1 0x40 MSTORE DUP1 PUSH1 0x0 PUSH4 0xFFFFFFFF AND DUP2 MSTORE PUSH1 0x20 ADD DUP4 PUSH4 0xFFFFFFFF AND DUP2 MSTORE POP SWAP1 POP SWAP2 SWAP1 POP JUMP JUMPDEST PUSH3 0x655 PUSH3 0x801 JUMP JUMPDEST PUSH1 0x40 MLOAD DUP1 PUSH1 0x60 ADD PUSH1 0x40 MSTORE DUP1 DUP6 DUP2 MSTORE PUSH1 0x20 ADD DUP5 DUP2 MSTORE PUSH1 0x20 ADD DUP4 DUP2 MSTORE POP SWAP1 POP SWAP4 SWAP3 POP POP POP JUMP JUMPDEST DUP3 DUP1 SLOAD PUSH3 0x687 SWAP1 PUSH3 0x90C JUMP JUMPDEST SWAP1 PUSH1 0x0 MSTORE PUSH1 0x20 PUSH1 0x0 KECCAK256 SWAP1 PUSH1 0x1F ADD PUSH1 0x20 SWAP1 DIV DUP2 ADD SWAP3 DUP3 PUSH3 0x6AB JUMPI PUSH1 0x0 DUP6 SSTORE PUSH3 0x6F7 JUMP JUMPDEST DUP3 PUSH1 0x1F LT PUSH3 0x6C6 JUMPI DUP1 MLOAD PUSH1 0xFF NOT AND DUP4 DUP1 ADD OR DUP6 SSTORE PUSH3 0x6F7 JUMP JUMPDEST DUP3 DUP1 ADD PUSH1 0x1 ADD DUP6 SSTORE DUP3 ISZERO PUSH3 0x6F7 JUMPI SWAP2 DUP3 ADD JUMPDEST DUP3 DUP2 GT ISZERO PUSH3 0x6F6 JUMPI DUP3 MLOAD DUP3 SSTORE SWAP2 PUSH1 0x20 ADD SWAP2 SWAP1 PUSH1 0x1 ADD SWAP1 PUSH3 0x6D9 JUMP JUMPDEST JUMPDEST POP SWAP1 POP PUSH3 0x706 SWAP2 SWAP1 PUSH3 0x822 JUMP JUMPDEST POP SWAP1 JUMP JUMPDEST DUP3 DUP1 SLOAD PUSH3 0x718 SWAP1 PUSH3 0x90C JUMP JUMPDEST SWAP1 PUSH1 0x0 MSTORE PUSH1 0x20 PUSH1 0x0 KECCAK256 SWAP1 PUSH1 0x1F ADD PUSH1 0x20 SWAP1 DIV DUP2 ADD SWAP3 DUP3 PUSH3 0x73C JUMPI PUSH1 0x0 DUP6 SSTORE PUSH3 0x78F JUMP JUMPDEST DUP3 PUSH1 0x1F LT PUSH3 0x74F JUMPI DUP1 SLOAD DUP6 SSTORE PUSH3 0x78F JUMP JUMPDEST DUP3 DUP1 ADD PUSH1 0x1 ADD DUP6 SSTORE DUP3 ISZERO PUSH3 0x78F JUMPI PUSH1 0x0 MSTORE PUSH1 0x20 PUSH1 0x0 KECCAK256 SWAP2 PUSH1 0x1F ADD PUSH1 0x20 SWAP1 DIV DUP3 ADD JUMPDEST DUP3 DUP2 GT ISZERO PUSH3 0x78E JUMPI DUP3 SLOAD DUP3 SSTORE SWAP2 PUSH1 0x1 ADD SWAP2 SWAP1 PUSH1 0x1 ADD SWAP1 PUSH3 0x771 JUMP JUMPDEST JUMPDEST POP SWAP1 POP PUSH3 0x79E SWAP2 SWAP1 PUSH3 0x822 JUMP JUMPDEST POP SWAP1 JUMP JUMPDEST PUSH1 0x40 MLOAD DUP1 PUSH1 0x60 ADD PUSH1 0x40 MSTORE DUP1 PUSH1 0x60 DUP2 MSTORE PUSH1 0x20 ADD PUSH1 0x0 PUSH20 0xFFFFFFFFFFFFFFFFFFFFFFFFFFFFFFFFFFFFFFFF AND DUP2 MSTORE PUSH1 0x20 ADD PUSH1 0x0 ISZERO ISZERO DUP2 MSTORE POP SWAP1 JUMP JUMPDEST PUSH1 0x40 MLOAD DUP1 PUSH1 0x40 ADD PUSH1 0x40 MSTORE DUP1 PUSH1 0x0 PUSH4 0xFFFFFFFF AND DUP2 MSTORE PUSH1 0x20 ADD PUSH1 0x0 PUSH4 0xFFFFFFFF AND DUP2 MSTORE POP SWAP1 JUMP JUMPDEST PUSH1 0x40 MLOAD DUP1 PUSH1 0x60 ADD PUSH1 0x40 MSTORE DUP1 PUSH1 0x60 DUP2 MSTORE PUSH1 0x20 ADD PUSH1 0x60 DUP2 MSTORE PUSH1 0x20 ADD PUSH1 0x0 DUP2 MSTORE POP SWAP1 JUMP JUMPDEST JUMPDEST DUP1 DUP3 GT ISZERO PUSH3 0x83D JUMPI PUSH1 0x0 DUP2 PUSH1 0x0 SWAP1 SSTORE POP PUSH1 0x1 ADD PUSH3 0x823 JUMP JUMPDEST POP SWAP1 JUMP JUMPDEST PUSH1 0x0 DUP1 REVERT JUMPDEST PUSH1 0x0 PUSH20 0xFFFFFFFFFFFFFFFFFFFFFFFFFFFFFFFFFFFFFFFF DUP3 AND SWAP1 POP SWAP2 SWAP1 POP JUMP JUMPDEST PUSH1 0x0 PUSH3 0x873 DUP3 PUSH3 0x846 JUMP JUMPDEST SWAP1 POP SWAP2 SWAP1 POP JUMP JUMPDEST PUSH3 0x885 DUP2 PUSH3 0x866 JUMP JUMPDEST DUP2 EQ PUSH3 0x891 JUMPI PUSH1 0x0 DUP1 REVERT JUMPDEST POP JUMP JUMPDEST PUSH1 0x0 DUP2 MLOAD SWAP1 POP PUSH3 0x8A5 DUP2 PUSH3 0x87A JUMP JUMPDEST SWAP3 SWAP2 POP POP JUMP JUMPDEST PUSH1 0x0 PUSH1 0x20 DUP3 DUP5 SUB SLT ISZERO PUSH3 0x8C4 JUMPI PUSH3 0x8C3 PUSH3 0x841 JUMP JUMPDEST JUMPDEST PUSH1 0x0 PUSH3 0x8D4 DUP5 DUP3 DUP6 ADD PUSH3 0x894 JUMP JUMPDEST SWAP2 POP POP SWAP3 SWAP2 POP POP JUMP JUMPDEST PUSH32 0x4E487B7100000000000000000000000000000000000000000000000000000000 PUSH1 0x0 MSTORE PUSH1 0x22 PUSH1 0x4 MSTORE PUSH1 0x24 PUSH1 0x0 REVERT JUMPDEST PUSH1 0x0 PUSH1 0x2 DUP3 DIV SWAP1 POP PUSH1 0x1 DUP3 AND DUP1 PUSH3 0x925 JUMPI PUSH1 0x7F DUP3 AND SWAP2 POP JUMPDEST PUSH1 0x20 DUP3 LT DUP2 EQ ISZERO PUSH3 0x93C JUMPI PUSH3 0x93B PUSH3 0x8DD JUMP JUMPDEST JUMPDEST POP SWAP2 SWAP1 POP JUMP JUMPDEST PUSH2 0x28A6 DUP1 PUSH3 0x952 PUSH1 0x0 CODECOPY PUSH1 0x0 RETURN INVALID PUSH1 0x80 PUSH1 0x40 MSTORE CALLVALUE DUP1 ISZERO PUSH2 0x10 JUMPI PUSH1 0x0 DUP1 REVERT JUMPDEST POP PUSH1 0x4 CALLDATASIZE LT PUSH2 0x93 JUMPI PUSH1 0x0 CALLDATALOAD PUSH1 0xE0 SHR DUP1 PUSH4 0x85931911 GT PUSH2 0x66 JUMPI DUP1 PUSH4 0x85931911 EQ PUSH2 0x132 JUMPI DUP1 PUSH4 0x8FDA356D EQ PUSH2 0x150 JUMPI DUP1 PUSH4 0xB8B4F1A0 EQ PUSH2 0x15A JUMPI DUP1 PUSH4 0xBCA353BE EQ PUSH2 0x178 JUMPI DUP1 PUSH4 0xFB6F8243 EQ PUSH2 0x182 JUMPI PUSH2 0x93 JUMP JUMPDEST DUP1 PUSH4 0x1E900392 EQ PUSH2 0x98 JUMPI DUP1 PUSH4 0x3BBD6E54 EQ PUSH2 0xB4 JUMPI DUP1 PUSH4 0x5E744C6A EQ PUSH2 0xE4 JUMPI DUP1 PUSH4 0x70D8915A EQ PUSH2 0x114 JUMPI JUMPDEST PUSH1 0x0 DUP1 REVERT JUMPDEST PUSH2 0xB2 PUSH1 0x4 DUP1 CALLDATASIZE SUB DUP2 ADD SWAP1 PUSH2 0xAD SWAP2 SWAP1 PUSH2 0x1B8A JUMP JUMPDEST PUSH2 0x1B2 JUMP JUMPDEST STOP JUMPDEST PUSH2 0xCE PUSH1 0x4 DUP1 CALLDATASIZE SUB DUP2 ADD SWAP1 PUSH2 0xC9 SWAP2 SWAP1 PUSH2 0x1D46 JUMP JUMPDEST PUSH2 0x2C6 JUMP JUMPDEST PUSH1 0x40 MLOAD PUSH2 0xDB SWAP2 SWAP1 PUSH2 0x1DBD JUMP JUMPDEST PUSH1 0x40 MLOAD DUP1 SWAP2 SUB SWAP1 RETURN JUMPDEST PUSH2 0xFE PUSH1 0x4 DUP1 CALLDATASIZE SUB DUP2 ADD SWAP1 PUSH2 0xF9 SWAP2 SWAP1 PUSH2 0x1EEB JUMP JUMPDEST PUSH2 0x7D9 JUMP JUMPDEST PUSH1 0x40 MLOAD PUSH2 0x10B SWAP2 SWAP1 PUSH2 0x1DBD JUMP JUMPDEST PUSH1 0x40 MLOAD DUP1 SWAP2 SUB SWAP1 RETURN JUMPDEST PUSH2 0x11C PUSH2 0x9CA JUMP JUMPDEST PUSH1 0x40 MLOAD PUSH2 0x129 SWAP2 SWAP1 PUSH2 0x1F56 JUMP JUMPDEST PUSH1 0x40 MLOAD DUP1 SWAP2 SUB SWAP1 RETURN JUMPDEST PUSH2 0x13A PUSH2 0xB31 JUMP JUMPDEST PUSH1 0x40 MLOAD PUSH2 0x147 SWAP2 SWAP1 PUSH2 0x1F56 JUMP JUMPDEST PUSH1 0x40 MLOAD DUP1 SWAP2 SUB SWAP1 RETURN JUMPDEST PUSH2 0x158 PUSH2 0xC99 JUMP JUMPDEST STOP JUMPDEST PUSH2 0x162 PUSH2 0xDEF JUMP JUMPDEST PUSH1 0x40 MLOAD PUSH2 0x16F SWAP2 SWAP1 PUSH2 0x1DBD JUMP JUMPDEST PUSH1 0x40 MLOAD DUP1 SWAP2 SUB SWAP1 RETURN JUMPDEST PUSH2 0x180 PUSH2 0xF59 JUMP JUMPDEST STOP JUMPDEST PUSH2 0x19C PUSH1 0x4 DUP1 CALLDATASIZE SUB DUP2 ADD SWAP1 PUSH2 0x197 SWAP2 SWAP1 PUSH2 0x1F71 JUMP JUMPDEST PUSH2 0x10AF JUMP JUMPDEST PUSH1 0x40 MLOAD PUSH2 0x1A9 SWAP2 SWAP1 PUSH2 0x2094 JUMP JUMPDEST PUSH1 0x40 MLOAD DUP1 SWAP2 SUB SWAP1 RETURN JUMPDEST PUSH1 0x0 DUP1 SLOAD SWAP1 PUSH2 0x100 EXP SWAP1 DIV PUSH1 0xFF AND PUSH2 0x1FF JUMPI PUSH1 0x40 MLOAD PUSH32 0x8C379A000000000000000000000000000000000000000000000000000000000 DUP2 MSTORE PUSH1 0x4 ADD PUSH2 0x1F6 SWAP1 PUSH2 0x2113 JUMP JUMPDEST PUSH1 0x40 MLOAD DUP1 SWAP2 SUB SWAP1 REVERT JUMPDEST CALLER PUSH20 0xFFFFFFFFFFFFFFFFFFFFFFFFFFFFFFFFFFFFFFFF AND PUSH1 0x3 PUSH1 0x1 ADD PUSH1 0x0 SWAP1 SLOAD SWAP1 PUSH2 0x100 EXP SWAP1 DIV PUSH20 0xFFFFFFFFFFFFFFFFFFFFFFFFFFFFFFFFFFFFFFFF AND PUSH20 0xFFFFFFFFFFFFFFFFFFFFFFFFFFFFFFFFFFFFFFFF AND EQ PUSH2 0x292 JUMPI PUSH1 0x40 MLOAD PUSH32 0x8C379A000000000000000000000000000000000000000000000000000000000 DUP2 MSTORE PUSH1 0x4 ADD PUSH2 0x289 SWAP1 PUSH2 0x21A5 JUMP JUMPDEST PUSH1 0x40 MLOAD DUP1 SWAP2 SUB SWAP1 REVERT JUMPDEST PUSH2 0x2C3 DUP2 PUSH1 0x6 PUSH1 0x0 DUP2 SLOAD DUP2 LT PUSH2 0x2AB JUMPI PUSH2 0x2AA PUSH2 0x21C5 JUMP JUMPDEST JUMPDEST SWAP1 PUSH1 0x0 MSTORE PUSH1 0x20 PUSH1 0x0 KECCAK256 ADD PUSH2 0x13E6 SWAP1 SWAP2 SWAP1 PUSH4 0xFFFFFFFF AND JUMP JUMPDEST POP JUMP JUMPDEST PUSH1 0x0 DUP1 PUSH1 0x0 SWAP1 SLOAD SWAP1 PUSH2 0x100 EXP SWAP1 DIV PUSH1 0xFF AND PUSH2 0x316 JUMPI PUSH1 0x40 MLOAD PUSH32 0x8C379A000000000000000000000000000000000000000000000000000000000 DUP2 MSTORE PUSH1 0x4 ADD PUSH2 0x30D SWAP1 PUSH2 0x2113 JUMP JUMPDEST PUSH1 0x40 MLOAD DUP1 SWAP2 SUB SWAP1 REVERT JUMPDEST CALLER PUSH20 0xFFFFFFFFFFFFFFFFFFFFFFFFFFFFFFFFFFFFFFFF AND PUSH1 0x1 DUP1 ADD PUSH1 0x0 SWAP1 SLOAD SWAP1 PUSH2 0x100 EXP SWAP1 DIV PUSH20 0xFFFFFFFFFFFFFFFFFFFFFFFFFFFFFFFFFFFFFFFF AND PUSH20 0xFFFFFFFFFFFFFFFFFFFFFFFFFFFFFFFFFFFFFFFF AND EQ PUSH2 0x3A8 JUMPI PUSH1 0x40 MLOAD PUSH32 0x8C379A000000000000000000000000000000000000000000000000000000000 DUP2 MSTORE PUSH1 0x4 ADD PUSH2 0x39F SWAP1 PUSH2 0x2266 JUMP JUMPDEST PUSH1 0x40 MLOAD DUP1 SWAP2 SUB SWAP1 REVERT JUMPDEST PUSH2 0x4FD PUSH1 0x5 PUSH1 0x0 CALLER PUSH20 0xFFFFFFFFFFFFFFFFFFFFFFFFFFFFFFFFFFFFFFFF AND PUSH20 0xFFFFFFFFFFFFFFFFFFFFFFFFFFFFFFFFFFFFFFFF AND DUP2 MSTORE PUSH1 0x20 ADD SWAP1 DUP2 MSTORE PUSH1 0x20 ADD PUSH1 0x0 KECCAK256 PUSH1 0x40 MLOAD DUP1 PUSH1 0x60 ADD PUSH1 0x40 MSTORE SWAP1 DUP2 PUSH1 0x0 DUP3 ADD DUP1 SLOAD PUSH2 0x405 SWAP1 PUSH2 0x22B5 JUMP JUMPDEST DUP1 PUSH1 0x1F ADD PUSH1 0x20 DUP1 SWAP2 DIV MUL PUSH1 0x20 ADD PUSH1 0x40 MLOAD SWAP1 DUP2 ADD PUSH1 0x40 MSTORE DUP1 SWAP3 SWAP2 SWAP1 DUP2 DUP2 MSTORE PUSH1 0x20 ADD DUP3 DUP1 SLOAD PUSH2 0x431 SWAP1 PUSH2 0x22B5 JUMP JUMPDEST DUP1 ISZERO PUSH2 0x47E JUMPI DUP1 PUSH1 0x1F LT PUSH2 0x453 JUMPI PUSH2 0x100 DUP1 DUP4 SLOAD DIV MUL DUP4 MSTORE SWAP2 PUSH1 0x20 ADD SWAP2 PUSH2 0x47E JUMP JUMPDEST DUP3 ADD SWAP2 SWAP1 PUSH1 0x0 MSTORE PUSH1 0x20 PUSH1 0x0 KECCAK256 SWAP1 JUMPDEST DUP2 SLOAD DUP2 MSTORE SWAP1 PUSH1 0x1 ADD SWAP1 PUSH1 0x20 ADD DUP1 DUP4 GT PUSH2 0x461 JUMPI DUP3 SWAP1 SUB PUSH1 0x1F AND DUP3 ADD SWAP2 JUMPDEST POP POP POP POP POP DUP2 MSTORE PUSH1 0x20 ADD PUSH1 0x1 DUP3 ADD PUSH1 0x0 SWAP1 SLOAD SWAP1 PUSH2 0x100 EXP SWAP1 DIV PUSH20 0xFFFFFFFFFFFFFFFFFFFFFFFFFFFFFFFFFFFFFFFF AND PUSH20 0xFFFFFFFFFFFFFFFFFFFFFFFFFFFFFFFFFFFFFFFF AND PUSH20 0xFFFFFFFFFFFFFFFFFFFFFFFFFFFFFFFFFFFFFFFF AND DUP2 MSTORE PUSH1 0x20 ADD PUSH1 0x1 DUP3 ADD PUSH1 0x14 SWAP1 SLOAD SWAP1 PUSH2 0x100 EXP SWAP1 DIV PUSH1 0xFF AND ISZERO ISZERO ISZERO ISZERO DUP2 MSTORE POP POP PUSH2 0x1451 JUMP JUMPDEST PUSH2 0x53C JUMPI PUSH1 0x40 MLOAD PUSH32 0x8C379A000000000000000000000000000000000000000000000000000000000 DUP2 MSTORE PUSH1 0x4 ADD PUSH2 0x533 SWAP1 PUSH2 0x237F JUMP JUMPDEST PUSH1 0x40 MLOAD DUP1 SWAP2 SUB SWAP1 REVERT JUMPDEST PUSH2 0x5C4 DUP4 PUSH1 0x6 PUSH1 0x0 DUP2 SLOAD DUP2 LT PUSH2 0x555 JUMPI PUSH2 0x554 PUSH2 0x21C5 JUMP JUMPDEST JUMPDEST SWAP1 PUSH1 0x0 MSTORE PUSH1 0x20 PUSH1 0x0 KECCAK256 ADD PUSH1 0x40 MLOAD DUP1 PUSH1 0x40 ADD PUSH1 0x40 MSTORE SWAP1 DUP2 PUSH1 0x0 DUP3 ADD PUSH1 0x0 SWAP1 SLOAD SWAP1 PUSH2 0x100 EXP SWAP1 DIV PUSH4 0xFFFFFFFF AND PUSH4 0xFFFFFFFF AND PUSH4 0xFFFFFFFF AND DUP2 MSTORE PUSH1 0x20 ADD PUSH1 0x0 DUP3 ADD PUSH1 0x4 SWAP1 SLOAD SWAP1 PUSH2 0x100 EXP SWAP1 DIV PUSH4 0xFFFFFFFF AND PUSH4 0xFFFFFFFF AND PUSH4 0xFFFFFFFF AND DUP2 MSTORE POP POP PUSH2 0x145F SWAP1 SWAP2 SWAP1 PUSH4 0xFFFFFFFF AND JUMP JUMPDEST ISZERO DUP1 ISZERO PUSH2 0x756 JUMPI POP PUSH2 0x755 DUP3 PUSH1 0x0 DUP2 MLOAD DUP2 LT PUSH2 0x5E3 JUMPI PUSH2 0x5E2 PUSH2 0x21C5 JUMP JUMPDEST JUMPDEST PUSH1 0x20 MUL PUSH1 0x20 ADD ADD MLOAD PUSH1 0x7 PUSH1 0x0 DUP2 SLOAD DUP2 LT PUSH2 0x600 JUMPI PUSH2 0x5FF PUSH2 0x21C5 JUMP JUMPDEST JUMPDEST SWAP1 PUSH1 0x0 MSTORE PUSH1 0x20 PUSH1 0x0 KECCAK256 SWAP1 PUSH1 0x3 MUL ADD PUSH1 0x40 MLOAD DUP1 PUSH1 0x60 ADD PUSH1 0x40 MSTORE SWAP1 DUP2 PUSH1 0x0 DUP3 ADD DUP1 SLOAD PUSH2 0x629 SWAP1 PUSH2 0x22B5 JUMP JUMPDEST DUP1 PUSH1 0x1F ADD PUSH1 0x20 DUP1 SWAP2 DIV MUL PUSH1 0x20 ADD PUSH1 0x40 MLOAD SWAP1 DUP2 ADD PUSH1 0x40 MSTORE DUP1 SWAP3 SWAP2 SWAP1 DUP2 DUP2 MSTORE PUSH1 0x20 ADD DUP3 DUP1 SLOAD PUSH2 0x655 SWAP1 PUSH2 0x22B5 JUMP JUMPDEST DUP1 ISZERO PUSH2 0x6A2 JUMPI DUP1 PUSH1 0x1F LT PUSH2 0x677 JUMPI PUSH2 0x100 DUP1 DUP4 SLOAD DIV MUL DUP4 MSTORE SWAP2 PUSH1 0x20 ADD SWAP2 PUSH2 0x6A2 JUMP JUMPDEST DUP3 ADD SWAP2 SWAP1 PUSH1 0x0 MSTORE PUSH1 0x20 PUSH1 0x0 KECCAK256 SWAP1 JUMPDEST DUP2 SLOAD DUP2 MSTORE SWAP1 PUSH1 0x1 ADD SWAP1 PUSH1 0x20 ADD DUP1 DUP4 GT PUSH2 0x685 JUMPI DUP3 SWAP1 SUB PUSH1 0x1F AND DUP3 ADD SWAP2 JUMPDEST POP POP POP POP POP DUP2 MSTORE PUSH1 0x20 ADD PUSH1 0x1 DUP3 ADD DUP1 SLOAD PUSH2 0x6BB SWAP1 PUSH2 0x22B5 JUMP JUMPDEST DUP1 PUSH1 0x1F ADD PUSH1 0x20 DUP1 SWAP2 DIV MUL PUSH1 0x20 ADD PUSH1 0x40 MLOAD SWAP1 DUP2 ADD PUSH1 0x40 MSTORE DUP1 SWAP3 SWAP2 SWAP1 DUP2 DUP2 MSTORE PUSH1 0x20 ADD DUP3 DUP1 SLOAD PUSH2 0x6E7 SWAP1 PUSH2 0x22B5 JUMP JUMPDEST DUP1 ISZERO PUSH2 0x734 JUMPI DUP1 PUSH1 0x1F LT PUSH2 0x709 JUMPI PUSH2 0x100 DUP1 DUP4 SLOAD DIV MUL DUP4 MSTORE SWAP2 PUSH1 0x20 ADD SWAP2 PUSH2 0x734 JUMP JUMPDEST DUP3 ADD SWAP2 SWAP1 PUSH1 0x0 MSTORE PUSH1 0x20 PUSH1 0x0 KECCAK256 SWAP1 JUMPDEST DUP2 SLOAD DUP2 MSTORE SWAP1 PUSH1 0x1 ADD SWAP1 PUSH1 0x20 ADD DUP1 DUP4 GT PUSH2 0x717 JUMPI DUP3 SWAP1 SUB PUSH1 0x1F AND DUP3 ADD SWAP2 JUMPDEST POP POP POP POP POP DUP2 MSTORE PUSH1 0x20 ADD PUSH1 0x2 DUP3 ADD SLOAD DUP2 MSTORE POP POP PUSH2 0x14EE SWAP1 SWAP2 SWAP1 PUSH4 0xFFFFFFFF AND JUMP JUMPDEST JUMPDEST ISZERO PUSH2 0x799 JUMPI PUSH32 0x95A1F3A1DAFDD4C1AF344E3D7C69A72CBCE8A3F15FE1CF95A7F5BD23DF2E71A1 PUSH1 0x40 MLOAD PUSH2 0x788 SWAP1 PUSH2 0x23EB JUMP JUMPDEST PUSH1 0x40 MLOAD DUP1 SWAP2 SUB SWAP1 LOG1 PUSH1 0x1 SWAP1 POP PUSH2 0x7D3 JUMP JUMPDEST PUSH32 0x66091B7DC2B097C8F60D5CD6AA99633B097F08D2EB1056F3E15361B22E0EA2BA PUSH1 0x40 MLOAD PUSH2 0x7C6 SWAP1 PUSH2 0x247D JUMP JUMPDEST PUSH1 0x40 MLOAD DUP1 SWAP2 SUB SWAP1 LOG1 PUSH1 0x0 SWAP1 POP JUMPDEST SWAP3 SWAP2 POP POP JUMP JUMPDEST PUSH1 0x0 CALLER PUSH20 0xFFFFFFFFFFFFFFFFFFFFFFFFFFFFFFFFFFFFFFFF AND PUSH1 0x3 PUSH1 0x1 ADD PUSH1 0x0 SWAP1 SLOAD SWAP1 PUSH2 0x100 EXP SWAP1 DIV PUSH20 0xFFFFFFFFFFFFFFFFFFFFFFFFFFFFFFFFFFFFFFFF AND PUSH20 0xFFFFFFFFFFFFFFFFFFFFFFFFFFFFFFFFFFFFFFFF AND EQ PUSH2 0x86E JUMPI PUSH1 0x40 MLOAD PUSH32 0x8C379A000000000000000000000000000000000000000000000000000000000 DUP2 MSTORE PUSH1 0x4 ADD PUSH2 0x865 SWAP1 PUSH2 0x21A5 JUMP JUMPDEST PUSH1 0x40 MLOAD DUP1 SWAP2 SUB SWAP1 REVERT JUMPDEST PUSH1 0x5 PUSH1 0x0 PUSH1 0x1 DUP1 ADD PUSH1 0x0 SWAP1 SLOAD SWAP1 PUSH2 0x100 EXP SWAP1 DIV PUSH20 0xFFFFFFFFFFFFFFFFFFFFFFFFFFFFFFFFFFFFFFFF AND PUSH20 0xFFFFFFFFFFFFFFFFFFFFFFFFFFFFFFFFFFFFFFFF AND PUSH20 0xFFFFFFFFFFFFFFFFFFFFFFFFFFFFFFFFFFFFFFFF AND DUP2 MSTORE PUSH1 0x20 ADD SWAP1 DUP2 MSTORE PUSH1 0x20 ADD PUSH1 0x0 KECCAK256 PUSH1 0x0 DUP1 DUP3 ADD PUSH1 0x0 PUSH2 0x8E2 SWAP2 SWAP1 PUSH2 0x194A JUMP JUMPDEST PUSH1 0x1 DUP3 ADD PUSH1 0x0 PUSH2 0x100 EXP DUP2 SLOAD SWAP1 PUSH20 0xFFFFFFFFFFFFFFFFFFFFFFFFFFFFFFFFFFFFFFFF MUL NOT AND SWAP1 SSTORE PUSH1 0x1 DUP3 ADD PUSH1 0x14 PUSH2 0x100 EXP DUP2 SLOAD SWAP1 PUSH1 0xFF MUL NOT AND SWAP1 SSTORE POP POP PUSH2 0x92B DUP4 DUP4 PUSH1 0x0 PUSH2 0x1345 JUMP JUMPDEST PUSH1 0x1 PUSH1 0x0 DUP3 ADD MLOAD DUP2 PUSH1 0x0 ADD SWAP1 DUP1 MLOAD SWAP1 PUSH1 0x20 ADD SWAP1 PUSH2 0x949 SWAP3 SWAP2 SWAP1 PUSH2 0x198A JUMP JUMPDEST POP PUSH1 0x20 DUP3 ADD MLOAD DUP2 PUSH1 0x1 ADD PUSH1 0x0 PUSH2 0x100 EXP DUP2 SLOAD DUP2 PUSH20 0xFFFFFFFFFFFFFFFFFFFFFFFFFFFFFFFFFFFFFFFF MUL NOT AND SWAP1 DUP4 PUSH20 0xFFFFFFFFFFFFFFFFFFFFFFFFFFFFFFFFFFFFFFFF AND MUL OR SWAP1 SSTORE POP PUSH1 0x40 DUP3 ADD MLOAD DUP2 PUSH1 0x1 ADD PUSH1 0x14 PUSH2 0x100 EXP DUP2 SLOAD DUP2 PUSH1 0xFF MUL NOT AND SWAP1 DUP4 ISZERO ISZERO MUL OR SWAP1 SSTORE POP SWAP1 POP POP PUSH2 0x9BF DUP3 PUSH1 0x1 PUSH2 0x16E6 JUMP JUMPDEST POP PUSH1 0x1 SWAP1 POP SWAP3 SWAP2 POP POP JUMP JUMPDEST PUSH1 0x0 DUP1 PUSH1 0x0 SWAP1 SLOAD SWAP1 PUSH2 0x100 EXP SWAP1 DIV PUSH1 0xFF AND PUSH2 0xA1A JUMPI PUSH1 0x40 MLOAD PUSH32 0x8C379A000000000000000000000000000000000000000000000000000000000 DUP2 MSTORE PUSH1 0x4 ADD PUSH2 0xA11 SWAP1 PUSH2 0x2113 JUMP JUMPDEST PUSH1 0x40 MLOAD DUP1 SWAP2 SUB SWAP1 REVERT JUMPDEST CALLER PUSH20 0xFFFFFFFFFFFFFFFFFFFFFFFFFFFFFFFFFFFFFFFF AND PUSH1 0x1 DUP1 ADD PUSH1 0x0 SWAP1 SLOAD SWAP1 PUSH2 0x100 EXP SWAP1 DIV PUSH20 0xFFFFFFFFFFFFFFFFFFFFFFFFFFFFFFFFFFFFFFFF AND PUSH20 0xFFFFFFFFFFFFFFFFFFFFFFFFFFFFFFFFFFFFFFFF AND EQ DUP1 PUSH2 0xAC8 JUMPI POP CALLER PUSH20 0xFFFFFFFFFFFFFFFFFFFFFFFFFFFFFFFFFFFFFFFF AND PUSH1 0x3 PUSH1 0x1 ADD PUSH1 0x0 SWAP1 SLOAD SWAP1 PUSH2 0x100 EXP SWAP1 DIV PUSH20 0xFFFFFFFFFFFFFFFFFFFFFFFFFFFFFFFFFFFFFFFF AND PUSH20 0xFFFFFFFFFFFFFFFFFFFFFFFFFFFFFFFFFFFFFFFF AND EQ JUMPDEST PUSH2 0xB07 JUMPI PUSH1 0x40 MLOAD PUSH32 0x8C379A000000000000000000000000000000000000000000000000000000000 DUP2 MSTORE PUSH1 0x4 ADD PUSH2 0xAFE SWAP1 PUSH2 0x250F JUMP JUMPDEST PUSH1 0x40 MLOAD DUP1 SWAP2 SUB SWAP1 REVERT JUMPDEST PUSH1 0x1 DUP1 ADD PUSH1 0x0 SWAP1 SLOAD SWAP1 PUSH2 0x100 EXP SWAP1 DIV PUSH20 0xFFFFFFFFFFFFFFFFFFFFFFFFFFFFFFFFFFFFFFFF AND SWAP1 POP SWAP1 JUMP JUMPDEST PUSH1 0x0 DUP1 PUSH1 0x0 SWAP1 SLOAD SWAP1 PUSH2 0x100 EXP SWAP1 DIV PUSH1 0xFF AND PUSH2 0xB81 JUMPI PUSH1 0x40 MLOAD PUSH32 0x8C379A000000000000000000000000000000000000000000000000000000000 DUP2 MSTORE PUSH1 0x4 ADD PUSH2 0xB78 SWAP1 PUSH2 0x2113 JUMP JUMPDEST PUSH1 0x40 MLOAD DUP1 SWAP2 SUB SWAP1 REVERT JUMPDEST CALLER PUSH20 0xFFFFFFFFFFFFFFFFFFFFFFFFFFFFFFFFFFFFFFFF AND PUSH1 0x1 DUP1 ADD PUSH1 0x0 SWAP1 SLOAD SWAP1 PUSH2 0x100 EXP SWAP1 DIV PUSH20 0xFFFFFFFFFFFFFFFFFFFFFFFFFFFFFFFFFFFFFFFF AND PUSH20 0xFFFFFFFFFFFFFFFFFFFFFFFFFFFFFFFFFFFFFFFF AND EQ DUP1 PUSH2 0xC2F JUMPI POP CALLER PUSH20 0xFFFFFFFFFFFFFFFFFFFFFFFFFFFFFFFFFFFFFFFF AND PUSH1 0x3 PUSH1 0x1 ADD PUSH1 0x0 SWAP1 SLOAD SWAP1 PUSH2 0x100 EXP SWAP1 DIV PUSH20 0xFFFFFFFFFFFFFFFFFFFFFFFFFFFFFFFFFFFFFFFF AND PUSH20 0xFFFFFFFFFFFFFFFFFFFFFFFFFFFFFFFFFFFFFFFF AND EQ JUMPDEST PUSH2 0xC6E JUMPI PUSH1 0x40 MLOAD PUSH32 0x8C379A000000000000000000000000000000000000000000000000000000000 DUP2 MSTORE PUSH1 0x4 ADD PUSH2 0xC65 SWAP1 PUSH2 0x250F JUMP JUMPDEST PUSH1 0x40 MLOAD DUP1 SWAP2 SUB SWAP1 REVERT JUMPDEST PUSH1 0x3 PUSH1 0x1 ADD PUSH1 0x0 SWAP1 SLOAD SWAP1 PUSH2 0x100 EXP SWAP1 DIV PUSH20 0xFFFFFFFFFFFFFFFFFFFFFFFFFFFFFFFFFFFFFFFF AND SWAP1 POP SWAP1 JUMP JUMPDEST PUSH1 0x0 DUP1 SLOAD SWAP1 PUSH2 0x100 EXP SWAP1 DIV PUSH1 0xFF AND PUSH2 0xCE6 JUMPI PUSH1 0x40 MLOAD PUSH32 0x8C379A000000000000000000000000000000000000000000000000000000000 DUP2 MSTORE PUSH1 0x4 ADD PUSH2 0xCDD SWAP1 PUSH2 0x2113 JUMP JUMPDEST PUSH1 0x40 MLOAD DUP1 SWAP2 SUB SWAP1 REVERT JUMPDEST CALLER PUSH20 0xFFFFFFFFFFFFFFFFFFFFFFFFFFFFFFFFFFFFFFFF AND PUSH1 0x1 DUP1 ADD PUSH1 0x0 SWAP1 SLOAD SWAP1 PUSH2 0x100 EXP SWAP1 DIV PUSH20 0xFFFFFFFFFFFFFFFFFFFFFFFFFFFFFFFFFFFFFFFF AND PUSH20 0xFFFFFFFFFFFFFFFFFFFFFFFFFFFFFFFFFFFFFFFF AND EQ DUP1 PUSH2 0xD94 JUMPI POP CALLER PUSH20 0xFFFFFFFFFFFFFFFFFFFFFFFFFFFFFFFFFFFFFFFF AND PUSH1 0x3 PUSH1 0x1 ADD PUSH1 0x0 SWAP1 SLOAD SWAP1 PUSH2 0x100 EXP SWAP1 DIV PUSH20 0xFFFFFFFFFFFFFFFFFFFFFFFFFFFFFFFFFFFFFFFF AND PUSH20 0xFFFFFFFFFFFFFFFFFFFFFFFFFFFFFFFFFFFFFFFF AND EQ JUMPDEST PUSH2 0xDD3 JUMPI PUSH1 0x40 MLOAD PUSH32 0x8C379A000000000000000000000000000000000000000000000000000000000 DUP2 MSTORE PUSH1 0x4 ADD PUSH2 0xDCA SWAP1 PUSH2 0x250F JUMP JUMPDEST PUSH1 0x40 MLOAD DUP1 SWAP2 SUB SWAP1 REVERT JUMPDEST PUSH1 0x1 PUSH1 0x0 DUP1 PUSH2 0x100 EXP DUP2 SLOAD DUP2 PUSH1 0xFF MUL NOT AND SWAP1 DUP4 ISZERO ISZERO MUL OR SWAP1 SSTORE POP JUMP JUMPDEST PUSH1 0x0 DUP1 PUSH1 0x0 SWAP1 SLOAD SWAP1 PUSH2 0x100 EXP SWAP1 DIV PUSH1 0xFF AND PUSH2 0xE3F JUMPI PUSH1 0x40 MLOAD PUSH32 0x8C379A000000000000000000000000000000000000000000000000000000000 DUP2 MSTORE PUSH1 0x4 ADD PUSH2 0xE36 SWAP1 PUSH2 0x2113 JUMP JUMPDEST PUSH1 0x40 MLOAD DUP1 SWAP2 SUB SWAP1 REVERT JUMPDEST CALLER PUSH20 0xFFFFFFFFFFFFFFFFFFFFFFFFFFFFFFFFFFFFFFFF AND PUSH1 0x1 DUP1 ADD PUSH1 0x0 SWAP1 SLOAD SWAP1 PUSH2 0x100 EXP SWAP1 DIV PUSH20 0xFFFFFFFFFFFFFFFFFFFFFFFFFFFFFFFFFFFFFFFF AND PUSH20 0xFFFFFFFFFFFFFFFFFFFFFFFFFFFFFFFFFFFFFFFF AND EQ PUSH2 0xED1 JUMPI PUSH1 0x40 MLOAD PUSH32 0x8C379A000000000000000000000000000000000000000000000000000000000 DUP2 MSTORE PUSH1 0x4 ADD PUSH2 0xEC8 SWAP1 PUSH2 0x2266 JUMP JUMPDEST PUSH1 0x40 MLOAD DUP1 SWAP2 SUB SWAP1 REVERT JUMPDEST PUSH1 0x0 ISZERO ISZERO PUSH1 0x1 DUP1 ADD PUSH1 0x14 SWAP1 SLOAD SWAP1 PUSH2 0x100 EXP SWAP1 DIV PUSH1 0xFF AND ISZERO ISZERO EQ PUSH2 0xF29 JUMPI PUSH1 0x40 MLOAD PUSH32 0x8C379A000000000000000000000000000000000000000000000000000000000 DUP2 MSTORE PUSH1 0x4 ADD PUSH2 0xF20 SWAP1 PUSH2 0x257B JUMP JUMPDEST PUSH1 0x40 MLOAD DUP1 SWAP2 SUB SWAP1 REVERT JUMPDEST PUSH1 0x1 DUP1 PUSH1 0x1 ADD PUSH1 0x14 PUSH2 0x100 EXP DUP2 SLOAD DUP2 PUSH1 0xFF MUL NOT AND SWAP1 DUP4 ISZERO ISZERO MUL OR SWAP1 SSTORE POP PUSH2 0xF51 CALLER PUSH1 0x1 PUSH2 0x16E6 JUMP JUMPDEST POP PUSH1 0x1 SWAP1 POP SWAP1 JUMP JUMPDEST PUSH1 0x0 DUP1 SLOAD SWAP1 PUSH2 0x100 EXP SWAP1 DIV PUSH1 0xFF AND PUSH2 0xFA6 JUMPI PUSH1 0x40 MLOAD PUSH32 0x8C379A000000000000000000000000000000000000000000000000000000000 DUP2 MSTORE PUSH1 0x4 ADD PUSH2 0xF9D SWAP1 PUSH2 0x2113 JUMP JUMPDEST PUSH1 0x40 MLOAD DUP1 SWAP2 SUB SWAP1 REVERT JUMPDEST CALLER PUSH20 0xFFFFFFFFFFFFFFFFFFFFFFFFFFFFFFFFFFFFFFFF AND PUSH1 0x1 DUP1 ADD PUSH1 0x0 SWAP1 SLOAD SWAP1 PUSH2 0x100 EXP SWAP1 DIV PUSH20 0xFFFFFFFFFFFFFFFFFFFFFFFFFFFFFFFFFFFFFFFF AND PUSH20 0xFFFFFFFFFFFFFFFFFFFFFFFFFFFFFFFFFFFFFFFF AND EQ DUP1 PUSH2 0x1054 JUMPI POP CALLER PUSH20 0xFFFFFFFFFFFFFFFFFFFFFFFFFFFFFFFFFFFFFFFF AND PUSH1 0x3 PUSH1 0x1 ADD PUSH1 0x0 SWAP1 SLOAD SWAP1 PUSH2 0x100 EXP SWAP1 DIV PUSH20 0xFFFFFFFFFFFFFFFFFFFFFFFFFFFFFFFFFFFFFFFF AND PUSH20 0xFFFFFFFFFFFFFFFFFFFFFFFFFFFFFFFFFFFFFFFF AND EQ JUMPDEST PUSH2 0x1093 JUMPI PUSH1 0x40 MLOAD PUSH32 0x8C379A000000000000000000000000000000000000000000000000000000000 DUP2 MSTORE PUSH1 0x4 ADD PUSH2 0x108A SWAP1 PUSH2 0x250F JUMP JUMPDEST PUSH1 0x40 MLOAD DUP1 SWAP2 SUB SWAP1 REVERT JUMPDEST PUSH1 0x0 DUP1 PUSH1 0x0 PUSH2 0x100 EXP DUP2 SLOAD DUP2 PUSH1 0xFF MUL NOT AND SWAP1 DUP4 ISZERO ISZERO MUL OR SWAP1 SSTORE POP JUMP JUMPDEST PUSH2 0x10B7 PUSH2 0x1A10 JUMP JUMPDEST PUSH1 0x0 DUP1 SLOAD SWAP1 PUSH2 0x100 EXP SWAP1 DIV PUSH1 0xFF AND PUSH2 0x1104 JUMPI PUSH1 0x40 MLOAD PUSH32 0x8C379A000000000000000000000000000000000000000000000000000000000 DUP2 MSTORE PUSH1 0x4 ADD PUSH2 0x10FB SWAP1 PUSH2 0x2113 JUMP JUMPDEST PUSH1 0x40 MLOAD DUP1 SWAP2 SUB SWAP1 REVERT JUMPDEST CALLER PUSH20 0xFFFFFFFFFFFFFFFFFFFFFFFFFFFFFFFFFFFFFFFF AND PUSH1 0x1 DUP1 ADD PUSH1 0x0 SWAP1 SLOAD SWAP1 PUSH2 0x100 EXP SWAP1 DIV PUSH20 0xFFFFFFFFFFFFFFFFFFFFFFFFFFFFFFFFFFFFFFFF AND PUSH20 0xFFFFFFFFFFFFFFFFFFFFFFFFFFFFFFFFFFFFFFFF AND EQ DUP1 PUSH2 0x11B2 JUMPI POP CALLER PUSH20 0xFFFFFFFFFFFFFFFFFFFFFFFFFFFFFFFFFFFFFFFF AND PUSH1 0x3 PUSH1 0x1 ADD PUSH1 0x0 SWAP1 SLOAD SWAP1 PUSH2 0x100 EXP SWAP1 DIV PUSH20 0xFFFFFFFFFFFFFFFFFFFFFFFFFFFFFFFFFFFFFFFF AND PUSH20 0xFFFFFFFFFFFFFFFFFFFFFFFFFFFFFFFFFFFFFFFF AND EQ JUMPDEST PUSH2 0x11F1 JUMPI PUSH1 0x40 MLOAD PUSH32 0x8C379A000000000000000000000000000000000000000000000000000000000 DUP2 MSTORE PUSH1 0x4 ADD PUSH2 0x11E8 SWAP1 PUSH2 0x250F JUMP JUMPDEST PUSH1 0x40 MLOAD DUP1 SWAP2 SUB SWAP1 REVERT JUMPDEST PUSH1 0x5 PUSH1 0x0 DUP4 PUSH20 0xFFFFFFFFFFFFFFFFFFFFFFFFFFFFFFFFFFFFFFFF AND PUSH20 0xFFFFFFFFFFFFFFFFFFFFFFFFFFFFFFFFFFFFFFFF AND DUP2 MSTORE PUSH1 0x20 ADD SWAP1 DUP2 MSTORE PUSH1 0x20 ADD PUSH1 0x0 KECCAK256 PUSH1 0x40 MLOAD DUP1 PUSH1 0x60 ADD PUSH1 0x40 MSTORE SWAP1 DUP2 PUSH1 0x0 DUP3 ADD DUP1 SLOAD PUSH2 0x124B SWAP1 PUSH2 0x22B5 JUMP JUMPDEST DUP1 PUSH1 0x1F ADD PUSH1 0x20 DUP1 SWAP2 DIV MUL PUSH1 0x20 ADD PUSH1 0x40 MLOAD SWAP1 DUP2 ADD PUSH1 0x40 MSTORE DUP1 SWAP3 SWAP2 SWAP1 DUP2 DUP2 MSTORE PUSH1 0x20 ADD DUP3 DUP1 SLOAD PUSH2 0x1277 SWAP1 PUSH2 0x22B5 JUMP JUMPDEST DUP1 ISZERO PUSH2 0x12C4 JUMPI DUP1 PUSH1 0x1F LT PUSH2 0x1299 JUMPI PUSH2 0x100 DUP1 DUP4 SLOAD DIV MUL DUP4 MSTORE SWAP2 PUSH1 0x20 ADD SWAP2 PUSH2 0x12C4 JUMP JUMPDEST DUP3 ADD SWAP2 SWAP1 PUSH1 0x0 MSTORE PUSH1 0x20 PUSH1 0x0 KECCAK256 SWAP1 JUMPDEST DUP2 SLOAD DUP2 MSTORE SWAP1 PUSH1 0x1 ADD SWAP1 PUSH1 0x20 ADD DUP1 DUP4 GT PUSH2 0x12A7 JUMPI DUP3 SWAP1 SUB PUSH1 0x1F AND DUP3 ADD SWAP2 JUMPDEST POP POP POP POP POP DUP2 MSTORE PUSH1 0x20 ADD PUSH1 0x1 DUP3 ADD PUSH1 0x0 SWAP1 SLOAD SWAP1 PUSH2 0x100 EXP SWAP1 DIV PUSH20 0xFFFFFFFFFFFFFFFFFFFFFFFFFFFFFFFFFFFFFFFF AND PUSH20 0xFFFFFFFFFFFFFFFFFFFFFFFFFFFFFFFFFFFFFFFF AND PUSH20 0xFFFFFFFFFFFFFFFFFFFFFFFFFFFFFFFFFFFFFFFF AND DUP2 MSTORE PUSH1 0x20 ADD PUSH1 0x1 DUP3 ADD PUSH1 0x14 SWAP1 SLOAD SWAP1 PUSH2 0x100 EXP SWAP1 DIV PUSH1 0xFF AND ISZERO ISZERO ISZERO ISZERO DUP2 MSTORE POP POP SWAP1 POP SWAP2 SWAP1 POP JUMP JUMPDEST PUSH2 0x134D PUSH2 0x1A10 JUMP JUMPDEST PUSH1 0x40 MLOAD DUP1 PUSH1 0x60 ADD PUSH1 0x40 MSTORE DUP1 DUP6 DUP2 MSTORE PUSH1 0x20 ADD DUP5 PUSH20 0xFFFFFFFFFFFFFFFFFFFFFFFFFFFFFFFFFFFFFFFF AND DUP2 MSTORE PUSH1 0x20 ADD DUP4 ISZERO ISZERO DUP2 MSTORE POP SWAP1 POP SWAP4 SWAP3 POP POP POP JUMP JUMPDEST PUSH2 0x1391 PUSH2 0x1A49 JUMP JUMPDEST PUSH1 0x40 MLOAD DUP1 PUSH1 0x40 ADD PUSH1 0x40 MSTORE DUP1 PUSH1 0x0 PUSH4 0xFFFFFFFF AND DUP2 MSTORE PUSH1 0x20 ADD DUP4 PUSH4 0xFFFFFFFF AND DUP2 MSTORE POP SWAP1 POP SWAP2 SWAP1 POP JUMP JUMPDEST PUSH2 0x13C2 PUSH2 0x1A6F JUMP JUMPDEST PUSH1 0x40 MLOAD DUP1 PUSH1 0x60 ADD PUSH1 0x40 MSTORE DUP1 DUP6 DUP2 MSTORE PUSH1 0x20 ADD DUP5 DUP2 MSTORE PUSH1 0x20 ADD DUP4 DUP2 MSTORE POP SWAP1 POP SWAP4 SWAP3 POP POP POP JUMP JUMPDEST DUP1 PUSH1 0x0 PUSH2 0x13F8 DUP3 PUSH4 0xFFFFFFFF AND PUSH2 0x17E9 JUMP JUMPDEST SWAP1 POP PUSH1 0xA DUP2 MLOAD GT ISZERO PUSH2 0x1409 JUMPI PUSH1 0x0 DUP1 REVERT JUMPDEST DUP4 PUSH1 0x0 ADD PUSH1 0x4 SWAP1 SLOAD SWAP1 PUSH2 0x100 EXP SWAP1 DIV PUSH4 0xFFFFFFFF AND DUP4 PUSH2 0x1429 SWAP2 SWAP1 PUSH2 0x25CA JUMP JUMPDEST DUP5 PUSH1 0x0 ADD PUSH1 0x0 PUSH2 0x100 EXP DUP2 SLOAD DUP2 PUSH4 0xFFFFFFFF MUL NOT AND SWAP1 DUP4 PUSH4 0xFFFFFFFF AND MUL OR SWAP1 SSTORE POP POP POP POP POP JUMP JUMPDEST PUSH1 0x0 DUP2 PUSH1 0x40 ADD MLOAD SWAP1 POP SWAP2 SWAP1 POP JUMP JUMPDEST PUSH1 0x0 DUP2 PUSH1 0x0 PUSH2 0x1473 DUP3 PUSH4 0xFFFFFFFF AND PUSH2 0x17E9 JUMP JUMPDEST SWAP1 POP PUSH1 0xA DUP2 MLOAD GT ISZERO PUSH2 0x1484 JUMPI PUSH1 0x0 DUP1 REVERT JUMPDEST PUSH1 0x0 DUP6 PUSH1 0x0 ADD MLOAD PUSH4 0xFFFFFFFF AND GT PUSH2 0x14D1 JUMPI PUSH1 0x40 MLOAD PUSH32 0x8C379A000000000000000000000000000000000000000000000000000000000 DUP2 MSTORE PUSH1 0x4 ADD PUSH2 0x14C8 SWAP1 PUSH2 0x2676 JUMP JUMPDEST PUSH1 0x40 MLOAD DUP1 SWAP2 SUB SWAP1 REVERT JUMPDEST DUP5 PUSH1 0x0 ADD MLOAD PUSH4 0xFFFFFFFF AND DUP5 PUSH4 0xFFFFFFFF AND GT SWAP3 POP POP POP SWAP3 SWAP2 POP POP JUMP JUMPDEST PUSH1 0x0 DUP1 DUP4 PUSH1 0x20 ADD MLOAD SWAP1 POP PUSH1 0x21 PUSH1 0xF8 SHL DUP2 PUSH1 0x0 DUP2 MLOAD DUP2 LT PUSH2 0x1511 JUMPI PUSH2 0x1510 PUSH2 0x21C5 JUMP JUMPDEST JUMPDEST PUSH1 0x20 ADD ADD MLOAD PUSH1 0xF8 SHR PUSH1 0xF8 SHL PUSH31 0xFFFFFFFFFFFFFFFFFFFFFFFFFFFFFFFFFFFFFFFFFFFFFFFFFFFFFFFFFFFFFF NOT AND EQ ISZERO PUSH2 0x1554 JUMPI DUP4 PUSH1 0x40 ADD MLOAD DUP4 EQ ISZERO SWAP2 POP POP PUSH2 0x16E0 JUMP JUMPDEST PUSH1 0x3D PUSH1 0xF8 SHL DUP2 PUSH1 0x0 DUP2 MLOAD DUP2 LT PUSH2 0x156D JUMPI PUSH2 0x156C PUSH2 0x21C5 JUMP JUMPDEST JUMPDEST PUSH1 0x20 ADD ADD MLOAD PUSH1 0xF8 SHR PUSH1 0xF8 SHL PUSH31 0xFFFFFFFFFFFFFFFFFFFFFFFFFFFFFFFFFFFFFFFFFFFFFFFFFFFFFFFFFFFFFF NOT AND EQ ISZERO PUSH2 0x15AF JUMPI DUP4 PUSH1 0x40 ADD MLOAD DUP4 EQ SWAP2 POP POP PUSH2 0x16E0 JUMP JUMPDEST PUSH1 0x3C PUSH1 0xF8 SHL DUP2 PUSH1 0x0 DUP2 MLOAD DUP2 LT PUSH2 0x15C8 JUMPI PUSH2 0x15C7 PUSH2 0x21C5 JUMP JUMPDEST JUMPDEST PUSH1 0x20 ADD ADD MLOAD PUSH1 0xF8 SHR PUSH1 0xF8 SHL PUSH31 0xFFFFFFFFFFFFFFFFFFFFFFFFFFFFFFFFFFFFFFFFFFFFFFFFFFFFFFFFFFFFFF NOT AND EQ ISZERO PUSH2 0x1624 JUMPI PUSH1 0x2 DUP2 MLOAD EQ ISZERO PUSH2 0x1615 JUMPI DUP4 PUSH1 0x40 ADD MLOAD DUP4 SGT ISZERO SWAP2 POP POP PUSH2 0x16E0 JUMP JUMPDEST DUP4 PUSH1 0x40 ADD MLOAD DUP4 SLT SWAP2 POP POP PUSH2 0x16E0 JUMP JUMPDEST PUSH1 0x3E PUSH1 0xF8 SHL DUP2 PUSH1 0x0 DUP2 MLOAD DUP2 LT PUSH2 0x163D JUMPI PUSH2 0x163C PUSH2 0x21C5 JUMP JUMPDEST JUMPDEST PUSH1 0x20 ADD ADD MLOAD PUSH1 0xF8 SHR PUSH1 0xF8 SHL PUSH31 0xFFFFFFFFFFFFFFFFFFFFFFFFFFFFFFFFFFFFFFFFFFFFFFFFFFFFFFFFFFFFFF NOT AND EQ ISZERO PUSH2 0x1699 JUMPI PUSH1 0x2 DUP2 MLOAD EQ ISZERO PUSH2 0x168A JUMPI DUP4 PUSH1 0x40 ADD MLOAD DUP4 SLT ISZERO SWAP2 POP POP PUSH2 0x16E0 JUMP JUMPDEST DUP4 PUSH1 0x40 ADD MLOAD DUP4 SGT SWAP2 POP POP PUSH2 0x16E0 JUMP JUMPDEST PUSH1 0x0 PUSH2 0x16DA JUMPI PUSH1 0x40 MLOAD PUSH32 0x8C379A000000000000000000000000000000000000000000000000000000000 DUP2 MSTORE PUSH1 0x4 ADD PUSH2 0x16D1 SWAP1 PUSH2 0x26E2 JUMP JUMPDEST PUSH1 0x40 MLOAD DUP1 SWAP2 SUB SWAP1 REVERT JUMPDEST PUSH1 0x0 SWAP2 POP POP JUMPDEST SWAP3 SWAP2 POP POP JUMP JUMPDEST PUSH1 0x0 DUP2 PUSH1 0x5 PUSH1 0x0 DUP6 PUSH20 0xFFFFFFFFFFFFFFFFFFFFFFFFFFFFFFFFFFFFFFFF AND PUSH20 0xFFFFFFFFFFFFFFFFFFFFFFFFFFFFFFFFFFFFFFFF AND DUP2 MSTORE PUSH1 0x20 ADD SWAP1 DUP2 MSTORE PUSH1 0x20 ADD PUSH1 0x0 KECCAK256 PUSH1 0x0 DUP3 ADD DUP2 PUSH1 0x0 ADD SWAP1 DUP1 SLOAD PUSH2 0x173C SWAP1 PUSH2 0x22B5 JUMP JUMPDEST PUSH2 0x1747 SWAP3 SWAP2 SWAP1 PUSH2 0x1A90 JUMP JUMPDEST POP PUSH1 0x1 DUP3 ADD PUSH1 0x0 SWAP1 SLOAD SWAP1 PUSH2 0x100 EXP SWAP1 DIV PUSH20 0xFFFFFFFFFFFFFFFFFFFFFFFFFFFFFFFFFFFFFFFF AND DUP2 PUSH1 0x1 ADD PUSH1 0x0 PUSH2 0x100 EXP DUP2 SLOAD DUP2 PUSH20 0xFFFFFFFFFFFFFFFFFFFFFFFFFFFFFFFFFFFFFFFF MUL NOT AND SWAP1 DUP4 PUSH20 0xFFFFFFFFFFFFFFFFFFFFFFFFFFFFFFFFFFFFFFFF AND MUL OR SWAP1 SSTORE POP PUSH1 0x1 DUP3 ADD PUSH1 0x14 SWAP1 SLOAD SWAP1 PUSH2 0x100 EXP SWAP1 DIV PUSH1 0xFF AND DUP2 PUSH1 0x1 ADD PUSH1 0x14 PUSH2 0x100 EXP DUP2 SLOAD DUP2 PUSH1 0xFF MUL NOT AND SWAP1 DUP4 ISZERO ISZERO MUL OR SWAP1 SSTORE POP SWAP1 POP POP PUSH1 0x1 SWAP1 POP SWAP3 SWAP2 POP POP JUMP JUMPDEST PUSH1 0x60 PUSH1 0x0 DUP3 EQ ISZERO PUSH2 0x1831 JUMPI PUSH1 0x40 MLOAD DUP1 PUSH1 0x40 ADD PUSH1 0x40 MSTORE DUP1 PUSH1 0x1 DUP2 MSTORE PUSH1 0x20 ADD PUSH32 0x3000000000000000000000000000000000000000000000000000000000000000 DUP2 MSTORE POP SWAP1 POP PUSH2 0x1945 JUMP JUMPDEST PUSH1 0x0 DUP3 SWAP1 POP PUSH1 0x0 JUMPDEST PUSH1 0x0 DUP3 EQ PUSH2 0x1863 JUMPI DUP1 DUP1 PUSH2 0x184C SWAP1 PUSH2 0x270C JUMP JUMPDEST SWAP2 POP POP PUSH1 0xA DUP3 PUSH2 0x185C SWAP2 SWAP1 PUSH2 0x2784 JUMP JUMPDEST SWAP2 POP PUSH2 0x1839 JUMP JUMPDEST PUSH1 0x0 DUP2 PUSH8 0xFFFFFFFFFFFFFFFF DUP2 GT ISZERO PUSH2 0x187F JUMPI PUSH2 0x187E PUSH2 0x1BCD JUMP JUMPDEST JUMPDEST PUSH1 0x40 MLOAD SWAP1 DUP1 DUP3 MSTORE DUP1 PUSH1 0x1F ADD PUSH1 0x1F NOT AND PUSH1 0x20 ADD DUP3 ADD PUSH1 0x40 MSTORE DUP1 ISZERO PUSH2 0x18B1 JUMPI DUP2 PUSH1 0x20 ADD PUSH1 0x1 DUP3 MUL DUP1 CALLDATASIZE DUP4 CALLDATACOPY DUP1 DUP3 ADD SWAP2 POP POP SWAP1 POP JUMPDEST POP SWAP1 POP JUMPDEST PUSH1 0x0 DUP6 EQ PUSH2 0x193E JUMPI PUSH1 0x1 DUP3 PUSH2 0x18CA SWAP2 SWAP1 PUSH2 0x27B5 JUMP JUMPDEST SWAP2 POP PUSH1 0xA DUP6 PUSH2 0x18D9 SWAP2 SWAP1 PUSH2 0x27E9 JUMP JUMPDEST PUSH1 0x30 PUSH2 0x18E5 SWAP2 SWAP1 PUSH2 0x281A JUMP JUMPDEST PUSH1 0xF8 SHL DUP2 DUP4 DUP2 MLOAD DUP2 LT PUSH2 0x18FB JUMPI PUSH2 0x18FA PUSH2 0x21C5 JUMP JUMPDEST JUMPDEST PUSH1 0x20 ADD ADD SWAP1 PUSH31 0xFFFFFFFFFFFFFFFFFFFFFFFFFFFFFFFFFFFFFFFFFFFFFFFFFFFFFFFFFFFFFF NOT AND SWAP1 DUP2 PUSH1 0x0 BYTE SWAP1 MSTORE8 POP PUSH1 0xA DUP6 PUSH2 0x1937 SWAP2 SWAP1 PUSH2 0x2784 JUMP JUMPDEST SWAP5 POP PUSH2 0x18B5 JUMP JUMPDEST DUP1 SWAP4 POP POP POP POP JUMPDEST SWAP2 SWAP1 POP JUMP JUMPDEST POP DUP1 SLOAD PUSH2 0x1956 SWAP1 PUSH2 0x22B5 JUMP JUMPDEST PUSH1 0x0 DUP3 SSTORE DUP1 PUSH1 0x1F LT PUSH2 0x1968 JUMPI POP PUSH2 0x1987 JUMP JUMPDEST PUSH1 0x1F ADD PUSH1 0x20 SWAP1 DIV SWAP1 PUSH1 0x0 MSTORE PUSH1 0x20 PUSH1 0x0 KECCAK256 SWAP1 DUP2 ADD SWAP1 PUSH2 0x1986 SWAP2 SWAP1 PUSH2 0x1B1D JUMP JUMPDEST JUMPDEST POP JUMP JUMPDEST DUP3 DUP1 SLOAD PUSH2 0x1996 SWAP1 PUSH2 0x22B5 JUMP JUMPDEST SWAP1 PUSH1 0x0 MSTORE PUSH1 0x20 PUSH1 0x0 KECCAK256 SWAP1 PUSH1 0x1F ADD PUSH1 0x20 SWAP1 DIV DUP2 ADD SWAP3 DUP3 PUSH2 0x19B8 JUMPI PUSH1 0x0 DUP6 SSTORE PUSH2 0x19FF JUMP JUMPDEST DUP3 PUSH1 0x1F LT PUSH2 0x19D1 JUMPI DUP1 MLOAD PUSH1 0xFF NOT AND DUP4 DUP1 ADD OR DUP6 SSTORE PUSH2 0x19FF JUMP JUMPDEST DUP3 DUP1 ADD PUSH1 0x1 ADD DUP6 SSTORE DUP3 ISZERO PUSH2 0x19FF JUMPI SWAP2 DUP3 ADD JUMPDEST DUP3 DUP2 GT ISZERO PUSH2 0x19FE JUMPI DUP3 MLOAD DUP3 SSTORE SWAP2 PUSH1 0x20 ADD SWAP2 SWAP1 PUSH1 0x1 ADD SWAP1 PUSH2 0x19E3 JUMP JUMPDEST JUMPDEST POP SWAP1 POP PUSH2 0x1A0C SWAP2 SWAP1 PUSH2 0x1B1D JUMP JUMPDEST POP SWAP1 JUMP JUMPDEST PUSH1 0x40 MLOAD DUP1 PUSH1 0x60 ADD PUSH1 0x40 MSTORE DUP1 PUSH1 0x60 DUP2 MSTORE PUSH1 0x20 ADD PUSH1 0x0 PUSH20 0xFFFFFFFFFFFFFFFFFFFFFFFFFFFFFFFFFFFFFFFF AND DUP2 MSTORE PUSH1 0x20 ADD PUSH1 0x0 ISZERO ISZERO DUP2 MSTORE POP SWAP1 JUMP JUMPDEST PUSH1 0x40 MLOAD DUP1 PUSH1 0x40 ADD PUSH1 0x40 MSTORE DUP1 PUSH1 0x0 PUSH4 0xFFFFFFFF AND DUP2 MSTORE PUSH1 0x20 ADD PUSH1 0x0 PUSH4 0xFFFFFFFF AND DUP2 MSTORE POP SWAP1 JUMP JUMPDEST PUSH1 0x40 MLOAD DUP1 PUSH1 0x60 ADD PUSH1 0x40 MSTORE DUP1 PUSH1 0x60 DUP2 MSTORE PUSH1 0x20 ADD PUSH1 0x60 DUP2 MSTORE PUSH1 0x20 ADD PUSH1 0x0 DUP2 MSTORE POP SWAP1 JUMP JUMPDEST DUP3 DUP1 SLOAD PUSH2 0x1A9C SWAP1 PUSH2 0x22B5 JUMP JUMPDEST SWAP1 PUSH1 0x0 MSTORE PUSH1 0x20 PUSH1 0x0 KECCAK256 SWAP1 PUSH1 0x1F ADD PUSH1 0x20 SWAP1 DIV DUP2 ADD SWAP3 DUP3 PUSH2 0x1ABE JUMPI PUSH1 0x0 DUP6 SSTORE PUSH2 0x1B0C JUMP JUMPDEST DUP3 PUSH1 0x1F LT PUSH2 0x1ACF JUMPI DUP1 SLOAD DUP6 SSTORE PUSH2 0x1B0C JUMP JUMPDEST DUP3 DUP1 ADD PUSH1 0x1 ADD DUP6 SSTORE DUP3 ISZERO PUSH2 0x1B0C JUMPI PUSH1 0x0 MSTORE PUSH1 0x20 PUSH1 0x0 KECCAK256 SWAP2 PUSH1 0x1F ADD PUSH1 0x20 SWAP1 DIV DUP3 ADD JUMPDEST DUP3 DUP2 GT ISZERO PUSH2 0x1B0B JUMPI DUP3 SLOAD DUP3 SSTORE SWAP2 PUSH1 0x1 ADD SWAP2 SWAP1 PUSH1 0x1 ADD SWAP1 PUSH2 0x1AF0 JUMP JUMPDEST JUMPDEST POP SWAP1 POP PUSH2 0x1B19 SWAP2 SWAP1 PUSH2 0x1B1D JUMP JUMPDEST POP SWAP1 JUMP JUMPDEST JUMPDEST DUP1 DUP3 GT ISZERO PUSH2 0x1B36 JUMPI PUSH1 0x0 DUP2 PUSH1 0x0 SWAP1 SSTORE POP PUSH1 0x1 ADD PUSH2 0x1B1E JUMP JUMPDEST POP SWAP1 JUMP JUMPDEST PUSH1 0x0 PUSH1 0x40 MLOAD SWAP1 POP SWAP1 JUMP JUMPDEST PUSH1 0x0 DUP1 REVERT JUMPDEST PUSH1 0x0 DUP1 REVERT JUMPDEST PUSH1 0x0 PUSH4 0xFFFFFFFF DUP3 AND SWAP1 POP SWAP2 SWAP1 POP JUMP JUMPDEST PUSH2 0x1B67 DUP2 PUSH2 0x1B4E JUMP JUMPDEST DUP2 EQ PUSH2 0x1B72 JUMPI PUSH1 0x0 DUP1 REVERT JUMPDEST POP JUMP JUMPDEST PUSH1 0x0 DUP2 CALLDATALOAD SWAP1 POP PUSH2 0x1B84 DUP2 PUSH2 0x1B5E JUMP JUMPDEST SWAP3 SWAP2 POP POP JUMP JUMPDEST PUSH1 0x0 PUSH1 0x20 DUP3 DUP5 SUB SLT ISZERO PUSH2 0x1BA0 JUMPI PUSH2 0x1B9F PUSH2 0x1B44 JUMP JUMPDEST JUMPDEST PUSH1 0x0 PUSH2 0x1BAE DUP5 DUP3 DUP6 ADD PUSH2 0x1B75 JUMP JUMPDEST SWAP2 POP POP SWAP3 SWAP2 POP POP JUMP JUMPDEST PUSH1 0x0 DUP1 REVERT JUMPDEST PUSH1 0x0 PUSH1 0x1F NOT PUSH1 0x1F DUP4 ADD AND SWAP1 POP SWAP2 SWAP1 POP JUMP JUMPDEST PUSH32 0x4E487B7100000000000000000000000000000000000000000000000000000000 PUSH1 0x0 MSTORE PUSH1 0x41 PUSH1 0x4 MSTORE PUSH1 0x24 PUSH1 0x0 REVERT JUMPDEST PUSH2 0x1C05 DUP3 PUSH2 0x1BBC JUMP JUMPDEST DUP2 ADD DUP2 DUP2 LT PUSH8 0xFFFFFFFFFFFFFFFF DUP3 GT OR ISZERO PUSH2 0x1C24 JUMPI PUSH2 0x1C23 PUSH2 0x1BCD JUMP JUMPDEST JUMPDEST DUP1 PUSH1 0x40 MSTORE POP POP POP JUMP JUMPDEST PUSH1 0x0 PUSH2 0x1C37 PUSH2 0x1B3A JUMP JUMPDEST SWAP1 POP PUSH2 0x1C43 DUP3 DUP3 PUSH2 0x1BFC JUMP JUMPDEST SWAP2 SWAP1 POP JUMP JUMPDEST PUSH1 0x0 PUSH8 0xFFFFFFFFFFFFFFFF DUP3 GT ISZERO PUSH2 0x1C63 JUMPI PUSH2 0x1C62 PUSH2 0x1BCD JUMP JUMPDEST JUMPDEST PUSH1 0x20 DUP3 MUL SWAP1 POP PUSH1 0x20 DUP2 ADD SWAP1 POP SWAP2 SWAP1 POP JUMP JUMPDEST PUSH1 0x0 DUP1 REVERT JUMPDEST PUSH1 0x0 DUP2 SWAP1 POP SWAP2 SWAP1 POP JUMP JUMPDEST PUSH2 0x1C8C DUP2 PUSH2 0x1C79 JUMP JUMPDEST DUP2 EQ PUSH2 0x1C97 JUMPI PUSH1 0x0 DUP1 REVERT JUMPDEST POP JUMP JUMPDEST PUSH1 0x0 DUP2 CALLDATALOAD SWAP1 POP PUSH2 0x1CA9 DUP2 PUSH2 0x1C83 JUMP JUMPDEST SWAP3 SWAP2 POP POP JUMP JUMPDEST PUSH1 0x0 PUSH2 0x1CC2 PUSH2 0x1CBD DUP5 PUSH2 0x1C48 JUMP JUMPDEST PUSH2 0x1C2D JUMP JUMPDEST SWAP1 POP DUP1 DUP4 DUP3 MSTORE PUSH1 0x20 DUP3 ADD SWAP1 POP PUSH1 0x20 DUP5 MUL DUP4 ADD DUP6 DUP2 GT ISZERO PUSH2 0x1CE5 JUMPI PUSH2 0x1CE4 PUSH2 0x1C74 JUMP JUMPDEST JUMPDEST DUP4 JUMPDEST DUP2 DUP2 LT ISZERO PUSH2 0x1D0E JUMPI DUP1 PUSH2 0x1CFA DUP9 DUP3 PUSH2 0x1C9A JUMP JUMPDEST DUP5 MSTORE PUSH1 0x20 DUP5 ADD SWAP4 POP POP PUSH1 0x20 DUP2 ADD SWAP1 POP PUSH2 0x1CE7 JUMP JUMPDEST POP POP POP SWAP4 SWAP3 POP POP POP JUMP JUMPDEST PUSH1 0x0 DUP3 PUSH1 0x1F DUP4 ADD SLT PUSH2 0x1D2D JUMPI PUSH2 0x1D2C PUSH2 0x1BB7 JUMP JUMPDEST JUMPDEST DUP2 CALLDATALOAD PUSH2 0x1D3D DUP5 DUP3 PUSH1 0x20 DUP7 ADD PUSH2 0x1CAF JUMP JUMPDEST SWAP2 POP POP SWAP3 SWAP2 POP POP JUMP JUMPDEST PUSH1 0x0 DUP1 PUSH1 0x40 DUP4 DUP6 SUB SLT ISZERO PUSH2 0x1D5D JUMPI PUSH2 0x1D5C PUSH2 0x1B44 JUMP JUMPDEST JUMPDEST PUSH1 0x0 PUSH2 0x1D6B DUP6 DUP3 DUP7 ADD PUSH2 0x1B75 JUMP JUMPDEST SWAP3 POP POP PUSH1 0x20 DUP4 ADD CALLDATALOAD PUSH8 0xFFFFFFFFFFFFFFFF DUP2 GT ISZERO PUSH2 0x1D8C JUMPI PUSH2 0x1D8B PUSH2 0x1B49 JUMP JUMPDEST JUMPDEST PUSH2 0x1D98 DUP6 DUP3 DUP7 ADD PUSH2 0x1D18 JUMP JUMPDEST SWAP2 POP POP SWAP3 POP SWAP3 SWAP1 POP JUMP JUMPDEST PUSH1 0x0 DUP2 ISZERO ISZERO SWAP1 POP SWAP2 SWAP1 POP JUMP JUMPDEST PUSH2 0x1DB7 DUP2 PUSH2 0x1DA2 JUMP JUMPDEST DUP3 MSTORE POP POP JUMP JUMPDEST PUSH1 0x0 PUSH1 0x20 DUP3 ADD SWAP1 POP PUSH2 0x1DD2 PUSH1 0x0 DUP4 ADD DUP5 PUSH2 0x1DAE JUMP JUMPDEST SWAP3 SWAP2 POP POP JUMP JUMPDEST PUSH1 0x0 DUP1 REVERT JUMPDEST PUSH1 0x0 PUSH8 0xFFFFFFFFFFFFFFFF DUP3 GT ISZERO PUSH2 0x1DF8 JUMPI PUSH2 0x1DF7 PUSH2 0x1BCD JUMP JUMPDEST JUMPDEST PUSH2 0x1E01 DUP3 PUSH2 0x1BBC JUMP JUMPDEST SWAP1 POP PUSH1 0x20 DUP2 ADD SWAP1 POP SWAP2 SWAP1 POP JUMP JUMPDEST DUP3 DUP2 DUP4 CALLDATACOPY PUSH1 0x0 DUP4 DUP4 ADD MSTORE POP POP POP JUMP JUMPDEST PUSH1 0x0 PUSH2 0x1E30 PUSH2 0x1E2B DUP5 PUSH2 0x1DDD JUMP JUMPDEST PUSH2 0x1C2D JUMP JUMPDEST SWAP1 POP DUP3 DUP2 MSTORE PUSH1 0x20 DUP2 ADD DUP5 DUP5 DUP5 ADD GT ISZERO PUSH2 0x1E4C JUMPI PUSH2 0x1E4B PUSH2 0x1DD8 JUMP JUMPDEST JUMPDEST PUSH2 0x1E57 DUP5 DUP3 DUP6 PUSH2 0x1E0E JUMP JUMPDEST POP SWAP4 SWAP3 POP POP POP JUMP JUMPDEST PUSH1 0x0 DUP3 PUSH1 0x1F DUP4 ADD SLT PUSH2 0x1E74 JUMPI PUSH2 0x1E73 PUSH2 0x1BB7 JUMP JUMPDEST JUMPDEST DUP2 CALLDATALOAD PUSH2 0x1E84 DUP5 DUP3 PUSH1 0x20 DUP7 ADD PUSH2 0x1E1D JUMP JUMPDEST SWAP2 POP POP SWAP3 SWAP2 POP POP JUMP JUMPDEST PUSH1 0x0 PUSH20 0xFFFFFFFFFFFFFFFFFFFFFFFFFFFFFFFFFFFFFFFF DUP3 AND SWAP1 POP SWAP2 SWAP1 POP JUMP JUMPDEST PUSH1 0x0 PUSH2 0x1EB8 DUP3 PUSH2 0x1E8D JUMP JUMPDEST SWAP1 POP SWAP2 SWAP1 POP JUMP JUMPDEST PUSH2 0x1EC8 DUP2 PUSH2 0x1EAD JUMP JUMPDEST DUP2 EQ PUSH2 0x1ED3 JUMPI PUSH1 0x0 DUP1 REVERT JUMPDEST POP JUMP JUMPDEST PUSH1 0x0 DUP2 CALLDATALOAD SWAP1 POP PUSH2 0x1EE5 DUP2 PUSH2 0x1EBF JUMP JUMPDEST SWAP3 SWAP2 POP POP JUMP JUMPDEST PUSH1 0x0 DUP1 PUSH1 0x40 DUP4 DUP6 SUB SLT ISZERO PUSH2 0x1F02 JUMPI PUSH2 0x1F01 PUSH2 0x1B44 JUMP JUMPDEST JUMPDEST PUSH1 0x0 DUP4 ADD CALLDATALOAD PUSH8 0xFFFFFFFFFFFFFFFF DUP2 GT ISZERO PUSH2 0x1F20 JUMPI PUSH2 0x1F1F PUSH2 0x1B49 JUMP JUMPDEST JUMPDEST PUSH2 0x1F2C DUP6 DUP3 DUP7 ADD PUSH2 0x1E5F JUMP JUMPDEST SWAP3 POP POP PUSH1 0x20 PUSH2 0x1F3D DUP6 DUP3 DUP7 ADD PUSH2 0x1ED6 JUMP JUMPDEST SWAP2 POP POP SWAP3 POP SWAP3 SWAP1 POP JUMP JUMPDEST PUSH2 0x1F50 DUP2 PUSH2 0x1EAD JUMP JUMPDEST DUP3 MSTORE POP POP JUMP JUMPDEST PUSH1 0x0 PUSH1 0x20 DUP3 ADD SWAP1 POP PUSH2 0x1F6B PUSH1 0x0 DUP4 ADD DUP5 PUSH2 0x1F47 JUMP JUMPDEST SWAP3 SWAP2 POP POP JUMP JUMPDEST PUSH1 0x0 PUSH1 0x20 DUP3 DUP5 SUB SLT ISZERO PUSH2 0x1F87 JUMPI PUSH2 0x1F86 PUSH2 0x1B44 JUMP JUMPDEST JUMPDEST PUSH1 0x0 PUSH2 0x1F95 DUP5 DUP3 DUP6 ADD PUSH2 0x1ED6 JUMP JUMPDEST SWAP2 POP POP SWAP3 SWAP2 POP POP JUMP JUMPDEST PUSH1 0x0 DUP2 MLOAD SWAP1 POP SWAP2 SWAP1 POP JUMP JUMPDEST PUSH1 0x0 DUP3 DUP3 MSTORE PUSH1 0x20 DUP3 ADD SWAP1 POP SWAP3 SWAP2 POP POP JUMP JUMPDEST PUSH1 0x0 JUMPDEST DUP4 DUP2 LT ISZERO PUSH2 0x1FD8 JUMPI DUP1 DUP3 ADD MLOAD DUP2 DUP5 ADD MSTORE PUSH1 0x20 DUP2 ADD SWAP1 POP PUSH2 0x1FBD JUMP JUMPDEST DUP4 DUP2 GT ISZERO PUSH2 0x1FE7 JUMPI PUSH1 0x0 DUP5 DUP5 ADD MSTORE JUMPDEST POP POP POP POP JUMP JUMPDEST PUSH1 0x0 PUSH2 0x1FF8 DUP3 PUSH2 0x1F9E JUMP JUMPDEST PUSH2 0x2002 DUP2 DUP6 PUSH2 0x1FA9 JUMP JUMPDEST SWAP4 POP PUSH2 0x2012 DUP2 DUP6 PUSH1 0x20 DUP7 ADD PUSH2 0x1FBA JUMP JUMPDEST PUSH2 0x201B DUP2 PUSH2 0x1BBC JUMP JUMPDEST DUP5 ADD SWAP2 POP POP SWAP3 SWAP2 POP POP JUMP JUMPDEST PUSH2 0x202F DUP2 PUSH2 0x1EAD JUMP JUMPDEST DUP3 MSTORE POP POP JUMP JUMPDEST PUSH2 0x203E DUP2 PUSH2 0x1DA2 JUMP JUMPDEST DUP3 MSTORE POP POP JUMP JUMPDEST PUSH1 0x0 PUSH1 0x60 DUP4 ADD PUSH1 0x0 DUP4 ADD MLOAD DUP5 DUP3 SUB PUSH1 0x0 DUP7 ADD MSTORE PUSH2 0x2061 DUP3 DUP3 PUSH2 0x1FED JUMP JUMPDEST SWAP2 POP POP PUSH1 0x20 DUP4 ADD MLOAD PUSH2 0x2076 PUSH1 0x20 DUP7 ADD DUP3 PUSH2 0x2026 JUMP JUMPDEST POP PUSH1 0x40 DUP4 ADD MLOAD PUSH2 0x2089 PUSH1 0x40 DUP7 ADD DUP3 PUSH2 0x2035 JUMP JUMPDEST POP DUP1 SWAP2 POP POP SWAP3 SWAP2 POP POP JUMP JUMPDEST PUSH1 0x0 PUSH1 0x20 DUP3 ADD SWAP1 POP DUP2 DUP2 SUB PUSH1 0x0 DUP4 ADD MSTORE PUSH2 0x20AE DUP2 DUP5 PUSH2 0x2044 JUMP JUMPDEST SWAP1 POP SWAP3 SWAP2 POP POP JUMP JUMPDEST PUSH1 0x0 DUP3 DUP3 MSTORE PUSH1 0x20 DUP3 ADD SWAP1 POP SWAP3 SWAP2 POP POP JUMP JUMPDEST PUSH32 0x5468697320636F6E747261637420697320646561637469766174656400000000 PUSH1 0x0 DUP3 ADD MSTORE POP JUMP JUMPDEST PUSH1 0x0 PUSH2 0x20FD PUSH1 0x1C DUP4 PUSH2 0x20B6 JUMP JUMPDEST SWAP2 POP PUSH2 0x2108 DUP3 PUSH2 0x20C7 JUMP JUMPDEST PUSH1 0x20 DUP3 ADD SWAP1 POP SWAP2 SWAP1 POP JUMP JUMPDEST PUSH1 0x0 PUSH1 0x20 DUP3 ADD SWAP1 POP DUP2 DUP2 SUB PUSH1 0x0 DUP4 ADD MSTORE PUSH2 0x212C DUP2 PUSH2 0x20F0 JUMP JUMPDEST SWAP1 POP SWAP2 SWAP1 POP JUMP JUMPDEST PUSH32 0x4F6E6C79207468652070726F636573732063616E206578656375746520746869 PUSH1 0x0 DUP3 ADD MSTORE PUSH32 0x73206F7065726174696F6E000000000000000000000000000000000000000000 PUSH1 0x20 DUP3 ADD MSTORE POP JUMP JUMPDEST PUSH1 0x0 PUSH2 0x218F PUSH1 0x2B DUP4 PUSH2 0x20B6 JUMP JUMPDEST SWAP2 POP PUSH2 0x219A DUP3 PUSH2 0x2133 JUMP JUMPDEST PUSH1 0x40 DUP3 ADD SWAP1 POP SWAP2 SWAP1 POP JUMP JUMPDEST PUSH1 0x0 PUSH1 0x20 DUP3 ADD SWAP1 POP DUP2 DUP2 SUB PUSH1 0x0 DUP4 ADD MSTORE PUSH2 0x21BE DUP2 PUSH2 0x2182 JUMP JUMPDEST SWAP1 POP SWAP2 SWAP1 POP JUMP JUMPDEST PUSH32 0x4E487B7100000000000000000000000000000000000000000000000000000000 PUSH1 0x0 MSTORE PUSH1 0x32 PUSH1 0x4 MSTORE PUSH1 0x24 PUSH1 0x0 REVERT JUMPDEST PUSH32 0x4F6E6C7920746865206170706C69636174696F6E2063616E2065786563757465 PUSH1 0x0 DUP3 ADD MSTORE PUSH32 0x2074686973206F7065726174696F6E0000000000000000000000000000000000 PUSH1 0x20 DUP3 ADD MSTORE POP JUMP JUMPDEST PUSH1 0x0 PUSH2 0x2250 PUSH1 0x2F DUP4 PUSH2 0x20B6 JUMP JUMPDEST SWAP2 POP PUSH2 0x225B DUP3 PUSH2 0x21F4 JUMP JUMPDEST PUSH1 0x40 DUP3 ADD SWAP1 POP SWAP2 SWAP1 POP JUMP JUMPDEST PUSH1 0x0 PUSH1 0x20 DUP3 ADD SWAP1 POP DUP2 DUP2 SUB PUSH1 0x0 DUP4 ADD MSTORE PUSH2 0x227F DUP2 PUSH2 0x2243 JUMP JUMPDEST SWAP1 POP SWAP2 SWAP1 POP JUMP JUMPDEST PUSH32 0x4E487B7100000000000000000000000000000000000000000000000000000000 PUSH1 0x0 MSTORE PUSH1 0x22 PUSH1 0x4 MSTORE PUSH1 0x24 PUSH1 0x0 REVERT JUMPDEST PUSH1 0x0 PUSH1 0x2 DUP3 DIV SWAP1 POP PUSH1 0x1 DUP3 AND DUP1 PUSH2 0x22CD JUMPI PUSH1 0x7F DUP3 AND SWAP2 POP JUMPDEST PUSH1 0x20 DUP3 LT DUP2 EQ ISZERO PUSH2 0x22E1 JUMPI PUSH2 0x22E0 PUSH2 0x2286 JUMP JUMPDEST JUMPDEST POP SWAP2 SWAP1 POP JUMP JUMPDEST PUSH32 0x546865204170706C69636174696F6E2070617274792073686F756C6420736967 PUSH1 0x0 DUP3 ADD MSTORE PUSH32 0x6E2074686520636F6E7472616374206265666F726520696E7465726163742077 PUSH1 0x20 DUP3 ADD MSTORE PUSH32 0x6974682069742E00000000000000000000000000000000000000000000000000 PUSH1 0x40 DUP3 ADD MSTORE POP JUMP JUMPDEST PUSH1 0x0 PUSH2 0x2369 PUSH1 0x47 DUP4 PUSH2 0x20B6 JUMP JUMPDEST SWAP2 POP PUSH2 0x2374 DUP3 PUSH2 0x22E7 JUMP JUMPDEST PUSH1 0x60 DUP3 ADD SWAP1 POP SWAP2 SWAP1 POP JUMP JUMPDEST PUSH1 0x0 PUSH1 0x20 DUP3 ADD SWAP1 POP DUP2 DUP2 SUB PUSH1 0x0 DUP4 ADD MSTORE PUSH2 0x2398 DUP2 PUSH2 0x235C JUMP JUMPDEST SWAP1 POP SWAP2 SWAP1 POP JUMP JUMPDEST PUSH32 0x5375636365737366756C20657865637574696F6E210000000000000000000000 PUSH1 0x0 DUP3 ADD MSTORE POP JUMP JUMPDEST PUSH1 0x0 PUSH2 0x23D5 PUSH1 0x15 DUP4 PUSH2 0x20B6 JUMP JUMPDEST SWAP2 POP PUSH2 0x23E0 DUP3 PUSH2 0x239F JUMP JUMPDEST PUSH1 0x20 DUP3 ADD SWAP1 POP SWAP2 SWAP1 POP JUMP JUMPDEST PUSH1 0x0 PUSH1 0x20 DUP3 ADD SWAP1 POP DUP2 DUP2 SUB PUSH1 0x0 DUP4 ADD MSTORE PUSH2 0x2404 DUP2 PUSH2 0x23C8 JUMP JUMPDEST SWAP1 POP SWAP2 SWAP1 POP JUMP JUMPDEST PUSH32 0x52657175657374206D616465206F757473696465206F6620616C6C6F77656420 PUSH1 0x0 DUP3 ADD MSTORE PUSH32 0x686F757273206F7220627564676574204964206D697373696E67000000000000 PUSH1 0x20 DUP3 ADD MSTORE POP JUMP JUMPDEST PUSH1 0x0 PUSH2 0x2467 PUSH1 0x3A DUP4 PUSH2 0x20B6 JUMP JUMPDEST SWAP2 POP PUSH2 0x2472 DUP3 PUSH2 0x240B JUMP JUMPDEST PUSH1 0x40 DUP3 ADD SWAP1 POP SWAP2 SWAP1 POP JUMP JUMPDEST PUSH1 0x0 PUSH1 0x20 DUP3 ADD SWAP1 POP DUP2 DUP2 SUB PUSH1 0x0 DUP4 ADD MSTORE PUSH2 0x2496 DUP2 PUSH2 0x245A JUMP JUMPDEST SWAP1 POP SWAP2 SWAP1 POP JUMP JUMPDEST PUSH32 0x4F6E6C79207468652070726F63657373206F7220746865206170706C69636174 PUSH1 0x0 DUP3 ADD MSTORE PUSH32 0x696F6E2063616E20657865637574652074686973206F7065726174696F6E0000 PUSH1 0x20 DUP3 ADD MSTORE POP JUMP JUMPDEST PUSH1 0x0 PUSH2 0x24F9 PUSH1 0x3E DUP4 PUSH2 0x20B6 JUMP JUMPDEST SWAP2 POP PUSH2 0x2504 DUP3 PUSH2 0x249D JUMP JUMPDEST PUSH1 0x40 DUP3 ADD SWAP1 POP SWAP2 SWAP1 POP JUMP JUMPDEST PUSH1 0x0 PUSH1 0x20 DUP3 ADD SWAP1 POP DUP2 DUP2 SUB PUSH1 0x0 DUP4 ADD MSTORE PUSH2 0x2528 DUP2 PUSH2 0x24EC JUMP JUMPDEST SWAP1 POP SWAP2 SWAP1 POP JUMP JUMPDEST PUSH32 0x54686520636F6E747261637420697320616C7265616479207369676E65640000 PUSH1 0x0 DUP3 ADD MSTORE POP JUMP JUMPDEST PUSH1 0x0 PUSH2 0x2565 PUSH1 0x1E DUP4 PUSH2 0x20B6 JUMP JUMPDEST SWAP2 POP PUSH2 0x2570 DUP3 PUSH2 0x252F JUMP JUMPDEST PUSH1 0x20 DUP3 ADD SWAP1 POP SWAP2 SWAP1 POP JUMP JUMPDEST PUSH1 0x0 PUSH1 0x20 DUP3 ADD SWAP1 POP DUP2 DUP2 SUB PUSH1 0x0 DUP4 ADD MSTORE PUSH2 0x2594 DUP2 PUSH2 0x2558 JUMP JUMPDEST SWAP1 POP SWAP2 SWAP1 POP JUMP JUMPDEST PUSH32 0x4E487B7100000000000000000000000000000000000000000000000000000000 PUSH1 0x0 MSTORE PUSH1 0x11 PUSH1 0x4 MSTORE PUSH1 0x24 PUSH1 0x0 REVERT JUMPDEST PUSH1 0x0 PUSH2 0x25D5 DUP3 PUSH2 0x1B4E JUMP JUMPDEST SWAP2 POP PUSH2 0x25E0 DUP4 PUSH2 0x1B4E JUMP JUMPDEST SWAP3 POP DUP3 PUSH4 0xFFFFFFFF SUB DUP3 GT ISZERO PUSH2 0x25F9 JUMPI PUSH2 0x25F8 PUSH2 0x259B JUMP JUMPDEST JUMPDEST DUP3 DUP3 ADD SWAP1 POP SWAP3 SWAP2 POP POP JUMP JUMPDEST PUSH32 0x5468657265206973206E6F20656E6454696D652073657420696E2074696D656F PUSH1 0x0 DUP3 ADD MSTORE PUSH32 0x7574000000000000000000000000000000000000000000000000000000000000 PUSH1 0x20 DUP3 ADD MSTORE POP JUMP JUMPDEST PUSH1 0x0 PUSH2 0x2660 PUSH1 0x22 DUP4 PUSH2 0x20B6 JUMP JUMPDEST SWAP2 POP PUSH2 0x266B DUP3 PUSH2 0x2604 JUMP JUMPDEST PUSH1 0x40 DUP3 ADD SWAP1 POP SWAP2 SWAP1 POP JUMP JUMPDEST PUSH1 0x0 PUSH1 0x20 DUP3 ADD SWAP1 POP DUP2 DUP2 SUB PUSH1 0x0 DUP4 ADD MSTORE PUSH2 0x268F DUP2 PUSH2 0x2653 JUMP JUMPDEST SWAP1 POP SWAP2 SWAP1 POP JUMP JUMPDEST PUSH32 0x436F6D70617269736F6E2073796D626F6C206973206E6F742076616C69640000 PUSH1 0x0 DUP3 ADD MSTORE POP JUMP JUMPDEST PUSH1 0x0 PUSH2 0x26CC PUSH1 0x1E DUP4 PUSH2 0x20B6 JUMP JUMPDEST SWAP2 POP PUSH2 0x26D7 DUP3 PUSH2 0x2696 JUMP JUMPDEST PUSH1 0x20 DUP3 ADD SWAP1 POP SWAP2 SWAP1 POP JUMP JUMPDEST PUSH1 0x0 PUSH1 0x20 DUP3 ADD SWAP1 POP DUP2 DUP2 SUB PUSH1 0x0 DUP4 ADD MSTORE PUSH2 0x26FB DUP2 PUSH2 0x26BF JUMP JUMPDEST SWAP1 POP SWAP2 SWAP1 POP JUMP JUMPDEST PUSH1 0x0 DUP2 SWAP1 POP SWAP2 SWAP1 POP JUMP JUMPDEST PUSH1 0x0 PUSH2 0x2717 DUP3 PUSH2 0x2702 JUMP JUMPDEST SWAP2 POP PUSH32 0xFFFFFFFFFFFFFFFFFFFFFFFFFFFFFFFFFFFFFFFFFFFFFFFFFFFFFFFFFFFFFFFF DUP3 EQ ISZERO PUSH2 0x274A JUMPI PUSH2 0x2749 PUSH2 0x259B JUMP JUMPDEST JUMPDEST PUSH1 0x1 DUP3 ADD SWAP1 POP SWAP2 SWAP1 POP JUMP JUMPDEST PUSH32 0x4E487B7100000000000000000000000000000000000000000000000000000000 PUSH1 0x0 MSTORE PUSH1 0x12 PUSH1 0x4 MSTORE PUSH1 0x24 PUSH1 0x0 REVERT JUMPDEST PUSH1 0x0 PUSH2 0x278F DUP3 PUSH2 0x2702 JUMP JUMPDEST SWAP2 POP PUSH2 0x279A DUP4 PUSH2 0x2702 JUMP JUMPDEST SWAP3 POP DUP3 PUSH2 0x27AA JUMPI PUSH2 0x27A9 PUSH2 0x2755 JUMP JUMPDEST JUMPDEST DUP3 DUP3 DIV SWAP1 POP SWAP3 SWAP2 POP POP JUMP JUMPDEST PUSH1 0x0 PUSH2 0x27C0 DUP3 PUSH2 0x2702 JUMP JUMPDEST SWAP2 POP PUSH2 0x27CB DUP4 PUSH2 0x2702 JUMP JUMPDEST SWAP3 POP DUP3 DUP3 LT ISZERO PUSH2 0x27DE JUMPI PUSH2 0x27DD PUSH2 0x259B JUMP JUMPDEST JUMPDEST DUP3 DUP3 SUB SWAP1 POP SWAP3 SWAP2 POP POP JUMP JUMPDEST PUSH1 0x0 PUSH2 0x27F4 DUP3 PUSH2 0x2702 JUMP JUMPDEST SWAP2 POP PUSH2 0x27FF DUP4 PUSH2 0x2702 JUMP JUMPDEST SWAP3 POP DUP3 PUSH2 0x280F JUMPI PUSH2 0x280E PUSH2 0x2755 JUMP JUMPDEST JUMPDEST DUP3 DUP3 MOD SWAP1 POP SWAP3 SWAP2 POP POP JUMP JUMPDEST PUSH1 0x0 PUSH2 0x2825 DUP3 PUSH2 0x2702 JUMP JUMPDEST SWAP2 POP PUSH2 0x2830 DUP4 PUSH2 0x2702 JUMP JUMPDEST SWAP3 POP DUP3 PUSH32 0xFFFFFFFFFFFFFFFFFFFFFFFFFFFFFFFFFFFFFFFFFFFFFFFFFFFFFFFFFFFFFFFF SUB DUP3 GT ISZERO PUSH2 0x2865 JUMPI PUSH2 0x2864 PUSH2 0x259B JUMP JUMPDEST JUMPDEST DUP3 DUP3 ADD SWAP1 POP SWAP3 SWAP2 POP POP JUMP INVALID LOG2 PUSH5 0x6970667358 0x22 SLT KECCAK256 PUSH20 0x82FA6C68A8BBD9CCB915653B9F92CDA637F6460B 0xAF 0xE CALLER 0xF6 MLOAD SGT XOR PUSH30 0x587FBA64736F6C6343000809003300000000000000000000000000000000 "
				},
				"gasEstimates": {
					"creation": {
						"codeDepositCost": "2081200",
						"executionCost": "infinite",
						"totalCost": "infinite"
					},
					"external": {
						"activateContract()": "30940",
						"changeApplicationParty(string,address)": "infinite",
						"deactivateContract()": "30984",
						"getApplicationAddress()": "9105",
						"getParty(address)": "infinite",
						"getProcessAddress()": "9038",
						"onlyForTest(uint32)": "infinite",
						"responderOrder(uint32,int256[])": "infinite",
						"signContract()": "infinite"
					},
					"internal": {
						"updateMapParty(address,struct EAI.Party storage pointer)": "infinite"
					}
				},
				"methodIdentifiers": {
					"activateContract()": "8fda356d",
					"changeApplicationParty(string,address)": "5e744c6a",
					"deactivateContract()": "bca353be",
					"getApplicationAddress()": "70d8915a",
					"getParty(address)": "fb6f8243",
					"getProcessAddress()": "85931911",
					"onlyForTest(uint32)": "1e900392",
					"responderOrder(uint32,int256[])": "3bbd6e54",
					"signContract()": "b8b4f1a0"
				}
			},
			"storageLayout": {
				"storage": [
					{
						"astId": 2100,
						"contract": "contracts/study-case-contracts/001-delivery-hiring/DeliveryHiring_O.sol:DeliveryHiring_O",
						"label": "activated",
						"offset": 0,
						"slot": "0",
						"type": "t_bool"
					},
					{
						"astId": 2102,
						"contract": "contracts/study-case-contracts/001-delivery-hiring/DeliveryHiring_O.sol:DeliveryHiring_O",
						"label": "beginDate",
						"offset": 1,
						"slot": "0",
						"type": "t_uint32"
					},
					{
						"astId": 2104,
						"contract": "contracts/study-case-contracts/001-delivery-hiring/DeliveryHiring_O.sol:DeliveryHiring_O",
						"label": "dueDate",
						"offset": 5,
						"slot": "0",
						"type": "t_uint32"
					},
					{
						"astId": 2111,
						"contract": "contracts/study-case-contracts/001-delivery-hiring/DeliveryHiring_O.sol:DeliveryHiring_O",
						"label": "application",
						"offset": 0,
						"slot": "1",
						"type": "t_struct(Party)75_storage"
					},
					{
						"astId": 2114,
						"contract": "contracts/study-case-contracts/001-delivery-hiring/DeliveryHiring_O.sol:DeliveryHiring_O",
						"label": "process",
						"offset": 0,
						"slot": "3",
						"type": "t_struct(Party)75_storage"
					},
					{
						"astId": 2119,
						"contract": "contracts/study-case-contracts/001-delivery-hiring/DeliveryHiring_O.sol:DeliveryHiring_O",
						"label": "mapParty",
						"offset": 0,
						"slot": "5",
						"type": "t_mapping(t_address,t_struct(Party)75_storage)"
					},
					{
						"astId": 2139,
						"contract": "contracts/study-case-contracts/001-delivery-hiring/DeliveryHiring_O.sol:DeliveryHiring_O",
						"label": "timeout_C1",
						"offset": 0,
						"slot": "6",
						"type": "t_array(t_struct(Timeout)604_storage)dyn_storage"
					},
					{
						"astId": 2143,
						"contract": "contracts/study-case-contracts/001-delivery-hiring/DeliveryHiring_O.sol:DeliveryHiring_O",
						"label": "messageContent_C1",
						"offset": 0,
						"slot": "7",
						"type": "t_array(t_struct(MessageContent_Number)1098_storage)dyn_storage"
					}
				],
				"types": {
					"t_address": {
						"encoding": "inplace",
						"label": "address",
						"numberOfBytes": "20"
					},
					"t_array(t_struct(MessageContent_Number)1098_storage)dyn_storage": {
						"base": "t_struct(MessageContent_Number)1098_storage",
						"encoding": "dynamic_array",
						"label": "struct EAI.MessageContent_Number[]",
						"numberOfBytes": "32"
					},
					"t_array(t_struct(Timeout)604_storage)dyn_storage": {
						"base": "t_struct(Timeout)604_storage",
						"encoding": "dynamic_array",
						"label": "struct EAI.Timeout[]",
						"numberOfBytes": "32"
					},
					"t_bool": {
						"encoding": "inplace",
						"label": "bool",
						"numberOfBytes": "1"
					},
					"t_int256": {
						"encoding": "inplace",
						"label": "int256",
						"numberOfBytes": "32"
					},
					"t_mapping(t_address,t_struct(Party)75_storage)": {
						"encoding": "mapping",
						"key": "t_address",
						"label": "mapping(address => struct EAI.Party)",
						"numberOfBytes": "32",
						"value": "t_struct(Party)75_storage"
					},
					"t_string_storage": {
						"encoding": "bytes",
						"label": "string",
						"numberOfBytes": "32"
					},
					"t_struct(MessageContent_Number)1098_storage": {
						"encoding": "inplace",
						"label": "struct EAI.MessageContent_Number",
						"members": [
							{
								"astId": 1093,
								"contract": "contracts/study-case-contracts/001-delivery-hiring/DeliveryHiring_O.sol:DeliveryHiring_O",
								"label": "xpath",
								"offset": 0,
								"slot": "0",
								"type": "t_string_storage"
							},
							{
								"astId": 1095,
								"contract": "contracts/study-case-contracts/001-delivery-hiring/DeliveryHiring_O.sol:DeliveryHiring_O",
								"label": "op",
								"offset": 0,
								"slot": "1",
								"type": "t_string_storage"
							},
							{
								"astId": 1097,
								"contract": "contracts/study-case-contracts/001-delivery-hiring/DeliveryHiring_O.sol:DeliveryHiring_O",
								"label": "content",
								"offset": 0,
								"slot": "2",
								"type": "t_int256"
							}
						],
						"numberOfBytes": "96"
					},
					"t_struct(Party)75_storage": {
						"encoding": "inplace",
						"label": "struct EAI.Party",
						"members": [
							{
								"astId": 70,
								"contract": "contracts/study-case-contracts/001-delivery-hiring/DeliveryHiring_O.sol:DeliveryHiring_O",
								"label": "name",
								"offset": 0,
								"slot": "0",
								"type": "t_string_storage"
							},
							{
								"astId": 72,
								"contract": "contracts/study-case-contracts/001-delivery-hiring/DeliveryHiring_O.sol:DeliveryHiring_O",
								"label": "walletAddress",
								"offset": 0,
								"slot": "1",
								"type": "t_address"
							},
							{
								"astId": 74,
								"contract": "contracts/study-case-contracts/001-delivery-hiring/DeliveryHiring_O.sol:DeliveryHiring_O",
								"label": "aware",
								"offset": 20,
								"slot": "1",
								"type": "t_bool"
							}
						],
						"numberOfBytes": "64"
					},
					"t_struct(Timeout)604_storage": {
						"encoding": "inplace",
						"label": "struct EAI.Timeout",
						"members": [
							{
								"astId": 601,
								"contract": "contracts/study-case-contracts/001-delivery-hiring/DeliveryHiring_O.sol:DeliveryHiring_O",
								"label": "endTime",
								"offset": 0,
								"slot": "0",
								"type": "t_uint32"
							},
							{
								"astId": 603,
								"contract": "contracts/study-case-contracts/001-delivery-hiring/DeliveryHiring_O.sol:DeliveryHiring_O",
								"label": "timeIncrement",
								"offset": 4,
								"slot": "0",
								"type": "t_uint32"
							}
						],
						"numberOfBytes": "32"
					},
					"t_uint32": {
						"encoding": "inplace",
						"label": "uint32",
						"numberOfBytes": "4"
					}
				}
			},
			"userdoc": {
				"kind": "user",
				"methods": {},
				"version": 1
			}
		}
	}
}