{
	"contracts/lib/referencesCode-eai/Party_refCod.sol": {
		"Party_refCod": {
			"abi": [
				{
					"inputs": [
						{
							"internalType": "address",
							"name": "_applicationAddress",
							"type": "address"
						}
					],
					"stateMutability": "nonpayable",
					"type": "constructor"
				},
				{
					"inputs": [
						{
							"internalType": "string",
							"name": "_name",
							"type": "string"
						},
						{
							"internalType": "address",
							"name": "_walletAddress",
							"type": "address"
						}
					],
					"name": "changeApplicationParty",
					"outputs": [
						{
							"internalType": "bool",
							"name": "",
							"type": "bool"
						}
					],
					"stateMutability": "nonpayable",
					"type": "function"
				},
				{
					"inputs": [],
					"name": "getApplicationAddress",
					"outputs": [
						{
							"internalType": "address",
							"name": "",
							"type": "address"
						}
					],
					"stateMutability": "view",
					"type": "function"
				},
				{
					"inputs": [
						{
							"internalType": "address",
							"name": "_walletAddress",
							"type": "address"
						}
					],
					"name": "getParty",
					"outputs": [
						{
							"components": [
								{
									"internalType": "string",
									"name": "name",
									"type": "string"
								},
								{
									"internalType": "address",
									"name": "walletAddress",
									"type": "address"
								},
								{
									"internalType": "bool",
									"name": "aware",
									"type": "bool"
								}
							],
							"internalType": "struct EAI.Party",
							"name": "",
							"type": "tuple"
						}
					],
					"stateMutability": "view",
					"type": "function"
				},
				{
					"inputs": [],
					"name": "getProcessAddress",
					"outputs": [
						{
							"internalType": "address",
							"name": "",
							"type": "address"
						}
					],
					"stateMutability": "view",
					"type": "function"
				},
				{
					"inputs": [
						{
							"internalType": "address",
							"name": "",
							"type": "address"
						}
					],
					"name": "mapParty",
					"outputs": [
						{
							"internalType": "string",
							"name": "name",
							"type": "string"
						},
						{
							"internalType": "address",
							"name": "walletAddress",
							"type": "address"
						},
						{
							"internalType": "bool",
							"name": "aware",
							"type": "bool"
						}
					],
					"stateMutability": "view",
					"type": "function"
				},
				{
					"inputs": [],
					"name": "signContract",
					"outputs": [],
					"stateMutability": "nonpayable",
					"type": "function"
				}
			],
			"devdoc": {
				"kind": "dev",
				"methods": {},
				"version": 1
			},
			"evm": {
				"assembly": "    /* \"contracts/lib/referencesCode-eai/Party_refCod.sol\":134:3003  contract Party_refCod{    \r... */\n  mstore(0x40, 0x80)\n    /* \"contracts/lib/referencesCode-eai/Party_refCod.sol\":304:604  constructor(address _applicationAddress){\r... */\n  callvalue\n  dup1\n  iszero\n  tag_1\n  jumpi\n  0x00\n  dup1\n  revert\ntag_1:\n  pop\n  mload(0x40)\n  sub(codesize, bytecodeSize)\n  dup1\n  bytecodeSize\n  dup4\n  codecopy\n  dup2\n  dup2\n  add\n  0x40\n  mstore\n  dup2\n  add\n  swap1\n  tag_2\n  swap2\n  swap1\n  tag_3\n  jump\t// in\ntag_2:\n    /* \"contracts/lib/referencesCode-eai/Party_refCod.sol\":362:410  EAI.createParty(\"processName\", msg.sender, true) */\n  tag_6\n  mload(0x40)\n  dup1\n  0x40\n  add\n  0x40\n  mstore\n  dup1\n  0x0b\n  dup2\n  mstore\n  0x20\n  add\n  0x70726f636573734e616d65000000000000000000000000000000000000000000\n  dup2\n  mstore\n  pop\n    /* \"contracts/lib/referencesCode-eai/Party_refCod.sol\":393:403  msg.sender */\n  caller\n    /* \"contracts/lib/referencesCode-eai/Party_refCod.sol\":405:409  true */\n  0x01\n    /* \"contracts/lib/referencesCode-eai/Party_refCod.sol\":362:377  EAI.createParty */\n  or(tag_0_35, shl(0x20, tag_7))\n    /* \"contracts/lib/referencesCode-eai/Party_refCod.sol\":362:410  EAI.createParty(\"processName\", msg.sender, true) */\n  0x20\n  shr\n  jump\t// in\ntag_6:\n    /* \"contracts/lib/referencesCode-eai/Party_refCod.sol\":352:359  process */\n  0x00\n    /* \"contracts/lib/referencesCode-eai/Party_refCod.sol\":352:410  process = EAI.createParty(\"processName\", msg.sender, true) */\n  dup1\n  dup3\n  add\n  mload\n  dup2\n  0x00\n  add\n  swap1\n  dup1\n  mload\n  swap1\n  0x20\n  add\n  swap1\n  tag_8\n  swap3\n  swap2\n  swap1\n  tag_9\n  jump\t// in\ntag_8:\n  pop\n  0x20\n  dup3\n  add\n  mload\n  dup2\n  0x01\n  add\n  exp(0x0100, 0x00)\n  dup2\n  sload\n  dup2\n  0xffffffffffffffffffffffffffffffffffffffff\n  mul\n  not\n  and\n  swap1\n  dup4\n  0xffffffffffffffffffffffffffffffffffffffff\n  and\n  mul\n  or\n  swap1\n  sstore\n  pop\n  0x40\n  dup3\n  add\n  mload\n  dup2\n  0x01\n  add\n  exp(0x0100, 0x14)\n  dup2\n  sload\n  dup2\n  0xff\n  mul\n  not\n  and\n  swap1\n  dup4\n  iszero\n  iszero\n  mul\n  or\n  swap1\n  sstore\n  pop\n  swap1\n  pop\n  pop\n    /* \"contracts/lib/referencesCode-eai/Party_refCod.sol\":432:494  EAI.createParty(\"applicationName\", _applicationAddress, false) */\n  tag_10\n  mload(0x40)\n  dup1\n  0x40\n  add\n  0x40\n  mstore\n  dup1\n  0x0f\n  dup2\n  mstore\n  0x20\n  add\n  0x6170706c69636174696f6e4e616d650000000000000000000000000000000000\n  dup2\n  mstore\n  pop\n    /* \"contracts/lib/referencesCode-eai/Party_refCod.sol\":467:486  _applicationAddress */\n  dup3\n    /* \"contracts/lib/referencesCode-eai/Party_refCod.sol\":488:493  false */\n  0x00\n    /* \"contracts/lib/referencesCode-eai/Party_refCod.sol\":432:447  EAI.createParty */\n  or(tag_0_35, shl(0x20, tag_7))\n    /* \"contracts/lib/referencesCode-eai/Party_refCod.sol\":432:494  EAI.createParty(\"applicationName\", _applicationAddress, false) */\n  0x20\n  shr\n  jump\t// in\ntag_10:\n    /* \"contracts/lib/referencesCode-eai/Party_refCod.sol\":418:429  application */\n  0x02\n    /* \"contracts/lib/referencesCode-eai/Party_refCod.sol\":418:494  application = EAI.createParty(\"applicationName\", _applicationAddress, false) */\n  0x00\n  dup3\n  add\n  mload\n  dup2\n  0x00\n  add\n  swap1\n  dup1\n  mload\n  swap1\n  0x20\n  add\n  swap1\n  tag_11\n  swap3\n  swap2\n  swap1\n  tag_9\n  jump\t// in\ntag_11:\n  pop\n  0x20\n  dup3\n  add\n  mload\n  dup2\n  0x01\n  add\n  exp(0x0100, 0x00)\n  dup2\n  sload\n  dup2\n  0xffffffffffffffffffffffffffffffffffffffff\n  mul\n  not\n  and\n  swap1\n  dup4\n  0xffffffffffffffffffffffffffffffffffffffff\n  and\n  mul\n  or\n  swap1\n  sstore\n  pop\n  0x40\n  dup3\n  add\n  mload\n  dup2\n  0x01\n  add\n  exp(0x0100, 0x14)\n  dup2\n  sload\n  dup2\n  0xff\n  mul\n  not\n  and\n  swap1\n  dup4\n  iszero\n  iszero\n  mul\n  or\n  swap1\n  sstore\n  pop\n  swap1\n  pop\n  pop\n    /* \"contracts/lib/referencesCode-eai/Party_refCod.sol\":536:543  process */\n  0x00\n    /* \"contracts/lib/referencesCode-eai/Party_refCod.sol\":513:521  mapParty */\n  0x04\n    /* \"contracts/lib/referencesCode-eai/Party_refCod.sol\":513:533  mapParty[msg.sender] */\n  0x00\n    /* \"contracts/lib/referencesCode-eai/Party_refCod.sol\":522:532  msg.sender */\n  caller\n    /* \"contracts/lib/referencesCode-eai/Party_refCod.sol\":513:533  mapParty[msg.sender] */\n  0xffffffffffffffffffffffffffffffffffffffff\n  and\n  0xffffffffffffffffffffffffffffffffffffffff\n  and\n  dup2\n  mstore\n  0x20\n  add\n  swap1\n  dup2\n  mstore\n  0x20\n  add\n  0x00\n  keccak256\n    /* \"contracts/lib/referencesCode-eai/Party_refCod.sol\":513:543  mapParty[msg.sender] = process */\n  0x00\n  dup3\n  add\n  dup2\n  0x00\n  add\n  swap1\n  dup1\n  sload\n  tag_12\n  swap1\n  tag_13\n  jump\t// in\ntag_12:\n  tag_14\n  swap3\n  swap2\n  swap1\n  tag_15\n  jump\t// in\ntag_14:\n  pop\n  0x01\n  dup3\n  add\n  0x00\n  swap1\n  sload\n  swap1\n  0x0100\n  exp\n  swap1\n  div\n  0xffffffffffffffffffffffffffffffffffffffff\n  and\n  dup2\n  0x01\n  add\n  exp(0x0100, 0x00)\n  dup2\n  sload\n  dup2\n  0xffffffffffffffffffffffffffffffffffffffff\n  mul\n  not\n  and\n  swap1\n  dup4\n  0xffffffffffffffffffffffffffffffffffffffff\n  and\n  mul\n  or\n  swap1\n  sstore\n  pop\n  0x01\n  dup3\n  add\n  0x14\n  swap1\n  sload\n  swap1\n  0x0100\n  exp\n  swap1\n  div\n  0xff\n  and\n  dup2\n  0x01\n  add\n  exp(0x0100, 0x14)\n  dup2\n  sload\n  dup2\n  0xff\n  mul\n  not\n  and\n  swap1\n  dup4\n  iszero\n  iszero\n  mul\n  or\n  swap1\n  sstore\n  pop\n  swap1\n  pop\n  pop\n    /* \"contracts/lib/referencesCode-eai/Party_refCod.sol\":586:597  application */\n  0x02\n    /* \"contracts/lib/referencesCode-eai/Party_refCod.sol\":554:562  mapParty */\n  0x04\n    /* \"contracts/lib/referencesCode-eai/Party_refCod.sol\":554:583  mapParty[_applicationAddress] */\n  0x00\n    /* \"contracts/lib/referencesCode-eai/Party_refCod.sol\":563:582  _applicationAddress */\n  dup4\n    /* \"contracts/lib/referencesCode-eai/Party_refCod.sol\":554:583  mapParty[_applicationAddress] */\n  0xffffffffffffffffffffffffffffffffffffffff\n  and\n  0xffffffffffffffffffffffffffffffffffffffff\n  and\n  dup2\n  mstore\n  0x20\n  add\n  swap1\n  dup2\n  mstore\n  0x20\n  add\n  0x00\n  keccak256\n    /* \"contracts/lib/referencesCode-eai/Party_refCod.sol\":554:597  mapParty[_applicationAddress] = application */\n  0x00\n  dup3\n  add\n  dup2\n  0x00\n  add\n  swap1\n  dup1\n  sload\n  tag_16\n  swap1\n  tag_13\n  jump\t// in\ntag_16:\n  tag_17\n  swap3\n  swap2\n  swap1\n  tag_15\n  jump\t// in\ntag_17:\n  pop\n  0x01\n  dup3\n  add\n  0x00\n  swap1\n  sload\n  swap1\n  0x0100\n  exp\n  swap1\n  div\n  0xffffffffffffffffffffffffffffffffffffffff\n  and\n  dup2\n  0x01\n  add\n  exp(0x0100, 0x00)\n  dup2\n  sload\n  dup2\n  0xffffffffffffffffffffffffffffffffffffffff\n  mul\n  not\n  and\n  swap1\n  dup4\n  0xffffffffffffffffffffffffffffffffffffffff\n  and\n  mul\n  or\n  swap1\n  sstore\n  pop\n  0x01\n  dup3\n  add\n  0x14\n  swap1\n  sload\n  swap1\n  0x0100\n  exp\n  swap1\n  div\n  0xff\n  and\n  dup2\n  0x01\n  add\n  exp(0x0100, 0x14)\n  dup2\n  sload\n  dup2\n  0xff\n  mul\n  not\n  and\n  swap1\n  dup4\n  iszero\n  iszero\n  mul\n  or\n  swap1\n  sstore\n  pop\n  swap1\n  pop\n  pop\n    /* \"contracts/lib/referencesCode-eai/Party_refCod.sol\":304:604  constructor(address _applicationAddress){\r... */\n  pop\n    /* \"contracts/lib/referencesCode-eai/Party_refCod.sol\":134:3003  contract Party_refCod{    \r... */\n  jump(tag_18)\n    /* \"contracts/lib/eai/EAI.sol\":1591:1767  function createParty(string memory _name, address _walletAddress, bool _aware) internal pure returns(Party memory){\r... */\ntag_7:\n    /* \"contracts/lib/eai/EAI.sol\":1692:1704  Party memory */\n  tag_19\n  tag_20\n  jump\t// in\ntag_19:\n    /* \"contracts/lib/eai/EAI.sol\":1723:1759  Party(_name, _walletAddress, _aware) */\n  mload(0x40)\n  dup1\n  0x60\n  add\n  0x40\n  mstore\n  dup1\n    /* \"contracts/lib/eai/EAI.sol\":1729:1734  _name */\n  dup6\n    /* \"contracts/lib/eai/EAI.sol\":1723:1759  Party(_name, _walletAddress, _aware) */\n  dup2\n  mstore\n  0x20\n  add\n    /* \"contracts/lib/eai/EAI.sol\":1736:1750  _walletAddress */\n  dup5\n    /* \"contracts/lib/eai/EAI.sol\":1723:1759  Party(_name, _walletAddress, _aware) */\n  0xffffffffffffffffffffffffffffffffffffffff\n  and\n  dup2\n  mstore\n  0x20\n  add\n    /* \"contracts/lib/eai/EAI.sol\":1752:1758  _aware */\n  dup4\n    /* \"contracts/lib/eai/EAI.sol\":1723:1759  Party(_name, _walletAddress, _aware) */\n  iszero\n  iszero\n  dup2\n  mstore\n  pop\n    /* \"contracts/lib/eai/EAI.sol\":1716:1759  return Party(_name, _walletAddress, _aware) */\n  swap1\n  pop\n    /* \"contracts/lib/eai/EAI.sol\":1591:1767  function createParty(string memory _name, address _walletAddress, bool _aware) internal pure returns(Party memory){\r... */\n  swap4\n  swap3\n  pop\n  pop\n  pop\n  jump\t// out\n    /* \"contracts/lib/referencesCode-eai/Party_refCod.sol\":134:3003  contract Party_refCod{    \r... */\ntag_9:\n  dup3\n  dup1\n  sload\n  tag_22\n  swap1\n  tag_13\n  jump\t// in\ntag_22:\n  swap1\n  0x00\n  mstore\n  keccak256(0x00, 0x20)\n  swap1\n  0x1f\n  add\n  0x20\n  swap1\n  div\n  dup2\n  add\n  swap3\n  dup3\n  tag_24\n  jumpi\n  0x00\n  dup6\n  sstore\n  jump(tag_23)\ntag_24:\n  dup3\n  0x1f\n  lt\n  tag_25\n  jumpi\n  dup1\n  mload\n  not(0xff)\n  and\n  dup4\n  dup1\n  add\n  or\n  dup6\n  sstore\n  jump(tag_23)\ntag_25:\n  dup3\n  dup1\n  add\n  0x01\n  add\n  dup6\n  sstore\n  dup3\n  iszero\n  tag_23\n  jumpi\n  swap2\n  dup3\n  add\ntag_26:\n  dup3\n  dup2\n  gt\n  iszero\n  tag_27\n  jumpi\n  dup3\n  mload\n  dup3\n  sstore\n  swap2\n  0x20\n  add\n  swap2\n  swap1\n  0x01\n  add\n  swap1\n  jump(tag_26)\ntag_27:\ntag_23:\n  pop\n  swap1\n  pop\n  tag_28\n  swap2\n  swap1\n  tag_29\n  jump\t// in\ntag_28:\n  pop\n  swap1\n  jump\t// out\ntag_15:\n  dup3\n  dup1\n  sload\n  tag_30\n  swap1\n  tag_13\n  jump\t// in\ntag_30:\n  swap1\n  0x00\n  mstore\n  keccak256(0x00, 0x20)\n  swap1\n  0x1f\n  add\n  0x20\n  swap1\n  div\n  dup2\n  add\n  swap3\n  dup3\n  tag_32\n  jumpi\n  0x00\n  dup6\n  sstore\n  jump(tag_31)\ntag_32:\n  dup3\n  0x1f\n  lt\n  tag_33\n  jumpi\n  dup1\n  sload\n  dup6\n  sstore\n  jump(tag_31)\ntag_33:\n  dup3\n  dup1\n  add\n  0x01\n  add\n  dup6\n  sstore\n  dup3\n  iszero\n  tag_31\n  jumpi\n  0x00\n  mstore\n  keccak256(0x00, 0x20)\n  swap2\n  0x1f\n  add\n  0x20\n  swap1\n  div\n  dup3\n  add\ntag_34:\n  dup3\n  dup2\n  gt\n  iszero\n  tag_35\n  jumpi\n  dup3\n  sload\n  dup3\n  sstore\n  swap2\n  0x01\n  add\n  swap2\n  swap1\n  0x01\n  add\n  swap1\n  jump(tag_34)\ntag_35:\ntag_31:\n  pop\n  swap1\n  pop\n  tag_36\n  swap2\n  swap1\n  tag_29\n  jump\t// in\ntag_36:\n  pop\n  swap1\n  jump\t// out\ntag_20:\n  mload(0x40)\n  dup1\n  0x60\n  add\n  0x40\n  mstore\n  dup1\n  0x60\n  dup2\n  mstore\n  0x20\n  add\n  and(0xffffffffffffffffffffffffffffffffffffffff, 0x00)\n  dup2\n  mstore\n  0x20\n  add\n  iszero(iszero(0x00))\n  dup2\n  mstore\n  pop\n  swap1\n  jump\t// out\ntag_29:\ntag_37:\n  dup1\n  dup3\n  gt\n  iszero\n  tag_38\n  jumpi\n  0x00\n  dup2\n  0x00\n  swap1\n  sstore\n  pop\n  0x01\n  add\n  jump(tag_37)\ntag_38:\n  pop\n  swap1\n  jump\t// out\n    /* \"#utility.yul\":7:150   */\ntag_40:\n    /* \"#utility.yul\":64:69   */\n  0x00\n    /* \"#utility.yul\":95:101   */\n  dup2\n    /* \"#utility.yul\":89:102   */\n  mload\n    /* \"#utility.yul\":80:102   */\n  swap1\n  pop\n    /* \"#utility.yul\":111:144   */\n  tag_42\n    /* \"#utility.yul\":138:143   */\n  dup2\n    /* \"#utility.yul\":111:144   */\n  tag_43\n  jump\t// in\ntag_42:\n    /* \"#utility.yul\":7:150   */\n  swap3\n  swap2\n  pop\n  pop\n  jump\t// out\n    /* \"#utility.yul\":156:507   */\ntag_3:\n    /* \"#utility.yul\":226:232   */\n  0x00\n    /* \"#utility.yul\":275:277   */\n  0x20\n    /* \"#utility.yul\":263:272   */\n  dup3\n    /* \"#utility.yul\":254:261   */\n  dup5\n    /* \"#utility.yul\":250:273   */\n  sub\n    /* \"#utility.yul\":246:278   */\n  slt\n    /* \"#utility.yul\":243:362   */\n  iszero\n  tag_45\n  jumpi\n    /* \"#utility.yul\":281:360   */\n  tag_46\n  tag_47\n  jump\t// in\ntag_46:\n    /* \"#utility.yul\":243:362   */\ntag_45:\n    /* \"#utility.yul\":401:402   */\n  0x00\n    /* \"#utility.yul\":426:490   */\n  tag_48\n    /* \"#utility.yul\":482:489   */\n  dup5\n    /* \"#utility.yul\":473:479   */\n  dup3\n    /* \"#utility.yul\":462:471   */\n  dup6\n    /* \"#utility.yul\":458:480   */\n  add\n    /* \"#utility.yul\":426:490   */\n  tag_40\n  jump\t// in\ntag_48:\n    /* \"#utility.yul\":416:490   */\n  swap2\n  pop\n    /* \"#utility.yul\":372:500   */\n  pop\n    /* \"#utility.yul\":156:507   */\n  swap3\n  swap2\n  pop\n  pop\n  jump\t// out\n    /* \"#utility.yul\":594:690   */\ntag_51:\n    /* \"#utility.yul\":631:638   */\n  0x00\n    /* \"#utility.yul\":660:684   */\n  tag_53\n    /* \"#utility.yul\":678:683   */\n  dup3\n    /* \"#utility.yul\":660:684   */\n  tag_54\n  jump\t// in\ntag_53:\n    /* \"#utility.yul\":649:684   */\n  swap1\n  pop\n    /* \"#utility.yul\":594:690   */\n  swap2\n  swap1\n  pop\n  jump\t// out\n    /* \"#utility.yul\":696:822   */\ntag_54:\n    /* \"#utility.yul\":733:740   */\n  0x00\n    /* \"#utility.yul\":773:815   */\n  0xffffffffffffffffffffffffffffffffffffffff\n    /* \"#utility.yul\":766:771   */\n  dup3\n    /* \"#utility.yul\":762:816   */\n  and\n    /* \"#utility.yul\":751:816   */\n  swap1\n  pop\n    /* \"#utility.yul\":696:822   */\n  swap2\n  swap1\n  pop\n  jump\t// out\n    /* \"#utility.yul\":828:1148   */\ntag_13:\n    /* \"#utility.yul\":872:878   */\n  0x00\n    /* \"#utility.yul\":909:910   */\n  0x02\n    /* \"#utility.yul\":903:907   */\n  dup3\n    /* \"#utility.yul\":899:911   */\n  div\n    /* \"#utility.yul\":889:911   */\n  swap1\n  pop\n    /* \"#utility.yul\":956:957   */\n  0x01\n    /* \"#utility.yul\":950:954   */\n  dup3\n    /* \"#utility.yul\":946:958   */\n  and\n    /* \"#utility.yul\":977:995   */\n  dup1\n    /* \"#utility.yul\":967:1048   */\n  tag_57\n  jumpi\n    /* \"#utility.yul\":1033:1037   */\n  0x7f\n    /* \"#utility.yul\":1025:1031   */\n  dup3\n    /* \"#utility.yul\":1021:1038   */\n  and\n    /* \"#utility.yul\":1011:1038   */\n  swap2\n  pop\n    /* \"#utility.yul\":967:1048   */\ntag_57:\n    /* \"#utility.yul\":1095:1097   */\n  0x20\n    /* \"#utility.yul\":1087:1093   */\n  dup3\n    /* \"#utility.yul\":1084:1098   */\n  lt\n    /* \"#utility.yul\":1064:1082   */\n  dup2\n    /* \"#utility.yul\":1061:1099   */\n  eq\n    /* \"#utility.yul\":1058:1142   */\n  iszero\n  tag_58\n  jumpi\n    /* \"#utility.yul\":1114:1132   */\n  tag_59\n  tag_60\n  jump\t// in\ntag_59:\n    /* \"#utility.yul\":1058:1142   */\ntag_58:\n    /* \"#utility.yul\":879:1148   */\n  pop\n    /* \"#utility.yul\":828:1148   */\n  swap2\n  swap1\n  pop\n  jump\t// out\n    /* \"#utility.yul\":1154:1334   */\ntag_60:\n    /* \"#utility.yul\":1202:1279   */\n  0x4e487b7100000000000000000000000000000000000000000000000000000000\n    /* \"#utility.yul\":1199:1200   */\n  0x00\n    /* \"#utility.yul\":1192:1280   */\n  mstore\n    /* \"#utility.yul\":1299:1303   */\n  0x22\n    /* \"#utility.yul\":1296:1297   */\n  0x04\n    /* \"#utility.yul\":1289:1304   */\n  mstore\n    /* \"#utility.yul\":1323:1327   */\n  0x24\n    /* \"#utility.yul\":1320:1321   */\n  0x00\n    /* \"#utility.yul\":1313:1328   */\n  revert\n    /* \"#utility.yul\":1463:1580   */\ntag_47:\n    /* \"#utility.yul\":1572:1573   */\n  0x00\n    /* \"#utility.yul\":1569:1570   */\n  dup1\n    /* \"#utility.yul\":1562:1574   */\n  revert\n    /* \"#utility.yul\":1586:1708   */\ntag_43:\n    /* \"#utility.yul\":1659:1683   */\n  tag_66\n    /* \"#utility.yul\":1677:1682   */\n  dup2\n    /* \"#utility.yul\":1659:1683   */\n  tag_51\n  jump\t// in\ntag_66:\n    /* \"#utility.yul\":1652:1657   */\n  dup2\n    /* \"#utility.yul\":1649:1684   */\n  eq\n    /* \"#utility.yul\":1639:1702   */\n  tag_67\n  jumpi\n    /* \"#utility.yul\":1698:1699   */\n  0x00\n    /* \"#utility.yul\":1695:1696   */\n  dup1\n    /* \"#utility.yul\":1688:1700   */\n  revert\n    /* \"#utility.yul\":1639:1702   */\ntag_67:\n    /* \"#utility.yul\":1586:1708   */\n  pop\n  jump\t// out\n    /* \"contracts/lib/referencesCode-eai/Party_refCod.sol\":134:3003  contract Party_refCod{    \r... */\ntag_18:\n  dataSize(sub_0)\n  dup1\n  dataOffset(sub_0)\n  0x00\n  codecopy\n  0x00\n  return\nstop\n\nsub_0: assembly {\n        /* \"contracts/lib/referencesCode-eai/Party_refCod.sol\":134:3003  contract Party_refCod{    \r... */\n      mstore(0x40, 0x80)\n      callvalue\n      dup1\n      iszero\n      tag_1\n      jumpi\n      0x00\n      dup1\n      revert\n    tag_1:\n      pop\n      jumpi(tag_2, lt(calldatasize, 0x04))\n      shr(0xe0, calldataload(0x00))\n      dup1\n      0x5e744c6a\n      eq\n      tag_3\n      jumpi\n      dup1\n      0x70d8915a\n      eq\n      tag_4\n      jumpi\n      dup1\n      0x85931911\n      eq\n      tag_5\n      jumpi\n      dup1\n      0xb8b4f1a0\n      eq\n      tag_6\n      jumpi\n      dup1\n      0xd982b5e3\n      eq\n      tag_7\n      jumpi\n      dup1\n      0xfb6f8243\n      eq\n      tag_8\n      jumpi\n    tag_2:\n      0x00\n      dup1\n      revert\n        /* \"contracts/lib/referencesCode-eai/Party_refCod.sol\":1276:1707  function changeApplicationParty(string memory _name, address _walletAddress) public returns(bool) {       \r... */\n    tag_3:\n      tag_9\n      0x04\n      dup1\n      calldatasize\n      sub\n      dup2\n      add\n      swap1\n      tag_10\n      swap2\n      swap1\n      tag_11\n      jump\t// in\n    tag_10:\n      tag_12\n      jump\t// in\n    tag_9:\n      mload(0x40)\n      tag_13\n      swap2\n      swap1\n      tag_14\n      jump\t// in\n    tag_13:\n      mload(0x40)\n      dup1\n      swap2\n      sub\n      swap1\n      return\n        /* \"contracts/lib/referencesCode-eai/Party_refCod.sol\":1851:1983  function getApplicationAddress() public view onlyInvolvedParties returns(address){\r... */\n    tag_4:\n      tag_15\n      tag_16\n      jump\t// in\n    tag_15:\n      mload(0x40)\n      tag_17\n      swap2\n      swap1\n      tag_18\n      jump\t// in\n    tag_17:\n      mload(0x40)\n      dup1\n      swap2\n      sub\n      swap1\n      return\n        /* \"contracts/lib/referencesCode-eai/Party_refCod.sol\":1715:1839  function getProcessAddress() public view onlyInvolvedParties returns(address){\r... */\n    tag_5:\n      tag_19\n      tag_20\n      jump\t// in\n    tag_19:\n      mload(0x40)\n      tag_21\n      swap2\n      swap1\n      tag_18\n      jump\t// in\n    tag_21:\n      mload(0x40)\n      dup1\n      swap2\n      sub\n      swap1\n      return\n        /* \"contracts/lib/referencesCode-eai/Party_refCod.sol\":742:973  function signContract() public onlyApplication(){\r... */\n    tag_6:\n      tag_22\n      tag_23\n      jump\t// in\n    tag_22:\n      stop\n        /* \"contracts/lib/referencesCode-eai/Party_refCod.sol\":252:295  mapping(address=>EAI.Party) public mapParty */\n    tag_7:\n      tag_24\n      0x04\n      dup1\n      calldatasize\n      sub\n      dup2\n      add\n      swap1\n      tag_25\n      swap2\n      swap1\n      tag_26\n      jump\t// in\n    tag_25:\n      tag_27\n      jump\t// in\n    tag_24:\n      mload(0x40)\n      tag_28\n      swap4\n      swap3\n      swap2\n      swap1\n      tag_29\n      jump\t// in\n    tag_28:\n      mload(0x40)\n      dup1\n      swap2\n      sub\n      swap1\n      return\n        /* \"contracts/lib/referencesCode-eai/Party_refCod.sol\":1991:2140  function getParty(address _walletAddress) public view onlyInvolvedParties returns(EAI.Party memory){\r... */\n    tag_8:\n      tag_30\n      0x04\n      dup1\n      calldatasize\n      sub\n      dup2\n      add\n      swap1\n      tag_31\n      swap2\n      swap1\n      tag_26\n      jump\t// in\n    tag_31:\n      tag_32\n      jump\t// in\n    tag_30:\n      mload(0x40)\n      tag_33\n      swap2\n      swap1\n      tag_34\n      jump\t// in\n    tag_33:\n      mload(0x40)\n      dup1\n      swap2\n      sub\n      swap1\n      return\n        /* \"contracts/lib/referencesCode-eai/Party_refCod.sol\":1276:1707  function changeApplicationParty(string memory _name, address _walletAddress) public returns(bool) {       \r... */\n    tag_12:\n        /* \"contracts/lib/referencesCode-eai/Party_refCod.sol\":1368:1372  bool */\n      0x00\n        /* \"contracts/lib/referencesCode-eai/Party_refCod.sol\":1425:1435  msg.sender */\n      caller\n        /* \"contracts/lib/referencesCode-eai/Party_refCod.sol\":1400:1435  process.walletAddress == msg.sender */\n      0xffffffffffffffffffffffffffffffffffffffff\n      and\n        /* \"contracts/lib/referencesCode-eai/Party_refCod.sol\":1400:1407  process */\n      0x00\n        /* \"contracts/lib/referencesCode-eai/Party_refCod.sol\":1400:1421  process.walletAddress */\n      0x01\n      add\n      0x00\n      swap1\n      sload\n      swap1\n      0x0100\n      exp\n      swap1\n      div\n      0xffffffffffffffffffffffffffffffffffffffff\n      and\n        /* \"contracts/lib/referencesCode-eai/Party_refCod.sol\":1400:1435  process.walletAddress == msg.sender */\n      0xffffffffffffffffffffffffffffffffffffffff\n      and\n      eq\n        /* \"contracts/lib/referencesCode-eai/Party_refCod.sol\":1392:1483  require(process.walletAddress == msg.sender, \"Only the process can execute this operation\") */\n      tag_37\n      jumpi\n      mload(0x40)\n      0x08c379a000000000000000000000000000000000000000000000000000000000\n      dup2\n      mstore\n      0x04\n      add\n      tag_38\n      swap1\n      tag_39\n      jump\t// in\n    tag_38:\n      mload(0x40)\n      dup1\n      swap2\n      sub\n      swap1\n      revert\n    tag_37:\n        /* \"contracts/lib/referencesCode-eai/Party_refCod.sol\":1501:1509  mapParty */\n      0x04\n        /* \"contracts/lib/referencesCode-eai/Party_refCod.sol\":1501:1536  mapParty[application.walletAddress] */\n      0x00\n        /* \"contracts/lib/referencesCode-eai/Party_refCod.sol\":1510:1521  application */\n      0x02\n        /* \"contracts/lib/referencesCode-eai/Party_refCod.sol\":1510:1535  application.walletAddress */\n      0x01\n      add\n      0x00\n      swap1\n      sload\n      swap1\n      0x0100\n      exp\n      swap1\n      div\n      0xffffffffffffffffffffffffffffffffffffffff\n      and\n        /* \"contracts/lib/referencesCode-eai/Party_refCod.sol\":1501:1536  mapParty[application.walletAddress] */\n      0xffffffffffffffffffffffffffffffffffffffff\n      and\n      0xffffffffffffffffffffffffffffffffffffffff\n      and\n      dup2\n      mstore\n      0x20\n      add\n      swap1\n      dup2\n      mstore\n      0x20\n      add\n      0x00\n      keccak256\n      0x00\n        /* \"contracts/lib/referencesCode-eai/Party_refCod.sol\":1494:1536  delete mapParty[application.walletAddress] */\n      dup1\n      dup3\n      add\n      0x00\n      tag_40\n      swap2\n      swap1\n      tag_41\n      jump\t// in\n    tag_40:\n      0x01\n      dup3\n      add\n      exp(0x0100, 0x00)\n      dup2\n      sload\n      swap1\n      0xffffffffffffffffffffffffffffffffffffffff\n      mul\n      not\n      and\n      swap1\n      sstore\n      0x01\n      dup3\n      add\n      exp(0x0100, 0x14)\n      dup2\n      sload\n      swap1\n      0xff\n      mul\n      not\n      and\n      swap1\n      sstore\n      pop\n      pop\n        /* \"contracts/lib/referencesCode-eai/Party_refCod.sol\":1561:1606  EAI.createParty(_name, _walletAddress, false) */\n      tag_42\n        /* \"contracts/lib/referencesCode-eai/Party_refCod.sol\":1577:1582  _name */\n      dup4\n        /* \"contracts/lib/referencesCode-eai/Party_refCod.sol\":1584:1598  _walletAddress */\n      dup4\n        /* \"contracts/lib/referencesCode-eai/Party_refCod.sol\":1600:1605  false */\n      0x00\n        /* \"contracts/lib/referencesCode-eai/Party_refCod.sol\":1561:1576  EAI.createParty */\n      tag_35\n        /* \"contracts/lib/referencesCode-eai/Party_refCod.sol\":1561:1606  EAI.createParty(_name, _walletAddress, false) */\n      jump\t// in\n    tag_42:\n        /* \"contracts/lib/referencesCode-eai/Party_refCod.sol\":1547:1558  application */\n      0x02\n        /* \"contracts/lib/referencesCode-eai/Party_refCod.sol\":1547:1606  application = EAI.createParty(_name, _walletAddress, false) */\n      0x00\n      dup3\n      add\n      mload\n      dup2\n      0x00\n      add\n      swap1\n      dup1\n      mload\n      swap1\n      0x20\n      add\n      swap1\n      tag_43\n      swap3\n      swap2\n      swap1\n      tag_44\n      jump\t// in\n    tag_43:\n      pop\n      0x20\n      dup3\n      add\n      mload\n      dup2\n      0x01\n      add\n      exp(0x0100, 0x00)\n      dup2\n      sload\n      dup2\n      0xffffffffffffffffffffffffffffffffffffffff\n      mul\n      not\n      and\n      swap1\n      dup4\n      0xffffffffffffffffffffffffffffffffffffffff\n      and\n      mul\n      or\n      swap1\n      sstore\n      pop\n      0x40\n      dup3\n      add\n      mload\n      dup2\n      0x01\n      add\n      exp(0x0100, 0x14)\n      dup2\n      sload\n      dup2\n      0xff\n      mul\n      not\n      and\n      swap1\n      dup4\n      iszero\n      iszero\n      mul\n      or\n      swap1\n      sstore\n      pop\n      swap1\n      pop\n      pop\n        /* \"contracts/lib/referencesCode-eai/Party_refCod.sol\":1627:1670  updateMapParty(_walletAddress, application) */\n      tag_45\n        /* \"contracts/lib/referencesCode-eai/Party_refCod.sol\":1642:1656  _walletAddress */\n      dup3\n        /* \"contracts/lib/referencesCode-eai/Party_refCod.sol\":1658:1669  application */\n      0x02\n        /* \"contracts/lib/referencesCode-eai/Party_refCod.sol\":1627:1641  updateMapParty */\n      tag_46\n        /* \"contracts/lib/referencesCode-eai/Party_refCod.sol\":1627:1670  updateMapParty(_walletAddress, application) */\n      jump\t// in\n    tag_45:\n        /* \"contracts/lib/referencesCode-eai/Party_refCod.sol\":1688:1692  true */\n      0x01\n        /* \"contracts/lib/referencesCode-eai/Party_refCod.sol\":1681:1692  return true */\n      swap1\n      pop\n        /* \"contracts/lib/referencesCode-eai/Party_refCod.sol\":1276:1707  function changeApplicationParty(string memory _name, address _walletAddress) public returns(bool) {       \r... */\n      swap3\n      swap2\n      pop\n      pop\n      jump\t// out\n        /* \"contracts/lib/referencesCode-eai/Party_refCod.sol\":1851:1983  function getApplicationAddress() public view onlyInvolvedParties returns(address){\r... */\n    tag_16:\n        /* \"contracts/lib/referencesCode-eai/Party_refCod.sol\":1924:1931  address */\n      0x00\n        /* \"contracts/lib/referencesCode-eai/Party_refCod.sol\":2848:2858  msg.sender */\n      caller\n        /* \"contracts/lib/referencesCode-eai/Party_refCod.sol\":2819:2858  application.walletAddress == msg.sender */\n      0xffffffffffffffffffffffffffffffffffffffff\n      and\n        /* \"contracts/lib/referencesCode-eai/Party_refCod.sol\":2819:2830  application */\n      0x02\n        /* \"contracts/lib/referencesCode-eai/Party_refCod.sol\":2819:2844  application.walletAddress */\n      0x01\n      add\n      0x00\n      swap1\n      sload\n      swap1\n      0x0100\n      exp\n      swap1\n      div\n      0xffffffffffffffffffffffffffffffffffffffff\n      and\n        /* \"contracts/lib/referencesCode-eai/Party_refCod.sol\":2819:2858  application.walletAddress == msg.sender */\n      0xffffffffffffffffffffffffffffffffffffffff\n      and\n      eq\n        /* \"contracts/lib/referencesCode-eai/Party_refCod.sol\":2819:2897  application.walletAddress == msg.sender || process.walletAddress == msg.sender */\n      dup1\n      tag_48\n      jumpi\n      pop\n        /* \"contracts/lib/referencesCode-eai/Party_refCod.sol\":2887:2897  msg.sender */\n      caller\n        /* \"contracts/lib/referencesCode-eai/Party_refCod.sol\":2862:2897  process.walletAddress == msg.sender */\n      0xffffffffffffffffffffffffffffffffffffffff\n      and\n        /* \"contracts/lib/referencesCode-eai/Party_refCod.sol\":2862:2869  process */\n      0x00\n        /* \"contracts/lib/referencesCode-eai/Party_refCod.sol\":2862:2883  process.walletAddress */\n      0x01\n      add\n      0x00\n      swap1\n      sload\n      swap1\n      0x0100\n      exp\n      swap1\n      div\n      0xffffffffffffffffffffffffffffffffffffffff\n      and\n        /* \"contracts/lib/referencesCode-eai/Party_refCod.sol\":2862:2897  process.walletAddress == msg.sender */\n      0xffffffffffffffffffffffffffffffffffffffff\n      and\n      eq\n        /* \"contracts/lib/referencesCode-eai/Party_refCod.sol\":2819:2897  application.walletAddress == msg.sender || process.walletAddress == msg.sender */\n    tag_48:\n        /* \"contracts/lib/referencesCode-eai/Party_refCod.sol\":2796:2980  require(\r... */\n      tag_49\n      jumpi\n      mload(0x40)\n      0x08c379a000000000000000000000000000000000000000000000000000000000\n      dup2\n      mstore\n      0x04\n      add\n      tag_50\n      swap1\n      tag_51\n      jump\t// in\n    tag_50:\n      mload(0x40)\n      dup1\n      swap2\n      sub\n      swap1\n      revert\n    tag_49:\n        /* \"contracts/lib/referencesCode-eai/Party_refCod.sol\":1950:1961  application */\n      0x02\n        /* \"contracts/lib/referencesCode-eai/Party_refCod.sol\":1950:1975  application.walletAddress */\n      0x01\n      add\n      0x00\n      swap1\n      sload\n      swap1\n      0x0100\n      exp\n      swap1\n      div\n      0xffffffffffffffffffffffffffffffffffffffff\n      and\n        /* \"contracts/lib/referencesCode-eai/Party_refCod.sol\":1943:1975  return application.walletAddress */\n      swap1\n      pop\n        /* \"contracts/lib/referencesCode-eai/Party_refCod.sol\":1851:1983  function getApplicationAddress() public view onlyInvolvedParties returns(address){\r... */\n      swap1\n      jump\t// out\n        /* \"contracts/lib/referencesCode-eai/Party_refCod.sol\":1715:1839  function getProcessAddress() public view onlyInvolvedParties returns(address){\r... */\n    tag_20:\n        /* \"contracts/lib/referencesCode-eai/Party_refCod.sol\":1784:1791  address */\n      0x00\n        /* \"contracts/lib/referencesCode-eai/Party_refCod.sol\":2848:2858  msg.sender */\n      caller\n        /* \"contracts/lib/referencesCode-eai/Party_refCod.sol\":2819:2858  application.walletAddress == msg.sender */\n      0xffffffffffffffffffffffffffffffffffffffff\n      and\n        /* \"contracts/lib/referencesCode-eai/Party_refCod.sol\":2819:2830  application */\n      0x02\n        /* \"contracts/lib/referencesCode-eai/Party_refCod.sol\":2819:2844  application.walletAddress */\n      0x01\n      add\n      0x00\n      swap1\n      sload\n      swap1\n      0x0100\n      exp\n      swap1\n      div\n      0xffffffffffffffffffffffffffffffffffffffff\n      and\n        /* \"contracts/lib/referencesCode-eai/Party_refCod.sol\":2819:2858  application.walletAddress == msg.sender */\n      0xffffffffffffffffffffffffffffffffffffffff\n      and\n      eq\n        /* \"contracts/lib/referencesCode-eai/Party_refCod.sol\":2819:2897  application.walletAddress == msg.sender || process.walletAddress == msg.sender */\n      dup1\n      tag_54\n      jumpi\n      pop\n        /* \"contracts/lib/referencesCode-eai/Party_refCod.sol\":2887:2897  msg.sender */\n      caller\n        /* \"contracts/lib/referencesCode-eai/Party_refCod.sol\":2862:2897  process.walletAddress == msg.sender */\n      0xffffffffffffffffffffffffffffffffffffffff\n      and\n        /* \"contracts/lib/referencesCode-eai/Party_refCod.sol\":2862:2869  process */\n      0x00\n        /* \"contracts/lib/referencesCode-eai/Party_refCod.sol\":2862:2883  process.walletAddress */\n      0x01\n      add\n      0x00\n      swap1\n      sload\n      swap1\n      0x0100\n      exp\n      swap1\n      div\n      0xffffffffffffffffffffffffffffffffffffffff\n      and\n        /* \"contracts/lib/referencesCode-eai/Party_refCod.sol\":2862:2897  process.walletAddress == msg.sender */\n      0xffffffffffffffffffffffffffffffffffffffff\n      and\n      eq\n        /* \"contracts/lib/referencesCode-eai/Party_refCod.sol\":2819:2897  application.walletAddress == msg.sender || process.walletAddress == msg.sender */\n    tag_54:\n        /* \"contracts/lib/referencesCode-eai/Party_refCod.sol\":2796:2980  require(\r... */\n      tag_55\n      jumpi\n      mload(0x40)\n      0x08c379a000000000000000000000000000000000000000000000000000000000\n      dup2\n      mstore\n      0x04\n      add\n      tag_56\n      swap1\n      tag_51\n      jump\t// in\n    tag_56:\n      mload(0x40)\n      dup1\n      swap2\n      sub\n      swap1\n      revert\n    tag_55:\n        /* \"contracts/lib/referencesCode-eai/Party_refCod.sol\":1810:1817  process */\n      0x00\n        /* \"contracts/lib/referencesCode-eai/Party_refCod.sol\":1810:1831  process.walletAddress */\n      0x01\n      add\n      0x00\n      swap1\n      sload\n      swap1\n      0x0100\n      exp\n      swap1\n      div\n      0xffffffffffffffffffffffffffffffffffffffff\n      and\n        /* \"contracts/lib/referencesCode-eai/Party_refCod.sol\":1803:1831  return process.walletAddress */\n      swap1\n      pop\n        /* \"contracts/lib/referencesCode-eai/Party_refCod.sol\":1715:1839  function getProcessAddress() public view onlyInvolvedParties returns(address){\r... */\n      swap1\n      jump\t// out\n        /* \"contracts/lib/referencesCode-eai/Party_refCod.sol\":742:973  function signContract() public onlyApplication(){\r... */\n    tag_23:\n        /* \"contracts/lib/referencesCode-eai/Party_refCod.sol\":2513:2523  msg.sender */\n      caller\n        /* \"contracts/lib/referencesCode-eai/Party_refCod.sol\":2484:2523  application.walletAddress == msg.sender */\n      0xffffffffffffffffffffffffffffffffffffffff\n      and\n        /* \"contracts/lib/referencesCode-eai/Party_refCod.sol\":2484:2495  application */\n      0x02\n        /* \"contracts/lib/referencesCode-eai/Party_refCod.sol\":2484:2509  application.walletAddress */\n      0x01\n      add\n      0x00\n      swap1\n      sload\n      swap1\n      0x0100\n      exp\n      swap1\n      div\n      0xffffffffffffffffffffffffffffffffffffffff\n      and\n        /* \"contracts/lib/referencesCode-eai/Party_refCod.sol\":2484:2523  application.walletAddress == msg.sender */\n      0xffffffffffffffffffffffffffffffffffffffff\n      and\n      eq\n        /* \"contracts/lib/referencesCode-eai/Party_refCod.sol\":2476:2575  require(application.walletAddress == msg.sender, \"Only the application can execute this operation\") */\n      tag_59\n      jumpi\n      mload(0x40)\n      0x08c379a000000000000000000000000000000000000000000000000000000000\n      dup2\n      mstore\n      0x04\n      add\n      tag_60\n      swap1\n      tag_61\n      jump\t// in\n    tag_60:\n      mload(0x40)\n      dup1\n      swap2\n      sub\n      swap1\n      revert\n    tag_59:\n        /* \"contracts/lib/referencesCode-eai/Party_refCod.sol\":830:835  false */\n      0x00\n        /* \"contracts/lib/referencesCode-eai/Party_refCod.sol\":809:835  application.aware == false */\n      iszero\n      iszero\n        /* \"contracts/lib/referencesCode-eai/Party_refCod.sol\":809:820  application */\n      0x02\n        /* \"contracts/lib/referencesCode-eai/Party_refCod.sol\":809:826  application.aware */\n      0x01\n      add\n      0x14\n      swap1\n      sload\n      swap1\n      0x0100\n      exp\n      swap1\n      div\n      0xff\n      and\n        /* \"contracts/lib/referencesCode-eai/Party_refCod.sol\":809:835  application.aware == false */\n      iszero\n      iszero\n      eq\n        /* \"contracts/lib/referencesCode-eai/Party_refCod.sol\":801:870  require(application.aware == false, \"The contract is already signed\") */\n      tag_63\n      jumpi\n      mload(0x40)\n      0x08c379a000000000000000000000000000000000000000000000000000000000\n      dup2\n      mstore\n      0x04\n      add\n      tag_64\n      swap1\n      tag_65\n      jump\t// in\n    tag_64:\n      mload(0x40)\n      dup1\n      swap2\n      sub\n      swap1\n      revert\n    tag_63:\n        /* \"contracts/lib/referencesCode-eai/Party_refCod.sol\":909:913  true */\n      0x01\n        /* \"contracts/lib/referencesCode-eai/Party_refCod.sol\":889:900  application */\n      0x02\n        /* \"contracts/lib/referencesCode-eai/Party_refCod.sol\":889:906  application.aware */\n      0x01\n      add\n      0x14\n        /* \"contracts/lib/referencesCode-eai/Party_refCod.sol\":889:913  application.aware = true */\n      0x0100\n      exp\n      dup2\n      sload\n      dup2\n      0xff\n      mul\n      not\n      and\n      swap1\n      dup4\n      iszero\n      iszero\n      mul\n      or\n      swap1\n      sstore\n      pop\n        /* \"contracts/lib/referencesCode-eai/Party_refCod.sol\":926:965  updateMapParty(msg.sender, application) */\n      tag_66\n        /* \"contracts/lib/referencesCode-eai/Party_refCod.sol\":941:951  msg.sender */\n      caller\n        /* \"contracts/lib/referencesCode-eai/Party_refCod.sol\":953:964  application */\n      0x02\n        /* \"contracts/lib/referencesCode-eai/Party_refCod.sol\":926:940  updateMapParty */\n      tag_46\n        /* \"contracts/lib/referencesCode-eai/Party_refCod.sol\":926:965  updateMapParty(msg.sender, application) */\n      jump\t// in\n    tag_66:\n        /* \"contracts/lib/referencesCode-eai/Party_refCod.sol\":742:973  function signContract() public onlyApplication(){\r... */\n      jump\t// out\n        /* \"contracts/lib/referencesCode-eai/Party_refCod.sol\":252:295  mapping(address=>EAI.Party) public mapParty */\n    tag_27:\n      mstore(0x20, 0x04)\n      dup1\n      0x00\n      mstore\n      keccak256(0x00, 0x40)\n      0x00\n      swap2\n      pop\n      swap1\n      pop\n      dup1\n      0x00\n      add\n      dup1\n      sload\n      tag_67\n      swap1\n      tag_68\n      jump\t// in\n    tag_67:\n      dup1\n      0x1f\n      add\n      0x20\n      dup1\n      swap2\n      div\n      mul\n      0x20\n      add\n      mload(0x40)\n      swap1\n      dup2\n      add\n      0x40\n      mstore\n      dup1\n      swap3\n      swap2\n      swap1\n      dup2\n      dup2\n      mstore\n      0x20\n      add\n      dup3\n      dup1\n      sload\n      tag_69\n      swap1\n      tag_68\n      jump\t// in\n    tag_69:\n      dup1\n      iszero\n      tag_70\n      jumpi\n      dup1\n      0x1f\n      lt\n      tag_71\n      jumpi\n      0x0100\n      dup1\n      dup4\n      sload\n      div\n      mul\n      dup4\n      mstore\n      swap2\n      0x20\n      add\n      swap2\n      jump(tag_70)\n    tag_71:\n      dup3\n      add\n      swap2\n      swap1\n      0x00\n      mstore\n      keccak256(0x00, 0x20)\n      swap1\n    tag_72:\n      dup2\n      sload\n      dup2\n      mstore\n      swap1\n      0x01\n      add\n      swap1\n      0x20\n      add\n      dup1\n      dup4\n      gt\n      tag_72\n      jumpi\n      dup3\n      swap1\n      sub\n      0x1f\n      and\n      dup3\n      add\n      swap2\n    tag_70:\n      pop\n      pop\n      pop\n      pop\n      pop\n      swap1\n      dup1\n      0x01\n      add\n      0x00\n      swap1\n      sload\n      swap1\n      0x0100\n      exp\n      swap1\n      div\n      0xffffffffffffffffffffffffffffffffffffffff\n      and\n      swap1\n      dup1\n      0x01\n      add\n      0x14\n      swap1\n      sload\n      swap1\n      0x0100\n      exp\n      swap1\n      div\n      0xff\n      and\n      swap1\n      pop\n      dup4\n      jump\t// out\n        /* \"contracts/lib/referencesCode-eai/Party_refCod.sol\":1991:2140  function getParty(address _walletAddress) public view onlyInvolvedParties returns(EAI.Party memory){\r... */\n    tag_32:\n        /* \"contracts/lib/referencesCode-eai/Party_refCod.sol\":2073:2089  EAI.Party memory */\n      tag_73\n      tag_74\n      jump\t// in\n    tag_73:\n        /* \"contracts/lib/referencesCode-eai/Party_refCod.sol\":2848:2858  msg.sender */\n      caller\n        /* \"contracts/lib/referencesCode-eai/Party_refCod.sol\":2819:2858  application.walletAddress == msg.sender */\n      0xffffffffffffffffffffffffffffffffffffffff\n      and\n        /* \"contracts/lib/referencesCode-eai/Party_refCod.sol\":2819:2830  application */\n      0x02\n        /* \"contracts/lib/referencesCode-eai/Party_refCod.sol\":2819:2844  application.walletAddress */\n      0x01\n      add\n      0x00\n      swap1\n      sload\n      swap1\n      0x0100\n      exp\n      swap1\n      div\n      0xffffffffffffffffffffffffffffffffffffffff\n      and\n        /* \"contracts/lib/referencesCode-eai/Party_refCod.sol\":2819:2858  application.walletAddress == msg.sender */\n      0xffffffffffffffffffffffffffffffffffffffff\n      and\n      eq\n        /* \"contracts/lib/referencesCode-eai/Party_refCod.sol\":2819:2897  application.walletAddress == msg.sender || process.walletAddress == msg.sender */\n      dup1\n      tag_76\n      jumpi\n      pop\n        /* \"contracts/lib/referencesCode-eai/Party_refCod.sol\":2887:2897  msg.sender */\n      caller\n        /* \"contracts/lib/referencesCode-eai/Party_refCod.sol\":2862:2897  process.walletAddress == msg.sender */\n      0xffffffffffffffffffffffffffffffffffffffff\n      and\n        /* \"contracts/lib/referencesCode-eai/Party_refCod.sol\":2862:2869  process */\n      0x00\n        /* \"contracts/lib/referencesCode-eai/Party_refCod.sol\":2862:2883  process.walletAddress */\n      0x01\n      add\n      0x00\n      swap1\n      sload\n      swap1\n      0x0100\n      exp\n      swap1\n      div\n      0xffffffffffffffffffffffffffffffffffffffff\n      and\n        /* \"contracts/lib/referencesCode-eai/Party_refCod.sol\":2862:2897  process.walletAddress == msg.sender */\n      0xffffffffffffffffffffffffffffffffffffffff\n      and\n      eq\n        /* \"contracts/lib/referencesCode-eai/Party_refCod.sol\":2819:2897  application.walletAddress == msg.sender || process.walletAddress == msg.sender */\n    tag_76:\n        /* \"contracts/lib/referencesCode-eai/Party_refCod.sol\":2796:2980  require(\r... */\n      tag_77\n      jumpi\n      mload(0x40)\n      0x08c379a000000000000000000000000000000000000000000000000000000000\n      dup2\n      mstore\n      0x04\n      add\n      tag_78\n      swap1\n      tag_51\n      jump\t// in\n    tag_78:\n      mload(0x40)\n      dup1\n      swap2\n      sub\n      swap1\n      revert\n    tag_77:\n        /* \"contracts/lib/referencesCode-eai/Party_refCod.sol\":2108:2116  mapParty */\n      0x04\n        /* \"contracts/lib/referencesCode-eai/Party_refCod.sol\":2108:2132  mapParty[_walletAddress] */\n      0x00\n        /* \"contracts/lib/referencesCode-eai/Party_refCod.sol\":2117:2131  _walletAddress */\n      dup4\n        /* \"contracts/lib/referencesCode-eai/Party_refCod.sol\":2108:2132  mapParty[_walletAddress] */\n      0xffffffffffffffffffffffffffffffffffffffff\n      and\n      0xffffffffffffffffffffffffffffffffffffffff\n      and\n      dup2\n      mstore\n      0x20\n      add\n      swap1\n      dup2\n      mstore\n      0x20\n      add\n      0x00\n      keccak256\n        /* \"contracts/lib/referencesCode-eai/Party_refCod.sol\":2101:2132  return mapParty[_walletAddress] */\n      mload(0x40)\n      dup1\n      0x60\n      add\n      0x40\n      mstore\n      swap1\n      dup2\n      0x00\n      dup3\n      add\n      dup1\n      sload\n      tag_80\n      swap1\n      tag_68\n      jump\t// in\n    tag_80:\n      dup1\n      0x1f\n      add\n      0x20\n      dup1\n      swap2\n      div\n      mul\n      0x20\n      add\n      mload(0x40)\n      swap1\n      dup2\n      add\n      0x40\n      mstore\n      dup1\n      swap3\n      swap2\n      swap1\n      dup2\n      dup2\n      mstore\n      0x20\n      add\n      dup3\n      dup1\n      sload\n      tag_81\n      swap1\n      tag_68\n      jump\t// in\n    tag_81:\n      dup1\n      iszero\n      tag_82\n      jumpi\n      dup1\n      0x1f\n      lt\n      tag_83\n      jumpi\n      0x0100\n      dup1\n      dup4\n      sload\n      div\n      mul\n      dup4\n      mstore\n      swap2\n      0x20\n      add\n      swap2\n      jump(tag_82)\n    tag_83:\n      dup3\n      add\n      swap2\n      swap1\n      0x00\n      mstore\n      keccak256(0x00, 0x20)\n      swap1\n    tag_84:\n      dup2\n      sload\n      dup2\n      mstore\n      swap1\n      0x01\n      add\n      swap1\n      0x20\n      add\n      dup1\n      dup4\n      gt\n      tag_84\n      jumpi\n      dup3\n      swap1\n      sub\n      0x1f\n      and\n      dup3\n      add\n      swap2\n    tag_82:\n      pop\n      pop\n      pop\n      pop\n      pop\n      dup2\n      mstore\n      0x20\n      add\n      0x01\n      dup3\n      add\n      0x00\n      swap1\n      sload\n      swap1\n      0x0100\n      exp\n      swap1\n      div\n      0xffffffffffffffffffffffffffffffffffffffff\n      and\n      0xffffffffffffffffffffffffffffffffffffffff\n      and\n      0xffffffffffffffffffffffffffffffffffffffff\n      and\n      dup2\n      mstore\n      0x20\n      add\n      0x01\n      dup3\n      add\n      0x14\n      swap1\n      sload\n      swap1\n      0x0100\n      exp\n      swap1\n      div\n      0xff\n      and\n      iszero\n      iszero\n      iszero\n      iszero\n      dup2\n      mstore\n      pop\n      pop\n      swap1\n      pop\n        /* \"contracts/lib/referencesCode-eai/Party_refCod.sol\":1991:2140  function getParty(address _walletAddress) public view onlyInvolvedParties returns(EAI.Party memory){\r... */\n      swap2\n      swap1\n      pop\n      jump\t// out\n        /* \"contracts/lib/eai/EAI.sol\":1591:1767  function createParty(string memory _name, address _walletAddress, bool _aware) internal pure returns(Party memory){\r... */\n    tag_35:\n        /* \"contracts/lib/eai/EAI.sol\":1692:1704  Party memory */\n      tag_85\n      tag_74\n      jump\t// in\n    tag_85:\n        /* \"contracts/lib/eai/EAI.sol\":1723:1759  Party(_name, _walletAddress, _aware) */\n      mload(0x40)\n      dup1\n      0x60\n      add\n      0x40\n      mstore\n      dup1\n        /* \"contracts/lib/eai/EAI.sol\":1729:1734  _name */\n      dup6\n        /* \"contracts/lib/eai/EAI.sol\":1723:1759  Party(_name, _walletAddress, _aware) */\n      dup2\n      mstore\n      0x20\n      add\n        /* \"contracts/lib/eai/EAI.sol\":1736:1750  _walletAddress */\n      dup5\n        /* \"contracts/lib/eai/EAI.sol\":1723:1759  Party(_name, _walletAddress, _aware) */\n      0xffffffffffffffffffffffffffffffffffffffff\n      and\n      dup2\n      mstore\n      0x20\n      add\n        /* \"contracts/lib/eai/EAI.sol\":1752:1758  _aware */\n      dup4\n        /* \"contracts/lib/eai/EAI.sol\":1723:1759  Party(_name, _walletAddress, _aware) */\n      iszero\n      iszero\n      dup2\n      mstore\n      pop\n        /* \"contracts/lib/eai/EAI.sol\":1716:1759  return Party(_name, _walletAddress, _aware) */\n      swap1\n      pop\n        /* \"contracts/lib/eai/EAI.sol\":1591:1767  function createParty(string memory _name, address _walletAddress, bool _aware) internal pure returns(Party memory){\r... */\n      swap4\n      swap3\n      pop\n      pop\n      pop\n      jump\t// out\n        /* \"contracts/lib/referencesCode-eai/Party_refCod.sol\":981:1121  function updateMapParty(address _walletAddress, EAI.Party storage _party)internal{       \r... */\n    tag_46:\n        /* \"contracts/lib/referencesCode-eai/Party_refCod.sol\":1107:1113  _party */\n      dup1\n        /* \"contracts/lib/referencesCode-eai/Party_refCod.sol\":1080:1088  mapParty */\n      0x04\n        /* \"contracts/lib/referencesCode-eai/Party_refCod.sol\":1080:1104  mapParty[_walletAddress] */\n      0x00\n        /* \"contracts/lib/referencesCode-eai/Party_refCod.sol\":1089:1103  _walletAddress */\n      dup5\n        /* \"contracts/lib/referencesCode-eai/Party_refCod.sol\":1080:1104  mapParty[_walletAddress] */\n      0xffffffffffffffffffffffffffffffffffffffff\n      and\n      0xffffffffffffffffffffffffffffffffffffffff\n      and\n      dup2\n      mstore\n      0x20\n      add\n      swap1\n      dup2\n      mstore\n      0x20\n      add\n      0x00\n      keccak256\n        /* \"contracts/lib/referencesCode-eai/Party_refCod.sol\":1080:1113  mapParty[_walletAddress] = _party */\n      0x00\n      dup3\n      add\n      dup2\n      0x00\n      add\n      swap1\n      dup1\n      sload\n      tag_88\n      swap1\n      tag_68\n      jump\t// in\n    tag_88:\n      tag_89\n      swap3\n      swap2\n      swap1\n      tag_90\n      jump\t// in\n    tag_89:\n      pop\n      0x01\n      dup3\n      add\n      0x00\n      swap1\n      sload\n      swap1\n      0x0100\n      exp\n      swap1\n      div\n      0xffffffffffffffffffffffffffffffffffffffff\n      and\n      dup2\n      0x01\n      add\n      exp(0x0100, 0x00)\n      dup2\n      sload\n      dup2\n      0xffffffffffffffffffffffffffffffffffffffff\n      mul\n      not\n      and\n      swap1\n      dup4\n      0xffffffffffffffffffffffffffffffffffffffff\n      and\n      mul\n      or\n      swap1\n      sstore\n      pop\n      0x01\n      dup3\n      add\n      0x14\n      swap1\n      sload\n      swap1\n      0x0100\n      exp\n      swap1\n      div\n      0xff\n      and\n      dup2\n      0x01\n      add\n      exp(0x0100, 0x14)\n      dup2\n      sload\n      dup2\n      0xff\n      mul\n      not\n      and\n      swap1\n      dup4\n      iszero\n      iszero\n      mul\n      or\n      swap1\n      sstore\n      pop\n      swap1\n      pop\n      pop\n        /* \"contracts/lib/referencesCode-eai/Party_refCod.sol\":981:1121  function updateMapParty(address _walletAddress, EAI.Party storage _party)internal{       \r... */\n      pop\n      pop\n      jump\t// out\n    tag_41:\n      pop\n      dup1\n      sload\n      tag_91\n      swap1\n      tag_68\n      jump\t// in\n    tag_91:\n      0x00\n      dup3\n      sstore\n      dup1\n      0x1f\n      lt\n      tag_93\n      jumpi\n      pop\n      jump(tag_92)\n    tag_93:\n      0x1f\n      add\n      0x20\n      swap1\n      div\n      swap1\n      0x00\n      mstore\n      keccak256(0x00, 0x20)\n      swap1\n      dup2\n      add\n      swap1\n      tag_94\n      swap2\n      swap1\n      tag_95\n      jump\t// in\n    tag_94:\n    tag_92:\n      pop\n      jump\t// out\n    tag_44:\n      dup3\n      dup1\n      sload\n      tag_96\n      swap1\n      tag_68\n      jump\t// in\n    tag_96:\n      swap1\n      0x00\n      mstore\n      keccak256(0x00, 0x20)\n      swap1\n      0x1f\n      add\n      0x20\n      swap1\n      div\n      dup2\n      add\n      swap3\n      dup3\n      tag_98\n      jumpi\n      0x00\n      dup6\n      sstore\n      jump(tag_97)\n    tag_98:\n      dup3\n      0x1f\n      lt\n      tag_99\n      jumpi\n      dup1\n      mload\n      not(0xff)\n      and\n      dup4\n      dup1\n      add\n      or\n      dup6\n      sstore\n      jump(tag_97)\n    tag_99:\n      dup3\n      dup1\n      add\n      0x01\n      add\n      dup6\n      sstore\n      dup3\n      iszero\n      tag_97\n      jumpi\n      swap2\n      dup3\n      add\n    tag_100:\n      dup3\n      dup2\n      gt\n      iszero\n      tag_101\n      jumpi\n      dup3\n      mload\n      dup3\n      sstore\n      swap2\n      0x20\n      add\n      swap2\n      swap1\n      0x01\n      add\n      swap1\n      jump(tag_100)\n    tag_101:\n    tag_97:\n      pop\n      swap1\n      pop\n      tag_102\n      swap2\n      swap1\n      tag_95\n      jump\t// in\n    tag_102:\n      pop\n      swap1\n      jump\t// out\n    tag_74:\n      mload(0x40)\n      dup1\n      0x60\n      add\n      0x40\n      mstore\n      dup1\n      0x60\n      dup2\n      mstore\n      0x20\n      add\n      and(0xffffffffffffffffffffffffffffffffffffffff, 0x00)\n      dup2\n      mstore\n      0x20\n      add\n      iszero(iszero(0x00))\n      dup2\n      mstore\n      pop\n      swap1\n      jump\t// out\n    tag_90:\n      dup3\n      dup1\n      sload\n      tag_103\n      swap1\n      tag_68\n      jump\t// in\n    tag_103:\n      swap1\n      0x00\n      mstore\n      keccak256(0x00, 0x20)\n      swap1\n      0x1f\n      add\n      0x20\n      swap1\n      div\n      dup2\n      add\n      swap3\n      dup3\n      tag_105\n      jumpi\n      0x00\n      dup6\n      sstore\n      jump(tag_104)\n    tag_105:\n      dup3\n      0x1f\n      lt\n      tag_106\n      jumpi\n      dup1\n      sload\n      dup6\n      sstore\n      jump(tag_104)\n    tag_106:\n      dup3\n      dup1\n      add\n      0x01\n      add\n      dup6\n      sstore\n      dup3\n      iszero\n      tag_104\n      jumpi\n      0x00\n      mstore\n      keccak256(0x00, 0x20)\n      swap2\n      0x1f\n      add\n      0x20\n      swap1\n      div\n      dup3\n      add\n    tag_107:\n      dup3\n      dup2\n      gt\n      iszero\n      tag_108\n      jumpi\n      dup3\n      sload\n      dup3\n      sstore\n      swap2\n      0x01\n      add\n      swap2\n      swap1\n      0x01\n      add\n      swap1\n      jump(tag_107)\n    tag_108:\n    tag_104:\n      pop\n      swap1\n      pop\n      tag_109\n      swap2\n      swap1\n      tag_95\n      jump\t// in\n    tag_109:\n      pop\n      swap1\n      jump\t// out\n    tag_95:\n    tag_110:\n      dup1\n      dup3\n      gt\n      iszero\n      tag_111\n      jumpi\n      0x00\n      dup2\n      0x00\n      swap1\n      sstore\n      pop\n      0x01\n      add\n      jump(tag_110)\n    tag_111:\n      pop\n      swap1\n      jump\t// out\n        /* \"#utility.yul\":7:419   */\n    tag_113:\n        /* \"#utility.yul\":85:90   */\n      0x00\n        /* \"#utility.yul\":110:176   */\n      tag_115\n        /* \"#utility.yul\":126:175   */\n      tag_116\n        /* \"#utility.yul\":168:174   */\n      dup5\n        /* \"#utility.yul\":126:175   */\n      tag_117\n      jump\t// in\n    tag_116:\n        /* \"#utility.yul\":110:176   */\n      tag_118\n      jump\t// in\n    tag_115:\n        /* \"#utility.yul\":101:176   */\n      swap1\n      pop\n        /* \"#utility.yul\":199:205   */\n      dup3\n        /* \"#utility.yul\":192:197   */\n      dup2\n        /* \"#utility.yul\":185:206   */\n      mstore\n        /* \"#utility.yul\":237:241   */\n      0x20\n        /* \"#utility.yul\":230:235   */\n      dup2\n        /* \"#utility.yul\":226:242   */\n      add\n        /* \"#utility.yul\":275:278   */\n      dup5\n        /* \"#utility.yul\":266:272   */\n      dup5\n        /* \"#utility.yul\":261:264   */\n      dup5\n        /* \"#utility.yul\":257:273   */\n      add\n        /* \"#utility.yul\":254:279   */\n      gt\n        /* \"#utility.yul\":251:363   */\n      iszero\n      tag_119\n      jumpi\n        /* \"#utility.yul\":282:361   */\n      tag_120\n      tag_121\n      jump\t// in\n    tag_120:\n        /* \"#utility.yul\":251:363   */\n    tag_119:\n        /* \"#utility.yul\":372:413   */\n      tag_122\n        /* \"#utility.yul\":406:412   */\n      dup5\n        /* \"#utility.yul\":401:404   */\n      dup3\n        /* \"#utility.yul\":396:399   */\n      dup6\n        /* \"#utility.yul\":372:413   */\n      tag_123\n      jump\t// in\n    tag_122:\n        /* \"#utility.yul\":91:419   */\n      pop\n        /* \"#utility.yul\":7:419   */\n      swap4\n      swap3\n      pop\n      pop\n      pop\n      jump\t// out\n        /* \"#utility.yul\":425:564   */\n    tag_124:\n        /* \"#utility.yul\":471:476   */\n      0x00\n        /* \"#utility.yul\":509:515   */\n      dup2\n        /* \"#utility.yul\":496:516   */\n      calldataload\n        /* \"#utility.yul\":487:516   */\n      swap1\n      pop\n        /* \"#utility.yul\":525:558   */\n      tag_126\n        /* \"#utility.yul\":552:557   */\n      dup2\n        /* \"#utility.yul\":525:558   */\n      tag_127\n      jump\t// in\n    tag_126:\n        /* \"#utility.yul\":425:564   */\n      swap3\n      swap2\n      pop\n      pop\n      jump\t// out\n        /* \"#utility.yul\":584:924   */\n    tag_128:\n        /* \"#utility.yul\":640:645   */\n      0x00\n        /* \"#utility.yul\":689:692   */\n      dup3\n        /* \"#utility.yul\":682:686   */\n      0x1f\n        /* \"#utility.yul\":674:680   */\n      dup4\n        /* \"#utility.yul\":670:687   */\n      add\n        /* \"#utility.yul\":666:693   */\n      slt\n        /* \"#utility.yul\":656:778   */\n      tag_130\n      jumpi\n        /* \"#utility.yul\":697:776   */\n      tag_131\n      tag_132\n      jump\t// in\n    tag_131:\n        /* \"#utility.yul\":656:778   */\n    tag_130:\n        /* \"#utility.yul\":814:820   */\n      dup2\n        /* \"#utility.yul\":801:821   */\n      calldataload\n        /* \"#utility.yul\":839:918   */\n      tag_133\n        /* \"#utility.yul\":914:917   */\n      dup5\n        /* \"#utility.yul\":906:912   */\n      dup3\n        /* \"#utility.yul\":899:903   */\n      0x20\n        /* \"#utility.yul\":891:897   */\n      dup7\n        /* \"#utility.yul\":887:904   */\n      add\n        /* \"#utility.yul\":839:918   */\n      tag_113\n      jump\t// in\n    tag_133:\n        /* \"#utility.yul\":830:918   */\n      swap2\n      pop\n        /* \"#utility.yul\":646:924   */\n      pop\n        /* \"#utility.yul\":584:924   */\n      swap3\n      swap2\n      pop\n      pop\n      jump\t// out\n        /* \"#utility.yul\":930:1259   */\n    tag_26:\n        /* \"#utility.yul\":989:995   */\n      0x00\n        /* \"#utility.yul\":1038:1040   */\n      0x20\n        /* \"#utility.yul\":1026:1035   */\n      dup3\n        /* \"#utility.yul\":1017:1024   */\n      dup5\n        /* \"#utility.yul\":1013:1036   */\n      sub\n        /* \"#utility.yul\":1009:1041   */\n      slt\n        /* \"#utility.yul\":1006:1125   */\n      iszero\n      tag_135\n      jumpi\n        /* \"#utility.yul\":1044:1123   */\n      tag_136\n      tag_137\n      jump\t// in\n    tag_136:\n        /* \"#utility.yul\":1006:1125   */\n    tag_135:\n        /* \"#utility.yul\":1164:1165   */\n      0x00\n        /* \"#utility.yul\":1189:1242   */\n      tag_138\n        /* \"#utility.yul\":1234:1241   */\n      dup5\n        /* \"#utility.yul\":1225:1231   */\n      dup3\n        /* \"#utility.yul\":1214:1223   */\n      dup6\n        /* \"#utility.yul\":1210:1232   */\n      add\n        /* \"#utility.yul\":1189:1242   */\n      tag_124\n      jump\t// in\n    tag_138:\n        /* \"#utility.yul\":1179:1242   */\n      swap2\n      pop\n        /* \"#utility.yul\":1135:1252   */\n      pop\n        /* \"#utility.yul\":930:1259   */\n      swap3\n      swap2\n      pop\n      pop\n      jump\t// out\n        /* \"#utility.yul\":1265:1919   */\n    tag_11:\n        /* \"#utility.yul\":1343:1349   */\n      0x00\n        /* \"#utility.yul\":1351:1357   */\n      dup1\n        /* \"#utility.yul\":1400:1402   */\n      0x40\n        /* \"#utility.yul\":1388:1397   */\n      dup4\n        /* \"#utility.yul\":1379:1386   */\n      dup6\n        /* \"#utility.yul\":1375:1398   */\n      sub\n        /* \"#utility.yul\":1371:1403   */\n      slt\n        /* \"#utility.yul\":1368:1487   */\n      iszero\n      tag_140\n      jumpi\n        /* \"#utility.yul\":1406:1485   */\n      tag_141\n      tag_137\n      jump\t// in\n    tag_141:\n        /* \"#utility.yul\":1368:1487   */\n    tag_140:\n        /* \"#utility.yul\":1554:1555   */\n      0x00\n        /* \"#utility.yul\":1543:1552   */\n      dup4\n        /* \"#utility.yul\":1539:1556   */\n      add\n        /* \"#utility.yul\":1526:1557   */\n      calldataload\n        /* \"#utility.yul\":1584:1602   */\n      0xffffffffffffffff\n        /* \"#utility.yul\":1576:1582   */\n      dup2\n        /* \"#utility.yul\":1573:1603   */\n      gt\n        /* \"#utility.yul\":1570:1687   */\n      iszero\n      tag_142\n      jumpi\n        /* \"#utility.yul\":1606:1685   */\n      tag_143\n      tag_144\n      jump\t// in\n    tag_143:\n        /* \"#utility.yul\":1570:1687   */\n    tag_142:\n        /* \"#utility.yul\":1711:1774   */\n      tag_145\n        /* \"#utility.yul\":1766:1773   */\n      dup6\n        /* \"#utility.yul\":1757:1763   */\n      dup3\n        /* \"#utility.yul\":1746:1755   */\n      dup7\n        /* \"#utility.yul\":1742:1764   */\n      add\n        /* \"#utility.yul\":1711:1774   */\n      tag_128\n      jump\t// in\n    tag_145:\n        /* \"#utility.yul\":1701:1774   */\n      swap3\n      pop\n        /* \"#utility.yul\":1497:1784   */\n      pop\n        /* \"#utility.yul\":1823:1825   */\n      0x20\n        /* \"#utility.yul\":1849:1902   */\n      tag_146\n        /* \"#utility.yul\":1894:1901   */\n      dup6\n        /* \"#utility.yul\":1885:1891   */\n      dup3\n        /* \"#utility.yul\":1874:1883   */\n      dup7\n        /* \"#utility.yul\":1870:1892   */\n      add\n        /* \"#utility.yul\":1849:1902   */\n      tag_124\n      jump\t// in\n    tag_146:\n        /* \"#utility.yul\":1839:1902   */\n      swap2\n      pop\n        /* \"#utility.yul\":1794:1912   */\n      pop\n        /* \"#utility.yul\":1265:1919   */\n      swap3\n      pop\n      swap3\n      swap1\n      pop\n      jump\t// out\n        /* \"#utility.yul\":1925:2033   */\n    tag_147:\n        /* \"#utility.yul\":2002:2026   */\n      tag_149\n        /* \"#utility.yul\":2020:2025   */\n      dup2\n        /* \"#utility.yul\":2002:2026   */\n      tag_150\n      jump\t// in\n    tag_149:\n        /* \"#utility.yul\":1997:2000   */\n      dup3\n        /* \"#utility.yul\":1990:2027   */\n      mstore\n        /* \"#utility.yul\":1925:2033   */\n      pop\n      pop\n      jump\t// out\n        /* \"#utility.yul\":2039:2157   */\n    tag_151:\n        /* \"#utility.yul\":2126:2150   */\n      tag_153\n        /* \"#utility.yul\":2144:2149   */\n      dup2\n        /* \"#utility.yul\":2126:2150   */\n      tag_150\n      jump\t// in\n    tag_153:\n        /* \"#utility.yul\":2121:2124   */\n      dup3\n        /* \"#utility.yul\":2114:2151   */\n      mstore\n        /* \"#utility.yul\":2039:2157   */\n      pop\n      pop\n      jump\t// out\n        /* \"#utility.yul\":2163:2262   */\n    tag_154:\n        /* \"#utility.yul\":2234:2255   */\n      tag_156\n        /* \"#utility.yul\":2249:2254   */\n      dup2\n        /* \"#utility.yul\":2234:2255   */\n      tag_157\n      jump\t// in\n    tag_156:\n        /* \"#utility.yul\":2229:2232   */\n      dup3\n        /* \"#utility.yul\":2222:2256   */\n      mstore\n        /* \"#utility.yul\":2163:2262   */\n      pop\n      pop\n      jump\t// out\n        /* \"#utility.yul\":2268:2377   */\n    tag_158:\n        /* \"#utility.yul\":2349:2370   */\n      tag_160\n        /* \"#utility.yul\":2364:2369   */\n      dup2\n        /* \"#utility.yul\":2349:2370   */\n      tag_157\n      jump\t// in\n    tag_160:\n        /* \"#utility.yul\":2344:2347   */\n      dup3\n        /* \"#utility.yul\":2337:2371   */\n      mstore\n        /* \"#utility.yul\":2268:2377   */\n      pop\n      pop\n      jump\t// out\n        /* \"#utility.yul\":2383:2727   */\n    tag_161:\n        /* \"#utility.yul\":2461:2464   */\n      0x00\n        /* \"#utility.yul\":2489:2528   */\n      tag_163\n        /* \"#utility.yul\":2522:2527   */\n      dup3\n        /* \"#utility.yul\":2489:2528   */\n      tag_164\n      jump\t// in\n    tag_163:\n        /* \"#utility.yul\":2544:2605   */\n      tag_165\n        /* \"#utility.yul\":2598:2604   */\n      dup2\n        /* \"#utility.yul\":2593:2596   */\n      dup6\n        /* \"#utility.yul\":2544:2605   */\n      tag_166\n      jump\t// in\n    tag_165:\n        /* \"#utility.yul\":2537:2605   */\n      swap4\n      pop\n        /* \"#utility.yul\":2614:2666   */\n      tag_167\n        /* \"#utility.yul\":2659:2665   */\n      dup2\n        /* \"#utility.yul\":2654:2657   */\n      dup6\n        /* \"#utility.yul\":2647:2651   */\n      0x20\n        /* \"#utility.yul\":2640:2645   */\n      dup7\n        /* \"#utility.yul\":2636:2652   */\n      add\n        /* \"#utility.yul\":2614:2666   */\n      tag_168\n      jump\t// in\n    tag_167:\n        /* \"#utility.yul\":2691:2720   */\n      tag_169\n        /* \"#utility.yul\":2713:2719   */\n      dup2\n        /* \"#utility.yul\":2691:2720   */\n      tag_170\n      jump\t// in\n    tag_169:\n        /* \"#utility.yul\":2686:2689   */\n      dup5\n        /* \"#utility.yul\":2682:2721   */\n      add\n        /* \"#utility.yul\":2675:2721   */\n      swap2\n      pop\n        /* \"#utility.yul\":2465:2727   */\n      pop\n        /* \"#utility.yul\":2383:2727   */\n      swap3\n      swap2\n      pop\n      pop\n      jump\t// out\n        /* \"#utility.yul\":2733:3097   */\n    tag_171:\n        /* \"#utility.yul\":2821:2824   */\n      0x00\n        /* \"#utility.yul\":2849:2888   */\n      tag_173\n        /* \"#utility.yul\":2882:2887   */\n      dup3\n        /* \"#utility.yul\":2849:2888   */\n      tag_164\n      jump\t// in\n    tag_173:\n        /* \"#utility.yul\":2904:2975   */\n      tag_174\n        /* \"#utility.yul\":2968:2974   */\n      dup2\n        /* \"#utility.yul\":2963:2966   */\n      dup6\n        /* \"#utility.yul\":2904:2975   */\n      tag_175\n      jump\t// in\n    tag_174:\n        /* \"#utility.yul\":2897:2975   */\n      swap4\n      pop\n        /* \"#utility.yul\":2984:3036   */\n      tag_176\n        /* \"#utility.yul\":3029:3035   */\n      dup2\n        /* \"#utility.yul\":3024:3027   */\n      dup6\n        /* \"#utility.yul\":3017:3021   */\n      0x20\n        /* \"#utility.yul\":3010:3015   */\n      dup7\n        /* \"#utility.yul\":3006:3022   */\n      add\n        /* \"#utility.yul\":2984:3036   */\n      tag_168\n      jump\t// in\n    tag_176:\n        /* \"#utility.yul\":3061:3090   */\n      tag_177\n        /* \"#utility.yul\":3083:3089   */\n      dup2\n        /* \"#utility.yul\":3061:3090   */\n      tag_170\n      jump\t// in\n    tag_177:\n        /* \"#utility.yul\":3056:3059   */\n      dup5\n        /* \"#utility.yul\":3052:3091   */\n      add\n        /* \"#utility.yul\":3045:3091   */\n      swap2\n      pop\n        /* \"#utility.yul\":2825:3097   */\n      pop\n        /* \"#utility.yul\":2733:3097   */\n      swap3\n      swap2\n      pop\n      pop\n      jump\t// out\n        /* \"#utility.yul\":3103:3469   */\n    tag_178:\n        /* \"#utility.yul\":3245:3248   */\n      0x00\n        /* \"#utility.yul\":3266:3333   */\n      tag_180\n        /* \"#utility.yul\":3330:3332   */\n      0x2b\n        /* \"#utility.yul\":3325:3328   */\n      dup4\n        /* \"#utility.yul\":3266:3333   */\n      tag_175\n      jump\t// in\n    tag_180:\n        /* \"#utility.yul\":3259:3333   */\n      swap2\n      pop\n        /* \"#utility.yul\":3342:3435   */\n      tag_181\n        /* \"#utility.yul\":3431:3434   */\n      dup3\n        /* \"#utility.yul\":3342:3435   */\n      tag_182\n      jump\t// in\n    tag_181:\n        /* \"#utility.yul\":3460:3462   */\n      0x40\n        /* \"#utility.yul\":3455:3458   */\n      dup3\n        /* \"#utility.yul\":3451:3463   */\n      add\n        /* \"#utility.yul\":3444:3463   */\n      swap1\n      pop\n        /* \"#utility.yul\":3103:3469   */\n      swap2\n      swap1\n      pop\n      jump\t// out\n        /* \"#utility.yul\":3475:3841   */\n    tag_183:\n        /* \"#utility.yul\":3617:3620   */\n      0x00\n        /* \"#utility.yul\":3638:3705   */\n      tag_185\n        /* \"#utility.yul\":3702:3704   */\n      0x1e\n        /* \"#utility.yul\":3697:3700   */\n      dup4\n        /* \"#utility.yul\":3638:3705   */\n      tag_175\n      jump\t// in\n    tag_185:\n        /* \"#utility.yul\":3631:3705   */\n      swap2\n      pop\n        /* \"#utility.yul\":3714:3807   */\n      tag_186\n        /* \"#utility.yul\":3803:3806   */\n      dup3\n        /* \"#utility.yul\":3714:3807   */\n      tag_187\n      jump\t// in\n    tag_186:\n        /* \"#utility.yul\":3832:3834   */\n      0x20\n        /* \"#utility.yul\":3827:3830   */\n      dup3\n        /* \"#utility.yul\":3823:3835   */\n      add\n        /* \"#utility.yul\":3816:3835   */\n      swap1\n      pop\n        /* \"#utility.yul\":3475:3841   */\n      swap2\n      swap1\n      pop\n      jump\t// out\n        /* \"#utility.yul\":3847:4213   */\n    tag_188:\n        /* \"#utility.yul\":3989:3992   */\n      0x00\n        /* \"#utility.yul\":4010:4077   */\n      tag_190\n        /* \"#utility.yul\":4074:4076   */\n      0x2f\n        /* \"#utility.yul\":4069:4072   */\n      dup4\n        /* \"#utility.yul\":4010:4077   */\n      tag_175\n      jump\t// in\n    tag_190:\n        /* \"#utility.yul\":4003:4077   */\n      swap2\n      pop\n        /* \"#utility.yul\":4086:4179   */\n      tag_191\n        /* \"#utility.yul\":4175:4178   */\n      dup3\n        /* \"#utility.yul\":4086:4179   */\n      tag_192\n      jump\t// in\n    tag_191:\n        /* \"#utility.yul\":4204:4206   */\n      0x40\n        /* \"#utility.yul\":4199:4202   */\n      dup3\n        /* \"#utility.yul\":4195:4207   */\n      add\n        /* \"#utility.yul\":4188:4207   */\n      swap1\n      pop\n        /* \"#utility.yul\":3847:4213   */\n      swap2\n      swap1\n      pop\n      jump\t// out\n        /* \"#utility.yul\":4219:4585   */\n    tag_193:\n        /* \"#utility.yul\":4361:4364   */\n      0x00\n        /* \"#utility.yul\":4382:4449   */\n      tag_195\n        /* \"#utility.yul\":4446:4448   */\n      0x3e\n        /* \"#utility.yul\":4441:4444   */\n      dup4\n        /* \"#utility.yul\":4382:4449   */\n      tag_175\n      jump\t// in\n    tag_195:\n        /* \"#utility.yul\":4375:4449   */\n      swap2\n      pop\n        /* \"#utility.yul\":4458:4551   */\n      tag_196\n        /* \"#utility.yul\":4547:4550   */\n      dup3\n        /* \"#utility.yul\":4458:4551   */\n      tag_197\n      jump\t// in\n    tag_196:\n        /* \"#utility.yul\":4576:4578   */\n      0x40\n        /* \"#utility.yul\":4571:4574   */\n      dup3\n        /* \"#utility.yul\":4567:4579   */\n      add\n        /* \"#utility.yul\":4560:4579   */\n      swap1\n      pop\n        /* \"#utility.yul\":4219:4585   */\n      swap2\n      swap1\n      pop\n      jump\t// out\n        /* \"#utility.yul\":4635:5411   */\n    tag_198:\n        /* \"#utility.yul\":4746:4749   */\n      0x00\n        /* \"#utility.yul\":4782:4786   */\n      0x60\n        /* \"#utility.yul\":4777:4780   */\n      dup4\n        /* \"#utility.yul\":4773:4787   */\n      add\n        /* \"#utility.yul\":4869:4873   */\n      0x00\n        /* \"#utility.yul\":4862:4867   */\n      dup4\n        /* \"#utility.yul\":4858:4874   */\n      add\n        /* \"#utility.yul\":4852:4875   */\n      mload\n        /* \"#utility.yul\":4922:4925   */\n      dup5\n        /* \"#utility.yul\":4916:4920   */\n      dup3\n        /* \"#utility.yul\":4912:4926   */\n      sub\n        /* \"#utility.yul\":4905:4909   */\n      0x00\n        /* \"#utility.yul\":4900:4903   */\n      dup7\n        /* \"#utility.yul\":4896:4910   */\n      add\n        /* \"#utility.yul\":4889:4927   */\n      mstore\n        /* \"#utility.yul\":4948:5021   */\n      tag_200\n        /* \"#utility.yul\":5016:5020   */\n      dup3\n        /* \"#utility.yul\":5002:5014   */\n      dup3\n        /* \"#utility.yul\":4948:5021   */\n      tag_161\n      jump\t// in\n    tag_200:\n        /* \"#utility.yul\":4940:5021   */\n      swap2\n      pop\n        /* \"#utility.yul\":4797:5032   */\n      pop\n        /* \"#utility.yul\":5123:5127   */\n      0x20\n        /* \"#utility.yul\":5116:5121   */\n      dup4\n        /* \"#utility.yul\":5112:5128   */\n      add\n        /* \"#utility.yul\":5106:5129   */\n      mload\n        /* \"#utility.yul\":5142:5205   */\n      tag_201\n        /* \"#utility.yul\":5199:5203   */\n      0x20\n        /* \"#utility.yul\":5194:5197   */\n      dup7\n        /* \"#utility.yul\":5190:5204   */\n      add\n        /* \"#utility.yul\":5176:5188   */\n      dup3\n        /* \"#utility.yul\":5142:5205   */\n      tag_147\n      jump\t// in\n    tag_201:\n        /* \"#utility.yul\":5042:5215   */\n      pop\n        /* \"#utility.yul\":5298:5302   */\n      0x40\n        /* \"#utility.yul\":5291:5296   */\n      dup4\n        /* \"#utility.yul\":5287:5303   */\n      add\n        /* \"#utility.yul\":5281:5304   */\n      mload\n        /* \"#utility.yul\":5317:5374   */\n      tag_202\n        /* \"#utility.yul\":5368:5372   */\n      0x40\n        /* \"#utility.yul\":5363:5366   */\n      dup7\n        /* \"#utility.yul\":5359:5373   */\n      add\n        /* \"#utility.yul\":5345:5357   */\n      dup3\n        /* \"#utility.yul\":5317:5374   */\n      tag_154\n      jump\t// in\n    tag_202:\n        /* \"#utility.yul\":5225:5384   */\n      pop\n        /* \"#utility.yul\":5401:5405   */\n      dup1\n        /* \"#utility.yul\":5394:5405   */\n      swap2\n      pop\n        /* \"#utility.yul\":4751:5411   */\n      pop\n        /* \"#utility.yul\":4635:5411   */\n      swap3\n      swap2\n      pop\n      pop\n      jump\t// out\n        /* \"#utility.yul\":5417:5639   */\n    tag_18:\n        /* \"#utility.yul\":5510:5514   */\n      0x00\n        /* \"#utility.yul\":5548:5550   */\n      0x20\n        /* \"#utility.yul\":5537:5546   */\n      dup3\n        /* \"#utility.yul\":5533:5551   */\n      add\n        /* \"#utility.yul\":5525:5551   */\n      swap1\n      pop\n        /* \"#utility.yul\":5561:5632   */\n      tag_204\n        /* \"#utility.yul\":5629:5630   */\n      0x00\n        /* \"#utility.yul\":5618:5627   */\n      dup4\n        /* \"#utility.yul\":5614:5631   */\n      add\n        /* \"#utility.yul\":5605:5611   */\n      dup5\n        /* \"#utility.yul\":5561:5632   */\n      tag_151\n      jump\t// in\n    tag_204:\n        /* \"#utility.yul\":5417:5639   */\n      swap3\n      swap2\n      pop\n      pop\n      jump\t// out\n        /* \"#utility.yul\":5645:5855   */\n    tag_14:\n        /* \"#utility.yul\":5732:5736   */\n      0x00\n        /* \"#utility.yul\":5770:5772   */\n      0x20\n        /* \"#utility.yul\":5759:5768   */\n      dup3\n        /* \"#utility.yul\":5755:5773   */\n      add\n        /* \"#utility.yul\":5747:5773   */\n      swap1\n      pop\n        /* \"#utility.yul\":5783:5848   */\n      tag_206\n        /* \"#utility.yul\":5845:5846   */\n      0x00\n        /* \"#utility.yul\":5834:5843   */\n      dup4\n        /* \"#utility.yul\":5830:5847   */\n      add\n        /* \"#utility.yul\":5821:5827   */\n      dup5\n        /* \"#utility.yul\":5783:5848   */\n      tag_158\n      jump\t// in\n    tag_206:\n        /* \"#utility.yul\":5645:5855   */\n      swap3\n      swap2\n      pop\n      pop\n      jump\t// out\n        /* \"#utility.yul\":5861:6382   */\n    tag_29:\n        /* \"#utility.yul\":6024:6028   */\n      0x00\n        /* \"#utility.yul\":6062:6064   */\n      0x60\n        /* \"#utility.yul\":6051:6060   */\n      dup3\n        /* \"#utility.yul\":6047:6065   */\n      add\n        /* \"#utility.yul\":6039:6065   */\n      swap1\n      pop\n        /* \"#utility.yul\":6111:6120   */\n      dup2\n        /* \"#utility.yul\":6105:6109   */\n      dup2\n        /* \"#utility.yul\":6101:6121   */\n      sub\n        /* \"#utility.yul\":6097:6098   */\n      0x00\n        /* \"#utility.yul\":6086:6095   */\n      dup4\n        /* \"#utility.yul\":6082:6099   */\n      add\n        /* \"#utility.yul\":6075:6122   */\n      mstore\n        /* \"#utility.yul\":6139:6217   */\n      tag_208\n        /* \"#utility.yul\":6212:6216   */\n      dup2\n        /* \"#utility.yul\":6203:6209   */\n      dup7\n        /* \"#utility.yul\":6139:6217   */\n      tag_171\n      jump\t// in\n    tag_208:\n        /* \"#utility.yul\":6131:6217   */\n      swap1\n      pop\n        /* \"#utility.yul\":6227:6299   */\n      tag_209\n        /* \"#utility.yul\":6295:6297   */\n      0x20\n        /* \"#utility.yul\":6284:6293   */\n      dup4\n        /* \"#utility.yul\":6280:6298   */\n      add\n        /* \"#utility.yul\":6271:6277   */\n      dup6\n        /* \"#utility.yul\":6227:6299   */\n      tag_151\n      jump\t// in\n    tag_209:\n        /* \"#utility.yul\":6309:6375   */\n      tag_210\n        /* \"#utility.yul\":6371:6373   */\n      0x40\n        /* \"#utility.yul\":6360:6369   */\n      dup4\n        /* \"#utility.yul\":6356:6374   */\n      add\n        /* \"#utility.yul\":6347:6353   */\n      dup5\n        /* \"#utility.yul\":6309:6375   */\n      tag_158\n      jump\t// in\n    tag_210:\n        /* \"#utility.yul\":5861:6382   */\n      swap5\n      swap4\n      pop\n      pop\n      pop\n      pop\n      jump\t// out\n        /* \"#utility.yul\":6388:6807   */\n    tag_39:\n        /* \"#utility.yul\":6554:6558   */\n      0x00\n        /* \"#utility.yul\":6592:6594   */\n      0x20\n        /* \"#utility.yul\":6581:6590   */\n      dup3\n        /* \"#utility.yul\":6577:6595   */\n      add\n        /* \"#utility.yul\":6569:6595   */\n      swap1\n      pop\n        /* \"#utility.yul\":6641:6650   */\n      dup2\n        /* \"#utility.yul\":6635:6639   */\n      dup2\n        /* \"#utility.yul\":6631:6651   */\n      sub\n        /* \"#utility.yul\":6627:6628   */\n      0x00\n        /* \"#utility.yul\":6616:6625   */\n      dup4\n        /* \"#utility.yul\":6612:6629   */\n      add\n        /* \"#utility.yul\":6605:6652   */\n      mstore\n        /* \"#utility.yul\":6669:6800   */\n      tag_212\n        /* \"#utility.yul\":6795:6799   */\n      dup2\n        /* \"#utility.yul\":6669:6800   */\n      tag_178\n      jump\t// in\n    tag_212:\n        /* \"#utility.yul\":6661:6800   */\n      swap1\n      pop\n        /* \"#utility.yul\":6388:6807   */\n      swap2\n      swap1\n      pop\n      jump\t// out\n        /* \"#utility.yul\":6813:7232   */\n    tag_65:\n        /* \"#utility.yul\":6979:6983   */\n      0x00\n        /* \"#utility.yul\":7017:7019   */\n      0x20\n        /* \"#utility.yul\":7006:7015   */\n      dup3\n        /* \"#utility.yul\":7002:7020   */\n      add\n        /* \"#utility.yul\":6994:7020   */\n      swap1\n      pop\n        /* \"#utility.yul\":7066:7075   */\n      dup2\n        /* \"#utility.yul\":7060:7064   */\n      dup2\n        /* \"#utility.yul\":7056:7076   */\n      sub\n        /* \"#utility.yul\":7052:7053   */\n      0x00\n        /* \"#utility.yul\":7041:7050   */\n      dup4\n        /* \"#utility.yul\":7037:7054   */\n      add\n        /* \"#utility.yul\":7030:7077   */\n      mstore\n        /* \"#utility.yul\":7094:7225   */\n      tag_214\n        /* \"#utility.yul\":7220:7224   */\n      dup2\n        /* \"#utility.yul\":7094:7225   */\n      tag_183\n      jump\t// in\n    tag_214:\n        /* \"#utility.yul\":7086:7225   */\n      swap1\n      pop\n        /* \"#utility.yul\":6813:7232   */\n      swap2\n      swap1\n      pop\n      jump\t// out\n        /* \"#utility.yul\":7238:7657   */\n    tag_61:\n        /* \"#utility.yul\":7404:7408   */\n      0x00\n        /* \"#utility.yul\":7442:7444   */\n      0x20\n        /* \"#utility.yul\":7431:7440   */\n      dup3\n        /* \"#utility.yul\":7427:7445   */\n      add\n        /* \"#utility.yul\":7419:7445   */\n      swap1\n      pop\n        /* \"#utility.yul\":7491:7500   */\n      dup2\n        /* \"#utility.yul\":7485:7489   */\n      dup2\n        /* \"#utility.yul\":7481:7501   */\n      sub\n        /* \"#utility.yul\":7477:7478   */\n      0x00\n        /* \"#utility.yul\":7466:7475   */\n      dup4\n        /* \"#utility.yul\":7462:7479   */\n      add\n        /* \"#utility.yul\":7455:7502   */\n      mstore\n        /* \"#utility.yul\":7519:7650   */\n      tag_216\n        /* \"#utility.yul\":7645:7649   */\n      dup2\n        /* \"#utility.yul\":7519:7650   */\n      tag_188\n      jump\t// in\n    tag_216:\n        /* \"#utility.yul\":7511:7650   */\n      swap1\n      pop\n        /* \"#utility.yul\":7238:7657   */\n      swap2\n      swap1\n      pop\n      jump\t// out\n        /* \"#utility.yul\":7663:8082   */\n    tag_51:\n        /* \"#utility.yul\":7829:7833   */\n      0x00\n        /* \"#utility.yul\":7867:7869   */\n      0x20\n        /* \"#utility.yul\":7856:7865   */\n      dup3\n        /* \"#utility.yul\":7852:7870   */\n      add\n        /* \"#utility.yul\":7844:7870   */\n      swap1\n      pop\n        /* \"#utility.yul\":7916:7925   */\n      dup2\n        /* \"#utility.yul\":7910:7914   */\n      dup2\n        /* \"#utility.yul\":7906:7926   */\n      sub\n        /* \"#utility.yul\":7902:7903   */\n      0x00\n        /* \"#utility.yul\":7891:7900   */\n      dup4\n        /* \"#utility.yul\":7887:7904   */\n      add\n        /* \"#utility.yul\":7880:7927   */\n      mstore\n        /* \"#utility.yul\":7944:8075   */\n      tag_218\n        /* \"#utility.yul\":8070:8074   */\n      dup2\n        /* \"#utility.yul\":7944:8075   */\n      tag_193\n      jump\t// in\n    tag_218:\n        /* \"#utility.yul\":7936:8075   */\n      swap1\n      pop\n        /* \"#utility.yul\":7663:8082   */\n      swap2\n      swap1\n      pop\n      jump\t// out\n        /* \"#utility.yul\":8088:8445   */\n    tag_34:\n        /* \"#utility.yul\":8223:8227   */\n      0x00\n        /* \"#utility.yul\":8261:8263   */\n      0x20\n        /* \"#utility.yul\":8250:8259   */\n      dup3\n        /* \"#utility.yul\":8246:8264   */\n      add\n        /* \"#utility.yul\":8238:8264   */\n      swap1\n      pop\n        /* \"#utility.yul\":8310:8319   */\n      dup2\n        /* \"#utility.yul\":8304:8308   */\n      dup2\n        /* \"#utility.yul\":8300:8320   */\n      sub\n        /* \"#utility.yul\":8296:8297   */\n      0x00\n        /* \"#utility.yul\":8285:8294   */\n      dup4\n        /* \"#utility.yul\":8281:8298   */\n      add\n        /* \"#utility.yul\":8274:8321   */\n      mstore\n        /* \"#utility.yul\":8338:8438   */\n      tag_220\n        /* \"#utility.yul\":8433:8437   */\n      dup2\n        /* \"#utility.yul\":8424:8430   */\n      dup5\n        /* \"#utility.yul\":8338:8438   */\n      tag_198\n      jump\t// in\n    tag_220:\n        /* \"#utility.yul\":8330:8438   */\n      swap1\n      pop\n        /* \"#utility.yul\":8088:8445   */\n      swap3\n      swap2\n      pop\n      pop\n      jump\t// out\n        /* \"#utility.yul\":8451:8580   */\n    tag_118:\n        /* \"#utility.yul\":8485:8491   */\n      0x00\n        /* \"#utility.yul\":8512:8532   */\n      tag_222\n      tag_223\n      jump\t// in\n    tag_222:\n        /* \"#utility.yul\":8502:8532   */\n      swap1\n      pop\n        /* \"#utility.yul\":8541:8574   */\n      tag_224\n        /* \"#utility.yul\":8569:8573   */\n      dup3\n        /* \"#utility.yul\":8561:8567   */\n      dup3\n        /* \"#utility.yul\":8541:8574   */\n      tag_225\n      jump\t// in\n    tag_224:\n        /* \"#utility.yul\":8451:8580   */\n      swap2\n      swap1\n      pop\n      jump\t// out\n        /* \"#utility.yul\":8586:8661   */\n    tag_223:\n        /* \"#utility.yul\":8619:8625   */\n      0x00\n        /* \"#utility.yul\":8652:8654   */\n      0x40\n        /* \"#utility.yul\":8646:8655   */\n      mload\n        /* \"#utility.yul\":8636:8655   */\n      swap1\n      pop\n        /* \"#utility.yul\":8586:8661   */\n      swap1\n      jump\t// out\n        /* \"#utility.yul\":8667:8975   */\n    tag_117:\n        /* \"#utility.yul\":8729:8733   */\n      0x00\n        /* \"#utility.yul\":8819:8837   */\n      0xffffffffffffffff\n        /* \"#utility.yul\":8811:8817   */\n      dup3\n        /* \"#utility.yul\":8808:8838   */\n      gt\n        /* \"#utility.yul\":8805:8861   */\n      iszero\n      tag_228\n      jumpi\n        /* \"#utility.yul\":8841:8859   */\n      tag_229\n      tag_230\n      jump\t// in\n    tag_229:\n        /* \"#utility.yul\":8805:8861   */\n    tag_228:\n        /* \"#utility.yul\":8879:8908   */\n      tag_231\n        /* \"#utility.yul\":8901:8907   */\n      dup3\n        /* \"#utility.yul\":8879:8908   */\n      tag_170\n      jump\t// in\n    tag_231:\n        /* \"#utility.yul\":8871:8908   */\n      swap1\n      pop\n        /* \"#utility.yul\":8963:8967   */\n      0x20\n        /* \"#utility.yul\":8957:8961   */\n      dup2\n        /* \"#utility.yul\":8953:8968   */\n      add\n        /* \"#utility.yul\":8945:8968   */\n      swap1\n      pop\n        /* \"#utility.yul\":8667:8975   */\n      swap2\n      swap1\n      pop\n      jump\t// out\n        /* \"#utility.yul\":8981:9080   */\n    tag_164:\n        /* \"#utility.yul\":9033:9039   */\n      0x00\n        /* \"#utility.yul\":9067:9072   */\n      dup2\n        /* \"#utility.yul\":9061:9073   */\n      mload\n        /* \"#utility.yul\":9051:9073   */\n      swap1\n      pop\n        /* \"#utility.yul\":8981:9080   */\n      swap2\n      swap1\n      pop\n      jump\t// out\n        /* \"#utility.yul\":9086:9245   */\n    tag_166:\n        /* \"#utility.yul\":9160:9171   */\n      0x00\n        /* \"#utility.yul\":9194:9200   */\n      dup3\n        /* \"#utility.yul\":9189:9192   */\n      dup3\n        /* \"#utility.yul\":9182:9201   */\n      mstore\n        /* \"#utility.yul\":9234:9238   */\n      0x20\n        /* \"#utility.yul\":9229:9232   */\n      dup3\n        /* \"#utility.yul\":9225:9239   */\n      add\n        /* \"#utility.yul\":9210:9239   */\n      swap1\n      pop\n        /* \"#utility.yul\":9086:9245   */\n      swap3\n      swap2\n      pop\n      pop\n      jump\t// out\n        /* \"#utility.yul\":9251:9420   */\n    tag_175:\n        /* \"#utility.yul\":9335:9346   */\n      0x00\n        /* \"#utility.yul\":9369:9375   */\n      dup3\n        /* \"#utility.yul\":9364:9367   */\n      dup3\n        /* \"#utility.yul\":9357:9376   */\n      mstore\n        /* \"#utility.yul\":9409:9413   */\n      0x20\n        /* \"#utility.yul\":9404:9407   */\n      dup3\n        /* \"#utility.yul\":9400:9414   */\n      add\n        /* \"#utility.yul\":9385:9414   */\n      swap1\n      pop\n        /* \"#utility.yul\":9251:9420   */\n      swap3\n      swap2\n      pop\n      pop\n      jump\t// out\n        /* \"#utility.yul\":9426:9522   */\n    tag_150:\n        /* \"#utility.yul\":9463:9470   */\n      0x00\n        /* \"#utility.yul\":9492:9516   */\n      tag_236\n        /* \"#utility.yul\":9510:9515   */\n      dup3\n        /* \"#utility.yul\":9492:9516   */\n      tag_237\n      jump\t// in\n    tag_236:\n        /* \"#utility.yul\":9481:9516   */\n      swap1\n      pop\n        /* \"#utility.yul\":9426:9522   */\n      swap2\n      swap1\n      pop\n      jump\t// out\n        /* \"#utility.yul\":9528:9618   */\n    tag_157:\n        /* \"#utility.yul\":9562:9569   */\n      0x00\n        /* \"#utility.yul\":9605:9610   */\n      dup2\n        /* \"#utility.yul\":9598:9611   */\n      iszero\n        /* \"#utility.yul\":9591:9612   */\n      iszero\n        /* \"#utility.yul\":9580:9612   */\n      swap1\n      pop\n        /* \"#utility.yul\":9528:9618   */\n      swap2\n      swap1\n      pop\n      jump\t// out\n        /* \"#utility.yul\":9624:9750   */\n    tag_237:\n        /* \"#utility.yul\":9661:9668   */\n      0x00\n        /* \"#utility.yul\":9701:9743   */\n      0xffffffffffffffffffffffffffffffffffffffff\n        /* \"#utility.yul\":9694:9699   */\n      dup3\n        /* \"#utility.yul\":9690:9744   */\n      and\n        /* \"#utility.yul\":9679:9744   */\n      swap1\n      pop\n        /* \"#utility.yul\":9624:9750   */\n      swap2\n      swap1\n      pop\n      jump\t// out\n        /* \"#utility.yul\":9756:9910   */\n    tag_123:\n        /* \"#utility.yul\":9840:9846   */\n      dup3\n        /* \"#utility.yul\":9835:9838   */\n      dup2\n        /* \"#utility.yul\":9830:9833   */\n      dup4\n        /* \"#utility.yul\":9817:9847   */\n      calldatacopy\n        /* \"#utility.yul\":9902:9903   */\n      0x00\n        /* \"#utility.yul\":9893:9899   */\n      dup4\n        /* \"#utility.yul\":9888:9891   */\n      dup4\n        /* \"#utility.yul\":9884:9900   */\n      add\n        /* \"#utility.yul\":9877:9904   */\n      mstore\n        /* \"#utility.yul\":9756:9910   */\n      pop\n      pop\n      pop\n      jump\t// out\n        /* \"#utility.yul\":9916:10223   */\n    tag_168:\n        /* \"#utility.yul\":9984:9985   */\n      0x00\n        /* \"#utility.yul\":9994:10107   */\n    tag_242:\n        /* \"#utility.yul\":10008:10014   */\n      dup4\n        /* \"#utility.yul\":10005:10006   */\n      dup2\n        /* \"#utility.yul\":10002:10015   */\n      lt\n        /* \"#utility.yul\":9994:10107   */\n      iszero\n      tag_244\n      jumpi\n        /* \"#utility.yul\":10093:10094   */\n      dup1\n        /* \"#utility.yul\":10088:10091   */\n      dup3\n        /* \"#utility.yul\":10084:10095   */\n      add\n        /* \"#utility.yul\":10078:10096   */\n      mload\n        /* \"#utility.yul\":10074:10075   */\n      dup2\n        /* \"#utility.yul\":10069:10072   */\n      dup5\n        /* \"#utility.yul\":10065:10076   */\n      add\n        /* \"#utility.yul\":10058:10097   */\n      mstore\n        /* \"#utility.yul\":10030:10032   */\n      0x20\n        /* \"#utility.yul\":10027:10028   */\n      dup2\n        /* \"#utility.yul\":10023:10033   */\n      add\n        /* \"#utility.yul\":10018:10033   */\n      swap1\n      pop\n        /* \"#utility.yul\":9994:10107   */\n      jump(tag_242)\n    tag_244:\n        /* \"#utility.yul\":10125:10131   */\n      dup4\n        /* \"#utility.yul\":10122:10123   */\n      dup2\n        /* \"#utility.yul\":10119:10132   */\n      gt\n        /* \"#utility.yul\":10116:10217   */\n      iszero\n      tag_245\n      jumpi\n        /* \"#utility.yul\":10205:10206   */\n      0x00\n        /* \"#utility.yul\":10196:10202   */\n      dup5\n        /* \"#utility.yul\":10191:10194   */\n      dup5\n        /* \"#utility.yul\":10187:10203   */\n      add\n        /* \"#utility.yul\":10180:10207   */\n      mstore\n        /* \"#utility.yul\":10116:10217   */\n    tag_245:\n        /* \"#utility.yul\":9965:10223   */\n      pop\n        /* \"#utility.yul\":9916:10223   */\n      pop\n      pop\n      pop\n      jump\t// out\n        /* \"#utility.yul\":10229:10549   */\n    tag_68:\n        /* \"#utility.yul\":10273:10279   */\n      0x00\n        /* \"#utility.yul\":10310:10311   */\n      0x02\n        /* \"#utility.yul\":10304:10308   */\n      dup3\n        /* \"#utility.yul\":10300:10312   */\n      div\n        /* \"#utility.yul\":10290:10312   */\n      swap1\n      pop\n        /* \"#utility.yul\":10357:10358   */\n      0x01\n        /* \"#utility.yul\":10351:10355   */\n      dup3\n        /* \"#utility.yul\":10347:10359   */\n      and\n        /* \"#utility.yul\":10378:10396   */\n      dup1\n        /* \"#utility.yul\":10368:10449   */\n      tag_247\n      jumpi\n        /* \"#utility.yul\":10434:10438   */\n      0x7f\n        /* \"#utility.yul\":10426:10432   */\n      dup3\n        /* \"#utility.yul\":10422:10439   */\n      and\n        /* \"#utility.yul\":10412:10439   */\n      swap2\n      pop\n        /* \"#utility.yul\":10368:10449   */\n    tag_247:\n        /* \"#utility.yul\":10496:10498   */\n      0x20\n        /* \"#utility.yul\":10488:10494   */\n      dup3\n        /* \"#utility.yul\":10485:10499   */\n      lt\n        /* \"#utility.yul\":10465:10483   */\n      dup2\n        /* \"#utility.yul\":10462:10500   */\n      eq\n        /* \"#utility.yul\":10459:10543   */\n      iszero\n      tag_248\n      jumpi\n        /* \"#utility.yul\":10515:10533   */\n      tag_249\n      tag_250\n      jump\t// in\n    tag_249:\n        /* \"#utility.yul\":10459:10543   */\n    tag_248:\n        /* \"#utility.yul\":10280:10549   */\n      pop\n        /* \"#utility.yul\":10229:10549   */\n      swap2\n      swap1\n      pop\n      jump\t// out\n        /* \"#utility.yul\":10555:10836   */\n    tag_225:\n        /* \"#utility.yul\":10638:10665   */\n      tag_252\n        /* \"#utility.yul\":10660:10664   */\n      dup3\n        /* \"#utility.yul\":10638:10665   */\n      tag_170\n      jump\t// in\n    tag_252:\n        /* \"#utility.yul\":10630:10636   */\n      dup2\n        /* \"#utility.yul\":10626:10666   */\n      add\n        /* \"#utility.yul\":10768:10774   */\n      dup2\n        /* \"#utility.yul\":10756:10766   */\n      dup2\n        /* \"#utility.yul\":10753:10775   */\n      lt\n        /* \"#utility.yul\":10732:10750   */\n      0xffffffffffffffff\n        /* \"#utility.yul\":10720:10730   */\n      dup3\n        /* \"#utility.yul\":10717:10751   */\n      gt\n        /* \"#utility.yul\":10714:10776   */\n      or\n        /* \"#utility.yul\":10711:10799   */\n      iszero\n      tag_253\n      jumpi\n        /* \"#utility.yul\":10779:10797   */\n      tag_254\n      tag_230\n      jump\t// in\n    tag_254:\n        /* \"#utility.yul\":10711:10799   */\n    tag_253:\n        /* \"#utility.yul\":10819:10829   */\n      dup1\n        /* \"#utility.yul\":10815:10817   */\n      0x40\n        /* \"#utility.yul\":10808:10830   */\n      mstore\n        /* \"#utility.yul\":10598:10836   */\n      pop\n        /* \"#utility.yul\":10555:10836   */\n      pop\n      pop\n      jump\t// out\n        /* \"#utility.yul\":10842:11022   */\n    tag_250:\n        /* \"#utility.yul\":10890:10967   */\n      0x4e487b7100000000000000000000000000000000000000000000000000000000\n        /* \"#utility.yul\":10887:10888   */\n      0x00\n        /* \"#utility.yul\":10880:10968   */\n      mstore\n        /* \"#utility.yul\":10987:10991   */\n      0x22\n        /* \"#utility.yul\":10984:10985   */\n      0x04\n        /* \"#utility.yul\":10977:10992   */\n      mstore\n        /* \"#utility.yul\":11011:11015   */\n      0x24\n        /* \"#utility.yul\":11008:11009   */\n      0x00\n        /* \"#utility.yul\":11001:11016   */\n      revert\n        /* \"#utility.yul\":11028:11208   */\n    tag_230:\n        /* \"#utility.yul\":11076:11153   */\n      0x4e487b7100000000000000000000000000000000000000000000000000000000\n        /* \"#utility.yul\":11073:11074   */\n      0x00\n        /* \"#utility.yul\":11066:11154   */\n      mstore\n        /* \"#utility.yul\":11173:11177   */\n      0x41\n        /* \"#utility.yul\":11170:11171   */\n      0x04\n        /* \"#utility.yul\":11163:11178   */\n      mstore\n        /* \"#utility.yul\":11197:11201   */\n      0x24\n        /* \"#utility.yul\":11194:11195   */\n      0x00\n        /* \"#utility.yul\":11187:11202   */\n      revert\n        /* \"#utility.yul\":11214:11331   */\n    tag_132:\n        /* \"#utility.yul\":11323:11324   */\n      0x00\n        /* \"#utility.yul\":11320:11321   */\n      dup1\n        /* \"#utility.yul\":11313:11325   */\n      revert\n        /* \"#utility.yul\":11337:11454   */\n    tag_121:\n        /* \"#utility.yul\":11446:11447   */\n      0x00\n        /* \"#utility.yul\":11443:11444   */\n      dup1\n        /* \"#utility.yul\":11436:11448   */\n      revert\n        /* \"#utility.yul\":11460:11577   */\n    tag_144:\n        /* \"#utility.yul\":11569:11570   */\n      0x00\n        /* \"#utility.yul\":11566:11567   */\n      dup1\n        /* \"#utility.yul\":11559:11571   */\n      revert\n        /* \"#utility.yul\":11583:11700   */\n    tag_137:\n        /* \"#utility.yul\":11692:11693   */\n      0x00\n        /* \"#utility.yul\":11689:11690   */\n      dup1\n        /* \"#utility.yul\":11682:11694   */\n      revert\n        /* \"#utility.yul\":11706:11808   */\n    tag_170:\n        /* \"#utility.yul\":11747:11753   */\n      0x00\n        /* \"#utility.yul\":11798:11800   */\n      0x1f\n        /* \"#utility.yul\":11794:11801   */\n      not\n        /* \"#utility.yul\":11789:11791   */\n      0x1f\n        /* \"#utility.yul\":11782:11787   */\n      dup4\n        /* \"#utility.yul\":11778:11792   */\n      add\n        /* \"#utility.yul\":11774:11802   */\n      and\n        /* \"#utility.yul\":11764:11802   */\n      swap1\n      pop\n        /* \"#utility.yul\":11706:11808   */\n      swap2\n      swap1\n      pop\n      jump\t// out\n        /* \"#utility.yul\":11814:12044   */\n    tag_182:\n        /* \"#utility.yul\":11954:11988   */\n      0x4f6e6c79207468652070726f636573732063616e206578656375746520746869\n        /* \"#utility.yul\":11950:11951   */\n      0x00\n        /* \"#utility.yul\":11942:11948   */\n      dup3\n        /* \"#utility.yul\":11938:11952   */\n      add\n        /* \"#utility.yul\":11931:11989   */\n      mstore\n        /* \"#utility.yul\":12023:12036   */\n      0x73206f7065726174696f6e000000000000000000000000000000000000000000\n        /* \"#utility.yul\":12018:12020   */\n      0x20\n        /* \"#utility.yul\":12010:12016   */\n      dup3\n        /* \"#utility.yul\":12006:12021   */\n      add\n        /* \"#utility.yul\":11999:12037   */\n      mstore\n        /* \"#utility.yul\":11814:12044   */\n      pop\n      jump\t// out\n        /* \"#utility.yul\":12050:12230   */\n    tag_187:\n        /* \"#utility.yul\":12190:12222   */\n      0x54686520636f6e747261637420697320616c7265616479207369676e65640000\n        /* \"#utility.yul\":12186:12187   */\n      0x00\n        /* \"#utility.yul\":12178:12184   */\n      dup3\n        /* \"#utility.yul\":12174:12188   */\n      add\n        /* \"#utility.yul\":12167:12223   */\n      mstore\n        /* \"#utility.yul\":12050:12230   */\n      pop\n      jump\t// out\n        /* \"#utility.yul\":12236:12470   */\n    tag_192:\n        /* \"#utility.yul\":12376:12410   */\n      0x4f6e6c7920746865206170706c69636174696f6e2063616e2065786563757465\n        /* \"#utility.yul\":12372:12373   */\n      0x00\n        /* \"#utility.yul\":12364:12370   */\n      dup3\n        /* \"#utility.yul\":12360:12374   */\n      add\n        /* \"#utility.yul\":12353:12411   */\n      mstore\n        /* \"#utility.yul\":12445:12462   */\n      0x2074686973206f7065726174696f6e0000000000000000000000000000000000\n        /* \"#utility.yul\":12440:12442   */\n      0x20\n        /* \"#utility.yul\":12432:12438   */\n      dup3\n        /* \"#utility.yul\":12428:12443   */\n      add\n        /* \"#utility.yul\":12421:12463   */\n      mstore\n        /* \"#utility.yul\":12236:12470   */\n      pop\n      jump\t// out\n        /* \"#utility.yul\":12476:12725   */\n    tag_197:\n        /* \"#utility.yul\":12616:12650   */\n      0x4f6e6c79207468652070726f63657373206f7220746865206170706c69636174\n        /* \"#utility.yul\":12612:12613   */\n      0x00\n        /* \"#utility.yul\":12604:12610   */\n      dup3\n        /* \"#utility.yul\":12600:12614   */\n      add\n        /* \"#utility.yul\":12593:12651   */\n      mstore\n        /* \"#utility.yul\":12685:12717   */\n      0x696f6e2063616e20657865637574652074686973206f7065726174696f6e0000\n        /* \"#utility.yul\":12680:12682   */\n      0x20\n        /* \"#utility.yul\":12672:12678   */\n      dup3\n        /* \"#utility.yul\":12668:12683   */\n      add\n        /* \"#utility.yul\":12661:12718   */\n      mstore\n        /* \"#utility.yul\":12476:12725   */\n      pop\n      jump\t// out\n        /* \"#utility.yul\":12731:12853   */\n    tag_127:\n        /* \"#utility.yul\":12804:12828   */\n      tag_267\n        /* \"#utility.yul\":12822:12827   */\n      dup2\n        /* \"#utility.yul\":12804:12828   */\n      tag_150\n      jump\t// in\n    tag_267:\n        /* \"#utility.yul\":12797:12802   */\n      dup2\n        /* \"#utility.yul\":12794:12829   */\n      eq\n        /* \"#utility.yul\":12784:12847   */\n      tag_268\n      jumpi\n        /* \"#utility.yul\":12843:12844   */\n      0x00\n        /* \"#utility.yul\":12840:12841   */\n      dup1\n        /* \"#utility.yul\":12833:12845   */\n      revert\n        /* \"#utility.yul\":12784:12847   */\n    tag_268:\n        /* \"#utility.yul\":12731:12853   */\n      pop\n      jump\t// out\n\n    auxdata: 0xa264697066735822122060ffb5c8808b68e423d61bc54c163b6144edc3b9d3004fc915a36a9c0431c2e464736f6c63430008070033\n}\n",
				"bytecode": {
					"linkReferences": {},
					"object": "60806040523480156200001157600080fd5b5060405162001a4738038062001a478339818101604052810190620000379190620005c5565b620000856040518060400160405280600b81526020017f70726f636573734e616d65000000000000000000000000000000000000000000815250336001620003e760201b620009a61760201c565b600080820151816000019080519060200190620000a49291906200042d565b5060208201518160010160006101000a81548173ffffffffffffffffffffffffffffffffffffffff021916908373ffffffffffffffffffffffffffffffffffffffff16021790555060408201518160010160146101000a81548160ff0219169083151502179055509050506200015d6040518060400160405280600f81526020017f6170706c69636174696f6e4e616d650000000000000000000000000000000000815250826000620003e760201b620009a61760201c565b600260008201518160000190805190602001906200017d9291906200042d565b5060208201518160010160006101000a81548173ffffffffffffffffffffffffffffffffffffffff021916908373ffffffffffffffffffffffffffffffffffffffff16021790555060408201518160010160146101000a81548160ff0219169083151502179055509050506000600460003373ffffffffffffffffffffffffffffffffffffffff1673ffffffffffffffffffffffffffffffffffffffff16815260200190815260200160002060008201816000019080546200023f906200062b565b6200024c929190620004be565b506001820160009054906101000a900473ffffffffffffffffffffffffffffffffffffffff168160010160006101000a81548173ffffffffffffffffffffffffffffffffffffffff021916908373ffffffffffffffffffffffffffffffffffffffff1602179055506001820160149054906101000a900460ff168160010160146101000a81548160ff0219169083151502179055509050506002600460008373ffffffffffffffffffffffffffffffffffffffff1673ffffffffffffffffffffffffffffffffffffffff16815260200190815260200160002060008201816000019080546200033b906200062b565b62000348929190620004be565b506001820160009054906101000a900473ffffffffffffffffffffffffffffffffffffffff168160010160006101000a81548173ffffffffffffffffffffffffffffffffffffffff021916908373ffffffffffffffffffffffffffffffffffffffff1602179055506001820160149054906101000a900460ff168160010160146101000a81548160ff02191690831515021790555090505050620006af565b620003f162000556565b60405180606001604052808581526020018473ffffffffffffffffffffffffffffffffffffffff16815260200183151581525090509392505050565b8280546200043b906200062b565b90600052602060002090601f0160209004810192826200045f5760008555620004ab565b82601f106200047a57805160ff1916838001178555620004ab565b82800160010185558215620004ab579182015b82811115620004aa5782518255916020019190600101906200048d565b5b509050620004ba91906200058f565b5090565b828054620004cc906200062b565b90600052602060002090601f016020900481019282620004f0576000855562000543565b82601f1062000503578054855562000543565b828001600101855582156200054357600052602060002091601f016020900482015b828111156200054257825482559160010191906001019062000525565b5b5090506200055291906200058f565b5090565b604051806060016040528060608152602001600073ffffffffffffffffffffffffffffffffffffffff1681526020016000151581525090565b5b80821115620005aa57600081600090555060010162000590565b5090565b600081519050620005bf8162000695565b92915050565b600060208284031215620005de57620005dd62000690565b5b6000620005ee84828501620005ae565b91505092915050565b600062000604826200060b565b9050919050565b600073ffffffffffffffffffffffffffffffffffffffff82169050919050565b600060028204905060018216806200064457607f821691505b602082108114156200065b576200065a62000661565b5b50919050565b7f4e487b7100000000000000000000000000000000000000000000000000000000600052602260045260246000fd5b600080fd5b620006a081620005f7565b8114620006ac57600080fd5b50565b61138880620006bf6000396000f3fe608060405234801561001057600080fd5b50600436106100625760003560e01c80635e744c6a1461006757806370d8915a1461009757806385931911146100b5578063b8b4f1a0146100d3578063d982b5e3146100dd578063fb6f82431461010f575b600080fd5b610081600480360381019061007c9190610d40565b61013f565b60405161008e9190610f41565b60405180910390f35b61009f610330565b6040516100ac9190610f26565b60405180910390f35b6100bd61044b565b6040516100ca9190610f26565b60405180910390f35b6100db610566565b005b6100f760048036038101906100f29190610d13565b61067d565b60405161010693929190610f5c565b60405180910390f35b61012960048036038101906101249190610d13565b61075c565b604051610136919061101a565b60405180910390f35b60003373ffffffffffffffffffffffffffffffffffffffff16600060010160009054906101000a900473ffffffffffffffffffffffffffffffffffffffff1673ffffffffffffffffffffffffffffffffffffffff16146101d4576040517f08c379a00000000000000000000000000000000000000000000000000000000081526004016101cb90610f9a565b60405180910390fd5b60046000600260010160009054906101000a900473ffffffffffffffffffffffffffffffffffffffff1673ffffffffffffffffffffffffffffffffffffffff1673ffffffffffffffffffffffffffffffffffffffff168152602001908152602001600020600080820160006102499190610ae5565b6001820160006101000a81549073ffffffffffffffffffffffffffffffffffffffff02191690556001820160146101000a81549060ff02191690555050610292838360006109a6565b600260008201518160000190805190602001906102b0929190610b25565b5060208201518160010160006101000a81548173ffffffffffffffffffffffffffffffffffffffff021916908373ffffffffffffffffffffffffffffffffffffffff16021790555060408201518160010160146101000a81548160ff0219169083151502179055509050506103268260026109ea565b6001905092915050565b60003373ffffffffffffffffffffffffffffffffffffffff16600260010160009054906101000a900473ffffffffffffffffffffffffffffffffffffffff1673ffffffffffffffffffffffffffffffffffffffff1614806103e157503373ffffffffffffffffffffffffffffffffffffffff16600060010160009054906101000a900473ffffffffffffffffffffffffffffffffffffffff1673ffffffffffffffffffffffffffffffffffffffff16145b610420576040517f08c379a000000000000000000000000000000000000000000000000000000000815260040161041790610ffa565b60405180910390fd5b600260010160009054906101000a900473ffffffffffffffffffffffffffffffffffffffff16905090565b60003373ffffffffffffffffffffffffffffffffffffffff16600260010160009054906101000a900473ffffffffffffffffffffffffffffffffffffffff1673ffffffffffffffffffffffffffffffffffffffff1614806104fc57503373ffffffffffffffffffffffffffffffffffffffff16600060010160009054906101000a900473ffffffffffffffffffffffffffffffffffffffff1673ffffffffffffffffffffffffffffffffffffffff16145b61053b576040517f08c379a000000000000000000000000000000000000000000000000000000000815260040161053290610ffa565b60405180910390fd5b600060010160009054906101000a900473ffffffffffffffffffffffffffffffffffffffff16905090565b3373ffffffffffffffffffffffffffffffffffffffff16600260010160009054906101000a900473ffffffffffffffffffffffffffffffffffffffff1673ffffffffffffffffffffffffffffffffffffffff16146105f9576040517f08c379a00000000000000000000000000000000000000000000000000000000081526004016105f090610fda565b60405180910390fd5b60001515600260010160149054906101000a900460ff16151514610652576040517f08c379a000000000000000000000000000000000000000000000000000000000815260040161064990610fba565b60405180910390fd5b6001600260010160146101000a81548160ff02191690831515021790555061067b3360026109ea565b565b60046020528060005260406000206000915090508060000180546106a09061113f565b80601f01602080910402602001604051908101604052809291908181526020018280546106cc9061113f565b80156107195780601f106106ee57610100808354040283529160200191610719565b820191906000526020600020905b8154815290600101906020018083116106fc57829003601f168201915b5050505050908060010160009054906101000a900473ffffffffffffffffffffffffffffffffffffffff16908060010160149054906101000a900460ff16905083565b610764610bab565b3373ffffffffffffffffffffffffffffffffffffffff16600260010160009054906101000a900473ffffffffffffffffffffffffffffffffffffffff1673ffffffffffffffffffffffffffffffffffffffff16148061081357503373ffffffffffffffffffffffffffffffffffffffff16600060010160009054906101000a900473ffffffffffffffffffffffffffffffffffffffff1673ffffffffffffffffffffffffffffffffffffffff16145b610852576040517f08c379a000000000000000000000000000000000000000000000000000000000815260040161084990610ffa565b60405180910390fd5b600460008373ffffffffffffffffffffffffffffffffffffffff1673ffffffffffffffffffffffffffffffffffffffff1681526020019081526020016000206040518060600160405290816000820180546108ac9061113f565b80601f01602080910402602001604051908101604052809291908181526020018280546108d89061113f565b80156109255780601f106108fa57610100808354040283529160200191610925565b820191906000526020600020905b81548152906001019060200180831161090857829003601f168201915b505050505081526020016001820160009054906101000a900473ffffffffffffffffffffffffffffffffffffffff1673ffffffffffffffffffffffffffffffffffffffff1673ffffffffffffffffffffffffffffffffffffffff1681526020016001820160149054906101000a900460ff1615151515815250509050919050565b6109ae610bab565b60405180606001604052808581526020018473ffffffffffffffffffffffffffffffffffffffff16815260200183151581525090509392505050565b80600460008473ffffffffffffffffffffffffffffffffffffffff1673ffffffffffffffffffffffffffffffffffffffff1681526020019081526020016000206000820181600001908054610a3e9061113f565b610a49929190610be4565b506001820160009054906101000a900473ffffffffffffffffffffffffffffffffffffffff168160010160006101000a81548173ffffffffffffffffffffffffffffffffffffffff021916908373ffffffffffffffffffffffffffffffffffffffff1602179055506001820160149054906101000a900460ff168160010160146101000a81548160ff0219169083151502179055509050505050565b508054610af19061113f565b6000825580601f10610b035750610b22565b601f016020900490600052602060002090810190610b219190610c71565b5b50565b828054610b319061113f565b90600052602060002090601f016020900481019282610b535760008555610b9a565b82601f10610b6c57805160ff1916838001178555610b9a565b82800160010185558215610b9a579182015b82811115610b99578251825591602001919060010190610b7e565b5b509050610ba79190610c71565b5090565b604051806060016040528060608152602001600073ffffffffffffffffffffffffffffffffffffffff1681526020016000151581525090565b828054610bf09061113f565b90600052602060002090601f016020900481019282610c125760008555610c60565b82601f10610c235780548555610c60565b82800160010185558215610c6057600052602060002091601f016020900482015b82811115610c5f578254825591600101919060010190610c44565b5b509050610c6d9190610c71565b5090565b5b80821115610c8a576000816000905550600101610c72565b5090565b6000610ca1610c9c84611061565b61103c565b905082815260208101848484011115610cbd57610cbc611205565b5b610cc88482856110fd565b509392505050565b600081359050610cdf8161133b565b92915050565b600082601f830112610cfa57610cf9611200565b5b8135610d0a848260208601610c8e565b91505092915050565b600060208284031215610d2957610d2861120f565b5b6000610d3784828501610cd0565b91505092915050565b60008060408385031215610d5757610d5661120f565b5b600083013567ffffffffffffffff811115610d7557610d7461120a565b5b610d8185828601610ce5565b9250506020610d9285828601610cd0565b9150509250929050565b610da5816110bf565b82525050565b610db4816110bf565b82525050565b610dc3816110d1565b82525050565b610dd2816110d1565b82525050565b6000610de382611092565b610ded818561109d565b9350610dfd81856020860161110c565b610e0681611214565b840191505092915050565b6000610e1c82611092565b610e2681856110ae565b9350610e3681856020860161110c565b610e3f81611214565b840191505092915050565b6000610e57602b836110ae565b9150610e6282611225565b604082019050919050565b6000610e7a601e836110ae565b9150610e8582611274565b602082019050919050565b6000610e9d602f836110ae565b9150610ea88261129d565b604082019050919050565b6000610ec0603e836110ae565b9150610ecb826112ec565b604082019050919050565b60006060830160008301518482036000860152610ef38282610dd8565b9150506020830151610f086020860182610d9c565b506040830151610f1b6040860182610dba565b508091505092915050565b6000602082019050610f3b6000830184610dab565b92915050565b6000602082019050610f566000830184610dc9565b92915050565b60006060820190508181036000830152610f768186610e11565b9050610f856020830185610dab565b610f926040830184610dc9565b949350505050565b60006020820190508181036000830152610fb381610e4a565b9050919050565b60006020820190508181036000830152610fd381610e6d565b9050919050565b60006020820190508181036000830152610ff381610e90565b9050919050565b6000602082019050818103600083015261101381610eb3565b9050919050565b600060208201905081810360008301526110348184610ed6565b905092915050565b6000611046611057565b90506110528282611171565b919050565b6000604051905090565b600067ffffffffffffffff82111561107c5761107b6111d1565b5b61108582611214565b9050602081019050919050565b600081519050919050565b600082825260208201905092915050565b600082825260208201905092915050565b60006110ca826110dd565b9050919050565b60008115159050919050565b600073ffffffffffffffffffffffffffffffffffffffff82169050919050565b82818337600083830152505050565b60005b8381101561112a57808201518184015260208101905061110f565b83811115611139576000848401525b50505050565b6000600282049050600182168061115757607f821691505b6020821081141561116b5761116a6111a2565b5b50919050565b61117a82611214565b810181811067ffffffffffffffff82111715611199576111986111d1565b5b80604052505050565b7f4e487b7100000000000000000000000000000000000000000000000000000000600052602260045260246000fd5b7f4e487b7100000000000000000000000000000000000000000000000000000000600052604160045260246000fd5b600080fd5b600080fd5b600080fd5b600080fd5b6000601f19601f8301169050919050565b7f4f6e6c79207468652070726f636573732063616e20657865637574652074686960008201527f73206f7065726174696f6e000000000000000000000000000000000000000000602082015250565b7f54686520636f6e747261637420697320616c7265616479207369676e65640000600082015250565b7f4f6e6c7920746865206170706c69636174696f6e2063616e206578656375746560008201527f2074686973206f7065726174696f6e0000000000000000000000000000000000602082015250565b7f4f6e6c79207468652070726f63657373206f7220746865206170706c6963617460008201527f696f6e2063616e20657865637574652074686973206f7065726174696f6e0000602082015250565b611344816110bf565b811461134f57600080fd5b5056fea264697066735822122060ffb5c8808b68e423d61bc54c163b6144edc3b9d3004fc915a36a9c0431c2e464736f6c63430008070033",
					"opcodes": "PUSH1 0x80 PUSH1 0x40 MSTORE CALLVALUE DUP1 ISZERO PUSH3 0x11 JUMPI PUSH1 0x0 DUP1 REVERT JUMPDEST POP PUSH1 0x40 MLOAD PUSH3 0x1A47 CODESIZE SUB DUP1 PUSH3 0x1A47 DUP4 CODECOPY DUP2 DUP2 ADD PUSH1 0x40 MSTORE DUP2 ADD SWAP1 PUSH3 0x37 SWAP2 SWAP1 PUSH3 0x5C5 JUMP JUMPDEST PUSH3 0x85 PUSH1 0x40 MLOAD DUP1 PUSH1 0x40 ADD PUSH1 0x40 MSTORE DUP1 PUSH1 0xB DUP2 MSTORE PUSH1 0x20 ADD PUSH32 0x70726F636573734E616D65000000000000000000000000000000000000000000 DUP2 MSTORE POP CALLER PUSH1 0x1 PUSH3 0x3E7 PUSH1 0x20 SHL PUSH3 0x9A6 OR PUSH1 0x20 SHR JUMP JUMPDEST PUSH1 0x0 DUP1 DUP3 ADD MLOAD DUP2 PUSH1 0x0 ADD SWAP1 DUP1 MLOAD SWAP1 PUSH1 0x20 ADD SWAP1 PUSH3 0xA4 SWAP3 SWAP2 SWAP1 PUSH3 0x42D JUMP JUMPDEST POP PUSH1 0x20 DUP3 ADD MLOAD DUP2 PUSH1 0x1 ADD PUSH1 0x0 PUSH2 0x100 EXP DUP2 SLOAD DUP2 PUSH20 0xFFFFFFFFFFFFFFFFFFFFFFFFFFFFFFFFFFFFFFFF MUL NOT AND SWAP1 DUP4 PUSH20 0xFFFFFFFFFFFFFFFFFFFFFFFFFFFFFFFFFFFFFFFF AND MUL OR SWAP1 SSTORE POP PUSH1 0x40 DUP3 ADD MLOAD DUP2 PUSH1 0x1 ADD PUSH1 0x14 PUSH2 0x100 EXP DUP2 SLOAD DUP2 PUSH1 0xFF MUL NOT AND SWAP1 DUP4 ISZERO ISZERO MUL OR SWAP1 SSTORE POP SWAP1 POP POP PUSH3 0x15D PUSH1 0x40 MLOAD DUP1 PUSH1 0x40 ADD PUSH1 0x40 MSTORE DUP1 PUSH1 0xF DUP2 MSTORE PUSH1 0x20 ADD PUSH32 0x6170706C69636174696F6E4E616D650000000000000000000000000000000000 DUP2 MSTORE POP DUP3 PUSH1 0x0 PUSH3 0x3E7 PUSH1 0x20 SHL PUSH3 0x9A6 OR PUSH1 0x20 SHR JUMP JUMPDEST PUSH1 0x2 PUSH1 0x0 DUP3 ADD MLOAD DUP2 PUSH1 0x0 ADD SWAP1 DUP1 MLOAD SWAP1 PUSH1 0x20 ADD SWAP1 PUSH3 0x17D SWAP3 SWAP2 SWAP1 PUSH3 0x42D JUMP JUMPDEST POP PUSH1 0x20 DUP3 ADD MLOAD DUP2 PUSH1 0x1 ADD PUSH1 0x0 PUSH2 0x100 EXP DUP2 SLOAD DUP2 PUSH20 0xFFFFFFFFFFFFFFFFFFFFFFFFFFFFFFFFFFFFFFFF MUL NOT AND SWAP1 DUP4 PUSH20 0xFFFFFFFFFFFFFFFFFFFFFFFFFFFFFFFFFFFFFFFF AND MUL OR SWAP1 SSTORE POP PUSH1 0x40 DUP3 ADD MLOAD DUP2 PUSH1 0x1 ADD PUSH1 0x14 PUSH2 0x100 EXP DUP2 SLOAD DUP2 PUSH1 0xFF MUL NOT AND SWAP1 DUP4 ISZERO ISZERO MUL OR SWAP1 SSTORE POP SWAP1 POP POP PUSH1 0x0 PUSH1 0x4 PUSH1 0x0 CALLER PUSH20 0xFFFFFFFFFFFFFFFFFFFFFFFFFFFFFFFFFFFFFFFF AND PUSH20 0xFFFFFFFFFFFFFFFFFFFFFFFFFFFFFFFFFFFFFFFF AND DUP2 MSTORE PUSH1 0x20 ADD SWAP1 DUP2 MSTORE PUSH1 0x20 ADD PUSH1 0x0 KECCAK256 PUSH1 0x0 DUP3 ADD DUP2 PUSH1 0x0 ADD SWAP1 DUP1 SLOAD PUSH3 0x23F SWAP1 PUSH3 0x62B JUMP JUMPDEST PUSH3 0x24C SWAP3 SWAP2 SWAP1 PUSH3 0x4BE JUMP JUMPDEST POP PUSH1 0x1 DUP3 ADD PUSH1 0x0 SWAP1 SLOAD SWAP1 PUSH2 0x100 EXP SWAP1 DIV PUSH20 0xFFFFFFFFFFFFFFFFFFFFFFFFFFFFFFFFFFFFFFFF AND DUP2 PUSH1 0x1 ADD PUSH1 0x0 PUSH2 0x100 EXP DUP2 SLOAD DUP2 PUSH20 0xFFFFFFFFFFFFFFFFFFFFFFFFFFFFFFFFFFFFFFFF MUL NOT AND SWAP1 DUP4 PUSH20 0xFFFFFFFFFFFFFFFFFFFFFFFFFFFFFFFFFFFFFFFF AND MUL OR SWAP1 SSTORE POP PUSH1 0x1 DUP3 ADD PUSH1 0x14 SWAP1 SLOAD SWAP1 PUSH2 0x100 EXP SWAP1 DIV PUSH1 0xFF AND DUP2 PUSH1 0x1 ADD PUSH1 0x14 PUSH2 0x100 EXP DUP2 SLOAD DUP2 PUSH1 0xFF MUL NOT AND SWAP1 DUP4 ISZERO ISZERO MUL OR SWAP1 SSTORE POP SWAP1 POP POP PUSH1 0x2 PUSH1 0x4 PUSH1 0x0 DUP4 PUSH20 0xFFFFFFFFFFFFFFFFFFFFFFFFFFFFFFFFFFFFFFFF AND PUSH20 0xFFFFFFFFFFFFFFFFFFFFFFFFFFFFFFFFFFFFFFFF AND DUP2 MSTORE PUSH1 0x20 ADD SWAP1 DUP2 MSTORE PUSH1 0x20 ADD PUSH1 0x0 KECCAK256 PUSH1 0x0 DUP3 ADD DUP2 PUSH1 0x0 ADD SWAP1 DUP1 SLOAD PUSH3 0x33B SWAP1 PUSH3 0x62B JUMP JUMPDEST PUSH3 0x348 SWAP3 SWAP2 SWAP1 PUSH3 0x4BE JUMP JUMPDEST POP PUSH1 0x1 DUP3 ADD PUSH1 0x0 SWAP1 SLOAD SWAP1 PUSH2 0x100 EXP SWAP1 DIV PUSH20 0xFFFFFFFFFFFFFFFFFFFFFFFFFFFFFFFFFFFFFFFF AND DUP2 PUSH1 0x1 ADD PUSH1 0x0 PUSH2 0x100 EXP DUP2 SLOAD DUP2 PUSH20 0xFFFFFFFFFFFFFFFFFFFFFFFFFFFFFFFFFFFFFFFF MUL NOT AND SWAP1 DUP4 PUSH20 0xFFFFFFFFFFFFFFFFFFFFFFFFFFFFFFFFFFFFFFFF AND MUL OR SWAP1 SSTORE POP PUSH1 0x1 DUP3 ADD PUSH1 0x14 SWAP1 SLOAD SWAP1 PUSH2 0x100 EXP SWAP1 DIV PUSH1 0xFF AND DUP2 PUSH1 0x1 ADD PUSH1 0x14 PUSH2 0x100 EXP DUP2 SLOAD DUP2 PUSH1 0xFF MUL NOT AND SWAP1 DUP4 ISZERO ISZERO MUL OR SWAP1 SSTORE POP SWAP1 POP POP POP PUSH3 0x6AF JUMP JUMPDEST PUSH3 0x3F1 PUSH3 0x556 JUMP JUMPDEST PUSH1 0x40 MLOAD DUP1 PUSH1 0x60 ADD PUSH1 0x40 MSTORE DUP1 DUP6 DUP2 MSTORE PUSH1 0x20 ADD DUP5 PUSH20 0xFFFFFFFFFFFFFFFFFFFFFFFFFFFFFFFFFFFFFFFF AND DUP2 MSTORE PUSH1 0x20 ADD DUP4 ISZERO ISZERO DUP2 MSTORE POP SWAP1 POP SWAP4 SWAP3 POP POP POP JUMP JUMPDEST DUP3 DUP1 SLOAD PUSH3 0x43B SWAP1 PUSH3 0x62B JUMP JUMPDEST SWAP1 PUSH1 0x0 MSTORE PUSH1 0x20 PUSH1 0x0 KECCAK256 SWAP1 PUSH1 0x1F ADD PUSH1 0x20 SWAP1 DIV DUP2 ADD SWAP3 DUP3 PUSH3 0x45F JUMPI PUSH1 0x0 DUP6 SSTORE PUSH3 0x4AB JUMP JUMPDEST DUP3 PUSH1 0x1F LT PUSH3 0x47A JUMPI DUP1 MLOAD PUSH1 0xFF NOT AND DUP4 DUP1 ADD OR DUP6 SSTORE PUSH3 0x4AB JUMP JUMPDEST DUP3 DUP1 ADD PUSH1 0x1 ADD DUP6 SSTORE DUP3 ISZERO PUSH3 0x4AB JUMPI SWAP2 DUP3 ADD JUMPDEST DUP3 DUP2 GT ISZERO PUSH3 0x4AA JUMPI DUP3 MLOAD DUP3 SSTORE SWAP2 PUSH1 0x20 ADD SWAP2 SWAP1 PUSH1 0x1 ADD SWAP1 PUSH3 0x48D JUMP JUMPDEST JUMPDEST POP SWAP1 POP PUSH3 0x4BA SWAP2 SWAP1 PUSH3 0x58F JUMP JUMPDEST POP SWAP1 JUMP JUMPDEST DUP3 DUP1 SLOAD PUSH3 0x4CC SWAP1 PUSH3 0x62B JUMP JUMPDEST SWAP1 PUSH1 0x0 MSTORE PUSH1 0x20 PUSH1 0x0 KECCAK256 SWAP1 PUSH1 0x1F ADD PUSH1 0x20 SWAP1 DIV DUP2 ADD SWAP3 DUP3 PUSH3 0x4F0 JUMPI PUSH1 0x0 DUP6 SSTORE PUSH3 0x543 JUMP JUMPDEST DUP3 PUSH1 0x1F LT PUSH3 0x503 JUMPI DUP1 SLOAD DUP6 SSTORE PUSH3 0x543 JUMP JUMPDEST DUP3 DUP1 ADD PUSH1 0x1 ADD DUP6 SSTORE DUP3 ISZERO PUSH3 0x543 JUMPI PUSH1 0x0 MSTORE PUSH1 0x20 PUSH1 0x0 KECCAK256 SWAP2 PUSH1 0x1F ADD PUSH1 0x20 SWAP1 DIV DUP3 ADD JUMPDEST DUP3 DUP2 GT ISZERO PUSH3 0x542 JUMPI DUP3 SLOAD DUP3 SSTORE SWAP2 PUSH1 0x1 ADD SWAP2 SWAP1 PUSH1 0x1 ADD SWAP1 PUSH3 0x525 JUMP JUMPDEST JUMPDEST POP SWAP1 POP PUSH3 0x552 SWAP2 SWAP1 PUSH3 0x58F JUMP JUMPDEST POP SWAP1 JUMP JUMPDEST PUSH1 0x40 MLOAD DUP1 PUSH1 0x60 ADD PUSH1 0x40 MSTORE DUP1 PUSH1 0x60 DUP2 MSTORE PUSH1 0x20 ADD PUSH1 0x0 PUSH20 0xFFFFFFFFFFFFFFFFFFFFFFFFFFFFFFFFFFFFFFFF AND DUP2 MSTORE PUSH1 0x20 ADD PUSH1 0x0 ISZERO ISZERO DUP2 MSTORE POP SWAP1 JUMP JUMPDEST JUMPDEST DUP1 DUP3 GT ISZERO PUSH3 0x5AA JUMPI PUSH1 0x0 DUP2 PUSH1 0x0 SWAP1 SSTORE POP PUSH1 0x1 ADD PUSH3 0x590 JUMP JUMPDEST POP SWAP1 JUMP JUMPDEST PUSH1 0x0 DUP2 MLOAD SWAP1 POP PUSH3 0x5BF DUP2 PUSH3 0x695 JUMP JUMPDEST SWAP3 SWAP2 POP POP JUMP JUMPDEST PUSH1 0x0 PUSH1 0x20 DUP3 DUP5 SUB SLT ISZERO PUSH3 0x5DE JUMPI PUSH3 0x5DD PUSH3 0x690 JUMP JUMPDEST JUMPDEST PUSH1 0x0 PUSH3 0x5EE DUP5 DUP3 DUP6 ADD PUSH3 0x5AE JUMP JUMPDEST SWAP2 POP POP SWAP3 SWAP2 POP POP JUMP JUMPDEST PUSH1 0x0 PUSH3 0x604 DUP3 PUSH3 0x60B JUMP JUMPDEST SWAP1 POP SWAP2 SWAP1 POP JUMP JUMPDEST PUSH1 0x0 PUSH20 0xFFFFFFFFFFFFFFFFFFFFFFFFFFFFFFFFFFFFFFFF DUP3 AND SWAP1 POP SWAP2 SWAP1 POP JUMP JUMPDEST PUSH1 0x0 PUSH1 0x2 DUP3 DIV SWAP1 POP PUSH1 0x1 DUP3 AND DUP1 PUSH3 0x644 JUMPI PUSH1 0x7F DUP3 AND SWAP2 POP JUMPDEST PUSH1 0x20 DUP3 LT DUP2 EQ ISZERO PUSH3 0x65B JUMPI PUSH3 0x65A PUSH3 0x661 JUMP JUMPDEST JUMPDEST POP SWAP2 SWAP1 POP JUMP JUMPDEST PUSH32 0x4E487B7100000000000000000000000000000000000000000000000000000000 PUSH1 0x0 MSTORE PUSH1 0x22 PUSH1 0x4 MSTORE PUSH1 0x24 PUSH1 0x0 REVERT JUMPDEST PUSH1 0x0 DUP1 REVERT JUMPDEST PUSH3 0x6A0 DUP2 PUSH3 0x5F7 JUMP JUMPDEST DUP2 EQ PUSH3 0x6AC JUMPI PUSH1 0x0 DUP1 REVERT JUMPDEST POP JUMP JUMPDEST PUSH2 0x1388 DUP1 PUSH3 0x6BF PUSH1 0x0 CODECOPY PUSH1 0x0 RETURN INVALID PUSH1 0x80 PUSH1 0x40 MSTORE CALLVALUE DUP1 ISZERO PUSH2 0x10 JUMPI PUSH1 0x0 DUP1 REVERT JUMPDEST POP PUSH1 0x4 CALLDATASIZE LT PUSH2 0x62 JUMPI PUSH1 0x0 CALLDATALOAD PUSH1 0xE0 SHR DUP1 PUSH4 0x5E744C6A EQ PUSH2 0x67 JUMPI DUP1 PUSH4 0x70D8915A EQ PUSH2 0x97 JUMPI DUP1 PUSH4 0x85931911 EQ PUSH2 0xB5 JUMPI DUP1 PUSH4 0xB8B4F1A0 EQ PUSH2 0xD3 JUMPI DUP1 PUSH4 0xD982B5E3 EQ PUSH2 0xDD JUMPI DUP1 PUSH4 0xFB6F8243 EQ PUSH2 0x10F JUMPI JUMPDEST PUSH1 0x0 DUP1 REVERT JUMPDEST PUSH2 0x81 PUSH1 0x4 DUP1 CALLDATASIZE SUB DUP2 ADD SWAP1 PUSH2 0x7C SWAP2 SWAP1 PUSH2 0xD40 JUMP JUMPDEST PUSH2 0x13F JUMP JUMPDEST PUSH1 0x40 MLOAD PUSH2 0x8E SWAP2 SWAP1 PUSH2 0xF41 JUMP JUMPDEST PUSH1 0x40 MLOAD DUP1 SWAP2 SUB SWAP1 RETURN JUMPDEST PUSH2 0x9F PUSH2 0x330 JUMP JUMPDEST PUSH1 0x40 MLOAD PUSH2 0xAC SWAP2 SWAP1 PUSH2 0xF26 JUMP JUMPDEST PUSH1 0x40 MLOAD DUP1 SWAP2 SUB SWAP1 RETURN JUMPDEST PUSH2 0xBD PUSH2 0x44B JUMP JUMPDEST PUSH1 0x40 MLOAD PUSH2 0xCA SWAP2 SWAP1 PUSH2 0xF26 JUMP JUMPDEST PUSH1 0x40 MLOAD DUP1 SWAP2 SUB SWAP1 RETURN JUMPDEST PUSH2 0xDB PUSH2 0x566 JUMP JUMPDEST STOP JUMPDEST PUSH2 0xF7 PUSH1 0x4 DUP1 CALLDATASIZE SUB DUP2 ADD SWAP1 PUSH2 0xF2 SWAP2 SWAP1 PUSH2 0xD13 JUMP JUMPDEST PUSH2 0x67D JUMP JUMPDEST PUSH1 0x40 MLOAD PUSH2 0x106 SWAP4 SWAP3 SWAP2 SWAP1 PUSH2 0xF5C JUMP JUMPDEST PUSH1 0x40 MLOAD DUP1 SWAP2 SUB SWAP1 RETURN JUMPDEST PUSH2 0x129 PUSH1 0x4 DUP1 CALLDATASIZE SUB DUP2 ADD SWAP1 PUSH2 0x124 SWAP2 SWAP1 PUSH2 0xD13 JUMP JUMPDEST PUSH2 0x75C JUMP JUMPDEST PUSH1 0x40 MLOAD PUSH2 0x136 SWAP2 SWAP1 PUSH2 0x101A JUMP JUMPDEST PUSH1 0x40 MLOAD DUP1 SWAP2 SUB SWAP1 RETURN JUMPDEST PUSH1 0x0 CALLER PUSH20 0xFFFFFFFFFFFFFFFFFFFFFFFFFFFFFFFFFFFFFFFF AND PUSH1 0x0 PUSH1 0x1 ADD PUSH1 0x0 SWAP1 SLOAD SWAP1 PUSH2 0x100 EXP SWAP1 DIV PUSH20 0xFFFFFFFFFFFFFFFFFFFFFFFFFFFFFFFFFFFFFFFF AND PUSH20 0xFFFFFFFFFFFFFFFFFFFFFFFFFFFFFFFFFFFFFFFF AND EQ PUSH2 0x1D4 JUMPI PUSH1 0x40 MLOAD PUSH32 0x8C379A000000000000000000000000000000000000000000000000000000000 DUP2 MSTORE PUSH1 0x4 ADD PUSH2 0x1CB SWAP1 PUSH2 0xF9A JUMP JUMPDEST PUSH1 0x40 MLOAD DUP1 SWAP2 SUB SWAP1 REVERT JUMPDEST PUSH1 0x4 PUSH1 0x0 PUSH1 0x2 PUSH1 0x1 ADD PUSH1 0x0 SWAP1 SLOAD SWAP1 PUSH2 0x100 EXP SWAP1 DIV PUSH20 0xFFFFFFFFFFFFFFFFFFFFFFFFFFFFFFFFFFFFFFFF AND PUSH20 0xFFFFFFFFFFFFFFFFFFFFFFFFFFFFFFFFFFFFFFFF AND PUSH20 0xFFFFFFFFFFFFFFFFFFFFFFFFFFFFFFFFFFFFFFFF AND DUP2 MSTORE PUSH1 0x20 ADD SWAP1 DUP2 MSTORE PUSH1 0x20 ADD PUSH1 0x0 KECCAK256 PUSH1 0x0 DUP1 DUP3 ADD PUSH1 0x0 PUSH2 0x249 SWAP2 SWAP1 PUSH2 0xAE5 JUMP JUMPDEST PUSH1 0x1 DUP3 ADD PUSH1 0x0 PUSH2 0x100 EXP DUP2 SLOAD SWAP1 PUSH20 0xFFFFFFFFFFFFFFFFFFFFFFFFFFFFFFFFFFFFFFFF MUL NOT AND SWAP1 SSTORE PUSH1 0x1 DUP3 ADD PUSH1 0x14 PUSH2 0x100 EXP DUP2 SLOAD SWAP1 PUSH1 0xFF MUL NOT AND SWAP1 SSTORE POP POP PUSH2 0x292 DUP4 DUP4 PUSH1 0x0 PUSH2 0x9A6 JUMP JUMPDEST PUSH1 0x2 PUSH1 0x0 DUP3 ADD MLOAD DUP2 PUSH1 0x0 ADD SWAP1 DUP1 MLOAD SWAP1 PUSH1 0x20 ADD SWAP1 PUSH2 0x2B0 SWAP3 SWAP2 SWAP1 PUSH2 0xB25 JUMP JUMPDEST POP PUSH1 0x20 DUP3 ADD MLOAD DUP2 PUSH1 0x1 ADD PUSH1 0x0 PUSH2 0x100 EXP DUP2 SLOAD DUP2 PUSH20 0xFFFFFFFFFFFFFFFFFFFFFFFFFFFFFFFFFFFFFFFF MUL NOT AND SWAP1 DUP4 PUSH20 0xFFFFFFFFFFFFFFFFFFFFFFFFFFFFFFFFFFFFFFFF AND MUL OR SWAP1 SSTORE POP PUSH1 0x40 DUP3 ADD MLOAD DUP2 PUSH1 0x1 ADD PUSH1 0x14 PUSH2 0x100 EXP DUP2 SLOAD DUP2 PUSH1 0xFF MUL NOT AND SWAP1 DUP4 ISZERO ISZERO MUL OR SWAP1 SSTORE POP SWAP1 POP POP PUSH2 0x326 DUP3 PUSH1 0x2 PUSH2 0x9EA JUMP JUMPDEST PUSH1 0x1 SWAP1 POP SWAP3 SWAP2 POP POP JUMP JUMPDEST PUSH1 0x0 CALLER PUSH20 0xFFFFFFFFFFFFFFFFFFFFFFFFFFFFFFFFFFFFFFFF AND PUSH1 0x2 PUSH1 0x1 ADD PUSH1 0x0 SWAP1 SLOAD SWAP1 PUSH2 0x100 EXP SWAP1 DIV PUSH20 0xFFFFFFFFFFFFFFFFFFFFFFFFFFFFFFFFFFFFFFFF AND PUSH20 0xFFFFFFFFFFFFFFFFFFFFFFFFFFFFFFFFFFFFFFFF AND EQ DUP1 PUSH2 0x3E1 JUMPI POP CALLER PUSH20 0xFFFFFFFFFFFFFFFFFFFFFFFFFFFFFFFFFFFFFFFF AND PUSH1 0x0 PUSH1 0x1 ADD PUSH1 0x0 SWAP1 SLOAD SWAP1 PUSH2 0x100 EXP SWAP1 DIV PUSH20 0xFFFFFFFFFFFFFFFFFFFFFFFFFFFFFFFFFFFFFFFF AND PUSH20 0xFFFFFFFFFFFFFFFFFFFFFFFFFFFFFFFFFFFFFFFF AND EQ JUMPDEST PUSH2 0x420 JUMPI PUSH1 0x40 MLOAD PUSH32 0x8C379A000000000000000000000000000000000000000000000000000000000 DUP2 MSTORE PUSH1 0x4 ADD PUSH2 0x417 SWAP1 PUSH2 0xFFA JUMP JUMPDEST PUSH1 0x40 MLOAD DUP1 SWAP2 SUB SWAP1 REVERT JUMPDEST PUSH1 0x2 PUSH1 0x1 ADD PUSH1 0x0 SWAP1 SLOAD SWAP1 PUSH2 0x100 EXP SWAP1 DIV PUSH20 0xFFFFFFFFFFFFFFFFFFFFFFFFFFFFFFFFFFFFFFFF AND SWAP1 POP SWAP1 JUMP JUMPDEST PUSH1 0x0 CALLER PUSH20 0xFFFFFFFFFFFFFFFFFFFFFFFFFFFFFFFFFFFFFFFF AND PUSH1 0x2 PUSH1 0x1 ADD PUSH1 0x0 SWAP1 SLOAD SWAP1 PUSH2 0x100 EXP SWAP1 DIV PUSH20 0xFFFFFFFFFFFFFFFFFFFFFFFFFFFFFFFFFFFFFFFF AND PUSH20 0xFFFFFFFFFFFFFFFFFFFFFFFFFFFFFFFFFFFFFFFF AND EQ DUP1 PUSH2 0x4FC JUMPI POP CALLER PUSH20 0xFFFFFFFFFFFFFFFFFFFFFFFFFFFFFFFFFFFFFFFF AND PUSH1 0x0 PUSH1 0x1 ADD PUSH1 0x0 SWAP1 SLOAD SWAP1 PUSH2 0x100 EXP SWAP1 DIV PUSH20 0xFFFFFFFFFFFFFFFFFFFFFFFFFFFFFFFFFFFFFFFF AND PUSH20 0xFFFFFFFFFFFFFFFFFFFFFFFFFFFFFFFFFFFFFFFF AND EQ JUMPDEST PUSH2 0x53B JUMPI PUSH1 0x40 MLOAD PUSH32 0x8C379A000000000000000000000000000000000000000000000000000000000 DUP2 MSTORE PUSH1 0x4 ADD PUSH2 0x532 SWAP1 PUSH2 0xFFA JUMP JUMPDEST PUSH1 0x40 MLOAD DUP1 SWAP2 SUB SWAP1 REVERT JUMPDEST PUSH1 0x0 PUSH1 0x1 ADD PUSH1 0x0 SWAP1 SLOAD SWAP1 PUSH2 0x100 EXP SWAP1 DIV PUSH20 0xFFFFFFFFFFFFFFFFFFFFFFFFFFFFFFFFFFFFFFFF AND SWAP1 POP SWAP1 JUMP JUMPDEST CALLER PUSH20 0xFFFFFFFFFFFFFFFFFFFFFFFFFFFFFFFFFFFFFFFF AND PUSH1 0x2 PUSH1 0x1 ADD PUSH1 0x0 SWAP1 SLOAD SWAP1 PUSH2 0x100 EXP SWAP1 DIV PUSH20 0xFFFFFFFFFFFFFFFFFFFFFFFFFFFFFFFFFFFFFFFF AND PUSH20 0xFFFFFFFFFFFFFFFFFFFFFFFFFFFFFFFFFFFFFFFF AND EQ PUSH2 0x5F9 JUMPI PUSH1 0x40 MLOAD PUSH32 0x8C379A000000000000000000000000000000000000000000000000000000000 DUP2 MSTORE PUSH1 0x4 ADD PUSH2 0x5F0 SWAP1 PUSH2 0xFDA JUMP JUMPDEST PUSH1 0x40 MLOAD DUP1 SWAP2 SUB SWAP1 REVERT JUMPDEST PUSH1 0x0 ISZERO ISZERO PUSH1 0x2 PUSH1 0x1 ADD PUSH1 0x14 SWAP1 SLOAD SWAP1 PUSH2 0x100 EXP SWAP1 DIV PUSH1 0xFF AND ISZERO ISZERO EQ PUSH2 0x652 JUMPI PUSH1 0x40 MLOAD PUSH32 0x8C379A000000000000000000000000000000000000000000000000000000000 DUP2 MSTORE PUSH1 0x4 ADD PUSH2 0x649 SWAP1 PUSH2 0xFBA JUMP JUMPDEST PUSH1 0x40 MLOAD DUP1 SWAP2 SUB SWAP1 REVERT JUMPDEST PUSH1 0x1 PUSH1 0x2 PUSH1 0x1 ADD PUSH1 0x14 PUSH2 0x100 EXP DUP2 SLOAD DUP2 PUSH1 0xFF MUL NOT AND SWAP1 DUP4 ISZERO ISZERO MUL OR SWAP1 SSTORE POP PUSH2 0x67B CALLER PUSH1 0x2 PUSH2 0x9EA JUMP JUMPDEST JUMP JUMPDEST PUSH1 0x4 PUSH1 0x20 MSTORE DUP1 PUSH1 0x0 MSTORE PUSH1 0x40 PUSH1 0x0 KECCAK256 PUSH1 0x0 SWAP2 POP SWAP1 POP DUP1 PUSH1 0x0 ADD DUP1 SLOAD PUSH2 0x6A0 SWAP1 PUSH2 0x113F JUMP JUMPDEST DUP1 PUSH1 0x1F ADD PUSH1 0x20 DUP1 SWAP2 DIV MUL PUSH1 0x20 ADD PUSH1 0x40 MLOAD SWAP1 DUP2 ADD PUSH1 0x40 MSTORE DUP1 SWAP3 SWAP2 SWAP1 DUP2 DUP2 MSTORE PUSH1 0x20 ADD DUP3 DUP1 SLOAD PUSH2 0x6CC SWAP1 PUSH2 0x113F JUMP JUMPDEST DUP1 ISZERO PUSH2 0x719 JUMPI DUP1 PUSH1 0x1F LT PUSH2 0x6EE JUMPI PUSH2 0x100 DUP1 DUP4 SLOAD DIV MUL DUP4 MSTORE SWAP2 PUSH1 0x20 ADD SWAP2 PUSH2 0x719 JUMP JUMPDEST DUP3 ADD SWAP2 SWAP1 PUSH1 0x0 MSTORE PUSH1 0x20 PUSH1 0x0 KECCAK256 SWAP1 JUMPDEST DUP2 SLOAD DUP2 MSTORE SWAP1 PUSH1 0x1 ADD SWAP1 PUSH1 0x20 ADD DUP1 DUP4 GT PUSH2 0x6FC JUMPI DUP3 SWAP1 SUB PUSH1 0x1F AND DUP3 ADD SWAP2 JUMPDEST POP POP POP POP POP SWAP1 DUP1 PUSH1 0x1 ADD PUSH1 0x0 SWAP1 SLOAD SWAP1 PUSH2 0x100 EXP SWAP1 DIV PUSH20 0xFFFFFFFFFFFFFFFFFFFFFFFFFFFFFFFFFFFFFFFF AND SWAP1 DUP1 PUSH1 0x1 ADD PUSH1 0x14 SWAP1 SLOAD SWAP1 PUSH2 0x100 EXP SWAP1 DIV PUSH1 0xFF AND SWAP1 POP DUP4 JUMP JUMPDEST PUSH2 0x764 PUSH2 0xBAB JUMP JUMPDEST CALLER PUSH20 0xFFFFFFFFFFFFFFFFFFFFFFFFFFFFFFFFFFFFFFFF AND PUSH1 0x2 PUSH1 0x1 ADD PUSH1 0x0 SWAP1 SLOAD SWAP1 PUSH2 0x100 EXP SWAP1 DIV PUSH20 0xFFFFFFFFFFFFFFFFFFFFFFFFFFFFFFFFFFFFFFFF AND PUSH20 0xFFFFFFFFFFFFFFFFFFFFFFFFFFFFFFFFFFFFFFFF AND EQ DUP1 PUSH2 0x813 JUMPI POP CALLER PUSH20 0xFFFFFFFFFFFFFFFFFFFFFFFFFFFFFFFFFFFFFFFF AND PUSH1 0x0 PUSH1 0x1 ADD PUSH1 0x0 SWAP1 SLOAD SWAP1 PUSH2 0x100 EXP SWAP1 DIV PUSH20 0xFFFFFFFFFFFFFFFFFFFFFFFFFFFFFFFFFFFFFFFF AND PUSH20 0xFFFFFFFFFFFFFFFFFFFFFFFFFFFFFFFFFFFFFFFF AND EQ JUMPDEST PUSH2 0x852 JUMPI PUSH1 0x40 MLOAD PUSH32 0x8C379A000000000000000000000000000000000000000000000000000000000 DUP2 MSTORE PUSH1 0x4 ADD PUSH2 0x849 SWAP1 PUSH2 0xFFA JUMP JUMPDEST PUSH1 0x40 MLOAD DUP1 SWAP2 SUB SWAP1 REVERT JUMPDEST PUSH1 0x4 PUSH1 0x0 DUP4 PUSH20 0xFFFFFFFFFFFFFFFFFFFFFFFFFFFFFFFFFFFFFFFF AND PUSH20 0xFFFFFFFFFFFFFFFFFFFFFFFFFFFFFFFFFFFFFFFF AND DUP2 MSTORE PUSH1 0x20 ADD SWAP1 DUP2 MSTORE PUSH1 0x20 ADD PUSH1 0x0 KECCAK256 PUSH1 0x40 MLOAD DUP1 PUSH1 0x60 ADD PUSH1 0x40 MSTORE SWAP1 DUP2 PUSH1 0x0 DUP3 ADD DUP1 SLOAD PUSH2 0x8AC SWAP1 PUSH2 0x113F JUMP JUMPDEST DUP1 PUSH1 0x1F ADD PUSH1 0x20 DUP1 SWAP2 DIV MUL PUSH1 0x20 ADD PUSH1 0x40 MLOAD SWAP1 DUP2 ADD PUSH1 0x40 MSTORE DUP1 SWAP3 SWAP2 SWAP1 DUP2 DUP2 MSTORE PUSH1 0x20 ADD DUP3 DUP1 SLOAD PUSH2 0x8D8 SWAP1 PUSH2 0x113F JUMP JUMPDEST DUP1 ISZERO PUSH2 0x925 JUMPI DUP1 PUSH1 0x1F LT PUSH2 0x8FA JUMPI PUSH2 0x100 DUP1 DUP4 SLOAD DIV MUL DUP4 MSTORE SWAP2 PUSH1 0x20 ADD SWAP2 PUSH2 0x925 JUMP JUMPDEST DUP3 ADD SWAP2 SWAP1 PUSH1 0x0 MSTORE PUSH1 0x20 PUSH1 0x0 KECCAK256 SWAP1 JUMPDEST DUP2 SLOAD DUP2 MSTORE SWAP1 PUSH1 0x1 ADD SWAP1 PUSH1 0x20 ADD DUP1 DUP4 GT PUSH2 0x908 JUMPI DUP3 SWAP1 SUB PUSH1 0x1F AND DUP3 ADD SWAP2 JUMPDEST POP POP POP POP POP DUP2 MSTORE PUSH1 0x20 ADD PUSH1 0x1 DUP3 ADD PUSH1 0x0 SWAP1 SLOAD SWAP1 PUSH2 0x100 EXP SWAP1 DIV PUSH20 0xFFFFFFFFFFFFFFFFFFFFFFFFFFFFFFFFFFFFFFFF AND PUSH20 0xFFFFFFFFFFFFFFFFFFFFFFFFFFFFFFFFFFFFFFFF AND PUSH20 0xFFFFFFFFFFFFFFFFFFFFFFFFFFFFFFFFFFFFFFFF AND DUP2 MSTORE PUSH1 0x20 ADD PUSH1 0x1 DUP3 ADD PUSH1 0x14 SWAP1 SLOAD SWAP1 PUSH2 0x100 EXP SWAP1 DIV PUSH1 0xFF AND ISZERO ISZERO ISZERO ISZERO DUP2 MSTORE POP POP SWAP1 POP SWAP2 SWAP1 POP JUMP JUMPDEST PUSH2 0x9AE PUSH2 0xBAB JUMP JUMPDEST PUSH1 0x40 MLOAD DUP1 PUSH1 0x60 ADD PUSH1 0x40 MSTORE DUP1 DUP6 DUP2 MSTORE PUSH1 0x20 ADD DUP5 PUSH20 0xFFFFFFFFFFFFFFFFFFFFFFFFFFFFFFFFFFFFFFFF AND DUP2 MSTORE PUSH1 0x20 ADD DUP4 ISZERO ISZERO DUP2 MSTORE POP SWAP1 POP SWAP4 SWAP3 POP POP POP JUMP JUMPDEST DUP1 PUSH1 0x4 PUSH1 0x0 DUP5 PUSH20 0xFFFFFFFFFFFFFFFFFFFFFFFFFFFFFFFFFFFFFFFF AND PUSH20 0xFFFFFFFFFFFFFFFFFFFFFFFFFFFFFFFFFFFFFFFF AND DUP2 MSTORE PUSH1 0x20 ADD SWAP1 DUP2 MSTORE PUSH1 0x20 ADD PUSH1 0x0 KECCAK256 PUSH1 0x0 DUP3 ADD DUP2 PUSH1 0x0 ADD SWAP1 DUP1 SLOAD PUSH2 0xA3E SWAP1 PUSH2 0x113F JUMP JUMPDEST PUSH2 0xA49 SWAP3 SWAP2 SWAP1 PUSH2 0xBE4 JUMP JUMPDEST POP PUSH1 0x1 DUP3 ADD PUSH1 0x0 SWAP1 SLOAD SWAP1 PUSH2 0x100 EXP SWAP1 DIV PUSH20 0xFFFFFFFFFFFFFFFFFFFFFFFFFFFFFFFFFFFFFFFF AND DUP2 PUSH1 0x1 ADD PUSH1 0x0 PUSH2 0x100 EXP DUP2 SLOAD DUP2 PUSH20 0xFFFFFFFFFFFFFFFFFFFFFFFFFFFFFFFFFFFFFFFF MUL NOT AND SWAP1 DUP4 PUSH20 0xFFFFFFFFFFFFFFFFFFFFFFFFFFFFFFFFFFFFFFFF AND MUL OR SWAP1 SSTORE POP PUSH1 0x1 DUP3 ADD PUSH1 0x14 SWAP1 SLOAD SWAP1 PUSH2 0x100 EXP SWAP1 DIV PUSH1 0xFF AND DUP2 PUSH1 0x1 ADD PUSH1 0x14 PUSH2 0x100 EXP DUP2 SLOAD DUP2 PUSH1 0xFF MUL NOT AND SWAP1 DUP4 ISZERO ISZERO MUL OR SWAP1 SSTORE POP SWAP1 POP POP POP POP JUMP JUMPDEST POP DUP1 SLOAD PUSH2 0xAF1 SWAP1 PUSH2 0x113F JUMP JUMPDEST PUSH1 0x0 DUP3 SSTORE DUP1 PUSH1 0x1F LT PUSH2 0xB03 JUMPI POP PUSH2 0xB22 JUMP JUMPDEST PUSH1 0x1F ADD PUSH1 0x20 SWAP1 DIV SWAP1 PUSH1 0x0 MSTORE PUSH1 0x20 PUSH1 0x0 KECCAK256 SWAP1 DUP2 ADD SWAP1 PUSH2 0xB21 SWAP2 SWAP1 PUSH2 0xC71 JUMP JUMPDEST JUMPDEST POP JUMP JUMPDEST DUP3 DUP1 SLOAD PUSH2 0xB31 SWAP1 PUSH2 0x113F JUMP JUMPDEST SWAP1 PUSH1 0x0 MSTORE PUSH1 0x20 PUSH1 0x0 KECCAK256 SWAP1 PUSH1 0x1F ADD PUSH1 0x20 SWAP1 DIV DUP2 ADD SWAP3 DUP3 PUSH2 0xB53 JUMPI PUSH1 0x0 DUP6 SSTORE PUSH2 0xB9A JUMP JUMPDEST DUP3 PUSH1 0x1F LT PUSH2 0xB6C JUMPI DUP1 MLOAD PUSH1 0xFF NOT AND DUP4 DUP1 ADD OR DUP6 SSTORE PUSH2 0xB9A JUMP JUMPDEST DUP3 DUP1 ADD PUSH1 0x1 ADD DUP6 SSTORE DUP3 ISZERO PUSH2 0xB9A JUMPI SWAP2 DUP3 ADD JUMPDEST DUP3 DUP2 GT ISZERO PUSH2 0xB99 JUMPI DUP3 MLOAD DUP3 SSTORE SWAP2 PUSH1 0x20 ADD SWAP2 SWAP1 PUSH1 0x1 ADD SWAP1 PUSH2 0xB7E JUMP JUMPDEST JUMPDEST POP SWAP1 POP PUSH2 0xBA7 SWAP2 SWAP1 PUSH2 0xC71 JUMP JUMPDEST POP SWAP1 JUMP JUMPDEST PUSH1 0x40 MLOAD DUP1 PUSH1 0x60 ADD PUSH1 0x40 MSTORE DUP1 PUSH1 0x60 DUP2 MSTORE PUSH1 0x20 ADD PUSH1 0x0 PUSH20 0xFFFFFFFFFFFFFFFFFFFFFFFFFFFFFFFFFFFFFFFF AND DUP2 MSTORE PUSH1 0x20 ADD PUSH1 0x0 ISZERO ISZERO DUP2 MSTORE POP SWAP1 JUMP JUMPDEST DUP3 DUP1 SLOAD PUSH2 0xBF0 SWAP1 PUSH2 0x113F JUMP JUMPDEST SWAP1 PUSH1 0x0 MSTORE PUSH1 0x20 PUSH1 0x0 KECCAK256 SWAP1 PUSH1 0x1F ADD PUSH1 0x20 SWAP1 DIV DUP2 ADD SWAP3 DUP3 PUSH2 0xC12 JUMPI PUSH1 0x0 DUP6 SSTORE PUSH2 0xC60 JUMP JUMPDEST DUP3 PUSH1 0x1F LT PUSH2 0xC23 JUMPI DUP1 SLOAD DUP6 SSTORE PUSH2 0xC60 JUMP JUMPDEST DUP3 DUP1 ADD PUSH1 0x1 ADD DUP6 SSTORE DUP3 ISZERO PUSH2 0xC60 JUMPI PUSH1 0x0 MSTORE PUSH1 0x20 PUSH1 0x0 KECCAK256 SWAP2 PUSH1 0x1F ADD PUSH1 0x20 SWAP1 DIV DUP3 ADD JUMPDEST DUP3 DUP2 GT ISZERO PUSH2 0xC5F JUMPI DUP3 SLOAD DUP3 SSTORE SWAP2 PUSH1 0x1 ADD SWAP2 SWAP1 PUSH1 0x1 ADD SWAP1 PUSH2 0xC44 JUMP JUMPDEST JUMPDEST POP SWAP1 POP PUSH2 0xC6D SWAP2 SWAP1 PUSH2 0xC71 JUMP JUMPDEST POP SWAP1 JUMP JUMPDEST JUMPDEST DUP1 DUP3 GT ISZERO PUSH2 0xC8A JUMPI PUSH1 0x0 DUP2 PUSH1 0x0 SWAP1 SSTORE POP PUSH1 0x1 ADD PUSH2 0xC72 JUMP JUMPDEST POP SWAP1 JUMP JUMPDEST PUSH1 0x0 PUSH2 0xCA1 PUSH2 0xC9C DUP5 PUSH2 0x1061 JUMP JUMPDEST PUSH2 0x103C JUMP JUMPDEST SWAP1 POP DUP3 DUP2 MSTORE PUSH1 0x20 DUP2 ADD DUP5 DUP5 DUP5 ADD GT ISZERO PUSH2 0xCBD JUMPI PUSH2 0xCBC PUSH2 0x1205 JUMP JUMPDEST JUMPDEST PUSH2 0xCC8 DUP5 DUP3 DUP6 PUSH2 0x10FD JUMP JUMPDEST POP SWAP4 SWAP3 POP POP POP JUMP JUMPDEST PUSH1 0x0 DUP2 CALLDATALOAD SWAP1 POP PUSH2 0xCDF DUP2 PUSH2 0x133B JUMP JUMPDEST SWAP3 SWAP2 POP POP JUMP JUMPDEST PUSH1 0x0 DUP3 PUSH1 0x1F DUP4 ADD SLT PUSH2 0xCFA JUMPI PUSH2 0xCF9 PUSH2 0x1200 JUMP JUMPDEST JUMPDEST DUP2 CALLDATALOAD PUSH2 0xD0A DUP5 DUP3 PUSH1 0x20 DUP7 ADD PUSH2 0xC8E JUMP JUMPDEST SWAP2 POP POP SWAP3 SWAP2 POP POP JUMP JUMPDEST PUSH1 0x0 PUSH1 0x20 DUP3 DUP5 SUB SLT ISZERO PUSH2 0xD29 JUMPI PUSH2 0xD28 PUSH2 0x120F JUMP JUMPDEST JUMPDEST PUSH1 0x0 PUSH2 0xD37 DUP5 DUP3 DUP6 ADD PUSH2 0xCD0 JUMP JUMPDEST SWAP2 POP POP SWAP3 SWAP2 POP POP JUMP JUMPDEST PUSH1 0x0 DUP1 PUSH1 0x40 DUP4 DUP6 SUB SLT ISZERO PUSH2 0xD57 JUMPI PUSH2 0xD56 PUSH2 0x120F JUMP JUMPDEST JUMPDEST PUSH1 0x0 DUP4 ADD CALLDATALOAD PUSH8 0xFFFFFFFFFFFFFFFF DUP2 GT ISZERO PUSH2 0xD75 JUMPI PUSH2 0xD74 PUSH2 0x120A JUMP JUMPDEST JUMPDEST PUSH2 0xD81 DUP6 DUP3 DUP7 ADD PUSH2 0xCE5 JUMP JUMPDEST SWAP3 POP POP PUSH1 0x20 PUSH2 0xD92 DUP6 DUP3 DUP7 ADD PUSH2 0xCD0 JUMP JUMPDEST SWAP2 POP POP SWAP3 POP SWAP3 SWAP1 POP JUMP JUMPDEST PUSH2 0xDA5 DUP2 PUSH2 0x10BF JUMP JUMPDEST DUP3 MSTORE POP POP JUMP JUMPDEST PUSH2 0xDB4 DUP2 PUSH2 0x10BF JUMP JUMPDEST DUP3 MSTORE POP POP JUMP JUMPDEST PUSH2 0xDC3 DUP2 PUSH2 0x10D1 JUMP JUMPDEST DUP3 MSTORE POP POP JUMP JUMPDEST PUSH2 0xDD2 DUP2 PUSH2 0x10D1 JUMP JUMPDEST DUP3 MSTORE POP POP JUMP JUMPDEST PUSH1 0x0 PUSH2 0xDE3 DUP3 PUSH2 0x1092 JUMP JUMPDEST PUSH2 0xDED DUP2 DUP6 PUSH2 0x109D JUMP JUMPDEST SWAP4 POP PUSH2 0xDFD DUP2 DUP6 PUSH1 0x20 DUP7 ADD PUSH2 0x110C JUMP JUMPDEST PUSH2 0xE06 DUP2 PUSH2 0x1214 JUMP JUMPDEST DUP5 ADD SWAP2 POP POP SWAP3 SWAP2 POP POP JUMP JUMPDEST PUSH1 0x0 PUSH2 0xE1C DUP3 PUSH2 0x1092 JUMP JUMPDEST PUSH2 0xE26 DUP2 DUP6 PUSH2 0x10AE JUMP JUMPDEST SWAP4 POP PUSH2 0xE36 DUP2 DUP6 PUSH1 0x20 DUP7 ADD PUSH2 0x110C JUMP JUMPDEST PUSH2 0xE3F DUP2 PUSH2 0x1214 JUMP JUMPDEST DUP5 ADD SWAP2 POP POP SWAP3 SWAP2 POP POP JUMP JUMPDEST PUSH1 0x0 PUSH2 0xE57 PUSH1 0x2B DUP4 PUSH2 0x10AE JUMP JUMPDEST SWAP2 POP PUSH2 0xE62 DUP3 PUSH2 0x1225 JUMP JUMPDEST PUSH1 0x40 DUP3 ADD SWAP1 POP SWAP2 SWAP1 POP JUMP JUMPDEST PUSH1 0x0 PUSH2 0xE7A PUSH1 0x1E DUP4 PUSH2 0x10AE JUMP JUMPDEST SWAP2 POP PUSH2 0xE85 DUP3 PUSH2 0x1274 JUMP JUMPDEST PUSH1 0x20 DUP3 ADD SWAP1 POP SWAP2 SWAP1 POP JUMP JUMPDEST PUSH1 0x0 PUSH2 0xE9D PUSH1 0x2F DUP4 PUSH2 0x10AE JUMP JUMPDEST SWAP2 POP PUSH2 0xEA8 DUP3 PUSH2 0x129D JUMP JUMPDEST PUSH1 0x40 DUP3 ADD SWAP1 POP SWAP2 SWAP1 POP JUMP JUMPDEST PUSH1 0x0 PUSH2 0xEC0 PUSH1 0x3E DUP4 PUSH2 0x10AE JUMP JUMPDEST SWAP2 POP PUSH2 0xECB DUP3 PUSH2 0x12EC JUMP JUMPDEST PUSH1 0x40 DUP3 ADD SWAP1 POP SWAP2 SWAP1 POP JUMP JUMPDEST PUSH1 0x0 PUSH1 0x60 DUP4 ADD PUSH1 0x0 DUP4 ADD MLOAD DUP5 DUP3 SUB PUSH1 0x0 DUP7 ADD MSTORE PUSH2 0xEF3 DUP3 DUP3 PUSH2 0xDD8 JUMP JUMPDEST SWAP2 POP POP PUSH1 0x20 DUP4 ADD MLOAD PUSH2 0xF08 PUSH1 0x20 DUP7 ADD DUP3 PUSH2 0xD9C JUMP JUMPDEST POP PUSH1 0x40 DUP4 ADD MLOAD PUSH2 0xF1B PUSH1 0x40 DUP7 ADD DUP3 PUSH2 0xDBA JUMP JUMPDEST POP DUP1 SWAP2 POP POP SWAP3 SWAP2 POP POP JUMP JUMPDEST PUSH1 0x0 PUSH1 0x20 DUP3 ADD SWAP1 POP PUSH2 0xF3B PUSH1 0x0 DUP4 ADD DUP5 PUSH2 0xDAB JUMP JUMPDEST SWAP3 SWAP2 POP POP JUMP JUMPDEST PUSH1 0x0 PUSH1 0x20 DUP3 ADD SWAP1 POP PUSH2 0xF56 PUSH1 0x0 DUP4 ADD DUP5 PUSH2 0xDC9 JUMP JUMPDEST SWAP3 SWAP2 POP POP JUMP JUMPDEST PUSH1 0x0 PUSH1 0x60 DUP3 ADD SWAP1 POP DUP2 DUP2 SUB PUSH1 0x0 DUP4 ADD MSTORE PUSH2 0xF76 DUP2 DUP7 PUSH2 0xE11 JUMP JUMPDEST SWAP1 POP PUSH2 0xF85 PUSH1 0x20 DUP4 ADD DUP6 PUSH2 0xDAB JUMP JUMPDEST PUSH2 0xF92 PUSH1 0x40 DUP4 ADD DUP5 PUSH2 0xDC9 JUMP JUMPDEST SWAP5 SWAP4 POP POP POP POP JUMP JUMPDEST PUSH1 0x0 PUSH1 0x20 DUP3 ADD SWAP1 POP DUP2 DUP2 SUB PUSH1 0x0 DUP4 ADD MSTORE PUSH2 0xFB3 DUP2 PUSH2 0xE4A JUMP JUMPDEST SWAP1 POP SWAP2 SWAP1 POP JUMP JUMPDEST PUSH1 0x0 PUSH1 0x20 DUP3 ADD SWAP1 POP DUP2 DUP2 SUB PUSH1 0x0 DUP4 ADD MSTORE PUSH2 0xFD3 DUP2 PUSH2 0xE6D JUMP JUMPDEST SWAP1 POP SWAP2 SWAP1 POP JUMP JUMPDEST PUSH1 0x0 PUSH1 0x20 DUP3 ADD SWAP1 POP DUP2 DUP2 SUB PUSH1 0x0 DUP4 ADD MSTORE PUSH2 0xFF3 DUP2 PUSH2 0xE90 JUMP JUMPDEST SWAP1 POP SWAP2 SWAP1 POP JUMP JUMPDEST PUSH1 0x0 PUSH1 0x20 DUP3 ADD SWAP1 POP DUP2 DUP2 SUB PUSH1 0x0 DUP4 ADD MSTORE PUSH2 0x1013 DUP2 PUSH2 0xEB3 JUMP JUMPDEST SWAP1 POP SWAP2 SWAP1 POP JUMP JUMPDEST PUSH1 0x0 PUSH1 0x20 DUP3 ADD SWAP1 POP DUP2 DUP2 SUB PUSH1 0x0 DUP4 ADD MSTORE PUSH2 0x1034 DUP2 DUP5 PUSH2 0xED6 JUMP JUMPDEST SWAP1 POP SWAP3 SWAP2 POP POP JUMP JUMPDEST PUSH1 0x0 PUSH2 0x1046 PUSH2 0x1057 JUMP JUMPDEST SWAP1 POP PUSH2 0x1052 DUP3 DUP3 PUSH2 0x1171 JUMP JUMPDEST SWAP2 SWAP1 POP JUMP JUMPDEST PUSH1 0x0 PUSH1 0x40 MLOAD SWAP1 POP SWAP1 JUMP JUMPDEST PUSH1 0x0 PUSH8 0xFFFFFFFFFFFFFFFF DUP3 GT ISZERO PUSH2 0x107C JUMPI PUSH2 0x107B PUSH2 0x11D1 JUMP JUMPDEST JUMPDEST PUSH2 0x1085 DUP3 PUSH2 0x1214 JUMP JUMPDEST SWAP1 POP PUSH1 0x20 DUP2 ADD SWAP1 POP SWAP2 SWAP1 POP JUMP JUMPDEST PUSH1 0x0 DUP2 MLOAD SWAP1 POP SWAP2 SWAP1 POP JUMP JUMPDEST PUSH1 0x0 DUP3 DUP3 MSTORE PUSH1 0x20 DUP3 ADD SWAP1 POP SWAP3 SWAP2 POP POP JUMP JUMPDEST PUSH1 0x0 DUP3 DUP3 MSTORE PUSH1 0x20 DUP3 ADD SWAP1 POP SWAP3 SWAP2 POP POP JUMP JUMPDEST PUSH1 0x0 PUSH2 0x10CA DUP3 PUSH2 0x10DD JUMP JUMPDEST SWAP1 POP SWAP2 SWAP1 POP JUMP JUMPDEST PUSH1 0x0 DUP2 ISZERO ISZERO SWAP1 POP SWAP2 SWAP1 POP JUMP JUMPDEST PUSH1 0x0 PUSH20 0xFFFFFFFFFFFFFFFFFFFFFFFFFFFFFFFFFFFFFFFF DUP3 AND SWAP1 POP SWAP2 SWAP1 POP JUMP JUMPDEST DUP3 DUP2 DUP4 CALLDATACOPY PUSH1 0x0 DUP4 DUP4 ADD MSTORE POP POP POP JUMP JUMPDEST PUSH1 0x0 JUMPDEST DUP4 DUP2 LT ISZERO PUSH2 0x112A JUMPI DUP1 DUP3 ADD MLOAD DUP2 DUP5 ADD MSTORE PUSH1 0x20 DUP2 ADD SWAP1 POP PUSH2 0x110F JUMP JUMPDEST DUP4 DUP2 GT ISZERO PUSH2 0x1139 JUMPI PUSH1 0x0 DUP5 DUP5 ADD MSTORE JUMPDEST POP POP POP POP JUMP JUMPDEST PUSH1 0x0 PUSH1 0x2 DUP3 DIV SWAP1 POP PUSH1 0x1 DUP3 AND DUP1 PUSH2 0x1157 JUMPI PUSH1 0x7F DUP3 AND SWAP2 POP JUMPDEST PUSH1 0x20 DUP3 LT DUP2 EQ ISZERO PUSH2 0x116B JUMPI PUSH2 0x116A PUSH2 0x11A2 JUMP JUMPDEST JUMPDEST POP SWAP2 SWAP1 POP JUMP JUMPDEST PUSH2 0x117A DUP3 PUSH2 0x1214 JUMP JUMPDEST DUP2 ADD DUP2 DUP2 LT PUSH8 0xFFFFFFFFFFFFFFFF DUP3 GT OR ISZERO PUSH2 0x1199 JUMPI PUSH2 0x1198 PUSH2 0x11D1 JUMP JUMPDEST JUMPDEST DUP1 PUSH1 0x40 MSTORE POP POP POP JUMP JUMPDEST PUSH32 0x4E487B7100000000000000000000000000000000000000000000000000000000 PUSH1 0x0 MSTORE PUSH1 0x22 PUSH1 0x4 MSTORE PUSH1 0x24 PUSH1 0x0 REVERT JUMPDEST PUSH32 0x4E487B7100000000000000000000000000000000000000000000000000000000 PUSH1 0x0 MSTORE PUSH1 0x41 PUSH1 0x4 MSTORE PUSH1 0x24 PUSH1 0x0 REVERT JUMPDEST PUSH1 0x0 DUP1 REVERT JUMPDEST PUSH1 0x0 DUP1 REVERT JUMPDEST PUSH1 0x0 DUP1 REVERT JUMPDEST PUSH1 0x0 DUP1 REVERT JUMPDEST PUSH1 0x0 PUSH1 0x1F NOT PUSH1 0x1F DUP4 ADD AND SWAP1 POP SWAP2 SWAP1 POP JUMP JUMPDEST PUSH32 0x4F6E6C79207468652070726F636573732063616E206578656375746520746869 PUSH1 0x0 DUP3 ADD MSTORE PUSH32 0x73206F7065726174696F6E000000000000000000000000000000000000000000 PUSH1 0x20 DUP3 ADD MSTORE POP JUMP JUMPDEST PUSH32 0x54686520636F6E747261637420697320616C7265616479207369676E65640000 PUSH1 0x0 DUP3 ADD MSTORE POP JUMP JUMPDEST PUSH32 0x4F6E6C7920746865206170706C69636174696F6E2063616E2065786563757465 PUSH1 0x0 DUP3 ADD MSTORE PUSH32 0x2074686973206F7065726174696F6E0000000000000000000000000000000000 PUSH1 0x20 DUP3 ADD MSTORE POP JUMP JUMPDEST PUSH32 0x4F6E6C79207468652070726F63657373206F7220746865206170706C69636174 PUSH1 0x0 DUP3 ADD MSTORE PUSH32 0x696F6E2063616E20657865637574652074686973206F7065726174696F6E0000 PUSH1 0x20 DUP3 ADD MSTORE POP JUMP JUMPDEST PUSH2 0x1344 DUP2 PUSH2 0x10BF JUMP JUMPDEST DUP2 EQ PUSH2 0x134F JUMPI PUSH1 0x0 DUP1 REVERT JUMPDEST POP JUMP INVALID LOG2 PUSH5 0x6970667358 0x22 SLT KECCAK256 PUSH1 0xFF 0xB5 0xC8 DUP1 DUP12 PUSH9 0xE423D61BC54C163B61 DIFFICULTY 0xED 0xC3 0xB9 0xD3 STOP 0x4F 0xC9 ISZERO LOG3 PUSH11 0x9C0431C2E464736F6C6343 STOP ADDMOD SMOD STOP CALLER "
				},
				"gasEstimates": {
					"creation": {
						"codeDepositCost": "1000000",
						"executionCost": "infinite",
						"totalCost": "infinite"
					},
					"external": {
						"changeApplicationParty(string,address)": "infinite",
						"getApplicationAddress()": "6885",
						"getParty(address)": "infinite",
						"getProcessAddress()": "6907",
						"mapParty(address)": "infinite",
						"signContract()": "infinite"
					},
					"internal": {
						"updateMapParty(address,struct EAI.Party storage pointer)": "infinite"
					}
				},
				"methodIdentifiers": {
					"changeApplicationParty(string,address)": "5e744c6a",
					"getApplicationAddress()": "70d8915a",
					"getParty(address)": "fb6f8243",
					"getProcessAddress()": "85931911",
					"mapParty(address)": "d982b5e3",
					"signContract()": "b8b4f1a0"
				}
			},
			"storageLayout": {
				"storage": [
					{
						"astId": 1772,
						"contract": "contracts/lib/referencesCode-eai/Party_refCod.sol:Party_refCod",
						"label": "process",
						"offset": 0,
						"slot": "0",
						"type": "t_struct(Party)69_storage"
					},
					{
						"astId": 1775,
						"contract": "contracts/lib/referencesCode-eai/Party_refCod.sol:Party_refCod",
						"label": "application",
						"offset": 0,
						"slot": "2",
						"type": "t_struct(Party)69_storage"
					},
					{
						"astId": 1780,
						"contract": "contracts/lib/referencesCode-eai/Party_refCod.sol:Party_refCod",
						"label": "mapParty",
						"offset": 0,
						"slot": "4",
						"type": "t_mapping(t_address,t_struct(Party)69_storage)"
					}
				],
				"types": {
					"t_address": {
						"encoding": "inplace",
						"label": "address",
						"numberOfBytes": "20"
					},
					"t_bool": {
						"encoding": "inplace",
						"label": "bool",
						"numberOfBytes": "1"
					},
					"t_mapping(t_address,t_struct(Party)69_storage)": {
						"encoding": "mapping",
						"key": "t_address",
						"label": "mapping(address => struct EAI.Party)",
						"numberOfBytes": "32",
						"value": "t_struct(Party)69_storage"
					},
					"t_string_storage": {
						"encoding": "bytes",
						"label": "string",
						"numberOfBytes": "32"
					},
					"t_struct(Party)69_storage": {
						"encoding": "inplace",
						"label": "struct EAI.Party",
						"members": [
							{
								"astId": 64,
								"contract": "contracts/lib/referencesCode-eai/Party_refCod.sol:Party_refCod",
								"label": "name",
								"offset": 0,
								"slot": "0",
								"type": "t_string_storage"
							},
							{
								"astId": 66,
								"contract": "contracts/lib/referencesCode-eai/Party_refCod.sol:Party_refCod",
								"label": "walletAddress",
								"offset": 0,
								"slot": "1",
								"type": "t_address"
							},
							{
								"astId": 68,
								"contract": "contracts/lib/referencesCode-eai/Party_refCod.sol:Party_refCod",
								"label": "aware",
								"offset": 20,
								"slot": "1",
								"type": "t_bool"
							}
						],
						"numberOfBytes": "64"
					}
				}
			},
			"userdoc": {
				"kind": "user",
				"methods": {},
				"version": 1
			}
		}
	}
}