{
	"contracts/lib/eai/EAI.sol": {
		"EAI": {
			"abi": [
				{
					"inputs": [
						{
							"internalType": "string",
							"name": "str",
							"type": "string"
						}
					],
					"name": "isNumber",
					"outputs": [
						{
							"internalType": "bool",
							"name": "",
							"type": "bool"
						}
					],
					"stateMutability": "pure",
					"type": "function"
				}
			],
			"devdoc": {
				"kind": "dev",
				"methods": {},
				"version": 1
			},
			"evm": {
				"assembly": "    /* \"contracts/lib/eai/EAI.sol\":114:25478  library EAI{    \r... */\n  dataSize(sub_0)\n  dataOffset(sub_0)\n  0x0b\n  dup3\n  dup3\n  dup3\n  codecopy\n  dup1\n  mload\n  0x00\n  byte\n  0x73\n  eq\n  tag_1\n  jumpi\n  mstore(0x00, 0x4e487b7100000000000000000000000000000000000000000000000000000000)\n  mstore(0x04, 0x00)\n  revert(0x00, 0x24)\ntag_1:\n  mstore(0x00, address)\n  0x73\n  dup2\n  mstore8\n  dup3\n  dup2\n  return\nstop\n\nsub_0: assembly {\n        /* \"contracts/lib/eai/EAI.sol\":114:25478  library EAI{    \r... */\n      eq(address, deployTimeAddress())\n      mstore(0x40, 0x80)\n      jumpi(tag_1, lt(calldatasize, 0x04))\n      shr(0xe0, calldataload(0x00))\n      dup1\n      0xe18a89cf\n      eq\n      tag_2\n      jumpi\n    tag_1:\n      0x00\n      dup1\n      revert\n        /* \"contracts/lib/eai/EAI.sol\":22778:22939  function isNumber(string memory str) public pure returns(bool){\r... */\n    tag_2:\n      tag_3\n      0x04\n      dup1\n      calldatasize\n      sub\n      dup2\n      add\n      swap1\n      tag_4\n      swap2\n      swap1\n      tag_5\n      jump\t// in\n    tag_4:\n      tag_6\n      jump\t// in\n    tag_3:\n      mload(0x40)\n      tag_7\n      swap2\n      swap1\n      tag_8\n      jump\t// in\n    tag_7:\n      mload(0x40)\n      dup1\n      swap2\n      sub\n      swap1\n      return\n    tag_6:\n        /* \"contracts/lib/eai/EAI.sol\":22835:22839  bool */\n      0x00\n        /* \"contracts/lib/eai/EAI.sol\":22851:22862  bytes1 char */\n      dup1\n        /* \"contracts/lib/eai/EAI.sol\":22871:22874  str */\n      dup3\n        /* \"contracts/lib/eai/EAI.sol\":22876:22877  0 */\n      0x00\n        /* \"contracts/lib/eai/EAI.sol\":22865:22878  bytes(str)[0] */\n      dup2\n      mload\n      dup2\n      lt\n      tag_10\n      jumpi\n      tag_11\n      tag_12\n      jump\t// in\n    tag_11:\n    tag_10:\n      0x20\n      add\n      add\n      mload\n      0xf8\n      shr\n      0xf8\n      shl\n        /* \"contracts/lib/eai/EAI.sol\":22851:22878  bytes1 char = bytes(str)[0] */\n      swap1\n      pop\n        /* \"contracts/lib/eai/EAI.sol\":22905:22909  0x30 */\n      0x30\n        /* \"contracts/lib/eai/EAI.sol\":22897:22909  char >= 0x30 */\n      0xf8\n      shl\n        /* \"contracts/lib/eai/EAI.sol\":22897:22901  char */\n      dup2\n        /* \"contracts/lib/eai/EAI.sol\":22897:22909  char >= 0x30 */\n      not(0xffffffffffffffffffffffffffffffffffffffffffffffffffffffffffffff)\n      and\n      lt\n      iszero\n        /* \"contracts/lib/eai/EAI.sol\":22897:22925  char >= 0x30 && char <= 0x39 */\n      dup1\n      iszero\n      tag_13\n      jumpi\n      pop\n        /* \"contracts/lib/eai/EAI.sol\":22921:22925  0x39 */\n      0x39\n        /* \"contracts/lib/eai/EAI.sol\":22913:22925  char <= 0x39 */\n      0xf8\n      shl\n        /* \"contracts/lib/eai/EAI.sol\":22913:22917  char */\n      dup2\n        /* \"contracts/lib/eai/EAI.sol\":22913:22925  char <= 0x39 */\n      not(0xffffffffffffffffffffffffffffffffffffffffffffffffffffffffffffff)\n      and\n      gt\n      iszero\n        /* \"contracts/lib/eai/EAI.sol\":22897:22925  char >= 0x30 && char <= 0x39 */\n    tag_13:\n        /* \"contracts/lib/eai/EAI.sol\":22889:22926  return (char >= 0x30 && char <= 0x39) */\n      swap2\n      pop\n      pop\n        /* \"contracts/lib/eai/EAI.sol\":22778:22939  function isNumber(string memory str) public pure returns(bool){\r... */\n      swap2\n      swap1\n      pop\n      jump\t// out\n        /* \"#utility.yul\":7:419   */\n    tag_15:\n        /* \"#utility.yul\":85:90   */\n      0x00\n        /* \"#utility.yul\":110:176   */\n      tag_17\n        /* \"#utility.yul\":126:175   */\n      tag_18\n        /* \"#utility.yul\":168:174   */\n      dup5\n        /* \"#utility.yul\":126:175   */\n      tag_19\n      jump\t// in\n    tag_18:\n        /* \"#utility.yul\":110:176   */\n      tag_20\n      jump\t// in\n    tag_17:\n        /* \"#utility.yul\":101:176   */\n      swap1\n      pop\n        /* \"#utility.yul\":199:205   */\n      dup3\n        /* \"#utility.yul\":192:197   */\n      dup2\n        /* \"#utility.yul\":185:206   */\n      mstore\n        /* \"#utility.yul\":237:241   */\n      0x20\n        /* \"#utility.yul\":230:235   */\n      dup2\n        /* \"#utility.yul\":226:242   */\n      add\n        /* \"#utility.yul\":275:278   */\n      dup5\n        /* \"#utility.yul\":266:272   */\n      dup5\n        /* \"#utility.yul\":261:264   */\n      dup5\n        /* \"#utility.yul\":257:273   */\n      add\n        /* \"#utility.yul\":254:279   */\n      gt\n        /* \"#utility.yul\":251:363   */\n      iszero\n      tag_21\n      jumpi\n        /* \"#utility.yul\":282:361   */\n      tag_22\n      tag_23\n      jump\t// in\n    tag_22:\n        /* \"#utility.yul\":251:363   */\n    tag_21:\n        /* \"#utility.yul\":372:413   */\n      tag_24\n        /* \"#utility.yul\":406:412   */\n      dup5\n        /* \"#utility.yul\":401:404   */\n      dup3\n        /* \"#utility.yul\":396:399   */\n      dup6\n        /* \"#utility.yul\":372:413   */\n      tag_25\n      jump\t// in\n    tag_24:\n        /* \"#utility.yul\":91:419   */\n      pop\n        /* \"#utility.yul\":7:419   */\n      swap4\n      swap3\n      pop\n      pop\n      pop\n      jump\t// out\n        /* \"#utility.yul\":439:779   */\n    tag_26:\n        /* \"#utility.yul\":495:500   */\n      0x00\n        /* \"#utility.yul\":544:547   */\n      dup3\n        /* \"#utility.yul\":537:541   */\n      0x1f\n        /* \"#utility.yul\":529:535   */\n      dup4\n        /* \"#utility.yul\":525:542   */\n      add\n        /* \"#utility.yul\":521:548   */\n      slt\n        /* \"#utility.yul\":511:633   */\n      tag_28\n      jumpi\n        /* \"#utility.yul\":552:631   */\n      tag_29\n      tag_30\n      jump\t// in\n    tag_29:\n        /* \"#utility.yul\":511:633   */\n    tag_28:\n        /* \"#utility.yul\":669:675   */\n      dup2\n        /* \"#utility.yul\":656:676   */\n      calldataload\n        /* \"#utility.yul\":694:773   */\n      tag_31\n        /* \"#utility.yul\":769:772   */\n      dup5\n        /* \"#utility.yul\":761:767   */\n      dup3\n        /* \"#utility.yul\":754:758   */\n      0x20\n        /* \"#utility.yul\":746:752   */\n      dup7\n        /* \"#utility.yul\":742:759   */\n      add\n        /* \"#utility.yul\":694:773   */\n      tag_15\n      jump\t// in\n    tag_31:\n        /* \"#utility.yul\":685:773   */\n      swap2\n      pop\n        /* \"#utility.yul\":501:779   */\n      pop\n        /* \"#utility.yul\":439:779   */\n      swap3\n      swap2\n      pop\n      pop\n      jump\t// out\n        /* \"#utility.yul\":785:1294   */\n    tag_5:\n        /* \"#utility.yul\":854:860   */\n      0x00\n        /* \"#utility.yul\":903:905   */\n      0x20\n        /* \"#utility.yul\":891:900   */\n      dup3\n        /* \"#utility.yul\":882:889   */\n      dup5\n        /* \"#utility.yul\":878:901   */\n      sub\n        /* \"#utility.yul\":874:906   */\n      slt\n        /* \"#utility.yul\":871:990   */\n      iszero\n      tag_33\n      jumpi\n        /* \"#utility.yul\":909:988   */\n      tag_34\n      tag_35\n      jump\t// in\n    tag_34:\n        /* \"#utility.yul\":871:990   */\n    tag_33:\n        /* \"#utility.yul\":1057:1058   */\n      0x00\n        /* \"#utility.yul\":1046:1055   */\n      dup3\n        /* \"#utility.yul\":1042:1059   */\n      add\n        /* \"#utility.yul\":1029:1060   */\n      calldataload\n        /* \"#utility.yul\":1087:1105   */\n      0xffffffffffffffff\n        /* \"#utility.yul\":1079:1085   */\n      dup2\n        /* \"#utility.yul\":1076:1106   */\n      gt\n        /* \"#utility.yul\":1073:1190   */\n      iszero\n      tag_36\n      jumpi\n        /* \"#utility.yul\":1109:1188   */\n      tag_37\n      tag_38\n      jump\t// in\n    tag_37:\n        /* \"#utility.yul\":1073:1190   */\n    tag_36:\n        /* \"#utility.yul\":1214:1277   */\n      tag_39\n        /* \"#utility.yul\":1269:1276   */\n      dup5\n        /* \"#utility.yul\":1260:1266   */\n      dup3\n        /* \"#utility.yul\":1249:1258   */\n      dup6\n        /* \"#utility.yul\":1245:1267   */\n      add\n        /* \"#utility.yul\":1214:1277   */\n      tag_26\n      jump\t// in\n    tag_39:\n        /* \"#utility.yul\":1204:1277   */\n      swap2\n      pop\n        /* \"#utility.yul\":1000:1287   */\n      pop\n        /* \"#utility.yul\":785:1294   */\n      swap3\n      swap2\n      pop\n      pop\n      jump\t// out\n        /* \"#utility.yul\":1300:1417   */\n    tag_40:\n        /* \"#utility.yul\":1389:1410   */\n      tag_42\n        /* \"#utility.yul\":1404:1409   */\n      dup2\n        /* \"#utility.yul\":1389:1410   */\n      tag_43\n      jump\t// in\n    tag_42:\n        /* \"#utility.yul\":1384:1387   */\n      dup3\n        /* \"#utility.yul\":1377:1411   */\n      mstore\n        /* \"#utility.yul\":1300:1417   */\n      pop\n      pop\n      jump\t// out\n        /* \"#utility.yul\":1423:1649   */\n    tag_8:\n        /* \"#utility.yul\":1518:1522   */\n      0x00\n        /* \"#utility.yul\":1556:1558   */\n      0x20\n        /* \"#utility.yul\":1545:1554   */\n      dup3\n        /* \"#utility.yul\":1541:1559   */\n      add\n        /* \"#utility.yul\":1533:1559   */\n      swap1\n      pop\n        /* \"#utility.yul\":1569:1642   */\n      tag_45\n        /* \"#utility.yul\":1639:1640   */\n      0x00\n        /* \"#utility.yul\":1628:1637   */\n      dup4\n        /* \"#utility.yul\":1624:1641   */\n      add\n        /* \"#utility.yul\":1615:1621   */\n      dup5\n        /* \"#utility.yul\":1569:1642   */\n      tag_40\n      jump\t// in\n    tag_45:\n        /* \"#utility.yul\":1423:1649   */\n      swap3\n      swap2\n      pop\n      pop\n      jump\t// out\n        /* \"#utility.yul\":1655:1784   */\n    tag_20:\n        /* \"#utility.yul\":1689:1695   */\n      0x00\n        /* \"#utility.yul\":1716:1736   */\n      tag_47\n      tag_48\n      jump\t// in\n    tag_47:\n        /* \"#utility.yul\":1706:1736   */\n      swap1\n      pop\n        /* \"#utility.yul\":1745:1778   */\n      tag_49\n        /* \"#utility.yul\":1773:1777   */\n      dup3\n        /* \"#utility.yul\":1765:1771   */\n      dup3\n        /* \"#utility.yul\":1745:1778   */\n      tag_50\n      jump\t// in\n    tag_49:\n        /* \"#utility.yul\":1655:1784   */\n      swap2\n      swap1\n      pop\n      jump\t// out\n        /* \"#utility.yul\":1790:1865   */\n    tag_48:\n        /* \"#utility.yul\":1823:1829   */\n      0x00\n        /* \"#utility.yul\":1856:1858   */\n      0x40\n        /* \"#utility.yul\":1850:1859   */\n      mload\n        /* \"#utility.yul\":1840:1859   */\n      swap1\n      pop\n        /* \"#utility.yul\":1790:1865   */\n      swap1\n      jump\t// out\n        /* \"#utility.yul\":1871:2179   */\n    tag_19:\n        /* \"#utility.yul\":1933:1937   */\n      0x00\n        /* \"#utility.yul\":2023:2041   */\n      0xffffffffffffffff\n        /* \"#utility.yul\":2015:2021   */\n      dup3\n        /* \"#utility.yul\":2012:2042   */\n      gt\n        /* \"#utility.yul\":2009:2065   */\n      iszero\n      tag_53\n      jumpi\n        /* \"#utility.yul\":2045:2063   */\n      tag_54\n      tag_55\n      jump\t// in\n    tag_54:\n        /* \"#utility.yul\":2009:2065   */\n    tag_53:\n        /* \"#utility.yul\":2083:2112   */\n      tag_56\n        /* \"#utility.yul\":2105:2111   */\n      dup3\n        /* \"#utility.yul\":2083:2112   */\n      tag_57\n      jump\t// in\n    tag_56:\n        /* \"#utility.yul\":2075:2112   */\n      swap1\n      pop\n        /* \"#utility.yul\":2167:2171   */\n      0x20\n        /* \"#utility.yul\":2161:2165   */\n      dup2\n        /* \"#utility.yul\":2157:2172   */\n      add\n        /* \"#utility.yul\":2149:2172   */\n      swap1\n      pop\n        /* \"#utility.yul\":1871:2179   */\n      swap2\n      swap1\n      pop\n      jump\t// out\n        /* \"#utility.yul\":2185:2275   */\n    tag_43:\n        /* \"#utility.yul\":2219:2226   */\n      0x00\n        /* \"#utility.yul\":2262:2267   */\n      dup2\n        /* \"#utility.yul\":2255:2268   */\n      iszero\n        /* \"#utility.yul\":2248:2269   */\n      iszero\n        /* \"#utility.yul\":2237:2269   */\n      swap1\n      pop\n        /* \"#utility.yul\":2185:2275   */\n      swap2\n      swap1\n      pop\n      jump\t// out\n        /* \"#utility.yul\":2281:2435   */\n    tag_25:\n        /* \"#utility.yul\":2365:2371   */\n      dup3\n        /* \"#utility.yul\":2360:2363   */\n      dup2\n        /* \"#utility.yul\":2355:2358   */\n      dup4\n        /* \"#utility.yul\":2342:2372   */\n      calldatacopy\n        /* \"#utility.yul\":2427:2428   */\n      0x00\n        /* \"#utility.yul\":2418:2424   */\n      dup4\n        /* \"#utility.yul\":2413:2416   */\n      dup4\n        /* \"#utility.yul\":2409:2425   */\n      add\n        /* \"#utility.yul\":2402:2429   */\n      mstore\n        /* \"#utility.yul\":2281:2435   */\n      pop\n      pop\n      pop\n      jump\t// out\n        /* \"#utility.yul\":2441:2722   */\n    tag_50:\n        /* \"#utility.yul\":2524:2551   */\n      tag_61\n        /* \"#utility.yul\":2546:2550   */\n      dup3\n        /* \"#utility.yul\":2524:2551   */\n      tag_57\n      jump\t// in\n    tag_61:\n        /* \"#utility.yul\":2516:2522   */\n      dup2\n        /* \"#utility.yul\":2512:2552   */\n      add\n        /* \"#utility.yul\":2654:2660   */\n      dup2\n        /* \"#utility.yul\":2642:2652   */\n      dup2\n        /* \"#utility.yul\":2639:2661   */\n      lt\n        /* \"#utility.yul\":2618:2636   */\n      0xffffffffffffffff\n        /* \"#utility.yul\":2606:2616   */\n      dup3\n        /* \"#utility.yul\":2603:2637   */\n      gt\n        /* \"#utility.yul\":2600:2662   */\n      or\n        /* \"#utility.yul\":2597:2685   */\n      iszero\n      tag_62\n      jumpi\n        /* \"#utility.yul\":2665:2683   */\n      tag_63\n      tag_55\n      jump\t// in\n    tag_63:\n        /* \"#utility.yul\":2597:2685   */\n    tag_62:\n        /* \"#utility.yul\":2705:2715   */\n      dup1\n        /* \"#utility.yul\":2701:2703   */\n      0x40\n        /* \"#utility.yul\":2694:2716   */\n      mstore\n        /* \"#utility.yul\":2484:2722   */\n      pop\n        /* \"#utility.yul\":2441:2722   */\n      pop\n      pop\n      jump\t// out\n        /* \"#utility.yul\":2728:2908   */\n    tag_12:\n        /* \"#utility.yul\":2776:2853   */\n      0x4e487b7100000000000000000000000000000000000000000000000000000000\n        /* \"#utility.yul\":2773:2774   */\n      0x00\n        /* \"#utility.yul\":2766:2854   */\n      mstore\n        /* \"#utility.yul\":2873:2877   */\n      0x32\n        /* \"#utility.yul\":2870:2871   */\n      0x04\n        /* \"#utility.yul\":2863:2878   */\n      mstore\n        /* \"#utility.yul\":2897:2901   */\n      0x24\n        /* \"#utility.yul\":2894:2895   */\n      0x00\n        /* \"#utility.yul\":2887:2902   */\n      revert\n        /* \"#utility.yul\":2914:3094   */\n    tag_55:\n        /* \"#utility.yul\":2962:3039   */\n      0x4e487b7100000000000000000000000000000000000000000000000000000000\n        /* \"#utility.yul\":2959:2960   */\n      0x00\n        /* \"#utility.yul\":2952:3040   */\n      mstore\n        /* \"#utility.yul\":3059:3063   */\n      0x41\n        /* \"#utility.yul\":3056:3057   */\n      0x04\n        /* \"#utility.yul\":3049:3064   */\n      mstore\n        /* \"#utility.yul\":3083:3087   */\n      0x24\n        /* \"#utility.yul\":3080:3081   */\n      0x00\n        /* \"#utility.yul\":3073:3088   */\n      revert\n        /* \"#utility.yul\":3100:3217   */\n    tag_30:\n        /* \"#utility.yul\":3209:3210   */\n      0x00\n        /* \"#utility.yul\":3206:3207   */\n      dup1\n        /* \"#utility.yul\":3199:3211   */\n      revert\n        /* \"#utility.yul\":3223:3340   */\n    tag_23:\n        /* \"#utility.yul\":3332:3333   */\n      0x00\n        /* \"#utility.yul\":3329:3330   */\n      dup1\n        /* \"#utility.yul\":3322:3334   */\n      revert\n        /* \"#utility.yul\":3346:3463   */\n    tag_38:\n        /* \"#utility.yul\":3455:3456   */\n      0x00\n        /* \"#utility.yul\":3452:3453   */\n      dup1\n        /* \"#utility.yul\":3445:3457   */\n      revert\n        /* \"#utility.yul\":3469:3586   */\n    tag_35:\n        /* \"#utility.yul\":3578:3579   */\n      0x00\n        /* \"#utility.yul\":3575:3576   */\n      dup1\n        /* \"#utility.yul\":3568:3580   */\n      revert\n        /* \"#utility.yul\":3592:3694   */\n    tag_57:\n        /* \"#utility.yul\":3633:3639   */\n      0x00\n        /* \"#utility.yul\":3684:3686   */\n      0x1f\n        /* \"#utility.yul\":3680:3687   */\n      not\n        /* \"#utility.yul\":3675:3677   */\n      0x1f\n        /* \"#utility.yul\":3668:3673   */\n      dup4\n        /* \"#utility.yul\":3664:3678   */\n      add\n        /* \"#utility.yul\":3660:3688   */\n      and\n        /* \"#utility.yul\":3650:3688   */\n      swap1\n      pop\n        /* \"#utility.yul\":3592:3694   */\n      swap2\n      swap1\n      pop\n      jump\t// out\n\n    auxdata: 0xa264697066735822122018d2ec201d79289834f51d55b5a1a39845663f89f3130cc5d19e9a7408a9944564736f6c63430008070033\n}\n",
				"bytecode": {
					"linkReferences": {},
					"object": "610330610053600b82828239805160001a607314610046577f4e487b7100000000000000000000000000000000000000000000000000000000600052600060045260246000fd5b30600052607381538281f3fe73000000000000000000000000000000000000000030146080604052600436106100355760003560e01c8063e18a89cf1461003a575b600080fd5b610054600480360381019061004f9190610162565b61006a565b60405161006191906101ba565b60405180910390f35b6000808260008151811061008157610080610277565b5b602001015160f81c60f81b9050603060f81b817effffffffffffffffffffffffffffffffffffffffffffffffffffffffffffff1916101580156100ea5750603960f81b817effffffffffffffffffffffffffffffffffffffffffffffffffffffffffffff191611155b915050919050565b6000610105610100846101fa565b6101d5565b905082815260208101848484011115610121576101206102da565b5b61012c848285610237565b509392505050565b600082601f830112610149576101486102d5565b5b81356101598482602086016100f2565b91505092915050565b600060208284031215610178576101776102e4565b5b600082013567ffffffffffffffff811115610196576101956102df565b5b6101a284828501610134565b91505092915050565b6101b48161022b565b82525050565b60006020820190506101cf60008301846101ab565b92915050565b60006101df6101f0565b90506101eb8282610246565b919050565b6000604051905090565b600067ffffffffffffffff821115610215576102146102a6565b5b61021e826102e9565b9050602081019050919050565b60008115159050919050565b82818337600083830152505050565b61024f826102e9565b810181811067ffffffffffffffff8211171561026e5761026d6102a6565b5b80604052505050565b7f4e487b7100000000000000000000000000000000000000000000000000000000600052603260045260246000fd5b7f4e487b7100000000000000000000000000000000000000000000000000000000600052604160045260246000fd5b600080fd5b600080fd5b600080fd5b600080fd5b6000601f19601f830116905091905056fea264697066735822122018d2ec201d79289834f51d55b5a1a39845663f89f3130cc5d19e9a7408a9944564736f6c63430008070033",
					"opcodes": "PUSH2 0x330 PUSH2 0x53 PUSH1 0xB DUP3 DUP3 DUP3 CODECOPY DUP1 MLOAD PUSH1 0x0 BYTE PUSH1 0x73 EQ PUSH2 0x46 JUMPI PUSH32 0x4E487B7100000000000000000000000000000000000000000000000000000000 PUSH1 0x0 MSTORE PUSH1 0x0 PUSH1 0x4 MSTORE PUSH1 0x24 PUSH1 0x0 REVERT JUMPDEST ADDRESS PUSH1 0x0 MSTORE PUSH1 0x73 DUP2 MSTORE8 DUP3 DUP2 RETURN INVALID PUSH20 0x0 ADDRESS EQ PUSH1 0x80 PUSH1 0x40 MSTORE PUSH1 0x4 CALLDATASIZE LT PUSH2 0x35 JUMPI PUSH1 0x0 CALLDATALOAD PUSH1 0xE0 SHR DUP1 PUSH4 0xE18A89CF EQ PUSH2 0x3A JUMPI JUMPDEST PUSH1 0x0 DUP1 REVERT JUMPDEST PUSH2 0x54 PUSH1 0x4 DUP1 CALLDATASIZE SUB DUP2 ADD SWAP1 PUSH2 0x4F SWAP2 SWAP1 PUSH2 0x162 JUMP JUMPDEST PUSH2 0x6A JUMP JUMPDEST PUSH1 0x40 MLOAD PUSH2 0x61 SWAP2 SWAP1 PUSH2 0x1BA JUMP JUMPDEST PUSH1 0x40 MLOAD DUP1 SWAP2 SUB SWAP1 RETURN JUMPDEST PUSH1 0x0 DUP1 DUP3 PUSH1 0x0 DUP2 MLOAD DUP2 LT PUSH2 0x81 JUMPI PUSH2 0x80 PUSH2 0x277 JUMP JUMPDEST JUMPDEST PUSH1 0x20 ADD ADD MLOAD PUSH1 0xF8 SHR PUSH1 0xF8 SHL SWAP1 POP PUSH1 0x30 PUSH1 0xF8 SHL DUP2 PUSH31 0xFFFFFFFFFFFFFFFFFFFFFFFFFFFFFFFFFFFFFFFFFFFFFFFFFFFFFFFFFFFFFF NOT AND LT ISZERO DUP1 ISZERO PUSH2 0xEA JUMPI POP PUSH1 0x39 PUSH1 0xF8 SHL DUP2 PUSH31 0xFFFFFFFFFFFFFFFFFFFFFFFFFFFFFFFFFFFFFFFFFFFFFFFFFFFFFFFFFFFFFF NOT AND GT ISZERO JUMPDEST SWAP2 POP POP SWAP2 SWAP1 POP JUMP JUMPDEST PUSH1 0x0 PUSH2 0x105 PUSH2 0x100 DUP5 PUSH2 0x1FA JUMP JUMPDEST PUSH2 0x1D5 JUMP JUMPDEST SWAP1 POP DUP3 DUP2 MSTORE PUSH1 0x20 DUP2 ADD DUP5 DUP5 DUP5 ADD GT ISZERO PUSH2 0x121 JUMPI PUSH2 0x120 PUSH2 0x2DA JUMP JUMPDEST JUMPDEST PUSH2 0x12C DUP5 DUP3 DUP6 PUSH2 0x237 JUMP JUMPDEST POP SWAP4 SWAP3 POP POP POP JUMP JUMPDEST PUSH1 0x0 DUP3 PUSH1 0x1F DUP4 ADD SLT PUSH2 0x149 JUMPI PUSH2 0x148 PUSH2 0x2D5 JUMP JUMPDEST JUMPDEST DUP2 CALLDATALOAD PUSH2 0x159 DUP5 DUP3 PUSH1 0x20 DUP7 ADD PUSH2 0xF2 JUMP JUMPDEST SWAP2 POP POP SWAP3 SWAP2 POP POP JUMP JUMPDEST PUSH1 0x0 PUSH1 0x20 DUP3 DUP5 SUB SLT ISZERO PUSH2 0x178 JUMPI PUSH2 0x177 PUSH2 0x2E4 JUMP JUMPDEST JUMPDEST PUSH1 0x0 DUP3 ADD CALLDATALOAD PUSH8 0xFFFFFFFFFFFFFFFF DUP2 GT ISZERO PUSH2 0x196 JUMPI PUSH2 0x195 PUSH2 0x2DF JUMP JUMPDEST JUMPDEST PUSH2 0x1A2 DUP5 DUP3 DUP6 ADD PUSH2 0x134 JUMP JUMPDEST SWAP2 POP POP SWAP3 SWAP2 POP POP JUMP JUMPDEST PUSH2 0x1B4 DUP2 PUSH2 0x22B JUMP JUMPDEST DUP3 MSTORE POP POP JUMP JUMPDEST PUSH1 0x0 PUSH1 0x20 DUP3 ADD SWAP1 POP PUSH2 0x1CF PUSH1 0x0 DUP4 ADD DUP5 PUSH2 0x1AB JUMP JUMPDEST SWAP3 SWAP2 POP POP JUMP JUMPDEST PUSH1 0x0 PUSH2 0x1DF PUSH2 0x1F0 JUMP JUMPDEST SWAP1 POP PUSH2 0x1EB DUP3 DUP3 PUSH2 0x246 JUMP JUMPDEST SWAP2 SWAP1 POP JUMP JUMPDEST PUSH1 0x0 PUSH1 0x40 MLOAD SWAP1 POP SWAP1 JUMP JUMPDEST PUSH1 0x0 PUSH8 0xFFFFFFFFFFFFFFFF DUP3 GT ISZERO PUSH2 0x215 JUMPI PUSH2 0x214 PUSH2 0x2A6 JUMP JUMPDEST JUMPDEST PUSH2 0x21E DUP3 PUSH2 0x2E9 JUMP JUMPDEST SWAP1 POP PUSH1 0x20 DUP2 ADD SWAP1 POP SWAP2 SWAP1 POP JUMP JUMPDEST PUSH1 0x0 DUP2 ISZERO ISZERO SWAP1 POP SWAP2 SWAP1 POP JUMP JUMPDEST DUP3 DUP2 DUP4 CALLDATACOPY PUSH1 0x0 DUP4 DUP4 ADD MSTORE POP POP POP JUMP JUMPDEST PUSH2 0x24F DUP3 PUSH2 0x2E9 JUMP JUMPDEST DUP2 ADD DUP2 DUP2 LT PUSH8 0xFFFFFFFFFFFFFFFF DUP3 GT OR ISZERO PUSH2 0x26E JUMPI PUSH2 0x26D PUSH2 0x2A6 JUMP JUMPDEST JUMPDEST DUP1 PUSH1 0x40 MSTORE POP POP POP JUMP JUMPDEST PUSH32 0x4E487B7100000000000000000000000000000000000000000000000000000000 PUSH1 0x0 MSTORE PUSH1 0x32 PUSH1 0x4 MSTORE PUSH1 0x24 PUSH1 0x0 REVERT JUMPDEST PUSH32 0x4E487B7100000000000000000000000000000000000000000000000000000000 PUSH1 0x0 MSTORE PUSH1 0x41 PUSH1 0x4 MSTORE PUSH1 0x24 PUSH1 0x0 REVERT JUMPDEST PUSH1 0x0 DUP1 REVERT JUMPDEST PUSH1 0x0 DUP1 REVERT JUMPDEST PUSH1 0x0 DUP1 REVERT JUMPDEST PUSH1 0x0 DUP1 REVERT JUMPDEST PUSH1 0x0 PUSH1 0x1F NOT PUSH1 0x1F DUP4 ADD AND SWAP1 POP SWAP2 SWAP1 POP JUMP INVALID LOG2 PUSH5 0x6970667358 0x22 SLT KECCAK256 XOR 0xD2 0xEC KECCAK256 SAR PUSH26 0x289834F51D55B5A1A39845663F89F3130CC5D19E9A7408A99445 PUSH5 0x736F6C6343 STOP ADDMOD SMOD STOP CALLER "
				},
				"gasEstimates": {
					"creation": {
						"codeDepositCost": "163200",
						"executionCost": "233",
						"totalCost": "163433"
					},
					"external": {
						"isNumber(string)": "infinite"
					},
					"internal": {
						"becomeAware(struct EAI.Party storage pointer)": "infinite",
						"calcNextEndTime(uint32,uint8,uint32)": "infinite",
						"calcNextEndTimeForSecMinHrDayOrWeek(uint8,uint32,uint32)": "infinite",
						"createMaxNumberOfOperation(uint32)": "infinite",
						"createMaxNumberOfOperationByTime(uint32,uint8)": "infinite",
						"createMessageContent(string memory,string memory,int256)": "infinite",
						"createMessageContent(string memory,string memory,string memory)": "infinite",
						"createMessageContent_NumberPerTime(string memory,string memory,uint32,uint8)": "infinite",
						"createParty(string memory,address,bool)": "infinite",
						"createTimeInterval(uint32,uint32)": "infinite",
						"createTimeout(uint32)": "infinite",
						"createWeekDaysInterval(uint8,uint8)": "infinite",
						"decreaseNumberOfOperation(struct EAI.MaxNumberOfOperation storage pointer)": "infinite",
						"decreaseNumberOfOperationByTime(struct EAI.MaxNumberOfOperationByTime storage pointer,uint32)": "infinite",
						"decreaseNumberPerTime(struct EAI.MessageContent_NumberPerTime storage pointer,uint32,uint32)": "infinite",
						"evaluateNumberContent(struct EAI.MessageContent_Number memory,int256)": "infinite",
						"evaluateStringContent(struct EAI.MessageContent_String memory,string memory)": "infinite",
						"getAllTimeIntervals(struct EAI.TimeInterval memory[] memory)": "infinite",
						"getAllWeekDaysIntervals(struct EAI.WeekDaysInterval memory[] memory)": "infinite",
						"getOneTimeInterval(struct EAI.TimeInterval memory)": "infinite",
						"getOneWeekDaysInterval(struct EAI.WeekDaysInterval memory)": "infinite",
						"getTimeInSeconds(uint8)": "infinite",
						"isAccessDatetimeOutOfOldInterval(uint8,uint32,uint32)": "infinite",
						"isIntoTimeInterval(uint32,struct EAI.TimeInterval memory)": "infinite",
						"isIntoTimeIntervals(uint32,struct EAI.TimeInterval memory[] memory)": "infinite",
						"isIntoWeekDaysInterval(uint8,struct EAI.WeekDaysInterval memory)": "infinite",
						"isIntoWeekDaysIntervals(uint8,struct EAI.WeekDaysInterval memory[] memory)": "infinite",
						"isTimeoutEnded(struct EAI.Timeout memory,uint32)": "infinite",
						"setEndTimeInTimeout(struct EAI.Timeout storage pointer,uint32)": "infinite",
						"setNewEndTimeAndRestOfOperations(struct EAI.MaxNumberOfOperationByTime storage pointer,uint32)": "infinite",
						"setPartyAddress(struct EAI.Party storage pointer,address)": "infinite",
						"setPartyName(struct EAI.Party storage pointer,string memory)": "infinite",
						"setTimeInterval(struct EAI.TimeInterval storage pointer,uint32,uint32)": "infinite",
						"setWeekDayInterval(struct EAI.WeekDaysInterval storage pointer,uint8,uint8)": "infinite",
						"stringToUint(string memory)": "infinite",
						"timeStampToDate(uint256)": "infinite",
						"uint2String(uint256)": "infinite"
					}
				},
				"methodIdentifiers": {
					"isNumber(string)": "e18a89cf"
				}
			},
			"storageLayout": {
				"storage": [],
				"types": null
			},
			"userdoc": {
				"kind": "user",
				"methods": {},
				"version": 1
			}
		}
	}
}