{
	"contracts/lib/referencesCode-eai/MaxNumberOfOperationByTime_refCod.sol": {
		"MaxNumberOfOperationByTime_refCod": {
			"abi": [
				{
					"inputs": [],
					"stateMutability": "nonpayable",
					"type": "constructor"
				},
				{
					"inputs": [
						{
							"internalType": "uint8",
							"name": "timeUnit",
							"type": "uint8"
						},
						{
							"internalType": "uint32",
							"name": "_accessTime",
							"type": "uint32"
						}
					],
					"name": "decreaseOperation",
					"outputs": [],
					"stateMutability": "nonpayable",
					"type": "function"
				},
				{
					"inputs": [
						{
							"internalType": "uint256",
							"name": "_id",
							"type": "uint256"
						}
					],
					"name": "getMaxOp",
					"outputs": [
						{
							"components": [
								{
									"internalType": "uint32",
									"name": "amount",
									"type": "uint32"
								},
								{
									"internalType": "uint8",
									"name": "timeUnit",
									"type": "uint8"
								},
								{
									"internalType": "uint32",
									"name": "byTime",
									"type": "uint32"
								},
								{
									"internalType": "uint32",
									"name": "rest",
									"type": "uint32"
								},
								{
									"internalType": "uint32",
									"name": "endTime",
									"type": "uint32"
								}
							],
							"internalType": "struct EAI.MaxNumberOfOperationByTime",
							"name": "",
							"type": "tuple"
						}
					],
					"stateMutability": "view",
					"type": "function"
				},
				{
					"inputs": [
						{
							"internalType": "uint256",
							"name": "_timestamp",
							"type": "uint256"
						}
					],
					"name": "testTimestampToDate",
					"outputs": [
						{
							"internalType": "uint32",
							"name": "year",
							"type": "uint32"
						},
						{
							"internalType": "uint32",
							"name": "month",
							"type": "uint32"
						},
						{
							"internalType": "uint32",
							"name": "day",
							"type": "uint32"
						}
					],
					"stateMutability": "pure",
					"type": "function"
				}
			],
			"devdoc": {
				"kind": "dev",
				"methods": {},
				"version": 1
			},
			"evm": {
				"assembly": "    /* \"contracts/lib/referencesCode-eai/MaxNumberOfOperationByTime_refCod.sol\":95:1916  contract MaxNumberOfOperationByTime_refCod{   \r... */\n  mstore(0x40, 0x80)\n    /* \"contracts/lib/referencesCode-eai/MaxNumberOfOperationByTime_refCod.sol\":237:742  constructor (){\r... */\n  callvalue\n  dup1\n  iszero\n  tag_1\n  jumpi\n  0x00\n  dup1\n  revert\ntag_1:\n  pop\n    /* \"contracts/lib/referencesCode-eai/MaxNumberOfOperationByTime_refCod.sol\":258:263  maxOp */\n  0x00\n    /* \"contracts/lib/referencesCode-eai/MaxNumberOfOperationByTime_refCod.sol\":270:321  EAI.createMaxNumberOfOperationByTime(2, EAI.SECOND) */\n  tag_4\n    /* \"contracts/lib/referencesCode-eai/MaxNumberOfOperationByTime_refCod.sol\":307:308  2 */\n  0x02\n    /* \"contracts/lib/eai/EAI.sol\":666:667  0 */\n  0x00\n    /* \"contracts/lib/referencesCode-eai/MaxNumberOfOperationByTime_refCod.sol\":270:306  EAI.createMaxNumberOfOperationByTime */\n  or(tag_0_21, shl(0x20, tag_5))\n    /* \"contracts/lib/referencesCode-eai/MaxNumberOfOperationByTime_refCod.sol\":270:321  EAI.createMaxNumberOfOperationByTime(2, EAI.SECOND) */\n  0x20\n  shr\n  jump\t// in\ntag_4:\n    /* \"contracts/lib/referencesCode-eai/MaxNumberOfOperationByTime_refCod.sol\":258:322  maxOp.push( EAI.createMaxNumberOfOperationByTime(2, EAI.SECOND)) */\n  swap1\n  dup1\n  0x01\n  dup2\n  sload\n  add\n  dup1\n  dup3\n  sstore\n  dup1\n  swap2\n  pop\n  pop\n  0x01\n  swap1\n  sub\n  swap1\n  0x00\n  mstore\n  keccak256(0x00, 0x20)\n  add\n  0x00\n  swap1\n  swap2\n  swap1\n  swap2\n  swap1\n  swap2\n  pop\n  0x00\n  dup3\n  add\n  mload\n  dup2\n  0x00\n  add\n  exp(0x0100, 0x00)\n  dup2\n  sload\n  dup2\n  0xffffffff\n  mul\n  not\n  and\n  swap1\n  dup4\n  0xffffffff\n  and\n  mul\n  or\n  swap1\n  sstore\n  pop\n  0x20\n  dup3\n  add\n  mload\n  dup2\n  0x00\n  add\n  exp(0x0100, 0x04)\n  dup2\n  sload\n  dup2\n  0xff\n  mul\n  not\n  and\n  swap1\n  dup4\n  0xff\n  and\n  mul\n  or\n  swap1\n  sstore\n  pop\n  0x40\n  dup3\n  add\n  mload\n  dup2\n  0x00\n  add\n  exp(0x0100, 0x05)\n  dup2\n  sload\n  dup2\n  0xffffffff\n  mul\n  not\n  and\n  swap1\n  dup4\n  0xffffffff\n  and\n  mul\n  or\n  swap1\n  sstore\n  pop\n  0x60\n  dup3\n  add\n  mload\n  dup2\n  0x00\n  add\n  exp(0x0100, 0x09)\n  dup2\n  sload\n  dup2\n  0xffffffff\n  mul\n  not\n  and\n  swap1\n  dup4\n  0xffffffff\n  and\n  mul\n  or\n  swap1\n  sstore\n  pop\n  0x80\n  dup3\n  add\n  mload\n  dup2\n  0x00\n  add\n  exp(0x0100, 0x0d)\n  dup2\n  sload\n  dup2\n  0xffffffff\n  mul\n  not\n  and\n  swap1\n  dup4\n  0xffffffff\n  and\n  mul\n  or\n  swap1\n  sstore\n  pop\n  pop\n  pop\n    /* \"contracts/lib/referencesCode-eai/MaxNumberOfOperationByTime_refCod.sol\":329:334  maxOp */\n  0x00\n    /* \"contracts/lib/referencesCode-eai/MaxNumberOfOperationByTime_refCod.sol\":341:392  EAI.createMaxNumberOfOperationByTime(2, EAI.MINUTE) */\n  tag_7\n    /* \"contracts/lib/referencesCode-eai/MaxNumberOfOperationByTime_refCod.sol\":378:379  2 */\n  0x02\n    /* \"contracts/lib/eai/EAI.sol\":698:699  1 */\n  0x01\n    /* \"contracts/lib/referencesCode-eai/MaxNumberOfOperationByTime_refCod.sol\":341:377  EAI.createMaxNumberOfOperationByTime */\n  or(tag_0_21, shl(0x20, tag_5))\n    /* \"contracts/lib/referencesCode-eai/MaxNumberOfOperationByTime_refCod.sol\":341:392  EAI.createMaxNumberOfOperationByTime(2, EAI.MINUTE) */\n  0x20\n  shr\n  jump\t// in\ntag_7:\n    /* \"contracts/lib/referencesCode-eai/MaxNumberOfOperationByTime_refCod.sol\":329:393  maxOp.push( EAI.createMaxNumberOfOperationByTime(2, EAI.MINUTE)) */\n  swap1\n  dup1\n  0x01\n  dup2\n  sload\n  add\n  dup1\n  dup3\n  sstore\n  dup1\n  swap2\n  pop\n  pop\n  0x01\n  swap1\n  sub\n  swap1\n  0x00\n  mstore\n  keccak256(0x00, 0x20)\n  add\n  0x00\n  swap1\n  swap2\n  swap1\n  swap2\n  swap1\n  swap2\n  pop\n  0x00\n  dup3\n  add\n  mload\n  dup2\n  0x00\n  add\n  exp(0x0100, 0x00)\n  dup2\n  sload\n  dup2\n  0xffffffff\n  mul\n  not\n  and\n  swap1\n  dup4\n  0xffffffff\n  and\n  mul\n  or\n  swap1\n  sstore\n  pop\n  0x20\n  dup3\n  add\n  mload\n  dup2\n  0x00\n  add\n  exp(0x0100, 0x04)\n  dup2\n  sload\n  dup2\n  0xff\n  mul\n  not\n  and\n  swap1\n  dup4\n  0xff\n  and\n  mul\n  or\n  swap1\n  sstore\n  pop\n  0x40\n  dup3\n  add\n  mload\n  dup2\n  0x00\n  add\n  exp(0x0100, 0x05)\n  dup2\n  sload\n  dup2\n  0xffffffff\n  mul\n  not\n  and\n  swap1\n  dup4\n  0xffffffff\n  and\n  mul\n  or\n  swap1\n  sstore\n  pop\n  0x60\n  dup3\n  add\n  mload\n  dup2\n  0x00\n  add\n  exp(0x0100, 0x09)\n  dup2\n  sload\n  dup2\n  0xffffffff\n  mul\n  not\n  and\n  swap1\n  dup4\n  0xffffffff\n  and\n  mul\n  or\n  swap1\n  sstore\n  pop\n  0x80\n  dup3\n  add\n  mload\n  dup2\n  0x00\n  add\n  exp(0x0100, 0x0d)\n  dup2\n  sload\n  dup2\n  0xffffffff\n  mul\n  not\n  and\n  swap1\n  dup4\n  0xffffffff\n  and\n  mul\n  or\n  swap1\n  sstore\n  pop\n  pop\n  pop\n    /* \"contracts/lib/referencesCode-eai/MaxNumberOfOperationByTime_refCod.sol\":400:405  maxOp */\n  0x00\n    /* \"contracts/lib/referencesCode-eai/MaxNumberOfOperationByTime_refCod.sol\":412:461  EAI.createMaxNumberOfOperationByTime(2, EAI.HOUR) */\n  tag_9\n    /* \"contracts/lib/referencesCode-eai/MaxNumberOfOperationByTime_refCod.sol\":449:450  2 */\n  0x02\n    /* \"contracts/lib/eai/EAI.sol\":727:728  2 */\n  dup1\n    /* \"contracts/lib/referencesCode-eai/MaxNumberOfOperationByTime_refCod.sol\":412:448  EAI.createMaxNumberOfOperationByTime */\n  or(tag_0_21, shl(0x20, tag_5))\n    /* \"contracts/lib/referencesCode-eai/MaxNumberOfOperationByTime_refCod.sol\":412:461  EAI.createMaxNumberOfOperationByTime(2, EAI.HOUR) */\n  0x20\n  shr\n  jump\t// in\ntag_9:\n    /* \"contracts/lib/referencesCode-eai/MaxNumberOfOperationByTime_refCod.sol\":400:462  maxOp.push( EAI.createMaxNumberOfOperationByTime(2, EAI.HOUR)) */\n  swap1\n  dup1\n  0x01\n  dup2\n  sload\n  add\n  dup1\n  dup3\n  sstore\n  dup1\n  swap2\n  pop\n  pop\n  0x01\n  swap1\n  sub\n  swap1\n  0x00\n  mstore\n  keccak256(0x00, 0x20)\n  add\n  0x00\n  swap1\n  swap2\n  swap1\n  swap2\n  swap1\n  swap2\n  pop\n  0x00\n  dup3\n  add\n  mload\n  dup2\n  0x00\n  add\n  exp(0x0100, 0x00)\n  dup2\n  sload\n  dup2\n  0xffffffff\n  mul\n  not\n  and\n  swap1\n  dup4\n  0xffffffff\n  and\n  mul\n  or\n  swap1\n  sstore\n  pop\n  0x20\n  dup3\n  add\n  mload\n  dup2\n  0x00\n  add\n  exp(0x0100, 0x04)\n  dup2\n  sload\n  dup2\n  0xff\n  mul\n  not\n  and\n  swap1\n  dup4\n  0xff\n  and\n  mul\n  or\n  swap1\n  sstore\n  pop\n  0x40\n  dup3\n  add\n  mload\n  dup2\n  0x00\n  add\n  exp(0x0100, 0x05)\n  dup2\n  sload\n  dup2\n  0xffffffff\n  mul\n  not\n  and\n  swap1\n  dup4\n  0xffffffff\n  and\n  mul\n  or\n  swap1\n  sstore\n  pop\n  0x60\n  dup3\n  add\n  mload\n  dup2\n  0x00\n  add\n  exp(0x0100, 0x09)\n  dup2\n  sload\n  dup2\n  0xffffffff\n  mul\n  not\n  and\n  swap1\n  dup4\n  0xffffffff\n  and\n  mul\n  or\n  swap1\n  sstore\n  pop\n  0x80\n  dup3\n  add\n  mload\n  dup2\n  0x00\n  add\n  exp(0x0100, 0x0d)\n  dup2\n  sload\n  dup2\n  0xffffffff\n  mul\n  not\n  and\n  swap1\n  dup4\n  0xffffffff\n  and\n  mul\n  or\n  swap1\n  sstore\n  pop\n  pop\n  pop\n    /* \"contracts/lib/referencesCode-eai/MaxNumberOfOperationByTime_refCod.sol\":469:474  maxOp */\n  0x00\n    /* \"contracts/lib/referencesCode-eai/MaxNumberOfOperationByTime_refCod.sol\":481:529  EAI.createMaxNumberOfOperationByTime(2, EAI.DAY) */\n  tag_11\n    /* \"contracts/lib/referencesCode-eai/MaxNumberOfOperationByTime_refCod.sol\":518:519  2 */\n  0x02\n    /* \"contracts/lib/eai/EAI.sol\":755:756  3 */\n  0x03\n    /* \"contracts/lib/referencesCode-eai/MaxNumberOfOperationByTime_refCod.sol\":481:517  EAI.createMaxNumberOfOperationByTime */\n  or(tag_0_21, shl(0x20, tag_5))\n    /* \"contracts/lib/referencesCode-eai/MaxNumberOfOperationByTime_refCod.sol\":481:529  EAI.createMaxNumberOfOperationByTime(2, EAI.DAY) */\n  0x20\n  shr\n  jump\t// in\ntag_11:\n    /* \"contracts/lib/referencesCode-eai/MaxNumberOfOperationByTime_refCod.sol\":469:530  maxOp.push( EAI.createMaxNumberOfOperationByTime(2, EAI.DAY)) */\n  swap1\n  dup1\n  0x01\n  dup2\n  sload\n  add\n  dup1\n  dup3\n  sstore\n  dup1\n  swap2\n  pop\n  pop\n  0x01\n  swap1\n  sub\n  swap1\n  0x00\n  mstore\n  keccak256(0x00, 0x20)\n  add\n  0x00\n  swap1\n  swap2\n  swap1\n  swap2\n  swap1\n  swap2\n  pop\n  0x00\n  dup3\n  add\n  mload\n  dup2\n  0x00\n  add\n  exp(0x0100, 0x00)\n  dup2\n  sload\n  dup2\n  0xffffffff\n  mul\n  not\n  and\n  swap1\n  dup4\n  0xffffffff\n  and\n  mul\n  or\n  swap1\n  sstore\n  pop\n  0x20\n  dup3\n  add\n  mload\n  dup2\n  0x00\n  add\n  exp(0x0100, 0x04)\n  dup2\n  sload\n  dup2\n  0xff\n  mul\n  not\n  and\n  swap1\n  dup4\n  0xff\n  and\n  mul\n  or\n  swap1\n  sstore\n  pop\n  0x40\n  dup3\n  add\n  mload\n  dup2\n  0x00\n  add\n  exp(0x0100, 0x05)\n  dup2\n  sload\n  dup2\n  0xffffffff\n  mul\n  not\n  and\n  swap1\n  dup4\n  0xffffffff\n  and\n  mul\n  or\n  swap1\n  sstore\n  pop\n  0x60\n  dup3\n  add\n  mload\n  dup2\n  0x00\n  add\n  exp(0x0100, 0x09)\n  dup2\n  sload\n  dup2\n  0xffffffff\n  mul\n  not\n  and\n  swap1\n  dup4\n  0xffffffff\n  and\n  mul\n  or\n  swap1\n  sstore\n  pop\n  0x80\n  dup3\n  add\n  mload\n  dup2\n  0x00\n  add\n  exp(0x0100, 0x0d)\n  dup2\n  sload\n  dup2\n  0xffffffff\n  mul\n  not\n  and\n  swap1\n  dup4\n  0xffffffff\n  and\n  mul\n  or\n  swap1\n  sstore\n  pop\n  pop\n  pop\n    /* \"contracts/lib/referencesCode-eai/MaxNumberOfOperationByTime_refCod.sol\":537:542  maxOp */\n  0x00\n    /* \"contracts/lib/referencesCode-eai/MaxNumberOfOperationByTime_refCod.sol\":549:598  EAI.createMaxNumberOfOperationByTime(2, EAI.WEEK) */\n  tag_13\n    /* \"contracts/lib/referencesCode-eai/MaxNumberOfOperationByTime_refCod.sol\":586:587  2 */\n  0x02\n    /* \"contracts/lib/eai/EAI.sol\":784:785  4 */\n  0x04\n    /* \"contracts/lib/referencesCode-eai/MaxNumberOfOperationByTime_refCod.sol\":549:585  EAI.createMaxNumberOfOperationByTime */\n  or(tag_0_21, shl(0x20, tag_5))\n    /* \"contracts/lib/referencesCode-eai/MaxNumberOfOperationByTime_refCod.sol\":549:598  EAI.createMaxNumberOfOperationByTime(2, EAI.WEEK) */\n  0x20\n  shr\n  jump\t// in\ntag_13:\n    /* \"contracts/lib/referencesCode-eai/MaxNumberOfOperationByTime_refCod.sol\":537:599  maxOp.push( EAI.createMaxNumberOfOperationByTime(2, EAI.WEEK)) */\n  swap1\n  dup1\n  0x01\n  dup2\n  sload\n  add\n  dup1\n  dup3\n  sstore\n  dup1\n  swap2\n  pop\n  pop\n  0x01\n  swap1\n  sub\n  swap1\n  0x00\n  mstore\n  keccak256(0x00, 0x20)\n  add\n  0x00\n  swap1\n  swap2\n  swap1\n  swap2\n  swap1\n  swap2\n  pop\n  0x00\n  dup3\n  add\n  mload\n  dup2\n  0x00\n  add\n  exp(0x0100, 0x00)\n  dup2\n  sload\n  dup2\n  0xffffffff\n  mul\n  not\n  and\n  swap1\n  dup4\n  0xffffffff\n  and\n  mul\n  or\n  swap1\n  sstore\n  pop\n  0x20\n  dup3\n  add\n  mload\n  dup2\n  0x00\n  add\n  exp(0x0100, 0x04)\n  dup2\n  sload\n  dup2\n  0xff\n  mul\n  not\n  and\n  swap1\n  dup4\n  0xff\n  and\n  mul\n  or\n  swap1\n  sstore\n  pop\n  0x40\n  dup3\n  add\n  mload\n  dup2\n  0x00\n  add\n  exp(0x0100, 0x05)\n  dup2\n  sload\n  dup2\n  0xffffffff\n  mul\n  not\n  and\n  swap1\n  dup4\n  0xffffffff\n  and\n  mul\n  or\n  swap1\n  sstore\n  pop\n  0x60\n  dup3\n  add\n  mload\n  dup2\n  0x00\n  add\n  exp(0x0100, 0x09)\n  dup2\n  sload\n  dup2\n  0xffffffff\n  mul\n  not\n  and\n  swap1\n  dup4\n  0xffffffff\n  and\n  mul\n  or\n  swap1\n  sstore\n  pop\n  0x80\n  dup3\n  add\n  mload\n  dup2\n  0x00\n  add\n  exp(0x0100, 0x0d)\n  dup2\n  sload\n  dup2\n  0xffffffff\n  mul\n  not\n  and\n  swap1\n  dup4\n  0xffffffff\n  and\n  mul\n  or\n  swap1\n  sstore\n  pop\n  pop\n  pop\n    /* \"contracts/lib/referencesCode-eai/MaxNumberOfOperationByTime_refCod.sol\":606:611  maxOp */\n  0x00\n    /* \"contracts/lib/referencesCode-eai/MaxNumberOfOperationByTime_refCod.sol\":618:668  EAI.createMaxNumberOfOperationByTime(2, EAI.MONTH) */\n  tag_15\n    /* \"contracts/lib/referencesCode-eai/MaxNumberOfOperationByTime_refCod.sol\":655:656  2 */\n  0x02\n    /* \"contracts/lib/eai/EAI.sol\":814:815  5 */\n  0x05\n    /* \"contracts/lib/referencesCode-eai/MaxNumberOfOperationByTime_refCod.sol\":618:654  EAI.createMaxNumberOfOperationByTime */\n  or(tag_0_21, shl(0x20, tag_5))\n    /* \"contracts/lib/referencesCode-eai/MaxNumberOfOperationByTime_refCod.sol\":618:668  EAI.createMaxNumberOfOperationByTime(2, EAI.MONTH) */\n  0x20\n  shr\n  jump\t// in\ntag_15:\n    /* \"contracts/lib/referencesCode-eai/MaxNumberOfOperationByTime_refCod.sol\":606:669  maxOp.push( EAI.createMaxNumberOfOperationByTime(2, EAI.MONTH)) */\n  swap1\n  dup1\n  0x01\n  dup2\n  sload\n  add\n  dup1\n  dup3\n  sstore\n  dup1\n  swap2\n  pop\n  pop\n  0x01\n  swap1\n  sub\n  swap1\n  0x00\n  mstore\n  keccak256(0x00, 0x20)\n  add\n  0x00\n  swap1\n  swap2\n  swap1\n  swap2\n  swap1\n  swap2\n  pop\n  0x00\n  dup3\n  add\n  mload\n  dup2\n  0x00\n  add\n  exp(0x0100, 0x00)\n  dup2\n  sload\n  dup2\n  0xffffffff\n  mul\n  not\n  and\n  swap1\n  dup4\n  0xffffffff\n  and\n  mul\n  or\n  swap1\n  sstore\n  pop\n  0x20\n  dup3\n  add\n  mload\n  dup2\n  0x00\n  add\n  exp(0x0100, 0x04)\n  dup2\n  sload\n  dup2\n  0xff\n  mul\n  not\n  and\n  swap1\n  dup4\n  0xff\n  and\n  mul\n  or\n  swap1\n  sstore\n  pop\n  0x40\n  dup3\n  add\n  mload\n  dup2\n  0x00\n  add\n  exp(0x0100, 0x05)\n  dup2\n  sload\n  dup2\n  0xffffffff\n  mul\n  not\n  and\n  swap1\n  dup4\n  0xffffffff\n  and\n  mul\n  or\n  swap1\n  sstore\n  pop\n  0x60\n  dup3\n  add\n  mload\n  dup2\n  0x00\n  add\n  exp(0x0100, 0x09)\n  dup2\n  sload\n  dup2\n  0xffffffff\n  mul\n  not\n  and\n  swap1\n  dup4\n  0xffffffff\n  and\n  mul\n  or\n  swap1\n  sstore\n  pop\n  0x80\n  dup3\n  add\n  mload\n  dup2\n  0x00\n  add\n  exp(0x0100, 0x0d)\n  dup2\n  sload\n  dup2\n  0xffffffff\n  mul\n  not\n  and\n  swap1\n  dup4\n  0xffffffff\n  and\n  mul\n  or\n  swap1\n  sstore\n  pop\n  pop\n  pop\n    /* \"contracts/lib/referencesCode-eai/MaxNumberOfOperationByTime_refCod.sol\":676:681  maxOp */\n  0x00\n    /* \"contracts/lib/referencesCode-eai/MaxNumberOfOperationByTime_refCod.sol\":688:737  EAI.createMaxNumberOfOperationByTime(2, EAI.YEAR) */\n  tag_17\n    /* \"contracts/lib/referencesCode-eai/MaxNumberOfOperationByTime_refCod.sol\":725:726  2 */\n  0x02\n    /* \"contracts/lib/eai/EAI.sol\":843:844  6 */\n  0x06\n    /* \"contracts/lib/referencesCode-eai/MaxNumberOfOperationByTime_refCod.sol\":688:724  EAI.createMaxNumberOfOperationByTime */\n  or(tag_0_21, shl(0x20, tag_5))\n    /* \"contracts/lib/referencesCode-eai/MaxNumberOfOperationByTime_refCod.sol\":688:737  EAI.createMaxNumberOfOperationByTime(2, EAI.YEAR) */\n  0x20\n  shr\n  jump\t// in\ntag_17:\n    /* \"contracts/lib/referencesCode-eai/MaxNumberOfOperationByTime_refCod.sol\":676:738  maxOp.push( EAI.createMaxNumberOfOperationByTime(2, EAI.YEAR)) */\n  swap1\n  dup1\n  0x01\n  dup2\n  sload\n  add\n  dup1\n  dup3\n  sstore\n  dup1\n  swap2\n  pop\n  pop\n  0x01\n  swap1\n  sub\n  swap1\n  0x00\n  mstore\n  keccak256(0x00, 0x20)\n  add\n  0x00\n  swap1\n  swap2\n  swap1\n  swap2\n  swap1\n  swap2\n  pop\n  0x00\n  dup3\n  add\n  mload\n  dup2\n  0x00\n  add\n  exp(0x0100, 0x00)\n  dup2\n  sload\n  dup2\n  0xffffffff\n  mul\n  not\n  and\n  swap1\n  dup4\n  0xffffffff\n  and\n  mul\n  or\n  swap1\n  sstore\n  pop\n  0x20\n  dup3\n  add\n  mload\n  dup2\n  0x00\n  add\n  exp(0x0100, 0x04)\n  dup2\n  sload\n  dup2\n  0xff\n  mul\n  not\n  and\n  swap1\n  dup4\n  0xff\n  and\n  mul\n  or\n  swap1\n  sstore\n  pop\n  0x40\n  dup3\n  add\n  mload\n  dup2\n  0x00\n  add\n  exp(0x0100, 0x05)\n  dup2\n  sload\n  dup2\n  0xffffffff\n  mul\n  not\n  and\n  swap1\n  dup4\n  0xffffffff\n  and\n  mul\n  or\n  swap1\n  sstore\n  pop\n  0x60\n  dup3\n  add\n  mload\n  dup2\n  0x00\n  add\n  exp(0x0100, 0x09)\n  dup2\n  sload\n  dup2\n  0xffffffff\n  mul\n  not\n  and\n  swap1\n  dup4\n  0xffffffff\n  and\n  mul\n  or\n  swap1\n  sstore\n  pop\n  0x80\n  dup3\n  add\n  mload\n  dup2\n  0x00\n  add\n  exp(0x0100, 0x0d)\n  dup2\n  sload\n  dup2\n  0xffffffff\n  mul\n  not\n  and\n  swap1\n  dup4\n  0xffffffff\n  and\n  mul\n  or\n  swap1\n  sstore\n  pop\n  pop\n  pop\n    /* \"contracts/lib/referencesCode-eai/MaxNumberOfOperationByTime_refCod.sol\":95:1916  contract MaxNumberOfOperationByTime_refCod{   \r... */\n  jump(tag_19)\n    /* \"contracts/lib/eai/EAI.sol\":14017:14642  function createMaxNumberOfOperationByTime(\r... */\ntag_5:\n    /* \"contracts/lib/eai/EAI.sol\":14142:14175  MaxNumberOfOperationByTime memory */\n  tag_20\n  tag_21\n  jump\t// in\ntag_20:\n    /* \"contracts/lib/eai/EAI.sol\":14189:14205  uint32 auxByTime */\n  0x00\n    /* \"contracts/lib/eai/EAI.sol\":784:785  4 */\n  0x04\n    /* \"contracts/lib/eai/EAI.sol\":14221:14238  _timeUnit <= WEEK */\n  0xff\n  and\n    /* \"contracts/lib/eai/EAI.sol\":14221:14230  _timeUnit */\n  dup4\n    /* \"contracts/lib/eai/EAI.sol\":14221:14238  _timeUnit <= WEEK */\n  0xff\n  and\n  gt\n    /* \"contracts/lib/eai/EAI.sol\":14218:14554  if(_timeUnit <= WEEK){\r... */\n  tag_23\n  jumpi\n    /* \"contracts/lib/eai/EAI.sol\":14371:14398  getTimeInSeconds(_timeUnit) */\n  tag_24\n    /* \"contracts/lib/eai/EAI.sol\":14388:14397  _timeUnit */\n  dup4\n    /* \"contracts/lib/eai/EAI.sol\":14371:14387  getTimeInSeconds */\n  shl(0x20, tag_25)\n    /* \"contracts/lib/eai/EAI.sol\":14371:14398  getTimeInSeconds(_timeUnit) */\n  0x20\n  shr\n  jump\t// in\ntag_24:\n    /* \"contracts/lib/eai/EAI.sol\":14360:14398  auxByTime= getTimeInSeconds(_timeUnit) */\n  swap1\n  pop\n    /* \"contracts/lib/eai/EAI.sol\":14218:14554  if(_timeUnit <= WEEK){\r... */\n  jump(tag_26)\ntag_23:\n    /* \"contracts/lib/eai/EAI.sol\":14540:14541  1 */\n  0x01\n    /* \"contracts/lib/eai/EAI.sol\":14528:14541  auxByTime = 1 */\n  swap1\n  pop\n    /* \"contracts/lib/eai/EAI.sol\":14218:14554  if(_timeUnit <= WEEK){\r... */\ntag_26:\n    /* \"contracts/lib/eai/EAI.sol\":14571:14634  MaxNumberOfOperationByTime(_amount, _timeUnit, auxByTime, 0, 0) */\n  mload(0x40)\n  dup1\n  0xa0\n  add\n  0x40\n  mstore\n  dup1\n    /* \"contracts/lib/eai/EAI.sol\":14598:14605  _amount */\n  dup6\n    /* \"contracts/lib/eai/EAI.sol\":14571:14634  MaxNumberOfOperationByTime(_amount, _timeUnit, auxByTime, 0, 0) */\n  0xffffffff\n  and\n  dup2\n  mstore\n  0x20\n  add\n    /* \"contracts/lib/eai/EAI.sol\":14607:14616  _timeUnit */\n  dup5\n    /* \"contracts/lib/eai/EAI.sol\":14571:14634  MaxNumberOfOperationByTime(_amount, _timeUnit, auxByTime, 0, 0) */\n  0xff\n  and\n  dup2\n  mstore\n  0x20\n  add\n    /* \"contracts/lib/eai/EAI.sol\":14618:14627  auxByTime */\n  dup3\n    /* \"contracts/lib/eai/EAI.sol\":14571:14634  MaxNumberOfOperationByTime(_amount, _timeUnit, auxByTime, 0, 0) */\n  0xffffffff\n  and\n  dup2\n  mstore\n  0x20\n  add\n    /* \"contracts/lib/eai/EAI.sol\":14629:14630  0 */\n  0x00\n    /* \"contracts/lib/eai/EAI.sol\":14571:14634  MaxNumberOfOperationByTime(_amount, _timeUnit, auxByTime, 0, 0) */\n  0xffffffff\n  and\n  dup2\n  mstore\n  0x20\n  add\n    /* \"contracts/lib/eai/EAI.sol\":14632:14633  0 */\n  0x00\n    /* \"contracts/lib/eai/EAI.sol\":14571:14634  MaxNumberOfOperationByTime(_amount, _timeUnit, auxByTime, 0, 0) */\n  0xffffffff\n  and\n  dup2\n  mstore\n  pop\n    /* \"contracts/lib/eai/EAI.sol\":14564:14634  return MaxNumberOfOperationByTime(_amount, _timeUnit, auxByTime, 0, 0) */\n  swap2\n  pop\n  pop\n    /* \"contracts/lib/eai/EAI.sol\":14017:14642  function createMaxNumberOfOperationByTime(\r... */\n  swap3\n  swap2\n  pop\n  pop\n  jump\t// out\n    /* \"contracts/lib/eai/EAI.sol\":14650:15199  function getTimeInSeconds(uint8 timeUnit) private pure returns(uint32){\r... */\ntag_25:\n    /* \"contracts/lib/eai/EAI.sol\":14713:14719  uint32 */\n  0x00\n    /* \"contracts/lib/eai/EAI.sol\":784:785  4 */\n  0x04\n    /* \"contracts/lib/eai/EAI.sol\":14793:14809  timeUnit <= WEEK */\n  0xff\n  and\n    /* \"contracts/lib/eai/EAI.sol\":14793:14801  timeUnit */\n  dup3\n    /* \"contracts/lib/eai/EAI.sol\":14793:14809  timeUnit <= WEEK */\n  0xff\n  and\n  gt\n  iszero\n    /* \"contracts/lib/eai/EAI.sol\":14785:14873  require(timeUnit <= WEEK, \"The method getTimeInSeconds doesn't work for MONTH and YEAR\") */\n  tag_28\n  jumpi\n  mload(0x40)\n  0x08c379a000000000000000000000000000000000000000000000000000000000\n  dup2\n  mstore\n  0x04\n  add\n  tag_29\n  swap1\n  tag_30\n  jump\t// in\ntag_29:\n  mload(0x40)\n  dup1\n  swap2\n  sub\n  swap1\n  revert\ntag_28:\n    /* \"contracts/lib/eai/EAI.sol\":666:667  0 */\n  0x00\n    /* \"contracts/lib/eai/EAI.sol\":14889:14907  timeUnit == SECOND */\n  0xff\n  and\n    /* \"contracts/lib/eai/EAI.sol\":14889:14897  timeUnit */\n  dup3\n    /* \"contracts/lib/eai/EAI.sol\":14889:14907  timeUnit == SECOND */\n  0xff\n  and\n  eq\n    /* \"contracts/lib/eai/EAI.sol\":14886:15192  if(timeUnit == SECOND){\r... */\n  iszero\n  tag_31\n  jumpi\n    /* \"contracts/lib/eai/EAI.sol\":14930:14931  1 */\n  0x01\n    /* \"contracts/lib/eai/EAI.sol\":14923:14931  return 1 */\n  swap1\n  pop\n  jump(tag_27)\n    /* \"contracts/lib/eai/EAI.sol\":14886:15192  if(timeUnit == SECOND){\r... */\ntag_31:\n    /* \"contracts/lib/eai/EAI.sol\":698:699  1 */\n  0x01\n    /* \"contracts/lib/eai/EAI.sol\":14951:14969  timeUnit == MINUTE */\n  0xff\n  and\n    /* \"contracts/lib/eai/EAI.sol\":14951:14959  timeUnit */\n  dup3\n    /* \"contracts/lib/eai/EAI.sol\":14951:14969  timeUnit == MINUTE */\n  0xff\n  and\n  eq\n    /* \"contracts/lib/eai/EAI.sol\":14948:15192  if(timeUnit == MINUTE){\r... */\n  iszero\n  tag_33\n  jumpi\n    /* \"contracts/lib/eai/EAI.sol\":14992:14994  60 */\n  0x3c\n    /* \"contracts/lib/eai/EAI.sol\":14985:14994  return 60 */\n  swap1\n  pop\n  jump(tag_27)\n    /* \"contracts/lib/eai/EAI.sol\":14948:15192  if(timeUnit == MINUTE){\r... */\ntag_33:\n    /* \"contracts/lib/eai/EAI.sol\":727:728  2 */\n  0x02\n    /* \"contracts/lib/eai/EAI.sol\":15014:15030  timeUnit == HOUR */\n  0xff\n  and\n    /* \"contracts/lib/eai/EAI.sol\":15014:15022  timeUnit */\n  dup3\n    /* \"contracts/lib/eai/EAI.sol\":15014:15030  timeUnit == HOUR */\n  0xff\n  and\n  eq\n    /* \"contracts/lib/eai/EAI.sol\":15011:15192  if(timeUnit == HOUR ){\r... */\n  iszero\n  tag_35\n  jumpi\n    /* \"contracts/lib/eai/EAI.sol\":15054:15059  60*60 */\n  0x0e10\n    /* \"contracts/lib/eai/EAI.sol\":15047:15059  return 60*60 */\n  swap1\n  pop\n  jump(tag_27)\n    /* \"contracts/lib/eai/EAI.sol\":15011:15192  if(timeUnit == HOUR ){\r... */\ntag_35:\n    /* \"contracts/lib/eai/EAI.sol\":755:756  3 */\n  0x03\n    /* \"contracts/lib/eai/EAI.sol\":15079:15094  timeUnit == DAY */\n  0xff\n  and\n    /* \"contracts/lib/eai/EAI.sol\":15079:15087  timeUnit */\n  dup3\n    /* \"contracts/lib/eai/EAI.sol\":15079:15094  timeUnit == DAY */\n  0xff\n  and\n  eq\n    /* \"contracts/lib/eai/EAI.sol\":15076:15192  if(timeUnit == DAY){\r... */\n  iszero\n  tag_37\n  jumpi\n    /* \"contracts/lib/eai/EAI.sol\":15117:15125  60*60*24 */\n  0x015180\n    /* \"contracts/lib/eai/EAI.sol\":15110:15125  return 60*60*24 */\n  swap1\n  pop\n  jump(tag_27)\n    /* \"contracts/lib/eai/EAI.sol\":15076:15192  if(timeUnit == DAY){\r... */\ntag_37:\n    /* \"contracts/lib/eai/EAI.sol\":15163:15173  60*60*24*7 */\n  0x093a80\n    /* \"contracts/lib/eai/EAI.sol\":15156:15173  return 60*60*24*7 */\n  swap1\n  pop\n    /* \"contracts/lib/eai/EAI.sol\":14650:15199  function getTimeInSeconds(uint8 timeUnit) private pure returns(uint32){\r... */\ntag_27:\n  swap2\n  swap1\n  pop\n  jump\t// out\n    /* \"contracts/lib/referencesCode-eai/MaxNumberOfOperationByTime_refCod.sol\":95:1916  contract MaxNumberOfOperationByTime_refCod{   \r... */\ntag_21:\n  mload(0x40)\n  dup1\n  0xa0\n  add\n  0x40\n  mstore\n  dup1\n  and(0xffffffff, 0x00)\n  dup2\n  mstore\n  0x20\n  add\n  and(0xff, 0x00)\n  dup2\n  mstore\n  0x20\n  add\n  and(0xffffffff, 0x00)\n  dup2\n  mstore\n  0x20\n  add\n  and(0xffffffff, 0x00)\n  dup2\n  mstore\n  0x20\n  add\n  and(0xffffffff, 0x00)\n  dup2\n  mstore\n  pop\n  swap1\n  jump\t// out\n    /* \"#utility.yul\":7:373   */\ntag_40:\n    /* \"#utility.yul\":149:152   */\n  0x00\n    /* \"#utility.yul\":170:237   */\n  tag_42\n    /* \"#utility.yul\":234:236   */\n  0x3b\n    /* \"#utility.yul\":229:232   */\n  dup4\n    /* \"#utility.yul\":170:237   */\n  tag_43\n  jump\t// in\ntag_42:\n    /* \"#utility.yul\":163:237   */\n  swap2\n  pop\n    /* \"#utility.yul\":246:339   */\n  tag_44\n    /* \"#utility.yul\":335:338   */\n  dup3\n    /* \"#utility.yul\":246:339   */\n  tag_45\n  jump\t// in\ntag_44:\n    /* \"#utility.yul\":364:366   */\n  0x40\n    /* \"#utility.yul\":359:362   */\n  dup3\n    /* \"#utility.yul\":355:367   */\n  add\n    /* \"#utility.yul\":348:367   */\n  swap1\n  pop\n    /* \"#utility.yul\":7:373   */\n  swap2\n  swap1\n  pop\n  jump\t// out\n    /* \"#utility.yul\":379:798   */\ntag_30:\n    /* \"#utility.yul\":545:549   */\n  0x00\n    /* \"#utility.yul\":583:585   */\n  0x20\n    /* \"#utility.yul\":572:581   */\n  dup3\n    /* \"#utility.yul\":568:586   */\n  add\n    /* \"#utility.yul\":560:586   */\n  swap1\n  pop\n    /* \"#utility.yul\":632:641   */\n  dup2\n    /* \"#utility.yul\":626:630   */\n  dup2\n    /* \"#utility.yul\":622:642   */\n  sub\n    /* \"#utility.yul\":618:619   */\n  0x00\n    /* \"#utility.yul\":607:616   */\n  dup4\n    /* \"#utility.yul\":603:620   */\n  add\n    /* \"#utility.yul\":596:643   */\n  mstore\n    /* \"#utility.yul\":660:791   */\n  tag_47\n    /* \"#utility.yul\":786:790   */\n  dup2\n    /* \"#utility.yul\":660:791   */\n  tag_40\n  jump\t// in\ntag_47:\n    /* \"#utility.yul\":652:791   */\n  swap1\n  pop\n    /* \"#utility.yul\":379:798   */\n  swap2\n  swap1\n  pop\n  jump\t// out\n    /* \"#utility.yul\":804:973   */\ntag_43:\n    /* \"#utility.yul\":888:899   */\n  0x00\n    /* \"#utility.yul\":922:928   */\n  dup3\n    /* \"#utility.yul\":917:920   */\n  dup3\n    /* \"#utility.yul\":910:929   */\n  mstore\n    /* \"#utility.yul\":962:966   */\n  0x20\n    /* \"#utility.yul\":957:960   */\n  dup3\n    /* \"#utility.yul\":953:967   */\n  add\n    /* \"#utility.yul\":938:967   */\n  swap1\n  pop\n    /* \"#utility.yul\":804:973   */\n  swap3\n  swap2\n  pop\n  pop\n  jump\t// out\n    /* \"#utility.yul\":979:1225   */\ntag_45:\n    /* \"#utility.yul\":1119:1153   */\n  0x546865206d6574686f642067657454696d65496e5365636f6e647320646f6573\n    /* \"#utility.yul\":1115:1116   */\n  0x00\n    /* \"#utility.yul\":1107:1113   */\n  dup3\n    /* \"#utility.yul\":1103:1117   */\n  add\n    /* \"#utility.yul\":1096:1154   */\n  mstore\n    /* \"#utility.yul\":1188:1217   */\n  0x6e277420776f726b20666f72204d4f4e544820616e6420594541520000000000\n    /* \"#utility.yul\":1183:1185   */\n  0x20\n    /* \"#utility.yul\":1175:1181   */\n  dup3\n    /* \"#utility.yul\":1171:1186   */\n  add\n    /* \"#utility.yul\":1164:1218   */\n  mstore\n    /* \"#utility.yul\":979:1225   */\n  pop\n  jump\t// out\n    /* \"contracts/lib/referencesCode-eai/MaxNumberOfOperationByTime_refCod.sol\":95:1916  contract MaxNumberOfOperationByTime_refCod{   \r... */\ntag_19:\n  dataSize(sub_0)\n  dup1\n  dataOffset(sub_0)\n  0x00\n  codecopy\n  0x00\n  return\nstop\n\nsub_0: assembly {\n        /* \"contracts/lib/referencesCode-eai/MaxNumberOfOperationByTime_refCod.sol\":95:1916  contract MaxNumberOfOperationByTime_refCod{   \r... */\n      mstore(0x40, 0x80)\n      callvalue\n      dup1\n      iszero\n      tag_1\n      jumpi\n      0x00\n      dup1\n      revert\n    tag_1:\n      pop\n      jumpi(tag_2, lt(calldatasize, 0x04))\n      shr(0xe0, calldataload(0x00))\n      dup1\n      0x20f96206\n      eq\n      tag_3\n      jumpi\n      dup1\n      0x61eab309\n      eq\n      tag_4\n      jumpi\n      dup1\n      0xda7d9cdf\n      eq\n      tag_5\n      jumpi\n    tag_2:\n      0x00\n      dup1\n      revert\n        /* \"contracts/lib/referencesCode-eai/MaxNumberOfOperationByTime_refCod.sol\":1621:1743  function getMaxOp(uint _id) public view returns(EAI.MaxNumberOfOperationByTime memory){\r... */\n    tag_3:\n      tag_6\n      0x04\n      dup1\n      calldatasize\n      sub\n      dup2\n      add\n      swap1\n      tag_7\n      swap2\n      swap1\n      tag_8\n      jump\t// in\n    tag_7:\n      tag_9\n      jump\t// in\n    tag_6:\n      mload(0x40)\n      tag_10\n      swap2\n      swap1\n      tag_11\n      jump\t// in\n    tag_10:\n      mload(0x40)\n      dup1\n      swap2\n      sub\n      swap1\n      return\n        /* \"contracts/lib/referencesCode-eai/MaxNumberOfOperationByTime_refCod.sol\":1751:1911  function testTimestampToDate(uint _timestamp)public pure returns(uint32 year, uint32 month, uint32 day){\r... */\n    tag_4:\n      tag_12\n      0x04\n      dup1\n      calldatasize\n      sub\n      dup2\n      add\n      swap1\n      tag_13\n      swap2\n      swap1\n      tag_8\n      jump\t// in\n    tag_13:\n      tag_14\n      jump\t// in\n    tag_12:\n      mload(0x40)\n      tag_15\n      swap4\n      swap3\n      swap2\n      swap1\n      tag_16\n      jump\t// in\n    tag_15:\n      mload(0x40)\n      dup1\n      swap2\n      sub\n      swap1\n      return\n        /* \"contracts/lib/referencesCode-eai/MaxNumberOfOperationByTime_refCod.sol\":750:1613  function decreaseOperation(uint8 timeUnit, uint32 _accessTime)public {\r... */\n    tag_5:\n      tag_17\n      0x04\n      dup1\n      calldatasize\n      sub\n      dup2\n      add\n      swap1\n      tag_18\n      swap2\n      swap1\n      tag_19\n      jump\t// in\n    tag_18:\n      tag_20\n      jump\t// in\n    tag_17:\n      stop\n        /* \"contracts/lib/referencesCode-eai/MaxNumberOfOperationByTime_refCod.sol\":1621:1743  function getMaxOp(uint _id) public view returns(EAI.MaxNumberOfOperationByTime memory){\r... */\n    tag_9:\n        /* \"contracts/lib/referencesCode-eai/MaxNumberOfOperationByTime_refCod.sol\":1669:1706  EAI.MaxNumberOfOperationByTime memory */\n      tag_22\n      tag_23\n      jump\t// in\n    tag_22:\n        /* \"contracts/lib/referencesCode-eai/MaxNumberOfOperationByTime_refCod.sol\":1725:1730  maxOp */\n      0x00\n        /* \"contracts/lib/referencesCode-eai/MaxNumberOfOperationByTime_refCod.sol\":1731:1734  _id */\n      dup3\n        /* \"contracts/lib/referencesCode-eai/MaxNumberOfOperationByTime_refCod.sol\":1725:1735  maxOp[_id] */\n      dup2\n      sload\n      dup2\n      lt\n      tag_25\n      jumpi\n      tag_26\n      tag_27\n      jump\t// in\n    tag_26:\n    tag_25:\n      swap1\n      0x00\n      mstore\n      keccak256(0x00, 0x20)\n      add\n        /* \"contracts/lib/referencesCode-eai/MaxNumberOfOperationByTime_refCod.sol\":1718:1735  return maxOp[_id] */\n      mload(0x40)\n      dup1\n      0xa0\n      add\n      0x40\n      mstore\n      swap1\n      dup2\n      0x00\n      dup3\n      add\n      0x00\n      swap1\n      sload\n      swap1\n      0x0100\n      exp\n      swap1\n      div\n      0xffffffff\n      and\n      0xffffffff\n      and\n      0xffffffff\n      and\n      dup2\n      mstore\n      0x20\n      add\n      0x00\n      dup3\n      add\n      0x04\n      swap1\n      sload\n      swap1\n      0x0100\n      exp\n      swap1\n      div\n      0xff\n      and\n      0xff\n      and\n      0xff\n      and\n      dup2\n      mstore\n      0x20\n      add\n      0x00\n      dup3\n      add\n      0x05\n      swap1\n      sload\n      swap1\n      0x0100\n      exp\n      swap1\n      div\n      0xffffffff\n      and\n      0xffffffff\n      and\n      0xffffffff\n      and\n      dup2\n      mstore\n      0x20\n      add\n      0x00\n      dup3\n      add\n      0x09\n      swap1\n      sload\n      swap1\n      0x0100\n      exp\n      swap1\n      div\n      0xffffffff\n      and\n      0xffffffff\n      and\n      0xffffffff\n      and\n      dup2\n      mstore\n      0x20\n      add\n      0x00\n      dup3\n      add\n      0x0d\n      swap1\n      sload\n      swap1\n      0x0100\n      exp\n      swap1\n      div\n      0xffffffff\n      and\n      0xffffffff\n      and\n      0xffffffff\n      and\n      dup2\n      mstore\n      pop\n      pop\n      swap1\n      pop\n        /* \"contracts/lib/referencesCode-eai/MaxNumberOfOperationByTime_refCod.sol\":1621:1743  function getMaxOp(uint _id) public view returns(EAI.MaxNumberOfOperationByTime memory){\r... */\n      swap2\n      swap1\n      pop\n      jump\t// out\n        /* \"contracts/lib/referencesCode-eai/MaxNumberOfOperationByTime_refCod.sol\":1751:1911  function testTimestampToDate(uint _timestamp)public pure returns(uint32 year, uint32 month, uint32 day){\r... */\n    tag_14:\n        /* \"contracts/lib/referencesCode-eai/MaxNumberOfOperationByTime_refCod.sol\":1816:1827  uint32 year */\n      0x00\n        /* \"contracts/lib/referencesCode-eai/MaxNumberOfOperationByTime_refCod.sol\":1829:1841  uint32 month */\n      dup1\n        /* \"contracts/lib/referencesCode-eai/MaxNumberOfOperationByTime_refCod.sol\":1843:1853  uint32 day */\n      0x00\n        /* \"contracts/lib/referencesCode-eai/MaxNumberOfOperationByTime_refCod.sol\":1872:1903  EAI.timeStampToDate(_timestamp) */\n      tag_30\n        /* \"contracts/lib/referencesCode-eai/MaxNumberOfOperationByTime_refCod.sol\":1892:1902  _timestamp */\n      dup5\n        /* \"contracts/lib/referencesCode-eai/MaxNumberOfOperationByTime_refCod.sol\":1872:1891  EAI.timeStampToDate */\n      tag_31\n        /* \"contracts/lib/referencesCode-eai/MaxNumberOfOperationByTime_refCod.sol\":1872:1903  EAI.timeStampToDate(_timestamp) */\n      jump\t// in\n    tag_30:\n        /* \"contracts/lib/referencesCode-eai/MaxNumberOfOperationByTime_refCod.sol\":1865:1903  return EAI.timeStampToDate(_timestamp) */\n      swap3\n      pop\n      swap3\n      pop\n      swap3\n      pop\n        /* \"contracts/lib/referencesCode-eai/MaxNumberOfOperationByTime_refCod.sol\":1751:1911  function testTimestampToDate(uint _timestamp)public pure returns(uint32 year, uint32 month, uint32 day){\r... */\n      swap2\n      swap4\n      swap1\n      swap3\n      pop\n      jump\t// out\n        /* \"contracts/lib/referencesCode-eai/MaxNumberOfOperationByTime_refCod.sol\":750:1613  function decreaseOperation(uint8 timeUnit, uint32 _accessTime)public {\r... */\n    tag_20:\n        /* \"contracts/lib/eai/EAI.sol\":666:667  0 */\n      0x00\n        /* \"contracts/lib/referencesCode-eai/MaxNumberOfOperationByTime_refCod.sol\":833:855  timeUnit == EAI.SECOND */\n      0xff\n      and\n        /* \"contracts/lib/referencesCode-eai/MaxNumberOfOperationByTime_refCod.sol\":833:841  timeUnit */\n      dup3\n        /* \"contracts/lib/referencesCode-eai/MaxNumberOfOperationByTime_refCod.sol\":833:855  timeUnit == EAI.SECOND */\n      0xff\n      and\n      eq\n        /* \"contracts/lib/referencesCode-eai/MaxNumberOfOperationByTime_refCod.sol\":830:1606  if(timeUnit == EAI.SECOND){\r... */\n      iszero\n      tag_33\n      jumpi\n        /* \"contracts/lib/referencesCode-eai/MaxNumberOfOperationByTime_refCod.sol\":871:924  maxOp[0].decreaseNumberOfOperationByTime(_accessTime) */\n      tag_34\n        /* \"contracts/lib/referencesCode-eai/MaxNumberOfOperationByTime_refCod.sol\":912:923  _accessTime */\n      dup2\n        /* \"contracts/lib/referencesCode-eai/MaxNumberOfOperationByTime_refCod.sol\":871:876  maxOp */\n      0x00\n        /* \"contracts/lib/referencesCode-eai/MaxNumberOfOperationByTime_refCod.sol\":877:878  0 */\n      dup1\n        /* \"contracts/lib/referencesCode-eai/MaxNumberOfOperationByTime_refCod.sol\":871:879  maxOp[0] */\n      dup2\n      sload\n      dup2\n      lt\n      tag_35\n      jumpi\n      tag_36\n      tag_27\n      jump\t// in\n    tag_36:\n    tag_35:\n      swap1\n      0x00\n      mstore\n      keccak256(0x00, 0x20)\n      add\n        /* \"contracts/lib/referencesCode-eai/MaxNumberOfOperationByTime_refCod.sol\":871:911  maxOp[0].decreaseNumberOfOperationByTime */\n      tag_38\n      swap1\n        /* \"contracts/lib/referencesCode-eai/MaxNumberOfOperationByTime_refCod.sol\":871:924  maxOp[0].decreaseNumberOfOperationByTime(_accessTime) */\n      swap2\n      swap1\n      0xffffffff\n      and\n      jump\t// in\n    tag_34:\n        /* \"contracts/lib/referencesCode-eai/MaxNumberOfOperationByTime_refCod.sol\":830:1606  if(timeUnit == EAI.SECOND){\r... */\n      jump(tag_39)\n    tag_33:\n        /* \"contracts/lib/eai/EAI.sol\":698:699  1 */\n      0x01\n        /* \"contracts/lib/referencesCode-eai/MaxNumberOfOperationByTime_refCod.sol\":944:966  timeUnit == EAI.MINUTE */\n      0xff\n      and\n        /* \"contracts/lib/referencesCode-eai/MaxNumberOfOperationByTime_refCod.sol\":944:952  timeUnit */\n      dup3\n        /* \"contracts/lib/referencesCode-eai/MaxNumberOfOperationByTime_refCod.sol\":944:966  timeUnit == EAI.MINUTE */\n      0xff\n      and\n      eq\n        /* \"contracts/lib/referencesCode-eai/MaxNumberOfOperationByTime_refCod.sol\":941:1606  if(timeUnit == EAI.MINUTE){\r... */\n      iszero\n      tag_40\n      jumpi\n        /* \"contracts/lib/referencesCode-eai/MaxNumberOfOperationByTime_refCod.sol\":982:1035  maxOp[1].decreaseNumberOfOperationByTime(_accessTime) */\n      tag_41\n        /* \"contracts/lib/referencesCode-eai/MaxNumberOfOperationByTime_refCod.sol\":1023:1034  _accessTime */\n      dup2\n        /* \"contracts/lib/referencesCode-eai/MaxNumberOfOperationByTime_refCod.sol\":982:987  maxOp */\n      0x00\n        /* \"contracts/lib/referencesCode-eai/MaxNumberOfOperationByTime_refCod.sol\":988:989  1 */\n      0x01\n        /* \"contracts/lib/referencesCode-eai/MaxNumberOfOperationByTime_refCod.sol\":982:990  maxOp[1] */\n      dup2\n      sload\n      dup2\n      lt\n      tag_42\n      jumpi\n      tag_43\n      tag_27\n      jump\t// in\n    tag_43:\n    tag_42:\n      swap1\n      0x00\n      mstore\n      keccak256(0x00, 0x20)\n      add\n        /* \"contracts/lib/referencesCode-eai/MaxNumberOfOperationByTime_refCod.sol\":982:1022  maxOp[1].decreaseNumberOfOperationByTime */\n      tag_38\n      swap1\n        /* \"contracts/lib/referencesCode-eai/MaxNumberOfOperationByTime_refCod.sol\":982:1035  maxOp[1].decreaseNumberOfOperationByTime(_accessTime) */\n      swap2\n      swap1\n      0xffffffff\n      and\n      jump\t// in\n    tag_41:\n        /* \"contracts/lib/referencesCode-eai/MaxNumberOfOperationByTime_refCod.sol\":941:1606  if(timeUnit == EAI.MINUTE){\r... */\n      jump(tag_45)\n    tag_40:\n        /* \"contracts/lib/eai/EAI.sol\":727:728  2 */\n      0x02\n        /* \"contracts/lib/referencesCode-eai/MaxNumberOfOperationByTime_refCod.sol\":1055:1075  timeUnit == EAI.HOUR */\n      0xff\n      and\n        /* \"contracts/lib/referencesCode-eai/MaxNumberOfOperationByTime_refCod.sol\":1055:1063  timeUnit */\n      dup3\n        /* \"contracts/lib/referencesCode-eai/MaxNumberOfOperationByTime_refCod.sol\":1055:1075  timeUnit == EAI.HOUR */\n      0xff\n      and\n      eq\n        /* \"contracts/lib/referencesCode-eai/MaxNumberOfOperationByTime_refCod.sol\":1052:1606  if(timeUnit == EAI.HOUR ){\r... */\n      iszero\n      tag_46\n      jumpi\n        /* \"contracts/lib/referencesCode-eai/MaxNumberOfOperationByTime_refCod.sol\":1092:1145  maxOp[2].decreaseNumberOfOperationByTime(_accessTime) */\n      tag_47\n        /* \"contracts/lib/referencesCode-eai/MaxNumberOfOperationByTime_refCod.sol\":1133:1144  _accessTime */\n      dup2\n        /* \"contracts/lib/referencesCode-eai/MaxNumberOfOperationByTime_refCod.sol\":1092:1097  maxOp */\n      0x00\n        /* \"contracts/lib/referencesCode-eai/MaxNumberOfOperationByTime_refCod.sol\":1098:1099  2 */\n      0x02\n        /* \"contracts/lib/referencesCode-eai/MaxNumberOfOperationByTime_refCod.sol\":1092:1100  maxOp[2] */\n      dup2\n      sload\n      dup2\n      lt\n      tag_48\n      jumpi\n      tag_49\n      tag_27\n      jump\t// in\n    tag_49:\n    tag_48:\n      swap1\n      0x00\n      mstore\n      keccak256(0x00, 0x20)\n      add\n        /* \"contracts/lib/referencesCode-eai/MaxNumberOfOperationByTime_refCod.sol\":1092:1132  maxOp[2].decreaseNumberOfOperationByTime */\n      tag_38\n      swap1\n        /* \"contracts/lib/referencesCode-eai/MaxNumberOfOperationByTime_refCod.sol\":1092:1145  maxOp[2].decreaseNumberOfOperationByTime(_accessTime) */\n      swap2\n      swap1\n      0xffffffff\n      and\n      jump\t// in\n    tag_47:\n        /* \"contracts/lib/referencesCode-eai/MaxNumberOfOperationByTime_refCod.sol\":1052:1606  if(timeUnit == EAI.HOUR ){\r... */\n      jump(tag_51)\n    tag_46:\n        /* \"contracts/lib/eai/EAI.sol\":755:756  3 */\n      0x03\n        /* \"contracts/lib/referencesCode-eai/MaxNumberOfOperationByTime_refCod.sol\":1165:1184  timeUnit == EAI.DAY */\n      0xff\n      and\n        /* \"contracts/lib/referencesCode-eai/MaxNumberOfOperationByTime_refCod.sol\":1165:1173  timeUnit */\n      dup3\n        /* \"contracts/lib/referencesCode-eai/MaxNumberOfOperationByTime_refCod.sol\":1165:1184  timeUnit == EAI.DAY */\n      0xff\n      and\n      eq\n        /* \"contracts/lib/referencesCode-eai/MaxNumberOfOperationByTime_refCod.sol\":1162:1606  if(timeUnit == EAI.DAY){\r... */\n      iszero\n      tag_52\n      jumpi\n        /* \"contracts/lib/referencesCode-eai/MaxNumberOfOperationByTime_refCod.sol\":1200:1253  maxOp[3].decreaseNumberOfOperationByTime(_accessTime) */\n      tag_53\n        /* \"contracts/lib/referencesCode-eai/MaxNumberOfOperationByTime_refCod.sol\":1241:1252  _accessTime */\n      dup2\n        /* \"contracts/lib/referencesCode-eai/MaxNumberOfOperationByTime_refCod.sol\":1200:1205  maxOp */\n      0x00\n        /* \"contracts/lib/referencesCode-eai/MaxNumberOfOperationByTime_refCod.sol\":1206:1207  3 */\n      0x03\n        /* \"contracts/lib/referencesCode-eai/MaxNumberOfOperationByTime_refCod.sol\":1200:1208  maxOp[3] */\n      dup2\n      sload\n      dup2\n      lt\n      tag_54\n      jumpi\n      tag_55\n      tag_27\n      jump\t// in\n    tag_55:\n    tag_54:\n      swap1\n      0x00\n      mstore\n      keccak256(0x00, 0x20)\n      add\n        /* \"contracts/lib/referencesCode-eai/MaxNumberOfOperationByTime_refCod.sol\":1200:1240  maxOp[3].decreaseNumberOfOperationByTime */\n      tag_38\n      swap1\n        /* \"contracts/lib/referencesCode-eai/MaxNumberOfOperationByTime_refCod.sol\":1200:1253  maxOp[3].decreaseNumberOfOperationByTime(_accessTime) */\n      swap2\n      swap1\n      0xffffffff\n      and\n      jump\t// in\n    tag_53:\n        /* \"contracts/lib/referencesCode-eai/MaxNumberOfOperationByTime_refCod.sol\":1162:1606  if(timeUnit == EAI.DAY){\r... */\n      jump(tag_57)\n    tag_52:\n        /* \"contracts/lib/eai/EAI.sol\":784:785  4 */\n      0x04\n        /* \"contracts/lib/referencesCode-eai/MaxNumberOfOperationByTime_refCod.sol\":1285:1305  timeUnit == EAI.WEEK */\n      0xff\n      and\n        /* \"contracts/lib/referencesCode-eai/MaxNumberOfOperationByTime_refCod.sol\":1285:1293  timeUnit */\n      dup3\n        /* \"contracts/lib/referencesCode-eai/MaxNumberOfOperationByTime_refCod.sol\":1285:1305  timeUnit == EAI.WEEK */\n      0xff\n      and\n      eq\n        /* \"contracts/lib/referencesCode-eai/MaxNumberOfOperationByTime_refCod.sol\":1282:1606  if(timeUnit == EAI.WEEK){\r... */\n      iszero\n      tag_58\n      jumpi\n        /* \"contracts/lib/referencesCode-eai/MaxNumberOfOperationByTime_refCod.sol\":1321:1374  maxOp[4].decreaseNumberOfOperationByTime(_accessTime) */\n      tag_59\n        /* \"contracts/lib/referencesCode-eai/MaxNumberOfOperationByTime_refCod.sol\":1362:1373  _accessTime */\n      dup2\n        /* \"contracts/lib/referencesCode-eai/MaxNumberOfOperationByTime_refCod.sol\":1321:1326  maxOp */\n      0x00\n        /* \"contracts/lib/referencesCode-eai/MaxNumberOfOperationByTime_refCod.sol\":1327:1328  4 */\n      0x04\n        /* \"contracts/lib/referencesCode-eai/MaxNumberOfOperationByTime_refCod.sol\":1321:1329  maxOp[4] */\n      dup2\n      sload\n      dup2\n      lt\n      tag_60\n      jumpi\n      tag_61\n      tag_27\n      jump\t// in\n    tag_61:\n    tag_60:\n      swap1\n      0x00\n      mstore\n      keccak256(0x00, 0x20)\n      add\n        /* \"contracts/lib/referencesCode-eai/MaxNumberOfOperationByTime_refCod.sol\":1321:1361  maxOp[4].decreaseNumberOfOperationByTime */\n      tag_38\n      swap1\n        /* \"contracts/lib/referencesCode-eai/MaxNumberOfOperationByTime_refCod.sol\":1321:1374  maxOp[4].decreaseNumberOfOperationByTime(_accessTime) */\n      swap2\n      swap1\n      0xffffffff\n      and\n      jump\t// in\n    tag_59:\n        /* \"contracts/lib/referencesCode-eai/MaxNumberOfOperationByTime_refCod.sol\":1282:1606  if(timeUnit == EAI.WEEK){\r... */\n      jump(tag_63)\n    tag_58:\n        /* \"contracts/lib/eai/EAI.sol\":814:815  5 */\n      0x05\n        /* \"contracts/lib/referencesCode-eai/MaxNumberOfOperationByTime_refCod.sol\":1394:1415  timeUnit == EAI.MONTH */\n      0xff\n      and\n        /* \"contracts/lib/referencesCode-eai/MaxNumberOfOperationByTime_refCod.sol\":1394:1402  timeUnit */\n      dup3\n        /* \"contracts/lib/referencesCode-eai/MaxNumberOfOperationByTime_refCod.sol\":1394:1415  timeUnit == EAI.MONTH */\n      0xff\n      and\n      eq\n        /* \"contracts/lib/referencesCode-eai/MaxNumberOfOperationByTime_refCod.sol\":1391:1606  if(timeUnit == EAI.MONTH){\r... */\n      iszero\n      tag_64\n      jumpi\n        /* \"contracts/lib/referencesCode-eai/MaxNumberOfOperationByTime_refCod.sol\":1431:1484  maxOp[5].decreaseNumberOfOperationByTime(_accessTime) */\n      tag_65\n        /* \"contracts/lib/referencesCode-eai/MaxNumberOfOperationByTime_refCod.sol\":1472:1483  _accessTime */\n      dup2\n        /* \"contracts/lib/referencesCode-eai/MaxNumberOfOperationByTime_refCod.sol\":1431:1436  maxOp */\n      0x00\n        /* \"contracts/lib/referencesCode-eai/MaxNumberOfOperationByTime_refCod.sol\":1437:1438  5 */\n      0x05\n        /* \"contracts/lib/referencesCode-eai/MaxNumberOfOperationByTime_refCod.sol\":1431:1439  maxOp[5] */\n      dup2\n      sload\n      dup2\n      lt\n      tag_66\n      jumpi\n      tag_67\n      tag_27\n      jump\t// in\n    tag_67:\n    tag_66:\n      swap1\n      0x00\n      mstore\n      keccak256(0x00, 0x20)\n      add\n        /* \"contracts/lib/referencesCode-eai/MaxNumberOfOperationByTime_refCod.sol\":1431:1471  maxOp[5].decreaseNumberOfOperationByTime */\n      tag_38\n      swap1\n        /* \"contracts/lib/referencesCode-eai/MaxNumberOfOperationByTime_refCod.sol\":1431:1484  maxOp[5].decreaseNumberOfOperationByTime(_accessTime) */\n      swap2\n      swap1\n      0xffffffff\n      and\n      jump\t// in\n    tag_65:\n        /* \"contracts/lib/referencesCode-eai/MaxNumberOfOperationByTime_refCod.sol\":1391:1606  if(timeUnit == EAI.MONTH){\r... */\n      jump(tag_69)\n    tag_64:\n        /* \"contracts/lib/eai/EAI.sol\":843:844  6 */\n      0x06\n        /* \"contracts/lib/referencesCode-eai/MaxNumberOfOperationByTime_refCod.sol\":1504:1524  timeUnit == EAI.YEAR */\n      0xff\n      and\n        /* \"contracts/lib/referencesCode-eai/MaxNumberOfOperationByTime_refCod.sol\":1504:1512  timeUnit */\n      dup3\n        /* \"contracts/lib/referencesCode-eai/MaxNumberOfOperationByTime_refCod.sol\":1504:1524  timeUnit == EAI.YEAR */\n      0xff\n      and\n      eq\n        /* \"contracts/lib/referencesCode-eai/MaxNumberOfOperationByTime_refCod.sol\":1501:1606  if(timeUnit == EAI.YEAR ){\r... */\n      iszero\n      tag_70\n      jumpi\n        /* \"contracts/lib/referencesCode-eai/MaxNumberOfOperationByTime_refCod.sol\":1541:1594  maxOp[6].decreaseNumberOfOperationByTime(_accessTime) */\n      tag_71\n        /* \"contracts/lib/referencesCode-eai/MaxNumberOfOperationByTime_refCod.sol\":1582:1593  _accessTime */\n      dup2\n        /* \"contracts/lib/referencesCode-eai/MaxNumberOfOperationByTime_refCod.sol\":1541:1546  maxOp */\n      0x00\n        /* \"contracts/lib/referencesCode-eai/MaxNumberOfOperationByTime_refCod.sol\":1547:1548  6 */\n      0x06\n        /* \"contracts/lib/referencesCode-eai/MaxNumberOfOperationByTime_refCod.sol\":1541:1549  maxOp[6] */\n      dup2\n      sload\n      dup2\n      lt\n      tag_72\n      jumpi\n      tag_73\n      tag_27\n      jump\t// in\n    tag_73:\n    tag_72:\n      swap1\n      0x00\n      mstore\n      keccak256(0x00, 0x20)\n      add\n        /* \"contracts/lib/referencesCode-eai/MaxNumberOfOperationByTime_refCod.sol\":1541:1581  maxOp[6].decreaseNumberOfOperationByTime */\n      tag_38\n      swap1\n        /* \"contracts/lib/referencesCode-eai/MaxNumberOfOperationByTime_refCod.sol\":1541:1594  maxOp[6].decreaseNumberOfOperationByTime(_accessTime) */\n      swap2\n      swap1\n      0xffffffff\n      and\n      jump\t// in\n    tag_71:\n        /* \"contracts/lib/referencesCode-eai/MaxNumberOfOperationByTime_refCod.sol\":1501:1606  if(timeUnit == EAI.YEAR ){\r... */\n    tag_70:\n        /* \"contracts/lib/referencesCode-eai/MaxNumberOfOperationByTime_refCod.sol\":1391:1606  if(timeUnit == EAI.MONTH){\r... */\n    tag_69:\n        /* \"contracts/lib/referencesCode-eai/MaxNumberOfOperationByTime_refCod.sol\":1282:1606  if(timeUnit == EAI.WEEK){\r... */\n    tag_63:\n        /* \"contracts/lib/referencesCode-eai/MaxNumberOfOperationByTime_refCod.sol\":1162:1606  if(timeUnit == EAI.DAY){\r... */\n    tag_57:\n        /* \"contracts/lib/referencesCode-eai/MaxNumberOfOperationByTime_refCod.sol\":1052:1606  if(timeUnit == EAI.HOUR ){\r... */\n    tag_51:\n        /* \"contracts/lib/referencesCode-eai/MaxNumberOfOperationByTime_refCod.sol\":941:1606  if(timeUnit == EAI.MINUTE){\r... */\n    tag_45:\n        /* \"contracts/lib/referencesCode-eai/MaxNumberOfOperationByTime_refCod.sol\":830:1606  if(timeUnit == EAI.SECOND){\r... */\n    tag_39:\n        /* \"contracts/lib/referencesCode-eai/MaxNumberOfOperationByTime_refCod.sol\":750:1613  function decreaseOperation(uint8 timeUnit, uint32 _accessTime)public {\r... */\n      pop\n      pop\n      jump\t// out\n        /* \"contracts/lib/eai/EAI.sol\":14017:14642  function createMaxNumberOfOperationByTime(\r... */\n    tag_21:\n        /* \"contracts/lib/eai/EAI.sol\":14142:14175  MaxNumberOfOperationByTime memory */\n      tag_75\n      tag_23\n      jump\t// in\n    tag_75:\n        /* \"contracts/lib/eai/EAI.sol\":14189:14205  uint32 auxByTime */\n      0x00\n        /* \"contracts/lib/eai/EAI.sol\":784:785  4 */\n      0x04\n        /* \"contracts/lib/eai/EAI.sol\":14221:14238  _timeUnit <= WEEK */\n      0xff\n      and\n        /* \"contracts/lib/eai/EAI.sol\":14221:14230  _timeUnit */\n      dup4\n        /* \"contracts/lib/eai/EAI.sol\":14221:14238  _timeUnit <= WEEK */\n      0xff\n      and\n      gt\n        /* \"contracts/lib/eai/EAI.sol\":14218:14554  if(_timeUnit <= WEEK){\r... */\n      tag_77\n      jumpi\n        /* \"contracts/lib/eai/EAI.sol\":14371:14398  getTimeInSeconds(_timeUnit) */\n      tag_78\n        /* \"contracts/lib/eai/EAI.sol\":14388:14397  _timeUnit */\n      dup4\n        /* \"contracts/lib/eai/EAI.sol\":14371:14387  getTimeInSeconds */\n      tag_79\n        /* \"contracts/lib/eai/EAI.sol\":14371:14398  getTimeInSeconds(_timeUnit) */\n      jump\t// in\n    tag_78:\n        /* \"contracts/lib/eai/EAI.sol\":14360:14398  auxByTime= getTimeInSeconds(_timeUnit) */\n      swap1\n      pop\n        /* \"contracts/lib/eai/EAI.sol\":14218:14554  if(_timeUnit <= WEEK){\r... */\n      jump(tag_80)\n    tag_77:\n        /* \"contracts/lib/eai/EAI.sol\":14540:14541  1 */\n      0x01\n        /* \"contracts/lib/eai/EAI.sol\":14528:14541  auxByTime = 1 */\n      swap1\n      pop\n        /* \"contracts/lib/eai/EAI.sol\":14218:14554  if(_timeUnit <= WEEK){\r... */\n    tag_80:\n        /* \"contracts/lib/eai/EAI.sol\":14571:14634  MaxNumberOfOperationByTime(_amount, _timeUnit, auxByTime, 0, 0) */\n      mload(0x40)\n      dup1\n      0xa0\n      add\n      0x40\n      mstore\n      dup1\n        /* \"contracts/lib/eai/EAI.sol\":14598:14605  _amount */\n      dup6\n        /* \"contracts/lib/eai/EAI.sol\":14571:14634  MaxNumberOfOperationByTime(_amount, _timeUnit, auxByTime, 0, 0) */\n      0xffffffff\n      and\n      dup2\n      mstore\n      0x20\n      add\n        /* \"contracts/lib/eai/EAI.sol\":14607:14616  _timeUnit */\n      dup5\n        /* \"contracts/lib/eai/EAI.sol\":14571:14634  MaxNumberOfOperationByTime(_amount, _timeUnit, auxByTime, 0, 0) */\n      0xff\n      and\n      dup2\n      mstore\n      0x20\n      add\n        /* \"contracts/lib/eai/EAI.sol\":14618:14627  auxByTime */\n      dup3\n        /* \"contracts/lib/eai/EAI.sol\":14571:14634  MaxNumberOfOperationByTime(_amount, _timeUnit, auxByTime, 0, 0) */\n      0xffffffff\n      and\n      dup2\n      mstore\n      0x20\n      add\n        /* \"contracts/lib/eai/EAI.sol\":14629:14630  0 */\n      0x00\n        /* \"contracts/lib/eai/EAI.sol\":14571:14634  MaxNumberOfOperationByTime(_amount, _timeUnit, auxByTime, 0, 0) */\n      0xffffffff\n      and\n      dup2\n      mstore\n      0x20\n      add\n        /* \"contracts/lib/eai/EAI.sol\":14632:14633  0 */\n      0x00\n        /* \"contracts/lib/eai/EAI.sol\":14571:14634  MaxNumberOfOperationByTime(_amount, _timeUnit, auxByTime, 0, 0) */\n      0xffffffff\n      and\n      dup2\n      mstore\n      pop\n        /* \"contracts/lib/eai/EAI.sol\":14564:14634  return MaxNumberOfOperationByTime(_amount, _timeUnit, auxByTime, 0, 0) */\n      swap2\n      pop\n      pop\n        /* \"contracts/lib/eai/EAI.sol\":14017:14642  function createMaxNumberOfOperationByTime(\r... */\n      swap3\n      swap2\n      pop\n      pop\n      jump\t// out\n        /* \"contracts/lib/eai/EAI.sol\":19723:20419  function timeStampToDate(uint _timestamp) internal pure returns (uint32 year, uint32 month, uint32 day) {\r... */\n    tag_31:\n        /* \"contracts/lib/eai/EAI.sol\":19788:19799  uint32 year */\n      0x00\n        /* \"contracts/lib/eai/EAI.sol\":19801:19813  uint32 month */\n      dup1\n        /* \"contracts/lib/eai/EAI.sol\":19815:19825  uint32 day */\n      0x00\n        /* \"contracts/lib/eai/EAI.sol\":19847:19860  uint32 __days */\n      dup1\n        /* \"contracts/lib/eai/EAI.sol\":1073:1081  24*60*60 */\n      0x015180\n        /* \"contracts/lib/eai/EAI.sol\":19870:19898  _timestamp / SECONDS_PER_DAY */\n      0xffffffff\n      and\n        /* \"contracts/lib/eai/EAI.sol\":19870:19880  _timestamp */\n      dup6\n        /* \"contracts/lib/eai/EAI.sol\":19870:19898  _timestamp / SECONDS_PER_DAY */\n      tag_82\n      swap2\n      swap1\n      tag_83\n      jump\t// in\n    tag_82:\n        /* \"contracts/lib/eai/EAI.sol\":19847:19899  uint32 __days = uint32(_timestamp / SECONDS_PER_DAY) */\n      swap1\n      pop\n        /* \"contracts/lib/eai/EAI.sol\":19912:19920  uint32 L */\n      0x00\n        /* \"contracts/lib/eai/EAI.sol\":1121:1128  2440588 */\n      0x253d8c\n        /* \"contracts/lib/eai/EAI.sol\":19932:19937  68569 */\n      0x010bd9\n        /* \"contracts/lib/eai/EAI.sol\":19923:19929  __days */\n      dup4\n        /* \"contracts/lib/eai/EAI.sol\":19923:19937  __days + 68569 */\n      tag_84\n      swap2\n      swap1\n      tag_85\n      jump\t// in\n    tag_84:\n        /* \"contracts/lib/eai/EAI.sol\":19923:19954  __days + 68569 + OFFSET19700101 */\n      tag_86\n      swap2\n      swap1\n      tag_85\n      jump\t// in\n    tag_86:\n        /* \"contracts/lib/eai/EAI.sol\":19912:19954  uint32 L = __days + 68569 + OFFSET19700101 */\n      swap1\n      pop\n        /* \"contracts/lib/eai/EAI.sol\":19965:19973  uint32 N */\n      0x00\n        /* \"contracts/lib/eai/EAI.sol\":19984:19990  146097 */\n      0x023ab1\n        /* \"contracts/lib/eai/EAI.sol\":19980:19981  L */\n      dup3\n        /* \"contracts/lib/eai/EAI.sol\":19976:19977  4 */\n      0x04\n        /* \"contracts/lib/eai/EAI.sol\":19976:19981  4 * L */\n      tag_87\n      swap2\n      swap1\n      tag_88\n      jump\t// in\n    tag_87:\n        /* \"contracts/lib/eai/EAI.sol\":19976:19990  4 * L / 146097 */\n      tag_89\n      swap2\n      swap1\n      tag_90\n      jump\t// in\n    tag_89:\n        /* \"contracts/lib/eai/EAI.sol\":19965:19990  uint32 N = 4 * L / 146097 */\n      swap1\n      pop\n        /* \"contracts/lib/eai/EAI.sol\":20028:20029  4 */\n      0x04\n        /* \"contracts/lib/eai/EAI.sol\":20023:20024  3 */\n      0x03\n        /* \"contracts/lib/eai/EAI.sol\":20019:20020  N */\n      dup3\n        /* \"contracts/lib/eai/EAI.sol\":20010:20016  146097 */\n      0x023ab1\n        /* \"contracts/lib/eai/EAI.sol\":20010:20020  146097 * N */\n      tag_91\n      swap2\n      swap1\n      tag_88\n      jump\t// in\n    tag_91:\n        /* \"contracts/lib/eai/EAI.sol\":20010:20024  146097 * N + 3 */\n      tag_92\n      swap2\n      swap1\n      tag_85\n      jump\t// in\n    tag_92:\n        /* \"contracts/lib/eai/EAI.sol\":20009:20029  (146097 * N + 3) / 4 */\n      tag_93\n      swap2\n      swap1\n      tag_90\n      jump\t// in\n    tag_93:\n        /* \"contracts/lib/eai/EAI.sol\":20005:20006  L */\n      dup3\n        /* \"contracts/lib/eai/EAI.sol\":20005:20029  L - (146097 * N + 3) / 4 */\n      tag_94\n      swap2\n      swap1\n      tag_95\n      jump\t// in\n    tag_94:\n        /* \"contracts/lib/eai/EAI.sol\":20001:20029  L = L - (146097 * N + 3) / 4 */\n      swap2\n      pop\n        /* \"contracts/lib/eai/EAI.sol\":20040:20052  uint32 _year */\n      0x00\n        /* \"contracts/lib/eai/EAI.sol\":20072:20079  1461001 */\n      0x164b09\n        /* \"contracts/lib/eai/EAI.sol\":20067:20068  1 */\n      0x01\n        /* \"contracts/lib/eai/EAI.sol\":20063:20064  L */\n      dup5\n        /* \"contracts/lib/eai/EAI.sol\":20063:20068  L + 1 */\n      tag_96\n      swap2\n      swap1\n      tag_85\n      jump\t// in\n    tag_96:\n        /* \"contracts/lib/eai/EAI.sol\":20055:20059  4000 */\n      0x0fa0\n        /* \"contracts/lib/eai/EAI.sol\":20055:20069  4000 * (L + 1) */\n      tag_97\n      swap2\n      swap1\n      tag_88\n      jump\t// in\n    tag_97:\n        /* \"contracts/lib/eai/EAI.sol\":20055:20079  4000 * (L + 1) / 1461001 */\n      tag_98\n      swap2\n      swap1\n      tag_90\n      jump\t// in\n    tag_98:\n        /* \"contracts/lib/eai/EAI.sol\":20040:20079  uint32 _year = 4000 * (L + 1) / 1461001 */\n      swap1\n      pop\n        /* \"contracts/lib/eai/EAI.sol\":20117:20119  31 */\n      0x1f\n        /* \"contracts/lib/eai/EAI.sol\":20113:20114  4 */\n      0x04\n        /* \"contracts/lib/eai/EAI.sol\":20105:20110  _year */\n      dup3\n        /* \"contracts/lib/eai/EAI.sol\":20098:20102  1461 */\n      0x05b5\n        /* \"contracts/lib/eai/EAI.sol\":20098:20110  1461 * _year */\n      tag_99\n      swap2\n      swap1\n      tag_88\n      jump\t// in\n    tag_99:\n        /* \"contracts/lib/eai/EAI.sol\":20098:20114  1461 * _year / 4 */\n      tag_100\n      swap2\n      swap1\n      tag_90\n      jump\t// in\n    tag_100:\n        /* \"contracts/lib/eai/EAI.sol\":20094:20095  L */\n      dup5\n        /* \"contracts/lib/eai/EAI.sol\":20094:20114  L - 1461 * _year / 4 */\n      tag_101\n      swap2\n      swap1\n      tag_95\n      jump\t// in\n    tag_101:\n        /* \"contracts/lib/eai/EAI.sol\":20094:20119  L - 1461 * _year / 4 + 31 */\n      tag_102\n      swap2\n      swap1\n      tag_85\n      jump\t// in\n    tag_102:\n        /* \"contracts/lib/eai/EAI.sol\":20090:20119  L = L - 1461 * _year / 4 + 31 */\n      swap3\n      pop\n        /* \"contracts/lib/eai/EAI.sol\":20130:20143  uint32 _month */\n      0x00\n        /* \"contracts/lib/eai/EAI.sol\":20155:20159  2447 */\n      0x098f\n        /* \"contracts/lib/eai/EAI.sol\":20151:20152  L */\n      dup5\n        /* \"contracts/lib/eai/EAI.sol\":20146:20148  80 */\n      0x50\n        /* \"contracts/lib/eai/EAI.sol\":20146:20152  80 * L */\n      tag_103\n      swap2\n      swap1\n      tag_88\n      jump\t// in\n    tag_103:\n        /* \"contracts/lib/eai/EAI.sol\":20146:20159  80 * L / 2447 */\n      tag_104\n      swap2\n      swap1\n      tag_90\n      jump\t// in\n    tag_104:\n        /* \"contracts/lib/eai/EAI.sol\":20130:20159  uint32 _month = 80 * L / 2447 */\n      swap1\n      pop\n        /* \"contracts/lib/eai/EAI.sol\":20170:20181  uint32 _day */\n      0x00\n        /* \"contracts/lib/eai/EAI.sol\":20204:20206  80 */\n      0x50\n        /* \"contracts/lib/eai/EAI.sol\":20195:20201  _month */\n      dup3\n        /* \"contracts/lib/eai/EAI.sol\":20188:20192  2447 */\n      0x098f\n        /* \"contracts/lib/eai/EAI.sol\":20188:20201  2447 * _month */\n      tag_105\n      swap2\n      swap1\n      tag_88\n      jump\t// in\n    tag_105:\n        /* \"contracts/lib/eai/EAI.sol\":20188:20206  2447 * _month / 80 */\n      tag_106\n      swap2\n      swap1\n      tag_90\n      jump\t// in\n    tag_106:\n        /* \"contracts/lib/eai/EAI.sol\":20184:20185  L */\n      dup6\n        /* \"contracts/lib/eai/EAI.sol\":20184:20206  L - 2447 * _month / 80 */\n      tag_107\n      swap2\n      swap1\n      tag_95\n      jump\t// in\n    tag_107:\n        /* \"contracts/lib/eai/EAI.sol\":20170:20206  uint32 _day = L - 2447 * _month / 80 */\n      swap1\n      pop\n        /* \"contracts/lib/eai/EAI.sol\":20230:20232  11 */\n      0x0b\n        /* \"contracts/lib/eai/EAI.sol\":20221:20227  _month */\n      dup3\n        /* \"contracts/lib/eai/EAI.sol\":20221:20232  _month / 11 */\n      tag_108\n      swap2\n      swap1\n      tag_90\n      jump\t// in\n    tag_108:\n        /* \"contracts/lib/eai/EAI.sol\":20217:20232  L = _month / 11 */\n      swap5\n      pop\n        /* \"contracts/lib/eai/EAI.sol\":20270:20271  L */\n      dup5\n        /* \"contracts/lib/eai/EAI.sol\":20265:20267  12 */\n      0x0c\n        /* \"contracts/lib/eai/EAI.sol\":20265:20271  12 * L */\n      tag_109\n      swap2\n      swap1\n      tag_88\n      jump\t// in\n    tag_109:\n        /* \"contracts/lib/eai/EAI.sol\":20261:20262  2 */\n      0x02\n        /* \"contracts/lib/eai/EAI.sol\":20252:20258  _month */\n      dup4\n        /* \"contracts/lib/eai/EAI.sol\":20252:20262  _month + 2 */\n      tag_110\n      swap2\n      swap1\n      tag_85\n      jump\t// in\n    tag_110:\n        /* \"contracts/lib/eai/EAI.sol\":20252:20271  _month + 2 - 12 * L */\n      tag_111\n      swap2\n      swap1\n      tag_95\n      jump\t// in\n    tag_111:\n        /* \"contracts/lib/eai/EAI.sol\":20243:20271  _month = _month + 2 - 12 * L */\n      swap2\n      pop\n        /* \"contracts/lib/eai/EAI.sol\":20315:20316  L */\n      dup5\n        /* \"contracts/lib/eai/EAI.sol\":20307:20312  _year */\n      dup4\n        /* \"contracts/lib/eai/EAI.sol\":20301:20303  49 */\n      0x31\n        /* \"contracts/lib/eai/EAI.sol\":20297:20298  N */\n      dup7\n        /* \"contracts/lib/eai/EAI.sol\":20297:20303  N - 49 */\n      tag_112\n      swap2\n      swap1\n      tag_95\n      jump\t// in\n    tag_112:\n        /* \"contracts/lib/eai/EAI.sol\":20290:20293  100 */\n      0x64\n        /* \"contracts/lib/eai/EAI.sol\":20290:20304  100 * (N - 49) */\n      tag_113\n      swap2\n      swap1\n      tag_88\n      jump\t// in\n    tag_113:\n        /* \"contracts/lib/eai/EAI.sol\":20290:20312  100 * (N - 49) + _year */\n      tag_114\n      swap2\n      swap1\n      tag_85\n      jump\t// in\n    tag_114:\n        /* \"contracts/lib/eai/EAI.sol\":20290:20316  100 * (N - 49) + _year + L */\n      tag_115\n      swap2\n      swap1\n      tag_85\n      jump\t// in\n    tag_115:\n        /* \"contracts/lib/eai/EAI.sol\":20282:20316  _year = 100 * (N - 49) + _year + L */\n      swap3\n      pop\n        /* \"contracts/lib/eai/EAI.sol\":20343:20348  _year */\n      dup3\n        /* \"contracts/lib/eai/EAI.sol\":20329:20349  year = uint32(_year) */\n      swap9\n      pop\n        /* \"contracts/lib/eai/EAI.sol\":20375:20381  _month */\n      dup2\n        /* \"contracts/lib/eai/EAI.sol\":20360:20382  month = uint32(_month) */\n      swap8\n      pop\n        /* \"contracts/lib/eai/EAI.sol\":20406:20410  _day */\n      dup1\n        /* \"contracts/lib/eai/EAI.sol\":20393:20411  day = uint32(_day) */\n      swap7\n      pop\n        /* \"contracts/lib/eai/EAI.sol\":19827:20419  {\r... */\n      pop\n      pop\n      pop\n      pop\n      pop\n      pop\n        /* \"contracts/lib/eai/EAI.sol\":19723:20419  function timeStampToDate(uint _timestamp) internal pure returns (uint32 year, uint32 month, uint32 day) {\r... */\n      swap2\n      swap4\n      swap1\n      swap3\n      pop\n      jump\t// out\n        /* \"contracts/lib/eai/EAI.sol\":15207:15740  function decreaseNumberOfOperationByTime(\r... */\n    tag_38:\n        /* \"contracts/lib/eai/EAI.sol\":15392:15470  isAccessDatetimeOutOfOldInterval(_maxNumberOfOperationByTime, _accessDateTime) */\n      tag_117\n        /* \"contracts/lib/eai/EAI.sol\":15425:15452  _maxNumberOfOperationByTime */\n      dup3\n        /* \"contracts/lib/eai/EAI.sol\":15454:15469  _accessDateTime */\n      dup3\n        /* \"contracts/lib/eai/EAI.sol\":15392:15424  isAccessDatetimeOutOfOldInterval */\n      tag_118\n        /* \"contracts/lib/eai/EAI.sol\":15392:15470  isAccessDatetimeOutOfOldInterval(_maxNumberOfOperationByTime, _accessDateTime) */\n      jump\t// in\n    tag_117:\n        /* \"contracts/lib/eai/EAI.sol\":15389:15584  if(isAccessDatetimeOutOfOldInterval(_maxNumberOfOperationByTime, _accessDateTime)){\r... */\n      iszero\n      tag_119\n      jumpi\n        /* \"contracts/lib/eai/EAI.sol\":15490:15568  setNewEndTimeAndRestOfOperations(_maxNumberOfOperationByTime, _accessDateTime) */\n      tag_120\n        /* \"contracts/lib/eai/EAI.sol\":15523:15550  _maxNumberOfOperationByTime */\n      dup3\n        /* \"contracts/lib/eai/EAI.sol\":15552:15567  _accessDateTime */\n      dup3\n        /* \"contracts/lib/eai/EAI.sol\":15490:15522  setNewEndTimeAndRestOfOperations */\n      tag_121\n        /* \"contracts/lib/eai/EAI.sol\":15490:15568  setNewEndTimeAndRestOfOperations(_maxNumberOfOperationByTime, _accessDateTime) */\n      jump\t// in\n    tag_120:\n        /* \"contracts/lib/eai/EAI.sol\":15389:15584  if(isAccessDatetimeOutOfOldInterval(_maxNumberOfOperationByTime, _accessDateTime)){\r... */\n    tag_119:\n        /* \"contracts/lib/eai/EAI.sol\":15641:15642  0 */\n      0x00\n        /* \"contracts/lib/eai/EAI.sol\":15606:15633  _maxNumberOfOperationByTime */\n      dup3\n        /* \"contracts/lib/eai/EAI.sol\":15606:15638  _maxNumberOfOperationByTime.rest */\n      0x00\n      add\n      0x09\n      swap1\n      sload\n      swap1\n      0x0100\n      exp\n      swap1\n      div\n      0xffffffff\n      and\n        /* \"contracts/lib/eai/EAI.sol\":15606:15642  _maxNumberOfOperationByTime.rest > 0 */\n      0xffffffff\n      and\n      gt\n        /* \"contracts/lib/eai/EAI.sol\":15598:15680  require(_maxNumberOfOperationByTime.rest > 0, \"There are no operations available\") */\n      tag_122\n      jumpi\n      mload(0x40)\n      0x08c379a000000000000000000000000000000000000000000000000000000000\n      dup2\n      mstore\n      0x04\n      add\n      tag_123\n      swap1\n      tag_124\n      jump\t// in\n    tag_123:\n      mload(0x40)\n      dup1\n      swap2\n      sub\n      swap1\n      revert\n    tag_122:\n        /* \"contracts/lib/eai/EAI.sol\":15731:15732  1 */\n      0x01\n        /* \"contracts/lib/eai/EAI.sol\":15696:15723  _maxNumberOfOperationByTime */\n      dup3\n        /* \"contracts/lib/eai/EAI.sol\":15696:15728  _maxNumberOfOperationByTime.rest */\n      0x00\n      add\n      0x09\n        /* \"contracts/lib/eai/EAI.sol\":15696:15732  _maxNumberOfOperationByTime.rest -=1 */\n      dup3\n      dup3\n      dup3\n      swap1\n      sload\n      swap1\n      0x0100\n      exp\n      swap1\n      div\n      0xffffffff\n      and\n      tag_125\n      swap2\n      swap1\n      tag_95\n      jump\t// in\n    tag_125:\n      swap3\n      pop\n      0x0100\n      exp\n      dup2\n      sload\n      dup2\n      0xffffffff\n      mul\n      not\n      and\n      swap1\n      dup4\n      0xffffffff\n      and\n      mul\n      or\n      swap1\n      sstore\n      pop\n        /* \"contracts/lib/eai/EAI.sol\":15207:15740  function decreaseNumberOfOperationByTime(\r... */\n      pop\n      pop\n      jump\t// out\n        /* \"contracts/lib/eai/EAI.sol\":14650:15199  function getTimeInSeconds(uint8 timeUnit) private pure returns(uint32){\r... */\n    tag_79:\n        /* \"contracts/lib/eai/EAI.sol\":14713:14719  uint32 */\n      0x00\n        /* \"contracts/lib/eai/EAI.sol\":784:785  4 */\n      0x04\n        /* \"contracts/lib/eai/EAI.sol\":14793:14809  timeUnit <= WEEK */\n      0xff\n      and\n        /* \"contracts/lib/eai/EAI.sol\":14793:14801  timeUnit */\n      dup3\n        /* \"contracts/lib/eai/EAI.sol\":14793:14809  timeUnit <= WEEK */\n      0xff\n      and\n      gt\n      iszero\n        /* \"contracts/lib/eai/EAI.sol\":14785:14873  require(timeUnit <= WEEK, \"The method getTimeInSeconds doesn't work for MONTH and YEAR\") */\n      tag_127\n      jumpi\n      mload(0x40)\n      0x08c379a000000000000000000000000000000000000000000000000000000000\n      dup2\n      mstore\n      0x04\n      add\n      tag_128\n      swap1\n      tag_129\n      jump\t// in\n    tag_128:\n      mload(0x40)\n      dup1\n      swap2\n      sub\n      swap1\n      revert\n    tag_127:\n        /* \"contracts/lib/eai/EAI.sol\":666:667  0 */\n      0x00\n        /* \"contracts/lib/eai/EAI.sol\":14889:14907  timeUnit == SECOND */\n      0xff\n      and\n        /* \"contracts/lib/eai/EAI.sol\":14889:14897  timeUnit */\n      dup3\n        /* \"contracts/lib/eai/EAI.sol\":14889:14907  timeUnit == SECOND */\n      0xff\n      and\n      eq\n        /* \"contracts/lib/eai/EAI.sol\":14886:15192  if(timeUnit == SECOND){\r... */\n      iszero\n      tag_130\n      jumpi\n        /* \"contracts/lib/eai/EAI.sol\":14930:14931  1 */\n      0x01\n        /* \"contracts/lib/eai/EAI.sol\":14923:14931  return 1 */\n      swap1\n      pop\n      jump(tag_126)\n        /* \"contracts/lib/eai/EAI.sol\":14886:15192  if(timeUnit == SECOND){\r... */\n    tag_130:\n        /* \"contracts/lib/eai/EAI.sol\":698:699  1 */\n      0x01\n        /* \"contracts/lib/eai/EAI.sol\":14951:14969  timeUnit == MINUTE */\n      0xff\n      and\n        /* \"contracts/lib/eai/EAI.sol\":14951:14959  timeUnit */\n      dup3\n        /* \"contracts/lib/eai/EAI.sol\":14951:14969  timeUnit == MINUTE */\n      0xff\n      and\n      eq\n        /* \"contracts/lib/eai/EAI.sol\":14948:15192  if(timeUnit == MINUTE){\r... */\n      iszero\n      tag_132\n      jumpi\n        /* \"contracts/lib/eai/EAI.sol\":14992:14994  60 */\n      0x3c\n        /* \"contracts/lib/eai/EAI.sol\":14985:14994  return 60 */\n      swap1\n      pop\n      jump(tag_126)\n        /* \"contracts/lib/eai/EAI.sol\":14948:15192  if(timeUnit == MINUTE){\r... */\n    tag_132:\n        /* \"contracts/lib/eai/EAI.sol\":727:728  2 */\n      0x02\n        /* \"contracts/lib/eai/EAI.sol\":15014:15030  timeUnit == HOUR */\n      0xff\n      and\n        /* \"contracts/lib/eai/EAI.sol\":15014:15022  timeUnit */\n      dup3\n        /* \"contracts/lib/eai/EAI.sol\":15014:15030  timeUnit == HOUR */\n      0xff\n      and\n      eq\n        /* \"contracts/lib/eai/EAI.sol\":15011:15192  if(timeUnit == HOUR ){\r... */\n      iszero\n      tag_134\n      jumpi\n        /* \"contracts/lib/eai/EAI.sol\":15054:15059  60*60 */\n      0x0e10\n        /* \"contracts/lib/eai/EAI.sol\":15047:15059  return 60*60 */\n      swap1\n      pop\n      jump(tag_126)\n        /* \"contracts/lib/eai/EAI.sol\":15011:15192  if(timeUnit == HOUR ){\r... */\n    tag_134:\n        /* \"contracts/lib/eai/EAI.sol\":755:756  3 */\n      0x03\n        /* \"contracts/lib/eai/EAI.sol\":15079:15094  timeUnit == DAY */\n      0xff\n      and\n        /* \"contracts/lib/eai/EAI.sol\":15079:15087  timeUnit */\n      dup3\n        /* \"contracts/lib/eai/EAI.sol\":15079:15094  timeUnit == DAY */\n      0xff\n      and\n      eq\n        /* \"contracts/lib/eai/EAI.sol\":15076:15192  if(timeUnit == DAY){\r... */\n      iszero\n      tag_136\n      jumpi\n        /* \"contracts/lib/eai/EAI.sol\":15117:15125  60*60*24 */\n      0x015180\n        /* \"contracts/lib/eai/EAI.sol\":15110:15125  return 60*60*24 */\n      swap1\n      pop\n      jump(tag_126)\n        /* \"contracts/lib/eai/EAI.sol\":15076:15192  if(timeUnit == DAY){\r... */\n    tag_136:\n        /* \"contracts/lib/eai/EAI.sol\":15163:15173  60*60*24*7 */\n      0x093a80\n        /* \"contracts/lib/eai/EAI.sol\":15156:15173  return 60*60*24*7 */\n      swap1\n      pop\n        /* \"contracts/lib/eai/EAI.sol\":14650:15199  function getTimeInSeconds(uint8 timeUnit) private pure returns(uint32){\r... */\n    tag_126:\n      swap2\n      swap1\n      pop\n      jump\t// out\n        /* \"contracts/lib/eai/EAI.sol\":15841:16704  function isAccessDatetimeOutOfOldInterval(\r... */\n    tag_118:\n        /* \"contracts/lib/eai/EAI.sol\":16023:16027  bool */\n      0x00\n        /* \"contracts/lib/eai/EAI.sol\":16050:16064  uint8 timeUnit */\n      dup1\n        /* \"contracts/lib/eai/EAI.sol\":16067:16094  _maxNumberOfOperationByTime */\n      dup4\n        /* \"contracts/lib/eai/EAI.sol\":16067:16103  _maxNumberOfOperationByTime.timeUnit */\n      0x00\n      add\n      0x04\n      swap1\n      sload\n      swap1\n      0x0100\n      exp\n      swap1\n      div\n      0xff\n      and\n        /* \"contracts/lib/eai/EAI.sol\":16050:16103  uint8 timeUnit = _maxNumberOfOperationByTime.timeUnit */\n      swap1\n      pop\n        /* \"contracts/lib/eai/EAI.sol\":784:785  4 */\n      0x04\n        /* \"contracts/lib/eai/EAI.sol\":16117:16133  timeUnit <= WEEK */\n      0xff\n      and\n        /* \"contracts/lib/eai/EAI.sol\":16117:16125  timeUnit */\n      dup2\n        /* \"contracts/lib/eai/EAI.sol\":16117:16133  timeUnit <= WEEK */\n      0xff\n      and\n      gt\n        /* \"contracts/lib/eai/EAI.sol\":16114:16539  if(timeUnit <= WEEK){\r... */\n      tag_139\n      jumpi\n        /* \"contracts/lib/eai/EAI.sol\":16175:16202  _maxNumberOfOperationByTime */\n      dup4\n        /* \"contracts/lib/eai/EAI.sol\":16175:16210  _maxNumberOfOperationByTime.endTime */\n      0x00\n      add\n      0x0d\n      swap1\n      sload\n      swap1\n      0x0100\n      exp\n      swap1\n      div\n      0xffffffff\n      and\n        /* \"contracts/lib/eai/EAI.sol\":16156:16210  _accessDateTime >= _maxNumberOfOperationByTime.endTime */\n      0xffffffff\n      and\n        /* \"contracts/lib/eai/EAI.sol\":16156:16171  _accessDateTime */\n      dup4\n        /* \"contracts/lib/eai/EAI.sol\":16156:16210  _accessDateTime >= _maxNumberOfOperationByTime.endTime */\n      0xffffffff\n      and\n      lt\n      iszero\n        /* \"contracts/lib/eai/EAI.sol\":16149:16210  return _accessDateTime >= _maxNumberOfOperationByTime.endTime */\n      swap2\n      pop\n      pop\n      jump(tag_138)\n        /* \"contracts/lib/eai/EAI.sol\":16114:16539  if(timeUnit <= WEEK){\r... */\n    tag_139:\n        /* \"contracts/lib/eai/EAI.sol\":814:815  5 */\n      0x05\n        /* \"contracts/lib/eai/EAI.sol\":16231:16248  timeUnit == MONTH */\n      0xff\n      and\n        /* \"contracts/lib/eai/EAI.sol\":16231:16239  timeUnit */\n      dup2\n        /* \"contracts/lib/eai/EAI.sol\":16231:16248  timeUnit == MONTH */\n      0xff\n      and\n      eq\n        /* \"contracts/lib/eai/EAI.sol\":16228:16539  if(timeUnit == MONTH) {            \r... */\n      iszero\n      tag_141\n      jumpi\n        /* \"contracts/lib/eai/EAI.sol\":16279:16291  uint32 month */\n      0x00\n        /* \"contracts/lib/eai/EAI.sol\":16296:16328  timeStampToDate(_accessDateTime) */\n      tag_142\n        /* \"contracts/lib/eai/EAI.sol\":16312:16327  _accessDateTime */\n      dup5\n        /* \"contracts/lib/eai/EAI.sol\":16296:16328  timeStampToDate(_accessDateTime) */\n      0xffffffff\n      and\n        /* \"contracts/lib/eai/EAI.sol\":16296:16311  timeStampToDate */\n      tag_31\n        /* \"contracts/lib/eai/EAI.sol\":16296:16328  timeStampToDate(_accessDateTime) */\n      jump\t// in\n    tag_142:\n        /* \"contracts/lib/eai/EAI.sol\":16277:16328  (,uint32 month,) = timeStampToDate(_accessDateTime) */\n      pop\n      swap2\n      pop\n      pop\n        /* \"contracts/lib/eai/EAI.sol\":16390:16392  13 */\n      0x0d\n        /* \"contracts/lib/eai/EAI.sol\":16351:16378  _maxNumberOfOperationByTime */\n      dup6\n        /* \"contracts/lib/eai/EAI.sol\":16351:16386  _maxNumberOfOperationByTime.endTime */\n      0x00\n      add\n      0x0d\n      swap1\n      sload\n      swap1\n      0x0100\n      exp\n      swap1\n      div\n      0xffffffff\n      and\n        /* \"contracts/lib/eai/EAI.sol\":16351:16392  _maxNumberOfOperationByTime.endTime == 13 */\n      0xffffffff\n      and\n      eq\n        /* \"contracts/lib/eai/EAI.sol\":16350:16407  (_maxNumberOfOperationByTime.endTime == 13) && (month==1) */\n      dup1\n      iszero\n      tag_143\n      jumpi\n      pop\n        /* \"contracts/lib/eai/EAI.sol\":16405:16406  1 */\n      0x01\n        /* \"contracts/lib/eai/EAI.sol\":16398:16403  month */\n      dup2\n        /* \"contracts/lib/eai/EAI.sol\":16398:16406  month==1 */\n      0xffffffff\n      and\n      eq\n        /* \"contracts/lib/eai/EAI.sol\":16350:16407  (_maxNumberOfOperationByTime.endTime == 13) && (month==1) */\n    tag_143:\n        /* \"contracts/lib/eai/EAI.sol\":16347:16454  if((_maxNumberOfOperationByTime.endTime == 13) && (month==1)){\r... */\n      iszero\n      tag_144\n      jumpi\n        /* \"contracts/lib/eai/EAI.sol\":16434:16438  true */\n      0x01\n        /* \"contracts/lib/eai/EAI.sol\":16427:16438  return true */\n      swap3\n      pop\n      pop\n      pop\n      jump(tag_138)\n        /* \"contracts/lib/eai/EAI.sol\":16347:16454  if((_maxNumberOfOperationByTime.endTime == 13) && (month==1)){\r... */\n    tag_144:\n        /* \"contracts/lib/eai/EAI.sol\":16492:16519  _maxNumberOfOperationByTime */\n      dup5\n        /* \"contracts/lib/eai/EAI.sol\":16492:16527  _maxNumberOfOperationByTime.endTime */\n      0x00\n      add\n      0x0d\n      swap1\n      sload\n      swap1\n      0x0100\n      exp\n      swap1\n      div\n      0xffffffff\n      and\n        /* \"contracts/lib/eai/EAI.sol\":16483:16527  month >= _maxNumberOfOperationByTime.endTime */\n      0xffffffff\n      and\n        /* \"contracts/lib/eai/EAI.sol\":16483:16488  month */\n      dup2\n        /* \"contracts/lib/eai/EAI.sol\":16483:16527  month >= _maxNumberOfOperationByTime.endTime */\n      0xffffffff\n      and\n      lt\n      iszero\n        /* \"contracts/lib/eai/EAI.sol\":16476:16527  return month >= _maxNumberOfOperationByTime.endTime */\n      swap3\n      pop\n      pop\n      pop\n      jump(tag_138)\n        /* \"contracts/lib/eai/EAI.sol\":16228:16539  if(timeUnit == MONTH) {            \r... */\n    tag_141:\n        /* \"contracts/lib/eai/EAI.sol\":16585:16596  uint32 year */\n      0x00\n        /* \"contracts/lib/eai/EAI.sol\":16603:16635  timeStampToDate(_accessDateTime) */\n      tag_145\n        /* \"contracts/lib/eai/EAI.sol\":16619:16634  _accessDateTime */\n      dup5\n        /* \"contracts/lib/eai/EAI.sol\":16603:16635  timeStampToDate(_accessDateTime) */\n      0xffffffff\n      and\n        /* \"contracts/lib/eai/EAI.sol\":16603:16618  timeStampToDate */\n      tag_31\n        /* \"contracts/lib/eai/EAI.sol\":16603:16635  timeStampToDate(_accessDateTime) */\n      jump\t// in\n    tag_145:\n        /* \"contracts/lib/eai/EAI.sol\":16584:16635  (uint32 year, ,) = timeStampToDate(_accessDateTime) */\n      pop\n      pop\n      swap1\n      pop\n        /* \"contracts/lib/eai/EAI.sol\":16661:16688  _maxNumberOfOperationByTime */\n      dup5\n        /* \"contracts/lib/eai/EAI.sol\":16661:16696  _maxNumberOfOperationByTime.endTime */\n      0x00\n      add\n      0x0d\n      swap1\n      sload\n      swap1\n      0x0100\n      exp\n      swap1\n      div\n      0xffffffff\n      and\n        /* \"contracts/lib/eai/EAI.sol\":16653:16696  year >= _maxNumberOfOperationByTime.endTime */\n      0xffffffff\n      and\n        /* \"contracts/lib/eai/EAI.sol\":16653:16657  year */\n      dup2\n        /* \"contracts/lib/eai/EAI.sol\":16653:16696  year >= _maxNumberOfOperationByTime.endTime */\n      0xffffffff\n      and\n      lt\n      iszero\n        /* \"contracts/lib/eai/EAI.sol\":16646:16696  return year >= _maxNumberOfOperationByTime.endTime */\n      swap3\n      pop\n      pop\n      pop\n        /* \"contracts/lib/eai/EAI.sol\":15841:16704  function isAccessDatetimeOutOfOldInterval(\r... */\n    tag_138:\n      swap3\n      swap2\n      pop\n      pop\n      jump\t// out\n        /* \"contracts/lib/eai/EAI.sol\":16712:17320  function setNewEndTimeAndRestOfOperations(\r... */\n    tag_121:\n        /* \"contracts/lib/eai/EAI.sol\":16925:16952  _maxNumberOfOperationByTime */\n      dup2\n        /* \"contracts/lib/eai/EAI.sol\":16925:16959  _maxNumberOfOperationByTime.amount */\n      0x00\n      add\n      0x00\n      swap1\n      sload\n      swap1\n      0x0100\n      exp\n      swap1\n      div\n      0xffffffff\n      and\n        /* \"contracts/lib/eai/EAI.sol\":16890:16917  _maxNumberOfOperationByTime */\n      dup3\n        /* \"contracts/lib/eai/EAI.sol\":16890:16922  _maxNumberOfOperationByTime.rest */\n      0x00\n      add\n      0x09\n        /* \"contracts/lib/eai/EAI.sol\":16890:16959  _maxNumberOfOperationByTime.rest = _maxNumberOfOperationByTime.amount */\n      0x0100\n      exp\n      dup2\n      sload\n      dup2\n      0xffffffff\n      mul\n      not\n      and\n      swap1\n      dup4\n      0xffffffff\n      and\n      mul\n      or\n      swap1\n      sstore\n      pop\n        /* \"contracts/lib/eai/EAI.sol\":17008:17312  calcNextEndTime(\r... */\n      tag_147\n        /* \"contracts/lib/eai/EAI.sol\":17074:17101  _maxNumberOfOperationByTime */\n      dup3\n        /* \"contracts/lib/eai/EAI.sol\":17074:17108  _maxNumberOfOperationByTime.byTime */\n      0x00\n      add\n      0x05\n      swap1\n      sload\n      swap1\n      0x0100\n      exp\n      swap1\n      div\n      0xffffffff\n      and\n        /* \"contracts/lib/eai/EAI.sol\":17159:17186  _maxNumberOfOperationByTime */\n      dup4\n        /* \"contracts/lib/eai/EAI.sol\":17159:17195  _maxNumberOfOperationByTime.timeUnit */\n      0x00\n      add\n      0x04\n      swap1\n      sload\n      swap1\n      0x0100\n      exp\n      swap1\n      div\n      0xff\n      and\n        /* \"contracts/lib/eai/EAI.sol\":17246:17261  _accessDateTime */\n      dup4\n        /* \"contracts/lib/eai/EAI.sol\":17008:17023  calcNextEndTime */\n      tag_148\n        /* \"contracts/lib/eai/EAI.sol\":17008:17312  calcNextEndTime(\r... */\n      jump\t// in\n    tag_147:\n        /* \"contracts/lib/eai/EAI.sol\":16970:16997  _maxNumberOfOperationByTime */\n      dup3\n        /* \"contracts/lib/eai/EAI.sol\":16970:17005  _maxNumberOfOperationByTime.endTime */\n      0x00\n      add\n      0x0d\n        /* \"contracts/lib/eai/EAI.sol\":16970:17312  _maxNumberOfOperationByTime.endTime = calcNextEndTime(\r... */\n      0x0100\n      exp\n      dup2\n      sload\n      dup2\n      0xffffffff\n      mul\n      not\n      and\n      swap1\n      dup4\n      0xffffffff\n      and\n      mul\n      or\n      swap1\n      sstore\n      pop\n        /* \"contracts/lib/eai/EAI.sol\":16712:17320  function setNewEndTimeAndRestOfOperations(\r... */\n      pop\n      pop\n      jump\t// out\n        /* \"contracts/lib/eai/EAI.sol\":17328:18057  function calcNextEndTime(       \r... */\n    tag_148:\n        /* \"contracts/lib/eai/EAI.sol\":17482:17488  uint32 */\n      0x00\n        /* \"contracts/lib/eai/EAI.sol\":784:785  4 */\n      0x04\n        /* \"contracts/lib/eai/EAI.sol\":17514:17531  _timeUnit <= WEEK */\n      0xff\n      and\n        /* \"contracts/lib/eai/EAI.sol\":17514:17523  _timeUnit */\n      dup4\n        /* \"contracts/lib/eai/EAI.sol\":17514:17531  _timeUnit <= WEEK */\n      0xff\n      and\n      gt\n        /* \"contracts/lib/eai/EAI.sol\":17510:18050  if (_timeUnit <= WEEK) {\r... */\n      tag_150\n      jumpi\n        /* \"contracts/lib/eai/EAI.sol\":17555:17687  calcNextEndTimeForSecMinHrDayOrWeek(\r... */\n      tag_151\n        /* \"contracts/lib/eai/EAI.sol\":17609:17618  _timeUnit */\n      dup4\n        /* \"contracts/lib/eai/EAI.sol\":17638:17653  _accessDateTime */\n      dup4\n        /* \"contracts/lib/eai/EAI.sol\":17673:17686  _timeInterval */\n      dup7\n        /* \"contracts/lib/eai/EAI.sol\":17555:17590  calcNextEndTimeForSecMinHrDayOrWeek */\n      tag_152\n        /* \"contracts/lib/eai/EAI.sol\":17555:17687  calcNextEndTimeForSecMinHrDayOrWeek(\r... */\n      jump\t// in\n    tag_151:\n        /* \"contracts/lib/eai/EAI.sol\":17548:17687  return calcNextEndTimeForSecMinHrDayOrWeek(\r... */\n      swap1\n      pop\n      jump(tag_149)\n        /* \"contracts/lib/eai/EAI.sol\":17510:18050  if (_timeUnit <= WEEK) {\r... */\n    tag_150:\n        /* \"contracts/lib/eai/EAI.sol\":814:815  5 */\n      0x05\n        /* \"contracts/lib/eai/EAI.sol\":17707:17725  _timeUnit == MONTH */\n      0xff\n      and\n        /* \"contracts/lib/eai/EAI.sol\":17707:17716  _timeUnit */\n      dup4\n        /* \"contracts/lib/eai/EAI.sol\":17707:17725  _timeUnit == MONTH */\n      0xff\n      and\n      eq\n        /* \"contracts/lib/eai/EAI.sol\":17704:18050  if(_timeUnit == MONTH){\r... */\n      iszero\n      tag_154\n      jumpi\n        /* \"contracts/lib/eai/EAI.sol\":17743:17760  uint currentMonth */\n      0x00\n        /* \"contracts/lib/eai/EAI.sol\":17765:17797  timeStampToDate(_accessDateTime) */\n      tag_155\n        /* \"contracts/lib/eai/EAI.sol\":17781:17796  _accessDateTime */\n      dup4\n        /* \"contracts/lib/eai/EAI.sol\":17765:17797  timeStampToDate(_accessDateTime) */\n      0xffffffff\n      and\n        /* \"contracts/lib/eai/EAI.sol\":17765:17780  timeStampToDate */\n      tag_31\n        /* \"contracts/lib/eai/EAI.sol\":17765:17797  timeStampToDate(_accessDateTime) */\n      jump\t// in\n    tag_155:\n        /* \"contracts/lib/eai/EAI.sol\":17741:17797  (,uint currentMonth,) = timeStampToDate(_accessDateTime) */\n      pop\n      0xffffffff\n      and\n      swap2\n      pop\n      pop\n        /* \"contracts/lib/eai/EAI.sol\":17841:17842  1 */\n      0x01\n        /* \"contracts/lib/eai/EAI.sol\":17828:17840  currentMonth */\n      dup2\n        /* \"contracts/lib/eai/EAI.sol\":17828:17842  currentMonth+1 */\n      tag_156\n      swap2\n      swap1\n      tag_157\n      jump\t// in\n    tag_156:\n        /* \"contracts/lib/eai/EAI.sol\":17814:17843  return uint32(currentMonth+1) */\n      swap2\n      pop\n      pop\n      jump(tag_149)\n        /* \"contracts/lib/eai/EAI.sol\":17704:18050  if(_timeUnit == MONTH){\r... */\n    tag_154:\n        /* \"contracts/lib/eai/EAI.sol\":17953:17962  uint year */\n      0x00\n        /* \"contracts/lib/eai/EAI.sol\":17968:18000  timeStampToDate(_accessDateTime) */\n      tag_159\n        /* \"contracts/lib/eai/EAI.sol\":17984:17999  _accessDateTime */\n      dup4\n        /* \"contracts/lib/eai/EAI.sol\":17968:18000  timeStampToDate(_accessDateTime) */\n      0xffffffff\n      and\n        /* \"contracts/lib/eai/EAI.sol\":17968:17983  timeStampToDate */\n      tag_31\n        /* \"contracts/lib/eai/EAI.sol\":17968:18000  timeStampToDate(_accessDateTime) */\n      jump\t// in\n    tag_159:\n        /* \"contracts/lib/eai/EAI.sol\":17952:18000  (uint year,,) = timeStampToDate(_accessDateTime) */\n      pop\n      pop\n      0xffffffff\n      and\n      swap1\n      pop\n        /* \"contracts/lib/eai/EAI.sol\":18036:18037  1 */\n      0x01\n        /* \"contracts/lib/eai/EAI.sol\":18029:18033  year */\n      dup2\n        /* \"contracts/lib/eai/EAI.sol\":18029:18037  year + 1 */\n      tag_160\n      swap2\n      swap1\n      tag_157\n      jump\t// in\n    tag_160:\n        /* \"contracts/lib/eai/EAI.sol\":18015:18038  return uint32(year + 1) */\n      swap2\n      pop\n      pop\n        /* \"contracts/lib/eai/EAI.sol\":17328:18057  function calcNextEndTime(       \r... */\n    tag_149:\n      swap4\n      swap3\n      pop\n      pop\n      pop\n      jump\t// out\n        /* \"contracts/lib/eai/EAI.sol\":18069:18566  function calcNextEndTimeForSecMinHrDayOrWeek(\r... */\n    tag_152:\n        /* \"contracts/lib/eai/EAI.sol\":18237:18243  uint32 */\n      0x00\n        /* \"contracts/lib/eai/EAI.sol\":18257:18267  uint32 mod */\n      dup1\n        /* \"contracts/lib/eai/EAI.sol\":18296:18309  _timeInterval */\n      dup3\n        /* \"contracts/lib/eai/EAI.sol\":18278:18293  _accessDateTime */\n      dup5\n        /* \"contracts/lib/eai/EAI.sol\":18278:18309  _accessDateTime % _timeInterval */\n      tag_162\n      swap2\n      swap1\n      tag_163\n      jump\t// in\n    tag_162:\n        /* \"contracts/lib/eai/EAI.sol\":18257:18310  uint32 mod =  uint32(_accessDateTime % _timeInterval) */\n      swap1\n      pop\n        /* \"contracts/lib/eai/EAI.sol\":18321:18345  uint32 timeToNextEndTime */\n      0x00\n        /* \"contracts/lib/eai/EAI.sol\":18365:18368  mod */\n      dup2\n        /* \"contracts/lib/eai/EAI.sol\":18349:18362  _timeInterval */\n      dup5\n        /* \"contracts/lib/eai/EAI.sol\":18349:18368  _timeInterval - mod */\n      tag_164\n      swap2\n      swap1\n      tag_95\n      jump\t// in\n    tag_164:\n        /* \"contracts/lib/eai/EAI.sol\":18321:18368  uint32 timeToNextEndTime  = _timeInterval - mod */\n      swap1\n      pop\n        /* \"contracts/lib/eai/EAI.sol\":784:785  4 */\n      0x04\n        /* \"contracts/lib/eai/EAI.sol\":18404:18421  _timeUnit == WEEK */\n      0xff\n      and\n        /* \"contracts/lib/eai/EAI.sol\":18404:18413  _timeUnit */\n      dup7\n        /* \"contracts/lib/eai/EAI.sol\":18404:18421  _timeUnit == WEEK */\n      0xff\n      and\n      eq\n        /* \"contracts/lib/eai/EAI.sol\":18401:18504  if(_timeUnit == WEEK){\r... */\n      iszero\n      tag_165\n      jumpi\n        /* \"contracts/lib/eai/EAI.sol\":1221:1227  259200 */\n      0x03f480\n        /* \"contracts/lib/eai/EAI.sol\":18462:18479  timeToNextEndTime */\n      dup2\n        /* \"contracts/lib/eai/EAI.sol\":18444:18459  _accessDateTime */\n      dup7\n        /* \"contracts/lib/eai/EAI.sol\":18444:18479  _accessDateTime + timeToNextEndTime */\n      tag_166\n      swap2\n      swap1\n      tag_85\n      jump\t// in\n    tag_166:\n        /* \"contracts/lib/eai/EAI.sol\":18444:18492  _accessDateTime + timeToNextEndTime + OFFSETWEEK */\n      tag_167\n      swap2\n      swap1\n      tag_85\n      jump\t// in\n    tag_167:\n        /* \"contracts/lib/eai/EAI.sol\":18437:18492  return _accessDateTime + timeToNextEndTime + OFFSETWEEK */\n      swap3\n      pop\n      pop\n      pop\n      jump(tag_161)\n        /* \"contracts/lib/eai/EAI.sol\":18401:18504  if(_timeUnit == WEEK){\r... */\n    tag_165:\n        /* \"contracts/lib/eai/EAI.sol\":18541:18558  timeToNextEndTime */\n      dup1\n        /* \"contracts/lib/eai/EAI.sol\":18523:18538  _accessDateTime */\n      dup6\n        /* \"contracts/lib/eai/EAI.sol\":18523:18558  _accessDateTime + timeToNextEndTime */\n      tag_168\n      swap2\n      swap1\n      tag_85\n      jump\t// in\n    tag_168:\n        /* \"contracts/lib/eai/EAI.sol\":18516:18558  return _accessDateTime + timeToNextEndTime */\n      swap3\n      pop\n      pop\n      pop\n        /* \"contracts/lib/eai/EAI.sol\":18069:18566  function calcNextEndTimeForSecMinHrDayOrWeek(\r... */\n    tag_161:\n      swap4\n      swap3\n      pop\n      pop\n      pop\n      jump\t// out\n    tag_23:\n      mload(0x40)\n      dup1\n      0xa0\n      add\n      0x40\n      mstore\n      dup1\n      and(0xffffffff, 0x00)\n      dup2\n      mstore\n      0x20\n      add\n      and(0xff, 0x00)\n      dup2\n      mstore\n      0x20\n      add\n      and(0xffffffff, 0x00)\n      dup2\n      mstore\n      0x20\n      add\n      and(0xffffffff, 0x00)\n      dup2\n      mstore\n      0x20\n      add\n      and(0xffffffff, 0x00)\n      dup2\n      mstore\n      pop\n      swap1\n      jump\t// out\n        /* \"#utility.yul\":7:146   */\n    tag_170:\n        /* \"#utility.yul\":53:58   */\n      0x00\n        /* \"#utility.yul\":91:97   */\n      dup2\n        /* \"#utility.yul\":78:98   */\n      calldataload\n        /* \"#utility.yul\":69:98   */\n      swap1\n      pop\n        /* \"#utility.yul\":107:140   */\n      tag_172\n        /* \"#utility.yul\":134:139   */\n      dup2\n        /* \"#utility.yul\":107:140   */\n      tag_173\n      jump\t// in\n    tag_172:\n        /* \"#utility.yul\":7:146   */\n      swap3\n      swap2\n      pop\n      pop\n      jump\t// out\n        /* \"#utility.yul\":152:289   */\n    tag_174:\n        /* \"#utility.yul\":197:202   */\n      0x00\n        /* \"#utility.yul\":235:241   */\n      dup2\n        /* \"#utility.yul\":222:242   */\n      calldataload\n        /* \"#utility.yul\":213:242   */\n      swap1\n      pop\n        /* \"#utility.yul\":251:283   */\n      tag_176\n        /* \"#utility.yul\":277:282   */\n      dup2\n        /* \"#utility.yul\":251:283   */\n      tag_177\n      jump\t// in\n    tag_176:\n        /* \"#utility.yul\":152:289   */\n      swap3\n      swap2\n      pop\n      pop\n      jump\t// out\n        /* \"#utility.yul\":295:430   */\n    tag_178:\n        /* \"#utility.yul\":339:344   */\n      0x00\n        /* \"#utility.yul\":377:383   */\n      dup2\n        /* \"#utility.yul\":364:384   */\n      calldataload\n        /* \"#utility.yul\":355:384   */\n      swap1\n      pop\n        /* \"#utility.yul\":393:424   */\n      tag_180\n        /* \"#utility.yul\":418:423   */\n      dup2\n        /* \"#utility.yul\":393:424   */\n      tag_181\n      jump\t// in\n    tag_180:\n        /* \"#utility.yul\":295:430   */\n      swap3\n      swap2\n      pop\n      pop\n      jump\t// out\n        /* \"#utility.yul\":436:765   */\n    tag_8:\n        /* \"#utility.yul\":495:501   */\n      0x00\n        /* \"#utility.yul\":544:546   */\n      0x20\n        /* \"#utility.yul\":532:541   */\n      dup3\n        /* \"#utility.yul\":523:530   */\n      dup5\n        /* \"#utility.yul\":519:542   */\n      sub\n        /* \"#utility.yul\":515:547   */\n      slt\n        /* \"#utility.yul\":512:631   */\n      iszero\n      tag_183\n      jumpi\n        /* \"#utility.yul\":550:629   */\n      tag_184\n      tag_185\n      jump\t// in\n    tag_184:\n        /* \"#utility.yul\":512:631   */\n    tag_183:\n        /* \"#utility.yul\":670:671   */\n      0x00\n        /* \"#utility.yul\":695:748   */\n      tag_186\n        /* \"#utility.yul\":740:747   */\n      dup5\n        /* \"#utility.yul\":731:737   */\n      dup3\n        /* \"#utility.yul\":720:729   */\n      dup6\n        /* \"#utility.yul\":716:738   */\n      add\n        /* \"#utility.yul\":695:748   */\n      tag_170\n      jump\t// in\n    tag_186:\n        /* \"#utility.yul\":685:748   */\n      swap2\n      pop\n        /* \"#utility.yul\":641:758   */\n      pop\n        /* \"#utility.yul\":436:765   */\n      swap3\n      swap2\n      pop\n      pop\n      jump\t// out\n        /* \"#utility.yul\":771:1239   */\n    tag_19:\n        /* \"#utility.yul\":836:842   */\n      0x00\n        /* \"#utility.yul\":844:850   */\n      dup1\n        /* \"#utility.yul\":893:895   */\n      0x40\n        /* \"#utility.yul\":881:890   */\n      dup4\n        /* \"#utility.yul\":872:879   */\n      dup6\n        /* \"#utility.yul\":868:891   */\n      sub\n        /* \"#utility.yul\":864:896   */\n      slt\n        /* \"#utility.yul\":861:980   */\n      iszero\n      tag_188\n      jumpi\n        /* \"#utility.yul\":899:978   */\n      tag_189\n      tag_185\n      jump\t// in\n    tag_189:\n        /* \"#utility.yul\":861:980   */\n    tag_188:\n        /* \"#utility.yul\":1019:1020   */\n      0x00\n        /* \"#utility.yul\":1044:1095   */\n      tag_190\n        /* \"#utility.yul\":1087:1094   */\n      dup6\n        /* \"#utility.yul\":1078:1084   */\n      dup3\n        /* \"#utility.yul\":1067:1076   */\n      dup7\n        /* \"#utility.yul\":1063:1085   */\n      add\n        /* \"#utility.yul\":1044:1095   */\n      tag_178\n      jump\t// in\n    tag_190:\n        /* \"#utility.yul\":1034:1095   */\n      swap3\n      pop\n        /* \"#utility.yul\":990:1105   */\n      pop\n        /* \"#utility.yul\":1144:1146   */\n      0x20\n        /* \"#utility.yul\":1170:1222   */\n      tag_191\n        /* \"#utility.yul\":1214:1221   */\n      dup6\n        /* \"#utility.yul\":1205:1211   */\n      dup3\n        /* \"#utility.yul\":1194:1203   */\n      dup7\n        /* \"#utility.yul\":1190:1212   */\n      add\n        /* \"#utility.yul\":1170:1222   */\n      tag_174\n      jump\t// in\n    tag_191:\n        /* \"#utility.yul\":1160:1222   */\n      swap2\n      pop\n        /* \"#utility.yul\":1115:1232   */\n      pop\n        /* \"#utility.yul\":771:1239   */\n      swap3\n      pop\n      swap3\n      swap1\n      pop\n      jump\t// out\n        /* \"#utility.yul\":1245:1611   */\n    tag_192:\n        /* \"#utility.yul\":1387:1390   */\n      0x00\n        /* \"#utility.yul\":1408:1475   */\n      tag_194\n        /* \"#utility.yul\":1472:1474   */\n      0x3b\n        /* \"#utility.yul\":1467:1470   */\n      dup4\n        /* \"#utility.yul\":1408:1475   */\n      tag_195\n      jump\t// in\n    tag_194:\n        /* \"#utility.yul\":1401:1475   */\n      swap2\n      pop\n        /* \"#utility.yul\":1484:1577   */\n      tag_196\n        /* \"#utility.yul\":1573:1576   */\n      dup3\n        /* \"#utility.yul\":1484:1577   */\n      tag_197\n      jump\t// in\n    tag_196:\n        /* \"#utility.yul\":1602:1604   */\n      0x40\n        /* \"#utility.yul\":1597:1600   */\n      dup3\n        /* \"#utility.yul\":1593:1605   */\n      add\n        /* \"#utility.yul\":1586:1605   */\n      swap1\n      pop\n        /* \"#utility.yul\":1245:1611   */\n      swap2\n      swap1\n      pop\n      jump\t// out\n        /* \"#utility.yul\":1617:1983   */\n    tag_198:\n        /* \"#utility.yul\":1759:1762   */\n      0x00\n        /* \"#utility.yul\":1780:1847   */\n      tag_200\n        /* \"#utility.yul\":1844:1846   */\n      0x21\n        /* \"#utility.yul\":1839:1842   */\n      dup4\n        /* \"#utility.yul\":1780:1847   */\n      tag_195\n      jump\t// in\n    tag_200:\n        /* \"#utility.yul\":1773:1847   */\n      swap2\n      pop\n        /* \"#utility.yul\":1856:1949   */\n      tag_201\n        /* \"#utility.yul\":1945:1948   */\n      dup3\n        /* \"#utility.yul\":1856:1949   */\n      tag_202\n      jump\t// in\n    tag_201:\n        /* \"#utility.yul\":1974:1976   */\n      0x40\n        /* \"#utility.yul\":1969:1972   */\n      dup3\n        /* \"#utility.yul\":1965:1977   */\n      add\n        /* \"#utility.yul\":1958:1977   */\n      swap1\n      pop\n        /* \"#utility.yul\":1617:1983   */\n      swap2\n      swap1\n      pop\n      jump\t// out\n        /* \"#utility.yul\":2075:3139   */\n    tag_203:\n        /* \"#utility.yul\":2258:2262   */\n      0xa0\n        /* \"#utility.yul\":2253:2256   */\n      dup3\n        /* \"#utility.yul\":2249:2263   */\n      add\n        /* \"#utility.yul\":2347:2351   */\n      0x00\n        /* \"#utility.yul\":2340:2345   */\n      dup3\n        /* \"#utility.yul\":2336:2352   */\n      add\n        /* \"#utility.yul\":2330:2353   */\n      mload\n        /* \"#utility.yul\":2366:2427   */\n      tag_205\n        /* \"#utility.yul\":2421:2425   */\n      0x00\n        /* \"#utility.yul\":2416:2419   */\n      dup6\n        /* \"#utility.yul\":2412:2426   */\n      add\n        /* \"#utility.yul\":2398:2410   */\n      dup3\n        /* \"#utility.yul\":2366:2427   */\n      tag_206\n      jump\t// in\n    tag_205:\n        /* \"#utility.yul\":2273:2437   */\n      pop\n        /* \"#utility.yul\":2523:2527   */\n      0x20\n        /* \"#utility.yul\":2516:2521   */\n      dup3\n        /* \"#utility.yul\":2512:2528   */\n      add\n        /* \"#utility.yul\":2506:2529   */\n      mload\n        /* \"#utility.yul\":2542:2601   */\n      tag_207\n        /* \"#utility.yul\":2595:2599   */\n      0x20\n        /* \"#utility.yul\":2590:2593   */\n      dup6\n        /* \"#utility.yul\":2586:2600   */\n      add\n        /* \"#utility.yul\":2572:2584   */\n      dup3\n        /* \"#utility.yul\":2542:2601   */\n      tag_208\n      jump\t// in\n    tag_207:\n        /* \"#utility.yul\":2447:2611   */\n      pop\n        /* \"#utility.yul\":2695:2699   */\n      0x40\n        /* \"#utility.yul\":2688:2693   */\n      dup3\n        /* \"#utility.yul\":2684:2700   */\n      add\n        /* \"#utility.yul\":2678:2701   */\n      mload\n        /* \"#utility.yul\":2714:2775   */\n      tag_209\n        /* \"#utility.yul\":2769:2773   */\n      0x40\n        /* \"#utility.yul\":2764:2767   */\n      dup6\n        /* \"#utility.yul\":2760:2774   */\n      add\n        /* \"#utility.yul\":2746:2758   */\n      dup3\n        /* \"#utility.yul\":2714:2775   */\n      tag_206\n      jump\t// in\n    tag_209:\n        /* \"#utility.yul\":2621:2785   */\n      pop\n        /* \"#utility.yul\":2867:2871   */\n      0x60\n        /* \"#utility.yul\":2860:2865   */\n      dup3\n        /* \"#utility.yul\":2856:2872   */\n      add\n        /* \"#utility.yul\":2850:2873   */\n      mload\n        /* \"#utility.yul\":2886:2947   */\n      tag_210\n        /* \"#utility.yul\":2941:2945   */\n      0x60\n        /* \"#utility.yul\":2936:2939   */\n      dup6\n        /* \"#utility.yul\":2932:2946   */\n      add\n        /* \"#utility.yul\":2918:2930   */\n      dup3\n        /* \"#utility.yul\":2886:2947   */\n      tag_206\n      jump\t// in\n    tag_210:\n        /* \"#utility.yul\":2795:2957   */\n      pop\n        /* \"#utility.yul\":3042:3046   */\n      0x80\n        /* \"#utility.yul\":3035:3040   */\n      dup3\n        /* \"#utility.yul\":3031:3047   */\n      add\n        /* \"#utility.yul\":3025:3048   */\n      mload\n        /* \"#utility.yul\":3061:3122   */\n      tag_211\n        /* \"#utility.yul\":3116:3120   */\n      0x80\n        /* \"#utility.yul\":3111:3114   */\n      dup6\n        /* \"#utility.yul\":3107:3121   */\n      add\n        /* \"#utility.yul\":3093:3105   */\n      dup3\n        /* \"#utility.yul\":3061:3122   */\n      tag_206\n      jump\t// in\n    tag_211:\n        /* \"#utility.yul\":2967:3132   */\n      pop\n        /* \"#utility.yul\":2227:3139   */\n      pop\n        /* \"#utility.yul\":2075:3139   */\n      pop\n      pop\n      jump\t// out\n        /* \"#utility.yul\":3145:3250   */\n    tag_206:\n        /* \"#utility.yul\":3220:3243   */\n      tag_213\n        /* \"#utility.yul\":3237:3242   */\n      dup2\n        /* \"#utility.yul\":3220:3243   */\n      tag_214\n      jump\t// in\n    tag_213:\n        /* \"#utility.yul\":3215:3218   */\n      dup3\n        /* \"#utility.yul\":3208:3244   */\n      mstore\n        /* \"#utility.yul\":3145:3250   */\n      pop\n      pop\n      jump\t// out\n        /* \"#utility.yul\":3256:3371   */\n    tag_215:\n        /* \"#utility.yul\":3341:3364   */\n      tag_217\n        /* \"#utility.yul\":3358:3363   */\n      dup2\n        /* \"#utility.yul\":3341:3364   */\n      tag_214\n      jump\t// in\n    tag_217:\n        /* \"#utility.yul\":3336:3339   */\n      dup3\n        /* \"#utility.yul\":3329:3365   */\n      mstore\n        /* \"#utility.yul\":3256:3371   */\n      pop\n      pop\n      jump\t// out\n        /* \"#utility.yul\":3377:3479   */\n    tag_208:\n        /* \"#utility.yul\":3450:3472   */\n      tag_219\n        /* \"#utility.yul\":3466:3471   */\n      dup2\n        /* \"#utility.yul\":3450:3472   */\n      tag_220\n      jump\t// in\n    tag_219:\n        /* \"#utility.yul\":3445:3448   */\n      dup3\n        /* \"#utility.yul\":3438:3473   */\n      mstore\n        /* \"#utility.yul\":3377:3479   */\n      pop\n      pop\n      jump\t// out\n        /* \"#utility.yul\":3485:3904   */\n    tag_129:\n        /* \"#utility.yul\":3651:3655   */\n      0x00\n        /* \"#utility.yul\":3689:3691   */\n      0x20\n        /* \"#utility.yul\":3678:3687   */\n      dup3\n        /* \"#utility.yul\":3674:3692   */\n      add\n        /* \"#utility.yul\":3666:3692   */\n      swap1\n      pop\n        /* \"#utility.yul\":3738:3747   */\n      dup2\n        /* \"#utility.yul\":3732:3736   */\n      dup2\n        /* \"#utility.yul\":3728:3748   */\n      sub\n        /* \"#utility.yul\":3724:3725   */\n      0x00\n        /* \"#utility.yul\":3713:3722   */\n      dup4\n        /* \"#utility.yul\":3709:3726   */\n      add\n        /* \"#utility.yul\":3702:3749   */\n      mstore\n        /* \"#utility.yul\":3766:3897   */\n      tag_222\n        /* \"#utility.yul\":3892:3896   */\n      dup2\n        /* \"#utility.yul\":3766:3897   */\n      tag_192\n      jump\t// in\n    tag_222:\n        /* \"#utility.yul\":3758:3897   */\n      swap1\n      pop\n        /* \"#utility.yul\":3485:3904   */\n      swap2\n      swap1\n      pop\n      jump\t// out\n        /* \"#utility.yul\":3910:4329   */\n    tag_124:\n        /* \"#utility.yul\":4076:4080   */\n      0x00\n        /* \"#utility.yul\":4114:4116   */\n      0x20\n        /* \"#utility.yul\":4103:4112   */\n      dup3\n        /* \"#utility.yul\":4099:4117   */\n      add\n        /* \"#utility.yul\":4091:4117   */\n      swap1\n      pop\n        /* \"#utility.yul\":4163:4172   */\n      dup2\n        /* \"#utility.yul\":4157:4161   */\n      dup2\n        /* \"#utility.yul\":4153:4173   */\n      sub\n        /* \"#utility.yul\":4149:4150   */\n      0x00\n        /* \"#utility.yul\":4138:4147   */\n      dup4\n        /* \"#utility.yul\":4134:4151   */\n      add\n        /* \"#utility.yul\":4127:4174   */\n      mstore\n        /* \"#utility.yul\":4191:4322   */\n      tag_224\n        /* \"#utility.yul\":4317:4321   */\n      dup2\n        /* \"#utility.yul\":4191:4322   */\n      tag_198\n      jump\t// in\n    tag_224:\n        /* \"#utility.yul\":4183:4322   */\n      swap1\n      pop\n        /* \"#utility.yul\":3910:4329   */\n      swap2\n      swap1\n      pop\n      jump\t// out\n        /* \"#utility.yul\":4335:4730   */\n    tag_11:\n        /* \"#utility.yul\":4514:4518   */\n      0x00\n        /* \"#utility.yul\":4552:4555   */\n      0xa0\n        /* \"#utility.yul\":4541:4550   */\n      dup3\n        /* \"#utility.yul\":4537:4556   */\n      add\n        /* \"#utility.yul\":4529:4556   */\n      swap1\n      pop\n        /* \"#utility.yul\":4566:4723   */\n      tag_226\n        /* \"#utility.yul\":4720:4721   */\n      0x00\n        /* \"#utility.yul\":4709:4718   */\n      dup4\n        /* \"#utility.yul\":4705:4722   */\n      add\n        /* \"#utility.yul\":4696:4702   */\n      dup5\n        /* \"#utility.yul\":4566:4723   */\n      tag_203\n      jump\t// in\n    tag_226:\n        /* \"#utility.yul\":4335:4730   */\n      swap3\n      swap2\n      pop\n      pop\n      jump\t// out\n        /* \"#utility.yul\":4736:5166   */\n    tag_16:\n        /* \"#utility.yul\":4879:4883   */\n      0x00\n        /* \"#utility.yul\":4917:4919   */\n      0x60\n        /* \"#utility.yul\":4906:4915   */\n      dup3\n        /* \"#utility.yul\":4902:4920   */\n      add\n        /* \"#utility.yul\":4894:4920   */\n      swap1\n      pop\n        /* \"#utility.yul\":4930:4999   */\n      tag_228\n        /* \"#utility.yul\":4996:4997   */\n      0x00\n        /* \"#utility.yul\":4985:4994   */\n      dup4\n        /* \"#utility.yul\":4981:4998   */\n      add\n        /* \"#utility.yul\":4972:4978   */\n      dup7\n        /* \"#utility.yul\":4930:4999   */\n      tag_215\n      jump\t// in\n    tag_228:\n        /* \"#utility.yul\":5009:5079   */\n      tag_229\n        /* \"#utility.yul\":5075:5077   */\n      0x20\n        /* \"#utility.yul\":5064:5073   */\n      dup4\n        /* \"#utility.yul\":5060:5078   */\n      add\n        /* \"#utility.yul\":5051:5057   */\n      dup6\n        /* \"#utility.yul\":5009:5079   */\n      tag_215\n      jump\t// in\n    tag_229:\n        /* \"#utility.yul\":5089:5159   */\n      tag_230\n        /* \"#utility.yul\":5155:5157   */\n      0x40\n        /* \"#utility.yul\":5144:5153   */\n      dup4\n        /* \"#utility.yul\":5140:5158   */\n      add\n        /* \"#utility.yul\":5131:5137   */\n      dup5\n        /* \"#utility.yul\":5089:5159   */\n      tag_215\n      jump\t// in\n    tag_230:\n        /* \"#utility.yul\":4736:5166   */\n      swap5\n      swap4\n      pop\n      pop\n      pop\n      pop\n      jump\t// out\n        /* \"#utility.yul\":5253:5422   */\n    tag_195:\n        /* \"#utility.yul\":5337:5348   */\n      0x00\n        /* \"#utility.yul\":5371:5377   */\n      dup3\n        /* \"#utility.yul\":5366:5369   */\n      dup3\n        /* \"#utility.yul\":5359:5378   */\n      mstore\n        /* \"#utility.yul\":5411:5415   */\n      0x20\n        /* \"#utility.yul\":5406:5409   */\n      dup3\n        /* \"#utility.yul\":5402:5416   */\n      add\n        /* \"#utility.yul\":5387:5416   */\n      swap1\n      pop\n        /* \"#utility.yul\":5253:5422   */\n      swap3\n      swap2\n      pop\n      pop\n      jump\t// out\n        /* \"#utility.yul\":5428:5733   */\n    tag_157:\n        /* \"#utility.yul\":5468:5471   */\n      0x00\n        /* \"#utility.yul\":5487:5507   */\n      tag_235\n        /* \"#utility.yul\":5505:5506   */\n      dup3\n        /* \"#utility.yul\":5487:5507   */\n      tag_236\n      jump\t// in\n    tag_235:\n        /* \"#utility.yul\":5482:5507   */\n      swap2\n      pop\n        /* \"#utility.yul\":5521:5541   */\n      tag_237\n        /* \"#utility.yul\":5539:5540   */\n      dup4\n        /* \"#utility.yul\":5521:5541   */\n      tag_236\n      jump\t// in\n    tag_237:\n        /* \"#utility.yul\":5516:5541   */\n      swap3\n      pop\n        /* \"#utility.yul\":5675:5676   */\n      dup3\n        /* \"#utility.yul\":5607:5673   */\n      0xffffffffffffffffffffffffffffffffffffffffffffffffffffffffffffffff\n        /* \"#utility.yul\":5603:5677   */\n      sub\n        /* \"#utility.yul\":5600:5601   */\n      dup3\n        /* \"#utility.yul\":5597:5678   */\n      gt\n        /* \"#utility.yul\":5594:5701   */\n      iszero\n      tag_238\n      jumpi\n        /* \"#utility.yul\":5681:5699   */\n      tag_239\n      tag_240\n      jump\t// in\n    tag_239:\n        /* \"#utility.yul\":5594:5701   */\n    tag_238:\n        /* \"#utility.yul\":5725:5726   */\n      dup3\n        /* \"#utility.yul\":5722:5723   */\n      dup3\n        /* \"#utility.yul\":5718:5727   */\n      add\n        /* \"#utility.yul\":5711:5727   */\n      swap1\n      pop\n        /* \"#utility.yul\":5428:5733   */\n      swap3\n      swap2\n      pop\n      pop\n      jump\t// out\n        /* \"#utility.yul\":5739:5985   */\n    tag_85:\n        /* \"#utility.yul\":5778:5781   */\n      0x00\n        /* \"#utility.yul\":5797:5816   */\n      tag_242\n        /* \"#utility.yul\":5814:5815   */\n      dup3\n        /* \"#utility.yul\":5797:5816   */\n      tag_214\n      jump\t// in\n    tag_242:\n        /* \"#utility.yul\":5792:5816   */\n      swap2\n      pop\n        /* \"#utility.yul\":5830:5849   */\n      tag_243\n        /* \"#utility.yul\":5847:5848   */\n      dup4\n        /* \"#utility.yul\":5830:5849   */\n      tag_214\n      jump\t// in\n    tag_243:\n        /* \"#utility.yul\":5825:5849   */\n      swap3\n      pop\n        /* \"#utility.yul\":5927:5928   */\n      dup3\n        /* \"#utility.yul\":5915:5925   */\n      0xffffffff\n        /* \"#utility.yul\":5911:5929   */\n      sub\n        /* \"#utility.yul\":5908:5909   */\n      dup3\n        /* \"#utility.yul\":5905:5930   */\n      gt\n        /* \"#utility.yul\":5902:5953   */\n      iszero\n      tag_244\n      jumpi\n        /* \"#utility.yul\":5933:5951   */\n      tag_245\n      tag_240\n      jump\t// in\n    tag_245:\n        /* \"#utility.yul\":5902:5953   */\n    tag_244:\n        /* \"#utility.yul\":5977:5978   */\n      dup3\n        /* \"#utility.yul\":5974:5975   */\n      dup3\n        /* \"#utility.yul\":5970:5979   */\n      add\n        /* \"#utility.yul\":5963:5979   */\n      swap1\n      pop\n        /* \"#utility.yul\":5739:5985   */\n      swap3\n      swap2\n      pop\n      pop\n      jump\t// out\n        /* \"#utility.yul\":5991:6176   */\n    tag_83:\n        /* \"#utility.yul\":6031:6032   */\n      0x00\n        /* \"#utility.yul\":6048:6068   */\n      tag_247\n        /* \"#utility.yul\":6066:6067   */\n      dup3\n        /* \"#utility.yul\":6048:6068   */\n      tag_236\n      jump\t// in\n    tag_247:\n        /* \"#utility.yul\":6043:6068   */\n      swap2\n      pop\n        /* \"#utility.yul\":6082:6102   */\n      tag_248\n        /* \"#utility.yul\":6100:6101   */\n      dup4\n        /* \"#utility.yul\":6082:6102   */\n      tag_236\n      jump\t// in\n    tag_248:\n        /* \"#utility.yul\":6077:6102   */\n      swap3\n      pop\n        /* \"#utility.yul\":6121:6122   */\n      dup3\n        /* \"#utility.yul\":6111:6146   */\n      tag_249\n      jumpi\n        /* \"#utility.yul\":6126:6144   */\n      tag_250\n      tag_251\n      jump\t// in\n    tag_250:\n        /* \"#utility.yul\":6111:6146   */\n    tag_249:\n        /* \"#utility.yul\":6168:6169   */\n      dup3\n        /* \"#utility.yul\":6165:6166   */\n      dup3\n        /* \"#utility.yul\":6161:6170   */\n      div\n        /* \"#utility.yul\":6156:6170   */\n      swap1\n      pop\n        /* \"#utility.yul\":5991:6176   */\n      swap3\n      swap2\n      pop\n      pop\n      jump\t// out\n        /* \"#utility.yul\":6182:6364   */\n    tag_90:\n        /* \"#utility.yul\":6221:6222   */\n      0x00\n        /* \"#utility.yul\":6238:6257   */\n      tag_253\n        /* \"#utility.yul\":6255:6256   */\n      dup3\n        /* \"#utility.yul\":6238:6257   */\n      tag_214\n      jump\t// in\n    tag_253:\n        /* \"#utility.yul\":6233:6257   */\n      swap2\n      pop\n        /* \"#utility.yul\":6271:6290   */\n      tag_254\n        /* \"#utility.yul\":6288:6289   */\n      dup4\n        /* \"#utility.yul\":6271:6290   */\n      tag_214\n      jump\t// in\n    tag_254:\n        /* \"#utility.yul\":6266:6290   */\n      swap3\n      pop\n        /* \"#utility.yul\":6309:6310   */\n      dup3\n        /* \"#utility.yul\":6299:6334   */\n      tag_255\n      jumpi\n        /* \"#utility.yul\":6314:6332   */\n      tag_256\n      tag_251\n      jump\t// in\n    tag_256:\n        /* \"#utility.yul\":6299:6334   */\n    tag_255:\n        /* \"#utility.yul\":6356:6357   */\n      dup3\n        /* \"#utility.yul\":6353:6354   */\n      dup3\n        /* \"#utility.yul\":6349:6358   */\n      div\n        /* \"#utility.yul\":6344:6358   */\n      swap1\n      pop\n        /* \"#utility.yul\":6182:6364   */\n      swap3\n      swap2\n      pop\n      pop\n      jump\t// out\n        /* \"#utility.yul\":6370:6659   */\n    tag_88:\n        /* \"#utility.yul\":6409:6416   */\n      0x00\n        /* \"#utility.yul\":6432:6451   */\n      tag_258\n        /* \"#utility.yul\":6449:6450   */\n      dup3\n        /* \"#utility.yul\":6432:6451   */\n      tag_214\n      jump\t// in\n    tag_258:\n        /* \"#utility.yul\":6427:6451   */\n      swap2\n      pop\n        /* \"#utility.yul\":6465:6484   */\n      tag_259\n        /* \"#utility.yul\":6482:6483   */\n      dup4\n        /* \"#utility.yul\":6465:6484   */\n      tag_214\n      jump\t// in\n    tag_259:\n        /* \"#utility.yul\":6460:6484   */\n      swap3\n      pop\n        /* \"#utility.yul\":6596:6597   */\n      dup2\n        /* \"#utility.yul\":6584:6594   */\n      0xffffffff\n        /* \"#utility.yul\":6580:6598   */\n      div\n        /* \"#utility.yul\":6577:6578   */\n      dup4\n        /* \"#utility.yul\":6574:6599   */\n      gt\n        /* \"#utility.yul\":6569:6570   */\n      dup3\n        /* \"#utility.yul\":6562:6571   */\n      iszero\n        /* \"#utility.yul\":6555:6572   */\n      iszero\n        /* \"#utility.yul\":6551:6600   */\n      and\n        /* \"#utility.yul\":6548:6623   */\n      iszero\n      tag_260\n      jumpi\n        /* \"#utility.yul\":6603:6621   */\n      tag_261\n      tag_240\n      jump\t// in\n    tag_261:\n        /* \"#utility.yul\":6548:6623   */\n    tag_260:\n        /* \"#utility.yul\":6651:6652   */\n      dup3\n        /* \"#utility.yul\":6648:6649   */\n      dup3\n        /* \"#utility.yul\":6644:6653   */\n      mul\n        /* \"#utility.yul\":6633:6653   */\n      swap1\n      pop\n        /* \"#utility.yul\":6370:6659   */\n      swap3\n      swap2\n      pop\n      pop\n      jump\t// out\n        /* \"#utility.yul\":6665:6853   */\n    tag_95:\n        /* \"#utility.yul\":6704:6708   */\n      0x00\n        /* \"#utility.yul\":6724:6743   */\n      tag_263\n        /* \"#utility.yul\":6741:6742   */\n      dup3\n        /* \"#utility.yul\":6724:6743   */\n      tag_214\n      jump\t// in\n    tag_263:\n        /* \"#utility.yul\":6719:6743   */\n      swap2\n      pop\n        /* \"#utility.yul\":6757:6776   */\n      tag_264\n        /* \"#utility.yul\":6774:6775   */\n      dup4\n        /* \"#utility.yul\":6757:6776   */\n      tag_214\n      jump\t// in\n    tag_264:\n        /* \"#utility.yul\":6752:6776   */\n      swap3\n      pop\n        /* \"#utility.yul\":6795:6796   */\n      dup3\n        /* \"#utility.yul\":6792:6793   */\n      dup3\n        /* \"#utility.yul\":6789:6797   */\n      lt\n        /* \"#utility.yul\":6786:6820   */\n      iszero\n      tag_265\n      jumpi\n        /* \"#utility.yul\":6800:6818   */\n      tag_266\n      tag_240\n      jump\t// in\n    tag_266:\n        /* \"#utility.yul\":6786:6820   */\n    tag_265:\n        /* \"#utility.yul\":6845:6846   */\n      dup3\n        /* \"#utility.yul\":6842:6843   */\n      dup3\n        /* \"#utility.yul\":6838:6847   */\n      sub\n        /* \"#utility.yul\":6830:6847   */\n      swap1\n      pop\n        /* \"#utility.yul\":6665:6853   */\n      swap3\n      swap2\n      pop\n      pop\n      jump\t// out\n        /* \"#utility.yul\":6859:6936   */\n    tag_236:\n        /* \"#utility.yul\":6896:6903   */\n      0x00\n        /* \"#utility.yul\":6925:6930   */\n      dup2\n        /* \"#utility.yul\":6914:6930   */\n      swap1\n      pop\n        /* \"#utility.yul\":6859:6936   */\n      swap2\n      swap1\n      pop\n      jump\t// out\n        /* \"#utility.yul\":6942:7035   */\n    tag_214:\n        /* \"#utility.yul\":6978:6985   */\n      0x00\n        /* \"#utility.yul\":7018:7028   */\n      0xffffffff\n        /* \"#utility.yul\":7011:7016   */\n      dup3\n        /* \"#utility.yul\":7007:7029   */\n      and\n        /* \"#utility.yul\":6996:7029   */\n      swap1\n      pop\n        /* \"#utility.yul\":6942:7035   */\n      swap2\n      swap1\n      pop\n      jump\t// out\n        /* \"#utility.yul\":7041:7127   */\n    tag_220:\n        /* \"#utility.yul\":7076:7083   */\n      0x00\n        /* \"#utility.yul\":7116:7120   */\n      0xff\n        /* \"#utility.yul\":7109:7114   */\n      dup3\n        /* \"#utility.yul\":7105:7121   */\n      and\n        /* \"#utility.yul\":7094:7121   */\n      swap1\n      pop\n        /* \"#utility.yul\":7041:7127   */\n      swap2\n      swap1\n      pop\n      jump\t// out\n        /* \"#utility.yul\":7133:7306   */\n    tag_163:\n        /* \"#utility.yul\":7164:7165   */\n      0x00\n        /* \"#utility.yul\":7181:7200   */\n      tag_271\n        /* \"#utility.yul\":7198:7199   */\n      dup3\n        /* \"#utility.yul\":7181:7200   */\n      tag_214\n      jump\t// in\n    tag_271:\n        /* \"#utility.yul\":7176:7200   */\n      swap2\n      pop\n        /* \"#utility.yul\":7214:7233   */\n      tag_272\n        /* \"#utility.yul\":7231:7232   */\n      dup4\n        /* \"#utility.yul\":7214:7233   */\n      tag_214\n      jump\t// in\n    tag_272:\n        /* \"#utility.yul\":7209:7233   */\n      swap3\n      pop\n        /* \"#utility.yul\":7252:7253   */\n      dup3\n        /* \"#utility.yul\":7242:7277   */\n      tag_273\n      jumpi\n        /* \"#utility.yul\":7257:7275   */\n      tag_274\n      tag_251\n      jump\t// in\n    tag_274:\n        /* \"#utility.yul\":7242:7277   */\n    tag_273:\n        /* \"#utility.yul\":7298:7299   */\n      dup3\n        /* \"#utility.yul\":7295:7296   */\n      dup3\n        /* \"#utility.yul\":7291:7300   */\n      mod\n        /* \"#utility.yul\":7286:7300   */\n      swap1\n      pop\n        /* \"#utility.yul\":7133:7306   */\n      swap3\n      swap2\n      pop\n      pop\n      jump\t// out\n        /* \"#utility.yul\":7312:7492   */\n    tag_240:\n        /* \"#utility.yul\":7360:7437   */\n      0x4e487b7100000000000000000000000000000000000000000000000000000000\n        /* \"#utility.yul\":7357:7358   */\n      0x00\n        /* \"#utility.yul\":7350:7438   */\n      mstore\n        /* \"#utility.yul\":7457:7461   */\n      0x11\n        /* \"#utility.yul\":7454:7455   */\n      0x04\n        /* \"#utility.yul\":7447:7462   */\n      mstore\n        /* \"#utility.yul\":7481:7485   */\n      0x24\n        /* \"#utility.yul\":7478:7479   */\n      0x00\n        /* \"#utility.yul\":7471:7486   */\n      revert\n        /* \"#utility.yul\":7498:7678   */\n    tag_251:\n        /* \"#utility.yul\":7546:7623   */\n      0x4e487b7100000000000000000000000000000000000000000000000000000000\n        /* \"#utility.yul\":7543:7544   */\n      0x00\n        /* \"#utility.yul\":7536:7624   */\n      mstore\n        /* \"#utility.yul\":7643:7647   */\n      0x12\n        /* \"#utility.yul\":7640:7641   */\n      0x04\n        /* \"#utility.yul\":7633:7648   */\n      mstore\n        /* \"#utility.yul\":7667:7671   */\n      0x24\n        /* \"#utility.yul\":7664:7665   */\n      0x00\n        /* \"#utility.yul\":7657:7672   */\n      revert\n        /* \"#utility.yul\":7684:7864   */\n    tag_27:\n        /* \"#utility.yul\":7732:7809   */\n      0x4e487b7100000000000000000000000000000000000000000000000000000000\n        /* \"#utility.yul\":7729:7730   */\n      0x00\n        /* \"#utility.yul\":7722:7810   */\n      mstore\n        /* \"#utility.yul\":7829:7833   */\n      0x32\n        /* \"#utility.yul\":7826:7827   */\n      0x04\n        /* \"#utility.yul\":7819:7834   */\n      mstore\n        /* \"#utility.yul\":7853:7857   */\n      0x24\n        /* \"#utility.yul\":7850:7851   */\n      0x00\n        /* \"#utility.yul\":7843:7858   */\n      revert\n        /* \"#utility.yul\":7993:8110   */\n    tag_185:\n        /* \"#utility.yul\":8102:8103   */\n      0x00\n        /* \"#utility.yul\":8099:8100   */\n      dup1\n        /* \"#utility.yul\":8092:8104   */\n      revert\n        /* \"#utility.yul\":8116:8362   */\n    tag_197:\n        /* \"#utility.yul\":8256:8290   */\n      0x546865206d6574686f642067657454696d65496e5365636f6e647320646f6573\n        /* \"#utility.yul\":8252:8253   */\n      0x00\n        /* \"#utility.yul\":8244:8250   */\n      dup3\n        /* \"#utility.yul\":8240:8254   */\n      add\n        /* \"#utility.yul\":8233:8291   */\n      mstore\n        /* \"#utility.yul\":8325:8354   */\n      0x6e277420776f726b20666f72204d4f4e544820616e6420594541520000000000\n        /* \"#utility.yul\":8320:8322   */\n      0x20\n        /* \"#utility.yul\":8312:8318   */\n      dup3\n        /* \"#utility.yul\":8308:8323   */\n      add\n        /* \"#utility.yul\":8301:8355   */\n      mstore\n        /* \"#utility.yul\":8116:8362   */\n      pop\n      jump\t// out\n        /* \"#utility.yul\":8368:8588   */\n    tag_202:\n        /* \"#utility.yul\":8508:8542   */\n      0x546865726520617265206e6f206f7065726174696f6e7320617661696c61626c\n        /* \"#utility.yul\":8504:8505   */\n      0x00\n        /* \"#utility.yul\":8496:8502   */\n      dup3\n        /* \"#utility.yul\":8492:8506   */\n      add\n        /* \"#utility.yul\":8485:8543   */\n      mstore\n        /* \"#utility.yul\":8577:8580   */\n      0x6500000000000000000000000000000000000000000000000000000000000000\n        /* \"#utility.yul\":8572:8574   */\n      0x20\n        /* \"#utility.yul\":8564:8570   */\n      dup3\n        /* \"#utility.yul\":8560:8575   */\n      add\n        /* \"#utility.yul\":8553:8581   */\n      mstore\n        /* \"#utility.yul\":8368:8588   */\n      pop\n      jump\t// out\n        /* \"#utility.yul\":8594:8716   */\n    tag_173:\n        /* \"#utility.yul\":8667:8691   */\n      tag_284\n        /* \"#utility.yul\":8685:8690   */\n      dup2\n        /* \"#utility.yul\":8667:8691   */\n      tag_236\n      jump\t// in\n    tag_284:\n        /* \"#utility.yul\":8660:8665   */\n      dup2\n        /* \"#utility.yul\":8657:8692   */\n      eq\n        /* \"#utility.yul\":8647:8710   */\n      tag_285\n      jumpi\n        /* \"#utility.yul\":8706:8707   */\n      0x00\n        /* \"#utility.yul\":8703:8704   */\n      dup1\n        /* \"#utility.yul\":8696:8708   */\n      revert\n        /* \"#utility.yul\":8647:8710   */\n    tag_285:\n        /* \"#utility.yul\":8594:8716   */\n      pop\n      jump\t// out\n        /* \"#utility.yul\":8722:8842   */\n    tag_177:\n        /* \"#utility.yul\":8794:8817   */\n      tag_287\n        /* \"#utility.yul\":8811:8816   */\n      dup2\n        /* \"#utility.yul\":8794:8817   */\n      tag_214\n      jump\t// in\n    tag_287:\n        /* \"#utility.yul\":8787:8792   */\n      dup2\n        /* \"#utility.yul\":8784:8818   */\n      eq\n        /* \"#utility.yul\":8774:8836   */\n      tag_288\n      jumpi\n        /* \"#utility.yul\":8832:8833   */\n      0x00\n        /* \"#utility.yul\":8829:8830   */\n      dup1\n        /* \"#utility.yul\":8822:8834   */\n      revert\n        /* \"#utility.yul\":8774:8836   */\n    tag_288:\n        /* \"#utility.yul\":8722:8842   */\n      pop\n      jump\t// out\n        /* \"#utility.yul\":8848:8966   */\n    tag_181:\n        /* \"#utility.yul\":8919:8941   */\n      tag_290\n        /* \"#utility.yul\":8935:8940   */\n      dup2\n        /* \"#utility.yul\":8919:8941   */\n      tag_220\n      jump\t// in\n    tag_290:\n        /* \"#utility.yul\":8912:8917   */\n      dup2\n        /* \"#utility.yul\":8909:8942   */\n      eq\n        /* \"#utility.yul\":8899:8960   */\n      tag_291\n      jumpi\n        /* \"#utility.yul\":8956:8957   */\n      0x00\n        /* \"#utility.yul\":8953:8954   */\n      dup1\n        /* \"#utility.yul\":8946:8958   */\n      revert\n        /* \"#utility.yul\":8899:8960   */\n    tag_291:\n        /* \"#utility.yul\":8848:8966   */\n      pop\n      jump\t// out\n\n    auxdata: 0xa26469706673582212204973ffa848076d8d4d395a3be42a229f2c8f7111ae12a828216f5c65d4d9d58a64736f6c63430008070033\n}\n",
				"bytecode": {
					"linkReferences": {},
					"object": "60806040523480156200001157600080fd5b5060006200002d600260006200071060201b620003b41760201c565b9080600181540180825580915050600190039060005260206000200160009091909190915060008201518160000160006101000a81548163ffffffff021916908363ffffffff16021790555060208201518160000160046101000a81548160ff021916908360ff16021790555060408201518160000160056101000a81548163ffffffff021916908363ffffffff16021790555060608201518160000160096101000a81548163ffffffff021916908363ffffffff160217905550608082015181600001600d6101000a81548163ffffffff021916908363ffffffff160217905550505060006200012c600260016200071060201b620003b41760201c565b9080600181540180825580915050600190039060005260206000200160009091909190915060008201518160000160006101000a81548163ffffffff021916908363ffffffff16021790555060208201518160000160046101000a81548160ff021916908360ff16021790555060408201518160000160056101000a81548163ffffffff021916908363ffffffff16021790555060608201518160000160096101000a81548163ffffffff021916908363ffffffff160217905550608082015181600001600d6101000a81548163ffffffff021916908363ffffffff160217905550505060006200022a6002806200071060201b620003b41760201c565b9080600181540180825580915050600190039060005260206000200160009091909190915060008201518160000160006101000a81548163ffffffff021916908363ffffffff16021790555060208201518160000160046101000a81548160ff021916908360ff16021790555060408201518160000160056101000a81548163ffffffff021916908363ffffffff16021790555060608201518160000160096101000a81548163ffffffff021916908363ffffffff160217905550608082015181600001600d6101000a81548163ffffffff021916908363ffffffff1602179055505050600062000329600260036200071060201b620003b41760201c565b9080600181540180825580915050600190039060005260206000200160009091909190915060008201518160000160006101000a81548163ffffffff021916908363ffffffff16021790555060208201518160000160046101000a81548160ff021916908360ff16021790555060408201518160000160056101000a81548163ffffffff021916908363ffffffff16021790555060608201518160000160096101000a81548163ffffffff021916908363ffffffff160217905550608082015181600001600d6101000a81548163ffffffff021916908363ffffffff1602179055505050600062000428600260046200071060201b620003b41760201c565b9080600181540180825580915050600190039060005260206000200160009091909190915060008201518160000160006101000a81548163ffffffff021916908363ffffffff16021790555060208201518160000160046101000a81548160ff021916908360ff16021790555060408201518160000160056101000a81548163ffffffff021916908363ffffffff16021790555060608201518160000160096101000a81548163ffffffff021916908363ffffffff160217905550608082015181600001600d6101000a81548163ffffffff021916908363ffffffff1602179055505050600062000527600260056200071060201b620003b41760201c565b9080600181540180825580915050600190039060005260206000200160009091909190915060008201518160000160006101000a81548163ffffffff021916908363ffffffff16021790555060208201518160000160046101000a81548160ff021916908360ff16021790555060408201518160000160056101000a81548163ffffffff021916908363ffffffff16021790555060608201518160000160096101000a81548163ffffffff021916908363ffffffff160217905550608082015181600001600d6101000a81548163ffffffff021916908363ffffffff1602179055505050600062000626600260066200071060201b620003b41760201c565b9080600181540180825580915050600190039060005260206000200160009091909190915060008201518160000160006101000a81548163ffffffff021916908363ffffffff16021790555060208201518160000160046101000a81548160ff021916908360ff16021790555060408201518160000160056101000a81548163ffffffff021916908363ffffffff16021790555060608201518160000160096101000a81548163ffffffff021916908363ffffffff160217905550608082015181600001600d6101000a81548163ffffffff021916908363ffffffff16021790555050506200094f565b6200071a6200085c565b6000600460ff168360ff161162000744576200073c836200079660201b60201c565b905062000749565b600190505b6040518060a001604052808563ffffffff1681526020018460ff1681526020018263ffffffff168152602001600063ffffffff168152602001600063ffffffff1681525091505092915050565b6000600460ff168260ff161115620007e5576040517f08c379a0000000000000000000000000000000000000000000000000000000008152600401620007dc90620008cd565b60405180910390fd5b600060ff168260ff161415620007ff576001905062000857565b600160ff168260ff1614156200081957603c905062000857565b600260ff168260ff1614156200083457610e10905062000857565b600360ff168260ff161415620008505762015180905062000857565b62093a8090505b919050565b6040518060a00160405280600063ffffffff168152602001600060ff168152602001600063ffffffff168152602001600063ffffffff168152602001600063ffffffff1681525090565b6000620008b5603b83620008ef565b9150620008c28262000900565b604082019050919050565b60006020820190508181036000830152620008e881620008a6565b9050919050565b600082825260208201905092915050565b7f546865206d6574686f642067657454696d65496e5365636f6e647320646f657360008201527f6e277420776f726b20666f72204d4f4e544820616e6420594541520000000000602082015250565b610fe6806200095f6000396000f3fe608060405234801561001057600080fd5b50600436106100415760003560e01c806320f962061461004657806361eab30914610076578063da7d9cdf146100a8575b600080fd5b610060600480360381019061005b9190610a94565b6100c4565b60405161006d9190610c1c565b60405180910390f35b610090600480360381019061008b9190610a94565b6101b1565b60405161009f93929190610c37565b60405180910390f35b6100c260048036038101906100bd9190610ac1565b6101cc565b005b6100cc610a0b565b600082815481106100e0576100df610e99565b5b906000526020600020016040518060a00160405290816000820160009054906101000a900463ffffffff1663ffffffff1663ffffffff1681526020016000820160049054906101000a900460ff1660ff1660ff1681526020016000820160059054906101000a900463ffffffff1663ffffffff1663ffffffff1681526020016000820160099054906101000a900463ffffffff1663ffffffff1663ffffffff16815260200160008201600d9054906101000a900463ffffffff1663ffffffff1663ffffffff16815250509050919050565b60008060006101bf8461042e565b9250925092509193909250565b600060ff168260ff1614156102105761020b81600080815481106101f3576101f2610e99565b5b906000526020600020016105e190919063ffffffff16565b6103b0565b600160ff168260ff1614156102555761025081600060018154811061023857610237610e99565b5b906000526020600020016105e190919063ffffffff16565b6103af565b600260ff168260ff16141561029a5761029581600060028154811061027d5761027c610e99565b5b906000526020600020016105e190919063ffffffff16565b6103ae565b600360ff168260ff1614156102df576102da8160006003815481106102c2576102c1610e99565b5b906000526020600020016105e190919063ffffffff16565b6103ad565b600460ff168260ff1614156103245761031f81600060048154811061030757610306610e99565b5b906000526020600020016105e190919063ffffffff16565b6103ac565b600560ff168260ff1614156103695761036481600060058154811061034c5761034b610e99565b5b906000526020600020016105e190919063ffffffff16565b6103ab565b600660ff168260ff1614156103aa576103a981600060068154811061039157610390610e99565b5b906000526020600020016105e190919063ffffffff16565b5b5b5b5b5b5b5b5050565b6103bc610a0b565b6000600460ff168360ff16116103dc576103d58361069e565b90506103e1565b600190505b6040518060a001604052808563ffffffff1681526020018460ff1681526020018263ffffffff168152602001600063ffffffff168152602001600063ffffffff1681525091505092915050565b6000806000806201518063ffffffff16856104499190610d0f565b9050600062253d8c62010bd9836104609190610cd5565b61046a9190610cd5565b9050600062023ab182600461047f9190610d71565b6104899190610d40565b9050600460038262023ab161049e9190610d71565b6104a89190610cd5565b6104b29190610d40565b826104bd9190610daf565b9150600062164b096001846104d29190610cd5565b610fa06104df9190610d71565b6104e99190610d40565b9050601f6004826105b56104fd9190610d71565b6105079190610d40565b846105129190610daf565b61051c9190610cd5565b9250600061098f8460506105309190610d71565b61053a9190610d40565b9050600060508261098f61054e9190610d71565b6105589190610d40565b856105639190610daf565b9050600b826105729190610d40565b945084600c6105819190610d71565b60028361058e9190610cd5565b6105989190610daf565b915084836031866105a99190610daf565b60646105b59190610d71565b6105bf9190610cd5565b6105c99190610cd5565b92508298508197508096505050505050509193909250565b6105eb8282610759565b156105fb576105fa828261087f565b5b60008260000160099054906101000a900463ffffffff1663ffffffff1611610658576040517f08c379a000000000000000000000000000000000000000000000000000000000815260040161064f90610bfc565b60405180910390fd5b60018260000160098282829054906101000a900463ffffffff1661067c9190610daf565b92506101000a81548163ffffffff021916908363ffffffff1602179055505050565b6000600460ff168260ff1611156106ea576040517f08c379a00000000000000000000000000000000000000000000000000000000081526004016106e190610bdc565b60405180910390fd5b600060ff168260ff1614156107025760019050610754565b600160ff168260ff16141561071a57603c9050610754565b600260ff168260ff16141561073357610e109050610754565b600360ff168260ff16141561074d57620151809050610754565b62093a8090505b919050565b6000808360000160049054906101000a900460ff169050600460ff168160ff16116107aa5783600001600d9054906101000a900463ffffffff1663ffffffff168363ffffffff161015915050610879565b600560ff168160ff16141561083b5760006107ca8463ffffffff1661042e565b50915050600d85600001600d9054906101000a900463ffffffff1663ffffffff161480156107fe575060018163ffffffff16145b1561080e57600192505050610879565b84600001600d9054906101000a900463ffffffff1663ffffffff168163ffffffff16101592505050610879565b600061084c8463ffffffff1661042e565b5050905084600001600d9054906101000a900463ffffffff1663ffffffff168163ffffffff161015925050505b92915050565b8160000160009054906101000a900463ffffffff168260000160096101000a81548163ffffffff021916908363ffffffff1602179055506108e68260000160059054906101000a900463ffffffff168360000160049054906101000a900460ff168361090c565b82600001600d6101000a81548163ffffffff021916908363ffffffff1602179055505050565b6000600460ff168360ff161161092e576109278383866109a0565b9050610999565b600560ff168360ff16141561096d57600061094e8363ffffffff1661042e565b5063ffffffff169150506001816109659190610c7f565b915050610999565b600061097e8363ffffffff1661042e565b505063ffffffff1690506001816109959190610c7f565b9150505b9392505050565b60008082846109af9190610e0a565b9050600081846109bf9190610daf565b9050600460ff168660ff1614156109f3576203f48081866109e09190610cd5565b6109ea9190610cd5565b92505050610a04565b80856109ff9190610cd5565b925050505b9392505050565b6040518060a00160405280600063ffffffff168152602001600060ff168152602001600063ffffffff168152602001600063ffffffff168152602001600063ffffffff1681525090565b600081359050610a6481610f6b565b92915050565b600081359050610a7981610f82565b92915050565b600081359050610a8e81610f99565b92915050565b600060208284031215610aaa57610aa9610ec8565b5b6000610ab884828501610a55565b91505092915050565b60008060408385031215610ad857610ad7610ec8565b5b6000610ae685828601610a7f565b9250506020610af785828601610a6a565b9150509250929050565b6000610b0e603b83610c6e565b9150610b1982610ecd565b604082019050919050565b6000610b31602183610c6e565b9150610b3c82610f1c565b604082019050919050565b60a082016000820151610b5d6000850182610baf565b506020820151610b706020850182610bcd565b506040820151610b836040850182610baf565b506060820151610b966060850182610baf565b506080820151610ba96080850182610baf565b50505050565b610bb881610ded565b82525050565b610bc781610ded565b82525050565b610bd681610dfd565b82525050565b60006020820190508181036000830152610bf581610b01565b9050919050565b60006020820190508181036000830152610c1581610b24565b9050919050565b600060a082019050610c316000830184610b47565b92915050565b6000606082019050610c4c6000830186610bbe565b610c596020830185610bbe565b610c666040830184610bbe565b949350505050565b600082825260208201905092915050565b6000610c8a82610de3565b9150610c9583610de3565b9250827fffffffffffffffffffffffffffffffffffffffffffffffffffffffffffffffff03821115610cca57610cc9610e3b565b5b828201905092915050565b6000610ce082610ded565b9150610ceb83610ded565b92508263ffffffff03821115610d0457610d03610e3b565b5b828201905092915050565b6000610d1a82610de3565b9150610d2583610de3565b925082610d3557610d34610e6a565b5b828204905092915050565b6000610d4b82610ded565b9150610d5683610ded565b925082610d6657610d65610e6a565b5b828204905092915050565b6000610d7c82610ded565b9150610d8783610ded565b92508163ffffffff0483118215151615610da457610da3610e3b565b5b828202905092915050565b6000610dba82610ded565b9150610dc583610ded565b925082821015610dd857610dd7610e3b565b5b828203905092915050565b6000819050919050565b600063ffffffff82169050919050565b600060ff82169050919050565b6000610e1582610ded565b9150610e2083610ded565b925082610e3057610e2f610e6a565b5b828206905092915050565b7f4e487b7100000000000000000000000000000000000000000000000000000000600052601160045260246000fd5b7f4e487b7100000000000000000000000000000000000000000000000000000000600052601260045260246000fd5b7f4e487b7100000000000000000000000000000000000000000000000000000000600052603260045260246000fd5b600080fd5b7f546865206d6574686f642067657454696d65496e5365636f6e647320646f657360008201527f6e277420776f726b20666f72204d4f4e544820616e6420594541520000000000602082015250565b7f546865726520617265206e6f206f7065726174696f6e7320617661696c61626c60008201527f6500000000000000000000000000000000000000000000000000000000000000602082015250565b610f7481610de3565b8114610f7f57600080fd5b50565b610f8b81610ded565b8114610f9657600080fd5b50565b610fa281610dfd565b8114610fad57600080fd5b5056fea26469706673582212204973ffa848076d8d4d395a3be42a229f2c8f7111ae12a828216f5c65d4d9d58a64736f6c63430008070033",
					"opcodes": "PUSH1 0x80 PUSH1 0x40 MSTORE CALLVALUE DUP1 ISZERO PUSH3 0x11 JUMPI PUSH1 0x0 DUP1 REVERT JUMPDEST POP PUSH1 0x0 PUSH3 0x2D PUSH1 0x2 PUSH1 0x0 PUSH3 0x710 PUSH1 0x20 SHL PUSH3 0x3B4 OR PUSH1 0x20 SHR JUMP JUMPDEST SWAP1 DUP1 PUSH1 0x1 DUP2 SLOAD ADD DUP1 DUP3 SSTORE DUP1 SWAP2 POP POP PUSH1 0x1 SWAP1 SUB SWAP1 PUSH1 0x0 MSTORE PUSH1 0x20 PUSH1 0x0 KECCAK256 ADD PUSH1 0x0 SWAP1 SWAP2 SWAP1 SWAP2 SWAP1 SWAP2 POP PUSH1 0x0 DUP3 ADD MLOAD DUP2 PUSH1 0x0 ADD PUSH1 0x0 PUSH2 0x100 EXP DUP2 SLOAD DUP2 PUSH4 0xFFFFFFFF MUL NOT AND SWAP1 DUP4 PUSH4 0xFFFFFFFF AND MUL OR SWAP1 SSTORE POP PUSH1 0x20 DUP3 ADD MLOAD DUP2 PUSH1 0x0 ADD PUSH1 0x4 PUSH2 0x100 EXP DUP2 SLOAD DUP2 PUSH1 0xFF MUL NOT AND SWAP1 DUP4 PUSH1 0xFF AND MUL OR SWAP1 SSTORE POP PUSH1 0x40 DUP3 ADD MLOAD DUP2 PUSH1 0x0 ADD PUSH1 0x5 PUSH2 0x100 EXP DUP2 SLOAD DUP2 PUSH4 0xFFFFFFFF MUL NOT AND SWAP1 DUP4 PUSH4 0xFFFFFFFF AND MUL OR SWAP1 SSTORE POP PUSH1 0x60 DUP3 ADD MLOAD DUP2 PUSH1 0x0 ADD PUSH1 0x9 PUSH2 0x100 EXP DUP2 SLOAD DUP2 PUSH4 0xFFFFFFFF MUL NOT AND SWAP1 DUP4 PUSH4 0xFFFFFFFF AND MUL OR SWAP1 SSTORE POP PUSH1 0x80 DUP3 ADD MLOAD DUP2 PUSH1 0x0 ADD PUSH1 0xD PUSH2 0x100 EXP DUP2 SLOAD DUP2 PUSH4 0xFFFFFFFF MUL NOT AND SWAP1 DUP4 PUSH4 0xFFFFFFFF AND MUL OR SWAP1 SSTORE POP POP POP PUSH1 0x0 PUSH3 0x12C PUSH1 0x2 PUSH1 0x1 PUSH3 0x710 PUSH1 0x20 SHL PUSH3 0x3B4 OR PUSH1 0x20 SHR JUMP JUMPDEST SWAP1 DUP1 PUSH1 0x1 DUP2 SLOAD ADD DUP1 DUP3 SSTORE DUP1 SWAP2 POP POP PUSH1 0x1 SWAP1 SUB SWAP1 PUSH1 0x0 MSTORE PUSH1 0x20 PUSH1 0x0 KECCAK256 ADD PUSH1 0x0 SWAP1 SWAP2 SWAP1 SWAP2 SWAP1 SWAP2 POP PUSH1 0x0 DUP3 ADD MLOAD DUP2 PUSH1 0x0 ADD PUSH1 0x0 PUSH2 0x100 EXP DUP2 SLOAD DUP2 PUSH4 0xFFFFFFFF MUL NOT AND SWAP1 DUP4 PUSH4 0xFFFFFFFF AND MUL OR SWAP1 SSTORE POP PUSH1 0x20 DUP3 ADD MLOAD DUP2 PUSH1 0x0 ADD PUSH1 0x4 PUSH2 0x100 EXP DUP2 SLOAD DUP2 PUSH1 0xFF MUL NOT AND SWAP1 DUP4 PUSH1 0xFF AND MUL OR SWAP1 SSTORE POP PUSH1 0x40 DUP3 ADD MLOAD DUP2 PUSH1 0x0 ADD PUSH1 0x5 PUSH2 0x100 EXP DUP2 SLOAD DUP2 PUSH4 0xFFFFFFFF MUL NOT AND SWAP1 DUP4 PUSH4 0xFFFFFFFF AND MUL OR SWAP1 SSTORE POP PUSH1 0x60 DUP3 ADD MLOAD DUP2 PUSH1 0x0 ADD PUSH1 0x9 PUSH2 0x100 EXP DUP2 SLOAD DUP2 PUSH4 0xFFFFFFFF MUL NOT AND SWAP1 DUP4 PUSH4 0xFFFFFFFF AND MUL OR SWAP1 SSTORE POP PUSH1 0x80 DUP3 ADD MLOAD DUP2 PUSH1 0x0 ADD PUSH1 0xD PUSH2 0x100 EXP DUP2 SLOAD DUP2 PUSH4 0xFFFFFFFF MUL NOT AND SWAP1 DUP4 PUSH4 0xFFFFFFFF AND MUL OR SWAP1 SSTORE POP POP POP PUSH1 0x0 PUSH3 0x22A PUSH1 0x2 DUP1 PUSH3 0x710 PUSH1 0x20 SHL PUSH3 0x3B4 OR PUSH1 0x20 SHR JUMP JUMPDEST SWAP1 DUP1 PUSH1 0x1 DUP2 SLOAD ADD DUP1 DUP3 SSTORE DUP1 SWAP2 POP POP PUSH1 0x1 SWAP1 SUB SWAP1 PUSH1 0x0 MSTORE PUSH1 0x20 PUSH1 0x0 KECCAK256 ADD PUSH1 0x0 SWAP1 SWAP2 SWAP1 SWAP2 SWAP1 SWAP2 POP PUSH1 0x0 DUP3 ADD MLOAD DUP2 PUSH1 0x0 ADD PUSH1 0x0 PUSH2 0x100 EXP DUP2 SLOAD DUP2 PUSH4 0xFFFFFFFF MUL NOT AND SWAP1 DUP4 PUSH4 0xFFFFFFFF AND MUL OR SWAP1 SSTORE POP PUSH1 0x20 DUP3 ADD MLOAD DUP2 PUSH1 0x0 ADD PUSH1 0x4 PUSH2 0x100 EXP DUP2 SLOAD DUP2 PUSH1 0xFF MUL NOT AND SWAP1 DUP4 PUSH1 0xFF AND MUL OR SWAP1 SSTORE POP PUSH1 0x40 DUP3 ADD MLOAD DUP2 PUSH1 0x0 ADD PUSH1 0x5 PUSH2 0x100 EXP DUP2 SLOAD DUP2 PUSH4 0xFFFFFFFF MUL NOT AND SWAP1 DUP4 PUSH4 0xFFFFFFFF AND MUL OR SWAP1 SSTORE POP PUSH1 0x60 DUP3 ADD MLOAD DUP2 PUSH1 0x0 ADD PUSH1 0x9 PUSH2 0x100 EXP DUP2 SLOAD DUP2 PUSH4 0xFFFFFFFF MUL NOT AND SWAP1 DUP4 PUSH4 0xFFFFFFFF AND MUL OR SWAP1 SSTORE POP PUSH1 0x80 DUP3 ADD MLOAD DUP2 PUSH1 0x0 ADD PUSH1 0xD PUSH2 0x100 EXP DUP2 SLOAD DUP2 PUSH4 0xFFFFFFFF MUL NOT AND SWAP1 DUP4 PUSH4 0xFFFFFFFF AND MUL OR SWAP1 SSTORE POP POP POP PUSH1 0x0 PUSH3 0x329 PUSH1 0x2 PUSH1 0x3 PUSH3 0x710 PUSH1 0x20 SHL PUSH3 0x3B4 OR PUSH1 0x20 SHR JUMP JUMPDEST SWAP1 DUP1 PUSH1 0x1 DUP2 SLOAD ADD DUP1 DUP3 SSTORE DUP1 SWAP2 POP POP PUSH1 0x1 SWAP1 SUB SWAP1 PUSH1 0x0 MSTORE PUSH1 0x20 PUSH1 0x0 KECCAK256 ADD PUSH1 0x0 SWAP1 SWAP2 SWAP1 SWAP2 SWAP1 SWAP2 POP PUSH1 0x0 DUP3 ADD MLOAD DUP2 PUSH1 0x0 ADD PUSH1 0x0 PUSH2 0x100 EXP DUP2 SLOAD DUP2 PUSH4 0xFFFFFFFF MUL NOT AND SWAP1 DUP4 PUSH4 0xFFFFFFFF AND MUL OR SWAP1 SSTORE POP PUSH1 0x20 DUP3 ADD MLOAD DUP2 PUSH1 0x0 ADD PUSH1 0x4 PUSH2 0x100 EXP DUP2 SLOAD DUP2 PUSH1 0xFF MUL NOT AND SWAP1 DUP4 PUSH1 0xFF AND MUL OR SWAP1 SSTORE POP PUSH1 0x40 DUP3 ADD MLOAD DUP2 PUSH1 0x0 ADD PUSH1 0x5 PUSH2 0x100 EXP DUP2 SLOAD DUP2 PUSH4 0xFFFFFFFF MUL NOT AND SWAP1 DUP4 PUSH4 0xFFFFFFFF AND MUL OR SWAP1 SSTORE POP PUSH1 0x60 DUP3 ADD MLOAD DUP2 PUSH1 0x0 ADD PUSH1 0x9 PUSH2 0x100 EXP DUP2 SLOAD DUP2 PUSH4 0xFFFFFFFF MUL NOT AND SWAP1 DUP4 PUSH4 0xFFFFFFFF AND MUL OR SWAP1 SSTORE POP PUSH1 0x80 DUP3 ADD MLOAD DUP2 PUSH1 0x0 ADD PUSH1 0xD PUSH2 0x100 EXP DUP2 SLOAD DUP2 PUSH4 0xFFFFFFFF MUL NOT AND SWAP1 DUP4 PUSH4 0xFFFFFFFF AND MUL OR SWAP1 SSTORE POP POP POP PUSH1 0x0 PUSH3 0x428 PUSH1 0x2 PUSH1 0x4 PUSH3 0x710 PUSH1 0x20 SHL PUSH3 0x3B4 OR PUSH1 0x20 SHR JUMP JUMPDEST SWAP1 DUP1 PUSH1 0x1 DUP2 SLOAD ADD DUP1 DUP3 SSTORE DUP1 SWAP2 POP POP PUSH1 0x1 SWAP1 SUB SWAP1 PUSH1 0x0 MSTORE PUSH1 0x20 PUSH1 0x0 KECCAK256 ADD PUSH1 0x0 SWAP1 SWAP2 SWAP1 SWAP2 SWAP1 SWAP2 POP PUSH1 0x0 DUP3 ADD MLOAD DUP2 PUSH1 0x0 ADD PUSH1 0x0 PUSH2 0x100 EXP DUP2 SLOAD DUP2 PUSH4 0xFFFFFFFF MUL NOT AND SWAP1 DUP4 PUSH4 0xFFFFFFFF AND MUL OR SWAP1 SSTORE POP PUSH1 0x20 DUP3 ADD MLOAD DUP2 PUSH1 0x0 ADD PUSH1 0x4 PUSH2 0x100 EXP DUP2 SLOAD DUP2 PUSH1 0xFF MUL NOT AND SWAP1 DUP4 PUSH1 0xFF AND MUL OR SWAP1 SSTORE POP PUSH1 0x40 DUP3 ADD MLOAD DUP2 PUSH1 0x0 ADD PUSH1 0x5 PUSH2 0x100 EXP DUP2 SLOAD DUP2 PUSH4 0xFFFFFFFF MUL NOT AND SWAP1 DUP4 PUSH4 0xFFFFFFFF AND MUL OR SWAP1 SSTORE POP PUSH1 0x60 DUP3 ADD MLOAD DUP2 PUSH1 0x0 ADD PUSH1 0x9 PUSH2 0x100 EXP DUP2 SLOAD DUP2 PUSH4 0xFFFFFFFF MUL NOT AND SWAP1 DUP4 PUSH4 0xFFFFFFFF AND MUL OR SWAP1 SSTORE POP PUSH1 0x80 DUP3 ADD MLOAD DUP2 PUSH1 0x0 ADD PUSH1 0xD PUSH2 0x100 EXP DUP2 SLOAD DUP2 PUSH4 0xFFFFFFFF MUL NOT AND SWAP1 DUP4 PUSH4 0xFFFFFFFF AND MUL OR SWAP1 SSTORE POP POP POP PUSH1 0x0 PUSH3 0x527 PUSH1 0x2 PUSH1 0x5 PUSH3 0x710 PUSH1 0x20 SHL PUSH3 0x3B4 OR PUSH1 0x20 SHR JUMP JUMPDEST SWAP1 DUP1 PUSH1 0x1 DUP2 SLOAD ADD DUP1 DUP3 SSTORE DUP1 SWAP2 POP POP PUSH1 0x1 SWAP1 SUB SWAP1 PUSH1 0x0 MSTORE PUSH1 0x20 PUSH1 0x0 KECCAK256 ADD PUSH1 0x0 SWAP1 SWAP2 SWAP1 SWAP2 SWAP1 SWAP2 POP PUSH1 0x0 DUP3 ADD MLOAD DUP2 PUSH1 0x0 ADD PUSH1 0x0 PUSH2 0x100 EXP DUP2 SLOAD DUP2 PUSH4 0xFFFFFFFF MUL NOT AND SWAP1 DUP4 PUSH4 0xFFFFFFFF AND MUL OR SWAP1 SSTORE POP PUSH1 0x20 DUP3 ADD MLOAD DUP2 PUSH1 0x0 ADD PUSH1 0x4 PUSH2 0x100 EXP DUP2 SLOAD DUP2 PUSH1 0xFF MUL NOT AND SWAP1 DUP4 PUSH1 0xFF AND MUL OR SWAP1 SSTORE POP PUSH1 0x40 DUP3 ADD MLOAD DUP2 PUSH1 0x0 ADD PUSH1 0x5 PUSH2 0x100 EXP DUP2 SLOAD DUP2 PUSH4 0xFFFFFFFF MUL NOT AND SWAP1 DUP4 PUSH4 0xFFFFFFFF AND MUL OR SWAP1 SSTORE POP PUSH1 0x60 DUP3 ADD MLOAD DUP2 PUSH1 0x0 ADD PUSH1 0x9 PUSH2 0x100 EXP DUP2 SLOAD DUP2 PUSH4 0xFFFFFFFF MUL NOT AND SWAP1 DUP4 PUSH4 0xFFFFFFFF AND MUL OR SWAP1 SSTORE POP PUSH1 0x80 DUP3 ADD MLOAD DUP2 PUSH1 0x0 ADD PUSH1 0xD PUSH2 0x100 EXP DUP2 SLOAD DUP2 PUSH4 0xFFFFFFFF MUL NOT AND SWAP1 DUP4 PUSH4 0xFFFFFFFF AND MUL OR SWAP1 SSTORE POP POP POP PUSH1 0x0 PUSH3 0x626 PUSH1 0x2 PUSH1 0x6 PUSH3 0x710 PUSH1 0x20 SHL PUSH3 0x3B4 OR PUSH1 0x20 SHR JUMP JUMPDEST SWAP1 DUP1 PUSH1 0x1 DUP2 SLOAD ADD DUP1 DUP3 SSTORE DUP1 SWAP2 POP POP PUSH1 0x1 SWAP1 SUB SWAP1 PUSH1 0x0 MSTORE PUSH1 0x20 PUSH1 0x0 KECCAK256 ADD PUSH1 0x0 SWAP1 SWAP2 SWAP1 SWAP2 SWAP1 SWAP2 POP PUSH1 0x0 DUP3 ADD MLOAD DUP2 PUSH1 0x0 ADD PUSH1 0x0 PUSH2 0x100 EXP DUP2 SLOAD DUP2 PUSH4 0xFFFFFFFF MUL NOT AND SWAP1 DUP4 PUSH4 0xFFFFFFFF AND MUL OR SWAP1 SSTORE POP PUSH1 0x20 DUP3 ADD MLOAD DUP2 PUSH1 0x0 ADD PUSH1 0x4 PUSH2 0x100 EXP DUP2 SLOAD DUP2 PUSH1 0xFF MUL NOT AND SWAP1 DUP4 PUSH1 0xFF AND MUL OR SWAP1 SSTORE POP PUSH1 0x40 DUP3 ADD MLOAD DUP2 PUSH1 0x0 ADD PUSH1 0x5 PUSH2 0x100 EXP DUP2 SLOAD DUP2 PUSH4 0xFFFFFFFF MUL NOT AND SWAP1 DUP4 PUSH4 0xFFFFFFFF AND MUL OR SWAP1 SSTORE POP PUSH1 0x60 DUP3 ADD MLOAD DUP2 PUSH1 0x0 ADD PUSH1 0x9 PUSH2 0x100 EXP DUP2 SLOAD DUP2 PUSH4 0xFFFFFFFF MUL NOT AND SWAP1 DUP4 PUSH4 0xFFFFFFFF AND MUL OR SWAP1 SSTORE POP PUSH1 0x80 DUP3 ADD MLOAD DUP2 PUSH1 0x0 ADD PUSH1 0xD PUSH2 0x100 EXP DUP2 SLOAD DUP2 PUSH4 0xFFFFFFFF MUL NOT AND SWAP1 DUP4 PUSH4 0xFFFFFFFF AND MUL OR SWAP1 SSTORE POP POP POP PUSH3 0x94F JUMP JUMPDEST PUSH3 0x71A PUSH3 0x85C JUMP JUMPDEST PUSH1 0x0 PUSH1 0x4 PUSH1 0xFF AND DUP4 PUSH1 0xFF AND GT PUSH3 0x744 JUMPI PUSH3 0x73C DUP4 PUSH3 0x796 PUSH1 0x20 SHL PUSH1 0x20 SHR JUMP JUMPDEST SWAP1 POP PUSH3 0x749 JUMP JUMPDEST PUSH1 0x1 SWAP1 POP JUMPDEST PUSH1 0x40 MLOAD DUP1 PUSH1 0xA0 ADD PUSH1 0x40 MSTORE DUP1 DUP6 PUSH4 0xFFFFFFFF AND DUP2 MSTORE PUSH1 0x20 ADD DUP5 PUSH1 0xFF AND DUP2 MSTORE PUSH1 0x20 ADD DUP3 PUSH4 0xFFFFFFFF AND DUP2 MSTORE PUSH1 0x20 ADD PUSH1 0x0 PUSH4 0xFFFFFFFF AND DUP2 MSTORE PUSH1 0x20 ADD PUSH1 0x0 PUSH4 0xFFFFFFFF AND DUP2 MSTORE POP SWAP2 POP POP SWAP3 SWAP2 POP POP JUMP JUMPDEST PUSH1 0x0 PUSH1 0x4 PUSH1 0xFF AND DUP3 PUSH1 0xFF AND GT ISZERO PUSH3 0x7E5 JUMPI PUSH1 0x40 MLOAD PUSH32 0x8C379A000000000000000000000000000000000000000000000000000000000 DUP2 MSTORE PUSH1 0x4 ADD PUSH3 0x7DC SWAP1 PUSH3 0x8CD JUMP JUMPDEST PUSH1 0x40 MLOAD DUP1 SWAP2 SUB SWAP1 REVERT JUMPDEST PUSH1 0x0 PUSH1 0xFF AND DUP3 PUSH1 0xFF AND EQ ISZERO PUSH3 0x7FF JUMPI PUSH1 0x1 SWAP1 POP PUSH3 0x857 JUMP JUMPDEST PUSH1 0x1 PUSH1 0xFF AND DUP3 PUSH1 0xFF AND EQ ISZERO PUSH3 0x819 JUMPI PUSH1 0x3C SWAP1 POP PUSH3 0x857 JUMP JUMPDEST PUSH1 0x2 PUSH1 0xFF AND DUP3 PUSH1 0xFF AND EQ ISZERO PUSH3 0x834 JUMPI PUSH2 0xE10 SWAP1 POP PUSH3 0x857 JUMP JUMPDEST PUSH1 0x3 PUSH1 0xFF AND DUP3 PUSH1 0xFF AND EQ ISZERO PUSH3 0x850 JUMPI PUSH3 0x15180 SWAP1 POP PUSH3 0x857 JUMP JUMPDEST PUSH3 0x93A80 SWAP1 POP JUMPDEST SWAP2 SWAP1 POP JUMP JUMPDEST PUSH1 0x40 MLOAD DUP1 PUSH1 0xA0 ADD PUSH1 0x40 MSTORE DUP1 PUSH1 0x0 PUSH4 0xFFFFFFFF AND DUP2 MSTORE PUSH1 0x20 ADD PUSH1 0x0 PUSH1 0xFF AND DUP2 MSTORE PUSH1 0x20 ADD PUSH1 0x0 PUSH4 0xFFFFFFFF AND DUP2 MSTORE PUSH1 0x20 ADD PUSH1 0x0 PUSH4 0xFFFFFFFF AND DUP2 MSTORE PUSH1 0x20 ADD PUSH1 0x0 PUSH4 0xFFFFFFFF AND DUP2 MSTORE POP SWAP1 JUMP JUMPDEST PUSH1 0x0 PUSH3 0x8B5 PUSH1 0x3B DUP4 PUSH3 0x8EF JUMP JUMPDEST SWAP2 POP PUSH3 0x8C2 DUP3 PUSH3 0x900 JUMP JUMPDEST PUSH1 0x40 DUP3 ADD SWAP1 POP SWAP2 SWAP1 POP JUMP JUMPDEST PUSH1 0x0 PUSH1 0x20 DUP3 ADD SWAP1 POP DUP2 DUP2 SUB PUSH1 0x0 DUP4 ADD MSTORE PUSH3 0x8E8 DUP2 PUSH3 0x8A6 JUMP JUMPDEST SWAP1 POP SWAP2 SWAP1 POP JUMP JUMPDEST PUSH1 0x0 DUP3 DUP3 MSTORE PUSH1 0x20 DUP3 ADD SWAP1 POP SWAP3 SWAP2 POP POP JUMP JUMPDEST PUSH32 0x546865206D6574686F642067657454696D65496E5365636F6E647320646F6573 PUSH1 0x0 DUP3 ADD MSTORE PUSH32 0x6E277420776F726B20666F72204D4F4E544820616E6420594541520000000000 PUSH1 0x20 DUP3 ADD MSTORE POP JUMP JUMPDEST PUSH2 0xFE6 DUP1 PUSH3 0x95F PUSH1 0x0 CODECOPY PUSH1 0x0 RETURN INVALID PUSH1 0x80 PUSH1 0x40 MSTORE CALLVALUE DUP1 ISZERO PUSH2 0x10 JUMPI PUSH1 0x0 DUP1 REVERT JUMPDEST POP PUSH1 0x4 CALLDATASIZE LT PUSH2 0x41 JUMPI PUSH1 0x0 CALLDATALOAD PUSH1 0xE0 SHR DUP1 PUSH4 0x20F96206 EQ PUSH2 0x46 JUMPI DUP1 PUSH4 0x61EAB309 EQ PUSH2 0x76 JUMPI DUP1 PUSH4 0xDA7D9CDF EQ PUSH2 0xA8 JUMPI JUMPDEST PUSH1 0x0 DUP1 REVERT JUMPDEST PUSH2 0x60 PUSH1 0x4 DUP1 CALLDATASIZE SUB DUP2 ADD SWAP1 PUSH2 0x5B SWAP2 SWAP1 PUSH2 0xA94 JUMP JUMPDEST PUSH2 0xC4 JUMP JUMPDEST PUSH1 0x40 MLOAD PUSH2 0x6D SWAP2 SWAP1 PUSH2 0xC1C JUMP JUMPDEST PUSH1 0x40 MLOAD DUP1 SWAP2 SUB SWAP1 RETURN JUMPDEST PUSH2 0x90 PUSH1 0x4 DUP1 CALLDATASIZE SUB DUP2 ADD SWAP1 PUSH2 0x8B SWAP2 SWAP1 PUSH2 0xA94 JUMP JUMPDEST PUSH2 0x1B1 JUMP JUMPDEST PUSH1 0x40 MLOAD PUSH2 0x9F SWAP4 SWAP3 SWAP2 SWAP1 PUSH2 0xC37 JUMP JUMPDEST PUSH1 0x40 MLOAD DUP1 SWAP2 SUB SWAP1 RETURN JUMPDEST PUSH2 0xC2 PUSH1 0x4 DUP1 CALLDATASIZE SUB DUP2 ADD SWAP1 PUSH2 0xBD SWAP2 SWAP1 PUSH2 0xAC1 JUMP JUMPDEST PUSH2 0x1CC JUMP JUMPDEST STOP JUMPDEST PUSH2 0xCC PUSH2 0xA0B JUMP JUMPDEST PUSH1 0x0 DUP3 DUP2 SLOAD DUP2 LT PUSH2 0xE0 JUMPI PUSH2 0xDF PUSH2 0xE99 JUMP JUMPDEST JUMPDEST SWAP1 PUSH1 0x0 MSTORE PUSH1 0x20 PUSH1 0x0 KECCAK256 ADD PUSH1 0x40 MLOAD DUP1 PUSH1 0xA0 ADD PUSH1 0x40 MSTORE SWAP1 DUP2 PUSH1 0x0 DUP3 ADD PUSH1 0x0 SWAP1 SLOAD SWAP1 PUSH2 0x100 EXP SWAP1 DIV PUSH4 0xFFFFFFFF AND PUSH4 0xFFFFFFFF AND PUSH4 0xFFFFFFFF AND DUP2 MSTORE PUSH1 0x20 ADD PUSH1 0x0 DUP3 ADD PUSH1 0x4 SWAP1 SLOAD SWAP1 PUSH2 0x100 EXP SWAP1 DIV PUSH1 0xFF AND PUSH1 0xFF AND PUSH1 0xFF AND DUP2 MSTORE PUSH1 0x20 ADD PUSH1 0x0 DUP3 ADD PUSH1 0x5 SWAP1 SLOAD SWAP1 PUSH2 0x100 EXP SWAP1 DIV PUSH4 0xFFFFFFFF AND PUSH4 0xFFFFFFFF AND PUSH4 0xFFFFFFFF AND DUP2 MSTORE PUSH1 0x20 ADD PUSH1 0x0 DUP3 ADD PUSH1 0x9 SWAP1 SLOAD SWAP1 PUSH2 0x100 EXP SWAP1 DIV PUSH4 0xFFFFFFFF AND PUSH4 0xFFFFFFFF AND PUSH4 0xFFFFFFFF AND DUP2 MSTORE PUSH1 0x20 ADD PUSH1 0x0 DUP3 ADD PUSH1 0xD SWAP1 SLOAD SWAP1 PUSH2 0x100 EXP SWAP1 DIV PUSH4 0xFFFFFFFF AND PUSH4 0xFFFFFFFF AND PUSH4 0xFFFFFFFF AND DUP2 MSTORE POP POP SWAP1 POP SWAP2 SWAP1 POP JUMP JUMPDEST PUSH1 0x0 DUP1 PUSH1 0x0 PUSH2 0x1BF DUP5 PUSH2 0x42E JUMP JUMPDEST SWAP3 POP SWAP3 POP SWAP3 POP SWAP2 SWAP4 SWAP1 SWAP3 POP JUMP JUMPDEST PUSH1 0x0 PUSH1 0xFF AND DUP3 PUSH1 0xFF AND EQ ISZERO PUSH2 0x210 JUMPI PUSH2 0x20B DUP2 PUSH1 0x0 DUP1 DUP2 SLOAD DUP2 LT PUSH2 0x1F3 JUMPI PUSH2 0x1F2 PUSH2 0xE99 JUMP JUMPDEST JUMPDEST SWAP1 PUSH1 0x0 MSTORE PUSH1 0x20 PUSH1 0x0 KECCAK256 ADD PUSH2 0x5E1 SWAP1 SWAP2 SWAP1 PUSH4 0xFFFFFFFF AND JUMP JUMPDEST PUSH2 0x3B0 JUMP JUMPDEST PUSH1 0x1 PUSH1 0xFF AND DUP3 PUSH1 0xFF AND EQ ISZERO PUSH2 0x255 JUMPI PUSH2 0x250 DUP2 PUSH1 0x0 PUSH1 0x1 DUP2 SLOAD DUP2 LT PUSH2 0x238 JUMPI PUSH2 0x237 PUSH2 0xE99 JUMP JUMPDEST JUMPDEST SWAP1 PUSH1 0x0 MSTORE PUSH1 0x20 PUSH1 0x0 KECCAK256 ADD PUSH2 0x5E1 SWAP1 SWAP2 SWAP1 PUSH4 0xFFFFFFFF AND JUMP JUMPDEST PUSH2 0x3AF JUMP JUMPDEST PUSH1 0x2 PUSH1 0xFF AND DUP3 PUSH1 0xFF AND EQ ISZERO PUSH2 0x29A JUMPI PUSH2 0x295 DUP2 PUSH1 0x0 PUSH1 0x2 DUP2 SLOAD DUP2 LT PUSH2 0x27D JUMPI PUSH2 0x27C PUSH2 0xE99 JUMP JUMPDEST JUMPDEST SWAP1 PUSH1 0x0 MSTORE PUSH1 0x20 PUSH1 0x0 KECCAK256 ADD PUSH2 0x5E1 SWAP1 SWAP2 SWAP1 PUSH4 0xFFFFFFFF AND JUMP JUMPDEST PUSH2 0x3AE JUMP JUMPDEST PUSH1 0x3 PUSH1 0xFF AND DUP3 PUSH1 0xFF AND EQ ISZERO PUSH2 0x2DF JUMPI PUSH2 0x2DA DUP2 PUSH1 0x0 PUSH1 0x3 DUP2 SLOAD DUP2 LT PUSH2 0x2C2 JUMPI PUSH2 0x2C1 PUSH2 0xE99 JUMP JUMPDEST JUMPDEST SWAP1 PUSH1 0x0 MSTORE PUSH1 0x20 PUSH1 0x0 KECCAK256 ADD PUSH2 0x5E1 SWAP1 SWAP2 SWAP1 PUSH4 0xFFFFFFFF AND JUMP JUMPDEST PUSH2 0x3AD JUMP JUMPDEST PUSH1 0x4 PUSH1 0xFF AND DUP3 PUSH1 0xFF AND EQ ISZERO PUSH2 0x324 JUMPI PUSH2 0x31F DUP2 PUSH1 0x0 PUSH1 0x4 DUP2 SLOAD DUP2 LT PUSH2 0x307 JUMPI PUSH2 0x306 PUSH2 0xE99 JUMP JUMPDEST JUMPDEST SWAP1 PUSH1 0x0 MSTORE PUSH1 0x20 PUSH1 0x0 KECCAK256 ADD PUSH2 0x5E1 SWAP1 SWAP2 SWAP1 PUSH4 0xFFFFFFFF AND JUMP JUMPDEST PUSH2 0x3AC JUMP JUMPDEST PUSH1 0x5 PUSH1 0xFF AND DUP3 PUSH1 0xFF AND EQ ISZERO PUSH2 0x369 JUMPI PUSH2 0x364 DUP2 PUSH1 0x0 PUSH1 0x5 DUP2 SLOAD DUP2 LT PUSH2 0x34C JUMPI PUSH2 0x34B PUSH2 0xE99 JUMP JUMPDEST JUMPDEST SWAP1 PUSH1 0x0 MSTORE PUSH1 0x20 PUSH1 0x0 KECCAK256 ADD PUSH2 0x5E1 SWAP1 SWAP2 SWAP1 PUSH4 0xFFFFFFFF AND JUMP JUMPDEST PUSH2 0x3AB JUMP JUMPDEST PUSH1 0x6 PUSH1 0xFF AND DUP3 PUSH1 0xFF AND EQ ISZERO PUSH2 0x3AA JUMPI PUSH2 0x3A9 DUP2 PUSH1 0x0 PUSH1 0x6 DUP2 SLOAD DUP2 LT PUSH2 0x391 JUMPI PUSH2 0x390 PUSH2 0xE99 JUMP JUMPDEST JUMPDEST SWAP1 PUSH1 0x0 MSTORE PUSH1 0x20 PUSH1 0x0 KECCAK256 ADD PUSH2 0x5E1 SWAP1 SWAP2 SWAP1 PUSH4 0xFFFFFFFF AND JUMP JUMPDEST JUMPDEST JUMPDEST JUMPDEST JUMPDEST JUMPDEST JUMPDEST JUMPDEST POP POP JUMP JUMPDEST PUSH2 0x3BC PUSH2 0xA0B JUMP JUMPDEST PUSH1 0x0 PUSH1 0x4 PUSH1 0xFF AND DUP4 PUSH1 0xFF AND GT PUSH2 0x3DC JUMPI PUSH2 0x3D5 DUP4 PUSH2 0x69E JUMP JUMPDEST SWAP1 POP PUSH2 0x3E1 JUMP JUMPDEST PUSH1 0x1 SWAP1 POP JUMPDEST PUSH1 0x40 MLOAD DUP1 PUSH1 0xA0 ADD PUSH1 0x40 MSTORE DUP1 DUP6 PUSH4 0xFFFFFFFF AND DUP2 MSTORE PUSH1 0x20 ADD DUP5 PUSH1 0xFF AND DUP2 MSTORE PUSH1 0x20 ADD DUP3 PUSH4 0xFFFFFFFF AND DUP2 MSTORE PUSH1 0x20 ADD PUSH1 0x0 PUSH4 0xFFFFFFFF AND DUP2 MSTORE PUSH1 0x20 ADD PUSH1 0x0 PUSH4 0xFFFFFFFF AND DUP2 MSTORE POP SWAP2 POP POP SWAP3 SWAP2 POP POP JUMP JUMPDEST PUSH1 0x0 DUP1 PUSH1 0x0 DUP1 PUSH3 0x15180 PUSH4 0xFFFFFFFF AND DUP6 PUSH2 0x449 SWAP2 SWAP1 PUSH2 0xD0F JUMP JUMPDEST SWAP1 POP PUSH1 0x0 PUSH3 0x253D8C PUSH3 0x10BD9 DUP4 PUSH2 0x460 SWAP2 SWAP1 PUSH2 0xCD5 JUMP JUMPDEST PUSH2 0x46A SWAP2 SWAP1 PUSH2 0xCD5 JUMP JUMPDEST SWAP1 POP PUSH1 0x0 PUSH3 0x23AB1 DUP3 PUSH1 0x4 PUSH2 0x47F SWAP2 SWAP1 PUSH2 0xD71 JUMP JUMPDEST PUSH2 0x489 SWAP2 SWAP1 PUSH2 0xD40 JUMP JUMPDEST SWAP1 POP PUSH1 0x4 PUSH1 0x3 DUP3 PUSH3 0x23AB1 PUSH2 0x49E SWAP2 SWAP1 PUSH2 0xD71 JUMP JUMPDEST PUSH2 0x4A8 SWAP2 SWAP1 PUSH2 0xCD5 JUMP JUMPDEST PUSH2 0x4B2 SWAP2 SWAP1 PUSH2 0xD40 JUMP JUMPDEST DUP3 PUSH2 0x4BD SWAP2 SWAP1 PUSH2 0xDAF JUMP JUMPDEST SWAP2 POP PUSH1 0x0 PUSH3 0x164B09 PUSH1 0x1 DUP5 PUSH2 0x4D2 SWAP2 SWAP1 PUSH2 0xCD5 JUMP JUMPDEST PUSH2 0xFA0 PUSH2 0x4DF SWAP2 SWAP1 PUSH2 0xD71 JUMP JUMPDEST PUSH2 0x4E9 SWAP2 SWAP1 PUSH2 0xD40 JUMP JUMPDEST SWAP1 POP PUSH1 0x1F PUSH1 0x4 DUP3 PUSH2 0x5B5 PUSH2 0x4FD SWAP2 SWAP1 PUSH2 0xD71 JUMP JUMPDEST PUSH2 0x507 SWAP2 SWAP1 PUSH2 0xD40 JUMP JUMPDEST DUP5 PUSH2 0x512 SWAP2 SWAP1 PUSH2 0xDAF JUMP JUMPDEST PUSH2 0x51C SWAP2 SWAP1 PUSH2 0xCD5 JUMP JUMPDEST SWAP3 POP PUSH1 0x0 PUSH2 0x98F DUP5 PUSH1 0x50 PUSH2 0x530 SWAP2 SWAP1 PUSH2 0xD71 JUMP JUMPDEST PUSH2 0x53A SWAP2 SWAP1 PUSH2 0xD40 JUMP JUMPDEST SWAP1 POP PUSH1 0x0 PUSH1 0x50 DUP3 PUSH2 0x98F PUSH2 0x54E SWAP2 SWAP1 PUSH2 0xD71 JUMP JUMPDEST PUSH2 0x558 SWAP2 SWAP1 PUSH2 0xD40 JUMP JUMPDEST DUP6 PUSH2 0x563 SWAP2 SWAP1 PUSH2 0xDAF JUMP JUMPDEST SWAP1 POP PUSH1 0xB DUP3 PUSH2 0x572 SWAP2 SWAP1 PUSH2 0xD40 JUMP JUMPDEST SWAP5 POP DUP5 PUSH1 0xC PUSH2 0x581 SWAP2 SWAP1 PUSH2 0xD71 JUMP JUMPDEST PUSH1 0x2 DUP4 PUSH2 0x58E SWAP2 SWAP1 PUSH2 0xCD5 JUMP JUMPDEST PUSH2 0x598 SWAP2 SWAP1 PUSH2 0xDAF JUMP JUMPDEST SWAP2 POP DUP5 DUP4 PUSH1 0x31 DUP7 PUSH2 0x5A9 SWAP2 SWAP1 PUSH2 0xDAF JUMP JUMPDEST PUSH1 0x64 PUSH2 0x5B5 SWAP2 SWAP1 PUSH2 0xD71 JUMP JUMPDEST PUSH2 0x5BF SWAP2 SWAP1 PUSH2 0xCD5 JUMP JUMPDEST PUSH2 0x5C9 SWAP2 SWAP1 PUSH2 0xCD5 JUMP JUMPDEST SWAP3 POP DUP3 SWAP9 POP DUP2 SWAP8 POP DUP1 SWAP7 POP POP POP POP POP POP POP SWAP2 SWAP4 SWAP1 SWAP3 POP JUMP JUMPDEST PUSH2 0x5EB DUP3 DUP3 PUSH2 0x759 JUMP JUMPDEST ISZERO PUSH2 0x5FB JUMPI PUSH2 0x5FA DUP3 DUP3 PUSH2 0x87F JUMP JUMPDEST JUMPDEST PUSH1 0x0 DUP3 PUSH1 0x0 ADD PUSH1 0x9 SWAP1 SLOAD SWAP1 PUSH2 0x100 EXP SWAP1 DIV PUSH4 0xFFFFFFFF AND PUSH4 0xFFFFFFFF AND GT PUSH2 0x658 JUMPI PUSH1 0x40 MLOAD PUSH32 0x8C379A000000000000000000000000000000000000000000000000000000000 DUP2 MSTORE PUSH1 0x4 ADD PUSH2 0x64F SWAP1 PUSH2 0xBFC JUMP JUMPDEST PUSH1 0x40 MLOAD DUP1 SWAP2 SUB SWAP1 REVERT JUMPDEST PUSH1 0x1 DUP3 PUSH1 0x0 ADD PUSH1 0x9 DUP3 DUP3 DUP3 SWAP1 SLOAD SWAP1 PUSH2 0x100 EXP SWAP1 DIV PUSH4 0xFFFFFFFF AND PUSH2 0x67C SWAP2 SWAP1 PUSH2 0xDAF JUMP JUMPDEST SWAP3 POP PUSH2 0x100 EXP DUP2 SLOAD DUP2 PUSH4 0xFFFFFFFF MUL NOT AND SWAP1 DUP4 PUSH4 0xFFFFFFFF AND MUL OR SWAP1 SSTORE POP POP POP JUMP JUMPDEST PUSH1 0x0 PUSH1 0x4 PUSH1 0xFF AND DUP3 PUSH1 0xFF AND GT ISZERO PUSH2 0x6EA JUMPI PUSH1 0x40 MLOAD PUSH32 0x8C379A000000000000000000000000000000000000000000000000000000000 DUP2 MSTORE PUSH1 0x4 ADD PUSH2 0x6E1 SWAP1 PUSH2 0xBDC JUMP JUMPDEST PUSH1 0x40 MLOAD DUP1 SWAP2 SUB SWAP1 REVERT JUMPDEST PUSH1 0x0 PUSH1 0xFF AND DUP3 PUSH1 0xFF AND EQ ISZERO PUSH2 0x702 JUMPI PUSH1 0x1 SWAP1 POP PUSH2 0x754 JUMP JUMPDEST PUSH1 0x1 PUSH1 0xFF AND DUP3 PUSH1 0xFF AND EQ ISZERO PUSH2 0x71A JUMPI PUSH1 0x3C SWAP1 POP PUSH2 0x754 JUMP JUMPDEST PUSH1 0x2 PUSH1 0xFF AND DUP3 PUSH1 0xFF AND EQ ISZERO PUSH2 0x733 JUMPI PUSH2 0xE10 SWAP1 POP PUSH2 0x754 JUMP JUMPDEST PUSH1 0x3 PUSH1 0xFF AND DUP3 PUSH1 0xFF AND EQ ISZERO PUSH2 0x74D JUMPI PUSH3 0x15180 SWAP1 POP PUSH2 0x754 JUMP JUMPDEST PUSH3 0x93A80 SWAP1 POP JUMPDEST SWAP2 SWAP1 POP JUMP JUMPDEST PUSH1 0x0 DUP1 DUP4 PUSH1 0x0 ADD PUSH1 0x4 SWAP1 SLOAD SWAP1 PUSH2 0x100 EXP SWAP1 DIV PUSH1 0xFF AND SWAP1 POP PUSH1 0x4 PUSH1 0xFF AND DUP2 PUSH1 0xFF AND GT PUSH2 0x7AA JUMPI DUP4 PUSH1 0x0 ADD PUSH1 0xD SWAP1 SLOAD SWAP1 PUSH2 0x100 EXP SWAP1 DIV PUSH4 0xFFFFFFFF AND PUSH4 0xFFFFFFFF AND DUP4 PUSH4 0xFFFFFFFF AND LT ISZERO SWAP2 POP POP PUSH2 0x879 JUMP JUMPDEST PUSH1 0x5 PUSH1 0xFF AND DUP2 PUSH1 0xFF AND EQ ISZERO PUSH2 0x83B JUMPI PUSH1 0x0 PUSH2 0x7CA DUP5 PUSH4 0xFFFFFFFF AND PUSH2 0x42E JUMP JUMPDEST POP SWAP2 POP POP PUSH1 0xD DUP6 PUSH1 0x0 ADD PUSH1 0xD SWAP1 SLOAD SWAP1 PUSH2 0x100 EXP SWAP1 DIV PUSH4 0xFFFFFFFF AND PUSH4 0xFFFFFFFF AND EQ DUP1 ISZERO PUSH2 0x7FE JUMPI POP PUSH1 0x1 DUP2 PUSH4 0xFFFFFFFF AND EQ JUMPDEST ISZERO PUSH2 0x80E JUMPI PUSH1 0x1 SWAP3 POP POP POP PUSH2 0x879 JUMP JUMPDEST DUP5 PUSH1 0x0 ADD PUSH1 0xD SWAP1 SLOAD SWAP1 PUSH2 0x100 EXP SWAP1 DIV PUSH4 0xFFFFFFFF AND PUSH4 0xFFFFFFFF AND DUP2 PUSH4 0xFFFFFFFF AND LT ISZERO SWAP3 POP POP POP PUSH2 0x879 JUMP JUMPDEST PUSH1 0x0 PUSH2 0x84C DUP5 PUSH4 0xFFFFFFFF AND PUSH2 0x42E JUMP JUMPDEST POP POP SWAP1 POP DUP5 PUSH1 0x0 ADD PUSH1 0xD SWAP1 SLOAD SWAP1 PUSH2 0x100 EXP SWAP1 DIV PUSH4 0xFFFFFFFF AND PUSH4 0xFFFFFFFF AND DUP2 PUSH4 0xFFFFFFFF AND LT ISZERO SWAP3 POP POP POP JUMPDEST SWAP3 SWAP2 POP POP JUMP JUMPDEST DUP2 PUSH1 0x0 ADD PUSH1 0x0 SWAP1 SLOAD SWAP1 PUSH2 0x100 EXP SWAP1 DIV PUSH4 0xFFFFFFFF AND DUP3 PUSH1 0x0 ADD PUSH1 0x9 PUSH2 0x100 EXP DUP2 SLOAD DUP2 PUSH4 0xFFFFFFFF MUL NOT AND SWAP1 DUP4 PUSH4 0xFFFFFFFF AND MUL OR SWAP1 SSTORE POP PUSH2 0x8E6 DUP3 PUSH1 0x0 ADD PUSH1 0x5 SWAP1 SLOAD SWAP1 PUSH2 0x100 EXP SWAP1 DIV PUSH4 0xFFFFFFFF AND DUP4 PUSH1 0x0 ADD PUSH1 0x4 SWAP1 SLOAD SWAP1 PUSH2 0x100 EXP SWAP1 DIV PUSH1 0xFF AND DUP4 PUSH2 0x90C JUMP JUMPDEST DUP3 PUSH1 0x0 ADD PUSH1 0xD PUSH2 0x100 EXP DUP2 SLOAD DUP2 PUSH4 0xFFFFFFFF MUL NOT AND SWAP1 DUP4 PUSH4 0xFFFFFFFF AND MUL OR SWAP1 SSTORE POP POP POP JUMP JUMPDEST PUSH1 0x0 PUSH1 0x4 PUSH1 0xFF AND DUP4 PUSH1 0xFF AND GT PUSH2 0x92E JUMPI PUSH2 0x927 DUP4 DUP4 DUP7 PUSH2 0x9A0 JUMP JUMPDEST SWAP1 POP PUSH2 0x999 JUMP JUMPDEST PUSH1 0x5 PUSH1 0xFF AND DUP4 PUSH1 0xFF AND EQ ISZERO PUSH2 0x96D JUMPI PUSH1 0x0 PUSH2 0x94E DUP4 PUSH4 0xFFFFFFFF AND PUSH2 0x42E JUMP JUMPDEST POP PUSH4 0xFFFFFFFF AND SWAP2 POP POP PUSH1 0x1 DUP2 PUSH2 0x965 SWAP2 SWAP1 PUSH2 0xC7F JUMP JUMPDEST SWAP2 POP POP PUSH2 0x999 JUMP JUMPDEST PUSH1 0x0 PUSH2 0x97E DUP4 PUSH4 0xFFFFFFFF AND PUSH2 0x42E JUMP JUMPDEST POP POP PUSH4 0xFFFFFFFF AND SWAP1 POP PUSH1 0x1 DUP2 PUSH2 0x995 SWAP2 SWAP1 PUSH2 0xC7F JUMP JUMPDEST SWAP2 POP POP JUMPDEST SWAP4 SWAP3 POP POP POP JUMP JUMPDEST PUSH1 0x0 DUP1 DUP3 DUP5 PUSH2 0x9AF SWAP2 SWAP1 PUSH2 0xE0A JUMP JUMPDEST SWAP1 POP PUSH1 0x0 DUP2 DUP5 PUSH2 0x9BF SWAP2 SWAP1 PUSH2 0xDAF JUMP JUMPDEST SWAP1 POP PUSH1 0x4 PUSH1 0xFF AND DUP7 PUSH1 0xFF AND EQ ISZERO PUSH2 0x9F3 JUMPI PUSH3 0x3F480 DUP2 DUP7 PUSH2 0x9E0 SWAP2 SWAP1 PUSH2 0xCD5 JUMP JUMPDEST PUSH2 0x9EA SWAP2 SWAP1 PUSH2 0xCD5 JUMP JUMPDEST SWAP3 POP POP POP PUSH2 0xA04 JUMP JUMPDEST DUP1 DUP6 PUSH2 0x9FF SWAP2 SWAP1 PUSH2 0xCD5 JUMP JUMPDEST SWAP3 POP POP POP JUMPDEST SWAP4 SWAP3 POP POP POP JUMP JUMPDEST PUSH1 0x40 MLOAD DUP1 PUSH1 0xA0 ADD PUSH1 0x40 MSTORE DUP1 PUSH1 0x0 PUSH4 0xFFFFFFFF AND DUP2 MSTORE PUSH1 0x20 ADD PUSH1 0x0 PUSH1 0xFF AND DUP2 MSTORE PUSH1 0x20 ADD PUSH1 0x0 PUSH4 0xFFFFFFFF AND DUP2 MSTORE PUSH1 0x20 ADD PUSH1 0x0 PUSH4 0xFFFFFFFF AND DUP2 MSTORE PUSH1 0x20 ADD PUSH1 0x0 PUSH4 0xFFFFFFFF AND DUP2 MSTORE POP SWAP1 JUMP JUMPDEST PUSH1 0x0 DUP2 CALLDATALOAD SWAP1 POP PUSH2 0xA64 DUP2 PUSH2 0xF6B JUMP JUMPDEST SWAP3 SWAP2 POP POP JUMP JUMPDEST PUSH1 0x0 DUP2 CALLDATALOAD SWAP1 POP PUSH2 0xA79 DUP2 PUSH2 0xF82 JUMP JUMPDEST SWAP3 SWAP2 POP POP JUMP JUMPDEST PUSH1 0x0 DUP2 CALLDATALOAD SWAP1 POP PUSH2 0xA8E DUP2 PUSH2 0xF99 JUMP JUMPDEST SWAP3 SWAP2 POP POP JUMP JUMPDEST PUSH1 0x0 PUSH1 0x20 DUP3 DUP5 SUB SLT ISZERO PUSH2 0xAAA JUMPI PUSH2 0xAA9 PUSH2 0xEC8 JUMP JUMPDEST JUMPDEST PUSH1 0x0 PUSH2 0xAB8 DUP5 DUP3 DUP6 ADD PUSH2 0xA55 JUMP JUMPDEST SWAP2 POP POP SWAP3 SWAP2 POP POP JUMP JUMPDEST PUSH1 0x0 DUP1 PUSH1 0x40 DUP4 DUP6 SUB SLT ISZERO PUSH2 0xAD8 JUMPI PUSH2 0xAD7 PUSH2 0xEC8 JUMP JUMPDEST JUMPDEST PUSH1 0x0 PUSH2 0xAE6 DUP6 DUP3 DUP7 ADD PUSH2 0xA7F JUMP JUMPDEST SWAP3 POP POP PUSH1 0x20 PUSH2 0xAF7 DUP6 DUP3 DUP7 ADD PUSH2 0xA6A JUMP JUMPDEST SWAP2 POP POP SWAP3 POP SWAP3 SWAP1 POP JUMP JUMPDEST PUSH1 0x0 PUSH2 0xB0E PUSH1 0x3B DUP4 PUSH2 0xC6E JUMP JUMPDEST SWAP2 POP PUSH2 0xB19 DUP3 PUSH2 0xECD JUMP JUMPDEST PUSH1 0x40 DUP3 ADD SWAP1 POP SWAP2 SWAP1 POP JUMP JUMPDEST PUSH1 0x0 PUSH2 0xB31 PUSH1 0x21 DUP4 PUSH2 0xC6E JUMP JUMPDEST SWAP2 POP PUSH2 0xB3C DUP3 PUSH2 0xF1C JUMP JUMPDEST PUSH1 0x40 DUP3 ADD SWAP1 POP SWAP2 SWAP1 POP JUMP JUMPDEST PUSH1 0xA0 DUP3 ADD PUSH1 0x0 DUP3 ADD MLOAD PUSH2 0xB5D PUSH1 0x0 DUP6 ADD DUP3 PUSH2 0xBAF JUMP JUMPDEST POP PUSH1 0x20 DUP3 ADD MLOAD PUSH2 0xB70 PUSH1 0x20 DUP6 ADD DUP3 PUSH2 0xBCD JUMP JUMPDEST POP PUSH1 0x40 DUP3 ADD MLOAD PUSH2 0xB83 PUSH1 0x40 DUP6 ADD DUP3 PUSH2 0xBAF JUMP JUMPDEST POP PUSH1 0x60 DUP3 ADD MLOAD PUSH2 0xB96 PUSH1 0x60 DUP6 ADD DUP3 PUSH2 0xBAF JUMP JUMPDEST POP PUSH1 0x80 DUP3 ADD MLOAD PUSH2 0xBA9 PUSH1 0x80 DUP6 ADD DUP3 PUSH2 0xBAF JUMP JUMPDEST POP POP POP POP JUMP JUMPDEST PUSH2 0xBB8 DUP2 PUSH2 0xDED JUMP JUMPDEST DUP3 MSTORE POP POP JUMP JUMPDEST PUSH2 0xBC7 DUP2 PUSH2 0xDED JUMP JUMPDEST DUP3 MSTORE POP POP JUMP JUMPDEST PUSH2 0xBD6 DUP2 PUSH2 0xDFD JUMP JUMPDEST DUP3 MSTORE POP POP JUMP JUMPDEST PUSH1 0x0 PUSH1 0x20 DUP3 ADD SWAP1 POP DUP2 DUP2 SUB PUSH1 0x0 DUP4 ADD MSTORE PUSH2 0xBF5 DUP2 PUSH2 0xB01 JUMP JUMPDEST SWAP1 POP SWAP2 SWAP1 POP JUMP JUMPDEST PUSH1 0x0 PUSH1 0x20 DUP3 ADD SWAP1 POP DUP2 DUP2 SUB PUSH1 0x0 DUP4 ADD MSTORE PUSH2 0xC15 DUP2 PUSH2 0xB24 JUMP JUMPDEST SWAP1 POP SWAP2 SWAP1 POP JUMP JUMPDEST PUSH1 0x0 PUSH1 0xA0 DUP3 ADD SWAP1 POP PUSH2 0xC31 PUSH1 0x0 DUP4 ADD DUP5 PUSH2 0xB47 JUMP JUMPDEST SWAP3 SWAP2 POP POP JUMP JUMPDEST PUSH1 0x0 PUSH1 0x60 DUP3 ADD SWAP1 POP PUSH2 0xC4C PUSH1 0x0 DUP4 ADD DUP7 PUSH2 0xBBE JUMP JUMPDEST PUSH2 0xC59 PUSH1 0x20 DUP4 ADD DUP6 PUSH2 0xBBE JUMP JUMPDEST PUSH2 0xC66 PUSH1 0x40 DUP4 ADD DUP5 PUSH2 0xBBE JUMP JUMPDEST SWAP5 SWAP4 POP POP POP POP JUMP JUMPDEST PUSH1 0x0 DUP3 DUP3 MSTORE PUSH1 0x20 DUP3 ADD SWAP1 POP SWAP3 SWAP2 POP POP JUMP JUMPDEST PUSH1 0x0 PUSH2 0xC8A DUP3 PUSH2 0xDE3 JUMP JUMPDEST SWAP2 POP PUSH2 0xC95 DUP4 PUSH2 0xDE3 JUMP JUMPDEST SWAP3 POP DUP3 PUSH32 0xFFFFFFFFFFFFFFFFFFFFFFFFFFFFFFFFFFFFFFFFFFFFFFFFFFFFFFFFFFFFFFFF SUB DUP3 GT ISZERO PUSH2 0xCCA JUMPI PUSH2 0xCC9 PUSH2 0xE3B JUMP JUMPDEST JUMPDEST DUP3 DUP3 ADD SWAP1 POP SWAP3 SWAP2 POP POP JUMP JUMPDEST PUSH1 0x0 PUSH2 0xCE0 DUP3 PUSH2 0xDED JUMP JUMPDEST SWAP2 POP PUSH2 0xCEB DUP4 PUSH2 0xDED JUMP JUMPDEST SWAP3 POP DUP3 PUSH4 0xFFFFFFFF SUB DUP3 GT ISZERO PUSH2 0xD04 JUMPI PUSH2 0xD03 PUSH2 0xE3B JUMP JUMPDEST JUMPDEST DUP3 DUP3 ADD SWAP1 POP SWAP3 SWAP2 POP POP JUMP JUMPDEST PUSH1 0x0 PUSH2 0xD1A DUP3 PUSH2 0xDE3 JUMP JUMPDEST SWAP2 POP PUSH2 0xD25 DUP4 PUSH2 0xDE3 JUMP JUMPDEST SWAP3 POP DUP3 PUSH2 0xD35 JUMPI PUSH2 0xD34 PUSH2 0xE6A JUMP JUMPDEST JUMPDEST DUP3 DUP3 DIV SWAP1 POP SWAP3 SWAP2 POP POP JUMP JUMPDEST PUSH1 0x0 PUSH2 0xD4B DUP3 PUSH2 0xDED JUMP JUMPDEST SWAP2 POP PUSH2 0xD56 DUP4 PUSH2 0xDED JUMP JUMPDEST SWAP3 POP DUP3 PUSH2 0xD66 JUMPI PUSH2 0xD65 PUSH2 0xE6A JUMP JUMPDEST JUMPDEST DUP3 DUP3 DIV SWAP1 POP SWAP3 SWAP2 POP POP JUMP JUMPDEST PUSH1 0x0 PUSH2 0xD7C DUP3 PUSH2 0xDED JUMP JUMPDEST SWAP2 POP PUSH2 0xD87 DUP4 PUSH2 0xDED JUMP JUMPDEST SWAP3 POP DUP2 PUSH4 0xFFFFFFFF DIV DUP4 GT DUP3 ISZERO ISZERO AND ISZERO PUSH2 0xDA4 JUMPI PUSH2 0xDA3 PUSH2 0xE3B JUMP JUMPDEST JUMPDEST DUP3 DUP3 MUL SWAP1 POP SWAP3 SWAP2 POP POP JUMP JUMPDEST PUSH1 0x0 PUSH2 0xDBA DUP3 PUSH2 0xDED JUMP JUMPDEST SWAP2 POP PUSH2 0xDC5 DUP4 PUSH2 0xDED JUMP JUMPDEST SWAP3 POP DUP3 DUP3 LT ISZERO PUSH2 0xDD8 JUMPI PUSH2 0xDD7 PUSH2 0xE3B JUMP JUMPDEST JUMPDEST DUP3 DUP3 SUB SWAP1 POP SWAP3 SWAP2 POP POP JUMP JUMPDEST PUSH1 0x0 DUP2 SWAP1 POP SWAP2 SWAP1 POP JUMP JUMPDEST PUSH1 0x0 PUSH4 0xFFFFFFFF DUP3 AND SWAP1 POP SWAP2 SWAP1 POP JUMP JUMPDEST PUSH1 0x0 PUSH1 0xFF DUP3 AND SWAP1 POP SWAP2 SWAP1 POP JUMP JUMPDEST PUSH1 0x0 PUSH2 0xE15 DUP3 PUSH2 0xDED JUMP JUMPDEST SWAP2 POP PUSH2 0xE20 DUP4 PUSH2 0xDED JUMP JUMPDEST SWAP3 POP DUP3 PUSH2 0xE30 JUMPI PUSH2 0xE2F PUSH2 0xE6A JUMP JUMPDEST JUMPDEST DUP3 DUP3 MOD SWAP1 POP SWAP3 SWAP2 POP POP JUMP JUMPDEST PUSH32 0x4E487B7100000000000000000000000000000000000000000000000000000000 PUSH1 0x0 MSTORE PUSH1 0x11 PUSH1 0x4 MSTORE PUSH1 0x24 PUSH1 0x0 REVERT JUMPDEST PUSH32 0x4E487B7100000000000000000000000000000000000000000000000000000000 PUSH1 0x0 MSTORE PUSH1 0x12 PUSH1 0x4 MSTORE PUSH1 0x24 PUSH1 0x0 REVERT JUMPDEST PUSH32 0x4E487B7100000000000000000000000000000000000000000000000000000000 PUSH1 0x0 MSTORE PUSH1 0x32 PUSH1 0x4 MSTORE PUSH1 0x24 PUSH1 0x0 REVERT JUMPDEST PUSH1 0x0 DUP1 REVERT JUMPDEST PUSH32 0x546865206D6574686F642067657454696D65496E5365636F6E647320646F6573 PUSH1 0x0 DUP3 ADD MSTORE PUSH32 0x6E277420776F726B20666F72204D4F4E544820616E6420594541520000000000 PUSH1 0x20 DUP3 ADD MSTORE POP JUMP JUMPDEST PUSH32 0x546865726520617265206E6F206F7065726174696F6E7320617661696C61626C PUSH1 0x0 DUP3 ADD MSTORE PUSH32 0x6500000000000000000000000000000000000000000000000000000000000000 PUSH1 0x20 DUP3 ADD MSTORE POP JUMP JUMPDEST PUSH2 0xF74 DUP2 PUSH2 0xDE3 JUMP JUMPDEST DUP2 EQ PUSH2 0xF7F JUMPI PUSH1 0x0 DUP1 REVERT JUMPDEST POP JUMP JUMPDEST PUSH2 0xF8B DUP2 PUSH2 0xDED JUMP JUMPDEST DUP2 EQ PUSH2 0xF96 JUMPI PUSH1 0x0 DUP1 REVERT JUMPDEST POP JUMP JUMPDEST PUSH2 0xFA2 DUP2 PUSH2 0xDFD JUMP JUMPDEST DUP2 EQ PUSH2 0xFAD JUMPI PUSH1 0x0 DUP1 REVERT JUMPDEST POP JUMP INVALID LOG2 PUSH5 0x6970667358 0x22 SLT KECCAK256 0x49 PUSH20 0xFFA848076D8D4D395A3BE42A229F2C8F7111AE12 0xA8 0x28 0x21 PUSH16 0x5C65D4D9D58A64736F6C634300080700 CALLER "
				},
				"gasEstimates": {
					"creation": {
						"codeDepositCost": "814000",
						"executionCost": "infinite",
						"totalCost": "infinite"
					},
					"external": {
						"decreaseOperation(uint8,uint32)": "infinite",
						"getMaxOp(uint256)": "infinite",
						"testTimestampToDate(uint256)": "infinite"
					}
				},
				"methodIdentifiers": {
					"decreaseOperation(uint8,uint32)": "da7d9cdf",
					"getMaxOp(uint256)": "20f96206",
					"testTimestampToDate(uint256)": "61eab309"
				}
			},
			"storageLayout": {
				"storage": [
					{
						"astId": 1511,
						"contract": "contracts/lib/referencesCode-eai/MaxNumberOfOperationByTime_refCod.sol:MaxNumberOfOperationByTime_refCod",
						"label": "maxOp",
						"offset": 0,
						"slot": "0",
						"type": "t_array(t_struct(MaxNumberOfOperationByTime)730_storage)dyn_storage"
					}
				],
				"types": {
					"t_array(t_struct(MaxNumberOfOperationByTime)730_storage)dyn_storage": {
						"base": "t_struct(MaxNumberOfOperationByTime)730_storage",
						"encoding": "dynamic_array",
						"label": "struct EAI.MaxNumberOfOperationByTime[]",
						"numberOfBytes": "32"
					},
					"t_struct(MaxNumberOfOperationByTime)730_storage": {
						"encoding": "inplace",
						"label": "struct EAI.MaxNumberOfOperationByTime",
						"members": [
							{
								"astId": 721,
								"contract": "contracts/lib/referencesCode-eai/MaxNumberOfOperationByTime_refCod.sol:MaxNumberOfOperationByTime_refCod",
								"label": "amount",
								"offset": 0,
								"slot": "0",
								"type": "t_uint32"
							},
							{
								"astId": 723,
								"contract": "contracts/lib/referencesCode-eai/MaxNumberOfOperationByTime_refCod.sol:MaxNumberOfOperationByTime_refCod",
								"label": "timeUnit",
								"offset": 4,
								"slot": "0",
								"type": "t_uint8"
							},
							{
								"astId": 725,
								"contract": "contracts/lib/referencesCode-eai/MaxNumberOfOperationByTime_refCod.sol:MaxNumberOfOperationByTime_refCod",
								"label": "byTime",
								"offset": 5,
								"slot": "0",
								"type": "t_uint32"
							},
							{
								"astId": 727,
								"contract": "contracts/lib/referencesCode-eai/MaxNumberOfOperationByTime_refCod.sol:MaxNumberOfOperationByTime_refCod",
								"label": "rest",
								"offset": 9,
								"slot": "0",
								"type": "t_uint32"
							},
							{
								"astId": 729,
								"contract": "contracts/lib/referencesCode-eai/MaxNumberOfOperationByTime_refCod.sol:MaxNumberOfOperationByTime_refCod",
								"label": "endTime",
								"offset": 13,
								"slot": "0",
								"type": "t_uint32"
							}
						],
						"numberOfBytes": "32"
					},
					"t_uint32": {
						"encoding": "inplace",
						"label": "uint32",
						"numberOfBytes": "4"
					},
					"t_uint8": {
						"encoding": "inplace",
						"label": "uint8",
						"numberOfBytes": "1"
					}
				}
			},
			"userdoc": {
				"kind": "user",
				"methods": {},
				"version": 1
			}
		}
	}
}