{
  "contractName": "DeliveryHiring_R",
  "abi": [
    {
      "inputs": [
        {
          "internalType": "address",
          "name": "_applicationWallet",
          "type": "address"
        }
      ],
      "stateMutability": "nonpayable",
      "type": "constructor"
    },
    {
      "anonymous": false,
      "inputs": [
        {
          "indexed": false,
          "internalType": "string",
          "name": "_logMessage",
          "type": "string"
        }
      ],
      "name": "failEvent",
      "type": "event"
    },
    {
      "anonymous": false,
      "inputs": [
        {
          "indexed": false,
          "internalType": "string",
          "name": "_logMessage",
          "type": "string"
        }
      ],
      "name": "successEvent",
      "type": "event"
    },
    {
      "inputs": [
        {
          "internalType": "uint32",
          "name": "_accessDateTime",
          "type": "uint32"
        },
        {
          "internalType": "uint8",
          "name": "_weekDay",
          "type": "uint8"
        },
        {
          "internalType": "uint32",
          "name": "_hourOfDay",
          "type": "uint32"
        },
        {
          "internalType": "int256[]",
          "name": "_resultFromXpath",
          "type": "int256[]"
        }
      ],
      "name": "right_requestDelivery",
      "outputs": [
        {
          "internalType": "bool",
          "name": "",
          "type": "bool"
        }
      ],
      "stateMutability": "nonpayable",
      "type": "function"
    },
    {
      "inputs": [],
      "name": "signContract",
      "outputs": [
        {
          "internalType": "bool",
          "name": "",
          "type": "bool"
        }
      ],
      "stateMutability": "nonpayable",
      "type": "function"
    },
    {
      "inputs": [
        {
          "internalType": "string",
          "name": "_name",
          "type": "string"
        },
        {
          "internalType": "address",
          "name": "_walletAddress",
          "type": "address"
        }
      ],
      "name": "changeApplicationParty",
      "outputs": [
        {
          "internalType": "bool",
          "name": "",
          "type": "bool"
        }
      ],
      "stateMutability": "nonpayable",
      "type": "function"
    },
    {
      "inputs": [],
      "name": "getProcessAddress",
      "outputs": [
        {
          "internalType": "address",
          "name": "",
          "type": "address"
        }
      ],
      "stateMutability": "view",
      "type": "function"
    },
    {
      "inputs": [],
      "name": "getApplicationAddress",
      "outputs": [
        {
          "internalType": "address",
          "name": "",
          "type": "address"
        }
      ],
      "stateMutability": "view",
      "type": "function"
    },
    {
      "inputs": [
        {
          "internalType": "address",
          "name": "_walletAddress",
          "type": "address"
        }
      ],
      "name": "getParty",
      "outputs": [
        {
          "components": [
            {
              "internalType": "string",
              "name": "name",
              "type": "string"
            },
            {
              "internalType": "address",
              "name": "walletAddress",
              "type": "address"
            },
            {
              "internalType": "bool",
              "name": "aware",
              "type": "bool"
            }
          ],
          "internalType": "struct EAI.Party",
          "name": "",
          "type": "tuple"
        }
      ],
      "stateMutability": "view",
      "type": "function"
    }
  ],
  "bytecode": "0x60806040526040518060600160405280602e815260200162004724602e9139600690805190602001906200003592919062000f92565b503480156200004357600080fd5b50604051620047523803806200475283398181016040528101906200006991906200127a565b6363b14488600560006101000a81548163ffffffff021916908363ffffffff1602179055506365927808600560046101000a81548163ffffffff021916908363ffffffff160217905550620001016040518060400160405280601381526020017f496e746567726174696f6e2050726f636573730000000000000000000000000081525033600162000af460201b62000eec1760201c565b6000808201518160000190805190602001906200012092919062000f92565b5060208201518160010160006101000a81548173ffffffffffffffffffffffffffffffffffffffff021916908373ffffffffffffffffffffffffffffffffffffffff16021790555060408201518160010160146101000a81548160ff021916908315150217905550905050620001d96040518060400160405280600f81526020017f44656c69766572792053797374656d000000000000000000000000000000000081525082600062000af460201b62000eec1760201c565b60026000820151816000019080519060200190620001f992919062000f92565b5060208201518160010160006101000a81548173ffffffffffffffffffffffffffffffffffffffff021916908373ffffffffffffffffffffffffffffffffffffffff16021790555060408201518160010160146101000a81548160ff0219169083151502179055509050506000600460003373ffffffffffffffffffffffffffffffffffffffff1673ffffffffffffffffffffffffffffffffffffffff1681526020019081526020016000206000820181600001908054620002bb90620012db565b620002c892919062001023565b506001820160009054906101000a900473ffffffffffffffffffffffffffffffffffffffff168160010160006101000a81548173ffffffffffffffffffffffffffffffffffffffff021916908373ffffffffffffffffffffffffffffffffffffffff1602179055506001820160149054906101000a900460ff168160010160146101000a81548160ff0219169083151502179055509050506002600460008373ffffffffffffffffffffffffffffffffffffffff1673ffffffffffffffffffffffffffffffffffffffff1681526020019081526020016000206000820181600001908054620003b790620012db565b620003c492919062001023565b506001820160009054906101000a900473ffffffffffffffffffffffffffffffffffffffff168160010160006101000a81548173ffffffffffffffffffffffffffffffffffffffff021916908373ffffffffffffffffffffffffffffffffffffffff1602179055506001820160149054906101000a900460ff168160010160146101000a81548160ff0219169083151502179055509050506007620004776001600562000b3a60201b62000f301760201c565b9080600181540180825580915050600190039060005260206000200160009091909190915060008201518160000160006101000a81548160ff021916908360ff16021790555060208201518160000160016101000a81548160ff021916908360ff16021790555050506008620004fe6177886201042862000c2d60201b620010191760201c565b9080600181540180825580915050600190039060005260206000200160009091909190915060008201518160000160006101000a81548163ffffffff021916908363ffffffff16021790555060208201518160000160046101000a81548163ffffffff021916908363ffffffff160217905550505060096200058e6005600362000d4260201b620011241760201c565b9080600181540180825580915050600190039060005260206000200160009091909190915060008201518160000160006101000a81548163ffffffff021916908363ffffffff16021790555060208201518160000160046101000a81548160ff021916908360ff16021790555060408201518160000160056101000a81548163ffffffff021916908363ffffffff16021790555060608201518160000160096101000a81548163ffffffff021916908363ffffffff160217905550608082015181600001600d6101000a81548163ffffffff021916908363ffffffff1602179055505050600a62000754600680546200068790620012db565b80601f0160208091040260200160405190810160405280929190818152602001828054620006b590620012db565b8015620007065780601f10620006da5761010080835404028352916020019162000706565b820191906000526020600020905b815481529060010190602001808311620006e857829003601f168201915b50505050506040518060400160405280600281526020017f3e3d000000000000000000000000000000000000000000000000000000000000815250600162000dc760201b6200119d1760201c565b908060018154018082558091505060019003906000526020600020906003020160009091909190915060008201518160000190805190602001906200079b92919062000f92565b506020820151816001019080519060200190620007ba92919062000f92565b50604082015181600201555050600a620008a960068054620007dc90620012db565b80601f01602080910402602001604051908101604052809291908181526020018280546200080a90620012db565b80156200085b5780601f106200082f576101008083540402835291602001916200085b565b820191906000526020600020905b8154815290600101906020018083116200083d57829003601f168201915b50505050506040518060400160405280600281526020017f3c3d000000000000000000000000000000000000000000000000000000000000815250600362000dc760201b6200119d1760201c565b90806001815401808255809150506001900390600052602060002090600302016000909190919091506000820151816000019080519060200190620008f092919062000f92565b5060208201518160010190805190602001906200090f92919062000f92565b50604082015181600201555050600b62000a01600680546200093190620012db565b80601f01602080910402602001604051908101604052809291908181526020018280546200095f90620012db565b8015620009b05780601f106200098457610100808354040283529160200191620009b0565b820191906000526020600020905b8154815290600101906020018083116200099257829003601f168201915b50505050506040518060400160405280600281526020017f3c3d0000000000000000000000000000000000000000000000000000000000008152506103e8600562000df560201b620011c91760201c565b9080600181540180825580915050600190039060005260206000209060060201600090919091909150600082015181600001908051906020019062000a4892919062000f92565b50602082015181600101908051906020019062000a6792919062000f92565b506040820151816002015560608201518160030160006101000a81548160ff021916908360ff16021790555060808201518160030160016101000a81548163ffffffff021916908363ffffffff16021790555060a0820151816004015560c08201518160050160006101000a81548163ffffffff021916908363ffffffff1602179055505050506200155d565b62000afe620010bb565b60405180606001604052808581526020018473ffffffffffffffffffffffffffffffffffffffff16815260200183151581525090509392505050565b62000b44620010f4565b8282600060ff168260ff161015801562000b655750600660ff168260ff1611155b62000ba7576040517f08c379a000000000000000000000000000000000000000000000000000000000815260040162000b9e9062001397565b60405180910390fd5b600060ff168160ff161015801562000bc65750600660ff168160ff1611155b62000c08576040517f08c379a000000000000000000000000000000000000000000000000000000000815260040162000bff906200142f565b60405180910390fd5b60405180604001604052808660ff1681526020018560ff168152509250505092915050565b62000c3762001114565b8282600063ffffffff168263ffffffff161015801562000c6657506201517f63ffffffff168263ffffffff1611155b62000ca8576040517f08c379a000000000000000000000000000000000000000000000000000000000815260040162000c9f9062001397565b60405180910390fd5b600063ffffffff168163ffffffff161015801562000cd557506201517f63ffffffff168163ffffffff1611155b62000d17576040517f08c379a000000000000000000000000000000000000000000000000000000000815260040162000d0e906200142f565b60405180910390fd5b60405180604001604052808663ffffffff1681526020018563ffffffff168152509250505092915050565b62000d4c6200113a565b6000600460ff168360ff161162000d765762000d6e8362000ed060201b60201c565b905062000d7b565b600190505b6040518060a001604052808563ffffffff1681526020018460ff1681526020018263ffffffff1681526020018563ffffffff168152602001600063ffffffff1681525091505092915050565b62000dd162001184565b60405180606001604052808581526020018481526020018381525090509392505050565b62000dff620011a5565b6000600460ff168360ff161162000e295762000e218362000ed060201b60201c565b905062000e2e565b600190505b600185510362000e82576040518060400160405280600281526020017f3c3d000000000000000000000000000000000000000000000000000000000000815250945060018462000e7f91906200148a565b93505b6040518060e001604052808781526020018681526020018581526020018460ff1681526020018263ffffffff168152602001858152602001600063ffffffff16815250915050949350505050565b6000600460ff168260ff16111562000f1f576040517f08c379a000000000000000000000000000000000000000000000000000000000815260040162000f16906200153b565b60405180910390fd5b600060ff168260ff160362000f38576001905062000f8d565b600160ff168260ff160362000f5157603c905062000f8d565b600260ff168260ff160362000f6b57610e10905062000f8d565b600360ff168260ff160362000f865762015180905062000f8d565b62093a8090505b919050565b82805462000fa090620012db565b90600052602060002090601f01602090048101928262000fc4576000855562001010565b82601f1062000fdf57805160ff191683800117855562001010565b8280016001018555821562001010579182015b828111156200100f57825182559160200191906001019062000ff2565b5b5090506200101f9190620011f1565b5090565b8280546200103190620012db565b90600052602060002090601f016020900481019282620010555760008555620010a8565b82601f10620010685780548555620010a8565b82800160010185558215620010a857600052602060002091601f016020900482015b82811115620010a75782548255916001019190600101906200108a565b5b509050620010b79190620011f1565b5090565b604051806060016040528060608152602001600073ffffffffffffffffffffffffffffffffffffffff1681526020016000151581525090565b6040518060400160405280600060ff168152602001600060ff1681525090565b6040518060400160405280600063ffffffff168152602001600063ffffffff1681525090565b6040518060a00160405280600063ffffffff168152602001600060ff168152602001600063ffffffff168152602001600063ffffffff168152602001600063ffffffff1681525090565b60405180606001604052806060815260200160608152602001600081525090565b6040518060e00160405280606081526020016060815260200160008152602001600060ff168152602001600063ffffffff16815260200160008152602001600063ffffffff1681525090565b5b808211156200120c576000816000905550600101620011f2565b5090565b600080fd5b600073ffffffffffffffffffffffffffffffffffffffff82169050919050565b6000620012428262001215565b9050919050565b620012548162001235565b81146200126057600080fd5b50565b600081519050620012748162001249565b92915050565b60006020828403121562001293576200129262001210565b5b6000620012a38482850162001263565b91505092915050565b7f4e487b7100000000000000000000000000000000000000000000000000000000600052602260045260246000fd5b60006002820490506001821680620012f457607f821691505b6020821081036200130a5762001309620012ac565b5b50919050565b600082825260208201905092915050565b7f546865205f7374617274446179206e6f7420726570726573656e74732061207660008201527f616c696420646179000000000000000000000000000000000000000000000000602082015250565b60006200137f60288362001310565b91506200138c8262001321565b604082019050919050565b60006020820190508181036000830152620013b28162001370565b9050919050565b7f546865205f656e64446179206e6f7420726570726573656e747320612076616c60008201527f6964206461790000000000000000000000000000000000000000000000000000602082015250565b60006200141760268362001310565b91506200142482620013b9565b604082019050919050565b600060208201905081810360008301526200144a8162001408565b9050919050565b6000819050919050565b7f4e487b7100000000000000000000000000000000000000000000000000000000600052601160045260246000fd5b6000620014978262001451565b9150620014a48362001451565b925082821015620014ba57620014b96200145b565b5b828203905092915050565b7f546865206d6574686f642067657454696d65496e5365636f6e647320646f657360008201527f6e277420776f726b20666f72204d4f4e544820616e6420594541520000000000602082015250565b600062001523603b8362001310565b91506200153082620014c5565b604082019050919050565b60006020820190508181036000830152620015568162001514565b9050919050565b6131b7806200156d6000396000f3fe608060405234801561001057600080fd5b50600436106100625760003560e01c80635e744c6a1461006757806370d8915a1461009757806370f9459b146100b557806385931911146100e5578063b8b4f1a014610103578063fb6f824314610121575b600080fd5b610081600480360381019061007c9190612253565b610151565b60405161008e91906122ca565b60405180910390f35b61009f610343565b6040516100ac91906122f4565b60405180910390f35b6100cf60048036038101906100ca9190612482565b61045e565b6040516100dc91906122ca565b60405180910390f35b6100ed610a68565b6040516100fa91906122f4565b60405180910390f35b61010b610b83565b60405161011891906122ca565b60405180910390f35b61013b60048036038101906101369190612505565b610ca2565b6040516101489190612628565b60405180910390f35b60003373ffffffffffffffffffffffffffffffffffffffff16600060010160009054906101000a900473ffffffffffffffffffffffffffffffffffffffff1673ffffffffffffffffffffffffffffffffffffffff16146101e6576040517f08c379a00000000000000000000000000000000000000000000000000000000081526004016101dd906126cd565b60405180910390fd5b60046000600260010160009054906101000a900473ffffffffffffffffffffffffffffffffffffffff1673ffffffffffffffffffffffffffffffffffffffff1673ffffffffffffffffffffffffffffffffffffffff1681526020019081526020016000206000808201600061025b9190611df5565b6001820160006101000a81549073ffffffffffffffffffffffffffffffffffffffff02191690556001820160146101000a81549060ff021916905550506102a483836000610eec565b600260008201518160000190805190602001906102c2929190611e35565b5060208201518160010160006101000a81548173ffffffffffffffffffffffffffffffffffffffff021916908373ffffffffffffffffffffffffffffffffffffffff16021790555060408201518160010160146101000a81548160ff021916908315150217905550905050610338826002611295565b506001905092915050565b60003373ffffffffffffffffffffffffffffffffffffffff16600260010160009054906101000a900473ffffffffffffffffffffffffffffffffffffffff1673ffffffffffffffffffffffffffffffffffffffff1614806103f457503373ffffffffffffffffffffffffffffffffffffffff16600060010160009054906101000a900473ffffffffffffffffffffffffffffffffffffffff1673ffffffffffffffffffffffffffffffffffffffff16145b610433576040517f08c379a000000000000000000000000000000000000000000000000000000000815260040161042a9061275f565b60405180910390fd5b600260010160009054906101000a900473ffffffffffffffffffffffffffffffffffffffff16905090565b60003373ffffffffffffffffffffffffffffffffffffffff16600060010160009054906101000a900473ffffffffffffffffffffffffffffffffffffffff1673ffffffffffffffffffffffffffffffffffffffff16146104f3576040517f08c379a00000000000000000000000000000000000000000000000000000000081526004016104ea906126cd565b60405180910390fd5b61055f600760008154811061050b5761050a61277f565b5b906000526020600020016040518060400160405290816000820160009054906101000a900460ff1660ff1660ff1681526020016000820160019054906101000a900460ff1660ff1660ff1681525050611398565b50506105d784600760008154811061057a5761057961277f565b5b906000526020600020016040518060400160405290816000820160009054906101000a900460ff1660ff1660ff1681526020016000820160019054906101000a900460ff1660ff1660ff16815250506113ae90919063ffffffff16565b801561066757506106668360086000815481106105f7576105f661277f565b5b906000526020600020016040518060400160405290816000820160009054906101000a900463ffffffff1663ffffffff1663ffffffff1681526020016000820160049054906101000a900463ffffffff1663ffffffff1663ffffffff168152505061143a90919063ffffffff16565b5b80156107f857506107f7826000815181106106855761068461277f565b5b6020026020010151600a6000815481106106a2576106a161277f565b5b90600052602060002090600302016040518060600160405290816000820180546106cb906127dd565b80601f01602080910402602001604051908101604052809291908181526020018280546106f7906127dd565b80156107445780601f1061071957610100808354040283529160200191610744565b820191906000526020600020905b81548152906001019060200180831161072757829003601f168201915b5050505050815260200160018201805461075d906127dd565b80601f0160208091040260200160405190810160405280929190818152602001828054610789906127dd565b80156107d65780601f106107ab576101008083540402835291602001916107d6565b820191906000526020600020905b8154815290600101906020018083116107b957829003601f168201915b505050505081526020016002820154815250506114e490919063ffffffff16565b5b80156109895750610988826000815181106108165761081561277f565b5b6020026020010151600a6001815481106108335761083261277f565b5b906000526020600020906003020160405180606001604052908160008201805461085c906127dd565b80601f0160208091040260200160405190810160405280929190818152602001828054610888906127dd565b80156108d55780601f106108aa576101008083540402835291602001916108d5565b820191906000526020600020905b8154815290600101906020018083116108b857829003601f168201915b505050505081526020016001820180546108ee906127dd565b80601f016020809104026020016040519081016040528092919081815260200182805461091a906127dd565b80156109675780601f1061093c57610100808354040283529160200191610967565b820191906000526020600020905b81548152906001019060200180831161094a57829003601f168201915b505050505081526020016002820154815250506114e490919063ffffffff16565b5b80156109e357506109e285836000815181106109a8576109a761277f565b5b6020026020010151600b6000815481106109c5576109c461277f565b5b90600052602060002090600602016116d69092919063ffffffff16565b5b15610a26577f95a1f3a1dafdd4c1af344e3d7c69a72cbce8a3f15fe1cf95a7f5bd23df2e71a1604051610a159061285a565b60405180910390a160019050610a60565b7f66091b7dc2b097c8f60d5cd6aa99633b097f08d2eb1056f3e15361b22e0ea2ba604051610a5390612912565b60405180910390a1600090505b949350505050565b60003373ffffffffffffffffffffffffffffffffffffffff16600260010160009054906101000a900473ffffffffffffffffffffffffffffffffffffffff1673ffffffffffffffffffffffffffffffffffffffff161480610b1957503373ffffffffffffffffffffffffffffffffffffffff16600060010160009054906101000a900473ffffffffffffffffffffffffffffffffffffffff1673ffffffffffffffffffffffffffffffffffffffff16145b610b58576040517f08c379a0000000000000000000000000000000000000000000000000000000008152600401610b4f9061275f565b60405180910390fd5b600060010160009054906101000a900473ffffffffffffffffffffffffffffffffffffffff16905090565b60003373ffffffffffffffffffffffffffffffffffffffff16600260010160009054906101000a900473ffffffffffffffffffffffffffffffffffffffff1673ffffffffffffffffffffffffffffffffffffffff1614610c18576040517f08c379a0000000000000000000000000000000000000000000000000000000008152600401610c0f906129a4565b60405180910390fd5b60001515600260010160149054906101000a900460ff16151514610c71576040517f08c379a0000000000000000000000000000000000000000000000000000000008152600401610c6890612a10565b60405180910390fd5b6001600260010160146101000a81548160ff021916908315150217905550610c9a336002611295565b506001905090565b610caa611ebb565b3373ffffffffffffffffffffffffffffffffffffffff16600260010160009054906101000a900473ffffffffffffffffffffffffffffffffffffffff1673ffffffffffffffffffffffffffffffffffffffff161480610d5957503373ffffffffffffffffffffffffffffffffffffffff16600060010160009054906101000a900473ffffffffffffffffffffffffffffffffffffffff1673ffffffffffffffffffffffffffffffffffffffff16145b610d98576040517f08c379a0000000000000000000000000000000000000000000000000000000008152600401610d8f9061275f565b60405180910390fd5b600460008373ffffffffffffffffffffffffffffffffffffffff1673ffffffffffffffffffffffffffffffffffffffff168152602001908152602001600020604051806060016040529081600082018054610df2906127dd565b80601f0160208091040260200160405190810160405280929190818152602001828054610e1e906127dd565b8015610e6b5780601f10610e4057610100808354040283529160200191610e6b565b820191906000526020600020905b815481529060010190602001808311610e4e57829003601f168201915b505050505081526020016001820160009054906101000a900473ffffffffffffffffffffffffffffffffffffffff1673ffffffffffffffffffffffffffffffffffffffff1673ffffffffffffffffffffffffffffffffffffffff1681526020016001820160149054906101000a900460ff1615151515815250509050919050565b610ef4611ebb565b60405180606001604052808581526020018473ffffffffffffffffffffffffffffffffffffffff16815260200183151581525090509392505050565b610f38611ef4565b8282600060ff168260ff1610158015610f585750600660ff168260ff1611155b610f97576040517f08c379a0000000000000000000000000000000000000000000000000000000008152600401610f8e90612aa2565b60405180910390fd5b600060ff168160ff1610158015610fb55750600660ff168160ff1611155b610ff4576040517f08c379a0000000000000000000000000000000000000000000000000000000008152600401610feb90612b34565b60405180910390fd5b60405180604001604052808660ff1681526020018560ff168152509250505092915050565b611021611f14565b8282600063ffffffff168263ffffffff161015801561104f57506201517f63ffffffff168263ffffffff1611155b61108e576040517f08c379a000000000000000000000000000000000000000000000000000000000815260040161108590612aa2565b60405180910390fd5b600063ffffffff168163ffffffff16101580156110ba57506201517f63ffffffff168163ffffffff1611155b6110f9576040517f08c379a00000000000000000000000000000000000000000000000000000000081526004016110f090612b34565b60405180910390fd5b60405180604001604052808663ffffffff1681526020018563ffffffff168152509250505092915050565b61112c611f3a565b6000600460ff168360ff161161114c5761114583611869565b9050611151565b600190505b6040518060a001604052808563ffffffff1681526020018460ff1681526020018263ffffffff1681526020018563ffffffff168152602001600063ffffffff1681525091505092915050565b6111a5611f84565b60405180606001604052808581526020018481526020018381525090509392505050565b6111d1611fa5565b6000600460ff168360ff16116111f1576111ea83611869565b90506111f6565b600190505b6001855103611247576040518060400160405280600281526020017f3c3d00000000000000000000000000000000000000000000000000000000000081525094506001846112449190612b8d565b93505b6040518060e001604052808781526020018681526020018581526020018460ff1681526020018263ffffffff168152602001858152602001600063ffffffff16815250915050949350505050565b600081600460008573ffffffffffffffffffffffffffffffffffffffff1673ffffffffffffffffffffffffffffffffffffffff16815260200190815260200160002060008201816000019080546112eb906127dd565b6112f6929190611ff1565b506001820160009054906101000a900473ffffffffffffffffffffffffffffffffffffffff168160010160006101000a81548173ffffffffffffffffffffffffffffffffffffffff021916908373ffffffffffffffffffffffffffffffffffffffff1602179055506001820160149054906101000a900460ff168160010160146101000a81548160ff0219169083151502179055509050506001905092915050565b6000808260000151836020015191509150915091565b6000826020015160ff16836000015160ff1610156113fd57826000015160ff168260ff16101580156113ea5750826020015160ff168260ff1611155b156113f85760019050611434565b61142f565b826000015160ff168260ff161015806114205750826020015160ff168260ff1611155b1561142e5760019050611434565b5b600090505b92915050565b6000826020015163ffffffff16836000015163ffffffff16101561149b57826000015163ffffffff168263ffffffff16101580156114885750826020015163ffffffff168263ffffffff1611155b1561149657600190506114de565b6114d9565b826000015163ffffffff168263ffffffff161015806114ca5750826020015163ffffffff168263ffffffff1611155b156114d857600190506114de565b5b600090505b92915050565b60008083602001519050602160f81b816000815181106115075761150661277f565b5b602001015160f81c60f81b7effffffffffffffffffffffffffffffffffffffffffffffffffffffffffffff1916036115495783604001518314159150506116d0565b603d60f81b816000815181106115625761156161277f565b5b602001015160f81c60f81b7effffffffffffffffffffffffffffffffffffffffffffffffffffffffffffff1916036115a357836040015183149150506116d0565b603c60f81b816000815181106115bc576115bb61277f565b5b602001015160f81c60f81b7effffffffffffffffffffffffffffffffffffffffffffffffffffffffffffff1916036116165760028151036116075783604001518313159150506116d0565b836040015183129150506116d0565b603e60f81b8160008151811061162f5761162e61277f565b5b602001015160f81c60f81b7effffffffffffffffffffffffffffffffffffffffffffffffffffffffffffff19160361168957600281510361167a5783604001518312159150506116d0565b836040015183139150506116d0565b60006116ca576040517f08c379a00000000000000000000000000000000000000000000000000000000081526004016116c190612c0d565b60405180910390fd5b60009150505b92915050565b600080821161171a576040517f08c379a000000000000000000000000000000000000000000000000000000000815260040161171190612c9f565b60405180910390fd5b61174a8460030160009054906101000a900460ff168560050160009054906101000a900463ffffffff1685611920565b156117af578360020154846004018190555061178c8460030160019054906101000a900463ffffffff168560030160009054906101000a900460ff16856119e5565b8460050160006101000a81548163ffffffff021916908363ffffffff1602179055505b60006117be8560040154611a78565b6117cb8660020154611a78565b6117d485611a78565b6040516020016117e693929190612e05565b604051602081830303815290604052905084600401548311158190611841576040517f08c379a00000000000000000000000000000000000000000000000000000000081526004016118389190612e90565b60405180910390fd5b50828560040160008282546118569190612b8d565b9250508190555060019150509392505050565b6000600460ff168260ff1611156118b5576040517f08c379a00000000000000000000000000000000000000000000000000000000081526004016118ac90612f24565b60405180910390fd5b600060ff168260ff16036118cc576001905061191b565b600160ff168260ff16036118e357603c905061191b565b600260ff168260ff16036118fb57610e10905061191b565b600360ff168260ff16036119145762015180905061191b565b62093a8090505b919050565b600080849050600460ff168160ff161161194c578363ffffffff168363ffffffff1610159150506119de565b600560ff168160ff16036119b457600061196b8463ffffffff16611bd8565b50915050600d8563ffffffff1614801561198b575060018163ffffffff16145b1561199b576001925050506119de565b8463ffffffff168163ffffffff161015925050506119de565b60006119c58463ffffffff16611bd8565b505090508463ffffffff168163ffffffff161015925050505b9392505050565b6000600460ff168360ff1611611a0757611a00838386611d8b565b9050611a71565b600560ff168360ff1603611a45576000611a268363ffffffff16611bd8565b5063ffffffff16915050600181611a3d9190612f44565b915050611a71565b6000611a568363ffffffff16611bd8565b505063ffffffff169050600181611a6d9190612f44565b9150505b9392505050565b606060008203611abf576040518060400160405280600181526020017f30000000000000000000000000000000000000000000000000000000000000008152509050611bd3565b600082905060005b60008214611af1578080611ada90612f9a565b915050600a82611aea9190613011565b9150611ac7565b60008167ffffffffffffffff811115611b0d57611b0c6120ca565b5b6040519080825280601f01601f191660200182016040528015611b3f5781602001600182028036833780820191505090505b5090505b60008514611bcc57600182611b589190612b8d565b9150600a85611b679190613042565b6030611b739190612f44565b60f81b818381518110611b8957611b8861277f565b5b60200101907effffffffffffffffffffffffffffffffffffffffffffffffffffffffffffff1916908160001a905350600a85611bc59190613011565b9450611b43565b8093505050505b919050565b6000806000806201518063ffffffff1685611bf39190613011565b9050600062253d8c62010bd983611c0a9190613073565b611c149190613073565b9050600062023ab1826004611c2991906130ad565b611c3391906130eb565b9050600460038262023ab1611c4891906130ad565b611c529190613073565b611c5c91906130eb565b82611c67919061311c565b9150600062164b09600184611c7c9190613073565b610fa0611c8991906130ad565b611c9391906130eb565b9050601f6004826105b5611ca791906130ad565b611cb191906130eb565b84611cbc919061311c565b611cc69190613073565b9250600061098f846050611cda91906130ad565b611ce491906130eb565b9050600060508261098f611cf891906130ad565b611d0291906130eb565b85611d0d919061311c565b9050600b82611d1c91906130eb565b945084600c611d2b91906130ad565b600283611d389190613073565b611d42919061311c565b91508483603186611d53919061311c565b6064611d5f91906130ad565b611d699190613073565b611d739190613073565b92508298508197508096505050505050509193909250565b6000808284611d9a9190613150565b905060008184611daa919061311c565b9050600460ff168660ff1603611ddd576203f4808186611dca9190613073565b611dd49190613073565b92505050611dee565b8085611de99190613073565b925050505b9392505050565b508054611e01906127dd565b6000825580601f10611e135750611e32565b601f016020900490600052602060002090810190611e31919061207e565b5b50565b828054611e41906127dd565b90600052602060002090601f016020900481019282611e635760008555611eaa565b82601f10611e7c57805160ff1916838001178555611eaa565b82800160010185558215611eaa579182015b82811115611ea9578251825591602001919060010190611e8e565b5b509050611eb7919061207e565b5090565b604051806060016040528060608152602001600073ffffffffffffffffffffffffffffffffffffffff1681526020016000151581525090565b6040518060400160405280600060ff168152602001600060ff1681525090565b6040518060400160405280600063ffffffff168152602001600063ffffffff1681525090565b6040518060a00160405280600063ffffffff168152602001600060ff168152602001600063ffffffff168152602001600063ffffffff168152602001600063ffffffff1681525090565b60405180606001604052806060815260200160608152602001600081525090565b6040518060e00160405280606081526020016060815260200160008152602001600060ff168152602001600063ffffffff16815260200160008152602001600063ffffffff1681525090565b828054611ffd906127dd565b90600052602060002090601f01602090048101928261201f576000855561206d565b82601f10612030578054855561206d565b8280016001018555821561206d57600052602060002091601f016020900482015b8281111561206c578254825591600101919060010190612051565b5b50905061207a919061207e565b5090565b5b8082111561209757600081600090555060010161207f565b5090565b6000604051905090565b600080fd5b600080fd5b600080fd5b600080fd5b6000601f19601f8301169050919050565b7f4e487b7100000000000000000000000000000000000000000000000000000000600052604160045260246000fd5b612102826120b9565b810181811067ffffffffffffffff82111715612121576121206120ca565b5b80604052505050565b600061213461209b565b905061214082826120f9565b919050565b600067ffffffffffffffff8211156121605761215f6120ca565b5b612169826120b9565b9050602081019050919050565b82818337600083830152505050565b600061219861219384612145565b61212a565b9050828152602081018484840111156121b4576121b36120b4565b5b6121bf848285612176565b509392505050565b600082601f8301126121dc576121db6120af565b5b81356121ec848260208601612185565b91505092915050565b600073ffffffffffffffffffffffffffffffffffffffff82169050919050565b6000612220826121f5565b9050919050565b61223081612215565b811461223b57600080fd5b50565b60008135905061224d81612227565b92915050565b6000806040838503121561226a576122696120a5565b5b600083013567ffffffffffffffff811115612288576122876120aa565b5b612294858286016121c7565b92505060206122a58582860161223e565b9150509250929050565b60008115159050919050565b6122c4816122af565b82525050565b60006020820190506122df60008301846122bb565b92915050565b6122ee81612215565b82525050565b600060208201905061230960008301846122e5565b92915050565b600063ffffffff82169050919050565b6123288161230f565b811461233357600080fd5b50565b6000813590506123458161231f565b92915050565b600060ff82169050919050565b6123618161234b565b811461236c57600080fd5b50565b60008135905061237e81612358565b92915050565b600067ffffffffffffffff82111561239f5761239e6120ca565b5b602082029050602081019050919050565b600080fd5b6000819050919050565b6123c8816123b5565b81146123d357600080fd5b50565b6000813590506123e5816123bf565b92915050565b60006123fe6123f984612384565b61212a565b90508083825260208201905060208402830185811115612421576124206123b0565b5b835b8181101561244a578061243688826123d6565b845260208401935050602081019050612423565b5050509392505050565b600082601f830112612469576124686120af565b5b81356124798482602086016123eb565b91505092915050565b6000806000806080858703121561249c5761249b6120a5565b5b60006124aa87828801612336565b94505060206124bb8782880161236f565b93505060406124cc87828801612336565b925050606085013567ffffffffffffffff8111156124ed576124ec6120aa565b5b6124f987828801612454565b91505092959194509250565b60006020828403121561251b5761251a6120a5565b5b60006125298482850161223e565b91505092915050565b600081519050919050565b600082825260208201905092915050565b60005b8381101561256c578082015181840152602081019050612551565b8381111561257b576000848401525b50505050565b600061258c82612532565b612596818561253d565b93506125a681856020860161254e565b6125af816120b9565b840191505092915050565b6125c381612215565b82525050565b6125d2816122af565b82525050565b600060608301600083015184820360008601526125f58282612581565b915050602083015161260a60208601826125ba565b50604083015161261d60408601826125c9565b508091505092915050565b6000602082019050818103600083015261264281846125d8565b905092915050565b600082825260208201905092915050565b7f4f6e6c79207468652070726f636573732063616e20657865637574652074686960008201527f73206f7065726174696f6e000000000000000000000000000000000000000000602082015250565b60006126b7602b8361264a565b91506126c28261265b565b604082019050919050565b600060208201905081810360008301526126e6816126aa565b9050919050565b7f4f6e6c79207468652070726f63657373206f7220746865206170706c6963617460008201527f696f6e2063616e20657865637574652074686973206f7065726174696f6e0000602082015250565b6000612749603e8361264a565b9150612754826126ed565b604082019050919050565b600060208201905081810360008301526127788161273c565b9050919050565b7f4e487b7100000000000000000000000000000000000000000000000000000000600052603260045260246000fd5b7f4e487b7100000000000000000000000000000000000000000000000000000000600052602260045260246000fd5b600060028204905060018216806127f557607f821691505b602082108103612808576128076127ae565b5b50919050565b7f5375636365737366756c20657865637574696f6e210000000000000000000000600082015250565b600061284460158361264a565b915061284f8261280e565b602082019050919050565b6000602082019050818103600083015261287381612837565b9050919050565b7f52657175657374206f7065726174696f6e20706572666f726d6564206f75747360008201527f696465206f6620616c6c6f77656420686f757273206f72206c696d6974206f7060208201527f65726174696f6e20657863656564656400000000000000000000000000000000604082015250565b60006128fc60508361264a565b91506129078261287a565b606082019050919050565b6000602082019050818103600083015261292b816128ef565b9050919050565b7f4f6e6c7920746865206170706c69636174696f6e2063616e206578656375746560008201527f2074686973206f7065726174696f6e0000000000000000000000000000000000602082015250565b600061298e602f8361264a565b915061299982612932565b604082019050919050565b600060208201905081810360008301526129bd81612981565b9050919050565b7f54686520636f6e747261637420697320616c7265616479207369676e65640000600082015250565b60006129fa601e8361264a565b9150612a05826129c4565b602082019050919050565b60006020820190508181036000830152612a29816129ed565b9050919050565b7f546865205f7374617274446179206e6f7420726570726573656e74732061207660008201527f616c696420646179000000000000000000000000000000000000000000000000602082015250565b6000612a8c60288361264a565b9150612a9782612a30565b604082019050919050565b60006020820190508181036000830152612abb81612a7f565b9050919050565b7f546865205f656e64446179206e6f7420726570726573656e747320612076616c60008201527f6964206461790000000000000000000000000000000000000000000000000000602082015250565b6000612b1e60268361264a565b9150612b2982612ac2565b604082019050919050565b60006020820190508181036000830152612b4d81612b11565b9050919050565b6000819050919050565b7f4e487b7100000000000000000000000000000000000000000000000000000000600052601160045260246000fd5b6000612b9882612b54565b9150612ba383612b54565b925082821015612bb657612bb5612b5e565b5b828203905092915050565b7f436f6d70617269736f6e2073796d626f6c206973206e6f742076616c69640000600082015250565b6000612bf7601e8361264a565b9150612c0282612bc1565b602082019050919050565b60006020820190508181036000830152612c2681612bea565b9050919050565b7f54686520726573756c74206f66207468652078706174682073686f756c64206260008201527f65206d6f7265207468616e203000000000000000000000000000000000000000602082015250565b6000612c89602d8361264a565b9150612c9482612c2d565b604082019050919050565b60006020820190508181036000830152612cb881612c7c565b9050919050565b600081905092915050565b7f596f752068617665206f6e6c7920000000000000000000000000000000000000600082015250565b6000612d00600e83612cbf565b9150612d0b82612cca565b600e82019050919050565b6000612d2182612532565b612d2b8185612cbf565b9350612d3b81856020860161254e565b80840191505092915050565b7f2066726f6d200000000000000000000000000000000000000000000000000000600082015250565b6000612d7d600683612cbf565b9150612d8882612d47565b600682019050919050565b7f2072657374696e672c20616e6420746865206d65737361676520636f6e74657460008201527f20787061746820726573756c7420697320000000000000000000000000000000602082015250565b6000612def603183612cbf565b9150612dfa82612d93565b603182019050919050565b6000612e1082612cf3565b9150612e1c8286612d16565b9150612e2782612d70565b9150612e338285612d16565b9150612e3e82612de2565b9150612e4a8284612d16565b9150819050949350505050565b6000612e6282612532565b612e6c818561264a565b9350612e7c81856020860161254e565b612e85816120b9565b840191505092915050565b60006020820190508181036000830152612eaa8184612e57565b905092915050565b7f546865206d6574686f642067657454696d65496e5365636f6e647320646f657360008201527f6e277420776f726b20666f72204d4f4e544820616e6420594541520000000000602082015250565b6000612f0e603b8361264a565b9150612f1982612eb2565b604082019050919050565b60006020820190508181036000830152612f3d81612f01565b9050919050565b6000612f4f82612b54565b9150612f5a83612b54565b9250827fffffffffffffffffffffffffffffffffffffffffffffffffffffffffffffffff03821115612f8f57612f8e612b5e565b5b828201905092915050565b6000612fa582612b54565b91507fffffffffffffffffffffffffffffffffffffffffffffffffffffffffffffffff8203612fd757612fd6612b5e565b5b600182019050919050565b7f4e487b7100000000000000000000000000000000000000000000000000000000600052601260045260246000fd5b600061301c82612b54565b915061302783612b54565b92508261303757613036612fe2565b5b828204905092915050565b600061304d82612b54565b915061305883612b54565b92508261306857613067612fe2565b5b828206905092915050565b600061307e8261230f565b91506130898361230f565b92508263ffffffff038211156130a2576130a1612b5e565b5b828201905092915050565b60006130b88261230f565b91506130c38361230f565b92508163ffffffff04831182151516156130e0576130df612b5e565b5b828202905092915050565b60006130f68261230f565b91506131018361230f565b92508261311157613110612fe2565b5b828204905092915050565b60006131278261230f565b91506131328361230f565b92508282101561314557613144612b5e565b5b828203905092915050565b600061315b8261230f565b91506131668361230f565b92508261317657613175612fe2565b5b82820690509291505056fea2646970667358221220066bb3d48938a2a86e5e41616d1a8177305b2ae7747ed1d54dd8eeb04f88682a64736f6c634300080d0033636f756e74282f2f626f64792f7065726f736f6e616c496e666f726d6174696f6e2f616464726573732f63657029",
  "immutableReferences": {},
  "source": "//SPDX-License-Identifier: MIT\r\npragma solidity >0.8.4 < 0.8.14;\r\n\r\nimport \"../../lib/eai/EAI.sol\";\r\n\r\ncontract DeliveryHiring_R{\r\n\t\r\n    /* ==================================  BEGIN  ======================================== */\r\n    /* ============================ CODES FOR ALL CONTRACTS ============================== */\r\n \r\n    using EAI for EAI.Party;\r\n   \r\n\r\n    EAI.Party process;\r\n    EAI.Party application;\r\n    mapping(address=>EAI.Party) mapParty;\r\n\r\n    uint32 beginDate; \r\n\tuint32 dueDate; \t\r\n\r\n    event failEvent(string _logMessage);\r\n    event successEvent(string _logMessage);\r\n\r\n   /* --------------------------------   END   ------------------------------------------ */\r\n\r\n\r\n\r\n\r\n    /* ==================================  BEGIN  ======================================= */\r\n    /* =================== CODES GENERATED BASED IN JABUTI CONTRACT ===================== */\r\n    \r\n\r\n    // ------------------ Automated code generation - 1 step ------------------ \r\n    using EAI for EAI.WeekDaysInterval;\r\n    using EAI for EAI.TimeInterval;\r\n    using EAI for EAI.MaxNumberOfOperation;\r\n    using EAI for EAI.MessageContent_Number;\r\n    using EAI for EAI.MessageContent_NumberPerTime;\r\n\r\n\r\n    // ------------------ Automated code generation - 2 step ------------------ \r\n    string numberOfAddresses = \"count(//body/perosonalInformation/address/cep)\";\r\n\r\n    // ------------------ Automated code generation - 3 step ------------------ \r\n \tEAI.WeekDaysInterval[]  weekDaysInterval; \t\r\n\tEAI.TimeInterval[] timeInterval;\r\n    EAI.MaxNumberOfOperationByTime[] maxNumberOfOperationByTime;\r\n    EAI.MessageContent_Number[] msgContent_number;\r\n    EAI.MessageContent_NumberPerTime[] msgContent_numberPerTime;\r\n\r\n    // ------------------ Automated code generation - 4 step ------------------ \r\n\tconstructor(address _applicationWallet){\r\n\t \tbeginDate = 1672561800;\r\n\t    dueDate = 1704097800;\r\n         \r\n        process = EAI.createParty(\"Integration Process\", msg.sender, true);\r\n\t    application = EAI.createParty(\"Delivery System\", _applicationWallet, false);        \r\n        mapParty[msg.sender] = process;\r\n        mapParty[_applicationWallet] = application;\r\n\r\n        // ------------------ Automated code generation - 5 step ------------------ \r\n        weekDaysInterval.push(EAI.createWeekDaysInterval(EAI.MONDAY, EAI.FRIDAY));\r\n        timeInterval.push(EAI.createTimeInterval(30600,66600)); //TimeInterval(\"08:30:00\" to \"18:30:00\")\r\n        maxNumberOfOperationByTime.push(EAI.createMaxNumberOfOperationByTime(5, EAI.DAY));\r\n\t\tmsgContent_number.push(EAI.createMessageContent(numberOfAddresses, \">=\", 1));        \r\n        msgContent_number.push(EAI.createMessageContent(numberOfAddresses, \"<=\", 3));        \r\n        msgContent_numberPerTime.push(EAI.createMessageContent_NumberPerTime(numberOfAddresses, \"<=\", 1000, EAI.MONTH));\r\n\r\n\t}\r\n\t\r\n    // ------------------ Automated code generation - 6 step ------------------ \r\n    // - translate clauses to functions\r\n\r\n    function right_requestDelivery(\r\n        uint32 _accessDateTime, \r\n        uint8 _weekDay, \r\n        uint32 _hourOfDay, \r\n        int256[] memory _resultFromXpath\r\n        ) public onlyProcess() returns(bool){\r\n\r\n        weekDaysInterval[0].getOneWeekDaysInterval();\r\n\r\n        if(weekDaysInterval[0].isIntoWeekDaysInterval(_weekDay) &&\r\n           timeInterval[0].isIntoTimeInterval(_hourOfDay) &&\r\n           msgContent_number[0].evaluateNumberContent(_resultFromXpath[0]) &&\r\n           msgContent_number[1].evaluateNumberContent(_resultFromXpath[0]) &&\r\n           msgContent_numberPerTime[0].evaluateAndDecreaseNumberPerTime(_accessDateTime, uint256(_resultFromXpath[0]))\r\n        ){\r\n            emit successEvent(\"Successful execution!\");\r\n            return true;\r\n        }    \r\n\t   \temit failEvent(\"Request operation performed outside of allowed hours or limit operation exceeded\");\r\n\t\treturn false;\r\n    }\r\n    \r\n    \r\n   \r\n    /* ================== CODES GENERATED BASED IN JABUTI CONTRACT ======================= */\r\n    /* --------------------------------   END   ------------------------------------------ */\r\n\r\n\r\n\r\n\r\n\r\n\r\n\r\n\r\n    /* =================================================================================== */\r\n    /* ============================ CODES FOR ALL CONTRACTS ============================== */\r\n    \r\n    /* the process sign the contract by default, the function signContract \r\n    is used to get the applicationParty signature*/      \r\n    function signContract() public onlyApplication() returns(bool){\r\n        require(application.aware == false, \"The contract is already signed\");        \r\n        application.aware = true;  \r\n        updateMapParty(msg.sender, application);\r\n\t\treturn true;\r\n    }\r\n\r\n    function updateMapParty(address _walletAddress, EAI.Party storage _party)internal returns(bool){       \r\n        mapParty[_walletAddress] = _party;\r\n\t\treturn true;\r\n    }\r\n    \r\n    /* It only possible to change the name and the address of the party. \r\n    After change the  party, the new party need to sign the contract */\r\n    function changeApplicationParty(string memory _name, address _walletAddress) public returns(bool) {       \r\n        require(process.walletAddress == msg.sender, \"Only the process can execute this operation\");\r\n        delete mapParty[application.walletAddress];\r\n        application = EAI.createParty(_name, _walletAddress, false);          \r\n        updateMapParty(_walletAddress, application);\r\n        return true;       \r\n    }\r\n    \r\n    function getProcessAddress() public view onlyInvolvedParties returns(address){\r\n        return process.walletAddress;\r\n    }\r\n    \r\n    function getApplicationAddress() public view onlyInvolvedParties returns(address){\r\n        return application.walletAddress;\r\n    }\r\n\r\n    function getParty(address _walletAddress) public view onlyInvolvedParties returns(EAI.Party memory){\r\n        return mapParty[_walletAddress];\r\n    }\r\n\r\n    /* =================================================================================== */\r\n    /* ==================================== MODIFIERS ==================================== */\r\n    /* ----------------------------------------------------------------------------------- */\r\n    \r\n    modifier onlyApplication(){\r\n        require(application.walletAddress == msg.sender, \"Only the application can execute this operation\");\r\n        _;\r\n    }\r\n\r\n    modifier onlyProcess(){\r\n        require(process.walletAddress == msg.sender, \"Only the process can execute this operation\");\r\n        _;\r\n    }\r\n\r\n    modifier onlyInvolvedParties(){\r\n        require(\r\n            (application.walletAddress == msg.sender || process.walletAddress == msg.sender ) ,\r\n            \"Only the process or the application can execute this operation\");\r\n        _;\r\n    }\r\n\r\n    /* ============================ CODES FOR ALL CONTRACTS ============================== */\r\n    /* ----------------------------------   END   ---------------------------------------- */\r\n}",
  "sourcePath": "C:\\git-repository\\dsl-smart-contract-eai\\02-models\\ProofOfConcept\\contracts\\study-case-contracts\\001-delivery-hiring\\DeliveryHiring_R.sol",
  "compiler": {
    "name": "solc",
    "version": "0.8.13+commit.abaa5c0e.Emscripten.clang"
  },
  "schemaVersion": "3.4.11",
  "updatedAt": "2023-02-10T18:01:27.156Z",
  "devdoc": {
    "kind": "dev",
    "methods": {},
    "version": 1
  },
  "userdoc": {
    "kind": "user",
    "methods": {},
    "version": 1
  }
}