{
  "contractName": "EAI",
  "abi": [
    {
      "inputs": [
        {
          "internalType": "string",
          "name": "str",
          "type": "string"
        }
      ],
      "name": "isNumber",
      "outputs": [
        {
          "internalType": "bool",
          "name": "",
          "type": "bool"
        }
      ],
      "stateMutability": "pure",
      "type": "function"
    }
  ],
  "bytecode": "0x610330610053600b82828239805160001a607314610046577f4e487b7100000000000000000000000000000000000000000000000000000000600052600060045260246000fd5b30600052607381538281f3fe73000000000000000000000000000000000000000030146080604052600436106100355760003560e01c8063e18a89cf1461003a575b600080fd5b610054600480360381019061004f919061024c565b61006a565b60405161006191906102b0565b60405180910390f35b60008082600081518110610081576100806102cb565b5b602001015160f81c60f81b9050603060f81b817effffffffffffffffffffffffffffffffffffffffffffffffffffffffffffff1916101580156100ea5750603960f81b817effffffffffffffffffffffffffffffffffffffffffffffffffffffffffffff191611155b915050919050565b6000604051905090565b600080fd5b600080fd5b600080fd5b600080fd5b6000601f19601f8301169050919050565b7f4e487b7100000000000000000000000000000000000000000000000000000000600052604160045260246000fd5b61015982610110565b810181811067ffffffffffffffff8211171561017857610177610121565b5b80604052505050565b600061018b6100f2565b90506101978282610150565b919050565b600067ffffffffffffffff8211156101b7576101b6610121565b5b6101c082610110565b9050602081019050919050565b82818337600083830152505050565b60006101ef6101ea8461019c565b610181565b90508281526020810184848401111561020b5761020a61010b565b5b6102168482856101cd565b509392505050565b600082601f83011261023357610232610106565b5b81356102438482602086016101dc565b91505092915050565b600060208284031215610262576102616100fc565b5b600082013567ffffffffffffffff8111156102805761027f610101565b5b61028c8482850161021e565b91505092915050565b60008115159050919050565b6102aa81610295565b82525050565b60006020820190506102c560008301846102a1565b92915050565b7f4e487b7100000000000000000000000000000000000000000000000000000000600052603260045260246000fdfea26469706673582212202013c0d0823e208a4e02c3f0a696d38aa0c60eed8f0d67b5d8816c7153faab6964736f6c634300080d0033",
  "immutableReferences": {},
  "source": "\n//SPDX-License-Identifier: MIT\npragma solidity >0.8.4 < 0.8.14;\n\n\n// pragma experimental 'ABIEncoderV2';\n\nlibrary EAI{    \n    \n/* ========================================================================== */\n/*                                   CONSTANTS                                */\n/* -------------------------------------------------------------------------- */\n\n    // weekdays\n\n    uint8 constant SUNDAY=0;\n    uint8 constant MONDAY=1;\n    uint8 constant TUESDAY=2;\n    uint8 constant WEDNESDAY=3;\n    uint8 constant THURSDAY=4;\n    uint8 constant FRIDAY=5;\n    uint8 constant SATURDAY=6;\n\n    // time\n    uint8 constant SECOND = 0;\n    uint8 constant MINUTE = 1;\n    uint8 constant HOUR= 2;\n    uint8 constant DAY= 3;\n    uint8 constant WEEK= 4;\n    uint8 constant MONTH= 5;\n    uint8 constant YEAR= 6;\n\n    // Interval in seconds between the min and max hour \n    // allowed to use in a contract(0 to 23:59:59)\n    uint32 constant MIN_HOUR = 0;\n    uint32 constant MAX_HOUR= 86399; \n\n    uint32 constant SECONDS_PER_DAY = 24*60*60;\n    uint32 constant OFFSET19700101 = 2440588; // off,,set copiado da lib date... verificar o valor ...\n    uint32 constant OFFSETWEEK = 259200; \n/* ========================================================================== */\n/*                                     PARTY                                  */\n/* ========================================================================== */\n  \n       struct Party{\n        string name;\n        address walletAddress;\n        bool aware;\n    }\n\n    function createParty(string memory _name, address _walletAddress, bool _aware) internal pure returns(Party memory){\n        return Party(_name, _walletAddress, _aware);\n    }\n    \n    // function getParty(Party memory _party) internal pure returns(Party memory){\n    //     return _party;\n    // }\n\n    function setPartyName(Party storage _party, string memory _name) internal {\n        _party.name = _name;\n    }\n\n    // if the address is change, then da new party need to sign the contract \n    function setPartyAddress(Party storage _party, address _walletAddress) internal {\n        _party.walletAddress = _walletAddress;\n        _party.aware = false;\n    }\n\n    function becomeAware(Party storage _party) internal{\n        _party.aware = true;\n    }\n\n\n/* ========================================================================== */\n/*                             WEEK_DAYS_INTERVAL                     */\n/* ========================================================================== */\n  \n    struct  WeekDaysInterval{\n        uint8 start;\n        uint8 end;\n    } \n\n    function createWeekDaysInterval(\n        uint8 _start, \n        uint8 _end\n        ) internal pure onlyValidDays(_start, _end) returns ( WeekDaysInterval memory){\n        return WeekDaysInterval(_start, _end);\n    } \n\n    function setWeekDayInterval( \n        WeekDaysInterval storage _wdi,\n        uint8 _start,\n        uint8 _end\n        ) internal onlyValidDays(_start, _end){\n        _wdi.start= _start;\n        _wdi.end = _end;     \n    }\n\n    function getOneWeekDaysInterval( WeekDaysInterval memory _wdi )internal pure returns(uint8 start, uint8 end){\n            return (_wdi.start, _wdi.end);\n    }\n\n    function getAllWeekDaysIntervals(WeekDaysInterval[] memory _wdi) internal pure returns(WeekDaysInterval[] memory) {\n        return _wdi;     \n    }\n\n\n   // check into a set of weekDaysIntervals\n   function isIntoWeekDaysIntervals(\n    uint8 _weekDay, \n    WeekDaysInterval [] memory _wdInterval\n    ) internal pure onlyValidDay(_weekDay) returns(bool){\n        // bool flagReturn = false;\n        uint vLength = _wdInterval.length;\n        for(uint i=0; i<vLength; i++){\n            //    flagReturn = isIntoWeekDaysInterval(_weekDay, _wdInterval[i]); \n               if(isIntoWeekDaysInterval(_weekDay, _wdInterval[i])){                \n                return true; \n               }\n        }\n        return false; \n    }\n\n    // check into one weekDaysInterval\n    function isIntoWeekDaysInterval(\n        uint8 _weekDayAccess,\n        WeekDaysInterval memory _wdInterval\n        ) internal pure returns(bool){\n       \n        if(_wdInterval.start < _wdInterval.end ){\n                if(_weekDayAccess >= _wdInterval.start &&  _weekDayAccess<= _wdInterval.end){\n                return true;\n            }\n        }else{\n             if(_weekDayAccess >= _wdInterval.start ||  _weekDayAccess<=_wdInterval.end){\n                return true;\n            }   \n        }        \n       return false;\n   }\n\n   /* ---------------------- modifiers from the weekDaysInterval ----------- */ \n    modifier onlyValidDays(uint8 _startDay, uint8 _endDay) {\n        require( _startDay >= SUNDAY && _startDay <= SATURDAY, \"The _startDay not represents a valid day\");\n        require(_endDay >= SUNDAY && _endDay <= SATURDAY,  \"The _endDay not represents a valid day\");\n        _;\n    }\n    \n    modifier onlyValidDay(uint8 _day) {\n        require((_day >= SUNDAY && _day <= SATURDAY), \"The given number/day not represents a valid day\");\n        _;\n    }\n\n\n/* ========================================================================== */\n/*                                    TIME INTERVAL                            */\n/* ========================================================================== */\n    // the hours are storage in milliseconds\n    struct  TimeInterval{\n        uint32 start;\n        uint32 end;\n    } \n\n    function createTimeInterval(\n        uint32 _start, \n        uint32 _end\n        ) internal pure onlyValidHours(_start, _end) returns ( TimeInterval memory){\n        return TimeInterval(_start, _end);\n    } \n\n    function setTimeInterval( \n        TimeInterval storage _ti,\n        uint32 _start,\n        uint32 _end\n        ) internal onlyValidHours(_start, _end){\n        _ti.start= _start;\n        _ti.end = _end;     \n    }\n\n    function getOneTimeInterval( TimeInterval memory _ti )internal pure returns(uint32 start, uint32 end){\n            return (_ti.start, _ti.end);\n    }\n    \n    function getAllTimeIntervals(TimeInterval[] memory _ti) internal pure returns(TimeInterval[] memory){\n        return _ti;\n    }\n\n   // check into a set of TimeIntervals\n   function isIntoTimeIntervals(\n    uint32 _timeAccess, \n    TimeInterval [] memory _ti\n    ) internal pure  onlyValidHour(_timeAccess)returns(bool){\n        uint vLength = _ti.length;\n        for(uint i=0; i<vLength; i++){\n               if(isIntoTimeInterval(_timeAccess, _ti[i])){                \n                return true; \n               }\n        }\n        return false; \n    }\n\n    // check into one weekDaysInterval\n    function isIntoTimeInterval(\n        uint32 _timeAccess,\n        TimeInterval memory _ti\n        ) internal pure returns(bool){\n       \n        if(_ti.start < _ti.end ){\n                if(_timeAccess >= _ti.start &&  _timeAccess <= _ti.end){\n                return true;\n            }\n        }else{\n             if(_timeAccess >= _ti.start ||  _timeAccess <=_ti.end){\n                return true;\n            }   \n        }        \n       return false;\n   }\n\n   /* ---------------------- modifiers from the weekDaysInterval ----------- */ \n    modifier onlyValidHours(uint32 _startHr, uint32 _endHr) {\n        require( _startHr >= MIN_HOUR && _startHr <= MAX_HOUR, \"The _startDay not represents a valid day\");\n        require(_endHr >= MIN_HOUR && _endHr <= MAX_HOUR,  \"The _endDay not represents a valid day\");\n        _;\n    }\n    \n    modifier onlyValidHour(uint32 _hour) {\n        require((_hour >= MIN_HOUR && _hour <= MAX_HOUR), \"The given number/day not represents a valid day\");\n        _;\n    }\n\n/* ========================================================================== */\n/*                                    TIME OUT                                */\n/* ========================================================================== */\n    struct Timeout{\n        uint32 endTime;\n        uint32 timeIncrement;\n    }\n\n    function createTimeout(uint32 _timeIncrement) internal pure returns (Timeout memory ){\n        return Timeout(0, _timeIncrement);\n    }\n    \n    function isTimeoutEnded(Timeout memory _timeout, uint32 _accessTime) internal pure onlyValidAccessTime(_accessTime) returns(bool){        \n        require(_timeout.endTime > 0, \"There is no endTime set in timeout\");\n        return _accessTime > _timeout.endTime;\n    }\n\n    function setEndTimeInTimeout(Timeout storage _timeout, uint32 _startTime)internal onlyValidAccessTime(_startTime){      \n        _timeout.endTime = _startTime + _timeout.timeIncrement; \n    }\n\n   /* ---------------------- modifiers from the Timeout ----------- */ \n\n    modifier onlyValidAccessTime(uint32 _time){\n        string memory strTime  = uint2String(_time);\n        require(bytes(strTime).length <= 10);// epoch time in seconds\n        _;\n    }\n\n\n/* ========================================================================== */\n/*                             MAX NUMBER OF OPERATION                        */\n/* ========================================================================== */\n\n    struct MaxNumberOfOperation{\n        uint32 amount;\n        uint32 rest;\n    }\n\n    function createMaxNumberOfOperation(uint32 _amount) internal pure returns(MaxNumberOfOperation memory){\n        return MaxNumberOfOperation(_amount, _amount);// the rest will start with the same _amount value\n    }\n\n    function decreaseNumberOfOperation(\n            MaxNumberOfOperation storage _maxNumberOfOperation\n        ) internal restMustBeGreaterThanZero(_maxNumberOfOperation.rest) {\n        _maxNumberOfOperation.rest -=1; \n    }\n\n    /* ------------ modifiers from the  MAX NUMBER OF OPERATION AND OPERATION BY TIME ----------- */ \n\n    modifier restMustBeGreaterThanZero(uint32 _rest){\n        require(_rest > 0, \"There are no operations available\");\n        _;\n    }\n\n\n/* ========================================================================== */\n/*                      MAX NUMBER OF OPERATION BY TIME                       */\n/* ========================================================================== */\n\n    struct MaxNumberOfOperationByTime{\n        uint32 amount;\n        uint8 timeUnit;\n        uint32 byTime;\n        uint32 rest;\n        uint32 endTime;\n    }\n\n    function createMaxNumberOfOperationByTime(\n        uint32 _amount,\n        uint8 _timeUnit\n        )internal pure returns(MaxNumberOfOperationByTime memory){\n\n        uint32 auxByTime;\n\n        if(_timeUnit <= WEEK){\n            // for value equal a week or less, will be used the time in seconds to increase the endTime \n            auxByTime= getTimeInSeconds(_timeUnit);\n        }else{\n            // for values equal to year or month will be used the unit 1 to increase the endTime \n            auxByTime = 1; \n        }\n        return MaxNumberOfOperationByTime(_amount, _timeUnit, auxByTime, _amount, 0);\n    }\n\n\n    function decreaseNumberOfOperationByTime(\n        MaxNumberOfOperationByTime storage _maxNumberOfOperationByTime,\n        uint32 _accessDateTime\n        )internal  {\n            if(isAccessDatetimeOutOfOldInterval(_maxNumberOfOperationByTime.timeUnit, _maxNumberOfOperationByTime.endTime, _accessDateTime)){\n                setNewEndTimeAndRestOfOperations(_maxNumberOfOperationByTime, _accessDateTime);\n            }\n            require(_maxNumberOfOperationByTime.rest > 0, \"There are no operations available\");\n             _maxNumberOfOperationByTime.rest -=1;\n    }\n\n\n    function setNewEndTimeAndRestOfOperations(\n        MaxNumberOfOperationByTime storage _maxNumberOfOperationByTime,\n        uint32 _accessDateTime\n        ) private {\n        _maxNumberOfOperationByTime.rest = _maxNumberOfOperationByTime.amount;\n        _maxNumberOfOperationByTime.endTime = calcNextEndTime(\n                                                _maxNumberOfOperationByTime.byTime,\n                                                _maxNumberOfOperationByTime.timeUnit,\n                                                _accessDateTime\n                                                );\n    }\n\n\n\n/* ========================================================================== */\n/*                            MESSAGE CONTENT ONLY XPATH                      */\n/* ========================================================================== */\n\n    struct MessageContent_onlyXPath{\n        string xpath;        \n    }\n\n    function createMessageContent_onlyXPath(string memory _xpath) internal pure returns(MessageContent_onlyXPath memory){\n        return MessageContent_onlyXPath(_xpath);\n    }\n\n/* ========================================================================== */\n/*                              MESSAGE CONTENT STRING                        */\n/* ========================================================================== */\n\n    struct MessageContent_String{\n        string xpath;\n        string op; // comparison operator\n        string content;      \n    }\n\n    function createMessageContent(string memory _xpath, string memory _op, string memory _content ) internal pure returns(MessageContent_String memory){\n        bytes1 char = bytes(_op)[0];\n        require((char == 0x21 || char == 0x3D) ,\"Only '!=' or '==' operators is allow to compare strings\");\n        return MessageContent_String(_xpath, _op, _content); \n    }\n\n    function evaluateStringContent(MessageContent_String memory msgContent, string memory _value) internal pure returns(bool){       \n        if( bytes(msgContent.op)[0] == 0x21){ // if msgContent.op start with '!' enter:\n            if (keccak256(abi.encodePacked(_value)) != keccak256(abi.encodePacked(msgContent.content)) ) {\n                return true;\n            }            \n        }else{ // else if msgContent.op don't start with '!' enter:\n            if (keccak256(abi.encodePacked(_value)) == keccak256(abi.encodePacked(msgContent.content)) ) {\n                return true;\n            }\n        }\n        return false;\n    }\n\n\n/* ========================================================================== */\n/*                              MESSAGE CONTENT NUMBER                        */\n/* ========================================================================== */\n\n    struct MessageContent_Number{\n        string xpath;\n        string op; // comparison operator\n        int256 content;      \n    }\n\n    function createMessageContent(string memory _xpath, string memory _op, int256 _content ) internal pure returns(MessageContent_Number memory){        \n        return MessageContent_Number(_xpath, _op, _content); \n    }\n\n    function evaluateNumberContent(MessageContent_Number memory msgContent, int256 _content) internal pure returns(bool){\n        bytes memory chars = bytes(msgContent.op);\n\n        if( chars[0] ==  0x21 ){// if chars[0] is '!'\n            return _content != msgContent.content;\n       \n        }else if( chars[0] == 0x3D ){ // if chars[0] is '='\n            return _content == msgContent.content;\n        \n        }else if( chars[0] == 0x3C ){// if chars[0] is '<'\n            if(chars.length == 2){// if chars is '<='                \n                return _content <= msgContent.content;               \n            }else{\n                return _content < msgContent.content;\n            }    \n        }else if( chars[0] == 0x3E ){ // if( chars[0] == 0x3E ){// if chars[0] is '>'\n             if(chars.length == 2){// if chars is '>='              \n                return _content >= msgContent.content;                \n            }else{               \n                return _content > msgContent.content;                \n            }\n        }\n        \n       \n        \n        require(false, \"Comparison symbol is not valid\");\n        return false;\n        // 0x21 : !\n        // 0x3D : =\n        // 0x3C : <\n        // 0x3E : >\n\n    }\n\n\n\n/* ========================================================================== */\n/*                           MESSAGE CONTENT  PER TIME                        */\n/* ========================================================================== */\n\n    struct MessageContent_NumberPerTime{\n        string xpath;\n        string op; // // the comparison operator (op) will receive only '<' or '<='\n        uint32 amount;\n        uint8 timeUnit;\n        uint32 byTime;\n        uint32 rest;\n        uint32 endTime;\n    }\n\n    function createMessageContent_NumberPerTime(\n        string memory _xpath,\n        string memory _op, \n        uint32 _amount,\n        uint8 _timeUnit\n        )internal pure returns(MessageContent_NumberPerTime memory){\n\n        uint32 auxByTime;\n\n        if(_timeUnit <= WEEK){\n            // for value equal a week or less, will be used the time in seconds to increase the endTime \n            auxByTime= getTimeInSeconds(_timeUnit);\n        }else{\n            // for values equal to year or month will be used the unit 1 to increase the endTime \n            auxByTime = 1; \n        }\n\n        if(bytes(_op).length==1){\n            _op = \"<=\";\n            _amount = (_amount-1);\n        }\n\n        return MessageContent_NumberPerTime(_xpath, _op, _amount, _timeUnit, auxByTime, _amount, 0);\n    }\n\n\n    // cath da value from message content and decrease from the amount\n    function decreaseNumberPerTime(\n        MessageContent_NumberPerTime storage msgContent_NumberPerTime,\n        uint32 _accessDateTime,\n        uint32 _content\n        )internal  {\n            require(_content>0, \"The result of the xpath should be more than 0\");\n            if(isAccessDatetimeOutOfOldInterval(msgContent_NumberPerTime.timeUnit, msgContent_NumberPerTime.endTime, _accessDateTime)){\n                msgContent_NumberPerTime.rest = msgContent_NumberPerTime.amount;\n                msgContent_NumberPerTime.endTime = calcNextEndTime(\n                                                msgContent_NumberPerTime.byTime,\n                                                msgContent_NumberPerTime.timeUnit,\n                                                _accessDateTime\n                                                );\n            }\n            \n            string memory revertMessage =  string(abi.encodePacked(\n                \"You have only \", uint2String(msgContent_NumberPerTime.rest), \n                \" from \", uint2String(msgContent_NumberPerTime.amount),\" resting, and the message contet xpath result is \", uint2String(_content)));\n            \n            // the comparison opraton operator (op) always will be  '<' or '<='\n            // bytes memory chars = bytes(msgContent_NumberPerTime.op);\n            // if(chars.length == 2){// if chars is '<='                                    \n            //     require(_content <= msgContent_NumberPerTime.rest, revertMessage);         \n            // }else{\n            //     require(_content < msgContent_NumberPerTime.rest, revertMessage);   \n            // }   \n            // the block 'if' is not necessary, because the operator '<' was replaced for '<=' in \n            // createMessageContent_NumberPerTime method, and the amount was decreased in 1 unit\n             require(_content <= msgContent_NumberPerTime.rest, revertMessage);         \n\n                   \n            msgContent_NumberPerTime.rest -= _content;\n    }\n\n    // function setNewEndTimeAndRestFromAmout(\n    //     MessageContent_NumberPerTime storage msgContent_NumberPerTime,\n    //     uint32 _accessDateTime\n    //     ) private {\n    //     msgContent_NumberPerTime.rest = msgContent_NumberPerTime.amount;\n    //     msgContent_NumberPerTime.endTime = calcNextEndTime(\n    //                                             msgContent_NumberPerTime.byTime,\n    //                                             msgContent_NumberPerTime.timeUnit,\n    //                                             _accessDateTime\n    //                                             );\n    // }\n\n\n/* ========================================================================== */\n/*                      SESSION INTERVAL SINGLE                     */\n/* ========================================================================== */\n    // the session interval accept only from SECOND to WEEK timeUnit\n    struct SessionInterval{\n        uint8 duration;\n        uint8 timeUnit;   \n        uint32 durationInSeconds;// durantionInSeconds is used only for timeUnit: second, minute, hour, day and week. For timeUnit month and year, this variable will be 0 (not used)\n        uint32 endTime;        \n    }\n\n    function createSessionInteval(uint8 _duration, uint8 _timeUnit)internal pure returns (SessionInterval memory){\n        uint32 _durationInSeconds = 0;\n        if(_timeUnit <= WEEK){\n            _durationInSeconds = getIntervalInSeconds(_duration, _timeUnit);\n        }\n        return SessionInterval(_duration, _timeUnit, _durationInSeconds, 0);\n    }\n\n\n    // function createSessionInterval_Copy(SessionInterval memory _session) internal pure returns(SessionInterval memory){\n    //     return SessionInterval(_session.duration, _session.timeUnit, _session.durationInSeconds, _session.endTime);\n    // }\n\n    function isItOpen(SessionInterval memory _session, uint32 _accessDateTime) internal  pure returns(string memory){        \n        if ((_session.endTime == 0) || (_accessDateTime >= _session.endTime)){         \n            return \"CLOSED\";\n        }        \n        return \"OPEN\";        \n    }\n\n    // a new section will be create just if the end time is equal '0' or if the _accessDateTime was bigger than the current endTime\n    function startNewSessionInterval(SessionInterval storage _session, uint32 _accessDateTime)internal{       \n        if ((_session.endTime == 0) || (_accessDateTime >= _session.endTime)){         \n           _session.endTime = _accessDateTime + _session.durationInSeconds;\n        } \n        //  else {\n        //     require(false, \"This section is open\" );\n        // }             \n    }\n\n/* ========================================================================== */\n/*                                   UTILITIES                                */\n/* ========================================================================== */\n\n\n\n// --------- FUNCTIONS TO WORK WITH TIME AND DATES ---------\n   \n    // identificar se um novo periodo iniciou para redefinir a propriedade byTime e o rest.\n    function isAccessDatetimeOutOfOldInterval(uint8 _timeUnit, uint32 _endTime, \n        uint32 _accessDateTime\n        ) internal pure returns(bool) {\n        \n        uint8 timeUnit = _timeUnit;\n        if(timeUnit <= WEEK){\n            return _accessDateTime >= _endTime;\n        } else if(timeUnit == MONTH) {            \n            (,uint32 month,) = timeStampToDate(_accessDateTime);    \n            if((_endTime == 13) && (month==1)){\n                return true;\n            }        \n            return month >= _endTime;\n        }\n        // else timeUnit == YEAR \n        (uint32 year, ,) = timeStampToDate(_accessDateTime);\n        return year >= _endTime;\n    }\n\n    function calcNextEndTime(       \n        uint32 _timeInterval,\n        uint8 _timeUnit,\n        uint32 _accessDateTime\n        ) private pure returns(uint32){\n        \n        if (_timeUnit <= WEEK) {\n            return calcNextEndTimeForSecMinHrDayOrWeek(\n                _timeUnit, \n                _accessDateTime, \n                _timeInterval);\n        }else if(_timeUnit == MONTH){\n            (,uint currentMonth,) = timeStampToDate(_accessDateTime); \n             return uint32(currentMonth+1);\n        }else{      \n            (uint year,,) = timeStampToDate(_accessDateTime);\n            return uint32(year + 1);\n        }\n    }\n    \n    function calcNextEndTimeForSecMinHrDayOrWeek(\n        uint8 _timeUnit,\n        uint32 _accessDateTime,\n        uint32 _timeInterval\n        ) private pure returns (uint32){\n\n        uint32 mod =  uint32(_accessDateTime % _timeInterval);\n        uint32 timeToNextEndTime  = _timeInterval - mod;            \n        \n        if(_timeUnit == WEEK){\n            return _accessDateTime + timeToNextEndTime + OFFSETWEEK;\n        }\n\n        return _accessDateTime + timeToNextEndTime;\n    }\n\n    \n    function getTimeInSeconds(uint8 timeUnit) private pure returns(uint32){\n        // seconds, // minute // hour // day // week\n        require(timeUnit <= WEEK, \"The method getTimeInSeconds doesn't work for MONTH and YEAR\");\n\n        if(timeUnit == SECOND){\n            return 1;\n        }else if(timeUnit == MINUTE){\n            return 60;\n        }else if(timeUnit == HOUR ){\n            return 60*60;\n        }else if(timeUnit == DAY){\n            return 60*60*24;\n        }else {\n           return 60*60*24*7; //WEEK\n        }\n    }\n        \n    function getIntervalInSeconds(uint32 _duration, uint8 _timeUnit)internal pure returns(uint32){\n       uint32 timeUnitInSeconds =  getTimeInSeconds(_timeUnit);\n       return _duration * timeUnitInSeconds;\n    }\n\n    function timeStampToDate(uint _timestamp) internal pure returns (uint32 year, uint32 month, uint32 day) {\n       \n        uint32 __days = uint32(_timestamp / SECONDS_PER_DAY);\n\n        uint32 L = __days + 68569 + OFFSET19700101;\n        uint32 N = 4 * L / 146097;\n        L = L - (146097 * N + 3) / 4;\n        uint32 _year = 4000 * (L + 1) / 1461001;\n        L = L - 1461 * _year / 4 + 31;\n        uint32 _month = 80 * L / 2447;\n        uint32 _day = L - 2447 * _month / 80;\n        L = _month / 11;\n        _month = _month + 2 - 12 * L;\n        _year = 100 * (N - 49) + _year + L;\n\n        year = uint32(_year);\n        month = uint32(_month);\n        day = uint32(_day);\n    }\n\n\n\n// --------- FUNCTIONS DO MANIPULATE STRINGS AND CONVERT STRING->INT AND INT->STRING ---------\n\n    // function getSubstring(string memory _str, uint _left, uint _right)internal pure returns(string memory){\n    //     string memory subStr;\n    //     for(uint i=_left; i<=_right; i++){\n    //         subStr = string(abi.encodePacked(subStr, bytes(_str)[i]));\n    //     }\n    //     return subStr;\n    // }\n\n    function isNumber(string memory str) public pure returns(bool){\n        bytes1 char = bytes(str)[0];\n        return (char >= 0x30 && char <= 0x39);//9-0\n    }\n    \n    // function isStr(string str) public pure returns (bool){\n    //     bytes1 char = bytes(str)[0];\n\n    //     return !(char >= 0x30 && char <= 0x39);// !(9-0)\n    //     // (char >= 0x41 && char <= 0x5A) | //A-Z\n    //     // (char >= 0x61 && char <= 0x7A) |  //a-z\n    //     // !(char == 0x2E) //.\n    // }\n    \n    function stringToUint(string memory _s) internal pure returns (uint, bool) { // testado e funcionado\n        bool hasError = false;\n        bytes memory b =  bytes(_s);\n        uint256 result = 0;\n        uint256 oldResult = 0;\n        for (uint i = 0; i < b.length; i++) { // c = b[i] was not needed\n            if (uint8(bytes(b)[i]) >= 48 && uint8(bytes(b)[i]) <= 57) {\n                // store old value so we can check for overflows\n                oldResult = result;\n                result = result * 10 + (uint8(b[i]) - 48); // bytes and int are not compatible with the operator -.\n                // prevent overflows\n                if(oldResult > result ) {\n                    // we can only get here if the result overflowed and is smaller than last stored value\n                    hasError = true;\n                }\n            } else {\n                hasError = true;\n            }\n        }\n        return (result, hasError); \n    }\n    //  The uint2str function is commented because it is possibly duplicated, if no error occurs it will be deleted\n    //  function uint2Str(uint _i) internal pure returns (string memory _uintAsString) {\n    //     if (_i == 0) {\n    //         return \"0\";\n    //     }\n    //     uint256 j = _i;\n    //     uint256 len;\n    //     while (j != 0) {\n    //         len++;\n    //         j /= 10;\n    //     }\n    //     bytes memory bstr = new bytes(len);\n    //     uint k = len - 1;\n    //     while (_i != 0) {\n    //         bstr[k--] = bytes1(uint8(48 + _i % 10));\n    //         _i /= 10;\n    //     }\n    //     return string(bstr);\n    // }\n\n    function uint2String(uint256 value) internal pure returns (string memory) {\n        \n        if (value == 0) {\n            return \"0\";\n        }\n        uint256 temp = value;\n        uint256 digits;\n        while (temp != 0) {\n            digits++;\n            temp /= 10;\n        }\n        bytes memory buffer = new bytes(digits);\n        while (value != 0) {\n            digits -= 1;\n            buffer[digits] = bytes1(uint8(48 + uint256(value % 10)));\n            value /= 10;\n        }\n        return string(buffer);\n    }\n\n\n\n}",
  "sourcePath": "/home/eldair/git-repository/dsl-smart-contract-eai/02-models/ProofOfConcept/contracts/lib/eai/EAI.sol",
  "compiler": {
    "name": "solc",
    "version": "0.8.13+commit.abaa5c0e.Emscripten.clang"
  },
  "schemaVersion": "3.4.11",
  "updatedAt": "2023-02-03T20:53:29.554Z",
  "devdoc": {
    "kind": "dev",
    "methods": {},
    "version": 1
  },
  "userdoc": {
    "kind": "user",
    "methods": {},
    "version": 1
  }
}