{
  "contractName": "MaxNumberOfOperationByTime_refCod",
  "abi": [
    {
      "inputs": [],
      "stateMutability": "nonpayable",
      "type": "constructor"
    },
    {
      "inputs": [
        {
          "internalType": "uint8",
          "name": "timeUnit",
          "type": "uint8"
        },
        {
          "internalType": "uint32",
          "name": "_accessTime",
          "type": "uint32"
        }
      ],
      "name": "decreaseOperation",
      "outputs": [],
      "stateMutability": "nonpayable",
      "type": "function"
    },
    {
      "inputs": [
        {
          "internalType": "uint256",
          "name": "_id",
          "type": "uint256"
        }
      ],
      "name": "getMaxOpByTime",
      "outputs": [
        {
          "components": [
            {
              "internalType": "uint32",
              "name": "amount",
              "type": "uint32"
            },
            {
              "internalType": "uint8",
              "name": "timeUnit",
              "type": "uint8"
            },
            {
              "internalType": "uint32",
              "name": "byTime",
              "type": "uint32"
            },
            {
              "internalType": "uint32",
              "name": "rest",
              "type": "uint32"
            },
            {
              "internalType": "uint32",
              "name": "endTime",
              "type": "uint32"
            }
          ],
          "internalType": "struct EAI.MaxNumberOfOperationByTime",
          "name": "",
          "type": "tuple"
        }
      ],
      "stateMutability": "view",
      "type": "function",
      "constant": true
    },
    {
      "inputs": [
        {
          "internalType": "uint256",
          "name": "_timestamp",
          "type": "uint256"
        }
      ],
      "name": "testTimestampToDate",
      "outputs": [
        {
          "internalType": "uint32",
          "name": "year",
          "type": "uint32"
        },
        {
          "internalType": "uint32",
          "name": "month",
          "type": "uint32"
        },
        {
          "internalType": "uint32",
          "name": "day",
          "type": "uint32"
        }
      ],
      "stateMutability": "pure",
      "type": "function",
      "constant": true
    },
    {
      "inputs": [],
      "name": "getAllMaxOpByTime",
      "outputs": [
        {
          "components": [
            {
              "internalType": "uint32",
              "name": "amount",
              "type": "uint32"
            },
            {
              "internalType": "uint8",
              "name": "timeUnit",
              "type": "uint8"
            },
            {
              "internalType": "uint32",
              "name": "byTime",
              "type": "uint32"
            },
            {
              "internalType": "uint32",
              "name": "rest",
              "type": "uint32"
            },
            {
              "internalType": "uint32",
              "name": "endTime",
              "type": "uint32"
            }
          ],
          "internalType": "struct EAI.MaxNumberOfOperationByTime[]",
          "name": "",
          "type": "tuple[]"
        }
      ],
      "stateMutability": "view",
      "type": "function",
      "constant": true
    }
  ],
  "bytecode": "0x60806040523480156200001157600080fd5b5060006200002d600260006200071060201b620004e61760201c565b9080600181540180825580915050600190039060005260206000200160009091909190915060008201518160000160006101000a81548163ffffffff021916908363ffffffff16021790555060208201518160000160046101000a81548160ff021916908360ff16021790555060408201518160000160056101000a81548163ffffffff021916908363ffffffff16021790555060608201518160000160096101000a81548163ffffffff021916908363ffffffff160217905550608082015181600001600d6101000a81548163ffffffff021916908363ffffffff160217905550505060006200012c600260016200071060201b620004e61760201c565b9080600181540180825580915050600190039060005260206000200160009091909190915060008201518160000160006101000a81548163ffffffff021916908363ffffffff16021790555060208201518160000160046101000a81548160ff021916908360ff16021790555060408201518160000160056101000a81548163ffffffff021916908363ffffffff16021790555060608201518160000160096101000a81548163ffffffff021916908363ffffffff160217905550608082015181600001600d6101000a81548163ffffffff021916908363ffffffff160217905550505060006200022a6002806200071060201b620004e61760201c565b9080600181540180825580915050600190039060005260206000200160009091909190915060008201518160000160006101000a81548163ffffffff021916908363ffffffff16021790555060208201518160000160046101000a81548160ff021916908360ff16021790555060408201518160000160056101000a81548163ffffffff021916908363ffffffff16021790555060608201518160000160096101000a81548163ffffffff021916908363ffffffff160217905550608082015181600001600d6101000a81548163ffffffff021916908363ffffffff1602179055505050600062000329600260036200071060201b620004e61760201c565b9080600181540180825580915050600190039060005260206000200160009091909190915060008201518160000160006101000a81548163ffffffff021916908363ffffffff16021790555060208201518160000160046101000a81548160ff021916908360ff16021790555060408201518160000160056101000a81548163ffffffff021916908363ffffffff16021790555060608201518160000160096101000a81548163ffffffff021916908363ffffffff160217905550608082015181600001600d6101000a81548163ffffffff021916908363ffffffff1602179055505050600062000428600260046200071060201b620004e61760201c565b9080600181540180825580915050600190039060005260206000200160009091909190915060008201518160000160006101000a81548163ffffffff021916908363ffffffff16021790555060208201518160000160046101000a81548160ff021916908360ff16021790555060408201518160000160056101000a81548163ffffffff021916908363ffffffff16021790555060608201518160000160096101000a81548163ffffffff021916908363ffffffff160217905550608082015181600001600d6101000a81548163ffffffff021916908363ffffffff1602179055505050600062000527600260056200071060201b620004e61760201c565b9080600181540180825580915050600190039060005260206000200160009091909190915060008201518160000160006101000a81548163ffffffff021916908363ffffffff16021790555060208201518160000160046101000a81548160ff021916908360ff16021790555060408201518160000160056101000a81548163ffffffff021916908363ffffffff16021790555060608201518160000160096101000a81548163ffffffff021916908363ffffffff160217905550608082015181600001600d6101000a81548163ffffffff021916908363ffffffff1602179055505050600062000626600260066200071060201b620004e61760201c565b9080600181540180825580915050600190039060005260206000200160009091909190915060008201518160000160006101000a81548163ffffffff021916908363ffffffff16021790555060208201518160000160046101000a81548160ff021916908360ff16021790555060408201518160000160056101000a81548163ffffffff021916908363ffffffff16021790555060608201518160000160096101000a81548163ffffffff021916908363ffffffff160217905550608082015181600001600d6101000a81548163ffffffff021916908363ffffffff16021790555050506200094a565b6200071a62000857565b6000600460ff168360ff161162000744576200073c836200079560201b60201c565b905062000749565b600190505b6040518060a001604052808563ffffffff1681526020018460ff1681526020018263ffffffff1681526020018563ffffffff168152602001600063ffffffff1681525091505092915050565b6000600460ff168260ff161115620007e4576040517f08c379a0000000000000000000000000000000000000000000000000000000008152600401620007db9062000928565b60405180910390fd5b600060ff168260ff1603620007fd576001905062000852565b600160ff168260ff16036200081657603c905062000852565b600260ff168260ff16036200083057610e10905062000852565b600360ff168260ff16036200084b5762015180905062000852565b62093a8090505b919050565b6040518060a00160405280600063ffffffff168152602001600060ff168152602001600063ffffffff168152602001600063ffffffff168152602001600063ffffffff1681525090565b600082825260208201905092915050565b7f546865206d6574686f642067657454696d65496e5365636f6e647320646f657360008201527f6e277420776f726b20666f72204d4f4e544820616e6420594541520000000000602082015250565b600062000910603b83620008a1565b91506200091d82620008b2565b604082019050919050565b60006020820190508181036000830152620009438162000901565b9050919050565b61120f806200095a6000396000f3fe608060405234801561001057600080fd5b506004361061004c5760003560e01c806337348e3c1461005157806361eab3091461006f5780638e893d53146100a1578063da7d9cdf146100d1575b600080fd5b6100596100ed565b6040516100669190610c97565b60405180910390f35b61008960048036038101906100849190610cf4565b6101fd565b60405161009893929190610d30565b60405180910390f35b6100bb60048036038101906100b69190610cf4565b610218565b6040516100c89190610dcf565b60405180910390f35b6100eb60048036038101906100e69190610e42565b610305565b005b60606000805480602002602001604051908101604052809291908181526020016000905b828210156101f4578382906000526020600020016040518060a00160405290816000820160009054906101000a900463ffffffff1663ffffffff1663ffffffff1681526020016000820160049054906101000a900460ff1660ff1660ff1681526020016000820160059054906101000a900463ffffffff1663ffffffff1663ffffffff1681526020016000820160099054906101000a900463ffffffff1663ffffffff1663ffffffff16815260200160008201600d9054906101000a900463ffffffff1663ffffffff1663ffffffff168152505081526020019060010190610111565b50505050905090565b600080600061020b8461055f565b9250925092509193909250565b610220610afb565b6000828154811061023457610233610e82565b5b906000526020600020016040518060a00160405290816000820160009054906101000a900463ffffffff1663ffffffff1663ffffffff1681526020016000820160049054906101000a900460ff1660ff1660ff1681526020016000820160059054906101000a900463ffffffff1663ffffffff1663ffffffff1681526020016000820160099054906101000a900463ffffffff1663ffffffff1663ffffffff16815260200160008201600d9054906101000a900463ffffffff1663ffffffff1663ffffffff16815250509050919050565b600060ff168260ff160361034857610343816000808154811061032b5761032a610e82565b5b9060005260206000200161071290919063ffffffff16565b6104e2565b600160ff168260ff160361038c5761038781600060018154811061036f5761036e610e82565b5b9060005260206000200161071290919063ffffffff16565b6104e1565b600260ff168260ff16036103d0576103cb8160006002815481106103b3576103b2610e82565b5b9060005260206000200161071290919063ffffffff16565b6104e0565b600360ff168260ff16036104145761040f8160006003815481106103f7576103f6610e82565b5b9060005260206000200161071290919063ffffffff16565b6104df565b600460ff168260ff16036104585761045381600060048154811061043b5761043a610e82565b5b9060005260206000200161071290919063ffffffff16565b6104de565b600560ff168260ff160361049c5761049781600060058154811061047f5761047e610e82565b5b9060005260206000200161071290919063ffffffff16565b6104dd565b600660ff168260ff16036104dc576104db8160006006815481106104c3576104c2610e82565b5b9060005260206000200161071290919063ffffffff16565b5b5b5b5b5b5b5b5050565b6104ee610afb565b6000600460ff168360ff161161050e57610507836107f5565b9050610513565b600190505b6040518060a001604052808563ffffffff1681526020018460ff1681526020018263ffffffff1681526020018563ffffffff168152602001600063ffffffff1681525091505092915050565b6000806000806201518063ffffffff168561057a9190610f0f565b9050600062253d8c62010bd9836105919190610f40565b61059b9190610f40565b9050600062023ab18260046105b09190610f7a565b6105ba9190610fb8565b9050600460038262023ab16105cf9190610f7a565b6105d99190610f40565b6105e39190610fb8565b826105ee9190610fe9565b9150600062164b096001846106039190610f40565b610fa06106109190610f7a565b61061a9190610fb8565b9050601f6004826105b561062e9190610f7a565b6106389190610fb8565b846106439190610fe9565b61064d9190610f40565b9250600061098f8460506106619190610f7a565b61066b9190610fb8565b9050600060508261098f61067f9190610f7a565b6106899190610fb8565b856106949190610fe9565b9050600b826106a39190610fb8565b945084600c6106b29190610f7a565b6002836106bf9190610f40565b6106c99190610fe9565b915084836031866106da9190610fe9565b60646106e69190610f7a565b6106f09190610f40565b6106fa9190610f40565b92508298508197508096505050505050509193909250565b6107428260000160049054906101000a900460ff1683600001600d9054906101000a900463ffffffff16836108ac565b15610752576107518282610971565b5b60008260000160099054906101000a900463ffffffff1663ffffffff16116107af576040517f08c379a00000000000000000000000000000000000000000000000000000000081526004016107a6906110a0565b60405180910390fd5b60018260000160098282829054906101000a900463ffffffff166107d39190610fe9565b92506101000a81548163ffffffff021916908363ffffffff1602179055505050565b6000600460ff168260ff161115610841576040517f08c379a000000000000000000000000000000000000000000000000000000000815260040161083890611132565b60405180910390fd5b600060ff168260ff160361085857600190506108a7565b600160ff168260ff160361086f57603c90506108a7565b600260ff168260ff160361088757610e1090506108a7565b600360ff168260ff16036108a0576201518090506108a7565b62093a8090505b919050565b600080849050600460ff168160ff16116108d8578363ffffffff168363ffffffff16101591505061096a565b600560ff168160ff16036109405760006108f78463ffffffff1661055f565b50915050600d8563ffffffff16148015610917575060018163ffffffff16145b156109275760019250505061096a565b8463ffffffff168163ffffffff1610159250505061096a565b60006109518463ffffffff1661055f565b505090508463ffffffff168163ffffffff161015925050505b9392505050565b8160000160009054906101000a900463ffffffff168260000160096101000a81548163ffffffff021916908363ffffffff1602179055506109d88260000160059054906101000a900463ffffffff168360000160049054906101000a900460ff16836109fe565b82600001600d6101000a81548163ffffffff021916908363ffffffff1602179055505050565b6000600460ff168360ff1611610a2057610a19838386610a91565b9050610a8a565b600560ff168360ff1603610a5e576000610a3f8363ffffffff1661055f565b5063ffffffff16915050600181610a569190611152565b915050610a8a565b6000610a6f8363ffffffff1661055f565b505063ffffffff169050600181610a869190611152565b9150505b9392505050565b6000808284610aa091906111a8565b905060008184610ab09190610fe9565b9050600460ff168660ff1603610ae3576203f4808186610ad09190610f40565b610ada9190610f40565b92505050610af4565b8085610aef9190610f40565b925050505b9392505050565b6040518060a00160405280600063ffffffff168152602001600060ff168152602001600063ffffffff168152602001600063ffffffff168152602001600063ffffffff1681525090565b600081519050919050565b600082825260208201905092915050565b6000819050602082019050919050565b600063ffffffff82169050919050565b610b8a81610b71565b82525050565b600060ff82169050919050565b610ba681610b90565b82525050565b60a082016000820151610bc26000850182610b81565b506020820151610bd56020850182610b9d565b506040820151610be86040850182610b81565b506060820151610bfb6060850182610b81565b506080820151610c0e6080850182610b81565b50505050565b6000610c208383610bac565b60a08301905092915050565b6000602082019050919050565b6000610c4482610b45565b610c4e8185610b50565b9350610c5983610b61565b8060005b83811015610c8a578151610c718882610c14565b9750610c7c83610c2c565b925050600181019050610c5d565b5085935050505092915050565b60006020820190508181036000830152610cb18184610c39565b905092915050565b600080fd5b6000819050919050565b610cd181610cbe565b8114610cdc57600080fd5b50565b600081359050610cee81610cc8565b92915050565b600060208284031215610d0a57610d09610cb9565b5b6000610d1884828501610cdf565b91505092915050565b610d2a81610b71565b82525050565b6000606082019050610d456000830186610d21565b610d526020830185610d21565b610d5f6040830184610d21565b949350505050565b60a082016000820151610d7d6000850182610b81565b506020820151610d906020850182610b9d565b506040820151610da36040850182610b81565b506060820151610db66060850182610b81565b506080820151610dc96080850182610b81565b50505050565b600060a082019050610de46000830184610d67565b92915050565b610df381610b90565b8114610dfe57600080fd5b50565b600081359050610e1081610dea565b92915050565b610e1f81610b71565b8114610e2a57600080fd5b50565b600081359050610e3c81610e16565b92915050565b60008060408385031215610e5957610e58610cb9565b5b6000610e6785828601610e01565b9250506020610e7885828601610e2d565b9150509250929050565b7f4e487b7100000000000000000000000000000000000000000000000000000000600052603260045260246000fd5b7f4e487b7100000000000000000000000000000000000000000000000000000000600052601260045260246000fd5b7f4e487b7100000000000000000000000000000000000000000000000000000000600052601160045260246000fd5b6000610f1a82610cbe565b9150610f2583610cbe565b925082610f3557610f34610eb1565b5b828204905092915050565b6000610f4b82610b71565b9150610f5683610b71565b92508263ffffffff03821115610f6f57610f6e610ee0565b5b828201905092915050565b6000610f8582610b71565b9150610f9083610b71565b92508163ffffffff0483118215151615610fad57610fac610ee0565b5b828202905092915050565b6000610fc382610b71565b9150610fce83610b71565b925082610fde57610fdd610eb1565b5b828204905092915050565b6000610ff482610b71565b9150610fff83610b71565b92508282101561101257611011610ee0565b5b828203905092915050565b600082825260208201905092915050565b7f546865726520617265206e6f206f7065726174696f6e7320617661696c61626c60008201527f6500000000000000000000000000000000000000000000000000000000000000602082015250565b600061108a60218361101d565b91506110958261102e565b604082019050919050565b600060208201905081810360008301526110b98161107d565b9050919050565b7f546865206d6574686f642067657454696d65496e5365636f6e647320646f657360008201527f6e277420776f726b20666f72204d4f4e544820616e6420594541520000000000602082015250565b600061111c603b8361101d565b9150611127826110c0565b604082019050919050565b6000602082019050818103600083015261114b8161110f565b9050919050565b600061115d82610cbe565b915061116883610cbe565b9250827fffffffffffffffffffffffffffffffffffffffffffffffffffffffffffffffff0382111561119d5761119c610ee0565b5b828201905092915050565b60006111b382610b71565b91506111be83610b71565b9250826111ce576111cd610eb1565b5b82820690509291505056fea2646970667358221220a5b0c9494b807eed3fa74343b2ced5287c403c5fc699295bcbe1f5fd29e0376c64736f6c634300080d0033",
  "immutableReferences": {},
  "source": "// SPDX-License-Identifier: MIT\r\npragma solidity >0.8.4 < 0.8.14;\r\nimport \"../eai/EAI.sol\";\r\n\r\ncontract MaxNumberOfOperationByTime_refCod{   \r\n\r\nusing EAI for EAI.MaxNumberOfOperationByTime;\r\n\r\nEAI.MaxNumberOfOperationByTime[] maxOp;\r\n\r\n    constructor (){\r\n        maxOp.push( EAI.createMaxNumberOfOperationByTime(2, EAI.SECOND));\r\n        maxOp.push( EAI.createMaxNumberOfOperationByTime(2, EAI.MINUTE));\r\n        maxOp.push( EAI.createMaxNumberOfOperationByTime(2, EAI.HOUR));\r\n        maxOp.push( EAI.createMaxNumberOfOperationByTime(2, EAI.DAY));\r\n        maxOp.push( EAI.createMaxNumberOfOperationByTime(2, EAI.WEEK));\r\n        maxOp.push( EAI.createMaxNumberOfOperationByTime(2, EAI.MONTH));\r\n        maxOp.push( EAI.createMaxNumberOfOperationByTime(2, EAI.YEAR));\r\n    }\r\n\r\n    function decreaseOperation(uint8 timeUnit, uint32 _accessTime)public {\r\n        if(timeUnit == EAI.SECOND){\r\n            maxOp[0].decreaseNumberOfOperationByTime(_accessTime);\r\n        }else if(timeUnit == EAI.MINUTE){\r\n            maxOp[1].decreaseNumberOfOperationByTime(_accessTime);\r\n        }else if(timeUnit == EAI.HOUR ){\r\n            maxOp[2].decreaseNumberOfOperationByTime(_accessTime);\r\n        }else if(timeUnit == EAI.DAY){\r\n            maxOp[3].decreaseNumberOfOperationByTime(_accessTime);            \r\n        }else if(timeUnit == EAI.WEEK){\r\n            maxOp[4].decreaseNumberOfOperationByTime(_accessTime);\r\n        }else if(timeUnit == EAI.MONTH){\r\n            maxOp[5].decreaseNumberOfOperationByTime(_accessTime);\r\n        }else if(timeUnit == EAI.YEAR ){\r\n            maxOp[6].decreaseNumberOfOperationByTime(_accessTime);\r\n        }\r\n    }\r\n\r\n    function getMaxOpByTime(uint _id) public view returns(EAI.MaxNumberOfOperationByTime memory){\r\n        return maxOp[_id];\r\n    }\r\n\r\n    function testTimestampToDate(uint _timestamp)public pure returns(uint32 year, uint32 month, uint32 day){\r\n        return EAI.timeStampToDate(_timestamp);\r\n    }\r\n\r\n    function getAllMaxOpByTime() public view returns(EAI.MaxNumberOfOperationByTime[] memory){\r\n        return maxOp;\r\n    }\r\n    \r\n}",
  "sourcePath": "D:\\UserData\\git-repository\\dsl-smart-contract-eai\\02-models\\ProofOfConcept\\contracts\\lib\\referencesCode-eai\\006_MaxNumberOfOperationByTime_refCod.sol",
  "compiler": {
    "name": "solc",
    "version": "0.8.13+commit.abaa5c0e.Emscripten.clang"
  },
  "schemaVersion": "3.4.11",
  "updatedAt": "2023-02-08T16:30:29.247Z",
  "networkType": "ethereum",
  "devdoc": {
    "kind": "dev",
    "methods": {},
    "version": 1
  },
  "userdoc": {
    "kind": "user",
    "methods": {},
    "version": 1
  }
}