{
  "contractName": "MaxNumberOfOperationByTime_refCod",
  "abi": [
    {
      "inputs": [],
      "stateMutability": "nonpayable",
      "type": "constructor"
    },
    {
      "inputs": [
        {
          "internalType": "uint8",
          "name": "timeUnit",
          "type": "uint8"
        },
        {
          "internalType": "uint32",
          "name": "_accessTime",
          "type": "uint32"
        }
      ],
      "name": "decreaseOperation",
      "outputs": [],
      "stateMutability": "nonpayable",
      "type": "function"
    },
    {
      "inputs": [
        {
          "internalType": "uint256",
          "name": "_id",
          "type": "uint256"
        }
      ],
      "name": "getMaxOp",
      "outputs": [
        {
          "components": [
            {
              "internalType": "uint32",
              "name": "amount",
              "type": "uint32"
            },
            {
              "internalType": "uint8",
              "name": "timeUnit",
              "type": "uint8"
            },
            {
              "internalType": "uint32",
              "name": "byTime",
              "type": "uint32"
            },
            {
              "internalType": "uint32",
              "name": "rest",
              "type": "uint32"
            },
            {
              "internalType": "uint32",
              "name": "endTime",
              "type": "uint32"
            }
          ],
          "internalType": "struct EAI.MaxNumberOfOperationByTime",
          "name": "",
          "type": "tuple"
        }
      ],
      "stateMutability": "view",
      "type": "function"
    },
    {
      "inputs": [
        {
          "internalType": "uint256",
          "name": "_timestamp",
          "type": "uint256"
        }
      ],
      "name": "testTimestampToDate",
      "outputs": [
        {
          "internalType": "uint32",
          "name": "year",
          "type": "uint32"
        },
        {
          "internalType": "uint32",
          "name": "month",
          "type": "uint32"
        },
        {
          "internalType": "uint32",
          "name": "day",
          "type": "uint32"
        }
      ],
      "stateMutability": "pure",
      "type": "function"
    }
  ],
  "bytecode": "0x60806040523480156200001157600080fd5b5060006200002d600260006200071060201b620003ad1760201c565b9080600181540180825580915050600190039060005260206000200160009091909190915060008201518160000160006101000a81548163ffffffff021916908363ffffffff16021790555060208201518160000160046101000a81548160ff021916908360ff16021790555060408201518160000160056101000a81548163ffffffff021916908363ffffffff16021790555060608201518160000160096101000a81548163ffffffff021916908363ffffffff160217905550608082015181600001600d6101000a81548163ffffffff021916908363ffffffff160217905550505060006200012c600260016200071060201b620003ad1760201c565b9080600181540180825580915050600190039060005260206000200160009091909190915060008201518160000160006101000a81548163ffffffff021916908363ffffffff16021790555060208201518160000160046101000a81548160ff021916908360ff16021790555060408201518160000160056101000a81548163ffffffff021916908363ffffffff16021790555060608201518160000160096101000a81548163ffffffff021916908363ffffffff160217905550608082015181600001600d6101000a81548163ffffffff021916908363ffffffff160217905550505060006200022a6002806200071060201b620003ad1760201c565b9080600181540180825580915050600190039060005260206000200160009091909190915060008201518160000160006101000a81548163ffffffff021916908363ffffffff16021790555060208201518160000160046101000a81548160ff021916908360ff16021790555060408201518160000160056101000a81548163ffffffff021916908363ffffffff16021790555060608201518160000160096101000a81548163ffffffff021916908363ffffffff160217905550608082015181600001600d6101000a81548163ffffffff021916908363ffffffff1602179055505050600062000329600260036200071060201b620003ad1760201c565b9080600181540180825580915050600190039060005260206000200160009091909190915060008201518160000160006101000a81548163ffffffff021916908363ffffffff16021790555060208201518160000160046101000a81548160ff021916908360ff16021790555060408201518160000160056101000a81548163ffffffff021916908363ffffffff16021790555060608201518160000160096101000a81548163ffffffff021916908363ffffffff160217905550608082015181600001600d6101000a81548163ffffffff021916908363ffffffff1602179055505050600062000428600260046200071060201b620003ad1760201c565b9080600181540180825580915050600190039060005260206000200160009091909190915060008201518160000160006101000a81548163ffffffff021916908363ffffffff16021790555060208201518160000160046101000a81548160ff021916908360ff16021790555060408201518160000160056101000a81548163ffffffff021916908363ffffffff16021790555060608201518160000160096101000a81548163ffffffff021916908363ffffffff160217905550608082015181600001600d6101000a81548163ffffffff021916908363ffffffff1602179055505050600062000527600260056200071060201b620003ad1760201c565b9080600181540180825580915050600190039060005260206000200160009091909190915060008201518160000160006101000a81548163ffffffff021916908363ffffffff16021790555060208201518160000160046101000a81548160ff021916908360ff16021790555060408201518160000160056101000a81548163ffffffff021916908363ffffffff16021790555060608201518160000160096101000a81548163ffffffff021916908363ffffffff160217905550608082015181600001600d6101000a81548163ffffffff021916908363ffffffff1602179055505050600062000626600260066200071060201b620003ad1760201c565b9080600181540180825580915050600190039060005260206000200160009091909190915060008201518160000160006101000a81548163ffffffff021916908363ffffffff16021790555060208201518160000160046101000a81548160ff021916908360ff16021790555060408201518160000160056101000a81548163ffffffff021916908363ffffffff16021790555060608201518160000160096101000a81548163ffffffff021916908363ffffffff160217905550608082015181600001600d6101000a81548163ffffffff021916908363ffffffff16021790555050506200094b565b6200071a62000858565b6000600460ff168360ff161162000744576200073c836200079660201b60201c565b905062000749565b600190505b6040518060a001604052808563ffffffff1681526020018460ff1681526020018263ffffffff168152602001600063ffffffff168152602001600063ffffffff1681525091505092915050565b6000600460ff168260ff161115620007e5576040517f08c379a0000000000000000000000000000000000000000000000000000000008152600401620007dc9062000929565b60405180910390fd5b600060ff168260ff1603620007fe576001905062000853565b600160ff168260ff16036200081757603c905062000853565b600260ff168260ff16036200083157610e10905062000853565b600360ff168260ff16036200084c5762015180905062000853565b62093a8090505b919050565b6040518060a00160405280600063ffffffff168152602001600060ff168152602001600063ffffffff168152602001600063ffffffff168152602001600063ffffffff1681525090565b600082825260208201905092915050565b7f546865206d6574686f642067657454696d65496e5365636f6e647320646f657360008201527f6e277420776f726b20666f72204d4f4e544820616e6420594541520000000000602082015250565b600062000911603b83620008a2565b91506200091e82620008b3565b604082019050919050565b60006020820190508181036000830152620009448162000902565b9050919050565b610fd8806200095b6000396000f3fe608060405234801561001057600080fd5b50600436106100415760003560e01c806320f962061461004657806361eab30914610076578063da7d9cdf146100a8575b600080fd5b610060600480360381019061005b9190610a82565b6100c4565b60405161006d9190610b52565b60405180910390f35b610090600480360381019061008b9190610a82565b6101b1565b60405161009f93929190610b7c565b60405180910390f35b6100c260048036038101906100bd9190610c0b565b6101cc565b005b6100cc6109fd565b600082815481106100e0576100df610c4b565b5b906000526020600020016040518060a00160405290816000820160009054906101000a900463ffffffff1663ffffffff1663ffffffff1681526020016000820160049054906101000a900460ff1660ff1660ff1681526020016000820160059054906101000a900463ffffffff1663ffffffff1663ffffffff1681526020016000820160099054906101000a900463ffffffff1663ffffffff1663ffffffff16815260200160008201600d9054906101000a900463ffffffff1663ffffffff1663ffffffff16815250509050919050565b60008060006101bf84610427565b9250925092509193909250565b600060ff168260ff160361020f5761020a81600080815481106101f2576101f1610c4b565b5b906000526020600020016105da90919063ffffffff16565b6103a9565b600160ff168260ff16036102535761024e81600060018154811061023657610235610c4b565b5b906000526020600020016105da90919063ffffffff16565b6103a8565b600260ff168260ff16036102975761029281600060028154811061027a57610279610c4b565b5b906000526020600020016105da90919063ffffffff16565b6103a7565b600360ff168260ff16036102db576102d68160006003815481106102be576102bd610c4b565b5b906000526020600020016105da90919063ffffffff16565b6103a6565b600460ff168260ff160361031f5761031a81600060048154811061030257610301610c4b565b5b906000526020600020016105da90919063ffffffff16565b6103a5565b600560ff168260ff16036103635761035e81600060058154811061034657610345610c4b565b5b906000526020600020016105da90919063ffffffff16565b6103a4565b600660ff168260ff16036103a3576103a281600060068154811061038a57610389610c4b565b5b906000526020600020016105da90919063ffffffff16565b5b5b5b5b5b5b5b5050565b6103b56109fd565b6000600460ff168360ff16116103d5576103ce83610697565b90506103da565b600190505b6040518060a001604052808563ffffffff1681526020018460ff1681526020018263ffffffff168152602001600063ffffffff168152602001600063ffffffff1681525091505092915050565b6000806000806201518063ffffffff16856104429190610cd8565b9050600062253d8c62010bd9836104599190610d09565b6104639190610d09565b9050600062023ab18260046104789190610d43565b6104829190610d81565b9050600460038262023ab16104979190610d43565b6104a19190610d09565b6104ab9190610d81565b826104b69190610db2565b9150600062164b096001846104cb9190610d09565b610fa06104d89190610d43565b6104e29190610d81565b9050601f6004826105b56104f69190610d43565b6105009190610d81565b8461050b9190610db2565b6105159190610d09565b9250600061098f8460506105299190610d43565b6105339190610d81565b9050600060508261098f6105479190610d43565b6105519190610d81565b8561055c9190610db2565b9050600b8261056b9190610d81565b945084600c61057a9190610d43565b6002836105879190610d09565b6105919190610db2565b915084836031866105a29190610db2565b60646105ae9190610d43565b6105b89190610d09565b6105c29190610d09565b92508298508197508096505050505050509193909250565b6105e4828261074e565b156105f4576105f38282610873565b5b60008260000160099054906101000a900463ffffffff1663ffffffff1611610651576040517f08c379a000000000000000000000000000000000000000000000000000000000815260040161064890610e69565b60405180910390fd5b60018260000160098282829054906101000a900463ffffffff166106759190610db2565b92506101000a81548163ffffffff021916908363ffffffff1602179055505050565b6000600460ff168260ff1611156106e3576040517f08c379a00000000000000000000000000000000000000000000000000000000081526004016106da90610efb565b60405180910390fd5b600060ff168260ff16036106fa5760019050610749565b600160ff168260ff160361071157603c9050610749565b600260ff168260ff160361072957610e109050610749565b600360ff168260ff160361074257620151809050610749565b62093a8090505b919050565b6000808360000160049054906101000a900460ff169050600460ff168160ff161161079f5783600001600d9054906101000a900463ffffffff1663ffffffff168363ffffffff16101591505061086d565b600560ff168160ff160361082f5760006107be8463ffffffff16610427565b50915050600d85600001600d9054906101000a900463ffffffff1663ffffffff161480156107f2575060018163ffffffff16145b156108025760019250505061086d565b84600001600d9054906101000a900463ffffffff1663ffffffff168163ffffffff1610159250505061086d565b60006108408463ffffffff16610427565b5050905084600001600d9054906101000a900463ffffffff1663ffffffff168163ffffffff161015925050505b92915050565b8160000160009054906101000a900463ffffffff168260000160096101000a81548163ffffffff021916908363ffffffff1602179055506108da8260000160059054906101000a900463ffffffff168360000160049054906101000a900460ff1683610900565b82600001600d6101000a81548163ffffffff021916908363ffffffff1602179055505050565b6000600460ff168360ff16116109225761091b838386610993565b905061098c565b600560ff168360ff16036109605760006109418363ffffffff16610427565b5063ffffffff169150506001816109589190610f1b565b91505061098c565b60006109718363ffffffff16610427565b505063ffffffff1690506001816109889190610f1b565b9150505b9392505050565b60008082846109a29190610f71565b9050600081846109b29190610db2565b9050600460ff168660ff16036109e5576203f48081866109d29190610d09565b6109dc9190610d09565b925050506109f6565b80856109f19190610d09565b925050505b9392505050565b6040518060a00160405280600063ffffffff168152602001600060ff168152602001600063ffffffff168152602001600063ffffffff168152602001600063ffffffff1681525090565b600080fd5b6000819050919050565b610a5f81610a4c565b8114610a6a57600080fd5b50565b600081359050610a7c81610a56565b92915050565b600060208284031215610a9857610a97610a47565b5b6000610aa684828501610a6d565b91505092915050565b600063ffffffff82169050919050565b610ac881610aaf565b82525050565b600060ff82169050919050565b610ae481610ace565b82525050565b60a082016000820151610b006000850182610abf565b506020820151610b136020850182610adb565b506040820151610b266040850182610abf565b506060820151610b396060850182610abf565b506080820151610b4c6080850182610abf565b50505050565b600060a082019050610b676000830184610aea565b92915050565b610b7681610aaf565b82525050565b6000606082019050610b916000830186610b6d565b610b9e6020830185610b6d565b610bab6040830184610b6d565b949350505050565b610bbc81610ace565b8114610bc757600080fd5b50565b600081359050610bd981610bb3565b92915050565b610be881610aaf565b8114610bf357600080fd5b50565b600081359050610c0581610bdf565b92915050565b60008060408385031215610c2257610c21610a47565b5b6000610c3085828601610bca565b9250506020610c4185828601610bf6565b9150509250929050565b7f4e487b7100000000000000000000000000000000000000000000000000000000600052603260045260246000fd5b7f4e487b7100000000000000000000000000000000000000000000000000000000600052601260045260246000fd5b7f4e487b7100000000000000000000000000000000000000000000000000000000600052601160045260246000fd5b6000610ce382610a4c565b9150610cee83610a4c565b925082610cfe57610cfd610c7a565b5b828204905092915050565b6000610d1482610aaf565b9150610d1f83610aaf565b92508263ffffffff03821115610d3857610d37610ca9565b5b828201905092915050565b6000610d4e82610aaf565b9150610d5983610aaf565b92508163ffffffff0483118215151615610d7657610d75610ca9565b5b828202905092915050565b6000610d8c82610aaf565b9150610d9783610aaf565b925082610da757610da6610c7a565b5b828204905092915050565b6000610dbd82610aaf565b9150610dc883610aaf565b925082821015610ddb57610dda610ca9565b5b828203905092915050565b600082825260208201905092915050565b7f546865726520617265206e6f206f7065726174696f6e7320617661696c61626c60008201527f6500000000000000000000000000000000000000000000000000000000000000602082015250565b6000610e53602183610de6565b9150610e5e82610df7565b604082019050919050565b60006020820190508181036000830152610e8281610e46565b9050919050565b7f546865206d6574686f642067657454696d65496e5365636f6e647320646f657360008201527f6e277420776f726b20666f72204d4f4e544820616e6420594541520000000000602082015250565b6000610ee5603b83610de6565b9150610ef082610e89565b604082019050919050565b60006020820190508181036000830152610f1481610ed8565b9050919050565b6000610f2682610a4c565b9150610f3183610a4c565b9250827fffffffffffffffffffffffffffffffffffffffffffffffffffffffffffffffff03821115610f6657610f65610ca9565b5b828201905092915050565b6000610f7c82610aaf565b9150610f8783610aaf565b925082610f9757610f96610c7a565b5b82820690509291505056fea264697066735822122026c917f97392faac016427f06916ac362988e9287b1811199d22b984418c99da64736f6c634300080d0033",
  "immutableReferences": {},
  "source": "// SPDX-License-Identifier: MIT\r\npragma solidity >0.8.4 < 0.8.14;\r\nimport \"../eai/EAI.sol\";\r\n\r\ncontract MaxNumberOfOperationByTime_refCod{   \r\n\r\nusing EAI for EAI.MaxNumberOfOperationByTime;\r\n\r\nEAI.MaxNumberOfOperationByTime[] maxOp;\r\n\r\nconstructor (){\r\n    maxOp.push( EAI.createMaxNumberOfOperationByTime(2, EAI.SECOND));\r\n    maxOp.push( EAI.createMaxNumberOfOperationByTime(2, EAI.MINUTE));\r\n    maxOp.push( EAI.createMaxNumberOfOperationByTime(2, EAI.HOUR));\r\n    maxOp.push( EAI.createMaxNumberOfOperationByTime(2, EAI.DAY));\r\n    maxOp.push( EAI.createMaxNumberOfOperationByTime(2, EAI.WEEK));\r\n    maxOp.push( EAI.createMaxNumberOfOperationByTime(2, EAI.MONTH));\r\n    maxOp.push( EAI.createMaxNumberOfOperationByTime(2, EAI.YEAR));\r\n}\r\n\r\n    function decreaseOperation(uint8 timeUnit, uint32 _accessTime)public {\r\n        if(timeUnit == EAI.SECOND){\r\n            maxOp[0].decreaseNumberOfOperationByTime(_accessTime);\r\n        }else if(timeUnit == EAI.MINUTE){\r\n            maxOp[1].decreaseNumberOfOperationByTime(_accessTime);\r\n        }else if(timeUnit == EAI.HOUR ){\r\n            maxOp[2].decreaseNumberOfOperationByTime(_accessTime);\r\n        }else if(timeUnit == EAI.DAY){\r\n            maxOp[3].decreaseNumberOfOperationByTime(_accessTime);            \r\n        }else if(timeUnit == EAI.WEEK){\r\n            maxOp[4].decreaseNumberOfOperationByTime(_accessTime);\r\n        }else if(timeUnit == EAI.MONTH){\r\n            maxOp[5].decreaseNumberOfOperationByTime(_accessTime);\r\n        }else if(timeUnit == EAI.YEAR ){\r\n            maxOp[6].decreaseNumberOfOperationByTime(_accessTime);\r\n        }\r\n    }\r\n\r\n    function getMaxOp(uint _id) public view returns(EAI.MaxNumberOfOperationByTime memory){\r\n        return maxOp[_id];\r\n    }\r\n\r\n    function testTimestampToDate(uint _timestamp)public pure returns(uint32 year, uint32 month, uint32 day){\r\n        return EAI.timeStampToDate(_timestamp);\r\n    }\r\n\r\n}",
  "sourcePath": "/home/eldair/git-repository/dsl-smart-contract-eai/02-models/ProofOfConcept/contracts/lib/referencesCode-eai/MaxNumberOfOperationByTime_refCod.sol",
  "compiler": {
    "name": "solc",
    "version": "0.8.13+commit.abaa5c0e.Emscripten.clang"
  },
  "schemaVersion": "3.4.11",
  "updatedAt": "2023-01-04T22:17:57.867Z",
  "devdoc": {
    "kind": "dev",
    "methods": {},
    "version": 1
  },
  "userdoc": {
    "kind": "user",
    "methods": {},
    "version": 1
  }
}