{
  "contractName": "MaxNumberOfOperation_refCod",
  "abi": [
    {
      "inputs": [],
      "stateMutability": "nonpayable",
      "type": "constructor"
    },
    {
      "inputs": [
        {
          "internalType": "uint256",
          "name": "",
          "type": "uint256"
        }
      ],
      "name": "maxOp",
      "outputs": [
        {
          "internalType": "uint32",
          "name": "amount",
          "type": "uint32"
        },
        {
          "internalType": "uint32",
          "name": "rest",
          "type": "uint32"
        }
      ],
      "stateMutability": "view",
      "type": "function",
      "constant": true
    },
    {
      "inputs": [],
      "name": "decreaseOperation",
      "outputs": [],
      "stateMutability": "nonpayable",
      "type": "function"
    },
    {
      "inputs": [
        {
          "internalType": "uint256",
          "name": "_id",
          "type": "uint256"
        }
      ],
      "name": "getMaxOp",
      "outputs": [
        {
          "components": [
            {
              "internalType": "uint32",
              "name": "amount",
              "type": "uint32"
            },
            {
              "internalType": "uint32",
              "name": "rest",
              "type": "uint32"
            }
          ],
          "internalType": "struct EAI.MaxNumberOfOperation",
          "name": "",
          "type": "tuple"
        }
      ],
      "stateMutability": "view",
      "type": "function",
      "constant": true
    },
    {
      "inputs": [],
      "name": "getAllMaxOperation",
      "outputs": [
        {
          "components": [
            {
              "internalType": "uint32",
              "name": "amount",
              "type": "uint32"
            },
            {
              "internalType": "uint32",
              "name": "rest",
              "type": "uint32"
            }
          ],
          "internalType": "struct EAI.MaxNumberOfOperation[]",
          "name": "",
          "type": "tuple[]"
        }
      ],
      "stateMutability": "view",
      "type": "function",
      "constant": true
    }
  ],
  "bytecode": "0x608060405234801561001057600080fd5b50600061002760056100a160201b61027d1760201c565b9080600181540180825580915050600190039060005260206000200160009091909190915060008201518160000160006101000a81548163ffffffff021916908363ffffffff16021790555060208201518160000160046101000a81548163ffffffff021916908363ffffffff16021790555050506100f7565b6100a96100d1565b60405180604001604052808363ffffffff1681526020018363ffffffff168152509050919050565b6040518060400160405280600063ffffffff168152602001600063ffffffff1681525090565b6106eb806101066000396000f3fe608060405234801561001057600080fd5b506004361061004c5760003560e01c806320f96206146100515780633c648b1f146100815780636f48a7641461008b5780639bc7148a146100bc575b600080fd5b61006b600480360381019061006691906103b2565b6100da565b604051610078919061042d565b60405180910390f35b61008961015e565b005b6100a560048036038101906100a091906103b2565b610186565b6040516100b3929190610457565b60405180910390f35b6100c46101d6565b6040516100d1919061055e565b60405180910390f35b6100e2610351565b600082815481106100f6576100f5610580565b5b906000526020600020016040518060400160405290816000820160009054906101000a900463ffffffff1663ffffffff1663ffffffff1681526020016000820160049054906101000a900463ffffffff1663ffffffff1663ffffffff16815250509050919050565b6101846000808154811061017557610174610580565b5b906000526020600020016102ad565b565b6000818154811061019657600080fd5b906000526020600020016000915090508060000160009054906101000a900463ffffffff16908060000160049054906101000a900463ffffffff16905082565b60606000805480602002602001604051908101604052809291908181526020016000905b82821015610274578382906000526020600020016040518060400160405290816000820160009054906101000a900463ffffffff1663ffffffff1663ffffffff1681526020016000820160049054906101000a900463ffffffff1663ffffffff1663ffffffff1681525050815260200190600101906101fa565b50505050905090565b610285610351565b60405180604001604052808363ffffffff1681526020018363ffffffff168152509050919050565b8060000160049054906101000a900463ffffffff1660008163ffffffff161161030b576040517f08c379a000000000000000000000000000000000000000000000000000000000815260040161030290610632565b60405180910390fd5b60018260000160048282829054906101000a900463ffffffff1661032f9190610681565b92506101000a81548163ffffffff021916908363ffffffff1602179055505050565b6040518060400160405280600063ffffffff168152602001600063ffffffff1681525090565b600080fd5b6000819050919050565b61038f8161037c565b811461039a57600080fd5b50565b6000813590506103ac81610386565b92915050565b6000602082840312156103c8576103c7610377565b5b60006103d68482850161039d565b91505092915050565b600063ffffffff82169050919050565b6103f8816103df565b82525050565b60408201600082015161041460008501826103ef565b50602082015161042760208501826103ef565b50505050565b600060408201905061044260008301846103fe565b92915050565b610451816103df565b82525050565b600060408201905061046c6000830185610448565b6104796020830184610448565b9392505050565b600081519050919050565b600082825260208201905092915050565b6000819050602082019050919050565b6040820160008201516104c260008501826103ef565b5060208201516104d560208501826103ef565b50505050565b60006104e783836104ac565b60408301905092915050565b6000602082019050919050565b600061050b82610480565b610515818561048b565b93506105208361049c565b8060005b8381101561055157815161053888826104db565b9750610543836104f3565b925050600181019050610524565b5085935050505092915050565b600060208201905081810360008301526105788184610500565b905092915050565b7f4e487b7100000000000000000000000000000000000000000000000000000000600052603260045260246000fd5b600082825260208201905092915050565b7f546865726520617265206e6f206f7065726174696f6e7320617661696c61626c60008201527f6500000000000000000000000000000000000000000000000000000000000000602082015250565b600061061c6021836105af565b9150610627826105c0565b604082019050919050565b6000602082019050818103600083015261064b8161060f565b9050919050565b7f4e487b7100000000000000000000000000000000000000000000000000000000600052601160045260246000fd5b600061068c826103df565b9150610697836103df565b9250828210156106aa576106a9610652565b5b82820390509291505056fea26469706673582212206e6f691f366b0691d3a104eb52849149e7d8b79aa30e95437095fb627a47c9fb64736f6c634300080d0033",
  "immutableReferences": {},
  "source": "// SPDX-License-Identifier: MIT\r\npragma solidity >0.8.4 < 0.8.14;\r\n// pragma experimental 'ABIEncoderV2';\r\nimport \"../eai/EAI.sol\";\r\n\r\ncontract MaxNumberOfOperation_refCod {   \r\n\r\nusing EAI for EAI.MaxNumberOfOperation;\r\n\r\nEAI.MaxNumberOfOperation[] public maxOp;\r\n\r\nconstructor (){\r\n    maxOp.push(EAI.createMaxNumberOfOperation(5));\r\n}\r\n\r\n    function decreaseOperation()public {\r\n        maxOp[0].decreaseNumberOfOperation();\r\n    }\r\n\r\n    function getMaxOp(uint _id) public view returns(EAI.MaxNumberOfOperation memory){\r\n        return maxOp[_id];\r\n    }\r\n\r\n    function getAllMaxOperation() public view returns (EAI.MaxNumberOfOperation[] memory){\r\n        return maxOp;\r\n    }\r\n\r\n}",
  "sourcePath": "/home/eldair/git-repository/dsl-smart-contract-eai/02-models/ProofOfConcept/contracts/lib/referencesCode-eai/MaxNumberOfOperation_refCod.sol",
  "compiler": {
    "name": "solc",
    "version": "0.8.13+commit.abaa5c0e.Emscripten.clang"
  },
  "schemaVersion": "3.4.11",
  "updatedAt": "2023-01-04T22:56:54.381Z",
  "networkType": "ethereum",
  "devdoc": {
    "kind": "dev",
    "methods": {},
    "version": 1
  },
  "userdoc": {
    "kind": "user",
    "methods": {},
    "version": 1
  }
}