{
  "contractName": "MaxNumberOfOperationByTime_refCod",
  "abi": [
    {
      "inputs": [],
      "stateMutability": "nonpayable",
      "type": "constructor"
    },
    {
      "inputs": [
        {
          "internalType": "uint8",
          "name": "timeUnit",
          "type": "uint8"
        },
        {
          "internalType": "uint32",
          "name": "_accessTime",
          "type": "uint32"
        }
      ],
      "name": "decreaseOperation",
      "outputs": [],
      "stateMutability": "nonpayable",
      "type": "function"
    },
    {
      "inputs": [
        {
          "internalType": "uint256",
          "name": "_id",
          "type": "uint256"
        }
      ],
      "name": "getMaxOp",
      "outputs": [
        {
          "components": [
            {
              "internalType": "uint32",
              "name": "amount",
              "type": "uint32"
            },
            {
              "internalType": "uint8",
              "name": "timeUnit",
              "type": "uint8"
            },
            {
              "internalType": "uint32",
              "name": "byTime",
              "type": "uint32"
            },
            {
              "internalType": "uint32",
              "name": "rest",
              "type": "uint32"
            },
            {
              "internalType": "uint32",
              "name": "endTime",
              "type": "uint32"
            }
          ],
          "internalType": "struct EAI.MaxNumberOfOperationByTime",
          "name": "",
          "type": "tuple"
        }
      ],
      "stateMutability": "view",
      "type": "function",
      "constant": true
    },
    {
      "inputs": [
        {
          "internalType": "uint256",
          "name": "_timestamp",
          "type": "uint256"
        }
      ],
      "name": "testTimestampToDate",
      "outputs": [
        {
          "internalType": "uint32",
          "name": "year",
          "type": "uint32"
        },
        {
          "internalType": "uint32",
          "name": "month",
          "type": "uint32"
        },
        {
          "internalType": "uint32",
          "name": "day",
          "type": "uint32"
        }
      ],
      "stateMutability": "pure",
      "type": "function",
      "constant": true
    },
    {
      "inputs": [],
      "name": "getAllMaxOp",
      "outputs": [
        {
          "components": [
            {
              "internalType": "uint32",
              "name": "amount",
              "type": "uint32"
            },
            {
              "internalType": "uint8",
              "name": "timeUnit",
              "type": "uint8"
            },
            {
              "internalType": "uint32",
              "name": "byTime",
              "type": "uint32"
            },
            {
              "internalType": "uint32",
              "name": "rest",
              "type": "uint32"
            },
            {
              "internalType": "uint32",
              "name": "endTime",
              "type": "uint32"
            }
          ],
          "internalType": "struct EAI.MaxNumberOfOperationByTime[]",
          "name": "",
          "type": "tuple[]"
        }
      ],
      "stateMutability": "view",
      "type": "function",
      "constant": true
    }
  ],
  "bytecode": "0x60806040523480156200001157600080fd5b5060006200002d600260006200071060201b620004e61760201c565b9080600181540180825580915050600190039060005260206000200160009091909190915060008201518160000160006101000a81548163ffffffff021916908363ffffffff16021790555060208201518160000160046101000a81548160ff021916908360ff16021790555060408201518160000160056101000a81548163ffffffff021916908363ffffffff16021790555060608201518160000160096101000a81548163ffffffff021916908363ffffffff160217905550608082015181600001600d6101000a81548163ffffffff021916908363ffffffff160217905550505060006200012c600260016200071060201b620004e61760201c565b9080600181540180825580915050600190039060005260206000200160009091909190915060008201518160000160006101000a81548163ffffffff021916908363ffffffff16021790555060208201518160000160046101000a81548160ff021916908360ff16021790555060408201518160000160056101000a81548163ffffffff021916908363ffffffff16021790555060608201518160000160096101000a81548163ffffffff021916908363ffffffff160217905550608082015181600001600d6101000a81548163ffffffff021916908363ffffffff160217905550505060006200022a6002806200071060201b620004e61760201c565b9080600181540180825580915050600190039060005260206000200160009091909190915060008201518160000160006101000a81548163ffffffff021916908363ffffffff16021790555060208201518160000160046101000a81548160ff021916908360ff16021790555060408201518160000160056101000a81548163ffffffff021916908363ffffffff16021790555060608201518160000160096101000a81548163ffffffff021916908363ffffffff160217905550608082015181600001600d6101000a81548163ffffffff021916908363ffffffff1602179055505050600062000329600260036200071060201b620004e61760201c565b9080600181540180825580915050600190039060005260206000200160009091909190915060008201518160000160006101000a81548163ffffffff021916908363ffffffff16021790555060208201518160000160046101000a81548160ff021916908360ff16021790555060408201518160000160056101000a81548163ffffffff021916908363ffffffff16021790555060608201518160000160096101000a81548163ffffffff021916908363ffffffff160217905550608082015181600001600d6101000a81548163ffffffff021916908363ffffffff1602179055505050600062000428600260046200071060201b620004e61760201c565b9080600181540180825580915050600190039060005260206000200160009091909190915060008201518160000160006101000a81548163ffffffff021916908363ffffffff16021790555060208201518160000160046101000a81548160ff021916908360ff16021790555060408201518160000160056101000a81548163ffffffff021916908363ffffffff16021790555060608201518160000160096101000a81548163ffffffff021916908363ffffffff160217905550608082015181600001600d6101000a81548163ffffffff021916908363ffffffff1602179055505050600062000527600260056200071060201b620004e61760201c565b9080600181540180825580915050600190039060005260206000200160009091909190915060008201518160000160006101000a81548163ffffffff021916908363ffffffff16021790555060208201518160000160046101000a81548160ff021916908360ff16021790555060408201518160000160056101000a81548163ffffffff021916908363ffffffff16021790555060608201518160000160096101000a81548163ffffffff021916908363ffffffff160217905550608082015181600001600d6101000a81548163ffffffff021916908363ffffffff1602179055505050600062000626600260066200071060201b620004e61760201c565b9080600181540180825580915050600190039060005260206000200160009091909190915060008201518160000160006101000a81548163ffffffff021916908363ffffffff16021790555060208201518160000160046101000a81548160ff021916908360ff16021790555060408201518160000160056101000a81548163ffffffff021916908363ffffffff16021790555060608201518160000160096101000a81548163ffffffff021916908363ffffffff160217905550608082015181600001600d6101000a81548163ffffffff021916908363ffffffff16021790555050506200094b565b6200071a62000858565b6000600460ff168360ff161162000744576200073c836200079660201b60201c565b905062000749565b600190505b6040518060a001604052808563ffffffff1681526020018460ff1681526020018263ffffffff168152602001600063ffffffff168152602001600063ffffffff1681525091505092915050565b6000600460ff168260ff161115620007e5576040517f08c379a0000000000000000000000000000000000000000000000000000000008152600401620007dc9062000929565b60405180910390fd5b600060ff168260ff1603620007fe576001905062000853565b600160ff168260ff16036200081757603c905062000853565b600260ff168260ff16036200083157610e10905062000853565b600360ff168260ff16036200084c5762015180905062000853565b62093a8090505b919050565b6040518060a00160405280600063ffffffff168152602001600060ff168152602001600063ffffffff168152602001600063ffffffff168152602001600063ffffffff1681525090565b600082825260208201905092915050565b7f546865206d6574686f642067657454696d65496e5365636f6e647320646f657360008201527f6e277420776f726b20666f72204d4f4e544820616e6420594541520000000000602082015250565b600062000911603b83620008a2565b91506200091e82620008b3565b604082019050919050565b60006020820190508181036000830152620009448162000902565b9050919050565b61124a806200095b6000396000f3fe608060405234801561001057600080fd5b506004361061004c5760003560e01c806320f962061461005157806361eab30914610081578063ab6e1063146100b3578063da7d9cdf146100d1575b600080fd5b61006b60048036038101906100669190610bbb565b6100ed565b6040516100789190610c8b565b60405180910390f35b61009b60048036038101906100969190610bbb565b6101da565b6040516100aa93929190610cb5565b60405180910390f35b6100bb6101f5565b6040516100c89190610e03565b60405180910390f35b6100eb60048036038101906100e69190610e7d565b610305565b005b6100f5610b36565b6000828154811061010957610108610ebd565b5b906000526020600020016040518060a00160405290816000820160009054906101000a900463ffffffff1663ffffffff1663ffffffff1681526020016000820160049054906101000a900460ff1660ff1660ff1681526020016000820160059054906101000a900463ffffffff1663ffffffff1663ffffffff1681526020016000820160099054906101000a900463ffffffff1663ffffffff1663ffffffff16815260200160008201600d9054906101000a900463ffffffff1663ffffffff1663ffffffff16815250509050919050565b60008060006101e884610560565b9250925092509193909250565b60606000805480602002602001604051908101604052809291908181526020016000905b828210156102fc578382906000526020600020016040518060a00160405290816000820160009054906101000a900463ffffffff1663ffffffff1663ffffffff1681526020016000820160049054906101000a900460ff1660ff1660ff1681526020016000820160059054906101000a900463ffffffff1663ffffffff1663ffffffff1681526020016000820160099054906101000a900463ffffffff1663ffffffff1663ffffffff16815260200160008201600d9054906101000a900463ffffffff1663ffffffff1663ffffffff168152505081526020019060010190610219565b50505050905090565b600060ff168260ff160361034857610343816000808154811061032b5761032a610ebd565b5b9060005260206000200161071390919063ffffffff16565b6104e2565b600160ff168260ff160361038c5761038781600060018154811061036f5761036e610ebd565b5b9060005260206000200161071390919063ffffffff16565b6104e1565b600260ff168260ff16036103d0576103cb8160006002815481106103b3576103b2610ebd565b5b9060005260206000200161071390919063ffffffff16565b6104e0565b600360ff168260ff16036104145761040f8160006003815481106103f7576103f6610ebd565b5b9060005260206000200161071390919063ffffffff16565b6104df565b600460ff168260ff16036104585761045381600060048154811061043b5761043a610ebd565b5b9060005260206000200161071390919063ffffffff16565b6104de565b600560ff168260ff160361049c5761049781600060058154811061047f5761047e610ebd565b5b9060005260206000200161071390919063ffffffff16565b6104dd565b600660ff168260ff16036104dc576104db8160006006815481106104c3576104c2610ebd565b5b9060005260206000200161071390919063ffffffff16565b5b5b5b5b5b5b5b5050565b6104ee610b36565b6000600460ff168360ff161161050e57610507836107d0565b9050610513565b600190505b6040518060a001604052808563ffffffff1681526020018460ff1681526020018263ffffffff168152602001600063ffffffff168152602001600063ffffffff1681525091505092915050565b6000806000806201518063ffffffff168561057b9190610f4a565b9050600062253d8c62010bd9836105929190610f7b565b61059c9190610f7b565b9050600062023ab18260046105b19190610fb5565b6105bb9190610ff3565b9050600460038262023ab16105d09190610fb5565b6105da9190610f7b565b6105e49190610ff3565b826105ef9190611024565b9150600062164b096001846106049190610f7b565b610fa06106119190610fb5565b61061b9190610ff3565b9050601f6004826105b561062f9190610fb5565b6106399190610ff3565b846106449190611024565b61064e9190610f7b565b9250600061098f8460506106629190610fb5565b61066c9190610ff3565b9050600060508261098f6106809190610fb5565b61068a9190610ff3565b856106959190611024565b9050600b826106a49190610ff3565b945084600c6106b39190610fb5565b6002836106c09190610f7b565b6106ca9190611024565b915084836031866106db9190611024565b60646106e79190610fb5565b6106f19190610f7b565b6106fb9190610f7b565b92508298508197508096505050505050509193909250565b61071d8282610887565b1561072d5761072c82826109ac565b5b60008260000160099054906101000a900463ffffffff1663ffffffff161161078a576040517f08c379a0000000000000000000000000000000000000000000000000000000008152600401610781906110db565b60405180910390fd5b60018260000160098282829054906101000a900463ffffffff166107ae9190611024565b92506101000a81548163ffffffff021916908363ffffffff1602179055505050565b6000600460ff168260ff16111561081c576040517f08c379a00000000000000000000000000000000000000000000000000000000081526004016108139061116d565b60405180910390fd5b600060ff168260ff16036108335760019050610882565b600160ff168260ff160361084a57603c9050610882565b600260ff168260ff160361086257610e109050610882565b600360ff168260ff160361087b57620151809050610882565b62093a8090505b919050565b6000808360000160049054906101000a900460ff169050600460ff168160ff16116108d85783600001600d9054906101000a900463ffffffff1663ffffffff168363ffffffff1610159150506109a6565b600560ff168160ff16036109685760006108f78463ffffffff16610560565b50915050600d85600001600d9054906101000a900463ffffffff1663ffffffff1614801561092b575060018163ffffffff16145b1561093b576001925050506109a6565b84600001600d9054906101000a900463ffffffff1663ffffffff168163ffffffff161015925050506109a6565b60006109798463ffffffff16610560565b5050905084600001600d9054906101000a900463ffffffff1663ffffffff168163ffffffff161015925050505b92915050565b8160000160009054906101000a900463ffffffff168260000160096101000a81548163ffffffff021916908363ffffffff160217905550610a138260000160059054906101000a900463ffffffff168360000160049054906101000a900460ff1683610a39565b82600001600d6101000a81548163ffffffff021916908363ffffffff1602179055505050565b6000600460ff168360ff1611610a5b57610a54838386610acc565b9050610ac5565b600560ff168360ff1603610a99576000610a7a8363ffffffff16610560565b5063ffffffff16915050600181610a91919061118d565b915050610ac5565b6000610aaa8363ffffffff16610560565b505063ffffffff169050600181610ac1919061118d565b9150505b9392505050565b6000808284610adb91906111e3565b905060008184610aeb9190611024565b9050600460ff168660ff1603610b1e576203f4808186610b0b9190610f7b565b610b159190610f7b565b92505050610b2f565b8085610b2a9190610f7b565b925050505b9392505050565b6040518060a00160405280600063ffffffff168152602001600060ff168152602001600063ffffffff168152602001600063ffffffff168152602001600063ffffffff1681525090565b600080fd5b6000819050919050565b610b9881610b85565b8114610ba357600080fd5b50565b600081359050610bb581610b8f565b92915050565b600060208284031215610bd157610bd0610b80565b5b6000610bdf84828501610ba6565b91505092915050565b600063ffffffff82169050919050565b610c0181610be8565b82525050565b600060ff82169050919050565b610c1d81610c07565b82525050565b60a082016000820151610c396000850182610bf8565b506020820151610c4c6020850182610c14565b506040820151610c5f6040850182610bf8565b506060820151610c726060850182610bf8565b506080820151610c856080850182610bf8565b50505050565b600060a082019050610ca06000830184610c23565b92915050565b610caf81610be8565b82525050565b6000606082019050610cca6000830186610ca6565b610cd76020830185610ca6565b610ce46040830184610ca6565b949350505050565b600081519050919050565b600082825260208201905092915050565b6000819050602082019050919050565b60a082016000820151610d2e6000850182610bf8565b506020820151610d416020850182610c14565b506040820151610d546040850182610bf8565b506060820151610d676060850182610bf8565b506080820151610d7a6080850182610bf8565b50505050565b6000610d8c8383610d18565b60a08301905092915050565b6000602082019050919050565b6000610db082610cec565b610dba8185610cf7565b9350610dc583610d08565b8060005b83811015610df6578151610ddd8882610d80565b9750610de883610d98565b925050600181019050610dc9565b5085935050505092915050565b60006020820190508181036000830152610e1d8184610da5565b905092915050565b610e2e81610c07565b8114610e3957600080fd5b50565b600081359050610e4b81610e25565b92915050565b610e5a81610be8565b8114610e6557600080fd5b50565b600081359050610e7781610e51565b92915050565b60008060408385031215610e9457610e93610b80565b5b6000610ea285828601610e3c565b9250506020610eb385828601610e68565b9150509250929050565b7f4e487b7100000000000000000000000000000000000000000000000000000000600052603260045260246000fd5b7f4e487b7100000000000000000000000000000000000000000000000000000000600052601260045260246000fd5b7f4e487b7100000000000000000000000000000000000000000000000000000000600052601160045260246000fd5b6000610f5582610b85565b9150610f6083610b85565b925082610f7057610f6f610eec565b5b828204905092915050565b6000610f8682610be8565b9150610f9183610be8565b92508263ffffffff03821115610faa57610fa9610f1b565b5b828201905092915050565b6000610fc082610be8565b9150610fcb83610be8565b92508163ffffffff0483118215151615610fe857610fe7610f1b565b5b828202905092915050565b6000610ffe82610be8565b915061100983610be8565b92508261101957611018610eec565b5b828204905092915050565b600061102f82610be8565b915061103a83610be8565b92508282101561104d5761104c610f1b565b5b828203905092915050565b600082825260208201905092915050565b7f546865726520617265206e6f206f7065726174696f6e7320617661696c61626c60008201527f6500000000000000000000000000000000000000000000000000000000000000602082015250565b60006110c5602183611058565b91506110d082611069565b604082019050919050565b600060208201905081810360008301526110f4816110b8565b9050919050565b7f546865206d6574686f642067657454696d65496e5365636f6e647320646f657360008201527f6e277420776f726b20666f72204d4f4e544820616e6420594541520000000000602082015250565b6000611157603b83611058565b9150611162826110fb565b604082019050919050565b600060208201905081810360008301526111868161114a565b9050919050565b600061119882610b85565b91506111a383610b85565b9250827fffffffffffffffffffffffffffffffffffffffffffffffffffffffffffffffff038211156111d8576111d7610f1b565b5b828201905092915050565b60006111ee82610be8565b91506111f983610be8565b92508261120957611208610eec565b5b82820690509291505056fea264697066735822122043471031076f7ea886e71818e91791fb3c75f6b482c65557a50ad3ff42ca04e164736f6c634300080d0033",
  "immutableReferences": {},
  "source": "// SPDX-License-Identifier: MIT\r\npragma solidity >0.8.4 < 0.8.14;\r\nimport \"../eai/EAI.sol\";\r\n\r\ncontract MaxNumberOfOperationByTime_refCod{   \r\n\r\nusing EAI for EAI.MaxNumberOfOperationByTime;\r\n\r\nEAI.MaxNumberOfOperationByTime[] maxOp;\r\n\r\nconstructor (){\r\n    maxOp.push( EAI.createMaxNumberOfOperationByTime(2, EAI.SECOND));\r\n    maxOp.push( EAI.createMaxNumberOfOperationByTime(2, EAI.MINUTE));\r\n    maxOp.push( EAI.createMaxNumberOfOperationByTime(2, EAI.HOUR));\r\n    maxOp.push( EAI.createMaxNumberOfOperationByTime(2, EAI.DAY));\r\n    maxOp.push( EAI.createMaxNumberOfOperationByTime(2, EAI.WEEK));\r\n    maxOp.push( EAI.createMaxNumberOfOperationByTime(2, EAI.MONTH));\r\n    maxOp.push( EAI.createMaxNumberOfOperationByTime(2, EAI.YEAR));\r\n}\r\n\r\n    function decreaseOperation(uint8 timeUnit, uint32 _accessTime)public {\r\n        if(timeUnit == EAI.SECOND){\r\n            maxOp[0].decreaseNumberOfOperationByTime(_accessTime);\r\n        }else if(timeUnit == EAI.MINUTE){\r\n            maxOp[1].decreaseNumberOfOperationByTime(_accessTime);\r\n        }else if(timeUnit == EAI.HOUR ){\r\n            maxOp[2].decreaseNumberOfOperationByTime(_accessTime);\r\n        }else if(timeUnit == EAI.DAY){\r\n            maxOp[3].decreaseNumberOfOperationByTime(_accessTime);            \r\n        }else if(timeUnit == EAI.WEEK){\r\n            maxOp[4].decreaseNumberOfOperationByTime(_accessTime);\r\n        }else if(timeUnit == EAI.MONTH){\r\n            maxOp[5].decreaseNumberOfOperationByTime(_accessTime);\r\n        }else if(timeUnit == EAI.YEAR ){\r\n            maxOp[6].decreaseNumberOfOperationByTime(_accessTime);\r\n        }\r\n    }\r\n\r\n    function getMaxOp(uint _id) public view returns(EAI.MaxNumberOfOperationByTime memory){\r\n        return maxOp[_id];\r\n    }\r\n\r\n    function testTimestampToDate(uint _timestamp)public pure returns(uint32 year, uint32 month, uint32 day){\r\n        return EAI.timeStampToDate(_timestamp);\r\n    }\r\n\r\n    function getAllMaxOp() public view returns(EAI.MaxNumberOfOperationByTime[] memory){\r\n        return maxOp;\r\n    }\r\n    \r\n}",
  "sourcePath": "/home/eldair/git-repository/dsl-smart-contract-eai/02-models/ProofOfConcept/contracts/lib/referencesCode-eai/MaxNumberOfOperationByTime_refCod.sol",
  "compiler": {
    "name": "solc",
    "version": "0.8.13+commit.abaa5c0e.Emscripten.clang"
  },
  "schemaVersion": "3.4.11",
  "updatedAt": "2023-01-05T21:06:47.648Z",
  "networkType": "ethereum",
  "devdoc": {
    "kind": "dev",
    "methods": {},
    "version": 1
  },
  "userdoc": {
    "kind": "user",
    "methods": {},
    "version": 1
  }
}