{
  "contractName": "MessageContentString_refCod",
  "abi": [
    {
      "inputs": [],
      "stateMutability": "nonpayable",
      "type": "constructor"
    },
    {
      "inputs": [
        {
          "internalType": "uint256",
          "name": "_id",
          "type": "uint256"
        },
        {
          "internalType": "string",
          "name": "_content",
          "type": "string"
        }
      ],
      "name": "evaluateStringContent",
      "outputs": [
        {
          "internalType": "bool",
          "name": "",
          "type": "bool"
        }
      ],
      "stateMutability": "view",
      "type": "function",
      "constant": true
    },
    {
      "inputs": [
        {
          "internalType": "uint256",
          "name": "_id",
          "type": "uint256"
        }
      ],
      "name": "getMessageContent_byId",
      "outputs": [
        {
          "components": [
            {
              "internalType": "string",
              "name": "xpath",
              "type": "string"
            },
            {
              "internalType": "string",
              "name": "op",
              "type": "string"
            },
            {
              "internalType": "string",
              "name": "content",
              "type": "string"
            }
          ],
          "internalType": "struct EAI.MessageContent_String",
          "name": "",
          "type": "tuple"
        }
      ],
      "stateMutability": "view",
      "type": "function",
      "constant": true
    },
    {
      "inputs": [],
      "name": "getAllMessageContent",
      "outputs": [
        {
          "components": [
            {
              "internalType": "string",
              "name": "xpath",
              "type": "string"
            },
            {
              "internalType": "string",
              "name": "op",
              "type": "string"
            },
            {
              "internalType": "string",
              "name": "content",
              "type": "string"
            }
          ],
          "internalType": "struct EAI.MessageContent_String[]",
          "name": "",
          "type": "tuple[]"
        }
      ],
      "stateMutability": "view",
      "type": "function",
      "constant": true
    },
    {
      "inputs": [
        {
          "internalType": "uint256",
          "name": "a",
          "type": "uint256"
        }
      ],
      "name": "testKeccak256Int",
      "outputs": [
        {
          "internalType": "bool",
          "name": "",
          "type": "bool"
        }
      ],
      "stateMutability": "pure",
      "type": "function",
      "constant": true
    }
  ],
  "bytecode": "0x60806040523480156200001157600080fd5b506000620000cb6040518060400160405280600c81526020017f2f2f6365702f74657874282900000000000000000000000000000000000000008152506040518060400160405280600281526020017f3d3d0000000000000000000000000000000000000000000000000000000000008152506040518060400160405280600881526020017f39383730303030300000000000000000000000000000000000000000000000008152506200029a60201b620007d71760201c565b90806001815401808255809150506001900390600052602060002090600302016000909190919091506000820151816000019080519060200190620001129291906200038b565b506020820151816001019080519060200190620001319291906200038b565b506040820151816002019080519060200190620001509291906200038b565b50505060006200020c6040518060400160405280600d81526020017f2f2f6e6f6d652f746578742829000000000000000000000000000000000000008152506040518060400160405280600281526020017f213d0000000000000000000000000000000000000000000000000000000000008152506040518060400160405280600681526020017f456c6461697200000000000000000000000000000000000000000000000000008152506200029a60201b620007d71760201c565b90806001815401808255809150506001900390600052602060002090600302016000909190919091506000820151816000019080519060200190620002539291906200038b565b506020820151816001019080519060200190620002729291906200038b565b506040820151816002019080519060200190620002919291906200038b565b50505062000598565b620002a46200041c565b600083600081518110620002bd57620002bc6200045c565b5b602001015160f81c60f81b9050602160f81b817effffffffffffffffffffffffffffffffffffffffffffffffffffffffffffff19161480620003245750603d60f81b817effffffffffffffffffffffffffffffffffffffffffffffffffffffffffffff1916145b62000366576040517f08c379a00000000000000000000000000000000000000000000000000000000081526004016200035d9062000512565b60405180910390fd5b6040518060600160405280868152602001858152602001848152509150509392505050565b828054620003999062000563565b90600052602060002090601f016020900481019282620003bd576000855562000409565b82601f10620003d857805160ff191683800117855562000409565b8280016001018555821562000409579182015b8281111562000408578251825591602001919060010190620003eb565b5b5090506200041891906200043d565b5090565b60405180606001604052806060815260200160608152602001606081525090565b5b80821115620004585760008160009055506001016200043e565b5090565b7f4e487b7100000000000000000000000000000000000000000000000000000000600052603260045260246000fd5b600082825260208201905092915050565b7f4f6e6c792027213d27206f7220273d3d27206f70657261746f7273206973206160008201527f6c6c6f7720746f20636f6d7061726520737472696e6773000000000000000000602082015250565b6000620004fa6037836200048b565b915062000507826200049c565b604082019050919050565b600060208201905081810360008301526200052d81620004eb565b9050919050565b7f4e487b7100000000000000000000000000000000000000000000000000000000600052602260045260246000fd5b600060028204905060018216806200057c57607f821691505b60208210810362000592576200059162000534565b5b50919050565b6110b480620005a86000396000f3fe608060405234801561001057600080fd5b506004361061004c5760003560e01c80634bc67836146100515780635a13362014610081578063700fc41d146100b1578063f1affb34146100e1575b600080fd5b61006b60048036038101906100669190610a4c565b6100ff565b6040516100789190610b70565b60405180910390f35b61009b60048036038101906100969190610cc7565b6102f1565b6040516100a89190610d3e565b60405180910390f35b6100cb60048036038101906100c69190610a4c565b6104f0565b6040516100d89190610d3e565b60405180910390f35b6100e96105c2565b6040516100f69190610e79565b60405180910390f35b6101076109e1565b6000828154811061011b5761011a610e9b565b5b906000526020600020906003020160405180606001604052908160008201805461014490610ef9565b80601f016020809104026020016040519081016040528092919081815260200182805461017090610ef9565b80156101bd5780601f10610192576101008083540402835291602001916101bd565b820191906000526020600020905b8154815290600101906020018083116101a057829003601f168201915b505050505081526020016001820180546101d690610ef9565b80601f016020809104026020016040519081016040528092919081815260200182805461020290610ef9565b801561024f5780601f106102245761010080835404028352916020019161024f565b820191906000526020600020905b81548152906001019060200180831161023257829003601f168201915b5050505050815260200160028201805461026890610ef9565b80601f016020809104026020016040519081016040528092919081815260200182805461029490610ef9565b80156102e15780601f106102b6576101008083540402835291602001916102e1565b820191906000526020600020905b8154815290600101906020018083116102c457829003601f168201915b5050505050815250509050919050565b60006104e8826000858154811061030b5761030a610e9b565b5b906000526020600020906003020160405180606001604052908160008201805461033490610ef9565b80601f016020809104026020016040519081016040528092919081815260200182805461036090610ef9565b80156103ad5780601f10610382576101008083540402835291602001916103ad565b820191906000526020600020905b81548152906001019060200180831161039057829003601f168201915b505050505081526020016001820180546103c690610ef9565b80601f01602080910402602001604051908101604052809291908181526020018280546103f290610ef9565b801561043f5780601f106104145761010080835404028352916020019161043f565b820191906000526020600020905b81548152906001019060200180831161042257829003601f168201915b5050505050815260200160028201805461045890610ef9565b80601f016020809104026020016040519081016040528092919081815260200182805461048490610ef9565b80156104d15780601f106104a6576101008083540402835291602001916104d1565b820191906000526020600020905b8154815290600101906020018083116104b457829003601f168201915b5050505050815250506108bf90919063ffffffff16565b905092915050565b60008167ffffffffffffffff81111561050c5761050b610b9c565b5b6040519080825280601f01601f19166020018201604052801561053e5781602001600182028036833780820191505090505b5080519060200120602967ffffffffffffffff81111561056157610560610b9c565b5b6040519080825280601f01601f1916602001820160405280156105935781602001600182028036833780820191505090505b506040516020016105a49190610f71565b60405160208183030381529060405280519060200120149050919050565b60606000805480602002602001604051908101604052809291908181526020016000905b828210156107ce578382906000526020600020906003020160405180606001604052908160008201805461061990610ef9565b80601f016020809104026020016040519081016040528092919081815260200182805461064590610ef9565b80156106925780601f1061066757610100808354040283529160200191610692565b820191906000526020600020905b81548152906001019060200180831161067557829003601f168201915b505050505081526020016001820180546106ab90610ef9565b80601f01602080910402602001604051908101604052809291908181526020018280546106d790610ef9565b80156107245780601f106106f957610100808354040283529160200191610724565b820191906000526020600020905b81548152906001019060200180831161070757829003601f168201915b5050505050815260200160028201805461073d90610ef9565b80601f016020809104026020016040519081016040528092919081815260200182805461076990610ef9565b80156107b65780601f1061078b576101008083540402835291602001916107b6565b820191906000526020600020905b81548152906001019060200180831161079957829003601f168201915b505050505081525050815260200190600101906105e6565b50505050905090565b6107df6109e1565b6000836000815181106107f5576107f4610e9b565b5b602001015160f81c60f81b9050602160f81b817effffffffffffffffffffffffffffffffffffffffffffffffffffffffffffff1916148061085b5750603d60f81b817effffffffffffffffffffffffffffffffffffffffffffffffffffffffffffff1916145b61089a576040517f08c379a00000000000000000000000000000000000000000000000000000000081526004016108919061100b565b60405180910390fd5b6040518060600160405280868152602001858152602001848152509150509392505050565b6000602160f81b83602001516000815181106108de576108dd610e9b565b5b602001015160f81c60f81b7effffffffffffffffffffffffffffffffffffffffffffffffffffffffffffff1916036109755782604001516040516020016109259190611067565b604051602081830303815290604052805190602001208260405160200161094c9190611067565b604051602081830303815290604052805190602001201461097057600190506109db565b6109d6565b826040015160405160200161098a9190611067565b60405160208183030381529060405280519060200120826040516020016109b19190611067565b60405160208183030381529060405280519060200120036109d557600190506109db565b5b600090505b92915050565b60405180606001604052806060815260200160608152602001606081525090565b6000604051905090565b600080fd5b600080fd5b6000819050919050565b610a2981610a16565b8114610a3457600080fd5b50565b600081359050610a4681610a20565b92915050565b600060208284031215610a6257610a61610a0c565b5b6000610a7084828501610a37565b91505092915050565b600081519050919050565b600082825260208201905092915050565b60005b83811015610ab3578082015181840152602081019050610a98565b83811115610ac2576000848401525b50505050565b6000601f19601f8301169050919050565b6000610ae482610a79565b610aee8185610a84565b9350610afe818560208601610a95565b610b0781610ac8565b840191505092915050565b60006060830160008301518482036000860152610b2f8282610ad9565b91505060208301518482036020860152610b498282610ad9565b91505060408301518482036040860152610b638282610ad9565b9150508091505092915050565b60006020820190508181036000830152610b8a8184610b12565b905092915050565b600080fd5b600080fd5b7f4e487b7100000000000000000000000000000000000000000000000000000000600052604160045260246000fd5b610bd482610ac8565b810181811067ffffffffffffffff82111715610bf357610bf2610b9c565b5b80604052505050565b6000610c06610a02565b9050610c128282610bcb565b919050565b600067ffffffffffffffff821115610c3257610c31610b9c565b5b610c3b82610ac8565b9050602081019050919050565b82818337600083830152505050565b6000610c6a610c6584610c17565b610bfc565b905082815260208101848484011115610c8657610c85610b97565b5b610c91848285610c48565b509392505050565b600082601f830112610cae57610cad610b92565b5b8135610cbe848260208601610c57565b91505092915050565b60008060408385031215610cde57610cdd610a0c565b5b6000610cec85828601610a37565b925050602083013567ffffffffffffffff811115610d0d57610d0c610a11565b5b610d1985828601610c99565b9150509250929050565b60008115159050919050565b610d3881610d23565b82525050565b6000602082019050610d536000830184610d2f565b92915050565b600081519050919050565b600082825260208201905092915050565b6000819050602082019050919050565b60006060830160008301518482036000860152610da28282610ad9565b91505060208301518482036020860152610dbc8282610ad9565b91505060408301518482036040860152610dd68282610ad9565b9150508091505092915050565b6000610def8383610d85565b905092915050565b6000602082019050919050565b6000610e0f82610d59565b610e198185610d64565b935083602082028501610e2b85610d75565b8060005b85811015610e675784840389528151610e488582610de3565b9450610e5383610df7565b925060208a01995050600181019050610e2f565b50829750879550505050505092915050565b60006020820190508181036000830152610e938184610e04565b905092915050565b7f4e487b7100000000000000000000000000000000000000000000000000000000600052603260045260246000fd5b7f4e487b7100000000000000000000000000000000000000000000000000000000600052602260045260246000fd5b60006002820490506001821680610f1157607f821691505b602082108103610f2457610f23610eca565b5b50919050565b600081519050919050565b600081905092915050565b6000610f4b82610f2a565b610f558185610f35565b9350610f65818560208601610a95565b80840191505092915050565b6000610f7d8284610f40565b915081905092915050565b600082825260208201905092915050565b7f4f6e6c792027213d27206f7220273d3d27206f70657261746f7273206973206160008201527f6c6c6f7720746f20636f6d7061726520737472696e6773000000000000000000602082015250565b6000610ff5603783610f88565b915061100082610f99565b604082019050919050565b6000602082019050818103600083015261102481610fe8565b9050919050565b600081905092915050565b600061104182610a79565b61104b818561102b565b935061105b818560208601610a95565b80840191505092915050565b60006110738284611036565b91508190509291505056fea26469706673582212208dafbbe0994f2ff59b073c6f2b76ad0400ddc21fea1e9dc0b546d5bb4d1fcd9364736f6c634300080d0033",
  "immutableReferences": {},
  "source": "// SPDX-License-Identifier: MIT\npragma solidity >0.8.4 < 0.8.14;\nimport \"../eai/EAI.sol\";\n\ncontract MessageContentString_refCod{   \n\n    using EAI for EAI.MessageContent_String;\n\n    EAI.MessageContent_String[] msgContent;\n\n    constructor (){\n        msgContent.push(EAI.createMessageContent(\"//cep/text()\", \"==\", \"98700000\"));\n        msgContent.push(EAI.createMessageContent(\"//nome/text()\", \"!=\", \"Eldair\"));\n    }\n\n    function evaluateStringContent(uint _id, string memory _content) public view returns(bool){\n        return  msgContent[_id].evaluateStringContent(_content);        \n    }    \n\n    function getMessageContent_byId(uint _id) public view returns(EAI.MessageContent_String memory){\n        return msgContent[_id];\n    }\n\n    function getAllMessageContent()public view returns(EAI.MessageContent_String[] memory){\n        return msgContent;\n    }\n    \n    function testKeccak256Int(uint a) public pure returns(bool){\n        return ( keccak256(abi.encodePacked(new bytes(41))) == keccak256(new bytes(a)));\n    }\n}\n",
  "sourcePath": "/home/eldair/git-repository/dsl-smart-contract-eai/02-models/ProofOfConcept/contracts/lib/referencesCode-eai/007_MessageContentString_refCod.sol",
  "compiler": {
    "name": "solc",
    "version": "0.8.13+commit.abaa5c0e.Emscripten.clang"
  },
  "schemaVersion": "3.4.11",
  "updatedAt": "2023-02-03T20:53:38.916Z",
  "networkType": "ethereum",
  "devdoc": {
    "kind": "dev",
    "methods": {},
    "version": 1
  },
  "userdoc": {
    "kind": "user",
    "methods": {},
    "version": 1
  }
}