{
  "contractName": "MessageContentNumber_refCod",
  "abi": [
    {
      "inputs": [],
      "stateMutability": "nonpayable",
      "type": "constructor"
    },
    {
      "inputs": [],
      "name": "getAllMessageContents",
      "outputs": [
        {
          "components": [
            {
              "internalType": "string",
              "name": "xpath",
              "type": "string"
            },
            {
              "internalType": "string",
              "name": "op",
              "type": "string"
            },
            {
              "internalType": "int256",
              "name": "content",
              "type": "int256"
            }
          ],
          "internalType": "struct EAI.MessageContent_Number[]",
          "name": "",
          "type": "tuple[]"
        }
      ],
      "stateMutability": "view",
      "type": "function",
      "constant": true
    },
    {
      "inputs": [
        {
          "internalType": "uint256",
          "name": "_id",
          "type": "uint256"
        }
      ],
      "name": "getMessageContentById",
      "outputs": [
        {
          "components": [
            {
              "internalType": "string",
              "name": "xpath",
              "type": "string"
            },
            {
              "internalType": "string",
              "name": "op",
              "type": "string"
            },
            {
              "internalType": "int256",
              "name": "content",
              "type": "int256"
            }
          ],
          "internalType": "struct EAI.MessageContent_Number",
          "name": "",
          "type": "tuple"
        }
      ],
      "stateMutability": "view",
      "type": "function",
      "constant": true
    },
    {
      "inputs": [
        {
          "internalType": "uint256",
          "name": "_id",
          "type": "uint256"
        },
        {
          "internalType": "int256",
          "name": "content",
          "type": "int256"
        }
      ],
      "name": "evaluateMessageContent",
      "outputs": [
        {
          "internalType": "bool",
          "name": "",
          "type": "bool"
        }
      ],
      "stateMutability": "view",
      "type": "function",
      "constant": true
    }
  ],
  "bytecode": "0x60806040523480156200001157600080fd5b506000620000976040518060400160405280600c81526020017f636f756e74282f2f6365702900000000000000000000000000000000000000008152506040518060400160405280600281526020017f213d0000000000000000000000000000000000000000000000000000000000008152506001620005e860201b620005321760201c565b90806001815401808255809150506001900390600052602060002090600302016000909190919091506000820151816000019080519060200190620000de92919062000616565b506020820151816001019080519060200190620000fd92919062000616565b5060408201518160020155505060006200018f6040518060400160405280600c81526020017f636f756e74282f2f6365702900000000000000000000000000000000000000008152506040518060400160405280600281526020017f3d3d0000000000000000000000000000000000000000000000000000000000008152506002620005e860201b620005321760201c565b90806001815401808255809150506001900390600052602060002090600302016000909190919091506000820151816000019080519060200190620001d692919062000616565b506020820151816001019080519060200190620001f592919062000616565b506040820151816002015550506000620002876040518060400160405280600c81526020017f636f756e74282f2f6365702900000000000000000000000000000000000000008152506040518060400160405280600181526020017f3c000000000000000000000000000000000000000000000000000000000000008152506003620005e860201b620005321760201c565b90806001815401808255809150506001900390600052602060002090600302016000909190919091506000820151816000019080519060200190620002ce92919062000616565b506020820151816001019080519060200190620002ed92919062000616565b5060408201518160020155505060006200037f6040518060400160405280600c81526020017f636f756e74282f2f6365702900000000000000000000000000000000000000008152506040518060400160405280600281526020017f3c3d0000000000000000000000000000000000000000000000000000000000008152506004620005e860201b620005321760201c565b90806001815401808255809150506001900390600052602060002090600302016000909190919091506000820151816000019080519060200190620003c692919062000616565b506020820151816001019080519060200190620003e592919062000616565b506040820151816002015550506000620004776040518060400160405280600c81526020017f636f756e74282f2f6365702900000000000000000000000000000000000000008152506040518060400160405280600181526020017f3e000000000000000000000000000000000000000000000000000000000000008152506005620005e860201b620005321760201c565b90806001815401808255809150506001900390600052602060002090600302016000909190919091506000820151816000019080519060200190620004be92919062000616565b506020820151816001019080519060200190620004dd92919062000616565b5060408201518160020155505060006200056f6040518060400160405280600c81526020017f636f756e74282f2f6365702900000000000000000000000000000000000000008152506040518060400160405280600281526020017f3e3d0000000000000000000000000000000000000000000000000000000000008152506006620005e860201b620005321760201c565b90806001815401808255809150506001900390600052602060002090600302016000909190919091506000820151816000019080519060200190620005b692919062000616565b506020820151816001019080519060200190620005d592919062000616565b506040820151816002015550506200074b565b620005f2620006a7565b60405180606001604052808581526020018481526020018381525090509392505050565b828054620006249062000716565b90600052602060002090601f01602090048101928262000648576000855562000694565b82601f106200066357805160ff191683800117855562000694565b8280016001018555821562000694579182015b828111156200069357825182559160200191906001019062000676565b5b509050620006a39190620006c8565b5090565b60405180606001604052806060815260200160608152602001600081525090565b5b80821115620006e3576000816000905550600101620006c9565b5090565b7f4e487b7100000000000000000000000000000000000000000000000000000000600052602260045260246000fd5b600060028204905060018216806200072f57607f821691505b602082108103620007455762000744620006e7565b5b50919050565b610c23806200075b6000396000f3fe608060405234801561001057600080fd5b50600436106100415760003560e01c80630ab8ac0c14610046578063c1078fe114610064578063f98d814314610094575b600080fd5b61004e6100c4565b60405161005b919061093c565b60405180910390f35b61007e600480360381019061007991906109c5565b610251565b60405161008b9190610a20565b60405180910390f35b6100ae60048036038101906100a99190610a3b565b6103c8565b6040516100bb9190610abf565b60405180910390f35b60606000805480602002602001604051908101604052809291908181526020016000905b82821015610248578382906000526020600020906003020160405180606001604052908160008201805461011b90610b10565b80601f016020809104026020016040519081016040528092919081815260200182805461014790610b10565b80156101945780601f1061016957610100808354040283529160200191610194565b820191906000526020600020905b81548152906001019060200180831161017757829003601f168201915b505050505081526020016001820180546101ad90610b10565b80601f01602080910402602001604051908101604052809291908181526020018280546101d990610b10565b80156102265780601f106101fb57610100808354040283529160200191610226565b820191906000526020600020905b81548152906001019060200180831161020957829003601f168201915b50505050508152602001600282015481525050815260200190600101906100e8565b50505050905090565b60006103c0826000858154811061026b5761026a610b41565b5b906000526020600020906003020160405180606001604052908160008201805461029490610b10565b80601f01602080910402602001604051908101604052809291908181526020018280546102c090610b10565b801561030d5780601f106102e25761010080835404028352916020019161030d565b820191906000526020600020905b8154815290600101906020018083116102f057829003601f168201915b5050505050815260200160018201805461032690610b10565b80601f016020809104026020016040519081016040528092919081815260200182805461035290610b10565b801561039f5780601f106103745761010080835404028352916020019161039f565b820191906000526020600020905b81548152906001019060200180831161038257829003601f168201915b5050505050815260200160028201548152505061055e90919063ffffffff16565b905092915050565b6103d0610750565b600082815481106103e4576103e3610b41565b5b906000526020600020906003020160405180606001604052908160008201805461040d90610b10565b80601f016020809104026020016040519081016040528092919081815260200182805461043990610b10565b80156104865780601f1061045b57610100808354040283529160200191610486565b820191906000526020600020905b81548152906001019060200180831161046957829003601f168201915b5050505050815260200160018201805461049f90610b10565b80601f01602080910402602001604051908101604052809291908181526020018280546104cb90610b10565b80156105185780601f106104ed57610100808354040283529160200191610518565b820191906000526020600020905b8154815290600101906020018083116104fb57829003601f168201915b505050505081526020016002820154815250509050919050565b61053a610750565b60405180606001604052808581526020018481526020018381525090509392505050565b60008083602001519050602160f81b8160008151811061058157610580610b41565b5b602001015160f81c60f81b7effffffffffffffffffffffffffffffffffffffffffffffffffffffffffffff1916036105c357836040015183141591505061074a565b603d60f81b816000815181106105dc576105db610b41565b5b602001015160f81c60f81b7effffffffffffffffffffffffffffffffffffffffffffffffffffffffffffff19160361061d578360400151831491505061074a565b603c60f81b8160008151811061063657610635610b41565b5b602001015160f81c60f81b7effffffffffffffffffffffffffffffffffffffffffffffffffffffffffffff19160361069057600281510361068157836040015183131591505061074a565b8360400151831291505061074a565b603e60f81b816000815181106106a9576106a8610b41565b5b602001015160f81c60f81b7effffffffffffffffffffffffffffffffffffffffffffffffffffffffffffff1916036107035760028151036106f457836040015183121591505061074a565b8360400151831391505061074a565b6000610744576040517f08c379a000000000000000000000000000000000000000000000000000000000815260040161073b90610bcd565b60405180910390fd5b60009150505b92915050565b60405180606001604052806060815260200160608152602001600081525090565b600081519050919050565b600082825260208201905092915050565b6000819050602082019050919050565b600081519050919050565b600082825260208201905092915050565b60005b838110156107d75780820151818401526020810190506107bc565b838111156107e6576000848401525b50505050565b6000601f19601f8301169050919050565b60006108088261079d565b61081281856107a8565b93506108228185602086016107b9565b61082b816107ec565b840191505092915050565b6000819050919050565b61084981610836565b82525050565b6000606083016000830151848203600086015261086c82826107fd565b9150506020830151848203602086015261088682826107fd565b915050604083015161089b6040860182610840565b508091505092915050565b60006108b2838361084f565b905092915050565b6000602082019050919050565b60006108d282610771565b6108dc818561077c565b9350836020820285016108ee8561078d565b8060005b8581101561092a578484038952815161090b85826108a6565b9450610916836108ba565b925060208a019950506001810190506108f2565b50829750879550505050505092915050565b6000602082019050818103600083015261095681846108c7565b905092915050565b600080fd5b6000819050919050565b61097681610963565b811461098157600080fd5b50565b6000813590506109938161096d565b92915050565b6109a281610836565b81146109ad57600080fd5b50565b6000813590506109bf81610999565b92915050565b600080604083850312156109dc576109db61095e565b5b60006109ea85828601610984565b92505060206109fb858286016109b0565b9150509250929050565b60008115159050919050565b610a1a81610a05565b82525050565b6000602082019050610a356000830184610a11565b92915050565b600060208284031215610a5157610a5061095e565b5b6000610a5f84828501610984565b91505092915050565b60006060830160008301518482036000860152610a8582826107fd565b91505060208301518482036020860152610a9f82826107fd565b9150506040830151610ab46040860182610840565b508091505092915050565b60006020820190508181036000830152610ad98184610a68565b905092915050565b7f4e487b7100000000000000000000000000000000000000000000000000000000600052602260045260246000fd5b60006002820490506001821680610b2857607f821691505b602082108103610b3b57610b3a610ae1565b5b50919050565b7f4e487b7100000000000000000000000000000000000000000000000000000000600052603260045260246000fd5b600082825260208201905092915050565b7f436f6d70617269736f6e2073796d626f6c206973206e6f742076616c69640000600082015250565b6000610bb7601e83610b70565b9150610bc282610b81565b602082019050919050565b60006020820190508181036000830152610be681610baa565b905091905056fea2646970667358221220f45373f04e9867412d5afdd3d1f9aa7e15b1abaef5104f5432ff59097eebac7e64736f6c634300080d0033",
  "immutableReferences": {},
  "source": "//SPDX-License-Identifier: MIT\r\n\r\npragma solidity > 0.8.4 < 0.8.14;\r\n\r\nimport \"../eai/EAI.sol\";\r\n\r\ncontract MessageContentNumber_refCod{\r\n    \r\n    using EAI for EAI.MessageContent_Number;\r\n\r\n    EAI.MessageContent_Number[] msgContent;\r\n\r\n    constructor(){\r\n        msgContent.push(EAI.createMessageContent(\"count(//cep)\", \"!=\",  1));\r\n        msgContent.push(EAI.createMessageContent(\"count(//cep)\", \"==\",  2));\r\n        msgContent.push(EAI.createMessageContent(\"count(//cep)\",  \"<\",  3));\r\n        msgContent.push(EAI.createMessageContent(\"count(//cep)\", \"<=\",  4));\r\n        msgContent.push(EAI.createMessageContent(\"count(//cep)\",  \">\",  5));\r\n        msgContent.push(EAI.createMessageContent(\"count(//cep)\", \">=\",  6));        \r\n    }   \r\n\r\n    function getAllMessageContents()public view returns(EAI.MessageContent_Number[] memory){\r\n        return msgContent;\r\n    }\r\n\r\n    function getMessageContentById(uint _id) public view returns(EAI.MessageContent_Number memory){\r\n        return msgContent[_id];\r\n    }\r\n\r\n    function evaluateMessageContent(uint _id, int256 content) public view returns(bool){\r\n        return msgContent[_id].evaluateNumberContent(content);\r\n    }\r\n}\r\n\r\n",
  "sourcePath": "D:\\UserData\\git-repository\\dsl-smart-contract-eai\\02-models\\ProofOfConcept\\contracts\\lib\\referencesCode-eai\\008_MessageContentNumber_refCod.sol",
  "compiler": {
    "name": "solc",
    "version": "0.8.13+commit.abaa5c0e.Emscripten.clang"
  },
  "schemaVersion": "3.4.11",
  "updatedAt": "2023-02-08T16:30:40.269Z",
  "networkType": "ethereum",
  "devdoc": {
    "kind": "dev",
    "methods": {},
    "version": 1
  },
  "userdoc": {
    "kind": "user",
    "methods": {},
    "version": 1
  }
}