{
  "contractName": "MessageContentString_refCod",
  "abi": [
    {
      "inputs": [],
      "stateMutability": "nonpayable",
      "type": "constructor"
    },
    {
      "inputs": [
        {
          "internalType": "uint256",
          "name": "_id",
          "type": "uint256"
        },
        {
          "internalType": "string",
          "name": "_content",
          "type": "string"
        }
      ],
      "name": "evaluateStringContent",
      "outputs": [
        {
          "internalType": "bool",
          "name": "",
          "type": "bool"
        }
      ],
      "stateMutability": "view",
      "type": "function",
      "constant": true
    },
    {
      "inputs": [
        {
          "internalType": "uint256",
          "name": "_id",
          "type": "uint256"
        }
      ],
      "name": "getMessageContent_byId",
      "outputs": [
        {
          "components": [
            {
              "internalType": "string",
              "name": "xpath",
              "type": "string"
            },
            {
              "internalType": "string",
              "name": "op",
              "type": "string"
            },
            {
              "internalType": "string",
              "name": "content",
              "type": "string"
            }
          ],
          "internalType": "struct EAI.MessageContent_String",
          "name": "",
          "type": "tuple"
        }
      ],
      "stateMutability": "view",
      "type": "function",
      "constant": true
    },
    {
      "inputs": [],
      "name": "getAllMessageContent",
      "outputs": [
        {
          "components": [
            {
              "internalType": "string",
              "name": "xpath",
              "type": "string"
            },
            {
              "internalType": "string",
              "name": "op",
              "type": "string"
            },
            {
              "internalType": "string",
              "name": "content",
              "type": "string"
            }
          ],
          "internalType": "struct EAI.MessageContent_String[]",
          "name": "",
          "type": "tuple[]"
        }
      ],
      "stateMutability": "view",
      "type": "function",
      "constant": true
    }
  ],
  "bytecode": "0x60806040523480156200001157600080fd5b506000620000cb6040518060400160405280600c81526020017f2f2f6365702f74657874282900000000000000000000000000000000000000008152506040518060400160405280600281526020017f3d3d0000000000000000000000000000000000000000000000000000000000008152506040518060400160405280600881526020017f39383730303030300000000000000000000000000000000000000000000000008152506200029a60201b620006ca1760201c565b90806001815401808255809150506001900390600052602060002090600302016000909190919091506000820151816000019080519060200190620001129291906200038b565b506020820151816001019080519060200190620001319291906200038b565b506040820151816002019080519060200190620001509291906200038b565b50505060006200020c6040518060400160405280600d81526020017f2f2f6e6f6d652f746578742829000000000000000000000000000000000000008152506040518060400160405280600281526020017f213d0000000000000000000000000000000000000000000000000000000000008152506040518060400160405280600681526020017f456c6461697200000000000000000000000000000000000000000000000000008152506200029a60201b620006ca1760201c565b90806001815401808255809150506001900390600052602060002090600302016000909190919091506000820151816000019080519060200190620002539291906200038b565b506020820151816001019080519060200190620002729291906200038b565b506040820151816002019080519060200190620002919291906200038b565b50505062000598565b620002a46200041c565b600083600081518110620002bd57620002bc6200045c565b5b602001015160f81c60f81b9050602160f81b817effffffffffffffffffffffffffffffffffffffffffffffffffffffffffffff19161480620003245750603d60f81b817effffffffffffffffffffffffffffffffffffffffffffffffffffffffffffff1916145b62000366576040517f08c379a00000000000000000000000000000000000000000000000000000000081526004016200035d9062000512565b60405180910390fd5b6040518060600160405280868152602001858152602001848152509150509392505050565b828054620003999062000563565b90600052602060002090601f016020900481019282620003bd576000855562000409565b82601f10620003d857805160ff191683800117855562000409565b8280016001018555821562000409579182015b8281111562000408578251825591602001919060010190620003eb565b5b5090506200041891906200043d565b5090565b60405180606001604052806060815260200160608152602001606081525090565b5b80821115620004585760008160009055506001016200043e565b5090565b7f4e487b7100000000000000000000000000000000000000000000000000000000600052603260045260246000fd5b600082825260208201905092915050565b7f4f6e6c792027213d27206f7220273d3d27206f70657261746f7273206973206160008201527f6c6c6f7720746f20636f6d7061726520737472696e6773000000000000000000602082015250565b6000620004fa6037836200048b565b915062000507826200049c565b604082019050919050565b600060208201905081810360008301526200052d81620004eb565b9050919050565b7f4e487b7100000000000000000000000000000000000000000000000000000000600052602260045260246000fd5b600060028204905060018216806200057c57607f821691505b60208210810362000592576200059162000534565b5b50919050565b610f4980620005a86000396000f3fe608060405234801561001057600080fd5b50600436106100415760003560e01c80634bc67836146100465780635a13362014610076578063f1affb34146100a6575b600080fd5b610060600480360381019061005b919061093f565b6100c4565b60405161006d9190610a63565b60405180910390f35b610090600480360381019061008b9190610bba565b6102b6565b60405161009d9190610c31565b60405180910390f35b6100ae6104b5565b6040516100bb9190610d6c565b60405180910390f35b6100cc6108d4565b600082815481106100e0576100df610d8e565b5b906000526020600020906003020160405180606001604052908160008201805461010990610dec565b80601f016020809104026020016040519081016040528092919081815260200182805461013590610dec565b80156101825780601f1061015757610100808354040283529160200191610182565b820191906000526020600020905b81548152906001019060200180831161016557829003601f168201915b5050505050815260200160018201805461019b90610dec565b80601f01602080910402602001604051908101604052809291908181526020018280546101c790610dec565b80156102145780601f106101e957610100808354040283529160200191610214565b820191906000526020600020905b8154815290600101906020018083116101f757829003601f168201915b5050505050815260200160028201805461022d90610dec565b80601f016020809104026020016040519081016040528092919081815260200182805461025990610dec565b80156102a65780601f1061027b576101008083540402835291602001916102a6565b820191906000526020600020905b81548152906001019060200180831161028957829003601f168201915b5050505050815250509050919050565b60006104ad82600085815481106102d0576102cf610d8e565b5b90600052602060002090600302016040518060600160405290816000820180546102f990610dec565b80601f016020809104026020016040519081016040528092919081815260200182805461032590610dec565b80156103725780601f1061034757610100808354040283529160200191610372565b820191906000526020600020905b81548152906001019060200180831161035557829003601f168201915b5050505050815260200160018201805461038b90610dec565b80601f01602080910402602001604051908101604052809291908181526020018280546103b790610dec565b80156104045780601f106103d957610100808354040283529160200191610404565b820191906000526020600020905b8154815290600101906020018083116103e757829003601f168201915b5050505050815260200160028201805461041d90610dec565b80601f016020809104026020016040519081016040528092919081815260200182805461044990610dec565b80156104965780601f1061046b57610100808354040283529160200191610496565b820191906000526020600020905b81548152906001019060200180831161047957829003601f168201915b5050505050815250506107b290919063ffffffff16565b905092915050565b60606000805480602002602001604051908101604052809291908181526020016000905b828210156106c1578382906000526020600020906003020160405180606001604052908160008201805461050c90610dec565b80601f016020809104026020016040519081016040528092919081815260200182805461053890610dec565b80156105855780601f1061055a57610100808354040283529160200191610585565b820191906000526020600020905b81548152906001019060200180831161056857829003601f168201915b5050505050815260200160018201805461059e90610dec565b80601f01602080910402602001604051908101604052809291908181526020018280546105ca90610dec565b80156106175780601f106105ec57610100808354040283529160200191610617565b820191906000526020600020905b8154815290600101906020018083116105fa57829003601f168201915b5050505050815260200160028201805461063090610dec565b80601f016020809104026020016040519081016040528092919081815260200182805461065c90610dec565b80156106a95780601f1061067e576101008083540402835291602001916106a9565b820191906000526020600020905b81548152906001019060200180831161068c57829003601f168201915b505050505081525050815260200190600101906104d9565b50505050905090565b6106d26108d4565b6000836000815181106106e8576106e7610d8e565b5b602001015160f81c60f81b9050602160f81b817effffffffffffffffffffffffffffffffffffffffffffffffffffffffffffff1916148061074e5750603d60f81b817effffffffffffffffffffffffffffffffffffffffffffffffffffffffffffff1916145b61078d576040517f08c379a000000000000000000000000000000000000000000000000000000000815260040161078490610ea0565b60405180910390fd5b6040518060600160405280868152602001858152602001848152509150509392505050565b6000602160f81b83602001516000815181106107d1576107d0610d8e565b5b602001015160f81c60f81b7effffffffffffffffffffffffffffffffffffffffffffffffffffffffffffff1916036108685782604001516040516020016108189190610efc565b604051602081830303815290604052805190602001208260405160200161083f9190610efc565b604051602081830303815290604052805190602001201461086357600190506108ce565b6108c9565b826040015160405160200161087d9190610efc565b60405160208183030381529060405280519060200120826040516020016108a49190610efc565b60405160208183030381529060405280519060200120036108c857600190506108ce565b5b600090505b92915050565b60405180606001604052806060815260200160608152602001606081525090565b6000604051905090565b600080fd5b600080fd5b6000819050919050565b61091c81610909565b811461092757600080fd5b50565b60008135905061093981610913565b92915050565b600060208284031215610955576109546108ff565b5b60006109638482850161092a565b91505092915050565b600081519050919050565b600082825260208201905092915050565b60005b838110156109a657808201518184015260208101905061098b565b838111156109b5576000848401525b50505050565b6000601f19601f8301169050919050565b60006109d78261096c565b6109e18185610977565b93506109f1818560208601610988565b6109fa816109bb565b840191505092915050565b60006060830160008301518482036000860152610a2282826109cc565b91505060208301518482036020860152610a3c82826109cc565b91505060408301518482036040860152610a5682826109cc565b9150508091505092915050565b60006020820190508181036000830152610a7d8184610a05565b905092915050565b600080fd5b600080fd5b7f4e487b7100000000000000000000000000000000000000000000000000000000600052604160045260246000fd5b610ac7826109bb565b810181811067ffffffffffffffff82111715610ae657610ae5610a8f565b5b80604052505050565b6000610af96108f5565b9050610b058282610abe565b919050565b600067ffffffffffffffff821115610b2557610b24610a8f565b5b610b2e826109bb565b9050602081019050919050565b82818337600083830152505050565b6000610b5d610b5884610b0a565b610aef565b905082815260208101848484011115610b7957610b78610a8a565b5b610b84848285610b3b565b509392505050565b600082601f830112610ba157610ba0610a85565b5b8135610bb1848260208601610b4a565b91505092915050565b60008060408385031215610bd157610bd06108ff565b5b6000610bdf8582860161092a565b925050602083013567ffffffffffffffff811115610c0057610bff610904565b5b610c0c85828601610b8c565b9150509250929050565b60008115159050919050565b610c2b81610c16565b82525050565b6000602082019050610c466000830184610c22565b92915050565b600081519050919050565b600082825260208201905092915050565b6000819050602082019050919050565b60006060830160008301518482036000860152610c9582826109cc565b91505060208301518482036020860152610caf82826109cc565b91505060408301518482036040860152610cc982826109cc565b9150508091505092915050565b6000610ce28383610c78565b905092915050565b6000602082019050919050565b6000610d0282610c4c565b610d0c8185610c57565b935083602082028501610d1e85610c68565b8060005b85811015610d5a5784840389528151610d3b8582610cd6565b9450610d4683610cea565b925060208a01995050600181019050610d22565b50829750879550505050505092915050565b60006020820190508181036000830152610d868184610cf7565b905092915050565b7f4e487b7100000000000000000000000000000000000000000000000000000000600052603260045260246000fd5b7f4e487b7100000000000000000000000000000000000000000000000000000000600052602260045260246000fd5b60006002820490506001821680610e0457607f821691505b602082108103610e1757610e16610dbd565b5b50919050565b600082825260208201905092915050565b7f4f6e6c792027213d27206f7220273d3d27206f70657261746f7273206973206160008201527f6c6c6f7720746f20636f6d7061726520737472696e6773000000000000000000602082015250565b6000610e8a603783610e1d565b9150610e9582610e2e565b604082019050919050565b60006020820190508181036000830152610eb981610e7d565b9050919050565b600081905092915050565b6000610ed68261096c565b610ee08185610ec0565b9350610ef0818560208601610988565b80840191505092915050565b6000610f088284610ecb565b91508190509291505056fea2646970667358221220d7e94b65453f65ff37b61117c5139db53b65a0eb14c13404adada2d22a09d3ee64736f6c634300080d0033",
  "immutableReferences": {},
  "source": "// SPDX-License-Identifier: MIT\r\npragma solidity >0.8.4 < 0.8.14;\r\nimport \"../eai/EAI.sol\";\r\n\r\ncontract MessageContentString_refCod{   \r\n\r\n    using EAI for EAI.MessageContent_String;\r\n\r\n    EAI.MessageContent_String[] msgContent;\r\n\r\n    constructor (){\r\n        msgContent.push(EAI.createMessageContent(\"//cep/text()\", \"==\", \"98700000\"));\r\n        msgContent.push(EAI.createMessageContent(\"//nome/text()\", \"!=\", \"Eldair\"));\r\n    }\r\n\r\n    function evaluateStringContent(uint _id, string memory _content) public view returns(bool){\r\n        return  msgContent[_id].evaluateStringContent(_content);        \r\n    }    \r\n\r\n    function getMessageContent_byId(uint _id) public view returns(EAI.MessageContent_String memory){\r\n        return msgContent[_id];\r\n    }\r\n\r\n    function getAllMessageContent()public view returns(EAI.MessageContent_String[] memory){\r\n        return msgContent;\r\n    }\r\n    \r\n}\r\n",
  "sourcePath": "C:\\git-repository\\dsl-smart-contract-eai\\02-models\\ProofOfConcept\\contracts\\lib\\referencesCode-eai\\MessageContentString_refCod.sol",
  "compiler": {
    "name": "solc",
    "version": "0.8.13+commit.abaa5c0e.Emscripten.clang"
  },
  "schemaVersion": "3.4.11",
  "updatedAt": "2023-01-30T16:50:08.625Z",
  "networkType": "ethereum",
  "devdoc": {
    "kind": "dev",
    "methods": {},
    "version": 1
  },
  "userdoc": {
    "kind": "user",
    "methods": {},
    "version": 1
  }
}