{
  "contractName": "MessageContent_NumberPerTime_refCod",
  "abi": [
    {
      "inputs": [],
      "stateMutability": "nonpayable",
      "type": "constructor"
    },
    {
      "inputs": [],
      "name": "getAllmsgContent",
      "outputs": [
        {
          "components": [
            {
              "internalType": "string",
              "name": "xpath",
              "type": "string"
            },
            {
              "internalType": "string",
              "name": "op",
              "type": "string"
            },
            {
              "internalType": "uint32",
              "name": "amount",
              "type": "uint32"
            },
            {
              "internalType": "uint8",
              "name": "timeUnit",
              "type": "uint8"
            },
            {
              "internalType": "uint32",
              "name": "byTime",
              "type": "uint32"
            },
            {
              "internalType": "uint32",
              "name": "rest",
              "type": "uint32"
            },
            {
              "internalType": "uint32",
              "name": "endTime",
              "type": "uint32"
            }
          ],
          "internalType": "struct EAI.MessageContent_NumberPerTime[]",
          "name": "",
          "type": "tuple[]"
        }
      ],
      "stateMutability": "view",
      "type": "function",
      "constant": true
    },
    {
      "inputs": [
        {
          "internalType": "uint256",
          "name": "_id",
          "type": "uint256"
        }
      ],
      "name": "getMessageContentById",
      "outputs": [
        {
          "components": [
            {
              "internalType": "string",
              "name": "xpath",
              "type": "string"
            },
            {
              "internalType": "string",
              "name": "op",
              "type": "string"
            },
            {
              "internalType": "uint32",
              "name": "amount",
              "type": "uint32"
            },
            {
              "internalType": "uint8",
              "name": "timeUnit",
              "type": "uint8"
            },
            {
              "internalType": "uint32",
              "name": "byTime",
              "type": "uint32"
            },
            {
              "internalType": "uint32",
              "name": "rest",
              "type": "uint32"
            },
            {
              "internalType": "uint32",
              "name": "endTime",
              "type": "uint32"
            }
          ],
          "internalType": "struct EAI.MessageContent_NumberPerTime",
          "name": "",
          "type": "tuple"
        }
      ],
      "stateMutability": "view",
      "type": "function",
      "constant": true
    },
    {
      "inputs": [
        {
          "internalType": "uint256",
          "name": "_id",
          "type": "uint256"
        },
        {
          "internalType": "uint32",
          "name": "_accessTime",
          "type": "uint32"
        },
        {
          "internalType": "uint32",
          "name": "_resultFromXpath",
          "type": "uint32"
        }
      ],
      "name": "decreaseMsgContentResultXpathFromAmount",
      "outputs": [
        {
          "components": [
            {
              "internalType": "string",
              "name": "xpath",
              "type": "string"
            },
            {
              "internalType": "string",
              "name": "op",
              "type": "string"
            },
            {
              "internalType": "uint32",
              "name": "amount",
              "type": "uint32"
            },
            {
              "internalType": "uint8",
              "name": "timeUnit",
              "type": "uint8"
            },
            {
              "internalType": "uint32",
              "name": "byTime",
              "type": "uint32"
            },
            {
              "internalType": "uint32",
              "name": "rest",
              "type": "uint32"
            },
            {
              "internalType": "uint32",
              "name": "endTime",
              "type": "uint32"
            }
          ],
          "internalType": "struct EAI.MessageContent_NumberPerTime",
          "name": "",
          "type": "tuple"
        }
      ],
      "stateMutability": "nonpayable",
      "type": "function"
    }
  ],
  "bytecode": "0x60806040523480156200001157600080fd5b506000620000996040518060400160405280601081526020017f636f756e74282f2f6164647265737329000000000000000000000000000000008152506040518060400160405280600181526020017f3c000000000000000000000000000000000000000000000000000000000000008152506003600062000bd160201b6200075e1760201c565b90806001815401808255809150506001900390600052602060002090600302016000909190919091506000820151816000019080519060200190620000e092919062000d7a565b506020820151816001019080519060200190620000ff92919062000d7a565b5060408201518160020160006101000a81548163ffffffff021916908363ffffffff16021790555060608201518160020160046101000a81548160ff021916908360ff16021790555060808201518160020160056101000a81548163ffffffff021916908363ffffffff16021790555060a08201518160020160096101000a81548163ffffffff021916908363ffffffff16021790555060c082015181600201600d6101000a81548163ffffffff021916908363ffffffff16021790555050506000620002466040518060400160405280600c81526020017f636f756e74282f2f6365702900000000000000000000000000000000000000008152506040518060400160405280600281526020017f3c3d0000000000000000000000000000000000000000000000000000000000008152506003600162000bd160201b6200075e1760201c565b908060018154018082558091505060019003906000526020600020906003020160009091909190915060008201518160000190805190602001906200028d92919062000d7a565b506020820151816001019080519060200190620002ac92919062000d7a565b5060408201518160020160006101000a81548163ffffffff021916908363ffffffff16021790555060608201518160020160046101000a81548160ff021916908360ff16021790555060808201518160020160056101000a81548163ffffffff021916908363ffffffff16021790555060a08201518160020160096101000a81548163ffffffff021916908363ffffffff16021790555060c082015181600201600d6101000a81548163ffffffff021916908363ffffffff16021790555050506000620003f36040518060400160405280601081526020017f636f756e74282f2f6164647265737329000000000000000000000000000000008152506040518060400160405280600181526020017f3c000000000000000000000000000000000000000000000000000000000000008152506005600262000bd160201b6200075e1760201c565b908060018154018082558091505060019003906000526020600020906003020160009091909190915060008201518160000190805190602001906200043a92919062000d7a565b5060208201518160010190805190602001906200045992919062000d7a565b5060408201518160020160006101000a81548163ffffffff021916908363ffffffff16021790555060608201518160020160046101000a81548160ff021916908360ff16021790555060808201518160020160056101000a81548163ffffffff021916908363ffffffff16021790555060a08201518160020160096101000a81548163ffffffff021916908363ffffffff16021790555060c082015181600201600d6101000a81548163ffffffff021916908363ffffffff16021790555050506000620005a06040518060400160405280601081526020017f636f756e74282f2f6164647265737329000000000000000000000000000000008152506040518060400160405280600281526020017f3c3d0000000000000000000000000000000000000000000000000000000000008152506004600362000bd160201b6200075e1760201c565b90806001815401808255809150506001900390600052602060002090600302016000909190919091506000820151816000019080519060200190620005e792919062000d7a565b5060208201518160010190805190602001906200060692919062000d7a565b5060408201518160020160006101000a81548163ffffffff021916908363ffffffff16021790555060608201518160020160046101000a81548160ff021916908360ff16021790555060808201518160020160056101000a81548163ffffffff021916908363ffffffff16021790555060a08201518160020160096101000a81548163ffffffff021916908363ffffffff16021790555060c082015181600201600d6101000a81548163ffffffff021916908363ffffffff160217905550505060006200074c6040518060400160405280601081526020017f636f756e74282f2f6164647265737329000000000000000000000000000000008152506040518060400160405280600181526020017f3c0000000000000000000000000000000000000000000000000000000000000081525060048062000bd160201b6200075e1760201c565b908060018154018082558091505060019003906000526020600020906003020160009091909190915060008201518160000190805190602001906200079392919062000d7a565b506020820151816001019080519060200190620007b292919062000d7a565b5060408201518160020160006101000a81548163ffffffff021916908363ffffffff16021790555060608201518160020160046101000a81548160ff021916908360ff16021790555060808201518160020160056101000a81548163ffffffff021916908363ffffffff16021790555060a08201518160020160096101000a81548163ffffffff021916908363ffffffff16021790555060c082015181600201600d6101000a81548163ffffffff021916908363ffffffff16021790555050506000620008f86040518060400160405280601081526020017f636f756e74282f2f6164647265737329000000000000000000000000000000008152506040518060400160405280600281526020017f3c3d00000000000000000000000000000000000000000000000000000000000081525060058062000bd160201b6200075e1760201c565b908060018154018082558091505060019003906000526020600020906003020160009091909190915060008201518160000190805190602001906200093f92919062000d7a565b5060208201518160010190805190602001906200095e92919062000d7a565b5060408201518160020160006101000a81548163ffffffff021916908363ffffffff16021790555060608201518160020160046101000a81548160ff021916908360ff16021790555060808201518160020160056101000a81548163ffffffff021916908363ffffffff16021790555060a08201518160020160096101000a81548163ffffffff021916908363ffffffff16021790555060c082015181600201600d6101000a81548163ffffffff021916908363ffffffff1602179055505050600062000aa56040518060400160405280601081526020017f636f756e74282f2f6164647265737329000000000000000000000000000000008152506040518060400160405280600281526020017f3c3d0000000000000000000000000000000000000000000000000000000000008152506002600662000bd160201b6200075e1760201c565b9080600181540180825580915050600190039060005260206000209060030201600090919091909150600082015181600001908051906020019062000aec92919062000d7a565b50602082015181600101908051906020019062000b0b92919062000d7a565b5060408201518160020160006101000a81548163ffffffff021916908363ffffffff16021790555060608201518160020160046101000a81548160ff021916908360ff16021790555060808201518160020160056101000a81548163ffffffff021916908363ffffffff16021790555060a08201518160020160096101000a81548163ffffffff021916908363ffffffff16021790555060c082015181600201600d6101000a81548163ffffffff021916908363ffffffff160217905550505062001009565b62000bdb62000e0b565b6000600460ff168360ff161162000c055762000bfd8362000cb860201b60201c565b905062000c0a565b600190505b600185510362000c5e576040518060400160405280600281526020017f3c3d000000000000000000000000000000000000000000000000000000000000815250945060018462000c5b919062000ec1565b93505b6040518060e001604052808781526020018681526020018563ffffffff1681526020018460ff1681526020018263ffffffff1681526020018563ffffffff168152602001600063ffffffff16815250915050949350505050565b6000600460ff168260ff16111562000d07576040517f08c379a000000000000000000000000000000000000000000000000000000000815260040162000cfe9062000f83565b60405180910390fd5b600060ff168260ff160362000d20576001905062000d75565b600160ff168260ff160362000d3957603c905062000d75565b600260ff168260ff160362000d5357610e10905062000d75565b600360ff168260ff160362000d6e5762015180905062000d75565b62093a8090505b919050565b82805462000d889062000fd4565b90600052602060002090601f01602090048101928262000dac576000855562000df8565b82601f1062000dc757805160ff191683800117855562000df8565b8280016001018555821562000df8579182015b8281111562000df757825182559160200191906001019062000dda565b5b50905062000e07919062000e63565b5090565b6040518060e001604052806060815260200160608152602001600063ffffffff168152602001600060ff168152602001600063ffffffff168152602001600063ffffffff168152602001600063ffffffff1681525090565b5b8082111562000e7e57600081600090555060010162000e64565b5090565b600063ffffffff82169050919050565b7f4e487b7100000000000000000000000000000000000000000000000000000000600052601160045260246000fd5b600062000ece8262000e82565b915062000edb8362000e82565b92508282101562000ef15762000ef062000e92565b5b828203905092915050565b600082825260208201905092915050565b7f546865206d6574686f642067657454696d65496e5365636f6e647320646f657360008201527f6e277420776f726b20666f72204d4f4e544820616e6420594541520000000000602082015250565b600062000f6b603b8362000efc565b915062000f788262000f0d565b604082019050919050565b6000602082019050818103600083015262000f9e8162000f5c565b9050919050565b7f4e487b7100000000000000000000000000000000000000000000000000000000600052602260045260246000fd5b6000600282049050600182168062000fed57607f821691505b60208210810362001003576200100262000fa5565b5b50919050565b611b0d80620010196000396000f3fe608060405234801561001057600080fd5b50600436106100415760003560e01c806301f3117014610046578063636f405614610064578063f98d814314610094575b600080fd5b61004e6100c4565b60405161005b9190611283565b60405180910390f35b61007e6004803603810190610079919061130c565b6102fc565b60405161008b9190611402565b60405180910390f35b6100ae60048036038101906100a99190611424565b610549565b6040516100bb9190611402565b60405180910390f35b60606000805480602002602001604051908101604052809291908181526020016000905b828210156102f357838290600052602060002090600302016040518060e001604052908160008201805461011b90611480565b80601f016020809104026020016040519081016040528092919081815260200182805461014790611480565b80156101945780601f1061016957610100808354040283529160200191610194565b820191906000526020600020905b81548152906001019060200180831161017757829003601f168201915b505050505081526020016001820180546101ad90611480565b80601f01602080910402602001604051908101604052809291908181526020018280546101d990611480565b80156102265780601f106101fb57610100808354040283529160200191610226565b820191906000526020600020905b81548152906001019060200180831161020957829003601f168201915b505050505081526020016002820160009054906101000a900463ffffffff1663ffffffff1663ffffffff1681526020016002820160049054906101000a900460ff1660ff1660ff1681526020016002820160059054906101000a900463ffffffff1663ffffffff1663ffffffff1681526020016002820160099054906101000a900463ffffffff1663ffffffff1663ffffffff16815260200160028201600d9054906101000a900463ffffffff1663ffffffff1663ffffffff1681525050815260200190600101906100e8565b50505050905090565b610304610ff2565b61033a83836000878154811061031d5761031c6114b1565b5b90600052602060002090600302016108369092919063ffffffff16565b6000848154811061034e5761034d6114b1565b5b90600052602060002090600302016040518060e001604052908160008201805461037790611480565b80601f01602080910402602001604051908101604052809291908181526020018280546103a390611480565b80156103f05780601f106103c5576101008083540402835291602001916103f0565b820191906000526020600020905b8154815290600101906020018083116103d357829003601f168201915b5050505050815260200160018201805461040990611480565b80601f016020809104026020016040519081016040528092919081815260200182805461043590611480565b80156104825780601f1061045757610100808354040283529160200191610482565b820191906000526020600020905b81548152906001019060200180831161046557829003601f168201915b505050505081526020016002820160009054906101000a900463ffffffff1663ffffffff1663ffffffff1681526020016002820160049054906101000a900460ff1660ff1660ff1681526020016002820160059054906101000a900463ffffffff1663ffffffff1663ffffffff1681526020016002820160099054906101000a900463ffffffff1663ffffffff1663ffffffff16815260200160028201600d9054906101000a900463ffffffff1663ffffffff1663ffffffff168152505090509392505050565b610551610ff2565b60008281548110610565576105646114b1565b5b90600052602060002090600302016040518060e001604052908160008201805461058e90611480565b80601f01602080910402602001604051908101604052809291908181526020018280546105ba90611480565b80156106075780601f106105dc57610100808354040283529160200191610607565b820191906000526020600020905b8154815290600101906020018083116105ea57829003601f168201915b5050505050815260200160018201805461062090611480565b80601f016020809104026020016040519081016040528092919081815260200182805461064c90611480565b80156106995780601f1061066e57610100808354040283529160200191610699565b820191906000526020600020905b81548152906001019060200180831161067c57829003601f168201915b505050505081526020016002820160009054906101000a900463ffffffff1663ffffffff1663ffffffff1681526020016002820160049054906101000a900460ff1660ff1660ff1681526020016002820160059054906101000a900463ffffffff1663ffffffff1663ffffffff1681526020016002820160099054906101000a900463ffffffff1663ffffffff1663ffffffff16815260200160028201600d9054906101000a900463ffffffff1663ffffffff1663ffffffff16815250509050919050565b610766610ff2565b6000600460ff168360ff16116107865761077f83610a66565b905061078b565b600190505b60018551036107dc576040518060400160405280600281526020017f3c3d00000000000000000000000000000000000000000000000000000000000081525094506001846107d9919061150f565b93505b6040518060e001604052808781526020018681526020018563ffffffff1681526020018460ff1681526020018263ffffffff1681526020018563ffffffff168152602001600063ffffffff16815250915050949350505050565b60008163ffffffff161161087f576040517f08c379a0000000000000000000000000000000000000000000000000000000008152600401610876906115c6565b60405180910390fd5b6108af8360020160049054906101000a900460ff1684600201600d9054906101000a900463ffffffff1684610b1d565b1561093e578260020160009054906101000a900463ffffffff168360020160096101000a81548163ffffffff021916908363ffffffff16021790555061091b8360020160059054906101000a900463ffffffff168460020160049054906101000a900460ff1684610be2565b83600201600d6101000a81548163ffffffff021916908363ffffffff1602179055505b60006109638460020160099054906101000a900463ffffffff1663ffffffff16610c75565b6109868560020160009054906101000a900463ffffffff1663ffffffff16610c75565b6109958463ffffffff16610c75565b6040516020016109a79392919061172c565b60405160208183030381529060405290508360020160099054906101000a900463ffffffff1663ffffffff168263ffffffff1611158190610a1e576040517f08c379a0000000000000000000000000000000000000000000000000000000008152600401610a1591906117b7565b60405180910390fd5b50818460020160098282829054906101000a900463ffffffff16610a42919061150f565b92506101000a81548163ffffffff021916908363ffffffff16021790555050505050565b6000600460ff168260ff161115610ab2576040517f08c379a0000000000000000000000000000000000000000000000000000000008152600401610aa99061184b565b60405180910390fd5b600060ff168260ff1603610ac95760019050610b18565b600160ff168260ff1603610ae057603c9050610b18565b600260ff168260ff1603610af857610e109050610b18565b600360ff168260ff1603610b1157620151809050610b18565b62093a8090505b919050565b600080849050600460ff168160ff1611610b49578363ffffffff168363ffffffff161015915050610bdb565b600560ff168160ff1603610bb1576000610b688463ffffffff16610dd5565b50915050600d8563ffffffff16148015610b88575060018163ffffffff16145b15610b9857600192505050610bdb565b8463ffffffff168163ffffffff16101592505050610bdb565b6000610bc28463ffffffff16610dd5565b505090508463ffffffff168163ffffffff161015925050505b9392505050565b6000600460ff168360ff1611610c0457610bfd838386610f88565b9050610c6e565b600560ff168360ff1603610c42576000610c238363ffffffff16610dd5565b5063ffffffff16915050600181610c3a919061186b565b915050610c6e565b6000610c538363ffffffff16610dd5565b505063ffffffff169050600181610c6a919061186b565b9150505b9392505050565b606060008203610cbc576040518060400160405280600181526020017f30000000000000000000000000000000000000000000000000000000000000008152509050610dd0565b600082905060005b60008214610cee578080610cd7906118c1565b915050600a82610ce79190611938565b9150610cc4565b60008167ffffffffffffffff811115610d0a57610d09611969565b5b6040519080825280601f01601f191660200182016040528015610d3c5781602001600182028036833780820191505090505b5090505b60008514610dc957600182610d559190611998565b9150600a85610d6491906119cc565b6030610d70919061186b565b60f81b818381518110610d8657610d856114b1565b5b60200101907effffffffffffffffffffffffffffffffffffffffffffffffffffffffffffff1916908160001a905350600a85610dc29190611938565b9450610d40565b8093505050505b919050565b6000806000806201518063ffffffff1685610df09190611938565b9050600062253d8c62010bd983610e0791906119fd565b610e1191906119fd565b9050600062023ab1826004610e269190611a37565b610e309190611a75565b9050600460038262023ab1610e459190611a37565b610e4f91906119fd565b610e599190611a75565b82610e64919061150f565b9150600062164b09600184610e7991906119fd565b610fa0610e869190611a37565b610e909190611a75565b9050601f6004826105b5610ea49190611a37565b610eae9190611a75565b84610eb9919061150f565b610ec391906119fd565b9250600061098f846050610ed79190611a37565b610ee19190611a75565b9050600060508261098f610ef59190611a37565b610eff9190611a75565b85610f0a919061150f565b9050600b82610f199190611a75565b945084600c610f289190611a37565b600283610f3591906119fd565b610f3f919061150f565b91508483603186610f50919061150f565b6064610f5c9190611a37565b610f6691906119fd565b610f7091906119fd565b92508298508197508096505050505050509193909250565b6000808284610f979190611aa6565b905060008184610fa7919061150f565b9050600460ff168660ff1603610fda576203f4808186610fc791906119fd565b610fd191906119fd565b92505050610feb565b8085610fe691906119fd565b925050505b9392505050565b6040518060e001604052806060815260200160608152602001600063ffffffff168152602001600060ff168152602001600063ffffffff168152602001600063ffffffff168152602001600063ffffffff1681525090565b600081519050919050565b600082825260208201905092915050565b6000819050602082019050919050565b600081519050919050565b600082825260208201905092915050565b60005b838110156110b0578082015181840152602081019050611095565b838111156110bf576000848401525b50505050565b6000601f19601f8301169050919050565b60006110e182611076565b6110eb8185611081565b93506110fb818560208601611092565b611104816110c5565b840191505092915050565b600063ffffffff82169050919050565b6111288161110f565b82525050565b600060ff82169050919050565b6111448161112e565b82525050565b600060e083016000830151848203600086015261116782826110d6565b9150506020830151848203602086015261118182826110d6565b9150506040830151611196604086018261111f565b5060608301516111a9606086018261113b565b5060808301516111bc608086018261111f565b5060a08301516111cf60a086018261111f565b5060c08301516111e260c086018261111f565b508091505092915050565b60006111f9838361114a565b905092915050565b6000602082019050919050565b60006112198261104a565b6112238185611055565b93508360208202850161123585611066565b8060005b85811015611271578484038952815161125285826111ed565b945061125d83611201565b925060208a01995050600181019050611239565b50829750879550505050505092915050565b6000602082019050818103600083015261129d818461120e565b905092915050565b600080fd5b6000819050919050565b6112bd816112aa565b81146112c857600080fd5b50565b6000813590506112da816112b4565b92915050565b6112e98161110f565b81146112f457600080fd5b50565b600081359050611306816112e0565b92915050565b600080600060608486031215611325576113246112a5565b5b6000611333868287016112cb565b9350506020611344868287016112f7565b9250506040611355868287016112f7565b9150509250925092565b600060e083016000830151848203600086015261137c82826110d6565b9150506020830151848203602086015261139682826110d6565b91505060408301516113ab604086018261111f565b5060608301516113be606086018261113b565b5060808301516113d1608086018261111f565b5060a08301516113e460a086018261111f565b5060c08301516113f760c086018261111f565b508091505092915050565b6000602082019050818103600083015261141c818461135f565b905092915050565b60006020828403121561143a576114396112a5565b5b6000611448848285016112cb565b91505092915050565b7f4e487b7100000000000000000000000000000000000000000000000000000000600052602260045260246000fd5b6000600282049050600182168061149857607f821691505b6020821081036114ab576114aa611451565b5b50919050565b7f4e487b7100000000000000000000000000000000000000000000000000000000600052603260045260246000fd5b7f4e487b7100000000000000000000000000000000000000000000000000000000600052601160045260246000fd5b600061151a8261110f565b91506115258361110f565b925082821015611538576115376114e0565b5b828203905092915050565b600082825260208201905092915050565b7f54686520726573756c74206f66207468652078706174682073686f756c64206260008201527f65206d6f7265207468616e203000000000000000000000000000000000000000602082015250565b60006115b0602d83611543565b91506115bb82611554565b604082019050919050565b600060208201905081810360008301526115df816115a3565b9050919050565b600081905092915050565b7f596f752068617665206f6e6c7920000000000000000000000000000000000000600082015250565b6000611627600e836115e6565b9150611632826115f1565b600e82019050919050565b600061164882611076565b61165281856115e6565b9350611662818560208601611092565b80840191505092915050565b7f2066726f6d200000000000000000000000000000000000000000000000000000600082015250565b60006116a46006836115e6565b91506116af8261166e565b600682019050919050565b7f2072657374696e672c20616e6420746865206d65737361676520636f6e74657460008201527f20787061746820726573756c7420697320000000000000000000000000000000602082015250565b60006117166031836115e6565b9150611721826116ba565b603182019050919050565b60006117378261161a565b9150611743828661163d565b915061174e82611697565b915061175a828561163d565b915061176582611709565b9150611771828461163d565b9150819050949350505050565b600061178982611076565b6117938185611543565b93506117a3818560208601611092565b6117ac816110c5565b840191505092915050565b600060208201905081810360008301526117d1818461177e565b905092915050565b7f546865206d6574686f642067657454696d65496e5365636f6e647320646f657360008201527f6e277420776f726b20666f72204d4f4e544820616e6420594541520000000000602082015250565b6000611835603b83611543565b9150611840826117d9565b604082019050919050565b6000602082019050818103600083015261186481611828565b9050919050565b6000611876826112aa565b9150611881836112aa565b9250827fffffffffffffffffffffffffffffffffffffffffffffffffffffffffffffffff038211156118b6576118b56114e0565b5b828201905092915050565b60006118cc826112aa565b91507fffffffffffffffffffffffffffffffffffffffffffffffffffffffffffffffff82036118fe576118fd6114e0565b5b600182019050919050565b7f4e487b7100000000000000000000000000000000000000000000000000000000600052601260045260246000fd5b6000611943826112aa565b915061194e836112aa565b92508261195e5761195d611909565b5b828204905092915050565b7f4e487b7100000000000000000000000000000000000000000000000000000000600052604160045260246000fd5b60006119a3826112aa565b91506119ae836112aa565b9250828210156119c1576119c06114e0565b5b828203905092915050565b60006119d7826112aa565b91506119e2836112aa565b9250826119f2576119f1611909565b5b828206905092915050565b6000611a088261110f565b9150611a138361110f565b92508263ffffffff03821115611a2c57611a2b6114e0565b5b828201905092915050565b6000611a428261110f565b9150611a4d8361110f565b92508163ffffffff0483118215151615611a6a57611a696114e0565b5b828202905092915050565b6000611a808261110f565b9150611a8b8361110f565b925082611a9b57611a9a611909565b5b828204905092915050565b6000611ab18261110f565b9150611abc8361110f565b925082611acc57611acb611909565b5b82820690509291505056fea26469706673582212202296cc7f1599e4b3b402ee16afd9ef219106c928ccc6661f579e8bb595f576db64736f6c634300080d0033",
  "immutableReferences": {},
  "source": "//SPDX-License-Identifier: MIT\r\n\r\npragma solidity >0.8.4 < 0.8.14;\r\n\r\nimport \"../eai/EAI.sol\";\r\n\r\ncontract MessageContent_NumberPerTime_refCod{\r\n   \r\n    using EAI for EAI.MessageContent_NumberPerTime;\r\n\r\n    EAI.MessageContent_NumberPerTime[] msgContent;\r\n\r\n    constructor(){\r\n\r\n        msgContent.push(EAI.createMessageContent_NumberPerTime(\"count(//address)\", \"<\", 3, EAI.SECOND));\r\n        msgContent.push(EAI.createMessageContent_NumberPerTime(\"count(//cep)\", \"<=\", 3, EAI.MINUTE));\r\n        msgContent.push(EAI.createMessageContent_NumberPerTime(\"count(//address)\", \"<\", 5, EAI.HOUR));\r\n        msgContent.push(EAI.createMessageContent_NumberPerTime(\"count(//address)\", \"<=\", 4, EAI.DAY));\r\n        msgContent.push(EAI.createMessageContent_NumberPerTime(\"count(//address)\", \"<\", 4, EAI.WEEK));\r\n        msgContent.push(EAI.createMessageContent_NumberPerTime(\"count(//address)\", \"<=\", 5, EAI.MONTH));\r\n        msgContent.push(EAI.createMessageContent_NumberPerTime(\"count(//address)\", \"<=\", 2, EAI.YEAR));\r\n    }\r\n\r\n    function getAllmsgContent()public view returns(EAI.MessageContent_NumberPerTime[] memory){\r\n        return msgContent;\r\n    }\r\n\r\n    function getMessageContentById(uint _id) public view returns(EAI.MessageContent_NumberPerTime memory){\r\n        return msgContent[_id];\r\n    }\r\n\r\n    function decreaseMsgContentResultXpathFromAmount(uint _id, \r\n        uint32 _accessTime, \r\n        uint32 _resultFromXpath\r\n        )public returns(EAI.MessageContent_NumberPerTime memory){\r\n\r\n        msgContent[_id].decreaseNumberPerTime(_accessTime, _resultFromXpath);\r\n        return msgContent[_id];\r\n    }\r\n\r\n}",
  "sourcePath": "C:\\git-repository\\dsl-smart-contract-eai\\02-models\\ProofOfConcept\\contracts\\lib\\referencesCode-eai\\009_MessageContent_NumberPerTime_refCod.sol",
  "compiler": {
    "name": "solc",
    "version": "0.8.13+commit.abaa5c0e.Emscripten.clang"
  },
  "schemaVersion": "3.4.11",
  "updatedAt": "2023-02-03T19:34:38.229Z",
  "networkType": "ethereum",
  "devdoc": {
    "kind": "dev",
    "methods": {},
    "version": 1
  },
  "userdoc": {
    "kind": "user",
    "methods": {},
    "version": 1
  }
}