{
  "contractName": "MessageContentNumber_refCod",
  "abi": [
    {
      "inputs": [],
      "stateMutability": "nonpayable",
      "type": "constructor"
    },
    {
      "inputs": [],
      "name": "getAllMessageContents",
      "outputs": [
        {
          "components": [
            {
              "internalType": "string",
              "name": "xpath",
              "type": "string"
            },
            {
              "internalType": "string",
              "name": "op",
              "type": "string"
            },
            {
              "internalType": "int256",
              "name": "content",
              "type": "int256"
            }
          ],
          "internalType": "struct EAI.MessageContent_Number[]",
          "name": "",
          "type": "tuple[]"
        }
      ],
      "stateMutability": "view",
      "type": "function",
      "constant": true
    },
    {
      "inputs": [
        {
          "internalType": "uint256",
          "name": "_id",
          "type": "uint256"
        }
      ],
      "name": "getMessageContentById",
      "outputs": [
        {
          "components": [
            {
              "internalType": "string",
              "name": "xpath",
              "type": "string"
            },
            {
              "internalType": "string",
              "name": "op",
              "type": "string"
            },
            {
              "internalType": "int256",
              "name": "content",
              "type": "int256"
            }
          ],
          "internalType": "struct EAI.MessageContent_Number",
          "name": "",
          "type": "tuple"
        }
      ],
      "stateMutability": "view",
      "type": "function",
      "constant": true
    },
    {
      "inputs": [
        {
          "internalType": "uint256",
          "name": "_id",
          "type": "uint256"
        },
        {
          "internalType": "int256",
          "name": "content",
          "type": "int256"
        }
      ],
      "name": "evaluateMessageContent",
      "outputs": [
        {
          "internalType": "bool",
          "name": "",
          "type": "bool"
        }
      ],
      "stateMutability": "view",
      "type": "function",
      "constant": true
    }
  ],
  "bytecode": "0x60806040523480156200001157600080fd5b506000620000976040518060400160405280600c81526020017f636f756e74282f2f6365702900000000000000000000000000000000000000008152506040518060400160405280600281526020017f213d0000000000000000000000000000000000000000000000000000000000008152506001620005e860201b620005321760201c565b90806001815401808255809150506001900390600052602060002090600302016000909190919091506000820151816000019080519060200190620000de92919062000616565b506020820151816001019080519060200190620000fd92919062000616565b5060408201518160020155505060006200018f6040518060400160405280600c81526020017f636f756e74282f2f6365702900000000000000000000000000000000000000008152506040518060400160405280600281526020017f3d3d0000000000000000000000000000000000000000000000000000000000008152506002620005e860201b620005321760201c565b90806001815401808255809150506001900390600052602060002090600302016000909190919091506000820151816000019080519060200190620001d692919062000616565b506020820151816001019080519060200190620001f592919062000616565b506040820151816002015550506000620002876040518060400160405280600c81526020017f636f756e74282f2f6365702900000000000000000000000000000000000000008152506040518060400160405280600181526020017f3c000000000000000000000000000000000000000000000000000000000000008152506003620005e860201b620005321760201c565b90806001815401808255809150506001900390600052602060002090600302016000909190919091506000820151816000019080519060200190620002ce92919062000616565b506020820151816001019080519060200190620002ed92919062000616565b5060408201518160020155505060006200037f6040518060400160405280600c81526020017f636f756e74282f2f6365702900000000000000000000000000000000000000008152506040518060400160405280600281526020017f3c3d0000000000000000000000000000000000000000000000000000000000008152506004620005e860201b620005321760201c565b90806001815401808255809150506001900390600052602060002090600302016000909190919091506000820151816000019080519060200190620003c692919062000616565b506020820151816001019080519060200190620003e592919062000616565b506040820151816002015550506000620004776040518060400160405280600c81526020017f636f756e74282f2f6365702900000000000000000000000000000000000000008152506040518060400160405280600181526020017f3e000000000000000000000000000000000000000000000000000000000000008152506005620005e860201b620005321760201c565b90806001815401808255809150506001900390600052602060002090600302016000909190919091506000820151816000019080519060200190620004be92919062000616565b506020820151816001019080519060200190620004dd92919062000616565b5060408201518160020155505060006200056f6040518060400160405280600c81526020017f636f756e74282f2f6365702900000000000000000000000000000000000000008152506040518060400160405280600281526020017f3e3d0000000000000000000000000000000000000000000000000000000000008152506006620005e860201b620005321760201c565b90806001815401808255809150506001900390600052602060002090600302016000909190919091506000820151816000019080519060200190620005b692919062000616565b506020820151816001019080519060200190620005d592919062000616565b506040820151816002015550506200074b565b620005f2620006a7565b60405180606001604052808581526020018481526020018381525090509392505050565b828054620006249062000716565b90600052602060002090601f01602090048101928262000648576000855562000694565b82601f106200066357805160ff191683800117855562000694565b8280016001018555821562000694579182015b828111156200069357825182559160200191906001019062000676565b5b509050620006a39190620006c8565b5090565b60405180606001604052806060815260200160608152602001600081525090565b5b80821115620006e3576000816000905550600101620006c9565b5090565b7f4e487b7100000000000000000000000000000000000000000000000000000000600052602260045260246000fd5b600060028204905060018216806200072f57607f821691505b602082108103620007455762000744620006e7565b5b50919050565b610b10806200075b6000396000f3fe608060405234801561001057600080fd5b50600436106100415760003560e01c80630ab8ac0c14610046578063c1078fe114610064578063f98d814314610094575b600080fd5b61004e6100c4565b60405161005b91906108a6565b60405180910390f35b61007e6004803603810190610079919061092f565b610251565b60405161008b919061098a565b60405180910390f35b6100ae60048036038101906100a991906109a5565b6103c8565b6040516100bb9190610a29565b60405180910390f35b60606000805480602002602001604051908101604052809291908181526020016000905b82821015610248578382906000526020600020906003020160405180606001604052908160008201805461011b90610a7a565b80601f016020809104026020016040519081016040528092919081815260200182805461014790610a7a565b80156101945780601f1061016957610100808354040283529160200191610194565b820191906000526020600020905b81548152906001019060200180831161017757829003601f168201915b505050505081526020016001820180546101ad90610a7a565b80601f01602080910402602001604051908101604052809291908181526020018280546101d990610a7a565b80156102265780601f106101fb57610100808354040283529160200191610226565b820191906000526020600020905b81548152906001019060200180831161020957829003601f168201915b50505050508152602001600282015481525050815260200190600101906100e8565b50505050905090565b60006103c0826000858154811061026b5761026a610aab565b5b906000526020600020906003020160405180606001604052908160008201805461029490610a7a565b80601f01602080910402602001604051908101604052809291908181526020018280546102c090610a7a565b801561030d5780601f106102e25761010080835404028352916020019161030d565b820191906000526020600020905b8154815290600101906020018083116102f057829003601f168201915b5050505050815260200160018201805461032690610a7a565b80601f016020809104026020016040519081016040528092919081815260200182805461035290610a7a565b801561039f5780601f106103745761010080835404028352916020019161039f565b820191906000526020600020905b81548152906001019060200180831161038257829003601f168201915b5050505050815260200160028201548152505061055e90919063ffffffff16565b905092915050565b6103d06106ba565b600082815481106103e4576103e3610aab565b5b906000526020600020906003020160405180606001604052908160008201805461040d90610a7a565b80601f016020809104026020016040519081016040528092919081815260200182805461043990610a7a565b80156104865780601f1061045b57610100808354040283529160200191610486565b820191906000526020600020905b81548152906001019060200180831161046957829003601f168201915b5050505050815260200160018201805461049f90610a7a565b80601f01602080910402602001604051908101604052809291908181526020018280546104cb90610a7a565b80156105185780601f106104ed57610100808354040283529160200191610518565b820191906000526020600020905b8154815290600101906020018083116104fb57829003601f168201915b505050505081526020016002820154815250509050919050565b61053a6106ba565b60405180606001604052808581526020018481526020018381525090509392505050565b60008083602001519050602160f81b8160008151811061058157610580610aab565b5b602001015160f81c60f81b7effffffffffffffffffffffffffffffffffffffffffffffffffffffffffffff1916036105c35782846040015114159150506106b4565b603d60f81b816000815181106105dc576105db610aab565b5b602001015160f81c60f81b7effffffffffffffffffffffffffffffffffffffffffffffffffffffffffffff19160361061d57828460400151149150506106b4565b603c60f81b8160008151811061063657610635610aab565b5b602001015160f81c60f81b7effffffffffffffffffffffffffffffffffffffffffffffffffffffffffffff1916036106905760028151036106815782846040015113159150506106b4565b828460400151129150506106b4565b60028151036106a95782846040015112159150506106b4565b828460400151139150505b92915050565b60405180606001604052806060815260200160608152602001600081525090565b600081519050919050565b600082825260208201905092915050565b6000819050602082019050919050565b600081519050919050565b600082825260208201905092915050565b60005b83811015610741578082015181840152602081019050610726565b83811115610750576000848401525b50505050565b6000601f19601f8301169050919050565b600061077282610707565b61077c8185610712565b935061078c818560208601610723565b61079581610756565b840191505092915050565b6000819050919050565b6107b3816107a0565b82525050565b600060608301600083015184820360008601526107d68282610767565b915050602083015184820360208601526107f08282610767565b915050604083015161080560408601826107aa565b508091505092915050565b600061081c83836107b9565b905092915050565b6000602082019050919050565b600061083c826106db565b61084681856106e6565b935083602082028501610858856106f7565b8060005b8581101561089457848403895281516108758582610810565b945061088083610824565b925060208a0199505060018101905061085c565b50829750879550505050505092915050565b600060208201905081810360008301526108c08184610831565b905092915050565b600080fd5b6000819050919050565b6108e0816108cd565b81146108eb57600080fd5b50565b6000813590506108fd816108d7565b92915050565b61090c816107a0565b811461091757600080fd5b50565b60008135905061092981610903565b92915050565b60008060408385031215610946576109456108c8565b5b6000610954858286016108ee565b92505060206109658582860161091a565b9150509250929050565b60008115159050919050565b6109848161096f565b82525050565b600060208201905061099f600083018461097b565b92915050565b6000602082840312156109bb576109ba6108c8565b5b60006109c9848285016108ee565b91505092915050565b600060608301600083015184820360008601526109ef8282610767565b91505060208301518482036020860152610a098282610767565b9150506040830151610a1e60408601826107aa565b508091505092915050565b60006020820190508181036000830152610a4381846109d2565b905092915050565b7f4e487b7100000000000000000000000000000000000000000000000000000000600052602260045260246000fd5b60006002820490506001821680610a9257607f821691505b602082108103610aa557610aa4610a4b565b5b50919050565b7f4e487b7100000000000000000000000000000000000000000000000000000000600052603260045260246000fdfea2646970667358221220b0534de7d91147a37a72d209a0a2c280c06a9ca019cf67d8d98ff2777581fa3a64736f6c634300080d0033",
  "immutableReferences": {},
  "source": "//SPDX-License-Identifier: MIT\r\n\r\npragma solidity > 0.8.4 < 0.8.14;\r\n\r\nimport \"../eai/EAI.sol\";\r\n\r\ncontract MessageContentNumber_refCod{\r\n    \r\n    using EAI for EAI.MessageContent_Number;\r\n\r\n    EAI.MessageContent_Number[] msgContent;\r\n\r\n    constructor(){\r\n        msgContent.push(EAI.createMessageContent(\"count(//cep)\", \"!=\",  1));\r\n        msgContent.push(EAI.createMessageContent(\"count(//cep)\", \"==\",  2));\r\n        msgContent.push(EAI.createMessageContent(\"count(//cep)\",  \"<\",  3));\r\n        msgContent.push(EAI.createMessageContent(\"count(//cep)\", \"<=\",  4));\r\n        msgContent.push(EAI.createMessageContent(\"count(//cep)\",  \">\",  5));\r\n        msgContent.push(EAI.createMessageContent(\"count(//cep)\", \">=\",  6));        \r\n    }   \r\n\r\n    function getAllMessageContents()public view returns(EAI.MessageContent_Number[] memory){\r\n        return msgContent;\r\n    }\r\n\r\n    function getMessageContentById(uint _id) public view returns(EAI.MessageContent_Number memory){\r\n        return msgContent[_id];\r\n    }\r\n\r\n    function evaluateMessageContent(uint _id, int256 content) public view returns(bool){\r\n        return msgContent[_id].evaluateNumberContent(content);\r\n    }\r\n}\r\n\r\n",
  "sourcePath": "D:\\git-repository\\dsl-smart-contract-eai\\02-models\\ProofOfConcept\\contracts\\lib\\referencesCode-eai\\MessageContentNumber_refCod.sol",
  "compiler": {
    "name": "solc",
    "version": "0.8.13+commit.abaa5c0e.Emscripten.clang"
  },
  "schemaVersion": "3.4.11",
  "updatedAt": "2023-01-29T13:53:32.697Z",
  "networkType": "ethereum",
  "devdoc": {
    "kind": "dev",
    "methods": {},
    "version": 1
  },
  "userdoc": {
    "kind": "user",
    "methods": {},
    "version": 1
  }
}