{
  "contractName": "MessageContentString_refCod",
  "abi": [
    {
      "inputs": [],
      "stateMutability": "nonpayable",
      "type": "constructor"
    },
    {
      "inputs": [
        {
          "internalType": "string",
          "name": "_cep",
          "type": "string"
        }
      ],
      "name": "verifyCep",
      "outputs": [
        {
          "internalType": "bool",
          "name": "",
          "type": "bool"
        }
      ],
      "stateMutability": "view",
      "type": "function",
      "constant": true
    },
    {
      "inputs": [
        {
          "internalType": "string",
          "name": "_name",
          "type": "string"
        }
      ],
      "name": "verifyName",
      "outputs": [
        {
          "internalType": "bool",
          "name": "",
          "type": "bool"
        }
      ],
      "stateMutability": "view",
      "type": "function",
      "constant": true
    }
  ],
  "bytecode": "0x60806040523480156200001157600080fd5b506000620000cb6040518060400160405280600c81526020017f2f2f6365702f74657874282900000000000000000000000000000000000000008152506040518060400160405280600281526020017f3d3d0000000000000000000000000000000000000000000000000000000000008152506040518060400160405280600881526020017f39383730303030300000000000000000000000000000000000000000000000008152506200029a60201b620004971760201c565b90806001815401808255809150506001900390600052602060002090600302016000909190919091506000820151816000019080519060200190620001129291906200038b565b506020820151816001019080519060200190620001319291906200038b565b506040820151816002019080519060200190620001509291906200038b565b50505060006200020c6040518060400160405280600d81526020017f2f2f6e6f6d652f746578742829000000000000000000000000000000000000008152506040518060400160405280600281526020017f213d0000000000000000000000000000000000000000000000000000000000008152506040518060400160405280600681526020017f456c6461697200000000000000000000000000000000000000000000000000008152506200029a60201b620004971760201c565b90806001815401808255809150506001900390600052602060002090600302016000909190919091506000820151816000019080519060200190620002539291906200038b565b506020820151816001019080519060200190620002729291906200038b565b506040820151816002019080519060200190620002919291906200038b565b50505062000598565b620002a46200041c565b600083600081518110620002bd57620002bc6200045c565b5b602001015160f81c60f81b9050602160f81b817effffffffffffffffffffffffffffffffffffffffffffffffffffffffffffff19161480620003245750603d60f81b817effffffffffffffffffffffffffffffffffffffffffffffffffffffffffffff1916145b62000366576040517f08c379a00000000000000000000000000000000000000000000000000000000081526004016200035d9062000512565b60405180910390fd5b6040518060600160405280868152602001858152602001848152509150509392505050565b828054620003999062000563565b90600052602060002090601f016020900481019282620003bd576000855562000409565b82601f10620003d857805160ff191683800117855562000409565b8280016001018555821562000409579182015b8281111562000408578251825591602001919060010190620003eb565b5b5090506200041891906200043d565b5090565b60405180606001604052806060815260200160608152602001606081525090565b5b80821115620004585760008160009055506001016200043e565b5090565b7f4e487b7100000000000000000000000000000000000000000000000000000000600052603260045260246000fd5b600082825260208201905092915050565b7f4f6e6c792027213d27206f7220273d3d27206f70657261746f7273206973206160008201527f6c6c6f7720746f20636f6d7061726520737472696e6773000000000000000000602082015250565b6000620004fa6037836200048b565b915062000507826200049c565b604082019050919050565b600060208201905081810360008301526200052d81620004eb565b9050919050565b7f4e487b7100000000000000000000000000000000000000000000000000000000600052602260045260246000fd5b600060028204905060018216806200057c57607f821691505b60208210810362000592576200059162000534565b5b50919050565b610a9480620005a86000396000f3fe608060405234801561001057600080fd5b50600436106100365760003560e01c80631d52266c1461003b5780636b12c94c1461006b575b600080fd5b6100556004803603810190610050919061081c565b61009b565b6040516100629190610880565b60405180910390f35b6100856004803603810190610080919061081c565b610299565b6040516100929190610880565b60405180910390f35b600061029282600080815481106100b5576100b461089b565b5b90600052602060002090600302016040518060600160405290816000820180546100de906108f9565b80601f016020809104026020016040519081016040528092919081815260200182805461010a906108f9565b80156101575780601f1061012c57610100808354040283529160200191610157565b820191906000526020600020905b81548152906001019060200180831161013a57829003601f168201915b50505050508152602001600182018054610170906108f9565b80601f016020809104026020016040519081016040528092919081815260200182805461019c906108f9565b80156101e95780601f106101be576101008083540402835291602001916101e9565b820191906000526020600020905b8154815290600101906020018083116101cc57829003601f168201915b50505050508152602001600282018054610202906108f9565b80601f016020809104026020016040519081016040528092919081815260200182805461022e906108f9565b801561027b5780601f106102505761010080835404028352916020019161027b565b820191906000526020600020905b81548152906001019060200180831161025e57829003601f168201915b50505050508152505061057f90919063ffffffff16565b9050919050565b600061049082600080815481106102b3576102b261089b565b5b90600052602060002090600302016040518060600160405290816000820180546102dc906108f9565b80601f0160208091040260200160405190810160405280929190818152602001828054610308906108f9565b80156103555780601f1061032a57610100808354040283529160200191610355565b820191906000526020600020905b81548152906001019060200180831161033857829003601f168201915b5050505050815260200160018201805461036e906108f9565b80601f016020809104026020016040519081016040528092919081815260200182805461039a906108f9565b80156103e75780601f106103bc576101008083540402835291602001916103e7565b820191906000526020600020905b8154815290600101906020018083116103ca57829003601f168201915b50505050508152602001600282018054610400906108f9565b80601f016020809104026020016040519081016040528092919081815260200182805461042c906108f9565b80156104795780601f1061044e57610100808354040283529160200191610479565b820191906000526020600020905b81548152906001019060200180831161045c57829003601f168201915b50505050508152505061057f90919063ffffffff16565b9050919050565b61049f6106a1565b6000836000815181106104b5576104b461089b565b5b602001015160f81c60f81b9050602160f81b817effffffffffffffffffffffffffffffffffffffffffffffffffffffffffffff1916148061051b5750603d60f81b817effffffffffffffffffffffffffffffffffffffffffffffffffffffffffffff1916145b61055a576040517f08c379a0000000000000000000000000000000000000000000000000000000008152600401610551906109ad565b60405180910390fd5b6040518060600160405280868152602001858152602001848152509150509392505050565b6000602160f81b836020015160008151811061059e5761059d61089b565b5b602001015160f81c60f81b7effffffffffffffffffffffffffffffffffffffffffffffffffffffffffffff19160361063557816040516020016105e19190610a47565b60405160208183030381529060405280519060200120836040015160405160200161060c9190610a47565b6040516020818303038152906040528051906020012014610630576001905061069b565b610696565b816040516020016106469190610a47565b6040516020818303038152906040528051906020012083604001516040516020016106719190610a47565b6040516020818303038152906040528051906020012003610695576001905061069b565b5b600090505b92915050565b60405180606001604052806060815260200160608152602001606081525090565b6000604051905090565b600080fd5b600080fd5b600080fd5b600080fd5b6000601f19601f8301169050919050565b7f4e487b7100000000000000000000000000000000000000000000000000000000600052604160045260246000fd5b610729826106e0565b810181811067ffffffffffffffff82111715610748576107476106f1565b5b80604052505050565b600061075b6106c2565b90506107678282610720565b919050565b600067ffffffffffffffff821115610787576107866106f1565b5b610790826106e0565b9050602081019050919050565b82818337600083830152505050565b60006107bf6107ba8461076c565b610751565b9050828152602081018484840111156107db576107da6106db565b5b6107e684828561079d565b509392505050565b600082601f830112610803576108026106d6565b5b81356108138482602086016107ac565b91505092915050565b600060208284031215610832576108316106cc565b5b600082013567ffffffffffffffff8111156108505761084f6106d1565b5b61085c848285016107ee565b91505092915050565b60008115159050919050565b61087a81610865565b82525050565b60006020820190506108956000830184610871565b92915050565b7f4e487b7100000000000000000000000000000000000000000000000000000000600052603260045260246000fd5b7f4e487b7100000000000000000000000000000000000000000000000000000000600052602260045260246000fd5b6000600282049050600182168061091157607f821691505b602082108103610924576109236108ca565b5b50919050565b600082825260208201905092915050565b7f4f6e6c792027213d27206f7220273d3d27206f70657261746f7273206973206160008201527f6c6c6f7720746f20636f6d7061726520737472696e6773000000000000000000602082015250565b600061099760378361092a565b91506109a28261093b565b604082019050919050565b600060208201905081810360008301526109c68161098a565b9050919050565b600081519050919050565b600081905092915050565b60005b83811015610a015780820151818401526020810190506109e6565b83811115610a10576000848401525b50505050565b6000610a21826109cd565b610a2b81856109d8565b9350610a3b8185602086016109e3565b80840191505092915050565b6000610a538284610a16565b91508190509291505056fea2646970667358221220bbc533a90eaa8a5161eadb90adbac6cbe8bb85ffc8649fe8367174570fb2b78e64736f6c634300080d0033",
  "immutableReferences": {},
  "source": "// SPDX-License-Identifier: MIT\r\npragma solidity >0.8.4 < 0.8.14;\r\nimport \"../eai/EAI.sol\";\r\n\r\ncontract MessageContentString_refCod{   \r\n\r\n    using EAI for EAI.MessageContent_String;\r\n\r\n    EAI.MessageContent_String[] msgContent;\r\n\r\n    constructor (){\r\n        msgContent.push(EAI.createMessageContent(\"//cep/text()\", \"==\", \"98700000\"));\r\n         msgContent.push(EAI.createMessageContent(\"//nome/text()\", \"!=\", \"Eldair\"));\r\n    }\r\n\r\n    function verifyCep(string memory _cep) public view returns(bool){\r\n        return  msgContent[0].evaluateMessageContent(_cep);        \r\n    }\r\n    \r\n    function verifyName (string memory _name) public view returns(bool){\r\n        return  msgContent[0].evaluateMessageContent(_name);       \r\n    }\r\n    \r\n}\r\n",
  "sourcePath": "D:\\git-repository\\dsl-smart-contract-eai\\02-models\\ProofOfConcept\\contracts\\lib\\referencesCode-eai\\MessageContentString_refCod.sol",
  "compiler": {
    "name": "solc",
    "version": "0.8.13+commit.abaa5c0e.Emscripten.clang"
  },
  "schemaVersion": "3.4.11",
  "updatedAt": "2023-01-27T21:13:21.700Z",
  "networkType": "ethereum",
  "devdoc": {
    "kind": "dev",
    "methods": {},
    "version": 1
  },
  "userdoc": {
    "kind": "user",
    "methods": {},
    "version": 1
  }
}