{
  "contractName": "MessageContent_NumberPerTime_refCod",
  "abi": [
    {
      "inputs": [],
      "stateMutability": "nonpayable",
      "type": "constructor"
    },
    {
      "inputs": [],
      "name": "getAllmsgContent",
      "outputs": [
        {
          "components": [
            {
              "internalType": "string",
              "name": "xpath",
              "type": "string"
            },
            {
              "internalType": "string",
              "name": "op",
              "type": "string"
            },
            {
              "internalType": "uint32",
              "name": "amount",
              "type": "uint32"
            },
            {
              "internalType": "uint8",
              "name": "timeUnit",
              "type": "uint8"
            },
            {
              "internalType": "uint32",
              "name": "byTime",
              "type": "uint32"
            },
            {
              "internalType": "uint32",
              "name": "rest",
              "type": "uint32"
            },
            {
              "internalType": "uint32",
              "name": "endTime",
              "type": "uint32"
            }
          ],
          "internalType": "struct EAI.MessageContent_NumberPerTime[]",
          "name": "",
          "type": "tuple[]"
        }
      ],
      "stateMutability": "view",
      "type": "function"
    },
    {
      "inputs": [
        {
          "internalType": "uint256",
          "name": "_id",
          "type": "uint256"
        },
        {
          "internalType": "uint32",
          "name": "_accessTime",
          "type": "uint32"
        },
        {
          "internalType": "uint32",
          "name": "_resultFromXpath",
          "type": "uint32"
        }
      ],
      "name": "decreaseMsgContentResultXpathFromAmount",
      "outputs": [
        {
          "components": [
            {
              "internalType": "string",
              "name": "xpath",
              "type": "string"
            },
            {
              "internalType": "string",
              "name": "op",
              "type": "string"
            },
            {
              "internalType": "uint32",
              "name": "amount",
              "type": "uint32"
            },
            {
              "internalType": "uint8",
              "name": "timeUnit",
              "type": "uint8"
            },
            {
              "internalType": "uint32",
              "name": "byTime",
              "type": "uint32"
            },
            {
              "internalType": "uint32",
              "name": "rest",
              "type": "uint32"
            },
            {
              "internalType": "uint32",
              "name": "endTime",
              "type": "uint32"
            }
          ],
          "internalType": "struct EAI.MessageContent_NumberPerTime",
          "name": "",
          "type": "tuple"
        }
      ],
      "stateMutability": "nonpayable",
      "type": "function"
    }
  ],
  "bytecode": "0x60806040523480156200001157600080fd5b506000620000996040518060400160405280601081526020017f636f756e74282f2f6164647265737329000000000000000000000000000000008152506040518060400160405280600281526020017f3c3d00000000000000000000000000000000000000000000000000000000000081525060026001620001c560201b6200050e1760201c565b90806001815401808255809150506001900390600052602060002090600302016000909190919091506000820151816000019080519060200190620000e09291906200031a565b506020820151816001019080519060200190620000ff9291906200031a565b5060408201518160020160006101000a81548163ffffffff021916908363ffffffff16021790555060608201518160020160046101000a81548160ff021916908360ff16021790555060808201518160020160056101000a81548163ffffffff021916908363ffffffff16021790555060a08201518160020160096101000a81548163ffffffff021916908363ffffffff16021790555060c082015181600201600d6101000a81548163ffffffff021916908363ffffffff16021790555050506200052f565b620001cf620003ab565b6000600460ff168360ff1611620001f957620001f1836200025860201b60201c565b9050620001fe565b600190505b6040518060e001604052808781526020018681526020018563ffffffff1681526020018460ff1681526020018263ffffffff1681526020018563ffffffff168152602001600063ffffffff16815250915050949350505050565b6000600460ff168260ff161115620002a7576040517f08c379a00000000000000000000000000000000000000000000000000000000081526004016200029e90620004a9565b60405180910390fd5b600060ff168260ff1603620002c0576001905062000315565b600160ff168260ff1603620002d957603c905062000315565b600260ff168260ff1603620002f357610e10905062000315565b600360ff168260ff16036200030e5762015180905062000315565b62093a8090505b919050565b8280546200032890620004fa565b90600052602060002090601f0160209004810192826200034c576000855562000398565b82601f106200036757805160ff191683800117855562000398565b8280016001018555821562000398579182015b82811115620003975782518255916020019190600101906200037a565b5b509050620003a7919062000403565b5090565b6040518060e001604052806060815260200160608152602001600063ffffffff168152602001600060ff168152602001600063ffffffff168152602001600063ffffffff168152602001600063ffffffff1681525090565b5b808211156200041e57600081600090555060010162000404565b5090565b600082825260208201905092915050565b7f546865206d6574686f642067657454696d65496e5365636f6e647320646f657360008201527f6e277420776f726b20666f72204d4f4e544820616e6420594541520000000000602082015250565b600062000491603b8362000422565b91506200049e8262000433565b604082019050919050565b60006020820190508181036000830152620004c48162000482565b9050919050565b7f4e487b7100000000000000000000000000000000000000000000000000000000600052602260045260246000fd5b600060028204905060018216806200051357607f821691505b602082108103620005295762000528620004cb565b5b50919050565b611946806200053f6000396000f3fe608060405234801561001057600080fd5b50600436106100365760003560e01c806301f311701461003b578063636f405614610059575b600080fd5b610043610089565b60405161005091906110e9565b60405180910390f35b610073600480360381019061006e9190611172565b6102c1565b6040516100809190611268565b60405180910390f35b60606000805480602002602001604051908101604052809291908181526020016000905b828210156102b857838290600052602060002090600302016040518060e00160405290816000820180546100e0906112b9565b80601f016020809104026020016040519081016040528092919081815260200182805461010c906112b9565b80156101595780601f1061012e57610100808354040283529160200191610159565b820191906000526020600020905b81548152906001019060200180831161013c57829003601f168201915b50505050508152602001600182018054610172906112b9565b80601f016020809104026020016040519081016040528092919081815260200182805461019e906112b9565b80156101eb5780601f106101c0576101008083540402835291602001916101eb565b820191906000526020600020905b8154815290600101906020018083116101ce57829003601f168201915b505050505081526020016002820160009054906101000a900463ffffffff1663ffffffff1663ffffffff1681526020016002820160049054906101000a900460ff1660ff1660ff1681526020016002820160059054906101000a900463ffffffff1663ffffffff1663ffffffff1681526020016002820160099054906101000a900463ffffffff1663ffffffff1663ffffffff16815260200160028201600d9054906101000a900463ffffffff1663ffffffff1663ffffffff1681525050815260200190600101906100ad565b50505050905090565b6102c9610e58565b6102ff8383600087815481106102e2576102e16112ea565b5b90600052602060002090600302016105959092919063ffffffff16565b60008481548110610313576103126112ea565b5b90600052602060002090600302016040518060e001604052908160008201805461033c906112b9565b80601f0160208091040260200160405190810160405280929190818152602001828054610368906112b9565b80156103b55780601f1061038a576101008083540402835291602001916103b5565b820191906000526020600020905b81548152906001019060200180831161039857829003601f168201915b505050505081526020016001820180546103ce906112b9565b80601f01602080910402602001604051908101604052809291908181526020018280546103fa906112b9565b80156104475780601f1061041c57610100808354040283529160200191610447565b820191906000526020600020905b81548152906001019060200180831161042a57829003601f168201915b505050505081526020016002820160009054906101000a900463ffffffff1663ffffffff1663ffffffff1681526020016002820160049054906101000a900460ff1660ff1660ff1681526020016002820160059054906101000a900463ffffffff1663ffffffff1663ffffffff1681526020016002820160099054906101000a900463ffffffff1663ffffffff1663ffffffff16815260200160028201600d9054906101000a900463ffffffff1663ffffffff1663ffffffff168152505090509392505050565b610516610e58565b6000600460ff168360ff16116105365761052f836108cc565b905061053b565b600190505b6040518060e001604052808781526020018681526020018563ffffffff1681526020018460ff1681526020018263ffffffff1681526020018563ffffffff168152602001600063ffffffff16815250915050949350505050565b60008163ffffffff16116105de576040517f08c379a00000000000000000000000000000000000000000000000000000000081526004016105d59061139c565b60405180910390fd5b61060e8360020160049054906101000a900460ff1684600201600d9054906101000a900463ffffffff1684610983565b1561069d578260020160009054906101000a900463ffffffff168360020160096101000a81548163ffffffff021916908363ffffffff16021790555061067a8360020160059054906101000a900463ffffffff168460020160049054906101000a900460ff1684610a48565b83600201600d6101000a81548163ffffffff021916908363ffffffff1602179055505b60006106c28460020160099054906101000a900463ffffffff1663ffffffff16610adb565b6106e58560020160009054906101000a900463ffffffff1663ffffffff16610adb565b6106f48463ffffffff16610adb565b60405160200161070693929190611502565b60405160208183030381529060405290506000846001018054610728906112b9565b80601f0160208091040260200160405190810160405280929190818152602001828054610754906112b9565b80156107a15780601f10610776576101008083540402835291602001916107a1565b820191906000526020600020905b81548152906001019060200180831161078457829003601f168201915b50505050509050600281510361081d578460020160099054906101000a900463ffffffff1663ffffffff168363ffffffff1611158290610817576040517f08c379a000000000000000000000000000000000000000000000000000000000815260040161080e919061158d565b60405180910390fd5b50610884565b8460020160099054906101000a900463ffffffff1663ffffffff168363ffffffff16108290610882576040517f08c379a0000000000000000000000000000000000000000000000000000000008152600401610879919061158d565b60405180910390fd5b505b828560020160098282829054906101000a900463ffffffff166108a791906115de565b92506101000a81548163ffffffff021916908363ffffffff1602179055505050505050565b6000600460ff168260ff161115610918576040517f08c379a000000000000000000000000000000000000000000000000000000000815260040161090f90611684565b60405180910390fd5b600060ff168260ff160361092f576001905061097e565b600160ff168260ff160361094657603c905061097e565b600260ff168260ff160361095e57610e10905061097e565b600360ff168260ff16036109775762015180905061097e565b62093a8090505b919050565b600080849050600460ff168160ff16116109af578363ffffffff168363ffffffff161015915050610a41565b600560ff168160ff1603610a175760006109ce8463ffffffff16610c3b565b50915050600d8563ffffffff161480156109ee575060018163ffffffff16145b156109fe57600192505050610a41565b8463ffffffff168163ffffffff16101592505050610a41565b6000610a288463ffffffff16610c3b565b505090508463ffffffff168163ffffffff161015925050505b9392505050565b6000600460ff168360ff1611610a6a57610a63838386610dee565b9050610ad4565b600560ff168360ff1603610aa8576000610a898363ffffffff16610c3b565b5063ffffffff16915050600181610aa091906116a4565b915050610ad4565b6000610ab98363ffffffff16610c3b565b505063ffffffff169050600181610ad091906116a4565b9150505b9392505050565b606060008203610b22576040518060400160405280600181526020017f30000000000000000000000000000000000000000000000000000000000000008152509050610c36565b600082905060005b60008214610b54578080610b3d906116fa565b915050600a82610b4d9190611771565b9150610b2a565b60008167ffffffffffffffff811115610b7057610b6f6117a2565b5b6040519080825280601f01601f191660200182016040528015610ba25781602001600182028036833780820191505090505b5090505b60008514610c2f57600182610bbb91906117d1565b9150600a85610bca9190611805565b6030610bd691906116a4565b60f81b818381518110610bec57610beb6112ea565b5b60200101907effffffffffffffffffffffffffffffffffffffffffffffffffffffffffffff1916908160001a905350600a85610c289190611771565b9450610ba6565b8093505050505b919050565b6000806000806201518063ffffffff1685610c569190611771565b9050600062253d8c62010bd983610c6d9190611836565b610c779190611836565b9050600062023ab1826004610c8c9190611870565b610c9691906118ae565b9050600460038262023ab1610cab9190611870565b610cb59190611836565b610cbf91906118ae565b82610cca91906115de565b9150600062164b09600184610cdf9190611836565b610fa0610cec9190611870565b610cf691906118ae565b9050601f6004826105b5610d0a9190611870565b610d1491906118ae565b84610d1f91906115de565b610d299190611836565b9250600061098f846050610d3d9190611870565b610d4791906118ae565b9050600060508261098f610d5b9190611870565b610d6591906118ae565b85610d7091906115de565b9050600b82610d7f91906118ae565b945084600c610d8e9190611870565b600283610d9b9190611836565b610da591906115de565b91508483603186610db691906115de565b6064610dc29190611870565b610dcc9190611836565b610dd69190611836565b92508298508197508096505050505050509193909250565b6000808284610dfd91906118df565b905060008184610e0d91906115de565b9050600460ff168660ff1603610e40576203f4808186610e2d9190611836565b610e379190611836565b92505050610e51565b8085610e4c9190611836565b925050505b9392505050565b6040518060e001604052806060815260200160608152602001600063ffffffff168152602001600060ff168152602001600063ffffffff168152602001600063ffffffff168152602001600063ffffffff1681525090565b600081519050919050565b600082825260208201905092915050565b6000819050602082019050919050565b600081519050919050565b600082825260208201905092915050565b60005b83811015610f16578082015181840152602081019050610efb565b83811115610f25576000848401525b50505050565b6000601f19601f8301169050919050565b6000610f4782610edc565b610f518185610ee7565b9350610f61818560208601610ef8565b610f6a81610f2b565b840191505092915050565b600063ffffffff82169050919050565b610f8e81610f75565b82525050565b600060ff82169050919050565b610faa81610f94565b82525050565b600060e0830160008301518482036000860152610fcd8282610f3c565b91505060208301518482036020860152610fe78282610f3c565b9150506040830151610ffc6040860182610f85565b50606083015161100f6060860182610fa1565b5060808301516110226080860182610f85565b5060a083015161103560a0860182610f85565b5060c083015161104860c0860182610f85565b508091505092915050565b600061105f8383610fb0565b905092915050565b6000602082019050919050565b600061107f82610eb0565b6110898185610ebb565b93508360208202850161109b85610ecc565b8060005b858110156110d757848403895281516110b88582611053565b94506110c383611067565b925060208a0199505060018101905061109f565b50829750879550505050505092915050565b600060208201905081810360008301526111038184611074565b905092915050565b600080fd5b6000819050919050565b61112381611110565b811461112e57600080fd5b50565b6000813590506111408161111a565b92915050565b61114f81610f75565b811461115a57600080fd5b50565b60008135905061116c81611146565b92915050565b60008060006060848603121561118b5761118a61110b565b5b600061119986828701611131565b93505060206111aa8682870161115d565b92505060406111bb8682870161115d565b9150509250925092565b600060e08301600083015184820360008601526111e28282610f3c565b915050602083015184820360208601526111fc8282610f3c565b91505060408301516112116040860182610f85565b5060608301516112246060860182610fa1565b5060808301516112376080860182610f85565b5060a083015161124a60a0860182610f85565b5060c083015161125d60c0860182610f85565b508091505092915050565b6000602082019050818103600083015261128281846111c5565b905092915050565b7f4e487b7100000000000000000000000000000000000000000000000000000000600052602260045260246000fd5b600060028204905060018216806112d157607f821691505b6020821081036112e4576112e361128a565b5b50919050565b7f4e487b7100000000000000000000000000000000000000000000000000000000600052603260045260246000fd5b600082825260208201905092915050565b7f54686520726573756c74206f66207468652078706174682073686f756c64206260008201527f65206d6f7265207468616e203000000000000000000000000000000000000000602082015250565b6000611386602d83611319565b91506113918261132a565b604082019050919050565b600060208201905081810360008301526113b581611379565b9050919050565b600081905092915050565b7f596f752068617665206f6e6c7920000000000000000000000000000000000000600082015250565b60006113fd600e836113bc565b9150611408826113c7565b600e82019050919050565b600061141e82610edc565b61142881856113bc565b9350611438818560208601610ef8565b80840191505092915050565b7f2066726f6d200000000000000000000000000000000000000000000000000000600082015250565b600061147a6006836113bc565b915061148582611444565b600682019050919050565b7f2072657374696e672c20616e6420746865206d65737361676520636f6e74657460008201527f20787061746820726573756c7420697320000000000000000000000000000000602082015250565b60006114ec6031836113bc565b91506114f782611490565b603182019050919050565b600061150d826113f0565b91506115198286611413565b91506115248261146d565b91506115308285611413565b915061153b826114df565b91506115478284611413565b9150819050949350505050565b600061155f82610edc565b6115698185611319565b9350611579818560208601610ef8565b61158281610f2b565b840191505092915050565b600060208201905081810360008301526115a78184611554565b905092915050565b7f4e487b7100000000000000000000000000000000000000000000000000000000600052601160045260246000fd5b60006115e982610f75565b91506115f483610f75565b925082821015611607576116066115af565b5b828203905092915050565b7f546865206d6574686f642067657454696d65496e5365636f6e647320646f657360008201527f6e277420776f726b20666f72204d4f4e544820616e6420594541520000000000602082015250565b600061166e603b83611319565b915061167982611612565b604082019050919050565b6000602082019050818103600083015261169d81611661565b9050919050565b60006116af82611110565b91506116ba83611110565b9250827fffffffffffffffffffffffffffffffffffffffffffffffffffffffffffffffff038211156116ef576116ee6115af565b5b828201905092915050565b600061170582611110565b91507fffffffffffffffffffffffffffffffffffffffffffffffffffffffffffffffff8203611737576117366115af565b5b600182019050919050565b7f4e487b7100000000000000000000000000000000000000000000000000000000600052601260045260246000fd5b600061177c82611110565b915061178783611110565b92508261179757611796611742565b5b828204905092915050565b7f4e487b7100000000000000000000000000000000000000000000000000000000600052604160045260246000fd5b60006117dc82611110565b91506117e783611110565b9250828210156117fa576117f96115af565b5b828203905092915050565b600061181082611110565b915061181b83611110565b92508261182b5761182a611742565b5b828206905092915050565b600061184182610f75565b915061184c83610f75565b92508263ffffffff03821115611865576118646115af565b5b828201905092915050565b600061187b82610f75565b915061188683610f75565b92508163ffffffff04831182151516156118a3576118a26115af565b5b828202905092915050565b60006118b982610f75565b91506118c483610f75565b9250826118d4576118d3611742565b5b828204905092915050565b60006118ea82610f75565b91506118f583610f75565b92508261190557611904611742565b5b82820690509291505056fea2646970667358221220312ef41bacf4f43f1e456cd36328d92360ebae6cd4d5efd8aae5e0ccd2a2cb0764736f6c634300080d0033",
  "immutableReferences": {},
  "source": "//SPDX-License-Identifier: MIT\r\n\r\npragma solidity >0.8.4 < 0.8.14;\r\n\r\nimport \"../eai/EAI.sol\";\r\n\r\ncontract MessageContent_NumberPerTime_refCod{\r\n   \r\n    using EAI for EAI.MessageContent_NumberPerTime;\r\n\r\n    EAI.MessageContent_NumberPerTime[] msgContent;\r\n\r\n    constructor(){\r\n        msgContent.push(EAI.createMessageContent_NumberPerTime(\"count(//address)\", \"<=\", 2, EAI.MINUTE));\r\n    }\r\n\r\n    function getAllmsgContent()public view returns(EAI.MessageContent_NumberPerTime[] memory){\r\n        return msgContent;\r\n    }\r\n\r\n    function decreaseMsgContentResultXpathFromAmount(uint _id, \r\n        uint32 _accessTime, \r\n        uint32 _resultFromXpath\r\n        )public returns(EAI.MessageContent_NumberPerTime memory){\r\n        msgContent[_id].decreaseNumberPerTime(_accessTime, _resultFromXpath);\r\n        return msgContent[_id];\r\n    }\r\n\r\n}",
  "sourcePath": "C:\\git-repository\\dsl-smart-contract-eai\\02-models\\ProofOfConcept\\contracts\\lib\\referencesCode-eai\\MessageContent_NumberPerTime_refCod.sol",
  "compiler": {
    "name": "solc",
    "version": "0.8.13+commit.abaa5c0e.Emscripten.clang"
  },
  "schemaVersion": "3.4.11",
  "updatedAt": "2023-01-30T16:49:48.763Z",
  "devdoc": {
    "kind": "dev",
    "methods": {},
    "version": 1
  },
  "userdoc": {
    "kind": "user",
    "methods": {},
    "version": 1
  }
}