{
  "contractName": "Party_refCod",
  "abi": [
    {
      "inputs": [
        {
          "internalType": "address",
          "name": "_applicationAddress",
          "type": "address"
        }
      ],
      "stateMutability": "nonpayable",
      "type": "constructor"
    },
    {
      "inputs": [
        {
          "internalType": "address",
          "name": "",
          "type": "address"
        }
      ],
      "name": "mapParty",
      "outputs": [
        {
          "internalType": "string",
          "name": "name",
          "type": "string"
        },
        {
          "internalType": "address",
          "name": "walletAddress",
          "type": "address"
        },
        {
          "internalType": "bool",
          "name": "aware",
          "type": "bool"
        }
      ],
      "stateMutability": "view",
      "type": "function",
      "constant": true
    },
    {
      "inputs": [],
      "name": "signContract",
      "outputs": [],
      "stateMutability": "nonpayable",
      "type": "function"
    },
    {
      "inputs": [
        {
          "internalType": "string",
          "name": "_name",
          "type": "string"
        },
        {
          "internalType": "address",
          "name": "_walletAddress",
          "type": "address"
        }
      ],
      "name": "changeApplicationParty",
      "outputs": [],
      "stateMutability": "nonpayable",
      "type": "function"
    },
    {
      "inputs": [],
      "name": "getProcessAddress",
      "outputs": [
        {
          "internalType": "address",
          "name": "",
          "type": "address"
        }
      ],
      "stateMutability": "view",
      "type": "function",
      "constant": true
    },
    {
      "inputs": [],
      "name": "getApplicationAddress",
      "outputs": [
        {
          "internalType": "address",
          "name": "",
          "type": "address"
        }
      ],
      "stateMutability": "view",
      "type": "function",
      "constant": true
    },
    {
      "inputs": [
        {
          "internalType": "address",
          "name": "_walletAddress",
          "type": "address"
        }
      ],
      "name": "getParty",
      "outputs": [
        {
          "components": [
            {
              "internalType": "string",
              "name": "name",
              "type": "string"
            },
            {
              "internalType": "address",
              "name": "walletAddress",
              "type": "address"
            },
            {
              "internalType": "bool",
              "name": "aware",
              "type": "bool"
            }
          ],
          "internalType": "struct EAI.Party",
          "name": "",
          "type": "tuple"
        }
      ],
      "stateMutability": "view",
      "type": "function",
      "constant": true
    }
  ],
  "bytecode": "0x60806040523480156200001157600080fd5b5060405162001a0e38038062001a0e833981810160405281019062000037919062000618565b620000856040518060400160405280600b81526020017f70726f636573734e616d65000000000000000000000000000000000000000000815250336001620003e760201b6200098a1760201c565b600080820151816000019080519060200190620000a49291906200042d565b5060208201518160010160006101000a81548173ffffffffffffffffffffffffffffffffffffffff021916908373ffffffffffffffffffffffffffffffffffffffff16021790555060408201518160010160146101000a81548160ff0219169083151502179055509050506200015d6040518060400160405280600f81526020017f6170706c69636174696f6e4e616d650000000000000000000000000000000000815250826000620003e760201b6200098a1760201c565b600260008201518160000190805190602001906200017d9291906200042d565b5060208201518160010160006101000a81548173ffffffffffffffffffffffffffffffffffffffff021916908373ffffffffffffffffffffffffffffffffffffffff16021790555060408201518160010160146101000a81548160ff0219169083151502179055509050506000600460003373ffffffffffffffffffffffffffffffffffffffff1673ffffffffffffffffffffffffffffffffffffffff16815260200190815260200160002060008201816000019080546200023f9062000679565b6200024c929190620004be565b506001820160009054906101000a900473ffffffffffffffffffffffffffffffffffffffff168160010160006101000a81548173ffffffffffffffffffffffffffffffffffffffff021916908373ffffffffffffffffffffffffffffffffffffffff1602179055506001820160149054906101000a900460ff168160010160146101000a81548160ff0219169083151502179055509050506002600460008373ffffffffffffffffffffffffffffffffffffffff1673ffffffffffffffffffffffffffffffffffffffff16815260200190815260200160002060008201816000019080546200033b9062000679565b62000348929190620004be565b506001820160009054906101000a900473ffffffffffffffffffffffffffffffffffffffff168160010160006101000a81548173ffffffffffffffffffffffffffffffffffffffff021916908373ffffffffffffffffffffffffffffffffffffffff1602179055506001820160149054906101000a900460ff168160010160146101000a81548160ff02191690831515021790555090505050620006ae565b620003f162000556565b60405180606001604052808581526020018473ffffffffffffffffffffffffffffffffffffffff16815260200183151581525090509392505050565b8280546200043b9062000679565b90600052602060002090601f0160209004810192826200045f5760008555620004ab565b82601f106200047a57805160ff1916838001178555620004ab565b82800160010185558215620004ab579182015b82811115620004aa5782518255916020019190600101906200048d565b5b509050620004ba91906200058f565b5090565b828054620004cc9062000679565b90600052602060002090601f016020900481019282620004f0576000855562000543565b82601f1062000503578054855562000543565b828001600101855582156200054357600052602060002091601f016020900482015b828111156200054257825482559160010191906001019062000525565b5b5090506200055291906200058f565b5090565b604051806060016040528060608152602001600073ffffffffffffffffffffffffffffffffffffffff1681526020016000151581525090565b5b80821115620005aa57600081600090555060010162000590565b5090565b600080fd5b600073ffffffffffffffffffffffffffffffffffffffff82169050919050565b6000620005e082620005b3565b9050919050565b620005f281620005d3565b8114620005fe57600080fd5b50565b6000815190506200061281620005e7565b92915050565b600060208284031215620006315762000630620005ae565b5b6000620006418482850162000601565b91505092915050565b7f4e487b7100000000000000000000000000000000000000000000000000000000600052602260045260246000fd5b600060028204905060018216806200069257607f821691505b602082108103620006a857620006a76200064a565b5b50919050565b61135080620006be6000396000f3fe608060405234801561001057600080fd5b50600436106100625760003560e01c80635e744c6a1461006757806370d8915a1461008357806385931911146100a1578063b8b4f1a0146100bf578063d982b5e3146100c9578063fb6f8243146100fb575b600080fd5b610081600480360381019061007c9190610e2a565b61012b565b005b61008b610314565b6040516100989190610e95565b60405180910390f35b6100a961042f565b6040516100b69190610e95565b60405180910390f35b6100c761054a565b005b6100e360048036038101906100de9190610eb0565b610661565b6040516100f293929190610f80565b60405180910390f35b61011560048036038101906101109190610eb0565b610740565b6040516101229190611076565b60405180910390f35b3373ffffffffffffffffffffffffffffffffffffffff16600060010160009054906101000a900473ffffffffffffffffffffffffffffffffffffffff1673ffffffffffffffffffffffffffffffffffffffff16146101be576040517f08c379a00000000000000000000000000000000000000000000000000000000081526004016101b59061110a565b60405180910390fd5b60046000600260010160009054906101000a900473ffffffffffffffffffffffffffffffffffffffff1673ffffffffffffffffffffffffffffffffffffffff1673ffffffffffffffffffffffffffffffffffffffff168152602001908152602001600020600080820160006102339190610ac9565b6001820160006101000a81549073ffffffffffffffffffffffffffffffffffffffff02191690556001820160146101000a81549060ff0219169055505061027c8282600061098a565b6002600082015181600001908051906020019061029a929190610b09565b5060208201518160010160006101000a81548173ffffffffffffffffffffffffffffffffffffffff021916908373ffffffffffffffffffffffffffffffffffffffff16021790555060408201518160010160146101000a81548160ff0219169083151502179055509050506103108160026109ce565b5050565b60003373ffffffffffffffffffffffffffffffffffffffff16600260010160009054906101000a900473ffffffffffffffffffffffffffffffffffffffff1673ffffffffffffffffffffffffffffffffffffffff1614806103c557503373ffffffffffffffffffffffffffffffffffffffff16600060010160009054906101000a900473ffffffffffffffffffffffffffffffffffffffff1673ffffffffffffffffffffffffffffffffffffffff16145b610404576040517f08c379a00000000000000000000000000000000000000000000000000000000081526004016103fb9061119c565b60405180910390fd5b600260010160009054906101000a900473ffffffffffffffffffffffffffffffffffffffff16905090565b60003373ffffffffffffffffffffffffffffffffffffffff16600260010160009054906101000a900473ffffffffffffffffffffffffffffffffffffffff1673ffffffffffffffffffffffffffffffffffffffff1614806104e057503373ffffffffffffffffffffffffffffffffffffffff16600060010160009054906101000a900473ffffffffffffffffffffffffffffffffffffffff1673ffffffffffffffffffffffffffffffffffffffff16145b61051f576040517f08c379a00000000000000000000000000000000000000000000000000000000081526004016105169061119c565b60405180910390fd5b600060010160009054906101000a900473ffffffffffffffffffffffffffffffffffffffff16905090565b3373ffffffffffffffffffffffffffffffffffffffff16600260010160009054906101000a900473ffffffffffffffffffffffffffffffffffffffff1673ffffffffffffffffffffffffffffffffffffffff16146105dd576040517f08c379a00000000000000000000000000000000000000000000000000000000081526004016105d49061122e565b60405180910390fd5b60001515600260010160149054906101000a900460ff16151514610636576040517f08c379a000000000000000000000000000000000000000000000000000000000815260040161062d9061129a565b60405180910390fd5b6001600260010160146101000a81548160ff02191690831515021790555061065f3360026109ce565b565b6004602052806000526040600020600091509050806000018054610684906112e9565b80601f01602080910402602001604051908101604052809291908181526020018280546106b0906112e9565b80156106fd5780601f106106d2576101008083540402835291602001916106fd565b820191906000526020600020905b8154815290600101906020018083116106e057829003601f168201915b5050505050908060010160009054906101000a900473ffffffffffffffffffffffffffffffffffffffff16908060010160149054906101000a900460ff16905083565b610748610b8f565b3373ffffffffffffffffffffffffffffffffffffffff16600260010160009054906101000a900473ffffffffffffffffffffffffffffffffffffffff1673ffffffffffffffffffffffffffffffffffffffff1614806107f757503373ffffffffffffffffffffffffffffffffffffffff16600060010160009054906101000a900473ffffffffffffffffffffffffffffffffffffffff1673ffffffffffffffffffffffffffffffffffffffff16145b610836576040517f08c379a000000000000000000000000000000000000000000000000000000000815260040161082d9061119c565b60405180910390fd5b600460008373ffffffffffffffffffffffffffffffffffffffff1673ffffffffffffffffffffffffffffffffffffffff168152602001908152602001600020604051806060016040529081600082018054610890906112e9565b80601f01602080910402602001604051908101604052809291908181526020018280546108bc906112e9565b80156109095780601f106108de57610100808354040283529160200191610909565b820191906000526020600020905b8154815290600101906020018083116108ec57829003601f168201915b505050505081526020016001820160009054906101000a900473ffffffffffffffffffffffffffffffffffffffff1673ffffffffffffffffffffffffffffffffffffffff1673ffffffffffffffffffffffffffffffffffffffff1681526020016001820160149054906101000a900460ff1615151515815250509050919050565b610992610b8f565b60405180606001604052808581526020018473ffffffffffffffffffffffffffffffffffffffff16815260200183151581525090509392505050565b80600460008473ffffffffffffffffffffffffffffffffffffffff1673ffffffffffffffffffffffffffffffffffffffff1681526020019081526020016000206000820181600001908054610a22906112e9565b610a2d929190610bc8565b506001820160009054906101000a900473ffffffffffffffffffffffffffffffffffffffff168160010160006101000a81548173ffffffffffffffffffffffffffffffffffffffff021916908373ffffffffffffffffffffffffffffffffffffffff1602179055506001820160149054906101000a900460ff168160010160146101000a81548160ff0219169083151502179055509050505050565b508054610ad5906112e9565b6000825580601f10610ae75750610b06565b601f016020900490600052602060002090810190610b059190610c55565b5b50565b828054610b15906112e9565b90600052602060002090601f016020900481019282610b375760008555610b7e565b82601f10610b5057805160ff1916838001178555610b7e565b82800160010185558215610b7e579182015b82811115610b7d578251825591602001919060010190610b62565b5b509050610b8b9190610c55565b5090565b604051806060016040528060608152602001600073ffffffffffffffffffffffffffffffffffffffff1681526020016000151581525090565b828054610bd4906112e9565b90600052602060002090601f016020900481019282610bf65760008555610c44565b82601f10610c075780548555610c44565b82800160010185558215610c4457600052602060002091601f016020900482015b82811115610c43578254825591600101919060010190610c28565b5b509050610c519190610c55565b5090565b5b80821115610c6e576000816000905550600101610c56565b5090565b6000604051905090565b600080fd5b600080fd5b600080fd5b600080fd5b6000601f19601f8301169050919050565b7f4e487b7100000000000000000000000000000000000000000000000000000000600052604160045260246000fd5b610cd982610c90565b810181811067ffffffffffffffff82111715610cf857610cf7610ca1565b5b80604052505050565b6000610d0b610c72565b9050610d178282610cd0565b919050565b600067ffffffffffffffff821115610d3757610d36610ca1565b5b610d4082610c90565b9050602081019050919050565b82818337600083830152505050565b6000610d6f610d6a84610d1c565b610d01565b905082815260208101848484011115610d8b57610d8a610c8b565b5b610d96848285610d4d565b509392505050565b600082601f830112610db357610db2610c86565b5b8135610dc3848260208601610d5c565b91505092915050565b600073ffffffffffffffffffffffffffffffffffffffff82169050919050565b6000610df782610dcc565b9050919050565b610e0781610dec565b8114610e1257600080fd5b50565b600081359050610e2481610dfe565b92915050565b60008060408385031215610e4157610e40610c7c565b5b600083013567ffffffffffffffff811115610e5f57610e5e610c81565b5b610e6b85828601610d9e565b9250506020610e7c85828601610e15565b9150509250929050565b610e8f81610dec565b82525050565b6000602082019050610eaa6000830184610e86565b92915050565b600060208284031215610ec657610ec5610c7c565b5b6000610ed484828501610e15565b91505092915050565b600081519050919050565b600082825260208201905092915050565b60005b83811015610f17578082015181840152602081019050610efc565b83811115610f26576000848401525b50505050565b6000610f3782610edd565b610f418185610ee8565b9350610f51818560208601610ef9565b610f5a81610c90565b840191505092915050565b60008115159050919050565b610f7a81610f65565b82525050565b60006060820190508181036000830152610f9a8186610f2c565b9050610fa96020830185610e86565b610fb66040830184610f71565b949350505050565b600082825260208201905092915050565b6000610fda82610edd565b610fe48185610fbe565b9350610ff4818560208601610ef9565b610ffd81610c90565b840191505092915050565b61101181610dec565b82525050565b61102081610f65565b82525050565b600060608301600083015184820360008601526110438282610fcf565b91505060208301516110586020860182611008565b50604083015161106b6040860182611017565b508091505092915050565b600060208201905081810360008301526110908184611026565b905092915050565b7f4f6e6c79207468652070726f636573732063616e20657865637574652074686960008201527f73206f7065726174696f6e000000000000000000000000000000000000000000602082015250565b60006110f4602b83610ee8565b91506110ff82611098565b604082019050919050565b60006020820190508181036000830152611123816110e7565b9050919050565b7f4f6e6c79207468652070726f63657373206f7220746865206170706c6963617460008201527f696f6e2063616e20657865637574652074686973206f7065726174696f6e0000602082015250565b6000611186603e83610ee8565b91506111918261112a565b604082019050919050565b600060208201905081810360008301526111b581611179565b9050919050565b7f4f6e6c7920746865206170706c69636174696f6e2063616e206578656375746560008201527f2074686973206f7065726174696f6e0000000000000000000000000000000000602082015250565b6000611218602f83610ee8565b9150611223826111bc565b604082019050919050565b600060208201905081810360008301526112478161120b565b9050919050565b7f54686520636f6e747261637420697320616c7265616479207369676e65640000600082015250565b6000611284601e83610ee8565b915061128f8261124e565b602082019050919050565b600060208201905081810360008301526112b381611277565b9050919050565b7f4e487b7100000000000000000000000000000000000000000000000000000000600052602260045260246000fd5b6000600282049050600182168061130157607f821691505b602082108103611314576113136112ba565b5b5091905056fea2646970667358221220386d0d5666c51e65045818912cc0c4ebc55cd9fa1dd68e0fa83dadbd103860f364736f6c634300080d0033",
  "immutableReferences": {},
  "source": "//SPDX-License-Identifier: MIT\r\npragma solidity >0.8.4 < 0.8.14;\r\n// pragma experimental 'ABIEncoderV2';\r\nimport \"../eai/EAI.sol\";\r\n\r\ncontract Party_refCod{    \r\n\r\n    using EAI for EAI.Party;\r\n    EAI.Party process;\r\n    EAI.Party application;\r\n\r\n\r\n    mapping(address=>EAI.Party) public mapParty;\r\n\r\n    constructor(address _applicationAddress){\r\n\t    process = EAI.createParty(\"processName\", msg.sender, true);\r\n\t    application = EAI.createParty(\"applicationName\", _applicationAddress, false);        \r\n        mapParty[msg.sender] = process;\r\n        mapParty[_applicationAddress] = application;\r\n   }\r\n\r\n    /* the process sign the contract by default, the function signContract \r\n    is used to get the applicationParty signature*/\r\n    function signContract() public onlyApplication(){\r\n        require(application.aware == false, \"The contract is already signed\");        \r\n        application.aware = true;  \r\n        updateMapParty(msg.sender, application);\r\n       \r\n    }\r\n\r\n    function updateMapParty(address _walletAddress, EAI.Party storage _party)internal{       \r\n        mapParty[_walletAddress] = _party;\r\n    }\r\n\r\n    /* It only possible to change the name and the address of the party. \r\n    After change the  party, da new party need to sign the contract */\r\n    function changeApplicationParty(string memory _name, address _walletAddress) public onlyProcess {       \r\n        delete mapParty[application.walletAddress];\r\n        application = EAI.createParty(_name, _walletAddress, false);          \r\n        updateMapParty(_walletAddress, application);              \r\n    }\r\n\r\n    function getProcessAddress() public view onlyInvolvedParties returns(address){\r\n        return process.walletAddress;\r\n    }\r\n    \r\n    function getApplicationAddress() public view onlyInvolvedParties returns(address){\r\n        return application.walletAddress;\r\n    }\r\n\r\n    function getParty(address _walletAddress) public view onlyInvolvedParties returns(EAI.Party memory){\r\n        return mapParty[_walletAddress];\r\n    }\r\n\r\n    /* =================================================================================== */\r\n    /* ==================================== MODIFIERS ==================================== */\r\n    /* ----------------------------------------------------------------------------------- */\r\n    \r\n    modifier onlyApplication(){\r\n        require(application.walletAddress == msg.sender, \"Only the application can execute this operation\");\r\n        _;\r\n    }\r\n\r\n    modifier onlyProcess(){\r\n        require(process.walletAddress == msg.sender, \"Only the process can execute this operation\");\r\n        _;\r\n    }\r\n\r\n    modifier onlyInvolvedParties(){\r\n        require(\r\n            (application.walletAddress == msg.sender || process.walletAddress == msg.sender ) ,\r\n            \"Only the process or the application can execute this operation\");\r\n        _;\r\n    }\r\n}",
  "sourcePath": "/home/eldair/git-repository/dsl-smart-contract-eai/02-models/ProofOfConcept/contracts/lib/referencesCode-eai/Party_refCod.sol",
  "compiler": {
    "name": "solc",
    "version": "0.8.13+commit.abaa5c0e.Emscripten.clang"
  },
  "schemaVersion": "3.4.11",
  "updatedAt": "2023-01-04T22:56:53.555Z",
  "networkType": "ethereum",
  "devdoc": {
    "kind": "dev",
    "methods": {},
    "version": 1
  },
  "userdoc": {
    "kind": "user",
    "methods": {},
    "version": 1
  }
}