{
  "contractName": "SessionInterval_refCod",
  "abi": [
    {
      "inputs": [],
      "stateMutability": "nonpayable",
      "type": "constructor"
    },
    {
      "inputs": [
        {
          "internalType": "uint256",
          "name": "_idSingleSession",
          "type": "uint256"
        },
        {
          "internalType": "string",
          "name": "_k1",
          "type": "string"
        },
        {
          "internalType": "string",
          "name": "_k2",
          "type": "string"
        },
        {
          "internalType": "uint32",
          "name": "_accessDateTime",
          "type": "uint32"
        }
      ],
      "name": "startSessionByRef",
      "outputs": [],
      "stateMutability": "nonpayable",
      "type": "function"
    },
    {
      "inputs": [
        {
          "internalType": "uint256",
          "name": "_id",
          "type": "uint256"
        },
        {
          "internalType": "uint32",
          "name": "_accessDateTime",
          "type": "uint32"
        }
      ],
      "name": "startSingleSession",
      "outputs": [],
      "stateMutability": "nonpayable",
      "type": "function"
    },
    {
      "inputs": [
        {
          "internalType": "string",
          "name": "_k1",
          "type": "string"
        },
        {
          "internalType": "string",
          "name": "_k2",
          "type": "string"
        },
        {
          "internalType": "uint32",
          "name": "_accessDateTime",
          "type": "uint32"
        }
      ],
      "name": "isTheSessionByRefOpen",
      "outputs": [
        {
          "internalType": "string",
          "name": "",
          "type": "string"
        }
      ],
      "stateMutability": "view",
      "type": "function",
      "constant": true
    },
    {
      "inputs": [
        {
          "internalType": "uint256",
          "name": "_id",
          "type": "uint256"
        },
        {
          "internalType": "uint32",
          "name": "_accessDateTime",
          "type": "uint32"
        }
      ],
      "name": "isTheSessionIdOpen",
      "outputs": [
        {
          "internalType": "string",
          "name": "",
          "type": "string"
        }
      ],
      "stateMutability": "view",
      "type": "function",
      "constant": true
    },
    {
      "inputs": [
        {
          "internalType": "string",
          "name": "_k1",
          "type": "string"
        },
        {
          "internalType": "string",
          "name": "_k2",
          "type": "string"
        }
      ],
      "name": "getSessionIntervalByRef",
      "outputs": [
        {
          "components": [
            {
              "internalType": "uint8",
              "name": "duration",
              "type": "uint8"
            },
            {
              "internalType": "uint8",
              "name": "timeUnit",
              "type": "uint8"
            },
            {
              "internalType": "uint32",
              "name": "durationInSeconds",
              "type": "uint32"
            },
            {
              "internalType": "uint32",
              "name": "endTime",
              "type": "uint32"
            }
          ],
          "internalType": "struct EAI.SessionInterval",
          "name": "",
          "type": "tuple"
        }
      ],
      "stateMutability": "view",
      "type": "function",
      "constant": true
    },
    {
      "inputs": [
        {
          "internalType": "uint256",
          "name": "_id",
          "type": "uint256"
        }
      ],
      "name": "getSessionIntervalById",
      "outputs": [
        {
          "components": [
            {
              "internalType": "uint8",
              "name": "duration",
              "type": "uint8"
            },
            {
              "internalType": "uint8",
              "name": "timeUnit",
              "type": "uint8"
            },
            {
              "internalType": "uint32",
              "name": "durationInSeconds",
              "type": "uint32"
            },
            {
              "internalType": "uint32",
              "name": "endTime",
              "type": "uint32"
            }
          ],
          "internalType": "struct EAI.SessionInterval",
          "name": "",
          "type": "tuple"
        }
      ],
      "stateMutability": "view",
      "type": "function",
      "constant": true
    },
    {
      "inputs": [],
      "name": "getAllSessionIntervalByRef",
      "outputs": [
        {
          "internalType": "string[]",
          "name": "",
          "type": "string[]"
        },
        {
          "internalType": "string[]",
          "name": "",
          "type": "string[]"
        },
        {
          "components": [
            {
              "internalType": "uint8",
              "name": "duration",
              "type": "uint8"
            },
            {
              "internalType": "uint8",
              "name": "timeUnit",
              "type": "uint8"
            },
            {
              "internalType": "uint32",
              "name": "durationInSeconds",
              "type": "uint32"
            },
            {
              "internalType": "uint32",
              "name": "endTime",
              "type": "uint32"
            }
          ],
          "internalType": "struct EAI.SessionInterval[]",
          "name": "",
          "type": "tuple[]"
        }
      ],
      "stateMutability": "view",
      "type": "function",
      "constant": true
    },
    {
      "inputs": [],
      "name": "getAllSingleSessionInterval",
      "outputs": [
        {
          "components": [
            {
              "internalType": "uint8",
              "name": "duration",
              "type": "uint8"
            },
            {
              "internalType": "uint8",
              "name": "timeUnit",
              "type": "uint8"
            },
            {
              "internalType": "uint32",
              "name": "durationInSeconds",
              "type": "uint32"
            },
            {
              "internalType": "uint32",
              "name": "endTime",
              "type": "uint32"
            }
          ],
          "internalType": "struct EAI.SessionInterval[]",
          "name": "",
          "type": "tuple[]"
        }
      ],
      "stateMutability": "view",
      "type": "function",
      "constant": true
    }
  ],
  "bytecode": "0x60806040523480156200001157600080fd5b5060006200002d60026000620004ad60201b62000b9c1760201c565b9080600181540180825580915050600190039060005260206000200160009091909190915060008201518160000160006101000a81548160ff021916908360ff16021790555060208201518160000160016101000a81548160ff021916908360ff16021790555060408201518160000160026101000a81548163ffffffff021916908363ffffffff16021790555060608201518160000160066101000a81548163ffffffff021916908363ffffffff16021790555050506000620000ff60026001620004ad60201b62000b9c1760201c565b9080600181540180825580915050600190039060005260206000200160009091909190915060008201518160000160006101000a81548160ff021916908360ff16021790555060208201518160000160016101000a81548160ff021916908360ff16021790555060408201518160000160026101000a81548163ffffffff021916908363ffffffff16021790555060608201518160000160066101000a81548163ffffffff021916908363ffffffff16021790555050506000620001d0600280620004ad60201b62000b9c1760201c565b9080600181540180825580915050600190039060005260206000200160009091909190915060008201518160000160006101000a81548160ff021916908360ff16021790555060208201518160000160016101000a81548160ff021916908360ff16021790555060408201518160000160026101000a81548163ffffffff021916908363ffffffff16021790555060608201518160000160066101000a81548163ffffffff021916908363ffffffff16021790555050506000620002a260026003620004ad60201b62000b9c1760201c565b9080600181540180825580915050600190039060005260206000200160009091909190915060008201518160000160006101000a81548160ff021916908360ff16021790555060208201518160000160016101000a81548160ff021916908360ff16021790555060408201518160000160026101000a81548163ffffffff021916908363ffffffff16021790555060608201518160000160066101000a81548163ffffffff021916908363ffffffff1602179055505050600380600181540180825580915050600190039060005260206000200160006040518060400160405280600481526020017f6e6f6d650000000000000000000000000000000000000000000000000000000081525090919091509080519060200190620003c89291906200060c565b50600380600181540180825580915050600190039060005260206000200160006040518060400160405280600681526020017f636964616465000000000000000000000000000000000000000000000000000081525090919091509080519060200190620004389291906200060c565b50600160056040516200044b9062000751565b908152602001604051809103902060006101000a81548160ff021916908315150217905550600160056040516200048290620007b8565b908152602001604051809103902060006101000a81548160ff02191690831515021790555062000960565b620004b76200069d565b6000600460ff168360ff1611620004e057620004dd8460ff16846200051d60201b60201c565b90505b60405180608001604052808560ff1681526020018460ff1681526020018263ffffffff168152602001600063ffffffff1681525091505092915050565b60008062000531836200054a60201b60201c565b905080846200054191906200080e565b91505092915050565b6000600460ff168260ff16111562000599576040517f08c379a00000000000000000000000000000000000000000000000000000000081526004016200059090620008da565b60405180910390fd5b600060ff168260ff1603620005b2576001905062000607565b600160ff168260ff1603620005cb57603c905062000607565b600260ff168260ff1603620005e557610e10905062000607565b600360ff168260ff1603620006005762015180905062000607565b62093a8090505b919050565b8280546200061a906200092b565b90600052602060002090601f0160209004810192826200063e57600085556200068a565b82601f106200065957805160ff19168380011785556200068a565b828001600101855582156200068a579182015b82811115620006895782518255916020019190600101906200066c565b5b509050620006999190620006d7565b5090565b6040518060800160405280600060ff168152602001600060ff168152602001600063ffffffff168152602001600063ffffffff1681525090565b5b80821115620006f2576000816000905550600101620006d8565b5090565b600081905092915050565b7f6e6f6d6500000000000000000000000000000000000000000000000000000000600082015250565b600062000739600483620006f6565b9150620007468262000701565b600482019050919050565b60006200075e826200072a565b9150819050919050565b7f6369646164650000000000000000000000000000000000000000000000000000600082015250565b6000620007a0600683620006f6565b9150620007ad8262000768565b600682019050919050565b6000620007c58262000791565b9150819050919050565b600063ffffffff82169050919050565b7f4e487b7100000000000000000000000000000000000000000000000000000000600052601160045260246000fd5b60006200081b82620007cf565b91506200082883620007cf565b92508163ffffffff0483118215151615620008485762000847620007df565b5b828202905092915050565b600082825260208201905092915050565b7f546865206d6574686f642067657454696d65496e5365636f6e647320646f657360008201527f6e277420776f726b20666f72204d4f4e544820616e6420594541520000000000602082015250565b6000620008c2603b8362000853565b9150620008cf8262000864565b604082019050919050565b60006020820190508181036000830152620008f581620008b3565b9050919050565b7f4e487b7100000000000000000000000000000000000000000000000000000000600052602260045260246000fd5b600060028204905060018216806200094457607f821691505b6020821081036200095a5762000959620008fc565b5b50919050565b6119ad80620009706000396000f3fe608060405234801561001057600080fd5b50600436106100885760003560e01c8063cb62aa321161005b578063cb62aa3214610115578063d6d1c61314610145578063eefc281514610175578063f5fea08e146101a557610088565b80630a4822c51461008d57806352268944146100ad5780637598a3f8146100c9578063875a109b146100f9575b600080fd5b6100956101c3565b6040516100a493929190611193565b60405180910390f35b6100c760048036038101906100c2919061138a565b61045a565b005b6100e360048036038101906100de9190611429565b61073b565b6040516100f091906114ab565b60405180910390f35b610113600480360381019061010e91906114c6565b6107f9565b005b61012f600480360381019061012a9190611506565b61082d565b60405161013c91906114ab565b60405180910390f35b61015f600480360381019061015a91906114c6565b610908565b60405161016c91906115c8565b60405180910390f35b61018f600480360381019061018a91906115ea565b6109d3565b60405161019c91906115c8565b60405180910390f35b6101ad610abb565b6040516101ba9190611675565b60405180910390f35b606080606060036004600082805480602002602001604051908101604052809291908181526020016000905b8282101561029b57838290600052602060002001805461020e906116c6565b80601f016020809104026020016040519081016040528092919081815260200182805461023a906116c6565b80156102875780601f1061025c57610100808354040283529160200191610287565b820191906000526020600020905b81548152906001019060200180831161026a57829003601f168201915b5050505050815260200190600101906101ef565b50505050925081805480602002602001604051908101604052809291908181526020016000905b8282101561036e5783829060005260206000200180546102e1906116c6565b80601f016020809104026020016040519081016040528092919081815260200182805461030d906116c6565b801561035a5780601f1061032f5761010080835404028352916020019161035a565b820191906000526020600020905b81548152906001019060200180831161033d57829003601f168201915b5050505050815260200190600101906102c2565b50505050915080805480602002602001604051908101604052809291908181526020016000905b82821015610449578382906000526020600020016040518060800160405290816000820160009054906101000a900460ff1660ff1660ff1681526020016000820160019054906101000a900460ff1660ff1660ff1681526020016000820160029054906101000a900463ffffffff1663ffffffff1663ffffffff1681526020016000820160069054906101000a900463ffffffff1663ffffffff1663ffffffff168152505081526020019060010190610395565b505050509050925092509250909192565b60058360405161046a9190611733565b908152602001604051809103902060009054906101000a900460ff168360405160200161049791906117e2565b604051602081830303815290604052906104e7576040517f08c379a00000000000000000000000000000000000000000000000000000000081526004016104de91906115c8565b60405180910390fd5b506002836040516104f89190611733565b9081526020016040518091039020826040516105149190611733565b908152602001604051809103902060009054906101000a900460ff166106e95760016002846040516105469190611733565b9081526020016040518091039020836040516105629190611733565b908152602001604051809103902060006101000a81548160ff0219169083151502179055506004829080600181540180825580915050600190039060005260206000200160009091909190915090805190602001906105c2929190610e1c565b50600084815481106105d7576105d661180f565b5b906000526020600020016001846040516105f19190611733565b90815260200160405180910390208360405161060d9190611733565b90815260200160405180910390206000820160009054906101000a900460ff168160000160006101000a81548160ff021916908360ff1602179055506000820160019054906101000a900460ff168160000160016101000a81548160ff021916908360ff1602179055506000820160029054906101000a900463ffffffff168160000160026101000a81548163ffffffff021916908363ffffffff1602179055506000820160069054906101000a900463ffffffff168160000160066101000a81548163ffffffff021916908363ffffffff1602179055509050505b610735816001856040516106fd9190611733565b9081526020016040518091039020846040516107199190611733565b9081526020016040518091039020610c0190919063ffffffff16565b50505050565b610743610ea2565b600082815481106107575761075661180f565b5b906000526020600020016040518060800160405290816000820160009054906101000a900460ff1660ff1660ff1681526020016000820160019054906101000a900460ff1660ff1660ff1681526020016000820160029054906101000a900463ffffffff1663ffffffff1663ffffffff1681526020016000820160069054906101000a900463ffffffff1663ffffffff1663ffffffff16815250509050919050565b61082981600084815481106108115761081061180f565b5b90600052602060002001610c0190919063ffffffff16565b5050565b610835610ea2565b6001836040516108459190611733565b9081526020016040518091039020826040516108619190611733565b90815260200160405180910390206040518060800160405290816000820160009054906101000a900460ff1660ff1660ff1681526020016000820160019054906101000a900460ff1660ff1660ff1681526020016000820160029054906101000a900463ffffffff1663ffffffff1663ffffffff1681526020016000820160069054906101000a900463ffffffff1663ffffffff1663ffffffff1681525050905092915050565b60606109cb82600085815481106109225761092161180f565b5b906000526020600020016040518060800160405290816000820160009054906101000a900460ff1660ff1660ff1681526020016000820160019054906101000a900460ff1660ff1660ff1681526020016000820160029054906101000a900463ffffffff1663ffffffff1663ffffffff1681526020016000820160069054906101000a900463ffffffff1663ffffffff1663ffffffff1681525050610c9690919063ffffffff16565b905092915050565b6060610ab2826001866040516109e99190611733565b908152602001604051809103902085604051610a059190611733565b90815260200160405180910390206040518060800160405290816000820160009054906101000a900460ff1660ff1660ff1681526020016000820160019054906101000a900460ff1660ff1660ff1681526020016000820160029054906101000a900463ffffffff1663ffffffff1663ffffffff1681526020016000820160069054906101000a900463ffffffff1663ffffffff1663ffffffff1681525050610c9690919063ffffffff16565b90509392505050565b60606000805480602002602001604051908101604052809291908181526020016000905b82821015610b93578382906000526020600020016040518060800160405290816000820160009054906101000a900460ff1660ff1660ff1681526020016000820160019054906101000a900460ff1660ff1660ff1681526020016000820160029054906101000a900463ffffffff1663ffffffff1663ffffffff1681526020016000820160069054906101000a900463ffffffff1663ffffffff1663ffffffff168152505081526020019060010190610adf565b50505050905090565b610ba4610ea2565b6000600460ff168360ff1611610bc457610bc18460ff1684610d42565b90505b60405180608001604052808560ff1681526020018460ff1681526020018263ffffffff168152602001600063ffffffff1681525091505092915050565b60008260000160069054906101000a900463ffffffff1663ffffffff161480610c4a57508160000160069054906101000a900463ffffffff1663ffffffff168163ffffffff1610155b15610c92578160000160029054906101000a900463ffffffff1681610c6f919061186d565b8260000160066101000a81548163ffffffff021916908363ffffffff1602179055505b5050565b60606000836060015163ffffffff161480610cc15750826060015163ffffffff168263ffffffff1610155b15610d03576040518060400160405280600681526020017f434c4f53454400000000000000000000000000000000000000000000000000008152509050610d3c565b6040518060400160405280600481526020017f4f50454e0000000000000000000000000000000000000000000000000000000081525090505b92915050565b600080610d4e83610d65565b90508084610d5c91906118a7565b91505092915050565b6000600460ff168260ff161115610db1576040517f08c379a0000000000000000000000000000000000000000000000000000000008152600401610da890611957565b60405180910390fd5b600060ff168260ff1603610dc85760019050610e17565b600160ff168260ff1603610ddf57603c9050610e17565b600260ff168260ff1603610df757610e109050610e17565b600360ff168260ff1603610e1057620151809050610e17565b62093a8090505b919050565b828054610e28906116c6565b90600052602060002090601f016020900481019282610e4a5760008555610e91565b82601f10610e6357805160ff1916838001178555610e91565b82800160010185558215610e91579182015b82811115610e90578251825591602001919060010190610e75565b5b509050610e9e9190610edc565b5090565b6040518060800160405280600060ff168152602001600060ff168152602001600063ffffffff168152602001600063ffffffff1681525090565b5b80821115610ef5576000816000905550600101610edd565b5090565b600081519050919050565b600082825260208201905092915050565b6000819050602082019050919050565b600081519050919050565b600082825260208201905092915050565b60005b83811015610f5f578082015181840152602081019050610f44565b83811115610f6e576000848401525b50505050565b6000601f19601f8301169050919050565b6000610f9082610f25565b610f9a8185610f30565b9350610faa818560208601610f41565b610fb381610f74565b840191505092915050565b6000610fca8383610f85565b905092915050565b6000602082019050919050565b6000610fea82610ef9565b610ff48185610f04565b93508360208202850161100685610f15565b8060005b8581101561104257848403895281516110238582610fbe565b945061102e83610fd2565b925060208a0199505060018101905061100a565b50829750879550505050505092915050565b600081519050919050565b600082825260208201905092915050565b6000819050602082019050919050565b600060ff82169050919050565b61109681611080565b82525050565b600063ffffffff82169050919050565b6110b58161109c565b82525050565b6080820160008201516110d1600085018261108d565b5060208201516110e4602085018261108d565b5060408201516110f760408501826110ac565b50606082015161110a60608501826110ac565b50505050565b600061111c83836110bb565b60808301905092915050565b6000602082019050919050565b600061114082611054565b61114a818561105f565b935061115583611070565b8060005b8381101561118657815161116d8882611110565b975061117883611128565b925050600181019050611159565b5085935050505092915050565b600060608201905081810360008301526111ad8186610fdf565b905081810360208301526111c18185610fdf565b905081810360408301526111d58184611135565b9050949350505050565b6000604051905090565b600080fd5b600080fd5b6000819050919050565b611206816111f3565b811461121157600080fd5b50565b600081359050611223816111fd565b92915050565b600080fd5b600080fd5b7f4e487b7100000000000000000000000000000000000000000000000000000000600052604160045260246000fd5b61126b82610f74565b810181811067ffffffffffffffff8211171561128a57611289611233565b5b80604052505050565b600061129d6111df565b90506112a98282611262565b919050565b600067ffffffffffffffff8211156112c9576112c8611233565b5b6112d282610f74565b9050602081019050919050565b82818337600083830152505050565b60006113016112fc846112ae565b611293565b90508281526020810184848401111561131d5761131c61122e565b5b6113288482856112df565b509392505050565b600082601f83011261134557611344611229565b5b81356113558482602086016112ee565b91505092915050565b6113678161109c565b811461137257600080fd5b50565b6000813590506113848161135e565b92915050565b600080600080608085870312156113a4576113a36111e9565b5b60006113b287828801611214565b945050602085013567ffffffffffffffff8111156113d3576113d26111ee565b5b6113df87828801611330565b935050604085013567ffffffffffffffff811115611400576113ff6111ee565b5b61140c87828801611330565b925050606061141d87828801611375565b91505092959194509250565b60006020828403121561143f5761143e6111e9565b5b600061144d84828501611214565b91505092915050565b60808201600082015161146c600085018261108d565b50602082015161147f602085018261108d565b50604082015161149260408501826110ac565b5060608201516114a560608501826110ac565b50505050565b60006080820190506114c06000830184611456565b92915050565b600080604083850312156114dd576114dc6111e9565b5b60006114eb85828601611214565b92505060206114fc85828601611375565b9150509250929050565b6000806040838503121561151d5761151c6111e9565b5b600083013567ffffffffffffffff81111561153b5761153a6111ee565b5b61154785828601611330565b925050602083013567ffffffffffffffff811115611568576115676111ee565b5b61157485828601611330565b9150509250929050565b600082825260208201905092915050565b600061159a82610f25565b6115a4818561157e565b93506115b4818560208601610f41565b6115bd81610f74565b840191505092915050565b600060208201905081810360008301526115e2818461158f565b905092915050565b600080600060608486031215611603576116026111e9565b5b600084013567ffffffffffffffff811115611621576116206111ee565b5b61162d86828701611330565b935050602084013567ffffffffffffffff81111561164e5761164d6111ee565b5b61165a86828701611330565b925050604061166b86828701611375565b9150509250925092565b6000602082019050818103600083015261168f8184611135565b905092915050565b7f4e487b7100000000000000000000000000000000000000000000000000000000600052602260045260246000fd5b600060028204905060018216806116de57607f821691505b6020821081036116f1576116f0611697565b5b50919050565b600081905092915050565b600061170d82610f25565b61171781856116f7565b9350611727818560208601610f41565b80840191505092915050565b600061173f8284611702565b915081905092915050565b7f546865206b657920000000000000000000000000000000000000000000000000600082015250565b60006117806008836116f7565b915061178b8261174a565b600882019050919050565b7f646f65736e27742065786973742e000000000000000000000000000000000000600082015250565b60006117cc600e836116f7565b91506117d782611796565b600e82019050919050565b60006117ed82611773565b91506117f98284611702565b9150611804826117bf565b915081905092915050565b7f4e487b7100000000000000000000000000000000000000000000000000000000600052603260045260246000fd5b7f4e487b7100000000000000000000000000000000000000000000000000000000600052601160045260246000fd5b60006118788261109c565b91506118838361109c565b92508263ffffffff0382111561189c5761189b61183e565b5b828201905092915050565b60006118b28261109c565b91506118bd8361109c565b92508163ffffffff04831182151516156118da576118d961183e565b5b828202905092915050565b7f546865206d6574686f642067657454696d65496e5365636f6e647320646f657360008201527f6e277420776f726b20666f72204d4f4e544820616e6420594541520000000000602082015250565b6000611941603b8361157e565b915061194c826118e5565b604082019050919050565b6000602082019050818103600083015261197081611934565b905091905056fea26469706673582212209cf6c605185efc1f8d4105aae8767e8ba3d8d0e6b92dfb9ec53dd36b852d5b2064736f6c634300080d0033",
  "immutableReferences": {},
  "source": "//SPDX-License-Identifier: MIT\r\n\r\npragma solidity >0.8.4 < 0.8.14;\r\n\r\nimport \"../eai/EAI.sol\";\r\n\r\ncontract SessionInterval_refCod{\r\n\r\n   using EAI for EAI.SessionInterval;\r\n    \r\n\r\n    EAI.SessionInterval[] sessionInterval;\r\n    //       k1                k2_v       value\r\n    mapping(string => mapping(string=>EAI.SessionInterval)) sessionByVar;\r\n    mapping(string => mapping(string=>bool)) exists_k1mapk2;\r\n    string[] keys_k1;  // For storing keys \r\n    string[] keys_k2;  // For storing keys\r\n    mapping (string => bool) exists_k1; // Additional Map for checking if key exists\r\n    mapping (string => bool) exists_k2; // Additional Map for checking if key exists\r\n    \r\n        \r\n    constructor(){\r\n        \r\n        sessionInterval.push(EAI.createSessionInteval(2, EAI.SECOND)); //[0]      \r\n\r\n        sessionInterval.push(EAI.createSessionInteval(2, EAI.MINUTE)); //[1]\r\n\r\n        sessionInterval.push(EAI.createSessionInteval(2, EAI.HOUR)); //[2]              \r\n\r\n        sessionInterval.push(EAI.createSessionInteval(2, EAI.DAY));  //[3]\r\n\r\n        keys_k1.push(\"nome\"); // 0\r\n        keys_k1.push(\"cidade\");// 1\r\n        exists_k1[\"nome\"] = true;\r\n        exists_k1[\"cidade\"] = true;    \r\n        \r\n    }\r\n\r\n    // a new section will open only if there is no other section open\r\n    function startSessionByRef(uint _idSingleSession, string memory _k1, string memory _k2, uint32 _accessDateTime) public {\r\n                 \r\n        require(exists_k1[_k1], string(abi.encodePacked(\"The key \",_k1,\"doesn't exist.\")));\r\n        if(!exists_k1mapk2[_k1][_k2]){\r\n            exists_k1mapk2[_k1][_k2] = true;\r\n            keys_k2.push(_k2);\r\n            sessionByVar[_k1][_k2] = sessionInterval[_idSingleSession];\r\n        }    \r\n        sessionByVar[_k1][_k2].startNewSessionInterval(_accessDateTime);\r\n    }\r\n\r\n    // start a new  single section\r\n    function startSingleSession(uint _id, uint32 _accessDateTime) public {\r\n        sessionInterval[_id].startNewSessionInterval(_accessDateTime);\r\n    }   \r\n\r\n    // check if there is a session interval open. return 'OPEN' or 'CLOSED\"\r\n    function isTheSessionByRefOpen(string memory _k1, string memory _k2, uint32 _accessDateTime) public view returns(string memory) {                                           \r\n        return   sessionByVar[_k1][_k2].isItOpen(_accessDateTime);\r\n    }\r\n\r\n     function isTheSessionIdOpen(uint _id, uint32 _accessDateTime) public view returns(string memory) {                                           \r\n        return  sessionInterval[_id].isItOpen(_accessDateTime);\r\n    }\r\n  \r\n    function getSessionIntervalByRef(string memory _k1, string memory _k2) public view returns (EAI.SessionInterval memory){\r\n        return sessionByVar[_k1][_k2];\r\n    }\r\n\r\n    function getSessionIntervalById(uint _id) public view returns (EAI.SessionInterval memory){\r\n        return sessionInterval[_id];\r\n    }\r\n\r\n    function getAllSessionIntervalByRef() public view returns (string[] memory, string[] memory, EAI.SessionInterval[] memory){             \r\n        return (keys_k1, keys_k2, sessionInterval);\r\n    }\r\n\r\n    function getAllSingleSessionInterval() public view returns (EAI.SessionInterval[] memory){\r\n        return sessionInterval;\r\n    }\r\n\r\n}",
  "sourcePath": "D:\\UserData\\git-repository\\dsl-smart-contract-eai\\02-models\\ProofOfConcept\\contracts\\lib\\referencesCode-eai\\010_SessionInterval_refCod.sol",
  "compiler": {
    "name": "solc",
    "version": "0.8.13+commit.abaa5c0e.Emscripten.clang"
  },
  "schemaVersion": "3.4.11",
  "updatedAt": "2023-02-08T16:31:03.926Z",
  "networkType": "ethereum",
  "devdoc": {
    "kind": "dev",
    "methods": {},
    "version": 1
  },
  "userdoc": {
    "kind": "user",
    "methods": {},
    "version": 1
  }
}