{
  "contractName": "SessionInterval_refCod",
  "abi": [
    {
      "inputs": [],
      "stateMutability": "nonpayable",
      "type": "constructor"
    },
    {
      "inputs": [
        {
          "internalType": "string",
          "name": "_mapIdRef",
          "type": "string"
        },
        {
          "internalType": "uint256",
          "name": "_id",
          "type": "uint256"
        }
      ],
      "name": "createSessionIntevalByIdRef",
      "outputs": [],
      "stateMutability": "nonpayable",
      "type": "function"
    },
    {
      "inputs": [
        {
          "internalType": "string",
          "name": "_mapIdRef",
          "type": "string"
        }
      ],
      "name": "getSessionIntervalByIdRef",
      "outputs": [
        {
          "components": [
            {
              "internalType": "uint8",
              "name": "duration",
              "type": "uint8"
            },
            {
              "internalType": "uint8",
              "name": "timeUnit",
              "type": "uint8"
            },
            {
              "internalType": "uint32",
              "name": "durationInSeconds",
              "type": "uint32"
            },
            {
              "internalType": "uint32",
              "name": "endTime",
              "type": "uint32"
            }
          ],
          "internalType": "struct EAI.SessionInterval",
          "name": "",
          "type": "tuple"
        }
      ],
      "stateMutability": "view",
      "type": "function"
    },
    {
      "inputs": [
        {
          "internalType": "string",
          "name": "_idRef",
          "type": "string"
        },
        {
          "internalType": "uint32",
          "name": "_accessDateTime",
          "type": "uint32"
        }
      ],
      "name": "startNewSessionIntervalByIdRef",
      "outputs": [],
      "stateMutability": "nonpayable",
      "type": "function"
    },
    {
      "inputs": [
        {
          "internalType": "string",
          "name": "_idRef",
          "type": "string"
        },
        {
          "internalType": "uint32",
          "name": "_accessDateTime",
          "type": "uint32"
        }
      ],
      "name": "isTheSessionIdOpen",
      "outputs": [
        {
          "internalType": "string",
          "name": "",
          "type": "string"
        }
      ],
      "stateMutability": "view",
      "type": "function"
    }
  ],
  "bytecode": "0x60806040523480156200001157600080fd5b5060006200002c600280620001ba60201b620004121760201c565b9080600181540180825580915050600190039060005260206000200160009091909190915060008201518160000160006101000a81548160ff021916908360ff16021790555060208201518160000160016101000a81548160ff021916908360ff16021790555060408201518160000160026101000a81548163ffffffff021916908363ffffffff16021790555060608201518160000160066101000a81548163ffffffff021916908363ffffffff16021790555050506000620000fd600280620001ba60201b620004121760201c565b9080600181540180825580915050600190039060005260206000200160009091909190915060008201518160000160006101000a81548160ff021916908360ff16021790555060208201518160000160016101000a81548160ff021916908360ff16021790555060408201518160000160026101000a81548163ffffffff021916908363ffffffff16021790555060608201518160000160066101000a81548163ffffffff021916908363ffffffff160217905550505062000480565b620001c462000319565b6000600460ff168360ff1611620001ed57620001ea8460ff16846200022a60201b60201c565b90505b60405180608001604052808560ff1681526020018460ff1681526020018263ffffffff168152602001600063ffffffff1681525091505092915050565b6000806200023e836200025760201b60201c565b905080846200024e919062000392565b91505092915050565b6000600460ff168260ff161115620002a6576040517f08c379a00000000000000000000000000000000000000000000000000000000081526004016200029d906200045e565b60405180910390fd5b600060ff168260ff1603620002bf576001905062000314565b600160ff168260ff1603620002d857603c905062000314565b600260ff168260ff1603620002f257610e10905062000314565b600360ff168260ff16036200030d5762015180905062000314565b62093a8090505b919050565b6040518060800160405280600060ff168152602001600060ff168152602001600063ffffffff168152602001600063ffffffff1681525090565b600063ffffffff82169050919050565b7f4e487b7100000000000000000000000000000000000000000000000000000000600052601160045260246000fd5b60006200039f8262000353565b9150620003ac8362000353565b92508163ffffffff0483118215151615620003cc57620003cb62000363565b5b828202905092915050565b600082825260208201905092915050565b7f546865206d6574686f642067657454696d65496e5365636f6e647320646f657360008201527f6e277420776f726b20666f72204d4f4e544820616e6420594541520000000000602082015250565b600062000446603b83620003d7565b91506200045382620003e8565b604082019050919050565b60006020820190508181036000830152620004798162000437565b9050919050565b610d2180620004906000396000f3fe608060405234801561001057600080fd5b506004361061004c5760003560e01c80631bbedc8d146100515780634a31c4ac1461006d57806383cd87e814610089578063c7478c22146100b9575b600080fd5b61006b600480360381019061006691906108ae565b6100e9565b005b61008760048036038101906100829190610946565b610255565b005b6100a3600480360381019061009e91906109a2565b610289565b6040516100b09190610a6b565b60405180910390f35b6100d360048036038101906100ce9190610946565b610347565b6040516100e09190610b0e565b60405180910390f35b6101a060008281548110610100576100ff610b30565b5b906000526020600020016040518060800160405290816000820160009054906101000a900460ff1660ff1660ff1681526020016000820160019054906101000a900460ff1660ff1660ff1681526020016000820160029054906101000a900463ffffffff1663ffffffff1663ffffffff1681526020016000820160069054906101000a900463ffffffff1663ffffffff1663ffffffff1681525050610477565b6001836040516101b09190610b9b565b908152602001604051809103902060008201518160000160006101000a81548160ff021916908360ff16021790555060208201518160000160016101000a81548160ff021916908360ff16021790555060408201518160000160026101000a81548163ffffffff021916908363ffffffff16021790555060608201518160000160066101000a81548163ffffffff021916908363ffffffff1602179055509050505050565b610285816001846040516102699190610b9b565b90815260200160405180910390206104c990919063ffffffff16565b5050565b6102916106e4565b6001826040516102a19190610b9b565b90815260200160405180910390206040518060800160405290816000820160009054906101000a900460ff1660ff1660ff1681526020016000820160019054906101000a900460ff1660ff1660ff1681526020016000820160029054906101000a900463ffffffff1663ffffffff1663ffffffff1681526020016000820160069054906101000a900463ffffffff1663ffffffff1663ffffffff16815250509050919050565b606061040a8260018560405161035d9190610b9b565b90815260200160405180910390206040518060800160405290816000820160009054906101000a900460ff1660ff1660ff1681526020016000820160019054906101000a900460ff1660ff1660ff1681526020016000820160029054906101000a900463ffffffff1663ffffffff1663ffffffff1681526020016000820160069054906101000a900463ffffffff1663ffffffff1663ffffffff168152505061055e90919063ffffffff16565b905092915050565b61041a6106e4565b6000600460ff168360ff161161043a576104378460ff168461060a565b90505b60405180608001604052808560ff1681526020018460ff1681526020018263ffffffff168152602001600063ffffffff1681525091505092915050565b61047f6106e4565b6040518060800160405280836000015160ff168152602001836020015160ff168152602001836040015163ffffffff168152602001836060015163ffffffff168152509050919050565b60008260000160069054906101000a900463ffffffff1663ffffffff16148061051257508160000160069054906101000a900463ffffffff1663ffffffff168163ffffffff1610155b1561055a578160000160029054906101000a900463ffffffff16816105379190610be1565b8260000160066101000a81548163ffffffff021916908363ffffffff1602179055505b5050565b60606000836060015163ffffffff1614806105895750826060015163ffffffff168263ffffffff1610155b156105cb576040518060400160405280600681526020017f434c4f53454400000000000000000000000000000000000000000000000000008152509050610604565b6040518060400160405280600481526020017f4f50454e0000000000000000000000000000000000000000000000000000000081525090505b92915050565b6000806106168361062d565b905080846106249190610c1b565b91505092915050565b6000600460ff168260ff161115610679576040517f08c379a000000000000000000000000000000000000000000000000000000000815260040161067090610ccb565b60405180910390fd5b600060ff168260ff160361069057600190506106df565b600160ff168260ff16036106a757603c90506106df565b600260ff168260ff16036106bf57610e1090506106df565b600360ff168260ff16036106d8576201518090506106df565b62093a8090505b919050565b6040518060800160405280600060ff168152602001600060ff168152602001600063ffffffff168152602001600063ffffffff1681525090565b6000604051905090565b600080fd5b600080fd5b600080fd5b600080fd5b6000601f19601f8301169050919050565b7f4e487b7100000000000000000000000000000000000000000000000000000000600052604160045260246000fd5b6107858261073c565b810181811067ffffffffffffffff821117156107a4576107a361074d565b5b80604052505050565b60006107b761071e565b90506107c3828261077c565b919050565b600067ffffffffffffffff8211156107e3576107e261074d565b5b6107ec8261073c565b9050602081019050919050565b82818337600083830152505050565b600061081b610816846107c8565b6107ad565b90508281526020810184848401111561083757610836610737565b5b6108428482856107f9565b509392505050565b600082601f83011261085f5761085e610732565b5b813561086f848260208601610808565b91505092915050565b6000819050919050565b61088b81610878565b811461089657600080fd5b50565b6000813590506108a881610882565b92915050565b600080604083850312156108c5576108c4610728565b5b600083013567ffffffffffffffff8111156108e3576108e261072d565b5b6108ef8582860161084a565b925050602061090085828601610899565b9150509250929050565b600063ffffffff82169050919050565b6109238161090a565b811461092e57600080fd5b50565b6000813590506109408161091a565b92915050565b6000806040838503121561095d5761095c610728565b5b600083013567ffffffffffffffff81111561097b5761097a61072d565b5b6109878582860161084a565b925050602061099885828601610931565b9150509250929050565b6000602082840312156109b8576109b7610728565b5b600082013567ffffffffffffffff8111156109d6576109d561072d565b5b6109e28482850161084a565b91505092915050565b600060ff82169050919050565b610a01816109eb565b82525050565b610a108161090a565b82525050565b608082016000820151610a2c60008501826109f8565b506020820151610a3f60208501826109f8565b506040820151610a526040850182610a07565b506060820151610a656060850182610a07565b50505050565b6000608082019050610a806000830184610a16565b92915050565b600081519050919050565b600082825260208201905092915050565b60005b83811015610ac0578082015181840152602081019050610aa5565b83811115610acf576000848401525b50505050565b6000610ae082610a86565b610aea8185610a91565b9350610afa818560208601610aa2565b610b038161073c565b840191505092915050565b60006020820190508181036000830152610b288184610ad5565b905092915050565b7f4e487b7100000000000000000000000000000000000000000000000000000000600052603260045260246000fd5b600081905092915050565b6000610b7582610a86565b610b7f8185610b5f565b9350610b8f818560208601610aa2565b80840191505092915050565b6000610ba78284610b6a565b915081905092915050565b7f4e487b7100000000000000000000000000000000000000000000000000000000600052601160045260246000fd5b6000610bec8261090a565b9150610bf78361090a565b92508263ffffffff03821115610c1057610c0f610bb2565b5b828201905092915050565b6000610c268261090a565b9150610c318361090a565b92508163ffffffff0483118215151615610c4e57610c4d610bb2565b5b828202905092915050565b7f546865206d6574686f642067657454696d65496e5365636f6e647320646f657360008201527f6e277420776f726b20666f72204d4f4e544820616e6420594541520000000000602082015250565b6000610cb5603b83610a91565b9150610cc082610c59565b604082019050919050565b60006020820190508181036000830152610ce481610ca8565b905091905056fea2646970667358221220657b87140aa8aeaf296eb9a5e65d11c85195c74ee67ccac0ab41f2dec7acd21464736f6c634300080d0033",
  "immutableReferences": {},
  "source": "//SPDX-License-Identifier: MIT\r\n\r\npragma solidity >0.8.4 < 0.8.14;\r\n\r\nimport \"../eai/EAI.sol\";\r\n\r\ncontract SessionInterval_refCod{\r\n    \r\n    using EAI for EAI.SessionInterval;\r\n   \r\n    EAI.SessionInterval[] sessionInterval;\r\n\r\n    mapping(string => EAI.SessionInterval)  sessionIntevalByIdRef;\r\n\r\n    constructor(){\r\n        sessionInterval.push(EAI.createSessionInteval(2, EAI.HOUR));\r\n        sessionInterval.push(EAI.createSessionInteval(2, EAI.HOUR));\r\n    }\r\n\r\n        function createSessionIntevalByIdRef(string memory _mapIdRef, uint _id) public{\r\n            sessionIntevalByIdRef[_mapIdRef] = EAI.createSessionInterval_Copy(sessionInterval[_id]);\r\n        }\r\n\r\n        function getSessionIntervalByIdRef(string memory _mapIdRef) public view returns(EAI.SessionInterval memory){\r\n            return sessionIntevalByIdRef[_mapIdRef];\r\n        }\r\n\r\n        // a new section will open only if there is no other section open\r\n        function startNewSessionIntervalByIdRef(string memory _idRef, uint32 _accessDateTime) public {       \r\n            sessionIntevalByIdRef[_idRef].startNewSessionInterval(_accessDateTime);\r\n        }   \r\n        \r\n        // // check if there is a session interval open. return 'OPEN' or 'CLOSED\"\r\n        function isTheSessionIdOpen(string memory _idRef, uint32 _accessDateTime) public view returns(string memory) {                                           \r\n            return   sessionIntevalByIdRef[_idRef].isItOpen(_accessDateTime);\r\n        }\r\n\r\n        // function getSessionIntervalById(uint _id) public view returns (EAI.SessionInterval memory){\r\n        //     return sessionInterval[_id];\r\n        // }\r\n\r\n}",
  "sourcePath": "C:\\git-repository\\dsl-smart-contract-eai\\02-models\\ProofOfConcept\\contracts\\lib\\referencesCode-eai\\011_SessionInterval_byIdRef_refCod.sol",
  "compiler": {
    "name": "solc",
    "version": "0.8.13+commit.abaa5c0e.Emscripten.clang"
  },
  "schemaVersion": "3.4.11",
  "updatedAt": "2023-02-02T15:51:40.771Z",
  "devdoc": {
    "kind": "dev",
    "methods": {},
    "version": 1
  },
  "userdoc": {
    "kind": "user",
    "methods": {},
    "version": 1
  }
}