{
  "contractName": "TimeInterval_refCod",
  "abi": [
    {
      "inputs": [],
      "stateMutability": "nonpayable",
      "type": "constructor"
    },
    {
      "inputs": [
        {
          "internalType": "uint256",
          "name": "_idTi",
          "type": "uint256"
        },
        {
          "internalType": "uint32",
          "name": "_startHour",
          "type": "uint32"
        },
        {
          "internalType": "uint32",
          "name": "_endHour",
          "type": "uint32"
        }
      ],
      "name": "setTimeInterval",
      "outputs": [],
      "stateMutability": "nonpayable",
      "type": "function"
    },
    {
      "inputs": [
        {
          "internalType": "uint32",
          "name": "_idTi",
          "type": "uint32"
        }
      ],
      "name": "getTimeInterval",
      "outputs": [
        {
          "internalType": "uint32",
          "name": "start",
          "type": "uint32"
        },
        {
          "internalType": "uint32",
          "name": "end",
          "type": "uint32"
        }
      ],
      "stateMutability": "view",
      "type": "function",
      "constant": true
    },
    {
      "inputs": [],
      "name": "getAllTimeInterval",
      "outputs": [
        {
          "components": [
            {
              "internalType": "uint32",
              "name": "start",
              "type": "uint32"
            },
            {
              "internalType": "uint32",
              "name": "end",
              "type": "uint32"
            }
          ],
          "internalType": "struct EAI.TimeInterval[]",
          "name": "",
          "type": "tuple[]"
        }
      ],
      "stateMutability": "view",
      "type": "function",
      "constant": true
    },
    {
      "inputs": [
        {
          "internalType": "uint32",
          "name": "_timeAccess",
          "type": "uint32"
        }
      ],
      "name": "isIntoTimeInterval",
      "outputs": [
        {
          "internalType": "bool",
          "name": "",
          "type": "bool"
        }
      ],
      "stateMutability": "view",
      "type": "function",
      "constant": true
    }
  ],
  "bytecode": "0x60806040523480156200001157600080fd5b5060006200002f618ca061c4e06200013d60201b620003091760201c565b9080600181540180825580915050600190039060005260206000200160009091909190915060008201518160000160006101000a81548163ffffffff021916908363ffffffff16021790555060208201518160000160046101000a81548163ffffffff021916908363ffffffff16021790555050506000620000c262013560611c206200013d60201b620003091760201c565b9080600181540180825580915050600190039060005260206000200160009091909190915060008201518160000160006101000a81548163ffffffff021916908363ffffffff16021790555060208201518160000160046101000a81548163ffffffff021916908363ffffffff1602179055505050620003b9565b6200014762000252565b8282600063ffffffff168263ffffffff16101580156200017657506201517f63ffffffff168263ffffffff1611155b620001b8576040517f08c379a0000000000000000000000000000000000000000000000000000000008152600401620001af90620002ff565b60405180910390fd5b600063ffffffff168163ffffffff1610158015620001e557506201517f63ffffffff168163ffffffff1611155b62000227576040517f08c379a00000000000000000000000000000000000000000000000000000000081526004016200021e9062000397565b60405180910390fd5b60405180604001604052808663ffffffff1681526020018563ffffffff168152509250505092915050565b6040518060400160405280600063ffffffff168152602001600063ffffffff1681525090565b600082825260208201905092915050565b7f546865205f7374617274446179206e6f7420726570726573656e74732061207660008201527f616c696420646179000000000000000000000000000000000000000000000000602082015250565b6000620002e760288362000278565b9150620002f48262000289565b604082019050919050565b600060208201905081810360008301526200031a81620002d8565b9050919050565b7f546865205f656e64446179206e6f7420726570726573656e747320612076616c60008201527f6964206461790000000000000000000000000000000000000000000000000000602082015250565b60006200037f60268362000278565b91506200038c8262000321565b604082019050919050565b60006020820190508181036000830152620003b28162000370565b9050919050565b610c1480620003c96000396000f3fe608060405234801561001057600080fd5b506004361061004c5760003560e01c806305589a34146100515780639c959a7d1461006d578063ae846f451461009e578063ef9e8540146100ce575b600080fd5b61006b60048036038101906100669190610774565b6100ec565b005b610087600480360381019061008291906107c7565b610119565b604051610095929190610803565b60405180910390f35b6100b860048036038101906100b391906107c7565b6101a8565b6040516100c59190610847565b60405180910390f35b6100d661025a565b6040516100e3919061094f565b60405180910390f35b6101146000848154811061010357610102610971565b5b906000526020600020018383610414565b505050565b60008061019f60008463ffffffff168154811061013957610138610971565b5b906000526020600020016040518060400160405290816000820160009054906101000a900463ffffffff1663ffffffff1663ffffffff1681526020016000820160049054906101000a900463ffffffff1663ffffffff1663ffffffff1681525050610539565b91509150915091565b6000610253826000805480602002602001604051908101604052809291908181526020016000905b8282101561024a578382906000526020600020016040518060400160405290816000820160009054906101000a900463ffffffff1663ffffffff1663ffffffff1681526020016000820160049054906101000a900463ffffffff1663ffffffff1663ffffffff1681525050815260200190600101906101d0565b5050505061054f565b9050919050565b60606103046000805480602002602001604051908101604052809291908181526020016000905b828210156102fb578382906000526020600020016040518060400160405290816000820160009054906101000a900463ffffffff1663ffffffff1663ffffffff1681526020016000820160049054906101000a900463ffffffff1663ffffffff1663ffffffff168152505081526020019060010190610281565b50505050610623565b905090565b6103116106d7565b8282600063ffffffff168263ffffffff161015801561033f57506201517f63ffffffff168263ffffffff1611155b61037e576040517f08c379a000000000000000000000000000000000000000000000000000000000815260040161037590610a23565b60405180910390fd5b600063ffffffff168163ffffffff16101580156103aa57506201517f63ffffffff168163ffffffff1611155b6103e9576040517f08c379a00000000000000000000000000000000000000000000000000000000081526004016103e090610ab5565b60405180910390fd5b60405180604001604052808663ffffffff1681526020018563ffffffff168152509250505092915050565b8181600063ffffffff168263ffffffff161015801561044257506201517f63ffffffff168263ffffffff1611155b610481576040517f08c379a000000000000000000000000000000000000000000000000000000000815260040161047890610a23565b60405180910390fd5b600063ffffffff168163ffffffff16101580156104ad57506201517f63ffffffff168163ffffffff1611155b6104ec576040517f08c379a00000000000000000000000000000000000000000000000000000000081526004016104e390610ab5565b60405180910390fd5b838560000160006101000a81548163ffffffff021916908363ffffffff160217905550828560000160046101000a81548163ffffffff021916908363ffffffff1602179055505050505050565b6000808260000151836020015191509150915091565b600082600063ffffffff168163ffffffff161015801561057e57506201517f63ffffffff168163ffffffff1611155b6105bd576040517f08c379a00000000000000000000000000000000000000000000000000000000081526004016105b490610b47565b60405180910390fd5b60008351905060005b81811015610615576105f2868683815181106105e5576105e4610971565b5b602002602001015161062d565b156106025760019350505061061c565b808061060d90610b96565b9150506105c6565b5060009250505b5092915050565b6060819050919050565b6000816020015163ffffffff16826000015163ffffffff16101561068e57816000015163ffffffff168363ffffffff161015801561067b5750816020015163ffffffff168363ffffffff1611155b1561068957600190506106d1565b6106cc565b816000015163ffffffff168363ffffffff161015806106bd5750816020015163ffffffff168363ffffffff1611155b156106cb57600190506106d1565b5b600090505b92915050565b6040518060400160405280600063ffffffff168152602001600063ffffffff1681525090565b600080fd5b6000819050919050565b61071581610702565b811461072057600080fd5b50565b6000813590506107328161070c565b92915050565b600063ffffffff82169050919050565b61075181610738565b811461075c57600080fd5b50565b60008135905061076e81610748565b92915050565b60008060006060848603121561078d5761078c6106fd565b5b600061079b86828701610723565b93505060206107ac8682870161075f565b92505060406107bd8682870161075f565b9150509250925092565b6000602082840312156107dd576107dc6106fd565b5b60006107eb8482850161075f565b91505092915050565b6107fd81610738565b82525050565b600060408201905061081860008301856107f4565b61082560208301846107f4565b9392505050565b60008115159050919050565b6108418161082c565b82525050565b600060208201905061085c6000830184610838565b92915050565b600081519050919050565b600082825260208201905092915050565b6000819050602082019050919050565b61089781610738565b82525050565b6040820160008201516108b3600085018261088e565b5060208201516108c6602085018261088e565b50505050565b60006108d8838361089d565b60408301905092915050565b6000602082019050919050565b60006108fc82610862565b610906818561086d565b93506109118361087e565b8060005b8381101561094257815161092988826108cc565b9750610934836108e4565b925050600181019050610915565b5085935050505092915050565b6000602082019050818103600083015261096981846108f1565b905092915050565b7f4e487b7100000000000000000000000000000000000000000000000000000000600052603260045260246000fd5b600082825260208201905092915050565b7f546865205f7374617274446179206e6f7420726570726573656e74732061207660008201527f616c696420646179000000000000000000000000000000000000000000000000602082015250565b6000610a0d6028836109a0565b9150610a18826109b1565b604082019050919050565b60006020820190508181036000830152610a3c81610a00565b9050919050565b7f546865205f656e64446179206e6f7420726570726573656e747320612076616c60008201527f6964206461790000000000000000000000000000000000000000000000000000602082015250565b6000610a9f6026836109a0565b9150610aaa82610a43565b604082019050919050565b60006020820190508181036000830152610ace81610a92565b9050919050565b7f54686520676976656e206e756d6265722f646179206e6f74207265707265736560008201527f6e747320612076616c6964206461790000000000000000000000000000000000602082015250565b6000610b31602f836109a0565b9150610b3c82610ad5565b604082019050919050565b60006020820190508181036000830152610b6081610b24565b9050919050565b7f4e487b7100000000000000000000000000000000000000000000000000000000600052601160045260246000fd5b6000610ba182610702565b91507fffffffffffffffffffffffffffffffffffffffffffffffffffffffffffffffff8203610bd357610bd2610b67565b5b60018201905091905056fea264697066735822122011ce8261a7fb6fcb43e2b077b8d4749f77b279ffcc4ea00ca82f66b0d54f4c7b64736f6c634300080d0033",
  "immutableReferences": {},
  "source": "// SPDX-License-Identifier: MIT \r\npragma solidity >0.8.4 < 0.8.14;\r\n\r\nimport \"../eai/EAI.sol\";\r\n\r\ncontract TimeInterval_refCod{\r\n    using EAI for EAI.TimeInterval;\r\n\r\n    EAI.TimeInterval[] timeInterval;\r\n\r\n    \r\n    constructor(){\r\n        // 10:00:00 to 14:00:00\r\n        timeInterval.push(EAI.createTimeInterval(36000,50400));\r\n        // 22:00:00 to 02:00:00\r\n        timeInterval.push(EAI.createTimeInterval(79200, 7200));\r\n    }\r\n\r\n    function setTimeInterval(uint  _idTi, uint32 _startHour, uint32 _endHour)public {\r\n       EAI.setTimeInterval(timeInterval[_idTi], _startHour, _endHour); \r\n    }\r\n\r\n    function getTimeInterval(uint32 _idTi) public view returns (uint32 start, uint32 end){\r\n        return EAI.getOneTimeInterval(timeInterval[_idTi]);\r\n    }\r\n\r\n    function getAllTimeInterval() public view returns (EAI.TimeInterval [] memory){\r\n        return EAI.getAllTimeIntervals(timeInterval);        \r\n    }\r\n\r\n    function isIntoTimeInterval(uint32 _timeAccess)public view returns(bool){\r\n        return EAI.isIntoTimeIntervals(_timeAccess, timeInterval);\r\n    }\r\n\r\n\r\n}",
  "sourcePath": "/home/eldair/git-repository/dsl-smart-contract-eai/02-models/ProofOfConcept/contracts/lib/referencesCode-eai/TimeInterval_refCod.sol",
  "compiler": {
    "name": "solc",
    "version": "0.8.13+commit.abaa5c0e.Emscripten.clang"
  },
  "schemaVersion": "3.4.11",
  "updatedAt": "2023-01-28T20:41:50.754Z",
  "networkType": "ethereum",
  "devdoc": {
    "kind": "dev",
    "methods": {},
    "version": 1
  },
  "userdoc": {
    "kind": "user",
    "methods": {},
    "version": 1
  }
}