{
  "contractName": "Timeout_refCod",
  "abi": [
    {
      "inputs": [],
      "stateMutability": "nonpayable",
      "type": "constructor"
    },
    {
      "inputs": [
        {
          "internalType": "uint256",
          "name": "_idTimeout",
          "type": "uint256"
        },
        {
          "internalType": "uint32",
          "name": "_startTime",
          "type": "uint32"
        }
      ],
      "name": "setTimeoutEnd",
      "outputs": [],
      "stateMutability": "nonpayable",
      "type": "function"
    },
    {
      "inputs": [
        {
          "internalType": "uint32",
          "name": "_idTimeout",
          "type": "uint32"
        },
        {
          "internalType": "uint32",
          "name": "_accessTime",
          "type": "uint32"
        }
      ],
      "name": "isTimeoutEnded",
      "outputs": [
        {
          "internalType": "bool",
          "name": "",
          "type": "bool"
        }
      ],
      "stateMutability": "view",
      "type": "function",
      "constant": true
    },
    {
      "inputs": [
        {
          "internalType": "uint256",
          "name": "_id",
          "type": "uint256"
        }
      ],
      "name": "getOneTimeout",
      "outputs": [
        {
          "components": [
            {
              "internalType": "uint32",
              "name": "endTime",
              "type": "uint32"
            },
            {
              "internalType": "uint32",
              "name": "timeIncrement",
              "type": "uint32"
            }
          ],
          "internalType": "struct EAI.Timeout",
          "name": "",
          "type": "tuple"
        }
      ],
      "stateMutability": "view",
      "type": "function",
      "constant": true
    },
    {
      "inputs": [],
      "name": "getAllTimeouts",
      "outputs": [
        {
          "components": [
            {
              "internalType": "uint32",
              "name": "endTime",
              "type": "uint32"
            },
            {
              "internalType": "uint32",
              "name": "timeIncrement",
              "type": "uint32"
            }
          ],
          "internalType": "struct EAI.Timeout[]",
          "name": "",
          "type": "tuple[]"
        }
      ],
      "stateMutability": "view",
      "type": "function",
      "constant": true
    }
  ],
  "bytecode": "0x608060405234801561001057600080fd5b506000610027603261012c60201b6102e11760201c565b9080600181540180825580915050600190039060005260206000200160009091909190915060008201518160000160006101000a81548163ffffffff021916908363ffffffff16021790555060208201518160000160046101000a81548163ffffffff021916908363ffffffff160217905550505060006100b2601e61012c60201b6102e11760201c565b9080600181540180825580915050600190039060005260206000200160009091909190915060008201518160000160006101000a81548163ffffffff021916908363ffffffff16021790555060208201518160000160046101000a81548163ffffffff021916908363ffffffff1602179055505050610183565b61013461015d565b6040518060400160405280600063ffffffff1681526020018363ffffffff168152509050919050565b6040518060400160405280600063ffffffff168152602001600063ffffffff1681525090565b610b48806101926000396000f3fe608060405234801561001057600080fd5b506004361061004c5760003560e01c80631e5dca7f146100515780632286f6511461006f578063233a985f1461009f57806351a9241c146100bb575b600080fd5b6100596100eb565b604051610066919061068f565b60405180910390f35b610089600480360381019061008491906106ec565b610192565b6040516100969190610748565b60405180910390f35b6100b960048036038101906100b4919061078f565b610216565b005b6100d560048036038101906100d091906107cf565b61024a565b6040516100e2919061082a565b60405180910390f35b60606000805480602002602001604051908101604052809291908181526020016000905b82821015610189578382906000526020600020016040518060400160405290816000820160009054906101000a900463ffffffff1663ffffffff1663ffffffff1681526020016000820160049054906101000a900463ffffffff1663ffffffff1663ffffffff16815250508152602001906001019061010f565b50505050905090565b61019a61056c565b600082815481106101ae576101ad610845565b5b906000526020600020016040518060400160405290816000820160009054906101000a900463ffffffff1663ffffffff1663ffffffff1681526020016000820160049054906101000a900463ffffffff1663ffffffff1663ffffffff16815250509050919050565b610246816000848154811061022e5761022d610845565b5b9060005260206000200161031290919063ffffffff16565b5050565b60006102d98260008563ffffffff168154811061026a57610269610845565b5b906000526020600020016040518060400160405290816000820160009054906101000a900463ffffffff1663ffffffff1663ffffffff1681526020016000820160049054906101000a900463ffffffff1663ffffffff1663ffffffff168152505061037d90919063ffffffff16565b905092915050565b6102e961056c565b6040518060400160405280600063ffffffff1681526020018363ffffffff168152509050919050565b8060006103248263ffffffff1661040c565b9050600a8151111561033557600080fd5b8360000160049054906101000a900463ffffffff168361035591906108a3565b8460000160006101000a81548163ffffffff021916908363ffffffff16021790555050505050565b60008160006103918263ffffffff1661040c565b9050600a815111156103a257600080fd5b6000856000015163ffffffff16116103ef576040517f08c379a00000000000000000000000000000000000000000000000000000000081526004016103e690610960565b60405180910390fd5b846000015163ffffffff168463ffffffff16119250505092915050565b606060008203610453576040518060400160405280600181526020017f30000000000000000000000000000000000000000000000000000000000000008152509050610567565b600082905060005b6000821461048557808061046e90610980565b915050600a8261047e91906109f7565b915061045b565b60008167ffffffffffffffff8111156104a1576104a0610a28565b5b6040519080825280601f01601f1916602001820160405280156104d35781602001600182028036833780820191505090505b5090505b60008514610560576001826104ec9190610a57565b9150600a856104fb9190610a8b565b60306105079190610abc565b60f81b81838151811061051d5761051c610845565b5b60200101907effffffffffffffffffffffffffffffffffffffffffffffffffffffffffffff1916908160001a905350600a8561055991906109f7565b94506104d7565b8093505050505b919050565b6040518060400160405280600063ffffffff168152602001600063ffffffff1681525090565b600081519050919050565b600082825260208201905092915050565b6000819050602082019050919050565b600063ffffffff82169050919050565b6105d7816105be565b82525050565b6040820160008201516105f360008501826105ce565b50602082015161060660208501826105ce565b50505050565b600061061883836105dd565b60408301905092915050565b6000602082019050919050565b600061063c82610592565b610646818561059d565b9350610651836105ae565b8060005b83811015610682578151610669888261060c565b975061067483610624565b925050600181019050610655565b5085935050505092915050565b600060208201905081810360008301526106a98184610631565b905092915050565b600080fd5b6000819050919050565b6106c9816106b6565b81146106d457600080fd5b50565b6000813590506106e6816106c0565b92915050565b600060208284031215610702576107016106b1565b5b6000610710848285016106d7565b91505092915050565b60408201600082015161072f60008501826105ce565b50602082015161074260208501826105ce565b50505050565b600060408201905061075d6000830184610719565b92915050565b61076c816105be565b811461077757600080fd5b50565b60008135905061078981610763565b92915050565b600080604083850312156107a6576107a56106b1565b5b60006107b4858286016106d7565b92505060206107c58582860161077a565b9150509250929050565b600080604083850312156107e6576107e56106b1565b5b60006107f48582860161077a565b92505060206108058582860161077a565b9150509250929050565b60008115159050919050565b6108248161080f565b82525050565b600060208201905061083f600083018461081b565b92915050565b7f4e487b7100000000000000000000000000000000000000000000000000000000600052603260045260246000fd5b7f4e487b7100000000000000000000000000000000000000000000000000000000600052601160045260246000fd5b60006108ae826105be565b91506108b9836105be565b92508263ffffffff038211156108d2576108d1610874565b5b828201905092915050565b600082825260208201905092915050565b7f5468657265206973206e6f20656e6454696d652073657420696e2074696d656f60008201527f7574000000000000000000000000000000000000000000000000000000000000602082015250565b600061094a6022836108dd565b9150610955826108ee565b604082019050919050565b600060208201905081810360008301526109798161093d565b9050919050565b600061098b826106b6565b91507fffffffffffffffffffffffffffffffffffffffffffffffffffffffffffffffff82036109bd576109bc610874565b5b600182019050919050565b7f4e487b7100000000000000000000000000000000000000000000000000000000600052601260045260246000fd5b6000610a02826106b6565b9150610a0d836106b6565b925082610a1d57610a1c6109c8565b5b828204905092915050565b7f4e487b7100000000000000000000000000000000000000000000000000000000600052604160045260246000fd5b6000610a62826106b6565b9150610a6d836106b6565b925082821015610a8057610a7f610874565b5b828203905092915050565b6000610a96826106b6565b9150610aa1836106b6565b925082610ab157610ab06109c8565b5b828206905092915050565b6000610ac7826106b6565b9150610ad2836106b6565b9250827fffffffffffffffffffffffffffffffffffffffffffffffffffffffffffffffff03821115610b0757610b06610874565b5b82820190509291505056fea26469706673582212204221d5964ec9bb20088635ea46ea56552eb9f026e2e34c1a73c46cf8fd00d41064736f6c634300080d0033",
  "immutableReferences": {},
  "source": "// SPDX-License-Identifier: MIT\r\npragma solidity >0.8.4 < 0.8.14;\r\n\r\nimport \"../eai/EAI.sol\";\r\n\r\ncontract  Timeout_refCod{\r\n    using EAI for EAI.Timeout;\r\n    EAI.Timeout [] timeout;\r\n\r\n    constructor(){\r\n        timeout.push(EAI.createTimeout(50));\r\n        timeout.push(EAI.createTimeout(30));\r\n    }\r\n\r\n    function setTimeoutEnd(uint _idTimeout, uint32 _startTime) public {\r\n       timeout[_idTimeout].setEndTimeInTimeout(_startTime);\r\n    }\r\n\r\n    function isTimeoutEnded(uint32 _idTimeout, uint32 _accessTime)public view returns(bool){\r\n        return  timeout[_idTimeout].isTimeoutEnded(_accessTime);\r\n    }\r\n\r\n    function getOneTimeout(uint _id) public view returns(EAI.Timeout memory){\r\n        return timeout[_id];\r\n    }\r\n    \r\n    function getAllTimeouts() public view returns(EAI.Timeout[] memory){\r\n        return timeout;\r\n    }\r\n}",
  "sourcePath": "D:\\UserData\\git-repository\\dsl-smart-contract-eai\\02-models\\ProofOfConcept\\contracts\\lib\\referencesCode-eai\\004_Timeout_refCod.sol",
  "compiler": {
    "name": "solc",
    "version": "0.8.13+commit.abaa5c0e.Emscripten.clang"
  },
  "schemaVersion": "3.4.11",
  "updatedAt": "2023-02-08T16:30:17.121Z",
  "networkType": "ethereum",
  "devdoc": {
    "kind": "dev",
    "methods": {},
    "version": 1
  },
  "userdoc": {
    "kind": "user",
    "methods": {},
    "version": 1
  }
}