{
  "contractName": "WeekDaysInterval_refCod",
  "abi": [
    {
      "inputs": [],
      "stateMutability": "nonpayable",
      "type": "constructor"
    },
    {
      "inputs": [
        {
          "internalType": "uint256",
          "name": "",
          "type": "uint256"
        }
      ],
      "name": "weekDaysInterval",
      "outputs": [
        {
          "internalType": "uint8",
          "name": "start",
          "type": "uint8"
        },
        {
          "internalType": "uint8",
          "name": "end",
          "type": "uint8"
        }
      ],
      "stateMutability": "view",
      "type": "function",
      "constant": true
    },
    {
      "inputs": [],
      "name": "getAllWeekDaysInterval",
      "outputs": [
        {
          "components": [
            {
              "internalType": "uint8",
              "name": "start",
              "type": "uint8"
            },
            {
              "internalType": "uint8",
              "name": "end",
              "type": "uint8"
            }
          ],
          "internalType": "struct EAI.WeekDaysInterval[]",
          "name": "",
          "type": "tuple[]"
        }
      ],
      "stateMutability": "view",
      "type": "function",
      "constant": true
    },
    {
      "inputs": [
        {
          "internalType": "uint8",
          "name": "_weekDay",
          "type": "uint8"
        }
      ],
      "name": "isIntoWeekDaysIntervals",
      "outputs": [
        {
          "internalType": "bool",
          "name": "",
          "type": "bool"
        }
      ],
      "stateMutability": "pure",
      "type": "function",
      "constant": true
    },
    {
      "inputs": [
        {
          "internalType": "uint8",
          "name": "id_weekDaysInterval",
          "type": "uint8"
        }
      ],
      "name": "getWeekDaysInterval",
      "outputs": [
        {
          "internalType": "uint8",
          "name": "start",
          "type": "uint8"
        },
        {
          "internalType": "uint8",
          "name": "end",
          "type": "uint8"
        }
      ],
      "stateMutability": "view",
      "type": "function",
      "constant": true
    },
    {
      "inputs": [],
      "name": "getWeekDaysInterval",
      "outputs": [
        {
          "components": [
            {
              "internalType": "uint8",
              "name": "start",
              "type": "uint8"
            },
            {
              "internalType": "uint8",
              "name": "end",
              "type": "uint8"
            }
          ],
          "internalType": "struct EAI.WeekDaysInterval[]",
          "name": "",
          "type": "tuple[]"
        }
      ],
      "stateMutability": "view",
      "type": "function",
      "constant": true
    },
    {
      "inputs": [],
      "name": "getAmountOfWeekDaysInterval",
      "outputs": [
        {
          "internalType": "uint8",
          "name": "",
          "type": "uint8"
        }
      ],
      "stateMutability": "view",
      "type": "function",
      "constant": true
    },
    {
      "inputs": [],
      "name": "setWeekDaysInterval",
      "outputs": [
        {
          "internalType": "uint8",
          "name": "startDay",
          "type": "uint8"
        },
        {
          "internalType": "uint8",
          "name": "endDay",
          "type": "uint8"
        }
      ],
      "stateMutability": "nonpayable",
      "type": "function"
    }
  ],
  "bytecode": "0x608060405234801561001057600080fd5b5060026100296001600261011860201b6104ac1760201c565b9080600181540180825580915050600190039060005260206000200160009091909190915060008201518160000160006101000a81548160ff021916908360ff16021790555060208201518160000160016101000a81548160ff021916908360ff160217905550505060026100aa6004600661011860201b6104ac1760201c565b9080600181540180825580915050600190039060005260206000200160009091909190915060008201518160000160006101000a81548160ff021916908360ff16021790555060208201518160000160016101000a81548160ff021916908360ff1602179055505050610163565b610120610143565b60405180604001604052808460ff1681526020018360ff16815250905092915050565b6040518060400160405280600060ff168152602001600060ff1681525090565b6108c4806101726000396000f3fe608060405234801561001057600080fd5b506004361061007d5760003560e01c80637a5f80e71161005b5780637a5f80e7146101145780638098c71514610132578063ab19c86c14610150578063f18406d71461016e5761007d565b80630867ba68146100825780632af442ef146100b35780632f501097146100e4575b600080fd5b61009c60048036038101906100979190610594565b61018d565b6040516100aa9291906105d0565b60405180910390f35b6100cd60048036038101906100c8919061062f565b610207565b6040516100db9291906105d0565b60405180910390f35b6100fe60048036038101906100f99190610594565b610251565b60405161010b9190610677565b60405180910390f35b61011c6102c1565b604051610129919061077f565b60405180910390f35b61013a610356565b604051610147919061077f565b60405180910390f35b6101586103f3565b60405161016591906107a1565b60405180910390f35b610176610400565b6040516101849291906105d0565b60405180910390f35b6000806101fe60028460ff16815481106101aa576101a96107bc565b5b906000526020600020016040518060400160405290816000820160009054906101000a900460ff1660ff1660ff1681526020016000820160019054906101000a900460ff1660ff1660ff16815250506104d7565b91509150915091565b6002818154811061021757600080fd5b906000526020600020016000915090508060000160009054906101000a900460ff16908060000160019054906101000a900460ff16905082565b600081600060ff168160ff16101580156102725750600660ff168160ff1611155b6102b1576040517f08c379a00000000000000000000000000000000000000000000000000000000081526004016102a89061086e565b60405180910390fd5b6000600190508092505050919050565b60606002805480602002602001604051908101604052809291908181526020016000905b8282101561034d578382906000526020600020016040518060400160405290816000820160009054906101000a900460ff1660ff1660ff1681526020016000820160019054906101000a900460ff1660ff1660ff1681525050815260200190600101906102e5565b50505050905090565b60606103ee6002805480602002602001604051908101604052809291908181526020016000905b828210156103e5578382906000526020600020016040518060400160405290816000820160009054906101000a900460ff1660ff1660ff1681526020016000820160019054906101000a900460ff1660ff1660ff16815250508152602001906001019061037d565b505050506104ed565b905090565b6000600280549050905090565b60008061043860036006600260008154811061041f5761041e6107bc565b5b906000526020600020016104f79092919063ffffffff16565b6104a460026000815481106104505761044f6107bc565b5b906000526020600020016040518060400160405290816000820160009054906101000a900460ff1660ff1660ff1681526020016000820160019054906101000a900460ff1660ff1660ff16815250506104d7565b915091509091565b6104b4610536565b60405180604001604052808460ff1681526020018360ff16815250905092915050565b6000808260000151836020015191509150915091565b6060819050919050565b818360000160006101000a81548160ff021916908360ff160217905550808360000160016101000a81548160ff021916908360ff160217905550505050565b6040518060400160405280600060ff168152602001600060ff1681525090565b600080fd5b600060ff82169050919050565b6105718161055b565b811461057c57600080fd5b50565b60008135905061058e81610568565b92915050565b6000602082840312156105aa576105a9610556565b5b60006105b88482850161057f565b91505092915050565b6105ca8161055b565b82525050565b60006040820190506105e560008301856105c1565b6105f260208301846105c1565b9392505050565b6000819050919050565b61060c816105f9565b811461061757600080fd5b50565b60008135905061062981610603565b92915050565b60006020828403121561064557610644610556565b5b60006106538482850161061a565b91505092915050565b60008115159050919050565b6106718161065c565b82525050565b600060208201905061068c6000830184610668565b92915050565b600081519050919050565b600082825260208201905092915050565b6000819050602082019050919050565b6106c78161055b565b82525050565b6040820160008201516106e360008501826106be565b5060208201516106f660208501826106be565b50505050565b600061070883836106cd565b60408301905092915050565b6000602082019050919050565b600061072c82610692565b610736818561069d565b9350610741836106ae565b8060005b8381101561077257815161075988826106fc565b975061076483610714565b925050600181019050610745565b5085935050505092915050565b600060208201905081810360008301526107998184610721565b905092915050565b60006020820190506107b660008301846105c1565b92915050565b7f4e487b7100000000000000000000000000000000000000000000000000000000600052603260045260246000fd5b600082825260208201905092915050565b7f54686520676976656e206e756d6265722f646179206e6f74207265707265736560008201527f6e747320612076616c6964206461790000000000000000000000000000000000602082015250565b6000610858602f836107eb565b9150610863826107fc565b604082019050919050565b600060208201905081810360008301526108878161084b565b905091905056fea26469706673582212208d0cd51e22262918d25e270d7b259c29e485699c93ac72245d979d7a2c15410664736f6c634300080d0033",
  "immutableReferences": {},
  "source": "// SPDX-License-Identifier: MIT \r\npragma solidity ^0.8.13;\r\nimport \"../eai/EAI.sol\";\r\n\r\ncontract WeekDaysInterval_refCod{\r\n    using EAI for EAI.WeekDaysInterval;\r\n    using EAI for EAI.Party;\r\n    EAI.Party application;\r\n    EAI.WeekDaysInterval[] public weekDaysInterval;\r\n    \r\n\r\n    constructor (){\r\n        weekDaysInterval.push(EAI.createWeekDaysInterval(EAI.MONDAY, EAI.TUESDAY));\r\n        weekDaysInterval.push(EAI.createWeekDaysInterval(EAI.THURSDAY, EAI.SATURDAY));\r\n    }\r\n\r\n    function getWeekDaysInterval(uint8 id_weekDaysInterval) public view returns(uint8 start, uint8 end){\r\n        return EAI.getOneWeekDaysInterval(weekDaysInterval[id_weekDaysInterval]);\r\n    }\r\n\r\n    function getAllWeekDaysInterval() public view returns(EAI.WeekDaysInterval[] memory)  {        \r\n        return EAI.getAllWeekDaysIntervals(weekDaysInterval);\r\n    }\r\n\r\n    // check into a set of weekDaysIntervals\r\n    function isIntoWeekDaysIntervals( uint8 _weekDay) public  pure onlyValidDay(_weekDay) returns(bool){\r\n        bool flag = true; \r\n        // EAI.isIntoWeekDaysIntervals(_weekDay, weekDaysInterval); \r\n         return flag; \r\n    } \r\n\r\n    // check into one weekDaysInterval\r\n    // function isIntoWeekDaysInterval( uint8 _weekDay) internal view returns(bool){\r\n    //      return EAI.isIntoWeekDaysInterval(_weekDay, weekDaysInterval[0]); \r\n    // } \r\n\r\n    function getWeekDaysInterval()public view returns(EAI.WeekDaysInterval[] memory){\r\n        return weekDaysInterval;\r\n    } \r\n\r\n    function getAmountOfWeekDaysInterval() public view returns(uint8){\r\n        return uint8(weekDaysInterval.length);\r\n    }\r\n\r\n    function setWeekDaysInterval() public returns(uint8 startDay, uint8 endDay){\r\n        weekDaysInterval[0].setWeekDayInterval(3,6);\r\n        return weekDaysInterval[0].getOneWeekDaysInterval();\r\n    }\r\n\r\n// /* ---------------------- modifiers from the weekDaysInterval ----------- */ \r\n//     modifier onlyValidDays(uint8 _startDay, uint8 _endDay) {\r\n//         require( _startDay >= EAI.SUNDAY && _startDay <= EAI.SATURDAY, \"The _startDay not represents a valid day\");\r\n//         require(_endDay >= EAI.SUNDAY && _endDay <= EAI.SATURDAY,  \"The _endDay not represents a valid day\");\r\n//         _;\r\n//     }\r\n    \r\n    modifier onlyValidDay(uint8 _day) {\r\n        require((_day >= EAI.SUNDAY && _day <= EAI.SATURDAY), \"The given number/day not represents a valid day\");\r\n        _;\r\n    }\r\n}",
  "sourcePath": "C:\\workspace-projects\\git-repository\\dsl-smart-contract-eai\\02-models\\ProofOfConcept\\contracts\\lib\\referencesCode-eai\\WeekDaysInterval_refCod.sol",
  "compiler": {
    "name": "solc",
    "version": "0.8.13+commit.abaa5c0e.Emscripten.clang"
  },
  "schemaVersion": "3.4.7",
  "updatedAt": "2022-12-06T02:14:38.065Z",
  "networkType": "ethereum",
  "devdoc": {
    "kind": "dev",
    "methods": {},
    "version": 1
  },
  "userdoc": {
    "kind": "user",
    "methods": {},
    "version": 1
  }
}