{
  "contractName": "WeekDaysInterval_refCod",
  "abi": [
    {
      "inputs": [],
      "stateMutability": "nonpayable",
      "type": "constructor"
    },
    {
      "inputs": [
        {
          "internalType": "uint256",
          "name": "",
          "type": "uint256"
        }
      ],
      "name": "weekDaysInterval",
      "outputs": [
        {
          "internalType": "uint8",
          "name": "start",
          "type": "uint8"
        },
        {
          "internalType": "uint8",
          "name": "end",
          "type": "uint8"
        }
      ],
      "stateMutability": "view",
      "type": "function",
      "constant": true
    },
    {
      "inputs": [],
      "name": "getAllWeekDaysInterval",
      "outputs": [
        {
          "components": [
            {
              "internalType": "uint8",
              "name": "start",
              "type": "uint8"
            },
            {
              "internalType": "uint8",
              "name": "end",
              "type": "uint8"
            }
          ],
          "internalType": "struct EAI.WeekDaysInterval[]",
          "name": "",
          "type": "tuple[]"
        }
      ],
      "stateMutability": "view",
      "type": "function",
      "constant": true
    },
    {
      "inputs": [
        {
          "internalType": "uint8",
          "name": "_weekDay",
          "type": "uint8"
        }
      ],
      "name": "isIntoWeekDaysIntervals",
      "outputs": [
        {
          "internalType": "bool",
          "name": "",
          "type": "bool"
        }
      ],
      "stateMutability": "view",
      "type": "function",
      "constant": true
    },
    {
      "inputs": [
        {
          "internalType": "uint8",
          "name": "id_weekDaysInterval",
          "type": "uint8"
        }
      ],
      "name": "getWeekDaysInterval",
      "outputs": [
        {
          "internalType": "uint8",
          "name": "start",
          "type": "uint8"
        },
        {
          "internalType": "uint8",
          "name": "end",
          "type": "uint8"
        }
      ],
      "stateMutability": "view",
      "type": "function",
      "constant": true
    },
    {
      "inputs": [],
      "name": "getWeekDaysInterval",
      "outputs": [
        {
          "components": [
            {
              "internalType": "uint8",
              "name": "start",
              "type": "uint8"
            },
            {
              "internalType": "uint8",
              "name": "end",
              "type": "uint8"
            }
          ],
          "internalType": "struct EAI.WeekDaysInterval[]",
          "name": "",
          "type": "tuple[]"
        }
      ],
      "stateMutability": "view",
      "type": "function",
      "constant": true
    },
    {
      "inputs": [],
      "name": "getAmountOfWeekDaysInterval",
      "outputs": [
        {
          "internalType": "uint8",
          "name": "",
          "type": "uint8"
        }
      ],
      "stateMutability": "view",
      "type": "function",
      "constant": true
    },
    {
      "inputs": [
        {
          "internalType": "uint256",
          "name": "_wdi_id",
          "type": "uint256"
        },
        {
          "internalType": "uint8",
          "name": "_start",
          "type": "uint8"
        },
        {
          "internalType": "uint8",
          "name": "_end",
          "type": "uint8"
        }
      ],
      "name": "setWeekDaysInterval",
      "outputs": [],
      "stateMutability": "nonpayable",
      "type": "function"
    },
    {
      "inputs": [],
      "name": "setWeekDaysInterval",
      "outputs": [
        {
          "internalType": "uint8",
          "name": "startDay",
          "type": "uint8"
        },
        {
          "internalType": "uint8",
          "name": "endDay",
          "type": "uint8"
        }
      ],
      "stateMutability": "nonpayable",
      "type": "function"
    }
  ],
  "bytecode": "0x60806040523480156200001157600080fd5b5060026200002d600160026200012060201b620005301760201c565b9080600181540180825580915050600190039060005260206000200160009091909190915060008201518160000160006101000a81548160ff021916908360ff16021790555060208201518160000160016101000a81548160ff021916908360ff16021790555050506002620000b1600460066200012060201b620005301760201c565b9080600181540180825580915050600190039060005260206000200160009091909190915060008201518160000160006101000a81548160ff021916908360ff16021790555060208201518160000160016101000a81548160ff021916908360ff160217905550505062000374565b6200012a62000213565b8282600060ff168260ff16101580156200014b5750600660ff168260ff1611155b6200018d576040517f08c379a00000000000000000000000000000000000000000000000000000000081526004016200018490620002ba565b60405180910390fd5b600060ff168160ff1610158015620001ac5750600660ff168160ff1611155b620001ee576040517f08c379a0000000000000000000000000000000000000000000000000000000008152600401620001e59062000352565b60405180910390fd5b60405180604001604052808660ff1681526020018560ff168152509250505092915050565b6040518060400160405280600060ff168152602001600060ff1681525090565b600082825260208201905092915050565b7f546865205f7374617274446179206e6f7420726570726573656e74732061207660008201527f616c696420646179000000000000000000000000000000000000000000000000602082015250565b6000620002a260288362000233565b9150620002af8262000244565b604082019050919050565b60006020820190508181036000830152620002d58162000293565b9050919050565b7f546865205f656e64446179206e6f7420726570726573656e747320612076616c60008201527f6964206461790000000000000000000000000000000000000000000000000000602082015250565b60006200033a60268362000233565b91506200034782620002dc565b604082019050919050565b600060208201905081810360008301526200036d816200032b565b9050919050565b610e0480620003846000396000f3fe608060405234801561001057600080fd5b50600436106100885760003560e01c80637a5f80e71161005b5780637a5f80e71461013b5780638098c71514610159578063ab19c86c14610177578063f18406d71461019557610088565b80630867ba681461008d5780632af442ef146100be5780632f501097146100ef57806363ff5df61461011f575b600080fd5b6100a760048036038101906100a291906108e6565b6101b4565b6040516100b5929190610922565b60405180910390f35b6100d860048036038101906100d39190610981565b61022e565b6040516100e6929190610922565b60405180910390f35b610109600480360381019061010491906108e6565b610278565b60405161011691906109c9565b60405180910390f35b610139600480360381019061013491906109e4565b610318565b005b610143610345565b6040516101509190610b24565b60405180910390f35b6101616103da565b60405161016e9190610b24565b60405180910390f35b61017f610477565b60405161018c9190610b46565b60405180910390f35b61019d610484565b6040516101ab929190610922565b60405180910390f35b60008061022560028460ff16815481106101d1576101d0610b61565b5b906000526020600020016040518060400160405290816000820160009054906101000a900460ff1660ff1660ff1681526020016000820160019054906101000a900460ff1660ff1660ff1681525050610619565b91509150915091565b6002818154811061023e57600080fd5b906000526020600020016000915090508060000160009054906101000a900460ff16908060000160019054906101000a900460ff16905082565b6000610311826002805480602002602001604051908101604052809291908181526020016000905b82821015610308578382906000526020600020016040518060400160405290816000820160009054906101000a900460ff1660ff1660ff1681526020016000820160019054906101000a900460ff1660ff1660ff1681525050815260200190600101906102a0565b5050505061062f565b9050919050565b6103406002848154811061032f5761032e610b61565b5b9060005260206000200183836106f5565b505050565b60606002805480602002602001604051908101604052809291908181526020016000905b828210156103d1578382906000526020600020016040518060400160405290816000820160009054906101000a900460ff1660ff1660ff1681526020016000820160019054906101000a900460ff1660ff1660ff168152505081526020019060010190610369565b50505050905090565b60606104726002805480602002602001604051908101604052809291908181526020016000905b82821015610469578382906000526020600020016040518060400160405290816000820160009054906101000a900460ff1660ff1660ff1681526020016000820160019054906101000a900460ff1660ff1660ff168152505081526020019060010190610401565b505050506107f2565b905090565b6000600280549050905090565b6000806104bc6003600660026000815481106104a3576104a2610b61565b5b906000526020600020016106f59092919063ffffffff16565b61052860026000815481106104d4576104d3610b61565b5b906000526020600020016040518060400160405290816000820160009054906101000a900460ff1660ff1660ff1681526020016000820160019054906101000a900460ff1660ff1660ff1681525050610619565b915091509091565b610538610888565b8282600060ff168260ff16101580156105585750600660ff168260ff1611155b610597576040517f08c379a000000000000000000000000000000000000000000000000000000000815260040161058e90610c13565b60405180910390fd5b600060ff168160ff16101580156105b55750600660ff168160ff1611155b6105f4576040517f08c379a00000000000000000000000000000000000000000000000000000000081526004016105eb90610ca5565b60405180910390fd5b60405180604001604052808660ff1681526020018560ff168152509250505092915050565b6000808260000151836020015191509150915091565b600082600060ff168160ff16101580156106505750600660ff168160ff1611155b61068f576040517f08c379a000000000000000000000000000000000000000000000000000000000815260040161068690610d37565b60405180910390fd5b60008351905060005b818110156106e7576106c4868683815181106106b7576106b6610b61565b5b60200260200101516107fc565b156106d4576001935050506106ee565b80806106df90610d86565b915050610698565b5060009250505b5092915050565b8181600060ff168260ff16101580156107155750600660ff168260ff1611155b610754576040517f08c379a000000000000000000000000000000000000000000000000000000000815260040161074b90610c13565b60405180910390fd5b600060ff168160ff16101580156107725750600660ff168160ff1611155b6107b1576040517f08c379a00000000000000000000000000000000000000000000000000000000081526004016107a890610ca5565b60405180910390fd5b838560000160006101000a81548160ff021916908360ff160217905550828560000160016101000a81548160ff021916908360ff1602179055505050505050565b6060819050919050565b6000816020015160ff16826000015160ff16101561084b57816000015160ff168360ff16101580156108385750816020015160ff168360ff1611155b156108465760019050610882565b61087d565b816000015160ff168360ff1610158061086e5750816020015160ff168360ff1611155b1561087c5760019050610882565b5b600090505b92915050565b6040518060400160405280600060ff168152602001600060ff1681525090565b600080fd5b600060ff82169050919050565b6108c3816108ad565b81146108ce57600080fd5b50565b6000813590506108e0816108ba565b92915050565b6000602082840312156108fc576108fb6108a8565b5b600061090a848285016108d1565b91505092915050565b61091c816108ad565b82525050565b60006040820190506109376000830185610913565b6109446020830184610913565b9392505050565b6000819050919050565b61095e8161094b565b811461096957600080fd5b50565b60008135905061097b81610955565b92915050565b600060208284031215610997576109966108a8565b5b60006109a58482850161096c565b91505092915050565b60008115159050919050565b6109c3816109ae565b82525050565b60006020820190506109de60008301846109ba565b92915050565b6000806000606084860312156109fd576109fc6108a8565b5b6000610a0b8682870161096c565b9350506020610a1c868287016108d1565b9250506040610a2d868287016108d1565b9150509250925092565b600081519050919050565b600082825260208201905092915050565b6000819050602082019050919050565b610a6c816108ad565b82525050565b604082016000820151610a886000850182610a63565b506020820151610a9b6020850182610a63565b50505050565b6000610aad8383610a72565b60408301905092915050565b6000602082019050919050565b6000610ad182610a37565b610adb8185610a42565b9350610ae683610a53565b8060005b83811015610b17578151610afe8882610aa1565b9750610b0983610ab9565b925050600181019050610aea565b5085935050505092915050565b60006020820190508181036000830152610b3e8184610ac6565b905092915050565b6000602082019050610b5b6000830184610913565b92915050565b7f4e487b7100000000000000000000000000000000000000000000000000000000600052603260045260246000fd5b600082825260208201905092915050565b7f546865205f7374617274446179206e6f7420726570726573656e74732061207660008201527f616c696420646179000000000000000000000000000000000000000000000000602082015250565b6000610bfd602883610b90565b9150610c0882610ba1565b604082019050919050565b60006020820190508181036000830152610c2c81610bf0565b9050919050565b7f546865205f656e64446179206e6f7420726570726573656e747320612076616c60008201527f6964206461790000000000000000000000000000000000000000000000000000602082015250565b6000610c8f602683610b90565b9150610c9a82610c33565b604082019050919050565b60006020820190508181036000830152610cbe81610c82565b9050919050565b7f54686520676976656e206e756d6265722f646179206e6f74207265707265736560008201527f6e747320612076616c6964206461790000000000000000000000000000000000602082015250565b6000610d21602f83610b90565b9150610d2c82610cc5565b604082019050919050565b60006020820190508181036000830152610d5081610d14565b9050919050565b7f4e487b7100000000000000000000000000000000000000000000000000000000600052601160045260246000fd5b6000610d918261094b565b91507fffffffffffffffffffffffffffffffffffffffffffffffffffffffffffffffff8203610dc357610dc2610d57565b5b60018201905091905056fea2646970667358221220a1827e447403a4bae40ae4336980c29d906c1f8ba2f8754d40c2def7314aaeeb64736f6c634300080d0033",
  "immutableReferences": {},
  "source": "// SPDX-License-Identifier: MIT \r\npragma solidity >0.8.4 < 0.8.14;\r\nimport \"../eai/EAI.sol\";\r\n\r\ncontract WeekDaysInterval_refCod{\r\n    using EAI for EAI.WeekDaysInterval;\r\n    using EAI for EAI.Party;\r\n    EAI.Party application;\r\n    EAI.WeekDaysInterval[] public weekDaysInterval;\r\n\r\n    constructor (){\r\n        weekDaysInterval.push(EAI.createWeekDaysInterval(EAI.MONDAY, EAI.TUESDAY));\r\n        weekDaysInterval.push(EAI.createWeekDaysInterval(EAI.THURSDAY, EAI.SATURDAY));\r\n    }\r\n\r\n    function setWeekDaysInterval(uint _wdi_id, uint8 _start, uint8 _end) public {\r\n        EAI.setWeekDayInterval(weekDaysInterval[_wdi_id] ,_start, _end);\r\n    }\r\n\r\n    function getWeekDaysInterval(uint8 id_weekDaysInterval) public view returns(uint8 start, uint8 end){\r\n        return EAI.getOneWeekDaysInterval(weekDaysInterval[id_weekDaysInterval]);\r\n    }\r\n\r\n    function getAllWeekDaysInterval() public view returns(EAI.WeekDaysInterval[] memory)  {        \r\n        return EAI.getAllWeekDaysIntervals(weekDaysInterval);\r\n    }\r\n\r\n    // check into a set of weekDaysIntervals\r\n    function isIntoWeekDaysIntervals( uint8 _weekDay) public view returns(bool){\r\n        return EAI.isIntoWeekDaysIntervals(_weekDay, weekDaysInterval); \r\n    } \r\n\r\n    function getWeekDaysInterval()public view returns(EAI.WeekDaysInterval[] memory){\r\n        return weekDaysInterval;\r\n    } \r\n\r\n    function getAmountOfWeekDaysInterval() public view returns(uint8){\r\n        return uint8(weekDaysInterval.length);\r\n    }\r\n\r\n    function setWeekDaysInterval() public returns(uint8 startDay, uint8 endDay){\r\n        weekDaysInterval[0].setWeekDayInterval(3,6);\r\n        return weekDaysInterval[0].getOneWeekDaysInterval();\r\n    }\r\n}",
  "sourcePath": "D:\\git-repository\\dsl-smart-contract-eai\\02-models\\ProofOfConcept\\contracts\\lib\\referencesCode-eai\\WeekDaysInterval_refCod.sol",
  "compiler": {
    "name": "solc",
    "version": "0.8.13+commit.abaa5c0e.Emscripten.clang"
  },
  "schemaVersion": "3.4.11",
  "updatedAt": "2023-01-27T21:13:06.461Z",
  "networkType": "ethereum",
  "devdoc": {
    "kind": "dev",
    "methods": {},
    "version": 1
  },
  "userdoc": {
    "kind": "user",
    "methods": {},
    "version": 1
  }
}