{
  "contractName": "WeekDaysInterval_refCod",
  "abi": [
    {
      "inputs": [],
      "stateMutability": "nonpayable",
      "type": "constructor"
    },
    {
      "inputs": [],
      "name": "getAllWeekDaysInterval",
      "outputs": [
        {
          "components": [
            {
              "internalType": "uint8",
              "name": "start",
              "type": "uint8"
            },
            {
              "internalType": "uint8",
              "name": "end",
              "type": "uint8"
            }
          ],
          "internalType": "struct EAI.WeekDaysInterval[]",
          "name": "",
          "type": "tuple[]"
        }
      ],
      "stateMutability": "view",
      "type": "function",
      "constant": true
    },
    {
      "inputs": [
        {
          "internalType": "uint8",
          "name": "_weekDay",
          "type": "uint8"
        }
      ],
      "name": "isIntoWeekDaysIntervals",
      "outputs": [
        {
          "internalType": "bool",
          "name": "",
          "type": "bool"
        }
      ],
      "stateMutability": "view",
      "type": "function",
      "constant": true
    },
    {
      "inputs": [
        {
          "internalType": "uint8",
          "name": "id_weekDaysInterval",
          "type": "uint8"
        }
      ],
      "name": "getWeekDaysInterval",
      "outputs": [
        {
          "internalType": "uint8",
          "name": "start",
          "type": "uint8"
        },
        {
          "internalType": "uint8",
          "name": "end",
          "type": "uint8"
        }
      ],
      "stateMutability": "view",
      "type": "function",
      "constant": true
    },
    {
      "inputs": [],
      "name": "getWeekDaysInterval",
      "outputs": [
        {
          "components": [
            {
              "internalType": "uint8",
              "name": "start",
              "type": "uint8"
            },
            {
              "internalType": "uint8",
              "name": "end",
              "type": "uint8"
            }
          ],
          "internalType": "struct EAI.WeekDaysInterval[]",
          "name": "",
          "type": "tuple[]"
        }
      ],
      "stateMutability": "view",
      "type": "function",
      "constant": true
    },
    {
      "inputs": [],
      "name": "getAmountOfWeekDaysInterval",
      "outputs": [
        {
          "internalType": "uint8",
          "name": "",
          "type": "uint8"
        }
      ],
      "stateMutability": "view",
      "type": "function",
      "constant": true
    },
    {
      "inputs": [
        {
          "internalType": "uint256",
          "name": "_wdi_id",
          "type": "uint256"
        },
        {
          "internalType": "uint8",
          "name": "_start",
          "type": "uint8"
        },
        {
          "internalType": "uint8",
          "name": "_end",
          "type": "uint8"
        }
      ],
      "name": "setWeekDaysInterval",
      "outputs": [],
      "stateMutability": "nonpayable",
      "type": "function"
    },
    {
      "inputs": [],
      "name": "setWeekDaysInterval",
      "outputs": [
        {
          "internalType": "uint8",
          "name": "startDay",
          "type": "uint8"
        },
        {
          "internalType": "uint8",
          "name": "endDay",
          "type": "uint8"
        }
      ],
      "stateMutability": "nonpayable",
      "type": "function"
    }
  ],
  "bytecode": "0x60806040523480156200001157600080fd5b5060026200002d600160026200012060201b620004aa1760201c565b9080600181540180825580915050600190039060005260206000200160009091909190915060008201518160000160006101000a81548160ff021916908360ff16021790555060208201518160000160016101000a81548160ff021916908360ff16021790555050506002620000b1600460066200012060201b620004aa1760201c565b9080600181540180825580915050600190039060005260206000200160009091909190915060008201518160000160006101000a81548160ff021916908360ff16021790555060208201518160000160016101000a81548160ff021916908360ff160217905550505062000374565b6200012a62000213565b8282600060ff168260ff16101580156200014b5750600660ff168260ff1611155b6200018d576040517f08c379a00000000000000000000000000000000000000000000000000000000081526004016200018490620002ba565b60405180910390fd5b600060ff168160ff1610158015620001ac5750600660ff168160ff1611155b620001ee576040517f08c379a0000000000000000000000000000000000000000000000000000000008152600401620001e59062000352565b60405180910390fd5b60405180604001604052808660ff1681526020018560ff168152509250505092915050565b6040518060400160405280600060ff168152602001600060ff1681525090565b600082825260208201905092915050565b7f546865205f7374617274446179206e6f7420726570726573656e74732061207660008201527f616c696420646179000000000000000000000000000000000000000000000000602082015250565b6000620002a260288362000233565b9150620002af8262000244565b604082019050919050565b60006020820190508181036000830152620002d58162000293565b9050919050565b7f546865205f656e64446179206e6f7420726570726573656e747320612076616c60008201527f6964206461790000000000000000000000000000000000000000000000000000602082015250565b60006200033a60268362000233565b91506200034782620002dc565b604082019050919050565b600060208201905081810360008301526200036d816200032b565b9050919050565b610d5180620003846000396000f3fe608060405234801561001057600080fd5b506004361061007d5760003560e01c80637a5f80e71161005b5780637a5f80e7146100ff5780638098c7151461011d578063ab19c86c1461013b578063f18406d7146101595761007d565b80630867ba68146100825780632f501097146100b357806363ff5df6146100e3575b600080fd5b61009c60048036038101906100979190610860565b610178565b6040516100aa92919061089c565b60405180910390f35b6100cd60048036038101906100c89190610860565b6101f2565b6040516100da91906108e0565b60405180910390f35b6100fd60048036038101906100f89190610931565b610292565b005b6101076102bf565b6040516101149190610a71565b60405180910390f35b610125610354565b6040516101329190610a71565b60405180910390f35b6101436103f1565b6040516101509190610a93565b60405180910390f35b6101616103fe565b60405161016f92919061089c565b60405180910390f35b6000806101e960028460ff168154811061019557610194610aae565b5b906000526020600020016040518060400160405290816000820160009054906101000a900460ff1660ff1660ff1681526020016000820160019054906101000a900460ff1660ff1660ff1681525050610593565b91509150915091565b600061028b826002805480602002602001604051908101604052809291908181526020016000905b82821015610282578382906000526020600020016040518060400160405290816000820160009054906101000a900460ff1660ff1660ff1681526020016000820160019054906101000a900460ff1660ff1660ff16815250508152602001906001019061021a565b505050506105a9565b9050919050565b6102ba600284815481106102a9576102a8610aae565b5b90600052602060002001838361066f565b505050565b60606002805480602002602001604051908101604052809291908181526020016000905b8282101561034b578382906000526020600020016040518060400160405290816000820160009054906101000a900460ff1660ff1660ff1681526020016000820160019054906101000a900460ff1660ff1660ff1681525050815260200190600101906102e3565b50505050905090565b60606103ec6002805480602002602001604051908101604052809291908181526020016000905b828210156103e3578382906000526020600020016040518060400160405290816000820160009054906101000a900460ff1660ff1660ff1681526020016000820160019054906101000a900460ff1660ff1660ff16815250508152602001906001019061037b565b5050505061076c565b905090565b6000600280549050905090565b60008061043660036006600260008154811061041d5761041c610aae565b5b9060005260206000200161066f9092919063ffffffff16565b6104a2600260008154811061044e5761044d610aae565b5b906000526020600020016040518060400160405290816000820160009054906101000a900460ff1660ff1660ff1681526020016000820160019054906101000a900460ff1660ff1660ff1681525050610593565b915091509091565b6104b2610802565b8282600060ff168260ff16101580156104d25750600660ff168260ff1611155b610511576040517f08c379a000000000000000000000000000000000000000000000000000000000815260040161050890610b60565b60405180910390fd5b600060ff168160ff161015801561052f5750600660ff168160ff1611155b61056e576040517f08c379a000000000000000000000000000000000000000000000000000000000815260040161056590610bf2565b60405180910390fd5b60405180604001604052808660ff1681526020018560ff168152509250505092915050565b6000808260000151836020015191509150915091565b600082600060ff168160ff16101580156105ca5750600660ff168160ff1611155b610609576040517f08c379a000000000000000000000000000000000000000000000000000000000815260040161060090610c84565b60405180910390fd5b60008351905060005b818110156106615761063e8582815181106106305761062f610aae565b5b602002602001015187610776565b1561064e57600193505050610668565b808061065990610cd3565b915050610612565b5060009250505b5092915050565b8181600060ff168260ff161015801561068f5750600660ff168260ff1611155b6106ce576040517f08c379a00000000000000000000000000000000000000000000000000000000081526004016106c590610b60565b60405180910390fd5b600060ff168160ff16101580156106ec5750600660ff168160ff1611155b61072b576040517f08c379a000000000000000000000000000000000000000000000000000000000815260040161072290610bf2565b60405180910390fd5b838560000160006101000a81548160ff021916908360ff160217905550828560000160016101000a81548160ff021916908360ff1602179055505050505050565b6060819050919050565b6000826020015160ff16836000015160ff1610156107c557826000015160ff168260ff16101580156107b25750826020015160ff168260ff1611155b156107c057600190506107fc565b6107f7565b826000015160ff168260ff161015806107e85750826020015160ff168260ff1611155b156107f657600190506107fc565b5b600090505b92915050565b6040518060400160405280600060ff168152602001600060ff1681525090565b600080fd5b600060ff82169050919050565b61083d81610827565b811461084857600080fd5b50565b60008135905061085a81610834565b92915050565b60006020828403121561087657610875610822565b5b60006108848482850161084b565b91505092915050565b61089681610827565b82525050565b60006040820190506108b1600083018561088d565b6108be602083018461088d565b9392505050565b60008115159050919050565b6108da816108c5565b82525050565b60006020820190506108f560008301846108d1565b92915050565b6000819050919050565b61090e816108fb565b811461091957600080fd5b50565b60008135905061092b81610905565b92915050565b60008060006060848603121561094a57610949610822565b5b60006109588682870161091c565b93505060206109698682870161084b565b925050604061097a8682870161084b565b9150509250925092565b600081519050919050565b600082825260208201905092915050565b6000819050602082019050919050565b6109b981610827565b82525050565b6040820160008201516109d560008501826109b0565b5060208201516109e860208501826109b0565b50505050565b60006109fa83836109bf565b60408301905092915050565b6000602082019050919050565b6000610a1e82610984565b610a28818561098f565b9350610a33836109a0565b8060005b83811015610a64578151610a4b88826109ee565b9750610a5683610a06565b925050600181019050610a37565b5085935050505092915050565b60006020820190508181036000830152610a8b8184610a13565b905092915050565b6000602082019050610aa8600083018461088d565b92915050565b7f4e487b7100000000000000000000000000000000000000000000000000000000600052603260045260246000fd5b600082825260208201905092915050565b7f546865205f7374617274446179206e6f7420726570726573656e74732061207660008201527f616c696420646179000000000000000000000000000000000000000000000000602082015250565b6000610b4a602883610add565b9150610b5582610aee565b604082019050919050565b60006020820190508181036000830152610b7981610b3d565b9050919050565b7f546865205f656e64446179206e6f7420726570726573656e747320612076616c60008201527f6964206461790000000000000000000000000000000000000000000000000000602082015250565b6000610bdc602683610add565b9150610be782610b80565b604082019050919050565b60006020820190508181036000830152610c0b81610bcf565b9050919050565b7f54686520676976656e206e756d6265722f646179206e6f74207265707265736560008201527f6e747320612076616c6964206461790000000000000000000000000000000000602082015250565b6000610c6e602f83610add565b9150610c7982610c12565b604082019050919050565b60006020820190508181036000830152610c9d81610c61565b9050919050565b7f4e487b7100000000000000000000000000000000000000000000000000000000600052601160045260246000fd5b6000610cde826108fb565b91507fffffffffffffffffffffffffffffffffffffffffffffffffffffffffffffffff8203610d1057610d0f610ca4565b5b60018201905091905056fea264697066735822122075a21b313790fe45fab43c349f8fbc1611c46560fd8d680a89b1ec92eb764f8f64736f6c634300080d0033",
  "immutableReferences": {},
  "source": "// SPDX-License-Identifier: MIT \r\npragma solidity >0.8.4 < 0.8.14;\r\nimport \"../eai/EAI.sol\";\r\n\r\ncontract WeekDaysInterval_refCod{\r\n    using EAI for EAI.WeekDaysInterval;\r\n    using EAI for EAI.Party;\r\n    EAI.Party application;\r\n    EAI.WeekDaysInterval[] weekDaysInterval;\r\n\r\n    constructor (){\r\n        weekDaysInterval.push(EAI.createWeekDaysInterval(EAI.MONDAY, EAI.TUESDAY));\r\n        weekDaysInterval.push(EAI.createWeekDaysInterval(EAI.THURSDAY, EAI.SATURDAY));\r\n    }\r\n\r\n    function setWeekDaysInterval(uint _wdi_id, uint8 _start, uint8 _end) public {\r\n        EAI.setWeekDayInterval(weekDaysInterval[_wdi_id] ,_start, _end);\r\n    }\r\n\r\n    function getWeekDaysInterval(uint8 id_weekDaysInterval) public view returns(uint8 start, uint8 end){\r\n        return EAI.getOneWeekDaysInterval(weekDaysInterval[id_weekDaysInterval]);\r\n    }\r\n\r\n    function getAllWeekDaysInterval() public view returns(EAI.WeekDaysInterval[] memory)  {        \r\n        return EAI.getAllWeekDaysIntervals(weekDaysInterval);\r\n    }\r\n\r\n    // check into a set of weekDaysIntervals\r\n    function isIntoWeekDaysIntervals( uint8 _weekDay) public view returns(bool){\r\n        return EAI.isIntoWeekDaysIntervals(_weekDay, weekDaysInterval); \r\n    } \r\n\r\n    function getWeekDaysInterval()public view returns(EAI.WeekDaysInterval[] memory){\r\n        return weekDaysInterval;\r\n    } \r\n\r\n    function getAmountOfWeekDaysInterval() public view returns(uint8){\r\n        return uint8(weekDaysInterval.length);\r\n    }\r\n\r\n    function setWeekDaysInterval() public returns(uint8 startDay, uint8 endDay){\r\n        weekDaysInterval[0].setWeekDayInterval(3,6);\r\n        return weekDaysInterval[0].getOneWeekDaysInterval();\r\n    }\r\n}",
  "sourcePath": "C:\\git-repository\\dsl-smart-contract-eai\\02-models\\ProofOfConcept\\contracts\\lib\\referencesCode-eai\\002_WeekDaysInterval_refCod.sol",
  "compiler": {
    "name": "solc",
    "version": "0.8.13+commit.abaa5c0e.Emscripten.clang"
  },
  "schemaVersion": "3.4.11",
  "updatedAt": "2023-02-10T18:01:50.865Z",
  "networkType": "ethereum",
  "devdoc": {
    "kind": "dev",
    "methods": {},
    "version": 1
  },
  "userdoc": {
    "kind": "user",
    "methods": {},
    "version": 1
  }
}