{
	"contracts/lib/referencesCode-eai/011_SessionInterval_byIdRef_refCod.sol": {
		"SessionInterval_refCod": {
			"abi": [
				{
					"inputs": [],
					"stateMutability": "nonpayable",
					"type": "constructor"
				},
				{
					"inputs": [],
					"name": "getAllSessionIntervalByRef",
					"outputs": [
						{
							"internalType": "string[]",
							"name": "",
							"type": "string[]"
						},
						{
							"internalType": "string[]",
							"name": "",
							"type": "string[]"
						},
						{
							"components": [
								{
									"internalType": "uint8",
									"name": "duration",
									"type": "uint8"
								},
								{
									"internalType": "uint8",
									"name": "timeUnit",
									"type": "uint8"
								},
								{
									"internalType": "uint32",
									"name": "durationInSeconds",
									"type": "uint32"
								},
								{
									"internalType": "uint32",
									"name": "endTime",
									"type": "uint32"
								}
							],
							"internalType": "struct EAI.SessionInterval[]",
							"name": "",
							"type": "tuple[]"
						}
					],
					"stateMutability": "view",
					"type": "function"
				},
				{
					"inputs": [
						{
							"internalType": "string",
							"name": "_k1",
							"type": "string"
						},
						{
							"internalType": "string",
							"name": "_k2",
							"type": "string"
						}
					],
					"name": "getSessionIntervalById",
					"outputs": [
						{
							"components": [
								{
									"internalType": "uint8",
									"name": "duration",
									"type": "uint8"
								},
								{
									"internalType": "uint8",
									"name": "timeUnit",
									"type": "uint8"
								},
								{
									"internalType": "uint32",
									"name": "durationInSeconds",
									"type": "uint32"
								},
								{
									"internalType": "uint32",
									"name": "endTime",
									"type": "uint32"
								}
							],
							"internalType": "struct EAI.SessionInterval",
							"name": "",
							"type": "tuple"
						}
					],
					"stateMutability": "view",
					"type": "function"
				},
				{
					"inputs": [
						{
							"internalType": "string",
							"name": "_k1",
							"type": "string"
						},
						{
							"internalType": "string",
							"name": "_k2",
							"type": "string"
						},
						{
							"internalType": "uint32",
							"name": "_accessDateTime",
							"type": "uint32"
						}
					],
					"name": "isTheSessionIdOpen",
					"outputs": [
						{
							"internalType": "string",
							"name": "",
							"type": "string"
						}
					],
					"stateMutability": "view",
					"type": "function"
				},
				{
					"inputs": [
						{
							"internalType": "uint256",
							"name": "_idSingleSession",
							"type": "uint256"
						},
						{
							"internalType": "string",
							"name": "_k1",
							"type": "string"
						},
						{
							"internalType": "string",
							"name": "_k2",
							"type": "string"
						},
						{
							"internalType": "uint32",
							"name": "_accessDateTime",
							"type": "uint32"
						}
					],
					"name": "startSection",
					"outputs": [],
					"stateMutability": "nonpayable",
					"type": "function"
				}
			],
			"devdoc": {
				"kind": "dev",
				"methods": {},
				"version": 1
			},
			"evm": {
				"assembly": "    /* \"contracts/lib/referencesCode-eai/011_SessionInterval_byIdRef_refCod.sol\":98:2871  contract SessionInterval_refCod{\r... */\n  mstore(0x40, 0x80)\n    /* \"contracts/lib/referencesCode-eai/011_SessionInterval_byIdRef_refCod.sol\":690:1573  constructor(){\r... */\n  callvalue\n  dup1\n  iszero\n  tag_1\n  jumpi\n  0x00\n  dup1\n  revert\ntag_1:\n  pop\n    /* \"contracts/lib/referencesCode-eai/011_SessionInterval_byIdRef_refCod.sol\":724:739  sessionInterval */\n  0x00\n    /* \"contracts/lib/referencesCode-eai/011_SessionInterval_byIdRef_refCod.sol\":745:784  EAI.createSessionInteval(2, EAI.SECOND) */\n  tag_4\n    /* \"contracts/lib/referencesCode-eai/011_SessionInterval_byIdRef_refCod.sol\":770:771  2 */\n  0x02\n    /* \"contracts/lib/eai/EAI.sol\":666:667  0 */\n  0x00\n    /* \"contracts/lib/referencesCode-eai/011_SessionInterval_byIdRef_refCod.sol\":745:769  EAI.createSessionInteval */\n  or(tag_0_27, shl(0x20, tag_5))\n    /* \"contracts/lib/referencesCode-eai/011_SessionInterval_byIdRef_refCod.sol\":745:784  EAI.createSessionInteval(2, EAI.SECOND) */\n  0x20\n  shr\n  jump\t// in\ntag_4:\n    /* \"contracts/lib/referencesCode-eai/011_SessionInterval_byIdRef_refCod.sol\":724:785  sessionInterval.push(EAI.createSessionInteval(2, EAI.SECOND)) */\n  swap1\n  dup1\n  0x01\n  dup2\n  sload\n  add\n  dup1\n  dup3\n  sstore\n  dup1\n  swap2\n  pop\n  pop\n  0x01\n  swap1\n  sub\n  swap1\n  0x00\n  mstore\n  keccak256(0x00, 0x20)\n  add\n  0x00\n  swap1\n  swap2\n  swap1\n  swap2\n  swap1\n  swap2\n  pop\n  0x00\n  dup3\n  add\n  mload\n  dup2\n  0x00\n  add\n  exp(0x0100, 0x00)\n  dup2\n  sload\n  dup2\n  0xff\n  mul\n  not\n  and\n  swap1\n  dup4\n  0xff\n  and\n  mul\n  or\n  swap1\n  sstore\n  pop\n  0x20\n  dup3\n  add\n  mload\n  dup2\n  0x00\n  add\n  exp(0x0100, 0x01)\n  dup2\n  sload\n  dup2\n  0xff\n  mul\n  not\n  and\n  swap1\n  dup4\n  0xff\n  and\n  mul\n  or\n  swap1\n  sstore\n  pop\n  0x40\n  dup3\n  add\n  mload\n  dup2\n  0x00\n  add\n  exp(0x0100, 0x02)\n  dup2\n  sload\n  dup2\n  0xffffffff\n  mul\n  not\n  and\n  swap1\n  dup4\n  0xffffffff\n  and\n  mul\n  or\n  swap1\n  sstore\n  pop\n  0x60\n  dup3\n  add\n  mload\n  dup2\n  0x00\n  add\n  exp(0x0100, 0x06)\n  dup2\n  sload\n  dup2\n  0xffffffff\n  mul\n  not\n  and\n  swap1\n  dup4\n  0xffffffff\n  and\n  mul\n  or\n  swap1\n  sstore\n  pop\n  pop\n  pop\n    /* \"contracts/lib/referencesCode-eai/011_SessionInterval_byIdRef_refCod.sol\":895:910  sessionInterval */\n  0x00\n    /* \"contracts/lib/referencesCode-eai/011_SessionInterval_byIdRef_refCod.sol\":916:955  EAI.createSessionInteval(2, EAI.MINUTE) */\n  tag_7\n    /* \"contracts/lib/referencesCode-eai/011_SessionInterval_byIdRef_refCod.sol\":941:942  2 */\n  0x02\n    /* \"contracts/lib/eai/EAI.sol\":698:699  1 */\n  0x01\n    /* \"contracts/lib/referencesCode-eai/011_SessionInterval_byIdRef_refCod.sol\":916:940  EAI.createSessionInteval */\n  or(tag_0_27, shl(0x20, tag_5))\n    /* \"contracts/lib/referencesCode-eai/011_SessionInterval_byIdRef_refCod.sol\":916:955  EAI.createSessionInteval(2, EAI.MINUTE) */\n  0x20\n  shr\n  jump\t// in\ntag_7:\n    /* \"contracts/lib/referencesCode-eai/011_SessionInterval_byIdRef_refCod.sol\":895:956  sessionInterval.push(EAI.createSessionInteval(2, EAI.MINUTE)) */\n  swap1\n  dup1\n  0x01\n  dup2\n  sload\n  add\n  dup1\n  dup3\n  sstore\n  dup1\n  swap2\n  pop\n  pop\n  0x01\n  swap1\n  sub\n  swap1\n  0x00\n  mstore\n  keccak256(0x00, 0x20)\n  add\n  0x00\n  swap1\n  swap2\n  swap1\n  swap2\n  swap1\n  swap2\n  pop\n  0x00\n  dup3\n  add\n  mload\n  dup2\n  0x00\n  add\n  exp(0x0100, 0x00)\n  dup2\n  sload\n  dup2\n  0xff\n  mul\n  not\n  and\n  swap1\n  dup4\n  0xff\n  and\n  mul\n  or\n  swap1\n  sstore\n  pop\n  0x20\n  dup3\n  add\n  mload\n  dup2\n  0x00\n  add\n  exp(0x0100, 0x01)\n  dup2\n  sload\n  dup2\n  0xff\n  mul\n  not\n  and\n  swap1\n  dup4\n  0xff\n  and\n  mul\n  or\n  swap1\n  sstore\n  pop\n  0x40\n  dup3\n  add\n  mload\n  dup2\n  0x00\n  add\n  exp(0x0100, 0x02)\n  dup2\n  sload\n  dup2\n  0xffffffff\n  mul\n  not\n  and\n  swap1\n  dup4\n  0xffffffff\n  and\n  mul\n  or\n  swap1\n  sstore\n  pop\n  0x60\n  dup3\n  add\n  mload\n  dup2\n  0x00\n  add\n  exp(0x0100, 0x06)\n  dup2\n  sload\n  dup2\n  0xffffffff\n  mul\n  not\n  and\n  swap1\n  dup4\n  0xffffffff\n  and\n  mul\n  or\n  swap1\n  sstore\n  pop\n  pop\n  pop\n    /* \"contracts/lib/referencesCode-eai/011_SessionInterval_byIdRef_refCod.sol\":1060:1075  sessionInterval */\n  0x00\n    /* \"contracts/lib/referencesCode-eai/011_SessionInterval_byIdRef_refCod.sol\":1081:1118  EAI.createSessionInteval(2, EAI.HOUR) */\n  tag_9\n    /* \"contracts/lib/referencesCode-eai/011_SessionInterval_byIdRef_refCod.sol\":1106:1107  2 */\n  0x02\n    /* \"contracts/lib/eai/EAI.sol\":727:728  2 */\n  dup1\n    /* \"contracts/lib/referencesCode-eai/011_SessionInterval_byIdRef_refCod.sol\":1081:1105  EAI.createSessionInteval */\n  or(tag_0_27, shl(0x20, tag_5))\n    /* \"contracts/lib/referencesCode-eai/011_SessionInterval_byIdRef_refCod.sol\":1081:1118  EAI.createSessionInteval(2, EAI.HOUR) */\n  0x20\n  shr\n  jump\t// in\ntag_9:\n    /* \"contracts/lib/referencesCode-eai/011_SessionInterval_byIdRef_refCod.sol\":1060:1119  sessionInterval.push(EAI.createSessionInteval(2, EAI.HOUR)) */\n  swap1\n  dup1\n  0x01\n  dup2\n  sload\n  add\n  dup1\n  dup3\n  sstore\n  dup1\n  swap2\n  pop\n  pop\n  0x01\n  swap1\n  sub\n  swap1\n  0x00\n  mstore\n  keccak256(0x00, 0x20)\n  add\n  0x00\n  swap1\n  swap2\n  swap1\n  swap2\n  swap1\n  swap2\n  pop\n  0x00\n  dup3\n  add\n  mload\n  dup2\n  0x00\n  add\n  exp(0x0100, 0x00)\n  dup2\n  sload\n  dup2\n  0xff\n  mul\n  not\n  and\n  swap1\n  dup4\n  0xff\n  and\n  mul\n  or\n  swap1\n  sstore\n  pop\n  0x20\n  dup3\n  add\n  mload\n  dup2\n  0x00\n  add\n  exp(0x0100, 0x01)\n  dup2\n  sload\n  dup2\n  0xff\n  mul\n  not\n  and\n  swap1\n  dup4\n  0xff\n  and\n  mul\n  or\n  swap1\n  sstore\n  pop\n  0x40\n  dup3\n  add\n  mload\n  dup2\n  0x00\n  add\n  exp(0x0100, 0x02)\n  dup2\n  sload\n  dup2\n  0xffffffff\n  mul\n  not\n  and\n  swap1\n  dup4\n  0xffffffff\n  and\n  mul\n  or\n  swap1\n  sstore\n  pop\n  0x60\n  dup3\n  add\n  mload\n  dup2\n  0x00\n  add\n  exp(0x0100, 0x06)\n  dup2\n  sload\n  dup2\n  0xffffffff\n  mul\n  not\n  and\n  swap1\n  dup4\n  0xffffffff\n  and\n  mul\n  or\n  swap1\n  sstore\n  pop\n  pop\n  pop\n    /* \"contracts/lib/referencesCode-eai/011_SessionInterval_byIdRef_refCod.sol\":1237:1252  sessionInterval */\n  0x00\n    /* \"contracts/lib/referencesCode-eai/011_SessionInterval_byIdRef_refCod.sol\":1258:1294  EAI.createSessionInteval(2, EAI.DAY) */\n  tag_11\n    /* \"contracts/lib/referencesCode-eai/011_SessionInterval_byIdRef_refCod.sol\":1283:1284  2 */\n  0x02\n    /* \"contracts/lib/eai/EAI.sol\":755:756  3 */\n  0x03\n    /* \"contracts/lib/referencesCode-eai/011_SessionInterval_byIdRef_refCod.sol\":1258:1282  EAI.createSessionInteval */\n  or(tag_0_27, shl(0x20, tag_5))\n    /* \"contracts/lib/referencesCode-eai/011_SessionInterval_byIdRef_refCod.sol\":1258:1294  EAI.createSessionInteval(2, EAI.DAY) */\n  0x20\n  shr\n  jump\t// in\ntag_11:\n    /* \"contracts/lib/referencesCode-eai/011_SessionInterval_byIdRef_refCod.sol\":1237:1295  sessionInterval.push(EAI.createSessionInteval(2, EAI.DAY)) */\n  swap1\n  dup1\n  0x01\n  dup2\n  sload\n  add\n  dup1\n  dup3\n  sstore\n  dup1\n  swap2\n  pop\n  pop\n  0x01\n  swap1\n  sub\n  swap1\n  0x00\n  mstore\n  keccak256(0x00, 0x20)\n  add\n  0x00\n  swap1\n  swap2\n  swap1\n  swap2\n  swap1\n  swap2\n  pop\n  0x00\n  dup3\n  add\n  mload\n  dup2\n  0x00\n  add\n  exp(0x0100, 0x00)\n  dup2\n  sload\n  dup2\n  0xff\n  mul\n  not\n  and\n  swap1\n  dup4\n  0xff\n  and\n  mul\n  or\n  swap1\n  sstore\n  pop\n  0x20\n  dup3\n  add\n  mload\n  dup2\n  0x00\n  add\n  exp(0x0100, 0x01)\n  dup2\n  sload\n  dup2\n  0xff\n  mul\n  not\n  and\n  swap1\n  dup4\n  0xff\n  and\n  mul\n  or\n  swap1\n  sstore\n  pop\n  0x40\n  dup3\n  add\n  mload\n  dup2\n  0x00\n  add\n  exp(0x0100, 0x02)\n  dup2\n  sload\n  dup2\n  0xffffffff\n  mul\n  not\n  and\n  swap1\n  dup4\n  0xffffffff\n  and\n  mul\n  or\n  swap1\n  sstore\n  pop\n  0x60\n  dup3\n  add\n  mload\n  dup2\n  0x00\n  add\n  exp(0x0100, 0x06)\n  dup2\n  sload\n  dup2\n  0xffffffff\n  mul\n  not\n  and\n  swap1\n  dup4\n  0xffffffff\n  and\n  mul\n  or\n  swap1\n  sstore\n  pop\n  pop\n  pop\n    /* \"contracts/lib/referencesCode-eai/011_SessionInterval_byIdRef_refCod.sol\":1417:1424  keys_k1 */\n  0x02\n    /* \"contracts/lib/referencesCode-eai/011_SessionInterval_byIdRef_refCod.sol\":1417:1437  keys_k1.push(\"nome\") */\n  dup1\n  0x01\n  dup2\n  sload\n  add\n  dup1\n  dup3\n  sstore\n  dup1\n  swap2\n  pop\n  pop\n  0x01\n  swap1\n  sub\n  swap1\n  0x00\n  mstore\n  keccak256(0x00, 0x20)\n  add\n  0x00\n  mload(0x40)\n  dup1\n  0x40\n  add\n  0x40\n  mstore\n  dup1\n  0x04\n  dup2\n  mstore\n  0x20\n  add\n  0x6e6f6d6500000000000000000000000000000000000000000000000000000000\n  dup2\n  mstore\n  pop\n  swap1\n  swap2\n  swap1\n  swap2\n  pop\n  swap1\n  dup1\n  mload\n  swap1\n  0x20\n  add\n  swap1\n  tag_14\n  swap3\n  swap2\n  swap1\n  tag_15\n  jump\t// in\ntag_14:\n  pop\n    /* \"contracts/lib/referencesCode-eai/011_SessionInterval_byIdRef_refCod.sol\":1453:1460  keys_k1 */\n  0x02\n    /* \"contracts/lib/referencesCode-eai/011_SessionInterval_byIdRef_refCod.sol\":1453:1475  keys_k1.push(\"cidade\") */\n  dup1\n  0x01\n  dup2\n  sload\n  add\n  dup1\n  dup3\n  sstore\n  dup1\n  swap2\n  pop\n  pop\n  0x01\n  swap1\n  sub\n  swap1\n  0x00\n  mstore\n  keccak256(0x00, 0x20)\n  add\n  0x00\n  mload(0x40)\n  dup1\n  0x40\n  add\n  0x40\n  mstore\n  dup1\n  0x06\n  dup2\n  mstore\n  0x20\n  add\n  0x6369646164650000000000000000000000000000000000000000000000000000\n  dup2\n  mstore\n  pop\n  swap1\n  swap2\n  swap1\n  swap2\n  pop\n  swap1\n  dup1\n  mload\n  swap1\n  0x20\n  add\n  swap1\n  tag_17\n  swap3\n  swap2\n  swap1\n  tag_15\n  jump\t// in\ntag_17:\n  pop\n    /* \"contracts/lib/referencesCode-eai/011_SessionInterval_byIdRef_refCod.sol\":1510:1514  true */\n  0x01\n    /* \"contracts/lib/referencesCode-eai/011_SessionInterval_byIdRef_refCod.sol\":1490:1499  exists_k1 */\n  0x04\n    /* \"contracts/lib/referencesCode-eai/011_SessionInterval_byIdRef_refCod.sol\":1490:1507  exists_k1[\"nome\"] */\n  mload(0x40)\n  tag_18\n  swap1\n  tag_19\n  jump\t// in\ntag_18:\n  swap1\n  dup2\n  mstore\n  0x20\n  add\n  mload(0x40)\n  dup1\n  swap2\n  sub\n  swap1\n  keccak256\n  0x00\n    /* \"contracts/lib/referencesCode-eai/011_SessionInterval_byIdRef_refCod.sol\":1490:1514  exists_k1[\"nome\"] = true */\n  0x0100\n  exp\n  dup2\n  sload\n  dup2\n  0xff\n  mul\n  not\n  and\n  swap1\n  dup4\n  iszero\n  iszero\n  mul\n  or\n  swap1\n  sstore\n  pop\n    /* \"contracts/lib/referencesCode-eai/011_SessionInterval_byIdRef_refCod.sol\":1547:1551  true */\n  0x01\n    /* \"contracts/lib/referencesCode-eai/011_SessionInterval_byIdRef_refCod.sol\":1525:1534  exists_k1 */\n  0x04\n    /* \"contracts/lib/referencesCode-eai/011_SessionInterval_byIdRef_refCod.sol\":1525:1544  exists_k1[\"cidade\"] */\n  mload(0x40)\n  tag_20\n  swap1\n  tag_21\n  jump\t// in\ntag_20:\n  swap1\n  dup2\n  mstore\n  0x20\n  add\n  mload(0x40)\n  dup1\n  swap2\n  sub\n  swap1\n  keccak256\n  0x00\n    /* \"contracts/lib/referencesCode-eai/011_SessionInterval_byIdRef_refCod.sol\":1525:1551  exists_k1[\"cidade\"] = true */\n  0x0100\n  exp\n  dup2\n  sload\n  dup2\n  0xff\n  mul\n  not\n  and\n  swap1\n  dup4\n  iszero\n  iszero\n  mul\n  or\n  swap1\n  sstore\n  pop\n    /* \"contracts/lib/referencesCode-eai/011_SessionInterval_byIdRef_refCod.sol\":98:2871  contract SessionInterval_refCod{\r... */\n  jump(tag_22)\n    /* \"contracts/lib/eai/EAI.sol\":20958:21314  function createSessionInteval(uint8 _duration, uint8 _timeUnit)internal pure returns (SessionInterval memory){\r... */\ntag_5:\n    /* \"contracts/lib/eai/EAI.sol\":21044:21066  SessionInterval memory */\n  tag_23\n  tag_24\n  jump\t// in\ntag_23:\n    /* \"contracts/lib/eai/EAI.sol\":21078:21103  uint32 _durationInSeconds */\n  0x00\n    /* \"contracts/lib/eai/EAI.sol\":784:785  4 */\n  0x04\n    /* \"contracts/lib/eai/EAI.sol\":21121:21138  _timeUnit <= WEEK */\n  0xff\n  and\n    /* \"contracts/lib/eai/EAI.sol\":21121:21130  _timeUnit */\n  dup4\n    /* \"contracts/lib/eai/EAI.sol\":21121:21138  _timeUnit <= WEEK */\n  0xff\n  and\n  gt\n    /* \"contracts/lib/eai/EAI.sol\":21118:21229  if(_timeUnit <= WEEK){\r... */\n  tag_26\n  jumpi\n    /* \"contracts/lib/eai/EAI.sol\":21175:21217  getIntervalInSeconds(_duration, _timeUnit) */\n  tag_27\n    /* \"contracts/lib/eai/EAI.sol\":21196:21205  _duration */\n  dup5\n    /* \"contracts/lib/eai/EAI.sol\":21175:21217  getIntervalInSeconds(_duration, _timeUnit) */\n  0xff\n  and\n    /* \"contracts/lib/eai/EAI.sol\":21207:21216  _timeUnit */\n  dup5\n    /* \"contracts/lib/eai/EAI.sol\":21175:21195  getIntervalInSeconds */\n  shl(0x20, tag_28)\n    /* \"contracts/lib/eai/EAI.sol\":21175:21217  getIntervalInSeconds(_duration, _timeUnit) */\n  0x20\n  shr\n  jump\t// in\ntag_27:\n    /* \"contracts/lib/eai/EAI.sol\":21154:21217  _durationInSeconds = getIntervalInSeconds(_duration, _timeUnit) */\n  swap1\n  pop\n    /* \"contracts/lib/eai/EAI.sol\":21118:21229  if(_timeUnit <= WEEK){\r... */\ntag_26:\n    /* \"contracts/lib/eai/EAI.sol\":21246:21306  SessionInterval(_duration, _timeUnit, _durationInSeconds, 0) */\n  mload(0x40)\n  dup1\n  0x80\n  add\n  0x40\n  mstore\n  dup1\n    /* \"contracts/lib/eai/EAI.sol\":21262:21271  _duration */\n  dup6\n    /* \"contracts/lib/eai/EAI.sol\":21246:21306  SessionInterval(_duration, _timeUnit, _durationInSeconds, 0) */\n  0xff\n  and\n  dup2\n  mstore\n  0x20\n  add\n    /* \"contracts/lib/eai/EAI.sol\":21273:21282  _timeUnit */\n  dup5\n    /* \"contracts/lib/eai/EAI.sol\":21246:21306  SessionInterval(_duration, _timeUnit, _durationInSeconds, 0) */\n  0xff\n  and\n  dup2\n  mstore\n  0x20\n  add\n    /* \"contracts/lib/eai/EAI.sol\":21284:21302  _durationInSeconds */\n  dup3\n    /* \"contracts/lib/eai/EAI.sol\":21246:21306  SessionInterval(_duration, _timeUnit, _durationInSeconds, 0) */\n  0xffffffff\n  and\n  dup2\n  mstore\n  0x20\n  add\n    /* \"contracts/lib/eai/EAI.sol\":21304:21305  0 */\n  0x00\n    /* \"contracts/lib/eai/EAI.sol\":21246:21306  SessionInterval(_duration, _timeUnit, _durationInSeconds, 0) */\n  0xffffffff\n  and\n  dup2\n  mstore\n  pop\n    /* \"contracts/lib/eai/EAI.sol\":21239:21306  return SessionInterval(_duration, _timeUnit, _durationInSeconds, 0) */\n  swap2\n  pop\n  pop\n    /* \"contracts/lib/eai/EAI.sol\":20958:21314  function createSessionInteval(uint8 _duration, uint8 _timeUnit)internal pure returns (SessionInterval memory){\r... */\n  swap3\n  swap2\n  pop\n  pop\n  jump\t// out\n    /* \"contracts/lib/eai/EAI.sol\":27240:27452  function getIntervalInSeconds(uint32 _duration, uint8 _timeUnit)internal pure returns(uint32){\r... */\ntag_28:\n    /* \"contracts/lib/eai/EAI.sol\":27326:27332  uint32 */\n  0x00\n    /* \"contracts/lib/eai/EAI.sol\":27343:27367  uint32 timeUnitInSeconds */\n  dup1\n    /* \"contracts/lib/eai/EAI.sol\":27371:27398  getTimeInSeconds(_timeUnit) */\n  tag_30\n    /* \"contracts/lib/eai/EAI.sol\":27388:27397  _timeUnit */\n  dup4\n    /* \"contracts/lib/eai/EAI.sol\":27371:27387  getTimeInSeconds */\n  shl(0x20, tag_31)\n    /* \"contracts/lib/eai/EAI.sol\":27371:27398  getTimeInSeconds(_timeUnit) */\n  0x20\n  shr\n  jump\t// in\ntag_30:\n    /* \"contracts/lib/eai/EAI.sol\":27343:27398  uint32 timeUnitInSeconds =  getTimeInSeconds(_timeUnit) */\n  swap1\n  pop\n    /* \"contracts/lib/eai/EAI.sol\":27427:27444  timeUnitInSeconds */\n  dup1\n    /* \"contracts/lib/eai/EAI.sol\":27415:27424  _duration */\n  dup5\n    /* \"contracts/lib/eai/EAI.sol\":27415:27444  _duration * timeUnitInSeconds */\n  tag_32\n  swap2\n  swap1\n  tag_33\n  jump\t// in\ntag_32:\n    /* \"contracts/lib/eai/EAI.sol\":27408:27444  return _duration * timeUnitInSeconds */\n  swap2\n  pop\n  pop\n    /* \"contracts/lib/eai/EAI.sol\":27240:27452  function getIntervalInSeconds(uint32 _duration, uint8 _timeUnit)internal pure returns(uint32){\r... */\n  swap3\n  swap2\n  pop\n  pop\n  jump\t// out\n    /* \"contracts/lib/eai/EAI.sol\":26675:27224  function getTimeInSeconds(uint8 timeUnit) private pure returns(uint32){\r... */\ntag_31:\n    /* \"contracts/lib/eai/EAI.sol\":26738:26744  uint32 */\n  0x00\n    /* \"contracts/lib/eai/EAI.sol\":784:785  4 */\n  0x04\n    /* \"contracts/lib/eai/EAI.sol\":26818:26834  timeUnit <= WEEK */\n  0xff\n  and\n    /* \"contracts/lib/eai/EAI.sol\":26818:26826  timeUnit */\n  dup3\n    /* \"contracts/lib/eai/EAI.sol\":26818:26834  timeUnit <= WEEK */\n  0xff\n  and\n  gt\n  iszero\n    /* \"contracts/lib/eai/EAI.sol\":26810:26898  require(timeUnit <= WEEK, \"The method getTimeInSeconds doesn't work for MONTH and YEAR\") */\n  tag_35\n  jumpi\n  mload(0x40)\n  0x08c379a000000000000000000000000000000000000000000000000000000000\n  dup2\n  mstore\n  0x04\n  add\n  tag_36\n  swap1\n  tag_37\n  jump\t// in\ntag_36:\n  mload(0x40)\n  dup1\n  swap2\n  sub\n  swap1\n  revert\ntag_35:\n    /* \"contracts/lib/eai/EAI.sol\":666:667  0 */\n  0x00\n    /* \"contracts/lib/eai/EAI.sol\":26914:26932  timeUnit == SECOND */\n  0xff\n  and\n    /* \"contracts/lib/eai/EAI.sol\":26914:26922  timeUnit */\n  dup3\n    /* \"contracts/lib/eai/EAI.sol\":26914:26932  timeUnit == SECOND */\n  0xff\n  and\n  eq\n    /* \"contracts/lib/eai/EAI.sol\":26911:27217  if(timeUnit == SECOND){\r... */\n  iszero\n  tag_38\n  jumpi\n    /* \"contracts/lib/eai/EAI.sol\":26955:26956  1 */\n  0x01\n    /* \"contracts/lib/eai/EAI.sol\":26948:26956  return 1 */\n  swap1\n  pop\n  jump(tag_34)\n    /* \"contracts/lib/eai/EAI.sol\":26911:27217  if(timeUnit == SECOND){\r... */\ntag_38:\n    /* \"contracts/lib/eai/EAI.sol\":698:699  1 */\n  0x01\n    /* \"contracts/lib/eai/EAI.sol\":26976:26994  timeUnit == MINUTE */\n  0xff\n  and\n    /* \"contracts/lib/eai/EAI.sol\":26976:26984  timeUnit */\n  dup3\n    /* \"contracts/lib/eai/EAI.sol\":26976:26994  timeUnit == MINUTE */\n  0xff\n  and\n  eq\n    /* \"contracts/lib/eai/EAI.sol\":26973:27217  if(timeUnit == MINUTE){\r... */\n  iszero\n  tag_40\n  jumpi\n    /* \"contracts/lib/eai/EAI.sol\":27017:27019  60 */\n  0x3c\n    /* \"contracts/lib/eai/EAI.sol\":27010:27019  return 60 */\n  swap1\n  pop\n  jump(tag_34)\n    /* \"contracts/lib/eai/EAI.sol\":26973:27217  if(timeUnit == MINUTE){\r... */\ntag_40:\n    /* \"contracts/lib/eai/EAI.sol\":727:728  2 */\n  0x02\n    /* \"contracts/lib/eai/EAI.sol\":27039:27055  timeUnit == HOUR */\n  0xff\n  and\n    /* \"contracts/lib/eai/EAI.sol\":27039:27047  timeUnit */\n  dup3\n    /* \"contracts/lib/eai/EAI.sol\":27039:27055  timeUnit == HOUR */\n  0xff\n  and\n  eq\n    /* \"contracts/lib/eai/EAI.sol\":27036:27217  if(timeUnit == HOUR ){\r... */\n  iszero\n  tag_42\n  jumpi\n    /* \"contracts/lib/eai/EAI.sol\":27079:27084  60*60 */\n  0x0e10\n    /* \"contracts/lib/eai/EAI.sol\":27072:27084  return 60*60 */\n  swap1\n  pop\n  jump(tag_34)\n    /* \"contracts/lib/eai/EAI.sol\":27036:27217  if(timeUnit == HOUR ){\r... */\ntag_42:\n    /* \"contracts/lib/eai/EAI.sol\":755:756  3 */\n  0x03\n    /* \"contracts/lib/eai/EAI.sol\":27104:27119  timeUnit == DAY */\n  0xff\n  and\n    /* \"contracts/lib/eai/EAI.sol\":27104:27112  timeUnit */\n  dup3\n    /* \"contracts/lib/eai/EAI.sol\":27104:27119  timeUnit == DAY */\n  0xff\n  and\n  eq\n    /* \"contracts/lib/eai/EAI.sol\":27101:27217  if(timeUnit == DAY){\r... */\n  iszero\n  tag_44\n  jumpi\n    /* \"contracts/lib/eai/EAI.sol\":27142:27150  60*60*24 */\n  0x015180\n    /* \"contracts/lib/eai/EAI.sol\":27135:27150  return 60*60*24 */\n  swap1\n  pop\n  jump(tag_34)\n    /* \"contracts/lib/eai/EAI.sol\":27101:27217  if(timeUnit == DAY){\r... */\ntag_44:\n    /* \"contracts/lib/eai/EAI.sol\":27188:27198  60*60*24*7 */\n  0x093a80\n    /* \"contracts/lib/eai/EAI.sol\":27181:27198  return 60*60*24*7 */\n  swap1\n  pop\n    /* \"contracts/lib/eai/EAI.sol\":26675:27224  function getTimeInSeconds(uint8 timeUnit) private pure returns(uint32){\r... */\ntag_34:\n  swap2\n  swap1\n  pop\n  jump\t// out\n    /* \"contracts/lib/referencesCode-eai/011_SessionInterval_byIdRef_refCod.sol\":98:2871  contract SessionInterval_refCod{\r... */\ntag_15:\n  dup3\n  dup1\n  sload\n  tag_46\n  swap1\n  tag_47\n  jump\t// in\ntag_46:\n  swap1\n  0x00\n  mstore\n  keccak256(0x00, 0x20)\n  swap1\n  0x1f\n  add\n  0x20\n  swap1\n  div\n  dup2\n  add\n  swap3\n  dup3\n  tag_49\n  jumpi\n  0x00\n  dup6\n  sstore\n  jump(tag_48)\ntag_49:\n  dup3\n  0x1f\n  lt\n  tag_50\n  jumpi\n  dup1\n  mload\n  not(0xff)\n  and\n  dup4\n  dup1\n  add\n  or\n  dup6\n  sstore\n  jump(tag_48)\ntag_50:\n  dup3\n  dup1\n  add\n  0x01\n  add\n  dup6\n  sstore\n  dup3\n  iszero\n  tag_48\n  jumpi\n  swap2\n  dup3\n  add\ntag_51:\n  dup3\n  dup2\n  gt\n  iszero\n  tag_52\n  jumpi\n  dup3\n  mload\n  dup3\n  sstore\n  swap2\n  0x20\n  add\n  swap2\n  swap1\n  0x01\n  add\n  swap1\n  jump(tag_51)\ntag_52:\ntag_48:\n  pop\n  swap1\n  pop\n  tag_53\n  swap2\n  swap1\n  tag_54\n  jump\t// in\ntag_53:\n  pop\n  swap1\n  jump\t// out\ntag_24:\n  mload(0x40)\n  dup1\n  0x80\n  add\n  0x40\n  mstore\n  dup1\n  and(0xff, 0x00)\n  dup2\n  mstore\n  0x20\n  add\n  and(0xff, 0x00)\n  dup2\n  mstore\n  0x20\n  add\n  and(0xffffffff, 0x00)\n  dup2\n  mstore\n  0x20\n  add\n  and(0xffffffff, 0x00)\n  dup2\n  mstore\n  pop\n  swap1\n  jump\t// out\ntag_54:\ntag_55:\n  dup1\n  dup3\n  gt\n  iszero\n  tag_56\n  jumpi\n  0x00\n  dup2\n  0x00\n  swap1\n  sstore\n  pop\n  0x01\n  add\n  jump(tag_55)\ntag_56:\n  pop\n  swap1\n  jump\t// out\n    /* \"#utility.yul\":7:407   */\ntag_58:\n    /* \"#utility.yul\":167:170   */\n  0x00\n    /* \"#utility.yul\":188:272   */\n  tag_60\n    /* \"#utility.yul\":270:271   */\n  0x04\n    /* \"#utility.yul\":265:268   */\n  dup4\n    /* \"#utility.yul\":188:272   */\n  tag_61\n  jump\t// in\ntag_60:\n    /* \"#utility.yul\":181:272   */\n  swap2\n  pop\n    /* \"#utility.yul\":281:374   */\n  tag_62\n    /* \"#utility.yul\":370:373   */\n  dup3\n    /* \"#utility.yul\":281:374   */\n  tag_63\n  jump\t// in\ntag_62:\n    /* \"#utility.yul\":399:400   */\n  0x04\n    /* \"#utility.yul\":394:397   */\n  dup3\n    /* \"#utility.yul\":390:401   */\n  add\n    /* \"#utility.yul\":383:401   */\n  swap1\n  pop\n    /* \"#utility.yul\":7:407   */\n  swap2\n  swap1\n  pop\n  jump\t// out\n    /* \"#utility.yul\":413:779   */\ntag_64:\n    /* \"#utility.yul\":555:558   */\n  0x00\n    /* \"#utility.yul\":576:643   */\n  tag_66\n    /* \"#utility.yul\":640:642   */\n  0x3b\n    /* \"#utility.yul\":635:638   */\n  dup4\n    /* \"#utility.yul\":576:643   */\n  tag_67\n  jump\t// in\ntag_66:\n    /* \"#utility.yul\":569:643   */\n  swap2\n  pop\n    /* \"#utility.yul\":652:745   */\n  tag_68\n    /* \"#utility.yul\":741:744   */\n  dup3\n    /* \"#utility.yul\":652:745   */\n  tag_69\n  jump\t// in\ntag_68:\n    /* \"#utility.yul\":770:772   */\n  0x40\n    /* \"#utility.yul\":765:768   */\n  dup3\n    /* \"#utility.yul\":761:773   */\n  add\n    /* \"#utility.yul\":754:773   */\n  swap1\n  pop\n    /* \"#utility.yul\":413:779   */\n  swap2\n  swap1\n  pop\n  jump\t// out\n    /* \"#utility.yul\":785:1185   */\ntag_70:\n    /* \"#utility.yul\":945:948   */\n  0x00\n    /* \"#utility.yul\":966:1050   */\n  tag_72\n    /* \"#utility.yul\":1048:1049   */\n  0x06\n    /* \"#utility.yul\":1043:1046   */\n  dup4\n    /* \"#utility.yul\":966:1050   */\n  tag_61\n  jump\t// in\ntag_72:\n    /* \"#utility.yul\":959:1050   */\n  swap2\n  pop\n    /* \"#utility.yul\":1059:1152   */\n  tag_73\n    /* \"#utility.yul\":1148:1151   */\n  dup3\n    /* \"#utility.yul\":1059:1152   */\n  tag_74\n  jump\t// in\ntag_73:\n    /* \"#utility.yul\":1177:1178   */\n  0x06\n    /* \"#utility.yul\":1172:1175   */\n  dup3\n    /* \"#utility.yul\":1168:1179   */\n  add\n    /* \"#utility.yul\":1161:1179   */\n  swap1\n  pop\n    /* \"#utility.yul\":785:1185   */\n  swap2\n  swap1\n  pop\n  jump\t// out\n    /* \"#utility.yul\":1191:1572   */\ntag_19:\n    /* \"#utility.yul\":1376:1379   */\n  0x00\n    /* \"#utility.yul\":1398:1546   */\n  tag_76\n    /* \"#utility.yul\":1542:1545   */\n  dup3\n    /* \"#utility.yul\":1398:1546   */\n  tag_58\n  jump\t// in\ntag_76:\n    /* \"#utility.yul\":1391:1546   */\n  swap2\n  pop\n    /* \"#utility.yul\":1563:1566   */\n  dup2\n    /* \"#utility.yul\":1556:1566   */\n  swap1\n  pop\n    /* \"#utility.yul\":1191:1572   */\n  swap2\n  swap1\n  pop\n  jump\t// out\n    /* \"#utility.yul\":1578:1959   */\ntag_21:\n    /* \"#utility.yul\":1763:1766   */\n  0x00\n    /* \"#utility.yul\":1785:1933   */\n  tag_78\n    /* \"#utility.yul\":1929:1932   */\n  dup3\n    /* \"#utility.yul\":1785:1933   */\n  tag_70\n  jump\t// in\ntag_78:\n    /* \"#utility.yul\":1778:1933   */\n  swap2\n  pop\n    /* \"#utility.yul\":1950:1953   */\n  dup2\n    /* \"#utility.yul\":1943:1953   */\n  swap1\n  pop\n    /* \"#utility.yul\":1578:1959   */\n  swap2\n  swap1\n  pop\n  jump\t// out\n    /* \"#utility.yul\":1965:2384   */\ntag_37:\n    /* \"#utility.yul\":2131:2135   */\n  0x00\n    /* \"#utility.yul\":2169:2171   */\n  0x20\n    /* \"#utility.yul\":2158:2167   */\n  dup3\n    /* \"#utility.yul\":2154:2172   */\n  add\n    /* \"#utility.yul\":2146:2172   */\n  swap1\n  pop\n    /* \"#utility.yul\":2218:2227   */\n  dup2\n    /* \"#utility.yul\":2212:2216   */\n  dup2\n    /* \"#utility.yul\":2208:2228   */\n  sub\n    /* \"#utility.yul\":2204:2205   */\n  0x00\n    /* \"#utility.yul\":2193:2202   */\n  dup4\n    /* \"#utility.yul\":2189:2206   */\n  add\n    /* \"#utility.yul\":2182:2229   */\n  mstore\n    /* \"#utility.yul\":2246:2377   */\n  tag_80\n    /* \"#utility.yul\":2372:2376   */\n  dup2\n    /* \"#utility.yul\":2246:2377   */\n  tag_64\n  jump\t// in\ntag_80:\n    /* \"#utility.yul\":2238:2377   */\n  swap1\n  pop\n    /* \"#utility.yul\":1965:2384   */\n  swap2\n  swap1\n  pop\n  jump\t// out\n    /* \"#utility.yul\":2390:2559   */\ntag_67:\n    /* \"#utility.yul\":2474:2485   */\n  0x00\n    /* \"#utility.yul\":2508:2514   */\n  dup3\n    /* \"#utility.yul\":2503:2506   */\n  dup3\n    /* \"#utility.yul\":2496:2515   */\n  mstore\n    /* \"#utility.yul\":2548:2552   */\n  0x20\n    /* \"#utility.yul\":2543:2546   */\n  dup3\n    /* \"#utility.yul\":2539:2553   */\n  add\n    /* \"#utility.yul\":2524:2553   */\n  swap1\n  pop\n    /* \"#utility.yul\":2390:2559   */\n  swap3\n  swap2\n  pop\n  pop\n  jump\t// out\n    /* \"#utility.yul\":2565:2713   */\ntag_61:\n    /* \"#utility.yul\":2667:2678   */\n  0x00\n    /* \"#utility.yul\":2704:2707   */\n  dup2\n    /* \"#utility.yul\":2689:2707   */\n  swap1\n  pop\n    /* \"#utility.yul\":2565:2713   */\n  swap3\n  swap2\n  pop\n  pop\n  jump\t// out\n    /* \"#utility.yul\":2719:3008   */\ntag_33:\n    /* \"#utility.yul\":2758:2765   */\n  0x00\n    /* \"#utility.yul\":2781:2800   */\n  tag_84\n    /* \"#utility.yul\":2798:2799   */\n  dup3\n    /* \"#utility.yul\":2781:2800   */\n  tag_85\n  jump\t// in\ntag_84:\n    /* \"#utility.yul\":2776:2800   */\n  swap2\n  pop\n    /* \"#utility.yul\":2814:2833   */\n  tag_86\n    /* \"#utility.yul\":2831:2832   */\n  dup4\n    /* \"#utility.yul\":2814:2833   */\n  tag_85\n  jump\t// in\ntag_86:\n    /* \"#utility.yul\":2809:2833   */\n  swap3\n  pop\n    /* \"#utility.yul\":2945:2946   */\n  dup2\n    /* \"#utility.yul\":2933:2943   */\n  0xffffffff\n    /* \"#utility.yul\":2929:2947   */\n  div\n    /* \"#utility.yul\":2926:2927   */\n  dup4\n    /* \"#utility.yul\":2923:2948   */\n  gt\n    /* \"#utility.yul\":2918:2919   */\n  dup3\n    /* \"#utility.yul\":2911:2920   */\n  iszero\n    /* \"#utility.yul\":2904:2921   */\n  iszero\n    /* \"#utility.yul\":2900:2949   */\n  and\n    /* \"#utility.yul\":2897:2972   */\n  iszero\n  tag_87\n  jumpi\n    /* \"#utility.yul\":2952:2970   */\n  tag_88\n  tag_89\n  jump\t// in\ntag_88:\n    /* \"#utility.yul\":2897:2972   */\ntag_87:\n    /* \"#utility.yul\":3000:3001   */\n  dup3\n    /* \"#utility.yul\":2997:2998   */\n  dup3\n    /* \"#utility.yul\":2993:3002   */\n  mul\n    /* \"#utility.yul\":2982:3002   */\n  swap1\n  pop\n    /* \"#utility.yul\":2719:3008   */\n  swap3\n  swap2\n  pop\n  pop\n  jump\t// out\n    /* \"#utility.yul\":3014:3107   */\ntag_85:\n    /* \"#utility.yul\":3050:3057   */\n  0x00\n    /* \"#utility.yul\":3090:3100   */\n  0xffffffff\n    /* \"#utility.yul\":3083:3088   */\n  dup3\n    /* \"#utility.yul\":3079:3101   */\n  and\n    /* \"#utility.yul\":3068:3101   */\n  swap1\n  pop\n    /* \"#utility.yul\":3014:3107   */\n  swap2\n  swap1\n  pop\n  jump\t// out\n    /* \"#utility.yul\":3113:3433   */\ntag_47:\n    /* \"#utility.yul\":3157:3163   */\n  0x00\n    /* \"#utility.yul\":3194:3195   */\n  0x02\n    /* \"#utility.yul\":3188:3192   */\n  dup3\n    /* \"#utility.yul\":3184:3196   */\n  div\n    /* \"#utility.yul\":3174:3196   */\n  swap1\n  pop\n    /* \"#utility.yul\":3241:3242   */\n  0x01\n    /* \"#utility.yul\":3235:3239   */\n  dup3\n    /* \"#utility.yul\":3231:3243   */\n  and\n    /* \"#utility.yul\":3262:3280   */\n  dup1\n    /* \"#utility.yul\":3252:3333   */\n  tag_92\n  jumpi\n    /* \"#utility.yul\":3318:3322   */\n  0x7f\n    /* \"#utility.yul\":3310:3316   */\n  dup3\n    /* \"#utility.yul\":3306:3323   */\n  and\n    /* \"#utility.yul\":3296:3323   */\n  swap2\n  pop\n    /* \"#utility.yul\":3252:3333   */\ntag_92:\n    /* \"#utility.yul\":3380:3382   */\n  0x20\n    /* \"#utility.yul\":3372:3378   */\n  dup3\n    /* \"#utility.yul\":3369:3383   */\n  lt\n    /* \"#utility.yul\":3349:3367   */\n  dup2\n    /* \"#utility.yul\":3346:3384   */\n  eq\n    /* \"#utility.yul\":3343:3427   */\n  iszero\n  tag_93\n  jumpi\n    /* \"#utility.yul\":3399:3417   */\n  tag_94\n  tag_95\n  jump\t// in\ntag_94:\n    /* \"#utility.yul\":3343:3427   */\ntag_93:\n    /* \"#utility.yul\":3164:3433   */\n  pop\n    /* \"#utility.yul\":3113:3433   */\n  swap2\n  swap1\n  pop\n  jump\t// out\n    /* \"#utility.yul\":3439:3619   */\ntag_89:\n    /* \"#utility.yul\":3487:3564   */\n  0x4e487b7100000000000000000000000000000000000000000000000000000000\n    /* \"#utility.yul\":3484:3485   */\n  0x00\n    /* \"#utility.yul\":3477:3565   */\n  mstore\n    /* \"#utility.yul\":3584:3588   */\n  0x11\n    /* \"#utility.yul\":3581:3582   */\n  0x04\n    /* \"#utility.yul\":3574:3589   */\n  mstore\n    /* \"#utility.yul\":3608:3612   */\n  0x24\n    /* \"#utility.yul\":3605:3606   */\n  0x00\n    /* \"#utility.yul\":3598:3613   */\n  revert\n    /* \"#utility.yul\":3625:3805   */\ntag_95:\n    /* \"#utility.yul\":3673:3750   */\n  0x4e487b7100000000000000000000000000000000000000000000000000000000\n    /* \"#utility.yul\":3670:3671   */\n  0x00\n    /* \"#utility.yul\":3663:3751   */\n  mstore\n    /* \"#utility.yul\":3770:3774   */\n  0x22\n    /* \"#utility.yul\":3767:3768   */\n  0x04\n    /* \"#utility.yul\":3760:3775   */\n  mstore\n    /* \"#utility.yul\":3794:3798   */\n  0x24\n    /* \"#utility.yul\":3791:3792   */\n  0x00\n    /* \"#utility.yul\":3784:3799   */\n  revert\n    /* \"#utility.yul\":3811:3965   */\ntag_63:\n    /* \"#utility.yul\":3951:3957   */\n  0x6e6f6d6500000000000000000000000000000000000000000000000000000000\n    /* \"#utility.yul\":3947:3948   */\n  0x00\n    /* \"#utility.yul\":3939:3945   */\n  dup3\n    /* \"#utility.yul\":3935:3949   */\n  add\n    /* \"#utility.yul\":3928:3958   */\n  mstore\n    /* \"#utility.yul\":3811:3965   */\n  pop\n  jump\t// out\n    /* \"#utility.yul\":3971:4217   */\ntag_69:\n    /* \"#utility.yul\":4111:4145   */\n  0x546865206d6574686f642067657454696d65496e5365636f6e647320646f6573\n    /* \"#utility.yul\":4107:4108   */\n  0x00\n    /* \"#utility.yul\":4099:4105   */\n  dup3\n    /* \"#utility.yul\":4095:4109   */\n  add\n    /* \"#utility.yul\":4088:4146   */\n  mstore\n    /* \"#utility.yul\":4180:4209   */\n  0x6e277420776f726b20666f72204d4f4e544820616e6420594541520000000000\n    /* \"#utility.yul\":4175:4177   */\n  0x20\n    /* \"#utility.yul\":4167:4173   */\n  dup3\n    /* \"#utility.yul\":4163:4178   */\n  add\n    /* \"#utility.yul\":4156:4210   */\n  mstore\n    /* \"#utility.yul\":3971:4217   */\n  pop\n  jump\t// out\n    /* \"#utility.yul\":4223:4379   */\ntag_74:\n    /* \"#utility.yul\":4363:4371   */\n  0x6369646164650000000000000000000000000000000000000000000000000000\n    /* \"#utility.yul\":4359:4360   */\n  0x00\n    /* \"#utility.yul\":4351:4357   */\n  dup3\n    /* \"#utility.yul\":4347:4361   */\n  add\n    /* \"#utility.yul\":4340:4372   */\n  mstore\n    /* \"#utility.yul\":4223:4379   */\n  pop\n  jump\t// out\n    /* \"contracts/lib/referencesCode-eai/011_SessionInterval_byIdRef_refCod.sol\":98:2871  contract SessionInterval_refCod{\r... */\ntag_22:\n  dataSize(sub_0)\n  dup1\n  dataOffset(sub_0)\n  0x00\n  codecopy\n  0x00\n  return\nstop\n\nsub_0: assembly {\n        /* \"contracts/lib/referencesCode-eai/011_SessionInterval_byIdRef_refCod.sol\":98:2871  contract SessionInterval_refCod{\r... */\n      mstore(0x40, 0x80)\n      callvalue\n      dup1\n      iszero\n      tag_1\n      jumpi\n      0x00\n      dup1\n      revert\n    tag_1:\n      pop\n      jumpi(tag_2, lt(calldatasize, 0x04))\n      shr(0xe0, calldataload(0x00))\n      dup1\n      0x0a4822c5\n      eq\n      tag_3\n      jumpi\n      dup1\n      0x1daf751d\n      eq\n      tag_4\n      jumpi\n      dup1\n      0x4acdc8c6\n      eq\n      tag_5\n      jumpi\n      dup1\n      0xdfc305de\n      eq\n      tag_6\n      jumpi\n    tag_2:\n      0x00\n      dup1\n      revert\n        /* \"contracts/lib/referencesCode-eai/011_SessionInterval_byIdRef_refCod.sol\":2663:2866  function getAllSessionIntervalByRef() public view returns (string[] memory, string[] memory, EAI.SessionInterval[] memory){\r... */\n    tag_3:\n      tag_7\n      tag_8\n      jump\t// in\n    tag_7:\n      mload(0x40)\n      tag_9\n      swap4\n      swap3\n      swap2\n      swap1\n      tag_10\n      jump\t// in\n    tag_9:\n      mload(0x40)\n      dup1\n      swap2\n      sub\n      swap1\n      return\n        /* \"contracts/lib/referencesCode-eai/011_SessionInterval_byIdRef_refCod.sol\":1652:2152  function startSection(uint _idSingleSession, string memory _k1, string memory _k2, uint32 _accessDateTime) public {\r... */\n    tag_4:\n      tag_11\n      0x04\n      dup1\n      calldatasize\n      sub\n      dup2\n      add\n      swap1\n      tag_12\n      swap2\n      swap1\n      tag_13\n      jump\t// in\n    tag_12:\n      tag_14\n      jump\t// in\n    tag_11:\n      stop\n        /* \"contracts/lib/referencesCode-eai/011_SessionInterval_byIdRef_refCod.sol\":2237:2481  function isTheSessionIdOpen(string memory _k1, string memory _k2, uint32 _accessDateTime) public view returns(string memory) {                                           \r... */\n    tag_5:\n      tag_15\n      0x04\n      dup1\n      calldatasize\n      sub\n      dup2\n      add\n      swap1\n      tag_16\n      swap2\n      swap1\n      tag_17\n      jump\t// in\n    tag_16:\n      tag_18\n      jump\t// in\n    tag_15:\n      mload(0x40)\n      tag_19\n      swap2\n      swap1\n      tag_20\n      jump\t// in\n    tag_19:\n      mload(0x40)\n      dup1\n      swap2\n      sub\n      swap1\n      return\n        /* \"contracts/lib/referencesCode-eai/011_SessionInterval_byIdRef_refCod.sol\":2489:2655  function getSessionIntervalById(string memory _k1, string memory _k2) public view returns (EAI.SessionInterval memory){\r... */\n    tag_6:\n      tag_21\n      0x04\n      dup1\n      calldatasize\n      sub\n      dup2\n      add\n      swap1\n      tag_22\n      swap2\n      swap1\n      tag_23\n      jump\t// in\n    tag_22:\n      tag_24\n      jump\t// in\n    tag_21:\n      mload(0x40)\n      tag_25\n      swap2\n      swap1\n      tag_26\n      jump\t// in\n    tag_25:\n      mload(0x40)\n      dup1\n      swap2\n      sub\n      swap1\n      return\n        /* \"contracts/lib/referencesCode-eai/011_SessionInterval_byIdRef_refCod.sol\":2663:2866  function getAllSessionIntervalByRef() public view returns (string[] memory, string[] memory, EAI.SessionInterval[] memory){\r... */\n    tag_8:\n        /* \"contracts/lib/referencesCode-eai/011_SessionInterval_byIdRef_refCod.sol\":2722:2737  string[] memory */\n      0x60\n        /* \"contracts/lib/referencesCode-eai/011_SessionInterval_byIdRef_refCod.sol\":2739:2754  string[] memory */\n      dup1\n        /* \"contracts/lib/referencesCode-eai/011_SessionInterval_byIdRef_refCod.sol\":2756:2784  EAI.SessionInterval[] memory */\n      0x60\n        /* \"contracts/lib/referencesCode-eai/011_SessionInterval_byIdRef_refCod.sol\":2824:2831  keys_k1 */\n      0x02\n        /* \"contracts/lib/referencesCode-eai/011_SessionInterval_byIdRef_refCod.sol\":2833:2840  keys_k2 */\n      0x03\n        /* \"contracts/lib/referencesCode-eai/011_SessionInterval_byIdRef_refCod.sol\":2842:2857  sessionInterval */\n      0x00\n        /* \"contracts/lib/referencesCode-eai/011_SessionInterval_byIdRef_refCod.sol\":2816:2858  return (keys_k1, keys_k2, sessionInterval) */\n      dup3\n      dup1\n      sload\n      dup1\n      0x20\n      mul\n      0x20\n      add\n      mload(0x40)\n      swap1\n      dup2\n      add\n      0x40\n      mstore\n      dup1\n      swap3\n      swap2\n      swap1\n      dup2\n      dup2\n      mstore\n      0x20\n      add\n      0x00\n      swap1\n    tag_29:\n      dup3\n      dup3\n      lt\n      iszero\n      tag_30\n      jumpi\n      dup4\n      dup3\n      swap1\n      0x00\n      mstore\n      keccak256(0x00, 0x20)\n      add\n      dup1\n      sload\n      tag_32\n      swap1\n      tag_33\n      jump\t// in\n    tag_32:\n      dup1\n      0x1f\n      add\n      0x20\n      dup1\n      swap2\n      div\n      mul\n      0x20\n      add\n      mload(0x40)\n      swap1\n      dup2\n      add\n      0x40\n      mstore\n      dup1\n      swap3\n      swap2\n      swap1\n      dup2\n      dup2\n      mstore\n      0x20\n      add\n      dup3\n      dup1\n      sload\n      tag_34\n      swap1\n      tag_33\n      jump\t// in\n    tag_34:\n      dup1\n      iszero\n      tag_35\n      jumpi\n      dup1\n      0x1f\n      lt\n      tag_36\n      jumpi\n      0x0100\n      dup1\n      dup4\n      sload\n      div\n      mul\n      dup4\n      mstore\n      swap2\n      0x20\n      add\n      swap2\n      jump(tag_35)\n    tag_36:\n      dup3\n      add\n      swap2\n      swap1\n      0x00\n      mstore\n      keccak256(0x00, 0x20)\n      swap1\n    tag_37:\n      dup2\n      sload\n      dup2\n      mstore\n      swap1\n      0x01\n      add\n      swap1\n      0x20\n      add\n      dup1\n      dup4\n      gt\n      tag_37\n      jumpi\n      dup3\n      swap1\n      sub\n      0x1f\n      and\n      dup3\n      add\n      swap2\n    tag_35:\n      pop\n      pop\n      pop\n      pop\n      pop\n      dup2\n      mstore\n      0x20\n      add\n      swap1\n      0x01\n      add\n      swap1\n      jump(tag_29)\n    tag_30:\n      pop\n      pop\n      pop\n      pop\n      swap3\n      pop\n      dup2\n      dup1\n      sload\n      dup1\n      0x20\n      mul\n      0x20\n      add\n      mload(0x40)\n      swap1\n      dup2\n      add\n      0x40\n      mstore\n      dup1\n      swap3\n      swap2\n      swap1\n      dup2\n      dup2\n      mstore\n      0x20\n      add\n      0x00\n      swap1\n    tag_38:\n      dup3\n      dup3\n      lt\n      iszero\n      tag_39\n      jumpi\n      dup4\n      dup3\n      swap1\n      0x00\n      mstore\n      keccak256(0x00, 0x20)\n      add\n      dup1\n      sload\n      tag_41\n      swap1\n      tag_33\n      jump\t// in\n    tag_41:\n      dup1\n      0x1f\n      add\n      0x20\n      dup1\n      swap2\n      div\n      mul\n      0x20\n      add\n      mload(0x40)\n      swap1\n      dup2\n      add\n      0x40\n      mstore\n      dup1\n      swap3\n      swap2\n      swap1\n      dup2\n      dup2\n      mstore\n      0x20\n      add\n      dup3\n      dup1\n      sload\n      tag_42\n      swap1\n      tag_33\n      jump\t// in\n    tag_42:\n      dup1\n      iszero\n      tag_43\n      jumpi\n      dup1\n      0x1f\n      lt\n      tag_44\n      jumpi\n      0x0100\n      dup1\n      dup4\n      sload\n      div\n      mul\n      dup4\n      mstore\n      swap2\n      0x20\n      add\n      swap2\n      jump(tag_43)\n    tag_44:\n      dup3\n      add\n      swap2\n      swap1\n      0x00\n      mstore\n      keccak256(0x00, 0x20)\n      swap1\n    tag_45:\n      dup2\n      sload\n      dup2\n      mstore\n      swap1\n      0x01\n      add\n      swap1\n      0x20\n      add\n      dup1\n      dup4\n      gt\n      tag_45\n      jumpi\n      dup3\n      swap1\n      sub\n      0x1f\n      and\n      dup3\n      add\n      swap2\n    tag_43:\n      pop\n      pop\n      pop\n      pop\n      pop\n      dup2\n      mstore\n      0x20\n      add\n      swap1\n      0x01\n      add\n      swap1\n      jump(tag_38)\n    tag_39:\n      pop\n      pop\n      pop\n      pop\n      swap2\n      pop\n      dup1\n      dup1\n      sload\n      dup1\n      0x20\n      mul\n      0x20\n      add\n      mload(0x40)\n      swap1\n      dup2\n      add\n      0x40\n      mstore\n      dup1\n      swap3\n      swap2\n      swap1\n      dup2\n      dup2\n      mstore\n      0x20\n      add\n      0x00\n      swap1\n    tag_46:\n      dup3\n      dup3\n      lt\n      iszero\n      tag_47\n      jumpi\n      dup4\n      dup3\n      swap1\n      0x00\n      mstore\n      keccak256(0x00, 0x20)\n      add\n      mload(0x40)\n      dup1\n      0x80\n      add\n      0x40\n      mstore\n      swap1\n      dup2\n      0x00\n      dup3\n      add\n      0x00\n      swap1\n      sload\n      swap1\n      0x0100\n      exp\n      swap1\n      div\n      0xff\n      and\n      0xff\n      and\n      0xff\n      and\n      dup2\n      mstore\n      0x20\n      add\n      0x00\n      dup3\n      add\n      0x01\n      swap1\n      sload\n      swap1\n      0x0100\n      exp\n      swap1\n      div\n      0xff\n      and\n      0xff\n      and\n      0xff\n      and\n      dup2\n      mstore\n      0x20\n      add\n      0x00\n      dup3\n      add\n      0x02\n      swap1\n      sload\n      swap1\n      0x0100\n      exp\n      swap1\n      div\n      0xffffffff\n      and\n      0xffffffff\n      and\n      0xffffffff\n      and\n      dup2\n      mstore\n      0x20\n      add\n      0x00\n      dup3\n      add\n      0x06\n      swap1\n      sload\n      swap1\n      0x0100\n      exp\n      swap1\n      div\n      0xffffffff\n      and\n      0xffffffff\n      and\n      0xffffffff\n      and\n      dup2\n      mstore\n      pop\n      pop\n      dup2\n      mstore\n      0x20\n      add\n      swap1\n      0x01\n      add\n      swap1\n      jump(tag_46)\n    tag_47:\n      pop\n      pop\n      pop\n      pop\n      swap1\n      pop\n      swap3\n      pop\n      swap3\n      pop\n      swap3\n      pop\n        /* \"contracts/lib/referencesCode-eai/011_SessionInterval_byIdRef_refCod.sol\":2663:2866  function getAllSessionIntervalByRef() public view returns (string[] memory, string[] memory, EAI.SessionInterval[] memory){\r... */\n      swap1\n      swap2\n      swap3\n      jump\t// out\n        /* \"contracts/lib/referencesCode-eai/011_SessionInterval_byIdRef_refCod.sol\":1652:2152  function startSection(uint _idSingleSession, string memory _k1, string memory _k2, uint32 _accessDateTime) public {\r... */\n    tag_14:\n        /* \"contracts/lib/referencesCode-eai/011_SessionInterval_byIdRef_refCod.sol\":1804:1813  exists_k1 */\n      0x04\n        /* \"contracts/lib/referencesCode-eai/011_SessionInterval_byIdRef_refCod.sol\":1814:1817  _k1 */\n      dup4\n        /* \"contracts/lib/referencesCode-eai/011_SessionInterval_byIdRef_refCod.sol\":1804:1818  exists_k1[_k1] */\n      mload(0x40)\n      tag_50\n      swap2\n      swap1\n      tag_51\n      jump\t// in\n    tag_50:\n      swap1\n      dup2\n      mstore\n      0x20\n      add\n      mload(0x40)\n      dup1\n      swap2\n      sub\n      swap1\n      keccak256\n      0x00\n      swap1\n      sload\n      swap1\n      0x0100\n      exp\n      swap1\n      div\n      0xff\n      and\n        /* \"contracts/lib/referencesCode-eai/011_SessionInterval_byIdRef_refCod.sol\":1855:1858  _k1 */\n      dup4\n        /* \"contracts/lib/referencesCode-eai/011_SessionInterval_byIdRef_refCod.sol\":1827:1876  abi.encodePacked(\"The key \",_k1,\"doesn't exist.\") */\n      add(0x20, mload(0x40))\n      tag_52\n      swap2\n      swap1\n      tag_53\n      jump\t// in\n    tag_52:\n      mload(0x40)\n      0x20\n      dup2\n      dup4\n      sub\n      sub\n      dup2\n      mstore\n      swap1\n      0x40\n      mstore\n        /* \"contracts/lib/referencesCode-eai/011_SessionInterval_byIdRef_refCod.sol\":1796:1878  require(exists_k1[_k1], string(abi.encodePacked(\"The key \",_k1,\"doesn't exist.\"))) */\n      swap1\n      tag_54\n      jumpi\n      mload(0x40)\n      0x08c379a000000000000000000000000000000000000000000000000000000000\n      dup2\n      mstore\n      0x04\n      add\n      tag_55\n      swap2\n      swap1\n      tag_20\n      jump\t// in\n    tag_55:\n      mload(0x40)\n      dup1\n      swap2\n      sub\n      swap1\n      revert\n    tag_54:\n      pop\n        /* \"contracts/lib/referencesCode-eai/011_SessionInterval_byIdRef_refCod.sol\":1893:1902  exists_k2 */\n      0x05\n        /* \"contracts/lib/referencesCode-eai/011_SessionInterval_byIdRef_refCod.sol\":1903:1906  _k2 */\n      dup3\n        /* \"contracts/lib/referencesCode-eai/011_SessionInterval_byIdRef_refCod.sol\":1893:1907  exists_k2[_k2] */\n      mload(0x40)\n      tag_56\n      swap2\n      swap1\n      tag_51\n      jump\t// in\n    tag_56:\n      swap1\n      dup2\n      mstore\n      0x20\n      add\n      mload(0x40)\n      dup1\n      swap2\n      sub\n      swap1\n      keccak256\n      0x00\n      swap1\n      sload\n      swap1\n      0x0100\n      exp\n      swap1\n      div\n      0xff\n      and\n        /* \"contracts/lib/referencesCode-eai/011_SessionInterval_byIdRef_refCod.sol\":1889:2061  if(!exists_k2[_k2]){\r... */\n      tag_57\n      jumpi\n        /* \"contracts/lib/referencesCode-eai/011_SessionInterval_byIdRef_refCod.sol\":1940:1944  true */\n      0x01\n        /* \"contracts/lib/referencesCode-eai/011_SessionInterval_byIdRef_refCod.sol\":1923:1932  exists_k2 */\n      0x05\n        /* \"contracts/lib/referencesCode-eai/011_SessionInterval_byIdRef_refCod.sol\":1933:1936  _k2 */\n      dup4\n        /* \"contracts/lib/referencesCode-eai/011_SessionInterval_byIdRef_refCod.sol\":1923:1937  exists_k2[_k2] */\n      mload(0x40)\n      tag_58\n      swap2\n      swap1\n      tag_51\n      jump\t// in\n    tag_58:\n      swap1\n      dup2\n      mstore\n      0x20\n      add\n      mload(0x40)\n      dup1\n      swap2\n      sub\n      swap1\n      keccak256\n      0x00\n        /* \"contracts/lib/referencesCode-eai/011_SessionInterval_byIdRef_refCod.sol\":1923:1944  exists_k2[_k2] = true */\n      0x0100\n      exp\n      dup2\n      sload\n      dup2\n      0xff\n      mul\n      not\n      and\n      swap1\n      dup4\n      iszero\n      iszero\n      mul\n      or\n      swap1\n      sstore\n      pop\n        /* \"contracts/lib/referencesCode-eai/011_SessionInterval_byIdRef_refCod.sol\":1959:1966  keys_k2 */\n      0x03\n        /* \"contracts/lib/referencesCode-eai/011_SessionInterval_byIdRef_refCod.sol\":1972:1975  _k2 */\n      dup3\n        /* \"contracts/lib/referencesCode-eai/011_SessionInterval_byIdRef_refCod.sol\":1959:1976  keys_k2.push(_k2) */\n      swap1\n      dup1\n      0x01\n      dup2\n      sload\n      add\n      dup1\n      dup3\n      sstore\n      dup1\n      swap2\n      pop\n      pop\n      0x01\n      swap1\n      sub\n      swap1\n      0x00\n      mstore\n      keccak256(0x00, 0x20)\n      add\n      0x00\n      swap1\n      swap2\n      swap1\n      swap2\n      swap1\n      swap2\n      pop\n      swap1\n      dup1\n      mload\n      swap1\n      0x20\n      add\n      swap1\n      tag_60\n      swap3\n      swap2\n      swap1\n      tag_61\n      jump\t// in\n    tag_60:\n      pop\n        /* \"contracts/lib/referencesCode-eai/011_SessionInterval_byIdRef_refCod.sol\":2016:2031  sessionInterval */\n      0x00\n        /* \"contracts/lib/referencesCode-eai/011_SessionInterval_byIdRef_refCod.sol\":2032:2048  _idSingleSession */\n      dup5\n        /* \"contracts/lib/referencesCode-eai/011_SessionInterval_byIdRef_refCod.sol\":2016:2049  sessionInterval[_idSingleSession] */\n      dup2\n      sload\n      dup2\n      lt\n      tag_62\n      jumpi\n      tag_63\n      tag_64\n      jump\t// in\n    tag_63:\n    tag_62:\n      swap1\n      0x00\n      mstore\n      keccak256(0x00, 0x20)\n      add\n        /* \"contracts/lib/referencesCode-eai/011_SessionInterval_byIdRef_refCod.sol\":1991:2003  sessionByVar */\n      0x01\n        /* \"contracts/lib/referencesCode-eai/011_SessionInterval_byIdRef_refCod.sol\":2004:2007  _k1 */\n      dup5\n        /* \"contracts/lib/referencesCode-eai/011_SessionInterval_byIdRef_refCod.sol\":1991:2008  sessionByVar[_k1] */\n      mload(0x40)\n      tag_66\n      swap2\n      swap1\n      tag_51\n      jump\t// in\n    tag_66:\n      swap1\n      dup2\n      mstore\n      0x20\n      add\n      mload(0x40)\n      dup1\n      swap2\n      sub\n      swap1\n      keccak256\n        /* \"contracts/lib/referencesCode-eai/011_SessionInterval_byIdRef_refCod.sol\":2009:2012  _k2 */\n      dup4\n        /* \"contracts/lib/referencesCode-eai/011_SessionInterval_byIdRef_refCod.sol\":1991:2013  sessionByVar[_k1][_k2] */\n      mload(0x40)\n      tag_67\n      swap2\n      swap1\n      tag_51\n      jump\t// in\n    tag_67:\n      swap1\n      dup2\n      mstore\n      0x20\n      add\n      mload(0x40)\n      dup1\n      swap2\n      sub\n      swap1\n      keccak256\n        /* \"contracts/lib/referencesCode-eai/011_SessionInterval_byIdRef_refCod.sol\":1991:2049  sessionByVar[_k1][_k2] = sessionInterval[_idSingleSession] */\n      0x00\n      dup3\n      add\n      0x00\n      swap1\n      sload\n      swap1\n      0x0100\n      exp\n      swap1\n      div\n      0xff\n      and\n      dup2\n      0x00\n      add\n      exp(0x0100, 0x00)\n      dup2\n      sload\n      dup2\n      0xff\n      mul\n      not\n      and\n      swap1\n      dup4\n      0xff\n      and\n      mul\n      or\n      swap1\n      sstore\n      pop\n      0x00\n      dup3\n      add\n      0x01\n      swap1\n      sload\n      swap1\n      0x0100\n      exp\n      swap1\n      div\n      0xff\n      and\n      dup2\n      0x00\n      add\n      exp(0x0100, 0x01)\n      dup2\n      sload\n      dup2\n      0xff\n      mul\n      not\n      and\n      swap1\n      dup4\n      0xff\n      and\n      mul\n      or\n      swap1\n      sstore\n      pop\n      0x00\n      dup3\n      add\n      0x02\n      swap1\n      sload\n      swap1\n      0x0100\n      exp\n      swap1\n      div\n      0xffffffff\n      and\n      dup2\n      0x00\n      add\n      exp(0x0100, 0x02)\n      dup2\n      sload\n      dup2\n      0xffffffff\n      mul\n      not\n      and\n      swap1\n      dup4\n      0xffffffff\n      and\n      mul\n      or\n      swap1\n      sstore\n      pop\n      0x00\n      dup3\n      add\n      0x06\n      swap1\n      sload\n      swap1\n      0x0100\n      exp\n      swap1\n      div\n      0xffffffff\n      and\n      dup2\n      0x00\n      add\n      exp(0x0100, 0x06)\n      dup2\n      sload\n      dup2\n      0xffffffff\n      mul\n      not\n      and\n      swap1\n      dup4\n      0xffffffff\n      and\n      mul\n      or\n      swap1\n      sstore\n      pop\n      swap1\n      pop\n      pop\n        /* \"contracts/lib/referencesCode-eai/011_SessionInterval_byIdRef_refCod.sol\":1889:2061  if(!exists_k2[_k2]){\r... */\n    tag_57:\n        /* \"contracts/lib/referencesCode-eai/011_SessionInterval_byIdRef_refCod.sol\":2081:2144  sessionByVar[_k1][_k2].startNewSessionInterval(_accessDateTime) */\n      tag_68\n        /* \"contracts/lib/referencesCode-eai/011_SessionInterval_byIdRef_refCod.sol\":2128:2143  _accessDateTime */\n      dup2\n        /* \"contracts/lib/referencesCode-eai/011_SessionInterval_byIdRef_refCod.sol\":2081:2093  sessionByVar */\n      0x01\n        /* \"contracts/lib/referencesCode-eai/011_SessionInterval_byIdRef_refCod.sol\":2094:2097  _k1 */\n      dup6\n        /* \"contracts/lib/referencesCode-eai/011_SessionInterval_byIdRef_refCod.sol\":2081:2098  sessionByVar[_k1] */\n      mload(0x40)\n      tag_69\n      swap2\n      swap1\n      tag_51\n      jump\t// in\n    tag_69:\n      swap1\n      dup2\n      mstore\n      0x20\n      add\n      mload(0x40)\n      dup1\n      swap2\n      sub\n      swap1\n      keccak256\n        /* \"contracts/lib/referencesCode-eai/011_SessionInterval_byIdRef_refCod.sol\":2099:2102  _k2 */\n      dup5\n        /* \"contracts/lib/referencesCode-eai/011_SessionInterval_byIdRef_refCod.sol\":2081:2103  sessionByVar[_k1][_k2] */\n      mload(0x40)\n      tag_70\n      swap2\n      swap1\n      tag_51\n      jump\t// in\n    tag_70:\n      swap1\n      dup2\n      mstore\n      0x20\n      add\n      mload(0x40)\n      dup1\n      swap2\n      sub\n      swap1\n      keccak256\n        /* \"contracts/lib/referencesCode-eai/011_SessionInterval_byIdRef_refCod.sol\":2081:2127  sessionByVar[_k1][_k2].startNewSessionInterval */\n      tag_71\n      swap1\n        /* \"contracts/lib/referencesCode-eai/011_SessionInterval_byIdRef_refCod.sol\":2081:2144  sessionByVar[_k1][_k2].startNewSessionInterval(_accessDateTime) */\n      swap2\n      swap1\n      0xffffffff\n      and\n      jump\t// in\n    tag_68:\n        /* \"contracts/lib/referencesCode-eai/011_SessionInterval_byIdRef_refCod.sol\":1652:2152  function startSection(uint _idSingleSession, string memory _k1, string memory _k2, uint32 _accessDateTime) public {\r... */\n      pop\n      pop\n      pop\n      pop\n      jump\t// out\n        /* \"contracts/lib/referencesCode-eai/011_SessionInterval_byIdRef_refCod.sol\":2237:2481  function isTheSessionIdOpen(string memory _k1, string memory _k2, uint32 _accessDateTime) public view returns(string memory) {                                           \r... */\n    tag_18:\n        /* \"contracts/lib/referencesCode-eai/011_SessionInterval_byIdRef_refCod.sol\":2347:2360  string memory */\n      0x60\n        /* \"contracts/lib/referencesCode-eai/011_SessionInterval_byIdRef_refCod.sol\":2425:2473  sessionByVar[_k1][_k2].isItOpen(_accessDateTime) */\n      tag_73\n        /* \"contracts/lib/referencesCode-eai/011_SessionInterval_byIdRef_refCod.sol\":2457:2472  _accessDateTime */\n      dup3\n        /* \"contracts/lib/referencesCode-eai/011_SessionInterval_byIdRef_refCod.sol\":2425:2437  sessionByVar */\n      0x01\n        /* \"contracts/lib/referencesCode-eai/011_SessionInterval_byIdRef_refCod.sol\":2438:2441  _k1 */\n      dup7\n        /* \"contracts/lib/referencesCode-eai/011_SessionInterval_byIdRef_refCod.sol\":2425:2442  sessionByVar[_k1] */\n      mload(0x40)\n      tag_74\n      swap2\n      swap1\n      tag_51\n      jump\t// in\n    tag_74:\n      swap1\n      dup2\n      mstore\n      0x20\n      add\n      mload(0x40)\n      dup1\n      swap2\n      sub\n      swap1\n      keccak256\n        /* \"contracts/lib/referencesCode-eai/011_SessionInterval_byIdRef_refCod.sol\":2443:2446  _k2 */\n      dup6\n        /* \"contracts/lib/referencesCode-eai/011_SessionInterval_byIdRef_refCod.sol\":2425:2447  sessionByVar[_k1][_k2] */\n      mload(0x40)\n      tag_75\n      swap2\n      swap1\n      tag_51\n      jump\t// in\n    tag_75:\n      swap1\n      dup2\n      mstore\n      0x20\n      add\n      mload(0x40)\n      dup1\n      swap2\n      sub\n      swap1\n      keccak256\n        /* \"contracts/lib/referencesCode-eai/011_SessionInterval_byIdRef_refCod.sol\":2425:2456  sessionByVar[_k1][_k2].isItOpen */\n      mload(0x40)\n      dup1\n      0x80\n      add\n      0x40\n      mstore\n      swap1\n      dup2\n      0x00\n      dup3\n      add\n      0x00\n      swap1\n      sload\n      swap1\n      0x0100\n      exp\n      swap1\n      div\n      0xff\n      and\n      0xff\n      and\n      0xff\n      and\n      dup2\n      mstore\n      0x20\n      add\n      0x00\n      dup3\n      add\n      0x01\n      swap1\n      sload\n      swap1\n      0x0100\n      exp\n      swap1\n      div\n      0xff\n      and\n      0xff\n      and\n      0xff\n      and\n      dup2\n      mstore\n      0x20\n      add\n      0x00\n      dup3\n      add\n      0x02\n      swap1\n      sload\n      swap1\n      0x0100\n      exp\n      swap1\n      div\n      0xffffffff\n      and\n      0xffffffff\n      and\n      0xffffffff\n      and\n      dup2\n      mstore\n      0x20\n      add\n      0x00\n      dup3\n      add\n      0x06\n      swap1\n      sload\n      swap1\n      0x0100\n      exp\n      swap1\n      div\n      0xffffffff\n      and\n      0xffffffff\n      and\n      0xffffffff\n      and\n      dup2\n      mstore\n      pop\n      pop\n      tag_76\n      swap1\n        /* \"contracts/lib/referencesCode-eai/011_SessionInterval_byIdRef_refCod.sol\":2425:2473  sessionByVar[_k1][_k2].isItOpen(_accessDateTime) */\n      swap2\n      swap1\n      0xffffffff\n      and\n      jump\t// in\n    tag_73:\n        /* \"contracts/lib/referencesCode-eai/011_SessionInterval_byIdRef_refCod.sol\":2416:2473  return   sessionByVar[_k1][_k2].isItOpen(_accessDateTime) */\n      swap1\n      pop\n        /* \"contracts/lib/referencesCode-eai/011_SessionInterval_byIdRef_refCod.sol\":2237:2481  function isTheSessionIdOpen(string memory _k1, string memory _k2, uint32 _accessDateTime) public view returns(string memory) {                                           \r... */\n      swap4\n      swap3\n      pop\n      pop\n      pop\n      jump\t// out\n        /* \"contracts/lib/referencesCode-eai/011_SessionInterval_byIdRef_refCod.sol\":2489:2655  function getSessionIntervalById(string memory _k1, string memory _k2) public view returns (EAI.SessionInterval memory){\r... */\n    tag_24:\n        /* \"contracts/lib/referencesCode-eai/011_SessionInterval_byIdRef_refCod.sol\":2580:2606  EAI.SessionInterval memory */\n      tag_77\n      tag_78\n      jump\t// in\n    tag_77:\n        /* \"contracts/lib/referencesCode-eai/011_SessionInterval_byIdRef_refCod.sol\":2625:2637  sessionByVar */\n      0x01\n        /* \"contracts/lib/referencesCode-eai/011_SessionInterval_byIdRef_refCod.sol\":2638:2641  _k1 */\n      dup4\n        /* \"contracts/lib/referencesCode-eai/011_SessionInterval_byIdRef_refCod.sol\":2625:2642  sessionByVar[_k1] */\n      mload(0x40)\n      tag_80\n      swap2\n      swap1\n      tag_51\n      jump\t// in\n    tag_80:\n      swap1\n      dup2\n      mstore\n      0x20\n      add\n      mload(0x40)\n      dup1\n      swap2\n      sub\n      swap1\n      keccak256\n        /* \"contracts/lib/referencesCode-eai/011_SessionInterval_byIdRef_refCod.sol\":2643:2646  _k2 */\n      dup3\n        /* \"contracts/lib/referencesCode-eai/011_SessionInterval_byIdRef_refCod.sol\":2625:2647  sessionByVar[_k1][_k2] */\n      mload(0x40)\n      tag_81\n      swap2\n      swap1\n      tag_51\n      jump\t// in\n    tag_81:\n      swap1\n      dup2\n      mstore\n      0x20\n      add\n      mload(0x40)\n      dup1\n      swap2\n      sub\n      swap1\n      keccak256\n        /* \"contracts/lib/referencesCode-eai/011_SessionInterval_byIdRef_refCod.sol\":2618:2647  return sessionByVar[_k1][_k2] */\n      mload(0x40)\n      dup1\n      0x80\n      add\n      0x40\n      mstore\n      swap1\n      dup2\n      0x00\n      dup3\n      add\n      0x00\n      swap1\n      sload\n      swap1\n      0x0100\n      exp\n      swap1\n      div\n      0xff\n      and\n      0xff\n      and\n      0xff\n      and\n      dup2\n      mstore\n      0x20\n      add\n      0x00\n      dup3\n      add\n      0x01\n      swap1\n      sload\n      swap1\n      0x0100\n      exp\n      swap1\n      div\n      0xff\n      and\n      0xff\n      and\n      0xff\n      and\n      dup2\n      mstore\n      0x20\n      add\n      0x00\n      dup3\n      add\n      0x02\n      swap1\n      sload\n      swap1\n      0x0100\n      exp\n      swap1\n      div\n      0xffffffff\n      and\n      0xffffffff\n      and\n      0xffffffff\n      and\n      dup2\n      mstore\n      0x20\n      add\n      0x00\n      dup3\n      add\n      0x06\n      swap1\n      sload\n      swap1\n      0x0100\n      exp\n      swap1\n      div\n      0xffffffff\n      and\n      0xffffffff\n      and\n      0xffffffff\n      and\n      dup2\n      mstore\n      pop\n      pop\n      swap1\n      pop\n        /* \"contracts/lib/referencesCode-eai/011_SessionInterval_byIdRef_refCod.sol\":2489:2655  function getSessionIntervalById(string memory _k1, string memory _k2) public view returns (EAI.SessionInterval memory){\r... */\n      swap3\n      swap2\n      pop\n      pop\n      jump\t// out\n        /* \"contracts/lib/eai/EAI.sol\":20958:21314  function createSessionInteval(uint8 _duration, uint8 _timeUnit)internal pure returns (SessionInterval memory){\r... */\n    tag_27:\n        /* \"contracts/lib/eai/EAI.sol\":21044:21066  SessionInterval memory */\n      tag_82\n      tag_78\n      jump\t// in\n    tag_82:\n        /* \"contracts/lib/eai/EAI.sol\":21078:21103  uint32 _durationInSeconds */\n      0x00\n        /* \"contracts/lib/eai/EAI.sol\":784:785  4 */\n      0x04\n        /* \"contracts/lib/eai/EAI.sol\":21121:21138  _timeUnit <= WEEK */\n      0xff\n      and\n        /* \"contracts/lib/eai/EAI.sol\":21121:21130  _timeUnit */\n      dup4\n        /* \"contracts/lib/eai/EAI.sol\":21121:21138  _timeUnit <= WEEK */\n      0xff\n      and\n      gt\n        /* \"contracts/lib/eai/EAI.sol\":21118:21229  if(_timeUnit <= WEEK){\r... */\n      tag_84\n      jumpi\n        /* \"contracts/lib/eai/EAI.sol\":21175:21217  getIntervalInSeconds(_duration, _timeUnit) */\n      tag_85\n        /* \"contracts/lib/eai/EAI.sol\":21196:21205  _duration */\n      dup5\n        /* \"contracts/lib/eai/EAI.sol\":21175:21217  getIntervalInSeconds(_duration, _timeUnit) */\n      0xff\n      and\n        /* \"contracts/lib/eai/EAI.sol\":21207:21216  _timeUnit */\n      dup5\n        /* \"contracts/lib/eai/EAI.sol\":21175:21195  getIntervalInSeconds */\n      tag_86\n        /* \"contracts/lib/eai/EAI.sol\":21175:21217  getIntervalInSeconds(_duration, _timeUnit) */\n      jump\t// in\n    tag_85:\n        /* \"contracts/lib/eai/EAI.sol\":21154:21217  _durationInSeconds = getIntervalInSeconds(_duration, _timeUnit) */\n      swap1\n      pop\n        /* \"contracts/lib/eai/EAI.sol\":21118:21229  if(_timeUnit <= WEEK){\r... */\n    tag_84:\n        /* \"contracts/lib/eai/EAI.sol\":21246:21306  SessionInterval(_duration, _timeUnit, _durationInSeconds, 0) */\n      mload(0x40)\n      dup1\n      0x80\n      add\n      0x40\n      mstore\n      dup1\n        /* \"contracts/lib/eai/EAI.sol\":21262:21271  _duration */\n      dup6\n        /* \"contracts/lib/eai/EAI.sol\":21246:21306  SessionInterval(_duration, _timeUnit, _durationInSeconds, 0) */\n      0xff\n      and\n      dup2\n      mstore\n      0x20\n      add\n        /* \"contracts/lib/eai/EAI.sol\":21273:21282  _timeUnit */\n      dup5\n        /* \"contracts/lib/eai/EAI.sol\":21246:21306  SessionInterval(_duration, _timeUnit, _durationInSeconds, 0) */\n      0xff\n      and\n      dup2\n      mstore\n      0x20\n      add\n        /* \"contracts/lib/eai/EAI.sol\":21284:21302  _durationInSeconds */\n      dup3\n        /* \"contracts/lib/eai/EAI.sol\":21246:21306  SessionInterval(_duration, _timeUnit, _durationInSeconds, 0) */\n      0xffffffff\n      and\n      dup2\n      mstore\n      0x20\n      add\n        /* \"contracts/lib/eai/EAI.sol\":21304:21305  0 */\n      0x00\n        /* \"contracts/lib/eai/EAI.sol\":21246:21306  SessionInterval(_duration, _timeUnit, _durationInSeconds, 0) */\n      0xffffffff\n      and\n      dup2\n      mstore\n      pop\n        /* \"contracts/lib/eai/EAI.sol\":21239:21306  return SessionInterval(_duration, _timeUnit, _durationInSeconds, 0) */\n      swap2\n      pop\n      pop\n        /* \"contracts/lib/eai/EAI.sol\":20958:21314  function createSessionInteval(uint8 _duration, uint8 _timeUnit)internal pure returns (SessionInterval memory){\r... */\n      swap3\n      swap2\n      pop\n      pop\n      jump\t// out\n        /* \"contracts/lib/eai/EAI.sol\":22010:22315  function startNewSessionInterval(SessionInterval storage _session, uint32 _accessDateTime)internal{       \r... */\n    tag_71:\n        /* \"contracts/lib/eai/EAI.sol\":22151:22152  0 */\n      0x00\n        /* \"contracts/lib/eai/EAI.sol\":22131:22139  _session */\n      dup3\n        /* \"contracts/lib/eai/EAI.sol\":22131:22147  _session.endTime */\n      0x00\n      add\n      0x06\n      swap1\n      sload\n      swap1\n      0x0100\n      exp\n      swap1\n      div\n      0xffffffff\n      and\n        /* \"contracts/lib/eai/EAI.sol\":22131:22152  _session.endTime == 0 */\n      0xffffffff\n      and\n      eq\n        /* \"contracts/lib/eai/EAI.sol\":22130:22194  (_session.endTime == 0) || (_accessDateTime >= _session.endTime) */\n      dup1\n      tag_88\n      jumpi\n      pop\n        /* \"contracts/lib/eai/EAI.sol\":22177:22185  _session */\n      dup2\n        /* \"contracts/lib/eai/EAI.sol\":22177:22193  _session.endTime */\n      0x00\n      add\n      0x06\n      swap1\n      sload\n      swap1\n      0x0100\n      exp\n      swap1\n      div\n      0xffffffff\n      and\n        /* \"contracts/lib/eai/EAI.sol\":22158:22193  _accessDateTime >= _session.endTime */\n      0xffffffff\n      and\n        /* \"contracts/lib/eai/EAI.sol\":22158:22173  _accessDateTime */\n      dup2\n        /* \"contracts/lib/eai/EAI.sol\":22158:22193  _accessDateTime >= _session.endTime */\n      0xffffffff\n      and\n      lt\n      iszero\n        /* \"contracts/lib/eai/EAI.sol\":22130:22194  (_session.endTime == 0) || (_accessDateTime >= _session.endTime) */\n    tag_88:\n        /* \"contracts/lib/eai/EAI.sol\":22126:22293  if ((_session.endTime == 0) || (_accessDateTime >= _session.endTime)){         \r... */\n      iszero\n      tag_89\n      jumpi\n        /* \"contracts/lib/eai/EAI.sol\":22255:22263  _session */\n      dup2\n        /* \"contracts/lib/eai/EAI.sol\":22255:22281  _session.durationInSeconds */\n      0x00\n      add\n      0x02\n      swap1\n      sload\n      swap1\n      0x0100\n      exp\n      swap1\n      div\n      0xffffffff\n      and\n        /* \"contracts/lib/eai/EAI.sol\":22237:22252  _accessDateTime */\n      dup2\n        /* \"contracts/lib/eai/EAI.sol\":22237:22281  _accessDateTime + _session.durationInSeconds */\n      tag_90\n      swap2\n      swap1\n      tag_91\n      jump\t// in\n    tag_90:\n        /* \"contracts/lib/eai/EAI.sol\":22218:22226  _session */\n      dup3\n        /* \"contracts/lib/eai/EAI.sol\":22218:22234  _session.endTime */\n      0x00\n      add\n      0x06\n        /* \"contracts/lib/eai/EAI.sol\":22218:22281  _session.endTime = _accessDateTime + _session.durationInSeconds */\n      0x0100\n      exp\n      dup2\n      sload\n      dup2\n      0xffffffff\n      mul\n      not\n      and\n      swap1\n      dup4\n      0xffffffff\n      and\n      mul\n      or\n      swap1\n      sstore\n      pop\n        /* \"contracts/lib/eai/EAI.sol\":22126:22293  if ((_session.endTime == 0) || (_accessDateTime >= _session.endTime)){         \r... */\n    tag_89:\n        /* \"contracts/lib/eai/EAI.sol\":22010:22315  function startNewSessionInterval(SessionInterval storage _session, uint32 _accessDateTime)internal{       \r... */\n      pop\n      pop\n      jump\t// out\n        /* \"contracts/lib/eai/EAI.sol\":21571:21869  function isItOpen(SessionInterval memory _session, uint32 _accessDateTime) internal  pure returns(string memory){        \r... */\n    tag_76:\n        /* \"contracts/lib/eai/EAI.sol\":21669:21682  string memory */\n      0x60\n        /* \"contracts/lib/eai/EAI.sol\":21727:21728  0 */\n      0x00\n        /* \"contracts/lib/eai/EAI.sol\":21707:21715  _session */\n      dup4\n        /* \"contracts/lib/eai/EAI.sol\":21707:21723  _session.endTime */\n      0x60\n      add\n      mload\n        /* \"contracts/lib/eai/EAI.sol\":21707:21728  _session.endTime == 0 */\n      0xffffffff\n      and\n      eq\n        /* \"contracts/lib/eai/EAI.sol\":21706:21770  (_session.endTime == 0) || (_accessDateTime >= _session.endTime) */\n      dup1\n      tag_93\n      jumpi\n      pop\n        /* \"contracts/lib/eai/EAI.sol\":21753:21761  _session */\n      dup3\n        /* \"contracts/lib/eai/EAI.sol\":21753:21769  _session.endTime */\n      0x60\n      add\n      mload\n        /* \"contracts/lib/eai/EAI.sol\":21734:21769  _accessDateTime >= _session.endTime */\n      0xffffffff\n      and\n        /* \"contracts/lib/eai/EAI.sol\":21734:21749  _accessDateTime */\n      dup3\n        /* \"contracts/lib/eai/EAI.sol\":21734:21769  _accessDateTime >= _session.endTime */\n      0xffffffff\n      and\n      lt\n      iszero\n        /* \"contracts/lib/eai/EAI.sol\":21706:21770  (_session.endTime == 0) || (_accessDateTime >= _session.endTime) */\n    tag_93:\n        /* \"contracts/lib/eai/EAI.sol\":21702:21822  if ((_session.endTime == 0) || (_accessDateTime >= _session.endTime)){         \r... */\n      iszero\n      tag_94\n      jumpi\n        /* \"contracts/lib/eai/EAI.sol\":21795:21810  return \"CLOSED\" */\n      mload(0x40)\n      dup1\n      0x40\n      add\n      0x40\n      mstore\n      dup1\n      0x06\n      dup2\n      mstore\n      0x20\n      add\n      0x434c4f5345440000000000000000000000000000000000000000000000000000\n      dup2\n      mstore\n      pop\n      swap1\n      pop\n      jump(tag_92)\n        /* \"contracts/lib/eai/EAI.sol\":21702:21822  if ((_session.endTime == 0) || (_accessDateTime >= _session.endTime)){         \r... */\n    tag_94:\n        /* \"contracts/lib/eai/EAI.sol\":21840:21853  return \"OPEN\" */\n      mload(0x40)\n      dup1\n      0x40\n      add\n      0x40\n      mstore\n      dup1\n      0x04\n      dup2\n      mstore\n      0x20\n      add\n      0x4f50454e00000000000000000000000000000000000000000000000000000000\n      dup2\n      mstore\n      pop\n      swap1\n      pop\n        /* \"contracts/lib/eai/EAI.sol\":21571:21869  function isItOpen(SessionInterval memory _session, uint32 _accessDateTime) internal  pure returns(string memory){        \r... */\n    tag_92:\n      swap3\n      swap2\n      pop\n      pop\n      jump\t// out\n        /* \"contracts/lib/eai/EAI.sol\":27240:27452  function getIntervalInSeconds(uint32 _duration, uint8 _timeUnit)internal pure returns(uint32){\r... */\n    tag_86:\n        /* \"contracts/lib/eai/EAI.sol\":27326:27332  uint32 */\n      0x00\n        /* \"contracts/lib/eai/EAI.sol\":27343:27367  uint32 timeUnitInSeconds */\n      dup1\n        /* \"contracts/lib/eai/EAI.sol\":27371:27398  getTimeInSeconds(_timeUnit) */\n      tag_96\n        /* \"contracts/lib/eai/EAI.sol\":27388:27397  _timeUnit */\n      dup4\n        /* \"contracts/lib/eai/EAI.sol\":27371:27387  getTimeInSeconds */\n      tag_97\n        /* \"contracts/lib/eai/EAI.sol\":27371:27398  getTimeInSeconds(_timeUnit) */\n      jump\t// in\n    tag_96:\n        /* \"contracts/lib/eai/EAI.sol\":27343:27398  uint32 timeUnitInSeconds =  getTimeInSeconds(_timeUnit) */\n      swap1\n      pop\n        /* \"contracts/lib/eai/EAI.sol\":27427:27444  timeUnitInSeconds */\n      dup1\n        /* \"contracts/lib/eai/EAI.sol\":27415:27424  _duration */\n      dup5\n        /* \"contracts/lib/eai/EAI.sol\":27415:27444  _duration * timeUnitInSeconds */\n      tag_98\n      swap2\n      swap1\n      tag_99\n      jump\t// in\n    tag_98:\n        /* \"contracts/lib/eai/EAI.sol\":27408:27444  return _duration * timeUnitInSeconds */\n      swap2\n      pop\n      pop\n        /* \"contracts/lib/eai/EAI.sol\":27240:27452  function getIntervalInSeconds(uint32 _duration, uint8 _timeUnit)internal pure returns(uint32){\r... */\n      swap3\n      swap2\n      pop\n      pop\n      jump\t// out\n        /* \"contracts/lib/eai/EAI.sol\":26675:27224  function getTimeInSeconds(uint8 timeUnit) private pure returns(uint32){\r... */\n    tag_97:\n        /* \"contracts/lib/eai/EAI.sol\":26738:26744  uint32 */\n      0x00\n        /* \"contracts/lib/eai/EAI.sol\":784:785  4 */\n      0x04\n        /* \"contracts/lib/eai/EAI.sol\":26818:26834  timeUnit <= WEEK */\n      0xff\n      and\n        /* \"contracts/lib/eai/EAI.sol\":26818:26826  timeUnit */\n      dup3\n        /* \"contracts/lib/eai/EAI.sol\":26818:26834  timeUnit <= WEEK */\n      0xff\n      and\n      gt\n      iszero\n        /* \"contracts/lib/eai/EAI.sol\":26810:26898  require(timeUnit <= WEEK, \"The method getTimeInSeconds doesn't work for MONTH and YEAR\") */\n      tag_101\n      jumpi\n      mload(0x40)\n      0x08c379a000000000000000000000000000000000000000000000000000000000\n      dup2\n      mstore\n      0x04\n      add\n      tag_102\n      swap1\n      tag_103\n      jump\t// in\n    tag_102:\n      mload(0x40)\n      dup1\n      swap2\n      sub\n      swap1\n      revert\n    tag_101:\n        /* \"contracts/lib/eai/EAI.sol\":666:667  0 */\n      0x00\n        /* \"contracts/lib/eai/EAI.sol\":26914:26932  timeUnit == SECOND */\n      0xff\n      and\n        /* \"contracts/lib/eai/EAI.sol\":26914:26922  timeUnit */\n      dup3\n        /* \"contracts/lib/eai/EAI.sol\":26914:26932  timeUnit == SECOND */\n      0xff\n      and\n      eq\n        /* \"contracts/lib/eai/EAI.sol\":26911:27217  if(timeUnit == SECOND){\r... */\n      iszero\n      tag_104\n      jumpi\n        /* \"contracts/lib/eai/EAI.sol\":26955:26956  1 */\n      0x01\n        /* \"contracts/lib/eai/EAI.sol\":26948:26956  return 1 */\n      swap1\n      pop\n      jump(tag_100)\n        /* \"contracts/lib/eai/EAI.sol\":26911:27217  if(timeUnit == SECOND){\r... */\n    tag_104:\n        /* \"contracts/lib/eai/EAI.sol\":698:699  1 */\n      0x01\n        /* \"contracts/lib/eai/EAI.sol\":26976:26994  timeUnit == MINUTE */\n      0xff\n      and\n        /* \"contracts/lib/eai/EAI.sol\":26976:26984  timeUnit */\n      dup3\n        /* \"contracts/lib/eai/EAI.sol\":26976:26994  timeUnit == MINUTE */\n      0xff\n      and\n      eq\n        /* \"contracts/lib/eai/EAI.sol\":26973:27217  if(timeUnit == MINUTE){\r... */\n      iszero\n      tag_106\n      jumpi\n        /* \"contracts/lib/eai/EAI.sol\":27017:27019  60 */\n      0x3c\n        /* \"contracts/lib/eai/EAI.sol\":27010:27019  return 60 */\n      swap1\n      pop\n      jump(tag_100)\n        /* \"contracts/lib/eai/EAI.sol\":26973:27217  if(timeUnit == MINUTE){\r... */\n    tag_106:\n        /* \"contracts/lib/eai/EAI.sol\":727:728  2 */\n      0x02\n        /* \"contracts/lib/eai/EAI.sol\":27039:27055  timeUnit == HOUR */\n      0xff\n      and\n        /* \"contracts/lib/eai/EAI.sol\":27039:27047  timeUnit */\n      dup3\n        /* \"contracts/lib/eai/EAI.sol\":27039:27055  timeUnit == HOUR */\n      0xff\n      and\n      eq\n        /* \"contracts/lib/eai/EAI.sol\":27036:27217  if(timeUnit == HOUR ){\r... */\n      iszero\n      tag_108\n      jumpi\n        /* \"contracts/lib/eai/EAI.sol\":27079:27084  60*60 */\n      0x0e10\n        /* \"contracts/lib/eai/EAI.sol\":27072:27084  return 60*60 */\n      swap1\n      pop\n      jump(tag_100)\n        /* \"contracts/lib/eai/EAI.sol\":27036:27217  if(timeUnit == HOUR ){\r... */\n    tag_108:\n        /* \"contracts/lib/eai/EAI.sol\":755:756  3 */\n      0x03\n        /* \"contracts/lib/eai/EAI.sol\":27104:27119  timeUnit == DAY */\n      0xff\n      and\n        /* \"contracts/lib/eai/EAI.sol\":27104:27112  timeUnit */\n      dup3\n        /* \"contracts/lib/eai/EAI.sol\":27104:27119  timeUnit == DAY */\n      0xff\n      and\n      eq\n        /* \"contracts/lib/eai/EAI.sol\":27101:27217  if(timeUnit == DAY){\r... */\n      iszero\n      tag_110\n      jumpi\n        /* \"contracts/lib/eai/EAI.sol\":27142:27150  60*60*24 */\n      0x015180\n        /* \"contracts/lib/eai/EAI.sol\":27135:27150  return 60*60*24 */\n      swap1\n      pop\n      jump(tag_100)\n        /* \"contracts/lib/eai/EAI.sol\":27101:27217  if(timeUnit == DAY){\r... */\n    tag_110:\n        /* \"contracts/lib/eai/EAI.sol\":27188:27198  60*60*24*7 */\n      0x093a80\n        /* \"contracts/lib/eai/EAI.sol\":27181:27198  return 60*60*24*7 */\n      swap1\n      pop\n        /* \"contracts/lib/eai/EAI.sol\":26675:27224  function getTimeInSeconds(uint8 timeUnit) private pure returns(uint32){\r... */\n    tag_100:\n      swap2\n      swap1\n      pop\n      jump\t// out\n    tag_61:\n      dup3\n      dup1\n      sload\n      tag_112\n      swap1\n      tag_33\n      jump\t// in\n    tag_112:\n      swap1\n      0x00\n      mstore\n      keccak256(0x00, 0x20)\n      swap1\n      0x1f\n      add\n      0x20\n      swap1\n      div\n      dup2\n      add\n      swap3\n      dup3\n      tag_114\n      jumpi\n      0x00\n      dup6\n      sstore\n      jump(tag_113)\n    tag_114:\n      dup3\n      0x1f\n      lt\n      tag_115\n      jumpi\n      dup1\n      mload\n      not(0xff)\n      and\n      dup4\n      dup1\n      add\n      or\n      dup6\n      sstore\n      jump(tag_113)\n    tag_115:\n      dup3\n      dup1\n      add\n      0x01\n      add\n      dup6\n      sstore\n      dup3\n      iszero\n      tag_113\n      jumpi\n      swap2\n      dup3\n      add\n    tag_116:\n      dup3\n      dup2\n      gt\n      iszero\n      tag_117\n      jumpi\n      dup3\n      mload\n      dup3\n      sstore\n      swap2\n      0x20\n      add\n      swap2\n      swap1\n      0x01\n      add\n      swap1\n      jump(tag_116)\n    tag_117:\n    tag_113:\n      pop\n      swap1\n      pop\n      tag_118\n      swap2\n      swap1\n      tag_119\n      jump\t// in\n    tag_118:\n      pop\n      swap1\n      jump\t// out\n    tag_78:\n      mload(0x40)\n      dup1\n      0x80\n      add\n      0x40\n      mstore\n      dup1\n      and(0xff, 0x00)\n      dup2\n      mstore\n      0x20\n      add\n      and(0xff, 0x00)\n      dup2\n      mstore\n      0x20\n      add\n      and(0xffffffff, 0x00)\n      dup2\n      mstore\n      0x20\n      add\n      and(0xffffffff, 0x00)\n      dup2\n      mstore\n      pop\n      swap1\n      jump\t// out\n    tag_119:\n    tag_120:\n      dup1\n      dup3\n      gt\n      iszero\n      tag_121\n      jumpi\n      0x00\n      dup2\n      0x00\n      swap1\n      sstore\n      pop\n      0x01\n      add\n      jump(tag_120)\n    tag_121:\n      pop\n      swap1\n      jump\t// out\n        /* \"#utility.yul\":7:419   */\n    tag_123:\n        /* \"#utility.yul\":85:90   */\n      0x00\n        /* \"#utility.yul\":110:176   */\n      tag_125\n        /* \"#utility.yul\":126:175   */\n      tag_126\n        /* \"#utility.yul\":168:174   */\n      dup5\n        /* \"#utility.yul\":126:175   */\n      tag_127\n      jump\t// in\n    tag_126:\n        /* \"#utility.yul\":110:176   */\n      tag_128\n      jump\t// in\n    tag_125:\n        /* \"#utility.yul\":101:176   */\n      swap1\n      pop\n        /* \"#utility.yul\":199:205   */\n      dup3\n        /* \"#utility.yul\":192:197   */\n      dup2\n        /* \"#utility.yul\":185:206   */\n      mstore\n        /* \"#utility.yul\":237:241   */\n      0x20\n        /* \"#utility.yul\":230:235   */\n      dup2\n        /* \"#utility.yul\":226:242   */\n      add\n        /* \"#utility.yul\":275:278   */\n      dup5\n        /* \"#utility.yul\":266:272   */\n      dup5\n        /* \"#utility.yul\":261:264   */\n      dup5\n        /* \"#utility.yul\":257:273   */\n      add\n        /* \"#utility.yul\":254:279   */\n      gt\n        /* \"#utility.yul\":251:363   */\n      iszero\n      tag_129\n      jumpi\n        /* \"#utility.yul\":282:361   */\n      tag_130\n      tag_131\n      jump\t// in\n    tag_130:\n        /* \"#utility.yul\":251:363   */\n    tag_129:\n        /* \"#utility.yul\":372:413   */\n      tag_132\n        /* \"#utility.yul\":406:412   */\n      dup5\n        /* \"#utility.yul\":401:404   */\n      dup3\n        /* \"#utility.yul\":396:399   */\n      dup6\n        /* \"#utility.yul\":372:413   */\n      tag_133\n      jump\t// in\n    tag_132:\n        /* \"#utility.yul\":91:419   */\n      pop\n        /* \"#utility.yul\":7:419   */\n      swap4\n      swap3\n      pop\n      pop\n      pop\n      jump\t// out\n        /* \"#utility.yul\":439:779   */\n    tag_134:\n        /* \"#utility.yul\":495:500   */\n      0x00\n        /* \"#utility.yul\":544:547   */\n      dup3\n        /* \"#utility.yul\":537:541   */\n      0x1f\n        /* \"#utility.yul\":529:535   */\n      dup4\n        /* \"#utility.yul\":525:542   */\n      add\n        /* \"#utility.yul\":521:548   */\n      slt\n        /* \"#utility.yul\":511:633   */\n      tag_136\n      jumpi\n        /* \"#utility.yul\":552:631   */\n      tag_137\n      tag_138\n      jump\t// in\n    tag_137:\n        /* \"#utility.yul\":511:633   */\n    tag_136:\n        /* \"#utility.yul\":669:675   */\n      dup2\n        /* \"#utility.yul\":656:676   */\n      calldataload\n        /* \"#utility.yul\":694:773   */\n      tag_139\n        /* \"#utility.yul\":769:772   */\n      dup5\n        /* \"#utility.yul\":761:767   */\n      dup3\n        /* \"#utility.yul\":754:758   */\n      0x20\n        /* \"#utility.yul\":746:752   */\n      dup7\n        /* \"#utility.yul\":742:759   */\n      add\n        /* \"#utility.yul\":694:773   */\n      tag_123\n      jump\t// in\n    tag_139:\n        /* \"#utility.yul\":685:773   */\n      swap2\n      pop\n        /* \"#utility.yul\":501:779   */\n      pop\n        /* \"#utility.yul\":439:779   */\n      swap3\n      swap2\n      pop\n      pop\n      jump\t// out\n        /* \"#utility.yul\":785:924   */\n    tag_140:\n        /* \"#utility.yul\":831:836   */\n      0x00\n        /* \"#utility.yul\":869:875   */\n      dup2\n        /* \"#utility.yul\":856:876   */\n      calldataload\n        /* \"#utility.yul\":847:876   */\n      swap1\n      pop\n        /* \"#utility.yul\":885:918   */\n      tag_142\n        /* \"#utility.yul\":912:917   */\n      dup2\n        /* \"#utility.yul\":885:918   */\n      tag_143\n      jump\t// in\n    tag_142:\n        /* \"#utility.yul\":785:924   */\n      swap3\n      swap2\n      pop\n      pop\n      jump\t// out\n        /* \"#utility.yul\":930:1067   */\n    tag_144:\n        /* \"#utility.yul\":975:980   */\n      0x00\n        /* \"#utility.yul\":1013:1019   */\n      dup2\n        /* \"#utility.yul\":1000:1020   */\n      calldataload\n        /* \"#utility.yul\":991:1020   */\n      swap1\n      pop\n        /* \"#utility.yul\":1029:1061   */\n      tag_146\n        /* \"#utility.yul\":1055:1060   */\n      dup2\n        /* \"#utility.yul\":1029:1061   */\n      tag_147\n      jump\t// in\n    tag_146:\n        /* \"#utility.yul\":930:1067   */\n      swap3\n      swap2\n      pop\n      pop\n      jump\t// out\n        /* \"#utility.yul\":1073:1907   */\n    tag_23:\n        /* \"#utility.yul\":1161:1167   */\n      0x00\n        /* \"#utility.yul\":1169:1175   */\n      dup1\n        /* \"#utility.yul\":1218:1220   */\n      0x40\n        /* \"#utility.yul\":1206:1215   */\n      dup4\n        /* \"#utility.yul\":1197:1204   */\n      dup6\n        /* \"#utility.yul\":1193:1216   */\n      sub\n        /* \"#utility.yul\":1189:1221   */\n      slt\n        /* \"#utility.yul\":1186:1305   */\n      iszero\n      tag_149\n      jumpi\n        /* \"#utility.yul\":1224:1303   */\n      tag_150\n      tag_151\n      jump\t// in\n    tag_150:\n        /* \"#utility.yul\":1186:1305   */\n    tag_149:\n        /* \"#utility.yul\":1372:1373   */\n      0x00\n        /* \"#utility.yul\":1361:1370   */\n      dup4\n        /* \"#utility.yul\":1357:1374   */\n      add\n        /* \"#utility.yul\":1344:1375   */\n      calldataload\n        /* \"#utility.yul\":1402:1420   */\n      0xffffffffffffffff\n        /* \"#utility.yul\":1394:1400   */\n      dup2\n        /* \"#utility.yul\":1391:1421   */\n      gt\n        /* \"#utility.yul\":1388:1505   */\n      iszero\n      tag_152\n      jumpi\n        /* \"#utility.yul\":1424:1503   */\n      tag_153\n      tag_154\n      jump\t// in\n    tag_153:\n        /* \"#utility.yul\":1388:1505   */\n    tag_152:\n        /* \"#utility.yul\":1529:1592   */\n      tag_155\n        /* \"#utility.yul\":1584:1591   */\n      dup6\n        /* \"#utility.yul\":1575:1581   */\n      dup3\n        /* \"#utility.yul\":1564:1573   */\n      dup7\n        /* \"#utility.yul\":1560:1582   */\n      add\n        /* \"#utility.yul\":1529:1592   */\n      tag_134\n      jump\t// in\n    tag_155:\n        /* \"#utility.yul\":1519:1592   */\n      swap3\n      pop\n        /* \"#utility.yul\":1315:1602   */\n      pop\n        /* \"#utility.yul\":1669:1671   */\n      0x20\n        /* \"#utility.yul\":1658:1667   */\n      dup4\n        /* \"#utility.yul\":1654:1672   */\n      add\n        /* \"#utility.yul\":1641:1673   */\n      calldataload\n        /* \"#utility.yul\":1700:1718   */\n      0xffffffffffffffff\n        /* \"#utility.yul\":1692:1698   */\n      dup2\n        /* \"#utility.yul\":1689:1719   */\n      gt\n        /* \"#utility.yul\":1686:1803   */\n      iszero\n      tag_156\n      jumpi\n        /* \"#utility.yul\":1722:1801   */\n      tag_157\n      tag_154\n      jump\t// in\n    tag_157:\n        /* \"#utility.yul\":1686:1803   */\n    tag_156:\n        /* \"#utility.yul\":1827:1890   */\n      tag_158\n        /* \"#utility.yul\":1882:1889   */\n      dup6\n        /* \"#utility.yul\":1873:1879   */\n      dup3\n        /* \"#utility.yul\":1862:1871   */\n      dup7\n        /* \"#utility.yul\":1858:1880   */\n      add\n        /* \"#utility.yul\":1827:1890   */\n      tag_134\n      jump\t// in\n    tag_158:\n        /* \"#utility.yul\":1817:1890   */\n      swap2\n      pop\n        /* \"#utility.yul\":1612:1900   */\n      pop\n        /* \"#utility.yul\":1073:1907   */\n      swap3\n      pop\n      swap3\n      swap1\n      pop\n      jump\t// out\n        /* \"#utility.yul\":1913:2890   */\n    tag_17:\n        /* \"#utility.yul\":2009:2015   */\n      0x00\n        /* \"#utility.yul\":2017:2023   */\n      dup1\n        /* \"#utility.yul\":2025:2031   */\n      0x00\n        /* \"#utility.yul\":2074:2076   */\n      0x60\n        /* \"#utility.yul\":2062:2071   */\n      dup5\n        /* \"#utility.yul\":2053:2060   */\n      dup7\n        /* \"#utility.yul\":2049:2072   */\n      sub\n        /* \"#utility.yul\":2045:2077   */\n      slt\n        /* \"#utility.yul\":2042:2161   */\n      iszero\n      tag_160\n      jumpi\n        /* \"#utility.yul\":2080:2159   */\n      tag_161\n      tag_151\n      jump\t// in\n    tag_161:\n        /* \"#utility.yul\":2042:2161   */\n    tag_160:\n        /* \"#utility.yul\":2228:2229   */\n      0x00\n        /* \"#utility.yul\":2217:2226   */\n      dup5\n        /* \"#utility.yul\":2213:2230   */\n      add\n        /* \"#utility.yul\":2200:2231   */\n      calldataload\n        /* \"#utility.yul\":2258:2276   */\n      0xffffffffffffffff\n        /* \"#utility.yul\":2250:2256   */\n      dup2\n        /* \"#utility.yul\":2247:2277   */\n      gt\n        /* \"#utility.yul\":2244:2361   */\n      iszero\n      tag_162\n      jumpi\n        /* \"#utility.yul\":2280:2359   */\n      tag_163\n      tag_154\n      jump\t// in\n    tag_163:\n        /* \"#utility.yul\":2244:2361   */\n    tag_162:\n        /* \"#utility.yul\":2385:2448   */\n      tag_164\n        /* \"#utility.yul\":2440:2447   */\n      dup7\n        /* \"#utility.yul\":2431:2437   */\n      dup3\n        /* \"#utility.yul\":2420:2429   */\n      dup8\n        /* \"#utility.yul\":2416:2438   */\n      add\n        /* \"#utility.yul\":2385:2448   */\n      tag_134\n      jump\t// in\n    tag_164:\n        /* \"#utility.yul\":2375:2448   */\n      swap4\n      pop\n        /* \"#utility.yul\":2171:2458   */\n      pop\n        /* \"#utility.yul\":2525:2527   */\n      0x20\n        /* \"#utility.yul\":2514:2523   */\n      dup5\n        /* \"#utility.yul\":2510:2528   */\n      add\n        /* \"#utility.yul\":2497:2529   */\n      calldataload\n        /* \"#utility.yul\":2556:2574   */\n      0xffffffffffffffff\n        /* \"#utility.yul\":2548:2554   */\n      dup2\n        /* \"#utility.yul\":2545:2575   */\n      gt\n        /* \"#utility.yul\":2542:2659   */\n      iszero\n      tag_165\n      jumpi\n        /* \"#utility.yul\":2578:2657   */\n      tag_166\n      tag_154\n      jump\t// in\n    tag_166:\n        /* \"#utility.yul\":2542:2659   */\n    tag_165:\n        /* \"#utility.yul\":2683:2746   */\n      tag_167\n        /* \"#utility.yul\":2738:2745   */\n      dup7\n        /* \"#utility.yul\":2729:2735   */\n      dup3\n        /* \"#utility.yul\":2718:2727   */\n      dup8\n        /* \"#utility.yul\":2714:2736   */\n      add\n        /* \"#utility.yul\":2683:2746   */\n      tag_134\n      jump\t// in\n    tag_167:\n        /* \"#utility.yul\":2673:2746   */\n      swap3\n      pop\n        /* \"#utility.yul\":2468:2756   */\n      pop\n        /* \"#utility.yul\":2795:2797   */\n      0x40\n        /* \"#utility.yul\":2821:2873   */\n      tag_168\n        /* \"#utility.yul\":2865:2872   */\n      dup7\n        /* \"#utility.yul\":2856:2862   */\n      dup3\n        /* \"#utility.yul\":2845:2854   */\n      dup8\n        /* \"#utility.yul\":2841:2863   */\n      add\n        /* \"#utility.yul\":2821:2873   */\n      tag_144\n      jump\t// in\n    tag_168:\n        /* \"#utility.yul\":2811:2873   */\n      swap2\n      pop\n        /* \"#utility.yul\":2766:2883   */\n      pop\n        /* \"#utility.yul\":1913:2890   */\n      swap3\n      pop\n      swap3\n      pop\n      swap3\n      jump\t// out\n        /* \"#utility.yul\":2896:4019   */\n    tag_13:\n        /* \"#utility.yul\":3001:3007   */\n      0x00\n        /* \"#utility.yul\":3009:3015   */\n      dup1\n        /* \"#utility.yul\":3017:3023   */\n      0x00\n        /* \"#utility.yul\":3025:3031   */\n      dup1\n        /* \"#utility.yul\":3074:3077   */\n      0x80\n        /* \"#utility.yul\":3062:3071   */\n      dup6\n        /* \"#utility.yul\":3053:3060   */\n      dup8\n        /* \"#utility.yul\":3049:3072   */\n      sub\n        /* \"#utility.yul\":3045:3078   */\n      slt\n        /* \"#utility.yul\":3042:3162   */\n      iszero\n      tag_170\n      jumpi\n        /* \"#utility.yul\":3081:3160   */\n      tag_171\n      tag_151\n      jump\t// in\n    tag_171:\n        /* \"#utility.yul\":3042:3162   */\n    tag_170:\n        /* \"#utility.yul\":3201:3202   */\n      0x00\n        /* \"#utility.yul\":3226:3279   */\n      tag_172\n        /* \"#utility.yul\":3271:3278   */\n      dup8\n        /* \"#utility.yul\":3262:3268   */\n      dup3\n        /* \"#utility.yul\":3251:3260   */\n      dup9\n        /* \"#utility.yul\":3247:3269   */\n      add\n        /* \"#utility.yul\":3226:3279   */\n      tag_140\n      jump\t// in\n    tag_172:\n        /* \"#utility.yul\":3216:3279   */\n      swap5\n      pop\n        /* \"#utility.yul\":3172:3289   */\n      pop\n        /* \"#utility.yul\":3356:3358   */\n      0x20\n        /* \"#utility.yul\":3345:3354   */\n      dup6\n        /* \"#utility.yul\":3341:3359   */\n      add\n        /* \"#utility.yul\":3328:3360   */\n      calldataload\n        /* \"#utility.yul\":3387:3405   */\n      0xffffffffffffffff\n        /* \"#utility.yul\":3379:3385   */\n      dup2\n        /* \"#utility.yul\":3376:3406   */\n      gt\n        /* \"#utility.yul\":3373:3490   */\n      iszero\n      tag_173\n      jumpi\n        /* \"#utility.yul\":3409:3488   */\n      tag_174\n      tag_154\n      jump\t// in\n    tag_174:\n        /* \"#utility.yul\":3373:3490   */\n    tag_173:\n        /* \"#utility.yul\":3514:3577   */\n      tag_175\n        /* \"#utility.yul\":3569:3576   */\n      dup8\n        /* \"#utility.yul\":3560:3566   */\n      dup3\n        /* \"#utility.yul\":3549:3558   */\n      dup9\n        /* \"#utility.yul\":3545:3567   */\n      add\n        /* \"#utility.yul\":3514:3577   */\n      tag_134\n      jump\t// in\n    tag_175:\n        /* \"#utility.yul\":3504:3577   */\n      swap4\n      pop\n        /* \"#utility.yul\":3299:3587   */\n      pop\n        /* \"#utility.yul\":3654:3656   */\n      0x40\n        /* \"#utility.yul\":3643:3652   */\n      dup6\n        /* \"#utility.yul\":3639:3657   */\n      add\n        /* \"#utility.yul\":3626:3658   */\n      calldataload\n        /* \"#utility.yul\":3685:3703   */\n      0xffffffffffffffff\n        /* \"#utility.yul\":3677:3683   */\n      dup2\n        /* \"#utility.yul\":3674:3704   */\n      gt\n        /* \"#utility.yul\":3671:3788   */\n      iszero\n      tag_176\n      jumpi\n        /* \"#utility.yul\":3707:3786   */\n      tag_177\n      tag_154\n      jump\t// in\n    tag_177:\n        /* \"#utility.yul\":3671:3788   */\n    tag_176:\n        /* \"#utility.yul\":3812:3875   */\n      tag_178\n        /* \"#utility.yul\":3867:3874   */\n      dup8\n        /* \"#utility.yul\":3858:3864   */\n      dup3\n        /* \"#utility.yul\":3847:3856   */\n      dup9\n        /* \"#utility.yul\":3843:3865   */\n      add\n        /* \"#utility.yul\":3812:3875   */\n      tag_134\n      jump\t// in\n    tag_178:\n        /* \"#utility.yul\":3802:3875   */\n      swap3\n      pop\n        /* \"#utility.yul\":3597:3885   */\n      pop\n        /* \"#utility.yul\":3924:3926   */\n      0x60\n        /* \"#utility.yul\":3950:4002   */\n      tag_179\n        /* \"#utility.yul\":3994:4001   */\n      dup8\n        /* \"#utility.yul\":3985:3991   */\n      dup3\n        /* \"#utility.yul\":3974:3983   */\n      dup9\n        /* \"#utility.yul\":3970:3992   */\n      add\n        /* \"#utility.yul\":3950:4002   */\n      tag_144\n      jump\t// in\n    tag_179:\n        /* \"#utility.yul\":3940:4002   */\n      swap2\n      pop\n        /* \"#utility.yul\":3895:4012   */\n      pop\n        /* \"#utility.yul\":2896:4019   */\n      swap3\n      swap6\n      swap2\n      swap5\n      pop\n      swap3\n      pop\n      jump\t// out\n        /* \"#utility.yul\":4025:4221   */\n    tag_180:\n        /* \"#utility.yul\":4114:4124   */\n      0x00\n        /* \"#utility.yul\":4149:4215   */\n      tag_182\n        /* \"#utility.yul\":4211:4214   */\n      dup4\n        /* \"#utility.yul\":4203:4209   */\n      dup4\n        /* \"#utility.yul\":4149:4215   */\n      tag_183\n      jump\t// in\n    tag_182:\n        /* \"#utility.yul\":4135:4215   */\n      swap1\n      pop\n        /* \"#utility.yul\":4025:4221   */\n      swap3\n      swap2\n      pop\n      pop\n      jump\t// out\n        /* \"#utility.yul\":4227:4538   */\n    tag_184:\n        /* \"#utility.yul\":4362:4372   */\n      0x00\n        /* \"#utility.yul\":4383:4495   */\n      tag_186\n        /* \"#utility.yul\":4491:4494   */\n      dup4\n        /* \"#utility.yul\":4483:4489   */\n      dup4\n        /* \"#utility.yul\":4383:4495   */\n      tag_187\n      jump\t// in\n    tag_186:\n        /* \"#utility.yul\":4527:4531   */\n      0x80\n        /* \"#utility.yul\":4522:4525   */\n      dup4\n        /* \"#utility.yul\":4518:4532   */\n      add\n        /* \"#utility.yul\":4504:4532   */\n      swap1\n      pop\n        /* \"#utility.yul\":4227:4538   */\n      swap3\n      swap2\n      pop\n      pop\n      jump\t// out\n        /* \"#utility.yul\":4572:5563   */\n    tag_188:\n        /* \"#utility.yul\":4711:4714   */\n      0x00\n        /* \"#utility.yul\":4740:4804   */\n      tag_190\n        /* \"#utility.yul\":4798:4803   */\n      dup3\n        /* \"#utility.yul\":4740:4804   */\n      tag_191\n      jump\t// in\n    tag_190:\n        /* \"#utility.yul\":4820:4916   */\n      tag_192\n        /* \"#utility.yul\":4909:4915   */\n      dup2\n        /* \"#utility.yul\":4904:4907   */\n      dup6\n        /* \"#utility.yul\":4820:4916   */\n      tag_193\n      jump\t// in\n    tag_192:\n        /* \"#utility.yul\":4813:4916   */\n      swap4\n      pop\n        /* \"#utility.yul\":4942:4945   */\n      dup4\n        /* \"#utility.yul\":4987:4991   */\n      0x20\n        /* \"#utility.yul\":4979:4985   */\n      dup3\n        /* \"#utility.yul\":4975:4992   */\n      mul\n        /* \"#utility.yul\":4970:4973   */\n      dup6\n        /* \"#utility.yul\":4966:4993   */\n      add\n        /* \"#utility.yul\":5017:5083   */\n      tag_194\n        /* \"#utility.yul\":5077:5082   */\n      dup6\n        /* \"#utility.yul\":5017:5083   */\n      tag_195\n      jump\t// in\n    tag_194:\n        /* \"#utility.yul\":5106:5113   */\n      dup1\n        /* \"#utility.yul\":5137:5138   */\n      0x00\n        /* \"#utility.yul\":5122:5518   */\n    tag_196:\n        /* \"#utility.yul\":5147:5153   */\n      dup6\n        /* \"#utility.yul\":5144:5145   */\n      dup2\n        /* \"#utility.yul\":5141:5154   */\n      lt\n        /* \"#utility.yul\":5122:5518   */\n      iszero\n      tag_198\n      jumpi\n        /* \"#utility.yul\":5218:5227   */\n      dup5\n        /* \"#utility.yul\":5212:5216   */\n      dup5\n        /* \"#utility.yul\":5208:5228   */\n      sub\n        /* \"#utility.yul\":5203:5206   */\n      dup10\n        /* \"#utility.yul\":5196:5229   */\n      mstore\n        /* \"#utility.yul\":5269:5275   */\n      dup2\n        /* \"#utility.yul\":5263:5276   */\n      mload\n        /* \"#utility.yul\":5297:5381   */\n      tag_199\n        /* \"#utility.yul\":5376:5380   */\n      dup6\n        /* \"#utility.yul\":5361:5374   */\n      dup3\n        /* \"#utility.yul\":5297:5381   */\n      tag_180\n      jump\t// in\n    tag_199:\n        /* \"#utility.yul\":5289:5381   */\n      swap5\n      pop\n        /* \"#utility.yul\":5404:5474   */\n      tag_200\n        /* \"#utility.yul\":5467:5473   */\n      dup4\n        /* \"#utility.yul\":5404:5474   */\n      tag_201\n      jump\t// in\n    tag_200:\n        /* \"#utility.yul\":5394:5474   */\n      swap3\n      pop\n        /* \"#utility.yul\":5503:5507   */\n      0x20\n        /* \"#utility.yul\":5498:5501   */\n      dup11\n        /* \"#utility.yul\":5494:5508   */\n      add\n        /* \"#utility.yul\":5487:5508   */\n      swap10\n      pop\n        /* \"#utility.yul\":5182:5518   */\n      pop\n        /* \"#utility.yul\":5169:5170   */\n      0x01\n        /* \"#utility.yul\":5166:5167   */\n      dup2\n        /* \"#utility.yul\":5162:5171   */\n      add\n        /* \"#utility.yul\":5157:5171   */\n      swap1\n      pop\n        /* \"#utility.yul\":5122:5518   */\n      jump(tag_196)\n    tag_198:\n        /* \"#utility.yul\":5126:5140   */\n      pop\n        /* \"#utility.yul\":5534:5538   */\n      dup3\n        /* \"#utility.yul\":5527:5538   */\n      swap8\n      pop\n        /* \"#utility.yul\":5554:5557   */\n      dup8\n        /* \"#utility.yul\":5547:5557   */\n      swap6\n      pop\n        /* \"#utility.yul\":4716:5563   */\n      pop\n      pop\n      pop\n      pop\n      pop\n        /* \"#utility.yul\":4572:5563   */\n      swap3\n      swap2\n      pop\n      pop\n      jump\t// out\n        /* \"#utility.yul\":5637:6633   */\n    tag_202:\n        /* \"#utility.yul\":5822:5825   */\n      0x00\n        /* \"#utility.yul\":5851:5938   */\n      tag_204\n        /* \"#utility.yul\":5932:5937   */\n      dup3\n        /* \"#utility.yul\":5851:5938   */\n      tag_205\n      jump\t// in\n    tag_204:\n        /* \"#utility.yul\":5954:6073   */\n      tag_206\n        /* \"#utility.yul\":6066:6072   */\n      dup2\n        /* \"#utility.yul\":6061:6064   */\n      dup6\n        /* \"#utility.yul\":5954:6073   */\n      tag_207\n      jump\t// in\n    tag_206:\n        /* \"#utility.yul\":5947:6073   */\n      swap4\n      pop\n        /* \"#utility.yul\":6097:6186   */\n      tag_208\n        /* \"#utility.yul\":6180:6185   */\n      dup4\n        /* \"#utility.yul\":6097:6186   */\n      tag_209\n      jump\t// in\n    tag_208:\n        /* \"#utility.yul\":6209:6216   */\n      dup1\n        /* \"#utility.yul\":6240:6241   */\n      0x00\n        /* \"#utility.yul\":6225:6608   */\n    tag_210:\n        /* \"#utility.yul\":6250:6256   */\n      dup4\n        /* \"#utility.yul\":6247:6248   */\n      dup2\n        /* \"#utility.yul\":6244:6257   */\n      lt\n        /* \"#utility.yul\":6225:6608   */\n      iszero\n      tag_212\n      jumpi\n        /* \"#utility.yul\":6326:6332   */\n      dup2\n        /* \"#utility.yul\":6320:6333   */\n      mload\n        /* \"#utility.yul\":6353:6482   */\n      tag_213\n        /* \"#utility.yul\":6478:6481   */\n      dup9\n        /* \"#utility.yul\":6463:6476   */\n      dup3\n        /* \"#utility.yul\":6353:6482   */\n      tag_184\n      jump\t// in\n    tag_213:\n        /* \"#utility.yul\":6346:6482   */\n      swap8\n      pop\n        /* \"#utility.yul\":6505:6598   */\n      tag_214\n        /* \"#utility.yul\":6591:6597   */\n      dup4\n        /* \"#utility.yul\":6505:6598   */\n      tag_215\n      jump\t// in\n    tag_214:\n        /* \"#utility.yul\":6495:6598   */\n      swap3\n      pop\n        /* \"#utility.yul\":6285:6608   */\n      pop\n        /* \"#utility.yul\":6272:6273   */\n      0x01\n        /* \"#utility.yul\":6269:6270   */\n      dup2\n        /* \"#utility.yul\":6265:6274   */\n      add\n        /* \"#utility.yul\":6260:6274   */\n      swap1\n      pop\n        /* \"#utility.yul\":6225:6608   */\n      jump(tag_210)\n    tag_212:\n        /* \"#utility.yul\":6229:6243   */\n      pop\n        /* \"#utility.yul\":6624:6627   */\n      dup6\n        /* \"#utility.yul\":6617:6627   */\n      swap4\n      pop\n        /* \"#utility.yul\":5827:6633   */\n      pop\n      pop\n      pop\n        /* \"#utility.yul\":5637:6633   */\n      swap3\n      swap2\n      pop\n      pop\n      jump\t// out\n        /* \"#utility.yul\":6639:6983   */\n    tag_183:\n        /* \"#utility.yul\":6717:6720   */\n      0x00\n        /* \"#utility.yul\":6745:6784   */\n      tag_217\n        /* \"#utility.yul\":6778:6783   */\n      dup3\n        /* \"#utility.yul\":6745:6784   */\n      tag_218\n      jump\t// in\n    tag_217:\n        /* \"#utility.yul\":6800:6861   */\n      tag_219\n        /* \"#utility.yul\":6854:6860   */\n      dup2\n        /* \"#utility.yul\":6849:6852   */\n      dup6\n        /* \"#utility.yul\":6800:6861   */\n      tag_220\n      jump\t// in\n    tag_219:\n        /* \"#utility.yul\":6793:6861   */\n      swap4\n      pop\n        /* \"#utility.yul\":6870:6922   */\n      tag_221\n        /* \"#utility.yul\":6915:6921   */\n      dup2\n        /* \"#utility.yul\":6910:6913   */\n      dup6\n        /* \"#utility.yul\":6903:6907   */\n      0x20\n        /* \"#utility.yul\":6896:6901   */\n      dup7\n        /* \"#utility.yul\":6892:6908   */\n      add\n        /* \"#utility.yul\":6870:6922   */\n      tag_222\n      jump\t// in\n    tag_221:\n        /* \"#utility.yul\":6947:6976   */\n      tag_223\n        /* \"#utility.yul\":6969:6975   */\n      dup2\n        /* \"#utility.yul\":6947:6976   */\n      tag_224\n      jump\t// in\n    tag_223:\n        /* \"#utility.yul\":6942:6945   */\n      dup5\n        /* \"#utility.yul\":6938:6977   */\n      add\n        /* \"#utility.yul\":6931:6977   */\n      swap2\n      pop\n        /* \"#utility.yul\":6721:6983   */\n      pop\n        /* \"#utility.yul\":6639:6983   */\n      swap3\n      swap2\n      pop\n      pop\n      jump\t// out\n        /* \"#utility.yul\":6989:7353   */\n    tag_225:\n        /* \"#utility.yul\":7077:7080   */\n      0x00\n        /* \"#utility.yul\":7105:7144   */\n      tag_227\n        /* \"#utility.yul\":7138:7143   */\n      dup3\n        /* \"#utility.yul\":7105:7144   */\n      tag_218\n      jump\t// in\n    tag_227:\n        /* \"#utility.yul\":7160:7231   */\n      tag_228\n        /* \"#utility.yul\":7224:7230   */\n      dup2\n        /* \"#utility.yul\":7219:7222   */\n      dup6\n        /* \"#utility.yul\":7160:7231   */\n      tag_229\n      jump\t// in\n    tag_228:\n        /* \"#utility.yul\":7153:7231   */\n      swap4\n      pop\n        /* \"#utility.yul\":7240:7292   */\n      tag_230\n        /* \"#utility.yul\":7285:7291   */\n      dup2\n        /* \"#utility.yul\":7280:7283   */\n      dup6\n        /* \"#utility.yul\":7273:7277   */\n      0x20\n        /* \"#utility.yul\":7266:7271   */\n      dup7\n        /* \"#utility.yul\":7262:7278   */\n      add\n        /* \"#utility.yul\":7240:7292   */\n      tag_222\n      jump\t// in\n    tag_230:\n        /* \"#utility.yul\":7317:7346   */\n      tag_231\n        /* \"#utility.yul\":7339:7345   */\n      dup2\n        /* \"#utility.yul\":7317:7346   */\n      tag_224\n      jump\t// in\n    tag_231:\n        /* \"#utility.yul\":7312:7315   */\n      dup5\n        /* \"#utility.yul\":7308:7347   */\n      add\n        /* \"#utility.yul\":7301:7347   */\n      swap2\n      pop\n        /* \"#utility.yul\":7081:7353   */\n      pop\n        /* \"#utility.yul\":6989:7353   */\n      swap3\n      swap2\n      pop\n      pop\n      jump\t// out\n        /* \"#utility.yul\":7359:7736   */\n    tag_232:\n        /* \"#utility.yul\":7465:7468   */\n      0x00\n        /* \"#utility.yul\":7493:7532   */\n      tag_234\n        /* \"#utility.yul\":7526:7531   */\n      dup3\n        /* \"#utility.yul\":7493:7532   */\n      tag_218\n      jump\t// in\n    tag_234:\n        /* \"#utility.yul\":7548:7637   */\n      tag_235\n        /* \"#utility.yul\":7630:7636   */\n      dup2\n        /* \"#utility.yul\":7625:7628   */\n      dup6\n        /* \"#utility.yul\":7548:7637   */\n      tag_236\n      jump\t// in\n    tag_235:\n        /* \"#utility.yul\":7541:7637   */\n      swap4\n      pop\n        /* \"#utility.yul\":7646:7698   */\n      tag_237\n        /* \"#utility.yul\":7691:7697   */\n      dup2\n        /* \"#utility.yul\":7686:7689   */\n      dup6\n        /* \"#utility.yul\":7679:7683   */\n      0x20\n        /* \"#utility.yul\":7672:7677   */\n      dup7\n        /* \"#utility.yul\":7668:7684   */\n      add\n        /* \"#utility.yul\":7646:7698   */\n      tag_222\n      jump\t// in\n    tag_237:\n        /* \"#utility.yul\":7723:7729   */\n      dup1\n        /* \"#utility.yul\":7718:7721   */\n      dup5\n        /* \"#utility.yul\":7714:7730   */\n      add\n        /* \"#utility.yul\":7707:7730   */\n      swap2\n      pop\n        /* \"#utility.yul\":7469:7736   */\n      pop\n        /* \"#utility.yul\":7359:7736   */\n      swap3\n      swap2\n      pop\n      pop\n      jump\t// out\n        /* \"#utility.yul\":7742:8108   */\n    tag_238:\n        /* \"#utility.yul\":7884:7887   */\n      0x00\n        /* \"#utility.yul\":7905:7972   */\n      tag_240\n        /* \"#utility.yul\":7969:7971   */\n      0x3b\n        /* \"#utility.yul\":7964:7967   */\n      dup4\n        /* \"#utility.yul\":7905:7972   */\n      tag_229\n      jump\t// in\n    tag_240:\n        /* \"#utility.yul\":7898:7972   */\n      swap2\n      pop\n        /* \"#utility.yul\":7981:8074   */\n      tag_241\n        /* \"#utility.yul\":8070:8073   */\n      dup3\n        /* \"#utility.yul\":7981:8074   */\n      tag_242\n      jump\t// in\n    tag_241:\n        /* \"#utility.yul\":8099:8101   */\n      0x40\n        /* \"#utility.yul\":8094:8097   */\n      dup3\n        /* \"#utility.yul\":8090:8102   */\n      add\n        /* \"#utility.yul\":8083:8102   */\n      swap1\n      pop\n        /* \"#utility.yul\":7742:8108   */\n      swap2\n      swap1\n      pop\n      jump\t// out\n        /* \"#utility.yul\":8114:8516   */\n    tag_243:\n        /* \"#utility.yul\":8274:8277   */\n      0x00\n        /* \"#utility.yul\":8295:8380   */\n      tag_245\n        /* \"#utility.yul\":8377:8379   */\n      0x0e\n        /* \"#utility.yul\":8372:8375   */\n      dup4\n        /* \"#utility.yul\":8295:8380   */\n      tag_236\n      jump\t// in\n    tag_245:\n        /* \"#utility.yul\":8288:8380   */\n      swap2\n      pop\n        /* \"#utility.yul\":8389:8482   */\n      tag_246\n        /* \"#utility.yul\":8478:8481   */\n      dup3\n        /* \"#utility.yul\":8389:8482   */\n      tag_247\n      jump\t// in\n    tag_246:\n        /* \"#utility.yul\":8507:8509   */\n      0x0e\n        /* \"#utility.yul\":8502:8505   */\n      dup3\n        /* \"#utility.yul\":8498:8510   */\n      add\n        /* \"#utility.yul\":8491:8510   */\n      swap1\n      pop\n        /* \"#utility.yul\":8114:8516   */\n      swap2\n      swap1\n      pop\n      jump\t// out\n        /* \"#utility.yul\":8522:8922   */\n    tag_248:\n        /* \"#utility.yul\":8682:8685   */\n      0x00\n        /* \"#utility.yul\":8703:8787   */\n      tag_250\n        /* \"#utility.yul\":8785:8786   */\n      0x08\n        /* \"#utility.yul\":8780:8783   */\n      dup4\n        /* \"#utility.yul\":8703:8787   */\n      tag_236\n      jump\t// in\n    tag_250:\n        /* \"#utility.yul\":8696:8787   */\n      swap2\n      pop\n        /* \"#utility.yul\":8796:8889   */\n      tag_251\n        /* \"#utility.yul\":8885:8888   */\n      dup3\n        /* \"#utility.yul\":8796:8889   */\n      tag_252\n      jump\t// in\n    tag_251:\n        /* \"#utility.yul\":8914:8915   */\n      0x08\n        /* \"#utility.yul\":8909:8912   */\n      dup3\n        /* \"#utility.yul\":8905:8916   */\n      add\n        /* \"#utility.yul\":8898:8916   */\n      swap1\n      pop\n        /* \"#utility.yul\":8522:8922   */\n      swap2\n      swap1\n      pop\n      jump\t// out\n        /* \"#utility.yul\":8992:9865   */\n    tag_187:\n        /* \"#utility.yul\":9145:9149   */\n      0x80\n        /* \"#utility.yul\":9140:9143   */\n      dup3\n        /* \"#utility.yul\":9136:9150   */\n      add\n        /* \"#utility.yul\":9236:9240   */\n      0x00\n        /* \"#utility.yul\":9229:9234   */\n      dup3\n        /* \"#utility.yul\":9225:9241   */\n      add\n        /* \"#utility.yul\":9219:9242   */\n      mload\n        /* \"#utility.yul\":9255:9314   */\n      tag_254\n        /* \"#utility.yul\":9308:9312   */\n      0x00\n        /* \"#utility.yul\":9303:9306   */\n      dup6\n        /* \"#utility.yul\":9299:9313   */\n      add\n        /* \"#utility.yul\":9285:9297   */\n      dup3\n        /* \"#utility.yul\":9255:9314   */\n      tag_255\n      jump\t// in\n    tag_254:\n        /* \"#utility.yul\":9160:9324   */\n      pop\n        /* \"#utility.yul\":9410:9414   */\n      0x20\n        /* \"#utility.yul\":9403:9408   */\n      dup3\n        /* \"#utility.yul\":9399:9415   */\n      add\n        /* \"#utility.yul\":9393:9416   */\n      mload\n        /* \"#utility.yul\":9429:9488   */\n      tag_256\n        /* \"#utility.yul\":9482:9486   */\n      0x20\n        /* \"#utility.yul\":9477:9480   */\n      dup6\n        /* \"#utility.yul\":9473:9487   */\n      add\n        /* \"#utility.yul\":9459:9471   */\n      dup3\n        /* \"#utility.yul\":9429:9488   */\n      tag_255\n      jump\t// in\n    tag_256:\n        /* \"#utility.yul\":9334:9498   */\n      pop\n        /* \"#utility.yul\":9593:9597   */\n      0x40\n        /* \"#utility.yul\":9586:9591   */\n      dup3\n        /* \"#utility.yul\":9582:9598   */\n      add\n        /* \"#utility.yul\":9576:9599   */\n      mload\n        /* \"#utility.yul\":9612:9673   */\n      tag_257\n        /* \"#utility.yul\":9667:9671   */\n      0x40\n        /* \"#utility.yul\":9662:9665   */\n      dup6\n        /* \"#utility.yul\":9658:9672   */\n      add\n        /* \"#utility.yul\":9644:9656   */\n      dup3\n        /* \"#utility.yul\":9612:9673   */\n      tag_258\n      jump\t// in\n    tag_257:\n        /* \"#utility.yul\":9508:9683   */\n      pop\n        /* \"#utility.yul\":9768:9772   */\n      0x60\n        /* \"#utility.yul\":9761:9766   */\n      dup3\n        /* \"#utility.yul\":9757:9773   */\n      add\n        /* \"#utility.yul\":9751:9774   */\n      mload\n        /* \"#utility.yul\":9787:9848   */\n      tag_259\n        /* \"#utility.yul\":9842:9846   */\n      0x60\n        /* \"#utility.yul\":9837:9840   */\n      dup6\n        /* \"#utility.yul\":9833:9847   */\n      add\n        /* \"#utility.yul\":9819:9831   */\n      dup3\n        /* \"#utility.yul\":9787:9848   */\n      tag_258\n      jump\t// in\n    tag_259:\n        /* \"#utility.yul\":9693:9858   */\n      pop\n        /* \"#utility.yul\":9114:9865   */\n      pop\n        /* \"#utility.yul\":8992:9865   */\n      pop\n      pop\n      jump\t// out\n        /* \"#utility.yul\":9935:10818   */\n    tag_260:\n        /* \"#utility.yul\":10098:10102   */\n      0x80\n        /* \"#utility.yul\":10093:10096   */\n      dup3\n        /* \"#utility.yul\":10089:10103   */\n      add\n        /* \"#utility.yul\":10189:10193   */\n      0x00\n        /* \"#utility.yul\":10182:10187   */\n      dup3\n        /* \"#utility.yul\":10178:10194   */\n      add\n        /* \"#utility.yul\":10172:10195   */\n      mload\n        /* \"#utility.yul\":10208:10267   */\n      tag_262\n        /* \"#utility.yul\":10261:10265   */\n      0x00\n        /* \"#utility.yul\":10256:10259   */\n      dup6\n        /* \"#utility.yul\":10252:10266   */\n      add\n        /* \"#utility.yul\":10238:10250   */\n      dup3\n        /* \"#utility.yul\":10208:10267   */\n      tag_255\n      jump\t// in\n    tag_262:\n        /* \"#utility.yul\":10113:10277   */\n      pop\n        /* \"#utility.yul\":10363:10367   */\n      0x20\n        /* \"#utility.yul\":10356:10361   */\n      dup3\n        /* \"#utility.yul\":10352:10368   */\n      add\n        /* \"#utility.yul\":10346:10369   */\n      mload\n        /* \"#utility.yul\":10382:10441   */\n      tag_263\n        /* \"#utility.yul\":10435:10439   */\n      0x20\n        /* \"#utility.yul\":10430:10433   */\n      dup6\n        /* \"#utility.yul\":10426:10440   */\n      add\n        /* \"#utility.yul\":10412:10424   */\n      dup3\n        /* \"#utility.yul\":10382:10441   */\n      tag_255\n      jump\t// in\n    tag_263:\n        /* \"#utility.yul\":10287:10451   */\n      pop\n        /* \"#utility.yul\":10546:10550   */\n      0x40\n        /* \"#utility.yul\":10539:10544   */\n      dup3\n        /* \"#utility.yul\":10535:10551   */\n      add\n        /* \"#utility.yul\":10529:10552   */\n      mload\n        /* \"#utility.yul\":10565:10626   */\n      tag_264\n        /* \"#utility.yul\":10620:10624   */\n      0x40\n        /* \"#utility.yul\":10615:10618   */\n      dup6\n        /* \"#utility.yul\":10611:10625   */\n      add\n        /* \"#utility.yul\":10597:10609   */\n      dup3\n        /* \"#utility.yul\":10565:10626   */\n      tag_258\n      jump\t// in\n    tag_264:\n        /* \"#utility.yul\":10461:10636   */\n      pop\n        /* \"#utility.yul\":10721:10725   */\n      0x60\n        /* \"#utility.yul\":10714:10719   */\n      dup3\n        /* \"#utility.yul\":10710:10726   */\n      add\n        /* \"#utility.yul\":10704:10727   */\n      mload\n        /* \"#utility.yul\":10740:10801   */\n      tag_265\n        /* \"#utility.yul\":10795:10799   */\n      0x60\n        /* \"#utility.yul\":10790:10793   */\n      dup6\n        /* \"#utility.yul\":10786:10800   */\n      add\n        /* \"#utility.yul\":10772:10784   */\n      dup3\n        /* \"#utility.yul\":10740:10801   */\n      tag_258\n      jump\t// in\n    tag_265:\n        /* \"#utility.yul\":10646:10811   */\n      pop\n        /* \"#utility.yul\":10067:10818   */\n      pop\n        /* \"#utility.yul\":9935:10818   */\n      pop\n      pop\n      jump\t// out\n        /* \"#utility.yul\":10824:10929   */\n    tag_258:\n        /* \"#utility.yul\":10899:10922   */\n      tag_267\n        /* \"#utility.yul\":10916:10921   */\n      dup2\n        /* \"#utility.yul\":10899:10922   */\n      tag_268\n      jump\t// in\n    tag_267:\n        /* \"#utility.yul\":10894:10897   */\n      dup3\n        /* \"#utility.yul\":10887:10923   */\n      mstore\n        /* \"#utility.yul\":10824:10929   */\n      pop\n      pop\n      jump\t// out\n        /* \"#utility.yul\":10935:11037   */\n    tag_255:\n        /* \"#utility.yul\":11008:11030   */\n      tag_270\n        /* \"#utility.yul\":11024:11029   */\n      dup2\n        /* \"#utility.yul\":11008:11030   */\n      tag_271\n      jump\t// in\n    tag_270:\n        /* \"#utility.yul\":11003:11006   */\n      dup3\n        /* \"#utility.yul\":10996:11031   */\n      mstore\n        /* \"#utility.yul\":10935:11037   */\n      pop\n      pop\n      jump\t// out\n        /* \"#utility.yul\":11043:11318   */\n    tag_51:\n        /* \"#utility.yul\":11175:11178   */\n      0x00\n        /* \"#utility.yul\":11197:11292   */\n      tag_273\n        /* \"#utility.yul\":11288:11291   */\n      dup3\n        /* \"#utility.yul\":11279:11285   */\n      dup5\n        /* \"#utility.yul\":11197:11292   */\n      tag_232\n      jump\t// in\n    tag_273:\n        /* \"#utility.yul\":11190:11292   */\n      swap2\n      pop\n        /* \"#utility.yul\":11309:11312   */\n      dup2\n        /* \"#utility.yul\":11302:11312   */\n      swap1\n      pop\n        /* \"#utility.yul\":11043:11318   */\n      swap3\n      swap2\n      pop\n      pop\n      jump\t// out\n        /* \"#utility.yul\":11324:12131   */\n    tag_53:\n        /* \"#utility.yul\":11658:11661   */\n      0x00\n        /* \"#utility.yul\":11680:11828   */\n      tag_275\n        /* \"#utility.yul\":11824:11827   */\n      dup3\n        /* \"#utility.yul\":11680:11828   */\n      tag_248\n      jump\t// in\n    tag_275:\n        /* \"#utility.yul\":11673:11828   */\n      swap2\n      pop\n        /* \"#utility.yul\":11845:11940   */\n      tag_276\n        /* \"#utility.yul\":11936:11939   */\n      dup3\n        /* \"#utility.yul\":11927:11933   */\n      dup5\n        /* \"#utility.yul\":11845:11940   */\n      tag_232\n      jump\t// in\n    tag_276:\n        /* \"#utility.yul\":11838:11940   */\n      swap2\n      pop\n        /* \"#utility.yul\":11957:12105   */\n      tag_277\n        /* \"#utility.yul\":12101:12104   */\n      dup3\n        /* \"#utility.yul\":11957:12105   */\n      tag_243\n      jump\t// in\n    tag_277:\n        /* \"#utility.yul\":11950:12105   */\n      swap2\n      pop\n        /* \"#utility.yul\":12122:12125   */\n      dup2\n        /* \"#utility.yul\":12115:12125   */\n      swap1\n      pop\n        /* \"#utility.yul\":11324:12131   */\n      swap3\n      swap2\n      pop\n      pop\n      jump\t// out\n        /* \"#utility.yul\":12137:13244   */\n    tag_10:\n        /* \"#utility.yul\":12542:12546   */\n      0x00\n        /* \"#utility.yul\":12580:12582   */\n      0x60\n        /* \"#utility.yul\":12569:12578   */\n      dup3\n        /* \"#utility.yul\":12565:12583   */\n      add\n        /* \"#utility.yul\":12557:12583   */\n      swap1\n      pop\n        /* \"#utility.yul\":12629:12638   */\n      dup2\n        /* \"#utility.yul\":12623:12627   */\n      dup2\n        /* \"#utility.yul\":12619:12639   */\n      sub\n        /* \"#utility.yul\":12615:12616   */\n      0x00\n        /* \"#utility.yul\":12604:12613   */\n      dup4\n        /* \"#utility.yul\":12600:12617   */\n      add\n        /* \"#utility.yul\":12593:12640   */\n      mstore\n        /* \"#utility.yul\":12657:12785   */\n      tag_279\n        /* \"#utility.yul\":12780:12784   */\n      dup2\n        /* \"#utility.yul\":12771:12777   */\n      dup7\n        /* \"#utility.yul\":12657:12785   */\n      tag_188\n      jump\t// in\n    tag_279:\n        /* \"#utility.yul\":12649:12785   */\n      swap1\n      pop\n        /* \"#utility.yul\":12832:12841   */\n      dup2\n        /* \"#utility.yul\":12826:12830   */\n      dup2\n        /* \"#utility.yul\":12822:12842   */\n      sub\n        /* \"#utility.yul\":12817:12819   */\n      0x20\n        /* \"#utility.yul\":12806:12815   */\n      dup4\n        /* \"#utility.yul\":12802:12820   */\n      add\n        /* \"#utility.yul\":12795:12843   */\n      mstore\n        /* \"#utility.yul\":12860:12988   */\n      tag_280\n        /* \"#utility.yul\":12983:12987   */\n      dup2\n        /* \"#utility.yul\":12974:12980   */\n      dup6\n        /* \"#utility.yul\":12860:12988   */\n      tag_188\n      jump\t// in\n    tag_280:\n        /* \"#utility.yul\":12852:12988   */\n      swap1\n      pop\n        /* \"#utility.yul\":13035:13044   */\n      dup2\n        /* \"#utility.yul\":13029:13033   */\n      dup2\n        /* \"#utility.yul\":13025:13045   */\n      sub\n        /* \"#utility.yul\":13020:13022   */\n      0x40\n        /* \"#utility.yul\":13009:13018   */\n      dup4\n        /* \"#utility.yul\":13005:13023   */\n      add\n        /* \"#utility.yul\":12998:13046   */\n      mstore\n        /* \"#utility.yul\":13063:13237   */\n      tag_281\n        /* \"#utility.yul\":13232:13236   */\n      dup2\n        /* \"#utility.yul\":13223:13229   */\n      dup5\n        /* \"#utility.yul\":13063:13237   */\n      tag_202\n      jump\t// in\n    tag_281:\n        /* \"#utility.yul\":13055:13237   */\n      swap1\n      pop\n        /* \"#utility.yul\":12137:13244   */\n      swap5\n      swap4\n      pop\n      pop\n      pop\n      pop\n      jump\t// out\n        /* \"#utility.yul\":13250:13563   */\n    tag_20:\n        /* \"#utility.yul\":13363:13367   */\n      0x00\n        /* \"#utility.yul\":13401:13403   */\n      0x20\n        /* \"#utility.yul\":13390:13399   */\n      dup3\n        /* \"#utility.yul\":13386:13404   */\n      add\n        /* \"#utility.yul\":13378:13404   */\n      swap1\n      pop\n        /* \"#utility.yul\":13450:13459   */\n      dup2\n        /* \"#utility.yul\":13444:13448   */\n      dup2\n        /* \"#utility.yul\":13440:13460   */\n      sub\n        /* \"#utility.yul\":13436:13437   */\n      0x00\n        /* \"#utility.yul\":13425:13434   */\n      dup4\n        /* \"#utility.yul\":13421:13438   */\n      add\n        /* \"#utility.yul\":13414:13461   */\n      mstore\n        /* \"#utility.yul\":13478:13556   */\n      tag_283\n        /* \"#utility.yul\":13551:13555   */\n      dup2\n        /* \"#utility.yul\":13542:13548   */\n      dup5\n        /* \"#utility.yul\":13478:13556   */\n      tag_225\n      jump\t// in\n    tag_283:\n        /* \"#utility.yul\":13470:13556   */\n      swap1\n      pop\n        /* \"#utility.yul\":13250:13563   */\n      swap3\n      swap2\n      pop\n      pop\n      jump\t// out\n        /* \"#utility.yul\":13569:13988   */\n    tag_103:\n        /* \"#utility.yul\":13735:13739   */\n      0x00\n        /* \"#utility.yul\":13773:13775   */\n      0x20\n        /* \"#utility.yul\":13762:13771   */\n      dup3\n        /* \"#utility.yul\":13758:13776   */\n      add\n        /* \"#utility.yul\":13750:13776   */\n      swap1\n      pop\n        /* \"#utility.yul\":13822:13831   */\n      dup2\n        /* \"#utility.yul\":13816:13820   */\n      dup2\n        /* \"#utility.yul\":13812:13832   */\n      sub\n        /* \"#utility.yul\":13808:13809   */\n      0x00\n        /* \"#utility.yul\":13797:13806   */\n      dup4\n        /* \"#utility.yul\":13793:13810   */\n      add\n        /* \"#utility.yul\":13786:13833   */\n      mstore\n        /* \"#utility.yul\":13850:13981   */\n      tag_285\n        /* \"#utility.yul\":13976:13980   */\n      dup2\n        /* \"#utility.yul\":13850:13981   */\n      tag_238\n      jump\t// in\n    tag_285:\n        /* \"#utility.yul\":13842:13981   */\n      swap1\n      pop\n        /* \"#utility.yul\":13569:13988   */\n      swap2\n      swap1\n      pop\n      jump\t// out\n        /* \"#utility.yul\":13994:14349   */\n    tag_26:\n        /* \"#utility.yul\":14153:14157   */\n      0x00\n        /* \"#utility.yul\":14191:14194   */\n      0x80\n        /* \"#utility.yul\":14180:14189   */\n      dup3\n        /* \"#utility.yul\":14176:14195   */\n      add\n        /* \"#utility.yul\":14168:14195   */\n      swap1\n      pop\n        /* \"#utility.yul\":14205:14342   */\n      tag_287\n        /* \"#utility.yul\":14339:14340   */\n      0x00\n        /* \"#utility.yul\":14328:14337   */\n      dup4\n        /* \"#utility.yul\":14324:14341   */\n      add\n        /* \"#utility.yul\":14315:14321   */\n      dup5\n        /* \"#utility.yul\":14205:14342   */\n      tag_260\n      jump\t// in\n    tag_287:\n        /* \"#utility.yul\":13994:14349   */\n      swap3\n      swap2\n      pop\n      pop\n      jump\t// out\n        /* \"#utility.yul\":14355:14484   */\n    tag_128:\n        /* \"#utility.yul\":14389:14395   */\n      0x00\n        /* \"#utility.yul\":14416:14436   */\n      tag_289\n      tag_290\n      jump\t// in\n    tag_289:\n        /* \"#utility.yul\":14406:14436   */\n      swap1\n      pop\n        /* \"#utility.yul\":14445:14478   */\n      tag_291\n        /* \"#utility.yul\":14473:14477   */\n      dup3\n        /* \"#utility.yul\":14465:14471   */\n      dup3\n        /* \"#utility.yul\":14445:14478   */\n      tag_292\n      jump\t// in\n    tag_291:\n        /* \"#utility.yul\":14355:14484   */\n      swap2\n      swap1\n      pop\n      jump\t// out\n        /* \"#utility.yul\":14490:14565   */\n    tag_290:\n        /* \"#utility.yul\":14523:14529   */\n      0x00\n        /* \"#utility.yul\":14556:14558   */\n      0x40\n        /* \"#utility.yul\":14550:14559   */\n      mload\n        /* \"#utility.yul\":14540:14559   */\n      swap1\n      pop\n        /* \"#utility.yul\":14490:14565   */\n      swap1\n      jump\t// out\n        /* \"#utility.yul\":14571:14879   */\n    tag_127:\n        /* \"#utility.yul\":14633:14637   */\n      0x00\n        /* \"#utility.yul\":14723:14741   */\n      0xffffffffffffffff\n        /* \"#utility.yul\":14715:14721   */\n      dup3\n        /* \"#utility.yul\":14712:14742   */\n      gt\n        /* \"#utility.yul\":14709:14765   */\n      iszero\n      tag_295\n      jumpi\n        /* \"#utility.yul\":14745:14763   */\n      tag_296\n      tag_297\n      jump\t// in\n    tag_296:\n        /* \"#utility.yul\":14709:14765   */\n    tag_295:\n        /* \"#utility.yul\":14783:14812   */\n      tag_298\n        /* \"#utility.yul\":14805:14811   */\n      dup3\n        /* \"#utility.yul\":14783:14812   */\n      tag_224\n      jump\t// in\n    tag_298:\n        /* \"#utility.yul\":14775:14812   */\n      swap1\n      pop\n        /* \"#utility.yul\":14867:14871   */\n      0x20\n        /* \"#utility.yul\":14861:14865   */\n      dup2\n        /* \"#utility.yul\":14857:14872   */\n      add\n        /* \"#utility.yul\":14849:14872   */\n      swap1\n      pop\n        /* \"#utility.yul\":14571:14879   */\n      swap2\n      swap1\n      pop\n      jump\t// out\n        /* \"#utility.yul\":14885:15027   */\n    tag_195:\n        /* \"#utility.yul\":14962:14966   */\n      0x00\n        /* \"#utility.yul\":14985:14988   */\n      dup2\n        /* \"#utility.yul\":14977:14988   */\n      swap1\n      pop\n        /* \"#utility.yul\":15015:15019   */\n      0x20\n        /* \"#utility.yul\":15010:15013   */\n      dup3\n        /* \"#utility.yul\":15006:15020   */\n      add\n        /* \"#utility.yul\":14998:15020   */\n      swap1\n      pop\n        /* \"#utility.yul\":14885:15027   */\n      swap2\n      swap1\n      pop\n      jump\t// out\n        /* \"#utility.yul\":15033:15198   */\n    tag_209:\n        /* \"#utility.yul\":15133:15137   */\n      0x00\n        /* \"#utility.yul\":15156:15159   */\n      dup2\n        /* \"#utility.yul\":15148:15159   */\n      swap1\n      pop\n        /* \"#utility.yul\":15186:15190   */\n      0x20\n        /* \"#utility.yul\":15181:15184   */\n      dup3\n        /* \"#utility.yul\":15177:15191   */\n      add\n        /* \"#utility.yul\":15169:15191   */\n      swap1\n      pop\n        /* \"#utility.yul\":15033:15198   */\n      swap2\n      swap1\n      pop\n      jump\t// out\n        /* \"#utility.yul\":15204:15328   */\n    tag_191:\n        /* \"#utility.yul\":15281:15287   */\n      0x00\n        /* \"#utility.yul\":15315:15320   */\n      dup2\n        /* \"#utility.yul\":15309:15321   */\n      mload\n        /* \"#utility.yul\":15299:15321   */\n      swap1\n      pop\n        /* \"#utility.yul\":15204:15328   */\n      swap2\n      swap1\n      pop\n      jump\t// out\n        /* \"#utility.yul\":15334:15481   */\n    tag_205:\n        /* \"#utility.yul\":15434:15440   */\n      0x00\n        /* \"#utility.yul\":15468:15473   */\n      dup2\n        /* \"#utility.yul\":15462:15474   */\n      mload\n        /* \"#utility.yul\":15452:15474   */\n      swap1\n      pop\n        /* \"#utility.yul\":15334:15481   */\n      swap2\n      swap1\n      pop\n      jump\t// out\n        /* \"#utility.yul\":15487:15586   */\n    tag_218:\n        /* \"#utility.yul\":15539:15545   */\n      0x00\n        /* \"#utility.yul\":15573:15578   */\n      dup2\n        /* \"#utility.yul\":15567:15579   */\n      mload\n        /* \"#utility.yul\":15557:15579   */\n      swap1\n      pop\n        /* \"#utility.yul\":15487:15586   */\n      swap2\n      swap1\n      pop\n      jump\t// out\n        /* \"#utility.yul\":15592:15715   */\n    tag_201:\n        /* \"#utility.yul\":15672:15676   */\n      0x00\n        /* \"#utility.yul\":15704:15708   */\n      0x20\n        /* \"#utility.yul\":15699:15702   */\n      dup3\n        /* \"#utility.yul\":15695:15709   */\n      add\n        /* \"#utility.yul\":15687:15709   */\n      swap1\n      pop\n        /* \"#utility.yul\":15592:15715   */\n      swap2\n      swap1\n      pop\n      jump\t// out\n        /* \"#utility.yul\":15721:15867   */\n    tag_215:\n        /* \"#utility.yul\":15824:15828   */\n      0x00\n        /* \"#utility.yul\":15856:15860   */\n      0x20\n        /* \"#utility.yul\":15851:15854   */\n      dup3\n        /* \"#utility.yul\":15847:15861   */\n      add\n        /* \"#utility.yul\":15839:15861   */\n      swap1\n      pop\n        /* \"#utility.yul\":15721:15867   */\n      swap2\n      swap1\n      pop\n      jump\t// out\n        /* \"#utility.yul\":15873:16067   */\n    tag_193:\n        /* \"#utility.yul\":15982:15993   */\n      0x00\n        /* \"#utility.yul\":16016:16022   */\n      dup3\n        /* \"#utility.yul\":16011:16014   */\n      dup3\n        /* \"#utility.yul\":16004:16023   */\n      mstore\n        /* \"#utility.yul\":16056:16060   */\n      0x20\n        /* \"#utility.yul\":16051:16054   */\n      dup3\n        /* \"#utility.yul\":16047:16061   */\n      add\n        /* \"#utility.yul\":16032:16061   */\n      swap1\n      pop\n        /* \"#utility.yul\":15873:16067   */\n      swap3\n      swap2\n      pop\n      pop\n      jump\t// out\n        /* \"#utility.yul\":16073:16290   */\n    tag_207:\n        /* \"#utility.yul\":16205:16216   */\n      0x00\n        /* \"#utility.yul\":16239:16245   */\n      dup3\n        /* \"#utility.yul\":16234:16237   */\n      dup3\n        /* \"#utility.yul\":16227:16246   */\n      mstore\n        /* \"#utility.yul\":16279:16283   */\n      0x20\n        /* \"#utility.yul\":16274:16277   */\n      dup3\n        /* \"#utility.yul\":16270:16284   */\n      add\n        /* \"#utility.yul\":16255:16284   */\n      swap1\n      pop\n        /* \"#utility.yul\":16073:16290   */\n      swap3\n      swap2\n      pop\n      pop\n      jump\t// out\n        /* \"#utility.yul\":16296:16455   */\n    tag_220:\n        /* \"#utility.yul\":16370:16381   */\n      0x00\n        /* \"#utility.yul\":16404:16410   */\n      dup3\n        /* \"#utility.yul\":16399:16402   */\n      dup3\n        /* \"#utility.yul\":16392:16411   */\n      mstore\n        /* \"#utility.yul\":16444:16448   */\n      0x20\n        /* \"#utility.yul\":16439:16442   */\n      dup3\n        /* \"#utility.yul\":16435:16449   */\n      add\n        /* \"#utility.yul\":16420:16449   */\n      swap1\n      pop\n        /* \"#utility.yul\":16296:16455   */\n      swap3\n      swap2\n      pop\n      pop\n      jump\t// out\n        /* \"#utility.yul\":16461:16630   */\n    tag_229:\n        /* \"#utility.yul\":16545:16556   */\n      0x00\n        /* \"#utility.yul\":16579:16585   */\n      dup3\n        /* \"#utility.yul\":16574:16577   */\n      dup3\n        /* \"#utility.yul\":16567:16586   */\n      mstore\n        /* \"#utility.yul\":16619:16623   */\n      0x20\n        /* \"#utility.yul\":16614:16617   */\n      dup3\n        /* \"#utility.yul\":16610:16624   */\n      add\n        /* \"#utility.yul\":16595:16624   */\n      swap1\n      pop\n        /* \"#utility.yul\":16461:16630   */\n      swap3\n      swap2\n      pop\n      pop\n      jump\t// out\n        /* \"#utility.yul\":16636:16784   */\n    tag_236:\n        /* \"#utility.yul\":16738:16749   */\n      0x00\n        /* \"#utility.yul\":16775:16778   */\n      dup2\n        /* \"#utility.yul\":16760:16778   */\n      swap1\n      pop\n        /* \"#utility.yul\":16636:16784   */\n      swap3\n      swap2\n      pop\n      pop\n      jump\t// out\n        /* \"#utility.yul\":16790:17036   */\n    tag_91:\n        /* \"#utility.yul\":16829:16832   */\n      0x00\n        /* \"#utility.yul\":16848:16867   */\n      tag_312\n        /* \"#utility.yul\":16865:16866   */\n      dup3\n        /* \"#utility.yul\":16848:16867   */\n      tag_268\n      jump\t// in\n    tag_312:\n        /* \"#utility.yul\":16843:16867   */\n      swap2\n      pop\n        /* \"#utility.yul\":16881:16900   */\n      tag_313\n        /* \"#utility.yul\":16898:16899   */\n      dup4\n        /* \"#utility.yul\":16881:16900   */\n      tag_268\n      jump\t// in\n    tag_313:\n        /* \"#utility.yul\":16876:16900   */\n      swap3\n      pop\n        /* \"#utility.yul\":16978:16979   */\n      dup3\n        /* \"#utility.yul\":16966:16976   */\n      0xffffffff\n        /* \"#utility.yul\":16962:16980   */\n      sub\n        /* \"#utility.yul\":16959:16960   */\n      dup3\n        /* \"#utility.yul\":16956:16981   */\n      gt\n        /* \"#utility.yul\":16953:17004   */\n      iszero\n      tag_314\n      jumpi\n        /* \"#utility.yul\":16984:17002   */\n      tag_315\n      tag_316\n      jump\t// in\n    tag_315:\n        /* \"#utility.yul\":16953:17004   */\n    tag_314:\n        /* \"#utility.yul\":17028:17029   */\n      dup3\n        /* \"#utility.yul\":17025:17026   */\n      dup3\n        /* \"#utility.yul\":17021:17030   */\n      add\n        /* \"#utility.yul\":17014:17030   */\n      swap1\n      pop\n        /* \"#utility.yul\":16790:17036   */\n      swap3\n      swap2\n      pop\n      pop\n      jump\t// out\n        /* \"#utility.yul\":17042:17331   */\n    tag_99:\n        /* \"#utility.yul\":17081:17088   */\n      0x00\n        /* \"#utility.yul\":17104:17123   */\n      tag_318\n        /* \"#utility.yul\":17121:17122   */\n      dup3\n        /* \"#utility.yul\":17104:17123   */\n      tag_268\n      jump\t// in\n    tag_318:\n        /* \"#utility.yul\":17099:17123   */\n      swap2\n      pop\n        /* \"#utility.yul\":17137:17156   */\n      tag_319\n        /* \"#utility.yul\":17154:17155   */\n      dup4\n        /* \"#utility.yul\":17137:17156   */\n      tag_268\n      jump\t// in\n    tag_319:\n        /* \"#utility.yul\":17132:17156   */\n      swap3\n      pop\n        /* \"#utility.yul\":17268:17269   */\n      dup2\n        /* \"#utility.yul\":17256:17266   */\n      0xffffffff\n        /* \"#utility.yul\":17252:17270   */\n      div\n        /* \"#utility.yul\":17249:17250   */\n      dup4\n        /* \"#utility.yul\":17246:17271   */\n      gt\n        /* \"#utility.yul\":17241:17242   */\n      dup3\n        /* \"#utility.yul\":17234:17243   */\n      iszero\n        /* \"#utility.yul\":17227:17244   */\n      iszero\n        /* \"#utility.yul\":17223:17272   */\n      and\n        /* \"#utility.yul\":17220:17295   */\n      iszero\n      tag_320\n      jumpi\n        /* \"#utility.yul\":17275:17293   */\n      tag_321\n      tag_316\n      jump\t// in\n    tag_321:\n        /* \"#utility.yul\":17220:17295   */\n    tag_320:\n        /* \"#utility.yul\":17323:17324   */\n      dup3\n        /* \"#utility.yul\":17320:17321   */\n      dup3\n        /* \"#utility.yul\":17316:17325   */\n      mul\n        /* \"#utility.yul\":17305:17325   */\n      swap1\n      pop\n        /* \"#utility.yul\":17042:17331   */\n      swap3\n      swap2\n      pop\n      pop\n      jump\t// out\n        /* \"#utility.yul\":17337:17414   */\n    tag_322:\n        /* \"#utility.yul\":17374:17381   */\n      0x00\n        /* \"#utility.yul\":17403:17408   */\n      dup2\n        /* \"#utility.yul\":17392:17408   */\n      swap1\n      pop\n        /* \"#utility.yul\":17337:17414   */\n      swap2\n      swap1\n      pop\n      jump\t// out\n        /* \"#utility.yul\":17420:17513   */\n    tag_268:\n        /* \"#utility.yul\":17456:17463   */\n      0x00\n        /* \"#utility.yul\":17496:17506   */\n      0xffffffff\n        /* \"#utility.yul\":17489:17494   */\n      dup3\n        /* \"#utility.yul\":17485:17507   */\n      and\n        /* \"#utility.yul\":17474:17507   */\n      swap1\n      pop\n        /* \"#utility.yul\":17420:17513   */\n      swap2\n      swap1\n      pop\n      jump\t// out\n        /* \"#utility.yul\":17519:17605   */\n    tag_271:\n        /* \"#utility.yul\":17554:17561   */\n      0x00\n        /* \"#utility.yul\":17594:17598   */\n      0xff\n        /* \"#utility.yul\":17587:17592   */\n      dup3\n        /* \"#utility.yul\":17583:17599   */\n      and\n        /* \"#utility.yul\":17572:17599   */\n      swap1\n      pop\n        /* \"#utility.yul\":17519:17605   */\n      swap2\n      swap1\n      pop\n      jump\t// out\n        /* \"#utility.yul\":17611:17765   */\n    tag_133:\n        /* \"#utility.yul\":17695:17701   */\n      dup3\n        /* \"#utility.yul\":17690:17693   */\n      dup2\n        /* \"#utility.yul\":17685:17688   */\n      dup4\n        /* \"#utility.yul\":17672:17702   */\n      calldatacopy\n        /* \"#utility.yul\":17757:17758   */\n      0x00\n        /* \"#utility.yul\":17748:17754   */\n      dup4\n        /* \"#utility.yul\":17743:17746   */\n      dup4\n        /* \"#utility.yul\":17739:17755   */\n      add\n        /* \"#utility.yul\":17732:17759   */\n      mstore\n        /* \"#utility.yul\":17611:17765   */\n      pop\n      pop\n      pop\n      jump\t// out\n        /* \"#utility.yul\":17771:18078   */\n    tag_222:\n        /* \"#utility.yul\":17839:17840   */\n      0x00\n        /* \"#utility.yul\":17849:17962   */\n    tag_328:\n        /* \"#utility.yul\":17863:17869   */\n      dup4\n        /* \"#utility.yul\":17860:17861   */\n      dup2\n        /* \"#utility.yul\":17857:17870   */\n      lt\n        /* \"#utility.yul\":17849:17962   */\n      iszero\n      tag_330\n      jumpi\n        /* \"#utility.yul\":17948:17949   */\n      dup1\n        /* \"#utility.yul\":17943:17946   */\n      dup3\n        /* \"#utility.yul\":17939:17950   */\n      add\n        /* \"#utility.yul\":17933:17951   */\n      mload\n        /* \"#utility.yul\":17929:17930   */\n      dup2\n        /* \"#utility.yul\":17924:17927   */\n      dup5\n        /* \"#utility.yul\":17920:17931   */\n      add\n        /* \"#utility.yul\":17913:17952   */\n      mstore\n        /* \"#utility.yul\":17885:17887   */\n      0x20\n        /* \"#utility.yul\":17882:17883   */\n      dup2\n        /* \"#utility.yul\":17878:17888   */\n      add\n        /* \"#utility.yul\":17873:17888   */\n      swap1\n      pop\n        /* \"#utility.yul\":17849:17962   */\n      jump(tag_328)\n    tag_330:\n        /* \"#utility.yul\":17980:17986   */\n      dup4\n        /* \"#utility.yul\":17977:17978   */\n      dup2\n        /* \"#utility.yul\":17974:17987   */\n      gt\n        /* \"#utility.yul\":17971:18072   */\n      iszero\n      tag_331\n      jumpi\n        /* \"#utility.yul\":18060:18061   */\n      0x00\n        /* \"#utility.yul\":18051:18057   */\n      dup5\n        /* \"#utility.yul\":18046:18049   */\n      dup5\n        /* \"#utility.yul\":18042:18058   */\n      add\n        /* \"#utility.yul\":18035:18062   */\n      mstore\n        /* \"#utility.yul\":17971:18072   */\n    tag_331:\n        /* \"#utility.yul\":17820:18078   */\n      pop\n        /* \"#utility.yul\":17771:18078   */\n      pop\n      pop\n      pop\n      jump\t// out\n        /* \"#utility.yul\":18084:18404   */\n    tag_33:\n        /* \"#utility.yul\":18128:18134   */\n      0x00\n        /* \"#utility.yul\":18165:18166   */\n      0x02\n        /* \"#utility.yul\":18159:18163   */\n      dup3\n        /* \"#utility.yul\":18155:18167   */\n      div\n        /* \"#utility.yul\":18145:18167   */\n      swap1\n      pop\n        /* \"#utility.yul\":18212:18213   */\n      0x01\n        /* \"#utility.yul\":18206:18210   */\n      dup3\n        /* \"#utility.yul\":18202:18214   */\n      and\n        /* \"#utility.yul\":18233:18251   */\n      dup1\n        /* \"#utility.yul\":18223:18304   */\n      tag_333\n      jumpi\n        /* \"#utility.yul\":18289:18293   */\n      0x7f\n        /* \"#utility.yul\":18281:18287   */\n      dup3\n        /* \"#utility.yul\":18277:18294   */\n      and\n        /* \"#utility.yul\":18267:18294   */\n      swap2\n      pop\n        /* \"#utility.yul\":18223:18304   */\n    tag_333:\n        /* \"#utility.yul\":18351:18353   */\n      0x20\n        /* \"#utility.yul\":18343:18349   */\n      dup3\n        /* \"#utility.yul\":18340:18354   */\n      lt\n        /* \"#utility.yul\":18320:18338   */\n      dup2\n        /* \"#utility.yul\":18317:18355   */\n      eq\n        /* \"#utility.yul\":18314:18398   */\n      iszero\n      tag_334\n      jumpi\n        /* \"#utility.yul\":18370:18388   */\n      tag_335\n      tag_336\n      jump\t// in\n    tag_335:\n        /* \"#utility.yul\":18314:18398   */\n    tag_334:\n        /* \"#utility.yul\":18135:18404   */\n      pop\n        /* \"#utility.yul\":18084:18404   */\n      swap2\n      swap1\n      pop\n      jump\t// out\n        /* \"#utility.yul\":18410:18691   */\n    tag_292:\n        /* \"#utility.yul\":18493:18520   */\n      tag_338\n        /* \"#utility.yul\":18515:18519   */\n      dup3\n        /* \"#utility.yul\":18493:18520   */\n      tag_224\n      jump\t// in\n    tag_338:\n        /* \"#utility.yul\":18485:18491   */\n      dup2\n        /* \"#utility.yul\":18481:18521   */\n      add\n        /* \"#utility.yul\":18623:18629   */\n      dup2\n        /* \"#utility.yul\":18611:18621   */\n      dup2\n        /* \"#utility.yul\":18608:18630   */\n      lt\n        /* \"#utility.yul\":18587:18605   */\n      0xffffffffffffffff\n        /* \"#utility.yul\":18575:18585   */\n      dup3\n        /* \"#utility.yul\":18572:18606   */\n      gt\n        /* \"#utility.yul\":18569:18631   */\n      or\n        /* \"#utility.yul\":18566:18654   */\n      iszero\n      tag_339\n      jumpi\n        /* \"#utility.yul\":18634:18652   */\n      tag_340\n      tag_297\n      jump\t// in\n    tag_340:\n        /* \"#utility.yul\":18566:18654   */\n    tag_339:\n        /* \"#utility.yul\":18674:18684   */\n      dup1\n        /* \"#utility.yul\":18670:18672   */\n      0x40\n        /* \"#utility.yul\":18663:18685   */\n      mstore\n        /* \"#utility.yul\":18453:18691   */\n      pop\n        /* \"#utility.yul\":18410:18691   */\n      pop\n      pop\n      jump\t// out\n        /* \"#utility.yul\":18697:18877   */\n    tag_316:\n        /* \"#utility.yul\":18745:18822   */\n      0x4e487b7100000000000000000000000000000000000000000000000000000000\n        /* \"#utility.yul\":18742:18743   */\n      0x00\n        /* \"#utility.yul\":18735:18823   */\n      mstore\n        /* \"#utility.yul\":18842:18846   */\n      0x11\n        /* \"#utility.yul\":18839:18840   */\n      0x04\n        /* \"#utility.yul\":18832:18847   */\n      mstore\n        /* \"#utility.yul\":18866:18870   */\n      0x24\n        /* \"#utility.yul\":18863:18864   */\n      0x00\n        /* \"#utility.yul\":18856:18871   */\n      revert\n        /* \"#utility.yul\":18883:19063   */\n    tag_336:\n        /* \"#utility.yul\":18931:19008   */\n      0x4e487b7100000000000000000000000000000000000000000000000000000000\n        /* \"#utility.yul\":18928:18929   */\n      0x00\n        /* \"#utility.yul\":18921:19009   */\n      mstore\n        /* \"#utility.yul\":19028:19032   */\n      0x22\n        /* \"#utility.yul\":19025:19026   */\n      0x04\n        /* \"#utility.yul\":19018:19033   */\n      mstore\n        /* \"#utility.yul\":19052:19056   */\n      0x24\n        /* \"#utility.yul\":19049:19050   */\n      0x00\n        /* \"#utility.yul\":19042:19057   */\n      revert\n        /* \"#utility.yul\":19069:19249   */\n    tag_64:\n        /* \"#utility.yul\":19117:19194   */\n      0x4e487b7100000000000000000000000000000000000000000000000000000000\n        /* \"#utility.yul\":19114:19115   */\n      0x00\n        /* \"#utility.yul\":19107:19195   */\n      mstore\n        /* \"#utility.yul\":19214:19218   */\n      0x32\n        /* \"#utility.yul\":19211:19212   */\n      0x04\n        /* \"#utility.yul\":19204:19219   */\n      mstore\n        /* \"#utility.yul\":19238:19242   */\n      0x24\n        /* \"#utility.yul\":19235:19236   */\n      0x00\n        /* \"#utility.yul\":19228:19243   */\n      revert\n        /* \"#utility.yul\":19255:19435   */\n    tag_297:\n        /* \"#utility.yul\":19303:19380   */\n      0x4e487b7100000000000000000000000000000000000000000000000000000000\n        /* \"#utility.yul\":19300:19301   */\n      0x00\n        /* \"#utility.yul\":19293:19381   */\n      mstore\n        /* \"#utility.yul\":19400:19404   */\n      0x41\n        /* \"#utility.yul\":19397:19398   */\n      0x04\n        /* \"#utility.yul\":19390:19405   */\n      mstore\n        /* \"#utility.yul\":19424:19428   */\n      0x24\n        /* \"#utility.yul\":19421:19422   */\n      0x00\n        /* \"#utility.yul\":19414:19429   */\n      revert\n        /* \"#utility.yul\":19441:19558   */\n    tag_138:\n        /* \"#utility.yul\":19550:19551   */\n      0x00\n        /* \"#utility.yul\":19547:19548   */\n      dup1\n        /* \"#utility.yul\":19540:19552   */\n      revert\n        /* \"#utility.yul\":19564:19681   */\n    tag_131:\n        /* \"#utility.yul\":19673:19674   */\n      0x00\n        /* \"#utility.yul\":19670:19671   */\n      dup1\n        /* \"#utility.yul\":19663:19675   */\n      revert\n        /* \"#utility.yul\":19687:19804   */\n    tag_154:\n        /* \"#utility.yul\":19796:19797   */\n      0x00\n        /* \"#utility.yul\":19793:19794   */\n      dup1\n        /* \"#utility.yul\":19786:19798   */\n      revert\n        /* \"#utility.yul\":19810:19927   */\n    tag_151:\n        /* \"#utility.yul\":19919:19920   */\n      0x00\n        /* \"#utility.yul\":19916:19917   */\n      dup1\n        /* \"#utility.yul\":19909:19921   */\n      revert\n        /* \"#utility.yul\":19933:20035   */\n    tag_224:\n        /* \"#utility.yul\":19974:19980   */\n      0x00\n        /* \"#utility.yul\":20025:20027   */\n      0x1f\n        /* \"#utility.yul\":20021:20028   */\n      not\n        /* \"#utility.yul\":20016:20018   */\n      0x1f\n        /* \"#utility.yul\":20009:20014   */\n      dup4\n        /* \"#utility.yul\":20005:20019   */\n      add\n        /* \"#utility.yul\":20001:20029   */\n      and\n        /* \"#utility.yul\":19991:20029   */\n      swap1\n      pop\n        /* \"#utility.yul\":19933:20035   */\n      swap2\n      swap1\n      pop\n      jump\t// out\n        /* \"#utility.yul\":20041:20287   */\n    tag_242:\n        /* \"#utility.yul\":20181:20215   */\n      0x546865206d6574686f642067657454696d65496e5365636f6e647320646f6573\n        /* \"#utility.yul\":20177:20178   */\n      0x00\n        /* \"#utility.yul\":20169:20175   */\n      dup3\n        /* \"#utility.yul\":20165:20179   */\n      add\n        /* \"#utility.yul\":20158:20216   */\n      mstore\n        /* \"#utility.yul\":20250:20279   */\n      0x6e277420776f726b20666f72204d4f4e544820616e6420594541520000000000\n        /* \"#utility.yul\":20245:20247   */\n      0x20\n        /* \"#utility.yul\":20237:20243   */\n      dup3\n        /* \"#utility.yul\":20233:20248   */\n      add\n        /* \"#utility.yul\":20226:20280   */\n      mstore\n        /* \"#utility.yul\":20041:20287   */\n      pop\n      jump\t// out\n        /* \"#utility.yul\":20293:20457   */\n    tag_247:\n        /* \"#utility.yul\":20433:20449   */\n      0x646f65736e27742065786973742e000000000000000000000000000000000000\n        /* \"#utility.yul\":20429:20430   */\n      0x00\n        /* \"#utility.yul\":20421:20427   */\n      dup3\n        /* \"#utility.yul\":20417:20431   */\n      add\n        /* \"#utility.yul\":20410:20450   */\n      mstore\n        /* \"#utility.yul\":20293:20457   */\n      pop\n      jump\t// out\n        /* \"#utility.yul\":20463:20621   */\n    tag_252:\n        /* \"#utility.yul\":20603:20613   */\n      0x546865206b657920000000000000000000000000000000000000000000000000\n        /* \"#utility.yul\":20599:20600   */\n      0x00\n        /* \"#utility.yul\":20591:20597   */\n      dup3\n        /* \"#utility.yul\":20587:20601   */\n      add\n        /* \"#utility.yul\":20580:20614   */\n      mstore\n        /* \"#utility.yul\":20463:20621   */\n      pop\n      jump\t// out\n        /* \"#utility.yul\":20627:20749   */\n    tag_143:\n        /* \"#utility.yul\":20700:20724   */\n      tag_354\n        /* \"#utility.yul\":20718:20723   */\n      dup2\n        /* \"#utility.yul\":20700:20724   */\n      tag_322\n      jump\t// in\n    tag_354:\n        /* \"#utility.yul\":20693:20698   */\n      dup2\n        /* \"#utility.yul\":20690:20725   */\n      eq\n        /* \"#utility.yul\":20680:20743   */\n      tag_355\n      jumpi\n        /* \"#utility.yul\":20739:20740   */\n      0x00\n        /* \"#utility.yul\":20736:20737   */\n      dup1\n        /* \"#utility.yul\":20729:20741   */\n      revert\n        /* \"#utility.yul\":20680:20743   */\n    tag_355:\n        /* \"#utility.yul\":20627:20749   */\n      pop\n      jump\t// out\n        /* \"#utility.yul\":20755:20875   */\n    tag_147:\n        /* \"#utility.yul\":20827:20850   */\n      tag_357\n        /* \"#utility.yul\":20844:20849   */\n      dup2\n        /* \"#utility.yul\":20827:20850   */\n      tag_268\n      jump\t// in\n    tag_357:\n        /* \"#utility.yul\":20820:20825   */\n      dup2\n        /* \"#utility.yul\":20817:20851   */\n      eq\n        /* \"#utility.yul\":20807:20869   */\n      tag_358\n      jumpi\n        /* \"#utility.yul\":20865:20866   */\n      0x00\n        /* \"#utility.yul\":20862:20863   */\n      dup1\n        /* \"#utility.yul\":20855:20867   */\n      revert\n        /* \"#utility.yul\":20807:20869   */\n    tag_358:\n        /* \"#utility.yul\":20755:20875   */\n      pop\n      jump\t// out\n\n    auxdata: 0xa2646970667358221220d5a503395e15e84c7478227a24225e5f6c9f9a4f4bcc753176821ef6898a13ae64736f6c63430008070033\n}\n",
				"bytecode": {
					"linkReferences": {},
					"object": "60806040523480156200001157600080fd5b5060006200002d60026000620004ad60201b620007f01760201c565b9080600181540180825580915050600190039060005260206000200160009091909190915060008201518160000160006101000a81548160ff021916908360ff16021790555060208201518160000160016101000a81548160ff021916908360ff16021790555060408201518160000160026101000a81548163ffffffff021916908363ffffffff16021790555060608201518160000160066101000a81548163ffffffff021916908363ffffffff16021790555050506000620000ff60026001620004ad60201b620007f01760201c565b9080600181540180825580915050600190039060005260206000200160009091909190915060008201518160000160006101000a81548160ff021916908360ff16021790555060208201518160000160016101000a81548160ff021916908360ff16021790555060408201518160000160026101000a81548163ffffffff021916908363ffffffff16021790555060608201518160000160066101000a81548163ffffffff021916908363ffffffff16021790555050506000620001d0600280620004ad60201b620007f01760201c565b9080600181540180825580915050600190039060005260206000200160009091909190915060008201518160000160006101000a81548160ff021916908360ff16021790555060208201518160000160016101000a81548160ff021916908360ff16021790555060408201518160000160026101000a81548163ffffffff021916908363ffffffff16021790555060608201518160000160066101000a81548163ffffffff021916908363ffffffff16021790555050506000620002a260026003620004ad60201b620007f01760201c565b9080600181540180825580915050600190039060005260206000200160009091909190915060008201518160000160006101000a81548160ff021916908360ff16021790555060208201518160000160016101000a81548160ff021916908360ff16021790555060408201518160000160026101000a81548163ffffffff021916908363ffffffff16021790555060608201518160000160066101000a81548163ffffffff021916908363ffffffff1602179055505050600280600181540180825580915050600190039060005260206000200160006040518060400160405280600481526020017f6e6f6d650000000000000000000000000000000000000000000000000000000081525090919091509080519060200190620003c892919062000610565b50600280600181540180825580915050600190039060005260206000200160006040518060400160405280600681526020017f6369646164650000000000000000000000000000000000000000000000000000815250909190915090805190602001906200043892919062000610565b50600160046040516200044b906200076f565b908152602001604051809103902060006101000a81548160ff02191690831515021790555060016004604051620004829062000786565b908152602001604051809103902060006101000a81548160ff02191690831515021790555062000965565b620004b7620006a1565b6000600460ff168360ff1611620004e057620004dd8460ff16846200051d60201b60201c565b90505b60405180608001604052808560ff1681526020018460ff1681526020018263ffffffff168152602001600063ffffffff1681525091505092915050565b60008062000531836200054a60201b60201c565b90508084620005419190620007db565b91505092915050565b6000600460ff168260ff16111562000599576040517f08c379a000000000000000000000000000000000000000000000000000000000815260040162000590906200079d565b60405180910390fd5b600060ff168260ff161415620005b357600190506200060b565b600160ff168260ff161415620005cd57603c90506200060b565b600260ff168260ff161415620005e857610e1090506200060b565b600360ff168260ff16141562000604576201518090506200060b565b62093a8090505b919050565b8280546200061e9062000830565b90600052602060002090601f0160209004810192826200064257600085556200068e565b82601f106200065d57805160ff19168380011785556200068e565b828001600101855582156200068e579182015b828111156200068d57825182559160200191906001019062000670565b5b5090506200069d9190620006db565b5090565b6040518060800160405280600060ff168152602001600060ff168152602001600063ffffffff168152602001600063ffffffff1681525090565b5b80821115620006f6576000816000905550600101620006dc565b5090565b600062000709600483620007d0565b91506200071682620008c4565b600482019050919050565b600062000730603b83620007bf565b91506200073d82620008ed565b604082019050919050565b600062000757600683620007d0565b915062000764826200093c565b600682019050919050565b60006200077c82620006fa565b9150819050919050565b6000620007938262000748565b9150819050919050565b60006020820190508181036000830152620007b88162000721565b9050919050565b600082825260208201905092915050565b600081905092915050565b6000620007e88262000820565b9150620007f58362000820565b92508163ffffffff048311821515161562000815576200081462000866565b5b828202905092915050565b600063ffffffff82169050919050565b600060028204905060018216806200084957607f821691505b6020821081141562000860576200085f62000895565b5b50919050565b7f4e487b7100000000000000000000000000000000000000000000000000000000600052601160045260246000fd5b7f4e487b7100000000000000000000000000000000000000000000000000000000600052602260045260246000fd5b7f6e6f6d6500000000000000000000000000000000000000000000000000000000600082015250565b7f546865206d6574686f642067657454696d65496e5365636f6e647320646f657360008201527f6e277420776f726b20666f72204d4f4e544820616e6420594541520000000000602082015250565b7f6369646164650000000000000000000000000000000000000000000000000000600082015250565b61157780620009756000396000f3fe608060405234801561001057600080fd5b506004361061004c5760003560e01c80630a4822c5146100515780631daf751d146100715780634acdc8c61461008d578063dfc305de146100bd575b600080fd5b6100596100ed565b604051610068939291906110a4565b60405180910390f35b61008b60048036038101906100869190610cee565b610384565b005b6100a760048036038101906100a29190610c63565b61062d565b6040516100b491906110f0565b60405180910390f35b6100d760048036038101906100d29190610beb565b610715565b6040516100e49190611132565b60405180910390f35b606080606060026003600082805480602002602001604051908101604052809291908181526020016000905b828210156101c55783829060005260206000200180546101389061132e565b80601f01602080910402602001604051908101604052809291908181526020018280546101649061132e565b80156101b15780601f10610186576101008083540402835291602001916101b1565b820191906000526020600020905b81548152906001019060200180831161019457829003601f168201915b505050505081526020019060010190610119565b50505050925081805480602002602001604051908101604052809291908181526020016000905b8282101561029857838290600052602060002001805461020b9061132e565b80601f01602080910402602001604051908101604052809291908181526020018280546102379061132e565b80156102845780601f1061025957610100808354040283529160200191610284565b820191906000526020600020905b81548152906001019060200180831161026757829003601f168201915b5050505050815260200190600101906101ec565b50505050915080805480602002602001604051908101604052809291908181526020016000905b82821015610373578382906000526020600020016040518060800160405290816000820160009054906101000a900460ff1660ff1660ff1681526020016000820160019054906101000a900460ff1660ff1660ff1681526020016000820160029054906101000a900463ffffffff1663ffffffff1663ffffffff1681526020016000820160069054906101000a900463ffffffff1663ffffffff1663ffffffff1681525050815260200190600101906102bf565b505050509050925092509250909192565b6004836040516103949190611060565b908152602001604051809103902060009054906101000a900460ff16836040516020016103c19190611077565b60405160208183030381529060405290610411576040517f08c379a000000000000000000000000000000000000000000000000000000000815260040161040891906110f0565b60405180910390fd5b506005826040516104229190611060565b908152602001604051809103902060009054906101000a900460ff166105db5760016005836040516104549190611060565b908152602001604051809103902060006101000a81548160ff0219169083151502179055506003829080600181540180825580915050600190039060005260206000200160009091909190915090805190602001906104b4929190610a74565b50600084815481106104c9576104c86113ef565b5b906000526020600020016001846040516104e39190611060565b9081526020016040518091039020836040516104ff9190611060565b90815260200160405180910390206000820160009054906101000a900460ff168160000160006101000a81548160ff021916908360ff1602179055506000820160019054906101000a900460ff168160000160016101000a81548160ff021916908360ff1602179055506000820160029054906101000a900463ffffffff168160000160026101000a81548163ffffffff021916908363ffffffff1602179055506000820160069054906101000a900463ffffffff168160000160066101000a81548163ffffffff021916908363ffffffff1602179055509050505b610627816001856040516105ef9190611060565b90815260200160405180910390208460405161060b9190611060565b908152602001604051809103902061085590919063ffffffff16565b50505050565b606061070c826001866040516106439190611060565b90815260200160405180910390208560405161065f9190611060565b90815260200160405180910390206040518060800160405290816000820160009054906101000a900460ff1660ff1660ff1681526020016000820160019054906101000a900460ff1660ff1660ff1681526020016000820160029054906101000a900463ffffffff1663ffffffff1663ffffffff1681526020016000820160069054906101000a900463ffffffff1663ffffffff1663ffffffff16815250506108ea90919063ffffffff16565b90509392505050565b61071d610afa565b60018360405161072d9190611060565b9081526020016040518091039020826040516107499190611060565b90815260200160405180910390206040518060800160405290816000820160009054906101000a900460ff1660ff1660ff1681526020016000820160019054906101000a900460ff1660ff1660ff1681526020016000820160029054906101000a900463ffffffff1663ffffffff1663ffffffff1681526020016000820160069054906101000a900463ffffffff1663ffffffff1663ffffffff1681525050905092915050565b6107f8610afa565b6000600460ff168360ff1611610818576108158460ff1684610996565b90505b60405180608001604052808560ff1681526020018460ff1681526020018263ffffffff168152602001600063ffffffff1681525091505092915050565b60008260000160069054906101000a900463ffffffff1663ffffffff16148061089e57508160000160069054906101000a900463ffffffff1663ffffffff168163ffffffff1610155b156108e6578160000160029054906101000a900463ffffffff16816108c3919061124d565b8260000160066101000a81548163ffffffff021916908363ffffffff1602179055505b5050565b60606000836060015163ffffffff1614806109155750826060015163ffffffff168263ffffffff1610155b15610957576040518060400160405280600681526020017f434c4f53454400000000000000000000000000000000000000000000000000008152509050610990565b6040518060400160405280600481526020017f4f50454e0000000000000000000000000000000000000000000000000000000081525090505b92915050565b6000806109a2836109b9565b905080846109b09190611287565b91505092915050565b6000600460ff168260ff161115610a05576040517f08c379a00000000000000000000000000000000000000000000000000000000081526004016109fc90611112565b60405180910390fd5b600060ff168260ff161415610a1d5760019050610a6f565b600160ff168260ff161415610a3557603c9050610a6f565b600260ff168260ff161415610a4e57610e109050610a6f565b600360ff168260ff161415610a6857620151809050610a6f565b62093a8090505b919050565b828054610a809061132e565b90600052602060002090601f016020900481019282610aa25760008555610ae9565b82601f10610abb57805160ff1916838001178555610ae9565b82800160010185558215610ae9579182015b82811115610ae8578251825591602001919060010190610acd565b5b509050610af69190610b34565b5090565b6040518060800160405280600060ff168152602001600060ff168152602001600063ffffffff168152602001600063ffffffff1681525090565b5b80821115610b4d576000816000905550600101610b35565b5090565b6000610b64610b5f84611172565b61114d565b905082815260208101848484011115610b8057610b7f611452565b5b610b8b8482856112ec565b509392505050565b600082601f830112610ba857610ba761144d565b5b8135610bb8848260208601610b51565b91505092915050565b600081359050610bd081611513565b92915050565b600081359050610be58161152a565b92915050565b60008060408385031215610c0257610c0161145c565b5b600083013567ffffffffffffffff811115610c2057610c1f611457565b5b610c2c85828601610b93565b925050602083013567ffffffffffffffff811115610c4d57610c4c611457565b5b610c5985828601610b93565b9150509250929050565b600080600060608486031215610c7c57610c7b61145c565b5b600084013567ffffffffffffffff811115610c9a57610c99611457565b5b610ca686828701610b93565b935050602084013567ffffffffffffffff811115610cc757610cc6611457565b5b610cd386828701610b93565b9250506040610ce486828701610bd6565b9150509250925092565b60008060008060808587031215610d0857610d0761145c565b5b6000610d1687828801610bc1565b945050602085013567ffffffffffffffff811115610d3757610d36611457565b5b610d4387828801610b93565b935050604085013567ffffffffffffffff811115610d6457610d63611457565b5b610d7087828801610b93565b9250506060610d8187828801610bd6565b91505092959194509250565b6000610d998383610e8c565b905092915050565b6000610dad8383610f98565b60808301905092915050565b6000610dc4826111c3565b610dce81856111fe565b935083602082028501610de0856111a3565b8060005b85811015610e1c5784840389528151610dfd8582610d8d565b9450610e08836111e4565b925060208a01995050600181019050610de4565b50829750879550505050505092915050565b6000610e39826111ce565b610e43818561120f565b9350610e4e836111b3565b8060005b83811015610e7f578151610e668882610da1565b9750610e71836111f1565b925050600181019050610e52565b5085935050505092915050565b6000610e97826111d9565b610ea18185611220565b9350610eb18185602086016112fb565b610eba81611461565b840191505092915050565b6000610ed0826111d9565b610eda8185611231565b9350610eea8185602086016112fb565b610ef381611461565b840191505092915050565b6000610f09826111d9565b610f138185611242565b9350610f238185602086016112fb565b80840191505092915050565b6000610f3c603b83611231565b9150610f4782611472565b604082019050919050565b6000610f5f600e83611242565b9150610f6a826114c1565b600e82019050919050565b6000610f82600883611242565b9150610f8d826114ea565b600882019050919050565b608082016000820151610fae6000850182611051565b506020820151610fc16020850182611051565b506040820151610fd46040850182611042565b506060820151610fe76060850182611042565b50505050565b6080820160008201516110036000850182611051565b5060208201516110166020850182611051565b5060408201516110296040850182611042565b50606082015161103c6060850182611042565b50505050565b61104b816112cf565b82525050565b61105a816112df565b82525050565b600061106c8284610efe565b915081905092915050565b600061108282610f75565b915061108e8284610efe565b915061109982610f52565b915081905092915050565b600060608201905081810360008301526110be8186610db9565b905081810360208301526110d28185610db9565b905081810360408301526110e68184610e2e565b9050949350505050565b6000602082019050818103600083015261110a8184610ec5565b905092915050565b6000602082019050818103600083015261112b81610f2f565b9050919050565b60006080820190506111476000830184610fed565b92915050565b6000611157611168565b90506111638282611360565b919050565b6000604051905090565b600067ffffffffffffffff82111561118d5761118c61141e565b5b61119682611461565b9050602081019050919050565b6000819050602082019050919050565b6000819050602082019050919050565b600081519050919050565b600081519050919050565b600081519050919050565b6000602082019050919050565b6000602082019050919050565b600082825260208201905092915050565b600082825260208201905092915050565b600082825260208201905092915050565b600082825260208201905092915050565b600081905092915050565b6000611258826112cf565b9150611263836112cf565b92508263ffffffff0382111561127c5761127b611391565b5b828201905092915050565b6000611292826112cf565b915061129d836112cf565b92508163ffffffff04831182151516156112ba576112b9611391565b5b828202905092915050565b6000819050919050565b600063ffffffff82169050919050565b600060ff82169050919050565b82818337600083830152505050565b60005b838110156113195780820151818401526020810190506112fe565b83811115611328576000848401525b50505050565b6000600282049050600182168061134657607f821691505b6020821081141561135a576113596113c0565b5b50919050565b61136982611461565b810181811067ffffffffffffffff821117156113885761138761141e565b5b80604052505050565b7f4e487b7100000000000000000000000000000000000000000000000000000000600052601160045260246000fd5b7f4e487b7100000000000000000000000000000000000000000000000000000000600052602260045260246000fd5b7f4e487b7100000000000000000000000000000000000000000000000000000000600052603260045260246000fd5b7f4e487b7100000000000000000000000000000000000000000000000000000000600052604160045260246000fd5b600080fd5b600080fd5b600080fd5b600080fd5b6000601f19601f8301169050919050565b7f546865206d6574686f642067657454696d65496e5365636f6e647320646f657360008201527f6e277420776f726b20666f72204d4f4e544820616e6420594541520000000000602082015250565b7f646f65736e27742065786973742e000000000000000000000000000000000000600082015250565b7f546865206b657920000000000000000000000000000000000000000000000000600082015250565b61151c816112c5565b811461152757600080fd5b50565b611533816112cf565b811461153e57600080fd5b5056fea2646970667358221220d5a503395e15e84c7478227a24225e5f6c9f9a4f4bcc753176821ef6898a13ae64736f6c63430008070033",
					"opcodes": "PUSH1 0x80 PUSH1 0x40 MSTORE CALLVALUE DUP1 ISZERO PUSH3 0x11 JUMPI PUSH1 0x0 DUP1 REVERT JUMPDEST POP PUSH1 0x0 PUSH3 0x2D PUSH1 0x2 PUSH1 0x0 PUSH3 0x4AD PUSH1 0x20 SHL PUSH3 0x7F0 OR PUSH1 0x20 SHR JUMP JUMPDEST SWAP1 DUP1 PUSH1 0x1 DUP2 SLOAD ADD DUP1 DUP3 SSTORE DUP1 SWAP2 POP POP PUSH1 0x1 SWAP1 SUB SWAP1 PUSH1 0x0 MSTORE PUSH1 0x20 PUSH1 0x0 KECCAK256 ADD PUSH1 0x0 SWAP1 SWAP2 SWAP1 SWAP2 SWAP1 SWAP2 POP PUSH1 0x0 DUP3 ADD MLOAD DUP2 PUSH1 0x0 ADD PUSH1 0x0 PUSH2 0x100 EXP DUP2 SLOAD DUP2 PUSH1 0xFF MUL NOT AND SWAP1 DUP4 PUSH1 0xFF AND MUL OR SWAP1 SSTORE POP PUSH1 0x20 DUP3 ADD MLOAD DUP2 PUSH1 0x0 ADD PUSH1 0x1 PUSH2 0x100 EXP DUP2 SLOAD DUP2 PUSH1 0xFF MUL NOT AND SWAP1 DUP4 PUSH1 0xFF AND MUL OR SWAP1 SSTORE POP PUSH1 0x40 DUP3 ADD MLOAD DUP2 PUSH1 0x0 ADD PUSH1 0x2 PUSH2 0x100 EXP DUP2 SLOAD DUP2 PUSH4 0xFFFFFFFF MUL NOT AND SWAP1 DUP4 PUSH4 0xFFFFFFFF AND MUL OR SWAP1 SSTORE POP PUSH1 0x60 DUP3 ADD MLOAD DUP2 PUSH1 0x0 ADD PUSH1 0x6 PUSH2 0x100 EXP DUP2 SLOAD DUP2 PUSH4 0xFFFFFFFF MUL NOT AND SWAP1 DUP4 PUSH4 0xFFFFFFFF AND MUL OR SWAP1 SSTORE POP POP POP PUSH1 0x0 PUSH3 0xFF PUSH1 0x2 PUSH1 0x1 PUSH3 0x4AD PUSH1 0x20 SHL PUSH3 0x7F0 OR PUSH1 0x20 SHR JUMP JUMPDEST SWAP1 DUP1 PUSH1 0x1 DUP2 SLOAD ADD DUP1 DUP3 SSTORE DUP1 SWAP2 POP POP PUSH1 0x1 SWAP1 SUB SWAP1 PUSH1 0x0 MSTORE PUSH1 0x20 PUSH1 0x0 KECCAK256 ADD PUSH1 0x0 SWAP1 SWAP2 SWAP1 SWAP2 SWAP1 SWAP2 POP PUSH1 0x0 DUP3 ADD MLOAD DUP2 PUSH1 0x0 ADD PUSH1 0x0 PUSH2 0x100 EXP DUP2 SLOAD DUP2 PUSH1 0xFF MUL NOT AND SWAP1 DUP4 PUSH1 0xFF AND MUL OR SWAP1 SSTORE POP PUSH1 0x20 DUP3 ADD MLOAD DUP2 PUSH1 0x0 ADD PUSH1 0x1 PUSH2 0x100 EXP DUP2 SLOAD DUP2 PUSH1 0xFF MUL NOT AND SWAP1 DUP4 PUSH1 0xFF AND MUL OR SWAP1 SSTORE POP PUSH1 0x40 DUP3 ADD MLOAD DUP2 PUSH1 0x0 ADD PUSH1 0x2 PUSH2 0x100 EXP DUP2 SLOAD DUP2 PUSH4 0xFFFFFFFF MUL NOT AND SWAP1 DUP4 PUSH4 0xFFFFFFFF AND MUL OR SWAP1 SSTORE POP PUSH1 0x60 DUP3 ADD MLOAD DUP2 PUSH1 0x0 ADD PUSH1 0x6 PUSH2 0x100 EXP DUP2 SLOAD DUP2 PUSH4 0xFFFFFFFF MUL NOT AND SWAP1 DUP4 PUSH4 0xFFFFFFFF AND MUL OR SWAP1 SSTORE POP POP POP PUSH1 0x0 PUSH3 0x1D0 PUSH1 0x2 DUP1 PUSH3 0x4AD PUSH1 0x20 SHL PUSH3 0x7F0 OR PUSH1 0x20 SHR JUMP JUMPDEST SWAP1 DUP1 PUSH1 0x1 DUP2 SLOAD ADD DUP1 DUP3 SSTORE DUP1 SWAP2 POP POP PUSH1 0x1 SWAP1 SUB SWAP1 PUSH1 0x0 MSTORE PUSH1 0x20 PUSH1 0x0 KECCAK256 ADD PUSH1 0x0 SWAP1 SWAP2 SWAP1 SWAP2 SWAP1 SWAP2 POP PUSH1 0x0 DUP3 ADD MLOAD DUP2 PUSH1 0x0 ADD PUSH1 0x0 PUSH2 0x100 EXP DUP2 SLOAD DUP2 PUSH1 0xFF MUL NOT AND SWAP1 DUP4 PUSH1 0xFF AND MUL OR SWAP1 SSTORE POP PUSH1 0x20 DUP3 ADD MLOAD DUP2 PUSH1 0x0 ADD PUSH1 0x1 PUSH2 0x100 EXP DUP2 SLOAD DUP2 PUSH1 0xFF MUL NOT AND SWAP1 DUP4 PUSH1 0xFF AND MUL OR SWAP1 SSTORE POP PUSH1 0x40 DUP3 ADD MLOAD DUP2 PUSH1 0x0 ADD PUSH1 0x2 PUSH2 0x100 EXP DUP2 SLOAD DUP2 PUSH4 0xFFFFFFFF MUL NOT AND SWAP1 DUP4 PUSH4 0xFFFFFFFF AND MUL OR SWAP1 SSTORE POP PUSH1 0x60 DUP3 ADD MLOAD DUP2 PUSH1 0x0 ADD PUSH1 0x6 PUSH2 0x100 EXP DUP2 SLOAD DUP2 PUSH4 0xFFFFFFFF MUL NOT AND SWAP1 DUP4 PUSH4 0xFFFFFFFF AND MUL OR SWAP1 SSTORE POP POP POP PUSH1 0x0 PUSH3 0x2A2 PUSH1 0x2 PUSH1 0x3 PUSH3 0x4AD PUSH1 0x20 SHL PUSH3 0x7F0 OR PUSH1 0x20 SHR JUMP JUMPDEST SWAP1 DUP1 PUSH1 0x1 DUP2 SLOAD ADD DUP1 DUP3 SSTORE DUP1 SWAP2 POP POP PUSH1 0x1 SWAP1 SUB SWAP1 PUSH1 0x0 MSTORE PUSH1 0x20 PUSH1 0x0 KECCAK256 ADD PUSH1 0x0 SWAP1 SWAP2 SWAP1 SWAP2 SWAP1 SWAP2 POP PUSH1 0x0 DUP3 ADD MLOAD DUP2 PUSH1 0x0 ADD PUSH1 0x0 PUSH2 0x100 EXP DUP2 SLOAD DUP2 PUSH1 0xFF MUL NOT AND SWAP1 DUP4 PUSH1 0xFF AND MUL OR SWAP1 SSTORE POP PUSH1 0x20 DUP3 ADD MLOAD DUP2 PUSH1 0x0 ADD PUSH1 0x1 PUSH2 0x100 EXP DUP2 SLOAD DUP2 PUSH1 0xFF MUL NOT AND SWAP1 DUP4 PUSH1 0xFF AND MUL OR SWAP1 SSTORE POP PUSH1 0x40 DUP3 ADD MLOAD DUP2 PUSH1 0x0 ADD PUSH1 0x2 PUSH2 0x100 EXP DUP2 SLOAD DUP2 PUSH4 0xFFFFFFFF MUL NOT AND SWAP1 DUP4 PUSH4 0xFFFFFFFF AND MUL OR SWAP1 SSTORE POP PUSH1 0x60 DUP3 ADD MLOAD DUP2 PUSH1 0x0 ADD PUSH1 0x6 PUSH2 0x100 EXP DUP2 SLOAD DUP2 PUSH4 0xFFFFFFFF MUL NOT AND SWAP1 DUP4 PUSH4 0xFFFFFFFF AND MUL OR SWAP1 SSTORE POP POP POP PUSH1 0x2 DUP1 PUSH1 0x1 DUP2 SLOAD ADD DUP1 DUP3 SSTORE DUP1 SWAP2 POP POP PUSH1 0x1 SWAP1 SUB SWAP1 PUSH1 0x0 MSTORE PUSH1 0x20 PUSH1 0x0 KECCAK256 ADD PUSH1 0x0 PUSH1 0x40 MLOAD DUP1 PUSH1 0x40 ADD PUSH1 0x40 MSTORE DUP1 PUSH1 0x4 DUP2 MSTORE PUSH1 0x20 ADD PUSH32 0x6E6F6D6500000000000000000000000000000000000000000000000000000000 DUP2 MSTORE POP SWAP1 SWAP2 SWAP1 SWAP2 POP SWAP1 DUP1 MLOAD SWAP1 PUSH1 0x20 ADD SWAP1 PUSH3 0x3C8 SWAP3 SWAP2 SWAP1 PUSH3 0x610 JUMP JUMPDEST POP PUSH1 0x2 DUP1 PUSH1 0x1 DUP2 SLOAD ADD DUP1 DUP3 SSTORE DUP1 SWAP2 POP POP PUSH1 0x1 SWAP1 SUB SWAP1 PUSH1 0x0 MSTORE PUSH1 0x20 PUSH1 0x0 KECCAK256 ADD PUSH1 0x0 PUSH1 0x40 MLOAD DUP1 PUSH1 0x40 ADD PUSH1 0x40 MSTORE DUP1 PUSH1 0x6 DUP2 MSTORE PUSH1 0x20 ADD PUSH32 0x6369646164650000000000000000000000000000000000000000000000000000 DUP2 MSTORE POP SWAP1 SWAP2 SWAP1 SWAP2 POP SWAP1 DUP1 MLOAD SWAP1 PUSH1 0x20 ADD SWAP1 PUSH3 0x438 SWAP3 SWAP2 SWAP1 PUSH3 0x610 JUMP JUMPDEST POP PUSH1 0x1 PUSH1 0x4 PUSH1 0x40 MLOAD PUSH3 0x44B SWAP1 PUSH3 0x76F JUMP JUMPDEST SWAP1 DUP2 MSTORE PUSH1 0x20 ADD PUSH1 0x40 MLOAD DUP1 SWAP2 SUB SWAP1 KECCAK256 PUSH1 0x0 PUSH2 0x100 EXP DUP2 SLOAD DUP2 PUSH1 0xFF MUL NOT AND SWAP1 DUP4 ISZERO ISZERO MUL OR SWAP1 SSTORE POP PUSH1 0x1 PUSH1 0x4 PUSH1 0x40 MLOAD PUSH3 0x482 SWAP1 PUSH3 0x786 JUMP JUMPDEST SWAP1 DUP2 MSTORE PUSH1 0x20 ADD PUSH1 0x40 MLOAD DUP1 SWAP2 SUB SWAP1 KECCAK256 PUSH1 0x0 PUSH2 0x100 EXP DUP2 SLOAD DUP2 PUSH1 0xFF MUL NOT AND SWAP1 DUP4 ISZERO ISZERO MUL OR SWAP1 SSTORE POP PUSH3 0x965 JUMP JUMPDEST PUSH3 0x4B7 PUSH3 0x6A1 JUMP JUMPDEST PUSH1 0x0 PUSH1 0x4 PUSH1 0xFF AND DUP4 PUSH1 0xFF AND GT PUSH3 0x4E0 JUMPI PUSH3 0x4DD DUP5 PUSH1 0xFF AND DUP5 PUSH3 0x51D PUSH1 0x20 SHL PUSH1 0x20 SHR JUMP JUMPDEST SWAP1 POP JUMPDEST PUSH1 0x40 MLOAD DUP1 PUSH1 0x80 ADD PUSH1 0x40 MSTORE DUP1 DUP6 PUSH1 0xFF AND DUP2 MSTORE PUSH1 0x20 ADD DUP5 PUSH1 0xFF AND DUP2 MSTORE PUSH1 0x20 ADD DUP3 PUSH4 0xFFFFFFFF AND DUP2 MSTORE PUSH1 0x20 ADD PUSH1 0x0 PUSH4 0xFFFFFFFF AND DUP2 MSTORE POP SWAP2 POP POP SWAP3 SWAP2 POP POP JUMP JUMPDEST PUSH1 0x0 DUP1 PUSH3 0x531 DUP4 PUSH3 0x54A PUSH1 0x20 SHL PUSH1 0x20 SHR JUMP JUMPDEST SWAP1 POP DUP1 DUP5 PUSH3 0x541 SWAP2 SWAP1 PUSH3 0x7DB JUMP JUMPDEST SWAP2 POP POP SWAP3 SWAP2 POP POP JUMP JUMPDEST PUSH1 0x0 PUSH1 0x4 PUSH1 0xFF AND DUP3 PUSH1 0xFF AND GT ISZERO PUSH3 0x599 JUMPI PUSH1 0x40 MLOAD PUSH32 0x8C379A000000000000000000000000000000000000000000000000000000000 DUP2 MSTORE PUSH1 0x4 ADD PUSH3 0x590 SWAP1 PUSH3 0x79D JUMP JUMPDEST PUSH1 0x40 MLOAD DUP1 SWAP2 SUB SWAP1 REVERT JUMPDEST PUSH1 0x0 PUSH1 0xFF AND DUP3 PUSH1 0xFF AND EQ ISZERO PUSH3 0x5B3 JUMPI PUSH1 0x1 SWAP1 POP PUSH3 0x60B JUMP JUMPDEST PUSH1 0x1 PUSH1 0xFF AND DUP3 PUSH1 0xFF AND EQ ISZERO PUSH3 0x5CD JUMPI PUSH1 0x3C SWAP1 POP PUSH3 0x60B JUMP JUMPDEST PUSH1 0x2 PUSH1 0xFF AND DUP3 PUSH1 0xFF AND EQ ISZERO PUSH3 0x5E8 JUMPI PUSH2 0xE10 SWAP1 POP PUSH3 0x60B JUMP JUMPDEST PUSH1 0x3 PUSH1 0xFF AND DUP3 PUSH1 0xFF AND EQ ISZERO PUSH3 0x604 JUMPI PUSH3 0x15180 SWAP1 POP PUSH3 0x60B JUMP JUMPDEST PUSH3 0x93A80 SWAP1 POP JUMPDEST SWAP2 SWAP1 POP JUMP JUMPDEST DUP3 DUP1 SLOAD PUSH3 0x61E SWAP1 PUSH3 0x830 JUMP JUMPDEST SWAP1 PUSH1 0x0 MSTORE PUSH1 0x20 PUSH1 0x0 KECCAK256 SWAP1 PUSH1 0x1F ADD PUSH1 0x20 SWAP1 DIV DUP2 ADD SWAP3 DUP3 PUSH3 0x642 JUMPI PUSH1 0x0 DUP6 SSTORE PUSH3 0x68E JUMP JUMPDEST DUP3 PUSH1 0x1F LT PUSH3 0x65D JUMPI DUP1 MLOAD PUSH1 0xFF NOT AND DUP4 DUP1 ADD OR DUP6 SSTORE PUSH3 0x68E JUMP JUMPDEST DUP3 DUP1 ADD PUSH1 0x1 ADD DUP6 SSTORE DUP3 ISZERO PUSH3 0x68E JUMPI SWAP2 DUP3 ADD JUMPDEST DUP3 DUP2 GT ISZERO PUSH3 0x68D JUMPI DUP3 MLOAD DUP3 SSTORE SWAP2 PUSH1 0x20 ADD SWAP2 SWAP1 PUSH1 0x1 ADD SWAP1 PUSH3 0x670 JUMP JUMPDEST JUMPDEST POP SWAP1 POP PUSH3 0x69D SWAP2 SWAP1 PUSH3 0x6DB JUMP JUMPDEST POP SWAP1 JUMP JUMPDEST PUSH1 0x40 MLOAD DUP1 PUSH1 0x80 ADD PUSH1 0x40 MSTORE DUP1 PUSH1 0x0 PUSH1 0xFF AND DUP2 MSTORE PUSH1 0x20 ADD PUSH1 0x0 PUSH1 0xFF AND DUP2 MSTORE PUSH1 0x20 ADD PUSH1 0x0 PUSH4 0xFFFFFFFF AND DUP2 MSTORE PUSH1 0x20 ADD PUSH1 0x0 PUSH4 0xFFFFFFFF AND DUP2 MSTORE POP SWAP1 JUMP JUMPDEST JUMPDEST DUP1 DUP3 GT ISZERO PUSH3 0x6F6 JUMPI PUSH1 0x0 DUP2 PUSH1 0x0 SWAP1 SSTORE POP PUSH1 0x1 ADD PUSH3 0x6DC JUMP JUMPDEST POP SWAP1 JUMP JUMPDEST PUSH1 0x0 PUSH3 0x709 PUSH1 0x4 DUP4 PUSH3 0x7D0 JUMP JUMPDEST SWAP2 POP PUSH3 0x716 DUP3 PUSH3 0x8C4 JUMP JUMPDEST PUSH1 0x4 DUP3 ADD SWAP1 POP SWAP2 SWAP1 POP JUMP JUMPDEST PUSH1 0x0 PUSH3 0x730 PUSH1 0x3B DUP4 PUSH3 0x7BF JUMP JUMPDEST SWAP2 POP PUSH3 0x73D DUP3 PUSH3 0x8ED JUMP JUMPDEST PUSH1 0x40 DUP3 ADD SWAP1 POP SWAP2 SWAP1 POP JUMP JUMPDEST PUSH1 0x0 PUSH3 0x757 PUSH1 0x6 DUP4 PUSH3 0x7D0 JUMP JUMPDEST SWAP2 POP PUSH3 0x764 DUP3 PUSH3 0x93C JUMP JUMPDEST PUSH1 0x6 DUP3 ADD SWAP1 POP SWAP2 SWAP1 POP JUMP JUMPDEST PUSH1 0x0 PUSH3 0x77C DUP3 PUSH3 0x6FA JUMP JUMPDEST SWAP2 POP DUP2 SWAP1 POP SWAP2 SWAP1 POP JUMP JUMPDEST PUSH1 0x0 PUSH3 0x793 DUP3 PUSH3 0x748 JUMP JUMPDEST SWAP2 POP DUP2 SWAP1 POP SWAP2 SWAP1 POP JUMP JUMPDEST PUSH1 0x0 PUSH1 0x20 DUP3 ADD SWAP1 POP DUP2 DUP2 SUB PUSH1 0x0 DUP4 ADD MSTORE PUSH3 0x7B8 DUP2 PUSH3 0x721 JUMP JUMPDEST SWAP1 POP SWAP2 SWAP1 POP JUMP JUMPDEST PUSH1 0x0 DUP3 DUP3 MSTORE PUSH1 0x20 DUP3 ADD SWAP1 POP SWAP3 SWAP2 POP POP JUMP JUMPDEST PUSH1 0x0 DUP2 SWAP1 POP SWAP3 SWAP2 POP POP JUMP JUMPDEST PUSH1 0x0 PUSH3 0x7E8 DUP3 PUSH3 0x820 JUMP JUMPDEST SWAP2 POP PUSH3 0x7F5 DUP4 PUSH3 0x820 JUMP JUMPDEST SWAP3 POP DUP2 PUSH4 0xFFFFFFFF DIV DUP4 GT DUP3 ISZERO ISZERO AND ISZERO PUSH3 0x815 JUMPI PUSH3 0x814 PUSH3 0x866 JUMP JUMPDEST JUMPDEST DUP3 DUP3 MUL SWAP1 POP SWAP3 SWAP2 POP POP JUMP JUMPDEST PUSH1 0x0 PUSH4 0xFFFFFFFF DUP3 AND SWAP1 POP SWAP2 SWAP1 POP JUMP JUMPDEST PUSH1 0x0 PUSH1 0x2 DUP3 DIV SWAP1 POP PUSH1 0x1 DUP3 AND DUP1 PUSH3 0x849 JUMPI PUSH1 0x7F DUP3 AND SWAP2 POP JUMPDEST PUSH1 0x20 DUP3 LT DUP2 EQ ISZERO PUSH3 0x860 JUMPI PUSH3 0x85F PUSH3 0x895 JUMP JUMPDEST JUMPDEST POP SWAP2 SWAP1 POP JUMP JUMPDEST PUSH32 0x4E487B7100000000000000000000000000000000000000000000000000000000 PUSH1 0x0 MSTORE PUSH1 0x11 PUSH1 0x4 MSTORE PUSH1 0x24 PUSH1 0x0 REVERT JUMPDEST PUSH32 0x4E487B7100000000000000000000000000000000000000000000000000000000 PUSH1 0x0 MSTORE PUSH1 0x22 PUSH1 0x4 MSTORE PUSH1 0x24 PUSH1 0x0 REVERT JUMPDEST PUSH32 0x6E6F6D6500000000000000000000000000000000000000000000000000000000 PUSH1 0x0 DUP3 ADD MSTORE POP JUMP JUMPDEST PUSH32 0x546865206D6574686F642067657454696D65496E5365636F6E647320646F6573 PUSH1 0x0 DUP3 ADD MSTORE PUSH32 0x6E277420776F726B20666F72204D4F4E544820616E6420594541520000000000 PUSH1 0x20 DUP3 ADD MSTORE POP JUMP JUMPDEST PUSH32 0x6369646164650000000000000000000000000000000000000000000000000000 PUSH1 0x0 DUP3 ADD MSTORE POP JUMP JUMPDEST PUSH2 0x1577 DUP1 PUSH3 0x975 PUSH1 0x0 CODECOPY PUSH1 0x0 RETURN INVALID PUSH1 0x80 PUSH1 0x40 MSTORE CALLVALUE DUP1 ISZERO PUSH2 0x10 JUMPI PUSH1 0x0 DUP1 REVERT JUMPDEST POP PUSH1 0x4 CALLDATASIZE LT PUSH2 0x4C JUMPI PUSH1 0x0 CALLDATALOAD PUSH1 0xE0 SHR DUP1 PUSH4 0xA4822C5 EQ PUSH2 0x51 JUMPI DUP1 PUSH4 0x1DAF751D EQ PUSH2 0x71 JUMPI DUP1 PUSH4 0x4ACDC8C6 EQ PUSH2 0x8D JUMPI DUP1 PUSH4 0xDFC305DE EQ PUSH2 0xBD JUMPI JUMPDEST PUSH1 0x0 DUP1 REVERT JUMPDEST PUSH2 0x59 PUSH2 0xED JUMP JUMPDEST PUSH1 0x40 MLOAD PUSH2 0x68 SWAP4 SWAP3 SWAP2 SWAP1 PUSH2 0x10A4 JUMP JUMPDEST PUSH1 0x40 MLOAD DUP1 SWAP2 SUB SWAP1 RETURN JUMPDEST PUSH2 0x8B PUSH1 0x4 DUP1 CALLDATASIZE SUB DUP2 ADD SWAP1 PUSH2 0x86 SWAP2 SWAP1 PUSH2 0xCEE JUMP JUMPDEST PUSH2 0x384 JUMP JUMPDEST STOP JUMPDEST PUSH2 0xA7 PUSH1 0x4 DUP1 CALLDATASIZE SUB DUP2 ADD SWAP1 PUSH2 0xA2 SWAP2 SWAP1 PUSH2 0xC63 JUMP JUMPDEST PUSH2 0x62D JUMP JUMPDEST PUSH1 0x40 MLOAD PUSH2 0xB4 SWAP2 SWAP1 PUSH2 0x10F0 JUMP JUMPDEST PUSH1 0x40 MLOAD DUP1 SWAP2 SUB SWAP1 RETURN JUMPDEST PUSH2 0xD7 PUSH1 0x4 DUP1 CALLDATASIZE SUB DUP2 ADD SWAP1 PUSH2 0xD2 SWAP2 SWAP1 PUSH2 0xBEB JUMP JUMPDEST PUSH2 0x715 JUMP JUMPDEST PUSH1 0x40 MLOAD PUSH2 0xE4 SWAP2 SWAP1 PUSH2 0x1132 JUMP JUMPDEST PUSH1 0x40 MLOAD DUP1 SWAP2 SUB SWAP1 RETURN JUMPDEST PUSH1 0x60 DUP1 PUSH1 0x60 PUSH1 0x2 PUSH1 0x3 PUSH1 0x0 DUP3 DUP1 SLOAD DUP1 PUSH1 0x20 MUL PUSH1 0x20 ADD PUSH1 0x40 MLOAD SWAP1 DUP2 ADD PUSH1 0x40 MSTORE DUP1 SWAP3 SWAP2 SWAP1 DUP2 DUP2 MSTORE PUSH1 0x20 ADD PUSH1 0x0 SWAP1 JUMPDEST DUP3 DUP3 LT ISZERO PUSH2 0x1C5 JUMPI DUP4 DUP3 SWAP1 PUSH1 0x0 MSTORE PUSH1 0x20 PUSH1 0x0 KECCAK256 ADD DUP1 SLOAD PUSH2 0x138 SWAP1 PUSH2 0x132E JUMP JUMPDEST DUP1 PUSH1 0x1F ADD PUSH1 0x20 DUP1 SWAP2 DIV MUL PUSH1 0x20 ADD PUSH1 0x40 MLOAD SWAP1 DUP2 ADD PUSH1 0x40 MSTORE DUP1 SWAP3 SWAP2 SWAP1 DUP2 DUP2 MSTORE PUSH1 0x20 ADD DUP3 DUP1 SLOAD PUSH2 0x164 SWAP1 PUSH2 0x132E JUMP JUMPDEST DUP1 ISZERO PUSH2 0x1B1 JUMPI DUP1 PUSH1 0x1F LT PUSH2 0x186 JUMPI PUSH2 0x100 DUP1 DUP4 SLOAD DIV MUL DUP4 MSTORE SWAP2 PUSH1 0x20 ADD SWAP2 PUSH2 0x1B1 JUMP JUMPDEST DUP3 ADD SWAP2 SWAP1 PUSH1 0x0 MSTORE PUSH1 0x20 PUSH1 0x0 KECCAK256 SWAP1 JUMPDEST DUP2 SLOAD DUP2 MSTORE SWAP1 PUSH1 0x1 ADD SWAP1 PUSH1 0x20 ADD DUP1 DUP4 GT PUSH2 0x194 JUMPI DUP3 SWAP1 SUB PUSH1 0x1F AND DUP3 ADD SWAP2 JUMPDEST POP POP POP POP POP DUP2 MSTORE PUSH1 0x20 ADD SWAP1 PUSH1 0x1 ADD SWAP1 PUSH2 0x119 JUMP JUMPDEST POP POP POP POP SWAP3 POP DUP2 DUP1 SLOAD DUP1 PUSH1 0x20 MUL PUSH1 0x20 ADD PUSH1 0x40 MLOAD SWAP1 DUP2 ADD PUSH1 0x40 MSTORE DUP1 SWAP3 SWAP2 SWAP1 DUP2 DUP2 MSTORE PUSH1 0x20 ADD PUSH1 0x0 SWAP1 JUMPDEST DUP3 DUP3 LT ISZERO PUSH2 0x298 JUMPI DUP4 DUP3 SWAP1 PUSH1 0x0 MSTORE PUSH1 0x20 PUSH1 0x0 KECCAK256 ADD DUP1 SLOAD PUSH2 0x20B SWAP1 PUSH2 0x132E JUMP JUMPDEST DUP1 PUSH1 0x1F ADD PUSH1 0x20 DUP1 SWAP2 DIV MUL PUSH1 0x20 ADD PUSH1 0x40 MLOAD SWAP1 DUP2 ADD PUSH1 0x40 MSTORE DUP1 SWAP3 SWAP2 SWAP1 DUP2 DUP2 MSTORE PUSH1 0x20 ADD DUP3 DUP1 SLOAD PUSH2 0x237 SWAP1 PUSH2 0x132E JUMP JUMPDEST DUP1 ISZERO PUSH2 0x284 JUMPI DUP1 PUSH1 0x1F LT PUSH2 0x259 JUMPI PUSH2 0x100 DUP1 DUP4 SLOAD DIV MUL DUP4 MSTORE SWAP2 PUSH1 0x20 ADD SWAP2 PUSH2 0x284 JUMP JUMPDEST DUP3 ADD SWAP2 SWAP1 PUSH1 0x0 MSTORE PUSH1 0x20 PUSH1 0x0 KECCAK256 SWAP1 JUMPDEST DUP2 SLOAD DUP2 MSTORE SWAP1 PUSH1 0x1 ADD SWAP1 PUSH1 0x20 ADD DUP1 DUP4 GT PUSH2 0x267 JUMPI DUP3 SWAP1 SUB PUSH1 0x1F AND DUP3 ADD SWAP2 JUMPDEST POP POP POP POP POP DUP2 MSTORE PUSH1 0x20 ADD SWAP1 PUSH1 0x1 ADD SWAP1 PUSH2 0x1EC JUMP JUMPDEST POP POP POP POP SWAP2 POP DUP1 DUP1 SLOAD DUP1 PUSH1 0x20 MUL PUSH1 0x20 ADD PUSH1 0x40 MLOAD SWAP1 DUP2 ADD PUSH1 0x40 MSTORE DUP1 SWAP3 SWAP2 SWAP1 DUP2 DUP2 MSTORE PUSH1 0x20 ADD PUSH1 0x0 SWAP1 JUMPDEST DUP3 DUP3 LT ISZERO PUSH2 0x373 JUMPI DUP4 DUP3 SWAP1 PUSH1 0x0 MSTORE PUSH1 0x20 PUSH1 0x0 KECCAK256 ADD PUSH1 0x40 MLOAD DUP1 PUSH1 0x80 ADD PUSH1 0x40 MSTORE SWAP1 DUP2 PUSH1 0x0 DUP3 ADD PUSH1 0x0 SWAP1 SLOAD SWAP1 PUSH2 0x100 EXP SWAP1 DIV PUSH1 0xFF AND PUSH1 0xFF AND PUSH1 0xFF AND DUP2 MSTORE PUSH1 0x20 ADD PUSH1 0x0 DUP3 ADD PUSH1 0x1 SWAP1 SLOAD SWAP1 PUSH2 0x100 EXP SWAP1 DIV PUSH1 0xFF AND PUSH1 0xFF AND PUSH1 0xFF AND DUP2 MSTORE PUSH1 0x20 ADD PUSH1 0x0 DUP3 ADD PUSH1 0x2 SWAP1 SLOAD SWAP1 PUSH2 0x100 EXP SWAP1 DIV PUSH4 0xFFFFFFFF AND PUSH4 0xFFFFFFFF AND PUSH4 0xFFFFFFFF AND DUP2 MSTORE PUSH1 0x20 ADD PUSH1 0x0 DUP3 ADD PUSH1 0x6 SWAP1 SLOAD SWAP1 PUSH2 0x100 EXP SWAP1 DIV PUSH4 0xFFFFFFFF AND PUSH4 0xFFFFFFFF AND PUSH4 0xFFFFFFFF AND DUP2 MSTORE POP POP DUP2 MSTORE PUSH1 0x20 ADD SWAP1 PUSH1 0x1 ADD SWAP1 PUSH2 0x2BF JUMP JUMPDEST POP POP POP POP SWAP1 POP SWAP3 POP SWAP3 POP SWAP3 POP SWAP1 SWAP2 SWAP3 JUMP JUMPDEST PUSH1 0x4 DUP4 PUSH1 0x40 MLOAD PUSH2 0x394 SWAP2 SWAP1 PUSH2 0x1060 JUMP JUMPDEST SWAP1 DUP2 MSTORE PUSH1 0x20 ADD PUSH1 0x40 MLOAD DUP1 SWAP2 SUB SWAP1 KECCAK256 PUSH1 0x0 SWAP1 SLOAD SWAP1 PUSH2 0x100 EXP SWAP1 DIV PUSH1 0xFF AND DUP4 PUSH1 0x40 MLOAD PUSH1 0x20 ADD PUSH2 0x3C1 SWAP2 SWAP1 PUSH2 0x1077 JUMP JUMPDEST PUSH1 0x40 MLOAD PUSH1 0x20 DUP2 DUP4 SUB SUB DUP2 MSTORE SWAP1 PUSH1 0x40 MSTORE SWAP1 PUSH2 0x411 JUMPI PUSH1 0x40 MLOAD PUSH32 0x8C379A000000000000000000000000000000000000000000000000000000000 DUP2 MSTORE PUSH1 0x4 ADD PUSH2 0x408 SWAP2 SWAP1 PUSH2 0x10F0 JUMP JUMPDEST PUSH1 0x40 MLOAD DUP1 SWAP2 SUB SWAP1 REVERT JUMPDEST POP PUSH1 0x5 DUP3 PUSH1 0x40 MLOAD PUSH2 0x422 SWAP2 SWAP1 PUSH2 0x1060 JUMP JUMPDEST SWAP1 DUP2 MSTORE PUSH1 0x20 ADD PUSH1 0x40 MLOAD DUP1 SWAP2 SUB SWAP1 KECCAK256 PUSH1 0x0 SWAP1 SLOAD SWAP1 PUSH2 0x100 EXP SWAP1 DIV PUSH1 0xFF AND PUSH2 0x5DB JUMPI PUSH1 0x1 PUSH1 0x5 DUP4 PUSH1 0x40 MLOAD PUSH2 0x454 SWAP2 SWAP1 PUSH2 0x1060 JUMP JUMPDEST SWAP1 DUP2 MSTORE PUSH1 0x20 ADD PUSH1 0x40 MLOAD DUP1 SWAP2 SUB SWAP1 KECCAK256 PUSH1 0x0 PUSH2 0x100 EXP DUP2 SLOAD DUP2 PUSH1 0xFF MUL NOT AND SWAP1 DUP4 ISZERO ISZERO MUL OR SWAP1 SSTORE POP PUSH1 0x3 DUP3 SWAP1 DUP1 PUSH1 0x1 DUP2 SLOAD ADD DUP1 DUP3 SSTORE DUP1 SWAP2 POP POP PUSH1 0x1 SWAP1 SUB SWAP1 PUSH1 0x0 MSTORE PUSH1 0x20 PUSH1 0x0 KECCAK256 ADD PUSH1 0x0 SWAP1 SWAP2 SWAP1 SWAP2 SWAP1 SWAP2 POP SWAP1 DUP1 MLOAD SWAP1 PUSH1 0x20 ADD SWAP1 PUSH2 0x4B4 SWAP3 SWAP2 SWAP1 PUSH2 0xA74 JUMP JUMPDEST POP PUSH1 0x0 DUP5 DUP2 SLOAD DUP2 LT PUSH2 0x4C9 JUMPI PUSH2 0x4C8 PUSH2 0x13EF JUMP JUMPDEST JUMPDEST SWAP1 PUSH1 0x0 MSTORE PUSH1 0x20 PUSH1 0x0 KECCAK256 ADD PUSH1 0x1 DUP5 PUSH1 0x40 MLOAD PUSH2 0x4E3 SWAP2 SWAP1 PUSH2 0x1060 JUMP JUMPDEST SWAP1 DUP2 MSTORE PUSH1 0x20 ADD PUSH1 0x40 MLOAD DUP1 SWAP2 SUB SWAP1 KECCAK256 DUP4 PUSH1 0x40 MLOAD PUSH2 0x4FF SWAP2 SWAP1 PUSH2 0x1060 JUMP JUMPDEST SWAP1 DUP2 MSTORE PUSH1 0x20 ADD PUSH1 0x40 MLOAD DUP1 SWAP2 SUB SWAP1 KECCAK256 PUSH1 0x0 DUP3 ADD PUSH1 0x0 SWAP1 SLOAD SWAP1 PUSH2 0x100 EXP SWAP1 DIV PUSH1 0xFF AND DUP2 PUSH1 0x0 ADD PUSH1 0x0 PUSH2 0x100 EXP DUP2 SLOAD DUP2 PUSH1 0xFF MUL NOT AND SWAP1 DUP4 PUSH1 0xFF AND MUL OR SWAP1 SSTORE POP PUSH1 0x0 DUP3 ADD PUSH1 0x1 SWAP1 SLOAD SWAP1 PUSH2 0x100 EXP SWAP1 DIV PUSH1 0xFF AND DUP2 PUSH1 0x0 ADD PUSH1 0x1 PUSH2 0x100 EXP DUP2 SLOAD DUP2 PUSH1 0xFF MUL NOT AND SWAP1 DUP4 PUSH1 0xFF AND MUL OR SWAP1 SSTORE POP PUSH1 0x0 DUP3 ADD PUSH1 0x2 SWAP1 SLOAD SWAP1 PUSH2 0x100 EXP SWAP1 DIV PUSH4 0xFFFFFFFF AND DUP2 PUSH1 0x0 ADD PUSH1 0x2 PUSH2 0x100 EXP DUP2 SLOAD DUP2 PUSH4 0xFFFFFFFF MUL NOT AND SWAP1 DUP4 PUSH4 0xFFFFFFFF AND MUL OR SWAP1 SSTORE POP PUSH1 0x0 DUP3 ADD PUSH1 0x6 SWAP1 SLOAD SWAP1 PUSH2 0x100 EXP SWAP1 DIV PUSH4 0xFFFFFFFF AND DUP2 PUSH1 0x0 ADD PUSH1 0x6 PUSH2 0x100 EXP DUP2 SLOAD DUP2 PUSH4 0xFFFFFFFF MUL NOT AND SWAP1 DUP4 PUSH4 0xFFFFFFFF AND MUL OR SWAP1 SSTORE POP SWAP1 POP POP JUMPDEST PUSH2 0x627 DUP2 PUSH1 0x1 DUP6 PUSH1 0x40 MLOAD PUSH2 0x5EF SWAP2 SWAP1 PUSH2 0x1060 JUMP JUMPDEST SWAP1 DUP2 MSTORE PUSH1 0x20 ADD PUSH1 0x40 MLOAD DUP1 SWAP2 SUB SWAP1 KECCAK256 DUP5 PUSH1 0x40 MLOAD PUSH2 0x60B SWAP2 SWAP1 PUSH2 0x1060 JUMP JUMPDEST SWAP1 DUP2 MSTORE PUSH1 0x20 ADD PUSH1 0x40 MLOAD DUP1 SWAP2 SUB SWAP1 KECCAK256 PUSH2 0x855 SWAP1 SWAP2 SWAP1 PUSH4 0xFFFFFFFF AND JUMP JUMPDEST POP POP POP POP JUMP JUMPDEST PUSH1 0x60 PUSH2 0x70C DUP3 PUSH1 0x1 DUP7 PUSH1 0x40 MLOAD PUSH2 0x643 SWAP2 SWAP1 PUSH2 0x1060 JUMP JUMPDEST SWAP1 DUP2 MSTORE PUSH1 0x20 ADD PUSH1 0x40 MLOAD DUP1 SWAP2 SUB SWAP1 KECCAK256 DUP6 PUSH1 0x40 MLOAD PUSH2 0x65F SWAP2 SWAP1 PUSH2 0x1060 JUMP JUMPDEST SWAP1 DUP2 MSTORE PUSH1 0x20 ADD PUSH1 0x40 MLOAD DUP1 SWAP2 SUB SWAP1 KECCAK256 PUSH1 0x40 MLOAD DUP1 PUSH1 0x80 ADD PUSH1 0x40 MSTORE SWAP1 DUP2 PUSH1 0x0 DUP3 ADD PUSH1 0x0 SWAP1 SLOAD SWAP1 PUSH2 0x100 EXP SWAP1 DIV PUSH1 0xFF AND PUSH1 0xFF AND PUSH1 0xFF AND DUP2 MSTORE PUSH1 0x20 ADD PUSH1 0x0 DUP3 ADD PUSH1 0x1 SWAP1 SLOAD SWAP1 PUSH2 0x100 EXP SWAP1 DIV PUSH1 0xFF AND PUSH1 0xFF AND PUSH1 0xFF AND DUP2 MSTORE PUSH1 0x20 ADD PUSH1 0x0 DUP3 ADD PUSH1 0x2 SWAP1 SLOAD SWAP1 PUSH2 0x100 EXP SWAP1 DIV PUSH4 0xFFFFFFFF AND PUSH4 0xFFFFFFFF AND PUSH4 0xFFFFFFFF AND DUP2 MSTORE PUSH1 0x20 ADD PUSH1 0x0 DUP3 ADD PUSH1 0x6 SWAP1 SLOAD SWAP1 PUSH2 0x100 EXP SWAP1 DIV PUSH4 0xFFFFFFFF AND PUSH4 0xFFFFFFFF AND PUSH4 0xFFFFFFFF AND DUP2 MSTORE POP POP PUSH2 0x8EA SWAP1 SWAP2 SWAP1 PUSH4 0xFFFFFFFF AND JUMP JUMPDEST SWAP1 POP SWAP4 SWAP3 POP POP POP JUMP JUMPDEST PUSH2 0x71D PUSH2 0xAFA JUMP JUMPDEST PUSH1 0x1 DUP4 PUSH1 0x40 MLOAD PUSH2 0x72D SWAP2 SWAP1 PUSH2 0x1060 JUMP JUMPDEST SWAP1 DUP2 MSTORE PUSH1 0x20 ADD PUSH1 0x40 MLOAD DUP1 SWAP2 SUB SWAP1 KECCAK256 DUP3 PUSH1 0x40 MLOAD PUSH2 0x749 SWAP2 SWAP1 PUSH2 0x1060 JUMP JUMPDEST SWAP1 DUP2 MSTORE PUSH1 0x20 ADD PUSH1 0x40 MLOAD DUP1 SWAP2 SUB SWAP1 KECCAK256 PUSH1 0x40 MLOAD DUP1 PUSH1 0x80 ADD PUSH1 0x40 MSTORE SWAP1 DUP2 PUSH1 0x0 DUP3 ADD PUSH1 0x0 SWAP1 SLOAD SWAP1 PUSH2 0x100 EXP SWAP1 DIV PUSH1 0xFF AND PUSH1 0xFF AND PUSH1 0xFF AND DUP2 MSTORE PUSH1 0x20 ADD PUSH1 0x0 DUP3 ADD PUSH1 0x1 SWAP1 SLOAD SWAP1 PUSH2 0x100 EXP SWAP1 DIV PUSH1 0xFF AND PUSH1 0xFF AND PUSH1 0xFF AND DUP2 MSTORE PUSH1 0x20 ADD PUSH1 0x0 DUP3 ADD PUSH1 0x2 SWAP1 SLOAD SWAP1 PUSH2 0x100 EXP SWAP1 DIV PUSH4 0xFFFFFFFF AND PUSH4 0xFFFFFFFF AND PUSH4 0xFFFFFFFF AND DUP2 MSTORE PUSH1 0x20 ADD PUSH1 0x0 DUP3 ADD PUSH1 0x6 SWAP1 SLOAD SWAP1 PUSH2 0x100 EXP SWAP1 DIV PUSH4 0xFFFFFFFF AND PUSH4 0xFFFFFFFF AND PUSH4 0xFFFFFFFF AND DUP2 MSTORE POP POP SWAP1 POP SWAP3 SWAP2 POP POP JUMP JUMPDEST PUSH2 0x7F8 PUSH2 0xAFA JUMP JUMPDEST PUSH1 0x0 PUSH1 0x4 PUSH1 0xFF AND DUP4 PUSH1 0xFF AND GT PUSH2 0x818 JUMPI PUSH2 0x815 DUP5 PUSH1 0xFF AND DUP5 PUSH2 0x996 JUMP JUMPDEST SWAP1 POP JUMPDEST PUSH1 0x40 MLOAD DUP1 PUSH1 0x80 ADD PUSH1 0x40 MSTORE DUP1 DUP6 PUSH1 0xFF AND DUP2 MSTORE PUSH1 0x20 ADD DUP5 PUSH1 0xFF AND DUP2 MSTORE PUSH1 0x20 ADD DUP3 PUSH4 0xFFFFFFFF AND DUP2 MSTORE PUSH1 0x20 ADD PUSH1 0x0 PUSH4 0xFFFFFFFF AND DUP2 MSTORE POP SWAP2 POP POP SWAP3 SWAP2 POP POP JUMP JUMPDEST PUSH1 0x0 DUP3 PUSH1 0x0 ADD PUSH1 0x6 SWAP1 SLOAD SWAP1 PUSH2 0x100 EXP SWAP1 DIV PUSH4 0xFFFFFFFF AND PUSH4 0xFFFFFFFF AND EQ DUP1 PUSH2 0x89E JUMPI POP DUP2 PUSH1 0x0 ADD PUSH1 0x6 SWAP1 SLOAD SWAP1 PUSH2 0x100 EXP SWAP1 DIV PUSH4 0xFFFFFFFF AND PUSH4 0xFFFFFFFF AND DUP2 PUSH4 0xFFFFFFFF AND LT ISZERO JUMPDEST ISZERO PUSH2 0x8E6 JUMPI DUP2 PUSH1 0x0 ADD PUSH1 0x2 SWAP1 SLOAD SWAP1 PUSH2 0x100 EXP SWAP1 DIV PUSH4 0xFFFFFFFF AND DUP2 PUSH2 0x8C3 SWAP2 SWAP1 PUSH2 0x124D JUMP JUMPDEST DUP3 PUSH1 0x0 ADD PUSH1 0x6 PUSH2 0x100 EXP DUP2 SLOAD DUP2 PUSH4 0xFFFFFFFF MUL NOT AND SWAP1 DUP4 PUSH4 0xFFFFFFFF AND MUL OR SWAP1 SSTORE POP JUMPDEST POP POP JUMP JUMPDEST PUSH1 0x60 PUSH1 0x0 DUP4 PUSH1 0x60 ADD MLOAD PUSH4 0xFFFFFFFF AND EQ DUP1 PUSH2 0x915 JUMPI POP DUP3 PUSH1 0x60 ADD MLOAD PUSH4 0xFFFFFFFF AND DUP3 PUSH4 0xFFFFFFFF AND LT ISZERO JUMPDEST ISZERO PUSH2 0x957 JUMPI PUSH1 0x40 MLOAD DUP1 PUSH1 0x40 ADD PUSH1 0x40 MSTORE DUP1 PUSH1 0x6 DUP2 MSTORE PUSH1 0x20 ADD PUSH32 0x434C4F5345440000000000000000000000000000000000000000000000000000 DUP2 MSTORE POP SWAP1 POP PUSH2 0x990 JUMP JUMPDEST PUSH1 0x40 MLOAD DUP1 PUSH1 0x40 ADD PUSH1 0x40 MSTORE DUP1 PUSH1 0x4 DUP2 MSTORE PUSH1 0x20 ADD PUSH32 0x4F50454E00000000000000000000000000000000000000000000000000000000 DUP2 MSTORE POP SWAP1 POP JUMPDEST SWAP3 SWAP2 POP POP JUMP JUMPDEST PUSH1 0x0 DUP1 PUSH2 0x9A2 DUP4 PUSH2 0x9B9 JUMP JUMPDEST SWAP1 POP DUP1 DUP5 PUSH2 0x9B0 SWAP2 SWAP1 PUSH2 0x1287 JUMP JUMPDEST SWAP2 POP POP SWAP3 SWAP2 POP POP JUMP JUMPDEST PUSH1 0x0 PUSH1 0x4 PUSH1 0xFF AND DUP3 PUSH1 0xFF AND GT ISZERO PUSH2 0xA05 JUMPI PUSH1 0x40 MLOAD PUSH32 0x8C379A000000000000000000000000000000000000000000000000000000000 DUP2 MSTORE PUSH1 0x4 ADD PUSH2 0x9FC SWAP1 PUSH2 0x1112 JUMP JUMPDEST PUSH1 0x40 MLOAD DUP1 SWAP2 SUB SWAP1 REVERT JUMPDEST PUSH1 0x0 PUSH1 0xFF AND DUP3 PUSH1 0xFF AND EQ ISZERO PUSH2 0xA1D JUMPI PUSH1 0x1 SWAP1 POP PUSH2 0xA6F JUMP JUMPDEST PUSH1 0x1 PUSH1 0xFF AND DUP3 PUSH1 0xFF AND EQ ISZERO PUSH2 0xA35 JUMPI PUSH1 0x3C SWAP1 POP PUSH2 0xA6F JUMP JUMPDEST PUSH1 0x2 PUSH1 0xFF AND DUP3 PUSH1 0xFF AND EQ ISZERO PUSH2 0xA4E JUMPI PUSH2 0xE10 SWAP1 POP PUSH2 0xA6F JUMP JUMPDEST PUSH1 0x3 PUSH1 0xFF AND DUP3 PUSH1 0xFF AND EQ ISZERO PUSH2 0xA68 JUMPI PUSH3 0x15180 SWAP1 POP PUSH2 0xA6F JUMP JUMPDEST PUSH3 0x93A80 SWAP1 POP JUMPDEST SWAP2 SWAP1 POP JUMP JUMPDEST DUP3 DUP1 SLOAD PUSH2 0xA80 SWAP1 PUSH2 0x132E JUMP JUMPDEST SWAP1 PUSH1 0x0 MSTORE PUSH1 0x20 PUSH1 0x0 KECCAK256 SWAP1 PUSH1 0x1F ADD PUSH1 0x20 SWAP1 DIV DUP2 ADD SWAP3 DUP3 PUSH2 0xAA2 JUMPI PUSH1 0x0 DUP6 SSTORE PUSH2 0xAE9 JUMP JUMPDEST DUP3 PUSH1 0x1F LT PUSH2 0xABB JUMPI DUP1 MLOAD PUSH1 0xFF NOT AND DUP4 DUP1 ADD OR DUP6 SSTORE PUSH2 0xAE9 JUMP JUMPDEST DUP3 DUP1 ADD PUSH1 0x1 ADD DUP6 SSTORE DUP3 ISZERO PUSH2 0xAE9 JUMPI SWAP2 DUP3 ADD JUMPDEST DUP3 DUP2 GT ISZERO PUSH2 0xAE8 JUMPI DUP3 MLOAD DUP3 SSTORE SWAP2 PUSH1 0x20 ADD SWAP2 SWAP1 PUSH1 0x1 ADD SWAP1 PUSH2 0xACD JUMP JUMPDEST JUMPDEST POP SWAP1 POP PUSH2 0xAF6 SWAP2 SWAP1 PUSH2 0xB34 JUMP JUMPDEST POP SWAP1 JUMP JUMPDEST PUSH1 0x40 MLOAD DUP1 PUSH1 0x80 ADD PUSH1 0x40 MSTORE DUP1 PUSH1 0x0 PUSH1 0xFF AND DUP2 MSTORE PUSH1 0x20 ADD PUSH1 0x0 PUSH1 0xFF AND DUP2 MSTORE PUSH1 0x20 ADD PUSH1 0x0 PUSH4 0xFFFFFFFF AND DUP2 MSTORE PUSH1 0x20 ADD PUSH1 0x0 PUSH4 0xFFFFFFFF AND DUP2 MSTORE POP SWAP1 JUMP JUMPDEST JUMPDEST DUP1 DUP3 GT ISZERO PUSH2 0xB4D JUMPI PUSH1 0x0 DUP2 PUSH1 0x0 SWAP1 SSTORE POP PUSH1 0x1 ADD PUSH2 0xB35 JUMP JUMPDEST POP SWAP1 JUMP JUMPDEST PUSH1 0x0 PUSH2 0xB64 PUSH2 0xB5F DUP5 PUSH2 0x1172 JUMP JUMPDEST PUSH2 0x114D JUMP JUMPDEST SWAP1 POP DUP3 DUP2 MSTORE PUSH1 0x20 DUP2 ADD DUP5 DUP5 DUP5 ADD GT ISZERO PUSH2 0xB80 JUMPI PUSH2 0xB7F PUSH2 0x1452 JUMP JUMPDEST JUMPDEST PUSH2 0xB8B DUP5 DUP3 DUP6 PUSH2 0x12EC JUMP JUMPDEST POP SWAP4 SWAP3 POP POP POP JUMP JUMPDEST PUSH1 0x0 DUP3 PUSH1 0x1F DUP4 ADD SLT PUSH2 0xBA8 JUMPI PUSH2 0xBA7 PUSH2 0x144D JUMP JUMPDEST JUMPDEST DUP2 CALLDATALOAD PUSH2 0xBB8 DUP5 DUP3 PUSH1 0x20 DUP7 ADD PUSH2 0xB51 JUMP JUMPDEST SWAP2 POP POP SWAP3 SWAP2 POP POP JUMP JUMPDEST PUSH1 0x0 DUP2 CALLDATALOAD SWAP1 POP PUSH2 0xBD0 DUP2 PUSH2 0x1513 JUMP JUMPDEST SWAP3 SWAP2 POP POP JUMP JUMPDEST PUSH1 0x0 DUP2 CALLDATALOAD SWAP1 POP PUSH2 0xBE5 DUP2 PUSH2 0x152A JUMP JUMPDEST SWAP3 SWAP2 POP POP JUMP JUMPDEST PUSH1 0x0 DUP1 PUSH1 0x40 DUP4 DUP6 SUB SLT ISZERO PUSH2 0xC02 JUMPI PUSH2 0xC01 PUSH2 0x145C JUMP JUMPDEST JUMPDEST PUSH1 0x0 DUP4 ADD CALLDATALOAD PUSH8 0xFFFFFFFFFFFFFFFF DUP2 GT ISZERO PUSH2 0xC20 JUMPI PUSH2 0xC1F PUSH2 0x1457 JUMP JUMPDEST JUMPDEST PUSH2 0xC2C DUP6 DUP3 DUP7 ADD PUSH2 0xB93 JUMP JUMPDEST SWAP3 POP POP PUSH1 0x20 DUP4 ADD CALLDATALOAD PUSH8 0xFFFFFFFFFFFFFFFF DUP2 GT ISZERO PUSH2 0xC4D JUMPI PUSH2 0xC4C PUSH2 0x1457 JUMP JUMPDEST JUMPDEST PUSH2 0xC59 DUP6 DUP3 DUP7 ADD PUSH2 0xB93 JUMP JUMPDEST SWAP2 POP POP SWAP3 POP SWAP3 SWAP1 POP JUMP JUMPDEST PUSH1 0x0 DUP1 PUSH1 0x0 PUSH1 0x60 DUP5 DUP7 SUB SLT ISZERO PUSH2 0xC7C JUMPI PUSH2 0xC7B PUSH2 0x145C JUMP JUMPDEST JUMPDEST PUSH1 0x0 DUP5 ADD CALLDATALOAD PUSH8 0xFFFFFFFFFFFFFFFF DUP2 GT ISZERO PUSH2 0xC9A JUMPI PUSH2 0xC99 PUSH2 0x1457 JUMP JUMPDEST JUMPDEST PUSH2 0xCA6 DUP7 DUP3 DUP8 ADD PUSH2 0xB93 JUMP JUMPDEST SWAP4 POP POP PUSH1 0x20 DUP5 ADD CALLDATALOAD PUSH8 0xFFFFFFFFFFFFFFFF DUP2 GT ISZERO PUSH2 0xCC7 JUMPI PUSH2 0xCC6 PUSH2 0x1457 JUMP JUMPDEST JUMPDEST PUSH2 0xCD3 DUP7 DUP3 DUP8 ADD PUSH2 0xB93 JUMP JUMPDEST SWAP3 POP POP PUSH1 0x40 PUSH2 0xCE4 DUP7 DUP3 DUP8 ADD PUSH2 0xBD6 JUMP JUMPDEST SWAP2 POP POP SWAP3 POP SWAP3 POP SWAP3 JUMP JUMPDEST PUSH1 0x0 DUP1 PUSH1 0x0 DUP1 PUSH1 0x80 DUP6 DUP8 SUB SLT ISZERO PUSH2 0xD08 JUMPI PUSH2 0xD07 PUSH2 0x145C JUMP JUMPDEST JUMPDEST PUSH1 0x0 PUSH2 0xD16 DUP8 DUP3 DUP9 ADD PUSH2 0xBC1 JUMP JUMPDEST SWAP5 POP POP PUSH1 0x20 DUP6 ADD CALLDATALOAD PUSH8 0xFFFFFFFFFFFFFFFF DUP2 GT ISZERO PUSH2 0xD37 JUMPI PUSH2 0xD36 PUSH2 0x1457 JUMP JUMPDEST JUMPDEST PUSH2 0xD43 DUP8 DUP3 DUP9 ADD PUSH2 0xB93 JUMP JUMPDEST SWAP4 POP POP PUSH1 0x40 DUP6 ADD CALLDATALOAD PUSH8 0xFFFFFFFFFFFFFFFF DUP2 GT ISZERO PUSH2 0xD64 JUMPI PUSH2 0xD63 PUSH2 0x1457 JUMP JUMPDEST JUMPDEST PUSH2 0xD70 DUP8 DUP3 DUP9 ADD PUSH2 0xB93 JUMP JUMPDEST SWAP3 POP POP PUSH1 0x60 PUSH2 0xD81 DUP8 DUP3 DUP9 ADD PUSH2 0xBD6 JUMP JUMPDEST SWAP2 POP POP SWAP3 SWAP6 SWAP2 SWAP5 POP SWAP3 POP JUMP JUMPDEST PUSH1 0x0 PUSH2 0xD99 DUP4 DUP4 PUSH2 0xE8C JUMP JUMPDEST SWAP1 POP SWAP3 SWAP2 POP POP JUMP JUMPDEST PUSH1 0x0 PUSH2 0xDAD DUP4 DUP4 PUSH2 0xF98 JUMP JUMPDEST PUSH1 0x80 DUP4 ADD SWAP1 POP SWAP3 SWAP2 POP POP JUMP JUMPDEST PUSH1 0x0 PUSH2 0xDC4 DUP3 PUSH2 0x11C3 JUMP JUMPDEST PUSH2 0xDCE DUP2 DUP6 PUSH2 0x11FE JUMP JUMPDEST SWAP4 POP DUP4 PUSH1 0x20 DUP3 MUL DUP6 ADD PUSH2 0xDE0 DUP6 PUSH2 0x11A3 JUMP JUMPDEST DUP1 PUSH1 0x0 JUMPDEST DUP6 DUP2 LT ISZERO PUSH2 0xE1C JUMPI DUP5 DUP5 SUB DUP10 MSTORE DUP2 MLOAD PUSH2 0xDFD DUP6 DUP3 PUSH2 0xD8D JUMP JUMPDEST SWAP5 POP PUSH2 0xE08 DUP4 PUSH2 0x11E4 JUMP JUMPDEST SWAP3 POP PUSH1 0x20 DUP11 ADD SWAP10 POP POP PUSH1 0x1 DUP2 ADD SWAP1 POP PUSH2 0xDE4 JUMP JUMPDEST POP DUP3 SWAP8 POP DUP8 SWAP6 POP POP POP POP POP POP SWAP3 SWAP2 POP POP JUMP JUMPDEST PUSH1 0x0 PUSH2 0xE39 DUP3 PUSH2 0x11CE JUMP JUMPDEST PUSH2 0xE43 DUP2 DUP6 PUSH2 0x120F JUMP JUMPDEST SWAP4 POP PUSH2 0xE4E DUP4 PUSH2 0x11B3 JUMP JUMPDEST DUP1 PUSH1 0x0 JUMPDEST DUP4 DUP2 LT ISZERO PUSH2 0xE7F JUMPI DUP2 MLOAD PUSH2 0xE66 DUP9 DUP3 PUSH2 0xDA1 JUMP JUMPDEST SWAP8 POP PUSH2 0xE71 DUP4 PUSH2 0x11F1 JUMP JUMPDEST SWAP3 POP POP PUSH1 0x1 DUP2 ADD SWAP1 POP PUSH2 0xE52 JUMP JUMPDEST POP DUP6 SWAP4 POP POP POP POP SWAP3 SWAP2 POP POP JUMP JUMPDEST PUSH1 0x0 PUSH2 0xE97 DUP3 PUSH2 0x11D9 JUMP JUMPDEST PUSH2 0xEA1 DUP2 DUP6 PUSH2 0x1220 JUMP JUMPDEST SWAP4 POP PUSH2 0xEB1 DUP2 DUP6 PUSH1 0x20 DUP7 ADD PUSH2 0x12FB JUMP JUMPDEST PUSH2 0xEBA DUP2 PUSH2 0x1461 JUMP JUMPDEST DUP5 ADD SWAP2 POP POP SWAP3 SWAP2 POP POP JUMP JUMPDEST PUSH1 0x0 PUSH2 0xED0 DUP3 PUSH2 0x11D9 JUMP JUMPDEST PUSH2 0xEDA DUP2 DUP6 PUSH2 0x1231 JUMP JUMPDEST SWAP4 POP PUSH2 0xEEA DUP2 DUP6 PUSH1 0x20 DUP7 ADD PUSH2 0x12FB JUMP JUMPDEST PUSH2 0xEF3 DUP2 PUSH2 0x1461 JUMP JUMPDEST DUP5 ADD SWAP2 POP POP SWAP3 SWAP2 POP POP JUMP JUMPDEST PUSH1 0x0 PUSH2 0xF09 DUP3 PUSH2 0x11D9 JUMP JUMPDEST PUSH2 0xF13 DUP2 DUP6 PUSH2 0x1242 JUMP JUMPDEST SWAP4 POP PUSH2 0xF23 DUP2 DUP6 PUSH1 0x20 DUP7 ADD PUSH2 0x12FB JUMP JUMPDEST DUP1 DUP5 ADD SWAP2 POP POP SWAP3 SWAP2 POP POP JUMP JUMPDEST PUSH1 0x0 PUSH2 0xF3C PUSH1 0x3B DUP4 PUSH2 0x1231 JUMP JUMPDEST SWAP2 POP PUSH2 0xF47 DUP3 PUSH2 0x1472 JUMP JUMPDEST PUSH1 0x40 DUP3 ADD SWAP1 POP SWAP2 SWAP1 POP JUMP JUMPDEST PUSH1 0x0 PUSH2 0xF5F PUSH1 0xE DUP4 PUSH2 0x1242 JUMP JUMPDEST SWAP2 POP PUSH2 0xF6A DUP3 PUSH2 0x14C1 JUMP JUMPDEST PUSH1 0xE DUP3 ADD SWAP1 POP SWAP2 SWAP1 POP JUMP JUMPDEST PUSH1 0x0 PUSH2 0xF82 PUSH1 0x8 DUP4 PUSH2 0x1242 JUMP JUMPDEST SWAP2 POP PUSH2 0xF8D DUP3 PUSH2 0x14EA JUMP JUMPDEST PUSH1 0x8 DUP3 ADD SWAP1 POP SWAP2 SWAP1 POP JUMP JUMPDEST PUSH1 0x80 DUP3 ADD PUSH1 0x0 DUP3 ADD MLOAD PUSH2 0xFAE PUSH1 0x0 DUP6 ADD DUP3 PUSH2 0x1051 JUMP JUMPDEST POP PUSH1 0x20 DUP3 ADD MLOAD PUSH2 0xFC1 PUSH1 0x20 DUP6 ADD DUP3 PUSH2 0x1051 JUMP JUMPDEST POP PUSH1 0x40 DUP3 ADD MLOAD PUSH2 0xFD4 PUSH1 0x40 DUP6 ADD DUP3 PUSH2 0x1042 JUMP JUMPDEST POP PUSH1 0x60 DUP3 ADD MLOAD PUSH2 0xFE7 PUSH1 0x60 DUP6 ADD DUP3 PUSH2 0x1042 JUMP JUMPDEST POP POP POP POP JUMP JUMPDEST PUSH1 0x80 DUP3 ADD PUSH1 0x0 DUP3 ADD MLOAD PUSH2 0x1003 PUSH1 0x0 DUP6 ADD DUP3 PUSH2 0x1051 JUMP JUMPDEST POP PUSH1 0x20 DUP3 ADD MLOAD PUSH2 0x1016 PUSH1 0x20 DUP6 ADD DUP3 PUSH2 0x1051 JUMP JUMPDEST POP PUSH1 0x40 DUP3 ADD MLOAD PUSH2 0x1029 PUSH1 0x40 DUP6 ADD DUP3 PUSH2 0x1042 JUMP JUMPDEST POP PUSH1 0x60 DUP3 ADD MLOAD PUSH2 0x103C PUSH1 0x60 DUP6 ADD DUP3 PUSH2 0x1042 JUMP JUMPDEST POP POP POP POP JUMP JUMPDEST PUSH2 0x104B DUP2 PUSH2 0x12CF JUMP JUMPDEST DUP3 MSTORE POP POP JUMP JUMPDEST PUSH2 0x105A DUP2 PUSH2 0x12DF JUMP JUMPDEST DUP3 MSTORE POP POP JUMP JUMPDEST PUSH1 0x0 PUSH2 0x106C DUP3 DUP5 PUSH2 0xEFE JUMP JUMPDEST SWAP2 POP DUP2 SWAP1 POP SWAP3 SWAP2 POP POP JUMP JUMPDEST PUSH1 0x0 PUSH2 0x1082 DUP3 PUSH2 0xF75 JUMP JUMPDEST SWAP2 POP PUSH2 0x108E DUP3 DUP5 PUSH2 0xEFE JUMP JUMPDEST SWAP2 POP PUSH2 0x1099 DUP3 PUSH2 0xF52 JUMP JUMPDEST SWAP2 POP DUP2 SWAP1 POP SWAP3 SWAP2 POP POP JUMP JUMPDEST PUSH1 0x0 PUSH1 0x60 DUP3 ADD SWAP1 POP DUP2 DUP2 SUB PUSH1 0x0 DUP4 ADD MSTORE PUSH2 0x10BE DUP2 DUP7 PUSH2 0xDB9 JUMP JUMPDEST SWAP1 POP DUP2 DUP2 SUB PUSH1 0x20 DUP4 ADD MSTORE PUSH2 0x10D2 DUP2 DUP6 PUSH2 0xDB9 JUMP JUMPDEST SWAP1 POP DUP2 DUP2 SUB PUSH1 0x40 DUP4 ADD MSTORE PUSH2 0x10E6 DUP2 DUP5 PUSH2 0xE2E JUMP JUMPDEST SWAP1 POP SWAP5 SWAP4 POP POP POP POP JUMP JUMPDEST PUSH1 0x0 PUSH1 0x20 DUP3 ADD SWAP1 POP DUP2 DUP2 SUB PUSH1 0x0 DUP4 ADD MSTORE PUSH2 0x110A DUP2 DUP5 PUSH2 0xEC5 JUMP JUMPDEST SWAP1 POP SWAP3 SWAP2 POP POP JUMP JUMPDEST PUSH1 0x0 PUSH1 0x20 DUP3 ADD SWAP1 POP DUP2 DUP2 SUB PUSH1 0x0 DUP4 ADD MSTORE PUSH2 0x112B DUP2 PUSH2 0xF2F JUMP JUMPDEST SWAP1 POP SWAP2 SWAP1 POP JUMP JUMPDEST PUSH1 0x0 PUSH1 0x80 DUP3 ADD SWAP1 POP PUSH2 0x1147 PUSH1 0x0 DUP4 ADD DUP5 PUSH2 0xFED JUMP JUMPDEST SWAP3 SWAP2 POP POP JUMP JUMPDEST PUSH1 0x0 PUSH2 0x1157 PUSH2 0x1168 JUMP JUMPDEST SWAP1 POP PUSH2 0x1163 DUP3 DUP3 PUSH2 0x1360 JUMP JUMPDEST SWAP2 SWAP1 POP JUMP JUMPDEST PUSH1 0x0 PUSH1 0x40 MLOAD SWAP1 POP SWAP1 JUMP JUMPDEST PUSH1 0x0 PUSH8 0xFFFFFFFFFFFFFFFF DUP3 GT ISZERO PUSH2 0x118D JUMPI PUSH2 0x118C PUSH2 0x141E JUMP JUMPDEST JUMPDEST PUSH2 0x1196 DUP3 PUSH2 0x1461 JUMP JUMPDEST SWAP1 POP PUSH1 0x20 DUP2 ADD SWAP1 POP SWAP2 SWAP1 POP JUMP JUMPDEST PUSH1 0x0 DUP2 SWAP1 POP PUSH1 0x20 DUP3 ADD SWAP1 POP SWAP2 SWAP1 POP JUMP JUMPDEST PUSH1 0x0 DUP2 SWAP1 POP PUSH1 0x20 DUP3 ADD SWAP1 POP SWAP2 SWAP1 POP JUMP JUMPDEST PUSH1 0x0 DUP2 MLOAD SWAP1 POP SWAP2 SWAP1 POP JUMP JUMPDEST PUSH1 0x0 DUP2 MLOAD SWAP1 POP SWAP2 SWAP1 POP JUMP JUMPDEST PUSH1 0x0 DUP2 MLOAD SWAP1 POP SWAP2 SWAP1 POP JUMP JUMPDEST PUSH1 0x0 PUSH1 0x20 DUP3 ADD SWAP1 POP SWAP2 SWAP1 POP JUMP JUMPDEST PUSH1 0x0 PUSH1 0x20 DUP3 ADD SWAP1 POP SWAP2 SWAP1 POP JUMP JUMPDEST PUSH1 0x0 DUP3 DUP3 MSTORE PUSH1 0x20 DUP3 ADD SWAP1 POP SWAP3 SWAP2 POP POP JUMP JUMPDEST PUSH1 0x0 DUP3 DUP3 MSTORE PUSH1 0x20 DUP3 ADD SWAP1 POP SWAP3 SWAP2 POP POP JUMP JUMPDEST PUSH1 0x0 DUP3 DUP3 MSTORE PUSH1 0x20 DUP3 ADD SWAP1 POP SWAP3 SWAP2 POP POP JUMP JUMPDEST PUSH1 0x0 DUP3 DUP3 MSTORE PUSH1 0x20 DUP3 ADD SWAP1 POP SWAP3 SWAP2 POP POP JUMP JUMPDEST PUSH1 0x0 DUP2 SWAP1 POP SWAP3 SWAP2 POP POP JUMP JUMPDEST PUSH1 0x0 PUSH2 0x1258 DUP3 PUSH2 0x12CF JUMP JUMPDEST SWAP2 POP PUSH2 0x1263 DUP4 PUSH2 0x12CF JUMP JUMPDEST SWAP3 POP DUP3 PUSH4 0xFFFFFFFF SUB DUP3 GT ISZERO PUSH2 0x127C JUMPI PUSH2 0x127B PUSH2 0x1391 JUMP JUMPDEST JUMPDEST DUP3 DUP3 ADD SWAP1 POP SWAP3 SWAP2 POP POP JUMP JUMPDEST PUSH1 0x0 PUSH2 0x1292 DUP3 PUSH2 0x12CF JUMP JUMPDEST SWAP2 POP PUSH2 0x129D DUP4 PUSH2 0x12CF JUMP JUMPDEST SWAP3 POP DUP2 PUSH4 0xFFFFFFFF DIV DUP4 GT DUP3 ISZERO ISZERO AND ISZERO PUSH2 0x12BA JUMPI PUSH2 0x12B9 PUSH2 0x1391 JUMP JUMPDEST JUMPDEST DUP3 DUP3 MUL SWAP1 POP SWAP3 SWAP2 POP POP JUMP JUMPDEST PUSH1 0x0 DUP2 SWAP1 POP SWAP2 SWAP1 POP JUMP JUMPDEST PUSH1 0x0 PUSH4 0xFFFFFFFF DUP3 AND SWAP1 POP SWAP2 SWAP1 POP JUMP JUMPDEST PUSH1 0x0 PUSH1 0xFF DUP3 AND SWAP1 POP SWAP2 SWAP1 POP JUMP JUMPDEST DUP3 DUP2 DUP4 CALLDATACOPY PUSH1 0x0 DUP4 DUP4 ADD MSTORE POP POP POP JUMP JUMPDEST PUSH1 0x0 JUMPDEST DUP4 DUP2 LT ISZERO PUSH2 0x1319 JUMPI DUP1 DUP3 ADD MLOAD DUP2 DUP5 ADD MSTORE PUSH1 0x20 DUP2 ADD SWAP1 POP PUSH2 0x12FE JUMP JUMPDEST DUP4 DUP2 GT ISZERO PUSH2 0x1328 JUMPI PUSH1 0x0 DUP5 DUP5 ADD MSTORE JUMPDEST POP POP POP POP JUMP JUMPDEST PUSH1 0x0 PUSH1 0x2 DUP3 DIV SWAP1 POP PUSH1 0x1 DUP3 AND DUP1 PUSH2 0x1346 JUMPI PUSH1 0x7F DUP3 AND SWAP2 POP JUMPDEST PUSH1 0x20 DUP3 LT DUP2 EQ ISZERO PUSH2 0x135A JUMPI PUSH2 0x1359 PUSH2 0x13C0 JUMP JUMPDEST JUMPDEST POP SWAP2 SWAP1 POP JUMP JUMPDEST PUSH2 0x1369 DUP3 PUSH2 0x1461 JUMP JUMPDEST DUP2 ADD DUP2 DUP2 LT PUSH8 0xFFFFFFFFFFFFFFFF DUP3 GT OR ISZERO PUSH2 0x1388 JUMPI PUSH2 0x1387 PUSH2 0x141E JUMP JUMPDEST JUMPDEST DUP1 PUSH1 0x40 MSTORE POP POP POP JUMP JUMPDEST PUSH32 0x4E487B7100000000000000000000000000000000000000000000000000000000 PUSH1 0x0 MSTORE PUSH1 0x11 PUSH1 0x4 MSTORE PUSH1 0x24 PUSH1 0x0 REVERT JUMPDEST PUSH32 0x4E487B7100000000000000000000000000000000000000000000000000000000 PUSH1 0x0 MSTORE PUSH1 0x22 PUSH1 0x4 MSTORE PUSH1 0x24 PUSH1 0x0 REVERT JUMPDEST PUSH32 0x4E487B7100000000000000000000000000000000000000000000000000000000 PUSH1 0x0 MSTORE PUSH1 0x32 PUSH1 0x4 MSTORE PUSH1 0x24 PUSH1 0x0 REVERT JUMPDEST PUSH32 0x4E487B7100000000000000000000000000000000000000000000000000000000 PUSH1 0x0 MSTORE PUSH1 0x41 PUSH1 0x4 MSTORE PUSH1 0x24 PUSH1 0x0 REVERT JUMPDEST PUSH1 0x0 DUP1 REVERT JUMPDEST PUSH1 0x0 DUP1 REVERT JUMPDEST PUSH1 0x0 DUP1 REVERT JUMPDEST PUSH1 0x0 DUP1 REVERT JUMPDEST PUSH1 0x0 PUSH1 0x1F NOT PUSH1 0x1F DUP4 ADD AND SWAP1 POP SWAP2 SWAP1 POP JUMP JUMPDEST PUSH32 0x546865206D6574686F642067657454696D65496E5365636F6E647320646F6573 PUSH1 0x0 DUP3 ADD MSTORE PUSH32 0x6E277420776F726B20666F72204D4F4E544820616E6420594541520000000000 PUSH1 0x20 DUP3 ADD MSTORE POP JUMP JUMPDEST PUSH32 0x646F65736E27742065786973742E000000000000000000000000000000000000 PUSH1 0x0 DUP3 ADD MSTORE POP JUMP JUMPDEST PUSH32 0x546865206B657920000000000000000000000000000000000000000000000000 PUSH1 0x0 DUP3 ADD MSTORE POP JUMP JUMPDEST PUSH2 0x151C DUP2 PUSH2 0x12C5 JUMP JUMPDEST DUP2 EQ PUSH2 0x1527 JUMPI PUSH1 0x0 DUP1 REVERT JUMPDEST POP JUMP JUMPDEST PUSH2 0x1533 DUP2 PUSH2 0x12CF JUMP JUMPDEST DUP2 EQ PUSH2 0x153E JUMPI PUSH1 0x0 DUP1 REVERT JUMPDEST POP JUMP INVALID LOG2 PUSH5 0x6970667358 0x22 SLT KECCAK256 0xD5 0xA5 SUB CODECOPY 0x5E ISZERO 0xE8 0x4C PUSH21 0x78227A24225E5F6C9F9A4F4BCC753176821EF6898A SGT 0xAE PUSH5 0x736F6C6343 STOP ADDMOD SMOD STOP CALLER "
				},
				"gasEstimates": {
					"creation": {
						"codeDepositCost": "1099000",
						"executionCost": "infinite",
						"totalCost": "infinite"
					},
					"external": {
						"getAllSessionIntervalByRef()": "infinite",
						"getSessionIntervalById(string,string)": "infinite",
						"isTheSessionIdOpen(string,string,uint32)": "infinite",
						"startSection(uint256,string,string,uint32)": "infinite"
					}
				},
				"methodIdentifiers": {
					"getAllSessionIntervalByRef()": "0a4822c5",
					"getSessionIntervalById(string,string)": "dfc305de",
					"isTheSessionIdOpen(string,string,uint32)": "4acdc8c6",
					"startSection(uint256,string,string,uint32)": "1daf751d"
				}
			},
			"storageLayout": {
				"storage": [
					{
						"astId": 1966,
						"contract": "contracts/lib/referencesCode-eai/011_SessionInterval_byIdRef_refCod.sol:SessionInterval_refCod",
						"label": "sessionInterval",
						"offset": 0,
						"slot": "0",
						"type": "t_array(t_struct(SessionInterval)1252_storage)dyn_storage"
					},
					{
						"astId": 1973,
						"contract": "contracts/lib/referencesCode-eai/011_SessionInterval_byIdRef_refCod.sol:SessionInterval_refCod",
						"label": "sessionByVar",
						"offset": 0,
						"slot": "1",
						"type": "t_mapping(t_string_memory_ptr,t_mapping(t_string_memory_ptr,t_struct(SessionInterval)1252_storage))"
					},
					{
						"astId": 1976,
						"contract": "contracts/lib/referencesCode-eai/011_SessionInterval_byIdRef_refCod.sol:SessionInterval_refCod",
						"label": "keys_k1",
						"offset": 0,
						"slot": "2",
						"type": "t_array(t_string_storage)dyn_storage"
					},
					{
						"astId": 1979,
						"contract": "contracts/lib/referencesCode-eai/011_SessionInterval_byIdRef_refCod.sol:SessionInterval_refCod",
						"label": "keys_k2",
						"offset": 0,
						"slot": "3",
						"type": "t_array(t_string_storage)dyn_storage"
					},
					{
						"astId": 1983,
						"contract": "contracts/lib/referencesCode-eai/011_SessionInterval_byIdRef_refCod.sol:SessionInterval_refCod",
						"label": "exists_k1",
						"offset": 0,
						"slot": "4",
						"type": "t_mapping(t_string_memory_ptr,t_bool)"
					},
					{
						"astId": 1987,
						"contract": "contracts/lib/referencesCode-eai/011_SessionInterval_byIdRef_refCod.sol:SessionInterval_refCod",
						"label": "exists_k2",
						"offset": 0,
						"slot": "5",
						"type": "t_mapping(t_string_memory_ptr,t_bool)"
					}
				],
				"types": {
					"t_array(t_string_storage)dyn_storage": {
						"base": "t_string_storage",
						"encoding": "dynamic_array",
						"label": "string[]",
						"numberOfBytes": "32"
					},
					"t_array(t_struct(SessionInterval)1252_storage)dyn_storage": {
						"base": "t_struct(SessionInterval)1252_storage",
						"encoding": "dynamic_array",
						"label": "struct EAI.SessionInterval[]",
						"numberOfBytes": "32"
					},
					"t_bool": {
						"encoding": "inplace",
						"label": "bool",
						"numberOfBytes": "1"
					},
					"t_mapping(t_string_memory_ptr,t_bool)": {
						"encoding": "mapping",
						"key": "t_string_memory_ptr",
						"label": "mapping(string => bool)",
						"numberOfBytes": "32",
						"value": "t_bool"
					},
					"t_mapping(t_string_memory_ptr,t_mapping(t_string_memory_ptr,t_struct(SessionInterval)1252_storage))": {
						"encoding": "mapping",
						"key": "t_string_memory_ptr",
						"label": "mapping(string => mapping(string => struct EAI.SessionInterval))",
						"numberOfBytes": "32",
						"value": "t_mapping(t_string_memory_ptr,t_struct(SessionInterval)1252_storage)"
					},
					"t_mapping(t_string_memory_ptr,t_struct(SessionInterval)1252_storage)": {
						"encoding": "mapping",
						"key": "t_string_memory_ptr",
						"label": "mapping(string => struct EAI.SessionInterval)",
						"numberOfBytes": "32",
						"value": "t_struct(SessionInterval)1252_storage"
					},
					"t_string_memory_ptr": {
						"encoding": "bytes",
						"label": "string",
						"numberOfBytes": "32"
					},
					"t_string_storage": {
						"encoding": "bytes",
						"label": "string",
						"numberOfBytes": "32"
					},
					"t_struct(SessionInterval)1252_storage": {
						"encoding": "inplace",
						"label": "struct EAI.SessionInterval",
						"members": [
							{
								"astId": 1245,
								"contract": "contracts/lib/referencesCode-eai/011_SessionInterval_byIdRef_refCod.sol:SessionInterval_refCod",
								"label": "duration",
								"offset": 0,
								"slot": "0",
								"type": "t_uint8"
							},
							{
								"astId": 1247,
								"contract": "contracts/lib/referencesCode-eai/011_SessionInterval_byIdRef_refCod.sol:SessionInterval_refCod",
								"label": "timeUnit",
								"offset": 1,
								"slot": "0",
								"type": "t_uint8"
							},
							{
								"astId": 1249,
								"contract": "contracts/lib/referencesCode-eai/011_SessionInterval_byIdRef_refCod.sol:SessionInterval_refCod",
								"label": "durationInSeconds",
								"offset": 2,
								"slot": "0",
								"type": "t_uint32"
							},
							{
								"astId": 1251,
								"contract": "contracts/lib/referencesCode-eai/011_SessionInterval_byIdRef_refCod.sol:SessionInterval_refCod",
								"label": "endTime",
								"offset": 6,
								"slot": "0",
								"type": "t_uint32"
							}
						],
						"numberOfBytes": "32"
					},
					"t_uint32": {
						"encoding": "inplace",
						"label": "uint32",
						"numberOfBytes": "4"
					},
					"t_uint8": {
						"encoding": "inplace",
						"label": "uint8",
						"numberOfBytes": "1"
					}
				}
			},
			"userdoc": {
				"kind": "user",
				"methods": {},
				"version": 1
			}
		}
	}
}