{
	"contracts/lib/referencesCode-eai/010_SessionInterval_refCod.sol": {
		"SessionInterval_refCod": {
			"abi": [
				{
					"inputs": [],
					"stateMutability": "nonpayable",
					"type": "constructor"
				},
				{
					"inputs": [
						{
							"internalType": "string",
							"name": "_mapIdRef",
							"type": "string"
						},
						{
							"internalType": "uint256",
							"name": "_id",
							"type": "uint256"
						}
					],
					"name": "createSessionIntevalByIdRef",
					"outputs": [],
					"stateMutability": "nonpayable",
					"type": "function"
				},
				{
					"inputs": [
						{
							"internalType": "string",
							"name": "_idRef",
							"type": "string"
						}
					],
					"name": "deleteSessionInterval_idRef",
					"outputs": [
						{
							"internalType": "uint256",
							"name": "",
							"type": "uint256"
						}
					],
					"stateMutability": "nonpayable",
					"type": "function"
				},
				{
					"inputs": [],
					"name": "getAllSessionInterval",
					"outputs": [
						{
							"components": [
								{
									"internalType": "uint8",
									"name": "duration",
									"type": "uint8"
								},
								{
									"internalType": "uint8",
									"name": "timeUnit",
									"type": "uint8"
								},
								{
									"internalType": "uint32",
									"name": "durationInSeconds",
									"type": "uint32"
								},
								{
									"internalType": "uint32",
									"name": "endTime",
									"type": "uint32"
								}
							],
							"internalType": "struct EAI.SessionInterval[]",
							"name": "",
							"type": "tuple[]"
						}
					],
					"stateMutability": "view",
					"type": "function"
				},
				{
					"inputs": [],
					"name": "getAllSessionInterval_mapping",
					"outputs": [
						{
							"internalType": "string[]",
							"name": "",
							"type": "string[]"
						},
						{
							"components": [
								{
									"internalType": "uint8",
									"name": "duration",
									"type": "uint8"
								},
								{
									"internalType": "uint8",
									"name": "timeUnit",
									"type": "uint8"
								},
								{
									"internalType": "uint32",
									"name": "durationInSeconds",
									"type": "uint32"
								},
								{
									"internalType": "uint32",
									"name": "endTime",
									"type": "uint32"
								}
							],
							"internalType": "struct EAI.SessionInterval[]",
							"name": "",
							"type": "tuple[]"
						}
					],
					"stateMutability": "view",
					"type": "function"
				},
				{
					"inputs": [
						{
							"internalType": "uint256",
							"name": "_id",
							"type": "uint256"
						}
					],
					"name": "getSessionIntervalById",
					"outputs": [
						{
							"components": [
								{
									"internalType": "uint8",
									"name": "duration",
									"type": "uint8"
								},
								{
									"internalType": "uint8",
									"name": "timeUnit",
									"type": "uint8"
								},
								{
									"internalType": "uint32",
									"name": "durationInSeconds",
									"type": "uint32"
								},
								{
									"internalType": "uint32",
									"name": "endTime",
									"type": "uint32"
								}
							],
							"internalType": "struct EAI.SessionInterval",
							"name": "",
							"type": "tuple"
						}
					],
					"stateMutability": "view",
					"type": "function"
				},
				{
					"inputs": [
						{
							"internalType": "string",
							"name": "_mapIdRef",
							"type": "string"
						}
					],
					"name": "getSessionIntervalByIdRef",
					"outputs": [
						{
							"components": [
								{
									"internalType": "uint8",
									"name": "duration",
									"type": "uint8"
								},
								{
									"internalType": "uint8",
									"name": "timeUnit",
									"type": "uint8"
								},
								{
									"internalType": "uint32",
									"name": "durationInSeconds",
									"type": "uint32"
								},
								{
									"internalType": "uint32",
									"name": "endTime",
									"type": "uint32"
								}
							],
							"internalType": "struct EAI.SessionInterval",
							"name": "",
							"type": "tuple"
						}
					],
					"stateMutability": "view",
					"type": "function"
				},
				{
					"inputs": [
						{
							"internalType": "string",
							"name": "_idRef",
							"type": "string"
						},
						{
							"internalType": "uint32",
							"name": "_accessDateTime",
							"type": "uint32"
						}
					],
					"name": "isTheSessionIdOpen",
					"outputs": [
						{
							"internalType": "string",
							"name": "",
							"type": "string"
						}
					],
					"stateMutability": "view",
					"type": "function"
				},
				{
					"inputs": [
						{
							"internalType": "uint256",
							"name": "_id",
							"type": "uint256"
						},
						{
							"internalType": "uint32",
							"name": "_accessDateTime",
							"type": "uint32"
						}
					],
					"name": "isTheSessionIdOpen",
					"outputs": [
						{
							"internalType": "string",
							"name": "",
							"type": "string"
						}
					],
					"stateMutability": "view",
					"type": "function"
				},
				{
					"inputs": [
						{
							"internalType": "uint256",
							"name": "_id",
							"type": "uint256"
						},
						{
							"internalType": "uint32",
							"name": "_accessDateTime",
							"type": "uint32"
						}
					],
					"name": "startNewSection",
					"outputs": [],
					"stateMutability": "nonpayable",
					"type": "function"
				},
				{
					"inputs": [
						{
							"internalType": "string",
							"name": "_idRef",
							"type": "string"
						},
						{
							"internalType": "uint32",
							"name": "_accessDateTime",
							"type": "uint32"
						}
					],
					"name": "startNewSessionIntervalByIdRef",
					"outputs": [],
					"stateMutability": "nonpayable",
					"type": "function"
				}
			],
			"devdoc": {
				"kind": "dev",
				"methods": {},
				"version": 1
			},
			"evm": {
				"assembly": "    /* \"contracts/lib/referencesCode-eai/010_SessionInterval_refCod.sol\":98:3799  contract SessionInterval_refCod{\r... */\n  mstore(0x40, 0x80)\n    /* \"contracts/lib/referencesCode-eai/010_SessionInterval_refCod.sol\":358:732  constructor(){\r... */\n  callvalue\n  dup1\n  iszero\n  tag_1\n  jumpi\n  0x00\n  dup1\n  revert\ntag_1:\n  pop\n    /* \"contracts/lib/referencesCode-eai/010_SessionInterval_refCod.sol\":382:397  sessionInterval */\n  0x00\n    /* \"contracts/lib/referencesCode-eai/010_SessionInterval_refCod.sol\":403:442  EAI.createSessionInteval(2, EAI.SECOND) */\n  tag_4\n    /* \"contracts/lib/referencesCode-eai/010_SessionInterval_refCod.sol\":428:429  2 */\n  0x02\n    /* \"contracts/lib/eai/EAI.sol\":666:667  0 */\n  0x00\n    /* \"contracts/lib/referencesCode-eai/010_SessionInterval_refCod.sol\":403:427  EAI.createSessionInteval */\n  or(tag_0_59, shl(0x20, tag_5))\n    /* \"contracts/lib/referencesCode-eai/010_SessionInterval_refCod.sol\":403:442  EAI.createSessionInteval(2, EAI.SECOND) */\n  0x20\n  shr\n  jump\t// in\ntag_4:\n    /* \"contracts/lib/referencesCode-eai/010_SessionInterval_refCod.sol\":382:443  sessionInterval.push(EAI.createSessionInteval(2, EAI.SECOND)) */\n  swap1\n  dup1\n  0x01\n  dup2\n  sload\n  add\n  dup1\n  dup3\n  sstore\n  dup1\n  swap2\n  pop\n  pop\n  0x01\n  swap1\n  sub\n  swap1\n  0x00\n  mstore\n  keccak256(0x00, 0x20)\n  add\n  0x00\n  swap1\n  swap2\n  swap1\n  swap2\n  swap1\n  swap2\n  pop\n  0x00\n  dup3\n  add\n  mload\n  dup2\n  0x00\n  add\n  exp(0x0100, 0x00)\n  dup2\n  sload\n  dup2\n  0xff\n  mul\n  not\n  and\n  swap1\n  dup4\n  0xff\n  and\n  mul\n  or\n  swap1\n  sstore\n  pop\n  0x20\n  dup3\n  add\n  mload\n  dup2\n  0x00\n  add\n  exp(0x0100, 0x01)\n  dup2\n  sload\n  dup2\n  0xff\n  mul\n  not\n  and\n  swap1\n  dup4\n  0xff\n  and\n  mul\n  or\n  swap1\n  sstore\n  pop\n  0x40\n  dup3\n  add\n  mload\n  dup2\n  0x00\n  add\n  exp(0x0100, 0x02)\n  dup2\n  sload\n  dup2\n  0xffffffff\n  mul\n  not\n  and\n  swap1\n  dup4\n  0xffffffff\n  and\n  mul\n  or\n  swap1\n  sstore\n  pop\n  0x60\n  dup3\n  add\n  mload\n  dup2\n  0x00\n  add\n  exp(0x0100, 0x06)\n  dup2\n  sload\n  dup2\n  0xffffffff\n  mul\n  not\n  and\n  swap1\n  dup4\n  0xffffffff\n  and\n  mul\n  or\n  swap1\n  sstore\n  pop\n  pop\n  pop\n    /* \"contracts/lib/referencesCode-eai/010_SessionInterval_refCod.sol\":454:469  sessionInterval */\n  0x00\n    /* \"contracts/lib/referencesCode-eai/010_SessionInterval_refCod.sol\":475:514  EAI.createSessionInteval(2, EAI.MINUTE) */\n  tag_7\n    /* \"contracts/lib/referencesCode-eai/010_SessionInterval_refCod.sol\":500:501  2 */\n  0x02\n    /* \"contracts/lib/eai/EAI.sol\":698:699  1 */\n  0x01\n    /* \"contracts/lib/referencesCode-eai/010_SessionInterval_refCod.sol\":475:499  EAI.createSessionInteval */\n  or(tag_0_59, shl(0x20, tag_5))\n    /* \"contracts/lib/referencesCode-eai/010_SessionInterval_refCod.sol\":475:514  EAI.createSessionInteval(2, EAI.MINUTE) */\n  0x20\n  shr\n  jump\t// in\ntag_7:\n    /* \"contracts/lib/referencesCode-eai/010_SessionInterval_refCod.sol\":454:515  sessionInterval.push(EAI.createSessionInteval(2, EAI.MINUTE)) */\n  swap1\n  dup1\n  0x01\n  dup2\n  sload\n  add\n  dup1\n  dup3\n  sstore\n  dup1\n  swap2\n  pop\n  pop\n  0x01\n  swap1\n  sub\n  swap1\n  0x00\n  mstore\n  keccak256(0x00, 0x20)\n  add\n  0x00\n  swap1\n  swap2\n  swap1\n  swap2\n  swap1\n  swap2\n  pop\n  0x00\n  dup3\n  add\n  mload\n  dup2\n  0x00\n  add\n  exp(0x0100, 0x00)\n  dup2\n  sload\n  dup2\n  0xff\n  mul\n  not\n  and\n  swap1\n  dup4\n  0xff\n  and\n  mul\n  or\n  swap1\n  sstore\n  pop\n  0x20\n  dup3\n  add\n  mload\n  dup2\n  0x00\n  add\n  exp(0x0100, 0x01)\n  dup2\n  sload\n  dup2\n  0xff\n  mul\n  not\n  and\n  swap1\n  dup4\n  0xff\n  and\n  mul\n  or\n  swap1\n  sstore\n  pop\n  0x40\n  dup3\n  add\n  mload\n  dup2\n  0x00\n  add\n  exp(0x0100, 0x02)\n  dup2\n  sload\n  dup2\n  0xffffffff\n  mul\n  not\n  and\n  swap1\n  dup4\n  0xffffffff\n  and\n  mul\n  or\n  swap1\n  sstore\n  pop\n  0x60\n  dup3\n  add\n  mload\n  dup2\n  0x00\n  add\n  exp(0x0100, 0x06)\n  dup2\n  sload\n  dup2\n  0xffffffff\n  mul\n  not\n  and\n  swap1\n  dup4\n  0xffffffff\n  and\n  mul\n  or\n  swap1\n  sstore\n  pop\n  pop\n  pop\n    /* \"contracts/lib/referencesCode-eai/010_SessionInterval_refCod.sol\":526:541  sessionInterval */\n  0x00\n    /* \"contracts/lib/referencesCode-eai/010_SessionInterval_refCod.sol\":547:584  EAI.createSessionInteval(2, EAI.HOUR) */\n  tag_9\n    /* \"contracts/lib/referencesCode-eai/010_SessionInterval_refCod.sol\":572:573  2 */\n  0x02\n    /* \"contracts/lib/eai/EAI.sol\":727:728  2 */\n  dup1\n    /* \"contracts/lib/referencesCode-eai/010_SessionInterval_refCod.sol\":547:571  EAI.createSessionInteval */\n  or(tag_0_59, shl(0x20, tag_5))\n    /* \"contracts/lib/referencesCode-eai/010_SessionInterval_refCod.sol\":547:584  EAI.createSessionInteval(2, EAI.HOUR) */\n  0x20\n  shr\n  jump\t// in\ntag_9:\n    /* \"contracts/lib/referencesCode-eai/010_SessionInterval_refCod.sol\":526:585  sessionInterval.push(EAI.createSessionInteval(2, EAI.HOUR)) */\n  swap1\n  dup1\n  0x01\n  dup2\n  sload\n  add\n  dup1\n  dup3\n  sstore\n  dup1\n  swap2\n  pop\n  pop\n  0x01\n  swap1\n  sub\n  swap1\n  0x00\n  mstore\n  keccak256(0x00, 0x20)\n  add\n  0x00\n  swap1\n  swap2\n  swap1\n  swap2\n  swap1\n  swap2\n  pop\n  0x00\n  dup3\n  add\n  mload\n  dup2\n  0x00\n  add\n  exp(0x0100, 0x00)\n  dup2\n  sload\n  dup2\n  0xff\n  mul\n  not\n  and\n  swap1\n  dup4\n  0xff\n  and\n  mul\n  or\n  swap1\n  sstore\n  pop\n  0x20\n  dup3\n  add\n  mload\n  dup2\n  0x00\n  add\n  exp(0x0100, 0x01)\n  dup2\n  sload\n  dup2\n  0xff\n  mul\n  not\n  and\n  swap1\n  dup4\n  0xff\n  and\n  mul\n  or\n  swap1\n  sstore\n  pop\n  0x40\n  dup3\n  add\n  mload\n  dup2\n  0x00\n  add\n  exp(0x0100, 0x02)\n  dup2\n  sload\n  dup2\n  0xffffffff\n  mul\n  not\n  and\n  swap1\n  dup4\n  0xffffffff\n  and\n  mul\n  or\n  swap1\n  sstore\n  pop\n  0x60\n  dup3\n  add\n  mload\n  dup2\n  0x00\n  add\n  exp(0x0100, 0x06)\n  dup2\n  sload\n  dup2\n  0xffffffff\n  mul\n  not\n  and\n  swap1\n  dup4\n  0xffffffff\n  and\n  mul\n  or\n  swap1\n  sstore\n  pop\n  pop\n  pop\n    /* \"contracts/lib/referencesCode-eai/010_SessionInterval_refCod.sol\":596:611  sessionInterval */\n  0x00\n    /* \"contracts/lib/referencesCode-eai/010_SessionInterval_refCod.sol\":617:653  EAI.createSessionInteval(2, EAI.DAY) */\n  tag_11\n    /* \"contracts/lib/referencesCode-eai/010_SessionInterval_refCod.sol\":642:643  2 */\n  0x02\n    /* \"contracts/lib/eai/EAI.sol\":755:756  3 */\n  0x03\n    /* \"contracts/lib/referencesCode-eai/010_SessionInterval_refCod.sol\":617:641  EAI.createSessionInteval */\n  or(tag_0_59, shl(0x20, tag_5))\n    /* \"contracts/lib/referencesCode-eai/010_SessionInterval_refCod.sol\":617:653  EAI.createSessionInteval(2, EAI.DAY) */\n  0x20\n  shr\n  jump\t// in\ntag_11:\n    /* \"contracts/lib/referencesCode-eai/010_SessionInterval_refCod.sol\":596:654  sessionInterval.push(EAI.createSessionInteval(2, EAI.DAY)) */\n  swap1\n  dup1\n  0x01\n  dup2\n  sload\n  add\n  dup1\n  dup3\n  sstore\n  dup1\n  swap2\n  pop\n  pop\n  0x01\n  swap1\n  sub\n  swap1\n  0x00\n  mstore\n  keccak256(0x00, 0x20)\n  add\n  0x00\n  swap1\n  swap2\n  swap1\n  swap2\n  swap1\n  swap2\n  pop\n  0x00\n  dup3\n  add\n  mload\n  dup2\n  0x00\n  add\n  exp(0x0100, 0x00)\n  dup2\n  sload\n  dup2\n  0xff\n  mul\n  not\n  and\n  swap1\n  dup4\n  0xff\n  and\n  mul\n  or\n  swap1\n  sstore\n  pop\n  0x20\n  dup3\n  add\n  mload\n  dup2\n  0x00\n  add\n  exp(0x0100, 0x01)\n  dup2\n  sload\n  dup2\n  0xff\n  mul\n  not\n  and\n  swap1\n  dup4\n  0xff\n  and\n  mul\n  or\n  swap1\n  sstore\n  pop\n  0x40\n  dup3\n  add\n  mload\n  dup2\n  0x00\n  add\n  exp(0x0100, 0x02)\n  dup2\n  sload\n  dup2\n  0xffffffff\n  mul\n  not\n  and\n  swap1\n  dup4\n  0xffffffff\n  and\n  mul\n  or\n  swap1\n  sstore\n  pop\n  0x60\n  dup3\n  add\n  mload\n  dup2\n  0x00\n  add\n  exp(0x0100, 0x06)\n  dup2\n  sload\n  dup2\n  0xffffffff\n  mul\n  not\n  and\n  swap1\n  dup4\n  0xffffffff\n  and\n  mul\n  or\n  swap1\n  sstore\n  pop\n  pop\n  pop\n    /* \"contracts/lib/referencesCode-eai/010_SessionInterval_refCod.sol\":665:680  sessionInterval */\n  0x00\n    /* \"contracts/lib/referencesCode-eai/010_SessionInterval_refCod.sol\":686:723  EAI.createSessionInteval(2, EAI.WEEK) */\n  tag_13\n    /* \"contracts/lib/referencesCode-eai/010_SessionInterval_refCod.sol\":711:712  2 */\n  0x02\n    /* \"contracts/lib/eai/EAI.sol\":784:785  4 */\n  0x04\n    /* \"contracts/lib/referencesCode-eai/010_SessionInterval_refCod.sol\":686:710  EAI.createSessionInteval */\n  or(tag_0_59, shl(0x20, tag_5))\n    /* \"contracts/lib/referencesCode-eai/010_SessionInterval_refCod.sol\":686:723  EAI.createSessionInteval(2, EAI.WEEK) */\n  0x20\n  shr\n  jump\t// in\ntag_13:\n    /* \"contracts/lib/referencesCode-eai/010_SessionInterval_refCod.sol\":665:724  sessionInterval.push(EAI.createSessionInteval(2, EAI.WEEK)) */\n  swap1\n  dup1\n  0x01\n  dup2\n  sload\n  add\n  dup1\n  dup3\n  sstore\n  dup1\n  swap2\n  pop\n  pop\n  0x01\n  swap1\n  sub\n  swap1\n  0x00\n  mstore\n  keccak256(0x00, 0x20)\n  add\n  0x00\n  swap1\n  swap2\n  swap1\n  swap2\n  swap1\n  swap2\n  pop\n  0x00\n  dup3\n  add\n  mload\n  dup2\n  0x00\n  add\n  exp(0x0100, 0x00)\n  dup2\n  sload\n  dup2\n  0xff\n  mul\n  not\n  and\n  swap1\n  dup4\n  0xff\n  and\n  mul\n  or\n  swap1\n  sstore\n  pop\n  0x20\n  dup3\n  add\n  mload\n  dup2\n  0x00\n  add\n  exp(0x0100, 0x01)\n  dup2\n  sload\n  dup2\n  0xff\n  mul\n  not\n  and\n  swap1\n  dup4\n  0xff\n  and\n  mul\n  or\n  swap1\n  sstore\n  pop\n  0x40\n  dup3\n  add\n  mload\n  dup2\n  0x00\n  add\n  exp(0x0100, 0x02)\n  dup2\n  sload\n  dup2\n  0xffffffff\n  mul\n  not\n  and\n  swap1\n  dup4\n  0xffffffff\n  and\n  mul\n  or\n  swap1\n  sstore\n  pop\n  0x60\n  dup3\n  add\n  mload\n  dup2\n  0x00\n  add\n  exp(0x0100, 0x06)\n  dup2\n  sload\n  dup2\n  0xffffffff\n  mul\n  not\n  and\n  swap1\n  dup4\n  0xffffffff\n  and\n  mul\n  or\n  swap1\n  sstore\n  pop\n  pop\n  pop\n    /* \"contracts/lib/referencesCode-eai/010_SessionInterval_refCod.sol\":98:3799  contract SessionInterval_refCod{\r... */\n  jump(tag_15)\n    /* \"contracts/lib/eai/EAI.sol\":20890:21246  function createSessionInteval(uint8 _duration, uint8 _timeUnit)internal pure returns (SessionInterval memory){\r... */\ntag_5:\n    /* \"contracts/lib/eai/EAI.sol\":20976:20998  SessionInterval memory */\n  tag_16\n  tag_17\n  jump\t// in\ntag_16:\n    /* \"contracts/lib/eai/EAI.sol\":21010:21035  uint32 _durationInSeconds */\n  0x00\n    /* \"contracts/lib/eai/EAI.sol\":784:785  4 */\n  0x04\n    /* \"contracts/lib/eai/EAI.sol\":21053:21070  _timeUnit <= WEEK */\n  0xff\n  and\n    /* \"contracts/lib/eai/EAI.sol\":21053:21062  _timeUnit */\n  dup4\n    /* \"contracts/lib/eai/EAI.sol\":21053:21070  _timeUnit <= WEEK */\n  0xff\n  and\n  gt\n    /* \"contracts/lib/eai/EAI.sol\":21050:21161  if(_timeUnit <= WEEK){\r... */\n  tag_19\n  jumpi\n    /* \"contracts/lib/eai/EAI.sol\":21107:21149  getIntervalInSeconds(_duration, _timeUnit) */\n  tag_20\n    /* \"contracts/lib/eai/EAI.sol\":21128:21137  _duration */\n  dup5\n    /* \"contracts/lib/eai/EAI.sol\":21107:21149  getIntervalInSeconds(_duration, _timeUnit) */\n  0xff\n  and\n    /* \"contracts/lib/eai/EAI.sol\":21139:21148  _timeUnit */\n  dup5\n    /* \"contracts/lib/eai/EAI.sol\":21107:21127  getIntervalInSeconds */\n  shl(0x20, tag_21)\n    /* \"contracts/lib/eai/EAI.sol\":21107:21149  getIntervalInSeconds(_duration, _timeUnit) */\n  0x20\n  shr\n  jump\t// in\ntag_20:\n    /* \"contracts/lib/eai/EAI.sol\":21086:21149  _durationInSeconds = getIntervalInSeconds(_duration, _timeUnit) */\n  swap1\n  pop\n    /* \"contracts/lib/eai/EAI.sol\":21050:21161  if(_timeUnit <= WEEK){\r... */\ntag_19:\n    /* \"contracts/lib/eai/EAI.sol\":21178:21238  SessionInterval(_duration, _timeUnit, _durationInSeconds, 0) */\n  mload(0x40)\n  dup1\n  0x80\n  add\n  0x40\n  mstore\n  dup1\n    /* \"contracts/lib/eai/EAI.sol\":21194:21203  _duration */\n  dup6\n    /* \"contracts/lib/eai/EAI.sol\":21178:21238  SessionInterval(_duration, _timeUnit, _durationInSeconds, 0) */\n  0xff\n  and\n  dup2\n  mstore\n  0x20\n  add\n    /* \"contracts/lib/eai/EAI.sol\":21205:21214  _timeUnit */\n  dup5\n    /* \"contracts/lib/eai/EAI.sol\":21178:21238  SessionInterval(_duration, _timeUnit, _durationInSeconds, 0) */\n  0xff\n  and\n  dup2\n  mstore\n  0x20\n  add\n    /* \"contracts/lib/eai/EAI.sol\":21216:21234  _durationInSeconds */\n  dup3\n    /* \"contracts/lib/eai/EAI.sol\":21178:21238  SessionInterval(_duration, _timeUnit, _durationInSeconds, 0) */\n  0xffffffff\n  and\n  dup2\n  mstore\n  0x20\n  add\n    /* \"contracts/lib/eai/EAI.sol\":21236:21237  0 */\n  0x00\n    /* \"contracts/lib/eai/EAI.sol\":21178:21238  SessionInterval(_duration, _timeUnit, _durationInSeconds, 0) */\n  0xffffffff\n  and\n  dup2\n  mstore\n  pop\n    /* \"contracts/lib/eai/EAI.sol\":21171:21238  return SessionInterval(_duration, _timeUnit, _durationInSeconds, 0) */\n  swap2\n  pop\n  pop\n    /* \"contracts/lib/eai/EAI.sol\":20890:21246  function createSessionInteval(uint8 _duration, uint8 _timeUnit)internal pure returns (SessionInterval memory){\r... */\n  swap3\n  swap2\n  pop\n  pop\n  jump\t// out\n    /* \"contracts/lib/eai/EAI.sol\":25785:25997  function getIntervalInSeconds(uint32 _duration, uint8 _timeUnit)internal pure returns(uint32){\r... */\ntag_21:\n    /* \"contracts/lib/eai/EAI.sol\":25871:25877  uint32 */\n  0x00\n    /* \"contracts/lib/eai/EAI.sol\":25888:25912  uint32 timeUnitInSeconds */\n  dup1\n    /* \"contracts/lib/eai/EAI.sol\":25916:25943  getTimeInSeconds(_timeUnit) */\n  tag_23\n    /* \"contracts/lib/eai/EAI.sol\":25933:25942  _timeUnit */\n  dup4\n    /* \"contracts/lib/eai/EAI.sol\":25916:25932  getTimeInSeconds */\n  shl(0x20, tag_24)\n    /* \"contracts/lib/eai/EAI.sol\":25916:25943  getTimeInSeconds(_timeUnit) */\n  0x20\n  shr\n  jump\t// in\ntag_23:\n    /* \"contracts/lib/eai/EAI.sol\":25888:25943  uint32 timeUnitInSeconds =  getTimeInSeconds(_timeUnit) */\n  swap1\n  pop\n    /* \"contracts/lib/eai/EAI.sol\":25972:25989  timeUnitInSeconds */\n  dup1\n    /* \"contracts/lib/eai/EAI.sol\":25960:25969  _duration */\n  dup5\n    /* \"contracts/lib/eai/EAI.sol\":25960:25989  _duration * timeUnitInSeconds */\n  tag_25\n  swap2\n  swap1\n  tag_26\n  jump\t// in\ntag_25:\n    /* \"contracts/lib/eai/EAI.sol\":25953:25989  return _duration * timeUnitInSeconds */\n  swap2\n  pop\n  pop\n    /* \"contracts/lib/eai/EAI.sol\":25785:25997  function getIntervalInSeconds(uint32 _duration, uint8 _timeUnit)internal pure returns(uint32){\r... */\n  swap3\n  swap2\n  pop\n  pop\n  jump\t// out\n    /* \"contracts/lib/eai/EAI.sol\":25220:25769  function getTimeInSeconds(uint8 timeUnit) private pure returns(uint32){\r... */\ntag_24:\n    /* \"contracts/lib/eai/EAI.sol\":25283:25289  uint32 */\n  0x00\n    /* \"contracts/lib/eai/EAI.sol\":784:785  4 */\n  0x04\n    /* \"contracts/lib/eai/EAI.sol\":25363:25379  timeUnit <= WEEK */\n  0xff\n  and\n    /* \"contracts/lib/eai/EAI.sol\":25363:25371  timeUnit */\n  dup3\n    /* \"contracts/lib/eai/EAI.sol\":25363:25379  timeUnit <= WEEK */\n  0xff\n  and\n  gt\n  iszero\n    /* \"contracts/lib/eai/EAI.sol\":25355:25443  require(timeUnit <= WEEK, \"The method getTimeInSeconds doesn't work for MONTH and YEAR\") */\n  tag_28\n  jumpi\n  mload(0x40)\n  0x08c379a000000000000000000000000000000000000000000000000000000000\n  dup2\n  mstore\n  0x04\n  add\n  tag_29\n  swap1\n  tag_30\n  jump\t// in\ntag_29:\n  mload(0x40)\n  dup1\n  swap2\n  sub\n  swap1\n  revert\ntag_28:\n    /* \"contracts/lib/eai/EAI.sol\":666:667  0 */\n  0x00\n    /* \"contracts/lib/eai/EAI.sol\":25459:25477  timeUnit == SECOND */\n  0xff\n  and\n    /* \"contracts/lib/eai/EAI.sol\":25459:25467  timeUnit */\n  dup3\n    /* \"contracts/lib/eai/EAI.sol\":25459:25477  timeUnit == SECOND */\n  0xff\n  and\n  eq\n    /* \"contracts/lib/eai/EAI.sol\":25456:25762  if(timeUnit == SECOND){\r... */\n  iszero\n  tag_31\n  jumpi\n    /* \"contracts/lib/eai/EAI.sol\":25500:25501  1 */\n  0x01\n    /* \"contracts/lib/eai/EAI.sol\":25493:25501  return 1 */\n  swap1\n  pop\n  jump(tag_27)\n    /* \"contracts/lib/eai/EAI.sol\":25456:25762  if(timeUnit == SECOND){\r... */\ntag_31:\n    /* \"contracts/lib/eai/EAI.sol\":698:699  1 */\n  0x01\n    /* \"contracts/lib/eai/EAI.sol\":25521:25539  timeUnit == MINUTE */\n  0xff\n  and\n    /* \"contracts/lib/eai/EAI.sol\":25521:25529  timeUnit */\n  dup3\n    /* \"contracts/lib/eai/EAI.sol\":25521:25539  timeUnit == MINUTE */\n  0xff\n  and\n  eq\n    /* \"contracts/lib/eai/EAI.sol\":25518:25762  if(timeUnit == MINUTE){\r... */\n  iszero\n  tag_33\n  jumpi\n    /* \"contracts/lib/eai/EAI.sol\":25562:25564  60 */\n  0x3c\n    /* \"contracts/lib/eai/EAI.sol\":25555:25564  return 60 */\n  swap1\n  pop\n  jump(tag_27)\n    /* \"contracts/lib/eai/EAI.sol\":25518:25762  if(timeUnit == MINUTE){\r... */\ntag_33:\n    /* \"contracts/lib/eai/EAI.sol\":727:728  2 */\n  0x02\n    /* \"contracts/lib/eai/EAI.sol\":25584:25600  timeUnit == HOUR */\n  0xff\n  and\n    /* \"contracts/lib/eai/EAI.sol\":25584:25592  timeUnit */\n  dup3\n    /* \"contracts/lib/eai/EAI.sol\":25584:25600  timeUnit == HOUR */\n  0xff\n  and\n  eq\n    /* \"contracts/lib/eai/EAI.sol\":25581:25762  if(timeUnit == HOUR ){\r... */\n  iszero\n  tag_35\n  jumpi\n    /* \"contracts/lib/eai/EAI.sol\":25624:25629  60*60 */\n  0x0e10\n    /* \"contracts/lib/eai/EAI.sol\":25617:25629  return 60*60 */\n  swap1\n  pop\n  jump(tag_27)\n    /* \"contracts/lib/eai/EAI.sol\":25581:25762  if(timeUnit == HOUR ){\r... */\ntag_35:\n    /* \"contracts/lib/eai/EAI.sol\":755:756  3 */\n  0x03\n    /* \"contracts/lib/eai/EAI.sol\":25649:25664  timeUnit == DAY */\n  0xff\n  and\n    /* \"contracts/lib/eai/EAI.sol\":25649:25657  timeUnit */\n  dup3\n    /* \"contracts/lib/eai/EAI.sol\":25649:25664  timeUnit == DAY */\n  0xff\n  and\n  eq\n    /* \"contracts/lib/eai/EAI.sol\":25646:25762  if(timeUnit == DAY){\r... */\n  iszero\n  tag_37\n  jumpi\n    /* \"contracts/lib/eai/EAI.sol\":25687:25695  60*60*24 */\n  0x015180\n    /* \"contracts/lib/eai/EAI.sol\":25680:25695  return 60*60*24 */\n  swap1\n  pop\n  jump(tag_27)\n    /* \"contracts/lib/eai/EAI.sol\":25646:25762  if(timeUnit == DAY){\r... */\ntag_37:\n    /* \"contracts/lib/eai/EAI.sol\":25733:25743  60*60*24*7 */\n  0x093a80\n    /* \"contracts/lib/eai/EAI.sol\":25726:25743  return 60*60*24*7 */\n  swap1\n  pop\n    /* \"contracts/lib/eai/EAI.sol\":25220:25769  function getTimeInSeconds(uint8 timeUnit) private pure returns(uint32){\r... */\ntag_27:\n  swap2\n  swap1\n  pop\n  jump\t// out\n    /* \"contracts/lib/referencesCode-eai/010_SessionInterval_refCod.sol\":98:3799  contract SessionInterval_refCod{\r... */\ntag_17:\n  mload(0x40)\n  dup1\n  0x80\n  add\n  0x40\n  mstore\n  dup1\n  and(0xff, 0x00)\n  dup2\n  mstore\n  0x20\n  add\n  and(0xff, 0x00)\n  dup2\n  mstore\n  0x20\n  add\n  and(0xffffffff, 0x00)\n  dup2\n  mstore\n  0x20\n  add\n  and(0xffffffff, 0x00)\n  dup2\n  mstore\n  pop\n  swap1\n  jump\t// out\n    /* \"#utility.yul\":7:373   */\ntag_40:\n    /* \"#utility.yul\":149:152   */\n  0x00\n    /* \"#utility.yul\":170:237   */\n  tag_42\n    /* \"#utility.yul\":234:236   */\n  0x3b\n    /* \"#utility.yul\":229:232   */\n  dup4\n    /* \"#utility.yul\":170:237   */\n  tag_43\n  jump\t// in\ntag_42:\n    /* \"#utility.yul\":163:237   */\n  swap2\n  pop\n    /* \"#utility.yul\":246:339   */\n  tag_44\n    /* \"#utility.yul\":335:338   */\n  dup3\n    /* \"#utility.yul\":246:339   */\n  tag_45\n  jump\t// in\ntag_44:\n    /* \"#utility.yul\":364:366   */\n  0x40\n    /* \"#utility.yul\":359:362   */\n  dup3\n    /* \"#utility.yul\":355:367   */\n  add\n    /* \"#utility.yul\":348:367   */\n  swap1\n  pop\n    /* \"#utility.yul\":7:373   */\n  swap2\n  swap1\n  pop\n  jump\t// out\n    /* \"#utility.yul\":379:798   */\ntag_30:\n    /* \"#utility.yul\":545:549   */\n  0x00\n    /* \"#utility.yul\":583:585   */\n  0x20\n    /* \"#utility.yul\":572:581   */\n  dup3\n    /* \"#utility.yul\":568:586   */\n  add\n    /* \"#utility.yul\":560:586   */\n  swap1\n  pop\n    /* \"#utility.yul\":632:641   */\n  dup2\n    /* \"#utility.yul\":626:630   */\n  dup2\n    /* \"#utility.yul\":622:642   */\n  sub\n    /* \"#utility.yul\":618:619   */\n  0x00\n    /* \"#utility.yul\":607:616   */\n  dup4\n    /* \"#utility.yul\":603:620   */\n  add\n    /* \"#utility.yul\":596:643   */\n  mstore\n    /* \"#utility.yul\":660:791   */\n  tag_47\n    /* \"#utility.yul\":786:790   */\n  dup2\n    /* \"#utility.yul\":660:791   */\n  tag_40\n  jump\t// in\ntag_47:\n    /* \"#utility.yul\":652:791   */\n  swap1\n  pop\n    /* \"#utility.yul\":379:798   */\n  swap2\n  swap1\n  pop\n  jump\t// out\n    /* \"#utility.yul\":804:973   */\ntag_43:\n    /* \"#utility.yul\":888:899   */\n  0x00\n    /* \"#utility.yul\":922:928   */\n  dup3\n    /* \"#utility.yul\":917:920   */\n  dup3\n    /* \"#utility.yul\":910:929   */\n  mstore\n    /* \"#utility.yul\":962:966   */\n  0x20\n    /* \"#utility.yul\":957:960   */\n  dup3\n    /* \"#utility.yul\":953:967   */\n  add\n    /* \"#utility.yul\":938:967   */\n  swap1\n  pop\n    /* \"#utility.yul\":804:973   */\n  swap3\n  swap2\n  pop\n  pop\n  jump\t// out\n    /* \"#utility.yul\":979:1268   */\ntag_26:\n    /* \"#utility.yul\":1018:1025   */\n  0x00\n    /* \"#utility.yul\":1041:1060   */\n  tag_50\n    /* \"#utility.yul\":1058:1059   */\n  dup3\n    /* \"#utility.yul\":1041:1060   */\n  tag_51\n  jump\t// in\ntag_50:\n    /* \"#utility.yul\":1036:1060   */\n  swap2\n  pop\n    /* \"#utility.yul\":1074:1093   */\n  tag_52\n    /* \"#utility.yul\":1091:1092   */\n  dup4\n    /* \"#utility.yul\":1074:1093   */\n  tag_51\n  jump\t// in\ntag_52:\n    /* \"#utility.yul\":1069:1093   */\n  swap3\n  pop\n    /* \"#utility.yul\":1205:1206   */\n  dup2\n    /* \"#utility.yul\":1193:1203   */\n  0xffffffff\n    /* \"#utility.yul\":1189:1207   */\n  div\n    /* \"#utility.yul\":1186:1187   */\n  dup4\n    /* \"#utility.yul\":1183:1208   */\n  gt\n    /* \"#utility.yul\":1178:1179   */\n  dup3\n    /* \"#utility.yul\":1171:1180   */\n  iszero\n    /* \"#utility.yul\":1164:1181   */\n  iszero\n    /* \"#utility.yul\":1160:1209   */\n  and\n    /* \"#utility.yul\":1157:1232   */\n  iszero\n  tag_53\n  jumpi\n    /* \"#utility.yul\":1212:1230   */\n  tag_54\n  tag_55\n  jump\t// in\ntag_54:\n    /* \"#utility.yul\":1157:1232   */\ntag_53:\n    /* \"#utility.yul\":1260:1261   */\n  dup3\n    /* \"#utility.yul\":1257:1258   */\n  dup3\n    /* \"#utility.yul\":1253:1262   */\n  mul\n    /* \"#utility.yul\":1242:1262   */\n  swap1\n  pop\n    /* \"#utility.yul\":979:1268   */\n  swap3\n  swap2\n  pop\n  pop\n  jump\t// out\n    /* \"#utility.yul\":1274:1367   */\ntag_51:\n    /* \"#utility.yul\":1310:1317   */\n  0x00\n    /* \"#utility.yul\":1350:1360   */\n  0xffffffff\n    /* \"#utility.yul\":1343:1348   */\n  dup3\n    /* \"#utility.yul\":1339:1361   */\n  and\n    /* \"#utility.yul\":1328:1361   */\n  swap1\n  pop\n    /* \"#utility.yul\":1274:1367   */\n  swap2\n  swap1\n  pop\n  jump\t// out\n    /* \"#utility.yul\":1373:1553   */\ntag_55:\n    /* \"#utility.yul\":1421:1498   */\n  0x4e487b7100000000000000000000000000000000000000000000000000000000\n    /* \"#utility.yul\":1418:1419   */\n  0x00\n    /* \"#utility.yul\":1411:1499   */\n  mstore\n    /* \"#utility.yul\":1518:1522   */\n  0x11\n    /* \"#utility.yul\":1515:1516   */\n  0x04\n    /* \"#utility.yul\":1508:1523   */\n  mstore\n    /* \"#utility.yul\":1542:1546   */\n  0x24\n    /* \"#utility.yul\":1539:1540   */\n  0x00\n    /* \"#utility.yul\":1532:1547   */\n  revert\n    /* \"#utility.yul\":1559:1805   */\ntag_45:\n    /* \"#utility.yul\":1699:1733   */\n  0x546865206d6574686f642067657454696d65496e5365636f6e647320646f6573\n    /* \"#utility.yul\":1695:1696   */\n  0x00\n    /* \"#utility.yul\":1687:1693   */\n  dup3\n    /* \"#utility.yul\":1683:1697   */\n  add\n    /* \"#utility.yul\":1676:1734   */\n  mstore\n    /* \"#utility.yul\":1768:1797   */\n  0x6e277420776f726b20666f72204d4f4e544820616e6420594541520000000000\n    /* \"#utility.yul\":1763:1765   */\n  0x20\n    /* \"#utility.yul\":1755:1761   */\n  dup3\n    /* \"#utility.yul\":1751:1766   */\n  add\n    /* \"#utility.yul\":1744:1798   */\n  mstore\n    /* \"#utility.yul\":1559:1805   */\n  pop\n  jump\t// out\n    /* \"contracts/lib/referencesCode-eai/010_SessionInterval_refCod.sol\":98:3799  contract SessionInterval_refCod{\r... */\ntag_15:\n  dataSize(sub_0)\n  dup1\n  dataOffset(sub_0)\n  0x00\n  codecopy\n  0x00\n  return\nstop\n\nsub_0: assembly {\n        /* \"contracts/lib/referencesCode-eai/010_SessionInterval_refCod.sol\":98:3799  contract SessionInterval_refCod{\r... */\n      mstore(0x40, 0x80)\n      callvalue\n      dup1\n      iszero\n      tag_1\n      jumpi\n      0x00\n      dup1\n      revert\n    tag_1:\n      pop\n      jumpi(tag_2, lt(calldatasize, 0x04))\n      shr(0xe0, calldataload(0x00))\n      dup1\n      0x83cd87e8\n      gt\n      tag_13\n      jumpi\n      dup1\n      0x83cd87e8\n      eq\n      tag_8\n      jumpi\n      dup1\n      0xb1f913d2\n      eq\n      tag_9\n      jumpi\n      dup1\n      0xc7478c22\n      eq\n      tag_10\n      jumpi\n      dup1\n      0xd6d1c613\n      eq\n      tag_11\n      jumpi\n      dup1\n      0xdef86522\n      eq\n      tag_12\n      jumpi\n      jump(tag_2)\n    tag_13:\n      dup1\n      0x1bbedc8d\n      eq\n      tag_3\n      jumpi\n      dup1\n      0x3bbf167c\n      eq\n      tag_4\n      jumpi\n      dup1\n      0x4a31c4ac\n      eq\n      tag_5\n      jumpi\n      dup1\n      0x7598a3f8\n      eq\n      tag_6\n      jumpi\n      dup1\n      0x768dc4ef\n      eq\n      tag_7\n      jumpi\n    tag_2:\n      0x00\n      dup1\n      revert\n        /* \"contracts/lib/referencesCode-eai/010_SessionInterval_refCod.sol\":1548:2224  function createSessionIntevalByIdRef(string memory _mapIdRef, uint _id) public{\r... */\n    tag_3:\n      tag_14\n      0x04\n      dup1\n      calldatasize\n      sub\n      dup2\n      add\n      swap1\n      tag_15\n      swap2\n      swap1\n      tag_16\n      jump\t// in\n    tag_15:\n      tag_17\n      jump\t// in\n    tag_14:\n      stop\n        /* \"contracts/lib/referencesCode-eai/010_SessionInterval_refCod.sol\":1414:1538  function getAllSessionInterval() public view returns (EAI.SessionInterval[] memory){\r... */\n    tag_4:\n      tag_18\n      tag_19\n      jump\t// in\n    tag_18:\n      mload(0x40)\n      tag_20\n      swap2\n      swap1\n      tag_21\n      jump\t// in\n    tag_20:\n      mload(0x40)\n      dup1\n      swap2\n      sub\n      swap1\n      return\n        /* \"contracts/lib/referencesCode-eai/010_SessionInterval_refCod.sol\":2476:2665  function startNewSessionIntervalByIdRef(string memory _idRef, uint32 _accessDateTime) public {       \r... */\n    tag_5:\n      tag_22\n      0x04\n      dup1\n      calldatasize\n      sub\n      dup2\n      add\n      swap1\n      tag_23\n      swap2\n      swap1\n      tag_24\n      jump\t// in\n    tag_23:\n      tag_25\n      jump\t// in\n    tag_22:\n      stop\n        /* \"contracts/lib/referencesCode-eai/010_SessionInterval_refCod.sol\":1270:1406  function getSessionIntervalById(uint _id) public view returns (EAI.SessionInterval memory){\r... */\n    tag_6:\n      tag_26\n      0x04\n      dup1\n      calldatasize\n      sub\n      dup2\n      add\n      swap1\n      tag_27\n      swap2\n      swap1\n      tag_28\n      jump\t// in\n    tag_27:\n      tag_29\n      jump\t// in\n    tag_26:\n      mload(0x40)\n      tag_30\n      swap2\n      swap1\n      tag_31\n      jump\t// in\n    tag_30:\n      mload(0x40)\n      dup1\n      swap2\n      sub\n      swap1\n      return\n        /* \"contracts/lib/referencesCode-eai/010_SessionInterval_refCod.sol\":3375:3788  function deleteSessionInterval_idRef(string memory _idRef)public returns(uint){\r... */\n    tag_7:\n      tag_32\n      0x04\n      dup1\n      calldatasize\n      sub\n      dup2\n      add\n      swap1\n      tag_33\n      swap2\n      swap1\n      tag_34\n      jump\t// in\n    tag_33:\n      tag_35\n      jump\t// in\n    tag_32:\n      mload(0x40)\n      tag_36\n      swap2\n      swap1\n      tag_37\n      jump\t// in\n    tag_36:\n      mload(0x40)\n      dup1\n      swap2\n      sub\n      swap1\n      return\n        /* \"contracts/lib/referencesCode-eai/010_SessionInterval_refCod.sol\":2232:2397  function getSessionIntervalByIdRef(string memory _mapIdRef) public view returns(EAI.SessionInterval memory){\r... */\n    tag_8:\n      tag_38\n      0x04\n      dup1\n      calldatasize\n      sub\n      dup2\n      add\n      swap1\n      tag_39\n      swap2\n      swap1\n      tag_34\n      jump\t// in\n    tag_39:\n      tag_40\n      jump\t// in\n    tag_38:\n      mload(0x40)\n      tag_41\n      swap2\n      swap1\n      tag_31\n      jump\t// in\n    tag_41:\n      mload(0x40)\n      dup1\n      swap2\n      sub\n      swap1\n      return\n        /* \"contracts/lib/referencesCode-eai/010_SessionInterval_refCod.sol\":3003:3367  function getAllSessionInterval_mapping() public view returns ( string[] memory, EAI.SessionInterval[] memory){\r... */\n    tag_9:\n      tag_42\n      tag_43\n      jump\t// in\n    tag_42:\n      mload(0x40)\n      tag_44\n      swap3\n      swap2\n      swap1\n      tag_45\n      jump\t// in\n    tag_44:\n      mload(0x40)\n      dup1\n      swap2\n      sub\n      swap1\n      return\n        /* \"contracts/lib/referencesCode-eai/010_SessionInterval_refCod.sol\":2760:2995  function isTheSessionIdOpen(string memory _idRef, uint32 _accessDateTime) public view returns(string memory) {                                           \r... */\n    tag_10:\n      tag_46\n      0x04\n      dup1\n      calldatasize\n      sub\n      dup2\n      add\n      swap1\n      tag_47\n      swap2\n      swap1\n      tag_24\n      jump\t// in\n    tag_47:\n      tag_48\n      jump\t// in\n    tag_46:\n      mload(0x40)\n      tag_49\n      swap2\n      swap1\n      tag_50\n      jump\t// in\n    tag_49:\n      mload(0x40)\n      dup1\n      swap2\n      sub\n      swap1\n      return\n        /* \"contracts/lib/referencesCode-eai/010_SessionInterval_refCod.sol\":1049:1262  function isTheSessionIdOpen(uint _id, uint32 _accessDateTime) public view returns(string memory) {                                           \r... */\n    tag_11:\n      tag_51\n      0x04\n      dup1\n      calldatasize\n      sub\n      dup2\n      add\n      swap1\n      tag_52\n      swap2\n      swap1\n      tag_53\n      jump\t// in\n    tag_52:\n      tag_54\n      jump\t// in\n    tag_51:\n      mload(0x40)\n      tag_55\n      swap2\n      swap1\n      tag_50\n      jump\t// in\n    tag_55:\n      mload(0x40)\n      dup1\n      swap2\n      sub\n      swap1\n      return\n        /* \"contracts/lib/referencesCode-eai/010_SessionInterval_refCod.sol\":811:957  function startNewSection(uint _id, uint32 _accessDateTime) public {\r... */\n    tag_12:\n      tag_56\n      0x04\n      dup1\n      calldatasize\n      sub\n      dup2\n      add\n      swap1\n      tag_57\n      swap2\n      swap1\n      tag_53\n      jump\t// in\n    tag_57:\n      tag_58\n      jump\t// in\n    tag_56:\n      stop\n        /* \"contracts/lib/referencesCode-eai/010_SessionInterval_refCod.sol\":1548:2224  function createSessionIntevalByIdRef(string memory _mapIdRef, uint _id) public{\r... */\n    tag_17:\n        /* \"contracts/lib/referencesCode-eai/010_SessionInterval_refCod.sol\":1647:1657  bool exist */\n      0x00\n        /* \"contracts/lib/referencesCode-eai/010_SessionInterval_refCod.sol\":1683:1689  uint i */\n      dup1\n        /* \"contracts/lib/referencesCode-eai/010_SessionInterval_refCod.sol\":1678:1894  for (uint i = 0; i < mapSize; i++) {\r... */\n    tag_61:\n        /* \"contracts/lib/referencesCode-eai/010_SessionInterval_refCod.sol\":1699:1706  mapSize */\n      sload(0x01)\n        /* \"contracts/lib/referencesCode-eai/010_SessionInterval_refCod.sol\":1695:1696  i */\n      dup2\n        /* \"contracts/lib/referencesCode-eai/010_SessionInterval_refCod.sol\":1695:1706  i < mapSize */\n      lt\n        /* \"contracts/lib/referencesCode-eai/010_SessionInterval_refCod.sol\":1678:1894  for (uint i = 0; i < mapSize; i++) {\r... */\n      iszero\n      tag_62\n      jumpi\n        /* \"contracts/lib/referencesCode-eai/010_SessionInterval_refCod.sol\":1787:1796  _mapIdRef */\n      dup4\n        /* \"contracts/lib/referencesCode-eai/010_SessionInterval_refCod.sol\":1776:1797  abi.encode(_mapIdRef) */\n      add(0x20, mload(0x40))\n      tag_64\n      swap2\n      swap1\n      tag_50\n      jump\t// in\n    tag_64:\n      mload(0x40)\n      0x20\n      dup2\n      dup4\n      sub\n      sub\n      dup2\n      mstore\n      swap1\n      0x40\n      mstore\n        /* \"contracts/lib/referencesCode-eai/010_SessionInterval_refCod.sol\":1766:1798  keccak256(abi.encode(_mapIdRef)) */\n      dup1\n      mload\n      swap1\n      0x20\n      add\n      keccak256\n        /* \"contracts/lib/referencesCode-eai/010_SessionInterval_refCod.sol\":1753:1757  keys */\n      0x02\n        /* \"contracts/lib/referencesCode-eai/010_SessionInterval_refCod.sol\":1758:1759  i */\n      dup3\n        /* \"contracts/lib/referencesCode-eai/010_SessionInterval_refCod.sol\":1753:1760  keys[i] */\n      dup2\n      sload\n      dup2\n      lt\n      tag_65\n      jumpi\n      tag_66\n      tag_67\n      jump\t// in\n    tag_66:\n    tag_65:\n      swap1\n      0x00\n      mstore\n      keccak256(0x00, 0x20)\n      add\n        /* \"contracts/lib/referencesCode-eai/010_SessionInterval_refCod.sol\":1742:1761  abi.encode(keys[i]) */\n      add(0x20, mload(0x40))\n      tag_69\n      swap2\n      swap1\n      tag_70\n      jump\t// in\n    tag_69:\n      mload(0x40)\n      0x20\n      dup2\n      dup4\n      sub\n      sub\n      dup2\n      mstore\n      swap1\n      0x40\n      mstore\n        /* \"contracts/lib/referencesCode-eai/010_SessionInterval_refCod.sol\":1732:1762  keccak256(abi.encode(keys[i])) */\n      dup1\n      mload\n      swap1\n      0x20\n      add\n      keccak256\n        /* \"contracts/lib/referencesCode-eai/010_SessionInterval_refCod.sol\":1732:1798  keccak256(abi.encode(keys[i])) == keccak256(abi.encode(_mapIdRef)) */\n      eq\n        /* \"contracts/lib/referencesCode-eai/010_SessionInterval_refCod.sol\":1728:1883  if (keccak256(abi.encode(keys[i])) == keccak256(abi.encode(_mapIdRef))) {              \r... */\n      iszero\n      tag_71\n      jumpi\n        /* \"contracts/lib/referencesCode-eai/010_SessionInterval_refCod.sol\":1840:1844  true */\n      0x01\n        /* \"contracts/lib/referencesCode-eai/010_SessionInterval_refCod.sol\":1832:1844  exist = true */\n      swap2\n      pop\n        /* \"contracts/lib/referencesCode-eai/010_SessionInterval_refCod.sol\":1862:1867  break */\n      jump(tag_62)\n        /* \"contracts/lib/referencesCode-eai/010_SessionInterval_refCod.sol\":1728:1883  if (keccak256(abi.encode(keys[i])) == keccak256(abi.encode(_mapIdRef))) {              \r... */\n    tag_71:\n        /* \"contracts/lib/referencesCode-eai/010_SessionInterval_refCod.sol\":1708:1711  i++ */\n      dup1\n      dup1\n      tag_72\n      swap1\n      tag_73\n      jump\t// in\n    tag_72:\n      swap2\n      pop\n      pop\n        /* \"contracts/lib/referencesCode-eai/010_SessionInterval_refCod.sol\":1678:1894  for (uint i = 0; i < mapSize; i++) {\r... */\n      jump(tag_61)\n    tag_62:\n      pop\n        /* \"contracts/lib/referencesCode-eai/010_SessionInterval_refCod.sol\":1910:1915  exist */\n      dup1\n        /* \"contracts/lib/referencesCode-eai/010_SessionInterval_refCod.sol\":1906:2217  if(!exist){\r... */\n      tag_74\n      jumpi\n        /* \"contracts/lib/referencesCode-eai/010_SessionInterval_refCod.sol\":1966:2018  EAI.createSessionInterval_Copy(sessionInterval[_id]) */\n      tag_75\n        /* \"contracts/lib/referencesCode-eai/010_SessionInterval_refCod.sol\":1997:2012  sessionInterval */\n      0x00\n        /* \"contracts/lib/referencesCode-eai/010_SessionInterval_refCod.sol\":2013:2016  _id */\n      dup4\n        /* \"contracts/lib/referencesCode-eai/010_SessionInterval_refCod.sol\":1997:2017  sessionInterval[_id] */\n      dup2\n      sload\n      dup2\n      lt\n      tag_76\n      jumpi\n      tag_77\n      tag_67\n      jump\t// in\n    tag_77:\n    tag_76:\n      swap1\n      0x00\n      mstore\n      keccak256(0x00, 0x20)\n      add\n        /* \"contracts/lib/referencesCode-eai/010_SessionInterval_refCod.sol\":1966:2018  EAI.createSessionInterval_Copy(sessionInterval[_id]) */\n      mload(0x40)\n      dup1\n      0x80\n      add\n      0x40\n      mstore\n      swap1\n      dup2\n      0x00\n      dup3\n      add\n      0x00\n      swap1\n      sload\n      swap1\n      0x0100\n      exp\n      swap1\n      div\n      0xff\n      and\n      0xff\n      and\n      0xff\n      and\n      dup2\n      mstore\n      0x20\n      add\n      0x00\n      dup3\n      add\n      0x01\n      swap1\n      sload\n      swap1\n      0x0100\n      exp\n      swap1\n      div\n      0xff\n      and\n      0xff\n      and\n      0xff\n      and\n      dup2\n      mstore\n      0x20\n      add\n      0x00\n      dup3\n      add\n      0x02\n      swap1\n      sload\n      swap1\n      0x0100\n      exp\n      swap1\n      div\n      0xffffffff\n      and\n      0xffffffff\n      and\n      0xffffffff\n      and\n      dup2\n      mstore\n      0x20\n      add\n      0x00\n      dup3\n      add\n      0x06\n      swap1\n      sload\n      swap1\n      0x0100\n      exp\n      swap1\n      div\n      0xffffffff\n      and\n      0xffffffff\n      and\n      0xffffffff\n      and\n      dup2\n      mstore\n      pop\n      pop\n        /* \"contracts/lib/referencesCode-eai/010_SessionInterval_refCod.sol\":1966:1996  EAI.createSessionInterval_Copy */\n      tag_79\n        /* \"contracts/lib/referencesCode-eai/010_SessionInterval_refCod.sol\":1966:2018  EAI.createSessionInterval_Copy(sessionInterval[_id]) */\n      jump\t// in\n    tag_75:\n        /* \"contracts/lib/referencesCode-eai/010_SessionInterval_refCod.sol\":1931:1952  sessionIntevalByIdRef */\n      0x03\n        /* \"contracts/lib/referencesCode-eai/010_SessionInterval_refCod.sol\":1953:1962  _mapIdRef */\n      dup5\n        /* \"contracts/lib/referencesCode-eai/010_SessionInterval_refCod.sol\":1931:1963  sessionIntevalByIdRef[_mapIdRef] */\n      mload(0x40)\n      tag_80\n      swap2\n      swap1\n      tag_81\n      jump\t// in\n    tag_80:\n      swap1\n      dup2\n      mstore\n      0x20\n      add\n      mload(0x40)\n      dup1\n      swap2\n      sub\n      swap1\n      keccak256\n        /* \"contracts/lib/referencesCode-eai/010_SessionInterval_refCod.sol\":1931:2018  sessionIntevalByIdRef[_mapIdRef] = EAI.createSessionInterval_Copy(sessionInterval[_id]) */\n      0x00\n      dup3\n      add\n      mload\n      dup2\n      0x00\n      add\n      exp(0x0100, 0x00)\n      dup2\n      sload\n      dup2\n      0xff\n      mul\n      not\n      and\n      swap1\n      dup4\n      0xff\n      and\n      mul\n      or\n      swap1\n      sstore\n      pop\n      0x20\n      dup3\n      add\n      mload\n      dup2\n      0x00\n      add\n      exp(0x0100, 0x01)\n      dup2\n      sload\n      dup2\n      0xff\n      mul\n      not\n      and\n      swap1\n      dup4\n      0xff\n      and\n      mul\n      or\n      swap1\n      sstore\n      pop\n      0x40\n      dup3\n      add\n      mload\n      dup2\n      0x00\n      add\n      exp(0x0100, 0x02)\n      dup2\n      sload\n      dup2\n      0xffffffff\n      mul\n      not\n      and\n      swap1\n      dup4\n      0xffffffff\n      and\n      mul\n      or\n      swap1\n      sstore\n      pop\n      0x60\n      dup3\n      add\n      mload\n      dup2\n      0x00\n      add\n      exp(0x0100, 0x06)\n      dup2\n      sload\n      dup2\n      0xffffffff\n      mul\n      not\n      and\n      swap1\n      dup4\n      0xffffffff\n      and\n      mul\n      or\n      swap1\n      sstore\n      pop\n      swap1\n      pop\n      pop\n        /* \"contracts/lib/referencesCode-eai/010_SessionInterval_refCod.sol\":2033:2037  keys */\n      0x02\n        /* \"contracts/lib/referencesCode-eai/010_SessionInterval_refCod.sol\":2043:2052  _mapIdRef */\n      dup4\n        /* \"contracts/lib/referencesCode-eai/010_SessionInterval_refCod.sol\":2033:2053  keys.push(_mapIdRef) */\n      swap1\n      dup1\n      0x01\n      dup2\n      sload\n      add\n      dup1\n      dup3\n      sstore\n      dup1\n      swap2\n      pop\n      pop\n      0x01\n      swap1\n      sub\n      swap1\n      0x00\n      mstore\n      keccak256(0x00, 0x20)\n      add\n      0x00\n      swap1\n      swap2\n      swap1\n      swap2\n      swap1\n      swap2\n      pop\n      swap1\n      dup1\n      mload\n      swap1\n      0x20\n      add\n      swap1\n      tag_83\n      swap3\n      swap2\n      swap1\n      tag_84\n      jump\t// in\n    tag_83:\n      pop\n        /* \"contracts/lib/referencesCode-eai/010_SessionInterval_refCod.sol\":2068:2075  mapSize */\n      0x01\n      0x00\n        /* \"contracts/lib/referencesCode-eai/010_SessionInterval_refCod.sol\":2068:2077  mapSize++ */\n      dup2\n      sload\n      dup1\n      swap3\n      swap2\n      swap1\n      tag_85\n      swap1\n      tag_73\n      jump\t// in\n    tag_85:\n      swap2\n      swap1\n      pop\n      sstore\n      pop\n        /* \"contracts/lib/referencesCode-eai/010_SessionInterval_refCod.sol\":1906:2217  if(!exist){\r... */\n      jump(tag_86)\n    tag_74:\n        /* \"contracts/lib/referencesCode-eai/010_SessionInterval_refCod.sol\":2153:2205  EAI.createSessionInterval_Copy(sessionInterval[_id]) */\n      tag_87\n        /* \"contracts/lib/referencesCode-eai/010_SessionInterval_refCod.sol\":2184:2199  sessionInterval */\n      0x00\n        /* \"contracts/lib/referencesCode-eai/010_SessionInterval_refCod.sol\":2200:2203  _id */\n      dup4\n        /* \"contracts/lib/referencesCode-eai/010_SessionInterval_refCod.sol\":2184:2204  sessionInterval[_id] */\n      dup2\n      sload\n      dup2\n      lt\n      tag_88\n      jumpi\n      tag_89\n      tag_67\n      jump\t// in\n    tag_89:\n    tag_88:\n      swap1\n      0x00\n      mstore\n      keccak256(0x00, 0x20)\n      add\n        /* \"contracts/lib/referencesCode-eai/010_SessionInterval_refCod.sol\":2153:2205  EAI.createSessionInterval_Copy(sessionInterval[_id]) */\n      mload(0x40)\n      dup1\n      0x80\n      add\n      0x40\n      mstore\n      swap1\n      dup2\n      0x00\n      dup3\n      add\n      0x00\n      swap1\n      sload\n      swap1\n      0x0100\n      exp\n      swap1\n      div\n      0xff\n      and\n      0xff\n      and\n      0xff\n      and\n      dup2\n      mstore\n      0x20\n      add\n      0x00\n      dup3\n      add\n      0x01\n      swap1\n      sload\n      swap1\n      0x0100\n      exp\n      swap1\n      div\n      0xff\n      and\n      0xff\n      and\n      0xff\n      and\n      dup2\n      mstore\n      0x20\n      add\n      0x00\n      dup3\n      add\n      0x02\n      swap1\n      sload\n      swap1\n      0x0100\n      exp\n      swap1\n      div\n      0xffffffff\n      and\n      0xffffffff\n      and\n      0xffffffff\n      and\n      dup2\n      mstore\n      0x20\n      add\n      0x00\n      dup3\n      add\n      0x06\n      swap1\n      sload\n      swap1\n      0x0100\n      exp\n      swap1\n      div\n      0xffffffff\n      and\n      0xffffffff\n      and\n      0xffffffff\n      and\n      dup2\n      mstore\n      pop\n      pop\n        /* \"contracts/lib/referencesCode-eai/010_SessionInterval_refCod.sol\":2153:2183  EAI.createSessionInterval_Copy */\n      tag_79\n        /* \"contracts/lib/referencesCode-eai/010_SessionInterval_refCod.sol\":2153:2205  EAI.createSessionInterval_Copy(sessionInterval[_id]) */\n      jump\t// in\n    tag_87:\n        /* \"contracts/lib/referencesCode-eai/010_SessionInterval_refCod.sol\":2118:2139  sessionIntevalByIdRef */\n      0x03\n        /* \"contracts/lib/referencesCode-eai/010_SessionInterval_refCod.sol\":2140:2149  _mapIdRef */\n      dup5\n        /* \"contracts/lib/referencesCode-eai/010_SessionInterval_refCod.sol\":2118:2150  sessionIntevalByIdRef[_mapIdRef] */\n      mload(0x40)\n      tag_91\n      swap2\n      swap1\n      tag_81\n      jump\t// in\n    tag_91:\n      swap1\n      dup2\n      mstore\n      0x20\n      add\n      mload(0x40)\n      dup1\n      swap2\n      sub\n      swap1\n      keccak256\n        /* \"contracts/lib/referencesCode-eai/010_SessionInterval_refCod.sol\":2118:2205  sessionIntevalByIdRef[_mapIdRef] = EAI.createSessionInterval_Copy(sessionInterval[_id]) */\n      0x00\n      dup3\n      add\n      mload\n      dup2\n      0x00\n      add\n      exp(0x0100, 0x00)\n      dup2\n      sload\n      dup2\n      0xff\n      mul\n      not\n      and\n      swap1\n      dup4\n      0xff\n      and\n      mul\n      or\n      swap1\n      sstore\n      pop\n      0x20\n      dup3\n      add\n      mload\n      dup2\n      0x00\n      add\n      exp(0x0100, 0x01)\n      dup2\n      sload\n      dup2\n      0xff\n      mul\n      not\n      and\n      swap1\n      dup4\n      0xff\n      and\n      mul\n      or\n      swap1\n      sstore\n      pop\n      0x40\n      dup3\n      add\n      mload\n      dup2\n      0x00\n      add\n      exp(0x0100, 0x02)\n      dup2\n      sload\n      dup2\n      0xffffffff\n      mul\n      not\n      and\n      swap1\n      dup4\n      0xffffffff\n      and\n      mul\n      or\n      swap1\n      sstore\n      pop\n      0x60\n      dup3\n      add\n      mload\n      dup2\n      0x00\n      add\n      exp(0x0100, 0x06)\n      dup2\n      sload\n      dup2\n      0xffffffff\n      mul\n      not\n      and\n      swap1\n      dup4\n      0xffffffff\n      and\n      mul\n      or\n      swap1\n      sstore\n      pop\n      swap1\n      pop\n      pop\n        /* \"contracts/lib/referencesCode-eai/010_SessionInterval_refCod.sol\":1906:2217  if(!exist){\r... */\n    tag_86:\n        /* \"contracts/lib/referencesCode-eai/010_SessionInterval_refCod.sol\":1626:2224  {\r... */\n      pop\n        /* \"contracts/lib/referencesCode-eai/010_SessionInterval_refCod.sol\":1548:2224  function createSessionIntevalByIdRef(string memory _mapIdRef, uint _id) public{\r... */\n      pop\n      pop\n      jump\t// out\n        /* \"contracts/lib/referencesCode-eai/010_SessionInterval_refCod.sol\":1414:1538  function getAllSessionInterval() public view returns (EAI.SessionInterval[] memory){\r... */\n    tag_19:\n        /* \"contracts/lib/referencesCode-eai/010_SessionInterval_refCod.sol\":1468:1496  EAI.SessionInterval[] memory */\n      0x60\n        /* \"contracts/lib/referencesCode-eai/010_SessionInterval_refCod.sol\":1515:1530  sessionInterval */\n      0x00\n        /* \"contracts/lib/referencesCode-eai/010_SessionInterval_refCod.sol\":1508:1530  return sessionInterval */\n      dup1\n      sload\n      dup1\n      0x20\n      mul\n      0x20\n      add\n      mload(0x40)\n      swap1\n      dup2\n      add\n      0x40\n      mstore\n      dup1\n      swap3\n      swap2\n      swap1\n      dup2\n      dup2\n      mstore\n      0x20\n      add\n      0x00\n      swap1\n    tag_93:\n      dup3\n      dup3\n      lt\n      iszero\n      tag_94\n      jumpi\n      dup4\n      dup3\n      swap1\n      0x00\n      mstore\n      keccak256(0x00, 0x20)\n      add\n      mload(0x40)\n      dup1\n      0x80\n      add\n      0x40\n      mstore\n      swap1\n      dup2\n      0x00\n      dup3\n      add\n      0x00\n      swap1\n      sload\n      swap1\n      0x0100\n      exp\n      swap1\n      div\n      0xff\n      and\n      0xff\n      and\n      0xff\n      and\n      dup2\n      mstore\n      0x20\n      add\n      0x00\n      dup3\n      add\n      0x01\n      swap1\n      sload\n      swap1\n      0x0100\n      exp\n      swap1\n      div\n      0xff\n      and\n      0xff\n      and\n      0xff\n      and\n      dup2\n      mstore\n      0x20\n      add\n      0x00\n      dup3\n      add\n      0x02\n      swap1\n      sload\n      swap1\n      0x0100\n      exp\n      swap1\n      div\n      0xffffffff\n      and\n      0xffffffff\n      and\n      0xffffffff\n      and\n      dup2\n      mstore\n      0x20\n      add\n      0x00\n      dup3\n      add\n      0x06\n      swap1\n      sload\n      swap1\n      0x0100\n      exp\n      swap1\n      div\n      0xffffffff\n      and\n      0xffffffff\n      and\n      0xffffffff\n      and\n      dup2\n      mstore\n      pop\n      pop\n      dup2\n      mstore\n      0x20\n      add\n      swap1\n      0x01\n      add\n      swap1\n      jump(tag_93)\n    tag_94:\n      pop\n      pop\n      pop\n      pop\n      swap1\n      pop\n        /* \"contracts/lib/referencesCode-eai/010_SessionInterval_refCod.sol\":1414:1538  function getAllSessionInterval() public view returns (EAI.SessionInterval[] memory){\r... */\n      swap1\n      jump\t// out\n        /* \"contracts/lib/referencesCode-eai/010_SessionInterval_refCod.sol\":2476:2665  function startNewSessionIntervalByIdRef(string memory _idRef, uint32 _accessDateTime) public {       \r... */\n    tag_25:\n        /* \"contracts/lib/referencesCode-eai/010_SessionInterval_refCod.sol\":2587:2657  sessionIntevalByIdRef[_idRef].startNewSessionInterval(_accessDateTime) */\n      tag_97\n        /* \"contracts/lib/referencesCode-eai/010_SessionInterval_refCod.sol\":2641:2656  _accessDateTime */\n      dup2\n        /* \"contracts/lib/referencesCode-eai/010_SessionInterval_refCod.sol\":2587:2608  sessionIntevalByIdRef */\n      0x03\n        /* \"contracts/lib/referencesCode-eai/010_SessionInterval_refCod.sol\":2609:2615  _idRef */\n      dup5\n        /* \"contracts/lib/referencesCode-eai/010_SessionInterval_refCod.sol\":2587:2616  sessionIntevalByIdRef[_idRef] */\n      mload(0x40)\n      tag_98\n      swap2\n      swap1\n      tag_81\n      jump\t// in\n    tag_98:\n      swap1\n      dup2\n      mstore\n      0x20\n      add\n      mload(0x40)\n      dup1\n      swap2\n      sub\n      swap1\n      keccak256\n        /* \"contracts/lib/referencesCode-eai/010_SessionInterval_refCod.sol\":2587:2640  sessionIntevalByIdRef[_idRef].startNewSessionInterval */\n      tag_99\n      swap1\n        /* \"contracts/lib/referencesCode-eai/010_SessionInterval_refCod.sol\":2587:2657  sessionIntevalByIdRef[_idRef].startNewSessionInterval(_accessDateTime) */\n      swap2\n      swap1\n      0xffffffff\n      and\n      jump\t// in\n    tag_97:\n        /* \"contracts/lib/referencesCode-eai/010_SessionInterval_refCod.sol\":2476:2665  function startNewSessionIntervalByIdRef(string memory _idRef, uint32 _accessDateTime) public {       \r... */\n      pop\n      pop\n      jump\t// out\n        /* \"contracts/lib/referencesCode-eai/010_SessionInterval_refCod.sol\":1270:1406  function getSessionIntervalById(uint _id) public view returns (EAI.SessionInterval memory){\r... */\n    tag_29:\n        /* \"contracts/lib/referencesCode-eai/010_SessionInterval_refCod.sol\":1333:1359  EAI.SessionInterval memory */\n      tag_100\n      tag_101\n      jump\t// in\n    tag_100:\n        /* \"contracts/lib/referencesCode-eai/010_SessionInterval_refCod.sol\":1378:1393  sessionInterval */\n      0x00\n        /* \"contracts/lib/referencesCode-eai/010_SessionInterval_refCod.sol\":1394:1397  _id */\n      dup3\n        /* \"contracts/lib/referencesCode-eai/010_SessionInterval_refCod.sol\":1378:1398  sessionInterval[_id] */\n      dup2\n      sload\n      dup2\n      lt\n      tag_103\n      jumpi\n      tag_104\n      tag_67\n      jump\t// in\n    tag_104:\n    tag_103:\n      swap1\n      0x00\n      mstore\n      keccak256(0x00, 0x20)\n      add\n        /* \"contracts/lib/referencesCode-eai/010_SessionInterval_refCod.sol\":1371:1398  return sessionInterval[_id] */\n      mload(0x40)\n      dup1\n      0x80\n      add\n      0x40\n      mstore\n      swap1\n      dup2\n      0x00\n      dup3\n      add\n      0x00\n      swap1\n      sload\n      swap1\n      0x0100\n      exp\n      swap1\n      div\n      0xff\n      and\n      0xff\n      and\n      0xff\n      and\n      dup2\n      mstore\n      0x20\n      add\n      0x00\n      dup3\n      add\n      0x01\n      swap1\n      sload\n      swap1\n      0x0100\n      exp\n      swap1\n      div\n      0xff\n      and\n      0xff\n      and\n      0xff\n      and\n      dup2\n      mstore\n      0x20\n      add\n      0x00\n      dup3\n      add\n      0x02\n      swap1\n      sload\n      swap1\n      0x0100\n      exp\n      swap1\n      div\n      0xffffffff\n      and\n      0xffffffff\n      and\n      0xffffffff\n      and\n      dup2\n      mstore\n      0x20\n      add\n      0x00\n      dup3\n      add\n      0x06\n      swap1\n      sload\n      swap1\n      0x0100\n      exp\n      swap1\n      div\n      0xffffffff\n      and\n      0xffffffff\n      and\n      0xffffffff\n      and\n      dup2\n      mstore\n      pop\n      pop\n      swap1\n      pop\n        /* \"contracts/lib/referencesCode-eai/010_SessionInterval_refCod.sol\":1270:1406  function getSessionIntervalById(uint _id) public view returns (EAI.SessionInterval memory){\r... */\n      swap2\n      swap1\n      pop\n      jump\t// out\n        /* \"contracts/lib/referencesCode-eai/010_SessionInterval_refCod.sol\":3375:3788  function deleteSessionInterval_idRef(string memory _idRef)public returns(uint){\r... */\n    tag_35:\n        /* \"contracts/lib/referencesCode-eai/010_SessionInterval_refCod.sol\":3448:3452  uint */\n      0x00\n        /* \"contracts/lib/referencesCode-eai/010_SessionInterval_refCod.sol\":3479:3500  sessionIntevalByIdRef */\n      0x03\n        /* \"contracts/lib/referencesCode-eai/010_SessionInterval_refCod.sol\":3501:3507  _idRef */\n      dup3\n        /* \"contracts/lib/referencesCode-eai/010_SessionInterval_refCod.sol\":3479:3508  sessionIntevalByIdRef[_idRef] */\n      mload(0x40)\n      tag_107\n      swap2\n      swap1\n      tag_81\n      jump\t// in\n    tag_107:\n      swap1\n      dup2\n      mstore\n      0x20\n      add\n      mload(0x40)\n      dup1\n      swap2\n      sub\n      swap1\n      keccak256\n      0x00\n        /* \"contracts/lib/referencesCode-eai/010_SessionInterval_refCod.sol\":3472:3508  delete sessionIntevalByIdRef[_idRef] */\n      dup1\n      dup3\n      add\n      exp(0x0100, 0x00)\n      dup2\n      sload\n      swap1\n      0xff\n      mul\n      not\n      and\n      swap1\n      sstore\n      0x00\n      dup3\n      add\n      exp(0x0100, 0x01)\n      dup2\n      sload\n      swap1\n      0xff\n      mul\n      not\n      and\n      swap1\n      sstore\n      0x00\n      dup3\n      add\n      exp(0x0100, 0x02)\n      dup2\n      sload\n      swap1\n      0xffffffff\n      mul\n      not\n      and\n      swap1\n      sstore\n      0x00\n      dup3\n      add\n      exp(0x0100, 0x06)\n      dup2\n      sload\n      swap1\n      0xffffffff\n      mul\n      not\n      and\n      swap1\n      sstore\n      pop\n      pop\n        /* \"contracts/lib/referencesCode-eai/010_SessionInterval_refCod.sol\":3533:3539  uint i */\n      0x00\n        /* \"contracts/lib/referencesCode-eai/010_SessionInterval_refCod.sol\":3528:3756  for (uint i = 0; i < mapSize; i++) {\r... */\n    tag_108:\n        /* \"contracts/lib/referencesCode-eai/010_SessionInterval_refCod.sol\":3549:3556  mapSize */\n      sload(0x01)\n        /* \"contracts/lib/referencesCode-eai/010_SessionInterval_refCod.sol\":3545:3546  i */\n      dup2\n        /* \"contracts/lib/referencesCode-eai/010_SessionInterval_refCod.sol\":3545:3556  i < mapSize */\n      lt\n        /* \"contracts/lib/referencesCode-eai/010_SessionInterval_refCod.sol\":3528:3756  for (uint i = 0; i < mapSize; i++) {\r... */\n      iszero\n      tag_109\n      jumpi\n        /* \"contracts/lib/referencesCode-eai/010_SessionInterval_refCod.sol\":3637:3643  _idRef */\n      dup3\n        /* \"contracts/lib/referencesCode-eai/010_SessionInterval_refCod.sol\":3626:3644  abi.encode(_idRef) */\n      add(0x20, mload(0x40))\n      tag_111\n      swap2\n      swap1\n      tag_50\n      jump\t// in\n    tag_111:\n      mload(0x40)\n      0x20\n      dup2\n      dup4\n      sub\n      sub\n      dup2\n      mstore\n      swap1\n      0x40\n      mstore\n        /* \"contracts/lib/referencesCode-eai/010_SessionInterval_refCod.sol\":3616:3645  keccak256(abi.encode(_idRef)) */\n      dup1\n      mload\n      swap1\n      0x20\n      add\n      keccak256\n        /* \"contracts/lib/referencesCode-eai/010_SessionInterval_refCod.sol\":3603:3607  keys */\n      0x02\n        /* \"contracts/lib/referencesCode-eai/010_SessionInterval_refCod.sol\":3608:3609  i */\n      dup3\n        /* \"contracts/lib/referencesCode-eai/010_SessionInterval_refCod.sol\":3603:3610  keys[i] */\n      dup2\n      sload\n      dup2\n      lt\n      tag_112\n      jumpi\n      tag_113\n      tag_67\n      jump\t// in\n    tag_113:\n    tag_112:\n      swap1\n      0x00\n      mstore\n      keccak256(0x00, 0x20)\n      add\n        /* \"contracts/lib/referencesCode-eai/010_SessionInterval_refCod.sol\":3592:3611  abi.encode(keys[i]) */\n      add(0x20, mload(0x40))\n      tag_115\n      swap2\n      swap1\n      tag_70\n      jump\t// in\n    tag_115:\n      mload(0x40)\n      0x20\n      dup2\n      dup4\n      sub\n      sub\n      dup2\n      mstore\n      swap1\n      0x40\n      mstore\n        /* \"contracts/lib/referencesCode-eai/010_SessionInterval_refCod.sol\":3582:3612  keccak256(abi.encode(keys[i])) */\n      dup1\n      mload\n      swap1\n      0x20\n      add\n      keccak256\n        /* \"contracts/lib/referencesCode-eai/010_SessionInterval_refCod.sol\":3582:3645  keccak256(abi.encode(keys[i])) == keccak256(abi.encode(_idRef)) */\n      eq\n        /* \"contracts/lib/referencesCode-eai/010_SessionInterval_refCod.sol\":3578:3745  if (keccak256(abi.encode(keys[i])) == keccak256(abi.encode(_idRef))) {\r... */\n      iszero\n      tag_116\n      jumpi\n        /* \"contracts/lib/referencesCode-eai/010_SessionInterval_refCod.sol\":3672:3676  keys */\n      0x02\n        /* \"contracts/lib/referencesCode-eai/010_SessionInterval_refCod.sol\":3677:3678  i */\n      dup2\n        /* \"contracts/lib/referencesCode-eai/010_SessionInterval_refCod.sol\":3672:3679  keys[i] */\n      dup2\n      sload\n      dup2\n      lt\n      tag_117\n      jumpi\n      tag_118\n      tag_67\n      jump\t// in\n    tag_118:\n    tag_117:\n      swap1\n      0x00\n      mstore\n      keccak256(0x00, 0x20)\n      add\n      0x00\n        /* \"contracts/lib/referencesCode-eai/010_SessionInterval_refCod.sol\":3665:3679  delete keys[i] */\n      tag_120\n      swap2\n      swap1\n      tag_121\n      jump\t// in\n    tag_120:\n        /* \"contracts/lib/referencesCode-eai/010_SessionInterval_refCod.sol\":3697:3704  mapSize */\n      0x01\n      0x00\n        /* \"contracts/lib/referencesCode-eai/010_SessionInterval_refCod.sol\":3697:3706  mapSize-- */\n      dup2\n      sload\n      dup1\n      swap3\n      swap2\n      swap1\n      tag_122\n      swap1\n      tag_123\n      jump\t// in\n    tag_122:\n      swap2\n      swap1\n      pop\n      sstore\n      pop\n        /* \"contracts/lib/referencesCode-eai/010_SessionInterval_refCod.sol\":3724:3729  break */\n      jump(tag_109)\n        /* \"contracts/lib/referencesCode-eai/010_SessionInterval_refCod.sol\":3578:3745  if (keccak256(abi.encode(keys[i])) == keccak256(abi.encode(_idRef))) {\r... */\n    tag_116:\n        /* \"contracts/lib/referencesCode-eai/010_SessionInterval_refCod.sol\":3558:3561  i++ */\n      dup1\n      dup1\n      tag_124\n      swap1\n      tag_73\n      jump\t// in\n    tag_124:\n      swap2\n      pop\n      pop\n        /* \"contracts/lib/referencesCode-eai/010_SessionInterval_refCod.sol\":3528:3756  for (uint i = 0; i < mapSize; i++) {\r... */\n      jump(tag_108)\n    tag_109:\n      pop\n        /* \"contracts/lib/referencesCode-eai/010_SessionInterval_refCod.sol\":3773:3780  mapSize */\n      sload(0x01)\n        /* \"contracts/lib/referencesCode-eai/010_SessionInterval_refCod.sol\":3766:3780  return mapSize */\n      swap1\n      pop\n        /* \"contracts/lib/referencesCode-eai/010_SessionInterval_refCod.sol\":3375:3788  function deleteSessionInterval_idRef(string memory _idRef)public returns(uint){\r... */\n      swap2\n      swap1\n      pop\n      jump\t// out\n        /* \"contracts/lib/referencesCode-eai/010_SessionInterval_refCod.sol\":2232:2397  function getSessionIntervalByIdRef(string memory _mapIdRef) public view returns(EAI.SessionInterval memory){\r... */\n    tag_40:\n        /* \"contracts/lib/referencesCode-eai/010_SessionInterval_refCod.sol\":2312:2338  EAI.SessionInterval memory */\n      tag_125\n      tag_101\n      jump\t// in\n    tag_125:\n        /* \"contracts/lib/referencesCode-eai/010_SessionInterval_refCod.sol\":2357:2378  sessionIntevalByIdRef */\n      0x03\n        /* \"contracts/lib/referencesCode-eai/010_SessionInterval_refCod.sol\":2379:2388  _mapIdRef */\n      dup3\n        /* \"contracts/lib/referencesCode-eai/010_SessionInterval_refCod.sol\":2357:2389  sessionIntevalByIdRef[_mapIdRef] */\n      mload(0x40)\n      tag_127\n      swap2\n      swap1\n      tag_81\n      jump\t// in\n    tag_127:\n      swap1\n      dup2\n      mstore\n      0x20\n      add\n      mload(0x40)\n      dup1\n      swap2\n      sub\n      swap1\n      keccak256\n        /* \"contracts/lib/referencesCode-eai/010_SessionInterval_refCod.sol\":2350:2389  return sessionIntevalByIdRef[_mapIdRef] */\n      mload(0x40)\n      dup1\n      0x80\n      add\n      0x40\n      mstore\n      swap1\n      dup2\n      0x00\n      dup3\n      add\n      0x00\n      swap1\n      sload\n      swap1\n      0x0100\n      exp\n      swap1\n      div\n      0xff\n      and\n      0xff\n      and\n      0xff\n      and\n      dup2\n      mstore\n      0x20\n      add\n      0x00\n      dup3\n      add\n      0x01\n      swap1\n      sload\n      swap1\n      0x0100\n      exp\n      swap1\n      div\n      0xff\n      and\n      0xff\n      and\n      0xff\n      and\n      dup2\n      mstore\n      0x20\n      add\n      0x00\n      dup3\n      add\n      0x02\n      swap1\n      sload\n      swap1\n      0x0100\n      exp\n      swap1\n      div\n      0xffffffff\n      and\n      0xffffffff\n      and\n      0xffffffff\n      and\n      dup2\n      mstore\n      0x20\n      add\n      0x00\n      dup3\n      add\n      0x06\n      swap1\n      sload\n      swap1\n      0x0100\n      exp\n      swap1\n      div\n      0xffffffff\n      and\n      0xffffffff\n      and\n      0xffffffff\n      and\n      dup2\n      mstore\n      pop\n      pop\n      swap1\n      pop\n        /* \"contracts/lib/referencesCode-eai/010_SessionInterval_refCod.sol\":2232:2397  function getSessionIntervalByIdRef(string memory _mapIdRef) public view returns(EAI.SessionInterval memory){\r... */\n      swap2\n      swap1\n      pop\n      jump\t// out\n        /* \"contracts/lib/referencesCode-eai/010_SessionInterval_refCod.sol\":3003:3367  function getAllSessionInterval_mapping() public view returns ( string[] memory, EAI.SessionInterval[] memory){\r... */\n    tag_43:\n        /* \"contracts/lib/referencesCode-eai/010_SessionInterval_refCod.sol\":3066:3081  string[] memory */\n      0x60\n        /* \"contracts/lib/referencesCode-eai/010_SessionInterval_refCod.sol\":3083:3111  EAI.SessionInterval[] memory */\n      dup1\n        /* \"contracts/lib/referencesCode-eai/010_SessionInterval_refCod.sol\":3122:3159  EAI.SessionInterval[] memory sessions */\n      0x00\n        /* \"contracts/lib/referencesCode-eai/010_SessionInterval_refCod.sol\":3188:3195  mapSize */\n      sload(0x01)\n        /* \"contracts/lib/referencesCode-eai/010_SessionInterval_refCod.sol\":3162:3196  new EAI.SessionInterval[](mapSize) */\n      0xffffffffffffffff\n      dup2\n      gt\n      iszero\n      tag_129\n      jumpi\n      tag_130\n      tag_131\n      jump\t// in\n    tag_130:\n    tag_129:\n      mload(0x40)\n      swap1\n      dup1\n      dup3\n      mstore\n      dup1\n      0x20\n      mul\n      0x20\n      add\n      dup3\n      add\n      0x40\n      mstore\n      dup1\n      iszero\n      tag_132\n      jumpi\n      dup2\n      0x20\n      add\n    tag_133:\n      tag_134\n      tag_101\n      jump\t// in\n    tag_134:\n      dup2\n      mstore\n      0x20\n      add\n      swap1\n      0x01\n      swap1\n      sub\n      swap1\n      dup2\n      tag_133\n      jumpi\n      swap1\n      pop\n    tag_132:\n      pop\n        /* \"contracts/lib/referencesCode-eai/010_SessionInterval_refCod.sol\":3122:3196  EAI.SessionInterval[] memory sessions = new EAI.SessionInterval[](mapSize) */\n      swap1\n      pop\n        /* \"contracts/lib/referencesCode-eai/010_SessionInterval_refCod.sol\":3213:3219  uint i */\n      0x00\n        /* \"contracts/lib/referencesCode-eai/010_SessionInterval_refCod.sol\":3209:3324  for(uint i=0; i < mapSize; i++){           \r... */\n    tag_135:\n        /* \"contracts/lib/referencesCode-eai/010_SessionInterval_refCod.sol\":3227:3234  mapSize */\n      sload(0x01)\n        /* \"contracts/lib/referencesCode-eai/010_SessionInterval_refCod.sol\":3223:3224  i */\n      dup2\n        /* \"contracts/lib/referencesCode-eai/010_SessionInterval_refCod.sol\":3223:3234  i < mapSize */\n      lt\n        /* \"contracts/lib/referencesCode-eai/010_SessionInterval_refCod.sol\":3209:3324  for(uint i=0; i < mapSize; i++){           \r... */\n      iszero\n      tag_136\n      jumpi\n        /* \"contracts/lib/referencesCode-eai/010_SessionInterval_refCod.sol\":3280:3301  sessionIntevalByIdRef */\n      0x03\n        /* \"contracts/lib/referencesCode-eai/010_SessionInterval_refCod.sol\":3303:3307  keys */\n      0x02\n        /* \"contracts/lib/referencesCode-eai/010_SessionInterval_refCod.sol\":3308:3309  i */\n      dup3\n        /* \"contracts/lib/referencesCode-eai/010_SessionInterval_refCod.sol\":3303:3310  keys[i] */\n      dup2\n      sload\n      dup2\n      lt\n      tag_138\n      jumpi\n      tag_139\n      tag_67\n      jump\t// in\n    tag_139:\n    tag_138:\n      swap1\n      0x00\n      mstore\n      keccak256(0x00, 0x20)\n      add\n        /* \"contracts/lib/referencesCode-eai/010_SessionInterval_refCod.sol\":3280:3312  sessionIntevalByIdRef[ keys[i] ] */\n      mload(0x40)\n      tag_141\n      swap2\n      swap1\n      tag_142\n      jump\t// in\n    tag_141:\n      swap1\n      dup2\n      mstore\n      0x20\n      add\n      mload(0x40)\n      dup1\n      swap2\n      sub\n      swap1\n      keccak256\n        /* \"contracts/lib/referencesCode-eai/010_SessionInterval_refCod.sol\":3266:3312  sessions[i] = sessionIntevalByIdRef[ keys[i] ] */\n      mload(0x40)\n      dup1\n      0x80\n      add\n      0x40\n      mstore\n      swap1\n      dup2\n      0x00\n      dup3\n      add\n      0x00\n      swap1\n      sload\n      swap1\n      0x0100\n      exp\n      swap1\n      div\n      0xff\n      and\n      0xff\n      and\n      0xff\n      and\n      dup2\n      mstore\n      0x20\n      add\n      0x00\n      dup3\n      add\n      0x01\n      swap1\n      sload\n      swap1\n      0x0100\n      exp\n      swap1\n      div\n      0xff\n      and\n      0xff\n      and\n      0xff\n      and\n      dup2\n      mstore\n      0x20\n      add\n      0x00\n      dup3\n      add\n      0x02\n      swap1\n      sload\n      swap1\n      0x0100\n      exp\n      swap1\n      div\n      0xffffffff\n      and\n      0xffffffff\n      and\n      0xffffffff\n      and\n      dup2\n      mstore\n      0x20\n      add\n      0x00\n      dup3\n      add\n      0x06\n      swap1\n      sload\n      swap1\n      0x0100\n      exp\n      swap1\n      div\n      0xffffffff\n      and\n      0xffffffff\n      and\n      0xffffffff\n      and\n      dup2\n      mstore\n      pop\n      pop\n        /* \"contracts/lib/referencesCode-eai/010_SessionInterval_refCod.sol\":3266:3274  sessions */\n      dup3\n        /* \"contracts/lib/referencesCode-eai/010_SessionInterval_refCod.sol\":3275:3276  i */\n      dup3\n        /* \"contracts/lib/referencesCode-eai/010_SessionInterval_refCod.sol\":3266:3277  sessions[i] */\n      dup2\n      mload\n      dup2\n      lt\n      tag_143\n      jumpi\n      tag_144\n      tag_67\n      jump\t// in\n    tag_144:\n    tag_143:\n      0x20\n      mul\n      0x20\n      add\n      add\n        /* \"contracts/lib/referencesCode-eai/010_SessionInterval_refCod.sol\":3266:3312  sessions[i] = sessionIntevalByIdRef[ keys[i] ] */\n      dup2\n      swap1\n      mstore\n      pop\n        /* \"contracts/lib/referencesCode-eai/010_SessionInterval_refCod.sol\":3236:3239  i++ */\n      dup1\n      dup1\n      tag_145\n      swap1\n      tag_73\n      jump\t// in\n    tag_145:\n      swap2\n      pop\n      pop\n        /* \"contracts/lib/referencesCode-eai/010_SessionInterval_refCod.sol\":3209:3324  for(uint i=0; i < mapSize; i++){           \r... */\n      jump(tag_135)\n    tag_136:\n      pop\n        /* \"contracts/lib/referencesCode-eai/010_SessionInterval_refCod.sol\":3344:3348  keys */\n      0x02\n        /* \"contracts/lib/referencesCode-eai/010_SessionInterval_refCod.sol\":3350:3358  sessions */\n      dup2\n        /* \"contracts/lib/referencesCode-eai/010_SessionInterval_refCod.sol\":3336:3359  return (keys, sessions) */\n      dup2\n      dup1\n      sload\n      dup1\n      0x20\n      mul\n      0x20\n      add\n      mload(0x40)\n      swap1\n      dup2\n      add\n      0x40\n      mstore\n      dup1\n      swap3\n      swap2\n      swap1\n      dup2\n      dup2\n      mstore\n      0x20\n      add\n      0x00\n      swap1\n    tag_146:\n      dup3\n      dup3\n      lt\n      iszero\n      tag_147\n      jumpi\n      dup4\n      dup3\n      swap1\n      0x00\n      mstore\n      keccak256(0x00, 0x20)\n      add\n      dup1\n      sload\n      tag_149\n      swap1\n      tag_150\n      jump\t// in\n    tag_149:\n      dup1\n      0x1f\n      add\n      0x20\n      dup1\n      swap2\n      div\n      mul\n      0x20\n      add\n      mload(0x40)\n      swap1\n      dup2\n      add\n      0x40\n      mstore\n      dup1\n      swap3\n      swap2\n      swap1\n      dup2\n      dup2\n      mstore\n      0x20\n      add\n      dup3\n      dup1\n      sload\n      tag_151\n      swap1\n      tag_150\n      jump\t// in\n    tag_151:\n      dup1\n      iszero\n      tag_152\n      jumpi\n      dup1\n      0x1f\n      lt\n      tag_153\n      jumpi\n      0x0100\n      dup1\n      dup4\n      sload\n      div\n      mul\n      dup4\n      mstore\n      swap2\n      0x20\n      add\n      swap2\n      jump(tag_152)\n    tag_153:\n      dup3\n      add\n      swap2\n      swap1\n      0x00\n      mstore\n      keccak256(0x00, 0x20)\n      swap1\n    tag_154:\n      dup2\n      sload\n      dup2\n      mstore\n      swap1\n      0x01\n      add\n      swap1\n      0x20\n      add\n      dup1\n      dup4\n      gt\n      tag_154\n      jumpi\n      dup3\n      swap1\n      sub\n      0x1f\n      and\n      dup3\n      add\n      swap2\n    tag_152:\n      pop\n      pop\n      pop\n      pop\n      pop\n      dup2\n      mstore\n      0x20\n      add\n      swap1\n      0x01\n      add\n      swap1\n      jump(tag_146)\n    tag_147:\n      pop\n      pop\n      pop\n      pop\n      swap2\n      pop\n      swap3\n      pop\n      swap3\n      pop\n      pop\n        /* \"contracts/lib/referencesCode-eai/010_SessionInterval_refCod.sol\":3003:3367  function getAllSessionInterval_mapping() public view returns ( string[] memory, EAI.SessionInterval[] memory){\r... */\n      swap1\n      swap2\n      jump\t// out\n        /* \"contracts/lib/referencesCode-eai/010_SessionInterval_refCod.sol\":2760:2995  function isTheSessionIdOpen(string memory _idRef, uint32 _accessDateTime) public view returns(string memory) {                                           \r... */\n    tag_48:\n        /* \"contracts/lib/referencesCode-eai/010_SessionInterval_refCod.sol\":2854:2867  string memory */\n      0x60\n        /* \"contracts/lib/referencesCode-eai/010_SessionInterval_refCod.sol\":2932:2987  sessionIntevalByIdRef[_idRef].isItOpen(_accessDateTime) */\n      tag_156\n        /* \"contracts/lib/referencesCode-eai/010_SessionInterval_refCod.sol\":2971:2986  _accessDateTime */\n      dup3\n        /* \"contracts/lib/referencesCode-eai/010_SessionInterval_refCod.sol\":2932:2953  sessionIntevalByIdRef */\n      0x03\n        /* \"contracts/lib/referencesCode-eai/010_SessionInterval_refCod.sol\":2954:2960  _idRef */\n      dup6\n        /* \"contracts/lib/referencesCode-eai/010_SessionInterval_refCod.sol\":2932:2961  sessionIntevalByIdRef[_idRef] */\n      mload(0x40)\n      tag_157\n      swap2\n      swap1\n      tag_81\n      jump\t// in\n    tag_157:\n      swap1\n      dup2\n      mstore\n      0x20\n      add\n      mload(0x40)\n      dup1\n      swap2\n      sub\n      swap1\n      keccak256\n        /* \"contracts/lib/referencesCode-eai/010_SessionInterval_refCod.sol\":2932:2970  sessionIntevalByIdRef[_idRef].isItOpen */\n      mload(0x40)\n      dup1\n      0x80\n      add\n      0x40\n      mstore\n      swap1\n      dup2\n      0x00\n      dup3\n      add\n      0x00\n      swap1\n      sload\n      swap1\n      0x0100\n      exp\n      swap1\n      div\n      0xff\n      and\n      0xff\n      and\n      0xff\n      and\n      dup2\n      mstore\n      0x20\n      add\n      0x00\n      dup3\n      add\n      0x01\n      swap1\n      sload\n      swap1\n      0x0100\n      exp\n      swap1\n      div\n      0xff\n      and\n      0xff\n      and\n      0xff\n      and\n      dup2\n      mstore\n      0x20\n      add\n      0x00\n      dup3\n      add\n      0x02\n      swap1\n      sload\n      swap1\n      0x0100\n      exp\n      swap1\n      div\n      0xffffffff\n      and\n      0xffffffff\n      and\n      0xffffffff\n      and\n      dup2\n      mstore\n      0x20\n      add\n      0x00\n      dup3\n      add\n      0x06\n      swap1\n      sload\n      swap1\n      0x0100\n      exp\n      swap1\n      div\n      0xffffffff\n      and\n      0xffffffff\n      and\n      0xffffffff\n      and\n      dup2\n      mstore\n      pop\n      pop\n      tag_158\n      swap1\n        /* \"contracts/lib/referencesCode-eai/010_SessionInterval_refCod.sol\":2932:2987  sessionIntevalByIdRef[_idRef].isItOpen(_accessDateTime) */\n      swap2\n      swap1\n      0xffffffff\n      and\n      jump\t// in\n    tag_156:\n        /* \"contracts/lib/referencesCode-eai/010_SessionInterval_refCod.sol\":2923:2987  return   sessionIntevalByIdRef[_idRef].isItOpen(_accessDateTime) */\n      swap1\n      pop\n        /* \"contracts/lib/referencesCode-eai/010_SessionInterval_refCod.sol\":2760:2995  function isTheSessionIdOpen(string memory _idRef, uint32 _accessDateTime) public view returns(string memory) {                                           \r... */\n      swap3\n      swap2\n      pop\n      pop\n      jump\t// out\n        /* \"contracts/lib/referencesCode-eai/010_SessionInterval_refCod.sol\":1049:1262  function isTheSessionIdOpen(uint _id, uint32 _accessDateTime) public view returns(string memory) {                                           \r... */\n    tag_54:\n        /* \"contracts/lib/referencesCode-eai/010_SessionInterval_refCod.sol\":1131:1144  string memory */\n      0x60\n        /* \"contracts/lib/referencesCode-eai/010_SessionInterval_refCod.sol\":1208:1254  sessionInterval[_id].isItOpen(_accessDateTime) */\n      tag_160\n        /* \"contracts/lib/referencesCode-eai/010_SessionInterval_refCod.sol\":1238:1253  _accessDateTime */\n      dup3\n        /* \"contracts/lib/referencesCode-eai/010_SessionInterval_refCod.sol\":1208:1223  sessionInterval */\n      0x00\n        /* \"contracts/lib/referencesCode-eai/010_SessionInterval_refCod.sol\":1224:1227  _id */\n      dup6\n        /* \"contracts/lib/referencesCode-eai/010_SessionInterval_refCod.sol\":1208:1228  sessionInterval[_id] */\n      dup2\n      sload\n      dup2\n      lt\n      tag_161\n      jumpi\n      tag_162\n      tag_67\n      jump\t// in\n    tag_162:\n    tag_161:\n      swap1\n      0x00\n      mstore\n      keccak256(0x00, 0x20)\n      add\n        /* \"contracts/lib/referencesCode-eai/010_SessionInterval_refCod.sol\":1208:1237  sessionInterval[_id].isItOpen */\n      mload(0x40)\n      dup1\n      0x80\n      add\n      0x40\n      mstore\n      swap1\n      dup2\n      0x00\n      dup3\n      add\n      0x00\n      swap1\n      sload\n      swap1\n      0x0100\n      exp\n      swap1\n      div\n      0xff\n      and\n      0xff\n      and\n      0xff\n      and\n      dup2\n      mstore\n      0x20\n      add\n      0x00\n      dup3\n      add\n      0x01\n      swap1\n      sload\n      swap1\n      0x0100\n      exp\n      swap1\n      div\n      0xff\n      and\n      0xff\n      and\n      0xff\n      and\n      dup2\n      mstore\n      0x20\n      add\n      0x00\n      dup3\n      add\n      0x02\n      swap1\n      sload\n      swap1\n      0x0100\n      exp\n      swap1\n      div\n      0xffffffff\n      and\n      0xffffffff\n      and\n      0xffffffff\n      and\n      dup2\n      mstore\n      0x20\n      add\n      0x00\n      dup3\n      add\n      0x06\n      swap1\n      sload\n      swap1\n      0x0100\n      exp\n      swap1\n      div\n      0xffffffff\n      and\n      0xffffffff\n      and\n      0xffffffff\n      and\n      dup2\n      mstore\n      pop\n      pop\n      tag_158\n      swap1\n        /* \"contracts/lib/referencesCode-eai/010_SessionInterval_refCod.sol\":1208:1254  sessionInterval[_id].isItOpen(_accessDateTime) */\n      swap2\n      swap1\n      0xffffffff\n      and\n      jump\t// in\n    tag_160:\n        /* \"contracts/lib/referencesCode-eai/010_SessionInterval_refCod.sol\":1200:1254  return  sessionInterval[_id].isItOpen(_accessDateTime) */\n      swap1\n      pop\n        /* \"contracts/lib/referencesCode-eai/010_SessionInterval_refCod.sol\":1049:1262  function isTheSessionIdOpen(uint _id, uint32 _accessDateTime) public view returns(string memory) {                                           \r... */\n      swap3\n      swap2\n      pop\n      pop\n      jump\t// out\n        /* \"contracts/lib/referencesCode-eai/010_SessionInterval_refCod.sol\":811:957  function startNewSection(uint _id, uint32 _accessDateTime) public {\r... */\n    tag_58:\n        /* \"contracts/lib/referencesCode-eai/010_SessionInterval_refCod.sol\":888:949  sessionInterval[_id].startNewSessionInterval(_accessDateTime) */\n      tag_165\n        /* \"contracts/lib/referencesCode-eai/010_SessionInterval_refCod.sol\":933:948  _accessDateTime */\n      dup2\n        /* \"contracts/lib/referencesCode-eai/010_SessionInterval_refCod.sol\":888:903  sessionInterval */\n      0x00\n        /* \"contracts/lib/referencesCode-eai/010_SessionInterval_refCod.sol\":904:907  _id */\n      dup5\n        /* \"contracts/lib/referencesCode-eai/010_SessionInterval_refCod.sol\":888:908  sessionInterval[_id] */\n      dup2\n      sload\n      dup2\n      lt\n      tag_166\n      jumpi\n      tag_167\n      tag_67\n      jump\t// in\n    tag_167:\n    tag_166:\n      swap1\n      0x00\n      mstore\n      keccak256(0x00, 0x20)\n      add\n        /* \"contracts/lib/referencesCode-eai/010_SessionInterval_refCod.sol\":888:932  sessionInterval[_id].startNewSessionInterval */\n      tag_99\n      swap1\n        /* \"contracts/lib/referencesCode-eai/010_SessionInterval_refCod.sol\":888:949  sessionInterval[_id].startNewSessionInterval(_accessDateTime) */\n      swap2\n      swap1\n      0xffffffff\n      and\n      jump\t// in\n    tag_165:\n        /* \"contracts/lib/referencesCode-eai/010_SessionInterval_refCod.sol\":811:957  function startNewSection(uint _id, uint32 _accessDateTime) public {\r... */\n      pop\n      pop\n      jump\t// out\n        /* \"contracts/lib/eai/EAI.sol\":20890:21246  function createSessionInteval(uint8 _duration, uint8 _timeUnit)internal pure returns (SessionInterval memory){\r... */\n    tag_59:\n        /* \"contracts/lib/eai/EAI.sol\":20976:20998  SessionInterval memory */\n      tag_169\n      tag_101\n      jump\t// in\n    tag_169:\n        /* \"contracts/lib/eai/EAI.sol\":21010:21035  uint32 _durationInSeconds */\n      0x00\n        /* \"contracts/lib/eai/EAI.sol\":784:785  4 */\n      0x04\n        /* \"contracts/lib/eai/EAI.sol\":21053:21070  _timeUnit <= WEEK */\n      0xff\n      and\n        /* \"contracts/lib/eai/EAI.sol\":21053:21062  _timeUnit */\n      dup4\n        /* \"contracts/lib/eai/EAI.sol\":21053:21070  _timeUnit <= WEEK */\n      0xff\n      and\n      gt\n        /* \"contracts/lib/eai/EAI.sol\":21050:21161  if(_timeUnit <= WEEK){\r... */\n      tag_171\n      jumpi\n        /* \"contracts/lib/eai/EAI.sol\":21107:21149  getIntervalInSeconds(_duration, _timeUnit) */\n      tag_172\n        /* \"contracts/lib/eai/EAI.sol\":21128:21137  _duration */\n      dup5\n        /* \"contracts/lib/eai/EAI.sol\":21107:21149  getIntervalInSeconds(_duration, _timeUnit) */\n      0xff\n      and\n        /* \"contracts/lib/eai/EAI.sol\":21139:21148  _timeUnit */\n      dup5\n        /* \"contracts/lib/eai/EAI.sol\":21107:21127  getIntervalInSeconds */\n      tag_173\n        /* \"contracts/lib/eai/EAI.sol\":21107:21149  getIntervalInSeconds(_duration, _timeUnit) */\n      jump\t// in\n    tag_172:\n        /* \"contracts/lib/eai/EAI.sol\":21086:21149  _durationInSeconds = getIntervalInSeconds(_duration, _timeUnit) */\n      swap1\n      pop\n        /* \"contracts/lib/eai/EAI.sol\":21050:21161  if(_timeUnit <= WEEK){\r... */\n    tag_171:\n        /* \"contracts/lib/eai/EAI.sol\":21178:21238  SessionInterval(_duration, _timeUnit, _durationInSeconds, 0) */\n      mload(0x40)\n      dup1\n      0x80\n      add\n      0x40\n      mstore\n      dup1\n        /* \"contracts/lib/eai/EAI.sol\":21194:21203  _duration */\n      dup6\n        /* \"contracts/lib/eai/EAI.sol\":21178:21238  SessionInterval(_duration, _timeUnit, _durationInSeconds, 0) */\n      0xff\n      and\n      dup2\n      mstore\n      0x20\n      add\n        /* \"contracts/lib/eai/EAI.sol\":21205:21214  _timeUnit */\n      dup5\n        /* \"contracts/lib/eai/EAI.sol\":21178:21238  SessionInterval(_duration, _timeUnit, _durationInSeconds, 0) */\n      0xff\n      and\n      dup2\n      mstore\n      0x20\n      add\n        /* \"contracts/lib/eai/EAI.sol\":21216:21234  _durationInSeconds */\n      dup3\n        /* \"contracts/lib/eai/EAI.sol\":21178:21238  SessionInterval(_duration, _timeUnit, _durationInSeconds, 0) */\n      0xffffffff\n      and\n      dup2\n      mstore\n      0x20\n      add\n        /* \"contracts/lib/eai/EAI.sol\":21236:21237  0 */\n      0x00\n        /* \"contracts/lib/eai/EAI.sol\":21178:21238  SessionInterval(_duration, _timeUnit, _durationInSeconds, 0) */\n      0xffffffff\n      and\n      dup2\n      mstore\n      pop\n        /* \"contracts/lib/eai/EAI.sol\":21171:21238  return SessionInterval(_duration, _timeUnit, _durationInSeconds, 0) */\n      swap2\n      pop\n      pop\n        /* \"contracts/lib/eai/EAI.sol\":20890:21246  function createSessionInteval(uint8 _duration, uint8 _timeUnit)internal pure returns (SessionInterval memory){\r... */\n      swap3\n      swap2\n      pop\n      pop\n      jump\t// out\n        /* \"contracts/lib/eai/EAI.sol\":21256:21495  function createSessionInterval_Copy(SessionInterval memory _session) internal pure returns(SessionInterval memory){\r... */\n    tag_79:\n        /* \"contracts/lib/eai/EAI.sol\":21347:21369  SessionInterval memory */\n      tag_174\n      tag_101\n      jump\t// in\n    tag_174:\n        /* \"contracts/lib/eai/EAI.sol\":21388:21487  SessionInterval(_session.duration, _session.timeUnit, _session.durationInSeconds, _session.endTime) */\n      mload(0x40)\n      dup1\n      0x80\n      add\n      0x40\n      mstore\n      dup1\n        /* \"contracts/lib/eai/EAI.sol\":21404:21412  _session */\n      dup4\n        /* \"contracts/lib/eai/EAI.sol\":21404:21421  _session.duration */\n      0x00\n      add\n      mload\n        /* \"contracts/lib/eai/EAI.sol\":21388:21487  SessionInterval(_session.duration, _session.timeUnit, _session.durationInSeconds, _session.endTime) */\n      0xff\n      and\n      dup2\n      mstore\n      0x20\n      add\n        /* \"contracts/lib/eai/EAI.sol\":21423:21431  _session */\n      dup4\n        /* \"contracts/lib/eai/EAI.sol\":21423:21440  _session.timeUnit */\n      0x20\n      add\n      mload\n        /* \"contracts/lib/eai/EAI.sol\":21388:21487  SessionInterval(_session.duration, _session.timeUnit, _session.durationInSeconds, _session.endTime) */\n      0xff\n      and\n      dup2\n      mstore\n      0x20\n      add\n        /* \"contracts/lib/eai/EAI.sol\":21442:21450  _session */\n      dup4\n        /* \"contracts/lib/eai/EAI.sol\":21442:21468  _session.durationInSeconds */\n      0x40\n      add\n      mload\n        /* \"contracts/lib/eai/EAI.sol\":21388:21487  SessionInterval(_session.duration, _session.timeUnit, _session.durationInSeconds, _session.endTime) */\n      0xffffffff\n      and\n      dup2\n      mstore\n      0x20\n      add\n        /* \"contracts/lib/eai/EAI.sol\":21470:21478  _session */\n      dup4\n        /* \"contracts/lib/eai/EAI.sol\":21470:21486  _session.endTime */\n      0x60\n      add\n      mload\n        /* \"contracts/lib/eai/EAI.sol\":21388:21487  SessionInterval(_session.duration, _session.timeUnit, _session.durationInSeconds, _session.endTime) */\n      0xffffffff\n      and\n      dup2\n      mstore\n      pop\n        /* \"contracts/lib/eai/EAI.sol\":21381:21487  return SessionInterval(_session.duration, _session.timeUnit, _session.durationInSeconds, _session.endTime) */\n      swap1\n      pop\n        /* \"contracts/lib/eai/EAI.sol\":21256:21495  function createSessionInterval_Copy(SessionInterval memory _session) internal pure returns(SessionInterval memory){\r... */\n      swap2\n      swap1\n      pop\n      jump\t// out\n        /* \"contracts/lib/eai/EAI.sol\":21942:22247  function startNewSessionInterval(SessionInterval storage _session, uint32 _accessDateTime)internal{       \r... */\n    tag_99:\n        /* \"contracts/lib/eai/EAI.sol\":22083:22084  0 */\n      0x00\n        /* \"contracts/lib/eai/EAI.sol\":22063:22071  _session */\n      dup3\n        /* \"contracts/lib/eai/EAI.sol\":22063:22079  _session.endTime */\n      0x00\n      add\n      0x06\n      swap1\n      sload\n      swap1\n      0x0100\n      exp\n      swap1\n      div\n      0xffffffff\n      and\n        /* \"contracts/lib/eai/EAI.sol\":22063:22084  _session.endTime == 0 */\n      0xffffffff\n      and\n      eq\n        /* \"contracts/lib/eai/EAI.sol\":22062:22126  (_session.endTime == 0) || (_accessDateTime >= _session.endTime) */\n      dup1\n      tag_177\n      jumpi\n      pop\n        /* \"contracts/lib/eai/EAI.sol\":22109:22117  _session */\n      dup2\n        /* \"contracts/lib/eai/EAI.sol\":22109:22125  _session.endTime */\n      0x00\n      add\n      0x06\n      swap1\n      sload\n      swap1\n      0x0100\n      exp\n      swap1\n      div\n      0xffffffff\n      and\n        /* \"contracts/lib/eai/EAI.sol\":22090:22125  _accessDateTime >= _session.endTime */\n      0xffffffff\n      and\n        /* \"contracts/lib/eai/EAI.sol\":22090:22105  _accessDateTime */\n      dup2\n        /* \"contracts/lib/eai/EAI.sol\":22090:22125  _accessDateTime >= _session.endTime */\n      0xffffffff\n      and\n      lt\n      iszero\n        /* \"contracts/lib/eai/EAI.sol\":22062:22126  (_session.endTime == 0) || (_accessDateTime >= _session.endTime) */\n    tag_177:\n        /* \"contracts/lib/eai/EAI.sol\":22058:22225  if ((_session.endTime == 0) || (_accessDateTime >= _session.endTime)){         \r... */\n      iszero\n      tag_178\n      jumpi\n        /* \"contracts/lib/eai/EAI.sol\":22187:22195  _session */\n      dup2\n        /* \"contracts/lib/eai/EAI.sol\":22187:22213  _session.durationInSeconds */\n      0x00\n      add\n      0x02\n      swap1\n      sload\n      swap1\n      0x0100\n      exp\n      swap1\n      div\n      0xffffffff\n      and\n        /* \"contracts/lib/eai/EAI.sol\":22169:22184  _accessDateTime */\n      dup2\n        /* \"contracts/lib/eai/EAI.sol\":22169:22213  _accessDateTime + _session.durationInSeconds */\n      tag_179\n      swap2\n      swap1\n      tag_180\n      jump\t// in\n    tag_179:\n        /* \"contracts/lib/eai/EAI.sol\":22150:22158  _session */\n      dup3\n        /* \"contracts/lib/eai/EAI.sol\":22150:22166  _session.endTime */\n      0x00\n      add\n      0x06\n        /* \"contracts/lib/eai/EAI.sol\":22150:22213  _session.endTime = _accessDateTime + _session.durationInSeconds */\n      0x0100\n      exp\n      dup2\n      sload\n      dup2\n      0xffffffff\n      mul\n      not\n      and\n      swap1\n      dup4\n      0xffffffff\n      and\n      mul\n      or\n      swap1\n      sstore\n      pop\n        /* \"contracts/lib/eai/EAI.sol\":22058:22225  if ((_session.endTime == 0) || (_accessDateTime >= _session.endTime)){         \r... */\n    tag_178:\n        /* \"contracts/lib/eai/EAI.sol\":21942:22247  function startNewSessionInterval(SessionInterval storage _session, uint32 _accessDateTime)internal{       \r... */\n      pop\n      pop\n      jump\t// out\n        /* \"contracts/lib/eai/EAI.sol\":21503:21801  function isItOpen(SessionInterval memory _session, uint32 _accessDateTime) internal  pure returns(string memory){        \r... */\n    tag_158:\n        /* \"contracts/lib/eai/EAI.sol\":21601:21614  string memory */\n      0x60\n        /* \"contracts/lib/eai/EAI.sol\":21659:21660  0 */\n      0x00\n        /* \"contracts/lib/eai/EAI.sol\":21639:21647  _session */\n      dup4\n        /* \"contracts/lib/eai/EAI.sol\":21639:21655  _session.endTime */\n      0x60\n      add\n      mload\n        /* \"contracts/lib/eai/EAI.sol\":21639:21660  _session.endTime == 0 */\n      0xffffffff\n      and\n      eq\n        /* \"contracts/lib/eai/EAI.sol\":21638:21702  (_session.endTime == 0) || (_accessDateTime >= _session.endTime) */\n      dup1\n      tag_182\n      jumpi\n      pop\n        /* \"contracts/lib/eai/EAI.sol\":21685:21693  _session */\n      dup3\n        /* \"contracts/lib/eai/EAI.sol\":21685:21701  _session.endTime */\n      0x60\n      add\n      mload\n        /* \"contracts/lib/eai/EAI.sol\":21666:21701  _accessDateTime >= _session.endTime */\n      0xffffffff\n      and\n        /* \"contracts/lib/eai/EAI.sol\":21666:21681  _accessDateTime */\n      dup3\n        /* \"contracts/lib/eai/EAI.sol\":21666:21701  _accessDateTime >= _session.endTime */\n      0xffffffff\n      and\n      lt\n      iszero\n        /* \"contracts/lib/eai/EAI.sol\":21638:21702  (_session.endTime == 0) || (_accessDateTime >= _session.endTime) */\n    tag_182:\n        /* \"contracts/lib/eai/EAI.sol\":21634:21754  if ((_session.endTime == 0) || (_accessDateTime >= _session.endTime)){         \r... */\n      iszero\n      tag_183\n      jumpi\n        /* \"contracts/lib/eai/EAI.sol\":21727:21742  return \"CLOSED\" */\n      mload(0x40)\n      dup1\n      0x40\n      add\n      0x40\n      mstore\n      dup1\n      0x06\n      dup2\n      mstore\n      0x20\n      add\n      0x434c4f5345440000000000000000000000000000000000000000000000000000\n      dup2\n      mstore\n      pop\n      swap1\n      pop\n      jump(tag_181)\n        /* \"contracts/lib/eai/EAI.sol\":21634:21754  if ((_session.endTime == 0) || (_accessDateTime >= _session.endTime)){         \r... */\n    tag_183:\n        /* \"contracts/lib/eai/EAI.sol\":21772:21785  return \"OPEN\" */\n      mload(0x40)\n      dup1\n      0x40\n      add\n      0x40\n      mstore\n      dup1\n      0x04\n      dup2\n      mstore\n      0x20\n      add\n      0x4f50454e00000000000000000000000000000000000000000000000000000000\n      dup2\n      mstore\n      pop\n      swap1\n      pop\n        /* \"contracts/lib/eai/EAI.sol\":21503:21801  function isItOpen(SessionInterval memory _session, uint32 _accessDateTime) internal  pure returns(string memory){        \r... */\n    tag_181:\n      swap3\n      swap2\n      pop\n      pop\n      jump\t// out\n        /* \"contracts/lib/eai/EAI.sol\":25785:25997  function getIntervalInSeconds(uint32 _duration, uint8 _timeUnit)internal pure returns(uint32){\r... */\n    tag_173:\n        /* \"contracts/lib/eai/EAI.sol\":25871:25877  uint32 */\n      0x00\n        /* \"contracts/lib/eai/EAI.sol\":25888:25912  uint32 timeUnitInSeconds */\n      dup1\n        /* \"contracts/lib/eai/EAI.sol\":25916:25943  getTimeInSeconds(_timeUnit) */\n      tag_185\n        /* \"contracts/lib/eai/EAI.sol\":25933:25942  _timeUnit */\n      dup4\n        /* \"contracts/lib/eai/EAI.sol\":25916:25932  getTimeInSeconds */\n      tag_186\n        /* \"contracts/lib/eai/EAI.sol\":25916:25943  getTimeInSeconds(_timeUnit) */\n      jump\t// in\n    tag_185:\n        /* \"contracts/lib/eai/EAI.sol\":25888:25943  uint32 timeUnitInSeconds =  getTimeInSeconds(_timeUnit) */\n      swap1\n      pop\n        /* \"contracts/lib/eai/EAI.sol\":25972:25989  timeUnitInSeconds */\n      dup1\n        /* \"contracts/lib/eai/EAI.sol\":25960:25969  _duration */\n      dup5\n        /* \"contracts/lib/eai/EAI.sol\":25960:25989  _duration * timeUnitInSeconds */\n      tag_187\n      swap2\n      swap1\n      tag_188\n      jump\t// in\n    tag_187:\n        /* \"contracts/lib/eai/EAI.sol\":25953:25989  return _duration * timeUnitInSeconds */\n      swap2\n      pop\n      pop\n        /* \"contracts/lib/eai/EAI.sol\":25785:25997  function getIntervalInSeconds(uint32 _duration, uint8 _timeUnit)internal pure returns(uint32){\r... */\n      swap3\n      swap2\n      pop\n      pop\n      jump\t// out\n        /* \"contracts/lib/eai/EAI.sol\":25220:25769  function getTimeInSeconds(uint8 timeUnit) private pure returns(uint32){\r... */\n    tag_186:\n        /* \"contracts/lib/eai/EAI.sol\":25283:25289  uint32 */\n      0x00\n        /* \"contracts/lib/eai/EAI.sol\":784:785  4 */\n      0x04\n        /* \"contracts/lib/eai/EAI.sol\":25363:25379  timeUnit <= WEEK */\n      0xff\n      and\n        /* \"contracts/lib/eai/EAI.sol\":25363:25371  timeUnit */\n      dup3\n        /* \"contracts/lib/eai/EAI.sol\":25363:25379  timeUnit <= WEEK */\n      0xff\n      and\n      gt\n      iszero\n        /* \"contracts/lib/eai/EAI.sol\":25355:25443  require(timeUnit <= WEEK, \"The method getTimeInSeconds doesn't work for MONTH and YEAR\") */\n      tag_190\n      jumpi\n      mload(0x40)\n      0x08c379a000000000000000000000000000000000000000000000000000000000\n      dup2\n      mstore\n      0x04\n      add\n      tag_191\n      swap1\n      tag_192\n      jump\t// in\n    tag_191:\n      mload(0x40)\n      dup1\n      swap2\n      sub\n      swap1\n      revert\n    tag_190:\n        /* \"contracts/lib/eai/EAI.sol\":666:667  0 */\n      0x00\n        /* \"contracts/lib/eai/EAI.sol\":25459:25477  timeUnit == SECOND */\n      0xff\n      and\n        /* \"contracts/lib/eai/EAI.sol\":25459:25467  timeUnit */\n      dup3\n        /* \"contracts/lib/eai/EAI.sol\":25459:25477  timeUnit == SECOND */\n      0xff\n      and\n      eq\n        /* \"contracts/lib/eai/EAI.sol\":25456:25762  if(timeUnit == SECOND){\r... */\n      iszero\n      tag_193\n      jumpi\n        /* \"contracts/lib/eai/EAI.sol\":25500:25501  1 */\n      0x01\n        /* \"contracts/lib/eai/EAI.sol\":25493:25501  return 1 */\n      swap1\n      pop\n      jump(tag_189)\n        /* \"contracts/lib/eai/EAI.sol\":25456:25762  if(timeUnit == SECOND){\r... */\n    tag_193:\n        /* \"contracts/lib/eai/EAI.sol\":698:699  1 */\n      0x01\n        /* \"contracts/lib/eai/EAI.sol\":25521:25539  timeUnit == MINUTE */\n      0xff\n      and\n        /* \"contracts/lib/eai/EAI.sol\":25521:25529  timeUnit */\n      dup3\n        /* \"contracts/lib/eai/EAI.sol\":25521:25539  timeUnit == MINUTE */\n      0xff\n      and\n      eq\n        /* \"contracts/lib/eai/EAI.sol\":25518:25762  if(timeUnit == MINUTE){\r... */\n      iszero\n      tag_195\n      jumpi\n        /* \"contracts/lib/eai/EAI.sol\":25562:25564  60 */\n      0x3c\n        /* \"contracts/lib/eai/EAI.sol\":25555:25564  return 60 */\n      swap1\n      pop\n      jump(tag_189)\n        /* \"contracts/lib/eai/EAI.sol\":25518:25762  if(timeUnit == MINUTE){\r... */\n    tag_195:\n        /* \"contracts/lib/eai/EAI.sol\":727:728  2 */\n      0x02\n        /* \"contracts/lib/eai/EAI.sol\":25584:25600  timeUnit == HOUR */\n      0xff\n      and\n        /* \"contracts/lib/eai/EAI.sol\":25584:25592  timeUnit */\n      dup3\n        /* \"contracts/lib/eai/EAI.sol\":25584:25600  timeUnit == HOUR */\n      0xff\n      and\n      eq\n        /* \"contracts/lib/eai/EAI.sol\":25581:25762  if(timeUnit == HOUR ){\r... */\n      iszero\n      tag_197\n      jumpi\n        /* \"contracts/lib/eai/EAI.sol\":25624:25629  60*60 */\n      0x0e10\n        /* \"contracts/lib/eai/EAI.sol\":25617:25629  return 60*60 */\n      swap1\n      pop\n      jump(tag_189)\n        /* \"contracts/lib/eai/EAI.sol\":25581:25762  if(timeUnit == HOUR ){\r... */\n    tag_197:\n        /* \"contracts/lib/eai/EAI.sol\":755:756  3 */\n      0x03\n        /* \"contracts/lib/eai/EAI.sol\":25649:25664  timeUnit == DAY */\n      0xff\n      and\n        /* \"contracts/lib/eai/EAI.sol\":25649:25657  timeUnit */\n      dup3\n        /* \"contracts/lib/eai/EAI.sol\":25649:25664  timeUnit == DAY */\n      0xff\n      and\n      eq\n        /* \"contracts/lib/eai/EAI.sol\":25646:25762  if(timeUnit == DAY){\r... */\n      iszero\n      tag_199\n      jumpi\n        /* \"contracts/lib/eai/EAI.sol\":25687:25695  60*60*24 */\n      0x015180\n        /* \"contracts/lib/eai/EAI.sol\":25680:25695  return 60*60*24 */\n      swap1\n      pop\n      jump(tag_189)\n        /* \"contracts/lib/eai/EAI.sol\":25646:25762  if(timeUnit == DAY){\r... */\n    tag_199:\n        /* \"contracts/lib/eai/EAI.sol\":25733:25743  60*60*24*7 */\n      0x093a80\n        /* \"contracts/lib/eai/EAI.sol\":25726:25743  return 60*60*24*7 */\n      swap1\n      pop\n        /* \"contracts/lib/eai/EAI.sol\":25220:25769  function getTimeInSeconds(uint8 timeUnit) private pure returns(uint32){\r... */\n    tag_189:\n      swap2\n      swap1\n      pop\n      jump\t// out\n    tag_84:\n      dup3\n      dup1\n      sload\n      tag_201\n      swap1\n      tag_150\n      jump\t// in\n    tag_201:\n      swap1\n      0x00\n      mstore\n      keccak256(0x00, 0x20)\n      swap1\n      0x1f\n      add\n      0x20\n      swap1\n      div\n      dup2\n      add\n      swap3\n      dup3\n      tag_203\n      jumpi\n      0x00\n      dup6\n      sstore\n      jump(tag_202)\n    tag_203:\n      dup3\n      0x1f\n      lt\n      tag_204\n      jumpi\n      dup1\n      mload\n      not(0xff)\n      and\n      dup4\n      dup1\n      add\n      or\n      dup6\n      sstore\n      jump(tag_202)\n    tag_204:\n      dup3\n      dup1\n      add\n      0x01\n      add\n      dup6\n      sstore\n      dup3\n      iszero\n      tag_202\n      jumpi\n      swap2\n      dup3\n      add\n    tag_205:\n      dup3\n      dup2\n      gt\n      iszero\n      tag_206\n      jumpi\n      dup3\n      mload\n      dup3\n      sstore\n      swap2\n      0x20\n      add\n      swap2\n      swap1\n      0x01\n      add\n      swap1\n      jump(tag_205)\n    tag_206:\n    tag_202:\n      pop\n      swap1\n      pop\n      tag_207\n      swap2\n      swap1\n      tag_208\n      jump\t// in\n    tag_207:\n      pop\n      swap1\n      jump\t// out\n    tag_101:\n      mload(0x40)\n      dup1\n      0x80\n      add\n      0x40\n      mstore\n      dup1\n      and(0xff, 0x00)\n      dup2\n      mstore\n      0x20\n      add\n      and(0xff, 0x00)\n      dup2\n      mstore\n      0x20\n      add\n      and(0xffffffff, 0x00)\n      dup2\n      mstore\n      0x20\n      add\n      and(0xffffffff, 0x00)\n      dup2\n      mstore\n      pop\n      swap1\n      jump\t// out\n    tag_121:\n      pop\n      dup1\n      sload\n      tag_209\n      swap1\n      tag_150\n      jump\t// in\n    tag_209:\n      0x00\n      dup3\n      sstore\n      dup1\n      0x1f\n      lt\n      tag_211\n      jumpi\n      pop\n      jump(tag_210)\n    tag_211:\n      0x1f\n      add\n      0x20\n      swap1\n      div\n      swap1\n      0x00\n      mstore\n      keccak256(0x00, 0x20)\n      swap1\n      dup2\n      add\n      swap1\n      tag_212\n      swap2\n      swap1\n      tag_208\n      jump\t// in\n    tag_212:\n    tag_210:\n      pop\n      jump\t// out\n    tag_208:\n    tag_213:\n      dup1\n      dup3\n      gt\n      iszero\n      tag_214\n      jumpi\n      0x00\n      dup2\n      0x00\n      swap1\n      sstore\n      pop\n      0x01\n      add\n      jump(tag_213)\n    tag_214:\n      pop\n      swap1\n      jump\t// out\n        /* \"#utility.yul\":7:419   */\n    tag_216:\n        /* \"#utility.yul\":85:90   */\n      0x00\n        /* \"#utility.yul\":110:176   */\n      tag_218\n        /* \"#utility.yul\":126:175   */\n      tag_219\n        /* \"#utility.yul\":168:174   */\n      dup5\n        /* \"#utility.yul\":126:175   */\n      tag_220\n      jump\t// in\n    tag_219:\n        /* \"#utility.yul\":110:176   */\n      tag_221\n      jump\t// in\n    tag_218:\n        /* \"#utility.yul\":101:176   */\n      swap1\n      pop\n        /* \"#utility.yul\":199:205   */\n      dup3\n        /* \"#utility.yul\":192:197   */\n      dup2\n        /* \"#utility.yul\":185:206   */\n      mstore\n        /* \"#utility.yul\":237:241   */\n      0x20\n        /* \"#utility.yul\":230:235   */\n      dup2\n        /* \"#utility.yul\":226:242   */\n      add\n        /* \"#utility.yul\":275:278   */\n      dup5\n        /* \"#utility.yul\":266:272   */\n      dup5\n        /* \"#utility.yul\":261:264   */\n      dup5\n        /* \"#utility.yul\":257:273   */\n      add\n        /* \"#utility.yul\":254:279   */\n      gt\n        /* \"#utility.yul\":251:363   */\n      iszero\n      tag_222\n      jumpi\n        /* \"#utility.yul\":282:361   */\n      tag_223\n      tag_224\n      jump\t// in\n    tag_223:\n        /* \"#utility.yul\":251:363   */\n    tag_222:\n        /* \"#utility.yul\":372:413   */\n      tag_225\n        /* \"#utility.yul\":406:412   */\n      dup5\n        /* \"#utility.yul\":401:404   */\n      dup3\n        /* \"#utility.yul\":396:399   */\n      dup6\n        /* \"#utility.yul\":372:413   */\n      tag_226\n      jump\t// in\n    tag_225:\n        /* \"#utility.yul\":91:419   */\n      pop\n        /* \"#utility.yul\":7:419   */\n      swap4\n      swap3\n      pop\n      pop\n      pop\n      jump\t// out\n        /* \"#utility.yul\":439:779   */\n    tag_227:\n        /* \"#utility.yul\":495:500   */\n      0x00\n        /* \"#utility.yul\":544:547   */\n      dup3\n        /* \"#utility.yul\":537:541   */\n      0x1f\n        /* \"#utility.yul\":529:535   */\n      dup4\n        /* \"#utility.yul\":525:542   */\n      add\n        /* \"#utility.yul\":521:548   */\n      slt\n        /* \"#utility.yul\":511:633   */\n      tag_229\n      jumpi\n        /* \"#utility.yul\":552:631   */\n      tag_230\n      tag_231\n      jump\t// in\n    tag_230:\n        /* \"#utility.yul\":511:633   */\n    tag_229:\n        /* \"#utility.yul\":669:675   */\n      dup2\n        /* \"#utility.yul\":656:676   */\n      calldataload\n        /* \"#utility.yul\":694:773   */\n      tag_232\n        /* \"#utility.yul\":769:772   */\n      dup5\n        /* \"#utility.yul\":761:767   */\n      dup3\n        /* \"#utility.yul\":754:758   */\n      0x20\n        /* \"#utility.yul\":746:752   */\n      dup7\n        /* \"#utility.yul\":742:759   */\n      add\n        /* \"#utility.yul\":694:773   */\n      tag_216\n      jump\t// in\n    tag_232:\n        /* \"#utility.yul\":685:773   */\n      swap2\n      pop\n        /* \"#utility.yul\":501:779   */\n      pop\n        /* \"#utility.yul\":439:779   */\n      swap3\n      swap2\n      pop\n      pop\n      jump\t// out\n        /* \"#utility.yul\":785:924   */\n    tag_233:\n        /* \"#utility.yul\":831:836   */\n      0x00\n        /* \"#utility.yul\":869:875   */\n      dup2\n        /* \"#utility.yul\":856:876   */\n      calldataload\n        /* \"#utility.yul\":847:876   */\n      swap1\n      pop\n        /* \"#utility.yul\":885:918   */\n      tag_235\n        /* \"#utility.yul\":912:917   */\n      dup2\n        /* \"#utility.yul\":885:918   */\n      tag_236\n      jump\t// in\n    tag_235:\n        /* \"#utility.yul\":785:924   */\n      swap3\n      swap2\n      pop\n      pop\n      jump\t// out\n        /* \"#utility.yul\":930:1067   */\n    tag_237:\n        /* \"#utility.yul\":975:980   */\n      0x00\n        /* \"#utility.yul\":1013:1019   */\n      dup2\n        /* \"#utility.yul\":1000:1020   */\n      calldataload\n        /* \"#utility.yul\":991:1020   */\n      swap1\n      pop\n        /* \"#utility.yul\":1029:1061   */\n      tag_239\n        /* \"#utility.yul\":1055:1060   */\n      dup2\n        /* \"#utility.yul\":1029:1061   */\n      tag_240\n      jump\t// in\n    tag_239:\n        /* \"#utility.yul\":930:1067   */\n      swap3\n      swap2\n      pop\n      pop\n      jump\t// out\n        /* \"#utility.yul\":1073:1582   */\n    tag_34:\n        /* \"#utility.yul\":1142:1148   */\n      0x00\n        /* \"#utility.yul\":1191:1193   */\n      0x20\n        /* \"#utility.yul\":1179:1188   */\n      dup3\n        /* \"#utility.yul\":1170:1177   */\n      dup5\n        /* \"#utility.yul\":1166:1189   */\n      sub\n        /* \"#utility.yul\":1162:1194   */\n      slt\n        /* \"#utility.yul\":1159:1278   */\n      iszero\n      tag_242\n      jumpi\n        /* \"#utility.yul\":1197:1276   */\n      tag_243\n      tag_244\n      jump\t// in\n    tag_243:\n        /* \"#utility.yul\":1159:1278   */\n    tag_242:\n        /* \"#utility.yul\":1345:1346   */\n      0x00\n        /* \"#utility.yul\":1334:1343   */\n      dup3\n        /* \"#utility.yul\":1330:1347   */\n      add\n        /* \"#utility.yul\":1317:1348   */\n      calldataload\n        /* \"#utility.yul\":1375:1393   */\n      0xffffffffffffffff\n        /* \"#utility.yul\":1367:1373   */\n      dup2\n        /* \"#utility.yul\":1364:1394   */\n      gt\n        /* \"#utility.yul\":1361:1478   */\n      iszero\n      tag_245\n      jumpi\n        /* \"#utility.yul\":1397:1476   */\n      tag_246\n      tag_247\n      jump\t// in\n    tag_246:\n        /* \"#utility.yul\":1361:1478   */\n    tag_245:\n        /* \"#utility.yul\":1502:1565   */\n      tag_248\n        /* \"#utility.yul\":1557:1564   */\n      dup5\n        /* \"#utility.yul\":1548:1554   */\n      dup3\n        /* \"#utility.yul\":1537:1546   */\n      dup6\n        /* \"#utility.yul\":1533:1555   */\n      add\n        /* \"#utility.yul\":1502:1565   */\n      tag_227\n      jump\t// in\n    tag_248:\n        /* \"#utility.yul\":1492:1565   */\n      swap2\n      pop\n        /* \"#utility.yul\":1288:1575   */\n      pop\n        /* \"#utility.yul\":1073:1582   */\n      swap3\n      swap2\n      pop\n      pop\n      jump\t// out\n        /* \"#utility.yul\":1588:2242   */\n    tag_16:\n        /* \"#utility.yul\":1666:1672   */\n      0x00\n        /* \"#utility.yul\":1674:1680   */\n      dup1\n        /* \"#utility.yul\":1723:1725   */\n      0x40\n        /* \"#utility.yul\":1711:1720   */\n      dup4\n        /* \"#utility.yul\":1702:1709   */\n      dup6\n        /* \"#utility.yul\":1698:1721   */\n      sub\n        /* \"#utility.yul\":1694:1726   */\n      slt\n        /* \"#utility.yul\":1691:1810   */\n      iszero\n      tag_250\n      jumpi\n        /* \"#utility.yul\":1729:1808   */\n      tag_251\n      tag_244\n      jump\t// in\n    tag_251:\n        /* \"#utility.yul\":1691:1810   */\n    tag_250:\n        /* \"#utility.yul\":1877:1878   */\n      0x00\n        /* \"#utility.yul\":1866:1875   */\n      dup4\n        /* \"#utility.yul\":1862:1879   */\n      add\n        /* \"#utility.yul\":1849:1880   */\n      calldataload\n        /* \"#utility.yul\":1907:1925   */\n      0xffffffffffffffff\n        /* \"#utility.yul\":1899:1905   */\n      dup2\n        /* \"#utility.yul\":1896:1926   */\n      gt\n        /* \"#utility.yul\":1893:2010   */\n      iszero\n      tag_252\n      jumpi\n        /* \"#utility.yul\":1929:2008   */\n      tag_253\n      tag_247\n      jump\t// in\n    tag_253:\n        /* \"#utility.yul\":1893:2010   */\n    tag_252:\n        /* \"#utility.yul\":2034:2097   */\n      tag_254\n        /* \"#utility.yul\":2089:2096   */\n      dup6\n        /* \"#utility.yul\":2080:2086   */\n      dup3\n        /* \"#utility.yul\":2069:2078   */\n      dup7\n        /* \"#utility.yul\":2065:2087   */\n      add\n        /* \"#utility.yul\":2034:2097   */\n      tag_227\n      jump\t// in\n    tag_254:\n        /* \"#utility.yul\":2024:2097   */\n      swap3\n      pop\n        /* \"#utility.yul\":1820:2107   */\n      pop\n        /* \"#utility.yul\":2146:2148   */\n      0x20\n        /* \"#utility.yul\":2172:2225   */\n      tag_255\n        /* \"#utility.yul\":2217:2224   */\n      dup6\n        /* \"#utility.yul\":2208:2214   */\n      dup3\n        /* \"#utility.yul\":2197:2206   */\n      dup7\n        /* \"#utility.yul\":2193:2215   */\n      add\n        /* \"#utility.yul\":2172:2225   */\n      tag_233\n      jump\t// in\n    tag_255:\n        /* \"#utility.yul\":2162:2225   */\n      swap2\n      pop\n        /* \"#utility.yul\":2117:2235   */\n      pop\n        /* \"#utility.yul\":1588:2242   */\n      swap3\n      pop\n      swap3\n      swap1\n      pop\n      jump\t// out\n        /* \"#utility.yul\":2248:2900   */\n    tag_24:\n        /* \"#utility.yul\":2325:2331   */\n      0x00\n        /* \"#utility.yul\":2333:2339   */\n      dup1\n        /* \"#utility.yul\":2382:2384   */\n      0x40\n        /* \"#utility.yul\":2370:2379   */\n      dup4\n        /* \"#utility.yul\":2361:2368   */\n      dup6\n        /* \"#utility.yul\":2357:2380   */\n      sub\n        /* \"#utility.yul\":2353:2385   */\n      slt\n        /* \"#utility.yul\":2350:2469   */\n      iszero\n      tag_257\n      jumpi\n        /* \"#utility.yul\":2388:2467   */\n      tag_258\n      tag_244\n      jump\t// in\n    tag_258:\n        /* \"#utility.yul\":2350:2469   */\n    tag_257:\n        /* \"#utility.yul\":2536:2537   */\n      0x00\n        /* \"#utility.yul\":2525:2534   */\n      dup4\n        /* \"#utility.yul\":2521:2538   */\n      add\n        /* \"#utility.yul\":2508:2539   */\n      calldataload\n        /* \"#utility.yul\":2566:2584   */\n      0xffffffffffffffff\n        /* \"#utility.yul\":2558:2564   */\n      dup2\n        /* \"#utility.yul\":2555:2585   */\n      gt\n        /* \"#utility.yul\":2552:2669   */\n      iszero\n      tag_259\n      jumpi\n        /* \"#utility.yul\":2588:2667   */\n      tag_260\n      tag_247\n      jump\t// in\n    tag_260:\n        /* \"#utility.yul\":2552:2669   */\n    tag_259:\n        /* \"#utility.yul\":2693:2756   */\n      tag_261\n        /* \"#utility.yul\":2748:2755   */\n      dup6\n        /* \"#utility.yul\":2739:2745   */\n      dup3\n        /* \"#utility.yul\":2728:2737   */\n      dup7\n        /* \"#utility.yul\":2724:2746   */\n      add\n        /* \"#utility.yul\":2693:2756   */\n      tag_227\n      jump\t// in\n    tag_261:\n        /* \"#utility.yul\":2683:2756   */\n      swap3\n      pop\n        /* \"#utility.yul\":2479:2766   */\n      pop\n        /* \"#utility.yul\":2805:2807   */\n      0x20\n        /* \"#utility.yul\":2831:2883   */\n      tag_262\n        /* \"#utility.yul\":2875:2882   */\n      dup6\n        /* \"#utility.yul\":2866:2872   */\n      dup3\n        /* \"#utility.yul\":2855:2864   */\n      dup7\n        /* \"#utility.yul\":2851:2873   */\n      add\n        /* \"#utility.yul\":2831:2883   */\n      tag_237\n      jump\t// in\n    tag_262:\n        /* \"#utility.yul\":2821:2883   */\n      swap2\n      pop\n        /* \"#utility.yul\":2776:2893   */\n      pop\n        /* \"#utility.yul\":2248:2900   */\n      swap3\n      pop\n      swap3\n      swap1\n      pop\n      jump\t// out\n        /* \"#utility.yul\":2906:3235   */\n    tag_28:\n        /* \"#utility.yul\":2965:2971   */\n      0x00\n        /* \"#utility.yul\":3014:3016   */\n      0x20\n        /* \"#utility.yul\":3002:3011   */\n      dup3\n        /* \"#utility.yul\":2993:3000   */\n      dup5\n        /* \"#utility.yul\":2989:3012   */\n      sub\n        /* \"#utility.yul\":2985:3017   */\n      slt\n        /* \"#utility.yul\":2982:3101   */\n      iszero\n      tag_264\n      jumpi\n        /* \"#utility.yul\":3020:3099   */\n      tag_265\n      tag_244\n      jump\t// in\n    tag_265:\n        /* \"#utility.yul\":2982:3101   */\n    tag_264:\n        /* \"#utility.yul\":3140:3141   */\n      0x00\n        /* \"#utility.yul\":3165:3218   */\n      tag_266\n        /* \"#utility.yul\":3210:3217   */\n      dup5\n        /* \"#utility.yul\":3201:3207   */\n      dup3\n        /* \"#utility.yul\":3190:3199   */\n      dup6\n        /* \"#utility.yul\":3186:3208   */\n      add\n        /* \"#utility.yul\":3165:3218   */\n      tag_233\n      jump\t// in\n    tag_266:\n        /* \"#utility.yul\":3155:3218   */\n      swap2\n      pop\n        /* \"#utility.yul\":3111:3228   */\n      pop\n        /* \"#utility.yul\":2906:3235   */\n      swap3\n      swap2\n      pop\n      pop\n      jump\t// out\n        /* \"#utility.yul\":3241:3713   */\n    tag_53:\n        /* \"#utility.yul\":3308:3314   */\n      0x00\n        /* \"#utility.yul\":3316:3322   */\n      dup1\n        /* \"#utility.yul\":3365:3367   */\n      0x40\n        /* \"#utility.yul\":3353:3362   */\n      dup4\n        /* \"#utility.yul\":3344:3351   */\n      dup6\n        /* \"#utility.yul\":3340:3363   */\n      sub\n        /* \"#utility.yul\":3336:3368   */\n      slt\n        /* \"#utility.yul\":3333:3452   */\n      iszero\n      tag_268\n      jumpi\n        /* \"#utility.yul\":3371:3450   */\n      tag_269\n      tag_244\n      jump\t// in\n    tag_269:\n        /* \"#utility.yul\":3333:3452   */\n    tag_268:\n        /* \"#utility.yul\":3491:3492   */\n      0x00\n        /* \"#utility.yul\":3516:3569   */\n      tag_270\n        /* \"#utility.yul\":3561:3568   */\n      dup6\n        /* \"#utility.yul\":3552:3558   */\n      dup3\n        /* \"#utility.yul\":3541:3550   */\n      dup7\n        /* \"#utility.yul\":3537:3559   */\n      add\n        /* \"#utility.yul\":3516:3569   */\n      tag_233\n      jump\t// in\n    tag_270:\n        /* \"#utility.yul\":3506:3569   */\n      swap3\n      pop\n        /* \"#utility.yul\":3462:3579   */\n      pop\n        /* \"#utility.yul\":3618:3620   */\n      0x20\n        /* \"#utility.yul\":3644:3696   */\n      tag_271\n        /* \"#utility.yul\":3688:3695   */\n      dup6\n        /* \"#utility.yul\":3679:3685   */\n      dup3\n        /* \"#utility.yul\":3668:3677   */\n      dup7\n        /* \"#utility.yul\":3664:3686   */\n      add\n        /* \"#utility.yul\":3644:3696   */\n      tag_237\n      jump\t// in\n    tag_271:\n        /* \"#utility.yul\":3634:3696   */\n      swap2\n      pop\n        /* \"#utility.yul\":3589:3706   */\n      pop\n        /* \"#utility.yul\":3241:3713   */\n      swap3\n      pop\n      swap3\n      swap1\n      pop\n      jump\t// out\n        /* \"#utility.yul\":3719:3915   */\n    tag_272:\n        /* \"#utility.yul\":3808:3818   */\n      0x00\n        /* \"#utility.yul\":3843:3909   */\n      tag_274\n        /* \"#utility.yul\":3905:3908   */\n      dup4\n        /* \"#utility.yul\":3897:3903   */\n      dup4\n        /* \"#utility.yul\":3843:3909   */\n      tag_275\n      jump\t// in\n    tag_274:\n        /* \"#utility.yul\":3829:3909   */\n      swap1\n      pop\n        /* \"#utility.yul\":3719:3915   */\n      swap3\n      swap2\n      pop\n      pop\n      jump\t// out\n        /* \"#utility.yul\":3921:4232   */\n    tag_276:\n        /* \"#utility.yul\":4056:4066   */\n      0x00\n        /* \"#utility.yul\":4077:4189   */\n      tag_278\n        /* \"#utility.yul\":4185:4188   */\n      dup4\n        /* \"#utility.yul\":4177:4183   */\n      dup4\n        /* \"#utility.yul\":4077:4189   */\n      tag_279\n      jump\t// in\n    tag_278:\n        /* \"#utility.yul\":4221:4225   */\n      0x80\n        /* \"#utility.yul\":4216:4219   */\n      dup4\n        /* \"#utility.yul\":4212:4226   */\n      add\n        /* \"#utility.yul\":4198:4226   */\n      swap1\n      pop\n        /* \"#utility.yul\":3921:4232   */\n      swap3\n      swap2\n      pop\n      pop\n      jump\t// out\n        /* \"#utility.yul\":4266:5257   */\n    tag_280:\n        /* \"#utility.yul\":4405:4408   */\n      0x00\n        /* \"#utility.yul\":4434:4498   */\n      tag_282\n        /* \"#utility.yul\":4492:4497   */\n      dup3\n        /* \"#utility.yul\":4434:4498   */\n      tag_283\n      jump\t// in\n    tag_282:\n        /* \"#utility.yul\":4514:4610   */\n      tag_284\n        /* \"#utility.yul\":4603:4609   */\n      dup2\n        /* \"#utility.yul\":4598:4601   */\n      dup6\n        /* \"#utility.yul\":4514:4610   */\n      tag_285\n      jump\t// in\n    tag_284:\n        /* \"#utility.yul\":4507:4610   */\n      swap4\n      pop\n        /* \"#utility.yul\":4636:4639   */\n      dup4\n        /* \"#utility.yul\":4681:4685   */\n      0x20\n        /* \"#utility.yul\":4673:4679   */\n      dup3\n        /* \"#utility.yul\":4669:4686   */\n      mul\n        /* \"#utility.yul\":4664:4667   */\n      dup6\n        /* \"#utility.yul\":4660:4687   */\n      add\n        /* \"#utility.yul\":4711:4777   */\n      tag_286\n        /* \"#utility.yul\":4771:4776   */\n      dup6\n        /* \"#utility.yul\":4711:4777   */\n      tag_287\n      jump\t// in\n    tag_286:\n        /* \"#utility.yul\":4800:4807   */\n      dup1\n        /* \"#utility.yul\":4831:4832   */\n      0x00\n        /* \"#utility.yul\":4816:5212   */\n    tag_288:\n        /* \"#utility.yul\":4841:4847   */\n      dup6\n        /* \"#utility.yul\":4838:4839   */\n      dup2\n        /* \"#utility.yul\":4835:4848   */\n      lt\n        /* \"#utility.yul\":4816:5212   */\n      iszero\n      tag_290\n      jumpi\n        /* \"#utility.yul\":4912:4921   */\n      dup5\n        /* \"#utility.yul\":4906:4910   */\n      dup5\n        /* \"#utility.yul\":4902:4922   */\n      sub\n        /* \"#utility.yul\":4897:4900   */\n      dup10\n        /* \"#utility.yul\":4890:4923   */\n      mstore\n        /* \"#utility.yul\":4963:4969   */\n      dup2\n        /* \"#utility.yul\":4957:4970   */\n      mload\n        /* \"#utility.yul\":4991:5075   */\n      tag_291\n        /* \"#utility.yul\":5070:5074   */\n      dup6\n        /* \"#utility.yul\":5055:5068   */\n      dup3\n        /* \"#utility.yul\":4991:5075   */\n      tag_272\n      jump\t// in\n    tag_291:\n        /* \"#utility.yul\":4983:5075   */\n      swap5\n      pop\n        /* \"#utility.yul\":5098:5168   */\n      tag_292\n        /* \"#utility.yul\":5161:5167   */\n      dup4\n        /* \"#utility.yul\":5098:5168   */\n      tag_293\n      jump\t// in\n    tag_292:\n        /* \"#utility.yul\":5088:5168   */\n      swap3\n      pop\n        /* \"#utility.yul\":5197:5201   */\n      0x20\n        /* \"#utility.yul\":5192:5195   */\n      dup11\n        /* \"#utility.yul\":5188:5202   */\n      add\n        /* \"#utility.yul\":5181:5202   */\n      swap10\n      pop\n        /* \"#utility.yul\":4876:5212   */\n      pop\n        /* \"#utility.yul\":4863:4864   */\n      0x01\n        /* \"#utility.yul\":4860:4861   */\n      dup2\n        /* \"#utility.yul\":4856:4865   */\n      add\n        /* \"#utility.yul\":4851:4865   */\n      swap1\n      pop\n        /* \"#utility.yul\":4816:5212   */\n      jump(tag_288)\n    tag_290:\n        /* \"#utility.yul\":4820:4834   */\n      pop\n        /* \"#utility.yul\":5228:5232   */\n      dup3\n        /* \"#utility.yul\":5221:5232   */\n      swap8\n      pop\n        /* \"#utility.yul\":5248:5251   */\n      dup8\n        /* \"#utility.yul\":5241:5251   */\n      swap6\n      pop\n        /* \"#utility.yul\":4410:5257   */\n      pop\n      pop\n      pop\n      pop\n      pop\n        /* \"#utility.yul\":4266:5257   */\n      swap3\n      swap2\n      pop\n      pop\n      jump\t// out\n        /* \"#utility.yul\":5331:6327   */\n    tag_294:\n        /* \"#utility.yul\":5516:5519   */\n      0x00\n        /* \"#utility.yul\":5545:5632   */\n      tag_296\n        /* \"#utility.yul\":5626:5631   */\n      dup3\n        /* \"#utility.yul\":5545:5632   */\n      tag_297\n      jump\t// in\n    tag_296:\n        /* \"#utility.yul\":5648:5767   */\n      tag_298\n        /* \"#utility.yul\":5760:5766   */\n      dup2\n        /* \"#utility.yul\":5755:5758   */\n      dup6\n        /* \"#utility.yul\":5648:5767   */\n      tag_299\n      jump\t// in\n    tag_298:\n        /* \"#utility.yul\":5641:5767   */\n      swap4\n      pop\n        /* \"#utility.yul\":5791:5880   */\n      tag_300\n        /* \"#utility.yul\":5874:5879   */\n      dup4\n        /* \"#utility.yul\":5791:5880   */\n      tag_301\n      jump\t// in\n    tag_300:\n        /* \"#utility.yul\":5903:5910   */\n      dup1\n        /* \"#utility.yul\":5934:5935   */\n      0x00\n        /* \"#utility.yul\":5919:6302   */\n    tag_302:\n        /* \"#utility.yul\":5944:5950   */\n      dup4\n        /* \"#utility.yul\":5941:5942   */\n      dup2\n        /* \"#utility.yul\":5938:5951   */\n      lt\n        /* \"#utility.yul\":5919:6302   */\n      iszero\n      tag_304\n      jumpi\n        /* \"#utility.yul\":6020:6026   */\n      dup2\n        /* \"#utility.yul\":6014:6027   */\n      mload\n        /* \"#utility.yul\":6047:6176   */\n      tag_305\n        /* \"#utility.yul\":6172:6175   */\n      dup9\n        /* \"#utility.yul\":6157:6170   */\n      dup3\n        /* \"#utility.yul\":6047:6176   */\n      tag_276\n      jump\t// in\n    tag_305:\n        /* \"#utility.yul\":6040:6176   */\n      swap8\n      pop\n        /* \"#utility.yul\":6199:6292   */\n      tag_306\n        /* \"#utility.yul\":6285:6291   */\n      dup4\n        /* \"#utility.yul\":6199:6292   */\n      tag_307\n      jump\t// in\n    tag_306:\n        /* \"#utility.yul\":6189:6292   */\n      swap3\n      pop\n        /* \"#utility.yul\":5979:6302   */\n      pop\n        /* \"#utility.yul\":5966:5967   */\n      0x01\n        /* \"#utility.yul\":5963:5964   */\n      dup2\n        /* \"#utility.yul\":5959:5968   */\n      add\n        /* \"#utility.yul\":5954:5968   */\n      swap1\n      pop\n        /* \"#utility.yul\":5919:6302   */\n      jump(tag_302)\n    tag_304:\n        /* \"#utility.yul\":5923:5937   */\n      pop\n        /* \"#utility.yul\":6318:6321   */\n      dup6\n        /* \"#utility.yul\":6311:6321   */\n      swap4\n      pop\n        /* \"#utility.yul\":5521:6327   */\n      pop\n      pop\n      pop\n        /* \"#utility.yul\":5331:6327   */\n      swap3\n      swap2\n      pop\n      pop\n      jump\t// out\n        /* \"#utility.yul\":6333:6677   */\n    tag_275:\n        /* \"#utility.yul\":6411:6414   */\n      0x00\n        /* \"#utility.yul\":6439:6478   */\n      tag_309\n        /* \"#utility.yul\":6472:6477   */\n      dup3\n        /* \"#utility.yul\":6439:6478   */\n      tag_310\n      jump\t// in\n    tag_309:\n        /* \"#utility.yul\":6494:6555   */\n      tag_311\n        /* \"#utility.yul\":6548:6554   */\n      dup2\n        /* \"#utility.yul\":6543:6546   */\n      dup6\n        /* \"#utility.yul\":6494:6555   */\n      tag_312\n      jump\t// in\n    tag_311:\n        /* \"#utility.yul\":6487:6555   */\n      swap4\n      pop\n        /* \"#utility.yul\":6564:6616   */\n      tag_313\n        /* \"#utility.yul\":6609:6615   */\n      dup2\n        /* \"#utility.yul\":6604:6607   */\n      dup6\n        /* \"#utility.yul\":6597:6601   */\n      0x20\n        /* \"#utility.yul\":6590:6595   */\n      dup7\n        /* \"#utility.yul\":6586:6602   */\n      add\n        /* \"#utility.yul\":6564:6616   */\n      tag_314\n      jump\t// in\n    tag_313:\n        /* \"#utility.yul\":6641:6670   */\n      tag_315\n        /* \"#utility.yul\":6663:6669   */\n      dup2\n        /* \"#utility.yul\":6641:6670   */\n      tag_316\n      jump\t// in\n    tag_315:\n        /* \"#utility.yul\":6636:6639   */\n      dup5\n        /* \"#utility.yul\":6632:6671   */\n      add\n        /* \"#utility.yul\":6625:6671   */\n      swap2\n      pop\n        /* \"#utility.yul\":6415:6677   */\n      pop\n        /* \"#utility.yul\":6333:6677   */\n      swap3\n      swap2\n      pop\n      pop\n      jump\t// out\n        /* \"#utility.yul\":6683:7047   */\n    tag_317:\n        /* \"#utility.yul\":6771:6774   */\n      0x00\n        /* \"#utility.yul\":6799:6838   */\n      tag_319\n        /* \"#utility.yul\":6832:6837   */\n      dup3\n        /* \"#utility.yul\":6799:6838   */\n      tag_310\n      jump\t// in\n    tag_319:\n        /* \"#utility.yul\":6854:6925   */\n      tag_320\n        /* \"#utility.yul\":6918:6924   */\n      dup2\n        /* \"#utility.yul\":6913:6916   */\n      dup6\n        /* \"#utility.yul\":6854:6925   */\n      tag_321\n      jump\t// in\n    tag_320:\n        /* \"#utility.yul\":6847:6925   */\n      swap4\n      pop\n        /* \"#utility.yul\":6934:6986   */\n      tag_322\n        /* \"#utility.yul\":6979:6985   */\n      dup2\n        /* \"#utility.yul\":6974:6977   */\n      dup6\n        /* \"#utility.yul\":6967:6971   */\n      0x20\n        /* \"#utility.yul\":6960:6965   */\n      dup7\n        /* \"#utility.yul\":6956:6972   */\n      add\n        /* \"#utility.yul\":6934:6986   */\n      tag_314\n      jump\t// in\n    tag_322:\n        /* \"#utility.yul\":7011:7040   */\n      tag_323\n        /* \"#utility.yul\":7033:7039   */\n      dup2\n        /* \"#utility.yul\":7011:7040   */\n      tag_316\n      jump\t// in\n    tag_323:\n        /* \"#utility.yul\":7006:7009   */\n      dup5\n        /* \"#utility.yul\":7002:7041   */\n      add\n        /* \"#utility.yul\":6995:7041   */\n      swap2\n      pop\n        /* \"#utility.yul\":6775:7047   */\n      pop\n        /* \"#utility.yul\":6683:7047   */\n      swap3\n      swap2\n      pop\n      pop\n      jump\t// out\n        /* \"#utility.yul\":7053:7430   */\n    tag_324:\n        /* \"#utility.yul\":7159:7162   */\n      0x00\n        /* \"#utility.yul\":7187:7226   */\n      tag_326\n        /* \"#utility.yul\":7220:7225   */\n      dup3\n        /* \"#utility.yul\":7187:7226   */\n      tag_310\n      jump\t// in\n    tag_326:\n        /* \"#utility.yul\":7242:7331   */\n      tag_327\n        /* \"#utility.yul\":7324:7330   */\n      dup2\n        /* \"#utility.yul\":7319:7322   */\n      dup6\n        /* \"#utility.yul\":7242:7331   */\n      tag_328\n      jump\t// in\n    tag_327:\n        /* \"#utility.yul\":7235:7331   */\n      swap4\n      pop\n        /* \"#utility.yul\":7340:7392   */\n      tag_329\n        /* \"#utility.yul\":7385:7391   */\n      dup2\n        /* \"#utility.yul\":7380:7383   */\n      dup6\n        /* \"#utility.yul\":7373:7377   */\n      0x20\n        /* \"#utility.yul\":7366:7371   */\n      dup7\n        /* \"#utility.yul\":7362:7378   */\n      add\n        /* \"#utility.yul\":7340:7392   */\n      tag_314\n      jump\t// in\n    tag_329:\n        /* \"#utility.yul\":7417:7423   */\n      dup1\n        /* \"#utility.yul\":7412:7415   */\n      dup5\n        /* \"#utility.yul\":7408:7424   */\n      add\n        /* \"#utility.yul\":7401:7424   */\n      swap2\n      pop\n        /* \"#utility.yul\":7163:7430   */\n      pop\n        /* \"#utility.yul\":7053:7430   */\n      swap3\n      swap2\n      pop\n      pop\n      jump\t// out\n        /* \"#utility.yul\":7460:8262   */\n    tag_330:\n        /* \"#utility.yul\":7545:7548   */\n      0x00\n        /* \"#utility.yul\":7582:7587   */\n      dup2\n        /* \"#utility.yul\":7576:7588   */\n      sload\n        /* \"#utility.yul\":7611:7647   */\n      tag_332\n        /* \"#utility.yul\":7637:7646   */\n      dup2\n        /* \"#utility.yul\":7611:7647   */\n      tag_150\n      jump\t// in\n    tag_332:\n        /* \"#utility.yul\":7663:7734   */\n      tag_333\n        /* \"#utility.yul\":7727:7733   */\n      dup2\n        /* \"#utility.yul\":7722:7725   */\n      dup7\n        /* \"#utility.yul\":7663:7734   */\n      tag_321\n      jump\t// in\n    tag_333:\n        /* \"#utility.yul\":7656:7734   */\n      swap5\n      pop\n        /* \"#utility.yul\":7765:7766   */\n      0x01\n        /* \"#utility.yul\":7754:7763   */\n      dup3\n        /* \"#utility.yul\":7750:7767   */\n      and\n        /* \"#utility.yul\":7781:7782   */\n      0x00\n        /* \"#utility.yul\":7776:7911   */\n      dup2\n      eq\n      tag_335\n      jumpi\n        /* \"#utility.yul\":7925:7926   */\n      0x01\n        /* \"#utility.yul\":7920:8256   */\n      dup2\n      eq\n      tag_336\n      jumpi\n        /* \"#utility.yul\":7743:8256   */\n      jump(tag_334)\n        /* \"#utility.yul\":7776:7911   */\n    tag_335:\n        /* \"#utility.yul\":7860:7864   */\n      0xff\n        /* \"#utility.yul\":7856:7865   */\n      not\n        /* \"#utility.yul\":7845:7854   */\n      dup4\n        /* \"#utility.yul\":7841:7866   */\n      and\n        /* \"#utility.yul\":7836:7839   */\n      dup7\n        /* \"#utility.yul\":7829:7867   */\n      mstore\n        /* \"#utility.yul\":7896:7900   */\n      0x20\n        /* \"#utility.yul\":7891:7894   */\n      dup7\n        /* \"#utility.yul\":7887:7901   */\n      add\n        /* \"#utility.yul\":7880:7901   */\n      swap4\n      pop\n        /* \"#utility.yul\":7776:7911   */\n      jump(tag_334)\n        /* \"#utility.yul\":7920:8256   */\n    tag_336:\n        /* \"#utility.yul\":7987:8025   */\n      tag_337\n        /* \"#utility.yul\":8019:8024   */\n      dup6\n        /* \"#utility.yul\":7987:8025   */\n      tag_338\n      jump\t// in\n    tag_337:\n        /* \"#utility.yul\":8047:8048   */\n      0x00\n        /* \"#utility.yul\":8061:8215   */\n    tag_339:\n        /* \"#utility.yul\":8075:8081   */\n      dup4\n        /* \"#utility.yul\":8072:8073   */\n      dup2\n        /* \"#utility.yul\":8069:8082   */\n      lt\n        /* \"#utility.yul\":8061:8215   */\n      iszero\n      tag_341\n      jumpi\n        /* \"#utility.yul\":8149:8156   */\n      dup2\n        /* \"#utility.yul\":8143:8157   */\n      sload\n        /* \"#utility.yul\":8139:8140   */\n      dup2\n        /* \"#utility.yul\":8134:8137   */\n      dup10\n        /* \"#utility.yul\":8130:8141   */\n      add\n        /* \"#utility.yul\":8123:8158   */\n      mstore\n        /* \"#utility.yul\":8199:8200   */\n      0x01\n        /* \"#utility.yul\":8190:8197   */\n      dup3\n        /* \"#utility.yul\":8186:8201   */\n      add\n        /* \"#utility.yul\":8175:8201   */\n      swap2\n      pop\n        /* \"#utility.yul\":8097:8101   */\n      0x20\n        /* \"#utility.yul\":8094:8095   */\n      dup2\n        /* \"#utility.yul\":8090:8102   */\n      add\n        /* \"#utility.yul\":8085:8102   */\n      swap1\n      pop\n        /* \"#utility.yul\":8061:8215   */\n      jump(tag_339)\n    tag_341:\n        /* \"#utility.yul\":8244:8245   */\n      dup1\n        /* \"#utility.yul\":8239:8242   */\n      dup9\n        /* \"#utility.yul\":8235:8246   */\n      add\n        /* \"#utility.yul\":8228:8246   */\n      swap6\n      pop\n        /* \"#utility.yul\":7927:8256   */\n      pop\n      pop\n        /* \"#utility.yul\":7743:8256   */\n    tag_334:\n      pop\n        /* \"#utility.yul\":7549:8262   */\n      pop\n      pop\n        /* \"#utility.yul\":7460:8262   */\n      swap3\n      swap2\n      pop\n      pop\n      jump\t// out\n        /* \"#utility.yul\":8292:9137   */\n    tag_342:\n        /* \"#utility.yul\":8395:8398   */\n      0x00\n        /* \"#utility.yul\":8432:8437   */\n      dup2\n        /* \"#utility.yul\":8426:8438   */\n      sload\n        /* \"#utility.yul\":8461:8497   */\n      tag_344\n        /* \"#utility.yul\":8487:8496   */\n      dup2\n        /* \"#utility.yul\":8461:8497   */\n      tag_150\n      jump\t// in\n    tag_344:\n        /* \"#utility.yul\":8513:8602   */\n      tag_345\n        /* \"#utility.yul\":8595:8601   */\n      dup2\n        /* \"#utility.yul\":8590:8593   */\n      dup7\n        /* \"#utility.yul\":8513:8602   */\n      tag_328\n      jump\t// in\n    tag_345:\n        /* \"#utility.yul\":8506:8602   */\n      swap5\n      pop\n        /* \"#utility.yul\":8633:8634   */\n      0x01\n        /* \"#utility.yul\":8622:8631   */\n      dup3\n        /* \"#utility.yul\":8618:8635   */\n      and\n        /* \"#utility.yul\":8649:8650   */\n      0x00\n        /* \"#utility.yul\":8644:8781   */\n      dup2\n      eq\n      tag_347\n      jumpi\n        /* \"#utility.yul\":8795:8796   */\n      0x01\n        /* \"#utility.yul\":8790:9131   */\n      dup2\n      eq\n      tag_348\n      jumpi\n        /* \"#utility.yul\":8611:9131   */\n      jump(tag_346)\n        /* \"#utility.yul\":8644:8781   */\n    tag_347:\n        /* \"#utility.yul\":8728:8732   */\n      0xff\n        /* \"#utility.yul\":8724:8733   */\n      not\n        /* \"#utility.yul\":8713:8722   */\n      dup4\n        /* \"#utility.yul\":8709:8734   */\n      and\n        /* \"#utility.yul\":8704:8707   */\n      dup7\n        /* \"#utility.yul\":8697:8735   */\n      mstore\n        /* \"#utility.yul\":8764:8770   */\n      dup2\n        /* \"#utility.yul\":8759:8762   */\n      dup7\n        /* \"#utility.yul\":8755:8771   */\n      add\n        /* \"#utility.yul\":8748:8771   */\n      swap4\n      pop\n        /* \"#utility.yul\":8644:8781   */\n      jump(tag_346)\n        /* \"#utility.yul\":8790:9131   */\n    tag_348:\n        /* \"#utility.yul\":8857:8895   */\n      tag_349\n        /* \"#utility.yul\":8889:8894   */\n      dup6\n        /* \"#utility.yul\":8857:8895   */\n      tag_338\n      jump\t// in\n    tag_349:\n        /* \"#utility.yul\":8917:8918   */\n      0x00\n        /* \"#utility.yul\":8931:9085   */\n    tag_350:\n        /* \"#utility.yul\":8945:8951   */\n      dup4\n        /* \"#utility.yul\":8942:8943   */\n      dup2\n        /* \"#utility.yul\":8939:8952   */\n      lt\n        /* \"#utility.yul\":8931:9085   */\n      iszero\n      tag_352\n      jumpi\n        /* \"#utility.yul\":9019:9026   */\n      dup2\n        /* \"#utility.yul\":9013:9027   */\n      sload\n        /* \"#utility.yul\":9009:9010   */\n      dup2\n        /* \"#utility.yul\":9004:9007   */\n      dup10\n        /* \"#utility.yul\":9000:9011   */\n      add\n        /* \"#utility.yul\":8993:9028   */\n      mstore\n        /* \"#utility.yul\":9069:9070   */\n      0x01\n        /* \"#utility.yul\":9060:9067   */\n      dup3\n        /* \"#utility.yul\":9056:9071   */\n      add\n        /* \"#utility.yul\":9045:9071   */\n      swap2\n      pop\n        /* \"#utility.yul\":8967:8971   */\n      0x20\n        /* \"#utility.yul\":8964:8965   */\n      dup2\n        /* \"#utility.yul\":8960:8972   */\n      add\n        /* \"#utility.yul\":8955:8972   */\n      swap1\n      pop\n        /* \"#utility.yul\":8931:9085   */\n      jump(tag_350)\n    tag_352:\n        /* \"#utility.yul\":9114:9120   */\n      dup4\n        /* \"#utility.yul\":9109:9112   */\n      dup9\n        /* \"#utility.yul\":9105:9121   */\n      add\n        /* \"#utility.yul\":9098:9121   */\n      swap6\n      pop\n        /* \"#utility.yul\":8797:9131   */\n      pop\n      pop\n        /* \"#utility.yul\":8611:9131   */\n    tag_346:\n      pop\n        /* \"#utility.yul\":8399:9137   */\n      pop\n      pop\n        /* \"#utility.yul\":8292:9137   */\n      swap3\n      swap2\n      pop\n      pop\n      jump\t// out\n        /* \"#utility.yul\":9143:9509   */\n    tag_353:\n        /* \"#utility.yul\":9285:9288   */\n      0x00\n        /* \"#utility.yul\":9306:9373   */\n      tag_355\n        /* \"#utility.yul\":9370:9372   */\n      0x3b\n        /* \"#utility.yul\":9365:9368   */\n      dup4\n        /* \"#utility.yul\":9306:9373   */\n      tag_321\n      jump\t// in\n    tag_355:\n        /* \"#utility.yul\":9299:9373   */\n      swap2\n      pop\n        /* \"#utility.yul\":9382:9475   */\n      tag_356\n        /* \"#utility.yul\":9471:9474   */\n      dup3\n        /* \"#utility.yul\":9382:9475   */\n      tag_357\n      jump\t// in\n    tag_356:\n        /* \"#utility.yul\":9500:9502   */\n      0x40\n        /* \"#utility.yul\":9495:9498   */\n      dup3\n        /* \"#utility.yul\":9491:9503   */\n      add\n        /* \"#utility.yul\":9484:9503   */\n      swap1\n      pop\n        /* \"#utility.yul\":9143:9509   */\n      swap2\n      swap1\n      pop\n      jump\t// out\n        /* \"#utility.yul\":9579:10452   */\n    tag_279:\n        /* \"#utility.yul\":9732:9736   */\n      0x80\n        /* \"#utility.yul\":9727:9730   */\n      dup3\n        /* \"#utility.yul\":9723:9737   */\n      add\n        /* \"#utility.yul\":9823:9827   */\n      0x00\n        /* \"#utility.yul\":9816:9821   */\n      dup3\n        /* \"#utility.yul\":9812:9828   */\n      add\n        /* \"#utility.yul\":9806:9829   */\n      mload\n        /* \"#utility.yul\":9842:9901   */\n      tag_359\n        /* \"#utility.yul\":9895:9899   */\n      0x00\n        /* \"#utility.yul\":9890:9893   */\n      dup6\n        /* \"#utility.yul\":9886:9900   */\n      add\n        /* \"#utility.yul\":9872:9884   */\n      dup3\n        /* \"#utility.yul\":9842:9901   */\n      tag_360\n      jump\t// in\n    tag_359:\n        /* \"#utility.yul\":9747:9911   */\n      pop\n        /* \"#utility.yul\":9997:10001   */\n      0x20\n        /* \"#utility.yul\":9990:9995   */\n      dup3\n        /* \"#utility.yul\":9986:10002   */\n      add\n        /* \"#utility.yul\":9980:10003   */\n      mload\n        /* \"#utility.yul\":10016:10075   */\n      tag_361\n        /* \"#utility.yul\":10069:10073   */\n      0x20\n        /* \"#utility.yul\":10064:10067   */\n      dup6\n        /* \"#utility.yul\":10060:10074   */\n      add\n        /* \"#utility.yul\":10046:10058   */\n      dup3\n        /* \"#utility.yul\":10016:10075   */\n      tag_360\n      jump\t// in\n    tag_361:\n        /* \"#utility.yul\":9921:10085   */\n      pop\n        /* \"#utility.yul\":10180:10184   */\n      0x40\n        /* \"#utility.yul\":10173:10178   */\n      dup3\n        /* \"#utility.yul\":10169:10185   */\n      add\n        /* \"#utility.yul\":10163:10186   */\n      mload\n        /* \"#utility.yul\":10199:10260   */\n      tag_362\n        /* \"#utility.yul\":10254:10258   */\n      0x40\n        /* \"#utility.yul\":10249:10252   */\n      dup6\n        /* \"#utility.yul\":10245:10259   */\n      add\n        /* \"#utility.yul\":10231:10243   */\n      dup3\n        /* \"#utility.yul\":10199:10260   */\n      tag_363\n      jump\t// in\n    tag_362:\n        /* \"#utility.yul\":10095:10270   */\n      pop\n        /* \"#utility.yul\":10355:10359   */\n      0x60\n        /* \"#utility.yul\":10348:10353   */\n      dup3\n        /* \"#utility.yul\":10344:10360   */\n      add\n        /* \"#utility.yul\":10338:10361   */\n      mload\n        /* \"#utility.yul\":10374:10435   */\n      tag_364\n        /* \"#utility.yul\":10429:10433   */\n      0x60\n        /* \"#utility.yul\":10424:10427   */\n      dup6\n        /* \"#utility.yul\":10420:10434   */\n      add\n        /* \"#utility.yul\":10406:10418   */\n      dup3\n        /* \"#utility.yul\":10374:10435   */\n      tag_363\n      jump\t// in\n    tag_364:\n        /* \"#utility.yul\":10280:10445   */\n      pop\n        /* \"#utility.yul\":9701:10452   */\n      pop\n        /* \"#utility.yul\":9579:10452   */\n      pop\n      pop\n      jump\t// out\n        /* \"#utility.yul\":10522:11405   */\n    tag_365:\n        /* \"#utility.yul\":10685:10689   */\n      0x80\n        /* \"#utility.yul\":10680:10683   */\n      dup3\n        /* \"#utility.yul\":10676:10690   */\n      add\n        /* \"#utility.yul\":10776:10780   */\n      0x00\n        /* \"#utility.yul\":10769:10774   */\n      dup3\n        /* \"#utility.yul\":10765:10781   */\n      add\n        /* \"#utility.yul\":10759:10782   */\n      mload\n        /* \"#utility.yul\":10795:10854   */\n      tag_367\n        /* \"#utility.yul\":10848:10852   */\n      0x00\n        /* \"#utility.yul\":10843:10846   */\n      dup6\n        /* \"#utility.yul\":10839:10853   */\n      add\n        /* \"#utility.yul\":10825:10837   */\n      dup3\n        /* \"#utility.yul\":10795:10854   */\n      tag_360\n      jump\t// in\n    tag_367:\n        /* \"#utility.yul\":10700:10864   */\n      pop\n        /* \"#utility.yul\":10950:10954   */\n      0x20\n        /* \"#utility.yul\":10943:10948   */\n      dup3\n        /* \"#utility.yul\":10939:10955   */\n      add\n        /* \"#utility.yul\":10933:10956   */\n      mload\n        /* \"#utility.yul\":10969:11028   */\n      tag_368\n        /* \"#utility.yul\":11022:11026   */\n      0x20\n        /* \"#utility.yul\":11017:11020   */\n      dup6\n        /* \"#utility.yul\":11013:11027   */\n      add\n        /* \"#utility.yul\":10999:11011   */\n      dup3\n        /* \"#utility.yul\":10969:11028   */\n      tag_360\n      jump\t// in\n    tag_368:\n        /* \"#utility.yul\":10874:11038   */\n      pop\n        /* \"#utility.yul\":11133:11137   */\n      0x40\n        /* \"#utility.yul\":11126:11131   */\n      dup3\n        /* \"#utility.yul\":11122:11138   */\n      add\n        /* \"#utility.yul\":11116:11139   */\n      mload\n        /* \"#utility.yul\":11152:11213   */\n      tag_369\n        /* \"#utility.yul\":11207:11211   */\n      0x40\n        /* \"#utility.yul\":11202:11205   */\n      dup6\n        /* \"#utility.yul\":11198:11212   */\n      add\n        /* \"#utility.yul\":11184:11196   */\n      dup3\n        /* \"#utility.yul\":11152:11213   */\n      tag_363\n      jump\t// in\n    tag_369:\n        /* \"#utility.yul\":11048:11223   */\n      pop\n        /* \"#utility.yul\":11308:11312   */\n      0x60\n        /* \"#utility.yul\":11301:11306   */\n      dup3\n        /* \"#utility.yul\":11297:11313   */\n      add\n        /* \"#utility.yul\":11291:11314   */\n      mload\n        /* \"#utility.yul\":11327:11388   */\n      tag_370\n        /* \"#utility.yul\":11382:11386   */\n      0x60\n        /* \"#utility.yul\":11377:11380   */\n      dup6\n        /* \"#utility.yul\":11373:11387   */\n      add\n        /* \"#utility.yul\":11359:11371   */\n      dup3\n        /* \"#utility.yul\":11327:11388   */\n      tag_363\n      jump\t// in\n    tag_370:\n        /* \"#utility.yul\":11233:11398   */\n      pop\n        /* \"#utility.yul\":10654:11405   */\n      pop\n        /* \"#utility.yul\":10522:11405   */\n      pop\n      pop\n      jump\t// out\n        /* \"#utility.yul\":11411:11529   */\n    tag_371:\n        /* \"#utility.yul\":11498:11522   */\n      tag_373\n        /* \"#utility.yul\":11516:11521   */\n      dup2\n        /* \"#utility.yul\":11498:11522   */\n      tag_374\n      jump\t// in\n    tag_373:\n        /* \"#utility.yul\":11493:11496   */\n      dup3\n        /* \"#utility.yul\":11486:11523   */\n      mstore\n        /* \"#utility.yul\":11411:11529   */\n      pop\n      pop\n      jump\t// out\n        /* \"#utility.yul\":11535:11640   */\n    tag_363:\n        /* \"#utility.yul\":11610:11633   */\n      tag_376\n        /* \"#utility.yul\":11627:11632   */\n      dup2\n        /* \"#utility.yul\":11610:11633   */\n      tag_377\n      jump\t// in\n    tag_376:\n        /* \"#utility.yul\":11605:11608   */\n      dup3\n        /* \"#utility.yul\":11598:11634   */\n      mstore\n        /* \"#utility.yul\":11535:11640   */\n      pop\n      pop\n      jump\t// out\n        /* \"#utility.yul\":11646:11748   */\n    tag_360:\n        /* \"#utility.yul\":11719:11741   */\n      tag_379\n        /* \"#utility.yul\":11735:11740   */\n      dup2\n        /* \"#utility.yul\":11719:11741   */\n      tag_380\n      jump\t// in\n    tag_379:\n        /* \"#utility.yul\":11714:11717   */\n      dup3\n        /* \"#utility.yul\":11707:11742   */\n      mstore\n        /* \"#utility.yul\":11646:11748   */\n      pop\n      pop\n      jump\t// out\n        /* \"#utility.yul\":11754:12029   */\n    tag_81:\n        /* \"#utility.yul\":11886:11889   */\n      0x00\n        /* \"#utility.yul\":11908:12003   */\n      tag_382\n        /* \"#utility.yul\":11999:12002   */\n      dup3\n        /* \"#utility.yul\":11990:11996   */\n      dup5\n        /* \"#utility.yul\":11908:12003   */\n      tag_324\n      jump\t// in\n    tag_382:\n        /* \"#utility.yul\":11901:12003   */\n      swap2\n      pop\n        /* \"#utility.yul\":12020:12023   */\n      dup2\n        /* \"#utility.yul\":12013:12023   */\n      swap1\n      pop\n        /* \"#utility.yul\":11754:12029   */\n      swap3\n      swap2\n      pop\n      pop\n      jump\t// out\n        /* \"#utility.yul\":12035:12304   */\n    tag_142:\n        /* \"#utility.yul\":12164:12167   */\n      0x00\n        /* \"#utility.yul\":12186:12278   */\n      tag_384\n        /* \"#utility.yul\":12274:12277   */\n      dup3\n        /* \"#utility.yul\":12265:12271   */\n      dup5\n        /* \"#utility.yul\":12186:12278   */\n      tag_342\n      jump\t// in\n    tag_384:\n        /* \"#utility.yul\":12179:12278   */\n      swap2\n      pop\n        /* \"#utility.yul\":12295:12298   */\n      dup2\n        /* \"#utility.yul\":12288:12298   */\n      swap1\n      pop\n        /* \"#utility.yul\":12035:12304   */\n      swap3\n      swap2\n      pop\n      pop\n      jump\t// out\n        /* \"#utility.yul\":12310:13116   */\n    tag_45:\n        /* \"#utility.yul\":12617:12621   */\n      0x00\n        /* \"#utility.yul\":12655:12657   */\n      0x40\n        /* \"#utility.yul\":12644:12653   */\n      dup3\n        /* \"#utility.yul\":12640:12658   */\n      add\n        /* \"#utility.yul\":12632:12658   */\n      swap1\n      pop\n        /* \"#utility.yul\":12704:12713   */\n      dup2\n        /* \"#utility.yul\":12698:12702   */\n      dup2\n        /* \"#utility.yul\":12694:12714   */\n      sub\n        /* \"#utility.yul\":12690:12691   */\n      0x00\n        /* \"#utility.yul\":12679:12688   */\n      dup4\n        /* \"#utility.yul\":12675:12692   */\n      add\n        /* \"#utility.yul\":12668:12715   */\n      mstore\n        /* \"#utility.yul\":12732:12860   */\n      tag_386\n        /* \"#utility.yul\":12855:12859   */\n      dup2\n        /* \"#utility.yul\":12846:12852   */\n      dup6\n        /* \"#utility.yul\":12732:12860   */\n      tag_280\n      jump\t// in\n    tag_386:\n        /* \"#utility.yul\":12724:12860   */\n      swap1\n      pop\n        /* \"#utility.yul\":12907:12916   */\n      dup2\n        /* \"#utility.yul\":12901:12905   */\n      dup2\n        /* \"#utility.yul\":12897:12917   */\n      sub\n        /* \"#utility.yul\":12892:12894   */\n      0x20\n        /* \"#utility.yul\":12881:12890   */\n      dup4\n        /* \"#utility.yul\":12877:12895   */\n      add\n        /* \"#utility.yul\":12870:12918   */\n      mstore\n        /* \"#utility.yul\":12935:13109   */\n      tag_387\n        /* \"#utility.yul\":13104:13108   */\n      dup2\n        /* \"#utility.yul\":13095:13101   */\n      dup5\n        /* \"#utility.yul\":12935:13109   */\n      tag_294\n      jump\t// in\n    tag_387:\n        /* \"#utility.yul\":12927:13109   */\n      swap1\n      pop\n        /* \"#utility.yul\":12310:13116   */\n      swap4\n      swap3\n      pop\n      pop\n      pop\n      jump\t// out\n        /* \"#utility.yul\":13122:13627   */\n    tag_21:\n        /* \"#utility.yul\":13331:13335   */\n      0x00\n        /* \"#utility.yul\":13369:13371   */\n      0x20\n        /* \"#utility.yul\":13358:13367   */\n      dup3\n        /* \"#utility.yul\":13354:13372   */\n      add\n        /* \"#utility.yul\":13346:13372   */\n      swap1\n      pop\n        /* \"#utility.yul\":13418:13427   */\n      dup2\n        /* \"#utility.yul\":13412:13416   */\n      dup2\n        /* \"#utility.yul\":13408:13428   */\n      sub\n        /* \"#utility.yul\":13404:13405   */\n      0x00\n        /* \"#utility.yul\":13393:13402   */\n      dup4\n        /* \"#utility.yul\":13389:13406   */\n      add\n        /* \"#utility.yul\":13382:13429   */\n      mstore\n        /* \"#utility.yul\":13446:13620   */\n      tag_389\n        /* \"#utility.yul\":13615:13619   */\n      dup2\n        /* \"#utility.yul\":13606:13612   */\n      dup5\n        /* \"#utility.yul\":13446:13620   */\n      tag_294\n      jump\t// in\n    tag_389:\n        /* \"#utility.yul\":13438:13620   */\n      swap1\n      pop\n        /* \"#utility.yul\":13122:13627   */\n      swap3\n      swap2\n      pop\n      pop\n      jump\t// out\n        /* \"#utility.yul\":13633:13946   */\n    tag_50:\n        /* \"#utility.yul\":13746:13750   */\n      0x00\n        /* \"#utility.yul\":13784:13786   */\n      0x20\n        /* \"#utility.yul\":13773:13782   */\n      dup3\n        /* \"#utility.yul\":13769:13787   */\n      add\n        /* \"#utility.yul\":13761:13787   */\n      swap1\n      pop\n        /* \"#utility.yul\":13833:13842   */\n      dup2\n        /* \"#utility.yul\":13827:13831   */\n      dup2\n        /* \"#utility.yul\":13823:13843   */\n      sub\n        /* \"#utility.yul\":13819:13820   */\n      0x00\n        /* \"#utility.yul\":13808:13817   */\n      dup4\n        /* \"#utility.yul\":13804:13821   */\n      add\n        /* \"#utility.yul\":13797:13844   */\n      mstore\n        /* \"#utility.yul\":13861:13939   */\n      tag_391\n        /* \"#utility.yul\":13934:13938   */\n      dup2\n        /* \"#utility.yul\":13925:13931   */\n      dup5\n        /* \"#utility.yul\":13861:13939   */\n      tag_317\n      jump\t// in\n    tag_391:\n        /* \"#utility.yul\":13853:13939   */\n      swap1\n      pop\n        /* \"#utility.yul\":13633:13946   */\n      swap3\n      swap2\n      pop\n      pop\n      jump\t// out\n        /* \"#utility.yul\":13952:14259   */\n    tag_70:\n        /* \"#utility.yul\":14062:14066   */\n      0x00\n        /* \"#utility.yul\":14100:14102   */\n      0x20\n        /* \"#utility.yul\":14089:14098   */\n      dup3\n        /* \"#utility.yul\":14085:14103   */\n      add\n        /* \"#utility.yul\":14077:14103   */\n      swap1\n      pop\n        /* \"#utility.yul\":14149:14158   */\n      dup2\n        /* \"#utility.yul\":14143:14147   */\n      dup2\n        /* \"#utility.yul\":14139:14159   */\n      sub\n        /* \"#utility.yul\":14135:14136   */\n      0x00\n        /* \"#utility.yul\":14124:14133   */\n      dup4\n        /* \"#utility.yul\":14120:14137   */\n      add\n        /* \"#utility.yul\":14113:14160   */\n      mstore\n        /* \"#utility.yul\":14177:14252   */\n      tag_393\n        /* \"#utility.yul\":14247:14251   */\n      dup2\n        /* \"#utility.yul\":14238:14244   */\n      dup5\n        /* \"#utility.yul\":14177:14252   */\n      tag_330\n      jump\t// in\n    tag_393:\n        /* \"#utility.yul\":14169:14252   */\n      swap1\n      pop\n        /* \"#utility.yul\":13952:14259   */\n      swap3\n      swap2\n      pop\n      pop\n      jump\t// out\n        /* \"#utility.yul\":14265:14684   */\n    tag_192:\n        /* \"#utility.yul\":14431:14435   */\n      0x00\n        /* \"#utility.yul\":14469:14471   */\n      0x20\n        /* \"#utility.yul\":14458:14467   */\n      dup3\n        /* \"#utility.yul\":14454:14472   */\n      add\n        /* \"#utility.yul\":14446:14472   */\n      swap1\n      pop\n        /* \"#utility.yul\":14518:14527   */\n      dup2\n        /* \"#utility.yul\":14512:14516   */\n      dup2\n        /* \"#utility.yul\":14508:14528   */\n      sub\n        /* \"#utility.yul\":14504:14505   */\n      0x00\n        /* \"#utility.yul\":14493:14502   */\n      dup4\n        /* \"#utility.yul\":14489:14506   */\n      add\n        /* \"#utility.yul\":14482:14529   */\n      mstore\n        /* \"#utility.yul\":14546:14677   */\n      tag_395\n        /* \"#utility.yul\":14672:14676   */\n      dup2\n        /* \"#utility.yul\":14546:14677   */\n      tag_353\n      jump\t// in\n    tag_395:\n        /* \"#utility.yul\":14538:14677   */\n      swap1\n      pop\n        /* \"#utility.yul\":14265:14684   */\n      swap2\n      swap1\n      pop\n      jump\t// out\n        /* \"#utility.yul\":14690:15045   */\n    tag_31:\n        /* \"#utility.yul\":14849:14853   */\n      0x00\n        /* \"#utility.yul\":14887:14890   */\n      0x80\n        /* \"#utility.yul\":14876:14885   */\n      dup3\n        /* \"#utility.yul\":14872:14891   */\n      add\n        /* \"#utility.yul\":14864:14891   */\n      swap1\n      pop\n        /* \"#utility.yul\":14901:15038   */\n      tag_397\n        /* \"#utility.yul\":15035:15036   */\n      0x00\n        /* \"#utility.yul\":15024:15033   */\n      dup4\n        /* \"#utility.yul\":15020:15037   */\n      add\n        /* \"#utility.yul\":15011:15017   */\n      dup5\n        /* \"#utility.yul\":14901:15038   */\n      tag_365\n      jump\t// in\n    tag_397:\n        /* \"#utility.yul\":14690:15045   */\n      swap3\n      swap2\n      pop\n      pop\n      jump\t// out\n        /* \"#utility.yul\":15051:15273   */\n    tag_37:\n        /* \"#utility.yul\":15144:15148   */\n      0x00\n        /* \"#utility.yul\":15182:15184   */\n      0x20\n        /* \"#utility.yul\":15171:15180   */\n      dup3\n        /* \"#utility.yul\":15167:15185   */\n      add\n        /* \"#utility.yul\":15159:15185   */\n      swap1\n      pop\n        /* \"#utility.yul\":15195:15266   */\n      tag_399\n        /* \"#utility.yul\":15263:15264   */\n      0x00\n        /* \"#utility.yul\":15252:15261   */\n      dup4\n        /* \"#utility.yul\":15248:15265   */\n      add\n        /* \"#utility.yul\":15239:15245   */\n      dup5\n        /* \"#utility.yul\":15195:15266   */\n      tag_371\n      jump\t// in\n    tag_399:\n        /* \"#utility.yul\":15051:15273   */\n      swap3\n      swap2\n      pop\n      pop\n      jump\t// out\n        /* \"#utility.yul\":15279:15408   */\n    tag_221:\n        /* \"#utility.yul\":15313:15319   */\n      0x00\n        /* \"#utility.yul\":15340:15360   */\n      tag_401\n      tag_402\n      jump\t// in\n    tag_401:\n        /* \"#utility.yul\":15330:15360   */\n      swap1\n      pop\n        /* \"#utility.yul\":15369:15402   */\n      tag_403\n        /* \"#utility.yul\":15397:15401   */\n      dup3\n        /* \"#utility.yul\":15389:15395   */\n      dup3\n        /* \"#utility.yul\":15369:15402   */\n      tag_404\n      jump\t// in\n    tag_403:\n        /* \"#utility.yul\":15279:15408   */\n      swap2\n      swap1\n      pop\n      jump\t// out\n        /* \"#utility.yul\":15414:15489   */\n    tag_402:\n        /* \"#utility.yul\":15447:15453   */\n      0x00\n        /* \"#utility.yul\":15480:15482   */\n      0x40\n        /* \"#utility.yul\":15474:15483   */\n      mload\n        /* \"#utility.yul\":15464:15483   */\n      swap1\n      pop\n        /* \"#utility.yul\":15414:15489   */\n      swap1\n      jump\t// out\n        /* \"#utility.yul\":15495:15803   */\n    tag_220:\n        /* \"#utility.yul\":15557:15561   */\n      0x00\n        /* \"#utility.yul\":15647:15665   */\n      0xffffffffffffffff\n        /* \"#utility.yul\":15639:15645   */\n      dup3\n        /* \"#utility.yul\":15636:15666   */\n      gt\n        /* \"#utility.yul\":15633:15689   */\n      iszero\n      tag_407\n      jumpi\n        /* \"#utility.yul\":15669:15687   */\n      tag_408\n      tag_131\n      jump\t// in\n    tag_408:\n        /* \"#utility.yul\":15633:15689   */\n    tag_407:\n        /* \"#utility.yul\":15707:15736   */\n      tag_409\n        /* \"#utility.yul\":15729:15735   */\n      dup3\n        /* \"#utility.yul\":15707:15736   */\n      tag_316\n      jump\t// in\n    tag_409:\n        /* \"#utility.yul\":15699:15736   */\n      swap1\n      pop\n        /* \"#utility.yul\":15791:15795   */\n      0x20\n        /* \"#utility.yul\":15785:15789   */\n      dup2\n        /* \"#utility.yul\":15781:15796   */\n      add\n        /* \"#utility.yul\":15773:15796   */\n      swap1\n      pop\n        /* \"#utility.yul\":15495:15803   */\n      swap2\n      swap1\n      pop\n      jump\t// out\n        /* \"#utility.yul\":15809:15951   */\n    tag_287:\n        /* \"#utility.yul\":15886:15890   */\n      0x00\n        /* \"#utility.yul\":15909:15912   */\n      dup2\n        /* \"#utility.yul\":15901:15912   */\n      swap1\n      pop\n        /* \"#utility.yul\":15939:15943   */\n      0x20\n        /* \"#utility.yul\":15934:15937   */\n      dup3\n        /* \"#utility.yul\":15930:15944   */\n      add\n        /* \"#utility.yul\":15922:15944   */\n      swap1\n      pop\n        /* \"#utility.yul\":15809:15951   */\n      swap2\n      swap1\n      pop\n      jump\t// out\n        /* \"#utility.yul\":15957:16122   */\n    tag_301:\n        /* \"#utility.yul\":16057:16061   */\n      0x00\n        /* \"#utility.yul\":16080:16083   */\n      dup2\n        /* \"#utility.yul\":16072:16083   */\n      swap1\n      pop\n        /* \"#utility.yul\":16110:16114   */\n      0x20\n        /* \"#utility.yul\":16105:16108   */\n      dup3\n        /* \"#utility.yul\":16101:16115   */\n      add\n        /* \"#utility.yul\":16093:16115   */\n      swap1\n      pop\n        /* \"#utility.yul\":15957:16122   */\n      swap2\n      swap1\n      pop\n      jump\t// out\n        /* \"#utility.yul\":16128:16269   */\n    tag_338:\n        /* \"#utility.yul\":16177:16181   */\n      0x00\n        /* \"#utility.yul\":16200:16203   */\n      dup2\n        /* \"#utility.yul\":16192:16203   */\n      swap1\n      pop\n        /* \"#utility.yul\":16223:16226   */\n      dup2\n        /* \"#utility.yul\":16220:16221   */\n      0x00\n        /* \"#utility.yul\":16213:16227   */\n      mstore\n        /* \"#utility.yul\":16257:16261   */\n      0x20\n        /* \"#utility.yul\":16254:16255   */\n      0x00\n        /* \"#utility.yul\":16244:16262   */\n      keccak256\n        /* \"#utility.yul\":16236:16262   */\n      swap1\n      pop\n        /* \"#utility.yul\":16128:16269   */\n      swap2\n      swap1\n      pop\n      jump\t// out\n        /* \"#utility.yul\":16275:16399   */\n    tag_283:\n        /* \"#utility.yul\":16352:16358   */\n      0x00\n        /* \"#utility.yul\":16386:16391   */\n      dup2\n        /* \"#utility.yul\":16380:16392   */\n      mload\n        /* \"#utility.yul\":16370:16392   */\n      swap1\n      pop\n        /* \"#utility.yul\":16275:16399   */\n      swap2\n      swap1\n      pop\n      jump\t// out\n        /* \"#utility.yul\":16405:16552   */\n    tag_297:\n        /* \"#utility.yul\":16505:16511   */\n      0x00\n        /* \"#utility.yul\":16539:16544   */\n      dup2\n        /* \"#utility.yul\":16533:16545   */\n      mload\n        /* \"#utility.yul\":16523:16545   */\n      swap1\n      pop\n        /* \"#utility.yul\":16405:16552   */\n      swap2\n      swap1\n      pop\n      jump\t// out\n        /* \"#utility.yul\":16558:16657   */\n    tag_310:\n        /* \"#utility.yul\":16610:16616   */\n      0x00\n        /* \"#utility.yul\":16644:16649   */\n      dup2\n        /* \"#utility.yul\":16638:16650   */\n      mload\n        /* \"#utility.yul\":16628:16650   */\n      swap1\n      pop\n        /* \"#utility.yul\":16558:16657   */\n      swap2\n      swap1\n      pop\n      jump\t// out\n        /* \"#utility.yul\":16663:16786   */\n    tag_293:\n        /* \"#utility.yul\":16743:16747   */\n      0x00\n        /* \"#utility.yul\":16775:16779   */\n      0x20\n        /* \"#utility.yul\":16770:16773   */\n      dup3\n        /* \"#utility.yul\":16766:16780   */\n      add\n        /* \"#utility.yul\":16758:16780   */\n      swap1\n      pop\n        /* \"#utility.yul\":16663:16786   */\n      swap2\n      swap1\n      pop\n      jump\t// out\n        /* \"#utility.yul\":16792:16938   */\n    tag_307:\n        /* \"#utility.yul\":16895:16899   */\n      0x00\n        /* \"#utility.yul\":16927:16931   */\n      0x20\n        /* \"#utility.yul\":16922:16925   */\n      dup3\n        /* \"#utility.yul\":16918:16932   */\n      add\n        /* \"#utility.yul\":16910:16932   */\n      swap1\n      pop\n        /* \"#utility.yul\":16792:16938   */\n      swap2\n      swap1\n      pop\n      jump\t// out\n        /* \"#utility.yul\":16944:17138   */\n    tag_285:\n        /* \"#utility.yul\":17053:17064   */\n      0x00\n        /* \"#utility.yul\":17087:17093   */\n      dup3\n        /* \"#utility.yul\":17082:17085   */\n      dup3\n        /* \"#utility.yul\":17075:17094   */\n      mstore\n        /* \"#utility.yul\":17127:17131   */\n      0x20\n        /* \"#utility.yul\":17122:17125   */\n      dup3\n        /* \"#utility.yul\":17118:17132   */\n      add\n        /* \"#utility.yul\":17103:17132   */\n      swap1\n      pop\n        /* \"#utility.yul\":16944:17138   */\n      swap3\n      swap2\n      pop\n      pop\n      jump\t// out\n        /* \"#utility.yul\":17144:17361   */\n    tag_299:\n        /* \"#utility.yul\":17276:17287   */\n      0x00\n        /* \"#utility.yul\":17310:17316   */\n      dup3\n        /* \"#utility.yul\":17305:17308   */\n      dup3\n        /* \"#utility.yul\":17298:17317   */\n      mstore\n        /* \"#utility.yul\":17350:17354   */\n      0x20\n        /* \"#utility.yul\":17345:17348   */\n      dup3\n        /* \"#utility.yul\":17341:17355   */\n      add\n        /* \"#utility.yul\":17326:17355   */\n      swap1\n      pop\n        /* \"#utility.yul\":17144:17361   */\n      swap3\n      swap2\n      pop\n      pop\n      jump\t// out\n        /* \"#utility.yul\":17367:17526   */\n    tag_312:\n        /* \"#utility.yul\":17441:17452   */\n      0x00\n        /* \"#utility.yul\":17475:17481   */\n      dup3\n        /* \"#utility.yul\":17470:17473   */\n      dup3\n        /* \"#utility.yul\":17463:17482   */\n      mstore\n        /* \"#utility.yul\":17515:17519   */\n      0x20\n        /* \"#utility.yul\":17510:17513   */\n      dup3\n        /* \"#utility.yul\":17506:17520   */\n      add\n        /* \"#utility.yul\":17491:17520   */\n      swap1\n      pop\n        /* \"#utility.yul\":17367:17526   */\n      swap3\n      swap2\n      pop\n      pop\n      jump\t// out\n        /* \"#utility.yul\":17532:17701   */\n    tag_321:\n        /* \"#utility.yul\":17616:17627   */\n      0x00\n        /* \"#utility.yul\":17650:17656   */\n      dup3\n        /* \"#utility.yul\":17645:17648   */\n      dup3\n        /* \"#utility.yul\":17638:17657   */\n      mstore\n        /* \"#utility.yul\":17690:17694   */\n      0x20\n        /* \"#utility.yul\":17685:17688   */\n      dup3\n        /* \"#utility.yul\":17681:17695   */\n      add\n        /* \"#utility.yul\":17666:17695   */\n      swap1\n      pop\n        /* \"#utility.yul\":17532:17701   */\n      swap3\n      swap2\n      pop\n      pop\n      jump\t// out\n        /* \"#utility.yul\":17707:17855   */\n    tag_328:\n        /* \"#utility.yul\":17809:17820   */\n      0x00\n        /* \"#utility.yul\":17846:17849   */\n      dup2\n        /* \"#utility.yul\":17831:17849   */\n      swap1\n      pop\n        /* \"#utility.yul\":17707:17855   */\n      swap3\n      swap2\n      pop\n      pop\n      jump\t// out\n        /* \"#utility.yul\":17861:18107   */\n    tag_180:\n        /* \"#utility.yul\":17900:17903   */\n      0x00\n        /* \"#utility.yul\":17919:17938   */\n      tag_424\n        /* \"#utility.yul\":17936:17937   */\n      dup3\n        /* \"#utility.yul\":17919:17938   */\n      tag_377\n      jump\t// in\n    tag_424:\n        /* \"#utility.yul\":17914:17938   */\n      swap2\n      pop\n        /* \"#utility.yul\":17952:17971   */\n      tag_425\n        /* \"#utility.yul\":17969:17970   */\n      dup4\n        /* \"#utility.yul\":17952:17971   */\n      tag_377\n      jump\t// in\n    tag_425:\n        /* \"#utility.yul\":17947:17971   */\n      swap3\n      pop\n        /* \"#utility.yul\":18049:18050   */\n      dup3\n        /* \"#utility.yul\":18037:18047   */\n      0xffffffff\n        /* \"#utility.yul\":18033:18051   */\n      sub\n        /* \"#utility.yul\":18030:18031   */\n      dup3\n        /* \"#utility.yul\":18027:18052   */\n      gt\n        /* \"#utility.yul\":18024:18075   */\n      iszero\n      tag_426\n      jumpi\n        /* \"#utility.yul\":18055:18073   */\n      tag_427\n      tag_428\n      jump\t// in\n    tag_427:\n        /* \"#utility.yul\":18024:18075   */\n    tag_426:\n        /* \"#utility.yul\":18099:18100   */\n      dup3\n        /* \"#utility.yul\":18096:18097   */\n      dup3\n        /* \"#utility.yul\":18092:18101   */\n      add\n        /* \"#utility.yul\":18085:18101   */\n      swap1\n      pop\n        /* \"#utility.yul\":17861:18107   */\n      swap3\n      swap2\n      pop\n      pop\n      jump\t// out\n        /* \"#utility.yul\":18113:18402   */\n    tag_188:\n        /* \"#utility.yul\":18152:18159   */\n      0x00\n        /* \"#utility.yul\":18175:18194   */\n      tag_430\n        /* \"#utility.yul\":18192:18193   */\n      dup3\n        /* \"#utility.yul\":18175:18194   */\n      tag_377\n      jump\t// in\n    tag_430:\n        /* \"#utility.yul\":18170:18194   */\n      swap2\n      pop\n        /* \"#utility.yul\":18208:18227   */\n      tag_431\n        /* \"#utility.yul\":18225:18226   */\n      dup4\n        /* \"#utility.yul\":18208:18227   */\n      tag_377\n      jump\t// in\n    tag_431:\n        /* \"#utility.yul\":18203:18227   */\n      swap3\n      pop\n        /* \"#utility.yul\":18339:18340   */\n      dup2\n        /* \"#utility.yul\":18327:18337   */\n      0xffffffff\n        /* \"#utility.yul\":18323:18341   */\n      div\n        /* \"#utility.yul\":18320:18321   */\n      dup4\n        /* \"#utility.yul\":18317:18342   */\n      gt\n        /* \"#utility.yul\":18312:18313   */\n      dup3\n        /* \"#utility.yul\":18305:18314   */\n      iszero\n        /* \"#utility.yul\":18298:18315   */\n      iszero\n        /* \"#utility.yul\":18294:18343   */\n      and\n        /* \"#utility.yul\":18291:18366   */\n      iszero\n      tag_432\n      jumpi\n        /* \"#utility.yul\":18346:18364   */\n      tag_433\n      tag_428\n      jump\t// in\n    tag_433:\n        /* \"#utility.yul\":18291:18366   */\n    tag_432:\n        /* \"#utility.yul\":18394:18395   */\n      dup3\n        /* \"#utility.yul\":18391:18392   */\n      dup3\n        /* \"#utility.yul\":18387:18396   */\n      mul\n        /* \"#utility.yul\":18376:18396   */\n      swap1\n      pop\n        /* \"#utility.yul\":18113:18402   */\n      swap3\n      swap2\n      pop\n      pop\n      jump\t// out\n        /* \"#utility.yul\":18408:18485   */\n    tag_374:\n        /* \"#utility.yul\":18445:18452   */\n      0x00\n        /* \"#utility.yul\":18474:18479   */\n      dup2\n        /* \"#utility.yul\":18463:18479   */\n      swap1\n      pop\n        /* \"#utility.yul\":18408:18485   */\n      swap2\n      swap1\n      pop\n      jump\t// out\n        /* \"#utility.yul\":18491:18584   */\n    tag_377:\n        /* \"#utility.yul\":18527:18534   */\n      0x00\n        /* \"#utility.yul\":18567:18577   */\n      0xffffffff\n        /* \"#utility.yul\":18560:18565   */\n      dup3\n        /* \"#utility.yul\":18556:18578   */\n      and\n        /* \"#utility.yul\":18545:18578   */\n      swap1\n      pop\n        /* \"#utility.yul\":18491:18584   */\n      swap2\n      swap1\n      pop\n      jump\t// out\n        /* \"#utility.yul\":18590:18676   */\n    tag_380:\n        /* \"#utility.yul\":18625:18632   */\n      0x00\n        /* \"#utility.yul\":18665:18669   */\n      0xff\n        /* \"#utility.yul\":18658:18663   */\n      dup3\n        /* \"#utility.yul\":18654:18670   */\n      and\n        /* \"#utility.yul\":18643:18670   */\n      swap1\n      pop\n        /* \"#utility.yul\":18590:18676   */\n      swap2\n      swap1\n      pop\n      jump\t// out\n        /* \"#utility.yul\":18682:18836   */\n    tag_226:\n        /* \"#utility.yul\":18766:18772   */\n      dup3\n        /* \"#utility.yul\":18761:18764   */\n      dup2\n        /* \"#utility.yul\":18756:18759   */\n      dup4\n        /* \"#utility.yul\":18743:18773   */\n      calldatacopy\n        /* \"#utility.yul\":18828:18829   */\n      0x00\n        /* \"#utility.yul\":18819:18825   */\n      dup4\n        /* \"#utility.yul\":18814:18817   */\n      dup4\n        /* \"#utility.yul\":18810:18826   */\n      add\n        /* \"#utility.yul\":18803:18830   */\n      mstore\n        /* \"#utility.yul\":18682:18836   */\n      pop\n      pop\n      pop\n      jump\t// out\n        /* \"#utility.yul\":18842:19149   */\n    tag_314:\n        /* \"#utility.yul\":18910:18911   */\n      0x00\n        /* \"#utility.yul\":18920:19033   */\n    tag_439:\n        /* \"#utility.yul\":18934:18940   */\n      dup4\n        /* \"#utility.yul\":18931:18932   */\n      dup2\n        /* \"#utility.yul\":18928:18941   */\n      lt\n        /* \"#utility.yul\":18920:19033   */\n      iszero\n      tag_441\n      jumpi\n        /* \"#utility.yul\":19019:19020   */\n      dup1\n        /* \"#utility.yul\":19014:19017   */\n      dup3\n        /* \"#utility.yul\":19010:19021   */\n      add\n        /* \"#utility.yul\":19004:19022   */\n      mload\n        /* \"#utility.yul\":19000:19001   */\n      dup2\n        /* \"#utility.yul\":18995:18998   */\n      dup5\n        /* \"#utility.yul\":18991:19002   */\n      add\n        /* \"#utility.yul\":18984:19023   */\n      mstore\n        /* \"#utility.yul\":18956:18958   */\n      0x20\n        /* \"#utility.yul\":18953:18954   */\n      dup2\n        /* \"#utility.yul\":18949:18959   */\n      add\n        /* \"#utility.yul\":18944:18959   */\n      swap1\n      pop\n        /* \"#utility.yul\":18920:19033   */\n      jump(tag_439)\n    tag_441:\n        /* \"#utility.yul\":19051:19057   */\n      dup4\n        /* \"#utility.yul\":19048:19049   */\n      dup2\n        /* \"#utility.yul\":19045:19058   */\n      gt\n        /* \"#utility.yul\":19042:19143   */\n      iszero\n      tag_442\n      jumpi\n        /* \"#utility.yul\":19131:19132   */\n      0x00\n        /* \"#utility.yul\":19122:19128   */\n      dup5\n        /* \"#utility.yul\":19117:19120   */\n      dup5\n        /* \"#utility.yul\":19113:19129   */\n      add\n        /* \"#utility.yul\":19106:19133   */\n      mstore\n        /* \"#utility.yul\":19042:19143   */\n    tag_442:\n        /* \"#utility.yul\":18891:19149   */\n      pop\n        /* \"#utility.yul\":18842:19149   */\n      pop\n      pop\n      pop\n      jump\t// out\n        /* \"#utility.yul\":19155:19326   */\n    tag_123:\n        /* \"#utility.yul\":19194:19197   */\n      0x00\n        /* \"#utility.yul\":19217:19241   */\n      tag_444\n        /* \"#utility.yul\":19235:19240   */\n      dup3\n        /* \"#utility.yul\":19217:19241   */\n      tag_374\n      jump\t// in\n    tag_444:\n        /* \"#utility.yul\":19208:19241   */\n      swap2\n      pop\n        /* \"#utility.yul\":19263:19267   */\n      0x00\n        /* \"#utility.yul\":19256:19261   */\n      dup3\n        /* \"#utility.yul\":19253:19268   */\n      eq\n        /* \"#utility.yul\":19250:19291   */\n      iszero\n      tag_445\n      jumpi\n        /* \"#utility.yul\":19271:19289   */\n      tag_446\n      tag_428\n      jump\t// in\n    tag_446:\n        /* \"#utility.yul\":19250:19291   */\n    tag_445:\n        /* \"#utility.yul\":19318:19319   */\n      0x01\n        /* \"#utility.yul\":19311:19316   */\n      dup3\n        /* \"#utility.yul\":19307:19320   */\n      sub\n        /* \"#utility.yul\":19300:19320   */\n      swap1\n      pop\n        /* \"#utility.yul\":19155:19326   */\n      swap2\n      swap1\n      pop\n      jump\t// out\n        /* \"#utility.yul\":19332:19652   */\n    tag_150:\n        /* \"#utility.yul\":19376:19382   */\n      0x00\n        /* \"#utility.yul\":19413:19414   */\n      0x02\n        /* \"#utility.yul\":19407:19411   */\n      dup3\n        /* \"#utility.yul\":19403:19415   */\n      div\n        /* \"#utility.yul\":19393:19415   */\n      swap1\n      pop\n        /* \"#utility.yul\":19460:19461   */\n      0x01\n        /* \"#utility.yul\":19454:19458   */\n      dup3\n        /* \"#utility.yul\":19450:19462   */\n      and\n        /* \"#utility.yul\":19481:19499   */\n      dup1\n        /* \"#utility.yul\":19471:19552   */\n      tag_448\n      jumpi\n        /* \"#utility.yul\":19537:19541   */\n      0x7f\n        /* \"#utility.yul\":19529:19535   */\n      dup3\n        /* \"#utility.yul\":19525:19542   */\n      and\n        /* \"#utility.yul\":19515:19542   */\n      swap2\n      pop\n        /* \"#utility.yul\":19471:19552   */\n    tag_448:\n        /* \"#utility.yul\":19599:19601   */\n      0x20\n        /* \"#utility.yul\":19591:19597   */\n      dup3\n        /* \"#utility.yul\":19588:19602   */\n      lt\n        /* \"#utility.yul\":19568:19586   */\n      dup2\n        /* \"#utility.yul\":19565:19603   */\n      eq\n        /* \"#utility.yul\":19562:19646   */\n      iszero\n      tag_449\n      jumpi\n        /* \"#utility.yul\":19618:19636   */\n      tag_450\n      tag_451\n      jump\t// in\n    tag_450:\n        /* \"#utility.yul\":19562:19646   */\n    tag_449:\n        /* \"#utility.yul\":19383:19652   */\n      pop\n        /* \"#utility.yul\":19332:19652   */\n      swap2\n      swap1\n      pop\n      jump\t// out\n        /* \"#utility.yul\":19658:19939   */\n    tag_404:\n        /* \"#utility.yul\":19741:19768   */\n      tag_453\n        /* \"#utility.yul\":19763:19767   */\n      dup3\n        /* \"#utility.yul\":19741:19768   */\n      tag_316\n      jump\t// in\n    tag_453:\n        /* \"#utility.yul\":19733:19739   */\n      dup2\n        /* \"#utility.yul\":19729:19769   */\n      add\n        /* \"#utility.yul\":19871:19877   */\n      dup2\n        /* \"#utility.yul\":19859:19869   */\n      dup2\n        /* \"#utility.yul\":19856:19878   */\n      lt\n        /* \"#utility.yul\":19835:19853   */\n      0xffffffffffffffff\n        /* \"#utility.yul\":19823:19833   */\n      dup3\n        /* \"#utility.yul\":19820:19854   */\n      gt\n        /* \"#utility.yul\":19817:19879   */\n      or\n        /* \"#utility.yul\":19814:19902   */\n      iszero\n      tag_454\n      jumpi\n        /* \"#utility.yul\":19882:19900   */\n      tag_455\n      tag_131\n      jump\t// in\n    tag_455:\n        /* \"#utility.yul\":19814:19902   */\n    tag_454:\n        /* \"#utility.yul\":19922:19932   */\n      dup1\n        /* \"#utility.yul\":19918:19920   */\n      0x40\n        /* \"#utility.yul\":19911:19933   */\n      mstore\n        /* \"#utility.yul\":19701:19939   */\n      pop\n        /* \"#utility.yul\":19658:19939   */\n      pop\n      pop\n      jump\t// out\n        /* \"#utility.yul\":19945:20178   */\n    tag_73:\n        /* \"#utility.yul\":19984:19987   */\n      0x00\n        /* \"#utility.yul\":20007:20031   */\n      tag_457\n        /* \"#utility.yul\":20025:20030   */\n      dup3\n        /* \"#utility.yul\":20007:20031   */\n      tag_374\n      jump\t// in\n    tag_457:\n        /* \"#utility.yul\":19998:20031   */\n      swap2\n      pop\n        /* \"#utility.yul\":20053:20119   */\n      0xffffffffffffffffffffffffffffffffffffffffffffffffffffffffffffffff\n        /* \"#utility.yul\":20046:20051   */\n      dup3\n        /* \"#utility.yul\":20043:20120   */\n      eq\n        /* \"#utility.yul\":20040:20143   */\n      iszero\n      tag_458\n      jumpi\n        /* \"#utility.yul\":20123:20141   */\n      tag_459\n      tag_428\n      jump\t// in\n    tag_459:\n        /* \"#utility.yul\":20040:20143   */\n    tag_458:\n        /* \"#utility.yul\":20170:20171   */\n      0x01\n        /* \"#utility.yul\":20163:20168   */\n      dup3\n        /* \"#utility.yul\":20159:20172   */\n      add\n        /* \"#utility.yul\":20152:20172   */\n      swap1\n      pop\n        /* \"#utility.yul\":19945:20178   */\n      swap2\n      swap1\n      pop\n      jump\t// out\n        /* \"#utility.yul\":20184:20364   */\n    tag_428:\n        /* \"#utility.yul\":20232:20309   */\n      0x4e487b7100000000000000000000000000000000000000000000000000000000\n        /* \"#utility.yul\":20229:20230   */\n      0x00\n        /* \"#utility.yul\":20222:20310   */\n      mstore\n        /* \"#utility.yul\":20329:20333   */\n      0x11\n        /* \"#utility.yul\":20326:20327   */\n      0x04\n        /* \"#utility.yul\":20319:20334   */\n      mstore\n        /* \"#utility.yul\":20353:20357   */\n      0x24\n        /* \"#utility.yul\":20350:20351   */\n      0x00\n        /* \"#utility.yul\":20343:20358   */\n      revert\n        /* \"#utility.yul\":20370:20550   */\n    tag_451:\n        /* \"#utility.yul\":20418:20495   */\n      0x4e487b7100000000000000000000000000000000000000000000000000000000\n        /* \"#utility.yul\":20415:20416   */\n      0x00\n        /* \"#utility.yul\":20408:20496   */\n      mstore\n        /* \"#utility.yul\":20515:20519   */\n      0x22\n        /* \"#utility.yul\":20512:20513   */\n      0x04\n        /* \"#utility.yul\":20505:20520   */\n      mstore\n        /* \"#utility.yul\":20539:20543   */\n      0x24\n        /* \"#utility.yul\":20536:20537   */\n      0x00\n        /* \"#utility.yul\":20529:20544   */\n      revert\n        /* \"#utility.yul\":20556:20736   */\n    tag_67:\n        /* \"#utility.yul\":20604:20681   */\n      0x4e487b7100000000000000000000000000000000000000000000000000000000\n        /* \"#utility.yul\":20601:20602   */\n      0x00\n        /* \"#utility.yul\":20594:20682   */\n      mstore\n        /* \"#utility.yul\":20701:20705   */\n      0x32\n        /* \"#utility.yul\":20698:20699   */\n      0x04\n        /* \"#utility.yul\":20691:20706   */\n      mstore\n        /* \"#utility.yul\":20725:20729   */\n      0x24\n        /* \"#utility.yul\":20722:20723   */\n      0x00\n        /* \"#utility.yul\":20715:20730   */\n      revert\n        /* \"#utility.yul\":20742:20922   */\n    tag_131:\n        /* \"#utility.yul\":20790:20867   */\n      0x4e487b7100000000000000000000000000000000000000000000000000000000\n        /* \"#utility.yul\":20787:20788   */\n      0x00\n        /* \"#utility.yul\":20780:20868   */\n      mstore\n        /* \"#utility.yul\":20887:20891   */\n      0x41\n        /* \"#utility.yul\":20884:20885   */\n      0x04\n        /* \"#utility.yul\":20877:20892   */\n      mstore\n        /* \"#utility.yul\":20911:20915   */\n      0x24\n        /* \"#utility.yul\":20908:20909   */\n      0x00\n        /* \"#utility.yul\":20901:20916   */\n      revert\n        /* \"#utility.yul\":20928:21045   */\n    tag_231:\n        /* \"#utility.yul\":21037:21038   */\n      0x00\n        /* \"#utility.yul\":21034:21035   */\n      dup1\n        /* \"#utility.yul\":21027:21039   */\n      revert\n        /* \"#utility.yul\":21051:21168   */\n    tag_224:\n        /* \"#utility.yul\":21160:21161   */\n      0x00\n        /* \"#utility.yul\":21157:21158   */\n      dup1\n        /* \"#utility.yul\":21150:21162   */\n      revert\n        /* \"#utility.yul\":21174:21291   */\n    tag_247:\n        /* \"#utility.yul\":21283:21284   */\n      0x00\n        /* \"#utility.yul\":21280:21281   */\n      dup1\n        /* \"#utility.yul\":21273:21285   */\n      revert\n        /* \"#utility.yul\":21297:21414   */\n    tag_244:\n        /* \"#utility.yul\":21406:21407   */\n      0x00\n        /* \"#utility.yul\":21403:21404   */\n      dup1\n        /* \"#utility.yul\":21396:21408   */\n      revert\n        /* \"#utility.yul\":21420:21522   */\n    tag_316:\n        /* \"#utility.yul\":21461:21467   */\n      0x00\n        /* \"#utility.yul\":21512:21514   */\n      0x1f\n        /* \"#utility.yul\":21508:21515   */\n      not\n        /* \"#utility.yul\":21503:21505   */\n      0x1f\n        /* \"#utility.yul\":21496:21501   */\n      dup4\n        /* \"#utility.yul\":21492:21506   */\n      add\n        /* \"#utility.yul\":21488:21516   */\n      and\n        /* \"#utility.yul\":21478:21516   */\n      swap1\n      pop\n        /* \"#utility.yul\":21420:21522   */\n      swap2\n      swap1\n      pop\n      jump\t// out\n        /* \"#utility.yul\":21528:21774   */\n    tag_357:\n        /* \"#utility.yul\":21668:21702   */\n      0x546865206d6574686f642067657454696d65496e5365636f6e647320646f6573\n        /* \"#utility.yul\":21664:21665   */\n      0x00\n        /* \"#utility.yul\":21656:21662   */\n      dup3\n        /* \"#utility.yul\":21652:21666   */\n      add\n        /* \"#utility.yul\":21645:21703   */\n      mstore\n        /* \"#utility.yul\":21737:21766   */\n      0x6e277420776f726b20666f72204d4f4e544820616e6420594541520000000000\n        /* \"#utility.yul\":21732:21734   */\n      0x20\n        /* \"#utility.yul\":21724:21730   */\n      dup3\n        /* \"#utility.yul\":21720:21735   */\n      add\n        /* \"#utility.yul\":21713:21767   */\n      mstore\n        /* \"#utility.yul\":21528:21774   */\n      pop\n      jump\t// out\n        /* \"#utility.yul\":21780:21902   */\n    tag_236:\n        /* \"#utility.yul\":21853:21877   */\n      tag_471\n        /* \"#utility.yul\":21871:21876   */\n      dup2\n        /* \"#utility.yul\":21853:21877   */\n      tag_374\n      jump\t// in\n    tag_471:\n        /* \"#utility.yul\":21846:21851   */\n      dup2\n        /* \"#utility.yul\":21843:21878   */\n      eq\n        /* \"#utility.yul\":21833:21896   */\n      tag_472\n      jumpi\n        /* \"#utility.yul\":21892:21893   */\n      0x00\n        /* \"#utility.yul\":21889:21890   */\n      dup1\n        /* \"#utility.yul\":21882:21894   */\n      revert\n        /* \"#utility.yul\":21833:21896   */\n    tag_472:\n        /* \"#utility.yul\":21780:21902   */\n      pop\n      jump\t// out\n        /* \"#utility.yul\":21908:22028   */\n    tag_240:\n        /* \"#utility.yul\":21980:22003   */\n      tag_474\n        /* \"#utility.yul\":21997:22002   */\n      dup2\n        /* \"#utility.yul\":21980:22003   */\n      tag_377\n      jump\t// in\n    tag_474:\n        /* \"#utility.yul\":21973:21978   */\n      dup2\n        /* \"#utility.yul\":21970:22004   */\n      eq\n        /* \"#utility.yul\":21960:22022   */\n      tag_475\n      jumpi\n        /* \"#utility.yul\":22018:22019   */\n      0x00\n        /* \"#utility.yul\":22015:22016   */\n      dup1\n        /* \"#utility.yul\":22008:22020   */\n      revert\n        /* \"#utility.yul\":21960:22022   */\n    tag_475:\n        /* \"#utility.yul\":21908:22028   */\n      pop\n      jump\t// out\n\n    auxdata: 0xa2646970667358221220bcb9bab658f5030a77b741836e321aaa292b285552baf6929a8c521507859c1a64736f6c63430008070033\n}\n",
				"bytecode": {
					"linkReferences": {},
					"object": "60806040523480156200001157600080fd5b5060006200002d600260006200043160201b62000df21760201c565b9080600181540180825580915050600190039060005260206000200160009091909190915060008201518160000160006101000a81548160ff021916908360ff16021790555060208201518160000160016101000a81548160ff021916908360ff16021790555060408201518160000160026101000a81548163ffffffff021916908363ffffffff16021790555060608201518160000160066101000a81548163ffffffff021916908363ffffffff16021790555050506000620000ff600260016200043160201b62000df21760201c565b9080600181540180825580915050600190039060005260206000200160009091909190915060008201518160000160006101000a81548160ff021916908360ff16021790555060208201518160000160016101000a81548160ff021916908360ff16021790555060408201518160000160026101000a81548163ffffffff021916908363ffffffff16021790555060608201518160000160066101000a81548163ffffffff021916908363ffffffff16021790555050506000620001d06002806200043160201b62000df21760201c565b9080600181540180825580915050600190039060005260206000200160009091909190915060008201518160000160006101000a81548160ff021916908360ff16021790555060208201518160000160016101000a81548160ff021916908360ff16021790555060408201518160000160026101000a81548163ffffffff021916908363ffffffff16021790555060608201518160000160066101000a81548163ffffffff021916908363ffffffff16021790555050506000620002a2600260036200043160201b62000df21760201c565b9080600181540180825580915050600190039060005260206000200160009091909190915060008201518160000160006101000a81548160ff021916908360ff16021790555060208201518160000160016101000a81548160ff021916908360ff16021790555060408201518160000160026101000a81548163ffffffff021916908363ffffffff16021790555060608201518160000160066101000a81548163ffffffff021916908363ffffffff1602179055505050600062000374600260046200043160201b62000df21760201c565b9080600181540180825580915050600190039060005260206000200160009091909190915060008201518160000160006101000a81548160ff021916908360ff16021790555060208201518160000160016101000a81548160ff021916908360ff16021790555060408201518160000160026101000a81548163ffffffff021916908363ffffffff16021790555060608201518160000160066101000a81548163ffffffff021916908363ffffffff1602179055505050620006fb565b6200043b62000594565b6000600460ff168360ff16116200046457620004618460ff1684620004a160201b60201c565b90505b60405180608001604052808560ff1681526020018460ff1681526020018263ffffffff168152602001600063ffffffff1681525091505092915050565b600080620004b583620004ce60201b60201c565b90508084620004c5919062000628565b91505092915050565b6000600460ff168260ff1611156200051d576040517f08c379a00000000000000000000000000000000000000000000000000000000081526004016200051490620005f5565b60405180910390fd5b600060ff168260ff1614156200053757600190506200058f565b600160ff168260ff1614156200055157603c90506200058f565b600260ff168260ff1614156200056c57610e1090506200058f565b600360ff168260ff16141562000588576201518090506200058f565b62093a8090505b919050565b6040518060800160405280600060ff168152602001600060ff168152602001600063ffffffff168152602001600063ffffffff1681525090565b6000620005dd603b8362000617565b9150620005ea82620006ac565b604082019050919050565b600060208201905081810360008301526200061081620005ce565b9050919050565b600082825260208201905092915050565b600062000635826200066d565b915062000642836200066d565b92508163ffffffff04831182151516156200066257620006616200067d565b5b828202905092915050565b600063ffffffff82169050919050565b7f4e487b7100000000000000000000000000000000000000000000000000000000600052601160045260246000fd5b7f546865206d6574686f642067657454696d65496e5365636f6e647320646f657360008201527f6e277420776f726b20666f72204d4f4e544820616e6420594541520000000000602082015250565b611d09806200070b6000396000f3fe608060405234801561001057600080fd5b506004361061009e5760003560e01c806383cd87e81161006657806383cd87e814610159578063b1f913d214610189578063c7478c22146101a8578063d6d1c613146101d8578063def86522146102085761009e565b80631bbedc8d146100a35780633bbf167c146100bf5780634a31c4ac146100dd5780637598a3f8146100f9578063768dc4ef14610129575b600080fd5b6100bd60048036038101906100b891906112c8565b610224565b005b6100c76105f4565b6040516100d491906117ed565b60405180910390f35b6100f760048036038101906100f29190611324565b6106d5565b005b610113600480360381019061010e9190611380565b610709565b6040516101209190611873565b60405180910390f35b610143600480360381019061013e919061127f565b6107c7565b604051610150919061188e565b60405180910390f35b610173600480360381019061016e919061127f565b610923565b6040516101809190611873565b60405180910390f35b6101916109e1565b60405161019f9291906117b6565b60405180910390f35b6101c260048036038101906101bd9190611324565b610c28565b6040516101cf919061180f565b60405180910390f35b6101f260048036038101906101ed91906113ad565b610cf3565b6040516101ff919061180f565b60405180910390f35b610222600480360381019061021d91906113ad565b610dbe565b005b6000805b6001548110156102bf5783604051602001610243919061180f565b604051602081830303815290604052805190602001206002828154811061026d5761026c611bd3565b5b906000526020600020016040516020016102879190611831565b6040516020818303038152906040528051906020012014156102ac57600191506102bf565b80806102b790611b2c565b915050610228565b50806104865761037c600083815481106102dc576102db611bd3565b5b906000526020600020016040518060800160405290816000820160009054906101000a900460ff1660ff1660ff1681526020016000820160019054906101000a900460ff1660ff1660ff1681526020016000820160029054906101000a900463ffffffff1663ffffffff1663ffffffff1681526020016000820160069054906101000a900463ffffffff1663ffffffff1663ffffffff1681525050610e57565b60038460405161038c9190611788565b908152602001604051809103902060008201518160000160006101000a81548160ff021916908360ff16021790555060208201518160000160016101000a81548160ff021916908360ff16021790555060408201518160000160026101000a81548163ffffffff021916908363ffffffff16021790555060608201518160000160066101000a81548163ffffffff021916908363ffffffff1602179055509050506002839080600181540180825580915050600190039060005260206000200160009091909190915090805190602001906104689291906110c8565b506001600081548092919061047c90611b2c565b91905055506105ef565b61053d6000838154811061049d5761049c611bd3565b5b906000526020600020016040518060800160405290816000820160009054906101000a900460ff1660ff1660ff1681526020016000820160019054906101000a900460ff1660ff1660ff1681526020016000820160029054906101000a900463ffffffff1663ffffffff1663ffffffff1681526020016000820160069054906101000a900463ffffffff1663ffffffff1663ffffffff1681525050610e57565b60038460405161054d9190611788565b908152602001604051809103902060008201518160000160006101000a81548160ff021916908360ff16021790555060208201518160000160016101000a81548160ff021916908360ff16021790555060408201518160000160026101000a81548163ffffffff021916908363ffffffff16021790555060608201518160000160066101000a81548163ffffffff021916908363ffffffff1602179055509050505b505050565b60606000805480602002602001604051908101604052809291908181526020016000905b828210156106cc578382906000526020600020016040518060800160405290816000820160009054906101000a900460ff1660ff1660ff1681526020016000820160019054906101000a900460ff1660ff1660ff1681526020016000820160029054906101000a900463ffffffff1663ffffffff1663ffffffff1681526020016000820160069054906101000a900463ffffffff1663ffffffff1663ffffffff168152505081526020019060010190610618565b50505050905090565b610705816003846040516106e99190611788565b9081526020016040518091039020610ea990919063ffffffff16565b5050565b61071161114e565b6000828154811061072557610724611bd3565b5b906000526020600020016040518060800160405290816000820160009054906101000a900460ff1660ff1660ff1681526020016000820160019054906101000a900460ff1660ff1660ff1681526020016000820160029054906101000a900463ffffffff1663ffffffff1663ffffffff1681526020016000820160069054906101000a900463ffffffff1663ffffffff1663ffffffff16815250509050919050565b60006003826040516107d99190611788565b9081526020016040518091039020600080820160006101000a81549060ff02191690556000820160016101000a81549060ff02191690556000820160026101000a81549063ffffffff02191690556000820160066101000a81549063ffffffff0219169055505060005b600154811015610918578260405160200161085e919061180f565b604051602081830303815290604052805190602001206002828154811061088857610887611bd3565b5b906000526020600020016040516020016108a29190611831565b60405160208183030381529060405280519060200120141561090557600281815481106108d2576108d1611bd3565b5b9060005260206000200160006108e89190611188565b600160008154809291906108fb90611a9f565b9190505550610918565b808061091090611b2c565b915050610843565b506001549050919050565b61092b61114e565b60038260405161093b9190611788565b90815260200160405180910390206040518060800160405290816000820160009054906101000a900460ff1660ff1660ff1681526020016000820160019054906101000a900460ff1660ff1660ff1681526020016000820160029054906101000a900463ffffffff1663ffffffff1663ffffffff1681526020016000820160069054906101000a900463ffffffff1663ffffffff1663ffffffff16815250509050919050565b606080600060015467ffffffffffffffff811115610a0257610a01611c02565b5b604051908082528060200260200182016040528015610a3b57816020015b610a2861114e565b815260200190600190039081610a205790505b50905060005b600154811015610b4857600360028281548110610a6157610a60611bd3565b5b90600052602060002001604051610a78919061179f565b90815260200160405180910390206040518060800160405290816000820160009054906101000a900460ff1660ff1660ff1681526020016000820160019054906101000a900460ff1660ff1660ff1681526020016000820160029054906101000a900463ffffffff1663ffffffff1663ffffffff1681526020016000820160069054906101000a900463ffffffff1663ffffffff1663ffffffff1681525050828281518110610b2a57610b29611bd3565b5b60200260200101819052508080610b4090611b2c565b915050610a41565b5060028181805480602002602001604051908101604052809291908181526020016000905b82821015610c19578382906000526020600020018054610b8c90611ac9565b80601f0160208091040260200160405190810160405280929190818152602001828054610bb890611ac9565b8015610c055780601f10610bda57610100808354040283529160200191610c05565b820191906000526020600020905b815481529060010190602001808311610be857829003601f168201915b505050505081526020019060010190610b6d565b50505050915092509250509091565b6060610ceb82600385604051610c3e9190611788565b90815260200160405180910390206040518060800160405290816000820160009054906101000a900460ff1660ff1660ff1681526020016000820160019054906101000a900460ff1660ff1660ff1681526020016000820160029054906101000a900463ffffffff1663ffffffff1663ffffffff1681526020016000820160069054906101000a900463ffffffff1663ffffffff1663ffffffff1681525050610f3e90919063ffffffff16565b905092915050565b6060610db68260008581548110610d0d57610d0c611bd3565b5b906000526020600020016040518060800160405290816000820160009054906101000a900460ff1660ff1660ff1681526020016000820160019054906101000a900460ff1660ff1660ff1681526020016000820160029054906101000a900463ffffffff1663ffffffff1663ffffffff1681526020016000820160069054906101000a900463ffffffff1663ffffffff1663ffffffff1681525050610f3e90919063ffffffff16565b905092915050565b610dee8160008481548110610dd657610dd5611bd3565b5b90600052602060002001610ea990919063ffffffff16565b5050565b610dfa61114e565b6000600460ff168360ff1611610e1a57610e178460ff1684610fea565b90505b60405180608001604052808560ff1681526020018460ff1681526020018263ffffffff168152602001600063ffffffff1681525091505092915050565b610e5f61114e565b6040518060800160405280836000015160ff168152602001836020015160ff168152602001836040015163ffffffff168152602001836060015163ffffffff168152509050919050565b60008260000160069054906101000a900463ffffffff1663ffffffff161480610ef257508160000160069054906101000a900463ffffffff1663ffffffff168163ffffffff1610155b15610f3a578160000160029054906101000a900463ffffffff1681610f1791906119be565b8260000160066101000a81548163ffffffff021916908363ffffffff1602179055505b5050565b60606000836060015163ffffffff161480610f695750826060015163ffffffff168263ffffffff1610155b15610fab576040518060400160405280600681526020017f434c4f53454400000000000000000000000000000000000000000000000000008152509050610fe4565b6040518060400160405280600481526020017f4f50454e0000000000000000000000000000000000000000000000000000000081525090505b92915050565b600080610ff68361100d565b9050808461100491906119f8565b91505092915050565b6000600460ff168260ff161115611059576040517f08c379a000000000000000000000000000000000000000000000000000000000815260040161105090611853565b60405180910390fd5b600060ff168260ff16141561107157600190506110c3565b600160ff168260ff16141561108957603c90506110c3565b600260ff168260ff1614156110a257610e1090506110c3565b600360ff168260ff1614156110bc576201518090506110c3565b62093a8090505b919050565b8280546110d490611ac9565b90600052602060002090601f0160209004810192826110f6576000855561113d565b82601f1061110f57805160ff191683800117855561113d565b8280016001018555821561113d579182015b8281111561113c578251825591602001919060010190611121565b5b50905061114a91906111c8565b5090565b6040518060800160405280600060ff168152602001600060ff168152602001600063ffffffff168152602001600063ffffffff1681525090565b50805461119490611ac9565b6000825580601f106111a657506111c5565b601f0160209004906000526020600020908101906111c491906111c8565b5b50565b5b808211156111e15760008160009055506001016111c9565b5090565b60006111f86111f3846118ce565b6118a9565b90508281526020810184848401111561121457611213611c36565b5b61121f848285611a5d565b509392505050565b600082601f83011261123c5761123b611c31565b5b813561124c8482602086016111e5565b91505092915050565b60008135905061126481611ca5565b92915050565b60008135905061127981611cbc565b92915050565b60006020828403121561129557611294611c40565b5b600082013567ffffffffffffffff8111156112b3576112b2611c3b565b5b6112bf84828501611227565b91505092915050565b600080604083850312156112df576112de611c40565b5b600083013567ffffffffffffffff8111156112fd576112fc611c3b565b5b61130985828601611227565b925050602061131a85828601611255565b9150509250929050565b6000806040838503121561133b5761133a611c40565b5b600083013567ffffffffffffffff81111561135957611358611c3b565b5b61136585828601611227565b92505060206113768582860161126a565b9150509250929050565b60006020828403121561139657611395611c40565b5b60006113a484828501611255565b91505092915050565b600080604083850312156113c4576113c3611c40565b5b60006113d285828601611255565b92505060206113e38582860161126a565b9150509250929050565b60006113f983836114ec565b905092915050565b600061140d83836116b1565b60808301905092915050565b600061142482611934565b61142e818561196f565b935083602082028501611440856118ff565b8060005b8581101561147c578484038952815161145d85826113ed565b945061146883611955565b925060208a01995050600181019050611444565b50829750879550505050505092915050565b60006114998261193f565b6114a38185611980565b93506114ae8361190f565b8060005b838110156114df5781516114c68882611401565b97506114d183611962565b9250506001810190506114b2565b5085935050505092915050565b60006114f78261194a565b6115018185611991565b9350611511818560208601611a6c565b61151a81611c45565b840191505092915050565b60006115308261194a565b61153a81856119a2565b935061154a818560208601611a6c565b61155381611c45565b840191505092915050565b60006115698261194a565b61157381856119b3565b9350611583818560208601611a6c565b80840191505092915050565b6000815461159c81611ac9565b6115a681866119a2565b945060018216600081146115c157600181146115d357611606565b60ff1983168652602086019350611606565b6115dc8561191f565b60005b838110156115fe578154818901526001820191506020810190506115df565b808801955050505b50505092915050565b6000815461161c81611ac9565b61162681866119b3565b94506001821660008114611641576001811461165257611685565b60ff19831686528186019350611685565b61165b8561191f565b60005b8381101561167d5781548189015260018201915060208101905061165e565b838801955050505b50505092915050565b600061169b603b836119a2565b91506116a682611c56565b604082019050919050565b6080820160008201516116c76000850182611779565b5060208201516116da6020850182611779565b5060408201516116ed604085018261176a565b506060820151611700606085018261176a565b50505050565b60808201600082015161171c6000850182611779565b50602082015161172f6020850182611779565b506040820151611742604085018261176a565b506060820151611755606085018261176a565b50505050565b61176481611a36565b82525050565b61177381611a40565b82525050565b61178281611a50565b82525050565b6000611794828461155e565b915081905092915050565b60006117ab828461160f565b915081905092915050565b600060408201905081810360008301526117d08185611419565b905081810360208301526117e4818461148e565b90509392505050565b60006020820190508181036000830152611807818461148e565b905092915050565b600060208201905081810360008301526118298184611525565b905092915050565b6000602082019050818103600083015261184b818461158f565b905092915050565b6000602082019050818103600083015261186c8161168e565b9050919050565b60006080820190506118886000830184611706565b92915050565b60006020820190506118a3600083018461175b565b92915050565b60006118b36118c4565b90506118bf8282611afb565b919050565b6000604051905090565b600067ffffffffffffffff8211156118e9576118e8611c02565b5b6118f282611c45565b9050602081019050919050565b6000819050602082019050919050565b6000819050602082019050919050565b60008190508160005260206000209050919050565b600081519050919050565b600081519050919050565b600081519050919050565b6000602082019050919050565b6000602082019050919050565b600082825260208201905092915050565b600082825260208201905092915050565b600082825260208201905092915050565b600082825260208201905092915050565b600081905092915050565b60006119c982611a40565b91506119d483611a40565b92508263ffffffff038211156119ed576119ec611b75565b5b828201905092915050565b6000611a0382611a40565b9150611a0e83611a40565b92508163ffffffff0483118215151615611a2b57611a2a611b75565b5b828202905092915050565b6000819050919050565b600063ffffffff82169050919050565b600060ff82169050919050565b82818337600083830152505050565b60005b83811015611a8a578082015181840152602081019050611a6f565b83811115611a99576000848401525b50505050565b6000611aaa82611a36565b91506000821415611abe57611abd611b75565b5b600182039050919050565b60006002820490506001821680611ae157607f821691505b60208210811415611af557611af4611ba4565b5b50919050565b611b0482611c45565b810181811067ffffffffffffffff82111715611b2357611b22611c02565b5b80604052505050565b6000611b3782611a36565b91507fffffffffffffffffffffffffffffffffffffffffffffffffffffffffffffffff821415611b6a57611b69611b75565b5b600182019050919050565b7f4e487b7100000000000000000000000000000000000000000000000000000000600052601160045260246000fd5b7f4e487b7100000000000000000000000000000000000000000000000000000000600052602260045260246000fd5b7f4e487b7100000000000000000000000000000000000000000000000000000000600052603260045260246000fd5b7f4e487b7100000000000000000000000000000000000000000000000000000000600052604160045260246000fd5b600080fd5b600080fd5b600080fd5b600080fd5b6000601f19601f8301169050919050565b7f546865206d6574686f642067657454696d65496e5365636f6e647320646f657360008201527f6e277420776f726b20666f72204d4f4e544820616e6420594541520000000000602082015250565b611cae81611a36565b8114611cb957600080fd5b50565b611cc581611a40565b8114611cd057600080fd5b5056fea2646970667358221220bcb9bab658f5030a77b741836e321aaa292b285552baf6929a8c521507859c1a64736f6c63430008070033",
					"opcodes": "PUSH1 0x80 PUSH1 0x40 MSTORE CALLVALUE DUP1 ISZERO PUSH3 0x11 JUMPI PUSH1 0x0 DUP1 REVERT JUMPDEST POP PUSH1 0x0 PUSH3 0x2D PUSH1 0x2 PUSH1 0x0 PUSH3 0x431 PUSH1 0x20 SHL PUSH3 0xDF2 OR PUSH1 0x20 SHR JUMP JUMPDEST SWAP1 DUP1 PUSH1 0x1 DUP2 SLOAD ADD DUP1 DUP3 SSTORE DUP1 SWAP2 POP POP PUSH1 0x1 SWAP1 SUB SWAP1 PUSH1 0x0 MSTORE PUSH1 0x20 PUSH1 0x0 KECCAK256 ADD PUSH1 0x0 SWAP1 SWAP2 SWAP1 SWAP2 SWAP1 SWAP2 POP PUSH1 0x0 DUP3 ADD MLOAD DUP2 PUSH1 0x0 ADD PUSH1 0x0 PUSH2 0x100 EXP DUP2 SLOAD DUP2 PUSH1 0xFF MUL NOT AND SWAP1 DUP4 PUSH1 0xFF AND MUL OR SWAP1 SSTORE POP PUSH1 0x20 DUP3 ADD MLOAD DUP2 PUSH1 0x0 ADD PUSH1 0x1 PUSH2 0x100 EXP DUP2 SLOAD DUP2 PUSH1 0xFF MUL NOT AND SWAP1 DUP4 PUSH1 0xFF AND MUL OR SWAP1 SSTORE POP PUSH1 0x40 DUP3 ADD MLOAD DUP2 PUSH1 0x0 ADD PUSH1 0x2 PUSH2 0x100 EXP DUP2 SLOAD DUP2 PUSH4 0xFFFFFFFF MUL NOT AND SWAP1 DUP4 PUSH4 0xFFFFFFFF AND MUL OR SWAP1 SSTORE POP PUSH1 0x60 DUP3 ADD MLOAD DUP2 PUSH1 0x0 ADD PUSH1 0x6 PUSH2 0x100 EXP DUP2 SLOAD DUP2 PUSH4 0xFFFFFFFF MUL NOT AND SWAP1 DUP4 PUSH4 0xFFFFFFFF AND MUL OR SWAP1 SSTORE POP POP POP PUSH1 0x0 PUSH3 0xFF PUSH1 0x2 PUSH1 0x1 PUSH3 0x431 PUSH1 0x20 SHL PUSH3 0xDF2 OR PUSH1 0x20 SHR JUMP JUMPDEST SWAP1 DUP1 PUSH1 0x1 DUP2 SLOAD ADD DUP1 DUP3 SSTORE DUP1 SWAP2 POP POP PUSH1 0x1 SWAP1 SUB SWAP1 PUSH1 0x0 MSTORE PUSH1 0x20 PUSH1 0x0 KECCAK256 ADD PUSH1 0x0 SWAP1 SWAP2 SWAP1 SWAP2 SWAP1 SWAP2 POP PUSH1 0x0 DUP3 ADD MLOAD DUP2 PUSH1 0x0 ADD PUSH1 0x0 PUSH2 0x100 EXP DUP2 SLOAD DUP2 PUSH1 0xFF MUL NOT AND SWAP1 DUP4 PUSH1 0xFF AND MUL OR SWAP1 SSTORE POP PUSH1 0x20 DUP3 ADD MLOAD DUP2 PUSH1 0x0 ADD PUSH1 0x1 PUSH2 0x100 EXP DUP2 SLOAD DUP2 PUSH1 0xFF MUL NOT AND SWAP1 DUP4 PUSH1 0xFF AND MUL OR SWAP1 SSTORE POP PUSH1 0x40 DUP3 ADD MLOAD DUP2 PUSH1 0x0 ADD PUSH1 0x2 PUSH2 0x100 EXP DUP2 SLOAD DUP2 PUSH4 0xFFFFFFFF MUL NOT AND SWAP1 DUP4 PUSH4 0xFFFFFFFF AND MUL OR SWAP1 SSTORE POP PUSH1 0x60 DUP3 ADD MLOAD DUP2 PUSH1 0x0 ADD PUSH1 0x6 PUSH2 0x100 EXP DUP2 SLOAD DUP2 PUSH4 0xFFFFFFFF MUL NOT AND SWAP1 DUP4 PUSH4 0xFFFFFFFF AND MUL OR SWAP1 SSTORE POP POP POP PUSH1 0x0 PUSH3 0x1D0 PUSH1 0x2 DUP1 PUSH3 0x431 PUSH1 0x20 SHL PUSH3 0xDF2 OR PUSH1 0x20 SHR JUMP JUMPDEST SWAP1 DUP1 PUSH1 0x1 DUP2 SLOAD ADD DUP1 DUP3 SSTORE DUP1 SWAP2 POP POP PUSH1 0x1 SWAP1 SUB SWAP1 PUSH1 0x0 MSTORE PUSH1 0x20 PUSH1 0x0 KECCAK256 ADD PUSH1 0x0 SWAP1 SWAP2 SWAP1 SWAP2 SWAP1 SWAP2 POP PUSH1 0x0 DUP3 ADD MLOAD DUP2 PUSH1 0x0 ADD PUSH1 0x0 PUSH2 0x100 EXP DUP2 SLOAD DUP2 PUSH1 0xFF MUL NOT AND SWAP1 DUP4 PUSH1 0xFF AND MUL OR SWAP1 SSTORE POP PUSH1 0x20 DUP3 ADD MLOAD DUP2 PUSH1 0x0 ADD PUSH1 0x1 PUSH2 0x100 EXP DUP2 SLOAD DUP2 PUSH1 0xFF MUL NOT AND SWAP1 DUP4 PUSH1 0xFF AND MUL OR SWAP1 SSTORE POP PUSH1 0x40 DUP3 ADD MLOAD DUP2 PUSH1 0x0 ADD PUSH1 0x2 PUSH2 0x100 EXP DUP2 SLOAD DUP2 PUSH4 0xFFFFFFFF MUL NOT AND SWAP1 DUP4 PUSH4 0xFFFFFFFF AND MUL OR SWAP1 SSTORE POP PUSH1 0x60 DUP3 ADD MLOAD DUP2 PUSH1 0x0 ADD PUSH1 0x6 PUSH2 0x100 EXP DUP2 SLOAD DUP2 PUSH4 0xFFFFFFFF MUL NOT AND SWAP1 DUP4 PUSH4 0xFFFFFFFF AND MUL OR SWAP1 SSTORE POP POP POP PUSH1 0x0 PUSH3 0x2A2 PUSH1 0x2 PUSH1 0x3 PUSH3 0x431 PUSH1 0x20 SHL PUSH3 0xDF2 OR PUSH1 0x20 SHR JUMP JUMPDEST SWAP1 DUP1 PUSH1 0x1 DUP2 SLOAD ADD DUP1 DUP3 SSTORE DUP1 SWAP2 POP POP PUSH1 0x1 SWAP1 SUB SWAP1 PUSH1 0x0 MSTORE PUSH1 0x20 PUSH1 0x0 KECCAK256 ADD PUSH1 0x0 SWAP1 SWAP2 SWAP1 SWAP2 SWAP1 SWAP2 POP PUSH1 0x0 DUP3 ADD MLOAD DUP2 PUSH1 0x0 ADD PUSH1 0x0 PUSH2 0x100 EXP DUP2 SLOAD DUP2 PUSH1 0xFF MUL NOT AND SWAP1 DUP4 PUSH1 0xFF AND MUL OR SWAP1 SSTORE POP PUSH1 0x20 DUP3 ADD MLOAD DUP2 PUSH1 0x0 ADD PUSH1 0x1 PUSH2 0x100 EXP DUP2 SLOAD DUP2 PUSH1 0xFF MUL NOT AND SWAP1 DUP4 PUSH1 0xFF AND MUL OR SWAP1 SSTORE POP PUSH1 0x40 DUP3 ADD MLOAD DUP2 PUSH1 0x0 ADD PUSH1 0x2 PUSH2 0x100 EXP DUP2 SLOAD DUP2 PUSH4 0xFFFFFFFF MUL NOT AND SWAP1 DUP4 PUSH4 0xFFFFFFFF AND MUL OR SWAP1 SSTORE POP PUSH1 0x60 DUP3 ADD MLOAD DUP2 PUSH1 0x0 ADD PUSH1 0x6 PUSH2 0x100 EXP DUP2 SLOAD DUP2 PUSH4 0xFFFFFFFF MUL NOT AND SWAP1 DUP4 PUSH4 0xFFFFFFFF AND MUL OR SWAP1 SSTORE POP POP POP PUSH1 0x0 PUSH3 0x374 PUSH1 0x2 PUSH1 0x4 PUSH3 0x431 PUSH1 0x20 SHL PUSH3 0xDF2 OR PUSH1 0x20 SHR JUMP JUMPDEST SWAP1 DUP1 PUSH1 0x1 DUP2 SLOAD ADD DUP1 DUP3 SSTORE DUP1 SWAP2 POP POP PUSH1 0x1 SWAP1 SUB SWAP1 PUSH1 0x0 MSTORE PUSH1 0x20 PUSH1 0x0 KECCAK256 ADD PUSH1 0x0 SWAP1 SWAP2 SWAP1 SWAP2 SWAP1 SWAP2 POP PUSH1 0x0 DUP3 ADD MLOAD DUP2 PUSH1 0x0 ADD PUSH1 0x0 PUSH2 0x100 EXP DUP2 SLOAD DUP2 PUSH1 0xFF MUL NOT AND SWAP1 DUP4 PUSH1 0xFF AND MUL OR SWAP1 SSTORE POP PUSH1 0x20 DUP3 ADD MLOAD DUP2 PUSH1 0x0 ADD PUSH1 0x1 PUSH2 0x100 EXP DUP2 SLOAD DUP2 PUSH1 0xFF MUL NOT AND SWAP1 DUP4 PUSH1 0xFF AND MUL OR SWAP1 SSTORE POP PUSH1 0x40 DUP3 ADD MLOAD DUP2 PUSH1 0x0 ADD PUSH1 0x2 PUSH2 0x100 EXP DUP2 SLOAD DUP2 PUSH4 0xFFFFFFFF MUL NOT AND SWAP1 DUP4 PUSH4 0xFFFFFFFF AND MUL OR SWAP1 SSTORE POP PUSH1 0x60 DUP3 ADD MLOAD DUP2 PUSH1 0x0 ADD PUSH1 0x6 PUSH2 0x100 EXP DUP2 SLOAD DUP2 PUSH4 0xFFFFFFFF MUL NOT AND SWAP1 DUP4 PUSH4 0xFFFFFFFF AND MUL OR SWAP1 SSTORE POP POP POP PUSH3 0x6FB JUMP JUMPDEST PUSH3 0x43B PUSH3 0x594 JUMP JUMPDEST PUSH1 0x0 PUSH1 0x4 PUSH1 0xFF AND DUP4 PUSH1 0xFF AND GT PUSH3 0x464 JUMPI PUSH3 0x461 DUP5 PUSH1 0xFF AND DUP5 PUSH3 0x4A1 PUSH1 0x20 SHL PUSH1 0x20 SHR JUMP JUMPDEST SWAP1 POP JUMPDEST PUSH1 0x40 MLOAD DUP1 PUSH1 0x80 ADD PUSH1 0x40 MSTORE DUP1 DUP6 PUSH1 0xFF AND DUP2 MSTORE PUSH1 0x20 ADD DUP5 PUSH1 0xFF AND DUP2 MSTORE PUSH1 0x20 ADD DUP3 PUSH4 0xFFFFFFFF AND DUP2 MSTORE PUSH1 0x20 ADD PUSH1 0x0 PUSH4 0xFFFFFFFF AND DUP2 MSTORE POP SWAP2 POP POP SWAP3 SWAP2 POP POP JUMP JUMPDEST PUSH1 0x0 DUP1 PUSH3 0x4B5 DUP4 PUSH3 0x4CE PUSH1 0x20 SHL PUSH1 0x20 SHR JUMP JUMPDEST SWAP1 POP DUP1 DUP5 PUSH3 0x4C5 SWAP2 SWAP1 PUSH3 0x628 JUMP JUMPDEST SWAP2 POP POP SWAP3 SWAP2 POP POP JUMP JUMPDEST PUSH1 0x0 PUSH1 0x4 PUSH1 0xFF AND DUP3 PUSH1 0xFF AND GT ISZERO PUSH3 0x51D JUMPI PUSH1 0x40 MLOAD PUSH32 0x8C379A000000000000000000000000000000000000000000000000000000000 DUP2 MSTORE PUSH1 0x4 ADD PUSH3 0x514 SWAP1 PUSH3 0x5F5 JUMP JUMPDEST PUSH1 0x40 MLOAD DUP1 SWAP2 SUB SWAP1 REVERT JUMPDEST PUSH1 0x0 PUSH1 0xFF AND DUP3 PUSH1 0xFF AND EQ ISZERO PUSH3 0x537 JUMPI PUSH1 0x1 SWAP1 POP PUSH3 0x58F JUMP JUMPDEST PUSH1 0x1 PUSH1 0xFF AND DUP3 PUSH1 0xFF AND EQ ISZERO PUSH3 0x551 JUMPI PUSH1 0x3C SWAP1 POP PUSH3 0x58F JUMP JUMPDEST PUSH1 0x2 PUSH1 0xFF AND DUP3 PUSH1 0xFF AND EQ ISZERO PUSH3 0x56C JUMPI PUSH2 0xE10 SWAP1 POP PUSH3 0x58F JUMP JUMPDEST PUSH1 0x3 PUSH1 0xFF AND DUP3 PUSH1 0xFF AND EQ ISZERO PUSH3 0x588 JUMPI PUSH3 0x15180 SWAP1 POP PUSH3 0x58F JUMP JUMPDEST PUSH3 0x93A80 SWAP1 POP JUMPDEST SWAP2 SWAP1 POP JUMP JUMPDEST PUSH1 0x40 MLOAD DUP1 PUSH1 0x80 ADD PUSH1 0x40 MSTORE DUP1 PUSH1 0x0 PUSH1 0xFF AND DUP2 MSTORE PUSH1 0x20 ADD PUSH1 0x0 PUSH1 0xFF AND DUP2 MSTORE PUSH1 0x20 ADD PUSH1 0x0 PUSH4 0xFFFFFFFF AND DUP2 MSTORE PUSH1 0x20 ADD PUSH1 0x0 PUSH4 0xFFFFFFFF AND DUP2 MSTORE POP SWAP1 JUMP JUMPDEST PUSH1 0x0 PUSH3 0x5DD PUSH1 0x3B DUP4 PUSH3 0x617 JUMP JUMPDEST SWAP2 POP PUSH3 0x5EA DUP3 PUSH3 0x6AC JUMP JUMPDEST PUSH1 0x40 DUP3 ADD SWAP1 POP SWAP2 SWAP1 POP JUMP JUMPDEST PUSH1 0x0 PUSH1 0x20 DUP3 ADD SWAP1 POP DUP2 DUP2 SUB PUSH1 0x0 DUP4 ADD MSTORE PUSH3 0x610 DUP2 PUSH3 0x5CE JUMP JUMPDEST SWAP1 POP SWAP2 SWAP1 POP JUMP JUMPDEST PUSH1 0x0 DUP3 DUP3 MSTORE PUSH1 0x20 DUP3 ADD SWAP1 POP SWAP3 SWAP2 POP POP JUMP JUMPDEST PUSH1 0x0 PUSH3 0x635 DUP3 PUSH3 0x66D JUMP JUMPDEST SWAP2 POP PUSH3 0x642 DUP4 PUSH3 0x66D JUMP JUMPDEST SWAP3 POP DUP2 PUSH4 0xFFFFFFFF DIV DUP4 GT DUP3 ISZERO ISZERO AND ISZERO PUSH3 0x662 JUMPI PUSH3 0x661 PUSH3 0x67D JUMP JUMPDEST JUMPDEST DUP3 DUP3 MUL SWAP1 POP SWAP3 SWAP2 POP POP JUMP JUMPDEST PUSH1 0x0 PUSH4 0xFFFFFFFF DUP3 AND SWAP1 POP SWAP2 SWAP1 POP JUMP JUMPDEST PUSH32 0x4E487B7100000000000000000000000000000000000000000000000000000000 PUSH1 0x0 MSTORE PUSH1 0x11 PUSH1 0x4 MSTORE PUSH1 0x24 PUSH1 0x0 REVERT JUMPDEST PUSH32 0x546865206D6574686F642067657454696D65496E5365636F6E647320646F6573 PUSH1 0x0 DUP3 ADD MSTORE PUSH32 0x6E277420776F726B20666F72204D4F4E544820616E6420594541520000000000 PUSH1 0x20 DUP3 ADD MSTORE POP JUMP JUMPDEST PUSH2 0x1D09 DUP1 PUSH3 0x70B PUSH1 0x0 CODECOPY PUSH1 0x0 RETURN INVALID PUSH1 0x80 PUSH1 0x40 MSTORE CALLVALUE DUP1 ISZERO PUSH2 0x10 JUMPI PUSH1 0x0 DUP1 REVERT JUMPDEST POP PUSH1 0x4 CALLDATASIZE LT PUSH2 0x9E JUMPI PUSH1 0x0 CALLDATALOAD PUSH1 0xE0 SHR DUP1 PUSH4 0x83CD87E8 GT PUSH2 0x66 JUMPI DUP1 PUSH4 0x83CD87E8 EQ PUSH2 0x159 JUMPI DUP1 PUSH4 0xB1F913D2 EQ PUSH2 0x189 JUMPI DUP1 PUSH4 0xC7478C22 EQ PUSH2 0x1A8 JUMPI DUP1 PUSH4 0xD6D1C613 EQ PUSH2 0x1D8 JUMPI DUP1 PUSH4 0xDEF86522 EQ PUSH2 0x208 JUMPI PUSH2 0x9E JUMP JUMPDEST DUP1 PUSH4 0x1BBEDC8D EQ PUSH2 0xA3 JUMPI DUP1 PUSH4 0x3BBF167C EQ PUSH2 0xBF JUMPI DUP1 PUSH4 0x4A31C4AC EQ PUSH2 0xDD JUMPI DUP1 PUSH4 0x7598A3F8 EQ PUSH2 0xF9 JUMPI DUP1 PUSH4 0x768DC4EF EQ PUSH2 0x129 JUMPI JUMPDEST PUSH1 0x0 DUP1 REVERT JUMPDEST PUSH2 0xBD PUSH1 0x4 DUP1 CALLDATASIZE SUB DUP2 ADD SWAP1 PUSH2 0xB8 SWAP2 SWAP1 PUSH2 0x12C8 JUMP JUMPDEST PUSH2 0x224 JUMP JUMPDEST STOP JUMPDEST PUSH2 0xC7 PUSH2 0x5F4 JUMP JUMPDEST PUSH1 0x40 MLOAD PUSH2 0xD4 SWAP2 SWAP1 PUSH2 0x17ED JUMP JUMPDEST PUSH1 0x40 MLOAD DUP1 SWAP2 SUB SWAP1 RETURN JUMPDEST PUSH2 0xF7 PUSH1 0x4 DUP1 CALLDATASIZE SUB DUP2 ADD SWAP1 PUSH2 0xF2 SWAP2 SWAP1 PUSH2 0x1324 JUMP JUMPDEST PUSH2 0x6D5 JUMP JUMPDEST STOP JUMPDEST PUSH2 0x113 PUSH1 0x4 DUP1 CALLDATASIZE SUB DUP2 ADD SWAP1 PUSH2 0x10E SWAP2 SWAP1 PUSH2 0x1380 JUMP JUMPDEST PUSH2 0x709 JUMP JUMPDEST PUSH1 0x40 MLOAD PUSH2 0x120 SWAP2 SWAP1 PUSH2 0x1873 JUMP JUMPDEST PUSH1 0x40 MLOAD DUP1 SWAP2 SUB SWAP1 RETURN JUMPDEST PUSH2 0x143 PUSH1 0x4 DUP1 CALLDATASIZE SUB DUP2 ADD SWAP1 PUSH2 0x13E SWAP2 SWAP1 PUSH2 0x127F JUMP JUMPDEST PUSH2 0x7C7 JUMP JUMPDEST PUSH1 0x40 MLOAD PUSH2 0x150 SWAP2 SWAP1 PUSH2 0x188E JUMP JUMPDEST PUSH1 0x40 MLOAD DUP1 SWAP2 SUB SWAP1 RETURN JUMPDEST PUSH2 0x173 PUSH1 0x4 DUP1 CALLDATASIZE SUB DUP2 ADD SWAP1 PUSH2 0x16E SWAP2 SWAP1 PUSH2 0x127F JUMP JUMPDEST PUSH2 0x923 JUMP JUMPDEST PUSH1 0x40 MLOAD PUSH2 0x180 SWAP2 SWAP1 PUSH2 0x1873 JUMP JUMPDEST PUSH1 0x40 MLOAD DUP1 SWAP2 SUB SWAP1 RETURN JUMPDEST PUSH2 0x191 PUSH2 0x9E1 JUMP JUMPDEST PUSH1 0x40 MLOAD PUSH2 0x19F SWAP3 SWAP2 SWAP1 PUSH2 0x17B6 JUMP JUMPDEST PUSH1 0x40 MLOAD DUP1 SWAP2 SUB SWAP1 RETURN JUMPDEST PUSH2 0x1C2 PUSH1 0x4 DUP1 CALLDATASIZE SUB DUP2 ADD SWAP1 PUSH2 0x1BD SWAP2 SWAP1 PUSH2 0x1324 JUMP JUMPDEST PUSH2 0xC28 JUMP JUMPDEST PUSH1 0x40 MLOAD PUSH2 0x1CF SWAP2 SWAP1 PUSH2 0x180F JUMP JUMPDEST PUSH1 0x40 MLOAD DUP1 SWAP2 SUB SWAP1 RETURN JUMPDEST PUSH2 0x1F2 PUSH1 0x4 DUP1 CALLDATASIZE SUB DUP2 ADD SWAP1 PUSH2 0x1ED SWAP2 SWAP1 PUSH2 0x13AD JUMP JUMPDEST PUSH2 0xCF3 JUMP JUMPDEST PUSH1 0x40 MLOAD PUSH2 0x1FF SWAP2 SWAP1 PUSH2 0x180F JUMP JUMPDEST PUSH1 0x40 MLOAD DUP1 SWAP2 SUB SWAP1 RETURN JUMPDEST PUSH2 0x222 PUSH1 0x4 DUP1 CALLDATASIZE SUB DUP2 ADD SWAP1 PUSH2 0x21D SWAP2 SWAP1 PUSH2 0x13AD JUMP JUMPDEST PUSH2 0xDBE JUMP JUMPDEST STOP JUMPDEST PUSH1 0x0 DUP1 JUMPDEST PUSH1 0x1 SLOAD DUP2 LT ISZERO PUSH2 0x2BF JUMPI DUP4 PUSH1 0x40 MLOAD PUSH1 0x20 ADD PUSH2 0x243 SWAP2 SWAP1 PUSH2 0x180F JUMP JUMPDEST PUSH1 0x40 MLOAD PUSH1 0x20 DUP2 DUP4 SUB SUB DUP2 MSTORE SWAP1 PUSH1 0x40 MSTORE DUP1 MLOAD SWAP1 PUSH1 0x20 ADD KECCAK256 PUSH1 0x2 DUP3 DUP2 SLOAD DUP2 LT PUSH2 0x26D JUMPI PUSH2 0x26C PUSH2 0x1BD3 JUMP JUMPDEST JUMPDEST SWAP1 PUSH1 0x0 MSTORE PUSH1 0x20 PUSH1 0x0 KECCAK256 ADD PUSH1 0x40 MLOAD PUSH1 0x20 ADD PUSH2 0x287 SWAP2 SWAP1 PUSH2 0x1831 JUMP JUMPDEST PUSH1 0x40 MLOAD PUSH1 0x20 DUP2 DUP4 SUB SUB DUP2 MSTORE SWAP1 PUSH1 0x40 MSTORE DUP1 MLOAD SWAP1 PUSH1 0x20 ADD KECCAK256 EQ ISZERO PUSH2 0x2AC JUMPI PUSH1 0x1 SWAP2 POP PUSH2 0x2BF JUMP JUMPDEST DUP1 DUP1 PUSH2 0x2B7 SWAP1 PUSH2 0x1B2C JUMP JUMPDEST SWAP2 POP POP PUSH2 0x228 JUMP JUMPDEST POP DUP1 PUSH2 0x486 JUMPI PUSH2 0x37C PUSH1 0x0 DUP4 DUP2 SLOAD DUP2 LT PUSH2 0x2DC JUMPI PUSH2 0x2DB PUSH2 0x1BD3 JUMP JUMPDEST JUMPDEST SWAP1 PUSH1 0x0 MSTORE PUSH1 0x20 PUSH1 0x0 KECCAK256 ADD PUSH1 0x40 MLOAD DUP1 PUSH1 0x80 ADD PUSH1 0x40 MSTORE SWAP1 DUP2 PUSH1 0x0 DUP3 ADD PUSH1 0x0 SWAP1 SLOAD SWAP1 PUSH2 0x100 EXP SWAP1 DIV PUSH1 0xFF AND PUSH1 0xFF AND PUSH1 0xFF AND DUP2 MSTORE PUSH1 0x20 ADD PUSH1 0x0 DUP3 ADD PUSH1 0x1 SWAP1 SLOAD SWAP1 PUSH2 0x100 EXP SWAP1 DIV PUSH1 0xFF AND PUSH1 0xFF AND PUSH1 0xFF AND DUP2 MSTORE PUSH1 0x20 ADD PUSH1 0x0 DUP3 ADD PUSH1 0x2 SWAP1 SLOAD SWAP1 PUSH2 0x100 EXP SWAP1 DIV PUSH4 0xFFFFFFFF AND PUSH4 0xFFFFFFFF AND PUSH4 0xFFFFFFFF AND DUP2 MSTORE PUSH1 0x20 ADD PUSH1 0x0 DUP3 ADD PUSH1 0x6 SWAP1 SLOAD SWAP1 PUSH2 0x100 EXP SWAP1 DIV PUSH4 0xFFFFFFFF AND PUSH4 0xFFFFFFFF AND PUSH4 0xFFFFFFFF AND DUP2 MSTORE POP POP PUSH2 0xE57 JUMP JUMPDEST PUSH1 0x3 DUP5 PUSH1 0x40 MLOAD PUSH2 0x38C SWAP2 SWAP1 PUSH2 0x1788 JUMP JUMPDEST SWAP1 DUP2 MSTORE PUSH1 0x20 ADD PUSH1 0x40 MLOAD DUP1 SWAP2 SUB SWAP1 KECCAK256 PUSH1 0x0 DUP3 ADD MLOAD DUP2 PUSH1 0x0 ADD PUSH1 0x0 PUSH2 0x100 EXP DUP2 SLOAD DUP2 PUSH1 0xFF MUL NOT AND SWAP1 DUP4 PUSH1 0xFF AND MUL OR SWAP1 SSTORE POP PUSH1 0x20 DUP3 ADD MLOAD DUP2 PUSH1 0x0 ADD PUSH1 0x1 PUSH2 0x100 EXP DUP2 SLOAD DUP2 PUSH1 0xFF MUL NOT AND SWAP1 DUP4 PUSH1 0xFF AND MUL OR SWAP1 SSTORE POP PUSH1 0x40 DUP3 ADD MLOAD DUP2 PUSH1 0x0 ADD PUSH1 0x2 PUSH2 0x100 EXP DUP2 SLOAD DUP2 PUSH4 0xFFFFFFFF MUL NOT AND SWAP1 DUP4 PUSH4 0xFFFFFFFF AND MUL OR SWAP1 SSTORE POP PUSH1 0x60 DUP3 ADD MLOAD DUP2 PUSH1 0x0 ADD PUSH1 0x6 PUSH2 0x100 EXP DUP2 SLOAD DUP2 PUSH4 0xFFFFFFFF MUL NOT AND SWAP1 DUP4 PUSH4 0xFFFFFFFF AND MUL OR SWAP1 SSTORE POP SWAP1 POP POP PUSH1 0x2 DUP4 SWAP1 DUP1 PUSH1 0x1 DUP2 SLOAD ADD DUP1 DUP3 SSTORE DUP1 SWAP2 POP POP PUSH1 0x1 SWAP1 SUB SWAP1 PUSH1 0x0 MSTORE PUSH1 0x20 PUSH1 0x0 KECCAK256 ADD PUSH1 0x0 SWAP1 SWAP2 SWAP1 SWAP2 SWAP1 SWAP2 POP SWAP1 DUP1 MLOAD SWAP1 PUSH1 0x20 ADD SWAP1 PUSH2 0x468 SWAP3 SWAP2 SWAP1 PUSH2 0x10C8 JUMP JUMPDEST POP PUSH1 0x1 PUSH1 0x0 DUP2 SLOAD DUP1 SWAP3 SWAP2 SWAP1 PUSH2 0x47C SWAP1 PUSH2 0x1B2C JUMP JUMPDEST SWAP2 SWAP1 POP SSTORE POP PUSH2 0x5EF JUMP JUMPDEST PUSH2 0x53D PUSH1 0x0 DUP4 DUP2 SLOAD DUP2 LT PUSH2 0x49D JUMPI PUSH2 0x49C PUSH2 0x1BD3 JUMP JUMPDEST JUMPDEST SWAP1 PUSH1 0x0 MSTORE PUSH1 0x20 PUSH1 0x0 KECCAK256 ADD PUSH1 0x40 MLOAD DUP1 PUSH1 0x80 ADD PUSH1 0x40 MSTORE SWAP1 DUP2 PUSH1 0x0 DUP3 ADD PUSH1 0x0 SWAP1 SLOAD SWAP1 PUSH2 0x100 EXP SWAP1 DIV PUSH1 0xFF AND PUSH1 0xFF AND PUSH1 0xFF AND DUP2 MSTORE PUSH1 0x20 ADD PUSH1 0x0 DUP3 ADD PUSH1 0x1 SWAP1 SLOAD SWAP1 PUSH2 0x100 EXP SWAP1 DIV PUSH1 0xFF AND PUSH1 0xFF AND PUSH1 0xFF AND DUP2 MSTORE PUSH1 0x20 ADD PUSH1 0x0 DUP3 ADD PUSH1 0x2 SWAP1 SLOAD SWAP1 PUSH2 0x100 EXP SWAP1 DIV PUSH4 0xFFFFFFFF AND PUSH4 0xFFFFFFFF AND PUSH4 0xFFFFFFFF AND DUP2 MSTORE PUSH1 0x20 ADD PUSH1 0x0 DUP3 ADD PUSH1 0x6 SWAP1 SLOAD SWAP1 PUSH2 0x100 EXP SWAP1 DIV PUSH4 0xFFFFFFFF AND PUSH4 0xFFFFFFFF AND PUSH4 0xFFFFFFFF AND DUP2 MSTORE POP POP PUSH2 0xE57 JUMP JUMPDEST PUSH1 0x3 DUP5 PUSH1 0x40 MLOAD PUSH2 0x54D SWAP2 SWAP1 PUSH2 0x1788 JUMP JUMPDEST SWAP1 DUP2 MSTORE PUSH1 0x20 ADD PUSH1 0x40 MLOAD DUP1 SWAP2 SUB SWAP1 KECCAK256 PUSH1 0x0 DUP3 ADD MLOAD DUP2 PUSH1 0x0 ADD PUSH1 0x0 PUSH2 0x100 EXP DUP2 SLOAD DUP2 PUSH1 0xFF MUL NOT AND SWAP1 DUP4 PUSH1 0xFF AND MUL OR SWAP1 SSTORE POP PUSH1 0x20 DUP3 ADD MLOAD DUP2 PUSH1 0x0 ADD PUSH1 0x1 PUSH2 0x100 EXP DUP2 SLOAD DUP2 PUSH1 0xFF MUL NOT AND SWAP1 DUP4 PUSH1 0xFF AND MUL OR SWAP1 SSTORE POP PUSH1 0x40 DUP3 ADD MLOAD DUP2 PUSH1 0x0 ADD PUSH1 0x2 PUSH2 0x100 EXP DUP2 SLOAD DUP2 PUSH4 0xFFFFFFFF MUL NOT AND SWAP1 DUP4 PUSH4 0xFFFFFFFF AND MUL OR SWAP1 SSTORE POP PUSH1 0x60 DUP3 ADD MLOAD DUP2 PUSH1 0x0 ADD PUSH1 0x6 PUSH2 0x100 EXP DUP2 SLOAD DUP2 PUSH4 0xFFFFFFFF MUL NOT AND SWAP1 DUP4 PUSH4 0xFFFFFFFF AND MUL OR SWAP1 SSTORE POP SWAP1 POP POP JUMPDEST POP POP POP JUMP JUMPDEST PUSH1 0x60 PUSH1 0x0 DUP1 SLOAD DUP1 PUSH1 0x20 MUL PUSH1 0x20 ADD PUSH1 0x40 MLOAD SWAP1 DUP2 ADD PUSH1 0x40 MSTORE DUP1 SWAP3 SWAP2 SWAP1 DUP2 DUP2 MSTORE PUSH1 0x20 ADD PUSH1 0x0 SWAP1 JUMPDEST DUP3 DUP3 LT ISZERO PUSH2 0x6CC JUMPI DUP4 DUP3 SWAP1 PUSH1 0x0 MSTORE PUSH1 0x20 PUSH1 0x0 KECCAK256 ADD PUSH1 0x40 MLOAD DUP1 PUSH1 0x80 ADD PUSH1 0x40 MSTORE SWAP1 DUP2 PUSH1 0x0 DUP3 ADD PUSH1 0x0 SWAP1 SLOAD SWAP1 PUSH2 0x100 EXP SWAP1 DIV PUSH1 0xFF AND PUSH1 0xFF AND PUSH1 0xFF AND DUP2 MSTORE PUSH1 0x20 ADD PUSH1 0x0 DUP3 ADD PUSH1 0x1 SWAP1 SLOAD SWAP1 PUSH2 0x100 EXP SWAP1 DIV PUSH1 0xFF AND PUSH1 0xFF AND PUSH1 0xFF AND DUP2 MSTORE PUSH1 0x20 ADD PUSH1 0x0 DUP3 ADD PUSH1 0x2 SWAP1 SLOAD SWAP1 PUSH2 0x100 EXP SWAP1 DIV PUSH4 0xFFFFFFFF AND PUSH4 0xFFFFFFFF AND PUSH4 0xFFFFFFFF AND DUP2 MSTORE PUSH1 0x20 ADD PUSH1 0x0 DUP3 ADD PUSH1 0x6 SWAP1 SLOAD SWAP1 PUSH2 0x100 EXP SWAP1 DIV PUSH4 0xFFFFFFFF AND PUSH4 0xFFFFFFFF AND PUSH4 0xFFFFFFFF AND DUP2 MSTORE POP POP DUP2 MSTORE PUSH1 0x20 ADD SWAP1 PUSH1 0x1 ADD SWAP1 PUSH2 0x618 JUMP JUMPDEST POP POP POP POP SWAP1 POP SWAP1 JUMP JUMPDEST PUSH2 0x705 DUP2 PUSH1 0x3 DUP5 PUSH1 0x40 MLOAD PUSH2 0x6E9 SWAP2 SWAP1 PUSH2 0x1788 JUMP JUMPDEST SWAP1 DUP2 MSTORE PUSH1 0x20 ADD PUSH1 0x40 MLOAD DUP1 SWAP2 SUB SWAP1 KECCAK256 PUSH2 0xEA9 SWAP1 SWAP2 SWAP1 PUSH4 0xFFFFFFFF AND JUMP JUMPDEST POP POP JUMP JUMPDEST PUSH2 0x711 PUSH2 0x114E JUMP JUMPDEST PUSH1 0x0 DUP3 DUP2 SLOAD DUP2 LT PUSH2 0x725 JUMPI PUSH2 0x724 PUSH2 0x1BD3 JUMP JUMPDEST JUMPDEST SWAP1 PUSH1 0x0 MSTORE PUSH1 0x20 PUSH1 0x0 KECCAK256 ADD PUSH1 0x40 MLOAD DUP1 PUSH1 0x80 ADD PUSH1 0x40 MSTORE SWAP1 DUP2 PUSH1 0x0 DUP3 ADD PUSH1 0x0 SWAP1 SLOAD SWAP1 PUSH2 0x100 EXP SWAP1 DIV PUSH1 0xFF AND PUSH1 0xFF AND PUSH1 0xFF AND DUP2 MSTORE PUSH1 0x20 ADD PUSH1 0x0 DUP3 ADD PUSH1 0x1 SWAP1 SLOAD SWAP1 PUSH2 0x100 EXP SWAP1 DIV PUSH1 0xFF AND PUSH1 0xFF AND PUSH1 0xFF AND DUP2 MSTORE PUSH1 0x20 ADD PUSH1 0x0 DUP3 ADD PUSH1 0x2 SWAP1 SLOAD SWAP1 PUSH2 0x100 EXP SWAP1 DIV PUSH4 0xFFFFFFFF AND PUSH4 0xFFFFFFFF AND PUSH4 0xFFFFFFFF AND DUP2 MSTORE PUSH1 0x20 ADD PUSH1 0x0 DUP3 ADD PUSH1 0x6 SWAP1 SLOAD SWAP1 PUSH2 0x100 EXP SWAP1 DIV PUSH4 0xFFFFFFFF AND PUSH4 0xFFFFFFFF AND PUSH4 0xFFFFFFFF AND DUP2 MSTORE POP POP SWAP1 POP SWAP2 SWAP1 POP JUMP JUMPDEST PUSH1 0x0 PUSH1 0x3 DUP3 PUSH1 0x40 MLOAD PUSH2 0x7D9 SWAP2 SWAP1 PUSH2 0x1788 JUMP JUMPDEST SWAP1 DUP2 MSTORE PUSH1 0x20 ADD PUSH1 0x40 MLOAD DUP1 SWAP2 SUB SWAP1 KECCAK256 PUSH1 0x0 DUP1 DUP3 ADD PUSH1 0x0 PUSH2 0x100 EXP DUP2 SLOAD SWAP1 PUSH1 0xFF MUL NOT AND SWAP1 SSTORE PUSH1 0x0 DUP3 ADD PUSH1 0x1 PUSH2 0x100 EXP DUP2 SLOAD SWAP1 PUSH1 0xFF MUL NOT AND SWAP1 SSTORE PUSH1 0x0 DUP3 ADD PUSH1 0x2 PUSH2 0x100 EXP DUP2 SLOAD SWAP1 PUSH4 0xFFFFFFFF MUL NOT AND SWAP1 SSTORE PUSH1 0x0 DUP3 ADD PUSH1 0x6 PUSH2 0x100 EXP DUP2 SLOAD SWAP1 PUSH4 0xFFFFFFFF MUL NOT AND SWAP1 SSTORE POP POP PUSH1 0x0 JUMPDEST PUSH1 0x1 SLOAD DUP2 LT ISZERO PUSH2 0x918 JUMPI DUP3 PUSH1 0x40 MLOAD PUSH1 0x20 ADD PUSH2 0x85E SWAP2 SWAP1 PUSH2 0x180F JUMP JUMPDEST PUSH1 0x40 MLOAD PUSH1 0x20 DUP2 DUP4 SUB SUB DUP2 MSTORE SWAP1 PUSH1 0x40 MSTORE DUP1 MLOAD SWAP1 PUSH1 0x20 ADD KECCAK256 PUSH1 0x2 DUP3 DUP2 SLOAD DUP2 LT PUSH2 0x888 JUMPI PUSH2 0x887 PUSH2 0x1BD3 JUMP JUMPDEST JUMPDEST SWAP1 PUSH1 0x0 MSTORE PUSH1 0x20 PUSH1 0x0 KECCAK256 ADD PUSH1 0x40 MLOAD PUSH1 0x20 ADD PUSH2 0x8A2 SWAP2 SWAP1 PUSH2 0x1831 JUMP JUMPDEST PUSH1 0x40 MLOAD PUSH1 0x20 DUP2 DUP4 SUB SUB DUP2 MSTORE SWAP1 PUSH1 0x40 MSTORE DUP1 MLOAD SWAP1 PUSH1 0x20 ADD KECCAK256 EQ ISZERO PUSH2 0x905 JUMPI PUSH1 0x2 DUP2 DUP2 SLOAD DUP2 LT PUSH2 0x8D2 JUMPI PUSH2 0x8D1 PUSH2 0x1BD3 JUMP JUMPDEST JUMPDEST SWAP1 PUSH1 0x0 MSTORE PUSH1 0x20 PUSH1 0x0 KECCAK256 ADD PUSH1 0x0 PUSH2 0x8E8 SWAP2 SWAP1 PUSH2 0x1188 JUMP JUMPDEST PUSH1 0x1 PUSH1 0x0 DUP2 SLOAD DUP1 SWAP3 SWAP2 SWAP1 PUSH2 0x8FB SWAP1 PUSH2 0x1A9F JUMP JUMPDEST SWAP2 SWAP1 POP SSTORE POP PUSH2 0x918 JUMP JUMPDEST DUP1 DUP1 PUSH2 0x910 SWAP1 PUSH2 0x1B2C JUMP JUMPDEST SWAP2 POP POP PUSH2 0x843 JUMP JUMPDEST POP PUSH1 0x1 SLOAD SWAP1 POP SWAP2 SWAP1 POP JUMP JUMPDEST PUSH2 0x92B PUSH2 0x114E JUMP JUMPDEST PUSH1 0x3 DUP3 PUSH1 0x40 MLOAD PUSH2 0x93B SWAP2 SWAP1 PUSH2 0x1788 JUMP JUMPDEST SWAP1 DUP2 MSTORE PUSH1 0x20 ADD PUSH1 0x40 MLOAD DUP1 SWAP2 SUB SWAP1 KECCAK256 PUSH1 0x40 MLOAD DUP1 PUSH1 0x80 ADD PUSH1 0x40 MSTORE SWAP1 DUP2 PUSH1 0x0 DUP3 ADD PUSH1 0x0 SWAP1 SLOAD SWAP1 PUSH2 0x100 EXP SWAP1 DIV PUSH1 0xFF AND PUSH1 0xFF AND PUSH1 0xFF AND DUP2 MSTORE PUSH1 0x20 ADD PUSH1 0x0 DUP3 ADD PUSH1 0x1 SWAP1 SLOAD SWAP1 PUSH2 0x100 EXP SWAP1 DIV PUSH1 0xFF AND PUSH1 0xFF AND PUSH1 0xFF AND DUP2 MSTORE PUSH1 0x20 ADD PUSH1 0x0 DUP3 ADD PUSH1 0x2 SWAP1 SLOAD SWAP1 PUSH2 0x100 EXP SWAP1 DIV PUSH4 0xFFFFFFFF AND PUSH4 0xFFFFFFFF AND PUSH4 0xFFFFFFFF AND DUP2 MSTORE PUSH1 0x20 ADD PUSH1 0x0 DUP3 ADD PUSH1 0x6 SWAP1 SLOAD SWAP1 PUSH2 0x100 EXP SWAP1 DIV PUSH4 0xFFFFFFFF AND PUSH4 0xFFFFFFFF AND PUSH4 0xFFFFFFFF AND DUP2 MSTORE POP POP SWAP1 POP SWAP2 SWAP1 POP JUMP JUMPDEST PUSH1 0x60 DUP1 PUSH1 0x0 PUSH1 0x1 SLOAD PUSH8 0xFFFFFFFFFFFFFFFF DUP2 GT ISZERO PUSH2 0xA02 JUMPI PUSH2 0xA01 PUSH2 0x1C02 JUMP JUMPDEST JUMPDEST PUSH1 0x40 MLOAD SWAP1 DUP1 DUP3 MSTORE DUP1 PUSH1 0x20 MUL PUSH1 0x20 ADD DUP3 ADD PUSH1 0x40 MSTORE DUP1 ISZERO PUSH2 0xA3B JUMPI DUP2 PUSH1 0x20 ADD JUMPDEST PUSH2 0xA28 PUSH2 0x114E JUMP JUMPDEST DUP2 MSTORE PUSH1 0x20 ADD SWAP1 PUSH1 0x1 SWAP1 SUB SWAP1 DUP2 PUSH2 0xA20 JUMPI SWAP1 POP JUMPDEST POP SWAP1 POP PUSH1 0x0 JUMPDEST PUSH1 0x1 SLOAD DUP2 LT ISZERO PUSH2 0xB48 JUMPI PUSH1 0x3 PUSH1 0x2 DUP3 DUP2 SLOAD DUP2 LT PUSH2 0xA61 JUMPI PUSH2 0xA60 PUSH2 0x1BD3 JUMP JUMPDEST JUMPDEST SWAP1 PUSH1 0x0 MSTORE PUSH1 0x20 PUSH1 0x0 KECCAK256 ADD PUSH1 0x40 MLOAD PUSH2 0xA78 SWAP2 SWAP1 PUSH2 0x179F JUMP JUMPDEST SWAP1 DUP2 MSTORE PUSH1 0x20 ADD PUSH1 0x40 MLOAD DUP1 SWAP2 SUB SWAP1 KECCAK256 PUSH1 0x40 MLOAD DUP1 PUSH1 0x80 ADD PUSH1 0x40 MSTORE SWAP1 DUP2 PUSH1 0x0 DUP3 ADD PUSH1 0x0 SWAP1 SLOAD SWAP1 PUSH2 0x100 EXP SWAP1 DIV PUSH1 0xFF AND PUSH1 0xFF AND PUSH1 0xFF AND DUP2 MSTORE PUSH1 0x20 ADD PUSH1 0x0 DUP3 ADD PUSH1 0x1 SWAP1 SLOAD SWAP1 PUSH2 0x100 EXP SWAP1 DIV PUSH1 0xFF AND PUSH1 0xFF AND PUSH1 0xFF AND DUP2 MSTORE PUSH1 0x20 ADD PUSH1 0x0 DUP3 ADD PUSH1 0x2 SWAP1 SLOAD SWAP1 PUSH2 0x100 EXP SWAP1 DIV PUSH4 0xFFFFFFFF AND PUSH4 0xFFFFFFFF AND PUSH4 0xFFFFFFFF AND DUP2 MSTORE PUSH1 0x20 ADD PUSH1 0x0 DUP3 ADD PUSH1 0x6 SWAP1 SLOAD SWAP1 PUSH2 0x100 EXP SWAP1 DIV PUSH4 0xFFFFFFFF AND PUSH4 0xFFFFFFFF AND PUSH4 0xFFFFFFFF AND DUP2 MSTORE POP POP DUP3 DUP3 DUP2 MLOAD DUP2 LT PUSH2 0xB2A JUMPI PUSH2 0xB29 PUSH2 0x1BD3 JUMP JUMPDEST JUMPDEST PUSH1 0x20 MUL PUSH1 0x20 ADD ADD DUP2 SWAP1 MSTORE POP DUP1 DUP1 PUSH2 0xB40 SWAP1 PUSH2 0x1B2C JUMP JUMPDEST SWAP2 POP POP PUSH2 0xA41 JUMP JUMPDEST POP PUSH1 0x2 DUP2 DUP2 DUP1 SLOAD DUP1 PUSH1 0x20 MUL PUSH1 0x20 ADD PUSH1 0x40 MLOAD SWAP1 DUP2 ADD PUSH1 0x40 MSTORE DUP1 SWAP3 SWAP2 SWAP1 DUP2 DUP2 MSTORE PUSH1 0x20 ADD PUSH1 0x0 SWAP1 JUMPDEST DUP3 DUP3 LT ISZERO PUSH2 0xC19 JUMPI DUP4 DUP3 SWAP1 PUSH1 0x0 MSTORE PUSH1 0x20 PUSH1 0x0 KECCAK256 ADD DUP1 SLOAD PUSH2 0xB8C SWAP1 PUSH2 0x1AC9 JUMP JUMPDEST DUP1 PUSH1 0x1F ADD PUSH1 0x20 DUP1 SWAP2 DIV MUL PUSH1 0x20 ADD PUSH1 0x40 MLOAD SWAP1 DUP2 ADD PUSH1 0x40 MSTORE DUP1 SWAP3 SWAP2 SWAP1 DUP2 DUP2 MSTORE PUSH1 0x20 ADD DUP3 DUP1 SLOAD PUSH2 0xBB8 SWAP1 PUSH2 0x1AC9 JUMP JUMPDEST DUP1 ISZERO PUSH2 0xC05 JUMPI DUP1 PUSH1 0x1F LT PUSH2 0xBDA JUMPI PUSH2 0x100 DUP1 DUP4 SLOAD DIV MUL DUP4 MSTORE SWAP2 PUSH1 0x20 ADD SWAP2 PUSH2 0xC05 JUMP JUMPDEST DUP3 ADD SWAP2 SWAP1 PUSH1 0x0 MSTORE PUSH1 0x20 PUSH1 0x0 KECCAK256 SWAP1 JUMPDEST DUP2 SLOAD DUP2 MSTORE SWAP1 PUSH1 0x1 ADD SWAP1 PUSH1 0x20 ADD DUP1 DUP4 GT PUSH2 0xBE8 JUMPI DUP3 SWAP1 SUB PUSH1 0x1F AND DUP3 ADD SWAP2 JUMPDEST POP POP POP POP POP DUP2 MSTORE PUSH1 0x20 ADD SWAP1 PUSH1 0x1 ADD SWAP1 PUSH2 0xB6D JUMP JUMPDEST POP POP POP POP SWAP2 POP SWAP3 POP SWAP3 POP POP SWAP1 SWAP2 JUMP JUMPDEST PUSH1 0x60 PUSH2 0xCEB DUP3 PUSH1 0x3 DUP6 PUSH1 0x40 MLOAD PUSH2 0xC3E SWAP2 SWAP1 PUSH2 0x1788 JUMP JUMPDEST SWAP1 DUP2 MSTORE PUSH1 0x20 ADD PUSH1 0x40 MLOAD DUP1 SWAP2 SUB SWAP1 KECCAK256 PUSH1 0x40 MLOAD DUP1 PUSH1 0x80 ADD PUSH1 0x40 MSTORE SWAP1 DUP2 PUSH1 0x0 DUP3 ADD PUSH1 0x0 SWAP1 SLOAD SWAP1 PUSH2 0x100 EXP SWAP1 DIV PUSH1 0xFF AND PUSH1 0xFF AND PUSH1 0xFF AND DUP2 MSTORE PUSH1 0x20 ADD PUSH1 0x0 DUP3 ADD PUSH1 0x1 SWAP1 SLOAD SWAP1 PUSH2 0x100 EXP SWAP1 DIV PUSH1 0xFF AND PUSH1 0xFF AND PUSH1 0xFF AND DUP2 MSTORE PUSH1 0x20 ADD PUSH1 0x0 DUP3 ADD PUSH1 0x2 SWAP1 SLOAD SWAP1 PUSH2 0x100 EXP SWAP1 DIV PUSH4 0xFFFFFFFF AND PUSH4 0xFFFFFFFF AND PUSH4 0xFFFFFFFF AND DUP2 MSTORE PUSH1 0x20 ADD PUSH1 0x0 DUP3 ADD PUSH1 0x6 SWAP1 SLOAD SWAP1 PUSH2 0x100 EXP SWAP1 DIV PUSH4 0xFFFFFFFF AND PUSH4 0xFFFFFFFF AND PUSH4 0xFFFFFFFF AND DUP2 MSTORE POP POP PUSH2 0xF3E SWAP1 SWAP2 SWAP1 PUSH4 0xFFFFFFFF AND JUMP JUMPDEST SWAP1 POP SWAP3 SWAP2 POP POP JUMP JUMPDEST PUSH1 0x60 PUSH2 0xDB6 DUP3 PUSH1 0x0 DUP6 DUP2 SLOAD DUP2 LT PUSH2 0xD0D JUMPI PUSH2 0xD0C PUSH2 0x1BD3 JUMP JUMPDEST JUMPDEST SWAP1 PUSH1 0x0 MSTORE PUSH1 0x20 PUSH1 0x0 KECCAK256 ADD PUSH1 0x40 MLOAD DUP1 PUSH1 0x80 ADD PUSH1 0x40 MSTORE SWAP1 DUP2 PUSH1 0x0 DUP3 ADD PUSH1 0x0 SWAP1 SLOAD SWAP1 PUSH2 0x100 EXP SWAP1 DIV PUSH1 0xFF AND PUSH1 0xFF AND PUSH1 0xFF AND DUP2 MSTORE PUSH1 0x20 ADD PUSH1 0x0 DUP3 ADD PUSH1 0x1 SWAP1 SLOAD SWAP1 PUSH2 0x100 EXP SWAP1 DIV PUSH1 0xFF AND PUSH1 0xFF AND PUSH1 0xFF AND DUP2 MSTORE PUSH1 0x20 ADD PUSH1 0x0 DUP3 ADD PUSH1 0x2 SWAP1 SLOAD SWAP1 PUSH2 0x100 EXP SWAP1 DIV PUSH4 0xFFFFFFFF AND PUSH4 0xFFFFFFFF AND PUSH4 0xFFFFFFFF AND DUP2 MSTORE PUSH1 0x20 ADD PUSH1 0x0 DUP3 ADD PUSH1 0x6 SWAP1 SLOAD SWAP1 PUSH2 0x100 EXP SWAP1 DIV PUSH4 0xFFFFFFFF AND PUSH4 0xFFFFFFFF AND PUSH4 0xFFFFFFFF AND DUP2 MSTORE POP POP PUSH2 0xF3E SWAP1 SWAP2 SWAP1 PUSH4 0xFFFFFFFF AND JUMP JUMPDEST SWAP1 POP SWAP3 SWAP2 POP POP JUMP JUMPDEST PUSH2 0xDEE DUP2 PUSH1 0x0 DUP5 DUP2 SLOAD DUP2 LT PUSH2 0xDD6 JUMPI PUSH2 0xDD5 PUSH2 0x1BD3 JUMP JUMPDEST JUMPDEST SWAP1 PUSH1 0x0 MSTORE PUSH1 0x20 PUSH1 0x0 KECCAK256 ADD PUSH2 0xEA9 SWAP1 SWAP2 SWAP1 PUSH4 0xFFFFFFFF AND JUMP JUMPDEST POP POP JUMP JUMPDEST PUSH2 0xDFA PUSH2 0x114E JUMP JUMPDEST PUSH1 0x0 PUSH1 0x4 PUSH1 0xFF AND DUP4 PUSH1 0xFF AND GT PUSH2 0xE1A JUMPI PUSH2 0xE17 DUP5 PUSH1 0xFF AND DUP5 PUSH2 0xFEA JUMP JUMPDEST SWAP1 POP JUMPDEST PUSH1 0x40 MLOAD DUP1 PUSH1 0x80 ADD PUSH1 0x40 MSTORE DUP1 DUP6 PUSH1 0xFF AND DUP2 MSTORE PUSH1 0x20 ADD DUP5 PUSH1 0xFF AND DUP2 MSTORE PUSH1 0x20 ADD DUP3 PUSH4 0xFFFFFFFF AND DUP2 MSTORE PUSH1 0x20 ADD PUSH1 0x0 PUSH4 0xFFFFFFFF AND DUP2 MSTORE POP SWAP2 POP POP SWAP3 SWAP2 POP POP JUMP JUMPDEST PUSH2 0xE5F PUSH2 0x114E JUMP JUMPDEST PUSH1 0x40 MLOAD DUP1 PUSH1 0x80 ADD PUSH1 0x40 MSTORE DUP1 DUP4 PUSH1 0x0 ADD MLOAD PUSH1 0xFF AND DUP2 MSTORE PUSH1 0x20 ADD DUP4 PUSH1 0x20 ADD MLOAD PUSH1 0xFF AND DUP2 MSTORE PUSH1 0x20 ADD DUP4 PUSH1 0x40 ADD MLOAD PUSH4 0xFFFFFFFF AND DUP2 MSTORE PUSH1 0x20 ADD DUP4 PUSH1 0x60 ADD MLOAD PUSH4 0xFFFFFFFF AND DUP2 MSTORE POP SWAP1 POP SWAP2 SWAP1 POP JUMP JUMPDEST PUSH1 0x0 DUP3 PUSH1 0x0 ADD PUSH1 0x6 SWAP1 SLOAD SWAP1 PUSH2 0x100 EXP SWAP1 DIV PUSH4 0xFFFFFFFF AND PUSH4 0xFFFFFFFF AND EQ DUP1 PUSH2 0xEF2 JUMPI POP DUP2 PUSH1 0x0 ADD PUSH1 0x6 SWAP1 SLOAD SWAP1 PUSH2 0x100 EXP SWAP1 DIV PUSH4 0xFFFFFFFF AND PUSH4 0xFFFFFFFF AND DUP2 PUSH4 0xFFFFFFFF AND LT ISZERO JUMPDEST ISZERO PUSH2 0xF3A JUMPI DUP2 PUSH1 0x0 ADD PUSH1 0x2 SWAP1 SLOAD SWAP1 PUSH2 0x100 EXP SWAP1 DIV PUSH4 0xFFFFFFFF AND DUP2 PUSH2 0xF17 SWAP2 SWAP1 PUSH2 0x19BE JUMP JUMPDEST DUP3 PUSH1 0x0 ADD PUSH1 0x6 PUSH2 0x100 EXP DUP2 SLOAD DUP2 PUSH4 0xFFFFFFFF MUL NOT AND SWAP1 DUP4 PUSH4 0xFFFFFFFF AND MUL OR SWAP1 SSTORE POP JUMPDEST POP POP JUMP JUMPDEST PUSH1 0x60 PUSH1 0x0 DUP4 PUSH1 0x60 ADD MLOAD PUSH4 0xFFFFFFFF AND EQ DUP1 PUSH2 0xF69 JUMPI POP DUP3 PUSH1 0x60 ADD MLOAD PUSH4 0xFFFFFFFF AND DUP3 PUSH4 0xFFFFFFFF AND LT ISZERO JUMPDEST ISZERO PUSH2 0xFAB JUMPI PUSH1 0x40 MLOAD DUP1 PUSH1 0x40 ADD PUSH1 0x40 MSTORE DUP1 PUSH1 0x6 DUP2 MSTORE PUSH1 0x20 ADD PUSH32 0x434C4F5345440000000000000000000000000000000000000000000000000000 DUP2 MSTORE POP SWAP1 POP PUSH2 0xFE4 JUMP JUMPDEST PUSH1 0x40 MLOAD DUP1 PUSH1 0x40 ADD PUSH1 0x40 MSTORE DUP1 PUSH1 0x4 DUP2 MSTORE PUSH1 0x20 ADD PUSH32 0x4F50454E00000000000000000000000000000000000000000000000000000000 DUP2 MSTORE POP SWAP1 POP JUMPDEST SWAP3 SWAP2 POP POP JUMP JUMPDEST PUSH1 0x0 DUP1 PUSH2 0xFF6 DUP4 PUSH2 0x100D JUMP JUMPDEST SWAP1 POP DUP1 DUP5 PUSH2 0x1004 SWAP2 SWAP1 PUSH2 0x19F8 JUMP JUMPDEST SWAP2 POP POP SWAP3 SWAP2 POP POP JUMP JUMPDEST PUSH1 0x0 PUSH1 0x4 PUSH1 0xFF AND DUP3 PUSH1 0xFF AND GT ISZERO PUSH2 0x1059 JUMPI PUSH1 0x40 MLOAD PUSH32 0x8C379A000000000000000000000000000000000000000000000000000000000 DUP2 MSTORE PUSH1 0x4 ADD PUSH2 0x1050 SWAP1 PUSH2 0x1853 JUMP JUMPDEST PUSH1 0x40 MLOAD DUP1 SWAP2 SUB SWAP1 REVERT JUMPDEST PUSH1 0x0 PUSH1 0xFF AND DUP3 PUSH1 0xFF AND EQ ISZERO PUSH2 0x1071 JUMPI PUSH1 0x1 SWAP1 POP PUSH2 0x10C3 JUMP JUMPDEST PUSH1 0x1 PUSH1 0xFF AND DUP3 PUSH1 0xFF AND EQ ISZERO PUSH2 0x1089 JUMPI PUSH1 0x3C SWAP1 POP PUSH2 0x10C3 JUMP JUMPDEST PUSH1 0x2 PUSH1 0xFF AND DUP3 PUSH1 0xFF AND EQ ISZERO PUSH2 0x10A2 JUMPI PUSH2 0xE10 SWAP1 POP PUSH2 0x10C3 JUMP JUMPDEST PUSH1 0x3 PUSH1 0xFF AND DUP3 PUSH1 0xFF AND EQ ISZERO PUSH2 0x10BC JUMPI PUSH3 0x15180 SWAP1 POP PUSH2 0x10C3 JUMP JUMPDEST PUSH3 0x93A80 SWAP1 POP JUMPDEST SWAP2 SWAP1 POP JUMP JUMPDEST DUP3 DUP1 SLOAD PUSH2 0x10D4 SWAP1 PUSH2 0x1AC9 JUMP JUMPDEST SWAP1 PUSH1 0x0 MSTORE PUSH1 0x20 PUSH1 0x0 KECCAK256 SWAP1 PUSH1 0x1F ADD PUSH1 0x20 SWAP1 DIV DUP2 ADD SWAP3 DUP3 PUSH2 0x10F6 JUMPI PUSH1 0x0 DUP6 SSTORE PUSH2 0x113D JUMP JUMPDEST DUP3 PUSH1 0x1F LT PUSH2 0x110F JUMPI DUP1 MLOAD PUSH1 0xFF NOT AND DUP4 DUP1 ADD OR DUP6 SSTORE PUSH2 0x113D JUMP JUMPDEST DUP3 DUP1 ADD PUSH1 0x1 ADD DUP6 SSTORE DUP3 ISZERO PUSH2 0x113D JUMPI SWAP2 DUP3 ADD JUMPDEST DUP3 DUP2 GT ISZERO PUSH2 0x113C JUMPI DUP3 MLOAD DUP3 SSTORE SWAP2 PUSH1 0x20 ADD SWAP2 SWAP1 PUSH1 0x1 ADD SWAP1 PUSH2 0x1121 JUMP JUMPDEST JUMPDEST POP SWAP1 POP PUSH2 0x114A SWAP2 SWAP1 PUSH2 0x11C8 JUMP JUMPDEST POP SWAP1 JUMP JUMPDEST PUSH1 0x40 MLOAD DUP1 PUSH1 0x80 ADD PUSH1 0x40 MSTORE DUP1 PUSH1 0x0 PUSH1 0xFF AND DUP2 MSTORE PUSH1 0x20 ADD PUSH1 0x0 PUSH1 0xFF AND DUP2 MSTORE PUSH1 0x20 ADD PUSH1 0x0 PUSH4 0xFFFFFFFF AND DUP2 MSTORE PUSH1 0x20 ADD PUSH1 0x0 PUSH4 0xFFFFFFFF AND DUP2 MSTORE POP SWAP1 JUMP JUMPDEST POP DUP1 SLOAD PUSH2 0x1194 SWAP1 PUSH2 0x1AC9 JUMP JUMPDEST PUSH1 0x0 DUP3 SSTORE DUP1 PUSH1 0x1F LT PUSH2 0x11A6 JUMPI POP PUSH2 0x11C5 JUMP JUMPDEST PUSH1 0x1F ADD PUSH1 0x20 SWAP1 DIV SWAP1 PUSH1 0x0 MSTORE PUSH1 0x20 PUSH1 0x0 KECCAK256 SWAP1 DUP2 ADD SWAP1 PUSH2 0x11C4 SWAP2 SWAP1 PUSH2 0x11C8 JUMP JUMPDEST JUMPDEST POP JUMP JUMPDEST JUMPDEST DUP1 DUP3 GT ISZERO PUSH2 0x11E1 JUMPI PUSH1 0x0 DUP2 PUSH1 0x0 SWAP1 SSTORE POP PUSH1 0x1 ADD PUSH2 0x11C9 JUMP JUMPDEST POP SWAP1 JUMP JUMPDEST PUSH1 0x0 PUSH2 0x11F8 PUSH2 0x11F3 DUP5 PUSH2 0x18CE JUMP JUMPDEST PUSH2 0x18A9 JUMP JUMPDEST SWAP1 POP DUP3 DUP2 MSTORE PUSH1 0x20 DUP2 ADD DUP5 DUP5 DUP5 ADD GT ISZERO PUSH2 0x1214 JUMPI PUSH2 0x1213 PUSH2 0x1C36 JUMP JUMPDEST JUMPDEST PUSH2 0x121F DUP5 DUP3 DUP6 PUSH2 0x1A5D JUMP JUMPDEST POP SWAP4 SWAP3 POP POP POP JUMP JUMPDEST PUSH1 0x0 DUP3 PUSH1 0x1F DUP4 ADD SLT PUSH2 0x123C JUMPI PUSH2 0x123B PUSH2 0x1C31 JUMP JUMPDEST JUMPDEST DUP2 CALLDATALOAD PUSH2 0x124C DUP5 DUP3 PUSH1 0x20 DUP7 ADD PUSH2 0x11E5 JUMP JUMPDEST SWAP2 POP POP SWAP3 SWAP2 POP POP JUMP JUMPDEST PUSH1 0x0 DUP2 CALLDATALOAD SWAP1 POP PUSH2 0x1264 DUP2 PUSH2 0x1CA5 JUMP JUMPDEST SWAP3 SWAP2 POP POP JUMP JUMPDEST PUSH1 0x0 DUP2 CALLDATALOAD SWAP1 POP PUSH2 0x1279 DUP2 PUSH2 0x1CBC JUMP JUMPDEST SWAP3 SWAP2 POP POP JUMP JUMPDEST PUSH1 0x0 PUSH1 0x20 DUP3 DUP5 SUB SLT ISZERO PUSH2 0x1295 JUMPI PUSH2 0x1294 PUSH2 0x1C40 JUMP JUMPDEST JUMPDEST PUSH1 0x0 DUP3 ADD CALLDATALOAD PUSH8 0xFFFFFFFFFFFFFFFF DUP2 GT ISZERO PUSH2 0x12B3 JUMPI PUSH2 0x12B2 PUSH2 0x1C3B JUMP JUMPDEST JUMPDEST PUSH2 0x12BF DUP5 DUP3 DUP6 ADD PUSH2 0x1227 JUMP JUMPDEST SWAP2 POP POP SWAP3 SWAP2 POP POP JUMP JUMPDEST PUSH1 0x0 DUP1 PUSH1 0x40 DUP4 DUP6 SUB SLT ISZERO PUSH2 0x12DF JUMPI PUSH2 0x12DE PUSH2 0x1C40 JUMP JUMPDEST JUMPDEST PUSH1 0x0 DUP4 ADD CALLDATALOAD PUSH8 0xFFFFFFFFFFFFFFFF DUP2 GT ISZERO PUSH2 0x12FD JUMPI PUSH2 0x12FC PUSH2 0x1C3B JUMP JUMPDEST JUMPDEST PUSH2 0x1309 DUP6 DUP3 DUP7 ADD PUSH2 0x1227 JUMP JUMPDEST SWAP3 POP POP PUSH1 0x20 PUSH2 0x131A DUP6 DUP3 DUP7 ADD PUSH2 0x1255 JUMP JUMPDEST SWAP2 POP POP SWAP3 POP SWAP3 SWAP1 POP JUMP JUMPDEST PUSH1 0x0 DUP1 PUSH1 0x40 DUP4 DUP6 SUB SLT ISZERO PUSH2 0x133B JUMPI PUSH2 0x133A PUSH2 0x1C40 JUMP JUMPDEST JUMPDEST PUSH1 0x0 DUP4 ADD CALLDATALOAD PUSH8 0xFFFFFFFFFFFFFFFF DUP2 GT ISZERO PUSH2 0x1359 JUMPI PUSH2 0x1358 PUSH2 0x1C3B JUMP JUMPDEST JUMPDEST PUSH2 0x1365 DUP6 DUP3 DUP7 ADD PUSH2 0x1227 JUMP JUMPDEST SWAP3 POP POP PUSH1 0x20 PUSH2 0x1376 DUP6 DUP3 DUP7 ADD PUSH2 0x126A JUMP JUMPDEST SWAP2 POP POP SWAP3 POP SWAP3 SWAP1 POP JUMP JUMPDEST PUSH1 0x0 PUSH1 0x20 DUP3 DUP5 SUB SLT ISZERO PUSH2 0x1396 JUMPI PUSH2 0x1395 PUSH2 0x1C40 JUMP JUMPDEST JUMPDEST PUSH1 0x0 PUSH2 0x13A4 DUP5 DUP3 DUP6 ADD PUSH2 0x1255 JUMP JUMPDEST SWAP2 POP POP SWAP3 SWAP2 POP POP JUMP JUMPDEST PUSH1 0x0 DUP1 PUSH1 0x40 DUP4 DUP6 SUB SLT ISZERO PUSH2 0x13C4 JUMPI PUSH2 0x13C3 PUSH2 0x1C40 JUMP JUMPDEST JUMPDEST PUSH1 0x0 PUSH2 0x13D2 DUP6 DUP3 DUP7 ADD PUSH2 0x1255 JUMP JUMPDEST SWAP3 POP POP PUSH1 0x20 PUSH2 0x13E3 DUP6 DUP3 DUP7 ADD PUSH2 0x126A JUMP JUMPDEST SWAP2 POP POP SWAP3 POP SWAP3 SWAP1 POP JUMP JUMPDEST PUSH1 0x0 PUSH2 0x13F9 DUP4 DUP4 PUSH2 0x14EC JUMP JUMPDEST SWAP1 POP SWAP3 SWAP2 POP POP JUMP JUMPDEST PUSH1 0x0 PUSH2 0x140D DUP4 DUP4 PUSH2 0x16B1 JUMP JUMPDEST PUSH1 0x80 DUP4 ADD SWAP1 POP SWAP3 SWAP2 POP POP JUMP JUMPDEST PUSH1 0x0 PUSH2 0x1424 DUP3 PUSH2 0x1934 JUMP JUMPDEST PUSH2 0x142E DUP2 DUP6 PUSH2 0x196F JUMP JUMPDEST SWAP4 POP DUP4 PUSH1 0x20 DUP3 MUL DUP6 ADD PUSH2 0x1440 DUP6 PUSH2 0x18FF JUMP JUMPDEST DUP1 PUSH1 0x0 JUMPDEST DUP6 DUP2 LT ISZERO PUSH2 0x147C JUMPI DUP5 DUP5 SUB DUP10 MSTORE DUP2 MLOAD PUSH2 0x145D DUP6 DUP3 PUSH2 0x13ED JUMP JUMPDEST SWAP5 POP PUSH2 0x1468 DUP4 PUSH2 0x1955 JUMP JUMPDEST SWAP3 POP PUSH1 0x20 DUP11 ADD SWAP10 POP POP PUSH1 0x1 DUP2 ADD SWAP1 POP PUSH2 0x1444 JUMP JUMPDEST POP DUP3 SWAP8 POP DUP8 SWAP6 POP POP POP POP POP POP SWAP3 SWAP2 POP POP JUMP JUMPDEST PUSH1 0x0 PUSH2 0x1499 DUP3 PUSH2 0x193F JUMP JUMPDEST PUSH2 0x14A3 DUP2 DUP6 PUSH2 0x1980 JUMP JUMPDEST SWAP4 POP PUSH2 0x14AE DUP4 PUSH2 0x190F JUMP JUMPDEST DUP1 PUSH1 0x0 JUMPDEST DUP4 DUP2 LT ISZERO PUSH2 0x14DF JUMPI DUP2 MLOAD PUSH2 0x14C6 DUP9 DUP3 PUSH2 0x1401 JUMP JUMPDEST SWAP8 POP PUSH2 0x14D1 DUP4 PUSH2 0x1962 JUMP JUMPDEST SWAP3 POP POP PUSH1 0x1 DUP2 ADD SWAP1 POP PUSH2 0x14B2 JUMP JUMPDEST POP DUP6 SWAP4 POP POP POP POP SWAP3 SWAP2 POP POP JUMP JUMPDEST PUSH1 0x0 PUSH2 0x14F7 DUP3 PUSH2 0x194A JUMP JUMPDEST PUSH2 0x1501 DUP2 DUP6 PUSH2 0x1991 JUMP JUMPDEST SWAP4 POP PUSH2 0x1511 DUP2 DUP6 PUSH1 0x20 DUP7 ADD PUSH2 0x1A6C JUMP JUMPDEST PUSH2 0x151A DUP2 PUSH2 0x1C45 JUMP JUMPDEST DUP5 ADD SWAP2 POP POP SWAP3 SWAP2 POP POP JUMP JUMPDEST PUSH1 0x0 PUSH2 0x1530 DUP3 PUSH2 0x194A JUMP JUMPDEST PUSH2 0x153A DUP2 DUP6 PUSH2 0x19A2 JUMP JUMPDEST SWAP4 POP PUSH2 0x154A DUP2 DUP6 PUSH1 0x20 DUP7 ADD PUSH2 0x1A6C JUMP JUMPDEST PUSH2 0x1553 DUP2 PUSH2 0x1C45 JUMP JUMPDEST DUP5 ADD SWAP2 POP POP SWAP3 SWAP2 POP POP JUMP JUMPDEST PUSH1 0x0 PUSH2 0x1569 DUP3 PUSH2 0x194A JUMP JUMPDEST PUSH2 0x1573 DUP2 DUP6 PUSH2 0x19B3 JUMP JUMPDEST SWAP4 POP PUSH2 0x1583 DUP2 DUP6 PUSH1 0x20 DUP7 ADD PUSH2 0x1A6C JUMP JUMPDEST DUP1 DUP5 ADD SWAP2 POP POP SWAP3 SWAP2 POP POP JUMP JUMPDEST PUSH1 0x0 DUP2 SLOAD PUSH2 0x159C DUP2 PUSH2 0x1AC9 JUMP JUMPDEST PUSH2 0x15A6 DUP2 DUP7 PUSH2 0x19A2 JUMP JUMPDEST SWAP5 POP PUSH1 0x1 DUP3 AND PUSH1 0x0 DUP2 EQ PUSH2 0x15C1 JUMPI PUSH1 0x1 DUP2 EQ PUSH2 0x15D3 JUMPI PUSH2 0x1606 JUMP JUMPDEST PUSH1 0xFF NOT DUP4 AND DUP7 MSTORE PUSH1 0x20 DUP7 ADD SWAP4 POP PUSH2 0x1606 JUMP JUMPDEST PUSH2 0x15DC DUP6 PUSH2 0x191F JUMP JUMPDEST PUSH1 0x0 JUMPDEST DUP4 DUP2 LT ISZERO PUSH2 0x15FE JUMPI DUP2 SLOAD DUP2 DUP10 ADD MSTORE PUSH1 0x1 DUP3 ADD SWAP2 POP PUSH1 0x20 DUP2 ADD SWAP1 POP PUSH2 0x15DF JUMP JUMPDEST DUP1 DUP9 ADD SWAP6 POP POP POP JUMPDEST POP POP POP SWAP3 SWAP2 POP POP JUMP JUMPDEST PUSH1 0x0 DUP2 SLOAD PUSH2 0x161C DUP2 PUSH2 0x1AC9 JUMP JUMPDEST PUSH2 0x1626 DUP2 DUP7 PUSH2 0x19B3 JUMP JUMPDEST SWAP5 POP PUSH1 0x1 DUP3 AND PUSH1 0x0 DUP2 EQ PUSH2 0x1641 JUMPI PUSH1 0x1 DUP2 EQ PUSH2 0x1652 JUMPI PUSH2 0x1685 JUMP JUMPDEST PUSH1 0xFF NOT DUP4 AND DUP7 MSTORE DUP2 DUP7 ADD SWAP4 POP PUSH2 0x1685 JUMP JUMPDEST PUSH2 0x165B DUP6 PUSH2 0x191F JUMP JUMPDEST PUSH1 0x0 JUMPDEST DUP4 DUP2 LT ISZERO PUSH2 0x167D JUMPI DUP2 SLOAD DUP2 DUP10 ADD MSTORE PUSH1 0x1 DUP3 ADD SWAP2 POP PUSH1 0x20 DUP2 ADD SWAP1 POP PUSH2 0x165E JUMP JUMPDEST DUP4 DUP9 ADD SWAP6 POP POP POP JUMPDEST POP POP POP SWAP3 SWAP2 POP POP JUMP JUMPDEST PUSH1 0x0 PUSH2 0x169B PUSH1 0x3B DUP4 PUSH2 0x19A2 JUMP JUMPDEST SWAP2 POP PUSH2 0x16A6 DUP3 PUSH2 0x1C56 JUMP JUMPDEST PUSH1 0x40 DUP3 ADD SWAP1 POP SWAP2 SWAP1 POP JUMP JUMPDEST PUSH1 0x80 DUP3 ADD PUSH1 0x0 DUP3 ADD MLOAD PUSH2 0x16C7 PUSH1 0x0 DUP6 ADD DUP3 PUSH2 0x1779 JUMP JUMPDEST POP PUSH1 0x20 DUP3 ADD MLOAD PUSH2 0x16DA PUSH1 0x20 DUP6 ADD DUP3 PUSH2 0x1779 JUMP JUMPDEST POP PUSH1 0x40 DUP3 ADD MLOAD PUSH2 0x16ED PUSH1 0x40 DUP6 ADD DUP3 PUSH2 0x176A JUMP JUMPDEST POP PUSH1 0x60 DUP3 ADD MLOAD PUSH2 0x1700 PUSH1 0x60 DUP6 ADD DUP3 PUSH2 0x176A JUMP JUMPDEST POP POP POP POP JUMP JUMPDEST PUSH1 0x80 DUP3 ADD PUSH1 0x0 DUP3 ADD MLOAD PUSH2 0x171C PUSH1 0x0 DUP6 ADD DUP3 PUSH2 0x1779 JUMP JUMPDEST POP PUSH1 0x20 DUP3 ADD MLOAD PUSH2 0x172F PUSH1 0x20 DUP6 ADD DUP3 PUSH2 0x1779 JUMP JUMPDEST POP PUSH1 0x40 DUP3 ADD MLOAD PUSH2 0x1742 PUSH1 0x40 DUP6 ADD DUP3 PUSH2 0x176A JUMP JUMPDEST POP PUSH1 0x60 DUP3 ADD MLOAD PUSH2 0x1755 PUSH1 0x60 DUP6 ADD DUP3 PUSH2 0x176A JUMP JUMPDEST POP POP POP POP JUMP JUMPDEST PUSH2 0x1764 DUP2 PUSH2 0x1A36 JUMP JUMPDEST DUP3 MSTORE POP POP JUMP JUMPDEST PUSH2 0x1773 DUP2 PUSH2 0x1A40 JUMP JUMPDEST DUP3 MSTORE POP POP JUMP JUMPDEST PUSH2 0x1782 DUP2 PUSH2 0x1A50 JUMP JUMPDEST DUP3 MSTORE POP POP JUMP JUMPDEST PUSH1 0x0 PUSH2 0x1794 DUP3 DUP5 PUSH2 0x155E JUMP JUMPDEST SWAP2 POP DUP2 SWAP1 POP SWAP3 SWAP2 POP POP JUMP JUMPDEST PUSH1 0x0 PUSH2 0x17AB DUP3 DUP5 PUSH2 0x160F JUMP JUMPDEST SWAP2 POP DUP2 SWAP1 POP SWAP3 SWAP2 POP POP JUMP JUMPDEST PUSH1 0x0 PUSH1 0x40 DUP3 ADD SWAP1 POP DUP2 DUP2 SUB PUSH1 0x0 DUP4 ADD MSTORE PUSH2 0x17D0 DUP2 DUP6 PUSH2 0x1419 JUMP JUMPDEST SWAP1 POP DUP2 DUP2 SUB PUSH1 0x20 DUP4 ADD MSTORE PUSH2 0x17E4 DUP2 DUP5 PUSH2 0x148E JUMP JUMPDEST SWAP1 POP SWAP4 SWAP3 POP POP POP JUMP JUMPDEST PUSH1 0x0 PUSH1 0x20 DUP3 ADD SWAP1 POP DUP2 DUP2 SUB PUSH1 0x0 DUP4 ADD MSTORE PUSH2 0x1807 DUP2 DUP5 PUSH2 0x148E JUMP JUMPDEST SWAP1 POP SWAP3 SWAP2 POP POP JUMP JUMPDEST PUSH1 0x0 PUSH1 0x20 DUP3 ADD SWAP1 POP DUP2 DUP2 SUB PUSH1 0x0 DUP4 ADD MSTORE PUSH2 0x1829 DUP2 DUP5 PUSH2 0x1525 JUMP JUMPDEST SWAP1 POP SWAP3 SWAP2 POP POP JUMP JUMPDEST PUSH1 0x0 PUSH1 0x20 DUP3 ADD SWAP1 POP DUP2 DUP2 SUB PUSH1 0x0 DUP4 ADD MSTORE PUSH2 0x184B DUP2 DUP5 PUSH2 0x158F JUMP JUMPDEST SWAP1 POP SWAP3 SWAP2 POP POP JUMP JUMPDEST PUSH1 0x0 PUSH1 0x20 DUP3 ADD SWAP1 POP DUP2 DUP2 SUB PUSH1 0x0 DUP4 ADD MSTORE PUSH2 0x186C DUP2 PUSH2 0x168E JUMP JUMPDEST SWAP1 POP SWAP2 SWAP1 POP JUMP JUMPDEST PUSH1 0x0 PUSH1 0x80 DUP3 ADD SWAP1 POP PUSH2 0x1888 PUSH1 0x0 DUP4 ADD DUP5 PUSH2 0x1706 JUMP JUMPDEST SWAP3 SWAP2 POP POP JUMP JUMPDEST PUSH1 0x0 PUSH1 0x20 DUP3 ADD SWAP1 POP PUSH2 0x18A3 PUSH1 0x0 DUP4 ADD DUP5 PUSH2 0x175B JUMP JUMPDEST SWAP3 SWAP2 POP POP JUMP JUMPDEST PUSH1 0x0 PUSH2 0x18B3 PUSH2 0x18C4 JUMP JUMPDEST SWAP1 POP PUSH2 0x18BF DUP3 DUP3 PUSH2 0x1AFB JUMP JUMPDEST SWAP2 SWAP1 POP JUMP JUMPDEST PUSH1 0x0 PUSH1 0x40 MLOAD SWAP1 POP SWAP1 JUMP JUMPDEST PUSH1 0x0 PUSH8 0xFFFFFFFFFFFFFFFF DUP3 GT ISZERO PUSH2 0x18E9 JUMPI PUSH2 0x18E8 PUSH2 0x1C02 JUMP JUMPDEST JUMPDEST PUSH2 0x18F2 DUP3 PUSH2 0x1C45 JUMP JUMPDEST SWAP1 POP PUSH1 0x20 DUP2 ADD SWAP1 POP SWAP2 SWAP1 POP JUMP JUMPDEST PUSH1 0x0 DUP2 SWAP1 POP PUSH1 0x20 DUP3 ADD SWAP1 POP SWAP2 SWAP1 POP JUMP JUMPDEST PUSH1 0x0 DUP2 SWAP1 POP PUSH1 0x20 DUP3 ADD SWAP1 POP SWAP2 SWAP1 POP JUMP JUMPDEST PUSH1 0x0 DUP2 SWAP1 POP DUP2 PUSH1 0x0 MSTORE PUSH1 0x20 PUSH1 0x0 KECCAK256 SWAP1 POP SWAP2 SWAP1 POP JUMP JUMPDEST PUSH1 0x0 DUP2 MLOAD SWAP1 POP SWAP2 SWAP1 POP JUMP JUMPDEST PUSH1 0x0 DUP2 MLOAD SWAP1 POP SWAP2 SWAP1 POP JUMP JUMPDEST PUSH1 0x0 DUP2 MLOAD SWAP1 POP SWAP2 SWAP1 POP JUMP JUMPDEST PUSH1 0x0 PUSH1 0x20 DUP3 ADD SWAP1 POP SWAP2 SWAP1 POP JUMP JUMPDEST PUSH1 0x0 PUSH1 0x20 DUP3 ADD SWAP1 POP SWAP2 SWAP1 POP JUMP JUMPDEST PUSH1 0x0 DUP3 DUP3 MSTORE PUSH1 0x20 DUP3 ADD SWAP1 POP SWAP3 SWAP2 POP POP JUMP JUMPDEST PUSH1 0x0 DUP3 DUP3 MSTORE PUSH1 0x20 DUP3 ADD SWAP1 POP SWAP3 SWAP2 POP POP JUMP JUMPDEST PUSH1 0x0 DUP3 DUP3 MSTORE PUSH1 0x20 DUP3 ADD SWAP1 POP SWAP3 SWAP2 POP POP JUMP JUMPDEST PUSH1 0x0 DUP3 DUP3 MSTORE PUSH1 0x20 DUP3 ADD SWAP1 POP SWAP3 SWAP2 POP POP JUMP JUMPDEST PUSH1 0x0 DUP2 SWAP1 POP SWAP3 SWAP2 POP POP JUMP JUMPDEST PUSH1 0x0 PUSH2 0x19C9 DUP3 PUSH2 0x1A40 JUMP JUMPDEST SWAP2 POP PUSH2 0x19D4 DUP4 PUSH2 0x1A40 JUMP JUMPDEST SWAP3 POP DUP3 PUSH4 0xFFFFFFFF SUB DUP3 GT ISZERO PUSH2 0x19ED JUMPI PUSH2 0x19EC PUSH2 0x1B75 JUMP JUMPDEST JUMPDEST DUP3 DUP3 ADD SWAP1 POP SWAP3 SWAP2 POP POP JUMP JUMPDEST PUSH1 0x0 PUSH2 0x1A03 DUP3 PUSH2 0x1A40 JUMP JUMPDEST SWAP2 POP PUSH2 0x1A0E DUP4 PUSH2 0x1A40 JUMP JUMPDEST SWAP3 POP DUP2 PUSH4 0xFFFFFFFF DIV DUP4 GT DUP3 ISZERO ISZERO AND ISZERO PUSH2 0x1A2B JUMPI PUSH2 0x1A2A PUSH2 0x1B75 JUMP JUMPDEST JUMPDEST DUP3 DUP3 MUL SWAP1 POP SWAP3 SWAP2 POP POP JUMP JUMPDEST PUSH1 0x0 DUP2 SWAP1 POP SWAP2 SWAP1 POP JUMP JUMPDEST PUSH1 0x0 PUSH4 0xFFFFFFFF DUP3 AND SWAP1 POP SWAP2 SWAP1 POP JUMP JUMPDEST PUSH1 0x0 PUSH1 0xFF DUP3 AND SWAP1 POP SWAP2 SWAP1 POP JUMP JUMPDEST DUP3 DUP2 DUP4 CALLDATACOPY PUSH1 0x0 DUP4 DUP4 ADD MSTORE POP POP POP JUMP JUMPDEST PUSH1 0x0 JUMPDEST DUP4 DUP2 LT ISZERO PUSH2 0x1A8A JUMPI DUP1 DUP3 ADD MLOAD DUP2 DUP5 ADD MSTORE PUSH1 0x20 DUP2 ADD SWAP1 POP PUSH2 0x1A6F JUMP JUMPDEST DUP4 DUP2 GT ISZERO PUSH2 0x1A99 JUMPI PUSH1 0x0 DUP5 DUP5 ADD MSTORE JUMPDEST POP POP POP POP JUMP JUMPDEST PUSH1 0x0 PUSH2 0x1AAA DUP3 PUSH2 0x1A36 JUMP JUMPDEST SWAP2 POP PUSH1 0x0 DUP3 EQ ISZERO PUSH2 0x1ABE JUMPI PUSH2 0x1ABD PUSH2 0x1B75 JUMP JUMPDEST JUMPDEST PUSH1 0x1 DUP3 SUB SWAP1 POP SWAP2 SWAP1 POP JUMP JUMPDEST PUSH1 0x0 PUSH1 0x2 DUP3 DIV SWAP1 POP PUSH1 0x1 DUP3 AND DUP1 PUSH2 0x1AE1 JUMPI PUSH1 0x7F DUP3 AND SWAP2 POP JUMPDEST PUSH1 0x20 DUP3 LT DUP2 EQ ISZERO PUSH2 0x1AF5 JUMPI PUSH2 0x1AF4 PUSH2 0x1BA4 JUMP JUMPDEST JUMPDEST POP SWAP2 SWAP1 POP JUMP JUMPDEST PUSH2 0x1B04 DUP3 PUSH2 0x1C45 JUMP JUMPDEST DUP2 ADD DUP2 DUP2 LT PUSH8 0xFFFFFFFFFFFFFFFF DUP3 GT OR ISZERO PUSH2 0x1B23 JUMPI PUSH2 0x1B22 PUSH2 0x1C02 JUMP JUMPDEST JUMPDEST DUP1 PUSH1 0x40 MSTORE POP POP POP JUMP JUMPDEST PUSH1 0x0 PUSH2 0x1B37 DUP3 PUSH2 0x1A36 JUMP JUMPDEST SWAP2 POP PUSH32 0xFFFFFFFFFFFFFFFFFFFFFFFFFFFFFFFFFFFFFFFFFFFFFFFFFFFFFFFFFFFFFFFF DUP3 EQ ISZERO PUSH2 0x1B6A JUMPI PUSH2 0x1B69 PUSH2 0x1B75 JUMP JUMPDEST JUMPDEST PUSH1 0x1 DUP3 ADD SWAP1 POP SWAP2 SWAP1 POP JUMP JUMPDEST PUSH32 0x4E487B7100000000000000000000000000000000000000000000000000000000 PUSH1 0x0 MSTORE PUSH1 0x11 PUSH1 0x4 MSTORE PUSH1 0x24 PUSH1 0x0 REVERT JUMPDEST PUSH32 0x4E487B7100000000000000000000000000000000000000000000000000000000 PUSH1 0x0 MSTORE PUSH1 0x22 PUSH1 0x4 MSTORE PUSH1 0x24 PUSH1 0x0 REVERT JUMPDEST PUSH32 0x4E487B7100000000000000000000000000000000000000000000000000000000 PUSH1 0x0 MSTORE PUSH1 0x32 PUSH1 0x4 MSTORE PUSH1 0x24 PUSH1 0x0 REVERT JUMPDEST PUSH32 0x4E487B7100000000000000000000000000000000000000000000000000000000 PUSH1 0x0 MSTORE PUSH1 0x41 PUSH1 0x4 MSTORE PUSH1 0x24 PUSH1 0x0 REVERT JUMPDEST PUSH1 0x0 DUP1 REVERT JUMPDEST PUSH1 0x0 DUP1 REVERT JUMPDEST PUSH1 0x0 DUP1 REVERT JUMPDEST PUSH1 0x0 DUP1 REVERT JUMPDEST PUSH1 0x0 PUSH1 0x1F NOT PUSH1 0x1F DUP4 ADD AND SWAP1 POP SWAP2 SWAP1 POP JUMP JUMPDEST PUSH32 0x546865206D6574686F642067657454696D65496E5365636F6E647320646F6573 PUSH1 0x0 DUP3 ADD MSTORE PUSH32 0x6E277420776F726B20666F72204D4F4E544820616E6420594541520000000000 PUSH1 0x20 DUP3 ADD MSTORE POP JUMP JUMPDEST PUSH2 0x1CAE DUP2 PUSH2 0x1A36 JUMP JUMPDEST DUP2 EQ PUSH2 0x1CB9 JUMPI PUSH1 0x0 DUP1 REVERT JUMPDEST POP JUMP JUMPDEST PUSH2 0x1CC5 DUP2 PUSH2 0x1A40 JUMP JUMPDEST DUP2 EQ PUSH2 0x1CD0 JUMPI PUSH1 0x0 DUP1 REVERT JUMPDEST POP JUMP INVALID LOG2 PUSH5 0x6970667358 0x22 SLT KECCAK256 0xBC 0xB9 0xBA 0xB6 PC CREATE2 SUB EXP PUSH24 0xB741836E321AAA292B285552BAF6929A8C521507859C1A64 PUSH20 0x6F6C634300080700330000000000000000000000 "
				},
				"gasEstimates": {
					"creation": {
						"codeDepositCost": "1486600",
						"executionCost": "infinite",
						"totalCost": "infinite"
					},
					"external": {
						"createSessionIntevalByIdRef(string,uint256)": "infinite",
						"deleteSessionInterval_idRef(string)": "infinite",
						"getAllSessionInterval()": "infinite",
						"getAllSessionInterval_mapping()": "infinite",
						"getSessionIntervalById(uint256)": "infinite",
						"getSessionIntervalByIdRef(string)": "infinite",
						"isTheSessionIdOpen(string,uint32)": "infinite",
						"isTheSessionIdOpen(uint256,uint32)": "infinite",
						"startNewSection(uint256,uint32)": "infinite",
						"startNewSessionIntervalByIdRef(string,uint32)": "infinite"
					}
				},
				"methodIdentifiers": {
					"createSessionIntevalByIdRef(string,uint256)": "1bbedc8d",
					"deleteSessionInterval_idRef(string)": "768dc4ef",
					"getAllSessionInterval()": "3bbf167c",
					"getAllSessionInterval_mapping()": "b1f913d2",
					"getSessionIntervalById(uint256)": "7598a3f8",
					"getSessionIntervalByIdRef(string)": "83cd87e8",
					"isTheSessionIdOpen(string,uint32)": "c7478c22",
					"isTheSessionIdOpen(uint256,uint32)": "d6d1c613",
					"startNewSection(uint256,uint32)": "def86522",
					"startNewSessionIntervalByIdRef(string,uint32)": "4a31c4ac"
				}
			},
			"storageLayout": {
				"storage": [
					{
						"astId": 1995,
						"contract": "contracts/lib/referencesCode-eai/010_SessionInterval_refCod.sol:SessionInterval_refCod",
						"label": "sessionInterval",
						"offset": 0,
						"slot": "0",
						"type": "t_array(t_struct(SessionInterval)1252_storage)dyn_storage"
					},
					{
						"astId": 1997,
						"contract": "contracts/lib/referencesCode-eai/010_SessionInterval_refCod.sol:SessionInterval_refCod",
						"label": "mapSize",
						"offset": 0,
						"slot": "1",
						"type": "t_uint256"
					},
					{
						"astId": 2000,
						"contract": "contracts/lib/referencesCode-eai/010_SessionInterval_refCod.sol:SessionInterval_refCod",
						"label": "keys",
						"offset": 0,
						"slot": "2",
						"type": "t_array(t_string_storage)dyn_storage"
					},
					{
						"astId": 2005,
						"contract": "contracts/lib/referencesCode-eai/010_SessionInterval_refCod.sol:SessionInterval_refCod",
						"label": "sessionIntevalByIdRef",
						"offset": 0,
						"slot": "3",
						"type": "t_mapping(t_string_memory_ptr,t_struct(SessionInterval)1252_storage)"
					}
				],
				"types": {
					"t_array(t_string_storage)dyn_storage": {
						"base": "t_string_storage",
						"encoding": "dynamic_array",
						"label": "string[]",
						"numberOfBytes": "32"
					},
					"t_array(t_struct(SessionInterval)1252_storage)dyn_storage": {
						"base": "t_struct(SessionInterval)1252_storage",
						"encoding": "dynamic_array",
						"label": "struct EAI.SessionInterval[]",
						"numberOfBytes": "32"
					},
					"t_mapping(t_string_memory_ptr,t_struct(SessionInterval)1252_storage)": {
						"encoding": "mapping",
						"key": "t_string_memory_ptr",
						"label": "mapping(string => struct EAI.SessionInterval)",
						"numberOfBytes": "32",
						"value": "t_struct(SessionInterval)1252_storage"
					},
					"t_string_memory_ptr": {
						"encoding": "bytes",
						"label": "string",
						"numberOfBytes": "32"
					},
					"t_string_storage": {
						"encoding": "bytes",
						"label": "string",
						"numberOfBytes": "32"
					},
					"t_struct(SessionInterval)1252_storage": {
						"encoding": "inplace",
						"label": "struct EAI.SessionInterval",
						"members": [
							{
								"astId": 1245,
								"contract": "contracts/lib/referencesCode-eai/010_SessionInterval_refCod.sol:SessionInterval_refCod",
								"label": "duration",
								"offset": 0,
								"slot": "0",
								"type": "t_uint8"
							},
							{
								"astId": 1247,
								"contract": "contracts/lib/referencesCode-eai/010_SessionInterval_refCod.sol:SessionInterval_refCod",
								"label": "timeUnit",
								"offset": 1,
								"slot": "0",
								"type": "t_uint8"
							},
							{
								"astId": 1249,
								"contract": "contracts/lib/referencesCode-eai/010_SessionInterval_refCod.sol:SessionInterval_refCod",
								"label": "durationInSeconds",
								"offset": 2,
								"slot": "0",
								"type": "t_uint32"
							},
							{
								"astId": 1251,
								"contract": "contracts/lib/referencesCode-eai/010_SessionInterval_refCod.sol:SessionInterval_refCod",
								"label": "endTime",
								"offset": 6,
								"slot": "0",
								"type": "t_uint32"
							}
						],
						"numberOfBytes": "32"
					},
					"t_uint256": {
						"encoding": "inplace",
						"label": "uint256",
						"numberOfBytes": "32"
					},
					"t_uint32": {
						"encoding": "inplace",
						"label": "uint32",
						"numberOfBytes": "4"
					},
					"t_uint8": {
						"encoding": "inplace",
						"label": "uint8",
						"numberOfBytes": "1"
					}
				}
			},
			"userdoc": {
				"kind": "user",
				"methods": {},
				"version": 1
			}
		}
	}
}