{
	"contracts/lib/referencesCode-eai/WeekDaysInterval_refCod.sol": {
		"WeekDaysInterval_refCod": {
			"abi": [
				{
					"inputs": [],
					"stateMutability": "nonpayable",
					"type": "constructor"
				},
				{
					"inputs": [],
					"name": "getAllWeekDaysInterval",
					"outputs": [
						{
							"components": [
								{
									"internalType": "uint8",
									"name": "start",
									"type": "uint8"
								},
								{
									"internalType": "uint8",
									"name": "end",
									"type": "uint8"
								}
							],
							"internalType": "struct EAI.WeekDaysInterval[]",
							"name": "",
							"type": "tuple[]"
						}
					],
					"stateMutability": "view",
					"type": "function"
				},
				{
					"inputs": [],
					"name": "getAmountOfWeekDaysInterval",
					"outputs": [
						{
							"internalType": "uint8",
							"name": "",
							"type": "uint8"
						}
					],
					"stateMutability": "view",
					"type": "function"
				},
				{
					"inputs": [
						{
							"internalType": "uint8",
							"name": "id_weekDaysInterval",
							"type": "uint8"
						}
					],
					"name": "getWeekDaysInterval",
					"outputs": [
						{
							"internalType": "uint8",
							"name": "start",
							"type": "uint8"
						},
						{
							"internalType": "uint8",
							"name": "end",
							"type": "uint8"
						}
					],
					"stateMutability": "view",
					"type": "function"
				},
				{
					"inputs": [],
					"name": "getWeekDaysInterval",
					"outputs": [
						{
							"components": [
								{
									"internalType": "uint8",
									"name": "start",
									"type": "uint8"
								},
								{
									"internalType": "uint8",
									"name": "end",
									"type": "uint8"
								}
							],
							"internalType": "struct EAI.WeekDaysInterval[]",
							"name": "",
							"type": "tuple[]"
						}
					],
					"stateMutability": "view",
					"type": "function"
				},
				{
					"inputs": [
						{
							"internalType": "uint8",
							"name": "_weekDay",
							"type": "uint8"
						}
					],
					"name": "isIntoWeekDaysIntervals",
					"outputs": [
						{
							"internalType": "bool",
							"name": "",
							"type": "bool"
						}
					],
					"stateMutability": "view",
					"type": "function"
				},
				{
					"inputs": [],
					"name": "setWeekDaysInterval",
					"outputs": [
						{
							"internalType": "uint8",
							"name": "startDay",
							"type": "uint8"
						},
						{
							"internalType": "uint8",
							"name": "endDay",
							"type": "uint8"
						}
					],
					"stateMutability": "nonpayable",
					"type": "function"
				},
				{
					"inputs": [
						{
							"internalType": "uint256",
							"name": "",
							"type": "uint256"
						}
					],
					"name": "weekDaysInterval",
					"outputs": [
						{
							"internalType": "uint8",
							"name": "start",
							"type": "uint8"
						},
						{
							"internalType": "uint8",
							"name": "end",
							"type": "uint8"
						}
					],
					"stateMutability": "view",
					"type": "function"
				}
			],
			"devdoc": {
				"kind": "dev",
				"methods": {},
				"version": 1
			},
			"evm": {
				"assembly": "    /* \"contracts/lib/referencesCode-eai/WeekDaysInterval_refCod.sol\":88:2356  contract WeekDaysInterval_refCod{... */\n  mstore(0x40, 0x80)\n    /* \"contracts/lib/referencesCode-eai/WeekDaysInterval_refCod.sol\":287:482  constructor (){... */\n  callvalue\n  dup1\n  iszero\n  tag_1\n  jumpi\n  0x00\n  dup1\n  revert\ntag_1:\n  pop\n    /* \"contracts/lib/referencesCode-eai/WeekDaysInterval_refCod.sol\":312:328  weekDaysInterval */\n  0x02\n    /* \"contracts/lib/referencesCode-eai/WeekDaysInterval_refCod.sol\":334:385  EAI.createWeekDaysInterval(EAI.MONDAY, EAI.TUESDAY) */\n  tag_4\n    /* \"contracts/lib/eai/EAI.sol\":452:453  1 */\n  0x01\n    /* \"contracts/lib/eai/EAI.sol\":483:484  2 */\n  0x02\n    /* \"contracts/lib/referencesCode-eai/WeekDaysInterval_refCod.sol\":334:360  EAI.createWeekDaysInterval */\n  or(tag_0_41, shl(0x20, tag_5))\n    /* \"contracts/lib/referencesCode-eai/WeekDaysInterval_refCod.sol\":334:385  EAI.createWeekDaysInterval(EAI.MONDAY, EAI.TUESDAY) */\n  0x20\n  shr\n  jump\t// in\ntag_4:\n    /* \"contracts/lib/referencesCode-eai/WeekDaysInterval_refCod.sol\":312:386  weekDaysInterval.push(EAI.createWeekDaysInterval(EAI.MONDAY, EAI.TUESDAY)) */\n  swap1\n  dup1\n  0x01\n  dup2\n  sload\n  add\n  dup1\n  dup3\n  sstore\n  dup1\n  swap2\n  pop\n  pop\n  0x01\n  swap1\n  sub\n  swap1\n  0x00\n  mstore\n  keccak256(0x00, 0x20)\n  add\n  0x00\n  swap1\n  swap2\n  swap1\n  swap2\n  swap1\n  swap2\n  pop\n  0x00\n  dup3\n  add\n  mload\n  dup2\n  0x00\n  add\n  exp(0x0100, 0x00)\n  dup2\n  sload\n  dup2\n  0xff\n  mul\n  not\n  and\n  swap1\n  dup4\n  0xff\n  and\n  mul\n  or\n  swap1\n  sstore\n  pop\n  0x20\n  dup3\n  add\n  mload\n  dup2\n  0x00\n  add\n  exp(0x0100, 0x01)\n  dup2\n  sload\n  dup2\n  0xff\n  mul\n  not\n  and\n  swap1\n  dup4\n  0xff\n  and\n  mul\n  or\n  swap1\n  sstore\n  pop\n  pop\n  pop\n    /* \"contracts/lib/referencesCode-eai/WeekDaysInterval_refCod.sol\":397:413  weekDaysInterval */\n  0x02\n    /* \"contracts/lib/referencesCode-eai/WeekDaysInterval_refCod.sol\":419:473  EAI.createWeekDaysInterval(EAI.THURSDAY, EAI.SATURDAY) */\n  tag_7\n    /* \"contracts/lib/eai/EAI.sol\":548:549  4 */\n  0x04\n    /* \"contracts/lib/eai/EAI.sol\":610:611  6 */\n  0x06\n    /* \"contracts/lib/referencesCode-eai/WeekDaysInterval_refCod.sol\":419:445  EAI.createWeekDaysInterval */\n  or(tag_0_41, shl(0x20, tag_5))\n    /* \"contracts/lib/referencesCode-eai/WeekDaysInterval_refCod.sol\":419:473  EAI.createWeekDaysInterval(EAI.THURSDAY, EAI.SATURDAY) */\n  0x20\n  shr\n  jump\t// in\ntag_7:\n    /* \"contracts/lib/referencesCode-eai/WeekDaysInterval_refCod.sol\":397:474  weekDaysInterval.push(EAI.createWeekDaysInterval(EAI.THURSDAY, EAI.SATURDAY)) */\n  swap1\n  dup1\n  0x01\n  dup2\n  sload\n  add\n  dup1\n  dup3\n  sstore\n  dup1\n  swap2\n  pop\n  pop\n  0x01\n  swap1\n  sub\n  swap1\n  0x00\n  mstore\n  keccak256(0x00, 0x20)\n  add\n  0x00\n  swap1\n  swap2\n  swap1\n  swap2\n  swap1\n  swap2\n  pop\n  0x00\n  dup3\n  add\n  mload\n  dup2\n  0x00\n  add\n  exp(0x0100, 0x00)\n  dup2\n  sload\n  dup2\n  0xff\n  mul\n  not\n  and\n  swap1\n  dup4\n  0xff\n  and\n  mul\n  or\n  swap1\n  sstore\n  pop\n  0x20\n  dup3\n  add\n  mload\n  dup2\n  0x00\n  add\n  exp(0x0100, 0x01)\n  dup2\n  sload\n  dup2\n  0xff\n  mul\n  not\n  and\n  swap1\n  dup4\n  0xff\n  and\n  mul\n  or\n  swap1\n  sstore\n  pop\n  pop\n  pop\n    /* \"contracts/lib/referencesCode-eai/WeekDaysInterval_refCod.sol\":88:2356  contract WeekDaysInterval_refCod{... */\n  jump(tag_9)\n    /* \"contracts/lib/eai/EAI.sol\":2313:2533  function createWeekDaysInterval(... */\ntag_5:\n    /* \"contracts/lib/eai/EAI.sol\":2453:2476  WeekDaysInterval memory */\n  tag_10\n  tag_11\n  jump\t// in\ntag_10:\n    /* \"contracts/lib/eai/EAI.sol\":2429:2435  _start */\n  dup3\n    /* \"contracts/lib/eai/EAI.sol\":2437:2441  _end */\n  dup3\n    /* \"contracts/lib/eai/EAI.sol\":422:423  0 */\n  0x00\n    /* \"contracts/lib/eai/EAI.sol\":5068:5087  _startDay >= SUNDAY */\n  0xff\n  and\n    /* \"contracts/lib/eai/EAI.sol\":5068:5077  _startDay */\n  dup3\n    /* \"contracts/lib/eai/EAI.sol\":5068:5087  _startDay >= SUNDAY */\n  0xff\n  and\n  lt\n  iszero\n    /* \"contracts/lib/eai/EAI.sol\":5068:5112  _startDay >= SUNDAY && _startDay <= SATURDAY */\n  dup1\n  iszero\n  tag_13\n  jumpi\n  pop\n    /* \"contracts/lib/eai/EAI.sol\":610:611  6 */\n  0x06\n    /* \"contracts/lib/eai/EAI.sol\":5091:5112  _startDay <= SATURDAY */\n  0xff\n  and\n    /* \"contracts/lib/eai/EAI.sol\":5091:5100  _startDay */\n  dup3\n    /* \"contracts/lib/eai/EAI.sol\":5091:5112  _startDay <= SATURDAY */\n  0xff\n  and\n  gt\n  iszero\n    /* \"contracts/lib/eai/EAI.sol\":5068:5112  _startDay >= SUNDAY && _startDay <= SATURDAY */\ntag_13:\n    /* \"contracts/lib/eai/EAI.sol\":5059:5157  require( _startDay >= SUNDAY && _startDay <= SATURDAY, \"The _startDay not represents a valid day\") */\n  tag_14\n  jumpi\n  mload(0x40)\n  0x08c379a000000000000000000000000000000000000000000000000000000000\n  dup2\n  mstore\n  0x04\n  add\n  tag_15\n  swap1\n  tag_16\n  jump\t// in\ntag_15:\n  mload(0x40)\n  dup1\n  swap2\n  sub\n  swap1\n  revert\ntag_14:\n    /* \"contracts/lib/eai/EAI.sol\":422:423  0 */\n  0x00\n    /* \"contracts/lib/eai/EAI.sol\":5176:5193  _endDay >= SUNDAY */\n  0xff\n  and\n    /* \"contracts/lib/eai/EAI.sol\":5176:5183  _endDay */\n  dup2\n    /* \"contracts/lib/eai/EAI.sol\":5176:5193  _endDay >= SUNDAY */\n  0xff\n  and\n  lt\n  iszero\n    /* \"contracts/lib/eai/EAI.sol\":5176:5216  _endDay >= SUNDAY && _endDay <= SATURDAY */\n  dup1\n  iszero\n  tag_17\n  jumpi\n  pop\n    /* \"contracts/lib/eai/EAI.sol\":610:611  6 */\n  0x06\n    /* \"contracts/lib/eai/EAI.sol\":5197:5216  _endDay <= SATURDAY */\n  0xff\n  and\n    /* \"contracts/lib/eai/EAI.sol\":5197:5204  _endDay */\n  dup2\n    /* \"contracts/lib/eai/EAI.sol\":5197:5216  _endDay <= SATURDAY */\n  0xff\n  and\n  gt\n  iszero\n    /* \"contracts/lib/eai/EAI.sol\":5176:5216  _endDay >= SUNDAY && _endDay <= SATURDAY */\ntag_17:\n    /* \"contracts/lib/eai/EAI.sol\":5168:5260  require(_endDay >= SUNDAY && _endDay <= SATURDAY,  \"The _endDay not represents a valid day\") */\n  tag_18\n  jumpi\n  mload(0x40)\n  0x08c379a000000000000000000000000000000000000000000000000000000000\n  dup2\n  mstore\n  0x04\n  add\n  tag_19\n  swap1\n  tag_20\n  jump\t// in\ntag_19:\n  mload(0x40)\n  dup1\n  swap2\n  sub\n  swap1\n  revert\ntag_18:\n    /* \"contracts/lib/eai/EAI.sol\":2495:2525  WeekDaysInterval(_start, _end) */\n  mload(0x40)\n  dup1\n  0x40\n  add\n  0x40\n  mstore\n  dup1\n    /* \"contracts/lib/eai/EAI.sol\":2512:2518  _start */\n  dup7\n    /* \"contracts/lib/eai/EAI.sol\":2495:2525  WeekDaysInterval(_start, _end) */\n  0xff\n  and\n  dup2\n  mstore\n  0x20\n  add\n    /* \"contracts/lib/eai/EAI.sol\":2520:2524  _end */\n  dup6\n    /* \"contracts/lib/eai/EAI.sol\":2495:2525  WeekDaysInterval(_start, _end) */\n  0xff\n  and\n  dup2\n  mstore\n  pop\n    /* \"contracts/lib/eai/EAI.sol\":2488:2525  return WeekDaysInterval(_start, _end) */\n  swap3\n  pop\n    /* \"contracts/lib/eai/EAI.sol\":2313:2533  function createWeekDaysInterval(... */\n  pop\n  pop\n  swap3\n  swap2\n  pop\n  pop\n  jump\t// out\n    /* \"contracts/lib/referencesCode-eai/WeekDaysInterval_refCod.sol\":88:2356  contract WeekDaysInterval_refCod{... */\ntag_11:\n  mload(0x40)\n  dup1\n  0x40\n  add\n  0x40\n  mstore\n  dup1\n  and(0xff, 0x00)\n  dup2\n  mstore\n  0x20\n  add\n  and(0xff, 0x00)\n  dup2\n  mstore\n  pop\n  swap1\n  jump\t// out\n    /* \"#utility.yul\":7:176   */\ntag_22:\n    /* \"#utility.yul\":91:102   */\n  0x00\n    /* \"#utility.yul\":125:131   */\n  dup3\n    /* \"#utility.yul\":120:123   */\n  dup3\n    /* \"#utility.yul\":113:132   */\n  mstore\n    /* \"#utility.yul\":165:169   */\n  0x20\n    /* \"#utility.yul\":160:163   */\n  dup3\n    /* \"#utility.yul\":156:170   */\n  add\n    /* \"#utility.yul\":141:170   */\n  swap1\n  pop\n    /* \"#utility.yul\":7:176   */\n  swap3\n  swap2\n  pop\n  pop\n  jump\t// out\n    /* \"#utility.yul\":182:409   */\ntag_23:\n    /* \"#utility.yul\":322:356   */\n  0x546865205f7374617274446179206e6f7420726570726573656e747320612076\n    /* \"#utility.yul\":318:319   */\n  0x00\n    /* \"#utility.yul\":310:316   */\n  dup3\n    /* \"#utility.yul\":306:320   */\n  add\n    /* \"#utility.yul\":299:357   */\n  mstore\n    /* \"#utility.yul\":391:401   */\n  0x616c696420646179000000000000000000000000000000000000000000000000\n    /* \"#utility.yul\":386:388   */\n  0x20\n    /* \"#utility.yul\":378:384   */\n  dup3\n    /* \"#utility.yul\":374:389   */\n  add\n    /* \"#utility.yul\":367:402   */\n  mstore\n    /* \"#utility.yul\":182:409   */\n  pop\n  jump\t// out\n    /* \"#utility.yul\":415:781   */\ntag_24:\n    /* \"#utility.yul\":557:560   */\n  0x00\n    /* \"#utility.yul\":578:645   */\n  tag_31\n    /* \"#utility.yul\":642:644   */\n  0x28\n    /* \"#utility.yul\":637:640   */\n  dup4\n    /* \"#utility.yul\":578:645   */\n  tag_22\n  jump\t// in\ntag_31:\n    /* \"#utility.yul\":571:645   */\n  swap2\n  pop\n    /* \"#utility.yul\":654:747   */\n  tag_32\n    /* \"#utility.yul\":743:746   */\n  dup3\n    /* \"#utility.yul\":654:747   */\n  tag_23\n  jump\t// in\ntag_32:\n    /* \"#utility.yul\":772:774   */\n  0x40\n    /* \"#utility.yul\":767:770   */\n  dup3\n    /* \"#utility.yul\":763:775   */\n  add\n    /* \"#utility.yul\":756:775   */\n  swap1\n  pop\n    /* \"#utility.yul\":415:781   */\n  swap2\n  swap1\n  pop\n  jump\t// out\n    /* \"#utility.yul\":787:1206   */\ntag_16:\n    /* \"#utility.yul\":953:957   */\n  0x00\n    /* \"#utility.yul\":991:993   */\n  0x20\n    /* \"#utility.yul\":980:989   */\n  dup3\n    /* \"#utility.yul\":976:994   */\n  add\n    /* \"#utility.yul\":968:994   */\n  swap1\n  pop\n    /* \"#utility.yul\":1040:1049   */\n  dup2\n    /* \"#utility.yul\":1034:1038   */\n  dup2\n    /* \"#utility.yul\":1030:1050   */\n  sub\n    /* \"#utility.yul\":1026:1027   */\n  0x00\n    /* \"#utility.yul\":1015:1024   */\n  dup4\n    /* \"#utility.yul\":1011:1028   */\n  add\n    /* \"#utility.yul\":1004:1051   */\n  mstore\n    /* \"#utility.yul\":1068:1199   */\n  tag_34\n    /* \"#utility.yul\":1194:1198   */\n  dup2\n    /* \"#utility.yul\":1068:1199   */\n  tag_24\n  jump\t// in\ntag_34:\n    /* \"#utility.yul\":1060:1199   */\n  swap1\n  pop\n    /* \"#utility.yul\":787:1206   */\n  swap2\n  swap1\n  pop\n  jump\t// out\n    /* \"#utility.yul\":1212:1437   */\ntag_25:\n    /* \"#utility.yul\":1352:1386   */\n  0x546865205f656e64446179206e6f7420726570726573656e747320612076616c\n    /* \"#utility.yul\":1348:1349   */\n  0x00\n    /* \"#utility.yul\":1340:1346   */\n  dup3\n    /* \"#utility.yul\":1336:1350   */\n  add\n    /* \"#utility.yul\":1329:1387   */\n  mstore\n    /* \"#utility.yul\":1421:1429   */\n  0x6964206461790000000000000000000000000000000000000000000000000000\n    /* \"#utility.yul\":1416:1418   */\n  0x20\n    /* \"#utility.yul\":1408:1414   */\n  dup3\n    /* \"#utility.yul\":1404:1419   */\n  add\n    /* \"#utility.yul\":1397:1430   */\n  mstore\n    /* \"#utility.yul\":1212:1437   */\n  pop\n  jump\t// out\n    /* \"#utility.yul\":1443:1809   */\ntag_26:\n    /* \"#utility.yul\":1585:1588   */\n  0x00\n    /* \"#utility.yul\":1606:1673   */\n  tag_37\n    /* \"#utility.yul\":1670:1672   */\n  0x26\n    /* \"#utility.yul\":1665:1668   */\n  dup4\n    /* \"#utility.yul\":1606:1673   */\n  tag_22\n  jump\t// in\ntag_37:\n    /* \"#utility.yul\":1599:1673   */\n  swap2\n  pop\n    /* \"#utility.yul\":1682:1775   */\n  tag_38\n    /* \"#utility.yul\":1771:1774   */\n  dup3\n    /* \"#utility.yul\":1682:1775   */\n  tag_25\n  jump\t// in\ntag_38:\n    /* \"#utility.yul\":1800:1802   */\n  0x40\n    /* \"#utility.yul\":1795:1798   */\n  dup3\n    /* \"#utility.yul\":1791:1803   */\n  add\n    /* \"#utility.yul\":1784:1803   */\n  swap1\n  pop\n    /* \"#utility.yul\":1443:1809   */\n  swap2\n  swap1\n  pop\n  jump\t// out\n    /* \"#utility.yul\":1815:2234   */\ntag_20:\n    /* \"#utility.yul\":1981:1985   */\n  0x00\n    /* \"#utility.yul\":2019:2021   */\n  0x20\n    /* \"#utility.yul\":2008:2017   */\n  dup3\n    /* \"#utility.yul\":2004:2022   */\n  add\n    /* \"#utility.yul\":1996:2022   */\n  swap1\n  pop\n    /* \"#utility.yul\":2068:2077   */\n  dup2\n    /* \"#utility.yul\":2062:2066   */\n  dup2\n    /* \"#utility.yul\":2058:2078   */\n  sub\n    /* \"#utility.yul\":2054:2055   */\n  0x00\n    /* \"#utility.yul\":2043:2052   */\n  dup4\n    /* \"#utility.yul\":2039:2056   */\n  add\n    /* \"#utility.yul\":2032:2079   */\n  mstore\n    /* \"#utility.yul\":2096:2227   */\n  tag_40\n    /* \"#utility.yul\":2222:2226   */\n  dup2\n    /* \"#utility.yul\":2096:2227   */\n  tag_26\n  jump\t// in\ntag_40:\n    /* \"#utility.yul\":2088:2227   */\n  swap1\n  pop\n    /* \"#utility.yul\":1815:2234   */\n  swap2\n  swap1\n  pop\n  jump\t// out\n    /* \"contracts/lib/referencesCode-eai/WeekDaysInterval_refCod.sol\":88:2356  contract WeekDaysInterval_refCod{... */\ntag_9:\n  dataSize(sub_0)\n  dup1\n  dataOffset(sub_0)\n  0x00\n  codecopy\n  0x00\n  return\nstop\n\nsub_0: assembly {\n        /* \"contracts/lib/referencesCode-eai/WeekDaysInterval_refCod.sol\":88:2356  contract WeekDaysInterval_refCod{... */\n      mstore(0x40, 0x80)\n      callvalue\n      dup1\n      iszero\n      tag_1\n      jumpi\n      0x00\n      dup1\n      revert\n    tag_1:\n      pop\n      jumpi(tag_2, lt(calldatasize, 0x04))\n      shr(0xe0, calldataload(0x00))\n      dup1\n      0x7a5f80e7\n      gt\n      tag_10\n      jumpi\n      dup1\n      0x7a5f80e7\n      eq\n      tag_6\n      jumpi\n      dup1\n      0x8098c715\n      eq\n      tag_7\n      jumpi\n      dup1\n      0xab19c86c\n      eq\n      tag_8\n      jumpi\n      dup1\n      0xf18406d7\n      eq\n      tag_9\n      jumpi\n      jump(tag_2)\n    tag_10:\n      dup1\n      0x0867ba68\n      eq\n      tag_3\n      jumpi\n      dup1\n      0x2af442ef\n      eq\n      tag_4\n      jumpi\n      dup1\n      0x2f501097\n      eq\n      tag_5\n      jumpi\n    tag_2:\n      0x00\n      dup1\n      revert\n        /* \"contracts/lib/referencesCode-eai/WeekDaysInterval_refCod.sol\":490:680  function getWeekDaysInterval(uint8 id_weekDaysInterval) public view returns(uint8 start, uint8 end){... */\n    tag_3:\n      tag_11\n      0x04\n      dup1\n      calldatasize\n      sub\n      dup2\n      add\n      swap1\n      tag_12\n      swap2\n      swap1\n      tag_13\n      jump\t// in\n    tag_12:\n      tag_14\n      jump\t// in\n    tag_11:\n      mload(0x40)\n      tag_15\n      swap3\n      swap2\n      swap1\n      tag_16\n      jump\t// in\n    tag_15:\n      mload(0x40)\n      dup1\n      swap2\n      sub\n      swap1\n      return\n        /* \"contracts/lib/referencesCode-eai/WeekDaysInterval_refCod.sol\":226:272  EAI.WeekDaysInterval[] public weekDaysInterval */\n    tag_4:\n      tag_17\n      0x04\n      dup1\n      calldatasize\n      sub\n      dup2\n      add\n      swap1\n      tag_18\n      swap2\n      swap1\n      tag_19\n      jump\t// in\n    tag_18:\n      tag_20\n      jump\t// in\n    tag_17:\n      mload(0x40)\n      tag_21\n      swap3\n      swap2\n      swap1\n      tag_16\n      jump\t// in\n    tag_21:\n      mload(0x40)\n      dup1\n      swap2\n      sub\n      swap1\n      return\n        /* \"contracts/lib/referencesCode-eai/WeekDaysInterval_refCod.sol\":907:1065  function isIntoWeekDaysIntervals( uint8 _weekDay) public view returns(bool){... */\n    tag_5:\n      tag_22\n      0x04\n      dup1\n      calldatasize\n      sub\n      dup2\n      add\n      swap1\n      tag_23\n      swap2\n      swap1\n      tag_13\n      jump\t// in\n    tag_23:\n      tag_24\n      jump\t// in\n    tag_22:\n      mload(0x40)\n      tag_25\n      swap2\n      swap1\n      tag_26\n      jump\t// in\n    tag_25:\n      mload(0x40)\n      dup1\n      swap2\n      sub\n      swap1\n      return\n        /* \"contracts/lib/referencesCode-eai/WeekDaysInterval_refCod.sol\":1293:1415  function getWeekDaysInterval()public view returns(EAI.WeekDaysInterval[] memory){... */\n    tag_6:\n      tag_27\n      tag_28\n      jump\t// in\n    tag_27:\n      mload(0x40)\n      tag_29\n      swap2\n      swap1\n      tag_30\n      jump\t// in\n    tag_29:\n      mload(0x40)\n      dup1\n      swap2\n      sub\n      swap1\n      return\n        /* \"contracts/lib/referencesCode-eai/WeekDaysInterval_refCod.sol\":688:853  function getAllWeekDaysInterval() public view returns(EAI.WeekDaysInterval[] memory)  {        ... */\n    tag_7:\n      tag_31\n      tag_32\n      jump\t// in\n    tag_31:\n      mload(0x40)\n      tag_33\n      swap2\n      swap1\n      tag_30\n      jump\t// in\n    tag_33:\n      mload(0x40)\n      dup1\n      swap2\n      sub\n      swap1\n      return\n        /* \"contracts/lib/referencesCode-eai/WeekDaysInterval_refCod.sol\":1424:1545  function getAmountOfWeekDaysInterval() public view returns(uint8){... */\n    tag_8:\n      tag_34\n      tag_35\n      jump\t// in\n    tag_34:\n      mload(0x40)\n      tag_36\n      swap2\n      swap1\n      tag_37\n      jump\t// in\n    tag_36:\n      mload(0x40)\n      dup1\n      swap2\n      sub\n      swap1\n      return\n        /* \"contracts/lib/referencesCode-eai/WeekDaysInterval_refCod.sol\":1553:1752  function setWeekDaysInterval() public returns(uint8 startDay, uint8 endDay){... */\n    tag_9:\n      tag_38\n      tag_39\n      jump\t// in\n    tag_38:\n      mload(0x40)\n      tag_40\n      swap3\n      swap2\n      swap1\n      tag_16\n      jump\t// in\n    tag_40:\n      mload(0x40)\n      dup1\n      swap2\n      sub\n      swap1\n      return\n        /* \"contracts/lib/referencesCode-eai/WeekDaysInterval_refCod.sol\":490:680  function getWeekDaysInterval(uint8 id_weekDaysInterval) public view returns(uint8 start, uint8 end){... */\n    tag_14:\n        /* \"contracts/lib/referencesCode-eai/WeekDaysInterval_refCod.sol\":566:577  uint8 start */\n      0x00\n        /* \"contracts/lib/referencesCode-eai/WeekDaysInterval_refCod.sol\":579:588  uint8 end */\n      dup1\n        /* \"contracts/lib/referencesCode-eai/WeekDaysInterval_refCod.sol\":607:672  EAI.getOneWeekDaysInterval(weekDaysInterval[id_weekDaysInterval]) */\n      tag_43\n        /* \"contracts/lib/referencesCode-eai/WeekDaysInterval_refCod.sol\":634:650  weekDaysInterval */\n      0x02\n        /* \"contracts/lib/referencesCode-eai/WeekDaysInterval_refCod.sol\":651:670  id_weekDaysInterval */\n      dup5\n        /* \"contracts/lib/referencesCode-eai/WeekDaysInterval_refCod.sol\":634:671  weekDaysInterval[id_weekDaysInterval] */\n      0xff\n      and\n      dup2\n      sload\n      dup2\n      lt\n      tag_44\n      jumpi\n      tag_45\n      tag_46\n      jump\t// in\n    tag_45:\n    tag_44:\n      swap1\n      0x00\n      mstore\n      keccak256(0x00, 0x20)\n      add\n        /* \"contracts/lib/referencesCode-eai/WeekDaysInterval_refCod.sol\":607:672  EAI.getOneWeekDaysInterval(weekDaysInterval[id_weekDaysInterval]) */\n      mload(0x40)\n      dup1\n      0x40\n      add\n      0x40\n      mstore\n      swap1\n      dup2\n      0x00\n      dup3\n      add\n      0x00\n      swap1\n      sload\n      swap1\n      0x0100\n      exp\n      swap1\n      div\n      0xff\n      and\n      0xff\n      and\n      0xff\n      and\n      dup2\n      mstore\n      0x20\n      add\n      0x00\n      dup3\n      add\n      0x01\n      swap1\n      sload\n      swap1\n      0x0100\n      exp\n      swap1\n      div\n      0xff\n      and\n      0xff\n      and\n      0xff\n      and\n      dup2\n      mstore\n      pop\n      pop\n        /* \"contracts/lib/referencesCode-eai/WeekDaysInterval_refCod.sol\":607:633  EAI.getOneWeekDaysInterval */\n      tag_48\n        /* \"contracts/lib/referencesCode-eai/WeekDaysInterval_refCod.sol\":607:672  EAI.getOneWeekDaysInterval(weekDaysInterval[id_weekDaysInterval]) */\n      jump\t// in\n    tag_43:\n        /* \"contracts/lib/referencesCode-eai/WeekDaysInterval_refCod.sol\":600:672  return EAI.getOneWeekDaysInterval(weekDaysInterval[id_weekDaysInterval]) */\n      swap2\n      pop\n      swap2\n      pop\n        /* \"contracts/lib/referencesCode-eai/WeekDaysInterval_refCod.sol\":490:680  function getWeekDaysInterval(uint8 id_weekDaysInterval) public view returns(uint8 start, uint8 end){... */\n      swap2\n      pop\n      swap2\n      jump\t// out\n        /* \"contracts/lib/referencesCode-eai/WeekDaysInterval_refCod.sol\":226:272  EAI.WeekDaysInterval[] public weekDaysInterval */\n    tag_20:\n      0x02\n      dup2\n      dup2\n      sload\n      dup2\n      lt\n      tag_49\n      jumpi\n      0x00\n      dup1\n      revert\n    tag_49:\n      swap1\n      0x00\n      mstore\n      keccak256(0x00, 0x20)\n      add\n      0x00\n      swap2\n      pop\n      swap1\n      pop\n      dup1\n      0x00\n      add\n      0x00\n      swap1\n      sload\n      swap1\n      0x0100\n      exp\n      swap1\n      div\n      0xff\n      and\n      swap1\n      dup1\n      0x00\n      add\n      0x01\n      swap1\n      sload\n      swap1\n      0x0100\n      exp\n      swap1\n      div\n      0xff\n      and\n      swap1\n      pop\n      dup3\n      jump\t// out\n        /* \"contracts/lib/referencesCode-eai/WeekDaysInterval_refCod.sol\":907:1065  function isIntoWeekDaysIntervals( uint8 _weekDay) public view returns(bool){... */\n    tag_24:\n        /* \"contracts/lib/referencesCode-eai/WeekDaysInterval_refCod.sol\":977:981  bool */\n      0x00\n        /* \"contracts/lib/referencesCode-eai/WeekDaysInterval_refCod.sol\":1001:1056  EAI.isIntoWeekDaysIntervals(_weekDay, weekDaysInterval) */\n      tag_52\n        /* \"contracts/lib/referencesCode-eai/WeekDaysInterval_refCod.sol\":1029:1037  _weekDay */\n      dup3\n        /* \"contracts/lib/referencesCode-eai/WeekDaysInterval_refCod.sol\":1039:1055  weekDaysInterval */\n      0x02\n        /* \"contracts/lib/referencesCode-eai/WeekDaysInterval_refCod.sol\":1001:1056  EAI.isIntoWeekDaysIntervals(_weekDay, weekDaysInterval) */\n      dup1\n      sload\n      dup1\n      0x20\n      mul\n      0x20\n      add\n      mload(0x40)\n      swap1\n      dup2\n      add\n      0x40\n      mstore\n      dup1\n      swap3\n      swap2\n      swap1\n      dup2\n      dup2\n      mstore\n      0x20\n      add\n      0x00\n      swap1\n    tag_53:\n      dup3\n      dup3\n      lt\n      iszero\n      tag_54\n      jumpi\n      dup4\n      dup3\n      swap1\n      0x00\n      mstore\n      keccak256(0x00, 0x20)\n      add\n      mload(0x40)\n      dup1\n      0x40\n      add\n      0x40\n      mstore\n      swap1\n      dup2\n      0x00\n      dup3\n      add\n      0x00\n      swap1\n      sload\n      swap1\n      0x0100\n      exp\n      swap1\n      div\n      0xff\n      and\n      0xff\n      and\n      0xff\n      and\n      dup2\n      mstore\n      0x20\n      add\n      0x00\n      dup3\n      add\n      0x01\n      swap1\n      sload\n      swap1\n      0x0100\n      exp\n      swap1\n      div\n      0xff\n      and\n      0xff\n      and\n      0xff\n      and\n      dup2\n      mstore\n      pop\n      pop\n      dup2\n      mstore\n      0x20\n      add\n      swap1\n      0x01\n      add\n      swap1\n      jump(tag_53)\n    tag_54:\n      pop\n      pop\n      pop\n      pop\n        /* \"contracts/lib/referencesCode-eai/WeekDaysInterval_refCod.sol\":1001:1028  EAI.isIntoWeekDaysIntervals */\n      tag_56\n        /* \"contracts/lib/referencesCode-eai/WeekDaysInterval_refCod.sol\":1001:1056  EAI.isIntoWeekDaysIntervals(_weekDay, weekDaysInterval) */\n      jump\t// in\n    tag_52:\n        /* \"contracts/lib/referencesCode-eai/WeekDaysInterval_refCod.sol\":994:1056  return EAI.isIntoWeekDaysIntervals(_weekDay, weekDaysInterval) */\n      swap1\n      pop\n        /* \"contracts/lib/referencesCode-eai/WeekDaysInterval_refCod.sol\":907:1065  function isIntoWeekDaysIntervals( uint8 _weekDay) public view returns(bool){... */\n      swap2\n      swap1\n      pop\n      jump\t// out\n        /* \"contracts/lib/referencesCode-eai/WeekDaysInterval_refCod.sol\":1293:1415  function getWeekDaysInterval()public view returns(EAI.WeekDaysInterval[] memory){... */\n    tag_28:\n        /* \"contracts/lib/referencesCode-eai/WeekDaysInterval_refCod.sol\":1343:1372  EAI.WeekDaysInterval[] memory */\n      0x60\n        /* \"contracts/lib/referencesCode-eai/WeekDaysInterval_refCod.sol\":1391:1407  weekDaysInterval */\n      0x02\n        /* \"contracts/lib/referencesCode-eai/WeekDaysInterval_refCod.sol\":1384:1407  return weekDaysInterval */\n      dup1\n      sload\n      dup1\n      0x20\n      mul\n      0x20\n      add\n      mload(0x40)\n      swap1\n      dup2\n      add\n      0x40\n      mstore\n      dup1\n      swap3\n      swap2\n      swap1\n      dup2\n      dup2\n      mstore\n      0x20\n      add\n      0x00\n      swap1\n    tag_58:\n      dup3\n      dup3\n      lt\n      iszero\n      tag_59\n      jumpi\n      dup4\n      dup3\n      swap1\n      0x00\n      mstore\n      keccak256(0x00, 0x20)\n      add\n      mload(0x40)\n      dup1\n      0x40\n      add\n      0x40\n      mstore\n      swap1\n      dup2\n      0x00\n      dup3\n      add\n      0x00\n      swap1\n      sload\n      swap1\n      0x0100\n      exp\n      swap1\n      div\n      0xff\n      and\n      0xff\n      and\n      0xff\n      and\n      dup2\n      mstore\n      0x20\n      add\n      0x00\n      dup3\n      add\n      0x01\n      swap1\n      sload\n      swap1\n      0x0100\n      exp\n      swap1\n      div\n      0xff\n      and\n      0xff\n      and\n      0xff\n      and\n      dup2\n      mstore\n      pop\n      pop\n      dup2\n      mstore\n      0x20\n      add\n      swap1\n      0x01\n      add\n      swap1\n      jump(tag_58)\n    tag_59:\n      pop\n      pop\n      pop\n      pop\n      swap1\n      pop\n        /* \"contracts/lib/referencesCode-eai/WeekDaysInterval_refCod.sol\":1293:1415  function getWeekDaysInterval()public view returns(EAI.WeekDaysInterval[] memory){... */\n      swap1\n      jump\t// out\n        /* \"contracts/lib/referencesCode-eai/WeekDaysInterval_refCod.sol\":688:853  function getAllWeekDaysInterval() public view returns(EAI.WeekDaysInterval[] memory)  {        ... */\n    tag_32:\n        /* \"contracts/lib/referencesCode-eai/WeekDaysInterval_refCod.sol\":742:771  EAI.WeekDaysInterval[] memory */\n      0x60\n        /* \"contracts/lib/referencesCode-eai/WeekDaysInterval_refCod.sol\":800:845  EAI.getAllWeekDaysIntervals(weekDaysInterval) */\n      tag_62\n        /* \"contracts/lib/referencesCode-eai/WeekDaysInterval_refCod.sol\":828:844  weekDaysInterval */\n      0x02\n        /* \"contracts/lib/referencesCode-eai/WeekDaysInterval_refCod.sol\":800:845  EAI.getAllWeekDaysIntervals(weekDaysInterval) */\n      dup1\n      sload\n      dup1\n      0x20\n      mul\n      0x20\n      add\n      mload(0x40)\n      swap1\n      dup2\n      add\n      0x40\n      mstore\n      dup1\n      swap3\n      swap2\n      swap1\n      dup2\n      dup2\n      mstore\n      0x20\n      add\n      0x00\n      swap1\n    tag_63:\n      dup3\n      dup3\n      lt\n      iszero\n      tag_64\n      jumpi\n      dup4\n      dup3\n      swap1\n      0x00\n      mstore\n      keccak256(0x00, 0x20)\n      add\n      mload(0x40)\n      dup1\n      0x40\n      add\n      0x40\n      mstore\n      swap1\n      dup2\n      0x00\n      dup3\n      add\n      0x00\n      swap1\n      sload\n      swap1\n      0x0100\n      exp\n      swap1\n      div\n      0xff\n      and\n      0xff\n      and\n      0xff\n      and\n      dup2\n      mstore\n      0x20\n      add\n      0x00\n      dup3\n      add\n      0x01\n      swap1\n      sload\n      swap1\n      0x0100\n      exp\n      swap1\n      div\n      0xff\n      and\n      0xff\n      and\n      0xff\n      and\n      dup2\n      mstore\n      pop\n      pop\n      dup2\n      mstore\n      0x20\n      add\n      swap1\n      0x01\n      add\n      swap1\n      jump(tag_63)\n    tag_64:\n      pop\n      pop\n      pop\n      pop\n        /* \"contracts/lib/referencesCode-eai/WeekDaysInterval_refCod.sol\":800:827  EAI.getAllWeekDaysIntervals */\n      tag_66\n        /* \"contracts/lib/referencesCode-eai/WeekDaysInterval_refCod.sol\":800:845  EAI.getAllWeekDaysIntervals(weekDaysInterval) */\n      jump\t// in\n    tag_62:\n        /* \"contracts/lib/referencesCode-eai/WeekDaysInterval_refCod.sol\":793:845  return EAI.getAllWeekDaysIntervals(weekDaysInterval) */\n      swap1\n      pop\n        /* \"contracts/lib/referencesCode-eai/WeekDaysInterval_refCod.sol\":688:853  function getAllWeekDaysInterval() public view returns(EAI.WeekDaysInterval[] memory)  {        ... */\n      swap1\n      jump\t// out\n        /* \"contracts/lib/referencesCode-eai/WeekDaysInterval_refCod.sol\":1424:1545  function getAmountOfWeekDaysInterval() public view returns(uint8){... */\n    tag_35:\n        /* \"contracts/lib/referencesCode-eai/WeekDaysInterval_refCod.sol\":1483:1488  uint8 */\n      0x00\n        /* \"contracts/lib/referencesCode-eai/WeekDaysInterval_refCod.sol\":1513:1529  weekDaysInterval */\n      0x02\n        /* \"contracts/lib/referencesCode-eai/WeekDaysInterval_refCod.sol\":1513:1536  weekDaysInterval.length */\n      dup1\n      sload\n      swap1\n      pop\n        /* \"contracts/lib/referencesCode-eai/WeekDaysInterval_refCod.sol\":1500:1537  return uint8(weekDaysInterval.length) */\n      swap1\n      pop\n        /* \"contracts/lib/referencesCode-eai/WeekDaysInterval_refCod.sol\":1424:1545  function getAmountOfWeekDaysInterval() public view returns(uint8){... */\n      swap1\n      jump\t// out\n        /* \"contracts/lib/referencesCode-eai/WeekDaysInterval_refCod.sol\":1553:1752  function setWeekDaysInterval() public returns(uint8 startDay, uint8 endDay){... */\n    tag_39:\n        /* \"contracts/lib/referencesCode-eai/WeekDaysInterval_refCod.sol\":1599:1613  uint8 startDay */\n      0x00\n        /* \"contracts/lib/referencesCode-eai/WeekDaysInterval_refCod.sol\":1615:1627  uint8 endDay */\n      dup1\n        /* \"contracts/lib/referencesCode-eai/WeekDaysInterval_refCod.sol\":1639:1682  weekDaysInterval[0].setWeekDayInterval(3,6) */\n      tag_69\n        /* \"contracts/lib/referencesCode-eai/WeekDaysInterval_refCod.sol\":1678:1679  3 */\n      0x03\n        /* \"contracts/lib/referencesCode-eai/WeekDaysInterval_refCod.sol\":1680:1681  6 */\n      0x06\n        /* \"contracts/lib/referencesCode-eai/WeekDaysInterval_refCod.sol\":1639:1655  weekDaysInterval */\n      0x02\n        /* \"contracts/lib/referencesCode-eai/WeekDaysInterval_refCod.sol\":1656:1657  0 */\n      0x00\n        /* \"contracts/lib/referencesCode-eai/WeekDaysInterval_refCod.sol\":1639:1658  weekDaysInterval[0] */\n      dup2\n      sload\n      dup2\n      lt\n      tag_70\n      jumpi\n      tag_71\n      tag_46\n      jump\t// in\n    tag_71:\n    tag_70:\n      swap1\n      0x00\n      mstore\n      keccak256(0x00, 0x20)\n      add\n        /* \"contracts/lib/referencesCode-eai/WeekDaysInterval_refCod.sol\":1639:1677  weekDaysInterval[0].setWeekDayInterval */\n      tag_73\n      swap1\n        /* \"contracts/lib/referencesCode-eai/WeekDaysInterval_refCod.sol\":1639:1682  weekDaysInterval[0].setWeekDayInterval(3,6) */\n      swap3\n      swap2\n      swap1\n      0xffffffff\n      and\n      jump\t// in\n    tag_69:\n        /* \"contracts/lib/referencesCode-eai/WeekDaysInterval_refCod.sol\":1700:1744  weekDaysInterval[0].getOneWeekDaysInterval() */\n      tag_74\n        /* \"contracts/lib/referencesCode-eai/WeekDaysInterval_refCod.sol\":1700:1716  weekDaysInterval */\n      0x02\n        /* \"contracts/lib/referencesCode-eai/WeekDaysInterval_refCod.sol\":1717:1718  0 */\n      0x00\n        /* \"contracts/lib/referencesCode-eai/WeekDaysInterval_refCod.sol\":1700:1719  weekDaysInterval[0] */\n      dup2\n      sload\n      dup2\n      lt\n      tag_75\n      jumpi\n      tag_76\n      tag_46\n      jump\t// in\n    tag_76:\n    tag_75:\n      swap1\n      0x00\n      mstore\n      keccak256(0x00, 0x20)\n      add\n        /* \"contracts/lib/referencesCode-eai/WeekDaysInterval_refCod.sol\":1700:1742  weekDaysInterval[0].getOneWeekDaysInterval */\n      mload(0x40)\n      dup1\n      0x40\n      add\n      0x40\n      mstore\n      swap1\n      dup2\n      0x00\n      dup3\n      add\n      0x00\n      swap1\n      sload\n      swap1\n      0x0100\n      exp\n      swap1\n      div\n      0xff\n      and\n      0xff\n      and\n      0xff\n      and\n      dup2\n      mstore\n      0x20\n      add\n      0x00\n      dup3\n      add\n      0x01\n      swap1\n      sload\n      swap1\n      0x0100\n      exp\n      swap1\n      div\n      0xff\n      and\n      0xff\n      and\n      0xff\n      and\n      dup2\n      mstore\n      pop\n      pop\n      tag_48\n        /* \"contracts/lib/referencesCode-eai/WeekDaysInterval_refCod.sol\":1700:1744  weekDaysInterval[0].getOneWeekDaysInterval() */\n      jump\t// in\n    tag_74:\n        /* \"contracts/lib/referencesCode-eai/WeekDaysInterval_refCod.sol\":1693:1744  return weekDaysInterval[0].getOneWeekDaysInterval() */\n      swap2\n      pop\n      swap2\n      pop\n        /* \"contracts/lib/referencesCode-eai/WeekDaysInterval_refCod.sol\":1553:1752  function setWeekDaysInterval() public returns(uint8 startDay, uint8 endDay){... */\n      swap1\n      swap2\n      jump\t// out\n        /* \"contracts/lib/eai/EAI.sol\":2313:2533  function createWeekDaysInterval(... */\n    tag_41:\n        /* \"contracts/lib/eai/EAI.sol\":2453:2476  WeekDaysInterval memory */\n      tag_78\n      tag_79\n      jump\t// in\n    tag_78:\n        /* \"contracts/lib/eai/EAI.sol\":2429:2435  _start */\n      dup3\n        /* \"contracts/lib/eai/EAI.sol\":2437:2441  _end */\n      dup3\n        /* \"contracts/lib/eai/EAI.sol\":422:423  0 */\n      0x00\n        /* \"contracts/lib/eai/EAI.sol\":5068:5087  _startDay >= SUNDAY */\n      0xff\n      and\n        /* \"contracts/lib/eai/EAI.sol\":5068:5077  _startDay */\n      dup3\n        /* \"contracts/lib/eai/EAI.sol\":5068:5087  _startDay >= SUNDAY */\n      0xff\n      and\n      lt\n      iszero\n        /* \"contracts/lib/eai/EAI.sol\":5068:5112  _startDay >= SUNDAY && _startDay <= SATURDAY */\n      dup1\n      iszero\n      tag_81\n      jumpi\n      pop\n        /* \"contracts/lib/eai/EAI.sol\":610:611  6 */\n      0x06\n        /* \"contracts/lib/eai/EAI.sol\":5091:5112  _startDay <= SATURDAY */\n      0xff\n      and\n        /* \"contracts/lib/eai/EAI.sol\":5091:5100  _startDay */\n      dup3\n        /* \"contracts/lib/eai/EAI.sol\":5091:5112  _startDay <= SATURDAY */\n      0xff\n      and\n      gt\n      iszero\n        /* \"contracts/lib/eai/EAI.sol\":5068:5112  _startDay >= SUNDAY && _startDay <= SATURDAY */\n    tag_81:\n        /* \"contracts/lib/eai/EAI.sol\":5059:5157  require( _startDay >= SUNDAY && _startDay <= SATURDAY, \"The _startDay not represents a valid day\") */\n      tag_82\n      jumpi\n      mload(0x40)\n      0x08c379a000000000000000000000000000000000000000000000000000000000\n      dup2\n      mstore\n      0x04\n      add\n      tag_83\n      swap1\n      tag_84\n      jump\t// in\n    tag_83:\n      mload(0x40)\n      dup1\n      swap2\n      sub\n      swap1\n      revert\n    tag_82:\n        /* \"contracts/lib/eai/EAI.sol\":422:423  0 */\n      0x00\n        /* \"contracts/lib/eai/EAI.sol\":5176:5193  _endDay >= SUNDAY */\n      0xff\n      and\n        /* \"contracts/lib/eai/EAI.sol\":5176:5183  _endDay */\n      dup2\n        /* \"contracts/lib/eai/EAI.sol\":5176:5193  _endDay >= SUNDAY */\n      0xff\n      and\n      lt\n      iszero\n        /* \"contracts/lib/eai/EAI.sol\":5176:5216  _endDay >= SUNDAY && _endDay <= SATURDAY */\n      dup1\n      iszero\n      tag_85\n      jumpi\n      pop\n        /* \"contracts/lib/eai/EAI.sol\":610:611  6 */\n      0x06\n        /* \"contracts/lib/eai/EAI.sol\":5197:5216  _endDay <= SATURDAY */\n      0xff\n      and\n        /* \"contracts/lib/eai/EAI.sol\":5197:5204  _endDay */\n      dup2\n        /* \"contracts/lib/eai/EAI.sol\":5197:5216  _endDay <= SATURDAY */\n      0xff\n      and\n      gt\n      iszero\n        /* \"contracts/lib/eai/EAI.sol\":5176:5216  _endDay >= SUNDAY && _endDay <= SATURDAY */\n    tag_85:\n        /* \"contracts/lib/eai/EAI.sol\":5168:5260  require(_endDay >= SUNDAY && _endDay <= SATURDAY,  \"The _endDay not represents a valid day\") */\n      tag_86\n      jumpi\n      mload(0x40)\n      0x08c379a000000000000000000000000000000000000000000000000000000000\n      dup2\n      mstore\n      0x04\n      add\n      tag_87\n      swap1\n      tag_88\n      jump\t// in\n    tag_87:\n      mload(0x40)\n      dup1\n      swap2\n      sub\n      swap1\n      revert\n    tag_86:\n        /* \"contracts/lib/eai/EAI.sol\":2495:2525  WeekDaysInterval(_start, _end) */\n      mload(0x40)\n      dup1\n      0x40\n      add\n      0x40\n      mstore\n      dup1\n        /* \"contracts/lib/eai/EAI.sol\":2512:2518  _start */\n      dup7\n        /* \"contracts/lib/eai/EAI.sol\":2495:2525  WeekDaysInterval(_start, _end) */\n      0xff\n      and\n      dup2\n      mstore\n      0x20\n      add\n        /* \"contracts/lib/eai/EAI.sol\":2520:2524  _end */\n      dup6\n        /* \"contracts/lib/eai/EAI.sol\":2495:2525  WeekDaysInterval(_start, _end) */\n      0xff\n      and\n      dup2\n      mstore\n      pop\n        /* \"contracts/lib/eai/EAI.sol\":2488:2525  return WeekDaysInterval(_start, _end) */\n      swap3\n      pop\n        /* \"contracts/lib/eai/EAI.sol\":2313:2533  function createWeekDaysInterval(... */\n      pop\n      pop\n      swap3\n      swap2\n      pop\n      pop\n      jump\t// out\n        /* \"contracts/lib/eai/EAI.sol\":2778:2938  function getOneWeekDaysInterval( WeekDaysInterval memory _wdi )internal pure returns(uint8 start, uint8 end){... */\n    tag_48:\n        /* \"contracts/lib/eai/EAI.sol\":2863:2874  uint8 start */\n      0x00\n        /* \"contracts/lib/eai/EAI.sol\":2876:2885  uint8 end */\n      dup1\n        /* \"contracts/lib/eai/EAI.sol\":2909:2913  _wdi */\n      dup3\n        /* \"contracts/lib/eai/EAI.sol\":2909:2919  _wdi.start */\n      0x00\n      add\n      mload\n        /* \"contracts/lib/eai/EAI.sol\":2921:2925  _wdi */\n      dup4\n        /* \"contracts/lib/eai/EAI.sol\":2921:2929  _wdi.end */\n      0x20\n      add\n      mload\n        /* \"contracts/lib/eai/EAI.sol\":2901:2930  return (_wdi.start, _wdi.end) */\n      swap2\n      pop\n      swap2\n      pop\n        /* \"contracts/lib/eai/EAI.sol\":2778:2938  function getOneWeekDaysInterval( WeekDaysInterval memory _wdi )internal pure returns(uint8 start, uint8 end){... */\n      swap2\n      pop\n      swap2\n      jump\t// out\n        /* \"contracts/lib/eai/EAI.sol\":3758:4233  function isIntoWeekDaysIntervals(uint8 _weekDay, WeekDaysInterval [] memory _wdInterval) internal pure onlyValidDay(_weekDay) returns(bool){... */\n    tag_56:\n        /* \"contracts/lib/eai/EAI.sol\":3892:3896  bool */\n      0x00\n        /* \"contracts/lib/eai/EAI.sol\":3874:3882  _weekDay */\n      dup3\n        /* \"contracts/lib/eai/EAI.sol\":422:423  0 */\n      0x00\n        /* \"contracts/lib/eai/EAI.sol\":5346:5360  _day >= SUNDAY */\n      0xff\n      and\n        /* \"contracts/lib/eai/EAI.sol\":5346:5350  _day */\n      dup2\n        /* \"contracts/lib/eai/EAI.sol\":5346:5360  _day >= SUNDAY */\n      0xff\n      and\n      lt\n      iszero\n        /* \"contracts/lib/eai/EAI.sol\":5346:5380  _day >= SUNDAY && _day <= SATURDAY */\n      dup1\n      iszero\n      tag_92\n      jumpi\n      pop\n        /* \"contracts/lib/eai/EAI.sol\":610:611  6 */\n      0x06\n        /* \"contracts/lib/eai/EAI.sol\":5364:5380  _day <= SATURDAY */\n      0xff\n      and\n        /* \"contracts/lib/eai/EAI.sol\":5364:5368  _day */\n      dup2\n        /* \"contracts/lib/eai/EAI.sol\":5364:5380  _day <= SATURDAY */\n      0xff\n      and\n      gt\n      iszero\n        /* \"contracts/lib/eai/EAI.sol\":5346:5380  _day >= SUNDAY && _day <= SATURDAY */\n    tag_92:\n        /* \"contracts/lib/eai/EAI.sol\":5337:5433  require((_day >= SUNDAY && _day <= SATURDAY), \"The given number/day not represents a valid day\") */\n      tag_93\n      jumpi\n      mload(0x40)\n      0x08c379a000000000000000000000000000000000000000000000000000000000\n      dup2\n      mstore\n      0x04\n      add\n      tag_94\n      swap1\n      tag_95\n      jump\t// in\n    tag_94:\n      mload(0x40)\n      dup1\n      swap2\n      sub\n      swap1\n      revert\n    tag_93:\n        /* \"contracts/lib/eai/EAI.sol\":3908:3923  bool flagReturn */\n      0x00\n        /* \"contracts/lib/eai/EAI.sol\":3942:3954  uint vLength */\n      dup1\n        /* \"contracts/lib/eai/EAI.sol\":3957:3968  _wdInterval */\n      dup5\n        /* \"contracts/lib/eai/EAI.sol\":3957:3975  _wdInterval.length */\n      mload\n        /* \"contracts/lib/eai/EAI.sol\":3942:3975  uint vLength = _wdInterval.length */\n      swap1\n      pop\n        /* \"contracts/lib/eai/EAI.sol\":3990:3996  uint i */\n      0x00\n        /* \"contracts/lib/eai/EAI.sol\":3986:4197  for(uint i=0; i<vLength; i++){... */\n    tag_97:\n        /* \"contracts/lib/eai/EAI.sol\":4002:4009  vLength */\n      dup2\n        /* \"contracts/lib/eai/EAI.sol\":4000:4001  i */\n      dup2\n        /* \"contracts/lib/eai/EAI.sol\":4000:4009  i<vLength */\n      lt\n        /* \"contracts/lib/eai/EAI.sol\":3986:4197  for(uint i=0; i<vLength; i++){... */\n      iszero\n      tag_98\n      jumpi\n        /* \"contracts/lib/eai/EAI.sol\":4046:4094  isIntoWeekDaysInterval(_weekDay, _wdInterval[i]) */\n      tag_100\n        /* \"contracts/lib/eai/EAI.sol\":4069:4077  _weekDay */\n      dup8\n        /* \"contracts/lib/eai/EAI.sol\":4079:4090  _wdInterval */\n      dup8\n        /* \"contracts/lib/eai/EAI.sol\":4091:4092  i */\n      dup4\n        /* \"contracts/lib/eai/EAI.sol\":4079:4093  _wdInterval[i] */\n      dup2\n      mload\n      dup2\n      lt\n      tag_101\n      jumpi\n      tag_102\n      tag_46\n      jump\t// in\n    tag_102:\n    tag_101:\n      0x20\n      mul\n      0x20\n      add\n      add\n      mload\n        /* \"contracts/lib/eai/EAI.sol\":4046:4068  isIntoWeekDaysInterval */\n      tag_103\n        /* \"contracts/lib/eai/EAI.sol\":4046:4094  isIntoWeekDaysInterval(_weekDay, _wdInterval[i]) */\n      jump\t// in\n    tag_100:\n        /* \"contracts/lib/eai/EAI.sol\":4033:4094  flagReturn = isIntoWeekDaysInterval(_weekDay, _wdInterval[i]) */\n      swap3\n      pop\n        /* \"contracts/lib/eai/EAI.sol\":4116:4126  flagReturn */\n      dup3\n        /* \"contracts/lib/eai/EAI.sol\":4162:4167  break */\n      tag_98\n        /* \"contracts/lib/eai/EAI.sol\":4113:4186  if(flagReturn){                ... */\n      jumpi\n        /* \"contracts/lib/eai/EAI.sol\":4011:4014  i++ */\n      dup1\n      dup1\n      tag_105\n      swap1\n      tag_106\n      jump\t// in\n    tag_105:\n      swap2\n      pop\n      pop\n        /* \"contracts/lib/eai/EAI.sol\":3986:4197  for(uint i=0; i<vLength; i++){... */\n      jump(tag_97)\n    tag_98:\n      pop\n        /* \"contracts/lib/eai/EAI.sol\":4214:4224  flagReturn */\n      dup2\n        /* \"contracts/lib/eai/EAI.sol\":4207:4224  return flagReturn */\n      swap4\n      pop\n      pop\n      pop\n        /* \"contracts/lib/eai/EAI.sol\":3758:4233  function isIntoWeekDaysIntervals(uint8 _weekDay, WeekDaysInterval [] memory _wdInterval) internal pure onlyValidDay(_weekDay) returns(bool){... */\n      pop\n      swap3\n      swap2\n      pop\n      pop\n      jump\t// out\n        /* \"contracts/lib/eai/EAI.sol\":2946:3095  function getAllWeekDaysIntervals(WeekDaysInterval[] memory _wdi) internal pure returns(WeekDaysInterval[] memory) {... */\n    tag_66:\n        /* \"contracts/lib/eai/EAI.sol\":3033:3058  WeekDaysInterval[] memory */\n      0x60\n        /* \"contracts/lib/eai/EAI.sol\":3078:3082  _wdi */\n      dup2\n        /* \"contracts/lib/eai/EAI.sol\":3071:3082  return _wdi */\n      swap1\n      pop\n        /* \"contracts/lib/eai/EAI.sol\":2946:3095  function getAllWeekDaysIntervals(WeekDaysInterval[] memory _wdi) internal pure returns(WeekDaysInterval[] memory) {... */\n      swap2\n      swap1\n      pop\n      jump\t// out\n        /* \"contracts/lib/eai/EAI.sol\":2542:2770  function setWeekDayInterval( ... */\n    tag_73:\n        /* \"contracts/lib/eai/EAI.sol\":2689:2695  _start */\n      dup2\n        /* \"contracts/lib/eai/EAI.sol\":2697:2701  _end */\n      dup2\n        /* \"contracts/lib/eai/EAI.sol\":422:423  0 */\n      0x00\n        /* \"contracts/lib/eai/EAI.sol\":5068:5087  _startDay >= SUNDAY */\n      0xff\n      and\n        /* \"contracts/lib/eai/EAI.sol\":5068:5077  _startDay */\n      dup3\n        /* \"contracts/lib/eai/EAI.sol\":5068:5087  _startDay >= SUNDAY */\n      0xff\n      and\n      lt\n      iszero\n        /* \"contracts/lib/eai/EAI.sol\":5068:5112  _startDay >= SUNDAY && _startDay <= SATURDAY */\n      dup1\n      iszero\n      tag_109\n      jumpi\n      pop\n        /* \"contracts/lib/eai/EAI.sol\":610:611  6 */\n      0x06\n        /* \"contracts/lib/eai/EAI.sol\":5091:5112  _startDay <= SATURDAY */\n      0xff\n      and\n        /* \"contracts/lib/eai/EAI.sol\":5091:5100  _startDay */\n      dup3\n        /* \"contracts/lib/eai/EAI.sol\":5091:5112  _startDay <= SATURDAY */\n      0xff\n      and\n      gt\n      iszero\n        /* \"contracts/lib/eai/EAI.sol\":5068:5112  _startDay >= SUNDAY && _startDay <= SATURDAY */\n    tag_109:\n        /* \"contracts/lib/eai/EAI.sol\":5059:5157  require( _startDay >= SUNDAY && _startDay <= SATURDAY, \"The _startDay not represents a valid day\") */\n      tag_110\n      jumpi\n      mload(0x40)\n      0x08c379a000000000000000000000000000000000000000000000000000000000\n      dup2\n      mstore\n      0x04\n      add\n      tag_111\n      swap1\n      tag_84\n      jump\t// in\n    tag_111:\n      mload(0x40)\n      dup1\n      swap2\n      sub\n      swap1\n      revert\n    tag_110:\n        /* \"contracts/lib/eai/EAI.sol\":422:423  0 */\n      0x00\n        /* \"contracts/lib/eai/EAI.sol\":5176:5193  _endDay >= SUNDAY */\n      0xff\n      and\n        /* \"contracts/lib/eai/EAI.sol\":5176:5183  _endDay */\n      dup2\n        /* \"contracts/lib/eai/EAI.sol\":5176:5193  _endDay >= SUNDAY */\n      0xff\n      and\n      lt\n      iszero\n        /* \"contracts/lib/eai/EAI.sol\":5176:5216  _endDay >= SUNDAY && _endDay <= SATURDAY */\n      dup1\n      iszero\n      tag_112\n      jumpi\n      pop\n        /* \"contracts/lib/eai/EAI.sol\":610:611  6 */\n      0x06\n        /* \"contracts/lib/eai/EAI.sol\":5197:5216  _endDay <= SATURDAY */\n      0xff\n      and\n        /* \"contracts/lib/eai/EAI.sol\":5197:5204  _endDay */\n      dup2\n        /* \"contracts/lib/eai/EAI.sol\":5197:5216  _endDay <= SATURDAY */\n      0xff\n      and\n      gt\n      iszero\n        /* \"contracts/lib/eai/EAI.sol\":5176:5216  _endDay >= SUNDAY && _endDay <= SATURDAY */\n    tag_112:\n        /* \"contracts/lib/eai/EAI.sol\":5168:5260  require(_endDay >= SUNDAY && _endDay <= SATURDAY,  \"The _endDay not represents a valid day\") */\n      tag_113\n      jumpi\n      mload(0x40)\n      0x08c379a000000000000000000000000000000000000000000000000000000000\n      dup2\n      mstore\n      0x04\n      add\n      tag_114\n      swap1\n      tag_88\n      jump\t// in\n    tag_114:\n      mload(0x40)\n      dup1\n      swap2\n      sub\n      swap1\n      revert\n    tag_113:\n        /* \"contracts/lib/eai/EAI.sol\":2725:2731  _start */\n      dup4\n        /* \"contracts/lib/eai/EAI.sol\":2713:2717  _wdi */\n      dup6\n        /* \"contracts/lib/eai/EAI.sol\":2713:2723  _wdi.start */\n      0x00\n      add\n      0x00\n        /* \"contracts/lib/eai/EAI.sol\":2713:2731  _wdi.start= _start */\n      0x0100\n      exp\n      dup2\n      sload\n      dup2\n      0xff\n      mul\n      not\n      and\n      swap1\n      dup4\n      0xff\n      and\n      mul\n      or\n      swap1\n      sstore\n      pop\n        /* \"contracts/lib/eai/EAI.sol\":2753:2757  _end */\n      dup3\n        /* \"contracts/lib/eai/EAI.sol\":2742:2746  _wdi */\n      dup6\n        /* \"contracts/lib/eai/EAI.sol\":2742:2750  _wdi.end */\n      0x00\n      add\n      0x01\n        /* \"contracts/lib/eai/EAI.sol\":2742:2757  _wdi.end = _end */\n      0x0100\n      exp\n      dup2\n      sload\n      dup2\n      0xff\n      mul\n      not\n      and\n      swap1\n      dup4\n      0xff\n      and\n      mul\n      or\n      swap1\n      sstore\n      pop\n        /* \"contracts/lib/eai/EAI.sol\":2542:2770  function setWeekDayInterval( ... */\n      pop\n      pop\n      pop\n      pop\n      pop\n      jump\t// out\n        /* \"contracts/lib/eai/EAI.sol\":4281:4903  function isIntoWeekDaysInterval(... */\n    tag_103:\n        /* \"contracts/lib/eai/EAI.sol\":4459:4463  bool */\n      0x00\n        /* \"contracts/lib/eai/EAI.sol\":4435:4449  _weekDayAccess */\n      dup3\n        /* \"contracts/lib/eai/EAI.sol\":422:423  0 */\n      0x00\n        /* \"contracts/lib/eai/EAI.sol\":5346:5360  _day >= SUNDAY */\n      0xff\n      and\n        /* \"contracts/lib/eai/EAI.sol\":5346:5350  _day */\n      dup2\n        /* \"contracts/lib/eai/EAI.sol\":5346:5360  _day >= SUNDAY */\n      0xff\n      and\n      lt\n      iszero\n        /* \"contracts/lib/eai/EAI.sol\":5346:5380  _day >= SUNDAY && _day <= SATURDAY */\n      dup1\n      iszero\n      tag_117\n      jumpi\n      pop\n        /* \"contracts/lib/eai/EAI.sol\":610:611  6 */\n      0x06\n        /* \"contracts/lib/eai/EAI.sol\":5364:5380  _day <= SATURDAY */\n      0xff\n      and\n        /* \"contracts/lib/eai/EAI.sol\":5364:5368  _day */\n      dup2\n        /* \"contracts/lib/eai/EAI.sol\":5364:5380  _day <= SATURDAY */\n      0xff\n      and\n      gt\n      iszero\n        /* \"contracts/lib/eai/EAI.sol\":5346:5380  _day >= SUNDAY && _day <= SATURDAY */\n    tag_117:\n        /* \"contracts/lib/eai/EAI.sol\":5337:5433  require((_day >= SUNDAY && _day <= SATURDAY), \"The given number/day not represents a valid day\") */\n      tag_118\n      jumpi\n      mload(0x40)\n      0x08c379a000000000000000000000000000000000000000000000000000000000\n      dup2\n      mstore\n      0x04\n      add\n      tag_119\n      swap1\n      tag_95\n      jump\t// in\n    tag_119:\n      mload(0x40)\n      dup1\n      swap2\n      sub\n      swap1\n      revert\n    tag_118:\n        /* \"contracts/lib/eai/EAI.sol\":4513:4530  _weekDaysInterval */\n      dup3\n        /* \"contracts/lib/eai/EAI.sol\":4513:4534  _weekDaysInterval.end */\n      0x20\n      add\n      mload\n        /* \"contracts/lib/eai/EAI.sol\":4487:4534  _weekDaysInterval.start < _weekDaysInterval.end */\n      0xff\n      and\n        /* \"contracts/lib/eai/EAI.sol\":4487:4504  _weekDaysInterval */\n      dup4\n        /* \"contracts/lib/eai/EAI.sol\":4487:4510  _weekDaysInterval.start */\n      0x00\n      add\n      mload\n        /* \"contracts/lib/eai/EAI.sol\":4487:4534  _weekDaysInterval.start < _weekDaysInterval.end */\n      0xff\n      and\n      lt\n        /* \"contracts/lib/eai/EAI.sol\":4484:4867  if(_weekDaysInterval.start < _weekDaysInterval.end ){... */\n      iszero\n      tag_121\n      jumpi\n        /* \"contracts/lib/eai/EAI.sol\":4576:4593  _weekDaysInterval */\n      dup3\n        /* \"contracts/lib/eai/EAI.sol\":4576:4599  _weekDaysInterval.start */\n      0x00\n      add\n      mload\n        /* \"contracts/lib/eai/EAI.sol\":4558:4599  _weekDayAccess >= _weekDaysInterval.start */\n      0xff\n      and\n        /* \"contracts/lib/eai/EAI.sol\":4558:4572  _weekDayAccess */\n      dup5\n        /* \"contracts/lib/eai/EAI.sol\":4558:4599  _weekDayAccess >= _weekDaysInterval.start */\n      0xff\n      and\n      lt\n      iszero\n        /* \"contracts/lib/eai/EAI.sol\":4558:4642  _weekDayAccess >= _weekDaysInterval.start &&  _weekDayAccess<= _weekDaysInterval.end */\n      dup1\n      iszero\n      tag_122\n      jumpi\n      pop\n        /* \"contracts/lib/eai/EAI.sol\":4621:4638  _weekDaysInterval */\n      dup3\n        /* \"contracts/lib/eai/EAI.sol\":4621:4642  _weekDaysInterval.end */\n      0x20\n      add\n      mload\n        /* \"contracts/lib/eai/EAI.sol\":4604:4642  _weekDayAccess<= _weekDaysInterval.end */\n      0xff\n      and\n        /* \"contracts/lib/eai/EAI.sol\":4604:4618  _weekDayAccess */\n      dup5\n        /* \"contracts/lib/eai/EAI.sol\":4604:4642  _weekDayAccess<= _weekDaysInterval.end */\n      0xff\n      and\n      gt\n      iszero\n        /* \"contracts/lib/eai/EAI.sol\":4558:4642  _weekDayAccess >= _weekDaysInterval.start &&  _weekDayAccess<= _weekDaysInterval.end */\n    tag_122:\n        /* \"contracts/lib/eai/EAI.sol\":4555:4689  if(_weekDayAccess >= _weekDaysInterval.start &&  _weekDayAccess<= _weekDaysInterval.end){... */\n      iszero\n      tag_123\n      jumpi\n        /* \"contracts/lib/eai/EAI.sol\":4669:4673  true */\n      0x01\n        /* \"contracts/lib/eai/EAI.sol\":4662:4673  return true */\n      swap2\n      pop\n      jump(tag_120)\n        /* \"contracts/lib/eai/EAI.sol\":4555:4689  if(_weekDayAccess >= _weekDaysInterval.start &&  _weekDayAccess<= _weekDaysInterval.end){... */\n    tag_123:\n        /* \"contracts/lib/eai/EAI.sol\":4484:4867  if(_weekDaysInterval.start < _weekDaysInterval.end ){... */\n      jump(tag_124)\n    tag_121:\n        /* \"contracts/lib/eai/EAI.sol\":4741:4758  _weekDaysInterval */\n      dup3\n        /* \"contracts/lib/eai/EAI.sol\":4741:4764  _weekDaysInterval.start */\n      0x00\n      add\n      mload\n        /* \"contracts/lib/eai/EAI.sol\":4723:4764  _weekDayAccess >= _weekDaysInterval.start */\n      0xff\n      and\n        /* \"contracts/lib/eai/EAI.sol\":4723:4737  _weekDayAccess */\n      dup5\n        /* \"contracts/lib/eai/EAI.sol\":4723:4764  _weekDayAccess >= _weekDaysInterval.start */\n      0xff\n      and\n      lt\n      iszero\n        /* \"contracts/lib/eai/EAI.sol\":4723:4806  _weekDayAccess >= _weekDaysInterval.start ||  _weekDayAccess<=_weekDaysInterval.end */\n      dup1\n      tag_125\n      jumpi\n      pop\n        /* \"contracts/lib/eai/EAI.sol\":4785:4802  _weekDaysInterval */\n      dup3\n        /* \"contracts/lib/eai/EAI.sol\":4785:4806  _weekDaysInterval.end */\n      0x20\n      add\n      mload\n        /* \"contracts/lib/eai/EAI.sol\":4769:4806  _weekDayAccess<=_weekDaysInterval.end */\n      0xff\n      and\n        /* \"contracts/lib/eai/EAI.sol\":4769:4783  _weekDayAccess */\n      dup5\n        /* \"contracts/lib/eai/EAI.sol\":4769:4806  _weekDayAccess<=_weekDaysInterval.end */\n      0xff\n      and\n      gt\n      iszero\n        /* \"contracts/lib/eai/EAI.sol\":4723:4806  _weekDayAccess >= _weekDaysInterval.start ||  _weekDayAccess<=_weekDaysInterval.end */\n    tag_125:\n        /* \"contracts/lib/eai/EAI.sol\":4720:4853  if(_weekDayAccess >= _weekDaysInterval.start ||  _weekDayAccess<=_weekDaysInterval.end){... */\n      iszero\n      tag_126\n      jumpi\n        /* \"contracts/lib/eai/EAI.sol\":4833:4837  true */\n      0x01\n        /* \"contracts/lib/eai/EAI.sol\":4826:4837  return true */\n      swap2\n      pop\n      jump(tag_120)\n        /* \"contracts/lib/eai/EAI.sol\":4720:4853  if(_weekDayAccess >= _weekDaysInterval.start ||  _weekDayAccess<=_weekDaysInterval.end){... */\n    tag_126:\n        /* \"contracts/lib/eai/EAI.sol\":4484:4867  if(_weekDaysInterval.start < _weekDaysInterval.end ){... */\n    tag_124:\n        /* \"contracts/lib/eai/EAI.sol\":4891:4896  false */\n      0x00\n        /* \"contracts/lib/eai/EAI.sol\":4884:4896  return false */\n      swap2\n      pop\n        /* \"contracts/lib/eai/EAI.sol\":5444:5445  _ */\n    tag_120:\n        /* \"contracts/lib/eai/EAI.sol\":4281:4903  function isIntoWeekDaysInterval(... */\n      pop\n      swap3\n      swap2\n      pop\n      pop\n      jump\t// out\n    tag_79:\n      mload(0x40)\n      dup1\n      0x40\n      add\n      0x40\n      mstore\n      dup1\n      and(0xff, 0x00)\n      dup2\n      mstore\n      0x20\n      add\n      and(0xff, 0x00)\n      dup2\n      mstore\n      pop\n      swap1\n      jump\t// out\n        /* \"#utility.yul\":88:205   */\n    tag_128:\n        /* \"#utility.yul\":197:198   */\n      0x00\n        /* \"#utility.yul\":194:195   */\n      dup1\n        /* \"#utility.yul\":187:199   */\n      revert\n        /* \"#utility.yul\":334:420   */\n    tag_130:\n        /* \"#utility.yul\":369:376   */\n      0x00\n        /* \"#utility.yul\":409:413   */\n      0xff\n        /* \"#utility.yul\":402:407   */\n      dup3\n        /* \"#utility.yul\":398:414   */\n      and\n        /* \"#utility.yul\":387:414   */\n      swap1\n      pop\n        /* \"#utility.yul\":334:420   */\n      swap2\n      swap1\n      pop\n      jump\t// out\n        /* \"#utility.yul\":426:544   */\n    tag_131:\n        /* \"#utility.yul\":497:519   */\n      tag_161\n        /* \"#utility.yul\":513:518   */\n      dup2\n        /* \"#utility.yul\":497:519   */\n      tag_130\n      jump\t// in\n    tag_161:\n        /* \"#utility.yul\":490:495   */\n      dup2\n        /* \"#utility.yul\":487:520   */\n      eq\n        /* \"#utility.yul\":477:538   */\n      tag_162\n      jumpi\n        /* \"#utility.yul\":534:535   */\n      0x00\n        /* \"#utility.yul\":531:532   */\n      dup1\n        /* \"#utility.yul\":524:536   */\n      revert\n        /* \"#utility.yul\":477:538   */\n    tag_162:\n        /* \"#utility.yul\":426:544   */\n      pop\n      jump\t// out\n        /* \"#utility.yul\":550:685   */\n    tag_132:\n        /* \"#utility.yul\":594:599   */\n      0x00\n        /* \"#utility.yul\":632:638   */\n      dup2\n        /* \"#utility.yul\":619:639   */\n      calldataload\n        /* \"#utility.yul\":610:639   */\n      swap1\n      pop\n        /* \"#utility.yul\":648:679   */\n      tag_164\n        /* \"#utility.yul\":673:678   */\n      dup2\n        /* \"#utility.yul\":648:679   */\n      tag_131\n      jump\t// in\n    tag_164:\n        /* \"#utility.yul\":550:685   */\n      swap3\n      swap2\n      pop\n      pop\n      jump\t// out\n        /* \"#utility.yul\":691:1016   */\n    tag_13:\n        /* \"#utility.yul\":748:754   */\n      0x00\n        /* \"#utility.yul\":797:799   */\n      0x20\n        /* \"#utility.yul\":785:794   */\n      dup3\n        /* \"#utility.yul\":776:783   */\n      dup5\n        /* \"#utility.yul\":772:795   */\n      sub\n        /* \"#utility.yul\":768:800   */\n      slt\n        /* \"#utility.yul\":765:884   */\n      iszero\n      tag_166\n      jumpi\n        /* \"#utility.yul\":803:882   */\n      tag_167\n      tag_128\n      jump\t// in\n    tag_167:\n        /* \"#utility.yul\":765:884   */\n    tag_166:\n        /* \"#utility.yul\":923:924   */\n      0x00\n        /* \"#utility.yul\":948:999   */\n      tag_168\n        /* \"#utility.yul\":991:998   */\n      dup5\n        /* \"#utility.yul\":982:988   */\n      dup3\n        /* \"#utility.yul\":971:980   */\n      dup6\n        /* \"#utility.yul\":967:989   */\n      add\n        /* \"#utility.yul\":948:999   */\n      tag_132\n      jump\t// in\n    tag_168:\n        /* \"#utility.yul\":938:999   */\n      swap2\n      pop\n        /* \"#utility.yul\":894:1009   */\n      pop\n        /* \"#utility.yul\":691:1016   */\n      swap3\n      swap2\n      pop\n      pop\n      jump\t// out\n        /* \"#utility.yul\":1022:1134   */\n    tag_133:\n        /* \"#utility.yul\":1105:1127   */\n      tag_170\n        /* \"#utility.yul\":1121:1126   */\n      dup2\n        /* \"#utility.yul\":1105:1127   */\n      tag_130\n      jump\t// in\n    tag_170:\n        /* \"#utility.yul\":1100:1103   */\n      dup3\n        /* \"#utility.yul\":1093:1128   */\n      mstore\n        /* \"#utility.yul\":1022:1134   */\n      pop\n      pop\n      jump\t// out\n        /* \"#utility.yul\":1140:1456   */\n    tag_16:\n        /* \"#utility.yul\":1253:1257   */\n      0x00\n        /* \"#utility.yul\":1291:1293   */\n      0x40\n        /* \"#utility.yul\":1280:1289   */\n      dup3\n        /* \"#utility.yul\":1276:1294   */\n      add\n        /* \"#utility.yul\":1268:1294   */\n      swap1\n      pop\n        /* \"#utility.yul\":1304:1371   */\n      tag_172\n        /* \"#utility.yul\":1368:1369   */\n      0x00\n        /* \"#utility.yul\":1357:1366   */\n      dup4\n        /* \"#utility.yul\":1353:1370   */\n      add\n        /* \"#utility.yul\":1344:1350   */\n      dup6\n        /* \"#utility.yul\":1304:1371   */\n      tag_133\n      jump\t// in\n    tag_172:\n        /* \"#utility.yul\":1381:1449   */\n      tag_173\n        /* \"#utility.yul\":1445:1447   */\n      0x20\n        /* \"#utility.yul\":1434:1443   */\n      dup4\n        /* \"#utility.yul\":1430:1448   */\n      add\n        /* \"#utility.yul\":1421:1427   */\n      dup5\n        /* \"#utility.yul\":1381:1449   */\n      tag_133\n      jump\t// in\n    tag_173:\n        /* \"#utility.yul\":1140:1456   */\n      swap4\n      swap3\n      pop\n      pop\n      pop\n      jump\t// out\n        /* \"#utility.yul\":1462:1539   */\n    tag_134:\n        /* \"#utility.yul\":1499:1506   */\n      0x00\n        /* \"#utility.yul\":1528:1533   */\n      dup2\n        /* \"#utility.yul\":1517:1533   */\n      swap1\n      pop\n        /* \"#utility.yul\":1462:1539   */\n      swap2\n      swap1\n      pop\n      jump\t// out\n        /* \"#utility.yul\":1545:1667   */\n    tag_135:\n        /* \"#utility.yul\":1618:1642   */\n      tag_176\n        /* \"#utility.yul\":1636:1641   */\n      dup2\n        /* \"#utility.yul\":1618:1642   */\n      tag_134\n      jump\t// in\n    tag_176:\n        /* \"#utility.yul\":1611:1616   */\n      dup2\n        /* \"#utility.yul\":1608:1643   */\n      eq\n        /* \"#utility.yul\":1598:1661   */\n      tag_177\n      jumpi\n        /* \"#utility.yul\":1657:1658   */\n      0x00\n        /* \"#utility.yul\":1654:1655   */\n      dup1\n        /* \"#utility.yul\":1647:1659   */\n      revert\n        /* \"#utility.yul\":1598:1661   */\n    tag_177:\n        /* \"#utility.yul\":1545:1667   */\n      pop\n      jump\t// out\n        /* \"#utility.yul\":1673:1812   */\n    tag_136:\n        /* \"#utility.yul\":1719:1724   */\n      0x00\n        /* \"#utility.yul\":1757:1763   */\n      dup2\n        /* \"#utility.yul\":1744:1764   */\n      calldataload\n        /* \"#utility.yul\":1735:1764   */\n      swap1\n      pop\n        /* \"#utility.yul\":1773:1806   */\n      tag_179\n        /* \"#utility.yul\":1800:1805   */\n      dup2\n        /* \"#utility.yul\":1773:1806   */\n      tag_135\n      jump\t// in\n    tag_179:\n        /* \"#utility.yul\":1673:1812   */\n      swap3\n      swap2\n      pop\n      pop\n      jump\t// out\n        /* \"#utility.yul\":1818:2147   */\n    tag_19:\n        /* \"#utility.yul\":1877:1883   */\n      0x00\n        /* \"#utility.yul\":1926:1928   */\n      0x20\n        /* \"#utility.yul\":1914:1923   */\n      dup3\n        /* \"#utility.yul\":1905:1912   */\n      dup5\n        /* \"#utility.yul\":1901:1924   */\n      sub\n        /* \"#utility.yul\":1897:1929   */\n      slt\n        /* \"#utility.yul\":1894:2013   */\n      iszero\n      tag_181\n      jumpi\n        /* \"#utility.yul\":1932:2011   */\n      tag_182\n      tag_128\n      jump\t// in\n    tag_182:\n        /* \"#utility.yul\":1894:2013   */\n    tag_181:\n        /* \"#utility.yul\":2052:2053   */\n      0x00\n        /* \"#utility.yul\":2077:2130   */\n      tag_183\n        /* \"#utility.yul\":2122:2129   */\n      dup5\n        /* \"#utility.yul\":2113:2119   */\n      dup3\n        /* \"#utility.yul\":2102:2111   */\n      dup6\n        /* \"#utility.yul\":2098:2120   */\n      add\n        /* \"#utility.yul\":2077:2130   */\n      tag_136\n      jump\t// in\n    tag_183:\n        /* \"#utility.yul\":2067:2130   */\n      swap2\n      pop\n        /* \"#utility.yul\":2023:2140   */\n      pop\n        /* \"#utility.yul\":1818:2147   */\n      swap3\n      swap2\n      pop\n      pop\n      jump\t// out\n        /* \"#utility.yul\":2153:2243   */\n    tag_137:\n        /* \"#utility.yul\":2187:2194   */\n      0x00\n        /* \"#utility.yul\":2230:2235   */\n      dup2\n        /* \"#utility.yul\":2223:2236   */\n      iszero\n        /* \"#utility.yul\":2216:2237   */\n      iszero\n        /* \"#utility.yul\":2205:2237   */\n      swap1\n      pop\n        /* \"#utility.yul\":2153:2243   */\n      swap2\n      swap1\n      pop\n      jump\t// out\n        /* \"#utility.yul\":2249:2358   */\n    tag_138:\n        /* \"#utility.yul\":2330:2351   */\n      tag_186\n        /* \"#utility.yul\":2345:2350   */\n      dup2\n        /* \"#utility.yul\":2330:2351   */\n      tag_137\n      jump\t// in\n    tag_186:\n        /* \"#utility.yul\":2325:2328   */\n      dup3\n        /* \"#utility.yul\":2318:2352   */\n      mstore\n        /* \"#utility.yul\":2249:2358   */\n      pop\n      pop\n      jump\t// out\n        /* \"#utility.yul\":2364:2574   */\n    tag_26:\n        /* \"#utility.yul\":2451:2455   */\n      0x00\n        /* \"#utility.yul\":2489:2491   */\n      0x20\n        /* \"#utility.yul\":2478:2487   */\n      dup3\n        /* \"#utility.yul\":2474:2492   */\n      add\n        /* \"#utility.yul\":2466:2492   */\n      swap1\n      pop\n        /* \"#utility.yul\":2502:2567   */\n      tag_188\n        /* \"#utility.yul\":2564:2565   */\n      0x00\n        /* \"#utility.yul\":2553:2562   */\n      dup4\n        /* \"#utility.yul\":2549:2566   */\n      add\n        /* \"#utility.yul\":2540:2546   */\n      dup5\n        /* \"#utility.yul\":2502:2567   */\n      tag_138\n      jump\t// in\n    tag_188:\n        /* \"#utility.yul\":2364:2574   */\n      swap3\n      swap2\n      pop\n      pop\n      jump\t// out\n        /* \"#utility.yul\":2580:2727   */\n    tag_139:\n        /* \"#utility.yul\":2680:2686   */\n      0x00\n        /* \"#utility.yul\":2714:2719   */\n      dup2\n        /* \"#utility.yul\":2708:2720   */\n      mload\n        /* \"#utility.yul\":2698:2720   */\n      swap1\n      pop\n        /* \"#utility.yul\":2580:2727   */\n      swap2\n      swap1\n      pop\n      jump\t// out\n        /* \"#utility.yul\":2733:2950   */\n    tag_140:\n        /* \"#utility.yul\":2865:2876   */\n      0x00\n        /* \"#utility.yul\":2899:2905   */\n      dup3\n        /* \"#utility.yul\":2894:2897   */\n      dup3\n        /* \"#utility.yul\":2887:2906   */\n      mstore\n        /* \"#utility.yul\":2939:2943   */\n      0x20\n        /* \"#utility.yul\":2934:2937   */\n      dup3\n        /* \"#utility.yul\":2930:2944   */\n      add\n        /* \"#utility.yul\":2915:2944   */\n      swap1\n      pop\n        /* \"#utility.yul\":2733:2950   */\n      swap3\n      swap2\n      pop\n      pop\n      jump\t// out\n        /* \"#utility.yul\":2956:3121   */\n    tag_141:\n        /* \"#utility.yul\":3056:3060   */\n      0x00\n        /* \"#utility.yul\":3079:3082   */\n      dup2\n        /* \"#utility.yul\":3071:3082   */\n      swap1\n      pop\n        /* \"#utility.yul\":3109:3113   */\n      0x20\n        /* \"#utility.yul\":3104:3107   */\n      dup3\n        /* \"#utility.yul\":3100:3114   */\n      add\n        /* \"#utility.yul\":3092:3114   */\n      swap1\n      pop\n        /* \"#utility.yul\":2956:3121   */\n      swap2\n      swap1\n      pop\n      jump\t// out\n        /* \"#utility.yul\":3127:3229   */\n    tag_142:\n        /* \"#utility.yul\":3200:3222   */\n      tag_193\n        /* \"#utility.yul\":3216:3221   */\n      dup2\n        /* \"#utility.yul\":3200:3222   */\n      tag_130\n      jump\t// in\n    tag_193:\n        /* \"#utility.yul\":3195:3198   */\n      dup3\n        /* \"#utility.yul\":3188:3223   */\n      mstore\n        /* \"#utility.yul\":3127:3229   */\n      pop\n      pop\n      jump\t// out\n        /* \"#utility.yul\":3301:3806   */\n    tag_143:\n        /* \"#utility.yul\":3454:3458   */\n      0x40\n        /* \"#utility.yul\":3449:3452   */\n      dup3\n        /* \"#utility.yul\":3445:3459   */\n      add\n        /* \"#utility.yul\":3542:3546   */\n      0x00\n        /* \"#utility.yul\":3535:3540   */\n      dup3\n        /* \"#utility.yul\":3531:3547   */\n      add\n        /* \"#utility.yul\":3525:3548   */\n      mload\n        /* \"#utility.yul\":3561:3620   */\n      tag_195\n        /* \"#utility.yul\":3614:3618   */\n      0x00\n        /* \"#utility.yul\":3609:3612   */\n      dup6\n        /* \"#utility.yul\":3605:3619   */\n      add\n        /* \"#utility.yul\":3591:3603   */\n      dup3\n        /* \"#utility.yul\":3561:3620   */\n      tag_142\n      jump\t// in\n    tag_195:\n        /* \"#utility.yul\":3469:3630   */\n      pop\n        /* \"#utility.yul\":3711:3715   */\n      0x20\n        /* \"#utility.yul\":3704:3709   */\n      dup3\n        /* \"#utility.yul\":3700:3716   */\n      add\n        /* \"#utility.yul\":3694:3717   */\n      mload\n        /* \"#utility.yul\":3730:3789   */\n      tag_196\n        /* \"#utility.yul\":3783:3787   */\n      0x20\n        /* \"#utility.yul\":3778:3781   */\n      dup6\n        /* \"#utility.yul\":3774:3788   */\n      add\n        /* \"#utility.yul\":3760:3772   */\n      dup3\n        /* \"#utility.yul\":3730:3789   */\n      tag_142\n      jump\t// in\n    tag_196:\n        /* \"#utility.yul\":3640:3799   */\n      pop\n        /* \"#utility.yul\":3423:3806   */\n      pop\n        /* \"#utility.yul\":3301:3806   */\n      pop\n      pop\n      jump\t// out\n        /* \"#utility.yul\":3812:4123   */\n    tag_144:\n        /* \"#utility.yul\":3947:3957   */\n      0x00\n        /* \"#utility.yul\":3968:4080   */\n      tag_198\n        /* \"#utility.yul\":4076:4079   */\n      dup4\n        /* \"#utility.yul\":4068:4074   */\n      dup4\n        /* \"#utility.yul\":3968:4080   */\n      tag_143\n      jump\t// in\n    tag_198:\n        /* \"#utility.yul\":4112:4116   */\n      0x40\n        /* \"#utility.yul\":4107:4110   */\n      dup4\n        /* \"#utility.yul\":4103:4117   */\n      add\n        /* \"#utility.yul\":4089:4117   */\n      swap1\n      pop\n        /* \"#utility.yul\":3812:4123   */\n      swap3\n      swap2\n      pop\n      pop\n      jump\t// out\n        /* \"#utility.yul\":4129:4275   */\n    tag_145:\n        /* \"#utility.yul\":4232:4236   */\n      0x00\n        /* \"#utility.yul\":4264:4268   */\n      0x20\n        /* \"#utility.yul\":4259:4262   */\n      dup3\n        /* \"#utility.yul\":4255:4269   */\n      add\n        /* \"#utility.yul\":4247:4269   */\n      swap1\n      pop\n        /* \"#utility.yul\":4129:4275   */\n      swap2\n      swap1\n      pop\n      jump\t// out\n        /* \"#utility.yul\":4351:5347   */\n    tag_146:\n        /* \"#utility.yul\":4536:4539   */\n      0x00\n        /* \"#utility.yul\":4565:4652   */\n      tag_201\n        /* \"#utility.yul\":4646:4651   */\n      dup3\n        /* \"#utility.yul\":4565:4652   */\n      tag_139\n      jump\t// in\n    tag_201:\n        /* \"#utility.yul\":4668:4787   */\n      tag_202\n        /* \"#utility.yul\":4780:4786   */\n      dup2\n        /* \"#utility.yul\":4775:4778   */\n      dup6\n        /* \"#utility.yul\":4668:4787   */\n      tag_140\n      jump\t// in\n    tag_202:\n        /* \"#utility.yul\":4661:4787   */\n      swap4\n      pop\n        /* \"#utility.yul\":4811:4900   */\n      tag_203\n        /* \"#utility.yul\":4894:4899   */\n      dup4\n        /* \"#utility.yul\":4811:4900   */\n      tag_141\n      jump\t// in\n    tag_203:\n        /* \"#utility.yul\":4923:4930   */\n      dup1\n        /* \"#utility.yul\":4954:4955   */\n      0x00\n        /* \"#utility.yul\":4939:5322   */\n    tag_204:\n        /* \"#utility.yul\":4964:4970   */\n      dup4\n        /* \"#utility.yul\":4961:4962   */\n      dup2\n        /* \"#utility.yul\":4958:4971   */\n      lt\n        /* \"#utility.yul\":4939:5322   */\n      iszero\n      tag_206\n      jumpi\n        /* \"#utility.yul\":5040:5046   */\n      dup2\n        /* \"#utility.yul\":5034:5047   */\n      mload\n        /* \"#utility.yul\":5067:5196   */\n      tag_207\n        /* \"#utility.yul\":5192:5195   */\n      dup9\n        /* \"#utility.yul\":5177:5190   */\n      dup3\n        /* \"#utility.yul\":5067:5196   */\n      tag_144\n      jump\t// in\n    tag_207:\n        /* \"#utility.yul\":5060:5196   */\n      swap8\n      pop\n        /* \"#utility.yul\":5219:5312   */\n      tag_208\n        /* \"#utility.yul\":5305:5311   */\n      dup4\n        /* \"#utility.yul\":5219:5312   */\n      tag_145\n      jump\t// in\n    tag_208:\n        /* \"#utility.yul\":5209:5312   */\n      swap3\n      pop\n        /* \"#utility.yul\":4999:5322   */\n      pop\n        /* \"#utility.yul\":4986:4987   */\n      0x01\n        /* \"#utility.yul\":4983:4984   */\n      dup2\n        /* \"#utility.yul\":4979:4988   */\n      add\n        /* \"#utility.yul\":4974:4988   */\n      swap1\n      pop\n        /* \"#utility.yul\":4939:5322   */\n      jump(tag_204)\n    tag_206:\n        /* \"#utility.yul\":4943:4957   */\n      pop\n        /* \"#utility.yul\":5338:5341   */\n      dup6\n        /* \"#utility.yul\":5331:5341   */\n      swap4\n      pop\n        /* \"#utility.yul\":4541:5347   */\n      pop\n      pop\n      pop\n        /* \"#utility.yul\":4351:5347   */\n      swap3\n      swap2\n      pop\n      pop\n      jump\t// out\n        /* \"#utility.yul\":5353:5858   */\n    tag_30:\n        /* \"#utility.yul\":5562:5566   */\n      0x00\n        /* \"#utility.yul\":5600:5602   */\n      0x20\n        /* \"#utility.yul\":5589:5598   */\n      dup3\n        /* \"#utility.yul\":5585:5603   */\n      add\n        /* \"#utility.yul\":5577:5603   */\n      swap1\n      pop\n        /* \"#utility.yul\":5649:5658   */\n      dup2\n        /* \"#utility.yul\":5643:5647   */\n      dup2\n        /* \"#utility.yul\":5639:5659   */\n      sub\n        /* \"#utility.yul\":5635:5636   */\n      0x00\n        /* \"#utility.yul\":5624:5633   */\n      dup4\n        /* \"#utility.yul\":5620:5637   */\n      add\n        /* \"#utility.yul\":5613:5660   */\n      mstore\n        /* \"#utility.yul\":5677:5851   */\n      tag_210\n        /* \"#utility.yul\":5846:5850   */\n      dup2\n        /* \"#utility.yul\":5837:5843   */\n      dup5\n        /* \"#utility.yul\":5677:5851   */\n      tag_146\n      jump\t// in\n    tag_210:\n        /* \"#utility.yul\":5669:5851   */\n      swap1\n      pop\n        /* \"#utility.yul\":5353:5858   */\n      swap3\n      swap2\n      pop\n      pop\n      jump\t// out\n        /* \"#utility.yul\":5864:6078   */\n    tag_37:\n        /* \"#utility.yul\":5953:5957   */\n      0x00\n        /* \"#utility.yul\":5991:5993   */\n      0x20\n        /* \"#utility.yul\":5980:5989   */\n      dup3\n        /* \"#utility.yul\":5976:5994   */\n      add\n        /* \"#utility.yul\":5968:5994   */\n      swap1\n      pop\n        /* \"#utility.yul\":6004:6071   */\n      tag_212\n        /* \"#utility.yul\":6068:6069   */\n      0x00\n        /* \"#utility.yul\":6057:6066   */\n      dup4\n        /* \"#utility.yul\":6053:6070   */\n      add\n        /* \"#utility.yul\":6044:6050   */\n      dup5\n        /* \"#utility.yul\":6004:6071   */\n      tag_133\n      jump\t// in\n    tag_212:\n        /* \"#utility.yul\":5864:6078   */\n      swap3\n      swap2\n      pop\n      pop\n      jump\t// out\n        /* \"#utility.yul\":6084:6264   */\n    tag_46:\n        /* \"#utility.yul\":6132:6209   */\n      0x4e487b7100000000000000000000000000000000000000000000000000000000\n        /* \"#utility.yul\":6129:6130   */\n      0x00\n        /* \"#utility.yul\":6122:6210   */\n      mstore\n        /* \"#utility.yul\":6229:6233   */\n      0x32\n        /* \"#utility.yul\":6226:6227   */\n      0x04\n        /* \"#utility.yul\":6219:6234   */\n      mstore\n        /* \"#utility.yul\":6253:6257   */\n      0x24\n        /* \"#utility.yul\":6250:6251   */\n      0x00\n        /* \"#utility.yul\":6243:6258   */\n      revert\n        /* \"#utility.yul\":6270:6439   */\n    tag_147:\n        /* \"#utility.yul\":6354:6365   */\n      0x00\n        /* \"#utility.yul\":6388:6394   */\n      dup3\n        /* \"#utility.yul\":6383:6386   */\n      dup3\n        /* \"#utility.yul\":6376:6395   */\n      mstore\n        /* \"#utility.yul\":6428:6432   */\n      0x20\n        /* \"#utility.yul\":6423:6426   */\n      dup3\n        /* \"#utility.yul\":6419:6433   */\n      add\n        /* \"#utility.yul\":6404:6433   */\n      swap1\n      pop\n        /* \"#utility.yul\":6270:6439   */\n      swap3\n      swap2\n      pop\n      pop\n      jump\t// out\n        /* \"#utility.yul\":6445:6672   */\n    tag_148:\n        /* \"#utility.yul\":6585:6619   */\n      0x546865205f7374617274446179206e6f7420726570726573656e747320612076\n        /* \"#utility.yul\":6581:6582   */\n      0x00\n        /* \"#utility.yul\":6573:6579   */\n      dup3\n        /* \"#utility.yul\":6569:6583   */\n      add\n        /* \"#utility.yul\":6562:6620   */\n      mstore\n        /* \"#utility.yul\":6654:6664   */\n      0x616c696420646179000000000000000000000000000000000000000000000000\n        /* \"#utility.yul\":6649:6651   */\n      0x20\n        /* \"#utility.yul\":6641:6647   */\n      dup3\n        /* \"#utility.yul\":6637:6652   */\n      add\n        /* \"#utility.yul\":6630:6665   */\n      mstore\n        /* \"#utility.yul\":6445:6672   */\n      pop\n      jump\t// out\n        /* \"#utility.yul\":6678:7044   */\n    tag_149:\n        /* \"#utility.yul\":6820:6823   */\n      0x00\n        /* \"#utility.yul\":6841:6908   */\n      tag_217\n        /* \"#utility.yul\":6905:6907   */\n      0x28\n        /* \"#utility.yul\":6900:6903   */\n      dup4\n        /* \"#utility.yul\":6841:6908   */\n      tag_147\n      jump\t// in\n    tag_217:\n        /* \"#utility.yul\":6834:6908   */\n      swap2\n      pop\n        /* \"#utility.yul\":6917:7010   */\n      tag_218\n        /* \"#utility.yul\":7006:7009   */\n      dup3\n        /* \"#utility.yul\":6917:7010   */\n      tag_148\n      jump\t// in\n    tag_218:\n        /* \"#utility.yul\":7035:7037   */\n      0x40\n        /* \"#utility.yul\":7030:7033   */\n      dup3\n        /* \"#utility.yul\":7026:7038   */\n      add\n        /* \"#utility.yul\":7019:7038   */\n      swap1\n      pop\n        /* \"#utility.yul\":6678:7044   */\n      swap2\n      swap1\n      pop\n      jump\t// out\n        /* \"#utility.yul\":7050:7469   */\n    tag_84:\n        /* \"#utility.yul\":7216:7220   */\n      0x00\n        /* \"#utility.yul\":7254:7256   */\n      0x20\n        /* \"#utility.yul\":7243:7252   */\n      dup3\n        /* \"#utility.yul\":7239:7257   */\n      add\n        /* \"#utility.yul\":7231:7257   */\n      swap1\n      pop\n        /* \"#utility.yul\":7303:7312   */\n      dup2\n        /* \"#utility.yul\":7297:7301   */\n      dup2\n        /* \"#utility.yul\":7293:7313   */\n      sub\n        /* \"#utility.yul\":7289:7290   */\n      0x00\n        /* \"#utility.yul\":7278:7287   */\n      dup4\n        /* \"#utility.yul\":7274:7291   */\n      add\n        /* \"#utility.yul\":7267:7314   */\n      mstore\n        /* \"#utility.yul\":7331:7462   */\n      tag_220\n        /* \"#utility.yul\":7457:7461   */\n      dup2\n        /* \"#utility.yul\":7331:7462   */\n      tag_149\n      jump\t// in\n    tag_220:\n        /* \"#utility.yul\":7323:7462   */\n      swap1\n      pop\n        /* \"#utility.yul\":7050:7469   */\n      swap2\n      swap1\n      pop\n      jump\t// out\n        /* \"#utility.yul\":7475:7700   */\n    tag_150:\n        /* \"#utility.yul\":7615:7649   */\n      0x546865205f656e64446179206e6f7420726570726573656e747320612076616c\n        /* \"#utility.yul\":7611:7612   */\n      0x00\n        /* \"#utility.yul\":7603:7609   */\n      dup3\n        /* \"#utility.yul\":7599:7613   */\n      add\n        /* \"#utility.yul\":7592:7650   */\n      mstore\n        /* \"#utility.yul\":7684:7692   */\n      0x6964206461790000000000000000000000000000000000000000000000000000\n        /* \"#utility.yul\":7679:7681   */\n      0x20\n        /* \"#utility.yul\":7671:7677   */\n      dup3\n        /* \"#utility.yul\":7667:7682   */\n      add\n        /* \"#utility.yul\":7660:7693   */\n      mstore\n        /* \"#utility.yul\":7475:7700   */\n      pop\n      jump\t// out\n        /* \"#utility.yul\":7706:8072   */\n    tag_151:\n        /* \"#utility.yul\":7848:7851   */\n      0x00\n        /* \"#utility.yul\":7869:7936   */\n      tag_223\n        /* \"#utility.yul\":7933:7935   */\n      0x26\n        /* \"#utility.yul\":7928:7931   */\n      dup4\n        /* \"#utility.yul\":7869:7936   */\n      tag_147\n      jump\t// in\n    tag_223:\n        /* \"#utility.yul\":7862:7936   */\n      swap2\n      pop\n        /* \"#utility.yul\":7945:8038   */\n      tag_224\n        /* \"#utility.yul\":8034:8037   */\n      dup3\n        /* \"#utility.yul\":7945:8038   */\n      tag_150\n      jump\t// in\n    tag_224:\n        /* \"#utility.yul\":8063:8065   */\n      0x40\n        /* \"#utility.yul\":8058:8061   */\n      dup3\n        /* \"#utility.yul\":8054:8066   */\n      add\n        /* \"#utility.yul\":8047:8066   */\n      swap1\n      pop\n        /* \"#utility.yul\":7706:8072   */\n      swap2\n      swap1\n      pop\n      jump\t// out\n        /* \"#utility.yul\":8078:8497   */\n    tag_88:\n        /* \"#utility.yul\":8244:8248   */\n      0x00\n        /* \"#utility.yul\":8282:8284   */\n      0x20\n        /* \"#utility.yul\":8271:8280   */\n      dup3\n        /* \"#utility.yul\":8267:8285   */\n      add\n        /* \"#utility.yul\":8259:8285   */\n      swap1\n      pop\n        /* \"#utility.yul\":8331:8340   */\n      dup2\n        /* \"#utility.yul\":8325:8329   */\n      dup2\n        /* \"#utility.yul\":8321:8341   */\n      sub\n        /* \"#utility.yul\":8317:8318   */\n      0x00\n        /* \"#utility.yul\":8306:8315   */\n      dup4\n        /* \"#utility.yul\":8302:8319   */\n      add\n        /* \"#utility.yul\":8295:8342   */\n      mstore\n        /* \"#utility.yul\":8359:8490   */\n      tag_226\n        /* \"#utility.yul\":8485:8489   */\n      dup2\n        /* \"#utility.yul\":8359:8490   */\n      tag_151\n      jump\t// in\n    tag_226:\n        /* \"#utility.yul\":8351:8490   */\n      swap1\n      pop\n        /* \"#utility.yul\":8078:8497   */\n      swap2\n      swap1\n      pop\n      jump\t// out\n        /* \"#utility.yul\":8503:8737   */\n    tag_152:\n        /* \"#utility.yul\":8643:8677   */\n      0x54686520676976656e206e756d6265722f646179206e6f742072657072657365\n        /* \"#utility.yul\":8639:8640   */\n      0x00\n        /* \"#utility.yul\":8631:8637   */\n      dup3\n        /* \"#utility.yul\":8627:8641   */\n      add\n        /* \"#utility.yul\":8620:8678   */\n      mstore\n        /* \"#utility.yul\":8712:8729   */\n      0x6e747320612076616c6964206461790000000000000000000000000000000000\n        /* \"#utility.yul\":8707:8709   */\n      0x20\n        /* \"#utility.yul\":8699:8705   */\n      dup3\n        /* \"#utility.yul\":8695:8710   */\n      add\n        /* \"#utility.yul\":8688:8730   */\n      mstore\n        /* \"#utility.yul\":8503:8737   */\n      pop\n      jump\t// out\n        /* \"#utility.yul\":8743:9109   */\n    tag_153:\n        /* \"#utility.yul\":8885:8888   */\n      0x00\n        /* \"#utility.yul\":8906:8973   */\n      tag_229\n        /* \"#utility.yul\":8970:8972   */\n      0x2f\n        /* \"#utility.yul\":8965:8968   */\n      dup4\n        /* \"#utility.yul\":8906:8973   */\n      tag_147\n      jump\t// in\n    tag_229:\n        /* \"#utility.yul\":8899:8973   */\n      swap2\n      pop\n        /* \"#utility.yul\":8982:9075   */\n      tag_230\n        /* \"#utility.yul\":9071:9074   */\n      dup3\n        /* \"#utility.yul\":8982:9075   */\n      tag_152\n      jump\t// in\n    tag_230:\n        /* \"#utility.yul\":9100:9102   */\n      0x40\n        /* \"#utility.yul\":9095:9098   */\n      dup3\n        /* \"#utility.yul\":9091:9103   */\n      add\n        /* \"#utility.yul\":9084:9103   */\n      swap1\n      pop\n        /* \"#utility.yul\":8743:9109   */\n      swap2\n      swap1\n      pop\n      jump\t// out\n        /* \"#utility.yul\":9115:9534   */\n    tag_95:\n        /* \"#utility.yul\":9281:9285   */\n      0x00\n        /* \"#utility.yul\":9319:9321   */\n      0x20\n        /* \"#utility.yul\":9308:9317   */\n      dup3\n        /* \"#utility.yul\":9304:9322   */\n      add\n        /* \"#utility.yul\":9296:9322   */\n      swap1\n      pop\n        /* \"#utility.yul\":9368:9377   */\n      dup2\n        /* \"#utility.yul\":9362:9366   */\n      dup2\n        /* \"#utility.yul\":9358:9378   */\n      sub\n        /* \"#utility.yul\":9354:9355   */\n      0x00\n        /* \"#utility.yul\":9343:9352   */\n      dup4\n        /* \"#utility.yul\":9339:9356   */\n      add\n        /* \"#utility.yul\":9332:9379   */\n      mstore\n        /* \"#utility.yul\":9396:9527   */\n      tag_232\n        /* \"#utility.yul\":9522:9526   */\n      dup2\n        /* \"#utility.yul\":9396:9527   */\n      tag_153\n      jump\t// in\n    tag_232:\n        /* \"#utility.yul\":9388:9527   */\n      swap1\n      pop\n        /* \"#utility.yul\":9115:9534   */\n      swap2\n      swap1\n      pop\n      jump\t// out\n        /* \"#utility.yul\":9540:9720   */\n    tag_154:\n        /* \"#utility.yul\":9588:9665   */\n      0x4e487b7100000000000000000000000000000000000000000000000000000000\n        /* \"#utility.yul\":9585:9586   */\n      0x00\n        /* \"#utility.yul\":9578:9666   */\n      mstore\n        /* \"#utility.yul\":9685:9689   */\n      0x11\n        /* \"#utility.yul\":9682:9683   */\n      0x04\n        /* \"#utility.yul\":9675:9690   */\n      mstore\n        /* \"#utility.yul\":9709:9713   */\n      0x24\n        /* \"#utility.yul\":9706:9707   */\n      0x00\n        /* \"#utility.yul\":9699:9714   */\n      revert\n        /* \"#utility.yul\":9726:9959   */\n    tag_106:\n        /* \"#utility.yul\":9765:9768   */\n      0x00\n        /* \"#utility.yul\":9788:9812   */\n      tag_235\n        /* \"#utility.yul\":9806:9811   */\n      dup3\n        /* \"#utility.yul\":9788:9812   */\n      tag_134\n      jump\t// in\n    tag_235:\n        /* \"#utility.yul\":9779:9812   */\n      swap2\n      pop\n        /* \"#utility.yul\":9834:9900   */\n      0xffffffffffffffffffffffffffffffffffffffffffffffffffffffffffffffff\n        /* \"#utility.yul\":9827:9832   */\n      dup3\n        /* \"#utility.yul\":9824:9901   */\n      sub\n        /* \"#utility.yul\":9821:9924   */\n      tag_236\n      jumpi\n        /* \"#utility.yul\":9904:9922   */\n      tag_237\n      tag_154\n      jump\t// in\n    tag_237:\n        /* \"#utility.yul\":9821:9924   */\n    tag_236:\n        /* \"#utility.yul\":9951:9952   */\n      0x01\n        /* \"#utility.yul\":9944:9949   */\n      dup3\n        /* \"#utility.yul\":9940:9953   */\n      add\n        /* \"#utility.yul\":9933:9953   */\n      swap1\n      pop\n        /* \"#utility.yul\":9726:9959   */\n      swap2\n      swap1\n      pop\n      jump\t// out\n\n    auxdata: 0xa2646970667358221220323d8a7c457271e9599d19ceb3285eb3c8a5c2e06430825df828104d13f575da64736f6c63430008110033\n}\n",
				"bytecode": {
					"linkReferences": {},
					"object": "60806040523480156200001157600080fd5b5060026200002d600160026200012060201b620004dc1760201c565b9080600181540180825580915050600190039060005260206000200160009091909190915060008201518160000160006101000a81548160ff021916908360ff16021790555060208201518160000160016101000a81548160ff021916908360ff16021790555050506002620000b1600460066200012060201b620004dc1760201c565b9080600181540180825580915050600190039060005260206000200160009091909190915060008201518160000160006101000a81548160ff021916908360ff16021790555060208201518160000160016101000a81548160ff021916908360ff160217905550505062000374565b6200012a62000213565b8282600060ff168260ff16101580156200014b5750600660ff168260ff1611155b6200018d576040517f08c379a00000000000000000000000000000000000000000000000000000000081526004016200018490620002ba565b60405180910390fd5b600060ff168160ff1610158015620001ac5750600660ff168160ff1611155b620001ee576040517f08c379a0000000000000000000000000000000000000000000000000000000008152600401620001e59062000352565b60405180910390fd5b60405180604001604052808660ff1681526020018560ff168152509250505092915050565b6040518060400160405280600060ff168152602001600060ff1681525090565b600082825260208201905092915050565b7f546865205f7374617274446179206e6f7420726570726573656e74732061207660008201527f616c696420646179000000000000000000000000000000000000000000000000602082015250565b6000620002a260288362000233565b9150620002af8262000244565b604082019050919050565b60006020820190508181036000830152620002d58162000293565b9050919050565b7f546865205f656e64446179206e6f7420726570726573656e747320612076616c60008201527f6964206461790000000000000000000000000000000000000000000000000000602082015250565b60006200033a60268362000233565b91506200034782620002dc565b604082019050919050565b600060208201905081810360008301526200036d816200032b565b9050919050565b610db380620003846000396000f3fe608060405234801561001057600080fd5b506004361061007d5760003560e01c80637a5f80e71161005b5780637a5f80e7146101145780638098c71514610132578063ab19c86c14610150578063f18406d71461016e5761007d565b80630867ba68146100825780632af442ef146100b35780632f501097146100e4575b600080fd5b61009c600480360381019061009791906108e8565b61018d565b6040516100aa929190610924565b60405180910390f35b6100cd60048036038101906100c89190610983565b610207565b6040516100db929190610924565b60405180910390f35b6100fe60048036038101906100f991906108e8565b610251565b60405161010b91906109cb565b60405180910390f35b61011c6102f1565b6040516101299190610ad3565b60405180910390f35b61013a610386565b6040516101479190610ad3565b60405180910390f35b610158610423565b6040516101659190610af5565b60405180910390f35b610176610430565b604051610184929190610924565b60405180910390f35b6000806101fe60028460ff16815481106101aa576101a9610b10565b5b906000526020600020016040518060400160405290816000820160009054906101000a900460ff1660ff1660ff1681526020016000820160019054906101000a900460ff1660ff1660ff16815250506105c5565b91509150915091565b6002818154811061021757600080fd5b906000526020600020016000915090508060000160009054906101000a900460ff16908060000160019054906101000a900460ff16905082565b60006102ea826002805480602002602001604051908101604052809291908181526020016000905b828210156102e1578382906000526020600020016040518060400160405290816000820160009054906101000a900460ff1660ff1660ff1681526020016000820160019054906101000a900460ff1660ff1660ff168152505081526020019060010190610279565b505050506105db565b9050919050565b60606002805480602002602001604051908101604052809291908181526020016000905b8282101561037d578382906000526020600020016040518060400160405290816000820160009054906101000a900460ff1660ff1660ff1681526020016000820160019054906101000a900460ff1660ff1660ff168152505081526020019060010190610315565b50505050905090565b606061041e6002805480602002602001604051908101604052809291908181526020016000905b82821015610415578382906000526020600020016040518060400160405290816000820160009054906101000a900460ff1660ff1660ff1681526020016000820160019054906101000a900460ff1660ff1660ff1681525050815260200190600101906103ad565b50505050610698565b905090565b6000600280549050905090565b60008061046860036006600260008154811061044f5761044e610b10565b5b906000526020600020016106a29092919063ffffffff16565b6104d460026000815481106104805761047f610b10565b5b906000526020600020016040518060400160405290816000820160009054906101000a900460ff1660ff1660ff1681526020016000820160019054906101000a900460ff1660ff1660ff16815250506105c5565b915091509091565b6104e461088a565b8282600060ff168260ff16101580156105045750600660ff168260ff1611155b610543576040517f08c379a000000000000000000000000000000000000000000000000000000000815260040161053a90610bc2565b60405180910390fd5b600060ff168160ff16101580156105615750600660ff168160ff1611155b6105a0576040517f08c379a000000000000000000000000000000000000000000000000000000000815260040161059790610c54565b60405180910390fd5b60405180604001604052808660ff1681526020018560ff168152509250505092915050565b6000808260000151836020015191509150915091565b600082600060ff168160ff16101580156105fc5750600660ff168160ff1611155b61063b576040517f08c379a000000000000000000000000000000000000000000000000000000000815260040161063290610ce6565b60405180910390fd5b6000808451905060005b8181101561068b576106718787838151811061066457610663610b10565b5b602002602001015161079f565b92508261068b57808061068390610d35565b915050610645565b5081935050505092915050565b6060819050919050565b8181600060ff168260ff16101580156106c25750600660ff168260ff1611155b610701576040517f08c379a00000000000000000000000000000000000000000000000000000000081526004016106f890610bc2565b60405180910390fd5b600060ff168160ff161015801561071f5750600660ff168160ff1611155b61075e576040517f08c379a000000000000000000000000000000000000000000000000000000000815260040161075590610c54565b60405180910390fd5b838560000160006101000a81548160ff021916908360ff160217905550828560000160016101000a81548160ff021916908360ff1602179055505050505050565b600082600060ff168160ff16101580156107c05750600660ff168160ff1611155b6107ff576040517f08c379a00000000000000000000000000000000000000000000000000000000081526004016107f690610ce6565b60405180910390fd5b826020015160ff16836000015160ff16101561084c57826000015160ff168460ff16101580156108395750826020015160ff168460ff1611155b156108475760019150610883565b61087e565b826000015160ff168460ff1610158061086f5750826020015160ff168460ff1611155b1561087d5760019150610883565b5b600091505b5092915050565b6040518060400160405280600060ff168152602001600060ff1681525090565b600080fd5b600060ff82169050919050565b6108c5816108af565b81146108d057600080fd5b50565b6000813590506108e2816108bc565b92915050565b6000602082840312156108fe576108fd6108aa565b5b600061090c848285016108d3565b91505092915050565b61091e816108af565b82525050565b60006040820190506109396000830185610915565b6109466020830184610915565b9392505050565b6000819050919050565b6109608161094d565b811461096b57600080fd5b50565b60008135905061097d81610957565b92915050565b600060208284031215610999576109986108aa565b5b60006109a78482850161096e565b91505092915050565b60008115159050919050565b6109c5816109b0565b82525050565b60006020820190506109e060008301846109bc565b92915050565b600081519050919050565b600082825260208201905092915050565b6000819050602082019050919050565b610a1b816108af565b82525050565b604082016000820151610a376000850182610a12565b506020820151610a4a6020850182610a12565b50505050565b6000610a5c8383610a21565b60408301905092915050565b6000602082019050919050565b6000610a80826109e6565b610a8a81856109f1565b9350610a9583610a02565b8060005b83811015610ac6578151610aad8882610a50565b9750610ab883610a68565b925050600181019050610a99565b5085935050505092915050565b60006020820190508181036000830152610aed8184610a75565b905092915050565b6000602082019050610b0a6000830184610915565b92915050565b7f4e487b7100000000000000000000000000000000000000000000000000000000600052603260045260246000fd5b600082825260208201905092915050565b7f546865205f7374617274446179206e6f7420726570726573656e74732061207660008201527f616c696420646179000000000000000000000000000000000000000000000000602082015250565b6000610bac602883610b3f565b9150610bb782610b50565b604082019050919050565b60006020820190508181036000830152610bdb81610b9f565b9050919050565b7f546865205f656e64446179206e6f7420726570726573656e747320612076616c60008201527f6964206461790000000000000000000000000000000000000000000000000000602082015250565b6000610c3e602683610b3f565b9150610c4982610be2565b604082019050919050565b60006020820190508181036000830152610c6d81610c31565b9050919050565b7f54686520676976656e206e756d6265722f646179206e6f74207265707265736560008201527f6e747320612076616c6964206461790000000000000000000000000000000000602082015250565b6000610cd0602f83610b3f565b9150610cdb82610c74565b604082019050919050565b60006020820190508181036000830152610cff81610cc3565b9050919050565b7f4e487b7100000000000000000000000000000000000000000000000000000000600052601160045260246000fd5b6000610d408261094d565b91507fffffffffffffffffffffffffffffffffffffffffffffffffffffffffffffffff8203610d7257610d71610d06565b5b60018201905091905056fea2646970667358221220323d8a7c457271e9599d19ceb3285eb3c8a5c2e06430825df828104d13f575da64736f6c63430008110033",
					"opcodes": "PUSH1 0x80 PUSH1 0x40 MSTORE CALLVALUE DUP1 ISZERO PUSH3 0x11 JUMPI PUSH1 0x0 DUP1 REVERT JUMPDEST POP PUSH1 0x2 PUSH3 0x2D PUSH1 0x1 PUSH1 0x2 PUSH3 0x120 PUSH1 0x20 SHL PUSH3 0x4DC OR PUSH1 0x20 SHR JUMP JUMPDEST SWAP1 DUP1 PUSH1 0x1 DUP2 SLOAD ADD DUP1 DUP3 SSTORE DUP1 SWAP2 POP POP PUSH1 0x1 SWAP1 SUB SWAP1 PUSH1 0x0 MSTORE PUSH1 0x20 PUSH1 0x0 KECCAK256 ADD PUSH1 0x0 SWAP1 SWAP2 SWAP1 SWAP2 SWAP1 SWAP2 POP PUSH1 0x0 DUP3 ADD MLOAD DUP2 PUSH1 0x0 ADD PUSH1 0x0 PUSH2 0x100 EXP DUP2 SLOAD DUP2 PUSH1 0xFF MUL NOT AND SWAP1 DUP4 PUSH1 0xFF AND MUL OR SWAP1 SSTORE POP PUSH1 0x20 DUP3 ADD MLOAD DUP2 PUSH1 0x0 ADD PUSH1 0x1 PUSH2 0x100 EXP DUP2 SLOAD DUP2 PUSH1 0xFF MUL NOT AND SWAP1 DUP4 PUSH1 0xFF AND MUL OR SWAP1 SSTORE POP POP POP PUSH1 0x2 PUSH3 0xB1 PUSH1 0x4 PUSH1 0x6 PUSH3 0x120 PUSH1 0x20 SHL PUSH3 0x4DC OR PUSH1 0x20 SHR JUMP JUMPDEST SWAP1 DUP1 PUSH1 0x1 DUP2 SLOAD ADD DUP1 DUP3 SSTORE DUP1 SWAP2 POP POP PUSH1 0x1 SWAP1 SUB SWAP1 PUSH1 0x0 MSTORE PUSH1 0x20 PUSH1 0x0 KECCAK256 ADD PUSH1 0x0 SWAP1 SWAP2 SWAP1 SWAP2 SWAP1 SWAP2 POP PUSH1 0x0 DUP3 ADD MLOAD DUP2 PUSH1 0x0 ADD PUSH1 0x0 PUSH2 0x100 EXP DUP2 SLOAD DUP2 PUSH1 0xFF MUL NOT AND SWAP1 DUP4 PUSH1 0xFF AND MUL OR SWAP1 SSTORE POP PUSH1 0x20 DUP3 ADD MLOAD DUP2 PUSH1 0x0 ADD PUSH1 0x1 PUSH2 0x100 EXP DUP2 SLOAD DUP2 PUSH1 0xFF MUL NOT AND SWAP1 DUP4 PUSH1 0xFF AND MUL OR SWAP1 SSTORE POP POP POP PUSH3 0x374 JUMP JUMPDEST PUSH3 0x12A PUSH3 0x213 JUMP JUMPDEST DUP3 DUP3 PUSH1 0x0 PUSH1 0xFF AND DUP3 PUSH1 0xFF AND LT ISZERO DUP1 ISZERO PUSH3 0x14B JUMPI POP PUSH1 0x6 PUSH1 0xFF AND DUP3 PUSH1 0xFF AND GT ISZERO JUMPDEST PUSH3 0x18D JUMPI PUSH1 0x40 MLOAD PUSH32 0x8C379A000000000000000000000000000000000000000000000000000000000 DUP2 MSTORE PUSH1 0x4 ADD PUSH3 0x184 SWAP1 PUSH3 0x2BA JUMP JUMPDEST PUSH1 0x40 MLOAD DUP1 SWAP2 SUB SWAP1 REVERT JUMPDEST PUSH1 0x0 PUSH1 0xFF AND DUP2 PUSH1 0xFF AND LT ISZERO DUP1 ISZERO PUSH3 0x1AC JUMPI POP PUSH1 0x6 PUSH1 0xFF AND DUP2 PUSH1 0xFF AND GT ISZERO JUMPDEST PUSH3 0x1EE JUMPI PUSH1 0x40 MLOAD PUSH32 0x8C379A000000000000000000000000000000000000000000000000000000000 DUP2 MSTORE PUSH1 0x4 ADD PUSH3 0x1E5 SWAP1 PUSH3 0x352 JUMP JUMPDEST PUSH1 0x40 MLOAD DUP1 SWAP2 SUB SWAP1 REVERT JUMPDEST PUSH1 0x40 MLOAD DUP1 PUSH1 0x40 ADD PUSH1 0x40 MSTORE DUP1 DUP7 PUSH1 0xFF AND DUP2 MSTORE PUSH1 0x20 ADD DUP6 PUSH1 0xFF AND DUP2 MSTORE POP SWAP3 POP POP POP SWAP3 SWAP2 POP POP JUMP JUMPDEST PUSH1 0x40 MLOAD DUP1 PUSH1 0x40 ADD PUSH1 0x40 MSTORE DUP1 PUSH1 0x0 PUSH1 0xFF AND DUP2 MSTORE PUSH1 0x20 ADD PUSH1 0x0 PUSH1 0xFF AND DUP2 MSTORE POP SWAP1 JUMP JUMPDEST PUSH1 0x0 DUP3 DUP3 MSTORE PUSH1 0x20 DUP3 ADD SWAP1 POP SWAP3 SWAP2 POP POP JUMP JUMPDEST PUSH32 0x546865205F7374617274446179206E6F7420726570726573656E747320612076 PUSH1 0x0 DUP3 ADD MSTORE PUSH32 0x616C696420646179000000000000000000000000000000000000000000000000 PUSH1 0x20 DUP3 ADD MSTORE POP JUMP JUMPDEST PUSH1 0x0 PUSH3 0x2A2 PUSH1 0x28 DUP4 PUSH3 0x233 JUMP JUMPDEST SWAP2 POP PUSH3 0x2AF DUP3 PUSH3 0x244 JUMP JUMPDEST PUSH1 0x40 DUP3 ADD SWAP1 POP SWAP2 SWAP1 POP JUMP JUMPDEST PUSH1 0x0 PUSH1 0x20 DUP3 ADD SWAP1 POP DUP2 DUP2 SUB PUSH1 0x0 DUP4 ADD MSTORE PUSH3 0x2D5 DUP2 PUSH3 0x293 JUMP JUMPDEST SWAP1 POP SWAP2 SWAP1 POP JUMP JUMPDEST PUSH32 0x546865205F656E64446179206E6F7420726570726573656E747320612076616C PUSH1 0x0 DUP3 ADD MSTORE PUSH32 0x6964206461790000000000000000000000000000000000000000000000000000 PUSH1 0x20 DUP3 ADD MSTORE POP JUMP JUMPDEST PUSH1 0x0 PUSH3 0x33A PUSH1 0x26 DUP4 PUSH3 0x233 JUMP JUMPDEST SWAP2 POP PUSH3 0x347 DUP3 PUSH3 0x2DC JUMP JUMPDEST PUSH1 0x40 DUP3 ADD SWAP1 POP SWAP2 SWAP1 POP JUMP JUMPDEST PUSH1 0x0 PUSH1 0x20 DUP3 ADD SWAP1 POP DUP2 DUP2 SUB PUSH1 0x0 DUP4 ADD MSTORE PUSH3 0x36D DUP2 PUSH3 0x32B JUMP JUMPDEST SWAP1 POP SWAP2 SWAP1 POP JUMP JUMPDEST PUSH2 0xDB3 DUP1 PUSH3 0x384 PUSH1 0x0 CODECOPY PUSH1 0x0 RETURN INVALID PUSH1 0x80 PUSH1 0x40 MSTORE CALLVALUE DUP1 ISZERO PUSH2 0x10 JUMPI PUSH1 0x0 DUP1 REVERT JUMPDEST POP PUSH1 0x4 CALLDATASIZE LT PUSH2 0x7D JUMPI PUSH1 0x0 CALLDATALOAD PUSH1 0xE0 SHR DUP1 PUSH4 0x7A5F80E7 GT PUSH2 0x5B JUMPI DUP1 PUSH4 0x7A5F80E7 EQ PUSH2 0x114 JUMPI DUP1 PUSH4 0x8098C715 EQ PUSH2 0x132 JUMPI DUP1 PUSH4 0xAB19C86C EQ PUSH2 0x150 JUMPI DUP1 PUSH4 0xF18406D7 EQ PUSH2 0x16E JUMPI PUSH2 0x7D JUMP JUMPDEST DUP1 PUSH4 0x867BA68 EQ PUSH2 0x82 JUMPI DUP1 PUSH4 0x2AF442EF EQ PUSH2 0xB3 JUMPI DUP1 PUSH4 0x2F501097 EQ PUSH2 0xE4 JUMPI JUMPDEST PUSH1 0x0 DUP1 REVERT JUMPDEST PUSH2 0x9C PUSH1 0x4 DUP1 CALLDATASIZE SUB DUP2 ADD SWAP1 PUSH2 0x97 SWAP2 SWAP1 PUSH2 0x8E8 JUMP JUMPDEST PUSH2 0x18D JUMP JUMPDEST PUSH1 0x40 MLOAD PUSH2 0xAA SWAP3 SWAP2 SWAP1 PUSH2 0x924 JUMP JUMPDEST PUSH1 0x40 MLOAD DUP1 SWAP2 SUB SWAP1 RETURN JUMPDEST PUSH2 0xCD PUSH1 0x4 DUP1 CALLDATASIZE SUB DUP2 ADD SWAP1 PUSH2 0xC8 SWAP2 SWAP1 PUSH2 0x983 JUMP JUMPDEST PUSH2 0x207 JUMP JUMPDEST PUSH1 0x40 MLOAD PUSH2 0xDB SWAP3 SWAP2 SWAP1 PUSH2 0x924 JUMP JUMPDEST PUSH1 0x40 MLOAD DUP1 SWAP2 SUB SWAP1 RETURN JUMPDEST PUSH2 0xFE PUSH1 0x4 DUP1 CALLDATASIZE SUB DUP2 ADD SWAP1 PUSH2 0xF9 SWAP2 SWAP1 PUSH2 0x8E8 JUMP JUMPDEST PUSH2 0x251 JUMP JUMPDEST PUSH1 0x40 MLOAD PUSH2 0x10B SWAP2 SWAP1 PUSH2 0x9CB JUMP JUMPDEST PUSH1 0x40 MLOAD DUP1 SWAP2 SUB SWAP1 RETURN JUMPDEST PUSH2 0x11C PUSH2 0x2F1 JUMP JUMPDEST PUSH1 0x40 MLOAD PUSH2 0x129 SWAP2 SWAP1 PUSH2 0xAD3 JUMP JUMPDEST PUSH1 0x40 MLOAD DUP1 SWAP2 SUB SWAP1 RETURN JUMPDEST PUSH2 0x13A PUSH2 0x386 JUMP JUMPDEST PUSH1 0x40 MLOAD PUSH2 0x147 SWAP2 SWAP1 PUSH2 0xAD3 JUMP JUMPDEST PUSH1 0x40 MLOAD DUP1 SWAP2 SUB SWAP1 RETURN JUMPDEST PUSH2 0x158 PUSH2 0x423 JUMP JUMPDEST PUSH1 0x40 MLOAD PUSH2 0x165 SWAP2 SWAP1 PUSH2 0xAF5 JUMP JUMPDEST PUSH1 0x40 MLOAD DUP1 SWAP2 SUB SWAP1 RETURN JUMPDEST PUSH2 0x176 PUSH2 0x430 JUMP JUMPDEST PUSH1 0x40 MLOAD PUSH2 0x184 SWAP3 SWAP2 SWAP1 PUSH2 0x924 JUMP JUMPDEST PUSH1 0x40 MLOAD DUP1 SWAP2 SUB SWAP1 RETURN JUMPDEST PUSH1 0x0 DUP1 PUSH2 0x1FE PUSH1 0x2 DUP5 PUSH1 0xFF AND DUP2 SLOAD DUP2 LT PUSH2 0x1AA JUMPI PUSH2 0x1A9 PUSH2 0xB10 JUMP JUMPDEST JUMPDEST SWAP1 PUSH1 0x0 MSTORE PUSH1 0x20 PUSH1 0x0 KECCAK256 ADD PUSH1 0x40 MLOAD DUP1 PUSH1 0x40 ADD PUSH1 0x40 MSTORE SWAP1 DUP2 PUSH1 0x0 DUP3 ADD PUSH1 0x0 SWAP1 SLOAD SWAP1 PUSH2 0x100 EXP SWAP1 DIV PUSH1 0xFF AND PUSH1 0xFF AND PUSH1 0xFF AND DUP2 MSTORE PUSH1 0x20 ADD PUSH1 0x0 DUP3 ADD PUSH1 0x1 SWAP1 SLOAD SWAP1 PUSH2 0x100 EXP SWAP1 DIV PUSH1 0xFF AND PUSH1 0xFF AND PUSH1 0xFF AND DUP2 MSTORE POP POP PUSH2 0x5C5 JUMP JUMPDEST SWAP2 POP SWAP2 POP SWAP2 POP SWAP2 JUMP JUMPDEST PUSH1 0x2 DUP2 DUP2 SLOAD DUP2 LT PUSH2 0x217 JUMPI PUSH1 0x0 DUP1 REVERT JUMPDEST SWAP1 PUSH1 0x0 MSTORE PUSH1 0x20 PUSH1 0x0 KECCAK256 ADD PUSH1 0x0 SWAP2 POP SWAP1 POP DUP1 PUSH1 0x0 ADD PUSH1 0x0 SWAP1 SLOAD SWAP1 PUSH2 0x100 EXP SWAP1 DIV PUSH1 0xFF AND SWAP1 DUP1 PUSH1 0x0 ADD PUSH1 0x1 SWAP1 SLOAD SWAP1 PUSH2 0x100 EXP SWAP1 DIV PUSH1 0xFF AND SWAP1 POP DUP3 JUMP JUMPDEST PUSH1 0x0 PUSH2 0x2EA DUP3 PUSH1 0x2 DUP1 SLOAD DUP1 PUSH1 0x20 MUL PUSH1 0x20 ADD PUSH1 0x40 MLOAD SWAP1 DUP2 ADD PUSH1 0x40 MSTORE DUP1 SWAP3 SWAP2 SWAP1 DUP2 DUP2 MSTORE PUSH1 0x20 ADD PUSH1 0x0 SWAP1 JUMPDEST DUP3 DUP3 LT ISZERO PUSH2 0x2E1 JUMPI DUP4 DUP3 SWAP1 PUSH1 0x0 MSTORE PUSH1 0x20 PUSH1 0x0 KECCAK256 ADD PUSH1 0x40 MLOAD DUP1 PUSH1 0x40 ADD PUSH1 0x40 MSTORE SWAP1 DUP2 PUSH1 0x0 DUP3 ADD PUSH1 0x0 SWAP1 SLOAD SWAP1 PUSH2 0x100 EXP SWAP1 DIV PUSH1 0xFF AND PUSH1 0xFF AND PUSH1 0xFF AND DUP2 MSTORE PUSH1 0x20 ADD PUSH1 0x0 DUP3 ADD PUSH1 0x1 SWAP1 SLOAD SWAP1 PUSH2 0x100 EXP SWAP1 DIV PUSH1 0xFF AND PUSH1 0xFF AND PUSH1 0xFF AND DUP2 MSTORE POP POP DUP2 MSTORE PUSH1 0x20 ADD SWAP1 PUSH1 0x1 ADD SWAP1 PUSH2 0x279 JUMP JUMPDEST POP POP POP POP PUSH2 0x5DB JUMP JUMPDEST SWAP1 POP SWAP2 SWAP1 POP JUMP JUMPDEST PUSH1 0x60 PUSH1 0x2 DUP1 SLOAD DUP1 PUSH1 0x20 MUL PUSH1 0x20 ADD PUSH1 0x40 MLOAD SWAP1 DUP2 ADD PUSH1 0x40 MSTORE DUP1 SWAP3 SWAP2 SWAP1 DUP2 DUP2 MSTORE PUSH1 0x20 ADD PUSH1 0x0 SWAP1 JUMPDEST DUP3 DUP3 LT ISZERO PUSH2 0x37D JUMPI DUP4 DUP3 SWAP1 PUSH1 0x0 MSTORE PUSH1 0x20 PUSH1 0x0 KECCAK256 ADD PUSH1 0x40 MLOAD DUP1 PUSH1 0x40 ADD PUSH1 0x40 MSTORE SWAP1 DUP2 PUSH1 0x0 DUP3 ADD PUSH1 0x0 SWAP1 SLOAD SWAP1 PUSH2 0x100 EXP SWAP1 DIV PUSH1 0xFF AND PUSH1 0xFF AND PUSH1 0xFF AND DUP2 MSTORE PUSH1 0x20 ADD PUSH1 0x0 DUP3 ADD PUSH1 0x1 SWAP1 SLOAD SWAP1 PUSH2 0x100 EXP SWAP1 DIV PUSH1 0xFF AND PUSH1 0xFF AND PUSH1 0xFF AND DUP2 MSTORE POP POP DUP2 MSTORE PUSH1 0x20 ADD SWAP1 PUSH1 0x1 ADD SWAP1 PUSH2 0x315 JUMP JUMPDEST POP POP POP POP SWAP1 POP SWAP1 JUMP JUMPDEST PUSH1 0x60 PUSH2 0x41E PUSH1 0x2 DUP1 SLOAD DUP1 PUSH1 0x20 MUL PUSH1 0x20 ADD PUSH1 0x40 MLOAD SWAP1 DUP2 ADD PUSH1 0x40 MSTORE DUP1 SWAP3 SWAP2 SWAP1 DUP2 DUP2 MSTORE PUSH1 0x20 ADD PUSH1 0x0 SWAP1 JUMPDEST DUP3 DUP3 LT ISZERO PUSH2 0x415 JUMPI DUP4 DUP3 SWAP1 PUSH1 0x0 MSTORE PUSH1 0x20 PUSH1 0x0 KECCAK256 ADD PUSH1 0x40 MLOAD DUP1 PUSH1 0x40 ADD PUSH1 0x40 MSTORE SWAP1 DUP2 PUSH1 0x0 DUP3 ADD PUSH1 0x0 SWAP1 SLOAD SWAP1 PUSH2 0x100 EXP SWAP1 DIV PUSH1 0xFF AND PUSH1 0xFF AND PUSH1 0xFF AND DUP2 MSTORE PUSH1 0x20 ADD PUSH1 0x0 DUP3 ADD PUSH1 0x1 SWAP1 SLOAD SWAP1 PUSH2 0x100 EXP SWAP1 DIV PUSH1 0xFF AND PUSH1 0xFF AND PUSH1 0xFF AND DUP2 MSTORE POP POP DUP2 MSTORE PUSH1 0x20 ADD SWAP1 PUSH1 0x1 ADD SWAP1 PUSH2 0x3AD JUMP JUMPDEST POP POP POP POP PUSH2 0x698 JUMP JUMPDEST SWAP1 POP SWAP1 JUMP JUMPDEST PUSH1 0x0 PUSH1 0x2 DUP1 SLOAD SWAP1 POP SWAP1 POP SWAP1 JUMP JUMPDEST PUSH1 0x0 DUP1 PUSH2 0x468 PUSH1 0x3 PUSH1 0x6 PUSH1 0x2 PUSH1 0x0 DUP2 SLOAD DUP2 LT PUSH2 0x44F JUMPI PUSH2 0x44E PUSH2 0xB10 JUMP JUMPDEST JUMPDEST SWAP1 PUSH1 0x0 MSTORE PUSH1 0x20 PUSH1 0x0 KECCAK256 ADD PUSH2 0x6A2 SWAP1 SWAP3 SWAP2 SWAP1 PUSH4 0xFFFFFFFF AND JUMP JUMPDEST PUSH2 0x4D4 PUSH1 0x2 PUSH1 0x0 DUP2 SLOAD DUP2 LT PUSH2 0x480 JUMPI PUSH2 0x47F PUSH2 0xB10 JUMP JUMPDEST JUMPDEST SWAP1 PUSH1 0x0 MSTORE PUSH1 0x20 PUSH1 0x0 KECCAK256 ADD PUSH1 0x40 MLOAD DUP1 PUSH1 0x40 ADD PUSH1 0x40 MSTORE SWAP1 DUP2 PUSH1 0x0 DUP3 ADD PUSH1 0x0 SWAP1 SLOAD SWAP1 PUSH2 0x100 EXP SWAP1 DIV PUSH1 0xFF AND PUSH1 0xFF AND PUSH1 0xFF AND DUP2 MSTORE PUSH1 0x20 ADD PUSH1 0x0 DUP3 ADD PUSH1 0x1 SWAP1 SLOAD SWAP1 PUSH2 0x100 EXP SWAP1 DIV PUSH1 0xFF AND PUSH1 0xFF AND PUSH1 0xFF AND DUP2 MSTORE POP POP PUSH2 0x5C5 JUMP JUMPDEST SWAP2 POP SWAP2 POP SWAP1 SWAP2 JUMP JUMPDEST PUSH2 0x4E4 PUSH2 0x88A JUMP JUMPDEST DUP3 DUP3 PUSH1 0x0 PUSH1 0xFF AND DUP3 PUSH1 0xFF AND LT ISZERO DUP1 ISZERO PUSH2 0x504 JUMPI POP PUSH1 0x6 PUSH1 0xFF AND DUP3 PUSH1 0xFF AND GT ISZERO JUMPDEST PUSH2 0x543 JUMPI PUSH1 0x40 MLOAD PUSH32 0x8C379A000000000000000000000000000000000000000000000000000000000 DUP2 MSTORE PUSH1 0x4 ADD PUSH2 0x53A SWAP1 PUSH2 0xBC2 JUMP JUMPDEST PUSH1 0x40 MLOAD DUP1 SWAP2 SUB SWAP1 REVERT JUMPDEST PUSH1 0x0 PUSH1 0xFF AND DUP2 PUSH1 0xFF AND LT ISZERO DUP1 ISZERO PUSH2 0x561 JUMPI POP PUSH1 0x6 PUSH1 0xFF AND DUP2 PUSH1 0xFF AND GT ISZERO JUMPDEST PUSH2 0x5A0 JUMPI PUSH1 0x40 MLOAD PUSH32 0x8C379A000000000000000000000000000000000000000000000000000000000 DUP2 MSTORE PUSH1 0x4 ADD PUSH2 0x597 SWAP1 PUSH2 0xC54 JUMP JUMPDEST PUSH1 0x40 MLOAD DUP1 SWAP2 SUB SWAP1 REVERT JUMPDEST PUSH1 0x40 MLOAD DUP1 PUSH1 0x40 ADD PUSH1 0x40 MSTORE DUP1 DUP7 PUSH1 0xFF AND DUP2 MSTORE PUSH1 0x20 ADD DUP6 PUSH1 0xFF AND DUP2 MSTORE POP SWAP3 POP POP POP SWAP3 SWAP2 POP POP JUMP JUMPDEST PUSH1 0x0 DUP1 DUP3 PUSH1 0x0 ADD MLOAD DUP4 PUSH1 0x20 ADD MLOAD SWAP2 POP SWAP2 POP SWAP2 POP SWAP2 JUMP JUMPDEST PUSH1 0x0 DUP3 PUSH1 0x0 PUSH1 0xFF AND DUP2 PUSH1 0xFF AND LT ISZERO DUP1 ISZERO PUSH2 0x5FC JUMPI POP PUSH1 0x6 PUSH1 0xFF AND DUP2 PUSH1 0xFF AND GT ISZERO JUMPDEST PUSH2 0x63B JUMPI PUSH1 0x40 MLOAD PUSH32 0x8C379A000000000000000000000000000000000000000000000000000000000 DUP2 MSTORE PUSH1 0x4 ADD PUSH2 0x632 SWAP1 PUSH2 0xCE6 JUMP JUMPDEST PUSH1 0x40 MLOAD DUP1 SWAP2 SUB SWAP1 REVERT JUMPDEST PUSH1 0x0 DUP1 DUP5 MLOAD SWAP1 POP PUSH1 0x0 JUMPDEST DUP2 DUP2 LT ISZERO PUSH2 0x68B JUMPI PUSH2 0x671 DUP8 DUP8 DUP4 DUP2 MLOAD DUP2 LT PUSH2 0x664 JUMPI PUSH2 0x663 PUSH2 0xB10 JUMP JUMPDEST JUMPDEST PUSH1 0x20 MUL PUSH1 0x20 ADD ADD MLOAD PUSH2 0x79F JUMP JUMPDEST SWAP3 POP DUP3 PUSH2 0x68B JUMPI DUP1 DUP1 PUSH2 0x683 SWAP1 PUSH2 0xD35 JUMP JUMPDEST SWAP2 POP POP PUSH2 0x645 JUMP JUMPDEST POP DUP2 SWAP4 POP POP POP POP SWAP3 SWAP2 POP POP JUMP JUMPDEST PUSH1 0x60 DUP2 SWAP1 POP SWAP2 SWAP1 POP JUMP JUMPDEST DUP2 DUP2 PUSH1 0x0 PUSH1 0xFF AND DUP3 PUSH1 0xFF AND LT ISZERO DUP1 ISZERO PUSH2 0x6C2 JUMPI POP PUSH1 0x6 PUSH1 0xFF AND DUP3 PUSH1 0xFF AND GT ISZERO JUMPDEST PUSH2 0x701 JUMPI PUSH1 0x40 MLOAD PUSH32 0x8C379A000000000000000000000000000000000000000000000000000000000 DUP2 MSTORE PUSH1 0x4 ADD PUSH2 0x6F8 SWAP1 PUSH2 0xBC2 JUMP JUMPDEST PUSH1 0x40 MLOAD DUP1 SWAP2 SUB SWAP1 REVERT JUMPDEST PUSH1 0x0 PUSH1 0xFF AND DUP2 PUSH1 0xFF AND LT ISZERO DUP1 ISZERO PUSH2 0x71F JUMPI POP PUSH1 0x6 PUSH1 0xFF AND DUP2 PUSH1 0xFF AND GT ISZERO JUMPDEST PUSH2 0x75E JUMPI PUSH1 0x40 MLOAD PUSH32 0x8C379A000000000000000000000000000000000000000000000000000000000 DUP2 MSTORE PUSH1 0x4 ADD PUSH2 0x755 SWAP1 PUSH2 0xC54 JUMP JUMPDEST PUSH1 0x40 MLOAD DUP1 SWAP2 SUB SWAP1 REVERT JUMPDEST DUP4 DUP6 PUSH1 0x0 ADD PUSH1 0x0 PUSH2 0x100 EXP DUP2 SLOAD DUP2 PUSH1 0xFF MUL NOT AND SWAP1 DUP4 PUSH1 0xFF AND MUL OR SWAP1 SSTORE POP DUP3 DUP6 PUSH1 0x0 ADD PUSH1 0x1 PUSH2 0x100 EXP DUP2 SLOAD DUP2 PUSH1 0xFF MUL NOT AND SWAP1 DUP4 PUSH1 0xFF AND MUL OR SWAP1 SSTORE POP POP POP POP POP POP JUMP JUMPDEST PUSH1 0x0 DUP3 PUSH1 0x0 PUSH1 0xFF AND DUP2 PUSH1 0xFF AND LT ISZERO DUP1 ISZERO PUSH2 0x7C0 JUMPI POP PUSH1 0x6 PUSH1 0xFF AND DUP2 PUSH1 0xFF AND GT ISZERO JUMPDEST PUSH2 0x7FF JUMPI PUSH1 0x40 MLOAD PUSH32 0x8C379A000000000000000000000000000000000000000000000000000000000 DUP2 MSTORE PUSH1 0x4 ADD PUSH2 0x7F6 SWAP1 PUSH2 0xCE6 JUMP JUMPDEST PUSH1 0x40 MLOAD DUP1 SWAP2 SUB SWAP1 REVERT JUMPDEST DUP3 PUSH1 0x20 ADD MLOAD PUSH1 0xFF AND DUP4 PUSH1 0x0 ADD MLOAD PUSH1 0xFF AND LT ISZERO PUSH2 0x84C JUMPI DUP3 PUSH1 0x0 ADD MLOAD PUSH1 0xFF AND DUP5 PUSH1 0xFF AND LT ISZERO DUP1 ISZERO PUSH2 0x839 JUMPI POP DUP3 PUSH1 0x20 ADD MLOAD PUSH1 0xFF AND DUP5 PUSH1 0xFF AND GT ISZERO JUMPDEST ISZERO PUSH2 0x847 JUMPI PUSH1 0x1 SWAP2 POP PUSH2 0x883 JUMP JUMPDEST PUSH2 0x87E JUMP JUMPDEST DUP3 PUSH1 0x0 ADD MLOAD PUSH1 0xFF AND DUP5 PUSH1 0xFF AND LT ISZERO DUP1 PUSH2 0x86F JUMPI POP DUP3 PUSH1 0x20 ADD MLOAD PUSH1 0xFF AND DUP5 PUSH1 0xFF AND GT ISZERO JUMPDEST ISZERO PUSH2 0x87D JUMPI PUSH1 0x1 SWAP2 POP PUSH2 0x883 JUMP JUMPDEST JUMPDEST PUSH1 0x0 SWAP2 POP JUMPDEST POP SWAP3 SWAP2 POP POP JUMP JUMPDEST PUSH1 0x40 MLOAD DUP1 PUSH1 0x40 ADD PUSH1 0x40 MSTORE DUP1 PUSH1 0x0 PUSH1 0xFF AND DUP2 MSTORE PUSH1 0x20 ADD PUSH1 0x0 PUSH1 0xFF AND DUP2 MSTORE POP SWAP1 JUMP JUMPDEST PUSH1 0x0 DUP1 REVERT JUMPDEST PUSH1 0x0 PUSH1 0xFF DUP3 AND SWAP1 POP SWAP2 SWAP1 POP JUMP JUMPDEST PUSH2 0x8C5 DUP2 PUSH2 0x8AF JUMP JUMPDEST DUP2 EQ PUSH2 0x8D0 JUMPI PUSH1 0x0 DUP1 REVERT JUMPDEST POP JUMP JUMPDEST PUSH1 0x0 DUP2 CALLDATALOAD SWAP1 POP PUSH2 0x8E2 DUP2 PUSH2 0x8BC JUMP JUMPDEST SWAP3 SWAP2 POP POP JUMP JUMPDEST PUSH1 0x0 PUSH1 0x20 DUP3 DUP5 SUB SLT ISZERO PUSH2 0x8FE JUMPI PUSH2 0x8FD PUSH2 0x8AA JUMP JUMPDEST JUMPDEST PUSH1 0x0 PUSH2 0x90C DUP5 DUP3 DUP6 ADD PUSH2 0x8D3 JUMP JUMPDEST SWAP2 POP POP SWAP3 SWAP2 POP POP JUMP JUMPDEST PUSH2 0x91E DUP2 PUSH2 0x8AF JUMP JUMPDEST DUP3 MSTORE POP POP JUMP JUMPDEST PUSH1 0x0 PUSH1 0x40 DUP3 ADD SWAP1 POP PUSH2 0x939 PUSH1 0x0 DUP4 ADD DUP6 PUSH2 0x915 JUMP JUMPDEST PUSH2 0x946 PUSH1 0x20 DUP4 ADD DUP5 PUSH2 0x915 JUMP JUMPDEST SWAP4 SWAP3 POP POP POP JUMP JUMPDEST PUSH1 0x0 DUP2 SWAP1 POP SWAP2 SWAP1 POP JUMP JUMPDEST PUSH2 0x960 DUP2 PUSH2 0x94D JUMP JUMPDEST DUP2 EQ PUSH2 0x96B JUMPI PUSH1 0x0 DUP1 REVERT JUMPDEST POP JUMP JUMPDEST PUSH1 0x0 DUP2 CALLDATALOAD SWAP1 POP PUSH2 0x97D DUP2 PUSH2 0x957 JUMP JUMPDEST SWAP3 SWAP2 POP POP JUMP JUMPDEST PUSH1 0x0 PUSH1 0x20 DUP3 DUP5 SUB SLT ISZERO PUSH2 0x999 JUMPI PUSH2 0x998 PUSH2 0x8AA JUMP JUMPDEST JUMPDEST PUSH1 0x0 PUSH2 0x9A7 DUP5 DUP3 DUP6 ADD PUSH2 0x96E JUMP JUMPDEST SWAP2 POP POP SWAP3 SWAP2 POP POP JUMP JUMPDEST PUSH1 0x0 DUP2 ISZERO ISZERO SWAP1 POP SWAP2 SWAP1 POP JUMP JUMPDEST PUSH2 0x9C5 DUP2 PUSH2 0x9B0 JUMP JUMPDEST DUP3 MSTORE POP POP JUMP JUMPDEST PUSH1 0x0 PUSH1 0x20 DUP3 ADD SWAP1 POP PUSH2 0x9E0 PUSH1 0x0 DUP4 ADD DUP5 PUSH2 0x9BC JUMP JUMPDEST SWAP3 SWAP2 POP POP JUMP JUMPDEST PUSH1 0x0 DUP2 MLOAD SWAP1 POP SWAP2 SWAP1 POP JUMP JUMPDEST PUSH1 0x0 DUP3 DUP3 MSTORE PUSH1 0x20 DUP3 ADD SWAP1 POP SWAP3 SWAP2 POP POP JUMP JUMPDEST PUSH1 0x0 DUP2 SWAP1 POP PUSH1 0x20 DUP3 ADD SWAP1 POP SWAP2 SWAP1 POP JUMP JUMPDEST PUSH2 0xA1B DUP2 PUSH2 0x8AF JUMP JUMPDEST DUP3 MSTORE POP POP JUMP JUMPDEST PUSH1 0x40 DUP3 ADD PUSH1 0x0 DUP3 ADD MLOAD PUSH2 0xA37 PUSH1 0x0 DUP6 ADD DUP3 PUSH2 0xA12 JUMP JUMPDEST POP PUSH1 0x20 DUP3 ADD MLOAD PUSH2 0xA4A PUSH1 0x20 DUP6 ADD DUP3 PUSH2 0xA12 JUMP JUMPDEST POP POP POP POP JUMP JUMPDEST PUSH1 0x0 PUSH2 0xA5C DUP4 DUP4 PUSH2 0xA21 JUMP JUMPDEST PUSH1 0x40 DUP4 ADD SWAP1 POP SWAP3 SWAP2 POP POP JUMP JUMPDEST PUSH1 0x0 PUSH1 0x20 DUP3 ADD SWAP1 POP SWAP2 SWAP1 POP JUMP JUMPDEST PUSH1 0x0 PUSH2 0xA80 DUP3 PUSH2 0x9E6 JUMP JUMPDEST PUSH2 0xA8A DUP2 DUP6 PUSH2 0x9F1 JUMP JUMPDEST SWAP4 POP PUSH2 0xA95 DUP4 PUSH2 0xA02 JUMP JUMPDEST DUP1 PUSH1 0x0 JUMPDEST DUP4 DUP2 LT ISZERO PUSH2 0xAC6 JUMPI DUP2 MLOAD PUSH2 0xAAD DUP9 DUP3 PUSH2 0xA50 JUMP JUMPDEST SWAP8 POP PUSH2 0xAB8 DUP4 PUSH2 0xA68 JUMP JUMPDEST SWAP3 POP POP PUSH1 0x1 DUP2 ADD SWAP1 POP PUSH2 0xA99 JUMP JUMPDEST POP DUP6 SWAP4 POP POP POP POP SWAP3 SWAP2 POP POP JUMP JUMPDEST PUSH1 0x0 PUSH1 0x20 DUP3 ADD SWAP1 POP DUP2 DUP2 SUB PUSH1 0x0 DUP4 ADD MSTORE PUSH2 0xAED DUP2 DUP5 PUSH2 0xA75 JUMP JUMPDEST SWAP1 POP SWAP3 SWAP2 POP POP JUMP JUMPDEST PUSH1 0x0 PUSH1 0x20 DUP3 ADD SWAP1 POP PUSH2 0xB0A PUSH1 0x0 DUP4 ADD DUP5 PUSH2 0x915 JUMP JUMPDEST SWAP3 SWAP2 POP POP JUMP JUMPDEST PUSH32 0x4E487B7100000000000000000000000000000000000000000000000000000000 PUSH1 0x0 MSTORE PUSH1 0x32 PUSH1 0x4 MSTORE PUSH1 0x24 PUSH1 0x0 REVERT JUMPDEST PUSH1 0x0 DUP3 DUP3 MSTORE PUSH1 0x20 DUP3 ADD SWAP1 POP SWAP3 SWAP2 POP POP JUMP JUMPDEST PUSH32 0x546865205F7374617274446179206E6F7420726570726573656E747320612076 PUSH1 0x0 DUP3 ADD MSTORE PUSH32 0x616C696420646179000000000000000000000000000000000000000000000000 PUSH1 0x20 DUP3 ADD MSTORE POP JUMP JUMPDEST PUSH1 0x0 PUSH2 0xBAC PUSH1 0x28 DUP4 PUSH2 0xB3F JUMP JUMPDEST SWAP2 POP PUSH2 0xBB7 DUP3 PUSH2 0xB50 JUMP JUMPDEST PUSH1 0x40 DUP3 ADD SWAP1 POP SWAP2 SWAP1 POP JUMP JUMPDEST PUSH1 0x0 PUSH1 0x20 DUP3 ADD SWAP1 POP DUP2 DUP2 SUB PUSH1 0x0 DUP4 ADD MSTORE PUSH2 0xBDB DUP2 PUSH2 0xB9F JUMP JUMPDEST SWAP1 POP SWAP2 SWAP1 POP JUMP JUMPDEST PUSH32 0x546865205F656E64446179206E6F7420726570726573656E747320612076616C PUSH1 0x0 DUP3 ADD MSTORE PUSH32 0x6964206461790000000000000000000000000000000000000000000000000000 PUSH1 0x20 DUP3 ADD MSTORE POP JUMP JUMPDEST PUSH1 0x0 PUSH2 0xC3E PUSH1 0x26 DUP4 PUSH2 0xB3F JUMP JUMPDEST SWAP2 POP PUSH2 0xC49 DUP3 PUSH2 0xBE2 JUMP JUMPDEST PUSH1 0x40 DUP3 ADD SWAP1 POP SWAP2 SWAP1 POP JUMP JUMPDEST PUSH1 0x0 PUSH1 0x20 DUP3 ADD SWAP1 POP DUP2 DUP2 SUB PUSH1 0x0 DUP4 ADD MSTORE PUSH2 0xC6D DUP2 PUSH2 0xC31 JUMP JUMPDEST SWAP1 POP SWAP2 SWAP1 POP JUMP JUMPDEST PUSH32 0x54686520676976656E206E756D6265722F646179206E6F742072657072657365 PUSH1 0x0 DUP3 ADD MSTORE PUSH32 0x6E747320612076616C6964206461790000000000000000000000000000000000 PUSH1 0x20 DUP3 ADD MSTORE POP JUMP JUMPDEST PUSH1 0x0 PUSH2 0xCD0 PUSH1 0x2F DUP4 PUSH2 0xB3F JUMP JUMPDEST SWAP2 POP PUSH2 0xCDB DUP3 PUSH2 0xC74 JUMP JUMPDEST PUSH1 0x40 DUP3 ADD SWAP1 POP SWAP2 SWAP1 POP JUMP JUMPDEST PUSH1 0x0 PUSH1 0x20 DUP3 ADD SWAP1 POP DUP2 DUP2 SUB PUSH1 0x0 DUP4 ADD MSTORE PUSH2 0xCFF DUP2 PUSH2 0xCC3 JUMP JUMPDEST SWAP1 POP SWAP2 SWAP1 POP JUMP JUMPDEST PUSH32 0x4E487B7100000000000000000000000000000000000000000000000000000000 PUSH1 0x0 MSTORE PUSH1 0x11 PUSH1 0x4 MSTORE PUSH1 0x24 PUSH1 0x0 REVERT JUMPDEST PUSH1 0x0 PUSH2 0xD40 DUP3 PUSH2 0x94D JUMP JUMPDEST SWAP2 POP PUSH32 0xFFFFFFFFFFFFFFFFFFFFFFFFFFFFFFFFFFFFFFFFFFFFFFFFFFFFFFFFFFFFFFFF DUP3 SUB PUSH2 0xD72 JUMPI PUSH2 0xD71 PUSH2 0xD06 JUMP JUMPDEST JUMPDEST PUSH1 0x1 DUP3 ADD SWAP1 POP SWAP2 SWAP1 POP JUMP INVALID LOG2 PUSH5 0x6970667358 0x22 SLT KECCAK256 ORIGIN RETURNDATASIZE DUP11 PUSH29 0x457271E9599D19CEB3285EB3C8A5C2E06430825DF828104D13F575DA64 PUSH20 0x6F6C634300081100330000000000000000000000 "
				},
				"gasEstimates": {
					"creation": {
						"codeDepositCost": "701400",
						"executionCost": "infinite",
						"totalCost": "infinite"
					},
					"external": {
						"getAllWeekDaysInterval()": "infinite",
						"getAmountOfWeekDaysInterval()": "2495",
						"getWeekDaysInterval()": "infinite",
						"getWeekDaysInterval(uint8)": "infinite",
						"isIntoWeekDaysIntervals(uint8)": "infinite",
						"setWeekDaysInterval()": "infinite",
						"weekDaysInterval(uint256)": "infinite"
					}
				},
				"methodIdentifiers": {
					"getAllWeekDaysInterval()": "8098c715",
					"getAmountOfWeekDaysInterval()": "ab19c86c",
					"getWeekDaysInterval()": "7a5f80e7",
					"getWeekDaysInterval(uint8)": "0867ba68",
					"isIntoWeekDaysIntervals(uint8)": "2f501097",
					"setWeekDaysInterval()": "f18406d7",
					"weekDaysInterval(uint256)": "2af442ef"
				}
			},
			"storageLayout": {
				"storage": [
					{
						"astId": 671,
						"contract": "contracts/lib/referencesCode-eai/WeekDaysInterval_refCod.sol:WeekDaysInterval_refCod",
						"label": "application",
						"offset": 0,
						"slot": "0",
						"type": "t_struct(Party)50_storage"
					},
					{
						"astId": 675,
						"contract": "contracts/lib/referencesCode-eai/WeekDaysInterval_refCod.sol:WeekDaysInterval_refCod",
						"label": "weekDaysInterval",
						"offset": 0,
						"slot": "2",
						"type": "t_array(t_struct(WeekDaysInterval)123_storage)dyn_storage"
					}
				],
				"types": {
					"t_address": {
						"encoding": "inplace",
						"label": "address",
						"numberOfBytes": "20"
					},
					"t_array(t_struct(WeekDaysInterval)123_storage)dyn_storage": {
						"base": "t_struct(WeekDaysInterval)123_storage",
						"encoding": "dynamic_array",
						"label": "struct EAI.WeekDaysInterval[]",
						"numberOfBytes": "32"
					},
					"t_bool": {
						"encoding": "inplace",
						"label": "bool",
						"numberOfBytes": "1"
					},
					"t_string_storage": {
						"encoding": "bytes",
						"label": "string",
						"numberOfBytes": "32"
					},
					"t_struct(Party)50_storage": {
						"encoding": "inplace",
						"label": "struct EAI.Party",
						"members": [
							{
								"astId": 45,
								"contract": "contracts/lib/referencesCode-eai/WeekDaysInterval_refCod.sol:WeekDaysInterval_refCod",
								"label": "name",
								"offset": 0,
								"slot": "0",
								"type": "t_string_storage"
							},
							{
								"astId": 47,
								"contract": "contracts/lib/referencesCode-eai/WeekDaysInterval_refCod.sol:WeekDaysInterval_refCod",
								"label": "walletAddress",
								"offset": 0,
								"slot": "1",
								"type": "t_address"
							},
							{
								"astId": 49,
								"contract": "contracts/lib/referencesCode-eai/WeekDaysInterval_refCod.sol:WeekDaysInterval_refCod",
								"label": "aware",
								"offset": 20,
								"slot": "1",
								"type": "t_bool"
							}
						],
						"numberOfBytes": "64"
					},
					"t_struct(WeekDaysInterval)123_storage": {
						"encoding": "inplace",
						"label": "struct EAI.WeekDaysInterval",
						"members": [
							{
								"astId": 120,
								"contract": "contracts/lib/referencesCode-eai/WeekDaysInterval_refCod.sol:WeekDaysInterval_refCod",
								"label": "start",
								"offset": 0,
								"slot": "0",
								"type": "t_uint8"
							},
							{
								"astId": 122,
								"contract": "contracts/lib/referencesCode-eai/WeekDaysInterval_refCod.sol:WeekDaysInterval_refCod",
								"label": "end",
								"offset": 1,
								"slot": "0",
								"type": "t_uint8"
							}
						],
						"numberOfBytes": "32"
					},
					"t_uint8": {
						"encoding": "inplace",
						"label": "uint8",
						"numberOfBytes": "1"
					}
				}
			},
			"userdoc": {
				"kind": "user",
				"methods": {},
				"version": 1
			}
		}
	}
}