{
	"contracts/lib/referencesCode-eai/Timeout_refCod.sol": {
		"Timeout_refCod": {
			"abi": [
				{
					"inputs": [],
					"stateMutability": "nonpayable",
					"type": "constructor"
				},
				{
					"inputs": [],
					"name": "getAllTimeouts",
					"outputs": [
						{
							"components": [
								{
									"internalType": "uint32",
									"name": "endTime",
									"type": "uint32"
								},
								{
									"internalType": "uint32",
									"name": "timeIncrement",
									"type": "uint32"
								}
							],
							"internalType": "struct EAI.Timeout[]",
							"name": "",
							"type": "tuple[]"
						}
					],
					"stateMutability": "view",
					"type": "function"
				},
				{
					"inputs": [
						{
							"internalType": "uint256",
							"name": "_id",
							"type": "uint256"
						}
					],
					"name": "getOneTimeout",
					"outputs": [
						{
							"components": [
								{
									"internalType": "uint32",
									"name": "endTime",
									"type": "uint32"
								},
								{
									"internalType": "uint32",
									"name": "timeIncrement",
									"type": "uint32"
								}
							],
							"internalType": "struct EAI.Timeout",
							"name": "",
							"type": "tuple"
						}
					],
					"stateMutability": "view",
					"type": "function"
				},
				{
					"inputs": [
						{
							"internalType": "uint32",
							"name": "_idTimeout",
							"type": "uint32"
						},
						{
							"internalType": "uint32",
							"name": "_accessTime",
							"type": "uint32"
						}
					],
					"name": "isTimeoutEnded",
					"outputs": [
						{
							"internalType": "bool",
							"name": "",
							"type": "bool"
						}
					],
					"stateMutability": "view",
					"type": "function"
				},
				{
					"inputs": [
						{
							"internalType": "uint256",
							"name": "_idTimeout",
							"type": "uint256"
						},
						{
							"internalType": "uint32",
							"name": "_startTime",
							"type": "uint32"
						}
					],
					"name": "setTimeoutEnd",
					"outputs": [],
					"stateMutability": "nonpayable",
					"type": "function"
				}
			],
			"devdoc": {
				"kind": "dev",
				"methods": {},
				"version": 1
			},
			"evm": {
				"assembly": "    /* \"contracts/lib/referencesCode-eai/Timeout_refCod.sol\":174:926  contract  Timeout_refCod{\r... */\n  mstore(0x40, 0x80)\n    /* \"contracts/lib/referencesCode-eai/Timeout_refCod.sol\":268:381  constructor(){\r... */\n  callvalue\n  dup1\n  iszero\n  tag_1\n  jumpi\n  0x00\n  dup1\n  revert\ntag_1:\n  pop\n    /* \"contracts/lib/referencesCode-eai/Timeout_refCod.sol\":292:299  timeout */\n  0x00\n    /* \"contracts/lib/referencesCode-eai/Timeout_refCod.sol\":305:326  EAI.createTimeout(50) */\n  tag_4\n    /* \"contracts/lib/referencesCode-eai/Timeout_refCod.sol\":323:325  50 */\n  0x32\n    /* \"contracts/lib/referencesCode-eai/Timeout_refCod.sol\":305:322  EAI.createTimeout */\n  or(tag_0_27, shl(0x20, tag_5))\n    /* \"contracts/lib/referencesCode-eai/Timeout_refCod.sol\":305:326  EAI.createTimeout(50) */\n  0x20\n  shr\n  jump\t// in\ntag_4:\n    /* \"contracts/lib/referencesCode-eai/Timeout_refCod.sol\":292:327  timeout.push(EAI.createTimeout(50)) */\n  swap1\n  dup1\n  0x01\n  dup2\n  sload\n  add\n  dup1\n  dup3\n  sstore\n  dup1\n  swap2\n  pop\n  pop\n  0x01\n  swap1\n  sub\n  swap1\n  0x00\n  mstore\n  keccak256(0x00, 0x20)\n  add\n  0x00\n  swap1\n  swap2\n  swap1\n  swap2\n  swap1\n  swap2\n  pop\n  0x00\n  dup3\n  add\n  mload\n  dup2\n  0x00\n  add\n  exp(0x0100, 0x00)\n  dup2\n  sload\n  dup2\n  0xffffffff\n  mul\n  not\n  and\n  swap1\n  dup4\n  0xffffffff\n  and\n  mul\n  or\n  swap1\n  sstore\n  pop\n  0x20\n  dup3\n  add\n  mload\n  dup2\n  0x00\n  add\n  exp(0x0100, 0x04)\n  dup2\n  sload\n  dup2\n  0xffffffff\n  mul\n  not\n  and\n  swap1\n  dup4\n  0xffffffff\n  and\n  mul\n  or\n  swap1\n  sstore\n  pop\n  pop\n  pop\n    /* \"contracts/lib/referencesCode-eai/Timeout_refCod.sol\":338:345  timeout */\n  0x00\n    /* \"contracts/lib/referencesCode-eai/Timeout_refCod.sol\":351:372  EAI.createTimeout(30) */\n  tag_7\n    /* \"contracts/lib/referencesCode-eai/Timeout_refCod.sol\":369:371  30 */\n  0x1e\n    /* \"contracts/lib/referencesCode-eai/Timeout_refCod.sol\":351:368  EAI.createTimeout */\n  or(tag_0_27, shl(0x20, tag_5))\n    /* \"contracts/lib/referencesCode-eai/Timeout_refCod.sol\":351:372  EAI.createTimeout(30) */\n  0x20\n  shr\n  jump\t// in\ntag_7:\n    /* \"contracts/lib/referencesCode-eai/Timeout_refCod.sol\":338:373  timeout.push(EAI.createTimeout(30)) */\n  swap1\n  dup1\n  0x01\n  dup2\n  sload\n  add\n  dup1\n  dup3\n  sstore\n  dup1\n  swap2\n  pop\n  pop\n  0x01\n  swap1\n  sub\n  swap1\n  0x00\n  mstore\n  keccak256(0x00, 0x20)\n  add\n  0x00\n  swap1\n  swap2\n  swap1\n  swap2\n  swap1\n  swap2\n  pop\n  0x00\n  dup3\n  add\n  mload\n  dup2\n  0x00\n  add\n  exp(0x0100, 0x00)\n  dup2\n  sload\n  dup2\n  0xffffffff\n  mul\n  not\n  and\n  swap1\n  dup4\n  0xffffffff\n  and\n  mul\n  or\n  swap1\n  sstore\n  pop\n  0x20\n  dup3\n  add\n  mload\n  dup2\n  0x00\n  add\n  exp(0x0100, 0x04)\n  dup2\n  sload\n  dup2\n  0xffffffff\n  mul\n  not\n  and\n  swap1\n  dup4\n  0xffffffff\n  and\n  mul\n  or\n  swap1\n  sstore\n  pop\n  pop\n  pop\n    /* \"contracts/lib/referencesCode-eai/Timeout_refCod.sol\":174:926  contract  Timeout_refCod{\r... */\n  jump(tag_9)\n    /* \"contracts/lib/eai/EAI.sol\":8014:8151  function createTimeout(uint32 _timeIncrement) internal pure returns (Timeout memory ){\r... */\ntag_5:\n    /* \"contracts/lib/eai/EAI.sol\":8083:8097  Timeout memory */\n  tag_10\n  tag_11\n  jump\t// in\ntag_10:\n    /* \"contracts/lib/eai/EAI.sol\":8117:8143  Timeout(0, _timeIncrement) */\n  mload(0x40)\n  dup1\n  0x40\n  add\n  0x40\n  mstore\n  dup1\n    /* \"contracts/lib/eai/EAI.sol\":8125:8126  0 */\n  0x00\n    /* \"contracts/lib/eai/EAI.sol\":8117:8143  Timeout(0, _timeIncrement) */\n  0xffffffff\n  and\n  dup2\n  mstore\n  0x20\n  add\n    /* \"contracts/lib/eai/EAI.sol\":8128:8142  _timeIncrement */\n  dup4\n    /* \"contracts/lib/eai/EAI.sol\":8117:8143  Timeout(0, _timeIncrement) */\n  0xffffffff\n  and\n  dup2\n  mstore\n  pop\n    /* \"contracts/lib/eai/EAI.sol\":8110:8143  return Timeout(0, _timeIncrement) */\n  swap1\n  pop\n    /* \"contracts/lib/eai/EAI.sol\":8014:8151  function createTimeout(uint32 _timeIncrement) internal pure returns (Timeout memory ){\r... */\n  swap2\n  swap1\n  pop\n  jump\t// out\n    /* \"contracts/lib/referencesCode-eai/Timeout_refCod.sol\":174:926  contract  Timeout_refCod{\r... */\ntag_11:\n  mload(0x40)\n  dup1\n  0x40\n  add\n  0x40\n  mstore\n  dup1\n  and(0xffffffff, 0x00)\n  dup2\n  mstore\n  0x20\n  add\n  and(0xffffffff, 0x00)\n  dup2\n  mstore\n  pop\n  swap1\n  jump\t// out\ntag_9:\n  dataSize(sub_0)\n  dup1\n  dataOffset(sub_0)\n  0x00\n  codecopy\n  0x00\n  return\nstop\n\nsub_0: assembly {\n        /* \"contracts/lib/referencesCode-eai/Timeout_refCod.sol\":174:926  contract  Timeout_refCod{\r... */\n      mstore(0x40, 0x80)\n      callvalue\n      dup1\n      iszero\n      tag_1\n      jumpi\n      0x00\n      dup1\n      revert\n    tag_1:\n      pop\n      jumpi(tag_2, lt(calldatasize, 0x04))\n      shr(0xe0, calldataload(0x00))\n      dup1\n      0x1e5dca7f\n      eq\n      tag_3\n      jumpi\n      dup1\n      0x2286f651\n      eq\n      tag_4\n      jumpi\n      dup1\n      0x233a985f\n      eq\n      tag_5\n      jumpi\n      dup1\n      0x51a9241c\n      eq\n      tag_6\n      jumpi\n    tag_2:\n      0x00\n      dup1\n      revert\n        /* \"contracts/lib/referencesCode-eai/Timeout_refCod.sol\":823:923  function getAllTimeouts() public view returns(EAI.Timeout[] memory){\r... */\n    tag_3:\n      tag_7\n      tag_8\n      jump\t// in\n    tag_7:\n      mload(0x40)\n      tag_9\n      swap2\n      swap1\n      tag_10\n      jump\t// in\n    tag_9:\n      mload(0x40)\n      dup1\n      swap2\n      sub\n      swap1\n      return\n        /* \"contracts/lib/referencesCode-eai/Timeout_refCod.sol\":701:811  function getOneTimeout(uint _id) public view returns(EAI.Timeout memory){\r... */\n    tag_4:\n      tag_11\n      0x04\n      dup1\n      calldatasize\n      sub\n      dup2\n      add\n      swap1\n      tag_12\n      swap2\n      swap1\n      tag_13\n      jump\t// in\n    tag_12:\n      tag_14\n      jump\t// in\n    tag_11:\n      mload(0x40)\n      tag_15\n      swap2\n      swap1\n      tag_16\n      jump\t// in\n    tag_15:\n      mload(0x40)\n      dup1\n      swap2\n      sub\n      swap1\n      return\n        /* \"contracts/lib/referencesCode-eai/Timeout_refCod.sol\":389:524  function setTimeoutEnd(uint _idTimeout, uint32 _startTime) public {\r... */\n    tag_5:\n      tag_17\n      0x04\n      dup1\n      calldatasize\n      sub\n      dup2\n      add\n      swap1\n      tag_18\n      swap2\n      swap1\n      tag_19\n      jump\t// in\n    tag_18:\n      tag_20\n      jump\t// in\n    tag_17:\n      stop\n        /* \"contracts/lib/referencesCode-eai/Timeout_refCod.sol\":532:693  function isTimeoutEnded(uint32 _idTimeout, uint32 _accessTime)public view returns(bool){\r... */\n    tag_6:\n      tag_21\n      0x04\n      dup1\n      calldatasize\n      sub\n      dup2\n      add\n      swap1\n      tag_22\n      swap2\n      swap1\n      tag_23\n      jump\t// in\n    tag_22:\n      tag_24\n      jump\t// in\n    tag_21:\n      mload(0x40)\n      tag_25\n      swap2\n      swap1\n      tag_26\n      jump\t// in\n    tag_25:\n      mload(0x40)\n      dup1\n      swap2\n      sub\n      swap1\n      return\n        /* \"contracts/lib/referencesCode-eai/Timeout_refCod.sol\":823:923  function getAllTimeouts() public view returns(EAI.Timeout[] memory){\r... */\n    tag_8:\n        /* \"contracts/lib/referencesCode-eai/Timeout_refCod.sol\":869:889  EAI.Timeout[] memory */\n      0x60\n        /* \"contracts/lib/referencesCode-eai/Timeout_refCod.sol\":908:915  timeout */\n      0x00\n        /* \"contracts/lib/referencesCode-eai/Timeout_refCod.sol\":901:915  return timeout */\n      dup1\n      sload\n      dup1\n      0x20\n      mul\n      0x20\n      add\n      mload(0x40)\n      swap1\n      dup2\n      add\n      0x40\n      mstore\n      dup1\n      swap3\n      swap2\n      swap1\n      dup2\n      dup2\n      mstore\n      0x20\n      add\n      0x00\n      swap1\n    tag_29:\n      dup3\n      dup3\n      lt\n      iszero\n      tag_30\n      jumpi\n      dup4\n      dup3\n      swap1\n      0x00\n      mstore\n      keccak256(0x00, 0x20)\n      add\n      mload(0x40)\n      dup1\n      0x40\n      add\n      0x40\n      mstore\n      swap1\n      dup2\n      0x00\n      dup3\n      add\n      0x00\n      swap1\n      sload\n      swap1\n      0x0100\n      exp\n      swap1\n      div\n      0xffffffff\n      and\n      0xffffffff\n      and\n      0xffffffff\n      and\n      dup2\n      mstore\n      0x20\n      add\n      0x00\n      dup3\n      add\n      0x04\n      swap1\n      sload\n      swap1\n      0x0100\n      exp\n      swap1\n      div\n      0xffffffff\n      and\n      0xffffffff\n      and\n      0xffffffff\n      and\n      dup2\n      mstore\n      pop\n      pop\n      dup2\n      mstore\n      0x20\n      add\n      swap1\n      0x01\n      add\n      swap1\n      jump(tag_29)\n    tag_30:\n      pop\n      pop\n      pop\n      pop\n      swap1\n      pop\n        /* \"contracts/lib/referencesCode-eai/Timeout_refCod.sol\":823:923  function getAllTimeouts() public view returns(EAI.Timeout[] memory){\r... */\n      swap1\n      jump\t// out\n        /* \"contracts/lib/referencesCode-eai/Timeout_refCod.sol\":701:811  function getOneTimeout(uint _id) public view returns(EAI.Timeout memory){\r... */\n    tag_14:\n        /* \"contracts/lib/referencesCode-eai/Timeout_refCod.sol\":754:772  EAI.Timeout memory */\n      tag_32\n      tag_33\n      jump\t// in\n    tag_32:\n        /* \"contracts/lib/referencesCode-eai/Timeout_refCod.sol\":791:798  timeout */\n      0x00\n        /* \"contracts/lib/referencesCode-eai/Timeout_refCod.sol\":799:802  _id */\n      dup3\n        /* \"contracts/lib/referencesCode-eai/Timeout_refCod.sol\":791:803  timeout[_id] */\n      dup2\n      sload\n      dup2\n      lt\n      tag_35\n      jumpi\n      tag_36\n      tag_37\n      jump\t// in\n    tag_36:\n    tag_35:\n      swap1\n      0x00\n      mstore\n      keccak256(0x00, 0x20)\n      add\n        /* \"contracts/lib/referencesCode-eai/Timeout_refCod.sol\":784:803  return timeout[_id] */\n      mload(0x40)\n      dup1\n      0x40\n      add\n      0x40\n      mstore\n      swap1\n      dup2\n      0x00\n      dup3\n      add\n      0x00\n      swap1\n      sload\n      swap1\n      0x0100\n      exp\n      swap1\n      div\n      0xffffffff\n      and\n      0xffffffff\n      and\n      0xffffffff\n      and\n      dup2\n      mstore\n      0x20\n      add\n      0x00\n      dup3\n      add\n      0x04\n      swap1\n      sload\n      swap1\n      0x0100\n      exp\n      swap1\n      div\n      0xffffffff\n      and\n      0xffffffff\n      and\n      0xffffffff\n      and\n      dup2\n      mstore\n      pop\n      pop\n      swap1\n      pop\n        /* \"contracts/lib/referencesCode-eai/Timeout_refCod.sol\":701:811  function getOneTimeout(uint _id) public view returns(EAI.Timeout memory){\r... */\n      swap2\n      swap1\n      pop\n      jump\t// out\n        /* \"contracts/lib/referencesCode-eai/Timeout_refCod.sol\":389:524  function setTimeoutEnd(uint _idTimeout, uint32 _startTime) public {\r... */\n    tag_20:\n        /* \"contracts/lib/referencesCode-eai/Timeout_refCod.sol\":465:516  timeout[_idTimeout].setEndTimeInTimeout(_startTime) */\n      tag_40\n        /* \"contracts/lib/referencesCode-eai/Timeout_refCod.sol\":505:515  _startTime */\n      dup2\n        /* \"contracts/lib/referencesCode-eai/Timeout_refCod.sol\":465:472  timeout */\n      0x00\n        /* \"contracts/lib/referencesCode-eai/Timeout_refCod.sol\":473:483  _idTimeout */\n      dup5\n        /* \"contracts/lib/referencesCode-eai/Timeout_refCod.sol\":465:484  timeout[_idTimeout] */\n      dup2\n      sload\n      dup2\n      lt\n      tag_41\n      jumpi\n      tag_42\n      tag_37\n      jump\t// in\n    tag_42:\n    tag_41:\n      swap1\n      0x00\n      mstore\n      keccak256(0x00, 0x20)\n      add\n        /* \"contracts/lib/referencesCode-eai/Timeout_refCod.sol\":465:504  timeout[_idTimeout].setEndTimeInTimeout */\n      tag_44\n      swap1\n        /* \"contracts/lib/referencesCode-eai/Timeout_refCod.sol\":465:516  timeout[_idTimeout].setEndTimeInTimeout(_startTime) */\n      swap2\n      swap1\n      0xffffffff\n      and\n      jump\t// in\n    tag_40:\n        /* \"contracts/lib/referencesCode-eai/Timeout_refCod.sol\":389:524  function setTimeoutEnd(uint _idTimeout, uint32 _startTime) public {\r... */\n      pop\n      pop\n      jump\t// out\n        /* \"contracts/lib/referencesCode-eai/Timeout_refCod.sol\":532:693  function isTimeoutEnded(uint32 _idTimeout, uint32 _accessTime)public view returns(bool){\r... */\n    tag_24:\n        /* \"contracts/lib/referencesCode-eai/Timeout_refCod.sol\":614:618  bool */\n      0x00\n        /* \"contracts/lib/referencesCode-eai/Timeout_refCod.sol\":638:685  timeout[_idTimeout].isTimeoutEnded(_accessTime) */\n      tag_46\n        /* \"contracts/lib/referencesCode-eai/Timeout_refCod.sol\":673:684  _accessTime */\n      dup3\n        /* \"contracts/lib/referencesCode-eai/Timeout_refCod.sol\":638:645  timeout */\n      0x00\n        /* \"contracts/lib/referencesCode-eai/Timeout_refCod.sol\":646:656  _idTimeout */\n      dup6\n        /* \"contracts/lib/referencesCode-eai/Timeout_refCod.sol\":638:657  timeout[_idTimeout] */\n      0xffffffff\n      and\n      dup2\n      sload\n      dup2\n      lt\n      tag_47\n      jumpi\n      tag_48\n      tag_37\n      jump\t// in\n    tag_48:\n    tag_47:\n      swap1\n      0x00\n      mstore\n      keccak256(0x00, 0x20)\n      add\n        /* \"contracts/lib/referencesCode-eai/Timeout_refCod.sol\":638:672  timeout[_idTimeout].isTimeoutEnded */\n      mload(0x40)\n      dup1\n      0x40\n      add\n      0x40\n      mstore\n      swap1\n      dup2\n      0x00\n      dup3\n      add\n      0x00\n      swap1\n      sload\n      swap1\n      0x0100\n      exp\n      swap1\n      div\n      0xffffffff\n      and\n      0xffffffff\n      and\n      0xffffffff\n      and\n      dup2\n      mstore\n      0x20\n      add\n      0x00\n      dup3\n      add\n      0x04\n      swap1\n      sload\n      swap1\n      0x0100\n      exp\n      swap1\n      div\n      0xffffffff\n      and\n      0xffffffff\n      and\n      0xffffffff\n      and\n      dup2\n      mstore\n      pop\n      pop\n      tag_50\n      swap1\n        /* \"contracts/lib/referencesCode-eai/Timeout_refCod.sol\":638:685  timeout[_idTimeout].isTimeoutEnded(_accessTime) */\n      swap2\n      swap1\n      0xffffffff\n      and\n      jump\t// in\n    tag_46:\n        /* \"contracts/lib/referencesCode-eai/Timeout_refCod.sol\":630:685  return  timeout[_idTimeout].isTimeoutEnded(_accessTime) */\n      swap1\n      pop\n        /* \"contracts/lib/referencesCode-eai/Timeout_refCod.sol\":532:693  function isTimeoutEnded(uint32 _idTimeout, uint32 _accessTime)public view returns(bool){\r... */\n      swap3\n      swap2\n      pop\n      pop\n      jump\t// out\n        /* \"contracts/lib/eai/EAI.sol\":8014:8151  function createTimeout(uint32 _timeIncrement) internal pure returns (Timeout memory ){\r... */\n    tag_27:\n        /* \"contracts/lib/eai/EAI.sol\":8083:8097  Timeout memory */\n      tag_51\n      tag_33\n      jump\t// in\n    tag_51:\n        /* \"contracts/lib/eai/EAI.sol\":8117:8143  Timeout(0, _timeIncrement) */\n      mload(0x40)\n      dup1\n      0x40\n      add\n      0x40\n      mstore\n      dup1\n        /* \"contracts/lib/eai/EAI.sol\":8125:8126  0 */\n      0x00\n        /* \"contracts/lib/eai/EAI.sol\":8117:8143  Timeout(0, _timeIncrement) */\n      0xffffffff\n      and\n      dup2\n      mstore\n      0x20\n      add\n        /* \"contracts/lib/eai/EAI.sol\":8128:8142  _timeIncrement */\n      dup4\n        /* \"contracts/lib/eai/EAI.sol\":8117:8143  Timeout(0, _timeIncrement) */\n      0xffffffff\n      and\n      dup2\n      mstore\n      pop\n        /* \"contracts/lib/eai/EAI.sol\":8110:8143  return Timeout(0, _timeIncrement) */\n      swap1\n      pop\n        /* \"contracts/lib/eai/EAI.sol\":8014:8151  function createTimeout(uint32 _timeIncrement) internal pure returns (Timeout memory ){\r... */\n      swap2\n      swap1\n      pop\n      jump\t// out\n        /* \"contracts/lib/eai/EAI.sol\":8442:8635  function setEndTimeInTimeout(Timeout storage _timeout, uint32 _startTime)internal onlyValidAccessTime(_startTime){      \r... */\n    tag_44:\n        /* \"contracts/lib/eai/EAI.sol\":8544:8554  _startTime */\n      dup1\n        /* \"contracts/lib/eai/EAI.sol\":8696:8717  string memory strTime */\n      0x00\n        /* \"contracts/lib/eai/EAI.sol\":8721:8739  uint2String(_time) */\n      tag_54\n        /* \"contracts/lib/eai/EAI.sol\":8733:8738  _time */\n      dup3\n        /* \"contracts/lib/eai/EAI.sol\":8721:8739  uint2String(_time) */\n      0xffffffff\n      and\n        /* \"contracts/lib/eai/EAI.sol\":8721:8732  uint2String */\n      tag_55\n        /* \"contracts/lib/eai/EAI.sol\":8721:8739  uint2String(_time) */\n      jump\t// in\n    tag_54:\n        /* \"contracts/lib/eai/EAI.sol\":8696:8739  string memory strTime  = uint2String(_time) */\n      swap1\n      pop\n        /* \"contracts/lib/eai/EAI.sol\":8783:8785  10 */\n      0x0a\n        /* \"contracts/lib/eai/EAI.sol\":8764:8771  strTime */\n      dup2\n        /* \"contracts/lib/eai/EAI.sol\":8758:8779  bytes(strTime).length */\n      mload\n        /* \"contracts/lib/eai/EAI.sol\":8758:8785  bytes(strTime).length <= 10 */\n      gt\n      iszero\n        /* \"contracts/lib/eai/EAI.sol\":8750:8786  require(bytes(strTime).length <= 10) */\n      tag_56\n      jumpi\n      0x00\n      dup1\n      revert\n    tag_56:\n        /* \"contracts/lib/eai/EAI.sol\":8604:8612  _timeout */\n      dup4\n        /* \"contracts/lib/eai/EAI.sol\":8604:8626  _timeout.timeIncrement */\n      0x00\n      add\n      0x04\n      swap1\n      sload\n      swap1\n      0x0100\n      exp\n      swap1\n      div\n      0xffffffff\n      and\n        /* \"contracts/lib/eai/EAI.sol\":8591:8601  _startTime */\n      dup4\n        /* \"contracts/lib/eai/EAI.sol\":8591:8626  _startTime + _timeout.timeIncrement */\n      tag_58\n      swap2\n      swap1\n      tag_59\n      jump\t// in\n    tag_58:\n        /* \"contracts/lib/eai/EAI.sol\":8572:8580  _timeout */\n      dup5\n        /* \"contracts/lib/eai/EAI.sol\":8572:8588  _timeout.endTime */\n      0x00\n      add\n      0x00\n        /* \"contracts/lib/eai/EAI.sol\":8572:8626  _timeout.endTime = _startTime + _timeout.timeIncrement */\n      0x0100\n      exp\n      dup2\n      sload\n      dup2\n      0xffffffff\n      mul\n      not\n      and\n      swap1\n      dup4\n      0xffffffff\n      and\n      mul\n      or\n      swap1\n      sstore\n      pop\n        /* \"contracts/lib/eai/EAI.sol\":8685:8830  {\r... */\n      pop\n        /* \"contracts/lib/eai/EAI.sol\":8442:8635  function setEndTimeInTimeout(Timeout storage _timeout, uint32 _startTime)internal onlyValidAccessTime(_startTime){      \r... */\n      pop\n      pop\n      pop\n      jump\t// out\n        /* \"contracts/lib/eai/EAI.sol\":8163:8434  function isTimeoutEnded(Timeout memory _timeout, uint32 _accessTime) internal pure onlyValidAccessTime(_accessTime) returns(bool){        \r... */\n    tag_50:\n        /* \"contracts/lib/eai/EAI.sol\":8287:8291  bool */\n      0x00\n        /* \"contracts/lib/eai/EAI.sol\":8266:8277  _accessTime */\n      dup2\n        /* \"contracts/lib/eai/EAI.sol\":8696:8717  string memory strTime */\n      0x00\n        /* \"contracts/lib/eai/EAI.sol\":8721:8739  uint2String(_time) */\n      tag_61\n        /* \"contracts/lib/eai/EAI.sol\":8733:8738  _time */\n      dup3\n        /* \"contracts/lib/eai/EAI.sol\":8721:8739  uint2String(_time) */\n      0xffffffff\n      and\n        /* \"contracts/lib/eai/EAI.sol\":8721:8732  uint2String */\n      tag_55\n        /* \"contracts/lib/eai/EAI.sol\":8721:8739  uint2String(_time) */\n      jump\t// in\n    tag_61:\n        /* \"contracts/lib/eai/EAI.sol\":8696:8739  string memory strTime  = uint2String(_time) */\n      swap1\n      pop\n        /* \"contracts/lib/eai/EAI.sol\":8783:8785  10 */\n      0x0a\n        /* \"contracts/lib/eai/EAI.sol\":8764:8771  strTime */\n      dup2\n        /* \"contracts/lib/eai/EAI.sol\":8758:8779  bytes(strTime).length */\n      mload\n        /* \"contracts/lib/eai/EAI.sol\":8758:8785  bytes(strTime).length <= 10 */\n      gt\n      iszero\n        /* \"contracts/lib/eai/EAI.sol\":8750:8786  require(bytes(strTime).length <= 10) */\n      tag_62\n      jumpi\n      0x00\n      dup1\n      revert\n    tag_62:\n        /* \"contracts/lib/eai/EAI.sol\":8338:8339  0 */\n      0x00\n        /* \"contracts/lib/eai/EAI.sol\":8319:8327  _timeout */\n      dup6\n        /* \"contracts/lib/eai/EAI.sol\":8319:8335  _timeout.endTime */\n      0x00\n      add\n      mload\n        /* \"contracts/lib/eai/EAI.sol\":8319:8339  _timeout.endTime > 0 */\n      0xffffffff\n      and\n      gt\n        /* \"contracts/lib/eai/EAI.sol\":8311:8378  require(_timeout.endTime > 0, \"There is no endTime set in timeout\") */\n      tag_64\n      jumpi\n      mload(0x40)\n      0x08c379a000000000000000000000000000000000000000000000000000000000\n      dup2\n      mstore\n      0x04\n      add\n      tag_65\n      swap1\n      tag_66\n      jump\t// in\n    tag_65:\n      mload(0x40)\n      dup1\n      swap2\n      sub\n      swap1\n      revert\n    tag_64:\n        /* \"contracts/lib/eai/EAI.sol\":8410:8418  _timeout */\n      dup5\n        /* \"contracts/lib/eai/EAI.sol\":8410:8426  _timeout.endTime */\n      0x00\n      add\n      mload\n        /* \"contracts/lib/eai/EAI.sol\":8396:8426  _accessTime > _timeout.endTime */\n      0xffffffff\n      and\n        /* \"contracts/lib/eai/EAI.sol\":8396:8407  _accessTime */\n      dup5\n        /* \"contracts/lib/eai/EAI.sol\":8396:8426  _accessTime > _timeout.endTime */\n      0xffffffff\n      and\n      gt\n        /* \"contracts/lib/eai/EAI.sol\":8389:8426  return _accessTime > _timeout.endTime */\n      swap3\n      pop\n        /* \"contracts/lib/eai/EAI.sol\":8685:8830  {\r... */\n      pop\n        /* \"contracts/lib/eai/EAI.sol\":8163:8434  function isTimeoutEnded(Timeout memory _timeout, uint32 _accessTime) internal pure onlyValidAccessTime(_accessTime) returns(bool){        \r... */\n      pop\n      swap3\n      swap2\n      pop\n      pop\n      jump\t// out\n        /* \"contracts/lib/eai/EAI.sol\":10865:11410  function uint2String(uint256 value) internal pure returns (string memory) {\r... */\n    tag_55:\n        /* \"contracts/lib/eai/EAI.sol\":10924:10937  string memory */\n      0x60\n        /* \"contracts/lib/eai/EAI.sol\":10973:10974  0 */\n      0x00\n        /* \"contracts/lib/eai/EAI.sol\":10964:10969  value */\n      dup3\n        /* \"contracts/lib/eai/EAI.sol\":10964:10974  value == 0 */\n      eq\n        /* \"contracts/lib/eai/EAI.sol\":10960:11013  if (value == 0) {\r... */\n      iszero\n      tag_68\n      jumpi\n        /* \"contracts/lib/eai/EAI.sol\":10991:11001  return \"0\" */\n      mload(0x40)\n      dup1\n      0x40\n      add\n      0x40\n      mstore\n      dup1\n      0x01\n      dup2\n      mstore\n      0x20\n      add\n      0x3000000000000000000000000000000000000000000000000000000000000000\n      dup2\n      mstore\n      pop\n      swap1\n      pop\n      jump(tag_67)\n        /* \"contracts/lib/eai/EAI.sol\":10960:11013  if (value == 0) {\r... */\n    tag_68:\n        /* \"contracts/lib/eai/EAI.sol\":11023:11035  uint256 temp */\n      0x00\n        /* \"contracts/lib/eai/EAI.sol\":11038:11043  value */\n      dup3\n        /* \"contracts/lib/eai/EAI.sol\":11023:11043  uint256 temp = value */\n      swap1\n      pop\n        /* \"contracts/lib/eai/EAI.sol\":11054:11068  uint256 digits */\n      0x00\n        /* \"contracts/lib/eai/EAI.sol\":11079:11157  while (temp != 0) {\r... */\n    tag_69:\n        /* \"contracts/lib/eai/EAI.sol\":11094:11095  0 */\n      0x00\n        /* \"contracts/lib/eai/EAI.sol\":11086:11090  temp */\n      dup3\n        /* \"contracts/lib/eai/EAI.sol\":11086:11095  temp != 0 */\n      eq\n        /* \"contracts/lib/eai/EAI.sol\":11079:11157  while (temp != 0) {\r... */\n      tag_70\n      jumpi\n        /* \"contracts/lib/eai/EAI.sol\":11112:11120  digits++ */\n      dup1\n      dup1\n      tag_71\n      swap1\n      tag_72\n      jump\t// in\n    tag_71:\n      swap2\n      pop\n      pop\n        /* \"contracts/lib/eai/EAI.sol\":11143:11145  10 */\n      0x0a\n        /* \"contracts/lib/eai/EAI.sol\":11135:11145  temp /= 10 */\n      dup3\n      tag_73\n      swap2\n      swap1\n      tag_74\n      jump\t// in\n    tag_73:\n      swap2\n      pop\n        /* \"contracts/lib/eai/EAI.sol\":11079:11157  while (temp != 0) {\r... */\n      jump(tag_69)\n    tag_70:\n        /* \"contracts/lib/eai/EAI.sol\":11167:11186  bytes memory buffer */\n      0x00\n        /* \"contracts/lib/eai/EAI.sol\":11199:11205  digits */\n      dup2\n        /* \"contracts/lib/eai/EAI.sol\":11189:11206  new bytes(digits) */\n      0xffffffffffffffff\n      dup2\n      gt\n      iszero\n      tag_75\n      jumpi\n      tag_76\n      tag_77\n      jump\t// in\n    tag_76:\n    tag_75:\n      mload(0x40)\n      swap1\n      dup1\n      dup3\n      mstore\n      dup1\n      0x1f\n      add\n      not(0x1f)\n      and\n      0x20\n      add\n      dup3\n      add\n      0x40\n      mstore\n      dup1\n      iszero\n      tag_78\n      jumpi\n      dup2\n      0x20\n      add\n      0x01\n      dup3\n      mul\n      dup1\n      calldatasize\n      dup4\n      calldatacopy\n      dup1\n      dup3\n      add\n      swap2\n      pop\n      pop\n      swap1\n      pop\n    tag_78:\n      pop\n        /* \"contracts/lib/eai/EAI.sol\":11167:11206  bytes memory buffer = new bytes(digits) */\n      swap1\n      pop\n        /* \"contracts/lib/eai/EAI.sol\":11217:11371  while (value != 0) {\r... */\n    tag_79:\n        /* \"contracts/lib/eai/EAI.sol\":11233:11234  0 */\n      0x00\n        /* \"contracts/lib/eai/EAI.sol\":11224:11229  value */\n      dup6\n        /* \"contracts/lib/eai/EAI.sol\":11224:11234  value != 0 */\n      eq\n        /* \"contracts/lib/eai/EAI.sol\":11217:11371  while (value != 0) {\r... */\n      tag_80\n      jumpi\n        /* \"contracts/lib/eai/EAI.sol\":11261:11262  1 */\n      0x01\n        /* \"contracts/lib/eai/EAI.sol\":11251:11262  digits -= 1 */\n      dup3\n      tag_81\n      swap2\n      swap1\n      tag_82\n      jump\t// in\n    tag_81:\n      swap2\n      pop\n        /* \"contracts/lib/eai/EAI.sol\":11328:11330  10 */\n      0x0a\n        /* \"contracts/lib/eai/EAI.sol\":11320:11325  value */\n      dup6\n        /* \"contracts/lib/eai/EAI.sol\":11320:11330  value % 10 */\n      tag_83\n      swap2\n      swap1\n      tag_84\n      jump\t// in\n    tag_83:\n        /* \"contracts/lib/eai/EAI.sol\":11307:11309  48 */\n      0x30\n        /* \"contracts/lib/eai/EAI.sol\":11307:11331  48 + uint256(value % 10) */\n      tag_85\n      swap2\n      swap1\n      tag_86\n      jump\t// in\n    tag_85:\n        /* \"contracts/lib/eai/EAI.sol\":11294:11333  bytes1(uint8(48 + uint256(value % 10))) */\n      0xf8\n      shl\n        /* \"contracts/lib/eai/EAI.sol\":11277:11283  buffer */\n      dup2\n        /* \"contracts/lib/eai/EAI.sol\":11284:11290  digits */\n      dup4\n        /* \"contracts/lib/eai/EAI.sol\":11277:11291  buffer[digits] */\n      dup2\n      mload\n      dup2\n      lt\n      tag_87\n      jumpi\n      tag_88\n      tag_37\n      jump\t// in\n    tag_88:\n    tag_87:\n      0x20\n      add\n      add\n        /* \"contracts/lib/eai/EAI.sol\":11277:11333  buffer[digits] = bytes1(uint8(48 + uint256(value % 10))) */\n      swap1\n      not(0xffffffffffffffffffffffffffffffffffffffffffffffffffffffffffffff)\n      and\n      swap1\n      dup2\n      0x00\n      byte\n      swap1\n      mstore8\n      pop\n        /* \"contracts/lib/eai/EAI.sol\":11357:11359  10 */\n      0x0a\n        /* \"contracts/lib/eai/EAI.sol\":11348:11359  value /= 10 */\n      dup6\n      tag_89\n      swap2\n      swap1\n      tag_74\n      jump\t// in\n    tag_89:\n      swap5\n      pop\n        /* \"contracts/lib/eai/EAI.sol\":11217:11371  while (value != 0) {\r... */\n      jump(tag_79)\n    tag_80:\n        /* \"contracts/lib/eai/EAI.sol\":11395:11401  buffer */\n      dup1\n        /* \"contracts/lib/eai/EAI.sol\":11381:11402  return string(buffer) */\n      swap4\n      pop\n      pop\n      pop\n      pop\n        /* \"contracts/lib/eai/EAI.sol\":10865:11410  function uint2String(uint256 value) internal pure returns (string memory) {\r... */\n    tag_67:\n      swap2\n      swap1\n      pop\n      jump\t// out\n    tag_33:\n      mload(0x40)\n      dup1\n      0x40\n      add\n      0x40\n      mstore\n      dup1\n      and(0xffffffff, 0x00)\n      dup2\n      mstore\n      0x20\n      add\n      and(0xffffffff, 0x00)\n      dup2\n      mstore\n      pop\n      swap1\n      jump\t// out\n        /* \"#utility.yul\":7:146   */\n    tag_91:\n        /* \"#utility.yul\":53:58   */\n      0x00\n        /* \"#utility.yul\":91:97   */\n      dup2\n        /* \"#utility.yul\":78:98   */\n      calldataload\n        /* \"#utility.yul\":69:98   */\n      swap1\n      pop\n        /* \"#utility.yul\":107:140   */\n      tag_93\n        /* \"#utility.yul\":134:139   */\n      dup2\n        /* \"#utility.yul\":107:140   */\n      tag_94\n      jump\t// in\n    tag_93:\n        /* \"#utility.yul\":7:146   */\n      swap3\n      swap2\n      pop\n      pop\n      jump\t// out\n        /* \"#utility.yul\":152:289   */\n    tag_95:\n        /* \"#utility.yul\":197:202   */\n      0x00\n        /* \"#utility.yul\":235:241   */\n      dup2\n        /* \"#utility.yul\":222:242   */\n      calldataload\n        /* \"#utility.yul\":213:242   */\n      swap1\n      pop\n        /* \"#utility.yul\":251:283   */\n      tag_97\n        /* \"#utility.yul\":277:282   */\n      dup2\n        /* \"#utility.yul\":251:283   */\n      tag_98\n      jump\t// in\n    tag_97:\n        /* \"#utility.yul\":152:289   */\n      swap3\n      swap2\n      pop\n      pop\n      jump\t// out\n        /* \"#utility.yul\":295:624   */\n    tag_13:\n        /* \"#utility.yul\":354:360   */\n      0x00\n        /* \"#utility.yul\":403:405   */\n      0x20\n        /* \"#utility.yul\":391:400   */\n      dup3\n        /* \"#utility.yul\":382:389   */\n      dup5\n        /* \"#utility.yul\":378:401   */\n      sub\n        /* \"#utility.yul\":374:406   */\n      slt\n        /* \"#utility.yul\":371:490   */\n      iszero\n      tag_100\n      jumpi\n        /* \"#utility.yul\":409:488   */\n      tag_101\n      tag_102\n      jump\t// in\n    tag_101:\n        /* \"#utility.yul\":371:490   */\n    tag_100:\n        /* \"#utility.yul\":529:530   */\n      0x00\n        /* \"#utility.yul\":554:607   */\n      tag_103\n        /* \"#utility.yul\":599:606   */\n      dup5\n        /* \"#utility.yul\":590:596   */\n      dup3\n        /* \"#utility.yul\":579:588   */\n      dup6\n        /* \"#utility.yul\":575:597   */\n      add\n        /* \"#utility.yul\":554:607   */\n      tag_91\n      jump\t// in\n    tag_103:\n        /* \"#utility.yul\":544:607   */\n      swap2\n      pop\n        /* \"#utility.yul\":500:617   */\n      pop\n        /* \"#utility.yul\":295:624   */\n      swap3\n      swap2\n      pop\n      pop\n      jump\t// out\n        /* \"#utility.yul\":630:1102   */\n    tag_19:\n        /* \"#utility.yul\":697:703   */\n      0x00\n        /* \"#utility.yul\":705:711   */\n      dup1\n        /* \"#utility.yul\":754:756   */\n      0x40\n        /* \"#utility.yul\":742:751   */\n      dup4\n        /* \"#utility.yul\":733:740   */\n      dup6\n        /* \"#utility.yul\":729:752   */\n      sub\n        /* \"#utility.yul\":725:757   */\n      slt\n        /* \"#utility.yul\":722:841   */\n      iszero\n      tag_105\n      jumpi\n        /* \"#utility.yul\":760:839   */\n      tag_106\n      tag_102\n      jump\t// in\n    tag_106:\n        /* \"#utility.yul\":722:841   */\n    tag_105:\n        /* \"#utility.yul\":880:881   */\n      0x00\n        /* \"#utility.yul\":905:958   */\n      tag_107\n        /* \"#utility.yul\":950:957   */\n      dup6\n        /* \"#utility.yul\":941:947   */\n      dup3\n        /* \"#utility.yul\":930:939   */\n      dup7\n        /* \"#utility.yul\":926:948   */\n      add\n        /* \"#utility.yul\":905:958   */\n      tag_91\n      jump\t// in\n    tag_107:\n        /* \"#utility.yul\":895:958   */\n      swap3\n      pop\n        /* \"#utility.yul\":851:968   */\n      pop\n        /* \"#utility.yul\":1007:1009   */\n      0x20\n        /* \"#utility.yul\":1033:1085   */\n      tag_108\n        /* \"#utility.yul\":1077:1084   */\n      dup6\n        /* \"#utility.yul\":1068:1074   */\n      dup3\n        /* \"#utility.yul\":1057:1066   */\n      dup7\n        /* \"#utility.yul\":1053:1075   */\n      add\n        /* \"#utility.yul\":1033:1085   */\n      tag_95\n      jump\t// in\n    tag_108:\n        /* \"#utility.yul\":1023:1085   */\n      swap2\n      pop\n        /* \"#utility.yul\":978:1095   */\n      pop\n        /* \"#utility.yul\":630:1102   */\n      swap3\n      pop\n      swap3\n      swap1\n      pop\n      jump\t// out\n        /* \"#utility.yul\":1108:1578   */\n    tag_23:\n        /* \"#utility.yul\":1174:1180   */\n      0x00\n        /* \"#utility.yul\":1182:1188   */\n      dup1\n        /* \"#utility.yul\":1231:1233   */\n      0x40\n        /* \"#utility.yul\":1219:1228   */\n      dup4\n        /* \"#utility.yul\":1210:1217   */\n      dup6\n        /* \"#utility.yul\":1206:1229   */\n      sub\n        /* \"#utility.yul\":1202:1234   */\n      slt\n        /* \"#utility.yul\":1199:1318   */\n      iszero\n      tag_110\n      jumpi\n        /* \"#utility.yul\":1237:1316   */\n      tag_111\n      tag_102\n      jump\t// in\n    tag_111:\n        /* \"#utility.yul\":1199:1318   */\n    tag_110:\n        /* \"#utility.yul\":1357:1358   */\n      0x00\n        /* \"#utility.yul\":1382:1434   */\n      tag_112\n        /* \"#utility.yul\":1426:1433   */\n      dup6\n        /* \"#utility.yul\":1417:1423   */\n      dup3\n        /* \"#utility.yul\":1406:1415   */\n      dup7\n        /* \"#utility.yul\":1402:1424   */\n      add\n        /* \"#utility.yul\":1382:1434   */\n      tag_95\n      jump\t// in\n    tag_112:\n        /* \"#utility.yul\":1372:1434   */\n      swap3\n      pop\n        /* \"#utility.yul\":1328:1444   */\n      pop\n        /* \"#utility.yul\":1483:1485   */\n      0x20\n        /* \"#utility.yul\":1509:1561   */\n      tag_113\n        /* \"#utility.yul\":1553:1560   */\n      dup6\n        /* \"#utility.yul\":1544:1550   */\n      dup3\n        /* \"#utility.yul\":1533:1542   */\n      dup7\n        /* \"#utility.yul\":1529:1551   */\n      add\n        /* \"#utility.yul\":1509:1561   */\n      tag_95\n      jump\t// in\n    tag_113:\n        /* \"#utility.yul\":1499:1561   */\n      swap2\n      pop\n        /* \"#utility.yul\":1454:1571   */\n      pop\n        /* \"#utility.yul\":1108:1578   */\n      swap3\n      pop\n      swap3\n      swap1\n      pop\n      jump\t// out\n        /* \"#utility.yul\":1584:1859   */\n    tag_114:\n        /* \"#utility.yul\":1701:1711   */\n      0x00\n        /* \"#utility.yul\":1722:1816   */\n      tag_116\n        /* \"#utility.yul\":1812:1815   */\n      dup4\n        /* \"#utility.yul\":1804:1810   */\n      dup4\n        /* \"#utility.yul\":1722:1816   */\n      tag_117\n      jump\t// in\n    tag_116:\n        /* \"#utility.yul\":1848:1852   */\n      0x40\n        /* \"#utility.yul\":1843:1846   */\n      dup4\n        /* \"#utility.yul\":1839:1853   */\n      add\n        /* \"#utility.yul\":1825:1853   */\n      swap1\n      pop\n        /* \"#utility.yul\":1584:1859   */\n      swap3\n      swap2\n      pop\n      pop\n      jump\t// out\n        /* \"#utility.yul\":1917:2841   */\n    tag_118:\n        /* \"#utility.yul\":2084:2087   */\n      0x00\n        /* \"#utility.yul\":2113:2191   */\n      tag_120\n        /* \"#utility.yul\":2185:2190   */\n      dup3\n        /* \"#utility.yul\":2113:2191   */\n      tag_121\n      jump\t// in\n    tag_120:\n        /* \"#utility.yul\":2207:2317   */\n      tag_122\n        /* \"#utility.yul\":2310:2316   */\n      dup2\n        /* \"#utility.yul\":2305:2308   */\n      dup6\n        /* \"#utility.yul\":2207:2317   */\n      tag_123\n      jump\t// in\n    tag_122:\n        /* \"#utility.yul\":2200:2317   */\n      swap4\n      pop\n        /* \"#utility.yul\":2341:2421   */\n      tag_124\n        /* \"#utility.yul\":2415:2420   */\n      dup4\n        /* \"#utility.yul\":2341:2421   */\n      tag_125\n      jump\t// in\n    tag_124:\n        /* \"#utility.yul\":2444:2451   */\n      dup1\n        /* \"#utility.yul\":2475:2476   */\n      0x00\n        /* \"#utility.yul\":2460:2816   */\n    tag_126:\n        /* \"#utility.yul\":2485:2491   */\n      dup4\n        /* \"#utility.yul\":2482:2483   */\n      dup2\n        /* \"#utility.yul\":2479:2492   */\n      lt\n        /* \"#utility.yul\":2460:2816   */\n      iszero\n      tag_128\n      jumpi\n        /* \"#utility.yul\":2561:2567   */\n      dup2\n        /* \"#utility.yul\":2555:2568   */\n      mload\n        /* \"#utility.yul\":2588:2699   */\n      tag_129\n        /* \"#utility.yul\":2695:2698   */\n      dup9\n        /* \"#utility.yul\":2680:2693   */\n      dup3\n        /* \"#utility.yul\":2588:2699   */\n      tag_114\n      jump\t// in\n    tag_129:\n        /* \"#utility.yul\":2581:2699   */\n      swap8\n      pop\n        /* \"#utility.yul\":2722:2806   */\n      tag_130\n        /* \"#utility.yul\":2799:2805   */\n      dup4\n        /* \"#utility.yul\":2722:2806   */\n      tag_131\n      jump\t// in\n    tag_130:\n        /* \"#utility.yul\":2712:2806   */\n      swap3\n      pop\n        /* \"#utility.yul\":2520:2816   */\n      pop\n        /* \"#utility.yul\":2507:2508   */\n      0x01\n        /* \"#utility.yul\":2504:2505   */\n      dup2\n        /* \"#utility.yul\":2500:2509   */\n      add\n        /* \"#utility.yul\":2495:2509   */\n      swap1\n      pop\n        /* \"#utility.yul\":2460:2816   */\n      jump(tag_126)\n    tag_128:\n        /* \"#utility.yul\":2464:2478   */\n      pop\n        /* \"#utility.yul\":2832:2835   */\n      dup6\n        /* \"#utility.yul\":2825:2835   */\n      swap4\n      pop\n        /* \"#utility.yul\":2089:2841   */\n      pop\n      pop\n      pop\n        /* \"#utility.yul\":1917:2841   */\n      swap3\n      swap2\n      pop\n      pop\n      jump\t// out\n        /* \"#utility.yul\":2847:2956   */\n    tag_132:\n        /* \"#utility.yul\":2928:2949   */\n      tag_134\n        /* \"#utility.yul\":2943:2948   */\n      dup2\n        /* \"#utility.yul\":2928:2949   */\n      tag_135\n      jump\t// in\n    tag_134:\n        /* \"#utility.yul\":2923:2926   */\n      dup3\n        /* \"#utility.yul\":2916:2950   */\n      mstore\n        /* \"#utility.yul\":2847:2956   */\n      pop\n      pop\n      jump\t// out\n        /* \"#utility.yul\":2962:3328   */\n    tag_136:\n        /* \"#utility.yul\":3104:3107   */\n      0x00\n        /* \"#utility.yul\":3125:3192   */\n      tag_138\n        /* \"#utility.yul\":3189:3191   */\n      0x22\n        /* \"#utility.yul\":3184:3187   */\n      dup4\n        /* \"#utility.yul\":3125:3192   */\n      tag_139\n      jump\t// in\n    tag_138:\n        /* \"#utility.yul\":3118:3192   */\n      swap2\n      pop\n        /* \"#utility.yul\":3201:3294   */\n      tag_140\n        /* \"#utility.yul\":3290:3293   */\n      dup3\n        /* \"#utility.yul\":3201:3294   */\n      tag_141\n      jump\t// in\n    tag_140:\n        /* \"#utility.yul\":3319:3321   */\n      0x40\n        /* \"#utility.yul\":3314:3317   */\n      dup3\n        /* \"#utility.yul\":3310:3322   */\n      add\n        /* \"#utility.yul\":3303:3322   */\n      swap1\n      pop\n        /* \"#utility.yul\":2962:3328   */\n      swap2\n      swap1\n      pop\n      jump\t// out\n        /* \"#utility.yul\":3382:3885   */\n    tag_117:\n        /* \"#utility.yul\":3517:3521   */\n      0x40\n        /* \"#utility.yul\":3512:3515   */\n      dup3\n        /* \"#utility.yul\":3508:3522   */\n      add\n        /* \"#utility.yul\":3607:3611   */\n      0x00\n        /* \"#utility.yul\":3600:3605   */\n      dup3\n        /* \"#utility.yul\":3596:3612   */\n      add\n        /* \"#utility.yul\":3590:3613   */\n      mload\n        /* \"#utility.yul\":3626:3687   */\n      tag_143\n        /* \"#utility.yul\":3681:3685   */\n      0x00\n        /* \"#utility.yul\":3676:3679   */\n      dup6\n        /* \"#utility.yul\":3672:3686   */\n      add\n        /* \"#utility.yul\":3658:3670   */\n      dup3\n        /* \"#utility.yul\":3626:3687   */\n      tag_144\n      jump\t// in\n    tag_143:\n        /* \"#utility.yul\":3532:3697   */\n      pop\n        /* \"#utility.yul\":3788:3792   */\n      0x20\n        /* \"#utility.yul\":3781:3786   */\n      dup3\n        /* \"#utility.yul\":3777:3793   */\n      add\n        /* \"#utility.yul\":3771:3794   */\n      mload\n        /* \"#utility.yul\":3807:3868   */\n      tag_145\n        /* \"#utility.yul\":3862:3866   */\n      0x20\n        /* \"#utility.yul\":3857:3860   */\n      dup6\n        /* \"#utility.yul\":3853:3867   */\n      add\n        /* \"#utility.yul\":3839:3851   */\n      dup3\n        /* \"#utility.yul\":3807:3868   */\n      tag_144\n      jump\t// in\n    tag_145:\n        /* \"#utility.yul\":3707:3878   */\n      pop\n        /* \"#utility.yul\":3486:3885   */\n      pop\n        /* \"#utility.yul\":3382:3885   */\n      pop\n      pop\n      jump\t// out\n        /* \"#utility.yul\":3939:4452   */\n    tag_146:\n        /* \"#utility.yul\":4084:4088   */\n      0x40\n        /* \"#utility.yul\":4079:4082   */\n      dup3\n        /* \"#utility.yul\":4075:4089   */\n      add\n        /* \"#utility.yul\":4174:4178   */\n      0x00\n        /* \"#utility.yul\":4167:4172   */\n      dup3\n        /* \"#utility.yul\":4163:4179   */\n      add\n        /* \"#utility.yul\":4157:4180   */\n      mload\n        /* \"#utility.yul\":4193:4254   */\n      tag_148\n        /* \"#utility.yul\":4248:4252   */\n      0x00\n        /* \"#utility.yul\":4243:4246   */\n      dup6\n        /* \"#utility.yul\":4239:4253   */\n      add\n        /* \"#utility.yul\":4225:4237   */\n      dup3\n        /* \"#utility.yul\":4193:4254   */\n      tag_144\n      jump\t// in\n    tag_148:\n        /* \"#utility.yul\":4099:4264   */\n      pop\n        /* \"#utility.yul\":4355:4359   */\n      0x20\n        /* \"#utility.yul\":4348:4353   */\n      dup3\n        /* \"#utility.yul\":4344:4360   */\n      add\n        /* \"#utility.yul\":4338:4361   */\n      mload\n        /* \"#utility.yul\":4374:4435   */\n      tag_149\n        /* \"#utility.yul\":4429:4433   */\n      0x20\n        /* \"#utility.yul\":4424:4427   */\n      dup6\n        /* \"#utility.yul\":4420:4434   */\n      add\n        /* \"#utility.yul\":4406:4418   */\n      dup3\n        /* \"#utility.yul\":4374:4435   */\n      tag_144\n      jump\t// in\n    tag_149:\n        /* \"#utility.yul\":4274:4445   */\n      pop\n        /* \"#utility.yul\":4053:4452   */\n      pop\n        /* \"#utility.yul\":3939:4452   */\n      pop\n      pop\n      jump\t// out\n        /* \"#utility.yul\":4458:4563   */\n    tag_144:\n        /* \"#utility.yul\":4533:4556   */\n      tag_151\n        /* \"#utility.yul\":4550:4555   */\n      dup2\n        /* \"#utility.yul\":4533:4556   */\n      tag_152\n      jump\t// in\n    tag_151:\n        /* \"#utility.yul\":4528:4531   */\n      dup3\n        /* \"#utility.yul\":4521:4557   */\n      mstore\n        /* \"#utility.yul\":4458:4563   */\n      pop\n      pop\n      jump\t// out\n        /* \"#utility.yul\":4569:5038   */\n    tag_10:\n        /* \"#utility.yul\":4760:4764   */\n      0x00\n        /* \"#utility.yul\":4798:4800   */\n      0x20\n        /* \"#utility.yul\":4787:4796   */\n      dup3\n        /* \"#utility.yul\":4783:4801   */\n      add\n        /* \"#utility.yul\":4775:4801   */\n      swap1\n      pop\n        /* \"#utility.yul\":4847:4856   */\n      dup2\n        /* \"#utility.yul\":4841:4845   */\n      dup2\n        /* \"#utility.yul\":4837:4857   */\n      sub\n        /* \"#utility.yul\":4833:4834   */\n      0x00\n        /* \"#utility.yul\":4822:4831   */\n      dup4\n        /* \"#utility.yul\":4818:4835   */\n      add\n        /* \"#utility.yul\":4811:4858   */\n      mstore\n        /* \"#utility.yul\":4875:5031   */\n      tag_154\n        /* \"#utility.yul\":5026:5030   */\n      dup2\n        /* \"#utility.yul\":5017:5023   */\n      dup5\n        /* \"#utility.yul\":4875:5031   */\n      tag_118\n      jump\t// in\n    tag_154:\n        /* \"#utility.yul\":4867:5031   */\n      swap1\n      pop\n        /* \"#utility.yul\":4569:5038   */\n      swap3\n      swap2\n      pop\n      pop\n      jump\t// out\n        /* \"#utility.yul\":5044:5254   */\n    tag_26:\n        /* \"#utility.yul\":5131:5135   */\n      0x00\n        /* \"#utility.yul\":5169:5171   */\n      0x20\n        /* \"#utility.yul\":5158:5167   */\n      dup3\n        /* \"#utility.yul\":5154:5172   */\n      add\n        /* \"#utility.yul\":5146:5172   */\n      swap1\n      pop\n        /* \"#utility.yul\":5182:5247   */\n      tag_156\n        /* \"#utility.yul\":5244:5245   */\n      0x00\n        /* \"#utility.yul\":5233:5242   */\n      dup4\n        /* \"#utility.yul\":5229:5246   */\n      add\n        /* \"#utility.yul\":5220:5226   */\n      dup5\n        /* \"#utility.yul\":5182:5247   */\n      tag_132\n      jump\t// in\n    tag_156:\n        /* \"#utility.yul\":5044:5254   */\n      swap3\n      swap2\n      pop\n      pop\n      jump\t// out\n        /* \"#utility.yul\":5260:5679   */\n    tag_66:\n        /* \"#utility.yul\":5426:5430   */\n      0x00\n        /* \"#utility.yul\":5464:5466   */\n      0x20\n        /* \"#utility.yul\":5453:5462   */\n      dup3\n        /* \"#utility.yul\":5449:5467   */\n      add\n        /* \"#utility.yul\":5441:5467   */\n      swap1\n      pop\n        /* \"#utility.yul\":5513:5522   */\n      dup2\n        /* \"#utility.yul\":5507:5511   */\n      dup2\n        /* \"#utility.yul\":5503:5523   */\n      sub\n        /* \"#utility.yul\":5499:5500   */\n      0x00\n        /* \"#utility.yul\":5488:5497   */\n      dup4\n        /* \"#utility.yul\":5484:5501   */\n      add\n        /* \"#utility.yul\":5477:5524   */\n      mstore\n        /* \"#utility.yul\":5541:5672   */\n      tag_158\n        /* \"#utility.yul\":5667:5671   */\n      dup2\n        /* \"#utility.yul\":5541:5672   */\n      tag_136\n      jump\t// in\n    tag_158:\n        /* \"#utility.yul\":5533:5672   */\n      swap1\n      pop\n        /* \"#utility.yul\":5260:5679   */\n      swap2\n      swap1\n      pop\n      jump\t// out\n        /* \"#utility.yul\":5685:6003   */\n    tag_16:\n        /* \"#utility.yul\":5826:5830   */\n      0x00\n        /* \"#utility.yul\":5864:5866   */\n      0x40\n        /* \"#utility.yul\":5853:5862   */\n      dup3\n        /* \"#utility.yul\":5849:5867   */\n      add\n        /* \"#utility.yul\":5841:5867   */\n      swap1\n      pop\n        /* \"#utility.yul\":5877:5996   */\n      tag_160\n        /* \"#utility.yul\":5993:5994   */\n      0x00\n        /* \"#utility.yul\":5982:5991   */\n      dup4\n        /* \"#utility.yul\":5978:5995   */\n      add\n        /* \"#utility.yul\":5969:5975   */\n      dup5\n        /* \"#utility.yul\":5877:5996   */\n      tag_146\n      jump\t// in\n    tag_160:\n        /* \"#utility.yul\":5685:6003   */\n      swap3\n      swap2\n      pop\n      pop\n      jump\t// out\n        /* \"#utility.yul\":6090:6246   */\n    tag_125:\n        /* \"#utility.yul\":6181:6185   */\n      0x00\n        /* \"#utility.yul\":6204:6207   */\n      dup2\n        /* \"#utility.yul\":6196:6207   */\n      swap1\n      pop\n        /* \"#utility.yul\":6234:6238   */\n      0x20\n        /* \"#utility.yul\":6229:6232   */\n      dup3\n        /* \"#utility.yul\":6225:6239   */\n      add\n        /* \"#utility.yul\":6217:6239   */\n      swap1\n      pop\n        /* \"#utility.yul\":6090:6246   */\n      swap2\n      swap1\n      pop\n      jump\t// out\n        /* \"#utility.yul\":6252:6390   */\n    tag_121:\n        /* \"#utility.yul\":6343:6349   */\n      0x00\n        /* \"#utility.yul\":6377:6382   */\n      dup2\n        /* \"#utility.yul\":6371:6383   */\n      mload\n        /* \"#utility.yul\":6361:6383   */\n      swap1\n      pop\n        /* \"#utility.yul\":6252:6390   */\n      swap2\n      swap1\n      pop\n      jump\t// out\n        /* \"#utility.yul\":6396:6533   */\n    tag_131:\n        /* \"#utility.yul\":6490:6494   */\n      0x00\n        /* \"#utility.yul\":6522:6526   */\n      0x20\n        /* \"#utility.yul\":6517:6520   */\n      dup3\n        /* \"#utility.yul\":6513:6527   */\n      add\n        /* \"#utility.yul\":6505:6527   */\n      swap1\n      pop\n        /* \"#utility.yul\":6396:6533   */\n      swap2\n      swap1\n      pop\n      jump\t// out\n        /* \"#utility.yul\":6539:6747   */\n    tag_123:\n        /* \"#utility.yul\":6662:6673   */\n      0x00\n        /* \"#utility.yul\":6696:6702   */\n      dup3\n        /* \"#utility.yul\":6691:6694   */\n      dup3\n        /* \"#utility.yul\":6684:6703   */\n      mstore\n        /* \"#utility.yul\":6736:6740   */\n      0x20\n        /* \"#utility.yul\":6731:6734   */\n      dup3\n        /* \"#utility.yul\":6727:6741   */\n      add\n        /* \"#utility.yul\":6712:6741   */\n      swap1\n      pop\n        /* \"#utility.yul\":6539:6747   */\n      swap3\n      swap2\n      pop\n      pop\n      jump\t// out\n        /* \"#utility.yul\":6753:6922   */\n    tag_139:\n        /* \"#utility.yul\":6837:6848   */\n      0x00\n        /* \"#utility.yul\":6871:6877   */\n      dup3\n        /* \"#utility.yul\":6866:6869   */\n      dup3\n        /* \"#utility.yul\":6859:6878   */\n      mstore\n        /* \"#utility.yul\":6911:6915   */\n      0x20\n        /* \"#utility.yul\":6906:6909   */\n      dup3\n        /* \"#utility.yul\":6902:6916   */\n      add\n        /* \"#utility.yul\":6887:6916   */\n      swap1\n      pop\n        /* \"#utility.yul\":6753:6922   */\n      swap3\n      swap2\n      pop\n      pop\n      jump\t// out\n        /* \"#utility.yul\":6928:7233   */\n    tag_86:\n        /* \"#utility.yul\":6968:6971   */\n      0x00\n        /* \"#utility.yul\":6987:7007   */\n      tag_169\n        /* \"#utility.yul\":7005:7006   */\n      dup3\n        /* \"#utility.yul\":6987:7007   */\n      tag_170\n      jump\t// in\n    tag_169:\n        /* \"#utility.yul\":6982:7007   */\n      swap2\n      pop\n        /* \"#utility.yul\":7021:7041   */\n      tag_171\n        /* \"#utility.yul\":7039:7040   */\n      dup4\n        /* \"#utility.yul\":7021:7041   */\n      tag_170\n      jump\t// in\n    tag_171:\n        /* \"#utility.yul\":7016:7041   */\n      swap3\n      pop\n        /* \"#utility.yul\":7175:7176   */\n      dup3\n        /* \"#utility.yul\":7107:7173   */\n      0xffffffffffffffffffffffffffffffffffffffffffffffffffffffffffffffff\n        /* \"#utility.yul\":7103:7177   */\n      sub\n        /* \"#utility.yul\":7100:7101   */\n      dup3\n        /* \"#utility.yul\":7097:7178   */\n      gt\n        /* \"#utility.yul\":7094:7201   */\n      iszero\n      tag_172\n      jumpi\n        /* \"#utility.yul\":7181:7199   */\n      tag_173\n      tag_174\n      jump\t// in\n    tag_173:\n        /* \"#utility.yul\":7094:7201   */\n    tag_172:\n        /* \"#utility.yul\":7225:7226   */\n      dup3\n        /* \"#utility.yul\":7222:7223   */\n      dup3\n        /* \"#utility.yul\":7218:7227   */\n      add\n        /* \"#utility.yul\":7211:7227   */\n      swap1\n      pop\n        /* \"#utility.yul\":6928:7233   */\n      swap3\n      swap2\n      pop\n      pop\n      jump\t// out\n        /* \"#utility.yul\":7239:7485   */\n    tag_59:\n        /* \"#utility.yul\":7278:7281   */\n      0x00\n        /* \"#utility.yul\":7297:7316   */\n      tag_176\n        /* \"#utility.yul\":7314:7315   */\n      dup3\n        /* \"#utility.yul\":7297:7316   */\n      tag_152\n      jump\t// in\n    tag_176:\n        /* \"#utility.yul\":7292:7316   */\n      swap2\n      pop\n        /* \"#utility.yul\":7330:7349   */\n      tag_177\n        /* \"#utility.yul\":7347:7348   */\n      dup4\n        /* \"#utility.yul\":7330:7349   */\n      tag_152\n      jump\t// in\n    tag_177:\n        /* \"#utility.yul\":7325:7349   */\n      swap3\n      pop\n        /* \"#utility.yul\":7427:7428   */\n      dup3\n        /* \"#utility.yul\":7415:7425   */\n      0xffffffff\n        /* \"#utility.yul\":7411:7429   */\n      sub\n        /* \"#utility.yul\":7408:7409   */\n      dup3\n        /* \"#utility.yul\":7405:7430   */\n      gt\n        /* \"#utility.yul\":7402:7453   */\n      iszero\n      tag_178\n      jumpi\n        /* \"#utility.yul\":7433:7451   */\n      tag_179\n      tag_174\n      jump\t// in\n    tag_179:\n        /* \"#utility.yul\":7402:7453   */\n    tag_178:\n        /* \"#utility.yul\":7477:7478   */\n      dup3\n        /* \"#utility.yul\":7474:7475   */\n      dup3\n        /* \"#utility.yul\":7470:7479   */\n      add\n        /* \"#utility.yul\":7463:7479   */\n      swap1\n      pop\n        /* \"#utility.yul\":7239:7485   */\n      swap3\n      swap2\n      pop\n      pop\n      jump\t// out\n        /* \"#utility.yul\":7491:7676   */\n    tag_74:\n        /* \"#utility.yul\":7531:7532   */\n      0x00\n        /* \"#utility.yul\":7548:7568   */\n      tag_181\n        /* \"#utility.yul\":7566:7567   */\n      dup3\n        /* \"#utility.yul\":7548:7568   */\n      tag_170\n      jump\t// in\n    tag_181:\n        /* \"#utility.yul\":7543:7568   */\n      swap2\n      pop\n        /* \"#utility.yul\":7582:7602   */\n      tag_182\n        /* \"#utility.yul\":7600:7601   */\n      dup4\n        /* \"#utility.yul\":7582:7602   */\n      tag_170\n      jump\t// in\n    tag_182:\n        /* \"#utility.yul\":7577:7602   */\n      swap3\n      pop\n        /* \"#utility.yul\":7621:7622   */\n      dup3\n        /* \"#utility.yul\":7611:7646   */\n      tag_183\n      jumpi\n        /* \"#utility.yul\":7626:7644   */\n      tag_184\n      tag_185\n      jump\t// in\n    tag_184:\n        /* \"#utility.yul\":7611:7646   */\n    tag_183:\n        /* \"#utility.yul\":7668:7669   */\n      dup3\n        /* \"#utility.yul\":7665:7666   */\n      dup3\n        /* \"#utility.yul\":7661:7670   */\n      div\n        /* \"#utility.yul\":7656:7670   */\n      swap1\n      pop\n        /* \"#utility.yul\":7491:7676   */\n      swap3\n      swap2\n      pop\n      pop\n      jump\t// out\n        /* \"#utility.yul\":7682:7873   */\n    tag_82:\n        /* \"#utility.yul\":7722:7726   */\n      0x00\n        /* \"#utility.yul\":7742:7762   */\n      tag_187\n        /* \"#utility.yul\":7760:7761   */\n      dup3\n        /* \"#utility.yul\":7742:7762   */\n      tag_170\n      jump\t// in\n    tag_187:\n        /* \"#utility.yul\":7737:7762   */\n      swap2\n      pop\n        /* \"#utility.yul\":7776:7796   */\n      tag_188\n        /* \"#utility.yul\":7794:7795   */\n      dup4\n        /* \"#utility.yul\":7776:7796   */\n      tag_170\n      jump\t// in\n    tag_188:\n        /* \"#utility.yul\":7771:7796   */\n      swap3\n      pop\n        /* \"#utility.yul\":7815:7816   */\n      dup3\n        /* \"#utility.yul\":7812:7813   */\n      dup3\n        /* \"#utility.yul\":7809:7817   */\n      lt\n        /* \"#utility.yul\":7806:7840   */\n      iszero\n      tag_189\n      jumpi\n        /* \"#utility.yul\":7820:7838   */\n      tag_190\n      tag_174\n      jump\t// in\n    tag_190:\n        /* \"#utility.yul\":7806:7840   */\n    tag_189:\n        /* \"#utility.yul\":7865:7866   */\n      dup3\n        /* \"#utility.yul\":7862:7863   */\n      dup3\n        /* \"#utility.yul\":7858:7867   */\n      sub\n        /* \"#utility.yul\":7850:7867   */\n      swap1\n      pop\n        /* \"#utility.yul\":7682:7873   */\n      swap3\n      swap2\n      pop\n      pop\n      jump\t// out\n        /* \"#utility.yul\":7879:7969   */\n    tag_135:\n        /* \"#utility.yul\":7913:7920   */\n      0x00\n        /* \"#utility.yul\":7956:7961   */\n      dup2\n        /* \"#utility.yul\":7949:7962   */\n      iszero\n        /* \"#utility.yul\":7942:7963   */\n      iszero\n        /* \"#utility.yul\":7931:7963   */\n      swap1\n      pop\n        /* \"#utility.yul\":7879:7969   */\n      swap2\n      swap1\n      pop\n      jump\t// out\n        /* \"#utility.yul\":7975:8052   */\n    tag_170:\n        /* \"#utility.yul\":8012:8019   */\n      0x00\n        /* \"#utility.yul\":8041:8046   */\n      dup2\n        /* \"#utility.yul\":8030:8046   */\n      swap1\n      pop\n        /* \"#utility.yul\":7975:8052   */\n      swap2\n      swap1\n      pop\n      jump\t// out\n        /* \"#utility.yul\":8058:8151   */\n    tag_152:\n        /* \"#utility.yul\":8094:8101   */\n      0x00\n        /* \"#utility.yul\":8134:8144   */\n      0xffffffff\n        /* \"#utility.yul\":8127:8132   */\n      dup3\n        /* \"#utility.yul\":8123:8145   */\n      and\n        /* \"#utility.yul\":8112:8145   */\n      swap1\n      pop\n        /* \"#utility.yul\":8058:8151   */\n      swap2\n      swap1\n      pop\n      jump\t// out\n        /* \"#utility.yul\":8157:8390   */\n    tag_72:\n        /* \"#utility.yul\":8196:8199   */\n      0x00\n        /* \"#utility.yul\":8219:8243   */\n      tag_195\n        /* \"#utility.yul\":8237:8242   */\n      dup3\n        /* \"#utility.yul\":8219:8243   */\n      tag_170\n      jump\t// in\n    tag_195:\n        /* \"#utility.yul\":8210:8243   */\n      swap2\n      pop\n        /* \"#utility.yul\":8265:8331   */\n      0xffffffffffffffffffffffffffffffffffffffffffffffffffffffffffffffff\n        /* \"#utility.yul\":8258:8263   */\n      dup3\n        /* \"#utility.yul\":8255:8332   */\n      eq\n        /* \"#utility.yul\":8252:8355   */\n      iszero\n      tag_196\n      jumpi\n        /* \"#utility.yul\":8335:8353   */\n      tag_197\n      tag_174\n      jump\t// in\n    tag_197:\n        /* \"#utility.yul\":8252:8355   */\n    tag_196:\n        /* \"#utility.yul\":8382:8383   */\n      0x01\n        /* \"#utility.yul\":8375:8380   */\n      dup3\n        /* \"#utility.yul\":8371:8384   */\n      add\n        /* \"#utility.yul\":8364:8384   */\n      swap1\n      pop\n        /* \"#utility.yul\":8157:8390   */\n      swap2\n      swap1\n      pop\n      jump\t// out\n        /* \"#utility.yul\":8396:8572   */\n    tag_84:\n        /* \"#utility.yul\":8428:8429   */\n      0x00\n        /* \"#utility.yul\":8445:8465   */\n      tag_199\n        /* \"#utility.yul\":8463:8464   */\n      dup3\n        /* \"#utility.yul\":8445:8465   */\n      tag_170\n      jump\t// in\n    tag_199:\n        /* \"#utility.yul\":8440:8465   */\n      swap2\n      pop\n        /* \"#utility.yul\":8479:8499   */\n      tag_200\n        /* \"#utility.yul\":8497:8498   */\n      dup4\n        /* \"#utility.yul\":8479:8499   */\n      tag_170\n      jump\t// in\n    tag_200:\n        /* \"#utility.yul\":8474:8499   */\n      swap3\n      pop\n        /* \"#utility.yul\":8518:8519   */\n      dup3\n        /* \"#utility.yul\":8508:8543   */\n      tag_201\n      jumpi\n        /* \"#utility.yul\":8523:8541   */\n      tag_202\n      tag_185\n      jump\t// in\n    tag_202:\n        /* \"#utility.yul\":8508:8543   */\n    tag_201:\n        /* \"#utility.yul\":8564:8565   */\n      dup3\n        /* \"#utility.yul\":8561:8562   */\n      dup3\n        /* \"#utility.yul\":8557:8566   */\n      mod\n        /* \"#utility.yul\":8552:8566   */\n      swap1\n      pop\n        /* \"#utility.yul\":8396:8572   */\n      swap3\n      swap2\n      pop\n      pop\n      jump\t// out\n        /* \"#utility.yul\":8578:8758   */\n    tag_174:\n        /* \"#utility.yul\":8626:8703   */\n      0x4e487b7100000000000000000000000000000000000000000000000000000000\n        /* \"#utility.yul\":8623:8624   */\n      0x00\n        /* \"#utility.yul\":8616:8704   */\n      mstore\n        /* \"#utility.yul\":8723:8727   */\n      0x11\n        /* \"#utility.yul\":8720:8721   */\n      0x04\n        /* \"#utility.yul\":8713:8728   */\n      mstore\n        /* \"#utility.yul\":8747:8751   */\n      0x24\n        /* \"#utility.yul\":8744:8745   */\n      0x00\n        /* \"#utility.yul\":8737:8752   */\n      revert\n        /* \"#utility.yul\":8764:8944   */\n    tag_185:\n        /* \"#utility.yul\":8812:8889   */\n      0x4e487b7100000000000000000000000000000000000000000000000000000000\n        /* \"#utility.yul\":8809:8810   */\n      0x00\n        /* \"#utility.yul\":8802:8890   */\n      mstore\n        /* \"#utility.yul\":8909:8913   */\n      0x12\n        /* \"#utility.yul\":8906:8907   */\n      0x04\n        /* \"#utility.yul\":8899:8914   */\n      mstore\n        /* \"#utility.yul\":8933:8937   */\n      0x24\n        /* \"#utility.yul\":8930:8931   */\n      0x00\n        /* \"#utility.yul\":8923:8938   */\n      revert\n        /* \"#utility.yul\":8950:9130   */\n    tag_37:\n        /* \"#utility.yul\":8998:9075   */\n      0x4e487b7100000000000000000000000000000000000000000000000000000000\n        /* \"#utility.yul\":8995:8996   */\n      0x00\n        /* \"#utility.yul\":8988:9076   */\n      mstore\n        /* \"#utility.yul\":9095:9099   */\n      0x32\n        /* \"#utility.yul\":9092:9093   */\n      0x04\n        /* \"#utility.yul\":9085:9100   */\n      mstore\n        /* \"#utility.yul\":9119:9123   */\n      0x24\n        /* \"#utility.yul\":9116:9117   */\n      0x00\n        /* \"#utility.yul\":9109:9124   */\n      revert\n        /* \"#utility.yul\":9136:9316   */\n    tag_77:\n        /* \"#utility.yul\":9184:9261   */\n      0x4e487b7100000000000000000000000000000000000000000000000000000000\n        /* \"#utility.yul\":9181:9182   */\n      0x00\n        /* \"#utility.yul\":9174:9262   */\n      mstore\n        /* \"#utility.yul\":9281:9285   */\n      0x41\n        /* \"#utility.yul\":9278:9279   */\n      0x04\n        /* \"#utility.yul\":9271:9286   */\n      mstore\n        /* \"#utility.yul\":9305:9309   */\n      0x24\n        /* \"#utility.yul\":9302:9303   */\n      0x00\n        /* \"#utility.yul\":9295:9310   */\n      revert\n        /* \"#utility.yul\":9445:9562   */\n    tag_102:\n        /* \"#utility.yul\":9554:9555   */\n      0x00\n        /* \"#utility.yul\":9551:9552   */\n      dup1\n        /* \"#utility.yul\":9544:9556   */\n      revert\n        /* \"#utility.yul\":9568:9789   */\n    tag_141:\n        /* \"#utility.yul\":9708:9742   */\n      0x5468657265206973206e6f20656e6454696d652073657420696e2074696d656f\n        /* \"#utility.yul\":9704:9705   */\n      0x00\n        /* \"#utility.yul\":9696:9702   */\n      dup3\n        /* \"#utility.yul\":9692:9706   */\n      add\n        /* \"#utility.yul\":9685:9743   */\n      mstore\n        /* \"#utility.yul\":9777:9781   */\n      0x7574000000000000000000000000000000000000000000000000000000000000\n        /* \"#utility.yul\":9772:9774   */\n      0x20\n        /* \"#utility.yul\":9764:9770   */\n      dup3\n        /* \"#utility.yul\":9760:9775   */\n      add\n        /* \"#utility.yul\":9753:9782   */\n      mstore\n        /* \"#utility.yul\":9568:9789   */\n      pop\n      jump\t// out\n        /* \"#utility.yul\":9795:9917   */\n    tag_94:\n        /* \"#utility.yul\":9868:9892   */\n      tag_212\n        /* \"#utility.yul\":9886:9891   */\n      dup2\n        /* \"#utility.yul\":9868:9892   */\n      tag_170\n      jump\t// in\n    tag_212:\n        /* \"#utility.yul\":9861:9866   */\n      dup2\n        /* \"#utility.yul\":9858:9893   */\n      eq\n        /* \"#utility.yul\":9848:9911   */\n      tag_213\n      jumpi\n        /* \"#utility.yul\":9907:9908   */\n      0x00\n        /* \"#utility.yul\":9904:9905   */\n      dup1\n        /* \"#utility.yul\":9897:9909   */\n      revert\n        /* \"#utility.yul\":9848:9911   */\n    tag_213:\n        /* \"#utility.yul\":9795:9917   */\n      pop\n      jump\t// out\n        /* \"#utility.yul\":9923:10043   */\n    tag_98:\n        /* \"#utility.yul\":9995:10018   */\n      tag_215\n        /* \"#utility.yul\":10012:10017   */\n      dup2\n        /* \"#utility.yul\":9995:10018   */\n      tag_152\n      jump\t// in\n    tag_215:\n        /* \"#utility.yul\":9988:9993   */\n      dup2\n        /* \"#utility.yul\":9985:10019   */\n      eq\n        /* \"#utility.yul\":9975:10037   */\n      tag_216\n      jumpi\n        /* \"#utility.yul\":10033:10034   */\n      0x00\n        /* \"#utility.yul\":10030:10031   */\n      dup1\n        /* \"#utility.yul\":10023:10035   */\n      revert\n        /* \"#utility.yul\":9975:10037   */\n    tag_216:\n        /* \"#utility.yul\":9923:10043   */\n      pop\n      jump\t// out\n\n    auxdata: 0xa26469706673582212205b0f5f4de244282b99528aaa4d9b67c20b54a986f69c00f81bfa73f215c57a0e64736f6c63430008070033\n}\n",
				"bytecode": {
					"linkReferences": {},
					"object": "608060405234801561001057600080fd5b506000610027603261012c60201b6102e11760201c565b9080600181540180825580915050600190039060005260206000200160009091909190915060008201518160000160006101000a81548163ffffffff021916908363ffffffff16021790555060208201518160000160046101000a81548163ffffffff021916908363ffffffff160217905550505060006100b2601e61012c60201b6102e11760201c565b9080600181540180825580915050600190039060005260206000200160009091909190915060008201518160000160006101000a81548163ffffffff021916908363ffffffff16021790555060208201518160000160046101000a81548163ffffffff021916908363ffffffff1602179055505050610183565b61013461015d565b6040518060400160405280600063ffffffff1681526020018363ffffffff168152509050919050565b6040518060400160405280600063ffffffff168152602001600063ffffffff1681525090565b610b4a806101926000396000f3fe608060405234801561001057600080fd5b506004361061004c5760003560e01c80631e5dca7f146100515780632286f6511461006f578063233a985f1461009f57806351a9241c146100bb575b600080fd5b6100596100eb565b604051610066919061077f565b60405180910390f35b610089600480360381019061008491906105bd565b610192565b60405161009691906107dc565b60405180910390f35b6100b960048036038101906100b491906105ea565b610216565b005b6100d560048036038101906100d0919061062a565b61024a565b6040516100e291906107a1565b60405180910390f35b60606000805480602002602001604051908101604052809291908181526020016000905b82821015610189578382906000526020600020016040518060400160405290816000820160009054906101000a900463ffffffff1663ffffffff1663ffffffff1681526020016000820160049054906101000a900463ffffffff1663ffffffff1663ffffffff16815250508152602001906001019061010f565b50505050905090565b61019a61056d565b600082815481106101ae576101ad610a34565b5b906000526020600020016040518060400160405290816000820160009054906101000a900463ffffffff1663ffffffff1663ffffffff1681526020016000820160049054906101000a900463ffffffff1663ffffffff1663ffffffff16815250509050919050565b610246816000848154811061022e5761022d610a34565b5b9060005260206000200161031290919063ffffffff16565b5050565b60006102d98260008563ffffffff168154811061026a57610269610a34565b5b906000526020600020016040518060400160405290816000820160009054906101000a900463ffffffff1663ffffffff1663ffffffff1681526020016000820160049054906101000a900463ffffffff1663ffffffff1663ffffffff168152505061037d90919063ffffffff16565b905092915050565b6102e961056d565b6040518060400160405280600063ffffffff1681526020018363ffffffff168152509050919050565b8060006103248263ffffffff1661040c565b9050600a8151111561033557600080fd5b8360000160049054906101000a900463ffffffff16836103559190610897565b8460000160006101000a81548163ffffffff021916908363ffffffff16021790555050505050565b60008160006103918263ffffffff1661040c565b9050600a815111156103a257600080fd5b6000856000015163ffffffff16116103ef576040517f08c379a00000000000000000000000000000000000000000000000000000000081526004016103e6906107bc565b60405180910390fd5b846000015163ffffffff168463ffffffff16119250505092915050565b60606000821415610454576040518060400160405280600181526020017f30000000000000000000000000000000000000000000000000000000000000008152509050610568565b600082905060005b6000821461048657808061046f9061095c565b915050600a8261047f91906108d1565b915061045c565b60008167ffffffffffffffff8111156104a2576104a1610a63565b5b6040519080825280601f01601f1916602001820160405280156104d45781602001600182028036833780820191505090505b5090505b60008514610561576001826104ed9190610902565b9150600a856104fc91906109a5565b60306105089190610841565b60f81b81838151811061051e5761051d610a34565b5b60200101907effffffffffffffffffffffffffffffffffffffffffffffffffffffffffffff1916908160001a905350600a8561055a91906108d1565b94506104d8565b8093505050505b919050565b6040518060400160405280600063ffffffff168152602001600063ffffffff1681525090565b6000813590506105a281610ae6565b92915050565b6000813590506105b781610afd565b92915050565b6000602082840312156105d3576105d2610a92565b5b60006105e184828501610593565b91505092915050565b6000806040838503121561060157610600610a92565b5b600061060f85828601610593565b9250506020610620858286016105a8565b9150509250929050565b6000806040838503121561064157610640610a92565b5b600061064f858286016105a8565b9250506020610660858286016105a8565b9150509250929050565b60006106768383610712565b60408301905092915050565b600061068d82610807565b610697818561081f565b93506106a2836107f7565b8060005b838110156106d35781516106ba888261066a565b97506106c583610812565b9250506001810190506106a6565b5085935050505092915050565b6106e981610936565b82525050565b60006106fc602283610830565b915061070782610a97565b604082019050919050565b6040820160008201516107286000850182610770565b50602082015161073b6020850182610770565b50505050565b6040820160008201516107576000850182610770565b50602082015161076a6020850182610770565b50505050565b6107798161094c565b82525050565b600060208201905081810360008301526107998184610682565b905092915050565b60006020820190506107b660008301846106e0565b92915050565b600060208201905081810360008301526107d5816106ef565b9050919050565b60006040820190506107f16000830184610741565b92915050565b6000819050602082019050919050565b600081519050919050565b6000602082019050919050565b600082825260208201905092915050565b600082825260208201905092915050565b600061084c82610942565b915061085783610942565b9250827fffffffffffffffffffffffffffffffffffffffffffffffffffffffffffffffff0382111561088c5761088b6109d6565b5b828201905092915050565b60006108a28261094c565b91506108ad8361094c565b92508263ffffffff038211156108c6576108c56109d6565b5b828201905092915050565b60006108dc82610942565b91506108e783610942565b9250826108f7576108f6610a05565b5b828204905092915050565b600061090d82610942565b915061091883610942565b92508282101561092b5761092a6109d6565b5b828203905092915050565b60008115159050919050565b6000819050919050565b600063ffffffff82169050919050565b600061096782610942565b91507fffffffffffffffffffffffffffffffffffffffffffffffffffffffffffffffff82141561099a576109996109d6565b5b600182019050919050565b60006109b082610942565b91506109bb83610942565b9250826109cb576109ca610a05565b5b828206905092915050565b7f4e487b7100000000000000000000000000000000000000000000000000000000600052601160045260246000fd5b7f4e487b7100000000000000000000000000000000000000000000000000000000600052601260045260246000fd5b7f4e487b7100000000000000000000000000000000000000000000000000000000600052603260045260246000fd5b7f4e487b7100000000000000000000000000000000000000000000000000000000600052604160045260246000fd5b600080fd5b7f5468657265206973206e6f20656e6454696d652073657420696e2074696d656f60008201527f7574000000000000000000000000000000000000000000000000000000000000602082015250565b610aef81610942565b8114610afa57600080fd5b50565b610b068161094c565b8114610b1157600080fd5b5056fea26469706673582212205b0f5f4de244282b99528aaa4d9b67c20b54a986f69c00f81bfa73f215c57a0e64736f6c63430008070033",
					"opcodes": "PUSH1 0x80 PUSH1 0x40 MSTORE CALLVALUE DUP1 ISZERO PUSH2 0x10 JUMPI PUSH1 0x0 DUP1 REVERT JUMPDEST POP PUSH1 0x0 PUSH2 0x27 PUSH1 0x32 PUSH2 0x12C PUSH1 0x20 SHL PUSH2 0x2E1 OR PUSH1 0x20 SHR JUMP JUMPDEST SWAP1 DUP1 PUSH1 0x1 DUP2 SLOAD ADD DUP1 DUP3 SSTORE DUP1 SWAP2 POP POP PUSH1 0x1 SWAP1 SUB SWAP1 PUSH1 0x0 MSTORE PUSH1 0x20 PUSH1 0x0 KECCAK256 ADD PUSH1 0x0 SWAP1 SWAP2 SWAP1 SWAP2 SWAP1 SWAP2 POP PUSH1 0x0 DUP3 ADD MLOAD DUP2 PUSH1 0x0 ADD PUSH1 0x0 PUSH2 0x100 EXP DUP2 SLOAD DUP2 PUSH4 0xFFFFFFFF MUL NOT AND SWAP1 DUP4 PUSH4 0xFFFFFFFF AND MUL OR SWAP1 SSTORE POP PUSH1 0x20 DUP3 ADD MLOAD DUP2 PUSH1 0x0 ADD PUSH1 0x4 PUSH2 0x100 EXP DUP2 SLOAD DUP2 PUSH4 0xFFFFFFFF MUL NOT AND SWAP1 DUP4 PUSH4 0xFFFFFFFF AND MUL OR SWAP1 SSTORE POP POP POP PUSH1 0x0 PUSH2 0xB2 PUSH1 0x1E PUSH2 0x12C PUSH1 0x20 SHL PUSH2 0x2E1 OR PUSH1 0x20 SHR JUMP JUMPDEST SWAP1 DUP1 PUSH1 0x1 DUP2 SLOAD ADD DUP1 DUP3 SSTORE DUP1 SWAP2 POP POP PUSH1 0x1 SWAP1 SUB SWAP1 PUSH1 0x0 MSTORE PUSH1 0x20 PUSH1 0x0 KECCAK256 ADD PUSH1 0x0 SWAP1 SWAP2 SWAP1 SWAP2 SWAP1 SWAP2 POP PUSH1 0x0 DUP3 ADD MLOAD DUP2 PUSH1 0x0 ADD PUSH1 0x0 PUSH2 0x100 EXP DUP2 SLOAD DUP2 PUSH4 0xFFFFFFFF MUL NOT AND SWAP1 DUP4 PUSH4 0xFFFFFFFF AND MUL OR SWAP1 SSTORE POP PUSH1 0x20 DUP3 ADD MLOAD DUP2 PUSH1 0x0 ADD PUSH1 0x4 PUSH2 0x100 EXP DUP2 SLOAD DUP2 PUSH4 0xFFFFFFFF MUL NOT AND SWAP1 DUP4 PUSH4 0xFFFFFFFF AND MUL OR SWAP1 SSTORE POP POP POP PUSH2 0x183 JUMP JUMPDEST PUSH2 0x134 PUSH2 0x15D JUMP JUMPDEST PUSH1 0x40 MLOAD DUP1 PUSH1 0x40 ADD PUSH1 0x40 MSTORE DUP1 PUSH1 0x0 PUSH4 0xFFFFFFFF AND DUP2 MSTORE PUSH1 0x20 ADD DUP4 PUSH4 0xFFFFFFFF AND DUP2 MSTORE POP SWAP1 POP SWAP2 SWAP1 POP JUMP JUMPDEST PUSH1 0x40 MLOAD DUP1 PUSH1 0x40 ADD PUSH1 0x40 MSTORE DUP1 PUSH1 0x0 PUSH4 0xFFFFFFFF AND DUP2 MSTORE PUSH1 0x20 ADD PUSH1 0x0 PUSH4 0xFFFFFFFF AND DUP2 MSTORE POP SWAP1 JUMP JUMPDEST PUSH2 0xB4A DUP1 PUSH2 0x192 PUSH1 0x0 CODECOPY PUSH1 0x0 RETURN INVALID PUSH1 0x80 PUSH1 0x40 MSTORE CALLVALUE DUP1 ISZERO PUSH2 0x10 JUMPI PUSH1 0x0 DUP1 REVERT JUMPDEST POP PUSH1 0x4 CALLDATASIZE LT PUSH2 0x4C JUMPI PUSH1 0x0 CALLDATALOAD PUSH1 0xE0 SHR DUP1 PUSH4 0x1E5DCA7F EQ PUSH2 0x51 JUMPI DUP1 PUSH4 0x2286F651 EQ PUSH2 0x6F JUMPI DUP1 PUSH4 0x233A985F EQ PUSH2 0x9F JUMPI DUP1 PUSH4 0x51A9241C EQ PUSH2 0xBB JUMPI JUMPDEST PUSH1 0x0 DUP1 REVERT JUMPDEST PUSH2 0x59 PUSH2 0xEB JUMP JUMPDEST PUSH1 0x40 MLOAD PUSH2 0x66 SWAP2 SWAP1 PUSH2 0x77F JUMP JUMPDEST PUSH1 0x40 MLOAD DUP1 SWAP2 SUB SWAP1 RETURN JUMPDEST PUSH2 0x89 PUSH1 0x4 DUP1 CALLDATASIZE SUB DUP2 ADD SWAP1 PUSH2 0x84 SWAP2 SWAP1 PUSH2 0x5BD JUMP JUMPDEST PUSH2 0x192 JUMP JUMPDEST PUSH1 0x40 MLOAD PUSH2 0x96 SWAP2 SWAP1 PUSH2 0x7DC JUMP JUMPDEST PUSH1 0x40 MLOAD DUP1 SWAP2 SUB SWAP1 RETURN JUMPDEST PUSH2 0xB9 PUSH1 0x4 DUP1 CALLDATASIZE SUB DUP2 ADD SWAP1 PUSH2 0xB4 SWAP2 SWAP1 PUSH2 0x5EA JUMP JUMPDEST PUSH2 0x216 JUMP JUMPDEST STOP JUMPDEST PUSH2 0xD5 PUSH1 0x4 DUP1 CALLDATASIZE SUB DUP2 ADD SWAP1 PUSH2 0xD0 SWAP2 SWAP1 PUSH2 0x62A JUMP JUMPDEST PUSH2 0x24A JUMP JUMPDEST PUSH1 0x40 MLOAD PUSH2 0xE2 SWAP2 SWAP1 PUSH2 0x7A1 JUMP JUMPDEST PUSH1 0x40 MLOAD DUP1 SWAP2 SUB SWAP1 RETURN JUMPDEST PUSH1 0x60 PUSH1 0x0 DUP1 SLOAD DUP1 PUSH1 0x20 MUL PUSH1 0x20 ADD PUSH1 0x40 MLOAD SWAP1 DUP2 ADD PUSH1 0x40 MSTORE DUP1 SWAP3 SWAP2 SWAP1 DUP2 DUP2 MSTORE PUSH1 0x20 ADD PUSH1 0x0 SWAP1 JUMPDEST DUP3 DUP3 LT ISZERO PUSH2 0x189 JUMPI DUP4 DUP3 SWAP1 PUSH1 0x0 MSTORE PUSH1 0x20 PUSH1 0x0 KECCAK256 ADD PUSH1 0x40 MLOAD DUP1 PUSH1 0x40 ADD PUSH1 0x40 MSTORE SWAP1 DUP2 PUSH1 0x0 DUP3 ADD PUSH1 0x0 SWAP1 SLOAD SWAP1 PUSH2 0x100 EXP SWAP1 DIV PUSH4 0xFFFFFFFF AND PUSH4 0xFFFFFFFF AND PUSH4 0xFFFFFFFF AND DUP2 MSTORE PUSH1 0x20 ADD PUSH1 0x0 DUP3 ADD PUSH1 0x4 SWAP1 SLOAD SWAP1 PUSH2 0x100 EXP SWAP1 DIV PUSH4 0xFFFFFFFF AND PUSH4 0xFFFFFFFF AND PUSH4 0xFFFFFFFF AND DUP2 MSTORE POP POP DUP2 MSTORE PUSH1 0x20 ADD SWAP1 PUSH1 0x1 ADD SWAP1 PUSH2 0x10F JUMP JUMPDEST POP POP POP POP SWAP1 POP SWAP1 JUMP JUMPDEST PUSH2 0x19A PUSH2 0x56D JUMP JUMPDEST PUSH1 0x0 DUP3 DUP2 SLOAD DUP2 LT PUSH2 0x1AE JUMPI PUSH2 0x1AD PUSH2 0xA34 JUMP JUMPDEST JUMPDEST SWAP1 PUSH1 0x0 MSTORE PUSH1 0x20 PUSH1 0x0 KECCAK256 ADD PUSH1 0x40 MLOAD DUP1 PUSH1 0x40 ADD PUSH1 0x40 MSTORE SWAP1 DUP2 PUSH1 0x0 DUP3 ADD PUSH1 0x0 SWAP1 SLOAD SWAP1 PUSH2 0x100 EXP SWAP1 DIV PUSH4 0xFFFFFFFF AND PUSH4 0xFFFFFFFF AND PUSH4 0xFFFFFFFF AND DUP2 MSTORE PUSH1 0x20 ADD PUSH1 0x0 DUP3 ADD PUSH1 0x4 SWAP1 SLOAD SWAP1 PUSH2 0x100 EXP SWAP1 DIV PUSH4 0xFFFFFFFF AND PUSH4 0xFFFFFFFF AND PUSH4 0xFFFFFFFF AND DUP2 MSTORE POP POP SWAP1 POP SWAP2 SWAP1 POP JUMP JUMPDEST PUSH2 0x246 DUP2 PUSH1 0x0 DUP5 DUP2 SLOAD DUP2 LT PUSH2 0x22E JUMPI PUSH2 0x22D PUSH2 0xA34 JUMP JUMPDEST JUMPDEST SWAP1 PUSH1 0x0 MSTORE PUSH1 0x20 PUSH1 0x0 KECCAK256 ADD PUSH2 0x312 SWAP1 SWAP2 SWAP1 PUSH4 0xFFFFFFFF AND JUMP JUMPDEST POP POP JUMP JUMPDEST PUSH1 0x0 PUSH2 0x2D9 DUP3 PUSH1 0x0 DUP6 PUSH4 0xFFFFFFFF AND DUP2 SLOAD DUP2 LT PUSH2 0x26A JUMPI PUSH2 0x269 PUSH2 0xA34 JUMP JUMPDEST JUMPDEST SWAP1 PUSH1 0x0 MSTORE PUSH1 0x20 PUSH1 0x0 KECCAK256 ADD PUSH1 0x40 MLOAD DUP1 PUSH1 0x40 ADD PUSH1 0x40 MSTORE SWAP1 DUP2 PUSH1 0x0 DUP3 ADD PUSH1 0x0 SWAP1 SLOAD SWAP1 PUSH2 0x100 EXP SWAP1 DIV PUSH4 0xFFFFFFFF AND PUSH4 0xFFFFFFFF AND PUSH4 0xFFFFFFFF AND DUP2 MSTORE PUSH1 0x20 ADD PUSH1 0x0 DUP3 ADD PUSH1 0x4 SWAP1 SLOAD SWAP1 PUSH2 0x100 EXP SWAP1 DIV PUSH4 0xFFFFFFFF AND PUSH4 0xFFFFFFFF AND PUSH4 0xFFFFFFFF AND DUP2 MSTORE POP POP PUSH2 0x37D SWAP1 SWAP2 SWAP1 PUSH4 0xFFFFFFFF AND JUMP JUMPDEST SWAP1 POP SWAP3 SWAP2 POP POP JUMP JUMPDEST PUSH2 0x2E9 PUSH2 0x56D JUMP JUMPDEST PUSH1 0x40 MLOAD DUP1 PUSH1 0x40 ADD PUSH1 0x40 MSTORE DUP1 PUSH1 0x0 PUSH4 0xFFFFFFFF AND DUP2 MSTORE PUSH1 0x20 ADD DUP4 PUSH4 0xFFFFFFFF AND DUP2 MSTORE POP SWAP1 POP SWAP2 SWAP1 POP JUMP JUMPDEST DUP1 PUSH1 0x0 PUSH2 0x324 DUP3 PUSH4 0xFFFFFFFF AND PUSH2 0x40C JUMP JUMPDEST SWAP1 POP PUSH1 0xA DUP2 MLOAD GT ISZERO PUSH2 0x335 JUMPI PUSH1 0x0 DUP1 REVERT JUMPDEST DUP4 PUSH1 0x0 ADD PUSH1 0x4 SWAP1 SLOAD SWAP1 PUSH2 0x100 EXP SWAP1 DIV PUSH4 0xFFFFFFFF AND DUP4 PUSH2 0x355 SWAP2 SWAP1 PUSH2 0x897 JUMP JUMPDEST DUP5 PUSH1 0x0 ADD PUSH1 0x0 PUSH2 0x100 EXP DUP2 SLOAD DUP2 PUSH4 0xFFFFFFFF MUL NOT AND SWAP1 DUP4 PUSH4 0xFFFFFFFF AND MUL OR SWAP1 SSTORE POP POP POP POP POP JUMP JUMPDEST PUSH1 0x0 DUP2 PUSH1 0x0 PUSH2 0x391 DUP3 PUSH4 0xFFFFFFFF AND PUSH2 0x40C JUMP JUMPDEST SWAP1 POP PUSH1 0xA DUP2 MLOAD GT ISZERO PUSH2 0x3A2 JUMPI PUSH1 0x0 DUP1 REVERT JUMPDEST PUSH1 0x0 DUP6 PUSH1 0x0 ADD MLOAD PUSH4 0xFFFFFFFF AND GT PUSH2 0x3EF JUMPI PUSH1 0x40 MLOAD PUSH32 0x8C379A000000000000000000000000000000000000000000000000000000000 DUP2 MSTORE PUSH1 0x4 ADD PUSH2 0x3E6 SWAP1 PUSH2 0x7BC JUMP JUMPDEST PUSH1 0x40 MLOAD DUP1 SWAP2 SUB SWAP1 REVERT JUMPDEST DUP5 PUSH1 0x0 ADD MLOAD PUSH4 0xFFFFFFFF AND DUP5 PUSH4 0xFFFFFFFF AND GT SWAP3 POP POP POP SWAP3 SWAP2 POP POP JUMP JUMPDEST PUSH1 0x60 PUSH1 0x0 DUP3 EQ ISZERO PUSH2 0x454 JUMPI PUSH1 0x40 MLOAD DUP1 PUSH1 0x40 ADD PUSH1 0x40 MSTORE DUP1 PUSH1 0x1 DUP2 MSTORE PUSH1 0x20 ADD PUSH32 0x3000000000000000000000000000000000000000000000000000000000000000 DUP2 MSTORE POP SWAP1 POP PUSH2 0x568 JUMP JUMPDEST PUSH1 0x0 DUP3 SWAP1 POP PUSH1 0x0 JUMPDEST PUSH1 0x0 DUP3 EQ PUSH2 0x486 JUMPI DUP1 DUP1 PUSH2 0x46F SWAP1 PUSH2 0x95C JUMP JUMPDEST SWAP2 POP POP PUSH1 0xA DUP3 PUSH2 0x47F SWAP2 SWAP1 PUSH2 0x8D1 JUMP JUMPDEST SWAP2 POP PUSH2 0x45C JUMP JUMPDEST PUSH1 0x0 DUP2 PUSH8 0xFFFFFFFFFFFFFFFF DUP2 GT ISZERO PUSH2 0x4A2 JUMPI PUSH2 0x4A1 PUSH2 0xA63 JUMP JUMPDEST JUMPDEST PUSH1 0x40 MLOAD SWAP1 DUP1 DUP3 MSTORE DUP1 PUSH1 0x1F ADD PUSH1 0x1F NOT AND PUSH1 0x20 ADD DUP3 ADD PUSH1 0x40 MSTORE DUP1 ISZERO PUSH2 0x4D4 JUMPI DUP2 PUSH1 0x20 ADD PUSH1 0x1 DUP3 MUL DUP1 CALLDATASIZE DUP4 CALLDATACOPY DUP1 DUP3 ADD SWAP2 POP POP SWAP1 POP JUMPDEST POP SWAP1 POP JUMPDEST PUSH1 0x0 DUP6 EQ PUSH2 0x561 JUMPI PUSH1 0x1 DUP3 PUSH2 0x4ED SWAP2 SWAP1 PUSH2 0x902 JUMP JUMPDEST SWAP2 POP PUSH1 0xA DUP6 PUSH2 0x4FC SWAP2 SWAP1 PUSH2 0x9A5 JUMP JUMPDEST PUSH1 0x30 PUSH2 0x508 SWAP2 SWAP1 PUSH2 0x841 JUMP JUMPDEST PUSH1 0xF8 SHL DUP2 DUP4 DUP2 MLOAD DUP2 LT PUSH2 0x51E JUMPI PUSH2 0x51D PUSH2 0xA34 JUMP JUMPDEST JUMPDEST PUSH1 0x20 ADD ADD SWAP1 PUSH31 0xFFFFFFFFFFFFFFFFFFFFFFFFFFFFFFFFFFFFFFFFFFFFFFFFFFFFFFFFFFFFFF NOT AND SWAP1 DUP2 PUSH1 0x0 BYTE SWAP1 MSTORE8 POP PUSH1 0xA DUP6 PUSH2 0x55A SWAP2 SWAP1 PUSH2 0x8D1 JUMP JUMPDEST SWAP5 POP PUSH2 0x4D8 JUMP JUMPDEST DUP1 SWAP4 POP POP POP POP JUMPDEST SWAP2 SWAP1 POP JUMP JUMPDEST PUSH1 0x40 MLOAD DUP1 PUSH1 0x40 ADD PUSH1 0x40 MSTORE DUP1 PUSH1 0x0 PUSH4 0xFFFFFFFF AND DUP2 MSTORE PUSH1 0x20 ADD PUSH1 0x0 PUSH4 0xFFFFFFFF AND DUP2 MSTORE POP SWAP1 JUMP JUMPDEST PUSH1 0x0 DUP2 CALLDATALOAD SWAP1 POP PUSH2 0x5A2 DUP2 PUSH2 0xAE6 JUMP JUMPDEST SWAP3 SWAP2 POP POP JUMP JUMPDEST PUSH1 0x0 DUP2 CALLDATALOAD SWAP1 POP PUSH2 0x5B7 DUP2 PUSH2 0xAFD JUMP JUMPDEST SWAP3 SWAP2 POP POP JUMP JUMPDEST PUSH1 0x0 PUSH1 0x20 DUP3 DUP5 SUB SLT ISZERO PUSH2 0x5D3 JUMPI PUSH2 0x5D2 PUSH2 0xA92 JUMP JUMPDEST JUMPDEST PUSH1 0x0 PUSH2 0x5E1 DUP5 DUP3 DUP6 ADD PUSH2 0x593 JUMP JUMPDEST SWAP2 POP POP SWAP3 SWAP2 POP POP JUMP JUMPDEST PUSH1 0x0 DUP1 PUSH1 0x40 DUP4 DUP6 SUB SLT ISZERO PUSH2 0x601 JUMPI PUSH2 0x600 PUSH2 0xA92 JUMP JUMPDEST JUMPDEST PUSH1 0x0 PUSH2 0x60F DUP6 DUP3 DUP7 ADD PUSH2 0x593 JUMP JUMPDEST SWAP3 POP POP PUSH1 0x20 PUSH2 0x620 DUP6 DUP3 DUP7 ADD PUSH2 0x5A8 JUMP JUMPDEST SWAP2 POP POP SWAP3 POP SWAP3 SWAP1 POP JUMP JUMPDEST PUSH1 0x0 DUP1 PUSH1 0x40 DUP4 DUP6 SUB SLT ISZERO PUSH2 0x641 JUMPI PUSH2 0x640 PUSH2 0xA92 JUMP JUMPDEST JUMPDEST PUSH1 0x0 PUSH2 0x64F DUP6 DUP3 DUP7 ADD PUSH2 0x5A8 JUMP JUMPDEST SWAP3 POP POP PUSH1 0x20 PUSH2 0x660 DUP6 DUP3 DUP7 ADD PUSH2 0x5A8 JUMP JUMPDEST SWAP2 POP POP SWAP3 POP SWAP3 SWAP1 POP JUMP JUMPDEST PUSH1 0x0 PUSH2 0x676 DUP4 DUP4 PUSH2 0x712 JUMP JUMPDEST PUSH1 0x40 DUP4 ADD SWAP1 POP SWAP3 SWAP2 POP POP JUMP JUMPDEST PUSH1 0x0 PUSH2 0x68D DUP3 PUSH2 0x807 JUMP JUMPDEST PUSH2 0x697 DUP2 DUP6 PUSH2 0x81F JUMP JUMPDEST SWAP4 POP PUSH2 0x6A2 DUP4 PUSH2 0x7F7 JUMP JUMPDEST DUP1 PUSH1 0x0 JUMPDEST DUP4 DUP2 LT ISZERO PUSH2 0x6D3 JUMPI DUP2 MLOAD PUSH2 0x6BA DUP9 DUP3 PUSH2 0x66A JUMP JUMPDEST SWAP8 POP PUSH2 0x6C5 DUP4 PUSH2 0x812 JUMP JUMPDEST SWAP3 POP POP PUSH1 0x1 DUP2 ADD SWAP1 POP PUSH2 0x6A6 JUMP JUMPDEST POP DUP6 SWAP4 POP POP POP POP SWAP3 SWAP2 POP POP JUMP JUMPDEST PUSH2 0x6E9 DUP2 PUSH2 0x936 JUMP JUMPDEST DUP3 MSTORE POP POP JUMP JUMPDEST PUSH1 0x0 PUSH2 0x6FC PUSH1 0x22 DUP4 PUSH2 0x830 JUMP JUMPDEST SWAP2 POP PUSH2 0x707 DUP3 PUSH2 0xA97 JUMP JUMPDEST PUSH1 0x40 DUP3 ADD SWAP1 POP SWAP2 SWAP1 POP JUMP JUMPDEST PUSH1 0x40 DUP3 ADD PUSH1 0x0 DUP3 ADD MLOAD PUSH2 0x728 PUSH1 0x0 DUP6 ADD DUP3 PUSH2 0x770 JUMP JUMPDEST POP PUSH1 0x20 DUP3 ADD MLOAD PUSH2 0x73B PUSH1 0x20 DUP6 ADD DUP3 PUSH2 0x770 JUMP JUMPDEST POP POP POP POP JUMP JUMPDEST PUSH1 0x40 DUP3 ADD PUSH1 0x0 DUP3 ADD MLOAD PUSH2 0x757 PUSH1 0x0 DUP6 ADD DUP3 PUSH2 0x770 JUMP JUMPDEST POP PUSH1 0x20 DUP3 ADD MLOAD PUSH2 0x76A PUSH1 0x20 DUP6 ADD DUP3 PUSH2 0x770 JUMP JUMPDEST POP POP POP POP JUMP JUMPDEST PUSH2 0x779 DUP2 PUSH2 0x94C JUMP JUMPDEST DUP3 MSTORE POP POP JUMP JUMPDEST PUSH1 0x0 PUSH1 0x20 DUP3 ADD SWAP1 POP DUP2 DUP2 SUB PUSH1 0x0 DUP4 ADD MSTORE PUSH2 0x799 DUP2 DUP5 PUSH2 0x682 JUMP JUMPDEST SWAP1 POP SWAP3 SWAP2 POP POP JUMP JUMPDEST PUSH1 0x0 PUSH1 0x20 DUP3 ADD SWAP1 POP PUSH2 0x7B6 PUSH1 0x0 DUP4 ADD DUP5 PUSH2 0x6E0 JUMP JUMPDEST SWAP3 SWAP2 POP POP JUMP JUMPDEST PUSH1 0x0 PUSH1 0x20 DUP3 ADD SWAP1 POP DUP2 DUP2 SUB PUSH1 0x0 DUP4 ADD MSTORE PUSH2 0x7D5 DUP2 PUSH2 0x6EF JUMP JUMPDEST SWAP1 POP SWAP2 SWAP1 POP JUMP JUMPDEST PUSH1 0x0 PUSH1 0x40 DUP3 ADD SWAP1 POP PUSH2 0x7F1 PUSH1 0x0 DUP4 ADD DUP5 PUSH2 0x741 JUMP JUMPDEST SWAP3 SWAP2 POP POP JUMP JUMPDEST PUSH1 0x0 DUP2 SWAP1 POP PUSH1 0x20 DUP3 ADD SWAP1 POP SWAP2 SWAP1 POP JUMP JUMPDEST PUSH1 0x0 DUP2 MLOAD SWAP1 POP SWAP2 SWAP1 POP JUMP JUMPDEST PUSH1 0x0 PUSH1 0x20 DUP3 ADD SWAP1 POP SWAP2 SWAP1 POP JUMP JUMPDEST PUSH1 0x0 DUP3 DUP3 MSTORE PUSH1 0x20 DUP3 ADD SWAP1 POP SWAP3 SWAP2 POP POP JUMP JUMPDEST PUSH1 0x0 DUP3 DUP3 MSTORE PUSH1 0x20 DUP3 ADD SWAP1 POP SWAP3 SWAP2 POP POP JUMP JUMPDEST PUSH1 0x0 PUSH2 0x84C DUP3 PUSH2 0x942 JUMP JUMPDEST SWAP2 POP PUSH2 0x857 DUP4 PUSH2 0x942 JUMP JUMPDEST SWAP3 POP DUP3 PUSH32 0xFFFFFFFFFFFFFFFFFFFFFFFFFFFFFFFFFFFFFFFFFFFFFFFFFFFFFFFFFFFFFFFF SUB DUP3 GT ISZERO PUSH2 0x88C JUMPI PUSH2 0x88B PUSH2 0x9D6 JUMP JUMPDEST JUMPDEST DUP3 DUP3 ADD SWAP1 POP SWAP3 SWAP2 POP POP JUMP JUMPDEST PUSH1 0x0 PUSH2 0x8A2 DUP3 PUSH2 0x94C JUMP JUMPDEST SWAP2 POP PUSH2 0x8AD DUP4 PUSH2 0x94C JUMP JUMPDEST SWAP3 POP DUP3 PUSH4 0xFFFFFFFF SUB DUP3 GT ISZERO PUSH2 0x8C6 JUMPI PUSH2 0x8C5 PUSH2 0x9D6 JUMP JUMPDEST JUMPDEST DUP3 DUP3 ADD SWAP1 POP SWAP3 SWAP2 POP POP JUMP JUMPDEST PUSH1 0x0 PUSH2 0x8DC DUP3 PUSH2 0x942 JUMP JUMPDEST SWAP2 POP PUSH2 0x8E7 DUP4 PUSH2 0x942 JUMP JUMPDEST SWAP3 POP DUP3 PUSH2 0x8F7 JUMPI PUSH2 0x8F6 PUSH2 0xA05 JUMP JUMPDEST JUMPDEST DUP3 DUP3 DIV SWAP1 POP SWAP3 SWAP2 POP POP JUMP JUMPDEST PUSH1 0x0 PUSH2 0x90D DUP3 PUSH2 0x942 JUMP JUMPDEST SWAP2 POP PUSH2 0x918 DUP4 PUSH2 0x942 JUMP JUMPDEST SWAP3 POP DUP3 DUP3 LT ISZERO PUSH2 0x92B JUMPI PUSH2 0x92A PUSH2 0x9D6 JUMP JUMPDEST JUMPDEST DUP3 DUP3 SUB SWAP1 POP SWAP3 SWAP2 POP POP JUMP JUMPDEST PUSH1 0x0 DUP2 ISZERO ISZERO SWAP1 POP SWAP2 SWAP1 POP JUMP JUMPDEST PUSH1 0x0 DUP2 SWAP1 POP SWAP2 SWAP1 POP JUMP JUMPDEST PUSH1 0x0 PUSH4 0xFFFFFFFF DUP3 AND SWAP1 POP SWAP2 SWAP1 POP JUMP JUMPDEST PUSH1 0x0 PUSH2 0x967 DUP3 PUSH2 0x942 JUMP JUMPDEST SWAP2 POP PUSH32 0xFFFFFFFFFFFFFFFFFFFFFFFFFFFFFFFFFFFFFFFFFFFFFFFFFFFFFFFFFFFFFFFF DUP3 EQ ISZERO PUSH2 0x99A JUMPI PUSH2 0x999 PUSH2 0x9D6 JUMP JUMPDEST JUMPDEST PUSH1 0x1 DUP3 ADD SWAP1 POP SWAP2 SWAP1 POP JUMP JUMPDEST PUSH1 0x0 PUSH2 0x9B0 DUP3 PUSH2 0x942 JUMP JUMPDEST SWAP2 POP PUSH2 0x9BB DUP4 PUSH2 0x942 JUMP JUMPDEST SWAP3 POP DUP3 PUSH2 0x9CB JUMPI PUSH2 0x9CA PUSH2 0xA05 JUMP JUMPDEST JUMPDEST DUP3 DUP3 MOD SWAP1 POP SWAP3 SWAP2 POP POP JUMP JUMPDEST PUSH32 0x4E487B7100000000000000000000000000000000000000000000000000000000 PUSH1 0x0 MSTORE PUSH1 0x11 PUSH1 0x4 MSTORE PUSH1 0x24 PUSH1 0x0 REVERT JUMPDEST PUSH32 0x4E487B7100000000000000000000000000000000000000000000000000000000 PUSH1 0x0 MSTORE PUSH1 0x12 PUSH1 0x4 MSTORE PUSH1 0x24 PUSH1 0x0 REVERT JUMPDEST PUSH32 0x4E487B7100000000000000000000000000000000000000000000000000000000 PUSH1 0x0 MSTORE PUSH1 0x32 PUSH1 0x4 MSTORE PUSH1 0x24 PUSH1 0x0 REVERT JUMPDEST PUSH32 0x4E487B7100000000000000000000000000000000000000000000000000000000 PUSH1 0x0 MSTORE PUSH1 0x41 PUSH1 0x4 MSTORE PUSH1 0x24 PUSH1 0x0 REVERT JUMPDEST PUSH1 0x0 DUP1 REVERT JUMPDEST PUSH32 0x5468657265206973206E6F20656E6454696D652073657420696E2074696D656F PUSH1 0x0 DUP3 ADD MSTORE PUSH32 0x7574000000000000000000000000000000000000000000000000000000000000 PUSH1 0x20 DUP3 ADD MSTORE POP JUMP JUMPDEST PUSH2 0xAEF DUP2 PUSH2 0x942 JUMP JUMPDEST DUP2 EQ PUSH2 0xAFA JUMPI PUSH1 0x0 DUP1 REVERT JUMPDEST POP JUMP JUMPDEST PUSH2 0xB06 DUP2 PUSH2 0x94C JUMP JUMPDEST DUP2 EQ PUSH2 0xB11 JUMPI PUSH1 0x0 DUP1 REVERT JUMPDEST POP JUMP INVALID LOG2 PUSH5 0x6970667358 0x22 SLT KECCAK256 JUMPDEST 0xF 0x5F 0x4D 0xE2 DIFFICULTY 0x28 0x2B SWAP10 MSTORE DUP11 0xAA 0x4D SWAP12 PUSH8 0xC20B54A986F69C00 0xF8 SHL STATICCALL PUSH20 0xF215C57A0E64736F6C6343000807003300000000 "
				},
				"gasEstimates": {
					"creation": {
						"codeDepositCost": "578000",
						"executionCost": "infinite",
						"totalCost": "infinite"
					},
					"external": {
						"getAllTimeouts()": "infinite",
						"getOneTimeout(uint256)": "infinite",
						"isTimeoutEnded(uint32,uint32)": "infinite",
						"setTimeoutEnd(uint256,uint32)": "infinite"
					}
				},
				"methodIdentifiers": {
					"getAllTimeouts()": "1e5dca7f",
					"getOneTimeout(uint256)": "2286f651",
					"isTimeoutEnded(uint32,uint32)": "51a9241c",
					"setTimeoutEnd(uint256,uint32)": "233a985f"
				}
			},
			"storageLayout": {
				"storage": [
					{
						"astId": 975,
						"contract": "contracts/lib/referencesCode-eai/Timeout_refCod.sol:Timeout_refCod",
						"label": "timeout",
						"offset": 0,
						"slot": "0",
						"type": "t_array(t_struct(Timeout)573_storage)dyn_storage"
					}
				],
				"types": {
					"t_array(t_struct(Timeout)573_storage)dyn_storage": {
						"base": "t_struct(Timeout)573_storage",
						"encoding": "dynamic_array",
						"label": "struct EAI.Timeout[]",
						"numberOfBytes": "32"
					},
					"t_struct(Timeout)573_storage": {
						"encoding": "inplace",
						"label": "struct EAI.Timeout",
						"members": [
							{
								"astId": 570,
								"contract": "contracts/lib/referencesCode-eai/Timeout_refCod.sol:Timeout_refCod",
								"label": "endTime",
								"offset": 0,
								"slot": "0",
								"type": "t_uint32"
							},
							{
								"astId": 572,
								"contract": "contracts/lib/referencesCode-eai/Timeout_refCod.sol:Timeout_refCod",
								"label": "timeIncrement",
								"offset": 4,
								"slot": "0",
								"type": "t_uint32"
							}
						],
						"numberOfBytes": "32"
					},
					"t_uint32": {
						"encoding": "inplace",
						"label": "uint32",
						"numberOfBytes": "4"
					}
				}
			},
			"userdoc": {
				"kind": "user",
				"methods": {},
				"version": 1
			}
		}
	}
}