{
	"contracts/lib/referencesCode-eai/Timeout_refCod.sol": {
		"Timeout_refCod": {
			"abi": [
				{
					"inputs": [],
					"stateMutability": "nonpayable",
					"type": "constructor"
				},
				{
					"inputs": [],
					"name": "getAllTimeouts",
					"outputs": [
						{
							"components": [
								{
									"internalType": "uint32",
									"name": "endTime",
									"type": "uint32"
								},
								{
									"internalType": "uint32",
									"name": "timeIncrement",
									"type": "uint32"
								}
							],
							"internalType": "struct EAI.Timeout[]",
							"name": "",
							"type": "tuple[]"
						}
					],
					"stateMutability": "view",
					"type": "function"
				},
				{
					"inputs": [
						{
							"internalType": "uint256",
							"name": "_id",
							"type": "uint256"
						}
					],
					"name": "getOneTimeout",
					"outputs": [
						{
							"components": [
								{
									"internalType": "uint32",
									"name": "endTime",
									"type": "uint32"
								},
								{
									"internalType": "uint32",
									"name": "timeIncrement",
									"type": "uint32"
								}
							],
							"internalType": "struct EAI.Timeout",
							"name": "",
							"type": "tuple"
						}
					],
					"stateMutability": "view",
					"type": "function"
				},
				{
					"inputs": [
						{
							"internalType": "uint32",
							"name": "_idTimeout",
							"type": "uint32"
						},
						{
							"internalType": "uint32",
							"name": "_accessTime",
							"type": "uint32"
						}
					],
					"name": "isTimeoutEnded",
					"outputs": [
						{
							"internalType": "bool",
							"name": "",
							"type": "bool"
						}
					],
					"stateMutability": "view",
					"type": "function"
				},
				{
					"inputs": [
						{
							"internalType": "uint256",
							"name": "_idTimeout",
							"type": "uint256"
						},
						{
							"internalType": "uint32",
							"name": "_startTime",
							"type": "uint32"
						}
					],
					"name": "setTimeoutEnd",
					"outputs": [],
					"stateMutability": "nonpayable",
					"type": "function"
				}
			],
			"devdoc": {
				"kind": "dev",
				"methods": {},
				"version": 1
			},
			"evm": {
				"assembly": "    /* \"contracts/lib/referencesCode-eai/Timeout_refCod.sol\":175:927  contract  Timeout_refCod{... */\n  mstore(0x40, 0x80)\n    /* \"contracts/lib/referencesCode-eai/Timeout_refCod.sol\":269:382  constructor(){... */\n  callvalue\n  dup1\n  iszero\n  tag_1\n  jumpi\n  0x00\n  dup1\n  revert\ntag_1:\n  pop\n    /* \"contracts/lib/referencesCode-eai/Timeout_refCod.sol\":293:300  timeout */\n  0x00\n    /* \"contracts/lib/referencesCode-eai/Timeout_refCod.sol\":306:327  EAI.createTimeout(50) */\n  tag_4\n    /* \"contracts/lib/referencesCode-eai/Timeout_refCod.sol\":324:326  50 */\n  0x32\n    /* \"contracts/lib/referencesCode-eai/Timeout_refCod.sol\":306:323  EAI.createTimeout */\n  or(tag_0_27, shl(0x20, tag_5))\n    /* \"contracts/lib/referencesCode-eai/Timeout_refCod.sol\":306:327  EAI.createTimeout(50) */\n  0x20\n  shr\n  jump\t// in\ntag_4:\n    /* \"contracts/lib/referencesCode-eai/Timeout_refCod.sol\":293:328  timeout.push(EAI.createTimeout(50)) */\n  swap1\n  dup1\n  0x01\n  dup2\n  sload\n  add\n  dup1\n  dup3\n  sstore\n  dup1\n  swap2\n  pop\n  pop\n  0x01\n  swap1\n  sub\n  swap1\n  0x00\n  mstore\n  keccak256(0x00, 0x20)\n  add\n  0x00\n  swap1\n  swap2\n  swap1\n  swap2\n  swap1\n  swap2\n  pop\n  0x00\n  dup3\n  add\n  mload\n  dup2\n  0x00\n  add\n  exp(0x0100, 0x00)\n  dup2\n  sload\n  dup2\n  0xffffffff\n  mul\n  not\n  and\n  swap1\n  dup4\n  0xffffffff\n  and\n  mul\n  or\n  swap1\n  sstore\n  pop\n  0x20\n  dup3\n  add\n  mload\n  dup2\n  0x00\n  add\n  exp(0x0100, 0x04)\n  dup2\n  sload\n  dup2\n  0xffffffff\n  mul\n  not\n  and\n  swap1\n  dup4\n  0xffffffff\n  and\n  mul\n  or\n  swap1\n  sstore\n  pop\n  pop\n  pop\n    /* \"contracts/lib/referencesCode-eai/Timeout_refCod.sol\":339:346  timeout */\n  0x00\n    /* \"contracts/lib/referencesCode-eai/Timeout_refCod.sol\":352:373  EAI.createTimeout(30) */\n  tag_7\n    /* \"contracts/lib/referencesCode-eai/Timeout_refCod.sol\":370:372  30 */\n  0x1e\n    /* \"contracts/lib/referencesCode-eai/Timeout_refCod.sol\":352:369  EAI.createTimeout */\n  or(tag_0_27, shl(0x20, tag_5))\n    /* \"contracts/lib/referencesCode-eai/Timeout_refCod.sol\":352:373  EAI.createTimeout(30) */\n  0x20\n  shr\n  jump\t// in\ntag_7:\n    /* \"contracts/lib/referencesCode-eai/Timeout_refCod.sol\":339:374  timeout.push(EAI.createTimeout(30)) */\n  swap1\n  dup1\n  0x01\n  dup2\n  sload\n  add\n  dup1\n  dup3\n  sstore\n  dup1\n  swap2\n  pop\n  pop\n  0x01\n  swap1\n  sub\n  swap1\n  0x00\n  mstore\n  keccak256(0x00, 0x20)\n  add\n  0x00\n  swap1\n  swap2\n  swap1\n  swap2\n  swap1\n  swap2\n  pop\n  0x00\n  dup3\n  add\n  mload\n  dup2\n  0x00\n  add\n  exp(0x0100, 0x00)\n  dup2\n  sload\n  dup2\n  0xffffffff\n  mul\n  not\n  and\n  swap1\n  dup4\n  0xffffffff\n  and\n  mul\n  or\n  swap1\n  sstore\n  pop\n  0x20\n  dup3\n  add\n  mload\n  dup2\n  0x00\n  add\n  exp(0x0100, 0x04)\n  dup2\n  sload\n  dup2\n  0xffffffff\n  mul\n  not\n  and\n  swap1\n  dup4\n  0xffffffff\n  and\n  mul\n  or\n  swap1\n  sstore\n  pop\n  pop\n  pop\n    /* \"contracts/lib/referencesCode-eai/Timeout_refCod.sol\":175:927  contract  Timeout_refCod{... */\n  jump(tag_9)\n    /* \"contracts/lib/eai/EAI.sol\":8014:8151  function createTimeout(uint32 _timeIncrement) internal pure returns (Timeout memory ){... */\ntag_5:\n    /* \"contracts/lib/eai/EAI.sol\":8083:8097  Timeout memory */\n  tag_10\n  tag_11\n  jump\t// in\ntag_10:\n    /* \"contracts/lib/eai/EAI.sol\":8117:8143  Timeout(0, _timeIncrement) */\n  mload(0x40)\n  dup1\n  0x40\n  add\n  0x40\n  mstore\n  dup1\n    /* \"contracts/lib/eai/EAI.sol\":8125:8126  0 */\n  0x00\n    /* \"contracts/lib/eai/EAI.sol\":8117:8143  Timeout(0, _timeIncrement) */\n  0xffffffff\n  and\n  dup2\n  mstore\n  0x20\n  add\n    /* \"contracts/lib/eai/EAI.sol\":8128:8142  _timeIncrement */\n  dup4\n    /* \"contracts/lib/eai/EAI.sol\":8117:8143  Timeout(0, _timeIncrement) */\n  0xffffffff\n  and\n  dup2\n  mstore\n  pop\n    /* \"contracts/lib/eai/EAI.sol\":8110:8143  return Timeout(0, _timeIncrement) */\n  swap1\n  pop\n    /* \"contracts/lib/eai/EAI.sol\":8014:8151  function createTimeout(uint32 _timeIncrement) internal pure returns (Timeout memory ){... */\n  swap2\n  swap1\n  pop\n  jump\t// out\n    /* \"contracts/lib/referencesCode-eai/Timeout_refCod.sol\":175:927  contract  Timeout_refCod{... */\ntag_11:\n  mload(0x40)\n  dup1\n  0x40\n  add\n  0x40\n  mstore\n  dup1\n  and(0xffffffff, 0x00)\n  dup2\n  mstore\n  0x20\n  add\n  and(0xffffffff, 0x00)\n  dup2\n  mstore\n  pop\n  swap1\n  jump\t// out\ntag_9:\n  dataSize(sub_0)\n  dup1\n  dataOffset(sub_0)\n  0x00\n  codecopy\n  0x00\n  return\nstop\n\nsub_0: assembly {\n        /* \"contracts/lib/referencesCode-eai/Timeout_refCod.sol\":175:927  contract  Timeout_refCod{... */\n      mstore(0x40, 0x80)\n      callvalue\n      dup1\n      iszero\n      tag_1\n      jumpi\n      0x00\n      dup1\n      revert\n    tag_1:\n      pop\n      jumpi(tag_2, lt(calldatasize, 0x04))\n      shr(0xe0, calldataload(0x00))\n      dup1\n      0x1e5dca7f\n      eq\n      tag_3\n      jumpi\n      dup1\n      0x2286f651\n      eq\n      tag_4\n      jumpi\n      dup1\n      0x233a985f\n      eq\n      tag_5\n      jumpi\n      dup1\n      0x51a9241c\n      eq\n      tag_6\n      jumpi\n    tag_2:\n      0x00\n      dup1\n      revert\n        /* \"contracts/lib/referencesCode-eai/Timeout_refCod.sol\":824:924  function getAllTimeouts() public view returns(EAI.Timeout[] memory){... */\n    tag_3:\n      tag_7\n      tag_8\n      jump\t// in\n    tag_7:\n      mload(0x40)\n      tag_9\n      swap2\n      swap1\n      tag_10\n      jump\t// in\n    tag_9:\n      mload(0x40)\n      dup1\n      swap2\n      sub\n      swap1\n      return\n        /* \"contracts/lib/referencesCode-eai/Timeout_refCod.sol\":702:812  function getOneTimeout(uint _id) public view returns(EAI.Timeout memory){... */\n    tag_4:\n      tag_11\n      0x04\n      dup1\n      calldatasize\n      sub\n      dup2\n      add\n      swap1\n      tag_12\n      swap2\n      swap1\n      tag_13\n      jump\t// in\n    tag_12:\n      tag_14\n      jump\t// in\n    tag_11:\n      mload(0x40)\n      tag_15\n      swap2\n      swap1\n      tag_16\n      jump\t// in\n    tag_15:\n      mload(0x40)\n      dup1\n      swap2\n      sub\n      swap1\n      return\n        /* \"contracts/lib/referencesCode-eai/Timeout_refCod.sol\":390:525  function setTimeoutEnd(uint _idTimeout, uint32 _startTime) public {... */\n    tag_5:\n      tag_17\n      0x04\n      dup1\n      calldatasize\n      sub\n      dup2\n      add\n      swap1\n      tag_18\n      swap2\n      swap1\n      tag_19\n      jump\t// in\n    tag_18:\n      tag_20\n      jump\t// in\n    tag_17:\n      stop\n        /* \"contracts/lib/referencesCode-eai/Timeout_refCod.sol\":533:694  function isTimeoutEnded(uint32 _idTimeout, uint32 _accessTime)public view returns(bool){... */\n    tag_6:\n      tag_21\n      0x04\n      dup1\n      calldatasize\n      sub\n      dup2\n      add\n      swap1\n      tag_22\n      swap2\n      swap1\n      tag_23\n      jump\t// in\n    tag_22:\n      tag_24\n      jump\t// in\n    tag_21:\n      mload(0x40)\n      tag_25\n      swap2\n      swap1\n      tag_26\n      jump\t// in\n    tag_25:\n      mload(0x40)\n      dup1\n      swap2\n      sub\n      swap1\n      return\n        /* \"contracts/lib/referencesCode-eai/Timeout_refCod.sol\":824:924  function getAllTimeouts() public view returns(EAI.Timeout[] memory){... */\n    tag_8:\n        /* \"contracts/lib/referencesCode-eai/Timeout_refCod.sol\":870:890  EAI.Timeout[] memory */\n      0x60\n        /* \"contracts/lib/referencesCode-eai/Timeout_refCod.sol\":909:916  timeout */\n      0x00\n        /* \"contracts/lib/referencesCode-eai/Timeout_refCod.sol\":902:916  return timeout */\n      dup1\n      sload\n      dup1\n      0x20\n      mul\n      0x20\n      add\n      mload(0x40)\n      swap1\n      dup2\n      add\n      0x40\n      mstore\n      dup1\n      swap3\n      swap2\n      swap1\n      dup2\n      dup2\n      mstore\n      0x20\n      add\n      0x00\n      swap1\n    tag_29:\n      dup3\n      dup3\n      lt\n      iszero\n      tag_30\n      jumpi\n      dup4\n      dup3\n      swap1\n      0x00\n      mstore\n      keccak256(0x00, 0x20)\n      add\n      mload(0x40)\n      dup1\n      0x40\n      add\n      0x40\n      mstore\n      swap1\n      dup2\n      0x00\n      dup3\n      add\n      0x00\n      swap1\n      sload\n      swap1\n      0x0100\n      exp\n      swap1\n      div\n      0xffffffff\n      and\n      0xffffffff\n      and\n      0xffffffff\n      and\n      dup2\n      mstore\n      0x20\n      add\n      0x00\n      dup3\n      add\n      0x04\n      swap1\n      sload\n      swap1\n      0x0100\n      exp\n      swap1\n      div\n      0xffffffff\n      and\n      0xffffffff\n      and\n      0xffffffff\n      and\n      dup2\n      mstore\n      pop\n      pop\n      dup2\n      mstore\n      0x20\n      add\n      swap1\n      0x01\n      add\n      swap1\n      jump(tag_29)\n    tag_30:\n      pop\n      pop\n      pop\n      pop\n      swap1\n      pop\n        /* \"contracts/lib/referencesCode-eai/Timeout_refCod.sol\":824:924  function getAllTimeouts() public view returns(EAI.Timeout[] memory){... */\n      swap1\n      jump\t// out\n        /* \"contracts/lib/referencesCode-eai/Timeout_refCod.sol\":702:812  function getOneTimeout(uint _id) public view returns(EAI.Timeout memory){... */\n    tag_14:\n        /* \"contracts/lib/referencesCode-eai/Timeout_refCod.sol\":755:773  EAI.Timeout memory */\n      tag_32\n      tag_33\n      jump\t// in\n    tag_32:\n        /* \"contracts/lib/referencesCode-eai/Timeout_refCod.sol\":792:799  timeout */\n      0x00\n        /* \"contracts/lib/referencesCode-eai/Timeout_refCod.sol\":800:803  _id */\n      dup3\n        /* \"contracts/lib/referencesCode-eai/Timeout_refCod.sol\":792:804  timeout[_id] */\n      dup2\n      sload\n      dup2\n      lt\n      tag_35\n      jumpi\n      tag_36\n      tag_37\n      jump\t// in\n    tag_36:\n    tag_35:\n      swap1\n      0x00\n      mstore\n      keccak256(0x00, 0x20)\n      add\n        /* \"contracts/lib/referencesCode-eai/Timeout_refCod.sol\":785:804  return timeout[_id] */\n      mload(0x40)\n      dup1\n      0x40\n      add\n      0x40\n      mstore\n      swap1\n      dup2\n      0x00\n      dup3\n      add\n      0x00\n      swap1\n      sload\n      swap1\n      0x0100\n      exp\n      swap1\n      div\n      0xffffffff\n      and\n      0xffffffff\n      and\n      0xffffffff\n      and\n      dup2\n      mstore\n      0x20\n      add\n      0x00\n      dup3\n      add\n      0x04\n      swap1\n      sload\n      swap1\n      0x0100\n      exp\n      swap1\n      div\n      0xffffffff\n      and\n      0xffffffff\n      and\n      0xffffffff\n      and\n      dup2\n      mstore\n      pop\n      pop\n      swap1\n      pop\n        /* \"contracts/lib/referencesCode-eai/Timeout_refCod.sol\":702:812  function getOneTimeout(uint _id) public view returns(EAI.Timeout memory){... */\n      swap2\n      swap1\n      pop\n      jump\t// out\n        /* \"contracts/lib/referencesCode-eai/Timeout_refCod.sol\":390:525  function setTimeoutEnd(uint _idTimeout, uint32 _startTime) public {... */\n    tag_20:\n        /* \"contracts/lib/referencesCode-eai/Timeout_refCod.sol\":466:517  timeout[_idTimeout].setEndTimeInTimeout(_startTime) */\n      tag_40\n        /* \"contracts/lib/referencesCode-eai/Timeout_refCod.sol\":506:516  _startTime */\n      dup2\n        /* \"contracts/lib/referencesCode-eai/Timeout_refCod.sol\":466:473  timeout */\n      0x00\n        /* \"contracts/lib/referencesCode-eai/Timeout_refCod.sol\":474:484  _idTimeout */\n      dup5\n        /* \"contracts/lib/referencesCode-eai/Timeout_refCod.sol\":466:485  timeout[_idTimeout] */\n      dup2\n      sload\n      dup2\n      lt\n      tag_41\n      jumpi\n      tag_42\n      tag_37\n      jump\t// in\n    tag_42:\n    tag_41:\n      swap1\n      0x00\n      mstore\n      keccak256(0x00, 0x20)\n      add\n        /* \"contracts/lib/referencesCode-eai/Timeout_refCod.sol\":466:505  timeout[_idTimeout].setEndTimeInTimeout */\n      tag_44\n      swap1\n        /* \"contracts/lib/referencesCode-eai/Timeout_refCod.sol\":466:517  timeout[_idTimeout].setEndTimeInTimeout(_startTime) */\n      swap2\n      swap1\n      0xffffffff\n      and\n      jump\t// in\n    tag_40:\n        /* \"contracts/lib/referencesCode-eai/Timeout_refCod.sol\":390:525  function setTimeoutEnd(uint _idTimeout, uint32 _startTime) public {... */\n      pop\n      pop\n      jump\t// out\n        /* \"contracts/lib/referencesCode-eai/Timeout_refCod.sol\":533:694  function isTimeoutEnded(uint32 _idTimeout, uint32 _accessTime)public view returns(bool){... */\n    tag_24:\n        /* \"contracts/lib/referencesCode-eai/Timeout_refCod.sol\":615:619  bool */\n      0x00\n        /* \"contracts/lib/referencesCode-eai/Timeout_refCod.sol\":639:686  timeout[_idTimeout].isTimeoutEnded(_accessTime) */\n      tag_46\n        /* \"contracts/lib/referencesCode-eai/Timeout_refCod.sol\":674:685  _accessTime */\n      dup3\n        /* \"contracts/lib/referencesCode-eai/Timeout_refCod.sol\":639:646  timeout */\n      0x00\n        /* \"contracts/lib/referencesCode-eai/Timeout_refCod.sol\":647:657  _idTimeout */\n      dup6\n        /* \"contracts/lib/referencesCode-eai/Timeout_refCod.sol\":639:658  timeout[_idTimeout] */\n      0xffffffff\n      and\n      dup2\n      sload\n      dup2\n      lt\n      tag_47\n      jumpi\n      tag_48\n      tag_37\n      jump\t// in\n    tag_48:\n    tag_47:\n      swap1\n      0x00\n      mstore\n      keccak256(0x00, 0x20)\n      add\n        /* \"contracts/lib/referencesCode-eai/Timeout_refCod.sol\":639:673  timeout[_idTimeout].isTimeoutEnded */\n      mload(0x40)\n      dup1\n      0x40\n      add\n      0x40\n      mstore\n      swap1\n      dup2\n      0x00\n      dup3\n      add\n      0x00\n      swap1\n      sload\n      swap1\n      0x0100\n      exp\n      swap1\n      div\n      0xffffffff\n      and\n      0xffffffff\n      and\n      0xffffffff\n      and\n      dup2\n      mstore\n      0x20\n      add\n      0x00\n      dup3\n      add\n      0x04\n      swap1\n      sload\n      swap1\n      0x0100\n      exp\n      swap1\n      div\n      0xffffffff\n      and\n      0xffffffff\n      and\n      0xffffffff\n      and\n      dup2\n      mstore\n      pop\n      pop\n      tag_50\n      swap1\n        /* \"contracts/lib/referencesCode-eai/Timeout_refCod.sol\":639:686  timeout[_idTimeout].isTimeoutEnded(_accessTime) */\n      swap2\n      swap1\n      0xffffffff\n      and\n      jump\t// in\n    tag_46:\n        /* \"contracts/lib/referencesCode-eai/Timeout_refCod.sol\":631:686  return  timeout[_idTimeout].isTimeoutEnded(_accessTime) */\n      swap1\n      pop\n        /* \"contracts/lib/referencesCode-eai/Timeout_refCod.sol\":533:694  function isTimeoutEnded(uint32 _idTimeout, uint32 _accessTime)public view returns(bool){... */\n      swap3\n      swap2\n      pop\n      pop\n      jump\t// out\n        /* \"contracts/lib/eai/EAI.sol\":8014:8151  function createTimeout(uint32 _timeIncrement) internal pure returns (Timeout memory ){... */\n    tag_27:\n        /* \"contracts/lib/eai/EAI.sol\":8083:8097  Timeout memory */\n      tag_51\n      tag_33\n      jump\t// in\n    tag_51:\n        /* \"contracts/lib/eai/EAI.sol\":8117:8143  Timeout(0, _timeIncrement) */\n      mload(0x40)\n      dup1\n      0x40\n      add\n      0x40\n      mstore\n      dup1\n        /* \"contracts/lib/eai/EAI.sol\":8125:8126  0 */\n      0x00\n        /* \"contracts/lib/eai/EAI.sol\":8117:8143  Timeout(0, _timeIncrement) */\n      0xffffffff\n      and\n      dup2\n      mstore\n      0x20\n      add\n        /* \"contracts/lib/eai/EAI.sol\":8128:8142  _timeIncrement */\n      dup4\n        /* \"contracts/lib/eai/EAI.sol\":8117:8143  Timeout(0, _timeIncrement) */\n      0xffffffff\n      and\n      dup2\n      mstore\n      pop\n        /* \"contracts/lib/eai/EAI.sol\":8110:8143  return Timeout(0, _timeIncrement) */\n      swap1\n      pop\n        /* \"contracts/lib/eai/EAI.sol\":8014:8151  function createTimeout(uint32 _timeIncrement) internal pure returns (Timeout memory ){... */\n      swap2\n      swap1\n      pop\n      jump\t// out\n        /* \"contracts/lib/eai/EAI.sol\":8442:8635  function setEndTimeInTimeout(Timeout storage _timeout, uint32 _startTime)internal onlyValidAccessTime(_startTime){      ... */\n    tag_44:\n        /* \"contracts/lib/eai/EAI.sol\":8544:8554  _startTime */\n      dup1\n        /* \"contracts/lib/eai/EAI.sol\":8696:8717  string memory strTime */\n      0x00\n        /* \"contracts/lib/eai/EAI.sol\":8721:8739  uint2String(_time) */\n      tag_54\n        /* \"contracts/lib/eai/EAI.sol\":8733:8738  _time */\n      dup3\n        /* \"contracts/lib/eai/EAI.sol\":8721:8739  uint2String(_time) */\n      0xffffffff\n      and\n        /* \"contracts/lib/eai/EAI.sol\":8721:8732  uint2String */\n      tag_55\n        /* \"contracts/lib/eai/EAI.sol\":8721:8739  uint2String(_time) */\n      jump\t// in\n    tag_54:\n        /* \"contracts/lib/eai/EAI.sol\":8696:8739  string memory strTime  = uint2String(_time) */\n      swap1\n      pop\n        /* \"contracts/lib/eai/EAI.sol\":8783:8785  10 */\n      0x0a\n        /* \"contracts/lib/eai/EAI.sol\":8764:8771  strTime */\n      dup2\n        /* \"contracts/lib/eai/EAI.sol\":8758:8779  bytes(strTime).length */\n      mload\n        /* \"contracts/lib/eai/EAI.sol\":8758:8785  bytes(strTime).length <= 10 */\n      gt\n      iszero\n        /* \"contracts/lib/eai/EAI.sol\":8750:8786  require(bytes(strTime).length <= 10) */\n      tag_56\n      jumpi\n      0x00\n      dup1\n      revert\n    tag_56:\n        /* \"contracts/lib/eai/EAI.sol\":8604:8612  _timeout */\n      dup4\n        /* \"contracts/lib/eai/EAI.sol\":8604:8626  _timeout.timeIncrement */\n      0x00\n      add\n      0x04\n      swap1\n      sload\n      swap1\n      0x0100\n      exp\n      swap1\n      div\n      0xffffffff\n      and\n        /* \"contracts/lib/eai/EAI.sol\":8591:8601  _startTime */\n      dup4\n        /* \"contracts/lib/eai/EAI.sol\":8591:8626  _startTime + _timeout.timeIncrement */\n      tag_58\n      swap2\n      swap1\n      tag_59\n      jump\t// in\n    tag_58:\n        /* \"contracts/lib/eai/EAI.sol\":8572:8580  _timeout */\n      dup5\n        /* \"contracts/lib/eai/EAI.sol\":8572:8588  _timeout.endTime */\n      0x00\n      add\n      0x00\n        /* \"contracts/lib/eai/EAI.sol\":8572:8626  _timeout.endTime = _startTime + _timeout.timeIncrement */\n      0x0100\n      exp\n      dup2\n      sload\n      dup2\n      0xffffffff\n      mul\n      not\n      and\n      swap1\n      dup4\n      0xffffffff\n      and\n      mul\n      or\n      swap1\n      sstore\n      pop\n        /* \"contracts/lib/eai/EAI.sol\":8685:8830  {... */\n      pop\n        /* \"contracts/lib/eai/EAI.sol\":8442:8635  function setEndTimeInTimeout(Timeout storage _timeout, uint32 _startTime)internal onlyValidAccessTime(_startTime){      ... */\n      pop\n      pop\n      pop\n      jump\t// out\n        /* \"contracts/lib/eai/EAI.sol\":8163:8434  function isTimeoutEnded(Timeout memory _timeout, uint32 _accessTime) internal pure onlyValidAccessTime(_accessTime) returns(bool){        ... */\n    tag_50:\n        /* \"contracts/lib/eai/EAI.sol\":8287:8291  bool */\n      0x00\n        /* \"contracts/lib/eai/EAI.sol\":8266:8277  _accessTime */\n      dup2\n        /* \"contracts/lib/eai/EAI.sol\":8696:8717  string memory strTime */\n      0x00\n        /* \"contracts/lib/eai/EAI.sol\":8721:8739  uint2String(_time) */\n      tag_61\n        /* \"contracts/lib/eai/EAI.sol\":8733:8738  _time */\n      dup3\n        /* \"contracts/lib/eai/EAI.sol\":8721:8739  uint2String(_time) */\n      0xffffffff\n      and\n        /* \"contracts/lib/eai/EAI.sol\":8721:8732  uint2String */\n      tag_55\n        /* \"contracts/lib/eai/EAI.sol\":8721:8739  uint2String(_time) */\n      jump\t// in\n    tag_61:\n        /* \"contracts/lib/eai/EAI.sol\":8696:8739  string memory strTime  = uint2String(_time) */\n      swap1\n      pop\n        /* \"contracts/lib/eai/EAI.sol\":8783:8785  10 */\n      0x0a\n        /* \"contracts/lib/eai/EAI.sol\":8764:8771  strTime */\n      dup2\n        /* \"contracts/lib/eai/EAI.sol\":8758:8779  bytes(strTime).length */\n      mload\n        /* \"contracts/lib/eai/EAI.sol\":8758:8785  bytes(strTime).length <= 10 */\n      gt\n      iszero\n        /* \"contracts/lib/eai/EAI.sol\":8750:8786  require(bytes(strTime).length <= 10) */\n      tag_62\n      jumpi\n      0x00\n      dup1\n      revert\n    tag_62:\n        /* \"contracts/lib/eai/EAI.sol\":8338:8339  0 */\n      0x00\n        /* \"contracts/lib/eai/EAI.sol\":8319:8327  _timeout */\n      dup6\n        /* \"contracts/lib/eai/EAI.sol\":8319:8335  _timeout.endTime */\n      0x00\n      add\n      mload\n        /* \"contracts/lib/eai/EAI.sol\":8319:8339  _timeout.endTime > 0 */\n      0xffffffff\n      and\n      gt\n        /* \"contracts/lib/eai/EAI.sol\":8311:8378  require(_timeout.endTime > 0, \"There is no endTime set in timeout\") */\n      tag_64\n      jumpi\n      mload(0x40)\n      0x08c379a000000000000000000000000000000000000000000000000000000000\n      dup2\n      mstore\n      0x04\n      add\n      tag_65\n      swap1\n      tag_66\n      jump\t// in\n    tag_65:\n      mload(0x40)\n      dup1\n      swap2\n      sub\n      swap1\n      revert\n    tag_64:\n        /* \"contracts/lib/eai/EAI.sol\":8410:8418  _timeout */\n      dup5\n        /* \"contracts/lib/eai/EAI.sol\":8410:8426  _timeout.endTime */\n      0x00\n      add\n      mload\n        /* \"contracts/lib/eai/EAI.sol\":8396:8426  _accessTime > _timeout.endTime */\n      0xffffffff\n      and\n        /* \"contracts/lib/eai/EAI.sol\":8396:8407  _accessTime */\n      dup5\n        /* \"contracts/lib/eai/EAI.sol\":8396:8426  _accessTime > _timeout.endTime */\n      0xffffffff\n      and\n      gt\n        /* \"contracts/lib/eai/EAI.sol\":8389:8426  return _accessTime > _timeout.endTime */\n      swap3\n      pop\n        /* \"contracts/lib/eai/EAI.sol\":8685:8830  {... */\n      pop\n        /* \"contracts/lib/eai/EAI.sol\":8163:8434  function isTimeoutEnded(Timeout memory _timeout, uint32 _accessTime) internal pure onlyValidAccessTime(_accessTime) returns(bool){        ... */\n      pop\n      swap3\n      swap2\n      pop\n      pop\n      jump\t// out\n        /* \"contracts/lib/eai/EAI.sol\":10865:11410  function uint2String(uint256 value) internal pure returns (string memory) {... */\n    tag_55:\n        /* \"contracts/lib/eai/EAI.sol\":10924:10937  string memory */\n      0x60\n        /* \"contracts/lib/eai/EAI.sol\":10973:10974  0 */\n      0x00\n        /* \"contracts/lib/eai/EAI.sol\":10964:10969  value */\n      dup3\n        /* \"contracts/lib/eai/EAI.sol\":10964:10974  value == 0 */\n      sub\n        /* \"contracts/lib/eai/EAI.sol\":10960:11013  if (value == 0) {... */\n      tag_68\n      jumpi\n        /* \"contracts/lib/eai/EAI.sol\":10991:11001  return \"0\" */\n      mload(0x40)\n      dup1\n      0x40\n      add\n      0x40\n      mstore\n      dup1\n      0x01\n      dup2\n      mstore\n      0x20\n      add\n      0x3000000000000000000000000000000000000000000000000000000000000000\n      dup2\n      mstore\n      pop\n      swap1\n      pop\n      jump(tag_67)\n        /* \"contracts/lib/eai/EAI.sol\":10960:11013  if (value == 0) {... */\n    tag_68:\n        /* \"contracts/lib/eai/EAI.sol\":11023:11035  uint256 temp */\n      0x00\n        /* \"contracts/lib/eai/EAI.sol\":11038:11043  value */\n      dup3\n        /* \"contracts/lib/eai/EAI.sol\":11023:11043  uint256 temp = value */\n      swap1\n      pop\n        /* \"contracts/lib/eai/EAI.sol\":11054:11068  uint256 digits */\n      0x00\n        /* \"contracts/lib/eai/EAI.sol\":11079:11157  while (temp != 0) {... */\n    tag_69:\n        /* \"contracts/lib/eai/EAI.sol\":11094:11095  0 */\n      0x00\n        /* \"contracts/lib/eai/EAI.sol\":11086:11090  temp */\n      dup3\n        /* \"contracts/lib/eai/EAI.sol\":11086:11095  temp != 0 */\n      eq\n        /* \"contracts/lib/eai/EAI.sol\":11079:11157  while (temp != 0) {... */\n      tag_70\n      jumpi\n        /* \"contracts/lib/eai/EAI.sol\":11112:11120  digits++ */\n      dup1\n      dup1\n      tag_71\n      swap1\n      tag_72\n      jump\t// in\n    tag_71:\n      swap2\n      pop\n      pop\n        /* \"contracts/lib/eai/EAI.sol\":11143:11145  10 */\n      0x0a\n        /* \"contracts/lib/eai/EAI.sol\":11135:11145  temp /= 10 */\n      dup3\n      tag_73\n      swap2\n      swap1\n      tag_74\n      jump\t// in\n    tag_73:\n      swap2\n      pop\n        /* \"contracts/lib/eai/EAI.sol\":11079:11157  while (temp != 0) {... */\n      jump(tag_69)\n    tag_70:\n        /* \"contracts/lib/eai/EAI.sol\":11167:11186  bytes memory buffer */\n      0x00\n        /* \"contracts/lib/eai/EAI.sol\":11199:11205  digits */\n      dup2\n        /* \"contracts/lib/eai/EAI.sol\":11189:11206  new bytes(digits) */\n      0xffffffffffffffff\n      dup2\n      gt\n      iszero\n      tag_75\n      jumpi\n      tag_76\n      tag_77\n      jump\t// in\n    tag_76:\n    tag_75:\n      mload(0x40)\n      swap1\n      dup1\n      dup3\n      mstore\n      dup1\n      0x1f\n      add\n      not(0x1f)\n      and\n      0x20\n      add\n      dup3\n      add\n      0x40\n      mstore\n      dup1\n      iszero\n      tag_78\n      jumpi\n      dup2\n      0x20\n      add\n      0x01\n      dup3\n      mul\n      dup1\n      calldatasize\n      dup4\n      calldatacopy\n      dup1\n      dup3\n      add\n      swap2\n      pop\n      pop\n      swap1\n      pop\n    tag_78:\n      pop\n        /* \"contracts/lib/eai/EAI.sol\":11167:11206  bytes memory buffer = new bytes(digits) */\n      swap1\n      pop\n        /* \"contracts/lib/eai/EAI.sol\":11217:11371  while (value != 0) {... */\n    tag_79:\n        /* \"contracts/lib/eai/EAI.sol\":11233:11234  0 */\n      0x00\n        /* \"contracts/lib/eai/EAI.sol\":11224:11229  value */\n      dup6\n        /* \"contracts/lib/eai/EAI.sol\":11224:11234  value != 0 */\n      eq\n        /* \"contracts/lib/eai/EAI.sol\":11217:11371  while (value != 0) {... */\n      tag_80\n      jumpi\n        /* \"contracts/lib/eai/EAI.sol\":11261:11262  1 */\n      0x01\n        /* \"contracts/lib/eai/EAI.sol\":11251:11262  digits -= 1 */\n      dup3\n      tag_81\n      swap2\n      swap1\n      tag_82\n      jump\t// in\n    tag_81:\n      swap2\n      pop\n        /* \"contracts/lib/eai/EAI.sol\":11328:11330  10 */\n      0x0a\n        /* \"contracts/lib/eai/EAI.sol\":11320:11325  value */\n      dup6\n        /* \"contracts/lib/eai/EAI.sol\":11320:11330  value % 10 */\n      tag_83\n      swap2\n      swap1\n      tag_84\n      jump\t// in\n    tag_83:\n        /* \"contracts/lib/eai/EAI.sol\":11307:11309  48 */\n      0x30\n        /* \"contracts/lib/eai/EAI.sol\":11307:11331  48 + uint256(value % 10) */\n      tag_85\n      swap2\n      swap1\n      tag_86\n      jump\t// in\n    tag_85:\n        /* \"contracts/lib/eai/EAI.sol\":11294:11333  bytes1(uint8(48 + uint256(value % 10))) */\n      0xf8\n      shl\n        /* \"contracts/lib/eai/EAI.sol\":11277:11283  buffer */\n      dup2\n        /* \"contracts/lib/eai/EAI.sol\":11284:11290  digits */\n      dup4\n        /* \"contracts/lib/eai/EAI.sol\":11277:11291  buffer[digits] */\n      dup2\n      mload\n      dup2\n      lt\n      tag_87\n      jumpi\n      tag_88\n      tag_37\n      jump\t// in\n    tag_88:\n    tag_87:\n      0x20\n      add\n      add\n        /* \"contracts/lib/eai/EAI.sol\":11277:11333  buffer[digits] = bytes1(uint8(48 + uint256(value % 10))) */\n      swap1\n      not(0xffffffffffffffffffffffffffffffffffffffffffffffffffffffffffffff)\n      and\n      swap1\n      dup2\n      0x00\n      byte\n      swap1\n      mstore8\n      pop\n        /* \"contracts/lib/eai/EAI.sol\":11357:11359  10 */\n      0x0a\n        /* \"contracts/lib/eai/EAI.sol\":11348:11359  value /= 10 */\n      dup6\n      tag_89\n      swap2\n      swap1\n      tag_74\n      jump\t// in\n    tag_89:\n      swap5\n      pop\n        /* \"contracts/lib/eai/EAI.sol\":11217:11371  while (value != 0) {... */\n      jump(tag_79)\n    tag_80:\n        /* \"contracts/lib/eai/EAI.sol\":11395:11401  buffer */\n      dup1\n        /* \"contracts/lib/eai/EAI.sol\":11381:11402  return string(buffer) */\n      swap4\n      pop\n      pop\n      pop\n      pop\n        /* \"contracts/lib/eai/EAI.sol\":10865:11410  function uint2String(uint256 value) internal pure returns (string memory) {... */\n    tag_67:\n      swap2\n      swap1\n      pop\n      jump\t// out\n    tag_33:\n      mload(0x40)\n      dup1\n      0x40\n      add\n      0x40\n      mstore\n      dup1\n      and(0xffffffff, 0x00)\n      dup2\n      mstore\n      0x20\n      add\n      and(0xffffffff, 0x00)\n      dup2\n      mstore\n      pop\n      swap1\n      jump\t// out\n        /* \"#utility.yul\":7:145   */\n    tag_90:\n        /* \"#utility.yul\":98:104   */\n      0x00\n        /* \"#utility.yul\":132:137   */\n      dup2\n        /* \"#utility.yul\":126:138   */\n      mload\n        /* \"#utility.yul\":116:138   */\n      swap1\n      pop\n        /* \"#utility.yul\":7:145   */\n      swap2\n      swap1\n      pop\n      jump\t// out\n        /* \"#utility.yul\":151:359   */\n    tag_91:\n        /* \"#utility.yul\":274:285   */\n      0x00\n        /* \"#utility.yul\":308:314   */\n      dup3\n        /* \"#utility.yul\":303:306   */\n      dup3\n        /* \"#utility.yul\":296:315   */\n      mstore\n        /* \"#utility.yul\":348:352   */\n      0x20\n        /* \"#utility.yul\":343:346   */\n      dup3\n        /* \"#utility.yul\":339:353   */\n      add\n        /* \"#utility.yul\":324:353   */\n      swap1\n      pop\n        /* \"#utility.yul\":151:359   */\n      swap3\n      swap2\n      pop\n      pop\n      jump\t// out\n        /* \"#utility.yul\":365:521   */\n    tag_92:\n        /* \"#utility.yul\":456:460   */\n      0x00\n        /* \"#utility.yul\":479:482   */\n      dup2\n        /* \"#utility.yul\":471:482   */\n      swap1\n      pop\n        /* \"#utility.yul\":509:513   */\n      0x20\n        /* \"#utility.yul\":504:507   */\n      dup3\n        /* \"#utility.yul\":500:514   */\n      add\n        /* \"#utility.yul\":492:514   */\n      swap1\n      pop\n        /* \"#utility.yul\":365:521   */\n      swap2\n      swap1\n      pop\n      jump\t// out\n        /* \"#utility.yul\":527:620   */\n    tag_93:\n        /* \"#utility.yul\":563:570   */\n      0x00\n        /* \"#utility.yul\":603:613   */\n      0xffffffff\n        /* \"#utility.yul\":596:601   */\n      dup3\n        /* \"#utility.yul\":592:614   */\n      and\n        /* \"#utility.yul\":581:614   */\n      swap1\n      pop\n        /* \"#utility.yul\":527:620   */\n      swap2\n      swap1\n      pop\n      jump\t// out\n        /* \"#utility.yul\":626:731   */\n    tag_94:\n        /* \"#utility.yul\":701:724   */\n      tag_121\n        /* \"#utility.yul\":718:723   */\n      dup2\n        /* \"#utility.yul\":701:724   */\n      tag_93\n      jump\t// in\n    tag_121:\n        /* \"#utility.yul\":696:699   */\n      dup3\n        /* \"#utility.yul\":689:725   */\n      mstore\n        /* \"#utility.yul\":626:731   */\n      pop\n      pop\n      jump\t// out\n        /* \"#utility.yul\":785:1288   */\n    tag_95:\n        /* \"#utility.yul\":920:924   */\n      0x40\n        /* \"#utility.yul\":915:918   */\n      dup3\n        /* \"#utility.yul\":911:925   */\n      add\n        /* \"#utility.yul\":1010:1014   */\n      0x00\n        /* \"#utility.yul\":1003:1008   */\n      dup3\n        /* \"#utility.yul\":999:1015   */\n      add\n        /* \"#utility.yul\":993:1016   */\n      mload\n        /* \"#utility.yul\":1029:1090   */\n      tag_123\n        /* \"#utility.yul\":1084:1088   */\n      0x00\n        /* \"#utility.yul\":1079:1082   */\n      dup6\n        /* \"#utility.yul\":1075:1089   */\n      add\n        /* \"#utility.yul\":1061:1073   */\n      dup3\n        /* \"#utility.yul\":1029:1090   */\n      tag_94\n      jump\t// in\n    tag_123:\n        /* \"#utility.yul\":935:1100   */\n      pop\n        /* \"#utility.yul\":1191:1195   */\n      0x20\n        /* \"#utility.yul\":1184:1189   */\n      dup3\n        /* \"#utility.yul\":1180:1196   */\n      add\n        /* \"#utility.yul\":1174:1197   */\n      mload\n        /* \"#utility.yul\":1210:1271   */\n      tag_124\n        /* \"#utility.yul\":1265:1269   */\n      0x20\n        /* \"#utility.yul\":1260:1263   */\n      dup6\n        /* \"#utility.yul\":1256:1270   */\n      add\n        /* \"#utility.yul\":1242:1254   */\n      dup3\n        /* \"#utility.yul\":1210:1271   */\n      tag_94\n      jump\t// in\n    tag_124:\n        /* \"#utility.yul\":1110:1281   */\n      pop\n        /* \"#utility.yul\":889:1288   */\n      pop\n        /* \"#utility.yul\":785:1288   */\n      pop\n      pop\n      jump\t// out\n        /* \"#utility.yul\":1294:1569   */\n    tag_96:\n        /* \"#utility.yul\":1411:1421   */\n      0x00\n        /* \"#utility.yul\":1432:1526   */\n      tag_126\n        /* \"#utility.yul\":1522:1525   */\n      dup4\n        /* \"#utility.yul\":1514:1520   */\n      dup4\n        /* \"#utility.yul\":1432:1526   */\n      tag_95\n      jump\t// in\n    tag_126:\n        /* \"#utility.yul\":1558:1562   */\n      0x40\n        /* \"#utility.yul\":1553:1556   */\n      dup4\n        /* \"#utility.yul\":1549:1563   */\n      add\n        /* \"#utility.yul\":1535:1563   */\n      swap1\n      pop\n        /* \"#utility.yul\":1294:1569   */\n      swap3\n      swap2\n      pop\n      pop\n      jump\t// out\n        /* \"#utility.yul\":1575:1712   */\n    tag_97:\n        /* \"#utility.yul\":1669:1673   */\n      0x00\n        /* \"#utility.yul\":1701:1705   */\n      0x20\n        /* \"#utility.yul\":1696:1699   */\n      dup3\n        /* \"#utility.yul\":1692:1706   */\n      add\n        /* \"#utility.yul\":1684:1706   */\n      swap1\n      pop\n        /* \"#utility.yul\":1575:1712   */\n      swap2\n      swap1\n      pop\n      jump\t// out\n        /* \"#utility.yul\":1770:2694   */\n    tag_98:\n        /* \"#utility.yul\":1937:1940   */\n      0x00\n        /* \"#utility.yul\":1966:2044   */\n      tag_129\n        /* \"#utility.yul\":2038:2043   */\n      dup3\n        /* \"#utility.yul\":1966:2044   */\n      tag_90\n      jump\t// in\n    tag_129:\n        /* \"#utility.yul\":2060:2170   */\n      tag_130\n        /* \"#utility.yul\":2163:2169   */\n      dup2\n        /* \"#utility.yul\":2158:2161   */\n      dup6\n        /* \"#utility.yul\":2060:2170   */\n      tag_91\n      jump\t// in\n    tag_130:\n        /* \"#utility.yul\":2053:2170   */\n      swap4\n      pop\n        /* \"#utility.yul\":2194:2274   */\n      tag_131\n        /* \"#utility.yul\":2268:2273   */\n      dup4\n        /* \"#utility.yul\":2194:2274   */\n      tag_92\n      jump\t// in\n    tag_131:\n        /* \"#utility.yul\":2297:2304   */\n      dup1\n        /* \"#utility.yul\":2328:2329   */\n      0x00\n        /* \"#utility.yul\":2313:2669   */\n    tag_132:\n        /* \"#utility.yul\":2338:2344   */\n      dup4\n        /* \"#utility.yul\":2335:2336   */\n      dup2\n        /* \"#utility.yul\":2332:2345   */\n      lt\n        /* \"#utility.yul\":2313:2669   */\n      iszero\n      tag_134\n      jumpi\n        /* \"#utility.yul\":2414:2420   */\n      dup2\n        /* \"#utility.yul\":2408:2421   */\n      mload\n        /* \"#utility.yul\":2441:2552   */\n      tag_135\n        /* \"#utility.yul\":2548:2551   */\n      dup9\n        /* \"#utility.yul\":2533:2546   */\n      dup3\n        /* \"#utility.yul\":2441:2552   */\n      tag_96\n      jump\t// in\n    tag_135:\n        /* \"#utility.yul\":2434:2552   */\n      swap8\n      pop\n        /* \"#utility.yul\":2575:2659   */\n      tag_136\n        /* \"#utility.yul\":2652:2658   */\n      dup4\n        /* \"#utility.yul\":2575:2659   */\n      tag_97\n      jump\t// in\n    tag_136:\n        /* \"#utility.yul\":2565:2659   */\n      swap3\n      pop\n        /* \"#utility.yul\":2373:2669   */\n      pop\n        /* \"#utility.yul\":2360:2361   */\n      0x01\n        /* \"#utility.yul\":2357:2358   */\n      dup2\n        /* \"#utility.yul\":2353:2362   */\n      add\n        /* \"#utility.yul\":2348:2362   */\n      swap1\n      pop\n        /* \"#utility.yul\":2313:2669   */\n      jump(tag_132)\n    tag_134:\n        /* \"#utility.yul\":2317:2331   */\n      pop\n        /* \"#utility.yul\":2685:2688   */\n      dup6\n        /* \"#utility.yul\":2678:2688   */\n      swap4\n      pop\n        /* \"#utility.yul\":1942:2694   */\n      pop\n      pop\n      pop\n        /* \"#utility.yul\":1770:2694   */\n      swap3\n      swap2\n      pop\n      pop\n      jump\t// out\n        /* \"#utility.yul\":2700:3169   */\n    tag_10:\n        /* \"#utility.yul\":2891:2895   */\n      0x00\n        /* \"#utility.yul\":2929:2931   */\n      0x20\n        /* \"#utility.yul\":2918:2927   */\n      dup3\n        /* \"#utility.yul\":2914:2932   */\n      add\n        /* \"#utility.yul\":2906:2932   */\n      swap1\n      pop\n        /* \"#utility.yul\":2978:2987   */\n      dup2\n        /* \"#utility.yul\":2972:2976   */\n      dup2\n        /* \"#utility.yul\":2968:2988   */\n      sub\n        /* \"#utility.yul\":2964:2965   */\n      0x00\n        /* \"#utility.yul\":2953:2962   */\n      dup4\n        /* \"#utility.yul\":2949:2966   */\n      add\n        /* \"#utility.yul\":2942:2989   */\n      mstore\n        /* \"#utility.yul\":3006:3162   */\n      tag_138\n        /* \"#utility.yul\":3157:3161   */\n      dup2\n        /* \"#utility.yul\":3148:3154   */\n      dup5\n        /* \"#utility.yul\":3006:3162   */\n      tag_98\n      jump\t// in\n    tag_138:\n        /* \"#utility.yul\":2998:3162   */\n      swap1\n      pop\n        /* \"#utility.yul\":2700:3169   */\n      swap3\n      swap2\n      pop\n      pop\n      jump\t// out\n        /* \"#utility.yul\":3256:3373   */\n    tag_100:\n        /* \"#utility.yul\":3365:3366   */\n      0x00\n        /* \"#utility.yul\":3362:3363   */\n      dup1\n        /* \"#utility.yul\":3355:3367   */\n      revert\n        /* \"#utility.yul\":3502:3579   */\n    tag_102:\n        /* \"#utility.yul\":3539:3546   */\n      0x00\n        /* \"#utility.yul\":3568:3573   */\n      dup2\n        /* \"#utility.yul\":3557:3573   */\n      swap1\n      pop\n        /* \"#utility.yul\":3502:3579   */\n      swap2\n      swap1\n      pop\n      jump\t// out\n        /* \"#utility.yul\":3585:3707   */\n    tag_103:\n        /* \"#utility.yul\":3658:3682   */\n      tag_144\n        /* \"#utility.yul\":3676:3681   */\n      dup2\n        /* \"#utility.yul\":3658:3682   */\n      tag_102\n      jump\t// in\n    tag_144:\n        /* \"#utility.yul\":3651:3656   */\n      dup2\n        /* \"#utility.yul\":3648:3683   */\n      eq\n        /* \"#utility.yul\":3638:3701   */\n      tag_145\n      jumpi\n        /* \"#utility.yul\":3697:3698   */\n      0x00\n        /* \"#utility.yul\":3694:3695   */\n      dup1\n        /* \"#utility.yul\":3687:3699   */\n      revert\n        /* \"#utility.yul\":3638:3701   */\n    tag_145:\n        /* \"#utility.yul\":3585:3707   */\n      pop\n      jump\t// out\n        /* \"#utility.yul\":3713:3852   */\n    tag_104:\n        /* \"#utility.yul\":3759:3764   */\n      0x00\n        /* \"#utility.yul\":3797:3803   */\n      dup2\n        /* \"#utility.yul\":3784:3804   */\n      calldataload\n        /* \"#utility.yul\":3775:3804   */\n      swap1\n      pop\n        /* \"#utility.yul\":3813:3846   */\n      tag_147\n        /* \"#utility.yul\":3840:3845   */\n      dup2\n        /* \"#utility.yul\":3813:3846   */\n      tag_103\n      jump\t// in\n    tag_147:\n        /* \"#utility.yul\":3713:3852   */\n      swap3\n      swap2\n      pop\n      pop\n      jump\t// out\n        /* \"#utility.yul\":3858:4187   */\n    tag_13:\n        /* \"#utility.yul\":3917:3923   */\n      0x00\n        /* \"#utility.yul\":3966:3968   */\n      0x20\n        /* \"#utility.yul\":3954:3963   */\n      dup3\n        /* \"#utility.yul\":3945:3952   */\n      dup5\n        /* \"#utility.yul\":3941:3964   */\n      sub\n        /* \"#utility.yul\":3937:3969   */\n      slt\n        /* \"#utility.yul\":3934:4053   */\n      iszero\n      tag_149\n      jumpi\n        /* \"#utility.yul\":3972:4051   */\n      tag_150\n      tag_100\n      jump\t// in\n    tag_150:\n        /* \"#utility.yul\":3934:4053   */\n    tag_149:\n        /* \"#utility.yul\":4092:4093   */\n      0x00\n        /* \"#utility.yul\":4117:4170   */\n      tag_151\n        /* \"#utility.yul\":4162:4169   */\n      dup5\n        /* \"#utility.yul\":4153:4159   */\n      dup3\n        /* \"#utility.yul\":4142:4151   */\n      dup6\n        /* \"#utility.yul\":4138:4160   */\n      add\n        /* \"#utility.yul\":4117:4170   */\n      tag_104\n      jump\t// in\n    tag_151:\n        /* \"#utility.yul\":4107:4170   */\n      swap2\n      pop\n        /* \"#utility.yul\":4063:4180   */\n      pop\n        /* \"#utility.yul\":3858:4187   */\n      swap3\n      swap2\n      pop\n      pop\n      jump\t// out\n        /* \"#utility.yul\":4241:4754   */\n    tag_105:\n        /* \"#utility.yul\":4386:4390   */\n      0x40\n        /* \"#utility.yul\":4381:4384   */\n      dup3\n        /* \"#utility.yul\":4377:4391   */\n      add\n        /* \"#utility.yul\":4476:4480   */\n      0x00\n        /* \"#utility.yul\":4469:4474   */\n      dup3\n        /* \"#utility.yul\":4465:4481   */\n      add\n        /* \"#utility.yul\":4459:4482   */\n      mload\n        /* \"#utility.yul\":4495:4556   */\n      tag_153\n        /* \"#utility.yul\":4550:4554   */\n      0x00\n        /* \"#utility.yul\":4545:4548   */\n      dup6\n        /* \"#utility.yul\":4541:4555   */\n      add\n        /* \"#utility.yul\":4527:4539   */\n      dup3\n        /* \"#utility.yul\":4495:4556   */\n      tag_94\n      jump\t// in\n    tag_153:\n        /* \"#utility.yul\":4401:4566   */\n      pop\n        /* \"#utility.yul\":4657:4661   */\n      0x20\n        /* \"#utility.yul\":4650:4655   */\n      dup3\n        /* \"#utility.yul\":4646:4662   */\n      add\n        /* \"#utility.yul\":4640:4663   */\n      mload\n        /* \"#utility.yul\":4676:4737   */\n      tag_154\n        /* \"#utility.yul\":4731:4735   */\n      0x20\n        /* \"#utility.yul\":4726:4729   */\n      dup6\n        /* \"#utility.yul\":4722:4736   */\n      add\n        /* \"#utility.yul\":4708:4720   */\n      dup3\n        /* \"#utility.yul\":4676:4737   */\n      tag_94\n      jump\t// in\n    tag_154:\n        /* \"#utility.yul\":4576:4747   */\n      pop\n        /* \"#utility.yul\":4355:4754   */\n      pop\n        /* \"#utility.yul\":4241:4754   */\n      pop\n      pop\n      jump\t// out\n        /* \"#utility.yul\":4760:5078   */\n    tag_16:\n        /* \"#utility.yul\":4901:4905   */\n      0x00\n        /* \"#utility.yul\":4939:4941   */\n      0x40\n        /* \"#utility.yul\":4928:4937   */\n      dup3\n        /* \"#utility.yul\":4924:4942   */\n      add\n        /* \"#utility.yul\":4916:4942   */\n      swap1\n      pop\n        /* \"#utility.yul\":4952:5071   */\n      tag_156\n        /* \"#utility.yul\":5068:5069   */\n      0x00\n        /* \"#utility.yul\":5057:5066   */\n      dup4\n        /* \"#utility.yul\":5053:5070   */\n      add\n        /* \"#utility.yul\":5044:5050   */\n      dup5\n        /* \"#utility.yul\":4952:5071   */\n      tag_105\n      jump\t// in\n    tag_156:\n        /* \"#utility.yul\":4760:5078   */\n      swap3\n      swap2\n      pop\n      pop\n      jump\t// out\n        /* \"#utility.yul\":5084:5204   */\n    tag_106:\n        /* \"#utility.yul\":5156:5179   */\n      tag_158\n        /* \"#utility.yul\":5173:5178   */\n      dup2\n        /* \"#utility.yul\":5156:5179   */\n      tag_93\n      jump\t// in\n    tag_158:\n        /* \"#utility.yul\":5149:5154   */\n      dup2\n        /* \"#utility.yul\":5146:5180   */\n      eq\n        /* \"#utility.yul\":5136:5198   */\n      tag_159\n      jumpi\n        /* \"#utility.yul\":5194:5195   */\n      0x00\n        /* \"#utility.yul\":5191:5192   */\n      dup1\n        /* \"#utility.yul\":5184:5196   */\n      revert\n        /* \"#utility.yul\":5136:5198   */\n    tag_159:\n        /* \"#utility.yul\":5084:5204   */\n      pop\n      jump\t// out\n        /* \"#utility.yul\":5210:5347   */\n    tag_107:\n        /* \"#utility.yul\":5255:5260   */\n      0x00\n        /* \"#utility.yul\":5293:5299   */\n      dup2\n        /* \"#utility.yul\":5280:5300   */\n      calldataload\n        /* \"#utility.yul\":5271:5300   */\n      swap1\n      pop\n        /* \"#utility.yul\":5309:5341   */\n      tag_161\n        /* \"#utility.yul\":5335:5340   */\n      dup2\n        /* \"#utility.yul\":5309:5341   */\n      tag_106\n      jump\t// in\n    tag_161:\n        /* \"#utility.yul\":5210:5347   */\n      swap3\n      swap2\n      pop\n      pop\n      jump\t// out\n        /* \"#utility.yul\":5353:5825   */\n    tag_19:\n        /* \"#utility.yul\":5420:5426   */\n      0x00\n        /* \"#utility.yul\":5428:5434   */\n      dup1\n        /* \"#utility.yul\":5477:5479   */\n      0x40\n        /* \"#utility.yul\":5465:5474   */\n      dup4\n        /* \"#utility.yul\":5456:5463   */\n      dup6\n        /* \"#utility.yul\":5452:5475   */\n      sub\n        /* \"#utility.yul\":5448:5480   */\n      slt\n        /* \"#utility.yul\":5445:5564   */\n      iszero\n      tag_163\n      jumpi\n        /* \"#utility.yul\":5483:5562   */\n      tag_164\n      tag_100\n      jump\t// in\n    tag_164:\n        /* \"#utility.yul\":5445:5564   */\n    tag_163:\n        /* \"#utility.yul\":5603:5604   */\n      0x00\n        /* \"#utility.yul\":5628:5681   */\n      tag_165\n        /* \"#utility.yul\":5673:5680   */\n      dup6\n        /* \"#utility.yul\":5664:5670   */\n      dup3\n        /* \"#utility.yul\":5653:5662   */\n      dup7\n        /* \"#utility.yul\":5649:5671   */\n      add\n        /* \"#utility.yul\":5628:5681   */\n      tag_104\n      jump\t// in\n    tag_165:\n        /* \"#utility.yul\":5618:5681   */\n      swap3\n      pop\n        /* \"#utility.yul\":5574:5691   */\n      pop\n        /* \"#utility.yul\":5730:5732   */\n      0x20\n        /* \"#utility.yul\":5756:5808   */\n      tag_166\n        /* \"#utility.yul\":5800:5807   */\n      dup6\n        /* \"#utility.yul\":5791:5797   */\n      dup3\n        /* \"#utility.yul\":5780:5789   */\n      dup7\n        /* \"#utility.yul\":5776:5798   */\n      add\n        /* \"#utility.yul\":5756:5808   */\n      tag_107\n      jump\t// in\n    tag_166:\n        /* \"#utility.yul\":5746:5808   */\n      swap2\n      pop\n        /* \"#utility.yul\":5701:5818   */\n      pop\n        /* \"#utility.yul\":5353:5825   */\n      swap3\n      pop\n      swap3\n      swap1\n      pop\n      jump\t// out\n        /* \"#utility.yul\":5831:6301   */\n    tag_23:\n        /* \"#utility.yul\":5897:5903   */\n      0x00\n        /* \"#utility.yul\":5905:5911   */\n      dup1\n        /* \"#utility.yul\":5954:5956   */\n      0x40\n        /* \"#utility.yul\":5942:5951   */\n      dup4\n        /* \"#utility.yul\":5933:5940   */\n      dup6\n        /* \"#utility.yul\":5929:5952   */\n      sub\n        /* \"#utility.yul\":5925:5957   */\n      slt\n        /* \"#utility.yul\":5922:6041   */\n      iszero\n      tag_168\n      jumpi\n        /* \"#utility.yul\":5960:6039   */\n      tag_169\n      tag_100\n      jump\t// in\n    tag_169:\n        /* \"#utility.yul\":5922:6041   */\n    tag_168:\n        /* \"#utility.yul\":6080:6081   */\n      0x00\n        /* \"#utility.yul\":6105:6157   */\n      tag_170\n        /* \"#utility.yul\":6149:6156   */\n      dup6\n        /* \"#utility.yul\":6140:6146   */\n      dup3\n        /* \"#utility.yul\":6129:6138   */\n      dup7\n        /* \"#utility.yul\":6125:6147   */\n      add\n        /* \"#utility.yul\":6105:6157   */\n      tag_107\n      jump\t// in\n    tag_170:\n        /* \"#utility.yul\":6095:6157   */\n      swap3\n      pop\n        /* \"#utility.yul\":6051:6167   */\n      pop\n        /* \"#utility.yul\":6206:6208   */\n      0x20\n        /* \"#utility.yul\":6232:6284   */\n      tag_171\n        /* \"#utility.yul\":6276:6283   */\n      dup6\n        /* \"#utility.yul\":6267:6273   */\n      dup3\n        /* \"#utility.yul\":6256:6265   */\n      dup7\n        /* \"#utility.yul\":6252:6274   */\n      add\n        /* \"#utility.yul\":6232:6284   */\n      tag_107\n      jump\t// in\n    tag_171:\n        /* \"#utility.yul\":6222:6284   */\n      swap2\n      pop\n        /* \"#utility.yul\":6177:6294   */\n      pop\n        /* \"#utility.yul\":5831:6301   */\n      swap3\n      pop\n      swap3\n      swap1\n      pop\n      jump\t// out\n        /* \"#utility.yul\":6307:6397   */\n    tag_108:\n        /* \"#utility.yul\":6341:6348   */\n      0x00\n        /* \"#utility.yul\":6384:6389   */\n      dup2\n        /* \"#utility.yul\":6377:6390   */\n      iszero\n        /* \"#utility.yul\":6370:6391   */\n      iszero\n        /* \"#utility.yul\":6359:6391   */\n      swap1\n      pop\n        /* \"#utility.yul\":6307:6397   */\n      swap2\n      swap1\n      pop\n      jump\t// out\n        /* \"#utility.yul\":6403:6512   */\n    tag_109:\n        /* \"#utility.yul\":6484:6505   */\n      tag_174\n        /* \"#utility.yul\":6499:6504   */\n      dup2\n        /* \"#utility.yul\":6484:6505   */\n      tag_108\n      jump\t// in\n    tag_174:\n        /* \"#utility.yul\":6479:6482   */\n      dup3\n        /* \"#utility.yul\":6472:6506   */\n      mstore\n        /* \"#utility.yul\":6403:6512   */\n      pop\n      pop\n      jump\t// out\n        /* \"#utility.yul\":6518:6728   */\n    tag_26:\n        /* \"#utility.yul\":6605:6609   */\n      0x00\n        /* \"#utility.yul\":6643:6645   */\n      0x20\n        /* \"#utility.yul\":6632:6641   */\n      dup3\n        /* \"#utility.yul\":6628:6646   */\n      add\n        /* \"#utility.yul\":6620:6646   */\n      swap1\n      pop\n        /* \"#utility.yul\":6656:6721   */\n      tag_176\n        /* \"#utility.yul\":6718:6719   */\n      0x00\n        /* \"#utility.yul\":6707:6716   */\n      dup4\n        /* \"#utility.yul\":6703:6720   */\n      add\n        /* \"#utility.yul\":6694:6700   */\n      dup5\n        /* \"#utility.yul\":6656:6721   */\n      tag_109\n      jump\t// in\n    tag_176:\n        /* \"#utility.yul\":6518:6728   */\n      swap3\n      swap2\n      pop\n      pop\n      jump\t// out\n        /* \"#utility.yul\":6734:6914   */\n    tag_37:\n        /* \"#utility.yul\":6782:6859   */\n      0x4e487b7100000000000000000000000000000000000000000000000000000000\n        /* \"#utility.yul\":6779:6780   */\n      0x00\n        /* \"#utility.yul\":6772:6860   */\n      mstore\n        /* \"#utility.yul\":6879:6883   */\n      0x32\n        /* \"#utility.yul\":6876:6877   */\n      0x04\n        /* \"#utility.yul\":6869:6884   */\n      mstore\n        /* \"#utility.yul\":6903:6907   */\n      0x24\n        /* \"#utility.yul\":6900:6901   */\n      0x00\n        /* \"#utility.yul\":6893:6908   */\n      revert\n        /* \"#utility.yul\":6920:7100   */\n    tag_110:\n        /* \"#utility.yul\":6968:7045   */\n      0x4e487b7100000000000000000000000000000000000000000000000000000000\n        /* \"#utility.yul\":6965:6966   */\n      0x00\n        /* \"#utility.yul\":6958:7046   */\n      mstore\n        /* \"#utility.yul\":7065:7069   */\n      0x11\n        /* \"#utility.yul\":7062:7063   */\n      0x04\n        /* \"#utility.yul\":7055:7070   */\n      mstore\n        /* \"#utility.yul\":7089:7093   */\n      0x24\n        /* \"#utility.yul\":7086:7087   */\n      0x00\n        /* \"#utility.yul\":7079:7094   */\n      revert\n        /* \"#utility.yul\":7106:7352   */\n    tag_59:\n        /* \"#utility.yul\":7145:7148   */\n      0x00\n        /* \"#utility.yul\":7164:7183   */\n      tag_180\n        /* \"#utility.yul\":7181:7182   */\n      dup3\n        /* \"#utility.yul\":7164:7183   */\n      tag_93\n      jump\t// in\n    tag_180:\n        /* \"#utility.yul\":7159:7183   */\n      swap2\n      pop\n        /* \"#utility.yul\":7197:7216   */\n      tag_181\n        /* \"#utility.yul\":7214:7215   */\n      dup4\n        /* \"#utility.yul\":7197:7216   */\n      tag_93\n      jump\t// in\n    tag_181:\n        /* \"#utility.yul\":7192:7216   */\n      swap3\n      pop\n        /* \"#utility.yul\":7294:7295   */\n      dup3\n        /* \"#utility.yul\":7282:7292   */\n      0xffffffff\n        /* \"#utility.yul\":7278:7296   */\n      sub\n        /* \"#utility.yul\":7275:7276   */\n      dup3\n        /* \"#utility.yul\":7272:7297   */\n      gt\n        /* \"#utility.yul\":7269:7320   */\n      iszero\n      tag_182\n      jumpi\n        /* \"#utility.yul\":7300:7318   */\n      tag_183\n      tag_110\n      jump\t// in\n    tag_183:\n        /* \"#utility.yul\":7269:7320   */\n    tag_182:\n        /* \"#utility.yul\":7344:7345   */\n      dup3\n        /* \"#utility.yul\":7341:7342   */\n      dup3\n        /* \"#utility.yul\":7337:7346   */\n      add\n        /* \"#utility.yul\":7330:7346   */\n      swap1\n      pop\n        /* \"#utility.yul\":7106:7352   */\n      swap3\n      swap2\n      pop\n      pop\n      jump\t// out\n        /* \"#utility.yul\":7358:7527   */\n    tag_111:\n        /* \"#utility.yul\":7442:7453   */\n      0x00\n        /* \"#utility.yul\":7476:7482   */\n      dup3\n        /* \"#utility.yul\":7471:7474   */\n      dup3\n        /* \"#utility.yul\":7464:7483   */\n      mstore\n        /* \"#utility.yul\":7516:7520   */\n      0x20\n        /* \"#utility.yul\":7511:7514   */\n      dup3\n        /* \"#utility.yul\":7507:7521   */\n      add\n        /* \"#utility.yul\":7492:7521   */\n      swap1\n      pop\n        /* \"#utility.yul\":7358:7527   */\n      swap3\n      swap2\n      pop\n      pop\n      jump\t// out\n        /* \"#utility.yul\":7533:7754   */\n    tag_112:\n        /* \"#utility.yul\":7673:7707   */\n      0x5468657265206973206e6f20656e6454696d652073657420696e2074696d656f\n        /* \"#utility.yul\":7669:7670   */\n      0x00\n        /* \"#utility.yul\":7661:7667   */\n      dup3\n        /* \"#utility.yul\":7657:7671   */\n      add\n        /* \"#utility.yul\":7650:7708   */\n      mstore\n        /* \"#utility.yul\":7742:7746   */\n      0x7574000000000000000000000000000000000000000000000000000000000000\n        /* \"#utility.yul\":7737:7739   */\n      0x20\n        /* \"#utility.yul\":7729:7735   */\n      dup3\n        /* \"#utility.yul\":7725:7740   */\n      add\n        /* \"#utility.yul\":7718:7747   */\n      mstore\n        /* \"#utility.yul\":7533:7754   */\n      pop\n      jump\t// out\n        /* \"#utility.yul\":7760:8126   */\n    tag_113:\n        /* \"#utility.yul\":7902:7905   */\n      0x00\n        /* \"#utility.yul\":7923:7990   */\n      tag_187\n        /* \"#utility.yul\":7987:7989   */\n      0x22\n        /* \"#utility.yul\":7982:7985   */\n      dup4\n        /* \"#utility.yul\":7923:7990   */\n      tag_111\n      jump\t// in\n    tag_187:\n        /* \"#utility.yul\":7916:7990   */\n      swap2\n      pop\n        /* \"#utility.yul\":7999:8092   */\n      tag_188\n        /* \"#utility.yul\":8088:8091   */\n      dup3\n        /* \"#utility.yul\":7999:8092   */\n      tag_112\n      jump\t// in\n    tag_188:\n        /* \"#utility.yul\":8117:8119   */\n      0x40\n        /* \"#utility.yul\":8112:8115   */\n      dup3\n        /* \"#utility.yul\":8108:8120   */\n      add\n        /* \"#utility.yul\":8101:8120   */\n      swap1\n      pop\n        /* \"#utility.yul\":7760:8126   */\n      swap2\n      swap1\n      pop\n      jump\t// out\n        /* \"#utility.yul\":8132:8551   */\n    tag_66:\n        /* \"#utility.yul\":8298:8302   */\n      0x00\n        /* \"#utility.yul\":8336:8338   */\n      0x20\n        /* \"#utility.yul\":8325:8334   */\n      dup3\n        /* \"#utility.yul\":8321:8339   */\n      add\n        /* \"#utility.yul\":8313:8339   */\n      swap1\n      pop\n        /* \"#utility.yul\":8385:8394   */\n      dup2\n        /* \"#utility.yul\":8379:8383   */\n      dup2\n        /* \"#utility.yul\":8375:8395   */\n      sub\n        /* \"#utility.yul\":8371:8372   */\n      0x00\n        /* \"#utility.yul\":8360:8369   */\n      dup4\n        /* \"#utility.yul\":8356:8373   */\n      add\n        /* \"#utility.yul\":8349:8396   */\n      mstore\n        /* \"#utility.yul\":8413:8544   */\n      tag_190\n        /* \"#utility.yul\":8539:8543   */\n      dup2\n        /* \"#utility.yul\":8413:8544   */\n      tag_113\n      jump\t// in\n    tag_190:\n        /* \"#utility.yul\":8405:8544   */\n      swap1\n      pop\n        /* \"#utility.yul\":8132:8551   */\n      swap2\n      swap1\n      pop\n      jump\t// out\n        /* \"#utility.yul\":8557:8790   */\n    tag_72:\n        /* \"#utility.yul\":8596:8599   */\n      0x00\n        /* \"#utility.yul\":8619:8643   */\n      tag_192\n        /* \"#utility.yul\":8637:8642   */\n      dup3\n        /* \"#utility.yul\":8619:8643   */\n      tag_102\n      jump\t// in\n    tag_192:\n        /* \"#utility.yul\":8610:8643   */\n      swap2\n      pop\n        /* \"#utility.yul\":8665:8731   */\n      0xffffffffffffffffffffffffffffffffffffffffffffffffffffffffffffffff\n        /* \"#utility.yul\":8658:8663   */\n      dup3\n        /* \"#utility.yul\":8655:8732   */\n      sub\n        /* \"#utility.yul\":8652:8755   */\n      tag_193\n      jumpi\n        /* \"#utility.yul\":8735:8753   */\n      tag_194\n      tag_110\n      jump\t// in\n    tag_194:\n        /* \"#utility.yul\":8652:8755   */\n    tag_193:\n        /* \"#utility.yul\":8782:8783   */\n      0x01\n        /* \"#utility.yul\":8775:8780   */\n      dup3\n        /* \"#utility.yul\":8771:8784   */\n      add\n        /* \"#utility.yul\":8764:8784   */\n      swap1\n      pop\n        /* \"#utility.yul\":8557:8790   */\n      swap2\n      swap1\n      pop\n      jump\t// out\n        /* \"#utility.yul\":8796:8976   */\n    tag_114:\n        /* \"#utility.yul\":8844:8921   */\n      0x4e487b7100000000000000000000000000000000000000000000000000000000\n        /* \"#utility.yul\":8841:8842   */\n      0x00\n        /* \"#utility.yul\":8834:8922   */\n      mstore\n        /* \"#utility.yul\":8941:8945   */\n      0x12\n        /* \"#utility.yul\":8938:8939   */\n      0x04\n        /* \"#utility.yul\":8931:8946   */\n      mstore\n        /* \"#utility.yul\":8965:8969   */\n      0x24\n        /* \"#utility.yul\":8962:8963   */\n      0x00\n        /* \"#utility.yul\":8955:8970   */\n      revert\n        /* \"#utility.yul\":8982:9167   */\n    tag_74:\n        /* \"#utility.yul\":9022:9023   */\n      0x00\n        /* \"#utility.yul\":9039:9059   */\n      tag_197\n        /* \"#utility.yul\":9057:9058   */\n      dup3\n        /* \"#utility.yul\":9039:9059   */\n      tag_102\n      jump\t// in\n    tag_197:\n        /* \"#utility.yul\":9034:9059   */\n      swap2\n      pop\n        /* \"#utility.yul\":9073:9093   */\n      tag_198\n        /* \"#utility.yul\":9091:9092   */\n      dup4\n        /* \"#utility.yul\":9073:9093   */\n      tag_102\n      jump\t// in\n    tag_198:\n        /* \"#utility.yul\":9068:9093   */\n      swap3\n      pop\n        /* \"#utility.yul\":9112:9113   */\n      dup3\n        /* \"#utility.yul\":9102:9137   */\n      tag_199\n      jumpi\n        /* \"#utility.yul\":9117:9135   */\n      tag_200\n      tag_114\n      jump\t// in\n    tag_200:\n        /* \"#utility.yul\":9102:9137   */\n    tag_199:\n        /* \"#utility.yul\":9159:9160   */\n      dup3\n        /* \"#utility.yul\":9156:9157   */\n      dup3\n        /* \"#utility.yul\":9152:9161   */\n      div\n        /* \"#utility.yul\":9147:9161   */\n      swap1\n      pop\n        /* \"#utility.yul\":8982:9167   */\n      swap3\n      swap2\n      pop\n      pop\n      jump\t// out\n        /* \"#utility.yul\":9173:9353   */\n    tag_77:\n        /* \"#utility.yul\":9221:9298   */\n      0x4e487b7100000000000000000000000000000000000000000000000000000000\n        /* \"#utility.yul\":9218:9219   */\n      0x00\n        /* \"#utility.yul\":9211:9299   */\n      mstore\n        /* \"#utility.yul\":9318:9322   */\n      0x41\n        /* \"#utility.yul\":9315:9316   */\n      0x04\n        /* \"#utility.yul\":9308:9323   */\n      mstore\n        /* \"#utility.yul\":9342:9346   */\n      0x24\n        /* \"#utility.yul\":9339:9340   */\n      0x00\n        /* \"#utility.yul\":9332:9347   */\n      revert\n        /* \"#utility.yul\":9359:9550   */\n    tag_82:\n        /* \"#utility.yul\":9399:9403   */\n      0x00\n        /* \"#utility.yul\":9419:9439   */\n      tag_203\n        /* \"#utility.yul\":9437:9438   */\n      dup3\n        /* \"#utility.yul\":9419:9439   */\n      tag_102\n      jump\t// in\n    tag_203:\n        /* \"#utility.yul\":9414:9439   */\n      swap2\n      pop\n        /* \"#utility.yul\":9453:9473   */\n      tag_204\n        /* \"#utility.yul\":9471:9472   */\n      dup4\n        /* \"#utility.yul\":9453:9473   */\n      tag_102\n      jump\t// in\n    tag_204:\n        /* \"#utility.yul\":9448:9473   */\n      swap3\n      pop\n        /* \"#utility.yul\":9492:9493   */\n      dup3\n        /* \"#utility.yul\":9489:9490   */\n      dup3\n        /* \"#utility.yul\":9486:9494   */\n      lt\n        /* \"#utility.yul\":9483:9517   */\n      iszero\n      tag_205\n      jumpi\n        /* \"#utility.yul\":9497:9515   */\n      tag_206\n      tag_110\n      jump\t// in\n    tag_206:\n        /* \"#utility.yul\":9483:9517   */\n    tag_205:\n        /* \"#utility.yul\":9542:9543   */\n      dup3\n        /* \"#utility.yul\":9539:9540   */\n      dup3\n        /* \"#utility.yul\":9535:9544   */\n      sub\n        /* \"#utility.yul\":9527:9544   */\n      swap1\n      pop\n        /* \"#utility.yul\":9359:9550   */\n      swap3\n      swap2\n      pop\n      pop\n      jump\t// out\n        /* \"#utility.yul\":9556:9732   */\n    tag_84:\n        /* \"#utility.yul\":9588:9589   */\n      0x00\n        /* \"#utility.yul\":9605:9625   */\n      tag_208\n        /* \"#utility.yul\":9623:9624   */\n      dup3\n        /* \"#utility.yul\":9605:9625   */\n      tag_102\n      jump\t// in\n    tag_208:\n        /* \"#utility.yul\":9600:9625   */\n      swap2\n      pop\n        /* \"#utility.yul\":9639:9659   */\n      tag_209\n        /* \"#utility.yul\":9657:9658   */\n      dup4\n        /* \"#utility.yul\":9639:9659   */\n      tag_102\n      jump\t// in\n    tag_209:\n        /* \"#utility.yul\":9634:9659   */\n      swap3\n      pop\n        /* \"#utility.yul\":9678:9679   */\n      dup3\n        /* \"#utility.yul\":9668:9703   */\n      tag_210\n      jumpi\n        /* \"#utility.yul\":9683:9701   */\n      tag_211\n      tag_114\n      jump\t// in\n    tag_211:\n        /* \"#utility.yul\":9668:9703   */\n    tag_210:\n        /* \"#utility.yul\":9724:9725   */\n      dup3\n        /* \"#utility.yul\":9721:9722   */\n      dup3\n        /* \"#utility.yul\":9717:9726   */\n      mod\n        /* \"#utility.yul\":9712:9726   */\n      swap1\n      pop\n        /* \"#utility.yul\":9556:9732   */\n      swap3\n      swap2\n      pop\n      pop\n      jump\t// out\n        /* \"#utility.yul\":9738:10043   */\n    tag_86:\n        /* \"#utility.yul\":9778:9781   */\n      0x00\n        /* \"#utility.yul\":9797:9817   */\n      tag_213\n        /* \"#utility.yul\":9815:9816   */\n      dup3\n        /* \"#utility.yul\":9797:9817   */\n      tag_102\n      jump\t// in\n    tag_213:\n        /* \"#utility.yul\":9792:9817   */\n      swap2\n      pop\n        /* \"#utility.yul\":9831:9851   */\n      tag_214\n        /* \"#utility.yul\":9849:9850   */\n      dup4\n        /* \"#utility.yul\":9831:9851   */\n      tag_102\n      jump\t// in\n    tag_214:\n        /* \"#utility.yul\":9826:9851   */\n      swap3\n      pop\n        /* \"#utility.yul\":9985:9986   */\n      dup3\n        /* \"#utility.yul\":9917:9983   */\n      0xffffffffffffffffffffffffffffffffffffffffffffffffffffffffffffffff\n        /* \"#utility.yul\":9913:9987   */\n      sub\n        /* \"#utility.yul\":9910:9911   */\n      dup3\n        /* \"#utility.yul\":9907:9988   */\n      gt\n        /* \"#utility.yul\":9904:10011   */\n      iszero\n      tag_215\n      jumpi\n        /* \"#utility.yul\":9991:10009   */\n      tag_216\n      tag_110\n      jump\t// in\n    tag_216:\n        /* \"#utility.yul\":9904:10011   */\n    tag_215:\n        /* \"#utility.yul\":10035:10036   */\n      dup3\n        /* \"#utility.yul\":10032:10033   */\n      dup3\n        /* \"#utility.yul\":10028:10037   */\n      add\n        /* \"#utility.yul\":10021:10037   */\n      swap1\n      pop\n        /* \"#utility.yul\":9738:10043   */\n      swap3\n      swap2\n      pop\n      pop\n      jump\t// out\n\n    auxdata: 0xa2646970667358221220cf638bac0247d9b3b5931570ab1624da43bf425bca8a1439ebd000483f5baa1264736f6c634300080d0033\n}\n",
				"bytecode": {
					"linkReferences": {},
					"object": "608060405234801561001057600080fd5b506000610027603261012c60201b6102e11760201c565b9080600181540180825580915050600190039060005260206000200160009091909190915060008201518160000160006101000a81548163ffffffff021916908363ffffffff16021790555060208201518160000160046101000a81548163ffffffff021916908363ffffffff160217905550505060006100b2601e61012c60201b6102e11760201c565b9080600181540180825580915050600190039060005260206000200160009091909190915060008201518160000160006101000a81548163ffffffff021916908363ffffffff16021790555060208201518160000160046101000a81548163ffffffff021916908363ffffffff1602179055505050610183565b61013461015d565b6040518060400160405280600063ffffffff1681526020018363ffffffff168152509050919050565b6040518060400160405280600063ffffffff168152602001600063ffffffff1681525090565b610b48806101926000396000f3fe608060405234801561001057600080fd5b506004361061004c5760003560e01c80631e5dca7f146100515780632286f6511461006f578063233a985f1461009f57806351a9241c146100bb575b600080fd5b6100596100eb565b604051610066919061068f565b60405180910390f35b610089600480360381019061008491906106ec565b610192565b6040516100969190610748565b60405180910390f35b6100b960048036038101906100b4919061078f565b610216565b005b6100d560048036038101906100d091906107cf565b61024a565b6040516100e2919061082a565b60405180910390f35b60606000805480602002602001604051908101604052809291908181526020016000905b82821015610189578382906000526020600020016040518060400160405290816000820160009054906101000a900463ffffffff1663ffffffff1663ffffffff1681526020016000820160049054906101000a900463ffffffff1663ffffffff1663ffffffff16815250508152602001906001019061010f565b50505050905090565b61019a61056c565b600082815481106101ae576101ad610845565b5b906000526020600020016040518060400160405290816000820160009054906101000a900463ffffffff1663ffffffff1663ffffffff1681526020016000820160049054906101000a900463ffffffff1663ffffffff1663ffffffff16815250509050919050565b610246816000848154811061022e5761022d610845565b5b9060005260206000200161031290919063ffffffff16565b5050565b60006102d98260008563ffffffff168154811061026a57610269610845565b5b906000526020600020016040518060400160405290816000820160009054906101000a900463ffffffff1663ffffffff1663ffffffff1681526020016000820160049054906101000a900463ffffffff1663ffffffff1663ffffffff168152505061037d90919063ffffffff16565b905092915050565b6102e961056c565b6040518060400160405280600063ffffffff1681526020018363ffffffff168152509050919050565b8060006103248263ffffffff1661040c565b9050600a8151111561033557600080fd5b8360000160049054906101000a900463ffffffff168361035591906108a3565b8460000160006101000a81548163ffffffff021916908363ffffffff16021790555050505050565b60008160006103918263ffffffff1661040c565b9050600a815111156103a257600080fd5b6000856000015163ffffffff16116103ef576040517f08c379a00000000000000000000000000000000000000000000000000000000081526004016103e690610960565b60405180910390fd5b846000015163ffffffff168463ffffffff16119250505092915050565b606060008203610453576040518060400160405280600181526020017f30000000000000000000000000000000000000000000000000000000000000008152509050610567565b600082905060005b6000821461048557808061046e90610980565b915050600a8261047e91906109f7565b915061045b565b60008167ffffffffffffffff8111156104a1576104a0610a28565b5b6040519080825280601f01601f1916602001820160405280156104d35781602001600182028036833780820191505090505b5090505b60008514610560576001826104ec9190610a57565b9150600a856104fb9190610a8b565b60306105079190610abc565b60f81b81838151811061051d5761051c610845565b5b60200101907effffffffffffffffffffffffffffffffffffffffffffffffffffffffffffff1916908160001a905350600a8561055991906109f7565b94506104d7565b8093505050505b919050565b6040518060400160405280600063ffffffff168152602001600063ffffffff1681525090565b600081519050919050565b600082825260208201905092915050565b6000819050602082019050919050565b600063ffffffff82169050919050565b6105d7816105be565b82525050565b6040820160008201516105f360008501826105ce565b50602082015161060660208501826105ce565b50505050565b600061061883836105dd565b60408301905092915050565b6000602082019050919050565b600061063c82610592565b610646818561059d565b9350610651836105ae565b8060005b83811015610682578151610669888261060c565b975061067483610624565b925050600181019050610655565b5085935050505092915050565b600060208201905081810360008301526106a98184610631565b905092915050565b600080fd5b6000819050919050565b6106c9816106b6565b81146106d457600080fd5b50565b6000813590506106e6816106c0565b92915050565b600060208284031215610702576107016106b1565b5b6000610710848285016106d7565b91505092915050565b60408201600082015161072f60008501826105ce565b50602082015161074260208501826105ce565b50505050565b600060408201905061075d6000830184610719565b92915050565b61076c816105be565b811461077757600080fd5b50565b60008135905061078981610763565b92915050565b600080604083850312156107a6576107a56106b1565b5b60006107b4858286016106d7565b92505060206107c58582860161077a565b9150509250929050565b600080604083850312156107e6576107e56106b1565b5b60006107f48582860161077a565b92505060206108058582860161077a565b9150509250929050565b60008115159050919050565b6108248161080f565b82525050565b600060208201905061083f600083018461081b565b92915050565b7f4e487b7100000000000000000000000000000000000000000000000000000000600052603260045260246000fd5b7f4e487b7100000000000000000000000000000000000000000000000000000000600052601160045260246000fd5b60006108ae826105be565b91506108b9836105be565b92508263ffffffff038211156108d2576108d1610874565b5b828201905092915050565b600082825260208201905092915050565b7f5468657265206973206e6f20656e6454696d652073657420696e2074696d656f60008201527f7574000000000000000000000000000000000000000000000000000000000000602082015250565b600061094a6022836108dd565b9150610955826108ee565b604082019050919050565b600060208201905081810360008301526109798161093d565b9050919050565b600061098b826106b6565b91507fffffffffffffffffffffffffffffffffffffffffffffffffffffffffffffffff82036109bd576109bc610874565b5b600182019050919050565b7f4e487b7100000000000000000000000000000000000000000000000000000000600052601260045260246000fd5b6000610a02826106b6565b9150610a0d836106b6565b925082610a1d57610a1c6109c8565b5b828204905092915050565b7f4e487b7100000000000000000000000000000000000000000000000000000000600052604160045260246000fd5b6000610a62826106b6565b9150610a6d836106b6565b925082821015610a8057610a7f610874565b5b828203905092915050565b6000610a96826106b6565b9150610aa1836106b6565b925082610ab157610ab06109c8565b5b828206905092915050565b6000610ac7826106b6565b9150610ad2836106b6565b9250827fffffffffffffffffffffffffffffffffffffffffffffffffffffffffffffffff03821115610b0757610b06610874565b5b82820190509291505056fea2646970667358221220cf638bac0247d9b3b5931570ab1624da43bf425bca8a1439ebd000483f5baa1264736f6c634300080d0033",
					"opcodes": "PUSH1 0x80 PUSH1 0x40 MSTORE CALLVALUE DUP1 ISZERO PUSH2 0x10 JUMPI PUSH1 0x0 DUP1 REVERT JUMPDEST POP PUSH1 0x0 PUSH2 0x27 PUSH1 0x32 PUSH2 0x12C PUSH1 0x20 SHL PUSH2 0x2E1 OR PUSH1 0x20 SHR JUMP JUMPDEST SWAP1 DUP1 PUSH1 0x1 DUP2 SLOAD ADD DUP1 DUP3 SSTORE DUP1 SWAP2 POP POP PUSH1 0x1 SWAP1 SUB SWAP1 PUSH1 0x0 MSTORE PUSH1 0x20 PUSH1 0x0 KECCAK256 ADD PUSH1 0x0 SWAP1 SWAP2 SWAP1 SWAP2 SWAP1 SWAP2 POP PUSH1 0x0 DUP3 ADD MLOAD DUP2 PUSH1 0x0 ADD PUSH1 0x0 PUSH2 0x100 EXP DUP2 SLOAD DUP2 PUSH4 0xFFFFFFFF MUL NOT AND SWAP1 DUP4 PUSH4 0xFFFFFFFF AND MUL OR SWAP1 SSTORE POP PUSH1 0x20 DUP3 ADD MLOAD DUP2 PUSH1 0x0 ADD PUSH1 0x4 PUSH2 0x100 EXP DUP2 SLOAD DUP2 PUSH4 0xFFFFFFFF MUL NOT AND SWAP1 DUP4 PUSH4 0xFFFFFFFF AND MUL OR SWAP1 SSTORE POP POP POP PUSH1 0x0 PUSH2 0xB2 PUSH1 0x1E PUSH2 0x12C PUSH1 0x20 SHL PUSH2 0x2E1 OR PUSH1 0x20 SHR JUMP JUMPDEST SWAP1 DUP1 PUSH1 0x1 DUP2 SLOAD ADD DUP1 DUP3 SSTORE DUP1 SWAP2 POP POP PUSH1 0x1 SWAP1 SUB SWAP1 PUSH1 0x0 MSTORE PUSH1 0x20 PUSH1 0x0 KECCAK256 ADD PUSH1 0x0 SWAP1 SWAP2 SWAP1 SWAP2 SWAP1 SWAP2 POP PUSH1 0x0 DUP3 ADD MLOAD DUP2 PUSH1 0x0 ADD PUSH1 0x0 PUSH2 0x100 EXP DUP2 SLOAD DUP2 PUSH4 0xFFFFFFFF MUL NOT AND SWAP1 DUP4 PUSH4 0xFFFFFFFF AND MUL OR SWAP1 SSTORE POP PUSH1 0x20 DUP3 ADD MLOAD DUP2 PUSH1 0x0 ADD PUSH1 0x4 PUSH2 0x100 EXP DUP2 SLOAD DUP2 PUSH4 0xFFFFFFFF MUL NOT AND SWAP1 DUP4 PUSH4 0xFFFFFFFF AND MUL OR SWAP1 SSTORE POP POP POP PUSH2 0x183 JUMP JUMPDEST PUSH2 0x134 PUSH2 0x15D JUMP JUMPDEST PUSH1 0x40 MLOAD DUP1 PUSH1 0x40 ADD PUSH1 0x40 MSTORE DUP1 PUSH1 0x0 PUSH4 0xFFFFFFFF AND DUP2 MSTORE PUSH1 0x20 ADD DUP4 PUSH4 0xFFFFFFFF AND DUP2 MSTORE POP SWAP1 POP SWAP2 SWAP1 POP JUMP JUMPDEST PUSH1 0x40 MLOAD DUP1 PUSH1 0x40 ADD PUSH1 0x40 MSTORE DUP1 PUSH1 0x0 PUSH4 0xFFFFFFFF AND DUP2 MSTORE PUSH1 0x20 ADD PUSH1 0x0 PUSH4 0xFFFFFFFF AND DUP2 MSTORE POP SWAP1 JUMP JUMPDEST PUSH2 0xB48 DUP1 PUSH2 0x192 PUSH1 0x0 CODECOPY PUSH1 0x0 RETURN INVALID PUSH1 0x80 PUSH1 0x40 MSTORE CALLVALUE DUP1 ISZERO PUSH2 0x10 JUMPI PUSH1 0x0 DUP1 REVERT JUMPDEST POP PUSH1 0x4 CALLDATASIZE LT PUSH2 0x4C JUMPI PUSH1 0x0 CALLDATALOAD PUSH1 0xE0 SHR DUP1 PUSH4 0x1E5DCA7F EQ PUSH2 0x51 JUMPI DUP1 PUSH4 0x2286F651 EQ PUSH2 0x6F JUMPI DUP1 PUSH4 0x233A985F EQ PUSH2 0x9F JUMPI DUP1 PUSH4 0x51A9241C EQ PUSH2 0xBB JUMPI JUMPDEST PUSH1 0x0 DUP1 REVERT JUMPDEST PUSH2 0x59 PUSH2 0xEB JUMP JUMPDEST PUSH1 0x40 MLOAD PUSH2 0x66 SWAP2 SWAP1 PUSH2 0x68F JUMP JUMPDEST PUSH1 0x40 MLOAD DUP1 SWAP2 SUB SWAP1 RETURN JUMPDEST PUSH2 0x89 PUSH1 0x4 DUP1 CALLDATASIZE SUB DUP2 ADD SWAP1 PUSH2 0x84 SWAP2 SWAP1 PUSH2 0x6EC JUMP JUMPDEST PUSH2 0x192 JUMP JUMPDEST PUSH1 0x40 MLOAD PUSH2 0x96 SWAP2 SWAP1 PUSH2 0x748 JUMP JUMPDEST PUSH1 0x40 MLOAD DUP1 SWAP2 SUB SWAP1 RETURN JUMPDEST PUSH2 0xB9 PUSH1 0x4 DUP1 CALLDATASIZE SUB DUP2 ADD SWAP1 PUSH2 0xB4 SWAP2 SWAP1 PUSH2 0x78F JUMP JUMPDEST PUSH2 0x216 JUMP JUMPDEST STOP JUMPDEST PUSH2 0xD5 PUSH1 0x4 DUP1 CALLDATASIZE SUB DUP2 ADD SWAP1 PUSH2 0xD0 SWAP2 SWAP1 PUSH2 0x7CF JUMP JUMPDEST PUSH2 0x24A JUMP JUMPDEST PUSH1 0x40 MLOAD PUSH2 0xE2 SWAP2 SWAP1 PUSH2 0x82A JUMP JUMPDEST PUSH1 0x40 MLOAD DUP1 SWAP2 SUB SWAP1 RETURN JUMPDEST PUSH1 0x60 PUSH1 0x0 DUP1 SLOAD DUP1 PUSH1 0x20 MUL PUSH1 0x20 ADD PUSH1 0x40 MLOAD SWAP1 DUP2 ADD PUSH1 0x40 MSTORE DUP1 SWAP3 SWAP2 SWAP1 DUP2 DUP2 MSTORE PUSH1 0x20 ADD PUSH1 0x0 SWAP1 JUMPDEST DUP3 DUP3 LT ISZERO PUSH2 0x189 JUMPI DUP4 DUP3 SWAP1 PUSH1 0x0 MSTORE PUSH1 0x20 PUSH1 0x0 KECCAK256 ADD PUSH1 0x40 MLOAD DUP1 PUSH1 0x40 ADD PUSH1 0x40 MSTORE SWAP1 DUP2 PUSH1 0x0 DUP3 ADD PUSH1 0x0 SWAP1 SLOAD SWAP1 PUSH2 0x100 EXP SWAP1 DIV PUSH4 0xFFFFFFFF AND PUSH4 0xFFFFFFFF AND PUSH4 0xFFFFFFFF AND DUP2 MSTORE PUSH1 0x20 ADD PUSH1 0x0 DUP3 ADD PUSH1 0x4 SWAP1 SLOAD SWAP1 PUSH2 0x100 EXP SWAP1 DIV PUSH4 0xFFFFFFFF AND PUSH4 0xFFFFFFFF AND PUSH4 0xFFFFFFFF AND DUP2 MSTORE POP POP DUP2 MSTORE PUSH1 0x20 ADD SWAP1 PUSH1 0x1 ADD SWAP1 PUSH2 0x10F JUMP JUMPDEST POP POP POP POP SWAP1 POP SWAP1 JUMP JUMPDEST PUSH2 0x19A PUSH2 0x56C JUMP JUMPDEST PUSH1 0x0 DUP3 DUP2 SLOAD DUP2 LT PUSH2 0x1AE JUMPI PUSH2 0x1AD PUSH2 0x845 JUMP JUMPDEST JUMPDEST SWAP1 PUSH1 0x0 MSTORE PUSH1 0x20 PUSH1 0x0 KECCAK256 ADD PUSH1 0x40 MLOAD DUP1 PUSH1 0x40 ADD PUSH1 0x40 MSTORE SWAP1 DUP2 PUSH1 0x0 DUP3 ADD PUSH1 0x0 SWAP1 SLOAD SWAP1 PUSH2 0x100 EXP SWAP1 DIV PUSH4 0xFFFFFFFF AND PUSH4 0xFFFFFFFF AND PUSH4 0xFFFFFFFF AND DUP2 MSTORE PUSH1 0x20 ADD PUSH1 0x0 DUP3 ADD PUSH1 0x4 SWAP1 SLOAD SWAP1 PUSH2 0x100 EXP SWAP1 DIV PUSH4 0xFFFFFFFF AND PUSH4 0xFFFFFFFF AND PUSH4 0xFFFFFFFF AND DUP2 MSTORE POP POP SWAP1 POP SWAP2 SWAP1 POP JUMP JUMPDEST PUSH2 0x246 DUP2 PUSH1 0x0 DUP5 DUP2 SLOAD DUP2 LT PUSH2 0x22E JUMPI PUSH2 0x22D PUSH2 0x845 JUMP JUMPDEST JUMPDEST SWAP1 PUSH1 0x0 MSTORE PUSH1 0x20 PUSH1 0x0 KECCAK256 ADD PUSH2 0x312 SWAP1 SWAP2 SWAP1 PUSH4 0xFFFFFFFF AND JUMP JUMPDEST POP POP JUMP JUMPDEST PUSH1 0x0 PUSH2 0x2D9 DUP3 PUSH1 0x0 DUP6 PUSH4 0xFFFFFFFF AND DUP2 SLOAD DUP2 LT PUSH2 0x26A JUMPI PUSH2 0x269 PUSH2 0x845 JUMP JUMPDEST JUMPDEST SWAP1 PUSH1 0x0 MSTORE PUSH1 0x20 PUSH1 0x0 KECCAK256 ADD PUSH1 0x40 MLOAD DUP1 PUSH1 0x40 ADD PUSH1 0x40 MSTORE SWAP1 DUP2 PUSH1 0x0 DUP3 ADD PUSH1 0x0 SWAP1 SLOAD SWAP1 PUSH2 0x100 EXP SWAP1 DIV PUSH4 0xFFFFFFFF AND PUSH4 0xFFFFFFFF AND PUSH4 0xFFFFFFFF AND DUP2 MSTORE PUSH1 0x20 ADD PUSH1 0x0 DUP3 ADD PUSH1 0x4 SWAP1 SLOAD SWAP1 PUSH2 0x100 EXP SWAP1 DIV PUSH4 0xFFFFFFFF AND PUSH4 0xFFFFFFFF AND PUSH4 0xFFFFFFFF AND DUP2 MSTORE POP POP PUSH2 0x37D SWAP1 SWAP2 SWAP1 PUSH4 0xFFFFFFFF AND JUMP JUMPDEST SWAP1 POP SWAP3 SWAP2 POP POP JUMP JUMPDEST PUSH2 0x2E9 PUSH2 0x56C JUMP JUMPDEST PUSH1 0x40 MLOAD DUP1 PUSH1 0x40 ADD PUSH1 0x40 MSTORE DUP1 PUSH1 0x0 PUSH4 0xFFFFFFFF AND DUP2 MSTORE PUSH1 0x20 ADD DUP4 PUSH4 0xFFFFFFFF AND DUP2 MSTORE POP SWAP1 POP SWAP2 SWAP1 POP JUMP JUMPDEST DUP1 PUSH1 0x0 PUSH2 0x324 DUP3 PUSH4 0xFFFFFFFF AND PUSH2 0x40C JUMP JUMPDEST SWAP1 POP PUSH1 0xA DUP2 MLOAD GT ISZERO PUSH2 0x335 JUMPI PUSH1 0x0 DUP1 REVERT JUMPDEST DUP4 PUSH1 0x0 ADD PUSH1 0x4 SWAP1 SLOAD SWAP1 PUSH2 0x100 EXP SWAP1 DIV PUSH4 0xFFFFFFFF AND DUP4 PUSH2 0x355 SWAP2 SWAP1 PUSH2 0x8A3 JUMP JUMPDEST DUP5 PUSH1 0x0 ADD PUSH1 0x0 PUSH2 0x100 EXP DUP2 SLOAD DUP2 PUSH4 0xFFFFFFFF MUL NOT AND SWAP1 DUP4 PUSH4 0xFFFFFFFF AND MUL OR SWAP1 SSTORE POP POP POP POP POP JUMP JUMPDEST PUSH1 0x0 DUP2 PUSH1 0x0 PUSH2 0x391 DUP3 PUSH4 0xFFFFFFFF AND PUSH2 0x40C JUMP JUMPDEST SWAP1 POP PUSH1 0xA DUP2 MLOAD GT ISZERO PUSH2 0x3A2 JUMPI PUSH1 0x0 DUP1 REVERT JUMPDEST PUSH1 0x0 DUP6 PUSH1 0x0 ADD MLOAD PUSH4 0xFFFFFFFF AND GT PUSH2 0x3EF JUMPI PUSH1 0x40 MLOAD PUSH32 0x8C379A000000000000000000000000000000000000000000000000000000000 DUP2 MSTORE PUSH1 0x4 ADD PUSH2 0x3E6 SWAP1 PUSH2 0x960 JUMP JUMPDEST PUSH1 0x40 MLOAD DUP1 SWAP2 SUB SWAP1 REVERT JUMPDEST DUP5 PUSH1 0x0 ADD MLOAD PUSH4 0xFFFFFFFF AND DUP5 PUSH4 0xFFFFFFFF AND GT SWAP3 POP POP POP SWAP3 SWAP2 POP POP JUMP JUMPDEST PUSH1 0x60 PUSH1 0x0 DUP3 SUB PUSH2 0x453 JUMPI PUSH1 0x40 MLOAD DUP1 PUSH1 0x40 ADD PUSH1 0x40 MSTORE DUP1 PUSH1 0x1 DUP2 MSTORE PUSH1 0x20 ADD PUSH32 0x3000000000000000000000000000000000000000000000000000000000000000 DUP2 MSTORE POP SWAP1 POP PUSH2 0x567 JUMP JUMPDEST PUSH1 0x0 DUP3 SWAP1 POP PUSH1 0x0 JUMPDEST PUSH1 0x0 DUP3 EQ PUSH2 0x485 JUMPI DUP1 DUP1 PUSH2 0x46E SWAP1 PUSH2 0x980 JUMP JUMPDEST SWAP2 POP POP PUSH1 0xA DUP3 PUSH2 0x47E SWAP2 SWAP1 PUSH2 0x9F7 JUMP JUMPDEST SWAP2 POP PUSH2 0x45B JUMP JUMPDEST PUSH1 0x0 DUP2 PUSH8 0xFFFFFFFFFFFFFFFF DUP2 GT ISZERO PUSH2 0x4A1 JUMPI PUSH2 0x4A0 PUSH2 0xA28 JUMP JUMPDEST JUMPDEST PUSH1 0x40 MLOAD SWAP1 DUP1 DUP3 MSTORE DUP1 PUSH1 0x1F ADD PUSH1 0x1F NOT AND PUSH1 0x20 ADD DUP3 ADD PUSH1 0x40 MSTORE DUP1 ISZERO PUSH2 0x4D3 JUMPI DUP2 PUSH1 0x20 ADD PUSH1 0x1 DUP3 MUL DUP1 CALLDATASIZE DUP4 CALLDATACOPY DUP1 DUP3 ADD SWAP2 POP POP SWAP1 POP JUMPDEST POP SWAP1 POP JUMPDEST PUSH1 0x0 DUP6 EQ PUSH2 0x560 JUMPI PUSH1 0x1 DUP3 PUSH2 0x4EC SWAP2 SWAP1 PUSH2 0xA57 JUMP JUMPDEST SWAP2 POP PUSH1 0xA DUP6 PUSH2 0x4FB SWAP2 SWAP1 PUSH2 0xA8B JUMP JUMPDEST PUSH1 0x30 PUSH2 0x507 SWAP2 SWAP1 PUSH2 0xABC JUMP JUMPDEST PUSH1 0xF8 SHL DUP2 DUP4 DUP2 MLOAD DUP2 LT PUSH2 0x51D JUMPI PUSH2 0x51C PUSH2 0x845 JUMP JUMPDEST JUMPDEST PUSH1 0x20 ADD ADD SWAP1 PUSH31 0xFFFFFFFFFFFFFFFFFFFFFFFFFFFFFFFFFFFFFFFFFFFFFFFFFFFFFFFFFFFFFF NOT AND SWAP1 DUP2 PUSH1 0x0 BYTE SWAP1 MSTORE8 POP PUSH1 0xA DUP6 PUSH2 0x559 SWAP2 SWAP1 PUSH2 0x9F7 JUMP JUMPDEST SWAP5 POP PUSH2 0x4D7 JUMP JUMPDEST DUP1 SWAP4 POP POP POP POP JUMPDEST SWAP2 SWAP1 POP JUMP JUMPDEST PUSH1 0x40 MLOAD DUP1 PUSH1 0x40 ADD PUSH1 0x40 MSTORE DUP1 PUSH1 0x0 PUSH4 0xFFFFFFFF AND DUP2 MSTORE PUSH1 0x20 ADD PUSH1 0x0 PUSH4 0xFFFFFFFF AND DUP2 MSTORE POP SWAP1 JUMP JUMPDEST PUSH1 0x0 DUP2 MLOAD SWAP1 POP SWAP2 SWAP1 POP JUMP JUMPDEST PUSH1 0x0 DUP3 DUP3 MSTORE PUSH1 0x20 DUP3 ADD SWAP1 POP SWAP3 SWAP2 POP POP JUMP JUMPDEST PUSH1 0x0 DUP2 SWAP1 POP PUSH1 0x20 DUP3 ADD SWAP1 POP SWAP2 SWAP1 POP JUMP JUMPDEST PUSH1 0x0 PUSH4 0xFFFFFFFF DUP3 AND SWAP1 POP SWAP2 SWAP1 POP JUMP JUMPDEST PUSH2 0x5D7 DUP2 PUSH2 0x5BE JUMP JUMPDEST DUP3 MSTORE POP POP JUMP JUMPDEST PUSH1 0x40 DUP3 ADD PUSH1 0x0 DUP3 ADD MLOAD PUSH2 0x5F3 PUSH1 0x0 DUP6 ADD DUP3 PUSH2 0x5CE JUMP JUMPDEST POP PUSH1 0x20 DUP3 ADD MLOAD PUSH2 0x606 PUSH1 0x20 DUP6 ADD DUP3 PUSH2 0x5CE JUMP JUMPDEST POP POP POP POP JUMP JUMPDEST PUSH1 0x0 PUSH2 0x618 DUP4 DUP4 PUSH2 0x5DD JUMP JUMPDEST PUSH1 0x40 DUP4 ADD SWAP1 POP SWAP3 SWAP2 POP POP JUMP JUMPDEST PUSH1 0x0 PUSH1 0x20 DUP3 ADD SWAP1 POP SWAP2 SWAP1 POP JUMP JUMPDEST PUSH1 0x0 PUSH2 0x63C DUP3 PUSH2 0x592 JUMP JUMPDEST PUSH2 0x646 DUP2 DUP6 PUSH2 0x59D JUMP JUMPDEST SWAP4 POP PUSH2 0x651 DUP4 PUSH2 0x5AE JUMP JUMPDEST DUP1 PUSH1 0x0 JUMPDEST DUP4 DUP2 LT ISZERO PUSH2 0x682 JUMPI DUP2 MLOAD PUSH2 0x669 DUP9 DUP3 PUSH2 0x60C JUMP JUMPDEST SWAP8 POP PUSH2 0x674 DUP4 PUSH2 0x624 JUMP JUMPDEST SWAP3 POP POP PUSH1 0x1 DUP2 ADD SWAP1 POP PUSH2 0x655 JUMP JUMPDEST POP DUP6 SWAP4 POP POP POP POP SWAP3 SWAP2 POP POP JUMP JUMPDEST PUSH1 0x0 PUSH1 0x20 DUP3 ADD SWAP1 POP DUP2 DUP2 SUB PUSH1 0x0 DUP4 ADD MSTORE PUSH2 0x6A9 DUP2 DUP5 PUSH2 0x631 JUMP JUMPDEST SWAP1 POP SWAP3 SWAP2 POP POP JUMP JUMPDEST PUSH1 0x0 DUP1 REVERT JUMPDEST PUSH1 0x0 DUP2 SWAP1 POP SWAP2 SWAP1 POP JUMP JUMPDEST PUSH2 0x6C9 DUP2 PUSH2 0x6B6 JUMP JUMPDEST DUP2 EQ PUSH2 0x6D4 JUMPI PUSH1 0x0 DUP1 REVERT JUMPDEST POP JUMP JUMPDEST PUSH1 0x0 DUP2 CALLDATALOAD SWAP1 POP PUSH2 0x6E6 DUP2 PUSH2 0x6C0 JUMP JUMPDEST SWAP3 SWAP2 POP POP JUMP JUMPDEST PUSH1 0x0 PUSH1 0x20 DUP3 DUP5 SUB SLT ISZERO PUSH2 0x702 JUMPI PUSH2 0x701 PUSH2 0x6B1 JUMP JUMPDEST JUMPDEST PUSH1 0x0 PUSH2 0x710 DUP5 DUP3 DUP6 ADD PUSH2 0x6D7 JUMP JUMPDEST SWAP2 POP POP SWAP3 SWAP2 POP POP JUMP JUMPDEST PUSH1 0x40 DUP3 ADD PUSH1 0x0 DUP3 ADD MLOAD PUSH2 0x72F PUSH1 0x0 DUP6 ADD DUP3 PUSH2 0x5CE JUMP JUMPDEST POP PUSH1 0x20 DUP3 ADD MLOAD PUSH2 0x742 PUSH1 0x20 DUP6 ADD DUP3 PUSH2 0x5CE JUMP JUMPDEST POP POP POP POP JUMP JUMPDEST PUSH1 0x0 PUSH1 0x40 DUP3 ADD SWAP1 POP PUSH2 0x75D PUSH1 0x0 DUP4 ADD DUP5 PUSH2 0x719 JUMP JUMPDEST SWAP3 SWAP2 POP POP JUMP JUMPDEST PUSH2 0x76C DUP2 PUSH2 0x5BE JUMP JUMPDEST DUP2 EQ PUSH2 0x777 JUMPI PUSH1 0x0 DUP1 REVERT JUMPDEST POP JUMP JUMPDEST PUSH1 0x0 DUP2 CALLDATALOAD SWAP1 POP PUSH2 0x789 DUP2 PUSH2 0x763 JUMP JUMPDEST SWAP3 SWAP2 POP POP JUMP JUMPDEST PUSH1 0x0 DUP1 PUSH1 0x40 DUP4 DUP6 SUB SLT ISZERO PUSH2 0x7A6 JUMPI PUSH2 0x7A5 PUSH2 0x6B1 JUMP JUMPDEST JUMPDEST PUSH1 0x0 PUSH2 0x7B4 DUP6 DUP3 DUP7 ADD PUSH2 0x6D7 JUMP JUMPDEST SWAP3 POP POP PUSH1 0x20 PUSH2 0x7C5 DUP6 DUP3 DUP7 ADD PUSH2 0x77A JUMP JUMPDEST SWAP2 POP POP SWAP3 POP SWAP3 SWAP1 POP JUMP JUMPDEST PUSH1 0x0 DUP1 PUSH1 0x40 DUP4 DUP6 SUB SLT ISZERO PUSH2 0x7E6 JUMPI PUSH2 0x7E5 PUSH2 0x6B1 JUMP JUMPDEST JUMPDEST PUSH1 0x0 PUSH2 0x7F4 DUP6 DUP3 DUP7 ADD PUSH2 0x77A JUMP JUMPDEST SWAP3 POP POP PUSH1 0x20 PUSH2 0x805 DUP6 DUP3 DUP7 ADD PUSH2 0x77A JUMP JUMPDEST SWAP2 POP POP SWAP3 POP SWAP3 SWAP1 POP JUMP JUMPDEST PUSH1 0x0 DUP2 ISZERO ISZERO SWAP1 POP SWAP2 SWAP1 POP JUMP JUMPDEST PUSH2 0x824 DUP2 PUSH2 0x80F JUMP JUMPDEST DUP3 MSTORE POP POP JUMP JUMPDEST PUSH1 0x0 PUSH1 0x20 DUP3 ADD SWAP1 POP PUSH2 0x83F PUSH1 0x0 DUP4 ADD DUP5 PUSH2 0x81B JUMP JUMPDEST SWAP3 SWAP2 POP POP JUMP JUMPDEST PUSH32 0x4E487B7100000000000000000000000000000000000000000000000000000000 PUSH1 0x0 MSTORE PUSH1 0x32 PUSH1 0x4 MSTORE PUSH1 0x24 PUSH1 0x0 REVERT JUMPDEST PUSH32 0x4E487B7100000000000000000000000000000000000000000000000000000000 PUSH1 0x0 MSTORE PUSH1 0x11 PUSH1 0x4 MSTORE PUSH1 0x24 PUSH1 0x0 REVERT JUMPDEST PUSH1 0x0 PUSH2 0x8AE DUP3 PUSH2 0x5BE JUMP JUMPDEST SWAP2 POP PUSH2 0x8B9 DUP4 PUSH2 0x5BE JUMP JUMPDEST SWAP3 POP DUP3 PUSH4 0xFFFFFFFF SUB DUP3 GT ISZERO PUSH2 0x8D2 JUMPI PUSH2 0x8D1 PUSH2 0x874 JUMP JUMPDEST JUMPDEST DUP3 DUP3 ADD SWAP1 POP SWAP3 SWAP2 POP POP JUMP JUMPDEST PUSH1 0x0 DUP3 DUP3 MSTORE PUSH1 0x20 DUP3 ADD SWAP1 POP SWAP3 SWAP2 POP POP JUMP JUMPDEST PUSH32 0x5468657265206973206E6F20656E6454696D652073657420696E2074696D656F PUSH1 0x0 DUP3 ADD MSTORE PUSH32 0x7574000000000000000000000000000000000000000000000000000000000000 PUSH1 0x20 DUP3 ADD MSTORE POP JUMP JUMPDEST PUSH1 0x0 PUSH2 0x94A PUSH1 0x22 DUP4 PUSH2 0x8DD JUMP JUMPDEST SWAP2 POP PUSH2 0x955 DUP3 PUSH2 0x8EE JUMP JUMPDEST PUSH1 0x40 DUP3 ADD SWAP1 POP SWAP2 SWAP1 POP JUMP JUMPDEST PUSH1 0x0 PUSH1 0x20 DUP3 ADD SWAP1 POP DUP2 DUP2 SUB PUSH1 0x0 DUP4 ADD MSTORE PUSH2 0x979 DUP2 PUSH2 0x93D JUMP JUMPDEST SWAP1 POP SWAP2 SWAP1 POP JUMP JUMPDEST PUSH1 0x0 PUSH2 0x98B DUP3 PUSH2 0x6B6 JUMP JUMPDEST SWAP2 POP PUSH32 0xFFFFFFFFFFFFFFFFFFFFFFFFFFFFFFFFFFFFFFFFFFFFFFFFFFFFFFFFFFFFFFFF DUP3 SUB PUSH2 0x9BD JUMPI PUSH2 0x9BC PUSH2 0x874 JUMP JUMPDEST JUMPDEST PUSH1 0x1 DUP3 ADD SWAP1 POP SWAP2 SWAP1 POP JUMP JUMPDEST PUSH32 0x4E487B7100000000000000000000000000000000000000000000000000000000 PUSH1 0x0 MSTORE PUSH1 0x12 PUSH1 0x4 MSTORE PUSH1 0x24 PUSH1 0x0 REVERT JUMPDEST PUSH1 0x0 PUSH2 0xA02 DUP3 PUSH2 0x6B6 JUMP JUMPDEST SWAP2 POP PUSH2 0xA0D DUP4 PUSH2 0x6B6 JUMP JUMPDEST SWAP3 POP DUP3 PUSH2 0xA1D JUMPI PUSH2 0xA1C PUSH2 0x9C8 JUMP JUMPDEST JUMPDEST DUP3 DUP3 DIV SWAP1 POP SWAP3 SWAP2 POP POP JUMP JUMPDEST PUSH32 0x4E487B7100000000000000000000000000000000000000000000000000000000 PUSH1 0x0 MSTORE PUSH1 0x41 PUSH1 0x4 MSTORE PUSH1 0x24 PUSH1 0x0 REVERT JUMPDEST PUSH1 0x0 PUSH2 0xA62 DUP3 PUSH2 0x6B6 JUMP JUMPDEST SWAP2 POP PUSH2 0xA6D DUP4 PUSH2 0x6B6 JUMP JUMPDEST SWAP3 POP DUP3 DUP3 LT ISZERO PUSH2 0xA80 JUMPI PUSH2 0xA7F PUSH2 0x874 JUMP JUMPDEST JUMPDEST DUP3 DUP3 SUB SWAP1 POP SWAP3 SWAP2 POP POP JUMP JUMPDEST PUSH1 0x0 PUSH2 0xA96 DUP3 PUSH2 0x6B6 JUMP JUMPDEST SWAP2 POP PUSH2 0xAA1 DUP4 PUSH2 0x6B6 JUMP JUMPDEST SWAP3 POP DUP3 PUSH2 0xAB1 JUMPI PUSH2 0xAB0 PUSH2 0x9C8 JUMP JUMPDEST JUMPDEST DUP3 DUP3 MOD SWAP1 POP SWAP3 SWAP2 POP POP JUMP JUMPDEST PUSH1 0x0 PUSH2 0xAC7 DUP3 PUSH2 0x6B6 JUMP JUMPDEST SWAP2 POP PUSH2 0xAD2 DUP4 PUSH2 0x6B6 JUMP JUMPDEST SWAP3 POP DUP3 PUSH32 0xFFFFFFFFFFFFFFFFFFFFFFFFFFFFFFFFFFFFFFFFFFFFFFFFFFFFFFFFFFFFFFFF SUB DUP3 GT ISZERO PUSH2 0xB07 JUMPI PUSH2 0xB06 PUSH2 0x874 JUMP JUMPDEST JUMPDEST DUP3 DUP3 ADD SWAP1 POP SWAP3 SWAP2 POP POP JUMP INVALID LOG2 PUSH5 0x6970667358 0x22 SLT KECCAK256 0xCF PUSH4 0x8BAC0247 0xD9 0xB3 0xB5 SWAP4 ISZERO PUSH17 0xAB1624DA43BF425BCA8A1439EBD000483F JUMPDEST 0xAA SLT PUSH5 0x736F6C6343 STOP ADDMOD 0xD STOP CALLER "
				},
				"gasEstimates": {
					"creation": {
						"codeDepositCost": "577600",
						"executionCost": "infinite",
						"totalCost": "infinite"
					},
					"external": {
						"getAllTimeouts()": "infinite",
						"getOneTimeout(uint256)": "infinite",
						"isTimeoutEnded(uint32,uint32)": "infinite",
						"setTimeoutEnd(uint256,uint32)": "infinite"
					}
				},
				"methodIdentifiers": {
					"getAllTimeouts()": "1e5dca7f",
					"getOneTimeout(uint256)": "2286f651",
					"isTimeoutEnded(uint32,uint32)": "51a9241c",
					"setTimeoutEnd(uint256,uint32)": "233a985f"
				}
			},
			"storageLayout": {
				"storage": [
					{
						"astId": 975,
						"contract": "contracts/lib/referencesCode-eai/Timeout_refCod.sol:Timeout_refCod",
						"label": "timeout",
						"offset": 0,
						"slot": "0",
						"type": "t_array(t_struct(Timeout)573_storage)dyn_storage"
					}
				],
				"types": {
					"t_array(t_struct(Timeout)573_storage)dyn_storage": {
						"base": "t_struct(Timeout)573_storage",
						"encoding": "dynamic_array",
						"label": "struct EAI.Timeout[]",
						"numberOfBytes": "32"
					},
					"t_struct(Timeout)573_storage": {
						"encoding": "inplace",
						"label": "struct EAI.Timeout",
						"members": [
							{
								"astId": 570,
								"contract": "contracts/lib/referencesCode-eai/Timeout_refCod.sol:Timeout_refCod",
								"label": "endTime",
								"offset": 0,
								"slot": "0",
								"type": "t_uint32"
							},
							{
								"astId": 572,
								"contract": "contracts/lib/referencesCode-eai/Timeout_refCod.sol:Timeout_refCod",
								"label": "timeIncrement",
								"offset": 4,
								"slot": "0",
								"type": "t_uint32"
							}
						],
						"numberOfBytes": "32"
					},
					"t_uint32": {
						"encoding": "inplace",
						"label": "uint32",
						"numberOfBytes": "4"
					}
				}
			},
			"userdoc": {
				"kind": "user",
				"methods": {},
				"version": 1
			}
		}
	}
}