{
	"contracts/study-case-contracts/002-orcid/Orcid.sol": {
		"Orcid": {
			"abi": [
				{
					"inputs": [
						{
							"internalType": "address",
							"name": "_applicationWallet",
							"type": "address"
						}
					],
					"stateMutability": "nonpayable",
					"type": "constructor"
				},
				{
					"anonymous": false,
					"inputs": [
						{
							"indexed": false,
							"internalType": "string",
							"name": "_logMessage",
							"type": "string"
						}
					],
					"name": "failEvent",
					"type": "event"
				},
				{
					"anonymous": false,
					"inputs": [
						{
							"indexed": false,
							"internalType": "string",
							"name": "_logMessage",
							"type": "string"
						}
					],
					"name": "successEvent",
					"type": "event"
				},
				{
					"inputs": [
						{
							"internalType": "string",
							"name": "_name",
							"type": "string"
						},
						{
							"internalType": "address",
							"name": "_walletAddress",
							"type": "address"
						}
					],
					"name": "changeApplicationParty",
					"outputs": [
						{
							"internalType": "bool",
							"name": "",
							"type": "bool"
						}
					],
					"stateMutability": "nonpayable",
					"type": "function"
				},
				{
					"inputs": [],
					"name": "getApplicationAddress",
					"outputs": [
						{
							"internalType": "address",
							"name": "",
							"type": "address"
						}
					],
					"stateMutability": "view",
					"type": "function"
				},
				{
					"inputs": [
						{
							"internalType": "address",
							"name": "_walletAddress",
							"type": "address"
						}
					],
					"name": "getParty",
					"outputs": [
						{
							"components": [
								{
									"internalType": "string",
									"name": "name",
									"type": "string"
								},
								{
									"internalType": "address",
									"name": "walletAddress",
									"type": "address"
								},
								{
									"internalType": "bool",
									"name": "aware",
									"type": "bool"
								}
							],
							"internalType": "struct EAI.Party",
							"name": "",
							"type": "tuple"
						}
					],
					"stateMutability": "view",
					"type": "function"
				},
				{
					"inputs": [],
					"name": "getProcessAddress",
					"outputs": [
						{
							"internalType": "address",
							"name": "",
							"type": "address"
						}
					],
					"stateMutability": "view",
					"type": "function"
				},
				{
					"inputs": [
						{
							"internalType": "uint32",
							"name": "_accessDateTime",
							"type": "uint32"
						},
						{
							"internalType": "bool[]",
							"name": "_resultFromXpath",
							"type": "bool[]"
						}
					],
					"name": "obligation_responseWorks",
					"outputs": [
						{
							"internalType": "bool",
							"name": "",
							"type": "bool"
						}
					],
					"stateMutability": "nonpayable",
					"type": "function"
				},
				{
					"inputs": [
						{
							"internalType": "uint8",
							"name": "_weekDay",
							"type": "uint8"
						},
						{
							"internalType": "uint32",
							"name": "_accessTime",
							"type": "uint32"
						},
						{
							"internalType": "uint32",
							"name": "_accessDateTime",
							"type": "uint32"
						}
					],
					"name": "right_requestAllWorks",
					"outputs": [
						{
							"internalType": "bool",
							"name": "",
							"type": "bool"
						}
					],
					"stateMutability": "nonpayable",
					"type": "function"
				},
				{
					"inputs": [],
					"name": "signContract",
					"outputs": [
						{
							"internalType": "bool",
							"name": "",
							"type": "bool"
						}
					],
					"stateMutability": "nonpayable",
					"type": "function"
				}
			],
			"devdoc": {
				"kind": "dev",
				"methods": {},
				"version": 1
			},
			"evm": {
				"assembly": "    /* \"contracts/study-case-contracts/002-orcid/Orcid.sol\":190:6890  contract Orcid {... */\n  mstore(0x40, 0x80)\n    /* \"contracts/study-case-contracts/002-orcid/Orcid.sol\":2032:3183  constructor(address _applicationWallet){... */\n  callvalue\n  dup1\n  iszero\n  tag_1\n  jumpi\n  0x00\n  dup1\n  revert\ntag_1:\n  pop\n  mload(0x40)\n  sub(codesize, bytecodeSize)\n  dup1\n  bytecodeSize\n  dup4\n  codecopy\n  dup2\n  dup2\n  add\n  0x40\n  mstore\n  dup2\n  add\n  swap1\n  tag_2\n  swap2\n  swap1\n  tag_3\n  jump\t// in\ntag_2:\n    /* \"contracts/study-case-contracts/002-orcid/Orcid.sol\":2148:2158  1672560000 */\n  0x63b13d80\n    /* \"contracts/study-case-contracts/002-orcid/Orcid.sol\":2136:2145  beginDate */\n  0x00\n  dup1\n    /* \"contracts/study-case-contracts/002-orcid/Orcid.sol\":2136:2158  beginDate = 1672560000 */\n  0x0100\n  exp\n  dup2\n  sload\n  dup2\n  0xffffffff\n  mul\n  not\n  and\n  swap1\n  dup4\n  0xffffffff\n  and\n  mul\n  or\n  swap1\n  sstore\n  pop\n    /* \"contracts/study-case-contracts/002-orcid/Orcid.sol\":2212:2222  1735603200 */\n  0x67733400\n    /* \"contracts/study-case-contracts/002-orcid/Orcid.sol\":2202:2209  dueDate */\n  0x00\n  0x04\n    /* \"contracts/study-case-contracts/002-orcid/Orcid.sol\":2202:2222  dueDate = 1735603200 */\n  0x0100\n  exp\n  dup2\n  sload\n  dup2\n  0xffffffff\n  mul\n  not\n  and\n  swap1\n  dup4\n  0xffffffff\n  and\n  mul\n  or\n  swap1\n  sstore\n  pop\n    /* \"contracts/study-case-contracts/002-orcid/Orcid.sol\":2316:2371  EAI.createParty(\"Orcid API\", _applicationWallet, false) */\n  tag_6\n  mload(0x40)\n  dup1\n  0x40\n  add\n  0x40\n  mstore\n  dup1\n  0x09\n  dup2\n  mstore\n  0x20\n  add\n  0x4f72636964204150490000000000000000000000000000000000000000000000\n  dup2\n  mstore\n  pop\n    /* \"contracts/study-case-contracts/002-orcid/Orcid.sol\":2345:2363  _applicationWallet */\n  dup3\n    /* \"contracts/study-case-contracts/002-orcid/Orcid.sol\":2365:2370  false */\n  0x00\n    /* \"contracts/study-case-contracts/002-orcid/Orcid.sol\":2316:2331  EAI.createParty */\n  or(tag_0_43, shl(0x20, tag_7))\n    /* \"contracts/study-case-contracts/002-orcid/Orcid.sol\":2316:2371  EAI.createParty(\"Orcid API\", _applicationWallet, false) */\n  0x20\n  shr\n  jump\t// in\ntag_6:\n    /* \"contracts/study-case-contracts/002-orcid/Orcid.sol\":2302:2313  application */\n  0x01\n    /* \"contracts/study-case-contracts/002-orcid/Orcid.sol\":2302:2371  application = EAI.createParty(\"Orcid API\", _applicationWallet, false) */\n  0x00\n  dup3\n  add\n  mload\n  dup2\n  0x00\n  add\n  swap1\n  dup1\n  mload\n  swap1\n  0x20\n  add\n  swap1\n  tag_8\n  swap3\n  swap2\n  swap1\n  tag_9\n  jump\t// in\ntag_8:\n  pop\n  0x20\n  dup3\n  add\n  mload\n  dup2\n  0x01\n  add\n  exp(0x0100, 0x00)\n  dup2\n  sload\n  dup2\n  0xffffffffffffffffffffffffffffffffffffffff\n  mul\n  not\n  and\n  swap1\n  dup4\n  0xffffffffffffffffffffffffffffffffffffffff\n  and\n  mul\n  or\n  swap1\n  sstore\n  pop\n  0x40\n  dup3\n  add\n  mload\n  dup2\n  0x01\n  add\n  exp(0x0100, 0x14)\n  dup2\n  sload\n  dup2\n  0xff\n  mul\n  not\n  and\n  swap1\n  dup4\n  iszero\n  iszero\n  mul\n  or\n  swap1\n  sstore\n  pop\n  swap1\n  pop\n  pop\n    /* \"contracts/study-case-contracts/002-orcid/Orcid.sol\":2424:2480  EAI.createParty(\"Integration Process\", msg.sender, true) */\n  tag_10\n  mload(0x40)\n  dup1\n  0x40\n  add\n  0x40\n  mstore\n  dup1\n  0x13\n  dup2\n  mstore\n  0x20\n  add\n  0x496e746567726174696f6e2050726f6365737300000000000000000000000000\n  dup2\n  mstore\n  pop\n    /* \"contracts/study-case-contracts/002-orcid/Orcid.sol\":2463:2473  msg.sender */\n  caller\n    /* \"contracts/study-case-contracts/002-orcid/Orcid.sol\":2475:2479  true */\n  0x01\n    /* \"contracts/study-case-contracts/002-orcid/Orcid.sol\":2424:2439  EAI.createParty */\n  or(tag_0_43, shl(0x20, tag_7))\n    /* \"contracts/study-case-contracts/002-orcid/Orcid.sol\":2424:2480  EAI.createParty(\"Integration Process\", msg.sender, true) */\n  0x20\n  shr\n  jump\t// in\ntag_10:\n    /* \"contracts/study-case-contracts/002-orcid/Orcid.sol\":2414:2421  process */\n  0x03\n    /* \"contracts/study-case-contracts/002-orcid/Orcid.sol\":2414:2480  process = EAI.createParty(\"Integration Process\", msg.sender, true) */\n  0x00\n  dup3\n  add\n  mload\n  dup2\n  0x00\n  add\n  swap1\n  dup1\n  mload\n  swap1\n  0x20\n  add\n  swap1\n  tag_11\n  swap3\n  swap2\n  swap1\n  tag_9\n  jump\t// in\ntag_11:\n  pop\n  0x20\n  dup3\n  add\n  mload\n  dup2\n  0x01\n  add\n  exp(0x0100, 0x00)\n  dup2\n  sload\n  dup2\n  0xffffffffffffffffffffffffffffffffffffffff\n  mul\n  not\n  and\n  swap1\n  dup4\n  0xffffffffffffffffffffffffffffffffffffffff\n  and\n  mul\n  or\n  swap1\n  sstore\n  pop\n  0x40\n  dup3\n  add\n  mload\n  dup2\n  0x01\n  add\n  exp(0x0100, 0x14)\n  dup2\n  sload\n  dup2\n  0xff\n  mul\n  not\n  and\n  swap1\n  dup4\n  iszero\n  iszero\n  mul\n  or\n  swap1\n  sstore\n  pop\n  swap1\n  pop\n  pop\n    /* \"contracts/study-case-contracts/002-orcid/Orcid.sol\":2555:2562  process */\n  0x03\n    /* \"contracts/study-case-contracts/002-orcid/Orcid.sol\":2532:2540  mapParty */\n  0x05\n    /* \"contracts/study-case-contracts/002-orcid/Orcid.sol\":2532:2552  mapParty[msg.sender] */\n  0x00\n    /* \"contracts/study-case-contracts/002-orcid/Orcid.sol\":2541:2551  msg.sender */\n  caller\n    /* \"contracts/study-case-contracts/002-orcid/Orcid.sol\":2532:2552  mapParty[msg.sender] */\n  0xffffffffffffffffffffffffffffffffffffffff\n  and\n  0xffffffffffffffffffffffffffffffffffffffff\n  and\n  dup2\n  mstore\n  0x20\n  add\n  swap1\n  dup2\n  mstore\n  0x20\n  add\n  0x00\n  keccak256\n    /* \"contracts/study-case-contracts/002-orcid/Orcid.sol\":2532:2562  mapParty[msg.sender] = process */\n  0x00\n  dup3\n  add\n  dup2\n  0x00\n  add\n  swap1\n  dup1\n  sload\n  tag_12\n  swap1\n  tag_13\n  jump\t// in\ntag_12:\n  tag_14\n  swap3\n  swap2\n  swap1\n  tag_15\n  jump\t// in\ntag_14:\n  pop\n  0x01\n  dup3\n  add\n  0x00\n  swap1\n  sload\n  swap1\n  0x0100\n  exp\n  swap1\n  div\n  0xffffffffffffffffffffffffffffffffffffffff\n  and\n  dup2\n  0x01\n  add\n  exp(0x0100, 0x00)\n  dup2\n  sload\n  dup2\n  0xffffffffffffffffffffffffffffffffffffffff\n  mul\n  not\n  and\n  swap1\n  dup4\n  0xffffffffffffffffffffffffffffffffffffffff\n  and\n  mul\n  or\n  swap1\n  sstore\n  pop\n  0x01\n  dup3\n  add\n  0x14\n  swap1\n  sload\n  swap1\n  0x0100\n  exp\n  swap1\n  div\n  0xff\n  and\n  dup2\n  0x01\n  add\n  exp(0x0100, 0x14)\n  dup2\n  sload\n  dup2\n  0xff\n  mul\n  not\n  and\n  swap1\n  dup4\n  iszero\n  iszero\n  mul\n  or\n  swap1\n  sstore\n  pop\n  swap1\n  pop\n  pop\n    /* \"contracts/study-case-contracts/002-orcid/Orcid.sol\":2604:2615  application */\n  0x01\n    /* \"contracts/study-case-contracts/002-orcid/Orcid.sol\":2573:2581  mapParty */\n  0x05\n    /* \"contracts/study-case-contracts/002-orcid/Orcid.sol\":2573:2601  mapParty[_applicationWallet] */\n  0x00\n    /* \"contracts/study-case-contracts/002-orcid/Orcid.sol\":2582:2600  _applicationWallet */\n  dup4\n    /* \"contracts/study-case-contracts/002-orcid/Orcid.sol\":2573:2601  mapParty[_applicationWallet] */\n  0xffffffffffffffffffffffffffffffffffffffff\n  and\n  0xffffffffffffffffffffffffffffffffffffffff\n  and\n  dup2\n  mstore\n  0x20\n  add\n  swap1\n  dup2\n  mstore\n  0x20\n  add\n  0x00\n  keccak256\n    /* \"contracts/study-case-contracts/002-orcid/Orcid.sol\":2573:2615  mapParty[_applicationWallet] = application */\n  0x00\n  dup3\n  add\n  dup2\n  0x00\n  add\n  swap1\n  dup1\n  sload\n  tag_16\n  swap1\n  tag_13\n  jump\t// in\ntag_16:\n  tag_17\n  swap3\n  swap2\n  swap1\n  tag_15\n  jump\t// in\ntag_17:\n  pop\n  0x01\n  dup3\n  add\n  0x00\n  swap1\n  sload\n  swap1\n  0x0100\n  exp\n  swap1\n  div\n  0xffffffffffffffffffffffffffffffffffffffff\n  and\n  dup2\n  0x01\n  add\n  exp(0x0100, 0x00)\n  dup2\n  sload\n  dup2\n  0xffffffffffffffffffffffffffffffffffffffff\n  mul\n  not\n  and\n  swap1\n  dup4\n  0xffffffffffffffffffffffffffffffffffffffff\n  and\n  mul\n  or\n  swap1\n  sstore\n  pop\n  0x01\n  dup3\n  add\n  0x14\n  swap1\n  sload\n  swap1\n  0x0100\n  exp\n  swap1\n  div\n  0xff\n  and\n  dup2\n  0x01\n  add\n  exp(0x0100, 0x14)\n  dup2\n  sload\n  dup2\n  0xff\n  mul\n  not\n  and\n  swap1\n  dup4\n  iszero\n  iszero\n  mul\n  or\n  swap1\n  sstore\n  pop\n  swap1\n  pop\n  pop\n    /* \"contracts/study-case-contracts/002-orcid/Orcid.sol\":2734:2753  weekDaysInterval_C1 */\n  0x06\n    /* \"contracts/study-case-contracts/002-orcid/Orcid.sol\":2759:2811  EAI.createWeekDaysInterval(EAI.SUNDAY, EAI.SATURDAY) */\n  tag_18\n    /* \"contracts/lib/eai/EAI.sol\":431:432  0 */\n  0x00\n    /* \"contracts/lib/eai/EAI.sol\":619:620  6 */\n  0x06\n    /* \"contracts/study-case-contracts/002-orcid/Orcid.sol\":2759:2785  EAI.createWeekDaysInterval */\n  or(tag_0_44, shl(0x20, tag_19))\n    /* \"contracts/study-case-contracts/002-orcid/Orcid.sol\":2759:2811  EAI.createWeekDaysInterval(EAI.SUNDAY, EAI.SATURDAY) */\n  0x20\n  shr\n  jump\t// in\ntag_18:\n    /* \"contracts/study-case-contracts/002-orcid/Orcid.sol\":2734:2812  weekDaysInterval_C1.push(EAI.createWeekDaysInterval(EAI.SUNDAY, EAI.SATURDAY)) */\n  swap1\n  dup1\n  0x01\n  dup2\n  sload\n  add\n  dup1\n  dup3\n  sstore\n  dup1\n  swap2\n  pop\n  pop\n  0x01\n  swap1\n  sub\n  swap1\n  0x00\n  mstore\n  keccak256(0x00, 0x20)\n  add\n  0x00\n  swap1\n  swap2\n  swap1\n  swap2\n  swap1\n  swap2\n  pop\n  0x00\n  dup3\n  add\n  mload\n  dup2\n  0x00\n  add\n  exp(0x0100, 0x00)\n  dup2\n  sload\n  dup2\n  0xff\n  mul\n  not\n  and\n  swap1\n  dup4\n  0xff\n  and\n  mul\n  or\n  swap1\n  sstore\n  pop\n  0x20\n  dup3\n  add\n  mload\n  dup2\n  0x00\n  add\n  exp(0x0100, 0x01)\n  dup2\n  sload\n  dup2\n  0xff\n  mul\n  not\n  and\n  swap1\n  dup4\n  0xff\n  and\n  mul\n  or\n  swap1\n  sstore\n  pop\n  pop\n  pop\n    /* \"contracts/study-case-contracts/002-orcid/Orcid.sol\":2823:2838  timeInterval_C1 */\n  0x07\n    /* \"contracts/study-case-contracts/002-orcid/Orcid.sol\":2844:2877  EAI.createTimeInterval(0, 86399 ) */\n  tag_21\n    /* \"contracts/study-case-contracts/002-orcid/Orcid.sol\":2867:2868  0 */\n  0x00\n    /* \"contracts/study-case-contracts/002-orcid/Orcid.sol\":2870:2875  86399 */\n  0x01517f\n    /* \"contracts/study-case-contracts/002-orcid/Orcid.sol\":2844:2866  EAI.createTimeInterval */\n  or(tag_0_45, shl(0x20, tag_22))\n    /* \"contracts/study-case-contracts/002-orcid/Orcid.sol\":2844:2877  EAI.createTimeInterval(0, 86399 ) */\n  0x20\n  shr\n  jump\t// in\ntag_21:\n    /* \"contracts/study-case-contracts/002-orcid/Orcid.sol\":2823:2878  timeInterval_C1.push(EAI.createTimeInterval(0, 86399 )) */\n  swap1\n  dup1\n  0x01\n  dup2\n  sload\n  add\n  dup1\n  dup3\n  sstore\n  dup1\n  swap2\n  pop\n  pop\n  0x01\n  swap1\n  sub\n  swap1\n  0x00\n  mstore\n  keccak256(0x00, 0x20)\n  add\n  0x00\n  swap1\n  swap2\n  swap1\n  swap2\n  swap1\n  swap2\n  pop\n  0x00\n  dup3\n  add\n  mload\n  dup2\n  0x00\n  add\n  exp(0x0100, 0x00)\n  dup2\n  sload\n  dup2\n  0xffffffff\n  mul\n  not\n  and\n  swap1\n  dup4\n  0xffffffff\n  and\n  mul\n  or\n  swap1\n  sstore\n  pop\n  0x20\n  dup3\n  add\n  mload\n  dup2\n  0x00\n  add\n  exp(0x0100, 0x04)\n  dup2\n  sload\n  dup2\n  0xffffffff\n  mul\n  not\n  and\n  swap1\n  dup4\n  0xffffffff\n  and\n  mul\n  or\n  swap1\n  sstore\n  pop\n  pop\n  pop\n    /* \"contracts/study-case-contracts/002-orcid/Orcid.sol\":2889:2918  maxNumberOfOperationByTime_C1 */\n  0x08\n    /* \"contracts/study-case-contracts/002-orcid/Orcid.sol\":2924:2975  EAI.createMaxNumberOfOperationByTime(24,EAI.SECOND) */\n  tag_24\n    /* \"contracts/study-case-contracts/002-orcid/Orcid.sol\":2961:2963  24 */\n  0x18\n    /* \"contracts/lib/eai/EAI.sol\":666:667  0 */\n  0x00\n    /* \"contracts/study-case-contracts/002-orcid/Orcid.sol\":2924:2960  EAI.createMaxNumberOfOperationByTime */\n  or(tag_0_46, shl(0x20, tag_25))\n    /* \"contracts/study-case-contracts/002-orcid/Orcid.sol\":2924:2975  EAI.createMaxNumberOfOperationByTime(24,EAI.SECOND) */\n  0x20\n  shr\n  jump\t// in\ntag_24:\n    /* \"contracts/study-case-contracts/002-orcid/Orcid.sol\":2889:2976  maxNumberOfOperationByTime_C1.push(EAI.createMaxNumberOfOperationByTime(24,EAI.SECOND)) */\n  swap1\n  dup1\n  0x01\n  dup2\n  sload\n  add\n  dup1\n  dup3\n  sstore\n  dup1\n  swap2\n  pop\n  pop\n  0x01\n  swap1\n  sub\n  swap1\n  0x00\n  mstore\n  keccak256(0x00, 0x20)\n  add\n  0x00\n  swap1\n  swap2\n  swap1\n  swap2\n  swap1\n  swap2\n  pop\n  0x00\n  dup3\n  add\n  mload\n  dup2\n  0x00\n  add\n  exp(0x0100, 0x00)\n  dup2\n  sload\n  dup2\n  0xffffffff\n  mul\n  not\n  and\n  swap1\n  dup4\n  0xffffffff\n  and\n  mul\n  or\n  swap1\n  sstore\n  pop\n  0x20\n  dup3\n  add\n  mload\n  dup2\n  0x00\n  add\n  exp(0x0100, 0x04)\n  dup2\n  sload\n  dup2\n  0xff\n  mul\n  not\n  and\n  swap1\n  dup4\n  0xff\n  and\n  mul\n  or\n  swap1\n  sstore\n  pop\n  0x40\n  dup3\n  add\n  mload\n  dup2\n  0x00\n  add\n  exp(0x0100, 0x05)\n  dup2\n  sload\n  dup2\n  0xffffffff\n  mul\n  not\n  and\n  swap1\n  dup4\n  0xffffffff\n  and\n  mul\n  or\n  swap1\n  sstore\n  pop\n  0x60\n  dup3\n  add\n  mload\n  dup2\n  0x00\n  add\n  exp(0x0100, 0x09)\n  dup2\n  sload\n  dup2\n  0xffffffff\n  mul\n  not\n  and\n  swap1\n  dup4\n  0xffffffff\n  and\n  mul\n  or\n  swap1\n  sstore\n  pop\n  0x80\n  dup3\n  add\n  mload\n  dup2\n  0x00\n  add\n  exp(0x0100, 0x0d)\n  dup2\n  sload\n  dup2\n  0xffffffff\n  mul\n  not\n  and\n  swap1\n  dup4\n  0xffffffff\n  and\n  mul\n  or\n  swap1\n  sstore\n  pop\n  pop\n  pop\n    /* \"contracts/study-case-contracts/002-orcid/Orcid.sol\":2989:2999  timeout_C2 */\n  0x09\n    /* \"contracts/study-case-contracts/002-orcid/Orcid.sol\":3005:3026  EAI.createTimeout(60) */\n  tag_27\n    /* \"contracts/study-case-contracts/002-orcid/Orcid.sol\":3023:3025  60 */\n  0x3c\n    /* \"contracts/study-case-contracts/002-orcid/Orcid.sol\":3005:3022  EAI.createTimeout */\n  or(tag_0_47, shl(0x20, tag_28))\n    /* \"contracts/study-case-contracts/002-orcid/Orcid.sol\":3005:3026  EAI.createTimeout(60) */\n  0x20\n  shr\n  jump\t// in\ntag_27:\n    /* \"contracts/study-case-contracts/002-orcid/Orcid.sol\":2989:3027  timeout_C2.push(EAI.createTimeout(60)) */\n  swap1\n  dup1\n  0x01\n  dup2\n  sload\n  add\n  dup1\n  dup3\n  sstore\n  dup1\n  swap2\n  pop\n  pop\n  0x01\n  swap1\n  sub\n  swap1\n  0x00\n  mstore\n  keccak256(0x00, 0x20)\n  add\n  0x00\n  swap1\n  swap2\n  swap1\n  swap2\n  swap1\n  swap2\n  pop\n  0x00\n  dup3\n  add\n  mload\n  dup2\n  0x00\n  add\n  exp(0x0100, 0x00)\n  dup2\n  sload\n  dup2\n  0xffffffff\n  mul\n  not\n  and\n  swap1\n  dup4\n  0xffffffff\n  and\n  mul\n  or\n  swap1\n  sstore\n  pop\n  0x20\n  dup3\n  add\n  mload\n  dup2\n  0x00\n  add\n  exp(0x0100, 0x04)\n  dup2\n  sload\n  dup2\n  0xffffffff\n  mul\n  not\n  and\n  swap1\n  dup4\n  0xffffffff\n  and\n  mul\n  or\n  swap1\n  sstore\n  pop\n  pop\n  pop\n    /* \"contracts/study-case-contracts/002-orcid/Orcid.sol\":3038:3060  msgContent_onlyPath_C2 */\n  0x0a\n    /* \"contracts/study-case-contracts/002-orcid/Orcid.sol\":3066:3169  EAI.createMessageContent_onlyXPath(\"count(//body/request/document) == count(//body/response/document)\") */\n  tag_30\n  mload(0x40)\n  dup1\n  0x80\n  add\n  0x40\n  mstore\n  dup1\n  0x41\n  dup2\n  mstore\n  0x20\n  add\n  data_fcb1aa9975f6d8f3fae14b5398f45c22fe6c7e61400b0ac0a2d00c3174df729a\n  0x41\n  swap2\n  codecopy\n    /* \"contracts/study-case-contracts/002-orcid/Orcid.sol\":3066:3100  EAI.createMessageContent_onlyXPath */\n  or(tag_0_48, shl(0x20, tag_31))\n    /* \"contracts/study-case-contracts/002-orcid/Orcid.sol\":3066:3169  EAI.createMessageContent_onlyXPath(\"count(//body/request/document) == count(//body/response/document)\") */\n  0x20\n  shr\n  jump\t// in\ntag_30:\n    /* \"contracts/study-case-contracts/002-orcid/Orcid.sol\":3038:3170  msgContent_onlyPath_C2.push(EAI.createMessageContent_onlyXPath(\"count(//body/request/document) == count(//body/response/document)\")) */\n  swap1\n  dup1\n  0x01\n  dup2\n  sload\n  add\n  dup1\n  dup3\n  sstore\n  dup1\n  swap2\n  pop\n  pop\n  0x01\n  swap1\n  sub\n  swap1\n  0x00\n  mstore\n  keccak256(0x00, 0x20)\n  add\n  0x00\n  swap1\n  swap2\n  swap1\n  swap2\n  swap1\n  swap2\n  pop\n  0x00\n  dup3\n  add\n  mload\n  dup2\n  0x00\n  add\n  swap1\n  dup1\n  mload\n  swap1\n  0x20\n  add\n  swap1\n  tag_33\n  swap3\n  swap2\n  swap1\n  tag_9\n  jump\t// in\ntag_33:\n  pop\n  pop\n  pop\n    /* \"contracts/study-case-contracts/002-orcid/Orcid.sol\":2032:3183  constructor(address _applicationWallet){... */\n  pop\n    /* \"contracts/study-case-contracts/002-orcid/Orcid.sol\":190:6890  contract Orcid {... */\n  jump(tag_34)\n    /* \"contracts/lib/eai/EAI.sol\":1588:1764  function createParty(string memory _name, address _walletAddress, bool _aware) internal pure returns(Party memory){... */\ntag_7:\n    /* \"contracts/lib/eai/EAI.sol\":1689:1701  Party memory */\n  tag_35\n  tag_36\n  jump\t// in\ntag_35:\n    /* \"contracts/lib/eai/EAI.sol\":1720:1756  Party(_name, _walletAddress, _aware) */\n  mload(0x40)\n  dup1\n  0x60\n  add\n  0x40\n  mstore\n  dup1\n    /* \"contracts/lib/eai/EAI.sol\":1726:1731  _name */\n  dup6\n    /* \"contracts/lib/eai/EAI.sol\":1720:1756  Party(_name, _walletAddress, _aware) */\n  dup2\n  mstore\n  0x20\n  add\n    /* \"contracts/lib/eai/EAI.sol\":1733:1747  _walletAddress */\n  dup5\n    /* \"contracts/lib/eai/EAI.sol\":1720:1756  Party(_name, _walletAddress, _aware) */\n  0xffffffffffffffffffffffffffffffffffffffff\n  and\n  dup2\n  mstore\n  0x20\n  add\n    /* \"contracts/lib/eai/EAI.sol\":1749:1755  _aware */\n  dup4\n    /* \"contracts/lib/eai/EAI.sol\":1720:1756  Party(_name, _walletAddress, _aware) */\n  iszero\n  iszero\n  dup2\n  mstore\n  pop\n    /* \"contracts/lib/eai/EAI.sol\":1713:1756  return Party(_name, _walletAddress, _aware) */\n  swap1\n  pop\n    /* \"contracts/lib/eai/EAI.sol\":1588:1764  function createParty(string memory _name, address _walletAddress, bool _aware) internal pure returns(Party memory){... */\n  swap4\n  swap3\n  pop\n  pop\n  pop\n  jump\t// out\n    /* \"contracts/lib/eai/EAI.sol\":2808:3028  function createWeekDaysInterval(... */\ntag_19:\n    /* \"contracts/lib/eai/EAI.sol\":2948:2971  WeekDaysInterval memory */\n  tag_38\n  tag_39\n  jump\t// in\ntag_38:\n    /* \"contracts/lib/eai/EAI.sol\":2924:2930  _start */\n  dup3\n    /* \"contracts/lib/eai/EAI.sol\":2932:2936  _end */\n  dup3\n    /* \"contracts/lib/eai/EAI.sol\":431:432  0 */\n  0x00\n    /* \"contracts/lib/eai/EAI.sol\":4953:4972  _startDay >= SUNDAY */\n  0xff\n  and\n    /* \"contracts/lib/eai/EAI.sol\":4953:4962  _startDay */\n  dup3\n    /* \"contracts/lib/eai/EAI.sol\":4953:4972  _startDay >= SUNDAY */\n  0xff\n  and\n  lt\n  iszero\n    /* \"contracts/lib/eai/EAI.sol\":4953:4997  _startDay >= SUNDAY && _startDay <= SATURDAY */\n  dup1\n  iszero\n  tag_41\n  jumpi\n  pop\n    /* \"contracts/lib/eai/EAI.sol\":619:620  6 */\n  0x06\n    /* \"contracts/lib/eai/EAI.sol\":4976:4997  _startDay <= SATURDAY */\n  0xff\n  and\n    /* \"contracts/lib/eai/EAI.sol\":4976:4985  _startDay */\n  dup3\n    /* \"contracts/lib/eai/EAI.sol\":4976:4997  _startDay <= SATURDAY */\n  0xff\n  and\n  gt\n  iszero\n    /* \"contracts/lib/eai/EAI.sol\":4953:4997  _startDay >= SUNDAY && _startDay <= SATURDAY */\ntag_41:\n    /* \"contracts/lib/eai/EAI.sol\":4944:5042  require( _startDay >= SUNDAY && _startDay <= SATURDAY, \"The _startDay not represents a valid day\") */\n  tag_42\n  jumpi\n  mload(0x40)\n  0x08c379a000000000000000000000000000000000000000000000000000000000\n  dup2\n  mstore\n  0x04\n  add\n  tag_43\n  swap1\n  tag_44\n  jump\t// in\ntag_43:\n  mload(0x40)\n  dup1\n  swap2\n  sub\n  swap1\n  revert\ntag_42:\n    /* \"contracts/lib/eai/EAI.sol\":431:432  0 */\n  0x00\n    /* \"contracts/lib/eai/EAI.sol\":5061:5078  _endDay >= SUNDAY */\n  0xff\n  and\n    /* \"contracts/lib/eai/EAI.sol\":5061:5068  _endDay */\n  dup2\n    /* \"contracts/lib/eai/EAI.sol\":5061:5078  _endDay >= SUNDAY */\n  0xff\n  and\n  lt\n  iszero\n    /* \"contracts/lib/eai/EAI.sol\":5061:5101  _endDay >= SUNDAY && _endDay <= SATURDAY */\n  dup1\n  iszero\n  tag_45\n  jumpi\n  pop\n    /* \"contracts/lib/eai/EAI.sol\":619:620  6 */\n  0x06\n    /* \"contracts/lib/eai/EAI.sol\":5082:5101  _endDay <= SATURDAY */\n  0xff\n  and\n    /* \"contracts/lib/eai/EAI.sol\":5082:5089  _endDay */\n  dup2\n    /* \"contracts/lib/eai/EAI.sol\":5082:5101  _endDay <= SATURDAY */\n  0xff\n  and\n  gt\n  iszero\n    /* \"contracts/lib/eai/EAI.sol\":5061:5101  _endDay >= SUNDAY && _endDay <= SATURDAY */\ntag_45:\n    /* \"contracts/lib/eai/EAI.sol\":5053:5145  require(_endDay >= SUNDAY && _endDay <= SATURDAY,  \"The _endDay not represents a valid day\") */\n  tag_46\n  jumpi\n  mload(0x40)\n  0x08c379a000000000000000000000000000000000000000000000000000000000\n  dup2\n  mstore\n  0x04\n  add\n  tag_47\n  swap1\n  tag_48\n  jump\t// in\ntag_47:\n  mload(0x40)\n  dup1\n  swap2\n  sub\n  swap1\n  revert\ntag_46:\n    /* \"contracts/lib/eai/EAI.sol\":2990:3020  WeekDaysInterval(_start, _end) */\n  mload(0x40)\n  dup1\n  0x40\n  add\n  0x40\n  mstore\n  dup1\n    /* \"contracts/lib/eai/EAI.sol\":3007:3013  _start */\n  dup7\n    /* \"contracts/lib/eai/EAI.sol\":2990:3020  WeekDaysInterval(_start, _end) */\n  0xff\n  and\n  dup2\n  mstore\n  0x20\n  add\n    /* \"contracts/lib/eai/EAI.sol\":3015:3019  _end */\n  dup6\n    /* \"contracts/lib/eai/EAI.sol\":2990:3020  WeekDaysInterval(_start, _end) */\n  0xff\n  and\n  dup2\n  mstore\n  pop\n    /* \"contracts/lib/eai/EAI.sol\":2983:3020  return WeekDaysInterval(_start, _end) */\n  swap3\n  pop\n    /* \"contracts/lib/eai/EAI.sol\":2808:3028  function createWeekDaysInterval(... */\n  pop\n  pop\n  swap3\n  swap2\n  pop\n  pop\n  jump\t// out\n    /* \"contracts/lib/eai/EAI.sol\":5722:5933  function createTimeInterval(... */\ntag_22:\n    /* \"contracts/lib/eai/EAI.sol\":5861:5880  TimeInterval memory */\n  tag_50\n  tag_51\n  jump\t// in\ntag_50:\n    /* \"contracts/lib/eai/EAI.sol\":5837:5843  _start */\n  dup3\n    /* \"contracts/lib/eai/EAI.sol\":5845:5849  _end */\n  dup3\n    /* \"contracts/lib/eai/EAI.sol\":990:991  0 */\n  0x00\n    /* \"contracts/lib/eai/EAI.sol\":7600:7620  _startHr >= MIN_HOUR */\n  0xffffffff\n  and\n    /* \"contracts/lib/eai/EAI.sol\":7600:7608  _startHr */\n  dup3\n    /* \"contracts/lib/eai/EAI.sol\":7600:7620  _startHr >= MIN_HOUR */\n  0xffffffff\n  and\n  lt\n  iszero\n    /* \"contracts/lib/eai/EAI.sol\":7600:7644  _startHr >= MIN_HOUR && _startHr <= MAX_HOUR */\n  dup1\n  iszero\n  tag_53\n  jumpi\n  pop\n    /* \"contracts/lib/eai/EAI.sol\":1024:1029  86399 */\n  0x01517f\n    /* \"contracts/lib/eai/EAI.sol\":7624:7644  _startHr <= MAX_HOUR */\n  0xffffffff\n  and\n    /* \"contracts/lib/eai/EAI.sol\":7624:7632  _startHr */\n  dup3\n    /* \"contracts/lib/eai/EAI.sol\":7624:7644  _startHr <= MAX_HOUR */\n  0xffffffff\n  and\n  gt\n  iszero\n    /* \"contracts/lib/eai/EAI.sol\":7600:7644  _startHr >= MIN_HOUR && _startHr <= MAX_HOUR */\ntag_53:\n    /* \"contracts/lib/eai/EAI.sol\":7591:7689  require( _startHr >= MIN_HOUR && _startHr <= MAX_HOUR, \"The _startDay not represents a valid day\") */\n  tag_54\n  jumpi\n  mload(0x40)\n  0x08c379a000000000000000000000000000000000000000000000000000000000\n  dup2\n  mstore\n  0x04\n  add\n  tag_55\n  swap1\n  tag_44\n  jump\t// in\ntag_55:\n  mload(0x40)\n  dup1\n  swap2\n  sub\n  swap1\n  revert\ntag_54:\n    /* \"contracts/lib/eai/EAI.sol\":990:991  0 */\n  0x00\n    /* \"contracts/lib/eai/EAI.sol\":7708:7726  _endHr >= MIN_HOUR */\n  0xffffffff\n  and\n    /* \"contracts/lib/eai/EAI.sol\":7708:7714  _endHr */\n  dup2\n    /* \"contracts/lib/eai/EAI.sol\":7708:7726  _endHr >= MIN_HOUR */\n  0xffffffff\n  and\n  lt\n  iszero\n    /* \"contracts/lib/eai/EAI.sol\":7708:7748  _endHr >= MIN_HOUR && _endHr <= MAX_HOUR */\n  dup1\n  iszero\n  tag_56\n  jumpi\n  pop\n    /* \"contracts/lib/eai/EAI.sol\":1024:1029  86399 */\n  0x01517f\n    /* \"contracts/lib/eai/EAI.sol\":7730:7748  _endHr <= MAX_HOUR */\n  0xffffffff\n  and\n    /* \"contracts/lib/eai/EAI.sol\":7730:7736  _endHr */\n  dup2\n    /* \"contracts/lib/eai/EAI.sol\":7730:7748  _endHr <= MAX_HOUR */\n  0xffffffff\n  and\n  gt\n  iszero\n    /* \"contracts/lib/eai/EAI.sol\":7708:7748  _endHr >= MIN_HOUR && _endHr <= MAX_HOUR */\ntag_56:\n    /* \"contracts/lib/eai/EAI.sol\":7700:7792  require(_endHr >= MIN_HOUR && _endHr <= MAX_HOUR,  \"The _endDay not represents a valid day\") */\n  tag_57\n  jumpi\n  mload(0x40)\n  0x08c379a000000000000000000000000000000000000000000000000000000000\n  dup2\n  mstore\n  0x04\n  add\n  tag_58\n  swap1\n  tag_48\n  jump\t// in\ntag_58:\n  mload(0x40)\n  dup1\n  swap2\n  sub\n  swap1\n  revert\ntag_57:\n    /* \"contracts/lib/eai/EAI.sol\":5899:5925  TimeInterval(_start, _end) */\n  mload(0x40)\n  dup1\n  0x40\n  add\n  0x40\n  mstore\n  dup1\n    /* \"contracts/lib/eai/EAI.sol\":5912:5918  _start */\n  dup7\n    /* \"contracts/lib/eai/EAI.sol\":5899:5925  TimeInterval(_start, _end) */\n  0xffffffff\n  and\n  dup2\n  mstore\n  0x20\n  add\n    /* \"contracts/lib/eai/EAI.sol\":5920:5924  _end */\n  dup6\n    /* \"contracts/lib/eai/EAI.sol\":5899:5925  TimeInterval(_start, _end) */\n  0xffffffff\n  and\n  dup2\n  mstore\n  pop\n    /* \"contracts/lib/eai/EAI.sol\":5892:5925  return TimeInterval(_start, _end) */\n  swap3\n  pop\n    /* \"contracts/lib/eai/EAI.sol\":5722:5933  function createTimeInterval(... */\n  pop\n  pop\n  swap3\n  swap2\n  pop\n  pop\n  jump\t// out\n    /* \"contracts/lib/eai/EAI.sol\":10916:11547  function createMaxNumberOfOperationByTime(... */\ntag_25:\n    /* \"contracts/lib/eai/EAI.sol\":11041:11074  MaxNumberOfOperationByTime memory */\n  tag_60\n  tag_61\n  jump\t// in\ntag_60:\n    /* \"contracts/lib/eai/EAI.sol\":11088:11104  uint32 auxByTime */\n  0x00\n    /* \"contracts/lib/eai/EAI.sol\":784:785  4 */\n  0x04\n    /* \"contracts/lib/eai/EAI.sol\":11120:11137  _timeUnit <= WEEK */\n  0xff\n  and\n    /* \"contracts/lib/eai/EAI.sol\":11120:11129  _timeUnit */\n  dup4\n    /* \"contracts/lib/eai/EAI.sol\":11120:11137  _timeUnit <= WEEK */\n  0xff\n  and\n  gt\n    /* \"contracts/lib/eai/EAI.sol\":11117:11453  if(_timeUnit <= WEEK){... */\n  tag_63\n  jumpi\n    /* \"contracts/lib/eai/EAI.sol\":11270:11297  getTimeInSeconds(_timeUnit) */\n  tag_64\n    /* \"contracts/lib/eai/EAI.sol\":11287:11296  _timeUnit */\n  dup4\n    /* \"contracts/lib/eai/EAI.sol\":11270:11286  getTimeInSeconds */\n  shl(0x20, tag_65)\n    /* \"contracts/lib/eai/EAI.sol\":11270:11297  getTimeInSeconds(_timeUnit) */\n  0x20\n  shr\n  jump\t// in\ntag_64:\n    /* \"contracts/lib/eai/EAI.sol\":11259:11297  auxByTime= getTimeInSeconds(_timeUnit) */\n  swap1\n  pop\n    /* \"contracts/lib/eai/EAI.sol\":11117:11453  if(_timeUnit <= WEEK){... */\n  jump(tag_66)\ntag_63:\n    /* \"contracts/lib/eai/EAI.sol\":11439:11440  1 */\n  0x01\n    /* \"contracts/lib/eai/EAI.sol\":11427:11440  auxByTime = 1 */\n  swap1\n  pop\n    /* \"contracts/lib/eai/EAI.sol\":11117:11453  if(_timeUnit <= WEEK){... */\ntag_66:\n    /* \"contracts/lib/eai/EAI.sol\":11470:11539  MaxNumberOfOperationByTime(_amount, _timeUnit, auxByTime, _amount, 0) */\n  mload(0x40)\n  dup1\n  0xa0\n  add\n  0x40\n  mstore\n  dup1\n    /* \"contracts/lib/eai/EAI.sol\":11497:11504  _amount */\n  dup6\n    /* \"contracts/lib/eai/EAI.sol\":11470:11539  MaxNumberOfOperationByTime(_amount, _timeUnit, auxByTime, _amount, 0) */\n  0xffffffff\n  and\n  dup2\n  mstore\n  0x20\n  add\n    /* \"contracts/lib/eai/EAI.sol\":11506:11515  _timeUnit */\n  dup5\n    /* \"contracts/lib/eai/EAI.sol\":11470:11539  MaxNumberOfOperationByTime(_amount, _timeUnit, auxByTime, _amount, 0) */\n  0xff\n  and\n  dup2\n  mstore\n  0x20\n  add\n    /* \"contracts/lib/eai/EAI.sol\":11517:11526  auxByTime */\n  dup3\n    /* \"contracts/lib/eai/EAI.sol\":11470:11539  MaxNumberOfOperationByTime(_amount, _timeUnit, auxByTime, _amount, 0) */\n  0xffffffff\n  and\n  dup2\n  mstore\n  0x20\n  add\n    /* \"contracts/lib/eai/EAI.sol\":11528:11535  _amount */\n  dup6\n    /* \"contracts/lib/eai/EAI.sol\":11470:11539  MaxNumberOfOperationByTime(_amount, _timeUnit, auxByTime, _amount, 0) */\n  0xffffffff\n  and\n  dup2\n  mstore\n  0x20\n  add\n    /* \"contracts/lib/eai/EAI.sol\":11537:11538  0 */\n  0x00\n    /* \"contracts/lib/eai/EAI.sol\":11470:11539  MaxNumberOfOperationByTime(_amount, _timeUnit, auxByTime, _amount, 0) */\n  0xffffffff\n  and\n  dup2\n  mstore\n  pop\n    /* \"contracts/lib/eai/EAI.sol\":11463:11539  return MaxNumberOfOperationByTime(_amount, _timeUnit, auxByTime, _amount, 0) */\n  swap2\n  pop\n  pop\n    /* \"contracts/lib/eai/EAI.sol\":10916:11547  function createMaxNumberOfOperationByTime(... */\n  swap3\n  swap2\n  pop\n  pop\n  jump\t// out\n    /* \"contracts/lib/eai/EAI.sol\":8332:8469  function createTimeout(uint32 _timeIncrement) internal pure returns (Timeout memory ){... */\ntag_28:\n    /* \"contracts/lib/eai/EAI.sol\":8401:8415  Timeout memory */\n  tag_67\n  tag_68\n  jump\t// in\ntag_67:\n    /* \"contracts/lib/eai/EAI.sol\":8435:8461  Timeout(0, _timeIncrement) */\n  mload(0x40)\n  dup1\n  0x40\n  add\n  0x40\n  mstore\n  dup1\n    /* \"contracts/lib/eai/EAI.sol\":8443:8444  0 */\n  0x00\n    /* \"contracts/lib/eai/EAI.sol\":8435:8461  Timeout(0, _timeIncrement) */\n  0xffffffff\n  and\n  dup2\n  mstore\n  0x20\n  add\n    /* \"contracts/lib/eai/EAI.sol\":8446:8460  _timeIncrement */\n  dup4\n    /* \"contracts/lib/eai/EAI.sol\":8435:8461  Timeout(0, _timeIncrement) */\n  0xffffffff\n  and\n  dup2\n  mstore\n  pop\n    /* \"contracts/lib/eai/EAI.sol\":8428:8461  return Timeout(0, _timeIncrement) */\n  swap1\n  pop\n    /* \"contracts/lib/eai/EAI.sol\":8332:8469  function createTimeout(uint32 _timeIncrement) internal pure returns (Timeout memory ){... */\n  swap2\n  swap1\n  pop\n  jump\t// out\n    /* \"contracts/lib/eai/EAI.sol\":13453:13627  function createMessageContent_onlyXPath(string memory _xpath) internal pure returns(MessageContent_onlyXPath memory){... */\ntag_31:\n    /* \"contracts/lib/eai/EAI.sol\":13537:13568  MessageContent_onlyXPath memory */\n  tag_70\n  tag_71\n  jump\t// in\ntag_70:\n    /* \"contracts/lib/eai/EAI.sol\":13587:13619  MessageContent_onlyXPath(_xpath) */\n  mload(0x40)\n  dup1\n  0x20\n  add\n  0x40\n  mstore\n  dup1\n    /* \"contracts/lib/eai/EAI.sol\":13612:13618  _xpath */\n  dup4\n    /* \"contracts/lib/eai/EAI.sol\":13587:13619  MessageContent_onlyXPath(_xpath) */\n  dup2\n  mstore\n  pop\n    /* \"contracts/lib/eai/EAI.sol\":13580:13619  return MessageContent_onlyXPath(_xpath) */\n  swap1\n  pop\n    /* \"contracts/lib/eai/EAI.sol\":13453:13627  function createMessageContent_onlyXPath(string memory _xpath) internal pure returns(MessageContent_onlyXPath memory){... */\n  swap2\n  swap1\n  pop\n  jump\t// out\n    /* \"contracts/lib/eai/EAI.sol\":25492:26041  function getTimeInSeconds(uint8 timeUnit) private pure returns(uint32){... */\ntag_65:\n    /* \"contracts/lib/eai/EAI.sol\":25555:25561  uint32 */\n  0x00\n    /* \"contracts/lib/eai/EAI.sol\":784:785  4 */\n  0x04\n    /* \"contracts/lib/eai/EAI.sol\":25635:25651  timeUnit <= WEEK */\n  0xff\n  and\n    /* \"contracts/lib/eai/EAI.sol\":25635:25643  timeUnit */\n  dup3\n    /* \"contracts/lib/eai/EAI.sol\":25635:25651  timeUnit <= WEEK */\n  0xff\n  and\n  gt\n  iszero\n    /* \"contracts/lib/eai/EAI.sol\":25627:25715  require(timeUnit <= WEEK, \"The method getTimeInSeconds doesn't work for MONTH and YEAR\") */\n  tag_74\n  jumpi\n  mload(0x40)\n  0x08c379a000000000000000000000000000000000000000000000000000000000\n  dup2\n  mstore\n  0x04\n  add\n  tag_75\n  swap1\n  tag_76\n  jump\t// in\ntag_75:\n  mload(0x40)\n  dup1\n  swap2\n  sub\n  swap1\n  revert\ntag_74:\n    /* \"contracts/lib/eai/EAI.sol\":666:667  0 */\n  0x00\n    /* \"contracts/lib/eai/EAI.sol\":25731:25749  timeUnit == SECOND */\n  0xff\n  and\n    /* \"contracts/lib/eai/EAI.sol\":25731:25739  timeUnit */\n  dup3\n    /* \"contracts/lib/eai/EAI.sol\":25731:25749  timeUnit == SECOND */\n  0xff\n  and\n  sub\n    /* \"contracts/lib/eai/EAI.sol\":25728:26034  if(timeUnit == SECOND){... */\n  tag_77\n  jumpi\n    /* \"contracts/lib/eai/EAI.sol\":25772:25773  1 */\n  0x01\n    /* \"contracts/lib/eai/EAI.sol\":25765:25773  return 1 */\n  swap1\n  pop\n  jump(tag_73)\n    /* \"contracts/lib/eai/EAI.sol\":25728:26034  if(timeUnit == SECOND){... */\ntag_77:\n    /* \"contracts/lib/eai/EAI.sol\":698:699  1 */\n  0x01\n    /* \"contracts/lib/eai/EAI.sol\":25793:25811  timeUnit == MINUTE */\n  0xff\n  and\n    /* \"contracts/lib/eai/EAI.sol\":25793:25801  timeUnit */\n  dup3\n    /* \"contracts/lib/eai/EAI.sol\":25793:25811  timeUnit == MINUTE */\n  0xff\n  and\n  sub\n    /* \"contracts/lib/eai/EAI.sol\":25790:26034  if(timeUnit == MINUTE){... */\n  tag_79\n  jumpi\n    /* \"contracts/lib/eai/EAI.sol\":25834:25836  60 */\n  0x3c\n    /* \"contracts/lib/eai/EAI.sol\":25827:25836  return 60 */\n  swap1\n  pop\n  jump(tag_73)\n    /* \"contracts/lib/eai/EAI.sol\":25790:26034  if(timeUnit == MINUTE){... */\ntag_79:\n    /* \"contracts/lib/eai/EAI.sol\":727:728  2 */\n  0x02\n    /* \"contracts/lib/eai/EAI.sol\":25856:25872  timeUnit == HOUR */\n  0xff\n  and\n    /* \"contracts/lib/eai/EAI.sol\":25856:25864  timeUnit */\n  dup3\n    /* \"contracts/lib/eai/EAI.sol\":25856:25872  timeUnit == HOUR */\n  0xff\n  and\n  sub\n    /* \"contracts/lib/eai/EAI.sol\":25853:26034  if(timeUnit == HOUR ){... */\n  tag_81\n  jumpi\n    /* \"contracts/lib/eai/EAI.sol\":25896:25901  60*60 */\n  0x0e10\n    /* \"contracts/lib/eai/EAI.sol\":25889:25901  return 60*60 */\n  swap1\n  pop\n  jump(tag_73)\n    /* \"contracts/lib/eai/EAI.sol\":25853:26034  if(timeUnit == HOUR ){... */\ntag_81:\n    /* \"contracts/lib/eai/EAI.sol\":755:756  3 */\n  0x03\n    /* \"contracts/lib/eai/EAI.sol\":25921:25936  timeUnit == DAY */\n  0xff\n  and\n    /* \"contracts/lib/eai/EAI.sol\":25921:25929  timeUnit */\n  dup3\n    /* \"contracts/lib/eai/EAI.sol\":25921:25936  timeUnit == DAY */\n  0xff\n  and\n  sub\n    /* \"contracts/lib/eai/EAI.sol\":25918:26034  if(timeUnit == DAY){... */\n  tag_83\n  jumpi\n    /* \"contracts/lib/eai/EAI.sol\":25959:25967  60*60*24 */\n  0x015180\n    /* \"contracts/lib/eai/EAI.sol\":25952:25967  return 60*60*24 */\n  swap1\n  pop\n  jump(tag_73)\n    /* \"contracts/lib/eai/EAI.sol\":25918:26034  if(timeUnit == DAY){... */\ntag_83:\n    /* \"contracts/lib/eai/EAI.sol\":26005:26015  60*60*24*7 */\n  0x093a80\n    /* \"contracts/lib/eai/EAI.sol\":25998:26015  return 60*60*24*7 */\n  swap1\n  pop\n    /* \"contracts/lib/eai/EAI.sol\":25492:26041  function getTimeInSeconds(uint8 timeUnit) private pure returns(uint32){... */\ntag_73:\n  swap2\n  swap1\n  pop\n  jump\t// out\n    /* \"contracts/study-case-contracts/002-orcid/Orcid.sol\":190:6890  contract Orcid {... */\ntag_9:\n  dup3\n  dup1\n  sload\n  tag_85\n  swap1\n  tag_13\n  jump\t// in\ntag_85:\n  swap1\n  0x00\n  mstore\n  keccak256(0x00, 0x20)\n  swap1\n  0x1f\n  add\n  0x20\n  swap1\n  div\n  dup2\n  add\n  swap3\n  dup3\n  tag_87\n  jumpi\n  0x00\n  dup6\n  sstore\n  jump(tag_86)\ntag_87:\n  dup3\n  0x1f\n  lt\n  tag_88\n  jumpi\n  dup1\n  mload\n  not(0xff)\n  and\n  dup4\n  dup1\n  add\n  or\n  dup6\n  sstore\n  jump(tag_86)\ntag_88:\n  dup3\n  dup1\n  add\n  0x01\n  add\n  dup6\n  sstore\n  dup3\n  iszero\n  tag_86\n  jumpi\n  swap2\n  dup3\n  add\ntag_89:\n  dup3\n  dup2\n  gt\n  iszero\n  tag_90\n  jumpi\n  dup3\n  mload\n  dup3\n  sstore\n  swap2\n  0x20\n  add\n  swap2\n  swap1\n  0x01\n  add\n  swap1\n  jump(tag_89)\ntag_90:\ntag_86:\n  pop\n  swap1\n  pop\n  tag_91\n  swap2\n  swap1\n  tag_92\n  jump\t// in\ntag_91:\n  pop\n  swap1\n  jump\t// out\ntag_15:\n  dup3\n  dup1\n  sload\n  tag_93\n  swap1\n  tag_13\n  jump\t// in\ntag_93:\n  swap1\n  0x00\n  mstore\n  keccak256(0x00, 0x20)\n  swap1\n  0x1f\n  add\n  0x20\n  swap1\n  div\n  dup2\n  add\n  swap3\n  dup3\n  tag_95\n  jumpi\n  0x00\n  dup6\n  sstore\n  jump(tag_94)\ntag_95:\n  dup3\n  0x1f\n  lt\n  tag_96\n  jumpi\n  dup1\n  sload\n  dup6\n  sstore\n  jump(tag_94)\ntag_96:\n  dup3\n  dup1\n  add\n  0x01\n  add\n  dup6\n  sstore\n  dup3\n  iszero\n  tag_94\n  jumpi\n  0x00\n  mstore\n  keccak256(0x00, 0x20)\n  swap2\n  0x1f\n  add\n  0x20\n  swap1\n  div\n  dup3\n  add\ntag_97:\n  dup3\n  dup2\n  gt\n  iszero\n  tag_98\n  jumpi\n  dup3\n  sload\n  dup3\n  sstore\n  swap2\n  0x01\n  add\n  swap2\n  swap1\n  0x01\n  add\n  swap1\n  jump(tag_97)\ntag_98:\ntag_94:\n  pop\n  swap1\n  pop\n  tag_99\n  swap2\n  swap1\n  tag_92\n  jump\t// in\ntag_99:\n  pop\n  swap1\n  jump\t// out\ntag_36:\n  mload(0x40)\n  dup1\n  0x60\n  add\n  0x40\n  mstore\n  dup1\n  0x60\n  dup2\n  mstore\n  0x20\n  add\n  and(0xffffffffffffffffffffffffffffffffffffffff, 0x00)\n  dup2\n  mstore\n  0x20\n  add\n  iszero(iszero(0x00))\n  dup2\n  mstore\n  pop\n  swap1\n  jump\t// out\ntag_39:\n  mload(0x40)\n  dup1\n  0x40\n  add\n  0x40\n  mstore\n  dup1\n  and(0xff, 0x00)\n  dup2\n  mstore\n  0x20\n  add\n  and(0xff, 0x00)\n  dup2\n  mstore\n  pop\n  swap1\n  jump\t// out\ntag_51:\n  mload(0x40)\n  dup1\n  0x40\n  add\n  0x40\n  mstore\n  dup1\n  and(0xffffffff, 0x00)\n  dup2\n  mstore\n  0x20\n  add\n  and(0xffffffff, 0x00)\n  dup2\n  mstore\n  pop\n  swap1\n  jump\t// out\ntag_61:\n  mload(0x40)\n  dup1\n  0xa0\n  add\n  0x40\n  mstore\n  dup1\n  and(0xffffffff, 0x00)\n  dup2\n  mstore\n  0x20\n  add\n  and(0xff, 0x00)\n  dup2\n  mstore\n  0x20\n  add\n  and(0xffffffff, 0x00)\n  dup2\n  mstore\n  0x20\n  add\n  and(0xffffffff, 0x00)\n  dup2\n  mstore\n  0x20\n  add\n  and(0xffffffff, 0x00)\n  dup2\n  mstore\n  pop\n  swap1\n  jump\t// out\ntag_68:\n  mload(0x40)\n  dup1\n  0x40\n  add\n  0x40\n  mstore\n  dup1\n  and(0xffffffff, 0x00)\n  dup2\n  mstore\n  0x20\n  add\n  and(0xffffffff, 0x00)\n  dup2\n  mstore\n  pop\n  swap1\n  jump\t// out\ntag_71:\n  mload(0x40)\n  dup1\n  0x20\n  add\n  0x40\n  mstore\n  dup1\n  0x60\n  dup2\n  mstore\n  pop\n  swap1\n  jump\t// out\ntag_92:\ntag_100:\n  dup1\n  dup3\n  gt\n  iszero\n  tag_101\n  jumpi\n  0x00\n  dup2\n  0x00\n  swap1\n  sstore\n  pop\n  0x01\n  add\n  jump(tag_100)\ntag_101:\n  pop\n  swap1\n  jump\t// out\n    /* \"#utility.yul\":88:205   */\ntag_103:\n    /* \"#utility.yul\":197:198   */\n  0x00\n    /* \"#utility.yul\":194:195   */\n  dup1\n    /* \"#utility.yul\":187:199   */\n  revert\n    /* \"#utility.yul\":334:460   */\ntag_105:\n    /* \"#utility.yul\":371:378   */\n  0x00\n    /* \"#utility.yul\":411:453   */\n  0xffffffffffffffffffffffffffffffffffffffff\n    /* \"#utility.yul\":404:409   */\n  dup3\n    /* \"#utility.yul\":400:454   */\n  and\n    /* \"#utility.yul\":389:454   */\n  swap1\n  pop\n    /* \"#utility.yul\":334:460   */\n  swap2\n  swap1\n  pop\n  jump\t// out\n    /* \"#utility.yul\":466:562   */\ntag_106:\n    /* \"#utility.yul\":503:510   */\n  0x00\n    /* \"#utility.yul\":532:556   */\n  tag_123\n    /* \"#utility.yul\":550:555   */\n  dup3\n    /* \"#utility.yul\":532:556   */\n  tag_105\n  jump\t// in\ntag_123:\n    /* \"#utility.yul\":521:556   */\n  swap1\n  pop\n    /* \"#utility.yul\":466:562   */\n  swap2\n  swap1\n  pop\n  jump\t// out\n    /* \"#utility.yul\":568:690   */\ntag_107:\n    /* \"#utility.yul\":641:665   */\n  tag_125\n    /* \"#utility.yul\":659:664   */\n  dup2\n    /* \"#utility.yul\":641:665   */\n  tag_106\n  jump\t// in\ntag_125:\n    /* \"#utility.yul\":634:639   */\n  dup2\n    /* \"#utility.yul\":631:666   */\n  eq\n    /* \"#utility.yul\":621:684   */\n  tag_126\n  jumpi\n    /* \"#utility.yul\":680:681   */\n  0x00\n    /* \"#utility.yul\":677:678   */\n  dup1\n    /* \"#utility.yul\":670:682   */\n  revert\n    /* \"#utility.yul\":621:684   */\ntag_126:\n    /* \"#utility.yul\":568:690   */\n  pop\n  jump\t// out\n    /* \"#utility.yul\":696:839   */\ntag_108:\n    /* \"#utility.yul\":753:758   */\n  0x00\n    /* \"#utility.yul\":784:790   */\n  dup2\n    /* \"#utility.yul\":778:791   */\n  mload\n    /* \"#utility.yul\":769:791   */\n  swap1\n  pop\n    /* \"#utility.yul\":800:833   */\n  tag_128\n    /* \"#utility.yul\":827:832   */\n  dup2\n    /* \"#utility.yul\":800:833   */\n  tag_107\n  jump\t// in\ntag_128:\n    /* \"#utility.yul\":696:839   */\n  swap3\n  swap2\n  pop\n  pop\n  jump\t// out\n    /* \"#utility.yul\":845:1196   */\ntag_3:\n    /* \"#utility.yul\":915:921   */\n  0x00\n    /* \"#utility.yul\":964:966   */\n  0x20\n    /* \"#utility.yul\":952:961   */\n  dup3\n    /* \"#utility.yul\":943:950   */\n  dup5\n    /* \"#utility.yul\":939:962   */\n  sub\n    /* \"#utility.yul\":935:967   */\n  slt\n    /* \"#utility.yul\":932:1051   */\n  iszero\n  tag_130\n  jumpi\n    /* \"#utility.yul\":970:1049   */\n  tag_131\n  tag_103\n  jump\t// in\ntag_131:\n    /* \"#utility.yul\":932:1051   */\ntag_130:\n    /* \"#utility.yul\":1090:1091   */\n  0x00\n    /* \"#utility.yul\":1115:1179   */\n  tag_132\n    /* \"#utility.yul\":1171:1178   */\n  dup5\n    /* \"#utility.yul\":1162:1168   */\n  dup3\n    /* \"#utility.yul\":1151:1160   */\n  dup6\n    /* \"#utility.yul\":1147:1169   */\n  add\n    /* \"#utility.yul\":1115:1179   */\n  tag_108\n  jump\t// in\ntag_132:\n    /* \"#utility.yul\":1105:1179   */\n  swap2\n  pop\n    /* \"#utility.yul\":1061:1189   */\n  pop\n    /* \"#utility.yul\":845:1196   */\n  swap3\n  swap2\n  pop\n  pop\n  jump\t// out\n    /* \"#utility.yul\":1202:1382   */\ntag_109:\n    /* \"#utility.yul\":1250:1327   */\n  0x4e487b7100000000000000000000000000000000000000000000000000000000\n    /* \"#utility.yul\":1247:1248   */\n  0x00\n    /* \"#utility.yul\":1240:1328   */\n  mstore\n    /* \"#utility.yul\":1347:1351   */\n  0x22\n    /* \"#utility.yul\":1344:1345   */\n  0x04\n    /* \"#utility.yul\":1337:1352   */\n  mstore\n    /* \"#utility.yul\":1371:1375   */\n  0x24\n    /* \"#utility.yul\":1368:1369   */\n  0x00\n    /* \"#utility.yul\":1361:1376   */\n  revert\n    /* \"#utility.yul\":1388:1708   */\ntag_13:\n    /* \"#utility.yul\":1432:1438   */\n  0x00\n    /* \"#utility.yul\":1469:1470   */\n  0x02\n    /* \"#utility.yul\":1463:1467   */\n  dup3\n    /* \"#utility.yul\":1459:1471   */\n  div\n    /* \"#utility.yul\":1449:1471   */\n  swap1\n  pop\n    /* \"#utility.yul\":1516:1517   */\n  0x01\n    /* \"#utility.yul\":1510:1514   */\n  dup3\n    /* \"#utility.yul\":1506:1518   */\n  and\n    /* \"#utility.yul\":1537:1555   */\n  dup1\n    /* \"#utility.yul\":1527:1608   */\n  tag_135\n  jumpi\n    /* \"#utility.yul\":1593:1597   */\n  0x7f\n    /* \"#utility.yul\":1585:1591   */\n  dup3\n    /* \"#utility.yul\":1581:1598   */\n  and\n    /* \"#utility.yul\":1571:1598   */\n  swap2\n  pop\n    /* \"#utility.yul\":1527:1608   */\ntag_135:\n    /* \"#utility.yul\":1655:1657   */\n  0x20\n    /* \"#utility.yul\":1647:1653   */\n  dup3\n    /* \"#utility.yul\":1644:1658   */\n  lt\n    /* \"#utility.yul\":1624:1642   */\n  dup2\n    /* \"#utility.yul\":1621:1659   */\n  sub\n    /* \"#utility.yul\":1618:1702   */\n  tag_136\n  jumpi\n    /* \"#utility.yul\":1674:1692   */\n  tag_137\n  tag_109\n  jump\t// in\ntag_137:\n    /* \"#utility.yul\":1618:1702   */\ntag_136:\n    /* \"#utility.yul\":1439:1708   */\n  pop\n    /* \"#utility.yul\":1388:1708   */\n  swap2\n  swap1\n  pop\n  jump\t// out\n    /* \"#utility.yul\":1714:1883   */\ntag_110:\n    /* \"#utility.yul\":1798:1809   */\n  0x00\n    /* \"#utility.yul\":1832:1838   */\n  dup3\n    /* \"#utility.yul\":1827:1830   */\n  dup3\n    /* \"#utility.yul\":1820:1839   */\n  mstore\n    /* \"#utility.yul\":1872:1876   */\n  0x20\n    /* \"#utility.yul\":1867:1870   */\n  dup3\n    /* \"#utility.yul\":1863:1877   */\n  add\n    /* \"#utility.yul\":1848:1877   */\n  swap1\n  pop\n    /* \"#utility.yul\":1714:1883   */\n  swap3\n  swap2\n  pop\n  pop\n  jump\t// out\n    /* \"#utility.yul\":1889:2116   */\ntag_111:\n    /* \"#utility.yul\":2029:2063   */\n  0x546865205f7374617274446179206e6f7420726570726573656e747320612076\n    /* \"#utility.yul\":2025:2026   */\n  0x00\n    /* \"#utility.yul\":2017:2023   */\n  dup3\n    /* \"#utility.yul\":2013:2027   */\n  add\n    /* \"#utility.yul\":2006:2064   */\n  mstore\n    /* \"#utility.yul\":2098:2108   */\n  0x616c696420646179000000000000000000000000000000000000000000000000\n    /* \"#utility.yul\":2093:2095   */\n  0x20\n    /* \"#utility.yul\":2085:2091   */\n  dup3\n    /* \"#utility.yul\":2081:2096   */\n  add\n    /* \"#utility.yul\":2074:2109   */\n  mstore\n    /* \"#utility.yul\":1889:2116   */\n  pop\n  jump\t// out\n    /* \"#utility.yul\":2122:2488   */\ntag_112:\n    /* \"#utility.yul\":2264:2267   */\n  0x00\n    /* \"#utility.yul\":2285:2352   */\n  tag_141\n    /* \"#utility.yul\":2349:2351   */\n  0x28\n    /* \"#utility.yul\":2344:2347   */\n  dup4\n    /* \"#utility.yul\":2285:2352   */\n  tag_110\n  jump\t// in\ntag_141:\n    /* \"#utility.yul\":2278:2352   */\n  swap2\n  pop\n    /* \"#utility.yul\":2361:2454   */\n  tag_142\n    /* \"#utility.yul\":2450:2453   */\n  dup3\n    /* \"#utility.yul\":2361:2454   */\n  tag_111\n  jump\t// in\ntag_142:\n    /* \"#utility.yul\":2479:2481   */\n  0x40\n    /* \"#utility.yul\":2474:2477   */\n  dup3\n    /* \"#utility.yul\":2470:2482   */\n  add\n    /* \"#utility.yul\":2463:2482   */\n  swap1\n  pop\n    /* \"#utility.yul\":2122:2488   */\n  swap2\n  swap1\n  pop\n  jump\t// out\n    /* \"#utility.yul\":2494:2913   */\ntag_44:\n    /* \"#utility.yul\":2660:2664   */\n  0x00\n    /* \"#utility.yul\":2698:2700   */\n  0x20\n    /* \"#utility.yul\":2687:2696   */\n  dup3\n    /* \"#utility.yul\":2683:2701   */\n  add\n    /* \"#utility.yul\":2675:2701   */\n  swap1\n  pop\n    /* \"#utility.yul\":2747:2756   */\n  dup2\n    /* \"#utility.yul\":2741:2745   */\n  dup2\n    /* \"#utility.yul\":2737:2757   */\n  sub\n    /* \"#utility.yul\":2733:2734   */\n  0x00\n    /* \"#utility.yul\":2722:2731   */\n  dup4\n    /* \"#utility.yul\":2718:2735   */\n  add\n    /* \"#utility.yul\":2711:2758   */\n  mstore\n    /* \"#utility.yul\":2775:2906   */\n  tag_144\n    /* \"#utility.yul\":2901:2905   */\n  dup2\n    /* \"#utility.yul\":2775:2906   */\n  tag_112\n  jump\t// in\ntag_144:\n    /* \"#utility.yul\":2767:2906   */\n  swap1\n  pop\n    /* \"#utility.yul\":2494:2913   */\n  swap2\n  swap1\n  pop\n  jump\t// out\n    /* \"#utility.yul\":2919:3144   */\ntag_113:\n    /* \"#utility.yul\":3059:3093   */\n  0x546865205f656e64446179206e6f7420726570726573656e747320612076616c\n    /* \"#utility.yul\":3055:3056   */\n  0x00\n    /* \"#utility.yul\":3047:3053   */\n  dup3\n    /* \"#utility.yul\":3043:3057   */\n  add\n    /* \"#utility.yul\":3036:3094   */\n  mstore\n    /* \"#utility.yul\":3128:3136   */\n  0x6964206461790000000000000000000000000000000000000000000000000000\n    /* \"#utility.yul\":3123:3125   */\n  0x20\n    /* \"#utility.yul\":3115:3121   */\n  dup3\n    /* \"#utility.yul\":3111:3126   */\n  add\n    /* \"#utility.yul\":3104:3137   */\n  mstore\n    /* \"#utility.yul\":2919:3144   */\n  pop\n  jump\t// out\n    /* \"#utility.yul\":3150:3516   */\ntag_114:\n    /* \"#utility.yul\":3292:3295   */\n  0x00\n    /* \"#utility.yul\":3313:3380   */\n  tag_147\n    /* \"#utility.yul\":3377:3379   */\n  0x26\n    /* \"#utility.yul\":3372:3375   */\n  dup4\n    /* \"#utility.yul\":3313:3380   */\n  tag_110\n  jump\t// in\ntag_147:\n    /* \"#utility.yul\":3306:3380   */\n  swap2\n  pop\n    /* \"#utility.yul\":3389:3482   */\n  tag_148\n    /* \"#utility.yul\":3478:3481   */\n  dup3\n    /* \"#utility.yul\":3389:3482   */\n  tag_113\n  jump\t// in\ntag_148:\n    /* \"#utility.yul\":3507:3509   */\n  0x40\n    /* \"#utility.yul\":3502:3505   */\n  dup3\n    /* \"#utility.yul\":3498:3510   */\n  add\n    /* \"#utility.yul\":3491:3510   */\n  swap1\n  pop\n    /* \"#utility.yul\":3150:3516   */\n  swap2\n  swap1\n  pop\n  jump\t// out\n    /* \"#utility.yul\":3522:3941   */\ntag_48:\n    /* \"#utility.yul\":3688:3692   */\n  0x00\n    /* \"#utility.yul\":3726:3728   */\n  0x20\n    /* \"#utility.yul\":3715:3724   */\n  dup3\n    /* \"#utility.yul\":3711:3729   */\n  add\n    /* \"#utility.yul\":3703:3729   */\n  swap1\n  pop\n    /* \"#utility.yul\":3775:3784   */\n  dup2\n    /* \"#utility.yul\":3769:3773   */\n  dup2\n    /* \"#utility.yul\":3765:3785   */\n  sub\n    /* \"#utility.yul\":3761:3762   */\n  0x00\n    /* \"#utility.yul\":3750:3759   */\n  dup4\n    /* \"#utility.yul\":3746:3763   */\n  add\n    /* \"#utility.yul\":3739:3786   */\n  mstore\n    /* \"#utility.yul\":3803:3934   */\n  tag_150\n    /* \"#utility.yul\":3929:3933   */\n  dup2\n    /* \"#utility.yul\":3803:3934   */\n  tag_114\n  jump\t// in\ntag_150:\n    /* \"#utility.yul\":3795:3934   */\n  swap1\n  pop\n    /* \"#utility.yul\":3522:3941   */\n  swap2\n  swap1\n  pop\n  jump\t// out\n    /* \"#utility.yul\":3947:4193   */\ntag_115:\n    /* \"#utility.yul\":4087:4121   */\n  0x546865206d6574686f642067657454696d65496e5365636f6e647320646f6573\n    /* \"#utility.yul\":4083:4084   */\n  0x00\n    /* \"#utility.yul\":4075:4081   */\n  dup3\n    /* \"#utility.yul\":4071:4085   */\n  add\n    /* \"#utility.yul\":4064:4122   */\n  mstore\n    /* \"#utility.yul\":4156:4185   */\n  0x6e277420776f726b20666f72204d4f4e544820616e6420594541520000000000\n    /* \"#utility.yul\":4151:4153   */\n  0x20\n    /* \"#utility.yul\":4143:4149   */\n  dup3\n    /* \"#utility.yul\":4139:4154   */\n  add\n    /* \"#utility.yul\":4132:4186   */\n  mstore\n    /* \"#utility.yul\":3947:4193   */\n  pop\n  jump\t// out\n    /* \"#utility.yul\":4199:4565   */\ntag_116:\n    /* \"#utility.yul\":4341:4344   */\n  0x00\n    /* \"#utility.yul\":4362:4429   */\n  tag_153\n    /* \"#utility.yul\":4426:4428   */\n  0x3b\n    /* \"#utility.yul\":4421:4424   */\n  dup4\n    /* \"#utility.yul\":4362:4429   */\n  tag_110\n  jump\t// in\ntag_153:\n    /* \"#utility.yul\":4355:4429   */\n  swap2\n  pop\n    /* \"#utility.yul\":4438:4531   */\n  tag_154\n    /* \"#utility.yul\":4527:4530   */\n  dup3\n    /* \"#utility.yul\":4438:4531   */\n  tag_115\n  jump\t// in\ntag_154:\n    /* \"#utility.yul\":4556:4558   */\n  0x40\n    /* \"#utility.yul\":4551:4554   */\n  dup3\n    /* \"#utility.yul\":4547:4559   */\n  add\n    /* \"#utility.yul\":4540:4559   */\n  swap1\n  pop\n    /* \"#utility.yul\":4199:4565   */\n  swap2\n  swap1\n  pop\n  jump\t// out\n    /* \"#utility.yul\":4571:4990   */\ntag_76:\n    /* \"#utility.yul\":4737:4741   */\n  0x00\n    /* \"#utility.yul\":4775:4777   */\n  0x20\n    /* \"#utility.yul\":4764:4773   */\n  dup3\n    /* \"#utility.yul\":4760:4778   */\n  add\n    /* \"#utility.yul\":4752:4778   */\n  swap1\n  pop\n    /* \"#utility.yul\":4824:4833   */\n  dup2\n    /* \"#utility.yul\":4818:4822   */\n  dup2\n    /* \"#utility.yul\":4814:4834   */\n  sub\n    /* \"#utility.yul\":4810:4811   */\n  0x00\n    /* \"#utility.yul\":4799:4808   */\n  dup4\n    /* \"#utility.yul\":4795:4812   */\n  add\n    /* \"#utility.yul\":4788:4835   */\n  mstore\n    /* \"#utility.yul\":4852:4983   */\n  tag_156\n    /* \"#utility.yul\":4978:4982   */\n  dup2\n    /* \"#utility.yul\":4852:4983   */\n  tag_116\n  jump\t// in\ntag_156:\n    /* \"#utility.yul\":4844:4983   */\n  swap1\n  pop\n    /* \"#utility.yul\":4571:4990   */\n  swap2\n  swap1\n  pop\n  jump\t// out\n    /* \"contracts/study-case-contracts/002-orcid/Orcid.sol\":190:6890  contract Orcid {... */\ntag_34:\n  dataSize(sub_0)\n  dup1\n  dataOffset(sub_0)\n  0x00\n  codecopy\n  0x00\n  return\nstop\ndata_fcb1aa9975f6d8f3fae14b5398f45c22fe6c7e61400b0ac0a2d00c3174df729a 636f756e74282f2f626f64792f726571756573742f646f63756d656e7429203d3d20636f756e74282f2f626f64792f726573706f6e73652f646f63756d656e7429\n\nsub_0: assembly {\n        /* \"contracts/study-case-contracts/002-orcid/Orcid.sol\":190:6890  contract Orcid {... */\n      mstore(0x40, 0x80)\n      callvalue\n      dup1\n      iszero\n      tag_1\n      jumpi\n      0x00\n      dup1\n      revert\n    tag_1:\n      pop\n      jumpi(tag_2, lt(calldatasize, 0x04))\n      shr(0xe0, calldataload(0x00))\n      dup1\n      0x85931911\n      gt\n      tag_10\n      jumpi\n      dup1\n      0x85931911\n      eq\n      tag_6\n      jumpi\n      dup1\n      0x9c764223\n      eq\n      tag_7\n      jumpi\n      dup1\n      0xb8b4f1a0\n      eq\n      tag_8\n      jumpi\n      dup1\n      0xfb6f8243\n      eq\n      tag_9\n      jumpi\n      jump(tag_2)\n    tag_10:\n      dup1\n      0x22d53d53\n      eq\n      tag_3\n      jumpi\n      dup1\n      0x5e744c6a\n      eq\n      tag_4\n      jumpi\n      dup1\n      0x70d8915a\n      eq\n      tag_5\n      jumpi\n    tag_2:\n      0x00\n      dup1\n      revert\n        /* \"contracts/study-case-contracts/002-orcid/Orcid.sol\":3908:4421  function obligation_responseWorks(uint32 _accessDateTime, bool[] memory _resultFromXpath)public onlyApplication() returns(bool){... */\n    tag_3:\n      tag_11\n      0x04\n      dup1\n      calldatasize\n      sub\n      dup2\n      add\n      swap1\n      tag_12\n      swap2\n      swap1\n      tag_13\n      jump\t// in\n    tag_12:\n      tag_14\n      jump\t// in\n    tag_11:\n      mload(0x40)\n      tag_15\n      swap2\n      swap1\n      tag_16\n      jump\t// in\n    tag_15:\n      mload(0x40)\n      dup1\n      swap2\n      sub\n      swap1\n      return\n        /* \"contracts/study-case-contracts/002-orcid/Orcid.sol\":5347:5778  function changeApplicationParty(string memory _name, address _walletAddress) public returns(bool) {       ... */\n    tag_4:\n      tag_17\n      0x04\n      dup1\n      calldatasize\n      sub\n      dup2\n      add\n      swap1\n      tag_18\n      swap2\n      swap1\n      tag_19\n      jump\t// in\n    tag_18:\n      tag_20\n      jump\t// in\n    tag_17:\n      mload(0x40)\n      tag_21\n      swap2\n      swap1\n      tag_16\n      jump\t// in\n    tag_21:\n      mload(0x40)\n      dup1\n      swap2\n      sub\n      swap1\n      return\n        /* \"contracts/study-case-contracts/002-orcid/Orcid.sol\":5926:6058  function getApplicationAddress() public view onlyInvolvedParties returns(address){... */\n    tag_5:\n      tag_22\n      tag_23\n      jump\t// in\n    tag_22:\n      mload(0x40)\n      tag_24\n      swap2\n      swap1\n      tag_25\n      jump\t// in\n    tag_24:\n      mload(0x40)\n      dup1\n      swap2\n      sub\n      swap1\n      return\n        /* \"contracts/study-case-contracts/002-orcid/Orcid.sol\":5790:5914  function getProcessAddress() public view onlyInvolvedParties returns(address){... */\n    tag_6:\n      tag_26\n      tag_27\n      jump\t// in\n    tag_26:\n      mload(0x40)\n      tag_28\n      swap2\n      swap1\n      tag_25\n      jump\t// in\n    tag_28:\n      mload(0x40)\n      dup1\n      swap2\n      sub\n      swap1\n      return\n        /* \"contracts/study-case-contracts/002-orcid/Orcid.sol\":3241:3900  function right_requestAllWorks(uint8 _weekDay, uint32 _accessTime, uint32 _accessDateTime)public onlyProcess() returns(bool){... */\n    tag_7:\n      tag_29\n      0x04\n      dup1\n      calldatasize\n      sub\n      dup2\n      add\n      swap1\n      tag_30\n      swap2\n      swap1\n      tag_31\n      jump\t// in\n    tag_30:\n      tag_32\n      jump\t// in\n    tag_29:\n      mload(0x40)\n      tag_33\n      swap2\n      swap1\n      tag_16\n      jump\t// in\n    tag_33:\n      mload(0x40)\n      dup1\n      swap2\n      sub\n      swap1\n      return\n        /* \"contracts/study-case-contracts/002-orcid/Orcid.sol\":4747:5009  function signContract() public onlyApplication() returns(bool) {... */\n    tag_8:\n      tag_34\n      tag_35\n      jump\t// in\n    tag_34:\n      mload(0x40)\n      tag_36\n      swap2\n      swap1\n      tag_16\n      jump\t// in\n    tag_36:\n      mload(0x40)\n      dup1\n      swap2\n      sub\n      swap1\n      return\n        /* \"contracts/study-case-contracts/002-orcid/Orcid.sol\":6066:6215  function getParty(address _walletAddress) public view onlyInvolvedParties returns(EAI.Party memory){... */\n    tag_9:\n      tag_37\n      0x04\n      dup1\n      calldatasize\n      sub\n      dup2\n      add\n      swap1\n      tag_38\n      swap2\n      swap1\n      tag_39\n      jump\t// in\n    tag_38:\n      tag_40\n      jump\t// in\n    tag_37:\n      mload(0x40)\n      tag_41\n      swap2\n      swap1\n      tag_42\n      jump\t// in\n    tag_41:\n      mload(0x40)\n      dup1\n      swap2\n      sub\n      swap1\n      return\n        /* \"contracts/study-case-contracts/002-orcid/Orcid.sol\":3908:4421  function obligation_responseWorks(uint32 _accessDateTime, bool[] memory _resultFromXpath)public onlyApplication() returns(bool){... */\n    tag_14:\n        /* \"contracts/study-case-contracts/002-orcid/Orcid.sol\":4030:4034  bool */\n      0x00\n        /* \"contracts/study-case-contracts/002-orcid/Orcid.sol\":6398:6408  msg.sender */\n      caller\n        /* \"contracts/study-case-contracts/002-orcid/Orcid.sol\":6369:6408  application.walletAddress == msg.sender */\n      0xffffffffffffffffffffffffffffffffffffffff\n      and\n        /* \"contracts/study-case-contracts/002-orcid/Orcid.sol\":6369:6380  application */\n      0x01\n        /* \"contracts/study-case-contracts/002-orcid/Orcid.sol\":6369:6394  application.walletAddress */\n      dup1\n      add\n      0x00\n      swap1\n      sload\n      swap1\n      0x0100\n      exp\n      swap1\n      div\n      0xffffffffffffffffffffffffffffffffffffffff\n      and\n        /* \"contracts/study-case-contracts/002-orcid/Orcid.sol\":6369:6408  application.walletAddress == msg.sender */\n      0xffffffffffffffffffffffffffffffffffffffff\n      and\n      eq\n        /* \"contracts/study-case-contracts/002-orcid/Orcid.sol\":6361:6460  require(application.walletAddress == msg.sender, \"Only the application can execute this operation\") */\n      tag_50\n      jumpi\n      mload(0x40)\n      0x08c379a000000000000000000000000000000000000000000000000000000000\n      dup2\n      mstore\n      0x04\n      add\n      tag_51\n      swap1\n      tag_52\n      jump\t// in\n    tag_51:\n      mload(0x40)\n      dup1\n      swap2\n      sub\n      swap1\n      revert\n    tag_50:\n        /* \"contracts/study-case-contracts/002-orcid/Orcid.sol\":4049:4094  timeout_C2[0].isTimeoutEnded(_accessDateTime) */\n      tag_54\n        /* \"contracts/study-case-contracts/002-orcid/Orcid.sol\":4078:4093  _accessDateTime */\n      dup4\n        /* \"contracts/study-case-contracts/002-orcid/Orcid.sol\":4049:4059  timeout_C2 */\n      0x09\n        /* \"contracts/study-case-contracts/002-orcid/Orcid.sol\":4060:4061  0 */\n      0x00\n        /* \"contracts/study-case-contracts/002-orcid/Orcid.sol\":4049:4062  timeout_C2[0] */\n      dup2\n      sload\n      dup2\n      lt\n      tag_55\n      jumpi\n      tag_56\n      tag_57\n      jump\t// in\n    tag_56:\n    tag_55:\n      swap1\n      0x00\n      mstore\n      keccak256(0x00, 0x20)\n      add\n        /* \"contracts/study-case-contracts/002-orcid/Orcid.sol\":4049:4077  timeout_C2[0].isTimeoutEnded */\n      mload(0x40)\n      dup1\n      0x40\n      add\n      0x40\n      mstore\n      swap1\n      dup2\n      0x00\n      dup3\n      add\n      0x00\n      swap1\n      sload\n      swap1\n      0x0100\n      exp\n      swap1\n      div\n      0xffffffff\n      and\n      0xffffffff\n      and\n      0xffffffff\n      and\n      dup2\n      mstore\n      0x20\n      add\n      0x00\n      dup3\n      add\n      0x04\n      swap1\n      sload\n      swap1\n      0x0100\n      exp\n      swap1\n      div\n      0xffffffff\n      and\n      0xffffffff\n      and\n      0xffffffff\n      and\n      dup2\n      mstore\n      pop\n      pop\n      tag_59\n      swap1\n        /* \"contracts/study-case-contracts/002-orcid/Orcid.sol\":4049:4094  timeout_C2[0].isTimeoutEnded(_accessDateTime) */\n      swap2\n      swap1\n      0xffffffff\n      and\n      jump\t// in\n    tag_54:\n        /* \"contracts/study-case-contracts/002-orcid/Orcid.sol\":4049:4130  timeout_C2[0].isTimeoutEnded(_accessDateTime) &&... */\n      dup1\n      iszero\n      tag_60\n      jumpi\n      pop\n        /* \"contracts/study-case-contracts/002-orcid/Orcid.sol\":4111:4127  _resultFromXpath */\n      dup2\n        /* \"contracts/study-case-contracts/002-orcid/Orcid.sol\":4128:4129  0 */\n      0x00\n        /* \"contracts/study-case-contracts/002-orcid/Orcid.sol\":4111:4130  _resultFromXpath[0] */\n      dup2\n      mload\n      dup2\n      lt\n      tag_61\n      jumpi\n      tag_62\n      tag_57\n      jump\t// in\n    tag_62:\n    tag_61:\n      0x20\n      mul\n      0x20\n      add\n      add\n      mload\n        /* \"contracts/study-case-contracts/002-orcid/Orcid.sol\":4049:4130  timeout_C2[0].isTimeoutEnded(_accessDateTime) &&... */\n    tag_60:\n        /* \"contracts/study-case-contracts/002-orcid/Orcid.sol\":4046:4411  if(timeout_C2[0].isTimeoutEnded(_accessDateTime) &&... */\n      iszero\n      tag_63\n      jumpi\n        /* \"contracts/study-case-contracts/002-orcid/Orcid.sol\":4156:4218  maxNumberOfOperationByTime_C1[0].decreaseOneOperation_ByTime() */\n      tag_64\n        /* \"contracts/study-case-contracts/002-orcid/Orcid.sol\":4156:4185  maxNumberOfOperationByTime_C1 */\n      0x08\n        /* \"contracts/study-case-contracts/002-orcid/Orcid.sol\":4186:4187  0 */\n      0x00\n        /* \"contracts/study-case-contracts/002-orcid/Orcid.sol\":4156:4188  maxNumberOfOperationByTime_C1[0] */\n      dup2\n      sload\n      dup2\n      lt\n      tag_65\n      jumpi\n      tag_66\n      tag_57\n      jump\t// in\n    tag_66:\n    tag_65:\n      swap1\n      0x00\n      mstore\n      keccak256(0x00, 0x20)\n      add\n        /* \"contracts/study-case-contracts/002-orcid/Orcid.sol\":4156:4216  maxNumberOfOperationByTime_C1[0].decreaseOneOperation_ByTime */\n      tag_68\n        /* \"contracts/study-case-contracts/002-orcid/Orcid.sol\":4156:4218  maxNumberOfOperationByTime_C1[0].decreaseOneOperation_ByTime() */\n      jump\t// in\n    tag_64:\n        /* \"contracts/study-case-contracts/002-orcid/Orcid.sol\":4238:4275  successEvent(\"Successful execution!\") */\n      0x95a1f3a1dafdd4c1af344e3d7c69a72cbce8a3f15fe1cf95a7f5bd23df2e71a1\n      mload(0x40)\n      tag_69\n      swap1\n      tag_70\n      jump\t// in\n    tag_69:\n      mload(0x40)\n      dup1\n      swap2\n      sub\n      swap1\n      log1\n        /* \"contracts/study-case-contracts/002-orcid/Orcid.sol\":4297:4301  true */\n      0x01\n        /* \"contracts/study-case-contracts/002-orcid/Orcid.sol\":4290:4301  return true */\n      swap1\n      pop\n      jump(tag_53)\n        /* \"contracts/study-case-contracts/002-orcid/Orcid.sol\":4046:4411  if(timeout_C2[0].isTimeoutEnded(_accessDateTime) &&... */\n    tag_63:\n        /* \"contracts/study-case-contracts/002-orcid/Orcid.sol\":4337:4372  failEvent(\"Conditions do not meet\") */\n      0x66091b7dc2b097c8f60d5cd6aa99633b097f08d2eb1056f3e15361b22e0ea2ba\n      mload(0x40)\n      tag_72\n      swap1\n      tag_73\n      jump\t// in\n    tag_72:\n      mload(0x40)\n      dup1\n      swap2\n      sub\n      swap1\n      log1\n        /* \"contracts/study-case-contracts/002-orcid/Orcid.sol\":4394:4399  false */\n      0x00\n        /* \"contracts/study-case-contracts/002-orcid/Orcid.sol\":4387:4399  return false */\n      swap1\n      pop\n        /* \"contracts/study-case-contracts/002-orcid/Orcid.sol\":6471:6472  _ */\n    tag_53:\n        /* \"contracts/study-case-contracts/002-orcid/Orcid.sol\":3908:4421  function obligation_responseWorks(uint32 _accessDateTime, bool[] memory _resultFromXpath)public onlyApplication() returns(bool){... */\n      swap3\n      swap2\n      pop\n      pop\n      jump\t// out\n        /* \"contracts/study-case-contracts/002-orcid/Orcid.sol\":5347:5778  function changeApplicationParty(string memory _name, address _walletAddress) public returns(bool) {       ... */\n    tag_20:\n        /* \"contracts/study-case-contracts/002-orcid/Orcid.sol\":5439:5443  bool */\n      0x00\n        /* \"contracts/study-case-contracts/002-orcid/Orcid.sol\":5496:5506  msg.sender */\n      caller\n        /* \"contracts/study-case-contracts/002-orcid/Orcid.sol\":5471:5506  process.walletAddress == msg.sender */\n      0xffffffffffffffffffffffffffffffffffffffff\n      and\n        /* \"contracts/study-case-contracts/002-orcid/Orcid.sol\":5471:5478  process */\n      0x03\n        /* \"contracts/study-case-contracts/002-orcid/Orcid.sol\":5471:5492  process.walletAddress */\n      0x01\n      add\n      0x00\n      swap1\n      sload\n      swap1\n      0x0100\n      exp\n      swap1\n      div\n      0xffffffffffffffffffffffffffffffffffffffff\n      and\n        /* \"contracts/study-case-contracts/002-orcid/Orcid.sol\":5471:5506  process.walletAddress == msg.sender */\n      0xffffffffffffffffffffffffffffffffffffffff\n      and\n      eq\n        /* \"contracts/study-case-contracts/002-orcid/Orcid.sol\":5463:5554  require(process.walletAddress == msg.sender, \"Only the process can execute this operation\") */\n      tag_75\n      jumpi\n      mload(0x40)\n      0x08c379a000000000000000000000000000000000000000000000000000000000\n      dup2\n      mstore\n      0x04\n      add\n      tag_76\n      swap1\n      tag_77\n      jump\t// in\n    tag_76:\n      mload(0x40)\n      dup1\n      swap2\n      sub\n      swap1\n      revert\n    tag_75:\n        /* \"contracts/study-case-contracts/002-orcid/Orcid.sol\":5572:5580  mapParty */\n      0x05\n        /* \"contracts/study-case-contracts/002-orcid/Orcid.sol\":5572:5607  mapParty[application.walletAddress] */\n      0x00\n        /* \"contracts/study-case-contracts/002-orcid/Orcid.sol\":5581:5592  application */\n      0x01\n        /* \"contracts/study-case-contracts/002-orcid/Orcid.sol\":5581:5606  application.walletAddress */\n      dup1\n      add\n      0x00\n      swap1\n      sload\n      swap1\n      0x0100\n      exp\n      swap1\n      div\n      0xffffffffffffffffffffffffffffffffffffffff\n      and\n        /* \"contracts/study-case-contracts/002-orcid/Orcid.sol\":5572:5607  mapParty[application.walletAddress] */\n      0xffffffffffffffffffffffffffffffffffffffff\n      and\n      0xffffffffffffffffffffffffffffffffffffffff\n      and\n      dup2\n      mstore\n      0x20\n      add\n      swap1\n      dup2\n      mstore\n      0x20\n      add\n      0x00\n      keccak256\n      0x00\n        /* \"contracts/study-case-contracts/002-orcid/Orcid.sol\":5565:5607  delete mapParty[application.walletAddress] */\n      dup1\n      dup3\n      add\n      0x00\n      tag_78\n      swap2\n      swap1\n      tag_79\n      jump\t// in\n    tag_78:\n      0x01\n      dup3\n      add\n      exp(0x0100, 0x00)\n      dup2\n      sload\n      swap1\n      0xffffffffffffffffffffffffffffffffffffffff\n      mul\n      not\n      and\n      swap1\n      sstore\n      0x01\n      dup3\n      add\n      exp(0x0100, 0x14)\n      dup2\n      sload\n      swap1\n      0xff\n      mul\n      not\n      and\n      swap1\n      sstore\n      pop\n      pop\n        /* \"contracts/study-case-contracts/002-orcid/Orcid.sol\":5632:5677  EAI.createParty(_name, _walletAddress, false) */\n      tag_80\n        /* \"contracts/study-case-contracts/002-orcid/Orcid.sol\":5648:5653  _name */\n      dup4\n        /* \"contracts/study-case-contracts/002-orcid/Orcid.sol\":5655:5669  _walletAddress */\n      dup4\n        /* \"contracts/study-case-contracts/002-orcid/Orcid.sol\":5671:5676  false */\n      0x00\n        /* \"contracts/study-case-contracts/002-orcid/Orcid.sol\":5632:5647  EAI.createParty */\n      tag_43\n        /* \"contracts/study-case-contracts/002-orcid/Orcid.sol\":5632:5677  EAI.createParty(_name, _walletAddress, false) */\n      jump\t// in\n    tag_80:\n        /* \"contracts/study-case-contracts/002-orcid/Orcid.sol\":5618:5629  application */\n      0x01\n        /* \"contracts/study-case-contracts/002-orcid/Orcid.sol\":5618:5677  application = EAI.createParty(_name, _walletAddress, false) */\n      0x00\n      dup3\n      add\n      mload\n      dup2\n      0x00\n      add\n      swap1\n      dup1\n      mload\n      swap1\n      0x20\n      add\n      swap1\n      tag_81\n      swap3\n      swap2\n      swap1\n      tag_82\n      jump\t// in\n    tag_81:\n      pop\n      0x20\n      dup3\n      add\n      mload\n      dup2\n      0x01\n      add\n      exp(0x0100, 0x00)\n      dup2\n      sload\n      dup2\n      0xffffffffffffffffffffffffffffffffffffffff\n      mul\n      not\n      and\n      swap1\n      dup4\n      0xffffffffffffffffffffffffffffffffffffffff\n      and\n      mul\n      or\n      swap1\n      sstore\n      pop\n      0x40\n      dup3\n      add\n      mload\n      dup2\n      0x01\n      add\n      exp(0x0100, 0x14)\n      dup2\n      sload\n      dup2\n      0xff\n      mul\n      not\n      and\n      swap1\n      dup4\n      iszero\n      iszero\n      mul\n      or\n      swap1\n      sstore\n      pop\n      swap1\n      pop\n      pop\n        /* \"contracts/study-case-contracts/002-orcid/Orcid.sol\":5698:5741  updateMapParty(_walletAddress, application) */\n      tag_83\n        /* \"contracts/study-case-contracts/002-orcid/Orcid.sol\":5713:5727  _walletAddress */\n      dup3\n        /* \"contracts/study-case-contracts/002-orcid/Orcid.sol\":5729:5740  application */\n      0x01\n        /* \"contracts/study-case-contracts/002-orcid/Orcid.sol\":5698:5712  updateMapParty */\n      tag_84\n        /* \"contracts/study-case-contracts/002-orcid/Orcid.sol\":5698:5741  updateMapParty(_walletAddress, application) */\n      jump\t// in\n    tag_83:\n      pop\n        /* \"contracts/study-case-contracts/002-orcid/Orcid.sol\":5759:5763  true */\n      0x01\n        /* \"contracts/study-case-contracts/002-orcid/Orcid.sol\":5752:5763  return true */\n      swap1\n      pop\n        /* \"contracts/study-case-contracts/002-orcid/Orcid.sol\":5347:5778  function changeApplicationParty(string memory _name, address _walletAddress) public returns(bool) {       ... */\n      swap3\n      swap2\n      pop\n      pop\n      jump\t// out\n        /* \"contracts/study-case-contracts/002-orcid/Orcid.sol\":5926:6058  function getApplicationAddress() public view onlyInvolvedParties returns(address){... */\n    tag_23:\n        /* \"contracts/study-case-contracts/002-orcid/Orcid.sol\":5999:6006  address */\n      0x00\n        /* \"contracts/study-case-contracts/002-orcid/Orcid.sol\":6733:6743  msg.sender */\n      caller\n        /* \"contracts/study-case-contracts/002-orcid/Orcid.sol\":6704:6743  application.walletAddress == msg.sender */\n      0xffffffffffffffffffffffffffffffffffffffff\n      and\n        /* \"contracts/study-case-contracts/002-orcid/Orcid.sol\":6704:6715  application */\n      0x01\n        /* \"contracts/study-case-contracts/002-orcid/Orcid.sol\":6704:6729  application.walletAddress */\n      dup1\n      add\n      0x00\n      swap1\n      sload\n      swap1\n      0x0100\n      exp\n      swap1\n      div\n      0xffffffffffffffffffffffffffffffffffffffff\n      and\n        /* \"contracts/study-case-contracts/002-orcid/Orcid.sol\":6704:6743  application.walletAddress == msg.sender */\n      0xffffffffffffffffffffffffffffffffffffffff\n      and\n      eq\n        /* \"contracts/study-case-contracts/002-orcid/Orcid.sol\":6704:6782  application.walletAddress == msg.sender || process.walletAddress == msg.sender */\n      dup1\n      tag_86\n      jumpi\n      pop\n        /* \"contracts/study-case-contracts/002-orcid/Orcid.sol\":6772:6782  msg.sender */\n      caller\n        /* \"contracts/study-case-contracts/002-orcid/Orcid.sol\":6747:6782  process.walletAddress == msg.sender */\n      0xffffffffffffffffffffffffffffffffffffffff\n      and\n        /* \"contracts/study-case-contracts/002-orcid/Orcid.sol\":6747:6754  process */\n      0x03\n        /* \"contracts/study-case-contracts/002-orcid/Orcid.sol\":6747:6768  process.walletAddress */\n      0x01\n      add\n      0x00\n      swap1\n      sload\n      swap1\n      0x0100\n      exp\n      swap1\n      div\n      0xffffffffffffffffffffffffffffffffffffffff\n      and\n        /* \"contracts/study-case-contracts/002-orcid/Orcid.sol\":6747:6782  process.walletAddress == msg.sender */\n      0xffffffffffffffffffffffffffffffffffffffff\n      and\n      eq\n        /* \"contracts/study-case-contracts/002-orcid/Orcid.sol\":6704:6782  application.walletAddress == msg.sender || process.walletAddress == msg.sender */\n    tag_86:\n        /* \"contracts/study-case-contracts/002-orcid/Orcid.sol\":6681:6865  require(... */\n      tag_87\n      jumpi\n      mload(0x40)\n      0x08c379a000000000000000000000000000000000000000000000000000000000\n      dup2\n      mstore\n      0x04\n      add\n      tag_88\n      swap1\n      tag_89\n      jump\t// in\n    tag_88:\n      mload(0x40)\n      dup1\n      swap2\n      sub\n      swap1\n      revert\n    tag_87:\n        /* \"contracts/study-case-contracts/002-orcid/Orcid.sol\":6025:6036  application */\n      0x01\n        /* \"contracts/study-case-contracts/002-orcid/Orcid.sol\":6025:6050  application.walletAddress */\n      dup1\n      add\n      0x00\n      swap1\n      sload\n      swap1\n      0x0100\n      exp\n      swap1\n      div\n      0xffffffffffffffffffffffffffffffffffffffff\n      and\n        /* \"contracts/study-case-contracts/002-orcid/Orcid.sol\":6018:6050  return application.walletAddress */\n      swap1\n      pop\n        /* \"contracts/study-case-contracts/002-orcid/Orcid.sol\":5926:6058  function getApplicationAddress() public view onlyInvolvedParties returns(address){... */\n      swap1\n      jump\t// out\n        /* \"contracts/study-case-contracts/002-orcid/Orcid.sol\":5790:5914  function getProcessAddress() public view onlyInvolvedParties returns(address){... */\n    tag_27:\n        /* \"contracts/study-case-contracts/002-orcid/Orcid.sol\":5859:5866  address */\n      0x00\n        /* \"contracts/study-case-contracts/002-orcid/Orcid.sol\":6733:6743  msg.sender */\n      caller\n        /* \"contracts/study-case-contracts/002-orcid/Orcid.sol\":6704:6743  application.walletAddress == msg.sender */\n      0xffffffffffffffffffffffffffffffffffffffff\n      and\n        /* \"contracts/study-case-contracts/002-orcid/Orcid.sol\":6704:6715  application */\n      0x01\n        /* \"contracts/study-case-contracts/002-orcid/Orcid.sol\":6704:6729  application.walletAddress */\n      dup1\n      add\n      0x00\n      swap1\n      sload\n      swap1\n      0x0100\n      exp\n      swap1\n      div\n      0xffffffffffffffffffffffffffffffffffffffff\n      and\n        /* \"contracts/study-case-contracts/002-orcid/Orcid.sol\":6704:6743  application.walletAddress == msg.sender */\n      0xffffffffffffffffffffffffffffffffffffffff\n      and\n      eq\n        /* \"contracts/study-case-contracts/002-orcid/Orcid.sol\":6704:6782  application.walletAddress == msg.sender || process.walletAddress == msg.sender */\n      dup1\n      tag_92\n      jumpi\n      pop\n        /* \"contracts/study-case-contracts/002-orcid/Orcid.sol\":6772:6782  msg.sender */\n      caller\n        /* \"contracts/study-case-contracts/002-orcid/Orcid.sol\":6747:6782  process.walletAddress == msg.sender */\n      0xffffffffffffffffffffffffffffffffffffffff\n      and\n        /* \"contracts/study-case-contracts/002-orcid/Orcid.sol\":6747:6754  process */\n      0x03\n        /* \"contracts/study-case-contracts/002-orcid/Orcid.sol\":6747:6768  process.walletAddress */\n      0x01\n      add\n      0x00\n      swap1\n      sload\n      swap1\n      0x0100\n      exp\n      swap1\n      div\n      0xffffffffffffffffffffffffffffffffffffffff\n      and\n        /* \"contracts/study-case-contracts/002-orcid/Orcid.sol\":6747:6782  process.walletAddress == msg.sender */\n      0xffffffffffffffffffffffffffffffffffffffff\n      and\n      eq\n        /* \"contracts/study-case-contracts/002-orcid/Orcid.sol\":6704:6782  application.walletAddress == msg.sender || process.walletAddress == msg.sender */\n    tag_92:\n        /* \"contracts/study-case-contracts/002-orcid/Orcid.sol\":6681:6865  require(... */\n      tag_93\n      jumpi\n      mload(0x40)\n      0x08c379a000000000000000000000000000000000000000000000000000000000\n      dup2\n      mstore\n      0x04\n      add\n      tag_94\n      swap1\n      tag_89\n      jump\t// in\n    tag_94:\n      mload(0x40)\n      dup1\n      swap2\n      sub\n      swap1\n      revert\n    tag_93:\n        /* \"contracts/study-case-contracts/002-orcid/Orcid.sol\":5885:5892  process */\n      0x03\n        /* \"contracts/study-case-contracts/002-orcid/Orcid.sol\":5885:5906  process.walletAddress */\n      0x01\n      add\n      0x00\n      swap1\n      sload\n      swap1\n      0x0100\n      exp\n      swap1\n      div\n      0xffffffffffffffffffffffffffffffffffffffff\n      and\n        /* \"contracts/study-case-contracts/002-orcid/Orcid.sol\":5878:5906  return process.walletAddress */\n      swap1\n      pop\n        /* \"contracts/study-case-contracts/002-orcid/Orcid.sol\":5790:5914  function getProcessAddress() public view onlyInvolvedParties returns(address){... */\n      swap1\n      jump\t// out\n        /* \"contracts/study-case-contracts/002-orcid/Orcid.sol\":3241:3900  function right_requestAllWorks(uint8 _weekDay, uint32 _accessTime, uint32 _accessDateTime)public onlyProcess() returns(bool){... */\n    tag_32:\n        /* \"contracts/study-case-contracts/002-orcid/Orcid.sol\":3360:3364  bool */\n      0x00\n        /* \"contracts/study-case-contracts/002-orcid/Orcid.sol\":6554:6564  msg.sender */\n      caller\n        /* \"contracts/study-case-contracts/002-orcid/Orcid.sol\":6529:6564  process.walletAddress == msg.sender */\n      0xffffffffffffffffffffffffffffffffffffffff\n      and\n        /* \"contracts/study-case-contracts/002-orcid/Orcid.sol\":6529:6536  process */\n      0x03\n        /* \"contracts/study-case-contracts/002-orcid/Orcid.sol\":6529:6550  process.walletAddress */\n      0x01\n      add\n      0x00\n      swap1\n      sload\n      swap1\n      0x0100\n      exp\n      swap1\n      div\n      0xffffffffffffffffffffffffffffffffffffffff\n      and\n        /* \"contracts/study-case-contracts/002-orcid/Orcid.sol\":6529:6564  process.walletAddress == msg.sender */\n      0xffffffffffffffffffffffffffffffffffffffff\n      and\n      eq\n        /* \"contracts/study-case-contracts/002-orcid/Orcid.sol\":6521:6612  require(process.walletAddress == msg.sender, \"Only the process can execute this operation\") */\n      tag_97\n      jumpi\n      mload(0x40)\n      0x08c379a000000000000000000000000000000000000000000000000000000000\n      dup2\n      mstore\n      0x04\n      add\n      tag_98\n      swap1\n      tag_77\n      jump\t// in\n    tag_98:\n      mload(0x40)\n      dup1\n      swap2\n      sub\n      swap1\n      revert\n    tag_97:\n        /* \"contracts/study-case-contracts/002-orcid/Orcid.sol\":3382:3437  weekDaysInterval_C1[0].isIntoWeekDaysInterval(_weekDay) */\n      tag_100\n        /* \"contracts/study-case-contracts/002-orcid/Orcid.sol\":3428:3436  _weekDay */\n      dup5\n        /* \"contracts/study-case-contracts/002-orcid/Orcid.sol\":3382:3401  weekDaysInterval_C1 */\n      0x06\n        /* \"contracts/study-case-contracts/002-orcid/Orcid.sol\":3402:3403  0 */\n      0x00\n        /* \"contracts/study-case-contracts/002-orcid/Orcid.sol\":3382:3404  weekDaysInterval_C1[0] */\n      dup2\n      sload\n      dup2\n      lt\n      tag_101\n      jumpi\n      tag_102\n      tag_57\n      jump\t// in\n    tag_102:\n    tag_101:\n      swap1\n      0x00\n      mstore\n      keccak256(0x00, 0x20)\n      add\n        /* \"contracts/study-case-contracts/002-orcid/Orcid.sol\":3382:3427  weekDaysInterval_C1[0].isIntoWeekDaysInterval */\n      mload(0x40)\n      dup1\n      0x40\n      add\n      0x40\n      mstore\n      swap1\n      dup2\n      0x00\n      dup3\n      add\n      0x00\n      swap1\n      sload\n      swap1\n      0x0100\n      exp\n      swap1\n      div\n      0xff\n      and\n      0xff\n      and\n      0xff\n      and\n      dup2\n      mstore\n      0x20\n      add\n      0x00\n      dup3\n      add\n      0x01\n      swap1\n      sload\n      swap1\n      0x0100\n      exp\n      swap1\n      div\n      0xff\n      and\n      0xff\n      and\n      0xff\n      and\n      dup2\n      mstore\n      pop\n      pop\n      tag_104\n      swap1\n        /* \"contracts/study-case-contracts/002-orcid/Orcid.sol\":3382:3437  weekDaysInterval_C1[0].isIntoWeekDaysInterval(_weekDay) */\n      swap2\n      swap1\n      0xffffffff\n      and\n      jump\t// in\n    tag_100:\n        /* \"contracts/study-case-contracts/002-orcid/Orcid.sol\":3382:3504  weekDaysInterval_C1[0].isIntoWeekDaysInterval(_weekDay) &&... */\n      dup1\n      iszero\n      tag_105\n      jumpi\n      pop\n        /* \"contracts/study-case-contracts/002-orcid/Orcid.sol\":3454:3504  timeInterval_C1[0].isIntoTimeInterval(_accessTime) */\n      tag_106\n        /* \"contracts/study-case-contracts/002-orcid/Orcid.sol\":3492:3503  _accessTime */\n      dup4\n        /* \"contracts/study-case-contracts/002-orcid/Orcid.sol\":3454:3469  timeInterval_C1 */\n      0x07\n        /* \"contracts/study-case-contracts/002-orcid/Orcid.sol\":3470:3471  0 */\n      0x00\n        /* \"contracts/study-case-contracts/002-orcid/Orcid.sol\":3454:3472  timeInterval_C1[0] */\n      dup2\n      sload\n      dup2\n      lt\n      tag_107\n      jumpi\n      tag_108\n      tag_57\n      jump\t// in\n    tag_108:\n    tag_107:\n      swap1\n      0x00\n      mstore\n      keccak256(0x00, 0x20)\n      add\n        /* \"contracts/study-case-contracts/002-orcid/Orcid.sol\":3454:3491  timeInterval_C1[0].isIntoTimeInterval */\n      mload(0x40)\n      dup1\n      0x40\n      add\n      0x40\n      mstore\n      swap1\n      dup2\n      0x00\n      dup3\n      add\n      0x00\n      swap1\n      sload\n      swap1\n      0x0100\n      exp\n      swap1\n      div\n      0xffffffff\n      and\n      0xffffffff\n      and\n      0xffffffff\n      and\n      dup2\n      mstore\n      0x20\n      add\n      0x00\n      dup3\n      add\n      0x04\n      swap1\n      sload\n      swap1\n      0x0100\n      exp\n      swap1\n      div\n      0xffffffff\n      and\n      0xffffffff\n      and\n      0xffffffff\n      and\n      dup2\n      mstore\n      pop\n      pop\n      tag_110\n      swap1\n        /* \"contracts/study-case-contracts/002-orcid/Orcid.sol\":3454:3504  timeInterval_C1[0].isIntoTimeInterval(_accessTime) */\n      swap2\n      swap1\n      0xffffffff\n      and\n      jump\t// in\n    tag_106:\n        /* \"contracts/study-case-contracts/002-orcid/Orcid.sol\":3382:3504  weekDaysInterval_C1[0].isIntoWeekDaysInterval(_weekDay) &&... */\n    tag_105:\n        /* \"contracts/study-case-contracts/002-orcid/Orcid.sol\":3382:3600  weekDaysInterval_C1[0].isIntoWeekDaysInterval(_weekDay) &&... */\n      dup1\n      iszero\n      tag_111\n      jumpi\n      pop\n        /* \"contracts/study-case-contracts/002-orcid/Orcid.sol\":3521:3600  maxNumberOfOperationByTime_C1[0].hasAvailableOperations_ByTime(_accessDateTime) */\n      tag_112\n        /* \"contracts/study-case-contracts/002-orcid/Orcid.sol\":3584:3599  _accessDateTime */\n      dup3\n        /* \"contracts/study-case-contracts/002-orcid/Orcid.sol\":3521:3550  maxNumberOfOperationByTime_C1 */\n      0x08\n        /* \"contracts/study-case-contracts/002-orcid/Orcid.sol\":3551:3552  0 */\n      0x00\n        /* \"contracts/study-case-contracts/002-orcid/Orcid.sol\":3521:3553  maxNumberOfOperationByTime_C1[0] */\n      dup2\n      sload\n      dup2\n      lt\n      tag_113\n      jumpi\n      tag_114\n      tag_57\n      jump\t// in\n    tag_114:\n    tag_113:\n      swap1\n      0x00\n      mstore\n      keccak256(0x00, 0x20)\n      add\n        /* \"contracts/study-case-contracts/002-orcid/Orcid.sol\":3521:3583  maxNumberOfOperationByTime_C1[0].hasAvailableOperations_ByTime */\n      tag_116\n      swap1\n        /* \"contracts/study-case-contracts/002-orcid/Orcid.sol\":3521:3600  maxNumberOfOperationByTime_C1[0].hasAvailableOperations_ByTime(_accessDateTime) */\n      swap2\n      swap1\n      0xffffffff\n      and\n      jump\t// in\n    tag_112:\n        /* \"contracts/study-case-contracts/002-orcid/Orcid.sol\":3382:3600  weekDaysInterval_C1[0].isIntoWeekDaysInterval(_weekDay) &&... */\n    tag_111:\n        /* \"contracts/study-case-contracts/002-orcid/Orcid.sol\":3378:3878  if( weekDaysInterval_C1[0].isIntoWeekDaysInterval(_weekDay) &&... */\n      iszero\n      tag_117\n      jumpi\n        /* \"contracts/study-case-contracts/002-orcid/Orcid.sol\":3626:3676  timeout_C2[0].setEndTimeInTimeout(_accessDateTime) */\n      tag_118\n        /* \"contracts/study-case-contracts/002-orcid/Orcid.sol\":3660:3675  _accessDateTime */\n      dup3\n        /* \"contracts/study-case-contracts/002-orcid/Orcid.sol\":3626:3636  timeout_C2 */\n      0x09\n        /* \"contracts/study-case-contracts/002-orcid/Orcid.sol\":3637:3638  0 */\n      0x00\n        /* \"contracts/study-case-contracts/002-orcid/Orcid.sol\":3626:3639  timeout_C2[0] */\n      dup2\n      sload\n      dup2\n      lt\n      tag_119\n      jumpi\n      tag_120\n      tag_57\n      jump\t// in\n    tag_120:\n    tag_119:\n      swap1\n      0x00\n      mstore\n      keccak256(0x00, 0x20)\n      add\n        /* \"contracts/study-case-contracts/002-orcid/Orcid.sol\":3626:3659  timeout_C2[0].setEndTimeInTimeout */\n      tag_122\n      swap1\n        /* \"contracts/study-case-contracts/002-orcid/Orcid.sol\":3626:3676  timeout_C2[0].setEndTimeInTimeout(_accessDateTime) */\n      swap2\n      swap1\n      0xffffffff\n      and\n      jump\t// in\n    tag_118:\n        /* \"contracts/study-case-contracts/002-orcid/Orcid.sol\":3704:3741  successEvent(\"Successful execution!\") */\n      0x95a1f3a1dafdd4c1af344e3d7c69a72cbce8a3f15fe1cf95a7f5bd23df2e71a1\n      mload(0x40)\n      tag_123\n      swap1\n      tag_70\n      jump\t// in\n    tag_123:\n      mload(0x40)\n      dup1\n      swap2\n      sub\n      swap1\n      log1\n        /* \"contracts/study-case-contracts/002-orcid/Orcid.sol\":3763:3767  true */\n      0x01\n        /* \"contracts/study-case-contracts/002-orcid/Orcid.sol\":3756:3767  return true */\n      swap1\n      pop\n      jump(tag_99)\n        /* \"contracts/study-case-contracts/002-orcid/Orcid.sol\":3378:3878  if( weekDaysInterval_C1[0].isIntoWeekDaysInterval(_weekDay) &&... */\n    tag_117:\n        /* \"contracts/study-case-contracts/002-orcid/Orcid.sol\":3804:3839  failEvent(\"Conditions do not meet\") */\n      0x66091b7dc2b097c8f60d5cd6aa99633b097f08d2eb1056f3e15361b22e0ea2ba\n      mload(0x40)\n      tag_125\n      swap1\n      tag_73\n      jump\t// in\n    tag_125:\n      mload(0x40)\n      dup1\n      swap2\n      sub\n      swap1\n      log1\n        /* \"contracts/study-case-contracts/002-orcid/Orcid.sol\":3861:3866  false */\n      0x00\n        /* \"contracts/study-case-contracts/002-orcid/Orcid.sol\":3854:3866  return false */\n      swap1\n      pop\n        /* \"contracts/study-case-contracts/002-orcid/Orcid.sol\":6623:6624  _ */\n    tag_99:\n        /* \"contracts/study-case-contracts/002-orcid/Orcid.sol\":3241:3900  function right_requestAllWorks(uint8 _weekDay, uint32 _accessTime, uint32 _accessDateTime)public onlyProcess() returns(bool){... */\n      swap4\n      swap3\n      pop\n      pop\n      pop\n      jump\t// out\n        /* \"contracts/study-case-contracts/002-orcid/Orcid.sol\":4747:5009  function signContract() public onlyApplication() returns(bool) {... */\n    tag_35:\n        /* \"contracts/study-case-contracts/002-orcid/Orcid.sol\":4804:4808  bool */\n      0x00\n        /* \"contracts/study-case-contracts/002-orcid/Orcid.sol\":6398:6408  msg.sender */\n      caller\n        /* \"contracts/study-case-contracts/002-orcid/Orcid.sol\":6369:6408  application.walletAddress == msg.sender */\n      0xffffffffffffffffffffffffffffffffffffffff\n      and\n        /* \"contracts/study-case-contracts/002-orcid/Orcid.sol\":6369:6380  application */\n      0x01\n        /* \"contracts/study-case-contracts/002-orcid/Orcid.sol\":6369:6394  application.walletAddress */\n      dup1\n      add\n      0x00\n      swap1\n      sload\n      swap1\n      0x0100\n      exp\n      swap1\n      div\n      0xffffffffffffffffffffffffffffffffffffffff\n      and\n        /* \"contracts/study-case-contracts/002-orcid/Orcid.sol\":6369:6408  application.walletAddress == msg.sender */\n      0xffffffffffffffffffffffffffffffffffffffff\n      and\n      eq\n        /* \"contracts/study-case-contracts/002-orcid/Orcid.sol\":6361:6460  require(application.walletAddress == msg.sender, \"Only the application can execute this operation\") */\n      tag_127\n      jumpi\n      mload(0x40)\n      0x08c379a000000000000000000000000000000000000000000000000000000000\n      dup2\n      mstore\n      0x04\n      add\n      tag_128\n      swap1\n      tag_52\n      jump\t// in\n    tag_128:\n      mload(0x40)\n      dup1\n      swap2\n      sub\n      swap1\n      revert\n    tag_127:\n        /* \"contracts/study-case-contracts/002-orcid/Orcid.sol\":4850:4855  false */\n      0x00\n        /* \"contracts/study-case-contracts/002-orcid/Orcid.sol\":4829:4855  application.aware == false */\n      iszero\n      iszero\n        /* \"contracts/study-case-contracts/002-orcid/Orcid.sol\":4829:4840  application */\n      0x01\n        /* \"contracts/study-case-contracts/002-orcid/Orcid.sol\":4829:4846  application.aware */\n      dup1\n      add\n      0x14\n      swap1\n      sload\n      swap1\n      0x0100\n      exp\n      swap1\n      div\n      0xff\n      and\n        /* \"contracts/study-case-contracts/002-orcid/Orcid.sol\":4829:4855  application.aware == false */\n      iszero\n      iszero\n      eq\n        /* \"contracts/study-case-contracts/002-orcid/Orcid.sol\":4821:4890  require(application.aware == false, \"The contract is already signed\") */\n      tag_130\n      jumpi\n      mload(0x40)\n      0x08c379a000000000000000000000000000000000000000000000000000000000\n      dup2\n      mstore\n      0x04\n      add\n      tag_131\n      swap1\n      tag_132\n      jump\t// in\n    tag_131:\n      mload(0x40)\n      dup1\n      swap2\n      sub\n      swap1\n      revert\n    tag_130:\n        /* \"contracts/study-case-contracts/002-orcid/Orcid.sol\":4929:4933  true */\n      0x01\n        /* \"contracts/study-case-contracts/002-orcid/Orcid.sol\":4909:4920  application */\n      dup1\n        /* \"contracts/study-case-contracts/002-orcid/Orcid.sol\":4909:4926  application.aware */\n      0x01\n      add\n      0x14\n        /* \"contracts/study-case-contracts/002-orcid/Orcid.sol\":4909:4933  application.aware = true */\n      0x0100\n      exp\n      dup2\n      sload\n      dup2\n      0xff\n      mul\n      not\n      and\n      swap1\n      dup4\n      iszero\n      iszero\n      mul\n      or\n      swap1\n      sstore\n      pop\n        /* \"contracts/study-case-contracts/002-orcid/Orcid.sol\":4946:4985  updateMapParty(msg.sender, application) */\n      tag_133\n        /* \"contracts/study-case-contracts/002-orcid/Orcid.sol\":4961:4971  msg.sender */\n      caller\n        /* \"contracts/study-case-contracts/002-orcid/Orcid.sol\":4973:4984  application */\n      0x01\n        /* \"contracts/study-case-contracts/002-orcid/Orcid.sol\":4946:4960  updateMapParty */\n      tag_84\n        /* \"contracts/study-case-contracts/002-orcid/Orcid.sol\":4946:4985  updateMapParty(msg.sender, application) */\n      jump\t// in\n    tag_133:\n      pop\n        /* \"contracts/study-case-contracts/002-orcid/Orcid.sol\":4997:5001  true */\n      0x01\n        /* \"contracts/study-case-contracts/002-orcid/Orcid.sol\":4990:5001  return true */\n      swap1\n      pop\n        /* \"contracts/study-case-contracts/002-orcid/Orcid.sol\":4747:5009  function signContract() public onlyApplication() returns(bool) {... */\n      swap1\n      jump\t// out\n        /* \"contracts/study-case-contracts/002-orcid/Orcid.sol\":6066:6215  function getParty(address _walletAddress) public view onlyInvolvedParties returns(EAI.Party memory){... */\n    tag_40:\n        /* \"contracts/study-case-contracts/002-orcid/Orcid.sol\":6148:6164  EAI.Party memory */\n      tag_134\n      tag_135\n      jump\t// in\n    tag_134:\n        /* \"contracts/study-case-contracts/002-orcid/Orcid.sol\":6733:6743  msg.sender */\n      caller\n        /* \"contracts/study-case-contracts/002-orcid/Orcid.sol\":6704:6743  application.walletAddress == msg.sender */\n      0xffffffffffffffffffffffffffffffffffffffff\n      and\n        /* \"contracts/study-case-contracts/002-orcid/Orcid.sol\":6704:6715  application */\n      0x01\n        /* \"contracts/study-case-contracts/002-orcid/Orcid.sol\":6704:6729  application.walletAddress */\n      dup1\n      add\n      0x00\n      swap1\n      sload\n      swap1\n      0x0100\n      exp\n      swap1\n      div\n      0xffffffffffffffffffffffffffffffffffffffff\n      and\n        /* \"contracts/study-case-contracts/002-orcid/Orcid.sol\":6704:6743  application.walletAddress == msg.sender */\n      0xffffffffffffffffffffffffffffffffffffffff\n      and\n      eq\n        /* \"contracts/study-case-contracts/002-orcid/Orcid.sol\":6704:6782  application.walletAddress == msg.sender || process.walletAddress == msg.sender */\n      dup1\n      tag_137\n      jumpi\n      pop\n        /* \"contracts/study-case-contracts/002-orcid/Orcid.sol\":6772:6782  msg.sender */\n      caller\n        /* \"contracts/study-case-contracts/002-orcid/Orcid.sol\":6747:6782  process.walletAddress == msg.sender */\n      0xffffffffffffffffffffffffffffffffffffffff\n      and\n        /* \"contracts/study-case-contracts/002-orcid/Orcid.sol\":6747:6754  process */\n      0x03\n        /* \"contracts/study-case-contracts/002-orcid/Orcid.sol\":6747:6768  process.walletAddress */\n      0x01\n      add\n      0x00\n      swap1\n      sload\n      swap1\n      0x0100\n      exp\n      swap1\n      div\n      0xffffffffffffffffffffffffffffffffffffffff\n      and\n        /* \"contracts/study-case-contracts/002-orcid/Orcid.sol\":6747:6782  process.walletAddress == msg.sender */\n      0xffffffffffffffffffffffffffffffffffffffff\n      and\n      eq\n        /* \"contracts/study-case-contracts/002-orcid/Orcid.sol\":6704:6782  application.walletAddress == msg.sender || process.walletAddress == msg.sender */\n    tag_137:\n        /* \"contracts/study-case-contracts/002-orcid/Orcid.sol\":6681:6865  require(... */\n      tag_138\n      jumpi\n      mload(0x40)\n      0x08c379a000000000000000000000000000000000000000000000000000000000\n      dup2\n      mstore\n      0x04\n      add\n      tag_139\n      swap1\n      tag_89\n      jump\t// in\n    tag_139:\n      mload(0x40)\n      dup1\n      swap2\n      sub\n      swap1\n      revert\n    tag_138:\n        /* \"contracts/study-case-contracts/002-orcid/Orcid.sol\":6183:6191  mapParty */\n      0x05\n        /* \"contracts/study-case-contracts/002-orcid/Orcid.sol\":6183:6207  mapParty[_walletAddress] */\n      0x00\n        /* \"contracts/study-case-contracts/002-orcid/Orcid.sol\":6192:6206  _walletAddress */\n      dup4\n        /* \"contracts/study-case-contracts/002-orcid/Orcid.sol\":6183:6207  mapParty[_walletAddress] */\n      0xffffffffffffffffffffffffffffffffffffffff\n      and\n      0xffffffffffffffffffffffffffffffffffffffff\n      and\n      dup2\n      mstore\n      0x20\n      add\n      swap1\n      dup2\n      mstore\n      0x20\n      add\n      0x00\n      keccak256\n        /* \"contracts/study-case-contracts/002-orcid/Orcid.sol\":6176:6207  return mapParty[_walletAddress] */\n      mload(0x40)\n      dup1\n      0x60\n      add\n      0x40\n      mstore\n      swap1\n      dup2\n      0x00\n      dup3\n      add\n      dup1\n      sload\n      tag_141\n      swap1\n      tag_142\n      jump\t// in\n    tag_141:\n      dup1\n      0x1f\n      add\n      0x20\n      dup1\n      swap2\n      div\n      mul\n      0x20\n      add\n      mload(0x40)\n      swap1\n      dup2\n      add\n      0x40\n      mstore\n      dup1\n      swap3\n      swap2\n      swap1\n      dup2\n      dup2\n      mstore\n      0x20\n      add\n      dup3\n      dup1\n      sload\n      tag_143\n      swap1\n      tag_142\n      jump\t// in\n    tag_143:\n      dup1\n      iszero\n      tag_144\n      jumpi\n      dup1\n      0x1f\n      lt\n      tag_145\n      jumpi\n      0x0100\n      dup1\n      dup4\n      sload\n      div\n      mul\n      dup4\n      mstore\n      swap2\n      0x20\n      add\n      swap2\n      jump(tag_144)\n    tag_145:\n      dup3\n      add\n      swap2\n      swap1\n      0x00\n      mstore\n      keccak256(0x00, 0x20)\n      swap1\n    tag_146:\n      dup2\n      sload\n      dup2\n      mstore\n      swap1\n      0x01\n      add\n      swap1\n      0x20\n      add\n      dup1\n      dup4\n      gt\n      tag_146\n      jumpi\n      dup3\n      swap1\n      sub\n      0x1f\n      and\n      dup3\n      add\n      swap2\n    tag_144:\n      pop\n      pop\n      pop\n      pop\n      pop\n      dup2\n      mstore\n      0x20\n      add\n      0x01\n      dup3\n      add\n      0x00\n      swap1\n      sload\n      swap1\n      0x0100\n      exp\n      swap1\n      div\n      0xffffffffffffffffffffffffffffffffffffffff\n      and\n      0xffffffffffffffffffffffffffffffffffffffff\n      and\n      0xffffffffffffffffffffffffffffffffffffffff\n      and\n      dup2\n      mstore\n      0x20\n      add\n      0x01\n      dup3\n      add\n      0x14\n      swap1\n      sload\n      swap1\n      0x0100\n      exp\n      swap1\n      div\n      0xff\n      and\n      iszero\n      iszero\n      iszero\n      iszero\n      dup2\n      mstore\n      pop\n      pop\n      swap1\n      pop\n        /* \"contracts/study-case-contracts/002-orcid/Orcid.sol\":6066:6215  function getParty(address _walletAddress) public view onlyInvolvedParties returns(EAI.Party memory){... */\n      swap2\n      swap1\n      pop\n      jump\t// out\n        /* \"contracts/lib/eai/EAI.sol\":1588:1764  function createParty(string memory _name, address _walletAddress, bool _aware) internal pure returns(Party memory){... */\n    tag_43:\n        /* \"contracts/lib/eai/EAI.sol\":1689:1701  Party memory */\n      tag_147\n      tag_135\n      jump\t// in\n    tag_147:\n        /* \"contracts/lib/eai/EAI.sol\":1720:1756  Party(_name, _walletAddress, _aware) */\n      mload(0x40)\n      dup1\n      0x60\n      add\n      0x40\n      mstore\n      dup1\n        /* \"contracts/lib/eai/EAI.sol\":1726:1731  _name */\n      dup6\n        /* \"contracts/lib/eai/EAI.sol\":1720:1756  Party(_name, _walletAddress, _aware) */\n      dup2\n      mstore\n      0x20\n      add\n        /* \"contracts/lib/eai/EAI.sol\":1733:1747  _walletAddress */\n      dup5\n        /* \"contracts/lib/eai/EAI.sol\":1720:1756  Party(_name, _walletAddress, _aware) */\n      0xffffffffffffffffffffffffffffffffffffffff\n      and\n      dup2\n      mstore\n      0x20\n      add\n        /* \"contracts/lib/eai/EAI.sol\":1749:1755  _aware */\n      dup4\n        /* \"contracts/lib/eai/EAI.sol\":1720:1756  Party(_name, _walletAddress, _aware) */\n      iszero\n      iszero\n      dup2\n      mstore\n      pop\n        /* \"contracts/lib/eai/EAI.sol\":1713:1756  return Party(_name, _walletAddress, _aware) */\n      swap1\n      pop\n        /* \"contracts/lib/eai/EAI.sol\":1588:1764  function createParty(string memory _name, address _walletAddress, bool _aware) internal pure returns(Party memory){... */\n      swap4\n      swap3\n      pop\n      pop\n      pop\n      jump\t// out\n        /* \"contracts/lib/eai/EAI.sol\":2808:3028  function createWeekDaysInterval(... */\n    tag_44:\n        /* \"contracts/lib/eai/EAI.sol\":2948:2971  WeekDaysInterval memory */\n      tag_149\n      tag_150\n      jump\t// in\n    tag_149:\n        /* \"contracts/lib/eai/EAI.sol\":2924:2930  _start */\n      dup3\n        /* \"contracts/lib/eai/EAI.sol\":2932:2936  _end */\n      dup3\n        /* \"contracts/lib/eai/EAI.sol\":431:432  0 */\n      0x00\n        /* \"contracts/lib/eai/EAI.sol\":4953:4972  _startDay >= SUNDAY */\n      0xff\n      and\n        /* \"contracts/lib/eai/EAI.sol\":4953:4962  _startDay */\n      dup3\n        /* \"contracts/lib/eai/EAI.sol\":4953:4972  _startDay >= SUNDAY */\n      0xff\n      and\n      lt\n      iszero\n        /* \"contracts/lib/eai/EAI.sol\":4953:4997  _startDay >= SUNDAY && _startDay <= SATURDAY */\n      dup1\n      iszero\n      tag_152\n      jumpi\n      pop\n        /* \"contracts/lib/eai/EAI.sol\":619:620  6 */\n      0x06\n        /* \"contracts/lib/eai/EAI.sol\":4976:4997  _startDay <= SATURDAY */\n      0xff\n      and\n        /* \"contracts/lib/eai/EAI.sol\":4976:4985  _startDay */\n      dup3\n        /* \"contracts/lib/eai/EAI.sol\":4976:4997  _startDay <= SATURDAY */\n      0xff\n      and\n      gt\n      iszero\n        /* \"contracts/lib/eai/EAI.sol\":4953:4997  _startDay >= SUNDAY && _startDay <= SATURDAY */\n    tag_152:\n        /* \"contracts/lib/eai/EAI.sol\":4944:5042  require( _startDay >= SUNDAY && _startDay <= SATURDAY, \"The _startDay not represents a valid day\") */\n      tag_153\n      jumpi\n      mload(0x40)\n      0x08c379a000000000000000000000000000000000000000000000000000000000\n      dup2\n      mstore\n      0x04\n      add\n      tag_154\n      swap1\n      tag_155\n      jump\t// in\n    tag_154:\n      mload(0x40)\n      dup1\n      swap2\n      sub\n      swap1\n      revert\n    tag_153:\n        /* \"contracts/lib/eai/EAI.sol\":431:432  0 */\n      0x00\n        /* \"contracts/lib/eai/EAI.sol\":5061:5078  _endDay >= SUNDAY */\n      0xff\n      and\n        /* \"contracts/lib/eai/EAI.sol\":5061:5068  _endDay */\n      dup2\n        /* \"contracts/lib/eai/EAI.sol\":5061:5078  _endDay >= SUNDAY */\n      0xff\n      and\n      lt\n      iszero\n        /* \"contracts/lib/eai/EAI.sol\":5061:5101  _endDay >= SUNDAY && _endDay <= SATURDAY */\n      dup1\n      iszero\n      tag_156\n      jumpi\n      pop\n        /* \"contracts/lib/eai/EAI.sol\":619:620  6 */\n      0x06\n        /* \"contracts/lib/eai/EAI.sol\":5082:5101  _endDay <= SATURDAY */\n      0xff\n      and\n        /* \"contracts/lib/eai/EAI.sol\":5082:5089  _endDay */\n      dup2\n        /* \"contracts/lib/eai/EAI.sol\":5082:5101  _endDay <= SATURDAY */\n      0xff\n      and\n      gt\n      iszero\n        /* \"contracts/lib/eai/EAI.sol\":5061:5101  _endDay >= SUNDAY && _endDay <= SATURDAY */\n    tag_156:\n        /* \"contracts/lib/eai/EAI.sol\":5053:5145  require(_endDay >= SUNDAY && _endDay <= SATURDAY,  \"The _endDay not represents a valid day\") */\n      tag_157\n      jumpi\n      mload(0x40)\n      0x08c379a000000000000000000000000000000000000000000000000000000000\n      dup2\n      mstore\n      0x04\n      add\n      tag_158\n      swap1\n      tag_159\n      jump\t// in\n    tag_158:\n      mload(0x40)\n      dup1\n      swap2\n      sub\n      swap1\n      revert\n    tag_157:\n        /* \"contracts/lib/eai/EAI.sol\":2990:3020  WeekDaysInterval(_start, _end) */\n      mload(0x40)\n      dup1\n      0x40\n      add\n      0x40\n      mstore\n      dup1\n        /* \"contracts/lib/eai/EAI.sol\":3007:3013  _start */\n      dup7\n        /* \"contracts/lib/eai/EAI.sol\":2990:3020  WeekDaysInterval(_start, _end) */\n      0xff\n      and\n      dup2\n      mstore\n      0x20\n      add\n        /* \"contracts/lib/eai/EAI.sol\":3015:3019  _end */\n      dup6\n        /* \"contracts/lib/eai/EAI.sol\":2990:3020  WeekDaysInterval(_start, _end) */\n      0xff\n      and\n      dup2\n      mstore\n      pop\n        /* \"contracts/lib/eai/EAI.sol\":2983:3020  return WeekDaysInterval(_start, _end) */\n      swap3\n      pop\n        /* \"contracts/lib/eai/EAI.sol\":2808:3028  function createWeekDaysInterval(... */\n      pop\n      pop\n      swap3\n      swap2\n      pop\n      pop\n      jump\t// out\n        /* \"contracts/lib/eai/EAI.sol\":5722:5933  function createTimeInterval(... */\n    tag_45:\n        /* \"contracts/lib/eai/EAI.sol\":5861:5880  TimeInterval memory */\n      tag_161\n      tag_162\n      jump\t// in\n    tag_161:\n        /* \"contracts/lib/eai/EAI.sol\":5837:5843  _start */\n      dup3\n        /* \"contracts/lib/eai/EAI.sol\":5845:5849  _end */\n      dup3\n        /* \"contracts/lib/eai/EAI.sol\":990:991  0 */\n      0x00\n        /* \"contracts/lib/eai/EAI.sol\":7600:7620  _startHr >= MIN_HOUR */\n      0xffffffff\n      and\n        /* \"contracts/lib/eai/EAI.sol\":7600:7608  _startHr */\n      dup3\n        /* \"contracts/lib/eai/EAI.sol\":7600:7620  _startHr >= MIN_HOUR */\n      0xffffffff\n      and\n      lt\n      iszero\n        /* \"contracts/lib/eai/EAI.sol\":7600:7644  _startHr >= MIN_HOUR && _startHr <= MAX_HOUR */\n      dup1\n      iszero\n      tag_164\n      jumpi\n      pop\n        /* \"contracts/lib/eai/EAI.sol\":1024:1029  86399 */\n      0x01517f\n        /* \"contracts/lib/eai/EAI.sol\":7624:7644  _startHr <= MAX_HOUR */\n      0xffffffff\n      and\n        /* \"contracts/lib/eai/EAI.sol\":7624:7632  _startHr */\n      dup3\n        /* \"contracts/lib/eai/EAI.sol\":7624:7644  _startHr <= MAX_HOUR */\n      0xffffffff\n      and\n      gt\n      iszero\n        /* \"contracts/lib/eai/EAI.sol\":7600:7644  _startHr >= MIN_HOUR && _startHr <= MAX_HOUR */\n    tag_164:\n        /* \"contracts/lib/eai/EAI.sol\":7591:7689  require( _startHr >= MIN_HOUR && _startHr <= MAX_HOUR, \"The _startDay not represents a valid day\") */\n      tag_165\n      jumpi\n      mload(0x40)\n      0x08c379a000000000000000000000000000000000000000000000000000000000\n      dup2\n      mstore\n      0x04\n      add\n      tag_166\n      swap1\n      tag_155\n      jump\t// in\n    tag_166:\n      mload(0x40)\n      dup1\n      swap2\n      sub\n      swap1\n      revert\n    tag_165:\n        /* \"contracts/lib/eai/EAI.sol\":990:991  0 */\n      0x00\n        /* \"contracts/lib/eai/EAI.sol\":7708:7726  _endHr >= MIN_HOUR */\n      0xffffffff\n      and\n        /* \"contracts/lib/eai/EAI.sol\":7708:7714  _endHr */\n      dup2\n        /* \"contracts/lib/eai/EAI.sol\":7708:7726  _endHr >= MIN_HOUR */\n      0xffffffff\n      and\n      lt\n      iszero\n        /* \"contracts/lib/eai/EAI.sol\":7708:7748  _endHr >= MIN_HOUR && _endHr <= MAX_HOUR */\n      dup1\n      iszero\n      tag_167\n      jumpi\n      pop\n        /* \"contracts/lib/eai/EAI.sol\":1024:1029  86399 */\n      0x01517f\n        /* \"contracts/lib/eai/EAI.sol\":7730:7748  _endHr <= MAX_HOUR */\n      0xffffffff\n      and\n        /* \"contracts/lib/eai/EAI.sol\":7730:7736  _endHr */\n      dup2\n        /* \"contracts/lib/eai/EAI.sol\":7730:7748  _endHr <= MAX_HOUR */\n      0xffffffff\n      and\n      gt\n      iszero\n        /* \"contracts/lib/eai/EAI.sol\":7708:7748  _endHr >= MIN_HOUR && _endHr <= MAX_HOUR */\n    tag_167:\n        /* \"contracts/lib/eai/EAI.sol\":7700:7792  require(_endHr >= MIN_HOUR && _endHr <= MAX_HOUR,  \"The _endDay not represents a valid day\") */\n      tag_168\n      jumpi\n      mload(0x40)\n      0x08c379a000000000000000000000000000000000000000000000000000000000\n      dup2\n      mstore\n      0x04\n      add\n      tag_169\n      swap1\n      tag_159\n      jump\t// in\n    tag_169:\n      mload(0x40)\n      dup1\n      swap2\n      sub\n      swap1\n      revert\n    tag_168:\n        /* \"contracts/lib/eai/EAI.sol\":5899:5925  TimeInterval(_start, _end) */\n      mload(0x40)\n      dup1\n      0x40\n      add\n      0x40\n      mstore\n      dup1\n        /* \"contracts/lib/eai/EAI.sol\":5912:5918  _start */\n      dup7\n        /* \"contracts/lib/eai/EAI.sol\":5899:5925  TimeInterval(_start, _end) */\n      0xffffffff\n      and\n      dup2\n      mstore\n      0x20\n      add\n        /* \"contracts/lib/eai/EAI.sol\":5920:5924  _end */\n      dup6\n        /* \"contracts/lib/eai/EAI.sol\":5899:5925  TimeInterval(_start, _end) */\n      0xffffffff\n      and\n      dup2\n      mstore\n      pop\n        /* \"contracts/lib/eai/EAI.sol\":5892:5925  return TimeInterval(_start, _end) */\n      swap3\n      pop\n        /* \"contracts/lib/eai/EAI.sol\":5722:5933  function createTimeInterval(... */\n      pop\n      pop\n      swap3\n      swap2\n      pop\n      pop\n      jump\t// out\n        /* \"contracts/lib/eai/EAI.sol\":10916:11547  function createMaxNumberOfOperationByTime(... */\n    tag_46:\n        /* \"contracts/lib/eai/EAI.sol\":11041:11074  MaxNumberOfOperationByTime memory */\n      tag_171\n      tag_172\n      jump\t// in\n    tag_171:\n        /* \"contracts/lib/eai/EAI.sol\":11088:11104  uint32 auxByTime */\n      0x00\n        /* \"contracts/lib/eai/EAI.sol\":784:785  4 */\n      0x04\n        /* \"contracts/lib/eai/EAI.sol\":11120:11137  _timeUnit <= WEEK */\n      0xff\n      and\n        /* \"contracts/lib/eai/EAI.sol\":11120:11129  _timeUnit */\n      dup4\n        /* \"contracts/lib/eai/EAI.sol\":11120:11137  _timeUnit <= WEEK */\n      0xff\n      and\n      gt\n        /* \"contracts/lib/eai/EAI.sol\":11117:11453  if(_timeUnit <= WEEK){... */\n      tag_174\n      jumpi\n        /* \"contracts/lib/eai/EAI.sol\":11270:11297  getTimeInSeconds(_timeUnit) */\n      tag_175\n        /* \"contracts/lib/eai/EAI.sol\":11287:11296  _timeUnit */\n      dup4\n        /* \"contracts/lib/eai/EAI.sol\":11270:11286  getTimeInSeconds */\n      tag_176\n        /* \"contracts/lib/eai/EAI.sol\":11270:11297  getTimeInSeconds(_timeUnit) */\n      jump\t// in\n    tag_175:\n        /* \"contracts/lib/eai/EAI.sol\":11259:11297  auxByTime= getTimeInSeconds(_timeUnit) */\n      swap1\n      pop\n        /* \"contracts/lib/eai/EAI.sol\":11117:11453  if(_timeUnit <= WEEK){... */\n      jump(tag_177)\n    tag_174:\n        /* \"contracts/lib/eai/EAI.sol\":11439:11440  1 */\n      0x01\n        /* \"contracts/lib/eai/EAI.sol\":11427:11440  auxByTime = 1 */\n      swap1\n      pop\n        /* \"contracts/lib/eai/EAI.sol\":11117:11453  if(_timeUnit <= WEEK){... */\n    tag_177:\n        /* \"contracts/lib/eai/EAI.sol\":11470:11539  MaxNumberOfOperationByTime(_amount, _timeUnit, auxByTime, _amount, 0) */\n      mload(0x40)\n      dup1\n      0xa0\n      add\n      0x40\n      mstore\n      dup1\n        /* \"contracts/lib/eai/EAI.sol\":11497:11504  _amount */\n      dup6\n        /* \"contracts/lib/eai/EAI.sol\":11470:11539  MaxNumberOfOperationByTime(_amount, _timeUnit, auxByTime, _amount, 0) */\n      0xffffffff\n      and\n      dup2\n      mstore\n      0x20\n      add\n        /* \"contracts/lib/eai/EAI.sol\":11506:11515  _timeUnit */\n      dup5\n        /* \"contracts/lib/eai/EAI.sol\":11470:11539  MaxNumberOfOperationByTime(_amount, _timeUnit, auxByTime, _amount, 0) */\n      0xff\n      and\n      dup2\n      mstore\n      0x20\n      add\n        /* \"contracts/lib/eai/EAI.sol\":11517:11526  auxByTime */\n      dup3\n        /* \"contracts/lib/eai/EAI.sol\":11470:11539  MaxNumberOfOperationByTime(_amount, _timeUnit, auxByTime, _amount, 0) */\n      0xffffffff\n      and\n      dup2\n      mstore\n      0x20\n      add\n        /* \"contracts/lib/eai/EAI.sol\":11528:11535  _amount */\n      dup6\n        /* \"contracts/lib/eai/EAI.sol\":11470:11539  MaxNumberOfOperationByTime(_amount, _timeUnit, auxByTime, _amount, 0) */\n      0xffffffff\n      and\n      dup2\n      mstore\n      0x20\n      add\n        /* \"contracts/lib/eai/EAI.sol\":11537:11538  0 */\n      0x00\n        /* \"contracts/lib/eai/EAI.sol\":11470:11539  MaxNumberOfOperationByTime(_amount, _timeUnit, auxByTime, _amount, 0) */\n      0xffffffff\n      and\n      dup2\n      mstore\n      pop\n        /* \"contracts/lib/eai/EAI.sol\":11463:11539  return MaxNumberOfOperationByTime(_amount, _timeUnit, auxByTime, _amount, 0) */\n      swap2\n      pop\n      pop\n        /* \"contracts/lib/eai/EAI.sol\":10916:11547  function createMaxNumberOfOperationByTime(... */\n      swap3\n      swap2\n      pop\n      pop\n      jump\t// out\n        /* \"contracts/lib/eai/EAI.sol\":8332:8469  function createTimeout(uint32 _timeIncrement) internal pure returns (Timeout memory ){... */\n    tag_47:\n        /* \"contracts/lib/eai/EAI.sol\":8401:8415  Timeout memory */\n      tag_178\n      tag_179\n      jump\t// in\n    tag_178:\n        /* \"contracts/lib/eai/EAI.sol\":8435:8461  Timeout(0, _timeIncrement) */\n      mload(0x40)\n      dup1\n      0x40\n      add\n      0x40\n      mstore\n      dup1\n        /* \"contracts/lib/eai/EAI.sol\":8443:8444  0 */\n      0x00\n        /* \"contracts/lib/eai/EAI.sol\":8435:8461  Timeout(0, _timeIncrement) */\n      0xffffffff\n      and\n      dup2\n      mstore\n      0x20\n      add\n        /* \"contracts/lib/eai/EAI.sol\":8446:8460  _timeIncrement */\n      dup4\n        /* \"contracts/lib/eai/EAI.sol\":8435:8461  Timeout(0, _timeIncrement) */\n      0xffffffff\n      and\n      dup2\n      mstore\n      pop\n        /* \"contracts/lib/eai/EAI.sol\":8428:8461  return Timeout(0, _timeIncrement) */\n      swap1\n      pop\n        /* \"contracts/lib/eai/EAI.sol\":8332:8469  function createTimeout(uint32 _timeIncrement) internal pure returns (Timeout memory ){... */\n      swap2\n      swap1\n      pop\n      jump\t// out\n        /* \"contracts/lib/eai/EAI.sol\":13453:13627  function createMessageContent_onlyXPath(string memory _xpath) internal pure returns(MessageContent_onlyXPath memory){... */\n    tag_48:\n        /* \"contracts/lib/eai/EAI.sol\":13537:13568  MessageContent_onlyXPath memory */\n      tag_181\n      tag_182\n      jump\t// in\n    tag_181:\n        /* \"contracts/lib/eai/EAI.sol\":13587:13619  MessageContent_onlyXPath(_xpath) */\n      mload(0x40)\n      dup1\n      0x20\n      add\n      0x40\n      mstore\n      dup1\n        /* \"contracts/lib/eai/EAI.sol\":13612:13618  _xpath */\n      dup4\n        /* \"contracts/lib/eai/EAI.sol\":13587:13619  MessageContent_onlyXPath(_xpath) */\n      dup2\n      mstore\n      pop\n        /* \"contracts/lib/eai/EAI.sol\":13580:13619  return MessageContent_onlyXPath(_xpath) */\n      swap1\n      pop\n        /* \"contracts/lib/eai/EAI.sol\":13453:13627  function createMessageContent_onlyXPath(string memory _xpath) internal pure returns(MessageContent_onlyXPath memory){... */\n      swap2\n      swap1\n      pop\n      jump\t// out\n        /* \"contracts/lib/eai/EAI.sol\":8481:8752  function isTimeoutEnded(Timeout memory _timeout, uint32 _accessTime) internal pure onlyValidAccessTime(_accessTime) returns(bool){        ... */\n    tag_59:\n        /* \"contracts/lib/eai/EAI.sol\":8605:8609  bool */\n      0x00\n        /* \"contracts/lib/eai/EAI.sol\":8584:8595  _accessTime */\n      dup2\n        /* \"contracts/lib/eai/EAI.sol\":9223:9244  string memory strTime */\n      0x00\n        /* \"contracts/lib/eai/EAI.sol\":9248:9266  uint2String(_time) */\n      tag_185\n        /* \"contracts/lib/eai/EAI.sol\":9260:9265  _time */\n      dup3\n        /* \"contracts/lib/eai/EAI.sol\":9248:9266  uint2String(_time) */\n      0xffffffff\n      and\n        /* \"contracts/lib/eai/EAI.sol\":9248:9259  uint2String */\n      tag_186\n        /* \"contracts/lib/eai/EAI.sol\":9248:9266  uint2String(_time) */\n      jump\t// in\n    tag_185:\n        /* \"contracts/lib/eai/EAI.sol\":9223:9266  string memory strTime  = uint2String(_time) */\n      swap1\n      pop\n        /* \"contracts/lib/eai/EAI.sol\":9310:9312  10 */\n      0x0a\n        /* \"contracts/lib/eai/EAI.sol\":9291:9298  strTime */\n      dup2\n        /* \"contracts/lib/eai/EAI.sol\":9285:9306  bytes(strTime).length */\n      mload\n        /* \"contracts/lib/eai/EAI.sol\":9285:9312  bytes(strTime).length <= 10 */\n      gt\n      iszero\n        /* \"contracts/lib/eai/EAI.sol\":9277:9313  require(bytes(strTime).length <= 10) */\n      tag_187\n      jumpi\n      0x00\n      dup1\n      revert\n    tag_187:\n        /* \"contracts/lib/eai/EAI.sol\":8656:8657  0 */\n      0x00\n        /* \"contracts/lib/eai/EAI.sol\":8637:8645  _timeout */\n      dup6\n        /* \"contracts/lib/eai/EAI.sol\":8637:8653  _timeout.endTime */\n      0x00\n      add\n      mload\n        /* \"contracts/lib/eai/EAI.sol\":8637:8657  _timeout.endTime > 0 */\n      0xffffffff\n      and\n      gt\n        /* \"contracts/lib/eai/EAI.sol\":8629:8696  require(_timeout.endTime > 0, \"There is no endTime set in timeout\") */\n      tag_189\n      jumpi\n      mload(0x40)\n      0x08c379a000000000000000000000000000000000000000000000000000000000\n      dup2\n      mstore\n      0x04\n      add\n      tag_190\n      swap1\n      tag_191\n      jump\t// in\n    tag_190:\n      mload(0x40)\n      dup1\n      swap2\n      sub\n      swap1\n      revert\n    tag_189:\n        /* \"contracts/lib/eai/EAI.sol\":8728:8736  _timeout */\n      dup5\n        /* \"contracts/lib/eai/EAI.sol\":8728:8744  _timeout.endTime */\n      0x00\n      add\n      mload\n        /* \"contracts/lib/eai/EAI.sol\":8714:8744  _accessTime > _timeout.endTime */\n      0xffffffff\n      and\n        /* \"contracts/lib/eai/EAI.sol\":8714:8725  _accessTime */\n      dup5\n        /* \"contracts/lib/eai/EAI.sol\":8714:8744  _accessTime > _timeout.endTime */\n      0xffffffff\n      and\n      gt\n        /* \"contracts/lib/eai/EAI.sol\":8707:8744  return _accessTime > _timeout.endTime */\n      swap3\n      pop\n        /* \"contracts/lib/eai/EAI.sol\":9212:9357  {... */\n      pop\n        /* \"contracts/lib/eai/EAI.sol\":8481:8752  function isTimeoutEnded(Timeout memory _timeout, uint32 _accessTime) internal pure onlyValidAccessTime(_accessTime) returns(bool){        ... */\n      pop\n      swap3\n      swap2\n      pop\n      pop\n      jump\t// out\n        /* \"contracts/lib/eai/EAI.sol\":12322:12488  function decreaseOneOperation_ByTime(MaxNumberOfOperationByTime storage _maxNumberOfOperationByTime) internal  {... */\n    tag_68:\n        /* \"contracts/lib/eai/EAI.sol\":12479:12480  1 */\n      0x01\n        /* \"contracts/lib/eai/EAI.sol\":12444:12471  _maxNumberOfOperationByTime */\n      dup2\n        /* \"contracts/lib/eai/EAI.sol\":12444:12476  _maxNumberOfOperationByTime.rest */\n      0x00\n      add\n      0x09\n        /* \"contracts/lib/eai/EAI.sol\":12444:12480  _maxNumberOfOperationByTime.rest -=1 */\n      dup3\n      dup3\n      dup3\n      swap1\n      sload\n      swap1\n      0x0100\n      exp\n      swap1\n      div\n      0xffffffff\n      and\n      tag_193\n      swap2\n      swap1\n      tag_194\n      jump\t// in\n    tag_193:\n      swap3\n      pop\n      0x0100\n      exp\n      dup2\n      sload\n      dup2\n      0xffffffff\n      mul\n      not\n      and\n      swap1\n      dup4\n      0xffffffff\n      and\n      mul\n      or\n      swap1\n      sstore\n      pop\n        /* \"contracts/lib/eai/EAI.sol\":12322:12488  function decreaseOneOperation_ByTime(MaxNumberOfOperationByTime storage _maxNumberOfOperationByTime) internal  {... */\n      pop\n      jump\t// out\n        /* \"contracts/study-case-contracts/002-orcid/Orcid.sol\":5017:5187  function updateMapParty(address _walletAddress, EAI.Party storage _party)internal returns(bool){       ... */\n    tag_84:\n        /* \"contracts/study-case-contracts/002-orcid/Orcid.sol\":5107:5111  bool */\n      0x00\n        /* \"contracts/study-case-contracts/002-orcid/Orcid.sol\":5157:5163  _party */\n      dup2\n        /* \"contracts/study-case-contracts/002-orcid/Orcid.sol\":5130:5138  mapParty */\n      0x05\n        /* \"contracts/study-case-contracts/002-orcid/Orcid.sol\":5130:5154  mapParty[_walletAddress] */\n      0x00\n        /* \"contracts/study-case-contracts/002-orcid/Orcid.sol\":5139:5153  _walletAddress */\n      dup6\n        /* \"contracts/study-case-contracts/002-orcid/Orcid.sol\":5130:5154  mapParty[_walletAddress] */\n      0xffffffffffffffffffffffffffffffffffffffff\n      and\n      0xffffffffffffffffffffffffffffffffffffffff\n      and\n      dup2\n      mstore\n      0x20\n      add\n      swap1\n      dup2\n      mstore\n      0x20\n      add\n      0x00\n      keccak256\n        /* \"contracts/study-case-contracts/002-orcid/Orcid.sol\":5130:5163  mapParty[_walletAddress] = _party */\n      0x00\n      dup3\n      add\n      dup2\n      0x00\n      add\n      swap1\n      dup1\n      sload\n      tag_196\n      swap1\n      tag_142\n      jump\t// in\n    tag_196:\n      tag_197\n      swap3\n      swap2\n      swap1\n      tag_198\n      jump\t// in\n    tag_197:\n      pop\n      0x01\n      dup3\n      add\n      0x00\n      swap1\n      sload\n      swap1\n      0x0100\n      exp\n      swap1\n      div\n      0xffffffffffffffffffffffffffffffffffffffff\n      and\n      dup2\n      0x01\n      add\n      exp(0x0100, 0x00)\n      dup2\n      sload\n      dup2\n      0xffffffffffffffffffffffffffffffffffffffff\n      mul\n      not\n      and\n      swap1\n      dup4\n      0xffffffffffffffffffffffffffffffffffffffff\n      and\n      mul\n      or\n      swap1\n      sstore\n      pop\n      0x01\n      dup3\n      add\n      0x14\n      swap1\n      sload\n      swap1\n      0x0100\n      exp\n      swap1\n      div\n      0xff\n      and\n      dup2\n      0x01\n      add\n      exp(0x0100, 0x14)\n      dup2\n      sload\n      dup2\n      0xff\n      mul\n      not\n      and\n      swap1\n      dup4\n      iszero\n      iszero\n      mul\n      or\n      swap1\n      sstore\n      pop\n      swap1\n      pop\n      pop\n        /* \"contracts/study-case-contracts/002-orcid/Orcid.sol\":5175:5179  true */\n      0x01\n        /* \"contracts/study-case-contracts/002-orcid/Orcid.sol\":5168:5179  return true */\n      swap1\n      pop\n        /* \"contracts/study-case-contracts/002-orcid/Orcid.sol\":5017:5187  function updateMapParty(address _walletAddress, EAI.Party storage _party)internal returns(bool){       ... */\n      swap3\n      swap2\n      pop\n      pop\n      jump\t// out\n        /* \"contracts/lib/eai/EAI.sol\":4231:4788  function isIntoWeekDaysInterval(       ... */\n    tag_104:\n        /* \"contracts/lib/eai/EAI.sol\":4380:4384  bool */\n      0x00\n        /* \"contracts/lib/eai/EAI.sol\":4428:4439  _wdInterval */\n      dup3\n        /* \"contracts/lib/eai/EAI.sol\":4428:4443  _wdInterval.end */\n      0x20\n      add\n      mload\n        /* \"contracts/lib/eai/EAI.sol\":4408:4443  _wdInterval.start < _wdInterval.end */\n      0xff\n      and\n        /* \"contracts/lib/eai/EAI.sol\":4408:4419  _wdInterval */\n      dup4\n        /* \"contracts/lib/eai/EAI.sol\":4408:4425  _wdInterval.start */\n      0x00\n      add\n      mload\n        /* \"contracts/lib/eai/EAI.sol\":4408:4443  _wdInterval.start < _wdInterval.end */\n      0xff\n      and\n      lt\n        /* \"contracts/lib/eai/EAI.sol\":4405:4752  if(_wdInterval.start < _wdInterval.end ){... */\n      iszero\n      tag_200\n      jumpi\n        /* \"contracts/lib/eai/EAI.sol\":4485:4496  _wdInterval */\n      dup3\n        /* \"contracts/lib/eai/EAI.sol\":4485:4502  _wdInterval.start */\n      0x00\n      add\n      mload\n        /* \"contracts/lib/eai/EAI.sol\":4467:4502  _weekDayAccess >= _wdInterval.start */\n      0xff\n      and\n        /* \"contracts/lib/eai/EAI.sol\":4467:4481  _weekDayAccess */\n      dup3\n        /* \"contracts/lib/eai/EAI.sol\":4467:4502  _weekDayAccess >= _wdInterval.start */\n      0xff\n      and\n      lt\n      iszero\n        /* \"contracts/lib/eai/EAI.sol\":4467:4539  _weekDayAccess >= _wdInterval.start &&  _weekDayAccess<= _wdInterval.end */\n      dup1\n      iszero\n      tag_201\n      jumpi\n      pop\n        /* \"contracts/lib/eai/EAI.sol\":4524:4535  _wdInterval */\n      dup3\n        /* \"contracts/lib/eai/EAI.sol\":4524:4539  _wdInterval.end */\n      0x20\n      add\n      mload\n        /* \"contracts/lib/eai/EAI.sol\":4507:4539  _weekDayAccess<= _wdInterval.end */\n      0xff\n      and\n        /* \"contracts/lib/eai/EAI.sol\":4507:4521  _weekDayAccess */\n      dup3\n        /* \"contracts/lib/eai/EAI.sol\":4507:4539  _weekDayAccess<= _wdInterval.end */\n      0xff\n      and\n      gt\n      iszero\n        /* \"contracts/lib/eai/EAI.sol\":4467:4539  _weekDayAccess >= _wdInterval.start &&  _weekDayAccess<= _wdInterval.end */\n    tag_201:\n        /* \"contracts/lib/eai/EAI.sol\":4464:4586  if(_weekDayAccess >= _wdInterval.start &&  _weekDayAccess<= _wdInterval.end){... */\n      iszero\n      tag_202\n      jumpi\n        /* \"contracts/lib/eai/EAI.sol\":4566:4570  true */\n      0x01\n        /* \"contracts/lib/eai/EAI.sol\":4559:4570  return true */\n      swap1\n      pop\n      jump(tag_199)\n        /* \"contracts/lib/eai/EAI.sol\":4464:4586  if(_weekDayAccess >= _wdInterval.start &&  _weekDayAccess<= _wdInterval.end){... */\n    tag_202:\n        /* \"contracts/lib/eai/EAI.sol\":4405:4752  if(_wdInterval.start < _wdInterval.end ){... */\n      jump(tag_203)\n    tag_200:\n        /* \"contracts/lib/eai/EAI.sol\":4638:4649  _wdInterval */\n      dup3\n        /* \"contracts/lib/eai/EAI.sol\":4638:4655  _wdInterval.start */\n      0x00\n      add\n      mload\n        /* \"contracts/lib/eai/EAI.sol\":4620:4655  _weekDayAccess >= _wdInterval.start */\n      0xff\n      and\n        /* \"contracts/lib/eai/EAI.sol\":4620:4634  _weekDayAccess */\n      dup3\n        /* \"contracts/lib/eai/EAI.sol\":4620:4655  _weekDayAccess >= _wdInterval.start */\n      0xff\n      and\n      lt\n      iszero\n        /* \"contracts/lib/eai/EAI.sol\":4620:4691  _weekDayAccess >= _wdInterval.start ||  _weekDayAccess<=_wdInterval.end */\n      dup1\n      tag_204\n      jumpi\n      pop\n        /* \"contracts/lib/eai/EAI.sol\":4676:4687  _wdInterval */\n      dup3\n        /* \"contracts/lib/eai/EAI.sol\":4676:4691  _wdInterval.end */\n      0x20\n      add\n      mload\n        /* \"contracts/lib/eai/EAI.sol\":4660:4691  _weekDayAccess<=_wdInterval.end */\n      0xff\n      and\n        /* \"contracts/lib/eai/EAI.sol\":4660:4674  _weekDayAccess */\n      dup3\n        /* \"contracts/lib/eai/EAI.sol\":4660:4691  _weekDayAccess<=_wdInterval.end */\n      0xff\n      and\n      gt\n      iszero\n        /* \"contracts/lib/eai/EAI.sol\":4620:4691  _weekDayAccess >= _wdInterval.start ||  _weekDayAccess<=_wdInterval.end */\n    tag_204:\n        /* \"contracts/lib/eai/EAI.sol\":4617:4738  if(_weekDayAccess >= _wdInterval.start ||  _weekDayAccess<=_wdInterval.end){... */\n      iszero\n      tag_205\n      jumpi\n        /* \"contracts/lib/eai/EAI.sol\":4718:4722  true */\n      0x01\n        /* \"contracts/lib/eai/EAI.sol\":4711:4722  return true */\n      swap1\n      pop\n      jump(tag_199)\n        /* \"contracts/lib/eai/EAI.sol\":4617:4738  if(_weekDayAccess >= _wdInterval.start ||  _weekDayAccess<=_wdInterval.end){... */\n    tag_205:\n        /* \"contracts/lib/eai/EAI.sol\":4405:4752  if(_wdInterval.start < _wdInterval.end ){... */\n    tag_203:\n        /* \"contracts/lib/eai/EAI.sol\":4776:4781  false */\n      0x00\n        /* \"contracts/lib/eai/EAI.sol\":4769:4781  return false */\n      swap1\n      pop\n        /* \"contracts/lib/eai/EAI.sol\":4231:4788  function isIntoWeekDaysInterval(       ... */\n    tag_199:\n      swap3\n      swap2\n      pop\n      pop\n      jump\t// out\n        /* \"contracts/lib/eai/EAI.sol\":6952:7434  function isIntoTimeInterval(... */\n    tag_110:\n        /* \"contracts/lib/eai/EAI.sol\":7084:7088  bool */\n      0x00\n        /* \"contracts/lib/eai/EAI.sol\":7124:7127  _ti */\n      dup3\n        /* \"contracts/lib/eai/EAI.sol\":7124:7131  _ti.end */\n      0x20\n      add\n      mload\n        /* \"contracts/lib/eai/EAI.sol\":7112:7131  _ti.start < _ti.end */\n      0xffffffff\n      and\n        /* \"contracts/lib/eai/EAI.sol\":7112:7115  _ti */\n      dup4\n        /* \"contracts/lib/eai/EAI.sol\":7112:7121  _ti.start */\n      0x00\n      add\n      mload\n        /* \"contracts/lib/eai/EAI.sol\":7112:7131  _ti.start < _ti.end */\n      0xffffffff\n      and\n      lt\n        /* \"contracts/lib/eai/EAI.sol\":7109:7398  if(_ti.start < _ti.end ){... */\n      iszero\n      tag_207\n      jumpi\n        /* \"contracts/lib/eai/EAI.sol\":7170:7173  _ti */\n      dup3\n        /* \"contracts/lib/eai/EAI.sol\":7170:7179  _ti.start */\n      0x00\n      add\n      mload\n        /* \"contracts/lib/eai/EAI.sol\":7155:7179  _timeAccess >= _ti.start */\n      0xffffffff\n      and\n        /* \"contracts/lib/eai/EAI.sol\":7155:7166  _timeAccess */\n      dup3\n        /* \"contracts/lib/eai/EAI.sol\":7155:7179  _timeAccess >= _ti.start */\n      0xffffffff\n      and\n      lt\n      iszero\n        /* \"contracts/lib/eai/EAI.sol\":7155:7206  _timeAccess >= _ti.start &&  _timeAccess <= _ti.end */\n      dup1\n      iszero\n      tag_208\n      jumpi\n      pop\n        /* \"contracts/lib/eai/EAI.sol\":7199:7202  _ti */\n      dup3\n        /* \"contracts/lib/eai/EAI.sol\":7199:7206  _ti.end */\n      0x20\n      add\n      mload\n        /* \"contracts/lib/eai/EAI.sol\":7184:7206  _timeAccess <= _ti.end */\n      0xffffffff\n      and\n        /* \"contracts/lib/eai/EAI.sol\":7184:7195  _timeAccess */\n      dup3\n        /* \"contracts/lib/eai/EAI.sol\":7184:7206  _timeAccess <= _ti.end */\n      0xffffffff\n      and\n      gt\n      iszero\n        /* \"contracts/lib/eai/EAI.sol\":7155:7206  _timeAccess >= _ti.start &&  _timeAccess <= _ti.end */\n    tag_208:\n        /* \"contracts/lib/eai/EAI.sol\":7152:7253  if(_timeAccess >= _ti.start &&  _timeAccess <= _ti.end){... */\n      iszero\n      tag_209\n      jumpi\n        /* \"contracts/lib/eai/EAI.sol\":7233:7237  true */\n      0x01\n        /* \"contracts/lib/eai/EAI.sol\":7226:7237  return true */\n      swap1\n      pop\n      jump(tag_206)\n        /* \"contracts/lib/eai/EAI.sol\":7152:7253  if(_timeAccess >= _ti.start &&  _timeAccess <= _ti.end){... */\n    tag_209:\n        /* \"contracts/lib/eai/EAI.sol\":7109:7398  if(_ti.start < _ti.end ){... */\n      jump(tag_210)\n    tag_207:\n        /* \"contracts/lib/eai/EAI.sol\":7302:7305  _ti */\n      dup3\n        /* \"contracts/lib/eai/EAI.sol\":7302:7311  _ti.start */\n      0x00\n      add\n      mload\n        /* \"contracts/lib/eai/EAI.sol\":7287:7311  _timeAccess >= _ti.start */\n      0xffffffff\n      and\n        /* \"contracts/lib/eai/EAI.sol\":7287:7298  _timeAccess */\n      dup3\n        /* \"contracts/lib/eai/EAI.sol\":7287:7311  _timeAccess >= _ti.start */\n      0xffffffff\n      and\n      lt\n      iszero\n        /* \"contracts/lib/eai/EAI.sol\":7287:7337  _timeAccess >= _ti.start ||  _timeAccess <=_ti.end */\n      dup1\n      tag_211\n      jumpi\n      pop\n        /* \"contracts/lib/eai/EAI.sol\":7330:7333  _ti */\n      dup3\n        /* \"contracts/lib/eai/EAI.sol\":7330:7337  _ti.end */\n      0x20\n      add\n      mload\n        /* \"contracts/lib/eai/EAI.sol\":7316:7337  _timeAccess <=_ti.end */\n      0xffffffff\n      and\n        /* \"contracts/lib/eai/EAI.sol\":7316:7327  _timeAccess */\n      dup3\n        /* \"contracts/lib/eai/EAI.sol\":7316:7337  _timeAccess <=_ti.end */\n      0xffffffff\n      and\n      gt\n      iszero\n        /* \"contracts/lib/eai/EAI.sol\":7287:7337  _timeAccess >= _ti.start ||  _timeAccess <=_ti.end */\n    tag_211:\n        /* \"contracts/lib/eai/EAI.sol\":7284:7384  if(_timeAccess >= _ti.start ||  _timeAccess <=_ti.end){... */\n      iszero\n      tag_212\n      jumpi\n        /* \"contracts/lib/eai/EAI.sol\":7364:7368  true */\n      0x01\n        /* \"contracts/lib/eai/EAI.sol\":7357:7368  return true */\n      swap1\n      pop\n      jump(tag_206)\n        /* \"contracts/lib/eai/EAI.sol\":7284:7384  if(_timeAccess >= _ti.start ||  _timeAccess <=_ti.end){... */\n    tag_212:\n        /* \"contracts/lib/eai/EAI.sol\":7109:7398  if(_ti.start < _ti.end ){... */\n    tag_210:\n        /* \"contracts/lib/eai/EAI.sol\":7422:7427  false */\n      0x00\n        /* \"contracts/lib/eai/EAI.sol\":7415:7427  return false */\n      swap1\n      pop\n        /* \"contracts/lib/eai/EAI.sol\":6952:7434  function isIntoTimeInterval(... */\n    tag_206:\n      swap3\n      swap2\n      pop\n      pop\n      jump\t// out\n        /* \"contracts/lib/eai/EAI.sol\":11566:12140  function hasAvailableOperations_ByTime(... */\n    tag_116:\n        /* \"contracts/lib/eai/EAI.sol\":11739:11743  bool */\n      0x00\n        /* \"contracts/lib/eai/EAI.sol\":11768:11892  isAccessDatetimeOutOfOldInterval(_maxNumberOfOperationByTime.timeUnit, _maxNumberOfOperationByTime.endTime, _accessDateTime) */\n      tag_214\n        /* \"contracts/lib/eai/EAI.sol\":11801:11828  _maxNumberOfOperationByTime */\n      dup4\n        /* \"contracts/lib/eai/EAI.sol\":11801:11837  _maxNumberOfOperationByTime.timeUnit */\n      0x00\n      add\n      0x04\n      swap1\n      sload\n      swap1\n      0x0100\n      exp\n      swap1\n      div\n      0xff\n      and\n        /* \"contracts/lib/eai/EAI.sol\":11839:11866  _maxNumberOfOperationByTime */\n      dup5\n        /* \"contracts/lib/eai/EAI.sol\":11839:11874  _maxNumberOfOperationByTime.endTime */\n      0x00\n      add\n      0x0d\n      swap1\n      sload\n      swap1\n      0x0100\n      exp\n      swap1\n      div\n      0xffffffff\n      and\n        /* \"contracts/lib/eai/EAI.sol\":11876:11891  _accessDateTime */\n      dup5\n        /* \"contracts/lib/eai/EAI.sol\":11768:11800  isAccessDatetimeOutOfOldInterval */\n      tag_215\n        /* \"contracts/lib/eai/EAI.sol\":11768:11892  isAccessDatetimeOutOfOldInterval(_maxNumberOfOperationByTime.timeUnit, _maxNumberOfOperationByTime.endTime, _accessDateTime) */\n      jump\t// in\n    tag_214:\n        /* \"contracts/lib/eai/EAI.sol\":11765:12002  if(isAccessDatetimeOutOfOldInterval(_maxNumberOfOperationByTime.timeUnit, _maxNumberOfOperationByTime.endTime, _accessDateTime)){... */\n      iszero\n      tag_216\n      jumpi\n        /* \"contracts/lib/eai/EAI.sol\":11912:11990  setNewEndTimeAndRestOfOperations(_maxNumberOfOperationByTime, _accessDateTime) */\n      tag_217\n        /* \"contracts/lib/eai/EAI.sol\":11945:11972  _maxNumberOfOperationByTime */\n      dup4\n        /* \"contracts/lib/eai/EAI.sol\":11974:11989  _accessDateTime */\n      dup4\n        /* \"contracts/lib/eai/EAI.sol\":11912:11944  setNewEndTimeAndRestOfOperations */\n      tag_218\n        /* \"contracts/lib/eai/EAI.sol\":11912:11990  setNewEndTimeAndRestOfOperations(_maxNumberOfOperationByTime, _accessDateTime) */\n      jump\t// in\n    tag_217:\n        /* \"contracts/lib/eai/EAI.sol\":11765:12002  if(isAccessDatetimeOutOfOldInterval(_maxNumberOfOperationByTime.timeUnit, _maxNumberOfOperationByTime.endTime, _accessDateTime)){... */\n    tag_216:\n        /* \"contracts/lib/eai/EAI.sol\":12060:12061  0 */\n      0x00\n        /* \"contracts/lib/eai/EAI.sol\":12025:12052  _maxNumberOfOperationByTime */\n      dup4\n        /* \"contracts/lib/eai/EAI.sol\":12025:12057  _maxNumberOfOperationByTime.rest */\n      0x00\n      add\n      0x09\n      swap1\n      sload\n      swap1\n      0x0100\n      exp\n      swap1\n      div\n      0xffffffff\n      and\n        /* \"contracts/lib/eai/EAI.sol\":12025:12061  _maxNumberOfOperationByTime.rest > 0 */\n      0xffffffff\n      and\n      gt\n        /* \"contracts/lib/eai/EAI.sol\":12022:12110  if(_maxNumberOfOperationByTime.rest > 0){          ... */\n      iszero\n      tag_219\n      jumpi\n        /* \"contracts/lib/eai/EAI.sol\":12094:12098  true */\n      0x01\n        /* \"contracts/lib/eai/EAI.sol\":12087:12098  return true */\n      swap1\n      pop\n      jump(tag_213)\n        /* \"contracts/lib/eai/EAI.sol\":12022:12110  if(_maxNumberOfOperationByTime.rest > 0){          ... */\n    tag_219:\n        /* \"contracts/lib/eai/EAI.sol\":12127:12132  false */\n      0x00\n        /* \"contracts/lib/eai/EAI.sol\":12120:12132  return false */\n      swap1\n      pop\n        /* \"contracts/lib/eai/EAI.sol\":11566:12140  function hasAvailableOperations_ByTime(... */\n    tag_213:\n      swap3\n      swap2\n      pop\n      pop\n      jump\t// out\n        /* \"contracts/lib/eai/EAI.sol\":8894:9087  function setEndTimeInTimeout(Timeout storage _timeout, uint32 _startTime)internal onlyValidAccessTime(_startTime){      ... */\n    tag_122:\n        /* \"contracts/lib/eai/EAI.sol\":8996:9006  _startTime */\n      dup1\n        /* \"contracts/lib/eai/EAI.sol\":9223:9244  string memory strTime */\n      0x00\n        /* \"contracts/lib/eai/EAI.sol\":9248:9266  uint2String(_time) */\n      tag_221\n        /* \"contracts/lib/eai/EAI.sol\":9260:9265  _time */\n      dup3\n        /* \"contracts/lib/eai/EAI.sol\":9248:9266  uint2String(_time) */\n      0xffffffff\n      and\n        /* \"contracts/lib/eai/EAI.sol\":9248:9259  uint2String */\n      tag_186\n        /* \"contracts/lib/eai/EAI.sol\":9248:9266  uint2String(_time) */\n      jump\t// in\n    tag_221:\n        /* \"contracts/lib/eai/EAI.sol\":9223:9266  string memory strTime  = uint2String(_time) */\n      swap1\n      pop\n        /* \"contracts/lib/eai/EAI.sol\":9310:9312  10 */\n      0x0a\n        /* \"contracts/lib/eai/EAI.sol\":9291:9298  strTime */\n      dup2\n        /* \"contracts/lib/eai/EAI.sol\":9285:9306  bytes(strTime).length */\n      mload\n        /* \"contracts/lib/eai/EAI.sol\":9285:9312  bytes(strTime).length <= 10 */\n      gt\n      iszero\n        /* \"contracts/lib/eai/EAI.sol\":9277:9313  require(bytes(strTime).length <= 10) */\n      tag_222\n      jumpi\n      0x00\n      dup1\n      revert\n    tag_222:\n        /* \"contracts/lib/eai/EAI.sol\":9056:9064  _timeout */\n      dup4\n        /* \"contracts/lib/eai/EAI.sol\":9056:9078  _timeout.timeIncrement */\n      0x00\n      add\n      0x04\n      swap1\n      sload\n      swap1\n      0x0100\n      exp\n      swap1\n      div\n      0xffffffff\n      and\n        /* \"contracts/lib/eai/EAI.sol\":9043:9053  _startTime */\n      dup4\n        /* \"contracts/lib/eai/EAI.sol\":9043:9078  _startTime + _timeout.timeIncrement */\n      tag_224\n      swap2\n      swap1\n      tag_225\n      jump\t// in\n    tag_224:\n        /* \"contracts/lib/eai/EAI.sol\":9024:9032  _timeout */\n      dup5\n        /* \"contracts/lib/eai/EAI.sol\":9024:9040  _timeout.endTime */\n      0x00\n      add\n      0x00\n        /* \"contracts/lib/eai/EAI.sol\":9024:9078  _timeout.endTime = _startTime + _timeout.timeIncrement */\n      0x0100\n      exp\n      dup2\n      sload\n      dup2\n      0xffffffff\n      mul\n      not\n      and\n      swap1\n      dup4\n      0xffffffff\n      and\n      mul\n      or\n      swap1\n      sstore\n      pop\n        /* \"contracts/lib/eai/EAI.sol\":9212:9357  {... */\n      pop\n        /* \"contracts/lib/eai/EAI.sol\":8894:9087  function setEndTimeInTimeout(Timeout storage _timeout, uint32 _startTime)internal onlyValidAccessTime(_startTime){      ... */\n      pop\n      pop\n      pop\n      jump\t// out\n        /* \"contracts/lib/eai/EAI.sol\":25492:26041  function getTimeInSeconds(uint8 timeUnit) private pure returns(uint32){... */\n    tag_176:\n        /* \"contracts/lib/eai/EAI.sol\":25555:25561  uint32 */\n      0x00\n        /* \"contracts/lib/eai/EAI.sol\":784:785  4 */\n      0x04\n        /* \"contracts/lib/eai/EAI.sol\":25635:25651  timeUnit <= WEEK */\n      0xff\n      and\n        /* \"contracts/lib/eai/EAI.sol\":25635:25643  timeUnit */\n      dup3\n        /* \"contracts/lib/eai/EAI.sol\":25635:25651  timeUnit <= WEEK */\n      0xff\n      and\n      gt\n      iszero\n        /* \"contracts/lib/eai/EAI.sol\":25627:25715  require(timeUnit <= WEEK, \"The method getTimeInSeconds doesn't work for MONTH and YEAR\") */\n      tag_227\n      jumpi\n      mload(0x40)\n      0x08c379a000000000000000000000000000000000000000000000000000000000\n      dup2\n      mstore\n      0x04\n      add\n      tag_228\n      swap1\n      tag_229\n      jump\t// in\n    tag_228:\n      mload(0x40)\n      dup1\n      swap2\n      sub\n      swap1\n      revert\n    tag_227:\n        /* \"contracts/lib/eai/EAI.sol\":666:667  0 */\n      0x00\n        /* \"contracts/lib/eai/EAI.sol\":25731:25749  timeUnit == SECOND */\n      0xff\n      and\n        /* \"contracts/lib/eai/EAI.sol\":25731:25739  timeUnit */\n      dup3\n        /* \"contracts/lib/eai/EAI.sol\":25731:25749  timeUnit == SECOND */\n      0xff\n      and\n      sub\n        /* \"contracts/lib/eai/EAI.sol\":25728:26034  if(timeUnit == SECOND){... */\n      tag_230\n      jumpi\n        /* \"contracts/lib/eai/EAI.sol\":25772:25773  1 */\n      0x01\n        /* \"contracts/lib/eai/EAI.sol\":25765:25773  return 1 */\n      swap1\n      pop\n      jump(tag_226)\n        /* \"contracts/lib/eai/EAI.sol\":25728:26034  if(timeUnit == SECOND){... */\n    tag_230:\n        /* \"contracts/lib/eai/EAI.sol\":698:699  1 */\n      0x01\n        /* \"contracts/lib/eai/EAI.sol\":25793:25811  timeUnit == MINUTE */\n      0xff\n      and\n        /* \"contracts/lib/eai/EAI.sol\":25793:25801  timeUnit */\n      dup3\n        /* \"contracts/lib/eai/EAI.sol\":25793:25811  timeUnit == MINUTE */\n      0xff\n      and\n      sub\n        /* \"contracts/lib/eai/EAI.sol\":25790:26034  if(timeUnit == MINUTE){... */\n      tag_232\n      jumpi\n        /* \"contracts/lib/eai/EAI.sol\":25834:25836  60 */\n      0x3c\n        /* \"contracts/lib/eai/EAI.sol\":25827:25836  return 60 */\n      swap1\n      pop\n      jump(tag_226)\n        /* \"contracts/lib/eai/EAI.sol\":25790:26034  if(timeUnit == MINUTE){... */\n    tag_232:\n        /* \"contracts/lib/eai/EAI.sol\":727:728  2 */\n      0x02\n        /* \"contracts/lib/eai/EAI.sol\":25856:25872  timeUnit == HOUR */\n      0xff\n      and\n        /* \"contracts/lib/eai/EAI.sol\":25856:25864  timeUnit */\n      dup3\n        /* \"contracts/lib/eai/EAI.sol\":25856:25872  timeUnit == HOUR */\n      0xff\n      and\n      sub\n        /* \"contracts/lib/eai/EAI.sol\":25853:26034  if(timeUnit == HOUR ){... */\n      tag_234\n      jumpi\n        /* \"contracts/lib/eai/EAI.sol\":25896:25901  60*60 */\n      0x0e10\n        /* \"contracts/lib/eai/EAI.sol\":25889:25901  return 60*60 */\n      swap1\n      pop\n      jump(tag_226)\n        /* \"contracts/lib/eai/EAI.sol\":25853:26034  if(timeUnit == HOUR ){... */\n    tag_234:\n        /* \"contracts/lib/eai/EAI.sol\":755:756  3 */\n      0x03\n        /* \"contracts/lib/eai/EAI.sol\":25921:25936  timeUnit == DAY */\n      0xff\n      and\n        /* \"contracts/lib/eai/EAI.sol\":25921:25929  timeUnit */\n      dup3\n        /* \"contracts/lib/eai/EAI.sol\":25921:25936  timeUnit == DAY */\n      0xff\n      and\n      sub\n        /* \"contracts/lib/eai/EAI.sol\":25918:26034  if(timeUnit == DAY){... */\n      tag_236\n      jumpi\n        /* \"contracts/lib/eai/EAI.sol\":25959:25967  60*60*24 */\n      0x015180\n        /* \"contracts/lib/eai/EAI.sol\":25952:25967  return 60*60*24 */\n      swap1\n      pop\n      jump(tag_226)\n        /* \"contracts/lib/eai/EAI.sol\":25918:26034  if(timeUnit == DAY){... */\n    tag_236:\n        /* \"contracts/lib/eai/EAI.sol\":26005:26015  60*60*24*7 */\n      0x093a80\n        /* \"contracts/lib/eai/EAI.sol\":25998:26015  return 60*60*24*7 */\n      swap1\n      pop\n        /* \"contracts/lib/eai/EAI.sol\":25492:26041  function getTimeInSeconds(uint8 timeUnit) private pure returns(uint32){... */\n    tag_226:\n      swap2\n      swap1\n      pop\n      jump\t// out\n        /* \"contracts/lib/eai/EAI.sol\":29550:30095  function uint2String(uint256 value) internal pure returns (string memory) {... */\n    tag_186:\n        /* \"contracts/lib/eai/EAI.sol\":29609:29622  string memory */\n      0x60\n        /* \"contracts/lib/eai/EAI.sol\":29658:29659  0 */\n      0x00\n        /* \"contracts/lib/eai/EAI.sol\":29649:29654  value */\n      dup3\n        /* \"contracts/lib/eai/EAI.sol\":29649:29659  value == 0 */\n      sub\n        /* \"contracts/lib/eai/EAI.sol\":29645:29698  if (value == 0) {... */\n      tag_239\n      jumpi\n        /* \"contracts/lib/eai/EAI.sol\":29676:29686  return \"0\" */\n      mload(0x40)\n      dup1\n      0x40\n      add\n      0x40\n      mstore\n      dup1\n      0x01\n      dup2\n      mstore\n      0x20\n      add\n      0x3000000000000000000000000000000000000000000000000000000000000000\n      dup2\n      mstore\n      pop\n      swap1\n      pop\n      jump(tag_238)\n        /* \"contracts/lib/eai/EAI.sol\":29645:29698  if (value == 0) {... */\n    tag_239:\n        /* \"contracts/lib/eai/EAI.sol\":29708:29720  uint256 temp */\n      0x00\n        /* \"contracts/lib/eai/EAI.sol\":29723:29728  value */\n      dup3\n        /* \"contracts/lib/eai/EAI.sol\":29708:29728  uint256 temp = value */\n      swap1\n      pop\n        /* \"contracts/lib/eai/EAI.sol\":29739:29753  uint256 digits */\n      0x00\n        /* \"contracts/lib/eai/EAI.sol\":29764:29842  while (temp != 0) {... */\n    tag_240:\n        /* \"contracts/lib/eai/EAI.sol\":29779:29780  0 */\n      0x00\n        /* \"contracts/lib/eai/EAI.sol\":29771:29775  temp */\n      dup3\n        /* \"contracts/lib/eai/EAI.sol\":29771:29780  temp != 0 */\n      eq\n        /* \"contracts/lib/eai/EAI.sol\":29764:29842  while (temp != 0) {... */\n      tag_241\n      jumpi\n        /* \"contracts/lib/eai/EAI.sol\":29797:29805  digits++ */\n      dup1\n      dup1\n      tag_242\n      swap1\n      tag_243\n      jump\t// in\n    tag_242:\n      swap2\n      pop\n      pop\n        /* \"contracts/lib/eai/EAI.sol\":29828:29830  10 */\n      0x0a\n        /* \"contracts/lib/eai/EAI.sol\":29820:29830  temp /= 10 */\n      dup3\n      tag_244\n      swap2\n      swap1\n      tag_245\n      jump\t// in\n    tag_244:\n      swap2\n      pop\n        /* \"contracts/lib/eai/EAI.sol\":29764:29842  while (temp != 0) {... */\n      jump(tag_240)\n    tag_241:\n        /* \"contracts/lib/eai/EAI.sol\":29852:29871  bytes memory buffer */\n      0x00\n        /* \"contracts/lib/eai/EAI.sol\":29884:29890  digits */\n      dup2\n        /* \"contracts/lib/eai/EAI.sol\":29874:29891  new bytes(digits) */\n      0xffffffffffffffff\n      dup2\n      gt\n      iszero\n      tag_246\n      jumpi\n      tag_247\n      tag_248\n      jump\t// in\n    tag_247:\n    tag_246:\n      mload(0x40)\n      swap1\n      dup1\n      dup3\n      mstore\n      dup1\n      0x1f\n      add\n      not(0x1f)\n      and\n      0x20\n      add\n      dup3\n      add\n      0x40\n      mstore\n      dup1\n      iszero\n      tag_249\n      jumpi\n      dup2\n      0x20\n      add\n      0x01\n      dup3\n      mul\n      dup1\n      calldatasize\n      dup4\n      calldatacopy\n      dup1\n      dup3\n      add\n      swap2\n      pop\n      pop\n      swap1\n      pop\n    tag_249:\n      pop\n        /* \"contracts/lib/eai/EAI.sol\":29852:29891  bytes memory buffer = new bytes(digits) */\n      swap1\n      pop\n        /* \"contracts/lib/eai/EAI.sol\":29902:30056  while (value != 0) {... */\n    tag_250:\n        /* \"contracts/lib/eai/EAI.sol\":29918:29919  0 */\n      0x00\n        /* \"contracts/lib/eai/EAI.sol\":29909:29914  value */\n      dup6\n        /* \"contracts/lib/eai/EAI.sol\":29909:29919  value != 0 */\n      eq\n        /* \"contracts/lib/eai/EAI.sol\":29902:30056  while (value != 0) {... */\n      tag_251\n      jumpi\n        /* \"contracts/lib/eai/EAI.sol\":29946:29947  1 */\n      0x01\n        /* \"contracts/lib/eai/EAI.sol\":29936:29947  digits -= 1 */\n      dup3\n      tag_252\n      swap2\n      swap1\n      tag_253\n      jump\t// in\n    tag_252:\n      swap2\n      pop\n        /* \"contracts/lib/eai/EAI.sol\":30013:30015  10 */\n      0x0a\n        /* \"contracts/lib/eai/EAI.sol\":30005:30010  value */\n      dup6\n        /* \"contracts/lib/eai/EAI.sol\":30005:30015  value % 10 */\n      tag_254\n      swap2\n      swap1\n      tag_255\n      jump\t// in\n    tag_254:\n        /* \"contracts/lib/eai/EAI.sol\":29992:29994  48 */\n      0x30\n        /* \"contracts/lib/eai/EAI.sol\":29992:30016  48 + uint256(value % 10) */\n      tag_256\n      swap2\n      swap1\n      tag_257\n      jump\t// in\n    tag_256:\n        /* \"contracts/lib/eai/EAI.sol\":29979:30018  bytes1(uint8(48 + uint256(value % 10))) */\n      0xf8\n      shl\n        /* \"contracts/lib/eai/EAI.sol\":29962:29968  buffer */\n      dup2\n        /* \"contracts/lib/eai/EAI.sol\":29969:29975  digits */\n      dup4\n        /* \"contracts/lib/eai/EAI.sol\":29962:29976  buffer[digits] */\n      dup2\n      mload\n      dup2\n      lt\n      tag_258\n      jumpi\n      tag_259\n      tag_57\n      jump\t// in\n    tag_259:\n    tag_258:\n      0x20\n      add\n      add\n        /* \"contracts/lib/eai/EAI.sol\":29962:30018  buffer[digits] = bytes1(uint8(48 + uint256(value % 10))) */\n      swap1\n      not(0xffffffffffffffffffffffffffffffffffffffffffffffffffffffffffffff)\n      and\n      swap1\n      dup2\n      0x00\n      byte\n      swap1\n      mstore8\n      pop\n        /* \"contracts/lib/eai/EAI.sol\":30042:30044  10 */\n      0x0a\n        /* \"contracts/lib/eai/EAI.sol\":30033:30044  value /= 10 */\n      dup6\n      tag_260\n      swap2\n      swap1\n      tag_245\n      jump\t// in\n    tag_260:\n      swap5\n      pop\n        /* \"contracts/lib/eai/EAI.sol\":29902:30056  while (value != 0) {... */\n      jump(tag_250)\n    tag_251:\n        /* \"contracts/lib/eai/EAI.sol\":30080:30086  buffer */\n      dup1\n        /* \"contracts/lib/eai/EAI.sol\":30066:30087  return string(buffer) */\n      swap4\n      pop\n      pop\n      pop\n      pop\n        /* \"contracts/lib/eai/EAI.sol\":29550:30095  function uint2String(uint256 value) internal pure returns (string memory) {... */\n    tag_238:\n      swap2\n      swap1\n      pop\n      jump\t// out\n        /* \"contracts/lib/eai/EAI.sol\":23616:24304  function isAccessDatetimeOutOfOldInterval(uint8 _timeUnit, uint32 _endTime, ... */\n    tag_215:\n        /* \"contracts/lib/eai/EAI.sol\":23758:23762  bool */\n      0x00\n        /* \"contracts/lib/eai/EAI.sol\":23785:23799  uint8 timeUnit */\n      dup1\n        /* \"contracts/lib/eai/EAI.sol\":23802:23811  _timeUnit */\n      dup5\n        /* \"contracts/lib/eai/EAI.sol\":23785:23811  uint8 timeUnit = _timeUnit */\n      swap1\n      pop\n        /* \"contracts/lib/eai/EAI.sol\":784:785  4 */\n      0x04\n        /* \"contracts/lib/eai/EAI.sol\":23825:23841  timeUnit <= WEEK */\n      0xff\n      and\n        /* \"contracts/lib/eai/EAI.sol\":23825:23833  timeUnit */\n      dup2\n        /* \"contracts/lib/eai/EAI.sol\":23825:23841  timeUnit <= WEEK */\n      0xff\n      and\n      gt\n        /* \"contracts/lib/eai/EAI.sol\":23822:24166  if(timeUnit <= WEEK){... */\n      tag_262\n      jumpi\n        /* \"contracts/lib/eai/EAI.sol\":23883:23891  _endTime */\n      dup4\n        /* \"contracts/lib/eai/EAI.sol\":23864:23891  _accessDateTime >= _endTime */\n      0xffffffff\n      and\n        /* \"contracts/lib/eai/EAI.sol\":23864:23879  _accessDateTime */\n      dup4\n        /* \"contracts/lib/eai/EAI.sol\":23864:23891  _accessDateTime >= _endTime */\n      0xffffffff\n      and\n      lt\n      iszero\n        /* \"contracts/lib/eai/EAI.sol\":23857:23891  return _accessDateTime >= _endTime */\n      swap2\n      pop\n      pop\n      jump(tag_261)\n        /* \"contracts/lib/eai/EAI.sol\":23822:24166  if(timeUnit <= WEEK){... */\n    tag_262:\n        /* \"contracts/lib/eai/EAI.sol\":814:815  5 */\n      0x05\n        /* \"contracts/lib/eai/EAI.sol\":23912:23929  timeUnit == MONTH */\n      0xff\n      and\n        /* \"contracts/lib/eai/EAI.sol\":23912:23920  timeUnit */\n      dup2\n        /* \"contracts/lib/eai/EAI.sol\":23912:23929  timeUnit == MONTH */\n      0xff\n      and\n      sub\n        /* \"contracts/lib/eai/EAI.sol\":23909:24166  if(timeUnit == MONTH) {            ... */\n      tag_264\n      jumpi\n        /* \"contracts/lib/eai/EAI.sol\":23960:23972  uint32 month */\n      0x00\n        /* \"contracts/lib/eai/EAI.sol\":23977:24009  timeStampToDate(_accessDateTime) */\n      tag_265\n        /* \"contracts/lib/eai/EAI.sol\":23993:24008  _accessDateTime */\n      dup5\n        /* \"contracts/lib/eai/EAI.sol\":23977:24009  timeStampToDate(_accessDateTime) */\n      0xffffffff\n      and\n        /* \"contracts/lib/eai/EAI.sol\":23977:23992  timeStampToDate */\n      tag_266\n        /* \"contracts/lib/eai/EAI.sol\":23977:24009  timeStampToDate(_accessDateTime) */\n      jump\t// in\n    tag_265:\n        /* \"contracts/lib/eai/EAI.sol\":23958:24009  (,uint32 month,) = timeStampToDate(_accessDateTime) */\n      pop\n      swap2\n      pop\n      pop\n        /* \"contracts/lib/eai/EAI.sol\":24044:24046  13 */\n      0x0d\n        /* \"contracts/lib/eai/EAI.sol\":24032:24040  _endTime */\n      dup6\n        /* \"contracts/lib/eai/EAI.sol\":24032:24046  _endTime == 13 */\n      0xffffffff\n      and\n      eq\n        /* \"contracts/lib/eai/EAI.sol\":24031:24061  (_endTime == 13) && (month==1) */\n      dup1\n      iszero\n      tag_267\n      jumpi\n      pop\n        /* \"contracts/lib/eai/EAI.sol\":24059:24060  1 */\n      0x01\n        /* \"contracts/lib/eai/EAI.sol\":24052:24057  month */\n      dup2\n        /* \"contracts/lib/eai/EAI.sol\":24052:24060  month==1 */\n      0xffffffff\n      and\n      eq\n        /* \"contracts/lib/eai/EAI.sol\":24031:24061  (_endTime == 13) && (month==1) */\n    tag_267:\n        /* \"contracts/lib/eai/EAI.sol\":24028:24108  if((_endTime == 13) && (month==1)){... */\n      iszero\n      tag_268\n      jumpi\n        /* \"contracts/lib/eai/EAI.sol\":24088:24092  true */\n      0x01\n        /* \"contracts/lib/eai/EAI.sol\":24081:24092  return true */\n      swap3\n      pop\n      pop\n      pop\n      jump(tag_261)\n        /* \"contracts/lib/eai/EAI.sol\":24028:24108  if((_endTime == 13) && (month==1)){... */\n    tag_268:\n        /* \"contracts/lib/eai/EAI.sol\":24146:24154  _endTime */\n      dup5\n        /* \"contracts/lib/eai/EAI.sol\":24137:24154  month >= _endTime */\n      0xffffffff\n      and\n        /* \"contracts/lib/eai/EAI.sol\":24137:24142  month */\n      dup2\n        /* \"contracts/lib/eai/EAI.sol\":24137:24154  month >= _endTime */\n      0xffffffff\n      and\n      lt\n      iszero\n        /* \"contracts/lib/eai/EAI.sol\":24130:24154  return month >= _endTime */\n      swap3\n      pop\n      pop\n      pop\n      jump(tag_261)\n        /* \"contracts/lib/eai/EAI.sol\":23909:24166  if(timeUnit == MONTH) {            ... */\n    tag_264:\n        /* \"contracts/lib/eai/EAI.sol\":24212:24223  uint32 year */\n      0x00\n        /* \"contracts/lib/eai/EAI.sol\":24230:24262  timeStampToDate(_accessDateTime) */\n      tag_269\n        /* \"contracts/lib/eai/EAI.sol\":24246:24261  _accessDateTime */\n      dup5\n        /* \"contracts/lib/eai/EAI.sol\":24230:24262  timeStampToDate(_accessDateTime) */\n      0xffffffff\n      and\n        /* \"contracts/lib/eai/EAI.sol\":24230:24245  timeStampToDate */\n      tag_266\n        /* \"contracts/lib/eai/EAI.sol\":24230:24262  timeStampToDate(_accessDateTime) */\n      jump\t// in\n    tag_269:\n        /* \"contracts/lib/eai/EAI.sol\":24211:24262  (uint32 year, ,) = timeStampToDate(_accessDateTime) */\n      pop\n      pop\n      swap1\n      pop\n        /* \"contracts/lib/eai/EAI.sol\":24288:24296  _endTime */\n      dup5\n        /* \"contracts/lib/eai/EAI.sol\":24280:24296  year >= _endTime */\n      0xffffffff\n      and\n        /* \"contracts/lib/eai/EAI.sol\":24280:24284  year */\n      dup2\n        /* \"contracts/lib/eai/EAI.sol\":24280:24296  year >= _endTime */\n      0xffffffff\n      and\n      lt\n      iszero\n        /* \"contracts/lib/eai/EAI.sol\":24273:24296  return year >= _endTime */\n      swap3\n      pop\n      pop\n      pop\n        /* \"contracts/lib/eai/EAI.sol\":23616:24304  function isAccessDatetimeOutOfOldInterval(uint8 _timeUnit, uint32 _endTime, ... */\n    tag_261:\n      swap4\n      swap3\n      pop\n      pop\n      pop\n      jump\t// out\n        /* \"contracts/lib/eai/EAI.sol\":12507:13115  function setNewEndTimeAndRestOfOperations(... */\n    tag_218:\n        /* \"contracts/lib/eai/EAI.sol\":12720:12747  _maxNumberOfOperationByTime */\n      dup2\n        /* \"contracts/lib/eai/EAI.sol\":12720:12754  _maxNumberOfOperationByTime.amount */\n      0x00\n      add\n      0x00\n      swap1\n      sload\n      swap1\n      0x0100\n      exp\n      swap1\n      div\n      0xffffffff\n      and\n        /* \"contracts/lib/eai/EAI.sol\":12685:12712  _maxNumberOfOperationByTime */\n      dup3\n        /* \"contracts/lib/eai/EAI.sol\":12685:12717  _maxNumberOfOperationByTime.rest */\n      0x00\n      add\n      0x09\n        /* \"contracts/lib/eai/EAI.sol\":12685:12754  _maxNumberOfOperationByTime.rest = _maxNumberOfOperationByTime.amount */\n      0x0100\n      exp\n      dup2\n      sload\n      dup2\n      0xffffffff\n      mul\n      not\n      and\n      swap1\n      dup4\n      0xffffffff\n      and\n      mul\n      or\n      swap1\n      sstore\n      pop\n        /* \"contracts/lib/eai/EAI.sol\":12803:13107  calcNextEndTime(... */\n      tag_271\n        /* \"contracts/lib/eai/EAI.sol\":12869:12896  _maxNumberOfOperationByTime */\n      dup3\n        /* \"contracts/lib/eai/EAI.sol\":12869:12903  _maxNumberOfOperationByTime.byTime */\n      0x00\n      add\n      0x05\n      swap1\n      sload\n      swap1\n      0x0100\n      exp\n      swap1\n      div\n      0xffffffff\n      and\n        /* \"contracts/lib/eai/EAI.sol\":12954:12981  _maxNumberOfOperationByTime */\n      dup4\n        /* \"contracts/lib/eai/EAI.sol\":12954:12990  _maxNumberOfOperationByTime.timeUnit */\n      0x00\n      add\n      0x04\n      swap1\n      sload\n      swap1\n      0x0100\n      exp\n      swap1\n      div\n      0xff\n      and\n        /* \"contracts/lib/eai/EAI.sol\":13041:13056  _accessDateTime */\n      dup4\n        /* \"contracts/lib/eai/EAI.sol\":12803:12818  calcNextEndTime */\n      tag_272\n        /* \"contracts/lib/eai/EAI.sol\":12803:13107  calcNextEndTime(... */\n      jump\t// in\n    tag_271:\n        /* \"contracts/lib/eai/EAI.sol\":12765:12792  _maxNumberOfOperationByTime */\n      dup3\n        /* \"contracts/lib/eai/EAI.sol\":12765:12800  _maxNumberOfOperationByTime.endTime */\n      0x00\n      add\n      0x0d\n        /* \"contracts/lib/eai/EAI.sol\":12765:13107  _maxNumberOfOperationByTime.endTime = calcNextEndTime(... */\n      0x0100\n      exp\n      dup2\n      sload\n      dup2\n      0xffffffff\n      mul\n      not\n      and\n      swap1\n      dup4\n      0xffffffff\n      and\n      mul\n      or\n      swap1\n      sstore\n      pop\n        /* \"contracts/lib/eai/EAI.sol\":12507:13115  function setNewEndTimeAndRestOfOperations(... */\n      pop\n      pop\n      jump\t// out\n        /* \"contracts/lib/eai/EAI.sol\":26277:26973  function timeStampToDate(uint _timestamp) internal pure returns (uint32 year, uint32 month, uint32 day) {... */\n    tag_266:\n        /* \"contracts/lib/eai/EAI.sol\":26342:26353  uint32 year */\n      0x00\n        /* \"contracts/lib/eai/EAI.sol\":26355:26367  uint32 month */\n      dup1\n        /* \"contracts/lib/eai/EAI.sol\":26369:26379  uint32 day */\n      0x00\n        /* \"contracts/lib/eai/EAI.sol\":26401:26414  uint32 __days */\n      dup1\n        /* \"contracts/lib/eai/EAI.sol\":1073:1081  24*60*60 */\n      0x015180\n        /* \"contracts/lib/eai/EAI.sol\":26424:26452  _timestamp / SECONDS_PER_DAY */\n      0xffffffff\n      and\n        /* \"contracts/lib/eai/EAI.sol\":26424:26434  _timestamp */\n      dup6\n        /* \"contracts/lib/eai/EAI.sol\":26424:26452  _timestamp / SECONDS_PER_DAY */\n      tag_274\n      swap2\n      swap1\n      tag_245\n      jump\t// in\n    tag_274:\n        /* \"contracts/lib/eai/EAI.sol\":26401:26453  uint32 __days = uint32(_timestamp / SECONDS_PER_DAY) */\n      swap1\n      pop\n        /* \"contracts/lib/eai/EAI.sol\":26466:26474  uint32 L */\n      0x00\n        /* \"contracts/lib/eai/EAI.sol\":1121:1128  2440588 */\n      0x253d8c\n        /* \"contracts/lib/eai/EAI.sol\":26486:26491  68569 */\n      0x010bd9\n        /* \"contracts/lib/eai/EAI.sol\":26477:26483  __days */\n      dup4\n        /* \"contracts/lib/eai/EAI.sol\":26477:26491  __days + 68569 */\n      tag_275\n      swap2\n      swap1\n      tag_225\n      jump\t// in\n    tag_275:\n        /* \"contracts/lib/eai/EAI.sol\":26477:26508  __days + 68569 + OFFSET19700101 */\n      tag_276\n      swap2\n      swap1\n      tag_225\n      jump\t// in\n    tag_276:\n        /* \"contracts/lib/eai/EAI.sol\":26466:26508  uint32 L = __days + 68569 + OFFSET19700101 */\n      swap1\n      pop\n        /* \"contracts/lib/eai/EAI.sol\":26519:26527  uint32 N */\n      0x00\n        /* \"contracts/lib/eai/EAI.sol\":26538:26544  146097 */\n      0x023ab1\n        /* \"contracts/lib/eai/EAI.sol\":26534:26535  L */\n      dup3\n        /* \"contracts/lib/eai/EAI.sol\":26530:26531  4 */\n      0x04\n        /* \"contracts/lib/eai/EAI.sol\":26530:26535  4 * L */\n      tag_277\n      swap2\n      swap1\n      tag_278\n      jump\t// in\n    tag_277:\n        /* \"contracts/lib/eai/EAI.sol\":26530:26544  4 * L / 146097 */\n      tag_279\n      swap2\n      swap1\n      tag_280\n      jump\t// in\n    tag_279:\n        /* \"contracts/lib/eai/EAI.sol\":26519:26544  uint32 N = 4 * L / 146097 */\n      swap1\n      pop\n        /* \"contracts/lib/eai/EAI.sol\":26582:26583  4 */\n      0x04\n        /* \"contracts/lib/eai/EAI.sol\":26577:26578  3 */\n      0x03\n        /* \"contracts/lib/eai/EAI.sol\":26573:26574  N */\n      dup3\n        /* \"contracts/lib/eai/EAI.sol\":26564:26570  146097 */\n      0x023ab1\n        /* \"contracts/lib/eai/EAI.sol\":26564:26574  146097 * N */\n      tag_281\n      swap2\n      swap1\n      tag_278\n      jump\t// in\n    tag_281:\n        /* \"contracts/lib/eai/EAI.sol\":26564:26578  146097 * N + 3 */\n      tag_282\n      swap2\n      swap1\n      tag_225\n      jump\t// in\n    tag_282:\n        /* \"contracts/lib/eai/EAI.sol\":26563:26583  (146097 * N + 3) / 4 */\n      tag_283\n      swap2\n      swap1\n      tag_280\n      jump\t// in\n    tag_283:\n        /* \"contracts/lib/eai/EAI.sol\":26559:26560  L */\n      dup3\n        /* \"contracts/lib/eai/EAI.sol\":26559:26583  L - (146097 * N + 3) / 4 */\n      tag_284\n      swap2\n      swap1\n      tag_194\n      jump\t// in\n    tag_284:\n        /* \"contracts/lib/eai/EAI.sol\":26555:26583  L = L - (146097 * N + 3) / 4 */\n      swap2\n      pop\n        /* \"contracts/lib/eai/EAI.sol\":26594:26606  uint32 _year */\n      0x00\n        /* \"contracts/lib/eai/EAI.sol\":26626:26633  1461001 */\n      0x164b09\n        /* \"contracts/lib/eai/EAI.sol\":26621:26622  1 */\n      0x01\n        /* \"contracts/lib/eai/EAI.sol\":26617:26618  L */\n      dup5\n        /* \"contracts/lib/eai/EAI.sol\":26617:26622  L + 1 */\n      tag_285\n      swap2\n      swap1\n      tag_225\n      jump\t// in\n    tag_285:\n        /* \"contracts/lib/eai/EAI.sol\":26609:26613  4000 */\n      0x0fa0\n        /* \"contracts/lib/eai/EAI.sol\":26609:26623  4000 * (L + 1) */\n      tag_286\n      swap2\n      swap1\n      tag_278\n      jump\t// in\n    tag_286:\n        /* \"contracts/lib/eai/EAI.sol\":26609:26633  4000 * (L + 1) / 1461001 */\n      tag_287\n      swap2\n      swap1\n      tag_280\n      jump\t// in\n    tag_287:\n        /* \"contracts/lib/eai/EAI.sol\":26594:26633  uint32 _year = 4000 * (L + 1) / 1461001 */\n      swap1\n      pop\n        /* \"contracts/lib/eai/EAI.sol\":26671:26673  31 */\n      0x1f\n        /* \"contracts/lib/eai/EAI.sol\":26667:26668  4 */\n      0x04\n        /* \"contracts/lib/eai/EAI.sol\":26659:26664  _year */\n      dup3\n        /* \"contracts/lib/eai/EAI.sol\":26652:26656  1461 */\n      0x05b5\n        /* \"contracts/lib/eai/EAI.sol\":26652:26664  1461 * _year */\n      tag_288\n      swap2\n      swap1\n      tag_278\n      jump\t// in\n    tag_288:\n        /* \"contracts/lib/eai/EAI.sol\":26652:26668  1461 * _year / 4 */\n      tag_289\n      swap2\n      swap1\n      tag_280\n      jump\t// in\n    tag_289:\n        /* \"contracts/lib/eai/EAI.sol\":26648:26649  L */\n      dup5\n        /* \"contracts/lib/eai/EAI.sol\":26648:26668  L - 1461 * _year / 4 */\n      tag_290\n      swap2\n      swap1\n      tag_194\n      jump\t// in\n    tag_290:\n        /* \"contracts/lib/eai/EAI.sol\":26648:26673  L - 1461 * _year / 4 + 31 */\n      tag_291\n      swap2\n      swap1\n      tag_225\n      jump\t// in\n    tag_291:\n        /* \"contracts/lib/eai/EAI.sol\":26644:26673  L = L - 1461 * _year / 4 + 31 */\n      swap3\n      pop\n        /* \"contracts/lib/eai/EAI.sol\":26684:26697  uint32 _month */\n      0x00\n        /* \"contracts/lib/eai/EAI.sol\":26709:26713  2447 */\n      0x098f\n        /* \"contracts/lib/eai/EAI.sol\":26705:26706  L */\n      dup5\n        /* \"contracts/lib/eai/EAI.sol\":26700:26702  80 */\n      0x50\n        /* \"contracts/lib/eai/EAI.sol\":26700:26706  80 * L */\n      tag_292\n      swap2\n      swap1\n      tag_278\n      jump\t// in\n    tag_292:\n        /* \"contracts/lib/eai/EAI.sol\":26700:26713  80 * L / 2447 */\n      tag_293\n      swap2\n      swap1\n      tag_280\n      jump\t// in\n    tag_293:\n        /* \"contracts/lib/eai/EAI.sol\":26684:26713  uint32 _month = 80 * L / 2447 */\n      swap1\n      pop\n        /* \"contracts/lib/eai/EAI.sol\":26724:26735  uint32 _day */\n      0x00\n        /* \"contracts/lib/eai/EAI.sol\":26758:26760  80 */\n      0x50\n        /* \"contracts/lib/eai/EAI.sol\":26749:26755  _month */\n      dup3\n        /* \"contracts/lib/eai/EAI.sol\":26742:26746  2447 */\n      0x098f\n        /* \"contracts/lib/eai/EAI.sol\":26742:26755  2447 * _month */\n      tag_294\n      swap2\n      swap1\n      tag_278\n      jump\t// in\n    tag_294:\n        /* \"contracts/lib/eai/EAI.sol\":26742:26760  2447 * _month / 80 */\n      tag_295\n      swap2\n      swap1\n      tag_280\n      jump\t// in\n    tag_295:\n        /* \"contracts/lib/eai/EAI.sol\":26738:26739  L */\n      dup6\n        /* \"contracts/lib/eai/EAI.sol\":26738:26760  L - 2447 * _month / 80 */\n      tag_296\n      swap2\n      swap1\n      tag_194\n      jump\t// in\n    tag_296:\n        /* \"contracts/lib/eai/EAI.sol\":26724:26760  uint32 _day = L - 2447 * _month / 80 */\n      swap1\n      pop\n        /* \"contracts/lib/eai/EAI.sol\":26784:26786  11 */\n      0x0b\n        /* \"contracts/lib/eai/EAI.sol\":26775:26781  _month */\n      dup3\n        /* \"contracts/lib/eai/EAI.sol\":26775:26786  _month / 11 */\n      tag_297\n      swap2\n      swap1\n      tag_280\n      jump\t// in\n    tag_297:\n        /* \"contracts/lib/eai/EAI.sol\":26771:26786  L = _month / 11 */\n      swap5\n      pop\n        /* \"contracts/lib/eai/EAI.sol\":26824:26825  L */\n      dup5\n        /* \"contracts/lib/eai/EAI.sol\":26819:26821  12 */\n      0x0c\n        /* \"contracts/lib/eai/EAI.sol\":26819:26825  12 * L */\n      tag_298\n      swap2\n      swap1\n      tag_278\n      jump\t// in\n    tag_298:\n        /* \"contracts/lib/eai/EAI.sol\":26815:26816  2 */\n      0x02\n        /* \"contracts/lib/eai/EAI.sol\":26806:26812  _month */\n      dup4\n        /* \"contracts/lib/eai/EAI.sol\":26806:26816  _month + 2 */\n      tag_299\n      swap2\n      swap1\n      tag_225\n      jump\t// in\n    tag_299:\n        /* \"contracts/lib/eai/EAI.sol\":26806:26825  _month + 2 - 12 * L */\n      tag_300\n      swap2\n      swap1\n      tag_194\n      jump\t// in\n    tag_300:\n        /* \"contracts/lib/eai/EAI.sol\":26797:26825  _month = _month + 2 - 12 * L */\n      swap2\n      pop\n        /* \"contracts/lib/eai/EAI.sol\":26869:26870  L */\n      dup5\n        /* \"contracts/lib/eai/EAI.sol\":26861:26866  _year */\n      dup4\n        /* \"contracts/lib/eai/EAI.sol\":26855:26857  49 */\n      0x31\n        /* \"contracts/lib/eai/EAI.sol\":26851:26852  N */\n      dup7\n        /* \"contracts/lib/eai/EAI.sol\":26851:26857  N - 49 */\n      tag_301\n      swap2\n      swap1\n      tag_194\n      jump\t// in\n    tag_301:\n        /* \"contracts/lib/eai/EAI.sol\":26844:26847  100 */\n      0x64\n        /* \"contracts/lib/eai/EAI.sol\":26844:26858  100 * (N - 49) */\n      tag_302\n      swap2\n      swap1\n      tag_278\n      jump\t// in\n    tag_302:\n        /* \"contracts/lib/eai/EAI.sol\":26844:26866  100 * (N - 49) + _year */\n      tag_303\n      swap2\n      swap1\n      tag_225\n      jump\t// in\n    tag_303:\n        /* \"contracts/lib/eai/EAI.sol\":26844:26870  100 * (N - 49) + _year + L */\n      tag_304\n      swap2\n      swap1\n      tag_225\n      jump\t// in\n    tag_304:\n        /* \"contracts/lib/eai/EAI.sol\":26836:26870  _year = 100 * (N - 49) + _year + L */\n      swap3\n      pop\n        /* \"contracts/lib/eai/EAI.sol\":26897:26902  _year */\n      dup3\n        /* \"contracts/lib/eai/EAI.sol\":26883:26903  year = uint32(_year) */\n      swap9\n      pop\n        /* \"contracts/lib/eai/EAI.sol\":26929:26935  _month */\n      dup2\n        /* \"contracts/lib/eai/EAI.sol\":26914:26936  month = uint32(_month) */\n      swap8\n      pop\n        /* \"contracts/lib/eai/EAI.sol\":26960:26964  _day */\n      dup1\n        /* \"contracts/lib/eai/EAI.sol\":26947:26965  day = uint32(_day) */\n      swap7\n      pop\n        /* \"contracts/lib/eai/EAI.sol\":26381:26973  {... */\n      pop\n      pop\n      pop\n      pop\n      pop\n      pop\n        /* \"contracts/lib/eai/EAI.sol\":26277:26973  function timeStampToDate(uint _timestamp) internal pure returns (uint32 year, uint32 month, uint32 day) {... */\n      swap2\n      swap4\n      swap1\n      swap3\n      pop\n      jump\t// out\n        /* \"contracts/lib/eai/EAI.sol\":24312:24969  function calcNextEndTime(       ... */\n    tag_272:\n        /* \"contracts/lib/eai/EAI.sol\":24466:24472  uint32 */\n      0x00\n        /* \"contracts/lib/eai/EAI.sol\":784:785  4 */\n      0x04\n        /* \"contracts/lib/eai/EAI.sol\":24498:24515  _timeUnit <= WEEK */\n      0xff\n      and\n        /* \"contracts/lib/eai/EAI.sol\":24498:24507  _timeUnit */\n      dup4\n        /* \"contracts/lib/eai/EAI.sol\":24498:24515  _timeUnit <= WEEK */\n      0xff\n      and\n      gt\n        /* \"contracts/lib/eai/EAI.sol\":24494:24962  if (_timeUnit <= WEEK) {... */\n      tag_306\n      jumpi\n        /* \"contracts/lib/eai/EAI.sol\":24539:24671  calcNextEndTimeForSecMinHrDayOrWeek(... */\n      tag_307\n        /* \"contracts/lib/eai/EAI.sol\":24593:24602  _timeUnit */\n      dup4\n        /* \"contracts/lib/eai/EAI.sol\":24622:24637  _accessDateTime */\n      dup4\n        /* \"contracts/lib/eai/EAI.sol\":24657:24670  _timeInterval */\n      dup7\n        /* \"contracts/lib/eai/EAI.sol\":24539:24574  calcNextEndTimeForSecMinHrDayOrWeek */\n      tag_308\n        /* \"contracts/lib/eai/EAI.sol\":24539:24671  calcNextEndTimeForSecMinHrDayOrWeek(... */\n      jump\t// in\n    tag_307:\n        /* \"contracts/lib/eai/EAI.sol\":24532:24671  return calcNextEndTimeForSecMinHrDayOrWeek(... */\n      swap1\n      pop\n      jump(tag_305)\n        /* \"contracts/lib/eai/EAI.sol\":24494:24962  if (_timeUnit <= WEEK) {... */\n    tag_306:\n        /* \"contracts/lib/eai/EAI.sol\":814:815  5 */\n      0x05\n        /* \"contracts/lib/eai/EAI.sol\":24691:24709  _timeUnit == MONTH */\n      0xff\n      and\n        /* \"contracts/lib/eai/EAI.sol\":24691:24700  _timeUnit */\n      dup4\n        /* \"contracts/lib/eai/EAI.sol\":24691:24709  _timeUnit == MONTH */\n      0xff\n      and\n      sub\n        /* \"contracts/lib/eai/EAI.sol\":24688:24962  if(_timeUnit == MONTH){... */\n      tag_310\n      jumpi\n        /* \"contracts/lib/eai/EAI.sol\":24727:24744  uint currentMonth */\n      0x00\n        /* \"contracts/lib/eai/EAI.sol\":24749:24781  timeStampToDate(_accessDateTime) */\n      tag_311\n        /* \"contracts/lib/eai/EAI.sol\":24765:24780  _accessDateTime */\n      dup4\n        /* \"contracts/lib/eai/EAI.sol\":24749:24781  timeStampToDate(_accessDateTime) */\n      0xffffffff\n      and\n        /* \"contracts/lib/eai/EAI.sol\":24749:24764  timeStampToDate */\n      tag_266\n        /* \"contracts/lib/eai/EAI.sol\":24749:24781  timeStampToDate(_accessDateTime) */\n      jump\t// in\n    tag_311:\n        /* \"contracts/lib/eai/EAI.sol\":24725:24781  (,uint currentMonth,) = timeStampToDate(_accessDateTime) */\n      pop\n      0xffffffff\n      and\n      swap2\n      pop\n      pop\n        /* \"contracts/lib/eai/EAI.sol\":24825:24826  1 */\n      0x01\n        /* \"contracts/lib/eai/EAI.sol\":24812:24824  currentMonth */\n      dup2\n        /* \"contracts/lib/eai/EAI.sol\":24812:24826  currentMonth+1 */\n      tag_312\n      swap2\n      swap1\n      tag_257\n      jump\t// in\n    tag_312:\n        /* \"contracts/lib/eai/EAI.sol\":24798:24827  return uint32(currentMonth+1) */\n      swap2\n      pop\n      pop\n      jump(tag_305)\n        /* \"contracts/lib/eai/EAI.sol\":24688:24962  if(_timeUnit == MONTH){... */\n    tag_310:\n        /* \"contracts/lib/eai/EAI.sol\":24865:24874  uint year */\n      0x00\n        /* \"contracts/lib/eai/EAI.sol\":24880:24912  timeStampToDate(_accessDateTime) */\n      tag_314\n        /* \"contracts/lib/eai/EAI.sol\":24896:24911  _accessDateTime */\n      dup4\n        /* \"contracts/lib/eai/EAI.sol\":24880:24912  timeStampToDate(_accessDateTime) */\n      0xffffffff\n      and\n        /* \"contracts/lib/eai/EAI.sol\":24880:24895  timeStampToDate */\n      tag_266\n        /* \"contracts/lib/eai/EAI.sol\":24880:24912  timeStampToDate(_accessDateTime) */\n      jump\t// in\n    tag_314:\n        /* \"contracts/lib/eai/EAI.sol\":24864:24912  (uint year,,) = timeStampToDate(_accessDateTime) */\n      pop\n      pop\n      0xffffffff\n      and\n      swap1\n      pop\n        /* \"contracts/lib/eai/EAI.sol\":24948:24949  1 */\n      0x01\n        /* \"contracts/lib/eai/EAI.sol\":24941:24945  year */\n      dup2\n        /* \"contracts/lib/eai/EAI.sol\":24941:24949  year + 1 */\n      tag_315\n      swap2\n      swap1\n      tag_257\n      jump\t// in\n    tag_315:\n        /* \"contracts/lib/eai/EAI.sol\":24927:24950  return uint32(year + 1) */\n      swap2\n      pop\n      pop\n        /* \"contracts/lib/eai/EAI.sol\":24312:24969  function calcNextEndTime(       ... */\n    tag_305:\n      swap4\n      swap3\n      pop\n      pop\n      pop\n      jump\t// out\n        /* \"contracts/lib/eai/EAI.sol\":24981:25478  function calcNextEndTimeForSecMinHrDayOrWeek(... */\n    tag_308:\n        /* \"contracts/lib/eai/EAI.sol\":25149:25155  uint32 */\n      0x00\n        /* \"contracts/lib/eai/EAI.sol\":25169:25179  uint32 mod */\n      dup1\n        /* \"contracts/lib/eai/EAI.sol\":25208:25221  _timeInterval */\n      dup3\n        /* \"contracts/lib/eai/EAI.sol\":25190:25205  _accessDateTime */\n      dup5\n        /* \"contracts/lib/eai/EAI.sol\":25190:25221  _accessDateTime % _timeInterval */\n      tag_317\n      swap2\n      swap1\n      tag_318\n      jump\t// in\n    tag_317:\n        /* \"contracts/lib/eai/EAI.sol\":25169:25222  uint32 mod =  uint32(_accessDateTime % _timeInterval) */\n      swap1\n      pop\n        /* \"contracts/lib/eai/EAI.sol\":25233:25257  uint32 timeToNextEndTime */\n      0x00\n        /* \"contracts/lib/eai/EAI.sol\":25277:25280  mod */\n      dup2\n        /* \"contracts/lib/eai/EAI.sol\":25261:25274  _timeInterval */\n      dup5\n        /* \"contracts/lib/eai/EAI.sol\":25261:25280  _timeInterval - mod */\n      tag_319\n      swap2\n      swap1\n      tag_194\n      jump\t// in\n    tag_319:\n        /* \"contracts/lib/eai/EAI.sol\":25233:25280  uint32 timeToNextEndTime  = _timeInterval - mod */\n      swap1\n      pop\n        /* \"contracts/lib/eai/EAI.sol\":784:785  4 */\n      0x04\n        /* \"contracts/lib/eai/EAI.sol\":25316:25333  _timeUnit == WEEK */\n      0xff\n      and\n        /* \"contracts/lib/eai/EAI.sol\":25316:25325  _timeUnit */\n      dup7\n        /* \"contracts/lib/eai/EAI.sol\":25316:25333  _timeUnit == WEEK */\n      0xff\n      and\n      sub\n        /* \"contracts/lib/eai/EAI.sol\":25313:25416  if(_timeUnit == WEEK){... */\n      tag_320\n      jumpi\n        /* \"contracts/lib/eai/EAI.sol\":1221:1227  259200 */\n      0x03f480\n        /* \"contracts/lib/eai/EAI.sol\":25374:25391  timeToNextEndTime */\n      dup2\n        /* \"contracts/lib/eai/EAI.sol\":25356:25371  _accessDateTime */\n      dup7\n        /* \"contracts/lib/eai/EAI.sol\":25356:25391  _accessDateTime + timeToNextEndTime */\n      tag_321\n      swap2\n      swap1\n      tag_225\n      jump\t// in\n    tag_321:\n        /* \"contracts/lib/eai/EAI.sol\":25356:25404  _accessDateTime + timeToNextEndTime + OFFSETWEEK */\n      tag_322\n      swap2\n      swap1\n      tag_225\n      jump\t// in\n    tag_322:\n        /* \"contracts/lib/eai/EAI.sol\":25349:25404  return _accessDateTime + timeToNextEndTime + OFFSETWEEK */\n      swap3\n      pop\n      pop\n      pop\n      jump(tag_316)\n        /* \"contracts/lib/eai/EAI.sol\":25313:25416  if(_timeUnit == WEEK){... */\n    tag_320:\n        /* \"contracts/lib/eai/EAI.sol\":25453:25470  timeToNextEndTime */\n      dup1\n        /* \"contracts/lib/eai/EAI.sol\":25435:25450  _accessDateTime */\n      dup6\n        /* \"contracts/lib/eai/EAI.sol\":25435:25470  _accessDateTime + timeToNextEndTime */\n      tag_323\n      swap2\n      swap1\n      tag_225\n      jump\t// in\n    tag_323:\n        /* \"contracts/lib/eai/EAI.sol\":25428:25470  return _accessDateTime + timeToNextEndTime */\n      swap3\n      pop\n      pop\n      pop\n        /* \"contracts/lib/eai/EAI.sol\":24981:25478  function calcNextEndTimeForSecMinHrDayOrWeek(... */\n    tag_316:\n      swap4\n      swap3\n      pop\n      pop\n      pop\n      jump\t// out\n    tag_79:\n      pop\n      dup1\n      sload\n      tag_324\n      swap1\n      tag_142\n      jump\t// in\n    tag_324:\n      0x00\n      dup3\n      sstore\n      dup1\n      0x1f\n      lt\n      tag_326\n      jumpi\n      pop\n      jump(tag_325)\n    tag_326:\n      0x1f\n      add\n      0x20\n      swap1\n      div\n      swap1\n      0x00\n      mstore\n      keccak256(0x00, 0x20)\n      swap1\n      dup2\n      add\n      swap1\n      tag_327\n      swap2\n      swap1\n      tag_328\n      jump\t// in\n    tag_327:\n    tag_325:\n      pop\n      jump\t// out\n    tag_82:\n      dup3\n      dup1\n      sload\n      tag_329\n      swap1\n      tag_142\n      jump\t// in\n    tag_329:\n      swap1\n      0x00\n      mstore\n      keccak256(0x00, 0x20)\n      swap1\n      0x1f\n      add\n      0x20\n      swap1\n      div\n      dup2\n      add\n      swap3\n      dup3\n      tag_331\n      jumpi\n      0x00\n      dup6\n      sstore\n      jump(tag_330)\n    tag_331:\n      dup3\n      0x1f\n      lt\n      tag_332\n      jumpi\n      dup1\n      mload\n      not(0xff)\n      and\n      dup4\n      dup1\n      add\n      or\n      dup6\n      sstore\n      jump(tag_330)\n    tag_332:\n      dup3\n      dup1\n      add\n      0x01\n      add\n      dup6\n      sstore\n      dup3\n      iszero\n      tag_330\n      jumpi\n      swap2\n      dup3\n      add\n    tag_333:\n      dup3\n      dup2\n      gt\n      iszero\n      tag_334\n      jumpi\n      dup3\n      mload\n      dup3\n      sstore\n      swap2\n      0x20\n      add\n      swap2\n      swap1\n      0x01\n      add\n      swap1\n      jump(tag_333)\n    tag_334:\n    tag_330:\n      pop\n      swap1\n      pop\n      tag_335\n      swap2\n      swap1\n      tag_328\n      jump\t// in\n    tag_335:\n      pop\n      swap1\n      jump\t// out\n    tag_135:\n      mload(0x40)\n      dup1\n      0x60\n      add\n      0x40\n      mstore\n      dup1\n      0x60\n      dup2\n      mstore\n      0x20\n      add\n      and(0xffffffffffffffffffffffffffffffffffffffff, 0x00)\n      dup2\n      mstore\n      0x20\n      add\n      iszero(iszero(0x00))\n      dup2\n      mstore\n      pop\n      swap1\n      jump\t// out\n    tag_150:\n      mload(0x40)\n      dup1\n      0x40\n      add\n      0x40\n      mstore\n      dup1\n      and(0xff, 0x00)\n      dup2\n      mstore\n      0x20\n      add\n      and(0xff, 0x00)\n      dup2\n      mstore\n      pop\n      swap1\n      jump\t// out\n    tag_162:\n      mload(0x40)\n      dup1\n      0x40\n      add\n      0x40\n      mstore\n      dup1\n      and(0xffffffff, 0x00)\n      dup2\n      mstore\n      0x20\n      add\n      and(0xffffffff, 0x00)\n      dup2\n      mstore\n      pop\n      swap1\n      jump\t// out\n    tag_172:\n      mload(0x40)\n      dup1\n      0xa0\n      add\n      0x40\n      mstore\n      dup1\n      and(0xffffffff, 0x00)\n      dup2\n      mstore\n      0x20\n      add\n      and(0xff, 0x00)\n      dup2\n      mstore\n      0x20\n      add\n      and(0xffffffff, 0x00)\n      dup2\n      mstore\n      0x20\n      add\n      and(0xffffffff, 0x00)\n      dup2\n      mstore\n      0x20\n      add\n      and(0xffffffff, 0x00)\n      dup2\n      mstore\n      pop\n      swap1\n      jump\t// out\n    tag_179:\n      mload(0x40)\n      dup1\n      0x40\n      add\n      0x40\n      mstore\n      dup1\n      and(0xffffffff, 0x00)\n      dup2\n      mstore\n      0x20\n      add\n      and(0xffffffff, 0x00)\n      dup2\n      mstore\n      pop\n      swap1\n      jump\t// out\n    tag_182:\n      mload(0x40)\n      dup1\n      0x20\n      add\n      0x40\n      mstore\n      dup1\n      0x60\n      dup2\n      mstore\n      pop\n      swap1\n      jump\t// out\n    tag_198:\n      dup3\n      dup1\n      sload\n      tag_336\n      swap1\n      tag_142\n      jump\t// in\n    tag_336:\n      swap1\n      0x00\n      mstore\n      keccak256(0x00, 0x20)\n      swap1\n      0x1f\n      add\n      0x20\n      swap1\n      div\n      dup2\n      add\n      swap3\n      dup3\n      tag_338\n      jumpi\n      0x00\n      dup6\n      sstore\n      jump(tag_337)\n    tag_338:\n      dup3\n      0x1f\n      lt\n      tag_339\n      jumpi\n      dup1\n      sload\n      dup6\n      sstore\n      jump(tag_337)\n    tag_339:\n      dup3\n      dup1\n      add\n      0x01\n      add\n      dup6\n      sstore\n      dup3\n      iszero\n      tag_337\n      jumpi\n      0x00\n      mstore\n      keccak256(0x00, 0x20)\n      swap2\n      0x1f\n      add\n      0x20\n      swap1\n      div\n      dup3\n      add\n    tag_340:\n      dup3\n      dup2\n      gt\n      iszero\n      tag_341\n      jumpi\n      dup3\n      sload\n      dup3\n      sstore\n      swap2\n      0x01\n      add\n      swap2\n      swap1\n      0x01\n      add\n      swap1\n      jump(tag_340)\n    tag_341:\n    tag_337:\n      pop\n      swap1\n      pop\n      tag_342\n      swap2\n      swap1\n      tag_328\n      jump\t// in\n    tag_342:\n      pop\n      swap1\n      jump\t// out\n    tag_328:\n    tag_343:\n      dup1\n      dup3\n      gt\n      iszero\n      tag_344\n      jumpi\n      0x00\n      dup2\n      0x00\n      swap1\n      sstore\n      pop\n      0x01\n      add\n      jump(tag_343)\n    tag_344:\n      pop\n      swap1\n      jump\t// out\n        /* \"#utility.yul\":7:82   */\n    tag_345:\n        /* \"#utility.yul\":40:46   */\n      0x00\n        /* \"#utility.yul\":73:75   */\n      0x40\n        /* \"#utility.yul\":67:76   */\n      mload\n        /* \"#utility.yul\":57:76   */\n      swap1\n      pop\n        /* \"#utility.yul\":7:82   */\n      swap1\n      jump\t// out\n        /* \"#utility.yul\":88:205   */\n    tag_346:\n        /* \"#utility.yul\":197:198   */\n      0x00\n        /* \"#utility.yul\":194:195   */\n      dup1\n        /* \"#utility.yul\":187:199   */\n      revert\n        /* \"#utility.yul\":211:328   */\n    tag_347:\n        /* \"#utility.yul\":320:321   */\n      0x00\n        /* \"#utility.yul\":317:318   */\n      dup1\n        /* \"#utility.yul\":310:322   */\n      revert\n        /* \"#utility.yul\":334:427   */\n    tag_348:\n        /* \"#utility.yul\":370:377   */\n      0x00\n        /* \"#utility.yul\":410:420   */\n      0xffffffff\n        /* \"#utility.yul\":403:408   */\n      dup3\n        /* \"#utility.yul\":399:421   */\n      and\n        /* \"#utility.yul\":388:421   */\n      swap1\n      pop\n        /* \"#utility.yul\":334:427   */\n      swap2\n      swap1\n      pop\n      jump\t// out\n        /* \"#utility.yul\":433:553   */\n    tag_349:\n        /* \"#utility.yul\":505:528   */\n      tag_414\n        /* \"#utility.yul\":522:527   */\n      dup2\n        /* \"#utility.yul\":505:528   */\n      tag_348\n      jump\t// in\n    tag_414:\n        /* \"#utility.yul\":498:503   */\n      dup2\n        /* \"#utility.yul\":495:529   */\n      eq\n        /* \"#utility.yul\":485:547   */\n      tag_415\n      jumpi\n        /* \"#utility.yul\":543:544   */\n      0x00\n        /* \"#utility.yul\":540:541   */\n      dup1\n        /* \"#utility.yul\":533:545   */\n      revert\n        /* \"#utility.yul\":485:547   */\n    tag_415:\n        /* \"#utility.yul\":433:553   */\n      pop\n      jump\t// out\n        /* \"#utility.yul\":559:696   */\n    tag_350:\n        /* \"#utility.yul\":604:609   */\n      0x00\n        /* \"#utility.yul\":642:648   */\n      dup2\n        /* \"#utility.yul\":629:649   */\n      calldataload\n        /* \"#utility.yul\":620:649   */\n      swap1\n      pop\n        /* \"#utility.yul\":658:690   */\n      tag_417\n        /* \"#utility.yul\":684:689   */\n      dup2\n        /* \"#utility.yul\":658:690   */\n      tag_349\n      jump\t// in\n    tag_417:\n        /* \"#utility.yul\":559:696   */\n      swap3\n      swap2\n      pop\n      pop\n      jump\t// out\n        /* \"#utility.yul\":702:819   */\n    tag_351:\n        /* \"#utility.yul\":811:812   */\n      0x00\n        /* \"#utility.yul\":808:809   */\n      dup1\n        /* \"#utility.yul\":801:813   */\n      revert\n        /* \"#utility.yul\":825:927   */\n    tag_352:\n        /* \"#utility.yul\":866:872   */\n      0x00\n        /* \"#utility.yul\":917:919   */\n      0x1f\n        /* \"#utility.yul\":913:920   */\n      not\n        /* \"#utility.yul\":908:910   */\n      0x1f\n        /* \"#utility.yul\":901:906   */\n      dup4\n        /* \"#utility.yul\":897:911   */\n      add\n        /* \"#utility.yul\":893:921   */\n      and\n        /* \"#utility.yul\":883:921   */\n      swap1\n      pop\n        /* \"#utility.yul\":825:927   */\n      swap2\n      swap1\n      pop\n      jump\t// out\n        /* \"#utility.yul\":933:1113   */\n    tag_248:\n        /* \"#utility.yul\":981:1058   */\n      0x4e487b7100000000000000000000000000000000000000000000000000000000\n        /* \"#utility.yul\":978:979   */\n      0x00\n        /* \"#utility.yul\":971:1059   */\n      mstore\n        /* \"#utility.yul\":1078:1082   */\n      0x41\n        /* \"#utility.yul\":1075:1076   */\n      0x04\n        /* \"#utility.yul\":1068:1083   */\n      mstore\n        /* \"#utility.yul\":1102:1106   */\n      0x24\n        /* \"#utility.yul\":1099:1100   */\n      0x00\n        /* \"#utility.yul\":1092:1107   */\n      revert\n        /* \"#utility.yul\":1119:1400   */\n    tag_353:\n        /* \"#utility.yul\":1202:1229   */\n      tag_422\n        /* \"#utility.yul\":1224:1228   */\n      dup3\n        /* \"#utility.yul\":1202:1229   */\n      tag_352\n      jump\t// in\n    tag_422:\n        /* \"#utility.yul\":1194:1200   */\n      dup2\n        /* \"#utility.yul\":1190:1230   */\n      add\n        /* \"#utility.yul\":1332:1338   */\n      dup2\n        /* \"#utility.yul\":1320:1330   */\n      dup2\n        /* \"#utility.yul\":1317:1339   */\n      lt\n        /* \"#utility.yul\":1296:1314   */\n      0xffffffffffffffff\n        /* \"#utility.yul\":1284:1294   */\n      dup3\n        /* \"#utility.yul\":1281:1315   */\n      gt\n        /* \"#utility.yul\":1278:1340   */\n      or\n        /* \"#utility.yul\":1275:1363   */\n      iszero\n      tag_423\n      jumpi\n        /* \"#utility.yul\":1343:1361   */\n      tag_424\n      tag_248\n      jump\t// in\n    tag_424:\n        /* \"#utility.yul\":1275:1363   */\n    tag_423:\n        /* \"#utility.yul\":1383:1393   */\n      dup1\n        /* \"#utility.yul\":1379:1381   */\n      0x40\n        /* \"#utility.yul\":1372:1394   */\n      mstore\n        /* \"#utility.yul\":1162:1400   */\n      pop\n        /* \"#utility.yul\":1119:1400   */\n      pop\n      pop\n      jump\t// out\n        /* \"#utility.yul\":1406:1535   */\n    tag_354:\n        /* \"#utility.yul\":1440:1446   */\n      0x00\n        /* \"#utility.yul\":1467:1487   */\n      tag_426\n      tag_345\n      jump\t// in\n    tag_426:\n        /* \"#utility.yul\":1457:1487   */\n      swap1\n      pop\n        /* \"#utility.yul\":1496:1529   */\n      tag_427\n        /* \"#utility.yul\":1524:1528   */\n      dup3\n        /* \"#utility.yul\":1516:1522   */\n      dup3\n        /* \"#utility.yul\":1496:1529   */\n      tag_353\n      jump\t// in\n    tag_427:\n        /* \"#utility.yul\":1406:1535   */\n      swap2\n      swap1\n      pop\n      jump\t// out\n        /* \"#utility.yul\":1541:1849   */\n    tag_355:\n        /* \"#utility.yul\":1615:1619   */\n      0x00\n        /* \"#utility.yul\":1705:1723   */\n      0xffffffffffffffff\n        /* \"#utility.yul\":1697:1703   */\n      dup3\n        /* \"#utility.yul\":1694:1724   */\n      gt\n        /* \"#utility.yul\":1691:1747   */\n      iszero\n      tag_429\n      jumpi\n        /* \"#utility.yul\":1727:1745   */\n      tag_430\n      tag_248\n      jump\t// in\n    tag_430:\n        /* \"#utility.yul\":1691:1747   */\n    tag_429:\n        /* \"#utility.yul\":1777:1781   */\n      0x20\n        /* \"#utility.yul\":1769:1775   */\n      dup3\n        /* \"#utility.yul\":1765:1782   */\n      mul\n        /* \"#utility.yul\":1757:1782   */\n      swap1\n      pop\n        /* \"#utility.yul\":1837:1841   */\n      0x20\n        /* \"#utility.yul\":1831:1835   */\n      dup2\n        /* \"#utility.yul\":1827:1842   */\n      add\n        /* \"#utility.yul\":1819:1842   */\n      swap1\n      pop\n        /* \"#utility.yul\":1541:1849   */\n      swap2\n      swap1\n      pop\n      jump\t// out\n        /* \"#utility.yul\":1855:1972   */\n    tag_356:\n        /* \"#utility.yul\":1964:1965   */\n      0x00\n        /* \"#utility.yul\":1961:1962   */\n      dup1\n        /* \"#utility.yul\":1954:1966   */\n      revert\n        /* \"#utility.yul\":1978:2068   */\n    tag_357:\n        /* \"#utility.yul\":2012:2019   */\n      0x00\n        /* \"#utility.yul\":2055:2060   */\n      dup2\n        /* \"#utility.yul\":2048:2061   */\n      iszero\n        /* \"#utility.yul\":2041:2062   */\n      iszero\n        /* \"#utility.yul\":2030:2062   */\n      swap1\n      pop\n        /* \"#utility.yul\":1978:2068   */\n      swap2\n      swap1\n      pop\n      jump\t// out\n        /* \"#utility.yul\":2074:2190   */\n    tag_358:\n        /* \"#utility.yul\":2144:2165   */\n      tag_434\n        /* \"#utility.yul\":2159:2164   */\n      dup2\n        /* \"#utility.yul\":2144:2165   */\n      tag_357\n      jump\t// in\n    tag_434:\n        /* \"#utility.yul\":2137:2142   */\n      dup2\n        /* \"#utility.yul\":2134:2166   */\n      eq\n        /* \"#utility.yul\":2124:2184   */\n      tag_435\n      jumpi\n        /* \"#utility.yul\":2180:2181   */\n      0x00\n        /* \"#utility.yul\":2177:2178   */\n      dup1\n        /* \"#utility.yul\":2170:2182   */\n      revert\n        /* \"#utility.yul\":2124:2184   */\n    tag_435:\n        /* \"#utility.yul\":2074:2190   */\n      pop\n      jump\t// out\n        /* \"#utility.yul\":2196:2329   */\n    tag_359:\n        /* \"#utility.yul\":2239:2244   */\n      0x00\n        /* \"#utility.yul\":2277:2283   */\n      dup2\n        /* \"#utility.yul\":2264:2284   */\n      calldataload\n        /* \"#utility.yul\":2255:2284   */\n      swap1\n      pop\n        /* \"#utility.yul\":2293:2323   */\n      tag_437\n        /* \"#utility.yul\":2317:2322   */\n      dup2\n        /* \"#utility.yul\":2293:2323   */\n      tag_358\n      jump\t// in\n    tag_437:\n        /* \"#utility.yul\":2196:2329   */\n      swap3\n      swap2\n      pop\n      pop\n      jump\t// out\n        /* \"#utility.yul\":2349:3050   */\n    tag_360:\n        /* \"#utility.yul\":2442:2447   */\n      0x00\n        /* \"#utility.yul\":2467:2545   */\n      tag_439\n        /* \"#utility.yul\":2483:2544   */\n      tag_440\n        /* \"#utility.yul\":2537:2543   */\n      dup5\n        /* \"#utility.yul\":2483:2544   */\n      tag_355\n      jump\t// in\n    tag_440:\n        /* \"#utility.yul\":2467:2545   */\n      tag_354\n      jump\t// in\n    tag_439:\n        /* \"#utility.yul\":2458:2545   */\n      swap1\n      pop\n        /* \"#utility.yul\":2565:2570   */\n      dup1\n        /* \"#utility.yul\":2594:2600   */\n      dup4\n        /* \"#utility.yul\":2587:2592   */\n      dup3\n        /* \"#utility.yul\":2580:2601   */\n      mstore\n        /* \"#utility.yul\":2628:2632   */\n      0x20\n        /* \"#utility.yul\":2621:2626   */\n      dup3\n        /* \"#utility.yul\":2617:2633   */\n      add\n        /* \"#utility.yul\":2610:2633   */\n      swap1\n      pop\n        /* \"#utility.yul\":2681:2685   */\n      0x20\n        /* \"#utility.yul\":2673:2679   */\n      dup5\n        /* \"#utility.yul\":2669:2686   */\n      mul\n        /* \"#utility.yul\":2661:2667   */\n      dup4\n        /* \"#utility.yul\":2657:2687   */\n      add\n        /* \"#utility.yul\":2710:2713   */\n      dup6\n        /* \"#utility.yul\":2702:2708   */\n      dup2\n        /* \"#utility.yul\":2699:2714   */\n      gt\n        /* \"#utility.yul\":2696:2818   */\n      iszero\n      tag_441\n      jumpi\n        /* \"#utility.yul\":2729:2808   */\n      tag_442\n      tag_356\n      jump\t// in\n    tag_442:\n        /* \"#utility.yul\":2696:2818   */\n    tag_441:\n        /* \"#utility.yul\":2844:2850   */\n      dup4\n        /* \"#utility.yul\":2827:3044   */\n    tag_443:\n        /* \"#utility.yul\":2861:2867   */\n      dup2\n        /* \"#utility.yul\":2856:2859   */\n      dup2\n        /* \"#utility.yul\":2853:2868   */\n      lt\n        /* \"#utility.yul\":2827:3044   */\n      iszero\n      tag_445\n      jumpi\n        /* \"#utility.yul\":2936:2939   */\n      dup1\n        /* \"#utility.yul\":2965:2999   */\n      tag_446\n        /* \"#utility.yul\":2995:2998   */\n      dup9\n        /* \"#utility.yul\":2983:2993   */\n      dup3\n        /* \"#utility.yul\":2965:2999   */\n      tag_359\n      jump\t// in\n    tag_446:\n        /* \"#utility.yul\":2960:2963   */\n      dup5\n        /* \"#utility.yul\":2953:3000   */\n      mstore\n        /* \"#utility.yul\":3029:3033   */\n      0x20\n        /* \"#utility.yul\":3024:3027   */\n      dup5\n        /* \"#utility.yul\":3020:3034   */\n      add\n        /* \"#utility.yul\":3013:3034   */\n      swap4\n      pop\n        /* \"#utility.yul\":2903:3044   */\n      pop\n        /* \"#utility.yul\":2887:2891   */\n      0x20\n        /* \"#utility.yul\":2882:2885   */\n      dup2\n        /* \"#utility.yul\":2878:2892   */\n      add\n        /* \"#utility.yul\":2871:2892   */\n      swap1\n      pop\n        /* \"#utility.yul\":2827:3044   */\n      jump(tag_443)\n    tag_445:\n        /* \"#utility.yul\":2831:2852   */\n      pop\n        /* \"#utility.yul\":2448:3050   */\n      pop\n      pop\n        /* \"#utility.yul\":2349:3050   */\n      swap4\n      swap3\n      pop\n      pop\n      pop\n      jump\t// out\n        /* \"#utility.yul\":3070:3434   */\n    tag_361:\n        /* \"#utility.yul\":3138:3143   */\n      0x00\n        /* \"#utility.yul\":3187:3190   */\n      dup3\n        /* \"#utility.yul\":3180:3184   */\n      0x1f\n        /* \"#utility.yul\":3172:3178   */\n      dup4\n        /* \"#utility.yul\":3168:3185   */\n      add\n        /* \"#utility.yul\":3164:3191   */\n      slt\n        /* \"#utility.yul\":3154:3276   */\n      tag_448\n      jumpi\n        /* \"#utility.yul\":3195:3274   */\n      tag_449\n      tag_351\n      jump\t// in\n    tag_449:\n        /* \"#utility.yul\":3154:3276   */\n    tag_448:\n        /* \"#utility.yul\":3312:3318   */\n      dup2\n        /* \"#utility.yul\":3299:3319   */\n      calldataload\n        /* \"#utility.yul\":3337:3428   */\n      tag_450\n        /* \"#utility.yul\":3424:3427   */\n      dup5\n        /* \"#utility.yul\":3416:3422   */\n      dup3\n        /* \"#utility.yul\":3409:3413   */\n      0x20\n        /* \"#utility.yul\":3401:3407   */\n      dup7\n        /* \"#utility.yul\":3397:3414   */\n      add\n        /* \"#utility.yul\":3337:3428   */\n      tag_360\n      jump\t// in\n    tag_450:\n        /* \"#utility.yul\":3328:3428   */\n      swap2\n      pop\n        /* \"#utility.yul\":3144:3434   */\n      pop\n        /* \"#utility.yul\":3070:3434   */\n      swap3\n      swap2\n      pop\n      pop\n      jump\t// out\n        /* \"#utility.yul\":3440:4116   */\n    tag_13:\n        /* \"#utility.yul\":3529:3535   */\n      0x00\n        /* \"#utility.yul\":3537:3543   */\n      dup1\n        /* \"#utility.yul\":3586:3588   */\n      0x40\n        /* \"#utility.yul\":3574:3583   */\n      dup4\n        /* \"#utility.yul\":3565:3572   */\n      dup6\n        /* \"#utility.yul\":3561:3584   */\n      sub\n        /* \"#utility.yul\":3557:3589   */\n      slt\n        /* \"#utility.yul\":3554:3673   */\n      iszero\n      tag_452\n      jumpi\n        /* \"#utility.yul\":3592:3671   */\n      tag_453\n      tag_346\n      jump\t// in\n    tag_453:\n        /* \"#utility.yul\":3554:3673   */\n    tag_452:\n        /* \"#utility.yul\":3712:3713   */\n      0x00\n        /* \"#utility.yul\":3737:3789   */\n      tag_454\n        /* \"#utility.yul\":3781:3788   */\n      dup6\n        /* \"#utility.yul\":3772:3778   */\n      dup3\n        /* \"#utility.yul\":3761:3770   */\n      dup7\n        /* \"#utility.yul\":3757:3779   */\n      add\n        /* \"#utility.yul\":3737:3789   */\n      tag_350\n      jump\t// in\n    tag_454:\n        /* \"#utility.yul\":3727:3789   */\n      swap3\n      pop\n        /* \"#utility.yul\":3683:3799   */\n      pop\n        /* \"#utility.yul\":3866:3868   */\n      0x20\n        /* \"#utility.yul\":3855:3864   */\n      dup4\n        /* \"#utility.yul\":3851:3869   */\n      add\n        /* \"#utility.yul\":3838:3870   */\n      calldataload\n        /* \"#utility.yul\":3897:3915   */\n      0xffffffffffffffff\n        /* \"#utility.yul\":3889:3895   */\n      dup2\n        /* \"#utility.yul\":3886:3916   */\n      gt\n        /* \"#utility.yul\":3883:4000   */\n      iszero\n      tag_455\n      jumpi\n        /* \"#utility.yul\":3919:3998   */\n      tag_456\n      tag_347\n      jump\t// in\n    tag_456:\n        /* \"#utility.yul\":3883:4000   */\n    tag_455:\n        /* \"#utility.yul\":4024:4099   */\n      tag_457\n        /* \"#utility.yul\":4091:4098   */\n      dup6\n        /* \"#utility.yul\":4082:4088   */\n      dup3\n        /* \"#utility.yul\":4071:4080   */\n      dup7\n        /* \"#utility.yul\":4067:4089   */\n      add\n        /* \"#utility.yul\":4024:4099   */\n      tag_361\n      jump\t// in\n    tag_457:\n        /* \"#utility.yul\":4014:4099   */\n      swap2\n      pop\n        /* \"#utility.yul\":3809:4109   */\n      pop\n        /* \"#utility.yul\":3440:4116   */\n      swap3\n      pop\n      swap3\n      swap1\n      pop\n      jump\t// out\n        /* \"#utility.yul\":4122:4231   */\n    tag_362:\n        /* \"#utility.yul\":4203:4224   */\n      tag_459\n        /* \"#utility.yul\":4218:4223   */\n      dup2\n        /* \"#utility.yul\":4203:4224   */\n      tag_357\n      jump\t// in\n    tag_459:\n        /* \"#utility.yul\":4198:4201   */\n      dup3\n        /* \"#utility.yul\":4191:4225   */\n      mstore\n        /* \"#utility.yul\":4122:4231   */\n      pop\n      pop\n      jump\t// out\n        /* \"#utility.yul\":4237:4447   */\n    tag_16:\n        /* \"#utility.yul\":4324:4328   */\n      0x00\n        /* \"#utility.yul\":4362:4364   */\n      0x20\n        /* \"#utility.yul\":4351:4360   */\n      dup3\n        /* \"#utility.yul\":4347:4365   */\n      add\n        /* \"#utility.yul\":4339:4365   */\n      swap1\n      pop\n        /* \"#utility.yul\":4375:4440   */\n      tag_461\n        /* \"#utility.yul\":4437:4438   */\n      0x00\n        /* \"#utility.yul\":4426:4435   */\n      dup4\n        /* \"#utility.yul\":4422:4439   */\n      add\n        /* \"#utility.yul\":4413:4419   */\n      dup5\n        /* \"#utility.yul\":4375:4440   */\n      tag_362\n      jump\t// in\n    tag_461:\n        /* \"#utility.yul\":4237:4447   */\n      swap3\n      swap2\n      pop\n      pop\n      jump\t// out\n        /* \"#utility.yul\":4453:4570   */\n    tag_363:\n        /* \"#utility.yul\":4562:4563   */\n      0x00\n        /* \"#utility.yul\":4559:4560   */\n      dup1\n        /* \"#utility.yul\":4552:4564   */\n      revert\n        /* \"#utility.yul\":4576:4884   */\n    tag_364:\n        /* \"#utility.yul\":4638:4642   */\n      0x00\n        /* \"#utility.yul\":4728:4746   */\n      0xffffffffffffffff\n        /* \"#utility.yul\":4720:4726   */\n      dup3\n        /* \"#utility.yul\":4717:4747   */\n      gt\n        /* \"#utility.yul\":4714:4770   */\n      iszero\n      tag_464\n      jumpi\n        /* \"#utility.yul\":4750:4768   */\n      tag_465\n      tag_248\n      jump\t// in\n    tag_465:\n        /* \"#utility.yul\":4714:4770   */\n    tag_464:\n        /* \"#utility.yul\":4788:4817   */\n      tag_466\n        /* \"#utility.yul\":4810:4816   */\n      dup3\n        /* \"#utility.yul\":4788:4817   */\n      tag_352\n      jump\t// in\n    tag_466:\n        /* \"#utility.yul\":4780:4817   */\n      swap1\n      pop\n        /* \"#utility.yul\":4872:4876   */\n      0x20\n        /* \"#utility.yul\":4866:4870   */\n      dup2\n        /* \"#utility.yul\":4862:4877   */\n      add\n        /* \"#utility.yul\":4854:4877   */\n      swap1\n      pop\n        /* \"#utility.yul\":4576:4884   */\n      swap2\n      swap1\n      pop\n      jump\t// out\n        /* \"#utility.yul\":4890:5044   */\n    tag_365:\n        /* \"#utility.yul\":4974:4980   */\n      dup3\n        /* \"#utility.yul\":4969:4972   */\n      dup2\n        /* \"#utility.yul\":4964:4967   */\n      dup4\n        /* \"#utility.yul\":4951:4981   */\n      calldatacopy\n        /* \"#utility.yul\":5036:5037   */\n      0x00\n        /* \"#utility.yul\":5027:5033   */\n      dup4\n        /* \"#utility.yul\":5022:5025   */\n      dup4\n        /* \"#utility.yul\":5018:5034   */\n      add\n        /* \"#utility.yul\":5011:5038   */\n      mstore\n        /* \"#utility.yul\":4890:5044   */\n      pop\n      pop\n      pop\n      jump\t// out\n        /* \"#utility.yul\":5050:5462   */\n    tag_366:\n        /* \"#utility.yul\":5128:5133   */\n      0x00\n        /* \"#utility.yul\":5153:5219   */\n      tag_469\n        /* \"#utility.yul\":5169:5218   */\n      tag_470\n        /* \"#utility.yul\":5211:5217   */\n      dup5\n        /* \"#utility.yul\":5169:5218   */\n      tag_364\n      jump\t// in\n    tag_470:\n        /* \"#utility.yul\":5153:5219   */\n      tag_354\n      jump\t// in\n    tag_469:\n        /* \"#utility.yul\":5144:5219   */\n      swap1\n      pop\n        /* \"#utility.yul\":5242:5248   */\n      dup3\n        /* \"#utility.yul\":5235:5240   */\n      dup2\n        /* \"#utility.yul\":5228:5249   */\n      mstore\n        /* \"#utility.yul\":5280:5284   */\n      0x20\n        /* \"#utility.yul\":5273:5278   */\n      dup2\n        /* \"#utility.yul\":5269:5285   */\n      add\n        /* \"#utility.yul\":5318:5321   */\n      dup5\n        /* \"#utility.yul\":5309:5315   */\n      dup5\n        /* \"#utility.yul\":5304:5307   */\n      dup5\n        /* \"#utility.yul\":5300:5316   */\n      add\n        /* \"#utility.yul\":5297:5322   */\n      gt\n        /* \"#utility.yul\":5294:5406   */\n      iszero\n      tag_471\n      jumpi\n        /* \"#utility.yul\":5325:5404   */\n      tag_472\n      tag_363\n      jump\t// in\n    tag_472:\n        /* \"#utility.yul\":5294:5406   */\n    tag_471:\n        /* \"#utility.yul\":5415:5456   */\n      tag_473\n        /* \"#utility.yul\":5449:5455   */\n      dup5\n        /* \"#utility.yul\":5444:5447   */\n      dup3\n        /* \"#utility.yul\":5439:5442   */\n      dup6\n        /* \"#utility.yul\":5415:5456   */\n      tag_365\n      jump\t// in\n    tag_473:\n        /* \"#utility.yul\":5134:5462   */\n      pop\n        /* \"#utility.yul\":5050:5462   */\n      swap4\n      swap3\n      pop\n      pop\n      pop\n      jump\t// out\n        /* \"#utility.yul\":5482:5822   */\n    tag_367:\n        /* \"#utility.yul\":5538:5543   */\n      0x00\n        /* \"#utility.yul\":5587:5590   */\n      dup3\n        /* \"#utility.yul\":5580:5584   */\n      0x1f\n        /* \"#utility.yul\":5572:5578   */\n      dup4\n        /* \"#utility.yul\":5568:5585   */\n      add\n        /* \"#utility.yul\":5564:5591   */\n      slt\n        /* \"#utility.yul\":5554:5676   */\n      tag_475\n      jumpi\n        /* \"#utility.yul\":5595:5674   */\n      tag_476\n      tag_351\n      jump\t// in\n    tag_476:\n        /* \"#utility.yul\":5554:5676   */\n    tag_475:\n        /* \"#utility.yul\":5712:5718   */\n      dup2\n        /* \"#utility.yul\":5699:5719   */\n      calldataload\n        /* \"#utility.yul\":5737:5816   */\n      tag_477\n        /* \"#utility.yul\":5812:5815   */\n      dup5\n        /* \"#utility.yul\":5804:5810   */\n      dup3\n        /* \"#utility.yul\":5797:5801   */\n      0x20\n        /* \"#utility.yul\":5789:5795   */\n      dup7\n        /* \"#utility.yul\":5785:5802   */\n      add\n        /* \"#utility.yul\":5737:5816   */\n      tag_366\n      jump\t// in\n    tag_477:\n        /* \"#utility.yul\":5728:5816   */\n      swap2\n      pop\n        /* \"#utility.yul\":5544:5822   */\n      pop\n        /* \"#utility.yul\":5482:5822   */\n      swap3\n      swap2\n      pop\n      pop\n      jump\t// out\n        /* \"#utility.yul\":5828:5954   */\n    tag_368:\n        /* \"#utility.yul\":5865:5872   */\n      0x00\n        /* \"#utility.yul\":5905:5947   */\n      0xffffffffffffffffffffffffffffffffffffffff\n        /* \"#utility.yul\":5898:5903   */\n      dup3\n        /* \"#utility.yul\":5894:5948   */\n      and\n        /* \"#utility.yul\":5883:5948   */\n      swap1\n      pop\n        /* \"#utility.yul\":5828:5954   */\n      swap2\n      swap1\n      pop\n      jump\t// out\n        /* \"#utility.yul\":5960:6056   */\n    tag_369:\n        /* \"#utility.yul\":5997:6004   */\n      0x00\n        /* \"#utility.yul\":6026:6050   */\n      tag_480\n        /* \"#utility.yul\":6044:6049   */\n      dup3\n        /* \"#utility.yul\":6026:6050   */\n      tag_368\n      jump\t// in\n    tag_480:\n        /* \"#utility.yul\":6015:6050   */\n      swap1\n      pop\n        /* \"#utility.yul\":5960:6056   */\n      swap2\n      swap1\n      pop\n      jump\t// out\n        /* \"#utility.yul\":6062:6184   */\n    tag_370:\n        /* \"#utility.yul\":6135:6159   */\n      tag_482\n        /* \"#utility.yul\":6153:6158   */\n      dup2\n        /* \"#utility.yul\":6135:6159   */\n      tag_369\n      jump\t// in\n    tag_482:\n        /* \"#utility.yul\":6128:6133   */\n      dup2\n        /* \"#utility.yul\":6125:6160   */\n      eq\n        /* \"#utility.yul\":6115:6178   */\n      tag_483\n      jumpi\n        /* \"#utility.yul\":6174:6175   */\n      0x00\n        /* \"#utility.yul\":6171:6172   */\n      dup1\n        /* \"#utility.yul\":6164:6176   */\n      revert\n        /* \"#utility.yul\":6115:6178   */\n    tag_483:\n        /* \"#utility.yul\":6062:6184   */\n      pop\n      jump\t// out\n        /* \"#utility.yul\":6190:6329   */\n    tag_371:\n        /* \"#utility.yul\":6236:6241   */\n      0x00\n        /* \"#utility.yul\":6274:6280   */\n      dup2\n        /* \"#utility.yul\":6261:6281   */\n      calldataload\n        /* \"#utility.yul\":6252:6281   */\n      swap1\n      pop\n        /* \"#utility.yul\":6290:6323   */\n      tag_485\n        /* \"#utility.yul\":6317:6322   */\n      dup2\n        /* \"#utility.yul\":6290:6323   */\n      tag_370\n      jump\t// in\n    tag_485:\n        /* \"#utility.yul\":6190:6329   */\n      swap3\n      swap2\n      pop\n      pop\n      jump\t// out\n        /* \"#utility.yul\":6335:6989   */\n    tag_19:\n        /* \"#utility.yul\":6413:6419   */\n      0x00\n        /* \"#utility.yul\":6421:6427   */\n      dup1\n        /* \"#utility.yul\":6470:6472   */\n      0x40\n        /* \"#utility.yul\":6458:6467   */\n      dup4\n        /* \"#utility.yul\":6449:6456   */\n      dup6\n        /* \"#utility.yul\":6445:6468   */\n      sub\n        /* \"#utility.yul\":6441:6473   */\n      slt\n        /* \"#utility.yul\":6438:6557   */\n      iszero\n      tag_487\n      jumpi\n        /* \"#utility.yul\":6476:6555   */\n      tag_488\n      tag_346\n      jump\t// in\n    tag_488:\n        /* \"#utility.yul\":6438:6557   */\n    tag_487:\n        /* \"#utility.yul\":6624:6625   */\n      0x00\n        /* \"#utility.yul\":6613:6622   */\n      dup4\n        /* \"#utility.yul\":6609:6626   */\n      add\n        /* \"#utility.yul\":6596:6627   */\n      calldataload\n        /* \"#utility.yul\":6654:6672   */\n      0xffffffffffffffff\n        /* \"#utility.yul\":6646:6652   */\n      dup2\n        /* \"#utility.yul\":6643:6673   */\n      gt\n        /* \"#utility.yul\":6640:6757   */\n      iszero\n      tag_489\n      jumpi\n        /* \"#utility.yul\":6676:6755   */\n      tag_490\n      tag_347\n      jump\t// in\n    tag_490:\n        /* \"#utility.yul\":6640:6757   */\n    tag_489:\n        /* \"#utility.yul\":6781:6844   */\n      tag_491\n        /* \"#utility.yul\":6836:6843   */\n      dup6\n        /* \"#utility.yul\":6827:6833   */\n      dup3\n        /* \"#utility.yul\":6816:6825   */\n      dup7\n        /* \"#utility.yul\":6812:6834   */\n      add\n        /* \"#utility.yul\":6781:6844   */\n      tag_367\n      jump\t// in\n    tag_491:\n        /* \"#utility.yul\":6771:6844   */\n      swap3\n      pop\n        /* \"#utility.yul\":6567:6854   */\n      pop\n        /* \"#utility.yul\":6893:6895   */\n      0x20\n        /* \"#utility.yul\":6919:6972   */\n      tag_492\n        /* \"#utility.yul\":6964:6971   */\n      dup6\n        /* \"#utility.yul\":6955:6961   */\n      dup3\n        /* \"#utility.yul\":6944:6953   */\n      dup7\n        /* \"#utility.yul\":6940:6962   */\n      add\n        /* \"#utility.yul\":6919:6972   */\n      tag_371\n      jump\t// in\n    tag_492:\n        /* \"#utility.yul\":6909:6972   */\n      swap2\n      pop\n        /* \"#utility.yul\":6864:6982   */\n      pop\n        /* \"#utility.yul\":6335:6989   */\n      swap3\n      pop\n      swap3\n      swap1\n      pop\n      jump\t// out\n        /* \"#utility.yul\":6995:7113   */\n    tag_372:\n        /* \"#utility.yul\":7082:7106   */\n      tag_494\n        /* \"#utility.yul\":7100:7105   */\n      dup2\n        /* \"#utility.yul\":7082:7106   */\n      tag_369\n      jump\t// in\n    tag_494:\n        /* \"#utility.yul\":7077:7080   */\n      dup3\n        /* \"#utility.yul\":7070:7107   */\n      mstore\n        /* \"#utility.yul\":6995:7113   */\n      pop\n      pop\n      jump\t// out\n        /* \"#utility.yul\":7119:7341   */\n    tag_25:\n        /* \"#utility.yul\":7212:7216   */\n      0x00\n        /* \"#utility.yul\":7250:7252   */\n      0x20\n        /* \"#utility.yul\":7239:7248   */\n      dup3\n        /* \"#utility.yul\":7235:7253   */\n      add\n        /* \"#utility.yul\":7227:7253   */\n      swap1\n      pop\n        /* \"#utility.yul\":7263:7334   */\n      tag_496\n        /* \"#utility.yul\":7331:7332   */\n      0x00\n        /* \"#utility.yul\":7320:7329   */\n      dup4\n        /* \"#utility.yul\":7316:7333   */\n      add\n        /* \"#utility.yul\":7307:7313   */\n      dup5\n        /* \"#utility.yul\":7263:7334   */\n      tag_372\n      jump\t// in\n    tag_496:\n        /* \"#utility.yul\":7119:7341   */\n      swap3\n      swap2\n      pop\n      pop\n      jump\t// out\n        /* \"#utility.yul\":7347:7433   */\n    tag_373:\n        /* \"#utility.yul\":7382:7389   */\n      0x00\n        /* \"#utility.yul\":7422:7426   */\n      0xff\n        /* \"#utility.yul\":7415:7420   */\n      dup3\n        /* \"#utility.yul\":7411:7427   */\n      and\n        /* \"#utility.yul\":7400:7427   */\n      swap1\n      pop\n        /* \"#utility.yul\":7347:7433   */\n      swap2\n      swap1\n      pop\n      jump\t// out\n        /* \"#utility.yul\":7439:7557   */\n    tag_374:\n        /* \"#utility.yul\":7510:7532   */\n      tag_499\n        /* \"#utility.yul\":7526:7531   */\n      dup2\n        /* \"#utility.yul\":7510:7532   */\n      tag_373\n      jump\t// in\n    tag_499:\n        /* \"#utility.yul\":7503:7508   */\n      dup2\n        /* \"#utility.yul\":7500:7533   */\n      eq\n        /* \"#utility.yul\":7490:7551   */\n      tag_500\n      jumpi\n        /* \"#utility.yul\":7547:7548   */\n      0x00\n        /* \"#utility.yul\":7544:7545   */\n      dup1\n        /* \"#utility.yul\":7537:7549   */\n      revert\n        /* \"#utility.yul\":7490:7551   */\n    tag_500:\n        /* \"#utility.yul\":7439:7557   */\n      pop\n      jump\t// out\n        /* \"#utility.yul\":7563:7698   */\n    tag_375:\n        /* \"#utility.yul\":7607:7612   */\n      0x00\n        /* \"#utility.yul\":7645:7651   */\n      dup2\n        /* \"#utility.yul\":7632:7652   */\n      calldataload\n        /* \"#utility.yul\":7623:7652   */\n      swap1\n      pop\n        /* \"#utility.yul\":7661:7692   */\n      tag_502\n        /* \"#utility.yul\":7686:7691   */\n      dup2\n        /* \"#utility.yul\":7661:7692   */\n      tag_374\n      jump\t// in\n    tag_502:\n        /* \"#utility.yul\":7563:7698   */\n      swap3\n      swap2\n      pop\n      pop\n      jump\t// out\n        /* \"#utility.yul\":7704:8315   */\n    tag_31:\n        /* \"#utility.yul\":7777:7783   */\n      0x00\n        /* \"#utility.yul\":7785:7791   */\n      dup1\n        /* \"#utility.yul\":7793:7799   */\n      0x00\n        /* \"#utility.yul\":7842:7844   */\n      0x60\n        /* \"#utility.yul\":7830:7839   */\n      dup5\n        /* \"#utility.yul\":7821:7828   */\n      dup7\n        /* \"#utility.yul\":7817:7840   */\n      sub\n        /* \"#utility.yul\":7813:7845   */\n      slt\n        /* \"#utility.yul\":7810:7929   */\n      iszero\n      tag_504\n      jumpi\n        /* \"#utility.yul\":7848:7927   */\n      tag_505\n      tag_346\n      jump\t// in\n    tag_505:\n        /* \"#utility.yul\":7810:7929   */\n    tag_504:\n        /* \"#utility.yul\":7968:7969   */\n      0x00\n        /* \"#utility.yul\":7993:8044   */\n      tag_506\n        /* \"#utility.yul\":8036:8043   */\n      dup7\n        /* \"#utility.yul\":8027:8033   */\n      dup3\n        /* \"#utility.yul\":8016:8025   */\n      dup8\n        /* \"#utility.yul\":8012:8034   */\n      add\n        /* \"#utility.yul\":7993:8044   */\n      tag_375\n      jump\t// in\n    tag_506:\n        /* \"#utility.yul\":7983:8044   */\n      swap4\n      pop\n        /* \"#utility.yul\":7939:8054   */\n      pop\n        /* \"#utility.yul\":8093:8095   */\n      0x20\n        /* \"#utility.yul\":8119:8171   */\n      tag_507\n        /* \"#utility.yul\":8163:8170   */\n      dup7\n        /* \"#utility.yul\":8154:8160   */\n      dup3\n        /* \"#utility.yul\":8143:8152   */\n      dup8\n        /* \"#utility.yul\":8139:8161   */\n      add\n        /* \"#utility.yul\":8119:8171   */\n      tag_350\n      jump\t// in\n    tag_507:\n        /* \"#utility.yul\":8109:8171   */\n      swap3\n      pop\n        /* \"#utility.yul\":8064:8181   */\n      pop\n        /* \"#utility.yul\":8220:8222   */\n      0x40\n        /* \"#utility.yul\":8246:8298   */\n      tag_508\n        /* \"#utility.yul\":8290:8297   */\n      dup7\n        /* \"#utility.yul\":8281:8287   */\n      dup3\n        /* \"#utility.yul\":8270:8279   */\n      dup8\n        /* \"#utility.yul\":8266:8288   */\n      add\n        /* \"#utility.yul\":8246:8298   */\n      tag_350\n      jump\t// in\n    tag_508:\n        /* \"#utility.yul\":8236:8298   */\n      swap2\n      pop\n        /* \"#utility.yul\":8191:8308   */\n      pop\n        /* \"#utility.yul\":7704:8315   */\n      swap3\n      pop\n      swap3\n      pop\n      swap3\n      jump\t// out\n        /* \"#utility.yul\":8321:8650   */\n    tag_39:\n        /* \"#utility.yul\":8380:8386   */\n      0x00\n        /* \"#utility.yul\":8429:8431   */\n      0x20\n        /* \"#utility.yul\":8417:8426   */\n      dup3\n        /* \"#utility.yul\":8408:8415   */\n      dup5\n        /* \"#utility.yul\":8404:8427   */\n      sub\n        /* \"#utility.yul\":8400:8432   */\n      slt\n        /* \"#utility.yul\":8397:8516   */\n      iszero\n      tag_510\n      jumpi\n        /* \"#utility.yul\":8435:8514   */\n      tag_511\n      tag_346\n      jump\t// in\n    tag_511:\n        /* \"#utility.yul\":8397:8516   */\n    tag_510:\n        /* \"#utility.yul\":8555:8556   */\n      0x00\n        /* \"#utility.yul\":8580:8633   */\n      tag_512\n        /* \"#utility.yul\":8625:8632   */\n      dup5\n        /* \"#utility.yul\":8616:8622   */\n      dup3\n        /* \"#utility.yul\":8605:8614   */\n      dup6\n        /* \"#utility.yul\":8601:8623   */\n      add\n        /* \"#utility.yul\":8580:8633   */\n      tag_371\n      jump\t// in\n    tag_512:\n        /* \"#utility.yul\":8570:8633   */\n      swap2\n      pop\n        /* \"#utility.yul\":8526:8643   */\n      pop\n        /* \"#utility.yul\":8321:8650   */\n      swap3\n      swap2\n      pop\n      pop\n      jump\t// out\n        /* \"#utility.yul\":8656:8755   */\n    tag_376:\n        /* \"#utility.yul\":8708:8714   */\n      0x00\n        /* \"#utility.yul\":8742:8747   */\n      dup2\n        /* \"#utility.yul\":8736:8748   */\n      mload\n        /* \"#utility.yul\":8726:8748   */\n      swap1\n      pop\n        /* \"#utility.yul\":8656:8755   */\n      swap2\n      swap1\n      pop\n      jump\t// out\n        /* \"#utility.yul\":8761:8920   */\n    tag_377:\n        /* \"#utility.yul\":8835:8846   */\n      0x00\n        /* \"#utility.yul\":8869:8875   */\n      dup3\n        /* \"#utility.yul\":8864:8867   */\n      dup3\n        /* \"#utility.yul\":8857:8876   */\n      mstore\n        /* \"#utility.yul\":8909:8913   */\n      0x20\n        /* \"#utility.yul\":8904:8907   */\n      dup3\n        /* \"#utility.yul\":8900:8914   */\n      add\n        /* \"#utility.yul\":8885:8914   */\n      swap1\n      pop\n        /* \"#utility.yul\":8761:8920   */\n      swap3\n      swap2\n      pop\n      pop\n      jump\t// out\n        /* \"#utility.yul\":8926:9233   */\n    tag_378:\n        /* \"#utility.yul\":8994:8995   */\n      0x00\n        /* \"#utility.yul\":9004:9117   */\n    tag_516:\n        /* \"#utility.yul\":9018:9024   */\n      dup4\n        /* \"#utility.yul\":9015:9016   */\n      dup2\n        /* \"#utility.yul\":9012:9025   */\n      lt\n        /* \"#utility.yul\":9004:9117   */\n      iszero\n      tag_518\n      jumpi\n        /* \"#utility.yul\":9103:9104   */\n      dup1\n        /* \"#utility.yul\":9098:9101   */\n      dup3\n        /* \"#utility.yul\":9094:9105   */\n      add\n        /* \"#utility.yul\":9088:9106   */\n      mload\n        /* \"#utility.yul\":9084:9085   */\n      dup2\n        /* \"#utility.yul\":9079:9082   */\n      dup5\n        /* \"#utility.yul\":9075:9086   */\n      add\n        /* \"#utility.yul\":9068:9107   */\n      mstore\n        /* \"#utility.yul\":9040:9042   */\n      0x20\n        /* \"#utility.yul\":9037:9038   */\n      dup2\n        /* \"#utility.yul\":9033:9043   */\n      add\n        /* \"#utility.yul\":9028:9043   */\n      swap1\n      pop\n        /* \"#utility.yul\":9004:9117   */\n      jump(tag_516)\n    tag_518:\n        /* \"#utility.yul\":9135:9141   */\n      dup4\n        /* \"#utility.yul\":9132:9133   */\n      dup2\n        /* \"#utility.yul\":9129:9142   */\n      gt\n        /* \"#utility.yul\":9126:9227   */\n      iszero\n      tag_519\n      jumpi\n        /* \"#utility.yul\":9215:9216   */\n      0x00\n        /* \"#utility.yul\":9206:9212   */\n      dup5\n        /* \"#utility.yul\":9201:9204   */\n      dup5\n        /* \"#utility.yul\":9197:9213   */\n      add\n        /* \"#utility.yul\":9190:9217   */\n      mstore\n        /* \"#utility.yul\":9126:9227   */\n    tag_519:\n        /* \"#utility.yul\":8975:9233   */\n      pop\n        /* \"#utility.yul\":8926:9233   */\n      pop\n      pop\n      pop\n      jump\t// out\n        /* \"#utility.yul\":9239:9583   */\n    tag_379:\n        /* \"#utility.yul\":9317:9320   */\n      0x00\n        /* \"#utility.yul\":9345:9384   */\n      tag_521\n        /* \"#utility.yul\":9378:9383   */\n      dup3\n        /* \"#utility.yul\":9345:9384   */\n      tag_376\n      jump\t// in\n    tag_521:\n        /* \"#utility.yul\":9400:9461   */\n      tag_522\n        /* \"#utility.yul\":9454:9460   */\n      dup2\n        /* \"#utility.yul\":9449:9452   */\n      dup6\n        /* \"#utility.yul\":9400:9461   */\n      tag_377\n      jump\t// in\n    tag_522:\n        /* \"#utility.yul\":9393:9461   */\n      swap4\n      pop\n        /* \"#utility.yul\":9470:9522   */\n      tag_523\n        /* \"#utility.yul\":9515:9521   */\n      dup2\n        /* \"#utility.yul\":9510:9513   */\n      dup6\n        /* \"#utility.yul\":9503:9507   */\n      0x20\n        /* \"#utility.yul\":9496:9501   */\n      dup7\n        /* \"#utility.yul\":9492:9508   */\n      add\n        /* \"#utility.yul\":9470:9522   */\n      tag_378\n      jump\t// in\n    tag_523:\n        /* \"#utility.yul\":9547:9576   */\n      tag_524\n        /* \"#utility.yul\":9569:9575   */\n      dup2\n        /* \"#utility.yul\":9547:9576   */\n      tag_352\n      jump\t// in\n    tag_524:\n        /* \"#utility.yul\":9542:9545   */\n      dup5\n        /* \"#utility.yul\":9538:9577   */\n      add\n        /* \"#utility.yul\":9531:9577   */\n      swap2\n      pop\n        /* \"#utility.yul\":9321:9583   */\n      pop\n        /* \"#utility.yul\":9239:9583   */\n      swap3\n      swap2\n      pop\n      pop\n      jump\t// out\n        /* \"#utility.yul\":9589:9697   */\n    tag_380:\n        /* \"#utility.yul\":9666:9690   */\n      tag_526\n        /* \"#utility.yul\":9684:9689   */\n      dup2\n        /* \"#utility.yul\":9666:9690   */\n      tag_369\n      jump\t// in\n    tag_526:\n        /* \"#utility.yul\":9661:9664   */\n      dup3\n        /* \"#utility.yul\":9654:9691   */\n      mstore\n        /* \"#utility.yul\":9589:9697   */\n      pop\n      pop\n      jump\t// out\n        /* \"#utility.yul\":9703:9802   */\n    tag_381:\n        /* \"#utility.yul\":9774:9795   */\n      tag_528\n        /* \"#utility.yul\":9789:9794   */\n      dup2\n        /* \"#utility.yul\":9774:9795   */\n      tag_357\n      jump\t// in\n    tag_528:\n        /* \"#utility.yul\":9769:9772   */\n      dup3\n        /* \"#utility.yul\":9762:9796   */\n      mstore\n        /* \"#utility.yul\":9703:9802   */\n      pop\n      pop\n      jump\t// out\n        /* \"#utility.yul\":9852:10628   */\n    tag_382:\n        /* \"#utility.yul\":9963:9966   */\n      0x00\n        /* \"#utility.yul\":9999:10003   */\n      0x60\n        /* \"#utility.yul\":9994:9997   */\n      dup4\n        /* \"#utility.yul\":9990:10004   */\n      add\n        /* \"#utility.yul\":10086:10090   */\n      0x00\n        /* \"#utility.yul\":10079:10084   */\n      dup4\n        /* \"#utility.yul\":10075:10091   */\n      add\n        /* \"#utility.yul\":10069:10092   */\n      mload\n        /* \"#utility.yul\":10139:10142   */\n      dup5\n        /* \"#utility.yul\":10133:10137   */\n      dup3\n        /* \"#utility.yul\":10129:10143   */\n      sub\n        /* \"#utility.yul\":10122:10126   */\n      0x00\n        /* \"#utility.yul\":10117:10120   */\n      dup7\n        /* \"#utility.yul\":10113:10127   */\n      add\n        /* \"#utility.yul\":10106:10144   */\n      mstore\n        /* \"#utility.yul\":10165:10238   */\n      tag_530\n        /* \"#utility.yul\":10233:10237   */\n      dup3\n        /* \"#utility.yul\":10219:10231   */\n      dup3\n        /* \"#utility.yul\":10165:10238   */\n      tag_379\n      jump\t// in\n    tag_530:\n        /* \"#utility.yul\":10157:10238   */\n      swap2\n      pop\n        /* \"#utility.yul\":10014:10249   */\n      pop\n        /* \"#utility.yul\":10340:10344   */\n      0x20\n        /* \"#utility.yul\":10333:10338   */\n      dup4\n        /* \"#utility.yul\":10329:10345   */\n      add\n        /* \"#utility.yul\":10323:10346   */\n      mload\n        /* \"#utility.yul\":10359:10422   */\n      tag_531\n        /* \"#utility.yul\":10416:10420   */\n      0x20\n        /* \"#utility.yul\":10411:10414   */\n      dup7\n        /* \"#utility.yul\":10407:10421   */\n      add\n        /* \"#utility.yul\":10393:10405   */\n      dup3\n        /* \"#utility.yul\":10359:10422   */\n      tag_380\n      jump\t// in\n    tag_531:\n        /* \"#utility.yul\":10259:10432   */\n      pop\n        /* \"#utility.yul\":10515:10519   */\n      0x40\n        /* \"#utility.yul\":10508:10513   */\n      dup4\n        /* \"#utility.yul\":10504:10520   */\n      add\n        /* \"#utility.yul\":10498:10521   */\n      mload\n        /* \"#utility.yul\":10534:10591   */\n      tag_532\n        /* \"#utility.yul\":10585:10589   */\n      0x40\n        /* \"#utility.yul\":10580:10583   */\n      dup7\n        /* \"#utility.yul\":10576:10590   */\n      add\n        /* \"#utility.yul\":10562:10574   */\n      dup3\n        /* \"#utility.yul\":10534:10591   */\n      tag_381\n      jump\t// in\n    tag_532:\n        /* \"#utility.yul\":10442:10601   */\n      pop\n        /* \"#utility.yul\":10618:10622   */\n      dup1\n        /* \"#utility.yul\":10611:10622   */\n      swap2\n      pop\n        /* \"#utility.yul\":9968:10628   */\n      pop\n        /* \"#utility.yul\":9852:10628   */\n      swap3\n      swap2\n      pop\n      pop\n      jump\t// out\n        /* \"#utility.yul\":10634:10991   */\n    tag_42:\n        /* \"#utility.yul\":10769:10773   */\n      0x00\n        /* \"#utility.yul\":10807:10809   */\n      0x20\n        /* \"#utility.yul\":10796:10805   */\n      dup3\n        /* \"#utility.yul\":10792:10810   */\n      add\n        /* \"#utility.yul\":10784:10810   */\n      swap1\n      pop\n        /* \"#utility.yul\":10856:10865   */\n      dup2\n        /* \"#utility.yul\":10850:10854   */\n      dup2\n        /* \"#utility.yul\":10846:10866   */\n      sub\n        /* \"#utility.yul\":10842:10843   */\n      0x00\n        /* \"#utility.yul\":10831:10840   */\n      dup4\n        /* \"#utility.yul\":10827:10844   */\n      add\n        /* \"#utility.yul\":10820:10867   */\n      mstore\n        /* \"#utility.yul\":10884:10984   */\n      tag_534\n        /* \"#utility.yul\":10979:10983   */\n      dup2\n        /* \"#utility.yul\":10970:10976   */\n      dup5\n        /* \"#utility.yul\":10884:10984   */\n      tag_382\n      jump\t// in\n    tag_534:\n        /* \"#utility.yul\":10876:10984   */\n      swap1\n      pop\n        /* \"#utility.yul\":10634:10991   */\n      swap3\n      swap2\n      pop\n      pop\n      jump\t// out\n        /* \"#utility.yul\":10997:11166   */\n    tag_383:\n        /* \"#utility.yul\":11081:11092   */\n      0x00\n        /* \"#utility.yul\":11115:11121   */\n      dup3\n        /* \"#utility.yul\":11110:11113   */\n      dup3\n        /* \"#utility.yul\":11103:11122   */\n      mstore\n        /* \"#utility.yul\":11155:11159   */\n      0x20\n        /* \"#utility.yul\":11150:11153   */\n      dup3\n        /* \"#utility.yul\":11146:11160   */\n      add\n        /* \"#utility.yul\":11131:11160   */\n      swap1\n      pop\n        /* \"#utility.yul\":10997:11166   */\n      swap3\n      swap2\n      pop\n      pop\n      jump\t// out\n        /* \"#utility.yul\":11172:11406   */\n    tag_384:\n        /* \"#utility.yul\":11312:11346   */\n      0x4f6e6c7920746865206170706c69636174696f6e2063616e2065786563757465\n        /* \"#utility.yul\":11308:11309   */\n      0x00\n        /* \"#utility.yul\":11300:11306   */\n      dup3\n        /* \"#utility.yul\":11296:11310   */\n      add\n        /* \"#utility.yul\":11289:11347   */\n      mstore\n        /* \"#utility.yul\":11381:11398   */\n      0x2074686973206f7065726174696f6e0000000000000000000000000000000000\n        /* \"#utility.yul\":11376:11378   */\n      0x20\n        /* \"#utility.yul\":11368:11374   */\n      dup3\n        /* \"#utility.yul\":11364:11379   */\n      add\n        /* \"#utility.yul\":11357:11399   */\n      mstore\n        /* \"#utility.yul\":11172:11406   */\n      pop\n      jump\t// out\n        /* \"#utility.yul\":11412:11778   */\n    tag_385:\n        /* \"#utility.yul\":11554:11557   */\n      0x00\n        /* \"#utility.yul\":11575:11642   */\n      tag_538\n        /* \"#utility.yul\":11639:11641   */\n      0x2f\n        /* \"#utility.yul\":11634:11637   */\n      dup4\n        /* \"#utility.yul\":11575:11642   */\n      tag_383\n      jump\t// in\n    tag_538:\n        /* \"#utility.yul\":11568:11642   */\n      swap2\n      pop\n        /* \"#utility.yul\":11651:11744   */\n      tag_539\n        /* \"#utility.yul\":11740:11743   */\n      dup3\n        /* \"#utility.yul\":11651:11744   */\n      tag_384\n      jump\t// in\n    tag_539:\n        /* \"#utility.yul\":11769:11771   */\n      0x40\n        /* \"#utility.yul\":11764:11767   */\n      dup3\n        /* \"#utility.yul\":11760:11772   */\n      add\n        /* \"#utility.yul\":11753:11772   */\n      swap1\n      pop\n        /* \"#utility.yul\":11412:11778   */\n      swap2\n      swap1\n      pop\n      jump\t// out\n        /* \"#utility.yul\":11784:12203   */\n    tag_52:\n        /* \"#utility.yul\":11950:11954   */\n      0x00\n        /* \"#utility.yul\":11988:11990   */\n      0x20\n        /* \"#utility.yul\":11977:11986   */\n      dup3\n        /* \"#utility.yul\":11973:11991   */\n      add\n        /* \"#utility.yul\":11965:11991   */\n      swap1\n      pop\n        /* \"#utility.yul\":12037:12046   */\n      dup2\n        /* \"#utility.yul\":12031:12035   */\n      dup2\n        /* \"#utility.yul\":12027:12047   */\n      sub\n        /* \"#utility.yul\":12023:12024   */\n      0x00\n        /* \"#utility.yul\":12012:12021   */\n      dup4\n        /* \"#utility.yul\":12008:12025   */\n      add\n        /* \"#utility.yul\":12001:12048   */\n      mstore\n        /* \"#utility.yul\":12065:12196   */\n      tag_541\n        /* \"#utility.yul\":12191:12195   */\n      dup2\n        /* \"#utility.yul\":12065:12196   */\n      tag_385\n      jump\t// in\n    tag_541:\n        /* \"#utility.yul\":12057:12196   */\n      swap1\n      pop\n        /* \"#utility.yul\":11784:12203   */\n      swap2\n      swap1\n      pop\n      jump\t// out\n        /* \"#utility.yul\":12209:12389   */\n    tag_57:\n        /* \"#utility.yul\":12257:12334   */\n      0x4e487b7100000000000000000000000000000000000000000000000000000000\n        /* \"#utility.yul\":12254:12255   */\n      0x00\n        /* \"#utility.yul\":12247:12335   */\n      mstore\n        /* \"#utility.yul\":12354:12358   */\n      0x32\n        /* \"#utility.yul\":12351:12352   */\n      0x04\n        /* \"#utility.yul\":12344:12359   */\n      mstore\n        /* \"#utility.yul\":12378:12382   */\n      0x24\n        /* \"#utility.yul\":12375:12376   */\n      0x00\n        /* \"#utility.yul\":12368:12383   */\n      revert\n        /* \"#utility.yul\":12395:12566   */\n    tag_386:\n        /* \"#utility.yul\":12535:12558   */\n      0x5375636365737366756c20657865637574696f6e210000000000000000000000\n        /* \"#utility.yul\":12531:12532   */\n      0x00\n        /* \"#utility.yul\":12523:12529   */\n      dup3\n        /* \"#utility.yul\":12519:12533   */\n      add\n        /* \"#utility.yul\":12512:12559   */\n      mstore\n        /* \"#utility.yul\":12395:12566   */\n      pop\n      jump\t// out\n        /* \"#utility.yul\":12572:12938   */\n    tag_387:\n        /* \"#utility.yul\":12714:12717   */\n      0x00\n        /* \"#utility.yul\":12735:12802   */\n      tag_545\n        /* \"#utility.yul\":12799:12801   */\n      0x15\n        /* \"#utility.yul\":12794:12797   */\n      dup4\n        /* \"#utility.yul\":12735:12802   */\n      tag_383\n      jump\t// in\n    tag_545:\n        /* \"#utility.yul\":12728:12802   */\n      swap2\n      pop\n        /* \"#utility.yul\":12811:12904   */\n      tag_546\n        /* \"#utility.yul\":12900:12903   */\n      dup3\n        /* \"#utility.yul\":12811:12904   */\n      tag_386\n      jump\t// in\n    tag_546:\n        /* \"#utility.yul\":12929:12931   */\n      0x20\n        /* \"#utility.yul\":12924:12927   */\n      dup3\n        /* \"#utility.yul\":12920:12932   */\n      add\n        /* \"#utility.yul\":12913:12932   */\n      swap1\n      pop\n        /* \"#utility.yul\":12572:12938   */\n      swap2\n      swap1\n      pop\n      jump\t// out\n        /* \"#utility.yul\":12944:13363   */\n    tag_70:\n        /* \"#utility.yul\":13110:13114   */\n      0x00\n        /* \"#utility.yul\":13148:13150   */\n      0x20\n        /* \"#utility.yul\":13137:13146   */\n      dup3\n        /* \"#utility.yul\":13133:13151   */\n      add\n        /* \"#utility.yul\":13125:13151   */\n      swap1\n      pop\n        /* \"#utility.yul\":13197:13206   */\n      dup2\n        /* \"#utility.yul\":13191:13195   */\n      dup2\n        /* \"#utility.yul\":13187:13207   */\n      sub\n        /* \"#utility.yul\":13183:13184   */\n      0x00\n        /* \"#utility.yul\":13172:13181   */\n      dup4\n        /* \"#utility.yul\":13168:13185   */\n      add\n        /* \"#utility.yul\":13161:13208   */\n      mstore\n        /* \"#utility.yul\":13225:13356   */\n      tag_548\n        /* \"#utility.yul\":13351:13355   */\n      dup2\n        /* \"#utility.yul\":13225:13356   */\n      tag_387\n      jump\t// in\n    tag_548:\n        /* \"#utility.yul\":13217:13356   */\n      swap1\n      pop\n        /* \"#utility.yul\":12944:13363   */\n      swap2\n      swap1\n      pop\n      jump\t// out\n        /* \"#utility.yul\":13369:13541   */\n    tag_388:\n        /* \"#utility.yul\":13509:13533   */\n      0x436f6e646974696f6e7320646f206e6f74206d65657400000000000000000000\n        /* \"#utility.yul\":13505:13506   */\n      0x00\n        /* \"#utility.yul\":13497:13503   */\n      dup3\n        /* \"#utility.yul\":13493:13507   */\n      add\n        /* \"#utility.yul\":13486:13534   */\n      mstore\n        /* \"#utility.yul\":13369:13541   */\n      pop\n      jump\t// out\n        /* \"#utility.yul\":13547:13913   */\n    tag_389:\n        /* \"#utility.yul\":13689:13692   */\n      0x00\n        /* \"#utility.yul\":13710:13777   */\n      tag_551\n        /* \"#utility.yul\":13774:13776   */\n      0x16\n        /* \"#utility.yul\":13769:13772   */\n      dup4\n        /* \"#utility.yul\":13710:13777   */\n      tag_383\n      jump\t// in\n    tag_551:\n        /* \"#utility.yul\":13703:13777   */\n      swap2\n      pop\n        /* \"#utility.yul\":13786:13879   */\n      tag_552\n        /* \"#utility.yul\":13875:13878   */\n      dup3\n        /* \"#utility.yul\":13786:13879   */\n      tag_388\n      jump\t// in\n    tag_552:\n        /* \"#utility.yul\":13904:13906   */\n      0x20\n        /* \"#utility.yul\":13899:13902   */\n      dup3\n        /* \"#utility.yul\":13895:13907   */\n      add\n        /* \"#utility.yul\":13888:13907   */\n      swap1\n      pop\n        /* \"#utility.yul\":13547:13913   */\n      swap2\n      swap1\n      pop\n      jump\t// out\n        /* \"#utility.yul\":13919:14338   */\n    tag_73:\n        /* \"#utility.yul\":14085:14089   */\n      0x00\n        /* \"#utility.yul\":14123:14125   */\n      0x20\n        /* \"#utility.yul\":14112:14121   */\n      dup3\n        /* \"#utility.yul\":14108:14126   */\n      add\n        /* \"#utility.yul\":14100:14126   */\n      swap1\n      pop\n        /* \"#utility.yul\":14172:14181   */\n      dup2\n        /* \"#utility.yul\":14166:14170   */\n      dup2\n        /* \"#utility.yul\":14162:14182   */\n      sub\n        /* \"#utility.yul\":14158:14159   */\n      0x00\n        /* \"#utility.yul\":14147:14156   */\n      dup4\n        /* \"#utility.yul\":14143:14160   */\n      add\n        /* \"#utility.yul\":14136:14183   */\n      mstore\n        /* \"#utility.yul\":14200:14331   */\n      tag_554\n        /* \"#utility.yul\":14326:14330   */\n      dup2\n        /* \"#utility.yul\":14200:14331   */\n      tag_389\n      jump\t// in\n    tag_554:\n        /* \"#utility.yul\":14192:14331   */\n      swap1\n      pop\n        /* \"#utility.yul\":13919:14338   */\n      swap2\n      swap1\n      pop\n      jump\t// out\n        /* \"#utility.yul\":14344:14574   */\n    tag_390:\n        /* \"#utility.yul\":14484:14518   */\n      0x4f6e6c79207468652070726f636573732063616e206578656375746520746869\n        /* \"#utility.yul\":14480:14481   */\n      0x00\n        /* \"#utility.yul\":14472:14478   */\n      dup3\n        /* \"#utility.yul\":14468:14482   */\n      add\n        /* \"#utility.yul\":14461:14519   */\n      mstore\n        /* \"#utility.yul\":14553:14566   */\n      0x73206f7065726174696f6e000000000000000000000000000000000000000000\n        /* \"#utility.yul\":14548:14550   */\n      0x20\n        /* \"#utility.yul\":14540:14546   */\n      dup3\n        /* \"#utility.yul\":14536:14551   */\n      add\n        /* \"#utility.yul\":14529:14567   */\n      mstore\n        /* \"#utility.yul\":14344:14574   */\n      pop\n      jump\t// out\n        /* \"#utility.yul\":14580:14946   */\n    tag_391:\n        /* \"#utility.yul\":14722:14725   */\n      0x00\n        /* \"#utility.yul\":14743:14810   */\n      tag_557\n        /* \"#utility.yul\":14807:14809   */\n      0x2b\n        /* \"#utility.yul\":14802:14805   */\n      dup4\n        /* \"#utility.yul\":14743:14810   */\n      tag_383\n      jump\t// in\n    tag_557:\n        /* \"#utility.yul\":14736:14810   */\n      swap2\n      pop\n        /* \"#utility.yul\":14819:14912   */\n      tag_558\n        /* \"#utility.yul\":14908:14911   */\n      dup3\n        /* \"#utility.yul\":14819:14912   */\n      tag_390\n      jump\t// in\n    tag_558:\n        /* \"#utility.yul\":14937:14939   */\n      0x40\n        /* \"#utility.yul\":14932:14935   */\n      dup3\n        /* \"#utility.yul\":14928:14940   */\n      add\n        /* \"#utility.yul\":14921:14940   */\n      swap1\n      pop\n        /* \"#utility.yul\":14580:14946   */\n      swap2\n      swap1\n      pop\n      jump\t// out\n        /* \"#utility.yul\":14952:15371   */\n    tag_77:\n        /* \"#utility.yul\":15118:15122   */\n      0x00\n        /* \"#utility.yul\":15156:15158   */\n      0x20\n        /* \"#utility.yul\":15145:15154   */\n      dup3\n        /* \"#utility.yul\":15141:15159   */\n      add\n        /* \"#utility.yul\":15133:15159   */\n      swap1\n      pop\n        /* \"#utility.yul\":15205:15214   */\n      dup2\n        /* \"#utility.yul\":15199:15203   */\n      dup2\n        /* \"#utility.yul\":15195:15215   */\n      sub\n        /* \"#utility.yul\":15191:15192   */\n      0x00\n        /* \"#utility.yul\":15180:15189   */\n      dup4\n        /* \"#utility.yul\":15176:15193   */\n      add\n        /* \"#utility.yul\":15169:15216   */\n      mstore\n        /* \"#utility.yul\":15233:15364   */\n      tag_560\n        /* \"#utility.yul\":15359:15363   */\n      dup2\n        /* \"#utility.yul\":15233:15364   */\n      tag_391\n      jump\t// in\n    tag_560:\n        /* \"#utility.yul\":15225:15364   */\n      swap1\n      pop\n        /* \"#utility.yul\":14952:15371   */\n      swap2\n      swap1\n      pop\n      jump\t// out\n        /* \"#utility.yul\":15377:15626   */\n    tag_392:\n        /* \"#utility.yul\":15517:15551   */\n      0x4f6e6c79207468652070726f63657373206f7220746865206170706c69636174\n        /* \"#utility.yul\":15513:15514   */\n      0x00\n        /* \"#utility.yul\":15505:15511   */\n      dup3\n        /* \"#utility.yul\":15501:15515   */\n      add\n        /* \"#utility.yul\":15494:15552   */\n      mstore\n        /* \"#utility.yul\":15586:15618   */\n      0x696f6e2063616e20657865637574652074686973206f7065726174696f6e0000\n        /* \"#utility.yul\":15581:15583   */\n      0x20\n        /* \"#utility.yul\":15573:15579   */\n      dup3\n        /* \"#utility.yul\":15569:15584   */\n      add\n        /* \"#utility.yul\":15562:15619   */\n      mstore\n        /* \"#utility.yul\":15377:15626   */\n      pop\n      jump\t// out\n        /* \"#utility.yul\":15632:15998   */\n    tag_393:\n        /* \"#utility.yul\":15774:15777   */\n      0x00\n        /* \"#utility.yul\":15795:15862   */\n      tag_563\n        /* \"#utility.yul\":15859:15861   */\n      0x3e\n        /* \"#utility.yul\":15854:15857   */\n      dup4\n        /* \"#utility.yul\":15795:15862   */\n      tag_383\n      jump\t// in\n    tag_563:\n        /* \"#utility.yul\":15788:15862   */\n      swap2\n      pop\n        /* \"#utility.yul\":15871:15964   */\n      tag_564\n        /* \"#utility.yul\":15960:15963   */\n      dup3\n        /* \"#utility.yul\":15871:15964   */\n      tag_392\n      jump\t// in\n    tag_564:\n        /* \"#utility.yul\":15989:15991   */\n      0x40\n        /* \"#utility.yul\":15984:15987   */\n      dup3\n        /* \"#utility.yul\":15980:15992   */\n      add\n        /* \"#utility.yul\":15973:15992   */\n      swap1\n      pop\n        /* \"#utility.yul\":15632:15998   */\n      swap2\n      swap1\n      pop\n      jump\t// out\n        /* \"#utility.yul\":16004:16423   */\n    tag_89:\n        /* \"#utility.yul\":16170:16174   */\n      0x00\n        /* \"#utility.yul\":16208:16210   */\n      0x20\n        /* \"#utility.yul\":16197:16206   */\n      dup3\n        /* \"#utility.yul\":16193:16211   */\n      add\n        /* \"#utility.yul\":16185:16211   */\n      swap1\n      pop\n        /* \"#utility.yul\":16257:16266   */\n      dup2\n        /* \"#utility.yul\":16251:16255   */\n      dup2\n        /* \"#utility.yul\":16247:16267   */\n      sub\n        /* \"#utility.yul\":16243:16244   */\n      0x00\n        /* \"#utility.yul\":16232:16241   */\n      dup4\n        /* \"#utility.yul\":16228:16245   */\n      add\n        /* \"#utility.yul\":16221:16268   */\n      mstore\n        /* \"#utility.yul\":16285:16416   */\n      tag_566\n        /* \"#utility.yul\":16411:16415   */\n      dup2\n        /* \"#utility.yul\":16285:16416   */\n      tag_393\n      jump\t// in\n    tag_566:\n        /* \"#utility.yul\":16277:16416   */\n      swap1\n      pop\n        /* \"#utility.yul\":16004:16423   */\n      swap2\n      swap1\n      pop\n      jump\t// out\n        /* \"#utility.yul\":16429:16609   */\n    tag_394:\n        /* \"#utility.yul\":16569:16601   */\n      0x54686520636f6e747261637420697320616c7265616479207369676e65640000\n        /* \"#utility.yul\":16565:16566   */\n      0x00\n        /* \"#utility.yul\":16557:16563   */\n      dup3\n        /* \"#utility.yul\":16553:16567   */\n      add\n        /* \"#utility.yul\":16546:16602   */\n      mstore\n        /* \"#utility.yul\":16429:16609   */\n      pop\n      jump\t// out\n        /* \"#utility.yul\":16615:16981   */\n    tag_395:\n        /* \"#utility.yul\":16757:16760   */\n      0x00\n        /* \"#utility.yul\":16778:16845   */\n      tag_569\n        /* \"#utility.yul\":16842:16844   */\n      0x1e\n        /* \"#utility.yul\":16837:16840   */\n      dup4\n        /* \"#utility.yul\":16778:16845   */\n      tag_383\n      jump\t// in\n    tag_569:\n        /* \"#utility.yul\":16771:16845   */\n      swap2\n      pop\n        /* \"#utility.yul\":16854:16947   */\n      tag_570\n        /* \"#utility.yul\":16943:16946   */\n      dup3\n        /* \"#utility.yul\":16854:16947   */\n      tag_394\n      jump\t// in\n    tag_570:\n        /* \"#utility.yul\":16972:16974   */\n      0x20\n        /* \"#utility.yul\":16967:16970   */\n      dup3\n        /* \"#utility.yul\":16963:16975   */\n      add\n        /* \"#utility.yul\":16956:16975   */\n      swap1\n      pop\n        /* \"#utility.yul\":16615:16981   */\n      swap2\n      swap1\n      pop\n      jump\t// out\n        /* \"#utility.yul\":16987:17406   */\n    tag_132:\n        /* \"#utility.yul\":17153:17157   */\n      0x00\n        /* \"#utility.yul\":17191:17193   */\n      0x20\n        /* \"#utility.yul\":17180:17189   */\n      dup3\n        /* \"#utility.yul\":17176:17194   */\n      add\n        /* \"#utility.yul\":17168:17194   */\n      swap1\n      pop\n        /* \"#utility.yul\":17240:17249   */\n      dup2\n        /* \"#utility.yul\":17234:17238   */\n      dup2\n        /* \"#utility.yul\":17230:17250   */\n      sub\n        /* \"#utility.yul\":17226:17227   */\n      0x00\n        /* \"#utility.yul\":17215:17224   */\n      dup4\n        /* \"#utility.yul\":17211:17228   */\n      add\n        /* \"#utility.yul\":17204:17251   */\n      mstore\n        /* \"#utility.yul\":17268:17399   */\n      tag_572\n        /* \"#utility.yul\":17394:17398   */\n      dup2\n        /* \"#utility.yul\":17268:17399   */\n      tag_395\n      jump\t// in\n    tag_572:\n        /* \"#utility.yul\":17260:17399   */\n      swap1\n      pop\n        /* \"#utility.yul\":16987:17406   */\n      swap2\n      swap1\n      pop\n      jump\t// out\n        /* \"#utility.yul\":17412:17592   */\n    tag_396:\n        /* \"#utility.yul\":17460:17537   */\n      0x4e487b7100000000000000000000000000000000000000000000000000000000\n        /* \"#utility.yul\":17457:17458   */\n      0x00\n        /* \"#utility.yul\":17450:17538   */\n      mstore\n        /* \"#utility.yul\":17557:17561   */\n      0x22\n        /* \"#utility.yul\":17554:17555   */\n      0x04\n        /* \"#utility.yul\":17547:17562   */\n      mstore\n        /* \"#utility.yul\":17581:17585   */\n      0x24\n        /* \"#utility.yul\":17578:17579   */\n      0x00\n        /* \"#utility.yul\":17571:17586   */\n      revert\n        /* \"#utility.yul\":17598:17918   */\n    tag_142:\n        /* \"#utility.yul\":17642:17648   */\n      0x00\n        /* \"#utility.yul\":17679:17680   */\n      0x02\n        /* \"#utility.yul\":17673:17677   */\n      dup3\n        /* \"#utility.yul\":17669:17681   */\n      div\n        /* \"#utility.yul\":17659:17681   */\n      swap1\n      pop\n        /* \"#utility.yul\":17726:17727   */\n      0x01\n        /* \"#utility.yul\":17720:17724   */\n      dup3\n        /* \"#utility.yul\":17716:17728   */\n      and\n        /* \"#utility.yul\":17747:17765   */\n      dup1\n        /* \"#utility.yul\":17737:17818   */\n      tag_575\n      jumpi\n        /* \"#utility.yul\":17803:17807   */\n      0x7f\n        /* \"#utility.yul\":17795:17801   */\n      dup3\n        /* \"#utility.yul\":17791:17808   */\n      and\n        /* \"#utility.yul\":17781:17808   */\n      swap2\n      pop\n        /* \"#utility.yul\":17737:17818   */\n    tag_575:\n        /* \"#utility.yul\":17865:17867   */\n      0x20\n        /* \"#utility.yul\":17857:17863   */\n      dup3\n        /* \"#utility.yul\":17854:17868   */\n      lt\n        /* \"#utility.yul\":17834:17852   */\n      dup2\n        /* \"#utility.yul\":17831:17869   */\n      sub\n        /* \"#utility.yul\":17828:17912   */\n      tag_576\n      jumpi\n        /* \"#utility.yul\":17884:17902   */\n      tag_577\n      tag_396\n      jump\t// in\n    tag_577:\n        /* \"#utility.yul\":17828:17912   */\n    tag_576:\n        /* \"#utility.yul\":17649:17918   */\n      pop\n        /* \"#utility.yul\":17598:17918   */\n      swap2\n      swap1\n      pop\n      jump\t// out\n        /* \"#utility.yul\":17924:18151   */\n    tag_397:\n        /* \"#utility.yul\":18064:18098   */\n      0x546865205f7374617274446179206e6f7420726570726573656e747320612076\n        /* \"#utility.yul\":18060:18061   */\n      0x00\n        /* \"#utility.yul\":18052:18058   */\n      dup3\n        /* \"#utility.yul\":18048:18062   */\n      add\n        /* \"#utility.yul\":18041:18099   */\n      mstore\n        /* \"#utility.yul\":18133:18143   */\n      0x616c696420646179000000000000000000000000000000000000000000000000\n        /* \"#utility.yul\":18128:18130   */\n      0x20\n        /* \"#utility.yul\":18120:18126   */\n      dup3\n        /* \"#utility.yul\":18116:18131   */\n      add\n        /* \"#utility.yul\":18109:18144   */\n      mstore\n        /* \"#utility.yul\":17924:18151   */\n      pop\n      jump\t// out\n        /* \"#utility.yul\":18157:18523   */\n    tag_398:\n        /* \"#utility.yul\":18299:18302   */\n      0x00\n        /* \"#utility.yul\":18320:18387   */\n      tag_580\n        /* \"#utility.yul\":18384:18386   */\n      0x28\n        /* \"#utility.yul\":18379:18382   */\n      dup4\n        /* \"#utility.yul\":18320:18387   */\n      tag_383\n      jump\t// in\n    tag_580:\n        /* \"#utility.yul\":18313:18387   */\n      swap2\n      pop\n        /* \"#utility.yul\":18396:18489   */\n      tag_581\n        /* \"#utility.yul\":18485:18488   */\n      dup3\n        /* \"#utility.yul\":18396:18489   */\n      tag_397\n      jump\t// in\n    tag_581:\n        /* \"#utility.yul\":18514:18516   */\n      0x40\n        /* \"#utility.yul\":18509:18512   */\n      dup3\n        /* \"#utility.yul\":18505:18517   */\n      add\n        /* \"#utility.yul\":18498:18517   */\n      swap1\n      pop\n        /* \"#utility.yul\":18157:18523   */\n      swap2\n      swap1\n      pop\n      jump\t// out\n        /* \"#utility.yul\":18529:18948   */\n    tag_155:\n        /* \"#utility.yul\":18695:18699   */\n      0x00\n        /* \"#utility.yul\":18733:18735   */\n      0x20\n        /* \"#utility.yul\":18722:18731   */\n      dup3\n        /* \"#utility.yul\":18718:18736   */\n      add\n        /* \"#utility.yul\":18710:18736   */\n      swap1\n      pop\n        /* \"#utility.yul\":18782:18791   */\n      dup2\n        /* \"#utility.yul\":18776:18780   */\n      dup2\n        /* \"#utility.yul\":18772:18792   */\n      sub\n        /* \"#utility.yul\":18768:18769   */\n      0x00\n        /* \"#utility.yul\":18757:18766   */\n      dup4\n        /* \"#utility.yul\":18753:18770   */\n      add\n        /* \"#utility.yul\":18746:18793   */\n      mstore\n        /* \"#utility.yul\":18810:18941   */\n      tag_583\n        /* \"#utility.yul\":18936:18940   */\n      dup2\n        /* \"#utility.yul\":18810:18941   */\n      tag_398\n      jump\t// in\n    tag_583:\n        /* \"#utility.yul\":18802:18941   */\n      swap1\n      pop\n        /* \"#utility.yul\":18529:18948   */\n      swap2\n      swap1\n      pop\n      jump\t// out\n        /* \"#utility.yul\":18954:19179   */\n    tag_399:\n        /* \"#utility.yul\":19094:19128   */\n      0x546865205f656e64446179206e6f7420726570726573656e747320612076616c\n        /* \"#utility.yul\":19090:19091   */\n      0x00\n        /* \"#utility.yul\":19082:19088   */\n      dup3\n        /* \"#utility.yul\":19078:19092   */\n      add\n        /* \"#utility.yul\":19071:19129   */\n      mstore\n        /* \"#utility.yul\":19163:19171   */\n      0x6964206461790000000000000000000000000000000000000000000000000000\n        /* \"#utility.yul\":19158:19160   */\n      0x20\n        /* \"#utility.yul\":19150:19156   */\n      dup3\n        /* \"#utility.yul\":19146:19161   */\n      add\n        /* \"#utility.yul\":19139:19172   */\n      mstore\n        /* \"#utility.yul\":18954:19179   */\n      pop\n      jump\t// out\n        /* \"#utility.yul\":19185:19551   */\n    tag_400:\n        /* \"#utility.yul\":19327:19330   */\n      0x00\n        /* \"#utility.yul\":19348:19415   */\n      tag_586\n        /* \"#utility.yul\":19412:19414   */\n      0x26\n        /* \"#utility.yul\":19407:19410   */\n      dup4\n        /* \"#utility.yul\":19348:19415   */\n      tag_383\n      jump\t// in\n    tag_586:\n        /* \"#utility.yul\":19341:19415   */\n      swap2\n      pop\n        /* \"#utility.yul\":19424:19517   */\n      tag_587\n        /* \"#utility.yul\":19513:19516   */\n      dup3\n        /* \"#utility.yul\":19424:19517   */\n      tag_399\n      jump\t// in\n    tag_587:\n        /* \"#utility.yul\":19542:19544   */\n      0x40\n        /* \"#utility.yul\":19537:19540   */\n      dup3\n        /* \"#utility.yul\":19533:19545   */\n      add\n        /* \"#utility.yul\":19526:19545   */\n      swap1\n      pop\n        /* \"#utility.yul\":19185:19551   */\n      swap2\n      swap1\n      pop\n      jump\t// out\n        /* \"#utility.yul\":19557:19976   */\n    tag_159:\n        /* \"#utility.yul\":19723:19727   */\n      0x00\n        /* \"#utility.yul\":19761:19763   */\n      0x20\n        /* \"#utility.yul\":19750:19759   */\n      dup3\n        /* \"#utility.yul\":19746:19764   */\n      add\n        /* \"#utility.yul\":19738:19764   */\n      swap1\n      pop\n        /* \"#utility.yul\":19810:19819   */\n      dup2\n        /* \"#utility.yul\":19804:19808   */\n      dup2\n        /* \"#utility.yul\":19800:19820   */\n      sub\n        /* \"#utility.yul\":19796:19797   */\n      0x00\n        /* \"#utility.yul\":19785:19794   */\n      dup4\n        /* \"#utility.yul\":19781:19798   */\n      add\n        /* \"#utility.yul\":19774:19821   */\n      mstore\n        /* \"#utility.yul\":19838:19969   */\n      tag_589\n        /* \"#utility.yul\":19964:19968   */\n      dup2\n        /* \"#utility.yul\":19838:19969   */\n      tag_400\n      jump\t// in\n    tag_589:\n        /* \"#utility.yul\":19830:19969   */\n      swap1\n      pop\n        /* \"#utility.yul\":19557:19976   */\n      swap2\n      swap1\n      pop\n      jump\t// out\n        /* \"#utility.yul\":19982:20203   */\n    tag_401:\n        /* \"#utility.yul\":20122:20156   */\n      0x5468657265206973206e6f20656e6454696d652073657420696e2074696d656f\n        /* \"#utility.yul\":20118:20119   */\n      0x00\n        /* \"#utility.yul\":20110:20116   */\n      dup3\n        /* \"#utility.yul\":20106:20120   */\n      add\n        /* \"#utility.yul\":20099:20157   */\n      mstore\n        /* \"#utility.yul\":20191:20195   */\n      0x7574000000000000000000000000000000000000000000000000000000000000\n        /* \"#utility.yul\":20186:20188   */\n      0x20\n        /* \"#utility.yul\":20178:20184   */\n      dup3\n        /* \"#utility.yul\":20174:20189   */\n      add\n        /* \"#utility.yul\":20167:20196   */\n      mstore\n        /* \"#utility.yul\":19982:20203   */\n      pop\n      jump\t// out\n        /* \"#utility.yul\":20209:20575   */\n    tag_402:\n        /* \"#utility.yul\":20351:20354   */\n      0x00\n        /* \"#utility.yul\":20372:20439   */\n      tag_592\n        /* \"#utility.yul\":20436:20438   */\n      0x22\n        /* \"#utility.yul\":20431:20434   */\n      dup4\n        /* \"#utility.yul\":20372:20439   */\n      tag_383\n      jump\t// in\n    tag_592:\n        /* \"#utility.yul\":20365:20439   */\n      swap2\n      pop\n        /* \"#utility.yul\":20448:20541   */\n      tag_593\n        /* \"#utility.yul\":20537:20540   */\n      dup3\n        /* \"#utility.yul\":20448:20541   */\n      tag_401\n      jump\t// in\n    tag_593:\n        /* \"#utility.yul\":20566:20568   */\n      0x40\n        /* \"#utility.yul\":20561:20564   */\n      dup3\n        /* \"#utility.yul\":20557:20569   */\n      add\n        /* \"#utility.yul\":20550:20569   */\n      swap1\n      pop\n        /* \"#utility.yul\":20209:20575   */\n      swap2\n      swap1\n      pop\n      jump\t// out\n        /* \"#utility.yul\":20581:21000   */\n    tag_191:\n        /* \"#utility.yul\":20747:20751   */\n      0x00\n        /* \"#utility.yul\":20785:20787   */\n      0x20\n        /* \"#utility.yul\":20774:20783   */\n      dup3\n        /* \"#utility.yul\":20770:20788   */\n      add\n        /* \"#utility.yul\":20762:20788   */\n      swap1\n      pop\n        /* \"#utility.yul\":20834:20843   */\n      dup2\n        /* \"#utility.yul\":20828:20832   */\n      dup2\n        /* \"#utility.yul\":20824:20844   */\n      sub\n        /* \"#utility.yul\":20820:20821   */\n      0x00\n        /* \"#utility.yul\":20809:20818   */\n      dup4\n        /* \"#utility.yul\":20805:20822   */\n      add\n        /* \"#utility.yul\":20798:20845   */\n      mstore\n        /* \"#utility.yul\":20862:20993   */\n      tag_595\n        /* \"#utility.yul\":20988:20992   */\n      dup2\n        /* \"#utility.yul\":20862:20993   */\n      tag_402\n      jump\t// in\n    tag_595:\n        /* \"#utility.yul\":20854:20993   */\n      swap1\n      pop\n        /* \"#utility.yul\":20581:21000   */\n      swap2\n      swap1\n      pop\n      jump\t// out\n        /* \"#utility.yul\":21006:21186   */\n    tag_403:\n        /* \"#utility.yul\":21054:21131   */\n      0x4e487b7100000000000000000000000000000000000000000000000000000000\n        /* \"#utility.yul\":21051:21052   */\n      0x00\n        /* \"#utility.yul\":21044:21132   */\n      mstore\n        /* \"#utility.yul\":21151:21155   */\n      0x11\n        /* \"#utility.yul\":21148:21149   */\n      0x04\n        /* \"#utility.yul\":21141:21156   */\n      mstore\n        /* \"#utility.yul\":21175:21179   */\n      0x24\n        /* \"#utility.yul\":21172:21173   */\n      0x00\n        /* \"#utility.yul\":21165:21180   */\n      revert\n        /* \"#utility.yul\":21192:21380   */\n    tag_194:\n        /* \"#utility.yul\":21231:21235   */\n      0x00\n        /* \"#utility.yul\":21251:21270   */\n      tag_598\n        /* \"#utility.yul\":21268:21269   */\n      dup3\n        /* \"#utility.yul\":21251:21270   */\n      tag_348\n      jump\t// in\n    tag_598:\n        /* \"#utility.yul\":21246:21270   */\n      swap2\n      pop\n        /* \"#utility.yul\":21284:21303   */\n      tag_599\n        /* \"#utility.yul\":21301:21302   */\n      dup4\n        /* \"#utility.yul\":21284:21303   */\n      tag_348\n      jump\t// in\n    tag_599:\n        /* \"#utility.yul\":21279:21303   */\n      swap3\n      pop\n        /* \"#utility.yul\":21322:21323   */\n      dup3\n        /* \"#utility.yul\":21319:21320   */\n      dup3\n        /* \"#utility.yul\":21316:21324   */\n      lt\n        /* \"#utility.yul\":21313:21347   */\n      iszero\n      tag_600\n      jumpi\n        /* \"#utility.yul\":21327:21345   */\n      tag_601\n      tag_403\n      jump\t// in\n    tag_601:\n        /* \"#utility.yul\":21313:21347   */\n    tag_600:\n        /* \"#utility.yul\":21372:21373   */\n      dup3\n        /* \"#utility.yul\":21369:21370   */\n      dup3\n        /* \"#utility.yul\":21365:21374   */\n      sub\n        /* \"#utility.yul\":21357:21374   */\n      swap1\n      pop\n        /* \"#utility.yul\":21192:21380   */\n      swap3\n      swap2\n      pop\n      pop\n      jump\t// out\n        /* \"#utility.yul\":21386:21632   */\n    tag_225:\n        /* \"#utility.yul\":21425:21428   */\n      0x00\n        /* \"#utility.yul\":21444:21463   */\n      tag_603\n        /* \"#utility.yul\":21461:21462   */\n      dup3\n        /* \"#utility.yul\":21444:21463   */\n      tag_348\n      jump\t// in\n    tag_603:\n        /* \"#utility.yul\":21439:21463   */\n      swap2\n      pop\n        /* \"#utility.yul\":21477:21496   */\n      tag_604\n        /* \"#utility.yul\":21494:21495   */\n      dup4\n        /* \"#utility.yul\":21477:21496   */\n      tag_348\n      jump\t// in\n    tag_604:\n        /* \"#utility.yul\":21472:21496   */\n      swap3\n      pop\n        /* \"#utility.yul\":21574:21575   */\n      dup3\n        /* \"#utility.yul\":21562:21572   */\n      0xffffffff\n        /* \"#utility.yul\":21558:21576   */\n      sub\n        /* \"#utility.yul\":21555:21556   */\n      dup3\n        /* \"#utility.yul\":21552:21577   */\n      gt\n        /* \"#utility.yul\":21549:21600   */\n      iszero\n      tag_605\n      jumpi\n        /* \"#utility.yul\":21580:21598   */\n      tag_606\n      tag_403\n      jump\t// in\n    tag_606:\n        /* \"#utility.yul\":21549:21600   */\n    tag_605:\n        /* \"#utility.yul\":21624:21625   */\n      dup3\n        /* \"#utility.yul\":21621:21622   */\n      dup3\n        /* \"#utility.yul\":21617:21626   */\n      add\n        /* \"#utility.yul\":21610:21626   */\n      swap1\n      pop\n        /* \"#utility.yul\":21386:21632   */\n      swap3\n      swap2\n      pop\n      pop\n      jump\t// out\n        /* \"#utility.yul\":21638:21884   */\n    tag_404:\n        /* \"#utility.yul\":21778:21812   */\n      0x546865206d6574686f642067657454696d65496e5365636f6e647320646f6573\n        /* \"#utility.yul\":21774:21775   */\n      0x00\n        /* \"#utility.yul\":21766:21772   */\n      dup3\n        /* \"#utility.yul\":21762:21776   */\n      add\n        /* \"#utility.yul\":21755:21813   */\n      mstore\n        /* \"#utility.yul\":21847:21876   */\n      0x6e277420776f726b20666f72204d4f4e544820616e6420594541520000000000\n        /* \"#utility.yul\":21842:21844   */\n      0x20\n        /* \"#utility.yul\":21834:21840   */\n      dup3\n        /* \"#utility.yul\":21830:21845   */\n      add\n        /* \"#utility.yul\":21823:21877   */\n      mstore\n        /* \"#utility.yul\":21638:21884   */\n      pop\n      jump\t// out\n        /* \"#utility.yul\":21890:22256   */\n    tag_405:\n        /* \"#utility.yul\":22032:22035   */\n      0x00\n        /* \"#utility.yul\":22053:22120   */\n      tag_609\n        /* \"#utility.yul\":22117:22119   */\n      0x3b\n        /* \"#utility.yul\":22112:22115   */\n      dup4\n        /* \"#utility.yul\":22053:22120   */\n      tag_383\n      jump\t// in\n    tag_609:\n        /* \"#utility.yul\":22046:22120   */\n      swap2\n      pop\n        /* \"#utility.yul\":22129:22222   */\n      tag_610\n        /* \"#utility.yul\":22218:22221   */\n      dup3\n        /* \"#utility.yul\":22129:22222   */\n      tag_404\n      jump\t// in\n    tag_610:\n        /* \"#utility.yul\":22247:22249   */\n      0x40\n        /* \"#utility.yul\":22242:22245   */\n      dup3\n        /* \"#utility.yul\":22238:22250   */\n      add\n        /* \"#utility.yul\":22231:22250   */\n      swap1\n      pop\n        /* \"#utility.yul\":21890:22256   */\n      swap2\n      swap1\n      pop\n      jump\t// out\n        /* \"#utility.yul\":22262:22681   */\n    tag_229:\n        /* \"#utility.yul\":22428:22432   */\n      0x00\n        /* \"#utility.yul\":22466:22468   */\n      0x20\n        /* \"#utility.yul\":22455:22464   */\n      dup3\n        /* \"#utility.yul\":22451:22469   */\n      add\n        /* \"#utility.yul\":22443:22469   */\n      swap1\n      pop\n        /* \"#utility.yul\":22515:22524   */\n      dup2\n        /* \"#utility.yul\":22509:22513   */\n      dup2\n        /* \"#utility.yul\":22505:22525   */\n      sub\n        /* \"#utility.yul\":22501:22502   */\n      0x00\n        /* \"#utility.yul\":22490:22499   */\n      dup4\n        /* \"#utility.yul\":22486:22503   */\n      add\n        /* \"#utility.yul\":22479:22526   */\n      mstore\n        /* \"#utility.yul\":22543:22674   */\n      tag_612\n        /* \"#utility.yul\":22669:22673   */\n      dup2\n        /* \"#utility.yul\":22543:22674   */\n      tag_405\n      jump\t// in\n    tag_612:\n        /* \"#utility.yul\":22535:22674   */\n      swap1\n      pop\n        /* \"#utility.yul\":22262:22681   */\n      swap2\n      swap1\n      pop\n      jump\t// out\n        /* \"#utility.yul\":22687:22764   */\n    tag_406:\n        /* \"#utility.yul\":22724:22731   */\n      0x00\n        /* \"#utility.yul\":22753:22758   */\n      dup2\n        /* \"#utility.yul\":22742:22758   */\n      swap1\n      pop\n        /* \"#utility.yul\":22687:22764   */\n      swap2\n      swap1\n      pop\n      jump\t// out\n        /* \"#utility.yul\":22770:23003   */\n    tag_243:\n        /* \"#utility.yul\":22809:22812   */\n      0x00\n        /* \"#utility.yul\":22832:22856   */\n      tag_615\n        /* \"#utility.yul\":22850:22855   */\n      dup3\n        /* \"#utility.yul\":22832:22856   */\n      tag_406\n      jump\t// in\n    tag_615:\n        /* \"#utility.yul\":22823:22856   */\n      swap2\n      pop\n        /* \"#utility.yul\":22878:22944   */\n      0xffffffffffffffffffffffffffffffffffffffffffffffffffffffffffffffff\n        /* \"#utility.yul\":22871:22876   */\n      dup3\n        /* \"#utility.yul\":22868:22945   */\n      sub\n        /* \"#utility.yul\":22865:22968   */\n      tag_616\n      jumpi\n        /* \"#utility.yul\":22948:22966   */\n      tag_617\n      tag_403\n      jump\t// in\n    tag_617:\n        /* \"#utility.yul\":22865:22968   */\n    tag_616:\n        /* \"#utility.yul\":22995:22996   */\n      0x01\n        /* \"#utility.yul\":22988:22993   */\n      dup3\n        /* \"#utility.yul\":22984:22997   */\n      add\n        /* \"#utility.yul\":22977:22997   */\n      swap1\n      pop\n        /* \"#utility.yul\":22770:23003   */\n      swap2\n      swap1\n      pop\n      jump\t// out\n        /* \"#utility.yul\":23009:23189   */\n    tag_407:\n        /* \"#utility.yul\":23057:23134   */\n      0x4e487b7100000000000000000000000000000000000000000000000000000000\n        /* \"#utility.yul\":23054:23055   */\n      0x00\n        /* \"#utility.yul\":23047:23135   */\n      mstore\n        /* \"#utility.yul\":23154:23158   */\n      0x12\n        /* \"#utility.yul\":23151:23152   */\n      0x04\n        /* \"#utility.yul\":23144:23159   */\n      mstore\n        /* \"#utility.yul\":23178:23182   */\n      0x24\n        /* \"#utility.yul\":23175:23176   */\n      0x00\n        /* \"#utility.yul\":23168:23183   */\n      revert\n        /* \"#utility.yul\":23195:23380   */\n    tag_245:\n        /* \"#utility.yul\":23235:23236   */\n      0x00\n        /* \"#utility.yul\":23252:23272   */\n      tag_620\n        /* \"#utility.yul\":23270:23271   */\n      dup3\n        /* \"#utility.yul\":23252:23272   */\n      tag_406\n      jump\t// in\n    tag_620:\n        /* \"#utility.yul\":23247:23272   */\n      swap2\n      pop\n        /* \"#utility.yul\":23286:23306   */\n      tag_621\n        /* \"#utility.yul\":23304:23305   */\n      dup4\n        /* \"#utility.yul\":23286:23306   */\n      tag_406\n      jump\t// in\n    tag_621:\n        /* \"#utility.yul\":23281:23306   */\n      swap3\n      pop\n        /* \"#utility.yul\":23325:23326   */\n      dup3\n        /* \"#utility.yul\":23315:23350   */\n      tag_622\n      jumpi\n        /* \"#utility.yul\":23330:23348   */\n      tag_623\n      tag_407\n      jump\t// in\n    tag_623:\n        /* \"#utility.yul\":23315:23350   */\n    tag_622:\n        /* \"#utility.yul\":23372:23373   */\n      dup3\n        /* \"#utility.yul\":23369:23370   */\n      dup3\n        /* \"#utility.yul\":23365:23374   */\n      div\n        /* \"#utility.yul\":23360:23374   */\n      swap1\n      pop\n        /* \"#utility.yul\":23195:23380   */\n      swap3\n      swap2\n      pop\n      pop\n      jump\t// out\n        /* \"#utility.yul\":23386:23577   */\n    tag_253:\n        /* \"#utility.yul\":23426:23430   */\n      0x00\n        /* \"#utility.yul\":23446:23466   */\n      tag_625\n        /* \"#utility.yul\":23464:23465   */\n      dup3\n        /* \"#utility.yul\":23446:23466   */\n      tag_406\n      jump\t// in\n    tag_625:\n        /* \"#utility.yul\":23441:23466   */\n      swap2\n      pop\n        /* \"#utility.yul\":23480:23500   */\n      tag_626\n        /* \"#utility.yul\":23498:23499   */\n      dup4\n        /* \"#utility.yul\":23480:23500   */\n      tag_406\n      jump\t// in\n    tag_626:\n        /* \"#utility.yul\":23475:23500   */\n      swap3\n      pop\n        /* \"#utility.yul\":23519:23520   */\n      dup3\n        /* \"#utility.yul\":23516:23517   */\n      dup3\n        /* \"#utility.yul\":23513:23521   */\n      lt\n        /* \"#utility.yul\":23510:23544   */\n      iszero\n      tag_627\n      jumpi\n        /* \"#utility.yul\":23524:23542   */\n      tag_628\n      tag_403\n      jump\t// in\n    tag_628:\n        /* \"#utility.yul\":23510:23544   */\n    tag_627:\n        /* \"#utility.yul\":23569:23570   */\n      dup3\n        /* \"#utility.yul\":23566:23567   */\n      dup3\n        /* \"#utility.yul\":23562:23571   */\n      sub\n        /* \"#utility.yul\":23554:23571   */\n      swap1\n      pop\n        /* \"#utility.yul\":23386:23577   */\n      swap3\n      swap2\n      pop\n      pop\n      jump\t// out\n        /* \"#utility.yul\":23583:23759   */\n    tag_255:\n        /* \"#utility.yul\":23615:23616   */\n      0x00\n        /* \"#utility.yul\":23632:23652   */\n      tag_630\n        /* \"#utility.yul\":23650:23651   */\n      dup3\n        /* \"#utility.yul\":23632:23652   */\n      tag_406\n      jump\t// in\n    tag_630:\n        /* \"#utility.yul\":23627:23652   */\n      swap2\n      pop\n        /* \"#utility.yul\":23666:23686   */\n      tag_631\n        /* \"#utility.yul\":23684:23685   */\n      dup4\n        /* \"#utility.yul\":23666:23686   */\n      tag_406\n      jump\t// in\n    tag_631:\n        /* \"#utility.yul\":23661:23686   */\n      swap3\n      pop\n        /* \"#utility.yul\":23705:23706   */\n      dup3\n        /* \"#utility.yul\":23695:23730   */\n      tag_632\n      jumpi\n        /* \"#utility.yul\":23710:23728   */\n      tag_633\n      tag_407\n      jump\t// in\n    tag_633:\n        /* \"#utility.yul\":23695:23730   */\n    tag_632:\n        /* \"#utility.yul\":23751:23752   */\n      dup3\n        /* \"#utility.yul\":23748:23749   */\n      dup3\n        /* \"#utility.yul\":23744:23753   */\n      mod\n        /* \"#utility.yul\":23739:23753   */\n      swap1\n      pop\n        /* \"#utility.yul\":23583:23759   */\n      swap3\n      swap2\n      pop\n      pop\n      jump\t// out\n        /* \"#utility.yul\":23765:24070   */\n    tag_257:\n        /* \"#utility.yul\":23805:23808   */\n      0x00\n        /* \"#utility.yul\":23824:23844   */\n      tag_635\n        /* \"#utility.yul\":23842:23843   */\n      dup3\n        /* \"#utility.yul\":23824:23844   */\n      tag_406\n      jump\t// in\n    tag_635:\n        /* \"#utility.yul\":23819:23844   */\n      swap2\n      pop\n        /* \"#utility.yul\":23858:23878   */\n      tag_636\n        /* \"#utility.yul\":23876:23877   */\n      dup4\n        /* \"#utility.yul\":23858:23878   */\n      tag_406\n      jump\t// in\n    tag_636:\n        /* \"#utility.yul\":23853:23878   */\n      swap3\n      pop\n        /* \"#utility.yul\":24012:24013   */\n      dup3\n        /* \"#utility.yul\":23944:24010   */\n      0xffffffffffffffffffffffffffffffffffffffffffffffffffffffffffffffff\n        /* \"#utility.yul\":23940:24014   */\n      sub\n        /* \"#utility.yul\":23937:23938   */\n      dup3\n        /* \"#utility.yul\":23934:24015   */\n      gt\n        /* \"#utility.yul\":23931:24038   */\n      iszero\n      tag_637\n      jumpi\n        /* \"#utility.yul\":24018:24036   */\n      tag_638\n      tag_403\n      jump\t// in\n    tag_638:\n        /* \"#utility.yul\":23931:24038   */\n    tag_637:\n        /* \"#utility.yul\":24062:24063   */\n      dup3\n        /* \"#utility.yul\":24059:24060   */\n      dup3\n        /* \"#utility.yul\":24055:24064   */\n      add\n        /* \"#utility.yul\":24048:24064   */\n      swap1\n      pop\n        /* \"#utility.yul\":23765:24070   */\n      swap3\n      swap2\n      pop\n      pop\n      jump\t// out\n        /* \"#utility.yul\":24076:24365   */\n    tag_278:\n        /* \"#utility.yul\":24115:24122   */\n      0x00\n        /* \"#utility.yul\":24138:24157   */\n      tag_640\n        /* \"#utility.yul\":24155:24156   */\n      dup3\n        /* \"#utility.yul\":24138:24157   */\n      tag_348\n      jump\t// in\n    tag_640:\n        /* \"#utility.yul\":24133:24157   */\n      swap2\n      pop\n        /* \"#utility.yul\":24171:24190   */\n      tag_641\n        /* \"#utility.yul\":24188:24189   */\n      dup4\n        /* \"#utility.yul\":24171:24190   */\n      tag_348\n      jump\t// in\n    tag_641:\n        /* \"#utility.yul\":24166:24190   */\n      swap3\n      pop\n        /* \"#utility.yul\":24302:24303   */\n      dup2\n        /* \"#utility.yul\":24290:24300   */\n      0xffffffff\n        /* \"#utility.yul\":24286:24304   */\n      div\n        /* \"#utility.yul\":24283:24284   */\n      dup4\n        /* \"#utility.yul\":24280:24305   */\n      gt\n        /* \"#utility.yul\":24275:24276   */\n      dup3\n        /* \"#utility.yul\":24268:24277   */\n      iszero\n        /* \"#utility.yul\":24261:24278   */\n      iszero\n        /* \"#utility.yul\":24257:24306   */\n      and\n        /* \"#utility.yul\":24254:24329   */\n      iszero\n      tag_642\n      jumpi\n        /* \"#utility.yul\":24309:24327   */\n      tag_643\n      tag_403\n      jump\t// in\n    tag_643:\n        /* \"#utility.yul\":24254:24329   */\n    tag_642:\n        /* \"#utility.yul\":24357:24358   */\n      dup3\n        /* \"#utility.yul\":24354:24355   */\n      dup3\n        /* \"#utility.yul\":24350:24359   */\n      mul\n        /* \"#utility.yul\":24339:24359   */\n      swap1\n      pop\n        /* \"#utility.yul\":24076:24365   */\n      swap3\n      swap2\n      pop\n      pop\n      jump\t// out\n        /* \"#utility.yul\":24371:24553   */\n    tag_280:\n        /* \"#utility.yul\":24410:24411   */\n      0x00\n        /* \"#utility.yul\":24427:24446   */\n      tag_645\n        /* \"#utility.yul\":24444:24445   */\n      dup3\n        /* \"#utility.yul\":24427:24446   */\n      tag_348\n      jump\t// in\n    tag_645:\n        /* \"#utility.yul\":24422:24446   */\n      swap2\n      pop\n        /* \"#utility.yul\":24460:24479   */\n      tag_646\n        /* \"#utility.yul\":24477:24478   */\n      dup4\n        /* \"#utility.yul\":24460:24479   */\n      tag_348\n      jump\t// in\n    tag_646:\n        /* \"#utility.yul\":24455:24479   */\n      swap3\n      pop\n        /* \"#utility.yul\":24498:24499   */\n      dup3\n        /* \"#utility.yul\":24488:24523   */\n      tag_647\n      jumpi\n        /* \"#utility.yul\":24503:24521   */\n      tag_648\n      tag_407\n      jump\t// in\n    tag_648:\n        /* \"#utility.yul\":24488:24523   */\n    tag_647:\n        /* \"#utility.yul\":24545:24546   */\n      dup3\n        /* \"#utility.yul\":24542:24543   */\n      dup3\n        /* \"#utility.yul\":24538:24547   */\n      div\n        /* \"#utility.yul\":24533:24547   */\n      swap1\n      pop\n        /* \"#utility.yul\":24371:24553   */\n      swap3\n      swap2\n      pop\n      pop\n      jump\t// out\n        /* \"#utility.yul\":24559:24732   */\n    tag_318:\n        /* \"#utility.yul\":24590:24591   */\n      0x00\n        /* \"#utility.yul\":24607:24626   */\n      tag_650\n        /* \"#utility.yul\":24624:24625   */\n      dup3\n        /* \"#utility.yul\":24607:24626   */\n      tag_348\n      jump\t// in\n    tag_650:\n        /* \"#utility.yul\":24602:24626   */\n      swap2\n      pop\n        /* \"#utility.yul\":24640:24659   */\n      tag_651\n        /* \"#utility.yul\":24657:24658   */\n      dup4\n        /* \"#utility.yul\":24640:24659   */\n      tag_348\n      jump\t// in\n    tag_651:\n        /* \"#utility.yul\":24635:24659   */\n      swap3\n      pop\n        /* \"#utility.yul\":24678:24679   */\n      dup3\n        /* \"#utility.yul\":24668:24703   */\n      tag_652\n      jumpi\n        /* \"#utility.yul\":24683:24701   */\n      tag_653\n      tag_407\n      jump\t// in\n    tag_653:\n        /* \"#utility.yul\":24668:24703   */\n    tag_652:\n        /* \"#utility.yul\":24724:24725   */\n      dup3\n        /* \"#utility.yul\":24721:24722   */\n      dup3\n        /* \"#utility.yul\":24717:24726   */\n      mod\n        /* \"#utility.yul\":24712:24726   */\n      swap1\n      pop\n        /* \"#utility.yul\":24559:24732   */\n      swap3\n      swap2\n      pop\n      pop\n      jump\t// out\n\n    auxdata: 0xa26469706673582212209fb011a9640213cc933d7b5bfbe5151ea57fc4654cb5823c4d42fbbba1c704c064736f6c634300080d0033\n}\n",
				"bytecode": {
					"linkReferences": {},
					"object": "60806040523480156200001157600080fd5b5060405162003c4e38038062003c4e833981810160405281019062000037919062000de7565b6363b13d806000806101000a81548163ffffffff021916908363ffffffff1602179055506367733400600060046101000a81548163ffffffff021916908363ffffffff160217905550620000ce6040518060400160405280600981526020017f4f726369642041504900000000000000000000000000000000000000000000008152508260006200074b60201b62000d981760201c565b60016000820151816000019080519060200190620000ee92919062000b33565b5060208201518160010160006101000a81548173ffffffffffffffffffffffffffffffffffffffff021916908373ffffffffffffffffffffffffffffffffffffffff16021790555060408201518160010160146101000a81548160ff021916908315150217905550905050620001a76040518060400160405280601381526020017f496e746567726174696f6e2050726f63657373000000000000000000000000008152503360016200074b60201b62000d981760201c565b60036000820151816000019080519060200190620001c792919062000b33565b5060208201518160010160006101000a81548173ffffffffffffffffffffffffffffffffffffffff021916908373ffffffffffffffffffffffffffffffffffffffff16021790555060408201518160010160146101000a81548160ff0219169083151502179055509050506003600560003373ffffffffffffffffffffffffffffffffffffffff1673ffffffffffffffffffffffffffffffffffffffff1681526020019081526020016000206000820181600001908054620002899062000e48565b6200029692919062000bc4565b506001820160009054906101000a900473ffffffffffffffffffffffffffffffffffffffff168160010160006101000a81548173ffffffffffffffffffffffffffffffffffffffff021916908373ffffffffffffffffffffffffffffffffffffffff1602179055506001820160149054906101000a900460ff168160010160146101000a81548160ff0219169083151502179055509050506001600560008373ffffffffffffffffffffffffffffffffffffffff1673ffffffffffffffffffffffffffffffffffffffff1681526020019081526020016000206000820181600001908054620003859062000e48565b6200039292919062000bc4565b506001820160009054906101000a900473ffffffffffffffffffffffffffffffffffffffff168160010160006101000a81548173ffffffffffffffffffffffffffffffffffffffff021916908373ffffffffffffffffffffffffffffffffffffffff1602179055506001820160149054906101000a900460ff168160010160146101000a81548160ff021916908315150217905550905050600662000445600060066200079160201b62000ddc1760201c565b9080600181540180825580915050600190039060005260206000200160009091909190915060008201518160000160006101000a81548160ff021916908360ff16021790555060208201518160000160016101000a81548160ff021916908360ff16021790555050506007620004cb60006201517f6200088460201b62000ec51760201c565b9080600181540180825580915050600190039060005260206000200160009091909190915060008201518160000160006101000a81548163ffffffff021916908363ffffffff16021790555060208201518160000160046101000a81548163ffffffff021916908363ffffffff160217905550505060086200055b601860006200099960201b62000fd01760201c565b9080600181540180825580915050600190039060005260206000200160009091909190915060008201518160000160006101000a81548163ffffffff021916908363ffffffff16021790555060208201518160000160046101000a81548160ff021916908360ff16021790555060408201518160000160056101000a81548163ffffffff021916908363ffffffff16021790555060608201518160000160096101000a81548163ffffffff021916908363ffffffff160217905550608082015181600001600d6101000a81548163ffffffff021916908363ffffffff1602179055505050600962000658603c62000a1e60201b620010491760201c565b9080600181540180825580915050600190039060005260206000200160009091909190915060008201518160000160006101000a81548163ffffffff021916908363ffffffff16021790555060208201518160000160046101000a81548163ffffffff021916908363ffffffff1602179055505050600a620006fe60405180608001604052806041815260200162003c0d6041913962000a5160201b6200107a1760201c565b9080600181540180825580915050600190039060005260206000200160009091909190915060008201518160000190805190602001906200074192919062000b33565b5050505062001056565b6200075562000c5c565b60405180606001604052808581526020018473ffffffffffffffffffffffffffffffffffffffff16815260200183151581525090509392505050565b6200079b62000c95565b8282600060ff168260ff1610158015620007bc5750600660ff168260ff1611155b620007fe576040517f08c379a0000000000000000000000000000000000000000000000000000000008152600401620007f59062000f04565b60405180910390fd5b600060ff168160ff16101580156200081d5750600660ff168160ff1611155b6200085f576040517f08c379a0000000000000000000000000000000000000000000000000000000008152600401620008569062000f9c565b60405180910390fd5b60405180604001604052808660ff1681526020018560ff168152509250505092915050565b6200088e62000cb5565b8282600063ffffffff168263ffffffff1610158015620008bd57506201517f63ffffffff168263ffffffff1611155b620008ff576040517f08c379a0000000000000000000000000000000000000000000000000000000008152600401620008f69062000f04565b60405180910390fd5b600063ffffffff168163ffffffff16101580156200092c57506201517f63ffffffff168163ffffffff1611155b6200096e576040517f08c379a0000000000000000000000000000000000000000000000000000000008152600401620009659062000f9c565b60405180910390fd5b60405180604001604052808663ffffffff1681526020018563ffffffff168152509250505092915050565b620009a362000cdb565b6000600460ff168360ff1611620009cd57620009c58362000a7160201b60201c565b9050620009d2565b600190505b6040518060a001604052808563ffffffff1681526020018460ff1681526020018263ffffffff1681526020018563ffffffff168152602001600063ffffffff1681525091505092915050565b62000a2862000d25565b6040518060400160405280600063ffffffff1681526020018363ffffffff168152509050919050565b62000a5b62000d4b565b6040518060200160405280838152509050919050565b6000600460ff168260ff16111562000ac0576040517f08c379a000000000000000000000000000000000000000000000000000000000815260040162000ab79062001034565b60405180910390fd5b600060ff168260ff160362000ad9576001905062000b2e565b600160ff168260ff160362000af257603c905062000b2e565b600260ff168260ff160362000b0c57610e10905062000b2e565b600360ff168260ff160362000b275762015180905062000b2e565b62093a8090505b919050565b82805462000b419062000e48565b90600052602060002090601f01602090048101928262000b65576000855562000bb1565b82601f1062000b8057805160ff191683800117855562000bb1565b8280016001018555821562000bb1579182015b8281111562000bb057825182559160200191906001019062000b93565b5b50905062000bc0919062000d5e565b5090565b82805462000bd29062000e48565b90600052602060002090601f01602090048101928262000bf6576000855562000c49565b82601f1062000c09578054855562000c49565b8280016001018555821562000c4957600052602060002091601f016020900482015b8281111562000c4857825482559160010191906001019062000c2b565b5b50905062000c58919062000d5e565b5090565b604051806060016040528060608152602001600073ffffffffffffffffffffffffffffffffffffffff1681526020016000151581525090565b6040518060400160405280600060ff168152602001600060ff1681525090565b6040518060400160405280600063ffffffff168152602001600063ffffffff1681525090565b6040518060a00160405280600063ffffffff168152602001600060ff168152602001600063ffffffff168152602001600063ffffffff168152602001600063ffffffff1681525090565b6040518060400160405280600063ffffffff168152602001600063ffffffff1681525090565b6040518060200160405280606081525090565b5b8082111562000d7957600081600090555060010162000d5f565b5090565b600080fd5b600073ffffffffffffffffffffffffffffffffffffffff82169050919050565b600062000daf8262000d82565b9050919050565b62000dc18162000da2565b811462000dcd57600080fd5b50565b60008151905062000de18162000db6565b92915050565b60006020828403121562000e005762000dff62000d7d565b5b600062000e108482850162000dd0565b91505092915050565b7f4e487b7100000000000000000000000000000000000000000000000000000000600052602260045260246000fd5b6000600282049050600182168062000e6157607f821691505b60208210810362000e775762000e7662000e19565b5b50919050565b600082825260208201905092915050565b7f546865205f7374617274446179206e6f7420726570726573656e74732061207660008201527f616c696420646179000000000000000000000000000000000000000000000000602082015250565b600062000eec60288362000e7d565b915062000ef98262000e8e565b604082019050919050565b6000602082019050818103600083015262000f1f8162000edd565b9050919050565b7f546865205f656e64446179206e6f7420726570726573656e747320612076616c60008201527f6964206461790000000000000000000000000000000000000000000000000000602082015250565b600062000f8460268362000e7d565b915062000f918262000f26565b604082019050919050565b6000602082019050818103600083015262000fb78162000f75565b9050919050565b7f546865206d6574686f642067657454696d65496e5365636f6e647320646f657360008201527f6e277420776f726b20666f72204d4f4e544820616e6420594541520000000000602082015250565b60006200101c603b8362000e7d565b9150620010298262000fbe565b604082019050919050565b600060208201905081810360008301526200104f816200100d565b9050919050565b612ba780620010666000396000f3fe608060405234801561001057600080fd5b506004361061007d5760003560e01c8063859319111161005b57806385931911146101005780639c7642231461011e578063b8b4f1a01461014e578063fb6f82431461016c5761007d565b806322d53d53146100825780635e744c6a146100b257806370d8915a146100e2575b600080fd5b61009c60048036038101906100979190611ef5565b61019c565b6040516100a99190611f60565b60405180910390f35b6100cc60048036038101906100c7919061208e565b610386565b6040516100d99190611f60565b60405180910390f35b6100ea610577565b6040516100f791906120f9565b60405180910390f35b610108610690565b60405161011591906120f9565b60405180910390f35b6101386004803603810190610133919061214d565b6107aa565b6040516101459190611f60565b60405180910390f35b610156610a33565b6040516101639190611f60565b60405180910390f35b610186600480360381019061018191906121a0565b610b4f565b60405161019391906122c3565b60405180910390f35b60003373ffffffffffffffffffffffffffffffffffffffff166001800160009054906101000a900473ffffffffffffffffffffffffffffffffffffffff1673ffffffffffffffffffffffffffffffffffffffff1614610230576040517f08c379a000000000000000000000000000000000000000000000000000000000815260040161022790612368565b60405180910390fd5b6102b883600960008154811061024957610248612388565b5b906000526020600020016040518060400160405290816000820160009054906101000a900463ffffffff1663ffffffff1663ffffffff1681526020016000820160049054906101000a900463ffffffff1663ffffffff1663ffffffff168152505061109890919063ffffffff16565b80156102dc5750816000815181106102d3576102d2612388565b5b60200260200101515b156103465761030860086000815481106102f9576102f8612388565b5b90600052602060002001611127565b7f95a1f3a1dafdd4c1af344e3d7c69a72cbce8a3f15fe1cf95a7f5bd23df2e71a160405161033590612403565b60405180910390a160019050610380565b7f66091b7dc2b097c8f60d5cd6aa99633b097f08d2eb1056f3e15361b22e0ea2ba6040516103739061246f565b60405180910390a1600090505b92915050565b60003373ffffffffffffffffffffffffffffffffffffffff16600360010160009054906101000a900473ffffffffffffffffffffffffffffffffffffffff1673ffffffffffffffffffffffffffffffffffffffff161461041b576040517f08c379a000000000000000000000000000000000000000000000000000000000815260040161041290612501565b60405180910390fd5b600560006001800160009054906101000a900473ffffffffffffffffffffffffffffffffffffffff1673ffffffffffffffffffffffffffffffffffffffff1673ffffffffffffffffffffffffffffffffffffffff1681526020019081526020016000206000808201600061048f9190611aa2565b6001820160006101000a81549073ffffffffffffffffffffffffffffffffffffffff02191690556001820160146101000a81549060ff021916905550506104d883836000610d98565b600160008201518160000190805190602001906104f6929190611ae2565b5060208201518160010160006101000a81548173ffffffffffffffffffffffffffffffffffffffff021916908373ffffffffffffffffffffffffffffffffffffffff16021790555060408201518160010160146101000a81548160ff02191690831515021790555090505061056c82600161116c565b506001905092915050565b60003373ffffffffffffffffffffffffffffffffffffffff166001800160009054906101000a900473ffffffffffffffffffffffffffffffffffffffff1673ffffffffffffffffffffffffffffffffffffffff16148061062757503373ffffffffffffffffffffffffffffffffffffffff16600360010160009054906101000a900473ffffffffffffffffffffffffffffffffffffffff1673ffffffffffffffffffffffffffffffffffffffff16145b610666576040517f08c379a000000000000000000000000000000000000000000000000000000000815260040161065d90612593565b60405180910390fd5b6001800160009054906101000a900473ffffffffffffffffffffffffffffffffffffffff16905090565b60003373ffffffffffffffffffffffffffffffffffffffff166001800160009054906101000a900473ffffffffffffffffffffffffffffffffffffffff1673ffffffffffffffffffffffffffffffffffffffff16148061074057503373ffffffffffffffffffffffffffffffffffffffff16600360010160009054906101000a900473ffffffffffffffffffffffffffffffffffffffff1673ffffffffffffffffffffffffffffffffffffffff16145b61077f576040517f08c379a000000000000000000000000000000000000000000000000000000000815260040161077690612593565b60405180910390fd5b600360010160009054906101000a900473ffffffffffffffffffffffffffffffffffffffff16905090565b60003373ffffffffffffffffffffffffffffffffffffffff16600360010160009054906101000a900473ffffffffffffffffffffffffffffffffffffffff1673ffffffffffffffffffffffffffffffffffffffff161461083f576040517f08c379a000000000000000000000000000000000000000000000000000000000815260040161083690612501565b60405180910390fd5b6108b584600660008154811061085857610857612388565b5b906000526020600020016040518060400160405290816000820160009054906101000a900460ff1660ff1660ff1681526020016000820160019054906101000a900460ff1660ff1660ff168152505061126f90919063ffffffff16565b801561094557506109448360076000815481106108d5576108d4612388565b5b906000526020600020016040518060400160405290816000820160009054906101000a900463ffffffff1663ffffffff1663ffffffff1681526020016000820160049054906101000a900463ffffffff1663ffffffff1663ffffffff16815250506112fb90919063ffffffff16565b5b801561097e575061097d82600860008154811061096557610964612388565b5b906000526020600020016113a590919063ffffffff16565b5b156109f2576109b482600960008154811061099c5761099b612388565b5b9060005260206000200161141e90919063ffffffff16565b7f95a1f3a1dafdd4c1af344e3d7c69a72cbce8a3f15fe1cf95a7f5bd23df2e71a16040516109e190612403565b60405180910390a160019050610a2c565b7f66091b7dc2b097c8f60d5cd6aa99633b097f08d2eb1056f3e15361b22e0ea2ba604051610a1f9061246f565b60405180910390a1600090505b9392505050565b60003373ffffffffffffffffffffffffffffffffffffffff166001800160009054906101000a900473ffffffffffffffffffffffffffffffffffffffff1673ffffffffffffffffffffffffffffffffffffffff1614610ac7576040517f08c379a0000000000000000000000000000000000000000000000000000000008152600401610abe90612368565b60405180910390fd5b600015156001800160149054906101000a900460ff16151514610b1f576040517f08c379a0000000000000000000000000000000000000000000000000000000008152600401610b16906125ff565b60405180910390fd5b60018060010160146101000a81548160ff021916908315150217905550610b4733600161116c565b506001905090565b610b57611b68565b3373ffffffffffffffffffffffffffffffffffffffff166001800160009054906101000a900473ffffffffffffffffffffffffffffffffffffffff1673ffffffffffffffffffffffffffffffffffffffff161480610c0557503373ffffffffffffffffffffffffffffffffffffffff16600360010160009054906101000a900473ffffffffffffffffffffffffffffffffffffffff1673ffffffffffffffffffffffffffffffffffffffff16145b610c44576040517f08c379a0000000000000000000000000000000000000000000000000000000008152600401610c3b90612593565b60405180910390fd5b600560008373ffffffffffffffffffffffffffffffffffffffff1673ffffffffffffffffffffffffffffffffffffffff168152602001908152602001600020604051806060016040529081600082018054610c9e9061264e565b80601f0160208091040260200160405190810160405280929190818152602001828054610cca9061264e565b8015610d175780601f10610cec57610100808354040283529160200191610d17565b820191906000526020600020905b815481529060010190602001808311610cfa57829003601f168201915b505050505081526020016001820160009054906101000a900473ffffffffffffffffffffffffffffffffffffffff1673ffffffffffffffffffffffffffffffffffffffff1673ffffffffffffffffffffffffffffffffffffffff1681526020016001820160149054906101000a900460ff1615151515815250509050919050565b610da0611b68565b60405180606001604052808581526020018473ffffffffffffffffffffffffffffffffffffffff16815260200183151581525090509392505050565b610de4611ba1565b8282600060ff168260ff1610158015610e045750600660ff168260ff1611155b610e43576040517f08c379a0000000000000000000000000000000000000000000000000000000008152600401610e3a906126f1565b60405180910390fd5b600060ff168160ff1610158015610e615750600660ff168160ff1611155b610ea0576040517f08c379a0000000000000000000000000000000000000000000000000000000008152600401610e9790612783565b60405180910390fd5b60405180604001604052808660ff1681526020018560ff168152509250505092915050565b610ecd611bc1565b8282600063ffffffff168263ffffffff1610158015610efb57506201517f63ffffffff168263ffffffff1611155b610f3a576040517f08c379a0000000000000000000000000000000000000000000000000000000008152600401610f31906126f1565b60405180910390fd5b600063ffffffff168163ffffffff1610158015610f6657506201517f63ffffffff168163ffffffff1611155b610fa5576040517f08c379a0000000000000000000000000000000000000000000000000000000008152600401610f9c90612783565b60405180910390fd5b60405180604001604052808663ffffffff1681526020018563ffffffff168152509250505092915050565b610fd8611be7565b6000600460ff168360ff1611610ff857610ff183611489565b9050610ffd565b600190505b6040518060a001604052808563ffffffff1681526020018460ff1681526020018263ffffffff1681526020018563ffffffff168152602001600063ffffffff1681525091505092915050565b611051611c31565b6040518060400160405280600063ffffffff1681526020018363ffffffff168152509050919050565b611082611c57565b6040518060200160405280838152509050919050565b60008160006110ac8263ffffffff16611540565b9050600a815111156110bd57600080fd5b6000856000015163ffffffff161161110a576040517f08c379a000000000000000000000000000000000000000000000000000000000815260040161110190612815565b60405180910390fd5b846000015163ffffffff168463ffffffff16119250505092915050565b60018160000160098282829054906101000a900463ffffffff1661114b9190612864565b92506101000a81548163ffffffff021916908363ffffffff16021790555050565b600081600560008573ffffffffffffffffffffffffffffffffffffffff1673ffffffffffffffffffffffffffffffffffffffff16815260200190815260200160002060008201816000019080546111c29061264e565b6111cd929190611c6a565b506001820160009054906101000a900473ffffffffffffffffffffffffffffffffffffffff168160010160006101000a81548173ffffffffffffffffffffffffffffffffffffffff021916908373ffffffffffffffffffffffffffffffffffffffff1602179055506001820160149054906101000a900460ff168160010160146101000a81548160ff0219169083151502179055509050506001905092915050565b6000826020015160ff16836000015160ff1610156112be57826000015160ff168260ff16101580156112ab5750826020015160ff168260ff1611155b156112b957600190506112f5565b6112f0565b826000015160ff168260ff161015806112e15750826020015160ff168260ff1611155b156112ef57600190506112f5565b5b600090505b92915050565b6000826020015163ffffffff16836000015163ffffffff16101561135c57826000015163ffffffff168263ffffffff16101580156113495750826020015163ffffffff168263ffffffff1611155b15611357576001905061139f565b61139a565b826000015163ffffffff168263ffffffff1610158061138b5750826020015163ffffffff168263ffffffff1611155b15611399576001905061139f565b5b600090505b92915050565b60006113d78360000160049054906101000a900460ff1684600001600d9054906101000a900463ffffffff16846116a0565b156113e7576113e68383611765565b5b60008360000160099054906101000a900463ffffffff1663ffffffff1611156114135760019050611418565b600090505b92915050565b8060006114308263ffffffff16611540565b9050600a8151111561144157600080fd5b8360000160049054906101000a900463ffffffff16836114619190612898565b8460000160006101000a81548163ffffffff021916908363ffffffff16021790555050505050565b6000600460ff168260ff1611156114d5576040517f08c379a00000000000000000000000000000000000000000000000000000000081526004016114cc90612944565b60405180910390fd5b600060ff168260ff16036114ec576001905061153b565b600160ff168260ff160361150357603c905061153b565b600260ff168260ff160361151b57610e10905061153b565b600360ff168260ff16036115345762015180905061153b565b62093a8090505b919050565b606060008203611587576040518060400160405280600181526020017f3000000000000000000000000000000000000000000000000000000000000000815250905061169b565b600082905060005b600082146115b95780806115a29061296e565b915050600a826115b291906129e5565b915061158f565b60008167ffffffffffffffff8111156115d5576115d4611d7a565b5b6040519080825280601f01601f1916602001820160405280156116075781602001600182028036833780820191505090505b5090505b60008514611694576001826116209190612a16565b9150600a8561162f9190612a4a565b603061163b9190612a7b565b60f81b81838151811061165157611650612388565b5b60200101907effffffffffffffffffffffffffffffffffffffffffffffffffffffffffffff1916908160001a905350600a8561168d91906129e5565b945061160b565b8093505050505b919050565b600080849050600460ff168160ff16116116cc578363ffffffff168363ffffffff16101591505061175e565b600560ff168160ff16036117345760006116eb8463ffffffff166117f2565b50915050600d8563ffffffff1614801561170b575060018163ffffffff16145b1561171b5760019250505061175e565b8463ffffffff168163ffffffff1610159250505061175e565b60006117458463ffffffff166117f2565b505090508463ffffffff168163ffffffff161015925050505b9392505050565b8160000160009054906101000a900463ffffffff168260000160096101000a81548163ffffffff021916908363ffffffff1602179055506117cc8260000160059054906101000a900463ffffffff168360000160049054906101000a900460ff16836119a5565b82600001600d6101000a81548163ffffffff021916908363ffffffff1602179055505050565b6000806000806201518063ffffffff168561180d91906129e5565b9050600062253d8c62010bd9836118249190612898565b61182e9190612898565b9050600062023ab18260046118439190612ad1565b61184d9190612b0f565b9050600460038262023ab16118629190612ad1565b61186c9190612898565b6118769190612b0f565b826118819190612864565b9150600062164b096001846118969190612898565b610fa06118a39190612ad1565b6118ad9190612b0f565b9050601f6004826105b56118c19190612ad1565b6118cb9190612b0f565b846118d69190612864565b6118e09190612898565b9250600061098f8460506118f49190612ad1565b6118fe9190612b0f565b9050600060508261098f6119129190612ad1565b61191c9190612b0f565b856119279190612864565b9050600b826119369190612b0f565b945084600c6119459190612ad1565b6002836119529190612898565b61195c9190612864565b9150848360318661196d9190612864565b60646119799190612ad1565b6119839190612898565b61198d9190612898565b92508298508197508096505050505050509193909250565b6000600460ff168360ff16116119c7576119c0838386611a38565b9050611a31565b600560ff168360ff1603611a055760006119e68363ffffffff166117f2565b5063ffffffff169150506001816119fd9190612a7b565b915050611a31565b6000611a168363ffffffff166117f2565b505063ffffffff169050600181611a2d9190612a7b565b9150505b9392505050565b6000808284611a479190612b40565b905060008184611a579190612864565b9050600460ff168660ff1603611a8a576203f4808186611a779190612898565b611a819190612898565b92505050611a9b565b8085611a969190612898565b925050505b9392505050565b508054611aae9061264e565b6000825580601f10611ac05750611adf565b601f016020900490600052602060002090810190611ade9190611cf7565b5b50565b828054611aee9061264e565b90600052602060002090601f016020900481019282611b105760008555611b57565b82601f10611b2957805160ff1916838001178555611b57565b82800160010185558215611b57579182015b82811115611b56578251825591602001919060010190611b3b565b5b509050611b649190611cf7565b5090565b604051806060016040528060608152602001600073ffffffffffffffffffffffffffffffffffffffff1681526020016000151581525090565b6040518060400160405280600060ff168152602001600060ff1681525090565b6040518060400160405280600063ffffffff168152602001600063ffffffff1681525090565b6040518060a00160405280600063ffffffff168152602001600060ff168152602001600063ffffffff168152602001600063ffffffff168152602001600063ffffffff1681525090565b6040518060400160405280600063ffffffff168152602001600063ffffffff1681525090565b6040518060200160405280606081525090565b828054611c769061264e565b90600052602060002090601f016020900481019282611c985760008555611ce6565b82601f10611ca95780548555611ce6565b82800160010185558215611ce657600052602060002091601f016020900482015b82811115611ce5578254825591600101919060010190611cca565b5b509050611cf39190611cf7565b5090565b5b80821115611d10576000816000905550600101611cf8565b5090565b6000604051905090565b600080fd5b600080fd5b600063ffffffff82169050919050565b611d4181611d28565b8114611d4c57600080fd5b50565b600081359050611d5e81611d38565b92915050565b600080fd5b6000601f19601f8301169050919050565b7f4e487b7100000000000000000000000000000000000000000000000000000000600052604160045260246000fd5b611db282611d69565b810181811067ffffffffffffffff82111715611dd157611dd0611d7a565b5b80604052505050565b6000611de4611d14565b9050611df08282611da9565b919050565b600067ffffffffffffffff821115611e1057611e0f611d7a565b5b602082029050602081019050919050565b600080fd5b60008115159050919050565b611e3b81611e26565b8114611e4657600080fd5b50565b600081359050611e5881611e32565b92915050565b6000611e71611e6c84611df5565b611dda565b90508083825260208201905060208402830185811115611e9457611e93611e21565b5b835b81811015611ebd5780611ea98882611e49565b845260208401935050602081019050611e96565b5050509392505050565b600082601f830112611edc57611edb611d64565b5b8135611eec848260208601611e5e565b91505092915050565b60008060408385031215611f0c57611f0b611d1e565b5b6000611f1a85828601611d4f565b925050602083013567ffffffffffffffff811115611f3b57611f3a611d23565b5b611f4785828601611ec7565b9150509250929050565b611f5a81611e26565b82525050565b6000602082019050611f756000830184611f51565b92915050565b600080fd5b600067ffffffffffffffff821115611f9b57611f9a611d7a565b5b611fa482611d69565b9050602081019050919050565b82818337600083830152505050565b6000611fd3611fce84611f80565b611dda565b905082815260208101848484011115611fef57611fee611f7b565b5b611ffa848285611fb1565b509392505050565b600082601f83011261201757612016611d64565b5b8135612027848260208601611fc0565b91505092915050565b600073ffffffffffffffffffffffffffffffffffffffff82169050919050565b600061205b82612030565b9050919050565b61206b81612050565b811461207657600080fd5b50565b60008135905061208881612062565b92915050565b600080604083850312156120a5576120a4611d1e565b5b600083013567ffffffffffffffff8111156120c3576120c2611d23565b5b6120cf85828601612002565b92505060206120e085828601612079565b9150509250929050565b6120f381612050565b82525050565b600060208201905061210e60008301846120ea565b92915050565b600060ff82169050919050565b61212a81612114565b811461213557600080fd5b50565b60008135905061214781612121565b92915050565b60008060006060848603121561216657612165611d1e565b5b600061217486828701612138565b935050602061218586828701611d4f565b925050604061219686828701611d4f565b9150509250925092565b6000602082840312156121b6576121b5611d1e565b5b60006121c484828501612079565b91505092915050565b600081519050919050565b600082825260208201905092915050565b60005b838110156122075780820151818401526020810190506121ec565b83811115612216576000848401525b50505050565b6000612227826121cd565b61223181856121d8565b93506122418185602086016121e9565b61224a81611d69565b840191505092915050565b61225e81612050565b82525050565b61226d81611e26565b82525050565b60006060830160008301518482036000860152612290828261221c565b91505060208301516122a56020860182612255565b5060408301516122b86040860182612264565b508091505092915050565b600060208201905081810360008301526122dd8184612273565b905092915050565b600082825260208201905092915050565b7f4f6e6c7920746865206170706c69636174696f6e2063616e206578656375746560008201527f2074686973206f7065726174696f6e0000000000000000000000000000000000602082015250565b6000612352602f836122e5565b915061235d826122f6565b604082019050919050565b6000602082019050818103600083015261238181612345565b9050919050565b7f4e487b7100000000000000000000000000000000000000000000000000000000600052603260045260246000fd5b7f5375636365737366756c20657865637574696f6e210000000000000000000000600082015250565b60006123ed6015836122e5565b91506123f8826123b7565b602082019050919050565b6000602082019050818103600083015261241c816123e0565b9050919050565b7f436f6e646974696f6e7320646f206e6f74206d65657400000000000000000000600082015250565b60006124596016836122e5565b915061246482612423565b602082019050919050565b600060208201905081810360008301526124888161244c565b9050919050565b7f4f6e6c79207468652070726f636573732063616e20657865637574652074686960008201527f73206f7065726174696f6e000000000000000000000000000000000000000000602082015250565b60006124eb602b836122e5565b91506124f68261248f565b604082019050919050565b6000602082019050818103600083015261251a816124de565b9050919050565b7f4f6e6c79207468652070726f63657373206f7220746865206170706c6963617460008201527f696f6e2063616e20657865637574652074686973206f7065726174696f6e0000602082015250565b600061257d603e836122e5565b915061258882612521565b604082019050919050565b600060208201905081810360008301526125ac81612570565b9050919050565b7f54686520636f6e747261637420697320616c7265616479207369676e65640000600082015250565b60006125e9601e836122e5565b91506125f4826125b3565b602082019050919050565b60006020820190508181036000830152612618816125dc565b9050919050565b7f4e487b7100000000000000000000000000000000000000000000000000000000600052602260045260246000fd5b6000600282049050600182168061266657607f821691505b6020821081036126795761267861261f565b5b50919050565b7f546865205f7374617274446179206e6f7420726570726573656e74732061207660008201527f616c696420646179000000000000000000000000000000000000000000000000602082015250565b60006126db6028836122e5565b91506126e68261267f565b604082019050919050565b6000602082019050818103600083015261270a816126ce565b9050919050565b7f546865205f656e64446179206e6f7420726570726573656e747320612076616c60008201527f6964206461790000000000000000000000000000000000000000000000000000602082015250565b600061276d6026836122e5565b915061277882612711565b604082019050919050565b6000602082019050818103600083015261279c81612760565b9050919050565b7f5468657265206973206e6f20656e6454696d652073657420696e2074696d656f60008201527f7574000000000000000000000000000000000000000000000000000000000000602082015250565b60006127ff6022836122e5565b915061280a826127a3565b604082019050919050565b6000602082019050818103600083015261282e816127f2565b9050919050565b7f4e487b7100000000000000000000000000000000000000000000000000000000600052601160045260246000fd5b600061286f82611d28565b915061287a83611d28565b92508282101561288d5761288c612835565b5b828203905092915050565b60006128a382611d28565b91506128ae83611d28565b92508263ffffffff038211156128c7576128c6612835565b5b828201905092915050565b7f546865206d6574686f642067657454696d65496e5365636f6e647320646f657360008201527f6e277420776f726b20666f72204d4f4e544820616e6420594541520000000000602082015250565b600061292e603b836122e5565b9150612939826128d2565b604082019050919050565b6000602082019050818103600083015261295d81612921565b9050919050565b6000819050919050565b600061297982612964565b91507fffffffffffffffffffffffffffffffffffffffffffffffffffffffffffffffff82036129ab576129aa612835565b5b600182019050919050565b7f4e487b7100000000000000000000000000000000000000000000000000000000600052601260045260246000fd5b60006129f082612964565b91506129fb83612964565b925082612a0b57612a0a6129b6565b5b828204905092915050565b6000612a2182612964565b9150612a2c83612964565b925082821015612a3f57612a3e612835565b5b828203905092915050565b6000612a5582612964565b9150612a6083612964565b925082612a7057612a6f6129b6565b5b828206905092915050565b6000612a8682612964565b9150612a9183612964565b9250827fffffffffffffffffffffffffffffffffffffffffffffffffffffffffffffffff03821115612ac657612ac5612835565b5b828201905092915050565b6000612adc82611d28565b9150612ae783611d28565b92508163ffffffff0483118215151615612b0457612b03612835565b5b828202905092915050565b6000612b1a82611d28565b9150612b2583611d28565b925082612b3557612b346129b6565b5b828204905092915050565b6000612b4b82611d28565b9150612b5683611d28565b925082612b6657612b656129b6565b5b82820690509291505056fea26469706673582212209fb011a9640213cc933d7b5bfbe5151ea57fc4654cb5823c4d42fbbba1c704c064736f6c634300080d0033636f756e74282f2f626f64792f726571756573742f646f63756d656e7429203d3d20636f756e74282f2f626f64792f726573706f6e73652f646f63756d656e7429",
					"opcodes": "PUSH1 0x80 PUSH1 0x40 MSTORE CALLVALUE DUP1 ISZERO PUSH3 0x11 JUMPI PUSH1 0x0 DUP1 REVERT JUMPDEST POP PUSH1 0x40 MLOAD PUSH3 0x3C4E CODESIZE SUB DUP1 PUSH3 0x3C4E DUP4 CODECOPY DUP2 DUP2 ADD PUSH1 0x40 MSTORE DUP2 ADD SWAP1 PUSH3 0x37 SWAP2 SWAP1 PUSH3 0xDE7 JUMP JUMPDEST PUSH4 0x63B13D80 PUSH1 0x0 DUP1 PUSH2 0x100 EXP DUP2 SLOAD DUP2 PUSH4 0xFFFFFFFF MUL NOT AND SWAP1 DUP4 PUSH4 0xFFFFFFFF AND MUL OR SWAP1 SSTORE POP PUSH4 0x67733400 PUSH1 0x0 PUSH1 0x4 PUSH2 0x100 EXP DUP2 SLOAD DUP2 PUSH4 0xFFFFFFFF MUL NOT AND SWAP1 DUP4 PUSH4 0xFFFFFFFF AND MUL OR SWAP1 SSTORE POP PUSH3 0xCE PUSH1 0x40 MLOAD DUP1 PUSH1 0x40 ADD PUSH1 0x40 MSTORE DUP1 PUSH1 0x9 DUP2 MSTORE PUSH1 0x20 ADD PUSH32 0x4F72636964204150490000000000000000000000000000000000000000000000 DUP2 MSTORE POP DUP3 PUSH1 0x0 PUSH3 0x74B PUSH1 0x20 SHL PUSH3 0xD98 OR PUSH1 0x20 SHR JUMP JUMPDEST PUSH1 0x1 PUSH1 0x0 DUP3 ADD MLOAD DUP2 PUSH1 0x0 ADD SWAP1 DUP1 MLOAD SWAP1 PUSH1 0x20 ADD SWAP1 PUSH3 0xEE SWAP3 SWAP2 SWAP1 PUSH3 0xB33 JUMP JUMPDEST POP PUSH1 0x20 DUP3 ADD MLOAD DUP2 PUSH1 0x1 ADD PUSH1 0x0 PUSH2 0x100 EXP DUP2 SLOAD DUP2 PUSH20 0xFFFFFFFFFFFFFFFFFFFFFFFFFFFFFFFFFFFFFFFF MUL NOT AND SWAP1 DUP4 PUSH20 0xFFFFFFFFFFFFFFFFFFFFFFFFFFFFFFFFFFFFFFFF AND MUL OR SWAP1 SSTORE POP PUSH1 0x40 DUP3 ADD MLOAD DUP2 PUSH1 0x1 ADD PUSH1 0x14 PUSH2 0x100 EXP DUP2 SLOAD DUP2 PUSH1 0xFF MUL NOT AND SWAP1 DUP4 ISZERO ISZERO MUL OR SWAP1 SSTORE POP SWAP1 POP POP PUSH3 0x1A7 PUSH1 0x40 MLOAD DUP1 PUSH1 0x40 ADD PUSH1 0x40 MSTORE DUP1 PUSH1 0x13 DUP2 MSTORE PUSH1 0x20 ADD PUSH32 0x496E746567726174696F6E2050726F6365737300000000000000000000000000 DUP2 MSTORE POP CALLER PUSH1 0x1 PUSH3 0x74B PUSH1 0x20 SHL PUSH3 0xD98 OR PUSH1 0x20 SHR JUMP JUMPDEST PUSH1 0x3 PUSH1 0x0 DUP3 ADD MLOAD DUP2 PUSH1 0x0 ADD SWAP1 DUP1 MLOAD SWAP1 PUSH1 0x20 ADD SWAP1 PUSH3 0x1C7 SWAP3 SWAP2 SWAP1 PUSH3 0xB33 JUMP JUMPDEST POP PUSH1 0x20 DUP3 ADD MLOAD DUP2 PUSH1 0x1 ADD PUSH1 0x0 PUSH2 0x100 EXP DUP2 SLOAD DUP2 PUSH20 0xFFFFFFFFFFFFFFFFFFFFFFFFFFFFFFFFFFFFFFFF MUL NOT AND SWAP1 DUP4 PUSH20 0xFFFFFFFFFFFFFFFFFFFFFFFFFFFFFFFFFFFFFFFF AND MUL OR SWAP1 SSTORE POP PUSH1 0x40 DUP3 ADD MLOAD DUP2 PUSH1 0x1 ADD PUSH1 0x14 PUSH2 0x100 EXP DUP2 SLOAD DUP2 PUSH1 0xFF MUL NOT AND SWAP1 DUP4 ISZERO ISZERO MUL OR SWAP1 SSTORE POP SWAP1 POP POP PUSH1 0x3 PUSH1 0x5 PUSH1 0x0 CALLER PUSH20 0xFFFFFFFFFFFFFFFFFFFFFFFFFFFFFFFFFFFFFFFF AND PUSH20 0xFFFFFFFFFFFFFFFFFFFFFFFFFFFFFFFFFFFFFFFF AND DUP2 MSTORE PUSH1 0x20 ADD SWAP1 DUP2 MSTORE PUSH1 0x20 ADD PUSH1 0x0 KECCAK256 PUSH1 0x0 DUP3 ADD DUP2 PUSH1 0x0 ADD SWAP1 DUP1 SLOAD PUSH3 0x289 SWAP1 PUSH3 0xE48 JUMP JUMPDEST PUSH3 0x296 SWAP3 SWAP2 SWAP1 PUSH3 0xBC4 JUMP JUMPDEST POP PUSH1 0x1 DUP3 ADD PUSH1 0x0 SWAP1 SLOAD SWAP1 PUSH2 0x100 EXP SWAP1 DIV PUSH20 0xFFFFFFFFFFFFFFFFFFFFFFFFFFFFFFFFFFFFFFFF AND DUP2 PUSH1 0x1 ADD PUSH1 0x0 PUSH2 0x100 EXP DUP2 SLOAD DUP2 PUSH20 0xFFFFFFFFFFFFFFFFFFFFFFFFFFFFFFFFFFFFFFFF MUL NOT AND SWAP1 DUP4 PUSH20 0xFFFFFFFFFFFFFFFFFFFFFFFFFFFFFFFFFFFFFFFF AND MUL OR SWAP1 SSTORE POP PUSH1 0x1 DUP3 ADD PUSH1 0x14 SWAP1 SLOAD SWAP1 PUSH2 0x100 EXP SWAP1 DIV PUSH1 0xFF AND DUP2 PUSH1 0x1 ADD PUSH1 0x14 PUSH2 0x100 EXP DUP2 SLOAD DUP2 PUSH1 0xFF MUL NOT AND SWAP1 DUP4 ISZERO ISZERO MUL OR SWAP1 SSTORE POP SWAP1 POP POP PUSH1 0x1 PUSH1 0x5 PUSH1 0x0 DUP4 PUSH20 0xFFFFFFFFFFFFFFFFFFFFFFFFFFFFFFFFFFFFFFFF AND PUSH20 0xFFFFFFFFFFFFFFFFFFFFFFFFFFFFFFFFFFFFFFFF AND DUP2 MSTORE PUSH1 0x20 ADD SWAP1 DUP2 MSTORE PUSH1 0x20 ADD PUSH1 0x0 KECCAK256 PUSH1 0x0 DUP3 ADD DUP2 PUSH1 0x0 ADD SWAP1 DUP1 SLOAD PUSH3 0x385 SWAP1 PUSH3 0xE48 JUMP JUMPDEST PUSH3 0x392 SWAP3 SWAP2 SWAP1 PUSH3 0xBC4 JUMP JUMPDEST POP PUSH1 0x1 DUP3 ADD PUSH1 0x0 SWAP1 SLOAD SWAP1 PUSH2 0x100 EXP SWAP1 DIV PUSH20 0xFFFFFFFFFFFFFFFFFFFFFFFFFFFFFFFFFFFFFFFF AND DUP2 PUSH1 0x1 ADD PUSH1 0x0 PUSH2 0x100 EXP DUP2 SLOAD DUP2 PUSH20 0xFFFFFFFFFFFFFFFFFFFFFFFFFFFFFFFFFFFFFFFF MUL NOT AND SWAP1 DUP4 PUSH20 0xFFFFFFFFFFFFFFFFFFFFFFFFFFFFFFFFFFFFFFFF AND MUL OR SWAP1 SSTORE POP PUSH1 0x1 DUP3 ADD PUSH1 0x14 SWAP1 SLOAD SWAP1 PUSH2 0x100 EXP SWAP1 DIV PUSH1 0xFF AND DUP2 PUSH1 0x1 ADD PUSH1 0x14 PUSH2 0x100 EXP DUP2 SLOAD DUP2 PUSH1 0xFF MUL NOT AND SWAP1 DUP4 ISZERO ISZERO MUL OR SWAP1 SSTORE POP SWAP1 POP POP PUSH1 0x6 PUSH3 0x445 PUSH1 0x0 PUSH1 0x6 PUSH3 0x791 PUSH1 0x20 SHL PUSH3 0xDDC OR PUSH1 0x20 SHR JUMP JUMPDEST SWAP1 DUP1 PUSH1 0x1 DUP2 SLOAD ADD DUP1 DUP3 SSTORE DUP1 SWAP2 POP POP PUSH1 0x1 SWAP1 SUB SWAP1 PUSH1 0x0 MSTORE PUSH1 0x20 PUSH1 0x0 KECCAK256 ADD PUSH1 0x0 SWAP1 SWAP2 SWAP1 SWAP2 SWAP1 SWAP2 POP PUSH1 0x0 DUP3 ADD MLOAD DUP2 PUSH1 0x0 ADD PUSH1 0x0 PUSH2 0x100 EXP DUP2 SLOAD DUP2 PUSH1 0xFF MUL NOT AND SWAP1 DUP4 PUSH1 0xFF AND MUL OR SWAP1 SSTORE POP PUSH1 0x20 DUP3 ADD MLOAD DUP2 PUSH1 0x0 ADD PUSH1 0x1 PUSH2 0x100 EXP DUP2 SLOAD DUP2 PUSH1 0xFF MUL NOT AND SWAP1 DUP4 PUSH1 0xFF AND MUL OR SWAP1 SSTORE POP POP POP PUSH1 0x7 PUSH3 0x4CB PUSH1 0x0 PUSH3 0x1517F PUSH3 0x884 PUSH1 0x20 SHL PUSH3 0xEC5 OR PUSH1 0x20 SHR JUMP JUMPDEST SWAP1 DUP1 PUSH1 0x1 DUP2 SLOAD ADD DUP1 DUP3 SSTORE DUP1 SWAP2 POP POP PUSH1 0x1 SWAP1 SUB SWAP1 PUSH1 0x0 MSTORE PUSH1 0x20 PUSH1 0x0 KECCAK256 ADD PUSH1 0x0 SWAP1 SWAP2 SWAP1 SWAP2 SWAP1 SWAP2 POP PUSH1 0x0 DUP3 ADD MLOAD DUP2 PUSH1 0x0 ADD PUSH1 0x0 PUSH2 0x100 EXP DUP2 SLOAD DUP2 PUSH4 0xFFFFFFFF MUL NOT AND SWAP1 DUP4 PUSH4 0xFFFFFFFF AND MUL OR SWAP1 SSTORE POP PUSH1 0x20 DUP3 ADD MLOAD DUP2 PUSH1 0x0 ADD PUSH1 0x4 PUSH2 0x100 EXP DUP2 SLOAD DUP2 PUSH4 0xFFFFFFFF MUL NOT AND SWAP1 DUP4 PUSH4 0xFFFFFFFF AND MUL OR SWAP1 SSTORE POP POP POP PUSH1 0x8 PUSH3 0x55B PUSH1 0x18 PUSH1 0x0 PUSH3 0x999 PUSH1 0x20 SHL PUSH3 0xFD0 OR PUSH1 0x20 SHR JUMP JUMPDEST SWAP1 DUP1 PUSH1 0x1 DUP2 SLOAD ADD DUP1 DUP3 SSTORE DUP1 SWAP2 POP POP PUSH1 0x1 SWAP1 SUB SWAP1 PUSH1 0x0 MSTORE PUSH1 0x20 PUSH1 0x0 KECCAK256 ADD PUSH1 0x0 SWAP1 SWAP2 SWAP1 SWAP2 SWAP1 SWAP2 POP PUSH1 0x0 DUP3 ADD MLOAD DUP2 PUSH1 0x0 ADD PUSH1 0x0 PUSH2 0x100 EXP DUP2 SLOAD DUP2 PUSH4 0xFFFFFFFF MUL NOT AND SWAP1 DUP4 PUSH4 0xFFFFFFFF AND MUL OR SWAP1 SSTORE POP PUSH1 0x20 DUP3 ADD MLOAD DUP2 PUSH1 0x0 ADD PUSH1 0x4 PUSH2 0x100 EXP DUP2 SLOAD DUP2 PUSH1 0xFF MUL NOT AND SWAP1 DUP4 PUSH1 0xFF AND MUL OR SWAP1 SSTORE POP PUSH1 0x40 DUP3 ADD MLOAD DUP2 PUSH1 0x0 ADD PUSH1 0x5 PUSH2 0x100 EXP DUP2 SLOAD DUP2 PUSH4 0xFFFFFFFF MUL NOT AND SWAP1 DUP4 PUSH4 0xFFFFFFFF AND MUL OR SWAP1 SSTORE POP PUSH1 0x60 DUP3 ADD MLOAD DUP2 PUSH1 0x0 ADD PUSH1 0x9 PUSH2 0x100 EXP DUP2 SLOAD DUP2 PUSH4 0xFFFFFFFF MUL NOT AND SWAP1 DUP4 PUSH4 0xFFFFFFFF AND MUL OR SWAP1 SSTORE POP PUSH1 0x80 DUP3 ADD MLOAD DUP2 PUSH1 0x0 ADD PUSH1 0xD PUSH2 0x100 EXP DUP2 SLOAD DUP2 PUSH4 0xFFFFFFFF MUL NOT AND SWAP1 DUP4 PUSH4 0xFFFFFFFF AND MUL OR SWAP1 SSTORE POP POP POP PUSH1 0x9 PUSH3 0x658 PUSH1 0x3C PUSH3 0xA1E PUSH1 0x20 SHL PUSH3 0x1049 OR PUSH1 0x20 SHR JUMP JUMPDEST SWAP1 DUP1 PUSH1 0x1 DUP2 SLOAD ADD DUP1 DUP3 SSTORE DUP1 SWAP2 POP POP PUSH1 0x1 SWAP1 SUB SWAP1 PUSH1 0x0 MSTORE PUSH1 0x20 PUSH1 0x0 KECCAK256 ADD PUSH1 0x0 SWAP1 SWAP2 SWAP1 SWAP2 SWAP1 SWAP2 POP PUSH1 0x0 DUP3 ADD MLOAD DUP2 PUSH1 0x0 ADD PUSH1 0x0 PUSH2 0x100 EXP DUP2 SLOAD DUP2 PUSH4 0xFFFFFFFF MUL NOT AND SWAP1 DUP4 PUSH4 0xFFFFFFFF AND MUL OR SWAP1 SSTORE POP PUSH1 0x20 DUP3 ADD MLOAD DUP2 PUSH1 0x0 ADD PUSH1 0x4 PUSH2 0x100 EXP DUP2 SLOAD DUP2 PUSH4 0xFFFFFFFF MUL NOT AND SWAP1 DUP4 PUSH4 0xFFFFFFFF AND MUL OR SWAP1 SSTORE POP POP POP PUSH1 0xA PUSH3 0x6FE PUSH1 0x40 MLOAD DUP1 PUSH1 0x80 ADD PUSH1 0x40 MSTORE DUP1 PUSH1 0x41 DUP2 MSTORE PUSH1 0x20 ADD PUSH3 0x3C0D PUSH1 0x41 SWAP2 CODECOPY PUSH3 0xA51 PUSH1 0x20 SHL PUSH3 0x107A OR PUSH1 0x20 SHR JUMP JUMPDEST SWAP1 DUP1 PUSH1 0x1 DUP2 SLOAD ADD DUP1 DUP3 SSTORE DUP1 SWAP2 POP POP PUSH1 0x1 SWAP1 SUB SWAP1 PUSH1 0x0 MSTORE PUSH1 0x20 PUSH1 0x0 KECCAK256 ADD PUSH1 0x0 SWAP1 SWAP2 SWAP1 SWAP2 SWAP1 SWAP2 POP PUSH1 0x0 DUP3 ADD MLOAD DUP2 PUSH1 0x0 ADD SWAP1 DUP1 MLOAD SWAP1 PUSH1 0x20 ADD SWAP1 PUSH3 0x741 SWAP3 SWAP2 SWAP1 PUSH3 0xB33 JUMP JUMPDEST POP POP POP POP PUSH3 0x1056 JUMP JUMPDEST PUSH3 0x755 PUSH3 0xC5C JUMP JUMPDEST PUSH1 0x40 MLOAD DUP1 PUSH1 0x60 ADD PUSH1 0x40 MSTORE DUP1 DUP6 DUP2 MSTORE PUSH1 0x20 ADD DUP5 PUSH20 0xFFFFFFFFFFFFFFFFFFFFFFFFFFFFFFFFFFFFFFFF AND DUP2 MSTORE PUSH1 0x20 ADD DUP4 ISZERO ISZERO DUP2 MSTORE POP SWAP1 POP SWAP4 SWAP3 POP POP POP JUMP JUMPDEST PUSH3 0x79B PUSH3 0xC95 JUMP JUMPDEST DUP3 DUP3 PUSH1 0x0 PUSH1 0xFF AND DUP3 PUSH1 0xFF AND LT ISZERO DUP1 ISZERO PUSH3 0x7BC JUMPI POP PUSH1 0x6 PUSH1 0xFF AND DUP3 PUSH1 0xFF AND GT ISZERO JUMPDEST PUSH3 0x7FE JUMPI PUSH1 0x40 MLOAD PUSH32 0x8C379A000000000000000000000000000000000000000000000000000000000 DUP2 MSTORE PUSH1 0x4 ADD PUSH3 0x7F5 SWAP1 PUSH3 0xF04 JUMP JUMPDEST PUSH1 0x40 MLOAD DUP1 SWAP2 SUB SWAP1 REVERT JUMPDEST PUSH1 0x0 PUSH1 0xFF AND DUP2 PUSH1 0xFF AND LT ISZERO DUP1 ISZERO PUSH3 0x81D JUMPI POP PUSH1 0x6 PUSH1 0xFF AND DUP2 PUSH1 0xFF AND GT ISZERO JUMPDEST PUSH3 0x85F JUMPI PUSH1 0x40 MLOAD PUSH32 0x8C379A000000000000000000000000000000000000000000000000000000000 DUP2 MSTORE PUSH1 0x4 ADD PUSH3 0x856 SWAP1 PUSH3 0xF9C JUMP JUMPDEST PUSH1 0x40 MLOAD DUP1 SWAP2 SUB SWAP1 REVERT JUMPDEST PUSH1 0x40 MLOAD DUP1 PUSH1 0x40 ADD PUSH1 0x40 MSTORE DUP1 DUP7 PUSH1 0xFF AND DUP2 MSTORE PUSH1 0x20 ADD DUP6 PUSH1 0xFF AND DUP2 MSTORE POP SWAP3 POP POP POP SWAP3 SWAP2 POP POP JUMP JUMPDEST PUSH3 0x88E PUSH3 0xCB5 JUMP JUMPDEST DUP3 DUP3 PUSH1 0x0 PUSH4 0xFFFFFFFF AND DUP3 PUSH4 0xFFFFFFFF AND LT ISZERO DUP1 ISZERO PUSH3 0x8BD JUMPI POP PUSH3 0x1517F PUSH4 0xFFFFFFFF AND DUP3 PUSH4 0xFFFFFFFF AND GT ISZERO JUMPDEST PUSH3 0x8FF JUMPI PUSH1 0x40 MLOAD PUSH32 0x8C379A000000000000000000000000000000000000000000000000000000000 DUP2 MSTORE PUSH1 0x4 ADD PUSH3 0x8F6 SWAP1 PUSH3 0xF04 JUMP JUMPDEST PUSH1 0x40 MLOAD DUP1 SWAP2 SUB SWAP1 REVERT JUMPDEST PUSH1 0x0 PUSH4 0xFFFFFFFF AND DUP2 PUSH4 0xFFFFFFFF AND LT ISZERO DUP1 ISZERO PUSH3 0x92C JUMPI POP PUSH3 0x1517F PUSH4 0xFFFFFFFF AND DUP2 PUSH4 0xFFFFFFFF AND GT ISZERO JUMPDEST PUSH3 0x96E JUMPI PUSH1 0x40 MLOAD PUSH32 0x8C379A000000000000000000000000000000000000000000000000000000000 DUP2 MSTORE PUSH1 0x4 ADD PUSH3 0x965 SWAP1 PUSH3 0xF9C JUMP JUMPDEST PUSH1 0x40 MLOAD DUP1 SWAP2 SUB SWAP1 REVERT JUMPDEST PUSH1 0x40 MLOAD DUP1 PUSH1 0x40 ADD PUSH1 0x40 MSTORE DUP1 DUP7 PUSH4 0xFFFFFFFF AND DUP2 MSTORE PUSH1 0x20 ADD DUP6 PUSH4 0xFFFFFFFF AND DUP2 MSTORE POP SWAP3 POP POP POP SWAP3 SWAP2 POP POP JUMP JUMPDEST PUSH3 0x9A3 PUSH3 0xCDB JUMP JUMPDEST PUSH1 0x0 PUSH1 0x4 PUSH1 0xFF AND DUP4 PUSH1 0xFF AND GT PUSH3 0x9CD JUMPI PUSH3 0x9C5 DUP4 PUSH3 0xA71 PUSH1 0x20 SHL PUSH1 0x20 SHR JUMP JUMPDEST SWAP1 POP PUSH3 0x9D2 JUMP JUMPDEST PUSH1 0x1 SWAP1 POP JUMPDEST PUSH1 0x40 MLOAD DUP1 PUSH1 0xA0 ADD PUSH1 0x40 MSTORE DUP1 DUP6 PUSH4 0xFFFFFFFF AND DUP2 MSTORE PUSH1 0x20 ADD DUP5 PUSH1 0xFF AND DUP2 MSTORE PUSH1 0x20 ADD DUP3 PUSH4 0xFFFFFFFF AND DUP2 MSTORE PUSH1 0x20 ADD DUP6 PUSH4 0xFFFFFFFF AND DUP2 MSTORE PUSH1 0x20 ADD PUSH1 0x0 PUSH4 0xFFFFFFFF AND DUP2 MSTORE POP SWAP2 POP POP SWAP3 SWAP2 POP POP JUMP JUMPDEST PUSH3 0xA28 PUSH3 0xD25 JUMP JUMPDEST PUSH1 0x40 MLOAD DUP1 PUSH1 0x40 ADD PUSH1 0x40 MSTORE DUP1 PUSH1 0x0 PUSH4 0xFFFFFFFF AND DUP2 MSTORE PUSH1 0x20 ADD DUP4 PUSH4 0xFFFFFFFF AND DUP2 MSTORE POP SWAP1 POP SWAP2 SWAP1 POP JUMP JUMPDEST PUSH3 0xA5B PUSH3 0xD4B JUMP JUMPDEST PUSH1 0x40 MLOAD DUP1 PUSH1 0x20 ADD PUSH1 0x40 MSTORE DUP1 DUP4 DUP2 MSTORE POP SWAP1 POP SWAP2 SWAP1 POP JUMP JUMPDEST PUSH1 0x0 PUSH1 0x4 PUSH1 0xFF AND DUP3 PUSH1 0xFF AND GT ISZERO PUSH3 0xAC0 JUMPI PUSH1 0x40 MLOAD PUSH32 0x8C379A000000000000000000000000000000000000000000000000000000000 DUP2 MSTORE PUSH1 0x4 ADD PUSH3 0xAB7 SWAP1 PUSH3 0x1034 JUMP JUMPDEST PUSH1 0x40 MLOAD DUP1 SWAP2 SUB SWAP1 REVERT JUMPDEST PUSH1 0x0 PUSH1 0xFF AND DUP3 PUSH1 0xFF AND SUB PUSH3 0xAD9 JUMPI PUSH1 0x1 SWAP1 POP PUSH3 0xB2E JUMP JUMPDEST PUSH1 0x1 PUSH1 0xFF AND DUP3 PUSH1 0xFF AND SUB PUSH3 0xAF2 JUMPI PUSH1 0x3C SWAP1 POP PUSH3 0xB2E JUMP JUMPDEST PUSH1 0x2 PUSH1 0xFF AND DUP3 PUSH1 0xFF AND SUB PUSH3 0xB0C JUMPI PUSH2 0xE10 SWAP1 POP PUSH3 0xB2E JUMP JUMPDEST PUSH1 0x3 PUSH1 0xFF AND DUP3 PUSH1 0xFF AND SUB PUSH3 0xB27 JUMPI PUSH3 0x15180 SWAP1 POP PUSH3 0xB2E JUMP JUMPDEST PUSH3 0x93A80 SWAP1 POP JUMPDEST SWAP2 SWAP1 POP JUMP JUMPDEST DUP3 DUP1 SLOAD PUSH3 0xB41 SWAP1 PUSH3 0xE48 JUMP JUMPDEST SWAP1 PUSH1 0x0 MSTORE PUSH1 0x20 PUSH1 0x0 KECCAK256 SWAP1 PUSH1 0x1F ADD PUSH1 0x20 SWAP1 DIV DUP2 ADD SWAP3 DUP3 PUSH3 0xB65 JUMPI PUSH1 0x0 DUP6 SSTORE PUSH3 0xBB1 JUMP JUMPDEST DUP3 PUSH1 0x1F LT PUSH3 0xB80 JUMPI DUP1 MLOAD PUSH1 0xFF NOT AND DUP4 DUP1 ADD OR DUP6 SSTORE PUSH3 0xBB1 JUMP JUMPDEST DUP3 DUP1 ADD PUSH1 0x1 ADD DUP6 SSTORE DUP3 ISZERO PUSH3 0xBB1 JUMPI SWAP2 DUP3 ADD JUMPDEST DUP3 DUP2 GT ISZERO PUSH3 0xBB0 JUMPI DUP3 MLOAD DUP3 SSTORE SWAP2 PUSH1 0x20 ADD SWAP2 SWAP1 PUSH1 0x1 ADD SWAP1 PUSH3 0xB93 JUMP JUMPDEST JUMPDEST POP SWAP1 POP PUSH3 0xBC0 SWAP2 SWAP1 PUSH3 0xD5E JUMP JUMPDEST POP SWAP1 JUMP JUMPDEST DUP3 DUP1 SLOAD PUSH3 0xBD2 SWAP1 PUSH3 0xE48 JUMP JUMPDEST SWAP1 PUSH1 0x0 MSTORE PUSH1 0x20 PUSH1 0x0 KECCAK256 SWAP1 PUSH1 0x1F ADD PUSH1 0x20 SWAP1 DIV DUP2 ADD SWAP3 DUP3 PUSH3 0xBF6 JUMPI PUSH1 0x0 DUP6 SSTORE PUSH3 0xC49 JUMP JUMPDEST DUP3 PUSH1 0x1F LT PUSH3 0xC09 JUMPI DUP1 SLOAD DUP6 SSTORE PUSH3 0xC49 JUMP JUMPDEST DUP3 DUP1 ADD PUSH1 0x1 ADD DUP6 SSTORE DUP3 ISZERO PUSH3 0xC49 JUMPI PUSH1 0x0 MSTORE PUSH1 0x20 PUSH1 0x0 KECCAK256 SWAP2 PUSH1 0x1F ADD PUSH1 0x20 SWAP1 DIV DUP3 ADD JUMPDEST DUP3 DUP2 GT ISZERO PUSH3 0xC48 JUMPI DUP3 SLOAD DUP3 SSTORE SWAP2 PUSH1 0x1 ADD SWAP2 SWAP1 PUSH1 0x1 ADD SWAP1 PUSH3 0xC2B JUMP JUMPDEST JUMPDEST POP SWAP1 POP PUSH3 0xC58 SWAP2 SWAP1 PUSH3 0xD5E JUMP JUMPDEST POP SWAP1 JUMP JUMPDEST PUSH1 0x40 MLOAD DUP1 PUSH1 0x60 ADD PUSH1 0x40 MSTORE DUP1 PUSH1 0x60 DUP2 MSTORE PUSH1 0x20 ADD PUSH1 0x0 PUSH20 0xFFFFFFFFFFFFFFFFFFFFFFFFFFFFFFFFFFFFFFFF AND DUP2 MSTORE PUSH1 0x20 ADD PUSH1 0x0 ISZERO ISZERO DUP2 MSTORE POP SWAP1 JUMP JUMPDEST PUSH1 0x40 MLOAD DUP1 PUSH1 0x40 ADD PUSH1 0x40 MSTORE DUP1 PUSH1 0x0 PUSH1 0xFF AND DUP2 MSTORE PUSH1 0x20 ADD PUSH1 0x0 PUSH1 0xFF AND DUP2 MSTORE POP SWAP1 JUMP JUMPDEST PUSH1 0x40 MLOAD DUP1 PUSH1 0x40 ADD PUSH1 0x40 MSTORE DUP1 PUSH1 0x0 PUSH4 0xFFFFFFFF AND DUP2 MSTORE PUSH1 0x20 ADD PUSH1 0x0 PUSH4 0xFFFFFFFF AND DUP2 MSTORE POP SWAP1 JUMP JUMPDEST PUSH1 0x40 MLOAD DUP1 PUSH1 0xA0 ADD PUSH1 0x40 MSTORE DUP1 PUSH1 0x0 PUSH4 0xFFFFFFFF AND DUP2 MSTORE PUSH1 0x20 ADD PUSH1 0x0 PUSH1 0xFF AND DUP2 MSTORE PUSH1 0x20 ADD PUSH1 0x0 PUSH4 0xFFFFFFFF AND DUP2 MSTORE PUSH1 0x20 ADD PUSH1 0x0 PUSH4 0xFFFFFFFF AND DUP2 MSTORE PUSH1 0x20 ADD PUSH1 0x0 PUSH4 0xFFFFFFFF AND DUP2 MSTORE POP SWAP1 JUMP JUMPDEST PUSH1 0x40 MLOAD DUP1 PUSH1 0x40 ADD PUSH1 0x40 MSTORE DUP1 PUSH1 0x0 PUSH4 0xFFFFFFFF AND DUP2 MSTORE PUSH1 0x20 ADD PUSH1 0x0 PUSH4 0xFFFFFFFF AND DUP2 MSTORE POP SWAP1 JUMP JUMPDEST PUSH1 0x40 MLOAD DUP1 PUSH1 0x20 ADD PUSH1 0x40 MSTORE DUP1 PUSH1 0x60 DUP2 MSTORE POP SWAP1 JUMP JUMPDEST JUMPDEST DUP1 DUP3 GT ISZERO PUSH3 0xD79 JUMPI PUSH1 0x0 DUP2 PUSH1 0x0 SWAP1 SSTORE POP PUSH1 0x1 ADD PUSH3 0xD5F JUMP JUMPDEST POP SWAP1 JUMP JUMPDEST PUSH1 0x0 DUP1 REVERT JUMPDEST PUSH1 0x0 PUSH20 0xFFFFFFFFFFFFFFFFFFFFFFFFFFFFFFFFFFFFFFFF DUP3 AND SWAP1 POP SWAP2 SWAP1 POP JUMP JUMPDEST PUSH1 0x0 PUSH3 0xDAF DUP3 PUSH3 0xD82 JUMP JUMPDEST SWAP1 POP SWAP2 SWAP1 POP JUMP JUMPDEST PUSH3 0xDC1 DUP2 PUSH3 0xDA2 JUMP JUMPDEST DUP2 EQ PUSH3 0xDCD JUMPI PUSH1 0x0 DUP1 REVERT JUMPDEST POP JUMP JUMPDEST PUSH1 0x0 DUP2 MLOAD SWAP1 POP PUSH3 0xDE1 DUP2 PUSH3 0xDB6 JUMP JUMPDEST SWAP3 SWAP2 POP POP JUMP JUMPDEST PUSH1 0x0 PUSH1 0x20 DUP3 DUP5 SUB SLT ISZERO PUSH3 0xE00 JUMPI PUSH3 0xDFF PUSH3 0xD7D JUMP JUMPDEST JUMPDEST PUSH1 0x0 PUSH3 0xE10 DUP5 DUP3 DUP6 ADD PUSH3 0xDD0 JUMP JUMPDEST SWAP2 POP POP SWAP3 SWAP2 POP POP JUMP JUMPDEST PUSH32 0x4E487B7100000000000000000000000000000000000000000000000000000000 PUSH1 0x0 MSTORE PUSH1 0x22 PUSH1 0x4 MSTORE PUSH1 0x24 PUSH1 0x0 REVERT JUMPDEST PUSH1 0x0 PUSH1 0x2 DUP3 DIV SWAP1 POP PUSH1 0x1 DUP3 AND DUP1 PUSH3 0xE61 JUMPI PUSH1 0x7F DUP3 AND SWAP2 POP JUMPDEST PUSH1 0x20 DUP3 LT DUP2 SUB PUSH3 0xE77 JUMPI PUSH3 0xE76 PUSH3 0xE19 JUMP JUMPDEST JUMPDEST POP SWAP2 SWAP1 POP JUMP JUMPDEST PUSH1 0x0 DUP3 DUP3 MSTORE PUSH1 0x20 DUP3 ADD SWAP1 POP SWAP3 SWAP2 POP POP JUMP JUMPDEST PUSH32 0x546865205F7374617274446179206E6F7420726570726573656E747320612076 PUSH1 0x0 DUP3 ADD MSTORE PUSH32 0x616C696420646179000000000000000000000000000000000000000000000000 PUSH1 0x20 DUP3 ADD MSTORE POP JUMP JUMPDEST PUSH1 0x0 PUSH3 0xEEC PUSH1 0x28 DUP4 PUSH3 0xE7D JUMP JUMPDEST SWAP2 POP PUSH3 0xEF9 DUP3 PUSH3 0xE8E JUMP JUMPDEST PUSH1 0x40 DUP3 ADD SWAP1 POP SWAP2 SWAP1 POP JUMP JUMPDEST PUSH1 0x0 PUSH1 0x20 DUP3 ADD SWAP1 POP DUP2 DUP2 SUB PUSH1 0x0 DUP4 ADD MSTORE PUSH3 0xF1F DUP2 PUSH3 0xEDD JUMP JUMPDEST SWAP1 POP SWAP2 SWAP1 POP JUMP JUMPDEST PUSH32 0x546865205F656E64446179206E6F7420726570726573656E747320612076616C PUSH1 0x0 DUP3 ADD MSTORE PUSH32 0x6964206461790000000000000000000000000000000000000000000000000000 PUSH1 0x20 DUP3 ADD MSTORE POP JUMP JUMPDEST PUSH1 0x0 PUSH3 0xF84 PUSH1 0x26 DUP4 PUSH3 0xE7D JUMP JUMPDEST SWAP2 POP PUSH3 0xF91 DUP3 PUSH3 0xF26 JUMP JUMPDEST PUSH1 0x40 DUP3 ADD SWAP1 POP SWAP2 SWAP1 POP JUMP JUMPDEST PUSH1 0x0 PUSH1 0x20 DUP3 ADD SWAP1 POP DUP2 DUP2 SUB PUSH1 0x0 DUP4 ADD MSTORE PUSH3 0xFB7 DUP2 PUSH3 0xF75 JUMP JUMPDEST SWAP1 POP SWAP2 SWAP1 POP JUMP JUMPDEST PUSH32 0x546865206D6574686F642067657454696D65496E5365636F6E647320646F6573 PUSH1 0x0 DUP3 ADD MSTORE PUSH32 0x6E277420776F726B20666F72204D4F4E544820616E6420594541520000000000 PUSH1 0x20 DUP3 ADD MSTORE POP JUMP JUMPDEST PUSH1 0x0 PUSH3 0x101C PUSH1 0x3B DUP4 PUSH3 0xE7D JUMP JUMPDEST SWAP2 POP PUSH3 0x1029 DUP3 PUSH3 0xFBE JUMP JUMPDEST PUSH1 0x40 DUP3 ADD SWAP1 POP SWAP2 SWAP1 POP JUMP JUMPDEST PUSH1 0x0 PUSH1 0x20 DUP3 ADD SWAP1 POP DUP2 DUP2 SUB PUSH1 0x0 DUP4 ADD MSTORE PUSH3 0x104F DUP2 PUSH3 0x100D JUMP JUMPDEST SWAP1 POP SWAP2 SWAP1 POP JUMP JUMPDEST PUSH2 0x2BA7 DUP1 PUSH3 0x1066 PUSH1 0x0 CODECOPY PUSH1 0x0 RETURN INVALID PUSH1 0x80 PUSH1 0x40 MSTORE CALLVALUE DUP1 ISZERO PUSH2 0x10 JUMPI PUSH1 0x0 DUP1 REVERT JUMPDEST POP PUSH1 0x4 CALLDATASIZE LT PUSH2 0x7D JUMPI PUSH1 0x0 CALLDATALOAD PUSH1 0xE0 SHR DUP1 PUSH4 0x85931911 GT PUSH2 0x5B JUMPI DUP1 PUSH4 0x85931911 EQ PUSH2 0x100 JUMPI DUP1 PUSH4 0x9C764223 EQ PUSH2 0x11E JUMPI DUP1 PUSH4 0xB8B4F1A0 EQ PUSH2 0x14E JUMPI DUP1 PUSH4 0xFB6F8243 EQ PUSH2 0x16C JUMPI PUSH2 0x7D JUMP JUMPDEST DUP1 PUSH4 0x22D53D53 EQ PUSH2 0x82 JUMPI DUP1 PUSH4 0x5E744C6A EQ PUSH2 0xB2 JUMPI DUP1 PUSH4 0x70D8915A EQ PUSH2 0xE2 JUMPI JUMPDEST PUSH1 0x0 DUP1 REVERT JUMPDEST PUSH2 0x9C PUSH1 0x4 DUP1 CALLDATASIZE SUB DUP2 ADD SWAP1 PUSH2 0x97 SWAP2 SWAP1 PUSH2 0x1EF5 JUMP JUMPDEST PUSH2 0x19C JUMP JUMPDEST PUSH1 0x40 MLOAD PUSH2 0xA9 SWAP2 SWAP1 PUSH2 0x1F60 JUMP JUMPDEST PUSH1 0x40 MLOAD DUP1 SWAP2 SUB SWAP1 RETURN JUMPDEST PUSH2 0xCC PUSH1 0x4 DUP1 CALLDATASIZE SUB DUP2 ADD SWAP1 PUSH2 0xC7 SWAP2 SWAP1 PUSH2 0x208E JUMP JUMPDEST PUSH2 0x386 JUMP JUMPDEST PUSH1 0x40 MLOAD PUSH2 0xD9 SWAP2 SWAP1 PUSH2 0x1F60 JUMP JUMPDEST PUSH1 0x40 MLOAD DUP1 SWAP2 SUB SWAP1 RETURN JUMPDEST PUSH2 0xEA PUSH2 0x577 JUMP JUMPDEST PUSH1 0x40 MLOAD PUSH2 0xF7 SWAP2 SWAP1 PUSH2 0x20F9 JUMP JUMPDEST PUSH1 0x40 MLOAD DUP1 SWAP2 SUB SWAP1 RETURN JUMPDEST PUSH2 0x108 PUSH2 0x690 JUMP JUMPDEST PUSH1 0x40 MLOAD PUSH2 0x115 SWAP2 SWAP1 PUSH2 0x20F9 JUMP JUMPDEST PUSH1 0x40 MLOAD DUP1 SWAP2 SUB SWAP1 RETURN JUMPDEST PUSH2 0x138 PUSH1 0x4 DUP1 CALLDATASIZE SUB DUP2 ADD SWAP1 PUSH2 0x133 SWAP2 SWAP1 PUSH2 0x214D JUMP JUMPDEST PUSH2 0x7AA JUMP JUMPDEST PUSH1 0x40 MLOAD PUSH2 0x145 SWAP2 SWAP1 PUSH2 0x1F60 JUMP JUMPDEST PUSH1 0x40 MLOAD DUP1 SWAP2 SUB SWAP1 RETURN JUMPDEST PUSH2 0x156 PUSH2 0xA33 JUMP JUMPDEST PUSH1 0x40 MLOAD PUSH2 0x163 SWAP2 SWAP1 PUSH2 0x1F60 JUMP JUMPDEST PUSH1 0x40 MLOAD DUP1 SWAP2 SUB SWAP1 RETURN JUMPDEST PUSH2 0x186 PUSH1 0x4 DUP1 CALLDATASIZE SUB DUP2 ADD SWAP1 PUSH2 0x181 SWAP2 SWAP1 PUSH2 0x21A0 JUMP JUMPDEST PUSH2 0xB4F JUMP JUMPDEST PUSH1 0x40 MLOAD PUSH2 0x193 SWAP2 SWAP1 PUSH2 0x22C3 JUMP JUMPDEST PUSH1 0x40 MLOAD DUP1 SWAP2 SUB SWAP1 RETURN JUMPDEST PUSH1 0x0 CALLER PUSH20 0xFFFFFFFFFFFFFFFFFFFFFFFFFFFFFFFFFFFFFFFF AND PUSH1 0x1 DUP1 ADD PUSH1 0x0 SWAP1 SLOAD SWAP1 PUSH2 0x100 EXP SWAP1 DIV PUSH20 0xFFFFFFFFFFFFFFFFFFFFFFFFFFFFFFFFFFFFFFFF AND PUSH20 0xFFFFFFFFFFFFFFFFFFFFFFFFFFFFFFFFFFFFFFFF AND EQ PUSH2 0x230 JUMPI PUSH1 0x40 MLOAD PUSH32 0x8C379A000000000000000000000000000000000000000000000000000000000 DUP2 MSTORE PUSH1 0x4 ADD PUSH2 0x227 SWAP1 PUSH2 0x2368 JUMP JUMPDEST PUSH1 0x40 MLOAD DUP1 SWAP2 SUB SWAP1 REVERT JUMPDEST PUSH2 0x2B8 DUP4 PUSH1 0x9 PUSH1 0x0 DUP2 SLOAD DUP2 LT PUSH2 0x249 JUMPI PUSH2 0x248 PUSH2 0x2388 JUMP JUMPDEST JUMPDEST SWAP1 PUSH1 0x0 MSTORE PUSH1 0x20 PUSH1 0x0 KECCAK256 ADD PUSH1 0x40 MLOAD DUP1 PUSH1 0x40 ADD PUSH1 0x40 MSTORE SWAP1 DUP2 PUSH1 0x0 DUP3 ADD PUSH1 0x0 SWAP1 SLOAD SWAP1 PUSH2 0x100 EXP SWAP1 DIV PUSH4 0xFFFFFFFF AND PUSH4 0xFFFFFFFF AND PUSH4 0xFFFFFFFF AND DUP2 MSTORE PUSH1 0x20 ADD PUSH1 0x0 DUP3 ADD PUSH1 0x4 SWAP1 SLOAD SWAP1 PUSH2 0x100 EXP SWAP1 DIV PUSH4 0xFFFFFFFF AND PUSH4 0xFFFFFFFF AND PUSH4 0xFFFFFFFF AND DUP2 MSTORE POP POP PUSH2 0x1098 SWAP1 SWAP2 SWAP1 PUSH4 0xFFFFFFFF AND JUMP JUMPDEST DUP1 ISZERO PUSH2 0x2DC JUMPI POP DUP2 PUSH1 0x0 DUP2 MLOAD DUP2 LT PUSH2 0x2D3 JUMPI PUSH2 0x2D2 PUSH2 0x2388 JUMP JUMPDEST JUMPDEST PUSH1 0x20 MUL PUSH1 0x20 ADD ADD MLOAD JUMPDEST ISZERO PUSH2 0x346 JUMPI PUSH2 0x308 PUSH1 0x8 PUSH1 0x0 DUP2 SLOAD DUP2 LT PUSH2 0x2F9 JUMPI PUSH2 0x2F8 PUSH2 0x2388 JUMP JUMPDEST JUMPDEST SWAP1 PUSH1 0x0 MSTORE PUSH1 0x20 PUSH1 0x0 KECCAK256 ADD PUSH2 0x1127 JUMP JUMPDEST PUSH32 0x95A1F3A1DAFDD4C1AF344E3D7C69A72CBCE8A3F15FE1CF95A7F5BD23DF2E71A1 PUSH1 0x40 MLOAD PUSH2 0x335 SWAP1 PUSH2 0x2403 JUMP JUMPDEST PUSH1 0x40 MLOAD DUP1 SWAP2 SUB SWAP1 LOG1 PUSH1 0x1 SWAP1 POP PUSH2 0x380 JUMP JUMPDEST PUSH32 0x66091B7DC2B097C8F60D5CD6AA99633B097F08D2EB1056F3E15361B22E0EA2BA PUSH1 0x40 MLOAD PUSH2 0x373 SWAP1 PUSH2 0x246F JUMP JUMPDEST PUSH1 0x40 MLOAD DUP1 SWAP2 SUB SWAP1 LOG1 PUSH1 0x0 SWAP1 POP JUMPDEST SWAP3 SWAP2 POP POP JUMP JUMPDEST PUSH1 0x0 CALLER PUSH20 0xFFFFFFFFFFFFFFFFFFFFFFFFFFFFFFFFFFFFFFFF AND PUSH1 0x3 PUSH1 0x1 ADD PUSH1 0x0 SWAP1 SLOAD SWAP1 PUSH2 0x100 EXP SWAP1 DIV PUSH20 0xFFFFFFFFFFFFFFFFFFFFFFFFFFFFFFFFFFFFFFFF AND PUSH20 0xFFFFFFFFFFFFFFFFFFFFFFFFFFFFFFFFFFFFFFFF AND EQ PUSH2 0x41B JUMPI PUSH1 0x40 MLOAD PUSH32 0x8C379A000000000000000000000000000000000000000000000000000000000 DUP2 MSTORE PUSH1 0x4 ADD PUSH2 0x412 SWAP1 PUSH2 0x2501 JUMP JUMPDEST PUSH1 0x40 MLOAD DUP1 SWAP2 SUB SWAP1 REVERT JUMPDEST PUSH1 0x5 PUSH1 0x0 PUSH1 0x1 DUP1 ADD PUSH1 0x0 SWAP1 SLOAD SWAP1 PUSH2 0x100 EXP SWAP1 DIV PUSH20 0xFFFFFFFFFFFFFFFFFFFFFFFFFFFFFFFFFFFFFFFF AND PUSH20 0xFFFFFFFFFFFFFFFFFFFFFFFFFFFFFFFFFFFFFFFF AND PUSH20 0xFFFFFFFFFFFFFFFFFFFFFFFFFFFFFFFFFFFFFFFF AND DUP2 MSTORE PUSH1 0x20 ADD SWAP1 DUP2 MSTORE PUSH1 0x20 ADD PUSH1 0x0 KECCAK256 PUSH1 0x0 DUP1 DUP3 ADD PUSH1 0x0 PUSH2 0x48F SWAP2 SWAP1 PUSH2 0x1AA2 JUMP JUMPDEST PUSH1 0x1 DUP3 ADD PUSH1 0x0 PUSH2 0x100 EXP DUP2 SLOAD SWAP1 PUSH20 0xFFFFFFFFFFFFFFFFFFFFFFFFFFFFFFFFFFFFFFFF MUL NOT AND SWAP1 SSTORE PUSH1 0x1 DUP3 ADD PUSH1 0x14 PUSH2 0x100 EXP DUP2 SLOAD SWAP1 PUSH1 0xFF MUL NOT AND SWAP1 SSTORE POP POP PUSH2 0x4D8 DUP4 DUP4 PUSH1 0x0 PUSH2 0xD98 JUMP JUMPDEST PUSH1 0x1 PUSH1 0x0 DUP3 ADD MLOAD DUP2 PUSH1 0x0 ADD SWAP1 DUP1 MLOAD SWAP1 PUSH1 0x20 ADD SWAP1 PUSH2 0x4F6 SWAP3 SWAP2 SWAP1 PUSH2 0x1AE2 JUMP JUMPDEST POP PUSH1 0x20 DUP3 ADD MLOAD DUP2 PUSH1 0x1 ADD PUSH1 0x0 PUSH2 0x100 EXP DUP2 SLOAD DUP2 PUSH20 0xFFFFFFFFFFFFFFFFFFFFFFFFFFFFFFFFFFFFFFFF MUL NOT AND SWAP1 DUP4 PUSH20 0xFFFFFFFFFFFFFFFFFFFFFFFFFFFFFFFFFFFFFFFF AND MUL OR SWAP1 SSTORE POP PUSH1 0x40 DUP3 ADD MLOAD DUP2 PUSH1 0x1 ADD PUSH1 0x14 PUSH2 0x100 EXP DUP2 SLOAD DUP2 PUSH1 0xFF MUL NOT AND SWAP1 DUP4 ISZERO ISZERO MUL OR SWAP1 SSTORE POP SWAP1 POP POP PUSH2 0x56C DUP3 PUSH1 0x1 PUSH2 0x116C JUMP JUMPDEST POP PUSH1 0x1 SWAP1 POP SWAP3 SWAP2 POP POP JUMP JUMPDEST PUSH1 0x0 CALLER PUSH20 0xFFFFFFFFFFFFFFFFFFFFFFFFFFFFFFFFFFFFFFFF AND PUSH1 0x1 DUP1 ADD PUSH1 0x0 SWAP1 SLOAD SWAP1 PUSH2 0x100 EXP SWAP1 DIV PUSH20 0xFFFFFFFFFFFFFFFFFFFFFFFFFFFFFFFFFFFFFFFF AND PUSH20 0xFFFFFFFFFFFFFFFFFFFFFFFFFFFFFFFFFFFFFFFF AND EQ DUP1 PUSH2 0x627 JUMPI POP CALLER PUSH20 0xFFFFFFFFFFFFFFFFFFFFFFFFFFFFFFFFFFFFFFFF AND PUSH1 0x3 PUSH1 0x1 ADD PUSH1 0x0 SWAP1 SLOAD SWAP1 PUSH2 0x100 EXP SWAP1 DIV PUSH20 0xFFFFFFFFFFFFFFFFFFFFFFFFFFFFFFFFFFFFFFFF AND PUSH20 0xFFFFFFFFFFFFFFFFFFFFFFFFFFFFFFFFFFFFFFFF AND EQ JUMPDEST PUSH2 0x666 JUMPI PUSH1 0x40 MLOAD PUSH32 0x8C379A000000000000000000000000000000000000000000000000000000000 DUP2 MSTORE PUSH1 0x4 ADD PUSH2 0x65D SWAP1 PUSH2 0x2593 JUMP JUMPDEST PUSH1 0x40 MLOAD DUP1 SWAP2 SUB SWAP1 REVERT JUMPDEST PUSH1 0x1 DUP1 ADD PUSH1 0x0 SWAP1 SLOAD SWAP1 PUSH2 0x100 EXP SWAP1 DIV PUSH20 0xFFFFFFFFFFFFFFFFFFFFFFFFFFFFFFFFFFFFFFFF AND SWAP1 POP SWAP1 JUMP JUMPDEST PUSH1 0x0 CALLER PUSH20 0xFFFFFFFFFFFFFFFFFFFFFFFFFFFFFFFFFFFFFFFF AND PUSH1 0x1 DUP1 ADD PUSH1 0x0 SWAP1 SLOAD SWAP1 PUSH2 0x100 EXP SWAP1 DIV PUSH20 0xFFFFFFFFFFFFFFFFFFFFFFFFFFFFFFFFFFFFFFFF AND PUSH20 0xFFFFFFFFFFFFFFFFFFFFFFFFFFFFFFFFFFFFFFFF AND EQ DUP1 PUSH2 0x740 JUMPI POP CALLER PUSH20 0xFFFFFFFFFFFFFFFFFFFFFFFFFFFFFFFFFFFFFFFF AND PUSH1 0x3 PUSH1 0x1 ADD PUSH1 0x0 SWAP1 SLOAD SWAP1 PUSH2 0x100 EXP SWAP1 DIV PUSH20 0xFFFFFFFFFFFFFFFFFFFFFFFFFFFFFFFFFFFFFFFF AND PUSH20 0xFFFFFFFFFFFFFFFFFFFFFFFFFFFFFFFFFFFFFFFF AND EQ JUMPDEST PUSH2 0x77F JUMPI PUSH1 0x40 MLOAD PUSH32 0x8C379A000000000000000000000000000000000000000000000000000000000 DUP2 MSTORE PUSH1 0x4 ADD PUSH2 0x776 SWAP1 PUSH2 0x2593 JUMP JUMPDEST PUSH1 0x40 MLOAD DUP1 SWAP2 SUB SWAP1 REVERT JUMPDEST PUSH1 0x3 PUSH1 0x1 ADD PUSH1 0x0 SWAP1 SLOAD SWAP1 PUSH2 0x100 EXP SWAP1 DIV PUSH20 0xFFFFFFFFFFFFFFFFFFFFFFFFFFFFFFFFFFFFFFFF AND SWAP1 POP SWAP1 JUMP JUMPDEST PUSH1 0x0 CALLER PUSH20 0xFFFFFFFFFFFFFFFFFFFFFFFFFFFFFFFFFFFFFFFF AND PUSH1 0x3 PUSH1 0x1 ADD PUSH1 0x0 SWAP1 SLOAD SWAP1 PUSH2 0x100 EXP SWAP1 DIV PUSH20 0xFFFFFFFFFFFFFFFFFFFFFFFFFFFFFFFFFFFFFFFF AND PUSH20 0xFFFFFFFFFFFFFFFFFFFFFFFFFFFFFFFFFFFFFFFF AND EQ PUSH2 0x83F JUMPI PUSH1 0x40 MLOAD PUSH32 0x8C379A000000000000000000000000000000000000000000000000000000000 DUP2 MSTORE PUSH1 0x4 ADD PUSH2 0x836 SWAP1 PUSH2 0x2501 JUMP JUMPDEST PUSH1 0x40 MLOAD DUP1 SWAP2 SUB SWAP1 REVERT JUMPDEST PUSH2 0x8B5 DUP5 PUSH1 0x6 PUSH1 0x0 DUP2 SLOAD DUP2 LT PUSH2 0x858 JUMPI PUSH2 0x857 PUSH2 0x2388 JUMP JUMPDEST JUMPDEST SWAP1 PUSH1 0x0 MSTORE PUSH1 0x20 PUSH1 0x0 KECCAK256 ADD PUSH1 0x40 MLOAD DUP1 PUSH1 0x40 ADD PUSH1 0x40 MSTORE SWAP1 DUP2 PUSH1 0x0 DUP3 ADD PUSH1 0x0 SWAP1 SLOAD SWAP1 PUSH2 0x100 EXP SWAP1 DIV PUSH1 0xFF AND PUSH1 0xFF AND PUSH1 0xFF AND DUP2 MSTORE PUSH1 0x20 ADD PUSH1 0x0 DUP3 ADD PUSH1 0x1 SWAP1 SLOAD SWAP1 PUSH2 0x100 EXP SWAP1 DIV PUSH1 0xFF AND PUSH1 0xFF AND PUSH1 0xFF AND DUP2 MSTORE POP POP PUSH2 0x126F SWAP1 SWAP2 SWAP1 PUSH4 0xFFFFFFFF AND JUMP JUMPDEST DUP1 ISZERO PUSH2 0x945 JUMPI POP PUSH2 0x944 DUP4 PUSH1 0x7 PUSH1 0x0 DUP2 SLOAD DUP2 LT PUSH2 0x8D5 JUMPI PUSH2 0x8D4 PUSH2 0x2388 JUMP JUMPDEST JUMPDEST SWAP1 PUSH1 0x0 MSTORE PUSH1 0x20 PUSH1 0x0 KECCAK256 ADD PUSH1 0x40 MLOAD DUP1 PUSH1 0x40 ADD PUSH1 0x40 MSTORE SWAP1 DUP2 PUSH1 0x0 DUP3 ADD PUSH1 0x0 SWAP1 SLOAD SWAP1 PUSH2 0x100 EXP SWAP1 DIV PUSH4 0xFFFFFFFF AND PUSH4 0xFFFFFFFF AND PUSH4 0xFFFFFFFF AND DUP2 MSTORE PUSH1 0x20 ADD PUSH1 0x0 DUP3 ADD PUSH1 0x4 SWAP1 SLOAD SWAP1 PUSH2 0x100 EXP SWAP1 DIV PUSH4 0xFFFFFFFF AND PUSH4 0xFFFFFFFF AND PUSH4 0xFFFFFFFF AND DUP2 MSTORE POP POP PUSH2 0x12FB SWAP1 SWAP2 SWAP1 PUSH4 0xFFFFFFFF AND JUMP JUMPDEST JUMPDEST DUP1 ISZERO PUSH2 0x97E JUMPI POP PUSH2 0x97D DUP3 PUSH1 0x8 PUSH1 0x0 DUP2 SLOAD DUP2 LT PUSH2 0x965 JUMPI PUSH2 0x964 PUSH2 0x2388 JUMP JUMPDEST JUMPDEST SWAP1 PUSH1 0x0 MSTORE PUSH1 0x20 PUSH1 0x0 KECCAK256 ADD PUSH2 0x13A5 SWAP1 SWAP2 SWAP1 PUSH4 0xFFFFFFFF AND JUMP JUMPDEST JUMPDEST ISZERO PUSH2 0x9F2 JUMPI PUSH2 0x9B4 DUP3 PUSH1 0x9 PUSH1 0x0 DUP2 SLOAD DUP2 LT PUSH2 0x99C JUMPI PUSH2 0x99B PUSH2 0x2388 JUMP JUMPDEST JUMPDEST SWAP1 PUSH1 0x0 MSTORE PUSH1 0x20 PUSH1 0x0 KECCAK256 ADD PUSH2 0x141E SWAP1 SWAP2 SWAP1 PUSH4 0xFFFFFFFF AND JUMP JUMPDEST PUSH32 0x95A1F3A1DAFDD4C1AF344E3D7C69A72CBCE8A3F15FE1CF95A7F5BD23DF2E71A1 PUSH1 0x40 MLOAD PUSH2 0x9E1 SWAP1 PUSH2 0x2403 JUMP JUMPDEST PUSH1 0x40 MLOAD DUP1 SWAP2 SUB SWAP1 LOG1 PUSH1 0x1 SWAP1 POP PUSH2 0xA2C JUMP JUMPDEST PUSH32 0x66091B7DC2B097C8F60D5CD6AA99633B097F08D2EB1056F3E15361B22E0EA2BA PUSH1 0x40 MLOAD PUSH2 0xA1F SWAP1 PUSH2 0x246F JUMP JUMPDEST PUSH1 0x40 MLOAD DUP1 SWAP2 SUB SWAP1 LOG1 PUSH1 0x0 SWAP1 POP JUMPDEST SWAP4 SWAP3 POP POP POP JUMP JUMPDEST PUSH1 0x0 CALLER PUSH20 0xFFFFFFFFFFFFFFFFFFFFFFFFFFFFFFFFFFFFFFFF AND PUSH1 0x1 DUP1 ADD PUSH1 0x0 SWAP1 SLOAD SWAP1 PUSH2 0x100 EXP SWAP1 DIV PUSH20 0xFFFFFFFFFFFFFFFFFFFFFFFFFFFFFFFFFFFFFFFF AND PUSH20 0xFFFFFFFFFFFFFFFFFFFFFFFFFFFFFFFFFFFFFFFF AND EQ PUSH2 0xAC7 JUMPI PUSH1 0x40 MLOAD PUSH32 0x8C379A000000000000000000000000000000000000000000000000000000000 DUP2 MSTORE PUSH1 0x4 ADD PUSH2 0xABE SWAP1 PUSH2 0x2368 JUMP JUMPDEST PUSH1 0x40 MLOAD DUP1 SWAP2 SUB SWAP1 REVERT JUMPDEST PUSH1 0x0 ISZERO ISZERO PUSH1 0x1 DUP1 ADD PUSH1 0x14 SWAP1 SLOAD SWAP1 PUSH2 0x100 EXP SWAP1 DIV PUSH1 0xFF AND ISZERO ISZERO EQ PUSH2 0xB1F JUMPI PUSH1 0x40 MLOAD PUSH32 0x8C379A000000000000000000000000000000000000000000000000000000000 DUP2 MSTORE PUSH1 0x4 ADD PUSH2 0xB16 SWAP1 PUSH2 0x25FF JUMP JUMPDEST PUSH1 0x40 MLOAD DUP1 SWAP2 SUB SWAP1 REVERT JUMPDEST PUSH1 0x1 DUP1 PUSH1 0x1 ADD PUSH1 0x14 PUSH2 0x100 EXP DUP2 SLOAD DUP2 PUSH1 0xFF MUL NOT AND SWAP1 DUP4 ISZERO ISZERO MUL OR SWAP1 SSTORE POP PUSH2 0xB47 CALLER PUSH1 0x1 PUSH2 0x116C JUMP JUMPDEST POP PUSH1 0x1 SWAP1 POP SWAP1 JUMP JUMPDEST PUSH2 0xB57 PUSH2 0x1B68 JUMP JUMPDEST CALLER PUSH20 0xFFFFFFFFFFFFFFFFFFFFFFFFFFFFFFFFFFFFFFFF AND PUSH1 0x1 DUP1 ADD PUSH1 0x0 SWAP1 SLOAD SWAP1 PUSH2 0x100 EXP SWAP1 DIV PUSH20 0xFFFFFFFFFFFFFFFFFFFFFFFFFFFFFFFFFFFFFFFF AND PUSH20 0xFFFFFFFFFFFFFFFFFFFFFFFFFFFFFFFFFFFFFFFF AND EQ DUP1 PUSH2 0xC05 JUMPI POP CALLER PUSH20 0xFFFFFFFFFFFFFFFFFFFFFFFFFFFFFFFFFFFFFFFF AND PUSH1 0x3 PUSH1 0x1 ADD PUSH1 0x0 SWAP1 SLOAD SWAP1 PUSH2 0x100 EXP SWAP1 DIV PUSH20 0xFFFFFFFFFFFFFFFFFFFFFFFFFFFFFFFFFFFFFFFF AND PUSH20 0xFFFFFFFFFFFFFFFFFFFFFFFFFFFFFFFFFFFFFFFF AND EQ JUMPDEST PUSH2 0xC44 JUMPI PUSH1 0x40 MLOAD PUSH32 0x8C379A000000000000000000000000000000000000000000000000000000000 DUP2 MSTORE PUSH1 0x4 ADD PUSH2 0xC3B SWAP1 PUSH2 0x2593 JUMP JUMPDEST PUSH1 0x40 MLOAD DUP1 SWAP2 SUB SWAP1 REVERT JUMPDEST PUSH1 0x5 PUSH1 0x0 DUP4 PUSH20 0xFFFFFFFFFFFFFFFFFFFFFFFFFFFFFFFFFFFFFFFF AND PUSH20 0xFFFFFFFFFFFFFFFFFFFFFFFFFFFFFFFFFFFFFFFF AND DUP2 MSTORE PUSH1 0x20 ADD SWAP1 DUP2 MSTORE PUSH1 0x20 ADD PUSH1 0x0 KECCAK256 PUSH1 0x40 MLOAD DUP1 PUSH1 0x60 ADD PUSH1 0x40 MSTORE SWAP1 DUP2 PUSH1 0x0 DUP3 ADD DUP1 SLOAD PUSH2 0xC9E SWAP1 PUSH2 0x264E JUMP JUMPDEST DUP1 PUSH1 0x1F ADD PUSH1 0x20 DUP1 SWAP2 DIV MUL PUSH1 0x20 ADD PUSH1 0x40 MLOAD SWAP1 DUP2 ADD PUSH1 0x40 MSTORE DUP1 SWAP3 SWAP2 SWAP1 DUP2 DUP2 MSTORE PUSH1 0x20 ADD DUP3 DUP1 SLOAD PUSH2 0xCCA SWAP1 PUSH2 0x264E JUMP JUMPDEST DUP1 ISZERO PUSH2 0xD17 JUMPI DUP1 PUSH1 0x1F LT PUSH2 0xCEC JUMPI PUSH2 0x100 DUP1 DUP4 SLOAD DIV MUL DUP4 MSTORE SWAP2 PUSH1 0x20 ADD SWAP2 PUSH2 0xD17 JUMP JUMPDEST DUP3 ADD SWAP2 SWAP1 PUSH1 0x0 MSTORE PUSH1 0x20 PUSH1 0x0 KECCAK256 SWAP1 JUMPDEST DUP2 SLOAD DUP2 MSTORE SWAP1 PUSH1 0x1 ADD SWAP1 PUSH1 0x20 ADD DUP1 DUP4 GT PUSH2 0xCFA JUMPI DUP3 SWAP1 SUB PUSH1 0x1F AND DUP3 ADD SWAP2 JUMPDEST POP POP POP POP POP DUP2 MSTORE PUSH1 0x20 ADD PUSH1 0x1 DUP3 ADD PUSH1 0x0 SWAP1 SLOAD SWAP1 PUSH2 0x100 EXP SWAP1 DIV PUSH20 0xFFFFFFFFFFFFFFFFFFFFFFFFFFFFFFFFFFFFFFFF AND PUSH20 0xFFFFFFFFFFFFFFFFFFFFFFFFFFFFFFFFFFFFFFFF AND PUSH20 0xFFFFFFFFFFFFFFFFFFFFFFFFFFFFFFFFFFFFFFFF AND DUP2 MSTORE PUSH1 0x20 ADD PUSH1 0x1 DUP3 ADD PUSH1 0x14 SWAP1 SLOAD SWAP1 PUSH2 0x100 EXP SWAP1 DIV PUSH1 0xFF AND ISZERO ISZERO ISZERO ISZERO DUP2 MSTORE POP POP SWAP1 POP SWAP2 SWAP1 POP JUMP JUMPDEST PUSH2 0xDA0 PUSH2 0x1B68 JUMP JUMPDEST PUSH1 0x40 MLOAD DUP1 PUSH1 0x60 ADD PUSH1 0x40 MSTORE DUP1 DUP6 DUP2 MSTORE PUSH1 0x20 ADD DUP5 PUSH20 0xFFFFFFFFFFFFFFFFFFFFFFFFFFFFFFFFFFFFFFFF AND DUP2 MSTORE PUSH1 0x20 ADD DUP4 ISZERO ISZERO DUP2 MSTORE POP SWAP1 POP SWAP4 SWAP3 POP POP POP JUMP JUMPDEST PUSH2 0xDE4 PUSH2 0x1BA1 JUMP JUMPDEST DUP3 DUP3 PUSH1 0x0 PUSH1 0xFF AND DUP3 PUSH1 0xFF AND LT ISZERO DUP1 ISZERO PUSH2 0xE04 JUMPI POP PUSH1 0x6 PUSH1 0xFF AND DUP3 PUSH1 0xFF AND GT ISZERO JUMPDEST PUSH2 0xE43 JUMPI PUSH1 0x40 MLOAD PUSH32 0x8C379A000000000000000000000000000000000000000000000000000000000 DUP2 MSTORE PUSH1 0x4 ADD PUSH2 0xE3A SWAP1 PUSH2 0x26F1 JUMP JUMPDEST PUSH1 0x40 MLOAD DUP1 SWAP2 SUB SWAP1 REVERT JUMPDEST PUSH1 0x0 PUSH1 0xFF AND DUP2 PUSH1 0xFF AND LT ISZERO DUP1 ISZERO PUSH2 0xE61 JUMPI POP PUSH1 0x6 PUSH1 0xFF AND DUP2 PUSH1 0xFF AND GT ISZERO JUMPDEST PUSH2 0xEA0 JUMPI PUSH1 0x40 MLOAD PUSH32 0x8C379A000000000000000000000000000000000000000000000000000000000 DUP2 MSTORE PUSH1 0x4 ADD PUSH2 0xE97 SWAP1 PUSH2 0x2783 JUMP JUMPDEST PUSH1 0x40 MLOAD DUP1 SWAP2 SUB SWAP1 REVERT JUMPDEST PUSH1 0x40 MLOAD DUP1 PUSH1 0x40 ADD PUSH1 0x40 MSTORE DUP1 DUP7 PUSH1 0xFF AND DUP2 MSTORE PUSH1 0x20 ADD DUP6 PUSH1 0xFF AND DUP2 MSTORE POP SWAP3 POP POP POP SWAP3 SWAP2 POP POP JUMP JUMPDEST PUSH2 0xECD PUSH2 0x1BC1 JUMP JUMPDEST DUP3 DUP3 PUSH1 0x0 PUSH4 0xFFFFFFFF AND DUP3 PUSH4 0xFFFFFFFF AND LT ISZERO DUP1 ISZERO PUSH2 0xEFB JUMPI POP PUSH3 0x1517F PUSH4 0xFFFFFFFF AND DUP3 PUSH4 0xFFFFFFFF AND GT ISZERO JUMPDEST PUSH2 0xF3A JUMPI PUSH1 0x40 MLOAD PUSH32 0x8C379A000000000000000000000000000000000000000000000000000000000 DUP2 MSTORE PUSH1 0x4 ADD PUSH2 0xF31 SWAP1 PUSH2 0x26F1 JUMP JUMPDEST PUSH1 0x40 MLOAD DUP1 SWAP2 SUB SWAP1 REVERT JUMPDEST PUSH1 0x0 PUSH4 0xFFFFFFFF AND DUP2 PUSH4 0xFFFFFFFF AND LT ISZERO DUP1 ISZERO PUSH2 0xF66 JUMPI POP PUSH3 0x1517F PUSH4 0xFFFFFFFF AND DUP2 PUSH4 0xFFFFFFFF AND GT ISZERO JUMPDEST PUSH2 0xFA5 JUMPI PUSH1 0x40 MLOAD PUSH32 0x8C379A000000000000000000000000000000000000000000000000000000000 DUP2 MSTORE PUSH1 0x4 ADD PUSH2 0xF9C SWAP1 PUSH2 0x2783 JUMP JUMPDEST PUSH1 0x40 MLOAD DUP1 SWAP2 SUB SWAP1 REVERT JUMPDEST PUSH1 0x40 MLOAD DUP1 PUSH1 0x40 ADD PUSH1 0x40 MSTORE DUP1 DUP7 PUSH4 0xFFFFFFFF AND DUP2 MSTORE PUSH1 0x20 ADD DUP6 PUSH4 0xFFFFFFFF AND DUP2 MSTORE POP SWAP3 POP POP POP SWAP3 SWAP2 POP POP JUMP JUMPDEST PUSH2 0xFD8 PUSH2 0x1BE7 JUMP JUMPDEST PUSH1 0x0 PUSH1 0x4 PUSH1 0xFF AND DUP4 PUSH1 0xFF AND GT PUSH2 0xFF8 JUMPI PUSH2 0xFF1 DUP4 PUSH2 0x1489 JUMP JUMPDEST SWAP1 POP PUSH2 0xFFD JUMP JUMPDEST PUSH1 0x1 SWAP1 POP JUMPDEST PUSH1 0x40 MLOAD DUP1 PUSH1 0xA0 ADD PUSH1 0x40 MSTORE DUP1 DUP6 PUSH4 0xFFFFFFFF AND DUP2 MSTORE PUSH1 0x20 ADD DUP5 PUSH1 0xFF AND DUP2 MSTORE PUSH1 0x20 ADD DUP3 PUSH4 0xFFFFFFFF AND DUP2 MSTORE PUSH1 0x20 ADD DUP6 PUSH4 0xFFFFFFFF AND DUP2 MSTORE PUSH1 0x20 ADD PUSH1 0x0 PUSH4 0xFFFFFFFF AND DUP2 MSTORE POP SWAP2 POP POP SWAP3 SWAP2 POP POP JUMP JUMPDEST PUSH2 0x1051 PUSH2 0x1C31 JUMP JUMPDEST PUSH1 0x40 MLOAD DUP1 PUSH1 0x40 ADD PUSH1 0x40 MSTORE DUP1 PUSH1 0x0 PUSH4 0xFFFFFFFF AND DUP2 MSTORE PUSH1 0x20 ADD DUP4 PUSH4 0xFFFFFFFF AND DUP2 MSTORE POP SWAP1 POP SWAP2 SWAP1 POP JUMP JUMPDEST PUSH2 0x1082 PUSH2 0x1C57 JUMP JUMPDEST PUSH1 0x40 MLOAD DUP1 PUSH1 0x20 ADD PUSH1 0x40 MSTORE DUP1 DUP4 DUP2 MSTORE POP SWAP1 POP SWAP2 SWAP1 POP JUMP JUMPDEST PUSH1 0x0 DUP2 PUSH1 0x0 PUSH2 0x10AC DUP3 PUSH4 0xFFFFFFFF AND PUSH2 0x1540 JUMP JUMPDEST SWAP1 POP PUSH1 0xA DUP2 MLOAD GT ISZERO PUSH2 0x10BD JUMPI PUSH1 0x0 DUP1 REVERT JUMPDEST PUSH1 0x0 DUP6 PUSH1 0x0 ADD MLOAD PUSH4 0xFFFFFFFF AND GT PUSH2 0x110A JUMPI PUSH1 0x40 MLOAD PUSH32 0x8C379A000000000000000000000000000000000000000000000000000000000 DUP2 MSTORE PUSH1 0x4 ADD PUSH2 0x1101 SWAP1 PUSH2 0x2815 JUMP JUMPDEST PUSH1 0x40 MLOAD DUP1 SWAP2 SUB SWAP1 REVERT JUMPDEST DUP5 PUSH1 0x0 ADD MLOAD PUSH4 0xFFFFFFFF AND DUP5 PUSH4 0xFFFFFFFF AND GT SWAP3 POP POP POP SWAP3 SWAP2 POP POP JUMP JUMPDEST PUSH1 0x1 DUP2 PUSH1 0x0 ADD PUSH1 0x9 DUP3 DUP3 DUP3 SWAP1 SLOAD SWAP1 PUSH2 0x100 EXP SWAP1 DIV PUSH4 0xFFFFFFFF AND PUSH2 0x114B SWAP2 SWAP1 PUSH2 0x2864 JUMP JUMPDEST SWAP3 POP PUSH2 0x100 EXP DUP2 SLOAD DUP2 PUSH4 0xFFFFFFFF MUL NOT AND SWAP1 DUP4 PUSH4 0xFFFFFFFF AND MUL OR SWAP1 SSTORE POP POP JUMP JUMPDEST PUSH1 0x0 DUP2 PUSH1 0x5 PUSH1 0x0 DUP6 PUSH20 0xFFFFFFFFFFFFFFFFFFFFFFFFFFFFFFFFFFFFFFFF AND PUSH20 0xFFFFFFFFFFFFFFFFFFFFFFFFFFFFFFFFFFFFFFFF AND DUP2 MSTORE PUSH1 0x20 ADD SWAP1 DUP2 MSTORE PUSH1 0x20 ADD PUSH1 0x0 KECCAK256 PUSH1 0x0 DUP3 ADD DUP2 PUSH1 0x0 ADD SWAP1 DUP1 SLOAD PUSH2 0x11C2 SWAP1 PUSH2 0x264E JUMP JUMPDEST PUSH2 0x11CD SWAP3 SWAP2 SWAP1 PUSH2 0x1C6A JUMP JUMPDEST POP PUSH1 0x1 DUP3 ADD PUSH1 0x0 SWAP1 SLOAD SWAP1 PUSH2 0x100 EXP SWAP1 DIV PUSH20 0xFFFFFFFFFFFFFFFFFFFFFFFFFFFFFFFFFFFFFFFF AND DUP2 PUSH1 0x1 ADD PUSH1 0x0 PUSH2 0x100 EXP DUP2 SLOAD DUP2 PUSH20 0xFFFFFFFFFFFFFFFFFFFFFFFFFFFFFFFFFFFFFFFF MUL NOT AND SWAP1 DUP4 PUSH20 0xFFFFFFFFFFFFFFFFFFFFFFFFFFFFFFFFFFFFFFFF AND MUL OR SWAP1 SSTORE POP PUSH1 0x1 DUP3 ADD PUSH1 0x14 SWAP1 SLOAD SWAP1 PUSH2 0x100 EXP SWAP1 DIV PUSH1 0xFF AND DUP2 PUSH1 0x1 ADD PUSH1 0x14 PUSH2 0x100 EXP DUP2 SLOAD DUP2 PUSH1 0xFF MUL NOT AND SWAP1 DUP4 ISZERO ISZERO MUL OR SWAP1 SSTORE POP SWAP1 POP POP PUSH1 0x1 SWAP1 POP SWAP3 SWAP2 POP POP JUMP JUMPDEST PUSH1 0x0 DUP3 PUSH1 0x20 ADD MLOAD PUSH1 0xFF AND DUP4 PUSH1 0x0 ADD MLOAD PUSH1 0xFF AND LT ISZERO PUSH2 0x12BE JUMPI DUP3 PUSH1 0x0 ADD MLOAD PUSH1 0xFF AND DUP3 PUSH1 0xFF AND LT ISZERO DUP1 ISZERO PUSH2 0x12AB JUMPI POP DUP3 PUSH1 0x20 ADD MLOAD PUSH1 0xFF AND DUP3 PUSH1 0xFF AND GT ISZERO JUMPDEST ISZERO PUSH2 0x12B9 JUMPI PUSH1 0x1 SWAP1 POP PUSH2 0x12F5 JUMP JUMPDEST PUSH2 0x12F0 JUMP JUMPDEST DUP3 PUSH1 0x0 ADD MLOAD PUSH1 0xFF AND DUP3 PUSH1 0xFF AND LT ISZERO DUP1 PUSH2 0x12E1 JUMPI POP DUP3 PUSH1 0x20 ADD MLOAD PUSH1 0xFF AND DUP3 PUSH1 0xFF AND GT ISZERO JUMPDEST ISZERO PUSH2 0x12EF JUMPI PUSH1 0x1 SWAP1 POP PUSH2 0x12F5 JUMP JUMPDEST JUMPDEST PUSH1 0x0 SWAP1 POP JUMPDEST SWAP3 SWAP2 POP POP JUMP JUMPDEST PUSH1 0x0 DUP3 PUSH1 0x20 ADD MLOAD PUSH4 0xFFFFFFFF AND DUP4 PUSH1 0x0 ADD MLOAD PUSH4 0xFFFFFFFF AND LT ISZERO PUSH2 0x135C JUMPI DUP3 PUSH1 0x0 ADD MLOAD PUSH4 0xFFFFFFFF AND DUP3 PUSH4 0xFFFFFFFF AND LT ISZERO DUP1 ISZERO PUSH2 0x1349 JUMPI POP DUP3 PUSH1 0x20 ADD MLOAD PUSH4 0xFFFFFFFF AND DUP3 PUSH4 0xFFFFFFFF AND GT ISZERO JUMPDEST ISZERO PUSH2 0x1357 JUMPI PUSH1 0x1 SWAP1 POP PUSH2 0x139F JUMP JUMPDEST PUSH2 0x139A JUMP JUMPDEST DUP3 PUSH1 0x0 ADD MLOAD PUSH4 0xFFFFFFFF AND DUP3 PUSH4 0xFFFFFFFF AND LT ISZERO DUP1 PUSH2 0x138B JUMPI POP DUP3 PUSH1 0x20 ADD MLOAD PUSH4 0xFFFFFFFF AND DUP3 PUSH4 0xFFFFFFFF AND GT ISZERO JUMPDEST ISZERO PUSH2 0x1399 JUMPI PUSH1 0x1 SWAP1 POP PUSH2 0x139F JUMP JUMPDEST JUMPDEST PUSH1 0x0 SWAP1 POP JUMPDEST SWAP3 SWAP2 POP POP JUMP JUMPDEST PUSH1 0x0 PUSH2 0x13D7 DUP4 PUSH1 0x0 ADD PUSH1 0x4 SWAP1 SLOAD SWAP1 PUSH2 0x100 EXP SWAP1 DIV PUSH1 0xFF AND DUP5 PUSH1 0x0 ADD PUSH1 0xD SWAP1 SLOAD SWAP1 PUSH2 0x100 EXP SWAP1 DIV PUSH4 0xFFFFFFFF AND DUP5 PUSH2 0x16A0 JUMP JUMPDEST ISZERO PUSH2 0x13E7 JUMPI PUSH2 0x13E6 DUP4 DUP4 PUSH2 0x1765 JUMP JUMPDEST JUMPDEST PUSH1 0x0 DUP4 PUSH1 0x0 ADD PUSH1 0x9 SWAP1 SLOAD SWAP1 PUSH2 0x100 EXP SWAP1 DIV PUSH4 0xFFFFFFFF AND PUSH4 0xFFFFFFFF AND GT ISZERO PUSH2 0x1413 JUMPI PUSH1 0x1 SWAP1 POP PUSH2 0x1418 JUMP JUMPDEST PUSH1 0x0 SWAP1 POP JUMPDEST SWAP3 SWAP2 POP POP JUMP JUMPDEST DUP1 PUSH1 0x0 PUSH2 0x1430 DUP3 PUSH4 0xFFFFFFFF AND PUSH2 0x1540 JUMP JUMPDEST SWAP1 POP PUSH1 0xA DUP2 MLOAD GT ISZERO PUSH2 0x1441 JUMPI PUSH1 0x0 DUP1 REVERT JUMPDEST DUP4 PUSH1 0x0 ADD PUSH1 0x4 SWAP1 SLOAD SWAP1 PUSH2 0x100 EXP SWAP1 DIV PUSH4 0xFFFFFFFF AND DUP4 PUSH2 0x1461 SWAP2 SWAP1 PUSH2 0x2898 JUMP JUMPDEST DUP5 PUSH1 0x0 ADD PUSH1 0x0 PUSH2 0x100 EXP DUP2 SLOAD DUP2 PUSH4 0xFFFFFFFF MUL NOT AND SWAP1 DUP4 PUSH4 0xFFFFFFFF AND MUL OR SWAP1 SSTORE POP POP POP POP POP JUMP JUMPDEST PUSH1 0x0 PUSH1 0x4 PUSH1 0xFF AND DUP3 PUSH1 0xFF AND GT ISZERO PUSH2 0x14D5 JUMPI PUSH1 0x40 MLOAD PUSH32 0x8C379A000000000000000000000000000000000000000000000000000000000 DUP2 MSTORE PUSH1 0x4 ADD PUSH2 0x14CC SWAP1 PUSH2 0x2944 JUMP JUMPDEST PUSH1 0x40 MLOAD DUP1 SWAP2 SUB SWAP1 REVERT JUMPDEST PUSH1 0x0 PUSH1 0xFF AND DUP3 PUSH1 0xFF AND SUB PUSH2 0x14EC JUMPI PUSH1 0x1 SWAP1 POP PUSH2 0x153B JUMP JUMPDEST PUSH1 0x1 PUSH1 0xFF AND DUP3 PUSH1 0xFF AND SUB PUSH2 0x1503 JUMPI PUSH1 0x3C SWAP1 POP PUSH2 0x153B JUMP JUMPDEST PUSH1 0x2 PUSH1 0xFF AND DUP3 PUSH1 0xFF AND SUB PUSH2 0x151B JUMPI PUSH2 0xE10 SWAP1 POP PUSH2 0x153B JUMP JUMPDEST PUSH1 0x3 PUSH1 0xFF AND DUP3 PUSH1 0xFF AND SUB PUSH2 0x1534 JUMPI PUSH3 0x15180 SWAP1 POP PUSH2 0x153B JUMP JUMPDEST PUSH3 0x93A80 SWAP1 POP JUMPDEST SWAP2 SWAP1 POP JUMP JUMPDEST PUSH1 0x60 PUSH1 0x0 DUP3 SUB PUSH2 0x1587 JUMPI PUSH1 0x40 MLOAD DUP1 PUSH1 0x40 ADD PUSH1 0x40 MSTORE DUP1 PUSH1 0x1 DUP2 MSTORE PUSH1 0x20 ADD PUSH32 0x3000000000000000000000000000000000000000000000000000000000000000 DUP2 MSTORE POP SWAP1 POP PUSH2 0x169B JUMP JUMPDEST PUSH1 0x0 DUP3 SWAP1 POP PUSH1 0x0 JUMPDEST PUSH1 0x0 DUP3 EQ PUSH2 0x15B9 JUMPI DUP1 DUP1 PUSH2 0x15A2 SWAP1 PUSH2 0x296E JUMP JUMPDEST SWAP2 POP POP PUSH1 0xA DUP3 PUSH2 0x15B2 SWAP2 SWAP1 PUSH2 0x29E5 JUMP JUMPDEST SWAP2 POP PUSH2 0x158F JUMP JUMPDEST PUSH1 0x0 DUP2 PUSH8 0xFFFFFFFFFFFFFFFF DUP2 GT ISZERO PUSH2 0x15D5 JUMPI PUSH2 0x15D4 PUSH2 0x1D7A JUMP JUMPDEST JUMPDEST PUSH1 0x40 MLOAD SWAP1 DUP1 DUP3 MSTORE DUP1 PUSH1 0x1F ADD PUSH1 0x1F NOT AND PUSH1 0x20 ADD DUP3 ADD PUSH1 0x40 MSTORE DUP1 ISZERO PUSH2 0x1607 JUMPI DUP2 PUSH1 0x20 ADD PUSH1 0x1 DUP3 MUL DUP1 CALLDATASIZE DUP4 CALLDATACOPY DUP1 DUP3 ADD SWAP2 POP POP SWAP1 POP JUMPDEST POP SWAP1 POP JUMPDEST PUSH1 0x0 DUP6 EQ PUSH2 0x1694 JUMPI PUSH1 0x1 DUP3 PUSH2 0x1620 SWAP2 SWAP1 PUSH2 0x2A16 JUMP JUMPDEST SWAP2 POP PUSH1 0xA DUP6 PUSH2 0x162F SWAP2 SWAP1 PUSH2 0x2A4A JUMP JUMPDEST PUSH1 0x30 PUSH2 0x163B SWAP2 SWAP1 PUSH2 0x2A7B JUMP JUMPDEST PUSH1 0xF8 SHL DUP2 DUP4 DUP2 MLOAD DUP2 LT PUSH2 0x1651 JUMPI PUSH2 0x1650 PUSH2 0x2388 JUMP JUMPDEST JUMPDEST PUSH1 0x20 ADD ADD SWAP1 PUSH31 0xFFFFFFFFFFFFFFFFFFFFFFFFFFFFFFFFFFFFFFFFFFFFFFFFFFFFFFFFFFFFFF NOT AND SWAP1 DUP2 PUSH1 0x0 BYTE SWAP1 MSTORE8 POP PUSH1 0xA DUP6 PUSH2 0x168D SWAP2 SWAP1 PUSH2 0x29E5 JUMP JUMPDEST SWAP5 POP PUSH2 0x160B JUMP JUMPDEST DUP1 SWAP4 POP POP POP POP JUMPDEST SWAP2 SWAP1 POP JUMP JUMPDEST PUSH1 0x0 DUP1 DUP5 SWAP1 POP PUSH1 0x4 PUSH1 0xFF AND DUP2 PUSH1 0xFF AND GT PUSH2 0x16CC JUMPI DUP4 PUSH4 0xFFFFFFFF AND DUP4 PUSH4 0xFFFFFFFF AND LT ISZERO SWAP2 POP POP PUSH2 0x175E JUMP JUMPDEST PUSH1 0x5 PUSH1 0xFF AND DUP2 PUSH1 0xFF AND SUB PUSH2 0x1734 JUMPI PUSH1 0x0 PUSH2 0x16EB DUP5 PUSH4 0xFFFFFFFF AND PUSH2 0x17F2 JUMP JUMPDEST POP SWAP2 POP POP PUSH1 0xD DUP6 PUSH4 0xFFFFFFFF AND EQ DUP1 ISZERO PUSH2 0x170B JUMPI POP PUSH1 0x1 DUP2 PUSH4 0xFFFFFFFF AND EQ JUMPDEST ISZERO PUSH2 0x171B JUMPI PUSH1 0x1 SWAP3 POP POP POP PUSH2 0x175E JUMP JUMPDEST DUP5 PUSH4 0xFFFFFFFF AND DUP2 PUSH4 0xFFFFFFFF AND LT ISZERO SWAP3 POP POP POP PUSH2 0x175E JUMP JUMPDEST PUSH1 0x0 PUSH2 0x1745 DUP5 PUSH4 0xFFFFFFFF AND PUSH2 0x17F2 JUMP JUMPDEST POP POP SWAP1 POP DUP5 PUSH4 0xFFFFFFFF AND DUP2 PUSH4 0xFFFFFFFF AND LT ISZERO SWAP3 POP POP POP JUMPDEST SWAP4 SWAP3 POP POP POP JUMP JUMPDEST DUP2 PUSH1 0x0 ADD PUSH1 0x0 SWAP1 SLOAD SWAP1 PUSH2 0x100 EXP SWAP1 DIV PUSH4 0xFFFFFFFF AND DUP3 PUSH1 0x0 ADD PUSH1 0x9 PUSH2 0x100 EXP DUP2 SLOAD DUP2 PUSH4 0xFFFFFFFF MUL NOT AND SWAP1 DUP4 PUSH4 0xFFFFFFFF AND MUL OR SWAP1 SSTORE POP PUSH2 0x17CC DUP3 PUSH1 0x0 ADD PUSH1 0x5 SWAP1 SLOAD SWAP1 PUSH2 0x100 EXP SWAP1 DIV PUSH4 0xFFFFFFFF AND DUP4 PUSH1 0x0 ADD PUSH1 0x4 SWAP1 SLOAD SWAP1 PUSH2 0x100 EXP SWAP1 DIV PUSH1 0xFF AND DUP4 PUSH2 0x19A5 JUMP JUMPDEST DUP3 PUSH1 0x0 ADD PUSH1 0xD PUSH2 0x100 EXP DUP2 SLOAD DUP2 PUSH4 0xFFFFFFFF MUL NOT AND SWAP1 DUP4 PUSH4 0xFFFFFFFF AND MUL OR SWAP1 SSTORE POP POP POP JUMP JUMPDEST PUSH1 0x0 DUP1 PUSH1 0x0 DUP1 PUSH3 0x15180 PUSH4 0xFFFFFFFF AND DUP6 PUSH2 0x180D SWAP2 SWAP1 PUSH2 0x29E5 JUMP JUMPDEST SWAP1 POP PUSH1 0x0 PUSH3 0x253D8C PUSH3 0x10BD9 DUP4 PUSH2 0x1824 SWAP2 SWAP1 PUSH2 0x2898 JUMP JUMPDEST PUSH2 0x182E SWAP2 SWAP1 PUSH2 0x2898 JUMP JUMPDEST SWAP1 POP PUSH1 0x0 PUSH3 0x23AB1 DUP3 PUSH1 0x4 PUSH2 0x1843 SWAP2 SWAP1 PUSH2 0x2AD1 JUMP JUMPDEST PUSH2 0x184D SWAP2 SWAP1 PUSH2 0x2B0F JUMP JUMPDEST SWAP1 POP PUSH1 0x4 PUSH1 0x3 DUP3 PUSH3 0x23AB1 PUSH2 0x1862 SWAP2 SWAP1 PUSH2 0x2AD1 JUMP JUMPDEST PUSH2 0x186C SWAP2 SWAP1 PUSH2 0x2898 JUMP JUMPDEST PUSH2 0x1876 SWAP2 SWAP1 PUSH2 0x2B0F JUMP JUMPDEST DUP3 PUSH2 0x1881 SWAP2 SWAP1 PUSH2 0x2864 JUMP JUMPDEST SWAP2 POP PUSH1 0x0 PUSH3 0x164B09 PUSH1 0x1 DUP5 PUSH2 0x1896 SWAP2 SWAP1 PUSH2 0x2898 JUMP JUMPDEST PUSH2 0xFA0 PUSH2 0x18A3 SWAP2 SWAP1 PUSH2 0x2AD1 JUMP JUMPDEST PUSH2 0x18AD SWAP2 SWAP1 PUSH2 0x2B0F JUMP JUMPDEST SWAP1 POP PUSH1 0x1F PUSH1 0x4 DUP3 PUSH2 0x5B5 PUSH2 0x18C1 SWAP2 SWAP1 PUSH2 0x2AD1 JUMP JUMPDEST PUSH2 0x18CB SWAP2 SWAP1 PUSH2 0x2B0F JUMP JUMPDEST DUP5 PUSH2 0x18D6 SWAP2 SWAP1 PUSH2 0x2864 JUMP JUMPDEST PUSH2 0x18E0 SWAP2 SWAP1 PUSH2 0x2898 JUMP JUMPDEST SWAP3 POP PUSH1 0x0 PUSH2 0x98F DUP5 PUSH1 0x50 PUSH2 0x18F4 SWAP2 SWAP1 PUSH2 0x2AD1 JUMP JUMPDEST PUSH2 0x18FE SWAP2 SWAP1 PUSH2 0x2B0F JUMP JUMPDEST SWAP1 POP PUSH1 0x0 PUSH1 0x50 DUP3 PUSH2 0x98F PUSH2 0x1912 SWAP2 SWAP1 PUSH2 0x2AD1 JUMP JUMPDEST PUSH2 0x191C SWAP2 SWAP1 PUSH2 0x2B0F JUMP JUMPDEST DUP6 PUSH2 0x1927 SWAP2 SWAP1 PUSH2 0x2864 JUMP JUMPDEST SWAP1 POP PUSH1 0xB DUP3 PUSH2 0x1936 SWAP2 SWAP1 PUSH2 0x2B0F JUMP JUMPDEST SWAP5 POP DUP5 PUSH1 0xC PUSH2 0x1945 SWAP2 SWAP1 PUSH2 0x2AD1 JUMP JUMPDEST PUSH1 0x2 DUP4 PUSH2 0x1952 SWAP2 SWAP1 PUSH2 0x2898 JUMP JUMPDEST PUSH2 0x195C SWAP2 SWAP1 PUSH2 0x2864 JUMP JUMPDEST SWAP2 POP DUP5 DUP4 PUSH1 0x31 DUP7 PUSH2 0x196D SWAP2 SWAP1 PUSH2 0x2864 JUMP JUMPDEST PUSH1 0x64 PUSH2 0x1979 SWAP2 SWAP1 PUSH2 0x2AD1 JUMP JUMPDEST PUSH2 0x1983 SWAP2 SWAP1 PUSH2 0x2898 JUMP JUMPDEST PUSH2 0x198D SWAP2 SWAP1 PUSH2 0x2898 JUMP JUMPDEST SWAP3 POP DUP3 SWAP9 POP DUP2 SWAP8 POP DUP1 SWAP7 POP POP POP POP POP POP POP SWAP2 SWAP4 SWAP1 SWAP3 POP JUMP JUMPDEST PUSH1 0x0 PUSH1 0x4 PUSH1 0xFF AND DUP4 PUSH1 0xFF AND GT PUSH2 0x19C7 JUMPI PUSH2 0x19C0 DUP4 DUP4 DUP7 PUSH2 0x1A38 JUMP JUMPDEST SWAP1 POP PUSH2 0x1A31 JUMP JUMPDEST PUSH1 0x5 PUSH1 0xFF AND DUP4 PUSH1 0xFF AND SUB PUSH2 0x1A05 JUMPI PUSH1 0x0 PUSH2 0x19E6 DUP4 PUSH4 0xFFFFFFFF AND PUSH2 0x17F2 JUMP JUMPDEST POP PUSH4 0xFFFFFFFF AND SWAP2 POP POP PUSH1 0x1 DUP2 PUSH2 0x19FD SWAP2 SWAP1 PUSH2 0x2A7B JUMP JUMPDEST SWAP2 POP POP PUSH2 0x1A31 JUMP JUMPDEST PUSH1 0x0 PUSH2 0x1A16 DUP4 PUSH4 0xFFFFFFFF AND PUSH2 0x17F2 JUMP JUMPDEST POP POP PUSH4 0xFFFFFFFF AND SWAP1 POP PUSH1 0x1 DUP2 PUSH2 0x1A2D SWAP2 SWAP1 PUSH2 0x2A7B JUMP JUMPDEST SWAP2 POP POP JUMPDEST SWAP4 SWAP3 POP POP POP JUMP JUMPDEST PUSH1 0x0 DUP1 DUP3 DUP5 PUSH2 0x1A47 SWAP2 SWAP1 PUSH2 0x2B40 JUMP JUMPDEST SWAP1 POP PUSH1 0x0 DUP2 DUP5 PUSH2 0x1A57 SWAP2 SWAP1 PUSH2 0x2864 JUMP JUMPDEST SWAP1 POP PUSH1 0x4 PUSH1 0xFF AND DUP7 PUSH1 0xFF AND SUB PUSH2 0x1A8A JUMPI PUSH3 0x3F480 DUP2 DUP7 PUSH2 0x1A77 SWAP2 SWAP1 PUSH2 0x2898 JUMP JUMPDEST PUSH2 0x1A81 SWAP2 SWAP1 PUSH2 0x2898 JUMP JUMPDEST SWAP3 POP POP POP PUSH2 0x1A9B JUMP JUMPDEST DUP1 DUP6 PUSH2 0x1A96 SWAP2 SWAP1 PUSH2 0x2898 JUMP JUMPDEST SWAP3 POP POP POP JUMPDEST SWAP4 SWAP3 POP POP POP JUMP JUMPDEST POP DUP1 SLOAD PUSH2 0x1AAE SWAP1 PUSH2 0x264E JUMP JUMPDEST PUSH1 0x0 DUP3 SSTORE DUP1 PUSH1 0x1F LT PUSH2 0x1AC0 JUMPI POP PUSH2 0x1ADF JUMP JUMPDEST PUSH1 0x1F ADD PUSH1 0x20 SWAP1 DIV SWAP1 PUSH1 0x0 MSTORE PUSH1 0x20 PUSH1 0x0 KECCAK256 SWAP1 DUP2 ADD SWAP1 PUSH2 0x1ADE SWAP2 SWAP1 PUSH2 0x1CF7 JUMP JUMPDEST JUMPDEST POP JUMP JUMPDEST DUP3 DUP1 SLOAD PUSH2 0x1AEE SWAP1 PUSH2 0x264E JUMP JUMPDEST SWAP1 PUSH1 0x0 MSTORE PUSH1 0x20 PUSH1 0x0 KECCAK256 SWAP1 PUSH1 0x1F ADD PUSH1 0x20 SWAP1 DIV DUP2 ADD SWAP3 DUP3 PUSH2 0x1B10 JUMPI PUSH1 0x0 DUP6 SSTORE PUSH2 0x1B57 JUMP JUMPDEST DUP3 PUSH1 0x1F LT PUSH2 0x1B29 JUMPI DUP1 MLOAD PUSH1 0xFF NOT AND DUP4 DUP1 ADD OR DUP6 SSTORE PUSH2 0x1B57 JUMP JUMPDEST DUP3 DUP1 ADD PUSH1 0x1 ADD DUP6 SSTORE DUP3 ISZERO PUSH2 0x1B57 JUMPI SWAP2 DUP3 ADD JUMPDEST DUP3 DUP2 GT ISZERO PUSH2 0x1B56 JUMPI DUP3 MLOAD DUP3 SSTORE SWAP2 PUSH1 0x20 ADD SWAP2 SWAP1 PUSH1 0x1 ADD SWAP1 PUSH2 0x1B3B JUMP JUMPDEST JUMPDEST POP SWAP1 POP PUSH2 0x1B64 SWAP2 SWAP1 PUSH2 0x1CF7 JUMP JUMPDEST POP SWAP1 JUMP JUMPDEST PUSH1 0x40 MLOAD DUP1 PUSH1 0x60 ADD PUSH1 0x40 MSTORE DUP1 PUSH1 0x60 DUP2 MSTORE PUSH1 0x20 ADD PUSH1 0x0 PUSH20 0xFFFFFFFFFFFFFFFFFFFFFFFFFFFFFFFFFFFFFFFF AND DUP2 MSTORE PUSH1 0x20 ADD PUSH1 0x0 ISZERO ISZERO DUP2 MSTORE POP SWAP1 JUMP JUMPDEST PUSH1 0x40 MLOAD DUP1 PUSH1 0x40 ADD PUSH1 0x40 MSTORE DUP1 PUSH1 0x0 PUSH1 0xFF AND DUP2 MSTORE PUSH1 0x20 ADD PUSH1 0x0 PUSH1 0xFF AND DUP2 MSTORE POP SWAP1 JUMP JUMPDEST PUSH1 0x40 MLOAD DUP1 PUSH1 0x40 ADD PUSH1 0x40 MSTORE DUP1 PUSH1 0x0 PUSH4 0xFFFFFFFF AND DUP2 MSTORE PUSH1 0x20 ADD PUSH1 0x0 PUSH4 0xFFFFFFFF AND DUP2 MSTORE POP SWAP1 JUMP JUMPDEST PUSH1 0x40 MLOAD DUP1 PUSH1 0xA0 ADD PUSH1 0x40 MSTORE DUP1 PUSH1 0x0 PUSH4 0xFFFFFFFF AND DUP2 MSTORE PUSH1 0x20 ADD PUSH1 0x0 PUSH1 0xFF AND DUP2 MSTORE PUSH1 0x20 ADD PUSH1 0x0 PUSH4 0xFFFFFFFF AND DUP2 MSTORE PUSH1 0x20 ADD PUSH1 0x0 PUSH4 0xFFFFFFFF AND DUP2 MSTORE PUSH1 0x20 ADD PUSH1 0x0 PUSH4 0xFFFFFFFF AND DUP2 MSTORE POP SWAP1 JUMP JUMPDEST PUSH1 0x40 MLOAD DUP1 PUSH1 0x40 ADD PUSH1 0x40 MSTORE DUP1 PUSH1 0x0 PUSH4 0xFFFFFFFF AND DUP2 MSTORE PUSH1 0x20 ADD PUSH1 0x0 PUSH4 0xFFFFFFFF AND DUP2 MSTORE POP SWAP1 JUMP JUMPDEST PUSH1 0x40 MLOAD DUP1 PUSH1 0x20 ADD PUSH1 0x40 MSTORE DUP1 PUSH1 0x60 DUP2 MSTORE POP SWAP1 JUMP JUMPDEST DUP3 DUP1 SLOAD PUSH2 0x1C76 SWAP1 PUSH2 0x264E JUMP JUMPDEST SWAP1 PUSH1 0x0 MSTORE PUSH1 0x20 PUSH1 0x0 KECCAK256 SWAP1 PUSH1 0x1F ADD PUSH1 0x20 SWAP1 DIV DUP2 ADD SWAP3 DUP3 PUSH2 0x1C98 JUMPI PUSH1 0x0 DUP6 SSTORE PUSH2 0x1CE6 JUMP JUMPDEST DUP3 PUSH1 0x1F LT PUSH2 0x1CA9 JUMPI DUP1 SLOAD DUP6 SSTORE PUSH2 0x1CE6 JUMP JUMPDEST DUP3 DUP1 ADD PUSH1 0x1 ADD DUP6 SSTORE DUP3 ISZERO PUSH2 0x1CE6 JUMPI PUSH1 0x0 MSTORE PUSH1 0x20 PUSH1 0x0 KECCAK256 SWAP2 PUSH1 0x1F ADD PUSH1 0x20 SWAP1 DIV DUP3 ADD JUMPDEST DUP3 DUP2 GT ISZERO PUSH2 0x1CE5 JUMPI DUP3 SLOAD DUP3 SSTORE SWAP2 PUSH1 0x1 ADD SWAP2 SWAP1 PUSH1 0x1 ADD SWAP1 PUSH2 0x1CCA JUMP JUMPDEST JUMPDEST POP SWAP1 POP PUSH2 0x1CF3 SWAP2 SWAP1 PUSH2 0x1CF7 JUMP JUMPDEST POP SWAP1 JUMP JUMPDEST JUMPDEST DUP1 DUP3 GT ISZERO PUSH2 0x1D10 JUMPI PUSH1 0x0 DUP2 PUSH1 0x0 SWAP1 SSTORE POP PUSH1 0x1 ADD PUSH2 0x1CF8 JUMP JUMPDEST POP SWAP1 JUMP JUMPDEST PUSH1 0x0 PUSH1 0x40 MLOAD SWAP1 POP SWAP1 JUMP JUMPDEST PUSH1 0x0 DUP1 REVERT JUMPDEST PUSH1 0x0 DUP1 REVERT JUMPDEST PUSH1 0x0 PUSH4 0xFFFFFFFF DUP3 AND SWAP1 POP SWAP2 SWAP1 POP JUMP JUMPDEST PUSH2 0x1D41 DUP2 PUSH2 0x1D28 JUMP JUMPDEST DUP2 EQ PUSH2 0x1D4C JUMPI PUSH1 0x0 DUP1 REVERT JUMPDEST POP JUMP JUMPDEST PUSH1 0x0 DUP2 CALLDATALOAD SWAP1 POP PUSH2 0x1D5E DUP2 PUSH2 0x1D38 JUMP JUMPDEST SWAP3 SWAP2 POP POP JUMP JUMPDEST PUSH1 0x0 DUP1 REVERT JUMPDEST PUSH1 0x0 PUSH1 0x1F NOT PUSH1 0x1F DUP4 ADD AND SWAP1 POP SWAP2 SWAP1 POP JUMP JUMPDEST PUSH32 0x4E487B7100000000000000000000000000000000000000000000000000000000 PUSH1 0x0 MSTORE PUSH1 0x41 PUSH1 0x4 MSTORE PUSH1 0x24 PUSH1 0x0 REVERT JUMPDEST PUSH2 0x1DB2 DUP3 PUSH2 0x1D69 JUMP JUMPDEST DUP2 ADD DUP2 DUP2 LT PUSH8 0xFFFFFFFFFFFFFFFF DUP3 GT OR ISZERO PUSH2 0x1DD1 JUMPI PUSH2 0x1DD0 PUSH2 0x1D7A JUMP JUMPDEST JUMPDEST DUP1 PUSH1 0x40 MSTORE POP POP POP JUMP JUMPDEST PUSH1 0x0 PUSH2 0x1DE4 PUSH2 0x1D14 JUMP JUMPDEST SWAP1 POP PUSH2 0x1DF0 DUP3 DUP3 PUSH2 0x1DA9 JUMP JUMPDEST SWAP2 SWAP1 POP JUMP JUMPDEST PUSH1 0x0 PUSH8 0xFFFFFFFFFFFFFFFF DUP3 GT ISZERO PUSH2 0x1E10 JUMPI PUSH2 0x1E0F PUSH2 0x1D7A JUMP JUMPDEST JUMPDEST PUSH1 0x20 DUP3 MUL SWAP1 POP PUSH1 0x20 DUP2 ADD SWAP1 POP SWAP2 SWAP1 POP JUMP JUMPDEST PUSH1 0x0 DUP1 REVERT JUMPDEST PUSH1 0x0 DUP2 ISZERO ISZERO SWAP1 POP SWAP2 SWAP1 POP JUMP JUMPDEST PUSH2 0x1E3B DUP2 PUSH2 0x1E26 JUMP JUMPDEST DUP2 EQ PUSH2 0x1E46 JUMPI PUSH1 0x0 DUP1 REVERT JUMPDEST POP JUMP JUMPDEST PUSH1 0x0 DUP2 CALLDATALOAD SWAP1 POP PUSH2 0x1E58 DUP2 PUSH2 0x1E32 JUMP JUMPDEST SWAP3 SWAP2 POP POP JUMP JUMPDEST PUSH1 0x0 PUSH2 0x1E71 PUSH2 0x1E6C DUP5 PUSH2 0x1DF5 JUMP JUMPDEST PUSH2 0x1DDA JUMP JUMPDEST SWAP1 POP DUP1 DUP4 DUP3 MSTORE PUSH1 0x20 DUP3 ADD SWAP1 POP PUSH1 0x20 DUP5 MUL DUP4 ADD DUP6 DUP2 GT ISZERO PUSH2 0x1E94 JUMPI PUSH2 0x1E93 PUSH2 0x1E21 JUMP JUMPDEST JUMPDEST DUP4 JUMPDEST DUP2 DUP2 LT ISZERO PUSH2 0x1EBD JUMPI DUP1 PUSH2 0x1EA9 DUP9 DUP3 PUSH2 0x1E49 JUMP JUMPDEST DUP5 MSTORE PUSH1 0x20 DUP5 ADD SWAP4 POP POP PUSH1 0x20 DUP2 ADD SWAP1 POP PUSH2 0x1E96 JUMP JUMPDEST POP POP POP SWAP4 SWAP3 POP POP POP JUMP JUMPDEST PUSH1 0x0 DUP3 PUSH1 0x1F DUP4 ADD SLT PUSH2 0x1EDC JUMPI PUSH2 0x1EDB PUSH2 0x1D64 JUMP JUMPDEST JUMPDEST DUP2 CALLDATALOAD PUSH2 0x1EEC DUP5 DUP3 PUSH1 0x20 DUP7 ADD PUSH2 0x1E5E JUMP JUMPDEST SWAP2 POP POP SWAP3 SWAP2 POP POP JUMP JUMPDEST PUSH1 0x0 DUP1 PUSH1 0x40 DUP4 DUP6 SUB SLT ISZERO PUSH2 0x1F0C JUMPI PUSH2 0x1F0B PUSH2 0x1D1E JUMP JUMPDEST JUMPDEST PUSH1 0x0 PUSH2 0x1F1A DUP6 DUP3 DUP7 ADD PUSH2 0x1D4F JUMP JUMPDEST SWAP3 POP POP PUSH1 0x20 DUP4 ADD CALLDATALOAD PUSH8 0xFFFFFFFFFFFFFFFF DUP2 GT ISZERO PUSH2 0x1F3B JUMPI PUSH2 0x1F3A PUSH2 0x1D23 JUMP JUMPDEST JUMPDEST PUSH2 0x1F47 DUP6 DUP3 DUP7 ADD PUSH2 0x1EC7 JUMP JUMPDEST SWAP2 POP POP SWAP3 POP SWAP3 SWAP1 POP JUMP JUMPDEST PUSH2 0x1F5A DUP2 PUSH2 0x1E26 JUMP JUMPDEST DUP3 MSTORE POP POP JUMP JUMPDEST PUSH1 0x0 PUSH1 0x20 DUP3 ADD SWAP1 POP PUSH2 0x1F75 PUSH1 0x0 DUP4 ADD DUP5 PUSH2 0x1F51 JUMP JUMPDEST SWAP3 SWAP2 POP POP JUMP JUMPDEST PUSH1 0x0 DUP1 REVERT JUMPDEST PUSH1 0x0 PUSH8 0xFFFFFFFFFFFFFFFF DUP3 GT ISZERO PUSH2 0x1F9B JUMPI PUSH2 0x1F9A PUSH2 0x1D7A JUMP JUMPDEST JUMPDEST PUSH2 0x1FA4 DUP3 PUSH2 0x1D69 JUMP JUMPDEST SWAP1 POP PUSH1 0x20 DUP2 ADD SWAP1 POP SWAP2 SWAP1 POP JUMP JUMPDEST DUP3 DUP2 DUP4 CALLDATACOPY PUSH1 0x0 DUP4 DUP4 ADD MSTORE POP POP POP JUMP JUMPDEST PUSH1 0x0 PUSH2 0x1FD3 PUSH2 0x1FCE DUP5 PUSH2 0x1F80 JUMP JUMPDEST PUSH2 0x1DDA JUMP JUMPDEST SWAP1 POP DUP3 DUP2 MSTORE PUSH1 0x20 DUP2 ADD DUP5 DUP5 DUP5 ADD GT ISZERO PUSH2 0x1FEF JUMPI PUSH2 0x1FEE PUSH2 0x1F7B JUMP JUMPDEST JUMPDEST PUSH2 0x1FFA DUP5 DUP3 DUP6 PUSH2 0x1FB1 JUMP JUMPDEST POP SWAP4 SWAP3 POP POP POP JUMP JUMPDEST PUSH1 0x0 DUP3 PUSH1 0x1F DUP4 ADD SLT PUSH2 0x2017 JUMPI PUSH2 0x2016 PUSH2 0x1D64 JUMP JUMPDEST JUMPDEST DUP2 CALLDATALOAD PUSH2 0x2027 DUP5 DUP3 PUSH1 0x20 DUP7 ADD PUSH2 0x1FC0 JUMP JUMPDEST SWAP2 POP POP SWAP3 SWAP2 POP POP JUMP JUMPDEST PUSH1 0x0 PUSH20 0xFFFFFFFFFFFFFFFFFFFFFFFFFFFFFFFFFFFFFFFF DUP3 AND SWAP1 POP SWAP2 SWAP1 POP JUMP JUMPDEST PUSH1 0x0 PUSH2 0x205B DUP3 PUSH2 0x2030 JUMP JUMPDEST SWAP1 POP SWAP2 SWAP1 POP JUMP JUMPDEST PUSH2 0x206B DUP2 PUSH2 0x2050 JUMP JUMPDEST DUP2 EQ PUSH2 0x2076 JUMPI PUSH1 0x0 DUP1 REVERT JUMPDEST POP JUMP JUMPDEST PUSH1 0x0 DUP2 CALLDATALOAD SWAP1 POP PUSH2 0x2088 DUP2 PUSH2 0x2062 JUMP JUMPDEST SWAP3 SWAP2 POP POP JUMP JUMPDEST PUSH1 0x0 DUP1 PUSH1 0x40 DUP4 DUP6 SUB SLT ISZERO PUSH2 0x20A5 JUMPI PUSH2 0x20A4 PUSH2 0x1D1E JUMP JUMPDEST JUMPDEST PUSH1 0x0 DUP4 ADD CALLDATALOAD PUSH8 0xFFFFFFFFFFFFFFFF DUP2 GT ISZERO PUSH2 0x20C3 JUMPI PUSH2 0x20C2 PUSH2 0x1D23 JUMP JUMPDEST JUMPDEST PUSH2 0x20CF DUP6 DUP3 DUP7 ADD PUSH2 0x2002 JUMP JUMPDEST SWAP3 POP POP PUSH1 0x20 PUSH2 0x20E0 DUP6 DUP3 DUP7 ADD PUSH2 0x2079 JUMP JUMPDEST SWAP2 POP POP SWAP3 POP SWAP3 SWAP1 POP JUMP JUMPDEST PUSH2 0x20F3 DUP2 PUSH2 0x2050 JUMP JUMPDEST DUP3 MSTORE POP POP JUMP JUMPDEST PUSH1 0x0 PUSH1 0x20 DUP3 ADD SWAP1 POP PUSH2 0x210E PUSH1 0x0 DUP4 ADD DUP5 PUSH2 0x20EA JUMP JUMPDEST SWAP3 SWAP2 POP POP JUMP JUMPDEST PUSH1 0x0 PUSH1 0xFF DUP3 AND SWAP1 POP SWAP2 SWAP1 POP JUMP JUMPDEST PUSH2 0x212A DUP2 PUSH2 0x2114 JUMP JUMPDEST DUP2 EQ PUSH2 0x2135 JUMPI PUSH1 0x0 DUP1 REVERT JUMPDEST POP JUMP JUMPDEST PUSH1 0x0 DUP2 CALLDATALOAD SWAP1 POP PUSH2 0x2147 DUP2 PUSH2 0x2121 JUMP JUMPDEST SWAP3 SWAP2 POP POP JUMP JUMPDEST PUSH1 0x0 DUP1 PUSH1 0x0 PUSH1 0x60 DUP5 DUP7 SUB SLT ISZERO PUSH2 0x2166 JUMPI PUSH2 0x2165 PUSH2 0x1D1E JUMP JUMPDEST JUMPDEST PUSH1 0x0 PUSH2 0x2174 DUP7 DUP3 DUP8 ADD PUSH2 0x2138 JUMP JUMPDEST SWAP4 POP POP PUSH1 0x20 PUSH2 0x2185 DUP7 DUP3 DUP8 ADD PUSH2 0x1D4F JUMP JUMPDEST SWAP3 POP POP PUSH1 0x40 PUSH2 0x2196 DUP7 DUP3 DUP8 ADD PUSH2 0x1D4F JUMP JUMPDEST SWAP2 POP POP SWAP3 POP SWAP3 POP SWAP3 JUMP JUMPDEST PUSH1 0x0 PUSH1 0x20 DUP3 DUP5 SUB SLT ISZERO PUSH2 0x21B6 JUMPI PUSH2 0x21B5 PUSH2 0x1D1E JUMP JUMPDEST JUMPDEST PUSH1 0x0 PUSH2 0x21C4 DUP5 DUP3 DUP6 ADD PUSH2 0x2079 JUMP JUMPDEST SWAP2 POP POP SWAP3 SWAP2 POP POP JUMP JUMPDEST PUSH1 0x0 DUP2 MLOAD SWAP1 POP SWAP2 SWAP1 POP JUMP JUMPDEST PUSH1 0x0 DUP3 DUP3 MSTORE PUSH1 0x20 DUP3 ADD SWAP1 POP SWAP3 SWAP2 POP POP JUMP JUMPDEST PUSH1 0x0 JUMPDEST DUP4 DUP2 LT ISZERO PUSH2 0x2207 JUMPI DUP1 DUP3 ADD MLOAD DUP2 DUP5 ADD MSTORE PUSH1 0x20 DUP2 ADD SWAP1 POP PUSH2 0x21EC JUMP JUMPDEST DUP4 DUP2 GT ISZERO PUSH2 0x2216 JUMPI PUSH1 0x0 DUP5 DUP5 ADD MSTORE JUMPDEST POP POP POP POP JUMP JUMPDEST PUSH1 0x0 PUSH2 0x2227 DUP3 PUSH2 0x21CD JUMP JUMPDEST PUSH2 0x2231 DUP2 DUP6 PUSH2 0x21D8 JUMP JUMPDEST SWAP4 POP PUSH2 0x2241 DUP2 DUP6 PUSH1 0x20 DUP7 ADD PUSH2 0x21E9 JUMP JUMPDEST PUSH2 0x224A DUP2 PUSH2 0x1D69 JUMP JUMPDEST DUP5 ADD SWAP2 POP POP SWAP3 SWAP2 POP POP JUMP JUMPDEST PUSH2 0x225E DUP2 PUSH2 0x2050 JUMP JUMPDEST DUP3 MSTORE POP POP JUMP JUMPDEST PUSH2 0x226D DUP2 PUSH2 0x1E26 JUMP JUMPDEST DUP3 MSTORE POP POP JUMP JUMPDEST PUSH1 0x0 PUSH1 0x60 DUP4 ADD PUSH1 0x0 DUP4 ADD MLOAD DUP5 DUP3 SUB PUSH1 0x0 DUP7 ADD MSTORE PUSH2 0x2290 DUP3 DUP3 PUSH2 0x221C JUMP JUMPDEST SWAP2 POP POP PUSH1 0x20 DUP4 ADD MLOAD PUSH2 0x22A5 PUSH1 0x20 DUP7 ADD DUP3 PUSH2 0x2255 JUMP JUMPDEST POP PUSH1 0x40 DUP4 ADD MLOAD PUSH2 0x22B8 PUSH1 0x40 DUP7 ADD DUP3 PUSH2 0x2264 JUMP JUMPDEST POP DUP1 SWAP2 POP POP SWAP3 SWAP2 POP POP JUMP JUMPDEST PUSH1 0x0 PUSH1 0x20 DUP3 ADD SWAP1 POP DUP2 DUP2 SUB PUSH1 0x0 DUP4 ADD MSTORE PUSH2 0x22DD DUP2 DUP5 PUSH2 0x2273 JUMP JUMPDEST SWAP1 POP SWAP3 SWAP2 POP POP JUMP JUMPDEST PUSH1 0x0 DUP3 DUP3 MSTORE PUSH1 0x20 DUP3 ADD SWAP1 POP SWAP3 SWAP2 POP POP JUMP JUMPDEST PUSH32 0x4F6E6C7920746865206170706C69636174696F6E2063616E2065786563757465 PUSH1 0x0 DUP3 ADD MSTORE PUSH32 0x2074686973206F7065726174696F6E0000000000000000000000000000000000 PUSH1 0x20 DUP3 ADD MSTORE POP JUMP JUMPDEST PUSH1 0x0 PUSH2 0x2352 PUSH1 0x2F DUP4 PUSH2 0x22E5 JUMP JUMPDEST SWAP2 POP PUSH2 0x235D DUP3 PUSH2 0x22F6 JUMP JUMPDEST PUSH1 0x40 DUP3 ADD SWAP1 POP SWAP2 SWAP1 POP JUMP JUMPDEST PUSH1 0x0 PUSH1 0x20 DUP3 ADD SWAP1 POP DUP2 DUP2 SUB PUSH1 0x0 DUP4 ADD MSTORE PUSH2 0x2381 DUP2 PUSH2 0x2345 JUMP JUMPDEST SWAP1 POP SWAP2 SWAP1 POP JUMP JUMPDEST PUSH32 0x4E487B7100000000000000000000000000000000000000000000000000000000 PUSH1 0x0 MSTORE PUSH1 0x32 PUSH1 0x4 MSTORE PUSH1 0x24 PUSH1 0x0 REVERT JUMPDEST PUSH32 0x5375636365737366756C20657865637574696F6E210000000000000000000000 PUSH1 0x0 DUP3 ADD MSTORE POP JUMP JUMPDEST PUSH1 0x0 PUSH2 0x23ED PUSH1 0x15 DUP4 PUSH2 0x22E5 JUMP JUMPDEST SWAP2 POP PUSH2 0x23F8 DUP3 PUSH2 0x23B7 JUMP JUMPDEST PUSH1 0x20 DUP3 ADD SWAP1 POP SWAP2 SWAP1 POP JUMP JUMPDEST PUSH1 0x0 PUSH1 0x20 DUP3 ADD SWAP1 POP DUP2 DUP2 SUB PUSH1 0x0 DUP4 ADD MSTORE PUSH2 0x241C DUP2 PUSH2 0x23E0 JUMP JUMPDEST SWAP1 POP SWAP2 SWAP1 POP JUMP JUMPDEST PUSH32 0x436F6E646974696F6E7320646F206E6F74206D65657400000000000000000000 PUSH1 0x0 DUP3 ADD MSTORE POP JUMP JUMPDEST PUSH1 0x0 PUSH2 0x2459 PUSH1 0x16 DUP4 PUSH2 0x22E5 JUMP JUMPDEST SWAP2 POP PUSH2 0x2464 DUP3 PUSH2 0x2423 JUMP JUMPDEST PUSH1 0x20 DUP3 ADD SWAP1 POP SWAP2 SWAP1 POP JUMP JUMPDEST PUSH1 0x0 PUSH1 0x20 DUP3 ADD SWAP1 POP DUP2 DUP2 SUB PUSH1 0x0 DUP4 ADD MSTORE PUSH2 0x2488 DUP2 PUSH2 0x244C JUMP JUMPDEST SWAP1 POP SWAP2 SWAP1 POP JUMP JUMPDEST PUSH32 0x4F6E6C79207468652070726F636573732063616E206578656375746520746869 PUSH1 0x0 DUP3 ADD MSTORE PUSH32 0x73206F7065726174696F6E000000000000000000000000000000000000000000 PUSH1 0x20 DUP3 ADD MSTORE POP JUMP JUMPDEST PUSH1 0x0 PUSH2 0x24EB PUSH1 0x2B DUP4 PUSH2 0x22E5 JUMP JUMPDEST SWAP2 POP PUSH2 0x24F6 DUP3 PUSH2 0x248F JUMP JUMPDEST PUSH1 0x40 DUP3 ADD SWAP1 POP SWAP2 SWAP1 POP JUMP JUMPDEST PUSH1 0x0 PUSH1 0x20 DUP3 ADD SWAP1 POP DUP2 DUP2 SUB PUSH1 0x0 DUP4 ADD MSTORE PUSH2 0x251A DUP2 PUSH2 0x24DE JUMP JUMPDEST SWAP1 POP SWAP2 SWAP1 POP JUMP JUMPDEST PUSH32 0x4F6E6C79207468652070726F63657373206F7220746865206170706C69636174 PUSH1 0x0 DUP3 ADD MSTORE PUSH32 0x696F6E2063616E20657865637574652074686973206F7065726174696F6E0000 PUSH1 0x20 DUP3 ADD MSTORE POP JUMP JUMPDEST PUSH1 0x0 PUSH2 0x257D PUSH1 0x3E DUP4 PUSH2 0x22E5 JUMP JUMPDEST SWAP2 POP PUSH2 0x2588 DUP3 PUSH2 0x2521 JUMP JUMPDEST PUSH1 0x40 DUP3 ADD SWAP1 POP SWAP2 SWAP1 POP JUMP JUMPDEST PUSH1 0x0 PUSH1 0x20 DUP3 ADD SWAP1 POP DUP2 DUP2 SUB PUSH1 0x0 DUP4 ADD MSTORE PUSH2 0x25AC DUP2 PUSH2 0x2570 JUMP JUMPDEST SWAP1 POP SWAP2 SWAP1 POP JUMP JUMPDEST PUSH32 0x54686520636F6E747261637420697320616C7265616479207369676E65640000 PUSH1 0x0 DUP3 ADD MSTORE POP JUMP JUMPDEST PUSH1 0x0 PUSH2 0x25E9 PUSH1 0x1E DUP4 PUSH2 0x22E5 JUMP JUMPDEST SWAP2 POP PUSH2 0x25F4 DUP3 PUSH2 0x25B3 JUMP JUMPDEST PUSH1 0x20 DUP3 ADD SWAP1 POP SWAP2 SWAP1 POP JUMP JUMPDEST PUSH1 0x0 PUSH1 0x20 DUP3 ADD SWAP1 POP DUP2 DUP2 SUB PUSH1 0x0 DUP4 ADD MSTORE PUSH2 0x2618 DUP2 PUSH2 0x25DC JUMP JUMPDEST SWAP1 POP SWAP2 SWAP1 POP JUMP JUMPDEST PUSH32 0x4E487B7100000000000000000000000000000000000000000000000000000000 PUSH1 0x0 MSTORE PUSH1 0x22 PUSH1 0x4 MSTORE PUSH1 0x24 PUSH1 0x0 REVERT JUMPDEST PUSH1 0x0 PUSH1 0x2 DUP3 DIV SWAP1 POP PUSH1 0x1 DUP3 AND DUP1 PUSH2 0x2666 JUMPI PUSH1 0x7F DUP3 AND SWAP2 POP JUMPDEST PUSH1 0x20 DUP3 LT DUP2 SUB PUSH2 0x2679 JUMPI PUSH2 0x2678 PUSH2 0x261F JUMP JUMPDEST JUMPDEST POP SWAP2 SWAP1 POP JUMP JUMPDEST PUSH32 0x546865205F7374617274446179206E6F7420726570726573656E747320612076 PUSH1 0x0 DUP3 ADD MSTORE PUSH32 0x616C696420646179000000000000000000000000000000000000000000000000 PUSH1 0x20 DUP3 ADD MSTORE POP JUMP JUMPDEST PUSH1 0x0 PUSH2 0x26DB PUSH1 0x28 DUP4 PUSH2 0x22E5 JUMP JUMPDEST SWAP2 POP PUSH2 0x26E6 DUP3 PUSH2 0x267F JUMP JUMPDEST PUSH1 0x40 DUP3 ADD SWAP1 POP SWAP2 SWAP1 POP JUMP JUMPDEST PUSH1 0x0 PUSH1 0x20 DUP3 ADD SWAP1 POP DUP2 DUP2 SUB PUSH1 0x0 DUP4 ADD MSTORE PUSH2 0x270A DUP2 PUSH2 0x26CE JUMP JUMPDEST SWAP1 POP SWAP2 SWAP1 POP JUMP JUMPDEST PUSH32 0x546865205F656E64446179206E6F7420726570726573656E747320612076616C PUSH1 0x0 DUP3 ADD MSTORE PUSH32 0x6964206461790000000000000000000000000000000000000000000000000000 PUSH1 0x20 DUP3 ADD MSTORE POP JUMP JUMPDEST PUSH1 0x0 PUSH2 0x276D PUSH1 0x26 DUP4 PUSH2 0x22E5 JUMP JUMPDEST SWAP2 POP PUSH2 0x2778 DUP3 PUSH2 0x2711 JUMP JUMPDEST PUSH1 0x40 DUP3 ADD SWAP1 POP SWAP2 SWAP1 POP JUMP JUMPDEST PUSH1 0x0 PUSH1 0x20 DUP3 ADD SWAP1 POP DUP2 DUP2 SUB PUSH1 0x0 DUP4 ADD MSTORE PUSH2 0x279C DUP2 PUSH2 0x2760 JUMP JUMPDEST SWAP1 POP SWAP2 SWAP1 POP JUMP JUMPDEST PUSH32 0x5468657265206973206E6F20656E6454696D652073657420696E2074696D656F PUSH1 0x0 DUP3 ADD MSTORE PUSH32 0x7574000000000000000000000000000000000000000000000000000000000000 PUSH1 0x20 DUP3 ADD MSTORE POP JUMP JUMPDEST PUSH1 0x0 PUSH2 0x27FF PUSH1 0x22 DUP4 PUSH2 0x22E5 JUMP JUMPDEST SWAP2 POP PUSH2 0x280A DUP3 PUSH2 0x27A3 JUMP JUMPDEST PUSH1 0x40 DUP3 ADD SWAP1 POP SWAP2 SWAP1 POP JUMP JUMPDEST PUSH1 0x0 PUSH1 0x20 DUP3 ADD SWAP1 POP DUP2 DUP2 SUB PUSH1 0x0 DUP4 ADD MSTORE PUSH2 0x282E DUP2 PUSH2 0x27F2 JUMP JUMPDEST SWAP1 POP SWAP2 SWAP1 POP JUMP JUMPDEST PUSH32 0x4E487B7100000000000000000000000000000000000000000000000000000000 PUSH1 0x0 MSTORE PUSH1 0x11 PUSH1 0x4 MSTORE PUSH1 0x24 PUSH1 0x0 REVERT JUMPDEST PUSH1 0x0 PUSH2 0x286F DUP3 PUSH2 0x1D28 JUMP JUMPDEST SWAP2 POP PUSH2 0x287A DUP4 PUSH2 0x1D28 JUMP JUMPDEST SWAP3 POP DUP3 DUP3 LT ISZERO PUSH2 0x288D JUMPI PUSH2 0x288C PUSH2 0x2835 JUMP JUMPDEST JUMPDEST DUP3 DUP3 SUB SWAP1 POP SWAP3 SWAP2 POP POP JUMP JUMPDEST PUSH1 0x0 PUSH2 0x28A3 DUP3 PUSH2 0x1D28 JUMP JUMPDEST SWAP2 POP PUSH2 0x28AE DUP4 PUSH2 0x1D28 JUMP JUMPDEST SWAP3 POP DUP3 PUSH4 0xFFFFFFFF SUB DUP3 GT ISZERO PUSH2 0x28C7 JUMPI PUSH2 0x28C6 PUSH2 0x2835 JUMP JUMPDEST JUMPDEST DUP3 DUP3 ADD SWAP1 POP SWAP3 SWAP2 POP POP JUMP JUMPDEST PUSH32 0x546865206D6574686F642067657454696D65496E5365636F6E647320646F6573 PUSH1 0x0 DUP3 ADD MSTORE PUSH32 0x6E277420776F726B20666F72204D4F4E544820616E6420594541520000000000 PUSH1 0x20 DUP3 ADD MSTORE POP JUMP JUMPDEST PUSH1 0x0 PUSH2 0x292E PUSH1 0x3B DUP4 PUSH2 0x22E5 JUMP JUMPDEST SWAP2 POP PUSH2 0x2939 DUP3 PUSH2 0x28D2 JUMP JUMPDEST PUSH1 0x40 DUP3 ADD SWAP1 POP SWAP2 SWAP1 POP JUMP JUMPDEST PUSH1 0x0 PUSH1 0x20 DUP3 ADD SWAP1 POP DUP2 DUP2 SUB PUSH1 0x0 DUP4 ADD MSTORE PUSH2 0x295D DUP2 PUSH2 0x2921 JUMP JUMPDEST SWAP1 POP SWAP2 SWAP1 POP JUMP JUMPDEST PUSH1 0x0 DUP2 SWAP1 POP SWAP2 SWAP1 POP JUMP JUMPDEST PUSH1 0x0 PUSH2 0x2979 DUP3 PUSH2 0x2964 JUMP JUMPDEST SWAP2 POP PUSH32 0xFFFFFFFFFFFFFFFFFFFFFFFFFFFFFFFFFFFFFFFFFFFFFFFFFFFFFFFFFFFFFFFF DUP3 SUB PUSH2 0x29AB JUMPI PUSH2 0x29AA PUSH2 0x2835 JUMP JUMPDEST JUMPDEST PUSH1 0x1 DUP3 ADD SWAP1 POP SWAP2 SWAP1 POP JUMP JUMPDEST PUSH32 0x4E487B7100000000000000000000000000000000000000000000000000000000 PUSH1 0x0 MSTORE PUSH1 0x12 PUSH1 0x4 MSTORE PUSH1 0x24 PUSH1 0x0 REVERT JUMPDEST PUSH1 0x0 PUSH2 0x29F0 DUP3 PUSH2 0x2964 JUMP JUMPDEST SWAP2 POP PUSH2 0x29FB DUP4 PUSH2 0x2964 JUMP JUMPDEST SWAP3 POP DUP3 PUSH2 0x2A0B JUMPI PUSH2 0x2A0A PUSH2 0x29B6 JUMP JUMPDEST JUMPDEST DUP3 DUP3 DIV SWAP1 POP SWAP3 SWAP2 POP POP JUMP JUMPDEST PUSH1 0x0 PUSH2 0x2A21 DUP3 PUSH2 0x2964 JUMP JUMPDEST SWAP2 POP PUSH2 0x2A2C DUP4 PUSH2 0x2964 JUMP JUMPDEST SWAP3 POP DUP3 DUP3 LT ISZERO PUSH2 0x2A3F JUMPI PUSH2 0x2A3E PUSH2 0x2835 JUMP JUMPDEST JUMPDEST DUP3 DUP3 SUB SWAP1 POP SWAP3 SWAP2 POP POP JUMP JUMPDEST PUSH1 0x0 PUSH2 0x2A55 DUP3 PUSH2 0x2964 JUMP JUMPDEST SWAP2 POP PUSH2 0x2A60 DUP4 PUSH2 0x2964 JUMP JUMPDEST SWAP3 POP DUP3 PUSH2 0x2A70 JUMPI PUSH2 0x2A6F PUSH2 0x29B6 JUMP JUMPDEST JUMPDEST DUP3 DUP3 MOD SWAP1 POP SWAP3 SWAP2 POP POP JUMP JUMPDEST PUSH1 0x0 PUSH2 0x2A86 DUP3 PUSH2 0x2964 JUMP JUMPDEST SWAP2 POP PUSH2 0x2A91 DUP4 PUSH2 0x2964 JUMP JUMPDEST SWAP3 POP DUP3 PUSH32 0xFFFFFFFFFFFFFFFFFFFFFFFFFFFFFFFFFFFFFFFFFFFFFFFFFFFFFFFFFFFFFFFF SUB DUP3 GT ISZERO PUSH2 0x2AC6 JUMPI PUSH2 0x2AC5 PUSH2 0x2835 JUMP JUMPDEST JUMPDEST DUP3 DUP3 ADD SWAP1 POP SWAP3 SWAP2 POP POP JUMP JUMPDEST PUSH1 0x0 PUSH2 0x2ADC DUP3 PUSH2 0x1D28 JUMP JUMPDEST SWAP2 POP PUSH2 0x2AE7 DUP4 PUSH2 0x1D28 JUMP JUMPDEST SWAP3 POP DUP2 PUSH4 0xFFFFFFFF DIV DUP4 GT DUP3 ISZERO ISZERO AND ISZERO PUSH2 0x2B04 JUMPI PUSH2 0x2B03 PUSH2 0x2835 JUMP JUMPDEST JUMPDEST DUP3 DUP3 MUL SWAP1 POP SWAP3 SWAP2 POP POP JUMP JUMPDEST PUSH1 0x0 PUSH2 0x2B1A DUP3 PUSH2 0x1D28 JUMP JUMPDEST SWAP2 POP PUSH2 0x2B25 DUP4 PUSH2 0x1D28 JUMP JUMPDEST SWAP3 POP DUP3 PUSH2 0x2B35 JUMPI PUSH2 0x2B34 PUSH2 0x29B6 JUMP JUMPDEST JUMPDEST DUP3 DUP3 DIV SWAP1 POP SWAP3 SWAP2 POP POP JUMP JUMPDEST PUSH1 0x0 PUSH2 0x2B4B DUP3 PUSH2 0x1D28 JUMP JUMPDEST SWAP2 POP PUSH2 0x2B56 DUP4 PUSH2 0x1D28 JUMP JUMPDEST SWAP3 POP DUP3 PUSH2 0x2B66 JUMPI PUSH2 0x2B65 PUSH2 0x29B6 JUMP JUMPDEST JUMPDEST DUP3 DUP3 MOD SWAP1 POP SWAP3 SWAP2 POP POP JUMP INVALID LOG2 PUSH5 0x6970667358 0x22 SLT KECCAK256 SWAP16 0xB0 GT 0xA9 PUSH5 0x213CC933D PUSH28 0x5BFBE5151EA57FC4654CB5823C4D42FBBBA1C704C064736F6C634300 ADDMOD 0xD STOP CALLER PUSH4 0x6F756E74 0x28 0x2F 0x2F PUSH3 0x6F6479 0x2F PUSH19 0x6571756573742F646F63756D656E7429203D3D KECCAK256 PUSH4 0x6F756E74 0x28 0x2F 0x2F PUSH3 0x6F6479 0x2F PUSH19 0x6573706F6E73652F646F63756D656E74290000 "
				},
				"gasEstimates": {
					"creation": {
						"codeDepositCost": "2235000",
						"executionCost": "infinite",
						"totalCost": "infinite"
					},
					"external": {
						"changeApplicationParty(string,address)": "infinite",
						"getApplicationAddress()": "6930",
						"getParty(address)": "infinite",
						"getProcessAddress()": "6885",
						"obligation_responseWorks(uint32,bool[])": "infinite",
						"right_requestAllWorks(uint8,uint32,uint32)": "infinite",
						"signContract()": "infinite"
					},
					"internal": {
						"updateMapParty(address,struct EAI.Party storage pointer)": "infinite"
					}
				},
				"methodIdentifiers": {
					"changeApplicationParty(string,address)": "5e744c6a",
					"getApplicationAddress()": "70d8915a",
					"getParty(address)": "fb6f8243",
					"getProcessAddress()": "85931911",
					"obligation_responseWorks(uint32,bool[])": "22d53d53",
					"right_requestAllWorks(uint8,uint32,uint32)": "9c764223",
					"signContract()": "b8b4f1a0"
				}
			},
			"storageLayout": {
				"storage": [
					{
						"astId": 2009,
						"contract": "contracts/study-case-contracts/002-orcid/Orcid.sol:Orcid",
						"label": "beginDate",
						"offset": 0,
						"slot": "0",
						"type": "t_uint32"
					},
					{
						"astId": 2011,
						"contract": "contracts/study-case-contracts/002-orcid/Orcid.sol:Orcid",
						"label": "dueDate",
						"offset": 4,
						"slot": "0",
						"type": "t_uint32"
					},
					{
						"astId": 2018,
						"contract": "contracts/study-case-contracts/002-orcid/Orcid.sol:Orcid",
						"label": "application",
						"offset": 0,
						"slot": "1",
						"type": "t_struct(Party)69_storage"
					},
					{
						"astId": 2021,
						"contract": "contracts/study-case-contracts/002-orcid/Orcid.sol:Orcid",
						"label": "process",
						"offset": 0,
						"slot": "3",
						"type": "t_struct(Party)69_storage"
					},
					{
						"astId": 2026,
						"contract": "contracts/study-case-contracts/002-orcid/Orcid.sol:Orcid",
						"label": "mapParty",
						"offset": 0,
						"slot": "5",
						"type": "t_mapping(t_address,t_struct(Party)69_storage)"
					},
					{
						"astId": 2058,
						"contract": "contracts/study-case-contracts/002-orcid/Orcid.sol:Orcid",
						"label": "weekDaysInterval_C1",
						"offset": 0,
						"slot": "6",
						"type": "t_array(t_struct(WeekDaysInterval)154_storage)dyn_storage"
					},
					{
						"astId": 2062,
						"contract": "contracts/study-case-contracts/002-orcid/Orcid.sol:Orcid",
						"label": "timeInterval_C1",
						"offset": 0,
						"slot": "7",
						"type": "t_array(t_struct(TimeInterval)376_storage)dyn_storage"
					},
					{
						"astId": 2066,
						"contract": "contracts/study-case-contracts/002-orcid/Orcid.sol:Orcid",
						"label": "maxNumberOfOperationByTime_C1",
						"offset": 0,
						"slot": "8",
						"type": "t_array(t_struct(MaxNumberOfOperationByTime)772_storage)dyn_storage"
					},
					{
						"astId": 2070,
						"contract": "contracts/study-case-contracts/002-orcid/Orcid.sol:Orcid",
						"label": "timeout_C2",
						"offset": 0,
						"slot": "9",
						"type": "t_array(t_struct(Timeout)598_storage)dyn_storage"
					},
					{
						"astId": 2074,
						"contract": "contracts/study-case-contracts/002-orcid/Orcid.sol:Orcid",
						"label": "msgContent_onlyPath_C2",
						"offset": 0,
						"slot": "10",
						"type": "t_array(t_struct(MessageContent_onlyXPath)902_storage)dyn_storage"
					}
				],
				"types": {
					"t_address": {
						"encoding": "inplace",
						"label": "address",
						"numberOfBytes": "20"
					},
					"t_array(t_struct(MaxNumberOfOperationByTime)772_storage)dyn_storage": {
						"base": "t_struct(MaxNumberOfOperationByTime)772_storage",
						"encoding": "dynamic_array",
						"label": "struct EAI.MaxNumberOfOperationByTime[]",
						"numberOfBytes": "32"
					},
					"t_array(t_struct(MessageContent_onlyXPath)902_storage)dyn_storage": {
						"base": "t_struct(MessageContent_onlyXPath)902_storage",
						"encoding": "dynamic_array",
						"label": "struct EAI.MessageContent_onlyXPath[]",
						"numberOfBytes": "32"
					},
					"t_array(t_struct(TimeInterval)376_storage)dyn_storage": {
						"base": "t_struct(TimeInterval)376_storage",
						"encoding": "dynamic_array",
						"label": "struct EAI.TimeInterval[]",
						"numberOfBytes": "32"
					},
					"t_array(t_struct(Timeout)598_storage)dyn_storage": {
						"base": "t_struct(Timeout)598_storage",
						"encoding": "dynamic_array",
						"label": "struct EAI.Timeout[]",
						"numberOfBytes": "32"
					},
					"t_array(t_struct(WeekDaysInterval)154_storage)dyn_storage": {
						"base": "t_struct(WeekDaysInterval)154_storage",
						"encoding": "dynamic_array",
						"label": "struct EAI.WeekDaysInterval[]",
						"numberOfBytes": "32"
					},
					"t_bool": {
						"encoding": "inplace",
						"label": "bool",
						"numberOfBytes": "1"
					},
					"t_mapping(t_address,t_struct(Party)69_storage)": {
						"encoding": "mapping",
						"key": "t_address",
						"label": "mapping(address => struct EAI.Party)",
						"numberOfBytes": "32",
						"value": "t_struct(Party)69_storage"
					},
					"t_string_storage": {
						"encoding": "bytes",
						"label": "string",
						"numberOfBytes": "32"
					},
					"t_struct(MaxNumberOfOperationByTime)772_storage": {
						"encoding": "inplace",
						"label": "struct EAI.MaxNumberOfOperationByTime",
						"members": [
							{
								"astId": 763,
								"contract": "contracts/study-case-contracts/002-orcid/Orcid.sol:Orcid",
								"label": "amount",
								"offset": 0,
								"slot": "0",
								"type": "t_uint32"
							},
							{
								"astId": 765,
								"contract": "contracts/study-case-contracts/002-orcid/Orcid.sol:Orcid",
								"label": "timeUnit",
								"offset": 4,
								"slot": "0",
								"type": "t_uint8"
							},
							{
								"astId": 767,
								"contract": "contracts/study-case-contracts/002-orcid/Orcid.sol:Orcid",
								"label": "byTime",
								"offset": 5,
								"slot": "0",
								"type": "t_uint32"
							},
							{
								"astId": 769,
								"contract": "contracts/study-case-contracts/002-orcid/Orcid.sol:Orcid",
								"label": "rest",
								"offset": 9,
								"slot": "0",
								"type": "t_uint32"
							},
							{
								"astId": 771,
								"contract": "contracts/study-case-contracts/002-orcid/Orcid.sol:Orcid",
								"label": "endTime",
								"offset": 13,
								"slot": "0",
								"type": "t_uint32"
							}
						],
						"numberOfBytes": "32"
					},
					"t_struct(MessageContent_onlyXPath)902_storage": {
						"encoding": "inplace",
						"label": "struct EAI.MessageContent_onlyXPath",
						"members": [
							{
								"astId": 901,
								"contract": "contracts/study-case-contracts/002-orcid/Orcid.sol:Orcid",
								"label": "xpath",
								"offset": 0,
								"slot": "0",
								"type": "t_string_storage"
							}
						],
						"numberOfBytes": "32"
					},
					"t_struct(Party)69_storage": {
						"encoding": "inplace",
						"label": "struct EAI.Party",
						"members": [
							{
								"astId": 64,
								"contract": "contracts/study-case-contracts/002-orcid/Orcid.sol:Orcid",
								"label": "name",
								"offset": 0,
								"slot": "0",
								"type": "t_string_storage"
							},
							{
								"astId": 66,
								"contract": "contracts/study-case-contracts/002-orcid/Orcid.sol:Orcid",
								"label": "walletAddress",
								"offset": 0,
								"slot": "1",
								"type": "t_address"
							},
							{
								"astId": 68,
								"contract": "contracts/study-case-contracts/002-orcid/Orcid.sol:Orcid",
								"label": "aware",
								"offset": 20,
								"slot": "1",
								"type": "t_bool"
							}
						],
						"numberOfBytes": "64"
					},
					"t_struct(TimeInterval)376_storage": {
						"encoding": "inplace",
						"label": "struct EAI.TimeInterval",
						"members": [
							{
								"astId": 373,
								"contract": "contracts/study-case-contracts/002-orcid/Orcid.sol:Orcid",
								"label": "start",
								"offset": 0,
								"slot": "0",
								"type": "t_uint32"
							},
							{
								"astId": 375,
								"contract": "contracts/study-case-contracts/002-orcid/Orcid.sol:Orcid",
								"label": "end",
								"offset": 4,
								"slot": "0",
								"type": "t_uint32"
							}
						],
						"numberOfBytes": "32"
					},
					"t_struct(Timeout)598_storage": {
						"encoding": "inplace",
						"label": "struct EAI.Timeout",
						"members": [
							{
								"astId": 595,
								"contract": "contracts/study-case-contracts/002-orcid/Orcid.sol:Orcid",
								"label": "endTime",
								"offset": 0,
								"slot": "0",
								"type": "t_uint32"
							},
							{
								"astId": 597,
								"contract": "contracts/study-case-contracts/002-orcid/Orcid.sol:Orcid",
								"label": "timeIncrement",
								"offset": 4,
								"slot": "0",
								"type": "t_uint32"
							}
						],
						"numberOfBytes": "32"
					},
					"t_struct(WeekDaysInterval)154_storage": {
						"encoding": "inplace",
						"label": "struct EAI.WeekDaysInterval",
						"members": [
							{
								"astId": 151,
								"contract": "contracts/study-case-contracts/002-orcid/Orcid.sol:Orcid",
								"label": "start",
								"offset": 0,
								"slot": "0",
								"type": "t_uint8"
							},
							{
								"astId": 153,
								"contract": "contracts/study-case-contracts/002-orcid/Orcid.sol:Orcid",
								"label": "end",
								"offset": 1,
								"slot": "0",
								"type": "t_uint8"
							}
						],
						"numberOfBytes": "32"
					},
					"t_uint32": {
						"encoding": "inplace",
						"label": "uint32",
						"numberOfBytes": "4"
					},
					"t_uint8": {
						"encoding": "inplace",
						"label": "uint8",
						"numberOfBytes": "1"
					}
				}
			},
			"userdoc": {
				"kind": "user",
				"methods": {},
				"version": 1
			}
		}
	}
}