{
  "contractName": "DeliveryHiring_R",
  "abi": [
    {
      "inputs": [
        {
          "internalType": "address",
          "name": "_applicationWallet",
          "type": "address"
        }
      ],
      "stateMutability": "nonpayable",
      "type": "constructor"
    },
    {
      "anonymous": false,
      "inputs": [
        {
          "indexed": false,
          "internalType": "string",
          "name": "_logMessage",
          "type": "string"
        }
      ],
      "name": "failEvent",
      "type": "event"
    },
    {
      "anonymous": false,
      "inputs": [
        {
          "indexed": false,
          "internalType": "string",
          "name": "_logMessage",
          "type": "string"
        }
      ],
      "name": "successEvent",
      "type": "event"
    },
    {
      "inputs": [
        {
          "internalType": "uint32",
          "name": "_accessDateTime",
          "type": "uint32"
        },
        {
          "internalType": "uint8",
          "name": "_weekDay",
          "type": "uint8"
        },
        {
          "internalType": "uint32",
          "name": "_hourOfDay",
          "type": "uint32"
        },
        {
          "internalType": "int256[]",
          "name": "_resultFromXpath",
          "type": "int256[]"
        },
        {
          "internalType": "uint256[]",
          "name": "_resultFromXpath_numberPerTime",
          "type": "uint256[]"
        }
      ],
      "name": "right_requestDelivery",
      "outputs": [
        {
          "internalType": "bool",
          "name": "",
          "type": "bool"
        }
      ],
      "stateMutability": "nonpayable",
      "type": "function"
    },
    {
      "inputs": [],
      "name": "onlyForTest_decreaseOperation",
      "outputs": [
        {
          "internalType": "uint32",
          "name": "",
          "type": "uint32"
        }
      ],
      "stateMutability": "nonpayable",
      "type": "function"
    },
    {
      "inputs": [],
      "name": "signContract",
      "outputs": [
        {
          "internalType": "bool",
          "name": "",
          "type": "bool"
        }
      ],
      "stateMutability": "nonpayable",
      "type": "function"
    },
    {
      "inputs": [
        {
          "internalType": "string",
          "name": "_name",
          "type": "string"
        },
        {
          "internalType": "address",
          "name": "_walletAddress",
          "type": "address"
        }
      ],
      "name": "changeApplicationParty",
      "outputs": [
        {
          "internalType": "bool",
          "name": "",
          "type": "bool"
        }
      ],
      "stateMutability": "nonpayable",
      "type": "function"
    },
    {
      "inputs": [],
      "name": "getProcessAddress",
      "outputs": [
        {
          "internalType": "address",
          "name": "",
          "type": "address"
        }
      ],
      "stateMutability": "view",
      "type": "function"
    },
    {
      "inputs": [],
      "name": "getApplicationAddress",
      "outputs": [
        {
          "internalType": "address",
          "name": "",
          "type": "address"
        }
      ],
      "stateMutability": "view",
      "type": "function"
    },
    {
      "inputs": [
        {
          "internalType": "address",
          "name": "_walletAddress",
          "type": "address"
        }
      ],
      "name": "getParty",
      "outputs": [
        {
          "components": [
            {
              "internalType": "string",
              "name": "name",
              "type": "string"
            },
            {
              "internalType": "address",
              "name": "walletAddress",
              "type": "address"
            },
            {
              "internalType": "bool",
              "name": "aware",
              "type": "bool"
            }
          ],
          "internalType": "struct EAI.Party",
          "name": "",
          "type": "tuple"
        }
      ],
      "stateMutability": "view",
      "type": "function"
    }
  ],
  "bytecode": "0x60806040526040518060600160405280602e8152602001620049c0602e9139600690805190602001906200003592919062000fbf565b503480156200004357600080fd5b50604051620049ee380380620049ee8339818101604052810190620000699190620012af565b60016000806101000a81548160ff0219169083151502179055506363b14488600060016101000a81548163ffffffff021916908363ffffffff1602179055506365927808600060056101000a81548163ffffffff021916908363ffffffff1602179055506200011b6040518060400160405280600f81526020017f44656c69766572792053797374656d000000000000000000000000000000000081525082600062000b1960201b620010fa1760201c565b600160008201518160000190805190602001906200013b92919062000fbf565b5060208201518160010160006101000a81548173ffffffffffffffffffffffffffffffffffffffff021916908373ffffffffffffffffffffffffffffffffffffffff16021790555060408201518160010160146101000a81548160ff021916908315150217905550905050620001f46040518060400160405280601381526020017f496e746567726174696f6e2050726f636573730000000000000000000000000081525033600162000b1960201b620010fa1760201c565b600360008201518160000190805190602001906200021492919062000fbf565b5060208201518160010160006101000a81548173ffffffffffffffffffffffffffffffffffffffff021916908373ffffffffffffffffffffffffffffffffffffffff16021790555060408201518160010160146101000a81548160ff0219169083151502179055509050506003600560003373ffffffffffffffffffffffffffffffffffffffff1673ffffffffffffffffffffffffffffffffffffffff1681526020019081526020016000206000820181600001908054620002d69062001310565b620002e392919062001050565b506001820160009054906101000a900473ffffffffffffffffffffffffffffffffffffffff168160010160006101000a81548173ffffffffffffffffffffffffffffffffffffffff021916908373ffffffffffffffffffffffffffffffffffffffff1602179055506001820160149054906101000a900460ff168160010160146101000a81548160ff0219169083151502179055509050506001600560008373ffffffffffffffffffffffffffffffffffffffff1673ffffffffffffffffffffffffffffffffffffffff1681526020019081526020016000206000820181600001908054620003d29062001310565b620003df92919062001050565b506001820160009054906101000a900473ffffffffffffffffffffffffffffffffffffffff168160010160006101000a81548173ffffffffffffffffffffffffffffffffffffffff021916908373ffffffffffffffffffffffffffffffffffffffff1602179055506001820160149054906101000a900460ff168160010160146101000a81548160ff0219169083151502179055509050506007620004926001600562000b5f60201b6200113e1760201c565b9080600181540180825580915050600190039060005260206000200160009091909190915060008201518160000160006101000a81548160ff021916908360ff16021790555060208201518160000160016101000a81548160ff021916908360ff16021790555050506008620005196177886201042862000c5260201b620012271760201c565b9080600181540180825580915050600190039060005260206000200160009091909190915060008201518160000160006101000a81548163ffffffff021916908363ffffffff16021790555060208201518160000160046101000a81548163ffffffff021916908363ffffffff16021790555050506009620005a96005600362000d6760201b620013321760201c565b9080600181540180825580915050600190039060005260206000200160009091909190915060008201518160000160006101000a81548163ffffffff021916908363ffffffff16021790555060208201518160000160046101000a81548160ff021916908360ff16021790555060408201518160000160056101000a81548163ffffffff021916908363ffffffff16021790555060608201518160000160096101000a81548163ffffffff021916908363ffffffff160217905550608082015181600001600d6101000a81548163ffffffff021916908363ffffffff1602179055505050600a6200076f60068054620006a29062001310565b80601f0160208091040260200160405190810160405280929190818152602001828054620006d09062001310565b8015620007215780601f10620006f55761010080835404028352916020019162000721565b820191906000526020600020905b8154815290600101906020018083116200070357829003601f168201915b50505050506040518060400160405280600281526020017f3e3d000000000000000000000000000000000000000000000000000000000000815250600162000dec60201b620013ab1760201c565b90806001815401808255809150506001900390600052602060002090600302016000909190919091506000820151816000019080519060200190620007b692919062000fbf565b506020820151816001019080519060200190620007d592919062000fbf565b50604082015181600201555050600a620008c460068054620007f79062001310565b80601f0160208091040260200160405190810160405280929190818152602001828054620008259062001310565b8015620008765780601f106200084a5761010080835404028352916020019162000876565b820191906000526020600020905b8154815290600101906020018083116200085857829003601f168201915b50505050506040518060400160405280600281526020017f3c3d000000000000000000000000000000000000000000000000000000000000815250600362000dec60201b620013ab1760201c565b908060018154018082558091505060019003906000526020600020906003020160009091909190915060008201518160000190805190602001906200090b92919062000fbf565b5060208201518160010190805190602001906200092a92919062000fbf565b50604082015181600201555050600b62000a1c600680546200094c9062001310565b80601f01602080910402602001604051908101604052809291908181526020018280546200097a9062001310565b8015620009cb5780601f106200099f57610100808354040283529160200191620009cb565b820191906000526020600020905b815481529060010190602001808311620009ad57829003601f168201915b50505050506040518060400160405280600281526020017f3c3d0000000000000000000000000000000000000000000000000000000000008152506103e8600562000e1a60201b620013d71760201c565b9080600181540180825580915050600190039060005260206000209060070201600090919091909150600082015181600001908051906020019062000a6392919062000fbf565b50602082015181600101908051906020019062000a8292919062000fbf565b506040820151816002015560608201518160030160006101000a81548160ff021916908360ff16021790555060808201518160030160016101000a81548163ffffffff021916908363ffffffff16021790555060a0820151816004015560c08201518160050160006101000a81548163ffffffff021916908363ffffffff16021790555060e0820151816006015550505062001592565b62000b23620010e8565b60405180606001604052808581526020018473ffffffffffffffffffffffffffffffffffffffff16815260200183151581525090509392505050565b62000b6962001121565b8282600060ff168260ff161015801562000b8a5750600660ff168260ff1611155b62000bcc576040517f08c379a000000000000000000000000000000000000000000000000000000000815260040162000bc390620013cc565b60405180910390fd5b600060ff168160ff161015801562000beb5750600660ff168160ff1611155b62000c2d576040517f08c379a000000000000000000000000000000000000000000000000000000000815260040162000c249062001464565b60405180910390fd5b60405180604001604052808660ff1681526020018560ff168152509250505092915050565b62000c5c62001141565b8282600063ffffffff168263ffffffff161015801562000c8b57506201517f63ffffffff168263ffffffff1611155b62000ccd576040517f08c379a000000000000000000000000000000000000000000000000000000000815260040162000cc490620013cc565b60405180910390fd5b600063ffffffff168163ffffffff161015801562000cfa57506201517f63ffffffff168163ffffffff1611155b62000d3c576040517f08c379a000000000000000000000000000000000000000000000000000000000815260040162000d339062001464565b60405180910390fd5b60405180604001604052808663ffffffff1681526020018563ffffffff168152509250505092915050565b62000d7162001167565b6000600460ff168360ff161162000d9b5762000d938362000efd60201b60201c565b905062000da0565b600190505b6040518060a001604052808563ffffffff1681526020018460ff1681526020018263ffffffff1681526020018563ffffffff168152602001600063ffffffff1681525091505092915050565b62000df6620011b1565b60405180606001604052808581526020018481526020018381525090509392505050565b62000e24620011d2565b6000600460ff168360ff161162000e4e5762000e468362000efd60201b60201c565b905062000e53565b600190505b600185510362000ea7576040518060400160405280600281526020017f3c3d000000000000000000000000000000000000000000000000000000000000815250945060018462000ea49190620014bf565b93505b6040518061010001604052808781526020018681526020018581526020018460ff1681526020018263ffffffff168152602001858152602001600063ffffffff1681526020016000815250915050949350505050565b6000600460ff168260ff16111562000f4c576040517f08c379a000000000000000000000000000000000000000000000000000000000815260040162000f439062001570565b60405180910390fd5b600060ff168260ff160362000f65576001905062000fba565b600160ff168260ff160362000f7e57603c905062000fba565b600260ff168260ff160362000f9857610e10905062000fba565b600360ff168260ff160362000fb35762015180905062000fba565b62093a8090505b919050565b82805462000fcd9062001310565b90600052602060002090601f01602090048101928262000ff157600085556200103d565b82601f106200100c57805160ff19168380011785556200103d565b828001600101855582156200103d579182015b828111156200103c5782518255916020019190600101906200101f565b5b5090506200104c919062001226565b5090565b8280546200105e9062001310565b90600052602060002090601f016020900481019282620010825760008555620010d5565b82601f10620010955780548555620010d5565b82800160010185558215620010d557600052602060002091601f016020900482015b82811115620010d4578254825591600101919060010190620010b7565b5b509050620010e4919062001226565b5090565b604051806060016040528060608152602001600073ffffffffffffffffffffffffffffffffffffffff1681526020016000151581525090565b6040518060400160405280600060ff168152602001600060ff1681525090565b6040518060400160405280600063ffffffff168152602001600063ffffffff1681525090565b6040518060a00160405280600063ffffffff168152602001600060ff168152602001600063ffffffff168152602001600063ffffffff168152602001600063ffffffff1681525090565b60405180606001604052806060815260200160608152602001600081525090565b604051806101000160405280606081526020016060815260200160008152602001600060ff168152602001600063ffffffff16815260200160008152602001600063ffffffff168152602001600081525090565b5b808211156200124157600081600090555060010162001227565b5090565b600080fd5b600073ffffffffffffffffffffffffffffffffffffffff82169050919050565b600062001277826200124a565b9050919050565b62001289816200126a565b81146200129557600080fd5b50565b600081519050620012a9816200127e565b92915050565b600060208284031215620012c857620012c762001245565b5b6000620012d88482850162001298565b91505092915050565b7f4e487b7100000000000000000000000000000000000000000000000000000000600052602260045260246000fd5b600060028204905060018216806200132957607f821691505b6020821081036200133f576200133e620012e1565b5b50919050565b600082825260208201905092915050565b7f546865205f7374617274446179206e6f7420726570726573656e74732061207660008201527f616c696420646179000000000000000000000000000000000000000000000000602082015250565b6000620013b460288362001345565b9150620013c18262001356565b604082019050919050565b60006020820190508181036000830152620013e781620013a5565b9050919050565b7f546865205f656e64446179206e6f7420726570726573656e747320612076616c60008201527f6964206461790000000000000000000000000000000000000000000000000000602082015250565b60006200144c60268362001345565b91506200145982620013ee565b604082019050919050565b600060208201905081810360008301526200147f816200143d565b9050919050565b6000819050919050565b7f4e487b7100000000000000000000000000000000000000000000000000000000600052601160045260246000fd5b6000620014cc8262001486565b9150620014d98362001486565b925082821015620014ef57620014ee62001490565b5b828203905092915050565b7f546865206d6574686f642067657454696d65496e5365636f6e647320646f657360008201527f6e277420776f726b20666f72204d4f4e544820616e6420594541520000000000602082015250565b600062001558603b8362001345565b91506200156582620014fa565b604082019050919050565b600060208201905081810360008301526200158b8162001549565b9050919050565b61341e80620015a26000396000f3fe608060405234801561001057600080fd5b506004361061007d5760003560e01c8063859319111161005b57806385931911146100ee57806395d3bcdf1461010c578063b8b4f1a01461013c578063fb6f82431461015a5761007d565b80635d76e17a146100825780635e744c6a146100a057806370d8915a146100d0575b600080fd5b61008a61018a565b60405161009791906122da565b60405180910390f35b6100ba60048036038101906100b591906124ad565b6101eb565b6040516100c79190612524565b60405180910390f35b6100d86103dc565b6040516100e5919061254e565b60405180910390f35b6100f6610543565b604051610103919061254e565b60405180910390f35b610126600480360381019061012191906127c5565b6106ab565b6040516101339190612524565b60405180910390f35b610144610cfa565b6040516101519190612524565b60405180910390f35b610174600480360381019061016f9190612878565b610e64565b604051610181919061299b565b60405180910390f35b60006101b360096000815481106101a4576101a36129bd565b5b906000526020600020016114ab565b60096000815481106101c8576101c76129bd565b5b9060005260206000200160000160099054906101000a900463ffffffff16905090565b60003373ffffffffffffffffffffffffffffffffffffffff16600360010160009054906101000a900473ffffffffffffffffffffffffffffffffffffffff1673ffffffffffffffffffffffffffffffffffffffff1614610280576040517f08c379a000000000000000000000000000000000000000000000000000000000815260040161027790612a6f565b60405180910390fd5b600560006001800160009054906101000a900473ffffffffffffffffffffffffffffffffffffffff1673ffffffffffffffffffffffffffffffffffffffff1673ffffffffffffffffffffffffffffffffffffffff168152602001908152602001600020600080820160006102f4919061200d565b6001820160006101000a81549073ffffffffffffffffffffffffffffffffffffffff02191690556001820160146101000a81549060ff0219169055505061033d838360006110fa565b6001600082015181600001908051906020019061035b92919061204d565b5060208201518160010160006101000a81548173ffffffffffffffffffffffffffffffffffffffff021916908373ffffffffffffffffffffffffffffffffffffffff16021790555060408201518160010160146101000a81548160ff0219169083151502179055509050506103d18260016114f0565b506001905092915050565b60008060009054906101000a900460ff1661042c576040517f08c379a000000000000000000000000000000000000000000000000000000000815260040161042390612adb565b60405180910390fd5b3373ffffffffffffffffffffffffffffffffffffffff166001800160009054906101000a900473ffffffffffffffffffffffffffffffffffffffff1673ffffffffffffffffffffffffffffffffffffffff1614806104da57503373ffffffffffffffffffffffffffffffffffffffff16600360010160009054906101000a900473ffffffffffffffffffffffffffffffffffffffff1673ffffffffffffffffffffffffffffffffffffffff16145b610519576040517f08c379a000000000000000000000000000000000000000000000000000000000815260040161051090612b6d565b60405180910390fd5b6001800160009054906101000a900473ffffffffffffffffffffffffffffffffffffffff16905090565b60008060009054906101000a900460ff16610593576040517f08c379a000000000000000000000000000000000000000000000000000000000815260040161058a90612adb565b60405180910390fd5b3373ffffffffffffffffffffffffffffffffffffffff166001800160009054906101000a900473ffffffffffffffffffffffffffffffffffffffff1673ffffffffffffffffffffffffffffffffffffffff16148061064157503373ffffffffffffffffffffffffffffffffffffffff16600360010160009054906101000a900473ffffffffffffffffffffffffffffffffffffffff1673ffffffffffffffffffffffffffffffffffffffff16145b610680576040517f08c379a000000000000000000000000000000000000000000000000000000000815260040161067790612b6d565b60405180910390fd5b600360010160009054906101000a900473ffffffffffffffffffffffffffffffffffffffff16905090565b60008060009054906101000a900460ff166106fb576040517f08c379a00000000000000000000000000000000000000000000000000000000081526004016106f290612adb565b60405180910390fd5b3373ffffffffffffffffffffffffffffffffffffffff16600360010160009054906101000a900473ffffffffffffffffffffffffffffffffffffffff1673ffffffffffffffffffffffffffffffffffffffff161461078e576040517f08c379a000000000000000000000000000000000000000000000000000000000815260040161078590612a6f565b60405180910390fd5b6108048560076000815481106107a7576107a66129bd565b5b906000526020600020016040518060400160405290816000820160009054906101000a900460ff1660ff1660ff1681526020016000820160019054906101000a900460ff1660ff1660ff16815250506115f390919063ffffffff16565b80156108945750610893846008600081548110610824576108236129bd565b5b906000526020600020016040518060400160405290816000820160009054906101000a900463ffffffff1663ffffffff1663ffffffff1681526020016000820160049054906101000a900463ffffffff1663ffffffff1663ffffffff168152505061167f90919063ffffffff16565b5b80156108cd57506108cc8660096000815481106108b4576108b36129bd565b5b9060005260206000200161172990919063ffffffff16565b5b8015610a5e5750610a5d836000815181106108eb576108ea6129bd565b5b6020026020010151600a600081548110610908576109076129bd565b5b906000526020600020906003020160405180606001604052908160008201805461093190612bbc565b80601f016020809104026020016040519081016040528092919081815260200182805461095d90612bbc565b80156109aa5780601f1061097f576101008083540402835291602001916109aa565b820191906000526020600020905b81548152906001019060200180831161098d57829003601f168201915b505050505081526020016001820180546109c390612bbc565b80601f01602080910402602001604051908101604052809291908181526020018280546109ef90612bbc565b8015610a3c5780601f10610a1157610100808354040283529160200191610a3c565b820191906000526020600020905b815481529060010190602001808311610a1f57829003601f168201915b505050505081526020016002820154815250506117a290919063ffffffff16565b5b8015610bef5750610bee83600181518110610a7c57610a7b6129bd565b5b6020026020010151600a600181548110610a9957610a986129bd565b5b9060005260206000209060030201604051806060016040529081600082018054610ac290612bbc565b80601f0160208091040260200160405190810160405280929190818152602001828054610aee90612bbc565b8015610b3b5780601f10610b1057610100808354040283529160200191610b3b565b820191906000526020600020905b815481529060010190602001808311610b1e57829003601f168201915b50505050508152602001600182018054610b5490612bbc565b80601f0160208091040260200160405190810160405280929190818152602001828054610b8090612bbc565b8015610bcd5780601f10610ba257610100808354040283529160200191610bcd565b820191906000526020600020905b815481529060010190602001808311610bb057829003601f168201915b505050505081526020016002820154815250506117a290919063ffffffff16565b5b8015610c495750610c488683600081518110610c0e57610c0d6129bd565b5b6020026020010151600b600081548110610c2b57610c2a6129bd565b5b90600052602060002090600702016119949092919063ffffffff16565b5b15610cb757610c79600b600081548110610c6657610c656129bd565b5b9060005260206000209060070201611a96565b7f95a1f3a1dafdd4c1af344e3d7c69a72cbce8a3f15fe1cf95a7f5bd23df2e71a1604051610ca690612c39565b60405180910390a160019050610cf1565b7f66091b7dc2b097c8f60d5cd6aa99633b097f08d2eb1056f3e15361b22e0ea2ba604051610ce490612cf1565b60405180910390a1600090505b95945050505050565b60008060009054906101000a900460ff16610d4a576040517f08c379a0000000000000000000000000000000000000000000000000000000008152600401610d4190612adb565b60405180910390fd5b3373ffffffffffffffffffffffffffffffffffffffff166001800160009054906101000a900473ffffffffffffffffffffffffffffffffffffffff1673ffffffffffffffffffffffffffffffffffffffff1614610ddc576040517f08c379a0000000000000000000000000000000000000000000000000000000008152600401610dd390612d83565b60405180910390fd5b600015156001800160149054906101000a900460ff16151514610e34576040517f08c379a0000000000000000000000000000000000000000000000000000000008152600401610e2b90612def565b60405180910390fd5b60018060010160146101000a81548160ff021916908315150217905550610e5c3360016114f0565b506001905090565b610e6c6120d3565b60008054906101000a900460ff16610eb9576040517f08c379a0000000000000000000000000000000000000000000000000000000008152600401610eb090612adb565b60405180910390fd5b3373ffffffffffffffffffffffffffffffffffffffff166001800160009054906101000a900473ffffffffffffffffffffffffffffffffffffffff1673ffffffffffffffffffffffffffffffffffffffff161480610f6757503373ffffffffffffffffffffffffffffffffffffffff16600360010160009054906101000a900473ffffffffffffffffffffffffffffffffffffffff1673ffffffffffffffffffffffffffffffffffffffff16145b610fa6576040517f08c379a0000000000000000000000000000000000000000000000000000000008152600401610f9d90612b6d565b60405180910390fd5b600560008373ffffffffffffffffffffffffffffffffffffffff1673ffffffffffffffffffffffffffffffffffffffff16815260200190815260200160002060405180606001604052908160008201805461100090612bbc565b80601f016020809104026020016040519081016040528092919081815260200182805461102c90612bbc565b80156110795780601f1061104e57610100808354040283529160200191611079565b820191906000526020600020905b81548152906001019060200180831161105c57829003601f168201915b505050505081526020016001820160009054906101000a900473ffffffffffffffffffffffffffffffffffffffff1673ffffffffffffffffffffffffffffffffffffffff1673ffffffffffffffffffffffffffffffffffffffff1681526020016001820160149054906101000a900460ff1615151515815250509050919050565b6111026120d3565b60405180606001604052808581526020018473ffffffffffffffffffffffffffffffffffffffff16815260200183151581525090509392505050565b61114661210c565b8282600060ff168260ff16101580156111665750600660ff168260ff1611155b6111a5576040517f08c379a000000000000000000000000000000000000000000000000000000000815260040161119c90612e81565b60405180910390fd5b600060ff168160ff16101580156111c35750600660ff168160ff1611155b611202576040517f08c379a00000000000000000000000000000000000000000000000000000000081526004016111f990612f13565b60405180910390fd5b60405180604001604052808660ff1681526020018560ff168152509250505092915050565b61122f61212c565b8282600063ffffffff168263ffffffff161015801561125d57506201517f63ffffffff168263ffffffff1611155b61129c576040517f08c379a000000000000000000000000000000000000000000000000000000000815260040161129390612e81565b60405180910390fd5b600063ffffffff168163ffffffff16101580156112c857506201517f63ffffffff168163ffffffff1611155b611307576040517f08c379a00000000000000000000000000000000000000000000000000000000081526004016112fe90612f13565b60405180910390fd5b60405180604001604052808663ffffffff1681526020018563ffffffff168152509250505092915050565b61133a612152565b6000600460ff168360ff161161135a5761135383611b54565b905061135f565b600190505b6040518060a001604052808563ffffffff1681526020018460ff1681526020018263ffffffff1681526020018563ffffffff168152602001600063ffffffff1681525091505092915050565b6113b361219c565b60405180606001604052808581526020018481526020018381525090509392505050565b6113df6121bd565b6000600460ff168360ff16116113ff576113f883611b54565b9050611404565b600190505b6001855103611455576040518060400160405280600281526020017f3c3d00000000000000000000000000000000000000000000000000000000000081525094506001846114529190612f62565b93505b6040518061010001604052808781526020018681526020018581526020018460ff1681526020018263ffffffff168152602001858152602001600063ffffffff1681526020016000815250915050949350505050565b60018160000160098282829054906101000a900463ffffffff166114cf9190612f96565b92506101000a81548163ffffffff021916908363ffffffff16021790555050565b600081600560008573ffffffffffffffffffffffffffffffffffffffff1673ffffffffffffffffffffffffffffffffffffffff168152602001908152602001600020600082018160000190805461154690612bbc565b611551929190612211565b506001820160009054906101000a900473ffffffffffffffffffffffffffffffffffffffff168160010160006101000a81548173ffffffffffffffffffffffffffffffffffffffff021916908373ffffffffffffffffffffffffffffffffffffffff1602179055506001820160149054906101000a900460ff168160010160146101000a81548160ff0219169083151502179055509050506001905092915050565b6000826020015160ff16836000015160ff16101561164257826000015160ff168260ff161015801561162f5750826020015160ff168260ff1611155b1561163d5760019050611679565b611674565b826000015160ff168260ff161015806116655750826020015160ff168260ff1611155b156116735760019050611679565b5b600090505b92915050565b6000826020015163ffffffff16836000015163ffffffff1610156116e057826000015163ffffffff168263ffffffff16101580156116cd5750826020015163ffffffff168263ffffffff1611155b156116db5760019050611723565b61171e565b826000015163ffffffff168263ffffffff1610158061170f5750826020015163ffffffff168263ffffffff1611155b1561171d5760019050611723565b5b600090505b92915050565b600061175b8360000160049054906101000a900460ff1684600001600d9054906101000a900463ffffffff1684611c0b565b1561176b5761176a8383611cd0565b5b60008360000160099054906101000a900463ffffffff1663ffffffff161115611797576001905061179c565b600090505b92915050565b60008083602001519050602160f81b816000815181106117c5576117c46129bd565b5b602001015160f81c60f81b7effffffffffffffffffffffffffffffffffffffffffffffffffffffffffffff19160361180757836040015183141591505061198e565b603d60f81b816000815181106118205761181f6129bd565b5b602001015160f81c60f81b7effffffffffffffffffffffffffffffffffffffffffffffffffffffffffffff191603611861578360400151831491505061198e565b603c60f81b8160008151811061187a576118796129bd565b5b602001015160f81c60f81b7effffffffffffffffffffffffffffffffffffffffffffffffffffffffffffff1916036118d45760028151036118c557836040015183131591505061198e565b8360400151831291505061198e565b603e60f81b816000815181106118ed576118ec6129bd565b5b602001015160f81c60f81b7effffffffffffffffffffffffffffffffffffffffffffffffffffffffffffff19160361194757600281510361193857836040015183121591505061198e565b8360400151831391505061198e565b6000611988576040517f08c379a000000000000000000000000000000000000000000000000000000000815260040161197f90613016565b60405180910390fd5b60009150505b92915050565b60008082116119d8576040517f08c379a00000000000000000000000000000000000000000000000000000000081526004016119cf906130a8565b60405180910390fd5b611a088460030160009054906101000a900460ff168560050160009054906101000a900463ffffffff1685611c0b565b15611a6d5783600201548460040181905550611a4a8460030160019054906101000a900463ffffffff168560030160009054906101000a900460ff1685611d5d565b8460050160006101000a81548163ffffffff021916908363ffffffff1602179055505b83600401548211611a8a5781846006018190555060019050611a8f565b600090505b9392505050565b6000816006015411611add576040517f08c379a0000000000000000000000000000000000000000000000000000000008152600401611ad490613114565b60405180910390fd5b806004015481600601541115611b28576040517f08c379a0000000000000000000000000000000000000000000000000000000008152600401611b1f906131a6565b60405180910390fd5b8060060154816004016000828254611b409190612f62565b925050819055506000816006018190555050565b6000600460ff168260ff161115611ba0576040517f08c379a0000000000000000000000000000000000000000000000000000000008152600401611b9790613238565b60405180910390fd5b600060ff168260ff1603611bb75760019050611c06565b600160ff168260ff1603611bce57603c9050611c06565b600260ff168260ff1603611be657610e109050611c06565b600360ff168260ff1603611bff57620151809050611c06565b62093a8090505b919050565b600080849050600460ff168160ff1611611c37578363ffffffff168363ffffffff161015915050611cc9565b600560ff168160ff1603611c9f576000611c568463ffffffff16611df0565b50915050600d8563ffffffff16148015611c76575060018163ffffffff16145b15611c8657600192505050611cc9565b8463ffffffff168163ffffffff16101592505050611cc9565b6000611cb08463ffffffff16611df0565b505090508463ffffffff168163ffffffff161015925050505b9392505050565b8160000160009054906101000a900463ffffffff168260000160096101000a81548163ffffffff021916908363ffffffff160217905550611d378260000160059054906101000a900463ffffffff168360000160049054906101000a900460ff1683611d5d565b82600001600d6101000a81548163ffffffff021916908363ffffffff1602179055505050565b6000600460ff168360ff1611611d7f57611d78838386611fa3565b9050611de9565b600560ff168360ff1603611dbd576000611d9e8363ffffffff16611df0565b5063ffffffff16915050600181611db59190613258565b915050611de9565b6000611dce8363ffffffff16611df0565b505063ffffffff169050600181611de59190613258565b9150505b9392505050565b6000806000806201518063ffffffff1685611e0b91906132dd565b9050600062253d8c62010bd983611e22919061330e565b611e2c919061330e565b9050600062023ab1826004611e419190613348565b611e4b9190613386565b9050600460038262023ab1611e609190613348565b611e6a919061330e565b611e749190613386565b82611e7f9190612f96565b9150600062164b09600184611e94919061330e565b610fa0611ea19190613348565b611eab9190613386565b9050601f6004826105b5611ebf9190613348565b611ec99190613386565b84611ed49190612f96565b611ede919061330e565b9250600061098f846050611ef29190613348565b611efc9190613386565b9050600060508261098f611f109190613348565b611f1a9190613386565b85611f259190612f96565b9050600b82611f349190613386565b945084600c611f439190613348565b600283611f50919061330e565b611f5a9190612f96565b91508483603186611f6b9190612f96565b6064611f779190613348565b611f81919061330e565b611f8b919061330e565b92508298508197508096505050505050509193909250565b6000808284611fb291906133b7565b905060008184611fc29190612f96565b9050600460ff168660ff1603611ff5576203f4808186611fe2919061330e565b611fec919061330e565b92505050612006565b8085612001919061330e565b925050505b9392505050565b50805461201990612bbc565b6000825580601f1061202b575061204a565b601f016020900490600052602060002090810190612049919061229e565b5b50565b82805461205990612bbc565b90600052602060002090601f01602090048101928261207b57600085556120c2565b82601f1061209457805160ff19168380011785556120c2565b828001600101855582156120c2579182015b828111156120c15782518255916020019190600101906120a6565b5b5090506120cf919061229e565b5090565b604051806060016040528060608152602001600073ffffffffffffffffffffffffffffffffffffffff1681526020016000151581525090565b6040518060400160405280600060ff168152602001600060ff1681525090565b6040518060400160405280600063ffffffff168152602001600063ffffffff1681525090565b6040518060a00160405280600063ffffffff168152602001600060ff168152602001600063ffffffff168152602001600063ffffffff168152602001600063ffffffff1681525090565b60405180606001604052806060815260200160608152602001600081525090565b604051806101000160405280606081526020016060815260200160008152602001600060ff168152602001600063ffffffff16815260200160008152602001600063ffffffff168152602001600081525090565b82805461221d90612bbc565b90600052602060002090601f01602090048101928261223f576000855561228d565b82601f10612250578054855561228d565b8280016001018555821561228d57600052602060002091601f016020900482015b8281111561228c578254825591600101919060010190612271565b5b50905061229a919061229e565b5090565b5b808211156122b757600081600090555060010161229f565b5090565b600063ffffffff82169050919050565b6122d4816122bb565b82525050565b60006020820190506122ef60008301846122cb565b92915050565b6000604051905090565b600080fd5b600080fd5b600080fd5b600080fd5b6000601f19601f8301169050919050565b7f4e487b7100000000000000000000000000000000000000000000000000000000600052604160045260246000fd5b61235c82612313565b810181811067ffffffffffffffff8211171561237b5761237a612324565b5b80604052505050565b600061238e6122f5565b905061239a8282612353565b919050565b600067ffffffffffffffff8211156123ba576123b9612324565b5b6123c382612313565b9050602081019050919050565b82818337600083830152505050565b60006123f26123ed8461239f565b612384565b90508281526020810184848401111561240e5761240d61230e565b5b6124198482856123d0565b509392505050565b600082601f83011261243657612435612309565b5b81356124468482602086016123df565b91505092915050565b600073ffffffffffffffffffffffffffffffffffffffff82169050919050565b600061247a8261244f565b9050919050565b61248a8161246f565b811461249557600080fd5b50565b6000813590506124a781612481565b92915050565b600080604083850312156124c4576124c36122ff565b5b600083013567ffffffffffffffff8111156124e2576124e1612304565b5b6124ee85828601612421565b92505060206124ff85828601612498565b9150509250929050565b60008115159050919050565b61251e81612509565b82525050565b60006020820190506125396000830184612515565b92915050565b6125488161246f565b82525050565b6000602082019050612563600083018461253f565b92915050565b612572816122bb565b811461257d57600080fd5b50565b60008135905061258f81612569565b92915050565b600060ff82169050919050565b6125ab81612595565b81146125b657600080fd5b50565b6000813590506125c8816125a2565b92915050565b600067ffffffffffffffff8211156125e9576125e8612324565b5b602082029050602081019050919050565b600080fd5b6000819050919050565b612612816125ff565b811461261d57600080fd5b50565b60008135905061262f81612609565b92915050565b6000612648612643846125ce565b612384565b9050808382526020820190506020840283018581111561266b5761266a6125fa565b5b835b8181101561269457806126808882612620565b84526020840193505060208101905061266d565b5050509392505050565b600082601f8301126126b3576126b2612309565b5b81356126c3848260208601612635565b91505092915050565b600067ffffffffffffffff8211156126e7576126e6612324565b5b602082029050602081019050919050565b6000819050919050565b61270b816126f8565b811461271657600080fd5b50565b60008135905061272881612702565b92915050565b600061274161273c846126cc565b612384565b90508083825260208201905060208402830185811115612764576127636125fa565b5b835b8181101561278d57806127798882612719565b845260208401935050602081019050612766565b5050509392505050565b600082601f8301126127ac576127ab612309565b5b81356127bc84826020860161272e565b91505092915050565b600080600080600060a086880312156127e1576127e06122ff565b5b60006127ef88828901612580565b9550506020612800888289016125b9565b945050604061281188828901612580565b935050606086013567ffffffffffffffff81111561283257612831612304565b5b61283e8882890161269e565b925050608086013567ffffffffffffffff81111561285f5761285e612304565b5b61286b88828901612797565b9150509295509295909350565b60006020828403121561288e5761288d6122ff565b5b600061289c84828501612498565b91505092915050565b600081519050919050565b600082825260208201905092915050565b60005b838110156128df5780820151818401526020810190506128c4565b838111156128ee576000848401525b50505050565b60006128ff826128a5565b61290981856128b0565b93506129198185602086016128c1565b61292281612313565b840191505092915050565b6129368161246f565b82525050565b61294581612509565b82525050565b6000606083016000830151848203600086015261296882826128f4565b915050602083015161297d602086018261292d565b506040830151612990604086018261293c565b508091505092915050565b600060208201905081810360008301526129b5818461294b565b905092915050565b7f4e487b7100000000000000000000000000000000000000000000000000000000600052603260045260246000fd5b600082825260208201905092915050565b7f4f6e6c79207468652070726f636573732063616e20657865637574652074686960008201527f73206f7065726174696f6e000000000000000000000000000000000000000000602082015250565b6000612a59602b836129ec565b9150612a64826129fd565b604082019050919050565b60006020820190508181036000830152612a8881612a4c565b9050919050565b7f5468697320636f6e747261637420697320646561637469766174656400000000600082015250565b6000612ac5601c836129ec565b9150612ad082612a8f565b602082019050919050565b60006020820190508181036000830152612af481612ab8565b9050919050565b7f4f6e6c79207468652070726f63657373206f7220746865206170706c6963617460008201527f696f6e2063616e20657865637574652074686973206f7065726174696f6e0000602082015250565b6000612b57603e836129ec565b9150612b6282612afb565b604082019050919050565b60006020820190508181036000830152612b8681612b4a565b9050919050565b7f4e487b7100000000000000000000000000000000000000000000000000000000600052602260045260246000fd5b60006002820490506001821680612bd457607f821691505b602082108103612be757612be6612b8d565b5b50919050565b7f5375636365737366756c20657865637574696f6e210000000000000000000000600082015250565b6000612c236015836129ec565b9150612c2e82612bed565b602082019050919050565b60006020820190508181036000830152612c5281612c16565b9050919050565b7f52657175657374206f7065726174696f6e20706572666f726d6564206f75747360008201527f696465206f6620616c6c6f77656420686f757273206f72206c696d6974206f7060208201527f65726174696f6e20657863656564656400000000000000000000000000000000604082015250565b6000612cdb6050836129ec565b9150612ce682612c59565b606082019050919050565b60006020820190508181036000830152612d0a81612cce565b9050919050565b7f4f6e6c7920746865206170706c69636174696f6e2063616e206578656375746560008201527f2074686973206f7065726174696f6e0000000000000000000000000000000000602082015250565b6000612d6d602f836129ec565b9150612d7882612d11565b604082019050919050565b60006020820190508181036000830152612d9c81612d60565b9050919050565b7f54686520636f6e747261637420697320616c7265616479207369676e65640000600082015250565b6000612dd9601e836129ec565b9150612de482612da3565b602082019050919050565b60006020820190508181036000830152612e0881612dcc565b9050919050565b7f546865205f7374617274446179206e6f7420726570726573656e74732061207660008201527f616c696420646179000000000000000000000000000000000000000000000000602082015250565b6000612e6b6028836129ec565b9150612e7682612e0f565b604082019050919050565b60006020820190508181036000830152612e9a81612e5e565b9050919050565b7f546865205f656e64446179206e6f7420726570726573656e747320612076616c60008201527f6964206461790000000000000000000000000000000000000000000000000000602082015250565b6000612efd6026836129ec565b9150612f0882612ea1565b604082019050919050565b60006020820190508181036000830152612f2c81612ef0565b9050919050565b7f4e487b7100000000000000000000000000000000000000000000000000000000600052601160045260246000fd5b6000612f6d826126f8565b9150612f78836126f8565b925082821015612f8b57612f8a612f33565b5b828203905092915050565b6000612fa1826122bb565b9150612fac836122bb565b925082821015612fbf57612fbe612f33565b5b828203905092915050565b7f436f6d70617269736f6e2073796d626f6c206973206e6f742076616c69640000600082015250565b6000613000601e836129ec565b915061300b82612fca565b602082019050919050565b6000602082019050818103600083015261302f81612ff3565b9050919050565b7f54686520726573756c74206f66207468652078706174682073686f756c64206260008201527f65206d6f7265207468616e203000000000000000000000000000000000000000602082015250565b6000613092602d836129ec565b915061309d82613036565b604082019050919050565b600060208201905081810360008301526130c181613085565b9050919050565b7f546865726520696e206e6f20636f6e74656e7420746f2064656372656173652e600082015250565b60006130fe6020836129ec565b9150613109826130c8565b602082019050919050565b6000602082019050818103600083015261312d816130f1565b9050919050565b7f546865206d65737361676520636f6e74656e74206e756d62657220697320677260008201527f6561746572207468616e207468652072656d61696e696e6720616d6f756e7400602082015250565b6000613190603f836129ec565b915061319b82613134565b604082019050919050565b600060208201905081810360008301526131bf81613183565b9050919050565b7f546865206d6574686f642067657454696d65496e5365636f6e647320646f657360008201527f6e277420776f726b20666f72204d4f4e544820616e6420594541520000000000602082015250565b6000613222603b836129ec565b915061322d826131c6565b604082019050919050565b6000602082019050818103600083015261325181613215565b9050919050565b6000613263826126f8565b915061326e836126f8565b9250827fffffffffffffffffffffffffffffffffffffffffffffffffffffffffffffffff038211156132a3576132a2612f33565b5b828201905092915050565b7f4e487b7100000000000000000000000000000000000000000000000000000000600052601260045260246000fd5b60006132e8826126f8565b91506132f3836126f8565b925082613303576133026132ae565b5b828204905092915050565b6000613319826122bb565b9150613324836122bb565b92508263ffffffff0382111561333d5761333c612f33565b5b828201905092915050565b6000613353826122bb565b915061335e836122bb565b92508163ffffffff048311821515161561337b5761337a612f33565b5b828202905092915050565b6000613391826122bb565b915061339c836122bb565b9250826133ac576133ab6132ae565b5b828204905092915050565b60006133c2826122bb565b91506133cd836122bb565b9250826133dd576133dc6132ae565b5b82820690509291505056fea26469706673582212208b3fd9ac8923fae164330a16518db737de8219e0afe473a632c32aa5cab24c3d64736f6c634300080d0033636f756e74282f2f626f64792f7065726f736f6e616c496e666f726d6174696f6e2f616464726573732f63657029",
  "immutableReferences": {},
  "source": "/* ========================== BEGIN: code for all contracts ====================== */\r\n//SPDX-License-Identifier: MIT\r\npragma solidity >0.8.4 < 0.8.14;\r\n\r\nimport \"../../lib/eai/EAI.sol\";\r\n\r\ncontract DeliveryHiring_R {\r\n    \r\n    bool activated;\r\n \r\n    uint32 beginDate; \r\n\tuint32 dueDate; \t\r\n    using EAI for EAI.Party;\r\n       \r\n    EAI.Party application;\r\n    EAI.Party process;\r\n    mapping(address=>EAI.Party) mapParty;\r\n\r\n    event failEvent(string _logMessage);\r\n    event successEvent(string _logMessage);\r\n\r\n/* --------------------------- END: code for all contracts ----------------------- */  \r\n\r\n\r\n/* =========== BEGIN: codes generated based in specific jabuti contract =================== */\r\n    \t\r\n//  1 STEP:  Import library to conditions/terms  ---------------------------------- \r\n    using EAI for EAI.WeekDaysInterval;\r\n    using EAI for EAI.TimeInterval;\r\n    using EAI for EAI.MaxNumberOfOperationByTime;\r\n    using EAI for EAI.MessageContent_Number;\r\n    using EAI for EAI.MessageContent_Number_PerTime;\r\n// ----------------------------------------------------------------------------------\r\n\r\n\r\n\r\n\r\n// 2 STEP: Identify and create the variables  from \" variable block\" ---------------  \r\n    string numberOfAddresses = \"count(//body/perosonalInformation/address/cep)\";\r\n// ----------------------------------------------------------------------------------\r\n\r\n\r\n// 3 STEP: Identify and create variables referring to the clauses terms ------------\r\n \tEAI.WeekDaysInterval[]  weekDaysInterval_C1; \t\r\n\tEAI.TimeInterval[] timeInterval_C1;\r\n    EAI.MaxNumberOfOperationByTime[] maxNumberOfOperationByTime_C1;\r\n    EAI.MessageContent_Number[] msgContent_number_C1;\r\n    EAI.MessageContent_Number_PerTime[] msgContent_numberPerTime_C1;\r\n// -----------------------------------------------------------------------------------\r\n\r\n    // ------------------ Automated code generation - 4 step ------------------ \r\n\tconstructor(address _applicationWallet){\r\n        activated = true;\r\n        // Catch the date from jabuti contract\r\n\t \tbeginDate = 1672561800;\r\n\t    dueDate = 1704097800;\r\n        // Catch the name of the part for creaty the parties\r\n        application = EAI.createParty(\"Delivery System\", _applicationWallet, false);        \r\n        process = EAI.createParty(\"Integration Process\", msg.sender, true);\r\n        mapParty[msg.sender] = process;\r\n        mapParty[_applicationWallet] = application;\r\n\r\n// 5 STEP: Create the terms of the clauses, (check if some of them use a variable from variable block)\r\n        weekDaysInterval_C1.push(EAI.createWeekDaysInterval(EAI.MONDAY, EAI.FRIDAY));\r\n        timeInterval_C1.push(EAI.createTimeInterval(30600,66600)); //TimeInterval(\"08:30:00\" to \"18:30:00\")\r\n        maxNumberOfOperationByTime_C1.push(EAI.createMaxNumberOfOperationByTime(5, EAI.DAY));\r\n\t\tmsgContent_number_C1.push(EAI.createMessageContent(numberOfAddresses, \">=\", 1));        \r\n        msgContent_number_C1.push(EAI.createMessageContent(numberOfAddresses, \"<=\", 3));        \r\n        msgContent_numberPerTime_C1.push(EAI.createMessageContent(numberOfAddresses, \"<=\", 1000, EAI.MONTH));\r\n\r\n\t}\r\n\t\r\n// 6 STEP: Translate the clauses to functions\r\n   \r\n    function right_requestDelivery(\r\n        uint32 _accessDateTime, \r\n        uint8 _weekDay, \r\n        uint32 _hourOfDay, \r\n         int256[] memory _resultFromXpath,\r\n        uint256[] memory _resultFromXpath_numberPerTime\r\n        ) public onlyProcess() returns(bool){\r\n\r\n        if(weekDaysInterval_C1[0].isIntoWeekDaysInterval(_weekDay) &&\r\n           timeInterval_C1[0].isIntoTimeInterval(_hourOfDay) &&\r\n           maxNumberOfOperationByTime_C1[0].hasAvailableOperations_ByTime(_accessDateTime)&&\r\n           msgContent_number_C1[0].evaluateNumberContent(_resultFromXpath[0]) &&\r\n           msgContent_number_C1[1].evaluateNumberContent(_resultFromXpath[1]) &&\r\n           msgContent_numberPerTime_C1[0].evaluateNumberPerTime(_accessDateTime, _resultFromXpath_numberPerTime[0])\r\n        ){\r\n            msgContent_numberPerTime_C1[0].decreaseTheLastContentOfRestingAmount();\r\n            emit successEvent(\"Successful execution!\");\r\n            return true;\r\n        }else{    \r\n\t   \t    emit failEvent(\"Request operation performed outside of allowed hours or limit operation exceeded\");\r\n\t\t    return false;\r\n        }\r\n    }\r\n         \r\n    function onlyForTest_decreaseOperation() public returns(uint32) {\r\n        maxNumberOfOperationByTime_C1[0].decreaseOneOperation_ByTime();         \r\n        return maxNumberOfOperationByTime_C1[0].rest;    \r\n    }\r\n\r\n/* -------------- END: codes generated based in specific jabuti contract ------------- */\r\n\r\n\r\n/* ========================== BEGIN: code for all contracts ====================== */\r\n\r\n    /* the process sign the contract by default, the function signContract \r\n    is used to get the applicationParty signature*/      \r\n    function signContract() public onlyApplication() returns(bool) {\r\n        require(application.aware == false, \"The contract is already signed\");        \r\n        application.aware = true;  \r\n        updateMapParty(msg.sender, application);\r\n\t\treturn true;\r\n    }\r\n\r\n    function updateMapParty(address _walletAddress, EAI.Party storage _party)internal returns(bool){       \r\n        mapParty[_walletAddress] = _party;\r\n\t\treturn true;\r\n    }\r\n    \r\n    /* It only possible to change the name and the address of the party. \r\n    After change the  party, the new party need to sign the contract */\r\n    function changeApplicationParty(string memory _name, address _walletAddress) public returns(bool) {       \r\n        require(process.walletAddress == msg.sender, \"Only the process can execute this operation\");\r\n        delete mapParty[application.walletAddress];\r\n        application = EAI.createParty(_name, _walletAddress, false);          \r\n        updateMapParty(_walletAddress, application);\r\n        return true;       \r\n    }\r\n    \r\n    function getProcessAddress() public view onlyInvolvedParties returns(address){\r\n        return process.walletAddress;\r\n    }\r\n    \r\n    function getApplicationAddress() public view onlyInvolvedParties returns(address){\r\n        return application.walletAddress;\r\n    }\r\n\r\n    function getParty(address _walletAddress) public view onlyInvolvedParties returns(EAI.Party memory){\r\n        return mapParty[_walletAddress];\r\n    }\r\n    \r\n    /* ==================================== MODIFIERS ==================================== */\r\n        modifier onlyApplication(){        \r\n            require(activated, \"This contract is deactivated\");            \r\n            require(application.walletAddress == msg.sender, \"Only the application can execute this operation\");\r\n            _;        \r\n    }\r\n\r\n    modifier onlyProcess(){\r\n        require(activated, \"This contract is deactivated\");\r\n        require(process.walletAddress == msg.sender, \"Only the process can execute this operation\");\r\n        _;\r\n    }\r\n\r\n    modifier onlyInvolvedParties(){\r\n        require(activated, \"This contract is deactivated\");\r\n        require(\r\n            (application.walletAddress == msg.sender || process.walletAddress == msg.sender ) ,\r\n            \"Only the process or the application can execute this operation\");\r\n        _;\r\n    }\r\n\r\n}\r\n/* --------------------------- END: code for all contracts ----------------------- */  ",
  "sourcePath": "C:\\git-repository\\dsl-smart-contract-eai\\02-models\\002-ProofOfConcept\\contracts\\study-case-contracts\\001-delivery-hiring\\DeliveryHiring_R.sol",
  "compiler": {
    "name": "solc",
    "version": "0.8.13+commit.abaa5c0e.Emscripten.clang"
  },
  "schemaVersion": "3.4.13",
  "updatedAt": "2023-04-19T18:48:33.574Z",
  "devdoc": {
    "kind": "dev",
    "methods": {},
    "version": 1
  },
  "userdoc": {
    "kind": "user",
    "methods": {},
    "version": 1
  }
}