{
  "contractName": "DeliveryHiring_O",
  "abi": [
    {
      "inputs": [
        {
          "internalType": "address",
          "name": "_applicationWallet",
          "type": "address"
        }
      ],
      "stateMutability": "nonpayable",
      "type": "constructor"
    },
    {
      "anonymous": false,
      "inputs": [
        {
          "indexed": false,
          "internalType": "string",
          "name": "_logMessage",
          "type": "string"
        }
      ],
      "name": "failEvent",
      "type": "event"
    },
    {
      "anonymous": false,
      "inputs": [
        {
          "indexed": false,
          "internalType": "string",
          "name": "_logMessage",
          "type": "string"
        }
      ],
      "name": "successEvent",
      "type": "event"
    },
    {
      "inputs": [
        {
          "internalType": "uint32",
          "name": "_accessDateTime",
          "type": "uint32"
        }
      ],
      "name": "onlyForTest",
      "outputs": [],
      "stateMutability": "nonpayable",
      "type": "function"
    },
    {
      "inputs": [
        {
          "internalType": "uint32",
          "name": "_accessDateTime",
          "type": "uint32"
        },
        {
          "internalType": "int256[]",
          "name": "_xPathContent",
          "type": "int256[]"
        }
      ],
      "name": "responderOrder",
      "outputs": [
        {
          "internalType": "bool",
          "name": "",
          "type": "bool"
        }
      ],
      "stateMutability": "nonpayable",
      "type": "function"
    },
    {
      "inputs": [],
      "name": "signContract",
      "outputs": [
        {
          "internalType": "bool",
          "name": "",
          "type": "bool"
        }
      ],
      "stateMutability": "nonpayable",
      "type": "function"
    },
    {
      "inputs": [
        {
          "internalType": "string",
          "name": "_name",
          "type": "string"
        },
        {
          "internalType": "address",
          "name": "_walletAddress",
          "type": "address"
        }
      ],
      "name": "changeApplicationParty",
      "outputs": [
        {
          "internalType": "bool",
          "name": "",
          "type": "bool"
        }
      ],
      "stateMutability": "nonpayable",
      "type": "function"
    },
    {
      "inputs": [],
      "name": "getProcessAddress",
      "outputs": [
        {
          "internalType": "address",
          "name": "",
          "type": "address"
        }
      ],
      "stateMutability": "view",
      "type": "function"
    },
    {
      "inputs": [],
      "name": "getApplicationAddress",
      "outputs": [
        {
          "internalType": "address",
          "name": "",
          "type": "address"
        }
      ],
      "stateMutability": "view",
      "type": "function"
    },
    {
      "inputs": [
        {
          "internalType": "address",
          "name": "_walletAddress",
          "type": "address"
        }
      ],
      "name": "getParty",
      "outputs": [
        {
          "components": [
            {
              "internalType": "string",
              "name": "name",
              "type": "string"
            },
            {
              "internalType": "address",
              "name": "walletAddress",
              "type": "address"
            },
            {
              "internalType": "bool",
              "name": "aware",
              "type": "bool"
            }
          ],
          "internalType": "struct EAI.Party",
          "name": "",
          "type": "tuple"
        }
      ],
      "stateMutability": "view",
      "type": "function"
    }
  ],
  "bytecode": "0x60806040523480156200001157600080fd5b5060405162002cc838038062002cc8833981810160405281019062000037919062000890565b6363b14488600560006101000a81548163ffffffff021916908363ffffffff1602179055506365927808600560046101000a81548163ffffffff021916908363ffffffff160217905550620000cf6040518060400160405280601381526020017f496e746567726174696f6e2050726f6365737300000000000000000000000000815250336001620005b760201b62000ea61760201c565b600080820151816000019080519060200190620000ee9291906200065e565b5060208201518160010160006101000a81548173ffffffffffffffffffffffffffffffffffffffff021916908373ffffffffffffffffffffffffffffffffffffffff16021790555060408201518160010160146101000a81548160ff021916908315150217905550905050620001a76040518060400160405280600f81526020017f44656c69766572792053797374656d0000000000000000000000000000000000815250826000620005b760201b62000ea61760201c565b60026000820151816000019080519060200190620001c79291906200065e565b5060208201518160010160006101000a81548173ffffffffffffffffffffffffffffffffffffffff021916908373ffffffffffffffffffffffffffffffffffffffff16021790555060408201518160010160146101000a81548160ff0219169083151502179055509050506000600460003373ffffffffffffffffffffffffffffffffffffffff1673ffffffffffffffffffffffffffffffffffffffff16815260200190815260200160002060008201816000019080546200028990620008f1565b62000296929190620006ef565b506001820160009054906101000a900473ffffffffffffffffffffffffffffffffffffffff168160010160006101000a81548173ffffffffffffffffffffffffffffffffffffffff021916908373ffffffffffffffffffffffffffffffffffffffff1602179055506001820160149054906101000a900460ff168160010160146101000a81548160ff0219169083151502179055509050506002600460008373ffffffffffffffffffffffffffffffffffffffff1673ffffffffffffffffffffffffffffffffffffffff16815260200190815260200160002060008201816000019080546200038590620008f1565b62000392929190620006ef565b506001820160009054906101000a900473ffffffffffffffffffffffffffffffffffffffff168160010160006101000a81548173ffffffffffffffffffffffffffffffffffffffff021916908373ffffffffffffffffffffffffffffffffffffffff1602179055506001820160149054906101000a900460ff168160010160146101000a81548160ff021916908315150217905550905050600662000443601e620005fd60201b62000eea1760201c565b9080600181540180825580915050600190039060005260206000200160009091909190915060008201518160000160006101000a81548163ffffffff021916908363ffffffff16021790555060208201518160000160046101000a81548163ffffffff021916908363ffffffff160217905550505060076200053d6040518060400160405280601281526020017f2f2f6275646765742f69642f74657874282900000000000000000000000000008152506040518060400160405280600281526020017f3e3d00000000000000000000000000000000000000000000000000000000000081525060006200063060201b62000f1b1760201c565b90806001815401808255809150506001900390600052602060002090600302016000909190919091506000820151816000019080519060200190620005849291906200065e565b506020820151816001019080519060200190620005a39291906200065e565b506040820151816002015550505062000926565b620005c162000787565b60405180606001604052808581526020018473ffffffffffffffffffffffffffffffffffffffff16815260200183151581525090509392505050565b62000607620007c0565b6040518060400160405280600063ffffffff1681526020018363ffffffff168152509050919050565b6200063a620007e6565b60405180606001604052808581526020018481526020018381525090509392505050565b8280546200066c90620008f1565b90600052602060002090601f016020900481019282620006905760008555620006dc565b82601f10620006ab57805160ff1916838001178555620006dc565b82800160010185558215620006dc579182015b82811115620006db578251825591602001919060010190620006be565b5b509050620006eb919062000807565b5090565b828054620006fd90620008f1565b90600052602060002090601f01602090048101928262000721576000855562000774565b82601f1062000734578054855562000774565b828001600101855582156200077457600052602060002091601f016020900482015b828111156200077357825482559160010191906001019062000756565b5b50905062000783919062000807565b5090565b604051806060016040528060608152602001600073ffffffffffffffffffffffffffffffffffffffff1681526020016000151581525090565b6040518060400160405280600063ffffffff168152602001600063ffffffff1681525090565b60405180606001604052806060815260200160608152602001600081525090565b5b808211156200082257600081600090555060010162000808565b5090565b600080fd5b600073ffffffffffffffffffffffffffffffffffffffff82169050919050565b600062000858826200082b565b9050919050565b6200086a816200084b565b81146200087657600080fd5b50565b6000815190506200088a816200085f565b92915050565b600060208284031215620008a957620008a862000826565b5b6000620008b98482850162000879565b91505092915050565b7f4e487b7100000000000000000000000000000000000000000000000000000000600052602260045260246000fd5b600060028204905060018216806200090a57607f821691505b60208210810362000920576200091f620008c2565b5b50919050565b61239280620009366000396000f3fe608060405234801561001057600080fd5b506004361061007d5760003560e01c806370d8915a1161005b57806370d8915a146100fe578063859319111461011c578063b8b4f1a01461013a578063fb6f8243146101585761007d565b80631e900392146100825780633bbd6e541461009e5780635e744c6a146100ce575b600080fd5b61009c600480360381019061009791906116e4565b610188565b005b6100b860048036038101906100b391906118a0565b61024f565b6040516100c59190611917565b60405180910390f35b6100e860048036038101906100e39190611a45565b610715565b6040516100f59190611917565b60405180910390f35b610106610907565b6040516101139190611ab0565b60405180910390f35b610124610a22565b6040516101319190611ab0565b60405180910390f35b610142610b3d565b60405161014f9190611917565b60405180910390f35b610172600480360381019061016d9190611acb565b610c5c565b60405161017f9190611bee565b60405180910390f35b3373ffffffffffffffffffffffffffffffffffffffff16600060010160009054906101000a900473ffffffffffffffffffffffffffffffffffffffff1673ffffffffffffffffffffffffffffffffffffffff161461021b576040517f08c379a000000000000000000000000000000000000000000000000000000000815260040161021290611c93565b60405180910390fd5b61024c81600660008154811061023457610233611cb3565b5b90600052602060002001610f4790919063ffffffff16565b50565b60003373ffffffffffffffffffffffffffffffffffffffff16600260010160009054906101000a900473ffffffffffffffffffffffffffffffffffffffff1673ffffffffffffffffffffffffffffffffffffffff16146102e4576040517f08c379a00000000000000000000000000000000000000000000000000000000081526004016102db90611d54565b60405180910390fd5b610439600460003373ffffffffffffffffffffffffffffffffffffffff1673ffffffffffffffffffffffffffffffffffffffff16815260200190815260200160002060405180606001604052908160008201805461034190611da3565b80601f016020809104026020016040519081016040528092919081815260200182805461036d90611da3565b80156103ba5780601f1061038f576101008083540402835291602001916103ba565b820191906000526020600020905b81548152906001019060200180831161039d57829003601f168201915b505050505081526020016001820160009054906101000a900473ffffffffffffffffffffffffffffffffffffffff1673ffffffffffffffffffffffffffffffffffffffff1673ffffffffffffffffffffffffffffffffffffffff1681526020016001820160149054906101000a900460ff161515151581525050610fb2565b610478576040517f08c379a000000000000000000000000000000000000000000000000000000000815260040161046f90611e6c565b60405180910390fd5b61050083600660008154811061049157610490611cb3565b5b906000526020600020016040518060400160405290816000820160009054906101000a900463ffffffff1663ffffffff1663ffffffff1681526020016000820160049054906101000a900463ffffffff1663ffffffff1663ffffffff1681525050610fc090919063ffffffff16565b15801561069257506106918260008151811061051f5761051e611cb3565b5b6020026020010151600760008154811061053c5761053b611cb3565b5b906000526020600020906003020160405180606001604052908160008201805461056590611da3565b80601f016020809104026020016040519081016040528092919081815260200182805461059190611da3565b80156105de5780601f106105b3576101008083540402835291602001916105de565b820191906000526020600020905b8154815290600101906020018083116105c157829003601f168201915b505050505081526020016001820180546105f790611da3565b80601f016020809104026020016040519081016040528092919081815260200182805461062390611da3565b80156106705780601f1061064557610100808354040283529160200191610670565b820191906000526020600020905b81548152906001019060200180831161065357829003601f168201915b5050505050815260200160028201548152505061104f90919063ffffffff16565b5b156106d5577f95a1f3a1dafdd4c1af344e3d7c69a72cbce8a3f15fe1cf95a7f5bd23df2e71a16040516106c490611ed8565b60405180910390a16001905061070f565b7f66091b7dc2b097c8f60d5cd6aa99633b097f08d2eb1056f3e15361b22e0ea2ba60405161070290611f6a565b60405180910390a1600090505b92915050565b60003373ffffffffffffffffffffffffffffffffffffffff16600060010160009054906101000a900473ffffffffffffffffffffffffffffffffffffffff1673ffffffffffffffffffffffffffffffffffffffff16146107aa576040517f08c379a00000000000000000000000000000000000000000000000000000000081526004016107a190611c93565b60405180910390fd5b60046000600260010160009054906101000a900473ffffffffffffffffffffffffffffffffffffffff1673ffffffffffffffffffffffffffffffffffffffff1673ffffffffffffffffffffffffffffffffffffffff1681526020019081526020016000206000808201600061081f91906114a4565b6001820160006101000a81549073ffffffffffffffffffffffffffffffffffffffff02191690556001820160146101000a81549060ff0219169055505061086883836000610ea6565b600260008201518160000190805190602001906108869291906114e4565b5060208201518160010160006101000a81548173ffffffffffffffffffffffffffffffffffffffff021916908373ffffffffffffffffffffffffffffffffffffffff16021790555060408201518160010160146101000a81548160ff0219169083151502179055509050506108fc826002611241565b506001905092915050565b60003373ffffffffffffffffffffffffffffffffffffffff16600260010160009054906101000a900473ffffffffffffffffffffffffffffffffffffffff1673ffffffffffffffffffffffffffffffffffffffff1614806109b857503373ffffffffffffffffffffffffffffffffffffffff16600060010160009054906101000a900473ffffffffffffffffffffffffffffffffffffffff1673ffffffffffffffffffffffffffffffffffffffff16145b6109f7576040517f08c379a00000000000000000000000000000000000000000000000000000000081526004016109ee90611ffc565b60405180910390fd5b600260010160009054906101000a900473ffffffffffffffffffffffffffffffffffffffff16905090565b60003373ffffffffffffffffffffffffffffffffffffffff16600260010160009054906101000a900473ffffffffffffffffffffffffffffffffffffffff1673ffffffffffffffffffffffffffffffffffffffff161480610ad357503373ffffffffffffffffffffffffffffffffffffffff16600060010160009054906101000a900473ffffffffffffffffffffffffffffffffffffffff1673ffffffffffffffffffffffffffffffffffffffff16145b610b12576040517f08c379a0000000000000000000000000000000000000000000000000000000008152600401610b0990611ffc565b60405180910390fd5b600060010160009054906101000a900473ffffffffffffffffffffffffffffffffffffffff16905090565b60003373ffffffffffffffffffffffffffffffffffffffff16600260010160009054906101000a900473ffffffffffffffffffffffffffffffffffffffff1673ffffffffffffffffffffffffffffffffffffffff1614610bd2576040517f08c379a0000000000000000000000000000000000000000000000000000000008152600401610bc990611d54565b60405180910390fd5b60001515600260010160149054906101000a900460ff16151514610c2b576040517f08c379a0000000000000000000000000000000000000000000000000000000008152600401610c2290612068565b60405180910390fd5b6001600260010160146101000a81548160ff021916908315150217905550610c54336002611241565b506001905090565b610c6461156a565b3373ffffffffffffffffffffffffffffffffffffffff16600260010160009054906101000a900473ffffffffffffffffffffffffffffffffffffffff1673ffffffffffffffffffffffffffffffffffffffff161480610d1357503373ffffffffffffffffffffffffffffffffffffffff16600060010160009054906101000a900473ffffffffffffffffffffffffffffffffffffffff1673ffffffffffffffffffffffffffffffffffffffff16145b610d52576040517f08c379a0000000000000000000000000000000000000000000000000000000008152600401610d4990611ffc565b60405180910390fd5b600460008373ffffffffffffffffffffffffffffffffffffffff1673ffffffffffffffffffffffffffffffffffffffff168152602001908152602001600020604051806060016040529081600082018054610dac90611da3565b80601f0160208091040260200160405190810160405280929190818152602001828054610dd890611da3565b8015610e255780601f10610dfa57610100808354040283529160200191610e25565b820191906000526020600020905b815481529060010190602001808311610e0857829003601f168201915b505050505081526020016001820160009054906101000a900473ffffffffffffffffffffffffffffffffffffffff1673ffffffffffffffffffffffffffffffffffffffff1673ffffffffffffffffffffffffffffffffffffffff1681526020016001820160149054906101000a900460ff1615151515815250509050919050565b610eae61156a565b60405180606001604052808581526020018473ffffffffffffffffffffffffffffffffffffffff16815260200183151581525090509392505050565b610ef26115a3565b6040518060400160405280600063ffffffff1681526020018363ffffffff168152509050919050565b610f236115c9565b60405180606001604052808581526020018481526020018381525090509392505050565b806000610f598263ffffffff16611344565b9050600a81511115610f6a57600080fd5b8360000160049054906101000a900463ffffffff1683610f8a91906120b7565b8460000160006101000a81548163ffffffff021916908363ffffffff16021790555050505050565b600081604001519050919050565b6000816000610fd48263ffffffff16611344565b9050600a81511115610fe557600080fd5b6000856000015163ffffffff1611611032576040517f08c379a000000000000000000000000000000000000000000000000000000000815260040161102990612163565b60405180910390fd5b846000015163ffffffff168463ffffffff16119250505092915050565b60008083602001519050602160f81b8160008151811061107257611071611cb3565b5b602001015160f81c60f81b7effffffffffffffffffffffffffffffffffffffffffffffffffffffffffffff1916036110b457836040015183141591505061123b565b603d60f81b816000815181106110cd576110cc611cb3565b5b602001015160f81c60f81b7effffffffffffffffffffffffffffffffffffffffffffffffffffffffffffff19160361110e578360400151831491505061123b565b603c60f81b8160008151811061112757611126611cb3565b5b602001015160f81c60f81b7effffffffffffffffffffffffffffffffffffffffffffffffffffffffffffff19160361118157600281510361117257836040015183131591505061123b565b8360400151831291505061123b565b603e60f81b8160008151811061119a57611199611cb3565b5b602001015160f81c60f81b7effffffffffffffffffffffffffffffffffffffffffffffffffffffffffffff1916036111f45760028151036111e557836040015183121591505061123b565b8360400151831391505061123b565b6000611235576040517f08c379a000000000000000000000000000000000000000000000000000000000815260040161122c906121cf565b60405180910390fd5b60009150505b92915050565b600081600460008573ffffffffffffffffffffffffffffffffffffffff1673ffffffffffffffffffffffffffffffffffffffff168152602001908152602001600020600082018160000190805461129790611da3565b6112a29291906115ea565b506001820160009054906101000a900473ffffffffffffffffffffffffffffffffffffffff168160010160006101000a81548173ffffffffffffffffffffffffffffffffffffffff021916908373ffffffffffffffffffffffffffffffffffffffff1602179055506001820160149054906101000a900460ff168160010160146101000a81548160ff0219169083151502179055509050506001905092915050565b60606000820361138b576040518060400160405280600181526020017f3000000000000000000000000000000000000000000000000000000000000000815250905061149f565b600082905060005b600082146113bd5780806113a6906121f9565b915050600a826113b69190612270565b9150611393565b60008167ffffffffffffffff8111156113d9576113d8611727565b5b6040519080825280601f01601f19166020018201604052801561140b5781602001600182028036833780820191505090505b5090505b600085146114985760018261142491906122a1565b9150600a8561143391906122d5565b603061143f9190612306565b60f81b81838151811061145557611454611cb3565b5b60200101907effffffffffffffffffffffffffffffffffffffffffffffffffffffffffffff1916908160001a905350600a856114919190612270565b945061140f565b8093505050505b919050565b5080546114b090611da3565b6000825580601f106114c257506114e1565b601f0160209004906000526020600020908101906114e09190611677565b5b50565b8280546114f090611da3565b90600052602060002090601f0160209004810192826115125760008555611559565b82601f1061152b57805160ff1916838001178555611559565b82800160010185558215611559579182015b8281111561155857825182559160200191906001019061153d565b5b5090506115669190611677565b5090565b604051806060016040528060608152602001600073ffffffffffffffffffffffffffffffffffffffff1681526020016000151581525090565b6040518060400160405280600063ffffffff168152602001600063ffffffff1681525090565b60405180606001604052806060815260200160608152602001600081525090565b8280546115f690611da3565b90600052602060002090601f0160209004810192826116185760008555611666565b82601f106116295780548555611666565b8280016001018555821561166657600052602060002091601f016020900482015b8281111561166557825482559160010191906001019061164a565b5b5090506116739190611677565b5090565b5b80821115611690576000816000905550600101611678565b5090565b6000604051905090565b600080fd5b600080fd5b600063ffffffff82169050919050565b6116c1816116a8565b81146116cc57600080fd5b50565b6000813590506116de816116b8565b92915050565b6000602082840312156116fa576116f961169e565b5b6000611708848285016116cf565b91505092915050565b600080fd5b6000601f19601f8301169050919050565b7f4e487b7100000000000000000000000000000000000000000000000000000000600052604160045260246000fd5b61175f82611716565b810181811067ffffffffffffffff8211171561177e5761177d611727565b5b80604052505050565b6000611791611694565b905061179d8282611756565b919050565b600067ffffffffffffffff8211156117bd576117bc611727565b5b602082029050602081019050919050565b600080fd5b6000819050919050565b6117e6816117d3565b81146117f157600080fd5b50565b600081359050611803816117dd565b92915050565b600061181c611817846117a2565b611787565b9050808382526020820190506020840283018581111561183f5761183e6117ce565b5b835b81811015611868578061185488826117f4565b845260208401935050602081019050611841565b5050509392505050565b600082601f83011261188757611886611711565b5b8135611897848260208601611809565b91505092915050565b600080604083850312156118b7576118b661169e565b5b60006118c5858286016116cf565b925050602083013567ffffffffffffffff8111156118e6576118e56116a3565b5b6118f285828601611872565b9150509250929050565b60008115159050919050565b611911816118fc565b82525050565b600060208201905061192c6000830184611908565b92915050565b600080fd5b600067ffffffffffffffff82111561195257611951611727565b5b61195b82611716565b9050602081019050919050565b82818337600083830152505050565b600061198a61198584611937565b611787565b9050828152602081018484840111156119a6576119a5611932565b5b6119b1848285611968565b509392505050565b600082601f8301126119ce576119cd611711565b5b81356119de848260208601611977565b91505092915050565b600073ffffffffffffffffffffffffffffffffffffffff82169050919050565b6000611a12826119e7565b9050919050565b611a2281611a07565b8114611a2d57600080fd5b50565b600081359050611a3f81611a19565b92915050565b60008060408385031215611a5c57611a5b61169e565b5b600083013567ffffffffffffffff811115611a7a57611a796116a3565b5b611a86858286016119b9565b9250506020611a9785828601611a30565b9150509250929050565b611aaa81611a07565b82525050565b6000602082019050611ac56000830184611aa1565b92915050565b600060208284031215611ae157611ae061169e565b5b6000611aef84828501611a30565b91505092915050565b600081519050919050565b600082825260208201905092915050565b60005b83811015611b32578082015181840152602081019050611b17565b83811115611b41576000848401525b50505050565b6000611b5282611af8565b611b5c8185611b03565b9350611b6c818560208601611b14565b611b7581611716565b840191505092915050565b611b8981611a07565b82525050565b611b98816118fc565b82525050565b60006060830160008301518482036000860152611bbb8282611b47565b9150506020830151611bd06020860182611b80565b506040830151611be36040860182611b8f565b508091505092915050565b60006020820190508181036000830152611c088184611b9e565b905092915050565b600082825260208201905092915050565b7f4f6e6c79207468652070726f636573732063616e20657865637574652074686960008201527f73206f7065726174696f6e000000000000000000000000000000000000000000602082015250565b6000611c7d602b83611c10565b9150611c8882611c21565b604082019050919050565b60006020820190508181036000830152611cac81611c70565b9050919050565b7f4e487b7100000000000000000000000000000000000000000000000000000000600052603260045260246000fd5b7f4f6e6c7920746865206170706c69636174696f6e2063616e206578656375746560008201527f2074686973206f7065726174696f6e0000000000000000000000000000000000602082015250565b6000611d3e602f83611c10565b9150611d4982611ce2565b604082019050919050565b60006020820190508181036000830152611d6d81611d31565b9050919050565b7f4e487b7100000000000000000000000000000000000000000000000000000000600052602260045260246000fd5b60006002820490506001821680611dbb57607f821691505b602082108103611dce57611dcd611d74565b5b50919050565b7f546865204170706c69636174696f6e2070617274792073686f756c642073696760008201527f6e2074686520636f6e7472616374206265666f726520696e746572616374207760208201527f6974682069742e00000000000000000000000000000000000000000000000000604082015250565b6000611e56604783611c10565b9150611e6182611dd4565b606082019050919050565b60006020820190508181036000830152611e8581611e49565b9050919050565b7f5375636365737366756c20657865637574696f6e210000000000000000000000600082015250565b6000611ec2601583611c10565b9150611ecd82611e8c565b602082019050919050565b60006020820190508181036000830152611ef181611eb5565b9050919050565b7f52657175657374206d616465206f757473696465206f6620616c6c6f7765642060008201527f686f757273206f722064697374616e6365206c696d6974206578636565646564602082015250565b6000611f54604083611c10565b9150611f5f82611ef8565b604082019050919050565b60006020820190508181036000830152611f8381611f47565b9050919050565b7f4f6e6c79207468652070726f63657373206f7220746865206170706c6963617460008201527f696f6e2063616e20657865637574652074686973206f7065726174696f6e0000602082015250565b6000611fe6603e83611c10565b9150611ff182611f8a565b604082019050919050565b6000602082019050818103600083015261201581611fd9565b9050919050565b7f54686520636f6e747261637420697320616c7265616479207369676e65640000600082015250565b6000612052601e83611c10565b915061205d8261201c565b602082019050919050565b6000602082019050818103600083015261208181612045565b9050919050565b7f4e487b7100000000000000000000000000000000000000000000000000000000600052601160045260246000fd5b60006120c2826116a8565b91506120cd836116a8565b92508263ffffffff038211156120e6576120e5612088565b5b828201905092915050565b7f5468657265206973206e6f20656e6454696d652073657420696e2074696d656f60008201527f7574000000000000000000000000000000000000000000000000000000000000602082015250565b600061214d602283611c10565b9150612158826120f1565b604082019050919050565b6000602082019050818103600083015261217c81612140565b9050919050565b7f436f6d70617269736f6e2073796d626f6c206973206e6f742076616c69640000600082015250565b60006121b9601e83611c10565b91506121c482612183565b602082019050919050565b600060208201905081810360008301526121e8816121ac565b9050919050565b6000819050919050565b6000612204826121ef565b91507fffffffffffffffffffffffffffffffffffffffffffffffffffffffffffffffff820361223657612235612088565b5b600182019050919050565b7f4e487b7100000000000000000000000000000000000000000000000000000000600052601260045260246000fd5b600061227b826121ef565b9150612286836121ef565b92508261229657612295612241565b5b828204905092915050565b60006122ac826121ef565b91506122b7836121ef565b9250828210156122ca576122c9612088565b5b828203905092915050565b60006122e0826121ef565b91506122eb836121ef565b9250826122fb576122fa612241565b5b828206905092915050565b6000612311826121ef565b915061231c836121ef565b9250827fffffffffffffffffffffffffffffffffffffffffffffffffffffffffffffffff0382111561235157612350612088565b5b82820190509291505056fea2646970667358221220a759cf21095d3bc2407dff144bfe9383ed8a23154faee32ef5216f58c924ec8a64736f6c634300080d0033",
  "immutableReferences": {},
  "source": "//SPDX-License-Identifier: MIT\r\npragma solidity >0.8.4 < 0.8.14;\r\n\r\nimport \"../../lib/eai/EAI.sol\";\r\n\r\ncontract DeliveryHiring_O{\r\n\t\r\n    /* ==================================  BEGIN  ======================================== */\r\n    /* ============================ CODES FOR ALL CONTRACTS ============================== */\r\n \r\n    using EAI for EAI.Party;\r\n    using EAI for EAI.Timeout;\r\n    using EAI for EAI.MessageContent_Number;\r\n\r\n    EAI.Party process;\r\n    EAI.Party application;\r\n    mapping(address=>EAI.Party) mapParty;\r\n\r\n    uint32 beginDate; \r\n\tuint32 dueDate; \t\r\n   /* --------------------------------   END   ------------------------------------------ */\r\n\r\n\r\n    /* ==================================  BEGIN  ======================================= */\r\n    /* =================== CODES GENERATED BASED IN JABUTI CONTRACT ===================== */\r\n \r\n \tEAI.Timeout[]  timeout; \t\r\n\tEAI.MessageContent_Number[]  messageContent;\r\n\t\r\n\tevent failEvent(string _logMessage);\r\n    event successEvent(string _logMessage);\r\n\t\r\n\tconstructor(address _applicationWallet){\r\n\t \tbeginDate = 1672561800;\r\n\t    dueDate = 1704097800;\r\n         \r\n        process = EAI.createParty(\"Integration Process\", msg.sender, true);\r\n\t    application = EAI.createParty(\"Delivery System\", _applicationWallet, false);        \r\n        mapParty[msg.sender] = process;\r\n        mapParty[_applicationWallet] = application;\r\n\r\n\t\ttimeout.push(EAI.createTimeout(30));\t   \t\t\t\t\r\n\t\tmessageContent.push(EAI.createMessageContent(\"//budget/id/text()\", \">=\", 0));        \r\n\t}\r\n\t\r\n\r\n    function onlyForTest(uint32 _accessDateTime) public onlyProcess() {\r\n        timeout[0].setEndTimeInTimeout(_accessDateTime);\r\n    }\r\n\r\n\tfunction responderOrder(uint32 _accessDateTime, int[] memory _xPathContent) public onlyApplication() returns(bool){\r\n\r\n\t   \t// Setting the time limit for responding to a request\r\n\t   \trequire(mapParty[msg.sender].isAware(), \"The Application party should sign the contract before interact with it.\");\t   \t \r\n\t    \r\n\t\tif(!timeout[0].isTimeoutEnded(_accessDateTime)  &&\t\t\t\r\n\t\t\tmessageContent[0].evaluateNumberContent(_xPathContent[0])\r\n            )\r\n\t\t\t{\t\t\t    \r\n                emit successEvent(\"Successful execution!\");\r\n\t        \treturn true;\r\n\t    \t}\r\n\t    \r\n\t   \temit failEvent(\"Request made outside of allowed hours or distance limit exceeded\");\r\n\t\treturn false;\r\n\t}\r\n  \r\n    /* ================== CODES GENERATED BASED IN JABUTI CONTRACT ======================= */\r\n    /* --------------------------------   END   ------------------------------------------ */\r\n\r\n\r\n\r\n    /* =================================================================================== */\r\n    /* ============================ CODES FOR ALL CONTRACTS ============================== */\r\n    \r\n    /* the process sign the contract by default, the function signContract \r\n    is used to get the applicationParty signature*/      \r\n    function signContract() public onlyApplication() returns(bool){\r\n        require(application.aware == false, \"The contract is already signed\");        \r\n        application.aware = true;  \r\n        updateMapParty(msg.sender, application);\r\n\t\treturn true;\r\n    }\r\n\r\n    function updateMapParty(address _walletAddress, EAI.Party storage _party)internal returns(bool){       \r\n        mapParty[_walletAddress] = _party;\r\n\t\treturn true;\r\n    }\r\n    \r\n    /* It only possible to change the name and the address of the party. \r\n    After change the  party, the new party need to sign the contract */\r\n    function changeApplicationParty(string memory _name, address _walletAddress) public returns(bool) {       \r\n        require(process.walletAddress == msg.sender, \"Only the process can execute this operation\");\r\n        delete mapParty[application.walletAddress];\r\n        application = EAI.createParty(_name, _walletAddress, false);          \r\n        updateMapParty(_walletAddress, application);\r\n        return true;       \r\n    }\r\n    \r\n    function getProcessAddress() public view onlyInvolvedParties returns(address){\r\n        return process.walletAddress;\r\n    }\r\n    \r\n    function getApplicationAddress() public view onlyInvolvedParties returns(address){\r\n        return application.walletAddress;\r\n    }\r\n\r\n    function getParty(address _walletAddress) public view onlyInvolvedParties returns(EAI.Party memory){\r\n        return mapParty[_walletAddress];\r\n    }\r\n\r\n    /* =================================================================================== */\r\n    /* ==================================== MODIFIERS ==================================== */\r\n    /* ----------------------------------------------------------------------------------- */\r\n    \r\n    modifier onlyApplication(){\r\n        require(application.walletAddress == msg.sender, \"Only the application can execute this operation\");\r\n        _;\r\n    }\r\n\r\n    modifier onlyProcess(){\r\n        require(process.walletAddress == msg.sender, \"Only the process can execute this operation\");\r\n        _;\r\n    }\r\n\r\n    modifier onlyInvolvedParties(){\r\n        require(\r\n            (application.walletAddress == msg.sender || process.walletAddress == msg.sender ) ,\r\n            \"Only the process or the application can execute this operation\");\r\n        _;\r\n    }\r\n\r\n    /* ============================ CODES FOR ALL CONTRACTS ============================== */\r\n    /* ----------------------------------   END   ---------------------------------------- */\r\n}",
  "sourcePath": "C:\\git-repository\\dsl-smart-contract-eai\\02-models\\ProofOfConcept\\contracts\\study-case-contracts\\001-delivery-hiring\\DeliveryHiring_O.sol",
  "compiler": {
    "name": "solc",
    "version": "0.8.13+commit.abaa5c0e.Emscripten.clang"
  },
  "schemaVersion": "3.4.11",
  "updatedAt": "2023-02-10T18:01:27.147Z",
  "devdoc": {
    "kind": "dev",
    "methods": {},
    "version": 1
  },
  "userdoc": {
    "kind": "user",
    "methods": {},
    "version": 1
  }
}