{
  "contractName": "DeliveryHiring_RO",
  "abi": [
    {
      "inputs": [
        {
          "internalType": "address",
          "name": "_applicationWallet",
          "type": "address"
        }
      ],
      "stateMutability": "nonpayable",
      "type": "constructor"
    },
    {
      "anonymous": false,
      "inputs": [
        {
          "indexed": false,
          "internalType": "string",
          "name": "_logMessage",
          "type": "string"
        }
      ],
      "name": "failEvent",
      "type": "event"
    },
    {
      "anonymous": false,
      "inputs": [
        {
          "indexed": false,
          "internalType": "string",
          "name": "_logMessage",
          "type": "string"
        }
      ],
      "name": "successEvent",
      "type": "event"
    },
    {
      "inputs": [
        {
          "internalType": "uint32",
          "name": "_accessDateTime",
          "type": "uint32"
        },
        {
          "internalType": "uint8",
          "name": "_weekDay",
          "type": "uint8"
        },
        {
          "internalType": "uint32",
          "name": "_hourOfDay",
          "type": "uint32"
        },
        {
          "internalType": "int256[]",
          "name": "_resultFromXpath_nc",
          "type": "int256[]"
        },
        {
          "internalType": "uint256[]",
          "name": "_resultFromXpath_npt",
          "type": "uint256[]"
        }
      ],
      "name": "right_requestDelivery",
      "outputs": [
        {
          "internalType": "bool",
          "name": "",
          "type": "bool"
        }
      ],
      "stateMutability": "nonpayable",
      "type": "function"
    },
    {
      "inputs": [
        {
          "internalType": "uint32",
          "name": "_accessDateTime",
          "type": "uint32"
        },
        {
          "internalType": "int256[]",
          "name": "_resultFromXpath_nc",
          "type": "int256[]"
        }
      ],
      "name": "responderOrder",
      "outputs": [
        {
          "internalType": "bool",
          "name": "",
          "type": "bool"
        }
      ],
      "stateMutability": "nonpayable",
      "type": "function"
    },
    {
      "inputs": [],
      "name": "signContract",
      "outputs": [
        {
          "internalType": "bool",
          "name": "",
          "type": "bool"
        }
      ],
      "stateMutability": "nonpayable",
      "type": "function"
    },
    {
      "inputs": [
        {
          "internalType": "string",
          "name": "_name",
          "type": "string"
        },
        {
          "internalType": "address",
          "name": "_walletAddress",
          "type": "address"
        }
      ],
      "name": "changeApplicationParty",
      "outputs": [
        {
          "internalType": "bool",
          "name": "",
          "type": "bool"
        }
      ],
      "stateMutability": "nonpayable",
      "type": "function"
    },
    {
      "inputs": [],
      "name": "getProcessAddress",
      "outputs": [
        {
          "internalType": "address",
          "name": "",
          "type": "address"
        }
      ],
      "stateMutability": "view",
      "type": "function"
    },
    {
      "inputs": [],
      "name": "getApplicationAddress",
      "outputs": [
        {
          "internalType": "address",
          "name": "",
          "type": "address"
        }
      ],
      "stateMutability": "view",
      "type": "function"
    },
    {
      "inputs": [
        {
          "internalType": "address",
          "name": "_walletAddress",
          "type": "address"
        }
      ],
      "name": "getParty",
      "outputs": [
        {
          "components": [
            {
              "internalType": "string",
              "name": "name",
              "type": "string"
            },
            {
              "internalType": "address",
              "name": "walletAddress",
              "type": "address"
            },
            {
              "internalType": "bool",
              "name": "aware",
              "type": "bool"
            }
          ],
          "internalType": "struct EAI.Party",
          "name": "",
          "type": "tuple"
        }
      ],
      "stateMutability": "view",
      "type": "function"
    }
  ],
  "bytecode": "0x60806040526040518060600160405280602e815260200162005202602e913960069080519060200190620000359291906200114b565b503480156200004357600080fd5b506040516200523038038062005230833981810160405281019062000069919062001459565b6363b14488600560006101000a81548163ffffffff021916908363ffffffff1602179055506365927808600560046101000a81548163ffffffff021916908363ffffffff160217905550620001016040518060400160405280601381526020017f496e746567726174696f6e2050726f636573730000000000000000000000000081525033600162000c7a60201b620013901760201c565b600080820151816000019080519060200190620001209291906200114b565b5060208201518160010160006101000a81548173ffffffffffffffffffffffffffffffffffffffff021916908373ffffffffffffffffffffffffffffffffffffffff16021790555060408201518160010160146101000a81548160ff021916908315150217905550905050620001d96040518060400160405280600f81526020017f44656c69766572792053797374656d000000000000000000000000000000000081525082600062000c7a60201b620013901760201c565b60026000820151816000019080519060200190620001f99291906200114b565b5060208201518160010160006101000a81548173ffffffffffffffffffffffffffffffffffffffff021916908373ffffffffffffffffffffffffffffffffffffffff16021790555060408201518160010160146101000a81548160ff0219169083151502179055509050506000600460003373ffffffffffffffffffffffffffffffffffffffff1673ffffffffffffffffffffffffffffffffffffffff1681526020019081526020016000206000820181600001908054620002bb90620014ba565b620002c8929190620011dc565b506001820160009054906101000a900473ffffffffffffffffffffffffffffffffffffffff168160010160006101000a81548173ffffffffffffffffffffffffffffffffffffffff021916908373ffffffffffffffffffffffffffffffffffffffff1602179055506001820160149054906101000a900460ff168160010160146101000a81548160ff0219169083151502179055509050506002600460008373ffffffffffffffffffffffffffffffffffffffff1673ffffffffffffffffffffffffffffffffffffffff1681526020019081526020016000206000820181600001908054620003b790620014ba565b620003c4929190620011dc565b506001820160009054906101000a900473ffffffffffffffffffffffffffffffffffffffff168160010160006101000a81548173ffffffffffffffffffffffffffffffffffffffff021916908373ffffffffffffffffffffffffffffffffffffffff1602179055506001820160149054906101000a900460ff168160010160146101000a81548160ff0219169083151502179055509050506007620004776001600562000cc060201b620013d41760201c565b9080600181540180825580915050600190039060005260206000200160009091909190915060008201518160000160006101000a81548160ff021916908360ff16021790555060208201518160000160016101000a81548160ff021916908360ff16021790555050506008620004fe6177886201042862000db360201b620014bd1760201c565b9080600181540180825580915050600190039060005260206000200160009091909190915060008201518160000160006101000a81548163ffffffff021916908363ffffffff16021790555060208201518160000160046101000a81548163ffffffff021916908363ffffffff160217905550505060096200058e6005600362000ec860201b620015c81760201c565b9080600181540180825580915050600190039060005260206000200160009091909190915060008201518160000160006101000a81548163ffffffff021916908363ffffffff16021790555060208201518160000160046101000a81548160ff021916908360ff16021790555060408201518160000160056101000a81548163ffffffff021916908363ffffffff16021790555060608201518160000160096101000a81548163ffffffff021916908363ffffffff160217905550608082015181600001600d6101000a81548163ffffffff021916908363ffffffff1602179055505050600a62000754600680546200068790620014ba565b80601f0160208091040260200160405190810160405280929190818152602001828054620006b590620014ba565b8015620007065780601f10620006da5761010080835404028352916020019162000706565b820191906000526020600020905b815481529060010190602001808311620006e857829003601f168201915b50505050506040518060400160405280600281526020017f3e3d000000000000000000000000000000000000000000000000000000000000815250600162000f4d60201b620016411760201c565b908060018154018082558091505060019003906000526020600020906003020160009091909190915060008201518160000190805190602001906200079b9291906200114b565b506020820151816001019080519060200190620007ba9291906200114b565b50604082015181600201555050600a620008a960068054620007dc90620014ba565b80601f01602080910402602001604051908101604052809291908181526020018280546200080a90620014ba565b80156200085b5780601f106200082f576101008083540402835291602001916200085b565b820191906000526020600020905b8154815290600101906020018083116200083d57829003601f168201915b50505050506040518060400160405280600281526020017f3c3d000000000000000000000000000000000000000000000000000000000000815250600362000f4d60201b620016411760201c565b90806001815401808255809150506001900390600052602060002090600302016000909190919091506000820151816000019080519060200190620008f09291906200114b565b5060208201518160010190805190602001906200090f9291906200114b565b50604082015181600201555050600b62000a01600680546200093190620014ba565b80601f01602080910402602001604051908101604052809291908181526020018280546200095f90620014ba565b8015620009b05780601f106200098457610100808354040283529160200191620009b0565b820191906000526020600020905b8154815290600101906020018083116200099257829003601f168201915b50505050506040518060400160405280600281526020017f3c3d0000000000000000000000000000000000000000000000000000000000008152506103e8600562000f7b60201b6200166d1760201c565b9080600181540180825580915050600190039060005260206000209060060201600090919091909150600082015181600001908051906020019062000a489291906200114b565b50602082015181600101908051906020019062000a679291906200114b565b506040820151816002015560608201518160030160006101000a81548160ff021916908360ff16021790555060808201518160030160016101000a81548163ffffffff021916908363ffffffff16021790555060a0820151816004015560c08201518160050160006101000a81548163ffffffff021916908363ffffffff1602179055505050600c62000b06601e6200105660201b620017391760201c565b9080600181540180825580915050600190039060005260206000200160009091909190915060008201518160000160006101000a81548163ffffffff021916908363ffffffff16021790555060208201518160000160046101000a81548163ffffffff021916908363ffffffff1602179055505050600d62000c006040518060400160405280601281526020017f2f2f6275646765742f69642f74657874282900000000000000000000000000008152506040518060400160405280600281526020017f3e3d000000000000000000000000000000000000000000000000000000000000815250600062000f4d60201b620016411760201c565b9080600181540180825580915050600190039060005260206000209060030201600090919091909150600082015181600001908051906020019062000c479291906200114b565b50602082015181600101908051906020019062000c669291906200114b565b50604082015181600201555050506200173c565b62000c8462001274565b60405180606001604052808581526020018473ffffffffffffffffffffffffffffffffffffffff16815260200183151581525090509392505050565b62000cca620012ad565b8282600060ff168260ff161015801562000ceb5750600660ff168260ff1611155b62000d2d576040517f08c379a000000000000000000000000000000000000000000000000000000000815260040162000d249062001576565b60405180910390fd5b600060ff168160ff161015801562000d4c5750600660ff168160ff1611155b62000d8e576040517f08c379a000000000000000000000000000000000000000000000000000000000815260040162000d85906200160e565b60405180910390fd5b60405180604001604052808660ff1681526020018560ff168152509250505092915050565b62000dbd620012cd565b8282600063ffffffff168263ffffffff161015801562000dec57506201517f63ffffffff168263ffffffff1611155b62000e2e576040517f08c379a000000000000000000000000000000000000000000000000000000000815260040162000e259062001576565b60405180910390fd5b600063ffffffff168163ffffffff161015801562000e5b57506201517f63ffffffff168163ffffffff1611155b62000e9d576040517f08c379a000000000000000000000000000000000000000000000000000000000815260040162000e94906200160e565b60405180910390fd5b60405180604001604052808663ffffffff1681526020018563ffffffff168152509250505092915050565b62000ed2620012f3565b6000600460ff168360ff161162000efc5762000ef4836200108960201b60201c565b905062000f01565b600190505b6040518060a001604052808563ffffffff1681526020018460ff1681526020018263ffffffff1681526020018563ffffffff168152602001600063ffffffff1681525091505092915050565b62000f576200133d565b60405180606001604052808581526020018481526020018381525090509392505050565b62000f856200135e565b6000600460ff168360ff161162000faf5762000fa7836200108960201b60201c565b905062000fb4565b600190505b600185510362001008576040518060400160405280600281526020017f3c3d000000000000000000000000000000000000000000000000000000000000815250945060018462001005919062001669565b93505b6040518060e001604052808781526020018681526020018581526020018460ff1681526020018263ffffffff168152602001858152602001600063ffffffff16815250915050949350505050565b62001060620013aa565b6040518060400160405280600063ffffffff1681526020018363ffffffff168152509050919050565b6000600460ff168260ff161115620010d8576040517f08c379a0000000000000000000000000000000000000000000000000000000008152600401620010cf906200171a565b60405180910390fd5b600060ff168260ff1603620010f1576001905062001146565b600160ff168260ff16036200110a57603c905062001146565b600260ff168260ff16036200112457610e10905062001146565b600360ff168260ff16036200113f5762015180905062001146565b62093a8090505b919050565b8280546200115990620014ba565b90600052602060002090601f0160209004810192826200117d5760008555620011c9565b82601f106200119857805160ff1916838001178555620011c9565b82800160010185558215620011c9579182015b82811115620011c8578251825591602001919060010190620011ab565b5b509050620011d89190620013d0565b5090565b828054620011ea90620014ba565b90600052602060002090601f0160209004810192826200120e576000855562001261565b82601f1062001221578054855562001261565b828001600101855582156200126157600052602060002091601f016020900482015b828111156200126057825482559160010191906001019062001243565b5b509050620012709190620013d0565b5090565b604051806060016040528060608152602001600073ffffffffffffffffffffffffffffffffffffffff1681526020016000151581525090565b6040518060400160405280600060ff168152602001600060ff1681525090565b6040518060400160405280600063ffffffff168152602001600063ffffffff1681525090565b6040518060a00160405280600063ffffffff168152602001600060ff168152602001600063ffffffff168152602001600063ffffffff168152602001600063ffffffff1681525090565b60405180606001604052806060815260200160608152602001600081525090565b6040518060e00160405280606081526020016060815260200160008152602001600060ff168152602001600063ffffffff16815260200160008152602001600063ffffffff1681525090565b6040518060400160405280600063ffffffff168152602001600063ffffffff1681525090565b5b80821115620013eb576000816000905550600101620013d1565b5090565b600080fd5b600073ffffffffffffffffffffffffffffffffffffffff82169050919050565b60006200142182620013f4565b9050919050565b620014338162001414565b81146200143f57600080fd5b50565b600081519050620014538162001428565b92915050565b600060208284031215620014725762001471620013ef565b5b6000620014828482850162001442565b91505092915050565b7f4e487b7100000000000000000000000000000000000000000000000000000000600052602260045260246000fd5b60006002820490506001821680620014d357607f821691505b602082108103620014e957620014e86200148b565b5b50919050565b600082825260208201905092915050565b7f546865205f7374617274446179206e6f7420726570726573656e74732061207660008201527f616c696420646179000000000000000000000000000000000000000000000000602082015250565b60006200155e602883620014ef565b91506200156b8262001500565b604082019050919050565b6000602082019050818103600083015262001591816200154f565b9050919050565b7f546865205f656e64446179206e6f7420726570726573656e747320612076616c60008201527f6964206461790000000000000000000000000000000000000000000000000000602082015250565b6000620015f6602683620014ef565b9150620016038262001598565b604082019050919050565b600060208201905081810360008301526200162981620015e7565b9050919050565b6000819050919050565b7f4e487b7100000000000000000000000000000000000000000000000000000000600052601160045260246000fd5b6000620016768262001630565b9150620016838362001630565b9250828210156200169957620016986200163a565b5b828203905092915050565b7f546865206d6574686f642067657454696d65496e5365636f6e647320646f657360008201527f6e277420776f726b20666f72204d4f4e544820616e6420594541520000000000602082015250565b600062001702603b83620014ef565b91506200170f82620016a4565b604082019050919050565b600060208201905081810360008301526200173581620016f3565b9050919050565b613ab6806200174c6000396000f3fe608060405234801561001057600080fd5b506004361061007d5760003560e01c8063859319111161005b578063859319111461010057806395d3bcdf1461011e578063b8b4f1a01461014e578063fb6f82431461016c5761007d565b80633bbd6e54146100825780635e744c6a146100b257806370d8915a146100e2575b600080fd5b61009c600480360381019061009791906127fc565b61019c565b6040516100a99190612873565b60405180910390f35b6100cc60048036038101906100c791906129a1565b610662565b6040516100d99190612873565b60405180910390f35b6100ea610854565b6040516100f79190612a0c565b60405180910390f35b61010861096f565b6040516101159190612a0c565b60405180910390f35b61013860048036038101906101339190612b59565b610a8a565b6040516101459190612873565b60405180910390f35b610156611027565b6040516101639190612873565b60405180910390f35b61018660048036038101906101819190612c0c565b611146565b6040516101939190612d2f565b60405180910390f35b60003373ffffffffffffffffffffffffffffffffffffffff16600260010160009054906101000a900473ffffffffffffffffffffffffffffffffffffffff1673ffffffffffffffffffffffffffffffffffffffff1614610231576040517f08c379a000000000000000000000000000000000000000000000000000000000815260040161022890612dd4565b60405180910390fd5b610386600460003373ffffffffffffffffffffffffffffffffffffffff1673ffffffffffffffffffffffffffffffffffffffff16815260200190815260200160002060405180606001604052908160008201805461028e90612e23565b80601f01602080910402602001604051908101604052809291908181526020018280546102ba90612e23565b80156103075780601f106102dc57610100808354040283529160200191610307565b820191906000526020600020905b8154815290600101906020018083116102ea57829003601f168201915b505050505081526020016001820160009054906101000a900473ffffffffffffffffffffffffffffffffffffffff1673ffffffffffffffffffffffffffffffffffffffff1673ffffffffffffffffffffffffffffffffffffffff1681526020016001820160149054906101000a900460ff16151515158152505061176a565b6103c5576040517f08c379a00000000000000000000000000000000000000000000000000000000081526004016103bc90612eec565b60405180910390fd5b61044d83600c6000815481106103de576103dd612f0c565b5b906000526020600020016040518060400160405290816000820160009054906101000a900463ffffffff1663ffffffff1663ffffffff1681526020016000820160049054906101000a900463ffffffff1663ffffffff1663ffffffff168152505061177890919063ffffffff16565b1580156105df57506105de8260008151811061046c5761046b612f0c565b5b6020026020010151600d60008154811061048957610488612f0c565b5b90600052602060002090600302016040518060600160405290816000820180546104b290612e23565b80601f01602080910402602001604051908101604052809291908181526020018280546104de90612e23565b801561052b5780601f106105005761010080835404028352916020019161052b565b820191906000526020600020905b81548152906001019060200180831161050e57829003601f168201915b5050505050815260200160018201805461054490612e23565b80601f016020809104026020016040519081016040528092919081815260200182805461057090612e23565b80156105bd5780601f10610592576101008083540402835291602001916105bd565b820191906000526020600020905b8154815290600101906020018083116105a057829003601f168201915b5050505050815260200160028201548152505061180790919063ffffffff16565b5b15610622577f95a1f3a1dafdd4c1af344e3d7c69a72cbce8a3f15fe1cf95a7f5bd23df2e71a160405161061190612f87565b60405180910390a16001905061065c565b7f66091b7dc2b097c8f60d5cd6aa99633b097f08d2eb1056f3e15361b22e0ea2ba60405161064f9061303f565b60405180910390a1600090505b92915050565b60003373ffffffffffffffffffffffffffffffffffffffff16600060010160009054906101000a900473ffffffffffffffffffffffffffffffffffffffff1673ffffffffffffffffffffffffffffffffffffffff16146106f7576040517f08c379a00000000000000000000000000000000000000000000000000000000081526004016106ee906130d1565b60405180910390fd5b60046000600260010160009054906101000a900473ffffffffffffffffffffffffffffffffffffffff1673ffffffffffffffffffffffffffffffffffffffff1673ffffffffffffffffffffffffffffffffffffffff1681526020019081526020016000206000808201600061076c9190612351565b6001820160006101000a81549073ffffffffffffffffffffffffffffffffffffffff02191690556001820160146101000a81549060ff021916905550506107b583836000611390565b600260008201518160000190805190602001906107d3929190612391565b5060208201518160010160006101000a81548173ffffffffffffffffffffffffffffffffffffffff021916908373ffffffffffffffffffffffffffffffffffffffff16021790555060408201518160010160146101000a81548160ff0219169083151502179055509050506108498260026119f9565b506001905092915050565b60003373ffffffffffffffffffffffffffffffffffffffff16600260010160009054906101000a900473ffffffffffffffffffffffffffffffffffffffff1673ffffffffffffffffffffffffffffffffffffffff16148061090557503373ffffffffffffffffffffffffffffffffffffffff16600060010160009054906101000a900473ffffffffffffffffffffffffffffffffffffffff1673ffffffffffffffffffffffffffffffffffffffff16145b610944576040517f08c379a000000000000000000000000000000000000000000000000000000000815260040161093b90613163565b60405180910390fd5b600260010160009054906101000a900473ffffffffffffffffffffffffffffffffffffffff16905090565b60003373ffffffffffffffffffffffffffffffffffffffff16600260010160009054906101000a900473ffffffffffffffffffffffffffffffffffffffff1673ffffffffffffffffffffffffffffffffffffffff161480610a2057503373ffffffffffffffffffffffffffffffffffffffff16600060010160009054906101000a900473ffffffffffffffffffffffffffffffffffffffff1673ffffffffffffffffffffffffffffffffffffffff16145b610a5f576040517f08c379a0000000000000000000000000000000000000000000000000000000008152600401610a5690613163565b60405180910390fd5b600060010160009054906101000a900473ffffffffffffffffffffffffffffffffffffffff16905090565b60003373ffffffffffffffffffffffffffffffffffffffff16600060010160009054906101000a900473ffffffffffffffffffffffffffffffffffffffff1673ffffffffffffffffffffffffffffffffffffffff1614610b1f576040517f08c379a0000000000000000000000000000000000000000000000000000000008152600401610b16906130d1565b60405180910390fd5b610b95856007600081548110610b3857610b37612f0c565b5b906000526020600020016040518060400160405290816000820160009054906101000a900460ff1660ff1660ff1681526020016000820160019054906101000a900460ff1660ff1660ff1681525050611afc90919063ffffffff16565b8015610c255750610c24846008600081548110610bb557610bb4612f0c565b5b906000526020600020016040518060400160405290816000820160009054906101000a900463ffffffff1663ffffffff1663ffffffff1681526020016000820160049054906101000a900463ffffffff1663ffffffff1663ffffffff1681525050611b8890919063ffffffff16565b5b8015610db65750610db583600081518110610c4357610c42612f0c565b5b6020026020010151600a600081548110610c6057610c5f612f0c565b5b9060005260206000209060030201604051806060016040529081600082018054610c8990612e23565b80601f0160208091040260200160405190810160405280929190818152602001828054610cb590612e23565b8015610d025780601f10610cd757610100808354040283529160200191610d02565b820191906000526020600020905b815481529060010190602001808311610ce557829003601f168201915b50505050508152602001600182018054610d1b90612e23565b80601f0160208091040260200160405190810160405280929190818152602001828054610d4790612e23565b8015610d945780601f10610d6957610100808354040283529160200191610d94565b820191906000526020600020905b815481529060010190602001808311610d7757829003601f168201915b5050505050815260200160028201548152505061180790919063ffffffff16565b5b8015610f475750610f4683600181518110610dd457610dd3612f0c565b5b6020026020010151600a600181548110610df157610df0612f0c565b5b9060005260206000209060030201604051806060016040529081600082018054610e1a90612e23565b80601f0160208091040260200160405190810160405280929190818152602001828054610e4690612e23565b8015610e935780601f10610e6857610100808354040283529160200191610e93565b820191906000526020600020905b815481529060010190602001808311610e7657829003601f168201915b50505050508152602001600182018054610eac90612e23565b80601f0160208091040260200160405190810160405280929190818152602001828054610ed890612e23565b8015610f255780601f10610efa57610100808354040283529160200191610f25565b820191906000526020600020905b815481529060010190602001808311610f0857829003601f168201915b5050505050815260200160028201548152505061180790919063ffffffff16565b5b8015610fa15750610fa08683600281518110610f6657610f65612f0c565b5b6020026020010151600b600081548110610f8357610f82612f0c565b5b9060005260206000209060060201611c329092919063ffffffff16565b5b15610fe4577f95a1f3a1dafdd4c1af344e3d7c69a72cbce8a3f15fe1cf95a7f5bd23df2e71a1604051610fd390612f87565b60405180910390a16001905061101e565b7f66091b7dc2b097c8f60d5cd6aa99633b097f08d2eb1056f3e15361b22e0ea2ba6040516110119061321b565b60405180910390a1600090505b95945050505050565b60003373ffffffffffffffffffffffffffffffffffffffff16600260010160009054906101000a900473ffffffffffffffffffffffffffffffffffffffff1673ffffffffffffffffffffffffffffffffffffffff16146110bc576040517f08c379a00000000000000000000000000000000000000000000000000000000081526004016110b390612dd4565b60405180910390fd5b60001515600260010160149054906101000a900460ff16151514611115576040517f08c379a000000000000000000000000000000000000000000000000000000000815260040161110c90613287565b60405180910390fd5b6001600260010160146101000a81548160ff02191690831515021790555061113e3360026119f9565b506001905090565b61114e612417565b3373ffffffffffffffffffffffffffffffffffffffff16600260010160009054906101000a900473ffffffffffffffffffffffffffffffffffffffff1673ffffffffffffffffffffffffffffffffffffffff1614806111fd57503373ffffffffffffffffffffffffffffffffffffffff16600060010160009054906101000a900473ffffffffffffffffffffffffffffffffffffffff1673ffffffffffffffffffffffffffffffffffffffff16145b61123c576040517f08c379a000000000000000000000000000000000000000000000000000000000815260040161123390613163565b60405180910390fd5b600460008373ffffffffffffffffffffffffffffffffffffffff1673ffffffffffffffffffffffffffffffffffffffff16815260200190815260200160002060405180606001604052908160008201805461129690612e23565b80601f01602080910402602001604051908101604052809291908181526020018280546112c290612e23565b801561130f5780601f106112e45761010080835404028352916020019161130f565b820191906000526020600020905b8154815290600101906020018083116112f257829003601f168201915b505050505081526020016001820160009054906101000a900473ffffffffffffffffffffffffffffffffffffffff1673ffffffffffffffffffffffffffffffffffffffff1673ffffffffffffffffffffffffffffffffffffffff1681526020016001820160149054906101000a900460ff1615151515815250509050919050565b611398612417565b60405180606001604052808581526020018473ffffffffffffffffffffffffffffffffffffffff16815260200183151581525090509392505050565b6113dc612450565b8282600060ff168260ff16101580156113fc5750600660ff168260ff1611155b61143b576040517f08c379a000000000000000000000000000000000000000000000000000000000815260040161143290613319565b60405180910390fd5b600060ff168160ff16101580156114595750600660ff168160ff1611155b611498576040517f08c379a000000000000000000000000000000000000000000000000000000000815260040161148f906133ab565b60405180910390fd5b60405180604001604052808660ff1681526020018560ff168152509250505092915050565b6114c5612470565b8282600063ffffffff168263ffffffff16101580156114f357506201517f63ffffffff168263ffffffff1611155b611532576040517f08c379a000000000000000000000000000000000000000000000000000000000815260040161152990613319565b60405180910390fd5b600063ffffffff168163ffffffff161015801561155e57506201517f63ffffffff168163ffffffff1611155b61159d576040517f08c379a0000000000000000000000000000000000000000000000000000000008152600401611594906133ab565b60405180910390fd5b60405180604001604052808663ffffffff1681526020018563ffffffff168152509250505092915050565b6115d0612496565b6000600460ff168360ff16116115f0576115e983611dc5565b90506115f5565b600190505b6040518060a001604052808563ffffffff1681526020018460ff1681526020018263ffffffff1681526020018563ffffffff168152602001600063ffffffff1681525091505092915050565b6116496124e0565b60405180606001604052808581526020018481526020018381525090509392505050565b611675612501565b6000600460ff168360ff16116116955761168e83611dc5565b905061169a565b600190505b60018551036116eb576040518060400160405280600281526020017f3c3d00000000000000000000000000000000000000000000000000000000000081525094506001846116e891906133fa565b93505b6040518060e001604052808781526020018681526020018581526020018460ff1681526020018263ffffffff168152602001858152602001600063ffffffff16815250915050949350505050565b61174161254d565b6040518060400160405280600063ffffffff1681526020018363ffffffff168152509050919050565b600081604001519050919050565b600081600061178c8263ffffffff16611e7c565b9050600a8151111561179d57600080fd5b6000856000015163ffffffff16116117ea576040517f08c379a00000000000000000000000000000000000000000000000000000000081526004016117e1906134a0565b60405180910390fd5b846000015163ffffffff168463ffffffff16119250505092915050565b60008083602001519050602160f81b8160008151811061182a57611829612f0c565b5b602001015160f81c60f81b7effffffffffffffffffffffffffffffffffffffffffffffffffffffffffffff19160361186c5783604001518314159150506119f3565b603d60f81b8160008151811061188557611884612f0c565b5b602001015160f81c60f81b7effffffffffffffffffffffffffffffffffffffffffffffffffffffffffffff1916036118c657836040015183149150506119f3565b603c60f81b816000815181106118df576118de612f0c565b5b602001015160f81c60f81b7effffffffffffffffffffffffffffffffffffffffffffffffffffffffffffff19160361193957600281510361192a5783604001518313159150506119f3565b836040015183129150506119f3565b603e60f81b8160008151811061195257611951612f0c565b5b602001015160f81c60f81b7effffffffffffffffffffffffffffffffffffffffffffffffffffffffffffff1916036119ac57600281510361199d5783604001518312159150506119f3565b836040015183139150506119f3565b60006119ed576040517f08c379a00000000000000000000000000000000000000000000000000000000081526004016119e49061350c565b60405180910390fd5b60009150505b92915050565b600081600460008573ffffffffffffffffffffffffffffffffffffffff1673ffffffffffffffffffffffffffffffffffffffff1681526020019081526020016000206000820181600001908054611a4f90612e23565b611a5a929190612573565b506001820160009054906101000a900473ffffffffffffffffffffffffffffffffffffffff168160010160006101000a81548173ffffffffffffffffffffffffffffffffffffffff021916908373ffffffffffffffffffffffffffffffffffffffff1602179055506001820160149054906101000a900460ff168160010160146101000a81548160ff0219169083151502179055509050506001905092915050565b6000826020015160ff16836000015160ff161015611b4b57826000015160ff168260ff1610158015611b385750826020015160ff168260ff1611155b15611b465760019050611b82565b611b7d565b826000015160ff168260ff16101580611b6e5750826020015160ff168260ff1611155b15611b7c5760019050611b82565b5b600090505b92915050565b6000826020015163ffffffff16836000015163ffffffff161015611be957826000015163ffffffff168263ffffffff1610158015611bd65750826020015163ffffffff168263ffffffff1611155b15611be45760019050611c2c565b611c27565b826000015163ffffffff168263ffffffff16101580611c185750826020015163ffffffff168263ffffffff1611155b15611c265760019050611c2c565b5b600090505b92915050565b6000808211611c76576040517f08c379a0000000000000000000000000000000000000000000000000000000008152600401611c6d9061359e565b60405180910390fd5b611ca68460030160009054906101000a900460ff168560050160009054906101000a900463ffffffff1685611fdc565b15611d0b5783600201548460040181905550611ce88460030160019054906101000a900463ffffffff168560030160009054906101000a900460ff16856120a1565b8460050160006101000a81548163ffffffff021916908363ffffffff1602179055505b6000611d1a8560040154611e7c565b611d278660020154611e7c565b611d3085611e7c565b604051602001611d4293929190613704565b604051602081830303815290604052905084600401548311158190611d9d576040517f08c379a0000000000000000000000000000000000000000000000000000000008152600401611d94919061378f565b60405180910390fd5b5082856004016000828254611db291906133fa565b9250508190555060019150509392505050565b6000600460ff168260ff161115611e11576040517f08c379a0000000000000000000000000000000000000000000000000000000008152600401611e0890613823565b60405180910390fd5b600060ff168260ff1603611e285760019050611e77565b600160ff168260ff1603611e3f57603c9050611e77565b600260ff168260ff1603611e5757610e109050611e77565b600360ff168260ff1603611e7057620151809050611e77565b62093a8090505b919050565b606060008203611ec3576040518060400160405280600181526020017f30000000000000000000000000000000000000000000000000000000000000008152509050611fd7565b600082905060005b60008214611ef5578080611ede90613843565b915050600a82611eee91906138ba565b9150611ecb565b60008167ffffffffffffffff811115611f1157611f10612683565b5b6040519080825280601f01601f191660200182016040528015611f435781602001600182028036833780820191505090505b5090505b60008514611fd057600182611f5c91906133fa565b9150600a85611f6b91906138eb565b6030611f77919061391c565b60f81b818381518110611f8d57611f8c612f0c565b5b60200101907effffffffffffffffffffffffffffffffffffffffffffffffffffffffffffff1916908160001a905350600a85611fc991906138ba565b9450611f47565b8093505050505b919050565b600080849050600460ff168160ff1611612008578363ffffffff168363ffffffff16101591505061209a565b600560ff168160ff16036120705760006120278463ffffffff16612134565b50915050600d8563ffffffff16148015612047575060018163ffffffff16145b156120575760019250505061209a565b8463ffffffff168163ffffffff1610159250505061209a565b60006120818463ffffffff16612134565b505090508463ffffffff168163ffffffff161015925050505b9392505050565b6000600460ff168360ff16116120c3576120bc8383866122e7565b905061212d565b600560ff168360ff16036121015760006120e28363ffffffff16612134565b5063ffffffff169150506001816120f9919061391c565b91505061212d565b60006121128363ffffffff16612134565b505063ffffffff169050600181612129919061391c565b9150505b9392505050565b6000806000806201518063ffffffff168561214f91906138ba565b9050600062253d8c62010bd9836121669190613972565b6121709190613972565b9050600062023ab182600461218591906139ac565b61218f91906139ea565b9050600460038262023ab16121a491906139ac565b6121ae9190613972565b6121b891906139ea565b826121c39190613a1b565b9150600062164b096001846121d89190613972565b610fa06121e591906139ac565b6121ef91906139ea565b9050601f6004826105b561220391906139ac565b61220d91906139ea565b846122189190613a1b565b6122229190613972565b9250600061098f84605061223691906139ac565b61224091906139ea565b9050600060508261098f61225491906139ac565b61225e91906139ea565b856122699190613a1b565b9050600b8261227891906139ea565b945084600c61228791906139ac565b6002836122949190613972565b61229e9190613a1b565b915084836031866122af9190613a1b565b60646122bb91906139ac565b6122c59190613972565b6122cf9190613972565b92508298508197508096505050505050509193909250565b60008082846122f69190613a4f565b9050600081846123069190613a1b565b9050600460ff168660ff1603612339576203f48081866123269190613972565b6123309190613972565b9250505061234a565b80856123459190613972565b925050505b9392505050565b50805461235d90612e23565b6000825580601f1061236f575061238e565b601f01602090049060005260206000209081019061238d9190612600565b5b50565b82805461239d90612e23565b90600052602060002090601f0160209004810192826123bf5760008555612406565b82601f106123d857805160ff1916838001178555612406565b82800160010185558215612406579182015b828111156124055782518255916020019190600101906123ea565b5b5090506124139190612600565b5090565b604051806060016040528060608152602001600073ffffffffffffffffffffffffffffffffffffffff1681526020016000151581525090565b6040518060400160405280600060ff168152602001600060ff1681525090565b6040518060400160405280600063ffffffff168152602001600063ffffffff1681525090565b6040518060a00160405280600063ffffffff168152602001600060ff168152602001600063ffffffff168152602001600063ffffffff168152602001600063ffffffff1681525090565b60405180606001604052806060815260200160608152602001600081525090565b6040518060e00160405280606081526020016060815260200160008152602001600060ff168152602001600063ffffffff16815260200160008152602001600063ffffffff1681525090565b6040518060400160405280600063ffffffff168152602001600063ffffffff1681525090565b82805461257f90612e23565b90600052602060002090601f0160209004810192826125a157600085556125ef565b82601f106125b257805485556125ef565b828001600101855582156125ef57600052602060002091601f016020900482015b828111156125ee5782548255916001019190600101906125d3565b5b5090506125fc9190612600565b5090565b5b80821115612619576000816000905550600101612601565b5090565b6000604051905090565b600080fd5b600080fd5b600063ffffffff82169050919050565b61264a81612631565b811461265557600080fd5b50565b60008135905061266781612641565b92915050565b600080fd5b6000601f19601f8301169050919050565b7f4e487b7100000000000000000000000000000000000000000000000000000000600052604160045260246000fd5b6126bb82612672565b810181811067ffffffffffffffff821117156126da576126d9612683565b5b80604052505050565b60006126ed61261d565b90506126f982826126b2565b919050565b600067ffffffffffffffff82111561271957612718612683565b5b602082029050602081019050919050565b600080fd5b6000819050919050565b6127428161272f565b811461274d57600080fd5b50565b60008135905061275f81612739565b92915050565b6000612778612773846126fe565b6126e3565b9050808382526020820190506020840283018581111561279b5761279a61272a565b5b835b818110156127c457806127b08882612750565b84526020840193505060208101905061279d565b5050509392505050565b600082601f8301126127e3576127e261266d565b5b81356127f3848260208601612765565b91505092915050565b6000806040838503121561281357612812612627565b5b600061282185828601612658565b925050602083013567ffffffffffffffff8111156128425761284161262c565b5b61284e858286016127ce565b9150509250929050565b60008115159050919050565b61286d81612858565b82525050565b60006020820190506128886000830184612864565b92915050565b600080fd5b600067ffffffffffffffff8211156128ae576128ad612683565b5b6128b782612672565b9050602081019050919050565b82818337600083830152505050565b60006128e66128e184612893565b6126e3565b9050828152602081018484840111156129025761290161288e565b5b61290d8482856128c4565b509392505050565b600082601f83011261292a5761292961266d565b5b813561293a8482602086016128d3565b91505092915050565b600073ffffffffffffffffffffffffffffffffffffffff82169050919050565b600061296e82612943565b9050919050565b61297e81612963565b811461298957600080fd5b50565b60008135905061299b81612975565b92915050565b600080604083850312156129b8576129b7612627565b5b600083013567ffffffffffffffff8111156129d6576129d561262c565b5b6129e285828601612915565b92505060206129f38582860161298c565b9150509250929050565b612a0681612963565b82525050565b6000602082019050612a2160008301846129fd565b92915050565b600060ff82169050919050565b612a3d81612a27565b8114612a4857600080fd5b50565b600081359050612a5a81612a34565b92915050565b600067ffffffffffffffff821115612a7b57612a7a612683565b5b602082029050602081019050919050565b6000819050919050565b612a9f81612a8c565b8114612aaa57600080fd5b50565b600081359050612abc81612a96565b92915050565b6000612ad5612ad084612a60565b6126e3565b90508083825260208201905060208402830185811115612af857612af761272a565b5b835b81811015612b215780612b0d8882612aad565b845260208401935050602081019050612afa565b5050509392505050565b600082601f830112612b4057612b3f61266d565b5b8135612b50848260208601612ac2565b91505092915050565b600080600080600060a08688031215612b7557612b74612627565b5b6000612b8388828901612658565b9550506020612b9488828901612a4b565b9450506040612ba588828901612658565b935050606086013567ffffffffffffffff811115612bc657612bc561262c565b5b612bd2888289016127ce565b925050608086013567ffffffffffffffff811115612bf357612bf261262c565b5b612bff88828901612b2b565b9150509295509295909350565b600060208284031215612c2257612c21612627565b5b6000612c308482850161298c565b91505092915050565b600081519050919050565b600082825260208201905092915050565b60005b83811015612c73578082015181840152602081019050612c58565b83811115612c82576000848401525b50505050565b6000612c9382612c39565b612c9d8185612c44565b9350612cad818560208601612c55565b612cb681612672565b840191505092915050565b612cca81612963565b82525050565b612cd981612858565b82525050565b60006060830160008301518482036000860152612cfc8282612c88565b9150506020830151612d116020860182612cc1565b506040830151612d246040860182612cd0565b508091505092915050565b60006020820190508181036000830152612d498184612cdf565b905092915050565b600082825260208201905092915050565b7f4f6e6c7920746865206170706c69636174696f6e2063616e206578656375746560008201527f2074686973206f7065726174696f6e0000000000000000000000000000000000602082015250565b6000612dbe602f83612d51565b9150612dc982612d62565b604082019050919050565b60006020820190508181036000830152612ded81612db1565b9050919050565b7f4e487b7100000000000000000000000000000000000000000000000000000000600052602260045260246000fd5b60006002820490506001821680612e3b57607f821691505b602082108103612e4e57612e4d612df4565b5b50919050565b7f546865204170706c69636174696f6e2070617274792073686f756c642073696760008201527f6e2074686520636f6e7472616374206265666f726520696e746572616374207760208201527f6974682069742e00000000000000000000000000000000000000000000000000604082015250565b6000612ed6604783612d51565b9150612ee182612e54565b606082019050919050565b60006020820190508181036000830152612f0581612ec9565b9050919050565b7f4e487b7100000000000000000000000000000000000000000000000000000000600052603260045260246000fd5b7f5375636365737366756c20657865637574696f6e210000000000000000000000600082015250565b6000612f71601583612d51565b9150612f7c82612f3b565b602082019050919050565b60006020820190508181036000830152612fa081612f64565b9050919050565b7f526573706f6e7365206d616465206f757473696465206f6620616c6c6f77656460008201527f20686f757273206f722064697374616e6365206c696d6974206578636565646560208201527f6400000000000000000000000000000000000000000000000000000000000000604082015250565b6000613029604183612d51565b915061303482612fa7565b606082019050919050565b600060208201905081810360008301526130588161301c565b9050919050565b7f4f6e6c79207468652070726f636573732063616e20657865637574652074686960008201527f73206f7065726174696f6e000000000000000000000000000000000000000000602082015250565b60006130bb602b83612d51565b91506130c68261305f565b604082019050919050565b600060208201905081810360008301526130ea816130ae565b9050919050565b7f4f6e6c79207468652070726f63657373206f7220746865206170706c6963617460008201527f696f6e2063616e20657865637574652074686973206f7065726174696f6e0000602082015250565b600061314d603e83612d51565b9150613158826130f1565b604082019050919050565b6000602082019050818103600083015261317c81613140565b9050919050565b7f52657175657374206f7065726174696f6e20706572666f726d6564206f75747360008201527f696465206f6620616c6c6f77656420686f757273206f72206c696d6974206f7060208201527f65726174696f6e20657863656564656400000000000000000000000000000000604082015250565b6000613205605083612d51565b915061321082613183565b606082019050919050565b60006020820190508181036000830152613234816131f8565b9050919050565b7f54686520636f6e747261637420697320616c7265616479207369676e65640000600082015250565b6000613271601e83612d51565b915061327c8261323b565b602082019050919050565b600060208201905081810360008301526132a081613264565b9050919050565b7f546865205f7374617274446179206e6f7420726570726573656e74732061207660008201527f616c696420646179000000000000000000000000000000000000000000000000602082015250565b6000613303602883612d51565b915061330e826132a7565b604082019050919050565b60006020820190508181036000830152613332816132f6565b9050919050565b7f546865205f656e64446179206e6f7420726570726573656e747320612076616c60008201527f6964206461790000000000000000000000000000000000000000000000000000602082015250565b6000613395602683612d51565b91506133a082613339565b604082019050919050565b600060208201905081810360008301526133c481613388565b9050919050565b7f4e487b7100000000000000000000000000000000000000000000000000000000600052601160045260246000fd5b600061340582612a8c565b915061341083612a8c565b925082821015613423576134226133cb565b5b828203905092915050565b7f5468657265206973206e6f20656e6454696d652073657420696e2074696d656f60008201527f7574000000000000000000000000000000000000000000000000000000000000602082015250565b600061348a602283612d51565b91506134958261342e565b604082019050919050565b600060208201905081810360008301526134b98161347d565b9050919050565b7f436f6d70617269736f6e2073796d626f6c206973206e6f742076616c69640000600082015250565b60006134f6601e83612d51565b9150613501826134c0565b602082019050919050565b60006020820190508181036000830152613525816134e9565b9050919050565b7f54686520726573756c74206f66207468652078706174682073686f756c64206260008201527f65206d6f7265207468616e203000000000000000000000000000000000000000602082015250565b6000613588602d83612d51565b91506135938261352c565b604082019050919050565b600060208201905081810360008301526135b78161357b565b9050919050565b600081905092915050565b7f596f752068617665206f6e6c7920000000000000000000000000000000000000600082015250565b60006135ff600e836135be565b915061360a826135c9565b600e82019050919050565b600061362082612c39565b61362a81856135be565b935061363a818560208601612c55565b80840191505092915050565b7f2066726f6d200000000000000000000000000000000000000000000000000000600082015250565b600061367c6006836135be565b915061368782613646565b600682019050919050565b7f2072657374696e672c20616e6420746865206d65737361676520636f6e74657460008201527f20787061746820726573756c7420697320000000000000000000000000000000602082015250565b60006136ee6031836135be565b91506136f982613692565b603182019050919050565b600061370f826135f2565b915061371b8286613615565b91506137268261366f565b91506137328285613615565b915061373d826136e1565b91506137498284613615565b9150819050949350505050565b600061376182612c39565b61376b8185612d51565b935061377b818560208601612c55565b61378481612672565b840191505092915050565b600060208201905081810360008301526137a98184613756565b905092915050565b7f546865206d6574686f642067657454696d65496e5365636f6e647320646f657360008201527f6e277420776f726b20666f72204d4f4e544820616e6420594541520000000000602082015250565b600061380d603b83612d51565b9150613818826137b1565b604082019050919050565b6000602082019050818103600083015261383c81613800565b9050919050565b600061384e82612a8c565b91507fffffffffffffffffffffffffffffffffffffffffffffffffffffffffffffffff82036138805761387f6133cb565b5b600182019050919050565b7f4e487b7100000000000000000000000000000000000000000000000000000000600052601260045260246000fd5b60006138c582612a8c565b91506138d083612a8c565b9250826138e0576138df61388b565b5b828204905092915050565b60006138f682612a8c565b915061390183612a8c565b9250826139115761391061388b565b5b828206905092915050565b600061392782612a8c565b915061393283612a8c565b9250827fffffffffffffffffffffffffffffffffffffffffffffffffffffffffffffffff03821115613967576139666133cb565b5b828201905092915050565b600061397d82612631565b915061398883612631565b92508263ffffffff038211156139a1576139a06133cb565b5b828201905092915050565b60006139b782612631565b91506139c283612631565b92508163ffffffff04831182151516156139df576139de6133cb565b5b828202905092915050565b60006139f582612631565b9150613a0083612631565b925082613a1057613a0f61388b565b5b828204905092915050565b6000613a2682612631565b9150613a3183612631565b925082821015613a4457613a436133cb565b5b828203905092915050565b6000613a5a82612631565b9150613a6583612631565b925082613a7557613a7461388b565b5b82820690509291505056fea26469706673582212204447abc17d359beeade316396a1cf43b826a6f71aea45109f2973452f3ecb9b564736f6c634300080d0033636f756e74282f2f626f64792f7065726f736f6e616c496e666f726d6174696f6e2f616464726573732f63657029",
  "immutableReferences": {},
  "source": "//SPDX-License-Identifier:MIT\r\npragma solidity >0.8.4 < 0.8.14;\r\n\r\nimport \"../../lib/eai/EAI.sol\";\r\n\r\ncontract DeliveryHiring_RO{\r\n\t\r\n    /* ==================================  BEGIN  ======================================== */\r\n    /* ============================ CODES FOR ALL CONTRACTS ============================== */\r\n \r\n    using EAI for EAI.Party;\r\n   \r\n    EAI.Party process;\r\n    EAI.Party application;\r\n    mapping(address=>EAI.Party) mapParty;\r\n\r\n    uint32 beginDate; \r\n\tuint32 dueDate; \t\r\n\r\n    event failEvent(string _logMessage);\r\n    event successEvent(string _logMessage);\r\n\r\n   /* --------------------------------   END   ------------------------------------------ */\r\n\r\n\r\n\r\n\r\n    /* ==================================  BEGIN  ======================================= */\r\n    /* =================== CODES GENERATED BASED IN JABUTI CONTRACT ===================== */\r\n \r\n \t\r\n    // ------------------ Automated code generation - 1 step ------------------ \r\n    using EAI for EAI.WeekDaysInterval;\r\n    using EAI for EAI.TimeInterval;\r\n    using EAI for EAI.MaxNumberOfOperation;\r\n    using EAI for EAI.MessageContent_Number;\r\n    using EAI for EAI.MessageContent_NumberPerTime;\r\n    using EAI for EAI.Timeout;\r\n    \r\n\r\n\r\n    // ------------------ Automated code generation - 2 step ------------------ \r\n    string numberOfAddresses = \"count(//body/perosonalInformation/address/cep)\";\r\n\r\n    // ------------------ Automated code generation - 3 step ------------------ \r\n  \r\n \t\r\n    EAI.WeekDaysInterval[]  weekDaysInterval_C1; \t\r\n\tEAI.TimeInterval[] timeInterval_C1;\r\n    EAI.MaxNumberOfOperationByTime[] maxNumberOfOperationByTime_C1;\r\n    EAI.MessageContent_Number[] msgContent_number_C1;\r\n    EAI.MessageContent_NumberPerTime[] msgContent_numberPerTime_C1;\r\n\r\n    EAI.Timeout[]  timeout_C2; \t\r\n\tEAI.MessageContent_Number[]  msgContent_number_C2;\r\n\r\n    // ------------------ Automated code generation - 4 step ------------------ \r\n\tconstructor(address _applicationWallet){\r\n\t \tbeginDate = 1672561800;\r\n\t    dueDate = 1704097800;\r\n         \r\n        process = EAI.createParty(\"Integration Process\", msg.sender, true);\r\n\t    application = EAI.createParty(\"Delivery System\", _applicationWallet, false);        \r\n        mapParty[msg.sender] = process;\r\n        mapParty[_applicationWallet] = application;\r\n\r\n        // ------------------ Automated code generation - 5 step ------------------ \r\n        weekDaysInterval_C1.push(EAI.createWeekDaysInterval(EAI.MONDAY, EAI.FRIDAY));\r\n        timeInterval_C1.push(EAI.createTimeInterval(30600,66600)); //TimeInterval(\"08:30:00\" to \"18:30:00\")\r\n        maxNumberOfOperationByTime_C1.push(EAI.createMaxNumberOfOperationByTime(5, EAI.DAY));\r\n\t\tmsgContent_number_C1.push(EAI.createMessageContent(numberOfAddresses, \">=\", 1));        \r\n        msgContent_number_C1.push(EAI.createMessageContent(numberOfAddresses, \"<=\", 3));        \r\n        msgContent_numberPerTime_C1.push(EAI.createMessageContent_NumberPerTime(numberOfAddresses, \"<=\", 1000, EAI.MONTH));\r\n\r\n        timeout_C2.push(EAI.createTimeout(30));\t   \t\t\t\t\r\n\t\tmsgContent_number_C2.push(EAI.createMessageContent(\"//budget/id/text()\", \">=\", 0));   \r\n\r\n\t}\r\n\t\r\n    // ------------------ Automated code generation - 6 step ------------------ \r\n    // - translate clauses to functions\r\n\r\n    function right_requestDelivery(\r\n        uint32 _accessDateTime, \r\n        uint8 _weekDay, \r\n        uint32 _hourOfDay, \r\n        int256[] memory _resultFromXpath_nc,\r\n        uint256[] memory _resultFromXpath_npt\r\n        ) public onlyProcess() returns(bool){\r\n      \r\n        if(weekDaysInterval_C1[0].isIntoWeekDaysInterval(_weekDay) &&\r\n           timeInterval_C1[0].isIntoTimeInterval(_hourOfDay) &&\r\n           msgContent_number_C1[0].evaluateNumberContent(_resultFromXpath_nc[0]) &&\r\n           msgContent_number_C1[1].evaluateNumberContent(_resultFromXpath_nc[1]) &&\r\n           msgContent_numberPerTime_C1[0].evaluateAndDecreaseNumberPerTime(_accessDateTime, uint256(_resultFromXpath_npt[2]))\r\n        ){\r\n            emit successEvent(\"Successful execution!\");\r\n            return true;\r\n        }    \r\n\t   \temit failEvent(\"Request operation performed outside of allowed hours or limit operation exceeded\");\r\n\t\treturn false;\r\n    }\r\n    \r\n\r\n    function responderOrder(uint32 _accessDateTime, int256[] memory _resultFromXpath_nc) public onlyApplication() returns(bool){\r\n\r\n\t   \t// Setting the time limit for responding to a request\r\n\t   \trequire(mapParty[msg.sender].isAware(), \"The Application party should sign the contract before interact with it.\");\t   \t \r\n\t    \r\n\t\tif(!timeout_C2[0].isTimeoutEnded(_accessDateTime)  &&\t\t\t\r\n\t\t\tmsgContent_number_C2[0].evaluateNumberContent(_resultFromXpath_nc[0])\r\n            )\r\n\t\t\t{\t\t\t    \r\n                emit successEvent(\"Successful execution!\");\r\n\t        \treturn true;\r\n\t    \t}\r\n\t    \r\n\t   \temit failEvent(\"Response made outside of allowed hours or distance limit exceeded\");\r\n\t\treturn false;\r\n\t}\r\n    \r\n   \r\n    /* ================== CODES GENERATED BASED IN JABUTI CONTRACT ======================= */\r\n    /* --------------------------------   END   ------------------------------------------ */\r\n\r\n\r\n\r\n\r\n\r\n\r\n\r\n\r\n\r\n\r\n\r\n\r\n    \r\n  \r\n    /* ================== CODES GENERATED BASED IN JABUTI CONTRACT ======================= */\r\n    /* --------------------------------   END   ------------------------------------------ */\r\n\r\n\r\n\r\n    /* =================================================================================== */\r\n    /* ============================ CODES FOR ALL CONTRACTS ============================== */\r\n    \r\n    /* the process sign the contract by default, the function signContract \r\n    is used to get the applicationParty signature*/      \r\n    function signContract() public onlyApplication() returns(bool){\r\n        require(application.aware == false, \"The contract is already signed\");        \r\n        application.aware = true;  \r\n        updateMapParty(msg.sender, application);\r\n\t\treturn true;\r\n    }\r\n\r\n    function updateMapParty(address _walletAddress, EAI.Party storage _party)internal returns(bool){       \r\n        mapParty[_walletAddress] = _party;\r\n\t\treturn true;\r\n    }\r\n    \r\n    /* It only possible to change the name and the address of the party. \r\n    After change the  party, the new party need to sign the contract */\r\n    function changeApplicationParty(string memory _name, address _walletAddress) public returns(bool) {       \r\n        require(process.walletAddress == msg.sender, \"Only the process can execute this operation\");\r\n        delete mapParty[application.walletAddress];\r\n        application = EAI.createParty(_name, _walletAddress, false);          \r\n        updateMapParty(_walletAddress, application);\r\n        return true;       \r\n    }\r\n    \r\n    function getProcessAddress() public view onlyInvolvedParties returns(address){\r\n        return process.walletAddress;\r\n    }\r\n    \r\n    function getApplicationAddress() public view onlyInvolvedParties returns(address){\r\n        return application.walletAddress;\r\n    }\r\n\r\n    function getParty(address _walletAddress) public view onlyInvolvedParties returns(EAI.Party memory){\r\n        return mapParty[_walletAddress];\r\n    }\r\n\r\n    /* =================================================================================== */\r\n    /* ==================================== MODIFIERS ==================================== */\r\n    /* ----------------------------------------------------------------------------------- */\r\n    \r\n    modifier onlyApplication(){\r\n        require(application.walletAddress == msg.sender, \"Only the application can execute this operation\");\r\n        _;\r\n    }\r\n\r\n    modifier onlyProcess(){\r\n        require(process.walletAddress == msg.sender, \"Only the process can execute this operation\");\r\n        _;\r\n    }\r\n\r\n    modifier onlyInvolvedParties(){\r\n        require(\r\n            (application.walletAddress == msg.sender || process.walletAddress == msg.sender ) ,\r\n            \"Only the process or the application can execute this operation\");\r\n        _;\r\n    }\r\n\r\n    /* ============================ CODES FOR ALL CONTRACTS ============================== */\r\n    /* ----------------------------------   END   ---------------------------------------- */\r\n}",
  "sourcePath": "C:\\git-repository\\dsl-smart-contract-eai\\02-models\\ProofOfConcept\\contracts\\study-case-contracts\\001-delivery-hiring\\DeliveryHiringRO.sol",
  "compiler": {
    "name": "solc",
    "version": "0.8.13+commit.abaa5c0e.Emscripten.clang"
  },
  "schemaVersion": "3.4.11",
  "updatedAt": "2023-02-10T18:01:27.135Z",
  "devdoc": {
    "kind": "dev",
    "methods": {},
    "version": 1
  },
  "userdoc": {
    "kind": "user",
    "methods": {},
    "version": 1
  }
}