{
  "contractName": "EAI",
  "abi": [
    {
      "inputs": [
        {
          "internalType": "string",
          "name": "str",
          "type": "string"
        }
      ],
      "name": "isNumber",
      "outputs": [
        {
          "internalType": "bool",
          "name": "",
          "type": "bool"
        }
      ],
      "stateMutability": "pure",
      "type": "function"
    }
  ],
  "bytecode": "0x610330610053600b82828239805160001a607314610046577f4e487b7100000000000000000000000000000000000000000000000000000000600052600060045260246000fd5b30600052607381538281f3fe73000000000000000000000000000000000000000030146080604052600436106100355760003560e01c8063e18a89cf1461003a575b600080fd5b610054600480360381019061004f919061024c565b61006a565b60405161006191906102b0565b60405180910390f35b60008082600081518110610081576100806102cb565b5b602001015160f81c60f81b9050603060f81b817effffffffffffffffffffffffffffffffffffffffffffffffffffffffffffff1916101580156100ea5750603960f81b817effffffffffffffffffffffffffffffffffffffffffffffffffffffffffffff191611155b915050919050565b6000604051905090565b600080fd5b600080fd5b600080fd5b600080fd5b6000601f19601f8301169050919050565b7f4e487b7100000000000000000000000000000000000000000000000000000000600052604160045260246000fd5b61015982610110565b810181811067ffffffffffffffff8211171561017857610177610121565b5b80604052505050565b600061018b6100f2565b90506101978282610150565b919050565b600067ffffffffffffffff8211156101b7576101b6610121565b5b6101c082610110565b9050602081019050919050565b82818337600083830152505050565b60006101ef6101ea8461019c565b610181565b90508281526020810184848401111561020b5761020a61010b565b5b6102168482856101cd565b509392505050565b600082601f83011261023357610232610106565b5b81356102438482602086016101dc565b91505092915050565b600060208284031215610262576102616100fc565b5b600082013567ffffffffffffffff8111156102805761027f610101565b5b61028c8482850161021e565b91505092915050565b60008115159050919050565b6102aa81610295565b82525050565b60006020820190506102c560008301846102a1565b92915050565b7f4e487b7100000000000000000000000000000000000000000000000000000000600052603260045260246000fdfea2646970667358221220ae96bd48bf2a74d93b6dba9ceb6c086d12aaf13647c181be3528e12cdebb2df964736f6c634300080d0033",
  "immutableReferences": {},
  "source": "\r\n//SPDX-License-Identifier: MIT\r\npragma solidity >0.8.4 < 0.8.14;\r\n\r\n\r\n// pragma experimental 'ABIEncoderV2';\r\n\r\nlibrary EAI{    \r\n    \r\n/* ========================================================================== */\r\n/*                                   CONSTANTS                                */\r\n/* -------------------------------------------------------------------------- */\r\n\r\n    // session status \r\n    uint8 constant CLOSED = 0;\r\n    uint8 constant OPEN = 1;\r\n\r\n    // weekdays\r\n\r\n    uint8 constant SUNDAY=0;\r\n    uint8 constant MONDAY=1;\r\n    uint8 constant TUESDAY=2;\r\n    uint8 constant WEDNESDAY=3;\r\n    uint8 constant THURSDAY=4;\r\n    uint8 constant FRIDAY=5;\r\n    uint8 constant SATURDAY=6;\r\n\r\n    // time\r\n    uint8 constant SECOND = 0;\r\n    uint8 constant MINUTE = 1;\r\n    uint8 constant HOUR= 2;\r\n    uint8 constant DAY= 3;\r\n    uint8 constant WEEK= 4;\r\n    uint8 constant MONTH= 5;\r\n    uint8 constant YEAR= 6;\r\n\r\n    // Interval in seconds between the min and max hour \r\n    // allowed to use in a contract(0 to 23:59:59)\r\n    uint32 constant MIN_HOUR = 0;\r\n    uint32 constant MAX_HOUR= 86399; \r\n\r\n    uint32 constant SECONDS_PER_DAY = 24*60*60;\r\n    uint32 constant OFFSET19700101 = 2440588; // off,,set copiado da lib date... verificar o valor ...\r\n    uint32 constant OFFSETWEEK = 259200; \r\n/* ========================================================================== */\r\n/*                                     PARTY                                  */\r\n/* ========================================================================== */\r\n  \r\n    struct Party{\r\n        string name;\r\n        address walletAddress;\r\n        bool aware;\r\n    }\r\n\r\n    function createParty(string memory _name, address _walletAddress, bool _aware) internal pure returns(Party memory){\r\n        return Party(_name, _walletAddress, _aware);\r\n    }\r\n    \r\n    // function getParty(Party memory _party) internal pure returns(Party memory){\r\n    //     return _party;\r\n    // }\r\n\r\n    function setPartyName(Party storage _party, string memory _name) internal {\r\n        _party.name = _name;\r\n    }\r\n\r\n    // if the address is change, then da new party need to sign the contract \r\n    function setPartyAddress(Party storage _party, address _walletAddress) internal {\r\n        _party.walletAddress = _walletAddress;\r\n        _party.aware = false;\r\n    }\r\n\r\n    function becomeAware(Party storage _party) internal{\r\n        _party.aware = true;\r\n    }\r\n\r\n    function isAware(Party memory _party) internal pure returns(bool){\r\n        return _party.aware;\r\n    }\r\n\r\n\r\n/* ========================================================================== */\r\n/*                             WEEK_DAYS_INTERVAL                     */\r\n/* ========================================================================== */\r\n  \r\n    struct  WeekDaysInterval{\r\n        uint8 start;\r\n        uint8 end;\r\n    } \r\n\r\n    function createWeekDaysInterval(\r\n        uint8 _start, \r\n        uint8 _end\r\n        ) internal pure onlyValidDays(_start, _end) returns ( WeekDaysInterval memory){\r\n        return WeekDaysInterval(_start, _end);\r\n    } \r\n\r\n    function setWeekDayInterval( \r\n        WeekDaysInterval storage _wdi,\r\n        uint8 _start,\r\n        uint8 _end\r\n        ) internal onlyValidDays(_start, _end){\r\n        _wdi.start= _start;\r\n        _wdi.end = _end;     \r\n    }\r\n\r\n    function getOneWeekDaysInterval( WeekDaysInterval memory _wdi )internal pure returns(uint8 start, uint8 end){\r\n            return (_wdi.start, _wdi.end);\r\n    }\r\n\r\n    function getAllWeekDaysIntervals(WeekDaysInterval[] memory _wdi) internal pure returns(WeekDaysInterval[] memory) {\r\n        return _wdi;     \r\n    }\r\n\r\n\r\n   // check into a set of weekDaysIntervals\r\n   function isIntoWeekDaysIntervals(\r\n    uint8 _weekDay, \r\n    WeekDaysInterval [] memory _wdInterval\r\n    ) internal pure onlyValidDay(_weekDay) returns(bool){\r\n        // bool flagReturn = false;\r\n        uint vLength = _wdInterval.length;\r\n        for(uint i=0; i<vLength; i++){\r\n            //    flagReturn = isIntoWeekDaysInterval(_weekDay, _wdInterval[i]); \r\n               if(isIntoWeekDaysInterval(_wdInterval[i], _weekDay)){                \r\n                return true; \r\n               }\r\n        }\r\n        return false; \r\n    }\r\n\r\n    // check into one weekDaysInterval\r\n    function isIntoWeekDaysInterval(       \r\n        WeekDaysInterval memory _wdInterval,\r\n        uint8 _weekDayAccess\r\n        ) internal pure returns(bool){\r\n       \r\n        if(_wdInterval.start < _wdInterval.end ){\r\n                if(_weekDayAccess >= _wdInterval.start &&  _weekDayAccess<= _wdInterval.end){\r\n                return true;\r\n            }\r\n        }else{\r\n             if(_weekDayAccess >= _wdInterval.start ||  _weekDayAccess<=_wdInterval.end){\r\n                return true;\r\n            }   \r\n        }        \r\n       return false;\r\n   }\r\n\r\n   /* ---------------------- modifiers from the weekDaysInterval ----------- */ \r\n    modifier onlyValidDays(uint8 _startDay, uint8 _endDay) {\r\n        require( _startDay >= SUNDAY && _startDay <= SATURDAY, \"The _startDay not represents a valid day\");\r\n        require(_endDay >= SUNDAY && _endDay <= SATURDAY,  \"The _endDay not represents a valid day\");\r\n        _;\r\n    }\r\n    \r\n    modifier onlyValidDay(uint8 _day) {\r\n        require((_day >= SUNDAY && _day <= SATURDAY), \"The given number/day not represents a valid day\");\r\n        _;\r\n    }\r\n\r\n\r\n/* ========================================================================== */\r\n/*                                    TIME INTERVAL                            */\r\n/* ========================================================================== */\r\n    // the hours are storage in milliseconds\r\n    struct  TimeInterval{\r\n        uint32 start;\r\n        uint32 end;\r\n    } \r\n\r\n    function createTimeInterval(\r\n        uint32 _start, \r\n        uint32 _end\r\n        ) internal pure onlyValidHours(_start, _end) returns ( TimeInterval memory){\r\n        return TimeInterval(_start, _end);\r\n    } \r\n\r\n    function setTimeInterval( \r\n        TimeInterval storage _ti,\r\n        uint32 _start,\r\n        uint32 _end\r\n        ) internal onlyValidHours(_start, _end){\r\n        _ti.start= _start;\r\n        _ti.end = _end;     \r\n    }\r\n\r\n    function getOneTimeInterval( TimeInterval memory _ti )internal pure returns(uint32 start, uint32 end){\r\n            return (_ti.start, _ti.end);\r\n    }\r\n    \r\n    function getAllTimeIntervals(TimeInterval[] memory _ti) internal pure returns(TimeInterval[] memory){\r\n        return _ti;\r\n    }\r\n\r\n   // check into a set of TimeIntervals\r\n   function isIntoTimeIntervals(\r\n    uint32 _timeAccess, \r\n    TimeInterval [] memory _ti\r\n    ) internal pure  onlyValidHour(_timeAccess) returns(bool){\r\n        uint vLength = _ti.length;\r\n        for(uint i=0; i<vLength; i++){\r\n               if(isIntoTimeInterval(_ti[i],_timeAccess)){                \r\n                return true; \r\n               }\r\n        }\r\n        return false; \r\n    }\r\n\r\n    // check into one weekDaysInterval\r\n    function isIntoTimeInterval(\r\n        TimeInterval memory _ti,\r\n        uint32 _timeAccess        \r\n        ) internal pure returns(bool){\r\n       \r\n        if(_ti.start < _ti.end ){\r\n                if(_timeAccess >= _ti.start &&  _timeAccess <= _ti.end){\r\n                return true;\r\n            }\r\n        }else{\r\n             if(_timeAccess >= _ti.start ||  _timeAccess <=_ti.end){\r\n                return true;\r\n            }   \r\n        }        \r\n       return false;\r\n   }\r\n\r\n   /* ---------------------- modifiers from the weekDaysInterval ----------- */ \r\n    modifier onlyValidHours(uint32 _startHr, uint32 _endHr) {\r\n        require( _startHr >= MIN_HOUR && _startHr <= MAX_HOUR, \"The _startDay not represents a valid day\");\r\n        require(_endHr >= MIN_HOUR && _endHr <= MAX_HOUR,  \"The _endDay not represents a valid day\");\r\n        _;\r\n    }\r\n    \r\n    modifier onlyValidHour(uint32 _hour) {\r\n        require((_hour >= MIN_HOUR && _hour <= MAX_HOUR), \"The given number/day not represents a valid day\");\r\n        _;\r\n    }\r\n\r\n/* ========================================================================== */\r\n/*                                    TIME OUT                                */\r\n/* ========================================================================== */\r\n    struct Timeout{\r\n        uint32 endTime;\r\n        uint32 timeIncrement;\r\n    }\r\n\r\n    function createTimeout(uint32 _timeIncrement) internal pure returns (Timeout memory ){\r\n        return Timeout(0, _timeIncrement);\r\n    }\r\n    \r\n    function isTimeoutEnded(Timeout memory _timeout, uint32 _accessTime) internal pure onlyValidAccessTime(_accessTime) returns(bool){        \r\n        require(_timeout.endTime > 0, \"There is no endTime set in timeout\");\r\n        return _accessTime > _timeout.endTime;\r\n    }\r\n\r\n    function resetEndTimeInTimeout(Timeout storage _timeout) internal{                \r\n        _timeout.endTime=0;        \r\n    }\r\n\r\n    function setEndTimeInTimeout(Timeout storage _timeout, uint32 _startTime)internal onlyValidAccessTime(_startTime){      \r\n        _timeout.endTime = _startTime + _timeout.timeIncrement; \r\n    }\r\n\r\n   /* ---------------------- modifiers from the Timeout ----------- */ \r\n\r\n    modifier onlyValidAccessTime(uint32 _time){\r\n        string memory strTime  = uint2String(_time);\r\n        require(bytes(strTime).length <= 10);// epoch time in seconds\r\n        _;\r\n    }\r\n\r\n\r\n/* ========================================================================== */\r\n/*                             MAX NUMBER OF OPERATION                        */\r\n/* ========================================================================== */\r\n\r\n    struct MaxNumberOfOperation{\r\n        uint32 amount;\r\n        uint32 rest;\r\n    }\r\n\r\n    function createMaxNumberOfOperation(uint32 _amount) internal pure returns(MaxNumberOfOperation memory){\r\n        return MaxNumberOfOperation(_amount, _amount);// the rest will start with the same _amount value\r\n    }\r\n\r\n    function hasAvailableOperations(MaxNumberOfOperation storage _maxNumberOfOperation) internal view returns(bool){\r\n        if(_maxNumberOfOperation.rest > 0){          \r\n            return true;\r\n        }\r\n        return false;\r\n    }\r\n\r\n    function decreaseOneOperation(MaxNumberOfOperation storage _maxNumberOfOperation) internal {\r\n        _maxNumberOfOperation.rest -=1;\r\n    }\r\n\r\n    function increaseOneOperation(MaxNumberOfOperation storage _maxNumberOfOperation, uint32 _operations) internal {\r\n        _maxNumberOfOperation.rest += _operations;\r\n    }\r\n  \r\n/* ========================================================================== */\r\n/*                      MAX NUMBER OF OPERATION BY TIME                       */\r\n/* ========================================================================== */\r\n\r\n    struct MaxNumberOfOperationByTime{\r\n        uint32 amount;\r\n        uint8 timeUnit;\r\n        uint32 byTime;\r\n        uint32 rest;\r\n        uint32 endTime;\r\n    }\r\n\r\n    function createMaxNumberOfOperationByTime(\r\n        uint32 _amount,\r\n        uint8 _timeUnit\r\n        )internal pure returns(MaxNumberOfOperationByTime memory){\r\n\r\n        uint32 auxByTime;\r\n\r\n        if(_timeUnit <= WEEK){\r\n            // for value equal a week or less, will be used the time in seconds to increase the endTime \r\n            auxByTime= getTimeInSeconds(_timeUnit);\r\n        }else{\r\n            // for values equal to year or month will be used the unit 1 to increase the endTime \r\n            auxByTime = 1; \r\n        }\r\n        return MaxNumberOfOperationByTime(_amount, _timeUnit, auxByTime, _amount, 0);\r\n    }\r\n           \r\n    function hasAvailableOperations_ByTime(\r\n        MaxNumberOfOperationByTime storage _maxNumberOfOperationByTime,\r\n        uint32 _accessDateTime\r\n        ) internal returns(bool){\r\n        \r\n        if(isAccessDatetimeOutOfOldInterval(_maxNumberOfOperationByTime.timeUnit, _maxNumberOfOperationByTime.endTime, _accessDateTime)){\r\n                setNewEndTimeAndRestOfOperations(_maxNumberOfOperationByTime, _accessDateTime);\r\n        }\r\n        \r\n        if(_maxNumberOfOperationByTime.rest > 0){          \r\n            return true;\r\n        }\r\n        return false;\r\n    }\r\n\r\n    function increaseOneOperation_ByTime(MaxNumberOfOperationByTime storage _maxNumberOfOperationByTime) internal  {\r\n        _maxNumberOfOperationByTime.rest +=1;\r\n    }\r\n\r\n    function decreaseOneOperation_ByTime(MaxNumberOfOperationByTime storage _maxNumberOfOperationByTime,  uint32 _accessDateTime) internal  {\r\n        if(hasAvailableOperations_ByTime(_maxNumberOfOperationByTime, _accessDateTime)){\r\n            _maxNumberOfOperationByTime.rest -=1;\r\n        }\r\n        \r\n    }\r\n\r\n   \r\n    function setNewEndTimeAndRestOfOperations(\r\n        MaxNumberOfOperationByTime storage _maxNumberOfOperationByTime,\r\n        uint32 _accessDateTime\r\n        ) private {\r\n        _maxNumberOfOperationByTime.rest = _maxNumberOfOperationByTime.amount;\r\n        _maxNumberOfOperationByTime.endTime = calcNextEndTime(\r\n                                                _maxNumberOfOperationByTime.byTime,\r\n                                                _maxNumberOfOperationByTime.timeUnit,\r\n                                                _accessDateTime\r\n                                                );\r\n    }\r\n\r\n\r\n/* ========================================================================== */\r\n/*                       MESSAGE CONTENT ONLY XPATH BOOLEAN                   */\r\n/* ========================================================================== */\r\n\r\n    struct MessageContent_onlyXPath_Boolean{\r\n        string xpath;        \r\n    }\r\n\r\n    function createMessageContent_onlyXPath_Boolean(string memory _xpath) internal pure returns(MessageContent_onlyXPath_Boolean memory){\r\n        return MessageContent_onlyXPath_Boolean(_xpath);\r\n    }\r\n\r\n/* ========================================================================== */\r\n/*                      MESSAGE CONTENT ONLY XPATH NUMBER                     */\r\n/* ========================================================================== */\r\n    struct MessageContent_onlyXPath_Number{\r\n        string xpath;        \r\n    }\r\n\r\n    function createMessageContent_onlyXPath_Number(string memory _xpath) internal pure returns(MessageContent_onlyXPath_Number memory){\r\n        return MessageContent_onlyXPath_Number(_xpath);\r\n    }\r\n\r\n/* ========================================================================== */\r\n/*                     MESSAGE CONTENT ONLY XPATH STRING                      */\r\n/* ========================================================================== */\r\n    struct MessageContent_onlyXPath_String{\r\n        string xpath;        \r\n    }\r\n\r\n    function createMessageContent_onlyXPath_String(string memory _xpath) internal pure returns(MessageContent_onlyXPath_String memory){\r\n        return MessageContent_onlyXPath_String(_xpath);\r\n    }\r\n/* ========================================================================== */\r\n/*                              MESSAGE CONTENT STRING                        */\r\n/* ========================================================================== */\r\n\r\n    struct MessageContent_String{\r\n        string xpath;\r\n        string op; // comparison operator\r\n        string content;      \r\n    }\r\n\r\n    function createMessageContent(string memory _xpath, string memory _op, string memory _content ) internal pure returns(MessageContent_String memory){\r\n        bytes1 char = bytes(_op)[0];\r\n        require((char == 0x21 || char == 0x3D) ,\"Only '!=' or '==' operators is allow to compare strings\");\r\n        return MessageContent_String(_xpath, _op, _content); \r\n    }\r\n\r\n    function evaluateStringContent(MessageContent_String memory msgContent, string memory _value) internal pure returns(bool){       \r\n        if( bytes(msgContent.op)[0] == 0x21){ // if msgContent.op start with '!' enter:\r\n            if (keccak256(abi.encodePacked(_value)) != keccak256(abi.encodePacked(msgContent.content)) ) {\r\n                return true;\r\n            }            \r\n        }else{ // else if msgContent.op don't start with '!' enter:\r\n            if (keccak256(abi.encodePacked(_value)) == keccak256(abi.encodePacked(msgContent.content)) ) {\r\n                return true;\r\n            }\r\n        }\r\n        return false;\r\n    }\r\n\r\n    function isEqual(string memory str_1, string memory str_2) internal pure returns(bool){\r\n        if (keccak256(abi.encodePacked(str_1)) == keccak256(abi.encodePacked(str_2)) ) {\r\n                return true;\r\n            }else{\r\n                return false;\r\n            }\r\n    }\r\n \r\n/* ========================================================================== */\r\n/*                              MESSAGE CONTENT NUMBER                        */\r\n/* ========================================================================== */\r\n\r\n    struct MessageContent_Number{\r\n        string xpath;\r\n        string op; // comparison operator\r\n        int256 content;      \r\n    }\r\n\r\n    function createMessageContent(string memory _xpath, string memory _op, int256 _content ) internal pure returns(MessageContent_Number memory){        \r\n        return MessageContent_Number(_xpath, _op, _content); \r\n    }\r\n\r\n    function evaluateNumberContent(MessageContent_Number memory msgContent, int256 _content) internal pure returns(bool){\r\n        bytes memory chars = bytes(msgContent.op);\r\n\r\n        if( chars[0] ==  0x21 ){// if chars[0] is '!'\r\n            return _content != msgContent.content;\r\n       \r\n        }else if( chars[0] == 0x3D ){ // if chars[0] is '='\r\n            return _content == msgContent.content;\r\n        \r\n        }else if( chars[0] == 0x3C ){// if chars[0] is '<'\r\n            if(chars.length == 2){// if chars is '<='                \r\n                return _content <= msgContent.content;               \r\n            }else{\r\n                return _content < msgContent.content;\r\n            }    \r\n        }else if( chars[0] == 0x3E ){ // if( chars[0] == 0x3E ){// if chars[0] is '>'\r\n             if(chars.length == 2){// if chars is '>='              \r\n                return _content >= msgContent.content;                \r\n            }else{               \r\n                return _content > msgContent.content;                \r\n            }\r\n        }\r\n        \r\n       \r\n        \r\n        require(false, \"Comparison symbol is not valid\");\r\n        return false;\r\n        // 0x21 : !\r\n        // 0x3D : =\r\n        // 0x3C : <\r\n        // 0x3E : >\r\n\r\n    }\r\n\r\n\r\n\r\n/* ========================================================================== */\r\n/*                           MESSAGE CONTENT  PER TIME                        */\r\n/* ========================================================================== */\r\n\r\n    struct MessageContent_Number_PerTime{\r\n        string xpath;\r\n        string op; // // the comparison operator (op) will receive only '<' or '<='\r\n        uint256 amount;\r\n        uint8 timeUnit;\r\n        uint32 byTime;        \r\n        uint256 rest;\r\n        uint32 endTime;\r\n        uint256 lastContent;\r\n    }\r\n    // function createMessageContent_NumberPerTime(\r\n    function createMessageContent(\r\n        string memory _xpath,\r\n        string memory _op, \r\n        uint256 _amount,\r\n        uint8 _timeUnit\r\n        )internal pure returns(MessageContent_Number_PerTime memory){\r\n\r\n        uint32 auxByTime;\r\n\r\n        if(_timeUnit <= WEEK){\r\n            // for value equal a week or less, will be used the time in seconds to increase the endTime \r\n            auxByTime= getTimeInSeconds(_timeUnit);\r\n        }else{\r\n            // for values equal to year or month will be used the unit 1 to increase the endTime \r\n            auxByTime = 1; \r\n        }\r\n\r\n        if(bytes(_op).length==1){\r\n            _op = \"<=\";\r\n            _amount = (_amount-1);\r\n        }\r\n\r\n        return MessageContent_Number_PerTime(_xpath, _op, _amount, _timeUnit, auxByTime, _amount, 0, 0);\r\n    }\r\n\r\n\r\n    // catch da value from message content and decrease from the amount\r\n    function evaluateNumberPerTime(\r\n        MessageContent_Number_PerTime storage msgContent_NumberPerTime,\r\n        uint32 _accessDateTime,\r\n        uint256 _content\r\n        )internal returns(bool) {\r\n            require(_content>0, \"The result of the xpath should be more than 0\");\r\n            if(isAccessDatetimeOutOfOldInterval(msgContent_NumberPerTime.timeUnit, msgContent_NumberPerTime.endTime, _accessDateTime)){\r\n               \r\n                msgContent_NumberPerTime.rest = msgContent_NumberPerTime.amount;\r\n               \r\n                msgContent_NumberPerTime.endTime = calcNextEndTime(\r\n                                                msgContent_NumberPerTime.byTime,\r\n                                                msgContent_NumberPerTime.timeUnit,\r\n                                                _accessDateTime\r\n                                                );\r\n            }\r\n            \r\n            // string memory revertMessage =  string(abi.encodePacked(\r\n            //     \"You have only \", uint2String(msgContent_NumberPerTime.rest), \r\n            //     \" from \", uint2String(msgContent_NumberPerTime.amount),\" resting, and the message contet xpath result is \", uint2String(_content)));\r\n            \r\n            // // the comparison operator (op) always will be  '<' or '<='            \r\n            // require(_content <= msgContent_NumberPerTime.rest, revertMessage);         \r\n            \r\n            if(_content <= msgContent_NumberPerTime.rest){\r\n                msgContent_NumberPerTime.lastContent = _content;\r\n                return true;\r\n            }else{\r\n                return false;\r\n            }\r\n           \r\n    }\r\n\r\n    function decreaseTheLastContentOfRestingAmount( MessageContent_Number_PerTime storage msgContent_NumberPerTime ) internal {        \r\n        require(msgContent_NumberPerTime.lastContent > 0, \"There in no content to decrease.\" );\r\n        require(msgContent_NumberPerTime.lastContent <= msgContent_NumberPerTime.rest, \"The message content number is greater than the remaining amount\");  \r\n        msgContent_NumberPerTime.rest -= msgContent_NumberPerTime.lastContent;\r\n        msgContent_NumberPerTime.lastContent = 0;\r\n    }\r\n\r\n    // function setNewEndTimeAndRestFromAmout(\r\n    //     MessageContent_NumberPerTime storage msgContent_NumberPerTime,\r\n    //     uint32 _accessDateTime\r\n    //     ) private {\r\n    //     msgContent_NumberPerTime.rest = msgContent_NumberPerTime.amount;\r\n    //     msgContent_NumberPerTime.endTime = calcNextEndTime(\r\n    //                                             msgContent_NumberPerTime.byTime,\r\n    //                                             msgContent_NumberPerTime.timeUnit,\r\n    //                                             _accessDateTime\r\n    //                                             );\r\n    // }\r\n\r\n\r\n/* ========================================================================== */\r\n/*                      SESSION INTERVAL SINGLE                     */\r\n/* ========================================================================== */\r\n    // the session interval accept only from SECOND to WEEK timeUnit\r\n    struct SessionInterval{\r\n        uint8 duration;\r\n        uint8 timeUnit;   \r\n        uint32 durationInSeconds;// durantionInSeconds is used only for timeUnit: second, minute, hour, day and week. For timeUnit month and year, this variable will be 0 (not used)\r\n        string xpath;\r\n        uint32 endTime;        \r\n    }\r\n\r\n    function createSessionInteval(uint8 _duration, uint8 _timeUnit, string memory _xpath)internal pure returns (SessionInterval memory){\r\n        uint32 _durationInSeconds = 0;\r\n        if(_timeUnit <= WEEK){\r\n            _durationInSeconds = getIntervalInSeconds(_duration, _timeUnit);\r\n        }\r\n        return SessionInterval(_duration, _timeUnit, _durationInSeconds, _xpath, 0);\r\n    }\r\n\r\n\r\n    // function createSessionInterval_Copy(SessionInterval memory _session) internal pure returns(SessionInterval memory){\r\n    //     return SessionInterval(_session.duration, _session.timeUnit, _session.durationInSeconds, _session.endTime);\r\n    // }\r\n\r\n\r\n    function sessionStatus(SessionInterval memory _session, uint32 _accessDateTime) internal  pure returns(uint){        \r\n        if ((_session.endTime == 0) || (_accessDateTime >= _session.endTime)){         \r\n            return CLOSED;\r\n        }        \r\n        return OPEN;        \r\n    }\r\n\r\n    // a new section will be create just if the end time is equal '0' or if the _accessDateTime was bigger than the current endTime\r\n    function startNewSessionInterval(SessionInterval storage _session, uint32 _accessDateTime)internal{       \r\n        if ((_session.endTime == 0) || (_accessDateTime >= _session.endTime)){         \r\n           _session.endTime = _accessDateTime + _session.durationInSeconds;\r\n        } \r\n        //  else {\r\n        //     require(false, \"This section is open\" );\r\n        // }             \r\n    }\r\n\r\n/* ========================================================================== */\r\n/*                                   UTILITIES                                */\r\n/* ========================================================================== */\r\n\r\n\r\n\r\n// --------- FUNCTIONS TO WORK WITH TIME AND DATES ---------\r\n   \r\n    // identificar se um novo periodo iniciou para redefinir a propriedade byTime e o rest.\r\n    function isAccessDatetimeOutOfOldInterval(uint8 _timeUnit, uint32 _endTime, \r\n        uint32 _accessDateTime\r\n        ) internal pure returns(bool) {\r\n        \r\n        uint8 timeUnit = _timeUnit;\r\n        if(timeUnit <= WEEK){\r\n            return _accessDateTime >= _endTime;\r\n        } else if(timeUnit == MONTH) {            \r\n            (,uint32 month,) = timeStampToDate(_accessDateTime);    \r\n            if((_endTime == 13) && (month==1)){\r\n                return true;\r\n            }        \r\n            return month >= _endTime;\r\n        }\r\n        // else timeUnit == YEAR \r\n        (uint32 year, ,) = timeStampToDate(_accessDateTime);\r\n        return year >= _endTime;\r\n    }\r\n\r\n    function calcNextEndTime(       \r\n        uint32 _timeInterval,\r\n        uint8 _timeUnit,\r\n        uint32 _accessDateTime\r\n        ) private pure returns(uint32){\r\n        \r\n        if (_timeUnit <= WEEK) {\r\n            return calcNextEndTimeForSecMinHrDayOrWeek(\r\n                _timeUnit, \r\n                _accessDateTime, \r\n                _timeInterval);\r\n        }else if(_timeUnit == MONTH){\r\n            (,uint currentMonth,) = timeStampToDate(_accessDateTime); \r\n             return uint32(currentMonth+1);\r\n        }else{      \r\n            (uint year,,) = timeStampToDate(_accessDateTime);\r\n            return uint32(year + 1);\r\n        }\r\n    }\r\n    \r\n    function calcNextEndTimeForSecMinHrDayOrWeek(\r\n        uint8 _timeUnit,\r\n        uint32 _accessDateTime,\r\n        uint32 _timeInterval\r\n        ) private pure returns (uint32){\r\n\r\n        uint32 mod =  uint32(_accessDateTime % _timeInterval);\r\n        uint32 timeToNextEndTime  = _timeInterval - mod;            \r\n        \r\n        if(_timeUnit == WEEK){\r\n            return _accessDateTime + timeToNextEndTime + OFFSETWEEK;\r\n        }\r\n\r\n        return _accessDateTime + timeToNextEndTime;\r\n    }\r\n\r\n    \r\n    function getTimeInSeconds(uint8 timeUnit) private pure returns(uint32){\r\n        // seconds, // minute // hour // day // week\r\n        require(timeUnit <= WEEK, \"The method getTimeInSeconds doesn't work for MONTH and YEAR\");\r\n\r\n        if(timeUnit == SECOND){\r\n            return 1;\r\n        }else if(timeUnit == MINUTE){\r\n            return 60;\r\n        }else if(timeUnit == HOUR ){\r\n            return 60*60;\r\n        }else if(timeUnit == DAY){\r\n            return 60*60*24;\r\n        }else {\r\n           return 60*60*24*7; //WEEK\r\n        }\r\n    }\r\n        \r\n    function getIntervalInSeconds(uint32 _duration, uint8 _timeUnit)internal pure returns(uint32){\r\n       uint32 timeUnitInSeconds =  getTimeInSeconds(_timeUnit);\r\n       return _duration * timeUnitInSeconds;\r\n    }\r\n\r\n    function timeStampToDate(uint _timestamp) internal pure returns (uint32 year, uint32 month, uint32 day) {\r\n       \r\n        uint32 __days = uint32(_timestamp / SECONDS_PER_DAY);\r\n\r\n        uint32 L = __days + 68569 + OFFSET19700101;\r\n        uint32 N = 4 * L / 146097;\r\n        L = L - (146097 * N + 3) / 4;\r\n        uint32 _year = 4000 * (L + 1) / 1461001;\r\n        L = L - 1461 * _year / 4 + 31;\r\n        uint32 _month = 80 * L / 2447;\r\n        uint32 _day = L - 2447 * _month / 80;\r\n        L = _month / 11;\r\n        _month = _month + 2 - 12 * L;\r\n        _year = 100 * (N - 49) + _year + L;\r\n\r\n        year = uint32(_year);\r\n        month = uint32(_month);\r\n        day = uint32(_day);\r\n    }\r\n\r\n\r\n\r\n// --------- FUNCTIONS DO MANIPULATE STRINGS AND CONVERT STRING->INT AND INT->STRING ---------\r\n\r\n    // function getSubstring(string memory _str, uint _left, uint _right)internal pure returns(string memory){\r\n    //     string memory subStr;\r\n    //     for(uint i=_left; i<=_right; i++){\r\n    //         subStr = string(abi.encodePacked(subStr, bytes(_str)[i]));\r\n    //     }\r\n    //     return subStr;\r\n    // }\r\n\r\n    function isNumber(string memory str) public pure returns(bool){\r\n        bytes1 char = bytes(str)[0];\r\n        return (char >= 0x30 && char <= 0x39);//9-0\r\n    }\r\n    \r\n    // function isStr(string str) public pure returns (bool){\r\n    //     bytes1 char = bytes(str)[0];\r\n\r\n    //     return !(char >= 0x30 && char <= 0x39);// !(9-0)\r\n    //     // (char >= 0x41 && char <= 0x5A) | //A-Z\r\n    //     // (char >= 0x61 && char <= 0x7A) |  //a-z\r\n    //     // !(char == 0x2E) //.\r\n    // }\r\n    \r\n    function stringToUint(string memory _s) internal pure returns (uint, bool) { // testado e funcionado\r\n        bool hasError = false;\r\n        bytes memory b =  bytes(_s);\r\n        uint256 result = 0;\r\n        uint256 oldResult = 0;\r\n        for (uint i = 0; i < b.length; i++) { // c = b[i] was not needed\r\n            if (uint8(bytes(b)[i]) >= 48 && uint8(bytes(b)[i]) <= 57) {\r\n                // store old value so we can check for overflows\r\n                oldResult = result;\r\n                result = result * 10 + (uint8(b[i]) - 48); // bytes and int are not compatible with the operator -.\r\n                // prevent overflows\r\n                if(oldResult > result ) {\r\n                    // we can only get here if the result overflowed and is smaller than last stored value\r\n                    hasError = true;\r\n                }\r\n            } else {\r\n                hasError = true;\r\n            }\r\n        }\r\n        return (result, hasError); \r\n    }\r\n    //  The uint2str function is commented because it is possibly duplicated, if no error occurs it will be deleted\r\n    //  function uint2Str(uint _i) internal pure returns (string memory _uintAsString) {\r\n    //     if (_i == 0) {\r\n    //         return \"0\";\r\n    //     }\r\n    //     uint256 j = _i;\r\n    //     uint256 len;\r\n    //     while (j != 0) {\r\n    //         len++;\r\n    //         j /= 10;\r\n    //     }\r\n    //     bytes memory bstr = new bytes(len);\r\n    //     uint k = len - 1;\r\n    //     while (_i != 0) {\r\n    //         bstr[k--] = bytes1(uint8(48 + _i % 10));\r\n    //         _i /= 10;\r\n    //     }\r\n    //     return string(bstr);\r\n    // }\r\n\r\n    function uint2String(uint256 value) internal pure returns (string memory) {\r\n        \r\n        if (value == 0) {\r\n            return \"0\";\r\n        }\r\n        uint256 temp = value;\r\n        uint256 digits;\r\n        while (temp != 0) {\r\n            digits++;\r\n            temp /= 10;\r\n        }\r\n        bytes memory buffer = new bytes(digits);\r\n        while (value != 0) {\r\n            digits -= 1;\r\n            buffer[digits] = bytes1(uint8(48 + uint256(value % 10)));\r\n            value /= 10;\r\n        }\r\n        return string(buffer);\r\n    }\r\n\r\n\r\n\r\n}",
  "sourcePath": "C:\\git-repository\\dsl-smart-contract-eai\\02-models\\002-ProofOfConcept\\contracts\\lib\\eai\\EAI.sol",
  "compiler": {
    "name": "solc",
    "version": "0.8.13+commit.abaa5c0e.Emscripten.clang"
  },
  "schemaVersion": "3.4.13",
  "updatedAt": "2023-04-24T14:54:17.039Z",
  "devdoc": {
    "kind": "dev",
    "methods": {},
    "version": 1
  },
  "userdoc": {
    "kind": "user",
    "methods": {},
    "version": 1
  }
}