{
  "contractName": "MaxNumberOfOperationByTime_refCod",
  "abi": [
    {
      "inputs": [],
      "stateMutability": "nonpayable",
      "type": "constructor"
    },
    {
      "inputs": [
        {
          "internalType": "uint8",
          "name": "timeUnit",
          "type": "uint8"
        },
        {
          "internalType": "uint32",
          "name": "_accessTime",
          "type": "uint32"
        }
      ],
      "name": "decreaseOperation",
      "outputs": [],
      "stateMutability": "nonpayable",
      "type": "function"
    },
    {
      "inputs": [
        {
          "internalType": "uint256",
          "name": "_id",
          "type": "uint256"
        }
      ],
      "name": "getMaxOpByTime",
      "outputs": [
        {
          "components": [
            {
              "internalType": "uint32",
              "name": "amount",
              "type": "uint32"
            },
            {
              "internalType": "uint8",
              "name": "timeUnit",
              "type": "uint8"
            },
            {
              "internalType": "uint32",
              "name": "byTime",
              "type": "uint32"
            },
            {
              "internalType": "uint32",
              "name": "rest",
              "type": "uint32"
            },
            {
              "internalType": "uint32",
              "name": "endTime",
              "type": "uint32"
            }
          ],
          "internalType": "struct EAI.MaxNumberOfOperationByTime",
          "name": "",
          "type": "tuple"
        }
      ],
      "stateMutability": "view",
      "type": "function"
    },
    {
      "inputs": [
        {
          "internalType": "uint256",
          "name": "_timestamp",
          "type": "uint256"
        }
      ],
      "name": "testTimestampToDate",
      "outputs": [
        {
          "internalType": "uint32",
          "name": "year",
          "type": "uint32"
        },
        {
          "internalType": "uint32",
          "name": "month",
          "type": "uint32"
        },
        {
          "internalType": "uint32",
          "name": "day",
          "type": "uint32"
        }
      ],
      "stateMutability": "pure",
      "type": "function"
    },
    {
      "inputs": [],
      "name": "getAllMaxOpByTime",
      "outputs": [
        {
          "components": [
            {
              "internalType": "uint32",
              "name": "amount",
              "type": "uint32"
            },
            {
              "internalType": "uint8",
              "name": "timeUnit",
              "type": "uint8"
            },
            {
              "internalType": "uint32",
              "name": "byTime",
              "type": "uint32"
            },
            {
              "internalType": "uint32",
              "name": "rest",
              "type": "uint32"
            },
            {
              "internalType": "uint32",
              "name": "endTime",
              "type": "uint32"
            }
          ],
          "internalType": "struct EAI.MaxNumberOfOperationByTime[]",
          "name": "",
          "type": "tuple[]"
        }
      ],
      "stateMutability": "view",
      "type": "function"
    }
  ],
  "bytecode": "0x60806040523480156200001157600080fd5b5060006200002d600260006200071060201b620004e61760201c565b9080600181540180825580915050600190039060005260206000200160009091909190915060008201518160000160006101000a81548163ffffffff021916908363ffffffff16021790555060208201518160000160046101000a81548160ff021916908360ff16021790555060408201518160000160056101000a81548163ffffffff021916908363ffffffff16021790555060608201518160000160096101000a81548163ffffffff021916908363ffffffff160217905550608082015181600001600d6101000a81548163ffffffff021916908363ffffffff160217905550505060006200012c600260016200071060201b620004e61760201c565b9080600181540180825580915050600190039060005260206000200160009091909190915060008201518160000160006101000a81548163ffffffff021916908363ffffffff16021790555060208201518160000160046101000a81548160ff021916908360ff16021790555060408201518160000160056101000a81548163ffffffff021916908363ffffffff16021790555060608201518160000160096101000a81548163ffffffff021916908363ffffffff160217905550608082015181600001600d6101000a81548163ffffffff021916908363ffffffff160217905550505060006200022a6002806200071060201b620004e61760201c565b9080600181540180825580915050600190039060005260206000200160009091909190915060008201518160000160006101000a81548163ffffffff021916908363ffffffff16021790555060208201518160000160046101000a81548160ff021916908360ff16021790555060408201518160000160056101000a81548163ffffffff021916908363ffffffff16021790555060608201518160000160096101000a81548163ffffffff021916908363ffffffff160217905550608082015181600001600d6101000a81548163ffffffff021916908363ffffffff1602179055505050600062000329600260036200071060201b620004e61760201c565b9080600181540180825580915050600190039060005260206000200160009091909190915060008201518160000160006101000a81548163ffffffff021916908363ffffffff16021790555060208201518160000160046101000a81548160ff021916908360ff16021790555060408201518160000160056101000a81548163ffffffff021916908363ffffffff16021790555060608201518160000160096101000a81548163ffffffff021916908363ffffffff160217905550608082015181600001600d6101000a81548163ffffffff021916908363ffffffff1602179055505050600062000428600260046200071060201b620004e61760201c565b9080600181540180825580915050600190039060005260206000200160009091909190915060008201518160000160006101000a81548163ffffffff021916908363ffffffff16021790555060208201518160000160046101000a81548160ff021916908360ff16021790555060408201518160000160056101000a81548163ffffffff021916908363ffffffff16021790555060608201518160000160096101000a81548163ffffffff021916908363ffffffff160217905550608082015181600001600d6101000a81548163ffffffff021916908363ffffffff1602179055505050600062000527600260056200071060201b620004e61760201c565b9080600181540180825580915050600190039060005260206000200160009091909190915060008201518160000160006101000a81548163ffffffff021916908363ffffffff16021790555060208201518160000160046101000a81548160ff021916908360ff16021790555060408201518160000160056101000a81548163ffffffff021916908363ffffffff16021790555060608201518160000160096101000a81548163ffffffff021916908363ffffffff160217905550608082015181600001600d6101000a81548163ffffffff021916908363ffffffff1602179055505050600062000626600260066200071060201b620004e61760201c565b9080600181540180825580915050600190039060005260206000200160009091909190915060008201518160000160006101000a81548163ffffffff021916908363ffffffff16021790555060208201518160000160046101000a81548160ff021916908360ff16021790555060408201518160000160056101000a81548163ffffffff021916908363ffffffff16021790555060608201518160000160096101000a81548163ffffffff021916908363ffffffff160217905550608082015181600001600d6101000a81548163ffffffff021916908363ffffffff16021790555050506200094a565b6200071a62000857565b6000600460ff168360ff161162000744576200073c836200079560201b60201c565b905062000749565b600190505b6040518060a001604052808563ffffffff1681526020018460ff1681526020018263ffffffff1681526020018563ffffffff168152602001600063ffffffff1681525091505092915050565b6000600460ff168260ff161115620007e4576040517f08c379a0000000000000000000000000000000000000000000000000000000008152600401620007db9062000928565b60405180910390fd5b600060ff168260ff1603620007fd576001905062000852565b600160ff168260ff16036200081657603c905062000852565b600260ff168260ff16036200083057610e10905062000852565b600360ff168260ff16036200084b5762015180905062000852565b62093a8090505b919050565b6040518060a00160405280600063ffffffff168152602001600060ff168152602001600063ffffffff168152602001600063ffffffff168152602001600063ffffffff1681525090565b600082825260208201905092915050565b7f546865206d6574686f642067657454696d65496e5365636f6e647320646f657360008201527f6e277420776f726b20666f72204d4f4e544820616e6420594541520000000000602082015250565b600062000910603b83620008a1565b91506200091d82620008b2565b604082019050919050565b60006020820190508181036000830152620009438162000901565b9050919050565b611169806200095a6000396000f3fe608060405234801561001057600080fd5b506004361061004c5760003560e01c806337348e3c1461005157806361eab3091461006f5780638e893d53146100a1578063da7d9cdf146100d1575b600080fd5b6100596100ed565b6040516100669190610c83565b60405180910390f35b61008960048036038101906100849190610ce0565b6101fd565b60405161009893929190610d1c565b60405180910390f35b6100bb60048036038101906100b69190610ce0565b610218565b6040516100c89190610dbb565b60405180910390f35b6100eb60048036038101906100e69190610e2e565b610305565b005b60606000805480602002602001604051908101604052809291908181526020016000905b828210156101f4578382906000526020600020016040518060a00160405290816000820160009054906101000a900463ffffffff1663ffffffff1663ffffffff1681526020016000820160049054906101000a900460ff1660ff1660ff1681526020016000820160059054906101000a900463ffffffff1663ffffffff1663ffffffff1681526020016000820160099054906101000a900463ffffffff1663ffffffff1663ffffffff16815260200160008201600d9054906101000a900463ffffffff1663ffffffff1663ffffffff168152505081526020019060010190610111565b50505050905090565b600080600061020b8461055f565b9250925092509193909250565b610220610ae7565b6000828154811061023457610233610e6e565b5b906000526020600020016040518060a00160405290816000820160009054906101000a900463ffffffff1663ffffffff1663ffffffff1681526020016000820160049054906101000a900460ff1660ff1660ff1681526020016000820160059054906101000a900463ffffffff1663ffffffff1663ffffffff1681526020016000820160099054906101000a900463ffffffff1663ffffffff1663ffffffff16815260200160008201600d9054906101000a900463ffffffff1663ffffffff1663ffffffff16815250509050919050565b600060ff168260ff160361034857610343816000808154811061032b5761032a610e6e565b5b9060005260206000200161071290919063ffffffff16565b6104e2565b600160ff168260ff160361038c5761038781600060018154811061036f5761036e610e6e565b5b9060005260206000200161071290919063ffffffff16565b6104e1565b600260ff168260ff16036103d0576103cb8160006002815481106103b3576103b2610e6e565b5b9060005260206000200161071290919063ffffffff16565b6104e0565b600360ff168260ff16036104145761040f8160006003815481106103f7576103f6610e6e565b5b9060005260206000200161071290919063ffffffff16565b6104df565b600460ff168260ff16036104585761045381600060048154811061043b5761043a610e6e565b5b9060005260206000200161071290919063ffffffff16565b6104de565b600560ff168260ff160361049c5761049781600060058154811061047f5761047e610e6e565b5b9060005260206000200161071290919063ffffffff16565b6104dd565b600660ff168260ff16036104dc576104db8160006006815481106104c3576104c2610e6e565b5b9060005260206000200161071290919063ffffffff16565b5b5b5b5b5b5b5b5050565b6104ee610ae7565b6000600460ff168360ff161161050e5761050783610768565b9050610513565b600190505b6040518060a001604052808563ffffffff1681526020018460ff1681526020018263ffffffff1681526020018563ffffffff168152602001600063ffffffff1681525091505092915050565b6000806000806201518063ffffffff168561057a9190610efb565b9050600062253d8c62010bd9836105919190610f2c565b61059b9190610f2c565b9050600062023ab18260046105b09190610f66565b6105ba9190610fa4565b9050600460038262023ab16105cf9190610f66565b6105d99190610f2c565b6105e39190610fa4565b826105ee9190610fd5565b9150600062164b096001846106039190610f2c565b610fa06106109190610f66565b61061a9190610fa4565b9050601f6004826105b561062e9190610f66565b6106389190610fa4565b846106439190610fd5565b61064d9190610f2c565b9250600061098f8460506106619190610f66565b61066b9190610fa4565b9050600060508261098f61067f9190610f66565b6106899190610fa4565b856106949190610fd5565b9050600b826106a39190610fa4565b945084600c6106b29190610f66565b6002836106bf9190610f2c565b6106c99190610fd5565b915084836031866106da9190610fd5565b60646106e69190610f66565b6106f09190610f2c565b6106fa9190610f2c565b92508298508197508096505050505050509193909250565b61071c828261081f565b156107645760018260000160098282829054906101000a900463ffffffff166107459190610fd5565b92506101000a81548163ffffffff021916908363ffffffff1602179055505b5050565b6000600460ff168260ff1611156107b4576040517f08c379a00000000000000000000000000000000000000000000000000000000081526004016107ab9061108c565b60405180910390fd5b600060ff168260ff16036107cb576001905061081a565b600160ff168260ff16036107e257603c905061081a565b600260ff168260ff16036107fa57610e10905061081a565b600360ff168260ff16036108135762015180905061081a565b62093a8090505b919050565b60006108518360000160049054906101000a900460ff1684600001600d9054906101000a900463ffffffff1684610898565b1561086157610860838361095d565b5b60008360000160099054906101000a900463ffffffff1663ffffffff16111561088d5760019050610892565b600090505b92915050565b600080849050600460ff168160ff16116108c4578363ffffffff168363ffffffff161015915050610956565b600560ff168160ff160361092c5760006108e38463ffffffff1661055f565b50915050600d8563ffffffff16148015610903575060018163ffffffff16145b1561091357600192505050610956565b8463ffffffff168163ffffffff16101592505050610956565b600061093d8463ffffffff1661055f565b505090508463ffffffff168163ffffffff161015925050505b9392505050565b8160000160009054906101000a900463ffffffff168260000160096101000a81548163ffffffff021916908363ffffffff1602179055506109c48260000160059054906101000a900463ffffffff168360000160049054906101000a900460ff16836109ea565b82600001600d6101000a81548163ffffffff021916908363ffffffff1602179055505050565b6000600460ff168360ff1611610a0c57610a05838386610a7d565b9050610a76565b600560ff168360ff1603610a4a576000610a2b8363ffffffff1661055f565b5063ffffffff16915050600181610a4291906110ac565b915050610a76565b6000610a5b8363ffffffff1661055f565b505063ffffffff169050600181610a7291906110ac565b9150505b9392505050565b6000808284610a8c9190611102565b905060008184610a9c9190610fd5565b9050600460ff168660ff1603610acf576203f4808186610abc9190610f2c565b610ac69190610f2c565b92505050610ae0565b8085610adb9190610f2c565b925050505b9392505050565b6040518060a00160405280600063ffffffff168152602001600060ff168152602001600063ffffffff168152602001600063ffffffff168152602001600063ffffffff1681525090565b600081519050919050565b600082825260208201905092915050565b6000819050602082019050919050565b600063ffffffff82169050919050565b610b7681610b5d565b82525050565b600060ff82169050919050565b610b9281610b7c565b82525050565b60a082016000820151610bae6000850182610b6d565b506020820151610bc16020850182610b89565b506040820151610bd46040850182610b6d565b506060820151610be76060850182610b6d565b506080820151610bfa6080850182610b6d565b50505050565b6000610c0c8383610b98565b60a08301905092915050565b6000602082019050919050565b6000610c3082610b31565b610c3a8185610b3c565b9350610c4583610b4d565b8060005b83811015610c76578151610c5d8882610c00565b9750610c6883610c18565b925050600181019050610c49565b5085935050505092915050565b60006020820190508181036000830152610c9d8184610c25565b905092915050565b600080fd5b6000819050919050565b610cbd81610caa565b8114610cc857600080fd5b50565b600081359050610cda81610cb4565b92915050565b600060208284031215610cf657610cf5610ca5565b5b6000610d0484828501610ccb565b91505092915050565b610d1681610b5d565b82525050565b6000606082019050610d316000830186610d0d565b610d3e6020830185610d0d565b610d4b6040830184610d0d565b949350505050565b60a082016000820151610d696000850182610b6d565b506020820151610d7c6020850182610b89565b506040820151610d8f6040850182610b6d565b506060820151610da26060850182610b6d565b506080820151610db56080850182610b6d565b50505050565b600060a082019050610dd06000830184610d53565b92915050565b610ddf81610b7c565b8114610dea57600080fd5b50565b600081359050610dfc81610dd6565b92915050565b610e0b81610b5d565b8114610e1657600080fd5b50565b600081359050610e2881610e02565b92915050565b60008060408385031215610e4557610e44610ca5565b5b6000610e5385828601610ded565b9250506020610e6485828601610e19565b9150509250929050565b7f4e487b7100000000000000000000000000000000000000000000000000000000600052603260045260246000fd5b7f4e487b7100000000000000000000000000000000000000000000000000000000600052601260045260246000fd5b7f4e487b7100000000000000000000000000000000000000000000000000000000600052601160045260246000fd5b6000610f0682610caa565b9150610f1183610caa565b925082610f2157610f20610e9d565b5b828204905092915050565b6000610f3782610b5d565b9150610f4283610b5d565b92508263ffffffff03821115610f5b57610f5a610ecc565b5b828201905092915050565b6000610f7182610b5d565b9150610f7c83610b5d565b92508163ffffffff0483118215151615610f9957610f98610ecc565b5b828202905092915050565b6000610faf82610b5d565b9150610fba83610b5d565b925082610fca57610fc9610e9d565b5b828204905092915050565b6000610fe082610b5d565b9150610feb83610b5d565b925082821015610ffe57610ffd610ecc565b5b828203905092915050565b600082825260208201905092915050565b7f546865206d6574686f642067657454696d65496e5365636f6e647320646f657360008201527f6e277420776f726b20666f72204d4f4e544820616e6420594541520000000000602082015250565b6000611076603b83611009565b91506110818261101a565b604082019050919050565b600060208201905081810360008301526110a581611069565b9050919050565b60006110b782610caa565b91506110c283610caa565b9250827fffffffffffffffffffffffffffffffffffffffffffffffffffffffffffffffff038211156110f7576110f6610ecc565b5b828201905092915050565b600061110d82610b5d565b915061111883610b5d565b92508261112857611127610e9d565b5b82820690509291505056fea2646970667358221220582f0590be7b878a3c316fadb95bb64faffd94dae9f9fd89f24ec0a04a3a091664736f6c634300080d0033",
  "immutableReferences": {},
  "source": "// SPDX-License-Identifier: MIT\r\npragma solidity >0.8.4 < 0.8.14;\r\nimport \"../eai/EAI.sol\";\r\n\r\ncontract MaxNumberOfOperationByTime_refCod{   \r\n\r\nusing EAI for EAI.MaxNumberOfOperationByTime;\r\n\r\nEAI.MaxNumberOfOperationByTime[] maxOp;\r\n\r\n    constructor (){\r\n        maxOp.push( EAI.createMaxNumberOfOperationByTime(2, EAI.SECOND));\r\n        maxOp.push( EAI.createMaxNumberOfOperationByTime(2, EAI.MINUTE));\r\n        maxOp.push( EAI.createMaxNumberOfOperationByTime(2, EAI.HOUR));\r\n        maxOp.push( EAI.createMaxNumberOfOperationByTime(2, EAI.DAY));\r\n        maxOp.push( EAI.createMaxNumberOfOperationByTime(2, EAI.WEEK));\r\n        maxOp.push( EAI.createMaxNumberOfOperationByTime(2, EAI.MONTH));\r\n        maxOp.push( EAI.createMaxNumberOfOperationByTime(2, EAI.YEAR));\r\n    }\r\n\r\n    function decreaseOperation(uint8 timeUnit, uint32 _accessTime)public {\r\n        if(timeUnit == EAI.SECOND){\r\n            maxOp[0].decreaseOneOperation_ByTime(_accessTime);\r\n        }else if(timeUnit == EAI.MINUTE){\r\n            maxOp[1].decreaseOneOperation_ByTime(_accessTime);\r\n        }else if(timeUnit == EAI.HOUR ){\r\n            maxOp[2].decreaseOneOperation_ByTime(_accessTime);\r\n        }else if(timeUnit == EAI.DAY){\r\n            maxOp[3].decreaseOneOperation_ByTime(_accessTime);            \r\n        }else if(timeUnit == EAI.WEEK){\r\n            maxOp[4].decreaseOneOperation_ByTime(_accessTime);\r\n        }else if(timeUnit == EAI.MONTH){\r\n            maxOp[5].decreaseOneOperation_ByTime(_accessTime);\r\n        }else if(timeUnit == EAI.YEAR ){\r\n            maxOp[6].decreaseOneOperation_ByTime(_accessTime);\r\n        }\r\n    }\r\n\r\n    function getMaxOpByTime(uint _id) public view returns(EAI.MaxNumberOfOperationByTime memory){\r\n        return maxOp[_id];\r\n    }\r\n\r\n    function testTimestampToDate(uint _timestamp)public pure returns(uint32 year, uint32 month, uint32 day){\r\n        return EAI.timeStampToDate(_timestamp);\r\n    }\r\n\r\n    function getAllMaxOpByTime() public view returns(EAI.MaxNumberOfOperationByTime[] memory){\r\n        return maxOp;\r\n    }\r\n    \r\n}",
  "sourcePath": "C:\\git-repository\\dsl-smart-contract-eai\\02-models\\002-ProofOfConcept\\contracts\\lib\\referencesCode-eai\\006_MaxNumberOfOperationByTime_refCod.sol",
  "compiler": {
    "name": "solc",
    "version": "0.8.13+commit.abaa5c0e.Emscripten.clang"
  },
  "schemaVersion": "3.4.13",
  "updatedAt": "2023-04-24T14:54:17.111Z",
  "devdoc": {
    "kind": "dev",
    "methods": {},
    "version": 1
  },
  "userdoc": {
    "kind": "user",
    "methods": {},
    "version": 1
  }
}