{
  "contractName": "Orcid",
  "abi": [
    {
      "inputs": [
        {
          "internalType": "address",
          "name": "_applicationWallet",
          "type": "address"
        }
      ],
      "stateMutability": "nonpayable",
      "type": "constructor"
    },
    {
      "anonymous": false,
      "inputs": [
        {
          "indexed": false,
          "internalType": "string",
          "name": "_logMessage",
          "type": "string"
        }
      ],
      "name": "failEvent",
      "type": "event"
    },
    {
      "anonymous": false,
      "inputs": [
        {
          "indexed": false,
          "internalType": "string",
          "name": "_logMessage",
          "type": "string"
        }
      ],
      "name": "successEvent",
      "type": "event"
    },
    {
      "inputs": [
        {
          "internalType": "uint8",
          "name": "_weekDay",
          "type": "uint8"
        },
        {
          "internalType": "uint32",
          "name": "_accessTime",
          "type": "uint32"
        },
        {
          "internalType": "uint32",
          "name": "_accessDateTime",
          "type": "uint32"
        }
      ],
      "name": "right_requestAllWorks",
      "outputs": [
        {
          "internalType": "bool",
          "name": "",
          "type": "bool"
        }
      ],
      "stateMutability": "nonpayable",
      "type": "function"
    },
    {
      "inputs": [
        {
          "internalType": "uint32",
          "name": "_accessDateTime",
          "type": "uint32"
        },
        {
          "internalType": "bool[]",
          "name": "_resultFromXpath",
          "type": "bool[]"
        }
      ],
      "name": "obligation_responseWorks",
      "outputs": [
        {
          "internalType": "bool",
          "name": "",
          "type": "bool"
        }
      ],
      "stateMutability": "nonpayable",
      "type": "function"
    },
    {
      "inputs": [],
      "name": "signContract",
      "outputs": [
        {
          "internalType": "bool",
          "name": "",
          "type": "bool"
        }
      ],
      "stateMutability": "nonpayable",
      "type": "function"
    },
    {
      "inputs": [
        {
          "internalType": "string",
          "name": "_name",
          "type": "string"
        },
        {
          "internalType": "address",
          "name": "_walletAddress",
          "type": "address"
        }
      ],
      "name": "changeApplicationParty",
      "outputs": [
        {
          "internalType": "bool",
          "name": "",
          "type": "bool"
        }
      ],
      "stateMutability": "nonpayable",
      "type": "function"
    },
    {
      "inputs": [],
      "name": "getProcessAddress",
      "outputs": [
        {
          "internalType": "address",
          "name": "",
          "type": "address"
        }
      ],
      "stateMutability": "view",
      "type": "function"
    },
    {
      "inputs": [],
      "name": "getApplicationAddress",
      "outputs": [
        {
          "internalType": "address",
          "name": "",
          "type": "address"
        }
      ],
      "stateMutability": "view",
      "type": "function"
    },
    {
      "inputs": [
        {
          "internalType": "address",
          "name": "_walletAddress",
          "type": "address"
        }
      ],
      "name": "getParty",
      "outputs": [
        {
          "components": [
            {
              "internalType": "string",
              "name": "name",
              "type": "string"
            },
            {
              "internalType": "address",
              "name": "walletAddress",
              "type": "address"
            },
            {
              "internalType": "bool",
              "name": "aware",
              "type": "bool"
            }
          ],
          "internalType": "struct EAI.Party",
          "name": "",
          "type": "tuple"
        }
      ],
      "stateMutability": "view",
      "type": "function"
    }
  ],
  "bytecode": "0x60806040523480156200001157600080fd5b5060405162003ea938038062003ea9833981810160405281019062000037919062000e02565b60016000806101000a81548160ff0219169083151502179055506363b13d80600060016101000a81548163ffffffff021916908363ffffffff1602179055506367733400600060056101000a81548163ffffffff021916908363ffffffff160217905550620000e96040518060400160405280600981526020017f4f726369642041504900000000000000000000000000000000000000000000008152508260006200076660201b62000f6c1760201c565b600160008201518160000190805190602001906200010992919062000b4e565b5060208201518160010160006101000a81548173ffffffffffffffffffffffffffffffffffffffff021916908373ffffffffffffffffffffffffffffffffffffffff16021790555060408201518160010160146101000a81548160ff021916908315150217905550905050620001c26040518060400160405280601381526020017f496e746567726174696f6e2050726f63657373000000000000000000000000008152503360016200076660201b62000f6c1760201c565b60036000820151816000019080519060200190620001e292919062000b4e565b5060208201518160010160006101000a81548173ffffffffffffffffffffffffffffffffffffffff021916908373ffffffffffffffffffffffffffffffffffffffff16021790555060408201518160010160146101000a81548160ff0219169083151502179055509050506003600560003373ffffffffffffffffffffffffffffffffffffffff1673ffffffffffffffffffffffffffffffffffffffff1681526020019081526020016000206000820181600001908054620002a49062000e63565b620002b192919062000bdf565b506001820160009054906101000a900473ffffffffffffffffffffffffffffffffffffffff168160010160006101000a81548173ffffffffffffffffffffffffffffffffffffffff021916908373ffffffffffffffffffffffffffffffffffffffff1602179055506001820160149054906101000a900460ff168160010160146101000a81548160ff0219169083151502179055509050506001600560008373ffffffffffffffffffffffffffffffffffffffff1673ffffffffffffffffffffffffffffffffffffffff1681526020019081526020016000206000820181600001908054620003a09062000e63565b620003ad92919062000bdf565b506001820160009054906101000a900473ffffffffffffffffffffffffffffffffffffffff168160010160006101000a81548173ffffffffffffffffffffffffffffffffffffffff021916908373ffffffffffffffffffffffffffffffffffffffff1602179055506001820160149054906101000a900460ff168160010160146101000a81548160ff02191690831515021790555090505060066200046060006006620007ac60201b62000fb01760201c565b9080600181540180825580915050600190039060005260206000200160009091909190915060008201518160000160006101000a81548160ff021916908360ff16021790555060208201518160000160016101000a81548160ff021916908360ff16021790555050506007620004e660006201517f6200089f60201b620010991760201c565b9080600181540180825580915050600190039060005260206000200160009091909190915060008201518160000160006101000a81548163ffffffff021916908363ffffffff16021790555060208201518160000160046101000a81548163ffffffff021916908363ffffffff160217905550505060086200057660186000620009b460201b620011a41760201c565b9080600181540180825580915050600190039060005260206000200160009091909190915060008201518160000160006101000a81548163ffffffff021916908363ffffffff16021790555060208201518160000160046101000a81548160ff021916908360ff16021790555060408201518160000160056101000a81548163ffffffff021916908363ffffffff16021790555060608201518160000160096101000a81548163ffffffff021916908363ffffffff160217905550608082015181600001600d6101000a81548163ffffffff021916908363ffffffff1602179055505050600962000673603c62000a3960201b6200121d1760201c565b9080600181540180825580915050600190039060005260206000200160009091909190915060008201518160000160006101000a81548163ffffffff021916908363ffffffff16021790555060208201518160000160046101000a81548163ffffffff021916908363ffffffff1602179055505050600a6200071960405180608001604052806041815260200162003e686041913962000a6c60201b6200124e1760201c565b9080600181540180825580915050600190039060005260206000200160009091909190915060008201518160000190805190602001906200075c92919062000b4e565b5050505062001071565b6200077062000c77565b60405180606001604052808581526020018473ffffffffffffffffffffffffffffffffffffffff16815260200183151581525090509392505050565b620007b662000cb0565b8282600060ff168260ff1610158015620007d75750600660ff168260ff1611155b62000819576040517f08c379a0000000000000000000000000000000000000000000000000000000008152600401620008109062000f1f565b60405180910390fd5b600060ff168160ff1610158015620008385750600660ff168160ff1611155b6200087a576040517f08c379a0000000000000000000000000000000000000000000000000000000008152600401620008719062000fb7565b60405180910390fd5b60405180604001604052808660ff1681526020018560ff168152509250505092915050565b620008a962000cd0565b8282600063ffffffff168263ffffffff1610158015620008d857506201517f63ffffffff168263ffffffff1611155b6200091a576040517f08c379a0000000000000000000000000000000000000000000000000000000008152600401620009119062000f1f565b60405180910390fd5b600063ffffffff168163ffffffff16101580156200094757506201517f63ffffffff168163ffffffff1611155b62000989576040517f08c379a0000000000000000000000000000000000000000000000000000000008152600401620009809062000fb7565b60405180910390fd5b60405180604001604052808663ffffffff1681526020018563ffffffff168152509250505092915050565b620009be62000cf6565b6000600460ff168360ff1611620009e857620009e08362000a8c60201b60201c565b9050620009ed565b600190505b6040518060a001604052808563ffffffff1681526020018460ff1681526020018263ffffffff1681526020018563ffffffff168152602001600063ffffffff1681525091505092915050565b62000a4362000d40565b6040518060400160405280600063ffffffff1681526020018363ffffffff168152509050919050565b62000a7662000d66565b6040518060200160405280838152509050919050565b6000600460ff168260ff16111562000adb576040517f08c379a000000000000000000000000000000000000000000000000000000000815260040162000ad2906200104f565b60405180910390fd5b600060ff168260ff160362000af4576001905062000b49565b600160ff168260ff160362000b0d57603c905062000b49565b600260ff168260ff160362000b2757610e10905062000b49565b600360ff168260ff160362000b425762015180905062000b49565b62093a8090505b919050565b82805462000b5c9062000e63565b90600052602060002090601f01602090048101928262000b80576000855562000bcc565b82601f1062000b9b57805160ff191683800117855562000bcc565b8280016001018555821562000bcc579182015b8281111562000bcb57825182559160200191906001019062000bae565b5b50905062000bdb919062000d79565b5090565b82805462000bed9062000e63565b90600052602060002090601f01602090048101928262000c11576000855562000c64565b82601f1062000c24578054855562000c64565b8280016001018555821562000c6457600052602060002091601f016020900482015b8281111562000c6357825482559160010191906001019062000c46565b5b50905062000c73919062000d79565b5090565b604051806060016040528060608152602001600073ffffffffffffffffffffffffffffffffffffffff1681526020016000151581525090565b6040518060400160405280600060ff168152602001600060ff1681525090565b6040518060400160405280600063ffffffff168152602001600063ffffffff1681525090565b6040518060a00160405280600063ffffffff168152602001600060ff168152602001600063ffffffff168152602001600063ffffffff168152602001600063ffffffff1681525090565b6040518060400160405280600063ffffffff168152602001600063ffffffff1681525090565b6040518060200160405280606081525090565b5b8082111562000d9457600081600090555060010162000d7a565b5090565b600080fd5b600073ffffffffffffffffffffffffffffffffffffffff82169050919050565b600062000dca8262000d9d565b9050919050565b62000ddc8162000dbd565b811462000de857600080fd5b50565b60008151905062000dfc8162000dd1565b92915050565b60006020828403121562000e1b5762000e1a62000d98565b5b600062000e2b8482850162000deb565b91505092915050565b7f4e487b7100000000000000000000000000000000000000000000000000000000600052602260045260246000fd5b6000600282049050600182168062000e7c57607f821691505b60208210810362000e925762000e9162000e34565b5b50919050565b600082825260208201905092915050565b7f546865205f7374617274446179206e6f7420726570726573656e74732061207660008201527f616c696420646179000000000000000000000000000000000000000000000000602082015250565b600062000f0760288362000e98565b915062000f148262000ea9565b604082019050919050565b6000602082019050818103600083015262000f3a8162000ef8565b9050919050565b7f546865205f656e64446179206e6f7420726570726573656e747320612076616c60008201527f6964206461790000000000000000000000000000000000000000000000000000602082015250565b600062000f9f60268362000e98565b915062000fac8262000f41565b604082019050919050565b6000602082019050818103600083015262000fd28162000f90565b9050919050565b7f546865206d6574686f642067657454696d65496e5365636f6e647320646f657360008201527f6e277420776f726b20666f72204d4f4e544820616e6420594541520000000000602082015250565b600062001037603b8362000e98565b9150620010448262000fd9565b604082019050919050565b600060208201905081810360008301526200106a8162001028565b9050919050565b612de780620010816000396000f3fe608060405234801561001057600080fd5b506004361061007d5760003560e01c8063859319111161005b57806385931911146101005780639c7642231461011e578063b8b4f1a01461014e578063fb6f82431461016c5761007d565b806322d53d53146100825780635e744c6a146100b257806370d8915a146100e2575b600080fd5b61009c600480360381019061009791906120c9565b61019c565b6040516100a99190612134565b60405180910390f35b6100cc60048036038101906100c79190612262565b6103d5565b6040516100d99190612134565b60405180910390f35b6100ea6105c6565b6040516100f791906122cd565b60405180910390f35b61010861072d565b60405161011591906122cd565b60405180910390f35b61013860048036038101906101339190612321565b610895565b6040516101459190612134565b60405180910390f35b610156610b6c565b6040516101639190612134565b60405180910390f35b61018660048036038101906101819190612374565b610cd6565b6040516101939190612497565b60405180910390f35b60008060009054906101000a900460ff166101ec576040517f08c379a00000000000000000000000000000000000000000000000000000000081526004016101e390612516565b60405180910390fd5b3373ffffffffffffffffffffffffffffffffffffffff166001800160009054906101000a900473ffffffffffffffffffffffffffffffffffffffff1673ffffffffffffffffffffffffffffffffffffffff161461027e576040517f08c379a0000000000000000000000000000000000000000000000000000000008152600401610275906125a8565b60405180910390fd5b610306836009600081548110610297576102966125c8565b5b906000526020600020016040518060400160405290816000820160009054906101000a900463ffffffff1663ffffffff1663ffffffff1681526020016000820160049054906101000a900463ffffffff1663ffffffff1663ffffffff168152505061126c90919063ffffffff16565b15801561032b575081600081518110610322576103216125c8565b5b60200260200101515b15610395576103576008600081548110610348576103476125c8565b5b906000526020600020016112fb565b7f95a1f3a1dafdd4c1af344e3d7c69a72cbce8a3f15fe1cf95a7f5bd23df2e71a160405161038490612643565b60405180910390a1600190506103cf565b7f66091b7dc2b097c8f60d5cd6aa99633b097f08d2eb1056f3e15361b22e0ea2ba6040516103c2906126af565b60405180910390a1600090505b92915050565b60003373ffffffffffffffffffffffffffffffffffffffff16600360010160009054906101000a900473ffffffffffffffffffffffffffffffffffffffff1673ffffffffffffffffffffffffffffffffffffffff161461046a576040517f08c379a000000000000000000000000000000000000000000000000000000000815260040161046190612741565b60405180910390fd5b600560006001800160009054906101000a900473ffffffffffffffffffffffffffffffffffffffff1673ffffffffffffffffffffffffffffffffffffffff1673ffffffffffffffffffffffffffffffffffffffff168152602001908152602001600020600080820160006104de9190611c76565b6001820160006101000a81549073ffffffffffffffffffffffffffffffffffffffff02191690556001820160146101000a81549060ff0219169055505061052783836000610f6c565b60016000820151816000019080519060200190610545929190611cb6565b5060208201518160010160006101000a81548173ffffffffffffffffffffffffffffffffffffffff021916908373ffffffffffffffffffffffffffffffffffffffff16021790555060408201518160010160146101000a81548160ff0219169083151502179055509050506105bb826001611340565b506001905092915050565b60008060009054906101000a900460ff16610616576040517f08c379a000000000000000000000000000000000000000000000000000000000815260040161060d90612516565b60405180910390fd5b3373ffffffffffffffffffffffffffffffffffffffff166001800160009054906101000a900473ffffffffffffffffffffffffffffffffffffffff1673ffffffffffffffffffffffffffffffffffffffff1614806106c457503373ffffffffffffffffffffffffffffffffffffffff16600360010160009054906101000a900473ffffffffffffffffffffffffffffffffffffffff1673ffffffffffffffffffffffffffffffffffffffff16145b610703576040517f08c379a00000000000000000000000000000000000000000000000000000000081526004016106fa906127d3565b60405180910390fd5b6001800160009054906101000a900473ffffffffffffffffffffffffffffffffffffffff16905090565b60008060009054906101000a900460ff1661077d576040517f08c379a000000000000000000000000000000000000000000000000000000000815260040161077490612516565b60405180910390fd5b3373ffffffffffffffffffffffffffffffffffffffff166001800160009054906101000a900473ffffffffffffffffffffffffffffffffffffffff1673ffffffffffffffffffffffffffffffffffffffff16148061082b57503373ffffffffffffffffffffffffffffffffffffffff16600360010160009054906101000a900473ffffffffffffffffffffffffffffffffffffffff1673ffffffffffffffffffffffffffffffffffffffff16145b61086a576040517f08c379a0000000000000000000000000000000000000000000000000000000008152600401610861906127d3565b60405180910390fd5b600360010160009054906101000a900473ffffffffffffffffffffffffffffffffffffffff16905090565b60008060009054906101000a900460ff166108e5576040517f08c379a00000000000000000000000000000000000000000000000000000000081526004016108dc90612516565b60405180910390fd5b3373ffffffffffffffffffffffffffffffffffffffff16600360010160009054906101000a900473ffffffffffffffffffffffffffffffffffffffff1673ffffffffffffffffffffffffffffffffffffffff1614610978576040517f08c379a000000000000000000000000000000000000000000000000000000000815260040161096f90612741565b60405180910390fd5b6109ee846006600081548110610991576109906125c8565b5b906000526020600020016040518060400160405290816000820160009054906101000a900460ff1660ff1660ff1681526020016000820160019054906101000a900460ff1660ff1660ff168152505061144390919063ffffffff16565b8015610a7e5750610a7d836007600081548110610a0e57610a0d6125c8565b5b906000526020600020016040518060400160405290816000820160009054906101000a900463ffffffff1663ffffffff1663ffffffff1681526020016000820160049054906101000a900463ffffffff1663ffffffff1663ffffffff16815250506114cf90919063ffffffff16565b5b8015610ab75750610ab6826008600081548110610a9e57610a9d6125c8565b5b9060005260206000200161157990919063ffffffff16565b5b15610b2b57610aed826009600081548110610ad557610ad46125c8565b5b906000526020600020016115f290919063ffffffff16565b7f95a1f3a1dafdd4c1af344e3d7c69a72cbce8a3f15fe1cf95a7f5bd23df2e71a1604051610b1a90612643565b60405180910390a160019050610b65565b7f66091b7dc2b097c8f60d5cd6aa99633b097f08d2eb1056f3e15361b22e0ea2ba604051610b58906126af565b60405180910390a1600090505b9392505050565b60008060009054906101000a900460ff16610bbc576040517f08c379a0000000000000000000000000000000000000000000000000000000008152600401610bb390612516565b60405180910390fd5b3373ffffffffffffffffffffffffffffffffffffffff166001800160009054906101000a900473ffffffffffffffffffffffffffffffffffffffff1673ffffffffffffffffffffffffffffffffffffffff1614610c4e576040517f08c379a0000000000000000000000000000000000000000000000000000000008152600401610c45906125a8565b60405180910390fd5b600015156001800160149054906101000a900460ff16151514610ca6576040517f08c379a0000000000000000000000000000000000000000000000000000000008152600401610c9d9061283f565b60405180910390fd5b60018060010160146101000a81548160ff021916908315150217905550610cce336001611340565b506001905090565b610cde611d3c565b60008054906101000a900460ff16610d2b576040517f08c379a0000000000000000000000000000000000000000000000000000000008152600401610d2290612516565b60405180910390fd5b3373ffffffffffffffffffffffffffffffffffffffff166001800160009054906101000a900473ffffffffffffffffffffffffffffffffffffffff1673ffffffffffffffffffffffffffffffffffffffff161480610dd957503373ffffffffffffffffffffffffffffffffffffffff16600360010160009054906101000a900473ffffffffffffffffffffffffffffffffffffffff1673ffffffffffffffffffffffffffffffffffffffff16145b610e18576040517f08c379a0000000000000000000000000000000000000000000000000000000008152600401610e0f906127d3565b60405180910390fd5b600560008373ffffffffffffffffffffffffffffffffffffffff1673ffffffffffffffffffffffffffffffffffffffff168152602001908152602001600020604051806060016040529081600082018054610e729061288e565b80601f0160208091040260200160405190810160405280929190818152602001828054610e9e9061288e565b8015610eeb5780601f10610ec057610100808354040283529160200191610eeb565b820191906000526020600020905b815481529060010190602001808311610ece57829003601f168201915b505050505081526020016001820160009054906101000a900473ffffffffffffffffffffffffffffffffffffffff1673ffffffffffffffffffffffffffffffffffffffff1673ffffffffffffffffffffffffffffffffffffffff1681526020016001820160149054906101000a900460ff1615151515815250509050919050565b610f74611d3c565b60405180606001604052808581526020018473ffffffffffffffffffffffffffffffffffffffff16815260200183151581525090509392505050565b610fb8611d75565b8282600060ff168260ff1610158015610fd85750600660ff168260ff1611155b611017576040517f08c379a000000000000000000000000000000000000000000000000000000000815260040161100e90612931565b60405180910390fd5b600060ff168160ff16101580156110355750600660ff168160ff1611155b611074576040517f08c379a000000000000000000000000000000000000000000000000000000000815260040161106b906129c3565b60405180910390fd5b60405180604001604052808660ff1681526020018560ff168152509250505092915050565b6110a1611d95565b8282600063ffffffff168263ffffffff16101580156110cf57506201517f63ffffffff168263ffffffff1611155b61110e576040517f08c379a000000000000000000000000000000000000000000000000000000000815260040161110590612931565b60405180910390fd5b600063ffffffff168163ffffffff161015801561113a57506201517f63ffffffff168163ffffffff1611155b611179576040517f08c379a0000000000000000000000000000000000000000000000000000000008152600401611170906129c3565b60405180910390fd5b60405180604001604052808663ffffffff1681526020018563ffffffff168152509250505092915050565b6111ac611dbb565b6000600460ff168360ff16116111cc576111c58361165d565b90506111d1565b600190505b6040518060a001604052808563ffffffff1681526020018460ff1681526020018263ffffffff1681526020018563ffffffff168152602001600063ffffffff1681525091505092915050565b611225611e05565b6040518060400160405280600063ffffffff1681526020018363ffffffff168152509050919050565b611256611e2b565b6040518060200160405280838152509050919050565b60008160006112808263ffffffff16611714565b9050600a8151111561129157600080fd5b6000856000015163ffffffff16116112de576040517f08c379a00000000000000000000000000000000000000000000000000000000081526004016112d590612a55565b60405180910390fd5b846000015163ffffffff168463ffffffff16119250505092915050565b60018160000160098282829054906101000a900463ffffffff1661131f9190612aa4565b92506101000a81548163ffffffff021916908363ffffffff16021790555050565b600081600560008573ffffffffffffffffffffffffffffffffffffffff1673ffffffffffffffffffffffffffffffffffffffff16815260200190815260200160002060008201816000019080546113969061288e565b6113a1929190611e3e565b506001820160009054906101000a900473ffffffffffffffffffffffffffffffffffffffff168160010160006101000a81548173ffffffffffffffffffffffffffffffffffffffff021916908373ffffffffffffffffffffffffffffffffffffffff1602179055506001820160149054906101000a900460ff168160010160146101000a81548160ff0219169083151502179055509050506001905092915050565b6000826020015160ff16836000015160ff16101561149257826000015160ff168260ff161015801561147f5750826020015160ff168260ff1611155b1561148d57600190506114c9565b6114c4565b826000015160ff168260ff161015806114b55750826020015160ff168260ff1611155b156114c357600190506114c9565b5b600090505b92915050565b6000826020015163ffffffff16836000015163ffffffff16101561153057826000015163ffffffff168263ffffffff161015801561151d5750826020015163ffffffff168263ffffffff1611155b1561152b5760019050611573565b61156e565b826000015163ffffffff168263ffffffff1610158061155f5750826020015163ffffffff168263ffffffff1611155b1561156d5760019050611573565b5b600090505b92915050565b60006115ab8360000160049054906101000a900460ff1684600001600d9054906101000a900463ffffffff1684611874565b156115bb576115ba8383611939565b5b60008360000160099054906101000a900463ffffffff1663ffffffff1611156115e757600190506115ec565b600090505b92915050565b8060006116048263ffffffff16611714565b9050600a8151111561161557600080fd5b8360000160049054906101000a900463ffffffff16836116359190612ad8565b8460000160006101000a81548163ffffffff021916908363ffffffff16021790555050505050565b6000600460ff168260ff1611156116a9576040517f08c379a00000000000000000000000000000000000000000000000000000000081526004016116a090612b84565b60405180910390fd5b600060ff168260ff16036116c0576001905061170f565b600160ff168260ff16036116d757603c905061170f565b600260ff168260ff16036116ef57610e10905061170f565b600360ff168260ff16036117085762015180905061170f565b62093a8090505b919050565b60606000820361175b576040518060400160405280600181526020017f3000000000000000000000000000000000000000000000000000000000000000815250905061186f565b600082905060005b6000821461178d57808061177690612bae565b915050600a826117869190612c25565b9150611763565b60008167ffffffffffffffff8111156117a9576117a8611f4e565b5b6040519080825280601f01601f1916602001820160405280156117db5781602001600182028036833780820191505090505b5090505b60008514611868576001826117f49190612c56565b9150600a856118039190612c8a565b603061180f9190612cbb565b60f81b818381518110611825576118246125c8565b5b60200101907effffffffffffffffffffffffffffffffffffffffffffffffffffffffffffff1916908160001a905350600a856118619190612c25565b94506117df565b8093505050505b919050565b600080849050600460ff168160ff16116118a0578363ffffffff168363ffffffff161015915050611932565b600560ff168160ff16036119085760006118bf8463ffffffff166119c6565b50915050600d8563ffffffff161480156118df575060018163ffffffff16145b156118ef57600192505050611932565b8463ffffffff168163ffffffff16101592505050611932565b60006119198463ffffffff166119c6565b505090508463ffffffff168163ffffffff161015925050505b9392505050565b8160000160009054906101000a900463ffffffff168260000160096101000a81548163ffffffff021916908363ffffffff1602179055506119a08260000160059054906101000a900463ffffffff168360000160049054906101000a900460ff1683611b79565b82600001600d6101000a81548163ffffffff021916908363ffffffff1602179055505050565b6000806000806201518063ffffffff16856119e19190612c25565b9050600062253d8c62010bd9836119f89190612ad8565b611a029190612ad8565b9050600062023ab1826004611a179190612d11565b611a219190612d4f565b9050600460038262023ab1611a369190612d11565b611a409190612ad8565b611a4a9190612d4f565b82611a559190612aa4565b9150600062164b09600184611a6a9190612ad8565b610fa0611a779190612d11565b611a819190612d4f565b9050601f6004826105b5611a959190612d11565b611a9f9190612d4f565b84611aaa9190612aa4565b611ab49190612ad8565b9250600061098f846050611ac89190612d11565b611ad29190612d4f565b9050600060508261098f611ae69190612d11565b611af09190612d4f565b85611afb9190612aa4565b9050600b82611b0a9190612d4f565b945084600c611b199190612d11565b600283611b269190612ad8565b611b309190612aa4565b91508483603186611b419190612aa4565b6064611b4d9190612d11565b611b579190612ad8565b611b619190612ad8565b92508298508197508096505050505050509193909250565b6000600460ff168360ff1611611b9b57611b94838386611c0c565b9050611c05565b600560ff168360ff1603611bd9576000611bba8363ffffffff166119c6565b5063ffffffff16915050600181611bd19190612cbb565b915050611c05565b6000611bea8363ffffffff166119c6565b505063ffffffff169050600181611c019190612cbb565b9150505b9392505050565b6000808284611c1b9190612d80565b905060008184611c2b9190612aa4565b9050600460ff168660ff1603611c5e576203f4808186611c4b9190612ad8565b611c559190612ad8565b92505050611c6f565b8085611c6a9190612ad8565b925050505b9392505050565b508054611c829061288e565b6000825580601f10611c945750611cb3565b601f016020900490600052602060002090810190611cb29190611ecb565b5b50565b828054611cc29061288e565b90600052602060002090601f016020900481019282611ce45760008555611d2b565b82601f10611cfd57805160ff1916838001178555611d2b565b82800160010185558215611d2b579182015b82811115611d2a578251825591602001919060010190611d0f565b5b509050611d389190611ecb565b5090565b604051806060016040528060608152602001600073ffffffffffffffffffffffffffffffffffffffff1681526020016000151581525090565b6040518060400160405280600060ff168152602001600060ff1681525090565b6040518060400160405280600063ffffffff168152602001600063ffffffff1681525090565b6040518060a00160405280600063ffffffff168152602001600060ff168152602001600063ffffffff168152602001600063ffffffff168152602001600063ffffffff1681525090565b6040518060400160405280600063ffffffff168152602001600063ffffffff1681525090565b6040518060200160405280606081525090565b828054611e4a9061288e565b90600052602060002090601f016020900481019282611e6c5760008555611eba565b82601f10611e7d5780548555611eba565b82800160010185558215611eba57600052602060002091601f016020900482015b82811115611eb9578254825591600101919060010190611e9e565b5b509050611ec79190611ecb565b5090565b5b80821115611ee4576000816000905550600101611ecc565b5090565b6000604051905090565b600080fd5b600080fd5b600063ffffffff82169050919050565b611f1581611efc565b8114611f2057600080fd5b50565b600081359050611f3281611f0c565b92915050565b600080fd5b6000601f19601f8301169050919050565b7f4e487b7100000000000000000000000000000000000000000000000000000000600052604160045260246000fd5b611f8682611f3d565b810181811067ffffffffffffffff82111715611fa557611fa4611f4e565b5b80604052505050565b6000611fb8611ee8565b9050611fc48282611f7d565b919050565b600067ffffffffffffffff821115611fe457611fe3611f4e565b5b602082029050602081019050919050565b600080fd5b60008115159050919050565b61200f81611ffa565b811461201a57600080fd5b50565b60008135905061202c81612006565b92915050565b600061204561204084611fc9565b611fae565b9050808382526020820190506020840283018581111561206857612067611ff5565b5b835b81811015612091578061207d888261201d565b84526020840193505060208101905061206a565b5050509392505050565b600082601f8301126120b0576120af611f38565b5b81356120c0848260208601612032565b91505092915050565b600080604083850312156120e0576120df611ef2565b5b60006120ee85828601611f23565b925050602083013567ffffffffffffffff81111561210f5761210e611ef7565b5b61211b8582860161209b565b9150509250929050565b61212e81611ffa565b82525050565b60006020820190506121496000830184612125565b92915050565b600080fd5b600067ffffffffffffffff82111561216f5761216e611f4e565b5b61217882611f3d565b9050602081019050919050565b82818337600083830152505050565b60006121a76121a284612154565b611fae565b9050828152602081018484840111156121c3576121c261214f565b5b6121ce848285612185565b509392505050565b600082601f8301126121eb576121ea611f38565b5b81356121fb848260208601612194565b91505092915050565b600073ffffffffffffffffffffffffffffffffffffffff82169050919050565b600061222f82612204565b9050919050565b61223f81612224565b811461224a57600080fd5b50565b60008135905061225c81612236565b92915050565b6000806040838503121561227957612278611ef2565b5b600083013567ffffffffffffffff81111561229757612296611ef7565b5b6122a3858286016121d6565b92505060206122b48582860161224d565b9150509250929050565b6122c781612224565b82525050565b60006020820190506122e260008301846122be565b92915050565b600060ff82169050919050565b6122fe816122e8565b811461230957600080fd5b50565b60008135905061231b816122f5565b92915050565b60008060006060848603121561233a57612339611ef2565b5b60006123488682870161230c565b935050602061235986828701611f23565b925050604061236a86828701611f23565b9150509250925092565b60006020828403121561238a57612389611ef2565b5b60006123988482850161224d565b91505092915050565b600081519050919050565b600082825260208201905092915050565b60005b838110156123db5780820151818401526020810190506123c0565b838111156123ea576000848401525b50505050565b60006123fb826123a1565b61240581856123ac565b93506124158185602086016123bd565b61241e81611f3d565b840191505092915050565b61243281612224565b82525050565b61244181611ffa565b82525050565b6000606083016000830151848203600086015261246482826123f0565b91505060208301516124796020860182612429565b50604083015161248c6040860182612438565b508091505092915050565b600060208201905081810360008301526124b18184612447565b905092915050565b600082825260208201905092915050565b7f5468697320636f6e747261637420697320646561637469766174656400000000600082015250565b6000612500601c836124b9565b915061250b826124ca565b602082019050919050565b6000602082019050818103600083015261252f816124f3565b9050919050565b7f4f6e6c7920746865206170706c69636174696f6e2063616e206578656375746560008201527f2074686973206f7065726174696f6e0000000000000000000000000000000000602082015250565b6000612592602f836124b9565b915061259d82612536565b604082019050919050565b600060208201905081810360008301526125c181612585565b9050919050565b7f4e487b7100000000000000000000000000000000000000000000000000000000600052603260045260246000fd5b7f5375636365737366756c20657865637574696f6e210000000000000000000000600082015250565b600061262d6015836124b9565b9150612638826125f7565b602082019050919050565b6000602082019050818103600083015261265c81612620565b9050919050565b7f436f6e646974696f6e7320646f206e6f74206d65657400000000000000000000600082015250565b60006126996016836124b9565b91506126a482612663565b602082019050919050565b600060208201905081810360008301526126c88161268c565b9050919050565b7f4f6e6c79207468652070726f636573732063616e20657865637574652074686960008201527f73206f7065726174696f6e000000000000000000000000000000000000000000602082015250565b600061272b602b836124b9565b9150612736826126cf565b604082019050919050565b6000602082019050818103600083015261275a8161271e565b9050919050565b7f4f6e6c79207468652070726f63657373206f7220746865206170706c6963617460008201527f696f6e2063616e20657865637574652074686973206f7065726174696f6e0000602082015250565b60006127bd603e836124b9565b91506127c882612761565b604082019050919050565b600060208201905081810360008301526127ec816127b0565b9050919050565b7f54686520636f6e747261637420697320616c7265616479207369676e65640000600082015250565b6000612829601e836124b9565b9150612834826127f3565b602082019050919050565b600060208201905081810360008301526128588161281c565b9050919050565b7f4e487b7100000000000000000000000000000000000000000000000000000000600052602260045260246000fd5b600060028204905060018216806128a657607f821691505b6020821081036128b9576128b861285f565b5b50919050565b7f546865205f7374617274446179206e6f7420726570726573656e74732061207660008201527f616c696420646179000000000000000000000000000000000000000000000000602082015250565b600061291b6028836124b9565b9150612926826128bf565b604082019050919050565b6000602082019050818103600083015261294a8161290e565b9050919050565b7f546865205f656e64446179206e6f7420726570726573656e747320612076616c60008201527f6964206461790000000000000000000000000000000000000000000000000000602082015250565b60006129ad6026836124b9565b91506129b882612951565b604082019050919050565b600060208201905081810360008301526129dc816129a0565b9050919050565b7f5468657265206973206e6f20656e6454696d652073657420696e2074696d656f60008201527f7574000000000000000000000000000000000000000000000000000000000000602082015250565b6000612a3f6022836124b9565b9150612a4a826129e3565b604082019050919050565b60006020820190508181036000830152612a6e81612a32565b9050919050565b7f4e487b7100000000000000000000000000000000000000000000000000000000600052601160045260246000fd5b6000612aaf82611efc565b9150612aba83611efc565b925082821015612acd57612acc612a75565b5b828203905092915050565b6000612ae382611efc565b9150612aee83611efc565b92508263ffffffff03821115612b0757612b06612a75565b5b828201905092915050565b7f546865206d6574686f642067657454696d65496e5365636f6e647320646f657360008201527f6e277420776f726b20666f72204d4f4e544820616e6420594541520000000000602082015250565b6000612b6e603b836124b9565b9150612b7982612b12565b604082019050919050565b60006020820190508181036000830152612b9d81612b61565b9050919050565b6000819050919050565b6000612bb982612ba4565b91507fffffffffffffffffffffffffffffffffffffffffffffffffffffffffffffffff8203612beb57612bea612a75565b5b600182019050919050565b7f4e487b7100000000000000000000000000000000000000000000000000000000600052601260045260246000fd5b6000612c3082612ba4565b9150612c3b83612ba4565b925082612c4b57612c4a612bf6565b5b828204905092915050565b6000612c6182612ba4565b9150612c6c83612ba4565b925082821015612c7f57612c7e612a75565b5b828203905092915050565b6000612c9582612ba4565b9150612ca083612ba4565b925082612cb057612caf612bf6565b5b828206905092915050565b6000612cc682612ba4565b9150612cd183612ba4565b9250827fffffffffffffffffffffffffffffffffffffffffffffffffffffffffffffffff03821115612d0657612d05612a75565b5b828201905092915050565b6000612d1c82611efc565b9150612d2783611efc565b92508163ffffffff0483118215151615612d4457612d43612a75565b5b828202905092915050565b6000612d5a82611efc565b9150612d6583611efc565b925082612d7557612d74612bf6565b5b828204905092915050565b6000612d8b82611efc565b9150612d9683611efc565b925082612da657612da5612bf6565b5b82820690509291505056fea2646970667358221220758536ee2c89f673c17157a682b4326289f51b95c2bcd8e2730e03ee53096d5d64736f6c634300080d0033636f756e74282f2f626f64792f726571756573742f646f63756d656e7429203d3d20636f756e74282f2f626f64792f726573706f6e73652f646f63756d656e7429",
  "immutableReferences": {},
  "source": "/* ========================== BEGIN: code for all contracts ====================== */\r\n//SPDX-License-Identifier: MIT\r\npragma solidity >0.8.4 < 0.8.14;\r\n\r\nimport \"../../lib/eai/EAI.sol\";\r\n\r\ncontract Orcid {\r\n \r\n    bool activated;\r\n\r\n    uint32 beginDate; \r\n\tuint32 dueDate; \t\r\n    using EAI for EAI.Party;\r\n           \r\n    EAI.Party application;\r\n    EAI.Party process;\r\n    mapping(address=>EAI.Party) mapParty;\r\n\r\n    event failEvent(string _logMessage);\r\n    event successEvent(string _logMessage);\r\n/* --------------------------- END: code for all contracts ----------------------- */  \r\n\r\n\r\n/* =========== BEGIN: codes generated based in specific jabuti contract =================== */\r\n    \t\r\n//  1 STEP:  Import library to conditions/terms  ---------------------------------- \r\n\r\n    // ADD NEW CONTENT HERE, as follow example:\r\n    using EAI for EAI.WeekDaysInterval;\r\n    using EAI for EAI.TimeInterval;    \r\n    using EAI for EAI.MaxNumberOfOperationByTime;\r\n    using EAI for EAI.MessageContent_onlyXPath_Boolean;\r\n    using EAI for EAI.Timeout;\r\n\r\n// ----------------------------------------------------------------------------------\r\n\r\n// 2 STEP: Identify and create the variables  from \" variable block\" ---------------    \r\n    // ADD NEW CONTENT HERE IF EXIST, as follow example:\r\n    //string numberOfAddresses = \"count(//body/perosonalInformation/address/cep)\"; \r\n// ----------------------------------------------------------------------------------\r\n\r\n\r\n// 3 STEP: Identify and create variables referring to the clauses terms ------------\r\n\t\r\n    // ADD NEW CONTENT HERE, as follow example:\r\n    EAI.WeekDaysInterval[]  weekDaysInterval_C1; \t\r\n\tEAI.TimeInterval[] timeInterval_C1;\r\n    EAI.MaxNumberOfOperationByTime[] maxNumberOfOperationByTime_C1;    \r\n\r\n    EAI.Timeout[] timeout_C2;\r\n    EAI.MessageContent_onlyXPath_Boolean[] msgContent_onlyPath_C2;\r\n    \r\n\r\n// -----------------------------------------------------------------------------------\r\n\r\n\r\n\r\n// 4 STEP: Create the constructor method --------------------------------------------\r\n\tconstructor(address _applicationWallet){\r\n\t \tactivated = true;\r\n        // Catch the date from jabuti contract \r\n        beginDate = 1672560000; // UPDATE THE beginDate AND dueDate\r\n\t    dueDate = 1735603200; \r\n        // Catch the name of the part for creaty the parties         \r\n\t    application = EAI.createParty(\"Orcid API\", _applicationWallet, false);  // UPDATE THE application NAME\r\n        process = EAI.createParty(\"Integration Process\", msg.sender, true);               // UPDATE THE process NAME\r\n        mapParty[msg.sender] = process;\r\n        mapParty[_applicationWallet] = application;\r\n\r\n// 5 STEP: Create the terms of the clauses, (check if some of them use a variable from variable block)\r\n        weekDaysInterval_C1.push(EAI.createWeekDaysInterval(EAI.SUNDAY, EAI.SATURDAY));\r\n        timeInterval_C1.push(EAI.createTimeInterval(0, 86399 ));\r\n        maxNumberOfOperationByTime_C1.push(EAI.createMaxNumberOfOperationByTime(24,EAI.SECOND));\r\n\r\n        timeout_C2.push(EAI.createTimeout(60));\r\n        msgContent_onlyPath_C2.push(EAI.createMessageContent_onlyXPath_Boolean(\"count(//body/request/document) == count(//body/response/document)\"));        \r\n\t}\r\n\t\r\n// 6 STEP: Translate the clauses to functions\r\n    function right_requestAllWorks(uint8 _weekDay, uint32 _accessTime, uint32 _accessDateTime)public onlyProcess() returns(bool){\r\n\r\n        if( weekDaysInterval_C1[0].isIntoWeekDaysInterval(_weekDay) &&\r\n            timeInterval_C1[0].isIntoTimeInterval(_accessTime) &&\r\n            maxNumberOfOperationByTime_C1[0].hasAvailableOperations_ByTime(_accessDateTime)\r\n        ){\r\n            timeout_C2[0].setEndTimeInTimeout(_accessDateTime);        \r\n            emit successEvent(\"Successful execution!\");\r\n            return true;\r\n        } else{\r\n            emit failEvent(\"Conditions do not meet\");\r\n            return false;\r\n        }               \r\n    }\r\n\r\n    function obligation_responseWorks(uint32 _accessDateTime, bool[] memory _resultFromXpath)public onlyApplication() returns(bool){\r\n        if(!timeout_C2[0].isTimeoutEnded(_accessDateTime) &&\r\n            _resultFromXpath[0]\r\n        ){\r\n            maxNumberOfOperationByTime_C1[0].decreaseOneOperation_ByTime();\r\n            emit successEvent(\"Successful execution!\");\r\n            return true;\r\n        }else{\r\n            emit failEvent(\"Conditions do not meet\");\r\n            return false;\r\n        }   \r\n    }\r\n/* -------------- END: codes generated based in specific jabuti contract ------------- */\r\n\r\n\r\n/* ========================== BEGIN: code for all contracts ====================== */\r\n\r\n    /* the process sign the contract by default, the function signContract \r\n    is used to get the applicationParty signature*/      \r\n    function signContract() public onlyApplication() returns(bool) {\r\n        require(application.aware == false, \"The contract is already signed\");        \r\n        application.aware = true;  \r\n        updateMapParty(msg.sender, application);\r\n\t\treturn true;\r\n    }\r\n\r\n    function updateMapParty(address _walletAddress, EAI.Party storage _party)internal returns(bool){       \r\n        mapParty[_walletAddress] = _party;\r\n\t\treturn true;\r\n    }\r\n    \r\n    /* It only possible to change the name and the address of the party. \r\n    After change the  party, the new party need to sign the contract */\r\n    function changeApplicationParty(string memory _name, address _walletAddress) public returns(bool) {       \r\n        require(process.walletAddress == msg.sender, \"Only the process can execute this operation\");\r\n        delete mapParty[application.walletAddress];\r\n        application = EAI.createParty(_name, _walletAddress, false);          \r\n        updateMapParty(_walletAddress, application);\r\n        return true;       \r\n    }\r\n    \r\n    function getProcessAddress() public view onlyInvolvedParties returns(address){\r\n        return process.walletAddress;\r\n    }\r\n    \r\n    function getApplicationAddress() public view onlyInvolvedParties returns(address){\r\n        return application.walletAddress;\r\n    }\r\n\r\n    function getParty(address _walletAddress) public view onlyInvolvedParties returns(EAI.Party memory){\r\n        return mapParty[_walletAddress];\r\n    }\r\n\r\n/* ==================================== MODIFIERS ==================================== */\r\n        modifier onlyApplication(){        \r\n            require(activated, \"This contract is deactivated\");            \r\n            require(application.walletAddress == msg.sender, \"Only the application can execute this operation\");\r\n            _;        \r\n    }\r\n\r\n    modifier onlyProcess(){\r\n        require(activated, \"This contract is deactivated\");\r\n        require(process.walletAddress == msg.sender, \"Only the process can execute this operation\");\r\n        _;\r\n    }\r\n\r\n    modifier onlyInvolvedParties(){\r\n        require(activated, \"This contract is deactivated\");\r\n        require(\r\n            (application.walletAddress == msg.sender || process.walletAddress == msg.sender ) ,\r\n            \"Only the process or the application can execute this operation\");\r\n        _;\r\n    }\r\n\r\n}\r\n/* --------------------------- END: code for all contracts ----------------------- */ \r\n\r\n\r\n",
  "sourcePath": "C:\\git-repository\\dsl-smart-contract-eai\\02-models\\002-ProofOfConcept\\contracts\\study-case-contracts\\002-orcid\\Orcid.sol",
  "compiler": {
    "name": "solc",
    "version": "0.8.13+commit.abaa5c0e.Emscripten.clang"
  },
  "schemaVersion": "3.4.13",
  "updatedAt": "2023-04-19T18:48:33.631Z",
  "devdoc": {
    "kind": "dev",
    "methods": {},
    "version": 1
  },
  "userdoc": {
    "kind": "user",
    "methods": {},
    "version": 1
  }
}