{
  "contractName": "SessionInterval_refCod",
  "abi": [
    {
      "inputs": [],
      "stateMutability": "nonpayable",
      "type": "constructor"
    },
    {
      "inputs": [
        {
          "internalType": "uint256",
          "name": "_idSingleSession",
          "type": "uint256"
        },
        {
          "internalType": "string",
          "name": "_k1",
          "type": "string"
        },
        {
          "internalType": "string",
          "name": "_k2",
          "type": "string"
        },
        {
          "internalType": "uint32",
          "name": "_accessDateTime",
          "type": "uint32"
        }
      ],
      "name": "startSessionByRef",
      "outputs": [],
      "stateMutability": "nonpayable",
      "type": "function"
    },
    {
      "inputs": [
        {
          "internalType": "uint256",
          "name": "_id",
          "type": "uint256"
        },
        {
          "internalType": "uint32",
          "name": "_accessDateTime",
          "type": "uint32"
        }
      ],
      "name": "startSingleSession",
      "outputs": [],
      "stateMutability": "nonpayable",
      "type": "function"
    },
    {
      "inputs": [
        {
          "internalType": "string",
          "name": "_k1",
          "type": "string"
        },
        {
          "internalType": "string",
          "name": "_k2",
          "type": "string"
        },
        {
          "internalType": "uint32",
          "name": "_accessDateTime",
          "type": "uint32"
        }
      ],
      "name": "isTheSessionByRefOpen",
      "outputs": [
        {
          "internalType": "uint256",
          "name": "",
          "type": "uint256"
        }
      ],
      "stateMutability": "view",
      "type": "function"
    },
    {
      "inputs": [
        {
          "internalType": "uint256",
          "name": "_id",
          "type": "uint256"
        },
        {
          "internalType": "uint32",
          "name": "_accessDateTime",
          "type": "uint32"
        }
      ],
      "name": "isTheSessionIdOpen",
      "outputs": [
        {
          "internalType": "uint256",
          "name": "",
          "type": "uint256"
        }
      ],
      "stateMutability": "view",
      "type": "function"
    },
    {
      "inputs": [
        {
          "internalType": "string",
          "name": "_k1",
          "type": "string"
        },
        {
          "internalType": "string",
          "name": "_k2",
          "type": "string"
        }
      ],
      "name": "getSessionIntervalByRef",
      "outputs": [
        {
          "components": [
            {
              "internalType": "uint8",
              "name": "duration",
              "type": "uint8"
            },
            {
              "internalType": "uint8",
              "name": "timeUnit",
              "type": "uint8"
            },
            {
              "internalType": "uint32",
              "name": "durationInSeconds",
              "type": "uint32"
            },
            {
              "internalType": "string",
              "name": "xpath",
              "type": "string"
            },
            {
              "internalType": "uint32",
              "name": "endTime",
              "type": "uint32"
            }
          ],
          "internalType": "struct EAI.SessionInterval",
          "name": "",
          "type": "tuple"
        }
      ],
      "stateMutability": "view",
      "type": "function"
    },
    {
      "inputs": [
        {
          "internalType": "uint256",
          "name": "_id",
          "type": "uint256"
        }
      ],
      "name": "getSessionIntervalById",
      "outputs": [
        {
          "components": [
            {
              "internalType": "uint8",
              "name": "duration",
              "type": "uint8"
            },
            {
              "internalType": "uint8",
              "name": "timeUnit",
              "type": "uint8"
            },
            {
              "internalType": "uint32",
              "name": "durationInSeconds",
              "type": "uint32"
            },
            {
              "internalType": "string",
              "name": "xpath",
              "type": "string"
            },
            {
              "internalType": "uint32",
              "name": "endTime",
              "type": "uint32"
            }
          ],
          "internalType": "struct EAI.SessionInterval",
          "name": "",
          "type": "tuple"
        }
      ],
      "stateMutability": "view",
      "type": "function"
    },
    {
      "inputs": [],
      "name": "getAllSessionIntervalByRef",
      "outputs": [
        {
          "internalType": "string[]",
          "name": "",
          "type": "string[]"
        },
        {
          "internalType": "string[]",
          "name": "",
          "type": "string[]"
        },
        {
          "components": [
            {
              "internalType": "uint8",
              "name": "duration",
              "type": "uint8"
            },
            {
              "internalType": "uint8",
              "name": "timeUnit",
              "type": "uint8"
            },
            {
              "internalType": "uint32",
              "name": "durationInSeconds",
              "type": "uint32"
            },
            {
              "internalType": "string",
              "name": "xpath",
              "type": "string"
            },
            {
              "internalType": "uint32",
              "name": "endTime",
              "type": "uint32"
            }
          ],
          "internalType": "struct EAI.SessionInterval[]",
          "name": "",
          "type": "tuple[]"
        }
      ],
      "stateMutability": "view",
      "type": "function"
    },
    {
      "inputs": [],
      "name": "getAllSingleSessionInterval",
      "outputs": [
        {
          "components": [
            {
              "internalType": "uint8",
              "name": "duration",
              "type": "uint8"
            },
            {
              "internalType": "uint8",
              "name": "timeUnit",
              "type": "uint8"
            },
            {
              "internalType": "uint32",
              "name": "durationInSeconds",
              "type": "uint32"
            },
            {
              "internalType": "string",
              "name": "xpath",
              "type": "string"
            },
            {
              "internalType": "uint32",
              "name": "endTime",
              "type": "uint32"
            }
          ],
          "internalType": "struct EAI.SessionInterval[]",
          "name": "",
          "type": "tuple[]"
        }
      ],
      "stateMutability": "view",
      "type": "function"
    }
  ],
  "bytecode": "0x60806040523480156200001157600080fd5b5060006200003d60026000604051806020016040528060008152506200057960201b62000f401760201c565b908060018154018082558091505060019003906000526020600020906003020160009091909190915060008201518160000160006101000a81548160ff021916908360ff16021790555060208201518160000160016101000a81548160ff021916908360ff16021790555060408201518160000160026101000a81548163ffffffff021916908363ffffffff1602179055506060820151816001019080519060200190620000ed929190620006df565b5060808201518160020160006101000a81548163ffffffff021916908363ffffffff160217905550505060006200014260026001604051806020016040528060008152506200057960201b62000f401760201c565b908060018154018082558091505060019003906000526020600020906003020160009091909190915060008201518160000160006101000a81548160ff021916908360ff16021790555060208201518160000160016101000a81548160ff021916908360ff16021790555060408201518160000160026101000a81548163ffffffff021916908363ffffffff1602179055506060820151816001019080519060200190620001f2929190620006df565b5060808201518160020160006101000a81548163ffffffff021916908363ffffffff1602179055505050600062000246600280604051806020016040528060008152506200057960201b62000f401760201c565b908060018154018082558091505060019003906000526020600020906003020160009091909190915060008201518160000160006101000a81548160ff021916908360ff16021790555060208201518160000160016101000a81548160ff021916908360ff16021790555060408201518160000160026101000a81548163ffffffff021916908363ffffffff1602179055506060820151816001019080519060200190620002f6929190620006df565b5060808201518160020160006101000a81548163ffffffff021916908363ffffffff160217905550505060006200034b60026003604051806020016040528060008152506200057960201b62000f401760201c565b908060018154018082558091505060019003906000526020600020906003020160009091909190915060008201518160000160006101000a81548160ff021916908360ff16021790555060208201518160000160016101000a81548160ff021916908360ff16021790555060408201518160000160026101000a81548163ffffffff021916908363ffffffff1602179055506060820151816001019080519060200190620003fb929190620006df565b5060808201518160020160006101000a81548163ffffffff021916908363ffffffff1602179055505050600380600181540180825580915050600190039060005260206000200160006040518060400160405280600481526020017f6e6f6d65000000000000000000000000000000000000000000000000000000008152509091909150908051906020019062000494929190620006df565b50600380600181540180825580915050600190039060005260206000200160006040518060400160405280600681526020017f63696461646500000000000000000000000000000000000000000000000000008152509091909150908051906020019062000504929190620006df565b506001600560405162000517906200082b565b908152602001604051809103902060006101000a81548160ff021916908315150217905550600160056040516200054e9062000892565b908152602001604051809103902060006101000a81548160ff02191690831515021790555062000a3a565b6200058362000770565b6000600460ff168460ff1611620005ac57620005a98560ff1685620005f060201b60201c565b90505b6040518060a001604052808660ff1681526020018560ff1681526020018263ffffffff168152602001848152602001600063ffffffff168152509150509392505050565b60008062000604836200061d60201b60201c565b90508084620006149190620008e8565b91505092915050565b6000600460ff168260ff1611156200066c576040517f08c379a00000000000000000000000000000000000000000000000000000000081526004016200066390620009b4565b60405180910390fd5b600060ff168260ff1603620006855760019050620006da565b600160ff168260ff16036200069e57603c9050620006da565b600260ff168260ff1603620006b857610e109050620006da565b600360ff168260ff1603620006d357620151809050620006da565b62093a8090505b919050565b828054620006ed9062000a05565b90600052602060002090601f0160209004810192826200071157600085556200075d565b82601f106200072c57805160ff19168380011785556200075d565b828001600101855582156200075d579182015b828111156200075c5782518255916020019190600101906200073f565b5b5090506200076c9190620007b1565b5090565b6040518060a00160405280600060ff168152602001600060ff168152602001600063ffffffff16815260200160608152602001600063ffffffff1681525090565b5b80821115620007cc576000816000905550600101620007b2565b5090565b600081905092915050565b7f6e6f6d6500000000000000000000000000000000000000000000000000000000600082015250565b600062000813600483620007d0565b91506200082082620007db565b600482019050919050565b6000620008388262000804565b9150819050919050565b7f6369646164650000000000000000000000000000000000000000000000000000600082015250565b60006200087a600683620007d0565b9150620008878262000842565b600682019050919050565b60006200089f826200086b565b9150819050919050565b600063ffffffff82169050919050565b7f4e487b7100000000000000000000000000000000000000000000000000000000600052601160045260246000fd5b6000620008f582620008a9565b91506200090283620008a9565b92508163ffffffff0483118215151615620009225762000921620008b9565b5b828202905092915050565b600082825260208201905092915050565b7f546865206d6574686f642067657454696d65496e5365636f6e647320646f657360008201527f6e277420776f726b20666f72204d4f4e544820616e6420594541520000000000602082015250565b60006200099c603b836200092d565b9150620009a9826200093e565b604082019050919050565b60006020820190508181036000830152620009cf816200098d565b9050919050565b7f4e487b7100000000000000000000000000000000000000000000000000000000600052602260045260246000fd5b6000600282049050600182168062000a1e57607f821691505b60208210810362000a345762000a33620009d6565b5b50919050565b611e0f8062000a4a6000396000f3fe608060405234801561001057600080fd5b50600436106100885760003560e01c8063cb62aa321161005b578063cb62aa3214610115578063d6d1c61314610145578063eefc281514610175578063f5fea08e146101a557610088565b80630a4822c51461008d57806352268944146100ad5780637598a3f8146100c9578063875a109b146100f9575b600080fd5b6100956101c3565b6040516100a4939291906115a3565b60405180910390f35b6100c760048036038101906100c2919061179a565b6104f0565b005b6100e360048036038101906100de9190611839565b6107f5565b6040516100f091906118dc565b60405180910390f35b610113600480360381019061010e91906118fe565b610949565b005b61012f600480360381019061012a919061193e565b610981565b60405161013c91906118dc565b60405180910390f35b61015f600480360381019061015a91906118fe565b610aee565b60405161016c91906119c5565b60405180910390f35b61018f600480360381019061018a91906119e0565b610c4f565b60405161019c91906119c5565b60405180910390f35b6101ad610dc9565b6040516101ba9190611a6b565b60405180910390f35b606080606060036004600082805480602002602001604051908101604052809291908181526020016000905b8282101561029b57838290600052602060002001805461020e90611abc565b80601f016020809104026020016040519081016040528092919081815260200182805461023a90611abc565b80156102875780601f1061025c57610100808354040283529160200191610287565b820191906000526020600020905b81548152906001019060200180831161026a57829003601f168201915b5050505050815260200190600101906101ef565b50505050925081805480602002602001604051908101604052809291908181526020016000905b8282101561036e5783829060005260206000200180546102e190611abc565b80601f016020809104026020016040519081016040528092919081815260200182805461030d90611abc565b801561035a5780601f1061032f5761010080835404028352916020019161035a565b820191906000526020600020905b81548152906001019060200180831161033d57829003601f168201915b5050505050815260200190600101906102c2565b50505050915080805480602002602001604051908101604052809291908181526020016000905b828210156104df57838290600052602060002090600302016040518060a00160405290816000820160009054906101000a900460ff1660ff1660ff1681526020016000820160019054906101000a900460ff1660ff1660ff1681526020016000820160029054906101000a900463ffffffff1663ffffffff1663ffffffff16815260200160018201805461042890611abc565b80601f016020809104026020016040519081016040528092919081815260200182805461045490611abc565b80156104a15780601f10610476576101008083540402835291602001916104a1565b820191906000526020600020905b81548152906001019060200180831161048457829003601f168201915b505050505081526020016002820160009054906101000a900463ffffffff1663ffffffff1663ffffffff168152505081526020019060010190610395565b505050509050925092509250909192565b6005836040516105009190611b29565b908152602001604051809103902060009054906101000a900460ff168360405160200161052d9190611bd8565b6040516020818303038152906040529061057d576040517f08c379a00000000000000000000000000000000000000000000000000000000081526004016105749190611c4f565b60405180910390fd5b5060028360405161058e9190611b29565b9081526020016040518091039020826040516105aa9190611b29565b908152602001604051809103902060009054906101000a900460ff166107a35760016002846040516105dc9190611b29565b9081526020016040518091039020836040516105f89190611b29565b908152602001604051809103902060006101000a81548160ff021916908315150217905550600482908060018154018082558091505060019003906000526020600020016000909190919091509080519060200190610658929190611164565b506000848154811061066d5761066c611c71565b5b906000526020600020906003020160018460405161068b9190611b29565b9081526020016040518091039020836040516106a79190611b29565b90815260200160405180910390206000820160009054906101000a900460ff168160000160006101000a81548160ff021916908360ff1602179055506000820160019054906101000a900460ff168160000160016101000a81548160ff021916908360ff1602179055506000820160029054906101000a900463ffffffff168160000160026101000a81548163ffffffff021916908363ffffffff160217905550600182018160010190805461075c90611abc565b6107679291906111ea565b506002820160009054906101000a900463ffffffff168160020160006101000a81548163ffffffff021916908363ffffffff1602179055509050505b6107ef816001856040516107b79190611b29565b9081526020016040518091039020846040516107d39190611b29565b9081526020016040518091039020610fac90919063ffffffff16565b50505050565b6107fd611277565b6000828154811061081157610810611c71565b5b90600052602060002090600302016040518060a00160405290816000820160009054906101000a900460ff1660ff1660ff1681526020016000820160019054906101000a900460ff1660ff1660ff1681526020016000820160029054906101000a900463ffffffff1663ffffffff1663ffffffff16815260200160018201805461089a90611abc565b80601f01602080910402602001604051908101604052809291908181526020018280546108c690611abc565b80156109135780601f106108e857610100808354040283529160200191610913565b820191906000526020600020905b8154815290600101906020018083116108f657829003601f168201915b505050505081526020016002820160009054906101000a900463ffffffff1663ffffffff1663ffffffff16815250509050919050565b61097d816000848154811061096157610960611c71565b5b9060005260206000209060030201610fac90919063ffffffff16565b5050565b610989611277565b6001836040516109999190611b29565b9081526020016040518091039020826040516109b59190611b29565b90815260200160405180910390206040518060a00160405290816000820160009054906101000a900460ff1660ff1660ff1681526020016000820160019054906101000a900460ff1660ff1660ff1681526020016000820160029054906101000a900463ffffffff1663ffffffff1663ffffffff168152602001600182018054610a3e90611abc565b80601f0160208091040260200160405190810160405280929190818152602001828054610a6a90611abc565b8015610ab75780601f10610a8c57610100808354040283529160200191610ab7565b820191906000526020600020905b815481529060010190602001808311610a9a57829003601f168201915b505050505081526020016002820160009054906101000a900463ffffffff1663ffffffff1663ffffffff1681525050905092915050565b6000610c478260008581548110610b0857610b07611c71565b5b90600052602060002090600302016040518060a00160405290816000820160009054906101000a900460ff1660ff1660ff1681526020016000820160019054906101000a900460ff1660ff1660ff1681526020016000820160029054906101000a900463ffffffff1663ffffffff1663ffffffff168152602001600182018054610b9190611abc565b80601f0160208091040260200160405190810160405280929190818152602001828054610bbd90611abc565b8015610c0a5780601f10610bdf57610100808354040283529160200191610c0a565b820191906000526020600020905b815481529060010190602001808311610bed57829003601f168201915b505050505081526020016002820160009054906101000a900463ffffffff1663ffffffff1663ffffffff168152505061104190919063ffffffff16565b905092915050565b6000610dc082600186604051610c659190611b29565b908152602001604051809103902085604051610c819190611b29565b90815260200160405180910390206040518060a00160405290816000820160009054906101000a900460ff1660ff1660ff1681526020016000820160019054906101000a900460ff1660ff1660ff1681526020016000820160029054906101000a900463ffffffff1663ffffffff1663ffffffff168152602001600182018054610d0a90611abc565b80601f0160208091040260200160405190810160405280929190818152602001828054610d3690611abc565b8015610d835780601f10610d5857610100808354040283529160200191610d83565b820191906000526020600020905b815481529060010190602001808311610d6657829003601f168201915b505050505081526020016002820160009054906101000a900463ffffffff1663ffffffff1663ffffffff168152505061104190919063ffffffff16565b90509392505050565b60606000805480602002602001604051908101604052809291908181526020016000905b82821015610f3757838290600052602060002090600302016040518060a00160405290816000820160009054906101000a900460ff1660ff1660ff1681526020016000820160019054906101000a900460ff1660ff1660ff1681526020016000820160029054906101000a900463ffffffff1663ffffffff1663ffffffff168152602001600182018054610e8090611abc565b80601f0160208091040260200160405190810160405280929190818152602001828054610eac90611abc565b8015610ef95780601f10610ece57610100808354040283529160200191610ef9565b820191906000526020600020905b815481529060010190602001808311610edc57829003601f168201915b505050505081526020016002820160009054906101000a900463ffffffff1663ffffffff1663ffffffff168152505081526020019060010190610ded565b50505050905090565b610f48611277565b6000600460ff168460ff1611610f6857610f658560ff168561108a565b90505b6040518060a001604052808660ff1681526020018560ff1681526020018263ffffffff168152602001848152602001600063ffffffff168152509150509392505050565b60008260020160009054906101000a900463ffffffff1663ffffffff161480610ff557508160020160009054906101000a900463ffffffff1663ffffffff168163ffffffff1610155b1561103d578160000160029054906101000a900463ffffffff168161101a9190611ccf565b8260020160006101000a81548163ffffffff021916908363ffffffff1602179055505b5050565b600080836080015163ffffffff16148061106b5750826080015163ffffffff168263ffffffff1610155b1561107c57600060ff169050611084565b600160ff1690505b92915050565b600080611096836110ad565b905080846110a49190611d09565b91505092915050565b6000600460ff168260ff1611156110f9576040517f08c379a00000000000000000000000000000000000000000000000000000000081526004016110f090611db9565b60405180910390fd5b600060ff168260ff1603611110576001905061115f565b600160ff168260ff160361112757603c905061115f565b600260ff168260ff160361113f57610e10905061115f565b600360ff168260ff16036111585762015180905061115f565b62093a8090505b919050565b82805461117090611abc565b90600052602060002090601f01602090048101928261119257600085556111d9565b82601f106111ab57805160ff19168380011785556111d9565b828001600101855582156111d9579182015b828111156111d85782518255916020019190600101906111bd565b5b5090506111e691906112b8565b5090565b8280546111f690611abc565b90600052602060002090601f0160209004810192826112185760008555611266565b82601f106112295780548555611266565b8280016001018555821561126657600052602060002091601f016020900482015b8281111561126557825482559160010191906001019061124a565b5b50905061127391906112b8565b5090565b6040518060a00160405280600060ff168152602001600060ff168152602001600063ffffffff16815260200160608152602001600063ffffffff1681525090565b5b808211156112d15760008160009055506001016112b9565b5090565b600081519050919050565b600082825260208201905092915050565b6000819050602082019050919050565b600081519050919050565b600082825260208201905092915050565b60005b8381101561133b578082015181840152602081019050611320565b8381111561134a576000848401525b50505050565b6000601f19601f8301169050919050565b600061136c82611301565b611376818561130c565b935061138681856020860161131d565b61138f81611350565b840191505092915050565b60006113a68383611361565b905092915050565b6000602082019050919050565b60006113c6826112d5565b6113d081856112e0565b9350836020820285016113e2856112f1565b8060005b8581101561141e57848403895281516113ff858261139a565b945061140a836113ae565b925060208a019950506001810190506113e6565b50829750879550505050505092915050565b600081519050919050565b600082825260208201905092915050565b6000819050602082019050919050565b600060ff82169050919050565b6114728161145c565b82525050565b600063ffffffff82169050919050565b61149181611478565b82525050565b600060a0830160008301516114af6000860182611469565b5060208301516114c26020860182611469565b5060408301516114d56040860182611488565b50606083015184820360608601526114ed8282611361565b91505060808301516115026080860182611488565b508091505092915050565b60006115198383611497565b905092915050565b6000602082019050919050565b600061153982611430565b611543818561143b565b9350836020820285016115558561144c565b8060005b858110156115915784840389528151611572858261150d565b945061157d83611521565b925060208a01995050600181019050611559565b50829750879550505050505092915050565b600060608201905081810360008301526115bd81866113bb565b905081810360208301526115d181856113bb565b905081810360408301526115e5818461152e565b9050949350505050565b6000604051905090565b600080fd5b600080fd5b6000819050919050565b61161681611603565b811461162157600080fd5b50565b6000813590506116338161160d565b92915050565b600080fd5b600080fd5b7f4e487b7100000000000000000000000000000000000000000000000000000000600052604160045260246000fd5b61167b82611350565b810181811067ffffffffffffffff8211171561169a57611699611643565b5b80604052505050565b60006116ad6115ef565b90506116b98282611672565b919050565b600067ffffffffffffffff8211156116d9576116d8611643565b5b6116e282611350565b9050602081019050919050565b82818337600083830152505050565b600061171161170c846116be565b6116a3565b90508281526020810184848401111561172d5761172c61163e565b5b6117388482856116ef565b509392505050565b600082601f83011261175557611754611639565b5b81356117658482602086016116fe565b91505092915050565b61177781611478565b811461178257600080fd5b50565b6000813590506117948161176e565b92915050565b600080600080608085870312156117b4576117b36115f9565b5b60006117c287828801611624565b945050602085013567ffffffffffffffff8111156117e3576117e26115fe565b5b6117ef87828801611740565b935050604085013567ffffffffffffffff8111156118105761180f6115fe565b5b61181c87828801611740565b925050606061182d87828801611785565b91505092959194509250565b60006020828403121561184f5761184e6115f9565b5b600061185d84828501611624565b91505092915050565b600060a08301600083015161187e6000860182611469565b5060208301516118916020860182611469565b5060408301516118a46040860182611488565b50606083015184820360608601526118bc8282611361565b91505060808301516118d16080860182611488565b508091505092915050565b600060208201905081810360008301526118f68184611866565b905092915050565b60008060408385031215611915576119146115f9565b5b600061192385828601611624565b925050602061193485828601611785565b9150509250929050565b60008060408385031215611955576119546115f9565b5b600083013567ffffffffffffffff811115611973576119726115fe565b5b61197f85828601611740565b925050602083013567ffffffffffffffff8111156119a05761199f6115fe565b5b6119ac85828601611740565b9150509250929050565b6119bf81611603565b82525050565b60006020820190506119da60008301846119b6565b92915050565b6000806000606084860312156119f9576119f86115f9565b5b600084013567ffffffffffffffff811115611a1757611a166115fe565b5b611a2386828701611740565b935050602084013567ffffffffffffffff811115611a4457611a436115fe565b5b611a5086828701611740565b9250506040611a6186828701611785565b9150509250925092565b60006020820190508181036000830152611a85818461152e565b905092915050565b7f4e487b7100000000000000000000000000000000000000000000000000000000600052602260045260246000fd5b60006002820490506001821680611ad457607f821691505b602082108103611ae757611ae6611a8d565b5b50919050565b600081905092915050565b6000611b0382611301565b611b0d8185611aed565b9350611b1d81856020860161131d565b80840191505092915050565b6000611b358284611af8565b915081905092915050565b7f546865206b657920000000000000000000000000000000000000000000000000600082015250565b6000611b76600883611aed565b9150611b8182611b40565b600882019050919050565b7f646f65736e27742065786973742e000000000000000000000000000000000000600082015250565b6000611bc2600e83611aed565b9150611bcd82611b8c565b600e82019050919050565b6000611be382611b69565b9150611bef8284611af8565b9150611bfa82611bb5565b915081905092915050565b600082825260208201905092915050565b6000611c2182611301565b611c2b8185611c05565b9350611c3b81856020860161131d565b611c4481611350565b840191505092915050565b60006020820190508181036000830152611c698184611c16565b905092915050565b7f4e487b7100000000000000000000000000000000000000000000000000000000600052603260045260246000fd5b7f4e487b7100000000000000000000000000000000000000000000000000000000600052601160045260246000fd5b6000611cda82611478565b9150611ce583611478565b92508263ffffffff03821115611cfe57611cfd611ca0565b5b828201905092915050565b6000611d1482611478565b9150611d1f83611478565b92508163ffffffff0483118215151615611d3c57611d3b611ca0565b5b828202905092915050565b7f546865206d6574686f642067657454696d65496e5365636f6e647320646f657360008201527f6e277420776f726b20666f72204d4f4e544820616e6420594541520000000000602082015250565b6000611da3603b83611c05565b9150611dae82611d47565b604082019050919050565b60006020820190508181036000830152611dd281611d96565b905091905056fea26469706673582212205fc5c24e1d292575e8a554646d45a51ae6ddfb0ef385572a011970ae5a26718f64736f6c634300080d0033",
  "immutableReferences": {},
  "source": "//SPDX-License-Identifier: MIT\r\n\r\npragma solidity >0.8.4 < 0.8.14;\r\n\r\nimport \"../eai/EAI.sol\";\r\n\r\ncontract SessionInterval_refCod{\r\n\r\n   using EAI for EAI.SessionInterval;\r\n    \r\n\r\n    EAI.SessionInterval[] sessionInterval;\r\n\r\n    //       k1                k2_v       value\r\n    mapping(string => mapping(string=>EAI.SessionInterval)) sessionByVar;\r\n    mapping(string => mapping(string=>bool)) exists_k1mapk2;\r\n    string[] keys_k1;  // For storing keys \r\n    string[] keys_k2;  // For storing keys\r\n    mapping (string => bool) exists_k1; // Additional Map for checking if key exists\r\n    mapping (string => bool) exists_k2; // Additional Map for checking if key exists\r\n    \r\n        \r\n    constructor(){\r\n        \r\n        sessionInterval.push(EAI.createSessionInteval(2, EAI.SECOND,\"\")); //[0]      \r\n\r\n        sessionInterval.push(EAI.createSessionInteval(2, EAI.MINUTE,\"\")); //[1]\r\n\r\n        sessionInterval.push(EAI.createSessionInteval(2, EAI.HOUR,\"\")); //[2]              \r\n\r\n        sessionInterval.push(EAI.createSessionInteval(2, EAI.DAY,\"\"));  //[3]\r\n\r\n        keys_k1.push(\"nome\"); // 0\r\n        keys_k1.push(\"cidade\");// 1\r\n        exists_k1[\"nome\"] = true;\r\n        exists_k1[\"cidade\"] = true;    \r\n        \r\n    }\r\n\r\n    // a new section will open only if there is no other section open\r\n    function startSessionByRef(uint _idSingleSession, string memory _k1, string memory _k2, uint32 _accessDateTime) public {\r\n                 \r\n        require(exists_k1[_k1], string(abi.encodePacked(\"The key \",_k1,\"doesn't exist.\")));\r\n        if(!exists_k1mapk2[_k1][_k2]){\r\n            exists_k1mapk2[_k1][_k2] = true;\r\n            keys_k2.push(_k2);\r\n            sessionByVar[_k1][_k2] = sessionInterval[_idSingleSession];\r\n        }    \r\n        sessionByVar[_k1][_k2].startNewSessionInterval(_accessDateTime);\r\n    }\r\n\r\n    // start a new  single section\r\n    function startSingleSession(uint _id, uint32 _accessDateTime) public {\r\n        sessionInterval[_id].startNewSessionInterval(_accessDateTime);\r\n    }   \r\n\r\n    // check if there is a session interval open. return 'OPEN' or 'CLOSED\"\r\n    function isTheSessionByRefOpen(string memory _k1, string memory _k2, uint32 _accessDateTime) public view returns(uint) {                                           \r\n        return   sessionByVar[_k1][_k2].sessionStatus(_accessDateTime);\r\n    }\r\n\r\n     function isTheSessionIdOpen(uint _id, uint32 _accessDateTime) public view returns(uint) {                                           \r\n        return  sessionInterval[_id].sessionStatus(_accessDateTime);\r\n    }\r\n  \r\n    function getSessionIntervalByRef(string memory _k1, string memory _k2) public view returns (EAI.SessionInterval memory){\r\n        return sessionByVar[_k1][_k2];\r\n    }\r\n\r\n    function getSessionIntervalById(uint _id) public view returns (EAI.SessionInterval memory){\r\n        return sessionInterval[_id];\r\n    }\r\n\r\n    function getAllSessionIntervalByRef() public view returns (string[] memory, string[] memory, EAI.SessionInterval[] memory){             \r\n        return (keys_k1, keys_k2, sessionInterval);\r\n    }\r\n\r\n    function getAllSingleSessionInterval() public view returns (EAI.SessionInterval[] memory){\r\n        return sessionInterval;\r\n    }\r\n\r\n}",
  "sourcePath": "C:\\git-repository\\dsl-smart-contract-eai\\02-models\\002-ProofOfConcept\\contracts\\lib\\referencesCode-eai\\010_SessionInterval_refCod.sol",
  "compiler": {
    "name": "solc",
    "version": "0.8.13+commit.abaa5c0e.Emscripten.clang"
  },
  "schemaVersion": "3.4.13",
  "updatedAt": "2023-04-24T14:54:17.160Z",
  "devdoc": {
    "kind": "dev",
    "methods": {},
    "version": 1
  },
  "userdoc": {
    "kind": "user",
    "methods": {},
    "version": 1
  }
}