{
  "contractName": "WoS_API_Expanded_basicPlan",
  "abi": [
    {
      "inputs": [
        {
          "internalType": "address",
          "name": "_applicationWallet",
          "type": "address"
        }
      ],
      "stateMutability": "nonpayable",
      "type": "constructor"
    },
    {
      "anonymous": false,
      "inputs": [
        {
          "indexed": false,
          "internalType": "string",
          "name": "_logMessage",
          "type": "string"
        }
      ],
      "name": "failEvent",
      "type": "event"
    },
    {
      "anonymous": false,
      "inputs": [
        {
          "indexed": false,
          "internalType": "string",
          "name": "_logMessage",
          "type": "string"
        }
      ],
      "name": "successEvent",
      "type": "event"
    },
    {
      "inputs": [
        {
          "internalType": "uint32",
          "name": "_accessDateTime",
          "type": "uint32"
        },
        {
          "internalType": "int256[]",
          "name": "_resultFromXpath_n",
          "type": "int256[]"
        },
        {
          "internalType": "uint256[]",
          "name": "_resultFromXpath_npt",
          "type": "uint256[]"
        }
      ],
      "name": "right_requestDocuments",
      "outputs": [
        {
          "internalType": "bool",
          "name": "",
          "type": "bool"
        }
      ],
      "stateMutability": "nonpayable",
      "type": "function"
    },
    {
      "inputs": [
        {
          "internalType": "uint32",
          "name": "_accessDateTime",
          "type": "uint32"
        }
      ],
      "name": "obligation_responseWithDocuments",
      "outputs": [
        {
          "internalType": "bool",
          "name": "",
          "type": "bool"
        }
      ],
      "stateMutability": "nonpayable",
      "type": "function"
    },
    {
      "inputs": [],
      "name": "signContract",
      "outputs": [
        {
          "internalType": "bool",
          "name": "",
          "type": "bool"
        }
      ],
      "stateMutability": "nonpayable",
      "type": "function"
    },
    {
      "inputs": [
        {
          "internalType": "string",
          "name": "_name",
          "type": "string"
        },
        {
          "internalType": "address",
          "name": "_walletAddress",
          "type": "address"
        }
      ],
      "name": "changeApplicationParty",
      "outputs": [
        {
          "internalType": "bool",
          "name": "",
          "type": "bool"
        }
      ],
      "stateMutability": "nonpayable",
      "type": "function"
    },
    {
      "inputs": [],
      "name": "getProcessAddress",
      "outputs": [
        {
          "internalType": "address",
          "name": "",
          "type": "address"
        }
      ],
      "stateMutability": "view",
      "type": "function"
    },
    {
      "inputs": [],
      "name": "getApplicationAddress",
      "outputs": [
        {
          "internalType": "address",
          "name": "",
          "type": "address"
        }
      ],
      "stateMutability": "view",
      "type": "function"
    },
    {
      "inputs": [
        {
          "internalType": "address",
          "name": "_walletAddress",
          "type": "address"
        }
      ],
      "name": "getParty",
      "outputs": [
        {
          "components": [
            {
              "internalType": "string",
              "name": "name",
              "type": "string"
            },
            {
              "internalType": "address",
              "name": "walletAddress",
              "type": "address"
            },
            {
              "internalType": "bool",
              "name": "aware",
              "type": "bool"
            }
          ],
          "internalType": "struct EAI.Party",
          "name": "",
          "type": "tuple"
        }
      ],
      "stateMutability": "view",
      "type": "function"
    }
  ],
  "bytecode": "0x60806040523480156200001157600080fd5b506040516200420e3803806200420e833981810160405281019062000037919062000df0565b60016000806101000a81548160ff0219169083151502179055506363b13d80600060016101000a81548163ffffffff021916908363ffffffff160217905550636591ac20600060056101000a81548163ffffffff021916908363ffffffff160217905550620000e96040518060400160405280600e81526020017f576562204f6620536369656e63650000000000000000000000000000000000008152508260006200084f60201b6200104d1760201c565b600160008201518160000190805190602001906200010992919062000b20565b5060208201518160010160006101000a81548173ffffffffffffffffffffffffffffffffffffffff021916908373ffffffffffffffffffffffffffffffffffffffff16021790555060408201518160010160146101000a81548160ff021916908315150217905550905050620001c26040518060400160405280601381526020017f496e746567726174696f6e2050726f63657373000000000000000000000000008152503360016200084f60201b6200104d1760201c565b60036000820151816000019080519060200190620001e292919062000b20565b5060208201518160010160006101000a81548173ffffffffffffffffffffffffffffffffffffffff021916908373ffffffffffffffffffffffffffffffffffffffff16021790555060408201518160010160146101000a81548160ff0219169083151502179055509050506003600560003373ffffffffffffffffffffffffffffffffffffffff1673ffffffffffffffffffffffffffffffffffffffff1681526020019081526020016000206000820181600001908054620002a49062000e51565b620002b192919062000bb1565b506001820160009054906101000a900473ffffffffffffffffffffffffffffffffffffffff168160010160006101000a81548173ffffffffffffffffffffffffffffffffffffffff021916908373ffffffffffffffffffffffffffffffffffffffff1602179055506001820160149054906101000a900460ff168160010160146101000a81548160ff0219169083151502179055509050506001600560008373ffffffffffffffffffffffffffffffffffffffff1673ffffffffffffffffffffffffffffffffffffffff1681526020019081526020016000206000820181600001908054620003a09062000e51565b620003ad92919062000bb1565b506001820160009054906101000a900473ffffffffffffffffffffffffffffffffffffffff168160010160006101000a81548173ffffffffffffffffffffffffffffffffffffffff021916908373ffffffffffffffffffffffffffffffffffffffff1602179055506001820160149054906101000a900460ff168160010160146101000a81548160ff021916908315150217905550905050600662000460600260006200089560201b620010911760201c565b9080600181540180825580915050600190039060005260206000200160009091909190915060008201518160000160006101000a81548163ffffffff021916908363ffffffff16021790555060208201518160000160046101000a81548160ff021916908360ff16021790555060408201518160000160056101000a81548163ffffffff021916908363ffffffff16021790555060608201518160000160096101000a81548163ffffffff021916908363ffffffff160217905550608082015181600001600d6101000a81548163ffffffff021916908363ffffffff16021790555050506007620005c96040518060400160405280601681526020017f636f756e74282f2f626f64792f646f63756d656e7429000000000000000000008152506040518060400160405280600281526020017f3c3d00000000000000000000000000000000000000000000000000000000000081525060646200091a60201b6200110a1760201c565b908060018154018082558091505060019003906000526020600020906003020160009091909190915060008201518160000190805190602001906200061092919062000b20565b5060208201518160010190805190602001906200062f92919062000b20565b506040820151816002015550506008620006c46040518060400160405280601681526020017f636f756e74282f2f626f64792f646f63756d656e7429000000000000000000008152506040518060400160405280600281526020017f3c3d00000000000000000000000000000000000000000000000000000000000081525061c35060056200094860201b620011361760201c565b908060018154018082558091505060019003906000526020600020906007020160009091909190915060008201518160000190805190602001906200070b92919062000b20565b5060208201518160010190805190602001906200072a92919062000b20565b506040820151816002015560608201518160030160006101000a81548160ff021916908360ff16021790555060808201518160030160016101000a81548163ffffffff021916908363ffffffff16021790555060a0820151816004015560c08201518160050160006101000a81548163ffffffff021916908363ffffffff16021790555060e0820151816006015550506009620007d3603c62000a2b60201b6200120a1760201c565b9080600181540180825580915050600190039060005260206000200160009091909190915060008201518160000160006101000a81548163ffffffff021916908363ffffffff16021790555060208201518160000160046101000a81548163ffffffff021916908363ffffffff16021790555050505062000fa3565b6200085962000c49565b60405180606001604052808581526020018473ffffffffffffffffffffffffffffffffffffffff16815260200183151581525090509392505050565b6200089f62000c82565b6000600460ff168360ff1611620008c957620008c18362000a5e60201b60201c565b9050620008ce565b600190505b6040518060a001604052808563ffffffff1681526020018460ff1681526020018263ffffffff1681526020018563ffffffff168152602001600063ffffffff1681525091505092915050565b6200092462000ccc565b60405180606001604052808581526020018481526020018381525090509392505050565b6200095262000ced565b6000600460ff168360ff16116200097c57620009748362000a5e60201b60201c565b905062000981565b600190505b6001855103620009d5576040518060400160405280600281526020017f3c3d0000000000000000000000000000000000000000000000000000000000008152509450600184620009d2919062000ebf565b93505b6040518061010001604052808781526020018681526020018581526020018460ff1681526020018263ffffffff168152602001858152602001600063ffffffff1681526020016000815250915050949350505050565b62000a3562000d41565b6040518060400160405280600063ffffffff1681526020018363ffffffff168152509050919050565b6000600460ff168260ff16111562000aad576040517f08c379a000000000000000000000000000000000000000000000000000000000815260040162000aa49062000f81565b60405180910390fd5b600060ff168260ff160362000ac6576001905062000b1b565b600160ff168260ff160362000adf57603c905062000b1b565b600260ff168260ff160362000af957610e10905062000b1b565b600360ff168260ff160362000b145762015180905062000b1b565b62093a8090505b919050565b82805462000b2e9062000e51565b90600052602060002090601f01602090048101928262000b52576000855562000b9e565b82601f1062000b6d57805160ff191683800117855562000b9e565b8280016001018555821562000b9e579182015b8281111562000b9d57825182559160200191906001019062000b80565b5b50905062000bad919062000d67565b5090565b82805462000bbf9062000e51565b90600052602060002090601f01602090048101928262000be3576000855562000c36565b82601f1062000bf6578054855562000c36565b8280016001018555821562000c3657600052602060002091601f016020900482015b8281111562000c3557825482559160010191906001019062000c18565b5b50905062000c45919062000d67565b5090565b604051806060016040528060608152602001600073ffffffffffffffffffffffffffffffffffffffff1681526020016000151581525090565b6040518060a00160405280600063ffffffff168152602001600060ff168152602001600063ffffffff168152602001600063ffffffff168152602001600063ffffffff1681525090565b60405180606001604052806060815260200160608152602001600081525090565b604051806101000160405280606081526020016060815260200160008152602001600060ff168152602001600063ffffffff16815260200160008152602001600063ffffffff168152602001600081525090565b6040518060400160405280600063ffffffff168152602001600063ffffffff1681525090565b5b8082111562000d8257600081600090555060010162000d68565b5090565b600080fd5b600073ffffffffffffffffffffffffffffffffffffffff82169050919050565b600062000db88262000d8b565b9050919050565b62000dca8162000dab565b811462000dd657600080fd5b50565b60008151905062000dea8162000dbf565b92915050565b60006020828403121562000e095762000e0862000d86565b5b600062000e198482850162000dd9565b91505092915050565b7f4e487b7100000000000000000000000000000000000000000000000000000000600052602260045260246000fd5b6000600282049050600182168062000e6a57607f821691505b60208210810362000e805762000e7f62000e22565b5b50919050565b6000819050919050565b7f4e487b7100000000000000000000000000000000000000000000000000000000600052601160045260246000fd5b600062000ecc8262000e86565b915062000ed98362000e86565b92508282101562000eef5762000eee62000e90565b5b828203905092915050565b600082825260208201905092915050565b7f546865206d6574686f642067657454696d65496e5365636f6e647320646f657360008201527f6e277420776f726b20666f72204d4f4e544820616e6420594541520000000000602082015250565b600062000f69603b8362000efa565b915062000f768262000f0b565b604082019050919050565b6000602082019050818103600083015262000f9c8162000f5a565b9050919050565b61325b8062000fb36000396000f3fe608060405234801561001057600080fd5b506004361061007d5760003560e01c8063b8b4f1a01161005b578063b8b4f1a0146100ee578063dd46f3641461010c578063e67fa5661461013c578063fb6f82431461016c5761007d565b80635e744c6a1461008257806370d8915a146100b257806385931911146100d0575b600080fd5b61009c60048036038101906100979190612307565b61019c565b6040516100a9919061237e565b60405180910390f35b6100ba61038d565b6040516100c791906123a8565b60405180910390f35b6100d86104f4565b6040516100e591906123a8565b60405180910390f35b6100f661065c565b604051610103919061237e565b60405180910390f35b610126600480360381019061012191906123ff565b6107c6565b604051610133919061237e565b60405180910390f35b61015660048036038101906101519190612623565b610a03565b604051610163919061237e565b60405180910390f35b610186600480360381019061018191906126ae565b610db7565b60405161019391906127d1565b60405180910390f35b60003373ffffffffffffffffffffffffffffffffffffffff16600360010160009054906101000a900473ffffffffffffffffffffffffffffffffffffffff1673ffffffffffffffffffffffffffffffffffffffff1614610231576040517f08c379a000000000000000000000000000000000000000000000000000000000815260040161022890612876565b60405180910390fd5b600560006001800160009054906101000a900473ffffffffffffffffffffffffffffffffffffffff1673ffffffffffffffffffffffffffffffffffffffff1673ffffffffffffffffffffffffffffffffffffffff168152602001908152602001600020600080820160006102a59190611ec1565b6001820160006101000a81549073ffffffffffffffffffffffffffffffffffffffff02191690556001820160146101000a81549060ff021916905550506102ee8383600061104d565b6001600082015181600001908051906020019061030c929190611f01565b5060208201518160010160006101000a81548173ffffffffffffffffffffffffffffffffffffffff021916908373ffffffffffffffffffffffffffffffffffffffff16021790555060408201518160010160146101000a81548160ff02191690831515021790555090505061038282600161123b565b506001905092915050565b60008060009054906101000a900460ff166103dd576040517f08c379a00000000000000000000000000000000000000000000000000000000081526004016103d4906128e2565b60405180910390fd5b3373ffffffffffffffffffffffffffffffffffffffff166001800160009054906101000a900473ffffffffffffffffffffffffffffffffffffffff1673ffffffffffffffffffffffffffffffffffffffff16148061048b57503373ffffffffffffffffffffffffffffffffffffffff16600360010160009054906101000a900473ffffffffffffffffffffffffffffffffffffffff1673ffffffffffffffffffffffffffffffffffffffff16145b6104ca576040517f08c379a00000000000000000000000000000000000000000000000000000000081526004016104c190612974565b60405180910390fd5b6001800160009054906101000a900473ffffffffffffffffffffffffffffffffffffffff16905090565b60008060009054906101000a900460ff16610544576040517f08c379a000000000000000000000000000000000000000000000000000000000815260040161053b906128e2565b60405180910390fd5b3373ffffffffffffffffffffffffffffffffffffffff166001800160009054906101000a900473ffffffffffffffffffffffffffffffffffffffff1673ffffffffffffffffffffffffffffffffffffffff1614806105f257503373ffffffffffffffffffffffffffffffffffffffff16600360010160009054906101000a900473ffffffffffffffffffffffffffffffffffffffff1673ffffffffffffffffffffffffffffffffffffffff16145b610631576040517f08c379a000000000000000000000000000000000000000000000000000000000815260040161062890612974565b60405180910390fd5b600360010160009054906101000a900473ffffffffffffffffffffffffffffffffffffffff16905090565b60008060009054906101000a900460ff166106ac576040517f08c379a00000000000000000000000000000000000000000000000000000000081526004016106a3906128e2565b60405180910390fd5b3373ffffffffffffffffffffffffffffffffffffffff166001800160009054906101000a900473ffffffffffffffffffffffffffffffffffffffff1673ffffffffffffffffffffffffffffffffffffffff161461073e576040517f08c379a000000000000000000000000000000000000000000000000000000000815260040161073590612a06565b60405180910390fd5b600015156001800160149054906101000a900460ff16151514610796576040517f08c379a000000000000000000000000000000000000000000000000000000000815260040161078d90612a72565b60405180910390fd5b60018060010160146101000a81548160ff0219169083151502179055506107be33600161123b565b506001905090565b60008060009054906101000a900460ff16610816576040517f08c379a000000000000000000000000000000000000000000000000000000000815260040161080d906128e2565b60405180910390fd5b3373ffffffffffffffffffffffffffffffffffffffff166001800160009054906101000a900473ffffffffffffffffffffffffffffffffffffffff1673ffffffffffffffffffffffffffffffffffffffff16146108a8576040517f08c379a000000000000000000000000000000000000000000000000000000000815260040161089f90612a06565b60405180910390fd5b6109308260096000815481106108c1576108c0612a92565b5b906000526020600020016040518060400160405290816000820160009054906101000a900463ffffffff1663ffffffff1663ffffffff1681526020016000820160049054906101000a900463ffffffff1663ffffffff1663ffffffff168152505061133e90919063ffffffff16565b6109c4577f95a1f3a1dafdd4c1af344e3d7c69a72cbce8a3f15fe1cf95a7f5bd23df2e71a160405161096190612b0d565b60405180910390a1610990600660008154811061098157610980612a92565b5b906000526020600020016113cd565b6109bb60086000815481106109a8576109a7612a92565b5b9060005260206000209060070201611412565b600190506109fe565b7f66091b7dc2b097c8f60d5cd6aa99633b097f08d2eb1056f3e15361b22e0ea2ba6040516109f190612b79565b60405180910390a1600090505b919050565b60008060009054906101000a900460ff16610a53576040517f08c379a0000000000000000000000000000000000000000000000000000000008152600401610a4a906128e2565b60405180910390fd5b3373ffffffffffffffffffffffffffffffffffffffff16600360010160009054906101000a900473ffffffffffffffffffffffffffffffffffffffff1673ffffffffffffffffffffffffffffffffffffffff1614610ae6576040517f08c379a0000000000000000000000000000000000000000000000000000000008152600401610add90612876565b60405180910390fd5b610b17846006600081548110610aff57610afe612a92565b5b906000526020600020016114d090919063ffffffff16565b8015610ca85750610ca783600081518110610b3557610b34612a92565b5b60200260200101516007600081548110610b5257610b51612a92565b5b9060005260206000209060030201604051806060016040529081600082018054610b7b90612bc8565b80601f0160208091040260200160405190810160405280929190818152602001828054610ba790612bc8565b8015610bf45780601f10610bc957610100808354040283529160200191610bf4565b820191906000526020600020905b815481529060010190602001808311610bd757829003601f168201915b50505050508152602001600182018054610c0d90612bc8565b80601f0160208091040260200160405190810160405280929190818152602001828054610c3990612bc8565b8015610c865780601f10610c5b57610100808354040283529160200191610c86565b820191906000526020600020905b815481529060010190602001808311610c6957829003601f168201915b5050505050815260200160028201548152505061154990919063ffffffff16565b5b8015610d025750610d018483600081518110610cc757610cc6612a92565b5b60200260200101516008600081548110610ce457610ce3612a92565b5b906000526020600020906007020161173b9092919063ffffffff16565b5b15610d7657610d38846009600081548110610d2057610d1f612a92565b5b9060005260206000200161183d90919063ffffffff16565b7f95a1f3a1dafdd4c1af344e3d7c69a72cbce8a3f15fe1cf95a7f5bd23df2e71a1604051610d6590612b0d565b60405180910390a160019050610db0565b7f66091b7dc2b097c8f60d5cd6aa99633b097f08d2eb1056f3e15361b22e0ea2ba604051610da390612c45565b60405180910390a1600090505b9392505050565b610dbf611f87565b60008054906101000a900460ff16610e0c576040517f08c379a0000000000000000000000000000000000000000000000000000000008152600401610e03906128e2565b60405180910390fd5b3373ffffffffffffffffffffffffffffffffffffffff166001800160009054906101000a900473ffffffffffffffffffffffffffffffffffffffff1673ffffffffffffffffffffffffffffffffffffffff161480610eba57503373ffffffffffffffffffffffffffffffffffffffff16600360010160009054906101000a900473ffffffffffffffffffffffffffffffffffffffff1673ffffffffffffffffffffffffffffffffffffffff16145b610ef9576040517f08c379a0000000000000000000000000000000000000000000000000000000008152600401610ef090612974565b60405180910390fd5b600560008373ffffffffffffffffffffffffffffffffffffffff1673ffffffffffffffffffffffffffffffffffffffff168152602001908152602001600020604051806060016040529081600082018054610f5390612bc8565b80601f0160208091040260200160405190810160405280929190818152602001828054610f7f90612bc8565b8015610fcc5780601f10610fa157610100808354040283529160200191610fcc565b820191906000526020600020905b815481529060010190602001808311610faf57829003601f168201915b505050505081526020016001820160009054906101000a900473ffffffffffffffffffffffffffffffffffffffff1673ffffffffffffffffffffffffffffffffffffffff1673ffffffffffffffffffffffffffffffffffffffff1681526020016001820160149054906101000a900460ff1615151515815250509050919050565b611055611f87565b60405180606001604052808581526020018473ffffffffffffffffffffffffffffffffffffffff16815260200183151581525090509392505050565b611099611fc0565b6000600460ff168360ff16116110b9576110b2836118a8565b90506110be565b600190505b6040518060a001604052808563ffffffff1681526020018460ff1681526020018263ffffffff1681526020018563ffffffff168152602001600063ffffffff1681525091505092915050565b61111261200a565b60405180606001604052808581526020018481526020018381525090509392505050565b61113e61202b565b6000600460ff168360ff161161115e57611157836118a8565b9050611163565b600190505b60018551036111b4576040518060400160405280600281526020017f3c3d00000000000000000000000000000000000000000000000000000000000081525094506001846111b19190612c94565b93505b6040518061010001604052808781526020018681526020018581526020018460ff1681526020018263ffffffff168152602001858152602001600063ffffffff1681526020016000815250915050949350505050565b61121261207f565b6040518060400160405280600063ffffffff1681526020018363ffffffff168152509050919050565b600081600560008573ffffffffffffffffffffffffffffffffffffffff1673ffffffffffffffffffffffffffffffffffffffff168152602001908152602001600020600082018160000190805461129190612bc8565b61129c9291906120a5565b506001820160009054906101000a900473ffffffffffffffffffffffffffffffffffffffff168160010160006101000a81548173ffffffffffffffffffffffffffffffffffffffff021916908373ffffffffffffffffffffffffffffffffffffffff1602179055506001820160149054906101000a900460ff168160010160146101000a81548160ff0219169083151502179055509050506001905092915050565b60008160006113528263ffffffff1661195f565b9050600a8151111561136357600080fd5b6000856000015163ffffffff16116113b0576040517f08c379a00000000000000000000000000000000000000000000000000000000081526004016113a790612d3a565b60405180910390fd5b846000015163ffffffff168463ffffffff16119250505092915050565b60018160000160098282829054906101000a900463ffffffff166113f19190612d5a565b92506101000a81548163ffffffff021916908363ffffffff16021790555050565b6000816006015411611459576040517f08c379a000000000000000000000000000000000000000000000000000000000815260040161145090612dda565b60405180910390fd5b8060040154816006015411156114a4576040517f08c379a000000000000000000000000000000000000000000000000000000000815260040161149b90612e6c565b60405180910390fd5b80600601548160040160008282546114bc9190612c94565b925050819055506000816006018190555050565b60006115028360000160049054906101000a900460ff1684600001600d9054906101000a900463ffffffff1684611abf565b15611512576115118383611b84565b5b60008360000160099054906101000a900463ffffffff1663ffffffff16111561153e5760019050611543565b600090505b92915050565b60008083602001519050602160f81b8160008151811061156c5761156b612a92565b5b602001015160f81c60f81b7effffffffffffffffffffffffffffffffffffffffffffffffffffffffffffff1916036115ae578360400151831415915050611735565b603d60f81b816000815181106115c7576115c6612a92565b5b602001015160f81c60f81b7effffffffffffffffffffffffffffffffffffffffffffffffffffffffffffff1916036116085783604001518314915050611735565b603c60f81b8160008151811061162157611620612a92565b5b602001015160f81c60f81b7effffffffffffffffffffffffffffffffffffffffffffffffffffffffffffff19160361167b57600281510361166c578360400151831315915050611735565b83604001518312915050611735565b603e60f81b8160008151811061169457611693612a92565b5b602001015160f81c60f81b7effffffffffffffffffffffffffffffffffffffffffffffffffffffffffffff1916036116ee5760028151036116df578360400151831215915050611735565b83604001518313915050611735565b600061172f576040517f08c379a000000000000000000000000000000000000000000000000000000000815260040161172690612ed8565b60405180910390fd5b60009150505b92915050565b600080821161177f576040517f08c379a000000000000000000000000000000000000000000000000000000000815260040161177690612f6a565b60405180910390fd5b6117af8460030160009054906101000a900460ff168560050160009054906101000a900463ffffffff1685611abf565b1561181457836002015484600401819055506117f18460030160019054906101000a900463ffffffff168560030160009054906101000a900460ff1685611c11565b8460050160006101000a81548163ffffffff021916908363ffffffff1602179055505b836004015482116118315781846006018190555060019050611836565b600090505b9392505050565b80600061184f8263ffffffff1661195f565b9050600a8151111561186057600080fd5b8360000160049054906101000a900463ffffffff16836118809190612f8a565b8460000160006101000a81548163ffffffff021916908363ffffffff16021790555050505050565b6000600460ff168260ff1611156118f4576040517f08c379a00000000000000000000000000000000000000000000000000000000081526004016118eb90613036565b60405180910390fd5b600060ff168260ff160361190b576001905061195a565b600160ff168260ff160361192257603c905061195a565b600260ff168260ff160361193a57610e10905061195a565b600360ff168260ff16036119535762015180905061195a565b62093a8090505b919050565b6060600082036119a6576040518060400160405280600181526020017f30000000000000000000000000000000000000000000000000000000000000008152509050611aba565b600082905060005b600082146119d85780806119c190613056565b915050600a826119d191906130cd565b91506119ae565b60008167ffffffffffffffff8111156119f4576119f361217e565b5b6040519080825280601f01601f191660200182016040528015611a265781602001600182028036833780820191505090505b5090505b60008514611ab357600182611a3f9190612c94565b9150600a85611a4e91906130fe565b6030611a5a919061312f565b60f81b818381518110611a7057611a6f612a92565b5b60200101907effffffffffffffffffffffffffffffffffffffffffffffffffffffffffffff1916908160001a905350600a85611aac91906130cd565b9450611a2a565b8093505050505b919050565b600080849050600460ff168160ff1611611aeb578363ffffffff168363ffffffff161015915050611b7d565b600560ff168160ff1603611b53576000611b0a8463ffffffff16611ca4565b50915050600d8563ffffffff16148015611b2a575060018163ffffffff16145b15611b3a57600192505050611b7d565b8463ffffffff168163ffffffff16101592505050611b7d565b6000611b648463ffffffff16611ca4565b505090508463ffffffff168163ffffffff161015925050505b9392505050565b8160000160009054906101000a900463ffffffff168260000160096101000a81548163ffffffff021916908363ffffffff160217905550611beb8260000160059054906101000a900463ffffffff168360000160049054906101000a900460ff1683611c11565b82600001600d6101000a81548163ffffffff021916908363ffffffff1602179055505050565b6000600460ff168360ff1611611c3357611c2c838386611e57565b9050611c9d565b600560ff168360ff1603611c71576000611c528363ffffffff16611ca4565b5063ffffffff16915050600181611c69919061312f565b915050611c9d565b6000611c828363ffffffff16611ca4565b505063ffffffff169050600181611c99919061312f565b9150505b9392505050565b6000806000806201518063ffffffff1685611cbf91906130cd565b9050600062253d8c62010bd983611cd69190612f8a565b611ce09190612f8a565b9050600062023ab1826004611cf59190613185565b611cff91906131c3565b9050600460038262023ab1611d149190613185565b611d1e9190612f8a565b611d2891906131c3565b82611d339190612d5a565b9150600062164b09600184611d489190612f8a565b610fa0611d559190613185565b611d5f91906131c3565b9050601f6004826105b5611d739190613185565b611d7d91906131c3565b84611d889190612d5a565b611d929190612f8a565b9250600061098f846050611da69190613185565b611db091906131c3565b9050600060508261098f611dc49190613185565b611dce91906131c3565b85611dd99190612d5a565b9050600b82611de891906131c3565b945084600c611df79190613185565b600283611e049190612f8a565b611e0e9190612d5a565b91508483603186611e1f9190612d5a565b6064611e2b9190613185565b611e359190612f8a565b611e3f9190612f8a565b92508298508197508096505050505050509193909250565b6000808284611e6691906131f4565b905060008184611e769190612d5a565b9050600460ff168660ff1603611ea9576203f4808186611e969190612f8a565b611ea09190612f8a565b92505050611eba565b8085611eb59190612f8a565b925050505b9392505050565b508054611ecd90612bc8565b6000825580601f10611edf5750611efe565b601f016020900490600052602060002090810190611efd9190612132565b5b50565b828054611f0d90612bc8565b90600052602060002090601f016020900481019282611f2f5760008555611f76565b82601f10611f4857805160ff1916838001178555611f76565b82800160010185558215611f76579182015b82811115611f75578251825591602001919060010190611f5a565b5b509050611f839190612132565b5090565b604051806060016040528060608152602001600073ffffffffffffffffffffffffffffffffffffffff1681526020016000151581525090565b6040518060a00160405280600063ffffffff168152602001600060ff168152602001600063ffffffff168152602001600063ffffffff168152602001600063ffffffff1681525090565b60405180606001604052806060815260200160608152602001600081525090565b604051806101000160405280606081526020016060815260200160008152602001600060ff168152602001600063ffffffff16815260200160008152602001600063ffffffff168152602001600081525090565b6040518060400160405280600063ffffffff168152602001600063ffffffff1681525090565b8280546120b190612bc8565b90600052602060002090601f0160209004810192826120d35760008555612121565b82601f106120e45780548555612121565b8280016001018555821561212157600052602060002091601f016020900482015b82811115612120578254825591600101919060010190612105565b5b50905061212e9190612132565b5090565b5b8082111561214b576000816000905550600101612133565b5090565b6000604051905090565b600080fd5b600080fd5b600080fd5b600080fd5b6000601f19601f8301169050919050565b7f4e487b7100000000000000000000000000000000000000000000000000000000600052604160045260246000fd5b6121b68261216d565b810181811067ffffffffffffffff821117156121d5576121d461217e565b5b80604052505050565b60006121e861214f565b90506121f482826121ad565b919050565b600067ffffffffffffffff8211156122145761221361217e565b5b61221d8261216d565b9050602081019050919050565b82818337600083830152505050565b600061224c612247846121f9565b6121de565b90508281526020810184848401111561226857612267612168565b5b61227384828561222a565b509392505050565b600082601f8301126122905761228f612163565b5b81356122a0848260208601612239565b91505092915050565b600073ffffffffffffffffffffffffffffffffffffffff82169050919050565b60006122d4826122a9565b9050919050565b6122e4816122c9565b81146122ef57600080fd5b50565b600081359050612301816122db565b92915050565b6000806040838503121561231e5761231d612159565b5b600083013567ffffffffffffffff81111561233c5761233b61215e565b5b6123488582860161227b565b9250506020612359858286016122f2565b9150509250929050565b60008115159050919050565b61237881612363565b82525050565b6000602082019050612393600083018461236f565b92915050565b6123a2816122c9565b82525050565b60006020820190506123bd6000830184612399565b92915050565b600063ffffffff82169050919050565b6123dc816123c3565b81146123e757600080fd5b50565b6000813590506123f9816123d3565b92915050565b60006020828403121561241557612414612159565b5b6000612423848285016123ea565b91505092915050565b600067ffffffffffffffff8211156124475761244661217e565b5b602082029050602081019050919050565b600080fd5b6000819050919050565b6124708161245d565b811461247b57600080fd5b50565b60008135905061248d81612467565b92915050565b60006124a66124a18461242c565b6121de565b905080838252602082019050602084028301858111156124c9576124c8612458565b5b835b818110156124f257806124de888261247e565b8452602084019350506020810190506124cb565b5050509392505050565b600082601f83011261251157612510612163565b5b8135612521848260208601612493565b91505092915050565b600067ffffffffffffffff8211156125455761254461217e565b5b602082029050602081019050919050565b6000819050919050565b61256981612556565b811461257457600080fd5b50565b60008135905061258681612560565b92915050565b600061259f61259a8461252a565b6121de565b905080838252602082019050602084028301858111156125c2576125c1612458565b5b835b818110156125eb57806125d78882612577565b8452602084019350506020810190506125c4565b5050509392505050565b600082601f83011261260a57612609612163565b5b813561261a84826020860161258c565b91505092915050565b60008060006060848603121561263c5761263b612159565b5b600061264a868287016123ea565b935050602084013567ffffffffffffffff81111561266b5761266a61215e565b5b612677868287016124fc565b925050604084013567ffffffffffffffff8111156126985761269761215e565b5b6126a4868287016125f5565b9150509250925092565b6000602082840312156126c4576126c3612159565b5b60006126d2848285016122f2565b91505092915050565b600081519050919050565b600082825260208201905092915050565b60005b838110156127155780820151818401526020810190506126fa565b83811115612724576000848401525b50505050565b6000612735826126db565b61273f81856126e6565b935061274f8185602086016126f7565b6127588161216d565b840191505092915050565b61276c816122c9565b82525050565b61277b81612363565b82525050565b6000606083016000830151848203600086015261279e828261272a565b91505060208301516127b36020860182612763565b5060408301516127c66040860182612772565b508091505092915050565b600060208201905081810360008301526127eb8184612781565b905092915050565b600082825260208201905092915050565b7f4f6e6c79207468652070726f636573732063616e20657865637574652074686960008201527f73206f7065726174696f6e000000000000000000000000000000000000000000602082015250565b6000612860602b836127f3565b915061286b82612804565b604082019050919050565b6000602082019050818103600083015261288f81612853565b9050919050565b7f5468697320636f6e747261637420697320646561637469766174656400000000600082015250565b60006128cc601c836127f3565b91506128d782612896565b602082019050919050565b600060208201905081810360008301526128fb816128bf565b9050919050565b7f4f6e6c79207468652070726f63657373206f7220746865206170706c6963617460008201527f696f6e2063616e20657865637574652074686973206f7065726174696f6e0000602082015250565b600061295e603e836127f3565b915061296982612902565b604082019050919050565b6000602082019050818103600083015261298d81612951565b9050919050565b7f4f6e6c7920746865206170706c69636174696f6e2063616e206578656375746560008201527f2074686973206f7065726174696f6e0000000000000000000000000000000000602082015250565b60006129f0602f836127f3565b91506129fb82612994565b604082019050919050565b60006020820190508181036000830152612a1f816129e3565b9050919050565b7f54686520636f6e747261637420697320616c7265616479207369676e65640000600082015250565b6000612a5c601e836127f3565b9150612a6782612a26565b602082019050919050565b60006020820190508181036000830152612a8b81612a4f565b9050919050565b7f4e487b7100000000000000000000000000000000000000000000000000000000600052603260045260246000fd5b7f5375636365737366756c20657865637574696f6e210000000000000000000000600082015250565b6000612af76015836127f3565b9150612b0282612ac1565b602082019050919050565b60006020820190508181036000830152612b2681612aea565b9050919050565b7f436f6e646974696f6e206e6f74206d6565740000000000000000000000000000600082015250565b6000612b636012836127f3565b9150612b6e82612b2d565b602082019050919050565b60006020820190508181036000830152612b9281612b56565b9050919050565b7f4e487b7100000000000000000000000000000000000000000000000000000000600052602260045260246000fd5b60006002820490506001821680612be057607f821691505b602082108103612bf357612bf2612b99565b5b50919050565b7f45786365646564206e756d626572206f6620646f6375656d6e74730000000000600082015250565b6000612c2f601b836127f3565b9150612c3a82612bf9565b602082019050919050565b60006020820190508181036000830152612c5e81612c22565b9050919050565b7f4e487b7100000000000000000000000000000000000000000000000000000000600052601160045260246000fd5b6000612c9f82612556565b9150612caa83612556565b925082821015612cbd57612cbc612c65565b5b828203905092915050565b7f5468657265206973206e6f20656e6454696d652073657420696e2074696d656f60008201527f7574000000000000000000000000000000000000000000000000000000000000602082015250565b6000612d246022836127f3565b9150612d2f82612cc8565b604082019050919050565b60006020820190508181036000830152612d5381612d17565b9050919050565b6000612d65826123c3565b9150612d70836123c3565b925082821015612d8357612d82612c65565b5b828203905092915050565b7f546865726520696e206e6f20636f6e74656e7420746f2064656372656173652e600082015250565b6000612dc46020836127f3565b9150612dcf82612d8e565b602082019050919050565b60006020820190508181036000830152612df381612db7565b9050919050565b7f546865206d65737361676520636f6e74656e74206e756d62657220697320677260008201527f6561746572207468616e207468652072656d61696e696e6720616d6f756e7400602082015250565b6000612e56603f836127f3565b9150612e6182612dfa565b604082019050919050565b60006020820190508181036000830152612e8581612e49565b9050919050565b7f436f6d70617269736f6e2073796d626f6c206973206e6f742076616c69640000600082015250565b6000612ec2601e836127f3565b9150612ecd82612e8c565b602082019050919050565b60006020820190508181036000830152612ef181612eb5565b9050919050565b7f54686520726573756c74206f66207468652078706174682073686f756c64206260008201527f65206d6f7265207468616e203000000000000000000000000000000000000000602082015250565b6000612f54602d836127f3565b9150612f5f82612ef8565b604082019050919050565b60006020820190508181036000830152612f8381612f47565b9050919050565b6000612f95826123c3565b9150612fa0836123c3565b92508263ffffffff03821115612fb957612fb8612c65565b5b828201905092915050565b7f546865206d6574686f642067657454696d65496e5365636f6e647320646f657360008201527f6e277420776f726b20666f72204d4f4e544820616e6420594541520000000000602082015250565b6000613020603b836127f3565b915061302b82612fc4565b604082019050919050565b6000602082019050818103600083015261304f81613013565b9050919050565b600061306182612556565b91507fffffffffffffffffffffffffffffffffffffffffffffffffffffffffffffffff820361309357613092612c65565b5b600182019050919050565b7f4e487b7100000000000000000000000000000000000000000000000000000000600052601260045260246000fd5b60006130d882612556565b91506130e383612556565b9250826130f3576130f261309e565b5b828204905092915050565b600061310982612556565b915061311483612556565b9250826131245761312361309e565b5b828206905092915050565b600061313a82612556565b915061314583612556565b9250827fffffffffffffffffffffffffffffffffffffffffffffffffffffffffffffffff0382111561317a57613179612c65565b5b828201905092915050565b6000613190826123c3565b915061319b836123c3565b92508163ffffffff04831182151516156131b8576131b7612c65565b5b828202905092915050565b60006131ce826123c3565b91506131d9836123c3565b9250826131e9576131e861309e565b5b828204905092915050565b60006131ff826123c3565b915061320a836123c3565b92508261321a5761321961309e565b5b82820690509291505056fea2646970667358221220f82a3d83ca5a02a8e8144952589a72aecfce32722400d67d9fe8181e61a9233f64736f6c634300080d0033",
  "immutableReferences": {},
  "source": "/* ========================== BEGIN: code for all contracts ====================== */\r\n//SPDX-License-Identifier: MIT\r\npragma solidity >0.8.4 < 0.8.14;\r\n\r\nimport \"../../lib/eai/EAI.sol\";\r\n\r\ncontract WoS_API_Expanded_basicPlan {\r\n\r\n    bool activated;\r\n \r\n    uint32 beginDate; \r\n\tuint32 dueDate; \t\r\n    using EAI for EAI.Party;\r\n       \r\n    EAI.Party application;\r\n    EAI.Party process;\r\n    mapping(address=>EAI.Party) mapParty;\r\n\r\n    event failEvent(string _logMessage);\r\n    event successEvent(string _logMessage);\r\n/* --------------------------- END: code for all contracts ----------------------- */  \r\n\r\n\r\n/* =========== BEGIN: codes generated based in specific jabuti contract =================== */\r\n    \t\r\n//  1 STEP:  Import library to conditions/terms  ---------------------------------- \r\n\r\n    using EAI for EAI.MaxNumberOfOperationByTime;\r\n    using EAI for EAI.MessageContent_Number;\r\n    using EAI for EAI.MessageContent_Number_PerTime;\r\n\r\n    using EAI for EAI.Timeout;\r\n    \r\n\r\n// ----------------------------------------------------------------------------------\r\n\r\n// 2 STEP: Identify and create the variables  from \" variable block\" ---------------  \r\n  \r\n    // ADD NEW CONTENT HERE IF EXIST - there is no variable for add here...\r\n\r\n// ----------------------------------------------------------------------------------\r\n\r\n\r\n// 3 STEP: Identify and create variables referring to the clauses terms ------------\r\n\t\r\n    EAI.MaxNumberOfOperationByTime [] maxNumberOfOperationByTime_C1;\r\n    EAI.MessageContent_Number[] msgContent_number_C1;\r\n    EAI.MessageContent_Number_PerTime[] msgContent_numberPerTime_C1;\r\n\r\n    EAI.Timeout[] timeout_C2;\r\n\r\n// -----------------------------------------------------------------------------------\r\n\r\n\r\n// 4 STEP: Create the constructor method --------------------------------------------\r\n\tconstructor(address _applicationWallet){\r\n\t \t\r\n        activated = true;\r\n\r\n        // Catch the date from jabuti contract \r\n        beginDate = 1672560000; // \"2023-01-01 08:00:00\"\r\n\t    dueDate = 1704045600;  // \"2023-12-31 18:00:00\"\r\n        // Catch the name of the part for creaty the parties         \r\n\t    application = EAI.createParty(\"Web Of Science\", _applicationWallet, false);  // UPDATE THE application NAME\r\n        process = EAI.createParty(\"Integration Process\", msg.sender, true);               // UPDATE THE process NAME\r\n        mapParty[msg.sender] = process;\r\n        mapParty[_applicationWallet] = application;\r\n\r\n// 5 STEP: Create the terms of the clauses, (check if some of them use a variable from variable block)\r\n\r\n        maxNumberOfOperationByTime_C1.push(EAI.createMaxNumberOfOperationByTime(2, EAI.SECOND));\r\n        msgContent_number_C1.push(EAI.createMessageContent(\"count(//body/document)\",\"<=\",100));\r\n        msgContent_numberPerTime_C1.push(EAI.createMessageContent(\"count(//body/document)\",\"<=\", 50000, EAI.MONTH));\r\n\r\n        timeout_C2.push(EAI.createTimeout(60));\r\n\r\n\t}\r\n\t\r\n// 6 STEP: Translate the clauses to functions\r\n\r\n\r\n    function right_requestDocuments(uint32 _accessDateTime, int256[] memory  _resultFromXpath_n, uint256[] memory _resultFromXpath_npt) public onlyProcess() returns(bool){\r\n\r\n        if(maxNumberOfOperationByTime_C1[0].hasAvailableOperations_ByTime(_accessDateTime)&&\r\n            msgContent_number_C1[0].evaluateNumberContent(_resultFromXpath_n[0]) &&\r\n            msgContent_numberPerTime_C1[0].evaluateNumberPerTime(_accessDateTime, _resultFromXpath_npt[0]) \r\n        ){\r\n             // the msgContent_numberPerTime_C1[0] will be decreased in function response  \r\n            timeout_C2[0].setEndTimeInTimeout(_accessDateTime);\r\n            emit successEvent(\"Successful execution!\");\r\n            return true;\r\n        } else{\r\n            emit failEvent(\"Exceded number of docuemnts\");\r\n            return false;\r\n        }   \r\n    }\r\n\r\n    function obligation_responseWithDocuments (uint32 _accessDateTime) public onlyApplication() returns(bool){\r\n\r\n        if(!timeout_C2[0].isTimeoutEnded(_accessDateTime)){\r\n            emit successEvent(\"Successful execution!\");\r\n            maxNumberOfOperationByTime_C1[0].decreaseOneOperation_ByTime();\r\n            msgContent_numberPerTime_C1[0].decreaseTheLastContentOfRestingAmount();\r\n            return true;\r\n        }else{\r\n            emit failEvent(\"Condition not meet\");\r\n            return false;\r\n        }\r\n    }\r\n    \r\n\r\n/* -------------- END: codes generated based in specific jabuti contract ------------- */\r\n\r\n\r\n/* ========================== BEGIN: code for all contracts ====================== */\r\n\r\n    /* the process sign the contract by default, the function signContract \r\n    is used to get the applicationParty signature*/      \r\n    function signContract() public onlyApplication() returns(bool) {\r\n        require(application.aware == false, \"The contract is already signed\");        \r\n        application.aware = true;  \r\n        updateMapParty(msg.sender, application);\r\n\t\treturn true;\r\n    }\r\n\r\n    function updateMapParty(address _walletAddress, EAI.Party storage _party)internal returns(bool){       \r\n        mapParty[_walletAddress] = _party;\r\n\t\treturn true;\r\n    }\r\n    \r\n    /* It only possible to change the name and the address of the party. \r\n    After change the  party, the new party need to sign the contract */\r\n    function changeApplicationParty(string memory _name, address _walletAddress) public returns(bool) {       \r\n        require(process.walletAddress == msg.sender, \"Only the process can execute this operation\");\r\n        delete mapParty[application.walletAddress];\r\n        application = EAI.createParty(_name, _walletAddress, false);          \r\n        updateMapParty(_walletAddress, application);\r\n        return true;       \r\n    }\r\n    \r\n    function getProcessAddress() public view onlyInvolvedParties returns(address){\r\n        return process.walletAddress;\r\n    }\r\n    \r\n    function getApplicationAddress() public view onlyInvolvedParties returns(address){\r\n        return application.walletAddress;\r\n    }\r\n\r\n    function getParty(address _walletAddress) public view onlyInvolvedParties returns(EAI.Party memory){\r\n        return mapParty[_walletAddress];\r\n    }\r\n\r\n    /* ==================================== MODIFIERS ==================================== */\r\n        modifier onlyApplication(){        \r\n            require(activated, \"This contract is deactivated\");            \r\n            require(application.walletAddress == msg.sender, \"Only the application can execute this operation\");\r\n            _;        \r\n    }\r\n\r\n    modifier onlyProcess(){\r\n        require(activated, \"This contract is deactivated\");\r\n        require(process.walletAddress == msg.sender, \"Only the process can execute this operation\");\r\n        _;\r\n    }\r\n\r\n    modifier onlyInvolvedParties(){\r\n        require(activated, \"This contract is deactivated\");\r\n        require(\r\n            (application.walletAddress == msg.sender || process.walletAddress == msg.sender ) ,\r\n            \"Only the process or the application can execute this operation\");\r\n        _;\r\n    }\r\n\r\n}\r\n/* --------------------------- END: code for all contracts ----------------------- */\r\n\r\n\r\n",
  "sourcePath": "C:\\git-repository\\dsl-smart-contract-eai\\02-models\\002-ProofOfConcept\\contracts\\study-case-contracts\\003-web-of-science\\WoS_API_Expanded_basicPlan.sol",
  "compiler": {
    "name": "solc",
    "version": "0.8.13+commit.abaa5c0e.Emscripten.clang"
  },
  "schemaVersion": "3.4.13",
  "updatedAt": "2023-04-19T18:48:33.657Z",
  "devdoc": {
    "kind": "dev",
    "methods": {},
    "version": 1
  },
  "userdoc": {
    "kind": "user",
    "methods": {},
    "version": 1
  }
}