{
	"data": {
		"bytecode": {
			"linkReferences": {},
			"object": "60806040523480156200001157600080fd5b50604051620033b6380380620033b683398181016040528101906200003791906200010f565b83600260006101000a81548173ffffffffffffffffffffffffffffffffffffffff021916908373ffffffffffffffffffffffffffffffffffffffff16021790555082600360006101000a81548173ffffffffffffffffffffffffffffffffffffffff021916908373ffffffffffffffffffffffffffffffffffffffff16021790555081600081905550806001819055506000600781905550600060088190555050505050620001f8565b600081519050620000f281620001c4565b92915050565b6000815190506200010981620001de565b92915050565b600080600080608085870312156200012c576200012b620001bf565b5b60006200013c87828801620000e1565b94505060206200014f87828801620000e1565b93505060406200016287828801620000f8565b92505060606200017587828801620000f8565b91505092959194509250565b60006200018e8262000195565b9050919050565b600073ffffffffffffffffffffffffffffffffffffffff82169050919050565b6000819050919050565b600080fd5b620001cf8162000181565b8114620001db57600080fd5b50565b620001e981620001b5565b8114620001f557600080fd5b50565b6131ae80620002086000396000f3fe608060405234801561001057600080fd5b50600436106101005760003560e01c806388c5f39711610097578063cceb68f511610066578063cceb68f5146102ee578063db72fb1d1461030c578063de5101af1461033c578063f0ab3dd91461036e57610100565b806388c5f3971461024d5780639aa91a251461027d5780639e11d7b71461029b578063ba26fbb8146102d257610100565b80633a4a6960116100d35780633a4a6960146101b15780633e239e1a146101e15780634e69d56014610211578063545569ba1461022f57610100565b80631f4f77b21461010557806322f8a2b81461013557806327341c8a14610165578063394ee1e514610195575b600080fd5b61011f600480360381019061011a9190611ebc565b61038c565b60405161012c91906126fe565b60405180910390f35b61014f600480360381019061014a9190611df0565b6103a2565b60405161015c91906126fe565b60405180910390f35b61017f600480360381019061017a9190611da7565b6103b4565b60405161018c91906125a6565b60405180910390f35b6101af60048036038101906101aa9190611f0f565b61040a565b005b6101cb60048036038101906101c69190611df0565b610795565b6040516101d891906125a6565b60405180910390f35b6101fb60048036038101906101f69190611df0565b6107af565b60405161020891906126fe565b60405180910390f35b6102196107c1565b60405161022691906125a6565b60405180910390f35b610237610844565b6040516102449190612584565b60405180910390f35b61026760048036038101906102629190611df0565b610abd565b60405161027491906126c1565b60405180910390f35b610285610b70565b60405161029291906126dc565b60405180910390f35b6102b560048036038101906102b09190611df0565b610ddb565b6040516102c9989796959493929190612750565b60405180910390f35b6102ec60048036038101906102e79190611e1d565b610fd8565b005b6102f6611408565b6040516103039190612562565b60405180910390f35b61032660048036038101906103219190611df0565b6114de565b60405161033391906126dc565b60405180910390f35b61035660048036038101906103519190611df0565b611734565b60405161036593929190612719565b60405180910390f35b610376611755565b60405161038391906126c1565b60405180910390f35b600061039984848461181d565b90509392505050565b60006103ad82611841565b9050919050565b60006040516020016103c59061254d565b60405160208183030381529060405280519060200120826040516020016103ec9190612536565b60405160208183030381529060405280519060200120149050919050565b600360009054906101000a900473ffffffffffffffffffffffffffffffffffffffff16600260009054906101000a900473ffffffffffffffffffffffffffffffffffffffff1673ffffffffffffffffffffffffffffffffffffffff168173ffffffffffffffffffffffffffffffffffffffff1614156104f6578073ffffffffffffffffffffffffffffffffffffffff163373ffffffffffffffffffffffffffffffffffffffff16146104f1576040517f08c379a00000000000000000000000000000000000000000000000000000000081526004016104e890612601565b60405180910390fd5b6105bc565b600360009054906101000a900473ffffffffffffffffffffffffffffffffffffffff1673ffffffffffffffffffffffffffffffffffffffff168173ffffffffffffffffffffffffffffffffffffffff1614156105bb578073ffffffffffffffffffffffffffffffffffffffff163373ffffffffffffffffffffffffffffffffffffffff16146105ba576040517f08c379a00000000000000000000000000000000000000000000000000000000081526004016105b190612641565b60405180910390fd5b5b5b6000851015610600576040517f08c379a00000000000000000000000000000000000000000000000000000000081526004016105f7906125c1565b60405180910390fd5b6000600781111561061457610613612e63565b5b6005868154811061062857610627612ec1565b5b906000526020600020906007020160060160009054906101000a900460ff16600781111561065957610658612e63565b5b14610699576040517f08c379a000000000000000000000000000000000000000000000000000000000815260040161069090612681565b60405180910390fd5b60056040518060e00160405280878152602001600860008154809291906106bf90612d8b565b919050558152602001868152602001858152602001848152602001428152602001600260078111156106f4576106f3612e63565b5b8152509080600181540180825580915050600190039060005260206000209060070201600090919091909150600082015181600001556020820151816001015560408201518160020155606082015181600301556080820151816004015560a0820151816005015560c08201518160060160006101000a81548160ff0219169083600781111561078757610786612e63565b5b021790555050505050505050565b60008060076107a3846103a2565b14905080915050919050565b60006107ba82611882565b9050919050565b6000806040518060e001604052806000815260200160018152602001600281526020016003815260200160048152602001600581526020016003600781111561080d5761080c612e63565b5b81525090506003600781111561082657610825612e63565b5b8160c00151600781111561083d5761083c612e63565b5b1491505090565b60606004805480602002602001604051908101604052809291908181526020016000905b82821015610ab45783829060005260206000209060080201604051806101000160405290816000820154815260200160018201548152602001600282015481526020016003820180546108ba90612d28565b80601f01602080910402602001604051908101604052809291908181526020018280546108e690612d28565b80156109335780601f1061090857610100808354040283529160200191610933565b820191906000526020600020905b81548152906001019060200180831161091657829003601f168201915b5050505050815260200160048201805461094c90612d28565b80601f016020809104026020016040519081016040528092919081815260200182805461097890612d28565b80156109c55780601f1061099a576101008083540402835291602001916109c5565b820191906000526020600020905b8154815290600101906020018083116109a857829003601f168201915b505050505081526020016005820180546109de90612d28565b80601f0160208091040260200160405190810160405280929190818152602001828054610a0a90612d28565b8015610a575780601f10610a2c57610100808354040283529160200191610a57565b820191906000526020600020905b815481529060010190602001808311610a3a57829003601f168201915b50505050508152602001600682015481526020016007820160009054906101000a900460ff166007811115610a8f57610a8e612e63565b5b6007811115610aa157610aa0612e63565b5b8152505081526020019060010190610868565b50505050905090565b610ac5611bd9565b60058281548110610ad957610ad8612ec1565b5b90600052602060002090600702016040518060e00160405290816000820154815260200160018201548152602001600282015481526020016003820154815260200160048201548152602001600582015481526020016006820160009054906101000a900460ff166007811115610b5357610b52612e63565b5b6007811115610b6557610b64612e63565b5b815250509050919050565b610b78611c28565b60006001600480549050610b8c9190612c6d565b905060048181548110610ba257610ba1612ec1565b5b906000526020600020906008020160405180610100016040529081600082015481526020016001820154815260200160028201548152602001600382018054610bea90612d28565b80601f0160208091040260200160405190810160405280929190818152602001828054610c1690612d28565b8015610c635780601f10610c3857610100808354040283529160200191610c63565b820191906000526020600020905b815481529060010190602001808311610c4657829003601f168201915b50505050508152602001600482018054610c7c90612d28565b80601f0160208091040260200160405190810160405280929190818152602001828054610ca890612d28565b8015610cf55780601f10610cca57610100808354040283529160200191610cf5565b820191906000526020600020905b815481529060010190602001808311610cd857829003601f168201915b50505050508152602001600582018054610d0e90612d28565b80601f0160208091040260200160405190810160405280929190818152602001828054610d3a90612d28565b8015610d875780601f10610d5c57610100808354040283529160200191610d87565b820191906000526020600020905b815481529060010190602001808311610d6a57829003601f168201915b50505050508152602001600682015481526020016007820160009054906101000a900460ff166007811115610dbf57610dbe612e63565b5b6007811115610dd157610dd0612e63565b5b8152505091505090565b60048181548110610deb57600080fd5b9060005260206000209060080201600091509050806000015490806001015490806002015490806003018054610e2090612d28565b80601f0160208091040260200160405190810160405280929190818152602001828054610e4c90612d28565b8015610e995780601f10610e6e57610100808354040283529160200191610e99565b820191906000526020600020905b815481529060010190602001808311610e7c57829003601f168201915b505050505090806004018054610eae90612d28565b80601f0160208091040260200160405190810160405280929190818152602001828054610eda90612d28565b8015610f275780601f10610efc57610100808354040283529160200191610f27565b820191906000526020600020905b815481529060010190602001808311610f0a57829003601f168201915b505050505090806005018054610f3c90612d28565b80601f0160208091040260200160405190810160405280929190818152602001828054610f6890612d28565b8015610fb55780601f10610f8a57610100808354040283529160200191610fb5565b820191906000526020600020905b815481529060010190602001808311610f9857829003601f168201915b5050505050908060060154908060070160009054906101000a900460ff16905088565b600260009054906101000a900473ffffffffffffffffffffffffffffffffffffffff16600260009054906101000a900473ffffffffffffffffffffffffffffffffffffffff1673ffffffffffffffffffffffffffffffffffffffff168173ffffffffffffffffffffffffffffffffffffffff1614156110c4578073ffffffffffffffffffffffffffffffffffffffff163373ffffffffffffffffffffffffffffffffffffffff16146110bf576040517f08c379a00000000000000000000000000000000000000000000000000000000081526004016110b690612601565b60405180910390fd5b61118a565b600360009054906101000a900473ffffffffffffffffffffffffffffffffffffffff1673ffffffffffffffffffffffffffffffffffffffff168173ffffffffffffffffffffffffffffffffffffffff161415611189578073ffffffffffffffffffffffffffffffffffffffff163373ffffffffffffffffffffffffffffffffffffffff1614611188576040517f08c379a000000000000000000000000000000000000000000000000000000000815260040161117f90612641565b60405180910390fd5b5b5b61119342610795565b156111d3576040517f08c379a00000000000000000000000000000000000000000000000000000000081526004016111ca906125e1565b60405180910390fd5b4285101580156111e257508484115b611221576040517f08c379a000000000000000000000000000000000000000000000000000000000815260040161121890612661565b60405180910390fd5b61122a836103b4565b1561126a576040517f08c379a000000000000000000000000000000000000000000000000000000000815260040161126190612621565b60405180910390fd5b611273826103b4565b156112b3576040517f08c379a00000000000000000000000000000000000000000000000000000000081526004016112aa906126a1565b60405180910390fd5b6004604051806101000160405280600760008154809291906112d490612d8b565b9190505581526020018781526020018681526020018581526020018481526020016040518060200160405280600081525081526020014281526020016000600781111561132457611323612e63565b5b8152509080600181540180825580915050600190039060005260206000209060080201600090919091909150600082015181600001556020820151816001015560408201518160020155606082015181600301908051906020019061138a929190611c7f565b5060808201518160040190805190602001906113a7929190611c7f565b5060a08201518160050190805190602001906113c4929190611c7f565b5060c0820151816006015560e08201518160070160006101000a81548160ff021916908360078111156113fa576113f9612e63565b5b021790555050505050505050565b60606005805480602002602001604051908101604052809291908181526020016000905b828210156114d557838290600052602060002090600702016040518060e00160405290816000820154815260200160018201548152602001600282015481526020016003820154815260200160048201548152602001600582015481526020016006820160009054906101000a900460ff1660078111156114b0576114af612e63565b5b60078111156114c2576114c1612e63565b5b815250508152602001906001019061142c565b50505050905090565b6114e6611c28565b600482815481106114fa576114f9612ec1565b5b90600052602060002090600802016040518061010001604052908160008201548152602001600182015481526020016002820154815260200160038201805461154290612d28565b80601f016020809104026020016040519081016040528092919081815260200182805461156e90612d28565b80156115bb5780601f10611590576101008083540402835291602001916115bb565b820191906000526020600020905b81548152906001019060200180831161159e57829003601f168201915b505050505081526020016004820180546115d490612d28565b80601f016020809104026020016040519081016040528092919081815260200182805461160090612d28565b801561164d5780601f106116225761010080835404028352916020019161164d565b820191906000526020600020905b81548152906001019060200180831161163057829003601f168201915b5050505050815260200160058201805461166690612d28565b80601f016020809104026020016040519081016040528092919081815260200182805461169290612d28565b80156116df5780601f106116b4576101008083540402835291602001916116df565b820191906000526020600020905b8154815290600101906020018083116116c257829003601f168201915b50505050508152602001600682015481526020016007820160009054906101000a900460ff16600781111561171757611716612e63565b5b600781111561172957611728612e63565b5b815250509050919050565b6000806000611742846118ac565b8093508194508295505050509193909250565b61175d611bd9565b600060016005805490506117719190612c6d565b90506005818154811061178757611786612ec1565b5b90600052602060002090600702016040518060e00160405290816000820154815260200160018201548152602001600282015481526020016003820154815260200160048201548152602001600582015481526020016006820160009054906101000a900460ff16600781111561180157611800612e63565b5b600781111561181357611812612e63565b5b8152505091505090565b60006201518061182e8585856118db565b6118389190612b7f565b90509392505050565b60008062015180836118539190612a37565b9050600160076003836118669190612977565b6118709190612dd4565b61187a9190612977565b915050919050565b60008062015180836118949190612dd4565b9050610e10816118a49190612a37565b915050919050565b60008060006118c862015180856118c39190612a37565b611a3a565b8093508194508295505050509193909250565b60006107b28410156118ec57600080fd5b600084905060008490506000849050600062253d8c60046064600c600e876119149190612bd9565b61191e91906129cd565b6113248861192c91906128e3565b61193691906128e3565b61194091906129cd565b600361194c9190612a68565b61195691906129cd565b600c80600c600e886119689190612bd9565b61197291906129cd565b61197c9190612a68565b6002876119899190612bd9565b6119939190612bd9565b61016f6119a09190612a68565b6119aa91906129cd565b6004600c600e886119bb9190612bd9565b6119c591906129cd565b6112c0896119d391906128e3565b6119dd91906128e3565b6105b56119ea9190612a68565b6119f491906129cd565b617d4b86611a029190612bd9565b611a0c91906128e3565b611a1691906128e3565b611a209190612bd9565b611a2a9190612bd9565b9050809450505050509392505050565b600080600080849050600062253d8c62010bd983611a5891906128e3565b611a6291906128e3565b9050600062023ab1826004611a779190612a68565b611a8191906129cd565b9050600460038262023ab1611a969190612a68565b611aa091906128e3565b611aaa91906129cd565b82611ab59190612bd9565b9150600062164b09600184611aca91906128e3565b610fa0611ad79190612a68565b611ae191906129cd565b9050601f6004826105b5611af59190612a68565b611aff91906129cd565b84611b0a9190612bd9565b611b1491906128e3565b9250600061098f846050611b289190612a68565b611b3291906129cd565b9050600060508261098f611b469190612a68565b611b5091906129cd565b85611b5b9190612bd9565b9050600b82611b6a91906129cd565b945084600c611b799190612a68565b600283611b8691906128e3565b611b909190612bd9565b91508483603186611ba19190612bd9565b6064611bad9190612a68565b611bb791906128e3565b611bc191906128e3565b92508298508197508096505050505050509193909250565b6040518060e0016040528060008152602001600081526020016000815260200160008152602001600081526020016000815260200160006007811115611c2257611c21612e63565b5b81525090565b6040518061010001604052806000815260200160008152602001600081526020016060815260200160608152602001606081526020016000815260200160006007811115611c7957611c78612e63565b5b81525090565b828054611c8b90612d28565b90600052602060002090601f016020900481019282611cad5760008555611cf4565b82601f10611cc657805160ff1916838001178555611cf4565b82800160010185558215611cf4579182015b82811115611cf3578251825591602001919060010190611cd8565b5b509050611d019190611d05565b5090565b5b80821115611d1e576000816000905550600101611d06565b5090565b6000611d35611d3084612808565b6127e3565b905082815260208101848484011115611d5157611d50612f24565b5b611d5c848285612ce6565b509392505050565b600082601f830112611d7957611d78612f1f565b5b8135611d89848260208601611d22565b91505092915050565b600081359050611da181613161565b92915050565b600060208284031215611dbd57611dbc612f2e565b5b600082013567ffffffffffffffff811115611ddb57611dda612f29565b5b611de784828501611d64565b91505092915050565b600060208284031215611e0657611e05612f2e565b5b6000611e1484828501611d92565b91505092915050565b60008060008060808587031215611e3757611e36612f2e565b5b6000611e4587828801611d92565b9450506020611e5687828801611d92565b935050604085013567ffffffffffffffff811115611e7757611e76612f29565b5b611e8387828801611d64565b925050606085013567ffffffffffffffff811115611ea457611ea3612f29565b5b611eb087828801611d64565b91505092959194509250565b600080600060608486031215611ed557611ed4612f2e565b5b6000611ee386828701611d92565b9350506020611ef486828701611d92565b9250506040611f0586828701611d92565b9150509250925092565b60008060008060808587031215611f2957611f28612f2e565b5b6000611f3787828801611d92565b9450506020611f4887828801611d92565b9350506040611f5987828801611d92565b9250506060611f6a87828801611d92565b91505092959194509250565b6000611f828383612280565b60e08301905092915050565b6000611f9a838361239c565b905092915050565b6000611fad82612859565b611fb78185612894565b9350611fc283612839565b8060005b83811015611ff3578151611fda8882611f76565b9750611fe58361287a565b925050600181019050611fc6565b5085935050505092915050565b600061200b82612864565b61201581856128a5565b93508360208202850161202785612849565b8060005b8581101561206357848403895281516120448582611f8e565b945061204f83612887565b925060208a0199505060018101905061202b565b50829750879550505050505092915050565b61207e81612ca1565b82525050565b61208d81612cd4565b82525050565b61209c81612cd4565b82525050565b60006120ad8261286f565b6120b781856128b6565b93506120c7818560208601612cf5565b6120d081612f33565b840191505092915050565b60006120e68261286f565b6120f081856128c7565b9350612100818560208601612cf5565b61210981612f33565b840191505092915050565b600061211f8261286f565b61212981856128d8565b9350612139818560208601612cf5565b80840191505092915050565b6000612152602b836128c7565b915061215d82612f44565b604082019050919050565b6000612175602a836128c7565b915061218082612f93565b604082019050919050565b60006121986037836128c7565b91506121a382612fe2565b604082019050919050565b60006121bb6013836128c7565b91506121c682613031565b602082019050919050565b60006121de602f836128c7565b91506121e98261305a565b604082019050919050565b6000612201600d836128c7565b915061220c826130a9565b602082019050919050565b60006122246000836128d8565b915061222f826130d2565b600082019050919050565b60006122476021836128c7565b9150612252826130d5565b604082019050919050565b600061226a6012836128c7565b915061227582613124565b602082019050919050565b60e0820160008201516122966000850182612518565b5060208201516122a96020850182612518565b5060408201516122bc6040850182612518565b5060608201516122cf6060850182612518565b5060808201516122e26080850182612518565b5060a08201516122f560a0850182612518565b5060c082015161230860c0850182612084565b50505050565b60e0820160008201516123246000850182612518565b5060208201516123376020850182612518565b50604082015161234a6040850182612518565b50606082015161235d6060850182612518565b5060808201516123706080850182612518565b5060a082015161238360a0850182612518565b5060c082015161239660c0850182612084565b50505050565b6000610100830160008301516123b56000860182612518565b5060208301516123c86020860182612518565b5060408301516123db6040860182612518565b50606083015184820360608601526123f382826120a2565b9150506080830151848203608086015261240d82826120a2565b91505060a083015184820360a086015261242782826120a2565b91505060c083015161243c60c0860182612518565b5060e083015161244f60e0860182612084565b508091505092915050565b6000610100830160008301516124736000860182612518565b5060208301516124866020860182612518565b5060408301516124996040860182612518565b50606083015184820360608601526124b182826120a2565b915050608083015184820360808601526124cb82826120a2565b91505060a083015184820360a08601526124e582826120a2565b91505060c08301516124fa60c0860182612518565b5060e083015161250d60e0860182612084565b508091505092915050565b61252181612cca565b82525050565b61253081612cca565b82525050565b60006125428284612114565b915081905092915050565b600061255882612217565b9150819050919050565b6000602082019050818103600083015261257c8184611fa2565b905092915050565b6000602082019050818103600083015261259e8184612000565b905092915050565b60006020820190506125bb6000830184612075565b92915050565b600060208201905081810360008301526125da81612145565b9050919050565b600060208201905081810360008301526125fa81612168565b9050919050565b6000602082019050818103600083015261261a8161218b565b9050919050565b6000602082019050818103600083015261263a816121ae565b9050919050565b6000602082019050818103600083015261265a816121d1565b9050919050565b6000602082019050818103600083015261267a816121f4565b9050919050565b6000602082019050818103600083015261269a8161223a565b9050919050565b600060208201905081810360008301526126ba8161225d565b9050919050565b600060e0820190506126d6600083018461230e565b92915050565b600060208201905081810360008301526126f6818461245a565b905092915050565b60006020820190506127136000830184612527565b92915050565b600060608201905061272e6000830186612527565b61273b6020830185612527565b6127486040830184612527565b949350505050565b600061010082019050612766600083018b612527565b612773602083018a612527565b6127806040830189612527565b818103606083015261279281886120db565b905081810360808301526127a681876120db565b905081810360a08301526127ba81866120db565b90506127c960c0830185612527565b6127d660e0830184612093565b9998505050505050505050565b60006127ed6127fe565b90506127f98282612d5a565b919050565b6000604051905090565b600067ffffffffffffffff82111561282357612822612ef0565b5b61282c82612f33565b9050602081019050919050565b6000819050602082019050919050565b6000819050602082019050919050565b600081519050919050565b600081519050919050565b600081519050919050565b6000602082019050919050565b6000602082019050919050565b600082825260208201905092915050565b600082825260208201905092915050565b600082825260208201905092915050565b600082825260208201905092915050565b600081905092915050565b60006128ee82612cc0565b91506128f983612cc0565b9250817f7fffffffffffffffffffffffffffffffffffffffffffffffffffffffffffffff0383136000831215161561293457612933612e05565b5b817f800000000000000000000000000000000000000000000000000000000000000003831260008312161561296c5761296b612e05565b5b828201905092915050565b600061298282612cca565b915061298d83612cca565b9250827fffffffffffffffffffffffffffffffffffffffffffffffffffffffffffffffff038211156129c2576129c1612e05565b5b828201905092915050565b60006129d882612cc0565b91506129e383612cc0565b9250826129f3576129f2612e34565b5b600160000383147f800000000000000000000000000000000000000000000000000000000000000083141615612a2c57612a2b612e05565b5b828205905092915050565b6000612a4282612cca565b9150612a4d83612cca565b925082612a5d57612a5c612e34565b5b828204905092915050565b6000612a7382612cc0565b9150612a7e83612cc0565b9250827f7fffffffffffffffffffffffffffffffffffffffffffffffffffffffffffffff0482116000841360008413161615612abd57612abc612e05565b5b817f80000000000000000000000000000000000000000000000000000000000000000583126000841260008413161615612afa57612af9612e05565b5b827f80000000000000000000000000000000000000000000000000000000000000000582126000841360008412161615612b3757612b36612e05565b5b827f7fffffffffffffffffffffffffffffffffffffffffffffffffffffffffffffff0582126000841260008412161615612b7457612b73612e05565b5b828202905092915050565b6000612b8a82612cca565b9150612b9583612cca565b9250817fffffffffffffffffffffffffffffffffffffffffffffffffffffffffffffffff0483118215151615612bce57612bcd612e05565b5b828202905092915050565b6000612be482612cc0565b9150612bef83612cc0565b9250827f800000000000000000000000000000000000000000000000000000000000000001821260008412151615612c2a57612c29612e05565b5b827f7fffffffffffffffffffffffffffffffffffffffffffffffffffffffffffffff018213600084121615612c6257612c61612e05565b5b828203905092915050565b6000612c7882612cca565b9150612c8383612cca565b925082821015612c9657612c95612e05565b5b828203905092915050565b60008115159050919050565b6000819050612cbb8261314d565b919050565b6000819050919050565b6000819050919050565b6000612cdf82612cad565b9050919050565b82818337600083830152505050565b60005b83811015612d13578082015181840152602081019050612cf8565b83811115612d22576000848401525b50505050565b60006002820490506001821680612d4057607f821691505b60208210811415612d5457612d53612e92565b5b50919050565b612d6382612f33565b810181811067ffffffffffffffff82111715612d8257612d81612ef0565b5b80604052505050565b6000612d9682612cca565b91507fffffffffffffffffffffffffffffffffffffffffffffffffffffffffffffffff821415612dc957612dc8612e05565b5b600182019050919050565b6000612ddf82612cca565b9150612dea83612cca565b925082612dfa57612df9612e34565b5b828206905092915050565b7f4e487b7100000000000000000000000000000000000000000000000000000000600052601160045260246000fd5b7f4e487b7100000000000000000000000000000000000000000000000000000000600052601260045260246000fd5b7f4e487b7100000000000000000000000000000000000000000000000000000000600052602160045260246000fd5b7f4e487b7100000000000000000000000000000000000000000000000000000000600052602260045260246000fd5b7f4e487b7100000000000000000000000000000000000000000000000000000000600052603260045260246000fd5b7f4e487b7100000000000000000000000000000000000000000000000000000000600052604160045260246000fd5b600080fd5b600080fd5b600080fd5b600080fd5b6000601f19601f8301169050919050565b7f546865205f6265727468696e6752657175657374496420706172616d6574657260008201527f206973206d697373696e67000000000000000000000000000000000000000000602082015250565b7f4974206973206e6f7420616c6c6f7720746f2073656e6420726571756573742060008201527f6f6e2053756e6461797300000000000000000000000000000000000000000000602082015250565b7f4f6e6c792074686520696e746567726174696f6e2070726f6365737320636f7560008201527f6c6420706572666f726d2074686973206d6574686f6421000000000000000000602082015250565b7f4d697373696e6720646174613a204d4d53492000000000000000000000000000600082015250565b7f4f6e6c7920746865206170706c69636174696f6e20636f756c6420706572666f60008201527f726d2074686973206d6574686f64210000000000000000000000000000000000602082015250565b7f496e76616c696420646174657300000000000000000000000000000000000000600082015250565b50565b7f5468697320726571756573742069732070726f63657373656420616c7265616460008201527f7900000000000000000000000000000000000000000000000000000000000000602082015250565b7f4d697373696e6720646174613a20494d4f200000000000000000000000000000600082015250565b6008811061315e5761315d612e63565b5b50565b61316a81612cca565b811461317557600080fd5b5056fea2646970667358221220f30dca529be75b243c46a96edbbb7262e8db8d6e33fcad70235fadfd13edddd764736f6c63430008070033",
			"opcodes": "PUSH1 0x80 PUSH1 0x40 MSTORE CALLVALUE DUP1 ISZERO PUSH3 0x11 JUMPI PUSH1 0x0 DUP1 REVERT JUMPDEST POP PUSH1 0x40 MLOAD PUSH3 0x33B6 CODESIZE SUB DUP1 PUSH3 0x33B6 DUP4 CODECOPY DUP2 DUP2 ADD PUSH1 0x40 MSTORE DUP2 ADD SWAP1 PUSH3 0x37 SWAP2 SWAP1 PUSH3 0x10F JUMP JUMPDEST DUP4 PUSH1 0x2 PUSH1 0x0 PUSH2 0x100 EXP DUP2 SLOAD DUP2 PUSH20 0xFFFFFFFFFFFFFFFFFFFFFFFFFFFFFFFFFFFFFFFF MUL NOT AND SWAP1 DUP4 PUSH20 0xFFFFFFFFFFFFFFFFFFFFFFFFFFFFFFFFFFFFFFFF AND MUL OR SWAP1 SSTORE POP DUP3 PUSH1 0x3 PUSH1 0x0 PUSH2 0x100 EXP DUP2 SLOAD DUP2 PUSH20 0xFFFFFFFFFFFFFFFFFFFFFFFFFFFFFFFFFFFFFFFF MUL NOT AND SWAP1 DUP4 PUSH20 0xFFFFFFFFFFFFFFFFFFFFFFFFFFFFFFFFFFFFFFFF AND MUL OR SWAP1 SSTORE POP DUP2 PUSH1 0x0 DUP2 SWAP1 SSTORE POP DUP1 PUSH1 0x1 DUP2 SWAP1 SSTORE POP PUSH1 0x0 PUSH1 0x7 DUP2 SWAP1 SSTORE POP PUSH1 0x0 PUSH1 0x8 DUP2 SWAP1 SSTORE POP POP POP POP POP PUSH3 0x1F8 JUMP JUMPDEST PUSH1 0x0 DUP2 MLOAD SWAP1 POP PUSH3 0xF2 DUP2 PUSH3 0x1C4 JUMP JUMPDEST SWAP3 SWAP2 POP POP JUMP JUMPDEST PUSH1 0x0 DUP2 MLOAD SWAP1 POP PUSH3 0x109 DUP2 PUSH3 0x1DE JUMP JUMPDEST SWAP3 SWAP2 POP POP JUMP JUMPDEST PUSH1 0x0 DUP1 PUSH1 0x0 DUP1 PUSH1 0x80 DUP6 DUP8 SUB SLT ISZERO PUSH3 0x12C JUMPI PUSH3 0x12B PUSH3 0x1BF JUMP JUMPDEST JUMPDEST PUSH1 0x0 PUSH3 0x13C DUP8 DUP3 DUP9 ADD PUSH3 0xE1 JUMP JUMPDEST SWAP5 POP POP PUSH1 0x20 PUSH3 0x14F DUP8 DUP3 DUP9 ADD PUSH3 0xE1 JUMP JUMPDEST SWAP4 POP POP PUSH1 0x40 PUSH3 0x162 DUP8 DUP3 DUP9 ADD PUSH3 0xF8 JUMP JUMPDEST SWAP3 POP POP PUSH1 0x60 PUSH3 0x175 DUP8 DUP3 DUP9 ADD PUSH3 0xF8 JUMP JUMPDEST SWAP2 POP POP SWAP3 SWAP6 SWAP2 SWAP5 POP SWAP3 POP JUMP JUMPDEST PUSH1 0x0 PUSH3 0x18E DUP3 PUSH3 0x195 JUMP JUMPDEST SWAP1 POP SWAP2 SWAP1 POP JUMP JUMPDEST PUSH1 0x0 PUSH20 0xFFFFFFFFFFFFFFFFFFFFFFFFFFFFFFFFFFFFFFFF DUP3 AND SWAP1 POP SWAP2 SWAP1 POP JUMP JUMPDEST PUSH1 0x0 DUP2 SWAP1 POP SWAP2 SWAP1 POP JUMP JUMPDEST PUSH1 0x0 DUP1 REVERT JUMPDEST PUSH3 0x1CF DUP2 PUSH3 0x181 JUMP JUMPDEST DUP2 EQ PUSH3 0x1DB JUMPI PUSH1 0x0 DUP1 REVERT JUMPDEST POP JUMP JUMPDEST PUSH3 0x1E9 DUP2 PUSH3 0x1B5 JUMP JUMPDEST DUP2 EQ PUSH3 0x1F5 JUMPI PUSH1 0x0 DUP1 REVERT JUMPDEST POP JUMP JUMPDEST PUSH2 0x31AE DUP1 PUSH3 0x208 PUSH1 0x0 CODECOPY PUSH1 0x0 RETURN INVALID PUSH1 0x80 PUSH1 0x40 MSTORE CALLVALUE DUP1 ISZERO PUSH2 0x10 JUMPI PUSH1 0x0 DUP1 REVERT JUMPDEST POP PUSH1 0x4 CALLDATASIZE LT PUSH2 0x100 JUMPI PUSH1 0x0 CALLDATALOAD PUSH1 0xE0 SHR DUP1 PUSH4 0x88C5F397 GT PUSH2 0x97 JUMPI DUP1 PUSH4 0xCCEB68F5 GT PUSH2 0x66 JUMPI DUP1 PUSH4 0xCCEB68F5 EQ PUSH2 0x2EE JUMPI DUP1 PUSH4 0xDB72FB1D EQ PUSH2 0x30C JUMPI DUP1 PUSH4 0xDE5101AF EQ PUSH2 0x33C JUMPI DUP1 PUSH4 0xF0AB3DD9 EQ PUSH2 0x36E JUMPI PUSH2 0x100 JUMP JUMPDEST DUP1 PUSH4 0x88C5F397 EQ PUSH2 0x24D JUMPI DUP1 PUSH4 0x9AA91A25 EQ PUSH2 0x27D JUMPI DUP1 PUSH4 0x9E11D7B7 EQ PUSH2 0x29B JUMPI DUP1 PUSH4 0xBA26FBB8 EQ PUSH2 0x2D2 JUMPI PUSH2 0x100 JUMP JUMPDEST DUP1 PUSH4 0x3A4A6960 GT PUSH2 0xD3 JUMPI DUP1 PUSH4 0x3A4A6960 EQ PUSH2 0x1B1 JUMPI DUP1 PUSH4 0x3E239E1A EQ PUSH2 0x1E1 JUMPI DUP1 PUSH4 0x4E69D560 EQ PUSH2 0x211 JUMPI DUP1 PUSH4 0x545569BA EQ PUSH2 0x22F JUMPI PUSH2 0x100 JUMP JUMPDEST DUP1 PUSH4 0x1F4F77B2 EQ PUSH2 0x105 JUMPI DUP1 PUSH4 0x22F8A2B8 EQ PUSH2 0x135 JUMPI DUP1 PUSH4 0x27341C8A EQ PUSH2 0x165 JUMPI DUP1 PUSH4 0x394EE1E5 EQ PUSH2 0x195 JUMPI JUMPDEST PUSH1 0x0 DUP1 REVERT JUMPDEST PUSH2 0x11F PUSH1 0x4 DUP1 CALLDATASIZE SUB DUP2 ADD SWAP1 PUSH2 0x11A SWAP2 SWAP1 PUSH2 0x1EBC JUMP JUMPDEST PUSH2 0x38C JUMP JUMPDEST PUSH1 0x40 MLOAD PUSH2 0x12C SWAP2 SWAP1 PUSH2 0x26FE JUMP JUMPDEST PUSH1 0x40 MLOAD DUP1 SWAP2 SUB SWAP1 RETURN JUMPDEST PUSH2 0x14F PUSH1 0x4 DUP1 CALLDATASIZE SUB DUP2 ADD SWAP1 PUSH2 0x14A SWAP2 SWAP1 PUSH2 0x1DF0 JUMP JUMPDEST PUSH2 0x3A2 JUMP JUMPDEST PUSH1 0x40 MLOAD PUSH2 0x15C SWAP2 SWAP1 PUSH2 0x26FE JUMP JUMPDEST PUSH1 0x40 MLOAD DUP1 SWAP2 SUB SWAP1 RETURN JUMPDEST PUSH2 0x17F PUSH1 0x4 DUP1 CALLDATASIZE SUB DUP2 ADD SWAP1 PUSH2 0x17A SWAP2 SWAP1 PUSH2 0x1DA7 JUMP JUMPDEST PUSH2 0x3B4 JUMP JUMPDEST PUSH1 0x40 MLOAD PUSH2 0x18C SWAP2 SWAP1 PUSH2 0x25A6 JUMP JUMPDEST PUSH1 0x40 MLOAD DUP1 SWAP2 SUB SWAP1 RETURN JUMPDEST PUSH2 0x1AF PUSH1 0x4 DUP1 CALLDATASIZE SUB DUP2 ADD SWAP1 PUSH2 0x1AA SWAP2 SWAP1 PUSH2 0x1F0F JUMP JUMPDEST PUSH2 0x40A JUMP JUMPDEST STOP JUMPDEST PUSH2 0x1CB PUSH1 0x4 DUP1 CALLDATASIZE SUB DUP2 ADD SWAP1 PUSH2 0x1C6 SWAP2 SWAP1 PUSH2 0x1DF0 JUMP JUMPDEST PUSH2 0x795 JUMP JUMPDEST PUSH1 0x40 MLOAD PUSH2 0x1D8 SWAP2 SWAP1 PUSH2 0x25A6 JUMP JUMPDEST PUSH1 0x40 MLOAD DUP1 SWAP2 SUB SWAP1 RETURN JUMPDEST PUSH2 0x1FB PUSH1 0x4 DUP1 CALLDATASIZE SUB DUP2 ADD SWAP1 PUSH2 0x1F6 SWAP2 SWAP1 PUSH2 0x1DF0 JUMP JUMPDEST PUSH2 0x7AF JUMP JUMPDEST PUSH1 0x40 MLOAD PUSH2 0x208 SWAP2 SWAP1 PUSH2 0x26FE JUMP JUMPDEST PUSH1 0x40 MLOAD DUP1 SWAP2 SUB SWAP1 RETURN JUMPDEST PUSH2 0x219 PUSH2 0x7C1 JUMP JUMPDEST PUSH1 0x40 MLOAD PUSH2 0x226 SWAP2 SWAP1 PUSH2 0x25A6 JUMP JUMPDEST PUSH1 0x40 MLOAD DUP1 SWAP2 SUB SWAP1 RETURN JUMPDEST PUSH2 0x237 PUSH2 0x844 JUMP JUMPDEST PUSH1 0x40 MLOAD PUSH2 0x244 SWAP2 SWAP1 PUSH2 0x2584 JUMP JUMPDEST PUSH1 0x40 MLOAD DUP1 SWAP2 SUB SWAP1 RETURN JUMPDEST PUSH2 0x267 PUSH1 0x4 DUP1 CALLDATASIZE SUB DUP2 ADD SWAP1 PUSH2 0x262 SWAP2 SWAP1 PUSH2 0x1DF0 JUMP JUMPDEST PUSH2 0xABD JUMP JUMPDEST PUSH1 0x40 MLOAD PUSH2 0x274 SWAP2 SWAP1 PUSH2 0x26C1 JUMP JUMPDEST PUSH1 0x40 MLOAD DUP1 SWAP2 SUB SWAP1 RETURN JUMPDEST PUSH2 0x285 PUSH2 0xB70 JUMP JUMPDEST PUSH1 0x40 MLOAD PUSH2 0x292 SWAP2 SWAP1 PUSH2 0x26DC JUMP JUMPDEST PUSH1 0x40 MLOAD DUP1 SWAP2 SUB SWAP1 RETURN JUMPDEST PUSH2 0x2B5 PUSH1 0x4 DUP1 CALLDATASIZE SUB DUP2 ADD SWAP1 PUSH2 0x2B0 SWAP2 SWAP1 PUSH2 0x1DF0 JUMP JUMPDEST PUSH2 0xDDB JUMP JUMPDEST PUSH1 0x40 MLOAD PUSH2 0x2C9 SWAP9 SWAP8 SWAP7 SWAP6 SWAP5 SWAP4 SWAP3 SWAP2 SWAP1 PUSH2 0x2750 JUMP JUMPDEST PUSH1 0x40 MLOAD DUP1 SWAP2 SUB SWAP1 RETURN JUMPDEST PUSH2 0x2EC PUSH1 0x4 DUP1 CALLDATASIZE SUB DUP2 ADD SWAP1 PUSH2 0x2E7 SWAP2 SWAP1 PUSH2 0x1E1D JUMP JUMPDEST PUSH2 0xFD8 JUMP JUMPDEST STOP JUMPDEST PUSH2 0x2F6 PUSH2 0x1408 JUMP JUMPDEST PUSH1 0x40 MLOAD PUSH2 0x303 SWAP2 SWAP1 PUSH2 0x2562 JUMP JUMPDEST PUSH1 0x40 MLOAD DUP1 SWAP2 SUB SWAP1 RETURN JUMPDEST PUSH2 0x326 PUSH1 0x4 DUP1 CALLDATASIZE SUB DUP2 ADD SWAP1 PUSH2 0x321 SWAP2 SWAP1 PUSH2 0x1DF0 JUMP JUMPDEST PUSH2 0x14DE JUMP JUMPDEST PUSH1 0x40 MLOAD PUSH2 0x333 SWAP2 SWAP1 PUSH2 0x26DC JUMP JUMPDEST PUSH1 0x40 MLOAD DUP1 SWAP2 SUB SWAP1 RETURN JUMPDEST PUSH2 0x356 PUSH1 0x4 DUP1 CALLDATASIZE SUB DUP2 ADD SWAP1 PUSH2 0x351 SWAP2 SWAP1 PUSH2 0x1DF0 JUMP JUMPDEST PUSH2 0x1734 JUMP JUMPDEST PUSH1 0x40 MLOAD PUSH2 0x365 SWAP4 SWAP3 SWAP2 SWAP1 PUSH2 0x2719 JUMP JUMPDEST PUSH1 0x40 MLOAD DUP1 SWAP2 SUB SWAP1 RETURN JUMPDEST PUSH2 0x376 PUSH2 0x1755 JUMP JUMPDEST PUSH1 0x40 MLOAD PUSH2 0x383 SWAP2 SWAP1 PUSH2 0x26C1 JUMP JUMPDEST PUSH1 0x40 MLOAD DUP1 SWAP2 SUB SWAP1 RETURN JUMPDEST PUSH1 0x0 PUSH2 0x399 DUP5 DUP5 DUP5 PUSH2 0x181D JUMP JUMPDEST SWAP1 POP SWAP4 SWAP3 POP POP POP JUMP JUMPDEST PUSH1 0x0 PUSH2 0x3AD DUP3 PUSH2 0x1841 JUMP JUMPDEST SWAP1 POP SWAP2 SWAP1 POP JUMP JUMPDEST PUSH1 0x0 PUSH1 0x40 MLOAD PUSH1 0x20 ADD PUSH2 0x3C5 SWAP1 PUSH2 0x254D JUMP JUMPDEST PUSH1 0x40 MLOAD PUSH1 0x20 DUP2 DUP4 SUB SUB DUP2 MSTORE SWAP1 PUSH1 0x40 MSTORE DUP1 MLOAD SWAP1 PUSH1 0x20 ADD KECCAK256 DUP3 PUSH1 0x40 MLOAD PUSH1 0x20 ADD PUSH2 0x3EC SWAP2 SWAP1 PUSH2 0x2536 JUMP JUMPDEST PUSH1 0x40 MLOAD PUSH1 0x20 DUP2 DUP4 SUB SUB DUP2 MSTORE SWAP1 PUSH1 0x40 MSTORE DUP1 MLOAD SWAP1 PUSH1 0x20 ADD KECCAK256 EQ SWAP1 POP SWAP2 SWAP1 POP JUMP JUMPDEST PUSH1 0x3 PUSH1 0x0 SWAP1 SLOAD SWAP1 PUSH2 0x100 EXP SWAP1 DIV PUSH20 0xFFFFFFFFFFFFFFFFFFFFFFFFFFFFFFFFFFFFFFFF AND PUSH1 0x2 PUSH1 0x0 SWAP1 SLOAD SWAP1 PUSH2 0x100 EXP SWAP1 DIV PUSH20 0xFFFFFFFFFFFFFFFFFFFFFFFFFFFFFFFFFFFFFFFF AND PUSH20 0xFFFFFFFFFFFFFFFFFFFFFFFFFFFFFFFFFFFFFFFF AND DUP2 PUSH20 0xFFFFFFFFFFFFFFFFFFFFFFFFFFFFFFFFFFFFFFFF AND EQ ISZERO PUSH2 0x4F6 JUMPI DUP1 PUSH20 0xFFFFFFFFFFFFFFFFFFFFFFFFFFFFFFFFFFFFFFFF AND CALLER PUSH20 0xFFFFFFFFFFFFFFFFFFFFFFFFFFFFFFFFFFFFFFFF AND EQ PUSH2 0x4F1 JUMPI PUSH1 0x40 MLOAD PUSH32 0x8C379A000000000000000000000000000000000000000000000000000000000 DUP2 MSTORE PUSH1 0x4 ADD PUSH2 0x4E8 SWAP1 PUSH2 0x2601 JUMP JUMPDEST PUSH1 0x40 MLOAD DUP1 SWAP2 SUB SWAP1 REVERT JUMPDEST PUSH2 0x5BC JUMP JUMPDEST PUSH1 0x3 PUSH1 0x0 SWAP1 SLOAD SWAP1 PUSH2 0x100 EXP SWAP1 DIV PUSH20 0xFFFFFFFFFFFFFFFFFFFFFFFFFFFFFFFFFFFFFFFF AND PUSH20 0xFFFFFFFFFFFFFFFFFFFFFFFFFFFFFFFFFFFFFFFF AND DUP2 PUSH20 0xFFFFFFFFFFFFFFFFFFFFFFFFFFFFFFFFFFFFFFFF AND EQ ISZERO PUSH2 0x5BB JUMPI DUP1 PUSH20 0xFFFFFFFFFFFFFFFFFFFFFFFFFFFFFFFFFFFFFFFF AND CALLER PUSH20 0xFFFFFFFFFFFFFFFFFFFFFFFFFFFFFFFFFFFFFFFF AND EQ PUSH2 0x5BA JUMPI PUSH1 0x40 MLOAD PUSH32 0x8C379A000000000000000000000000000000000000000000000000000000000 DUP2 MSTORE PUSH1 0x4 ADD PUSH2 0x5B1 SWAP1 PUSH2 0x2641 JUMP JUMPDEST PUSH1 0x40 MLOAD DUP1 SWAP2 SUB SWAP1 REVERT JUMPDEST JUMPDEST JUMPDEST PUSH1 0x0 DUP6 LT ISZERO PUSH2 0x600 JUMPI PUSH1 0x40 MLOAD PUSH32 0x8C379A000000000000000000000000000000000000000000000000000000000 DUP2 MSTORE PUSH1 0x4 ADD PUSH2 0x5F7 SWAP1 PUSH2 0x25C1 JUMP JUMPDEST PUSH1 0x40 MLOAD DUP1 SWAP2 SUB SWAP1 REVERT JUMPDEST PUSH1 0x0 PUSH1 0x7 DUP2 GT ISZERO PUSH2 0x614 JUMPI PUSH2 0x613 PUSH2 0x2E63 JUMP JUMPDEST JUMPDEST PUSH1 0x5 DUP7 DUP2 SLOAD DUP2 LT PUSH2 0x628 JUMPI PUSH2 0x627 PUSH2 0x2EC1 JUMP JUMPDEST JUMPDEST SWAP1 PUSH1 0x0 MSTORE PUSH1 0x20 PUSH1 0x0 KECCAK256 SWAP1 PUSH1 0x7 MUL ADD PUSH1 0x6 ADD PUSH1 0x0 SWAP1 SLOAD SWAP1 PUSH2 0x100 EXP SWAP1 DIV PUSH1 0xFF AND PUSH1 0x7 DUP2 GT ISZERO PUSH2 0x659 JUMPI PUSH2 0x658 PUSH2 0x2E63 JUMP JUMPDEST JUMPDEST EQ PUSH2 0x699 JUMPI PUSH1 0x40 MLOAD PUSH32 0x8C379A000000000000000000000000000000000000000000000000000000000 DUP2 MSTORE PUSH1 0x4 ADD PUSH2 0x690 SWAP1 PUSH2 0x2681 JUMP JUMPDEST PUSH1 0x40 MLOAD DUP1 SWAP2 SUB SWAP1 REVERT JUMPDEST PUSH1 0x5 PUSH1 0x40 MLOAD DUP1 PUSH1 0xE0 ADD PUSH1 0x40 MSTORE DUP1 DUP8 DUP2 MSTORE PUSH1 0x20 ADD PUSH1 0x8 PUSH1 0x0 DUP2 SLOAD DUP1 SWAP3 SWAP2 SWAP1 PUSH2 0x6BF SWAP1 PUSH2 0x2D8B JUMP JUMPDEST SWAP2 SWAP1 POP SSTORE DUP2 MSTORE PUSH1 0x20 ADD DUP7 DUP2 MSTORE PUSH1 0x20 ADD DUP6 DUP2 MSTORE PUSH1 0x20 ADD DUP5 DUP2 MSTORE PUSH1 0x20 ADD TIMESTAMP DUP2 MSTORE PUSH1 0x20 ADD PUSH1 0x2 PUSH1 0x7 DUP2 GT ISZERO PUSH2 0x6F4 JUMPI PUSH2 0x6F3 PUSH2 0x2E63 JUMP JUMPDEST JUMPDEST DUP2 MSTORE POP SWAP1 DUP1 PUSH1 0x1 DUP2 SLOAD ADD DUP1 DUP3 SSTORE DUP1 SWAP2 POP POP PUSH1 0x1 SWAP1 SUB SWAP1 PUSH1 0x0 MSTORE PUSH1 0x20 PUSH1 0x0 KECCAK256 SWAP1 PUSH1 0x7 MUL ADD PUSH1 0x0 SWAP1 SWAP2 SWAP1 SWAP2 SWAP1 SWAP2 POP PUSH1 0x0 DUP3 ADD MLOAD DUP2 PUSH1 0x0 ADD SSTORE PUSH1 0x20 DUP3 ADD MLOAD DUP2 PUSH1 0x1 ADD SSTORE PUSH1 0x40 DUP3 ADD MLOAD DUP2 PUSH1 0x2 ADD SSTORE PUSH1 0x60 DUP3 ADD MLOAD DUP2 PUSH1 0x3 ADD SSTORE PUSH1 0x80 DUP3 ADD MLOAD DUP2 PUSH1 0x4 ADD SSTORE PUSH1 0xA0 DUP3 ADD MLOAD DUP2 PUSH1 0x5 ADD SSTORE PUSH1 0xC0 DUP3 ADD MLOAD DUP2 PUSH1 0x6 ADD PUSH1 0x0 PUSH2 0x100 EXP DUP2 SLOAD DUP2 PUSH1 0xFF MUL NOT AND SWAP1 DUP4 PUSH1 0x7 DUP2 GT ISZERO PUSH2 0x787 JUMPI PUSH2 0x786 PUSH2 0x2E63 JUMP JUMPDEST JUMPDEST MUL OR SWAP1 SSTORE POP POP POP POP POP POP POP POP JUMP JUMPDEST PUSH1 0x0 DUP1 PUSH1 0x7 PUSH2 0x7A3 DUP5 PUSH2 0x3A2 JUMP JUMPDEST EQ SWAP1 POP DUP1 SWAP2 POP POP SWAP2 SWAP1 POP JUMP JUMPDEST PUSH1 0x0 PUSH2 0x7BA DUP3 PUSH2 0x1882 JUMP JUMPDEST SWAP1 POP SWAP2 SWAP1 POP JUMP JUMPDEST PUSH1 0x0 DUP1 PUSH1 0x40 MLOAD DUP1 PUSH1 0xE0 ADD PUSH1 0x40 MSTORE DUP1 PUSH1 0x0 DUP2 MSTORE PUSH1 0x20 ADD PUSH1 0x1 DUP2 MSTORE PUSH1 0x20 ADD PUSH1 0x2 DUP2 MSTORE PUSH1 0x20 ADD PUSH1 0x3 DUP2 MSTORE PUSH1 0x20 ADD PUSH1 0x4 DUP2 MSTORE PUSH1 0x20 ADD PUSH1 0x5 DUP2 MSTORE PUSH1 0x20 ADD PUSH1 0x3 PUSH1 0x7 DUP2 GT ISZERO PUSH2 0x80D JUMPI PUSH2 0x80C PUSH2 0x2E63 JUMP JUMPDEST JUMPDEST DUP2 MSTORE POP SWAP1 POP PUSH1 0x3 PUSH1 0x7 DUP2 GT ISZERO PUSH2 0x826 JUMPI PUSH2 0x825 PUSH2 0x2E63 JUMP JUMPDEST JUMPDEST DUP2 PUSH1 0xC0 ADD MLOAD PUSH1 0x7 DUP2 GT ISZERO PUSH2 0x83D JUMPI PUSH2 0x83C PUSH2 0x2E63 JUMP JUMPDEST JUMPDEST EQ SWAP2 POP POP SWAP1 JUMP JUMPDEST PUSH1 0x60 PUSH1 0x4 DUP1 SLOAD DUP1 PUSH1 0x20 MUL PUSH1 0x20 ADD PUSH1 0x40 MLOAD SWAP1 DUP2 ADD PUSH1 0x40 MSTORE DUP1 SWAP3 SWAP2 SWAP1 DUP2 DUP2 MSTORE PUSH1 0x20 ADD PUSH1 0x0 SWAP1 JUMPDEST DUP3 DUP3 LT ISZERO PUSH2 0xAB4 JUMPI DUP4 DUP3 SWAP1 PUSH1 0x0 MSTORE PUSH1 0x20 PUSH1 0x0 KECCAK256 SWAP1 PUSH1 0x8 MUL ADD PUSH1 0x40 MLOAD DUP1 PUSH2 0x100 ADD PUSH1 0x40 MSTORE SWAP1 DUP2 PUSH1 0x0 DUP3 ADD SLOAD DUP2 MSTORE PUSH1 0x20 ADD PUSH1 0x1 DUP3 ADD SLOAD DUP2 MSTORE PUSH1 0x20 ADD PUSH1 0x2 DUP3 ADD SLOAD DUP2 MSTORE PUSH1 0x20 ADD PUSH1 0x3 DUP3 ADD DUP1 SLOAD PUSH2 0x8BA SWAP1 PUSH2 0x2D28 JUMP JUMPDEST DUP1 PUSH1 0x1F ADD PUSH1 0x20 DUP1 SWAP2 DIV MUL PUSH1 0x20 ADD PUSH1 0x40 MLOAD SWAP1 DUP2 ADD PUSH1 0x40 MSTORE DUP1 SWAP3 SWAP2 SWAP1 DUP2 DUP2 MSTORE PUSH1 0x20 ADD DUP3 DUP1 SLOAD PUSH2 0x8E6 SWAP1 PUSH2 0x2D28 JUMP JUMPDEST DUP1 ISZERO PUSH2 0x933 JUMPI DUP1 PUSH1 0x1F LT PUSH2 0x908 JUMPI PUSH2 0x100 DUP1 DUP4 SLOAD DIV MUL DUP4 MSTORE SWAP2 PUSH1 0x20 ADD SWAP2 PUSH2 0x933 JUMP JUMPDEST DUP3 ADD SWAP2 SWAP1 PUSH1 0x0 MSTORE PUSH1 0x20 PUSH1 0x0 KECCAK256 SWAP1 JUMPDEST DUP2 SLOAD DUP2 MSTORE SWAP1 PUSH1 0x1 ADD SWAP1 PUSH1 0x20 ADD DUP1 DUP4 GT PUSH2 0x916 JUMPI DUP3 SWAP1 SUB PUSH1 0x1F AND DUP3 ADD SWAP2 JUMPDEST POP POP POP POP POP DUP2 MSTORE PUSH1 0x20 ADD PUSH1 0x4 DUP3 ADD DUP1 SLOAD PUSH2 0x94C SWAP1 PUSH2 0x2D28 JUMP JUMPDEST DUP1 PUSH1 0x1F ADD PUSH1 0x20 DUP1 SWAP2 DIV MUL PUSH1 0x20 ADD PUSH1 0x40 MLOAD SWAP1 DUP2 ADD PUSH1 0x40 MSTORE DUP1 SWAP3 SWAP2 SWAP1 DUP2 DUP2 MSTORE PUSH1 0x20 ADD DUP3 DUP1 SLOAD PUSH2 0x978 SWAP1 PUSH2 0x2D28 JUMP JUMPDEST DUP1 ISZERO PUSH2 0x9C5 JUMPI DUP1 PUSH1 0x1F LT PUSH2 0x99A JUMPI PUSH2 0x100 DUP1 DUP4 SLOAD DIV MUL DUP4 MSTORE SWAP2 PUSH1 0x20 ADD SWAP2 PUSH2 0x9C5 JUMP JUMPDEST DUP3 ADD SWAP2 SWAP1 PUSH1 0x0 MSTORE PUSH1 0x20 PUSH1 0x0 KECCAK256 SWAP1 JUMPDEST DUP2 SLOAD DUP2 MSTORE SWAP1 PUSH1 0x1 ADD SWAP1 PUSH1 0x20 ADD DUP1 DUP4 GT PUSH2 0x9A8 JUMPI DUP3 SWAP1 SUB PUSH1 0x1F AND DUP3 ADD SWAP2 JUMPDEST POP POP POP POP POP DUP2 MSTORE PUSH1 0x20 ADD PUSH1 0x5 DUP3 ADD DUP1 SLOAD PUSH2 0x9DE SWAP1 PUSH2 0x2D28 JUMP JUMPDEST DUP1 PUSH1 0x1F ADD PUSH1 0x20 DUP1 SWAP2 DIV MUL PUSH1 0x20 ADD PUSH1 0x40 MLOAD SWAP1 DUP2 ADD PUSH1 0x40 MSTORE DUP1 SWAP3 SWAP2 SWAP1 DUP2 DUP2 MSTORE PUSH1 0x20 ADD DUP3 DUP1 SLOAD PUSH2 0xA0A SWAP1 PUSH2 0x2D28 JUMP JUMPDEST DUP1 ISZERO PUSH2 0xA57 JUMPI DUP1 PUSH1 0x1F LT PUSH2 0xA2C JUMPI PUSH2 0x100 DUP1 DUP4 SLOAD DIV MUL DUP4 MSTORE SWAP2 PUSH1 0x20 ADD SWAP2 PUSH2 0xA57 JUMP JUMPDEST DUP3 ADD SWAP2 SWAP1 PUSH1 0x0 MSTORE PUSH1 0x20 PUSH1 0x0 KECCAK256 SWAP1 JUMPDEST DUP2 SLOAD DUP2 MSTORE SWAP1 PUSH1 0x1 ADD SWAP1 PUSH1 0x20 ADD DUP1 DUP4 GT PUSH2 0xA3A JUMPI DUP3 SWAP1 SUB PUSH1 0x1F AND DUP3 ADD SWAP2 JUMPDEST POP POP POP POP POP DUP2 MSTORE PUSH1 0x20 ADD PUSH1 0x6 DUP3 ADD SLOAD DUP2 MSTORE PUSH1 0x20 ADD PUSH1 0x7 DUP3 ADD PUSH1 0x0 SWAP1 SLOAD SWAP1 PUSH2 0x100 EXP SWAP1 DIV PUSH1 0xFF AND PUSH1 0x7 DUP2 GT ISZERO PUSH2 0xA8F JUMPI PUSH2 0xA8E PUSH2 0x2E63 JUMP JUMPDEST JUMPDEST PUSH1 0x7 DUP2 GT ISZERO PUSH2 0xAA1 JUMPI PUSH2 0xAA0 PUSH2 0x2E63 JUMP JUMPDEST JUMPDEST DUP2 MSTORE POP POP DUP2 MSTORE PUSH1 0x20 ADD SWAP1 PUSH1 0x1 ADD SWAP1 PUSH2 0x868 JUMP JUMPDEST POP POP POP POP SWAP1 POP SWAP1 JUMP JUMPDEST PUSH2 0xAC5 PUSH2 0x1BD9 JUMP JUMPDEST PUSH1 0x5 DUP3 DUP2 SLOAD DUP2 LT PUSH2 0xAD9 JUMPI PUSH2 0xAD8 PUSH2 0x2EC1 JUMP JUMPDEST JUMPDEST SWAP1 PUSH1 0x0 MSTORE PUSH1 0x20 PUSH1 0x0 KECCAK256 SWAP1 PUSH1 0x7 MUL ADD PUSH1 0x40 MLOAD DUP1 PUSH1 0xE0 ADD PUSH1 0x40 MSTORE SWAP1 DUP2 PUSH1 0x0 DUP3 ADD SLOAD DUP2 MSTORE PUSH1 0x20 ADD PUSH1 0x1 DUP3 ADD SLOAD DUP2 MSTORE PUSH1 0x20 ADD PUSH1 0x2 DUP3 ADD SLOAD DUP2 MSTORE PUSH1 0x20 ADD PUSH1 0x3 DUP3 ADD SLOAD DUP2 MSTORE PUSH1 0x20 ADD PUSH1 0x4 DUP3 ADD SLOAD DUP2 MSTORE PUSH1 0x20 ADD PUSH1 0x5 DUP3 ADD SLOAD DUP2 MSTORE PUSH1 0x20 ADD PUSH1 0x6 DUP3 ADD PUSH1 0x0 SWAP1 SLOAD SWAP1 PUSH2 0x100 EXP SWAP1 DIV PUSH1 0xFF AND PUSH1 0x7 DUP2 GT ISZERO PUSH2 0xB53 JUMPI PUSH2 0xB52 PUSH2 0x2E63 JUMP JUMPDEST JUMPDEST PUSH1 0x7 DUP2 GT ISZERO PUSH2 0xB65 JUMPI PUSH2 0xB64 PUSH2 0x2E63 JUMP JUMPDEST JUMPDEST DUP2 MSTORE POP POP SWAP1 POP SWAP2 SWAP1 POP JUMP JUMPDEST PUSH2 0xB78 PUSH2 0x1C28 JUMP JUMPDEST PUSH1 0x0 PUSH1 0x1 PUSH1 0x4 DUP1 SLOAD SWAP1 POP PUSH2 0xB8C SWAP2 SWAP1 PUSH2 0x2C6D JUMP JUMPDEST SWAP1 POP PUSH1 0x4 DUP2 DUP2 SLOAD DUP2 LT PUSH2 0xBA2 JUMPI PUSH2 0xBA1 PUSH2 0x2EC1 JUMP JUMPDEST JUMPDEST SWAP1 PUSH1 0x0 MSTORE PUSH1 0x20 PUSH1 0x0 KECCAK256 SWAP1 PUSH1 0x8 MUL ADD PUSH1 0x40 MLOAD DUP1 PUSH2 0x100 ADD PUSH1 0x40 MSTORE SWAP1 DUP2 PUSH1 0x0 DUP3 ADD SLOAD DUP2 MSTORE PUSH1 0x20 ADD PUSH1 0x1 DUP3 ADD SLOAD DUP2 MSTORE PUSH1 0x20 ADD PUSH1 0x2 DUP3 ADD SLOAD DUP2 MSTORE PUSH1 0x20 ADD PUSH1 0x3 DUP3 ADD DUP1 SLOAD PUSH2 0xBEA SWAP1 PUSH2 0x2D28 JUMP JUMPDEST DUP1 PUSH1 0x1F ADD PUSH1 0x20 DUP1 SWAP2 DIV MUL PUSH1 0x20 ADD PUSH1 0x40 MLOAD SWAP1 DUP2 ADD PUSH1 0x40 MSTORE DUP1 SWAP3 SWAP2 SWAP1 DUP2 DUP2 MSTORE PUSH1 0x20 ADD DUP3 DUP1 SLOAD PUSH2 0xC16 SWAP1 PUSH2 0x2D28 JUMP JUMPDEST DUP1 ISZERO PUSH2 0xC63 JUMPI DUP1 PUSH1 0x1F LT PUSH2 0xC38 JUMPI PUSH2 0x100 DUP1 DUP4 SLOAD DIV MUL DUP4 MSTORE SWAP2 PUSH1 0x20 ADD SWAP2 PUSH2 0xC63 JUMP JUMPDEST DUP3 ADD SWAP2 SWAP1 PUSH1 0x0 MSTORE PUSH1 0x20 PUSH1 0x0 KECCAK256 SWAP1 JUMPDEST DUP2 SLOAD DUP2 MSTORE SWAP1 PUSH1 0x1 ADD SWAP1 PUSH1 0x20 ADD DUP1 DUP4 GT PUSH2 0xC46 JUMPI DUP3 SWAP1 SUB PUSH1 0x1F AND DUP3 ADD SWAP2 JUMPDEST POP POP POP POP POP DUP2 MSTORE PUSH1 0x20 ADD PUSH1 0x4 DUP3 ADD DUP1 SLOAD PUSH2 0xC7C SWAP1 PUSH2 0x2D28 JUMP JUMPDEST DUP1 PUSH1 0x1F ADD PUSH1 0x20 DUP1 SWAP2 DIV MUL PUSH1 0x20 ADD PUSH1 0x40 MLOAD SWAP1 DUP2 ADD PUSH1 0x40 MSTORE DUP1 SWAP3 SWAP2 SWAP1 DUP2 DUP2 MSTORE PUSH1 0x20 ADD DUP3 DUP1 SLOAD PUSH2 0xCA8 SWAP1 PUSH2 0x2D28 JUMP JUMPDEST DUP1 ISZERO PUSH2 0xCF5 JUMPI DUP1 PUSH1 0x1F LT PUSH2 0xCCA JUMPI PUSH2 0x100 DUP1 DUP4 SLOAD DIV MUL DUP4 MSTORE SWAP2 PUSH1 0x20 ADD SWAP2 PUSH2 0xCF5 JUMP JUMPDEST DUP3 ADD SWAP2 SWAP1 PUSH1 0x0 MSTORE PUSH1 0x20 PUSH1 0x0 KECCAK256 SWAP1 JUMPDEST DUP2 SLOAD DUP2 MSTORE SWAP1 PUSH1 0x1 ADD SWAP1 PUSH1 0x20 ADD DUP1 DUP4 GT PUSH2 0xCD8 JUMPI DUP3 SWAP1 SUB PUSH1 0x1F AND DUP3 ADD SWAP2 JUMPDEST POP POP POP POP POP DUP2 MSTORE PUSH1 0x20 ADD PUSH1 0x5 DUP3 ADD DUP1 SLOAD PUSH2 0xD0E SWAP1 PUSH2 0x2D28 JUMP JUMPDEST DUP1 PUSH1 0x1F ADD PUSH1 0x20 DUP1 SWAP2 DIV MUL PUSH1 0x20 ADD PUSH1 0x40 MLOAD SWAP1 DUP2 ADD PUSH1 0x40 MSTORE DUP1 SWAP3 SWAP2 SWAP1 DUP2 DUP2 MSTORE PUSH1 0x20 ADD DUP3 DUP1 SLOAD PUSH2 0xD3A SWAP1 PUSH2 0x2D28 JUMP JUMPDEST DUP1 ISZERO PUSH2 0xD87 JUMPI DUP1 PUSH1 0x1F LT PUSH2 0xD5C JUMPI PUSH2 0x100 DUP1 DUP4 SLOAD DIV MUL DUP4 MSTORE SWAP2 PUSH1 0x20 ADD SWAP2 PUSH2 0xD87 JUMP JUMPDEST DUP3 ADD SWAP2 SWAP1 PUSH1 0x0 MSTORE PUSH1 0x20 PUSH1 0x0 KECCAK256 SWAP1 JUMPDEST DUP2 SLOAD DUP2 MSTORE SWAP1 PUSH1 0x1 ADD SWAP1 PUSH1 0x20 ADD DUP1 DUP4 GT PUSH2 0xD6A JUMPI DUP3 SWAP1 SUB PUSH1 0x1F AND DUP3 ADD SWAP2 JUMPDEST POP POP POP POP POP DUP2 MSTORE PUSH1 0x20 ADD PUSH1 0x6 DUP3 ADD SLOAD DUP2 MSTORE PUSH1 0x20 ADD PUSH1 0x7 DUP3 ADD PUSH1 0x0 SWAP1 SLOAD SWAP1 PUSH2 0x100 EXP SWAP1 DIV PUSH1 0xFF AND PUSH1 0x7 DUP2 GT ISZERO PUSH2 0xDBF JUMPI PUSH2 0xDBE PUSH2 0x2E63 JUMP JUMPDEST JUMPDEST PUSH1 0x7 DUP2 GT ISZERO PUSH2 0xDD1 JUMPI PUSH2 0xDD0 PUSH2 0x2E63 JUMP JUMPDEST JUMPDEST DUP2 MSTORE POP POP SWAP2 POP POP SWAP1 JUMP JUMPDEST PUSH1 0x4 DUP2 DUP2 SLOAD DUP2 LT PUSH2 0xDEB JUMPI PUSH1 0x0 DUP1 REVERT JUMPDEST SWAP1 PUSH1 0x0 MSTORE PUSH1 0x20 PUSH1 0x0 KECCAK256 SWAP1 PUSH1 0x8 MUL ADD PUSH1 0x0 SWAP2 POP SWAP1 POP DUP1 PUSH1 0x0 ADD SLOAD SWAP1 DUP1 PUSH1 0x1 ADD SLOAD SWAP1 DUP1 PUSH1 0x2 ADD SLOAD SWAP1 DUP1 PUSH1 0x3 ADD DUP1 SLOAD PUSH2 0xE20 SWAP1 PUSH2 0x2D28 JUMP JUMPDEST DUP1 PUSH1 0x1F ADD PUSH1 0x20 DUP1 SWAP2 DIV MUL PUSH1 0x20 ADD PUSH1 0x40 MLOAD SWAP1 DUP2 ADD PUSH1 0x40 MSTORE DUP1 SWAP3 SWAP2 SWAP1 DUP2 DUP2 MSTORE PUSH1 0x20 ADD DUP3 DUP1 SLOAD PUSH2 0xE4C SWAP1 PUSH2 0x2D28 JUMP JUMPDEST DUP1 ISZERO PUSH2 0xE99 JUMPI DUP1 PUSH1 0x1F LT PUSH2 0xE6E JUMPI PUSH2 0x100 DUP1 DUP4 SLOAD DIV MUL DUP4 MSTORE SWAP2 PUSH1 0x20 ADD SWAP2 PUSH2 0xE99 JUMP JUMPDEST DUP3 ADD SWAP2 SWAP1 PUSH1 0x0 MSTORE PUSH1 0x20 PUSH1 0x0 KECCAK256 SWAP1 JUMPDEST DUP2 SLOAD DUP2 MSTORE SWAP1 PUSH1 0x1 ADD SWAP1 PUSH1 0x20 ADD DUP1 DUP4 GT PUSH2 0xE7C JUMPI DUP3 SWAP1 SUB PUSH1 0x1F AND DUP3 ADD SWAP2 JUMPDEST POP POP POP POP POP SWAP1 DUP1 PUSH1 0x4 ADD DUP1 SLOAD PUSH2 0xEAE SWAP1 PUSH2 0x2D28 JUMP JUMPDEST DUP1 PUSH1 0x1F ADD PUSH1 0x20 DUP1 SWAP2 DIV MUL PUSH1 0x20 ADD PUSH1 0x40 MLOAD SWAP1 DUP2 ADD PUSH1 0x40 MSTORE DUP1 SWAP3 SWAP2 SWAP1 DUP2 DUP2 MSTORE PUSH1 0x20 ADD DUP3 DUP1 SLOAD PUSH2 0xEDA SWAP1 PUSH2 0x2D28 JUMP JUMPDEST DUP1 ISZERO PUSH2 0xF27 JUMPI DUP1 PUSH1 0x1F LT PUSH2 0xEFC JUMPI PUSH2 0x100 DUP1 DUP4 SLOAD DIV MUL DUP4 MSTORE SWAP2 PUSH1 0x20 ADD SWAP2 PUSH2 0xF27 JUMP JUMPDEST DUP3 ADD SWAP2 SWAP1 PUSH1 0x0 MSTORE PUSH1 0x20 PUSH1 0x0 KECCAK256 SWAP1 JUMPDEST DUP2 SLOAD DUP2 MSTORE SWAP1 PUSH1 0x1 ADD SWAP1 PUSH1 0x20 ADD DUP1 DUP4 GT PUSH2 0xF0A JUMPI DUP3 SWAP1 SUB PUSH1 0x1F AND DUP3 ADD SWAP2 JUMPDEST POP POP POP POP POP SWAP1 DUP1 PUSH1 0x5 ADD DUP1 SLOAD PUSH2 0xF3C SWAP1 PUSH2 0x2D28 JUMP JUMPDEST DUP1 PUSH1 0x1F ADD PUSH1 0x20 DUP1 SWAP2 DIV MUL PUSH1 0x20 ADD PUSH1 0x40 MLOAD SWAP1 DUP2 ADD PUSH1 0x40 MSTORE DUP1 SWAP3 SWAP2 SWAP1 DUP2 DUP2 MSTORE PUSH1 0x20 ADD DUP3 DUP1 SLOAD PUSH2 0xF68 SWAP1 PUSH2 0x2D28 JUMP JUMPDEST DUP1 ISZERO PUSH2 0xFB5 JUMPI DUP1 PUSH1 0x1F LT PUSH2 0xF8A JUMPI PUSH2 0x100 DUP1 DUP4 SLOAD DIV MUL DUP4 MSTORE SWAP2 PUSH1 0x20 ADD SWAP2 PUSH2 0xFB5 JUMP JUMPDEST DUP3 ADD SWAP2 SWAP1 PUSH1 0x0 MSTORE PUSH1 0x20 PUSH1 0x0 KECCAK256 SWAP1 JUMPDEST DUP2 SLOAD DUP2 MSTORE SWAP1 PUSH1 0x1 ADD SWAP1 PUSH1 0x20 ADD DUP1 DUP4 GT PUSH2 0xF98 JUMPI DUP3 SWAP1 SUB PUSH1 0x1F AND DUP3 ADD SWAP2 JUMPDEST POP POP POP POP POP SWAP1 DUP1 PUSH1 0x6 ADD SLOAD SWAP1 DUP1 PUSH1 0x7 ADD PUSH1 0x0 SWAP1 SLOAD SWAP1 PUSH2 0x100 EXP SWAP1 DIV PUSH1 0xFF AND SWAP1 POP DUP9 JUMP JUMPDEST PUSH1 0x2 PUSH1 0x0 SWAP1 SLOAD SWAP1 PUSH2 0x100 EXP SWAP1 DIV PUSH20 0xFFFFFFFFFFFFFFFFFFFFFFFFFFFFFFFFFFFFFFFF AND PUSH1 0x2 PUSH1 0x0 SWAP1 SLOAD SWAP1 PUSH2 0x100 EXP SWAP1 DIV PUSH20 0xFFFFFFFFFFFFFFFFFFFFFFFFFFFFFFFFFFFFFFFF AND PUSH20 0xFFFFFFFFFFFFFFFFFFFFFFFFFFFFFFFFFFFFFFFF AND DUP2 PUSH20 0xFFFFFFFFFFFFFFFFFFFFFFFFFFFFFFFFFFFFFFFF AND EQ ISZERO PUSH2 0x10C4 JUMPI DUP1 PUSH20 0xFFFFFFFFFFFFFFFFFFFFFFFFFFFFFFFFFFFFFFFF AND CALLER PUSH20 0xFFFFFFFFFFFFFFFFFFFFFFFFFFFFFFFFFFFFFFFF AND EQ PUSH2 0x10BF JUMPI PUSH1 0x40 MLOAD PUSH32 0x8C379A000000000000000000000000000000000000000000000000000000000 DUP2 MSTORE PUSH1 0x4 ADD PUSH2 0x10B6 SWAP1 PUSH2 0x2601 JUMP JUMPDEST PUSH1 0x40 MLOAD DUP1 SWAP2 SUB SWAP1 REVERT JUMPDEST PUSH2 0x118A JUMP JUMPDEST PUSH1 0x3 PUSH1 0x0 SWAP1 SLOAD SWAP1 PUSH2 0x100 EXP SWAP1 DIV PUSH20 0xFFFFFFFFFFFFFFFFFFFFFFFFFFFFFFFFFFFFFFFF AND PUSH20 0xFFFFFFFFFFFFFFFFFFFFFFFFFFFFFFFFFFFFFFFF AND DUP2 PUSH20 0xFFFFFFFFFFFFFFFFFFFFFFFFFFFFFFFFFFFFFFFF AND EQ ISZERO PUSH2 0x1189 JUMPI DUP1 PUSH20 0xFFFFFFFFFFFFFFFFFFFFFFFFFFFFFFFFFFFFFFFF AND CALLER PUSH20 0xFFFFFFFFFFFFFFFFFFFFFFFFFFFFFFFFFFFFFFFF AND EQ PUSH2 0x1188 JUMPI PUSH1 0x40 MLOAD PUSH32 0x8C379A000000000000000000000000000000000000000000000000000000000 DUP2 MSTORE PUSH1 0x4 ADD PUSH2 0x117F SWAP1 PUSH2 0x2641 JUMP JUMPDEST PUSH1 0x40 MLOAD DUP1 SWAP2 SUB SWAP1 REVERT JUMPDEST JUMPDEST JUMPDEST PUSH2 0x1193 TIMESTAMP PUSH2 0x795 JUMP JUMPDEST ISZERO PUSH2 0x11D3 JUMPI PUSH1 0x40 MLOAD PUSH32 0x8C379A000000000000000000000000000000000000000000000000000000000 DUP2 MSTORE PUSH1 0x4 ADD PUSH2 0x11CA SWAP1 PUSH2 0x25E1 JUMP JUMPDEST PUSH1 0x40 MLOAD DUP1 SWAP2 SUB SWAP1 REVERT JUMPDEST TIMESTAMP DUP6 LT ISZERO DUP1 ISZERO PUSH2 0x11E2 JUMPI POP DUP5 DUP5 GT JUMPDEST PUSH2 0x1221 JUMPI PUSH1 0x40 MLOAD PUSH32 0x8C379A000000000000000000000000000000000000000000000000000000000 DUP2 MSTORE PUSH1 0x4 ADD PUSH2 0x1218 SWAP1 PUSH2 0x2661 JUMP JUMPDEST PUSH1 0x40 MLOAD DUP1 SWAP2 SUB SWAP1 REVERT JUMPDEST PUSH2 0x122A DUP4 PUSH2 0x3B4 JUMP JUMPDEST ISZERO PUSH2 0x126A JUMPI PUSH1 0x40 MLOAD PUSH32 0x8C379A000000000000000000000000000000000000000000000000000000000 DUP2 MSTORE PUSH1 0x4 ADD PUSH2 0x1261 SWAP1 PUSH2 0x2621 JUMP JUMPDEST PUSH1 0x40 MLOAD DUP1 SWAP2 SUB SWAP1 REVERT JUMPDEST PUSH2 0x1273 DUP3 PUSH2 0x3B4 JUMP JUMPDEST ISZERO PUSH2 0x12B3 JUMPI PUSH1 0x40 MLOAD PUSH32 0x8C379A000000000000000000000000000000000000000000000000000000000 DUP2 MSTORE PUSH1 0x4 ADD PUSH2 0x12AA SWAP1 PUSH2 0x26A1 JUMP JUMPDEST PUSH1 0x40 MLOAD DUP1 SWAP2 SUB SWAP1 REVERT JUMPDEST PUSH1 0x4 PUSH1 0x40 MLOAD DUP1 PUSH2 0x100 ADD PUSH1 0x40 MSTORE DUP1 PUSH1 0x7 PUSH1 0x0 DUP2 SLOAD DUP1 SWAP3 SWAP2 SWAP1 PUSH2 0x12D4 SWAP1 PUSH2 0x2D8B JUMP JUMPDEST SWAP2 SWAP1 POP SSTORE DUP2 MSTORE PUSH1 0x20 ADD DUP8 DUP2 MSTORE PUSH1 0x20 ADD DUP7 DUP2 MSTORE PUSH1 0x20 ADD DUP6 DUP2 MSTORE PUSH1 0x20 ADD DUP5 DUP2 MSTORE PUSH1 0x20 ADD PUSH1 0x40 MLOAD DUP1 PUSH1 0x20 ADD PUSH1 0x40 MSTORE DUP1 PUSH1 0x0 DUP2 MSTORE POP DUP2 MSTORE PUSH1 0x20 ADD TIMESTAMP DUP2 MSTORE PUSH1 0x20 ADD PUSH1 0x0 PUSH1 0x7 DUP2 GT ISZERO PUSH2 0x1324 JUMPI PUSH2 0x1323 PUSH2 0x2E63 JUMP JUMPDEST JUMPDEST DUP2 MSTORE POP SWAP1 DUP1 PUSH1 0x1 DUP2 SLOAD ADD DUP1 DUP3 SSTORE DUP1 SWAP2 POP POP PUSH1 0x1 SWAP1 SUB SWAP1 PUSH1 0x0 MSTORE PUSH1 0x20 PUSH1 0x0 KECCAK256 SWAP1 PUSH1 0x8 MUL ADD PUSH1 0x0 SWAP1 SWAP2 SWAP1 SWAP2 SWAP1 SWAP2 POP PUSH1 0x0 DUP3 ADD MLOAD DUP2 PUSH1 0x0 ADD SSTORE PUSH1 0x20 DUP3 ADD MLOAD DUP2 PUSH1 0x1 ADD SSTORE PUSH1 0x40 DUP3 ADD MLOAD DUP2 PUSH1 0x2 ADD SSTORE PUSH1 0x60 DUP3 ADD MLOAD DUP2 PUSH1 0x3 ADD SWAP1 DUP1 MLOAD SWAP1 PUSH1 0x20 ADD SWAP1 PUSH2 0x138A SWAP3 SWAP2 SWAP1 PUSH2 0x1C7F JUMP JUMPDEST POP PUSH1 0x80 DUP3 ADD MLOAD DUP2 PUSH1 0x4 ADD SWAP1 DUP1 MLOAD SWAP1 PUSH1 0x20 ADD SWAP1 PUSH2 0x13A7 SWAP3 SWAP2 SWAP1 PUSH2 0x1C7F JUMP JUMPDEST POP PUSH1 0xA0 DUP3 ADD MLOAD DUP2 PUSH1 0x5 ADD SWAP1 DUP1 MLOAD SWAP1 PUSH1 0x20 ADD SWAP1 PUSH2 0x13C4 SWAP3 SWAP2 SWAP1 PUSH2 0x1C7F JUMP JUMPDEST POP PUSH1 0xC0 DUP3 ADD MLOAD DUP2 PUSH1 0x6 ADD SSTORE PUSH1 0xE0 DUP3 ADD MLOAD DUP2 PUSH1 0x7 ADD PUSH1 0x0 PUSH2 0x100 EXP DUP2 SLOAD DUP2 PUSH1 0xFF MUL NOT AND SWAP1 DUP4 PUSH1 0x7 DUP2 GT ISZERO PUSH2 0x13FA JUMPI PUSH2 0x13F9 PUSH2 0x2E63 JUMP JUMPDEST JUMPDEST MUL OR SWAP1 SSTORE POP POP POP POP POP POP POP POP JUMP JUMPDEST PUSH1 0x60 PUSH1 0x5 DUP1 SLOAD DUP1 PUSH1 0x20 MUL PUSH1 0x20 ADD PUSH1 0x40 MLOAD SWAP1 DUP2 ADD PUSH1 0x40 MSTORE DUP1 SWAP3 SWAP2 SWAP1 DUP2 DUP2 MSTORE PUSH1 0x20 ADD PUSH1 0x0 SWAP1 JUMPDEST DUP3 DUP3 LT ISZERO PUSH2 0x14D5 JUMPI DUP4 DUP3 SWAP1 PUSH1 0x0 MSTORE PUSH1 0x20 PUSH1 0x0 KECCAK256 SWAP1 PUSH1 0x7 MUL ADD PUSH1 0x40 MLOAD DUP1 PUSH1 0xE0 ADD PUSH1 0x40 MSTORE SWAP1 DUP2 PUSH1 0x0 DUP3 ADD SLOAD DUP2 MSTORE PUSH1 0x20 ADD PUSH1 0x1 DUP3 ADD SLOAD DUP2 MSTORE PUSH1 0x20 ADD PUSH1 0x2 DUP3 ADD SLOAD DUP2 MSTORE PUSH1 0x20 ADD PUSH1 0x3 DUP3 ADD SLOAD DUP2 MSTORE PUSH1 0x20 ADD PUSH1 0x4 DUP3 ADD SLOAD DUP2 MSTORE PUSH1 0x20 ADD PUSH1 0x5 DUP3 ADD SLOAD DUP2 MSTORE PUSH1 0x20 ADD PUSH1 0x6 DUP3 ADD PUSH1 0x0 SWAP1 SLOAD SWAP1 PUSH2 0x100 EXP SWAP1 DIV PUSH1 0xFF AND PUSH1 0x7 DUP2 GT ISZERO PUSH2 0x14B0 JUMPI PUSH2 0x14AF PUSH2 0x2E63 JUMP JUMPDEST JUMPDEST PUSH1 0x7 DUP2 GT ISZERO PUSH2 0x14C2 JUMPI PUSH2 0x14C1 PUSH2 0x2E63 JUMP JUMPDEST JUMPDEST DUP2 MSTORE POP POP DUP2 MSTORE PUSH1 0x20 ADD SWAP1 PUSH1 0x1 ADD SWAP1 PUSH2 0x142C JUMP JUMPDEST POP POP POP POP SWAP1 POP SWAP1 JUMP JUMPDEST PUSH2 0x14E6 PUSH2 0x1C28 JUMP JUMPDEST PUSH1 0x4 DUP3 DUP2 SLOAD DUP2 LT PUSH2 0x14FA JUMPI PUSH2 0x14F9 PUSH2 0x2EC1 JUMP JUMPDEST JUMPDEST SWAP1 PUSH1 0x0 MSTORE PUSH1 0x20 PUSH1 0x0 KECCAK256 SWAP1 PUSH1 0x8 MUL ADD PUSH1 0x40 MLOAD DUP1 PUSH2 0x100 ADD PUSH1 0x40 MSTORE SWAP1 DUP2 PUSH1 0x0 DUP3 ADD SLOAD DUP2 MSTORE PUSH1 0x20 ADD PUSH1 0x1 DUP3 ADD SLOAD DUP2 MSTORE PUSH1 0x20 ADD PUSH1 0x2 DUP3 ADD SLOAD DUP2 MSTORE PUSH1 0x20 ADD PUSH1 0x3 DUP3 ADD DUP1 SLOAD PUSH2 0x1542 SWAP1 PUSH2 0x2D28 JUMP JUMPDEST DUP1 PUSH1 0x1F ADD PUSH1 0x20 DUP1 SWAP2 DIV MUL PUSH1 0x20 ADD PUSH1 0x40 MLOAD SWAP1 DUP2 ADD PUSH1 0x40 MSTORE DUP1 SWAP3 SWAP2 SWAP1 DUP2 DUP2 MSTORE PUSH1 0x20 ADD DUP3 DUP1 SLOAD PUSH2 0x156E SWAP1 PUSH2 0x2D28 JUMP JUMPDEST DUP1 ISZERO PUSH2 0x15BB JUMPI DUP1 PUSH1 0x1F LT PUSH2 0x1590 JUMPI PUSH2 0x100 DUP1 DUP4 SLOAD DIV MUL DUP4 MSTORE SWAP2 PUSH1 0x20 ADD SWAP2 PUSH2 0x15BB JUMP JUMPDEST DUP3 ADD SWAP2 SWAP1 PUSH1 0x0 MSTORE PUSH1 0x20 PUSH1 0x0 KECCAK256 SWAP1 JUMPDEST DUP2 SLOAD DUP2 MSTORE SWAP1 PUSH1 0x1 ADD SWAP1 PUSH1 0x20 ADD DUP1 DUP4 GT PUSH2 0x159E JUMPI DUP3 SWAP1 SUB PUSH1 0x1F AND DUP3 ADD SWAP2 JUMPDEST POP POP POP POP POP DUP2 MSTORE PUSH1 0x20 ADD PUSH1 0x4 DUP3 ADD DUP1 SLOAD PUSH2 0x15D4 SWAP1 PUSH2 0x2D28 JUMP JUMPDEST DUP1 PUSH1 0x1F ADD PUSH1 0x20 DUP1 SWAP2 DIV MUL PUSH1 0x20 ADD PUSH1 0x40 MLOAD SWAP1 DUP2 ADD PUSH1 0x40 MSTORE DUP1 SWAP3 SWAP2 SWAP1 DUP2 DUP2 MSTORE PUSH1 0x20 ADD DUP3 DUP1 SLOAD PUSH2 0x1600 SWAP1 PUSH2 0x2D28 JUMP JUMPDEST DUP1 ISZERO PUSH2 0x164D JUMPI DUP1 PUSH1 0x1F LT PUSH2 0x1622 JUMPI PUSH2 0x100 DUP1 DUP4 SLOAD DIV MUL DUP4 MSTORE SWAP2 PUSH1 0x20 ADD SWAP2 PUSH2 0x164D JUMP JUMPDEST DUP3 ADD SWAP2 SWAP1 PUSH1 0x0 MSTORE PUSH1 0x20 PUSH1 0x0 KECCAK256 SWAP1 JUMPDEST DUP2 SLOAD DUP2 MSTORE SWAP1 PUSH1 0x1 ADD SWAP1 PUSH1 0x20 ADD DUP1 DUP4 GT PUSH2 0x1630 JUMPI DUP3 SWAP1 SUB PUSH1 0x1F AND DUP3 ADD SWAP2 JUMPDEST POP POP POP POP POP DUP2 MSTORE PUSH1 0x20 ADD PUSH1 0x5 DUP3 ADD DUP1 SLOAD PUSH2 0x1666 SWAP1 PUSH2 0x2D28 JUMP JUMPDEST DUP1 PUSH1 0x1F ADD PUSH1 0x20 DUP1 SWAP2 DIV MUL PUSH1 0x20 ADD PUSH1 0x40 MLOAD SWAP1 DUP2 ADD PUSH1 0x40 MSTORE DUP1 SWAP3 SWAP2 SWAP1 DUP2 DUP2 MSTORE PUSH1 0x20 ADD DUP3 DUP1 SLOAD PUSH2 0x1692 SWAP1 PUSH2 0x2D28 JUMP JUMPDEST DUP1 ISZERO PUSH2 0x16DF JUMPI DUP1 PUSH1 0x1F LT PUSH2 0x16B4 JUMPI PUSH2 0x100 DUP1 DUP4 SLOAD DIV MUL DUP4 MSTORE SWAP2 PUSH1 0x20 ADD SWAP2 PUSH2 0x16DF JUMP JUMPDEST DUP3 ADD SWAP2 SWAP1 PUSH1 0x0 MSTORE PUSH1 0x20 PUSH1 0x0 KECCAK256 SWAP1 JUMPDEST DUP2 SLOAD DUP2 MSTORE SWAP1 PUSH1 0x1 ADD SWAP1 PUSH1 0x20 ADD DUP1 DUP4 GT PUSH2 0x16C2 JUMPI DUP3 SWAP1 SUB PUSH1 0x1F AND DUP3 ADD SWAP2 JUMPDEST POP POP POP POP POP DUP2 MSTORE PUSH1 0x20 ADD PUSH1 0x6 DUP3 ADD SLOAD DUP2 MSTORE PUSH1 0x20 ADD PUSH1 0x7 DUP3 ADD PUSH1 0x0 SWAP1 SLOAD SWAP1 PUSH2 0x100 EXP SWAP1 DIV PUSH1 0xFF AND PUSH1 0x7 DUP2 GT ISZERO PUSH2 0x1717 JUMPI PUSH2 0x1716 PUSH2 0x2E63 JUMP JUMPDEST JUMPDEST PUSH1 0x7 DUP2 GT ISZERO PUSH2 0x1729 JUMPI PUSH2 0x1728 PUSH2 0x2E63 JUMP JUMPDEST JUMPDEST DUP2 MSTORE POP POP SWAP1 POP SWAP2 SWAP1 POP JUMP JUMPDEST PUSH1 0x0 DUP1 PUSH1 0x0 PUSH2 0x1742 DUP5 PUSH2 0x18AC JUMP JUMPDEST DUP1 SWAP4 POP DUP2 SWAP5 POP DUP3 SWAP6 POP POP POP POP SWAP2 SWAP4 SWAP1 SWAP3 POP JUMP JUMPDEST PUSH2 0x175D PUSH2 0x1BD9 JUMP JUMPDEST PUSH1 0x0 PUSH1 0x1 PUSH1 0x5 DUP1 SLOAD SWAP1 POP PUSH2 0x1771 SWAP2 SWAP1 PUSH2 0x2C6D JUMP JUMPDEST SWAP1 POP PUSH1 0x5 DUP2 DUP2 SLOAD DUP2 LT PUSH2 0x1787 JUMPI PUSH2 0x1786 PUSH2 0x2EC1 JUMP JUMPDEST JUMPDEST SWAP1 PUSH1 0x0 MSTORE PUSH1 0x20 PUSH1 0x0 KECCAK256 SWAP1 PUSH1 0x7 MUL ADD PUSH1 0x40 MLOAD DUP1 PUSH1 0xE0 ADD PUSH1 0x40 MSTORE SWAP1 DUP2 PUSH1 0x0 DUP3 ADD SLOAD DUP2 MSTORE PUSH1 0x20 ADD PUSH1 0x1 DUP3 ADD SLOAD DUP2 MSTORE PUSH1 0x20 ADD PUSH1 0x2 DUP3 ADD SLOAD DUP2 MSTORE PUSH1 0x20 ADD PUSH1 0x3 DUP3 ADD SLOAD DUP2 MSTORE PUSH1 0x20 ADD PUSH1 0x4 DUP3 ADD SLOAD DUP2 MSTORE PUSH1 0x20 ADD PUSH1 0x5 DUP3 ADD SLOAD DUP2 MSTORE PUSH1 0x20 ADD PUSH1 0x6 DUP3 ADD PUSH1 0x0 SWAP1 SLOAD SWAP1 PUSH2 0x100 EXP SWAP1 DIV PUSH1 0xFF AND PUSH1 0x7 DUP2 GT ISZERO PUSH2 0x1801 JUMPI PUSH2 0x1800 PUSH2 0x2E63 JUMP JUMPDEST JUMPDEST PUSH1 0x7 DUP2 GT ISZERO PUSH2 0x1813 JUMPI PUSH2 0x1812 PUSH2 0x2E63 JUMP JUMPDEST JUMPDEST DUP2 MSTORE POP POP SWAP2 POP POP SWAP1 JUMP JUMPDEST PUSH1 0x0 PUSH3 0x15180 PUSH2 0x182E DUP6 DUP6 DUP6 PUSH2 0x18DB JUMP JUMPDEST PUSH2 0x1838 SWAP2 SWAP1 PUSH2 0x2B7F JUMP JUMPDEST SWAP1 POP SWAP4 SWAP3 POP POP POP JUMP JUMPDEST PUSH1 0x0 DUP1 PUSH3 0x15180 DUP4 PUSH2 0x1853 SWAP2 SWAP1 PUSH2 0x2A37 JUMP JUMPDEST SWAP1 POP PUSH1 0x1 PUSH1 0x7 PUSH1 0x3 DUP4 PUSH2 0x1866 SWAP2 SWAP1 PUSH2 0x2977 JUMP JUMPDEST PUSH2 0x1870 SWAP2 SWAP1 PUSH2 0x2DD4 JUMP JUMPDEST PUSH2 0x187A SWAP2 SWAP1 PUSH2 0x2977 JUMP JUMPDEST SWAP2 POP POP SWAP2 SWAP1 POP JUMP JUMPDEST PUSH1 0x0 DUP1 PUSH3 0x15180 DUP4 PUSH2 0x1894 SWAP2 SWAP1 PUSH2 0x2DD4 JUMP JUMPDEST SWAP1 POP PUSH2 0xE10 DUP2 PUSH2 0x18A4 SWAP2 SWAP1 PUSH2 0x2A37 JUMP JUMPDEST SWAP2 POP POP SWAP2 SWAP1 POP JUMP JUMPDEST PUSH1 0x0 DUP1 PUSH1 0x0 PUSH2 0x18C8 PUSH3 0x15180 DUP6 PUSH2 0x18C3 SWAP2 SWAP1 PUSH2 0x2A37 JUMP JUMPDEST PUSH2 0x1A3A JUMP JUMPDEST DUP1 SWAP4 POP DUP2 SWAP5 POP DUP3 SWAP6 POP POP POP POP SWAP2 SWAP4 SWAP1 SWAP3 POP JUMP JUMPDEST PUSH1 0x0 PUSH2 0x7B2 DUP5 LT ISZERO PUSH2 0x18EC JUMPI PUSH1 0x0 DUP1 REVERT JUMPDEST PUSH1 0x0 DUP5 SWAP1 POP PUSH1 0x0 DUP5 SWAP1 POP PUSH1 0x0 DUP5 SWAP1 POP PUSH1 0x0 PUSH3 0x253D8C PUSH1 0x4 PUSH1 0x64 PUSH1 0xC PUSH1 0xE DUP8 PUSH2 0x1914 SWAP2 SWAP1 PUSH2 0x2BD9 JUMP JUMPDEST PUSH2 0x191E SWAP2 SWAP1 PUSH2 0x29CD JUMP JUMPDEST PUSH2 0x1324 DUP9 PUSH2 0x192C SWAP2 SWAP1 PUSH2 0x28E3 JUMP JUMPDEST PUSH2 0x1936 SWAP2 SWAP1 PUSH2 0x28E3 JUMP JUMPDEST PUSH2 0x1940 SWAP2 SWAP1 PUSH2 0x29CD JUMP JUMPDEST PUSH1 0x3 PUSH2 0x194C SWAP2 SWAP1 PUSH2 0x2A68 JUMP JUMPDEST PUSH2 0x1956 SWAP2 SWAP1 PUSH2 0x29CD JUMP JUMPDEST PUSH1 0xC DUP1 PUSH1 0xC PUSH1 0xE DUP9 PUSH2 0x1968 SWAP2 SWAP1 PUSH2 0x2BD9 JUMP JUMPDEST PUSH2 0x1972 SWAP2 SWAP1 PUSH2 0x29CD JUMP JUMPDEST PUSH2 0x197C SWAP2 SWAP1 PUSH2 0x2A68 JUMP JUMPDEST PUSH1 0x2 DUP8 PUSH2 0x1989 SWAP2 SWAP1 PUSH2 0x2BD9 JUMP JUMPDEST PUSH2 0x1993 SWAP2 SWAP1 PUSH2 0x2BD9 JUMP JUMPDEST PUSH2 0x16F PUSH2 0x19A0 SWAP2 SWAP1 PUSH2 0x2A68 JUMP JUMPDEST PUSH2 0x19AA SWAP2 SWAP1 PUSH2 0x29CD JUMP JUMPDEST PUSH1 0x4 PUSH1 0xC PUSH1 0xE DUP9 PUSH2 0x19BB SWAP2 SWAP1 PUSH2 0x2BD9 JUMP JUMPDEST PUSH2 0x19C5 SWAP2 SWAP1 PUSH2 0x29CD JUMP JUMPDEST PUSH2 0x12C0 DUP10 PUSH2 0x19D3 SWAP2 SWAP1 PUSH2 0x28E3 JUMP JUMPDEST PUSH2 0x19DD SWAP2 SWAP1 PUSH2 0x28E3 JUMP JUMPDEST PUSH2 0x5B5 PUSH2 0x19EA SWAP2 SWAP1 PUSH2 0x2A68 JUMP JUMPDEST PUSH2 0x19F4 SWAP2 SWAP1 PUSH2 0x29CD JUMP JUMPDEST PUSH2 0x7D4B DUP7 PUSH2 0x1A02 SWAP2 SWAP1 PUSH2 0x2BD9 JUMP JUMPDEST PUSH2 0x1A0C SWAP2 SWAP1 PUSH2 0x28E3 JUMP JUMPDEST PUSH2 0x1A16 SWAP2 SWAP1 PUSH2 0x28E3 JUMP JUMPDEST PUSH2 0x1A20 SWAP2 SWAP1 PUSH2 0x2BD9 JUMP JUMPDEST PUSH2 0x1A2A SWAP2 SWAP1 PUSH2 0x2BD9 JUMP JUMPDEST SWAP1 POP DUP1 SWAP5 POP POP POP POP POP SWAP4 SWAP3 POP POP POP JUMP JUMPDEST PUSH1 0x0 DUP1 PUSH1 0x0 DUP1 DUP5 SWAP1 POP PUSH1 0x0 PUSH3 0x253D8C PUSH3 0x10BD9 DUP4 PUSH2 0x1A58 SWAP2 SWAP1 PUSH2 0x28E3 JUMP JUMPDEST PUSH2 0x1A62 SWAP2 SWAP1 PUSH2 0x28E3 JUMP JUMPDEST SWAP1 POP PUSH1 0x0 PUSH3 0x23AB1 DUP3 PUSH1 0x4 PUSH2 0x1A77 SWAP2 SWAP1 PUSH2 0x2A68 JUMP JUMPDEST PUSH2 0x1A81 SWAP2 SWAP1 PUSH2 0x29CD JUMP JUMPDEST SWAP1 POP PUSH1 0x4 PUSH1 0x3 DUP3 PUSH3 0x23AB1 PUSH2 0x1A96 SWAP2 SWAP1 PUSH2 0x2A68 JUMP JUMPDEST PUSH2 0x1AA0 SWAP2 SWAP1 PUSH2 0x28E3 JUMP JUMPDEST PUSH2 0x1AAA SWAP2 SWAP1 PUSH2 0x29CD JUMP JUMPDEST DUP3 PUSH2 0x1AB5 SWAP2 SWAP1 PUSH2 0x2BD9 JUMP JUMPDEST SWAP2 POP PUSH1 0x0 PUSH3 0x164B09 PUSH1 0x1 DUP5 PUSH2 0x1ACA SWAP2 SWAP1 PUSH2 0x28E3 JUMP JUMPDEST PUSH2 0xFA0 PUSH2 0x1AD7 SWAP2 SWAP1 PUSH2 0x2A68 JUMP JUMPDEST PUSH2 0x1AE1 SWAP2 SWAP1 PUSH2 0x29CD JUMP JUMPDEST SWAP1 POP PUSH1 0x1F PUSH1 0x4 DUP3 PUSH2 0x5B5 PUSH2 0x1AF5 SWAP2 SWAP1 PUSH2 0x2A68 JUMP JUMPDEST PUSH2 0x1AFF SWAP2 SWAP1 PUSH2 0x29CD JUMP JUMPDEST DUP5 PUSH2 0x1B0A SWAP2 SWAP1 PUSH2 0x2BD9 JUMP JUMPDEST PUSH2 0x1B14 SWAP2 SWAP1 PUSH2 0x28E3 JUMP JUMPDEST SWAP3 POP PUSH1 0x0 PUSH2 0x98F DUP5 PUSH1 0x50 PUSH2 0x1B28 SWAP2 SWAP1 PUSH2 0x2A68 JUMP JUMPDEST PUSH2 0x1B32 SWAP2 SWAP1 PUSH2 0x29CD JUMP JUMPDEST SWAP1 POP PUSH1 0x0 PUSH1 0x50 DUP3 PUSH2 0x98F PUSH2 0x1B46 SWAP2 SWAP1 PUSH2 0x2A68 JUMP JUMPDEST PUSH2 0x1B50 SWAP2 SWAP1 PUSH2 0x29CD JUMP JUMPDEST DUP6 PUSH2 0x1B5B SWAP2 SWAP1 PUSH2 0x2BD9 JUMP JUMPDEST SWAP1 POP PUSH1 0xB DUP3 PUSH2 0x1B6A SWAP2 SWAP1 PUSH2 0x29CD JUMP JUMPDEST SWAP5 POP DUP5 PUSH1 0xC PUSH2 0x1B79 SWAP2 SWAP1 PUSH2 0x2A68 JUMP JUMPDEST PUSH1 0x2 DUP4 PUSH2 0x1B86 SWAP2 SWAP1 PUSH2 0x28E3 JUMP JUMPDEST PUSH2 0x1B90 SWAP2 SWAP1 PUSH2 0x2BD9 JUMP JUMPDEST SWAP2 POP DUP5 DUP4 PUSH1 0x31 DUP7 PUSH2 0x1BA1 SWAP2 SWAP1 PUSH2 0x2BD9 JUMP JUMPDEST PUSH1 0x64 PUSH2 0x1BAD SWAP2 SWAP1 PUSH2 0x2A68 JUMP JUMPDEST PUSH2 0x1BB7 SWAP2 SWAP1 PUSH2 0x28E3 JUMP JUMPDEST PUSH2 0x1BC1 SWAP2 SWAP1 PUSH2 0x28E3 JUMP JUMPDEST SWAP3 POP DUP3 SWAP9 POP DUP2 SWAP8 POP DUP1 SWAP7 POP POP POP POP POP POP POP SWAP2 SWAP4 SWAP1 SWAP3 POP JUMP JUMPDEST PUSH1 0x40 MLOAD DUP1 PUSH1 0xE0 ADD PUSH1 0x40 MSTORE DUP1 PUSH1 0x0 DUP2 MSTORE PUSH1 0x20 ADD PUSH1 0x0 DUP2 MSTORE PUSH1 0x20 ADD PUSH1 0x0 DUP2 MSTORE PUSH1 0x20 ADD PUSH1 0x0 DUP2 MSTORE PUSH1 0x20 ADD PUSH1 0x0 DUP2 MSTORE PUSH1 0x20 ADD PUSH1 0x0 DUP2 MSTORE PUSH1 0x20 ADD PUSH1 0x0 PUSH1 0x7 DUP2 GT ISZERO PUSH2 0x1C22 JUMPI PUSH2 0x1C21 PUSH2 0x2E63 JUMP JUMPDEST JUMPDEST DUP2 MSTORE POP SWAP1 JUMP JUMPDEST PUSH1 0x40 MLOAD DUP1 PUSH2 0x100 ADD PUSH1 0x40 MSTORE DUP1 PUSH1 0x0 DUP2 MSTORE PUSH1 0x20 ADD PUSH1 0x0 DUP2 MSTORE PUSH1 0x20 ADD PUSH1 0x0 DUP2 MSTORE PUSH1 0x20 ADD PUSH1 0x60 DUP2 MSTORE PUSH1 0x20 ADD PUSH1 0x60 DUP2 MSTORE PUSH1 0x20 ADD PUSH1 0x60 DUP2 MSTORE PUSH1 0x20 ADD PUSH1 0x0 DUP2 MSTORE PUSH1 0x20 ADD PUSH1 0x0 PUSH1 0x7 DUP2 GT ISZERO PUSH2 0x1C79 JUMPI PUSH2 0x1C78 PUSH2 0x2E63 JUMP JUMPDEST JUMPDEST DUP2 MSTORE POP SWAP1 JUMP JUMPDEST DUP3 DUP1 SLOAD PUSH2 0x1C8B SWAP1 PUSH2 0x2D28 JUMP JUMPDEST SWAP1 PUSH1 0x0 MSTORE PUSH1 0x20 PUSH1 0x0 KECCAK256 SWAP1 PUSH1 0x1F ADD PUSH1 0x20 SWAP1 DIV DUP2 ADD SWAP3 DUP3 PUSH2 0x1CAD JUMPI PUSH1 0x0 DUP6 SSTORE PUSH2 0x1CF4 JUMP JUMPDEST DUP3 PUSH1 0x1F LT PUSH2 0x1CC6 JUMPI DUP1 MLOAD PUSH1 0xFF NOT AND DUP4 DUP1 ADD OR DUP6 SSTORE PUSH2 0x1CF4 JUMP JUMPDEST DUP3 DUP1 ADD PUSH1 0x1 ADD DUP6 SSTORE DUP3 ISZERO PUSH2 0x1CF4 JUMPI SWAP2 DUP3 ADD JUMPDEST DUP3 DUP2 GT ISZERO PUSH2 0x1CF3 JUMPI DUP3 MLOAD DUP3 SSTORE SWAP2 PUSH1 0x20 ADD SWAP2 SWAP1 PUSH1 0x1 ADD SWAP1 PUSH2 0x1CD8 JUMP JUMPDEST JUMPDEST POP SWAP1 POP PUSH2 0x1D01 SWAP2 SWAP1 PUSH2 0x1D05 JUMP JUMPDEST POP SWAP1 JUMP JUMPDEST JUMPDEST DUP1 DUP3 GT ISZERO PUSH2 0x1D1E JUMPI PUSH1 0x0 DUP2 PUSH1 0x0 SWAP1 SSTORE POP PUSH1 0x1 ADD PUSH2 0x1D06 JUMP JUMPDEST POP SWAP1 JUMP JUMPDEST PUSH1 0x0 PUSH2 0x1D35 PUSH2 0x1D30 DUP5 PUSH2 0x2808 JUMP JUMPDEST PUSH2 0x27E3 JUMP JUMPDEST SWAP1 POP DUP3 DUP2 MSTORE PUSH1 0x20 DUP2 ADD DUP5 DUP5 DUP5 ADD GT ISZERO PUSH2 0x1D51 JUMPI PUSH2 0x1D50 PUSH2 0x2F24 JUMP JUMPDEST JUMPDEST PUSH2 0x1D5C DUP5 DUP3 DUP6 PUSH2 0x2CE6 JUMP JUMPDEST POP SWAP4 SWAP3 POP POP POP JUMP JUMPDEST PUSH1 0x0 DUP3 PUSH1 0x1F DUP4 ADD SLT PUSH2 0x1D79 JUMPI PUSH2 0x1D78 PUSH2 0x2F1F JUMP JUMPDEST JUMPDEST DUP2 CALLDATALOAD PUSH2 0x1D89 DUP5 DUP3 PUSH1 0x20 DUP7 ADD PUSH2 0x1D22 JUMP JUMPDEST SWAP2 POP POP SWAP3 SWAP2 POP POP JUMP JUMPDEST PUSH1 0x0 DUP2 CALLDATALOAD SWAP1 POP PUSH2 0x1DA1 DUP2 PUSH2 0x3161 JUMP JUMPDEST SWAP3 SWAP2 POP POP JUMP JUMPDEST PUSH1 0x0 PUSH1 0x20 DUP3 DUP5 SUB SLT ISZERO PUSH2 0x1DBD JUMPI PUSH2 0x1DBC PUSH2 0x2F2E JUMP JUMPDEST JUMPDEST PUSH1 0x0 DUP3 ADD CALLDATALOAD PUSH8 0xFFFFFFFFFFFFFFFF DUP2 GT ISZERO PUSH2 0x1DDB JUMPI PUSH2 0x1DDA PUSH2 0x2F29 JUMP JUMPDEST JUMPDEST PUSH2 0x1DE7 DUP5 DUP3 DUP6 ADD PUSH2 0x1D64 JUMP JUMPDEST SWAP2 POP POP SWAP3 SWAP2 POP POP JUMP JUMPDEST PUSH1 0x0 PUSH1 0x20 DUP3 DUP5 SUB SLT ISZERO PUSH2 0x1E06 JUMPI PUSH2 0x1E05 PUSH2 0x2F2E JUMP JUMPDEST JUMPDEST PUSH1 0x0 PUSH2 0x1E14 DUP5 DUP3 DUP6 ADD PUSH2 0x1D92 JUMP JUMPDEST SWAP2 POP POP SWAP3 SWAP2 POP POP JUMP JUMPDEST PUSH1 0x0 DUP1 PUSH1 0x0 DUP1 PUSH1 0x80 DUP6 DUP8 SUB SLT ISZERO PUSH2 0x1E37 JUMPI PUSH2 0x1E36 PUSH2 0x2F2E JUMP JUMPDEST JUMPDEST PUSH1 0x0 PUSH2 0x1E45 DUP8 DUP3 DUP9 ADD PUSH2 0x1D92 JUMP JUMPDEST SWAP5 POP POP PUSH1 0x20 PUSH2 0x1E56 DUP8 DUP3 DUP9 ADD PUSH2 0x1D92 JUMP JUMPDEST SWAP4 POP POP PUSH1 0x40 DUP6 ADD CALLDATALOAD PUSH8 0xFFFFFFFFFFFFFFFF DUP2 GT ISZERO PUSH2 0x1E77 JUMPI PUSH2 0x1E76 PUSH2 0x2F29 JUMP JUMPDEST JUMPDEST PUSH2 0x1E83 DUP8 DUP3 DUP9 ADD PUSH2 0x1D64 JUMP JUMPDEST SWAP3 POP POP PUSH1 0x60 DUP6 ADD CALLDATALOAD PUSH8 0xFFFFFFFFFFFFFFFF DUP2 GT ISZERO PUSH2 0x1EA4 JUMPI PUSH2 0x1EA3 PUSH2 0x2F29 JUMP JUMPDEST JUMPDEST PUSH2 0x1EB0 DUP8 DUP3 DUP9 ADD PUSH2 0x1D64 JUMP JUMPDEST SWAP2 POP POP SWAP3 SWAP6 SWAP2 SWAP5 POP SWAP3 POP JUMP JUMPDEST PUSH1 0x0 DUP1 PUSH1 0x0 PUSH1 0x60 DUP5 DUP7 SUB SLT ISZERO PUSH2 0x1ED5 JUMPI PUSH2 0x1ED4 PUSH2 0x2F2E JUMP JUMPDEST JUMPDEST PUSH1 0x0 PUSH2 0x1EE3 DUP7 DUP3 DUP8 ADD PUSH2 0x1D92 JUMP JUMPDEST SWAP4 POP POP PUSH1 0x20 PUSH2 0x1EF4 DUP7 DUP3 DUP8 ADD PUSH2 0x1D92 JUMP JUMPDEST SWAP3 POP POP PUSH1 0x40 PUSH2 0x1F05 DUP7 DUP3 DUP8 ADD PUSH2 0x1D92 JUMP JUMPDEST SWAP2 POP POP SWAP3 POP SWAP3 POP SWAP3 JUMP JUMPDEST PUSH1 0x0 DUP1 PUSH1 0x0 DUP1 PUSH1 0x80 DUP6 DUP8 SUB SLT ISZERO PUSH2 0x1F29 JUMPI PUSH2 0x1F28 PUSH2 0x2F2E JUMP JUMPDEST JUMPDEST PUSH1 0x0 PUSH2 0x1F37 DUP8 DUP3 DUP9 ADD PUSH2 0x1D92 JUMP JUMPDEST SWAP5 POP POP PUSH1 0x20 PUSH2 0x1F48 DUP8 DUP3 DUP9 ADD PUSH2 0x1D92 JUMP JUMPDEST SWAP4 POP POP PUSH1 0x40 PUSH2 0x1F59 DUP8 DUP3 DUP9 ADD PUSH2 0x1D92 JUMP JUMPDEST SWAP3 POP POP PUSH1 0x60 PUSH2 0x1F6A DUP8 DUP3 DUP9 ADD PUSH2 0x1D92 JUMP JUMPDEST SWAP2 POP POP SWAP3 SWAP6 SWAP2 SWAP5 POP SWAP3 POP JUMP JUMPDEST PUSH1 0x0 PUSH2 0x1F82 DUP4 DUP4 PUSH2 0x2280 JUMP JUMPDEST PUSH1 0xE0 DUP4 ADD SWAP1 POP SWAP3 SWAP2 POP POP JUMP JUMPDEST PUSH1 0x0 PUSH2 0x1F9A DUP4 DUP4 PUSH2 0x239C JUMP JUMPDEST SWAP1 POP SWAP3 SWAP2 POP POP JUMP JUMPDEST PUSH1 0x0 PUSH2 0x1FAD DUP3 PUSH2 0x2859 JUMP JUMPDEST PUSH2 0x1FB7 DUP2 DUP6 PUSH2 0x2894 JUMP JUMPDEST SWAP4 POP PUSH2 0x1FC2 DUP4 PUSH2 0x2839 JUMP JUMPDEST DUP1 PUSH1 0x0 JUMPDEST DUP4 DUP2 LT ISZERO PUSH2 0x1FF3 JUMPI DUP2 MLOAD PUSH2 0x1FDA DUP9 DUP3 PUSH2 0x1F76 JUMP JUMPDEST SWAP8 POP PUSH2 0x1FE5 DUP4 PUSH2 0x287A JUMP JUMPDEST SWAP3 POP POP PUSH1 0x1 DUP2 ADD SWAP1 POP PUSH2 0x1FC6 JUMP JUMPDEST POP DUP6 SWAP4 POP POP POP POP SWAP3 SWAP2 POP POP JUMP JUMPDEST PUSH1 0x0 PUSH2 0x200B DUP3 PUSH2 0x2864 JUMP JUMPDEST PUSH2 0x2015 DUP2 DUP6 PUSH2 0x28A5 JUMP JUMPDEST SWAP4 POP DUP4 PUSH1 0x20 DUP3 MUL DUP6 ADD PUSH2 0x2027 DUP6 PUSH2 0x2849 JUMP JUMPDEST DUP1 PUSH1 0x0 JUMPDEST DUP6 DUP2 LT ISZERO PUSH2 0x2063 JUMPI DUP5 DUP5 SUB DUP10 MSTORE DUP2 MLOAD PUSH2 0x2044 DUP6 DUP3 PUSH2 0x1F8E JUMP JUMPDEST SWAP5 POP PUSH2 0x204F DUP4 PUSH2 0x2887 JUMP JUMPDEST SWAP3 POP PUSH1 0x20 DUP11 ADD SWAP10 POP POP PUSH1 0x1 DUP2 ADD SWAP1 POP PUSH2 0x202B JUMP JUMPDEST POP DUP3 SWAP8 POP DUP8 SWAP6 POP POP POP POP POP POP SWAP3 SWAP2 POP POP JUMP JUMPDEST PUSH2 0x207E DUP2 PUSH2 0x2CA1 JUMP JUMPDEST DUP3 MSTORE POP POP JUMP JUMPDEST PUSH2 0x208D DUP2 PUSH2 0x2CD4 JUMP JUMPDEST DUP3 MSTORE POP POP JUMP JUMPDEST PUSH2 0x209C DUP2 PUSH2 0x2CD4 JUMP JUMPDEST DUP3 MSTORE POP POP JUMP JUMPDEST PUSH1 0x0 PUSH2 0x20AD DUP3 PUSH2 0x286F JUMP JUMPDEST PUSH2 0x20B7 DUP2 DUP6 PUSH2 0x28B6 JUMP JUMPDEST SWAP4 POP PUSH2 0x20C7 DUP2 DUP6 PUSH1 0x20 DUP7 ADD PUSH2 0x2CF5 JUMP JUMPDEST PUSH2 0x20D0 DUP2 PUSH2 0x2F33 JUMP JUMPDEST DUP5 ADD SWAP2 POP POP SWAP3 SWAP2 POP POP JUMP JUMPDEST PUSH1 0x0 PUSH2 0x20E6 DUP3 PUSH2 0x286F JUMP JUMPDEST PUSH2 0x20F0 DUP2 DUP6 PUSH2 0x28C7 JUMP JUMPDEST SWAP4 POP PUSH2 0x2100 DUP2 DUP6 PUSH1 0x20 DUP7 ADD PUSH2 0x2CF5 JUMP JUMPDEST PUSH2 0x2109 DUP2 PUSH2 0x2F33 JUMP JUMPDEST DUP5 ADD SWAP2 POP POP SWAP3 SWAP2 POP POP JUMP JUMPDEST PUSH1 0x0 PUSH2 0x211F DUP3 PUSH2 0x286F JUMP JUMPDEST PUSH2 0x2129 DUP2 DUP6 PUSH2 0x28D8 JUMP JUMPDEST SWAP4 POP PUSH2 0x2139 DUP2 DUP6 PUSH1 0x20 DUP7 ADD PUSH2 0x2CF5 JUMP JUMPDEST DUP1 DUP5 ADD SWAP2 POP POP SWAP3 SWAP2 POP POP JUMP JUMPDEST PUSH1 0x0 PUSH2 0x2152 PUSH1 0x2B DUP4 PUSH2 0x28C7 JUMP JUMPDEST SWAP2 POP PUSH2 0x215D DUP3 PUSH2 0x2F44 JUMP JUMPDEST PUSH1 0x40 DUP3 ADD SWAP1 POP SWAP2 SWAP1 POP JUMP JUMPDEST PUSH1 0x0 PUSH2 0x2175 PUSH1 0x2A DUP4 PUSH2 0x28C7 JUMP JUMPDEST SWAP2 POP PUSH2 0x2180 DUP3 PUSH2 0x2F93 JUMP JUMPDEST PUSH1 0x40 DUP3 ADD SWAP1 POP SWAP2 SWAP1 POP JUMP JUMPDEST PUSH1 0x0 PUSH2 0x2198 PUSH1 0x37 DUP4 PUSH2 0x28C7 JUMP JUMPDEST SWAP2 POP PUSH2 0x21A3 DUP3 PUSH2 0x2FE2 JUMP JUMPDEST PUSH1 0x40 DUP3 ADD SWAP1 POP SWAP2 SWAP1 POP JUMP JUMPDEST PUSH1 0x0 PUSH2 0x21BB PUSH1 0x13 DUP4 PUSH2 0x28C7 JUMP JUMPDEST SWAP2 POP PUSH2 0x21C6 DUP3 PUSH2 0x3031 JUMP JUMPDEST PUSH1 0x20 DUP3 ADD SWAP1 POP SWAP2 SWAP1 POP JUMP JUMPDEST PUSH1 0x0 PUSH2 0x21DE PUSH1 0x2F DUP4 PUSH2 0x28C7 JUMP JUMPDEST SWAP2 POP PUSH2 0x21E9 DUP3 PUSH2 0x305A JUMP JUMPDEST PUSH1 0x40 DUP3 ADD SWAP1 POP SWAP2 SWAP1 POP JUMP JUMPDEST PUSH1 0x0 PUSH2 0x2201 PUSH1 0xD DUP4 PUSH2 0x28C7 JUMP JUMPDEST SWAP2 POP PUSH2 0x220C DUP3 PUSH2 0x30A9 JUMP JUMPDEST PUSH1 0x20 DUP3 ADD SWAP1 POP SWAP2 SWAP1 POP JUMP JUMPDEST PUSH1 0x0 PUSH2 0x2224 PUSH1 0x0 DUP4 PUSH2 0x28D8 JUMP JUMPDEST SWAP2 POP PUSH2 0x222F DUP3 PUSH2 0x30D2 JUMP JUMPDEST PUSH1 0x0 DUP3 ADD SWAP1 POP SWAP2 SWAP1 POP JUMP JUMPDEST PUSH1 0x0 PUSH2 0x2247 PUSH1 0x21 DUP4 PUSH2 0x28C7 JUMP JUMPDEST SWAP2 POP PUSH2 0x2252 DUP3 PUSH2 0x30D5 JUMP JUMPDEST PUSH1 0x40 DUP3 ADD SWAP1 POP SWAP2 SWAP1 POP JUMP JUMPDEST PUSH1 0x0 PUSH2 0x226A PUSH1 0x12 DUP4 PUSH2 0x28C7 JUMP JUMPDEST SWAP2 POP PUSH2 0x2275 DUP3 PUSH2 0x3124 JUMP JUMPDEST PUSH1 0x20 DUP3 ADD SWAP1 POP SWAP2 SWAP1 POP JUMP JUMPDEST PUSH1 0xE0 DUP3 ADD PUSH1 0x0 DUP3 ADD MLOAD PUSH2 0x2296 PUSH1 0x0 DUP6 ADD DUP3 PUSH2 0x2518 JUMP JUMPDEST POP PUSH1 0x20 DUP3 ADD MLOAD PUSH2 0x22A9 PUSH1 0x20 DUP6 ADD DUP3 PUSH2 0x2518 JUMP JUMPDEST POP PUSH1 0x40 DUP3 ADD MLOAD PUSH2 0x22BC PUSH1 0x40 DUP6 ADD DUP3 PUSH2 0x2518 JUMP JUMPDEST POP PUSH1 0x60 DUP3 ADD MLOAD PUSH2 0x22CF PUSH1 0x60 DUP6 ADD DUP3 PUSH2 0x2518 JUMP JUMPDEST POP PUSH1 0x80 DUP3 ADD MLOAD PUSH2 0x22E2 PUSH1 0x80 DUP6 ADD DUP3 PUSH2 0x2518 JUMP JUMPDEST POP PUSH1 0xA0 DUP3 ADD MLOAD PUSH2 0x22F5 PUSH1 0xA0 DUP6 ADD DUP3 PUSH2 0x2518 JUMP JUMPDEST POP PUSH1 0xC0 DUP3 ADD MLOAD PUSH2 0x2308 PUSH1 0xC0 DUP6 ADD DUP3 PUSH2 0x2084 JUMP JUMPDEST POP POP POP POP JUMP JUMPDEST PUSH1 0xE0 DUP3 ADD PUSH1 0x0 DUP3 ADD MLOAD PUSH2 0x2324 PUSH1 0x0 DUP6 ADD DUP3 PUSH2 0x2518 JUMP JUMPDEST POP PUSH1 0x20 DUP3 ADD MLOAD PUSH2 0x2337 PUSH1 0x20 DUP6 ADD DUP3 PUSH2 0x2518 JUMP JUMPDEST POP PUSH1 0x40 DUP3 ADD MLOAD PUSH2 0x234A PUSH1 0x40 DUP6 ADD DUP3 PUSH2 0x2518 JUMP JUMPDEST POP PUSH1 0x60 DUP3 ADD MLOAD PUSH2 0x235D PUSH1 0x60 DUP6 ADD DUP3 PUSH2 0x2518 JUMP JUMPDEST POP PUSH1 0x80 DUP3 ADD MLOAD PUSH2 0x2370 PUSH1 0x80 DUP6 ADD DUP3 PUSH2 0x2518 JUMP JUMPDEST POP PUSH1 0xA0 DUP3 ADD MLOAD PUSH2 0x2383 PUSH1 0xA0 DUP6 ADD DUP3 PUSH2 0x2518 JUMP JUMPDEST POP PUSH1 0xC0 DUP3 ADD MLOAD PUSH2 0x2396 PUSH1 0xC0 DUP6 ADD DUP3 PUSH2 0x2084 JUMP JUMPDEST POP POP POP POP JUMP JUMPDEST PUSH1 0x0 PUSH2 0x100 DUP4 ADD PUSH1 0x0 DUP4 ADD MLOAD PUSH2 0x23B5 PUSH1 0x0 DUP7 ADD DUP3 PUSH2 0x2518 JUMP JUMPDEST POP PUSH1 0x20 DUP4 ADD MLOAD PUSH2 0x23C8 PUSH1 0x20 DUP7 ADD DUP3 PUSH2 0x2518 JUMP JUMPDEST POP PUSH1 0x40 DUP4 ADD MLOAD PUSH2 0x23DB PUSH1 0x40 DUP7 ADD DUP3 PUSH2 0x2518 JUMP JUMPDEST POP PUSH1 0x60 DUP4 ADD MLOAD DUP5 DUP3 SUB PUSH1 0x60 DUP7 ADD MSTORE PUSH2 0x23F3 DUP3 DUP3 PUSH2 0x20A2 JUMP JUMPDEST SWAP2 POP POP PUSH1 0x80 DUP4 ADD MLOAD DUP5 DUP3 SUB PUSH1 0x80 DUP7 ADD MSTORE PUSH2 0x240D DUP3 DUP3 PUSH2 0x20A2 JUMP JUMPDEST SWAP2 POP POP PUSH1 0xA0 DUP4 ADD MLOAD DUP5 DUP3 SUB PUSH1 0xA0 DUP7 ADD MSTORE PUSH2 0x2427 DUP3 DUP3 PUSH2 0x20A2 JUMP JUMPDEST SWAP2 POP POP PUSH1 0xC0 DUP4 ADD MLOAD PUSH2 0x243C PUSH1 0xC0 DUP7 ADD DUP3 PUSH2 0x2518 JUMP JUMPDEST POP PUSH1 0xE0 DUP4 ADD MLOAD PUSH2 0x244F PUSH1 0xE0 DUP7 ADD DUP3 PUSH2 0x2084 JUMP JUMPDEST POP DUP1 SWAP2 POP POP SWAP3 SWAP2 POP POP JUMP JUMPDEST PUSH1 0x0 PUSH2 0x100 DUP4 ADD PUSH1 0x0 DUP4 ADD MLOAD PUSH2 0x2473 PUSH1 0x0 DUP7 ADD DUP3 PUSH2 0x2518 JUMP JUMPDEST POP PUSH1 0x20 DUP4 ADD MLOAD PUSH2 0x2486 PUSH1 0x20 DUP7 ADD DUP3 PUSH2 0x2518 JUMP JUMPDEST POP PUSH1 0x40 DUP4 ADD MLOAD PUSH2 0x2499 PUSH1 0x40 DUP7 ADD DUP3 PUSH2 0x2518 JUMP JUMPDEST POP PUSH1 0x60 DUP4 ADD MLOAD DUP5 DUP3 SUB PUSH1 0x60 DUP7 ADD MSTORE PUSH2 0x24B1 DUP3 DUP3 PUSH2 0x20A2 JUMP JUMPDEST SWAP2 POP POP PUSH1 0x80 DUP4 ADD MLOAD DUP5 DUP3 SUB PUSH1 0x80 DUP7 ADD MSTORE PUSH2 0x24CB DUP3 DUP3 PUSH2 0x20A2 JUMP JUMPDEST SWAP2 POP POP PUSH1 0xA0 DUP4 ADD MLOAD DUP5 DUP3 SUB PUSH1 0xA0 DUP7 ADD MSTORE PUSH2 0x24E5 DUP3 DUP3 PUSH2 0x20A2 JUMP JUMPDEST SWAP2 POP POP PUSH1 0xC0 DUP4 ADD MLOAD PUSH2 0x24FA PUSH1 0xC0 DUP7 ADD DUP3 PUSH2 0x2518 JUMP JUMPDEST POP PUSH1 0xE0 DUP4 ADD MLOAD PUSH2 0x250D PUSH1 0xE0 DUP7 ADD DUP3 PUSH2 0x2084 JUMP JUMPDEST POP DUP1 SWAP2 POP POP SWAP3 SWAP2 POP POP JUMP JUMPDEST PUSH2 0x2521 DUP2 PUSH2 0x2CCA JUMP JUMPDEST DUP3 MSTORE POP POP JUMP JUMPDEST PUSH2 0x2530 DUP2 PUSH2 0x2CCA JUMP JUMPDEST DUP3 MSTORE POP POP JUMP JUMPDEST PUSH1 0x0 PUSH2 0x2542 DUP3 DUP5 PUSH2 0x2114 JUMP JUMPDEST SWAP2 POP DUP2 SWAP1 POP SWAP3 SWAP2 POP POP JUMP JUMPDEST PUSH1 0x0 PUSH2 0x2558 DUP3 PUSH2 0x2217 JUMP JUMPDEST SWAP2 POP DUP2 SWAP1 POP SWAP2 SWAP1 POP JUMP JUMPDEST PUSH1 0x0 PUSH1 0x20 DUP3 ADD SWAP1 POP DUP2 DUP2 SUB PUSH1 0x0 DUP4 ADD MSTORE PUSH2 0x257C DUP2 DUP5 PUSH2 0x1FA2 JUMP JUMPDEST SWAP1 POP SWAP3 SWAP2 POP POP JUMP JUMPDEST PUSH1 0x0 PUSH1 0x20 DUP3 ADD SWAP1 POP DUP2 DUP2 SUB PUSH1 0x0 DUP4 ADD MSTORE PUSH2 0x259E DUP2 DUP5 PUSH2 0x2000 JUMP JUMPDEST SWAP1 POP SWAP3 SWAP2 POP POP JUMP JUMPDEST PUSH1 0x0 PUSH1 0x20 DUP3 ADD SWAP1 POP PUSH2 0x25BB PUSH1 0x0 DUP4 ADD DUP5 PUSH2 0x2075 JUMP JUMPDEST SWAP3 SWAP2 POP POP JUMP JUMPDEST PUSH1 0x0 PUSH1 0x20 DUP3 ADD SWAP1 POP DUP2 DUP2 SUB PUSH1 0x0 DUP4 ADD MSTORE PUSH2 0x25DA DUP2 PUSH2 0x2145 JUMP JUMPDEST SWAP1 POP SWAP2 SWAP1 POP JUMP JUMPDEST PUSH1 0x0 PUSH1 0x20 DUP3 ADD SWAP1 POP DUP2 DUP2 SUB PUSH1 0x0 DUP4 ADD MSTORE PUSH2 0x25FA DUP2 PUSH2 0x2168 JUMP JUMPDEST SWAP1 POP SWAP2 SWAP1 POP JUMP JUMPDEST PUSH1 0x0 PUSH1 0x20 DUP3 ADD SWAP1 POP DUP2 DUP2 SUB PUSH1 0x0 DUP4 ADD MSTORE PUSH2 0x261A DUP2 PUSH2 0x218B JUMP JUMPDEST SWAP1 POP SWAP2 SWAP1 POP JUMP JUMPDEST PUSH1 0x0 PUSH1 0x20 DUP3 ADD SWAP1 POP DUP2 DUP2 SUB PUSH1 0x0 DUP4 ADD MSTORE PUSH2 0x263A DUP2 PUSH2 0x21AE JUMP JUMPDEST SWAP1 POP SWAP2 SWAP1 POP JUMP JUMPDEST PUSH1 0x0 PUSH1 0x20 DUP3 ADD SWAP1 POP DUP2 DUP2 SUB PUSH1 0x0 DUP4 ADD MSTORE PUSH2 0x265A DUP2 PUSH2 0x21D1 JUMP JUMPDEST SWAP1 POP SWAP2 SWAP1 POP JUMP JUMPDEST PUSH1 0x0 PUSH1 0x20 DUP3 ADD SWAP1 POP DUP2 DUP2 SUB PUSH1 0x0 DUP4 ADD MSTORE PUSH2 0x267A DUP2 PUSH2 0x21F4 JUMP JUMPDEST SWAP1 POP SWAP2 SWAP1 POP JUMP JUMPDEST PUSH1 0x0 PUSH1 0x20 DUP3 ADD SWAP1 POP DUP2 DUP2 SUB PUSH1 0x0 DUP4 ADD MSTORE PUSH2 0x269A DUP2 PUSH2 0x223A JUMP JUMPDEST SWAP1 POP SWAP2 SWAP1 POP JUMP JUMPDEST PUSH1 0x0 PUSH1 0x20 DUP3 ADD SWAP1 POP DUP2 DUP2 SUB PUSH1 0x0 DUP4 ADD MSTORE PUSH2 0x26BA DUP2 PUSH2 0x225D JUMP JUMPDEST SWAP1 POP SWAP2 SWAP1 POP JUMP JUMPDEST PUSH1 0x0 PUSH1 0xE0 DUP3 ADD SWAP1 POP PUSH2 0x26D6 PUSH1 0x0 DUP4 ADD DUP5 PUSH2 0x230E JUMP JUMPDEST SWAP3 SWAP2 POP POP JUMP JUMPDEST PUSH1 0x0 PUSH1 0x20 DUP3 ADD SWAP1 POP DUP2 DUP2 SUB PUSH1 0x0 DUP4 ADD MSTORE PUSH2 0x26F6 DUP2 DUP5 PUSH2 0x245A JUMP JUMPDEST SWAP1 POP SWAP3 SWAP2 POP POP JUMP JUMPDEST PUSH1 0x0 PUSH1 0x20 DUP3 ADD SWAP1 POP PUSH2 0x2713 PUSH1 0x0 DUP4 ADD DUP5 PUSH2 0x2527 JUMP JUMPDEST SWAP3 SWAP2 POP POP JUMP JUMPDEST PUSH1 0x0 PUSH1 0x60 DUP3 ADD SWAP1 POP PUSH2 0x272E PUSH1 0x0 DUP4 ADD DUP7 PUSH2 0x2527 JUMP JUMPDEST PUSH2 0x273B PUSH1 0x20 DUP4 ADD DUP6 PUSH2 0x2527 JUMP JUMPDEST PUSH2 0x2748 PUSH1 0x40 DUP4 ADD DUP5 PUSH2 0x2527 JUMP JUMPDEST SWAP5 SWAP4 POP POP POP POP JUMP JUMPDEST PUSH1 0x0 PUSH2 0x100 DUP3 ADD SWAP1 POP PUSH2 0x2766 PUSH1 0x0 DUP4 ADD DUP12 PUSH2 0x2527 JUMP JUMPDEST PUSH2 0x2773 PUSH1 0x20 DUP4 ADD DUP11 PUSH2 0x2527 JUMP JUMPDEST PUSH2 0x2780 PUSH1 0x40 DUP4 ADD DUP10 PUSH2 0x2527 JUMP JUMPDEST DUP2 DUP2 SUB PUSH1 0x60 DUP4 ADD MSTORE PUSH2 0x2792 DUP2 DUP9 PUSH2 0x20DB JUMP JUMPDEST SWAP1 POP DUP2 DUP2 SUB PUSH1 0x80 DUP4 ADD MSTORE PUSH2 0x27A6 DUP2 DUP8 PUSH2 0x20DB JUMP JUMPDEST SWAP1 POP DUP2 DUP2 SUB PUSH1 0xA0 DUP4 ADD MSTORE PUSH2 0x27BA DUP2 DUP7 PUSH2 0x20DB JUMP JUMPDEST SWAP1 POP PUSH2 0x27C9 PUSH1 0xC0 DUP4 ADD DUP6 PUSH2 0x2527 JUMP JUMPDEST PUSH2 0x27D6 PUSH1 0xE0 DUP4 ADD DUP5 PUSH2 0x2093 JUMP JUMPDEST SWAP10 SWAP9 POP POP POP POP POP POP POP POP POP JUMP JUMPDEST PUSH1 0x0 PUSH2 0x27ED PUSH2 0x27FE JUMP JUMPDEST SWAP1 POP PUSH2 0x27F9 DUP3 DUP3 PUSH2 0x2D5A JUMP JUMPDEST SWAP2 SWAP1 POP JUMP JUMPDEST PUSH1 0x0 PUSH1 0x40 MLOAD SWAP1 POP SWAP1 JUMP JUMPDEST PUSH1 0x0 PUSH8 0xFFFFFFFFFFFFFFFF DUP3 GT ISZERO PUSH2 0x2823 JUMPI PUSH2 0x2822 PUSH2 0x2EF0 JUMP JUMPDEST JUMPDEST PUSH2 0x282C DUP3 PUSH2 0x2F33 JUMP JUMPDEST SWAP1 POP PUSH1 0x20 DUP2 ADD SWAP1 POP SWAP2 SWAP1 POP JUMP JUMPDEST PUSH1 0x0 DUP2 SWAP1 POP PUSH1 0x20 DUP3 ADD SWAP1 POP SWAP2 SWAP1 POP JUMP JUMPDEST PUSH1 0x0 DUP2 SWAP1 POP PUSH1 0x20 DUP3 ADD SWAP1 POP SWAP2 SWAP1 POP JUMP JUMPDEST PUSH1 0x0 DUP2 MLOAD SWAP1 POP SWAP2 SWAP1 POP JUMP JUMPDEST PUSH1 0x0 DUP2 MLOAD SWAP1 POP SWAP2 SWAP1 POP JUMP JUMPDEST PUSH1 0x0 DUP2 MLOAD SWAP1 POP SWAP2 SWAP1 POP JUMP JUMPDEST PUSH1 0x0 PUSH1 0x20 DUP3 ADD SWAP1 POP SWAP2 SWAP1 POP JUMP JUMPDEST PUSH1 0x0 PUSH1 0x20 DUP3 ADD SWAP1 POP SWAP2 SWAP1 POP JUMP JUMPDEST PUSH1 0x0 DUP3 DUP3 MSTORE PUSH1 0x20 DUP3 ADD SWAP1 POP SWAP3 SWAP2 POP POP JUMP JUMPDEST PUSH1 0x0 DUP3 DUP3 MSTORE PUSH1 0x20 DUP3 ADD SWAP1 POP SWAP3 SWAP2 POP POP JUMP JUMPDEST PUSH1 0x0 DUP3 DUP3 MSTORE PUSH1 0x20 DUP3 ADD SWAP1 POP SWAP3 SWAP2 POP POP JUMP JUMPDEST PUSH1 0x0 DUP3 DUP3 MSTORE PUSH1 0x20 DUP3 ADD SWAP1 POP SWAP3 SWAP2 POP POP JUMP JUMPDEST PUSH1 0x0 DUP2 SWAP1 POP SWAP3 SWAP2 POP POP JUMP JUMPDEST PUSH1 0x0 PUSH2 0x28EE DUP3 PUSH2 0x2CC0 JUMP JUMPDEST SWAP2 POP PUSH2 0x28F9 DUP4 PUSH2 0x2CC0 JUMP JUMPDEST SWAP3 POP DUP2 PUSH32 0x7FFFFFFFFFFFFFFFFFFFFFFFFFFFFFFFFFFFFFFFFFFFFFFFFFFFFFFFFFFFFFFF SUB DUP4 SGT PUSH1 0x0 DUP4 SLT ISZERO AND ISZERO PUSH2 0x2934 JUMPI PUSH2 0x2933 PUSH2 0x2E05 JUMP JUMPDEST JUMPDEST DUP2 PUSH32 0x8000000000000000000000000000000000000000000000000000000000000000 SUB DUP4 SLT PUSH1 0x0 DUP4 SLT AND ISZERO PUSH2 0x296C JUMPI PUSH2 0x296B PUSH2 0x2E05 JUMP JUMPDEST JUMPDEST DUP3 DUP3 ADD SWAP1 POP SWAP3 SWAP2 POP POP JUMP JUMPDEST PUSH1 0x0 PUSH2 0x2982 DUP3 PUSH2 0x2CCA JUMP JUMPDEST SWAP2 POP PUSH2 0x298D DUP4 PUSH2 0x2CCA JUMP JUMPDEST SWAP3 POP DUP3 PUSH32 0xFFFFFFFFFFFFFFFFFFFFFFFFFFFFFFFFFFFFFFFFFFFFFFFFFFFFFFFFFFFFFFFF SUB DUP3 GT ISZERO PUSH2 0x29C2 JUMPI PUSH2 0x29C1 PUSH2 0x2E05 JUMP JUMPDEST JUMPDEST DUP3 DUP3 ADD SWAP1 POP SWAP3 SWAP2 POP POP JUMP JUMPDEST PUSH1 0x0 PUSH2 0x29D8 DUP3 PUSH2 0x2CC0 JUMP JUMPDEST SWAP2 POP PUSH2 0x29E3 DUP4 PUSH2 0x2CC0 JUMP JUMPDEST SWAP3 POP DUP3 PUSH2 0x29F3 JUMPI PUSH2 0x29F2 PUSH2 0x2E34 JUMP JUMPDEST JUMPDEST PUSH1 0x1 PUSH1 0x0 SUB DUP4 EQ PUSH32 0x8000000000000000000000000000000000000000000000000000000000000000 DUP4 EQ AND ISZERO PUSH2 0x2A2C JUMPI PUSH2 0x2A2B PUSH2 0x2E05 JUMP JUMPDEST JUMPDEST DUP3 DUP3 SDIV SWAP1 POP SWAP3 SWAP2 POP POP JUMP JUMPDEST PUSH1 0x0 PUSH2 0x2A42 DUP3 PUSH2 0x2CCA JUMP JUMPDEST SWAP2 POP PUSH2 0x2A4D DUP4 PUSH2 0x2CCA JUMP JUMPDEST SWAP3 POP DUP3 PUSH2 0x2A5D JUMPI PUSH2 0x2A5C PUSH2 0x2E34 JUMP JUMPDEST JUMPDEST DUP3 DUP3 DIV SWAP1 POP SWAP3 SWAP2 POP POP JUMP JUMPDEST PUSH1 0x0 PUSH2 0x2A73 DUP3 PUSH2 0x2CC0 JUMP JUMPDEST SWAP2 POP PUSH2 0x2A7E DUP4 PUSH2 0x2CC0 JUMP JUMPDEST SWAP3 POP DUP3 PUSH32 0x7FFFFFFFFFFFFFFFFFFFFFFFFFFFFFFFFFFFFFFFFFFFFFFFFFFFFFFFFFFFFFFF DIV DUP3 GT PUSH1 0x0 DUP5 SGT PUSH1 0x0 DUP5 SGT AND AND ISZERO PUSH2 0x2ABD JUMPI PUSH2 0x2ABC PUSH2 0x2E05 JUMP JUMPDEST JUMPDEST DUP2 PUSH32 0x8000000000000000000000000000000000000000000000000000000000000000 SDIV DUP4 SLT PUSH1 0x0 DUP5 SLT PUSH1 0x0 DUP5 SGT AND AND ISZERO PUSH2 0x2AFA JUMPI PUSH2 0x2AF9 PUSH2 0x2E05 JUMP JUMPDEST JUMPDEST DUP3 PUSH32 0x8000000000000000000000000000000000000000000000000000000000000000 SDIV DUP3 SLT PUSH1 0x0 DUP5 SGT PUSH1 0x0 DUP5 SLT AND AND ISZERO PUSH2 0x2B37 JUMPI PUSH2 0x2B36 PUSH2 0x2E05 JUMP JUMPDEST JUMPDEST DUP3 PUSH32 0x7FFFFFFFFFFFFFFFFFFFFFFFFFFFFFFFFFFFFFFFFFFFFFFFFFFFFFFFFFFFFFFF SDIV DUP3 SLT PUSH1 0x0 DUP5 SLT PUSH1 0x0 DUP5 SLT AND AND ISZERO PUSH2 0x2B74 JUMPI PUSH2 0x2B73 PUSH2 0x2E05 JUMP JUMPDEST JUMPDEST DUP3 DUP3 MUL SWAP1 POP SWAP3 SWAP2 POP POP JUMP JUMPDEST PUSH1 0x0 PUSH2 0x2B8A DUP3 PUSH2 0x2CCA JUMP JUMPDEST SWAP2 POP PUSH2 0x2B95 DUP4 PUSH2 0x2CCA JUMP JUMPDEST SWAP3 POP DUP2 PUSH32 0xFFFFFFFFFFFFFFFFFFFFFFFFFFFFFFFFFFFFFFFFFFFFFFFFFFFFFFFFFFFFFFFF DIV DUP4 GT DUP3 ISZERO ISZERO AND ISZERO PUSH2 0x2BCE JUMPI PUSH2 0x2BCD PUSH2 0x2E05 JUMP JUMPDEST JUMPDEST DUP3 DUP3 MUL SWAP1 POP SWAP3 SWAP2 POP POP JUMP JUMPDEST PUSH1 0x0 PUSH2 0x2BE4 DUP3 PUSH2 0x2CC0 JUMP JUMPDEST SWAP2 POP PUSH2 0x2BEF DUP4 PUSH2 0x2CC0 JUMP JUMPDEST SWAP3 POP DUP3 PUSH32 0x8000000000000000000000000000000000000000000000000000000000000000 ADD DUP3 SLT PUSH1 0x0 DUP5 SLT ISZERO AND ISZERO PUSH2 0x2C2A JUMPI PUSH2 0x2C29 PUSH2 0x2E05 JUMP JUMPDEST JUMPDEST DUP3 PUSH32 0x7FFFFFFFFFFFFFFFFFFFFFFFFFFFFFFFFFFFFFFFFFFFFFFFFFFFFFFFFFFFFFFF ADD DUP3 SGT PUSH1 0x0 DUP5 SLT AND ISZERO PUSH2 0x2C62 JUMPI PUSH2 0x2C61 PUSH2 0x2E05 JUMP JUMPDEST JUMPDEST DUP3 DUP3 SUB SWAP1 POP SWAP3 SWAP2 POP POP JUMP JUMPDEST PUSH1 0x0 PUSH2 0x2C78 DUP3 PUSH2 0x2CCA JUMP JUMPDEST SWAP2 POP PUSH2 0x2C83 DUP4 PUSH2 0x2CCA JUMP JUMPDEST SWAP3 POP DUP3 DUP3 LT ISZERO PUSH2 0x2C96 JUMPI PUSH2 0x2C95 PUSH2 0x2E05 JUMP JUMPDEST JUMPDEST DUP3 DUP3 SUB SWAP1 POP SWAP3 SWAP2 POP POP JUMP JUMPDEST PUSH1 0x0 DUP2 ISZERO ISZERO SWAP1 POP SWAP2 SWAP1 POP JUMP JUMPDEST PUSH1 0x0 DUP2 SWAP1 POP PUSH2 0x2CBB DUP3 PUSH2 0x314D JUMP JUMPDEST SWAP2 SWAP1 POP JUMP JUMPDEST PUSH1 0x0 DUP2 SWAP1 POP SWAP2 SWAP1 POP JUMP JUMPDEST PUSH1 0x0 DUP2 SWAP1 POP SWAP2 SWAP1 POP JUMP JUMPDEST PUSH1 0x0 PUSH2 0x2CDF DUP3 PUSH2 0x2CAD JUMP JUMPDEST SWAP1 POP SWAP2 SWAP1 POP JUMP JUMPDEST DUP3 DUP2 DUP4 CALLDATACOPY PUSH1 0x0 DUP4 DUP4 ADD MSTORE POP POP POP JUMP JUMPDEST PUSH1 0x0 JUMPDEST DUP4 DUP2 LT ISZERO PUSH2 0x2D13 JUMPI DUP1 DUP3 ADD MLOAD DUP2 DUP5 ADD MSTORE PUSH1 0x20 DUP2 ADD SWAP1 POP PUSH2 0x2CF8 JUMP JUMPDEST DUP4 DUP2 GT ISZERO PUSH2 0x2D22 JUMPI PUSH1 0x0 DUP5 DUP5 ADD MSTORE JUMPDEST POP POP POP POP JUMP JUMPDEST PUSH1 0x0 PUSH1 0x2 DUP3 DIV SWAP1 POP PUSH1 0x1 DUP3 AND DUP1 PUSH2 0x2D40 JUMPI PUSH1 0x7F DUP3 AND SWAP2 POP JUMPDEST PUSH1 0x20 DUP3 LT DUP2 EQ ISZERO PUSH2 0x2D54 JUMPI PUSH2 0x2D53 PUSH2 0x2E92 JUMP JUMPDEST JUMPDEST POP SWAP2 SWAP1 POP JUMP JUMPDEST PUSH2 0x2D63 DUP3 PUSH2 0x2F33 JUMP JUMPDEST DUP2 ADD DUP2 DUP2 LT PUSH8 0xFFFFFFFFFFFFFFFF DUP3 GT OR ISZERO PUSH2 0x2D82 JUMPI PUSH2 0x2D81 PUSH2 0x2EF0 JUMP JUMPDEST JUMPDEST DUP1 PUSH1 0x40 MSTORE POP POP POP JUMP JUMPDEST PUSH1 0x0 PUSH2 0x2D96 DUP3 PUSH2 0x2CCA JUMP JUMPDEST SWAP2 POP PUSH32 0xFFFFFFFFFFFFFFFFFFFFFFFFFFFFFFFFFFFFFFFFFFFFFFFFFFFFFFFFFFFFFFFF DUP3 EQ ISZERO PUSH2 0x2DC9 JUMPI PUSH2 0x2DC8 PUSH2 0x2E05 JUMP JUMPDEST JUMPDEST PUSH1 0x1 DUP3 ADD SWAP1 POP SWAP2 SWAP1 POP JUMP JUMPDEST PUSH1 0x0 PUSH2 0x2DDF DUP3 PUSH2 0x2CCA JUMP JUMPDEST SWAP2 POP PUSH2 0x2DEA DUP4 PUSH2 0x2CCA JUMP JUMPDEST SWAP3 POP DUP3 PUSH2 0x2DFA JUMPI PUSH2 0x2DF9 PUSH2 0x2E34 JUMP JUMPDEST JUMPDEST DUP3 DUP3 MOD SWAP1 POP SWAP3 SWAP2 POP POP JUMP JUMPDEST PUSH32 0x4E487B7100000000000000000000000000000000000000000000000000000000 PUSH1 0x0 MSTORE PUSH1 0x11 PUSH1 0x4 MSTORE PUSH1 0x24 PUSH1 0x0 REVERT JUMPDEST PUSH32 0x4E487B7100000000000000000000000000000000000000000000000000000000 PUSH1 0x0 MSTORE PUSH1 0x12 PUSH1 0x4 MSTORE PUSH1 0x24 PUSH1 0x0 REVERT JUMPDEST PUSH32 0x4E487B7100000000000000000000000000000000000000000000000000000000 PUSH1 0x0 MSTORE PUSH1 0x21 PUSH1 0x4 MSTORE PUSH1 0x24 PUSH1 0x0 REVERT JUMPDEST PUSH32 0x4E487B7100000000000000000000000000000000000000000000000000000000 PUSH1 0x0 MSTORE PUSH1 0x22 PUSH1 0x4 MSTORE PUSH1 0x24 PUSH1 0x0 REVERT JUMPDEST PUSH32 0x4E487B7100000000000000000000000000000000000000000000000000000000 PUSH1 0x0 MSTORE PUSH1 0x32 PUSH1 0x4 MSTORE PUSH1 0x24 PUSH1 0x0 REVERT JUMPDEST PUSH32 0x4E487B7100000000000000000000000000000000000000000000000000000000 PUSH1 0x0 MSTORE PUSH1 0x41 PUSH1 0x4 MSTORE PUSH1 0x24 PUSH1 0x0 REVERT JUMPDEST PUSH1 0x0 DUP1 REVERT JUMPDEST PUSH1 0x0 DUP1 REVERT JUMPDEST PUSH1 0x0 DUP1 REVERT JUMPDEST PUSH1 0x0 DUP1 REVERT JUMPDEST PUSH1 0x0 PUSH1 0x1F NOT PUSH1 0x1F DUP4 ADD AND SWAP1 POP SWAP2 SWAP1 POP JUMP JUMPDEST PUSH32 0x546865205F6265727468696E6752657175657374496420706172616D65746572 PUSH1 0x0 DUP3 ADD MSTORE PUSH32 0x206973206D697373696E67000000000000000000000000000000000000000000 PUSH1 0x20 DUP3 ADD MSTORE POP JUMP JUMPDEST PUSH32 0x4974206973206E6F7420616C6C6F7720746F2073656E64207265717565737420 PUSH1 0x0 DUP3 ADD MSTORE PUSH32 0x6F6E2053756E6461797300000000000000000000000000000000000000000000 PUSH1 0x20 DUP3 ADD MSTORE POP JUMP JUMPDEST PUSH32 0x4F6E6C792074686520696E746567726174696F6E2070726F6365737320636F75 PUSH1 0x0 DUP3 ADD MSTORE PUSH32 0x6C6420706572666F726D2074686973206D6574686F6421000000000000000000 PUSH1 0x20 DUP3 ADD MSTORE POP JUMP JUMPDEST PUSH32 0x4D697373696E6720646174613A204D4D53492000000000000000000000000000 PUSH1 0x0 DUP3 ADD MSTORE POP JUMP JUMPDEST PUSH32 0x4F6E6C7920746865206170706C69636174696F6E20636F756C6420706572666F PUSH1 0x0 DUP3 ADD MSTORE PUSH32 0x726D2074686973206D6574686F64210000000000000000000000000000000000 PUSH1 0x20 DUP3 ADD MSTORE POP JUMP JUMPDEST PUSH32 0x496E76616C696420646174657300000000000000000000000000000000000000 PUSH1 0x0 DUP3 ADD MSTORE POP JUMP JUMPDEST POP JUMP JUMPDEST PUSH32 0x5468697320726571756573742069732070726F63657373656420616C72656164 PUSH1 0x0 DUP3 ADD MSTORE PUSH32 0x7900000000000000000000000000000000000000000000000000000000000000 PUSH1 0x20 DUP3 ADD MSTORE POP JUMP JUMPDEST PUSH32 0x4D697373696E6720646174613A20494D4F200000000000000000000000000000 PUSH1 0x0 DUP3 ADD MSTORE POP JUMP JUMPDEST PUSH1 0x8 DUP2 LT PUSH2 0x315E JUMPI PUSH2 0x315D PUSH2 0x2E63 JUMP JUMPDEST JUMPDEST POP JUMP JUMPDEST PUSH2 0x316A DUP2 PUSH2 0x2CCA JUMP JUMPDEST DUP2 EQ PUSH2 0x3175 JUMPI PUSH1 0x0 DUP1 REVERT JUMPDEST POP JUMP INVALID LOG2 PUSH5 0x6970667358 0x22 SLT KECCAK256 RETURN 0xD 0xCA MSTORE SWAP12 0xE7 JUMPDEST 0x24 EXTCODECOPY CHAINID 0xA9 PUSH15 0xDBBB7262E8DB8D6E33FCAD70235FAD REVERT SGT 0xED 0xDD 0xD7 PUSH5 0x736F6C6343 STOP ADDMOD SMOD STOP CALLER "
		},
		"gasEstimates": {
			"creation": {
				"codeDepositCost": "2543600",
				"executionCost": "infinite",
				"totalCost": "infinite"
			},
			"external": {
				"berthingRequest(uint256)": "infinite",
				"getAllProposals()": "infinite",
				"getAllRequest()": "infinite",
				"getDayOfWeek(uint256)": "infinite",
				"getHour(uint256)": "infinite",
				"getLastProposal()": "infinite",
				"getLastRequest()": "infinite",
				"getSpecificProposal(uint256)": "infinite",
				"getSpecificRequest(uint256)": "infinite",
				"getStatus()": "659",
				"isEmpty(string)": "infinite",
				"isSunday(uint256)": "infinite",
				"request(uint256,uint256,string,string)": "infinite",
				"responseWithProposal(uint256,uint256,uint256,uint256)": "infinite",
				"timestampFromDate(uint256,uint256,uint256)": "infinite",
				"timestampToDate(uint256)": "infinite"
			}
		},
		"methodIdentifiers": {
			"berthingRequest(uint256)": "9e11d7b7",
			"getAllProposals()": "cceb68f5",
			"getAllRequest()": "545569ba",
			"getDayOfWeek(uint256)": "22f8a2b8",
			"getHour(uint256)": "3e239e1a",
			"getLastProposal()": "f0ab3dd9",
			"getLastRequest()": "9aa91a25",
			"getSpecificProposal(uint256)": "88c5f397",
			"getSpecificRequest(uint256)": "db72fb1d",
			"getStatus()": "4e69d560",
			"isEmpty(string)": "27341c8a",
			"isSunday(uint256)": "3a4a6960",
			"request(uint256,uint256,string,string)": "ba26fbb8",
			"responseWithProposal(uint256,uint256,uint256,uint256)": "394ee1e5",
			"timestampFromDate(uint256,uint256,uint256)": "1f4f77b2",
			"timestampToDate(uint256)": "de5101af"
		}
	},
	"abi": [
		{
			"inputs": [
				{
					"internalType": "address",
					"name": "_process",
					"type": "address"
				},
				{
					"internalType": "address",
					"name": "_application",
					"type": "address"
				},
				{
					"internalType": "uint256",
					"name": "_beginDate",
					"type": "uint256"
				},
				{
					"internalType": "uint256",
					"name": "_dueDate",
					"type": "uint256"
				}
			],
			"stateMutability": "nonpayable",
			"type": "constructor"
		},
		{
			"inputs": [
				{
					"internalType": "uint256",
					"name": "",
					"type": "uint256"
				}
			],
			"name": "berthingRequest",
			"outputs": [
				{
					"internalType": "uint256",
					"name": "berthingRequestId",
					"type": "uint256"
				},
				{
					"internalType": "uint256",
					"name": "arriveDate",
					"type": "uint256"
				},
				{
					"internalType": "uint256",
					"name": "departureDate",
					"type": "uint256"
				},
				{
					"internalType": "string",
					"name": "mmsi",
					"type": "string"
				},
				{
					"internalType": "string",
					"name": "imo",
					"type": "string"
				},
				{
					"internalType": "string",
					"name": "portServices",
					"type": "string"
				},
				{
					"internalType": "uint256",
					"name": "timestamp",
					"type": "uint256"
				},
				{
					"internalType": "enum DockRequest.Status",
					"name": "status",
					"type": "uint8"
				}
			],
			"stateMutability": "view",
			"type": "function"
		},
		{
			"inputs": [],
			"name": "getAllProposals",
			"outputs": [
				{
					"components": [
						{
							"internalType": "uint256",
							"name": "berthingRequestId",
							"type": "uint256"
						},
						{
							"internalType": "uint256",
							"name": "berthingProposalId",
							"type": "uint256"
						},
						{
							"internalType": "uint256",
							"name": "arriveDate",
							"type": "uint256"
						},
						{
							"internalType": "uint256",
							"name": "departureDate",
							"type": "uint256"
						},
						{
							"internalType": "uint256",
							"name": "portCosts",
							"type": "uint256"
						},
						{
							"internalType": "uint256",
							"name": "timestamp",
							"type": "uint256"
						},
						{
							"internalType": "enum DockRequest.Status",
							"name": "status",
							"type": "uint8"
						}
					],
					"internalType": "struct DockRequest.BerthingProposalForm[]",
					"name": "",
					"type": "tuple[]"
				}
			],
			"stateMutability": "view",
			"type": "function"
		},
		{
			"inputs": [],
			"name": "getAllRequest",
			"outputs": [
				{
					"components": [
						{
							"internalType": "uint256",
							"name": "berthingRequestId",
							"type": "uint256"
						},
						{
							"internalType": "uint256",
							"name": "arriveDate",
							"type": "uint256"
						},
						{
							"internalType": "uint256",
							"name": "departureDate",
							"type": "uint256"
						},
						{
							"internalType": "string",
							"name": "mmsi",
							"type": "string"
						},
						{
							"internalType": "string",
							"name": "imo",
							"type": "string"
						},
						{
							"internalType": "string",
							"name": "portServices",
							"type": "string"
						},
						{
							"internalType": "uint256",
							"name": "timestamp",
							"type": "uint256"
						},
						{
							"internalType": "enum DockRequest.Status",
							"name": "status",
							"type": "uint8"
						}
					],
					"internalType": "struct DockRequest.BerthingRequestForm[]",
					"name": "",
					"type": "tuple[]"
				}
			],
			"stateMutability": "view",
			"type": "function"
		},
		{
			"inputs": [
				{
					"internalType": "uint256",
					"name": "timestamp",
					"type": "uint256"
				}
			],
			"name": "getDayOfWeek",
			"outputs": [
				{
					"internalType": "uint256",
					"name": "dayOfWeek",
					"type": "uint256"
				}
			],
			"stateMutability": "pure",
			"type": "function"
		},
		{
			"inputs": [
				{
					"internalType": "uint256",
					"name": "timestamp",
					"type": "uint256"
				}
			],
			"name": "getHour",
			"outputs": [
				{
					"internalType": "uint256",
					"name": "hour",
					"type": "uint256"
				}
			],
			"stateMutability": "pure",
			"type": "function"
		},
		{
			"inputs": [],
			"name": "getLastProposal",
			"outputs": [
				{
					"components": [
						{
							"internalType": "uint256",
							"name": "berthingRequestId",
							"type": "uint256"
						},
						{
							"internalType": "uint256",
							"name": "berthingProposalId",
							"type": "uint256"
						},
						{
							"internalType": "uint256",
							"name": "arriveDate",
							"type": "uint256"
						},
						{
							"internalType": "uint256",
							"name": "departureDate",
							"type": "uint256"
						},
						{
							"internalType": "uint256",
							"name": "portCosts",
							"type": "uint256"
						},
						{
							"internalType": "uint256",
							"name": "timestamp",
							"type": "uint256"
						},
						{
							"internalType": "enum DockRequest.Status",
							"name": "status",
							"type": "uint8"
						}
					],
					"internalType": "struct DockRequest.BerthingProposalForm",
					"name": "",
					"type": "tuple"
				}
			],
			"stateMutability": "view",
			"type": "function"
		},
		{
			"inputs": [],
			"name": "getLastRequest",
			"outputs": [
				{
					"components": [
						{
							"internalType": "uint256",
							"name": "berthingRequestId",
							"type": "uint256"
						},
						{
							"internalType": "uint256",
							"name": "arriveDate",
							"type": "uint256"
						},
						{
							"internalType": "uint256",
							"name": "departureDate",
							"type": "uint256"
						},
						{
							"internalType": "string",
							"name": "mmsi",
							"type": "string"
						},
						{
							"internalType": "string",
							"name": "imo",
							"type": "string"
						},
						{
							"internalType": "string",
							"name": "portServices",
							"type": "string"
						},
						{
							"internalType": "uint256",
							"name": "timestamp",
							"type": "uint256"
						},
						{
							"internalType": "enum DockRequest.Status",
							"name": "status",
							"type": "uint8"
						}
					],
					"internalType": "struct DockRequest.BerthingRequestForm",
					"name": "",
					"type": "tuple"
				}
			],
			"stateMutability": "view",
			"type": "function"
		},
		{
			"inputs": [
				{
					"internalType": "uint256",
					"name": "id",
					"type": "uint256"
				}
			],
			"name": "getSpecificProposal",
			"outputs": [
				{
					"components": [
						{
							"internalType": "uint256",
							"name": "berthingRequestId",
							"type": "uint256"
						},
						{
							"internalType": "uint256",
							"name": "berthingProposalId",
							"type": "uint256"
						},
						{
							"internalType": "uint256",
							"name": "arriveDate",
							"type": "uint256"
						},
						{
							"internalType": "uint256",
							"name": "departureDate",
							"type": "uint256"
						},
						{
							"internalType": "uint256",
							"name": "portCosts",
							"type": "uint256"
						},
						{
							"internalType": "uint256",
							"name": "timestamp",
							"type": "uint256"
						},
						{
							"internalType": "enum DockRequest.Status",
							"name": "status",
							"type": "uint8"
						}
					],
					"internalType": "struct DockRequest.BerthingProposalForm",
					"name": "",
					"type": "tuple"
				}
			],
			"stateMutability": "view",
			"type": "function"
		},
		{
			"inputs": [
				{
					"internalType": "uint256",
					"name": "id",
					"type": "uint256"
				}
			],
			"name": "getSpecificRequest",
			"outputs": [
				{
					"components": [
						{
							"internalType": "uint256",
							"name": "berthingRequestId",
							"type": "uint256"
						},
						{
							"internalType": "uint256",
							"name": "arriveDate",
							"type": "uint256"
						},
						{
							"internalType": "uint256",
							"name": "departureDate",
							"type": "uint256"
						},
						{
							"internalType": "string",
							"name": "mmsi",
							"type": "string"
						},
						{
							"internalType": "string",
							"name": "imo",
							"type": "string"
						},
						{
							"internalType": "string",
							"name": "portServices",
							"type": "string"
						},
						{
							"internalType": "uint256",
							"name": "timestamp",
							"type": "uint256"
						},
						{
							"internalType": "enum DockRequest.Status",
							"name": "status",
							"type": "uint8"
						}
					],
					"internalType": "struct DockRequest.BerthingRequestForm",
					"name": "",
					"type": "tuple"
				}
			],
			"stateMutability": "view",
			"type": "function"
		},
		{
			"inputs": [],
			"name": "getStatus",
			"outputs": [
				{
					"internalType": "bool",
					"name": "",
					"type": "bool"
				}
			],
			"stateMutability": "pure",
			"type": "function"
		},
		{
			"inputs": [
				{
					"internalType": "string",
					"name": "s1",
					"type": "string"
				}
			],
			"name": "isEmpty",
			"outputs": [
				{
					"internalType": "bool",
					"name": "",
					"type": "bool"
				}
			],
			"stateMutability": "pure",
			"type": "function"
		},
		{
			"inputs": [
				{
					"internalType": "uint256",
					"name": "timestamp",
					"type": "uint256"
				}
			],
			"name": "isSunday",
			"outputs": [
				{
					"internalType": "bool",
					"name": "",
					"type": "bool"
				}
			],
			"stateMutability": "pure",
			"type": "function"
		},
		{
			"inputs": [
				{
					"internalType": "uint256",
					"name": "_arriveDate",
					"type": "uint256"
				},
				{
					"internalType": "uint256",
					"name": "_departureDate",
					"type": "uint256"
				},
				{
					"internalType": "string",
					"name": "_mmsi",
					"type": "string"
				},
				{
					"internalType": "string",
					"name": "_imo",
					"type": "string"
				}
			],
			"name": "request",
			"outputs": [],
			"stateMutability": "nonpayable",
			"type": "function"
		},
		{
			"inputs": [
				{
					"internalType": "uint256",
					"name": "_berthingRequestId",
					"type": "uint256"
				},
				{
					"internalType": "uint256",
					"name": "_arriveDate",
					"type": "uint256"
				},
				{
					"internalType": "uint256",
					"name": "_departureDate",
					"type": "uint256"
				},
				{
					"internalType": "uint256",
					"name": "_portCosts",
					"type": "uint256"
				}
			],
			"name": "responseWithProposal",
			"outputs": [],
			"stateMutability": "nonpayable",
			"type": "function"
		},
		{
			"inputs": [
				{
					"internalType": "uint256",
					"name": "year",
					"type": "uint256"
				},
				{
					"internalType": "uint256",
					"name": "month",
					"type": "uint256"
				},
				{
					"internalType": "uint256",
					"name": "day",
					"type": "uint256"
				}
			],
			"name": "timestampFromDate",
			"outputs": [
				{
					"internalType": "uint256",
					"name": "timestamp",
					"type": "uint256"
				}
			],
			"stateMutability": "pure",
			"type": "function"
		},
		{
			"inputs": [
				{
					"internalType": "uint256",
					"name": "timestamp",
					"type": "uint256"
				}
			],
			"name": "timestampToDate",
			"outputs": [
				{
					"internalType": "uint256",
					"name": "year",
					"type": "uint256"
				},
				{
					"internalType": "uint256",
					"name": "month",
					"type": "uint256"
				},
				{
					"internalType": "uint256",
					"name": "day",
					"type": "uint256"
				}
			],
			"stateMutability": "pure",
			"type": "function"
		}
	]
}