{
  "contractName": "DeliveryHiring",
  "abi": [
    {
      "inputs": [
        {
          "internalType": "address",
          "name": "_processWallet",
          "type": "address"
        },
        {
          "internalType": "address",
          "name": "_applicationWallet",
          "type": "address"
        }
      ],
      "stateMutability": "nonpayable",
      "type": "constructor"
    },
    {
      "anonymous": false,
      "inputs": [
        {
          "indexed": false,
          "internalType": "string",
          "name": "_logMessage",
          "type": "string"
        }
      ],
      "name": "fail",
      "type": "event"
    },
    {
      "anonymous": false,
      "inputs": [
        {
          "indexed": false,
          "internalType": "string",
          "name": "_logMessage",
          "type": "string"
        }
      ],
      "name": "success",
      "type": "event"
    },
    {
      "inputs": [],
      "name": "beginDate",
      "outputs": [
        {
          "internalType": "uint256",
          "name": "year",
          "type": "uint256"
        },
        {
          "internalType": "uint256",
          "name": "month",
          "type": "uint256"
        },
        {
          "internalType": "uint256",
          "name": "day",
          "type": "uint256"
        },
        {
          "internalType": "uint256",
          "name": "hour",
          "type": "uint256"
        },
        {
          "internalType": "uint256",
          "name": "minute",
          "type": "uint256"
        },
        {
          "internalType": "uint256",
          "name": "second",
          "type": "uint256"
        }
      ],
      "stateMutability": "view",
      "type": "function",
      "constant": true
    },
    {
      "inputs": [],
      "name": "businessDay",
      "outputs": [
        {
          "internalType": "uint256",
          "name": "weekDay_start",
          "type": "uint256"
        },
        {
          "internalType": "uint256",
          "name": "weekDay_end",
          "type": "uint256"
        }
      ],
      "stateMutability": "view",
      "type": "function",
      "constant": true
    },
    {
      "inputs": [],
      "name": "businessTime",
      "outputs": [
        {
          "internalType": "uint256",
          "name": "start_hr",
          "type": "uint256"
        },
        {
          "internalType": "uint256",
          "name": "start_min",
          "type": "uint256"
        },
        {
          "internalType": "uint256",
          "name": "start_sec",
          "type": "uint256"
        },
        {
          "internalType": "uint256",
          "name": "end_hr",
          "type": "uint256"
        },
        {
          "internalType": "uint256",
          "name": "end_min",
          "type": "uint256"
        },
        {
          "internalType": "uint256",
          "name": "end_sec",
          "type": "uint256"
        }
      ],
      "stateMutability": "view",
      "type": "function",
      "constant": true
    },
    {
      "inputs": [],
      "name": "dueDate",
      "outputs": [
        {
          "internalType": "uint256",
          "name": "year",
          "type": "uint256"
        },
        {
          "internalType": "uint256",
          "name": "month",
          "type": "uint256"
        },
        {
          "internalType": "uint256",
          "name": "day",
          "type": "uint256"
        },
        {
          "internalType": "uint256",
          "name": "hour",
          "type": "uint256"
        },
        {
          "internalType": "uint256",
          "name": "minute",
          "type": "uint256"
        },
        {
          "internalType": "uint256",
          "name": "second",
          "type": "uint256"
        }
      ],
      "stateMutability": "view",
      "type": "function",
      "constant": true
    },
    {
      "inputs": [],
      "name": "operationLimit",
      "outputs": [
        {
          "internalType": "uint256",
          "name": "requestsLimit",
          "type": "uint256"
        },
        {
          "internalType": "uint256",
          "name": "frequencyTime",
          "type": "uint256"
        },
        {
          "internalType": "uint256",
          "name": "requestsPerformed",
          "type": "uint256"
        },
        {
          "internalType": "uint256",
          "name": "timeout",
          "type": "uint256"
        }
      ],
      "stateMutability": "view",
      "type": "function",
      "constant": true
    },
    {
      "inputs": [
        {
          "internalType": "string",
          "name": "_accessDateTime",
          "type": "string"
        }
      ],
      "name": "requestDelivery",
      "outputs": [
        {
          "internalType": "string",
          "name": "",
          "type": "string"
        }
      ],
      "stateMutability": "nonpayable",
      "type": "function"
    }
  ],
  "bytecode": "0x60806040526200004a6040518060400160405280601381526020017f323032322d30312d30312030383a30303a3030000000000000000000000000008152506200045860201b60201c565b6004600082015181600001556020820151816001015560408201518160020155606082015181600301556080820151816004015560a082015181600501555050620000d06040518060400160405280601381526020017f323032322d31322d33312031383a32353a3130000000000000000000000000008152506200045860201b60201c565b600a600082015181600001556020820151816001015560408201518160020155606082015181600301556080820151816004015560a0820151816005015550506200012460016005620004cd60201b60201c565b6010600082015181600001556020820151816001015550506200015060056002620004f460201b60201c565b6012600082015181600001556020820151816001015560408201518160020155606082015181600301555050620001f86040518060400160405280600881526020017f30383a33303a30300000000000000000000000000000000000000000000000008152506040518060400160405280600881526020017f31383a33303a30300000000000000000000000000000000000000000000000008152506200053960201b60201c565b6016600082015181600001556020820151816001015560408201518160020155606082015181600301556080820151816004015560a08201518160050155505060405180602001604052806000815250601c90805190602001906200025f929190620012dc565b5060405180602001604052806000815250601d908051906020019062000287929190620012dc565b503480156200029557600080fd5b5060405162003f8838038062003f888339818101604052810190620002bb9190620014a4565b60405180604001604052806040518060400160405280601381526020017f496e746567726174696f6e2050726f636573730000000000000000000000000081525081526020018373ffffffffffffffffffffffffffffffffffffffff168152506000808201518160000190805190602001906200033a929190620012dc565b5060208201518160010160006101000a81548173ffffffffffffffffffffffffffffffffffffffff021916908373ffffffffffffffffffffffffffffffffffffffff16021790555090505060405180604001604052806040518060400160405280600d81526020017f437265646974204167656e63790000000000000000000000000000000000000081525081526020018273ffffffffffffffffffffffffffffffffffffffff168152506002600082015181600001908051906020019062000405929190620012dc565b5060208201518160010160006101000a81548173ffffffffffffffffffffffffffffffffffffffff021916908373ffffffffffffffffffffffffffffffffffffffff160217905550905050505062002244565b620004626200136d565b6000806000806000806200048188620005c060201b620003201760201c565b95509550955095509550955060006040518060c0016040528088815260200187815260200186815260200185815260200184815260200183815250905080975050505050505050919050565b620004d7620013a3565b604051806040016040528084815260200183815250905092915050565b620004fe620013bd565b604051806080016040528084815260200162000520846200066060201b60201c565b8152602001600081526020016000815250905092915050565b62000543620013e5565b60008060006200055e866200075f60201b620003961760201c565b92509250925060008060006200057f886200075f60201b620003961760201c565b9250925092506040518060c0016040528087815260200186815260200185815260200184815260200183815260200182815250965050505050505092915050565b6000806000806000806000620005e58860006009620007b560201b620003d41760201c565b905060006200060389600b6012620007b560201b620003d41760201c565b905060008060006200061b856200082e60201b60201c565b925092509250600080600062000637876200075f60201b60201c565b9250925092508585858585859d509d509d509d509d509d50505050505050505091939550919395565b60008082118015620006725750600882105b82604051602001620006859190620015c5565b60405160208183030381529060405290620006d8576040517f08c379a0000000000000000000000000000000000000000000000000000000008152600401620006cf9190620016a0565b60405180910390fd5b5060018203620006ec57600190506200075a565b60028203620006ff57603c90506200075a565b600382036200071357610e1090506200075a565b6004820362000728576201518090506200075a565b600582036200073d5762093a8090506200075a565b60068203620007525762278d0090506200075a565b6301e1338090505b919050565b600080600080620007768562000a4960201b60201c565b905060006200078b8662000b6360201b60201c565b90506000620007a08762000c7d60201b60201c565b90508282829550955095505050509193909250565b60608060008490505b838111620008225781868281518110620007dd57620007dc620016c4565b5b602001015160f81c60f81b604051602001620007fb9291906200177b565b604051602081830303815290604052915080806200081990620017d6565b915050620007be565b50809150509392505050565b600080600080620008458562000d9760201b60201c565b905060006200085a8662000e1d60201b60201c565b905060006200086f8762000f3760201b60201c565b9050600062000889826200105160201b620004441760201c565b90506000620008a3846200105160201b620004441760201c565b9050600284036200092257601d8311158282604051602001620008c892919062001913565b604051602081830303815290604052906200091b576040517f08c379a0000000000000000000000000000000000000000000000000000000008152600401620009129190620016a0565b60405180910390fd5b5062000a34565b6004841480620009325750600684145b806200093e5750600984145b806200094a5750600b84145b15620009c457601e83111582826040516020016200096a92919062001913565b60405160208183030381529060405290620009bd576040517f08c379a0000000000000000000000000000000000000000000000000000000008152600401620009b49190620016a0565b60405180910390fd5b5062000a33565b601f8311158282604051602001620009de92919062001913565b6040516020818303038152906040529062000a31576040517f08c379a000000000000000000000000000000000000000000000000000000000815260040162000a289190620016a0565b60405180910390fd5b505b5b84848497509750975050505050509193909250565b600080600062000a7d62000a6c8560006001620007b560201b620003d41760201c565b620011ca60201b620005a41760201c565b91509150801562000ac5576040517f08c379a000000000000000000000000000000000000000000000000000000000815260040162000abc90620019d8565b60405180910390fd5b600062000add836200105160201b620004441760201c565b90506000831015801562000af15750601883105b8160405160200162000b04919062001a9a565b6040516020818303038152906040529062000b57576040517f08c379a000000000000000000000000000000000000000000000000000000000815260040162000b4e9190620016a0565b60405180910390fd5b50829350505050919050565b600080600062000b9762000b868560036004620007b560201b620003d41760201c565b620011ca60201b620005a41760201c565b91509150801562000bdf576040517f08c379a000000000000000000000000000000000000000000000000000000000815260040162000bd69062001b43565b60405180910390fd5b600062000bf7836200105160201b620004441760201c565b90506000831015801562000c0b5750603c83105b8160405160200162000c1e919062001bb5565b6040516020818303038152906040529062000c71576040517f08c379a000000000000000000000000000000000000000000000000000000000815260040162000c689190620016a0565b60405180910390fd5b50829350505050919050565b600080600062000cb162000ca08560066007620007b560201b620003d41760201c565b620011ca60201b620005a41760201c565b91509150801562000cf9576040517f08c379a000000000000000000000000000000000000000000000000000000000815260040162000cf09062001c5e565b60405180910390fd5b600062000d11836200105160201b620004441760201c565b90506000831015801562000d255750603c83105b8160405160200162000d38919062001cd0565b6040516020818303038152906040529062000d8b576040517f08c379a000000000000000000000000000000000000000000000000000000000815260040162000d829190620016a0565b60405180910390fd5b50829350505050919050565b600080600062000dcb62000dba8560006003620007b560201b620003d41760201c565b620011ca60201b620005a41760201c565b91509150801562000e13576040517f08c379a000000000000000000000000000000000000000000000000000000000815260040162000e0a9062001d79565b60405180910390fd5b8192505050919050565b600080600062000e5162000e408560056006620007b560201b620003d41760201c565b620011ca60201b620005a41760201c565b91509150801562000e99576040517f08c379a000000000000000000000000000000000000000000000000000000000815260040162000e909062001e11565b60405180910390fd5b600062000eb1836200105160201b620004441760201c565b905060008311801562000ec55750600c8311155b8160405160200162000ed8919062001e83565b6040516020818303038152906040529062000f2b576040517f08c379a000000000000000000000000000000000000000000000000000000000815260040162000f229190620016a0565b60405180910390fd5b50829350505050919050565b600080600062000f6b62000f5a8560086009620007b560201b620003d41760201c565b620011ca60201b620005a41760201c565b91509150801562000fb3576040517f08c379a000000000000000000000000000000000000000000000000000000000815260040162000faa9062001f2c565b60405180910390fd5b600062000fcb836200105160201b620004441760201c565b905060008311801562000fdf5750601f8311155b8160405160200162000ff2919062001f9e565b6040516020818303038152906040529062001045576040517f08c379a00000000000000000000000000000000000000000000000000000000081526004016200103c9190620016a0565b60405180910390fd5b50829350505050919050565b6060600082036200109a576040518060400160405280600181526020017f30000000000000000000000000000000000000000000000000000000000000008152509050620011c5565b600082905060005b60008214620010d2578080620010b890620017d6565b915050600a82620010ca919062002000565b9150620010a2565b60008167ffffffffffffffff811115620010f157620010f062002038565b5b6040519080825280601f01601f191660200182016040528015620011245781602001600182028036833780820191505090505b5090505b60008514620011be5760018262001140919062002067565b9150600a85620011519190620020a2565b60306200115f9190620020da565b60f81b818381518110620011785762001177620016c4565b5b60200101907effffffffffffffffffffffffffffffffffffffffffffffffffffffffffffff1916908160001a905350600a85620011b6919062002000565b945062001128565b8093505050505b919050565b60008060008084905060008060005b8351811015620012cc576030848281518110620011fb57620011fa620016c4565b5b602001015160f81c60f81b60f81c60ff161015801562001242575060398482815181106200122e576200122d620016c4565b5b602001015160f81c60f81b60f81c60ff1611155b15620012b1578291506030848281518110620012635762001262620016c4565b5b602001015160f81c60f81b60f81c6200127d919062002144565b60ff16600a846200128f91906200217f565b6200129b9190620020da565b925082821115620012ab57600194505b620012b6565b600194505b8080620012c390620017d6565b915050620011d9565b5081849550955050505050915091565b828054620012ea906200220f565b90600052602060002090601f0160209004810192826200130e57600085556200135a565b82601f106200132957805160ff19168380011785556200135a565b828001600101855582156200135a579182015b82811115620013595782518255916020019190600101906200133c565b5b5090506200136991906200141b565b5090565b6040518060c001604052806000815260200160008152602001600081526020016000815260200160008152602001600081525090565b604051806040016040528060008152602001600081525090565b6040518060800160405280600081526020016000815260200160008152602001600081525090565b6040518060c001604052806000815260200160008152602001600081526020016000815260200160008152602001600081525090565b5b80821115620014365760008160009055506001016200141c565b5090565b600080fd5b600073ffffffffffffffffffffffffffffffffffffffff82169050919050565b60006200146c826200143f565b9050919050565b6200147e816200145f565b81146200148a57600080fd5b50565b6000815190506200149e8162001473565b92915050565b60008060408385031215620014be57620014bd6200143a565b5b6000620014ce858286016200148d565b9250506020620014e1858286016200148d565b9150509250929050565b600081905092915050565b7f5468652076616c75653a20000000000000000000000000000000000000000000600082015250565b60006200152e600b83620014eb565b91506200153b82620014f6565b600b82019050919050565b6000819050919050565b6000819050919050565b6200156f620015698262001546565b62001550565b82525050565b7f2c20697320696e76616c69642074696d6520756e697400000000000000000000600082015250565b6000620015ad601683620014eb565b9150620015ba8262001575565b601682019050919050565b6000620015d2826200151f565b9150620015e082846200155a565b602082019150620015f1826200159e565b915081905092915050565b600081519050919050565b600082825260208201905092915050565b60005b83811015620016385780820151818401526020810190506200161b565b8381111562001648576000848401525b50505050565b6000601f19601f8301169050919050565b60006200166c82620015fc565b62001678818562001607565b93506200168a81856020860162001618565b62001695816200164e565b840191505092915050565b60006020820190508181036000830152620016bc81846200165f565b905092915050565b7f4e487b7100000000000000000000000000000000000000000000000000000000600052603260045260246000fd5b60006200170082620015fc565b6200170c8185620014eb565b93506200171e81856020860162001618565b80840191505092915050565b60007fff0000000000000000000000000000000000000000000000000000000000000082169050919050565b6000819050919050565b620017756200176f826200172a565b62001756565b82525050565b6000620017898285620016f3565b915062001797828462001760565b6001820191508190509392505050565b7f4e487b7100000000000000000000000000000000000000000000000000000000600052601160045260246000fd5b6000620017e38262001546565b91507fffffffffffffffffffffffffffffffffffffffffffffffffffffffffffffffff8203620018185762001817620017a7565b5b600182019050919050565b7f2a2a2a205468657265206973206e6f2020646179202000000000000000000000600082015250565b60006200185b601683620014eb565b9150620018688262001823565b601682019050919050565b7f737420696e206d6f6e7468200000000000000000000000000000000000000000600082015250565b6000620018ab600c83620014eb565b9150620018b88262001873565b600c82019050919050565b7f202a2a2a00000000000000000000000000000000000000000000000000000000600082015250565b6000620018fb600483620014eb565b91506200190882620018c3565b600482019050919050565b600062001920826200184c565b91506200192e8285620016f3565b91506200193b826200189c565b9150620019498284620016f3565b91506200195682620018ec565b91508190509392505050565b7f2a2a2a20416e206f766572666c6f77206f63637572726564207768696c65206760008201527f657474696e672074686520737562737472696e6720686f7572202a2a2a000000602082015250565b6000620019c0603d8362001607565b9150620019cd8262001962565b604082019050919050565b60006020820190508181036000830152620019f381620019b1565b9050919050565b7f2a2a2a205468652076616c756520000000000000000000000000000000000000600082015250565b600062001a32600e83620014eb565b915062001a3f82620019fa565b600e82019050919050565b7f206973206e6f7420612076616c69646520686f7572202a2a2a00000000000000600082015250565b600062001a82601983620014eb565b915062001a8f8262001a4a565b601982019050919050565b600062001aa78262001a23565b915062001ab58284620016f3565b915062001ac28262001a73565b915081905092915050565b7f2a2a2a20416e206f766572666c6f77206f63637572726564207768696c65206760008201527f657474696e672074686520737562737472696e67206d696e757465202a2a2a00602082015250565b600062001b2b603f8362001607565b915062001b388262001acd565b604082019050919050565b6000602082019050818103600083015262001b5e8162001b1c565b9050919050565b7f206973206e6f7420612076616c696465206d696e757465202a2a2a0000000000600082015250565b600062001b9d601b83620014eb565b915062001baa8262001b65565b601b82019050919050565b600062001bc28262001a23565b915062001bd08284620016f3565b915062001bdd8262001b8e565b915081905092915050565b7f2a2a2a20416e206f766572666c6f77206f63637572726564207768696c65206760008201527f657474696e672074686520737562737472696e67207365636f6e64202a2a2a00602082015250565b600062001c46603f8362001607565b915062001c538262001be8565b604082019050919050565b6000602082019050818103600083015262001c798162001c37565b9050919050565b7f206973206e6f7420612076616c696465207365636f6e64202a2a2a0000000000600082015250565b600062001cb8601b83620014eb565b915062001cc58262001c80565b601b82019050919050565b600062001cdd8262001a23565b915062001ceb8284620016f3565b915062001cf88262001ca9565b915081905092915050565b7f2a2a2a20416e206f766572666c6f77206f63637572726564207768696c65206760008201527f657474696e672074686520737562737472696e672079656172202a2a2a000000602082015250565b600062001d61603d8362001607565b915062001d6e8262001d03565b604082019050919050565b6000602082019050818103600083015262001d948162001d52565b9050919050565b7f2a2a2a20416e206f766572666c6f77206f63637572726564207768696c65206760008201527f657474696e672074686520737562737472696e67206d6f6e7468202a2a2a0000602082015250565b600062001df9603e8362001607565b915062001e068262001d9b565b604082019050919050565b6000602082019050818103600083015262001e2c8162001dea565b9050919050565b7f206973206e6f7420612076616c696465206d6f6e7468202a2a2a000000000000600082015250565b600062001e6b601a83620014eb565b915062001e788262001e33565b601a82019050919050565b600062001e908262001a23565b915062001e9e8284620016f3565b915062001eab8262001e5c565b915081905092915050565b7f2a2a2a20416e206f766572666c6f77206f63637572726564207768696c65206760008201527f657474696e672074686520737562737472696e6720646179202a2a2a00000000602082015250565b600062001f14603c8362001607565b915062001f218262001eb6565b604082019050919050565b6000602082019050818103600083015262001f478162001f05565b9050919050565b7f206973206e6f7420612076616c69646520646179202a2a2a0000000000000000600082015250565b600062001f86601883620014eb565b915062001f938262001f4e565b601882019050919050565b600062001fab8262001a23565b915062001fb98284620016f3565b915062001fc68262001f77565b915081905092915050565b7f4e487b7100000000000000000000000000000000000000000000000000000000600052601260045260246000fd5b60006200200d8262001546565b91506200201a8362001546565b9250826200202d576200202c62001fd1565b5b828204905092915050565b7f4e487b7100000000000000000000000000000000000000000000000000000000600052604160045260246000fd5b6000620020748262001546565b9150620020818362001546565b925082821015620020975762002096620017a7565b5b828203905092915050565b6000620020af8262001546565b9150620020bc8362001546565b925082620020cf57620020ce62001fd1565b5b828206905092915050565b6000620020e78262001546565b9150620020f48362001546565b9250827fffffffffffffffffffffffffffffffffffffffffffffffffffffffffffffffff038211156200212c576200212b620017a7565b5b828201905092915050565b600060ff82169050919050565b6000620021518262002137565b91506200215e8362002137565b925082821015620021745762002173620017a7565b5b828203905092915050565b60006200218c8262001546565b9150620021998362001546565b9250817fffffffffffffffffffffffffffffffffffffffffffffffffffffffffffffffff0483118215151615620021d557620021d4620017a7565b5b828202905092915050565b7f4e487b7100000000000000000000000000000000000000000000000000000000600052602260045260246000fd5b600060028204905060018216806200222857607f821691505b6020821081036200223e576200223d620021e0565b5b50919050565b611d3480620022546000396000f3fe608060405234801561001057600080fd5b50600436106100625760003560e01c806331cc883c146100675780633296607f1461008a578063786716fe146100ad57806388549585146100d0578063a7339ed2146100ef578063ac25b90e14610110575b600080fd5b61006f610140565b60405161008196959493929190610e35565b60405180910390f35b61009261016a565b6040516100a496959493929190610e35565b60405180910390f35b6100b5610194565b6040516100c796959493929190610e35565b60405180910390f35b6100d86101be565b6040516100e6929190610e96565b60405180910390f35b6100f76101d0565b6040516101079493929190610ebf565b60405180910390f35b61012a6004803603810190610125919061105e565b6101ee565b604051610137919061112f565b60405180910390f35b60168060000154908060010154908060020154908060030154908060040154908060050154905086565b60048060000154908060010154908060020154908060030154908060040154908060050154905086565b600a8060000154908060010154908060020154908060030154908060040154908060050154905086565b60108060000154908060010154905082565b60128060000154908060010154908060020154908060030154905084565b60606000600190506040518060400160405280600781526020017f6e6f206661696c00000000000000000000000000000000000000000000000000815250601c9080519060200190610241929190610d79565b5061024d83601061069f565b61028d57601c604051602001610263919061129c565b604051602081830303815290604052601c9080519060200190610287929190610d79565b50600090505b601c805461029a90611180565b80601f01602080910402602001604051908101604052809291908181526020018280546102c690611180565b80156103135780601f106102e857610100808354040283529160200191610313565b820191906000526020600020905b8154815290600101906020018083116102f657829003601f168201915b5050505050915050919050565b600080600080600080600061033888600060096103d4565b9050600061034989600b60126103d4565b90506000806000610359856106ab565b925092509250600080600061036d87610396565b9250925092508585858585859d509d509d509d509d509d50505050505050505091939550919395565b6000806000806103a58561087e565b905060006103b286610968565b905060006103bf87610a52565b90508282829550955095505050509193909250565b60608060008490505b83811161043857818682815181106103f8576103f76112be565b5b602001015160f81c60f81b60405160200161041492919061136b565b60405160208183030381529060405291508080610430906113c2565b9150506103dd565b50809150509392505050565b60606000820361048b576040518060400160405280600181526020017f3000000000000000000000000000000000000000000000000000000000000000815250905061059f565b600082905060005b600082146104bd5780806104a6906113c2565b915050600a826104b69190611439565b9150610493565b60008167ffffffffffffffff8111156104d9576104d8610f33565b5b6040519080825280601f01601f19166020018201604052801561050b5781602001600182028036833780820191505090505b5090505b6000851461059857600182610524919061146a565b9150600a85610533919061149e565b603061053f91906114cf565b60f81b818381518110610555576105546112be565b5b60200101907effffffffffffffffffffffffffffffffffffffffffffffffffffffffffffff1916908160001a905350600a856105919190611439565b945061050f565b8093505050505b919050565b60008060008084905060008060005b835181101561068f5760308482815181106105d1576105d06112be565b5b602001015160f81c60f81b60f81c60ff161015801561061457506039848281518110610600576105ff6112be565b5b602001015160f81c60f81b60f81c60ff1611155b15610677578291506030848281518110610631576106306112be565b5b602001015160f81c60f81b60f81c6106499190611532565b60ff16600a846106599190611566565b61066391906114cf565b92508282111561067257600194505b61067c565b600194505b8080610687906113c2565b9150506105b3565b5081849550955050505050915091565b60006001905092915050565b6000806000806106ba85610b3c565b905060006106c786610ba5565b905060006106d487610c8f565b905060006106e182610444565b905060006106ee84610444565b90506002840361076657601d83111582826040516020016107109291906116a4565b60405160208183030381529060405290610760576040517f08c379a0000000000000000000000000000000000000000000000000000000008152600401610757919061112f565b60405180910390fd5b50610869565b60048414806107755750600684145b806107805750600984145b8061078b5750600b84145b156107fe57601e83111582826040516020016107a89291906116a4565b604051602081830303815290604052906107f8576040517f08c379a00000000000000000000000000000000000000000000000000000000081526004016107ef919061112f565b60405180910390fd5b50610868565b601f83111582826040516020016108169291906116a4565b60405160208183030381529060405290610866576040517f08c379a000000000000000000000000000000000000000000000000000000000815260040161085d919061112f565b60405180910390fd5b505b5b84848497509750975050505050509193909250565b600080600061089861089385600060016103d4565b6105a4565b9150915080156108dd576040517f08c379a00000000000000000000000000000000000000000000000000000000081526004016108d49061175b565b60405180910390fd5b60006108e883610444565b9050600083101580156108fb5750601883105b8160405160200161090c9190611813565b6040516020818303038152906040529061095c576040517f08c379a0000000000000000000000000000000000000000000000000000000008152600401610953919061112f565b60405180910390fd5b50829350505050919050565b600080600061098261097d85600360046103d4565b6105a4565b9150915080156109c7576040517f08c379a00000000000000000000000000000000000000000000000000000000081526004016109be906118b2565b60405180910390fd5b60006109d283610444565b9050600083101580156109e55750603c83105b816040516020016109f6919061191e565b60405160208183030381529060405290610a46576040517f08c379a0000000000000000000000000000000000000000000000000000000008152600401610a3d919061112f565b60405180910390fd5b50829350505050919050565b6000806000610a6c610a6785600660076103d4565b6105a4565b915091508015610ab1576040517f08c379a0000000000000000000000000000000000000000000000000000000008152600401610aa8906119bd565b60405180910390fd5b6000610abc83610444565b905060008310158015610acf5750603c83105b81604051602001610ae09190611a29565b60405160208183030381529060405290610b30576040517f08c379a0000000000000000000000000000000000000000000000000000000008152600401610b27919061112f565b60405180910390fd5b50829350505050919050565b6000806000610b56610b5185600060036103d4565b6105a4565b915091508015610b9b576040517f08c379a0000000000000000000000000000000000000000000000000000000008152600401610b9290611ac8565b60405180910390fd5b8192505050919050565b6000806000610bbf610bba85600560066103d4565b6105a4565b915091508015610c04576040517f08c379a0000000000000000000000000000000000000000000000000000000008152600401610bfb90611b5a565b60405180910390fd5b6000610c0f83610444565b9050600083118015610c225750600c8311155b81604051602001610c339190611bc6565b60405160208183030381529060405290610c83576040517f08c379a0000000000000000000000000000000000000000000000000000000008152600401610c7a919061112f565b60405180910390fd5b50829350505050919050565b6000806000610ca9610ca485600860096103d4565b6105a4565b915091508015610cee576040517f08c379a0000000000000000000000000000000000000000000000000000000008152600401610ce590611c65565b60405180910390fd5b6000610cf983610444565b9050600083118015610d0c5750601f8311155b81604051602001610d1d9190611cd1565b60405160208183030381529060405290610d6d576040517f08c379a0000000000000000000000000000000000000000000000000000000008152600401610d64919061112f565b60405180910390fd5b50829350505050919050565b828054610d8590611180565b90600052602060002090601f016020900481019282610da75760008555610dee565b82601f10610dc057805160ff1916838001178555610dee565b82800160010185558215610dee579182015b82811115610ded578251825591602001919060010190610dd2565b5b509050610dfb9190610dff565b5090565b5b80821115610e18576000816000905550600101610e00565b5090565b6000819050919050565b610e2f81610e1c565b82525050565b600060c082019050610e4a6000830189610e26565b610e576020830188610e26565b610e646040830187610e26565b610e716060830186610e26565b610e7e6080830185610e26565b610e8b60a0830184610e26565b979650505050505050565b6000604082019050610eab6000830185610e26565b610eb86020830184610e26565b9392505050565b6000608082019050610ed46000830187610e26565b610ee16020830186610e26565b610eee6040830185610e26565b610efb6060830184610e26565b95945050505050565b6000604051905090565b600080fd5b600080fd5b600080fd5b600080fd5b6000601f19601f8301169050919050565b7f4e487b7100000000000000000000000000000000000000000000000000000000600052604160045260246000fd5b610f6b82610f22565b810181811067ffffffffffffffff82111715610f8a57610f89610f33565b5b80604052505050565b6000610f9d610f04565b9050610fa98282610f62565b919050565b600067ffffffffffffffff821115610fc957610fc8610f33565b5b610fd282610f22565b9050602081019050919050565b82818337600083830152505050565b6000611001610ffc84610fae565b610f93565b90508281526020810184848401111561101d5761101c610f1d565b5b611028848285610fdf565b509392505050565b600082601f83011261104557611044610f18565b5b8135611055848260208601610fee565b91505092915050565b60006020828403121561107457611073610f0e565b5b600082013567ffffffffffffffff81111561109257611091610f13565b5b61109e84828501611030565b91505092915050565b600081519050919050565b600082825260208201905092915050565b60005b838110156110e15780820151818401526020810190506110c6565b838111156110f0576000848401525b50505050565b6000611101826110a7565b61110b81856110b2565b935061111b8185602086016110c3565b61112481610f22565b840191505092915050565b6000602082019050818103600083015261114981846110f6565b905092915050565b7f4e487b7100000000000000000000000000000000000000000000000000000000600052602260045260246000fd5b6000600282049050600182168061119857607f821691505b6020821081036111ab576111aa611151565b5b50919050565b600081905092915050565b60008190508160005260206000209050919050565b600081546111de81611180565b6111e881866111b1565b94506001821660008114611203576001811461121457611247565b60ff19831686528186019350611247565b61121d856111bc565b60005b8381101561123f57815481890152600182019150602081019050611220565b838801955050505b50505092915050565b7f207c20416363657373206f7574206f6620627573696e65737344617900000000600082015250565b6000611286601c836111b1565b915061129182611250565b601c82019050919050565b60006112a882846111d1565b91506112b382611279565b915081905092915050565b7f4e487b7100000000000000000000000000000000000000000000000000000000600052603260045260246000fd5b60006112f8826110a7565b61130281856111b1565b93506113128185602086016110c3565b80840191505092915050565b60007fff0000000000000000000000000000000000000000000000000000000000000082169050919050565b6000819050919050565b6113656113608261131e565b61134a565b82525050565b600061137782856112ed565b91506113838284611354565b6001820191508190509392505050565b7f4e487b7100000000000000000000000000000000000000000000000000000000600052601160045260246000fd5b60006113cd82610e1c565b91507fffffffffffffffffffffffffffffffffffffffffffffffffffffffffffffffff82036113ff576113fe611393565b5b600182019050919050565b7f4e487b7100000000000000000000000000000000000000000000000000000000600052601260045260246000fd5b600061144482610e1c565b915061144f83610e1c565b92508261145f5761145e61140a565b5b828204905092915050565b600061147582610e1c565b915061148083610e1c565b92508282101561149357611492611393565b5b828203905092915050565b60006114a982610e1c565b91506114b483610e1c565b9250826114c4576114c361140a565b5b828206905092915050565b60006114da82610e1c565b91506114e583610e1c565b9250827fffffffffffffffffffffffffffffffffffffffffffffffffffffffffffffffff0382111561151a57611519611393565b5b828201905092915050565b600060ff82169050919050565b600061153d82611525565b915061154883611525565b92508282101561155b5761155a611393565b5b828203905092915050565b600061157182610e1c565b915061157c83610e1c565b9250817fffffffffffffffffffffffffffffffffffffffffffffffffffffffffffffffff04831182151516156115b5576115b4611393565b5b828202905092915050565b7f2a2a2a205468657265206973206e6f2020646179202000000000000000000000600082015250565b60006115f66016836111b1565b9150611601826115c0565b601682019050919050565b7f737420696e206d6f6e7468200000000000000000000000000000000000000000600082015250565b6000611642600c836111b1565b915061164d8261160c565b600c82019050919050565b7f202a2a2a00000000000000000000000000000000000000000000000000000000600082015250565b600061168e6004836111b1565b915061169982611658565b600482019050919050565b60006116af826115e9565b91506116bb82856112ed565b91506116c682611635565b91506116d282846112ed565b91506116dd82611681565b91508190509392505050565b7f2a2a2a20416e206f766572666c6f77206f63637572726564207768696c65206760008201527f657474696e672074686520737562737472696e6720686f7572202a2a2a000000602082015250565b6000611745603d836110b2565b9150611750826116e9565b604082019050919050565b6000602082019050818103600083015261177481611738565b9050919050565b7f2a2a2a205468652076616c756520000000000000000000000000000000000000600082015250565b60006117b1600e836111b1565b91506117bc8261177b565b600e82019050919050565b7f206973206e6f7420612076616c69646520686f7572202a2a2a00000000000000600082015250565b60006117fd6019836111b1565b9150611808826117c7565b601982019050919050565b600061181e826117a4565b915061182a82846112ed565b9150611835826117f0565b915081905092915050565b7f2a2a2a20416e206f766572666c6f77206f63637572726564207768696c65206760008201527f657474696e672074686520737562737472696e67206d696e757465202a2a2a00602082015250565b600061189c603f836110b2565b91506118a782611840565b604082019050919050565b600060208201905081810360008301526118cb8161188f565b9050919050565b7f206973206e6f7420612076616c696465206d696e757465202a2a2a0000000000600082015250565b6000611908601b836111b1565b9150611913826118d2565b601b82019050919050565b6000611929826117a4565b915061193582846112ed565b9150611940826118fb565b915081905092915050565b7f2a2a2a20416e206f766572666c6f77206f63637572726564207768696c65206760008201527f657474696e672074686520737562737472696e67207365636f6e64202a2a2a00602082015250565b60006119a7603f836110b2565b91506119b28261194b565b604082019050919050565b600060208201905081810360008301526119d68161199a565b9050919050565b7f206973206e6f7420612076616c696465207365636f6e64202a2a2a0000000000600082015250565b6000611a13601b836111b1565b9150611a1e826119dd565b601b82019050919050565b6000611a34826117a4565b9150611a4082846112ed565b9150611a4b82611a06565b915081905092915050565b7f2a2a2a20416e206f766572666c6f77206f63637572726564207768696c65206760008201527f657474696e672074686520737562737472696e672079656172202a2a2a000000602082015250565b6000611ab2603d836110b2565b9150611abd82611a56565b604082019050919050565b60006020820190508181036000830152611ae181611aa5565b9050919050565b7f2a2a2a20416e206f766572666c6f77206f63637572726564207768696c65206760008201527f657474696e672074686520737562737472696e67206d6f6e7468202a2a2a0000602082015250565b6000611b44603e836110b2565b9150611b4f82611ae8565b604082019050919050565b60006020820190508181036000830152611b7381611b37565b9050919050565b7f206973206e6f7420612076616c696465206d6f6e7468202a2a2a000000000000600082015250565b6000611bb0601a836111b1565b9150611bbb82611b7a565b601a82019050919050565b6000611bd1826117a4565b9150611bdd82846112ed565b9150611be882611ba3565b915081905092915050565b7f2a2a2a20416e206f766572666c6f77206f63637572726564207768696c65206760008201527f657474696e672074686520737562737472696e6720646179202a2a2a00000000602082015250565b6000611c4f603c836110b2565b9150611c5a82611bf3565b604082019050919050565b60006020820190508181036000830152611c7e81611c42565b9050919050565b7f206973206e6f7420612076616c69646520646179202a2a2a0000000000000000600082015250565b6000611cbb6018836111b1565b9150611cc682611c85565b601882019050919050565b6000611cdc826117a4565b9150611ce882846112ed565b9150611cf382611cae565b91508190509291505056fea2646970667358221220b5636536d41065a94edacbe1131e8bb5d85a56d7de1959e68be05a28de4364db64736f6c634300080e0033",
  "immutableReferences": {},
  "source": "//SPDX-License-Identifier: MIT\r\npragma solidity >= 0.6.0 < 0.9.0;\r\npragma experimental 'ABIEncoderV2';\r\n//import \"./utilities/SafeMath.sol\";\r\n//import \"./utilities/DateTimeLibrary.sol\";\r\nimport \"./EAI_Domain.sol\";\r\n\r\ncontract DeliveryHiring is EAI_Domain{ \r\n \r\n    Party process;\r\n    Party application;\r\n\r\n    // uint256 beginDate = 1641024000000;\r\n    \r\n    DateTime public  beginDate = setDateTime(\"2022-01-01 08:00:00\"); // converter string para inteiro e depois converter para timestamp\r\n    DateTime public dueDate = setDateTime(\"2022-12-31 18:25:10\");\r\n    \r\n    BusinessDay public businessDay = setBusinessDay(MONDAY, FRIDAY);\r\n    OperationLimit public operationLimit = setOperationLimit(5, MINUTE);\r\n    TimeInterval public businessTime = setTimeInterval(\"08:30:00\", \"18:30:00\"); \r\n\r\n    string fail_description = \"\"; \r\n    string success_description = \"\";\r\n\r\n    constructor (address _processWallet, address _applicationWallet){\r\n        process = Party(\"Integration Process\",_processWallet);\r\n        application = Party(\"Credit Agency\",_applicationWallet);\r\n    }\r\n\r\n    function requestDelivery(string memory _accessDateTime) public  returns(string memory){\r\n        bool isMet = true;\r\n        fail_description=\"no fail\"; \r\n        if(!isBusinessDay(_accessDateTime, businessDay)){\r\n           fail_description = string(abi.encodePacked(fail_description, \" | Access out of businessDay\"));\r\n           isMet = false;\r\n        }\r\n        \r\n      //   if(!isIntoTimeInterval(_accessDateTime, businessTime)){\r\n      //      fail_description = string(abi.encodePacked(fail_description, \" | Access out of businessTime\"));\r\n      //      isMet = false;\r\n      //   } \r\n\r\n      //   if(isOperationLimitExceeded(_accessDateTime, operationLimit)){\r\n      //      fail_description = string(abi.encodePacked(fail_description, \" | Exceeded operationLimit\"));\r\n      //      isMet = false;\r\n      //   }\r\n\r\n    //    if(isMet){\r\n    //        emit success(\"success message\");\r\n    //        return isMet;\r\n    //    } \r\n    //    emit fail(fail_description);\r\n       return fail_description;\r\n    }\r\n\r\n} \r\n ",
  "sourcePath": "C:\\workspace-projects\\workspace-eclipse-modeling\\dsl-smart-contract-eai\\02-models\\ProofOfConcept\\contracts\\DeliveryHiring.sol",
  "compiler": {
    "name": "solc",
    "version": "0.8.14+commit.80d49f37.Emscripten.clang"
  },
  "schemaVersion": "3.4.7",
  "updatedAt": "2022-06-02T18:17:16.019Z",
  "networkType": "ethereum",
  "devdoc": {
    "kind": "dev",
    "methods": {},
    "version": 1
  },
  "userdoc": {
    "kind": "user",
    "methods": {},
    "version": 1
  }
}