{
	"data": {
		"bytecode": {
			"linkReferences": {},
			"object": "60806040523480156200001157600080fd5b506040516200420e3803806200420e833981810160405281019062000037919062000df0565b60016000806101000a81548160ff0219169083151502179055506363b13d80600060016101000a81548163ffffffff021916908363ffffffff160217905550636591ac20600060056101000a81548163ffffffff021916908363ffffffff160217905550620000e96040518060400160405280600e81526020017f576562204f6620536369656e63650000000000000000000000000000000000008152508260006200084f60201b6200104d1760201c565b600160008201518160000190805190602001906200010992919062000b20565b5060208201518160010160006101000a81548173ffffffffffffffffffffffffffffffffffffffff021916908373ffffffffffffffffffffffffffffffffffffffff16021790555060408201518160010160146101000a81548160ff021916908315150217905550905050620001c26040518060400160405280601381526020017f496e746567726174696f6e2050726f63657373000000000000000000000000008152503360016200084f60201b6200104d1760201c565b60036000820151816000019080519060200190620001e292919062000b20565b5060208201518160010160006101000a81548173ffffffffffffffffffffffffffffffffffffffff021916908373ffffffffffffffffffffffffffffffffffffffff16021790555060408201518160010160146101000a81548160ff0219169083151502179055509050506003600560003373ffffffffffffffffffffffffffffffffffffffff1673ffffffffffffffffffffffffffffffffffffffff1681526020019081526020016000206000820181600001908054620002a49062000e51565b620002b192919062000bb1565b506001820160009054906101000a900473ffffffffffffffffffffffffffffffffffffffff168160010160006101000a81548173ffffffffffffffffffffffffffffffffffffffff021916908373ffffffffffffffffffffffffffffffffffffffff1602179055506001820160149054906101000a900460ff168160010160146101000a81548160ff0219169083151502179055509050506001600560008373ffffffffffffffffffffffffffffffffffffffff1673ffffffffffffffffffffffffffffffffffffffff1681526020019081526020016000206000820181600001908054620003a09062000e51565b620003ad92919062000bb1565b506001820160009054906101000a900473ffffffffffffffffffffffffffffffffffffffff168160010160006101000a81548173ffffffffffffffffffffffffffffffffffffffff021916908373ffffffffffffffffffffffffffffffffffffffff1602179055506001820160149054906101000a900460ff168160010160146101000a81548160ff021916908315150217905550905050600662000460600260006200089560201b620010911760201c565b9080600181540180825580915050600190039060005260206000200160009091909190915060008201518160000160006101000a81548163ffffffff021916908363ffffffff16021790555060208201518160000160046101000a81548160ff021916908360ff16021790555060408201518160000160056101000a81548163ffffffff021916908363ffffffff16021790555060608201518160000160096101000a81548163ffffffff021916908363ffffffff160217905550608082015181600001600d6101000a81548163ffffffff021916908363ffffffff16021790555050506007620005c96040518060400160405280601681526020017f636f756e74282f2f626f64792f646f63756d656e7429000000000000000000008152506040518060400160405280600281526020017f3c3d00000000000000000000000000000000000000000000000000000000000081525060646200091a60201b6200110a1760201c565b908060018154018082558091505060019003906000526020600020906003020160009091909190915060008201518160000190805190602001906200061092919062000b20565b5060208201518160010190805190602001906200062f92919062000b20565b506040820151816002015550506008620006c46040518060400160405280601681526020017f636f756e74282f2f626f64792f646f63756d656e7429000000000000000000008152506040518060400160405280600281526020017f3c3d00000000000000000000000000000000000000000000000000000000000081525061c35060056200094860201b620011361760201c565b908060018154018082558091505060019003906000526020600020906007020160009091909190915060008201518160000190805190602001906200070b92919062000b20565b5060208201518160010190805190602001906200072a92919062000b20565b506040820151816002015560608201518160030160006101000a81548160ff021916908360ff16021790555060808201518160030160016101000a81548163ffffffff021916908363ffffffff16021790555060a0820151816004015560c08201518160050160006101000a81548163ffffffff021916908363ffffffff16021790555060e0820151816006015550506009620007d3603c62000a2b60201b6200120a1760201c565b9080600181540180825580915050600190039060005260206000200160009091909190915060008201518160000160006101000a81548163ffffffff021916908363ffffffff16021790555060208201518160000160046101000a81548163ffffffff021916908363ffffffff16021790555050505062000fa3565b6200085962000c49565b60405180606001604052808581526020018473ffffffffffffffffffffffffffffffffffffffff16815260200183151581525090509392505050565b6200089f62000c82565b6000600460ff168360ff1611620008c957620008c18362000a5e60201b60201c565b9050620008ce565b600190505b6040518060a001604052808563ffffffff1681526020018460ff1681526020018263ffffffff1681526020018563ffffffff168152602001600063ffffffff1681525091505092915050565b6200092462000ccc565b60405180606001604052808581526020018481526020018381525090509392505050565b6200095262000ced565b6000600460ff168360ff16116200097c57620009748362000a5e60201b60201c565b905062000981565b600190505b6001855103620009d5576040518060400160405280600281526020017f3c3d0000000000000000000000000000000000000000000000000000000000008152509450600184620009d2919062000ebf565b93505b6040518061010001604052808781526020018681526020018581526020018460ff1681526020018263ffffffff168152602001858152602001600063ffffffff1681526020016000815250915050949350505050565b62000a3562000d41565b6040518060400160405280600063ffffffff1681526020018363ffffffff168152509050919050565b6000600460ff168260ff16111562000aad576040517f08c379a000000000000000000000000000000000000000000000000000000000815260040162000aa49062000f81565b60405180910390fd5b600060ff168260ff160362000ac6576001905062000b1b565b600160ff168260ff160362000adf57603c905062000b1b565b600260ff168260ff160362000af957610e10905062000b1b565b600360ff168260ff160362000b145762015180905062000b1b565b62093a8090505b919050565b82805462000b2e9062000e51565b90600052602060002090601f01602090048101928262000b52576000855562000b9e565b82601f1062000b6d57805160ff191683800117855562000b9e565b8280016001018555821562000b9e579182015b8281111562000b9d57825182559160200191906001019062000b80565b5b50905062000bad919062000d67565b5090565b82805462000bbf9062000e51565b90600052602060002090601f01602090048101928262000be3576000855562000c36565b82601f1062000bf6578054855562000c36565b8280016001018555821562000c3657600052602060002091601f016020900482015b8281111562000c3557825482559160010191906001019062000c18565b5b50905062000c45919062000d67565b5090565b604051806060016040528060608152602001600073ffffffffffffffffffffffffffffffffffffffff1681526020016000151581525090565b6040518060a00160405280600063ffffffff168152602001600060ff168152602001600063ffffffff168152602001600063ffffffff168152602001600063ffffffff1681525090565b60405180606001604052806060815260200160608152602001600081525090565b604051806101000160405280606081526020016060815260200160008152602001600060ff168152602001600063ffffffff16815260200160008152602001600063ffffffff168152602001600081525090565b6040518060400160405280600063ffffffff168152602001600063ffffffff1681525090565b5b8082111562000d8257600081600090555060010162000d68565b5090565b600080fd5b600073ffffffffffffffffffffffffffffffffffffffff82169050919050565b600062000db88262000d8b565b9050919050565b62000dca8162000dab565b811462000dd657600080fd5b50565b60008151905062000dea8162000dbf565b92915050565b60006020828403121562000e095762000e0862000d86565b5b600062000e198482850162000dd9565b91505092915050565b7f4e487b7100000000000000000000000000000000000000000000000000000000600052602260045260246000fd5b6000600282049050600182168062000e6a57607f821691505b60208210810362000e805762000e7f62000e22565b5b50919050565b6000819050919050565b7f4e487b7100000000000000000000000000000000000000000000000000000000600052601160045260246000fd5b600062000ecc8262000e86565b915062000ed98362000e86565b92508282101562000eef5762000eee62000e90565b5b828203905092915050565b600082825260208201905092915050565b7f546865206d6574686f642067657454696d65496e5365636f6e647320646f657360008201527f6e277420776f726b20666f72204d4f4e544820616e6420594541520000000000602082015250565b600062000f69603b8362000efa565b915062000f768262000f0b565b604082019050919050565b6000602082019050818103600083015262000f9c8162000f5a565b9050919050565b61325b8062000fb36000396000f3fe608060405234801561001057600080fd5b506004361061007d5760003560e01c8063b8b4f1a01161005b578063b8b4f1a0146100ee578063dd46f3641461010c578063e67fa5661461013c578063fb6f82431461016c5761007d565b80635e744c6a1461008257806370d8915a146100b257806385931911146100d0575b600080fd5b61009c60048036038101906100979190612307565b61019c565b6040516100a9919061237e565b60405180910390f35b6100ba61038d565b6040516100c791906123a8565b60405180910390f35b6100d86104f4565b6040516100e591906123a8565b60405180910390f35b6100f661065c565b604051610103919061237e565b60405180910390f35b610126600480360381019061012191906123ff565b6107c6565b604051610133919061237e565b60405180910390f35b61015660048036038101906101519190612623565b610a03565b604051610163919061237e565b60405180910390f35b610186600480360381019061018191906126ae565b610db7565b60405161019391906127d1565b60405180910390f35b60003373ffffffffffffffffffffffffffffffffffffffff16600360010160009054906101000a900473ffffffffffffffffffffffffffffffffffffffff1673ffffffffffffffffffffffffffffffffffffffff1614610231576040517f08c379a000000000000000000000000000000000000000000000000000000000815260040161022890612876565b60405180910390fd5b600560006001800160009054906101000a900473ffffffffffffffffffffffffffffffffffffffff1673ffffffffffffffffffffffffffffffffffffffff1673ffffffffffffffffffffffffffffffffffffffff168152602001908152602001600020600080820160006102a59190611ec1565b6001820160006101000a81549073ffffffffffffffffffffffffffffffffffffffff02191690556001820160146101000a81549060ff021916905550506102ee8383600061104d565b6001600082015181600001908051906020019061030c929190611f01565b5060208201518160010160006101000a81548173ffffffffffffffffffffffffffffffffffffffff021916908373ffffffffffffffffffffffffffffffffffffffff16021790555060408201518160010160146101000a81548160ff02191690831515021790555090505061038282600161123b565b506001905092915050565b60008060009054906101000a900460ff166103dd576040517f08c379a00000000000000000000000000000000000000000000000000000000081526004016103d4906128e2565b60405180910390fd5b3373ffffffffffffffffffffffffffffffffffffffff166001800160009054906101000a900473ffffffffffffffffffffffffffffffffffffffff1673ffffffffffffffffffffffffffffffffffffffff16148061048b57503373ffffffffffffffffffffffffffffffffffffffff16600360010160009054906101000a900473ffffffffffffffffffffffffffffffffffffffff1673ffffffffffffffffffffffffffffffffffffffff16145b6104ca576040517f08c379a00000000000000000000000000000000000000000000000000000000081526004016104c190612974565b60405180910390fd5b6001800160009054906101000a900473ffffffffffffffffffffffffffffffffffffffff16905090565b60008060009054906101000a900460ff16610544576040517f08c379a000000000000000000000000000000000000000000000000000000000815260040161053b906128e2565b60405180910390fd5b3373ffffffffffffffffffffffffffffffffffffffff166001800160009054906101000a900473ffffffffffffffffffffffffffffffffffffffff1673ffffffffffffffffffffffffffffffffffffffff1614806105f257503373ffffffffffffffffffffffffffffffffffffffff16600360010160009054906101000a900473ffffffffffffffffffffffffffffffffffffffff1673ffffffffffffffffffffffffffffffffffffffff16145b610631576040517f08c379a000000000000000000000000000000000000000000000000000000000815260040161062890612974565b60405180910390fd5b600360010160009054906101000a900473ffffffffffffffffffffffffffffffffffffffff16905090565b60008060009054906101000a900460ff166106ac576040517f08c379a00000000000000000000000000000000000000000000000000000000081526004016106a3906128e2565b60405180910390fd5b3373ffffffffffffffffffffffffffffffffffffffff166001800160009054906101000a900473ffffffffffffffffffffffffffffffffffffffff1673ffffffffffffffffffffffffffffffffffffffff161461073e576040517f08c379a000000000000000000000000000000000000000000000000000000000815260040161073590612a06565b60405180910390fd5b600015156001800160149054906101000a900460ff16151514610796576040517f08c379a000000000000000000000000000000000000000000000000000000000815260040161078d90612a72565b60405180910390fd5b60018060010160146101000a81548160ff0219169083151502179055506107be33600161123b565b506001905090565b60008060009054906101000a900460ff16610816576040517f08c379a000000000000000000000000000000000000000000000000000000000815260040161080d906128e2565b60405180910390fd5b3373ffffffffffffffffffffffffffffffffffffffff166001800160009054906101000a900473ffffffffffffffffffffffffffffffffffffffff1673ffffffffffffffffffffffffffffffffffffffff16146108a8576040517f08c379a000000000000000000000000000000000000000000000000000000000815260040161089f90612a06565b60405180910390fd5b6109308260096000815481106108c1576108c0612a92565b5b906000526020600020016040518060400160405290816000820160009054906101000a900463ffffffff1663ffffffff1663ffffffff1681526020016000820160049054906101000a900463ffffffff1663ffffffff1663ffffffff168152505061133e90919063ffffffff16565b6109c4577f95a1f3a1dafdd4c1af344e3d7c69a72cbce8a3f15fe1cf95a7f5bd23df2e71a160405161096190612b0d565b60405180910390a1610990600660008154811061098157610980612a92565b5b906000526020600020016113cd565b6109bb60086000815481106109a8576109a7612a92565b5b9060005260206000209060070201611412565b600190506109fe565b7f66091b7dc2b097c8f60d5cd6aa99633b097f08d2eb1056f3e15361b22e0ea2ba6040516109f190612b79565b60405180910390a1600090505b919050565b60008060009054906101000a900460ff16610a53576040517f08c379a0000000000000000000000000000000000000000000000000000000008152600401610a4a906128e2565b60405180910390fd5b3373ffffffffffffffffffffffffffffffffffffffff16600360010160009054906101000a900473ffffffffffffffffffffffffffffffffffffffff1673ffffffffffffffffffffffffffffffffffffffff1614610ae6576040517f08c379a0000000000000000000000000000000000000000000000000000000008152600401610add90612876565b60405180910390fd5b610b17846006600081548110610aff57610afe612a92565b5b906000526020600020016114d090919063ffffffff16565b8015610ca85750610ca783600081518110610b3557610b34612a92565b5b60200260200101516007600081548110610b5257610b51612a92565b5b9060005260206000209060030201604051806060016040529081600082018054610b7b90612bc8565b80601f0160208091040260200160405190810160405280929190818152602001828054610ba790612bc8565b8015610bf45780601f10610bc957610100808354040283529160200191610bf4565b820191906000526020600020905b815481529060010190602001808311610bd757829003601f168201915b50505050508152602001600182018054610c0d90612bc8565b80601f0160208091040260200160405190810160405280929190818152602001828054610c3990612bc8565b8015610c865780601f10610c5b57610100808354040283529160200191610c86565b820191906000526020600020905b815481529060010190602001808311610c6957829003601f168201915b5050505050815260200160028201548152505061154990919063ffffffff16565b5b8015610d025750610d018483600081518110610cc757610cc6612a92565b5b60200260200101516008600081548110610ce457610ce3612a92565b5b906000526020600020906007020161173b9092919063ffffffff16565b5b15610d7657610d38846009600081548110610d2057610d1f612a92565b5b9060005260206000200161183d90919063ffffffff16565b7f95a1f3a1dafdd4c1af344e3d7c69a72cbce8a3f15fe1cf95a7f5bd23df2e71a1604051610d6590612b0d565b60405180910390a160019050610db0565b7f66091b7dc2b097c8f60d5cd6aa99633b097f08d2eb1056f3e15361b22e0ea2ba604051610da390612c45565b60405180910390a1600090505b9392505050565b610dbf611f87565b60008054906101000a900460ff16610e0c576040517f08c379a0000000000000000000000000000000000000000000000000000000008152600401610e03906128e2565b60405180910390fd5b3373ffffffffffffffffffffffffffffffffffffffff166001800160009054906101000a900473ffffffffffffffffffffffffffffffffffffffff1673ffffffffffffffffffffffffffffffffffffffff161480610eba57503373ffffffffffffffffffffffffffffffffffffffff16600360010160009054906101000a900473ffffffffffffffffffffffffffffffffffffffff1673ffffffffffffffffffffffffffffffffffffffff16145b610ef9576040517f08c379a0000000000000000000000000000000000000000000000000000000008152600401610ef090612974565b60405180910390fd5b600560008373ffffffffffffffffffffffffffffffffffffffff1673ffffffffffffffffffffffffffffffffffffffff168152602001908152602001600020604051806060016040529081600082018054610f5390612bc8565b80601f0160208091040260200160405190810160405280929190818152602001828054610f7f90612bc8565b8015610fcc5780601f10610fa157610100808354040283529160200191610fcc565b820191906000526020600020905b815481529060010190602001808311610faf57829003601f168201915b505050505081526020016001820160009054906101000a900473ffffffffffffffffffffffffffffffffffffffff1673ffffffffffffffffffffffffffffffffffffffff1673ffffffffffffffffffffffffffffffffffffffff1681526020016001820160149054906101000a900460ff1615151515815250509050919050565b611055611f87565b60405180606001604052808581526020018473ffffffffffffffffffffffffffffffffffffffff16815260200183151581525090509392505050565b611099611fc0565b6000600460ff168360ff16116110b9576110b2836118a8565b90506110be565b600190505b6040518060a001604052808563ffffffff1681526020018460ff1681526020018263ffffffff1681526020018563ffffffff168152602001600063ffffffff1681525091505092915050565b61111261200a565b60405180606001604052808581526020018481526020018381525090509392505050565b61113e61202b565b6000600460ff168360ff161161115e57611157836118a8565b9050611163565b600190505b60018551036111b4576040518060400160405280600281526020017f3c3d00000000000000000000000000000000000000000000000000000000000081525094506001846111b19190612c94565b93505b6040518061010001604052808781526020018681526020018581526020018460ff1681526020018263ffffffff168152602001858152602001600063ffffffff1681526020016000815250915050949350505050565b61121261207f565b6040518060400160405280600063ffffffff1681526020018363ffffffff168152509050919050565b600081600560008573ffffffffffffffffffffffffffffffffffffffff1673ffffffffffffffffffffffffffffffffffffffff168152602001908152602001600020600082018160000190805461129190612bc8565b61129c9291906120a5565b506001820160009054906101000a900473ffffffffffffffffffffffffffffffffffffffff168160010160006101000a81548173ffffffffffffffffffffffffffffffffffffffff021916908373ffffffffffffffffffffffffffffffffffffffff1602179055506001820160149054906101000a900460ff168160010160146101000a81548160ff0219169083151502179055509050506001905092915050565b60008160006113528263ffffffff1661195f565b9050600a8151111561136357600080fd5b6000856000015163ffffffff16116113b0576040517f08c379a00000000000000000000000000000000000000000000000000000000081526004016113a790612d3a565b60405180910390fd5b846000015163ffffffff168463ffffffff16119250505092915050565b60018160000160098282829054906101000a900463ffffffff166113f19190612d5a565b92506101000a81548163ffffffff021916908363ffffffff16021790555050565b6000816006015411611459576040517f08c379a000000000000000000000000000000000000000000000000000000000815260040161145090612dda565b60405180910390fd5b8060040154816006015411156114a4576040517f08c379a000000000000000000000000000000000000000000000000000000000815260040161149b90612e6c565b60405180910390fd5b80600601548160040160008282546114bc9190612c94565b925050819055506000816006018190555050565b60006115028360000160049054906101000a900460ff1684600001600d9054906101000a900463ffffffff1684611abf565b15611512576115118383611b84565b5b60008360000160099054906101000a900463ffffffff1663ffffffff16111561153e5760019050611543565b600090505b92915050565b60008083602001519050602160f81b8160008151811061156c5761156b612a92565b5b602001015160f81c60f81b7effffffffffffffffffffffffffffffffffffffffffffffffffffffffffffff1916036115ae578360400151831415915050611735565b603d60f81b816000815181106115c7576115c6612a92565b5b602001015160f81c60f81b7effffffffffffffffffffffffffffffffffffffffffffffffffffffffffffff1916036116085783604001518314915050611735565b603c60f81b8160008151811061162157611620612a92565b5b602001015160f81c60f81b7effffffffffffffffffffffffffffffffffffffffffffffffffffffffffffff19160361167b57600281510361166c578360400151831315915050611735565b83604001518312915050611735565b603e60f81b8160008151811061169457611693612a92565b5b602001015160f81c60f81b7effffffffffffffffffffffffffffffffffffffffffffffffffffffffffffff1916036116ee5760028151036116df578360400151831215915050611735565b83604001518313915050611735565b600061172f576040517f08c379a000000000000000000000000000000000000000000000000000000000815260040161172690612ed8565b60405180910390fd5b60009150505b92915050565b600080821161177f576040517f08c379a000000000000000000000000000000000000000000000000000000000815260040161177690612f6a565b60405180910390fd5b6117af8460030160009054906101000a900460ff168560050160009054906101000a900463ffffffff1685611abf565b1561181457836002015484600401819055506117f18460030160019054906101000a900463ffffffff168560030160009054906101000a900460ff1685611c11565b8460050160006101000a81548163ffffffff021916908363ffffffff1602179055505b836004015482116118315781846006018190555060019050611836565b600090505b9392505050565b80600061184f8263ffffffff1661195f565b9050600a8151111561186057600080fd5b8360000160049054906101000a900463ffffffff16836118809190612f8a565b8460000160006101000a81548163ffffffff021916908363ffffffff16021790555050505050565b6000600460ff168260ff1611156118f4576040517f08c379a00000000000000000000000000000000000000000000000000000000081526004016118eb90613036565b60405180910390fd5b600060ff168260ff160361190b576001905061195a565b600160ff168260ff160361192257603c905061195a565b600260ff168260ff160361193a57610e10905061195a565b600360ff168260ff16036119535762015180905061195a565b62093a8090505b919050565b6060600082036119a6576040518060400160405280600181526020017f30000000000000000000000000000000000000000000000000000000000000008152509050611aba565b600082905060005b600082146119d85780806119c190613056565b915050600a826119d191906130cd565b91506119ae565b60008167ffffffffffffffff8111156119f4576119f361217e565b5b6040519080825280601f01601f191660200182016040528015611a265781602001600182028036833780820191505090505b5090505b60008514611ab357600182611a3f9190612c94565b9150600a85611a4e91906130fe565b6030611a5a919061312f565b60f81b818381518110611a7057611a6f612a92565b5b60200101907effffffffffffffffffffffffffffffffffffffffffffffffffffffffffffff1916908160001a905350600a85611aac91906130cd565b9450611a2a565b8093505050505b919050565b600080849050600460ff168160ff1611611aeb578363ffffffff168363ffffffff161015915050611b7d565b600560ff168160ff1603611b53576000611b0a8463ffffffff16611ca4565b50915050600d8563ffffffff16148015611b2a575060018163ffffffff16145b15611b3a57600192505050611b7d565b8463ffffffff168163ffffffff16101592505050611b7d565b6000611b648463ffffffff16611ca4565b505090508463ffffffff168163ffffffff161015925050505b9392505050565b8160000160009054906101000a900463ffffffff168260000160096101000a81548163ffffffff021916908363ffffffff160217905550611beb8260000160059054906101000a900463ffffffff168360000160049054906101000a900460ff1683611c11565b82600001600d6101000a81548163ffffffff021916908363ffffffff1602179055505050565b6000600460ff168360ff1611611c3357611c2c838386611e57565b9050611c9d565b600560ff168360ff1603611c71576000611c528363ffffffff16611ca4565b5063ffffffff16915050600181611c69919061312f565b915050611c9d565b6000611c828363ffffffff16611ca4565b505063ffffffff169050600181611c99919061312f565b9150505b9392505050565b6000806000806201518063ffffffff1685611cbf91906130cd565b9050600062253d8c62010bd983611cd69190612f8a565b611ce09190612f8a565b9050600062023ab1826004611cf59190613185565b611cff91906131c3565b9050600460038262023ab1611d149190613185565b611d1e9190612f8a565b611d2891906131c3565b82611d339190612d5a565b9150600062164b09600184611d489190612f8a565b610fa0611d559190613185565b611d5f91906131c3565b9050601f6004826105b5611d739190613185565b611d7d91906131c3565b84611d889190612d5a565b611d929190612f8a565b9250600061098f846050611da69190613185565b611db091906131c3565b9050600060508261098f611dc49190613185565b611dce91906131c3565b85611dd99190612d5a565b9050600b82611de891906131c3565b945084600c611df79190613185565b600283611e049190612f8a565b611e0e9190612d5a565b91508483603186611e1f9190612d5a565b6064611e2b9190613185565b611e359190612f8a565b611e3f9190612f8a565b92508298508197508096505050505050509193909250565b6000808284611e6691906131f4565b905060008184611e769190612d5a565b9050600460ff168660ff1603611ea9576203f4808186611e969190612f8a565b611ea09190612f8a565b92505050611eba565b8085611eb59190612f8a565b925050505b9392505050565b508054611ecd90612bc8565b6000825580601f10611edf5750611efe565b601f016020900490600052602060002090810190611efd9190612132565b5b50565b828054611f0d90612bc8565b90600052602060002090601f016020900481019282611f2f5760008555611f76565b82601f10611f4857805160ff1916838001178555611f76565b82800160010185558215611f76579182015b82811115611f75578251825591602001919060010190611f5a565b5b509050611f839190612132565b5090565b604051806060016040528060608152602001600073ffffffffffffffffffffffffffffffffffffffff1681526020016000151581525090565b6040518060a00160405280600063ffffffff168152602001600060ff168152602001600063ffffffff168152602001600063ffffffff168152602001600063ffffffff1681525090565b60405180606001604052806060815260200160608152602001600081525090565b604051806101000160405280606081526020016060815260200160008152602001600060ff168152602001600063ffffffff16815260200160008152602001600063ffffffff168152602001600081525090565b6040518060400160405280600063ffffffff168152602001600063ffffffff1681525090565b8280546120b190612bc8565b90600052602060002090601f0160209004810192826120d35760008555612121565b82601f106120e45780548555612121565b8280016001018555821561212157600052602060002091601f016020900482015b82811115612120578254825591600101919060010190612105565b5b50905061212e9190612132565b5090565b5b8082111561214b576000816000905550600101612133565b5090565b6000604051905090565b600080fd5b600080fd5b600080fd5b600080fd5b6000601f19601f8301169050919050565b7f4e487b7100000000000000000000000000000000000000000000000000000000600052604160045260246000fd5b6121b68261216d565b810181811067ffffffffffffffff821117156121d5576121d461217e565b5b80604052505050565b60006121e861214f565b90506121f482826121ad565b919050565b600067ffffffffffffffff8211156122145761221361217e565b5b61221d8261216d565b9050602081019050919050565b82818337600083830152505050565b600061224c612247846121f9565b6121de565b90508281526020810184848401111561226857612267612168565b5b61227384828561222a565b509392505050565b600082601f8301126122905761228f612163565b5b81356122a0848260208601612239565b91505092915050565b600073ffffffffffffffffffffffffffffffffffffffff82169050919050565b60006122d4826122a9565b9050919050565b6122e4816122c9565b81146122ef57600080fd5b50565b600081359050612301816122db565b92915050565b6000806040838503121561231e5761231d612159565b5b600083013567ffffffffffffffff81111561233c5761233b61215e565b5b6123488582860161227b565b9250506020612359858286016122f2565b9150509250929050565b60008115159050919050565b61237881612363565b82525050565b6000602082019050612393600083018461236f565b92915050565b6123a2816122c9565b82525050565b60006020820190506123bd6000830184612399565b92915050565b600063ffffffff82169050919050565b6123dc816123c3565b81146123e757600080fd5b50565b6000813590506123f9816123d3565b92915050565b60006020828403121561241557612414612159565b5b6000612423848285016123ea565b91505092915050565b600067ffffffffffffffff8211156124475761244661217e565b5b602082029050602081019050919050565b600080fd5b6000819050919050565b6124708161245d565b811461247b57600080fd5b50565b60008135905061248d81612467565b92915050565b60006124a66124a18461242c565b6121de565b905080838252602082019050602084028301858111156124c9576124c8612458565b5b835b818110156124f257806124de888261247e565b8452602084019350506020810190506124cb565b5050509392505050565b600082601f83011261251157612510612163565b5b8135612521848260208601612493565b91505092915050565b600067ffffffffffffffff8211156125455761254461217e565b5b602082029050602081019050919050565b6000819050919050565b61256981612556565b811461257457600080fd5b50565b60008135905061258681612560565b92915050565b600061259f61259a8461252a565b6121de565b905080838252602082019050602084028301858111156125c2576125c1612458565b5b835b818110156125eb57806125d78882612577565b8452602084019350506020810190506125c4565b5050509392505050565b600082601f83011261260a57612609612163565b5b813561261a84826020860161258c565b91505092915050565b60008060006060848603121561263c5761263b612159565b5b600061264a868287016123ea565b935050602084013567ffffffffffffffff81111561266b5761266a61215e565b5b612677868287016124fc565b925050604084013567ffffffffffffffff8111156126985761269761215e565b5b6126a4868287016125f5565b9150509250925092565b6000602082840312156126c4576126c3612159565b5b60006126d2848285016122f2565b91505092915050565b600081519050919050565b600082825260208201905092915050565b60005b838110156127155780820151818401526020810190506126fa565b83811115612724576000848401525b50505050565b6000612735826126db565b61273f81856126e6565b935061274f8185602086016126f7565b6127588161216d565b840191505092915050565b61276c816122c9565b82525050565b61277b81612363565b82525050565b6000606083016000830151848203600086015261279e828261272a565b91505060208301516127b36020860182612763565b5060408301516127c66040860182612772565b508091505092915050565b600060208201905081810360008301526127eb8184612781565b905092915050565b600082825260208201905092915050565b7f4f6e6c79207468652070726f636573732063616e20657865637574652074686960008201527f73206f7065726174696f6e000000000000000000000000000000000000000000602082015250565b6000612860602b836127f3565b915061286b82612804565b604082019050919050565b6000602082019050818103600083015261288f81612853565b9050919050565b7f5468697320636f6e747261637420697320646561637469766174656400000000600082015250565b60006128cc601c836127f3565b91506128d782612896565b602082019050919050565b600060208201905081810360008301526128fb816128bf565b9050919050565b7f4f6e6c79207468652070726f63657373206f7220746865206170706c6963617460008201527f696f6e2063616e20657865637574652074686973206f7065726174696f6e0000602082015250565b600061295e603e836127f3565b915061296982612902565b604082019050919050565b6000602082019050818103600083015261298d81612951565b9050919050565b7f4f6e6c7920746865206170706c69636174696f6e2063616e206578656375746560008201527f2074686973206f7065726174696f6e0000000000000000000000000000000000602082015250565b60006129f0602f836127f3565b91506129fb82612994565b604082019050919050565b60006020820190508181036000830152612a1f816129e3565b9050919050565b7f54686520636f6e747261637420697320616c7265616479207369676e65640000600082015250565b6000612a5c601e836127f3565b9150612a6782612a26565b602082019050919050565b60006020820190508181036000830152612a8b81612a4f565b9050919050565b7f4e487b7100000000000000000000000000000000000000000000000000000000600052603260045260246000fd5b7f5375636365737366756c20657865637574696f6e210000000000000000000000600082015250565b6000612af76015836127f3565b9150612b0282612ac1565b602082019050919050565b60006020820190508181036000830152612b2681612aea565b9050919050565b7f436f6e646974696f6e206e6f74206d6565740000000000000000000000000000600082015250565b6000612b636012836127f3565b9150612b6e82612b2d565b602082019050919050565b60006020820190508181036000830152612b9281612b56565b9050919050565b7f4e487b7100000000000000000000000000000000000000000000000000000000600052602260045260246000fd5b60006002820490506001821680612be057607f821691505b602082108103612bf357612bf2612b99565b5b50919050565b7f45786365646564206e756d626572206f6620646f6375656d6e74730000000000600082015250565b6000612c2f601b836127f3565b9150612c3a82612bf9565b602082019050919050565b60006020820190508181036000830152612c5e81612c22565b9050919050565b7f4e487b7100000000000000000000000000000000000000000000000000000000600052601160045260246000fd5b6000612c9f82612556565b9150612caa83612556565b925082821015612cbd57612cbc612c65565b5b828203905092915050565b7f5468657265206973206e6f20656e6454696d652073657420696e2074696d656f60008201527f7574000000000000000000000000000000000000000000000000000000000000602082015250565b6000612d246022836127f3565b9150612d2f82612cc8565b604082019050919050565b60006020820190508181036000830152612d5381612d17565b9050919050565b6000612d65826123c3565b9150612d70836123c3565b925082821015612d8357612d82612c65565b5b828203905092915050565b7f546865726520696e206e6f20636f6e74656e7420746f2064656372656173652e600082015250565b6000612dc46020836127f3565b9150612dcf82612d8e565b602082019050919050565b60006020820190508181036000830152612df381612db7565b9050919050565b7f546865206d65737361676520636f6e74656e74206e756d62657220697320677260008201527f6561746572207468616e207468652072656d61696e696e6720616d6f756e7400602082015250565b6000612e56603f836127f3565b9150612e6182612dfa565b604082019050919050565b60006020820190508181036000830152612e8581612e49565b9050919050565b7f436f6d70617269736f6e2073796d626f6c206973206e6f742076616c69640000600082015250565b6000612ec2601e836127f3565b9150612ecd82612e8c565b602082019050919050565b60006020820190508181036000830152612ef181612eb5565b9050919050565b7f54686520726573756c74206f66207468652078706174682073686f756c64206260008201527f65206d6f7265207468616e203000000000000000000000000000000000000000602082015250565b6000612f54602d836127f3565b9150612f5f82612ef8565b604082019050919050565b60006020820190508181036000830152612f8381612f47565b9050919050565b6000612f95826123c3565b9150612fa0836123c3565b92508263ffffffff03821115612fb957612fb8612c65565b5b828201905092915050565b7f546865206d6574686f642067657454696d65496e5365636f6e647320646f657360008201527f6e277420776f726b20666f72204d4f4e544820616e6420594541520000000000602082015250565b6000613020603b836127f3565b915061302b82612fc4565b604082019050919050565b6000602082019050818103600083015261304f81613013565b9050919050565b600061306182612556565b91507fffffffffffffffffffffffffffffffffffffffffffffffffffffffffffffffff820361309357613092612c65565b5b600182019050919050565b7f4e487b7100000000000000000000000000000000000000000000000000000000600052601260045260246000fd5b60006130d882612556565b91506130e383612556565b9250826130f3576130f261309e565b5b828204905092915050565b600061310982612556565b915061311483612556565b9250826131245761312361309e565b5b828206905092915050565b600061313a82612556565b915061314583612556565b9250827fffffffffffffffffffffffffffffffffffffffffffffffffffffffffffffffff0382111561317a57613179612c65565b5b828201905092915050565b6000613190826123c3565b915061319b836123c3565b92508163ffffffff04831182151516156131b8576131b7612c65565b5b828202905092915050565b60006131ce826123c3565b91506131d9836123c3565b9250826131e9576131e861309e565b5b828204905092915050565b60006131ff826123c3565b915061320a836123c3565b92508261321a5761321961309e565b5b82820690509291505056fea2646970667358221220b0a9789748588a97193ac936c7bf56b4bde4bafeb70f3e14cb0370d5808ae88a64736f6c634300080d0033",
			"opcodes": "PUSH1 0x80 PUSH1 0x40 MSTORE CALLVALUE DUP1 ISZERO PUSH3 0x11 JUMPI PUSH1 0x0 DUP1 REVERT JUMPDEST POP PUSH1 0x40 MLOAD PUSH3 0x420E CODESIZE SUB DUP1 PUSH3 0x420E DUP4 CODECOPY DUP2 DUP2 ADD PUSH1 0x40 MSTORE DUP2 ADD SWAP1 PUSH3 0x37 SWAP2 SWAP1 PUSH3 0xDF0 JUMP JUMPDEST PUSH1 0x1 PUSH1 0x0 DUP1 PUSH2 0x100 EXP DUP2 SLOAD DUP2 PUSH1 0xFF MUL NOT AND SWAP1 DUP4 ISZERO ISZERO MUL OR SWAP1 SSTORE POP PUSH4 0x63B13D80 PUSH1 0x0 PUSH1 0x1 PUSH2 0x100 EXP DUP2 SLOAD DUP2 PUSH4 0xFFFFFFFF MUL NOT AND SWAP1 DUP4 PUSH4 0xFFFFFFFF AND MUL OR SWAP1 SSTORE POP PUSH4 0x6591AC20 PUSH1 0x0 PUSH1 0x5 PUSH2 0x100 EXP DUP2 SLOAD DUP2 PUSH4 0xFFFFFFFF MUL NOT AND SWAP1 DUP4 PUSH4 0xFFFFFFFF AND MUL OR SWAP1 SSTORE POP PUSH3 0xE9 PUSH1 0x40 MLOAD DUP1 PUSH1 0x40 ADD PUSH1 0x40 MSTORE DUP1 PUSH1 0xE DUP2 MSTORE PUSH1 0x20 ADD PUSH32 0x576562204F6620536369656E6365000000000000000000000000000000000000 DUP2 MSTORE POP DUP3 PUSH1 0x0 PUSH3 0x84F PUSH1 0x20 SHL PUSH3 0x104D OR PUSH1 0x20 SHR JUMP JUMPDEST PUSH1 0x1 PUSH1 0x0 DUP3 ADD MLOAD DUP2 PUSH1 0x0 ADD SWAP1 DUP1 MLOAD SWAP1 PUSH1 0x20 ADD SWAP1 PUSH3 0x109 SWAP3 SWAP2 SWAP1 PUSH3 0xB20 JUMP JUMPDEST POP PUSH1 0x20 DUP3 ADD MLOAD DUP2 PUSH1 0x1 ADD PUSH1 0x0 PUSH2 0x100 EXP DUP2 SLOAD DUP2 PUSH20 0xFFFFFFFFFFFFFFFFFFFFFFFFFFFFFFFFFFFFFFFF MUL NOT AND SWAP1 DUP4 PUSH20 0xFFFFFFFFFFFFFFFFFFFFFFFFFFFFFFFFFFFFFFFF AND MUL OR SWAP1 SSTORE POP PUSH1 0x40 DUP3 ADD MLOAD DUP2 PUSH1 0x1 ADD PUSH1 0x14 PUSH2 0x100 EXP DUP2 SLOAD DUP2 PUSH1 0xFF MUL NOT AND SWAP1 DUP4 ISZERO ISZERO MUL OR SWAP1 SSTORE POP SWAP1 POP POP PUSH3 0x1C2 PUSH1 0x40 MLOAD DUP1 PUSH1 0x40 ADD PUSH1 0x40 MSTORE DUP1 PUSH1 0x13 DUP2 MSTORE PUSH1 0x20 ADD PUSH32 0x496E746567726174696F6E2050726F6365737300000000000000000000000000 DUP2 MSTORE POP CALLER PUSH1 0x1 PUSH3 0x84F PUSH1 0x20 SHL PUSH3 0x104D OR PUSH1 0x20 SHR JUMP JUMPDEST PUSH1 0x3 PUSH1 0x0 DUP3 ADD MLOAD DUP2 PUSH1 0x0 ADD SWAP1 DUP1 MLOAD SWAP1 PUSH1 0x20 ADD SWAP1 PUSH3 0x1E2 SWAP3 SWAP2 SWAP1 PUSH3 0xB20 JUMP JUMPDEST POP PUSH1 0x20 DUP3 ADD MLOAD DUP2 PUSH1 0x1 ADD PUSH1 0x0 PUSH2 0x100 EXP DUP2 SLOAD DUP2 PUSH20 0xFFFFFFFFFFFFFFFFFFFFFFFFFFFFFFFFFFFFFFFF MUL NOT AND SWAP1 DUP4 PUSH20 0xFFFFFFFFFFFFFFFFFFFFFFFFFFFFFFFFFFFFFFFF AND MUL OR SWAP1 SSTORE POP PUSH1 0x40 DUP3 ADD MLOAD DUP2 PUSH1 0x1 ADD PUSH1 0x14 PUSH2 0x100 EXP DUP2 SLOAD DUP2 PUSH1 0xFF MUL NOT AND SWAP1 DUP4 ISZERO ISZERO MUL OR SWAP1 SSTORE POP SWAP1 POP POP PUSH1 0x3 PUSH1 0x5 PUSH1 0x0 CALLER PUSH20 0xFFFFFFFFFFFFFFFFFFFFFFFFFFFFFFFFFFFFFFFF AND PUSH20 0xFFFFFFFFFFFFFFFFFFFFFFFFFFFFFFFFFFFFFFFF AND DUP2 MSTORE PUSH1 0x20 ADD SWAP1 DUP2 MSTORE PUSH1 0x20 ADD PUSH1 0x0 KECCAK256 PUSH1 0x0 DUP3 ADD DUP2 PUSH1 0x0 ADD SWAP1 DUP1 SLOAD PUSH3 0x2A4 SWAP1 PUSH3 0xE51 JUMP JUMPDEST PUSH3 0x2B1 SWAP3 SWAP2 SWAP1 PUSH3 0xBB1 JUMP JUMPDEST POP PUSH1 0x1 DUP3 ADD PUSH1 0x0 SWAP1 SLOAD SWAP1 PUSH2 0x100 EXP SWAP1 DIV PUSH20 0xFFFFFFFFFFFFFFFFFFFFFFFFFFFFFFFFFFFFFFFF AND DUP2 PUSH1 0x1 ADD PUSH1 0x0 PUSH2 0x100 EXP DUP2 SLOAD DUP2 PUSH20 0xFFFFFFFFFFFFFFFFFFFFFFFFFFFFFFFFFFFFFFFF MUL NOT AND SWAP1 DUP4 PUSH20 0xFFFFFFFFFFFFFFFFFFFFFFFFFFFFFFFFFFFFFFFF AND MUL OR SWAP1 SSTORE POP PUSH1 0x1 DUP3 ADD PUSH1 0x14 SWAP1 SLOAD SWAP1 PUSH2 0x100 EXP SWAP1 DIV PUSH1 0xFF AND DUP2 PUSH1 0x1 ADD PUSH1 0x14 PUSH2 0x100 EXP DUP2 SLOAD DUP2 PUSH1 0xFF MUL NOT AND SWAP1 DUP4 ISZERO ISZERO MUL OR SWAP1 SSTORE POP SWAP1 POP POP PUSH1 0x1 PUSH1 0x5 PUSH1 0x0 DUP4 PUSH20 0xFFFFFFFFFFFFFFFFFFFFFFFFFFFFFFFFFFFFFFFF AND PUSH20 0xFFFFFFFFFFFFFFFFFFFFFFFFFFFFFFFFFFFFFFFF AND DUP2 MSTORE PUSH1 0x20 ADD SWAP1 DUP2 MSTORE PUSH1 0x20 ADD PUSH1 0x0 KECCAK256 PUSH1 0x0 DUP3 ADD DUP2 PUSH1 0x0 ADD SWAP1 DUP1 SLOAD PUSH3 0x3A0 SWAP1 PUSH3 0xE51 JUMP JUMPDEST PUSH3 0x3AD SWAP3 SWAP2 SWAP1 PUSH3 0xBB1 JUMP JUMPDEST POP PUSH1 0x1 DUP3 ADD PUSH1 0x0 SWAP1 SLOAD SWAP1 PUSH2 0x100 EXP SWAP1 DIV PUSH20 0xFFFFFFFFFFFFFFFFFFFFFFFFFFFFFFFFFFFFFFFF AND DUP2 PUSH1 0x1 ADD PUSH1 0x0 PUSH2 0x100 EXP DUP2 SLOAD DUP2 PUSH20 0xFFFFFFFFFFFFFFFFFFFFFFFFFFFFFFFFFFFFFFFF MUL NOT AND SWAP1 DUP4 PUSH20 0xFFFFFFFFFFFFFFFFFFFFFFFFFFFFFFFFFFFFFFFF AND MUL OR SWAP1 SSTORE POP PUSH1 0x1 DUP3 ADD PUSH1 0x14 SWAP1 SLOAD SWAP1 PUSH2 0x100 EXP SWAP1 DIV PUSH1 0xFF AND DUP2 PUSH1 0x1 ADD PUSH1 0x14 PUSH2 0x100 EXP DUP2 SLOAD DUP2 PUSH1 0xFF MUL NOT AND SWAP1 DUP4 ISZERO ISZERO MUL OR SWAP1 SSTORE POP SWAP1 POP POP PUSH1 0x6 PUSH3 0x460 PUSH1 0x2 PUSH1 0x0 PUSH3 0x895 PUSH1 0x20 SHL PUSH3 0x1091 OR PUSH1 0x20 SHR JUMP JUMPDEST SWAP1 DUP1 PUSH1 0x1 DUP2 SLOAD ADD DUP1 DUP3 SSTORE DUP1 SWAP2 POP POP PUSH1 0x1 SWAP1 SUB SWAP1 PUSH1 0x0 MSTORE PUSH1 0x20 PUSH1 0x0 KECCAK256 ADD PUSH1 0x0 SWAP1 SWAP2 SWAP1 SWAP2 SWAP1 SWAP2 POP PUSH1 0x0 DUP3 ADD MLOAD DUP2 PUSH1 0x0 ADD PUSH1 0x0 PUSH2 0x100 EXP DUP2 SLOAD DUP2 PUSH4 0xFFFFFFFF MUL NOT AND SWAP1 DUP4 PUSH4 0xFFFFFFFF AND MUL OR SWAP1 SSTORE POP PUSH1 0x20 DUP3 ADD MLOAD DUP2 PUSH1 0x0 ADD PUSH1 0x4 PUSH2 0x100 EXP DUP2 SLOAD DUP2 PUSH1 0xFF MUL NOT AND SWAP1 DUP4 PUSH1 0xFF AND MUL OR SWAP1 SSTORE POP PUSH1 0x40 DUP3 ADD MLOAD DUP2 PUSH1 0x0 ADD PUSH1 0x5 PUSH2 0x100 EXP DUP2 SLOAD DUP2 PUSH4 0xFFFFFFFF MUL NOT AND SWAP1 DUP4 PUSH4 0xFFFFFFFF AND MUL OR SWAP1 SSTORE POP PUSH1 0x60 DUP3 ADD MLOAD DUP2 PUSH1 0x0 ADD PUSH1 0x9 PUSH2 0x100 EXP DUP2 SLOAD DUP2 PUSH4 0xFFFFFFFF MUL NOT AND SWAP1 DUP4 PUSH4 0xFFFFFFFF AND MUL OR SWAP1 SSTORE POP PUSH1 0x80 DUP3 ADD MLOAD DUP2 PUSH1 0x0 ADD PUSH1 0xD PUSH2 0x100 EXP DUP2 SLOAD DUP2 PUSH4 0xFFFFFFFF MUL NOT AND SWAP1 DUP4 PUSH4 0xFFFFFFFF AND MUL OR SWAP1 SSTORE POP POP POP PUSH1 0x7 PUSH3 0x5C9 PUSH1 0x40 MLOAD DUP1 PUSH1 0x40 ADD PUSH1 0x40 MSTORE DUP1 PUSH1 0x16 DUP2 MSTORE PUSH1 0x20 ADD PUSH32 0x636F756E74282F2F626F64792F646F63756D656E742900000000000000000000 DUP2 MSTORE POP PUSH1 0x40 MLOAD DUP1 PUSH1 0x40 ADD PUSH1 0x40 MSTORE DUP1 PUSH1 0x2 DUP2 MSTORE PUSH1 0x20 ADD PUSH32 0x3C3D000000000000000000000000000000000000000000000000000000000000 DUP2 MSTORE POP PUSH1 0x64 PUSH3 0x91A PUSH1 0x20 SHL PUSH3 0x110A OR PUSH1 0x20 SHR JUMP JUMPDEST SWAP1 DUP1 PUSH1 0x1 DUP2 SLOAD ADD DUP1 DUP3 SSTORE DUP1 SWAP2 POP POP PUSH1 0x1 SWAP1 SUB SWAP1 PUSH1 0x0 MSTORE PUSH1 0x20 PUSH1 0x0 KECCAK256 SWAP1 PUSH1 0x3 MUL ADD PUSH1 0x0 SWAP1 SWAP2 SWAP1 SWAP2 SWAP1 SWAP2 POP PUSH1 0x0 DUP3 ADD MLOAD DUP2 PUSH1 0x0 ADD SWAP1 DUP1 MLOAD SWAP1 PUSH1 0x20 ADD SWAP1 PUSH3 0x610 SWAP3 SWAP2 SWAP1 PUSH3 0xB20 JUMP JUMPDEST POP PUSH1 0x20 DUP3 ADD MLOAD DUP2 PUSH1 0x1 ADD SWAP1 DUP1 MLOAD SWAP1 PUSH1 0x20 ADD SWAP1 PUSH3 0x62F SWAP3 SWAP2 SWAP1 PUSH3 0xB20 JUMP JUMPDEST POP PUSH1 0x40 DUP3 ADD MLOAD DUP2 PUSH1 0x2 ADD SSTORE POP POP PUSH1 0x8 PUSH3 0x6C4 PUSH1 0x40 MLOAD DUP1 PUSH1 0x40 ADD PUSH1 0x40 MSTORE DUP1 PUSH1 0x16 DUP2 MSTORE PUSH1 0x20 ADD PUSH32 0x636F756E74282F2F626F64792F646F63756D656E742900000000000000000000 DUP2 MSTORE POP PUSH1 0x40 MLOAD DUP1 PUSH1 0x40 ADD PUSH1 0x40 MSTORE DUP1 PUSH1 0x2 DUP2 MSTORE PUSH1 0x20 ADD PUSH32 0x3C3D000000000000000000000000000000000000000000000000000000000000 DUP2 MSTORE POP PUSH2 0xC350 PUSH1 0x5 PUSH3 0x948 PUSH1 0x20 SHL PUSH3 0x1136 OR PUSH1 0x20 SHR JUMP JUMPDEST SWAP1 DUP1 PUSH1 0x1 DUP2 SLOAD ADD DUP1 DUP3 SSTORE DUP1 SWAP2 POP POP PUSH1 0x1 SWAP1 SUB SWAP1 PUSH1 0x0 MSTORE PUSH1 0x20 PUSH1 0x0 KECCAK256 SWAP1 PUSH1 0x7 MUL ADD PUSH1 0x0 SWAP1 SWAP2 SWAP1 SWAP2 SWAP1 SWAP2 POP PUSH1 0x0 DUP3 ADD MLOAD DUP2 PUSH1 0x0 ADD SWAP1 DUP1 MLOAD SWAP1 PUSH1 0x20 ADD SWAP1 PUSH3 0x70B SWAP3 SWAP2 SWAP1 PUSH3 0xB20 JUMP JUMPDEST POP PUSH1 0x20 DUP3 ADD MLOAD DUP2 PUSH1 0x1 ADD SWAP1 DUP1 MLOAD SWAP1 PUSH1 0x20 ADD SWAP1 PUSH3 0x72A SWAP3 SWAP2 SWAP1 PUSH3 0xB20 JUMP JUMPDEST POP PUSH1 0x40 DUP3 ADD MLOAD DUP2 PUSH1 0x2 ADD SSTORE PUSH1 0x60 DUP3 ADD MLOAD DUP2 PUSH1 0x3 ADD PUSH1 0x0 PUSH2 0x100 EXP DUP2 SLOAD DUP2 PUSH1 0xFF MUL NOT AND SWAP1 DUP4 PUSH1 0xFF AND MUL OR SWAP1 SSTORE POP PUSH1 0x80 DUP3 ADD MLOAD DUP2 PUSH1 0x3 ADD PUSH1 0x1 PUSH2 0x100 EXP DUP2 SLOAD DUP2 PUSH4 0xFFFFFFFF MUL NOT AND SWAP1 DUP4 PUSH4 0xFFFFFFFF AND MUL OR SWAP1 SSTORE POP PUSH1 0xA0 DUP3 ADD MLOAD DUP2 PUSH1 0x4 ADD SSTORE PUSH1 0xC0 DUP3 ADD MLOAD DUP2 PUSH1 0x5 ADD PUSH1 0x0 PUSH2 0x100 EXP DUP2 SLOAD DUP2 PUSH4 0xFFFFFFFF MUL NOT AND SWAP1 DUP4 PUSH4 0xFFFFFFFF AND MUL OR SWAP1 SSTORE POP PUSH1 0xE0 DUP3 ADD MLOAD DUP2 PUSH1 0x6 ADD SSTORE POP POP PUSH1 0x9 PUSH3 0x7D3 PUSH1 0x3C PUSH3 0xA2B PUSH1 0x20 SHL PUSH3 0x120A OR PUSH1 0x20 SHR JUMP JUMPDEST SWAP1 DUP1 PUSH1 0x1 DUP2 SLOAD ADD DUP1 DUP3 SSTORE DUP1 SWAP2 POP POP PUSH1 0x1 SWAP1 SUB SWAP1 PUSH1 0x0 MSTORE PUSH1 0x20 PUSH1 0x0 KECCAK256 ADD PUSH1 0x0 SWAP1 SWAP2 SWAP1 SWAP2 SWAP1 SWAP2 POP PUSH1 0x0 DUP3 ADD MLOAD DUP2 PUSH1 0x0 ADD PUSH1 0x0 PUSH2 0x100 EXP DUP2 SLOAD DUP2 PUSH4 0xFFFFFFFF MUL NOT AND SWAP1 DUP4 PUSH4 0xFFFFFFFF AND MUL OR SWAP1 SSTORE POP PUSH1 0x20 DUP3 ADD MLOAD DUP2 PUSH1 0x0 ADD PUSH1 0x4 PUSH2 0x100 EXP DUP2 SLOAD DUP2 PUSH4 0xFFFFFFFF MUL NOT AND SWAP1 DUP4 PUSH4 0xFFFFFFFF AND MUL OR SWAP1 SSTORE POP POP POP POP PUSH3 0xFA3 JUMP JUMPDEST PUSH3 0x859 PUSH3 0xC49 JUMP JUMPDEST PUSH1 0x40 MLOAD DUP1 PUSH1 0x60 ADD PUSH1 0x40 MSTORE DUP1 DUP6 DUP2 MSTORE PUSH1 0x20 ADD DUP5 PUSH20 0xFFFFFFFFFFFFFFFFFFFFFFFFFFFFFFFFFFFFFFFF AND DUP2 MSTORE PUSH1 0x20 ADD DUP4 ISZERO ISZERO DUP2 MSTORE POP SWAP1 POP SWAP4 SWAP3 POP POP POP JUMP JUMPDEST PUSH3 0x89F PUSH3 0xC82 JUMP JUMPDEST PUSH1 0x0 PUSH1 0x4 PUSH1 0xFF AND DUP4 PUSH1 0xFF AND GT PUSH3 0x8C9 JUMPI PUSH3 0x8C1 DUP4 PUSH3 0xA5E PUSH1 0x20 SHL PUSH1 0x20 SHR JUMP JUMPDEST SWAP1 POP PUSH3 0x8CE JUMP JUMPDEST PUSH1 0x1 SWAP1 POP JUMPDEST PUSH1 0x40 MLOAD DUP1 PUSH1 0xA0 ADD PUSH1 0x40 MSTORE DUP1 DUP6 PUSH4 0xFFFFFFFF AND DUP2 MSTORE PUSH1 0x20 ADD DUP5 PUSH1 0xFF AND DUP2 MSTORE PUSH1 0x20 ADD DUP3 PUSH4 0xFFFFFFFF AND DUP2 MSTORE PUSH1 0x20 ADD DUP6 PUSH4 0xFFFFFFFF AND DUP2 MSTORE PUSH1 0x20 ADD PUSH1 0x0 PUSH4 0xFFFFFFFF AND DUP2 MSTORE POP SWAP2 POP POP SWAP3 SWAP2 POP POP JUMP JUMPDEST PUSH3 0x924 PUSH3 0xCCC JUMP JUMPDEST PUSH1 0x40 MLOAD DUP1 PUSH1 0x60 ADD PUSH1 0x40 MSTORE DUP1 DUP6 DUP2 MSTORE PUSH1 0x20 ADD DUP5 DUP2 MSTORE PUSH1 0x20 ADD DUP4 DUP2 MSTORE POP SWAP1 POP SWAP4 SWAP3 POP POP POP JUMP JUMPDEST PUSH3 0x952 PUSH3 0xCED JUMP JUMPDEST PUSH1 0x0 PUSH1 0x4 PUSH1 0xFF AND DUP4 PUSH1 0xFF AND GT PUSH3 0x97C JUMPI PUSH3 0x974 DUP4 PUSH3 0xA5E PUSH1 0x20 SHL PUSH1 0x20 SHR JUMP JUMPDEST SWAP1 POP PUSH3 0x981 JUMP JUMPDEST PUSH1 0x1 SWAP1 POP JUMPDEST PUSH1 0x1 DUP6 MLOAD SUB PUSH3 0x9D5 JUMPI PUSH1 0x40 MLOAD DUP1 PUSH1 0x40 ADD PUSH1 0x40 MSTORE DUP1 PUSH1 0x2 DUP2 MSTORE PUSH1 0x20 ADD PUSH32 0x3C3D000000000000000000000000000000000000000000000000000000000000 DUP2 MSTORE POP SWAP5 POP PUSH1 0x1 DUP5 PUSH3 0x9D2 SWAP2 SWAP1 PUSH3 0xEBF JUMP JUMPDEST SWAP4 POP JUMPDEST PUSH1 0x40 MLOAD DUP1 PUSH2 0x100 ADD PUSH1 0x40 MSTORE DUP1 DUP8 DUP2 MSTORE PUSH1 0x20 ADD DUP7 DUP2 MSTORE PUSH1 0x20 ADD DUP6 DUP2 MSTORE PUSH1 0x20 ADD DUP5 PUSH1 0xFF AND DUP2 MSTORE PUSH1 0x20 ADD DUP3 PUSH4 0xFFFFFFFF AND DUP2 MSTORE PUSH1 0x20 ADD DUP6 DUP2 MSTORE PUSH1 0x20 ADD PUSH1 0x0 PUSH4 0xFFFFFFFF AND DUP2 MSTORE PUSH1 0x20 ADD PUSH1 0x0 DUP2 MSTORE POP SWAP2 POP POP SWAP5 SWAP4 POP POP POP POP JUMP JUMPDEST PUSH3 0xA35 PUSH3 0xD41 JUMP JUMPDEST PUSH1 0x40 MLOAD DUP1 PUSH1 0x40 ADD PUSH1 0x40 MSTORE DUP1 PUSH1 0x0 PUSH4 0xFFFFFFFF AND DUP2 MSTORE PUSH1 0x20 ADD DUP4 PUSH4 0xFFFFFFFF AND DUP2 MSTORE POP SWAP1 POP SWAP2 SWAP1 POP JUMP JUMPDEST PUSH1 0x0 PUSH1 0x4 PUSH1 0xFF AND DUP3 PUSH1 0xFF AND GT ISZERO PUSH3 0xAAD JUMPI PUSH1 0x40 MLOAD PUSH32 0x8C379A000000000000000000000000000000000000000000000000000000000 DUP2 MSTORE PUSH1 0x4 ADD PUSH3 0xAA4 SWAP1 PUSH3 0xF81 JUMP JUMPDEST PUSH1 0x40 MLOAD DUP1 SWAP2 SUB SWAP1 REVERT JUMPDEST PUSH1 0x0 PUSH1 0xFF AND DUP3 PUSH1 0xFF AND SUB PUSH3 0xAC6 JUMPI PUSH1 0x1 SWAP1 POP PUSH3 0xB1B JUMP JUMPDEST PUSH1 0x1 PUSH1 0xFF AND DUP3 PUSH1 0xFF AND SUB PUSH3 0xADF JUMPI PUSH1 0x3C SWAP1 POP PUSH3 0xB1B JUMP JUMPDEST PUSH1 0x2 PUSH1 0xFF AND DUP3 PUSH1 0xFF AND SUB PUSH3 0xAF9 JUMPI PUSH2 0xE10 SWAP1 POP PUSH3 0xB1B JUMP JUMPDEST PUSH1 0x3 PUSH1 0xFF AND DUP3 PUSH1 0xFF AND SUB PUSH3 0xB14 JUMPI PUSH3 0x15180 SWAP1 POP PUSH3 0xB1B JUMP JUMPDEST PUSH3 0x93A80 SWAP1 POP JUMPDEST SWAP2 SWAP1 POP JUMP JUMPDEST DUP3 DUP1 SLOAD PUSH3 0xB2E SWAP1 PUSH3 0xE51 JUMP JUMPDEST SWAP1 PUSH1 0x0 MSTORE PUSH1 0x20 PUSH1 0x0 KECCAK256 SWAP1 PUSH1 0x1F ADD PUSH1 0x20 SWAP1 DIV DUP2 ADD SWAP3 DUP3 PUSH3 0xB52 JUMPI PUSH1 0x0 DUP6 SSTORE PUSH3 0xB9E JUMP JUMPDEST DUP3 PUSH1 0x1F LT PUSH3 0xB6D JUMPI DUP1 MLOAD PUSH1 0xFF NOT AND DUP4 DUP1 ADD OR DUP6 SSTORE PUSH3 0xB9E JUMP JUMPDEST DUP3 DUP1 ADD PUSH1 0x1 ADD DUP6 SSTORE DUP3 ISZERO PUSH3 0xB9E JUMPI SWAP2 DUP3 ADD JUMPDEST DUP3 DUP2 GT ISZERO PUSH3 0xB9D JUMPI DUP3 MLOAD DUP3 SSTORE SWAP2 PUSH1 0x20 ADD SWAP2 SWAP1 PUSH1 0x1 ADD SWAP1 PUSH3 0xB80 JUMP JUMPDEST JUMPDEST POP SWAP1 POP PUSH3 0xBAD SWAP2 SWAP1 PUSH3 0xD67 JUMP JUMPDEST POP SWAP1 JUMP JUMPDEST DUP3 DUP1 SLOAD PUSH3 0xBBF SWAP1 PUSH3 0xE51 JUMP JUMPDEST SWAP1 PUSH1 0x0 MSTORE PUSH1 0x20 PUSH1 0x0 KECCAK256 SWAP1 PUSH1 0x1F ADD PUSH1 0x20 SWAP1 DIV DUP2 ADD SWAP3 DUP3 PUSH3 0xBE3 JUMPI PUSH1 0x0 DUP6 SSTORE PUSH3 0xC36 JUMP JUMPDEST DUP3 PUSH1 0x1F LT PUSH3 0xBF6 JUMPI DUP1 SLOAD DUP6 SSTORE PUSH3 0xC36 JUMP JUMPDEST DUP3 DUP1 ADD PUSH1 0x1 ADD DUP6 SSTORE DUP3 ISZERO PUSH3 0xC36 JUMPI PUSH1 0x0 MSTORE PUSH1 0x20 PUSH1 0x0 KECCAK256 SWAP2 PUSH1 0x1F ADD PUSH1 0x20 SWAP1 DIV DUP3 ADD JUMPDEST DUP3 DUP2 GT ISZERO PUSH3 0xC35 JUMPI DUP3 SLOAD DUP3 SSTORE SWAP2 PUSH1 0x1 ADD SWAP2 SWAP1 PUSH1 0x1 ADD SWAP1 PUSH3 0xC18 JUMP JUMPDEST JUMPDEST POP SWAP1 POP PUSH3 0xC45 SWAP2 SWAP1 PUSH3 0xD67 JUMP JUMPDEST POP SWAP1 JUMP JUMPDEST PUSH1 0x40 MLOAD DUP1 PUSH1 0x60 ADD PUSH1 0x40 MSTORE DUP1 PUSH1 0x60 DUP2 MSTORE PUSH1 0x20 ADD PUSH1 0x0 PUSH20 0xFFFFFFFFFFFFFFFFFFFFFFFFFFFFFFFFFFFFFFFF AND DUP2 MSTORE PUSH1 0x20 ADD PUSH1 0x0 ISZERO ISZERO DUP2 MSTORE POP SWAP1 JUMP JUMPDEST PUSH1 0x40 MLOAD DUP1 PUSH1 0xA0 ADD PUSH1 0x40 MSTORE DUP1 PUSH1 0x0 PUSH4 0xFFFFFFFF AND DUP2 MSTORE PUSH1 0x20 ADD PUSH1 0x0 PUSH1 0xFF AND DUP2 MSTORE PUSH1 0x20 ADD PUSH1 0x0 PUSH4 0xFFFFFFFF AND DUP2 MSTORE PUSH1 0x20 ADD PUSH1 0x0 PUSH4 0xFFFFFFFF AND DUP2 MSTORE PUSH1 0x20 ADD PUSH1 0x0 PUSH4 0xFFFFFFFF AND DUP2 MSTORE POP SWAP1 JUMP JUMPDEST PUSH1 0x40 MLOAD DUP1 PUSH1 0x60 ADD PUSH1 0x40 MSTORE DUP1 PUSH1 0x60 DUP2 MSTORE PUSH1 0x20 ADD PUSH1 0x60 DUP2 MSTORE PUSH1 0x20 ADD PUSH1 0x0 DUP2 MSTORE POP SWAP1 JUMP JUMPDEST PUSH1 0x40 MLOAD DUP1 PUSH2 0x100 ADD PUSH1 0x40 MSTORE DUP1 PUSH1 0x60 DUP2 MSTORE PUSH1 0x20 ADD PUSH1 0x60 DUP2 MSTORE PUSH1 0x20 ADD PUSH1 0x0 DUP2 MSTORE PUSH1 0x20 ADD PUSH1 0x0 PUSH1 0xFF AND DUP2 MSTORE PUSH1 0x20 ADD PUSH1 0x0 PUSH4 0xFFFFFFFF AND DUP2 MSTORE PUSH1 0x20 ADD PUSH1 0x0 DUP2 MSTORE PUSH1 0x20 ADD PUSH1 0x0 PUSH4 0xFFFFFFFF AND DUP2 MSTORE PUSH1 0x20 ADD PUSH1 0x0 DUP2 MSTORE POP SWAP1 JUMP JUMPDEST PUSH1 0x40 MLOAD DUP1 PUSH1 0x40 ADD PUSH1 0x40 MSTORE DUP1 PUSH1 0x0 PUSH4 0xFFFFFFFF AND DUP2 MSTORE PUSH1 0x20 ADD PUSH1 0x0 PUSH4 0xFFFFFFFF AND DUP2 MSTORE POP SWAP1 JUMP JUMPDEST JUMPDEST DUP1 DUP3 GT ISZERO PUSH3 0xD82 JUMPI PUSH1 0x0 DUP2 PUSH1 0x0 SWAP1 SSTORE POP PUSH1 0x1 ADD PUSH3 0xD68 JUMP JUMPDEST POP SWAP1 JUMP JUMPDEST PUSH1 0x0 DUP1 REVERT JUMPDEST PUSH1 0x0 PUSH20 0xFFFFFFFFFFFFFFFFFFFFFFFFFFFFFFFFFFFFFFFF DUP3 AND SWAP1 POP SWAP2 SWAP1 POP JUMP JUMPDEST PUSH1 0x0 PUSH3 0xDB8 DUP3 PUSH3 0xD8B JUMP JUMPDEST SWAP1 POP SWAP2 SWAP1 POP JUMP JUMPDEST PUSH3 0xDCA DUP2 PUSH3 0xDAB JUMP JUMPDEST DUP2 EQ PUSH3 0xDD6 JUMPI PUSH1 0x0 DUP1 REVERT JUMPDEST POP JUMP JUMPDEST PUSH1 0x0 DUP2 MLOAD SWAP1 POP PUSH3 0xDEA DUP2 PUSH3 0xDBF JUMP JUMPDEST SWAP3 SWAP2 POP POP JUMP JUMPDEST PUSH1 0x0 PUSH1 0x20 DUP3 DUP5 SUB SLT ISZERO PUSH3 0xE09 JUMPI PUSH3 0xE08 PUSH3 0xD86 JUMP JUMPDEST JUMPDEST PUSH1 0x0 PUSH3 0xE19 DUP5 DUP3 DUP6 ADD PUSH3 0xDD9 JUMP JUMPDEST SWAP2 POP POP SWAP3 SWAP2 POP POP JUMP JUMPDEST PUSH32 0x4E487B7100000000000000000000000000000000000000000000000000000000 PUSH1 0x0 MSTORE PUSH1 0x22 PUSH1 0x4 MSTORE PUSH1 0x24 PUSH1 0x0 REVERT JUMPDEST PUSH1 0x0 PUSH1 0x2 DUP3 DIV SWAP1 POP PUSH1 0x1 DUP3 AND DUP1 PUSH3 0xE6A JUMPI PUSH1 0x7F DUP3 AND SWAP2 POP JUMPDEST PUSH1 0x20 DUP3 LT DUP2 SUB PUSH3 0xE80 JUMPI PUSH3 0xE7F PUSH3 0xE22 JUMP JUMPDEST JUMPDEST POP SWAP2 SWAP1 POP JUMP JUMPDEST PUSH1 0x0 DUP2 SWAP1 POP SWAP2 SWAP1 POP JUMP JUMPDEST PUSH32 0x4E487B7100000000000000000000000000000000000000000000000000000000 PUSH1 0x0 MSTORE PUSH1 0x11 PUSH1 0x4 MSTORE PUSH1 0x24 PUSH1 0x0 REVERT JUMPDEST PUSH1 0x0 PUSH3 0xECC DUP3 PUSH3 0xE86 JUMP JUMPDEST SWAP2 POP PUSH3 0xED9 DUP4 PUSH3 0xE86 JUMP JUMPDEST SWAP3 POP DUP3 DUP3 LT ISZERO PUSH3 0xEEF JUMPI PUSH3 0xEEE PUSH3 0xE90 JUMP JUMPDEST JUMPDEST DUP3 DUP3 SUB SWAP1 POP SWAP3 SWAP2 POP POP JUMP JUMPDEST PUSH1 0x0 DUP3 DUP3 MSTORE PUSH1 0x20 DUP3 ADD SWAP1 POP SWAP3 SWAP2 POP POP JUMP JUMPDEST PUSH32 0x546865206D6574686F642067657454696D65496E5365636F6E647320646F6573 PUSH1 0x0 DUP3 ADD MSTORE PUSH32 0x6E277420776F726B20666F72204D4F4E544820616E6420594541520000000000 PUSH1 0x20 DUP3 ADD MSTORE POP JUMP JUMPDEST PUSH1 0x0 PUSH3 0xF69 PUSH1 0x3B DUP4 PUSH3 0xEFA JUMP JUMPDEST SWAP2 POP PUSH3 0xF76 DUP3 PUSH3 0xF0B JUMP JUMPDEST PUSH1 0x40 DUP3 ADD SWAP1 POP SWAP2 SWAP1 POP JUMP JUMPDEST PUSH1 0x0 PUSH1 0x20 DUP3 ADD SWAP1 POP DUP2 DUP2 SUB PUSH1 0x0 DUP4 ADD MSTORE PUSH3 0xF9C DUP2 PUSH3 0xF5A JUMP JUMPDEST SWAP1 POP SWAP2 SWAP1 POP JUMP JUMPDEST PUSH2 0x325B DUP1 PUSH3 0xFB3 PUSH1 0x0 CODECOPY PUSH1 0x0 RETURN INVALID PUSH1 0x80 PUSH1 0x40 MSTORE CALLVALUE DUP1 ISZERO PUSH2 0x10 JUMPI PUSH1 0x0 DUP1 REVERT JUMPDEST POP PUSH1 0x4 CALLDATASIZE LT PUSH2 0x7D JUMPI PUSH1 0x0 CALLDATALOAD PUSH1 0xE0 SHR DUP1 PUSH4 0xB8B4F1A0 GT PUSH2 0x5B JUMPI DUP1 PUSH4 0xB8B4F1A0 EQ PUSH2 0xEE JUMPI DUP1 PUSH4 0xDD46F364 EQ PUSH2 0x10C JUMPI DUP1 PUSH4 0xE67FA566 EQ PUSH2 0x13C JUMPI DUP1 PUSH4 0xFB6F8243 EQ PUSH2 0x16C JUMPI PUSH2 0x7D JUMP JUMPDEST DUP1 PUSH4 0x5E744C6A EQ PUSH2 0x82 JUMPI DUP1 PUSH4 0x70D8915A EQ PUSH2 0xB2 JUMPI DUP1 PUSH4 0x85931911 EQ PUSH2 0xD0 JUMPI JUMPDEST PUSH1 0x0 DUP1 REVERT JUMPDEST PUSH2 0x9C PUSH1 0x4 DUP1 CALLDATASIZE SUB DUP2 ADD SWAP1 PUSH2 0x97 SWAP2 SWAP1 PUSH2 0x2307 JUMP JUMPDEST PUSH2 0x19C JUMP JUMPDEST PUSH1 0x40 MLOAD PUSH2 0xA9 SWAP2 SWAP1 PUSH2 0x237E JUMP JUMPDEST PUSH1 0x40 MLOAD DUP1 SWAP2 SUB SWAP1 RETURN JUMPDEST PUSH2 0xBA PUSH2 0x38D JUMP JUMPDEST PUSH1 0x40 MLOAD PUSH2 0xC7 SWAP2 SWAP1 PUSH2 0x23A8 JUMP JUMPDEST PUSH1 0x40 MLOAD DUP1 SWAP2 SUB SWAP1 RETURN JUMPDEST PUSH2 0xD8 PUSH2 0x4F4 JUMP JUMPDEST PUSH1 0x40 MLOAD PUSH2 0xE5 SWAP2 SWAP1 PUSH2 0x23A8 JUMP JUMPDEST PUSH1 0x40 MLOAD DUP1 SWAP2 SUB SWAP1 RETURN JUMPDEST PUSH2 0xF6 PUSH2 0x65C JUMP JUMPDEST PUSH1 0x40 MLOAD PUSH2 0x103 SWAP2 SWAP1 PUSH2 0x237E JUMP JUMPDEST PUSH1 0x40 MLOAD DUP1 SWAP2 SUB SWAP1 RETURN JUMPDEST PUSH2 0x126 PUSH1 0x4 DUP1 CALLDATASIZE SUB DUP2 ADD SWAP1 PUSH2 0x121 SWAP2 SWAP1 PUSH2 0x23FF JUMP JUMPDEST PUSH2 0x7C6 JUMP JUMPDEST PUSH1 0x40 MLOAD PUSH2 0x133 SWAP2 SWAP1 PUSH2 0x237E JUMP JUMPDEST PUSH1 0x40 MLOAD DUP1 SWAP2 SUB SWAP1 RETURN JUMPDEST PUSH2 0x156 PUSH1 0x4 DUP1 CALLDATASIZE SUB DUP2 ADD SWAP1 PUSH2 0x151 SWAP2 SWAP1 PUSH2 0x2623 JUMP JUMPDEST PUSH2 0xA03 JUMP JUMPDEST PUSH1 0x40 MLOAD PUSH2 0x163 SWAP2 SWAP1 PUSH2 0x237E JUMP JUMPDEST PUSH1 0x40 MLOAD DUP1 SWAP2 SUB SWAP1 RETURN JUMPDEST PUSH2 0x186 PUSH1 0x4 DUP1 CALLDATASIZE SUB DUP2 ADD SWAP1 PUSH2 0x181 SWAP2 SWAP1 PUSH2 0x26AE JUMP JUMPDEST PUSH2 0xDB7 JUMP JUMPDEST PUSH1 0x40 MLOAD PUSH2 0x193 SWAP2 SWAP1 PUSH2 0x27D1 JUMP JUMPDEST PUSH1 0x40 MLOAD DUP1 SWAP2 SUB SWAP1 RETURN JUMPDEST PUSH1 0x0 CALLER PUSH20 0xFFFFFFFFFFFFFFFFFFFFFFFFFFFFFFFFFFFFFFFF AND PUSH1 0x3 PUSH1 0x1 ADD PUSH1 0x0 SWAP1 SLOAD SWAP1 PUSH2 0x100 EXP SWAP1 DIV PUSH20 0xFFFFFFFFFFFFFFFFFFFFFFFFFFFFFFFFFFFFFFFF AND PUSH20 0xFFFFFFFFFFFFFFFFFFFFFFFFFFFFFFFFFFFFFFFF AND EQ PUSH2 0x231 JUMPI PUSH1 0x40 MLOAD PUSH32 0x8C379A000000000000000000000000000000000000000000000000000000000 DUP2 MSTORE PUSH1 0x4 ADD PUSH2 0x228 SWAP1 PUSH2 0x2876 JUMP JUMPDEST PUSH1 0x40 MLOAD DUP1 SWAP2 SUB SWAP1 REVERT JUMPDEST PUSH1 0x5 PUSH1 0x0 PUSH1 0x1 DUP1 ADD PUSH1 0x0 SWAP1 SLOAD SWAP1 PUSH2 0x100 EXP SWAP1 DIV PUSH20 0xFFFFFFFFFFFFFFFFFFFFFFFFFFFFFFFFFFFFFFFF AND PUSH20 0xFFFFFFFFFFFFFFFFFFFFFFFFFFFFFFFFFFFFFFFF AND PUSH20 0xFFFFFFFFFFFFFFFFFFFFFFFFFFFFFFFFFFFFFFFF AND DUP2 MSTORE PUSH1 0x20 ADD SWAP1 DUP2 MSTORE PUSH1 0x20 ADD PUSH1 0x0 KECCAK256 PUSH1 0x0 DUP1 DUP3 ADD PUSH1 0x0 PUSH2 0x2A5 SWAP2 SWAP1 PUSH2 0x1EC1 JUMP JUMPDEST PUSH1 0x1 DUP3 ADD PUSH1 0x0 PUSH2 0x100 EXP DUP2 SLOAD SWAP1 PUSH20 0xFFFFFFFFFFFFFFFFFFFFFFFFFFFFFFFFFFFFFFFF MUL NOT AND SWAP1 SSTORE PUSH1 0x1 DUP3 ADD PUSH1 0x14 PUSH2 0x100 EXP DUP2 SLOAD SWAP1 PUSH1 0xFF MUL NOT AND SWAP1 SSTORE POP POP PUSH2 0x2EE DUP4 DUP4 PUSH1 0x0 PUSH2 0x104D JUMP JUMPDEST PUSH1 0x1 PUSH1 0x0 DUP3 ADD MLOAD DUP2 PUSH1 0x0 ADD SWAP1 DUP1 MLOAD SWAP1 PUSH1 0x20 ADD SWAP1 PUSH2 0x30C SWAP3 SWAP2 SWAP1 PUSH2 0x1F01 JUMP JUMPDEST POP PUSH1 0x20 DUP3 ADD MLOAD DUP2 PUSH1 0x1 ADD PUSH1 0x0 PUSH2 0x100 EXP DUP2 SLOAD DUP2 PUSH20 0xFFFFFFFFFFFFFFFFFFFFFFFFFFFFFFFFFFFFFFFF MUL NOT AND SWAP1 DUP4 PUSH20 0xFFFFFFFFFFFFFFFFFFFFFFFFFFFFFFFFFFFFFFFF AND MUL OR SWAP1 SSTORE POP PUSH1 0x40 DUP3 ADD MLOAD DUP2 PUSH1 0x1 ADD PUSH1 0x14 PUSH2 0x100 EXP DUP2 SLOAD DUP2 PUSH1 0xFF MUL NOT AND SWAP1 DUP4 ISZERO ISZERO MUL OR SWAP1 SSTORE POP SWAP1 POP POP PUSH2 0x382 DUP3 PUSH1 0x1 PUSH2 0x123B JUMP JUMPDEST POP PUSH1 0x1 SWAP1 POP SWAP3 SWAP2 POP POP JUMP JUMPDEST PUSH1 0x0 DUP1 PUSH1 0x0 SWAP1 SLOAD SWAP1 PUSH2 0x100 EXP SWAP1 DIV PUSH1 0xFF AND PUSH2 0x3DD JUMPI PUSH1 0x40 MLOAD PUSH32 0x8C379A000000000000000000000000000000000000000000000000000000000 DUP2 MSTORE PUSH1 0x4 ADD PUSH2 0x3D4 SWAP1 PUSH2 0x28E2 JUMP JUMPDEST PUSH1 0x40 MLOAD DUP1 SWAP2 SUB SWAP1 REVERT JUMPDEST CALLER PUSH20 0xFFFFFFFFFFFFFFFFFFFFFFFFFFFFFFFFFFFFFFFF AND PUSH1 0x1 DUP1 ADD PUSH1 0x0 SWAP1 SLOAD SWAP1 PUSH2 0x100 EXP SWAP1 DIV PUSH20 0xFFFFFFFFFFFFFFFFFFFFFFFFFFFFFFFFFFFFFFFF AND PUSH20 0xFFFFFFFFFFFFFFFFFFFFFFFFFFFFFFFFFFFFFFFF AND EQ DUP1 PUSH2 0x48B JUMPI POP CALLER PUSH20 0xFFFFFFFFFFFFFFFFFFFFFFFFFFFFFFFFFFFFFFFF AND PUSH1 0x3 PUSH1 0x1 ADD PUSH1 0x0 SWAP1 SLOAD SWAP1 PUSH2 0x100 EXP SWAP1 DIV PUSH20 0xFFFFFFFFFFFFFFFFFFFFFFFFFFFFFFFFFFFFFFFF AND PUSH20 0xFFFFFFFFFFFFFFFFFFFFFFFFFFFFFFFFFFFFFFFF AND EQ JUMPDEST PUSH2 0x4CA JUMPI PUSH1 0x40 MLOAD PUSH32 0x8C379A000000000000000000000000000000000000000000000000000000000 DUP2 MSTORE PUSH1 0x4 ADD PUSH2 0x4C1 SWAP1 PUSH2 0x2974 JUMP JUMPDEST PUSH1 0x40 MLOAD DUP1 SWAP2 SUB SWAP1 REVERT JUMPDEST PUSH1 0x1 DUP1 ADD PUSH1 0x0 SWAP1 SLOAD SWAP1 PUSH2 0x100 EXP SWAP1 DIV PUSH20 0xFFFFFFFFFFFFFFFFFFFFFFFFFFFFFFFFFFFFFFFF AND SWAP1 POP SWAP1 JUMP JUMPDEST PUSH1 0x0 DUP1 PUSH1 0x0 SWAP1 SLOAD SWAP1 PUSH2 0x100 EXP SWAP1 DIV PUSH1 0xFF AND PUSH2 0x544 JUMPI PUSH1 0x40 MLOAD PUSH32 0x8C379A000000000000000000000000000000000000000000000000000000000 DUP2 MSTORE PUSH1 0x4 ADD PUSH2 0x53B SWAP1 PUSH2 0x28E2 JUMP JUMPDEST PUSH1 0x40 MLOAD DUP1 SWAP2 SUB SWAP1 REVERT JUMPDEST CALLER PUSH20 0xFFFFFFFFFFFFFFFFFFFFFFFFFFFFFFFFFFFFFFFF AND PUSH1 0x1 DUP1 ADD PUSH1 0x0 SWAP1 SLOAD SWAP1 PUSH2 0x100 EXP SWAP1 DIV PUSH20 0xFFFFFFFFFFFFFFFFFFFFFFFFFFFFFFFFFFFFFFFF AND PUSH20 0xFFFFFFFFFFFFFFFFFFFFFFFFFFFFFFFFFFFFFFFF AND EQ DUP1 PUSH2 0x5F2 JUMPI POP CALLER PUSH20 0xFFFFFFFFFFFFFFFFFFFFFFFFFFFFFFFFFFFFFFFF AND PUSH1 0x3 PUSH1 0x1 ADD PUSH1 0x0 SWAP1 SLOAD SWAP1 PUSH2 0x100 EXP SWAP1 DIV PUSH20 0xFFFFFFFFFFFFFFFFFFFFFFFFFFFFFFFFFFFFFFFF AND PUSH20 0xFFFFFFFFFFFFFFFFFFFFFFFFFFFFFFFFFFFFFFFF AND EQ JUMPDEST PUSH2 0x631 JUMPI PUSH1 0x40 MLOAD PUSH32 0x8C379A000000000000000000000000000000000000000000000000000000000 DUP2 MSTORE PUSH1 0x4 ADD PUSH2 0x628 SWAP1 PUSH2 0x2974 JUMP JUMPDEST PUSH1 0x40 MLOAD DUP1 SWAP2 SUB SWAP1 REVERT JUMPDEST PUSH1 0x3 PUSH1 0x1 ADD PUSH1 0x0 SWAP1 SLOAD SWAP1 PUSH2 0x100 EXP SWAP1 DIV PUSH20 0xFFFFFFFFFFFFFFFFFFFFFFFFFFFFFFFFFFFFFFFF AND SWAP1 POP SWAP1 JUMP JUMPDEST PUSH1 0x0 DUP1 PUSH1 0x0 SWAP1 SLOAD SWAP1 PUSH2 0x100 EXP SWAP1 DIV PUSH1 0xFF AND PUSH2 0x6AC JUMPI PUSH1 0x40 MLOAD PUSH32 0x8C379A000000000000000000000000000000000000000000000000000000000 DUP2 MSTORE PUSH1 0x4 ADD PUSH2 0x6A3 SWAP1 PUSH2 0x28E2 JUMP JUMPDEST PUSH1 0x40 MLOAD DUP1 SWAP2 SUB SWAP1 REVERT JUMPDEST CALLER PUSH20 0xFFFFFFFFFFFFFFFFFFFFFFFFFFFFFFFFFFFFFFFF AND PUSH1 0x1 DUP1 ADD PUSH1 0x0 SWAP1 SLOAD SWAP1 PUSH2 0x100 EXP SWAP1 DIV PUSH20 0xFFFFFFFFFFFFFFFFFFFFFFFFFFFFFFFFFFFFFFFF AND PUSH20 0xFFFFFFFFFFFFFFFFFFFFFFFFFFFFFFFFFFFFFFFF AND EQ PUSH2 0x73E JUMPI PUSH1 0x40 MLOAD PUSH32 0x8C379A000000000000000000000000000000000000000000000000000000000 DUP2 MSTORE PUSH1 0x4 ADD PUSH2 0x735 SWAP1 PUSH2 0x2A06 JUMP JUMPDEST PUSH1 0x40 MLOAD DUP1 SWAP2 SUB SWAP1 REVERT JUMPDEST PUSH1 0x0 ISZERO ISZERO PUSH1 0x1 DUP1 ADD PUSH1 0x14 SWAP1 SLOAD SWAP1 PUSH2 0x100 EXP SWAP1 DIV PUSH1 0xFF AND ISZERO ISZERO EQ PUSH2 0x796 JUMPI PUSH1 0x40 MLOAD PUSH32 0x8C379A000000000000000000000000000000000000000000000000000000000 DUP2 MSTORE PUSH1 0x4 ADD PUSH2 0x78D SWAP1 PUSH2 0x2A72 JUMP JUMPDEST PUSH1 0x40 MLOAD DUP1 SWAP2 SUB SWAP1 REVERT JUMPDEST PUSH1 0x1 DUP1 PUSH1 0x1 ADD PUSH1 0x14 PUSH2 0x100 EXP DUP2 SLOAD DUP2 PUSH1 0xFF MUL NOT AND SWAP1 DUP4 ISZERO ISZERO MUL OR SWAP1 SSTORE POP PUSH2 0x7BE CALLER PUSH1 0x1 PUSH2 0x123B JUMP JUMPDEST POP PUSH1 0x1 SWAP1 POP SWAP1 JUMP JUMPDEST PUSH1 0x0 DUP1 PUSH1 0x0 SWAP1 SLOAD SWAP1 PUSH2 0x100 EXP SWAP1 DIV PUSH1 0xFF AND PUSH2 0x816 JUMPI PUSH1 0x40 MLOAD PUSH32 0x8C379A000000000000000000000000000000000000000000000000000000000 DUP2 MSTORE PUSH1 0x4 ADD PUSH2 0x80D SWAP1 PUSH2 0x28E2 JUMP JUMPDEST PUSH1 0x40 MLOAD DUP1 SWAP2 SUB SWAP1 REVERT JUMPDEST CALLER PUSH20 0xFFFFFFFFFFFFFFFFFFFFFFFFFFFFFFFFFFFFFFFF AND PUSH1 0x1 DUP1 ADD PUSH1 0x0 SWAP1 SLOAD SWAP1 PUSH2 0x100 EXP SWAP1 DIV PUSH20 0xFFFFFFFFFFFFFFFFFFFFFFFFFFFFFFFFFFFFFFFF AND PUSH20 0xFFFFFFFFFFFFFFFFFFFFFFFFFFFFFFFFFFFFFFFF AND EQ PUSH2 0x8A8 JUMPI PUSH1 0x40 MLOAD PUSH32 0x8C379A000000000000000000000000000000000000000000000000000000000 DUP2 MSTORE PUSH1 0x4 ADD PUSH2 0x89F SWAP1 PUSH2 0x2A06 JUMP JUMPDEST PUSH1 0x40 MLOAD DUP1 SWAP2 SUB SWAP1 REVERT JUMPDEST PUSH2 0x930 DUP3 PUSH1 0x9 PUSH1 0x0 DUP2 SLOAD DUP2 LT PUSH2 0x8C1 JUMPI PUSH2 0x8C0 PUSH2 0x2A92 JUMP JUMPDEST JUMPDEST SWAP1 PUSH1 0x0 MSTORE PUSH1 0x20 PUSH1 0x0 KECCAK256 ADD PUSH1 0x40 MLOAD DUP1 PUSH1 0x40 ADD PUSH1 0x40 MSTORE SWAP1 DUP2 PUSH1 0x0 DUP3 ADD PUSH1 0x0 SWAP1 SLOAD SWAP1 PUSH2 0x100 EXP SWAP1 DIV PUSH4 0xFFFFFFFF AND PUSH4 0xFFFFFFFF AND PUSH4 0xFFFFFFFF AND DUP2 MSTORE PUSH1 0x20 ADD PUSH1 0x0 DUP3 ADD PUSH1 0x4 SWAP1 SLOAD SWAP1 PUSH2 0x100 EXP SWAP1 DIV PUSH4 0xFFFFFFFF AND PUSH4 0xFFFFFFFF AND PUSH4 0xFFFFFFFF AND DUP2 MSTORE POP POP PUSH2 0x133E SWAP1 SWAP2 SWAP1 PUSH4 0xFFFFFFFF AND JUMP JUMPDEST PUSH2 0x9C4 JUMPI PUSH32 0x95A1F3A1DAFDD4C1AF344E3D7C69A72CBCE8A3F15FE1CF95A7F5BD23DF2E71A1 PUSH1 0x40 MLOAD PUSH2 0x961 SWAP1 PUSH2 0x2B0D JUMP JUMPDEST PUSH1 0x40 MLOAD DUP1 SWAP2 SUB SWAP1 LOG1 PUSH2 0x990 PUSH1 0x6 PUSH1 0x0 DUP2 SLOAD DUP2 LT PUSH2 0x981 JUMPI PUSH2 0x980 PUSH2 0x2A92 JUMP JUMPDEST JUMPDEST SWAP1 PUSH1 0x0 MSTORE PUSH1 0x20 PUSH1 0x0 KECCAK256 ADD PUSH2 0x13CD JUMP JUMPDEST PUSH2 0x9BB PUSH1 0x8 PUSH1 0x0 DUP2 SLOAD DUP2 LT PUSH2 0x9A8 JUMPI PUSH2 0x9A7 PUSH2 0x2A92 JUMP JUMPDEST JUMPDEST SWAP1 PUSH1 0x0 MSTORE PUSH1 0x20 PUSH1 0x0 KECCAK256 SWAP1 PUSH1 0x7 MUL ADD PUSH2 0x1412 JUMP JUMPDEST PUSH1 0x1 SWAP1 POP PUSH2 0x9FE JUMP JUMPDEST PUSH32 0x66091B7DC2B097C8F60D5CD6AA99633B097F08D2EB1056F3E15361B22E0EA2BA PUSH1 0x40 MLOAD PUSH2 0x9F1 SWAP1 PUSH2 0x2B79 JUMP JUMPDEST PUSH1 0x40 MLOAD DUP1 SWAP2 SUB SWAP1 LOG1 PUSH1 0x0 SWAP1 POP JUMPDEST SWAP2 SWAP1 POP JUMP JUMPDEST PUSH1 0x0 DUP1 PUSH1 0x0 SWAP1 SLOAD SWAP1 PUSH2 0x100 EXP SWAP1 DIV PUSH1 0xFF AND PUSH2 0xA53 JUMPI PUSH1 0x40 MLOAD PUSH32 0x8C379A000000000000000000000000000000000000000000000000000000000 DUP2 MSTORE PUSH1 0x4 ADD PUSH2 0xA4A SWAP1 PUSH2 0x28E2 JUMP JUMPDEST PUSH1 0x40 MLOAD DUP1 SWAP2 SUB SWAP1 REVERT JUMPDEST CALLER PUSH20 0xFFFFFFFFFFFFFFFFFFFFFFFFFFFFFFFFFFFFFFFF AND PUSH1 0x3 PUSH1 0x1 ADD PUSH1 0x0 SWAP1 SLOAD SWAP1 PUSH2 0x100 EXP SWAP1 DIV PUSH20 0xFFFFFFFFFFFFFFFFFFFFFFFFFFFFFFFFFFFFFFFF AND PUSH20 0xFFFFFFFFFFFFFFFFFFFFFFFFFFFFFFFFFFFFFFFF AND EQ PUSH2 0xAE6 JUMPI PUSH1 0x40 MLOAD PUSH32 0x8C379A000000000000000000000000000000000000000000000000000000000 DUP2 MSTORE PUSH1 0x4 ADD PUSH2 0xADD SWAP1 PUSH2 0x2876 JUMP JUMPDEST PUSH1 0x40 MLOAD DUP1 SWAP2 SUB SWAP1 REVERT JUMPDEST PUSH2 0xB17 DUP5 PUSH1 0x6 PUSH1 0x0 DUP2 SLOAD DUP2 LT PUSH2 0xAFF JUMPI PUSH2 0xAFE PUSH2 0x2A92 JUMP JUMPDEST JUMPDEST SWAP1 PUSH1 0x0 MSTORE PUSH1 0x20 PUSH1 0x0 KECCAK256 ADD PUSH2 0x14D0 SWAP1 SWAP2 SWAP1 PUSH4 0xFFFFFFFF AND JUMP JUMPDEST DUP1 ISZERO PUSH2 0xCA8 JUMPI POP PUSH2 0xCA7 DUP4 PUSH1 0x0 DUP2 MLOAD DUP2 LT PUSH2 0xB35 JUMPI PUSH2 0xB34 PUSH2 0x2A92 JUMP JUMPDEST JUMPDEST PUSH1 0x20 MUL PUSH1 0x20 ADD ADD MLOAD PUSH1 0x7 PUSH1 0x0 DUP2 SLOAD DUP2 LT PUSH2 0xB52 JUMPI PUSH2 0xB51 PUSH2 0x2A92 JUMP JUMPDEST JUMPDEST SWAP1 PUSH1 0x0 MSTORE PUSH1 0x20 PUSH1 0x0 KECCAK256 SWAP1 PUSH1 0x3 MUL ADD PUSH1 0x40 MLOAD DUP1 PUSH1 0x60 ADD PUSH1 0x40 MSTORE SWAP1 DUP2 PUSH1 0x0 DUP3 ADD DUP1 SLOAD PUSH2 0xB7B SWAP1 PUSH2 0x2BC8 JUMP JUMPDEST DUP1 PUSH1 0x1F ADD PUSH1 0x20 DUP1 SWAP2 DIV MUL PUSH1 0x20 ADD PUSH1 0x40 MLOAD SWAP1 DUP2 ADD PUSH1 0x40 MSTORE DUP1 SWAP3 SWAP2 SWAP1 DUP2 DUP2 MSTORE PUSH1 0x20 ADD DUP3 DUP1 SLOAD PUSH2 0xBA7 SWAP1 PUSH2 0x2BC8 JUMP JUMPDEST DUP1 ISZERO PUSH2 0xBF4 JUMPI DUP1 PUSH1 0x1F LT PUSH2 0xBC9 JUMPI PUSH2 0x100 DUP1 DUP4 SLOAD DIV MUL DUP4 MSTORE SWAP2 PUSH1 0x20 ADD SWAP2 PUSH2 0xBF4 JUMP JUMPDEST DUP3 ADD SWAP2 SWAP1 PUSH1 0x0 MSTORE PUSH1 0x20 PUSH1 0x0 KECCAK256 SWAP1 JUMPDEST DUP2 SLOAD DUP2 MSTORE SWAP1 PUSH1 0x1 ADD SWAP1 PUSH1 0x20 ADD DUP1 DUP4 GT PUSH2 0xBD7 JUMPI DUP3 SWAP1 SUB PUSH1 0x1F AND DUP3 ADD SWAP2 JUMPDEST POP POP POP POP POP DUP2 MSTORE PUSH1 0x20 ADD PUSH1 0x1 DUP3 ADD DUP1 SLOAD PUSH2 0xC0D SWAP1 PUSH2 0x2BC8 JUMP JUMPDEST DUP1 PUSH1 0x1F ADD PUSH1 0x20 DUP1 SWAP2 DIV MUL PUSH1 0x20 ADD PUSH1 0x40 MLOAD SWAP1 DUP2 ADD PUSH1 0x40 MSTORE DUP1 SWAP3 SWAP2 SWAP1 DUP2 DUP2 MSTORE PUSH1 0x20 ADD DUP3 DUP1 SLOAD PUSH2 0xC39 SWAP1 PUSH2 0x2BC8 JUMP JUMPDEST DUP1 ISZERO PUSH2 0xC86 JUMPI DUP1 PUSH1 0x1F LT PUSH2 0xC5B JUMPI PUSH2 0x100 DUP1 DUP4 SLOAD DIV MUL DUP4 MSTORE SWAP2 PUSH1 0x20 ADD SWAP2 PUSH2 0xC86 JUMP JUMPDEST DUP3 ADD SWAP2 SWAP1 PUSH1 0x0 MSTORE PUSH1 0x20 PUSH1 0x0 KECCAK256 SWAP1 JUMPDEST DUP2 SLOAD DUP2 MSTORE SWAP1 PUSH1 0x1 ADD SWAP1 PUSH1 0x20 ADD DUP1 DUP4 GT PUSH2 0xC69 JUMPI DUP3 SWAP1 SUB PUSH1 0x1F AND DUP3 ADD SWAP2 JUMPDEST POP POP POP POP POP DUP2 MSTORE PUSH1 0x20 ADD PUSH1 0x2 DUP3 ADD SLOAD DUP2 MSTORE POP POP PUSH2 0x1549 SWAP1 SWAP2 SWAP1 PUSH4 0xFFFFFFFF AND JUMP JUMPDEST JUMPDEST DUP1 ISZERO PUSH2 0xD02 JUMPI POP PUSH2 0xD01 DUP5 DUP4 PUSH1 0x0 DUP2 MLOAD DUP2 LT PUSH2 0xCC7 JUMPI PUSH2 0xCC6 PUSH2 0x2A92 JUMP JUMPDEST JUMPDEST PUSH1 0x20 MUL PUSH1 0x20 ADD ADD MLOAD PUSH1 0x8 PUSH1 0x0 DUP2 SLOAD DUP2 LT PUSH2 0xCE4 JUMPI PUSH2 0xCE3 PUSH2 0x2A92 JUMP JUMPDEST JUMPDEST SWAP1 PUSH1 0x0 MSTORE PUSH1 0x20 PUSH1 0x0 KECCAK256 SWAP1 PUSH1 0x7 MUL ADD PUSH2 0x173B SWAP1 SWAP3 SWAP2 SWAP1 PUSH4 0xFFFFFFFF AND JUMP JUMPDEST JUMPDEST ISZERO PUSH2 0xD76 JUMPI PUSH2 0xD38 DUP5 PUSH1 0x9 PUSH1 0x0 DUP2 SLOAD DUP2 LT PUSH2 0xD20 JUMPI PUSH2 0xD1F PUSH2 0x2A92 JUMP JUMPDEST JUMPDEST SWAP1 PUSH1 0x0 MSTORE PUSH1 0x20 PUSH1 0x0 KECCAK256 ADD PUSH2 0x183D SWAP1 SWAP2 SWAP1 PUSH4 0xFFFFFFFF AND JUMP JUMPDEST PUSH32 0x95A1F3A1DAFDD4C1AF344E3D7C69A72CBCE8A3F15FE1CF95A7F5BD23DF2E71A1 PUSH1 0x40 MLOAD PUSH2 0xD65 SWAP1 PUSH2 0x2B0D JUMP JUMPDEST PUSH1 0x40 MLOAD DUP1 SWAP2 SUB SWAP1 LOG1 PUSH1 0x1 SWAP1 POP PUSH2 0xDB0 JUMP JUMPDEST PUSH32 0x66091B7DC2B097C8F60D5CD6AA99633B097F08D2EB1056F3E15361B22E0EA2BA PUSH1 0x40 MLOAD PUSH2 0xDA3 SWAP1 PUSH2 0x2C45 JUMP JUMPDEST PUSH1 0x40 MLOAD DUP1 SWAP2 SUB SWAP1 LOG1 PUSH1 0x0 SWAP1 POP JUMPDEST SWAP4 SWAP3 POP POP POP JUMP JUMPDEST PUSH2 0xDBF PUSH2 0x1F87 JUMP JUMPDEST PUSH1 0x0 DUP1 SLOAD SWAP1 PUSH2 0x100 EXP SWAP1 DIV PUSH1 0xFF AND PUSH2 0xE0C JUMPI PUSH1 0x40 MLOAD PUSH32 0x8C379A000000000000000000000000000000000000000000000000000000000 DUP2 MSTORE PUSH1 0x4 ADD PUSH2 0xE03 SWAP1 PUSH2 0x28E2 JUMP JUMPDEST PUSH1 0x40 MLOAD DUP1 SWAP2 SUB SWAP1 REVERT JUMPDEST CALLER PUSH20 0xFFFFFFFFFFFFFFFFFFFFFFFFFFFFFFFFFFFFFFFF AND PUSH1 0x1 DUP1 ADD PUSH1 0x0 SWAP1 SLOAD SWAP1 PUSH2 0x100 EXP SWAP1 DIV PUSH20 0xFFFFFFFFFFFFFFFFFFFFFFFFFFFFFFFFFFFFFFFF AND PUSH20 0xFFFFFFFFFFFFFFFFFFFFFFFFFFFFFFFFFFFFFFFF AND EQ DUP1 PUSH2 0xEBA JUMPI POP CALLER PUSH20 0xFFFFFFFFFFFFFFFFFFFFFFFFFFFFFFFFFFFFFFFF AND PUSH1 0x3 PUSH1 0x1 ADD PUSH1 0x0 SWAP1 SLOAD SWAP1 PUSH2 0x100 EXP SWAP1 DIV PUSH20 0xFFFFFFFFFFFFFFFFFFFFFFFFFFFFFFFFFFFFFFFF AND PUSH20 0xFFFFFFFFFFFFFFFFFFFFFFFFFFFFFFFFFFFFFFFF AND EQ JUMPDEST PUSH2 0xEF9 JUMPI PUSH1 0x40 MLOAD PUSH32 0x8C379A000000000000000000000000000000000000000000000000000000000 DUP2 MSTORE PUSH1 0x4 ADD PUSH2 0xEF0 SWAP1 PUSH2 0x2974 JUMP JUMPDEST PUSH1 0x40 MLOAD DUP1 SWAP2 SUB SWAP1 REVERT JUMPDEST PUSH1 0x5 PUSH1 0x0 DUP4 PUSH20 0xFFFFFFFFFFFFFFFFFFFFFFFFFFFFFFFFFFFFFFFF AND PUSH20 0xFFFFFFFFFFFFFFFFFFFFFFFFFFFFFFFFFFFFFFFF AND DUP2 MSTORE PUSH1 0x20 ADD SWAP1 DUP2 MSTORE PUSH1 0x20 ADD PUSH1 0x0 KECCAK256 PUSH1 0x40 MLOAD DUP1 PUSH1 0x60 ADD PUSH1 0x40 MSTORE SWAP1 DUP2 PUSH1 0x0 DUP3 ADD DUP1 SLOAD PUSH2 0xF53 SWAP1 PUSH2 0x2BC8 JUMP JUMPDEST DUP1 PUSH1 0x1F ADD PUSH1 0x20 DUP1 SWAP2 DIV MUL PUSH1 0x20 ADD PUSH1 0x40 MLOAD SWAP1 DUP2 ADD PUSH1 0x40 MSTORE DUP1 SWAP3 SWAP2 SWAP1 DUP2 DUP2 MSTORE PUSH1 0x20 ADD DUP3 DUP1 SLOAD PUSH2 0xF7F SWAP1 PUSH2 0x2BC8 JUMP JUMPDEST DUP1 ISZERO PUSH2 0xFCC JUMPI DUP1 PUSH1 0x1F LT PUSH2 0xFA1 JUMPI PUSH2 0x100 DUP1 DUP4 SLOAD DIV MUL DUP4 MSTORE SWAP2 PUSH1 0x20 ADD SWAP2 PUSH2 0xFCC JUMP JUMPDEST DUP3 ADD SWAP2 SWAP1 PUSH1 0x0 MSTORE PUSH1 0x20 PUSH1 0x0 KECCAK256 SWAP1 JUMPDEST DUP2 SLOAD DUP2 MSTORE SWAP1 PUSH1 0x1 ADD SWAP1 PUSH1 0x20 ADD DUP1 DUP4 GT PUSH2 0xFAF JUMPI DUP3 SWAP1 SUB PUSH1 0x1F AND DUP3 ADD SWAP2 JUMPDEST POP POP POP POP POP DUP2 MSTORE PUSH1 0x20 ADD PUSH1 0x1 DUP3 ADD PUSH1 0x0 SWAP1 SLOAD SWAP1 PUSH2 0x100 EXP SWAP1 DIV PUSH20 0xFFFFFFFFFFFFFFFFFFFFFFFFFFFFFFFFFFFFFFFF AND PUSH20 0xFFFFFFFFFFFFFFFFFFFFFFFFFFFFFFFFFFFFFFFF AND PUSH20 0xFFFFFFFFFFFFFFFFFFFFFFFFFFFFFFFFFFFFFFFF AND DUP2 MSTORE PUSH1 0x20 ADD PUSH1 0x1 DUP3 ADD PUSH1 0x14 SWAP1 SLOAD SWAP1 PUSH2 0x100 EXP SWAP1 DIV PUSH1 0xFF AND ISZERO ISZERO ISZERO ISZERO DUP2 MSTORE POP POP SWAP1 POP SWAP2 SWAP1 POP JUMP JUMPDEST PUSH2 0x1055 PUSH2 0x1F87 JUMP JUMPDEST PUSH1 0x40 MLOAD DUP1 PUSH1 0x60 ADD PUSH1 0x40 MSTORE DUP1 DUP6 DUP2 MSTORE PUSH1 0x20 ADD DUP5 PUSH20 0xFFFFFFFFFFFFFFFFFFFFFFFFFFFFFFFFFFFFFFFF AND DUP2 MSTORE PUSH1 0x20 ADD DUP4 ISZERO ISZERO DUP2 MSTORE POP SWAP1 POP SWAP4 SWAP3 POP POP POP JUMP JUMPDEST PUSH2 0x1099 PUSH2 0x1FC0 JUMP JUMPDEST PUSH1 0x0 PUSH1 0x4 PUSH1 0xFF AND DUP4 PUSH1 0xFF AND GT PUSH2 0x10B9 JUMPI PUSH2 0x10B2 DUP4 PUSH2 0x18A8 JUMP JUMPDEST SWAP1 POP PUSH2 0x10BE JUMP JUMPDEST PUSH1 0x1 SWAP1 POP JUMPDEST PUSH1 0x40 MLOAD DUP1 PUSH1 0xA0 ADD PUSH1 0x40 MSTORE DUP1 DUP6 PUSH4 0xFFFFFFFF AND DUP2 MSTORE PUSH1 0x20 ADD DUP5 PUSH1 0xFF AND DUP2 MSTORE PUSH1 0x20 ADD DUP3 PUSH4 0xFFFFFFFF AND DUP2 MSTORE PUSH1 0x20 ADD DUP6 PUSH4 0xFFFFFFFF AND DUP2 MSTORE PUSH1 0x20 ADD PUSH1 0x0 PUSH4 0xFFFFFFFF AND DUP2 MSTORE POP SWAP2 POP POP SWAP3 SWAP2 POP POP JUMP JUMPDEST PUSH2 0x1112 PUSH2 0x200A JUMP JUMPDEST PUSH1 0x40 MLOAD DUP1 PUSH1 0x60 ADD PUSH1 0x40 MSTORE DUP1 DUP6 DUP2 MSTORE PUSH1 0x20 ADD DUP5 DUP2 MSTORE PUSH1 0x20 ADD DUP4 DUP2 MSTORE POP SWAP1 POP SWAP4 SWAP3 POP POP POP JUMP JUMPDEST PUSH2 0x113E PUSH2 0x202B JUMP JUMPDEST PUSH1 0x0 PUSH1 0x4 PUSH1 0xFF AND DUP4 PUSH1 0xFF AND GT PUSH2 0x115E JUMPI PUSH2 0x1157 DUP4 PUSH2 0x18A8 JUMP JUMPDEST SWAP1 POP PUSH2 0x1163 JUMP JUMPDEST PUSH1 0x1 SWAP1 POP JUMPDEST PUSH1 0x1 DUP6 MLOAD SUB PUSH2 0x11B4 JUMPI PUSH1 0x40 MLOAD DUP1 PUSH1 0x40 ADD PUSH1 0x40 MSTORE DUP1 PUSH1 0x2 DUP2 MSTORE PUSH1 0x20 ADD PUSH32 0x3C3D000000000000000000000000000000000000000000000000000000000000 DUP2 MSTORE POP SWAP5 POP PUSH1 0x1 DUP5 PUSH2 0x11B1 SWAP2 SWAP1 PUSH2 0x2C94 JUMP JUMPDEST SWAP4 POP JUMPDEST PUSH1 0x40 MLOAD DUP1 PUSH2 0x100 ADD PUSH1 0x40 MSTORE DUP1 DUP8 DUP2 MSTORE PUSH1 0x20 ADD DUP7 DUP2 MSTORE PUSH1 0x20 ADD DUP6 DUP2 MSTORE PUSH1 0x20 ADD DUP5 PUSH1 0xFF AND DUP2 MSTORE PUSH1 0x20 ADD DUP3 PUSH4 0xFFFFFFFF AND DUP2 MSTORE PUSH1 0x20 ADD DUP6 DUP2 MSTORE PUSH1 0x20 ADD PUSH1 0x0 PUSH4 0xFFFFFFFF AND DUP2 MSTORE PUSH1 0x20 ADD PUSH1 0x0 DUP2 MSTORE POP SWAP2 POP POP SWAP5 SWAP4 POP POP POP POP JUMP JUMPDEST PUSH2 0x1212 PUSH2 0x207F JUMP JUMPDEST PUSH1 0x40 MLOAD DUP1 PUSH1 0x40 ADD PUSH1 0x40 MSTORE DUP1 PUSH1 0x0 PUSH4 0xFFFFFFFF AND DUP2 MSTORE PUSH1 0x20 ADD DUP4 PUSH4 0xFFFFFFFF AND DUP2 MSTORE POP SWAP1 POP SWAP2 SWAP1 POP JUMP JUMPDEST PUSH1 0x0 DUP2 PUSH1 0x5 PUSH1 0x0 DUP6 PUSH20 0xFFFFFFFFFFFFFFFFFFFFFFFFFFFFFFFFFFFFFFFF AND PUSH20 0xFFFFFFFFFFFFFFFFFFFFFFFFFFFFFFFFFFFFFFFF AND DUP2 MSTORE PUSH1 0x20 ADD SWAP1 DUP2 MSTORE PUSH1 0x20 ADD PUSH1 0x0 KECCAK256 PUSH1 0x0 DUP3 ADD DUP2 PUSH1 0x0 ADD SWAP1 DUP1 SLOAD PUSH2 0x1291 SWAP1 PUSH2 0x2BC8 JUMP JUMPDEST PUSH2 0x129C SWAP3 SWAP2 SWAP1 PUSH2 0x20A5 JUMP JUMPDEST POP PUSH1 0x1 DUP3 ADD PUSH1 0x0 SWAP1 SLOAD SWAP1 PUSH2 0x100 EXP SWAP1 DIV PUSH20 0xFFFFFFFFFFFFFFFFFFFFFFFFFFFFFFFFFFFFFFFF AND DUP2 PUSH1 0x1 ADD PUSH1 0x0 PUSH2 0x100 EXP DUP2 SLOAD DUP2 PUSH20 0xFFFFFFFFFFFFFFFFFFFFFFFFFFFFFFFFFFFFFFFF MUL NOT AND SWAP1 DUP4 PUSH20 0xFFFFFFFFFFFFFFFFFFFFFFFFFFFFFFFFFFFFFFFF AND MUL OR SWAP1 SSTORE POP PUSH1 0x1 DUP3 ADD PUSH1 0x14 SWAP1 SLOAD SWAP1 PUSH2 0x100 EXP SWAP1 DIV PUSH1 0xFF AND DUP2 PUSH1 0x1 ADD PUSH1 0x14 PUSH2 0x100 EXP DUP2 SLOAD DUP2 PUSH1 0xFF MUL NOT AND SWAP1 DUP4 ISZERO ISZERO MUL OR SWAP1 SSTORE POP SWAP1 POP POP PUSH1 0x1 SWAP1 POP SWAP3 SWAP2 POP POP JUMP JUMPDEST PUSH1 0x0 DUP2 PUSH1 0x0 PUSH2 0x1352 DUP3 PUSH4 0xFFFFFFFF AND PUSH2 0x195F JUMP JUMPDEST SWAP1 POP PUSH1 0xA DUP2 MLOAD GT ISZERO PUSH2 0x1363 JUMPI PUSH1 0x0 DUP1 REVERT JUMPDEST PUSH1 0x0 DUP6 PUSH1 0x0 ADD MLOAD PUSH4 0xFFFFFFFF AND GT PUSH2 0x13B0 JUMPI PUSH1 0x40 MLOAD PUSH32 0x8C379A000000000000000000000000000000000000000000000000000000000 DUP2 MSTORE PUSH1 0x4 ADD PUSH2 0x13A7 SWAP1 PUSH2 0x2D3A JUMP JUMPDEST PUSH1 0x40 MLOAD DUP1 SWAP2 SUB SWAP1 REVERT JUMPDEST DUP5 PUSH1 0x0 ADD MLOAD PUSH4 0xFFFFFFFF AND DUP5 PUSH4 0xFFFFFFFF AND GT SWAP3 POP POP POP SWAP3 SWAP2 POP POP JUMP JUMPDEST PUSH1 0x1 DUP2 PUSH1 0x0 ADD PUSH1 0x9 DUP3 DUP3 DUP3 SWAP1 SLOAD SWAP1 PUSH2 0x100 EXP SWAP1 DIV PUSH4 0xFFFFFFFF AND PUSH2 0x13F1 SWAP2 SWAP1 PUSH2 0x2D5A JUMP JUMPDEST SWAP3 POP PUSH2 0x100 EXP DUP2 SLOAD DUP2 PUSH4 0xFFFFFFFF MUL NOT AND SWAP1 DUP4 PUSH4 0xFFFFFFFF AND MUL OR SWAP1 SSTORE POP POP JUMP JUMPDEST PUSH1 0x0 DUP2 PUSH1 0x6 ADD SLOAD GT PUSH2 0x1459 JUMPI PUSH1 0x40 MLOAD PUSH32 0x8C379A000000000000000000000000000000000000000000000000000000000 DUP2 MSTORE PUSH1 0x4 ADD PUSH2 0x1450 SWAP1 PUSH2 0x2DDA JUMP JUMPDEST PUSH1 0x40 MLOAD DUP1 SWAP2 SUB SWAP1 REVERT JUMPDEST DUP1 PUSH1 0x4 ADD SLOAD DUP2 PUSH1 0x6 ADD SLOAD GT ISZERO PUSH2 0x14A4 JUMPI PUSH1 0x40 MLOAD PUSH32 0x8C379A000000000000000000000000000000000000000000000000000000000 DUP2 MSTORE PUSH1 0x4 ADD PUSH2 0x149B SWAP1 PUSH2 0x2E6C JUMP JUMPDEST PUSH1 0x40 MLOAD DUP1 SWAP2 SUB SWAP1 REVERT JUMPDEST DUP1 PUSH1 0x6 ADD SLOAD DUP2 PUSH1 0x4 ADD PUSH1 0x0 DUP3 DUP3 SLOAD PUSH2 0x14BC SWAP2 SWAP1 PUSH2 0x2C94 JUMP JUMPDEST SWAP3 POP POP DUP2 SWAP1 SSTORE POP PUSH1 0x0 DUP2 PUSH1 0x6 ADD DUP2 SWAP1 SSTORE POP POP JUMP JUMPDEST PUSH1 0x0 PUSH2 0x1502 DUP4 PUSH1 0x0 ADD PUSH1 0x4 SWAP1 SLOAD SWAP1 PUSH2 0x100 EXP SWAP1 DIV PUSH1 0xFF AND DUP5 PUSH1 0x0 ADD PUSH1 0xD SWAP1 SLOAD SWAP1 PUSH2 0x100 EXP SWAP1 DIV PUSH4 0xFFFFFFFF AND DUP5 PUSH2 0x1ABF JUMP JUMPDEST ISZERO PUSH2 0x1512 JUMPI PUSH2 0x1511 DUP4 DUP4 PUSH2 0x1B84 JUMP JUMPDEST JUMPDEST PUSH1 0x0 DUP4 PUSH1 0x0 ADD PUSH1 0x9 SWAP1 SLOAD SWAP1 PUSH2 0x100 EXP SWAP1 DIV PUSH4 0xFFFFFFFF AND PUSH4 0xFFFFFFFF AND GT ISZERO PUSH2 0x153E JUMPI PUSH1 0x1 SWAP1 POP PUSH2 0x1543 JUMP JUMPDEST PUSH1 0x0 SWAP1 POP JUMPDEST SWAP3 SWAP2 POP POP JUMP JUMPDEST PUSH1 0x0 DUP1 DUP4 PUSH1 0x20 ADD MLOAD SWAP1 POP PUSH1 0x21 PUSH1 0xF8 SHL DUP2 PUSH1 0x0 DUP2 MLOAD DUP2 LT PUSH2 0x156C JUMPI PUSH2 0x156B PUSH2 0x2A92 JUMP JUMPDEST JUMPDEST PUSH1 0x20 ADD ADD MLOAD PUSH1 0xF8 SHR PUSH1 0xF8 SHL PUSH31 0xFFFFFFFFFFFFFFFFFFFFFFFFFFFFFFFFFFFFFFFFFFFFFFFFFFFFFFFFFFFFFF NOT AND SUB PUSH2 0x15AE JUMPI DUP4 PUSH1 0x40 ADD MLOAD DUP4 EQ ISZERO SWAP2 POP POP PUSH2 0x1735 JUMP JUMPDEST PUSH1 0x3D PUSH1 0xF8 SHL DUP2 PUSH1 0x0 DUP2 MLOAD DUP2 LT PUSH2 0x15C7 JUMPI PUSH2 0x15C6 PUSH2 0x2A92 JUMP JUMPDEST JUMPDEST PUSH1 0x20 ADD ADD MLOAD PUSH1 0xF8 SHR PUSH1 0xF8 SHL PUSH31 0xFFFFFFFFFFFFFFFFFFFFFFFFFFFFFFFFFFFFFFFFFFFFFFFFFFFFFFFFFFFFFF NOT AND SUB PUSH2 0x1608 JUMPI DUP4 PUSH1 0x40 ADD MLOAD DUP4 EQ SWAP2 POP POP PUSH2 0x1735 JUMP JUMPDEST PUSH1 0x3C PUSH1 0xF8 SHL DUP2 PUSH1 0x0 DUP2 MLOAD DUP2 LT PUSH2 0x1621 JUMPI PUSH2 0x1620 PUSH2 0x2A92 JUMP JUMPDEST JUMPDEST PUSH1 0x20 ADD ADD MLOAD PUSH1 0xF8 SHR PUSH1 0xF8 SHL PUSH31 0xFFFFFFFFFFFFFFFFFFFFFFFFFFFFFFFFFFFFFFFFFFFFFFFFFFFFFFFFFFFFFF NOT AND SUB PUSH2 0x167B JUMPI PUSH1 0x2 DUP2 MLOAD SUB PUSH2 0x166C JUMPI DUP4 PUSH1 0x40 ADD MLOAD DUP4 SGT ISZERO SWAP2 POP POP PUSH2 0x1735 JUMP JUMPDEST DUP4 PUSH1 0x40 ADD MLOAD DUP4 SLT SWAP2 POP POP PUSH2 0x1735 JUMP JUMPDEST PUSH1 0x3E PUSH1 0xF8 SHL DUP2 PUSH1 0x0 DUP2 MLOAD DUP2 LT PUSH2 0x1694 JUMPI PUSH2 0x1693 PUSH2 0x2A92 JUMP JUMPDEST JUMPDEST PUSH1 0x20 ADD ADD MLOAD PUSH1 0xF8 SHR PUSH1 0xF8 SHL PUSH31 0xFFFFFFFFFFFFFFFFFFFFFFFFFFFFFFFFFFFFFFFFFFFFFFFFFFFFFFFFFFFFFF NOT AND SUB PUSH2 0x16EE JUMPI PUSH1 0x2 DUP2 MLOAD SUB PUSH2 0x16DF JUMPI DUP4 PUSH1 0x40 ADD MLOAD DUP4 SLT ISZERO SWAP2 POP POP PUSH2 0x1735 JUMP JUMPDEST DUP4 PUSH1 0x40 ADD MLOAD DUP4 SGT SWAP2 POP POP PUSH2 0x1735 JUMP JUMPDEST PUSH1 0x0 PUSH2 0x172F JUMPI PUSH1 0x40 MLOAD PUSH32 0x8C379A000000000000000000000000000000000000000000000000000000000 DUP2 MSTORE PUSH1 0x4 ADD PUSH2 0x1726 SWAP1 PUSH2 0x2ED8 JUMP JUMPDEST PUSH1 0x40 MLOAD DUP1 SWAP2 SUB SWAP1 REVERT JUMPDEST PUSH1 0x0 SWAP2 POP POP JUMPDEST SWAP3 SWAP2 POP POP JUMP JUMPDEST PUSH1 0x0 DUP1 DUP3 GT PUSH2 0x177F JUMPI PUSH1 0x40 MLOAD PUSH32 0x8C379A000000000000000000000000000000000000000000000000000000000 DUP2 MSTORE PUSH1 0x4 ADD PUSH2 0x1776 SWAP1 PUSH2 0x2F6A JUMP JUMPDEST PUSH1 0x40 MLOAD DUP1 SWAP2 SUB SWAP1 REVERT JUMPDEST PUSH2 0x17AF DUP5 PUSH1 0x3 ADD PUSH1 0x0 SWAP1 SLOAD SWAP1 PUSH2 0x100 EXP SWAP1 DIV PUSH1 0xFF AND DUP6 PUSH1 0x5 ADD PUSH1 0x0 SWAP1 SLOAD SWAP1 PUSH2 0x100 EXP SWAP1 DIV PUSH4 0xFFFFFFFF AND DUP6 PUSH2 0x1ABF JUMP JUMPDEST ISZERO PUSH2 0x1814 JUMPI DUP4 PUSH1 0x2 ADD SLOAD DUP5 PUSH1 0x4 ADD DUP2 SWAP1 SSTORE POP PUSH2 0x17F1 DUP5 PUSH1 0x3 ADD PUSH1 0x1 SWAP1 SLOAD SWAP1 PUSH2 0x100 EXP SWAP1 DIV PUSH4 0xFFFFFFFF AND DUP6 PUSH1 0x3 ADD PUSH1 0x0 SWAP1 SLOAD SWAP1 PUSH2 0x100 EXP SWAP1 DIV PUSH1 0xFF AND DUP6 PUSH2 0x1C11 JUMP JUMPDEST DUP5 PUSH1 0x5 ADD PUSH1 0x0 PUSH2 0x100 EXP DUP2 SLOAD DUP2 PUSH4 0xFFFFFFFF MUL NOT AND SWAP1 DUP4 PUSH4 0xFFFFFFFF AND MUL OR SWAP1 SSTORE POP JUMPDEST DUP4 PUSH1 0x4 ADD SLOAD DUP3 GT PUSH2 0x1831 JUMPI DUP2 DUP5 PUSH1 0x6 ADD DUP2 SWAP1 SSTORE POP PUSH1 0x1 SWAP1 POP PUSH2 0x1836 JUMP JUMPDEST PUSH1 0x0 SWAP1 POP JUMPDEST SWAP4 SWAP3 POP POP POP JUMP JUMPDEST DUP1 PUSH1 0x0 PUSH2 0x184F DUP3 PUSH4 0xFFFFFFFF AND PUSH2 0x195F JUMP JUMPDEST SWAP1 POP PUSH1 0xA DUP2 MLOAD GT ISZERO PUSH2 0x1860 JUMPI PUSH1 0x0 DUP1 REVERT JUMPDEST DUP4 PUSH1 0x0 ADD PUSH1 0x4 SWAP1 SLOAD SWAP1 PUSH2 0x100 EXP SWAP1 DIV PUSH4 0xFFFFFFFF AND DUP4 PUSH2 0x1880 SWAP2 SWAP1 PUSH2 0x2F8A JUMP JUMPDEST DUP5 PUSH1 0x0 ADD PUSH1 0x0 PUSH2 0x100 EXP DUP2 SLOAD DUP2 PUSH4 0xFFFFFFFF MUL NOT AND SWAP1 DUP4 PUSH4 0xFFFFFFFF AND MUL OR SWAP1 SSTORE POP POP POP POP POP JUMP JUMPDEST PUSH1 0x0 PUSH1 0x4 PUSH1 0xFF AND DUP3 PUSH1 0xFF AND GT ISZERO PUSH2 0x18F4 JUMPI PUSH1 0x40 MLOAD PUSH32 0x8C379A000000000000000000000000000000000000000000000000000000000 DUP2 MSTORE PUSH1 0x4 ADD PUSH2 0x18EB SWAP1 PUSH2 0x3036 JUMP JUMPDEST PUSH1 0x40 MLOAD DUP1 SWAP2 SUB SWAP1 REVERT JUMPDEST PUSH1 0x0 PUSH1 0xFF AND DUP3 PUSH1 0xFF AND SUB PUSH2 0x190B JUMPI PUSH1 0x1 SWAP1 POP PUSH2 0x195A JUMP JUMPDEST PUSH1 0x1 PUSH1 0xFF AND DUP3 PUSH1 0xFF AND SUB PUSH2 0x1922 JUMPI PUSH1 0x3C SWAP1 POP PUSH2 0x195A JUMP JUMPDEST PUSH1 0x2 PUSH1 0xFF AND DUP3 PUSH1 0xFF AND SUB PUSH2 0x193A JUMPI PUSH2 0xE10 SWAP1 POP PUSH2 0x195A JUMP JUMPDEST PUSH1 0x3 PUSH1 0xFF AND DUP3 PUSH1 0xFF AND SUB PUSH2 0x1953 JUMPI PUSH3 0x15180 SWAP1 POP PUSH2 0x195A JUMP JUMPDEST PUSH3 0x93A80 SWAP1 POP JUMPDEST SWAP2 SWAP1 POP JUMP JUMPDEST PUSH1 0x60 PUSH1 0x0 DUP3 SUB PUSH2 0x19A6 JUMPI PUSH1 0x40 MLOAD DUP1 PUSH1 0x40 ADD PUSH1 0x40 MSTORE DUP1 PUSH1 0x1 DUP2 MSTORE PUSH1 0x20 ADD PUSH32 0x3000000000000000000000000000000000000000000000000000000000000000 DUP2 MSTORE POP SWAP1 POP PUSH2 0x1ABA JUMP JUMPDEST PUSH1 0x0 DUP3 SWAP1 POP PUSH1 0x0 JUMPDEST PUSH1 0x0 DUP3 EQ PUSH2 0x19D8 JUMPI DUP1 DUP1 PUSH2 0x19C1 SWAP1 PUSH2 0x3056 JUMP JUMPDEST SWAP2 POP POP PUSH1 0xA DUP3 PUSH2 0x19D1 SWAP2 SWAP1 PUSH2 0x30CD JUMP JUMPDEST SWAP2 POP PUSH2 0x19AE JUMP JUMPDEST PUSH1 0x0 DUP2 PUSH8 0xFFFFFFFFFFFFFFFF DUP2 GT ISZERO PUSH2 0x19F4 JUMPI PUSH2 0x19F3 PUSH2 0x217E JUMP JUMPDEST JUMPDEST PUSH1 0x40 MLOAD SWAP1 DUP1 DUP3 MSTORE DUP1 PUSH1 0x1F ADD PUSH1 0x1F NOT AND PUSH1 0x20 ADD DUP3 ADD PUSH1 0x40 MSTORE DUP1 ISZERO PUSH2 0x1A26 JUMPI DUP2 PUSH1 0x20 ADD PUSH1 0x1 DUP3 MUL DUP1 CALLDATASIZE DUP4 CALLDATACOPY DUP1 DUP3 ADD SWAP2 POP POP SWAP1 POP JUMPDEST POP SWAP1 POP JUMPDEST PUSH1 0x0 DUP6 EQ PUSH2 0x1AB3 JUMPI PUSH1 0x1 DUP3 PUSH2 0x1A3F SWAP2 SWAP1 PUSH2 0x2C94 JUMP JUMPDEST SWAP2 POP PUSH1 0xA DUP6 PUSH2 0x1A4E SWAP2 SWAP1 PUSH2 0x30FE JUMP JUMPDEST PUSH1 0x30 PUSH2 0x1A5A SWAP2 SWAP1 PUSH2 0x312F JUMP JUMPDEST PUSH1 0xF8 SHL DUP2 DUP4 DUP2 MLOAD DUP2 LT PUSH2 0x1A70 JUMPI PUSH2 0x1A6F PUSH2 0x2A92 JUMP JUMPDEST JUMPDEST PUSH1 0x20 ADD ADD SWAP1 PUSH31 0xFFFFFFFFFFFFFFFFFFFFFFFFFFFFFFFFFFFFFFFFFFFFFFFFFFFFFFFFFFFFFF NOT AND SWAP1 DUP2 PUSH1 0x0 BYTE SWAP1 MSTORE8 POP PUSH1 0xA DUP6 PUSH2 0x1AAC SWAP2 SWAP1 PUSH2 0x30CD JUMP JUMPDEST SWAP5 POP PUSH2 0x1A2A JUMP JUMPDEST DUP1 SWAP4 POP POP POP POP JUMPDEST SWAP2 SWAP1 POP JUMP JUMPDEST PUSH1 0x0 DUP1 DUP5 SWAP1 POP PUSH1 0x4 PUSH1 0xFF AND DUP2 PUSH1 0xFF AND GT PUSH2 0x1AEB JUMPI DUP4 PUSH4 0xFFFFFFFF AND DUP4 PUSH4 0xFFFFFFFF AND LT ISZERO SWAP2 POP POP PUSH2 0x1B7D JUMP JUMPDEST PUSH1 0x5 PUSH1 0xFF AND DUP2 PUSH1 0xFF AND SUB PUSH2 0x1B53 JUMPI PUSH1 0x0 PUSH2 0x1B0A DUP5 PUSH4 0xFFFFFFFF AND PUSH2 0x1CA4 JUMP JUMPDEST POP SWAP2 POP POP PUSH1 0xD DUP6 PUSH4 0xFFFFFFFF AND EQ DUP1 ISZERO PUSH2 0x1B2A JUMPI POP PUSH1 0x1 DUP2 PUSH4 0xFFFFFFFF AND EQ JUMPDEST ISZERO PUSH2 0x1B3A JUMPI PUSH1 0x1 SWAP3 POP POP POP PUSH2 0x1B7D JUMP JUMPDEST DUP5 PUSH4 0xFFFFFFFF AND DUP2 PUSH4 0xFFFFFFFF AND LT ISZERO SWAP3 POP POP POP PUSH2 0x1B7D JUMP JUMPDEST PUSH1 0x0 PUSH2 0x1B64 DUP5 PUSH4 0xFFFFFFFF AND PUSH2 0x1CA4 JUMP JUMPDEST POP POP SWAP1 POP DUP5 PUSH4 0xFFFFFFFF AND DUP2 PUSH4 0xFFFFFFFF AND LT ISZERO SWAP3 POP POP POP JUMPDEST SWAP4 SWAP3 POP POP POP JUMP JUMPDEST DUP2 PUSH1 0x0 ADD PUSH1 0x0 SWAP1 SLOAD SWAP1 PUSH2 0x100 EXP SWAP1 DIV PUSH4 0xFFFFFFFF AND DUP3 PUSH1 0x0 ADD PUSH1 0x9 PUSH2 0x100 EXP DUP2 SLOAD DUP2 PUSH4 0xFFFFFFFF MUL NOT AND SWAP1 DUP4 PUSH4 0xFFFFFFFF AND MUL OR SWAP1 SSTORE POP PUSH2 0x1BEB DUP3 PUSH1 0x0 ADD PUSH1 0x5 SWAP1 SLOAD SWAP1 PUSH2 0x100 EXP SWAP1 DIV PUSH4 0xFFFFFFFF AND DUP4 PUSH1 0x0 ADD PUSH1 0x4 SWAP1 SLOAD SWAP1 PUSH2 0x100 EXP SWAP1 DIV PUSH1 0xFF AND DUP4 PUSH2 0x1C11 JUMP JUMPDEST DUP3 PUSH1 0x0 ADD PUSH1 0xD PUSH2 0x100 EXP DUP2 SLOAD DUP2 PUSH4 0xFFFFFFFF MUL NOT AND SWAP1 DUP4 PUSH4 0xFFFFFFFF AND MUL OR SWAP1 SSTORE POP POP POP JUMP JUMPDEST PUSH1 0x0 PUSH1 0x4 PUSH1 0xFF AND DUP4 PUSH1 0xFF AND GT PUSH2 0x1C33 JUMPI PUSH2 0x1C2C DUP4 DUP4 DUP7 PUSH2 0x1E57 JUMP JUMPDEST SWAP1 POP PUSH2 0x1C9D JUMP JUMPDEST PUSH1 0x5 PUSH1 0xFF AND DUP4 PUSH1 0xFF AND SUB PUSH2 0x1C71 JUMPI PUSH1 0x0 PUSH2 0x1C52 DUP4 PUSH4 0xFFFFFFFF AND PUSH2 0x1CA4 JUMP JUMPDEST POP PUSH4 0xFFFFFFFF AND SWAP2 POP POP PUSH1 0x1 DUP2 PUSH2 0x1C69 SWAP2 SWAP1 PUSH2 0x312F JUMP JUMPDEST SWAP2 POP POP PUSH2 0x1C9D JUMP JUMPDEST PUSH1 0x0 PUSH2 0x1C82 DUP4 PUSH4 0xFFFFFFFF AND PUSH2 0x1CA4 JUMP JUMPDEST POP POP PUSH4 0xFFFFFFFF AND SWAP1 POP PUSH1 0x1 DUP2 PUSH2 0x1C99 SWAP2 SWAP1 PUSH2 0x312F JUMP JUMPDEST SWAP2 POP POP JUMPDEST SWAP4 SWAP3 POP POP POP JUMP JUMPDEST PUSH1 0x0 DUP1 PUSH1 0x0 DUP1 PUSH3 0x15180 PUSH4 0xFFFFFFFF AND DUP6 PUSH2 0x1CBF SWAP2 SWAP1 PUSH2 0x30CD JUMP JUMPDEST SWAP1 POP PUSH1 0x0 PUSH3 0x253D8C PUSH3 0x10BD9 DUP4 PUSH2 0x1CD6 SWAP2 SWAP1 PUSH2 0x2F8A JUMP JUMPDEST PUSH2 0x1CE0 SWAP2 SWAP1 PUSH2 0x2F8A JUMP JUMPDEST SWAP1 POP PUSH1 0x0 PUSH3 0x23AB1 DUP3 PUSH1 0x4 PUSH2 0x1CF5 SWAP2 SWAP1 PUSH2 0x3185 JUMP JUMPDEST PUSH2 0x1CFF SWAP2 SWAP1 PUSH2 0x31C3 JUMP JUMPDEST SWAP1 POP PUSH1 0x4 PUSH1 0x3 DUP3 PUSH3 0x23AB1 PUSH2 0x1D14 SWAP2 SWAP1 PUSH2 0x3185 JUMP JUMPDEST PUSH2 0x1D1E SWAP2 SWAP1 PUSH2 0x2F8A JUMP JUMPDEST PUSH2 0x1D28 SWAP2 SWAP1 PUSH2 0x31C3 JUMP JUMPDEST DUP3 PUSH2 0x1D33 SWAP2 SWAP1 PUSH2 0x2D5A JUMP JUMPDEST SWAP2 POP PUSH1 0x0 PUSH3 0x164B09 PUSH1 0x1 DUP5 PUSH2 0x1D48 SWAP2 SWAP1 PUSH2 0x2F8A JUMP JUMPDEST PUSH2 0xFA0 PUSH2 0x1D55 SWAP2 SWAP1 PUSH2 0x3185 JUMP JUMPDEST PUSH2 0x1D5F SWAP2 SWAP1 PUSH2 0x31C3 JUMP JUMPDEST SWAP1 POP PUSH1 0x1F PUSH1 0x4 DUP3 PUSH2 0x5B5 PUSH2 0x1D73 SWAP2 SWAP1 PUSH2 0x3185 JUMP JUMPDEST PUSH2 0x1D7D SWAP2 SWAP1 PUSH2 0x31C3 JUMP JUMPDEST DUP5 PUSH2 0x1D88 SWAP2 SWAP1 PUSH2 0x2D5A JUMP JUMPDEST PUSH2 0x1D92 SWAP2 SWAP1 PUSH2 0x2F8A JUMP JUMPDEST SWAP3 POP PUSH1 0x0 PUSH2 0x98F DUP5 PUSH1 0x50 PUSH2 0x1DA6 SWAP2 SWAP1 PUSH2 0x3185 JUMP JUMPDEST PUSH2 0x1DB0 SWAP2 SWAP1 PUSH2 0x31C3 JUMP JUMPDEST SWAP1 POP PUSH1 0x0 PUSH1 0x50 DUP3 PUSH2 0x98F PUSH2 0x1DC4 SWAP2 SWAP1 PUSH2 0x3185 JUMP JUMPDEST PUSH2 0x1DCE SWAP2 SWAP1 PUSH2 0x31C3 JUMP JUMPDEST DUP6 PUSH2 0x1DD9 SWAP2 SWAP1 PUSH2 0x2D5A JUMP JUMPDEST SWAP1 POP PUSH1 0xB DUP3 PUSH2 0x1DE8 SWAP2 SWAP1 PUSH2 0x31C3 JUMP JUMPDEST SWAP5 POP DUP5 PUSH1 0xC PUSH2 0x1DF7 SWAP2 SWAP1 PUSH2 0x3185 JUMP JUMPDEST PUSH1 0x2 DUP4 PUSH2 0x1E04 SWAP2 SWAP1 PUSH2 0x2F8A JUMP JUMPDEST PUSH2 0x1E0E SWAP2 SWAP1 PUSH2 0x2D5A JUMP JUMPDEST SWAP2 POP DUP5 DUP4 PUSH1 0x31 DUP7 PUSH2 0x1E1F SWAP2 SWAP1 PUSH2 0x2D5A JUMP JUMPDEST PUSH1 0x64 PUSH2 0x1E2B SWAP2 SWAP1 PUSH2 0x3185 JUMP JUMPDEST PUSH2 0x1E35 SWAP2 SWAP1 PUSH2 0x2F8A JUMP JUMPDEST PUSH2 0x1E3F SWAP2 SWAP1 PUSH2 0x2F8A JUMP JUMPDEST SWAP3 POP DUP3 SWAP9 POP DUP2 SWAP8 POP DUP1 SWAP7 POP POP POP POP POP POP POP SWAP2 SWAP4 SWAP1 SWAP3 POP JUMP JUMPDEST PUSH1 0x0 DUP1 DUP3 DUP5 PUSH2 0x1E66 SWAP2 SWAP1 PUSH2 0x31F4 JUMP JUMPDEST SWAP1 POP PUSH1 0x0 DUP2 DUP5 PUSH2 0x1E76 SWAP2 SWAP1 PUSH2 0x2D5A JUMP JUMPDEST SWAP1 POP PUSH1 0x4 PUSH1 0xFF AND DUP7 PUSH1 0xFF AND SUB PUSH2 0x1EA9 JUMPI PUSH3 0x3F480 DUP2 DUP7 PUSH2 0x1E96 SWAP2 SWAP1 PUSH2 0x2F8A JUMP JUMPDEST PUSH2 0x1EA0 SWAP2 SWAP1 PUSH2 0x2F8A JUMP JUMPDEST SWAP3 POP POP POP PUSH2 0x1EBA JUMP JUMPDEST DUP1 DUP6 PUSH2 0x1EB5 SWAP2 SWAP1 PUSH2 0x2F8A JUMP JUMPDEST SWAP3 POP POP POP JUMPDEST SWAP4 SWAP3 POP POP POP JUMP JUMPDEST POP DUP1 SLOAD PUSH2 0x1ECD SWAP1 PUSH2 0x2BC8 JUMP JUMPDEST PUSH1 0x0 DUP3 SSTORE DUP1 PUSH1 0x1F LT PUSH2 0x1EDF JUMPI POP PUSH2 0x1EFE JUMP JUMPDEST PUSH1 0x1F ADD PUSH1 0x20 SWAP1 DIV SWAP1 PUSH1 0x0 MSTORE PUSH1 0x20 PUSH1 0x0 KECCAK256 SWAP1 DUP2 ADD SWAP1 PUSH2 0x1EFD SWAP2 SWAP1 PUSH2 0x2132 JUMP JUMPDEST JUMPDEST POP JUMP JUMPDEST DUP3 DUP1 SLOAD PUSH2 0x1F0D SWAP1 PUSH2 0x2BC8 JUMP JUMPDEST SWAP1 PUSH1 0x0 MSTORE PUSH1 0x20 PUSH1 0x0 KECCAK256 SWAP1 PUSH1 0x1F ADD PUSH1 0x20 SWAP1 DIV DUP2 ADD SWAP3 DUP3 PUSH2 0x1F2F JUMPI PUSH1 0x0 DUP6 SSTORE PUSH2 0x1F76 JUMP JUMPDEST DUP3 PUSH1 0x1F LT PUSH2 0x1F48 JUMPI DUP1 MLOAD PUSH1 0xFF NOT AND DUP4 DUP1 ADD OR DUP6 SSTORE PUSH2 0x1F76 JUMP JUMPDEST DUP3 DUP1 ADD PUSH1 0x1 ADD DUP6 SSTORE DUP3 ISZERO PUSH2 0x1F76 JUMPI SWAP2 DUP3 ADD JUMPDEST DUP3 DUP2 GT ISZERO PUSH2 0x1F75 JUMPI DUP3 MLOAD DUP3 SSTORE SWAP2 PUSH1 0x20 ADD SWAP2 SWAP1 PUSH1 0x1 ADD SWAP1 PUSH2 0x1F5A JUMP JUMPDEST JUMPDEST POP SWAP1 POP PUSH2 0x1F83 SWAP2 SWAP1 PUSH2 0x2132 JUMP JUMPDEST POP SWAP1 JUMP JUMPDEST PUSH1 0x40 MLOAD DUP1 PUSH1 0x60 ADD PUSH1 0x40 MSTORE DUP1 PUSH1 0x60 DUP2 MSTORE PUSH1 0x20 ADD PUSH1 0x0 PUSH20 0xFFFFFFFFFFFFFFFFFFFFFFFFFFFFFFFFFFFFFFFF AND DUP2 MSTORE PUSH1 0x20 ADD PUSH1 0x0 ISZERO ISZERO DUP2 MSTORE POP SWAP1 JUMP JUMPDEST PUSH1 0x40 MLOAD DUP1 PUSH1 0xA0 ADD PUSH1 0x40 MSTORE DUP1 PUSH1 0x0 PUSH4 0xFFFFFFFF AND DUP2 MSTORE PUSH1 0x20 ADD PUSH1 0x0 PUSH1 0xFF AND DUP2 MSTORE PUSH1 0x20 ADD PUSH1 0x0 PUSH4 0xFFFFFFFF AND DUP2 MSTORE PUSH1 0x20 ADD PUSH1 0x0 PUSH4 0xFFFFFFFF AND DUP2 MSTORE PUSH1 0x20 ADD PUSH1 0x0 PUSH4 0xFFFFFFFF AND DUP2 MSTORE POP SWAP1 JUMP JUMPDEST PUSH1 0x40 MLOAD DUP1 PUSH1 0x60 ADD PUSH1 0x40 MSTORE DUP1 PUSH1 0x60 DUP2 MSTORE PUSH1 0x20 ADD PUSH1 0x60 DUP2 MSTORE PUSH1 0x20 ADD PUSH1 0x0 DUP2 MSTORE POP SWAP1 JUMP JUMPDEST PUSH1 0x40 MLOAD DUP1 PUSH2 0x100 ADD PUSH1 0x40 MSTORE DUP1 PUSH1 0x60 DUP2 MSTORE PUSH1 0x20 ADD PUSH1 0x60 DUP2 MSTORE PUSH1 0x20 ADD PUSH1 0x0 DUP2 MSTORE PUSH1 0x20 ADD PUSH1 0x0 PUSH1 0xFF AND DUP2 MSTORE PUSH1 0x20 ADD PUSH1 0x0 PUSH4 0xFFFFFFFF AND DUP2 MSTORE PUSH1 0x20 ADD PUSH1 0x0 DUP2 MSTORE PUSH1 0x20 ADD PUSH1 0x0 PUSH4 0xFFFFFFFF AND DUP2 MSTORE PUSH1 0x20 ADD PUSH1 0x0 DUP2 MSTORE POP SWAP1 JUMP JUMPDEST PUSH1 0x40 MLOAD DUP1 PUSH1 0x40 ADD PUSH1 0x40 MSTORE DUP1 PUSH1 0x0 PUSH4 0xFFFFFFFF AND DUP2 MSTORE PUSH1 0x20 ADD PUSH1 0x0 PUSH4 0xFFFFFFFF AND DUP2 MSTORE POP SWAP1 JUMP JUMPDEST DUP3 DUP1 SLOAD PUSH2 0x20B1 SWAP1 PUSH2 0x2BC8 JUMP JUMPDEST SWAP1 PUSH1 0x0 MSTORE PUSH1 0x20 PUSH1 0x0 KECCAK256 SWAP1 PUSH1 0x1F ADD PUSH1 0x20 SWAP1 DIV DUP2 ADD SWAP3 DUP3 PUSH2 0x20D3 JUMPI PUSH1 0x0 DUP6 SSTORE PUSH2 0x2121 JUMP JUMPDEST DUP3 PUSH1 0x1F LT PUSH2 0x20E4 JUMPI DUP1 SLOAD DUP6 SSTORE PUSH2 0x2121 JUMP JUMPDEST DUP3 DUP1 ADD PUSH1 0x1 ADD DUP6 SSTORE DUP3 ISZERO PUSH2 0x2121 JUMPI PUSH1 0x0 MSTORE PUSH1 0x20 PUSH1 0x0 KECCAK256 SWAP2 PUSH1 0x1F ADD PUSH1 0x20 SWAP1 DIV DUP3 ADD JUMPDEST DUP3 DUP2 GT ISZERO PUSH2 0x2120 JUMPI DUP3 SLOAD DUP3 SSTORE SWAP2 PUSH1 0x1 ADD SWAP2 SWAP1 PUSH1 0x1 ADD SWAP1 PUSH2 0x2105 JUMP JUMPDEST JUMPDEST POP SWAP1 POP PUSH2 0x212E SWAP2 SWAP1 PUSH2 0x2132 JUMP JUMPDEST POP SWAP1 JUMP JUMPDEST JUMPDEST DUP1 DUP3 GT ISZERO PUSH2 0x214B JUMPI PUSH1 0x0 DUP2 PUSH1 0x0 SWAP1 SSTORE POP PUSH1 0x1 ADD PUSH2 0x2133 JUMP JUMPDEST POP SWAP1 JUMP JUMPDEST PUSH1 0x0 PUSH1 0x40 MLOAD SWAP1 POP SWAP1 JUMP JUMPDEST PUSH1 0x0 DUP1 REVERT JUMPDEST PUSH1 0x0 DUP1 REVERT JUMPDEST PUSH1 0x0 DUP1 REVERT JUMPDEST PUSH1 0x0 DUP1 REVERT JUMPDEST PUSH1 0x0 PUSH1 0x1F NOT PUSH1 0x1F DUP4 ADD AND SWAP1 POP SWAP2 SWAP1 POP JUMP JUMPDEST PUSH32 0x4E487B7100000000000000000000000000000000000000000000000000000000 PUSH1 0x0 MSTORE PUSH1 0x41 PUSH1 0x4 MSTORE PUSH1 0x24 PUSH1 0x0 REVERT JUMPDEST PUSH2 0x21B6 DUP3 PUSH2 0x216D JUMP JUMPDEST DUP2 ADD DUP2 DUP2 LT PUSH8 0xFFFFFFFFFFFFFFFF DUP3 GT OR ISZERO PUSH2 0x21D5 JUMPI PUSH2 0x21D4 PUSH2 0x217E JUMP JUMPDEST JUMPDEST DUP1 PUSH1 0x40 MSTORE POP POP POP JUMP JUMPDEST PUSH1 0x0 PUSH2 0x21E8 PUSH2 0x214F JUMP JUMPDEST SWAP1 POP PUSH2 0x21F4 DUP3 DUP3 PUSH2 0x21AD JUMP JUMPDEST SWAP2 SWAP1 POP JUMP JUMPDEST PUSH1 0x0 PUSH8 0xFFFFFFFFFFFFFFFF DUP3 GT ISZERO PUSH2 0x2214 JUMPI PUSH2 0x2213 PUSH2 0x217E JUMP JUMPDEST JUMPDEST PUSH2 0x221D DUP3 PUSH2 0x216D JUMP JUMPDEST SWAP1 POP PUSH1 0x20 DUP2 ADD SWAP1 POP SWAP2 SWAP1 POP JUMP JUMPDEST DUP3 DUP2 DUP4 CALLDATACOPY PUSH1 0x0 DUP4 DUP4 ADD MSTORE POP POP POP JUMP JUMPDEST PUSH1 0x0 PUSH2 0x224C PUSH2 0x2247 DUP5 PUSH2 0x21F9 JUMP JUMPDEST PUSH2 0x21DE JUMP JUMPDEST SWAP1 POP DUP3 DUP2 MSTORE PUSH1 0x20 DUP2 ADD DUP5 DUP5 DUP5 ADD GT ISZERO PUSH2 0x2268 JUMPI PUSH2 0x2267 PUSH2 0x2168 JUMP JUMPDEST JUMPDEST PUSH2 0x2273 DUP5 DUP3 DUP6 PUSH2 0x222A JUMP JUMPDEST POP SWAP4 SWAP3 POP POP POP JUMP JUMPDEST PUSH1 0x0 DUP3 PUSH1 0x1F DUP4 ADD SLT PUSH2 0x2290 JUMPI PUSH2 0x228F PUSH2 0x2163 JUMP JUMPDEST JUMPDEST DUP2 CALLDATALOAD PUSH2 0x22A0 DUP5 DUP3 PUSH1 0x20 DUP7 ADD PUSH2 0x2239 JUMP JUMPDEST SWAP2 POP POP SWAP3 SWAP2 POP POP JUMP JUMPDEST PUSH1 0x0 PUSH20 0xFFFFFFFFFFFFFFFFFFFFFFFFFFFFFFFFFFFFFFFF DUP3 AND SWAP1 POP SWAP2 SWAP1 POP JUMP JUMPDEST PUSH1 0x0 PUSH2 0x22D4 DUP3 PUSH2 0x22A9 JUMP JUMPDEST SWAP1 POP SWAP2 SWAP1 POP JUMP JUMPDEST PUSH2 0x22E4 DUP2 PUSH2 0x22C9 JUMP JUMPDEST DUP2 EQ PUSH2 0x22EF JUMPI PUSH1 0x0 DUP1 REVERT JUMPDEST POP JUMP JUMPDEST PUSH1 0x0 DUP2 CALLDATALOAD SWAP1 POP PUSH2 0x2301 DUP2 PUSH2 0x22DB JUMP JUMPDEST SWAP3 SWAP2 POP POP JUMP JUMPDEST PUSH1 0x0 DUP1 PUSH1 0x40 DUP4 DUP6 SUB SLT ISZERO PUSH2 0x231E JUMPI PUSH2 0x231D PUSH2 0x2159 JUMP JUMPDEST JUMPDEST PUSH1 0x0 DUP4 ADD CALLDATALOAD PUSH8 0xFFFFFFFFFFFFFFFF DUP2 GT ISZERO PUSH2 0x233C JUMPI PUSH2 0x233B PUSH2 0x215E JUMP JUMPDEST JUMPDEST PUSH2 0x2348 DUP6 DUP3 DUP7 ADD PUSH2 0x227B JUMP JUMPDEST SWAP3 POP POP PUSH1 0x20 PUSH2 0x2359 DUP6 DUP3 DUP7 ADD PUSH2 0x22F2 JUMP JUMPDEST SWAP2 POP POP SWAP3 POP SWAP3 SWAP1 POP JUMP JUMPDEST PUSH1 0x0 DUP2 ISZERO ISZERO SWAP1 POP SWAP2 SWAP1 POP JUMP JUMPDEST PUSH2 0x2378 DUP2 PUSH2 0x2363 JUMP JUMPDEST DUP3 MSTORE POP POP JUMP JUMPDEST PUSH1 0x0 PUSH1 0x20 DUP3 ADD SWAP1 POP PUSH2 0x2393 PUSH1 0x0 DUP4 ADD DUP5 PUSH2 0x236F JUMP JUMPDEST SWAP3 SWAP2 POP POP JUMP JUMPDEST PUSH2 0x23A2 DUP2 PUSH2 0x22C9 JUMP JUMPDEST DUP3 MSTORE POP POP JUMP JUMPDEST PUSH1 0x0 PUSH1 0x20 DUP3 ADD SWAP1 POP PUSH2 0x23BD PUSH1 0x0 DUP4 ADD DUP5 PUSH2 0x2399 JUMP JUMPDEST SWAP3 SWAP2 POP POP JUMP JUMPDEST PUSH1 0x0 PUSH4 0xFFFFFFFF DUP3 AND SWAP1 POP SWAP2 SWAP1 POP JUMP JUMPDEST PUSH2 0x23DC DUP2 PUSH2 0x23C3 JUMP JUMPDEST DUP2 EQ PUSH2 0x23E7 JUMPI PUSH1 0x0 DUP1 REVERT JUMPDEST POP JUMP JUMPDEST PUSH1 0x0 DUP2 CALLDATALOAD SWAP1 POP PUSH2 0x23F9 DUP2 PUSH2 0x23D3 JUMP JUMPDEST SWAP3 SWAP2 POP POP JUMP JUMPDEST PUSH1 0x0 PUSH1 0x20 DUP3 DUP5 SUB SLT ISZERO PUSH2 0x2415 JUMPI PUSH2 0x2414 PUSH2 0x2159 JUMP JUMPDEST JUMPDEST PUSH1 0x0 PUSH2 0x2423 DUP5 DUP3 DUP6 ADD PUSH2 0x23EA JUMP JUMPDEST SWAP2 POP POP SWAP3 SWAP2 POP POP JUMP JUMPDEST PUSH1 0x0 PUSH8 0xFFFFFFFFFFFFFFFF DUP3 GT ISZERO PUSH2 0x2447 JUMPI PUSH2 0x2446 PUSH2 0x217E JUMP JUMPDEST JUMPDEST PUSH1 0x20 DUP3 MUL SWAP1 POP PUSH1 0x20 DUP2 ADD SWAP1 POP SWAP2 SWAP1 POP JUMP JUMPDEST PUSH1 0x0 DUP1 REVERT JUMPDEST PUSH1 0x0 DUP2 SWAP1 POP SWAP2 SWAP1 POP JUMP JUMPDEST PUSH2 0x2470 DUP2 PUSH2 0x245D JUMP JUMPDEST DUP2 EQ PUSH2 0x247B JUMPI PUSH1 0x0 DUP1 REVERT JUMPDEST POP JUMP JUMPDEST PUSH1 0x0 DUP2 CALLDATALOAD SWAP1 POP PUSH2 0x248D DUP2 PUSH2 0x2467 JUMP JUMPDEST SWAP3 SWAP2 POP POP JUMP JUMPDEST PUSH1 0x0 PUSH2 0x24A6 PUSH2 0x24A1 DUP5 PUSH2 0x242C JUMP JUMPDEST PUSH2 0x21DE JUMP JUMPDEST SWAP1 POP DUP1 DUP4 DUP3 MSTORE PUSH1 0x20 DUP3 ADD SWAP1 POP PUSH1 0x20 DUP5 MUL DUP4 ADD DUP6 DUP2 GT ISZERO PUSH2 0x24C9 JUMPI PUSH2 0x24C8 PUSH2 0x2458 JUMP JUMPDEST JUMPDEST DUP4 JUMPDEST DUP2 DUP2 LT ISZERO PUSH2 0x24F2 JUMPI DUP1 PUSH2 0x24DE DUP9 DUP3 PUSH2 0x247E JUMP JUMPDEST DUP5 MSTORE PUSH1 0x20 DUP5 ADD SWAP4 POP POP PUSH1 0x20 DUP2 ADD SWAP1 POP PUSH2 0x24CB JUMP JUMPDEST POP POP POP SWAP4 SWAP3 POP POP POP JUMP JUMPDEST PUSH1 0x0 DUP3 PUSH1 0x1F DUP4 ADD SLT PUSH2 0x2511 JUMPI PUSH2 0x2510 PUSH2 0x2163 JUMP JUMPDEST JUMPDEST DUP2 CALLDATALOAD PUSH2 0x2521 DUP5 DUP3 PUSH1 0x20 DUP7 ADD PUSH2 0x2493 JUMP JUMPDEST SWAP2 POP POP SWAP3 SWAP2 POP POP JUMP JUMPDEST PUSH1 0x0 PUSH8 0xFFFFFFFFFFFFFFFF DUP3 GT ISZERO PUSH2 0x2545 JUMPI PUSH2 0x2544 PUSH2 0x217E JUMP JUMPDEST JUMPDEST PUSH1 0x20 DUP3 MUL SWAP1 POP PUSH1 0x20 DUP2 ADD SWAP1 POP SWAP2 SWAP1 POP JUMP JUMPDEST PUSH1 0x0 DUP2 SWAP1 POP SWAP2 SWAP1 POP JUMP JUMPDEST PUSH2 0x2569 DUP2 PUSH2 0x2556 JUMP JUMPDEST DUP2 EQ PUSH2 0x2574 JUMPI PUSH1 0x0 DUP1 REVERT JUMPDEST POP JUMP JUMPDEST PUSH1 0x0 DUP2 CALLDATALOAD SWAP1 POP PUSH2 0x2586 DUP2 PUSH2 0x2560 JUMP JUMPDEST SWAP3 SWAP2 POP POP JUMP JUMPDEST PUSH1 0x0 PUSH2 0x259F PUSH2 0x259A DUP5 PUSH2 0x252A JUMP JUMPDEST PUSH2 0x21DE JUMP JUMPDEST SWAP1 POP DUP1 DUP4 DUP3 MSTORE PUSH1 0x20 DUP3 ADD SWAP1 POP PUSH1 0x20 DUP5 MUL DUP4 ADD DUP6 DUP2 GT ISZERO PUSH2 0x25C2 JUMPI PUSH2 0x25C1 PUSH2 0x2458 JUMP JUMPDEST JUMPDEST DUP4 JUMPDEST DUP2 DUP2 LT ISZERO PUSH2 0x25EB JUMPI DUP1 PUSH2 0x25D7 DUP9 DUP3 PUSH2 0x2577 JUMP JUMPDEST DUP5 MSTORE PUSH1 0x20 DUP5 ADD SWAP4 POP POP PUSH1 0x20 DUP2 ADD SWAP1 POP PUSH2 0x25C4 JUMP JUMPDEST POP POP POP SWAP4 SWAP3 POP POP POP JUMP JUMPDEST PUSH1 0x0 DUP3 PUSH1 0x1F DUP4 ADD SLT PUSH2 0x260A JUMPI PUSH2 0x2609 PUSH2 0x2163 JUMP JUMPDEST JUMPDEST DUP2 CALLDATALOAD PUSH2 0x261A DUP5 DUP3 PUSH1 0x20 DUP7 ADD PUSH2 0x258C JUMP JUMPDEST SWAP2 POP POP SWAP3 SWAP2 POP POP JUMP JUMPDEST PUSH1 0x0 DUP1 PUSH1 0x0 PUSH1 0x60 DUP5 DUP7 SUB SLT ISZERO PUSH2 0x263C JUMPI PUSH2 0x263B PUSH2 0x2159 JUMP JUMPDEST JUMPDEST PUSH1 0x0 PUSH2 0x264A DUP7 DUP3 DUP8 ADD PUSH2 0x23EA JUMP JUMPDEST SWAP4 POP POP PUSH1 0x20 DUP5 ADD CALLDATALOAD PUSH8 0xFFFFFFFFFFFFFFFF DUP2 GT ISZERO PUSH2 0x266B JUMPI PUSH2 0x266A PUSH2 0x215E JUMP JUMPDEST JUMPDEST PUSH2 0x2677 DUP7 DUP3 DUP8 ADD PUSH2 0x24FC JUMP JUMPDEST SWAP3 POP POP PUSH1 0x40 DUP5 ADD CALLDATALOAD PUSH8 0xFFFFFFFFFFFFFFFF DUP2 GT ISZERO PUSH2 0x2698 JUMPI PUSH2 0x2697 PUSH2 0x215E JUMP JUMPDEST JUMPDEST PUSH2 0x26A4 DUP7 DUP3 DUP8 ADD PUSH2 0x25F5 JUMP JUMPDEST SWAP2 POP POP SWAP3 POP SWAP3 POP SWAP3 JUMP JUMPDEST PUSH1 0x0 PUSH1 0x20 DUP3 DUP5 SUB SLT ISZERO PUSH2 0x26C4 JUMPI PUSH2 0x26C3 PUSH2 0x2159 JUMP JUMPDEST JUMPDEST PUSH1 0x0 PUSH2 0x26D2 DUP5 DUP3 DUP6 ADD PUSH2 0x22F2 JUMP JUMPDEST SWAP2 POP POP SWAP3 SWAP2 POP POP JUMP JUMPDEST PUSH1 0x0 DUP2 MLOAD SWAP1 POP SWAP2 SWAP1 POP JUMP JUMPDEST PUSH1 0x0 DUP3 DUP3 MSTORE PUSH1 0x20 DUP3 ADD SWAP1 POP SWAP3 SWAP2 POP POP JUMP JUMPDEST PUSH1 0x0 JUMPDEST DUP4 DUP2 LT ISZERO PUSH2 0x2715 JUMPI DUP1 DUP3 ADD MLOAD DUP2 DUP5 ADD MSTORE PUSH1 0x20 DUP2 ADD SWAP1 POP PUSH2 0x26FA JUMP JUMPDEST DUP4 DUP2 GT ISZERO PUSH2 0x2724 JUMPI PUSH1 0x0 DUP5 DUP5 ADD MSTORE JUMPDEST POP POP POP POP JUMP JUMPDEST PUSH1 0x0 PUSH2 0x2735 DUP3 PUSH2 0x26DB JUMP JUMPDEST PUSH2 0x273F DUP2 DUP6 PUSH2 0x26E6 JUMP JUMPDEST SWAP4 POP PUSH2 0x274F DUP2 DUP6 PUSH1 0x20 DUP7 ADD PUSH2 0x26F7 JUMP JUMPDEST PUSH2 0x2758 DUP2 PUSH2 0x216D JUMP JUMPDEST DUP5 ADD SWAP2 POP POP SWAP3 SWAP2 POP POP JUMP JUMPDEST PUSH2 0x276C DUP2 PUSH2 0x22C9 JUMP JUMPDEST DUP3 MSTORE POP POP JUMP JUMPDEST PUSH2 0x277B DUP2 PUSH2 0x2363 JUMP JUMPDEST DUP3 MSTORE POP POP JUMP JUMPDEST PUSH1 0x0 PUSH1 0x60 DUP4 ADD PUSH1 0x0 DUP4 ADD MLOAD DUP5 DUP3 SUB PUSH1 0x0 DUP7 ADD MSTORE PUSH2 0x279E DUP3 DUP3 PUSH2 0x272A JUMP JUMPDEST SWAP2 POP POP PUSH1 0x20 DUP4 ADD MLOAD PUSH2 0x27B3 PUSH1 0x20 DUP7 ADD DUP3 PUSH2 0x2763 JUMP JUMPDEST POP PUSH1 0x40 DUP4 ADD MLOAD PUSH2 0x27C6 PUSH1 0x40 DUP7 ADD DUP3 PUSH2 0x2772 JUMP JUMPDEST POP DUP1 SWAP2 POP POP SWAP3 SWAP2 POP POP JUMP JUMPDEST PUSH1 0x0 PUSH1 0x20 DUP3 ADD SWAP1 POP DUP2 DUP2 SUB PUSH1 0x0 DUP4 ADD MSTORE PUSH2 0x27EB DUP2 DUP5 PUSH2 0x2781 JUMP JUMPDEST SWAP1 POP SWAP3 SWAP2 POP POP JUMP JUMPDEST PUSH1 0x0 DUP3 DUP3 MSTORE PUSH1 0x20 DUP3 ADD SWAP1 POP SWAP3 SWAP2 POP POP JUMP JUMPDEST PUSH32 0x4F6E6C79207468652070726F636573732063616E206578656375746520746869 PUSH1 0x0 DUP3 ADD MSTORE PUSH32 0x73206F7065726174696F6E000000000000000000000000000000000000000000 PUSH1 0x20 DUP3 ADD MSTORE POP JUMP JUMPDEST PUSH1 0x0 PUSH2 0x2860 PUSH1 0x2B DUP4 PUSH2 0x27F3 JUMP JUMPDEST SWAP2 POP PUSH2 0x286B DUP3 PUSH2 0x2804 JUMP JUMPDEST PUSH1 0x40 DUP3 ADD SWAP1 POP SWAP2 SWAP1 POP JUMP JUMPDEST PUSH1 0x0 PUSH1 0x20 DUP3 ADD SWAP1 POP DUP2 DUP2 SUB PUSH1 0x0 DUP4 ADD MSTORE PUSH2 0x288F DUP2 PUSH2 0x2853 JUMP JUMPDEST SWAP1 POP SWAP2 SWAP1 POP JUMP JUMPDEST PUSH32 0x5468697320636F6E747261637420697320646561637469766174656400000000 PUSH1 0x0 DUP3 ADD MSTORE POP JUMP JUMPDEST PUSH1 0x0 PUSH2 0x28CC PUSH1 0x1C DUP4 PUSH2 0x27F3 JUMP JUMPDEST SWAP2 POP PUSH2 0x28D7 DUP3 PUSH2 0x2896 JUMP JUMPDEST PUSH1 0x20 DUP3 ADD SWAP1 POP SWAP2 SWAP1 POP JUMP JUMPDEST PUSH1 0x0 PUSH1 0x20 DUP3 ADD SWAP1 POP DUP2 DUP2 SUB PUSH1 0x0 DUP4 ADD MSTORE PUSH2 0x28FB DUP2 PUSH2 0x28BF JUMP JUMPDEST SWAP1 POP SWAP2 SWAP1 POP JUMP JUMPDEST PUSH32 0x4F6E6C79207468652070726F63657373206F7220746865206170706C69636174 PUSH1 0x0 DUP3 ADD MSTORE PUSH32 0x696F6E2063616E20657865637574652074686973206F7065726174696F6E0000 PUSH1 0x20 DUP3 ADD MSTORE POP JUMP JUMPDEST PUSH1 0x0 PUSH2 0x295E PUSH1 0x3E DUP4 PUSH2 0x27F3 JUMP JUMPDEST SWAP2 POP PUSH2 0x2969 DUP3 PUSH2 0x2902 JUMP JUMPDEST PUSH1 0x40 DUP3 ADD SWAP1 POP SWAP2 SWAP1 POP JUMP JUMPDEST PUSH1 0x0 PUSH1 0x20 DUP3 ADD SWAP1 POP DUP2 DUP2 SUB PUSH1 0x0 DUP4 ADD MSTORE PUSH2 0x298D DUP2 PUSH2 0x2951 JUMP JUMPDEST SWAP1 POP SWAP2 SWAP1 POP JUMP JUMPDEST PUSH32 0x4F6E6C7920746865206170706C69636174696F6E2063616E2065786563757465 PUSH1 0x0 DUP3 ADD MSTORE PUSH32 0x2074686973206F7065726174696F6E0000000000000000000000000000000000 PUSH1 0x20 DUP3 ADD MSTORE POP JUMP JUMPDEST PUSH1 0x0 PUSH2 0x29F0 PUSH1 0x2F DUP4 PUSH2 0x27F3 JUMP JUMPDEST SWAP2 POP PUSH2 0x29FB DUP3 PUSH2 0x2994 JUMP JUMPDEST PUSH1 0x40 DUP3 ADD SWAP1 POP SWAP2 SWAP1 POP JUMP JUMPDEST PUSH1 0x0 PUSH1 0x20 DUP3 ADD SWAP1 POP DUP2 DUP2 SUB PUSH1 0x0 DUP4 ADD MSTORE PUSH2 0x2A1F DUP2 PUSH2 0x29E3 JUMP JUMPDEST SWAP1 POP SWAP2 SWAP1 POP JUMP JUMPDEST PUSH32 0x54686520636F6E747261637420697320616C7265616479207369676E65640000 PUSH1 0x0 DUP3 ADD MSTORE POP JUMP JUMPDEST PUSH1 0x0 PUSH2 0x2A5C PUSH1 0x1E DUP4 PUSH2 0x27F3 JUMP JUMPDEST SWAP2 POP PUSH2 0x2A67 DUP3 PUSH2 0x2A26 JUMP JUMPDEST PUSH1 0x20 DUP3 ADD SWAP1 POP SWAP2 SWAP1 POP JUMP JUMPDEST PUSH1 0x0 PUSH1 0x20 DUP3 ADD SWAP1 POP DUP2 DUP2 SUB PUSH1 0x0 DUP4 ADD MSTORE PUSH2 0x2A8B DUP2 PUSH2 0x2A4F JUMP JUMPDEST SWAP1 POP SWAP2 SWAP1 POP JUMP JUMPDEST PUSH32 0x4E487B7100000000000000000000000000000000000000000000000000000000 PUSH1 0x0 MSTORE PUSH1 0x32 PUSH1 0x4 MSTORE PUSH1 0x24 PUSH1 0x0 REVERT JUMPDEST PUSH32 0x5375636365737366756C20657865637574696F6E210000000000000000000000 PUSH1 0x0 DUP3 ADD MSTORE POP JUMP JUMPDEST PUSH1 0x0 PUSH2 0x2AF7 PUSH1 0x15 DUP4 PUSH2 0x27F3 JUMP JUMPDEST SWAP2 POP PUSH2 0x2B02 DUP3 PUSH2 0x2AC1 JUMP JUMPDEST PUSH1 0x20 DUP3 ADD SWAP1 POP SWAP2 SWAP1 POP JUMP JUMPDEST PUSH1 0x0 PUSH1 0x20 DUP3 ADD SWAP1 POP DUP2 DUP2 SUB PUSH1 0x0 DUP4 ADD MSTORE PUSH2 0x2B26 DUP2 PUSH2 0x2AEA JUMP JUMPDEST SWAP1 POP SWAP2 SWAP1 POP JUMP JUMPDEST PUSH32 0x436F6E646974696F6E206E6F74206D6565740000000000000000000000000000 PUSH1 0x0 DUP3 ADD MSTORE POP JUMP JUMPDEST PUSH1 0x0 PUSH2 0x2B63 PUSH1 0x12 DUP4 PUSH2 0x27F3 JUMP JUMPDEST SWAP2 POP PUSH2 0x2B6E DUP3 PUSH2 0x2B2D JUMP JUMPDEST PUSH1 0x20 DUP3 ADD SWAP1 POP SWAP2 SWAP1 POP JUMP JUMPDEST PUSH1 0x0 PUSH1 0x20 DUP3 ADD SWAP1 POP DUP2 DUP2 SUB PUSH1 0x0 DUP4 ADD MSTORE PUSH2 0x2B92 DUP2 PUSH2 0x2B56 JUMP JUMPDEST SWAP1 POP SWAP2 SWAP1 POP JUMP JUMPDEST PUSH32 0x4E487B7100000000000000000000000000000000000000000000000000000000 PUSH1 0x0 MSTORE PUSH1 0x22 PUSH1 0x4 MSTORE PUSH1 0x24 PUSH1 0x0 REVERT JUMPDEST PUSH1 0x0 PUSH1 0x2 DUP3 DIV SWAP1 POP PUSH1 0x1 DUP3 AND DUP1 PUSH2 0x2BE0 JUMPI PUSH1 0x7F DUP3 AND SWAP2 POP JUMPDEST PUSH1 0x20 DUP3 LT DUP2 SUB PUSH2 0x2BF3 JUMPI PUSH2 0x2BF2 PUSH2 0x2B99 JUMP JUMPDEST JUMPDEST POP SWAP2 SWAP1 POP JUMP JUMPDEST PUSH32 0x45786365646564206E756D626572206F6620646F6375656D6E74730000000000 PUSH1 0x0 DUP3 ADD MSTORE POP JUMP JUMPDEST PUSH1 0x0 PUSH2 0x2C2F PUSH1 0x1B DUP4 PUSH2 0x27F3 JUMP JUMPDEST SWAP2 POP PUSH2 0x2C3A DUP3 PUSH2 0x2BF9 JUMP JUMPDEST PUSH1 0x20 DUP3 ADD SWAP1 POP SWAP2 SWAP1 POP JUMP JUMPDEST PUSH1 0x0 PUSH1 0x20 DUP3 ADD SWAP1 POP DUP2 DUP2 SUB PUSH1 0x0 DUP4 ADD MSTORE PUSH2 0x2C5E DUP2 PUSH2 0x2C22 JUMP JUMPDEST SWAP1 POP SWAP2 SWAP1 POP JUMP JUMPDEST PUSH32 0x4E487B7100000000000000000000000000000000000000000000000000000000 PUSH1 0x0 MSTORE PUSH1 0x11 PUSH1 0x4 MSTORE PUSH1 0x24 PUSH1 0x0 REVERT JUMPDEST PUSH1 0x0 PUSH2 0x2C9F DUP3 PUSH2 0x2556 JUMP JUMPDEST SWAP2 POP PUSH2 0x2CAA DUP4 PUSH2 0x2556 JUMP JUMPDEST SWAP3 POP DUP3 DUP3 LT ISZERO PUSH2 0x2CBD JUMPI PUSH2 0x2CBC PUSH2 0x2C65 JUMP JUMPDEST JUMPDEST DUP3 DUP3 SUB SWAP1 POP SWAP3 SWAP2 POP POP JUMP JUMPDEST PUSH32 0x5468657265206973206E6F20656E6454696D652073657420696E2074696D656F PUSH1 0x0 DUP3 ADD MSTORE PUSH32 0x7574000000000000000000000000000000000000000000000000000000000000 PUSH1 0x20 DUP3 ADD MSTORE POP JUMP JUMPDEST PUSH1 0x0 PUSH2 0x2D24 PUSH1 0x22 DUP4 PUSH2 0x27F3 JUMP JUMPDEST SWAP2 POP PUSH2 0x2D2F DUP3 PUSH2 0x2CC8 JUMP JUMPDEST PUSH1 0x40 DUP3 ADD SWAP1 POP SWAP2 SWAP1 POP JUMP JUMPDEST PUSH1 0x0 PUSH1 0x20 DUP3 ADD SWAP1 POP DUP2 DUP2 SUB PUSH1 0x0 DUP4 ADD MSTORE PUSH2 0x2D53 DUP2 PUSH2 0x2D17 JUMP JUMPDEST SWAP1 POP SWAP2 SWAP1 POP JUMP JUMPDEST PUSH1 0x0 PUSH2 0x2D65 DUP3 PUSH2 0x23C3 JUMP JUMPDEST SWAP2 POP PUSH2 0x2D70 DUP4 PUSH2 0x23C3 JUMP JUMPDEST SWAP3 POP DUP3 DUP3 LT ISZERO PUSH2 0x2D83 JUMPI PUSH2 0x2D82 PUSH2 0x2C65 JUMP JUMPDEST JUMPDEST DUP3 DUP3 SUB SWAP1 POP SWAP3 SWAP2 POP POP JUMP JUMPDEST PUSH32 0x546865726520696E206E6F20636F6E74656E7420746F2064656372656173652E PUSH1 0x0 DUP3 ADD MSTORE POP JUMP JUMPDEST PUSH1 0x0 PUSH2 0x2DC4 PUSH1 0x20 DUP4 PUSH2 0x27F3 JUMP JUMPDEST SWAP2 POP PUSH2 0x2DCF DUP3 PUSH2 0x2D8E JUMP JUMPDEST PUSH1 0x20 DUP3 ADD SWAP1 POP SWAP2 SWAP1 POP JUMP JUMPDEST PUSH1 0x0 PUSH1 0x20 DUP3 ADD SWAP1 POP DUP2 DUP2 SUB PUSH1 0x0 DUP4 ADD MSTORE PUSH2 0x2DF3 DUP2 PUSH2 0x2DB7 JUMP JUMPDEST SWAP1 POP SWAP2 SWAP1 POP JUMP JUMPDEST PUSH32 0x546865206D65737361676520636F6E74656E74206E756D626572206973206772 PUSH1 0x0 DUP3 ADD MSTORE PUSH32 0x6561746572207468616E207468652072656D61696E696E6720616D6F756E7400 PUSH1 0x20 DUP3 ADD MSTORE POP JUMP JUMPDEST PUSH1 0x0 PUSH2 0x2E56 PUSH1 0x3F DUP4 PUSH2 0x27F3 JUMP JUMPDEST SWAP2 POP PUSH2 0x2E61 DUP3 PUSH2 0x2DFA JUMP JUMPDEST PUSH1 0x40 DUP3 ADD SWAP1 POP SWAP2 SWAP1 POP JUMP JUMPDEST PUSH1 0x0 PUSH1 0x20 DUP3 ADD SWAP1 POP DUP2 DUP2 SUB PUSH1 0x0 DUP4 ADD MSTORE PUSH2 0x2E85 DUP2 PUSH2 0x2E49 JUMP JUMPDEST SWAP1 POP SWAP2 SWAP1 POP JUMP JUMPDEST PUSH32 0x436F6D70617269736F6E2073796D626F6C206973206E6F742076616C69640000 PUSH1 0x0 DUP3 ADD MSTORE POP JUMP JUMPDEST PUSH1 0x0 PUSH2 0x2EC2 PUSH1 0x1E DUP4 PUSH2 0x27F3 JUMP JUMPDEST SWAP2 POP PUSH2 0x2ECD DUP3 PUSH2 0x2E8C JUMP JUMPDEST PUSH1 0x20 DUP3 ADD SWAP1 POP SWAP2 SWAP1 POP JUMP JUMPDEST PUSH1 0x0 PUSH1 0x20 DUP3 ADD SWAP1 POP DUP2 DUP2 SUB PUSH1 0x0 DUP4 ADD MSTORE PUSH2 0x2EF1 DUP2 PUSH2 0x2EB5 JUMP JUMPDEST SWAP1 POP SWAP2 SWAP1 POP JUMP JUMPDEST PUSH32 0x54686520726573756C74206F66207468652078706174682073686F756C642062 PUSH1 0x0 DUP3 ADD MSTORE PUSH32 0x65206D6F7265207468616E203000000000000000000000000000000000000000 PUSH1 0x20 DUP3 ADD MSTORE POP JUMP JUMPDEST PUSH1 0x0 PUSH2 0x2F54 PUSH1 0x2D DUP4 PUSH2 0x27F3 JUMP JUMPDEST SWAP2 POP PUSH2 0x2F5F DUP3 PUSH2 0x2EF8 JUMP JUMPDEST PUSH1 0x40 DUP3 ADD SWAP1 POP SWAP2 SWAP1 POP JUMP JUMPDEST PUSH1 0x0 PUSH1 0x20 DUP3 ADD SWAP1 POP DUP2 DUP2 SUB PUSH1 0x0 DUP4 ADD MSTORE PUSH2 0x2F83 DUP2 PUSH2 0x2F47 JUMP JUMPDEST SWAP1 POP SWAP2 SWAP1 POP JUMP JUMPDEST PUSH1 0x0 PUSH2 0x2F95 DUP3 PUSH2 0x23C3 JUMP JUMPDEST SWAP2 POP PUSH2 0x2FA0 DUP4 PUSH2 0x23C3 JUMP JUMPDEST SWAP3 POP DUP3 PUSH4 0xFFFFFFFF SUB DUP3 GT ISZERO PUSH2 0x2FB9 JUMPI PUSH2 0x2FB8 PUSH2 0x2C65 JUMP JUMPDEST JUMPDEST DUP3 DUP3 ADD SWAP1 POP SWAP3 SWAP2 POP POP JUMP JUMPDEST PUSH32 0x546865206D6574686F642067657454696D65496E5365636F6E647320646F6573 PUSH1 0x0 DUP3 ADD MSTORE PUSH32 0x6E277420776F726B20666F72204D4F4E544820616E6420594541520000000000 PUSH1 0x20 DUP3 ADD MSTORE POP JUMP JUMPDEST PUSH1 0x0 PUSH2 0x3020 PUSH1 0x3B DUP4 PUSH2 0x27F3 JUMP JUMPDEST SWAP2 POP PUSH2 0x302B DUP3 PUSH2 0x2FC4 JUMP JUMPDEST PUSH1 0x40 DUP3 ADD SWAP1 POP SWAP2 SWAP1 POP JUMP JUMPDEST PUSH1 0x0 PUSH1 0x20 DUP3 ADD SWAP1 POP DUP2 DUP2 SUB PUSH1 0x0 DUP4 ADD MSTORE PUSH2 0x304F DUP2 PUSH2 0x3013 JUMP JUMPDEST SWAP1 POP SWAP2 SWAP1 POP JUMP JUMPDEST PUSH1 0x0 PUSH2 0x3061 DUP3 PUSH2 0x2556 JUMP JUMPDEST SWAP2 POP PUSH32 0xFFFFFFFFFFFFFFFFFFFFFFFFFFFFFFFFFFFFFFFFFFFFFFFFFFFFFFFFFFFFFFFF DUP3 SUB PUSH2 0x3093 JUMPI PUSH2 0x3092 PUSH2 0x2C65 JUMP JUMPDEST JUMPDEST PUSH1 0x1 DUP3 ADD SWAP1 POP SWAP2 SWAP1 POP JUMP JUMPDEST PUSH32 0x4E487B7100000000000000000000000000000000000000000000000000000000 PUSH1 0x0 MSTORE PUSH1 0x12 PUSH1 0x4 MSTORE PUSH1 0x24 PUSH1 0x0 REVERT JUMPDEST PUSH1 0x0 PUSH2 0x30D8 DUP3 PUSH2 0x2556 JUMP JUMPDEST SWAP2 POP PUSH2 0x30E3 DUP4 PUSH2 0x2556 JUMP JUMPDEST SWAP3 POP DUP3 PUSH2 0x30F3 JUMPI PUSH2 0x30F2 PUSH2 0x309E JUMP JUMPDEST JUMPDEST DUP3 DUP3 DIV SWAP1 POP SWAP3 SWAP2 POP POP JUMP JUMPDEST PUSH1 0x0 PUSH2 0x3109 DUP3 PUSH2 0x2556 JUMP JUMPDEST SWAP2 POP PUSH2 0x3114 DUP4 PUSH2 0x2556 JUMP JUMPDEST SWAP3 POP DUP3 PUSH2 0x3124 JUMPI PUSH2 0x3123 PUSH2 0x309E JUMP JUMPDEST JUMPDEST DUP3 DUP3 MOD SWAP1 POP SWAP3 SWAP2 POP POP JUMP JUMPDEST PUSH1 0x0 PUSH2 0x313A DUP3 PUSH2 0x2556 JUMP JUMPDEST SWAP2 POP PUSH2 0x3145 DUP4 PUSH2 0x2556 JUMP JUMPDEST SWAP3 POP DUP3 PUSH32 0xFFFFFFFFFFFFFFFFFFFFFFFFFFFFFFFFFFFFFFFFFFFFFFFFFFFFFFFFFFFFFFFF SUB DUP3 GT ISZERO PUSH2 0x317A JUMPI PUSH2 0x3179 PUSH2 0x2C65 JUMP JUMPDEST JUMPDEST DUP3 DUP3 ADD SWAP1 POP SWAP3 SWAP2 POP POP JUMP JUMPDEST PUSH1 0x0 PUSH2 0x3190 DUP3 PUSH2 0x23C3 JUMP JUMPDEST SWAP2 POP PUSH2 0x319B DUP4 PUSH2 0x23C3 JUMP JUMPDEST SWAP3 POP DUP2 PUSH4 0xFFFFFFFF DIV DUP4 GT DUP3 ISZERO ISZERO AND ISZERO PUSH2 0x31B8 JUMPI PUSH2 0x31B7 PUSH2 0x2C65 JUMP JUMPDEST JUMPDEST DUP3 DUP3 MUL SWAP1 POP SWAP3 SWAP2 POP POP JUMP JUMPDEST PUSH1 0x0 PUSH2 0x31CE DUP3 PUSH2 0x23C3 JUMP JUMPDEST SWAP2 POP PUSH2 0x31D9 DUP4 PUSH2 0x23C3 JUMP JUMPDEST SWAP3 POP DUP3 PUSH2 0x31E9 JUMPI PUSH2 0x31E8 PUSH2 0x309E JUMP JUMPDEST JUMPDEST DUP3 DUP3 DIV SWAP1 POP SWAP3 SWAP2 POP POP JUMP JUMPDEST PUSH1 0x0 PUSH2 0x31FF DUP3 PUSH2 0x23C3 JUMP JUMPDEST SWAP2 POP PUSH2 0x320A DUP4 PUSH2 0x23C3 JUMP JUMPDEST SWAP3 POP DUP3 PUSH2 0x321A JUMPI PUSH2 0x3219 PUSH2 0x309E JUMP JUMPDEST JUMPDEST DUP3 DUP3 MOD SWAP1 POP SWAP3 SWAP2 POP POP JUMP INVALID LOG2 PUSH5 0x6970667358 0x22 SLT KECCAK256 0xB0 0xA9 PUSH25 0x9748588A97193AC936C7BF56B4BDE4BAFEB70F3E14CB0370D5 DUP1 DUP11 0xE8 DUP11 PUSH5 0x736F6C6343 STOP ADDMOD 0xD STOP CALLER "
		},
		"gasEstimates": {
			"creation": {
				"codeDepositCost": "2578200",
				"executionCost": "infinite",
				"totalCost": "infinite"
			},
			"external": {
				"changeApplicationParty(string,address)": "infinite",
				"getApplicationAddress()": "9061",
				"getParty(address)": "infinite",
				"getProcessAddress()": "9083",
				"obligation_responseWithDocuments(uint32)": "infinite",
				"right_requestDocuments(uint32,int256[],uint256[])": "infinite",
				"signContract()": "infinite"
			},
			"internal": {
				"updateMapParty(address,struct EAI.Party storage pointer)": "infinite"
			}
		},
		"methodIdentifiers": {
			"changeApplicationParty(string,address)": "5e744c6a",
			"getApplicationAddress()": "70d8915a",
			"getParty(address)": "fb6f8243",
			"getProcessAddress()": "85931911",
			"obligation_responseWithDocuments(uint32)": "dd46f364",
			"right_requestDocuments(uint32,int256[],uint256[])": "e67fa566",
			"signContract()": "b8b4f1a0"
		}
	},
	"abi": [
		{
			"inputs": [
				{
					"internalType": "address",
					"name": "_applicationWallet",
					"type": "address"
				}
			],
			"stateMutability": "nonpayable",
			"type": "constructor"
		},
		{
			"anonymous": false,
			"inputs": [
				{
					"indexed": false,
					"internalType": "string",
					"name": "_logMessage",
					"type": "string"
				}
			],
			"name": "failEvent",
			"type": "event"
		},
		{
			"anonymous": false,
			"inputs": [
				{
					"indexed": false,
					"internalType": "string",
					"name": "_logMessage",
					"type": "string"
				}
			],
			"name": "successEvent",
			"type": "event"
		},
		{
			"inputs": [
				{
					"internalType": "string",
					"name": "_name",
					"type": "string"
				},
				{
					"internalType": "address",
					"name": "_walletAddress",
					"type": "address"
				}
			],
			"name": "changeApplicationParty",
			"outputs": [
				{
					"internalType": "bool",
					"name": "",
					"type": "bool"
				}
			],
			"stateMutability": "nonpayable",
			"type": "function"
		},
		{
			"inputs": [],
			"name": "getApplicationAddress",
			"outputs": [
				{
					"internalType": "address",
					"name": "",
					"type": "address"
				}
			],
			"stateMutability": "view",
			"type": "function"
		},
		{
			"inputs": [
				{
					"internalType": "address",
					"name": "_walletAddress",
					"type": "address"
				}
			],
			"name": "getParty",
			"outputs": [
				{
					"components": [
						{
							"internalType": "string",
							"name": "name",
							"type": "string"
						},
						{
							"internalType": "address",
							"name": "walletAddress",
							"type": "address"
						},
						{
							"internalType": "bool",
							"name": "aware",
							"type": "bool"
						}
					],
					"internalType": "struct EAI.Party",
					"name": "",
					"type": "tuple"
				}
			],
			"stateMutability": "view",
			"type": "function"
		},
		{
			"inputs": [],
			"name": "getProcessAddress",
			"outputs": [
				{
					"internalType": "address",
					"name": "",
					"type": "address"
				}
			],
			"stateMutability": "view",
			"type": "function"
		},
		{
			"inputs": [
				{
					"internalType": "uint32",
					"name": "_accessDateTime",
					"type": "uint32"
				}
			],
			"name": "obligation_responseWithDocuments",
			"outputs": [
				{
					"internalType": "bool",
					"name": "",
					"type": "bool"
				}
			],
			"stateMutability": "nonpayable",
			"type": "function"
		},
		{
			"inputs": [
				{
					"internalType": "uint32",
					"name": "_accessDateTime",
					"type": "uint32"
				},
				{
					"internalType": "int256[]",
					"name": "_resultFromXpath_n",
					"type": "int256[]"
				},
				{
					"internalType": "uint256[]",
					"name": "_resultFromXpath_npt",
					"type": "uint256[]"
				}
			],
			"name": "right_requestDocuments",
			"outputs": [
				{
					"internalType": "bool",
					"name": "",
					"type": "bool"
				}
			],
			"stateMutability": "nonpayable",
			"type": "function"
		},
		{
			"inputs": [],
			"name": "signContract",
			"outputs": [
				{
					"internalType": "bool",
					"name": "",
					"type": "bool"
				}
			],
			"stateMutability": "nonpayable",
			"type": "function"
		}
	]
}