{
	"contracts/study-case-contracts/001-delivery-hiring/DeliveryHiring_RO.sol": {
		"DeliveryHiring_RO": {
			"abi": [
				{
					"inputs": [
						{
							"internalType": "address",
							"name": "_applicationWallet",
							"type": "address"
						}
					],
					"stateMutability": "nonpayable",
					"type": "constructor"
				},
				{
					"anonymous": false,
					"inputs": [
						{
							"indexed": false,
							"internalType": "string",
							"name": "_logMessage",
							"type": "string"
						}
					],
					"name": "failEvent",
					"type": "event"
				},
				{
					"anonymous": false,
					"inputs": [
						{
							"indexed": false,
							"internalType": "string",
							"name": "_logMessage",
							"type": "string"
						}
					],
					"name": "successEvent",
					"type": "event"
				},
				{
					"inputs": [
						{
							"internalType": "string",
							"name": "_name",
							"type": "string"
						},
						{
							"internalType": "address",
							"name": "_walletAddress",
							"type": "address"
						}
					],
					"name": "changeApplicationParty",
					"outputs": [
						{
							"internalType": "bool",
							"name": "",
							"type": "bool"
						}
					],
					"stateMutability": "nonpayable",
					"type": "function"
				},
				{
					"inputs": [],
					"name": "getApplicationAddress",
					"outputs": [
						{
							"internalType": "address",
							"name": "",
							"type": "address"
						}
					],
					"stateMutability": "view",
					"type": "function"
				},
				{
					"inputs": [
						{
							"internalType": "address",
							"name": "_walletAddress",
							"type": "address"
						}
					],
					"name": "getParty",
					"outputs": [
						{
							"components": [
								{
									"internalType": "string",
									"name": "name",
									"type": "string"
								},
								{
									"internalType": "address",
									"name": "walletAddress",
									"type": "address"
								},
								{
									"internalType": "bool",
									"name": "aware",
									"type": "bool"
								}
							],
							"internalType": "struct EAI.Party",
							"name": "",
							"type": "tuple"
						}
					],
					"stateMutability": "view",
					"type": "function"
				},
				{
					"inputs": [],
					"name": "getProcessAddress",
					"outputs": [
						{
							"internalType": "address",
							"name": "",
							"type": "address"
						}
					],
					"stateMutability": "view",
					"type": "function"
				},
				{
					"inputs": [
						{
							"internalType": "uint32",
							"name": "_accessDateTime",
							"type": "uint32"
						},
						{
							"internalType": "int256[]",
							"name": "_resultFromXpath_nc",
							"type": "int256[]"
						}
					],
					"name": "responderOrder",
					"outputs": [
						{
							"internalType": "bool",
							"name": "",
							"type": "bool"
						}
					],
					"stateMutability": "nonpayable",
					"type": "function"
				},
				{
					"inputs": [
						{
							"internalType": "uint32",
							"name": "_accessDateTime",
							"type": "uint32"
						},
						{
							"internalType": "int256[]",
							"name": "_resultFromXpath_nc",
							"type": "int256[]"
						}
					],
					"name": "right_requestDelivery",
					"outputs": [
						{
							"internalType": "bool",
							"name": "",
							"type": "bool"
						}
					],
					"stateMutability": "nonpayable",
					"type": "function"
				},
				{
					"inputs": [],
					"name": "signContract",
					"outputs": [
						{
							"internalType": "bool",
							"name": "",
							"type": "bool"
						}
					],
					"stateMutability": "nonpayable",
					"type": "function"
				}
			],
			"devdoc": {
				"kind": "dev",
				"methods": {},
				"version": 1
			},
			"evm": {
				"assembly": "    /* \"contracts/study-case-contracts/001-delivery-hiring/DeliveryHiring_RO.sol\":190:7714  contract DeliveryHiring_RO {... */\n  mstore(0x40, 0x80)\n    /* \"contracts/study-case-contracts/001-delivery-hiring/DeliveryHiring_RO.sol\":1132:1207  string numberOfAddresses = \"count(//body/perosonalInformation/address/cep)\" */\n  mload(0x40)\n  dup1\n  0x60\n  add\n  0x40\n  mstore\n  dup1\n  0x2e\n  dup2\n  mstore\n  0x20\n  add\n  data_8db4f537e4773daf3b42fc9b069ffea1a74d1920b50a1fe9a37f0966abb9c4fc\n  0x2e\n  swap2\n  codecopy\n  0x06\n  swap1\n  dup1\n  mload\n  swap1\n  0x20\n  add\n  swap1\n  tag_1\n  swap3\n  swap2\n  swap1\n  tag_2\n  jump\t// in\ntag_1:\n  pop\n    /* \"contracts/study-case-contracts/001-delivery-hiring/DeliveryHiring_RO.sol\":1211:1257  string weight = \"//body/package/weight/text()\" */\n  mload(0x40)\n  dup1\n  0x40\n  add\n  0x40\n  mstore\n  dup1\n  0x1c\n  dup2\n  mstore\n  0x20\n  add\n  0x2f2f626f64792f7061636b6167652f7765696768742f74657874282900000000\n  dup2\n  mstore\n  pop\n  0x07\n  swap1\n  dup1\n  mload\n  swap1\n  0x20\n  add\n  swap1\n  tag_3\n  swap3\n  swap2\n  swap1\n  tag_2\n  jump\t// in\ntag_3:\n  pop\n    /* \"contracts/study-case-contracts/001-delivery-hiring/DeliveryHiring_RO.sol\":1844:3074  constructor(address _applicationWallet){... */\n  callvalue\n  dup1\n  iszero\n  tag_4\n  jumpi\n  0x00\n  dup1\n  revert\ntag_4:\n  pop\n  mload(0x40)\n  sub(codesize, bytecodeSize)\n  dup1\n  bytecodeSize\n  dup4\n  codecopy\n  dup2\n  dup2\n  add\n  0x40\n  mstore\n  dup2\n  add\n  swap1\n  tag_5\n  swap2\n  swap1\n  tag_6\n  jump\t// in\ntag_5:\n    /* \"contracts/study-case-contracts/001-delivery-hiring/DeliveryHiring_RO.sol\":1901:1905  true */\n  0x01\n    /* \"contracts/study-case-contracts/001-delivery-hiring/DeliveryHiring_RO.sol\":1889:1898  activated */\n  0x00\n  dup1\n    /* \"contracts/study-case-contracts/001-delivery-hiring/DeliveryHiring_RO.sol\":1889:1905  activated = true */\n  0x0100\n  exp\n  dup2\n  sload\n  dup2\n  0xff\n  mul\n  not\n  and\n  swap1\n  dup4\n  iszero\n  iszero\n  mul\n  or\n  swap1\n  sstore\n  pop\n    /* \"contracts/study-case-contracts/001-delivery-hiring/DeliveryHiring_RO.sol\":1977:1987  1672561800 */\n  0x63b14488\n    /* \"contracts/study-case-contracts/001-delivery-hiring/DeliveryHiring_RO.sol\":1965:1974  beginDate */\n  0x00\n  0x01\n    /* \"contracts/study-case-contracts/001-delivery-hiring/DeliveryHiring_RO.sol\":1965:1987  beginDate = 1672561800 */\n  0x0100\n  exp\n  dup2\n  sload\n  dup2\n  0xffffffff\n  mul\n  not\n  and\n  swap1\n  dup4\n  0xffffffff\n  and\n  mul\n  or\n  swap1\n  sstore\n  pop\n    /* \"contracts/study-case-contracts/001-delivery-hiring/DeliveryHiring_RO.sol\":2005:2015  1704097800 */\n  0x65927808\n    /* \"contracts/study-case-contracts/001-delivery-hiring/DeliveryHiring_RO.sol\":1995:2002  dueDate */\n  0x00\n  0x05\n    /* \"contracts/study-case-contracts/001-delivery-hiring/DeliveryHiring_RO.sol\":1995:2015  dueDate = 1704097800 */\n  0x0100\n  exp\n  dup2\n  sload\n  dup2\n  0xffffffff\n  mul\n  not\n  and\n  swap1\n  dup4\n  0xffffffff\n  and\n  mul\n  or\n  swap1\n  sstore\n  pop\n    /* \"contracts/study-case-contracts/001-delivery-hiring/DeliveryHiring_RO.sol\":2099:2160  EAI.createParty(\"Delivery System\", _applicationWallet, false) */\n  tag_9\n  mload(0x40)\n  dup1\n  0x40\n  add\n  0x40\n  mstore\n  dup1\n  0x0f\n  dup2\n  mstore\n  0x20\n  add\n  0x44656c69766572792053797374656d0000000000000000000000000000000000\n  dup2\n  mstore\n  pop\n    /* \"contracts/study-case-contracts/001-delivery-hiring/DeliveryHiring_RO.sol\":2134:2152  _applicationWallet */\n  dup3\n    /* \"contracts/study-case-contracts/001-delivery-hiring/DeliveryHiring_RO.sol\":2154:2159  false */\n  0x00\n    /* \"contracts/study-case-contracts/001-delivery-hiring/DeliveryHiring_RO.sol\":2099:2114  EAI.createParty */\n  or(tag_0_42, shl(0x20, tag_10))\n    /* \"contracts/study-case-contracts/001-delivery-hiring/DeliveryHiring_RO.sol\":2099:2160  EAI.createParty(\"Delivery System\", _applicationWallet, false) */\n  0x20\n  shr\n  jump\t// in\ntag_9:\n    /* \"contracts/study-case-contracts/001-delivery-hiring/DeliveryHiring_RO.sol\":2085:2096  application */\n  0x01\n    /* \"contracts/study-case-contracts/001-delivery-hiring/DeliveryHiring_RO.sol\":2085:2160  application = EAI.createParty(\"Delivery System\", _applicationWallet, false) */\n  0x00\n  dup3\n  add\n  mload\n  dup2\n  0x00\n  add\n  swap1\n  dup1\n  mload\n  swap1\n  0x20\n  add\n  swap1\n  tag_11\n  swap3\n  swap2\n  swap1\n  tag_2\n  jump\t// in\ntag_11:\n  pop\n  0x20\n  dup3\n  add\n  mload\n  dup2\n  0x01\n  add\n  exp(0x0100, 0x00)\n  dup2\n  sload\n  dup2\n  0xffffffffffffffffffffffffffffffffffffffff\n  mul\n  not\n  and\n  swap1\n  dup4\n  0xffffffffffffffffffffffffffffffffffffffff\n  and\n  mul\n  or\n  swap1\n  sstore\n  pop\n  0x40\n  dup3\n  add\n  mload\n  dup2\n  0x01\n  add\n  exp(0x0100, 0x14)\n  dup2\n  sload\n  dup2\n  0xff\n  mul\n  not\n  and\n  swap1\n  dup4\n  iszero\n  iszero\n  mul\n  or\n  swap1\n  sstore\n  pop\n  swap1\n  pop\n  pop\n    /* \"contracts/study-case-contracts/001-delivery-hiring/DeliveryHiring_RO.sol\":2194:2250  EAI.createParty(\"Integration Process\", msg.sender, true) */\n  tag_12\n  mload(0x40)\n  dup1\n  0x40\n  add\n  0x40\n  mstore\n  dup1\n  0x13\n  dup2\n  mstore\n  0x20\n  add\n  0x496e746567726174696f6e2050726f6365737300000000000000000000000000\n  dup2\n  mstore\n  pop\n    /* \"contracts/study-case-contracts/001-delivery-hiring/DeliveryHiring_RO.sol\":2233:2243  msg.sender */\n  caller\n    /* \"contracts/study-case-contracts/001-delivery-hiring/DeliveryHiring_RO.sol\":2245:2249  true */\n  0x01\n    /* \"contracts/study-case-contracts/001-delivery-hiring/DeliveryHiring_RO.sol\":2194:2209  EAI.createParty */\n  or(tag_0_42, shl(0x20, tag_10))\n    /* \"contracts/study-case-contracts/001-delivery-hiring/DeliveryHiring_RO.sol\":2194:2250  EAI.createParty(\"Integration Process\", msg.sender, true) */\n  0x20\n  shr\n  jump\t// in\ntag_12:\n    /* \"contracts/study-case-contracts/001-delivery-hiring/DeliveryHiring_RO.sol\":2184:2191  process */\n  0x03\n    /* \"contracts/study-case-contracts/001-delivery-hiring/DeliveryHiring_RO.sol\":2184:2250  process = EAI.createParty(\"Integration Process\", msg.sender, true) */\n  0x00\n  dup3\n  add\n  mload\n  dup2\n  0x00\n  add\n  swap1\n  dup1\n  mload\n  swap1\n  0x20\n  add\n  swap1\n  tag_13\n  swap3\n  swap2\n  swap1\n  tag_2\n  jump\t// in\ntag_13:\n  pop\n  0x20\n  dup3\n  add\n  mload\n  dup2\n  0x01\n  add\n  exp(0x0100, 0x00)\n  dup2\n  sload\n  dup2\n  0xffffffffffffffffffffffffffffffffffffffff\n  mul\n  not\n  and\n  swap1\n  dup4\n  0xffffffffffffffffffffffffffffffffffffffff\n  and\n  mul\n  or\n  swap1\n  sstore\n  pop\n  0x40\n  dup3\n  add\n  mload\n  dup2\n  0x01\n  add\n  exp(0x0100, 0x14)\n  dup2\n  sload\n  dup2\n  0xff\n  mul\n  not\n  and\n  swap1\n  dup4\n  iszero\n  iszero\n  mul\n  or\n  swap1\n  sstore\n  pop\n  swap1\n  pop\n  pop\n    /* \"contracts/study-case-contracts/001-delivery-hiring/DeliveryHiring_RO.sol\":2288:2295  process */\n  0x03\n    /* \"contracts/study-case-contracts/001-delivery-hiring/DeliveryHiring_RO.sol\":2265:2273  mapParty */\n  0x05\n    /* \"contracts/study-case-contracts/001-delivery-hiring/DeliveryHiring_RO.sol\":2265:2285  mapParty[msg.sender] */\n  0x00\n    /* \"contracts/study-case-contracts/001-delivery-hiring/DeliveryHiring_RO.sol\":2274:2284  msg.sender */\n  caller\n    /* \"contracts/study-case-contracts/001-delivery-hiring/DeliveryHiring_RO.sol\":2265:2285  mapParty[msg.sender] */\n  0xffffffffffffffffffffffffffffffffffffffff\n  and\n  0xffffffffffffffffffffffffffffffffffffffff\n  and\n  dup2\n  mstore\n  0x20\n  add\n  swap1\n  dup2\n  mstore\n  0x20\n  add\n  0x00\n  keccak256\n    /* \"contracts/study-case-contracts/001-delivery-hiring/DeliveryHiring_RO.sol\":2265:2295  mapParty[msg.sender] = process */\n  0x00\n  dup3\n  add\n  dup2\n  0x00\n  add\n  swap1\n  dup1\n  sload\n  tag_14\n  swap1\n  tag_15\n  jump\t// in\ntag_14:\n  tag_16\n  swap3\n  swap2\n  swap1\n  tag_17\n  jump\t// in\ntag_16:\n  pop\n  0x01\n  dup3\n  add\n  0x00\n  swap1\n  sload\n  swap1\n  0x0100\n  exp\n  swap1\n  div\n  0xffffffffffffffffffffffffffffffffffffffff\n  and\n  dup2\n  0x01\n  add\n  exp(0x0100, 0x00)\n  dup2\n  sload\n  dup2\n  0xffffffffffffffffffffffffffffffffffffffff\n  mul\n  not\n  and\n  swap1\n  dup4\n  0xffffffffffffffffffffffffffffffffffffffff\n  and\n  mul\n  or\n  swap1\n  sstore\n  pop\n  0x01\n  dup3\n  add\n  0x14\n  swap1\n  sload\n  swap1\n  0x0100\n  exp\n  swap1\n  div\n  0xff\n  and\n  dup2\n  0x01\n  add\n  exp(0x0100, 0x14)\n  dup2\n  sload\n  dup2\n  0xff\n  mul\n  not\n  and\n  swap1\n  dup4\n  iszero\n  iszero\n  mul\n  or\n  swap1\n  sstore\n  pop\n  swap1\n  pop\n  pop\n    /* \"contracts/study-case-contracts/001-delivery-hiring/DeliveryHiring_RO.sol\":2337:2348  application */\n  0x01\n    /* \"contracts/study-case-contracts/001-delivery-hiring/DeliveryHiring_RO.sol\":2306:2314  mapParty */\n  0x05\n    /* \"contracts/study-case-contracts/001-delivery-hiring/DeliveryHiring_RO.sol\":2306:2334  mapParty[_applicationWallet] */\n  0x00\n    /* \"contracts/study-case-contracts/001-delivery-hiring/DeliveryHiring_RO.sol\":2315:2333  _applicationWallet */\n  dup4\n    /* \"contracts/study-case-contracts/001-delivery-hiring/DeliveryHiring_RO.sol\":2306:2334  mapParty[_applicationWallet] */\n  0xffffffffffffffffffffffffffffffffffffffff\n  and\n  0xffffffffffffffffffffffffffffffffffffffff\n  and\n  dup2\n  mstore\n  0x20\n  add\n  swap1\n  dup2\n  mstore\n  0x20\n  add\n  0x00\n  keccak256\n    /* \"contracts/study-case-contracts/001-delivery-hiring/DeliveryHiring_RO.sol\":2306:2348  mapParty[_applicationWallet] = application */\n  0x00\n  dup3\n  add\n  dup2\n  0x00\n  add\n  swap1\n  dup1\n  sload\n  tag_18\n  swap1\n  tag_15\n  jump\t// in\ntag_18:\n  tag_19\n  swap3\n  swap2\n  swap1\n  tag_17\n  jump\t// in\ntag_19:\n  pop\n  0x01\n  dup3\n  add\n  0x00\n  swap1\n  sload\n  swap1\n  0x0100\n  exp\n  swap1\n  div\n  0xffffffffffffffffffffffffffffffffffffffff\n  and\n  dup2\n  0x01\n  add\n  exp(0x0100, 0x00)\n  dup2\n  sload\n  dup2\n  0xffffffffffffffffffffffffffffffffffffffff\n  mul\n  not\n  and\n  swap1\n  dup4\n  0xffffffffffffffffffffffffffffffffffffffff\n  and\n  mul\n  or\n  swap1\n  sstore\n  pop\n  0x01\n  dup3\n  add\n  0x14\n  swap1\n  sload\n  swap1\n  0x0100\n  exp\n  swap1\n  div\n  0xff\n  and\n  dup2\n  0x01\n  add\n  exp(0x0100, 0x14)\n  dup2\n  sload\n  dup2\n  0xff\n  mul\n  not\n  and\n  swap1\n  dup4\n  iszero\n  iszero\n  mul\n  or\n  swap1\n  sstore\n  pop\n  swap1\n  pop\n  pop\n    /* \"contracts/study-case-contracts/001-delivery-hiring/DeliveryHiring_RO.sol\":2503:2532  maxNumberOfOperationByTime_C1 */\n  0x08\n    /* \"contracts/study-case-contracts/001-delivery-hiring/DeliveryHiring_RO.sol\":2538:2589  EAI.createMaxNumberOfOperationByTime(3, EAI.MINUTE) */\n  tag_20\n    /* \"contracts/study-case-contracts/001-delivery-hiring/DeliveryHiring_RO.sol\":2575:2576  3 */\n  0x03\n    /* \"contracts/lib/eai/EAI.sol\":786:787  1 */\n  0x01\n    /* \"contracts/study-case-contracts/001-delivery-hiring/DeliveryHiring_RO.sol\":2538:2574  EAI.createMaxNumberOfOperationByTime */\n  or(tag_0_43, shl(0x20, tag_21))\n    /* \"contracts/study-case-contracts/001-delivery-hiring/DeliveryHiring_RO.sol\":2538:2589  EAI.createMaxNumberOfOperationByTime(3, EAI.MINUTE) */\n  0x20\n  shr\n  jump\t// in\ntag_20:\n    /* \"contracts/study-case-contracts/001-delivery-hiring/DeliveryHiring_RO.sol\":2503:2590  maxNumberOfOperationByTime_C1.push(EAI.createMaxNumberOfOperationByTime(3, EAI.MINUTE)) */\n  swap1\n  dup1\n  0x01\n  dup2\n  sload\n  add\n  dup1\n  dup3\n  sstore\n  dup1\n  swap2\n  pop\n  pop\n  0x01\n  swap1\n  sub\n  swap1\n  0x00\n  mstore\n  keccak256(0x00, 0x20)\n  add\n  0x00\n  swap1\n  swap2\n  swap1\n  swap2\n  swap1\n  swap2\n  pop\n  0x00\n  dup3\n  add\n  mload\n  dup2\n  0x00\n  add\n  exp(0x0100, 0x00)\n  dup2\n  sload\n  dup2\n  0xffffffff\n  mul\n  not\n  and\n  swap1\n  dup4\n  0xffffffff\n  and\n  mul\n  or\n  swap1\n  sstore\n  pop\n  0x20\n  dup3\n  add\n  mload\n  dup2\n  0x00\n  add\n  exp(0x0100, 0x04)\n  dup2\n  sload\n  dup2\n  0xff\n  mul\n  not\n  and\n  swap1\n  dup4\n  0xff\n  and\n  mul\n  or\n  swap1\n  sstore\n  pop\n  0x40\n  dup3\n  add\n  mload\n  dup2\n  0x00\n  add\n  exp(0x0100, 0x05)\n  dup2\n  sload\n  dup2\n  0xffffffff\n  mul\n  not\n  and\n  swap1\n  dup4\n  0xffffffff\n  and\n  mul\n  or\n  swap1\n  sstore\n  pop\n  0x60\n  dup3\n  add\n  mload\n  dup2\n  0x00\n  add\n  exp(0x0100, 0x09)\n  dup2\n  sload\n  dup2\n  0xffffffff\n  mul\n  not\n  and\n  swap1\n  dup4\n  0xffffffff\n  and\n  mul\n  or\n  swap1\n  sstore\n  pop\n  0x80\n  dup3\n  add\n  mload\n  dup2\n  0x00\n  add\n  exp(0x0100, 0x0d)\n  dup2\n  sload\n  dup2\n  0xffffffff\n  mul\n  not\n  and\n  swap1\n  dup4\n  0xffffffff\n  and\n  mul\n  or\n  swap1\n  sstore\n  pop\n  pop\n  pop\n    /* \"contracts/study-case-contracts/001-delivery-hiring/DeliveryHiring_RO.sol\":2595:2615  msgContent_number_C1 */\n  0x09\n    /* \"contracts/study-case-contracts/001-delivery-hiring/DeliveryHiring_RO.sol\":2621:2673  EAI.createMessageContent(numberOfAddresses, \"==\", 1) */\n  tag_23\n    /* \"contracts/study-case-contracts/001-delivery-hiring/DeliveryHiring_RO.sol\":2646:2663  numberOfAddresses */\n  0x06\n    /* \"contracts/study-case-contracts/001-delivery-hiring/DeliveryHiring_RO.sol\":2621:2673  EAI.createMessageContent(numberOfAddresses, \"==\", 1) */\n  dup1\n  sload\n  tag_24\n  swap1\n  tag_15\n  jump\t// in\ntag_24:\n  dup1\n  0x1f\n  add\n  0x20\n  dup1\n  swap2\n  div\n  mul\n  0x20\n  add\n  mload(0x40)\n  swap1\n  dup2\n  add\n  0x40\n  mstore\n  dup1\n  swap3\n  swap2\n  swap1\n  dup2\n  dup2\n  mstore\n  0x20\n  add\n  dup3\n  dup1\n  sload\n  tag_25\n  swap1\n  tag_15\n  jump\t// in\ntag_25:\n  dup1\n  iszero\n  tag_26\n  jumpi\n  dup1\n  0x1f\n  lt\n  tag_27\n  jumpi\n  0x0100\n  dup1\n  dup4\n  sload\n  div\n  mul\n  dup4\n  mstore\n  swap2\n  0x20\n  add\n  swap2\n  jump(tag_26)\ntag_27:\n  dup3\n  add\n  swap2\n  swap1\n  0x00\n  mstore\n  keccak256(0x00, 0x20)\n  swap1\ntag_28:\n  dup2\n  sload\n  dup2\n  mstore\n  swap1\n  0x01\n  add\n  swap1\n  0x20\n  add\n  dup1\n  dup4\n  gt\n  tag_28\n  jumpi\n  dup3\n  swap1\n  sub\n  0x1f\n  and\n  dup3\n  add\n  swap2\ntag_26:\n  pop\n  pop\n  pop\n  pop\n  pop\n  mload(0x40)\n  dup1\n  0x40\n  add\n  0x40\n  mstore\n  dup1\n  0x02\n  dup2\n  mstore\n  0x20\n  add\n  0x3d3d000000000000000000000000000000000000000000000000000000000000\n  dup2\n  mstore\n  pop\n    /* \"contracts/study-case-contracts/001-delivery-hiring/DeliveryHiring_RO.sol\":2671:2672  1 */\n  0x01\n    /* \"contracts/study-case-contracts/001-delivery-hiring/DeliveryHiring_RO.sol\":2621:2645  EAI.createMessageContent */\n  or(tag_0_44, shl(0x20, tag_29))\n    /* \"contracts/study-case-contracts/001-delivery-hiring/DeliveryHiring_RO.sol\":2621:2673  EAI.createMessageContent(numberOfAddresses, \"==\", 1) */\n  0x20\n  shr\n  jump\t// in\ntag_23:\n    /* \"contracts/study-case-contracts/001-delivery-hiring/DeliveryHiring_RO.sol\":2595:2674  msgContent_number_C1.push(EAI.createMessageContent(numberOfAddresses, \"==\", 1)) */\n  swap1\n  dup1\n  0x01\n  dup2\n  sload\n  add\n  dup1\n  dup3\n  sstore\n  dup1\n  swap2\n  pop\n  pop\n  0x01\n  swap1\n  sub\n  swap1\n  0x00\n  mstore\n  keccak256(0x00, 0x20)\n  swap1\n  0x03\n  mul\n  add\n  0x00\n  swap1\n  swap2\n  swap1\n  swap2\n  swap1\n  swap2\n  pop\n  0x00\n  dup3\n  add\n  mload\n  dup2\n  0x00\n  add\n  swap1\n  dup1\n  mload\n  swap1\n  0x20\n  add\n  swap1\n  tag_31\n  swap3\n  swap2\n  swap1\n  tag_2\n  jump\t// in\ntag_31:\n  pop\n  0x20\n  dup3\n  add\n  mload\n  dup2\n  0x01\n  add\n  swap1\n  dup1\n  mload\n  swap1\n  0x20\n  add\n  swap1\n  tag_32\n  swap3\n  swap2\n  swap1\n  tag_2\n  jump\t// in\ntag_32:\n  pop\n  0x40\n  dup3\n  add\n  mload\n  dup2\n  0x02\n  add\n  sstore\n  pop\n  pop\n    /* \"contracts/study-case-contracts/001-delivery-hiring/DeliveryHiring_RO.sol\":2693:2713  msgContent_number_C1 */\n  0x09\n    /* \"contracts/study-case-contracts/001-delivery-hiring/DeliveryHiring_RO.sol\":2719:2762  EAI.createMessageContent(weight, \"<=\", 100) */\n  tag_33\n    /* \"contracts/study-case-contracts/001-delivery-hiring/DeliveryHiring_RO.sol\":2744:2750  weight */\n  0x07\n    /* \"contracts/study-case-contracts/001-delivery-hiring/DeliveryHiring_RO.sol\":2719:2762  EAI.createMessageContent(weight, \"<=\", 100) */\n  dup1\n  sload\n  tag_34\n  swap1\n  tag_15\n  jump\t// in\ntag_34:\n  dup1\n  0x1f\n  add\n  0x20\n  dup1\n  swap2\n  div\n  mul\n  0x20\n  add\n  mload(0x40)\n  swap1\n  dup2\n  add\n  0x40\n  mstore\n  dup1\n  swap3\n  swap2\n  swap1\n  dup2\n  dup2\n  mstore\n  0x20\n  add\n  dup3\n  dup1\n  sload\n  tag_35\n  swap1\n  tag_15\n  jump\t// in\ntag_35:\n  dup1\n  iszero\n  tag_36\n  jumpi\n  dup1\n  0x1f\n  lt\n  tag_37\n  jumpi\n  0x0100\n  dup1\n  dup4\n  sload\n  div\n  mul\n  dup4\n  mstore\n  swap2\n  0x20\n  add\n  swap2\n  jump(tag_36)\ntag_37:\n  dup3\n  add\n  swap2\n  swap1\n  0x00\n  mstore\n  keccak256(0x00, 0x20)\n  swap1\ntag_38:\n  dup2\n  sload\n  dup2\n  mstore\n  swap1\n  0x01\n  add\n  swap1\n  0x20\n  add\n  dup1\n  dup4\n  gt\n  tag_38\n  jumpi\n  dup3\n  swap1\n  sub\n  0x1f\n  and\n  dup3\n  add\n  swap2\ntag_36:\n  pop\n  pop\n  pop\n  pop\n  pop\n  mload(0x40)\n  dup1\n  0x40\n  add\n  0x40\n  mstore\n  dup1\n  0x02\n  dup2\n  mstore\n  0x20\n  add\n  0x3c3d000000000000000000000000000000000000000000000000000000000000\n  dup2\n  mstore\n  pop\n    /* \"contracts/study-case-contracts/001-delivery-hiring/DeliveryHiring_RO.sol\":2758:2761  100 */\n  0x64\n    /* \"contracts/study-case-contracts/001-delivery-hiring/DeliveryHiring_RO.sol\":2719:2743  EAI.createMessageContent */\n  or(tag_0_44, shl(0x20, tag_29))\n    /* \"contracts/study-case-contracts/001-delivery-hiring/DeliveryHiring_RO.sol\":2719:2762  EAI.createMessageContent(weight, \"<=\", 100) */\n  0x20\n  shr\n  jump\t// in\ntag_33:\n    /* \"contracts/study-case-contracts/001-delivery-hiring/DeliveryHiring_RO.sol\":2693:2763  msgContent_number_C1.push(EAI.createMessageContent(weight, \"<=\", 100)) */\n  swap1\n  dup1\n  0x01\n  dup2\n  sload\n  add\n  dup1\n  dup3\n  sstore\n  dup1\n  swap2\n  pop\n  pop\n  0x01\n  swap1\n  sub\n  swap1\n  0x00\n  mstore\n  keccak256(0x00, 0x20)\n  swap1\n  0x03\n  mul\n  add\n  0x00\n  swap1\n  swap2\n  swap1\n  swap2\n  swap1\n  swap2\n  pop\n  0x00\n  dup3\n  add\n  mload\n  dup2\n  0x00\n  add\n  swap1\n  dup1\n  mload\n  swap1\n  0x20\n  add\n  swap1\n  tag_40\n  swap3\n  swap2\n  swap1\n  tag_2\n  jump\t// in\ntag_40:\n  pop\n  0x20\n  dup3\n  add\n  mload\n  dup2\n  0x01\n  add\n  swap1\n  dup1\n  mload\n  swap1\n  0x20\n  add\n  swap1\n  tag_41\n  swap3\n  swap2\n  swap1\n  tag_2\n  jump\t// in\ntag_41:\n  pop\n  0x40\n  dup3\n  add\n  mload\n  dup2\n  0x02\n  add\n  sstore\n  pop\n  pop\n    /* \"contracts/study-case-contracts/001-delivery-hiring/DeliveryHiring_RO.sol\":2775:2795  msgContent_number_C1 */\n  0x09\n    /* \"contracts/study-case-contracts/001-delivery-hiring/DeliveryHiring_RO.sol\":2801:2872  EAI.createMessageContent(\"//body/order/totalCost/text()\" , \"<=\", 20000) */\n  tag_42\n  mload(0x40)\n  dup1\n  0x40\n  add\n  0x40\n  mstore\n  dup1\n  0x1d\n  dup2\n  mstore\n  0x20\n  add\n  0x2f2f626f64792f6f726465722f746f74616c436f73742f746578742829000000\n  dup2\n  mstore\n  pop\n  mload(0x40)\n  dup1\n  0x40\n  add\n  0x40\n  mstore\n  dup1\n  0x02\n  dup2\n  mstore\n  0x20\n  add\n  0x3c3d000000000000000000000000000000000000000000000000000000000000\n  dup2\n  mstore\n  pop\n    /* \"contracts/study-case-contracts/001-delivery-hiring/DeliveryHiring_RO.sol\":2866:2871  20000 */\n  0x4e20\n    /* \"contracts/study-case-contracts/001-delivery-hiring/DeliveryHiring_RO.sol\":2801:2825  EAI.createMessageContent */\n  or(tag_0_44, shl(0x20, tag_29))\n    /* \"contracts/study-case-contracts/001-delivery-hiring/DeliveryHiring_RO.sol\":2801:2872  EAI.createMessageContent(\"//body/order/totalCost/text()\" , \"<=\", 20000) */\n  0x20\n  shr\n  jump\t// in\ntag_42:\n    /* \"contracts/study-case-contracts/001-delivery-hiring/DeliveryHiring_RO.sol\":2775:2873  msgContent_number_C1.push(EAI.createMessageContent(\"//body/order/totalCost/text()\" , \"<=\", 20000)) */\n  swap1\n  dup1\n  0x01\n  dup2\n  sload\n  add\n  dup1\n  dup3\n  sstore\n  dup1\n  swap2\n  pop\n  pop\n  0x01\n  swap1\n  sub\n  swap1\n  0x00\n  mstore\n  keccak256(0x00, 0x20)\n  swap1\n  0x03\n  mul\n  add\n  0x00\n  swap1\n  swap2\n  swap1\n  swap2\n  swap1\n  swap2\n  pop\n  0x00\n  dup3\n  add\n  mload\n  dup2\n  0x00\n  add\n  swap1\n  dup1\n  mload\n  swap1\n  0x20\n  add\n  swap1\n  tag_44\n  swap3\n  swap2\n  swap1\n  tag_2\n  jump\t// in\ntag_44:\n  pop\n  0x20\n  dup3\n  add\n  mload\n  dup2\n  0x01\n  add\n  swap1\n  dup1\n  mload\n  swap1\n  0x20\n  add\n  swap1\n  tag_45\n  swap3\n  swap2\n  swap1\n  tag_2\n  jump\t// in\ntag_45:\n  pop\n  0x40\n  dup3\n  add\n  mload\n  dup2\n  0x02\n  add\n  sstore\n  pop\n  pop\n    /* \"contracts/study-case-contracts/001-delivery-hiring/DeliveryHiring_RO.sol\":2922:2932  timeout_C2 */\n  0x0a\n    /* \"contracts/study-case-contracts/001-delivery-hiring/DeliveryHiring_RO.sol\":2938:2959  EAI.createTimeout(20) */\n  tag_46\n    /* \"contracts/study-case-contracts/001-delivery-hiring/DeliveryHiring_RO.sol\":2956:2958  20 */\n  0x14\n    /* \"contracts/study-case-contracts/001-delivery-hiring/DeliveryHiring_RO.sol\":2938:2955  EAI.createTimeout */\n  or(tag_0_45, shl(0x20, tag_47))\n    /* \"contracts/study-case-contracts/001-delivery-hiring/DeliveryHiring_RO.sol\":2938:2959  EAI.createTimeout(20) */\n  0x20\n  shr\n  jump\t// in\ntag_46:\n    /* \"contracts/study-case-contracts/001-delivery-hiring/DeliveryHiring_RO.sol\":2922:2960  timeout_C2.push(EAI.createTimeout(20)) */\n  swap1\n  dup1\n  0x01\n  dup2\n  sload\n  add\n  dup1\n  dup3\n  sstore\n  dup1\n  swap2\n  pop\n  pop\n  0x01\n  swap1\n  sub\n  swap1\n  0x00\n  mstore\n  keccak256(0x00, 0x20)\n  add\n  0x00\n  swap1\n  swap2\n  swap1\n  swap2\n  swap1\n  swap2\n  pop\n  0x00\n  dup3\n  add\n  mload\n  dup2\n  0x00\n  add\n  exp(0x0100, 0x00)\n  dup2\n  sload\n  dup2\n  0xffffffff\n  mul\n  not\n  and\n  swap1\n  dup4\n  0xffffffff\n  and\n  mul\n  or\n  swap1\n  sstore\n  pop\n  0x20\n  dup3\n  add\n  mload\n  dup2\n  0x00\n  add\n  exp(0x0100, 0x04)\n  dup2\n  sload\n  dup2\n  0xffffffff\n  mul\n  not\n  and\n  swap1\n  dup4\n  0xffffffff\n  and\n  mul\n  or\n  swap1\n  sstore\n  pop\n  pop\n  pop\n    /* \"contracts/study-case-contracts/001-delivery-hiring/DeliveryHiring_RO.sol\":2973:2993  msgContent_number_C2 */\n  0x0b\n    /* \"contracts/study-case-contracts/001-delivery-hiring/DeliveryHiring_RO.sol\":2999:3065  EAI.createMessageContent(\"//budget/deliveryTime/text()\", \"<=\", 15) */\n  tag_49\n  mload(0x40)\n  dup1\n  0x40\n  add\n  0x40\n  mstore\n  dup1\n  0x1c\n  dup2\n  mstore\n  0x20\n  add\n  0x2f2f6275646765742f64656c697665727954696d652f74657874282900000000\n  dup2\n  mstore\n  pop\n  mload(0x40)\n  dup1\n  0x40\n  add\n  0x40\n  mstore\n  dup1\n  0x02\n  dup2\n  mstore\n  0x20\n  add\n  0x3c3d000000000000000000000000000000000000000000000000000000000000\n  dup2\n  mstore\n  pop\n    /* \"contracts/study-case-contracts/001-delivery-hiring/DeliveryHiring_RO.sol\":3062:3064  15 */\n  0x0f\n    /* \"contracts/study-case-contracts/001-delivery-hiring/DeliveryHiring_RO.sol\":2999:3023  EAI.createMessageContent */\n  or(tag_0_44, shl(0x20, tag_29))\n    /* \"contracts/study-case-contracts/001-delivery-hiring/DeliveryHiring_RO.sol\":2999:3065  EAI.createMessageContent(\"//budget/deliveryTime/text()\", \"<=\", 15) */\n  0x20\n  shr\n  jump\t// in\ntag_49:\n    /* \"contracts/study-case-contracts/001-delivery-hiring/DeliveryHiring_RO.sol\":2973:3066  msgContent_number_C2.push(EAI.createMessageContent(\"//budget/deliveryTime/text()\", \"<=\", 15)) */\n  swap1\n  dup1\n  0x01\n  dup2\n  sload\n  add\n  dup1\n  dup3\n  sstore\n  dup1\n  swap2\n  pop\n  pop\n  0x01\n  swap1\n  sub\n  swap1\n  0x00\n  mstore\n  keccak256(0x00, 0x20)\n  swap1\n  0x03\n  mul\n  add\n  0x00\n  swap1\n  swap2\n  swap1\n  swap2\n  swap1\n  swap2\n  pop\n  0x00\n  dup3\n  add\n  mload\n  dup2\n  0x00\n  add\n  swap1\n  dup1\n  mload\n  swap1\n  0x20\n  add\n  swap1\n  tag_51\n  swap3\n  swap2\n  swap1\n  tag_2\n  jump\t// in\ntag_51:\n  pop\n  0x20\n  dup3\n  add\n  mload\n  dup2\n  0x01\n  add\n  swap1\n  dup1\n  mload\n  swap1\n  0x20\n  add\n  swap1\n  tag_52\n  swap3\n  swap2\n  swap1\n  tag_2\n  jump\t// in\ntag_52:\n  pop\n  0x40\n  dup3\n  add\n  mload\n  dup2\n  0x02\n  add\n  sstore\n  pop\n  pop\n    /* \"contracts/study-case-contracts/001-delivery-hiring/DeliveryHiring_RO.sol\":1844:3074  constructor(address _applicationWallet){... */\n  pop\n    /* \"contracts/study-case-contracts/001-delivery-hiring/DeliveryHiring_RO.sol\":190:7714  contract DeliveryHiring_RO {... */\n  jump(tag_53)\n    /* \"contracts/lib/eai/EAI.sol\":1676:1852  function createParty(string memory _name, address _walletAddress, bool _aware) internal pure returns(Party memory){... */\ntag_10:\n    /* \"contracts/lib/eai/EAI.sol\":1777:1789  Party memory */\n  tag_54\n  tag_55\n  jump\t// in\ntag_54:\n    /* \"contracts/lib/eai/EAI.sol\":1808:1844  Party(_name, _walletAddress, _aware) */\n  mload(0x40)\n  dup1\n  0x60\n  add\n  0x40\n  mstore\n  dup1\n    /* \"contracts/lib/eai/EAI.sol\":1814:1819  _name */\n  dup6\n    /* \"contracts/lib/eai/EAI.sol\":1808:1844  Party(_name, _walletAddress, _aware) */\n  dup2\n  mstore\n  0x20\n  add\n    /* \"contracts/lib/eai/EAI.sol\":1821:1835  _walletAddress */\n  dup5\n    /* \"contracts/lib/eai/EAI.sol\":1808:1844  Party(_name, _walletAddress, _aware) */\n  0xffffffffffffffffffffffffffffffffffffffff\n  and\n  dup2\n  mstore\n  0x20\n  add\n    /* \"contracts/lib/eai/EAI.sol\":1837:1843  _aware */\n  dup4\n    /* \"contracts/lib/eai/EAI.sol\":1808:1844  Party(_name, _walletAddress, _aware) */\n  iszero\n  iszero\n  dup2\n  mstore\n  pop\n    /* \"contracts/lib/eai/EAI.sol\":1801:1844  return Party(_name, _walletAddress, _aware) */\n  swap1\n  pop\n    /* \"contracts/lib/eai/EAI.sol\":1676:1852  function createParty(string memory _name, address _walletAddress, bool _aware) internal pure returns(Party memory){... */\n  swap4\n  swap3\n  pop\n  pop\n  pop\n  jump\t// out\n    /* \"contracts/lib/eai/EAI.sol\":11005:11636  function createMaxNumberOfOperationByTime(... */\ntag_21:\n    /* \"contracts/lib/eai/EAI.sol\":11130:11163  MaxNumberOfOperationByTime memory */\n  tag_57\n  tag_58\n  jump\t// in\ntag_57:\n    /* \"contracts/lib/eai/EAI.sol\":11177:11193  uint32 auxByTime */\n  0x00\n    /* \"contracts/lib/eai/EAI.sol\":872:873  4 */\n  0x04\n    /* \"contracts/lib/eai/EAI.sol\":11209:11226  _timeUnit <= WEEK */\n  0xff\n  and\n    /* \"contracts/lib/eai/EAI.sol\":11209:11218  _timeUnit */\n  dup4\n    /* \"contracts/lib/eai/EAI.sol\":11209:11226  _timeUnit <= WEEK */\n  0xff\n  and\n  gt\n    /* \"contracts/lib/eai/EAI.sol\":11206:11542  if(_timeUnit <= WEEK){... */\n  tag_60\n  jumpi\n    /* \"contracts/lib/eai/EAI.sol\":11359:11386  getTimeInSeconds(_timeUnit) */\n  tag_61\n    /* \"contracts/lib/eai/EAI.sol\":11376:11385  _timeUnit */\n  dup4\n    /* \"contracts/lib/eai/EAI.sol\":11359:11375  getTimeInSeconds */\n  shl(0x20, tag_62)\n    /* \"contracts/lib/eai/EAI.sol\":11359:11386  getTimeInSeconds(_timeUnit) */\n  0x20\n  shr\n  jump\t// in\ntag_61:\n    /* \"contracts/lib/eai/EAI.sol\":11348:11386  auxByTime= getTimeInSeconds(_timeUnit) */\n  swap1\n  pop\n    /* \"contracts/lib/eai/EAI.sol\":11206:11542  if(_timeUnit <= WEEK){... */\n  jump(tag_63)\ntag_60:\n    /* \"contracts/lib/eai/EAI.sol\":11528:11529  1 */\n  0x01\n    /* \"contracts/lib/eai/EAI.sol\":11516:11529  auxByTime = 1 */\n  swap1\n  pop\n    /* \"contracts/lib/eai/EAI.sol\":11206:11542  if(_timeUnit <= WEEK){... */\ntag_63:\n    /* \"contracts/lib/eai/EAI.sol\":11559:11628  MaxNumberOfOperationByTime(_amount, _timeUnit, auxByTime, _amount, 0) */\n  mload(0x40)\n  dup1\n  0xa0\n  add\n  0x40\n  mstore\n  dup1\n    /* \"contracts/lib/eai/EAI.sol\":11586:11593  _amount */\n  dup6\n    /* \"contracts/lib/eai/EAI.sol\":11559:11628  MaxNumberOfOperationByTime(_amount, _timeUnit, auxByTime, _amount, 0) */\n  0xffffffff\n  and\n  dup2\n  mstore\n  0x20\n  add\n    /* \"contracts/lib/eai/EAI.sol\":11595:11604  _timeUnit */\n  dup5\n    /* \"contracts/lib/eai/EAI.sol\":11559:11628  MaxNumberOfOperationByTime(_amount, _timeUnit, auxByTime, _amount, 0) */\n  0xff\n  and\n  dup2\n  mstore\n  0x20\n  add\n    /* \"contracts/lib/eai/EAI.sol\":11606:11615  auxByTime */\n  dup3\n    /* \"contracts/lib/eai/EAI.sol\":11559:11628  MaxNumberOfOperationByTime(_amount, _timeUnit, auxByTime, _amount, 0) */\n  0xffffffff\n  and\n  dup2\n  mstore\n  0x20\n  add\n    /* \"contracts/lib/eai/EAI.sol\":11617:11624  _amount */\n  dup6\n    /* \"contracts/lib/eai/EAI.sol\":11559:11628  MaxNumberOfOperationByTime(_amount, _timeUnit, auxByTime, _amount, 0) */\n  0xffffffff\n  and\n  dup2\n  mstore\n  0x20\n  add\n    /* \"contracts/lib/eai/EAI.sol\":11626:11627  0 */\n  0x00\n    /* \"contracts/lib/eai/EAI.sol\":11559:11628  MaxNumberOfOperationByTime(_amount, _timeUnit, auxByTime, _amount, 0) */\n  0xffffffff\n  and\n  dup2\n  mstore\n  pop\n    /* \"contracts/lib/eai/EAI.sol\":11552:11628  return MaxNumberOfOperationByTime(_amount, _timeUnit, auxByTime, _amount, 0) */\n  swap2\n  pop\n  pop\n    /* \"contracts/lib/eai/EAI.sol\":11005:11636  function createMaxNumberOfOperationByTime(... */\n  swap3\n  swap2\n  pop\n  pop\n  jump\t// out\n    /* \"contracts/lib/eai/EAI.sol\":17118:17337  function createMessageContent(string memory _xpath, string memory _op, int256 _content ) internal pure returns(MessageContent_Number memory){        ... */\ntag_29:\n    /* \"contracts/lib/eai/EAI.sol\":17229:17257  MessageContent_Number memory */\n  tag_64\n  tag_65\n  jump\t// in\ntag_64:\n    /* \"contracts/lib/eai/EAI.sol\":17284:17328  MessageContent_Number(_xpath, _op, _content) */\n  mload(0x40)\n  dup1\n  0x60\n  add\n  0x40\n  mstore\n  dup1\n    /* \"contracts/lib/eai/EAI.sol\":17306:17312  _xpath */\n  dup6\n    /* \"contracts/lib/eai/EAI.sol\":17284:17328  MessageContent_Number(_xpath, _op, _content) */\n  dup2\n  mstore\n  0x20\n  add\n    /* \"contracts/lib/eai/EAI.sol\":17314:17317  _op */\n  dup5\n    /* \"contracts/lib/eai/EAI.sol\":17284:17328  MessageContent_Number(_xpath, _op, _content) */\n  dup2\n  mstore\n  0x20\n  add\n    /* \"contracts/lib/eai/EAI.sol\":17319:17327  _content */\n  dup4\n    /* \"contracts/lib/eai/EAI.sol\":17284:17328  MessageContent_Number(_xpath, _op, _content) */\n  dup2\n  mstore\n  pop\n    /* \"contracts/lib/eai/EAI.sol\":17277:17328  return MessageContent_Number(_xpath, _op, _content) */\n  swap1\n  pop\n    /* \"contracts/lib/eai/EAI.sol\":17118:17337  function createMessageContent(string memory _xpath, string memory _op, int256 _content ) internal pure returns(MessageContent_Number memory){        ... */\n  swap4\n  swap3\n  pop\n  pop\n  pop\n  jump\t// out\n    /* \"contracts/lib/eai/EAI.sol\":8421:8558  function createTimeout(uint32 _timeIncrement) internal pure returns (Timeout memory ){... */\ntag_47:\n    /* \"contracts/lib/eai/EAI.sol\":8490:8504  Timeout memory */\n  tag_67\n  tag_68\n  jump\t// in\ntag_67:\n    /* \"contracts/lib/eai/EAI.sol\":8524:8550  Timeout(0, _timeIncrement) */\n  mload(0x40)\n  dup1\n  0x40\n  add\n  0x40\n  mstore\n  dup1\n    /* \"contracts/lib/eai/EAI.sol\":8532:8533  0 */\n  0x00\n    /* \"contracts/lib/eai/EAI.sol\":8524:8550  Timeout(0, _timeIncrement) */\n  0xffffffff\n  and\n  dup2\n  mstore\n  0x20\n  add\n    /* \"contracts/lib/eai/EAI.sol\":8535:8549  _timeIncrement */\n  dup4\n    /* \"contracts/lib/eai/EAI.sol\":8524:8550  Timeout(0, _timeIncrement) */\n  0xffffffff\n  and\n  dup2\n  mstore\n  pop\n    /* \"contracts/lib/eai/EAI.sol\":8517:8550  return Timeout(0, _timeIncrement) */\n  swap1\n  pop\n    /* \"contracts/lib/eai/EAI.sol\":8421:8558  function createTimeout(uint32 _timeIncrement) internal pure returns (Timeout memory ){... */\n  swap2\n  swap1\n  pop\n  jump\t// out\n    /* \"contracts/lib/eai/EAI.sol\":27468:28017  function getTimeInSeconds(uint8 timeUnit) private pure returns(uint32){... */\ntag_62:\n    /* \"contracts/lib/eai/EAI.sol\":27531:27537  uint32 */\n  0x00\n    /* \"contracts/lib/eai/EAI.sol\":872:873  4 */\n  0x04\n    /* \"contracts/lib/eai/EAI.sol\":27611:27627  timeUnit <= WEEK */\n  0xff\n  and\n    /* \"contracts/lib/eai/EAI.sol\":27611:27619  timeUnit */\n  dup3\n    /* \"contracts/lib/eai/EAI.sol\":27611:27627  timeUnit <= WEEK */\n  0xff\n  and\n  gt\n  iszero\n    /* \"contracts/lib/eai/EAI.sol\":27603:27691  require(timeUnit <= WEEK, \"The method getTimeInSeconds doesn't work for MONTH and YEAR\") */\n  tag_71\n  jumpi\n  mload(0x40)\n  0x08c379a000000000000000000000000000000000000000000000000000000000\n  dup2\n  mstore\n  0x04\n  add\n  tag_72\n  swap1\n  tag_73\n  jump\t// in\ntag_72:\n  mload(0x40)\n  dup1\n  swap2\n  sub\n  swap1\n  revert\ntag_71:\n    /* \"contracts/lib/eai/EAI.sol\":754:755  0 */\n  0x00\n    /* \"contracts/lib/eai/EAI.sol\":27707:27725  timeUnit == SECOND */\n  0xff\n  and\n    /* \"contracts/lib/eai/EAI.sol\":27707:27715  timeUnit */\n  dup3\n    /* \"contracts/lib/eai/EAI.sol\":27707:27725  timeUnit == SECOND */\n  0xff\n  and\n  sub\n    /* \"contracts/lib/eai/EAI.sol\":27704:28010  if(timeUnit == SECOND){... */\n  tag_74\n  jumpi\n    /* \"contracts/lib/eai/EAI.sol\":27748:27749  1 */\n  0x01\n    /* \"contracts/lib/eai/EAI.sol\":27741:27749  return 1 */\n  swap1\n  pop\n  jump(tag_70)\n    /* \"contracts/lib/eai/EAI.sol\":27704:28010  if(timeUnit == SECOND){... */\ntag_74:\n    /* \"contracts/lib/eai/EAI.sol\":786:787  1 */\n  0x01\n    /* \"contracts/lib/eai/EAI.sol\":27769:27787  timeUnit == MINUTE */\n  0xff\n  and\n    /* \"contracts/lib/eai/EAI.sol\":27769:27777  timeUnit */\n  dup3\n    /* \"contracts/lib/eai/EAI.sol\":27769:27787  timeUnit == MINUTE */\n  0xff\n  and\n  sub\n    /* \"contracts/lib/eai/EAI.sol\":27766:28010  if(timeUnit == MINUTE){... */\n  tag_76\n  jumpi\n    /* \"contracts/lib/eai/EAI.sol\":27810:27812  60 */\n  0x3c\n    /* \"contracts/lib/eai/EAI.sol\":27803:27812  return 60 */\n  swap1\n  pop\n  jump(tag_70)\n    /* \"contracts/lib/eai/EAI.sol\":27766:28010  if(timeUnit == MINUTE){... */\ntag_76:\n    /* \"contracts/lib/eai/EAI.sol\":815:816  2 */\n  0x02\n    /* \"contracts/lib/eai/EAI.sol\":27832:27848  timeUnit == HOUR */\n  0xff\n  and\n    /* \"contracts/lib/eai/EAI.sol\":27832:27840  timeUnit */\n  dup3\n    /* \"contracts/lib/eai/EAI.sol\":27832:27848  timeUnit == HOUR */\n  0xff\n  and\n  sub\n    /* \"contracts/lib/eai/EAI.sol\":27829:28010  if(timeUnit == HOUR ){... */\n  tag_78\n  jumpi\n    /* \"contracts/lib/eai/EAI.sol\":27872:27877  60*60 */\n  0x0e10\n    /* \"contracts/lib/eai/EAI.sol\":27865:27877  return 60*60 */\n  swap1\n  pop\n  jump(tag_70)\n    /* \"contracts/lib/eai/EAI.sol\":27829:28010  if(timeUnit == HOUR ){... */\ntag_78:\n    /* \"contracts/lib/eai/EAI.sol\":843:844  3 */\n  0x03\n    /* \"contracts/lib/eai/EAI.sol\":27897:27912  timeUnit == DAY */\n  0xff\n  and\n    /* \"contracts/lib/eai/EAI.sol\":27897:27905  timeUnit */\n  dup3\n    /* \"contracts/lib/eai/EAI.sol\":27897:27912  timeUnit == DAY */\n  0xff\n  and\n  sub\n    /* \"contracts/lib/eai/EAI.sol\":27894:28010  if(timeUnit == DAY){... */\n  tag_80\n  jumpi\n    /* \"contracts/lib/eai/EAI.sol\":27935:27943  60*60*24 */\n  0x015180\n    /* \"contracts/lib/eai/EAI.sol\":27928:27943  return 60*60*24 */\n  swap1\n  pop\n  jump(tag_70)\n    /* \"contracts/lib/eai/EAI.sol\":27894:28010  if(timeUnit == DAY){... */\ntag_80:\n    /* \"contracts/lib/eai/EAI.sol\":27981:27991  60*60*24*7 */\n  0x093a80\n    /* \"contracts/lib/eai/EAI.sol\":27974:27991  return 60*60*24*7 */\n  swap1\n  pop\n    /* \"contracts/lib/eai/EAI.sol\":27468:28017  function getTimeInSeconds(uint8 timeUnit) private pure returns(uint32){... */\ntag_70:\n  swap2\n  swap1\n  pop\n  jump\t// out\n    /* \"contracts/study-case-contracts/001-delivery-hiring/DeliveryHiring_RO.sol\":190:7714  contract DeliveryHiring_RO {... */\ntag_2:\n  dup3\n  dup1\n  sload\n  tag_82\n  swap1\n  tag_15\n  jump\t// in\ntag_82:\n  swap1\n  0x00\n  mstore\n  keccak256(0x00, 0x20)\n  swap1\n  0x1f\n  add\n  0x20\n  swap1\n  div\n  dup2\n  add\n  swap3\n  dup3\n  tag_84\n  jumpi\n  0x00\n  dup6\n  sstore\n  jump(tag_83)\ntag_84:\n  dup3\n  0x1f\n  lt\n  tag_85\n  jumpi\n  dup1\n  mload\n  not(0xff)\n  and\n  dup4\n  dup1\n  add\n  or\n  dup6\n  sstore\n  jump(tag_83)\ntag_85:\n  dup3\n  dup1\n  add\n  0x01\n  add\n  dup6\n  sstore\n  dup3\n  iszero\n  tag_83\n  jumpi\n  swap2\n  dup3\n  add\ntag_86:\n  dup3\n  dup2\n  gt\n  iszero\n  tag_87\n  jumpi\n  dup3\n  mload\n  dup3\n  sstore\n  swap2\n  0x20\n  add\n  swap2\n  swap1\n  0x01\n  add\n  swap1\n  jump(tag_86)\ntag_87:\ntag_83:\n  pop\n  swap1\n  pop\n  tag_88\n  swap2\n  swap1\n  tag_89\n  jump\t// in\ntag_88:\n  pop\n  swap1\n  jump\t// out\ntag_17:\n  dup3\n  dup1\n  sload\n  tag_90\n  swap1\n  tag_15\n  jump\t// in\ntag_90:\n  swap1\n  0x00\n  mstore\n  keccak256(0x00, 0x20)\n  swap1\n  0x1f\n  add\n  0x20\n  swap1\n  div\n  dup2\n  add\n  swap3\n  dup3\n  tag_92\n  jumpi\n  0x00\n  dup6\n  sstore\n  jump(tag_91)\ntag_92:\n  dup3\n  0x1f\n  lt\n  tag_93\n  jumpi\n  dup1\n  sload\n  dup6\n  sstore\n  jump(tag_91)\ntag_93:\n  dup3\n  dup1\n  add\n  0x01\n  add\n  dup6\n  sstore\n  dup3\n  iszero\n  tag_91\n  jumpi\n  0x00\n  mstore\n  keccak256(0x00, 0x20)\n  swap2\n  0x1f\n  add\n  0x20\n  swap1\n  div\n  dup3\n  add\ntag_94:\n  dup3\n  dup2\n  gt\n  iszero\n  tag_95\n  jumpi\n  dup3\n  sload\n  dup3\n  sstore\n  swap2\n  0x01\n  add\n  swap2\n  swap1\n  0x01\n  add\n  swap1\n  jump(tag_94)\ntag_95:\ntag_91:\n  pop\n  swap1\n  pop\n  tag_96\n  swap2\n  swap1\n  tag_89\n  jump\t// in\ntag_96:\n  pop\n  swap1\n  jump\t// out\ntag_55:\n  mload(0x40)\n  dup1\n  0x60\n  add\n  0x40\n  mstore\n  dup1\n  0x60\n  dup2\n  mstore\n  0x20\n  add\n  and(0xffffffffffffffffffffffffffffffffffffffff, 0x00)\n  dup2\n  mstore\n  0x20\n  add\n  iszero(iszero(0x00))\n  dup2\n  mstore\n  pop\n  swap1\n  jump\t// out\ntag_58:\n  mload(0x40)\n  dup1\n  0xa0\n  add\n  0x40\n  mstore\n  dup1\n  and(0xffffffff, 0x00)\n  dup2\n  mstore\n  0x20\n  add\n  and(0xff, 0x00)\n  dup2\n  mstore\n  0x20\n  add\n  and(0xffffffff, 0x00)\n  dup2\n  mstore\n  0x20\n  add\n  and(0xffffffff, 0x00)\n  dup2\n  mstore\n  0x20\n  add\n  and(0xffffffff, 0x00)\n  dup2\n  mstore\n  pop\n  swap1\n  jump\t// out\ntag_65:\n  mload(0x40)\n  dup1\n  0x60\n  add\n  0x40\n  mstore\n  dup1\n  0x60\n  dup2\n  mstore\n  0x20\n  add\n  0x60\n  dup2\n  mstore\n  0x20\n  add\n  0x00\n  dup2\n  mstore\n  pop\n  swap1\n  jump\t// out\ntag_68:\n  mload(0x40)\n  dup1\n  0x40\n  add\n  0x40\n  mstore\n  dup1\n  and(0xffffffff, 0x00)\n  dup2\n  mstore\n  0x20\n  add\n  and(0xffffffff, 0x00)\n  dup2\n  mstore\n  pop\n  swap1\n  jump\t// out\ntag_89:\ntag_97:\n  dup1\n  dup3\n  gt\n  iszero\n  tag_98\n  jumpi\n  0x00\n  dup2\n  0x00\n  swap1\n  sstore\n  pop\n  0x01\n  add\n  jump(tag_97)\ntag_98:\n  pop\n  swap1\n  jump\t// out\n    /* \"#utility.yul\":88:205   */\ntag_100:\n    /* \"#utility.yul\":197:198   */\n  0x00\n    /* \"#utility.yul\":194:195   */\n  dup1\n    /* \"#utility.yul\":187:199   */\n  revert\n    /* \"#utility.yul\":334:460   */\ntag_102:\n    /* \"#utility.yul\":371:378   */\n  0x00\n    /* \"#utility.yul\":411:453   */\n  0xffffffffffffffffffffffffffffffffffffffff\n    /* \"#utility.yul\":404:409   */\n  dup3\n    /* \"#utility.yul\":400:454   */\n  and\n    /* \"#utility.yul\":389:454   */\n  swap1\n  pop\n    /* \"#utility.yul\":334:460   */\n  swap2\n  swap1\n  pop\n  jump\t// out\n    /* \"#utility.yul\":466:562   */\ntag_103:\n    /* \"#utility.yul\":503:510   */\n  0x00\n    /* \"#utility.yul\":532:556   */\n  tag_116\n    /* \"#utility.yul\":550:555   */\n  dup3\n    /* \"#utility.yul\":532:556   */\n  tag_102\n  jump\t// in\ntag_116:\n    /* \"#utility.yul\":521:556   */\n  swap1\n  pop\n    /* \"#utility.yul\":466:562   */\n  swap2\n  swap1\n  pop\n  jump\t// out\n    /* \"#utility.yul\":568:690   */\ntag_104:\n    /* \"#utility.yul\":641:665   */\n  tag_118\n    /* \"#utility.yul\":659:664   */\n  dup2\n    /* \"#utility.yul\":641:665   */\n  tag_103\n  jump\t// in\ntag_118:\n    /* \"#utility.yul\":634:639   */\n  dup2\n    /* \"#utility.yul\":631:666   */\n  eq\n    /* \"#utility.yul\":621:684   */\n  tag_119\n  jumpi\n    /* \"#utility.yul\":680:681   */\n  0x00\n    /* \"#utility.yul\":677:678   */\n  dup1\n    /* \"#utility.yul\":670:682   */\n  revert\n    /* \"#utility.yul\":621:684   */\ntag_119:\n    /* \"#utility.yul\":568:690   */\n  pop\n  jump\t// out\n    /* \"#utility.yul\":696:839   */\ntag_105:\n    /* \"#utility.yul\":753:758   */\n  0x00\n    /* \"#utility.yul\":784:790   */\n  dup2\n    /* \"#utility.yul\":778:791   */\n  mload\n    /* \"#utility.yul\":769:791   */\n  swap1\n  pop\n    /* \"#utility.yul\":800:833   */\n  tag_121\n    /* \"#utility.yul\":827:832   */\n  dup2\n    /* \"#utility.yul\":800:833   */\n  tag_104\n  jump\t// in\ntag_121:\n    /* \"#utility.yul\":696:839   */\n  swap3\n  swap2\n  pop\n  pop\n  jump\t// out\n    /* \"#utility.yul\":845:1196   */\ntag_6:\n    /* \"#utility.yul\":915:921   */\n  0x00\n    /* \"#utility.yul\":964:966   */\n  0x20\n    /* \"#utility.yul\":952:961   */\n  dup3\n    /* \"#utility.yul\":943:950   */\n  dup5\n    /* \"#utility.yul\":939:962   */\n  sub\n    /* \"#utility.yul\":935:967   */\n  slt\n    /* \"#utility.yul\":932:1051   */\n  iszero\n  tag_123\n  jumpi\n    /* \"#utility.yul\":970:1049   */\n  tag_124\n  tag_100\n  jump\t// in\ntag_124:\n    /* \"#utility.yul\":932:1051   */\ntag_123:\n    /* \"#utility.yul\":1090:1091   */\n  0x00\n    /* \"#utility.yul\":1115:1179   */\n  tag_125\n    /* \"#utility.yul\":1171:1178   */\n  dup5\n    /* \"#utility.yul\":1162:1168   */\n  dup3\n    /* \"#utility.yul\":1151:1160   */\n  dup6\n    /* \"#utility.yul\":1147:1169   */\n  add\n    /* \"#utility.yul\":1115:1179   */\n  tag_105\n  jump\t// in\ntag_125:\n    /* \"#utility.yul\":1105:1179   */\n  swap2\n  pop\n    /* \"#utility.yul\":1061:1189   */\n  pop\n    /* \"#utility.yul\":845:1196   */\n  swap3\n  swap2\n  pop\n  pop\n  jump\t// out\n    /* \"#utility.yul\":1202:1382   */\ntag_106:\n    /* \"#utility.yul\":1250:1327   */\n  0x4e487b7100000000000000000000000000000000000000000000000000000000\n    /* \"#utility.yul\":1247:1248   */\n  0x00\n    /* \"#utility.yul\":1240:1328   */\n  mstore\n    /* \"#utility.yul\":1347:1351   */\n  0x22\n    /* \"#utility.yul\":1344:1345   */\n  0x04\n    /* \"#utility.yul\":1337:1352   */\n  mstore\n    /* \"#utility.yul\":1371:1375   */\n  0x24\n    /* \"#utility.yul\":1368:1369   */\n  0x00\n    /* \"#utility.yul\":1361:1376   */\n  revert\n    /* \"#utility.yul\":1388:1708   */\ntag_15:\n    /* \"#utility.yul\":1432:1438   */\n  0x00\n    /* \"#utility.yul\":1469:1470   */\n  0x02\n    /* \"#utility.yul\":1463:1467   */\n  dup3\n    /* \"#utility.yul\":1459:1471   */\n  div\n    /* \"#utility.yul\":1449:1471   */\n  swap1\n  pop\n    /* \"#utility.yul\":1516:1517   */\n  0x01\n    /* \"#utility.yul\":1510:1514   */\n  dup3\n    /* \"#utility.yul\":1506:1518   */\n  and\n    /* \"#utility.yul\":1537:1555   */\n  dup1\n    /* \"#utility.yul\":1527:1608   */\n  tag_128\n  jumpi\n    /* \"#utility.yul\":1593:1597   */\n  0x7f\n    /* \"#utility.yul\":1585:1591   */\n  dup3\n    /* \"#utility.yul\":1581:1598   */\n  and\n    /* \"#utility.yul\":1571:1598   */\n  swap2\n  pop\n    /* \"#utility.yul\":1527:1608   */\ntag_128:\n    /* \"#utility.yul\":1655:1657   */\n  0x20\n    /* \"#utility.yul\":1647:1653   */\n  dup3\n    /* \"#utility.yul\":1644:1658   */\n  lt\n    /* \"#utility.yul\":1624:1642   */\n  dup2\n    /* \"#utility.yul\":1621:1659   */\n  sub\n    /* \"#utility.yul\":1618:1702   */\n  tag_129\n  jumpi\n    /* \"#utility.yul\":1674:1692   */\n  tag_130\n  tag_106\n  jump\t// in\ntag_130:\n    /* \"#utility.yul\":1618:1702   */\ntag_129:\n    /* \"#utility.yul\":1439:1708   */\n  pop\n    /* \"#utility.yul\":1388:1708   */\n  swap2\n  swap1\n  pop\n  jump\t// out\n    /* \"#utility.yul\":1714:1883   */\ntag_107:\n    /* \"#utility.yul\":1798:1809   */\n  0x00\n    /* \"#utility.yul\":1832:1838   */\n  dup3\n    /* \"#utility.yul\":1827:1830   */\n  dup3\n    /* \"#utility.yul\":1820:1839   */\n  mstore\n    /* \"#utility.yul\":1872:1876   */\n  0x20\n    /* \"#utility.yul\":1867:1870   */\n  dup3\n    /* \"#utility.yul\":1863:1877   */\n  add\n    /* \"#utility.yul\":1848:1877   */\n  swap1\n  pop\n    /* \"#utility.yul\":1714:1883   */\n  swap3\n  swap2\n  pop\n  pop\n  jump\t// out\n    /* \"#utility.yul\":1889:2135   */\ntag_108:\n    /* \"#utility.yul\":2029:2063   */\n  0x546865206d6574686f642067657454696d65496e5365636f6e647320646f6573\n    /* \"#utility.yul\":2025:2026   */\n  0x00\n    /* \"#utility.yul\":2017:2023   */\n  dup3\n    /* \"#utility.yul\":2013:2027   */\n  add\n    /* \"#utility.yul\":2006:2064   */\n  mstore\n    /* \"#utility.yul\":2098:2127   */\n  0x6e277420776f726b20666f72204d4f4e544820616e6420594541520000000000\n    /* \"#utility.yul\":2093:2095   */\n  0x20\n    /* \"#utility.yul\":2085:2091   */\n  dup3\n    /* \"#utility.yul\":2081:2096   */\n  add\n    /* \"#utility.yul\":2074:2128   */\n  mstore\n    /* \"#utility.yul\":1889:2135   */\n  pop\n  jump\t// out\n    /* \"#utility.yul\":2141:2507   */\ntag_109:\n    /* \"#utility.yul\":2283:2286   */\n  0x00\n    /* \"#utility.yul\":2304:2371   */\n  tag_134\n    /* \"#utility.yul\":2368:2370   */\n  0x3b\n    /* \"#utility.yul\":2363:2366   */\n  dup4\n    /* \"#utility.yul\":2304:2371   */\n  tag_107\n  jump\t// in\ntag_134:\n    /* \"#utility.yul\":2297:2371   */\n  swap2\n  pop\n    /* \"#utility.yul\":2380:2473   */\n  tag_135\n    /* \"#utility.yul\":2469:2472   */\n  dup3\n    /* \"#utility.yul\":2380:2473   */\n  tag_108\n  jump\t// in\ntag_135:\n    /* \"#utility.yul\":2498:2500   */\n  0x40\n    /* \"#utility.yul\":2493:2496   */\n  dup3\n    /* \"#utility.yul\":2489:2501   */\n  add\n    /* \"#utility.yul\":2482:2501   */\n  swap1\n  pop\n    /* \"#utility.yul\":2141:2507   */\n  swap2\n  swap1\n  pop\n  jump\t// out\n    /* \"#utility.yul\":2513:2932   */\ntag_73:\n    /* \"#utility.yul\":2679:2683   */\n  0x00\n    /* \"#utility.yul\":2717:2719   */\n  0x20\n    /* \"#utility.yul\":2706:2715   */\n  dup3\n    /* \"#utility.yul\":2702:2720   */\n  add\n    /* \"#utility.yul\":2694:2720   */\n  swap1\n  pop\n    /* \"#utility.yul\":2766:2775   */\n  dup2\n    /* \"#utility.yul\":2760:2764   */\n  dup2\n    /* \"#utility.yul\":2756:2776   */\n  sub\n    /* \"#utility.yul\":2752:2753   */\n  0x00\n    /* \"#utility.yul\":2741:2750   */\n  dup4\n    /* \"#utility.yul\":2737:2754   */\n  add\n    /* \"#utility.yul\":2730:2777   */\n  mstore\n    /* \"#utility.yul\":2794:2925   */\n  tag_137\n    /* \"#utility.yul\":2920:2924   */\n  dup2\n    /* \"#utility.yul\":2794:2925   */\n  tag_109\n  jump\t// in\ntag_137:\n    /* \"#utility.yul\":2786:2925   */\n  swap1\n  pop\n    /* \"#utility.yul\":2513:2932   */\n  swap2\n  swap1\n  pop\n  jump\t// out\n    /* \"contracts/study-case-contracts/001-delivery-hiring/DeliveryHiring_RO.sol\":190:7714  contract DeliveryHiring_RO {... */\ntag_53:\n  dataSize(sub_0)\n  dup1\n  dataOffset(sub_0)\n  0x00\n  codecopy\n  0x00\n  return\nstop\ndata_8db4f537e4773daf3b42fc9b069ffea1a74d1920b50a1fe9a37f0966abb9c4fc 636f756e74282f2f626f64792f7065726f736f6e616c496e666f726d6174696f6e2f616464726573732f63657029\n\nsub_0: assembly {\n        /* \"contracts/study-case-contracts/001-delivery-hiring/DeliveryHiring_RO.sol\":190:7714  contract DeliveryHiring_RO {... */\n      mstore(0x40, 0x80)\n      callvalue\n      dup1\n      iszero\n      tag_1\n      jumpi\n      0x00\n      dup1\n      revert\n    tag_1:\n      pop\n      jumpi(tag_2, lt(calldatasize, 0x04))\n      shr(0xe0, calldataload(0x00))\n      dup1\n      0x70d8915a\n      gt\n      tag_10\n      jumpi\n      dup1\n      0x70d8915a\n      eq\n      tag_6\n      jumpi\n      dup1\n      0x85931911\n      eq\n      tag_7\n      jumpi\n      dup1\n      0xb8b4f1a0\n      eq\n      tag_8\n      jumpi\n      dup1\n      0xfb6f8243\n      eq\n      tag_9\n      jumpi\n      jump(tag_2)\n    tag_10:\n      dup1\n      0x1aa7fcc5\n      eq\n      tag_3\n      jumpi\n      dup1\n      0x3bbd6e54\n      eq\n      tag_4\n      jumpi\n      dup1\n      0x5e744c6a\n      eq\n      tag_5\n      jumpi\n    tag_2:\n      0x00\n      dup1\n      revert\n        /* \"contracts/study-case-contracts/001-delivery-hiring/DeliveryHiring_RO.sol\":3176:4134  function right_requestDelivery(... */\n    tag_3:\n      tag_11\n      0x04\n      dup1\n      calldatasize\n      sub\n      dup2\n      add\n      swap1\n      tag_12\n      swap2\n      swap1\n      tag_13\n      jump\t// in\n    tag_12:\n      tag_14\n      jump\t// in\n    tag_11:\n      mload(0x40)\n      tag_15\n      swap2\n      swap1\n      tag_16\n      jump\t// in\n    tag_15:\n      mload(0x40)\n      dup1\n      swap2\n      sub\n      swap1\n      return\n        /* \"contracts/study-case-contracts/001-delivery-hiring/DeliveryHiring_RO.sol\":4148:5022  function responderOrder(uint32 _accessDateTime, int256[] memory _resultFromXpath_nc) public onlyApplication() returns(bool){... */\n    tag_4:\n      tag_17\n      0x04\n      dup1\n      calldatasize\n      sub\n      dup2\n      add\n      swap1\n      tag_18\n      swap2\n      swap1\n      tag_13\n      jump\t// in\n    tag_18:\n      tag_19\n      jump\t// in\n    tag_17:\n      mload(0x40)\n      tag_20\n      swap2\n      swap1\n      tag_16\n      jump\t// in\n    tag_20:\n      mload(0x40)\n      dup1\n      swap2\n      sub\n      swap1\n      return\n        /* \"contracts/study-case-contracts/001-delivery-hiring/DeliveryHiring_RO.sol\":5950:6381  function changeApplicationParty(string memory _name, address _walletAddress) public returns(bool) {       ... */\n    tag_5:\n      tag_21\n      0x04\n      dup1\n      calldatasize\n      sub\n      dup2\n      add\n      swap1\n      tag_22\n      swap2\n      swap1\n      tag_23\n      jump\t// in\n    tag_22:\n      tag_24\n      jump\t// in\n    tag_21:\n      mload(0x40)\n      tag_25\n      swap2\n      swap1\n      tag_16\n      jump\t// in\n    tag_25:\n      mload(0x40)\n      dup1\n      swap2\n      sub\n      swap1\n      return\n        /* \"contracts/study-case-contracts/001-delivery-hiring/DeliveryHiring_RO.sol\":6529:6661  function getApplicationAddress() public view onlyInvolvedParties returns(address){... */\n    tag_6:\n      tag_26\n      tag_27\n      jump\t// in\n    tag_26:\n      mload(0x40)\n      tag_28\n      swap2\n      swap1\n      tag_29\n      jump\t// in\n    tag_28:\n      mload(0x40)\n      dup1\n      swap2\n      sub\n      swap1\n      return\n        /* \"contracts/study-case-contracts/001-delivery-hiring/DeliveryHiring_RO.sol\":6393:6517  function getProcessAddress() public view onlyInvolvedParties returns(address){... */\n    tag_7:\n      tag_30\n      tag_31\n      jump\t// in\n    tag_30:\n      mload(0x40)\n      tag_32\n      swap2\n      swap1\n      tag_29\n      jump\t// in\n    tag_32:\n      mload(0x40)\n      dup1\n      swap2\n      sub\n      swap1\n      return\n        /* \"contracts/study-case-contracts/001-delivery-hiring/DeliveryHiring_RO.sol\":5350:5612  function signContract() public onlyApplication() returns(bool) {... */\n    tag_8:\n      tag_33\n      tag_34\n      jump\t// in\n    tag_33:\n      mload(0x40)\n      tag_35\n      swap2\n      swap1\n      tag_16\n      jump\t// in\n    tag_35:\n      mload(0x40)\n      dup1\n      swap2\n      sub\n      swap1\n      return\n        /* \"contracts/study-case-contracts/001-delivery-hiring/DeliveryHiring_RO.sol\":6669:6818  function getParty(address _walletAddress) public view onlyInvolvedParties returns(EAI.Party memory){... */\n    tag_9:\n      tag_36\n      0x04\n      dup1\n      calldatasize\n      sub\n      dup2\n      add\n      swap1\n      tag_37\n      swap2\n      swap1\n      tag_38\n      jump\t// in\n    tag_37:\n      tag_39\n      jump\t// in\n    tag_36:\n      mload(0x40)\n      tag_40\n      swap2\n      swap1\n      tag_41\n      jump\t// in\n    tag_40:\n      mload(0x40)\n      dup1\n      swap2\n      sub\n      swap1\n      return\n        /* \"contracts/study-case-contracts/001-delivery-hiring/DeliveryHiring_RO.sol\":3176:4134  function right_requestDelivery(... */\n    tag_14:\n        /* \"contracts/study-case-contracts/001-delivery-hiring/DeliveryHiring_RO.sol\":3327:3331  bool */\n      0x00\n        /* \"contracts/study-case-contracts/001-delivery-hiring/DeliveryHiring_RO.sol\":7231:7240  activated */\n      dup1\n      0x00\n      swap1\n      sload\n      swap1\n      0x0100\n      exp\n      swap1\n      div\n      0xff\n      and\n        /* \"contracts/study-case-contracts/001-delivery-hiring/DeliveryHiring_RO.sol\":7223:7273  require(activated, \"This contract is deactivated\") */\n      tag_47\n      jumpi\n      mload(0x40)\n      0x08c379a000000000000000000000000000000000000000000000000000000000\n      dup2\n      mstore\n      0x04\n      add\n      tag_48\n      swap1\n      tag_49\n      jump\t// in\n    tag_48:\n      mload(0x40)\n      dup1\n      swap2\n      sub\n      swap1\n      revert\n    tag_47:\n        /* \"contracts/study-case-contracts/001-delivery-hiring/DeliveryHiring_RO.sol\":7317:7327  msg.sender */\n      caller\n        /* \"contracts/study-case-contracts/001-delivery-hiring/DeliveryHiring_RO.sol\":7292:7327  process.walletAddress == msg.sender */\n      0xffffffffffffffffffffffffffffffffffffffff\n      and\n        /* \"contracts/study-case-contracts/001-delivery-hiring/DeliveryHiring_RO.sol\":7292:7299  process */\n      0x03\n        /* \"contracts/study-case-contracts/001-delivery-hiring/DeliveryHiring_RO.sol\":7292:7313  process.walletAddress */\n      0x01\n      add\n      0x00\n      swap1\n      sload\n      swap1\n      0x0100\n      exp\n      swap1\n      div\n      0xffffffffffffffffffffffffffffffffffffffff\n      and\n        /* \"contracts/study-case-contracts/001-delivery-hiring/DeliveryHiring_RO.sol\":7292:7327  process.walletAddress == msg.sender */\n      0xffffffffffffffffffffffffffffffffffffffff\n      and\n      eq\n        /* \"contracts/study-case-contracts/001-delivery-hiring/DeliveryHiring_RO.sol\":7284:7375  require(process.walletAddress == msg.sender, \"Only the process can execute this operation\") */\n      tag_50\n      jumpi\n      mload(0x40)\n      0x08c379a000000000000000000000000000000000000000000000000000000000\n      dup2\n      mstore\n      0x04\n      add\n      tag_51\n      swap1\n      tag_52\n      jump\t// in\n    tag_51:\n      mload(0x40)\n      dup1\n      swap2\n      sub\n      swap1\n      revert\n    tag_50:\n        /* \"contracts/study-case-contracts/001-delivery-hiring/DeliveryHiring_RO.sol\":3355:3434  maxNumberOfOperationByTime_C1[0].hasAvailableOperations_ByTime(_accessDateTime) */\n      tag_54\n        /* \"contracts/study-case-contracts/001-delivery-hiring/DeliveryHiring_RO.sol\":3418:3433  _accessDateTime */\n      dup4\n        /* \"contracts/study-case-contracts/001-delivery-hiring/DeliveryHiring_RO.sol\":3355:3384  maxNumberOfOperationByTime_C1 */\n      0x08\n        /* \"contracts/study-case-contracts/001-delivery-hiring/DeliveryHiring_RO.sol\":3385:3386  0 */\n      0x00\n        /* \"contracts/study-case-contracts/001-delivery-hiring/DeliveryHiring_RO.sol\":3355:3387  maxNumberOfOperationByTime_C1[0] */\n      dup2\n      sload\n      dup2\n      lt\n      tag_55\n      jumpi\n      tag_56\n      tag_57\n      jump\t// in\n    tag_56:\n    tag_55:\n      swap1\n      0x00\n      mstore\n      keccak256(0x00, 0x20)\n      add\n        /* \"contracts/study-case-contracts/001-delivery-hiring/DeliveryHiring_RO.sol\":3355:3417  maxNumberOfOperationByTime_C1[0].hasAvailableOperations_ByTime */\n      tag_59\n      swap1\n        /* \"contracts/study-case-contracts/001-delivery-hiring/DeliveryHiring_RO.sol\":3355:3434  maxNumberOfOperationByTime_C1[0].hasAvailableOperations_ByTime(_accessDateTime) */\n      swap2\n      swap1\n      0xffffffff\n      and\n      jump\t// in\n    tag_54:\n        /* \"contracts/study-case-contracts/001-delivery-hiring/DeliveryHiring_RO.sol\":3355:3518  maxNumberOfOperationByTime_C1[0].hasAvailableOperations_ByTime(_accessDateTime)&&... */\n      dup1\n      iszero\n      tag_60\n      jumpi\n      pop\n        /* \"contracts/study-case-contracts/001-delivery-hiring/DeliveryHiring_RO.sol\":3449:3518  msgContent_number_C1[0].evaluateNumberContent(_resultFromXpath_nc[0]) */\n      tag_61\n        /* \"contracts/study-case-contracts/001-delivery-hiring/DeliveryHiring_RO.sol\":3495:3514  _resultFromXpath_nc */\n      dup3\n        /* \"contracts/study-case-contracts/001-delivery-hiring/DeliveryHiring_RO.sol\":3515:3516  0 */\n      0x00\n        /* \"contracts/study-case-contracts/001-delivery-hiring/DeliveryHiring_RO.sol\":3495:3517  _resultFromXpath_nc[0] */\n      dup2\n      mload\n      dup2\n      lt\n      tag_62\n      jumpi\n      tag_63\n      tag_57\n      jump\t// in\n    tag_63:\n    tag_62:\n      0x20\n      mul\n      0x20\n      add\n      add\n      mload\n        /* \"contracts/study-case-contracts/001-delivery-hiring/DeliveryHiring_RO.sol\":3449:3469  msgContent_number_C1 */\n      0x09\n        /* \"contracts/study-case-contracts/001-delivery-hiring/DeliveryHiring_RO.sol\":3470:3471  0 */\n      0x00\n        /* \"contracts/study-case-contracts/001-delivery-hiring/DeliveryHiring_RO.sol\":3449:3472  msgContent_number_C1[0] */\n      dup2\n      sload\n      dup2\n      lt\n      tag_64\n      jumpi\n      tag_65\n      tag_57\n      jump\t// in\n    tag_65:\n    tag_64:\n      swap1\n      0x00\n      mstore\n      keccak256(0x00, 0x20)\n      swap1\n      0x03\n      mul\n      add\n        /* \"contracts/study-case-contracts/001-delivery-hiring/DeliveryHiring_RO.sol\":3449:3494  msgContent_number_C1[0].evaluateNumberContent */\n      mload(0x40)\n      dup1\n      0x60\n      add\n      0x40\n      mstore\n      swap1\n      dup2\n      0x00\n      dup3\n      add\n      dup1\n      sload\n      tag_67\n      swap1\n      tag_68\n      jump\t// in\n    tag_67:\n      dup1\n      0x1f\n      add\n      0x20\n      dup1\n      swap2\n      div\n      mul\n      0x20\n      add\n      mload(0x40)\n      swap1\n      dup2\n      add\n      0x40\n      mstore\n      dup1\n      swap3\n      swap2\n      swap1\n      dup2\n      dup2\n      mstore\n      0x20\n      add\n      dup3\n      dup1\n      sload\n      tag_69\n      swap1\n      tag_68\n      jump\t// in\n    tag_69:\n      dup1\n      iszero\n      tag_70\n      jumpi\n      dup1\n      0x1f\n      lt\n      tag_71\n      jumpi\n      0x0100\n      dup1\n      dup4\n      sload\n      div\n      mul\n      dup4\n      mstore\n      swap2\n      0x20\n      add\n      swap2\n      jump(tag_70)\n    tag_71:\n      dup3\n      add\n      swap2\n      swap1\n      0x00\n      mstore\n      keccak256(0x00, 0x20)\n      swap1\n    tag_72:\n      dup2\n      sload\n      dup2\n      mstore\n      swap1\n      0x01\n      add\n      swap1\n      0x20\n      add\n      dup1\n      dup4\n      gt\n      tag_72\n      jumpi\n      dup3\n      swap1\n      sub\n      0x1f\n      and\n      dup3\n      add\n      swap2\n    tag_70:\n      pop\n      pop\n      pop\n      pop\n      pop\n      dup2\n      mstore\n      0x20\n      add\n      0x01\n      dup3\n      add\n      dup1\n      sload\n      tag_73\n      swap1\n      tag_68\n      jump\t// in\n    tag_73:\n      dup1\n      0x1f\n      add\n      0x20\n      dup1\n      swap2\n      div\n      mul\n      0x20\n      add\n      mload(0x40)\n      swap1\n      dup2\n      add\n      0x40\n      mstore\n      dup1\n      swap3\n      swap2\n      swap1\n      dup2\n      dup2\n      mstore\n      0x20\n      add\n      dup3\n      dup1\n      sload\n      tag_74\n      swap1\n      tag_68\n      jump\t// in\n    tag_74:\n      dup1\n      iszero\n      tag_75\n      jumpi\n      dup1\n      0x1f\n      lt\n      tag_76\n      jumpi\n      0x0100\n      dup1\n      dup4\n      sload\n      div\n      mul\n      dup4\n      mstore\n      swap2\n      0x20\n      add\n      swap2\n      jump(tag_75)\n    tag_76:\n      dup3\n      add\n      swap2\n      swap1\n      0x00\n      mstore\n      keccak256(0x00, 0x20)\n      swap1\n    tag_77:\n      dup2\n      sload\n      dup2\n      mstore\n      swap1\n      0x01\n      add\n      swap1\n      0x20\n      add\n      dup1\n      dup4\n      gt\n      tag_77\n      jumpi\n      dup3\n      swap1\n      sub\n      0x1f\n      and\n      dup3\n      add\n      swap2\n    tag_75:\n      pop\n      pop\n      pop\n      pop\n      pop\n      dup2\n      mstore\n      0x20\n      add\n      0x02\n      dup3\n      add\n      sload\n      dup2\n      mstore\n      pop\n      pop\n      tag_78\n      swap1\n        /* \"contracts/study-case-contracts/001-delivery-hiring/DeliveryHiring_RO.sol\":3449:3518  msgContent_number_C1[0].evaluateNumberContent(_resultFromXpath_nc[0]) */\n      swap2\n      swap1\n      0xffffffff\n      and\n      jump\t// in\n    tag_61:\n        /* \"contracts/study-case-contracts/001-delivery-hiring/DeliveryHiring_RO.sol\":3355:3518  maxNumberOfOperationByTime_C1[0].hasAvailableOperations_ByTime(_accessDateTime)&&... */\n    tag_60:\n        /* \"contracts/study-case-contracts/001-delivery-hiring/DeliveryHiring_RO.sol\":3355:3603  maxNumberOfOperationByTime_C1[0].hasAvailableOperations_ByTime(_accessDateTime)&&... */\n      dup1\n      iszero\n      tag_79\n      jumpi\n      pop\n        /* \"contracts/study-case-contracts/001-delivery-hiring/DeliveryHiring_RO.sol\":3534:3603  msgContent_number_C1[1].evaluateNumberContent(_resultFromXpath_nc[1]) */\n      tag_80\n        /* \"contracts/study-case-contracts/001-delivery-hiring/DeliveryHiring_RO.sol\":3580:3599  _resultFromXpath_nc */\n      dup3\n        /* \"contracts/study-case-contracts/001-delivery-hiring/DeliveryHiring_RO.sol\":3600:3601  1 */\n      0x01\n        /* \"contracts/study-case-contracts/001-delivery-hiring/DeliveryHiring_RO.sol\":3580:3602  _resultFromXpath_nc[1] */\n      dup2\n      mload\n      dup2\n      lt\n      tag_81\n      jumpi\n      tag_82\n      tag_57\n      jump\t// in\n    tag_82:\n    tag_81:\n      0x20\n      mul\n      0x20\n      add\n      add\n      mload\n        /* \"contracts/study-case-contracts/001-delivery-hiring/DeliveryHiring_RO.sol\":3534:3554  msgContent_number_C1 */\n      0x09\n        /* \"contracts/study-case-contracts/001-delivery-hiring/DeliveryHiring_RO.sol\":3555:3556  1 */\n      0x01\n        /* \"contracts/study-case-contracts/001-delivery-hiring/DeliveryHiring_RO.sol\":3534:3557  msgContent_number_C1[1] */\n      dup2\n      sload\n      dup2\n      lt\n      tag_83\n      jumpi\n      tag_84\n      tag_57\n      jump\t// in\n    tag_84:\n    tag_83:\n      swap1\n      0x00\n      mstore\n      keccak256(0x00, 0x20)\n      swap1\n      0x03\n      mul\n      add\n        /* \"contracts/study-case-contracts/001-delivery-hiring/DeliveryHiring_RO.sol\":3534:3579  msgContent_number_C1[1].evaluateNumberContent */\n      mload(0x40)\n      dup1\n      0x60\n      add\n      0x40\n      mstore\n      swap1\n      dup2\n      0x00\n      dup3\n      add\n      dup1\n      sload\n      tag_86\n      swap1\n      tag_68\n      jump\t// in\n    tag_86:\n      dup1\n      0x1f\n      add\n      0x20\n      dup1\n      swap2\n      div\n      mul\n      0x20\n      add\n      mload(0x40)\n      swap1\n      dup2\n      add\n      0x40\n      mstore\n      dup1\n      swap3\n      swap2\n      swap1\n      dup2\n      dup2\n      mstore\n      0x20\n      add\n      dup3\n      dup1\n      sload\n      tag_87\n      swap1\n      tag_68\n      jump\t// in\n    tag_87:\n      dup1\n      iszero\n      tag_88\n      jumpi\n      dup1\n      0x1f\n      lt\n      tag_89\n      jumpi\n      0x0100\n      dup1\n      dup4\n      sload\n      div\n      mul\n      dup4\n      mstore\n      swap2\n      0x20\n      add\n      swap2\n      jump(tag_88)\n    tag_89:\n      dup3\n      add\n      swap2\n      swap1\n      0x00\n      mstore\n      keccak256(0x00, 0x20)\n      swap1\n    tag_90:\n      dup2\n      sload\n      dup2\n      mstore\n      swap1\n      0x01\n      add\n      swap1\n      0x20\n      add\n      dup1\n      dup4\n      gt\n      tag_90\n      jumpi\n      dup3\n      swap1\n      sub\n      0x1f\n      and\n      dup3\n      add\n      swap2\n    tag_88:\n      pop\n      pop\n      pop\n      pop\n      pop\n      dup2\n      mstore\n      0x20\n      add\n      0x01\n      dup3\n      add\n      dup1\n      sload\n      tag_91\n      swap1\n      tag_68\n      jump\t// in\n    tag_91:\n      dup1\n      0x1f\n      add\n      0x20\n      dup1\n      swap2\n      div\n      mul\n      0x20\n      add\n      mload(0x40)\n      swap1\n      dup2\n      add\n      0x40\n      mstore\n      dup1\n      swap3\n      swap2\n      swap1\n      dup2\n      dup2\n      mstore\n      0x20\n      add\n      dup3\n      dup1\n      sload\n      tag_92\n      swap1\n      tag_68\n      jump\t// in\n    tag_92:\n      dup1\n      iszero\n      tag_93\n      jumpi\n      dup1\n      0x1f\n      lt\n      tag_94\n      jumpi\n      0x0100\n      dup1\n      dup4\n      sload\n      div\n      mul\n      dup4\n      mstore\n      swap2\n      0x20\n      add\n      swap2\n      jump(tag_93)\n    tag_94:\n      dup3\n      add\n      swap2\n      swap1\n      0x00\n      mstore\n      keccak256(0x00, 0x20)\n      swap1\n    tag_95:\n      dup2\n      sload\n      dup2\n      mstore\n      swap1\n      0x01\n      add\n      swap1\n      0x20\n      add\n      dup1\n      dup4\n      gt\n      tag_95\n      jumpi\n      dup3\n      swap1\n      sub\n      0x1f\n      and\n      dup3\n      add\n      swap2\n    tag_93:\n      pop\n      pop\n      pop\n      pop\n      pop\n      dup2\n      mstore\n      0x20\n      add\n      0x02\n      dup3\n      add\n      sload\n      dup2\n      mstore\n      pop\n      pop\n      tag_78\n      swap1\n        /* \"contracts/study-case-contracts/001-delivery-hiring/DeliveryHiring_RO.sol\":3534:3603  msgContent_number_C1[1].evaluateNumberContent(_resultFromXpath_nc[1]) */\n      swap2\n      swap1\n      0xffffffff\n      and\n      jump\t// in\n    tag_80:\n        /* \"contracts/study-case-contracts/001-delivery-hiring/DeliveryHiring_RO.sol\":3355:3603  maxNumberOfOperationByTime_C1[0].hasAvailableOperations_ByTime(_accessDateTime)&&... */\n    tag_79:\n        /* \"contracts/study-case-contracts/001-delivery-hiring/DeliveryHiring_RO.sol\":3355:3689  maxNumberOfOperationByTime_C1[0].hasAvailableOperations_ByTime(_accessDateTime)&&... */\n      dup1\n      iszero\n      tag_96\n      jumpi\n      pop\n        /* \"contracts/study-case-contracts/001-delivery-hiring/DeliveryHiring_RO.sol\":3620:3689  msgContent_number_C1[1].evaluateNumberContent(_resultFromXpath_nc[1]) */\n      tag_97\n        /* \"contracts/study-case-contracts/001-delivery-hiring/DeliveryHiring_RO.sol\":3666:3685  _resultFromXpath_nc */\n      dup3\n        /* \"contracts/study-case-contracts/001-delivery-hiring/DeliveryHiring_RO.sol\":3686:3687  1 */\n      0x01\n        /* \"contracts/study-case-contracts/001-delivery-hiring/DeliveryHiring_RO.sol\":3666:3688  _resultFromXpath_nc[1] */\n      dup2\n      mload\n      dup2\n      lt\n      tag_98\n      jumpi\n      tag_99\n      tag_57\n      jump\t// in\n    tag_99:\n    tag_98:\n      0x20\n      mul\n      0x20\n      add\n      add\n      mload\n        /* \"contracts/study-case-contracts/001-delivery-hiring/DeliveryHiring_RO.sol\":3620:3640  msgContent_number_C1 */\n      0x09\n        /* \"contracts/study-case-contracts/001-delivery-hiring/DeliveryHiring_RO.sol\":3641:3642  1 */\n      0x01\n        /* \"contracts/study-case-contracts/001-delivery-hiring/DeliveryHiring_RO.sol\":3620:3643  msgContent_number_C1[1] */\n      dup2\n      sload\n      dup2\n      lt\n      tag_100\n      jumpi\n      tag_101\n      tag_57\n      jump\t// in\n    tag_101:\n    tag_100:\n      swap1\n      0x00\n      mstore\n      keccak256(0x00, 0x20)\n      swap1\n      0x03\n      mul\n      add\n        /* \"contracts/study-case-contracts/001-delivery-hiring/DeliveryHiring_RO.sol\":3620:3665  msgContent_number_C1[1].evaluateNumberContent */\n      mload(0x40)\n      dup1\n      0x60\n      add\n      0x40\n      mstore\n      swap1\n      dup2\n      0x00\n      dup3\n      add\n      dup1\n      sload\n      tag_103\n      swap1\n      tag_68\n      jump\t// in\n    tag_103:\n      dup1\n      0x1f\n      add\n      0x20\n      dup1\n      swap2\n      div\n      mul\n      0x20\n      add\n      mload(0x40)\n      swap1\n      dup2\n      add\n      0x40\n      mstore\n      dup1\n      swap3\n      swap2\n      swap1\n      dup2\n      dup2\n      mstore\n      0x20\n      add\n      dup3\n      dup1\n      sload\n      tag_104\n      swap1\n      tag_68\n      jump\t// in\n    tag_104:\n      dup1\n      iszero\n      tag_105\n      jumpi\n      dup1\n      0x1f\n      lt\n      tag_106\n      jumpi\n      0x0100\n      dup1\n      dup4\n      sload\n      div\n      mul\n      dup4\n      mstore\n      swap2\n      0x20\n      add\n      swap2\n      jump(tag_105)\n    tag_106:\n      dup3\n      add\n      swap2\n      swap1\n      0x00\n      mstore\n      keccak256(0x00, 0x20)\n      swap1\n    tag_107:\n      dup2\n      sload\n      dup2\n      mstore\n      swap1\n      0x01\n      add\n      swap1\n      0x20\n      add\n      dup1\n      dup4\n      gt\n      tag_107\n      jumpi\n      dup3\n      swap1\n      sub\n      0x1f\n      and\n      dup3\n      add\n      swap2\n    tag_105:\n      pop\n      pop\n      pop\n      pop\n      pop\n      dup2\n      mstore\n      0x20\n      add\n      0x01\n      dup3\n      add\n      dup1\n      sload\n      tag_108\n      swap1\n      tag_68\n      jump\t// in\n    tag_108:\n      dup1\n      0x1f\n      add\n      0x20\n      dup1\n      swap2\n      div\n      mul\n      0x20\n      add\n      mload(0x40)\n      swap1\n      dup2\n      add\n      0x40\n      mstore\n      dup1\n      swap3\n      swap2\n      swap1\n      dup2\n      dup2\n      mstore\n      0x20\n      add\n      dup3\n      dup1\n      sload\n      tag_109\n      swap1\n      tag_68\n      jump\t// in\n    tag_109:\n      dup1\n      iszero\n      tag_110\n      jumpi\n      dup1\n      0x1f\n      lt\n      tag_111\n      jumpi\n      0x0100\n      dup1\n      dup4\n      sload\n      div\n      mul\n      dup4\n      mstore\n      swap2\n      0x20\n      add\n      swap2\n      jump(tag_110)\n    tag_111:\n      dup3\n      add\n      swap2\n      swap1\n      0x00\n      mstore\n      keccak256(0x00, 0x20)\n      swap1\n    tag_112:\n      dup2\n      sload\n      dup2\n      mstore\n      swap1\n      0x01\n      add\n      swap1\n      0x20\n      add\n      dup1\n      dup4\n      gt\n      tag_112\n      jumpi\n      dup3\n      swap1\n      sub\n      0x1f\n      and\n      dup3\n      add\n      swap2\n    tag_110:\n      pop\n      pop\n      pop\n      pop\n      pop\n      dup2\n      mstore\n      0x20\n      add\n      0x02\n      dup3\n      add\n      sload\n      dup2\n      mstore\n      pop\n      pop\n      tag_78\n      swap1\n        /* \"contracts/study-case-contracts/001-delivery-hiring/DeliveryHiring_RO.sol\":3620:3689  msgContent_number_C1[1].evaluateNumberContent(_resultFromXpath_nc[1]) */\n      swap2\n      swap1\n      0xffffffff\n      and\n      jump\t// in\n    tag_97:\n        /* \"contracts/study-case-contracts/001-delivery-hiring/DeliveryHiring_RO.sol\":3355:3689  maxNumberOfOperationByTime_C1[0].hasAvailableOperations_ByTime(_accessDateTime)&&... */\n    tag_96:\n        /* \"contracts/study-case-contracts/001-delivery-hiring/DeliveryHiring_RO.sol\":3352:4127  if(maxNumberOfOperationByTime_C1[0].hasAvailableOperations_ByTime(_accessDateTime)&&... */\n      iszero\n      tag_113\n      jumpi\n        /* \"contracts/study-case-contracts/001-delivery-hiring/DeliveryHiring_RO.sol\":3726:3803  maxNumberOfOperationByTime_C1[0].decreaseOneOperation_ByTime(_accessDateTime) */\n      tag_114\n        /* \"contracts/study-case-contracts/001-delivery-hiring/DeliveryHiring_RO.sol\":3787:3802  _accessDateTime */\n      dup4\n        /* \"contracts/study-case-contracts/001-delivery-hiring/DeliveryHiring_RO.sol\":3726:3755  maxNumberOfOperationByTime_C1 */\n      0x08\n        /* \"contracts/study-case-contracts/001-delivery-hiring/DeliveryHiring_RO.sol\":3756:3757  0 */\n      0x00\n        /* \"contracts/study-case-contracts/001-delivery-hiring/DeliveryHiring_RO.sol\":3726:3758  maxNumberOfOperationByTime_C1[0] */\n      dup2\n      sload\n      dup2\n      lt\n      tag_115\n      jumpi\n      tag_116\n      tag_57\n      jump\t// in\n    tag_116:\n    tag_115:\n      swap1\n      0x00\n      mstore\n      keccak256(0x00, 0x20)\n      add\n        /* \"contracts/study-case-contracts/001-delivery-hiring/DeliveryHiring_RO.sol\":3726:3786  maxNumberOfOperationByTime_C1[0].decreaseOneOperation_ByTime */\n      tag_118\n      swap1\n        /* \"contracts/study-case-contracts/001-delivery-hiring/DeliveryHiring_RO.sol\":3726:3803  maxNumberOfOperationByTime_C1[0].decreaseOneOperation_ByTime(_accessDateTime) */\n      swap2\n      swap1\n      0xffffffff\n      and\n      jump\t// in\n    tag_114:\n      pop\n        /* \"contracts/study-case-contracts/001-delivery-hiring/DeliveryHiring_RO.sol\":3818:3868  timeout_C2[0].setEndTimeInTimeout(_accessDateTime) */\n      tag_119\n        /* \"contracts/study-case-contracts/001-delivery-hiring/DeliveryHiring_RO.sol\":3852:3867  _accessDateTime */\n      dup4\n        /* \"contracts/study-case-contracts/001-delivery-hiring/DeliveryHiring_RO.sol\":3818:3828  timeout_C2 */\n      0x0a\n        /* \"contracts/study-case-contracts/001-delivery-hiring/DeliveryHiring_RO.sol\":3829:3830  0 */\n      0x00\n        /* \"contracts/study-case-contracts/001-delivery-hiring/DeliveryHiring_RO.sol\":3818:3831  timeout_C2[0] */\n      dup2\n      sload\n      dup2\n      lt\n      tag_120\n      jumpi\n      tag_121\n      tag_57\n      jump\t// in\n    tag_121:\n    tag_120:\n      swap1\n      0x00\n      mstore\n      keccak256(0x00, 0x20)\n      add\n        /* \"contracts/study-case-contracts/001-delivery-hiring/DeliveryHiring_RO.sol\":3818:3851  timeout_C2[0].setEndTimeInTimeout */\n      tag_123\n      swap1\n        /* \"contracts/study-case-contracts/001-delivery-hiring/DeliveryHiring_RO.sol\":3818:3868  timeout_C2[0].setEndTimeInTimeout(_accessDateTime) */\n      swap2\n      swap1\n      0xffffffff\n      and\n      jump\t// in\n    tag_119:\n        /* \"contracts/study-case-contracts/001-delivery-hiring/DeliveryHiring_RO.sol\":3896:3933  successEvent(\"Successful execution!\") */\n      0x95a1f3a1dafdd4c1af344e3d7c69a72cbce8a3f15fe1cf95a7f5bd23df2e71a1\n      mload(0x40)\n      tag_124\n      swap1\n      tag_125\n      jump\t// in\n    tag_124:\n      mload(0x40)\n      dup1\n      swap2\n      sub\n      swap1\n      log1\n        /* \"contracts/study-case-contracts/001-delivery-hiring/DeliveryHiring_RO.sol\":3955:3959  true */\n      0x01\n        /* \"contracts/study-case-contracts/001-delivery-hiring/DeliveryHiring_RO.sol\":3948:3959  return true */\n      swap1\n      pop\n      jump(tag_53)\n        /* \"contracts/study-case-contracts/001-delivery-hiring/DeliveryHiring_RO.sol\":3352:4127  if(maxNumberOfOperationByTime_C1[0].hasAvailableOperations_ByTime(_accessDateTime)&&... */\n    tag_113:\n        /* \"contracts/study-case-contracts/001-delivery-hiring/DeliveryHiring_RO.sol\":3995:4088  failEvent(\"Request operation performed outside of allowed hours or limit operation exceeded\") */\n      0x66091b7dc2b097c8f60d5cd6aa99633b097f08d2eb1056f3e15361b22e0ea2ba\n      mload(0x40)\n      tag_127\n      swap1\n      tag_128\n      jump\t// in\n    tag_127:\n      mload(0x40)\n      dup1\n      swap2\n      sub\n      swap1\n      log1\n        /* \"contracts/study-case-contracts/001-delivery-hiring/DeliveryHiring_RO.sol\":4110:4115  false */\n      0x00\n        /* \"contracts/study-case-contracts/001-delivery-hiring/DeliveryHiring_RO.sol\":4103:4115  return false */\n      swap1\n      pop\n        /* \"contracts/study-case-contracts/001-delivery-hiring/DeliveryHiring_RO.sol\":7386:7387  _ */\n    tag_53:\n        /* \"contracts/study-case-contracts/001-delivery-hiring/DeliveryHiring_RO.sol\":3176:4134  function right_requestDelivery(... */\n      swap3\n      swap2\n      pop\n      pop\n      jump\t// out\n        /* \"contracts/study-case-contracts/001-delivery-hiring/DeliveryHiring_RO.sol\":4148:5022  function responderOrder(uint32 _accessDateTime, int256[] memory _resultFromXpath_nc) public onlyApplication() returns(bool){... */\n    tag_19:\n        /* \"contracts/study-case-contracts/001-delivery-hiring/DeliveryHiring_RO.sol\":4266:4270  bool */\n      0x00\n        /* \"contracts/study-case-contracts/001-delivery-hiring/DeliveryHiring_RO.sol\":6982:6991  activated */\n      dup1\n      0x00\n      swap1\n      sload\n      swap1\n      0x0100\n      exp\n      swap1\n      div\n      0xff\n      and\n        /* \"contracts/study-case-contracts/001-delivery-hiring/DeliveryHiring_RO.sol\":6974:7024  require(activated, \"This contract is deactivated\") */\n      tag_130\n      jumpi\n      mload(0x40)\n      0x08c379a000000000000000000000000000000000000000000000000000000000\n      dup2\n      mstore\n      0x04\n      add\n      tag_131\n      swap1\n      tag_49\n      jump\t// in\n    tag_131:\n      mload(0x40)\n      dup1\n      swap2\n      sub\n      swap1\n      revert\n    tag_130:\n        /* \"contracts/study-case-contracts/001-delivery-hiring/DeliveryHiring_RO.sol\":7088:7098  msg.sender */\n      caller\n        /* \"contracts/study-case-contracts/001-delivery-hiring/DeliveryHiring_RO.sol\":7059:7098  application.walletAddress == msg.sender */\n      0xffffffffffffffffffffffffffffffffffffffff\n      and\n        /* \"contracts/study-case-contracts/001-delivery-hiring/DeliveryHiring_RO.sol\":7059:7070  application */\n      0x01\n        /* \"contracts/study-case-contracts/001-delivery-hiring/DeliveryHiring_RO.sol\":7059:7084  application.walletAddress */\n      dup1\n      add\n      0x00\n      swap1\n      sload\n      swap1\n      0x0100\n      exp\n      swap1\n      div\n      0xffffffffffffffffffffffffffffffffffffffff\n      and\n        /* \"contracts/study-case-contracts/001-delivery-hiring/DeliveryHiring_RO.sol\":7059:7098  application.walletAddress == msg.sender */\n      0xffffffffffffffffffffffffffffffffffffffff\n      and\n      eq\n        /* \"contracts/study-case-contracts/001-delivery-hiring/DeliveryHiring_RO.sol\":7051:7150  require(application.walletAddress == msg.sender, \"Only the application can execute this operation\") */\n      tag_132\n      jumpi\n      mload(0x40)\n      0x08c379a000000000000000000000000000000000000000000000000000000000\n      dup2\n      mstore\n      0x04\n      add\n      tag_133\n      swap1\n      tag_134\n      jump\t// in\n    tag_133:\n      mload(0x40)\n      dup1\n      swap2\n      sub\n      swap1\n      revert\n    tag_132:\n        /* \"contracts/study-case-contracts/001-delivery-hiring/DeliveryHiring_RO.sol\":4349:4379  mapParty[msg.sender].isAware() */\n      tag_136\n        /* \"contracts/study-case-contracts/001-delivery-hiring/DeliveryHiring_RO.sol\":4349:4357  mapParty */\n      0x05\n        /* \"contracts/study-case-contracts/001-delivery-hiring/DeliveryHiring_RO.sol\":4349:4369  mapParty[msg.sender] */\n      0x00\n        /* \"contracts/study-case-contracts/001-delivery-hiring/DeliveryHiring_RO.sol\":4358:4368  msg.sender */\n      caller\n        /* \"contracts/study-case-contracts/001-delivery-hiring/DeliveryHiring_RO.sol\":4349:4369  mapParty[msg.sender] */\n      0xffffffffffffffffffffffffffffffffffffffff\n      and\n      0xffffffffffffffffffffffffffffffffffffffff\n      and\n      dup2\n      mstore\n      0x20\n      add\n      swap1\n      dup2\n      mstore\n      0x20\n      add\n      0x00\n      keccak256\n        /* \"contracts/study-case-contracts/001-delivery-hiring/DeliveryHiring_RO.sol\":4349:4377  mapParty[msg.sender].isAware */\n      mload(0x40)\n      dup1\n      0x60\n      add\n      0x40\n      mstore\n      swap1\n      dup2\n      0x00\n      dup3\n      add\n      dup1\n      sload\n      tag_137\n      swap1\n      tag_68\n      jump\t// in\n    tag_137:\n      dup1\n      0x1f\n      add\n      0x20\n      dup1\n      swap2\n      div\n      mul\n      0x20\n      add\n      mload(0x40)\n      swap1\n      dup2\n      add\n      0x40\n      mstore\n      dup1\n      swap3\n      swap2\n      swap1\n      dup2\n      dup2\n      mstore\n      0x20\n      add\n      dup3\n      dup1\n      sload\n      tag_138\n      swap1\n      tag_68\n      jump\t// in\n    tag_138:\n      dup1\n      iszero\n      tag_139\n      jumpi\n      dup1\n      0x1f\n      lt\n      tag_140\n      jumpi\n      0x0100\n      dup1\n      dup4\n      sload\n      div\n      mul\n      dup4\n      mstore\n      swap2\n      0x20\n      add\n      swap2\n      jump(tag_139)\n    tag_140:\n      dup3\n      add\n      swap2\n      swap1\n      0x00\n      mstore\n      keccak256(0x00, 0x20)\n      swap1\n    tag_141:\n      dup2\n      sload\n      dup2\n      mstore\n      swap1\n      0x01\n      add\n      swap1\n      0x20\n      add\n      dup1\n      dup4\n      gt\n      tag_141\n      jumpi\n      dup3\n      swap1\n      sub\n      0x1f\n      and\n      dup3\n      add\n      swap2\n    tag_139:\n      pop\n      pop\n      pop\n      pop\n      pop\n      dup2\n      mstore\n      0x20\n      add\n      0x01\n      dup3\n      add\n      0x00\n      swap1\n      sload\n      swap1\n      0x0100\n      exp\n      swap1\n      div\n      0xffffffffffffffffffffffffffffffffffffffff\n      and\n      0xffffffffffffffffffffffffffffffffffffffff\n      and\n      0xffffffffffffffffffffffffffffffffffffffff\n      and\n      dup2\n      mstore\n      0x20\n      add\n      0x01\n      dup3\n      add\n      0x14\n      swap1\n      sload\n      swap1\n      0x0100\n      exp\n      swap1\n      div\n      0xff\n      and\n      iszero\n      iszero\n      iszero\n      iszero\n      dup2\n      mstore\n      pop\n      pop\n      tag_142\n        /* \"contracts/study-case-contracts/001-delivery-hiring/DeliveryHiring_RO.sol\":4349:4379  mapParty[msg.sender].isAware() */\n      jump\t// in\n    tag_136:\n        /* \"contracts/study-case-contracts/001-delivery-hiring/DeliveryHiring_RO.sol\":4341:4455  require(mapParty[msg.sender].isAware(), \"The Application party should sign the contract before interact with it.\") */\n      tag_143\n      jumpi\n      mload(0x40)\n      0x08c379a000000000000000000000000000000000000000000000000000000000\n      dup2\n      mstore\n      0x04\n      add\n      tag_144\n      swap1\n      tag_145\n      jump\t// in\n    tag_144:\n      mload(0x40)\n      dup1\n      swap2\n      sub\n      swap1\n      revert\n    tag_143:\n        /* \"contracts/study-case-contracts/001-delivery-hiring/DeliveryHiring_RO.sol\":4476:4521  timeout_C2[0].isTimeoutEnded(_accessDateTime) */\n      tag_146\n        /* \"contracts/study-case-contracts/001-delivery-hiring/DeliveryHiring_RO.sol\":4505:4520  _accessDateTime */\n      dup4\n        /* \"contracts/study-case-contracts/001-delivery-hiring/DeliveryHiring_RO.sol\":4476:4486  timeout_C2 */\n      0x0a\n        /* \"contracts/study-case-contracts/001-delivery-hiring/DeliveryHiring_RO.sol\":4487:4488  0 */\n      0x00\n        /* \"contracts/study-case-contracts/001-delivery-hiring/DeliveryHiring_RO.sol\":4476:4489  timeout_C2[0] */\n      dup2\n      sload\n      dup2\n      lt\n      tag_147\n      jumpi\n      tag_148\n      tag_57\n      jump\t// in\n    tag_148:\n    tag_147:\n      swap1\n      0x00\n      mstore\n      keccak256(0x00, 0x20)\n      add\n        /* \"contracts/study-case-contracts/001-delivery-hiring/DeliveryHiring_RO.sol\":4476:4504  timeout_C2[0].isTimeoutEnded */\n      mload(0x40)\n      dup1\n      0x40\n      add\n      0x40\n      mstore\n      swap1\n      dup2\n      0x00\n      dup3\n      add\n      0x00\n      swap1\n      sload\n      swap1\n      0x0100\n      exp\n      swap1\n      div\n      0xffffffff\n      and\n      0xffffffff\n      and\n      0xffffffff\n      and\n      dup2\n      mstore\n      0x20\n      add\n      0x00\n      dup3\n      add\n      0x04\n      swap1\n      sload\n      swap1\n      0x0100\n      exp\n      swap1\n      div\n      0xffffffff\n      and\n      0xffffffff\n      and\n      0xffffffff\n      and\n      dup2\n      mstore\n      pop\n      pop\n      tag_150\n      swap1\n        /* \"contracts/study-case-contracts/001-delivery-hiring/DeliveryHiring_RO.sol\":4476:4521  timeout_C2[0].isTimeoutEnded(_accessDateTime) */\n      swap2\n      swap1\n      0xffffffff\n      and\n      jump\t// in\n    tag_146:\n        /* \"contracts/study-case-contracts/001-delivery-hiring/DeliveryHiring_RO.sol\":4475:4521  !timeout_C2[0].isTimeoutEnded(_accessDateTime) */\n      iszero\n        /* \"contracts/study-case-contracts/001-delivery-hiring/DeliveryHiring_RO.sol\":4475:4602  !timeout_C2[0].isTimeoutEnded(_accessDateTime)  &&\t\t\t... */\n      dup1\n      iszero\n      tag_151\n      jumpi\n      pop\n        /* \"contracts/study-case-contracts/001-delivery-hiring/DeliveryHiring_RO.sol\":4533:4602  msgContent_number_C2[0].evaluateNumberContent(_resultFromXpath_nc[0]) */\n      tag_152\n        /* \"contracts/study-case-contracts/001-delivery-hiring/DeliveryHiring_RO.sol\":4579:4598  _resultFromXpath_nc */\n      dup3\n        /* \"contracts/study-case-contracts/001-delivery-hiring/DeliveryHiring_RO.sol\":4599:4600  0 */\n      0x00\n        /* \"contracts/study-case-contracts/001-delivery-hiring/DeliveryHiring_RO.sol\":4579:4601  _resultFromXpath_nc[0] */\n      dup2\n      mload\n      dup2\n      lt\n      tag_153\n      jumpi\n      tag_154\n      tag_57\n      jump\t// in\n    tag_154:\n    tag_153:\n      0x20\n      mul\n      0x20\n      add\n      add\n      mload\n        /* \"contracts/study-case-contracts/001-delivery-hiring/DeliveryHiring_RO.sol\":4533:4553  msgContent_number_C2 */\n      0x0b\n        /* \"contracts/study-case-contracts/001-delivery-hiring/DeliveryHiring_RO.sol\":4554:4555  0 */\n      0x00\n        /* \"contracts/study-case-contracts/001-delivery-hiring/DeliveryHiring_RO.sol\":4533:4556  msgContent_number_C2[0] */\n      dup2\n      sload\n      dup2\n      lt\n      tag_155\n      jumpi\n      tag_156\n      tag_57\n      jump\t// in\n    tag_156:\n    tag_155:\n      swap1\n      0x00\n      mstore\n      keccak256(0x00, 0x20)\n      swap1\n      0x03\n      mul\n      add\n        /* \"contracts/study-case-contracts/001-delivery-hiring/DeliveryHiring_RO.sol\":4533:4578  msgContent_number_C2[0].evaluateNumberContent */\n      mload(0x40)\n      dup1\n      0x60\n      add\n      0x40\n      mstore\n      swap1\n      dup2\n      0x00\n      dup3\n      add\n      dup1\n      sload\n      tag_158\n      swap1\n      tag_68\n      jump\t// in\n    tag_158:\n      dup1\n      0x1f\n      add\n      0x20\n      dup1\n      swap2\n      div\n      mul\n      0x20\n      add\n      mload(0x40)\n      swap1\n      dup2\n      add\n      0x40\n      mstore\n      dup1\n      swap3\n      swap2\n      swap1\n      dup2\n      dup2\n      mstore\n      0x20\n      add\n      dup3\n      dup1\n      sload\n      tag_159\n      swap1\n      tag_68\n      jump\t// in\n    tag_159:\n      dup1\n      iszero\n      tag_160\n      jumpi\n      dup1\n      0x1f\n      lt\n      tag_161\n      jumpi\n      0x0100\n      dup1\n      dup4\n      sload\n      div\n      mul\n      dup4\n      mstore\n      swap2\n      0x20\n      add\n      swap2\n      jump(tag_160)\n    tag_161:\n      dup3\n      add\n      swap2\n      swap1\n      0x00\n      mstore\n      keccak256(0x00, 0x20)\n      swap1\n    tag_162:\n      dup2\n      sload\n      dup2\n      mstore\n      swap1\n      0x01\n      add\n      swap1\n      0x20\n      add\n      dup1\n      dup4\n      gt\n      tag_162\n      jumpi\n      dup3\n      swap1\n      sub\n      0x1f\n      and\n      dup3\n      add\n      swap2\n    tag_160:\n      pop\n      pop\n      pop\n      pop\n      pop\n      dup2\n      mstore\n      0x20\n      add\n      0x01\n      dup3\n      add\n      dup1\n      sload\n      tag_163\n      swap1\n      tag_68\n      jump\t// in\n    tag_163:\n      dup1\n      0x1f\n      add\n      0x20\n      dup1\n      swap2\n      div\n      mul\n      0x20\n      add\n      mload(0x40)\n      swap1\n      dup2\n      add\n      0x40\n      mstore\n      dup1\n      swap3\n      swap2\n      swap1\n      dup2\n      dup2\n      mstore\n      0x20\n      add\n      dup3\n      dup1\n      sload\n      tag_164\n      swap1\n      tag_68\n      jump\t// in\n    tag_164:\n      dup1\n      iszero\n      tag_165\n      jumpi\n      dup1\n      0x1f\n      lt\n      tag_166\n      jumpi\n      0x0100\n      dup1\n      dup4\n      sload\n      div\n      mul\n      dup4\n      mstore\n      swap2\n      0x20\n      add\n      swap2\n      jump(tag_165)\n    tag_166:\n      dup3\n      add\n      swap2\n      swap1\n      0x00\n      mstore\n      keccak256(0x00, 0x20)\n      swap1\n    tag_167:\n      dup2\n      sload\n      dup2\n      mstore\n      swap1\n      0x01\n      add\n      swap1\n      0x20\n      add\n      dup1\n      dup4\n      gt\n      tag_167\n      jumpi\n      dup3\n      swap1\n      sub\n      0x1f\n      and\n      dup3\n      add\n      swap2\n    tag_165:\n      pop\n      pop\n      pop\n      pop\n      pop\n      dup2\n      mstore\n      0x20\n      add\n      0x02\n      dup3\n      add\n      sload\n      dup2\n      mstore\n      pop\n      pop\n      tag_78\n      swap1\n        /* \"contracts/study-case-contracts/001-delivery-hiring/DeliveryHiring_RO.sol\":4533:4602  msgContent_number_C2[0].evaluateNumberContent(_resultFromXpath_nc[0]) */\n      swap2\n      swap1\n      0xffffffff\n      and\n      jump\t// in\n    tag_152:\n        /* \"contracts/study-case-contracts/001-delivery-hiring/DeliveryHiring_RO.sol\":4475:4602  !timeout_C2[0].isTimeoutEnded(_accessDateTime)  &&\t\t\t... */\n    tag_151:\n        /* \"contracts/study-case-contracts/001-delivery-hiring/DeliveryHiring_RO.sol\":4472:5011  if(!timeout_C2[0].isTimeoutEnded(_accessDateTime)  &&\t\t\t... */\n      iszero\n      tag_168\n      jumpi\n        /* \"contracts/study-case-contracts/001-delivery-hiring/DeliveryHiring_RO.sol\":4648:4725  maxNumberOfOperationByTime_C1[0].decreaseOneOperation_ByTime(_accessDateTime) */\n      tag_169\n        /* \"contracts/study-case-contracts/001-delivery-hiring/DeliveryHiring_RO.sol\":4709:4724  _accessDateTime */\n      dup4\n        /* \"contracts/study-case-contracts/001-delivery-hiring/DeliveryHiring_RO.sol\":4648:4677  maxNumberOfOperationByTime_C1 */\n      0x08\n        /* \"contracts/study-case-contracts/001-delivery-hiring/DeliveryHiring_RO.sol\":4678:4679  0 */\n      0x00\n        /* \"contracts/study-case-contracts/001-delivery-hiring/DeliveryHiring_RO.sol\":4648:4680  maxNumberOfOperationByTime_C1[0] */\n      dup2\n      sload\n      dup2\n      lt\n      tag_170\n      jumpi\n      tag_171\n      tag_57\n      jump\t// in\n    tag_171:\n    tag_170:\n      swap1\n      0x00\n      mstore\n      keccak256(0x00, 0x20)\n      add\n        /* \"contracts/study-case-contracts/001-delivery-hiring/DeliveryHiring_RO.sol\":4648:4708  maxNumberOfOperationByTime_C1[0].decreaseOneOperation_ByTime */\n      tag_118\n      swap1\n        /* \"contracts/study-case-contracts/001-delivery-hiring/DeliveryHiring_RO.sol\":4648:4725  maxNumberOfOperationByTime_C1[0].decreaseOneOperation_ByTime(_accessDateTime) */\n      swap2\n      swap1\n      0xffffffff\n      and\n      jump\t// in\n    tag_169:\n      pop\n        /* \"contracts/study-case-contracts/001-delivery-hiring/DeliveryHiring_RO.sol\":4749:4786  successEvent(\"Successful execution!\") */\n      0x95a1f3a1dafdd4c1af344e3d7c69a72cbce8a3f15fe1cf95a7f5bd23df2e71a1\n      mload(0x40)\n      tag_173\n      swap1\n      tag_125\n      jump\t// in\n    tag_173:\n      mload(0x40)\n      dup1\n      swap2\n      sub\n      swap1\n      log1\n        /* \"contracts/study-case-contracts/001-delivery-hiring/DeliveryHiring_RO.sol\":4822:4826  true */\n      0x01\n        /* \"contracts/study-case-contracts/001-delivery-hiring/DeliveryHiring_RO.sol\":4815:4826  return true */\n      swap1\n      pop\n      jump(tag_135)\n        /* \"contracts/study-case-contracts/001-delivery-hiring/DeliveryHiring_RO.sol\":4472:5011  if(!timeout_C2[0].isTimeoutEnded(_accessDateTime)  &&\t\t\t... */\n    tag_168:\n        /* \"contracts/study-case-contracts/001-delivery-hiring/DeliveryHiring_RO.sol\":4869:4948  failEvent(\"Response performed outside of time limit or delivery time too long\") */\n      0x66091b7dc2b097c8f60d5cd6aa99633b097f08d2eb1056f3e15361b22e0ea2ba\n      mload(0x40)\n      tag_175\n      swap1\n      tag_176\n      jump\t// in\n    tag_175:\n      mload(0x40)\n      dup1\n      swap2\n      sub\n      swap1\n      log1\n        /* \"contracts/study-case-contracts/001-delivery-hiring/DeliveryHiring_RO.sol\":4990:4995  false */\n      0x00\n        /* \"contracts/study-case-contracts/001-delivery-hiring/DeliveryHiring_RO.sol\":4983:4995  return false */\n      swap1\n      pop\n        /* \"contracts/study-case-contracts/001-delivery-hiring/DeliveryHiring_RO.sol\":7165:7166  _ */\n    tag_135:\n        /* \"contracts/study-case-contracts/001-delivery-hiring/DeliveryHiring_RO.sol\":4148:5022  function responderOrder(uint32 _accessDateTime, int256[] memory _resultFromXpath_nc) public onlyApplication() returns(bool){... */\n      swap3\n      swap2\n      pop\n      pop\n      jump\t// out\n        /* \"contracts/study-case-contracts/001-delivery-hiring/DeliveryHiring_RO.sol\":5950:6381  function changeApplicationParty(string memory _name, address _walletAddress) public returns(bool) {       ... */\n    tag_24:\n        /* \"contracts/study-case-contracts/001-delivery-hiring/DeliveryHiring_RO.sol\":6042:6046  bool */\n      0x00\n        /* \"contracts/study-case-contracts/001-delivery-hiring/DeliveryHiring_RO.sol\":6099:6109  msg.sender */\n      caller\n        /* \"contracts/study-case-contracts/001-delivery-hiring/DeliveryHiring_RO.sol\":6074:6109  process.walletAddress == msg.sender */\n      0xffffffffffffffffffffffffffffffffffffffff\n      and\n        /* \"contracts/study-case-contracts/001-delivery-hiring/DeliveryHiring_RO.sol\":6074:6081  process */\n      0x03\n        /* \"contracts/study-case-contracts/001-delivery-hiring/DeliveryHiring_RO.sol\":6074:6095  process.walletAddress */\n      0x01\n      add\n      0x00\n      swap1\n      sload\n      swap1\n      0x0100\n      exp\n      swap1\n      div\n      0xffffffffffffffffffffffffffffffffffffffff\n      and\n        /* \"contracts/study-case-contracts/001-delivery-hiring/DeliveryHiring_RO.sol\":6074:6109  process.walletAddress == msg.sender */\n      0xffffffffffffffffffffffffffffffffffffffff\n      and\n      eq\n        /* \"contracts/study-case-contracts/001-delivery-hiring/DeliveryHiring_RO.sol\":6066:6157  require(process.walletAddress == msg.sender, \"Only the process can execute this operation\") */\n      tag_178\n      jumpi\n      mload(0x40)\n      0x08c379a000000000000000000000000000000000000000000000000000000000\n      dup2\n      mstore\n      0x04\n      add\n      tag_179\n      swap1\n      tag_52\n      jump\t// in\n    tag_179:\n      mload(0x40)\n      dup1\n      swap2\n      sub\n      swap1\n      revert\n    tag_178:\n        /* \"contracts/study-case-contracts/001-delivery-hiring/DeliveryHiring_RO.sol\":6175:6183  mapParty */\n      0x05\n        /* \"contracts/study-case-contracts/001-delivery-hiring/DeliveryHiring_RO.sol\":6175:6210  mapParty[application.walletAddress] */\n      0x00\n        /* \"contracts/study-case-contracts/001-delivery-hiring/DeliveryHiring_RO.sol\":6184:6195  application */\n      0x01\n        /* \"contracts/study-case-contracts/001-delivery-hiring/DeliveryHiring_RO.sol\":6184:6209  application.walletAddress */\n      dup1\n      add\n      0x00\n      swap1\n      sload\n      swap1\n      0x0100\n      exp\n      swap1\n      div\n      0xffffffffffffffffffffffffffffffffffffffff\n      and\n        /* \"contracts/study-case-contracts/001-delivery-hiring/DeliveryHiring_RO.sol\":6175:6210  mapParty[application.walletAddress] */\n      0xffffffffffffffffffffffffffffffffffffffff\n      and\n      0xffffffffffffffffffffffffffffffffffffffff\n      and\n      dup2\n      mstore\n      0x20\n      add\n      swap1\n      dup2\n      mstore\n      0x20\n      add\n      0x00\n      keccak256\n      0x00\n        /* \"contracts/study-case-contracts/001-delivery-hiring/DeliveryHiring_RO.sol\":6168:6210  delete mapParty[application.walletAddress] */\n      dup1\n      dup3\n      add\n      0x00\n      tag_180\n      swap2\n      swap1\n      tag_181\n      jump\t// in\n    tag_180:\n      0x01\n      dup3\n      add\n      exp(0x0100, 0x00)\n      dup2\n      sload\n      swap1\n      0xffffffffffffffffffffffffffffffffffffffff\n      mul\n      not\n      and\n      swap1\n      sstore\n      0x01\n      dup3\n      add\n      exp(0x0100, 0x14)\n      dup2\n      sload\n      swap1\n      0xff\n      mul\n      not\n      and\n      swap1\n      sstore\n      pop\n      pop\n        /* \"contracts/study-case-contracts/001-delivery-hiring/DeliveryHiring_RO.sol\":6235:6280  EAI.createParty(_name, _walletAddress, false) */\n      tag_182\n        /* \"contracts/study-case-contracts/001-delivery-hiring/DeliveryHiring_RO.sol\":6251:6256  _name */\n      dup4\n        /* \"contracts/study-case-contracts/001-delivery-hiring/DeliveryHiring_RO.sol\":6258:6272  _walletAddress */\n      dup4\n        /* \"contracts/study-case-contracts/001-delivery-hiring/DeliveryHiring_RO.sol\":6274:6279  false */\n      0x00\n        /* \"contracts/study-case-contracts/001-delivery-hiring/DeliveryHiring_RO.sol\":6235:6250  EAI.createParty */\n      tag_42\n        /* \"contracts/study-case-contracts/001-delivery-hiring/DeliveryHiring_RO.sol\":6235:6280  EAI.createParty(_name, _walletAddress, false) */\n      jump\t// in\n    tag_182:\n        /* \"contracts/study-case-contracts/001-delivery-hiring/DeliveryHiring_RO.sol\":6221:6232  application */\n      0x01\n        /* \"contracts/study-case-contracts/001-delivery-hiring/DeliveryHiring_RO.sol\":6221:6280  application = EAI.createParty(_name, _walletAddress, false) */\n      0x00\n      dup3\n      add\n      mload\n      dup2\n      0x00\n      add\n      swap1\n      dup1\n      mload\n      swap1\n      0x20\n      add\n      swap1\n      tag_183\n      swap3\n      swap2\n      swap1\n      tag_184\n      jump\t// in\n    tag_183:\n      pop\n      0x20\n      dup3\n      add\n      mload\n      dup2\n      0x01\n      add\n      exp(0x0100, 0x00)\n      dup2\n      sload\n      dup2\n      0xffffffffffffffffffffffffffffffffffffffff\n      mul\n      not\n      and\n      swap1\n      dup4\n      0xffffffffffffffffffffffffffffffffffffffff\n      and\n      mul\n      or\n      swap1\n      sstore\n      pop\n      0x40\n      dup3\n      add\n      mload\n      dup2\n      0x01\n      add\n      exp(0x0100, 0x14)\n      dup2\n      sload\n      dup2\n      0xff\n      mul\n      not\n      and\n      swap1\n      dup4\n      iszero\n      iszero\n      mul\n      or\n      swap1\n      sstore\n      pop\n      swap1\n      pop\n      pop\n        /* \"contracts/study-case-contracts/001-delivery-hiring/DeliveryHiring_RO.sol\":6301:6344  updateMapParty(_walletAddress, application) */\n      tag_185\n        /* \"contracts/study-case-contracts/001-delivery-hiring/DeliveryHiring_RO.sol\":6316:6330  _walletAddress */\n      dup3\n        /* \"contracts/study-case-contracts/001-delivery-hiring/DeliveryHiring_RO.sol\":6332:6343  application */\n      0x01\n        /* \"contracts/study-case-contracts/001-delivery-hiring/DeliveryHiring_RO.sol\":6301:6315  updateMapParty */\n      tag_186\n        /* \"contracts/study-case-contracts/001-delivery-hiring/DeliveryHiring_RO.sol\":6301:6344  updateMapParty(_walletAddress, application) */\n      jump\t// in\n    tag_185:\n      pop\n        /* \"contracts/study-case-contracts/001-delivery-hiring/DeliveryHiring_RO.sol\":6362:6366  true */\n      0x01\n        /* \"contracts/study-case-contracts/001-delivery-hiring/DeliveryHiring_RO.sol\":6355:6366  return true */\n      swap1\n      pop\n        /* \"contracts/study-case-contracts/001-delivery-hiring/DeliveryHiring_RO.sol\":5950:6381  function changeApplicationParty(string memory _name, address _walletAddress) public returns(bool) {       ... */\n      swap3\n      swap2\n      pop\n      pop\n      jump\t// out\n        /* \"contracts/study-case-contracts/001-delivery-hiring/DeliveryHiring_RO.sol\":6529:6661  function getApplicationAddress() public view onlyInvolvedParties returns(address){... */\n    tag_27:\n        /* \"contracts/study-case-contracts/001-delivery-hiring/DeliveryHiring_RO.sol\":6602:6609  address */\n      0x00\n        /* \"contracts/study-case-contracts/001-delivery-hiring/DeliveryHiring_RO.sol\":7452:7461  activated */\n      dup1\n      0x00\n      swap1\n      sload\n      swap1\n      0x0100\n      exp\n      swap1\n      div\n      0xff\n      and\n        /* \"contracts/study-case-contracts/001-delivery-hiring/DeliveryHiring_RO.sol\":7444:7494  require(activated, \"This contract is deactivated\") */\n      tag_188\n      jumpi\n      mload(0x40)\n      0x08c379a000000000000000000000000000000000000000000000000000000000\n      dup2\n      mstore\n      0x04\n      add\n      tag_189\n      swap1\n      tag_49\n      jump\t// in\n    tag_189:\n      mload(0x40)\n      dup1\n      swap2\n      sub\n      swap1\n      revert\n    tag_188:\n        /* \"contracts/study-case-contracts/001-delivery-hiring/DeliveryHiring_RO.sol\":7557:7567  msg.sender */\n      caller\n        /* \"contracts/study-case-contracts/001-delivery-hiring/DeliveryHiring_RO.sol\":7528:7567  application.walletAddress == msg.sender */\n      0xffffffffffffffffffffffffffffffffffffffff\n      and\n        /* \"contracts/study-case-contracts/001-delivery-hiring/DeliveryHiring_RO.sol\":7528:7539  application */\n      0x01\n        /* \"contracts/study-case-contracts/001-delivery-hiring/DeliveryHiring_RO.sol\":7528:7553  application.walletAddress */\n      dup1\n      add\n      0x00\n      swap1\n      sload\n      swap1\n      0x0100\n      exp\n      swap1\n      div\n      0xffffffffffffffffffffffffffffffffffffffff\n      and\n        /* \"contracts/study-case-contracts/001-delivery-hiring/DeliveryHiring_RO.sol\":7528:7567  application.walletAddress == msg.sender */\n      0xffffffffffffffffffffffffffffffffffffffff\n      and\n      eq\n        /* \"contracts/study-case-contracts/001-delivery-hiring/DeliveryHiring_RO.sol\":7528:7606  application.walletAddress == msg.sender || process.walletAddress == msg.sender */\n      dup1\n      tag_190\n      jumpi\n      pop\n        /* \"contracts/study-case-contracts/001-delivery-hiring/DeliveryHiring_RO.sol\":7596:7606  msg.sender */\n      caller\n        /* \"contracts/study-case-contracts/001-delivery-hiring/DeliveryHiring_RO.sol\":7571:7606  process.walletAddress == msg.sender */\n      0xffffffffffffffffffffffffffffffffffffffff\n      and\n        /* \"contracts/study-case-contracts/001-delivery-hiring/DeliveryHiring_RO.sol\":7571:7578  process */\n      0x03\n        /* \"contracts/study-case-contracts/001-delivery-hiring/DeliveryHiring_RO.sol\":7571:7592  process.walletAddress */\n      0x01\n      add\n      0x00\n      swap1\n      sload\n      swap1\n      0x0100\n      exp\n      swap1\n      div\n      0xffffffffffffffffffffffffffffffffffffffff\n      and\n        /* \"contracts/study-case-contracts/001-delivery-hiring/DeliveryHiring_RO.sol\":7571:7606  process.walletAddress == msg.sender */\n      0xffffffffffffffffffffffffffffffffffffffff\n      and\n      eq\n        /* \"contracts/study-case-contracts/001-delivery-hiring/DeliveryHiring_RO.sol\":7528:7606  application.walletAddress == msg.sender || process.walletAddress == msg.sender */\n    tag_190:\n        /* \"contracts/study-case-contracts/001-delivery-hiring/DeliveryHiring_RO.sol\":7505:7689  require(... */\n      tag_191\n      jumpi\n      mload(0x40)\n      0x08c379a000000000000000000000000000000000000000000000000000000000\n      dup2\n      mstore\n      0x04\n      add\n      tag_192\n      swap1\n      tag_193\n      jump\t// in\n    tag_192:\n      mload(0x40)\n      dup1\n      swap2\n      sub\n      swap1\n      revert\n    tag_191:\n        /* \"contracts/study-case-contracts/001-delivery-hiring/DeliveryHiring_RO.sol\":6628:6639  application */\n      0x01\n        /* \"contracts/study-case-contracts/001-delivery-hiring/DeliveryHiring_RO.sol\":6628:6653  application.walletAddress */\n      dup1\n      add\n      0x00\n      swap1\n      sload\n      swap1\n      0x0100\n      exp\n      swap1\n      div\n      0xffffffffffffffffffffffffffffffffffffffff\n      and\n        /* \"contracts/study-case-contracts/001-delivery-hiring/DeliveryHiring_RO.sol\":6621:6653  return application.walletAddress */\n      swap1\n      pop\n        /* \"contracts/study-case-contracts/001-delivery-hiring/DeliveryHiring_RO.sol\":6529:6661  function getApplicationAddress() public view onlyInvolvedParties returns(address){... */\n      swap1\n      jump\t// out\n        /* \"contracts/study-case-contracts/001-delivery-hiring/DeliveryHiring_RO.sol\":6393:6517  function getProcessAddress() public view onlyInvolvedParties returns(address){... */\n    tag_31:\n        /* \"contracts/study-case-contracts/001-delivery-hiring/DeliveryHiring_RO.sol\":6462:6469  address */\n      0x00\n        /* \"contracts/study-case-contracts/001-delivery-hiring/DeliveryHiring_RO.sol\":7452:7461  activated */\n      dup1\n      0x00\n      swap1\n      sload\n      swap1\n      0x0100\n      exp\n      swap1\n      div\n      0xff\n      and\n        /* \"contracts/study-case-contracts/001-delivery-hiring/DeliveryHiring_RO.sol\":7444:7494  require(activated, \"This contract is deactivated\") */\n      tag_196\n      jumpi\n      mload(0x40)\n      0x08c379a000000000000000000000000000000000000000000000000000000000\n      dup2\n      mstore\n      0x04\n      add\n      tag_197\n      swap1\n      tag_49\n      jump\t// in\n    tag_197:\n      mload(0x40)\n      dup1\n      swap2\n      sub\n      swap1\n      revert\n    tag_196:\n        /* \"contracts/study-case-contracts/001-delivery-hiring/DeliveryHiring_RO.sol\":7557:7567  msg.sender */\n      caller\n        /* \"contracts/study-case-contracts/001-delivery-hiring/DeliveryHiring_RO.sol\":7528:7567  application.walletAddress == msg.sender */\n      0xffffffffffffffffffffffffffffffffffffffff\n      and\n        /* \"contracts/study-case-contracts/001-delivery-hiring/DeliveryHiring_RO.sol\":7528:7539  application */\n      0x01\n        /* \"contracts/study-case-contracts/001-delivery-hiring/DeliveryHiring_RO.sol\":7528:7553  application.walletAddress */\n      dup1\n      add\n      0x00\n      swap1\n      sload\n      swap1\n      0x0100\n      exp\n      swap1\n      div\n      0xffffffffffffffffffffffffffffffffffffffff\n      and\n        /* \"contracts/study-case-contracts/001-delivery-hiring/DeliveryHiring_RO.sol\":7528:7567  application.walletAddress == msg.sender */\n      0xffffffffffffffffffffffffffffffffffffffff\n      and\n      eq\n        /* \"contracts/study-case-contracts/001-delivery-hiring/DeliveryHiring_RO.sol\":7528:7606  application.walletAddress == msg.sender || process.walletAddress == msg.sender */\n      dup1\n      tag_198\n      jumpi\n      pop\n        /* \"contracts/study-case-contracts/001-delivery-hiring/DeliveryHiring_RO.sol\":7596:7606  msg.sender */\n      caller\n        /* \"contracts/study-case-contracts/001-delivery-hiring/DeliveryHiring_RO.sol\":7571:7606  process.walletAddress == msg.sender */\n      0xffffffffffffffffffffffffffffffffffffffff\n      and\n        /* \"contracts/study-case-contracts/001-delivery-hiring/DeliveryHiring_RO.sol\":7571:7578  process */\n      0x03\n        /* \"contracts/study-case-contracts/001-delivery-hiring/DeliveryHiring_RO.sol\":7571:7592  process.walletAddress */\n      0x01\n      add\n      0x00\n      swap1\n      sload\n      swap1\n      0x0100\n      exp\n      swap1\n      div\n      0xffffffffffffffffffffffffffffffffffffffff\n      and\n        /* \"contracts/study-case-contracts/001-delivery-hiring/DeliveryHiring_RO.sol\":7571:7606  process.walletAddress == msg.sender */\n      0xffffffffffffffffffffffffffffffffffffffff\n      and\n      eq\n        /* \"contracts/study-case-contracts/001-delivery-hiring/DeliveryHiring_RO.sol\":7528:7606  application.walletAddress == msg.sender || process.walletAddress == msg.sender */\n    tag_198:\n        /* \"contracts/study-case-contracts/001-delivery-hiring/DeliveryHiring_RO.sol\":7505:7689  require(... */\n      tag_199\n      jumpi\n      mload(0x40)\n      0x08c379a000000000000000000000000000000000000000000000000000000000\n      dup2\n      mstore\n      0x04\n      add\n      tag_200\n      swap1\n      tag_193\n      jump\t// in\n    tag_200:\n      mload(0x40)\n      dup1\n      swap2\n      sub\n      swap1\n      revert\n    tag_199:\n        /* \"contracts/study-case-contracts/001-delivery-hiring/DeliveryHiring_RO.sol\":6488:6495  process */\n      0x03\n        /* \"contracts/study-case-contracts/001-delivery-hiring/DeliveryHiring_RO.sol\":6488:6509  process.walletAddress */\n      0x01\n      add\n      0x00\n      swap1\n      sload\n      swap1\n      0x0100\n      exp\n      swap1\n      div\n      0xffffffffffffffffffffffffffffffffffffffff\n      and\n        /* \"contracts/study-case-contracts/001-delivery-hiring/DeliveryHiring_RO.sol\":6481:6509  return process.walletAddress */\n      swap1\n      pop\n        /* \"contracts/study-case-contracts/001-delivery-hiring/DeliveryHiring_RO.sol\":6393:6517  function getProcessAddress() public view onlyInvolvedParties returns(address){... */\n      swap1\n      jump\t// out\n        /* \"contracts/study-case-contracts/001-delivery-hiring/DeliveryHiring_RO.sol\":5350:5612  function signContract() public onlyApplication() returns(bool) {... */\n    tag_34:\n        /* \"contracts/study-case-contracts/001-delivery-hiring/DeliveryHiring_RO.sol\":5407:5411  bool */\n      0x00\n        /* \"contracts/study-case-contracts/001-delivery-hiring/DeliveryHiring_RO.sol\":6982:6991  activated */\n      dup1\n      0x00\n      swap1\n      sload\n      swap1\n      0x0100\n      exp\n      swap1\n      div\n      0xff\n      and\n        /* \"contracts/study-case-contracts/001-delivery-hiring/DeliveryHiring_RO.sol\":6974:7024  require(activated, \"This contract is deactivated\") */\n      tag_203\n      jumpi\n      mload(0x40)\n      0x08c379a000000000000000000000000000000000000000000000000000000000\n      dup2\n      mstore\n      0x04\n      add\n      tag_204\n      swap1\n      tag_49\n      jump\t// in\n    tag_204:\n      mload(0x40)\n      dup1\n      swap2\n      sub\n      swap1\n      revert\n    tag_203:\n        /* \"contracts/study-case-contracts/001-delivery-hiring/DeliveryHiring_RO.sol\":7088:7098  msg.sender */\n      caller\n        /* \"contracts/study-case-contracts/001-delivery-hiring/DeliveryHiring_RO.sol\":7059:7098  application.walletAddress == msg.sender */\n      0xffffffffffffffffffffffffffffffffffffffff\n      and\n        /* \"contracts/study-case-contracts/001-delivery-hiring/DeliveryHiring_RO.sol\":7059:7070  application */\n      0x01\n        /* \"contracts/study-case-contracts/001-delivery-hiring/DeliveryHiring_RO.sol\":7059:7084  application.walletAddress */\n      dup1\n      add\n      0x00\n      swap1\n      sload\n      swap1\n      0x0100\n      exp\n      swap1\n      div\n      0xffffffffffffffffffffffffffffffffffffffff\n      and\n        /* \"contracts/study-case-contracts/001-delivery-hiring/DeliveryHiring_RO.sol\":7059:7098  application.walletAddress == msg.sender */\n      0xffffffffffffffffffffffffffffffffffffffff\n      and\n      eq\n        /* \"contracts/study-case-contracts/001-delivery-hiring/DeliveryHiring_RO.sol\":7051:7150  require(application.walletAddress == msg.sender, \"Only the application can execute this operation\") */\n      tag_205\n      jumpi\n      mload(0x40)\n      0x08c379a000000000000000000000000000000000000000000000000000000000\n      dup2\n      mstore\n      0x04\n      add\n      tag_206\n      swap1\n      tag_134\n      jump\t// in\n    tag_206:\n      mload(0x40)\n      dup1\n      swap2\n      sub\n      swap1\n      revert\n    tag_205:\n        /* \"contracts/study-case-contracts/001-delivery-hiring/DeliveryHiring_RO.sol\":5453:5458  false */\n      0x00\n        /* \"contracts/study-case-contracts/001-delivery-hiring/DeliveryHiring_RO.sol\":5432:5458  application.aware == false */\n      iszero\n      iszero\n        /* \"contracts/study-case-contracts/001-delivery-hiring/DeliveryHiring_RO.sol\":5432:5443  application */\n      0x01\n        /* \"contracts/study-case-contracts/001-delivery-hiring/DeliveryHiring_RO.sol\":5432:5449  application.aware */\n      dup1\n      add\n      0x14\n      swap1\n      sload\n      swap1\n      0x0100\n      exp\n      swap1\n      div\n      0xff\n      and\n        /* \"contracts/study-case-contracts/001-delivery-hiring/DeliveryHiring_RO.sol\":5432:5458  application.aware == false */\n      iszero\n      iszero\n      eq\n        /* \"contracts/study-case-contracts/001-delivery-hiring/DeliveryHiring_RO.sol\":5424:5493  require(application.aware == false, \"The contract is already signed\") */\n      tag_208\n      jumpi\n      mload(0x40)\n      0x08c379a000000000000000000000000000000000000000000000000000000000\n      dup2\n      mstore\n      0x04\n      add\n      tag_209\n      swap1\n      tag_210\n      jump\t// in\n    tag_209:\n      mload(0x40)\n      dup1\n      swap2\n      sub\n      swap1\n      revert\n    tag_208:\n        /* \"contracts/study-case-contracts/001-delivery-hiring/DeliveryHiring_RO.sol\":5532:5536  true */\n      0x01\n        /* \"contracts/study-case-contracts/001-delivery-hiring/DeliveryHiring_RO.sol\":5512:5523  application */\n      dup1\n        /* \"contracts/study-case-contracts/001-delivery-hiring/DeliveryHiring_RO.sol\":5512:5529  application.aware */\n      0x01\n      add\n      0x14\n        /* \"contracts/study-case-contracts/001-delivery-hiring/DeliveryHiring_RO.sol\":5512:5536  application.aware = true */\n      0x0100\n      exp\n      dup2\n      sload\n      dup2\n      0xff\n      mul\n      not\n      and\n      swap1\n      dup4\n      iszero\n      iszero\n      mul\n      or\n      swap1\n      sstore\n      pop\n        /* \"contracts/study-case-contracts/001-delivery-hiring/DeliveryHiring_RO.sol\":5549:5588  updateMapParty(msg.sender, application) */\n      tag_211\n        /* \"contracts/study-case-contracts/001-delivery-hiring/DeliveryHiring_RO.sol\":5564:5574  msg.sender */\n      caller\n        /* \"contracts/study-case-contracts/001-delivery-hiring/DeliveryHiring_RO.sol\":5576:5587  application */\n      0x01\n        /* \"contracts/study-case-contracts/001-delivery-hiring/DeliveryHiring_RO.sol\":5549:5563  updateMapParty */\n      tag_186\n        /* \"contracts/study-case-contracts/001-delivery-hiring/DeliveryHiring_RO.sol\":5549:5588  updateMapParty(msg.sender, application) */\n      jump\t// in\n    tag_211:\n      pop\n        /* \"contracts/study-case-contracts/001-delivery-hiring/DeliveryHiring_RO.sol\":5600:5604  true */\n      0x01\n        /* \"contracts/study-case-contracts/001-delivery-hiring/DeliveryHiring_RO.sol\":5593:5604  return true */\n      swap1\n      pop\n        /* \"contracts/study-case-contracts/001-delivery-hiring/DeliveryHiring_RO.sol\":5350:5612  function signContract() public onlyApplication() returns(bool) {... */\n      swap1\n      jump\t// out\n        /* \"contracts/study-case-contracts/001-delivery-hiring/DeliveryHiring_RO.sol\":6669:6818  function getParty(address _walletAddress) public view onlyInvolvedParties returns(EAI.Party memory){... */\n    tag_39:\n        /* \"contracts/study-case-contracts/001-delivery-hiring/DeliveryHiring_RO.sol\":6751:6767  EAI.Party memory */\n      tag_212\n      tag_213\n      jump\t// in\n    tag_212:\n        /* \"contracts/study-case-contracts/001-delivery-hiring/DeliveryHiring_RO.sol\":7452:7461  activated */\n      0x00\n      dup1\n      sload\n      swap1\n      0x0100\n      exp\n      swap1\n      div\n      0xff\n      and\n        /* \"contracts/study-case-contracts/001-delivery-hiring/DeliveryHiring_RO.sol\":7444:7494  require(activated, \"This contract is deactivated\") */\n      tag_215\n      jumpi\n      mload(0x40)\n      0x08c379a000000000000000000000000000000000000000000000000000000000\n      dup2\n      mstore\n      0x04\n      add\n      tag_216\n      swap1\n      tag_49\n      jump\t// in\n    tag_216:\n      mload(0x40)\n      dup1\n      swap2\n      sub\n      swap1\n      revert\n    tag_215:\n        /* \"contracts/study-case-contracts/001-delivery-hiring/DeliveryHiring_RO.sol\":7557:7567  msg.sender */\n      caller\n        /* \"contracts/study-case-contracts/001-delivery-hiring/DeliveryHiring_RO.sol\":7528:7567  application.walletAddress == msg.sender */\n      0xffffffffffffffffffffffffffffffffffffffff\n      and\n        /* \"contracts/study-case-contracts/001-delivery-hiring/DeliveryHiring_RO.sol\":7528:7539  application */\n      0x01\n        /* \"contracts/study-case-contracts/001-delivery-hiring/DeliveryHiring_RO.sol\":7528:7553  application.walletAddress */\n      dup1\n      add\n      0x00\n      swap1\n      sload\n      swap1\n      0x0100\n      exp\n      swap1\n      div\n      0xffffffffffffffffffffffffffffffffffffffff\n      and\n        /* \"contracts/study-case-contracts/001-delivery-hiring/DeliveryHiring_RO.sol\":7528:7567  application.walletAddress == msg.sender */\n      0xffffffffffffffffffffffffffffffffffffffff\n      and\n      eq\n        /* \"contracts/study-case-contracts/001-delivery-hiring/DeliveryHiring_RO.sol\":7528:7606  application.walletAddress == msg.sender || process.walletAddress == msg.sender */\n      dup1\n      tag_217\n      jumpi\n      pop\n        /* \"contracts/study-case-contracts/001-delivery-hiring/DeliveryHiring_RO.sol\":7596:7606  msg.sender */\n      caller\n        /* \"contracts/study-case-contracts/001-delivery-hiring/DeliveryHiring_RO.sol\":7571:7606  process.walletAddress == msg.sender */\n      0xffffffffffffffffffffffffffffffffffffffff\n      and\n        /* \"contracts/study-case-contracts/001-delivery-hiring/DeliveryHiring_RO.sol\":7571:7578  process */\n      0x03\n        /* \"contracts/study-case-contracts/001-delivery-hiring/DeliveryHiring_RO.sol\":7571:7592  process.walletAddress */\n      0x01\n      add\n      0x00\n      swap1\n      sload\n      swap1\n      0x0100\n      exp\n      swap1\n      div\n      0xffffffffffffffffffffffffffffffffffffffff\n      and\n        /* \"contracts/study-case-contracts/001-delivery-hiring/DeliveryHiring_RO.sol\":7571:7606  process.walletAddress == msg.sender */\n      0xffffffffffffffffffffffffffffffffffffffff\n      and\n      eq\n        /* \"contracts/study-case-contracts/001-delivery-hiring/DeliveryHiring_RO.sol\":7528:7606  application.walletAddress == msg.sender || process.walletAddress == msg.sender */\n    tag_217:\n        /* \"contracts/study-case-contracts/001-delivery-hiring/DeliveryHiring_RO.sol\":7505:7689  require(... */\n      tag_218\n      jumpi\n      mload(0x40)\n      0x08c379a000000000000000000000000000000000000000000000000000000000\n      dup2\n      mstore\n      0x04\n      add\n      tag_219\n      swap1\n      tag_193\n      jump\t// in\n    tag_219:\n      mload(0x40)\n      dup1\n      swap2\n      sub\n      swap1\n      revert\n    tag_218:\n        /* \"contracts/study-case-contracts/001-delivery-hiring/DeliveryHiring_RO.sol\":6786:6794  mapParty */\n      0x05\n        /* \"contracts/study-case-contracts/001-delivery-hiring/DeliveryHiring_RO.sol\":6786:6810  mapParty[_walletAddress] */\n      0x00\n        /* \"contracts/study-case-contracts/001-delivery-hiring/DeliveryHiring_RO.sol\":6795:6809  _walletAddress */\n      dup4\n        /* \"contracts/study-case-contracts/001-delivery-hiring/DeliveryHiring_RO.sol\":6786:6810  mapParty[_walletAddress] */\n      0xffffffffffffffffffffffffffffffffffffffff\n      and\n      0xffffffffffffffffffffffffffffffffffffffff\n      and\n      dup2\n      mstore\n      0x20\n      add\n      swap1\n      dup2\n      mstore\n      0x20\n      add\n      0x00\n      keccak256\n        /* \"contracts/study-case-contracts/001-delivery-hiring/DeliveryHiring_RO.sol\":6779:6810  return mapParty[_walletAddress] */\n      mload(0x40)\n      dup1\n      0x60\n      add\n      0x40\n      mstore\n      swap1\n      dup2\n      0x00\n      dup3\n      add\n      dup1\n      sload\n      tag_221\n      swap1\n      tag_68\n      jump\t// in\n    tag_221:\n      dup1\n      0x1f\n      add\n      0x20\n      dup1\n      swap2\n      div\n      mul\n      0x20\n      add\n      mload(0x40)\n      swap1\n      dup2\n      add\n      0x40\n      mstore\n      dup1\n      swap3\n      swap2\n      swap1\n      dup2\n      dup2\n      mstore\n      0x20\n      add\n      dup3\n      dup1\n      sload\n      tag_222\n      swap1\n      tag_68\n      jump\t// in\n    tag_222:\n      dup1\n      iszero\n      tag_223\n      jumpi\n      dup1\n      0x1f\n      lt\n      tag_224\n      jumpi\n      0x0100\n      dup1\n      dup4\n      sload\n      div\n      mul\n      dup4\n      mstore\n      swap2\n      0x20\n      add\n      swap2\n      jump(tag_223)\n    tag_224:\n      dup3\n      add\n      swap2\n      swap1\n      0x00\n      mstore\n      keccak256(0x00, 0x20)\n      swap1\n    tag_225:\n      dup2\n      sload\n      dup2\n      mstore\n      swap1\n      0x01\n      add\n      swap1\n      0x20\n      add\n      dup1\n      dup4\n      gt\n      tag_225\n      jumpi\n      dup3\n      swap1\n      sub\n      0x1f\n      and\n      dup3\n      add\n      swap2\n    tag_223:\n      pop\n      pop\n      pop\n      pop\n      pop\n      dup2\n      mstore\n      0x20\n      add\n      0x01\n      dup3\n      add\n      0x00\n      swap1\n      sload\n      swap1\n      0x0100\n      exp\n      swap1\n      div\n      0xffffffffffffffffffffffffffffffffffffffff\n      and\n      0xffffffffffffffffffffffffffffffffffffffff\n      and\n      0xffffffffffffffffffffffffffffffffffffffff\n      and\n      dup2\n      mstore\n      0x20\n      add\n      0x01\n      dup3\n      add\n      0x14\n      swap1\n      sload\n      swap1\n      0x0100\n      exp\n      swap1\n      div\n      0xff\n      and\n      iszero\n      iszero\n      iszero\n      iszero\n      dup2\n      mstore\n      pop\n      pop\n      swap1\n      pop\n        /* \"contracts/study-case-contracts/001-delivery-hiring/DeliveryHiring_RO.sol\":6669:6818  function getParty(address _walletAddress) public view onlyInvolvedParties returns(EAI.Party memory){... */\n      swap2\n      swap1\n      pop\n      jump\t// out\n        /* \"contracts/lib/eai/EAI.sol\":1676:1852  function createParty(string memory _name, address _walletAddress, bool _aware) internal pure returns(Party memory){... */\n    tag_42:\n        /* \"contracts/lib/eai/EAI.sol\":1777:1789  Party memory */\n      tag_226\n      tag_213\n      jump\t// in\n    tag_226:\n        /* \"contracts/lib/eai/EAI.sol\":1808:1844  Party(_name, _walletAddress, _aware) */\n      mload(0x40)\n      dup1\n      0x60\n      add\n      0x40\n      mstore\n      dup1\n        /* \"contracts/lib/eai/EAI.sol\":1814:1819  _name */\n      dup6\n        /* \"contracts/lib/eai/EAI.sol\":1808:1844  Party(_name, _walletAddress, _aware) */\n      dup2\n      mstore\n      0x20\n      add\n        /* \"contracts/lib/eai/EAI.sol\":1821:1835  _walletAddress */\n      dup5\n        /* \"contracts/lib/eai/EAI.sol\":1808:1844  Party(_name, _walletAddress, _aware) */\n      0xffffffffffffffffffffffffffffffffffffffff\n      and\n      dup2\n      mstore\n      0x20\n      add\n        /* \"contracts/lib/eai/EAI.sol\":1837:1843  _aware */\n      dup4\n        /* \"contracts/lib/eai/EAI.sol\":1808:1844  Party(_name, _walletAddress, _aware) */\n      iszero\n      iszero\n      dup2\n      mstore\n      pop\n        /* \"contracts/lib/eai/EAI.sol\":1801:1844  return Party(_name, _walletAddress, _aware) */\n      swap1\n      pop\n        /* \"contracts/lib/eai/EAI.sol\":1676:1852  function createParty(string memory _name, address _walletAddress, bool _aware) internal pure returns(Party memory){... */\n      swap4\n      swap3\n      pop\n      pop\n      pop\n      jump\t// out\n        /* \"contracts/lib/eai/EAI.sol\":11005:11636  function createMaxNumberOfOperationByTime(... */\n    tag_43:\n        /* \"contracts/lib/eai/EAI.sol\":11130:11163  MaxNumberOfOperationByTime memory */\n      tag_228\n      tag_229\n      jump\t// in\n    tag_228:\n        /* \"contracts/lib/eai/EAI.sol\":11177:11193  uint32 auxByTime */\n      0x00\n        /* \"contracts/lib/eai/EAI.sol\":872:873  4 */\n      0x04\n        /* \"contracts/lib/eai/EAI.sol\":11209:11226  _timeUnit <= WEEK */\n      0xff\n      and\n        /* \"contracts/lib/eai/EAI.sol\":11209:11218  _timeUnit */\n      dup4\n        /* \"contracts/lib/eai/EAI.sol\":11209:11226  _timeUnit <= WEEK */\n      0xff\n      and\n      gt\n        /* \"contracts/lib/eai/EAI.sol\":11206:11542  if(_timeUnit <= WEEK){... */\n      tag_231\n      jumpi\n        /* \"contracts/lib/eai/EAI.sol\":11359:11386  getTimeInSeconds(_timeUnit) */\n      tag_232\n        /* \"contracts/lib/eai/EAI.sol\":11376:11385  _timeUnit */\n      dup4\n        /* \"contracts/lib/eai/EAI.sol\":11359:11375  getTimeInSeconds */\n      tag_233\n        /* \"contracts/lib/eai/EAI.sol\":11359:11386  getTimeInSeconds(_timeUnit) */\n      jump\t// in\n    tag_232:\n        /* \"contracts/lib/eai/EAI.sol\":11348:11386  auxByTime= getTimeInSeconds(_timeUnit) */\n      swap1\n      pop\n        /* \"contracts/lib/eai/EAI.sol\":11206:11542  if(_timeUnit <= WEEK){... */\n      jump(tag_234)\n    tag_231:\n        /* \"contracts/lib/eai/EAI.sol\":11528:11529  1 */\n      0x01\n        /* \"contracts/lib/eai/EAI.sol\":11516:11529  auxByTime = 1 */\n      swap1\n      pop\n        /* \"contracts/lib/eai/EAI.sol\":11206:11542  if(_timeUnit <= WEEK){... */\n    tag_234:\n        /* \"contracts/lib/eai/EAI.sol\":11559:11628  MaxNumberOfOperationByTime(_amount, _timeUnit, auxByTime, _amount, 0) */\n      mload(0x40)\n      dup1\n      0xa0\n      add\n      0x40\n      mstore\n      dup1\n        /* \"contracts/lib/eai/EAI.sol\":11586:11593  _amount */\n      dup6\n        /* \"contracts/lib/eai/EAI.sol\":11559:11628  MaxNumberOfOperationByTime(_amount, _timeUnit, auxByTime, _amount, 0) */\n      0xffffffff\n      and\n      dup2\n      mstore\n      0x20\n      add\n        /* \"contracts/lib/eai/EAI.sol\":11595:11604  _timeUnit */\n      dup5\n        /* \"contracts/lib/eai/EAI.sol\":11559:11628  MaxNumberOfOperationByTime(_amount, _timeUnit, auxByTime, _amount, 0) */\n      0xff\n      and\n      dup2\n      mstore\n      0x20\n      add\n        /* \"contracts/lib/eai/EAI.sol\":11606:11615  auxByTime */\n      dup3\n        /* \"contracts/lib/eai/EAI.sol\":11559:11628  MaxNumberOfOperationByTime(_amount, _timeUnit, auxByTime, _amount, 0) */\n      0xffffffff\n      and\n      dup2\n      mstore\n      0x20\n      add\n        /* \"contracts/lib/eai/EAI.sol\":11617:11624  _amount */\n      dup6\n        /* \"contracts/lib/eai/EAI.sol\":11559:11628  MaxNumberOfOperationByTime(_amount, _timeUnit, auxByTime, _amount, 0) */\n      0xffffffff\n      and\n      dup2\n      mstore\n      0x20\n      add\n        /* \"contracts/lib/eai/EAI.sol\":11626:11627  0 */\n      0x00\n        /* \"contracts/lib/eai/EAI.sol\":11559:11628  MaxNumberOfOperationByTime(_amount, _timeUnit, auxByTime, _amount, 0) */\n      0xffffffff\n      and\n      dup2\n      mstore\n      pop\n        /* \"contracts/lib/eai/EAI.sol\":11552:11628  return MaxNumberOfOperationByTime(_amount, _timeUnit, auxByTime, _amount, 0) */\n      swap2\n      pop\n      pop\n        /* \"contracts/lib/eai/EAI.sol\":11005:11636  function createMaxNumberOfOperationByTime(... */\n      swap3\n      swap2\n      pop\n      pop\n      jump\t// out\n        /* \"contracts/lib/eai/EAI.sol\":17118:17337  function createMessageContent(string memory _xpath, string memory _op, int256 _content ) internal pure returns(MessageContent_Number memory){        ... */\n    tag_44:\n        /* \"contracts/lib/eai/EAI.sol\":17229:17257  MessageContent_Number memory */\n      tag_235\n      tag_236\n      jump\t// in\n    tag_235:\n        /* \"contracts/lib/eai/EAI.sol\":17284:17328  MessageContent_Number(_xpath, _op, _content) */\n      mload(0x40)\n      dup1\n      0x60\n      add\n      0x40\n      mstore\n      dup1\n        /* \"contracts/lib/eai/EAI.sol\":17306:17312  _xpath */\n      dup6\n        /* \"contracts/lib/eai/EAI.sol\":17284:17328  MessageContent_Number(_xpath, _op, _content) */\n      dup2\n      mstore\n      0x20\n      add\n        /* \"contracts/lib/eai/EAI.sol\":17314:17317  _op */\n      dup5\n        /* \"contracts/lib/eai/EAI.sol\":17284:17328  MessageContent_Number(_xpath, _op, _content) */\n      dup2\n      mstore\n      0x20\n      add\n        /* \"contracts/lib/eai/EAI.sol\":17319:17327  _content */\n      dup4\n        /* \"contracts/lib/eai/EAI.sol\":17284:17328  MessageContent_Number(_xpath, _op, _content) */\n      dup2\n      mstore\n      pop\n        /* \"contracts/lib/eai/EAI.sol\":17277:17328  return MessageContent_Number(_xpath, _op, _content) */\n      swap1\n      pop\n        /* \"contracts/lib/eai/EAI.sol\":17118:17337  function createMessageContent(string memory _xpath, string memory _op, int256 _content ) internal pure returns(MessageContent_Number memory){        ... */\n      swap4\n      swap3\n      pop\n      pop\n      pop\n      jump\t// out\n        /* \"contracts/lib/eai/EAI.sol\":8421:8558  function createTimeout(uint32 _timeIncrement) internal pure returns (Timeout memory ){... */\n    tag_45:\n        /* \"contracts/lib/eai/EAI.sol\":8490:8504  Timeout memory */\n      tag_238\n      tag_239\n      jump\t// in\n    tag_238:\n        /* \"contracts/lib/eai/EAI.sol\":8524:8550  Timeout(0, _timeIncrement) */\n      mload(0x40)\n      dup1\n      0x40\n      add\n      0x40\n      mstore\n      dup1\n        /* \"contracts/lib/eai/EAI.sol\":8532:8533  0 */\n      0x00\n        /* \"contracts/lib/eai/EAI.sol\":8524:8550  Timeout(0, _timeIncrement) */\n      0xffffffff\n      and\n      dup2\n      mstore\n      0x20\n      add\n        /* \"contracts/lib/eai/EAI.sol\":8535:8549  _timeIncrement */\n      dup4\n        /* \"contracts/lib/eai/EAI.sol\":8524:8550  Timeout(0, _timeIncrement) */\n      0xffffffff\n      and\n      dup2\n      mstore\n      pop\n        /* \"contracts/lib/eai/EAI.sol\":8517:8550  return Timeout(0, _timeIncrement) */\n      swap1\n      pop\n        /* \"contracts/lib/eai/EAI.sol\":8421:8558  function createTimeout(uint32 _timeIncrement) internal pure returns (Timeout memory ){... */\n      swap2\n      swap1\n      pop\n      jump\t// out\n        /* \"contracts/lib/eai/EAI.sol\":11655:12239  function hasAvailableOperations_ByTime(... */\n    tag_59:\n        /* \"contracts/lib/eai/EAI.sol\":11828:11832  bool */\n      0x00\n        /* \"contracts/lib/eai/EAI.sol\":11857:11981  isAccessDatetimeOutOfOldInterval(_maxNumberOfOperationByTime.timeUnit, _maxNumberOfOperationByTime.endTime, _accessDateTime) */\n      tag_242\n        /* \"contracts/lib/eai/EAI.sol\":11890:11917  _maxNumberOfOperationByTime */\n      dup4\n        /* \"contracts/lib/eai/EAI.sol\":11890:11926  _maxNumberOfOperationByTime.timeUnit */\n      0x00\n      add\n      0x04\n      swap1\n      sload\n      swap1\n      0x0100\n      exp\n      swap1\n      div\n      0xff\n      and\n        /* \"contracts/lib/eai/EAI.sol\":11928:11955  _maxNumberOfOperationByTime */\n      dup5\n        /* \"contracts/lib/eai/EAI.sol\":11928:11963  _maxNumberOfOperationByTime.endTime */\n      0x00\n      add\n      0x0d\n      swap1\n      sload\n      swap1\n      0x0100\n      exp\n      swap1\n      div\n      0xffffffff\n      and\n        /* \"contracts/lib/eai/EAI.sol\":11965:11980  _accessDateTime */\n      dup5\n        /* \"contracts/lib/eai/EAI.sol\":11857:11889  isAccessDatetimeOutOfOldInterval */\n      tag_243\n        /* \"contracts/lib/eai/EAI.sol\":11857:11981  isAccessDatetimeOutOfOldInterval(_maxNumberOfOperationByTime.timeUnit, _maxNumberOfOperationByTime.endTime, _accessDateTime) */\n      jump\t// in\n    tag_242:\n        /* \"contracts/lib/eai/EAI.sol\":11854:12091  if(isAccessDatetimeOutOfOldInterval(_maxNumberOfOperationByTime.timeUnit, _maxNumberOfOperationByTime.endTime, _accessDateTime)){... */\n      iszero\n      tag_244\n      jumpi\n        /* \"contracts/lib/eai/EAI.sol\":12001:12079  setNewEndTimeAndRestOfOperations(_maxNumberOfOperationByTime, _accessDateTime) */\n      tag_245\n        /* \"contracts/lib/eai/EAI.sol\":12034:12061  _maxNumberOfOperationByTime */\n      dup4\n        /* \"contracts/lib/eai/EAI.sol\":12063:12078  _accessDateTime */\n      dup4\n        /* \"contracts/lib/eai/EAI.sol\":12001:12033  setNewEndTimeAndRestOfOperations */\n      tag_246\n        /* \"contracts/lib/eai/EAI.sol\":12001:12079  setNewEndTimeAndRestOfOperations(_maxNumberOfOperationByTime, _accessDateTime) */\n      jump\t// in\n    tag_245:\n        /* \"contracts/lib/eai/EAI.sol\":11854:12091  if(isAccessDatetimeOutOfOldInterval(_maxNumberOfOperationByTime.timeUnit, _maxNumberOfOperationByTime.endTime, _accessDateTime)){... */\n    tag_244:\n        /* \"contracts/lib/eai/EAI.sol\":12159:12160  0 */\n      0x00\n        /* \"contracts/lib/eai/EAI.sol\":12124:12151  _maxNumberOfOperationByTime */\n      dup4\n        /* \"contracts/lib/eai/EAI.sol\":12124:12156  _maxNumberOfOperationByTime.rest */\n      0x00\n      add\n      0x09\n      swap1\n      sload\n      swap1\n      0x0100\n      exp\n      swap1\n      div\n      0xffffffff\n      and\n        /* \"contracts/lib/eai/EAI.sol\":12124:12160  _maxNumberOfOperationByTime.rest > 0 */\n      0xffffffff\n      and\n      gt\n        /* \"contracts/lib/eai/EAI.sol\":12121:12209  if(_maxNumberOfOperationByTime.rest > 0){          ... */\n      iszero\n      tag_247\n      jumpi\n        /* \"contracts/lib/eai/EAI.sol\":12193:12197  true */\n      0x01\n        /* \"contracts/lib/eai/EAI.sol\":12186:12197  return true */\n      swap1\n      pop\n      jump(tag_241)\n        /* \"contracts/lib/eai/EAI.sol\":12121:12209  if(_maxNumberOfOperationByTime.rest > 0){          ... */\n    tag_247:\n        /* \"contracts/lib/eai/EAI.sol\":12226:12231  false */\n      0x00\n        /* \"contracts/lib/eai/EAI.sol\":12219:12231  return false */\n      swap1\n      pop\n        /* \"contracts/lib/eai/EAI.sol\":11655:12239  function hasAvailableOperations_ByTime(... */\n    tag_241:\n      swap3\n      swap2\n      pop\n      pop\n      jump\t// out\n        /* \"contracts/lib/eai/EAI.sol\":17345:18616  function evaluateNumberContent(MessageContent_Number memory msgContent, int256 _content) internal pure returns(bool){... */\n    tag_78:\n        /* \"contracts/lib/eai/EAI.sol\":17456:17460  bool */\n      0x00\n        /* \"contracts/lib/eai/EAI.sol\":17472:17490  bytes memory chars */\n      dup1\n        /* \"contracts/lib/eai/EAI.sol\":17499:17509  msgContent */\n      dup4\n        /* \"contracts/lib/eai/EAI.sol\":17499:17512  msgContent.op */\n      0x20\n      add\n      mload\n        /* \"contracts/lib/eai/EAI.sol\":17472:17513  bytes memory chars = bytes(msgContent.op) */\n      swap1\n      pop\n        /* \"contracts/lib/eai/EAI.sol\":17543:17547  0x21 */\n      0x21\n        /* \"contracts/lib/eai/EAI.sol\":17530:17547  chars[0] ==  0x21 */\n      0xf8\n      shl\n        /* \"contracts/lib/eai/EAI.sol\":17530:17535  chars */\n      dup2\n        /* \"contracts/lib/eai/EAI.sol\":17536:17537  0 */\n      0x00\n        /* \"contracts/lib/eai/EAI.sol\":17530:17538  chars[0] */\n      dup2\n      mload\n      dup2\n      lt\n      tag_249\n      jumpi\n      tag_250\n      tag_57\n      jump\t// in\n    tag_250:\n    tag_249:\n      0x20\n      add\n      add\n      mload\n      0xf8\n      shr\n      0xf8\n      shl\n        /* \"contracts/lib/eai/EAI.sol\":17530:17547  chars[0] ==  0x21 */\n      not(0xffffffffffffffffffffffffffffffffffffffffffffffffffffffffffffff)\n      and\n      sub\n        /* \"contracts/lib/eai/EAI.sol\":17526:18412  if( chars[0] ==  0x21 ){// if chars[0] is '!'... */\n      tag_251\n      jumpi\n        /* \"contracts/lib/eai/EAI.sol\":17604:17614  msgContent */\n      dup4\n        /* \"contracts/lib/eai/EAI.sol\":17604:17622  msgContent.content */\n      0x40\n      add\n      mload\n        /* \"contracts/lib/eai/EAI.sol\":17592:17600  _content */\n      dup4\n        /* \"contracts/lib/eai/EAI.sol\":17592:17622  _content != msgContent.content */\n      eq\n      iszero\n        /* \"contracts/lib/eai/EAI.sol\":17585:17622  return _content != msgContent.content */\n      swap2\n      pop\n      pop\n      jump(tag_248)\n        /* \"contracts/lib/eai/EAI.sol\":17526:18412  if( chars[0] ==  0x21 ){// if chars[0] is '!'... */\n    tag_251:\n        /* \"contracts/lib/eai/EAI.sol\":17664:17668  0x3D */\n      0x3d\n        /* \"contracts/lib/eai/EAI.sol\":17652:17668  chars[0] == 0x3D */\n      0xf8\n      shl\n        /* \"contracts/lib/eai/EAI.sol\":17652:17657  chars */\n      dup2\n        /* \"contracts/lib/eai/EAI.sol\":17658:17659  0 */\n      0x00\n        /* \"contracts/lib/eai/EAI.sol\":17652:17660  chars[0] */\n      dup2\n      mload\n      dup2\n      lt\n      tag_253\n      jumpi\n      tag_254\n      tag_57\n      jump\t// in\n    tag_254:\n    tag_253:\n      0x20\n      add\n      add\n      mload\n      0xf8\n      shr\n      0xf8\n      shl\n        /* \"contracts/lib/eai/EAI.sol\":17652:17668  chars[0] == 0x3D */\n      not(0xffffffffffffffffffffffffffffffffffffffffffffffffffffffffffffff)\n      and\n      sub\n        /* \"contracts/lib/eai/EAI.sol\":17648:18412  if( chars[0] == 0x3D ){ // if chars[0] is '='... */\n      tag_255\n      jumpi\n        /* \"contracts/lib/eai/EAI.sol\":17726:17736  msgContent */\n      dup4\n        /* \"contracts/lib/eai/EAI.sol\":17726:17744  msgContent.content */\n      0x40\n      add\n      mload\n        /* \"contracts/lib/eai/EAI.sol\":17714:17722  _content */\n      dup4\n        /* \"contracts/lib/eai/EAI.sol\":17714:17744  _content == msgContent.content */\n      eq\n        /* \"contracts/lib/eai/EAI.sol\":17707:17744  return _content == msgContent.content */\n      swap2\n      pop\n      pop\n      jump(tag_248)\n        /* \"contracts/lib/eai/EAI.sol\":17648:18412  if( chars[0] == 0x3D ){ // if chars[0] is '='... */\n    tag_255:\n        /* \"contracts/lib/eai/EAI.sol\":17787:17791  0x3C */\n      0x3c\n        /* \"contracts/lib/eai/EAI.sol\":17775:17791  chars[0] == 0x3C */\n      0xf8\n      shl\n        /* \"contracts/lib/eai/EAI.sol\":17775:17780  chars */\n      dup2\n        /* \"contracts/lib/eai/EAI.sol\":17781:17782  0 */\n      0x00\n        /* \"contracts/lib/eai/EAI.sol\":17775:17783  chars[0] */\n      dup2\n      mload\n      dup2\n      lt\n      tag_257\n      jumpi\n      tag_258\n      tag_57\n      jump\t// in\n    tag_258:\n    tag_257:\n      0x20\n      add\n      add\n      mload\n      0xf8\n      shr\n      0xf8\n      shl\n        /* \"contracts/lib/eai/EAI.sol\":17775:17791  chars[0] == 0x3C */\n      not(0xffffffffffffffffffffffffffffffffffffffffffffffffffffffffffffff)\n      and\n      sub\n        /* \"contracts/lib/eai/EAI.sol\":17771:18412  if( chars[0] == 0x3C ){// if chars[0] is '<'... */\n      tag_259\n      jumpi\n        /* \"contracts/lib/eai/EAI.sol\":17848:17849  2 */\n      0x02\n        /* \"contracts/lib/eai/EAI.sol\":17832:17837  chars */\n      dup2\n        /* \"contracts/lib/eai/EAI.sol\":17832:17844  chars.length */\n      mload\n        /* \"contracts/lib/eai/EAI.sol\":17832:17849  chars.length == 2 */\n      sub\n        /* \"contracts/lib/eai/EAI.sol\":17829:18047  if(chars.length == 2){// if chars is '<='                ... */\n      tag_260\n      jumpi\n        /* \"contracts/lib/eai/EAI.sol\":17923:17933  msgContent */\n      dup4\n        /* \"contracts/lib/eai/EAI.sol\":17923:17941  msgContent.content */\n      0x40\n      add\n      mload\n        /* \"contracts/lib/eai/EAI.sol\":17911:17919  _content */\n      dup4\n        /* \"contracts/lib/eai/EAI.sol\":17911:17941  _content <= msgContent.content */\n      sgt\n      iszero\n        /* \"contracts/lib/eai/EAI.sol\":17904:17941  return _content <= msgContent.content */\n      swap2\n      pop\n      pop\n      jump(tag_248)\n        /* \"contracts/lib/eai/EAI.sol\":17829:18047  if(chars.length == 2){// if chars is '<='                ... */\n    tag_260:\n        /* \"contracts/lib/eai/EAI.sol\":18013:18023  msgContent */\n      dup4\n        /* \"contracts/lib/eai/EAI.sol\":18013:18031  msgContent.content */\n      0x40\n      add\n      mload\n        /* \"contracts/lib/eai/EAI.sol\":18002:18010  _content */\n      dup4\n        /* \"contracts/lib/eai/EAI.sol\":18002:18031  _content < msgContent.content */\n      slt\n        /* \"contracts/lib/eai/EAI.sol\":17995:18031  return _content < msgContent.content */\n      swap2\n      pop\n      pop\n      jump(tag_248)\n        /* \"contracts/lib/eai/EAI.sol\":17771:18412  if( chars[0] == 0x3C ){// if chars[0] is '<'... */\n    tag_259:\n        /* \"contracts/lib/eai/EAI.sol\":18083:18087  0x3E */\n      0x3e\n        /* \"contracts/lib/eai/EAI.sol\":18071:18087  chars[0] == 0x3E */\n      0xf8\n      shl\n        /* \"contracts/lib/eai/EAI.sol\":18071:18076  chars */\n      dup2\n        /* \"contracts/lib/eai/EAI.sol\":18077:18078  0 */\n      0x00\n        /* \"contracts/lib/eai/EAI.sol\":18071:18079  chars[0] */\n      dup2\n      mload\n      dup2\n      lt\n      tag_263\n      jumpi\n      tag_264\n      tag_57\n      jump\t// in\n    tag_264:\n    tag_263:\n      0x20\n      add\n      add\n      mload\n      0xf8\n      shr\n      0xf8\n      shl\n        /* \"contracts/lib/eai/EAI.sol\":18071:18087  chars[0] == 0x3E */\n      not(0xffffffffffffffffffffffffffffffffffffffffffffffffffffffffffffff)\n      and\n      sub\n        /* \"contracts/lib/eai/EAI.sol\":18067:18412  if( chars[0] == 0x3E ){ // if( chars[0] == 0x3E ){// if chars[0] is '>'... */\n      tag_265\n      jumpi\n        /* \"contracts/lib/eai/EAI.sol\":18172:18173  2 */\n      0x02\n        /* \"contracts/lib/eai/EAI.sol\":18156:18161  chars */\n      dup2\n        /* \"contracts/lib/eai/EAI.sol\":18156:18168  chars.length */\n      mload\n        /* \"contracts/lib/eai/EAI.sol\":18156:18173  chars.length == 2 */\n      sub\n        /* \"contracts/lib/eai/EAI.sol\":18153:18401  if(chars.length == 2){// if chars is '>='              ... */\n      tag_266\n      jumpi\n        /* \"contracts/lib/eai/EAI.sol\":18245:18255  msgContent */\n      dup4\n        /* \"contracts/lib/eai/EAI.sol\":18245:18263  msgContent.content */\n      0x40\n      add\n      mload\n        /* \"contracts/lib/eai/EAI.sol\":18233:18241  _content */\n      dup4\n        /* \"contracts/lib/eai/EAI.sol\":18233:18263  _content >= msgContent.content */\n      slt\n      iszero\n        /* \"contracts/lib/eai/EAI.sol\":18226:18263  return _content >= msgContent.content */\n      swap2\n      pop\n      pop\n      jump(tag_248)\n        /* \"contracts/lib/eai/EAI.sol\":18153:18401  if(chars.length == 2){// if chars is '>='              ... */\n    tag_266:\n        /* \"contracts/lib/eai/EAI.sol\":18351:18361  msgContent */\n      dup4\n        /* \"contracts/lib/eai/EAI.sol\":18351:18369  msgContent.content */\n      0x40\n      add\n      mload\n        /* \"contracts/lib/eai/EAI.sol\":18340:18348  _content */\n      dup4\n        /* \"contracts/lib/eai/EAI.sol\":18340:18369  _content > msgContent.content */\n      sgt\n        /* \"contracts/lib/eai/EAI.sol\":18333:18369  return _content > msgContent.content */\n      swap2\n      pop\n      pop\n      jump(tag_248)\n        /* \"contracts/lib/eai/EAI.sol\":18067:18412  if( chars[0] == 0x3E ){ // if( chars[0] == 0x3E ){// if chars[0] is '>'... */\n    tag_265:\n        /* \"contracts/lib/eai/EAI.sol\":18459:18464  false */\n      0x00\n        /* \"contracts/lib/eai/EAI.sol\":18451:18499  require(false, \"Comparison symbol is not valid\") */\n      tag_268\n      jumpi\n      mload(0x40)\n      0x08c379a000000000000000000000000000000000000000000000000000000000\n      dup2\n      mstore\n      0x04\n      add\n      tag_269\n      swap1\n      tag_270\n      jump\t// in\n    tag_269:\n      mload(0x40)\n      dup1\n      swap2\n      sub\n      swap1\n      revert\n    tag_268:\n        /* \"contracts/lib/eai/EAI.sol\":18517:18522  false */\n      0x00\n        /* \"contracts/lib/eai/EAI.sol\":18510:18522  return false */\n      swap2\n      pop\n      pop\n        /* \"contracts/lib/eai/EAI.sol\":17345:18616  function evaluateNumberContent(MessageContent_Number memory msgContent, int256 _content) internal pure returns(bool){... */\n    tag_248:\n      swap3\n      swap2\n      pop\n      pop\n      jump\t// out\n        /* \"contracts/lib/eai/EAI.sol\":12421:12787  function decreaseOneOperation_ByTime(MaxNumberOfOperationByTime storage _maxNumberOfOperationByTime,  uint32 _accessDateTime) internal  returns(bool){... */\n    tag_118:\n        /* \"contracts/lib/eai/EAI.sol\":12565:12569  bool */\n      0x00\n        /* \"contracts/lib/eai/EAI.sol\":12584:12659  hasAvailableOperations_ByTime(_maxNumberOfOperationByTime, _accessDateTime) */\n      tag_272\n        /* \"contracts/lib/eai/EAI.sol\":12614:12641  _maxNumberOfOperationByTime */\n      dup4\n        /* \"contracts/lib/eai/EAI.sol\":12643:12658  _accessDateTime */\n      dup4\n        /* \"contracts/lib/eai/EAI.sol\":12584:12613  hasAvailableOperations_ByTime */\n      tag_59\n        /* \"contracts/lib/eai/EAI.sol\":12584:12659  hasAvailableOperations_ByTime(_maxNumberOfOperationByTime, _accessDateTime) */\n      jump\t// in\n    tag_272:\n        /* \"contracts/lib/eai/EAI.sol\":12581:12749  if(hasAvailableOperations_ByTime(_maxNumberOfOperationByTime, _accessDateTime)){... */\n      iszero\n      tag_273\n      jumpi\n        /* \"contracts/lib/eai/EAI.sol\":12710:12711  1 */\n      0x01\n        /* \"contracts/lib/eai/EAI.sol\":12675:12702  _maxNumberOfOperationByTime */\n      dup4\n        /* \"contracts/lib/eai/EAI.sol\":12675:12707  _maxNumberOfOperationByTime.rest */\n      0x00\n      add\n      0x09\n        /* \"contracts/lib/eai/EAI.sol\":12675:12711  _maxNumberOfOperationByTime.rest -=1 */\n      dup3\n      dup3\n      dup3\n      swap1\n      sload\n      swap1\n      0x0100\n      exp\n      swap1\n      div\n      0xffffffff\n      and\n      tag_274\n      swap2\n      swap1\n      tag_275\n      jump\t// in\n    tag_274:\n      swap3\n      pop\n      0x0100\n      exp\n      dup2\n      sload\n      dup2\n      0xffffffff\n      mul\n      not\n      and\n      swap1\n      dup4\n      0xffffffff\n      and\n      mul\n      or\n      swap1\n      sstore\n      pop\n        /* \"contracts/lib/eai/EAI.sol\":12733:12737  true */\n      0x01\n        /* \"contracts/lib/eai/EAI.sol\":12726:12737  return true */\n      swap1\n      pop\n      jump(tag_271)\n        /* \"contracts/lib/eai/EAI.sol\":12581:12749  if(hasAvailableOperations_ByTime(_maxNumberOfOperationByTime, _accessDateTime)){... */\n    tag_273:\n        /* \"contracts/lib/eai/EAI.sol\":12774:12779  false */\n      0x00\n        /* \"contracts/lib/eai/EAI.sol\":12767:12779  return false */\n      swap1\n      pop\n        /* \"contracts/lib/eai/EAI.sol\":12421:12787  function decreaseOneOperation_ByTime(MaxNumberOfOperationByTime storage _maxNumberOfOperationByTime,  uint32 _accessDateTime) internal  returns(bool){... */\n    tag_271:\n      swap3\n      swap2\n      pop\n      pop\n      jump\t// out\n        /* \"contracts/lib/eai/EAI.sol\":8983:9176  function setEndTimeInTimeout(Timeout storage _timeout, uint32 _startTime)internal onlyValidAccessTime(_startTime){      ... */\n    tag_123:\n        /* \"contracts/lib/eai/EAI.sol\":9085:9095  _startTime */\n      dup1\n        /* \"contracts/lib/eai/EAI.sol\":9312:9333  string memory strTime */\n      0x00\n        /* \"contracts/lib/eai/EAI.sol\":9337:9355  uint2String(_time) */\n      tag_277\n        /* \"contracts/lib/eai/EAI.sol\":9349:9354  _time */\n      dup3\n        /* \"contracts/lib/eai/EAI.sol\":9337:9355  uint2String(_time) */\n      0xffffffff\n      and\n        /* \"contracts/lib/eai/EAI.sol\":9337:9348  uint2String */\n      tag_278\n        /* \"contracts/lib/eai/EAI.sol\":9337:9355  uint2String(_time) */\n      jump\t// in\n    tag_277:\n        /* \"contracts/lib/eai/EAI.sol\":9312:9355  string memory strTime  = uint2String(_time) */\n      swap1\n      pop\n        /* \"contracts/lib/eai/EAI.sol\":9399:9401  10 */\n      0x0a\n        /* \"contracts/lib/eai/EAI.sol\":9380:9387  strTime */\n      dup2\n        /* \"contracts/lib/eai/EAI.sol\":9374:9395  bytes(strTime).length */\n      mload\n        /* \"contracts/lib/eai/EAI.sol\":9374:9401  bytes(strTime).length <= 10 */\n      gt\n      iszero\n        /* \"contracts/lib/eai/EAI.sol\":9366:9402  require(bytes(strTime).length <= 10) */\n      tag_279\n      jumpi\n      0x00\n      dup1\n      revert\n    tag_279:\n        /* \"contracts/lib/eai/EAI.sol\":9145:9153  _timeout */\n      dup4\n        /* \"contracts/lib/eai/EAI.sol\":9145:9167  _timeout.timeIncrement */\n      0x00\n      add\n      0x04\n      swap1\n      sload\n      swap1\n      0x0100\n      exp\n      swap1\n      div\n      0xffffffff\n      and\n        /* \"contracts/lib/eai/EAI.sol\":9132:9142  _startTime */\n      dup4\n        /* \"contracts/lib/eai/EAI.sol\":9132:9167  _startTime + _timeout.timeIncrement */\n      tag_281\n      swap2\n      swap1\n      tag_282\n      jump\t// in\n    tag_281:\n        /* \"contracts/lib/eai/EAI.sol\":9113:9121  _timeout */\n      dup5\n        /* \"contracts/lib/eai/EAI.sol\":9113:9129  _timeout.endTime */\n      0x00\n      add\n      0x00\n        /* \"contracts/lib/eai/EAI.sol\":9113:9167  _timeout.endTime = _startTime + _timeout.timeIncrement */\n      0x0100\n      exp\n      dup2\n      sload\n      dup2\n      0xffffffff\n      mul\n      not\n      and\n      swap1\n      dup4\n      0xffffffff\n      and\n      mul\n      or\n      swap1\n      sstore\n      pop\n        /* \"contracts/lib/eai/EAI.sol\":9301:9446  {... */\n      pop\n        /* \"contracts/lib/eai/EAI.sol\":8983:9176  function setEndTimeInTimeout(Timeout storage _timeout, uint32 _startTime)internal onlyValidAccessTime(_startTime){      ... */\n      pop\n      pop\n      pop\n      jump\t// out\n        /* \"contracts/lib/eai/EAI.sol\":2458:2561  function isAware(Party memory _party) internal pure returns(bool){... */\n    tag_142:\n        /* \"contracts/lib/eai/EAI.sol\":2518:2522  bool */\n      0x00\n        /* \"contracts/lib/eai/EAI.sol\":2541:2547  _party */\n      dup2\n        /* \"contracts/lib/eai/EAI.sol\":2541:2553  _party.aware */\n      0x40\n      add\n      mload\n        /* \"contracts/lib/eai/EAI.sol\":2534:2553  return _party.aware */\n      swap1\n      pop\n        /* \"contracts/lib/eai/EAI.sol\":2458:2561  function isAware(Party memory _party) internal pure returns(bool){... */\n      swap2\n      swap1\n      pop\n      jump\t// out\n        /* \"contracts/lib/eai/EAI.sol\":8570:8841  function isTimeoutEnded(Timeout memory _timeout, uint32 _accessTime) internal pure onlyValidAccessTime(_accessTime) returns(bool){        ... */\n    tag_150:\n        /* \"contracts/lib/eai/EAI.sol\":8694:8698  bool */\n      0x00\n        /* \"contracts/lib/eai/EAI.sol\":8673:8684  _accessTime */\n      dup2\n        /* \"contracts/lib/eai/EAI.sol\":9312:9333  string memory strTime */\n      0x00\n        /* \"contracts/lib/eai/EAI.sol\":9337:9355  uint2String(_time) */\n      tag_285\n        /* \"contracts/lib/eai/EAI.sol\":9349:9354  _time */\n      dup3\n        /* \"contracts/lib/eai/EAI.sol\":9337:9355  uint2String(_time) */\n      0xffffffff\n      and\n        /* \"contracts/lib/eai/EAI.sol\":9337:9348  uint2String */\n      tag_278\n        /* \"contracts/lib/eai/EAI.sol\":9337:9355  uint2String(_time) */\n      jump\t// in\n    tag_285:\n        /* \"contracts/lib/eai/EAI.sol\":9312:9355  string memory strTime  = uint2String(_time) */\n      swap1\n      pop\n        /* \"contracts/lib/eai/EAI.sol\":9399:9401  10 */\n      0x0a\n        /* \"contracts/lib/eai/EAI.sol\":9380:9387  strTime */\n      dup2\n        /* \"contracts/lib/eai/EAI.sol\":9374:9395  bytes(strTime).length */\n      mload\n        /* \"contracts/lib/eai/EAI.sol\":9374:9401  bytes(strTime).length <= 10 */\n      gt\n      iszero\n        /* \"contracts/lib/eai/EAI.sol\":9366:9402  require(bytes(strTime).length <= 10) */\n      tag_286\n      jumpi\n      0x00\n      dup1\n      revert\n    tag_286:\n        /* \"contracts/lib/eai/EAI.sol\":8745:8746  0 */\n      0x00\n        /* \"contracts/lib/eai/EAI.sol\":8726:8734  _timeout */\n      dup6\n        /* \"contracts/lib/eai/EAI.sol\":8726:8742  _timeout.endTime */\n      0x00\n      add\n      mload\n        /* \"contracts/lib/eai/EAI.sol\":8726:8746  _timeout.endTime > 0 */\n      0xffffffff\n      and\n      gt\n        /* \"contracts/lib/eai/EAI.sol\":8718:8785  require(_timeout.endTime > 0, \"There is no endTime set in timeout\") */\n      tag_288\n      jumpi\n      mload(0x40)\n      0x08c379a000000000000000000000000000000000000000000000000000000000\n      dup2\n      mstore\n      0x04\n      add\n      tag_289\n      swap1\n      tag_290\n      jump\t// in\n    tag_289:\n      mload(0x40)\n      dup1\n      swap2\n      sub\n      swap1\n      revert\n    tag_288:\n        /* \"contracts/lib/eai/EAI.sol\":8817:8825  _timeout */\n      dup5\n        /* \"contracts/lib/eai/EAI.sol\":8817:8833  _timeout.endTime */\n      0x00\n      add\n      mload\n        /* \"contracts/lib/eai/EAI.sol\":8803:8833  _accessTime > _timeout.endTime */\n      0xffffffff\n      and\n        /* \"contracts/lib/eai/EAI.sol\":8803:8814  _accessTime */\n      dup5\n        /* \"contracts/lib/eai/EAI.sol\":8803:8833  _accessTime > _timeout.endTime */\n      0xffffffff\n      and\n      gt\n        /* \"contracts/lib/eai/EAI.sol\":8796:8833  return _accessTime > _timeout.endTime */\n      swap3\n      pop\n        /* \"contracts/lib/eai/EAI.sol\":9301:9446  {... */\n      pop\n        /* \"contracts/lib/eai/EAI.sol\":8570:8841  function isTimeoutEnded(Timeout memory _timeout, uint32 _accessTime) internal pure onlyValidAccessTime(_accessTime) returns(bool){        ... */\n      pop\n      swap3\n      swap2\n      pop\n      pop\n      jump\t// out\n        /* \"contracts/study-case-contracts/001-delivery-hiring/DeliveryHiring_RO.sol\":5620:5790  function updateMapParty(address _walletAddress, EAI.Party storage _party)internal returns(bool){       ... */\n    tag_186:\n        /* \"contracts/study-case-contracts/001-delivery-hiring/DeliveryHiring_RO.sol\":5710:5714  bool */\n      0x00\n        /* \"contracts/study-case-contracts/001-delivery-hiring/DeliveryHiring_RO.sol\":5760:5766  _party */\n      dup2\n        /* \"contracts/study-case-contracts/001-delivery-hiring/DeliveryHiring_RO.sol\":5733:5741  mapParty */\n      0x05\n        /* \"contracts/study-case-contracts/001-delivery-hiring/DeliveryHiring_RO.sol\":5733:5757  mapParty[_walletAddress] */\n      0x00\n        /* \"contracts/study-case-contracts/001-delivery-hiring/DeliveryHiring_RO.sol\":5742:5756  _walletAddress */\n      dup6\n        /* \"contracts/study-case-contracts/001-delivery-hiring/DeliveryHiring_RO.sol\":5733:5757  mapParty[_walletAddress] */\n      0xffffffffffffffffffffffffffffffffffffffff\n      and\n      0xffffffffffffffffffffffffffffffffffffffff\n      and\n      dup2\n      mstore\n      0x20\n      add\n      swap1\n      dup2\n      mstore\n      0x20\n      add\n      0x00\n      keccak256\n        /* \"contracts/study-case-contracts/001-delivery-hiring/DeliveryHiring_RO.sol\":5733:5766  mapParty[_walletAddress] = _party */\n      0x00\n      dup3\n      add\n      dup2\n      0x00\n      add\n      swap1\n      dup1\n      sload\n      tag_292\n      swap1\n      tag_68\n      jump\t// in\n    tag_292:\n      tag_293\n      swap3\n      swap2\n      swap1\n      tag_294\n      jump\t// in\n    tag_293:\n      pop\n      0x01\n      dup3\n      add\n      0x00\n      swap1\n      sload\n      swap1\n      0x0100\n      exp\n      swap1\n      div\n      0xffffffffffffffffffffffffffffffffffffffff\n      and\n      dup2\n      0x01\n      add\n      exp(0x0100, 0x00)\n      dup2\n      sload\n      dup2\n      0xffffffffffffffffffffffffffffffffffffffff\n      mul\n      not\n      and\n      swap1\n      dup4\n      0xffffffffffffffffffffffffffffffffffffffff\n      and\n      mul\n      or\n      swap1\n      sstore\n      pop\n      0x01\n      dup3\n      add\n      0x14\n      swap1\n      sload\n      swap1\n      0x0100\n      exp\n      swap1\n      div\n      0xff\n      and\n      dup2\n      0x01\n      add\n      exp(0x0100, 0x14)\n      dup2\n      sload\n      dup2\n      0xff\n      mul\n      not\n      and\n      swap1\n      dup4\n      iszero\n      iszero\n      mul\n      or\n      swap1\n      sstore\n      pop\n      swap1\n      pop\n      pop\n        /* \"contracts/study-case-contracts/001-delivery-hiring/DeliveryHiring_RO.sol\":5778:5782  true */\n      0x01\n        /* \"contracts/study-case-contracts/001-delivery-hiring/DeliveryHiring_RO.sol\":5771:5782  return true */\n      swap1\n      pop\n        /* \"contracts/study-case-contracts/001-delivery-hiring/DeliveryHiring_RO.sol\":5620:5790  function updateMapParty(address _walletAddress, EAI.Party storage _party)internal returns(bool){       ... */\n      swap3\n      swap2\n      pop\n      pop\n      jump\t// out\n        /* \"contracts/lib/eai/EAI.sol\":27468:28017  function getTimeInSeconds(uint8 timeUnit) private pure returns(uint32){... */\n    tag_233:\n        /* \"contracts/lib/eai/EAI.sol\":27531:27537  uint32 */\n      0x00\n        /* \"contracts/lib/eai/EAI.sol\":872:873  4 */\n      0x04\n        /* \"contracts/lib/eai/EAI.sol\":27611:27627  timeUnit <= WEEK */\n      0xff\n      and\n        /* \"contracts/lib/eai/EAI.sol\":27611:27619  timeUnit */\n      dup3\n        /* \"contracts/lib/eai/EAI.sol\":27611:27627  timeUnit <= WEEK */\n      0xff\n      and\n      gt\n      iszero\n        /* \"contracts/lib/eai/EAI.sol\":27603:27691  require(timeUnit <= WEEK, \"The method getTimeInSeconds doesn't work for MONTH and YEAR\") */\n      tag_296\n      jumpi\n      mload(0x40)\n      0x08c379a000000000000000000000000000000000000000000000000000000000\n      dup2\n      mstore\n      0x04\n      add\n      tag_297\n      swap1\n      tag_298\n      jump\t// in\n    tag_297:\n      mload(0x40)\n      dup1\n      swap2\n      sub\n      swap1\n      revert\n    tag_296:\n        /* \"contracts/lib/eai/EAI.sol\":754:755  0 */\n      0x00\n        /* \"contracts/lib/eai/EAI.sol\":27707:27725  timeUnit == SECOND */\n      0xff\n      and\n        /* \"contracts/lib/eai/EAI.sol\":27707:27715  timeUnit */\n      dup3\n        /* \"contracts/lib/eai/EAI.sol\":27707:27725  timeUnit == SECOND */\n      0xff\n      and\n      sub\n        /* \"contracts/lib/eai/EAI.sol\":27704:28010  if(timeUnit == SECOND){... */\n      tag_299\n      jumpi\n        /* \"contracts/lib/eai/EAI.sol\":27748:27749  1 */\n      0x01\n        /* \"contracts/lib/eai/EAI.sol\":27741:27749  return 1 */\n      swap1\n      pop\n      jump(tag_295)\n        /* \"contracts/lib/eai/EAI.sol\":27704:28010  if(timeUnit == SECOND){... */\n    tag_299:\n        /* \"contracts/lib/eai/EAI.sol\":786:787  1 */\n      0x01\n        /* \"contracts/lib/eai/EAI.sol\":27769:27787  timeUnit == MINUTE */\n      0xff\n      and\n        /* \"contracts/lib/eai/EAI.sol\":27769:27777  timeUnit */\n      dup3\n        /* \"contracts/lib/eai/EAI.sol\":27769:27787  timeUnit == MINUTE */\n      0xff\n      and\n      sub\n        /* \"contracts/lib/eai/EAI.sol\":27766:28010  if(timeUnit == MINUTE){... */\n      tag_301\n      jumpi\n        /* \"contracts/lib/eai/EAI.sol\":27810:27812  60 */\n      0x3c\n        /* \"contracts/lib/eai/EAI.sol\":27803:27812  return 60 */\n      swap1\n      pop\n      jump(tag_295)\n        /* \"contracts/lib/eai/EAI.sol\":27766:28010  if(timeUnit == MINUTE){... */\n    tag_301:\n        /* \"contracts/lib/eai/EAI.sol\":815:816  2 */\n      0x02\n        /* \"contracts/lib/eai/EAI.sol\":27832:27848  timeUnit == HOUR */\n      0xff\n      and\n        /* \"contracts/lib/eai/EAI.sol\":27832:27840  timeUnit */\n      dup3\n        /* \"contracts/lib/eai/EAI.sol\":27832:27848  timeUnit == HOUR */\n      0xff\n      and\n      sub\n        /* \"contracts/lib/eai/EAI.sol\":27829:28010  if(timeUnit == HOUR ){... */\n      tag_303\n      jumpi\n        /* \"contracts/lib/eai/EAI.sol\":27872:27877  60*60 */\n      0x0e10\n        /* \"contracts/lib/eai/EAI.sol\":27865:27877  return 60*60 */\n      swap1\n      pop\n      jump(tag_295)\n        /* \"contracts/lib/eai/EAI.sol\":27829:28010  if(timeUnit == HOUR ){... */\n    tag_303:\n        /* \"contracts/lib/eai/EAI.sol\":843:844  3 */\n      0x03\n        /* \"contracts/lib/eai/EAI.sol\":27897:27912  timeUnit == DAY */\n      0xff\n      and\n        /* \"contracts/lib/eai/EAI.sol\":27897:27905  timeUnit */\n      dup3\n        /* \"contracts/lib/eai/EAI.sol\":27897:27912  timeUnit == DAY */\n      0xff\n      and\n      sub\n        /* \"contracts/lib/eai/EAI.sol\":27894:28010  if(timeUnit == DAY){... */\n      tag_305\n      jumpi\n        /* \"contracts/lib/eai/EAI.sol\":27935:27943  60*60*24 */\n      0x015180\n        /* \"contracts/lib/eai/EAI.sol\":27928:27943  return 60*60*24 */\n      swap1\n      pop\n      jump(tag_295)\n        /* \"contracts/lib/eai/EAI.sol\":27894:28010  if(timeUnit == DAY){... */\n    tag_305:\n        /* \"contracts/lib/eai/EAI.sol\":27981:27991  60*60*24*7 */\n      0x093a80\n        /* \"contracts/lib/eai/EAI.sol\":27974:27991  return 60*60*24*7 */\n      swap1\n      pop\n        /* \"contracts/lib/eai/EAI.sol\":27468:28017  function getTimeInSeconds(uint8 timeUnit) private pure returns(uint32){... */\n    tag_295:\n      swap2\n      swap1\n      pop\n      jump\t// out\n        /* \"contracts/lib/eai/EAI.sol\":25592:26280  function isAccessDatetimeOutOfOldInterval(uint8 _timeUnit, uint32 _endTime, ... */\n    tag_243:\n        /* \"contracts/lib/eai/EAI.sol\":25734:25738  bool */\n      0x00\n        /* \"contracts/lib/eai/EAI.sol\":25761:25775  uint8 timeUnit */\n      dup1\n        /* \"contracts/lib/eai/EAI.sol\":25778:25787  _timeUnit */\n      dup5\n        /* \"contracts/lib/eai/EAI.sol\":25761:25787  uint8 timeUnit = _timeUnit */\n      swap1\n      pop\n        /* \"contracts/lib/eai/EAI.sol\":872:873  4 */\n      0x04\n        /* \"contracts/lib/eai/EAI.sol\":25801:25817  timeUnit <= WEEK */\n      0xff\n      and\n        /* \"contracts/lib/eai/EAI.sol\":25801:25809  timeUnit */\n      dup2\n        /* \"contracts/lib/eai/EAI.sol\":25801:25817  timeUnit <= WEEK */\n      0xff\n      and\n      gt\n        /* \"contracts/lib/eai/EAI.sol\":25798:26142  if(timeUnit <= WEEK){... */\n      tag_308\n      jumpi\n        /* \"contracts/lib/eai/EAI.sol\":25859:25867  _endTime */\n      dup4\n        /* \"contracts/lib/eai/EAI.sol\":25840:25867  _accessDateTime >= _endTime */\n      0xffffffff\n      and\n        /* \"contracts/lib/eai/EAI.sol\":25840:25855  _accessDateTime */\n      dup4\n        /* \"contracts/lib/eai/EAI.sol\":25840:25867  _accessDateTime >= _endTime */\n      0xffffffff\n      and\n      lt\n      iszero\n        /* \"contracts/lib/eai/EAI.sol\":25833:25867  return _accessDateTime >= _endTime */\n      swap2\n      pop\n      pop\n      jump(tag_307)\n        /* \"contracts/lib/eai/EAI.sol\":25798:26142  if(timeUnit <= WEEK){... */\n    tag_308:\n        /* \"contracts/lib/eai/EAI.sol\":902:903  5 */\n      0x05\n        /* \"contracts/lib/eai/EAI.sol\":25888:25905  timeUnit == MONTH */\n      0xff\n      and\n        /* \"contracts/lib/eai/EAI.sol\":25888:25896  timeUnit */\n      dup2\n        /* \"contracts/lib/eai/EAI.sol\":25888:25905  timeUnit == MONTH */\n      0xff\n      and\n      sub\n        /* \"contracts/lib/eai/EAI.sol\":25885:26142  if(timeUnit == MONTH) {            ... */\n      tag_310\n      jumpi\n        /* \"contracts/lib/eai/EAI.sol\":25936:25948  uint32 month */\n      0x00\n        /* \"contracts/lib/eai/EAI.sol\":25953:25985  timeStampToDate(_accessDateTime) */\n      tag_311\n        /* \"contracts/lib/eai/EAI.sol\":25969:25984  _accessDateTime */\n      dup5\n        /* \"contracts/lib/eai/EAI.sol\":25953:25985  timeStampToDate(_accessDateTime) */\n      0xffffffff\n      and\n        /* \"contracts/lib/eai/EAI.sol\":25953:25968  timeStampToDate */\n      tag_312\n        /* \"contracts/lib/eai/EAI.sol\":25953:25985  timeStampToDate(_accessDateTime) */\n      jump\t// in\n    tag_311:\n        /* \"contracts/lib/eai/EAI.sol\":25934:25985  (,uint32 month,) = timeStampToDate(_accessDateTime) */\n      pop\n      swap2\n      pop\n      pop\n        /* \"contracts/lib/eai/EAI.sol\":26020:26022  13 */\n      0x0d\n        /* \"contracts/lib/eai/EAI.sol\":26008:26016  _endTime */\n      dup6\n        /* \"contracts/lib/eai/EAI.sol\":26008:26022  _endTime == 13 */\n      0xffffffff\n      and\n      eq\n        /* \"contracts/lib/eai/EAI.sol\":26007:26037  (_endTime == 13) && (month==1) */\n      dup1\n      iszero\n      tag_313\n      jumpi\n      pop\n        /* \"contracts/lib/eai/EAI.sol\":26035:26036  1 */\n      0x01\n        /* \"contracts/lib/eai/EAI.sol\":26028:26033  month */\n      dup2\n        /* \"contracts/lib/eai/EAI.sol\":26028:26036  month==1 */\n      0xffffffff\n      and\n      eq\n        /* \"contracts/lib/eai/EAI.sol\":26007:26037  (_endTime == 13) && (month==1) */\n    tag_313:\n        /* \"contracts/lib/eai/EAI.sol\":26004:26084  if((_endTime == 13) && (month==1)){... */\n      iszero\n      tag_314\n      jumpi\n        /* \"contracts/lib/eai/EAI.sol\":26064:26068  true */\n      0x01\n        /* \"contracts/lib/eai/EAI.sol\":26057:26068  return true */\n      swap3\n      pop\n      pop\n      pop\n      jump(tag_307)\n        /* \"contracts/lib/eai/EAI.sol\":26004:26084  if((_endTime == 13) && (month==1)){... */\n    tag_314:\n        /* \"contracts/lib/eai/EAI.sol\":26122:26130  _endTime */\n      dup5\n        /* \"contracts/lib/eai/EAI.sol\":26113:26130  month >= _endTime */\n      0xffffffff\n      and\n        /* \"contracts/lib/eai/EAI.sol\":26113:26118  month */\n      dup2\n        /* \"contracts/lib/eai/EAI.sol\":26113:26130  month >= _endTime */\n      0xffffffff\n      and\n      lt\n      iszero\n        /* \"contracts/lib/eai/EAI.sol\":26106:26130  return month >= _endTime */\n      swap3\n      pop\n      pop\n      pop\n      jump(tag_307)\n        /* \"contracts/lib/eai/EAI.sol\":25885:26142  if(timeUnit == MONTH) {            ... */\n    tag_310:\n        /* \"contracts/lib/eai/EAI.sol\":26188:26199  uint32 year */\n      0x00\n        /* \"contracts/lib/eai/EAI.sol\":26206:26238  timeStampToDate(_accessDateTime) */\n      tag_315\n        /* \"contracts/lib/eai/EAI.sol\":26222:26237  _accessDateTime */\n      dup5\n        /* \"contracts/lib/eai/EAI.sol\":26206:26238  timeStampToDate(_accessDateTime) */\n      0xffffffff\n      and\n        /* \"contracts/lib/eai/EAI.sol\":26206:26221  timeStampToDate */\n      tag_312\n        /* \"contracts/lib/eai/EAI.sol\":26206:26238  timeStampToDate(_accessDateTime) */\n      jump\t// in\n    tag_315:\n        /* \"contracts/lib/eai/EAI.sol\":26187:26238  (uint32 year, ,) = timeStampToDate(_accessDateTime) */\n      pop\n      pop\n      swap1\n      pop\n        /* \"contracts/lib/eai/EAI.sol\":26264:26272  _endTime */\n      dup5\n        /* \"contracts/lib/eai/EAI.sol\":26256:26272  year >= _endTime */\n      0xffffffff\n      and\n        /* \"contracts/lib/eai/EAI.sol\":26256:26260  year */\n      dup2\n        /* \"contracts/lib/eai/EAI.sol\":26256:26272  year >= _endTime */\n      0xffffffff\n      and\n      lt\n      iszero\n        /* \"contracts/lib/eai/EAI.sol\":26249:26272  return year >= _endTime */\n      swap3\n      pop\n      pop\n      pop\n        /* \"contracts/lib/eai/EAI.sol\":25592:26280  function isAccessDatetimeOutOfOldInterval(uint8 _timeUnit, uint32 _endTime, ... */\n    tag_307:\n      swap4\n      swap3\n      pop\n      pop\n      pop\n      jump\t// out\n        /* \"contracts/lib/eai/EAI.sol\":12800:13408  function setNewEndTimeAndRestOfOperations(... */\n    tag_246:\n        /* \"contracts/lib/eai/EAI.sol\":13013:13040  _maxNumberOfOperationByTime */\n      dup2\n        /* \"contracts/lib/eai/EAI.sol\":13013:13047  _maxNumberOfOperationByTime.amount */\n      0x00\n      add\n      0x00\n      swap1\n      sload\n      swap1\n      0x0100\n      exp\n      swap1\n      div\n      0xffffffff\n      and\n        /* \"contracts/lib/eai/EAI.sol\":12978:13005  _maxNumberOfOperationByTime */\n      dup3\n        /* \"contracts/lib/eai/EAI.sol\":12978:13010  _maxNumberOfOperationByTime.rest */\n      0x00\n      add\n      0x09\n        /* \"contracts/lib/eai/EAI.sol\":12978:13047  _maxNumberOfOperationByTime.rest = _maxNumberOfOperationByTime.amount */\n      0x0100\n      exp\n      dup2\n      sload\n      dup2\n      0xffffffff\n      mul\n      not\n      and\n      swap1\n      dup4\n      0xffffffff\n      and\n      mul\n      or\n      swap1\n      sstore\n      pop\n        /* \"contracts/lib/eai/EAI.sol\":13096:13400  calcNextEndTime(... */\n      tag_317\n        /* \"contracts/lib/eai/EAI.sol\":13162:13189  _maxNumberOfOperationByTime */\n      dup3\n        /* \"contracts/lib/eai/EAI.sol\":13162:13196  _maxNumberOfOperationByTime.byTime */\n      0x00\n      add\n      0x05\n      swap1\n      sload\n      swap1\n      0x0100\n      exp\n      swap1\n      div\n      0xffffffff\n      and\n        /* \"contracts/lib/eai/EAI.sol\":13247:13274  _maxNumberOfOperationByTime */\n      dup4\n        /* \"contracts/lib/eai/EAI.sol\":13247:13283  _maxNumberOfOperationByTime.timeUnit */\n      0x00\n      add\n      0x04\n      swap1\n      sload\n      swap1\n      0x0100\n      exp\n      swap1\n      div\n      0xff\n      and\n        /* \"contracts/lib/eai/EAI.sol\":13334:13349  _accessDateTime */\n      dup4\n        /* \"contracts/lib/eai/EAI.sol\":13096:13111  calcNextEndTime */\n      tag_318\n        /* \"contracts/lib/eai/EAI.sol\":13096:13400  calcNextEndTime(... */\n      jump\t// in\n    tag_317:\n        /* \"contracts/lib/eai/EAI.sol\":13058:13085  _maxNumberOfOperationByTime */\n      dup3\n        /* \"contracts/lib/eai/EAI.sol\":13058:13093  _maxNumberOfOperationByTime.endTime */\n      0x00\n      add\n      0x0d\n        /* \"contracts/lib/eai/EAI.sol\":13058:13400  _maxNumberOfOperationByTime.endTime = calcNextEndTime(... */\n      0x0100\n      exp\n      dup2\n      sload\n      dup2\n      0xffffffff\n      mul\n      not\n      and\n      swap1\n      dup4\n      0xffffffff\n      and\n      mul\n      or\n      swap1\n      sstore\n      pop\n        /* \"contracts/lib/eai/EAI.sol\":12800:13408  function setNewEndTimeAndRestOfOperations(... */\n      pop\n      pop\n      jump\t// out\n        /* \"contracts/lib/eai/EAI.sol\":31526:32071  function uint2String(uint256 value) internal pure returns (string memory) {... */\n    tag_278:\n        /* \"contracts/lib/eai/EAI.sol\":31585:31598  string memory */\n      0x60\n        /* \"contracts/lib/eai/EAI.sol\":31634:31635  0 */\n      0x00\n        /* \"contracts/lib/eai/EAI.sol\":31625:31630  value */\n      dup3\n        /* \"contracts/lib/eai/EAI.sol\":31625:31635  value == 0 */\n      sub\n        /* \"contracts/lib/eai/EAI.sol\":31621:31674  if (value == 0) {... */\n      tag_320\n      jumpi\n        /* \"contracts/lib/eai/EAI.sol\":31652:31662  return \"0\" */\n      mload(0x40)\n      dup1\n      0x40\n      add\n      0x40\n      mstore\n      dup1\n      0x01\n      dup2\n      mstore\n      0x20\n      add\n      0x3000000000000000000000000000000000000000000000000000000000000000\n      dup2\n      mstore\n      pop\n      swap1\n      pop\n      jump(tag_319)\n        /* \"contracts/lib/eai/EAI.sol\":31621:31674  if (value == 0) {... */\n    tag_320:\n        /* \"contracts/lib/eai/EAI.sol\":31684:31696  uint256 temp */\n      0x00\n        /* \"contracts/lib/eai/EAI.sol\":31699:31704  value */\n      dup3\n        /* \"contracts/lib/eai/EAI.sol\":31684:31704  uint256 temp = value */\n      swap1\n      pop\n        /* \"contracts/lib/eai/EAI.sol\":31715:31729  uint256 digits */\n      0x00\n        /* \"contracts/lib/eai/EAI.sol\":31740:31818  while (temp != 0) {... */\n    tag_321:\n        /* \"contracts/lib/eai/EAI.sol\":31755:31756  0 */\n      0x00\n        /* \"contracts/lib/eai/EAI.sol\":31747:31751  temp */\n      dup3\n        /* \"contracts/lib/eai/EAI.sol\":31747:31756  temp != 0 */\n      eq\n        /* \"contracts/lib/eai/EAI.sol\":31740:31818  while (temp != 0) {... */\n      tag_322\n      jumpi\n        /* \"contracts/lib/eai/EAI.sol\":31773:31781  digits++ */\n      dup1\n      dup1\n      tag_323\n      swap1\n      tag_324\n      jump\t// in\n    tag_323:\n      swap2\n      pop\n      pop\n        /* \"contracts/lib/eai/EAI.sol\":31804:31806  10 */\n      0x0a\n        /* \"contracts/lib/eai/EAI.sol\":31796:31806  temp /= 10 */\n      dup3\n      tag_325\n      swap2\n      swap1\n      tag_326\n      jump\t// in\n    tag_325:\n      swap2\n      pop\n        /* \"contracts/lib/eai/EAI.sol\":31740:31818  while (temp != 0) {... */\n      jump(tag_321)\n    tag_322:\n        /* \"contracts/lib/eai/EAI.sol\":31828:31847  bytes memory buffer */\n      0x00\n        /* \"contracts/lib/eai/EAI.sol\":31860:31866  digits */\n      dup2\n        /* \"contracts/lib/eai/EAI.sol\":31850:31867  new bytes(digits) */\n      0xffffffffffffffff\n      dup2\n      gt\n      iszero\n      tag_327\n      jumpi\n      tag_328\n      tag_329\n      jump\t// in\n    tag_328:\n    tag_327:\n      mload(0x40)\n      swap1\n      dup1\n      dup3\n      mstore\n      dup1\n      0x1f\n      add\n      not(0x1f)\n      and\n      0x20\n      add\n      dup3\n      add\n      0x40\n      mstore\n      dup1\n      iszero\n      tag_330\n      jumpi\n      dup2\n      0x20\n      add\n      0x01\n      dup3\n      mul\n      dup1\n      calldatasize\n      dup4\n      calldatacopy\n      dup1\n      dup3\n      add\n      swap2\n      pop\n      pop\n      swap1\n      pop\n    tag_330:\n      pop\n        /* \"contracts/lib/eai/EAI.sol\":31828:31867  bytes memory buffer = new bytes(digits) */\n      swap1\n      pop\n        /* \"contracts/lib/eai/EAI.sol\":31878:32032  while (value != 0) {... */\n    tag_331:\n        /* \"contracts/lib/eai/EAI.sol\":31894:31895  0 */\n      0x00\n        /* \"contracts/lib/eai/EAI.sol\":31885:31890  value */\n      dup6\n        /* \"contracts/lib/eai/EAI.sol\":31885:31895  value != 0 */\n      eq\n        /* \"contracts/lib/eai/EAI.sol\":31878:32032  while (value != 0) {... */\n      tag_332\n      jumpi\n        /* \"contracts/lib/eai/EAI.sol\":31922:31923  1 */\n      0x01\n        /* \"contracts/lib/eai/EAI.sol\":31912:31923  digits -= 1 */\n      dup3\n      tag_333\n      swap2\n      swap1\n      tag_334\n      jump\t// in\n    tag_333:\n      swap2\n      pop\n        /* \"contracts/lib/eai/EAI.sol\":31989:31991  10 */\n      0x0a\n        /* \"contracts/lib/eai/EAI.sol\":31981:31986  value */\n      dup6\n        /* \"contracts/lib/eai/EAI.sol\":31981:31991  value % 10 */\n      tag_335\n      swap2\n      swap1\n      tag_336\n      jump\t// in\n    tag_335:\n        /* \"contracts/lib/eai/EAI.sol\":31968:31970  48 */\n      0x30\n        /* \"contracts/lib/eai/EAI.sol\":31968:31992  48 + uint256(value % 10) */\n      tag_337\n      swap2\n      swap1\n      tag_338\n      jump\t// in\n    tag_337:\n        /* \"contracts/lib/eai/EAI.sol\":31955:31994  bytes1(uint8(48 + uint256(value % 10))) */\n      0xf8\n      shl\n        /* \"contracts/lib/eai/EAI.sol\":31938:31944  buffer */\n      dup2\n        /* \"contracts/lib/eai/EAI.sol\":31945:31951  digits */\n      dup4\n        /* \"contracts/lib/eai/EAI.sol\":31938:31952  buffer[digits] */\n      dup2\n      mload\n      dup2\n      lt\n      tag_339\n      jumpi\n      tag_340\n      tag_57\n      jump\t// in\n    tag_340:\n    tag_339:\n      0x20\n      add\n      add\n        /* \"contracts/lib/eai/EAI.sol\":31938:31994  buffer[digits] = bytes1(uint8(48 + uint256(value % 10))) */\n      swap1\n      not(0xffffffffffffffffffffffffffffffffffffffffffffffffffffffffffffff)\n      and\n      swap1\n      dup2\n      0x00\n      byte\n      swap1\n      mstore8\n      pop\n        /* \"contracts/lib/eai/EAI.sol\":32018:32020  10 */\n      0x0a\n        /* \"contracts/lib/eai/EAI.sol\":32009:32020  value /= 10 */\n      dup6\n      tag_341\n      swap2\n      swap1\n      tag_326\n      jump\t// in\n    tag_341:\n      swap5\n      pop\n        /* \"contracts/lib/eai/EAI.sol\":31878:32032  while (value != 0) {... */\n      jump(tag_331)\n    tag_332:\n        /* \"contracts/lib/eai/EAI.sol\":32056:32062  buffer */\n      dup1\n        /* \"contracts/lib/eai/EAI.sol\":32042:32063  return string(buffer) */\n      swap4\n      pop\n      pop\n      pop\n      pop\n        /* \"contracts/lib/eai/EAI.sol\":31526:32071  function uint2String(uint256 value) internal pure returns (string memory) {... */\n    tag_319:\n      swap2\n      swap1\n      pop\n      jump\t// out\n        /* \"contracts/lib/eai/EAI.sol\":28253:28949  function timeStampToDate(uint _timestamp) internal pure returns (uint32 year, uint32 month, uint32 day) {... */\n    tag_312:\n        /* \"contracts/lib/eai/EAI.sol\":28318:28329  uint32 year */\n      0x00\n        /* \"contracts/lib/eai/EAI.sol\":28331:28343  uint32 month */\n      dup1\n        /* \"contracts/lib/eai/EAI.sol\":28345:28355  uint32 day */\n      0x00\n        /* \"contracts/lib/eai/EAI.sol\":28377:28390  uint32 __days */\n      dup1\n        /* \"contracts/lib/eai/EAI.sol\":1161:1169  24*60*60 */\n      0x015180\n        /* \"contracts/lib/eai/EAI.sol\":28400:28428  _timestamp / SECONDS_PER_DAY */\n      0xffffffff\n      and\n        /* \"contracts/lib/eai/EAI.sol\":28400:28410  _timestamp */\n      dup6\n        /* \"contracts/lib/eai/EAI.sol\":28400:28428  _timestamp / SECONDS_PER_DAY */\n      tag_343\n      swap2\n      swap1\n      tag_326\n      jump\t// in\n    tag_343:\n        /* \"contracts/lib/eai/EAI.sol\":28377:28429  uint32 __days = uint32(_timestamp / SECONDS_PER_DAY) */\n      swap1\n      pop\n        /* \"contracts/lib/eai/EAI.sol\":28442:28450  uint32 L */\n      0x00\n        /* \"contracts/lib/eai/EAI.sol\":1209:1216  2440588 */\n      0x253d8c\n        /* \"contracts/lib/eai/EAI.sol\":28462:28467  68569 */\n      0x010bd9\n        /* \"contracts/lib/eai/EAI.sol\":28453:28459  __days */\n      dup4\n        /* \"contracts/lib/eai/EAI.sol\":28453:28467  __days + 68569 */\n      tag_344\n      swap2\n      swap1\n      tag_282\n      jump\t// in\n    tag_344:\n        /* \"contracts/lib/eai/EAI.sol\":28453:28484  __days + 68569 + OFFSET19700101 */\n      tag_345\n      swap2\n      swap1\n      tag_282\n      jump\t// in\n    tag_345:\n        /* \"contracts/lib/eai/EAI.sol\":28442:28484  uint32 L = __days + 68569 + OFFSET19700101 */\n      swap1\n      pop\n        /* \"contracts/lib/eai/EAI.sol\":28495:28503  uint32 N */\n      0x00\n        /* \"contracts/lib/eai/EAI.sol\":28514:28520  146097 */\n      0x023ab1\n        /* \"contracts/lib/eai/EAI.sol\":28510:28511  L */\n      dup3\n        /* \"contracts/lib/eai/EAI.sol\":28506:28507  4 */\n      0x04\n        /* \"contracts/lib/eai/EAI.sol\":28506:28511  4 * L */\n      tag_346\n      swap2\n      swap1\n      tag_347\n      jump\t// in\n    tag_346:\n        /* \"contracts/lib/eai/EAI.sol\":28506:28520  4 * L / 146097 */\n      tag_348\n      swap2\n      swap1\n      tag_349\n      jump\t// in\n    tag_348:\n        /* \"contracts/lib/eai/EAI.sol\":28495:28520  uint32 N = 4 * L / 146097 */\n      swap1\n      pop\n        /* \"contracts/lib/eai/EAI.sol\":28558:28559  4 */\n      0x04\n        /* \"contracts/lib/eai/EAI.sol\":28553:28554  3 */\n      0x03\n        /* \"contracts/lib/eai/EAI.sol\":28549:28550  N */\n      dup3\n        /* \"contracts/lib/eai/EAI.sol\":28540:28546  146097 */\n      0x023ab1\n        /* \"contracts/lib/eai/EAI.sol\":28540:28550  146097 * N */\n      tag_350\n      swap2\n      swap1\n      tag_347\n      jump\t// in\n    tag_350:\n        /* \"contracts/lib/eai/EAI.sol\":28540:28554  146097 * N + 3 */\n      tag_351\n      swap2\n      swap1\n      tag_282\n      jump\t// in\n    tag_351:\n        /* \"contracts/lib/eai/EAI.sol\":28539:28559  (146097 * N + 3) / 4 */\n      tag_352\n      swap2\n      swap1\n      tag_349\n      jump\t// in\n    tag_352:\n        /* \"contracts/lib/eai/EAI.sol\":28535:28536  L */\n      dup3\n        /* \"contracts/lib/eai/EAI.sol\":28535:28559  L - (146097 * N + 3) / 4 */\n      tag_353\n      swap2\n      swap1\n      tag_275\n      jump\t// in\n    tag_353:\n        /* \"contracts/lib/eai/EAI.sol\":28531:28559  L = L - (146097 * N + 3) / 4 */\n      swap2\n      pop\n        /* \"contracts/lib/eai/EAI.sol\":28570:28582  uint32 _year */\n      0x00\n        /* \"contracts/lib/eai/EAI.sol\":28602:28609  1461001 */\n      0x164b09\n        /* \"contracts/lib/eai/EAI.sol\":28597:28598  1 */\n      0x01\n        /* \"contracts/lib/eai/EAI.sol\":28593:28594  L */\n      dup5\n        /* \"contracts/lib/eai/EAI.sol\":28593:28598  L + 1 */\n      tag_354\n      swap2\n      swap1\n      tag_282\n      jump\t// in\n    tag_354:\n        /* \"contracts/lib/eai/EAI.sol\":28585:28589  4000 */\n      0x0fa0\n        /* \"contracts/lib/eai/EAI.sol\":28585:28599  4000 * (L + 1) */\n      tag_355\n      swap2\n      swap1\n      tag_347\n      jump\t// in\n    tag_355:\n        /* \"contracts/lib/eai/EAI.sol\":28585:28609  4000 * (L + 1) / 1461001 */\n      tag_356\n      swap2\n      swap1\n      tag_349\n      jump\t// in\n    tag_356:\n        /* \"contracts/lib/eai/EAI.sol\":28570:28609  uint32 _year = 4000 * (L + 1) / 1461001 */\n      swap1\n      pop\n        /* \"contracts/lib/eai/EAI.sol\":28647:28649  31 */\n      0x1f\n        /* \"contracts/lib/eai/EAI.sol\":28643:28644  4 */\n      0x04\n        /* \"contracts/lib/eai/EAI.sol\":28635:28640  _year */\n      dup3\n        /* \"contracts/lib/eai/EAI.sol\":28628:28632  1461 */\n      0x05b5\n        /* \"contracts/lib/eai/EAI.sol\":28628:28640  1461 * _year */\n      tag_357\n      swap2\n      swap1\n      tag_347\n      jump\t// in\n    tag_357:\n        /* \"contracts/lib/eai/EAI.sol\":28628:28644  1461 * _year / 4 */\n      tag_358\n      swap2\n      swap1\n      tag_349\n      jump\t// in\n    tag_358:\n        /* \"contracts/lib/eai/EAI.sol\":28624:28625  L */\n      dup5\n        /* \"contracts/lib/eai/EAI.sol\":28624:28644  L - 1461 * _year / 4 */\n      tag_359\n      swap2\n      swap1\n      tag_275\n      jump\t// in\n    tag_359:\n        /* \"contracts/lib/eai/EAI.sol\":28624:28649  L - 1461 * _year / 4 + 31 */\n      tag_360\n      swap2\n      swap1\n      tag_282\n      jump\t// in\n    tag_360:\n        /* \"contracts/lib/eai/EAI.sol\":28620:28649  L = L - 1461 * _year / 4 + 31 */\n      swap3\n      pop\n        /* \"contracts/lib/eai/EAI.sol\":28660:28673  uint32 _month */\n      0x00\n        /* \"contracts/lib/eai/EAI.sol\":28685:28689  2447 */\n      0x098f\n        /* \"contracts/lib/eai/EAI.sol\":28681:28682  L */\n      dup5\n        /* \"contracts/lib/eai/EAI.sol\":28676:28678  80 */\n      0x50\n        /* \"contracts/lib/eai/EAI.sol\":28676:28682  80 * L */\n      tag_361\n      swap2\n      swap1\n      tag_347\n      jump\t// in\n    tag_361:\n        /* \"contracts/lib/eai/EAI.sol\":28676:28689  80 * L / 2447 */\n      tag_362\n      swap2\n      swap1\n      tag_349\n      jump\t// in\n    tag_362:\n        /* \"contracts/lib/eai/EAI.sol\":28660:28689  uint32 _month = 80 * L / 2447 */\n      swap1\n      pop\n        /* \"contracts/lib/eai/EAI.sol\":28700:28711  uint32 _day */\n      0x00\n        /* \"contracts/lib/eai/EAI.sol\":28734:28736  80 */\n      0x50\n        /* \"contracts/lib/eai/EAI.sol\":28725:28731  _month */\n      dup3\n        /* \"contracts/lib/eai/EAI.sol\":28718:28722  2447 */\n      0x098f\n        /* \"contracts/lib/eai/EAI.sol\":28718:28731  2447 * _month */\n      tag_363\n      swap2\n      swap1\n      tag_347\n      jump\t// in\n    tag_363:\n        /* \"contracts/lib/eai/EAI.sol\":28718:28736  2447 * _month / 80 */\n      tag_364\n      swap2\n      swap1\n      tag_349\n      jump\t// in\n    tag_364:\n        /* \"contracts/lib/eai/EAI.sol\":28714:28715  L */\n      dup6\n        /* \"contracts/lib/eai/EAI.sol\":28714:28736  L - 2447 * _month / 80 */\n      tag_365\n      swap2\n      swap1\n      tag_275\n      jump\t// in\n    tag_365:\n        /* \"contracts/lib/eai/EAI.sol\":28700:28736  uint32 _day = L - 2447 * _month / 80 */\n      swap1\n      pop\n        /* \"contracts/lib/eai/EAI.sol\":28760:28762  11 */\n      0x0b\n        /* \"contracts/lib/eai/EAI.sol\":28751:28757  _month */\n      dup3\n        /* \"contracts/lib/eai/EAI.sol\":28751:28762  _month / 11 */\n      tag_366\n      swap2\n      swap1\n      tag_349\n      jump\t// in\n    tag_366:\n        /* \"contracts/lib/eai/EAI.sol\":28747:28762  L = _month / 11 */\n      swap5\n      pop\n        /* \"contracts/lib/eai/EAI.sol\":28800:28801  L */\n      dup5\n        /* \"contracts/lib/eai/EAI.sol\":28795:28797  12 */\n      0x0c\n        /* \"contracts/lib/eai/EAI.sol\":28795:28801  12 * L */\n      tag_367\n      swap2\n      swap1\n      tag_347\n      jump\t// in\n    tag_367:\n        /* \"contracts/lib/eai/EAI.sol\":28791:28792  2 */\n      0x02\n        /* \"contracts/lib/eai/EAI.sol\":28782:28788  _month */\n      dup4\n        /* \"contracts/lib/eai/EAI.sol\":28782:28792  _month + 2 */\n      tag_368\n      swap2\n      swap1\n      tag_282\n      jump\t// in\n    tag_368:\n        /* \"contracts/lib/eai/EAI.sol\":28782:28801  _month + 2 - 12 * L */\n      tag_369\n      swap2\n      swap1\n      tag_275\n      jump\t// in\n    tag_369:\n        /* \"contracts/lib/eai/EAI.sol\":28773:28801  _month = _month + 2 - 12 * L */\n      swap2\n      pop\n        /* \"contracts/lib/eai/EAI.sol\":28845:28846  L */\n      dup5\n        /* \"contracts/lib/eai/EAI.sol\":28837:28842  _year */\n      dup4\n        /* \"contracts/lib/eai/EAI.sol\":28831:28833  49 */\n      0x31\n        /* \"contracts/lib/eai/EAI.sol\":28827:28828  N */\n      dup7\n        /* \"contracts/lib/eai/EAI.sol\":28827:28833  N - 49 */\n      tag_370\n      swap2\n      swap1\n      tag_275\n      jump\t// in\n    tag_370:\n        /* \"contracts/lib/eai/EAI.sol\":28820:28823  100 */\n      0x64\n        /* \"contracts/lib/eai/EAI.sol\":28820:28834  100 * (N - 49) */\n      tag_371\n      swap2\n      swap1\n      tag_347\n      jump\t// in\n    tag_371:\n        /* \"contracts/lib/eai/EAI.sol\":28820:28842  100 * (N - 49) + _year */\n      tag_372\n      swap2\n      swap1\n      tag_282\n      jump\t// in\n    tag_372:\n        /* \"contracts/lib/eai/EAI.sol\":28820:28846  100 * (N - 49) + _year + L */\n      tag_373\n      swap2\n      swap1\n      tag_282\n      jump\t// in\n    tag_373:\n        /* \"contracts/lib/eai/EAI.sol\":28812:28846  _year = 100 * (N - 49) + _year + L */\n      swap3\n      pop\n        /* \"contracts/lib/eai/EAI.sol\":28873:28878  _year */\n      dup3\n        /* \"contracts/lib/eai/EAI.sol\":28859:28879  year = uint32(_year) */\n      swap9\n      pop\n        /* \"contracts/lib/eai/EAI.sol\":28905:28911  _month */\n      dup2\n        /* \"contracts/lib/eai/EAI.sol\":28890:28912  month = uint32(_month) */\n      swap8\n      pop\n        /* \"contracts/lib/eai/EAI.sol\":28936:28940  _day */\n      dup1\n        /* \"contracts/lib/eai/EAI.sol\":28923:28941  day = uint32(_day) */\n      swap7\n      pop\n        /* \"contracts/lib/eai/EAI.sol\":28357:28949  {... */\n      pop\n      pop\n      pop\n      pop\n      pop\n      pop\n        /* \"contracts/lib/eai/EAI.sol\":28253:28949  function timeStampToDate(uint _timestamp) internal pure returns (uint32 year, uint32 month, uint32 day) {... */\n      swap2\n      swap4\n      swap1\n      swap3\n      pop\n      jump\t// out\n        /* \"contracts/lib/eai/EAI.sol\":26288:26945  function calcNextEndTime(       ... */\n    tag_318:\n        /* \"contracts/lib/eai/EAI.sol\":26442:26448  uint32 */\n      0x00\n        /* \"contracts/lib/eai/EAI.sol\":872:873  4 */\n      0x04\n        /* \"contracts/lib/eai/EAI.sol\":26474:26491  _timeUnit <= WEEK */\n      0xff\n      and\n        /* \"contracts/lib/eai/EAI.sol\":26474:26483  _timeUnit */\n      dup4\n        /* \"contracts/lib/eai/EAI.sol\":26474:26491  _timeUnit <= WEEK */\n      0xff\n      and\n      gt\n        /* \"contracts/lib/eai/EAI.sol\":26470:26938  if (_timeUnit <= WEEK) {... */\n      tag_375\n      jumpi\n        /* \"contracts/lib/eai/EAI.sol\":26515:26647  calcNextEndTimeForSecMinHrDayOrWeek(... */\n      tag_376\n        /* \"contracts/lib/eai/EAI.sol\":26569:26578  _timeUnit */\n      dup4\n        /* \"contracts/lib/eai/EAI.sol\":26598:26613  _accessDateTime */\n      dup4\n        /* \"contracts/lib/eai/EAI.sol\":26633:26646  _timeInterval */\n      dup7\n        /* \"contracts/lib/eai/EAI.sol\":26515:26550  calcNextEndTimeForSecMinHrDayOrWeek */\n      tag_377\n        /* \"contracts/lib/eai/EAI.sol\":26515:26647  calcNextEndTimeForSecMinHrDayOrWeek(... */\n      jump\t// in\n    tag_376:\n        /* \"contracts/lib/eai/EAI.sol\":26508:26647  return calcNextEndTimeForSecMinHrDayOrWeek(... */\n      swap1\n      pop\n      jump(tag_374)\n        /* \"contracts/lib/eai/EAI.sol\":26470:26938  if (_timeUnit <= WEEK) {... */\n    tag_375:\n        /* \"contracts/lib/eai/EAI.sol\":902:903  5 */\n      0x05\n        /* \"contracts/lib/eai/EAI.sol\":26667:26685  _timeUnit == MONTH */\n      0xff\n      and\n        /* \"contracts/lib/eai/EAI.sol\":26667:26676  _timeUnit */\n      dup4\n        /* \"contracts/lib/eai/EAI.sol\":26667:26685  _timeUnit == MONTH */\n      0xff\n      and\n      sub\n        /* \"contracts/lib/eai/EAI.sol\":26664:26938  if(_timeUnit == MONTH){... */\n      tag_379\n      jumpi\n        /* \"contracts/lib/eai/EAI.sol\":26703:26720  uint currentMonth */\n      0x00\n        /* \"contracts/lib/eai/EAI.sol\":26725:26757  timeStampToDate(_accessDateTime) */\n      tag_380\n        /* \"contracts/lib/eai/EAI.sol\":26741:26756  _accessDateTime */\n      dup4\n        /* \"contracts/lib/eai/EAI.sol\":26725:26757  timeStampToDate(_accessDateTime) */\n      0xffffffff\n      and\n        /* \"contracts/lib/eai/EAI.sol\":26725:26740  timeStampToDate */\n      tag_312\n        /* \"contracts/lib/eai/EAI.sol\":26725:26757  timeStampToDate(_accessDateTime) */\n      jump\t// in\n    tag_380:\n        /* \"contracts/lib/eai/EAI.sol\":26701:26757  (,uint currentMonth,) = timeStampToDate(_accessDateTime) */\n      pop\n      0xffffffff\n      and\n      swap2\n      pop\n      pop\n        /* \"contracts/lib/eai/EAI.sol\":26801:26802  1 */\n      0x01\n        /* \"contracts/lib/eai/EAI.sol\":26788:26800  currentMonth */\n      dup2\n        /* \"contracts/lib/eai/EAI.sol\":26788:26802  currentMonth+1 */\n      tag_381\n      swap2\n      swap1\n      tag_338\n      jump\t// in\n    tag_381:\n        /* \"contracts/lib/eai/EAI.sol\":26774:26803  return uint32(currentMonth+1) */\n      swap2\n      pop\n      pop\n      jump(tag_374)\n        /* \"contracts/lib/eai/EAI.sol\":26664:26938  if(_timeUnit == MONTH){... */\n    tag_379:\n        /* \"contracts/lib/eai/EAI.sol\":26841:26850  uint year */\n      0x00\n        /* \"contracts/lib/eai/EAI.sol\":26856:26888  timeStampToDate(_accessDateTime) */\n      tag_383\n        /* \"contracts/lib/eai/EAI.sol\":26872:26887  _accessDateTime */\n      dup4\n        /* \"contracts/lib/eai/EAI.sol\":26856:26888  timeStampToDate(_accessDateTime) */\n      0xffffffff\n      and\n        /* \"contracts/lib/eai/EAI.sol\":26856:26871  timeStampToDate */\n      tag_312\n        /* \"contracts/lib/eai/EAI.sol\":26856:26888  timeStampToDate(_accessDateTime) */\n      jump\t// in\n    tag_383:\n        /* \"contracts/lib/eai/EAI.sol\":26840:26888  (uint year,,) = timeStampToDate(_accessDateTime) */\n      pop\n      pop\n      0xffffffff\n      and\n      swap1\n      pop\n        /* \"contracts/lib/eai/EAI.sol\":26924:26925  1 */\n      0x01\n        /* \"contracts/lib/eai/EAI.sol\":26917:26921  year */\n      dup2\n        /* \"contracts/lib/eai/EAI.sol\":26917:26925  year + 1 */\n      tag_384\n      swap2\n      swap1\n      tag_338\n      jump\t// in\n    tag_384:\n        /* \"contracts/lib/eai/EAI.sol\":26903:26926  return uint32(year + 1) */\n      swap2\n      pop\n      pop\n        /* \"contracts/lib/eai/EAI.sol\":26288:26945  function calcNextEndTime(       ... */\n    tag_374:\n      swap4\n      swap3\n      pop\n      pop\n      pop\n      jump\t// out\n        /* \"contracts/lib/eai/EAI.sol\":26957:27454  function calcNextEndTimeForSecMinHrDayOrWeek(... */\n    tag_377:\n        /* \"contracts/lib/eai/EAI.sol\":27125:27131  uint32 */\n      0x00\n        /* \"contracts/lib/eai/EAI.sol\":27145:27155  uint32 mod */\n      dup1\n        /* \"contracts/lib/eai/EAI.sol\":27184:27197  _timeInterval */\n      dup3\n        /* \"contracts/lib/eai/EAI.sol\":27166:27181  _accessDateTime */\n      dup5\n        /* \"contracts/lib/eai/EAI.sol\":27166:27197  _accessDateTime % _timeInterval */\n      tag_386\n      swap2\n      swap1\n      tag_387\n      jump\t// in\n    tag_386:\n        /* \"contracts/lib/eai/EAI.sol\":27145:27198  uint32 mod =  uint32(_accessDateTime % _timeInterval) */\n      swap1\n      pop\n        /* \"contracts/lib/eai/EAI.sol\":27209:27233  uint32 timeToNextEndTime */\n      0x00\n        /* \"contracts/lib/eai/EAI.sol\":27253:27256  mod */\n      dup2\n        /* \"contracts/lib/eai/EAI.sol\":27237:27250  _timeInterval */\n      dup5\n        /* \"contracts/lib/eai/EAI.sol\":27237:27256  _timeInterval - mod */\n      tag_388\n      swap2\n      swap1\n      tag_275\n      jump\t// in\n    tag_388:\n        /* \"contracts/lib/eai/EAI.sol\":27209:27256  uint32 timeToNextEndTime  = _timeInterval - mod */\n      swap1\n      pop\n        /* \"contracts/lib/eai/EAI.sol\":872:873  4 */\n      0x04\n        /* \"contracts/lib/eai/EAI.sol\":27292:27309  _timeUnit == WEEK */\n      0xff\n      and\n        /* \"contracts/lib/eai/EAI.sol\":27292:27301  _timeUnit */\n      dup7\n        /* \"contracts/lib/eai/EAI.sol\":27292:27309  _timeUnit == WEEK */\n      0xff\n      and\n      sub\n        /* \"contracts/lib/eai/EAI.sol\":27289:27392  if(_timeUnit == WEEK){... */\n      tag_389\n      jumpi\n        /* \"contracts/lib/eai/EAI.sol\":1309:1315  259200 */\n      0x03f480\n        /* \"contracts/lib/eai/EAI.sol\":27350:27367  timeToNextEndTime */\n      dup2\n        /* \"contracts/lib/eai/EAI.sol\":27332:27347  _accessDateTime */\n      dup7\n        /* \"contracts/lib/eai/EAI.sol\":27332:27367  _accessDateTime + timeToNextEndTime */\n      tag_390\n      swap2\n      swap1\n      tag_282\n      jump\t// in\n    tag_390:\n        /* \"contracts/lib/eai/EAI.sol\":27332:27380  _accessDateTime + timeToNextEndTime + OFFSETWEEK */\n      tag_391\n      swap2\n      swap1\n      tag_282\n      jump\t// in\n    tag_391:\n        /* \"contracts/lib/eai/EAI.sol\":27325:27380  return _accessDateTime + timeToNextEndTime + OFFSETWEEK */\n      swap3\n      pop\n      pop\n      pop\n      jump(tag_385)\n        /* \"contracts/lib/eai/EAI.sol\":27289:27392  if(_timeUnit == WEEK){... */\n    tag_389:\n        /* \"contracts/lib/eai/EAI.sol\":27429:27446  timeToNextEndTime */\n      dup1\n        /* \"contracts/lib/eai/EAI.sol\":27411:27426  _accessDateTime */\n      dup6\n        /* \"contracts/lib/eai/EAI.sol\":27411:27446  _accessDateTime + timeToNextEndTime */\n      tag_392\n      swap2\n      swap1\n      tag_282\n      jump\t// in\n    tag_392:\n        /* \"contracts/lib/eai/EAI.sol\":27404:27446  return _accessDateTime + timeToNextEndTime */\n      swap3\n      pop\n      pop\n      pop\n        /* \"contracts/lib/eai/EAI.sol\":26957:27454  function calcNextEndTimeForSecMinHrDayOrWeek(... */\n    tag_385:\n      swap4\n      swap3\n      pop\n      pop\n      pop\n      jump\t// out\n    tag_181:\n      pop\n      dup1\n      sload\n      tag_393\n      swap1\n      tag_68\n      jump\t// in\n    tag_393:\n      0x00\n      dup3\n      sstore\n      dup1\n      0x1f\n      lt\n      tag_395\n      jumpi\n      pop\n      jump(tag_394)\n    tag_395:\n      0x1f\n      add\n      0x20\n      swap1\n      div\n      swap1\n      0x00\n      mstore\n      keccak256(0x00, 0x20)\n      swap1\n      dup2\n      add\n      swap1\n      tag_396\n      swap2\n      swap1\n      tag_397\n      jump\t// in\n    tag_396:\n    tag_394:\n      pop\n      jump\t// out\n    tag_184:\n      dup3\n      dup1\n      sload\n      tag_398\n      swap1\n      tag_68\n      jump\t// in\n    tag_398:\n      swap1\n      0x00\n      mstore\n      keccak256(0x00, 0x20)\n      swap1\n      0x1f\n      add\n      0x20\n      swap1\n      div\n      dup2\n      add\n      swap3\n      dup3\n      tag_400\n      jumpi\n      0x00\n      dup6\n      sstore\n      jump(tag_399)\n    tag_400:\n      dup3\n      0x1f\n      lt\n      tag_401\n      jumpi\n      dup1\n      mload\n      not(0xff)\n      and\n      dup4\n      dup1\n      add\n      or\n      dup6\n      sstore\n      jump(tag_399)\n    tag_401:\n      dup3\n      dup1\n      add\n      0x01\n      add\n      dup6\n      sstore\n      dup3\n      iszero\n      tag_399\n      jumpi\n      swap2\n      dup3\n      add\n    tag_402:\n      dup3\n      dup2\n      gt\n      iszero\n      tag_403\n      jumpi\n      dup3\n      mload\n      dup3\n      sstore\n      swap2\n      0x20\n      add\n      swap2\n      swap1\n      0x01\n      add\n      swap1\n      jump(tag_402)\n    tag_403:\n    tag_399:\n      pop\n      swap1\n      pop\n      tag_404\n      swap2\n      swap1\n      tag_397\n      jump\t// in\n    tag_404:\n      pop\n      swap1\n      jump\t// out\n    tag_213:\n      mload(0x40)\n      dup1\n      0x60\n      add\n      0x40\n      mstore\n      dup1\n      0x60\n      dup2\n      mstore\n      0x20\n      add\n      and(0xffffffffffffffffffffffffffffffffffffffff, 0x00)\n      dup2\n      mstore\n      0x20\n      add\n      iszero(iszero(0x00))\n      dup2\n      mstore\n      pop\n      swap1\n      jump\t// out\n    tag_229:\n      mload(0x40)\n      dup1\n      0xa0\n      add\n      0x40\n      mstore\n      dup1\n      and(0xffffffff, 0x00)\n      dup2\n      mstore\n      0x20\n      add\n      and(0xff, 0x00)\n      dup2\n      mstore\n      0x20\n      add\n      and(0xffffffff, 0x00)\n      dup2\n      mstore\n      0x20\n      add\n      and(0xffffffff, 0x00)\n      dup2\n      mstore\n      0x20\n      add\n      and(0xffffffff, 0x00)\n      dup2\n      mstore\n      pop\n      swap1\n      jump\t// out\n    tag_236:\n      mload(0x40)\n      dup1\n      0x60\n      add\n      0x40\n      mstore\n      dup1\n      0x60\n      dup2\n      mstore\n      0x20\n      add\n      0x60\n      dup2\n      mstore\n      0x20\n      add\n      0x00\n      dup2\n      mstore\n      pop\n      swap1\n      jump\t// out\n    tag_239:\n      mload(0x40)\n      dup1\n      0x40\n      add\n      0x40\n      mstore\n      dup1\n      and(0xffffffff, 0x00)\n      dup2\n      mstore\n      0x20\n      add\n      and(0xffffffff, 0x00)\n      dup2\n      mstore\n      pop\n      swap1\n      jump\t// out\n    tag_294:\n      dup3\n      dup1\n      sload\n      tag_405\n      swap1\n      tag_68\n      jump\t// in\n    tag_405:\n      swap1\n      0x00\n      mstore\n      keccak256(0x00, 0x20)\n      swap1\n      0x1f\n      add\n      0x20\n      swap1\n      div\n      dup2\n      add\n      swap3\n      dup3\n      tag_407\n      jumpi\n      0x00\n      dup6\n      sstore\n      jump(tag_406)\n    tag_407:\n      dup3\n      0x1f\n      lt\n      tag_408\n      jumpi\n      dup1\n      sload\n      dup6\n      sstore\n      jump(tag_406)\n    tag_408:\n      dup3\n      dup1\n      add\n      0x01\n      add\n      dup6\n      sstore\n      dup3\n      iszero\n      tag_406\n      jumpi\n      0x00\n      mstore\n      keccak256(0x00, 0x20)\n      swap2\n      0x1f\n      add\n      0x20\n      swap1\n      div\n      dup3\n      add\n    tag_409:\n      dup3\n      dup2\n      gt\n      iszero\n      tag_410\n      jumpi\n      dup3\n      sload\n      dup3\n      sstore\n      swap2\n      0x01\n      add\n      swap2\n      swap1\n      0x01\n      add\n      swap1\n      jump(tag_409)\n    tag_410:\n    tag_406:\n      pop\n      swap1\n      pop\n      tag_411\n      swap2\n      swap1\n      tag_397\n      jump\t// in\n    tag_411:\n      pop\n      swap1\n      jump\t// out\n    tag_397:\n    tag_412:\n      dup1\n      dup3\n      gt\n      iszero\n      tag_413\n      jumpi\n      0x00\n      dup2\n      0x00\n      swap1\n      sstore\n      pop\n      0x01\n      add\n      jump(tag_412)\n    tag_413:\n      pop\n      swap1\n      jump\t// out\n        /* \"#utility.yul\":7:82   */\n    tag_414:\n        /* \"#utility.yul\":40:46   */\n      0x00\n        /* \"#utility.yul\":73:75   */\n      0x40\n        /* \"#utility.yul\":67:76   */\n      mload\n        /* \"#utility.yul\":57:76   */\n      swap1\n      pop\n        /* \"#utility.yul\":7:82   */\n      swap1\n      jump\t// out\n        /* \"#utility.yul\":88:205   */\n    tag_415:\n        /* \"#utility.yul\":197:198   */\n      0x00\n        /* \"#utility.yul\":194:195   */\n      dup1\n        /* \"#utility.yul\":187:199   */\n      revert\n        /* \"#utility.yul\":211:328   */\n    tag_416:\n        /* \"#utility.yul\":320:321   */\n      0x00\n        /* \"#utility.yul\":317:318   */\n      dup1\n        /* \"#utility.yul\":310:322   */\n      revert\n        /* \"#utility.yul\":334:427   */\n    tag_417:\n        /* \"#utility.yul\":370:377   */\n      0x00\n        /* \"#utility.yul\":410:420   */\n      0xffffffff\n        /* \"#utility.yul\":403:408   */\n      dup3\n        /* \"#utility.yul\":399:421   */\n      and\n        /* \"#utility.yul\":388:421   */\n      swap1\n      pop\n        /* \"#utility.yul\":334:427   */\n      swap2\n      swap1\n      pop\n      jump\t// out\n        /* \"#utility.yul\":433:553   */\n    tag_418:\n        /* \"#utility.yul\":505:528   */\n      tag_485\n        /* \"#utility.yul\":522:527   */\n      dup2\n        /* \"#utility.yul\":505:528   */\n      tag_417\n      jump\t// in\n    tag_485:\n        /* \"#utility.yul\":498:503   */\n      dup2\n        /* \"#utility.yul\":495:529   */\n      eq\n        /* \"#utility.yul\":485:547   */\n      tag_486\n      jumpi\n        /* \"#utility.yul\":543:544   */\n      0x00\n        /* \"#utility.yul\":540:541   */\n      dup1\n        /* \"#utility.yul\":533:545   */\n      revert\n        /* \"#utility.yul\":485:547   */\n    tag_486:\n        /* \"#utility.yul\":433:553   */\n      pop\n      jump\t// out\n        /* \"#utility.yul\":559:696   */\n    tag_419:\n        /* \"#utility.yul\":604:609   */\n      0x00\n        /* \"#utility.yul\":642:648   */\n      dup2\n        /* \"#utility.yul\":629:649   */\n      calldataload\n        /* \"#utility.yul\":620:649   */\n      swap1\n      pop\n        /* \"#utility.yul\":658:690   */\n      tag_488\n        /* \"#utility.yul\":684:689   */\n      dup2\n        /* \"#utility.yul\":658:690   */\n      tag_418\n      jump\t// in\n    tag_488:\n        /* \"#utility.yul\":559:696   */\n      swap3\n      swap2\n      pop\n      pop\n      jump\t// out\n        /* \"#utility.yul\":702:819   */\n    tag_420:\n        /* \"#utility.yul\":811:812   */\n      0x00\n        /* \"#utility.yul\":808:809   */\n      dup1\n        /* \"#utility.yul\":801:813   */\n      revert\n        /* \"#utility.yul\":825:927   */\n    tag_421:\n        /* \"#utility.yul\":866:872   */\n      0x00\n        /* \"#utility.yul\":917:919   */\n      0x1f\n        /* \"#utility.yul\":913:920   */\n      not\n        /* \"#utility.yul\":908:910   */\n      0x1f\n        /* \"#utility.yul\":901:906   */\n      dup4\n        /* \"#utility.yul\":897:911   */\n      add\n        /* \"#utility.yul\":893:921   */\n      and\n        /* \"#utility.yul\":883:921   */\n      swap1\n      pop\n        /* \"#utility.yul\":825:927   */\n      swap2\n      swap1\n      pop\n      jump\t// out\n        /* \"#utility.yul\":933:1113   */\n    tag_329:\n        /* \"#utility.yul\":981:1058   */\n      0x4e487b7100000000000000000000000000000000000000000000000000000000\n        /* \"#utility.yul\":978:979   */\n      0x00\n        /* \"#utility.yul\":971:1059   */\n      mstore\n        /* \"#utility.yul\":1078:1082   */\n      0x41\n        /* \"#utility.yul\":1075:1076   */\n      0x04\n        /* \"#utility.yul\":1068:1083   */\n      mstore\n        /* \"#utility.yul\":1102:1106   */\n      0x24\n        /* \"#utility.yul\":1099:1100   */\n      0x00\n        /* \"#utility.yul\":1092:1107   */\n      revert\n        /* \"#utility.yul\":1119:1400   */\n    tag_422:\n        /* \"#utility.yul\":1202:1229   */\n      tag_493\n        /* \"#utility.yul\":1224:1228   */\n      dup3\n        /* \"#utility.yul\":1202:1229   */\n      tag_421\n      jump\t// in\n    tag_493:\n        /* \"#utility.yul\":1194:1200   */\n      dup2\n        /* \"#utility.yul\":1190:1230   */\n      add\n        /* \"#utility.yul\":1332:1338   */\n      dup2\n        /* \"#utility.yul\":1320:1330   */\n      dup2\n        /* \"#utility.yul\":1317:1339   */\n      lt\n        /* \"#utility.yul\":1296:1314   */\n      0xffffffffffffffff\n        /* \"#utility.yul\":1284:1294   */\n      dup3\n        /* \"#utility.yul\":1281:1315   */\n      gt\n        /* \"#utility.yul\":1278:1340   */\n      or\n        /* \"#utility.yul\":1275:1363   */\n      iszero\n      tag_494\n      jumpi\n        /* \"#utility.yul\":1343:1361   */\n      tag_495\n      tag_329\n      jump\t// in\n    tag_495:\n        /* \"#utility.yul\":1275:1363   */\n    tag_494:\n        /* \"#utility.yul\":1383:1393   */\n      dup1\n        /* \"#utility.yul\":1379:1381   */\n      0x40\n        /* \"#utility.yul\":1372:1394   */\n      mstore\n        /* \"#utility.yul\":1162:1400   */\n      pop\n        /* \"#utility.yul\":1119:1400   */\n      pop\n      pop\n      jump\t// out\n        /* \"#utility.yul\":1406:1535   */\n    tag_423:\n        /* \"#utility.yul\":1440:1446   */\n      0x00\n        /* \"#utility.yul\":1467:1487   */\n      tag_497\n      tag_414\n      jump\t// in\n    tag_497:\n        /* \"#utility.yul\":1457:1487   */\n      swap1\n      pop\n        /* \"#utility.yul\":1496:1529   */\n      tag_498\n        /* \"#utility.yul\":1524:1528   */\n      dup3\n        /* \"#utility.yul\":1516:1522   */\n      dup3\n        /* \"#utility.yul\":1496:1529   */\n      tag_422\n      jump\t// in\n    tag_498:\n        /* \"#utility.yul\":1406:1535   */\n      swap2\n      swap1\n      pop\n      jump\t// out\n        /* \"#utility.yul\":1541:1851   */\n    tag_424:\n        /* \"#utility.yul\":1617:1621   */\n      0x00\n        /* \"#utility.yul\":1707:1725   */\n      0xffffffffffffffff\n        /* \"#utility.yul\":1699:1705   */\n      dup3\n        /* \"#utility.yul\":1696:1726   */\n      gt\n        /* \"#utility.yul\":1693:1749   */\n      iszero\n      tag_500\n      jumpi\n        /* \"#utility.yul\":1729:1747   */\n      tag_501\n      tag_329\n      jump\t// in\n    tag_501:\n        /* \"#utility.yul\":1693:1749   */\n    tag_500:\n        /* \"#utility.yul\":1779:1783   */\n      0x20\n        /* \"#utility.yul\":1771:1777   */\n      dup3\n        /* \"#utility.yul\":1767:1784   */\n      mul\n        /* \"#utility.yul\":1759:1784   */\n      swap1\n      pop\n        /* \"#utility.yul\":1839:1843   */\n      0x20\n        /* \"#utility.yul\":1833:1837   */\n      dup2\n        /* \"#utility.yul\":1829:1844   */\n      add\n        /* \"#utility.yul\":1821:1844   */\n      swap1\n      pop\n        /* \"#utility.yul\":1541:1851   */\n      swap2\n      swap1\n      pop\n      jump\t// out\n        /* \"#utility.yul\":1857:1974   */\n    tag_425:\n        /* \"#utility.yul\":1966:1967   */\n      0x00\n        /* \"#utility.yul\":1963:1964   */\n      dup1\n        /* \"#utility.yul\":1956:1968   */\n      revert\n        /* \"#utility.yul\":1980:2056   */\n    tag_426:\n        /* \"#utility.yul\":2016:2023   */\n      0x00\n        /* \"#utility.yul\":2045:2050   */\n      dup2\n        /* \"#utility.yul\":2034:2050   */\n      swap1\n      pop\n        /* \"#utility.yul\":1980:2056   */\n      swap2\n      swap1\n      pop\n      jump\t// out\n        /* \"#utility.yul\":2062:2182   */\n    tag_427:\n        /* \"#utility.yul\":2134:2157   */\n      tag_505\n        /* \"#utility.yul\":2151:2156   */\n      dup2\n        /* \"#utility.yul\":2134:2157   */\n      tag_426\n      jump\t// in\n    tag_505:\n        /* \"#utility.yul\":2127:2132   */\n      dup2\n        /* \"#utility.yul\":2124:2158   */\n      eq\n        /* \"#utility.yul\":2114:2176   */\n      tag_506\n      jumpi\n        /* \"#utility.yul\":2172:2173   */\n      0x00\n        /* \"#utility.yul\":2169:2170   */\n      dup1\n        /* \"#utility.yul\":2162:2174   */\n      revert\n        /* \"#utility.yul\":2114:2176   */\n    tag_506:\n        /* \"#utility.yul\":2062:2182   */\n      pop\n      jump\t// out\n        /* \"#utility.yul\":2188:2325   */\n    tag_428:\n        /* \"#utility.yul\":2233:2238   */\n      0x00\n        /* \"#utility.yul\":2271:2277   */\n      dup2\n        /* \"#utility.yul\":2258:2278   */\n      calldataload\n        /* \"#utility.yul\":2249:2278   */\n      swap1\n      pop\n        /* \"#utility.yul\":2287:2319   */\n      tag_508\n        /* \"#utility.yul\":2313:2318   */\n      dup2\n        /* \"#utility.yul\":2287:2319   */\n      tag_427\n      jump\t// in\n    tag_508:\n        /* \"#utility.yul\":2188:2325   */\n      swap3\n      swap2\n      pop\n      pop\n      jump\t// out\n        /* \"#utility.yul\":2347:3054   */\n    tag_429:\n        /* \"#utility.yul\":2442:2447   */\n      0x00\n        /* \"#utility.yul\":2467:2547   */\n      tag_510\n        /* \"#utility.yul\":2483:2546   */\n      tag_511\n        /* \"#utility.yul\":2539:2545   */\n      dup5\n        /* \"#utility.yul\":2483:2546   */\n      tag_424\n      jump\t// in\n    tag_511:\n        /* \"#utility.yul\":2467:2547   */\n      tag_423\n      jump\t// in\n    tag_510:\n        /* \"#utility.yul\":2458:2547   */\n      swap1\n      pop\n        /* \"#utility.yul\":2567:2572   */\n      dup1\n        /* \"#utility.yul\":2596:2602   */\n      dup4\n        /* \"#utility.yul\":2589:2594   */\n      dup3\n        /* \"#utility.yul\":2582:2603   */\n      mstore\n        /* \"#utility.yul\":2630:2634   */\n      0x20\n        /* \"#utility.yul\":2623:2628   */\n      dup3\n        /* \"#utility.yul\":2619:2635   */\n      add\n        /* \"#utility.yul\":2612:2635   */\n      swap1\n      pop\n        /* \"#utility.yul\":2683:2687   */\n      0x20\n        /* \"#utility.yul\":2675:2681   */\n      dup5\n        /* \"#utility.yul\":2671:2688   */\n      mul\n        /* \"#utility.yul\":2663:2669   */\n      dup4\n        /* \"#utility.yul\":2659:2689   */\n      add\n        /* \"#utility.yul\":2712:2715   */\n      dup6\n        /* \"#utility.yul\":2704:2710   */\n      dup2\n        /* \"#utility.yul\":2701:2716   */\n      gt\n        /* \"#utility.yul\":2698:2820   */\n      iszero\n      tag_512\n      jumpi\n        /* \"#utility.yul\":2731:2810   */\n      tag_513\n      tag_425\n      jump\t// in\n    tag_513:\n        /* \"#utility.yul\":2698:2820   */\n    tag_512:\n        /* \"#utility.yul\":2846:2852   */\n      dup4\n        /* \"#utility.yul\":2829:3048   */\n    tag_514:\n        /* \"#utility.yul\":2863:2869   */\n      dup2\n        /* \"#utility.yul\":2858:2861   */\n      dup2\n        /* \"#utility.yul\":2855:2870   */\n      lt\n        /* \"#utility.yul\":2829:3048   */\n      iszero\n      tag_516\n      jumpi\n        /* \"#utility.yul\":2938:2941   */\n      dup1\n        /* \"#utility.yul\":2967:3003   */\n      tag_517\n        /* \"#utility.yul\":2999:3002   */\n      dup9\n        /* \"#utility.yul\":2987:2997   */\n      dup3\n        /* \"#utility.yul\":2967:3003   */\n      tag_428\n      jump\t// in\n    tag_517:\n        /* \"#utility.yul\":2962:2965   */\n      dup5\n        /* \"#utility.yul\":2955:3004   */\n      mstore\n        /* \"#utility.yul\":3033:3037   */\n      0x20\n        /* \"#utility.yul\":3028:3031   */\n      dup5\n        /* \"#utility.yul\":3024:3038   */\n      add\n        /* \"#utility.yul\":3017:3038   */\n      swap4\n      pop\n        /* \"#utility.yul\":2905:3048   */\n      pop\n        /* \"#utility.yul\":2889:2893   */\n      0x20\n        /* \"#utility.yul\":2884:2887   */\n      dup2\n        /* \"#utility.yul\":2880:2894   */\n      add\n        /* \"#utility.yul\":2873:2894   */\n      swap1\n      pop\n        /* \"#utility.yul\":2829:3048   */\n      jump(tag_514)\n    tag_516:\n        /* \"#utility.yul\":2833:2854   */\n      pop\n        /* \"#utility.yul\":2448:3054   */\n      pop\n      pop\n        /* \"#utility.yul\":2347:3054   */\n      swap4\n      swap3\n      pop\n      pop\n      pop\n      jump\t// out\n        /* \"#utility.yul\":3076:3444   */\n    tag_430:\n        /* \"#utility.yul\":3146:3151   */\n      0x00\n        /* \"#utility.yul\":3195:3198   */\n      dup3\n        /* \"#utility.yul\":3188:3192   */\n      0x1f\n        /* \"#utility.yul\":3180:3186   */\n      dup4\n        /* \"#utility.yul\":3176:3193   */\n      add\n        /* \"#utility.yul\":3172:3199   */\n      slt\n        /* \"#utility.yul\":3162:3284   */\n      tag_519\n      jumpi\n        /* \"#utility.yul\":3203:3282   */\n      tag_520\n      tag_420\n      jump\t// in\n    tag_520:\n        /* \"#utility.yul\":3162:3284   */\n    tag_519:\n        /* \"#utility.yul\":3320:3326   */\n      dup2\n        /* \"#utility.yul\":3307:3327   */\n      calldataload\n        /* \"#utility.yul\":3345:3438   */\n      tag_521\n        /* \"#utility.yul\":3434:3437   */\n      dup5\n        /* \"#utility.yul\":3426:3432   */\n      dup3\n        /* \"#utility.yul\":3419:3423   */\n      0x20\n        /* \"#utility.yul\":3411:3417   */\n      dup7\n        /* \"#utility.yul\":3407:3424   */\n      add\n        /* \"#utility.yul\":3345:3438   */\n      tag_429\n      jump\t// in\n    tag_521:\n        /* \"#utility.yul\":3336:3438   */\n      swap2\n      pop\n        /* \"#utility.yul\":3152:3444   */\n      pop\n        /* \"#utility.yul\":3076:3444   */\n      swap3\n      swap2\n      pop\n      pop\n      jump\t// out\n        /* \"#utility.yul\":3450:4130   */\n    tag_13:\n        /* \"#utility.yul\":3541:3547   */\n      0x00\n        /* \"#utility.yul\":3549:3555   */\n      dup1\n        /* \"#utility.yul\":3598:3600   */\n      0x40\n        /* \"#utility.yul\":3586:3595   */\n      dup4\n        /* \"#utility.yul\":3577:3584   */\n      dup6\n        /* \"#utility.yul\":3573:3596   */\n      sub\n        /* \"#utility.yul\":3569:3601   */\n      slt\n        /* \"#utility.yul\":3566:3685   */\n      iszero\n      tag_523\n      jumpi\n        /* \"#utility.yul\":3604:3683   */\n      tag_524\n      tag_415\n      jump\t// in\n    tag_524:\n        /* \"#utility.yul\":3566:3685   */\n    tag_523:\n        /* \"#utility.yul\":3724:3725   */\n      0x00\n        /* \"#utility.yul\":3749:3801   */\n      tag_525\n        /* \"#utility.yul\":3793:3800   */\n      dup6\n        /* \"#utility.yul\":3784:3790   */\n      dup3\n        /* \"#utility.yul\":3773:3782   */\n      dup7\n        /* \"#utility.yul\":3769:3791   */\n      add\n        /* \"#utility.yul\":3749:3801   */\n      tag_419\n      jump\t// in\n    tag_525:\n        /* \"#utility.yul\":3739:3801   */\n      swap3\n      pop\n        /* \"#utility.yul\":3695:3811   */\n      pop\n        /* \"#utility.yul\":3878:3880   */\n      0x20\n        /* \"#utility.yul\":3867:3876   */\n      dup4\n        /* \"#utility.yul\":3863:3881   */\n      add\n        /* \"#utility.yul\":3850:3882   */\n      calldataload\n        /* \"#utility.yul\":3909:3927   */\n      0xffffffffffffffff\n        /* \"#utility.yul\":3901:3907   */\n      dup2\n        /* \"#utility.yul\":3898:3928   */\n      gt\n        /* \"#utility.yul\":3895:4012   */\n      iszero\n      tag_526\n      jumpi\n        /* \"#utility.yul\":3931:4010   */\n      tag_527\n      tag_416\n      jump\t// in\n    tag_527:\n        /* \"#utility.yul\":3895:4012   */\n    tag_526:\n        /* \"#utility.yul\":4036:4113   */\n      tag_528\n        /* \"#utility.yul\":4105:4112   */\n      dup6\n        /* \"#utility.yul\":4096:4102   */\n      dup3\n        /* \"#utility.yul\":4085:4094   */\n      dup7\n        /* \"#utility.yul\":4081:4103   */\n      add\n        /* \"#utility.yul\":4036:4113   */\n      tag_430\n      jump\t// in\n    tag_528:\n        /* \"#utility.yul\":4026:4113   */\n      swap2\n      pop\n        /* \"#utility.yul\":3821:4123   */\n      pop\n        /* \"#utility.yul\":3450:4130   */\n      swap3\n      pop\n      swap3\n      swap1\n      pop\n      jump\t// out\n        /* \"#utility.yul\":4136:4226   */\n    tag_431:\n        /* \"#utility.yul\":4170:4177   */\n      0x00\n        /* \"#utility.yul\":4213:4218   */\n      dup2\n        /* \"#utility.yul\":4206:4219   */\n      iszero\n        /* \"#utility.yul\":4199:4220   */\n      iszero\n        /* \"#utility.yul\":4188:4220   */\n      swap1\n      pop\n        /* \"#utility.yul\":4136:4226   */\n      swap2\n      swap1\n      pop\n      jump\t// out\n        /* \"#utility.yul\":4232:4341   */\n    tag_432:\n        /* \"#utility.yul\":4313:4334   */\n      tag_531\n        /* \"#utility.yul\":4328:4333   */\n      dup2\n        /* \"#utility.yul\":4313:4334   */\n      tag_431\n      jump\t// in\n    tag_531:\n        /* \"#utility.yul\":4308:4311   */\n      dup3\n        /* \"#utility.yul\":4301:4335   */\n      mstore\n        /* \"#utility.yul\":4232:4341   */\n      pop\n      pop\n      jump\t// out\n        /* \"#utility.yul\":4347:4557   */\n    tag_16:\n        /* \"#utility.yul\":4434:4438   */\n      0x00\n        /* \"#utility.yul\":4472:4474   */\n      0x20\n        /* \"#utility.yul\":4461:4470   */\n      dup3\n        /* \"#utility.yul\":4457:4475   */\n      add\n        /* \"#utility.yul\":4449:4475   */\n      swap1\n      pop\n        /* \"#utility.yul\":4485:4550   */\n      tag_533\n        /* \"#utility.yul\":4547:4548   */\n      0x00\n        /* \"#utility.yul\":4536:4545   */\n      dup4\n        /* \"#utility.yul\":4532:4549   */\n      add\n        /* \"#utility.yul\":4523:4529   */\n      dup5\n        /* \"#utility.yul\":4485:4550   */\n      tag_432\n      jump\t// in\n    tag_533:\n        /* \"#utility.yul\":4347:4557   */\n      swap3\n      swap2\n      pop\n      pop\n      jump\t// out\n        /* \"#utility.yul\":4563:4680   */\n    tag_433:\n        /* \"#utility.yul\":4672:4673   */\n      0x00\n        /* \"#utility.yul\":4669:4670   */\n      dup1\n        /* \"#utility.yul\":4662:4674   */\n      revert\n        /* \"#utility.yul\":4686:4994   */\n    tag_434:\n        /* \"#utility.yul\":4748:4752   */\n      0x00\n        /* \"#utility.yul\":4838:4856   */\n      0xffffffffffffffff\n        /* \"#utility.yul\":4830:4836   */\n      dup3\n        /* \"#utility.yul\":4827:4857   */\n      gt\n        /* \"#utility.yul\":4824:4880   */\n      iszero\n      tag_536\n      jumpi\n        /* \"#utility.yul\":4860:4878   */\n      tag_537\n      tag_329\n      jump\t// in\n    tag_537:\n        /* \"#utility.yul\":4824:4880   */\n    tag_536:\n        /* \"#utility.yul\":4898:4927   */\n      tag_538\n        /* \"#utility.yul\":4920:4926   */\n      dup3\n        /* \"#utility.yul\":4898:4927   */\n      tag_421\n      jump\t// in\n    tag_538:\n        /* \"#utility.yul\":4890:4927   */\n      swap1\n      pop\n        /* \"#utility.yul\":4982:4986   */\n      0x20\n        /* \"#utility.yul\":4976:4980   */\n      dup2\n        /* \"#utility.yul\":4972:4987   */\n      add\n        /* \"#utility.yul\":4964:4987   */\n      swap1\n      pop\n        /* \"#utility.yul\":4686:4994   */\n      swap2\n      swap1\n      pop\n      jump\t// out\n        /* \"#utility.yul\":5000:5154   */\n    tag_435:\n        /* \"#utility.yul\":5084:5090   */\n      dup3\n        /* \"#utility.yul\":5079:5082   */\n      dup2\n        /* \"#utility.yul\":5074:5077   */\n      dup4\n        /* \"#utility.yul\":5061:5091   */\n      calldatacopy\n        /* \"#utility.yul\":5146:5147   */\n      0x00\n        /* \"#utility.yul\":5137:5143   */\n      dup4\n        /* \"#utility.yul\":5132:5135   */\n      dup4\n        /* \"#utility.yul\":5128:5144   */\n      add\n        /* \"#utility.yul\":5121:5148   */\n      mstore\n        /* \"#utility.yul\":5000:5154   */\n      pop\n      pop\n      pop\n      jump\t// out\n        /* \"#utility.yul\":5160:5572   */\n    tag_436:\n        /* \"#utility.yul\":5238:5243   */\n      0x00\n        /* \"#utility.yul\":5263:5329   */\n      tag_541\n        /* \"#utility.yul\":5279:5328   */\n      tag_542\n        /* \"#utility.yul\":5321:5327   */\n      dup5\n        /* \"#utility.yul\":5279:5328   */\n      tag_434\n      jump\t// in\n    tag_542:\n        /* \"#utility.yul\":5263:5329   */\n      tag_423\n      jump\t// in\n    tag_541:\n        /* \"#utility.yul\":5254:5329   */\n      swap1\n      pop\n        /* \"#utility.yul\":5352:5358   */\n      dup3\n        /* \"#utility.yul\":5345:5350   */\n      dup2\n        /* \"#utility.yul\":5338:5359   */\n      mstore\n        /* \"#utility.yul\":5390:5394   */\n      0x20\n        /* \"#utility.yul\":5383:5388   */\n      dup2\n        /* \"#utility.yul\":5379:5395   */\n      add\n        /* \"#utility.yul\":5428:5431   */\n      dup5\n        /* \"#utility.yul\":5419:5425   */\n      dup5\n        /* \"#utility.yul\":5414:5417   */\n      dup5\n        /* \"#utility.yul\":5410:5426   */\n      add\n        /* \"#utility.yul\":5407:5432   */\n      gt\n        /* \"#utility.yul\":5404:5516   */\n      iszero\n      tag_543\n      jumpi\n        /* \"#utility.yul\":5435:5514   */\n      tag_544\n      tag_433\n      jump\t// in\n    tag_544:\n        /* \"#utility.yul\":5404:5516   */\n    tag_543:\n        /* \"#utility.yul\":5525:5566   */\n      tag_545\n        /* \"#utility.yul\":5559:5565   */\n      dup5\n        /* \"#utility.yul\":5554:5557   */\n      dup3\n        /* \"#utility.yul\":5549:5552   */\n      dup6\n        /* \"#utility.yul\":5525:5566   */\n      tag_435\n      jump\t// in\n    tag_545:\n        /* \"#utility.yul\":5244:5572   */\n      pop\n        /* \"#utility.yul\":5160:5572   */\n      swap4\n      swap3\n      pop\n      pop\n      pop\n      jump\t// out\n        /* \"#utility.yul\":5592:5932   */\n    tag_437:\n        /* \"#utility.yul\":5648:5653   */\n      0x00\n        /* \"#utility.yul\":5697:5700   */\n      dup3\n        /* \"#utility.yul\":5690:5694   */\n      0x1f\n        /* \"#utility.yul\":5682:5688   */\n      dup4\n        /* \"#utility.yul\":5678:5695   */\n      add\n        /* \"#utility.yul\":5674:5701   */\n      slt\n        /* \"#utility.yul\":5664:5786   */\n      tag_547\n      jumpi\n        /* \"#utility.yul\":5705:5784   */\n      tag_548\n      tag_420\n      jump\t// in\n    tag_548:\n        /* \"#utility.yul\":5664:5786   */\n    tag_547:\n        /* \"#utility.yul\":5822:5828   */\n      dup2\n        /* \"#utility.yul\":5809:5829   */\n      calldataload\n        /* \"#utility.yul\":5847:5926   */\n      tag_549\n        /* \"#utility.yul\":5922:5925   */\n      dup5\n        /* \"#utility.yul\":5914:5920   */\n      dup3\n        /* \"#utility.yul\":5907:5911   */\n      0x20\n        /* \"#utility.yul\":5899:5905   */\n      dup7\n        /* \"#utility.yul\":5895:5912   */\n      add\n        /* \"#utility.yul\":5847:5926   */\n      tag_436\n      jump\t// in\n    tag_549:\n        /* \"#utility.yul\":5838:5926   */\n      swap2\n      pop\n        /* \"#utility.yul\":5654:5932   */\n      pop\n        /* \"#utility.yul\":5592:5932   */\n      swap3\n      swap2\n      pop\n      pop\n      jump\t// out\n        /* \"#utility.yul\":5938:6064   */\n    tag_438:\n        /* \"#utility.yul\":5975:5982   */\n      0x00\n        /* \"#utility.yul\":6015:6057   */\n      0xffffffffffffffffffffffffffffffffffffffff\n        /* \"#utility.yul\":6008:6013   */\n      dup3\n        /* \"#utility.yul\":6004:6058   */\n      and\n        /* \"#utility.yul\":5993:6058   */\n      swap1\n      pop\n        /* \"#utility.yul\":5938:6064   */\n      swap2\n      swap1\n      pop\n      jump\t// out\n        /* \"#utility.yul\":6070:6166   */\n    tag_439:\n        /* \"#utility.yul\":6107:6114   */\n      0x00\n        /* \"#utility.yul\":6136:6160   */\n      tag_552\n        /* \"#utility.yul\":6154:6159   */\n      dup3\n        /* \"#utility.yul\":6136:6160   */\n      tag_438\n      jump\t// in\n    tag_552:\n        /* \"#utility.yul\":6125:6160   */\n      swap1\n      pop\n        /* \"#utility.yul\":6070:6166   */\n      swap2\n      swap1\n      pop\n      jump\t// out\n        /* \"#utility.yul\":6172:6294   */\n    tag_440:\n        /* \"#utility.yul\":6245:6269   */\n      tag_554\n        /* \"#utility.yul\":6263:6268   */\n      dup2\n        /* \"#utility.yul\":6245:6269   */\n      tag_439\n      jump\t// in\n    tag_554:\n        /* \"#utility.yul\":6238:6243   */\n      dup2\n        /* \"#utility.yul\":6235:6270   */\n      eq\n        /* \"#utility.yul\":6225:6288   */\n      tag_555\n      jumpi\n        /* \"#utility.yul\":6284:6285   */\n      0x00\n        /* \"#utility.yul\":6281:6282   */\n      dup1\n        /* \"#utility.yul\":6274:6286   */\n      revert\n        /* \"#utility.yul\":6225:6288   */\n    tag_555:\n        /* \"#utility.yul\":6172:6294   */\n      pop\n      jump\t// out\n        /* \"#utility.yul\":6300:6439   */\n    tag_441:\n        /* \"#utility.yul\":6346:6351   */\n      0x00\n        /* \"#utility.yul\":6384:6390   */\n      dup2\n        /* \"#utility.yul\":6371:6391   */\n      calldataload\n        /* \"#utility.yul\":6362:6391   */\n      swap1\n      pop\n        /* \"#utility.yul\":6400:6433   */\n      tag_557\n        /* \"#utility.yul\":6427:6432   */\n      dup2\n        /* \"#utility.yul\":6400:6433   */\n      tag_440\n      jump\t// in\n    tag_557:\n        /* \"#utility.yul\":6300:6439   */\n      swap3\n      swap2\n      pop\n      pop\n      jump\t// out\n        /* \"#utility.yul\":6445:7099   */\n    tag_23:\n        /* \"#utility.yul\":6523:6529   */\n      0x00\n        /* \"#utility.yul\":6531:6537   */\n      dup1\n        /* \"#utility.yul\":6580:6582   */\n      0x40\n        /* \"#utility.yul\":6568:6577   */\n      dup4\n        /* \"#utility.yul\":6559:6566   */\n      dup6\n        /* \"#utility.yul\":6555:6578   */\n      sub\n        /* \"#utility.yul\":6551:6583   */\n      slt\n        /* \"#utility.yul\":6548:6667   */\n      iszero\n      tag_559\n      jumpi\n        /* \"#utility.yul\":6586:6665   */\n      tag_560\n      tag_415\n      jump\t// in\n    tag_560:\n        /* \"#utility.yul\":6548:6667   */\n    tag_559:\n        /* \"#utility.yul\":6734:6735   */\n      0x00\n        /* \"#utility.yul\":6723:6732   */\n      dup4\n        /* \"#utility.yul\":6719:6736   */\n      add\n        /* \"#utility.yul\":6706:6737   */\n      calldataload\n        /* \"#utility.yul\":6764:6782   */\n      0xffffffffffffffff\n        /* \"#utility.yul\":6756:6762   */\n      dup2\n        /* \"#utility.yul\":6753:6783   */\n      gt\n        /* \"#utility.yul\":6750:6867   */\n      iszero\n      tag_561\n      jumpi\n        /* \"#utility.yul\":6786:6865   */\n      tag_562\n      tag_416\n      jump\t// in\n    tag_562:\n        /* \"#utility.yul\":6750:6867   */\n    tag_561:\n        /* \"#utility.yul\":6891:6954   */\n      tag_563\n        /* \"#utility.yul\":6946:6953   */\n      dup6\n        /* \"#utility.yul\":6937:6943   */\n      dup3\n        /* \"#utility.yul\":6926:6935   */\n      dup7\n        /* \"#utility.yul\":6922:6944   */\n      add\n        /* \"#utility.yul\":6891:6954   */\n      tag_437\n      jump\t// in\n    tag_563:\n        /* \"#utility.yul\":6881:6954   */\n      swap3\n      pop\n        /* \"#utility.yul\":6677:6964   */\n      pop\n        /* \"#utility.yul\":7003:7005   */\n      0x20\n        /* \"#utility.yul\":7029:7082   */\n      tag_564\n        /* \"#utility.yul\":7074:7081   */\n      dup6\n        /* \"#utility.yul\":7065:7071   */\n      dup3\n        /* \"#utility.yul\":7054:7063   */\n      dup7\n        /* \"#utility.yul\":7050:7072   */\n      add\n        /* \"#utility.yul\":7029:7082   */\n      tag_441\n      jump\t// in\n    tag_564:\n        /* \"#utility.yul\":7019:7082   */\n      swap2\n      pop\n        /* \"#utility.yul\":6974:7092   */\n      pop\n        /* \"#utility.yul\":6445:7099   */\n      swap3\n      pop\n      swap3\n      swap1\n      pop\n      jump\t// out\n        /* \"#utility.yul\":7105:7223   */\n    tag_442:\n        /* \"#utility.yul\":7192:7216   */\n      tag_566\n        /* \"#utility.yul\":7210:7215   */\n      dup2\n        /* \"#utility.yul\":7192:7216   */\n      tag_439\n      jump\t// in\n    tag_566:\n        /* \"#utility.yul\":7187:7190   */\n      dup3\n        /* \"#utility.yul\":7180:7217   */\n      mstore\n        /* \"#utility.yul\":7105:7223   */\n      pop\n      pop\n      jump\t// out\n        /* \"#utility.yul\":7229:7451   */\n    tag_29:\n        /* \"#utility.yul\":7322:7326   */\n      0x00\n        /* \"#utility.yul\":7360:7362   */\n      0x20\n        /* \"#utility.yul\":7349:7358   */\n      dup3\n        /* \"#utility.yul\":7345:7363   */\n      add\n        /* \"#utility.yul\":7337:7363   */\n      swap1\n      pop\n        /* \"#utility.yul\":7373:7444   */\n      tag_568\n        /* \"#utility.yul\":7441:7442   */\n      0x00\n        /* \"#utility.yul\":7430:7439   */\n      dup4\n        /* \"#utility.yul\":7426:7443   */\n      add\n        /* \"#utility.yul\":7417:7423   */\n      dup5\n        /* \"#utility.yul\":7373:7444   */\n      tag_442\n      jump\t// in\n    tag_568:\n        /* \"#utility.yul\":7229:7451   */\n      swap3\n      swap2\n      pop\n      pop\n      jump\t// out\n        /* \"#utility.yul\":7457:7786   */\n    tag_38:\n        /* \"#utility.yul\":7516:7522   */\n      0x00\n        /* \"#utility.yul\":7565:7567   */\n      0x20\n        /* \"#utility.yul\":7553:7562   */\n      dup3\n        /* \"#utility.yul\":7544:7551   */\n      dup5\n        /* \"#utility.yul\":7540:7563   */\n      sub\n        /* \"#utility.yul\":7536:7568   */\n      slt\n        /* \"#utility.yul\":7533:7652   */\n      iszero\n      tag_570\n      jumpi\n        /* \"#utility.yul\":7571:7650   */\n      tag_571\n      tag_415\n      jump\t// in\n    tag_571:\n        /* \"#utility.yul\":7533:7652   */\n    tag_570:\n        /* \"#utility.yul\":7691:7692   */\n      0x00\n        /* \"#utility.yul\":7716:7769   */\n      tag_572\n        /* \"#utility.yul\":7761:7768   */\n      dup5\n        /* \"#utility.yul\":7752:7758   */\n      dup3\n        /* \"#utility.yul\":7741:7750   */\n      dup6\n        /* \"#utility.yul\":7737:7759   */\n      add\n        /* \"#utility.yul\":7716:7769   */\n      tag_441\n      jump\t// in\n    tag_572:\n        /* \"#utility.yul\":7706:7769   */\n      swap2\n      pop\n        /* \"#utility.yul\":7662:7779   */\n      pop\n        /* \"#utility.yul\":7457:7786   */\n      swap3\n      swap2\n      pop\n      pop\n      jump\t// out\n        /* \"#utility.yul\":7792:7891   */\n    tag_443:\n        /* \"#utility.yul\":7844:7850   */\n      0x00\n        /* \"#utility.yul\":7878:7883   */\n      dup2\n        /* \"#utility.yul\":7872:7884   */\n      mload\n        /* \"#utility.yul\":7862:7884   */\n      swap1\n      pop\n        /* \"#utility.yul\":7792:7891   */\n      swap2\n      swap1\n      pop\n      jump\t// out\n        /* \"#utility.yul\":7897:8056   */\n    tag_444:\n        /* \"#utility.yul\":7971:7982   */\n      0x00\n        /* \"#utility.yul\":8005:8011   */\n      dup3\n        /* \"#utility.yul\":8000:8003   */\n      dup3\n        /* \"#utility.yul\":7993:8012   */\n      mstore\n        /* \"#utility.yul\":8045:8049   */\n      0x20\n        /* \"#utility.yul\":8040:8043   */\n      dup3\n        /* \"#utility.yul\":8036:8050   */\n      add\n        /* \"#utility.yul\":8021:8050   */\n      swap1\n      pop\n        /* \"#utility.yul\":7897:8056   */\n      swap3\n      swap2\n      pop\n      pop\n      jump\t// out\n        /* \"#utility.yul\":8062:8369   */\n    tag_445:\n        /* \"#utility.yul\":8130:8131   */\n      0x00\n        /* \"#utility.yul\":8140:8253   */\n    tag_576:\n        /* \"#utility.yul\":8154:8160   */\n      dup4\n        /* \"#utility.yul\":8151:8152   */\n      dup2\n        /* \"#utility.yul\":8148:8161   */\n      lt\n        /* \"#utility.yul\":8140:8253   */\n      iszero\n      tag_578\n      jumpi\n        /* \"#utility.yul\":8239:8240   */\n      dup1\n        /* \"#utility.yul\":8234:8237   */\n      dup3\n        /* \"#utility.yul\":8230:8241   */\n      add\n        /* \"#utility.yul\":8224:8242   */\n      mload\n        /* \"#utility.yul\":8220:8221   */\n      dup2\n        /* \"#utility.yul\":8215:8218   */\n      dup5\n        /* \"#utility.yul\":8211:8222   */\n      add\n        /* \"#utility.yul\":8204:8243   */\n      mstore\n        /* \"#utility.yul\":8176:8178   */\n      0x20\n        /* \"#utility.yul\":8173:8174   */\n      dup2\n        /* \"#utility.yul\":8169:8179   */\n      add\n        /* \"#utility.yul\":8164:8179   */\n      swap1\n      pop\n        /* \"#utility.yul\":8140:8253   */\n      jump(tag_576)\n    tag_578:\n        /* \"#utility.yul\":8271:8277   */\n      dup4\n        /* \"#utility.yul\":8268:8269   */\n      dup2\n        /* \"#utility.yul\":8265:8278   */\n      gt\n        /* \"#utility.yul\":8262:8363   */\n      iszero\n      tag_579\n      jumpi\n        /* \"#utility.yul\":8351:8352   */\n      0x00\n        /* \"#utility.yul\":8342:8348   */\n      dup5\n        /* \"#utility.yul\":8337:8340   */\n      dup5\n        /* \"#utility.yul\":8333:8349   */\n      add\n        /* \"#utility.yul\":8326:8353   */\n      mstore\n        /* \"#utility.yul\":8262:8363   */\n    tag_579:\n        /* \"#utility.yul\":8111:8369   */\n      pop\n        /* \"#utility.yul\":8062:8369   */\n      pop\n      pop\n      pop\n      jump\t// out\n        /* \"#utility.yul\":8375:8719   */\n    tag_446:\n        /* \"#utility.yul\":8453:8456   */\n      0x00\n        /* \"#utility.yul\":8481:8520   */\n      tag_581\n        /* \"#utility.yul\":8514:8519   */\n      dup3\n        /* \"#utility.yul\":8481:8520   */\n      tag_443\n      jump\t// in\n    tag_581:\n        /* \"#utility.yul\":8536:8597   */\n      tag_582\n        /* \"#utility.yul\":8590:8596   */\n      dup2\n        /* \"#utility.yul\":8585:8588   */\n      dup6\n        /* \"#utility.yul\":8536:8597   */\n      tag_444\n      jump\t// in\n    tag_582:\n        /* \"#utility.yul\":8529:8597   */\n      swap4\n      pop\n        /* \"#utility.yul\":8606:8658   */\n      tag_583\n        /* \"#utility.yul\":8651:8657   */\n      dup2\n        /* \"#utility.yul\":8646:8649   */\n      dup6\n        /* \"#utility.yul\":8639:8643   */\n      0x20\n        /* \"#utility.yul\":8632:8637   */\n      dup7\n        /* \"#utility.yul\":8628:8644   */\n      add\n        /* \"#utility.yul\":8606:8658   */\n      tag_445\n      jump\t// in\n    tag_583:\n        /* \"#utility.yul\":8683:8712   */\n      tag_584\n        /* \"#utility.yul\":8705:8711   */\n      dup2\n        /* \"#utility.yul\":8683:8712   */\n      tag_421\n      jump\t// in\n    tag_584:\n        /* \"#utility.yul\":8678:8681   */\n      dup5\n        /* \"#utility.yul\":8674:8713   */\n      add\n        /* \"#utility.yul\":8667:8713   */\n      swap2\n      pop\n        /* \"#utility.yul\":8457:8719   */\n      pop\n        /* \"#utility.yul\":8375:8719   */\n      swap3\n      swap2\n      pop\n      pop\n      jump\t// out\n        /* \"#utility.yul\":8725:8833   */\n    tag_447:\n        /* \"#utility.yul\":8802:8826   */\n      tag_586\n        /* \"#utility.yul\":8820:8825   */\n      dup2\n        /* \"#utility.yul\":8802:8826   */\n      tag_439\n      jump\t// in\n    tag_586:\n        /* \"#utility.yul\":8797:8800   */\n      dup3\n        /* \"#utility.yul\":8790:8827   */\n      mstore\n        /* \"#utility.yul\":8725:8833   */\n      pop\n      pop\n      jump\t// out\n        /* \"#utility.yul\":8839:8938   */\n    tag_448:\n        /* \"#utility.yul\":8910:8931   */\n      tag_588\n        /* \"#utility.yul\":8925:8930   */\n      dup2\n        /* \"#utility.yul\":8910:8931   */\n      tag_431\n      jump\t// in\n    tag_588:\n        /* \"#utility.yul\":8905:8908   */\n      dup3\n        /* \"#utility.yul\":8898:8932   */\n      mstore\n        /* \"#utility.yul\":8839:8938   */\n      pop\n      pop\n      jump\t// out\n        /* \"#utility.yul\":8988:9764   */\n    tag_449:\n        /* \"#utility.yul\":9099:9102   */\n      0x00\n        /* \"#utility.yul\":9135:9139   */\n      0x60\n        /* \"#utility.yul\":9130:9133   */\n      dup4\n        /* \"#utility.yul\":9126:9140   */\n      add\n        /* \"#utility.yul\":9222:9226   */\n      0x00\n        /* \"#utility.yul\":9215:9220   */\n      dup4\n        /* \"#utility.yul\":9211:9227   */\n      add\n        /* \"#utility.yul\":9205:9228   */\n      mload\n        /* \"#utility.yul\":9275:9278   */\n      dup5\n        /* \"#utility.yul\":9269:9273   */\n      dup3\n        /* \"#utility.yul\":9265:9279   */\n      sub\n        /* \"#utility.yul\":9258:9262   */\n      0x00\n        /* \"#utility.yul\":9253:9256   */\n      dup7\n        /* \"#utility.yul\":9249:9263   */\n      add\n        /* \"#utility.yul\":9242:9280   */\n      mstore\n        /* \"#utility.yul\":9301:9374   */\n      tag_590\n        /* \"#utility.yul\":9369:9373   */\n      dup3\n        /* \"#utility.yul\":9355:9367   */\n      dup3\n        /* \"#utility.yul\":9301:9374   */\n      tag_446\n      jump\t// in\n    tag_590:\n        /* \"#utility.yul\":9293:9374   */\n      swap2\n      pop\n        /* \"#utility.yul\":9150:9385   */\n      pop\n        /* \"#utility.yul\":9476:9480   */\n      0x20\n        /* \"#utility.yul\":9469:9474   */\n      dup4\n        /* \"#utility.yul\":9465:9481   */\n      add\n        /* \"#utility.yul\":9459:9482   */\n      mload\n        /* \"#utility.yul\":9495:9558   */\n      tag_591\n        /* \"#utility.yul\":9552:9556   */\n      0x20\n        /* \"#utility.yul\":9547:9550   */\n      dup7\n        /* \"#utility.yul\":9543:9557   */\n      add\n        /* \"#utility.yul\":9529:9541   */\n      dup3\n        /* \"#utility.yul\":9495:9558   */\n      tag_447\n      jump\t// in\n    tag_591:\n        /* \"#utility.yul\":9395:9568   */\n      pop\n        /* \"#utility.yul\":9651:9655   */\n      0x40\n        /* \"#utility.yul\":9644:9649   */\n      dup4\n        /* \"#utility.yul\":9640:9656   */\n      add\n        /* \"#utility.yul\":9634:9657   */\n      mload\n        /* \"#utility.yul\":9670:9727   */\n      tag_592\n        /* \"#utility.yul\":9721:9725   */\n      0x40\n        /* \"#utility.yul\":9716:9719   */\n      dup7\n        /* \"#utility.yul\":9712:9726   */\n      add\n        /* \"#utility.yul\":9698:9710   */\n      dup3\n        /* \"#utility.yul\":9670:9727   */\n      tag_448\n      jump\t// in\n    tag_592:\n        /* \"#utility.yul\":9578:9737   */\n      pop\n        /* \"#utility.yul\":9754:9758   */\n      dup1\n        /* \"#utility.yul\":9747:9758   */\n      swap2\n      pop\n        /* \"#utility.yul\":9104:9764   */\n      pop\n        /* \"#utility.yul\":8988:9764   */\n      swap3\n      swap2\n      pop\n      pop\n      jump\t// out\n        /* \"#utility.yul\":9770:10127   */\n    tag_41:\n        /* \"#utility.yul\":9905:9909   */\n      0x00\n        /* \"#utility.yul\":9943:9945   */\n      0x20\n        /* \"#utility.yul\":9932:9941   */\n      dup3\n        /* \"#utility.yul\":9928:9946   */\n      add\n        /* \"#utility.yul\":9920:9946   */\n      swap1\n      pop\n        /* \"#utility.yul\":9992:10001   */\n      dup2\n        /* \"#utility.yul\":9986:9990   */\n      dup2\n        /* \"#utility.yul\":9982:10002   */\n      sub\n        /* \"#utility.yul\":9978:9979   */\n      0x00\n        /* \"#utility.yul\":9967:9976   */\n      dup4\n        /* \"#utility.yul\":9963:9980   */\n      add\n        /* \"#utility.yul\":9956:10003   */\n      mstore\n        /* \"#utility.yul\":10020:10120   */\n      tag_594\n        /* \"#utility.yul\":10115:10119   */\n      dup2\n        /* \"#utility.yul\":10106:10112   */\n      dup5\n        /* \"#utility.yul\":10020:10120   */\n      tag_449\n      jump\t// in\n    tag_594:\n        /* \"#utility.yul\":10012:10120   */\n      swap1\n      pop\n        /* \"#utility.yul\":9770:10127   */\n      swap3\n      swap2\n      pop\n      pop\n      jump\t// out\n        /* \"#utility.yul\":10133:10302   */\n    tag_450:\n        /* \"#utility.yul\":10217:10228   */\n      0x00\n        /* \"#utility.yul\":10251:10257   */\n      dup3\n        /* \"#utility.yul\":10246:10249   */\n      dup3\n        /* \"#utility.yul\":10239:10258   */\n      mstore\n        /* \"#utility.yul\":10291:10295   */\n      0x20\n        /* \"#utility.yul\":10286:10289   */\n      dup3\n        /* \"#utility.yul\":10282:10296   */\n      add\n        /* \"#utility.yul\":10267:10296   */\n      swap1\n      pop\n        /* \"#utility.yul\":10133:10302   */\n      swap3\n      swap2\n      pop\n      pop\n      jump\t// out\n        /* \"#utility.yul\":10308:10486   */\n    tag_451:\n        /* \"#utility.yul\":10448:10478   */\n      0x5468697320636f6e747261637420697320646561637469766174656400000000\n        /* \"#utility.yul\":10444:10445   */\n      0x00\n        /* \"#utility.yul\":10436:10442   */\n      dup3\n        /* \"#utility.yul\":10432:10446   */\n      add\n        /* \"#utility.yul\":10425:10479   */\n      mstore\n        /* \"#utility.yul\":10308:10486   */\n      pop\n      jump\t// out\n        /* \"#utility.yul\":10492:10858   */\n    tag_452:\n        /* \"#utility.yul\":10634:10637   */\n      0x00\n        /* \"#utility.yul\":10655:10722   */\n      tag_598\n        /* \"#utility.yul\":10719:10721   */\n      0x1c\n        /* \"#utility.yul\":10714:10717   */\n      dup4\n        /* \"#utility.yul\":10655:10722   */\n      tag_450\n      jump\t// in\n    tag_598:\n        /* \"#utility.yul\":10648:10722   */\n      swap2\n      pop\n        /* \"#utility.yul\":10731:10824   */\n      tag_599\n        /* \"#utility.yul\":10820:10823   */\n      dup3\n        /* \"#utility.yul\":10731:10824   */\n      tag_451\n      jump\t// in\n    tag_599:\n        /* \"#utility.yul\":10849:10851   */\n      0x20\n        /* \"#utility.yul\":10844:10847   */\n      dup3\n        /* \"#utility.yul\":10840:10852   */\n      add\n        /* \"#utility.yul\":10833:10852   */\n      swap1\n      pop\n        /* \"#utility.yul\":10492:10858   */\n      swap2\n      swap1\n      pop\n      jump\t// out\n        /* \"#utility.yul\":10864:11283   */\n    tag_49:\n        /* \"#utility.yul\":11030:11034   */\n      0x00\n        /* \"#utility.yul\":11068:11070   */\n      0x20\n        /* \"#utility.yul\":11057:11066   */\n      dup3\n        /* \"#utility.yul\":11053:11071   */\n      add\n        /* \"#utility.yul\":11045:11071   */\n      swap1\n      pop\n        /* \"#utility.yul\":11117:11126   */\n      dup2\n        /* \"#utility.yul\":11111:11115   */\n      dup2\n        /* \"#utility.yul\":11107:11127   */\n      sub\n        /* \"#utility.yul\":11103:11104   */\n      0x00\n        /* \"#utility.yul\":11092:11101   */\n      dup4\n        /* \"#utility.yul\":11088:11105   */\n      add\n        /* \"#utility.yul\":11081:11128   */\n      mstore\n        /* \"#utility.yul\":11145:11276   */\n      tag_601\n        /* \"#utility.yul\":11271:11275   */\n      dup2\n        /* \"#utility.yul\":11145:11276   */\n      tag_452\n      jump\t// in\n    tag_601:\n        /* \"#utility.yul\":11137:11276   */\n      swap1\n      pop\n        /* \"#utility.yul\":10864:11283   */\n      swap2\n      swap1\n      pop\n      jump\t// out\n        /* \"#utility.yul\":11289:11519   */\n    tag_453:\n        /* \"#utility.yul\":11429:11463   */\n      0x4f6e6c79207468652070726f636573732063616e206578656375746520746869\n        /* \"#utility.yul\":11425:11426   */\n      0x00\n        /* \"#utility.yul\":11417:11423   */\n      dup3\n        /* \"#utility.yul\":11413:11427   */\n      add\n        /* \"#utility.yul\":11406:11464   */\n      mstore\n        /* \"#utility.yul\":11498:11511   */\n      0x73206f7065726174696f6e000000000000000000000000000000000000000000\n        /* \"#utility.yul\":11493:11495   */\n      0x20\n        /* \"#utility.yul\":11485:11491   */\n      dup3\n        /* \"#utility.yul\":11481:11496   */\n      add\n        /* \"#utility.yul\":11474:11512   */\n      mstore\n        /* \"#utility.yul\":11289:11519   */\n      pop\n      jump\t// out\n        /* \"#utility.yul\":11525:11891   */\n    tag_454:\n        /* \"#utility.yul\":11667:11670   */\n      0x00\n        /* \"#utility.yul\":11688:11755   */\n      tag_604\n        /* \"#utility.yul\":11752:11754   */\n      0x2b\n        /* \"#utility.yul\":11747:11750   */\n      dup4\n        /* \"#utility.yul\":11688:11755   */\n      tag_450\n      jump\t// in\n    tag_604:\n        /* \"#utility.yul\":11681:11755   */\n      swap2\n      pop\n        /* \"#utility.yul\":11764:11857   */\n      tag_605\n        /* \"#utility.yul\":11853:11856   */\n      dup3\n        /* \"#utility.yul\":11764:11857   */\n      tag_453\n      jump\t// in\n    tag_605:\n        /* \"#utility.yul\":11882:11884   */\n      0x40\n        /* \"#utility.yul\":11877:11880   */\n      dup3\n        /* \"#utility.yul\":11873:11885   */\n      add\n        /* \"#utility.yul\":11866:11885   */\n      swap1\n      pop\n        /* \"#utility.yul\":11525:11891   */\n      swap2\n      swap1\n      pop\n      jump\t// out\n        /* \"#utility.yul\":11897:12316   */\n    tag_52:\n        /* \"#utility.yul\":12063:12067   */\n      0x00\n        /* \"#utility.yul\":12101:12103   */\n      0x20\n        /* \"#utility.yul\":12090:12099   */\n      dup3\n        /* \"#utility.yul\":12086:12104   */\n      add\n        /* \"#utility.yul\":12078:12104   */\n      swap1\n      pop\n        /* \"#utility.yul\":12150:12159   */\n      dup2\n        /* \"#utility.yul\":12144:12148   */\n      dup2\n        /* \"#utility.yul\":12140:12160   */\n      sub\n        /* \"#utility.yul\":12136:12137   */\n      0x00\n        /* \"#utility.yul\":12125:12134   */\n      dup4\n        /* \"#utility.yul\":12121:12138   */\n      add\n        /* \"#utility.yul\":12114:12161   */\n      mstore\n        /* \"#utility.yul\":12178:12309   */\n      tag_607\n        /* \"#utility.yul\":12304:12308   */\n      dup2\n        /* \"#utility.yul\":12178:12309   */\n      tag_454\n      jump\t// in\n    tag_607:\n        /* \"#utility.yul\":12170:12309   */\n      swap1\n      pop\n        /* \"#utility.yul\":11897:12316   */\n      swap2\n      swap1\n      pop\n      jump\t// out\n        /* \"#utility.yul\":12322:12502   */\n    tag_57:\n        /* \"#utility.yul\":12370:12447   */\n      0x4e487b7100000000000000000000000000000000000000000000000000000000\n        /* \"#utility.yul\":12367:12368   */\n      0x00\n        /* \"#utility.yul\":12360:12448   */\n      mstore\n        /* \"#utility.yul\":12467:12471   */\n      0x32\n        /* \"#utility.yul\":12464:12465   */\n      0x04\n        /* \"#utility.yul\":12457:12472   */\n      mstore\n        /* \"#utility.yul\":12491:12495   */\n      0x24\n        /* \"#utility.yul\":12488:12489   */\n      0x00\n        /* \"#utility.yul\":12481:12496   */\n      revert\n        /* \"#utility.yul\":12508:12688   */\n    tag_455:\n        /* \"#utility.yul\":12556:12633   */\n      0x4e487b7100000000000000000000000000000000000000000000000000000000\n        /* \"#utility.yul\":12553:12554   */\n      0x00\n        /* \"#utility.yul\":12546:12634   */\n      mstore\n        /* \"#utility.yul\":12653:12657   */\n      0x22\n        /* \"#utility.yul\":12650:12651   */\n      0x04\n        /* \"#utility.yul\":12643:12658   */\n      mstore\n        /* \"#utility.yul\":12677:12681   */\n      0x24\n        /* \"#utility.yul\":12674:12675   */\n      0x00\n        /* \"#utility.yul\":12667:12682   */\n      revert\n        /* \"#utility.yul\":12694:13014   */\n    tag_68:\n        /* \"#utility.yul\":12738:12744   */\n      0x00\n        /* \"#utility.yul\":12775:12776   */\n      0x02\n        /* \"#utility.yul\":12769:12773   */\n      dup3\n        /* \"#utility.yul\":12765:12777   */\n      div\n        /* \"#utility.yul\":12755:12777   */\n      swap1\n      pop\n        /* \"#utility.yul\":12822:12823   */\n      0x01\n        /* \"#utility.yul\":12816:12820   */\n      dup3\n        /* \"#utility.yul\":12812:12824   */\n      and\n        /* \"#utility.yul\":12843:12861   */\n      dup1\n        /* \"#utility.yul\":12833:12914   */\n      tag_611\n      jumpi\n        /* \"#utility.yul\":12899:12903   */\n      0x7f\n        /* \"#utility.yul\":12891:12897   */\n      dup3\n        /* \"#utility.yul\":12887:12904   */\n      and\n        /* \"#utility.yul\":12877:12904   */\n      swap2\n      pop\n        /* \"#utility.yul\":12833:12914   */\n    tag_611:\n        /* \"#utility.yul\":12961:12963   */\n      0x20\n        /* \"#utility.yul\":12953:12959   */\n      dup3\n        /* \"#utility.yul\":12950:12964   */\n      lt\n        /* \"#utility.yul\":12930:12948   */\n      dup2\n        /* \"#utility.yul\":12927:12965   */\n      sub\n        /* \"#utility.yul\":12924:13008   */\n      tag_612\n      jumpi\n        /* \"#utility.yul\":12980:12998   */\n      tag_613\n      tag_455\n      jump\t// in\n    tag_613:\n        /* \"#utility.yul\":12924:13008   */\n    tag_612:\n        /* \"#utility.yul\":12745:13014   */\n      pop\n        /* \"#utility.yul\":12694:13014   */\n      swap2\n      swap1\n      pop\n      jump\t// out\n        /* \"#utility.yul\":13020:13191   */\n    tag_456:\n        /* \"#utility.yul\":13160:13183   */\n      0x5375636365737366756c20657865637574696f6e210000000000000000000000\n        /* \"#utility.yul\":13156:13157   */\n      0x00\n        /* \"#utility.yul\":13148:13154   */\n      dup3\n        /* \"#utility.yul\":13144:13158   */\n      add\n        /* \"#utility.yul\":13137:13184   */\n      mstore\n        /* \"#utility.yul\":13020:13191   */\n      pop\n      jump\t// out\n        /* \"#utility.yul\":13197:13563   */\n    tag_457:\n        /* \"#utility.yul\":13339:13342   */\n      0x00\n        /* \"#utility.yul\":13360:13427   */\n      tag_616\n        /* \"#utility.yul\":13424:13426   */\n      0x15\n        /* \"#utility.yul\":13419:13422   */\n      dup4\n        /* \"#utility.yul\":13360:13427   */\n      tag_450\n      jump\t// in\n    tag_616:\n        /* \"#utility.yul\":13353:13427   */\n      swap2\n      pop\n        /* \"#utility.yul\":13436:13529   */\n      tag_617\n        /* \"#utility.yul\":13525:13528   */\n      dup3\n        /* \"#utility.yul\":13436:13529   */\n      tag_456\n      jump\t// in\n    tag_617:\n        /* \"#utility.yul\":13554:13556   */\n      0x20\n        /* \"#utility.yul\":13549:13552   */\n      dup3\n        /* \"#utility.yul\":13545:13557   */\n      add\n        /* \"#utility.yul\":13538:13557   */\n      swap1\n      pop\n        /* \"#utility.yul\":13197:13563   */\n      swap2\n      swap1\n      pop\n      jump\t// out\n        /* \"#utility.yul\":13569:13988   */\n    tag_125:\n        /* \"#utility.yul\":13735:13739   */\n      0x00\n        /* \"#utility.yul\":13773:13775   */\n      0x20\n        /* \"#utility.yul\":13762:13771   */\n      dup3\n        /* \"#utility.yul\":13758:13776   */\n      add\n        /* \"#utility.yul\":13750:13776   */\n      swap1\n      pop\n        /* \"#utility.yul\":13822:13831   */\n      dup2\n        /* \"#utility.yul\":13816:13820   */\n      dup2\n        /* \"#utility.yul\":13812:13832   */\n      sub\n        /* \"#utility.yul\":13808:13809   */\n      0x00\n        /* \"#utility.yul\":13797:13806   */\n      dup4\n        /* \"#utility.yul\":13793:13810   */\n      add\n        /* \"#utility.yul\":13786:13833   */\n      mstore\n        /* \"#utility.yul\":13850:13981   */\n      tag_619\n        /* \"#utility.yul\":13976:13980   */\n      dup2\n        /* \"#utility.yul\":13850:13981   */\n      tag_457\n      jump\t// in\n    tag_619:\n        /* \"#utility.yul\":13842:13981   */\n      swap1\n      pop\n        /* \"#utility.yul\":13569:13988   */\n      swap2\n      swap1\n      pop\n      jump\t// out\n        /* \"#utility.yul\":13994:14298   */\n    tag_458:\n        /* \"#utility.yul\":14134:14168   */\n      0x52657175657374206f7065726174696f6e20706572666f726d6564206f757473\n        /* \"#utility.yul\":14130:14131   */\n      0x00\n        /* \"#utility.yul\":14122:14128   */\n      dup3\n        /* \"#utility.yul\":14118:14132   */\n      add\n        /* \"#utility.yul\":14111:14169   */\n      mstore\n        /* \"#utility.yul\":14203:14237   */\n      0x696465206f6620616c6c6f77656420686f757273206f72206c696d6974206f70\n        /* \"#utility.yul\":14198:14200   */\n      0x20\n        /* \"#utility.yul\":14190:14196   */\n      dup3\n        /* \"#utility.yul\":14186:14201   */\n      add\n        /* \"#utility.yul\":14179:14238   */\n      mstore\n        /* \"#utility.yul\":14272:14290   */\n      0x65726174696f6e20657863656564656400000000000000000000000000000000\n        /* \"#utility.yul\":14267:14269   */\n      0x40\n        /* \"#utility.yul\":14259:14265   */\n      dup3\n        /* \"#utility.yul\":14255:14270   */\n      add\n        /* \"#utility.yul\":14248:14291   */\n      mstore\n        /* \"#utility.yul\":13994:14298   */\n      pop\n      jump\t// out\n        /* \"#utility.yul\":14304:14670   */\n    tag_459:\n        /* \"#utility.yul\":14446:14449   */\n      0x00\n        /* \"#utility.yul\":14467:14534   */\n      tag_622\n        /* \"#utility.yul\":14531:14533   */\n      0x50\n        /* \"#utility.yul\":14526:14529   */\n      dup4\n        /* \"#utility.yul\":14467:14534   */\n      tag_450\n      jump\t// in\n    tag_622:\n        /* \"#utility.yul\":14460:14534   */\n      swap2\n      pop\n        /* \"#utility.yul\":14543:14636   */\n      tag_623\n        /* \"#utility.yul\":14632:14635   */\n      dup3\n        /* \"#utility.yul\":14543:14636   */\n      tag_458\n      jump\t// in\n    tag_623:\n        /* \"#utility.yul\":14661:14663   */\n      0x60\n        /* \"#utility.yul\":14656:14659   */\n      dup3\n        /* \"#utility.yul\":14652:14664   */\n      add\n        /* \"#utility.yul\":14645:14664   */\n      swap1\n      pop\n        /* \"#utility.yul\":14304:14670   */\n      swap2\n      swap1\n      pop\n      jump\t// out\n        /* \"#utility.yul\":14676:15095   */\n    tag_128:\n        /* \"#utility.yul\":14842:14846   */\n      0x00\n        /* \"#utility.yul\":14880:14882   */\n      0x20\n        /* \"#utility.yul\":14869:14878   */\n      dup3\n        /* \"#utility.yul\":14865:14883   */\n      add\n        /* \"#utility.yul\":14857:14883   */\n      swap1\n      pop\n        /* \"#utility.yul\":14929:14938   */\n      dup2\n        /* \"#utility.yul\":14923:14927   */\n      dup2\n        /* \"#utility.yul\":14919:14939   */\n      sub\n        /* \"#utility.yul\":14915:14916   */\n      0x00\n        /* \"#utility.yul\":14904:14913   */\n      dup4\n        /* \"#utility.yul\":14900:14917   */\n      add\n        /* \"#utility.yul\":14893:14940   */\n      mstore\n        /* \"#utility.yul\":14957:15088   */\n      tag_625\n        /* \"#utility.yul\":15083:15087   */\n      dup2\n        /* \"#utility.yul\":14957:15088   */\n      tag_459\n      jump\t// in\n    tag_625:\n        /* \"#utility.yul\":14949:15088   */\n      swap1\n      pop\n        /* \"#utility.yul\":14676:15095   */\n      swap2\n      swap1\n      pop\n      jump\t// out\n        /* \"#utility.yul\":15101:15335   */\n    tag_460:\n        /* \"#utility.yul\":15241:15275   */\n      0x4f6e6c7920746865206170706c69636174696f6e2063616e2065786563757465\n        /* \"#utility.yul\":15237:15238   */\n      0x00\n        /* \"#utility.yul\":15229:15235   */\n      dup3\n        /* \"#utility.yul\":15225:15239   */\n      add\n        /* \"#utility.yul\":15218:15276   */\n      mstore\n        /* \"#utility.yul\":15310:15327   */\n      0x2074686973206f7065726174696f6e0000000000000000000000000000000000\n        /* \"#utility.yul\":15305:15307   */\n      0x20\n        /* \"#utility.yul\":15297:15303   */\n      dup3\n        /* \"#utility.yul\":15293:15308   */\n      add\n        /* \"#utility.yul\":15286:15328   */\n      mstore\n        /* \"#utility.yul\":15101:15335   */\n      pop\n      jump\t// out\n        /* \"#utility.yul\":15341:15707   */\n    tag_461:\n        /* \"#utility.yul\":15483:15486   */\n      0x00\n        /* \"#utility.yul\":15504:15571   */\n      tag_628\n        /* \"#utility.yul\":15568:15570   */\n      0x2f\n        /* \"#utility.yul\":15563:15566   */\n      dup4\n        /* \"#utility.yul\":15504:15571   */\n      tag_450\n      jump\t// in\n    tag_628:\n        /* \"#utility.yul\":15497:15571   */\n      swap2\n      pop\n        /* \"#utility.yul\":15580:15673   */\n      tag_629\n        /* \"#utility.yul\":15669:15672   */\n      dup3\n        /* \"#utility.yul\":15580:15673   */\n      tag_460\n      jump\t// in\n    tag_629:\n        /* \"#utility.yul\":15698:15700   */\n      0x40\n        /* \"#utility.yul\":15693:15696   */\n      dup3\n        /* \"#utility.yul\":15689:15701   */\n      add\n        /* \"#utility.yul\":15682:15701   */\n      swap1\n      pop\n        /* \"#utility.yul\":15341:15707   */\n      swap2\n      swap1\n      pop\n      jump\t// out\n        /* \"#utility.yul\":15713:16132   */\n    tag_134:\n        /* \"#utility.yul\":15879:15883   */\n      0x00\n        /* \"#utility.yul\":15917:15919   */\n      0x20\n        /* \"#utility.yul\":15906:15915   */\n      dup3\n        /* \"#utility.yul\":15902:15920   */\n      add\n        /* \"#utility.yul\":15894:15920   */\n      swap1\n      pop\n        /* \"#utility.yul\":15966:15975   */\n      dup2\n        /* \"#utility.yul\":15960:15964   */\n      dup2\n        /* \"#utility.yul\":15956:15976   */\n      sub\n        /* \"#utility.yul\":15952:15953   */\n      0x00\n        /* \"#utility.yul\":15941:15950   */\n      dup4\n        /* \"#utility.yul\":15937:15954   */\n      add\n        /* \"#utility.yul\":15930:15977   */\n      mstore\n        /* \"#utility.yul\":15994:16125   */\n      tag_631\n        /* \"#utility.yul\":16120:16124   */\n      dup2\n        /* \"#utility.yul\":15994:16125   */\n      tag_461\n      jump\t// in\n    tag_631:\n        /* \"#utility.yul\":15986:16125   */\n      swap1\n      pop\n        /* \"#utility.yul\":15713:16132   */\n      swap2\n      swap1\n      pop\n      jump\t// out\n        /* \"#utility.yul\":16138:16433   */\n    tag_462:\n        /* \"#utility.yul\":16278:16312   */\n      0x546865204170706c69636174696f6e2070617274792073686f756c6420736967\n        /* \"#utility.yul\":16274:16275   */\n      0x00\n        /* \"#utility.yul\":16266:16272   */\n      dup3\n        /* \"#utility.yul\":16262:16276   */\n      add\n        /* \"#utility.yul\":16255:16313   */\n      mstore\n        /* \"#utility.yul\":16347:16381   */\n      0x6e2074686520636f6e7472616374206265666f726520696e7465726163742077\n        /* \"#utility.yul\":16342:16344   */\n      0x20\n        /* \"#utility.yul\":16334:16340   */\n      dup3\n        /* \"#utility.yul\":16330:16345   */\n      add\n        /* \"#utility.yul\":16323:16382   */\n      mstore\n        /* \"#utility.yul\":16416:16425   */\n      0x6974682069742e00000000000000000000000000000000000000000000000000\n        /* \"#utility.yul\":16411:16413   */\n      0x40\n        /* \"#utility.yul\":16403:16409   */\n      dup3\n        /* \"#utility.yul\":16399:16414   */\n      add\n        /* \"#utility.yul\":16392:16426   */\n      mstore\n        /* \"#utility.yul\":16138:16433   */\n      pop\n      jump\t// out\n        /* \"#utility.yul\":16439:16805   */\n    tag_463:\n        /* \"#utility.yul\":16581:16584   */\n      0x00\n        /* \"#utility.yul\":16602:16669   */\n      tag_634\n        /* \"#utility.yul\":16666:16668   */\n      0x47\n        /* \"#utility.yul\":16661:16664   */\n      dup4\n        /* \"#utility.yul\":16602:16669   */\n      tag_450\n      jump\t// in\n    tag_634:\n        /* \"#utility.yul\":16595:16669   */\n      swap2\n      pop\n        /* \"#utility.yul\":16678:16771   */\n      tag_635\n        /* \"#utility.yul\":16767:16770   */\n      dup3\n        /* \"#utility.yul\":16678:16771   */\n      tag_462\n      jump\t// in\n    tag_635:\n        /* \"#utility.yul\":16796:16798   */\n      0x60\n        /* \"#utility.yul\":16791:16794   */\n      dup3\n        /* \"#utility.yul\":16787:16799   */\n      add\n        /* \"#utility.yul\":16780:16799   */\n      swap1\n      pop\n        /* \"#utility.yul\":16439:16805   */\n      swap2\n      swap1\n      pop\n      jump\t// out\n        /* \"#utility.yul\":16811:17230   */\n    tag_145:\n        /* \"#utility.yul\":16977:16981   */\n      0x00\n        /* \"#utility.yul\":17015:17017   */\n      0x20\n        /* \"#utility.yul\":17004:17013   */\n      dup3\n        /* \"#utility.yul\":17000:17018   */\n      add\n        /* \"#utility.yul\":16992:17018   */\n      swap1\n      pop\n        /* \"#utility.yul\":17064:17073   */\n      dup2\n        /* \"#utility.yul\":17058:17062   */\n      dup2\n        /* \"#utility.yul\":17054:17074   */\n      sub\n        /* \"#utility.yul\":17050:17051   */\n      0x00\n        /* \"#utility.yul\":17039:17048   */\n      dup4\n        /* \"#utility.yul\":17035:17052   */\n      add\n        /* \"#utility.yul\":17028:17075   */\n      mstore\n        /* \"#utility.yul\":17092:17223   */\n      tag_637\n        /* \"#utility.yul\":17218:17222   */\n      dup2\n        /* \"#utility.yul\":17092:17223   */\n      tag_463\n      jump\t// in\n    tag_637:\n        /* \"#utility.yul\":17084:17223   */\n      swap1\n      pop\n        /* \"#utility.yul\":16811:17230   */\n      swap2\n      swap1\n      pop\n      jump\t// out\n        /* \"#utility.yul\":17236:17526   */\n    tag_464:\n        /* \"#utility.yul\":17376:17410   */\n      0x526573706f6e736520706572666f726d6564206f757473696465206f66207469\n        /* \"#utility.yul\":17372:17373   */\n      0x00\n        /* \"#utility.yul\":17364:17370   */\n      dup3\n        /* \"#utility.yul\":17360:17374   */\n      add\n        /* \"#utility.yul\":17353:17411   */\n      mstore\n        /* \"#utility.yul\":17445:17479   */\n      0x6d65206c696d6974206f722064656c69766572792074696d6520746f6f206c6f\n        /* \"#utility.yul\":17440:17442   */\n      0x20\n        /* \"#utility.yul\":17432:17438   */\n      dup3\n        /* \"#utility.yul\":17428:17443   */\n      add\n        /* \"#utility.yul\":17421:17480   */\n      mstore\n        /* \"#utility.yul\":17514:17518   */\n      0x6e67000000000000000000000000000000000000000000000000000000000000\n        /* \"#utility.yul\":17509:17511   */\n      0x40\n        /* \"#utility.yul\":17501:17507   */\n      dup3\n        /* \"#utility.yul\":17497:17512   */\n      add\n        /* \"#utility.yul\":17490:17519   */\n      mstore\n        /* \"#utility.yul\":17236:17526   */\n      pop\n      jump\t// out\n        /* \"#utility.yul\":17532:17898   */\n    tag_465:\n        /* \"#utility.yul\":17674:17677   */\n      0x00\n        /* \"#utility.yul\":17695:17762   */\n      tag_640\n        /* \"#utility.yul\":17759:17761   */\n      0x42\n        /* \"#utility.yul\":17754:17757   */\n      dup4\n        /* \"#utility.yul\":17695:17762   */\n      tag_450\n      jump\t// in\n    tag_640:\n        /* \"#utility.yul\":17688:17762   */\n      swap2\n      pop\n        /* \"#utility.yul\":17771:17864   */\n      tag_641\n        /* \"#utility.yul\":17860:17863   */\n      dup3\n        /* \"#utility.yul\":17771:17864   */\n      tag_464\n      jump\t// in\n    tag_641:\n        /* \"#utility.yul\":17889:17891   */\n      0x60\n        /* \"#utility.yul\":17884:17887   */\n      dup3\n        /* \"#utility.yul\":17880:17892   */\n      add\n        /* \"#utility.yul\":17873:17892   */\n      swap1\n      pop\n        /* \"#utility.yul\":17532:17898   */\n      swap2\n      swap1\n      pop\n      jump\t// out\n        /* \"#utility.yul\":17904:18323   */\n    tag_176:\n        /* \"#utility.yul\":18070:18074   */\n      0x00\n        /* \"#utility.yul\":18108:18110   */\n      0x20\n        /* \"#utility.yul\":18097:18106   */\n      dup3\n        /* \"#utility.yul\":18093:18111   */\n      add\n        /* \"#utility.yul\":18085:18111   */\n      swap1\n      pop\n        /* \"#utility.yul\":18157:18166   */\n      dup2\n        /* \"#utility.yul\":18151:18155   */\n      dup2\n        /* \"#utility.yul\":18147:18167   */\n      sub\n        /* \"#utility.yul\":18143:18144   */\n      0x00\n        /* \"#utility.yul\":18132:18141   */\n      dup4\n        /* \"#utility.yul\":18128:18145   */\n      add\n        /* \"#utility.yul\":18121:18168   */\n      mstore\n        /* \"#utility.yul\":18185:18316   */\n      tag_643\n        /* \"#utility.yul\":18311:18315   */\n      dup2\n        /* \"#utility.yul\":18185:18316   */\n      tag_465\n      jump\t// in\n    tag_643:\n        /* \"#utility.yul\":18177:18316   */\n      swap1\n      pop\n        /* \"#utility.yul\":17904:18323   */\n      swap2\n      swap1\n      pop\n      jump\t// out\n        /* \"#utility.yul\":18329:18578   */\n    tag_466:\n        /* \"#utility.yul\":18469:18503   */\n      0x4f6e6c79207468652070726f63657373206f7220746865206170706c69636174\n        /* \"#utility.yul\":18465:18466   */\n      0x00\n        /* \"#utility.yul\":18457:18463   */\n      dup3\n        /* \"#utility.yul\":18453:18467   */\n      add\n        /* \"#utility.yul\":18446:18504   */\n      mstore\n        /* \"#utility.yul\":18538:18570   */\n      0x696f6e2063616e20657865637574652074686973206f7065726174696f6e0000\n        /* \"#utility.yul\":18533:18535   */\n      0x20\n        /* \"#utility.yul\":18525:18531   */\n      dup3\n        /* \"#utility.yul\":18521:18536   */\n      add\n        /* \"#utility.yul\":18514:18571   */\n      mstore\n        /* \"#utility.yul\":18329:18578   */\n      pop\n      jump\t// out\n        /* \"#utility.yul\":18584:18950   */\n    tag_467:\n        /* \"#utility.yul\":18726:18729   */\n      0x00\n        /* \"#utility.yul\":18747:18814   */\n      tag_646\n        /* \"#utility.yul\":18811:18813   */\n      0x3e\n        /* \"#utility.yul\":18806:18809   */\n      dup4\n        /* \"#utility.yul\":18747:18814   */\n      tag_450\n      jump\t// in\n    tag_646:\n        /* \"#utility.yul\":18740:18814   */\n      swap2\n      pop\n        /* \"#utility.yul\":18823:18916   */\n      tag_647\n        /* \"#utility.yul\":18912:18915   */\n      dup3\n        /* \"#utility.yul\":18823:18916   */\n      tag_466\n      jump\t// in\n    tag_647:\n        /* \"#utility.yul\":18941:18943   */\n      0x40\n        /* \"#utility.yul\":18936:18939   */\n      dup3\n        /* \"#utility.yul\":18932:18944   */\n      add\n        /* \"#utility.yul\":18925:18944   */\n      swap1\n      pop\n        /* \"#utility.yul\":18584:18950   */\n      swap2\n      swap1\n      pop\n      jump\t// out\n        /* \"#utility.yul\":18956:19375   */\n    tag_193:\n        /* \"#utility.yul\":19122:19126   */\n      0x00\n        /* \"#utility.yul\":19160:19162   */\n      0x20\n        /* \"#utility.yul\":19149:19158   */\n      dup3\n        /* \"#utility.yul\":19145:19163   */\n      add\n        /* \"#utility.yul\":19137:19163   */\n      swap1\n      pop\n        /* \"#utility.yul\":19209:19218   */\n      dup2\n        /* \"#utility.yul\":19203:19207   */\n      dup2\n        /* \"#utility.yul\":19199:19219   */\n      sub\n        /* \"#utility.yul\":19195:19196   */\n      0x00\n        /* \"#utility.yul\":19184:19193   */\n      dup4\n        /* \"#utility.yul\":19180:19197   */\n      add\n        /* \"#utility.yul\":19173:19220   */\n      mstore\n        /* \"#utility.yul\":19237:19368   */\n      tag_649\n        /* \"#utility.yul\":19363:19367   */\n      dup2\n        /* \"#utility.yul\":19237:19368   */\n      tag_467\n      jump\t// in\n    tag_649:\n        /* \"#utility.yul\":19229:19368   */\n      swap1\n      pop\n        /* \"#utility.yul\":18956:19375   */\n      swap2\n      swap1\n      pop\n      jump\t// out\n        /* \"#utility.yul\":19381:19561   */\n    tag_468:\n        /* \"#utility.yul\":19521:19553   */\n      0x54686520636f6e747261637420697320616c7265616479207369676e65640000\n        /* \"#utility.yul\":19517:19518   */\n      0x00\n        /* \"#utility.yul\":19509:19515   */\n      dup3\n        /* \"#utility.yul\":19505:19519   */\n      add\n        /* \"#utility.yul\":19498:19554   */\n      mstore\n        /* \"#utility.yul\":19381:19561   */\n      pop\n      jump\t// out\n        /* \"#utility.yul\":19567:19933   */\n    tag_469:\n        /* \"#utility.yul\":19709:19712   */\n      0x00\n        /* \"#utility.yul\":19730:19797   */\n      tag_652\n        /* \"#utility.yul\":19794:19796   */\n      0x1e\n        /* \"#utility.yul\":19789:19792   */\n      dup4\n        /* \"#utility.yul\":19730:19797   */\n      tag_450\n      jump\t// in\n    tag_652:\n        /* \"#utility.yul\":19723:19797   */\n      swap2\n      pop\n        /* \"#utility.yul\":19806:19899   */\n      tag_653\n        /* \"#utility.yul\":19895:19898   */\n      dup3\n        /* \"#utility.yul\":19806:19899   */\n      tag_468\n      jump\t// in\n    tag_653:\n        /* \"#utility.yul\":19924:19926   */\n      0x20\n        /* \"#utility.yul\":19919:19922   */\n      dup3\n        /* \"#utility.yul\":19915:19927   */\n      add\n        /* \"#utility.yul\":19908:19927   */\n      swap1\n      pop\n        /* \"#utility.yul\":19567:19933   */\n      swap2\n      swap1\n      pop\n      jump\t// out\n        /* \"#utility.yul\":19939:20358   */\n    tag_210:\n        /* \"#utility.yul\":20105:20109   */\n      0x00\n        /* \"#utility.yul\":20143:20145   */\n      0x20\n        /* \"#utility.yul\":20132:20141   */\n      dup3\n        /* \"#utility.yul\":20128:20146   */\n      add\n        /* \"#utility.yul\":20120:20146   */\n      swap1\n      pop\n        /* \"#utility.yul\":20192:20201   */\n      dup2\n        /* \"#utility.yul\":20186:20190   */\n      dup2\n        /* \"#utility.yul\":20182:20202   */\n      sub\n        /* \"#utility.yul\":20178:20179   */\n      0x00\n        /* \"#utility.yul\":20167:20176   */\n      dup4\n        /* \"#utility.yul\":20163:20180   */\n      add\n        /* \"#utility.yul\":20156:20203   */\n      mstore\n        /* \"#utility.yul\":20220:20351   */\n      tag_655\n        /* \"#utility.yul\":20346:20350   */\n      dup2\n        /* \"#utility.yul\":20220:20351   */\n      tag_469\n      jump\t// in\n    tag_655:\n        /* \"#utility.yul\":20212:20351   */\n      swap1\n      pop\n        /* \"#utility.yul\":19939:20358   */\n      swap2\n      swap1\n      pop\n      jump\t// out\n        /* \"#utility.yul\":20364:20544   */\n    tag_470:\n        /* \"#utility.yul\":20504:20536   */\n      0x436f6d70617269736f6e2073796d626f6c206973206e6f742076616c69640000\n        /* \"#utility.yul\":20500:20501   */\n      0x00\n        /* \"#utility.yul\":20492:20498   */\n      dup3\n        /* \"#utility.yul\":20488:20502   */\n      add\n        /* \"#utility.yul\":20481:20537   */\n      mstore\n        /* \"#utility.yul\":20364:20544   */\n      pop\n      jump\t// out\n        /* \"#utility.yul\":20550:20916   */\n    tag_471:\n        /* \"#utility.yul\":20692:20695   */\n      0x00\n        /* \"#utility.yul\":20713:20780   */\n      tag_658\n        /* \"#utility.yul\":20777:20779   */\n      0x1e\n        /* \"#utility.yul\":20772:20775   */\n      dup4\n        /* \"#utility.yul\":20713:20780   */\n      tag_450\n      jump\t// in\n    tag_658:\n        /* \"#utility.yul\":20706:20780   */\n      swap2\n      pop\n        /* \"#utility.yul\":20789:20882   */\n      tag_659\n        /* \"#utility.yul\":20878:20881   */\n      dup3\n        /* \"#utility.yul\":20789:20882   */\n      tag_470\n      jump\t// in\n    tag_659:\n        /* \"#utility.yul\":20907:20909   */\n      0x20\n        /* \"#utility.yul\":20902:20905   */\n      dup3\n        /* \"#utility.yul\":20898:20910   */\n      add\n        /* \"#utility.yul\":20891:20910   */\n      swap1\n      pop\n        /* \"#utility.yul\":20550:20916   */\n      swap2\n      swap1\n      pop\n      jump\t// out\n        /* \"#utility.yul\":20922:21341   */\n    tag_270:\n        /* \"#utility.yul\":21088:21092   */\n      0x00\n        /* \"#utility.yul\":21126:21128   */\n      0x20\n        /* \"#utility.yul\":21115:21124   */\n      dup3\n        /* \"#utility.yul\":21111:21129   */\n      add\n        /* \"#utility.yul\":21103:21129   */\n      swap1\n      pop\n        /* \"#utility.yul\":21175:21184   */\n      dup2\n        /* \"#utility.yul\":21169:21173   */\n      dup2\n        /* \"#utility.yul\":21165:21185   */\n      sub\n        /* \"#utility.yul\":21161:21162   */\n      0x00\n        /* \"#utility.yul\":21150:21159   */\n      dup4\n        /* \"#utility.yul\":21146:21163   */\n      add\n        /* \"#utility.yul\":21139:21186   */\n      mstore\n        /* \"#utility.yul\":21203:21334   */\n      tag_661\n        /* \"#utility.yul\":21329:21333   */\n      dup2\n        /* \"#utility.yul\":21203:21334   */\n      tag_471\n      jump\t// in\n    tag_661:\n        /* \"#utility.yul\":21195:21334   */\n      swap1\n      pop\n        /* \"#utility.yul\":20922:21341   */\n      swap2\n      swap1\n      pop\n      jump\t// out\n        /* \"#utility.yul\":21347:21527   */\n    tag_472:\n        /* \"#utility.yul\":21395:21472   */\n      0x4e487b7100000000000000000000000000000000000000000000000000000000\n        /* \"#utility.yul\":21392:21393   */\n      0x00\n        /* \"#utility.yul\":21385:21473   */\n      mstore\n        /* \"#utility.yul\":21492:21496   */\n      0x11\n        /* \"#utility.yul\":21489:21490   */\n      0x04\n        /* \"#utility.yul\":21482:21497   */\n      mstore\n        /* \"#utility.yul\":21516:21520   */\n      0x24\n        /* \"#utility.yul\":21513:21514   */\n      0x00\n        /* \"#utility.yul\":21506:21521   */\n      revert\n        /* \"#utility.yul\":21533:21721   */\n    tag_275:\n        /* \"#utility.yul\":21572:21576   */\n      0x00\n        /* \"#utility.yul\":21592:21611   */\n      tag_664\n        /* \"#utility.yul\":21609:21610   */\n      dup3\n        /* \"#utility.yul\":21592:21611   */\n      tag_417\n      jump\t// in\n    tag_664:\n        /* \"#utility.yul\":21587:21611   */\n      swap2\n      pop\n        /* \"#utility.yul\":21625:21644   */\n      tag_665\n        /* \"#utility.yul\":21642:21643   */\n      dup4\n        /* \"#utility.yul\":21625:21644   */\n      tag_417\n      jump\t// in\n    tag_665:\n        /* \"#utility.yul\":21620:21644   */\n      swap3\n      pop\n        /* \"#utility.yul\":21663:21664   */\n      dup3\n        /* \"#utility.yul\":21660:21661   */\n      dup3\n        /* \"#utility.yul\":21657:21665   */\n      lt\n        /* \"#utility.yul\":21654:21688   */\n      iszero\n      tag_666\n      jumpi\n        /* \"#utility.yul\":21668:21686   */\n      tag_667\n      tag_472\n      jump\t// in\n    tag_667:\n        /* \"#utility.yul\":21654:21688   */\n    tag_666:\n        /* \"#utility.yul\":21713:21714   */\n      dup3\n        /* \"#utility.yul\":21710:21711   */\n      dup3\n        /* \"#utility.yul\":21706:21715   */\n      sub\n        /* \"#utility.yul\":21698:21715   */\n      swap1\n      pop\n        /* \"#utility.yul\":21533:21721   */\n      swap3\n      swap2\n      pop\n      pop\n      jump\t// out\n        /* \"#utility.yul\":21727:21973   */\n    tag_282:\n        /* \"#utility.yul\":21766:21769   */\n      0x00\n        /* \"#utility.yul\":21785:21804   */\n      tag_669\n        /* \"#utility.yul\":21802:21803   */\n      dup3\n        /* \"#utility.yul\":21785:21804   */\n      tag_417\n      jump\t// in\n    tag_669:\n        /* \"#utility.yul\":21780:21804   */\n      swap2\n      pop\n        /* \"#utility.yul\":21818:21837   */\n      tag_670\n        /* \"#utility.yul\":21835:21836   */\n      dup4\n        /* \"#utility.yul\":21818:21837   */\n      tag_417\n      jump\t// in\n    tag_670:\n        /* \"#utility.yul\":21813:21837   */\n      swap3\n      pop\n        /* \"#utility.yul\":21915:21916   */\n      dup3\n        /* \"#utility.yul\":21903:21913   */\n      0xffffffff\n        /* \"#utility.yul\":21899:21917   */\n      sub\n        /* \"#utility.yul\":21896:21897   */\n      dup3\n        /* \"#utility.yul\":21893:21918   */\n      gt\n        /* \"#utility.yul\":21890:21941   */\n      iszero\n      tag_671\n      jumpi\n        /* \"#utility.yul\":21921:21939   */\n      tag_672\n      tag_472\n      jump\t// in\n    tag_672:\n        /* \"#utility.yul\":21890:21941   */\n    tag_671:\n        /* \"#utility.yul\":21965:21966   */\n      dup3\n        /* \"#utility.yul\":21962:21963   */\n      dup3\n        /* \"#utility.yul\":21958:21967   */\n      add\n        /* \"#utility.yul\":21951:21967   */\n      swap1\n      pop\n        /* \"#utility.yul\":21727:21973   */\n      swap3\n      swap2\n      pop\n      pop\n      jump\t// out\n        /* \"#utility.yul\":21979:22200   */\n    tag_473:\n        /* \"#utility.yul\":22119:22153   */\n      0x5468657265206973206e6f20656e6454696d652073657420696e2074696d656f\n        /* \"#utility.yul\":22115:22116   */\n      0x00\n        /* \"#utility.yul\":22107:22113   */\n      dup3\n        /* \"#utility.yul\":22103:22117   */\n      add\n        /* \"#utility.yul\":22096:22154   */\n      mstore\n        /* \"#utility.yul\":22188:22192   */\n      0x7574000000000000000000000000000000000000000000000000000000000000\n        /* \"#utility.yul\":22183:22185   */\n      0x20\n        /* \"#utility.yul\":22175:22181   */\n      dup3\n        /* \"#utility.yul\":22171:22186   */\n      add\n        /* \"#utility.yul\":22164:22193   */\n      mstore\n        /* \"#utility.yul\":21979:22200   */\n      pop\n      jump\t// out\n        /* \"#utility.yul\":22206:22572   */\n    tag_474:\n        /* \"#utility.yul\":22348:22351   */\n      0x00\n        /* \"#utility.yul\":22369:22436   */\n      tag_675\n        /* \"#utility.yul\":22433:22435   */\n      0x22\n        /* \"#utility.yul\":22428:22431   */\n      dup4\n        /* \"#utility.yul\":22369:22436   */\n      tag_450\n      jump\t// in\n    tag_675:\n        /* \"#utility.yul\":22362:22436   */\n      swap2\n      pop\n        /* \"#utility.yul\":22445:22538   */\n      tag_676\n        /* \"#utility.yul\":22534:22537   */\n      dup3\n        /* \"#utility.yul\":22445:22538   */\n      tag_473\n      jump\t// in\n    tag_676:\n        /* \"#utility.yul\":22563:22565   */\n      0x40\n        /* \"#utility.yul\":22558:22561   */\n      dup3\n        /* \"#utility.yul\":22554:22566   */\n      add\n        /* \"#utility.yul\":22547:22566   */\n      swap1\n      pop\n        /* \"#utility.yul\":22206:22572   */\n      swap2\n      swap1\n      pop\n      jump\t// out\n        /* \"#utility.yul\":22578:22997   */\n    tag_290:\n        /* \"#utility.yul\":22744:22748   */\n      0x00\n        /* \"#utility.yul\":22782:22784   */\n      0x20\n        /* \"#utility.yul\":22771:22780   */\n      dup3\n        /* \"#utility.yul\":22767:22785   */\n      add\n        /* \"#utility.yul\":22759:22785   */\n      swap1\n      pop\n        /* \"#utility.yul\":22831:22840   */\n      dup2\n        /* \"#utility.yul\":22825:22829   */\n      dup2\n        /* \"#utility.yul\":22821:22841   */\n      sub\n        /* \"#utility.yul\":22817:22818   */\n      0x00\n        /* \"#utility.yul\":22806:22815   */\n      dup4\n        /* \"#utility.yul\":22802:22819   */\n      add\n        /* \"#utility.yul\":22795:22842   */\n      mstore\n        /* \"#utility.yul\":22859:22990   */\n      tag_678\n        /* \"#utility.yul\":22985:22989   */\n      dup2\n        /* \"#utility.yul\":22859:22990   */\n      tag_474\n      jump\t// in\n    tag_678:\n        /* \"#utility.yul\":22851:22990   */\n      swap1\n      pop\n        /* \"#utility.yul\":22578:22997   */\n      swap2\n      swap1\n      pop\n      jump\t// out\n        /* \"#utility.yul\":23003:23249   */\n    tag_475:\n        /* \"#utility.yul\":23143:23177   */\n      0x546865206d6574686f642067657454696d65496e5365636f6e647320646f6573\n        /* \"#utility.yul\":23139:23140   */\n      0x00\n        /* \"#utility.yul\":23131:23137   */\n      dup3\n        /* \"#utility.yul\":23127:23141   */\n      add\n        /* \"#utility.yul\":23120:23178   */\n      mstore\n        /* \"#utility.yul\":23212:23241   */\n      0x6e277420776f726b20666f72204d4f4e544820616e6420594541520000000000\n        /* \"#utility.yul\":23207:23209   */\n      0x20\n        /* \"#utility.yul\":23199:23205   */\n      dup3\n        /* \"#utility.yul\":23195:23210   */\n      add\n        /* \"#utility.yul\":23188:23242   */\n      mstore\n        /* \"#utility.yul\":23003:23249   */\n      pop\n      jump\t// out\n        /* \"#utility.yul\":23255:23621   */\n    tag_476:\n        /* \"#utility.yul\":23397:23400   */\n      0x00\n        /* \"#utility.yul\":23418:23485   */\n      tag_681\n        /* \"#utility.yul\":23482:23484   */\n      0x3b\n        /* \"#utility.yul\":23477:23480   */\n      dup4\n        /* \"#utility.yul\":23418:23485   */\n      tag_450\n      jump\t// in\n    tag_681:\n        /* \"#utility.yul\":23411:23485   */\n      swap2\n      pop\n        /* \"#utility.yul\":23494:23587   */\n      tag_682\n        /* \"#utility.yul\":23583:23586   */\n      dup3\n        /* \"#utility.yul\":23494:23587   */\n      tag_475\n      jump\t// in\n    tag_682:\n        /* \"#utility.yul\":23612:23614   */\n      0x40\n        /* \"#utility.yul\":23607:23610   */\n      dup3\n        /* \"#utility.yul\":23603:23615   */\n      add\n        /* \"#utility.yul\":23596:23615   */\n      swap1\n      pop\n        /* \"#utility.yul\":23255:23621   */\n      swap2\n      swap1\n      pop\n      jump\t// out\n        /* \"#utility.yul\":23627:24046   */\n    tag_298:\n        /* \"#utility.yul\":23793:23797   */\n      0x00\n        /* \"#utility.yul\":23831:23833   */\n      0x20\n        /* \"#utility.yul\":23820:23829   */\n      dup3\n        /* \"#utility.yul\":23816:23834   */\n      add\n        /* \"#utility.yul\":23808:23834   */\n      swap1\n      pop\n        /* \"#utility.yul\":23880:23889   */\n      dup2\n        /* \"#utility.yul\":23874:23878   */\n      dup2\n        /* \"#utility.yul\":23870:23890   */\n      sub\n        /* \"#utility.yul\":23866:23867   */\n      0x00\n        /* \"#utility.yul\":23855:23864   */\n      dup4\n        /* \"#utility.yul\":23851:23868   */\n      add\n        /* \"#utility.yul\":23844:23891   */\n      mstore\n        /* \"#utility.yul\":23908:24039   */\n      tag_684\n        /* \"#utility.yul\":24034:24038   */\n      dup2\n        /* \"#utility.yul\":23908:24039   */\n      tag_476\n      jump\t// in\n    tag_684:\n        /* \"#utility.yul\":23900:24039   */\n      swap1\n      pop\n        /* \"#utility.yul\":23627:24046   */\n      swap2\n      swap1\n      pop\n      jump\t// out\n        /* \"#utility.yul\":24052:24129   */\n    tag_477:\n        /* \"#utility.yul\":24089:24096   */\n      0x00\n        /* \"#utility.yul\":24118:24123   */\n      dup2\n        /* \"#utility.yul\":24107:24123   */\n      swap1\n      pop\n        /* \"#utility.yul\":24052:24129   */\n      swap2\n      swap1\n      pop\n      jump\t// out\n        /* \"#utility.yul\":24135:24368   */\n    tag_324:\n        /* \"#utility.yul\":24174:24177   */\n      0x00\n        /* \"#utility.yul\":24197:24221   */\n      tag_687\n        /* \"#utility.yul\":24215:24220   */\n      dup3\n        /* \"#utility.yul\":24197:24221   */\n      tag_477\n      jump\t// in\n    tag_687:\n        /* \"#utility.yul\":24188:24221   */\n      swap2\n      pop\n        /* \"#utility.yul\":24243:24309   */\n      0xffffffffffffffffffffffffffffffffffffffffffffffffffffffffffffffff\n        /* \"#utility.yul\":24236:24241   */\n      dup3\n        /* \"#utility.yul\":24233:24310   */\n      sub\n        /* \"#utility.yul\":24230:24333   */\n      tag_688\n      jumpi\n        /* \"#utility.yul\":24313:24331   */\n      tag_689\n      tag_472\n      jump\t// in\n    tag_689:\n        /* \"#utility.yul\":24230:24333   */\n    tag_688:\n        /* \"#utility.yul\":24360:24361   */\n      0x01\n        /* \"#utility.yul\":24353:24358   */\n      dup3\n        /* \"#utility.yul\":24349:24362   */\n      add\n        /* \"#utility.yul\":24342:24362   */\n      swap1\n      pop\n        /* \"#utility.yul\":24135:24368   */\n      swap2\n      swap1\n      pop\n      jump\t// out\n        /* \"#utility.yul\":24374:24554   */\n    tag_478:\n        /* \"#utility.yul\":24422:24499   */\n      0x4e487b7100000000000000000000000000000000000000000000000000000000\n        /* \"#utility.yul\":24419:24420   */\n      0x00\n        /* \"#utility.yul\":24412:24500   */\n      mstore\n        /* \"#utility.yul\":24519:24523   */\n      0x12\n        /* \"#utility.yul\":24516:24517   */\n      0x04\n        /* \"#utility.yul\":24509:24524   */\n      mstore\n        /* \"#utility.yul\":24543:24547   */\n      0x24\n        /* \"#utility.yul\":24540:24541   */\n      0x00\n        /* \"#utility.yul\":24533:24548   */\n      revert\n        /* \"#utility.yul\":24560:24745   */\n    tag_326:\n        /* \"#utility.yul\":24600:24601   */\n      0x00\n        /* \"#utility.yul\":24617:24637   */\n      tag_692\n        /* \"#utility.yul\":24635:24636   */\n      dup3\n        /* \"#utility.yul\":24617:24637   */\n      tag_477\n      jump\t// in\n    tag_692:\n        /* \"#utility.yul\":24612:24637   */\n      swap2\n      pop\n        /* \"#utility.yul\":24651:24671   */\n      tag_693\n        /* \"#utility.yul\":24669:24670   */\n      dup4\n        /* \"#utility.yul\":24651:24671   */\n      tag_477\n      jump\t// in\n    tag_693:\n        /* \"#utility.yul\":24646:24671   */\n      swap3\n      pop\n        /* \"#utility.yul\":24690:24691   */\n      dup3\n        /* \"#utility.yul\":24680:24715   */\n      tag_694\n      jumpi\n        /* \"#utility.yul\":24695:24713   */\n      tag_695\n      tag_478\n      jump\t// in\n    tag_695:\n        /* \"#utility.yul\":24680:24715   */\n    tag_694:\n        /* \"#utility.yul\":24737:24738   */\n      dup3\n        /* \"#utility.yul\":24734:24735   */\n      dup3\n        /* \"#utility.yul\":24730:24739   */\n      div\n        /* \"#utility.yul\":24725:24739   */\n      swap1\n      pop\n        /* \"#utility.yul\":24560:24745   */\n      swap3\n      swap2\n      pop\n      pop\n      jump\t// out\n        /* \"#utility.yul\":24751:24942   */\n    tag_334:\n        /* \"#utility.yul\":24791:24795   */\n      0x00\n        /* \"#utility.yul\":24811:24831   */\n      tag_697\n        /* \"#utility.yul\":24829:24830   */\n      dup3\n        /* \"#utility.yul\":24811:24831   */\n      tag_477\n      jump\t// in\n    tag_697:\n        /* \"#utility.yul\":24806:24831   */\n      swap2\n      pop\n        /* \"#utility.yul\":24845:24865   */\n      tag_698\n        /* \"#utility.yul\":24863:24864   */\n      dup4\n        /* \"#utility.yul\":24845:24865   */\n      tag_477\n      jump\t// in\n    tag_698:\n        /* \"#utility.yul\":24840:24865   */\n      swap3\n      pop\n        /* \"#utility.yul\":24884:24885   */\n      dup3\n        /* \"#utility.yul\":24881:24882   */\n      dup3\n        /* \"#utility.yul\":24878:24886   */\n      lt\n        /* \"#utility.yul\":24875:24909   */\n      iszero\n      tag_699\n      jumpi\n        /* \"#utility.yul\":24889:24907   */\n      tag_700\n      tag_472\n      jump\t// in\n    tag_700:\n        /* \"#utility.yul\":24875:24909   */\n    tag_699:\n        /* \"#utility.yul\":24934:24935   */\n      dup3\n        /* \"#utility.yul\":24931:24932   */\n      dup3\n        /* \"#utility.yul\":24927:24936   */\n      sub\n        /* \"#utility.yul\":24919:24936   */\n      swap1\n      pop\n        /* \"#utility.yul\":24751:24942   */\n      swap3\n      swap2\n      pop\n      pop\n      jump\t// out\n        /* \"#utility.yul\":24948:25124   */\n    tag_336:\n        /* \"#utility.yul\":24980:24981   */\n      0x00\n        /* \"#utility.yul\":24997:25017   */\n      tag_702\n        /* \"#utility.yul\":25015:25016   */\n      dup3\n        /* \"#utility.yul\":24997:25017   */\n      tag_477\n      jump\t// in\n    tag_702:\n        /* \"#utility.yul\":24992:25017   */\n      swap2\n      pop\n        /* \"#utility.yul\":25031:25051   */\n      tag_703\n        /* \"#utility.yul\":25049:25050   */\n      dup4\n        /* \"#utility.yul\":25031:25051   */\n      tag_477\n      jump\t// in\n    tag_703:\n        /* \"#utility.yul\":25026:25051   */\n      swap3\n      pop\n        /* \"#utility.yul\":25070:25071   */\n      dup3\n        /* \"#utility.yul\":25060:25095   */\n      tag_704\n      jumpi\n        /* \"#utility.yul\":25075:25093   */\n      tag_705\n      tag_478\n      jump\t// in\n    tag_705:\n        /* \"#utility.yul\":25060:25095   */\n    tag_704:\n        /* \"#utility.yul\":25116:25117   */\n      dup3\n        /* \"#utility.yul\":25113:25114   */\n      dup3\n        /* \"#utility.yul\":25109:25118   */\n      mod\n        /* \"#utility.yul\":25104:25118   */\n      swap1\n      pop\n        /* \"#utility.yul\":24948:25124   */\n      swap3\n      swap2\n      pop\n      pop\n      jump\t// out\n        /* \"#utility.yul\":25130:25435   */\n    tag_338:\n        /* \"#utility.yul\":25170:25173   */\n      0x00\n        /* \"#utility.yul\":25189:25209   */\n      tag_707\n        /* \"#utility.yul\":25207:25208   */\n      dup3\n        /* \"#utility.yul\":25189:25209   */\n      tag_477\n      jump\t// in\n    tag_707:\n        /* \"#utility.yul\":25184:25209   */\n      swap2\n      pop\n        /* \"#utility.yul\":25223:25243   */\n      tag_708\n        /* \"#utility.yul\":25241:25242   */\n      dup4\n        /* \"#utility.yul\":25223:25243   */\n      tag_477\n      jump\t// in\n    tag_708:\n        /* \"#utility.yul\":25218:25243   */\n      swap3\n      pop\n        /* \"#utility.yul\":25377:25378   */\n      dup3\n        /* \"#utility.yul\":25309:25375   */\n      0xffffffffffffffffffffffffffffffffffffffffffffffffffffffffffffffff\n        /* \"#utility.yul\":25305:25379   */\n      sub\n        /* \"#utility.yul\":25302:25303   */\n      dup3\n        /* \"#utility.yul\":25299:25380   */\n      gt\n        /* \"#utility.yul\":25296:25403   */\n      iszero\n      tag_709\n      jumpi\n        /* \"#utility.yul\":25383:25401   */\n      tag_710\n      tag_472\n      jump\t// in\n    tag_710:\n        /* \"#utility.yul\":25296:25403   */\n    tag_709:\n        /* \"#utility.yul\":25427:25428   */\n      dup3\n        /* \"#utility.yul\":25424:25425   */\n      dup3\n        /* \"#utility.yul\":25420:25429   */\n      add\n        /* \"#utility.yul\":25413:25429   */\n      swap1\n      pop\n        /* \"#utility.yul\":25130:25435   */\n      swap3\n      swap2\n      pop\n      pop\n      jump\t// out\n        /* \"#utility.yul\":25441:25730   */\n    tag_347:\n        /* \"#utility.yul\":25480:25487   */\n      0x00\n        /* \"#utility.yul\":25503:25522   */\n      tag_712\n        /* \"#utility.yul\":25520:25521   */\n      dup3\n        /* \"#utility.yul\":25503:25522   */\n      tag_417\n      jump\t// in\n    tag_712:\n        /* \"#utility.yul\":25498:25522   */\n      swap2\n      pop\n        /* \"#utility.yul\":25536:25555   */\n      tag_713\n        /* \"#utility.yul\":25553:25554   */\n      dup4\n        /* \"#utility.yul\":25536:25555   */\n      tag_417\n      jump\t// in\n    tag_713:\n        /* \"#utility.yul\":25531:25555   */\n      swap3\n      pop\n        /* \"#utility.yul\":25667:25668   */\n      dup2\n        /* \"#utility.yul\":25655:25665   */\n      0xffffffff\n        /* \"#utility.yul\":25651:25669   */\n      div\n        /* \"#utility.yul\":25648:25649   */\n      dup4\n        /* \"#utility.yul\":25645:25670   */\n      gt\n        /* \"#utility.yul\":25640:25641   */\n      dup3\n        /* \"#utility.yul\":25633:25642   */\n      iszero\n        /* \"#utility.yul\":25626:25643   */\n      iszero\n        /* \"#utility.yul\":25622:25671   */\n      and\n        /* \"#utility.yul\":25619:25694   */\n      iszero\n      tag_714\n      jumpi\n        /* \"#utility.yul\":25674:25692   */\n      tag_715\n      tag_472\n      jump\t// in\n    tag_715:\n        /* \"#utility.yul\":25619:25694   */\n    tag_714:\n        /* \"#utility.yul\":25722:25723   */\n      dup3\n        /* \"#utility.yul\":25719:25720   */\n      dup3\n        /* \"#utility.yul\":25715:25724   */\n      mul\n        /* \"#utility.yul\":25704:25724   */\n      swap1\n      pop\n        /* \"#utility.yul\":25441:25730   */\n      swap3\n      swap2\n      pop\n      pop\n      jump\t// out\n        /* \"#utility.yul\":25736:25918   */\n    tag_349:\n        /* \"#utility.yul\":25775:25776   */\n      0x00\n        /* \"#utility.yul\":25792:25811   */\n      tag_717\n        /* \"#utility.yul\":25809:25810   */\n      dup3\n        /* \"#utility.yul\":25792:25811   */\n      tag_417\n      jump\t// in\n    tag_717:\n        /* \"#utility.yul\":25787:25811   */\n      swap2\n      pop\n        /* \"#utility.yul\":25825:25844   */\n      tag_718\n        /* \"#utility.yul\":25842:25843   */\n      dup4\n        /* \"#utility.yul\":25825:25844   */\n      tag_417\n      jump\t// in\n    tag_718:\n        /* \"#utility.yul\":25820:25844   */\n      swap3\n      pop\n        /* \"#utility.yul\":25863:25864   */\n      dup3\n        /* \"#utility.yul\":25853:25888   */\n      tag_719\n      jumpi\n        /* \"#utility.yul\":25868:25886   */\n      tag_720\n      tag_478\n      jump\t// in\n    tag_720:\n        /* \"#utility.yul\":25853:25888   */\n    tag_719:\n        /* \"#utility.yul\":25910:25911   */\n      dup3\n        /* \"#utility.yul\":25907:25908   */\n      dup3\n        /* \"#utility.yul\":25903:25912   */\n      div\n        /* \"#utility.yul\":25898:25912   */\n      swap1\n      pop\n        /* \"#utility.yul\":25736:25918   */\n      swap3\n      swap2\n      pop\n      pop\n      jump\t// out\n        /* \"#utility.yul\":25924:26097   */\n    tag_387:\n        /* \"#utility.yul\":25955:25956   */\n      0x00\n        /* \"#utility.yul\":25972:25991   */\n      tag_722\n        /* \"#utility.yul\":25989:25990   */\n      dup3\n        /* \"#utility.yul\":25972:25991   */\n      tag_417\n      jump\t// in\n    tag_722:\n        /* \"#utility.yul\":25967:25991   */\n      swap2\n      pop\n        /* \"#utility.yul\":26005:26024   */\n      tag_723\n        /* \"#utility.yul\":26022:26023   */\n      dup4\n        /* \"#utility.yul\":26005:26024   */\n      tag_417\n      jump\t// in\n    tag_723:\n        /* \"#utility.yul\":26000:26024   */\n      swap3\n      pop\n        /* \"#utility.yul\":26043:26044   */\n      dup3\n        /* \"#utility.yul\":26033:26068   */\n      tag_724\n      jumpi\n        /* \"#utility.yul\":26048:26066   */\n      tag_725\n      tag_478\n      jump\t// in\n    tag_725:\n        /* \"#utility.yul\":26033:26068   */\n    tag_724:\n        /* \"#utility.yul\":26089:26090   */\n      dup3\n        /* \"#utility.yul\":26086:26087   */\n      dup3\n        /* \"#utility.yul\":26082:26091   */\n      mod\n        /* \"#utility.yul\":26077:26091   */\n      swap1\n      pop\n        /* \"#utility.yul\":25924:26097   */\n      swap3\n      swap2\n      pop\n      pop\n      jump\t// out\n\n    auxdata: 0xa2646970667358221220ce568df155751d10794824fcedc16fa89498d6e6b40cd9afb0c5a39d1b0dda5a64736f6c634300080d0033\n}\n",
				"bytecode": {
					"linkReferences": {},
					"object": "60806040526040518060600160405280602e8152602001620044c6602e9139600690805190602001906200003592919062000ce2565b506040518060400160405280601c81526020017f2f2f626f64792f7061636b6167652f7765696768742f74657874282900000000815250600790805190602001906200008392919062000ce2565b503480156200009157600080fd5b50604051620044f4380380620044f48339818101604052810190620000b7919062000f5e565b60016000806101000a81548160ff0219169083151502179055506363b14488600060016101000a81548163ffffffff021916908363ffffffff1602179055506365927808600060056101000a81548163ffffffff021916908363ffffffff160217905550620001696040518060400160405280600f81526020017f44656c69766572792053797374656d000000000000000000000000000000000081525082600062000af460201b6200164e1760201c565b600160008201518160000190805190602001906200018992919062000ce2565b5060208201518160010160006101000a81548173ffffffffffffffffffffffffffffffffffffffff021916908373ffffffffffffffffffffffffffffffffffffffff16021790555060408201518160010160146101000a81548160ff021916908315150217905550905050620002426040518060400160405280601381526020017f496e746567726174696f6e2050726f636573730000000000000000000000000081525033600162000af460201b6200164e1760201c565b600360008201518160000190805190602001906200026292919062000ce2565b5060208201518160010160006101000a81548173ffffffffffffffffffffffffffffffffffffffff021916908373ffffffffffffffffffffffffffffffffffffffff16021790555060408201518160010160146101000a81548160ff0219169083151502179055509050506003600560003373ffffffffffffffffffffffffffffffffffffffff1673ffffffffffffffffffffffffffffffffffffffff1681526020019081526020016000206000820181600001908054620003249062000fbf565b6200033192919062000d73565b506001820160009054906101000a900473ffffffffffffffffffffffffffffffffffffffff168160010160006101000a81548173ffffffffffffffffffffffffffffffffffffffff021916908373ffffffffffffffffffffffffffffffffffffffff1602179055506001820160149054906101000a900460ff168160010160146101000a81548160ff0219169083151502179055509050506001600560008373ffffffffffffffffffffffffffffffffffffffff1673ffffffffffffffffffffffffffffffffffffffff1681526020019081526020016000206000820181600001908054620004209062000fbf565b6200042d92919062000d73565b506001820160009054906101000a900473ffffffffffffffffffffffffffffffffffffffff168160010160006101000a81548173ffffffffffffffffffffffffffffffffffffffff021916908373ffffffffffffffffffffffffffffffffffffffff1602179055506001820160149054906101000a900460ff168160010160146101000a81548160ff0219169083151502179055509050506008620004e06003600162000b3a60201b620016921760201c565b9080600181540180825580915050600190039060005260206000200160009091909190915060008201518160000160006101000a81548163ffffffff021916908363ffffffff16021790555060208201518160000160046101000a81548160ff021916908360ff16021790555060408201518160000160056101000a81548163ffffffff021916908363ffffffff16021790555060608201518160000160096101000a81548163ffffffff021916908363ffffffff160217905550608082015181600001600d6101000a81548163ffffffff021916908363ffffffff16021790555050506009620006a660068054620005d99062000fbf565b80601f0160208091040260200160405190810160405280929190818152602001828054620006079062000fbf565b8015620006585780601f106200062c5761010080835404028352916020019162000658565b820191906000526020600020905b8154815290600101906020018083116200063a57829003601f168201915b50505050506040518060400160405280600281526020017f3d3d000000000000000000000000000000000000000000000000000000000000815250600162000bbf60201b6200170b1760201c565b90806001815401808255809150506001900390600052602060002090600302016000909190919091506000820151816000019080519060200190620006ed92919062000ce2565b5060208201518160010190805190602001906200070c92919062000ce2565b506040820151816002015550506009620007fb600780546200072e9062000fbf565b80601f01602080910402602001604051908101604052809291908181526020018280546200075c9062000fbf565b8015620007ad5780601f106200078157610100808354040283529160200191620007ad565b820191906000526020600020905b8154815290600101906020018083116200078f57829003601f168201915b50505050506040518060400160405280600281526020017f3c3d000000000000000000000000000000000000000000000000000000000000815250606462000bbf60201b6200170b1760201c565b908060018154018082558091505060019003906000526020600020906003020160009091909190915060008201518160000190805190602001906200084292919062000ce2565b5060208201518160010190805190602001906200086192919062000ce2565b506040820151816002015550506009620008f46040518060400160405280601d81526020017f2f2f626f64792f6f726465722f746f74616c436f73742f7465787428290000008152506040518060400160405280600281526020017f3c3d000000000000000000000000000000000000000000000000000000000000815250614e2062000bbf60201b6200170b1760201c565b908060018154018082558091505060019003906000526020600020906003020160009091909190915060008201518160000190805190602001906200093b92919062000ce2565b5060208201518160010190805190602001906200095a92919062000ce2565b50604082015181600201555050600a62000980601462000bed60201b620017371760201c565b9080600181540180825580915050600190039060005260206000200160009091909190915060008201518160000160006101000a81548163ffffffff021916908363ffffffff16021790555060208201518160000160046101000a81548163ffffffff021916908363ffffffff1602179055505050600b62000a7a6040518060400160405280601c81526020017f2f2f6275646765742f64656c697665727954696d652f746578742829000000008152506040518060400160405280600281526020017f3c3d000000000000000000000000000000000000000000000000000000000000815250600f62000bbf60201b6200170b1760201c565b9080600181540180825580915050600190039060005260206000209060030201600090919091909150600082015181600001908051906020019062000ac192919062000ce2565b50602082015181600101908051906020019062000ae092919062000ce2565b50604082015181600201555050506200109d565b62000afe62000e0b565b60405180606001604052808581526020018473ffffffffffffffffffffffffffffffffffffffff16815260200183151581525090509392505050565b62000b4462000e44565b6000600460ff168360ff161162000b6e5762000b668362000c2060201b60201c565b905062000b73565b600190505b6040518060a001604052808563ffffffff1681526020018460ff1681526020018263ffffffff1681526020018563ffffffff168152602001600063ffffffff1681525091505092915050565b62000bc962000e8e565b60405180606001604052808581526020018481526020018381525090509392505050565b62000bf762000eaf565b6040518060400160405280600063ffffffff1681526020018363ffffffff168152509050919050565b6000600460ff168260ff16111562000c6f576040517f08c379a000000000000000000000000000000000000000000000000000000000815260040162000c66906200107b565b60405180910390fd5b600060ff168260ff160362000c88576001905062000cdd565b600160ff168260ff160362000ca157603c905062000cdd565b600260ff168260ff160362000cbb57610e10905062000cdd565b600360ff168260ff160362000cd65762015180905062000cdd565b62093a8090505b919050565b82805462000cf09062000fbf565b90600052602060002090601f01602090048101928262000d14576000855562000d60565b82601f1062000d2f57805160ff191683800117855562000d60565b8280016001018555821562000d60579182015b8281111562000d5f57825182559160200191906001019062000d42565b5b50905062000d6f919062000ed5565b5090565b82805462000d819062000fbf565b90600052602060002090601f01602090048101928262000da5576000855562000df8565b82601f1062000db8578054855562000df8565b8280016001018555821562000df857600052602060002091601f016020900482015b8281111562000df757825482559160010191906001019062000dda565b5b50905062000e07919062000ed5565b5090565b604051806060016040528060608152602001600073ffffffffffffffffffffffffffffffffffffffff1681526020016000151581525090565b6040518060a00160405280600063ffffffff168152602001600060ff168152602001600063ffffffff168152602001600063ffffffff168152602001600063ffffffff1681525090565b60405180606001604052806060815260200160608152602001600081525090565b6040518060400160405280600063ffffffff168152602001600063ffffffff1681525090565b5b8082111562000ef057600081600090555060010162000ed6565b5090565b600080fd5b600073ffffffffffffffffffffffffffffffffffffffff82169050919050565b600062000f268262000ef9565b9050919050565b62000f388162000f19565b811462000f4457600080fd5b50565b60008151905062000f588162000f2d565b92915050565b60006020828403121562000f775762000f7662000ef4565b5b600062000f878482850162000f47565b91505092915050565b7f4e487b7100000000000000000000000000000000000000000000000000000000600052602260045260246000fd5b6000600282049050600182168062000fd857607f821691505b60208210810362000fee5762000fed62000f90565b5b50919050565b600082825260208201905092915050565b7f546865206d6574686f642067657454696d65496e5365636f6e647320646f657360008201527f6e277420776f726b20666f72204d4f4e544820616e6420594541520000000000602082015250565b600062001063603b8362000ff4565b9150620010708262001005565b604082019050919050565b60006020820190508181036000830152620010968162001054565b9050919050565b61341980620010ad6000396000f3fe608060405234801561001057600080fd5b506004361061007d5760003560e01c806370d8915a1161005b57806370d8915a146101125780638593191114610130578063b8b4f1a01461014e578063fb6f82431461016c5761007d565b80631aa7fcc5146100825780633bbd6e54146100b25780635e744c6a146100e2575b600080fd5b61009c60048036038101906100979190612677565b61019c565b6040516100a991906126ee565b60405180910390f35b6100cc60048036038101906100c79190612677565b610849565b6040516100d991906126ee565b60405180910390f35b6100fc60048036038101906100f7919061281c565b610d8e565b60405161010991906126ee565b60405180910390f35b61011a610f7f565b6040516101279190612887565b60405180910390f35b6101386110e6565b6040516101459190612887565b60405180910390f35b61015661124e565b60405161016391906126ee565b60405180910390f35b610186600480360381019061018191906128a2565b6113b8565b60405161019391906129c5565b60405180910390f35b60008060009054906101000a900460ff166101ec576040517f08c379a00000000000000000000000000000000000000000000000000000000081526004016101e390612a44565b60405180910390fd5b3373ffffffffffffffffffffffffffffffffffffffff16600360010160009054906101000a900473ffffffffffffffffffffffffffffffffffffffff1673ffffffffffffffffffffffffffffffffffffffff161461027f576040517f08c379a000000000000000000000000000000000000000000000000000000000815260040161027690612ad6565b60405180910390fd5b6102b083600860008154811061029857610297612af6565b5b9060005260206000200161176890919063ffffffff16565b80156104415750610440826000815181106102ce576102cd612af6565b5b602002602001015160096000815481106102eb576102ea612af6565b5b906000526020600020906003020160405180606001604052908160008201805461031490612b54565b80601f016020809104026020016040519081016040528092919081815260200182805461034090612b54565b801561038d5780601f106103625761010080835404028352916020019161038d565b820191906000526020600020905b81548152906001019060200180831161037057829003601f168201915b505050505081526020016001820180546103a690612b54565b80601f01602080910402602001604051908101604052809291908181526020018280546103d290612b54565b801561041f5780601f106103f45761010080835404028352916020019161041f565b820191906000526020600020905b81548152906001019060200180831161040257829003601f168201915b505050505081526020016002820154815250506117e190919063ffffffff16565b5b80156105d257506105d18260018151811061045f5761045e612af6565b5b6020026020010151600960018154811061047c5761047b612af6565b5b90600052602060002090600302016040518060600160405290816000820180546104a590612b54565b80601f01602080910402602001604051908101604052809291908181526020018280546104d190612b54565b801561051e5780601f106104f35761010080835404028352916020019161051e565b820191906000526020600020905b81548152906001019060200180831161050157829003601f168201915b5050505050815260200160018201805461053790612b54565b80601f016020809104026020016040519081016040528092919081815260200182805461056390612b54565b80156105b05780601f10610585576101008083540402835291602001916105b0565b820191906000526020600020905b81548152906001019060200180831161059357829003601f168201915b505050505081526020016002820154815250506117e190919063ffffffff16565b5b80156107635750610762826001815181106105f0576105ef612af6565b5b6020026020010151600960018154811061060d5761060c612af6565b5b906000526020600020906003020160405180606001604052908160008201805461063690612b54565b80601f016020809104026020016040519081016040528092919081815260200182805461066290612b54565b80156106af5780601f10610684576101008083540402835291602001916106af565b820191906000526020600020905b81548152906001019060200180831161069257829003601f168201915b505050505081526020016001820180546106c890612b54565b80601f01602080910402602001604051908101604052809291908181526020018280546106f490612b54565b80156107415780601f1061071657610100808354040283529160200191610741565b820191906000526020600020905b81548152906001019060200180831161072457829003601f168201915b505050505081526020016002820154815250506117e190919063ffffffff16565b5b156108095761079983600860008154811061078157610780612af6565b5b906000526020600020016119d390919063ffffffff16565b506107cb83600a6000815481106107b3576107b2612af6565b5b90600052602060002001611a3a90919063ffffffff16565b7f95a1f3a1dafdd4c1af344e3d7c69a72cbce8a3f15fe1cf95a7f5bd23df2e71a16040516107f890612bd1565b60405180910390a160019050610843565b7f66091b7dc2b097c8f60d5cd6aa99633b097f08d2eb1056f3e15361b22e0ea2ba60405161083690612c89565b60405180910390a1600090505b92915050565b60008060009054906101000a900460ff16610899576040517f08c379a000000000000000000000000000000000000000000000000000000000815260040161089090612a44565b60405180910390fd5b3373ffffffffffffffffffffffffffffffffffffffff166001800160009054906101000a900473ffffffffffffffffffffffffffffffffffffffff1673ffffffffffffffffffffffffffffffffffffffff161461092b576040517f08c379a000000000000000000000000000000000000000000000000000000000815260040161092290612d1b565b60405180910390fd5b610a80600560003373ffffffffffffffffffffffffffffffffffffffff1673ffffffffffffffffffffffffffffffffffffffff16815260200190815260200160002060405180606001604052908160008201805461098890612b54565b80601f01602080910402602001604051908101604052809291908181526020018280546109b490612b54565b8015610a015780601f106109d657610100808354040283529160200191610a01565b820191906000526020600020905b8154815290600101906020018083116109e457829003601f168201915b505050505081526020016001820160009054906101000a900473ffffffffffffffffffffffffffffffffffffffff1673ffffffffffffffffffffffffffffffffffffffff1673ffffffffffffffffffffffffffffffffffffffff1681526020016001820160149054906101000a900460ff161515151581525050611aa5565b610abf576040517f08c379a0000000000000000000000000000000000000000000000000000000008152600401610ab690612dd3565b60405180910390fd5b610b4783600a600081548110610ad857610ad7612af6565b5b906000526020600020016040518060400160405290816000820160009054906101000a900463ffffffff1663ffffffff1663ffffffff1681526020016000820160049054906101000a900463ffffffff1663ffffffff1663ffffffff1681525050611ab390919063ffffffff16565b158015610cd95750610cd882600081518110610b6657610b65612af6565b5b6020026020010151600b600081548110610b8357610b82612af6565b5b9060005260206000209060030201604051806060016040529081600082018054610bac90612b54565b80601f0160208091040260200160405190810160405280929190818152602001828054610bd890612b54565b8015610c255780601f10610bfa57610100808354040283529160200191610c25565b820191906000526020600020905b815481529060010190602001808311610c0857829003601f168201915b50505050508152602001600182018054610c3e90612b54565b80601f0160208091040260200160405190810160405280929190818152602001828054610c6a90612b54565b8015610cb75780601f10610c8c57610100808354040283529160200191610cb7565b820191906000526020600020905b815481529060010190602001808311610c9a57829003601f168201915b505050505081526020016002820154815250506117e190919063ffffffff16565b5b15610d4e57610d0f836008600081548110610cf757610cf6612af6565b5b906000526020600020016119d390919063ffffffff16565b507f95a1f3a1dafdd4c1af344e3d7c69a72cbce8a3f15fe1cf95a7f5bd23df2e71a1604051610d3d90612bd1565b60405180910390a160019050610d88565b7f66091b7dc2b097c8f60d5cd6aa99633b097f08d2eb1056f3e15361b22e0ea2ba604051610d7b90612e8b565b60405180910390a1600090505b92915050565b60003373ffffffffffffffffffffffffffffffffffffffff16600360010160009054906101000a900473ffffffffffffffffffffffffffffffffffffffff1673ffffffffffffffffffffffffffffffffffffffff1614610e23576040517f08c379a0000000000000000000000000000000000000000000000000000000008152600401610e1a90612ad6565b60405180910390fd5b600560006001800160009054906101000a900473ffffffffffffffffffffffffffffffffffffffff1673ffffffffffffffffffffffffffffffffffffffff1673ffffffffffffffffffffffffffffffffffffffff16815260200190815260200160002060008082016000610e97919061225e565b6001820160006101000a81549073ffffffffffffffffffffffffffffffffffffffff02191690556001820160146101000a81549060ff02191690555050610ee08383600061164e565b60016000820151816000019080519060200190610efe92919061229e565b5060208201518160010160006101000a81548173ffffffffffffffffffffffffffffffffffffffff021916908373ffffffffffffffffffffffffffffffffffffffff16021790555060408201518160010160146101000a81548160ff021916908315150217905550905050610f74826001611b42565b506001905092915050565b60008060009054906101000a900460ff16610fcf576040517f08c379a0000000000000000000000000000000000000000000000000000000008152600401610fc690612a44565b60405180910390fd5b3373ffffffffffffffffffffffffffffffffffffffff166001800160009054906101000a900473ffffffffffffffffffffffffffffffffffffffff1673ffffffffffffffffffffffffffffffffffffffff16148061107d57503373ffffffffffffffffffffffffffffffffffffffff16600360010160009054906101000a900473ffffffffffffffffffffffffffffffffffffffff1673ffffffffffffffffffffffffffffffffffffffff16145b6110bc576040517f08c379a00000000000000000000000000000000000000000000000000000000081526004016110b390612f1d565b60405180910390fd5b6001800160009054906101000a900473ffffffffffffffffffffffffffffffffffffffff16905090565b60008060009054906101000a900460ff16611136576040517f08c379a000000000000000000000000000000000000000000000000000000000815260040161112d90612a44565b60405180910390fd5b3373ffffffffffffffffffffffffffffffffffffffff166001800160009054906101000a900473ffffffffffffffffffffffffffffffffffffffff1673ffffffffffffffffffffffffffffffffffffffff1614806111e457503373ffffffffffffffffffffffffffffffffffffffff16600360010160009054906101000a900473ffffffffffffffffffffffffffffffffffffffff1673ffffffffffffffffffffffffffffffffffffffff16145b611223576040517f08c379a000000000000000000000000000000000000000000000000000000000815260040161121a90612f1d565b60405180910390fd5b600360010160009054906101000a900473ffffffffffffffffffffffffffffffffffffffff16905090565b60008060009054906101000a900460ff1661129e576040517f08c379a000000000000000000000000000000000000000000000000000000000815260040161129590612a44565b60405180910390fd5b3373ffffffffffffffffffffffffffffffffffffffff166001800160009054906101000a900473ffffffffffffffffffffffffffffffffffffffff1673ffffffffffffffffffffffffffffffffffffffff1614611330576040517f08c379a000000000000000000000000000000000000000000000000000000000815260040161132790612d1b565b60405180910390fd5b600015156001800160149054906101000a900460ff16151514611388576040517f08c379a000000000000000000000000000000000000000000000000000000000815260040161137f90612f89565b60405180910390fd5b60018060010160146101000a81548160ff0219169083151502179055506113b0336001611b42565b506001905090565b6113c0612324565b60008054906101000a900460ff1661140d576040517f08c379a000000000000000000000000000000000000000000000000000000000815260040161140490612a44565b60405180910390fd5b3373ffffffffffffffffffffffffffffffffffffffff166001800160009054906101000a900473ffffffffffffffffffffffffffffffffffffffff1673ffffffffffffffffffffffffffffffffffffffff1614806114bb57503373ffffffffffffffffffffffffffffffffffffffff16600360010160009054906101000a900473ffffffffffffffffffffffffffffffffffffffff1673ffffffffffffffffffffffffffffffffffffffff16145b6114fa576040517f08c379a00000000000000000000000000000000000000000000000000000000081526004016114f190612f1d565b60405180910390fd5b600560008373ffffffffffffffffffffffffffffffffffffffff1673ffffffffffffffffffffffffffffffffffffffff16815260200190815260200160002060405180606001604052908160008201805461155490612b54565b80601f016020809104026020016040519081016040528092919081815260200182805461158090612b54565b80156115cd5780601f106115a2576101008083540402835291602001916115cd565b820191906000526020600020905b8154815290600101906020018083116115b057829003601f168201915b505050505081526020016001820160009054906101000a900473ffffffffffffffffffffffffffffffffffffffff1673ffffffffffffffffffffffffffffffffffffffff1673ffffffffffffffffffffffffffffffffffffffff1681526020016001820160149054906101000a900460ff1615151515815250509050919050565b611656612324565b60405180606001604052808581526020018473ffffffffffffffffffffffffffffffffffffffff16815260200183151581525090509392505050565b61169a61235d565b6000600460ff168360ff16116116ba576116b383611c45565b90506116bf565b600190505b6040518060a001604052808563ffffffff1681526020018460ff1681526020018263ffffffff1681526020018563ffffffff168152602001600063ffffffff1681525091505092915050565b6117136123a7565b60405180606001604052808581526020018481526020018381525090509392505050565b61173f6123c8565b6040518060400160405280600063ffffffff1681526020018363ffffffff168152509050919050565b600061179a8360000160049054906101000a900460ff1684600001600d9054906101000a900463ffffffff1684611cfc565b156117aa576117a98383611dc1565b5b60008360000160099054906101000a900463ffffffff1663ffffffff1611156117d657600190506117db565b600090505b92915050565b60008083602001519050602160f81b8160008151811061180457611803612af6565b5b602001015160f81c60f81b7effffffffffffffffffffffffffffffffffffffffffffffffffffffffffffff1916036118465783604001518314159150506119cd565b603d60f81b8160008151811061185f5761185e612af6565b5b602001015160f81c60f81b7effffffffffffffffffffffffffffffffffffffffffffffffffffffffffffff1916036118a057836040015183149150506119cd565b603c60f81b816000815181106118b9576118b8612af6565b5b602001015160f81c60f81b7effffffffffffffffffffffffffffffffffffffffffffffffffffffffffffff1916036119135760028151036119045783604001518313159150506119cd565b836040015183129150506119cd565b603e60f81b8160008151811061192c5761192b612af6565b5b602001015160f81c60f81b7effffffffffffffffffffffffffffffffffffffffffffffffffffffffffffff1916036119865760028151036119775783604001518312159150506119cd565b836040015183139150506119cd565b60006119c7576040517f08c379a00000000000000000000000000000000000000000000000000000000081526004016119be90612ff5565b60405180910390fd5b60009150505b92915050565b60006119df8383611768565b15611a2f5760018360000160098282829054906101000a900463ffffffff16611a089190613044565b92506101000a81548163ffffffff021916908363ffffffff16021790555060019050611a34565b600090505b92915050565b806000611a4c8263ffffffff16611e4e565b9050600a81511115611a5d57600080fd5b8360000160049054906101000a900463ffffffff1683611a7d9190613078565b8460000160006101000a81548163ffffffff021916908363ffffffff16021790555050505050565b600081604001519050919050565b6000816000611ac78263ffffffff16611e4e565b9050600a81511115611ad857600080fd5b6000856000015163ffffffff1611611b25576040517f08c379a0000000000000000000000000000000000000000000000000000000008152600401611b1c90613124565b60405180910390fd5b846000015163ffffffff168463ffffffff16119250505092915050565b600081600560008573ffffffffffffffffffffffffffffffffffffffff1673ffffffffffffffffffffffffffffffffffffffff1681526020019081526020016000206000820181600001908054611b9890612b54565b611ba39291906123ee565b506001820160009054906101000a900473ffffffffffffffffffffffffffffffffffffffff168160010160006101000a81548173ffffffffffffffffffffffffffffffffffffffff021916908373ffffffffffffffffffffffffffffffffffffffff1602179055506001820160149054906101000a900460ff168160010160146101000a81548160ff0219169083151502179055509050506001905092915050565b6000600460ff168260ff161115611c91576040517f08c379a0000000000000000000000000000000000000000000000000000000008152600401611c88906131b6565b60405180910390fd5b600060ff168260ff1603611ca85760019050611cf7565b600160ff168260ff1603611cbf57603c9050611cf7565b600260ff168260ff1603611cd757610e109050611cf7565b600360ff168260ff1603611cf057620151809050611cf7565b62093a8090505b919050565b600080849050600460ff168160ff1611611d28578363ffffffff168363ffffffff161015915050611dba565b600560ff168160ff1603611d90576000611d478463ffffffff16611fae565b50915050600d8563ffffffff16148015611d67575060018163ffffffff16145b15611d7757600192505050611dba565b8463ffffffff168163ffffffff16101592505050611dba565b6000611da18463ffffffff16611fae565b505090508463ffffffff168163ffffffff161015925050505b9392505050565b8160000160009054906101000a900463ffffffff168260000160096101000a81548163ffffffff021916908363ffffffff160217905550611e288260000160059054906101000a900463ffffffff168360000160049054906101000a900460ff1683612161565b82600001600d6101000a81548163ffffffff021916908363ffffffff1602179055505050565b606060008203611e95576040518060400160405280600181526020017f30000000000000000000000000000000000000000000000000000000000000008152509050611fa9565b600082905060005b60008214611ec7578080611eb0906131e0565b915050600a82611ec09190613257565b9150611e9d565b60008167ffffffffffffffff811115611ee357611ee26124fe565b5b6040519080825280601f01601f191660200182016040528015611f155781602001600182028036833780820191505090505b5090505b60008514611fa257600182611f2e9190613288565b9150600a85611f3d91906132bc565b6030611f4991906132ed565b60f81b818381518110611f5f57611f5e612af6565b5b60200101907effffffffffffffffffffffffffffffffffffffffffffffffffffffffffffff1916908160001a905350600a85611f9b9190613257565b9450611f19565b8093505050505b919050565b6000806000806201518063ffffffff1685611fc99190613257565b9050600062253d8c62010bd983611fe09190613078565b611fea9190613078565b9050600062023ab1826004611fff9190613343565b6120099190613381565b9050600460038262023ab161201e9190613343565b6120289190613078565b6120329190613381565b8261203d9190613044565b9150600062164b096001846120529190613078565b610fa061205f9190613343565b6120699190613381565b9050601f6004826105b561207d9190613343565b6120879190613381565b846120929190613044565b61209c9190613078565b9250600061098f8460506120b09190613343565b6120ba9190613381565b9050600060508261098f6120ce9190613343565b6120d89190613381565b856120e39190613044565b9050600b826120f29190613381565b945084600c6121019190613343565b60028361210e9190613078565b6121189190613044565b915084836031866121299190613044565b60646121359190613343565b61213f9190613078565b6121499190613078565b92508298508197508096505050505050509193909250565b6000600460ff168360ff16116121835761217c8383866121f4565b90506121ed565b600560ff168360ff16036121c15760006121a28363ffffffff16611fae565b5063ffffffff169150506001816121b991906132ed565b9150506121ed565b60006121d28363ffffffff16611fae565b505063ffffffff1690506001816121e991906132ed565b9150505b9392505050565b600080828461220391906133b2565b9050600081846122139190613044565b9050600460ff168660ff1603612246576203f48081866122339190613078565b61223d9190613078565b92505050612257565b80856122529190613078565b925050505b9392505050565b50805461226a90612b54565b6000825580601f1061227c575061229b565b601f01602090049060005260206000209081019061229a919061247b565b5b50565b8280546122aa90612b54565b90600052602060002090601f0160209004810192826122cc5760008555612313565b82601f106122e557805160ff1916838001178555612313565b82800160010185558215612313579182015b828111156123125782518255916020019190600101906122f7565b5b509050612320919061247b565b5090565b604051806060016040528060608152602001600073ffffffffffffffffffffffffffffffffffffffff1681526020016000151581525090565b6040518060a00160405280600063ffffffff168152602001600060ff168152602001600063ffffffff168152602001600063ffffffff168152602001600063ffffffff1681525090565b60405180606001604052806060815260200160608152602001600081525090565b6040518060400160405280600063ffffffff168152602001600063ffffffff1681525090565b8280546123fa90612b54565b90600052602060002090601f01602090048101928261241c576000855561246a565b82601f1061242d578054855561246a565b8280016001018555821561246a57600052602060002091601f016020900482015b8281111561246957825482559160010191906001019061244e565b5b509050612477919061247b565b5090565b5b8082111561249457600081600090555060010161247c565b5090565b6000604051905090565b600080fd5b600080fd5b600063ffffffff82169050919050565b6124c5816124ac565b81146124d057600080fd5b50565b6000813590506124e2816124bc565b92915050565b600080fd5b6000601f19601f8301169050919050565b7f4e487b7100000000000000000000000000000000000000000000000000000000600052604160045260246000fd5b612536826124ed565b810181811067ffffffffffffffff82111715612555576125546124fe565b5b80604052505050565b6000612568612498565b9050612574828261252d565b919050565b600067ffffffffffffffff821115612594576125936124fe565b5b602082029050602081019050919050565b600080fd5b6000819050919050565b6125bd816125aa565b81146125c857600080fd5b50565b6000813590506125da816125b4565b92915050565b60006125f36125ee84612579565b61255e565b90508083825260208201905060208402830185811115612616576126156125a5565b5b835b8181101561263f578061262b88826125cb565b845260208401935050602081019050612618565b5050509392505050565b600082601f83011261265e5761265d6124e8565b5b813561266e8482602086016125e0565b91505092915050565b6000806040838503121561268e5761268d6124a2565b5b600061269c858286016124d3565b925050602083013567ffffffffffffffff8111156126bd576126bc6124a7565b5b6126c985828601612649565b9150509250929050565b60008115159050919050565b6126e8816126d3565b82525050565b600060208201905061270360008301846126df565b92915050565b600080fd5b600067ffffffffffffffff821115612729576127286124fe565b5b612732826124ed565b9050602081019050919050565b82818337600083830152505050565b600061276161275c8461270e565b61255e565b90508281526020810184848401111561277d5761277c612709565b5b61278884828561273f565b509392505050565b600082601f8301126127a5576127a46124e8565b5b81356127b584826020860161274e565b91505092915050565b600073ffffffffffffffffffffffffffffffffffffffff82169050919050565b60006127e9826127be565b9050919050565b6127f9816127de565b811461280457600080fd5b50565b600081359050612816816127f0565b92915050565b60008060408385031215612833576128326124a2565b5b600083013567ffffffffffffffff811115612851576128506124a7565b5b61285d85828601612790565b925050602061286e85828601612807565b9150509250929050565b612881816127de565b82525050565b600060208201905061289c6000830184612878565b92915050565b6000602082840312156128b8576128b76124a2565b5b60006128c684828501612807565b91505092915050565b600081519050919050565b600082825260208201905092915050565b60005b838110156129095780820151818401526020810190506128ee565b83811115612918576000848401525b50505050565b6000612929826128cf565b61293381856128da565b93506129438185602086016128eb565b61294c816124ed565b840191505092915050565b612960816127de565b82525050565b61296f816126d3565b82525050565b60006060830160008301518482036000860152612992828261291e565b91505060208301516129a76020860182612957565b5060408301516129ba6040860182612966565b508091505092915050565b600060208201905081810360008301526129df8184612975565b905092915050565b600082825260208201905092915050565b7f5468697320636f6e747261637420697320646561637469766174656400000000600082015250565b6000612a2e601c836129e7565b9150612a39826129f8565b602082019050919050565b60006020820190508181036000830152612a5d81612a21565b9050919050565b7f4f6e6c79207468652070726f636573732063616e20657865637574652074686960008201527f73206f7065726174696f6e000000000000000000000000000000000000000000602082015250565b6000612ac0602b836129e7565b9150612acb82612a64565b604082019050919050565b60006020820190508181036000830152612aef81612ab3565b9050919050565b7f4e487b7100000000000000000000000000000000000000000000000000000000600052603260045260246000fd5b7f4e487b7100000000000000000000000000000000000000000000000000000000600052602260045260246000fd5b60006002820490506001821680612b6c57607f821691505b602082108103612b7f57612b7e612b25565b5b50919050565b7f5375636365737366756c20657865637574696f6e210000000000000000000000600082015250565b6000612bbb6015836129e7565b9150612bc682612b85565b602082019050919050565b60006020820190508181036000830152612bea81612bae565b9050919050565b7f52657175657374206f7065726174696f6e20706572666f726d6564206f75747360008201527f696465206f6620616c6c6f77656420686f757273206f72206c696d6974206f7060208201527f65726174696f6e20657863656564656400000000000000000000000000000000604082015250565b6000612c736050836129e7565b9150612c7e82612bf1565b606082019050919050565b60006020820190508181036000830152612ca281612c66565b9050919050565b7f4f6e6c7920746865206170706c69636174696f6e2063616e206578656375746560008201527f2074686973206f7065726174696f6e0000000000000000000000000000000000602082015250565b6000612d05602f836129e7565b9150612d1082612ca9565b604082019050919050565b60006020820190508181036000830152612d3481612cf8565b9050919050565b7f546865204170706c69636174696f6e2070617274792073686f756c642073696760008201527f6e2074686520636f6e7472616374206265666f726520696e746572616374207760208201527f6974682069742e00000000000000000000000000000000000000000000000000604082015250565b6000612dbd6047836129e7565b9150612dc882612d3b565b606082019050919050565b60006020820190508181036000830152612dec81612db0565b9050919050565b7f526573706f6e736520706572666f726d6564206f757473696465206f6620746960008201527f6d65206c696d6974206f722064656c69766572792074696d6520746f6f206c6f60208201527f6e67000000000000000000000000000000000000000000000000000000000000604082015250565b6000612e756042836129e7565b9150612e8082612df3565b606082019050919050565b60006020820190508181036000830152612ea481612e68565b9050919050565b7f4f6e6c79207468652070726f63657373206f7220746865206170706c6963617460008201527f696f6e2063616e20657865637574652074686973206f7065726174696f6e0000602082015250565b6000612f07603e836129e7565b9150612f1282612eab565b604082019050919050565b60006020820190508181036000830152612f3681612efa565b9050919050565b7f54686520636f6e747261637420697320616c7265616479207369676e65640000600082015250565b6000612f73601e836129e7565b9150612f7e82612f3d565b602082019050919050565b60006020820190508181036000830152612fa281612f66565b9050919050565b7f436f6d70617269736f6e2073796d626f6c206973206e6f742076616c69640000600082015250565b6000612fdf601e836129e7565b9150612fea82612fa9565b602082019050919050565b6000602082019050818103600083015261300e81612fd2565b9050919050565b7f4e487b7100000000000000000000000000000000000000000000000000000000600052601160045260246000fd5b600061304f826124ac565b915061305a836124ac565b92508282101561306d5761306c613015565b5b828203905092915050565b6000613083826124ac565b915061308e836124ac565b92508263ffffffff038211156130a7576130a6613015565b5b828201905092915050565b7f5468657265206973206e6f20656e6454696d652073657420696e2074696d656f60008201527f7574000000000000000000000000000000000000000000000000000000000000602082015250565b600061310e6022836129e7565b9150613119826130b2565b604082019050919050565b6000602082019050818103600083015261313d81613101565b9050919050565b7f546865206d6574686f642067657454696d65496e5365636f6e647320646f657360008201527f6e277420776f726b20666f72204d4f4e544820616e6420594541520000000000602082015250565b60006131a0603b836129e7565b91506131ab82613144565b604082019050919050565b600060208201905081810360008301526131cf81613193565b9050919050565b6000819050919050565b60006131eb826131d6565b91507fffffffffffffffffffffffffffffffffffffffffffffffffffffffffffffffff820361321d5761321c613015565b5b600182019050919050565b7f4e487b7100000000000000000000000000000000000000000000000000000000600052601260045260246000fd5b6000613262826131d6565b915061326d836131d6565b92508261327d5761327c613228565b5b828204905092915050565b6000613293826131d6565b915061329e836131d6565b9250828210156132b1576132b0613015565b5b828203905092915050565b60006132c7826131d6565b91506132d2836131d6565b9250826132e2576132e1613228565b5b828206905092915050565b60006132f8826131d6565b9150613303836131d6565b9250827fffffffffffffffffffffffffffffffffffffffffffffffffffffffffffffffff0382111561333857613337613015565b5b828201905092915050565b600061334e826124ac565b9150613359836124ac565b92508163ffffffff048311821515161561337657613375613015565b5b828202905092915050565b600061338c826124ac565b9150613397836124ac565b9250826133a7576133a6613228565b5b828204905092915050565b60006133bd826124ac565b91506133c8836124ac565b9250826133d8576133d7613228565b5b82820690509291505056fea2646970667358221220ce568df155751d10794824fcedc16fa89498d6e6b40cd9afb0c5a39d1b0dda5a64736f6c634300080d0033636f756e74282f2f626f64792f7065726f736f6e616c496e666f726d6174696f6e2f616464726573732f63657029",
					"opcodes": "PUSH1 0x80 PUSH1 0x40 MSTORE PUSH1 0x40 MLOAD DUP1 PUSH1 0x60 ADD PUSH1 0x40 MSTORE DUP1 PUSH1 0x2E DUP2 MSTORE PUSH1 0x20 ADD PUSH3 0x44C6 PUSH1 0x2E SWAP2 CODECOPY PUSH1 0x6 SWAP1 DUP1 MLOAD SWAP1 PUSH1 0x20 ADD SWAP1 PUSH3 0x35 SWAP3 SWAP2 SWAP1 PUSH3 0xCE2 JUMP JUMPDEST POP PUSH1 0x40 MLOAD DUP1 PUSH1 0x40 ADD PUSH1 0x40 MSTORE DUP1 PUSH1 0x1C DUP2 MSTORE PUSH1 0x20 ADD PUSH32 0x2F2F626F64792F7061636B6167652F7765696768742F74657874282900000000 DUP2 MSTORE POP PUSH1 0x7 SWAP1 DUP1 MLOAD SWAP1 PUSH1 0x20 ADD SWAP1 PUSH3 0x83 SWAP3 SWAP2 SWAP1 PUSH3 0xCE2 JUMP JUMPDEST POP CALLVALUE DUP1 ISZERO PUSH3 0x91 JUMPI PUSH1 0x0 DUP1 REVERT JUMPDEST POP PUSH1 0x40 MLOAD PUSH3 0x44F4 CODESIZE SUB DUP1 PUSH3 0x44F4 DUP4 CODECOPY DUP2 DUP2 ADD PUSH1 0x40 MSTORE DUP2 ADD SWAP1 PUSH3 0xB7 SWAP2 SWAP1 PUSH3 0xF5E JUMP JUMPDEST PUSH1 0x1 PUSH1 0x0 DUP1 PUSH2 0x100 EXP DUP2 SLOAD DUP2 PUSH1 0xFF MUL NOT AND SWAP1 DUP4 ISZERO ISZERO MUL OR SWAP1 SSTORE POP PUSH4 0x63B14488 PUSH1 0x0 PUSH1 0x1 PUSH2 0x100 EXP DUP2 SLOAD DUP2 PUSH4 0xFFFFFFFF MUL NOT AND SWAP1 DUP4 PUSH4 0xFFFFFFFF AND MUL OR SWAP1 SSTORE POP PUSH4 0x65927808 PUSH1 0x0 PUSH1 0x5 PUSH2 0x100 EXP DUP2 SLOAD DUP2 PUSH4 0xFFFFFFFF MUL NOT AND SWAP1 DUP4 PUSH4 0xFFFFFFFF AND MUL OR SWAP1 SSTORE POP PUSH3 0x169 PUSH1 0x40 MLOAD DUP1 PUSH1 0x40 ADD PUSH1 0x40 MSTORE DUP1 PUSH1 0xF DUP2 MSTORE PUSH1 0x20 ADD PUSH32 0x44656C69766572792053797374656D0000000000000000000000000000000000 DUP2 MSTORE POP DUP3 PUSH1 0x0 PUSH3 0xAF4 PUSH1 0x20 SHL PUSH3 0x164E OR PUSH1 0x20 SHR JUMP JUMPDEST PUSH1 0x1 PUSH1 0x0 DUP3 ADD MLOAD DUP2 PUSH1 0x0 ADD SWAP1 DUP1 MLOAD SWAP1 PUSH1 0x20 ADD SWAP1 PUSH3 0x189 SWAP3 SWAP2 SWAP1 PUSH3 0xCE2 JUMP JUMPDEST POP PUSH1 0x20 DUP3 ADD MLOAD DUP2 PUSH1 0x1 ADD PUSH1 0x0 PUSH2 0x100 EXP DUP2 SLOAD DUP2 PUSH20 0xFFFFFFFFFFFFFFFFFFFFFFFFFFFFFFFFFFFFFFFF MUL NOT AND SWAP1 DUP4 PUSH20 0xFFFFFFFFFFFFFFFFFFFFFFFFFFFFFFFFFFFFFFFF AND MUL OR SWAP1 SSTORE POP PUSH1 0x40 DUP3 ADD MLOAD DUP2 PUSH1 0x1 ADD PUSH1 0x14 PUSH2 0x100 EXP DUP2 SLOAD DUP2 PUSH1 0xFF MUL NOT AND SWAP1 DUP4 ISZERO ISZERO MUL OR SWAP1 SSTORE POP SWAP1 POP POP PUSH3 0x242 PUSH1 0x40 MLOAD DUP1 PUSH1 0x40 ADD PUSH1 0x40 MSTORE DUP1 PUSH1 0x13 DUP2 MSTORE PUSH1 0x20 ADD PUSH32 0x496E746567726174696F6E2050726F6365737300000000000000000000000000 DUP2 MSTORE POP CALLER PUSH1 0x1 PUSH3 0xAF4 PUSH1 0x20 SHL PUSH3 0x164E OR PUSH1 0x20 SHR JUMP JUMPDEST PUSH1 0x3 PUSH1 0x0 DUP3 ADD MLOAD DUP2 PUSH1 0x0 ADD SWAP1 DUP1 MLOAD SWAP1 PUSH1 0x20 ADD SWAP1 PUSH3 0x262 SWAP3 SWAP2 SWAP1 PUSH3 0xCE2 JUMP JUMPDEST POP PUSH1 0x20 DUP3 ADD MLOAD DUP2 PUSH1 0x1 ADD PUSH1 0x0 PUSH2 0x100 EXP DUP2 SLOAD DUP2 PUSH20 0xFFFFFFFFFFFFFFFFFFFFFFFFFFFFFFFFFFFFFFFF MUL NOT AND SWAP1 DUP4 PUSH20 0xFFFFFFFFFFFFFFFFFFFFFFFFFFFFFFFFFFFFFFFF AND MUL OR SWAP1 SSTORE POP PUSH1 0x40 DUP3 ADD MLOAD DUP2 PUSH1 0x1 ADD PUSH1 0x14 PUSH2 0x100 EXP DUP2 SLOAD DUP2 PUSH1 0xFF MUL NOT AND SWAP1 DUP4 ISZERO ISZERO MUL OR SWAP1 SSTORE POP SWAP1 POP POP PUSH1 0x3 PUSH1 0x5 PUSH1 0x0 CALLER PUSH20 0xFFFFFFFFFFFFFFFFFFFFFFFFFFFFFFFFFFFFFFFF AND PUSH20 0xFFFFFFFFFFFFFFFFFFFFFFFFFFFFFFFFFFFFFFFF AND DUP2 MSTORE PUSH1 0x20 ADD SWAP1 DUP2 MSTORE PUSH1 0x20 ADD PUSH1 0x0 KECCAK256 PUSH1 0x0 DUP3 ADD DUP2 PUSH1 0x0 ADD SWAP1 DUP1 SLOAD PUSH3 0x324 SWAP1 PUSH3 0xFBF JUMP JUMPDEST PUSH3 0x331 SWAP3 SWAP2 SWAP1 PUSH3 0xD73 JUMP JUMPDEST POP PUSH1 0x1 DUP3 ADD PUSH1 0x0 SWAP1 SLOAD SWAP1 PUSH2 0x100 EXP SWAP1 DIV PUSH20 0xFFFFFFFFFFFFFFFFFFFFFFFFFFFFFFFFFFFFFFFF AND DUP2 PUSH1 0x1 ADD PUSH1 0x0 PUSH2 0x100 EXP DUP2 SLOAD DUP2 PUSH20 0xFFFFFFFFFFFFFFFFFFFFFFFFFFFFFFFFFFFFFFFF MUL NOT AND SWAP1 DUP4 PUSH20 0xFFFFFFFFFFFFFFFFFFFFFFFFFFFFFFFFFFFFFFFF AND MUL OR SWAP1 SSTORE POP PUSH1 0x1 DUP3 ADD PUSH1 0x14 SWAP1 SLOAD SWAP1 PUSH2 0x100 EXP SWAP1 DIV PUSH1 0xFF AND DUP2 PUSH1 0x1 ADD PUSH1 0x14 PUSH2 0x100 EXP DUP2 SLOAD DUP2 PUSH1 0xFF MUL NOT AND SWAP1 DUP4 ISZERO ISZERO MUL OR SWAP1 SSTORE POP SWAP1 POP POP PUSH1 0x1 PUSH1 0x5 PUSH1 0x0 DUP4 PUSH20 0xFFFFFFFFFFFFFFFFFFFFFFFFFFFFFFFFFFFFFFFF AND PUSH20 0xFFFFFFFFFFFFFFFFFFFFFFFFFFFFFFFFFFFFFFFF AND DUP2 MSTORE PUSH1 0x20 ADD SWAP1 DUP2 MSTORE PUSH1 0x20 ADD PUSH1 0x0 KECCAK256 PUSH1 0x0 DUP3 ADD DUP2 PUSH1 0x0 ADD SWAP1 DUP1 SLOAD PUSH3 0x420 SWAP1 PUSH3 0xFBF JUMP JUMPDEST PUSH3 0x42D SWAP3 SWAP2 SWAP1 PUSH3 0xD73 JUMP JUMPDEST POP PUSH1 0x1 DUP3 ADD PUSH1 0x0 SWAP1 SLOAD SWAP1 PUSH2 0x100 EXP SWAP1 DIV PUSH20 0xFFFFFFFFFFFFFFFFFFFFFFFFFFFFFFFFFFFFFFFF AND DUP2 PUSH1 0x1 ADD PUSH1 0x0 PUSH2 0x100 EXP DUP2 SLOAD DUP2 PUSH20 0xFFFFFFFFFFFFFFFFFFFFFFFFFFFFFFFFFFFFFFFF MUL NOT AND SWAP1 DUP4 PUSH20 0xFFFFFFFFFFFFFFFFFFFFFFFFFFFFFFFFFFFFFFFF AND MUL OR SWAP1 SSTORE POP PUSH1 0x1 DUP3 ADD PUSH1 0x14 SWAP1 SLOAD SWAP1 PUSH2 0x100 EXP SWAP1 DIV PUSH1 0xFF AND DUP2 PUSH1 0x1 ADD PUSH1 0x14 PUSH2 0x100 EXP DUP2 SLOAD DUP2 PUSH1 0xFF MUL NOT AND SWAP1 DUP4 ISZERO ISZERO MUL OR SWAP1 SSTORE POP SWAP1 POP POP PUSH1 0x8 PUSH3 0x4E0 PUSH1 0x3 PUSH1 0x1 PUSH3 0xB3A PUSH1 0x20 SHL PUSH3 0x1692 OR PUSH1 0x20 SHR JUMP JUMPDEST SWAP1 DUP1 PUSH1 0x1 DUP2 SLOAD ADD DUP1 DUP3 SSTORE DUP1 SWAP2 POP POP PUSH1 0x1 SWAP1 SUB SWAP1 PUSH1 0x0 MSTORE PUSH1 0x20 PUSH1 0x0 KECCAK256 ADD PUSH1 0x0 SWAP1 SWAP2 SWAP1 SWAP2 SWAP1 SWAP2 POP PUSH1 0x0 DUP3 ADD MLOAD DUP2 PUSH1 0x0 ADD PUSH1 0x0 PUSH2 0x100 EXP DUP2 SLOAD DUP2 PUSH4 0xFFFFFFFF MUL NOT AND SWAP1 DUP4 PUSH4 0xFFFFFFFF AND MUL OR SWAP1 SSTORE POP PUSH1 0x20 DUP3 ADD MLOAD DUP2 PUSH1 0x0 ADD PUSH1 0x4 PUSH2 0x100 EXP DUP2 SLOAD DUP2 PUSH1 0xFF MUL NOT AND SWAP1 DUP4 PUSH1 0xFF AND MUL OR SWAP1 SSTORE POP PUSH1 0x40 DUP3 ADD MLOAD DUP2 PUSH1 0x0 ADD PUSH1 0x5 PUSH2 0x100 EXP DUP2 SLOAD DUP2 PUSH4 0xFFFFFFFF MUL NOT AND SWAP1 DUP4 PUSH4 0xFFFFFFFF AND MUL OR SWAP1 SSTORE POP PUSH1 0x60 DUP3 ADD MLOAD DUP2 PUSH1 0x0 ADD PUSH1 0x9 PUSH2 0x100 EXP DUP2 SLOAD DUP2 PUSH4 0xFFFFFFFF MUL NOT AND SWAP1 DUP4 PUSH4 0xFFFFFFFF AND MUL OR SWAP1 SSTORE POP PUSH1 0x80 DUP3 ADD MLOAD DUP2 PUSH1 0x0 ADD PUSH1 0xD PUSH2 0x100 EXP DUP2 SLOAD DUP2 PUSH4 0xFFFFFFFF MUL NOT AND SWAP1 DUP4 PUSH4 0xFFFFFFFF AND MUL OR SWAP1 SSTORE POP POP POP PUSH1 0x9 PUSH3 0x6A6 PUSH1 0x6 DUP1 SLOAD PUSH3 0x5D9 SWAP1 PUSH3 0xFBF JUMP JUMPDEST DUP1 PUSH1 0x1F ADD PUSH1 0x20 DUP1 SWAP2 DIV MUL PUSH1 0x20 ADD PUSH1 0x40 MLOAD SWAP1 DUP2 ADD PUSH1 0x40 MSTORE DUP1 SWAP3 SWAP2 SWAP1 DUP2 DUP2 MSTORE PUSH1 0x20 ADD DUP3 DUP1 SLOAD PUSH3 0x607 SWAP1 PUSH3 0xFBF JUMP JUMPDEST DUP1 ISZERO PUSH3 0x658 JUMPI DUP1 PUSH1 0x1F LT PUSH3 0x62C JUMPI PUSH2 0x100 DUP1 DUP4 SLOAD DIV MUL DUP4 MSTORE SWAP2 PUSH1 0x20 ADD SWAP2 PUSH3 0x658 JUMP JUMPDEST DUP3 ADD SWAP2 SWAP1 PUSH1 0x0 MSTORE PUSH1 0x20 PUSH1 0x0 KECCAK256 SWAP1 JUMPDEST DUP2 SLOAD DUP2 MSTORE SWAP1 PUSH1 0x1 ADD SWAP1 PUSH1 0x20 ADD DUP1 DUP4 GT PUSH3 0x63A JUMPI DUP3 SWAP1 SUB PUSH1 0x1F AND DUP3 ADD SWAP2 JUMPDEST POP POP POP POP POP PUSH1 0x40 MLOAD DUP1 PUSH1 0x40 ADD PUSH1 0x40 MSTORE DUP1 PUSH1 0x2 DUP2 MSTORE PUSH1 0x20 ADD PUSH32 0x3D3D000000000000000000000000000000000000000000000000000000000000 DUP2 MSTORE POP PUSH1 0x1 PUSH3 0xBBF PUSH1 0x20 SHL PUSH3 0x170B OR PUSH1 0x20 SHR JUMP JUMPDEST SWAP1 DUP1 PUSH1 0x1 DUP2 SLOAD ADD DUP1 DUP3 SSTORE DUP1 SWAP2 POP POP PUSH1 0x1 SWAP1 SUB SWAP1 PUSH1 0x0 MSTORE PUSH1 0x20 PUSH1 0x0 KECCAK256 SWAP1 PUSH1 0x3 MUL ADD PUSH1 0x0 SWAP1 SWAP2 SWAP1 SWAP2 SWAP1 SWAP2 POP PUSH1 0x0 DUP3 ADD MLOAD DUP2 PUSH1 0x0 ADD SWAP1 DUP1 MLOAD SWAP1 PUSH1 0x20 ADD SWAP1 PUSH3 0x6ED SWAP3 SWAP2 SWAP1 PUSH3 0xCE2 JUMP JUMPDEST POP PUSH1 0x20 DUP3 ADD MLOAD DUP2 PUSH1 0x1 ADD SWAP1 DUP1 MLOAD SWAP1 PUSH1 0x20 ADD SWAP1 PUSH3 0x70C SWAP3 SWAP2 SWAP1 PUSH3 0xCE2 JUMP JUMPDEST POP PUSH1 0x40 DUP3 ADD MLOAD DUP2 PUSH1 0x2 ADD SSTORE POP POP PUSH1 0x9 PUSH3 0x7FB PUSH1 0x7 DUP1 SLOAD PUSH3 0x72E SWAP1 PUSH3 0xFBF JUMP JUMPDEST DUP1 PUSH1 0x1F ADD PUSH1 0x20 DUP1 SWAP2 DIV MUL PUSH1 0x20 ADD PUSH1 0x40 MLOAD SWAP1 DUP2 ADD PUSH1 0x40 MSTORE DUP1 SWAP3 SWAP2 SWAP1 DUP2 DUP2 MSTORE PUSH1 0x20 ADD DUP3 DUP1 SLOAD PUSH3 0x75C SWAP1 PUSH3 0xFBF JUMP JUMPDEST DUP1 ISZERO PUSH3 0x7AD JUMPI DUP1 PUSH1 0x1F LT PUSH3 0x781 JUMPI PUSH2 0x100 DUP1 DUP4 SLOAD DIV MUL DUP4 MSTORE SWAP2 PUSH1 0x20 ADD SWAP2 PUSH3 0x7AD JUMP JUMPDEST DUP3 ADD SWAP2 SWAP1 PUSH1 0x0 MSTORE PUSH1 0x20 PUSH1 0x0 KECCAK256 SWAP1 JUMPDEST DUP2 SLOAD DUP2 MSTORE SWAP1 PUSH1 0x1 ADD SWAP1 PUSH1 0x20 ADD DUP1 DUP4 GT PUSH3 0x78F JUMPI DUP3 SWAP1 SUB PUSH1 0x1F AND DUP3 ADD SWAP2 JUMPDEST POP POP POP POP POP PUSH1 0x40 MLOAD DUP1 PUSH1 0x40 ADD PUSH1 0x40 MSTORE DUP1 PUSH1 0x2 DUP2 MSTORE PUSH1 0x20 ADD PUSH32 0x3C3D000000000000000000000000000000000000000000000000000000000000 DUP2 MSTORE POP PUSH1 0x64 PUSH3 0xBBF PUSH1 0x20 SHL PUSH3 0x170B OR PUSH1 0x20 SHR JUMP JUMPDEST SWAP1 DUP1 PUSH1 0x1 DUP2 SLOAD ADD DUP1 DUP3 SSTORE DUP1 SWAP2 POP POP PUSH1 0x1 SWAP1 SUB SWAP1 PUSH1 0x0 MSTORE PUSH1 0x20 PUSH1 0x0 KECCAK256 SWAP1 PUSH1 0x3 MUL ADD PUSH1 0x0 SWAP1 SWAP2 SWAP1 SWAP2 SWAP1 SWAP2 POP PUSH1 0x0 DUP3 ADD MLOAD DUP2 PUSH1 0x0 ADD SWAP1 DUP1 MLOAD SWAP1 PUSH1 0x20 ADD SWAP1 PUSH3 0x842 SWAP3 SWAP2 SWAP1 PUSH3 0xCE2 JUMP JUMPDEST POP PUSH1 0x20 DUP3 ADD MLOAD DUP2 PUSH1 0x1 ADD SWAP1 DUP1 MLOAD SWAP1 PUSH1 0x20 ADD SWAP1 PUSH3 0x861 SWAP3 SWAP2 SWAP1 PUSH3 0xCE2 JUMP JUMPDEST POP PUSH1 0x40 DUP3 ADD MLOAD DUP2 PUSH1 0x2 ADD SSTORE POP POP PUSH1 0x9 PUSH3 0x8F4 PUSH1 0x40 MLOAD DUP1 PUSH1 0x40 ADD PUSH1 0x40 MSTORE DUP1 PUSH1 0x1D DUP2 MSTORE PUSH1 0x20 ADD PUSH32 0x2F2F626F64792F6F726465722F746F74616C436F73742F746578742829000000 DUP2 MSTORE POP PUSH1 0x40 MLOAD DUP1 PUSH1 0x40 ADD PUSH1 0x40 MSTORE DUP1 PUSH1 0x2 DUP2 MSTORE PUSH1 0x20 ADD PUSH32 0x3C3D000000000000000000000000000000000000000000000000000000000000 DUP2 MSTORE POP PUSH2 0x4E20 PUSH3 0xBBF PUSH1 0x20 SHL PUSH3 0x170B OR PUSH1 0x20 SHR JUMP JUMPDEST SWAP1 DUP1 PUSH1 0x1 DUP2 SLOAD ADD DUP1 DUP3 SSTORE DUP1 SWAP2 POP POP PUSH1 0x1 SWAP1 SUB SWAP1 PUSH1 0x0 MSTORE PUSH1 0x20 PUSH1 0x0 KECCAK256 SWAP1 PUSH1 0x3 MUL ADD PUSH1 0x0 SWAP1 SWAP2 SWAP1 SWAP2 SWAP1 SWAP2 POP PUSH1 0x0 DUP3 ADD MLOAD DUP2 PUSH1 0x0 ADD SWAP1 DUP1 MLOAD SWAP1 PUSH1 0x20 ADD SWAP1 PUSH3 0x93B SWAP3 SWAP2 SWAP1 PUSH3 0xCE2 JUMP JUMPDEST POP PUSH1 0x20 DUP3 ADD MLOAD DUP2 PUSH1 0x1 ADD SWAP1 DUP1 MLOAD SWAP1 PUSH1 0x20 ADD SWAP1 PUSH3 0x95A SWAP3 SWAP2 SWAP1 PUSH3 0xCE2 JUMP JUMPDEST POP PUSH1 0x40 DUP3 ADD MLOAD DUP2 PUSH1 0x2 ADD SSTORE POP POP PUSH1 0xA PUSH3 0x980 PUSH1 0x14 PUSH3 0xBED PUSH1 0x20 SHL PUSH3 0x1737 OR PUSH1 0x20 SHR JUMP JUMPDEST SWAP1 DUP1 PUSH1 0x1 DUP2 SLOAD ADD DUP1 DUP3 SSTORE DUP1 SWAP2 POP POP PUSH1 0x1 SWAP1 SUB SWAP1 PUSH1 0x0 MSTORE PUSH1 0x20 PUSH1 0x0 KECCAK256 ADD PUSH1 0x0 SWAP1 SWAP2 SWAP1 SWAP2 SWAP1 SWAP2 POP PUSH1 0x0 DUP3 ADD MLOAD DUP2 PUSH1 0x0 ADD PUSH1 0x0 PUSH2 0x100 EXP DUP2 SLOAD DUP2 PUSH4 0xFFFFFFFF MUL NOT AND SWAP1 DUP4 PUSH4 0xFFFFFFFF AND MUL OR SWAP1 SSTORE POP PUSH1 0x20 DUP3 ADD MLOAD DUP2 PUSH1 0x0 ADD PUSH1 0x4 PUSH2 0x100 EXP DUP2 SLOAD DUP2 PUSH4 0xFFFFFFFF MUL NOT AND SWAP1 DUP4 PUSH4 0xFFFFFFFF AND MUL OR SWAP1 SSTORE POP POP POP PUSH1 0xB PUSH3 0xA7A PUSH1 0x40 MLOAD DUP1 PUSH1 0x40 ADD PUSH1 0x40 MSTORE DUP1 PUSH1 0x1C DUP2 MSTORE PUSH1 0x20 ADD PUSH32 0x2F2F6275646765742F64656C697665727954696D652F74657874282900000000 DUP2 MSTORE POP PUSH1 0x40 MLOAD DUP1 PUSH1 0x40 ADD PUSH1 0x40 MSTORE DUP1 PUSH1 0x2 DUP2 MSTORE PUSH1 0x20 ADD PUSH32 0x3C3D000000000000000000000000000000000000000000000000000000000000 DUP2 MSTORE POP PUSH1 0xF PUSH3 0xBBF PUSH1 0x20 SHL PUSH3 0x170B OR PUSH1 0x20 SHR JUMP JUMPDEST SWAP1 DUP1 PUSH1 0x1 DUP2 SLOAD ADD DUP1 DUP3 SSTORE DUP1 SWAP2 POP POP PUSH1 0x1 SWAP1 SUB SWAP1 PUSH1 0x0 MSTORE PUSH1 0x20 PUSH1 0x0 KECCAK256 SWAP1 PUSH1 0x3 MUL ADD PUSH1 0x0 SWAP1 SWAP2 SWAP1 SWAP2 SWAP1 SWAP2 POP PUSH1 0x0 DUP3 ADD MLOAD DUP2 PUSH1 0x0 ADD SWAP1 DUP1 MLOAD SWAP1 PUSH1 0x20 ADD SWAP1 PUSH3 0xAC1 SWAP3 SWAP2 SWAP1 PUSH3 0xCE2 JUMP JUMPDEST POP PUSH1 0x20 DUP3 ADD MLOAD DUP2 PUSH1 0x1 ADD SWAP1 DUP1 MLOAD SWAP1 PUSH1 0x20 ADD SWAP1 PUSH3 0xAE0 SWAP3 SWAP2 SWAP1 PUSH3 0xCE2 JUMP JUMPDEST POP PUSH1 0x40 DUP3 ADD MLOAD DUP2 PUSH1 0x2 ADD SSTORE POP POP POP PUSH3 0x109D JUMP JUMPDEST PUSH3 0xAFE PUSH3 0xE0B JUMP JUMPDEST PUSH1 0x40 MLOAD DUP1 PUSH1 0x60 ADD PUSH1 0x40 MSTORE DUP1 DUP6 DUP2 MSTORE PUSH1 0x20 ADD DUP5 PUSH20 0xFFFFFFFFFFFFFFFFFFFFFFFFFFFFFFFFFFFFFFFF AND DUP2 MSTORE PUSH1 0x20 ADD DUP4 ISZERO ISZERO DUP2 MSTORE POP SWAP1 POP SWAP4 SWAP3 POP POP POP JUMP JUMPDEST PUSH3 0xB44 PUSH3 0xE44 JUMP JUMPDEST PUSH1 0x0 PUSH1 0x4 PUSH1 0xFF AND DUP4 PUSH1 0xFF AND GT PUSH3 0xB6E JUMPI PUSH3 0xB66 DUP4 PUSH3 0xC20 PUSH1 0x20 SHL PUSH1 0x20 SHR JUMP JUMPDEST SWAP1 POP PUSH3 0xB73 JUMP JUMPDEST PUSH1 0x1 SWAP1 POP JUMPDEST PUSH1 0x40 MLOAD DUP1 PUSH1 0xA0 ADD PUSH1 0x40 MSTORE DUP1 DUP6 PUSH4 0xFFFFFFFF AND DUP2 MSTORE PUSH1 0x20 ADD DUP5 PUSH1 0xFF AND DUP2 MSTORE PUSH1 0x20 ADD DUP3 PUSH4 0xFFFFFFFF AND DUP2 MSTORE PUSH1 0x20 ADD DUP6 PUSH4 0xFFFFFFFF AND DUP2 MSTORE PUSH1 0x20 ADD PUSH1 0x0 PUSH4 0xFFFFFFFF AND DUP2 MSTORE POP SWAP2 POP POP SWAP3 SWAP2 POP POP JUMP JUMPDEST PUSH3 0xBC9 PUSH3 0xE8E JUMP JUMPDEST PUSH1 0x40 MLOAD DUP1 PUSH1 0x60 ADD PUSH1 0x40 MSTORE DUP1 DUP6 DUP2 MSTORE PUSH1 0x20 ADD DUP5 DUP2 MSTORE PUSH1 0x20 ADD DUP4 DUP2 MSTORE POP SWAP1 POP SWAP4 SWAP3 POP POP POP JUMP JUMPDEST PUSH3 0xBF7 PUSH3 0xEAF JUMP JUMPDEST PUSH1 0x40 MLOAD DUP1 PUSH1 0x40 ADD PUSH1 0x40 MSTORE DUP1 PUSH1 0x0 PUSH4 0xFFFFFFFF AND DUP2 MSTORE PUSH1 0x20 ADD DUP4 PUSH4 0xFFFFFFFF AND DUP2 MSTORE POP SWAP1 POP SWAP2 SWAP1 POP JUMP JUMPDEST PUSH1 0x0 PUSH1 0x4 PUSH1 0xFF AND DUP3 PUSH1 0xFF AND GT ISZERO PUSH3 0xC6F JUMPI PUSH1 0x40 MLOAD PUSH32 0x8C379A000000000000000000000000000000000000000000000000000000000 DUP2 MSTORE PUSH1 0x4 ADD PUSH3 0xC66 SWAP1 PUSH3 0x107B JUMP JUMPDEST PUSH1 0x40 MLOAD DUP1 SWAP2 SUB SWAP1 REVERT JUMPDEST PUSH1 0x0 PUSH1 0xFF AND DUP3 PUSH1 0xFF AND SUB PUSH3 0xC88 JUMPI PUSH1 0x1 SWAP1 POP PUSH3 0xCDD JUMP JUMPDEST PUSH1 0x1 PUSH1 0xFF AND DUP3 PUSH1 0xFF AND SUB PUSH3 0xCA1 JUMPI PUSH1 0x3C SWAP1 POP PUSH3 0xCDD JUMP JUMPDEST PUSH1 0x2 PUSH1 0xFF AND DUP3 PUSH1 0xFF AND SUB PUSH3 0xCBB JUMPI PUSH2 0xE10 SWAP1 POP PUSH3 0xCDD JUMP JUMPDEST PUSH1 0x3 PUSH1 0xFF AND DUP3 PUSH1 0xFF AND SUB PUSH3 0xCD6 JUMPI PUSH3 0x15180 SWAP1 POP PUSH3 0xCDD JUMP JUMPDEST PUSH3 0x93A80 SWAP1 POP JUMPDEST SWAP2 SWAP1 POP JUMP JUMPDEST DUP3 DUP1 SLOAD PUSH3 0xCF0 SWAP1 PUSH3 0xFBF JUMP JUMPDEST SWAP1 PUSH1 0x0 MSTORE PUSH1 0x20 PUSH1 0x0 KECCAK256 SWAP1 PUSH1 0x1F ADD PUSH1 0x20 SWAP1 DIV DUP2 ADD SWAP3 DUP3 PUSH3 0xD14 JUMPI PUSH1 0x0 DUP6 SSTORE PUSH3 0xD60 JUMP JUMPDEST DUP3 PUSH1 0x1F LT PUSH3 0xD2F JUMPI DUP1 MLOAD PUSH1 0xFF NOT AND DUP4 DUP1 ADD OR DUP6 SSTORE PUSH3 0xD60 JUMP JUMPDEST DUP3 DUP1 ADD PUSH1 0x1 ADD DUP6 SSTORE DUP3 ISZERO PUSH3 0xD60 JUMPI SWAP2 DUP3 ADD JUMPDEST DUP3 DUP2 GT ISZERO PUSH3 0xD5F JUMPI DUP3 MLOAD DUP3 SSTORE SWAP2 PUSH1 0x20 ADD SWAP2 SWAP1 PUSH1 0x1 ADD SWAP1 PUSH3 0xD42 JUMP JUMPDEST JUMPDEST POP SWAP1 POP PUSH3 0xD6F SWAP2 SWAP1 PUSH3 0xED5 JUMP JUMPDEST POP SWAP1 JUMP JUMPDEST DUP3 DUP1 SLOAD PUSH3 0xD81 SWAP1 PUSH3 0xFBF JUMP JUMPDEST SWAP1 PUSH1 0x0 MSTORE PUSH1 0x20 PUSH1 0x0 KECCAK256 SWAP1 PUSH1 0x1F ADD PUSH1 0x20 SWAP1 DIV DUP2 ADD SWAP3 DUP3 PUSH3 0xDA5 JUMPI PUSH1 0x0 DUP6 SSTORE PUSH3 0xDF8 JUMP JUMPDEST DUP3 PUSH1 0x1F LT PUSH3 0xDB8 JUMPI DUP1 SLOAD DUP6 SSTORE PUSH3 0xDF8 JUMP JUMPDEST DUP3 DUP1 ADD PUSH1 0x1 ADD DUP6 SSTORE DUP3 ISZERO PUSH3 0xDF8 JUMPI PUSH1 0x0 MSTORE PUSH1 0x20 PUSH1 0x0 KECCAK256 SWAP2 PUSH1 0x1F ADD PUSH1 0x20 SWAP1 DIV DUP3 ADD JUMPDEST DUP3 DUP2 GT ISZERO PUSH3 0xDF7 JUMPI DUP3 SLOAD DUP3 SSTORE SWAP2 PUSH1 0x1 ADD SWAP2 SWAP1 PUSH1 0x1 ADD SWAP1 PUSH3 0xDDA JUMP JUMPDEST JUMPDEST POP SWAP1 POP PUSH3 0xE07 SWAP2 SWAP1 PUSH3 0xED5 JUMP JUMPDEST POP SWAP1 JUMP JUMPDEST PUSH1 0x40 MLOAD DUP1 PUSH1 0x60 ADD PUSH1 0x40 MSTORE DUP1 PUSH1 0x60 DUP2 MSTORE PUSH1 0x20 ADD PUSH1 0x0 PUSH20 0xFFFFFFFFFFFFFFFFFFFFFFFFFFFFFFFFFFFFFFFF AND DUP2 MSTORE PUSH1 0x20 ADD PUSH1 0x0 ISZERO ISZERO DUP2 MSTORE POP SWAP1 JUMP JUMPDEST PUSH1 0x40 MLOAD DUP1 PUSH1 0xA0 ADD PUSH1 0x40 MSTORE DUP1 PUSH1 0x0 PUSH4 0xFFFFFFFF AND DUP2 MSTORE PUSH1 0x20 ADD PUSH1 0x0 PUSH1 0xFF AND DUP2 MSTORE PUSH1 0x20 ADD PUSH1 0x0 PUSH4 0xFFFFFFFF AND DUP2 MSTORE PUSH1 0x20 ADD PUSH1 0x0 PUSH4 0xFFFFFFFF AND DUP2 MSTORE PUSH1 0x20 ADD PUSH1 0x0 PUSH4 0xFFFFFFFF AND DUP2 MSTORE POP SWAP1 JUMP JUMPDEST PUSH1 0x40 MLOAD DUP1 PUSH1 0x60 ADD PUSH1 0x40 MSTORE DUP1 PUSH1 0x60 DUP2 MSTORE PUSH1 0x20 ADD PUSH1 0x60 DUP2 MSTORE PUSH1 0x20 ADD PUSH1 0x0 DUP2 MSTORE POP SWAP1 JUMP JUMPDEST PUSH1 0x40 MLOAD DUP1 PUSH1 0x40 ADD PUSH1 0x40 MSTORE DUP1 PUSH1 0x0 PUSH4 0xFFFFFFFF AND DUP2 MSTORE PUSH1 0x20 ADD PUSH1 0x0 PUSH4 0xFFFFFFFF AND DUP2 MSTORE POP SWAP1 JUMP JUMPDEST JUMPDEST DUP1 DUP3 GT ISZERO PUSH3 0xEF0 JUMPI PUSH1 0x0 DUP2 PUSH1 0x0 SWAP1 SSTORE POP PUSH1 0x1 ADD PUSH3 0xED6 JUMP JUMPDEST POP SWAP1 JUMP JUMPDEST PUSH1 0x0 DUP1 REVERT JUMPDEST PUSH1 0x0 PUSH20 0xFFFFFFFFFFFFFFFFFFFFFFFFFFFFFFFFFFFFFFFF DUP3 AND SWAP1 POP SWAP2 SWAP1 POP JUMP JUMPDEST PUSH1 0x0 PUSH3 0xF26 DUP3 PUSH3 0xEF9 JUMP JUMPDEST SWAP1 POP SWAP2 SWAP1 POP JUMP JUMPDEST PUSH3 0xF38 DUP2 PUSH3 0xF19 JUMP JUMPDEST DUP2 EQ PUSH3 0xF44 JUMPI PUSH1 0x0 DUP1 REVERT JUMPDEST POP JUMP JUMPDEST PUSH1 0x0 DUP2 MLOAD SWAP1 POP PUSH3 0xF58 DUP2 PUSH3 0xF2D JUMP JUMPDEST SWAP3 SWAP2 POP POP JUMP JUMPDEST PUSH1 0x0 PUSH1 0x20 DUP3 DUP5 SUB SLT ISZERO PUSH3 0xF77 JUMPI PUSH3 0xF76 PUSH3 0xEF4 JUMP JUMPDEST JUMPDEST PUSH1 0x0 PUSH3 0xF87 DUP5 DUP3 DUP6 ADD PUSH3 0xF47 JUMP JUMPDEST SWAP2 POP POP SWAP3 SWAP2 POP POP JUMP JUMPDEST PUSH32 0x4E487B7100000000000000000000000000000000000000000000000000000000 PUSH1 0x0 MSTORE PUSH1 0x22 PUSH1 0x4 MSTORE PUSH1 0x24 PUSH1 0x0 REVERT JUMPDEST PUSH1 0x0 PUSH1 0x2 DUP3 DIV SWAP1 POP PUSH1 0x1 DUP3 AND DUP1 PUSH3 0xFD8 JUMPI PUSH1 0x7F DUP3 AND SWAP2 POP JUMPDEST PUSH1 0x20 DUP3 LT DUP2 SUB PUSH3 0xFEE JUMPI PUSH3 0xFED PUSH3 0xF90 JUMP JUMPDEST JUMPDEST POP SWAP2 SWAP1 POP JUMP JUMPDEST PUSH1 0x0 DUP3 DUP3 MSTORE PUSH1 0x20 DUP3 ADD SWAP1 POP SWAP3 SWAP2 POP POP JUMP JUMPDEST PUSH32 0x546865206D6574686F642067657454696D65496E5365636F6E647320646F6573 PUSH1 0x0 DUP3 ADD MSTORE PUSH32 0x6E277420776F726B20666F72204D4F4E544820616E6420594541520000000000 PUSH1 0x20 DUP3 ADD MSTORE POP JUMP JUMPDEST PUSH1 0x0 PUSH3 0x1063 PUSH1 0x3B DUP4 PUSH3 0xFF4 JUMP JUMPDEST SWAP2 POP PUSH3 0x1070 DUP3 PUSH3 0x1005 JUMP JUMPDEST PUSH1 0x40 DUP3 ADD SWAP1 POP SWAP2 SWAP1 POP JUMP JUMPDEST PUSH1 0x0 PUSH1 0x20 DUP3 ADD SWAP1 POP DUP2 DUP2 SUB PUSH1 0x0 DUP4 ADD MSTORE PUSH3 0x1096 DUP2 PUSH3 0x1054 JUMP JUMPDEST SWAP1 POP SWAP2 SWAP1 POP JUMP JUMPDEST PUSH2 0x3419 DUP1 PUSH3 0x10AD PUSH1 0x0 CODECOPY PUSH1 0x0 RETURN INVALID PUSH1 0x80 PUSH1 0x40 MSTORE CALLVALUE DUP1 ISZERO PUSH2 0x10 JUMPI PUSH1 0x0 DUP1 REVERT JUMPDEST POP PUSH1 0x4 CALLDATASIZE LT PUSH2 0x7D JUMPI PUSH1 0x0 CALLDATALOAD PUSH1 0xE0 SHR DUP1 PUSH4 0x70D8915A GT PUSH2 0x5B JUMPI DUP1 PUSH4 0x70D8915A EQ PUSH2 0x112 JUMPI DUP1 PUSH4 0x85931911 EQ PUSH2 0x130 JUMPI DUP1 PUSH4 0xB8B4F1A0 EQ PUSH2 0x14E JUMPI DUP1 PUSH4 0xFB6F8243 EQ PUSH2 0x16C JUMPI PUSH2 0x7D JUMP JUMPDEST DUP1 PUSH4 0x1AA7FCC5 EQ PUSH2 0x82 JUMPI DUP1 PUSH4 0x3BBD6E54 EQ PUSH2 0xB2 JUMPI DUP1 PUSH4 0x5E744C6A EQ PUSH2 0xE2 JUMPI JUMPDEST PUSH1 0x0 DUP1 REVERT JUMPDEST PUSH2 0x9C PUSH1 0x4 DUP1 CALLDATASIZE SUB DUP2 ADD SWAP1 PUSH2 0x97 SWAP2 SWAP1 PUSH2 0x2677 JUMP JUMPDEST PUSH2 0x19C JUMP JUMPDEST PUSH1 0x40 MLOAD PUSH2 0xA9 SWAP2 SWAP1 PUSH2 0x26EE JUMP JUMPDEST PUSH1 0x40 MLOAD DUP1 SWAP2 SUB SWAP1 RETURN JUMPDEST PUSH2 0xCC PUSH1 0x4 DUP1 CALLDATASIZE SUB DUP2 ADD SWAP1 PUSH2 0xC7 SWAP2 SWAP1 PUSH2 0x2677 JUMP JUMPDEST PUSH2 0x849 JUMP JUMPDEST PUSH1 0x40 MLOAD PUSH2 0xD9 SWAP2 SWAP1 PUSH2 0x26EE JUMP JUMPDEST PUSH1 0x40 MLOAD DUP1 SWAP2 SUB SWAP1 RETURN JUMPDEST PUSH2 0xFC PUSH1 0x4 DUP1 CALLDATASIZE SUB DUP2 ADD SWAP1 PUSH2 0xF7 SWAP2 SWAP1 PUSH2 0x281C JUMP JUMPDEST PUSH2 0xD8E JUMP JUMPDEST PUSH1 0x40 MLOAD PUSH2 0x109 SWAP2 SWAP1 PUSH2 0x26EE JUMP JUMPDEST PUSH1 0x40 MLOAD DUP1 SWAP2 SUB SWAP1 RETURN JUMPDEST PUSH2 0x11A PUSH2 0xF7F JUMP JUMPDEST PUSH1 0x40 MLOAD PUSH2 0x127 SWAP2 SWAP1 PUSH2 0x2887 JUMP JUMPDEST PUSH1 0x40 MLOAD DUP1 SWAP2 SUB SWAP1 RETURN JUMPDEST PUSH2 0x138 PUSH2 0x10E6 JUMP JUMPDEST PUSH1 0x40 MLOAD PUSH2 0x145 SWAP2 SWAP1 PUSH2 0x2887 JUMP JUMPDEST PUSH1 0x40 MLOAD DUP1 SWAP2 SUB SWAP1 RETURN JUMPDEST PUSH2 0x156 PUSH2 0x124E JUMP JUMPDEST PUSH1 0x40 MLOAD PUSH2 0x163 SWAP2 SWAP1 PUSH2 0x26EE JUMP JUMPDEST PUSH1 0x40 MLOAD DUP1 SWAP2 SUB SWAP1 RETURN JUMPDEST PUSH2 0x186 PUSH1 0x4 DUP1 CALLDATASIZE SUB DUP2 ADD SWAP1 PUSH2 0x181 SWAP2 SWAP1 PUSH2 0x28A2 JUMP JUMPDEST PUSH2 0x13B8 JUMP JUMPDEST PUSH1 0x40 MLOAD PUSH2 0x193 SWAP2 SWAP1 PUSH2 0x29C5 JUMP JUMPDEST PUSH1 0x40 MLOAD DUP1 SWAP2 SUB SWAP1 RETURN JUMPDEST PUSH1 0x0 DUP1 PUSH1 0x0 SWAP1 SLOAD SWAP1 PUSH2 0x100 EXP SWAP1 DIV PUSH1 0xFF AND PUSH2 0x1EC JUMPI PUSH1 0x40 MLOAD PUSH32 0x8C379A000000000000000000000000000000000000000000000000000000000 DUP2 MSTORE PUSH1 0x4 ADD PUSH2 0x1E3 SWAP1 PUSH2 0x2A44 JUMP JUMPDEST PUSH1 0x40 MLOAD DUP1 SWAP2 SUB SWAP1 REVERT JUMPDEST CALLER PUSH20 0xFFFFFFFFFFFFFFFFFFFFFFFFFFFFFFFFFFFFFFFF AND PUSH1 0x3 PUSH1 0x1 ADD PUSH1 0x0 SWAP1 SLOAD SWAP1 PUSH2 0x100 EXP SWAP1 DIV PUSH20 0xFFFFFFFFFFFFFFFFFFFFFFFFFFFFFFFFFFFFFFFF AND PUSH20 0xFFFFFFFFFFFFFFFFFFFFFFFFFFFFFFFFFFFFFFFF AND EQ PUSH2 0x27F JUMPI PUSH1 0x40 MLOAD PUSH32 0x8C379A000000000000000000000000000000000000000000000000000000000 DUP2 MSTORE PUSH1 0x4 ADD PUSH2 0x276 SWAP1 PUSH2 0x2AD6 JUMP JUMPDEST PUSH1 0x40 MLOAD DUP1 SWAP2 SUB SWAP1 REVERT JUMPDEST PUSH2 0x2B0 DUP4 PUSH1 0x8 PUSH1 0x0 DUP2 SLOAD DUP2 LT PUSH2 0x298 JUMPI PUSH2 0x297 PUSH2 0x2AF6 JUMP JUMPDEST JUMPDEST SWAP1 PUSH1 0x0 MSTORE PUSH1 0x20 PUSH1 0x0 KECCAK256 ADD PUSH2 0x1768 SWAP1 SWAP2 SWAP1 PUSH4 0xFFFFFFFF AND JUMP JUMPDEST DUP1 ISZERO PUSH2 0x441 JUMPI POP PUSH2 0x440 DUP3 PUSH1 0x0 DUP2 MLOAD DUP2 LT PUSH2 0x2CE JUMPI PUSH2 0x2CD PUSH2 0x2AF6 JUMP JUMPDEST JUMPDEST PUSH1 0x20 MUL PUSH1 0x20 ADD ADD MLOAD PUSH1 0x9 PUSH1 0x0 DUP2 SLOAD DUP2 LT PUSH2 0x2EB JUMPI PUSH2 0x2EA PUSH2 0x2AF6 JUMP JUMPDEST JUMPDEST SWAP1 PUSH1 0x0 MSTORE PUSH1 0x20 PUSH1 0x0 KECCAK256 SWAP1 PUSH1 0x3 MUL ADD PUSH1 0x40 MLOAD DUP1 PUSH1 0x60 ADD PUSH1 0x40 MSTORE SWAP1 DUP2 PUSH1 0x0 DUP3 ADD DUP1 SLOAD PUSH2 0x314 SWAP1 PUSH2 0x2B54 JUMP JUMPDEST DUP1 PUSH1 0x1F ADD PUSH1 0x20 DUP1 SWAP2 DIV MUL PUSH1 0x20 ADD PUSH1 0x40 MLOAD SWAP1 DUP2 ADD PUSH1 0x40 MSTORE DUP1 SWAP3 SWAP2 SWAP1 DUP2 DUP2 MSTORE PUSH1 0x20 ADD DUP3 DUP1 SLOAD PUSH2 0x340 SWAP1 PUSH2 0x2B54 JUMP JUMPDEST DUP1 ISZERO PUSH2 0x38D JUMPI DUP1 PUSH1 0x1F LT PUSH2 0x362 JUMPI PUSH2 0x100 DUP1 DUP4 SLOAD DIV MUL DUP4 MSTORE SWAP2 PUSH1 0x20 ADD SWAP2 PUSH2 0x38D JUMP JUMPDEST DUP3 ADD SWAP2 SWAP1 PUSH1 0x0 MSTORE PUSH1 0x20 PUSH1 0x0 KECCAK256 SWAP1 JUMPDEST DUP2 SLOAD DUP2 MSTORE SWAP1 PUSH1 0x1 ADD SWAP1 PUSH1 0x20 ADD DUP1 DUP4 GT PUSH2 0x370 JUMPI DUP3 SWAP1 SUB PUSH1 0x1F AND DUP3 ADD SWAP2 JUMPDEST POP POP POP POP POP DUP2 MSTORE PUSH1 0x20 ADD PUSH1 0x1 DUP3 ADD DUP1 SLOAD PUSH2 0x3A6 SWAP1 PUSH2 0x2B54 JUMP JUMPDEST DUP1 PUSH1 0x1F ADD PUSH1 0x20 DUP1 SWAP2 DIV MUL PUSH1 0x20 ADD PUSH1 0x40 MLOAD SWAP1 DUP2 ADD PUSH1 0x40 MSTORE DUP1 SWAP3 SWAP2 SWAP1 DUP2 DUP2 MSTORE PUSH1 0x20 ADD DUP3 DUP1 SLOAD PUSH2 0x3D2 SWAP1 PUSH2 0x2B54 JUMP JUMPDEST DUP1 ISZERO PUSH2 0x41F JUMPI DUP1 PUSH1 0x1F LT PUSH2 0x3F4 JUMPI PUSH2 0x100 DUP1 DUP4 SLOAD DIV MUL DUP4 MSTORE SWAP2 PUSH1 0x20 ADD SWAP2 PUSH2 0x41F JUMP JUMPDEST DUP3 ADD SWAP2 SWAP1 PUSH1 0x0 MSTORE PUSH1 0x20 PUSH1 0x0 KECCAK256 SWAP1 JUMPDEST DUP2 SLOAD DUP2 MSTORE SWAP1 PUSH1 0x1 ADD SWAP1 PUSH1 0x20 ADD DUP1 DUP4 GT PUSH2 0x402 JUMPI DUP3 SWAP1 SUB PUSH1 0x1F AND DUP3 ADD SWAP2 JUMPDEST POP POP POP POP POP DUP2 MSTORE PUSH1 0x20 ADD PUSH1 0x2 DUP3 ADD SLOAD DUP2 MSTORE POP POP PUSH2 0x17E1 SWAP1 SWAP2 SWAP1 PUSH4 0xFFFFFFFF AND JUMP JUMPDEST JUMPDEST DUP1 ISZERO PUSH2 0x5D2 JUMPI POP PUSH2 0x5D1 DUP3 PUSH1 0x1 DUP2 MLOAD DUP2 LT PUSH2 0x45F JUMPI PUSH2 0x45E PUSH2 0x2AF6 JUMP JUMPDEST JUMPDEST PUSH1 0x20 MUL PUSH1 0x20 ADD ADD MLOAD PUSH1 0x9 PUSH1 0x1 DUP2 SLOAD DUP2 LT PUSH2 0x47C JUMPI PUSH2 0x47B PUSH2 0x2AF6 JUMP JUMPDEST JUMPDEST SWAP1 PUSH1 0x0 MSTORE PUSH1 0x20 PUSH1 0x0 KECCAK256 SWAP1 PUSH1 0x3 MUL ADD PUSH1 0x40 MLOAD DUP1 PUSH1 0x60 ADD PUSH1 0x40 MSTORE SWAP1 DUP2 PUSH1 0x0 DUP3 ADD DUP1 SLOAD PUSH2 0x4A5 SWAP1 PUSH2 0x2B54 JUMP JUMPDEST DUP1 PUSH1 0x1F ADD PUSH1 0x20 DUP1 SWAP2 DIV MUL PUSH1 0x20 ADD PUSH1 0x40 MLOAD SWAP1 DUP2 ADD PUSH1 0x40 MSTORE DUP1 SWAP3 SWAP2 SWAP1 DUP2 DUP2 MSTORE PUSH1 0x20 ADD DUP3 DUP1 SLOAD PUSH2 0x4D1 SWAP1 PUSH2 0x2B54 JUMP JUMPDEST DUP1 ISZERO PUSH2 0x51E JUMPI DUP1 PUSH1 0x1F LT PUSH2 0x4F3 JUMPI PUSH2 0x100 DUP1 DUP4 SLOAD DIV MUL DUP4 MSTORE SWAP2 PUSH1 0x20 ADD SWAP2 PUSH2 0x51E JUMP JUMPDEST DUP3 ADD SWAP2 SWAP1 PUSH1 0x0 MSTORE PUSH1 0x20 PUSH1 0x0 KECCAK256 SWAP1 JUMPDEST DUP2 SLOAD DUP2 MSTORE SWAP1 PUSH1 0x1 ADD SWAP1 PUSH1 0x20 ADD DUP1 DUP4 GT PUSH2 0x501 JUMPI DUP3 SWAP1 SUB PUSH1 0x1F AND DUP3 ADD SWAP2 JUMPDEST POP POP POP POP POP DUP2 MSTORE PUSH1 0x20 ADD PUSH1 0x1 DUP3 ADD DUP1 SLOAD PUSH2 0x537 SWAP1 PUSH2 0x2B54 JUMP JUMPDEST DUP1 PUSH1 0x1F ADD PUSH1 0x20 DUP1 SWAP2 DIV MUL PUSH1 0x20 ADD PUSH1 0x40 MLOAD SWAP1 DUP2 ADD PUSH1 0x40 MSTORE DUP1 SWAP3 SWAP2 SWAP1 DUP2 DUP2 MSTORE PUSH1 0x20 ADD DUP3 DUP1 SLOAD PUSH2 0x563 SWAP1 PUSH2 0x2B54 JUMP JUMPDEST DUP1 ISZERO PUSH2 0x5B0 JUMPI DUP1 PUSH1 0x1F LT PUSH2 0x585 JUMPI PUSH2 0x100 DUP1 DUP4 SLOAD DIV MUL DUP4 MSTORE SWAP2 PUSH1 0x20 ADD SWAP2 PUSH2 0x5B0 JUMP JUMPDEST DUP3 ADD SWAP2 SWAP1 PUSH1 0x0 MSTORE PUSH1 0x20 PUSH1 0x0 KECCAK256 SWAP1 JUMPDEST DUP2 SLOAD DUP2 MSTORE SWAP1 PUSH1 0x1 ADD SWAP1 PUSH1 0x20 ADD DUP1 DUP4 GT PUSH2 0x593 JUMPI DUP3 SWAP1 SUB PUSH1 0x1F AND DUP3 ADD SWAP2 JUMPDEST POP POP POP POP POP DUP2 MSTORE PUSH1 0x20 ADD PUSH1 0x2 DUP3 ADD SLOAD DUP2 MSTORE POP POP PUSH2 0x17E1 SWAP1 SWAP2 SWAP1 PUSH4 0xFFFFFFFF AND JUMP JUMPDEST JUMPDEST DUP1 ISZERO PUSH2 0x763 JUMPI POP PUSH2 0x762 DUP3 PUSH1 0x1 DUP2 MLOAD DUP2 LT PUSH2 0x5F0 JUMPI PUSH2 0x5EF PUSH2 0x2AF6 JUMP JUMPDEST JUMPDEST PUSH1 0x20 MUL PUSH1 0x20 ADD ADD MLOAD PUSH1 0x9 PUSH1 0x1 DUP2 SLOAD DUP2 LT PUSH2 0x60D JUMPI PUSH2 0x60C PUSH2 0x2AF6 JUMP JUMPDEST JUMPDEST SWAP1 PUSH1 0x0 MSTORE PUSH1 0x20 PUSH1 0x0 KECCAK256 SWAP1 PUSH1 0x3 MUL ADD PUSH1 0x40 MLOAD DUP1 PUSH1 0x60 ADD PUSH1 0x40 MSTORE SWAP1 DUP2 PUSH1 0x0 DUP3 ADD DUP1 SLOAD PUSH2 0x636 SWAP1 PUSH2 0x2B54 JUMP JUMPDEST DUP1 PUSH1 0x1F ADD PUSH1 0x20 DUP1 SWAP2 DIV MUL PUSH1 0x20 ADD PUSH1 0x40 MLOAD SWAP1 DUP2 ADD PUSH1 0x40 MSTORE DUP1 SWAP3 SWAP2 SWAP1 DUP2 DUP2 MSTORE PUSH1 0x20 ADD DUP3 DUP1 SLOAD PUSH2 0x662 SWAP1 PUSH2 0x2B54 JUMP JUMPDEST DUP1 ISZERO PUSH2 0x6AF JUMPI DUP1 PUSH1 0x1F LT PUSH2 0x684 JUMPI PUSH2 0x100 DUP1 DUP4 SLOAD DIV MUL DUP4 MSTORE SWAP2 PUSH1 0x20 ADD SWAP2 PUSH2 0x6AF JUMP JUMPDEST DUP3 ADD SWAP2 SWAP1 PUSH1 0x0 MSTORE PUSH1 0x20 PUSH1 0x0 KECCAK256 SWAP1 JUMPDEST DUP2 SLOAD DUP2 MSTORE SWAP1 PUSH1 0x1 ADD SWAP1 PUSH1 0x20 ADD DUP1 DUP4 GT PUSH2 0x692 JUMPI DUP3 SWAP1 SUB PUSH1 0x1F AND DUP3 ADD SWAP2 JUMPDEST POP POP POP POP POP DUP2 MSTORE PUSH1 0x20 ADD PUSH1 0x1 DUP3 ADD DUP1 SLOAD PUSH2 0x6C8 SWAP1 PUSH2 0x2B54 JUMP JUMPDEST DUP1 PUSH1 0x1F ADD PUSH1 0x20 DUP1 SWAP2 DIV MUL PUSH1 0x20 ADD PUSH1 0x40 MLOAD SWAP1 DUP2 ADD PUSH1 0x40 MSTORE DUP1 SWAP3 SWAP2 SWAP1 DUP2 DUP2 MSTORE PUSH1 0x20 ADD DUP3 DUP1 SLOAD PUSH2 0x6F4 SWAP1 PUSH2 0x2B54 JUMP JUMPDEST DUP1 ISZERO PUSH2 0x741 JUMPI DUP1 PUSH1 0x1F LT PUSH2 0x716 JUMPI PUSH2 0x100 DUP1 DUP4 SLOAD DIV MUL DUP4 MSTORE SWAP2 PUSH1 0x20 ADD SWAP2 PUSH2 0x741 JUMP JUMPDEST DUP3 ADD SWAP2 SWAP1 PUSH1 0x0 MSTORE PUSH1 0x20 PUSH1 0x0 KECCAK256 SWAP1 JUMPDEST DUP2 SLOAD DUP2 MSTORE SWAP1 PUSH1 0x1 ADD SWAP1 PUSH1 0x20 ADD DUP1 DUP4 GT PUSH2 0x724 JUMPI DUP3 SWAP1 SUB PUSH1 0x1F AND DUP3 ADD SWAP2 JUMPDEST POP POP POP POP POP DUP2 MSTORE PUSH1 0x20 ADD PUSH1 0x2 DUP3 ADD SLOAD DUP2 MSTORE POP POP PUSH2 0x17E1 SWAP1 SWAP2 SWAP1 PUSH4 0xFFFFFFFF AND JUMP JUMPDEST JUMPDEST ISZERO PUSH2 0x809 JUMPI PUSH2 0x799 DUP4 PUSH1 0x8 PUSH1 0x0 DUP2 SLOAD DUP2 LT PUSH2 0x781 JUMPI PUSH2 0x780 PUSH2 0x2AF6 JUMP JUMPDEST JUMPDEST SWAP1 PUSH1 0x0 MSTORE PUSH1 0x20 PUSH1 0x0 KECCAK256 ADD PUSH2 0x19D3 SWAP1 SWAP2 SWAP1 PUSH4 0xFFFFFFFF AND JUMP JUMPDEST POP PUSH2 0x7CB DUP4 PUSH1 0xA PUSH1 0x0 DUP2 SLOAD DUP2 LT PUSH2 0x7B3 JUMPI PUSH2 0x7B2 PUSH2 0x2AF6 JUMP JUMPDEST JUMPDEST SWAP1 PUSH1 0x0 MSTORE PUSH1 0x20 PUSH1 0x0 KECCAK256 ADD PUSH2 0x1A3A SWAP1 SWAP2 SWAP1 PUSH4 0xFFFFFFFF AND JUMP JUMPDEST PUSH32 0x95A1F3A1DAFDD4C1AF344E3D7C69A72CBCE8A3F15FE1CF95A7F5BD23DF2E71A1 PUSH1 0x40 MLOAD PUSH2 0x7F8 SWAP1 PUSH2 0x2BD1 JUMP JUMPDEST PUSH1 0x40 MLOAD DUP1 SWAP2 SUB SWAP1 LOG1 PUSH1 0x1 SWAP1 POP PUSH2 0x843 JUMP JUMPDEST PUSH32 0x66091B7DC2B097C8F60D5CD6AA99633B097F08D2EB1056F3E15361B22E0EA2BA PUSH1 0x40 MLOAD PUSH2 0x836 SWAP1 PUSH2 0x2C89 JUMP JUMPDEST PUSH1 0x40 MLOAD DUP1 SWAP2 SUB SWAP1 LOG1 PUSH1 0x0 SWAP1 POP JUMPDEST SWAP3 SWAP2 POP POP JUMP JUMPDEST PUSH1 0x0 DUP1 PUSH1 0x0 SWAP1 SLOAD SWAP1 PUSH2 0x100 EXP SWAP1 DIV PUSH1 0xFF AND PUSH2 0x899 JUMPI PUSH1 0x40 MLOAD PUSH32 0x8C379A000000000000000000000000000000000000000000000000000000000 DUP2 MSTORE PUSH1 0x4 ADD PUSH2 0x890 SWAP1 PUSH2 0x2A44 JUMP JUMPDEST PUSH1 0x40 MLOAD DUP1 SWAP2 SUB SWAP1 REVERT JUMPDEST CALLER PUSH20 0xFFFFFFFFFFFFFFFFFFFFFFFFFFFFFFFFFFFFFFFF AND PUSH1 0x1 DUP1 ADD PUSH1 0x0 SWAP1 SLOAD SWAP1 PUSH2 0x100 EXP SWAP1 DIV PUSH20 0xFFFFFFFFFFFFFFFFFFFFFFFFFFFFFFFFFFFFFFFF AND PUSH20 0xFFFFFFFFFFFFFFFFFFFFFFFFFFFFFFFFFFFFFFFF AND EQ PUSH2 0x92B JUMPI PUSH1 0x40 MLOAD PUSH32 0x8C379A000000000000000000000000000000000000000000000000000000000 DUP2 MSTORE PUSH1 0x4 ADD PUSH2 0x922 SWAP1 PUSH2 0x2D1B JUMP JUMPDEST PUSH1 0x40 MLOAD DUP1 SWAP2 SUB SWAP1 REVERT JUMPDEST PUSH2 0xA80 PUSH1 0x5 PUSH1 0x0 CALLER PUSH20 0xFFFFFFFFFFFFFFFFFFFFFFFFFFFFFFFFFFFFFFFF AND PUSH20 0xFFFFFFFFFFFFFFFFFFFFFFFFFFFFFFFFFFFFFFFF AND DUP2 MSTORE PUSH1 0x20 ADD SWAP1 DUP2 MSTORE PUSH1 0x20 ADD PUSH1 0x0 KECCAK256 PUSH1 0x40 MLOAD DUP1 PUSH1 0x60 ADD PUSH1 0x40 MSTORE SWAP1 DUP2 PUSH1 0x0 DUP3 ADD DUP1 SLOAD PUSH2 0x988 SWAP1 PUSH2 0x2B54 JUMP JUMPDEST DUP1 PUSH1 0x1F ADD PUSH1 0x20 DUP1 SWAP2 DIV MUL PUSH1 0x20 ADD PUSH1 0x40 MLOAD SWAP1 DUP2 ADD PUSH1 0x40 MSTORE DUP1 SWAP3 SWAP2 SWAP1 DUP2 DUP2 MSTORE PUSH1 0x20 ADD DUP3 DUP1 SLOAD PUSH2 0x9B4 SWAP1 PUSH2 0x2B54 JUMP JUMPDEST DUP1 ISZERO PUSH2 0xA01 JUMPI DUP1 PUSH1 0x1F LT PUSH2 0x9D6 JUMPI PUSH2 0x100 DUP1 DUP4 SLOAD DIV MUL DUP4 MSTORE SWAP2 PUSH1 0x20 ADD SWAP2 PUSH2 0xA01 JUMP JUMPDEST DUP3 ADD SWAP2 SWAP1 PUSH1 0x0 MSTORE PUSH1 0x20 PUSH1 0x0 KECCAK256 SWAP1 JUMPDEST DUP2 SLOAD DUP2 MSTORE SWAP1 PUSH1 0x1 ADD SWAP1 PUSH1 0x20 ADD DUP1 DUP4 GT PUSH2 0x9E4 JUMPI DUP3 SWAP1 SUB PUSH1 0x1F AND DUP3 ADD SWAP2 JUMPDEST POP POP POP POP POP DUP2 MSTORE PUSH1 0x20 ADD PUSH1 0x1 DUP3 ADD PUSH1 0x0 SWAP1 SLOAD SWAP1 PUSH2 0x100 EXP SWAP1 DIV PUSH20 0xFFFFFFFFFFFFFFFFFFFFFFFFFFFFFFFFFFFFFFFF AND PUSH20 0xFFFFFFFFFFFFFFFFFFFFFFFFFFFFFFFFFFFFFFFF AND PUSH20 0xFFFFFFFFFFFFFFFFFFFFFFFFFFFFFFFFFFFFFFFF AND DUP2 MSTORE PUSH1 0x20 ADD PUSH1 0x1 DUP3 ADD PUSH1 0x14 SWAP1 SLOAD SWAP1 PUSH2 0x100 EXP SWAP1 DIV PUSH1 0xFF AND ISZERO ISZERO ISZERO ISZERO DUP2 MSTORE POP POP PUSH2 0x1AA5 JUMP JUMPDEST PUSH2 0xABF JUMPI PUSH1 0x40 MLOAD PUSH32 0x8C379A000000000000000000000000000000000000000000000000000000000 DUP2 MSTORE PUSH1 0x4 ADD PUSH2 0xAB6 SWAP1 PUSH2 0x2DD3 JUMP JUMPDEST PUSH1 0x40 MLOAD DUP1 SWAP2 SUB SWAP1 REVERT JUMPDEST PUSH2 0xB47 DUP4 PUSH1 0xA PUSH1 0x0 DUP2 SLOAD DUP2 LT PUSH2 0xAD8 JUMPI PUSH2 0xAD7 PUSH2 0x2AF6 JUMP JUMPDEST JUMPDEST SWAP1 PUSH1 0x0 MSTORE PUSH1 0x20 PUSH1 0x0 KECCAK256 ADD PUSH1 0x40 MLOAD DUP1 PUSH1 0x40 ADD PUSH1 0x40 MSTORE SWAP1 DUP2 PUSH1 0x0 DUP3 ADD PUSH1 0x0 SWAP1 SLOAD SWAP1 PUSH2 0x100 EXP SWAP1 DIV PUSH4 0xFFFFFFFF AND PUSH4 0xFFFFFFFF AND PUSH4 0xFFFFFFFF AND DUP2 MSTORE PUSH1 0x20 ADD PUSH1 0x0 DUP3 ADD PUSH1 0x4 SWAP1 SLOAD SWAP1 PUSH2 0x100 EXP SWAP1 DIV PUSH4 0xFFFFFFFF AND PUSH4 0xFFFFFFFF AND PUSH4 0xFFFFFFFF AND DUP2 MSTORE POP POP PUSH2 0x1AB3 SWAP1 SWAP2 SWAP1 PUSH4 0xFFFFFFFF AND JUMP JUMPDEST ISZERO DUP1 ISZERO PUSH2 0xCD9 JUMPI POP PUSH2 0xCD8 DUP3 PUSH1 0x0 DUP2 MLOAD DUP2 LT PUSH2 0xB66 JUMPI PUSH2 0xB65 PUSH2 0x2AF6 JUMP JUMPDEST JUMPDEST PUSH1 0x20 MUL PUSH1 0x20 ADD ADD MLOAD PUSH1 0xB PUSH1 0x0 DUP2 SLOAD DUP2 LT PUSH2 0xB83 JUMPI PUSH2 0xB82 PUSH2 0x2AF6 JUMP JUMPDEST JUMPDEST SWAP1 PUSH1 0x0 MSTORE PUSH1 0x20 PUSH1 0x0 KECCAK256 SWAP1 PUSH1 0x3 MUL ADD PUSH1 0x40 MLOAD DUP1 PUSH1 0x60 ADD PUSH1 0x40 MSTORE SWAP1 DUP2 PUSH1 0x0 DUP3 ADD DUP1 SLOAD PUSH2 0xBAC SWAP1 PUSH2 0x2B54 JUMP JUMPDEST DUP1 PUSH1 0x1F ADD PUSH1 0x20 DUP1 SWAP2 DIV MUL PUSH1 0x20 ADD PUSH1 0x40 MLOAD SWAP1 DUP2 ADD PUSH1 0x40 MSTORE DUP1 SWAP3 SWAP2 SWAP1 DUP2 DUP2 MSTORE PUSH1 0x20 ADD DUP3 DUP1 SLOAD PUSH2 0xBD8 SWAP1 PUSH2 0x2B54 JUMP JUMPDEST DUP1 ISZERO PUSH2 0xC25 JUMPI DUP1 PUSH1 0x1F LT PUSH2 0xBFA JUMPI PUSH2 0x100 DUP1 DUP4 SLOAD DIV MUL DUP4 MSTORE SWAP2 PUSH1 0x20 ADD SWAP2 PUSH2 0xC25 JUMP JUMPDEST DUP3 ADD SWAP2 SWAP1 PUSH1 0x0 MSTORE PUSH1 0x20 PUSH1 0x0 KECCAK256 SWAP1 JUMPDEST DUP2 SLOAD DUP2 MSTORE SWAP1 PUSH1 0x1 ADD SWAP1 PUSH1 0x20 ADD DUP1 DUP4 GT PUSH2 0xC08 JUMPI DUP3 SWAP1 SUB PUSH1 0x1F AND DUP3 ADD SWAP2 JUMPDEST POP POP POP POP POP DUP2 MSTORE PUSH1 0x20 ADD PUSH1 0x1 DUP3 ADD DUP1 SLOAD PUSH2 0xC3E SWAP1 PUSH2 0x2B54 JUMP JUMPDEST DUP1 PUSH1 0x1F ADD PUSH1 0x20 DUP1 SWAP2 DIV MUL PUSH1 0x20 ADD PUSH1 0x40 MLOAD SWAP1 DUP2 ADD PUSH1 0x40 MSTORE DUP1 SWAP3 SWAP2 SWAP1 DUP2 DUP2 MSTORE PUSH1 0x20 ADD DUP3 DUP1 SLOAD PUSH2 0xC6A SWAP1 PUSH2 0x2B54 JUMP JUMPDEST DUP1 ISZERO PUSH2 0xCB7 JUMPI DUP1 PUSH1 0x1F LT PUSH2 0xC8C JUMPI PUSH2 0x100 DUP1 DUP4 SLOAD DIV MUL DUP4 MSTORE SWAP2 PUSH1 0x20 ADD SWAP2 PUSH2 0xCB7 JUMP JUMPDEST DUP3 ADD SWAP2 SWAP1 PUSH1 0x0 MSTORE PUSH1 0x20 PUSH1 0x0 KECCAK256 SWAP1 JUMPDEST DUP2 SLOAD DUP2 MSTORE SWAP1 PUSH1 0x1 ADD SWAP1 PUSH1 0x20 ADD DUP1 DUP4 GT PUSH2 0xC9A JUMPI DUP3 SWAP1 SUB PUSH1 0x1F AND DUP3 ADD SWAP2 JUMPDEST POP POP POP POP POP DUP2 MSTORE PUSH1 0x20 ADD PUSH1 0x2 DUP3 ADD SLOAD DUP2 MSTORE POP POP PUSH2 0x17E1 SWAP1 SWAP2 SWAP1 PUSH4 0xFFFFFFFF AND JUMP JUMPDEST JUMPDEST ISZERO PUSH2 0xD4E JUMPI PUSH2 0xD0F DUP4 PUSH1 0x8 PUSH1 0x0 DUP2 SLOAD DUP2 LT PUSH2 0xCF7 JUMPI PUSH2 0xCF6 PUSH2 0x2AF6 JUMP JUMPDEST JUMPDEST SWAP1 PUSH1 0x0 MSTORE PUSH1 0x20 PUSH1 0x0 KECCAK256 ADD PUSH2 0x19D3 SWAP1 SWAP2 SWAP1 PUSH4 0xFFFFFFFF AND JUMP JUMPDEST POP PUSH32 0x95A1F3A1DAFDD4C1AF344E3D7C69A72CBCE8A3F15FE1CF95A7F5BD23DF2E71A1 PUSH1 0x40 MLOAD PUSH2 0xD3D SWAP1 PUSH2 0x2BD1 JUMP JUMPDEST PUSH1 0x40 MLOAD DUP1 SWAP2 SUB SWAP1 LOG1 PUSH1 0x1 SWAP1 POP PUSH2 0xD88 JUMP JUMPDEST PUSH32 0x66091B7DC2B097C8F60D5CD6AA99633B097F08D2EB1056F3E15361B22E0EA2BA PUSH1 0x40 MLOAD PUSH2 0xD7B SWAP1 PUSH2 0x2E8B JUMP JUMPDEST PUSH1 0x40 MLOAD DUP1 SWAP2 SUB SWAP1 LOG1 PUSH1 0x0 SWAP1 POP JUMPDEST SWAP3 SWAP2 POP POP JUMP JUMPDEST PUSH1 0x0 CALLER PUSH20 0xFFFFFFFFFFFFFFFFFFFFFFFFFFFFFFFFFFFFFFFF AND PUSH1 0x3 PUSH1 0x1 ADD PUSH1 0x0 SWAP1 SLOAD SWAP1 PUSH2 0x100 EXP SWAP1 DIV PUSH20 0xFFFFFFFFFFFFFFFFFFFFFFFFFFFFFFFFFFFFFFFF AND PUSH20 0xFFFFFFFFFFFFFFFFFFFFFFFFFFFFFFFFFFFFFFFF AND EQ PUSH2 0xE23 JUMPI PUSH1 0x40 MLOAD PUSH32 0x8C379A000000000000000000000000000000000000000000000000000000000 DUP2 MSTORE PUSH1 0x4 ADD PUSH2 0xE1A SWAP1 PUSH2 0x2AD6 JUMP JUMPDEST PUSH1 0x40 MLOAD DUP1 SWAP2 SUB SWAP1 REVERT JUMPDEST PUSH1 0x5 PUSH1 0x0 PUSH1 0x1 DUP1 ADD PUSH1 0x0 SWAP1 SLOAD SWAP1 PUSH2 0x100 EXP SWAP1 DIV PUSH20 0xFFFFFFFFFFFFFFFFFFFFFFFFFFFFFFFFFFFFFFFF AND PUSH20 0xFFFFFFFFFFFFFFFFFFFFFFFFFFFFFFFFFFFFFFFF AND PUSH20 0xFFFFFFFFFFFFFFFFFFFFFFFFFFFFFFFFFFFFFFFF AND DUP2 MSTORE PUSH1 0x20 ADD SWAP1 DUP2 MSTORE PUSH1 0x20 ADD PUSH1 0x0 KECCAK256 PUSH1 0x0 DUP1 DUP3 ADD PUSH1 0x0 PUSH2 0xE97 SWAP2 SWAP1 PUSH2 0x225E JUMP JUMPDEST PUSH1 0x1 DUP3 ADD PUSH1 0x0 PUSH2 0x100 EXP DUP2 SLOAD SWAP1 PUSH20 0xFFFFFFFFFFFFFFFFFFFFFFFFFFFFFFFFFFFFFFFF MUL NOT AND SWAP1 SSTORE PUSH1 0x1 DUP3 ADD PUSH1 0x14 PUSH2 0x100 EXP DUP2 SLOAD SWAP1 PUSH1 0xFF MUL NOT AND SWAP1 SSTORE POP POP PUSH2 0xEE0 DUP4 DUP4 PUSH1 0x0 PUSH2 0x164E JUMP JUMPDEST PUSH1 0x1 PUSH1 0x0 DUP3 ADD MLOAD DUP2 PUSH1 0x0 ADD SWAP1 DUP1 MLOAD SWAP1 PUSH1 0x20 ADD SWAP1 PUSH2 0xEFE SWAP3 SWAP2 SWAP1 PUSH2 0x229E JUMP JUMPDEST POP PUSH1 0x20 DUP3 ADD MLOAD DUP2 PUSH1 0x1 ADD PUSH1 0x0 PUSH2 0x100 EXP DUP2 SLOAD DUP2 PUSH20 0xFFFFFFFFFFFFFFFFFFFFFFFFFFFFFFFFFFFFFFFF MUL NOT AND SWAP1 DUP4 PUSH20 0xFFFFFFFFFFFFFFFFFFFFFFFFFFFFFFFFFFFFFFFF AND MUL OR SWAP1 SSTORE POP PUSH1 0x40 DUP3 ADD MLOAD DUP2 PUSH1 0x1 ADD PUSH1 0x14 PUSH2 0x100 EXP DUP2 SLOAD DUP2 PUSH1 0xFF MUL NOT AND SWAP1 DUP4 ISZERO ISZERO MUL OR SWAP1 SSTORE POP SWAP1 POP POP PUSH2 0xF74 DUP3 PUSH1 0x1 PUSH2 0x1B42 JUMP JUMPDEST POP PUSH1 0x1 SWAP1 POP SWAP3 SWAP2 POP POP JUMP JUMPDEST PUSH1 0x0 DUP1 PUSH1 0x0 SWAP1 SLOAD SWAP1 PUSH2 0x100 EXP SWAP1 DIV PUSH1 0xFF AND PUSH2 0xFCF JUMPI PUSH1 0x40 MLOAD PUSH32 0x8C379A000000000000000000000000000000000000000000000000000000000 DUP2 MSTORE PUSH1 0x4 ADD PUSH2 0xFC6 SWAP1 PUSH2 0x2A44 JUMP JUMPDEST PUSH1 0x40 MLOAD DUP1 SWAP2 SUB SWAP1 REVERT JUMPDEST CALLER PUSH20 0xFFFFFFFFFFFFFFFFFFFFFFFFFFFFFFFFFFFFFFFF AND PUSH1 0x1 DUP1 ADD PUSH1 0x0 SWAP1 SLOAD SWAP1 PUSH2 0x100 EXP SWAP1 DIV PUSH20 0xFFFFFFFFFFFFFFFFFFFFFFFFFFFFFFFFFFFFFFFF AND PUSH20 0xFFFFFFFFFFFFFFFFFFFFFFFFFFFFFFFFFFFFFFFF AND EQ DUP1 PUSH2 0x107D JUMPI POP CALLER PUSH20 0xFFFFFFFFFFFFFFFFFFFFFFFFFFFFFFFFFFFFFFFF AND PUSH1 0x3 PUSH1 0x1 ADD PUSH1 0x0 SWAP1 SLOAD SWAP1 PUSH2 0x100 EXP SWAP1 DIV PUSH20 0xFFFFFFFFFFFFFFFFFFFFFFFFFFFFFFFFFFFFFFFF AND PUSH20 0xFFFFFFFFFFFFFFFFFFFFFFFFFFFFFFFFFFFFFFFF AND EQ JUMPDEST PUSH2 0x10BC JUMPI PUSH1 0x40 MLOAD PUSH32 0x8C379A000000000000000000000000000000000000000000000000000000000 DUP2 MSTORE PUSH1 0x4 ADD PUSH2 0x10B3 SWAP1 PUSH2 0x2F1D JUMP JUMPDEST PUSH1 0x40 MLOAD DUP1 SWAP2 SUB SWAP1 REVERT JUMPDEST PUSH1 0x1 DUP1 ADD PUSH1 0x0 SWAP1 SLOAD SWAP1 PUSH2 0x100 EXP SWAP1 DIV PUSH20 0xFFFFFFFFFFFFFFFFFFFFFFFFFFFFFFFFFFFFFFFF AND SWAP1 POP SWAP1 JUMP JUMPDEST PUSH1 0x0 DUP1 PUSH1 0x0 SWAP1 SLOAD SWAP1 PUSH2 0x100 EXP SWAP1 DIV PUSH1 0xFF AND PUSH2 0x1136 JUMPI PUSH1 0x40 MLOAD PUSH32 0x8C379A000000000000000000000000000000000000000000000000000000000 DUP2 MSTORE PUSH1 0x4 ADD PUSH2 0x112D SWAP1 PUSH2 0x2A44 JUMP JUMPDEST PUSH1 0x40 MLOAD DUP1 SWAP2 SUB SWAP1 REVERT JUMPDEST CALLER PUSH20 0xFFFFFFFFFFFFFFFFFFFFFFFFFFFFFFFFFFFFFFFF AND PUSH1 0x1 DUP1 ADD PUSH1 0x0 SWAP1 SLOAD SWAP1 PUSH2 0x100 EXP SWAP1 DIV PUSH20 0xFFFFFFFFFFFFFFFFFFFFFFFFFFFFFFFFFFFFFFFF AND PUSH20 0xFFFFFFFFFFFFFFFFFFFFFFFFFFFFFFFFFFFFFFFF AND EQ DUP1 PUSH2 0x11E4 JUMPI POP CALLER PUSH20 0xFFFFFFFFFFFFFFFFFFFFFFFFFFFFFFFFFFFFFFFF AND PUSH1 0x3 PUSH1 0x1 ADD PUSH1 0x0 SWAP1 SLOAD SWAP1 PUSH2 0x100 EXP SWAP1 DIV PUSH20 0xFFFFFFFFFFFFFFFFFFFFFFFFFFFFFFFFFFFFFFFF AND PUSH20 0xFFFFFFFFFFFFFFFFFFFFFFFFFFFFFFFFFFFFFFFF AND EQ JUMPDEST PUSH2 0x1223 JUMPI PUSH1 0x40 MLOAD PUSH32 0x8C379A000000000000000000000000000000000000000000000000000000000 DUP2 MSTORE PUSH1 0x4 ADD PUSH2 0x121A SWAP1 PUSH2 0x2F1D JUMP JUMPDEST PUSH1 0x40 MLOAD DUP1 SWAP2 SUB SWAP1 REVERT JUMPDEST PUSH1 0x3 PUSH1 0x1 ADD PUSH1 0x0 SWAP1 SLOAD SWAP1 PUSH2 0x100 EXP SWAP1 DIV PUSH20 0xFFFFFFFFFFFFFFFFFFFFFFFFFFFFFFFFFFFFFFFF AND SWAP1 POP SWAP1 JUMP JUMPDEST PUSH1 0x0 DUP1 PUSH1 0x0 SWAP1 SLOAD SWAP1 PUSH2 0x100 EXP SWAP1 DIV PUSH1 0xFF AND PUSH2 0x129E JUMPI PUSH1 0x40 MLOAD PUSH32 0x8C379A000000000000000000000000000000000000000000000000000000000 DUP2 MSTORE PUSH1 0x4 ADD PUSH2 0x1295 SWAP1 PUSH2 0x2A44 JUMP JUMPDEST PUSH1 0x40 MLOAD DUP1 SWAP2 SUB SWAP1 REVERT JUMPDEST CALLER PUSH20 0xFFFFFFFFFFFFFFFFFFFFFFFFFFFFFFFFFFFFFFFF AND PUSH1 0x1 DUP1 ADD PUSH1 0x0 SWAP1 SLOAD SWAP1 PUSH2 0x100 EXP SWAP1 DIV PUSH20 0xFFFFFFFFFFFFFFFFFFFFFFFFFFFFFFFFFFFFFFFF AND PUSH20 0xFFFFFFFFFFFFFFFFFFFFFFFFFFFFFFFFFFFFFFFF AND EQ PUSH2 0x1330 JUMPI PUSH1 0x40 MLOAD PUSH32 0x8C379A000000000000000000000000000000000000000000000000000000000 DUP2 MSTORE PUSH1 0x4 ADD PUSH2 0x1327 SWAP1 PUSH2 0x2D1B JUMP JUMPDEST PUSH1 0x40 MLOAD DUP1 SWAP2 SUB SWAP1 REVERT JUMPDEST PUSH1 0x0 ISZERO ISZERO PUSH1 0x1 DUP1 ADD PUSH1 0x14 SWAP1 SLOAD SWAP1 PUSH2 0x100 EXP SWAP1 DIV PUSH1 0xFF AND ISZERO ISZERO EQ PUSH2 0x1388 JUMPI PUSH1 0x40 MLOAD PUSH32 0x8C379A000000000000000000000000000000000000000000000000000000000 DUP2 MSTORE PUSH1 0x4 ADD PUSH2 0x137F SWAP1 PUSH2 0x2F89 JUMP JUMPDEST PUSH1 0x40 MLOAD DUP1 SWAP2 SUB SWAP1 REVERT JUMPDEST PUSH1 0x1 DUP1 PUSH1 0x1 ADD PUSH1 0x14 PUSH2 0x100 EXP DUP2 SLOAD DUP2 PUSH1 0xFF MUL NOT AND SWAP1 DUP4 ISZERO ISZERO MUL OR SWAP1 SSTORE POP PUSH2 0x13B0 CALLER PUSH1 0x1 PUSH2 0x1B42 JUMP JUMPDEST POP PUSH1 0x1 SWAP1 POP SWAP1 JUMP JUMPDEST PUSH2 0x13C0 PUSH2 0x2324 JUMP JUMPDEST PUSH1 0x0 DUP1 SLOAD SWAP1 PUSH2 0x100 EXP SWAP1 DIV PUSH1 0xFF AND PUSH2 0x140D JUMPI PUSH1 0x40 MLOAD PUSH32 0x8C379A000000000000000000000000000000000000000000000000000000000 DUP2 MSTORE PUSH1 0x4 ADD PUSH2 0x1404 SWAP1 PUSH2 0x2A44 JUMP JUMPDEST PUSH1 0x40 MLOAD DUP1 SWAP2 SUB SWAP1 REVERT JUMPDEST CALLER PUSH20 0xFFFFFFFFFFFFFFFFFFFFFFFFFFFFFFFFFFFFFFFF AND PUSH1 0x1 DUP1 ADD PUSH1 0x0 SWAP1 SLOAD SWAP1 PUSH2 0x100 EXP SWAP1 DIV PUSH20 0xFFFFFFFFFFFFFFFFFFFFFFFFFFFFFFFFFFFFFFFF AND PUSH20 0xFFFFFFFFFFFFFFFFFFFFFFFFFFFFFFFFFFFFFFFF AND EQ DUP1 PUSH2 0x14BB JUMPI POP CALLER PUSH20 0xFFFFFFFFFFFFFFFFFFFFFFFFFFFFFFFFFFFFFFFF AND PUSH1 0x3 PUSH1 0x1 ADD PUSH1 0x0 SWAP1 SLOAD SWAP1 PUSH2 0x100 EXP SWAP1 DIV PUSH20 0xFFFFFFFFFFFFFFFFFFFFFFFFFFFFFFFFFFFFFFFF AND PUSH20 0xFFFFFFFFFFFFFFFFFFFFFFFFFFFFFFFFFFFFFFFF AND EQ JUMPDEST PUSH2 0x14FA JUMPI PUSH1 0x40 MLOAD PUSH32 0x8C379A000000000000000000000000000000000000000000000000000000000 DUP2 MSTORE PUSH1 0x4 ADD PUSH2 0x14F1 SWAP1 PUSH2 0x2F1D JUMP JUMPDEST PUSH1 0x40 MLOAD DUP1 SWAP2 SUB SWAP1 REVERT JUMPDEST PUSH1 0x5 PUSH1 0x0 DUP4 PUSH20 0xFFFFFFFFFFFFFFFFFFFFFFFFFFFFFFFFFFFFFFFF AND PUSH20 0xFFFFFFFFFFFFFFFFFFFFFFFFFFFFFFFFFFFFFFFF AND DUP2 MSTORE PUSH1 0x20 ADD SWAP1 DUP2 MSTORE PUSH1 0x20 ADD PUSH1 0x0 KECCAK256 PUSH1 0x40 MLOAD DUP1 PUSH1 0x60 ADD PUSH1 0x40 MSTORE SWAP1 DUP2 PUSH1 0x0 DUP3 ADD DUP1 SLOAD PUSH2 0x1554 SWAP1 PUSH2 0x2B54 JUMP JUMPDEST DUP1 PUSH1 0x1F ADD PUSH1 0x20 DUP1 SWAP2 DIV MUL PUSH1 0x20 ADD PUSH1 0x40 MLOAD SWAP1 DUP2 ADD PUSH1 0x40 MSTORE DUP1 SWAP3 SWAP2 SWAP1 DUP2 DUP2 MSTORE PUSH1 0x20 ADD DUP3 DUP1 SLOAD PUSH2 0x1580 SWAP1 PUSH2 0x2B54 JUMP JUMPDEST DUP1 ISZERO PUSH2 0x15CD JUMPI DUP1 PUSH1 0x1F LT PUSH2 0x15A2 JUMPI PUSH2 0x100 DUP1 DUP4 SLOAD DIV MUL DUP4 MSTORE SWAP2 PUSH1 0x20 ADD SWAP2 PUSH2 0x15CD JUMP JUMPDEST DUP3 ADD SWAP2 SWAP1 PUSH1 0x0 MSTORE PUSH1 0x20 PUSH1 0x0 KECCAK256 SWAP1 JUMPDEST DUP2 SLOAD DUP2 MSTORE SWAP1 PUSH1 0x1 ADD SWAP1 PUSH1 0x20 ADD DUP1 DUP4 GT PUSH2 0x15B0 JUMPI DUP3 SWAP1 SUB PUSH1 0x1F AND DUP3 ADD SWAP2 JUMPDEST POP POP POP POP POP DUP2 MSTORE PUSH1 0x20 ADD PUSH1 0x1 DUP3 ADD PUSH1 0x0 SWAP1 SLOAD SWAP1 PUSH2 0x100 EXP SWAP1 DIV PUSH20 0xFFFFFFFFFFFFFFFFFFFFFFFFFFFFFFFFFFFFFFFF AND PUSH20 0xFFFFFFFFFFFFFFFFFFFFFFFFFFFFFFFFFFFFFFFF AND PUSH20 0xFFFFFFFFFFFFFFFFFFFFFFFFFFFFFFFFFFFFFFFF AND DUP2 MSTORE PUSH1 0x20 ADD PUSH1 0x1 DUP3 ADD PUSH1 0x14 SWAP1 SLOAD SWAP1 PUSH2 0x100 EXP SWAP1 DIV PUSH1 0xFF AND ISZERO ISZERO ISZERO ISZERO DUP2 MSTORE POP POP SWAP1 POP SWAP2 SWAP1 POP JUMP JUMPDEST PUSH2 0x1656 PUSH2 0x2324 JUMP JUMPDEST PUSH1 0x40 MLOAD DUP1 PUSH1 0x60 ADD PUSH1 0x40 MSTORE DUP1 DUP6 DUP2 MSTORE PUSH1 0x20 ADD DUP5 PUSH20 0xFFFFFFFFFFFFFFFFFFFFFFFFFFFFFFFFFFFFFFFF AND DUP2 MSTORE PUSH1 0x20 ADD DUP4 ISZERO ISZERO DUP2 MSTORE POP SWAP1 POP SWAP4 SWAP3 POP POP POP JUMP JUMPDEST PUSH2 0x169A PUSH2 0x235D JUMP JUMPDEST PUSH1 0x0 PUSH1 0x4 PUSH1 0xFF AND DUP4 PUSH1 0xFF AND GT PUSH2 0x16BA JUMPI PUSH2 0x16B3 DUP4 PUSH2 0x1C45 JUMP JUMPDEST SWAP1 POP PUSH2 0x16BF JUMP JUMPDEST PUSH1 0x1 SWAP1 POP JUMPDEST PUSH1 0x40 MLOAD DUP1 PUSH1 0xA0 ADD PUSH1 0x40 MSTORE DUP1 DUP6 PUSH4 0xFFFFFFFF AND DUP2 MSTORE PUSH1 0x20 ADD DUP5 PUSH1 0xFF AND DUP2 MSTORE PUSH1 0x20 ADD DUP3 PUSH4 0xFFFFFFFF AND DUP2 MSTORE PUSH1 0x20 ADD DUP6 PUSH4 0xFFFFFFFF AND DUP2 MSTORE PUSH1 0x20 ADD PUSH1 0x0 PUSH4 0xFFFFFFFF AND DUP2 MSTORE POP SWAP2 POP POP SWAP3 SWAP2 POP POP JUMP JUMPDEST PUSH2 0x1713 PUSH2 0x23A7 JUMP JUMPDEST PUSH1 0x40 MLOAD DUP1 PUSH1 0x60 ADD PUSH1 0x40 MSTORE DUP1 DUP6 DUP2 MSTORE PUSH1 0x20 ADD DUP5 DUP2 MSTORE PUSH1 0x20 ADD DUP4 DUP2 MSTORE POP SWAP1 POP SWAP4 SWAP3 POP POP POP JUMP JUMPDEST PUSH2 0x173F PUSH2 0x23C8 JUMP JUMPDEST PUSH1 0x40 MLOAD DUP1 PUSH1 0x40 ADD PUSH1 0x40 MSTORE DUP1 PUSH1 0x0 PUSH4 0xFFFFFFFF AND DUP2 MSTORE PUSH1 0x20 ADD DUP4 PUSH4 0xFFFFFFFF AND DUP2 MSTORE POP SWAP1 POP SWAP2 SWAP1 POP JUMP JUMPDEST PUSH1 0x0 PUSH2 0x179A DUP4 PUSH1 0x0 ADD PUSH1 0x4 SWAP1 SLOAD SWAP1 PUSH2 0x100 EXP SWAP1 DIV PUSH1 0xFF AND DUP5 PUSH1 0x0 ADD PUSH1 0xD SWAP1 SLOAD SWAP1 PUSH2 0x100 EXP SWAP1 DIV PUSH4 0xFFFFFFFF AND DUP5 PUSH2 0x1CFC JUMP JUMPDEST ISZERO PUSH2 0x17AA JUMPI PUSH2 0x17A9 DUP4 DUP4 PUSH2 0x1DC1 JUMP JUMPDEST JUMPDEST PUSH1 0x0 DUP4 PUSH1 0x0 ADD PUSH1 0x9 SWAP1 SLOAD SWAP1 PUSH2 0x100 EXP SWAP1 DIV PUSH4 0xFFFFFFFF AND PUSH4 0xFFFFFFFF AND GT ISZERO PUSH2 0x17D6 JUMPI PUSH1 0x1 SWAP1 POP PUSH2 0x17DB JUMP JUMPDEST PUSH1 0x0 SWAP1 POP JUMPDEST SWAP3 SWAP2 POP POP JUMP JUMPDEST PUSH1 0x0 DUP1 DUP4 PUSH1 0x20 ADD MLOAD SWAP1 POP PUSH1 0x21 PUSH1 0xF8 SHL DUP2 PUSH1 0x0 DUP2 MLOAD DUP2 LT PUSH2 0x1804 JUMPI PUSH2 0x1803 PUSH2 0x2AF6 JUMP JUMPDEST JUMPDEST PUSH1 0x20 ADD ADD MLOAD PUSH1 0xF8 SHR PUSH1 0xF8 SHL PUSH31 0xFFFFFFFFFFFFFFFFFFFFFFFFFFFFFFFFFFFFFFFFFFFFFFFFFFFFFFFFFFFFFF NOT AND SUB PUSH2 0x1846 JUMPI DUP4 PUSH1 0x40 ADD MLOAD DUP4 EQ ISZERO SWAP2 POP POP PUSH2 0x19CD JUMP JUMPDEST PUSH1 0x3D PUSH1 0xF8 SHL DUP2 PUSH1 0x0 DUP2 MLOAD DUP2 LT PUSH2 0x185F JUMPI PUSH2 0x185E PUSH2 0x2AF6 JUMP JUMPDEST JUMPDEST PUSH1 0x20 ADD ADD MLOAD PUSH1 0xF8 SHR PUSH1 0xF8 SHL PUSH31 0xFFFFFFFFFFFFFFFFFFFFFFFFFFFFFFFFFFFFFFFFFFFFFFFFFFFFFFFFFFFFFF NOT AND SUB PUSH2 0x18A0 JUMPI DUP4 PUSH1 0x40 ADD MLOAD DUP4 EQ SWAP2 POP POP PUSH2 0x19CD JUMP JUMPDEST PUSH1 0x3C PUSH1 0xF8 SHL DUP2 PUSH1 0x0 DUP2 MLOAD DUP2 LT PUSH2 0x18B9 JUMPI PUSH2 0x18B8 PUSH2 0x2AF6 JUMP JUMPDEST JUMPDEST PUSH1 0x20 ADD ADD MLOAD PUSH1 0xF8 SHR PUSH1 0xF8 SHL PUSH31 0xFFFFFFFFFFFFFFFFFFFFFFFFFFFFFFFFFFFFFFFFFFFFFFFFFFFFFFFFFFFFFF NOT AND SUB PUSH2 0x1913 JUMPI PUSH1 0x2 DUP2 MLOAD SUB PUSH2 0x1904 JUMPI DUP4 PUSH1 0x40 ADD MLOAD DUP4 SGT ISZERO SWAP2 POP POP PUSH2 0x19CD JUMP JUMPDEST DUP4 PUSH1 0x40 ADD MLOAD DUP4 SLT SWAP2 POP POP PUSH2 0x19CD JUMP JUMPDEST PUSH1 0x3E PUSH1 0xF8 SHL DUP2 PUSH1 0x0 DUP2 MLOAD DUP2 LT PUSH2 0x192C JUMPI PUSH2 0x192B PUSH2 0x2AF6 JUMP JUMPDEST JUMPDEST PUSH1 0x20 ADD ADD MLOAD PUSH1 0xF8 SHR PUSH1 0xF8 SHL PUSH31 0xFFFFFFFFFFFFFFFFFFFFFFFFFFFFFFFFFFFFFFFFFFFFFFFFFFFFFFFFFFFFFF NOT AND SUB PUSH2 0x1986 JUMPI PUSH1 0x2 DUP2 MLOAD SUB PUSH2 0x1977 JUMPI DUP4 PUSH1 0x40 ADD MLOAD DUP4 SLT ISZERO SWAP2 POP POP PUSH2 0x19CD JUMP JUMPDEST DUP4 PUSH1 0x40 ADD MLOAD DUP4 SGT SWAP2 POP POP PUSH2 0x19CD JUMP JUMPDEST PUSH1 0x0 PUSH2 0x19C7 JUMPI PUSH1 0x40 MLOAD PUSH32 0x8C379A000000000000000000000000000000000000000000000000000000000 DUP2 MSTORE PUSH1 0x4 ADD PUSH2 0x19BE SWAP1 PUSH2 0x2FF5 JUMP JUMPDEST PUSH1 0x40 MLOAD DUP1 SWAP2 SUB SWAP1 REVERT JUMPDEST PUSH1 0x0 SWAP2 POP POP JUMPDEST SWAP3 SWAP2 POP POP JUMP JUMPDEST PUSH1 0x0 PUSH2 0x19DF DUP4 DUP4 PUSH2 0x1768 JUMP JUMPDEST ISZERO PUSH2 0x1A2F JUMPI PUSH1 0x1 DUP4 PUSH1 0x0 ADD PUSH1 0x9 DUP3 DUP3 DUP3 SWAP1 SLOAD SWAP1 PUSH2 0x100 EXP SWAP1 DIV PUSH4 0xFFFFFFFF AND PUSH2 0x1A08 SWAP2 SWAP1 PUSH2 0x3044 JUMP JUMPDEST SWAP3 POP PUSH2 0x100 EXP DUP2 SLOAD DUP2 PUSH4 0xFFFFFFFF MUL NOT AND SWAP1 DUP4 PUSH4 0xFFFFFFFF AND MUL OR SWAP1 SSTORE POP PUSH1 0x1 SWAP1 POP PUSH2 0x1A34 JUMP JUMPDEST PUSH1 0x0 SWAP1 POP JUMPDEST SWAP3 SWAP2 POP POP JUMP JUMPDEST DUP1 PUSH1 0x0 PUSH2 0x1A4C DUP3 PUSH4 0xFFFFFFFF AND PUSH2 0x1E4E JUMP JUMPDEST SWAP1 POP PUSH1 0xA DUP2 MLOAD GT ISZERO PUSH2 0x1A5D JUMPI PUSH1 0x0 DUP1 REVERT JUMPDEST DUP4 PUSH1 0x0 ADD PUSH1 0x4 SWAP1 SLOAD SWAP1 PUSH2 0x100 EXP SWAP1 DIV PUSH4 0xFFFFFFFF AND DUP4 PUSH2 0x1A7D SWAP2 SWAP1 PUSH2 0x3078 JUMP JUMPDEST DUP5 PUSH1 0x0 ADD PUSH1 0x0 PUSH2 0x100 EXP DUP2 SLOAD DUP2 PUSH4 0xFFFFFFFF MUL NOT AND SWAP1 DUP4 PUSH4 0xFFFFFFFF AND MUL OR SWAP1 SSTORE POP POP POP POP POP JUMP JUMPDEST PUSH1 0x0 DUP2 PUSH1 0x40 ADD MLOAD SWAP1 POP SWAP2 SWAP1 POP JUMP JUMPDEST PUSH1 0x0 DUP2 PUSH1 0x0 PUSH2 0x1AC7 DUP3 PUSH4 0xFFFFFFFF AND PUSH2 0x1E4E JUMP JUMPDEST SWAP1 POP PUSH1 0xA DUP2 MLOAD GT ISZERO PUSH2 0x1AD8 JUMPI PUSH1 0x0 DUP1 REVERT JUMPDEST PUSH1 0x0 DUP6 PUSH1 0x0 ADD MLOAD PUSH4 0xFFFFFFFF AND GT PUSH2 0x1B25 JUMPI PUSH1 0x40 MLOAD PUSH32 0x8C379A000000000000000000000000000000000000000000000000000000000 DUP2 MSTORE PUSH1 0x4 ADD PUSH2 0x1B1C SWAP1 PUSH2 0x3124 JUMP JUMPDEST PUSH1 0x40 MLOAD DUP1 SWAP2 SUB SWAP1 REVERT JUMPDEST DUP5 PUSH1 0x0 ADD MLOAD PUSH4 0xFFFFFFFF AND DUP5 PUSH4 0xFFFFFFFF AND GT SWAP3 POP POP POP SWAP3 SWAP2 POP POP JUMP JUMPDEST PUSH1 0x0 DUP2 PUSH1 0x5 PUSH1 0x0 DUP6 PUSH20 0xFFFFFFFFFFFFFFFFFFFFFFFFFFFFFFFFFFFFFFFF AND PUSH20 0xFFFFFFFFFFFFFFFFFFFFFFFFFFFFFFFFFFFFFFFF AND DUP2 MSTORE PUSH1 0x20 ADD SWAP1 DUP2 MSTORE PUSH1 0x20 ADD PUSH1 0x0 KECCAK256 PUSH1 0x0 DUP3 ADD DUP2 PUSH1 0x0 ADD SWAP1 DUP1 SLOAD PUSH2 0x1B98 SWAP1 PUSH2 0x2B54 JUMP JUMPDEST PUSH2 0x1BA3 SWAP3 SWAP2 SWAP1 PUSH2 0x23EE JUMP JUMPDEST POP PUSH1 0x1 DUP3 ADD PUSH1 0x0 SWAP1 SLOAD SWAP1 PUSH2 0x100 EXP SWAP1 DIV PUSH20 0xFFFFFFFFFFFFFFFFFFFFFFFFFFFFFFFFFFFFFFFF AND DUP2 PUSH1 0x1 ADD PUSH1 0x0 PUSH2 0x100 EXP DUP2 SLOAD DUP2 PUSH20 0xFFFFFFFFFFFFFFFFFFFFFFFFFFFFFFFFFFFFFFFF MUL NOT AND SWAP1 DUP4 PUSH20 0xFFFFFFFFFFFFFFFFFFFFFFFFFFFFFFFFFFFFFFFF AND MUL OR SWAP1 SSTORE POP PUSH1 0x1 DUP3 ADD PUSH1 0x14 SWAP1 SLOAD SWAP1 PUSH2 0x100 EXP SWAP1 DIV PUSH1 0xFF AND DUP2 PUSH1 0x1 ADD PUSH1 0x14 PUSH2 0x100 EXP DUP2 SLOAD DUP2 PUSH1 0xFF MUL NOT AND SWAP1 DUP4 ISZERO ISZERO MUL OR SWAP1 SSTORE POP SWAP1 POP POP PUSH1 0x1 SWAP1 POP SWAP3 SWAP2 POP POP JUMP JUMPDEST PUSH1 0x0 PUSH1 0x4 PUSH1 0xFF AND DUP3 PUSH1 0xFF AND GT ISZERO PUSH2 0x1C91 JUMPI PUSH1 0x40 MLOAD PUSH32 0x8C379A000000000000000000000000000000000000000000000000000000000 DUP2 MSTORE PUSH1 0x4 ADD PUSH2 0x1C88 SWAP1 PUSH2 0x31B6 JUMP JUMPDEST PUSH1 0x40 MLOAD DUP1 SWAP2 SUB SWAP1 REVERT JUMPDEST PUSH1 0x0 PUSH1 0xFF AND DUP3 PUSH1 0xFF AND SUB PUSH2 0x1CA8 JUMPI PUSH1 0x1 SWAP1 POP PUSH2 0x1CF7 JUMP JUMPDEST PUSH1 0x1 PUSH1 0xFF AND DUP3 PUSH1 0xFF AND SUB PUSH2 0x1CBF JUMPI PUSH1 0x3C SWAP1 POP PUSH2 0x1CF7 JUMP JUMPDEST PUSH1 0x2 PUSH1 0xFF AND DUP3 PUSH1 0xFF AND SUB PUSH2 0x1CD7 JUMPI PUSH2 0xE10 SWAP1 POP PUSH2 0x1CF7 JUMP JUMPDEST PUSH1 0x3 PUSH1 0xFF AND DUP3 PUSH1 0xFF AND SUB PUSH2 0x1CF0 JUMPI PUSH3 0x15180 SWAP1 POP PUSH2 0x1CF7 JUMP JUMPDEST PUSH3 0x93A80 SWAP1 POP JUMPDEST SWAP2 SWAP1 POP JUMP JUMPDEST PUSH1 0x0 DUP1 DUP5 SWAP1 POP PUSH1 0x4 PUSH1 0xFF AND DUP2 PUSH1 0xFF AND GT PUSH2 0x1D28 JUMPI DUP4 PUSH4 0xFFFFFFFF AND DUP4 PUSH4 0xFFFFFFFF AND LT ISZERO SWAP2 POP POP PUSH2 0x1DBA JUMP JUMPDEST PUSH1 0x5 PUSH1 0xFF AND DUP2 PUSH1 0xFF AND SUB PUSH2 0x1D90 JUMPI PUSH1 0x0 PUSH2 0x1D47 DUP5 PUSH4 0xFFFFFFFF AND PUSH2 0x1FAE JUMP JUMPDEST POP SWAP2 POP POP PUSH1 0xD DUP6 PUSH4 0xFFFFFFFF AND EQ DUP1 ISZERO PUSH2 0x1D67 JUMPI POP PUSH1 0x1 DUP2 PUSH4 0xFFFFFFFF AND EQ JUMPDEST ISZERO PUSH2 0x1D77 JUMPI PUSH1 0x1 SWAP3 POP POP POP PUSH2 0x1DBA JUMP JUMPDEST DUP5 PUSH4 0xFFFFFFFF AND DUP2 PUSH4 0xFFFFFFFF AND LT ISZERO SWAP3 POP POP POP PUSH2 0x1DBA JUMP JUMPDEST PUSH1 0x0 PUSH2 0x1DA1 DUP5 PUSH4 0xFFFFFFFF AND PUSH2 0x1FAE JUMP JUMPDEST POP POP SWAP1 POP DUP5 PUSH4 0xFFFFFFFF AND DUP2 PUSH4 0xFFFFFFFF AND LT ISZERO SWAP3 POP POP POP JUMPDEST SWAP4 SWAP3 POP POP POP JUMP JUMPDEST DUP2 PUSH1 0x0 ADD PUSH1 0x0 SWAP1 SLOAD SWAP1 PUSH2 0x100 EXP SWAP1 DIV PUSH4 0xFFFFFFFF AND DUP3 PUSH1 0x0 ADD PUSH1 0x9 PUSH2 0x100 EXP DUP2 SLOAD DUP2 PUSH4 0xFFFFFFFF MUL NOT AND SWAP1 DUP4 PUSH4 0xFFFFFFFF AND MUL OR SWAP1 SSTORE POP PUSH2 0x1E28 DUP3 PUSH1 0x0 ADD PUSH1 0x5 SWAP1 SLOAD SWAP1 PUSH2 0x100 EXP SWAP1 DIV PUSH4 0xFFFFFFFF AND DUP4 PUSH1 0x0 ADD PUSH1 0x4 SWAP1 SLOAD SWAP1 PUSH2 0x100 EXP SWAP1 DIV PUSH1 0xFF AND DUP4 PUSH2 0x2161 JUMP JUMPDEST DUP3 PUSH1 0x0 ADD PUSH1 0xD PUSH2 0x100 EXP DUP2 SLOAD DUP2 PUSH4 0xFFFFFFFF MUL NOT AND SWAP1 DUP4 PUSH4 0xFFFFFFFF AND MUL OR SWAP1 SSTORE POP POP POP JUMP JUMPDEST PUSH1 0x60 PUSH1 0x0 DUP3 SUB PUSH2 0x1E95 JUMPI PUSH1 0x40 MLOAD DUP1 PUSH1 0x40 ADD PUSH1 0x40 MSTORE DUP1 PUSH1 0x1 DUP2 MSTORE PUSH1 0x20 ADD PUSH32 0x3000000000000000000000000000000000000000000000000000000000000000 DUP2 MSTORE POP SWAP1 POP PUSH2 0x1FA9 JUMP JUMPDEST PUSH1 0x0 DUP3 SWAP1 POP PUSH1 0x0 JUMPDEST PUSH1 0x0 DUP3 EQ PUSH2 0x1EC7 JUMPI DUP1 DUP1 PUSH2 0x1EB0 SWAP1 PUSH2 0x31E0 JUMP JUMPDEST SWAP2 POP POP PUSH1 0xA DUP3 PUSH2 0x1EC0 SWAP2 SWAP1 PUSH2 0x3257 JUMP JUMPDEST SWAP2 POP PUSH2 0x1E9D JUMP JUMPDEST PUSH1 0x0 DUP2 PUSH8 0xFFFFFFFFFFFFFFFF DUP2 GT ISZERO PUSH2 0x1EE3 JUMPI PUSH2 0x1EE2 PUSH2 0x24FE JUMP JUMPDEST JUMPDEST PUSH1 0x40 MLOAD SWAP1 DUP1 DUP3 MSTORE DUP1 PUSH1 0x1F ADD PUSH1 0x1F NOT AND PUSH1 0x20 ADD DUP3 ADD PUSH1 0x40 MSTORE DUP1 ISZERO PUSH2 0x1F15 JUMPI DUP2 PUSH1 0x20 ADD PUSH1 0x1 DUP3 MUL DUP1 CALLDATASIZE DUP4 CALLDATACOPY DUP1 DUP3 ADD SWAP2 POP POP SWAP1 POP JUMPDEST POP SWAP1 POP JUMPDEST PUSH1 0x0 DUP6 EQ PUSH2 0x1FA2 JUMPI PUSH1 0x1 DUP3 PUSH2 0x1F2E SWAP2 SWAP1 PUSH2 0x3288 JUMP JUMPDEST SWAP2 POP PUSH1 0xA DUP6 PUSH2 0x1F3D SWAP2 SWAP1 PUSH2 0x32BC JUMP JUMPDEST PUSH1 0x30 PUSH2 0x1F49 SWAP2 SWAP1 PUSH2 0x32ED JUMP JUMPDEST PUSH1 0xF8 SHL DUP2 DUP4 DUP2 MLOAD DUP2 LT PUSH2 0x1F5F JUMPI PUSH2 0x1F5E PUSH2 0x2AF6 JUMP JUMPDEST JUMPDEST PUSH1 0x20 ADD ADD SWAP1 PUSH31 0xFFFFFFFFFFFFFFFFFFFFFFFFFFFFFFFFFFFFFFFFFFFFFFFFFFFFFFFFFFFFFF NOT AND SWAP1 DUP2 PUSH1 0x0 BYTE SWAP1 MSTORE8 POP PUSH1 0xA DUP6 PUSH2 0x1F9B SWAP2 SWAP1 PUSH2 0x3257 JUMP JUMPDEST SWAP5 POP PUSH2 0x1F19 JUMP JUMPDEST DUP1 SWAP4 POP POP POP POP JUMPDEST SWAP2 SWAP1 POP JUMP JUMPDEST PUSH1 0x0 DUP1 PUSH1 0x0 DUP1 PUSH3 0x15180 PUSH4 0xFFFFFFFF AND DUP6 PUSH2 0x1FC9 SWAP2 SWAP1 PUSH2 0x3257 JUMP JUMPDEST SWAP1 POP PUSH1 0x0 PUSH3 0x253D8C PUSH3 0x10BD9 DUP4 PUSH2 0x1FE0 SWAP2 SWAP1 PUSH2 0x3078 JUMP JUMPDEST PUSH2 0x1FEA SWAP2 SWAP1 PUSH2 0x3078 JUMP JUMPDEST SWAP1 POP PUSH1 0x0 PUSH3 0x23AB1 DUP3 PUSH1 0x4 PUSH2 0x1FFF SWAP2 SWAP1 PUSH2 0x3343 JUMP JUMPDEST PUSH2 0x2009 SWAP2 SWAP1 PUSH2 0x3381 JUMP JUMPDEST SWAP1 POP PUSH1 0x4 PUSH1 0x3 DUP3 PUSH3 0x23AB1 PUSH2 0x201E SWAP2 SWAP1 PUSH2 0x3343 JUMP JUMPDEST PUSH2 0x2028 SWAP2 SWAP1 PUSH2 0x3078 JUMP JUMPDEST PUSH2 0x2032 SWAP2 SWAP1 PUSH2 0x3381 JUMP JUMPDEST DUP3 PUSH2 0x203D SWAP2 SWAP1 PUSH2 0x3044 JUMP JUMPDEST SWAP2 POP PUSH1 0x0 PUSH3 0x164B09 PUSH1 0x1 DUP5 PUSH2 0x2052 SWAP2 SWAP1 PUSH2 0x3078 JUMP JUMPDEST PUSH2 0xFA0 PUSH2 0x205F SWAP2 SWAP1 PUSH2 0x3343 JUMP JUMPDEST PUSH2 0x2069 SWAP2 SWAP1 PUSH2 0x3381 JUMP JUMPDEST SWAP1 POP PUSH1 0x1F PUSH1 0x4 DUP3 PUSH2 0x5B5 PUSH2 0x207D SWAP2 SWAP1 PUSH2 0x3343 JUMP JUMPDEST PUSH2 0x2087 SWAP2 SWAP1 PUSH2 0x3381 JUMP JUMPDEST DUP5 PUSH2 0x2092 SWAP2 SWAP1 PUSH2 0x3044 JUMP JUMPDEST PUSH2 0x209C SWAP2 SWAP1 PUSH2 0x3078 JUMP JUMPDEST SWAP3 POP PUSH1 0x0 PUSH2 0x98F DUP5 PUSH1 0x50 PUSH2 0x20B0 SWAP2 SWAP1 PUSH2 0x3343 JUMP JUMPDEST PUSH2 0x20BA SWAP2 SWAP1 PUSH2 0x3381 JUMP JUMPDEST SWAP1 POP PUSH1 0x0 PUSH1 0x50 DUP3 PUSH2 0x98F PUSH2 0x20CE SWAP2 SWAP1 PUSH2 0x3343 JUMP JUMPDEST PUSH2 0x20D8 SWAP2 SWAP1 PUSH2 0x3381 JUMP JUMPDEST DUP6 PUSH2 0x20E3 SWAP2 SWAP1 PUSH2 0x3044 JUMP JUMPDEST SWAP1 POP PUSH1 0xB DUP3 PUSH2 0x20F2 SWAP2 SWAP1 PUSH2 0x3381 JUMP JUMPDEST SWAP5 POP DUP5 PUSH1 0xC PUSH2 0x2101 SWAP2 SWAP1 PUSH2 0x3343 JUMP JUMPDEST PUSH1 0x2 DUP4 PUSH2 0x210E SWAP2 SWAP1 PUSH2 0x3078 JUMP JUMPDEST PUSH2 0x2118 SWAP2 SWAP1 PUSH2 0x3044 JUMP JUMPDEST SWAP2 POP DUP5 DUP4 PUSH1 0x31 DUP7 PUSH2 0x2129 SWAP2 SWAP1 PUSH2 0x3044 JUMP JUMPDEST PUSH1 0x64 PUSH2 0x2135 SWAP2 SWAP1 PUSH2 0x3343 JUMP JUMPDEST PUSH2 0x213F SWAP2 SWAP1 PUSH2 0x3078 JUMP JUMPDEST PUSH2 0x2149 SWAP2 SWAP1 PUSH2 0x3078 JUMP JUMPDEST SWAP3 POP DUP3 SWAP9 POP DUP2 SWAP8 POP DUP1 SWAP7 POP POP POP POP POP POP POP SWAP2 SWAP4 SWAP1 SWAP3 POP JUMP JUMPDEST PUSH1 0x0 PUSH1 0x4 PUSH1 0xFF AND DUP4 PUSH1 0xFF AND GT PUSH2 0x2183 JUMPI PUSH2 0x217C DUP4 DUP4 DUP7 PUSH2 0x21F4 JUMP JUMPDEST SWAP1 POP PUSH2 0x21ED JUMP JUMPDEST PUSH1 0x5 PUSH1 0xFF AND DUP4 PUSH1 0xFF AND SUB PUSH2 0x21C1 JUMPI PUSH1 0x0 PUSH2 0x21A2 DUP4 PUSH4 0xFFFFFFFF AND PUSH2 0x1FAE JUMP JUMPDEST POP PUSH4 0xFFFFFFFF AND SWAP2 POP POP PUSH1 0x1 DUP2 PUSH2 0x21B9 SWAP2 SWAP1 PUSH2 0x32ED JUMP JUMPDEST SWAP2 POP POP PUSH2 0x21ED JUMP JUMPDEST PUSH1 0x0 PUSH2 0x21D2 DUP4 PUSH4 0xFFFFFFFF AND PUSH2 0x1FAE JUMP JUMPDEST POP POP PUSH4 0xFFFFFFFF AND SWAP1 POP PUSH1 0x1 DUP2 PUSH2 0x21E9 SWAP2 SWAP1 PUSH2 0x32ED JUMP JUMPDEST SWAP2 POP POP JUMPDEST SWAP4 SWAP3 POP POP POP JUMP JUMPDEST PUSH1 0x0 DUP1 DUP3 DUP5 PUSH2 0x2203 SWAP2 SWAP1 PUSH2 0x33B2 JUMP JUMPDEST SWAP1 POP PUSH1 0x0 DUP2 DUP5 PUSH2 0x2213 SWAP2 SWAP1 PUSH2 0x3044 JUMP JUMPDEST SWAP1 POP PUSH1 0x4 PUSH1 0xFF AND DUP7 PUSH1 0xFF AND SUB PUSH2 0x2246 JUMPI PUSH3 0x3F480 DUP2 DUP7 PUSH2 0x2233 SWAP2 SWAP1 PUSH2 0x3078 JUMP JUMPDEST PUSH2 0x223D SWAP2 SWAP1 PUSH2 0x3078 JUMP JUMPDEST SWAP3 POP POP POP PUSH2 0x2257 JUMP JUMPDEST DUP1 DUP6 PUSH2 0x2252 SWAP2 SWAP1 PUSH2 0x3078 JUMP JUMPDEST SWAP3 POP POP POP JUMPDEST SWAP4 SWAP3 POP POP POP JUMP JUMPDEST POP DUP1 SLOAD PUSH2 0x226A SWAP1 PUSH2 0x2B54 JUMP JUMPDEST PUSH1 0x0 DUP3 SSTORE DUP1 PUSH1 0x1F LT PUSH2 0x227C JUMPI POP PUSH2 0x229B JUMP JUMPDEST PUSH1 0x1F ADD PUSH1 0x20 SWAP1 DIV SWAP1 PUSH1 0x0 MSTORE PUSH1 0x20 PUSH1 0x0 KECCAK256 SWAP1 DUP2 ADD SWAP1 PUSH2 0x229A SWAP2 SWAP1 PUSH2 0x247B JUMP JUMPDEST JUMPDEST POP JUMP JUMPDEST DUP3 DUP1 SLOAD PUSH2 0x22AA SWAP1 PUSH2 0x2B54 JUMP JUMPDEST SWAP1 PUSH1 0x0 MSTORE PUSH1 0x20 PUSH1 0x0 KECCAK256 SWAP1 PUSH1 0x1F ADD PUSH1 0x20 SWAP1 DIV DUP2 ADD SWAP3 DUP3 PUSH2 0x22CC JUMPI PUSH1 0x0 DUP6 SSTORE PUSH2 0x2313 JUMP JUMPDEST DUP3 PUSH1 0x1F LT PUSH2 0x22E5 JUMPI DUP1 MLOAD PUSH1 0xFF NOT AND DUP4 DUP1 ADD OR DUP6 SSTORE PUSH2 0x2313 JUMP JUMPDEST DUP3 DUP1 ADD PUSH1 0x1 ADD DUP6 SSTORE DUP3 ISZERO PUSH2 0x2313 JUMPI SWAP2 DUP3 ADD JUMPDEST DUP3 DUP2 GT ISZERO PUSH2 0x2312 JUMPI DUP3 MLOAD DUP3 SSTORE SWAP2 PUSH1 0x20 ADD SWAP2 SWAP1 PUSH1 0x1 ADD SWAP1 PUSH2 0x22F7 JUMP JUMPDEST JUMPDEST POP SWAP1 POP PUSH2 0x2320 SWAP2 SWAP1 PUSH2 0x247B JUMP JUMPDEST POP SWAP1 JUMP JUMPDEST PUSH1 0x40 MLOAD DUP1 PUSH1 0x60 ADD PUSH1 0x40 MSTORE DUP1 PUSH1 0x60 DUP2 MSTORE PUSH1 0x20 ADD PUSH1 0x0 PUSH20 0xFFFFFFFFFFFFFFFFFFFFFFFFFFFFFFFFFFFFFFFF AND DUP2 MSTORE PUSH1 0x20 ADD PUSH1 0x0 ISZERO ISZERO DUP2 MSTORE POP SWAP1 JUMP JUMPDEST PUSH1 0x40 MLOAD DUP1 PUSH1 0xA0 ADD PUSH1 0x40 MSTORE DUP1 PUSH1 0x0 PUSH4 0xFFFFFFFF AND DUP2 MSTORE PUSH1 0x20 ADD PUSH1 0x0 PUSH1 0xFF AND DUP2 MSTORE PUSH1 0x20 ADD PUSH1 0x0 PUSH4 0xFFFFFFFF AND DUP2 MSTORE PUSH1 0x20 ADD PUSH1 0x0 PUSH4 0xFFFFFFFF AND DUP2 MSTORE PUSH1 0x20 ADD PUSH1 0x0 PUSH4 0xFFFFFFFF AND DUP2 MSTORE POP SWAP1 JUMP JUMPDEST PUSH1 0x40 MLOAD DUP1 PUSH1 0x60 ADD PUSH1 0x40 MSTORE DUP1 PUSH1 0x60 DUP2 MSTORE PUSH1 0x20 ADD PUSH1 0x60 DUP2 MSTORE PUSH1 0x20 ADD PUSH1 0x0 DUP2 MSTORE POP SWAP1 JUMP JUMPDEST PUSH1 0x40 MLOAD DUP1 PUSH1 0x40 ADD PUSH1 0x40 MSTORE DUP1 PUSH1 0x0 PUSH4 0xFFFFFFFF AND DUP2 MSTORE PUSH1 0x20 ADD PUSH1 0x0 PUSH4 0xFFFFFFFF AND DUP2 MSTORE POP SWAP1 JUMP JUMPDEST DUP3 DUP1 SLOAD PUSH2 0x23FA SWAP1 PUSH2 0x2B54 JUMP JUMPDEST SWAP1 PUSH1 0x0 MSTORE PUSH1 0x20 PUSH1 0x0 KECCAK256 SWAP1 PUSH1 0x1F ADD PUSH1 0x20 SWAP1 DIV DUP2 ADD SWAP3 DUP3 PUSH2 0x241C JUMPI PUSH1 0x0 DUP6 SSTORE PUSH2 0x246A JUMP JUMPDEST DUP3 PUSH1 0x1F LT PUSH2 0x242D JUMPI DUP1 SLOAD DUP6 SSTORE PUSH2 0x246A JUMP JUMPDEST DUP3 DUP1 ADD PUSH1 0x1 ADD DUP6 SSTORE DUP3 ISZERO PUSH2 0x246A JUMPI PUSH1 0x0 MSTORE PUSH1 0x20 PUSH1 0x0 KECCAK256 SWAP2 PUSH1 0x1F ADD PUSH1 0x20 SWAP1 DIV DUP3 ADD JUMPDEST DUP3 DUP2 GT ISZERO PUSH2 0x2469 JUMPI DUP3 SLOAD DUP3 SSTORE SWAP2 PUSH1 0x1 ADD SWAP2 SWAP1 PUSH1 0x1 ADD SWAP1 PUSH2 0x244E JUMP JUMPDEST JUMPDEST POP SWAP1 POP PUSH2 0x2477 SWAP2 SWAP1 PUSH2 0x247B JUMP JUMPDEST POP SWAP1 JUMP JUMPDEST JUMPDEST DUP1 DUP3 GT ISZERO PUSH2 0x2494 JUMPI PUSH1 0x0 DUP2 PUSH1 0x0 SWAP1 SSTORE POP PUSH1 0x1 ADD PUSH2 0x247C JUMP JUMPDEST POP SWAP1 JUMP JUMPDEST PUSH1 0x0 PUSH1 0x40 MLOAD SWAP1 POP SWAP1 JUMP JUMPDEST PUSH1 0x0 DUP1 REVERT JUMPDEST PUSH1 0x0 DUP1 REVERT JUMPDEST PUSH1 0x0 PUSH4 0xFFFFFFFF DUP3 AND SWAP1 POP SWAP2 SWAP1 POP JUMP JUMPDEST PUSH2 0x24C5 DUP2 PUSH2 0x24AC JUMP JUMPDEST DUP2 EQ PUSH2 0x24D0 JUMPI PUSH1 0x0 DUP1 REVERT JUMPDEST POP JUMP JUMPDEST PUSH1 0x0 DUP2 CALLDATALOAD SWAP1 POP PUSH2 0x24E2 DUP2 PUSH2 0x24BC JUMP JUMPDEST SWAP3 SWAP2 POP POP JUMP JUMPDEST PUSH1 0x0 DUP1 REVERT JUMPDEST PUSH1 0x0 PUSH1 0x1F NOT PUSH1 0x1F DUP4 ADD AND SWAP1 POP SWAP2 SWAP1 POP JUMP JUMPDEST PUSH32 0x4E487B7100000000000000000000000000000000000000000000000000000000 PUSH1 0x0 MSTORE PUSH1 0x41 PUSH1 0x4 MSTORE PUSH1 0x24 PUSH1 0x0 REVERT JUMPDEST PUSH2 0x2536 DUP3 PUSH2 0x24ED JUMP JUMPDEST DUP2 ADD DUP2 DUP2 LT PUSH8 0xFFFFFFFFFFFFFFFF DUP3 GT OR ISZERO PUSH2 0x2555 JUMPI PUSH2 0x2554 PUSH2 0x24FE JUMP JUMPDEST JUMPDEST DUP1 PUSH1 0x40 MSTORE POP POP POP JUMP JUMPDEST PUSH1 0x0 PUSH2 0x2568 PUSH2 0x2498 JUMP JUMPDEST SWAP1 POP PUSH2 0x2574 DUP3 DUP3 PUSH2 0x252D JUMP JUMPDEST SWAP2 SWAP1 POP JUMP JUMPDEST PUSH1 0x0 PUSH8 0xFFFFFFFFFFFFFFFF DUP3 GT ISZERO PUSH2 0x2594 JUMPI PUSH2 0x2593 PUSH2 0x24FE JUMP JUMPDEST JUMPDEST PUSH1 0x20 DUP3 MUL SWAP1 POP PUSH1 0x20 DUP2 ADD SWAP1 POP SWAP2 SWAP1 POP JUMP JUMPDEST PUSH1 0x0 DUP1 REVERT JUMPDEST PUSH1 0x0 DUP2 SWAP1 POP SWAP2 SWAP1 POP JUMP JUMPDEST PUSH2 0x25BD DUP2 PUSH2 0x25AA JUMP JUMPDEST DUP2 EQ PUSH2 0x25C8 JUMPI PUSH1 0x0 DUP1 REVERT JUMPDEST POP JUMP JUMPDEST PUSH1 0x0 DUP2 CALLDATALOAD SWAP1 POP PUSH2 0x25DA DUP2 PUSH2 0x25B4 JUMP JUMPDEST SWAP3 SWAP2 POP POP JUMP JUMPDEST PUSH1 0x0 PUSH2 0x25F3 PUSH2 0x25EE DUP5 PUSH2 0x2579 JUMP JUMPDEST PUSH2 0x255E JUMP JUMPDEST SWAP1 POP DUP1 DUP4 DUP3 MSTORE PUSH1 0x20 DUP3 ADD SWAP1 POP PUSH1 0x20 DUP5 MUL DUP4 ADD DUP6 DUP2 GT ISZERO PUSH2 0x2616 JUMPI PUSH2 0x2615 PUSH2 0x25A5 JUMP JUMPDEST JUMPDEST DUP4 JUMPDEST DUP2 DUP2 LT ISZERO PUSH2 0x263F JUMPI DUP1 PUSH2 0x262B DUP9 DUP3 PUSH2 0x25CB JUMP JUMPDEST DUP5 MSTORE PUSH1 0x20 DUP5 ADD SWAP4 POP POP PUSH1 0x20 DUP2 ADD SWAP1 POP PUSH2 0x2618 JUMP JUMPDEST POP POP POP SWAP4 SWAP3 POP POP POP JUMP JUMPDEST PUSH1 0x0 DUP3 PUSH1 0x1F DUP4 ADD SLT PUSH2 0x265E JUMPI PUSH2 0x265D PUSH2 0x24E8 JUMP JUMPDEST JUMPDEST DUP2 CALLDATALOAD PUSH2 0x266E DUP5 DUP3 PUSH1 0x20 DUP7 ADD PUSH2 0x25E0 JUMP JUMPDEST SWAP2 POP POP SWAP3 SWAP2 POP POP JUMP JUMPDEST PUSH1 0x0 DUP1 PUSH1 0x40 DUP4 DUP6 SUB SLT ISZERO PUSH2 0x268E JUMPI PUSH2 0x268D PUSH2 0x24A2 JUMP JUMPDEST JUMPDEST PUSH1 0x0 PUSH2 0x269C DUP6 DUP3 DUP7 ADD PUSH2 0x24D3 JUMP JUMPDEST SWAP3 POP POP PUSH1 0x20 DUP4 ADD CALLDATALOAD PUSH8 0xFFFFFFFFFFFFFFFF DUP2 GT ISZERO PUSH2 0x26BD JUMPI PUSH2 0x26BC PUSH2 0x24A7 JUMP JUMPDEST JUMPDEST PUSH2 0x26C9 DUP6 DUP3 DUP7 ADD PUSH2 0x2649 JUMP JUMPDEST SWAP2 POP POP SWAP3 POP SWAP3 SWAP1 POP JUMP JUMPDEST PUSH1 0x0 DUP2 ISZERO ISZERO SWAP1 POP SWAP2 SWAP1 POP JUMP JUMPDEST PUSH2 0x26E8 DUP2 PUSH2 0x26D3 JUMP JUMPDEST DUP3 MSTORE POP POP JUMP JUMPDEST PUSH1 0x0 PUSH1 0x20 DUP3 ADD SWAP1 POP PUSH2 0x2703 PUSH1 0x0 DUP4 ADD DUP5 PUSH2 0x26DF JUMP JUMPDEST SWAP3 SWAP2 POP POP JUMP JUMPDEST PUSH1 0x0 DUP1 REVERT JUMPDEST PUSH1 0x0 PUSH8 0xFFFFFFFFFFFFFFFF DUP3 GT ISZERO PUSH2 0x2729 JUMPI PUSH2 0x2728 PUSH2 0x24FE JUMP JUMPDEST JUMPDEST PUSH2 0x2732 DUP3 PUSH2 0x24ED JUMP JUMPDEST SWAP1 POP PUSH1 0x20 DUP2 ADD SWAP1 POP SWAP2 SWAP1 POP JUMP JUMPDEST DUP3 DUP2 DUP4 CALLDATACOPY PUSH1 0x0 DUP4 DUP4 ADD MSTORE POP POP POP JUMP JUMPDEST PUSH1 0x0 PUSH2 0x2761 PUSH2 0x275C DUP5 PUSH2 0x270E JUMP JUMPDEST PUSH2 0x255E JUMP JUMPDEST SWAP1 POP DUP3 DUP2 MSTORE PUSH1 0x20 DUP2 ADD DUP5 DUP5 DUP5 ADD GT ISZERO PUSH2 0x277D JUMPI PUSH2 0x277C PUSH2 0x2709 JUMP JUMPDEST JUMPDEST PUSH2 0x2788 DUP5 DUP3 DUP6 PUSH2 0x273F JUMP JUMPDEST POP SWAP4 SWAP3 POP POP POP JUMP JUMPDEST PUSH1 0x0 DUP3 PUSH1 0x1F DUP4 ADD SLT PUSH2 0x27A5 JUMPI PUSH2 0x27A4 PUSH2 0x24E8 JUMP JUMPDEST JUMPDEST DUP2 CALLDATALOAD PUSH2 0x27B5 DUP5 DUP3 PUSH1 0x20 DUP7 ADD PUSH2 0x274E JUMP JUMPDEST SWAP2 POP POP SWAP3 SWAP2 POP POP JUMP JUMPDEST PUSH1 0x0 PUSH20 0xFFFFFFFFFFFFFFFFFFFFFFFFFFFFFFFFFFFFFFFF DUP3 AND SWAP1 POP SWAP2 SWAP1 POP JUMP JUMPDEST PUSH1 0x0 PUSH2 0x27E9 DUP3 PUSH2 0x27BE JUMP JUMPDEST SWAP1 POP SWAP2 SWAP1 POP JUMP JUMPDEST PUSH2 0x27F9 DUP2 PUSH2 0x27DE JUMP JUMPDEST DUP2 EQ PUSH2 0x2804 JUMPI PUSH1 0x0 DUP1 REVERT JUMPDEST POP JUMP JUMPDEST PUSH1 0x0 DUP2 CALLDATALOAD SWAP1 POP PUSH2 0x2816 DUP2 PUSH2 0x27F0 JUMP JUMPDEST SWAP3 SWAP2 POP POP JUMP JUMPDEST PUSH1 0x0 DUP1 PUSH1 0x40 DUP4 DUP6 SUB SLT ISZERO PUSH2 0x2833 JUMPI PUSH2 0x2832 PUSH2 0x24A2 JUMP JUMPDEST JUMPDEST PUSH1 0x0 DUP4 ADD CALLDATALOAD PUSH8 0xFFFFFFFFFFFFFFFF DUP2 GT ISZERO PUSH2 0x2851 JUMPI PUSH2 0x2850 PUSH2 0x24A7 JUMP JUMPDEST JUMPDEST PUSH2 0x285D DUP6 DUP3 DUP7 ADD PUSH2 0x2790 JUMP JUMPDEST SWAP3 POP POP PUSH1 0x20 PUSH2 0x286E DUP6 DUP3 DUP7 ADD PUSH2 0x2807 JUMP JUMPDEST SWAP2 POP POP SWAP3 POP SWAP3 SWAP1 POP JUMP JUMPDEST PUSH2 0x2881 DUP2 PUSH2 0x27DE JUMP JUMPDEST DUP3 MSTORE POP POP JUMP JUMPDEST PUSH1 0x0 PUSH1 0x20 DUP3 ADD SWAP1 POP PUSH2 0x289C PUSH1 0x0 DUP4 ADD DUP5 PUSH2 0x2878 JUMP JUMPDEST SWAP3 SWAP2 POP POP JUMP JUMPDEST PUSH1 0x0 PUSH1 0x20 DUP3 DUP5 SUB SLT ISZERO PUSH2 0x28B8 JUMPI PUSH2 0x28B7 PUSH2 0x24A2 JUMP JUMPDEST JUMPDEST PUSH1 0x0 PUSH2 0x28C6 DUP5 DUP3 DUP6 ADD PUSH2 0x2807 JUMP JUMPDEST SWAP2 POP POP SWAP3 SWAP2 POP POP JUMP JUMPDEST PUSH1 0x0 DUP2 MLOAD SWAP1 POP SWAP2 SWAP1 POP JUMP JUMPDEST PUSH1 0x0 DUP3 DUP3 MSTORE PUSH1 0x20 DUP3 ADD SWAP1 POP SWAP3 SWAP2 POP POP JUMP JUMPDEST PUSH1 0x0 JUMPDEST DUP4 DUP2 LT ISZERO PUSH2 0x2909 JUMPI DUP1 DUP3 ADD MLOAD DUP2 DUP5 ADD MSTORE PUSH1 0x20 DUP2 ADD SWAP1 POP PUSH2 0x28EE JUMP JUMPDEST DUP4 DUP2 GT ISZERO PUSH2 0x2918 JUMPI PUSH1 0x0 DUP5 DUP5 ADD MSTORE JUMPDEST POP POP POP POP JUMP JUMPDEST PUSH1 0x0 PUSH2 0x2929 DUP3 PUSH2 0x28CF JUMP JUMPDEST PUSH2 0x2933 DUP2 DUP6 PUSH2 0x28DA JUMP JUMPDEST SWAP4 POP PUSH2 0x2943 DUP2 DUP6 PUSH1 0x20 DUP7 ADD PUSH2 0x28EB JUMP JUMPDEST PUSH2 0x294C DUP2 PUSH2 0x24ED JUMP JUMPDEST DUP5 ADD SWAP2 POP POP SWAP3 SWAP2 POP POP JUMP JUMPDEST PUSH2 0x2960 DUP2 PUSH2 0x27DE JUMP JUMPDEST DUP3 MSTORE POP POP JUMP JUMPDEST PUSH2 0x296F DUP2 PUSH2 0x26D3 JUMP JUMPDEST DUP3 MSTORE POP POP JUMP JUMPDEST PUSH1 0x0 PUSH1 0x60 DUP4 ADD PUSH1 0x0 DUP4 ADD MLOAD DUP5 DUP3 SUB PUSH1 0x0 DUP7 ADD MSTORE PUSH2 0x2992 DUP3 DUP3 PUSH2 0x291E JUMP JUMPDEST SWAP2 POP POP PUSH1 0x20 DUP4 ADD MLOAD PUSH2 0x29A7 PUSH1 0x20 DUP7 ADD DUP3 PUSH2 0x2957 JUMP JUMPDEST POP PUSH1 0x40 DUP4 ADD MLOAD PUSH2 0x29BA PUSH1 0x40 DUP7 ADD DUP3 PUSH2 0x2966 JUMP JUMPDEST POP DUP1 SWAP2 POP POP SWAP3 SWAP2 POP POP JUMP JUMPDEST PUSH1 0x0 PUSH1 0x20 DUP3 ADD SWAP1 POP DUP2 DUP2 SUB PUSH1 0x0 DUP4 ADD MSTORE PUSH2 0x29DF DUP2 DUP5 PUSH2 0x2975 JUMP JUMPDEST SWAP1 POP SWAP3 SWAP2 POP POP JUMP JUMPDEST PUSH1 0x0 DUP3 DUP3 MSTORE PUSH1 0x20 DUP3 ADD SWAP1 POP SWAP3 SWAP2 POP POP JUMP JUMPDEST PUSH32 0x5468697320636F6E747261637420697320646561637469766174656400000000 PUSH1 0x0 DUP3 ADD MSTORE POP JUMP JUMPDEST PUSH1 0x0 PUSH2 0x2A2E PUSH1 0x1C DUP4 PUSH2 0x29E7 JUMP JUMPDEST SWAP2 POP PUSH2 0x2A39 DUP3 PUSH2 0x29F8 JUMP JUMPDEST PUSH1 0x20 DUP3 ADD SWAP1 POP SWAP2 SWAP1 POP JUMP JUMPDEST PUSH1 0x0 PUSH1 0x20 DUP3 ADD SWAP1 POP DUP2 DUP2 SUB PUSH1 0x0 DUP4 ADD MSTORE PUSH2 0x2A5D DUP2 PUSH2 0x2A21 JUMP JUMPDEST SWAP1 POP SWAP2 SWAP1 POP JUMP JUMPDEST PUSH32 0x4F6E6C79207468652070726F636573732063616E206578656375746520746869 PUSH1 0x0 DUP3 ADD MSTORE PUSH32 0x73206F7065726174696F6E000000000000000000000000000000000000000000 PUSH1 0x20 DUP3 ADD MSTORE POP JUMP JUMPDEST PUSH1 0x0 PUSH2 0x2AC0 PUSH1 0x2B DUP4 PUSH2 0x29E7 JUMP JUMPDEST SWAP2 POP PUSH2 0x2ACB DUP3 PUSH2 0x2A64 JUMP JUMPDEST PUSH1 0x40 DUP3 ADD SWAP1 POP SWAP2 SWAP1 POP JUMP JUMPDEST PUSH1 0x0 PUSH1 0x20 DUP3 ADD SWAP1 POP DUP2 DUP2 SUB PUSH1 0x0 DUP4 ADD MSTORE PUSH2 0x2AEF DUP2 PUSH2 0x2AB3 JUMP JUMPDEST SWAP1 POP SWAP2 SWAP1 POP JUMP JUMPDEST PUSH32 0x4E487B7100000000000000000000000000000000000000000000000000000000 PUSH1 0x0 MSTORE PUSH1 0x32 PUSH1 0x4 MSTORE PUSH1 0x24 PUSH1 0x0 REVERT JUMPDEST PUSH32 0x4E487B7100000000000000000000000000000000000000000000000000000000 PUSH1 0x0 MSTORE PUSH1 0x22 PUSH1 0x4 MSTORE PUSH1 0x24 PUSH1 0x0 REVERT JUMPDEST PUSH1 0x0 PUSH1 0x2 DUP3 DIV SWAP1 POP PUSH1 0x1 DUP3 AND DUP1 PUSH2 0x2B6C JUMPI PUSH1 0x7F DUP3 AND SWAP2 POP JUMPDEST PUSH1 0x20 DUP3 LT DUP2 SUB PUSH2 0x2B7F JUMPI PUSH2 0x2B7E PUSH2 0x2B25 JUMP JUMPDEST JUMPDEST POP SWAP2 SWAP1 POP JUMP JUMPDEST PUSH32 0x5375636365737366756C20657865637574696F6E210000000000000000000000 PUSH1 0x0 DUP3 ADD MSTORE POP JUMP JUMPDEST PUSH1 0x0 PUSH2 0x2BBB PUSH1 0x15 DUP4 PUSH2 0x29E7 JUMP JUMPDEST SWAP2 POP PUSH2 0x2BC6 DUP3 PUSH2 0x2B85 JUMP JUMPDEST PUSH1 0x20 DUP3 ADD SWAP1 POP SWAP2 SWAP1 POP JUMP JUMPDEST PUSH1 0x0 PUSH1 0x20 DUP3 ADD SWAP1 POP DUP2 DUP2 SUB PUSH1 0x0 DUP4 ADD MSTORE PUSH2 0x2BEA DUP2 PUSH2 0x2BAE JUMP JUMPDEST SWAP1 POP SWAP2 SWAP1 POP JUMP JUMPDEST PUSH32 0x52657175657374206F7065726174696F6E20706572666F726D6564206F757473 PUSH1 0x0 DUP3 ADD MSTORE PUSH32 0x696465206F6620616C6C6F77656420686F757273206F72206C696D6974206F70 PUSH1 0x20 DUP3 ADD MSTORE PUSH32 0x65726174696F6E20657863656564656400000000000000000000000000000000 PUSH1 0x40 DUP3 ADD MSTORE POP JUMP JUMPDEST PUSH1 0x0 PUSH2 0x2C73 PUSH1 0x50 DUP4 PUSH2 0x29E7 JUMP JUMPDEST SWAP2 POP PUSH2 0x2C7E DUP3 PUSH2 0x2BF1 JUMP JUMPDEST PUSH1 0x60 DUP3 ADD SWAP1 POP SWAP2 SWAP1 POP JUMP JUMPDEST PUSH1 0x0 PUSH1 0x20 DUP3 ADD SWAP1 POP DUP2 DUP2 SUB PUSH1 0x0 DUP4 ADD MSTORE PUSH2 0x2CA2 DUP2 PUSH2 0x2C66 JUMP JUMPDEST SWAP1 POP SWAP2 SWAP1 POP JUMP JUMPDEST PUSH32 0x4F6E6C7920746865206170706C69636174696F6E2063616E2065786563757465 PUSH1 0x0 DUP3 ADD MSTORE PUSH32 0x2074686973206F7065726174696F6E0000000000000000000000000000000000 PUSH1 0x20 DUP3 ADD MSTORE POP JUMP JUMPDEST PUSH1 0x0 PUSH2 0x2D05 PUSH1 0x2F DUP4 PUSH2 0x29E7 JUMP JUMPDEST SWAP2 POP PUSH2 0x2D10 DUP3 PUSH2 0x2CA9 JUMP JUMPDEST PUSH1 0x40 DUP3 ADD SWAP1 POP SWAP2 SWAP1 POP JUMP JUMPDEST PUSH1 0x0 PUSH1 0x20 DUP3 ADD SWAP1 POP DUP2 DUP2 SUB PUSH1 0x0 DUP4 ADD MSTORE PUSH2 0x2D34 DUP2 PUSH2 0x2CF8 JUMP JUMPDEST SWAP1 POP SWAP2 SWAP1 POP JUMP JUMPDEST PUSH32 0x546865204170706C69636174696F6E2070617274792073686F756C6420736967 PUSH1 0x0 DUP3 ADD MSTORE PUSH32 0x6E2074686520636F6E7472616374206265666F726520696E7465726163742077 PUSH1 0x20 DUP3 ADD MSTORE PUSH32 0x6974682069742E00000000000000000000000000000000000000000000000000 PUSH1 0x40 DUP3 ADD MSTORE POP JUMP JUMPDEST PUSH1 0x0 PUSH2 0x2DBD PUSH1 0x47 DUP4 PUSH2 0x29E7 JUMP JUMPDEST SWAP2 POP PUSH2 0x2DC8 DUP3 PUSH2 0x2D3B JUMP JUMPDEST PUSH1 0x60 DUP3 ADD SWAP1 POP SWAP2 SWAP1 POP JUMP JUMPDEST PUSH1 0x0 PUSH1 0x20 DUP3 ADD SWAP1 POP DUP2 DUP2 SUB PUSH1 0x0 DUP4 ADD MSTORE PUSH2 0x2DEC DUP2 PUSH2 0x2DB0 JUMP JUMPDEST SWAP1 POP SWAP2 SWAP1 POP JUMP JUMPDEST PUSH32 0x526573706F6E736520706572666F726D6564206F757473696465206F66207469 PUSH1 0x0 DUP3 ADD MSTORE PUSH32 0x6D65206C696D6974206F722064656C69766572792074696D6520746F6F206C6F PUSH1 0x20 DUP3 ADD MSTORE PUSH32 0x6E67000000000000000000000000000000000000000000000000000000000000 PUSH1 0x40 DUP3 ADD MSTORE POP JUMP JUMPDEST PUSH1 0x0 PUSH2 0x2E75 PUSH1 0x42 DUP4 PUSH2 0x29E7 JUMP JUMPDEST SWAP2 POP PUSH2 0x2E80 DUP3 PUSH2 0x2DF3 JUMP JUMPDEST PUSH1 0x60 DUP3 ADD SWAP1 POP SWAP2 SWAP1 POP JUMP JUMPDEST PUSH1 0x0 PUSH1 0x20 DUP3 ADD SWAP1 POP DUP2 DUP2 SUB PUSH1 0x0 DUP4 ADD MSTORE PUSH2 0x2EA4 DUP2 PUSH2 0x2E68 JUMP JUMPDEST SWAP1 POP SWAP2 SWAP1 POP JUMP JUMPDEST PUSH32 0x4F6E6C79207468652070726F63657373206F7220746865206170706C69636174 PUSH1 0x0 DUP3 ADD MSTORE PUSH32 0x696F6E2063616E20657865637574652074686973206F7065726174696F6E0000 PUSH1 0x20 DUP3 ADD MSTORE POP JUMP JUMPDEST PUSH1 0x0 PUSH2 0x2F07 PUSH1 0x3E DUP4 PUSH2 0x29E7 JUMP JUMPDEST SWAP2 POP PUSH2 0x2F12 DUP3 PUSH2 0x2EAB JUMP JUMPDEST PUSH1 0x40 DUP3 ADD SWAP1 POP SWAP2 SWAP1 POP JUMP JUMPDEST PUSH1 0x0 PUSH1 0x20 DUP3 ADD SWAP1 POP DUP2 DUP2 SUB PUSH1 0x0 DUP4 ADD MSTORE PUSH2 0x2F36 DUP2 PUSH2 0x2EFA JUMP JUMPDEST SWAP1 POP SWAP2 SWAP1 POP JUMP JUMPDEST PUSH32 0x54686520636F6E747261637420697320616C7265616479207369676E65640000 PUSH1 0x0 DUP3 ADD MSTORE POP JUMP JUMPDEST PUSH1 0x0 PUSH2 0x2F73 PUSH1 0x1E DUP4 PUSH2 0x29E7 JUMP JUMPDEST SWAP2 POP PUSH2 0x2F7E DUP3 PUSH2 0x2F3D JUMP JUMPDEST PUSH1 0x20 DUP3 ADD SWAP1 POP SWAP2 SWAP1 POP JUMP JUMPDEST PUSH1 0x0 PUSH1 0x20 DUP3 ADD SWAP1 POP DUP2 DUP2 SUB PUSH1 0x0 DUP4 ADD MSTORE PUSH2 0x2FA2 DUP2 PUSH2 0x2F66 JUMP JUMPDEST SWAP1 POP SWAP2 SWAP1 POP JUMP JUMPDEST PUSH32 0x436F6D70617269736F6E2073796D626F6C206973206E6F742076616C69640000 PUSH1 0x0 DUP3 ADD MSTORE POP JUMP JUMPDEST PUSH1 0x0 PUSH2 0x2FDF PUSH1 0x1E DUP4 PUSH2 0x29E7 JUMP JUMPDEST SWAP2 POP PUSH2 0x2FEA DUP3 PUSH2 0x2FA9 JUMP JUMPDEST PUSH1 0x20 DUP3 ADD SWAP1 POP SWAP2 SWAP1 POP JUMP JUMPDEST PUSH1 0x0 PUSH1 0x20 DUP3 ADD SWAP1 POP DUP2 DUP2 SUB PUSH1 0x0 DUP4 ADD MSTORE PUSH2 0x300E DUP2 PUSH2 0x2FD2 JUMP JUMPDEST SWAP1 POP SWAP2 SWAP1 POP JUMP JUMPDEST PUSH32 0x4E487B7100000000000000000000000000000000000000000000000000000000 PUSH1 0x0 MSTORE PUSH1 0x11 PUSH1 0x4 MSTORE PUSH1 0x24 PUSH1 0x0 REVERT JUMPDEST PUSH1 0x0 PUSH2 0x304F DUP3 PUSH2 0x24AC JUMP JUMPDEST SWAP2 POP PUSH2 0x305A DUP4 PUSH2 0x24AC JUMP JUMPDEST SWAP3 POP DUP3 DUP3 LT ISZERO PUSH2 0x306D JUMPI PUSH2 0x306C PUSH2 0x3015 JUMP JUMPDEST JUMPDEST DUP3 DUP3 SUB SWAP1 POP SWAP3 SWAP2 POP POP JUMP JUMPDEST PUSH1 0x0 PUSH2 0x3083 DUP3 PUSH2 0x24AC JUMP JUMPDEST SWAP2 POP PUSH2 0x308E DUP4 PUSH2 0x24AC JUMP JUMPDEST SWAP3 POP DUP3 PUSH4 0xFFFFFFFF SUB DUP3 GT ISZERO PUSH2 0x30A7 JUMPI PUSH2 0x30A6 PUSH2 0x3015 JUMP JUMPDEST JUMPDEST DUP3 DUP3 ADD SWAP1 POP SWAP3 SWAP2 POP POP JUMP JUMPDEST PUSH32 0x5468657265206973206E6F20656E6454696D652073657420696E2074696D656F PUSH1 0x0 DUP3 ADD MSTORE PUSH32 0x7574000000000000000000000000000000000000000000000000000000000000 PUSH1 0x20 DUP3 ADD MSTORE POP JUMP JUMPDEST PUSH1 0x0 PUSH2 0x310E PUSH1 0x22 DUP4 PUSH2 0x29E7 JUMP JUMPDEST SWAP2 POP PUSH2 0x3119 DUP3 PUSH2 0x30B2 JUMP JUMPDEST PUSH1 0x40 DUP3 ADD SWAP1 POP SWAP2 SWAP1 POP JUMP JUMPDEST PUSH1 0x0 PUSH1 0x20 DUP3 ADD SWAP1 POP DUP2 DUP2 SUB PUSH1 0x0 DUP4 ADD MSTORE PUSH2 0x313D DUP2 PUSH2 0x3101 JUMP JUMPDEST SWAP1 POP SWAP2 SWAP1 POP JUMP JUMPDEST PUSH32 0x546865206D6574686F642067657454696D65496E5365636F6E647320646F6573 PUSH1 0x0 DUP3 ADD MSTORE PUSH32 0x6E277420776F726B20666F72204D4F4E544820616E6420594541520000000000 PUSH1 0x20 DUP3 ADD MSTORE POP JUMP JUMPDEST PUSH1 0x0 PUSH2 0x31A0 PUSH1 0x3B DUP4 PUSH2 0x29E7 JUMP JUMPDEST SWAP2 POP PUSH2 0x31AB DUP3 PUSH2 0x3144 JUMP JUMPDEST PUSH1 0x40 DUP3 ADD SWAP1 POP SWAP2 SWAP1 POP JUMP JUMPDEST PUSH1 0x0 PUSH1 0x20 DUP3 ADD SWAP1 POP DUP2 DUP2 SUB PUSH1 0x0 DUP4 ADD MSTORE PUSH2 0x31CF DUP2 PUSH2 0x3193 JUMP JUMPDEST SWAP1 POP SWAP2 SWAP1 POP JUMP JUMPDEST PUSH1 0x0 DUP2 SWAP1 POP SWAP2 SWAP1 POP JUMP JUMPDEST PUSH1 0x0 PUSH2 0x31EB DUP3 PUSH2 0x31D6 JUMP JUMPDEST SWAP2 POP PUSH32 0xFFFFFFFFFFFFFFFFFFFFFFFFFFFFFFFFFFFFFFFFFFFFFFFFFFFFFFFFFFFFFFFF DUP3 SUB PUSH2 0x321D JUMPI PUSH2 0x321C PUSH2 0x3015 JUMP JUMPDEST JUMPDEST PUSH1 0x1 DUP3 ADD SWAP1 POP SWAP2 SWAP1 POP JUMP JUMPDEST PUSH32 0x4E487B7100000000000000000000000000000000000000000000000000000000 PUSH1 0x0 MSTORE PUSH1 0x12 PUSH1 0x4 MSTORE PUSH1 0x24 PUSH1 0x0 REVERT JUMPDEST PUSH1 0x0 PUSH2 0x3262 DUP3 PUSH2 0x31D6 JUMP JUMPDEST SWAP2 POP PUSH2 0x326D DUP4 PUSH2 0x31D6 JUMP JUMPDEST SWAP3 POP DUP3 PUSH2 0x327D JUMPI PUSH2 0x327C PUSH2 0x3228 JUMP JUMPDEST JUMPDEST DUP3 DUP3 DIV SWAP1 POP SWAP3 SWAP2 POP POP JUMP JUMPDEST PUSH1 0x0 PUSH2 0x3293 DUP3 PUSH2 0x31D6 JUMP JUMPDEST SWAP2 POP PUSH2 0x329E DUP4 PUSH2 0x31D6 JUMP JUMPDEST SWAP3 POP DUP3 DUP3 LT ISZERO PUSH2 0x32B1 JUMPI PUSH2 0x32B0 PUSH2 0x3015 JUMP JUMPDEST JUMPDEST DUP3 DUP3 SUB SWAP1 POP SWAP3 SWAP2 POP POP JUMP JUMPDEST PUSH1 0x0 PUSH2 0x32C7 DUP3 PUSH2 0x31D6 JUMP JUMPDEST SWAP2 POP PUSH2 0x32D2 DUP4 PUSH2 0x31D6 JUMP JUMPDEST SWAP3 POP DUP3 PUSH2 0x32E2 JUMPI PUSH2 0x32E1 PUSH2 0x3228 JUMP JUMPDEST JUMPDEST DUP3 DUP3 MOD SWAP1 POP SWAP3 SWAP2 POP POP JUMP JUMPDEST PUSH1 0x0 PUSH2 0x32F8 DUP3 PUSH2 0x31D6 JUMP JUMPDEST SWAP2 POP PUSH2 0x3303 DUP4 PUSH2 0x31D6 JUMP JUMPDEST SWAP3 POP DUP3 PUSH32 0xFFFFFFFFFFFFFFFFFFFFFFFFFFFFFFFFFFFFFFFFFFFFFFFFFFFFFFFFFFFFFFFF SUB DUP3 GT ISZERO PUSH2 0x3338 JUMPI PUSH2 0x3337 PUSH2 0x3015 JUMP JUMPDEST JUMPDEST DUP3 DUP3 ADD SWAP1 POP SWAP3 SWAP2 POP POP JUMP JUMPDEST PUSH1 0x0 PUSH2 0x334E DUP3 PUSH2 0x24AC JUMP JUMPDEST SWAP2 POP PUSH2 0x3359 DUP4 PUSH2 0x24AC JUMP JUMPDEST SWAP3 POP DUP2 PUSH4 0xFFFFFFFF DIV DUP4 GT DUP3 ISZERO ISZERO AND ISZERO PUSH2 0x3376 JUMPI PUSH2 0x3375 PUSH2 0x3015 JUMP JUMPDEST JUMPDEST DUP3 DUP3 MUL SWAP1 POP SWAP3 SWAP2 POP POP JUMP JUMPDEST PUSH1 0x0 PUSH2 0x338C DUP3 PUSH2 0x24AC JUMP JUMPDEST SWAP2 POP PUSH2 0x3397 DUP4 PUSH2 0x24AC JUMP JUMPDEST SWAP3 POP DUP3 PUSH2 0x33A7 JUMPI PUSH2 0x33A6 PUSH2 0x3228 JUMP JUMPDEST JUMPDEST DUP3 DUP3 DIV SWAP1 POP SWAP3 SWAP2 POP POP JUMP JUMPDEST PUSH1 0x0 PUSH2 0x33BD DUP3 PUSH2 0x24AC JUMP JUMPDEST SWAP2 POP PUSH2 0x33C8 DUP4 PUSH2 0x24AC JUMP JUMPDEST SWAP3 POP DUP3 PUSH2 0x33D8 JUMPI PUSH2 0x33D7 PUSH2 0x3228 JUMP JUMPDEST JUMPDEST DUP3 DUP3 MOD SWAP1 POP SWAP3 SWAP2 POP POP JUMP INVALID LOG2 PUSH5 0x6970667358 0x22 SLT KECCAK256 0xCE JUMP DUP14 CALL SSTORE PUSH22 0x1D10794824FCEDC16FA89498D6E6B40CD9AFB0C5A39D SHL 0xD 0xDA GAS PUSH5 0x736F6C6343 STOP ADDMOD 0xD STOP CALLER PUSH4 0x6F756E74 0x28 0x2F 0x2F PUSH3 0x6F6479 0x2F PUSH17 0x65726F736F6E616C496E666F726D617469 PUSH16 0x6E2F616464726573732F636570290000 "
				},
				"gasEstimates": {
					"creation": {
						"codeDepositCost": "2667400",
						"executionCost": "infinite",
						"totalCost": "infinite"
					},
					"external": {
						"changeApplicationParty(string,address)": "infinite",
						"getApplicationAddress()": "9038",
						"getParty(address)": "infinite",
						"getProcessAddress()": "9060",
						"responderOrder(uint32,int256[])": "infinite",
						"right_requestDelivery(uint32,int256[])": "infinite",
						"signContract()": "infinite"
					},
					"internal": {
						"updateMapParty(address,struct EAI.Party storage pointer)": "infinite"
					}
				},
				"methodIdentifiers": {
					"changeApplicationParty(string,address)": "5e744c6a",
					"getApplicationAddress()": "70d8915a",
					"getParty(address)": "fb6f8243",
					"getProcessAddress()": "85931911",
					"responderOrder(uint32,int256[])": "3bbd6e54",
					"right_requestDelivery(uint32,int256[])": "1aa7fcc5",
					"signContract()": "b8b4f1a0"
				}
			},
			"storageLayout": {
				"storage": [
					{
						"astId": 2120,
						"contract": "contracts/study-case-contracts/001-delivery-hiring/DeliveryHiring_RO.sol:DeliveryHiring_RO",
						"label": "activated",
						"offset": 0,
						"slot": "0",
						"type": "t_bool"
					},
					{
						"astId": 2122,
						"contract": "contracts/study-case-contracts/001-delivery-hiring/DeliveryHiring_RO.sol:DeliveryHiring_RO",
						"label": "beginDate",
						"offset": 1,
						"slot": "0",
						"type": "t_uint32"
					},
					{
						"astId": 2124,
						"contract": "contracts/study-case-contracts/001-delivery-hiring/DeliveryHiring_RO.sol:DeliveryHiring_RO",
						"label": "dueDate",
						"offset": 5,
						"slot": "0",
						"type": "t_uint32"
					},
					{
						"astId": 2131,
						"contract": "contracts/study-case-contracts/001-delivery-hiring/DeliveryHiring_RO.sol:DeliveryHiring_RO",
						"label": "application",
						"offset": 0,
						"slot": "1",
						"type": "t_struct(Party)75_storage"
					},
					{
						"astId": 2134,
						"contract": "contracts/study-case-contracts/001-delivery-hiring/DeliveryHiring_RO.sol:DeliveryHiring_RO",
						"label": "process",
						"offset": 0,
						"slot": "3",
						"type": "t_struct(Party)75_storage"
					},
					{
						"astId": 2139,
						"contract": "contracts/study-case-contracts/001-delivery-hiring/DeliveryHiring_RO.sol:DeliveryHiring_RO",
						"label": "mapParty",
						"offset": 0,
						"slot": "5",
						"type": "t_mapping(t_address,t_struct(Party)75_storage)"
					},
					{
						"astId": 2162,
						"contract": "contracts/study-case-contracts/001-delivery-hiring/DeliveryHiring_RO.sol:DeliveryHiring_RO",
						"label": "numberOfAddresses",
						"offset": 0,
						"slot": "6",
						"type": "t_string_storage"
					},
					{
						"astId": 2165,
						"contract": "contracts/study-case-contracts/001-delivery-hiring/DeliveryHiring_RO.sol:DeliveryHiring_RO",
						"label": "weight",
						"offset": 0,
						"slot": "7",
						"type": "t_string_storage"
					},
					{
						"astId": 2169,
						"contract": "contracts/study-case-contracts/001-delivery-hiring/DeliveryHiring_RO.sol:DeliveryHiring_RO",
						"label": "maxNumberOfOperationByTime_C1",
						"offset": 0,
						"slot": "8",
						"type": "t_array(t_struct(MaxNumberOfOperationByTime)778_storage)dyn_storage"
					},
					{
						"astId": 2173,
						"contract": "contracts/study-case-contracts/001-delivery-hiring/DeliveryHiring_RO.sol:DeliveryHiring_RO",
						"label": "msgContent_number_C1",
						"offset": 0,
						"slot": "9",
						"type": "t_array(t_struct(MessageContent_Number)1112_storage)dyn_storage"
					},
					{
						"astId": 2177,
						"contract": "contracts/study-case-contracts/001-delivery-hiring/DeliveryHiring_RO.sol:DeliveryHiring_RO",
						"label": "timeout_C2",
						"offset": 0,
						"slot": "10",
						"type": "t_array(t_struct(Timeout)604_storage)dyn_storage"
					},
					{
						"astId": 2181,
						"contract": "contracts/study-case-contracts/001-delivery-hiring/DeliveryHiring_RO.sol:DeliveryHiring_RO",
						"label": "msgContent_number_C2",
						"offset": 0,
						"slot": "11",
						"type": "t_array(t_struct(MessageContent_Number)1112_storage)dyn_storage"
					}
				],
				"types": {
					"t_address": {
						"encoding": "inplace",
						"label": "address",
						"numberOfBytes": "20"
					},
					"t_array(t_struct(MaxNumberOfOperationByTime)778_storage)dyn_storage": {
						"base": "t_struct(MaxNumberOfOperationByTime)778_storage",
						"encoding": "dynamic_array",
						"label": "struct EAI.MaxNumberOfOperationByTime[]",
						"numberOfBytes": "32"
					},
					"t_array(t_struct(MessageContent_Number)1112_storage)dyn_storage": {
						"base": "t_struct(MessageContent_Number)1112_storage",
						"encoding": "dynamic_array",
						"label": "struct EAI.MessageContent_Number[]",
						"numberOfBytes": "32"
					},
					"t_array(t_struct(Timeout)604_storage)dyn_storage": {
						"base": "t_struct(Timeout)604_storage",
						"encoding": "dynamic_array",
						"label": "struct EAI.Timeout[]",
						"numberOfBytes": "32"
					},
					"t_bool": {
						"encoding": "inplace",
						"label": "bool",
						"numberOfBytes": "1"
					},
					"t_int256": {
						"encoding": "inplace",
						"label": "int256",
						"numberOfBytes": "32"
					},
					"t_mapping(t_address,t_struct(Party)75_storage)": {
						"encoding": "mapping",
						"key": "t_address",
						"label": "mapping(address => struct EAI.Party)",
						"numberOfBytes": "32",
						"value": "t_struct(Party)75_storage"
					},
					"t_string_storage": {
						"encoding": "bytes",
						"label": "string",
						"numberOfBytes": "32"
					},
					"t_struct(MaxNumberOfOperationByTime)778_storage": {
						"encoding": "inplace",
						"label": "struct EAI.MaxNumberOfOperationByTime",
						"members": [
							{
								"astId": 769,
								"contract": "contracts/study-case-contracts/001-delivery-hiring/DeliveryHiring_RO.sol:DeliveryHiring_RO",
								"label": "amount",
								"offset": 0,
								"slot": "0",
								"type": "t_uint32"
							},
							{
								"astId": 771,
								"contract": "contracts/study-case-contracts/001-delivery-hiring/DeliveryHiring_RO.sol:DeliveryHiring_RO",
								"label": "timeUnit",
								"offset": 4,
								"slot": "0",
								"type": "t_uint8"
							},
							{
								"astId": 773,
								"contract": "contracts/study-case-contracts/001-delivery-hiring/DeliveryHiring_RO.sol:DeliveryHiring_RO",
								"label": "byTime",
								"offset": 5,
								"slot": "0",
								"type": "t_uint32"
							},
							{
								"astId": 775,
								"contract": "contracts/study-case-contracts/001-delivery-hiring/DeliveryHiring_RO.sol:DeliveryHiring_RO",
								"label": "rest",
								"offset": 9,
								"slot": "0",
								"type": "t_uint32"
							},
							{
								"astId": 777,
								"contract": "contracts/study-case-contracts/001-delivery-hiring/DeliveryHiring_RO.sol:DeliveryHiring_RO",
								"label": "endTime",
								"offset": 13,
								"slot": "0",
								"type": "t_uint32"
							}
						],
						"numberOfBytes": "32"
					},
					"t_struct(MessageContent_Number)1112_storage": {
						"encoding": "inplace",
						"label": "struct EAI.MessageContent_Number",
						"members": [
							{
								"astId": 1107,
								"contract": "contracts/study-case-contracts/001-delivery-hiring/DeliveryHiring_RO.sol:DeliveryHiring_RO",
								"label": "xpath",
								"offset": 0,
								"slot": "0",
								"type": "t_string_storage"
							},
							{
								"astId": 1109,
								"contract": "contracts/study-case-contracts/001-delivery-hiring/DeliveryHiring_RO.sol:DeliveryHiring_RO",
								"label": "op",
								"offset": 0,
								"slot": "1",
								"type": "t_string_storage"
							},
							{
								"astId": 1111,
								"contract": "contracts/study-case-contracts/001-delivery-hiring/DeliveryHiring_RO.sol:DeliveryHiring_RO",
								"label": "content",
								"offset": 0,
								"slot": "2",
								"type": "t_int256"
							}
						],
						"numberOfBytes": "96"
					},
					"t_struct(Party)75_storage": {
						"encoding": "inplace",
						"label": "struct EAI.Party",
						"members": [
							{
								"astId": 70,
								"contract": "contracts/study-case-contracts/001-delivery-hiring/DeliveryHiring_RO.sol:DeliveryHiring_RO",
								"label": "name",
								"offset": 0,
								"slot": "0",
								"type": "t_string_storage"
							},
							{
								"astId": 72,
								"contract": "contracts/study-case-contracts/001-delivery-hiring/DeliveryHiring_RO.sol:DeliveryHiring_RO",
								"label": "walletAddress",
								"offset": 0,
								"slot": "1",
								"type": "t_address"
							},
							{
								"astId": 74,
								"contract": "contracts/study-case-contracts/001-delivery-hiring/DeliveryHiring_RO.sol:DeliveryHiring_RO",
								"label": "aware",
								"offset": 20,
								"slot": "1",
								"type": "t_bool"
							}
						],
						"numberOfBytes": "64"
					},
					"t_struct(Timeout)604_storage": {
						"encoding": "inplace",
						"label": "struct EAI.Timeout",
						"members": [
							{
								"astId": 601,
								"contract": "contracts/study-case-contracts/001-delivery-hiring/DeliveryHiring_RO.sol:DeliveryHiring_RO",
								"label": "endTime",
								"offset": 0,
								"slot": "0",
								"type": "t_uint32"
							},
							{
								"astId": 603,
								"contract": "contracts/study-case-contracts/001-delivery-hiring/DeliveryHiring_RO.sol:DeliveryHiring_RO",
								"label": "timeIncrement",
								"offset": 4,
								"slot": "0",
								"type": "t_uint32"
							}
						],
						"numberOfBytes": "32"
					},
					"t_uint32": {
						"encoding": "inplace",
						"label": "uint32",
						"numberOfBytes": "4"
					},
					"t_uint8": {
						"encoding": "inplace",
						"label": "uint8",
						"numberOfBytes": "1"
					}
				}
			},
			"userdoc": {
				"kind": "user",
				"methods": {},
				"version": 1
			}
		}
	}
}