{
	"contracts/study-case-contracts/002-orcid/orcid.sol": {
		"Orcid": {
			"abi": [
				{
					"inputs": [
						{
							"internalType": "address",
							"name": "_applicationWallet",
							"type": "address"
						}
					],
					"stateMutability": "nonpayable",
					"type": "constructor"
				},
				{
					"anonymous": false,
					"inputs": [
						{
							"indexed": false,
							"internalType": "string",
							"name": "_logMessage",
							"type": "string"
						}
					],
					"name": "failEvent",
					"type": "event"
				},
				{
					"anonymous": false,
					"inputs": [
						{
							"indexed": false,
							"internalType": "string",
							"name": "_logMessage",
							"type": "string"
						}
					],
					"name": "successEvent",
					"type": "event"
				},
				{
					"inputs": [
						{
							"internalType": "string",
							"name": "_name",
							"type": "string"
						},
						{
							"internalType": "address",
							"name": "_walletAddress",
							"type": "address"
						}
					],
					"name": "changeApplicationParty",
					"outputs": [
						{
							"internalType": "bool",
							"name": "",
							"type": "bool"
						}
					],
					"stateMutability": "nonpayable",
					"type": "function"
				},
				{
					"inputs": [],
					"name": "getApplicationAddress",
					"outputs": [
						{
							"internalType": "address",
							"name": "",
							"type": "address"
						}
					],
					"stateMutability": "view",
					"type": "function"
				},
				{
					"inputs": [
						{
							"internalType": "address",
							"name": "_walletAddress",
							"type": "address"
						}
					],
					"name": "getParty",
					"outputs": [
						{
							"components": [
								{
									"internalType": "string",
									"name": "name",
									"type": "string"
								},
								{
									"internalType": "address",
									"name": "walletAddress",
									"type": "address"
								},
								{
									"internalType": "bool",
									"name": "aware",
									"type": "bool"
								}
							],
							"internalType": "struct EAI.Party",
							"name": "",
							"type": "tuple"
						}
					],
					"stateMutability": "view",
					"type": "function"
				},
				{
					"inputs": [],
					"name": "getProcessAddress",
					"outputs": [
						{
							"internalType": "address",
							"name": "",
							"type": "address"
						}
					],
					"stateMutability": "view",
					"type": "function"
				},
				{
					"inputs": [
						{
							"internalType": "uint32",
							"name": "_accessDateTime",
							"type": "uint32"
						},
						{
							"internalType": "bool[]",
							"name": "_resultFromXpath",
							"type": "bool[]"
						}
					],
					"name": "obligation_responseWorks",
					"outputs": [
						{
							"internalType": "bool",
							"name": "",
							"type": "bool"
						}
					],
					"stateMutability": "nonpayable",
					"type": "function"
				},
				{
					"inputs": [
						{
							"internalType": "uint32",
							"name": "_accessDateTime",
							"type": "uint32"
						},
						{
							"internalType": "bool[]",
							"name": "_resultFromXpath",
							"type": "bool[]"
						}
					],
					"name": "right_requestUpdate",
					"outputs": [
						{
							"internalType": "bool",
							"name": "",
							"type": "bool"
						}
					],
					"stateMutability": "nonpayable",
					"type": "function"
				},
				{
					"inputs": [],
					"name": "signContract",
					"outputs": [
						{
							"internalType": "bool",
							"name": "",
							"type": "bool"
						}
					],
					"stateMutability": "nonpayable",
					"type": "function"
				}
			],
			"devdoc": {
				"kind": "dev",
				"methods": {},
				"version": 1
			},
			"evm": {
				"assembly": "    /* \"contracts/study-case-contracts/002-orcid/orcid.sol\":190:7059  contract Orcid {... */\n  mstore(0x40, 0x80)\n    /* \"contracts/study-case-contracts/002-orcid/orcid.sol\":1989:3093  constructor(address _applicationWallet){... */\n  callvalue\n  dup1\n  iszero\n  tag_1\n  jumpi\n  0x00\n  dup1\n  revert\ntag_1:\n  pop\n  mload(0x40)\n  sub(codesize, bytecodeSize)\n  dup1\n  bytecodeSize\n  dup4\n  codecopy\n  dup2\n  dup2\n  add\n  0x40\n  mstore\n  dup2\n  add\n  swap1\n  tag_2\n  swap2\n  swap1\n  tag_3\n  jump\t// in\ntag_2:\n    /* \"contracts/study-case-contracts/002-orcid/orcid.sol\":2046:2050  true */\n  0x01\n    /* \"contracts/study-case-contracts/002-orcid/orcid.sol\":2034:2043  activated */\n  0x00\n  dup1\n    /* \"contracts/study-case-contracts/002-orcid/orcid.sol\":2034:2050  activated = true */\n  0x0100\n  exp\n  dup2\n  sload\n  dup2\n  0xff\n  mul\n  not\n  and\n  swap1\n  dup4\n  iszero\n  iszero\n  mul\n  or\n  swap1\n  sstore\n  pop\n    /* \"contracts/study-case-contracts/002-orcid/orcid.sol\":2122:2132  1672560000 */\n  0x63b13d80\n    /* \"contracts/study-case-contracts/002-orcid/orcid.sol\":2110:2119  beginDate */\n  0x00\n  0x01\n    /* \"contracts/study-case-contracts/002-orcid/orcid.sol\":2110:2132  beginDate = 1672560000 */\n  0x0100\n  exp\n  dup2\n  sload\n  dup2\n  0xffffffff\n  mul\n  not\n  and\n  swap1\n  dup4\n  0xffffffff\n  and\n  mul\n  or\n  swap1\n  sstore\n  pop\n    /* \"contracts/study-case-contracts/002-orcid/orcid.sol\":2186:2196  1735603200 */\n  0x67733400\n    /* \"contracts/study-case-contracts/002-orcid/orcid.sol\":2176:2183  dueDate */\n  0x00\n  0x05\n    /* \"contracts/study-case-contracts/002-orcid/orcid.sol\":2176:2196  dueDate = 1735603200 */\n  0x0100\n  exp\n  dup2\n  sload\n  dup2\n  0xffffffff\n  mul\n  not\n  and\n  swap1\n  dup4\n  0xffffffff\n  and\n  mul\n  or\n  swap1\n  sstore\n  pop\n    /* \"contracts/study-case-contracts/002-orcid/orcid.sol\":2290:2345  EAI.createParty(\"Orcid API\", _applicationWallet, false) */\n  tag_6\n  mload(0x40)\n  dup1\n  0x40\n  add\n  0x40\n  mstore\n  dup1\n  0x09\n  dup2\n  mstore\n  0x20\n  add\n  0x4f72636964204150490000000000000000000000000000000000000000000000\n  dup2\n  mstore\n  pop\n    /* \"contracts/study-case-contracts/002-orcid/orcid.sol\":2319:2337  _applicationWallet */\n  dup3\n    /* \"contracts/study-case-contracts/002-orcid/orcid.sol\":2339:2344  false */\n  0x00\n    /* \"contracts/study-case-contracts/002-orcid/orcid.sol\":2290:2305  EAI.createParty */\n  or(tag_0_42, shl(0x20, tag_7))\n    /* \"contracts/study-case-contracts/002-orcid/orcid.sol\":2290:2345  EAI.createParty(\"Orcid API\", _applicationWallet, false) */\n  0x20\n  shr\n  jump\t// in\ntag_6:\n    /* \"contracts/study-case-contracts/002-orcid/orcid.sol\":2276:2287  application */\n  0x01\n    /* \"contracts/study-case-contracts/002-orcid/orcid.sol\":2276:2345  application = EAI.createParty(\"Orcid API\", _applicationWallet, false) */\n  0x00\n  dup3\n  add\n  mload\n  dup2\n  0x00\n  add\n  swap1\n  dup1\n  mload\n  swap1\n  0x20\n  add\n  swap1\n  tag_8\n  swap3\n  swap2\n  swap1\n  tag_9\n  jump\t// in\ntag_8:\n  pop\n  0x20\n  dup3\n  add\n  mload\n  dup2\n  0x01\n  add\n  exp(0x0100, 0x00)\n  dup2\n  sload\n  dup2\n  0xffffffffffffffffffffffffffffffffffffffff\n  mul\n  not\n  and\n  swap1\n  dup4\n  0xffffffffffffffffffffffffffffffffffffffff\n  and\n  mul\n  or\n  swap1\n  sstore\n  pop\n  0x40\n  dup3\n  add\n  mload\n  dup2\n  0x01\n  add\n  exp(0x0100, 0x14)\n  dup2\n  sload\n  dup2\n  0xff\n  mul\n  not\n  and\n  swap1\n  dup4\n  iszero\n  iszero\n  mul\n  or\n  swap1\n  sstore\n  pop\n  swap1\n  pop\n  pop\n    /* \"contracts/study-case-contracts/002-orcid/orcid.sol\":2398:2454  EAI.createParty(\"Integration Process\", msg.sender, true) */\n  tag_10\n  mload(0x40)\n  dup1\n  0x40\n  add\n  0x40\n  mstore\n  dup1\n  0x13\n  dup2\n  mstore\n  0x20\n  add\n  0x496e746567726174696f6e2050726f6365737300000000000000000000000000\n  dup2\n  mstore\n  pop\n    /* \"contracts/study-case-contracts/002-orcid/orcid.sol\":2437:2447  msg.sender */\n  caller\n    /* \"contracts/study-case-contracts/002-orcid/orcid.sol\":2449:2453  true */\n  0x01\n    /* \"contracts/study-case-contracts/002-orcid/orcid.sol\":2398:2413  EAI.createParty */\n  or(tag_0_42, shl(0x20, tag_7))\n    /* \"contracts/study-case-contracts/002-orcid/orcid.sol\":2398:2454  EAI.createParty(\"Integration Process\", msg.sender, true) */\n  0x20\n  shr\n  jump\t// in\ntag_10:\n    /* \"contracts/study-case-contracts/002-orcid/orcid.sol\":2388:2395  process */\n  0x03\n    /* \"contracts/study-case-contracts/002-orcid/orcid.sol\":2388:2454  process = EAI.createParty(\"Integration Process\", msg.sender, true) */\n  0x00\n  dup3\n  add\n  mload\n  dup2\n  0x00\n  add\n  swap1\n  dup1\n  mload\n  swap1\n  0x20\n  add\n  swap1\n  tag_11\n  swap3\n  swap2\n  swap1\n  tag_9\n  jump\t// in\ntag_11:\n  pop\n  0x20\n  dup3\n  add\n  mload\n  dup2\n  0x01\n  add\n  exp(0x0100, 0x00)\n  dup2\n  sload\n  dup2\n  0xffffffffffffffffffffffffffffffffffffffff\n  mul\n  not\n  and\n  swap1\n  dup4\n  0xffffffffffffffffffffffffffffffffffffffff\n  and\n  mul\n  or\n  swap1\n  sstore\n  pop\n  0x40\n  dup3\n  add\n  mload\n  dup2\n  0x01\n  add\n  exp(0x0100, 0x14)\n  dup2\n  sload\n  dup2\n  0xff\n  mul\n  not\n  and\n  swap1\n  dup4\n  iszero\n  iszero\n  mul\n  or\n  swap1\n  sstore\n  pop\n  swap1\n  pop\n  pop\n    /* \"contracts/study-case-contracts/002-orcid/orcid.sol\":2529:2536  process */\n  0x03\n    /* \"contracts/study-case-contracts/002-orcid/orcid.sol\":2506:2514  mapParty */\n  0x05\n    /* \"contracts/study-case-contracts/002-orcid/orcid.sol\":2506:2526  mapParty[msg.sender] */\n  0x00\n    /* \"contracts/study-case-contracts/002-orcid/orcid.sol\":2515:2525  msg.sender */\n  caller\n    /* \"contracts/study-case-contracts/002-orcid/orcid.sol\":2506:2526  mapParty[msg.sender] */\n  0xffffffffffffffffffffffffffffffffffffffff\n  and\n  0xffffffffffffffffffffffffffffffffffffffff\n  and\n  dup2\n  mstore\n  0x20\n  add\n  swap1\n  dup2\n  mstore\n  0x20\n  add\n  0x00\n  keccak256\n    /* \"contracts/study-case-contracts/002-orcid/orcid.sol\":2506:2536  mapParty[msg.sender] = process */\n  0x00\n  dup3\n  add\n  dup2\n  0x00\n  add\n  swap1\n  dup1\n  sload\n  tag_12\n  swap1\n  tag_13\n  jump\t// in\ntag_12:\n  tag_14\n  swap3\n  swap2\n  swap1\n  tag_15\n  jump\t// in\ntag_14:\n  pop\n  0x01\n  dup3\n  add\n  0x00\n  swap1\n  sload\n  swap1\n  0x0100\n  exp\n  swap1\n  div\n  0xffffffffffffffffffffffffffffffffffffffff\n  and\n  dup2\n  0x01\n  add\n  exp(0x0100, 0x00)\n  dup2\n  sload\n  dup2\n  0xffffffffffffffffffffffffffffffffffffffff\n  mul\n  not\n  and\n  swap1\n  dup4\n  0xffffffffffffffffffffffffffffffffffffffff\n  and\n  mul\n  or\n  swap1\n  sstore\n  pop\n  0x01\n  dup3\n  add\n  0x14\n  swap1\n  sload\n  swap1\n  0x0100\n  exp\n  swap1\n  div\n  0xff\n  and\n  dup2\n  0x01\n  add\n  exp(0x0100, 0x14)\n  dup2\n  sload\n  dup2\n  0xff\n  mul\n  not\n  and\n  swap1\n  dup4\n  iszero\n  iszero\n  mul\n  or\n  swap1\n  sstore\n  pop\n  swap1\n  pop\n  pop\n    /* \"contracts/study-case-contracts/002-orcid/orcid.sol\":2578:2589  application */\n  0x01\n    /* \"contracts/study-case-contracts/002-orcid/orcid.sol\":2547:2555  mapParty */\n  0x05\n    /* \"contracts/study-case-contracts/002-orcid/orcid.sol\":2547:2575  mapParty[_applicationWallet] */\n  0x00\n    /* \"contracts/study-case-contracts/002-orcid/orcid.sol\":2556:2574  _applicationWallet */\n  dup4\n    /* \"contracts/study-case-contracts/002-orcid/orcid.sol\":2547:2575  mapParty[_applicationWallet] */\n  0xffffffffffffffffffffffffffffffffffffffff\n  and\n  0xffffffffffffffffffffffffffffffffffffffff\n  and\n  dup2\n  mstore\n  0x20\n  add\n  swap1\n  dup2\n  mstore\n  0x20\n  add\n  0x00\n  keccak256\n    /* \"contracts/study-case-contracts/002-orcid/orcid.sol\":2547:2589  mapParty[_applicationWallet] = application */\n  0x00\n  dup3\n  add\n  dup2\n  0x00\n  add\n  swap1\n  dup1\n  sload\n  tag_16\n  swap1\n  tag_13\n  jump\t// in\ntag_16:\n  tag_17\n  swap3\n  swap2\n  swap1\n  tag_15\n  jump\t// in\ntag_17:\n  pop\n  0x01\n  dup3\n  add\n  0x00\n  swap1\n  sload\n  swap1\n  0x0100\n  exp\n  swap1\n  div\n  0xffffffffffffffffffffffffffffffffffffffff\n  and\n  dup2\n  0x01\n  add\n  exp(0x0100, 0x00)\n  dup2\n  sload\n  dup2\n  0xffffffffffffffffffffffffffffffffffffffff\n  mul\n  not\n  and\n  swap1\n  dup4\n  0xffffffffffffffffffffffffffffffffffffffff\n  and\n  mul\n  or\n  swap1\n  sstore\n  pop\n  0x01\n  dup3\n  add\n  0x14\n  swap1\n  sload\n  swap1\n  0x0100\n  exp\n  swap1\n  div\n  0xff\n  and\n  dup2\n  0x01\n  add\n  exp(0x0100, 0x14)\n  dup2\n  sload\n  dup2\n  0xff\n  mul\n  not\n  and\n  swap1\n  dup4\n  iszero\n  iszero\n  mul\n  or\n  swap1\n  sstore\n  pop\n  swap1\n  pop\n  pop\n    /* \"contracts/study-case-contracts/002-orcid/orcid.sol\":2708:2737  maxNumberOfOperationByTime_C1 */\n  0x06\n    /* \"contracts/study-case-contracts/002-orcid/orcid.sol\":2743:2793  EAI.createMaxNumberOfOperationByTime(8,EAI.SECOND) */\n  tag_18\n    /* \"contracts/study-case-contracts/002-orcid/orcid.sol\":2780:2781  8 */\n  0x08\n    /* \"contracts/lib/eai/EAI.sol\":754:755  0 */\n  0x00\n    /* \"contracts/study-case-contracts/002-orcid/orcid.sol\":2743:2779  EAI.createMaxNumberOfOperationByTime */\n  or(tag_0_43, shl(0x20, tag_19))\n    /* \"contracts/study-case-contracts/002-orcid/orcid.sol\":2743:2793  EAI.createMaxNumberOfOperationByTime(8,EAI.SECOND) */\n  0x20\n  shr\n  jump\t// in\ntag_18:\n    /* \"contracts/study-case-contracts/002-orcid/orcid.sol\":2708:2794  maxNumberOfOperationByTime_C1.push(EAI.createMaxNumberOfOperationByTime(8,EAI.SECOND)) */\n  swap1\n  dup1\n  0x01\n  dup2\n  sload\n  add\n  dup1\n  dup3\n  sstore\n  dup1\n  swap2\n  pop\n  pop\n  0x01\n  swap1\n  sub\n  swap1\n  0x00\n  mstore\n  keccak256(0x00, 0x20)\n  add\n  0x00\n  swap1\n  swap2\n  swap1\n  swap2\n  swap1\n  swap2\n  pop\n  0x00\n  dup3\n  add\n  mload\n  dup2\n  0x00\n  add\n  exp(0x0100, 0x00)\n  dup2\n  sload\n  dup2\n  0xffffffff\n  mul\n  not\n  and\n  swap1\n  dup4\n  0xffffffff\n  and\n  mul\n  or\n  swap1\n  sstore\n  pop\n  0x20\n  dup3\n  add\n  mload\n  dup2\n  0x00\n  add\n  exp(0x0100, 0x04)\n  dup2\n  sload\n  dup2\n  0xff\n  mul\n  not\n  and\n  swap1\n  dup4\n  0xff\n  and\n  mul\n  or\n  swap1\n  sstore\n  pop\n  0x40\n  dup3\n  add\n  mload\n  dup2\n  0x00\n  add\n  exp(0x0100, 0x05)\n  dup2\n  sload\n  dup2\n  0xffffffff\n  mul\n  not\n  and\n  swap1\n  dup4\n  0xffffffff\n  and\n  mul\n  or\n  swap1\n  sstore\n  pop\n  0x60\n  dup3\n  add\n  mload\n  dup2\n  0x00\n  add\n  exp(0x0100, 0x09)\n  dup2\n  sload\n  dup2\n  0xffffffff\n  mul\n  not\n  and\n  swap1\n  dup4\n  0xffffffff\n  and\n  mul\n  or\n  swap1\n  sstore\n  pop\n  0x80\n  dup3\n  add\n  mload\n  dup2\n  0x00\n  add\n  exp(0x0100, 0x0d)\n  dup2\n  sload\n  dup2\n  0xffffffff\n  mul\n  not\n  and\n  swap1\n  dup4\n  0xffffffff\n  and\n  mul\n  or\n  swap1\n  sstore\n  pop\n  pop\n  pop\n    /* \"contracts/study-case-contracts/002-orcid/orcid.sol\":2805:2827  msgContent_onlyPath_C1 */\n  0x07\n    /* \"contracts/study-case-contracts/002-orcid/orcid.sol\":2833:2907  EAI.createMessageContent_onlyXPath_Boolean(\"//author/orcid/id/text()!=''\") */\n  tag_21\n  mload(0x40)\n  dup1\n  0x40\n  add\n  0x40\n  mstore\n  dup1\n  0x1c\n  dup2\n  mstore\n  0x20\n  add\n  0x2f2f617574686f722f6f726369642f69642f746578742829213d272700000000\n  dup2\n  mstore\n  pop\n    /* \"contracts/study-case-contracts/002-orcid/orcid.sol\":2833:2875  EAI.createMessageContent_onlyXPath_Boolean */\n  or(tag_0_44, shl(0x20, tag_22))\n    /* \"contracts/study-case-contracts/002-orcid/orcid.sol\":2833:2907  EAI.createMessageContent_onlyXPath_Boolean(\"//author/orcid/id/text()!=''\") */\n  0x20\n  shr\n  jump\t// in\ntag_21:\n    /* \"contracts/study-case-contracts/002-orcid/orcid.sol\":2805:2908  msgContent_onlyPath_C1.push(EAI.createMessageContent_onlyXPath_Boolean(\"//author/orcid/id/text()!=''\")) */\n  swap1\n  dup1\n  0x01\n  dup2\n  sload\n  add\n  dup1\n  dup3\n  sstore\n  dup1\n  swap2\n  pop\n  pop\n  0x01\n  swap1\n  sub\n  swap1\n  0x00\n  mstore\n  keccak256(0x00, 0x20)\n  add\n  0x00\n  swap1\n  swap2\n  swap1\n  swap2\n  swap1\n  swap2\n  pop\n  0x00\n  dup3\n  add\n  mload\n  dup2\n  0x00\n  add\n  swap1\n  dup1\n  mload\n  swap1\n  0x20\n  add\n  swap1\n  tag_24\n  swap3\n  swap2\n  swap1\n  tag_9\n  jump\t// in\ntag_24:\n  pop\n  pop\n  pop\n    /* \"contracts/study-case-contracts/002-orcid/orcid.sol\":2919:2941  msgContent_onlyPath_C1 */\n  0x07\n    /* \"contracts/study-case-contracts/002-orcid/orcid.sol\":2947:3019  EAI.createMessageContent_onlyXPath_Boolean(\"//article/title/text()!=''\") */\n  tag_25\n  mload(0x40)\n  dup1\n  0x40\n  add\n  0x40\n  mstore\n  dup1\n  0x1a\n  dup2\n  mstore\n  0x20\n  add\n  0x2f2f61727469636c652f7469746c652f746578742829213d2727000000000000\n  dup2\n  mstore\n  pop\n    /* \"contracts/study-case-contracts/002-orcid/orcid.sol\":2947:2989  EAI.createMessageContent_onlyXPath_Boolean */\n  or(tag_0_44, shl(0x20, tag_22))\n    /* \"contracts/study-case-contracts/002-orcid/orcid.sol\":2947:3019  EAI.createMessageContent_onlyXPath_Boolean(\"//article/title/text()!=''\") */\n  0x20\n  shr\n  jump\t// in\ntag_25:\n    /* \"contracts/study-case-contracts/002-orcid/orcid.sol\":2919:3020  msgContent_onlyPath_C1.push(EAI.createMessageContent_onlyXPath_Boolean(\"//article/title/text()!=''\")) */\n  swap1\n  dup1\n  0x01\n  dup2\n  sload\n  add\n  dup1\n  dup3\n  sstore\n  dup1\n  swap2\n  pop\n  pop\n  0x01\n  swap1\n  sub\n  swap1\n  0x00\n  mstore\n  keccak256(0x00, 0x20)\n  add\n  0x00\n  swap1\n  swap2\n  swap1\n  swap2\n  swap1\n  swap2\n  pop\n  0x00\n  dup3\n  add\n  mload\n  dup2\n  0x00\n  add\n  swap1\n  dup1\n  mload\n  swap1\n  0x20\n  add\n  swap1\n  tag_27\n  swap3\n  swap2\n  swap1\n  tag_9\n  jump\t// in\ntag_27:\n  pop\n  pop\n  pop\n    /* \"contracts/study-case-contracts/002-orcid/orcid.sol\":3033:3043  timeout_C2 */\n  0x08\n    /* \"contracts/study-case-contracts/002-orcid/orcid.sol\":3049:3069  EAI.createTimeout(5) */\n  tag_28\n    /* \"contracts/study-case-contracts/002-orcid/orcid.sol\":3067:3068  5 */\n  0x05\n    /* \"contracts/study-case-contracts/002-orcid/orcid.sol\":3049:3066  EAI.createTimeout */\n  or(tag_0_45, shl(0x20, tag_29))\n    /* \"contracts/study-case-contracts/002-orcid/orcid.sol\":3049:3069  EAI.createTimeout(5) */\n  0x20\n  shr\n  jump\t// in\ntag_28:\n    /* \"contracts/study-case-contracts/002-orcid/orcid.sol\":3033:3070  timeout_C2.push(EAI.createTimeout(5)) */\n  swap1\n  dup1\n  0x01\n  dup2\n  sload\n  add\n  dup1\n  dup3\n  sstore\n  dup1\n  swap2\n  pop\n  pop\n  0x01\n  swap1\n  sub\n  swap1\n  0x00\n  mstore\n  keccak256(0x00, 0x20)\n  add\n  0x00\n  swap1\n  swap2\n  swap1\n  swap2\n  swap1\n  swap2\n  pop\n  0x00\n  dup3\n  add\n  mload\n  dup2\n  0x00\n  add\n  exp(0x0100, 0x00)\n  dup2\n  sload\n  dup2\n  0xffffffff\n  mul\n  not\n  and\n  swap1\n  dup4\n  0xffffffff\n  and\n  mul\n  or\n  swap1\n  sstore\n  pop\n  0x20\n  dup3\n  add\n  mload\n  dup2\n  0x00\n  add\n  exp(0x0100, 0x04)\n  dup2\n  sload\n  dup2\n  0xffffffff\n  mul\n  not\n  and\n  swap1\n  dup4\n  0xffffffff\n  and\n  mul\n  or\n  swap1\n  sstore\n  pop\n  pop\n  pop\n    /* \"contracts/study-case-contracts/002-orcid/orcid.sol\":1989:3093  constructor(address _applicationWallet){... */\n  pop\n    /* \"contracts/study-case-contracts/002-orcid/orcid.sol\":190:7059  contract Orcid {... */\n  jump(tag_31)\n    /* \"contracts/lib/eai/EAI.sol\":1676:1852  function createParty(string memory _name, address _walletAddress, bool _aware) internal pure returns(Party memory){... */\ntag_7:\n    /* \"contracts/lib/eai/EAI.sol\":1777:1789  Party memory */\n  tag_32\n  tag_33\n  jump\t// in\ntag_32:\n    /* \"contracts/lib/eai/EAI.sol\":1808:1844  Party(_name, _walletAddress, _aware) */\n  mload(0x40)\n  dup1\n  0x60\n  add\n  0x40\n  mstore\n  dup1\n    /* \"contracts/lib/eai/EAI.sol\":1814:1819  _name */\n  dup6\n    /* \"contracts/lib/eai/EAI.sol\":1808:1844  Party(_name, _walletAddress, _aware) */\n  dup2\n  mstore\n  0x20\n  add\n    /* \"contracts/lib/eai/EAI.sol\":1821:1835  _walletAddress */\n  dup5\n    /* \"contracts/lib/eai/EAI.sol\":1808:1844  Party(_name, _walletAddress, _aware) */\n  0xffffffffffffffffffffffffffffffffffffffff\n  and\n  dup2\n  mstore\n  0x20\n  add\n    /* \"contracts/lib/eai/EAI.sol\":1837:1843  _aware */\n  dup4\n    /* \"contracts/lib/eai/EAI.sol\":1808:1844  Party(_name, _walletAddress, _aware) */\n  iszero\n  iszero\n  dup2\n  mstore\n  pop\n    /* \"contracts/lib/eai/EAI.sol\":1801:1844  return Party(_name, _walletAddress, _aware) */\n  swap1\n  pop\n    /* \"contracts/lib/eai/EAI.sol\":1676:1852  function createParty(string memory _name, address _walletAddress, bool _aware) internal pure returns(Party memory){... */\n  swap4\n  swap3\n  pop\n  pop\n  pop\n  jump\t// out\n    /* \"contracts/lib/eai/EAI.sol\":11005:11636  function createMaxNumberOfOperationByTime(... */\ntag_19:\n    /* \"contracts/lib/eai/EAI.sol\":11130:11163  MaxNumberOfOperationByTime memory */\n  tag_35\n  tag_36\n  jump\t// in\ntag_35:\n    /* \"contracts/lib/eai/EAI.sol\":11177:11193  uint32 auxByTime */\n  0x00\n    /* \"contracts/lib/eai/EAI.sol\":872:873  4 */\n  0x04\n    /* \"contracts/lib/eai/EAI.sol\":11209:11226  _timeUnit <= WEEK */\n  0xff\n  and\n    /* \"contracts/lib/eai/EAI.sol\":11209:11218  _timeUnit */\n  dup4\n    /* \"contracts/lib/eai/EAI.sol\":11209:11226  _timeUnit <= WEEK */\n  0xff\n  and\n  gt\n    /* \"contracts/lib/eai/EAI.sol\":11206:11542  if(_timeUnit <= WEEK){... */\n  tag_38\n  jumpi\n    /* \"contracts/lib/eai/EAI.sol\":11359:11386  getTimeInSeconds(_timeUnit) */\n  tag_39\n    /* \"contracts/lib/eai/EAI.sol\":11376:11385  _timeUnit */\n  dup4\n    /* \"contracts/lib/eai/EAI.sol\":11359:11375  getTimeInSeconds */\n  shl(0x20, tag_40)\n    /* \"contracts/lib/eai/EAI.sol\":11359:11386  getTimeInSeconds(_timeUnit) */\n  0x20\n  shr\n  jump\t// in\ntag_39:\n    /* \"contracts/lib/eai/EAI.sol\":11348:11386  auxByTime= getTimeInSeconds(_timeUnit) */\n  swap1\n  pop\n    /* \"contracts/lib/eai/EAI.sol\":11206:11542  if(_timeUnit <= WEEK){... */\n  jump(tag_41)\ntag_38:\n    /* \"contracts/lib/eai/EAI.sol\":11528:11529  1 */\n  0x01\n    /* \"contracts/lib/eai/EAI.sol\":11516:11529  auxByTime = 1 */\n  swap1\n  pop\n    /* \"contracts/lib/eai/EAI.sol\":11206:11542  if(_timeUnit <= WEEK){... */\ntag_41:\n    /* \"contracts/lib/eai/EAI.sol\":11559:11628  MaxNumberOfOperationByTime(_amount, _timeUnit, auxByTime, _amount, 0) */\n  mload(0x40)\n  dup1\n  0xa0\n  add\n  0x40\n  mstore\n  dup1\n    /* \"contracts/lib/eai/EAI.sol\":11586:11593  _amount */\n  dup6\n    /* \"contracts/lib/eai/EAI.sol\":11559:11628  MaxNumberOfOperationByTime(_amount, _timeUnit, auxByTime, _amount, 0) */\n  0xffffffff\n  and\n  dup2\n  mstore\n  0x20\n  add\n    /* \"contracts/lib/eai/EAI.sol\":11595:11604  _timeUnit */\n  dup5\n    /* \"contracts/lib/eai/EAI.sol\":11559:11628  MaxNumberOfOperationByTime(_amount, _timeUnit, auxByTime, _amount, 0) */\n  0xff\n  and\n  dup2\n  mstore\n  0x20\n  add\n    /* \"contracts/lib/eai/EAI.sol\":11606:11615  auxByTime */\n  dup3\n    /* \"contracts/lib/eai/EAI.sol\":11559:11628  MaxNumberOfOperationByTime(_amount, _timeUnit, auxByTime, _amount, 0) */\n  0xffffffff\n  and\n  dup2\n  mstore\n  0x20\n  add\n    /* \"contracts/lib/eai/EAI.sol\":11617:11624  _amount */\n  dup6\n    /* \"contracts/lib/eai/EAI.sol\":11559:11628  MaxNumberOfOperationByTime(_amount, _timeUnit, auxByTime, _amount, 0) */\n  0xffffffff\n  and\n  dup2\n  mstore\n  0x20\n  add\n    /* \"contracts/lib/eai/EAI.sol\":11626:11627  0 */\n  0x00\n    /* \"contracts/lib/eai/EAI.sol\":11559:11628  MaxNumberOfOperationByTime(_amount, _timeUnit, auxByTime, _amount, 0) */\n  0xffffffff\n  and\n  dup2\n  mstore\n  pop\n    /* \"contracts/lib/eai/EAI.sol\":11552:11628  return MaxNumberOfOperationByTime(_amount, _timeUnit, auxByTime, _amount, 0) */\n  swap2\n  pop\n  pop\n    /* \"contracts/lib/eai/EAI.sol\":11005:11636  function createMaxNumberOfOperationByTime(... */\n  swap3\n  swap2\n  pop\n  pop\n  jump\t// out\n    /* \"contracts/lib/eai/EAI.sol\":13752:13950  function createMessageContent_onlyXPath_Boolean(string memory _xpath) internal pure returns(MessageContent_onlyXPath_Boolean memory){... */\ntag_22:\n    /* \"contracts/lib/eai/EAI.sol\":13844:13883  MessageContent_onlyXPath_Boolean memory */\n  tag_42\n  tag_43\n  jump\t// in\ntag_42:\n    /* \"contracts/lib/eai/EAI.sol\":13902:13942  MessageContent_onlyXPath_Boolean(_xpath) */\n  mload(0x40)\n  dup1\n  0x20\n  add\n  0x40\n  mstore\n  dup1\n    /* \"contracts/lib/eai/EAI.sol\":13935:13941  _xpath */\n  dup4\n    /* \"contracts/lib/eai/EAI.sol\":13902:13942  MessageContent_onlyXPath_Boolean(_xpath) */\n  dup2\n  mstore\n  pop\n    /* \"contracts/lib/eai/EAI.sol\":13895:13942  return MessageContent_onlyXPath_Boolean(_xpath) */\n  swap1\n  pop\n    /* \"contracts/lib/eai/EAI.sol\":13752:13950  function createMessageContent_onlyXPath_Boolean(string memory _xpath) internal pure returns(MessageContent_onlyXPath_Boolean memory){... */\n  swap2\n  swap1\n  pop\n  jump\t// out\n    /* \"contracts/lib/eai/EAI.sol\":8421:8558  function createTimeout(uint32 _timeIncrement) internal pure returns (Timeout memory ){... */\ntag_29:\n    /* \"contracts/lib/eai/EAI.sol\":8490:8504  Timeout memory */\n  tag_45\n  tag_46\n  jump\t// in\ntag_45:\n    /* \"contracts/lib/eai/EAI.sol\":8524:8550  Timeout(0, _timeIncrement) */\n  mload(0x40)\n  dup1\n  0x40\n  add\n  0x40\n  mstore\n  dup1\n    /* \"contracts/lib/eai/EAI.sol\":8532:8533  0 */\n  0x00\n    /* \"contracts/lib/eai/EAI.sol\":8524:8550  Timeout(0, _timeIncrement) */\n  0xffffffff\n  and\n  dup2\n  mstore\n  0x20\n  add\n    /* \"contracts/lib/eai/EAI.sol\":8535:8549  _timeIncrement */\n  dup4\n    /* \"contracts/lib/eai/EAI.sol\":8524:8550  Timeout(0, _timeIncrement) */\n  0xffffffff\n  and\n  dup2\n  mstore\n  pop\n    /* \"contracts/lib/eai/EAI.sol\":8517:8550  return Timeout(0, _timeIncrement) */\n  swap1\n  pop\n    /* \"contracts/lib/eai/EAI.sol\":8421:8558  function createTimeout(uint32 _timeIncrement) internal pure returns (Timeout memory ){... */\n  swap2\n  swap1\n  pop\n  jump\t// out\n    /* \"contracts/lib/eai/EAI.sol\":27468:28017  function getTimeInSeconds(uint8 timeUnit) private pure returns(uint32){... */\ntag_40:\n    /* \"contracts/lib/eai/EAI.sol\":27531:27537  uint32 */\n  0x00\n    /* \"contracts/lib/eai/EAI.sol\":872:873  4 */\n  0x04\n    /* \"contracts/lib/eai/EAI.sol\":27611:27627  timeUnit <= WEEK */\n  0xff\n  and\n    /* \"contracts/lib/eai/EAI.sol\":27611:27619  timeUnit */\n  dup3\n    /* \"contracts/lib/eai/EAI.sol\":27611:27627  timeUnit <= WEEK */\n  0xff\n  and\n  gt\n  iszero\n    /* \"contracts/lib/eai/EAI.sol\":27603:27691  require(timeUnit <= WEEK, \"The method getTimeInSeconds doesn't work for MONTH and YEAR\") */\n  tag_49\n  jumpi\n  mload(0x40)\n  0x08c379a000000000000000000000000000000000000000000000000000000000\n  dup2\n  mstore\n  0x04\n  add\n  tag_50\n  swap1\n  tag_51\n  jump\t// in\ntag_50:\n  mload(0x40)\n  dup1\n  swap2\n  sub\n  swap1\n  revert\ntag_49:\n    /* \"contracts/lib/eai/EAI.sol\":754:755  0 */\n  0x00\n    /* \"contracts/lib/eai/EAI.sol\":27707:27725  timeUnit == SECOND */\n  0xff\n  and\n    /* \"contracts/lib/eai/EAI.sol\":27707:27715  timeUnit */\n  dup3\n    /* \"contracts/lib/eai/EAI.sol\":27707:27725  timeUnit == SECOND */\n  0xff\n  and\n  eq\n    /* \"contracts/lib/eai/EAI.sol\":27704:28010  if(timeUnit == SECOND){... */\n  iszero\n  tag_52\n  jumpi\n    /* \"contracts/lib/eai/EAI.sol\":27748:27749  1 */\n  0x01\n    /* \"contracts/lib/eai/EAI.sol\":27741:27749  return 1 */\n  swap1\n  pop\n  jump(tag_48)\n    /* \"contracts/lib/eai/EAI.sol\":27704:28010  if(timeUnit == SECOND){... */\ntag_52:\n    /* \"contracts/lib/eai/EAI.sol\":786:787  1 */\n  0x01\n    /* \"contracts/lib/eai/EAI.sol\":27769:27787  timeUnit == MINUTE */\n  0xff\n  and\n    /* \"contracts/lib/eai/EAI.sol\":27769:27777  timeUnit */\n  dup3\n    /* \"contracts/lib/eai/EAI.sol\":27769:27787  timeUnit == MINUTE */\n  0xff\n  and\n  eq\n    /* \"contracts/lib/eai/EAI.sol\":27766:28010  if(timeUnit == MINUTE){... */\n  iszero\n  tag_54\n  jumpi\n    /* \"contracts/lib/eai/EAI.sol\":27810:27812  60 */\n  0x3c\n    /* \"contracts/lib/eai/EAI.sol\":27803:27812  return 60 */\n  swap1\n  pop\n  jump(tag_48)\n    /* \"contracts/lib/eai/EAI.sol\":27766:28010  if(timeUnit == MINUTE){... */\ntag_54:\n    /* \"contracts/lib/eai/EAI.sol\":815:816  2 */\n  0x02\n    /* \"contracts/lib/eai/EAI.sol\":27832:27848  timeUnit == HOUR */\n  0xff\n  and\n    /* \"contracts/lib/eai/EAI.sol\":27832:27840  timeUnit */\n  dup3\n    /* \"contracts/lib/eai/EAI.sol\":27832:27848  timeUnit == HOUR */\n  0xff\n  and\n  eq\n    /* \"contracts/lib/eai/EAI.sol\":27829:28010  if(timeUnit == HOUR ){... */\n  iszero\n  tag_56\n  jumpi\n    /* \"contracts/lib/eai/EAI.sol\":27872:27877  60*60 */\n  0x0e10\n    /* \"contracts/lib/eai/EAI.sol\":27865:27877  return 60*60 */\n  swap1\n  pop\n  jump(tag_48)\n    /* \"contracts/lib/eai/EAI.sol\":27829:28010  if(timeUnit == HOUR ){... */\ntag_56:\n    /* \"contracts/lib/eai/EAI.sol\":843:844  3 */\n  0x03\n    /* \"contracts/lib/eai/EAI.sol\":27897:27912  timeUnit == DAY */\n  0xff\n  and\n    /* \"contracts/lib/eai/EAI.sol\":27897:27905  timeUnit */\n  dup3\n    /* \"contracts/lib/eai/EAI.sol\":27897:27912  timeUnit == DAY */\n  0xff\n  and\n  eq\n    /* \"contracts/lib/eai/EAI.sol\":27894:28010  if(timeUnit == DAY){... */\n  iszero\n  tag_58\n  jumpi\n    /* \"contracts/lib/eai/EAI.sol\":27935:27943  60*60*24 */\n  0x015180\n    /* \"contracts/lib/eai/EAI.sol\":27928:27943  return 60*60*24 */\n  swap1\n  pop\n  jump(tag_48)\n    /* \"contracts/lib/eai/EAI.sol\":27894:28010  if(timeUnit == DAY){... */\ntag_58:\n    /* \"contracts/lib/eai/EAI.sol\":27981:27991  60*60*24*7 */\n  0x093a80\n    /* \"contracts/lib/eai/EAI.sol\":27974:27991  return 60*60*24*7 */\n  swap1\n  pop\n    /* \"contracts/lib/eai/EAI.sol\":27468:28017  function getTimeInSeconds(uint8 timeUnit) private pure returns(uint32){... */\ntag_48:\n  swap2\n  swap1\n  pop\n  jump\t// out\n    /* \"contracts/study-case-contracts/002-orcid/orcid.sol\":190:7059  contract Orcid {... */\ntag_9:\n  dup3\n  dup1\n  sload\n  tag_60\n  swap1\n  tag_13\n  jump\t// in\ntag_60:\n  swap1\n  0x00\n  mstore\n  keccak256(0x00, 0x20)\n  swap1\n  0x1f\n  add\n  0x20\n  swap1\n  div\n  dup2\n  add\n  swap3\n  dup3\n  tag_62\n  jumpi\n  0x00\n  dup6\n  sstore\n  jump(tag_61)\ntag_62:\n  dup3\n  0x1f\n  lt\n  tag_63\n  jumpi\n  dup1\n  mload\n  not(0xff)\n  and\n  dup4\n  dup1\n  add\n  or\n  dup6\n  sstore\n  jump(tag_61)\ntag_63:\n  dup3\n  dup1\n  add\n  0x01\n  add\n  dup6\n  sstore\n  dup3\n  iszero\n  tag_61\n  jumpi\n  swap2\n  dup3\n  add\ntag_64:\n  dup3\n  dup2\n  gt\n  iszero\n  tag_65\n  jumpi\n  dup3\n  mload\n  dup3\n  sstore\n  swap2\n  0x20\n  add\n  swap2\n  swap1\n  0x01\n  add\n  swap1\n  jump(tag_64)\ntag_65:\ntag_61:\n  pop\n  swap1\n  pop\n  tag_66\n  swap2\n  swap1\n  tag_67\n  jump\t// in\ntag_66:\n  pop\n  swap1\n  jump\t// out\ntag_15:\n  dup3\n  dup1\n  sload\n  tag_68\n  swap1\n  tag_13\n  jump\t// in\ntag_68:\n  swap1\n  0x00\n  mstore\n  keccak256(0x00, 0x20)\n  swap1\n  0x1f\n  add\n  0x20\n  swap1\n  div\n  dup2\n  add\n  swap3\n  dup3\n  tag_70\n  jumpi\n  0x00\n  dup6\n  sstore\n  jump(tag_69)\ntag_70:\n  dup3\n  0x1f\n  lt\n  tag_71\n  jumpi\n  dup1\n  sload\n  dup6\n  sstore\n  jump(tag_69)\ntag_71:\n  dup3\n  dup1\n  add\n  0x01\n  add\n  dup6\n  sstore\n  dup3\n  iszero\n  tag_69\n  jumpi\n  0x00\n  mstore\n  keccak256(0x00, 0x20)\n  swap2\n  0x1f\n  add\n  0x20\n  swap1\n  div\n  dup3\n  add\ntag_72:\n  dup3\n  dup2\n  gt\n  iszero\n  tag_73\n  jumpi\n  dup3\n  sload\n  dup3\n  sstore\n  swap2\n  0x01\n  add\n  swap2\n  swap1\n  0x01\n  add\n  swap1\n  jump(tag_72)\ntag_73:\ntag_69:\n  pop\n  swap1\n  pop\n  tag_74\n  swap2\n  swap1\n  tag_67\n  jump\t// in\ntag_74:\n  pop\n  swap1\n  jump\t// out\ntag_33:\n  mload(0x40)\n  dup1\n  0x60\n  add\n  0x40\n  mstore\n  dup1\n  0x60\n  dup2\n  mstore\n  0x20\n  add\n  and(0xffffffffffffffffffffffffffffffffffffffff, 0x00)\n  dup2\n  mstore\n  0x20\n  add\n  iszero(iszero(0x00))\n  dup2\n  mstore\n  pop\n  swap1\n  jump\t// out\ntag_36:\n  mload(0x40)\n  dup1\n  0xa0\n  add\n  0x40\n  mstore\n  dup1\n  and(0xffffffff, 0x00)\n  dup2\n  mstore\n  0x20\n  add\n  and(0xff, 0x00)\n  dup2\n  mstore\n  0x20\n  add\n  and(0xffffffff, 0x00)\n  dup2\n  mstore\n  0x20\n  add\n  and(0xffffffff, 0x00)\n  dup2\n  mstore\n  0x20\n  add\n  and(0xffffffff, 0x00)\n  dup2\n  mstore\n  pop\n  swap1\n  jump\t// out\ntag_43:\n  mload(0x40)\n  dup1\n  0x20\n  add\n  0x40\n  mstore\n  dup1\n  0x60\n  dup2\n  mstore\n  pop\n  swap1\n  jump\t// out\ntag_46:\n  mload(0x40)\n  dup1\n  0x40\n  add\n  0x40\n  mstore\n  dup1\n  and(0xffffffff, 0x00)\n  dup2\n  mstore\n  0x20\n  add\n  and(0xffffffff, 0x00)\n  dup2\n  mstore\n  pop\n  swap1\n  jump\t// out\ntag_67:\ntag_75:\n  dup1\n  dup3\n  gt\n  iszero\n  tag_76\n  jumpi\n  0x00\n  dup2\n  0x00\n  swap1\n  sstore\n  pop\n  0x01\n  add\n  jump(tag_75)\ntag_76:\n  pop\n  swap1\n  jump\t// out\n    /* \"#utility.yul\":88:205   */\ntag_78:\n    /* \"#utility.yul\":197:198   */\n  0x00\n    /* \"#utility.yul\":194:195   */\n  dup1\n    /* \"#utility.yul\":187:199   */\n  revert\n    /* \"#utility.yul\":334:460   */\ntag_80:\n    /* \"#utility.yul\":371:378   */\n  0x00\n    /* \"#utility.yul\":411:453   */\n  0xffffffffffffffffffffffffffffffffffffffff\n    /* \"#utility.yul\":404:409   */\n  dup3\n    /* \"#utility.yul\":400:454   */\n  and\n    /* \"#utility.yul\":389:454   */\n  swap1\n  pop\n    /* \"#utility.yul\":334:460   */\n  swap2\n  swap1\n  pop\n  jump\t// out\n    /* \"#utility.yul\":466:562   */\ntag_81:\n    /* \"#utility.yul\":503:510   */\n  0x00\n    /* \"#utility.yul\":532:556   */\n  tag_94\n    /* \"#utility.yul\":550:555   */\n  dup3\n    /* \"#utility.yul\":532:556   */\n  tag_80\n  jump\t// in\ntag_94:\n    /* \"#utility.yul\":521:556   */\n  swap1\n  pop\n    /* \"#utility.yul\":466:562   */\n  swap2\n  swap1\n  pop\n  jump\t// out\n    /* \"#utility.yul\":568:690   */\ntag_82:\n    /* \"#utility.yul\":641:665   */\n  tag_96\n    /* \"#utility.yul\":659:664   */\n  dup2\n    /* \"#utility.yul\":641:665   */\n  tag_81\n  jump\t// in\ntag_96:\n    /* \"#utility.yul\":634:639   */\n  dup2\n    /* \"#utility.yul\":631:666   */\n  eq\n    /* \"#utility.yul\":621:684   */\n  tag_97\n  jumpi\n    /* \"#utility.yul\":680:681   */\n  0x00\n    /* \"#utility.yul\":677:678   */\n  dup1\n    /* \"#utility.yul\":670:682   */\n  revert\n    /* \"#utility.yul\":621:684   */\ntag_97:\n    /* \"#utility.yul\":568:690   */\n  pop\n  jump\t// out\n    /* \"#utility.yul\":696:839   */\ntag_83:\n    /* \"#utility.yul\":753:758   */\n  0x00\n    /* \"#utility.yul\":784:790   */\n  dup2\n    /* \"#utility.yul\":778:791   */\n  mload\n    /* \"#utility.yul\":769:791   */\n  swap1\n  pop\n    /* \"#utility.yul\":800:833   */\n  tag_99\n    /* \"#utility.yul\":827:832   */\n  dup2\n    /* \"#utility.yul\":800:833   */\n  tag_82\n  jump\t// in\ntag_99:\n    /* \"#utility.yul\":696:839   */\n  swap3\n  swap2\n  pop\n  pop\n  jump\t// out\n    /* \"#utility.yul\":845:1196   */\ntag_3:\n    /* \"#utility.yul\":915:921   */\n  0x00\n    /* \"#utility.yul\":964:966   */\n  0x20\n    /* \"#utility.yul\":952:961   */\n  dup3\n    /* \"#utility.yul\":943:950   */\n  dup5\n    /* \"#utility.yul\":939:962   */\n  sub\n    /* \"#utility.yul\":935:967   */\n  slt\n    /* \"#utility.yul\":932:1051   */\n  iszero\n  tag_101\n  jumpi\n    /* \"#utility.yul\":970:1049   */\n  tag_102\n  tag_78\n  jump\t// in\ntag_102:\n    /* \"#utility.yul\":932:1051   */\ntag_101:\n    /* \"#utility.yul\":1090:1091   */\n  0x00\n    /* \"#utility.yul\":1115:1179   */\n  tag_103\n    /* \"#utility.yul\":1171:1178   */\n  dup5\n    /* \"#utility.yul\":1162:1168   */\n  dup3\n    /* \"#utility.yul\":1151:1160   */\n  dup6\n    /* \"#utility.yul\":1147:1169   */\n  add\n    /* \"#utility.yul\":1115:1179   */\n  tag_83\n  jump\t// in\ntag_103:\n    /* \"#utility.yul\":1105:1179   */\n  swap2\n  pop\n    /* \"#utility.yul\":1061:1189   */\n  pop\n    /* \"#utility.yul\":845:1196   */\n  swap3\n  swap2\n  pop\n  pop\n  jump\t// out\n    /* \"#utility.yul\":1202:1382   */\ntag_84:\n    /* \"#utility.yul\":1250:1327   */\n  0x4e487b7100000000000000000000000000000000000000000000000000000000\n    /* \"#utility.yul\":1247:1248   */\n  0x00\n    /* \"#utility.yul\":1240:1328   */\n  mstore\n    /* \"#utility.yul\":1347:1351   */\n  0x22\n    /* \"#utility.yul\":1344:1345   */\n  0x04\n    /* \"#utility.yul\":1337:1352   */\n  mstore\n    /* \"#utility.yul\":1371:1375   */\n  0x24\n    /* \"#utility.yul\":1368:1369   */\n  0x00\n    /* \"#utility.yul\":1361:1376   */\n  revert\n    /* \"#utility.yul\":1388:1708   */\ntag_13:\n    /* \"#utility.yul\":1432:1438   */\n  0x00\n    /* \"#utility.yul\":1469:1470   */\n  0x02\n    /* \"#utility.yul\":1463:1467   */\n  dup3\n    /* \"#utility.yul\":1459:1471   */\n  div\n    /* \"#utility.yul\":1449:1471   */\n  swap1\n  pop\n    /* \"#utility.yul\":1516:1517   */\n  0x01\n    /* \"#utility.yul\":1510:1514   */\n  dup3\n    /* \"#utility.yul\":1506:1518   */\n  and\n    /* \"#utility.yul\":1537:1555   */\n  dup1\n    /* \"#utility.yul\":1527:1608   */\n  tag_106\n  jumpi\n    /* \"#utility.yul\":1593:1597   */\n  0x7f\n    /* \"#utility.yul\":1585:1591   */\n  dup3\n    /* \"#utility.yul\":1581:1598   */\n  and\n    /* \"#utility.yul\":1571:1598   */\n  swap2\n  pop\n    /* \"#utility.yul\":1527:1608   */\ntag_106:\n    /* \"#utility.yul\":1655:1657   */\n  0x20\n    /* \"#utility.yul\":1647:1653   */\n  dup3\n    /* \"#utility.yul\":1644:1658   */\n  lt\n    /* \"#utility.yul\":1624:1642   */\n  dup2\n    /* \"#utility.yul\":1621:1659   */\n  eq\n    /* \"#utility.yul\":1618:1702   */\n  iszero\n  tag_107\n  jumpi\n    /* \"#utility.yul\":1674:1692   */\n  tag_108\n  tag_84\n  jump\t// in\ntag_108:\n    /* \"#utility.yul\":1618:1702   */\ntag_107:\n    /* \"#utility.yul\":1439:1708   */\n  pop\n    /* \"#utility.yul\":1388:1708   */\n  swap2\n  swap1\n  pop\n  jump\t// out\n    /* \"#utility.yul\":1714:1883   */\ntag_85:\n    /* \"#utility.yul\":1798:1809   */\n  0x00\n    /* \"#utility.yul\":1832:1838   */\n  dup3\n    /* \"#utility.yul\":1827:1830   */\n  dup3\n    /* \"#utility.yul\":1820:1839   */\n  mstore\n    /* \"#utility.yul\":1872:1876   */\n  0x20\n    /* \"#utility.yul\":1867:1870   */\n  dup3\n    /* \"#utility.yul\":1863:1877   */\n  add\n    /* \"#utility.yul\":1848:1877   */\n  swap1\n  pop\n    /* \"#utility.yul\":1714:1883   */\n  swap3\n  swap2\n  pop\n  pop\n  jump\t// out\n    /* \"#utility.yul\":1889:2135   */\ntag_86:\n    /* \"#utility.yul\":2029:2063   */\n  0x546865206d6574686f642067657454696d65496e5365636f6e647320646f6573\n    /* \"#utility.yul\":2025:2026   */\n  0x00\n    /* \"#utility.yul\":2017:2023   */\n  dup3\n    /* \"#utility.yul\":2013:2027   */\n  add\n    /* \"#utility.yul\":2006:2064   */\n  mstore\n    /* \"#utility.yul\":2098:2127   */\n  0x6e277420776f726b20666f72204d4f4e544820616e6420594541520000000000\n    /* \"#utility.yul\":2093:2095   */\n  0x20\n    /* \"#utility.yul\":2085:2091   */\n  dup3\n    /* \"#utility.yul\":2081:2096   */\n  add\n    /* \"#utility.yul\":2074:2128   */\n  mstore\n    /* \"#utility.yul\":1889:2135   */\n  pop\n  jump\t// out\n    /* \"#utility.yul\":2141:2507   */\ntag_87:\n    /* \"#utility.yul\":2283:2286   */\n  0x00\n    /* \"#utility.yul\":2304:2371   */\n  tag_112\n    /* \"#utility.yul\":2368:2370   */\n  0x3b\n    /* \"#utility.yul\":2363:2366   */\n  dup4\n    /* \"#utility.yul\":2304:2371   */\n  tag_85\n  jump\t// in\ntag_112:\n    /* \"#utility.yul\":2297:2371   */\n  swap2\n  pop\n    /* \"#utility.yul\":2380:2473   */\n  tag_113\n    /* \"#utility.yul\":2469:2472   */\n  dup3\n    /* \"#utility.yul\":2380:2473   */\n  tag_86\n  jump\t// in\ntag_113:\n    /* \"#utility.yul\":2498:2500   */\n  0x40\n    /* \"#utility.yul\":2493:2496   */\n  dup3\n    /* \"#utility.yul\":2489:2501   */\n  add\n    /* \"#utility.yul\":2482:2501   */\n  swap1\n  pop\n    /* \"#utility.yul\":2141:2507   */\n  swap2\n  swap1\n  pop\n  jump\t// out\n    /* \"#utility.yul\":2513:2932   */\ntag_51:\n    /* \"#utility.yul\":2679:2683   */\n  0x00\n    /* \"#utility.yul\":2717:2719   */\n  0x20\n    /* \"#utility.yul\":2706:2715   */\n  dup3\n    /* \"#utility.yul\":2702:2720   */\n  add\n    /* \"#utility.yul\":2694:2720   */\n  swap1\n  pop\n    /* \"#utility.yul\":2766:2775   */\n  dup2\n    /* \"#utility.yul\":2760:2764   */\n  dup2\n    /* \"#utility.yul\":2756:2776   */\n  sub\n    /* \"#utility.yul\":2752:2753   */\n  0x00\n    /* \"#utility.yul\":2741:2750   */\n  dup4\n    /* \"#utility.yul\":2737:2754   */\n  add\n    /* \"#utility.yul\":2730:2777   */\n  mstore\n    /* \"#utility.yul\":2794:2925   */\n  tag_115\n    /* \"#utility.yul\":2920:2924   */\n  dup2\n    /* \"#utility.yul\":2794:2925   */\n  tag_87\n  jump\t// in\ntag_115:\n    /* \"#utility.yul\":2786:2925   */\n  swap1\n  pop\n    /* \"#utility.yul\":2513:2932   */\n  swap2\n  swap1\n  pop\n  jump\t// out\n    /* \"contracts/study-case-contracts/002-orcid/orcid.sol\":190:7059  contract Orcid {... */\ntag_31:\n  dataSize(sub_0)\n  dup1\n  dataOffset(sub_0)\n  0x00\n  codecopy\n  0x00\n  return\nstop\n\nsub_0: assembly {\n        /* \"contracts/study-case-contracts/002-orcid/orcid.sol\":190:7059  contract Orcid {... */\n      mstore(0x40, 0x80)\n      callvalue\n      dup1\n      iszero\n      tag_1\n      jumpi\n      0x00\n      dup1\n      revert\n    tag_1:\n      pop\n      jumpi(tag_2, lt(calldatasize, 0x04))\n      shr(0xe0, calldataload(0x00))\n      dup1\n      0x70d8915a\n      gt\n      tag_10\n      jumpi\n      dup1\n      0x70d8915a\n      eq\n      tag_6\n      jumpi\n      dup1\n      0x85931911\n      eq\n      tag_7\n      jumpi\n      dup1\n      0xb8b4f1a0\n      eq\n      tag_8\n      jumpi\n      dup1\n      0xfb6f8243\n      eq\n      tag_9\n      jumpi\n      jump(tag_2)\n    tag_10:\n      dup1\n      0x22d53d53\n      eq\n      tag_3\n      jumpi\n      dup1\n      0x41487b4a\n      eq\n      tag_4\n      jumpi\n      dup1\n      0x5e744c6a\n      eq\n      tag_5\n      jumpi\n    tag_2:\n      0x00\n      dup1\n      revert\n        /* \"contracts/study-case-contracts/002-orcid/orcid.sol\":3844:4373  function obligation_responseWorks(uint32 _accessDateTime, bool[] memory _resultFromXpath)public onlyApplication() returns(bool){... */\n    tag_3:\n      tag_11\n      0x04\n      dup1\n      calldatasize\n      sub\n      dup2\n      add\n      swap1\n      tag_12\n      swap2\n      swap1\n      tag_13\n      jump\t// in\n    tag_12:\n      tag_14\n      jump\t// in\n    tag_11:\n      mload(0x40)\n      tag_15\n      swap2\n      swap1\n      tag_16\n      jump\t// in\n    tag_15:\n      mload(0x40)\n      dup1\n      swap2\n      sub\n      swap1\n      return\n        /* \"contracts/study-case-contracts/002-orcid/orcid.sol\":3151:3836  function right_requestUpdate(uint32 _accessDateTime, bool[] memory _resultFromXpath )public onlyProcess() returns(bool){... */\n    tag_4:\n      tag_17\n      0x04\n      dup1\n      calldatasize\n      sub\n      dup2\n      add\n      swap1\n      tag_18\n      swap2\n      swap1\n      tag_13\n      jump\t// in\n    tag_18:\n      tag_19\n      jump\t// in\n    tag_17:\n      mload(0x40)\n      tag_20\n      swap2\n      swap1\n      tag_16\n      jump\t// in\n    tag_20:\n      mload(0x40)\n      dup1\n      swap2\n      sub\n      swap1\n      return\n        /* \"contracts/study-case-contracts/002-orcid/orcid.sol\":5299:5730  function changeApplicationParty(string memory _name, address _walletAddress) public returns(bool) {       ... */\n    tag_5:\n      tag_21\n      0x04\n      dup1\n      calldatasize\n      sub\n      dup2\n      add\n      swap1\n      tag_22\n      swap2\n      swap1\n      tag_23\n      jump\t// in\n    tag_22:\n      tag_24\n      jump\t// in\n    tag_21:\n      mload(0x40)\n      tag_25\n      swap2\n      swap1\n      tag_16\n      jump\t// in\n    tag_25:\n      mload(0x40)\n      dup1\n      swap2\n      sub\n      swap1\n      return\n        /* \"contracts/study-case-contracts/002-orcid/orcid.sol\":5878:6010  function getApplicationAddress() public view onlyInvolvedParties returns(address){... */\n    tag_6:\n      tag_26\n      tag_27\n      jump\t// in\n    tag_26:\n      mload(0x40)\n      tag_28\n      swap2\n      swap1\n      tag_29\n      jump\t// in\n    tag_28:\n      mload(0x40)\n      dup1\n      swap2\n      sub\n      swap1\n      return\n        /* \"contracts/study-case-contracts/002-orcid/orcid.sol\":5742:5866  function getProcessAddress() public view onlyInvolvedParties returns(address){... */\n    tag_7:\n      tag_30\n      tag_31\n      jump\t// in\n    tag_30:\n      mload(0x40)\n      tag_32\n      swap2\n      swap1\n      tag_29\n      jump\t// in\n    tag_32:\n      mload(0x40)\n      dup1\n      swap2\n      sub\n      swap1\n      return\n        /* \"contracts/study-case-contracts/002-orcid/orcid.sol\":4699:4961  function signContract() public onlyApplication() returns(bool) {... */\n    tag_8:\n      tag_33\n      tag_34\n      jump\t// in\n    tag_33:\n      mload(0x40)\n      tag_35\n      swap2\n      swap1\n      tag_16\n      jump\t// in\n    tag_35:\n      mload(0x40)\n      dup1\n      swap2\n      sub\n      swap1\n      return\n        /* \"contracts/study-case-contracts/002-orcid/orcid.sol\":6018:6167  function getParty(address _walletAddress) public view onlyInvolvedParties returns(EAI.Party memory){... */\n    tag_9:\n      tag_36\n      0x04\n      dup1\n      calldatasize\n      sub\n      dup2\n      add\n      swap1\n      tag_37\n      swap2\n      swap1\n      tag_38\n      jump\t// in\n    tag_37:\n      tag_39\n      jump\t// in\n    tag_36:\n      mload(0x40)\n      tag_40\n      swap2\n      swap1\n      tag_41\n      jump\t// in\n    tag_40:\n      mload(0x40)\n      dup1\n      swap2\n      sub\n      swap1\n      return\n        /* \"contracts/study-case-contracts/002-orcid/orcid.sol\":3844:4373  function obligation_responseWorks(uint32 _accessDateTime, bool[] memory _resultFromXpath)public onlyApplication() returns(bool){... */\n    tag_14:\n        /* \"contracts/study-case-contracts/002-orcid/orcid.sol\":3966:3970  bool */\n      0x00\n        /* \"contracts/study-case-contracts/002-orcid/orcid.sol\":6327:6336  activated */\n      dup1\n      0x00\n      swap1\n      sload\n      swap1\n      0x0100\n      exp\n      swap1\n      div\n      0xff\n      and\n        /* \"contracts/study-case-contracts/002-orcid/orcid.sol\":6319:6369  require(activated, \"This contract is deactivated\") */\n      tag_47\n      jumpi\n      mload(0x40)\n      0x08c379a000000000000000000000000000000000000000000000000000000000\n      dup2\n      mstore\n      0x04\n      add\n      tag_48\n      swap1\n      tag_49\n      jump\t// in\n    tag_48:\n      mload(0x40)\n      dup1\n      swap2\n      sub\n      swap1\n      revert\n    tag_47:\n        /* \"contracts/study-case-contracts/002-orcid/orcid.sol\":6433:6443  msg.sender */\n      caller\n        /* \"contracts/study-case-contracts/002-orcid/orcid.sol\":6404:6443  application.walletAddress == msg.sender */\n      0xffffffffffffffffffffffffffffffffffffffff\n      and\n        /* \"contracts/study-case-contracts/002-orcid/orcid.sol\":6404:6415  application */\n      0x01\n        /* \"contracts/study-case-contracts/002-orcid/orcid.sol\":6404:6429  application.walletAddress */\n      dup1\n      add\n      0x00\n      swap1\n      sload\n      swap1\n      0x0100\n      exp\n      swap1\n      div\n      0xffffffffffffffffffffffffffffffffffffffff\n      and\n        /* \"contracts/study-case-contracts/002-orcid/orcid.sol\":6404:6443  application.walletAddress == msg.sender */\n      0xffffffffffffffffffffffffffffffffffffffff\n      and\n      eq\n        /* \"contracts/study-case-contracts/002-orcid/orcid.sol\":6396:6495  require(application.walletAddress == msg.sender, \"Only the application can execute this operation\") */\n      tag_50\n      jumpi\n      mload(0x40)\n      0x08c379a000000000000000000000000000000000000000000000000000000000\n      dup2\n      mstore\n      0x04\n      add\n      tag_51\n      swap1\n      tag_52\n      jump\t// in\n    tag_51:\n      mload(0x40)\n      dup1\n      swap2\n      sub\n      swap1\n      revert\n    tag_50:\n        /* \"contracts/study-case-contracts/002-orcid/orcid.sol\":3986:4031  timeout_C2[0].isTimeoutEnded(_accessDateTime) */\n      tag_54\n        /* \"contracts/study-case-contracts/002-orcid/orcid.sol\":4015:4030  _accessDateTime */\n      dup4\n        /* \"contracts/study-case-contracts/002-orcid/orcid.sol\":3986:3996  timeout_C2 */\n      0x08\n        /* \"contracts/study-case-contracts/002-orcid/orcid.sol\":3997:3998  0 */\n      0x00\n        /* \"contracts/study-case-contracts/002-orcid/orcid.sol\":3986:3999  timeout_C2[0] */\n      dup2\n      sload\n      dup2\n      lt\n      tag_55\n      jumpi\n      tag_56\n      tag_57\n      jump\t// in\n    tag_56:\n    tag_55:\n      swap1\n      0x00\n      mstore\n      keccak256(0x00, 0x20)\n      add\n        /* \"contracts/study-case-contracts/002-orcid/orcid.sol\":3986:4014  timeout_C2[0].isTimeoutEnded */\n      mload(0x40)\n      dup1\n      0x40\n      add\n      0x40\n      mstore\n      swap1\n      dup2\n      0x00\n      dup3\n      add\n      0x00\n      swap1\n      sload\n      swap1\n      0x0100\n      exp\n      swap1\n      div\n      0xffffffff\n      and\n      0xffffffff\n      and\n      0xffffffff\n      and\n      dup2\n      mstore\n      0x20\n      add\n      0x00\n      dup3\n      add\n      0x04\n      swap1\n      sload\n      swap1\n      0x0100\n      exp\n      swap1\n      div\n      0xffffffff\n      and\n      0xffffffff\n      and\n      0xffffffff\n      and\n      dup2\n      mstore\n      pop\n      pop\n      tag_59\n      swap1\n        /* \"contracts/study-case-contracts/002-orcid/orcid.sol\":3986:4031  timeout_C2[0].isTimeoutEnded(_accessDateTime) */\n      swap2\n      swap1\n      0xffffffff\n      and\n      jump\t// in\n    tag_54:\n        /* \"contracts/study-case-contracts/002-orcid/orcid.sol\":3985:4031  !timeout_C2[0].isTimeoutEnded(_accessDateTime) */\n      iszero\n        /* \"contracts/study-case-contracts/002-orcid/orcid.sol\":3985:4067  !timeout_C2[0].isTimeoutEnded(_accessDateTime) &&... */\n      dup1\n      iszero\n      tag_60\n      jumpi\n      pop\n        /* \"contracts/study-case-contracts/002-orcid/orcid.sol\":4048:4064  _resultFromXpath */\n      dup2\n        /* \"contracts/study-case-contracts/002-orcid/orcid.sol\":4065:4066  0 */\n      0x00\n        /* \"contracts/study-case-contracts/002-orcid/orcid.sol\":4048:4067  _resultFromXpath[0] */\n      dup2\n      mload\n      dup2\n      lt\n      tag_61\n      jumpi\n      tag_62\n      tag_57\n      jump\t// in\n    tag_62:\n    tag_61:\n      0x20\n      mul\n      0x20\n      add\n      add\n      mload\n        /* \"contracts/study-case-contracts/002-orcid/orcid.sol\":3985:4067  !timeout_C2[0].isTimeoutEnded(_accessDateTime) &&... */\n    tag_60:\n        /* \"contracts/study-case-contracts/002-orcid/orcid.sol\":3982:4363  if(!timeout_C2[0].isTimeoutEnded(_accessDateTime) &&... */\n      iszero\n      tag_63\n      jumpi\n        /* \"contracts/study-case-contracts/002-orcid/orcid.sol\":4093:4170  maxNumberOfOperationByTime_C1[0].decreaseOneOperation_ByTime(_accessDateTime) */\n      tag_64\n        /* \"contracts/study-case-contracts/002-orcid/orcid.sol\":4154:4169  _accessDateTime */\n      dup4\n        /* \"contracts/study-case-contracts/002-orcid/orcid.sol\":4093:4122  maxNumberOfOperationByTime_C1 */\n      0x06\n        /* \"contracts/study-case-contracts/002-orcid/orcid.sol\":4123:4124  0 */\n      0x00\n        /* \"contracts/study-case-contracts/002-orcid/orcid.sol\":4093:4125  maxNumberOfOperationByTime_C1[0] */\n      dup2\n      sload\n      dup2\n      lt\n      tag_65\n      jumpi\n      tag_66\n      tag_57\n      jump\t// in\n    tag_66:\n    tag_65:\n      swap1\n      0x00\n      mstore\n      keccak256(0x00, 0x20)\n      add\n        /* \"contracts/study-case-contracts/002-orcid/orcid.sol\":4093:4153  maxNumberOfOperationByTime_C1[0].decreaseOneOperation_ByTime */\n      tag_68\n      swap1\n        /* \"contracts/study-case-contracts/002-orcid/orcid.sol\":4093:4170  maxNumberOfOperationByTime_C1[0].decreaseOneOperation_ByTime(_accessDateTime) */\n      swap2\n      swap1\n      0xffffffff\n      and\n      jump\t// in\n    tag_64:\n      pop\n        /* \"contracts/study-case-contracts/002-orcid/orcid.sol\":4190:4227  successEvent(\"Successful execution!\") */\n      0x95a1f3a1dafdd4c1af344e3d7c69a72cbce8a3f15fe1cf95a7f5bd23df2e71a1\n      mload(0x40)\n      tag_69\n      swap1\n      tag_70\n      jump\t// in\n    tag_69:\n      mload(0x40)\n      dup1\n      swap2\n      sub\n      swap1\n      log1\n        /* \"contracts/study-case-contracts/002-orcid/orcid.sol\":4249:4253  true */\n      0x01\n        /* \"contracts/study-case-contracts/002-orcid/orcid.sol\":4242:4253  return true */\n      swap1\n      pop\n      jump(tag_53)\n        /* \"contracts/study-case-contracts/002-orcid/orcid.sol\":3982:4363  if(!timeout_C2[0].isTimeoutEnded(_accessDateTime) &&... */\n    tag_63:\n        /* \"contracts/study-case-contracts/002-orcid/orcid.sol\":4289:4324  failEvent(\"Conditions do not meet\") */\n      0x66091b7dc2b097c8f60d5cd6aa99633b097f08d2eb1056f3e15361b22e0ea2ba\n      mload(0x40)\n      tag_72\n      swap1\n      tag_73\n      jump\t// in\n    tag_72:\n      mload(0x40)\n      dup1\n      swap2\n      sub\n      swap1\n      log1\n        /* \"contracts/study-case-contracts/002-orcid/orcid.sol\":4346:4351  false */\n      0x00\n        /* \"contracts/study-case-contracts/002-orcid/orcid.sol\":4339:4351  return false */\n      swap1\n      pop\n        /* \"contracts/study-case-contracts/002-orcid/orcid.sol\":6510:6511  _ */\n    tag_53:\n        /* \"contracts/study-case-contracts/002-orcid/orcid.sol\":3844:4373  function obligation_responseWorks(uint32 _accessDateTime, bool[] memory _resultFromXpath)public onlyApplication() returns(bool){... */\n      swap3\n      swap2\n      pop\n      pop\n      jump\t// out\n        /* \"contracts/study-case-contracts/002-orcid/orcid.sol\":3151:3836  function right_requestUpdate(uint32 _accessDateTime, bool[] memory _resultFromXpath )public onlyProcess() returns(bool){... */\n    tag_19:\n        /* \"contracts/study-case-contracts/002-orcid/orcid.sol\":3265:3269  bool */\n      0x00\n        /* \"contracts/study-case-contracts/002-orcid/orcid.sol\":6576:6585  activated */\n      dup1\n      0x00\n      swap1\n      sload\n      swap1\n      0x0100\n      exp\n      swap1\n      div\n      0xff\n      and\n        /* \"contracts/study-case-contracts/002-orcid/orcid.sol\":6568:6618  require(activated, \"This contract is deactivated\") */\n      tag_75\n      jumpi\n      mload(0x40)\n      0x08c379a000000000000000000000000000000000000000000000000000000000\n      dup2\n      mstore\n      0x04\n      add\n      tag_76\n      swap1\n      tag_49\n      jump\t// in\n    tag_76:\n      mload(0x40)\n      dup1\n      swap2\n      sub\n      swap1\n      revert\n    tag_75:\n        /* \"contracts/study-case-contracts/002-orcid/orcid.sol\":6662:6672  msg.sender */\n      caller\n        /* \"contracts/study-case-contracts/002-orcid/orcid.sol\":6637:6672  process.walletAddress == msg.sender */\n      0xffffffffffffffffffffffffffffffffffffffff\n      and\n        /* \"contracts/study-case-contracts/002-orcid/orcid.sol\":6637:6644  process */\n      0x03\n        /* \"contracts/study-case-contracts/002-orcid/orcid.sol\":6637:6658  process.walletAddress */\n      0x01\n      add\n      0x00\n      swap1\n      sload\n      swap1\n      0x0100\n      exp\n      swap1\n      div\n      0xffffffffffffffffffffffffffffffffffffffff\n      and\n        /* \"contracts/study-case-contracts/002-orcid/orcid.sol\":6637:6672  process.walletAddress == msg.sender */\n      0xffffffffffffffffffffffffffffffffffffffff\n      and\n      eq\n        /* \"contracts/study-case-contracts/002-orcid/orcid.sol\":6629:6720  require(process.walletAddress == msg.sender, \"Only the process can execute this operation\") */\n      tag_77\n      jumpi\n      mload(0x40)\n      0x08c379a000000000000000000000000000000000000000000000000000000000\n      dup2\n      mstore\n      0x04\n      add\n      tag_78\n      swap1\n      tag_79\n      jump\t// in\n    tag_78:\n      mload(0x40)\n      dup1\n      swap2\n      sub\n      swap1\n      revert\n    tag_77:\n        /* \"contracts/study-case-contracts/002-orcid/orcid.sol\":3286:3365  maxNumberOfOperationByTime_C1[0].hasAvailableOperations_ByTime(_accessDateTime) */\n      tag_81\n        /* \"contracts/study-case-contracts/002-orcid/orcid.sol\":3349:3364  _accessDateTime */\n      dup4\n        /* \"contracts/study-case-contracts/002-orcid/orcid.sol\":3286:3315  maxNumberOfOperationByTime_C1 */\n      0x06\n        /* \"contracts/study-case-contracts/002-orcid/orcid.sol\":3316:3317  0 */\n      0x00\n        /* \"contracts/study-case-contracts/002-orcid/orcid.sol\":3286:3318  maxNumberOfOperationByTime_C1[0] */\n      dup2\n      sload\n      dup2\n      lt\n      tag_82\n      jumpi\n      tag_83\n      tag_57\n      jump\t// in\n    tag_83:\n    tag_82:\n      swap1\n      0x00\n      mstore\n      keccak256(0x00, 0x20)\n      add\n        /* \"contracts/study-case-contracts/002-orcid/orcid.sol\":3286:3348  maxNumberOfOperationByTime_C1[0].hasAvailableOperations_ByTime */\n      tag_85\n      swap1\n        /* \"contracts/study-case-contracts/002-orcid/orcid.sol\":3286:3365  maxNumberOfOperationByTime_C1[0].hasAvailableOperations_ByTime(_accessDateTime) */\n      swap2\n      swap1\n      0xffffffff\n      and\n      jump\t// in\n    tag_81:\n        /* \"contracts/study-case-contracts/002-orcid/orcid.sol\":3286:3401  maxNumberOfOperationByTime_C1[0].hasAvailableOperations_ByTime(_accessDateTime) &&... */\n      dup1\n      iszero\n      tag_86\n      jumpi\n      pop\n        /* \"contracts/study-case-contracts/002-orcid/orcid.sol\":3382:3398  _resultFromXpath */\n      dup2\n        /* \"contracts/study-case-contracts/002-orcid/orcid.sol\":3399:3400  0 */\n      0x00\n        /* \"contracts/study-case-contracts/002-orcid/orcid.sol\":3382:3401  _resultFromXpath[0] */\n      dup2\n      mload\n      dup2\n      lt\n      tag_87\n      jumpi\n      tag_88\n      tag_57\n      jump\t// in\n    tag_88:\n    tag_87:\n      0x20\n      mul\n      0x20\n      add\n      add\n      mload\n        /* \"contracts/study-case-contracts/002-orcid/orcid.sol\":3286:3401  maxNumberOfOperationByTime_C1[0].hasAvailableOperations_ByTime(_accessDateTime) &&... */\n    tag_86:\n        /* \"contracts/study-case-contracts/002-orcid/orcid.sol\":3286:3437  maxNumberOfOperationByTime_C1[0].hasAvailableOperations_ByTime(_accessDateTime) &&... */\n      dup1\n      iszero\n      tag_89\n      jumpi\n      pop\n        /* \"contracts/study-case-contracts/002-orcid/orcid.sol\":3418:3434  _resultFromXpath */\n      dup2\n        /* \"contracts/study-case-contracts/002-orcid/orcid.sol\":3435:3436  1 */\n      0x01\n        /* \"contracts/study-case-contracts/002-orcid/orcid.sol\":3418:3437  _resultFromXpath[1] */\n      dup2\n      mload\n      dup2\n      lt\n      tag_90\n      jumpi\n      tag_91\n      tag_57\n      jump\t// in\n    tag_91:\n    tag_90:\n      0x20\n      mul\n      0x20\n      add\n      add\n      mload\n        /* \"contracts/study-case-contracts/002-orcid/orcid.sol\":3286:3437  maxNumberOfOperationByTime_C1[0].hasAvailableOperations_ByTime(_accessDateTime) &&... */\n    tag_89:\n        /* \"contracts/study-case-contracts/002-orcid/orcid.sol\":3283:3814  if(maxNumberOfOperationByTime_C1[0].hasAvailableOperations_ByTime(_accessDateTime) &&... */\n      iszero\n      tag_92\n      jumpi\n        /* \"contracts/study-case-contracts/002-orcid/orcid.sol\":3467:3544  maxNumberOfOperationByTime_C1[0].decreaseOneOperation_ByTime(_accessDateTime) */\n      tag_93\n        /* \"contracts/study-case-contracts/002-orcid/orcid.sol\":3528:3543  _accessDateTime */\n      dup4\n        /* \"contracts/study-case-contracts/002-orcid/orcid.sol\":3467:3496  maxNumberOfOperationByTime_C1 */\n      0x06\n        /* \"contracts/study-case-contracts/002-orcid/orcid.sol\":3497:3498  0 */\n      0x00\n        /* \"contracts/study-case-contracts/002-orcid/orcid.sol\":3467:3499  maxNumberOfOperationByTime_C1[0] */\n      dup2\n      sload\n      dup2\n      lt\n      tag_94\n      jumpi\n      tag_95\n      tag_57\n      jump\t// in\n    tag_95:\n    tag_94:\n      swap1\n      0x00\n      mstore\n      keccak256(0x00, 0x20)\n      add\n        /* \"contracts/study-case-contracts/002-orcid/orcid.sol\":3467:3527  maxNumberOfOperationByTime_C1[0].decreaseOneOperation_ByTime */\n      tag_68\n      swap1\n        /* \"contracts/study-case-contracts/002-orcid/orcid.sol\":3467:3544  maxNumberOfOperationByTime_C1[0].decreaseOneOperation_ByTime(_accessDateTime) */\n      swap2\n      swap1\n      0xffffffff\n      and\n      jump\t// in\n    tag_93:\n      pop\n        /* \"contracts/study-case-contracts/002-orcid/orcid.sol\":3562:3612  timeout_C2[0].setEndTimeInTimeout(_accessDateTime) */\n      tag_97\n        /* \"contracts/study-case-contracts/002-orcid/orcid.sol\":3596:3611  _accessDateTime */\n      dup4\n        /* \"contracts/study-case-contracts/002-orcid/orcid.sol\":3562:3572  timeout_C2 */\n      0x08\n        /* \"contracts/study-case-contracts/002-orcid/orcid.sol\":3573:3574  0 */\n      0x00\n        /* \"contracts/study-case-contracts/002-orcid/orcid.sol\":3562:3575  timeout_C2[0] */\n      dup2\n      sload\n      dup2\n      lt\n      tag_98\n      jumpi\n      tag_99\n      tag_57\n      jump\t// in\n    tag_99:\n    tag_98:\n      swap1\n      0x00\n      mstore\n      keccak256(0x00, 0x20)\n      add\n        /* \"contracts/study-case-contracts/002-orcid/orcid.sol\":3562:3595  timeout_C2[0].setEndTimeInTimeout */\n      tag_101\n      swap1\n        /* \"contracts/study-case-contracts/002-orcid/orcid.sol\":3562:3612  timeout_C2[0].setEndTimeInTimeout(_accessDateTime) */\n      swap2\n      swap1\n      0xffffffff\n      and\n      jump\t// in\n    tag_97:\n        /* \"contracts/study-case-contracts/002-orcid/orcid.sol\":3640:3677  successEvent(\"Successful execution!\") */\n      0x95a1f3a1dafdd4c1af344e3d7c69a72cbce8a3f15fe1cf95a7f5bd23df2e71a1\n      mload(0x40)\n      tag_102\n      swap1\n      tag_70\n      jump\t// in\n    tag_102:\n      mload(0x40)\n      dup1\n      swap2\n      sub\n      swap1\n      log1\n        /* \"contracts/study-case-contracts/002-orcid/orcid.sol\":3699:3703  true */\n      0x01\n        /* \"contracts/study-case-contracts/002-orcid/orcid.sol\":3692:3703  return true */\n      swap1\n      pop\n      jump(tag_80)\n        /* \"contracts/study-case-contracts/002-orcid/orcid.sol\":3283:3814  if(maxNumberOfOperationByTime_C1[0].hasAvailableOperations_ByTime(_accessDateTime) &&... */\n    tag_92:\n        /* \"contracts/study-case-contracts/002-orcid/orcid.sol\":3740:3775  failEvent(\"Conditions do not meet\") */\n      0x66091b7dc2b097c8f60d5cd6aa99633b097f08d2eb1056f3e15361b22e0ea2ba\n      mload(0x40)\n      tag_104\n      swap1\n      tag_73\n      jump\t// in\n    tag_104:\n      mload(0x40)\n      dup1\n      swap2\n      sub\n      swap1\n      log1\n        /* \"contracts/study-case-contracts/002-orcid/orcid.sol\":3797:3802  false */\n      0x00\n        /* \"contracts/study-case-contracts/002-orcid/orcid.sol\":3790:3802  return false */\n      swap1\n      pop\n        /* \"contracts/study-case-contracts/002-orcid/orcid.sol\":6731:6732  _ */\n    tag_80:\n        /* \"contracts/study-case-contracts/002-orcid/orcid.sol\":3151:3836  function right_requestUpdate(uint32 _accessDateTime, bool[] memory _resultFromXpath )public onlyProcess() returns(bool){... */\n      swap3\n      swap2\n      pop\n      pop\n      jump\t// out\n        /* \"contracts/study-case-contracts/002-orcid/orcid.sol\":5299:5730  function changeApplicationParty(string memory _name, address _walletAddress) public returns(bool) {       ... */\n    tag_24:\n        /* \"contracts/study-case-contracts/002-orcid/orcid.sol\":5391:5395  bool */\n      0x00\n        /* \"contracts/study-case-contracts/002-orcid/orcid.sol\":5448:5458  msg.sender */\n      caller\n        /* \"contracts/study-case-contracts/002-orcid/orcid.sol\":5423:5458  process.walletAddress == msg.sender */\n      0xffffffffffffffffffffffffffffffffffffffff\n      and\n        /* \"contracts/study-case-contracts/002-orcid/orcid.sol\":5423:5430  process */\n      0x03\n        /* \"contracts/study-case-contracts/002-orcid/orcid.sol\":5423:5444  process.walletAddress */\n      0x01\n      add\n      0x00\n      swap1\n      sload\n      swap1\n      0x0100\n      exp\n      swap1\n      div\n      0xffffffffffffffffffffffffffffffffffffffff\n      and\n        /* \"contracts/study-case-contracts/002-orcid/orcid.sol\":5423:5458  process.walletAddress == msg.sender */\n      0xffffffffffffffffffffffffffffffffffffffff\n      and\n      eq\n        /* \"contracts/study-case-contracts/002-orcid/orcid.sol\":5415:5506  require(process.walletAddress == msg.sender, \"Only the process can execute this operation\") */\n      tag_106\n      jumpi\n      mload(0x40)\n      0x08c379a000000000000000000000000000000000000000000000000000000000\n      dup2\n      mstore\n      0x04\n      add\n      tag_107\n      swap1\n      tag_79\n      jump\t// in\n    tag_107:\n      mload(0x40)\n      dup1\n      swap2\n      sub\n      swap1\n      revert\n    tag_106:\n        /* \"contracts/study-case-contracts/002-orcid/orcid.sol\":5524:5532  mapParty */\n      0x05\n        /* \"contracts/study-case-contracts/002-orcid/orcid.sol\":5524:5559  mapParty[application.walletAddress] */\n      0x00\n        /* \"contracts/study-case-contracts/002-orcid/orcid.sol\":5533:5544  application */\n      0x01\n        /* \"contracts/study-case-contracts/002-orcid/orcid.sol\":5533:5558  application.walletAddress */\n      dup1\n      add\n      0x00\n      swap1\n      sload\n      swap1\n      0x0100\n      exp\n      swap1\n      div\n      0xffffffffffffffffffffffffffffffffffffffff\n      and\n        /* \"contracts/study-case-contracts/002-orcid/orcid.sol\":5524:5559  mapParty[application.walletAddress] */\n      0xffffffffffffffffffffffffffffffffffffffff\n      and\n      0xffffffffffffffffffffffffffffffffffffffff\n      and\n      dup2\n      mstore\n      0x20\n      add\n      swap1\n      dup2\n      mstore\n      0x20\n      add\n      0x00\n      keccak256\n      0x00\n        /* \"contracts/study-case-contracts/002-orcid/orcid.sol\":5517:5559  delete mapParty[application.walletAddress] */\n      dup1\n      dup3\n      add\n      0x00\n      tag_108\n      swap2\n      swap1\n      tag_109\n      jump\t// in\n    tag_108:\n      0x01\n      dup3\n      add\n      exp(0x0100, 0x00)\n      dup2\n      sload\n      swap1\n      0xffffffffffffffffffffffffffffffffffffffff\n      mul\n      not\n      and\n      swap1\n      sstore\n      0x01\n      dup3\n      add\n      exp(0x0100, 0x14)\n      dup2\n      sload\n      swap1\n      0xff\n      mul\n      not\n      and\n      swap1\n      sstore\n      pop\n      pop\n        /* \"contracts/study-case-contracts/002-orcid/orcid.sol\":5584:5629  EAI.createParty(_name, _walletAddress, false) */\n      tag_110\n        /* \"contracts/study-case-contracts/002-orcid/orcid.sol\":5600:5605  _name */\n      dup4\n        /* \"contracts/study-case-contracts/002-orcid/orcid.sol\":5607:5621  _walletAddress */\n      dup4\n        /* \"contracts/study-case-contracts/002-orcid/orcid.sol\":5623:5628  false */\n      0x00\n        /* \"contracts/study-case-contracts/002-orcid/orcid.sol\":5584:5599  EAI.createParty */\n      tag_42\n        /* \"contracts/study-case-contracts/002-orcid/orcid.sol\":5584:5629  EAI.createParty(_name, _walletAddress, false) */\n      jump\t// in\n    tag_110:\n        /* \"contracts/study-case-contracts/002-orcid/orcid.sol\":5570:5581  application */\n      0x01\n        /* \"contracts/study-case-contracts/002-orcid/orcid.sol\":5570:5629  application = EAI.createParty(_name, _walletAddress, false) */\n      0x00\n      dup3\n      add\n      mload\n      dup2\n      0x00\n      add\n      swap1\n      dup1\n      mload\n      swap1\n      0x20\n      add\n      swap1\n      tag_111\n      swap3\n      swap2\n      swap1\n      tag_112\n      jump\t// in\n    tag_111:\n      pop\n      0x20\n      dup3\n      add\n      mload\n      dup2\n      0x01\n      add\n      exp(0x0100, 0x00)\n      dup2\n      sload\n      dup2\n      0xffffffffffffffffffffffffffffffffffffffff\n      mul\n      not\n      and\n      swap1\n      dup4\n      0xffffffffffffffffffffffffffffffffffffffff\n      and\n      mul\n      or\n      swap1\n      sstore\n      pop\n      0x40\n      dup3\n      add\n      mload\n      dup2\n      0x01\n      add\n      exp(0x0100, 0x14)\n      dup2\n      sload\n      dup2\n      0xff\n      mul\n      not\n      and\n      swap1\n      dup4\n      iszero\n      iszero\n      mul\n      or\n      swap1\n      sstore\n      pop\n      swap1\n      pop\n      pop\n        /* \"contracts/study-case-contracts/002-orcid/orcid.sol\":5650:5693  updateMapParty(_walletAddress, application) */\n      tag_113\n        /* \"contracts/study-case-contracts/002-orcid/orcid.sol\":5665:5679  _walletAddress */\n      dup3\n        /* \"contracts/study-case-contracts/002-orcid/orcid.sol\":5681:5692  application */\n      0x01\n        /* \"contracts/study-case-contracts/002-orcid/orcid.sol\":5650:5664  updateMapParty */\n      tag_114\n        /* \"contracts/study-case-contracts/002-orcid/orcid.sol\":5650:5693  updateMapParty(_walletAddress, application) */\n      jump\t// in\n    tag_113:\n      pop\n        /* \"contracts/study-case-contracts/002-orcid/orcid.sol\":5711:5715  true */\n      0x01\n        /* \"contracts/study-case-contracts/002-orcid/orcid.sol\":5704:5715  return true */\n      swap1\n      pop\n        /* \"contracts/study-case-contracts/002-orcid/orcid.sol\":5299:5730  function changeApplicationParty(string memory _name, address _walletAddress) public returns(bool) {       ... */\n      swap3\n      swap2\n      pop\n      pop\n      jump\t// out\n        /* \"contracts/study-case-contracts/002-orcid/orcid.sol\":5878:6010  function getApplicationAddress() public view onlyInvolvedParties returns(address){... */\n    tag_27:\n        /* \"contracts/study-case-contracts/002-orcid/orcid.sol\":5951:5958  address */\n      0x00\n        /* \"contracts/study-case-contracts/002-orcid/orcid.sol\":6797:6806  activated */\n      dup1\n      0x00\n      swap1\n      sload\n      swap1\n      0x0100\n      exp\n      swap1\n      div\n      0xff\n      and\n        /* \"contracts/study-case-contracts/002-orcid/orcid.sol\":6789:6839  require(activated, \"This contract is deactivated\") */\n      tag_116\n      jumpi\n      mload(0x40)\n      0x08c379a000000000000000000000000000000000000000000000000000000000\n      dup2\n      mstore\n      0x04\n      add\n      tag_117\n      swap1\n      tag_49\n      jump\t// in\n    tag_117:\n      mload(0x40)\n      dup1\n      swap2\n      sub\n      swap1\n      revert\n    tag_116:\n        /* \"contracts/study-case-contracts/002-orcid/orcid.sol\":6902:6912  msg.sender */\n      caller\n        /* \"contracts/study-case-contracts/002-orcid/orcid.sol\":6873:6912  application.walletAddress == msg.sender */\n      0xffffffffffffffffffffffffffffffffffffffff\n      and\n        /* \"contracts/study-case-contracts/002-orcid/orcid.sol\":6873:6884  application */\n      0x01\n        /* \"contracts/study-case-contracts/002-orcid/orcid.sol\":6873:6898  application.walletAddress */\n      dup1\n      add\n      0x00\n      swap1\n      sload\n      swap1\n      0x0100\n      exp\n      swap1\n      div\n      0xffffffffffffffffffffffffffffffffffffffff\n      and\n        /* \"contracts/study-case-contracts/002-orcid/orcid.sol\":6873:6912  application.walletAddress == msg.sender */\n      0xffffffffffffffffffffffffffffffffffffffff\n      and\n      eq\n        /* \"contracts/study-case-contracts/002-orcid/orcid.sol\":6873:6951  application.walletAddress == msg.sender || process.walletAddress == msg.sender */\n      dup1\n      tag_118\n      jumpi\n      pop\n        /* \"contracts/study-case-contracts/002-orcid/orcid.sol\":6941:6951  msg.sender */\n      caller\n        /* \"contracts/study-case-contracts/002-orcid/orcid.sol\":6916:6951  process.walletAddress == msg.sender */\n      0xffffffffffffffffffffffffffffffffffffffff\n      and\n        /* \"contracts/study-case-contracts/002-orcid/orcid.sol\":6916:6923  process */\n      0x03\n        /* \"contracts/study-case-contracts/002-orcid/orcid.sol\":6916:6937  process.walletAddress */\n      0x01\n      add\n      0x00\n      swap1\n      sload\n      swap1\n      0x0100\n      exp\n      swap1\n      div\n      0xffffffffffffffffffffffffffffffffffffffff\n      and\n        /* \"contracts/study-case-contracts/002-orcid/orcid.sol\":6916:6951  process.walletAddress == msg.sender */\n      0xffffffffffffffffffffffffffffffffffffffff\n      and\n      eq\n        /* \"contracts/study-case-contracts/002-orcid/orcid.sol\":6873:6951  application.walletAddress == msg.sender || process.walletAddress == msg.sender */\n    tag_118:\n        /* \"contracts/study-case-contracts/002-orcid/orcid.sol\":6850:7034  require(... */\n      tag_119\n      jumpi\n      mload(0x40)\n      0x08c379a000000000000000000000000000000000000000000000000000000000\n      dup2\n      mstore\n      0x04\n      add\n      tag_120\n      swap1\n      tag_121\n      jump\t// in\n    tag_120:\n      mload(0x40)\n      dup1\n      swap2\n      sub\n      swap1\n      revert\n    tag_119:\n        /* \"contracts/study-case-contracts/002-orcid/orcid.sol\":5977:5988  application */\n      0x01\n        /* \"contracts/study-case-contracts/002-orcid/orcid.sol\":5977:6002  application.walletAddress */\n      dup1\n      add\n      0x00\n      swap1\n      sload\n      swap1\n      0x0100\n      exp\n      swap1\n      div\n      0xffffffffffffffffffffffffffffffffffffffff\n      and\n        /* \"contracts/study-case-contracts/002-orcid/orcid.sol\":5970:6002  return application.walletAddress */\n      swap1\n      pop\n        /* \"contracts/study-case-contracts/002-orcid/orcid.sol\":5878:6010  function getApplicationAddress() public view onlyInvolvedParties returns(address){... */\n      swap1\n      jump\t// out\n        /* \"contracts/study-case-contracts/002-orcid/orcid.sol\":5742:5866  function getProcessAddress() public view onlyInvolvedParties returns(address){... */\n    tag_31:\n        /* \"contracts/study-case-contracts/002-orcid/orcid.sol\":5811:5818  address */\n      0x00\n        /* \"contracts/study-case-contracts/002-orcid/orcid.sol\":6797:6806  activated */\n      dup1\n      0x00\n      swap1\n      sload\n      swap1\n      0x0100\n      exp\n      swap1\n      div\n      0xff\n      and\n        /* \"contracts/study-case-contracts/002-orcid/orcid.sol\":6789:6839  require(activated, \"This contract is deactivated\") */\n      tag_124\n      jumpi\n      mload(0x40)\n      0x08c379a000000000000000000000000000000000000000000000000000000000\n      dup2\n      mstore\n      0x04\n      add\n      tag_125\n      swap1\n      tag_49\n      jump\t// in\n    tag_125:\n      mload(0x40)\n      dup1\n      swap2\n      sub\n      swap1\n      revert\n    tag_124:\n        /* \"contracts/study-case-contracts/002-orcid/orcid.sol\":6902:6912  msg.sender */\n      caller\n        /* \"contracts/study-case-contracts/002-orcid/orcid.sol\":6873:6912  application.walletAddress == msg.sender */\n      0xffffffffffffffffffffffffffffffffffffffff\n      and\n        /* \"contracts/study-case-contracts/002-orcid/orcid.sol\":6873:6884  application */\n      0x01\n        /* \"contracts/study-case-contracts/002-orcid/orcid.sol\":6873:6898  application.walletAddress */\n      dup1\n      add\n      0x00\n      swap1\n      sload\n      swap1\n      0x0100\n      exp\n      swap1\n      div\n      0xffffffffffffffffffffffffffffffffffffffff\n      and\n        /* \"contracts/study-case-contracts/002-orcid/orcid.sol\":6873:6912  application.walletAddress == msg.sender */\n      0xffffffffffffffffffffffffffffffffffffffff\n      and\n      eq\n        /* \"contracts/study-case-contracts/002-orcid/orcid.sol\":6873:6951  application.walletAddress == msg.sender || process.walletAddress == msg.sender */\n      dup1\n      tag_126\n      jumpi\n      pop\n        /* \"contracts/study-case-contracts/002-orcid/orcid.sol\":6941:6951  msg.sender */\n      caller\n        /* \"contracts/study-case-contracts/002-orcid/orcid.sol\":6916:6951  process.walletAddress == msg.sender */\n      0xffffffffffffffffffffffffffffffffffffffff\n      and\n        /* \"contracts/study-case-contracts/002-orcid/orcid.sol\":6916:6923  process */\n      0x03\n        /* \"contracts/study-case-contracts/002-orcid/orcid.sol\":6916:6937  process.walletAddress */\n      0x01\n      add\n      0x00\n      swap1\n      sload\n      swap1\n      0x0100\n      exp\n      swap1\n      div\n      0xffffffffffffffffffffffffffffffffffffffff\n      and\n        /* \"contracts/study-case-contracts/002-orcid/orcid.sol\":6916:6951  process.walletAddress == msg.sender */\n      0xffffffffffffffffffffffffffffffffffffffff\n      and\n      eq\n        /* \"contracts/study-case-contracts/002-orcid/orcid.sol\":6873:6951  application.walletAddress == msg.sender || process.walletAddress == msg.sender */\n    tag_126:\n        /* \"contracts/study-case-contracts/002-orcid/orcid.sol\":6850:7034  require(... */\n      tag_127\n      jumpi\n      mload(0x40)\n      0x08c379a000000000000000000000000000000000000000000000000000000000\n      dup2\n      mstore\n      0x04\n      add\n      tag_128\n      swap1\n      tag_121\n      jump\t// in\n    tag_128:\n      mload(0x40)\n      dup1\n      swap2\n      sub\n      swap1\n      revert\n    tag_127:\n        /* \"contracts/study-case-contracts/002-orcid/orcid.sol\":5837:5844  process */\n      0x03\n        /* \"contracts/study-case-contracts/002-orcid/orcid.sol\":5837:5858  process.walletAddress */\n      0x01\n      add\n      0x00\n      swap1\n      sload\n      swap1\n      0x0100\n      exp\n      swap1\n      div\n      0xffffffffffffffffffffffffffffffffffffffff\n      and\n        /* \"contracts/study-case-contracts/002-orcid/orcid.sol\":5830:5858  return process.walletAddress */\n      swap1\n      pop\n        /* \"contracts/study-case-contracts/002-orcid/orcid.sol\":5742:5866  function getProcessAddress() public view onlyInvolvedParties returns(address){... */\n      swap1\n      jump\t// out\n        /* \"contracts/study-case-contracts/002-orcid/orcid.sol\":4699:4961  function signContract() public onlyApplication() returns(bool) {... */\n    tag_34:\n        /* \"contracts/study-case-contracts/002-orcid/orcid.sol\":4756:4760  bool */\n      0x00\n        /* \"contracts/study-case-contracts/002-orcid/orcid.sol\":6327:6336  activated */\n      dup1\n      0x00\n      swap1\n      sload\n      swap1\n      0x0100\n      exp\n      swap1\n      div\n      0xff\n      and\n        /* \"contracts/study-case-contracts/002-orcid/orcid.sol\":6319:6369  require(activated, \"This contract is deactivated\") */\n      tag_131\n      jumpi\n      mload(0x40)\n      0x08c379a000000000000000000000000000000000000000000000000000000000\n      dup2\n      mstore\n      0x04\n      add\n      tag_132\n      swap1\n      tag_49\n      jump\t// in\n    tag_132:\n      mload(0x40)\n      dup1\n      swap2\n      sub\n      swap1\n      revert\n    tag_131:\n        /* \"contracts/study-case-contracts/002-orcid/orcid.sol\":6433:6443  msg.sender */\n      caller\n        /* \"contracts/study-case-contracts/002-orcid/orcid.sol\":6404:6443  application.walletAddress == msg.sender */\n      0xffffffffffffffffffffffffffffffffffffffff\n      and\n        /* \"contracts/study-case-contracts/002-orcid/orcid.sol\":6404:6415  application */\n      0x01\n        /* \"contracts/study-case-contracts/002-orcid/orcid.sol\":6404:6429  application.walletAddress */\n      dup1\n      add\n      0x00\n      swap1\n      sload\n      swap1\n      0x0100\n      exp\n      swap1\n      div\n      0xffffffffffffffffffffffffffffffffffffffff\n      and\n        /* \"contracts/study-case-contracts/002-orcid/orcid.sol\":6404:6443  application.walletAddress == msg.sender */\n      0xffffffffffffffffffffffffffffffffffffffff\n      and\n      eq\n        /* \"contracts/study-case-contracts/002-orcid/orcid.sol\":6396:6495  require(application.walletAddress == msg.sender, \"Only the application can execute this operation\") */\n      tag_133\n      jumpi\n      mload(0x40)\n      0x08c379a000000000000000000000000000000000000000000000000000000000\n      dup2\n      mstore\n      0x04\n      add\n      tag_134\n      swap1\n      tag_52\n      jump\t// in\n    tag_134:\n      mload(0x40)\n      dup1\n      swap2\n      sub\n      swap1\n      revert\n    tag_133:\n        /* \"contracts/study-case-contracts/002-orcid/orcid.sol\":4802:4807  false */\n      0x00\n        /* \"contracts/study-case-contracts/002-orcid/orcid.sol\":4781:4807  application.aware == false */\n      iszero\n      iszero\n        /* \"contracts/study-case-contracts/002-orcid/orcid.sol\":4781:4792  application */\n      0x01\n        /* \"contracts/study-case-contracts/002-orcid/orcid.sol\":4781:4798  application.aware */\n      dup1\n      add\n      0x14\n      swap1\n      sload\n      swap1\n      0x0100\n      exp\n      swap1\n      div\n      0xff\n      and\n        /* \"contracts/study-case-contracts/002-orcid/orcid.sol\":4781:4807  application.aware == false */\n      iszero\n      iszero\n      eq\n        /* \"contracts/study-case-contracts/002-orcid/orcid.sol\":4773:4842  require(application.aware == false, \"The contract is already signed\") */\n      tag_136\n      jumpi\n      mload(0x40)\n      0x08c379a000000000000000000000000000000000000000000000000000000000\n      dup2\n      mstore\n      0x04\n      add\n      tag_137\n      swap1\n      tag_138\n      jump\t// in\n    tag_137:\n      mload(0x40)\n      dup1\n      swap2\n      sub\n      swap1\n      revert\n    tag_136:\n        /* \"contracts/study-case-contracts/002-orcid/orcid.sol\":4881:4885  true */\n      0x01\n        /* \"contracts/study-case-contracts/002-orcid/orcid.sol\":4861:4872  application */\n      dup1\n        /* \"contracts/study-case-contracts/002-orcid/orcid.sol\":4861:4878  application.aware */\n      0x01\n      add\n      0x14\n        /* \"contracts/study-case-contracts/002-orcid/orcid.sol\":4861:4885  application.aware = true */\n      0x0100\n      exp\n      dup2\n      sload\n      dup2\n      0xff\n      mul\n      not\n      and\n      swap1\n      dup4\n      iszero\n      iszero\n      mul\n      or\n      swap1\n      sstore\n      pop\n        /* \"contracts/study-case-contracts/002-orcid/orcid.sol\":4898:4937  updateMapParty(msg.sender, application) */\n      tag_139\n        /* \"contracts/study-case-contracts/002-orcid/orcid.sol\":4913:4923  msg.sender */\n      caller\n        /* \"contracts/study-case-contracts/002-orcid/orcid.sol\":4925:4936  application */\n      0x01\n        /* \"contracts/study-case-contracts/002-orcid/orcid.sol\":4898:4912  updateMapParty */\n      tag_114\n        /* \"contracts/study-case-contracts/002-orcid/orcid.sol\":4898:4937  updateMapParty(msg.sender, application) */\n      jump\t// in\n    tag_139:\n      pop\n        /* \"contracts/study-case-contracts/002-orcid/orcid.sol\":4949:4953  true */\n      0x01\n        /* \"contracts/study-case-contracts/002-orcid/orcid.sol\":4942:4953  return true */\n      swap1\n      pop\n        /* \"contracts/study-case-contracts/002-orcid/orcid.sol\":4699:4961  function signContract() public onlyApplication() returns(bool) {... */\n      swap1\n      jump\t// out\n        /* \"contracts/study-case-contracts/002-orcid/orcid.sol\":6018:6167  function getParty(address _walletAddress) public view onlyInvolvedParties returns(EAI.Party memory){... */\n    tag_39:\n        /* \"contracts/study-case-contracts/002-orcid/orcid.sol\":6100:6116  EAI.Party memory */\n      tag_140\n      tag_141\n      jump\t// in\n    tag_140:\n        /* \"contracts/study-case-contracts/002-orcid/orcid.sol\":6797:6806  activated */\n      0x00\n      dup1\n      sload\n      swap1\n      0x0100\n      exp\n      swap1\n      div\n      0xff\n      and\n        /* \"contracts/study-case-contracts/002-orcid/orcid.sol\":6789:6839  require(activated, \"This contract is deactivated\") */\n      tag_143\n      jumpi\n      mload(0x40)\n      0x08c379a000000000000000000000000000000000000000000000000000000000\n      dup2\n      mstore\n      0x04\n      add\n      tag_144\n      swap1\n      tag_49\n      jump\t// in\n    tag_144:\n      mload(0x40)\n      dup1\n      swap2\n      sub\n      swap1\n      revert\n    tag_143:\n        /* \"contracts/study-case-contracts/002-orcid/orcid.sol\":6902:6912  msg.sender */\n      caller\n        /* \"contracts/study-case-contracts/002-orcid/orcid.sol\":6873:6912  application.walletAddress == msg.sender */\n      0xffffffffffffffffffffffffffffffffffffffff\n      and\n        /* \"contracts/study-case-contracts/002-orcid/orcid.sol\":6873:6884  application */\n      0x01\n        /* \"contracts/study-case-contracts/002-orcid/orcid.sol\":6873:6898  application.walletAddress */\n      dup1\n      add\n      0x00\n      swap1\n      sload\n      swap1\n      0x0100\n      exp\n      swap1\n      div\n      0xffffffffffffffffffffffffffffffffffffffff\n      and\n        /* \"contracts/study-case-contracts/002-orcid/orcid.sol\":6873:6912  application.walletAddress == msg.sender */\n      0xffffffffffffffffffffffffffffffffffffffff\n      and\n      eq\n        /* \"contracts/study-case-contracts/002-orcid/orcid.sol\":6873:6951  application.walletAddress == msg.sender || process.walletAddress == msg.sender */\n      dup1\n      tag_145\n      jumpi\n      pop\n        /* \"contracts/study-case-contracts/002-orcid/orcid.sol\":6941:6951  msg.sender */\n      caller\n        /* \"contracts/study-case-contracts/002-orcid/orcid.sol\":6916:6951  process.walletAddress == msg.sender */\n      0xffffffffffffffffffffffffffffffffffffffff\n      and\n        /* \"contracts/study-case-contracts/002-orcid/orcid.sol\":6916:6923  process */\n      0x03\n        /* \"contracts/study-case-contracts/002-orcid/orcid.sol\":6916:6937  process.walletAddress */\n      0x01\n      add\n      0x00\n      swap1\n      sload\n      swap1\n      0x0100\n      exp\n      swap1\n      div\n      0xffffffffffffffffffffffffffffffffffffffff\n      and\n        /* \"contracts/study-case-contracts/002-orcid/orcid.sol\":6916:6951  process.walletAddress == msg.sender */\n      0xffffffffffffffffffffffffffffffffffffffff\n      and\n      eq\n        /* \"contracts/study-case-contracts/002-orcid/orcid.sol\":6873:6951  application.walletAddress == msg.sender || process.walletAddress == msg.sender */\n    tag_145:\n        /* \"contracts/study-case-contracts/002-orcid/orcid.sol\":6850:7034  require(... */\n      tag_146\n      jumpi\n      mload(0x40)\n      0x08c379a000000000000000000000000000000000000000000000000000000000\n      dup2\n      mstore\n      0x04\n      add\n      tag_147\n      swap1\n      tag_121\n      jump\t// in\n    tag_147:\n      mload(0x40)\n      dup1\n      swap2\n      sub\n      swap1\n      revert\n    tag_146:\n        /* \"contracts/study-case-contracts/002-orcid/orcid.sol\":6135:6143  mapParty */\n      0x05\n        /* \"contracts/study-case-contracts/002-orcid/orcid.sol\":6135:6159  mapParty[_walletAddress] */\n      0x00\n        /* \"contracts/study-case-contracts/002-orcid/orcid.sol\":6144:6158  _walletAddress */\n      dup4\n        /* \"contracts/study-case-contracts/002-orcid/orcid.sol\":6135:6159  mapParty[_walletAddress] */\n      0xffffffffffffffffffffffffffffffffffffffff\n      and\n      0xffffffffffffffffffffffffffffffffffffffff\n      and\n      dup2\n      mstore\n      0x20\n      add\n      swap1\n      dup2\n      mstore\n      0x20\n      add\n      0x00\n      keccak256\n        /* \"contracts/study-case-contracts/002-orcid/orcid.sol\":6128:6159  return mapParty[_walletAddress] */\n      mload(0x40)\n      dup1\n      0x60\n      add\n      0x40\n      mstore\n      swap1\n      dup2\n      0x00\n      dup3\n      add\n      dup1\n      sload\n      tag_149\n      swap1\n      tag_150\n      jump\t// in\n    tag_149:\n      dup1\n      0x1f\n      add\n      0x20\n      dup1\n      swap2\n      div\n      mul\n      0x20\n      add\n      mload(0x40)\n      swap1\n      dup2\n      add\n      0x40\n      mstore\n      dup1\n      swap3\n      swap2\n      swap1\n      dup2\n      dup2\n      mstore\n      0x20\n      add\n      dup3\n      dup1\n      sload\n      tag_151\n      swap1\n      tag_150\n      jump\t// in\n    tag_151:\n      dup1\n      iszero\n      tag_152\n      jumpi\n      dup1\n      0x1f\n      lt\n      tag_153\n      jumpi\n      0x0100\n      dup1\n      dup4\n      sload\n      div\n      mul\n      dup4\n      mstore\n      swap2\n      0x20\n      add\n      swap2\n      jump(tag_152)\n    tag_153:\n      dup3\n      add\n      swap2\n      swap1\n      0x00\n      mstore\n      keccak256(0x00, 0x20)\n      swap1\n    tag_154:\n      dup2\n      sload\n      dup2\n      mstore\n      swap1\n      0x01\n      add\n      swap1\n      0x20\n      add\n      dup1\n      dup4\n      gt\n      tag_154\n      jumpi\n      dup3\n      swap1\n      sub\n      0x1f\n      and\n      dup3\n      add\n      swap2\n    tag_152:\n      pop\n      pop\n      pop\n      pop\n      pop\n      dup2\n      mstore\n      0x20\n      add\n      0x01\n      dup3\n      add\n      0x00\n      swap1\n      sload\n      swap1\n      0x0100\n      exp\n      swap1\n      div\n      0xffffffffffffffffffffffffffffffffffffffff\n      and\n      0xffffffffffffffffffffffffffffffffffffffff\n      and\n      0xffffffffffffffffffffffffffffffffffffffff\n      and\n      dup2\n      mstore\n      0x20\n      add\n      0x01\n      dup3\n      add\n      0x14\n      swap1\n      sload\n      swap1\n      0x0100\n      exp\n      swap1\n      div\n      0xff\n      and\n      iszero\n      iszero\n      iszero\n      iszero\n      dup2\n      mstore\n      pop\n      pop\n      swap1\n      pop\n        /* \"contracts/study-case-contracts/002-orcid/orcid.sol\":6018:6167  function getParty(address _walletAddress) public view onlyInvolvedParties returns(EAI.Party memory){... */\n      swap2\n      swap1\n      pop\n      jump\t// out\n        /* \"contracts/lib/eai/EAI.sol\":1676:1852  function createParty(string memory _name, address _walletAddress, bool _aware) internal pure returns(Party memory){... */\n    tag_42:\n        /* \"contracts/lib/eai/EAI.sol\":1777:1789  Party memory */\n      tag_155\n      tag_141\n      jump\t// in\n    tag_155:\n        /* \"contracts/lib/eai/EAI.sol\":1808:1844  Party(_name, _walletAddress, _aware) */\n      mload(0x40)\n      dup1\n      0x60\n      add\n      0x40\n      mstore\n      dup1\n        /* \"contracts/lib/eai/EAI.sol\":1814:1819  _name */\n      dup6\n        /* \"contracts/lib/eai/EAI.sol\":1808:1844  Party(_name, _walletAddress, _aware) */\n      dup2\n      mstore\n      0x20\n      add\n        /* \"contracts/lib/eai/EAI.sol\":1821:1835  _walletAddress */\n      dup5\n        /* \"contracts/lib/eai/EAI.sol\":1808:1844  Party(_name, _walletAddress, _aware) */\n      0xffffffffffffffffffffffffffffffffffffffff\n      and\n      dup2\n      mstore\n      0x20\n      add\n        /* \"contracts/lib/eai/EAI.sol\":1837:1843  _aware */\n      dup4\n        /* \"contracts/lib/eai/EAI.sol\":1808:1844  Party(_name, _walletAddress, _aware) */\n      iszero\n      iszero\n      dup2\n      mstore\n      pop\n        /* \"contracts/lib/eai/EAI.sol\":1801:1844  return Party(_name, _walletAddress, _aware) */\n      swap1\n      pop\n        /* \"contracts/lib/eai/EAI.sol\":1676:1852  function createParty(string memory _name, address _walletAddress, bool _aware) internal pure returns(Party memory){... */\n      swap4\n      swap3\n      pop\n      pop\n      pop\n      jump\t// out\n        /* \"contracts/lib/eai/EAI.sol\":11005:11636  function createMaxNumberOfOperationByTime(... */\n    tag_43:\n        /* \"contracts/lib/eai/EAI.sol\":11130:11163  MaxNumberOfOperationByTime memory */\n      tag_157\n      tag_158\n      jump\t// in\n    tag_157:\n        /* \"contracts/lib/eai/EAI.sol\":11177:11193  uint32 auxByTime */\n      0x00\n        /* \"contracts/lib/eai/EAI.sol\":872:873  4 */\n      0x04\n        /* \"contracts/lib/eai/EAI.sol\":11209:11226  _timeUnit <= WEEK */\n      0xff\n      and\n        /* \"contracts/lib/eai/EAI.sol\":11209:11218  _timeUnit */\n      dup4\n        /* \"contracts/lib/eai/EAI.sol\":11209:11226  _timeUnit <= WEEK */\n      0xff\n      and\n      gt\n        /* \"contracts/lib/eai/EAI.sol\":11206:11542  if(_timeUnit <= WEEK){... */\n      tag_160\n      jumpi\n        /* \"contracts/lib/eai/EAI.sol\":11359:11386  getTimeInSeconds(_timeUnit) */\n      tag_161\n        /* \"contracts/lib/eai/EAI.sol\":11376:11385  _timeUnit */\n      dup4\n        /* \"contracts/lib/eai/EAI.sol\":11359:11375  getTimeInSeconds */\n      tag_162\n        /* \"contracts/lib/eai/EAI.sol\":11359:11386  getTimeInSeconds(_timeUnit) */\n      jump\t// in\n    tag_161:\n        /* \"contracts/lib/eai/EAI.sol\":11348:11386  auxByTime= getTimeInSeconds(_timeUnit) */\n      swap1\n      pop\n        /* \"contracts/lib/eai/EAI.sol\":11206:11542  if(_timeUnit <= WEEK){... */\n      jump(tag_163)\n    tag_160:\n        /* \"contracts/lib/eai/EAI.sol\":11528:11529  1 */\n      0x01\n        /* \"contracts/lib/eai/EAI.sol\":11516:11529  auxByTime = 1 */\n      swap1\n      pop\n        /* \"contracts/lib/eai/EAI.sol\":11206:11542  if(_timeUnit <= WEEK){... */\n    tag_163:\n        /* \"contracts/lib/eai/EAI.sol\":11559:11628  MaxNumberOfOperationByTime(_amount, _timeUnit, auxByTime, _amount, 0) */\n      mload(0x40)\n      dup1\n      0xa0\n      add\n      0x40\n      mstore\n      dup1\n        /* \"contracts/lib/eai/EAI.sol\":11586:11593  _amount */\n      dup6\n        /* \"contracts/lib/eai/EAI.sol\":11559:11628  MaxNumberOfOperationByTime(_amount, _timeUnit, auxByTime, _amount, 0) */\n      0xffffffff\n      and\n      dup2\n      mstore\n      0x20\n      add\n        /* \"contracts/lib/eai/EAI.sol\":11595:11604  _timeUnit */\n      dup5\n        /* \"contracts/lib/eai/EAI.sol\":11559:11628  MaxNumberOfOperationByTime(_amount, _timeUnit, auxByTime, _amount, 0) */\n      0xff\n      and\n      dup2\n      mstore\n      0x20\n      add\n        /* \"contracts/lib/eai/EAI.sol\":11606:11615  auxByTime */\n      dup3\n        /* \"contracts/lib/eai/EAI.sol\":11559:11628  MaxNumberOfOperationByTime(_amount, _timeUnit, auxByTime, _amount, 0) */\n      0xffffffff\n      and\n      dup2\n      mstore\n      0x20\n      add\n        /* \"contracts/lib/eai/EAI.sol\":11617:11624  _amount */\n      dup6\n        /* \"contracts/lib/eai/EAI.sol\":11559:11628  MaxNumberOfOperationByTime(_amount, _timeUnit, auxByTime, _amount, 0) */\n      0xffffffff\n      and\n      dup2\n      mstore\n      0x20\n      add\n        /* \"contracts/lib/eai/EAI.sol\":11626:11627  0 */\n      0x00\n        /* \"contracts/lib/eai/EAI.sol\":11559:11628  MaxNumberOfOperationByTime(_amount, _timeUnit, auxByTime, _amount, 0) */\n      0xffffffff\n      and\n      dup2\n      mstore\n      pop\n        /* \"contracts/lib/eai/EAI.sol\":11552:11628  return MaxNumberOfOperationByTime(_amount, _timeUnit, auxByTime, _amount, 0) */\n      swap2\n      pop\n      pop\n        /* \"contracts/lib/eai/EAI.sol\":11005:11636  function createMaxNumberOfOperationByTime(... */\n      swap3\n      swap2\n      pop\n      pop\n      jump\t// out\n        /* \"contracts/lib/eai/EAI.sol\":13752:13950  function createMessageContent_onlyXPath_Boolean(string memory _xpath) internal pure returns(MessageContent_onlyXPath_Boolean memory){... */\n    tag_44:\n        /* \"contracts/lib/eai/EAI.sol\":13844:13883  MessageContent_onlyXPath_Boolean memory */\n      tag_164\n      tag_165\n      jump\t// in\n    tag_164:\n        /* \"contracts/lib/eai/EAI.sol\":13902:13942  MessageContent_onlyXPath_Boolean(_xpath) */\n      mload(0x40)\n      dup1\n      0x20\n      add\n      0x40\n      mstore\n      dup1\n        /* \"contracts/lib/eai/EAI.sol\":13935:13941  _xpath */\n      dup4\n        /* \"contracts/lib/eai/EAI.sol\":13902:13942  MessageContent_onlyXPath_Boolean(_xpath) */\n      dup2\n      mstore\n      pop\n        /* \"contracts/lib/eai/EAI.sol\":13895:13942  return MessageContent_onlyXPath_Boolean(_xpath) */\n      swap1\n      pop\n        /* \"contracts/lib/eai/EAI.sol\":13752:13950  function createMessageContent_onlyXPath_Boolean(string memory _xpath) internal pure returns(MessageContent_onlyXPath_Boolean memory){... */\n      swap2\n      swap1\n      pop\n      jump\t// out\n        /* \"contracts/lib/eai/EAI.sol\":8421:8558  function createTimeout(uint32 _timeIncrement) internal pure returns (Timeout memory ){... */\n    tag_45:\n        /* \"contracts/lib/eai/EAI.sol\":8490:8504  Timeout memory */\n      tag_167\n      tag_168\n      jump\t// in\n    tag_167:\n        /* \"contracts/lib/eai/EAI.sol\":8524:8550  Timeout(0, _timeIncrement) */\n      mload(0x40)\n      dup1\n      0x40\n      add\n      0x40\n      mstore\n      dup1\n        /* \"contracts/lib/eai/EAI.sol\":8532:8533  0 */\n      0x00\n        /* \"contracts/lib/eai/EAI.sol\":8524:8550  Timeout(0, _timeIncrement) */\n      0xffffffff\n      and\n      dup2\n      mstore\n      0x20\n      add\n        /* \"contracts/lib/eai/EAI.sol\":8535:8549  _timeIncrement */\n      dup4\n        /* \"contracts/lib/eai/EAI.sol\":8524:8550  Timeout(0, _timeIncrement) */\n      0xffffffff\n      and\n      dup2\n      mstore\n      pop\n        /* \"contracts/lib/eai/EAI.sol\":8517:8550  return Timeout(0, _timeIncrement) */\n      swap1\n      pop\n        /* \"contracts/lib/eai/EAI.sol\":8421:8558  function createTimeout(uint32 _timeIncrement) internal pure returns (Timeout memory ){... */\n      swap2\n      swap1\n      pop\n      jump\t// out\n        /* \"contracts/lib/eai/EAI.sol\":8570:8841  function isTimeoutEnded(Timeout memory _timeout, uint32 _accessTime) internal pure onlyValidAccessTime(_accessTime) returns(bool){        ... */\n    tag_59:\n        /* \"contracts/lib/eai/EAI.sol\":8694:8698  bool */\n      0x00\n        /* \"contracts/lib/eai/EAI.sol\":8673:8684  _accessTime */\n      dup2\n        /* \"contracts/lib/eai/EAI.sol\":9312:9333  string memory strTime */\n      0x00\n        /* \"contracts/lib/eai/EAI.sol\":9337:9355  uint2String(_time) */\n      tag_171\n        /* \"contracts/lib/eai/EAI.sol\":9349:9354  _time */\n      dup3\n        /* \"contracts/lib/eai/EAI.sol\":9337:9355  uint2String(_time) */\n      0xffffffff\n      and\n        /* \"contracts/lib/eai/EAI.sol\":9337:9348  uint2String */\n      tag_172\n        /* \"contracts/lib/eai/EAI.sol\":9337:9355  uint2String(_time) */\n      jump\t// in\n    tag_171:\n        /* \"contracts/lib/eai/EAI.sol\":9312:9355  string memory strTime  = uint2String(_time) */\n      swap1\n      pop\n        /* \"contracts/lib/eai/EAI.sol\":9399:9401  10 */\n      0x0a\n        /* \"contracts/lib/eai/EAI.sol\":9380:9387  strTime */\n      dup2\n        /* \"contracts/lib/eai/EAI.sol\":9374:9395  bytes(strTime).length */\n      mload\n        /* \"contracts/lib/eai/EAI.sol\":9374:9401  bytes(strTime).length <= 10 */\n      gt\n      iszero\n        /* \"contracts/lib/eai/EAI.sol\":9366:9402  require(bytes(strTime).length <= 10) */\n      tag_173\n      jumpi\n      0x00\n      dup1\n      revert\n    tag_173:\n        /* \"contracts/lib/eai/EAI.sol\":8745:8746  0 */\n      0x00\n        /* \"contracts/lib/eai/EAI.sol\":8726:8734  _timeout */\n      dup6\n        /* \"contracts/lib/eai/EAI.sol\":8726:8742  _timeout.endTime */\n      0x00\n      add\n      mload\n        /* \"contracts/lib/eai/EAI.sol\":8726:8746  _timeout.endTime > 0 */\n      0xffffffff\n      and\n      gt\n        /* \"contracts/lib/eai/EAI.sol\":8718:8785  require(_timeout.endTime > 0, \"There is no endTime set in timeout\") */\n      tag_175\n      jumpi\n      mload(0x40)\n      0x08c379a000000000000000000000000000000000000000000000000000000000\n      dup2\n      mstore\n      0x04\n      add\n      tag_176\n      swap1\n      tag_177\n      jump\t// in\n    tag_176:\n      mload(0x40)\n      dup1\n      swap2\n      sub\n      swap1\n      revert\n    tag_175:\n        /* \"contracts/lib/eai/EAI.sol\":8817:8825  _timeout */\n      dup5\n        /* \"contracts/lib/eai/EAI.sol\":8817:8833  _timeout.endTime */\n      0x00\n      add\n      mload\n        /* \"contracts/lib/eai/EAI.sol\":8803:8833  _accessTime > _timeout.endTime */\n      0xffffffff\n      and\n        /* \"contracts/lib/eai/EAI.sol\":8803:8814  _accessTime */\n      dup5\n        /* \"contracts/lib/eai/EAI.sol\":8803:8833  _accessTime > _timeout.endTime */\n      0xffffffff\n      and\n      gt\n        /* \"contracts/lib/eai/EAI.sol\":8796:8833  return _accessTime > _timeout.endTime */\n      swap3\n      pop\n        /* \"contracts/lib/eai/EAI.sol\":9301:9446  {... */\n      pop\n        /* \"contracts/lib/eai/EAI.sol\":8570:8841  function isTimeoutEnded(Timeout memory _timeout, uint32 _accessTime) internal pure onlyValidAccessTime(_accessTime) returns(bool){        ... */\n      pop\n      swap3\n      swap2\n      pop\n      pop\n      jump\t// out\n        /* \"contracts/lib/eai/EAI.sol\":12421:12787  function decreaseOneOperation_ByTime(MaxNumberOfOperationByTime storage _maxNumberOfOperationByTime,  uint32 _accessDateTime) internal  returns(bool){... */\n    tag_68:\n        /* \"contracts/lib/eai/EAI.sol\":12565:12569  bool */\n      0x00\n        /* \"contracts/lib/eai/EAI.sol\":12584:12659  hasAvailableOperations_ByTime(_maxNumberOfOperationByTime, _accessDateTime) */\n      tag_179\n        /* \"contracts/lib/eai/EAI.sol\":12614:12641  _maxNumberOfOperationByTime */\n      dup4\n        /* \"contracts/lib/eai/EAI.sol\":12643:12658  _accessDateTime */\n      dup4\n        /* \"contracts/lib/eai/EAI.sol\":12584:12613  hasAvailableOperations_ByTime */\n      tag_85\n        /* \"contracts/lib/eai/EAI.sol\":12584:12659  hasAvailableOperations_ByTime(_maxNumberOfOperationByTime, _accessDateTime) */\n      jump\t// in\n    tag_179:\n        /* \"contracts/lib/eai/EAI.sol\":12581:12749  if(hasAvailableOperations_ByTime(_maxNumberOfOperationByTime, _accessDateTime)){... */\n      iszero\n      tag_180\n      jumpi\n        /* \"contracts/lib/eai/EAI.sol\":12710:12711  1 */\n      0x01\n        /* \"contracts/lib/eai/EAI.sol\":12675:12702  _maxNumberOfOperationByTime */\n      dup4\n        /* \"contracts/lib/eai/EAI.sol\":12675:12707  _maxNumberOfOperationByTime.rest */\n      0x00\n      add\n      0x09\n        /* \"contracts/lib/eai/EAI.sol\":12675:12711  _maxNumberOfOperationByTime.rest -=1 */\n      dup3\n      dup3\n      dup3\n      swap1\n      sload\n      swap1\n      0x0100\n      exp\n      swap1\n      div\n      0xffffffff\n      and\n      tag_181\n      swap2\n      swap1\n      tag_182\n      jump\t// in\n    tag_181:\n      swap3\n      pop\n      0x0100\n      exp\n      dup2\n      sload\n      dup2\n      0xffffffff\n      mul\n      not\n      and\n      swap1\n      dup4\n      0xffffffff\n      and\n      mul\n      or\n      swap1\n      sstore\n      pop\n        /* \"contracts/lib/eai/EAI.sol\":12733:12737  true */\n      0x01\n        /* \"contracts/lib/eai/EAI.sol\":12726:12737  return true */\n      swap1\n      pop\n      jump(tag_178)\n        /* \"contracts/lib/eai/EAI.sol\":12581:12749  if(hasAvailableOperations_ByTime(_maxNumberOfOperationByTime, _accessDateTime)){... */\n    tag_180:\n        /* \"contracts/lib/eai/EAI.sol\":12774:12779  false */\n      0x00\n        /* \"contracts/lib/eai/EAI.sol\":12767:12779  return false */\n      swap1\n      pop\n        /* \"contracts/lib/eai/EAI.sol\":12421:12787  function decreaseOneOperation_ByTime(MaxNumberOfOperationByTime storage _maxNumberOfOperationByTime,  uint32 _accessDateTime) internal  returns(bool){... */\n    tag_178:\n      swap3\n      swap2\n      pop\n      pop\n      jump\t// out\n        /* \"contracts/lib/eai/EAI.sol\":11655:12239  function hasAvailableOperations_ByTime(... */\n    tag_85:\n        /* \"contracts/lib/eai/EAI.sol\":11828:11832  bool */\n      0x00\n        /* \"contracts/lib/eai/EAI.sol\":11857:11981  isAccessDatetimeOutOfOldInterval(_maxNumberOfOperationByTime.timeUnit, _maxNumberOfOperationByTime.endTime, _accessDateTime) */\n      tag_184\n        /* \"contracts/lib/eai/EAI.sol\":11890:11917  _maxNumberOfOperationByTime */\n      dup4\n        /* \"contracts/lib/eai/EAI.sol\":11890:11926  _maxNumberOfOperationByTime.timeUnit */\n      0x00\n      add\n      0x04\n      swap1\n      sload\n      swap1\n      0x0100\n      exp\n      swap1\n      div\n      0xff\n      and\n        /* \"contracts/lib/eai/EAI.sol\":11928:11955  _maxNumberOfOperationByTime */\n      dup5\n        /* \"contracts/lib/eai/EAI.sol\":11928:11963  _maxNumberOfOperationByTime.endTime */\n      0x00\n      add\n      0x0d\n      swap1\n      sload\n      swap1\n      0x0100\n      exp\n      swap1\n      div\n      0xffffffff\n      and\n        /* \"contracts/lib/eai/EAI.sol\":11965:11980  _accessDateTime */\n      dup5\n        /* \"contracts/lib/eai/EAI.sol\":11857:11889  isAccessDatetimeOutOfOldInterval */\n      tag_185\n        /* \"contracts/lib/eai/EAI.sol\":11857:11981  isAccessDatetimeOutOfOldInterval(_maxNumberOfOperationByTime.timeUnit, _maxNumberOfOperationByTime.endTime, _accessDateTime) */\n      jump\t// in\n    tag_184:\n        /* \"contracts/lib/eai/EAI.sol\":11854:12091  if(isAccessDatetimeOutOfOldInterval(_maxNumberOfOperationByTime.timeUnit, _maxNumberOfOperationByTime.endTime, _accessDateTime)){... */\n      iszero\n      tag_186\n      jumpi\n        /* \"contracts/lib/eai/EAI.sol\":12001:12079  setNewEndTimeAndRestOfOperations(_maxNumberOfOperationByTime, _accessDateTime) */\n      tag_187\n        /* \"contracts/lib/eai/EAI.sol\":12034:12061  _maxNumberOfOperationByTime */\n      dup4\n        /* \"contracts/lib/eai/EAI.sol\":12063:12078  _accessDateTime */\n      dup4\n        /* \"contracts/lib/eai/EAI.sol\":12001:12033  setNewEndTimeAndRestOfOperations */\n      tag_188\n        /* \"contracts/lib/eai/EAI.sol\":12001:12079  setNewEndTimeAndRestOfOperations(_maxNumberOfOperationByTime, _accessDateTime) */\n      jump\t// in\n    tag_187:\n        /* \"contracts/lib/eai/EAI.sol\":11854:12091  if(isAccessDatetimeOutOfOldInterval(_maxNumberOfOperationByTime.timeUnit, _maxNumberOfOperationByTime.endTime, _accessDateTime)){... */\n    tag_186:\n        /* \"contracts/lib/eai/EAI.sol\":12159:12160  0 */\n      0x00\n        /* \"contracts/lib/eai/EAI.sol\":12124:12151  _maxNumberOfOperationByTime */\n      dup4\n        /* \"contracts/lib/eai/EAI.sol\":12124:12156  _maxNumberOfOperationByTime.rest */\n      0x00\n      add\n      0x09\n      swap1\n      sload\n      swap1\n      0x0100\n      exp\n      swap1\n      div\n      0xffffffff\n      and\n        /* \"contracts/lib/eai/EAI.sol\":12124:12160  _maxNumberOfOperationByTime.rest > 0 */\n      0xffffffff\n      and\n      gt\n        /* \"contracts/lib/eai/EAI.sol\":12121:12209  if(_maxNumberOfOperationByTime.rest > 0){          ... */\n      iszero\n      tag_189\n      jumpi\n        /* \"contracts/lib/eai/EAI.sol\":12193:12197  true */\n      0x01\n        /* \"contracts/lib/eai/EAI.sol\":12186:12197  return true */\n      swap1\n      pop\n      jump(tag_183)\n        /* \"contracts/lib/eai/EAI.sol\":12121:12209  if(_maxNumberOfOperationByTime.rest > 0){          ... */\n    tag_189:\n        /* \"contracts/lib/eai/EAI.sol\":12226:12231  false */\n      0x00\n        /* \"contracts/lib/eai/EAI.sol\":12219:12231  return false */\n      swap1\n      pop\n        /* \"contracts/lib/eai/EAI.sol\":11655:12239  function hasAvailableOperations_ByTime(... */\n    tag_183:\n      swap3\n      swap2\n      pop\n      pop\n      jump\t// out\n        /* \"contracts/lib/eai/EAI.sol\":8983:9176  function setEndTimeInTimeout(Timeout storage _timeout, uint32 _startTime)internal onlyValidAccessTime(_startTime){      ... */\n    tag_101:\n        /* \"contracts/lib/eai/EAI.sol\":9085:9095  _startTime */\n      dup1\n        /* \"contracts/lib/eai/EAI.sol\":9312:9333  string memory strTime */\n      0x00\n        /* \"contracts/lib/eai/EAI.sol\":9337:9355  uint2String(_time) */\n      tag_191\n        /* \"contracts/lib/eai/EAI.sol\":9349:9354  _time */\n      dup3\n        /* \"contracts/lib/eai/EAI.sol\":9337:9355  uint2String(_time) */\n      0xffffffff\n      and\n        /* \"contracts/lib/eai/EAI.sol\":9337:9348  uint2String */\n      tag_172\n        /* \"contracts/lib/eai/EAI.sol\":9337:9355  uint2String(_time) */\n      jump\t// in\n    tag_191:\n        /* \"contracts/lib/eai/EAI.sol\":9312:9355  string memory strTime  = uint2String(_time) */\n      swap1\n      pop\n        /* \"contracts/lib/eai/EAI.sol\":9399:9401  10 */\n      0x0a\n        /* \"contracts/lib/eai/EAI.sol\":9380:9387  strTime */\n      dup2\n        /* \"contracts/lib/eai/EAI.sol\":9374:9395  bytes(strTime).length */\n      mload\n        /* \"contracts/lib/eai/EAI.sol\":9374:9401  bytes(strTime).length <= 10 */\n      gt\n      iszero\n        /* \"contracts/lib/eai/EAI.sol\":9366:9402  require(bytes(strTime).length <= 10) */\n      tag_192\n      jumpi\n      0x00\n      dup1\n      revert\n    tag_192:\n        /* \"contracts/lib/eai/EAI.sol\":9145:9153  _timeout */\n      dup4\n        /* \"contracts/lib/eai/EAI.sol\":9145:9167  _timeout.timeIncrement */\n      0x00\n      add\n      0x04\n      swap1\n      sload\n      swap1\n      0x0100\n      exp\n      swap1\n      div\n      0xffffffff\n      and\n        /* \"contracts/lib/eai/EAI.sol\":9132:9142  _startTime */\n      dup4\n        /* \"contracts/lib/eai/EAI.sol\":9132:9167  _startTime + _timeout.timeIncrement */\n      tag_194\n      swap2\n      swap1\n      tag_195\n      jump\t// in\n    tag_194:\n        /* \"contracts/lib/eai/EAI.sol\":9113:9121  _timeout */\n      dup5\n        /* \"contracts/lib/eai/EAI.sol\":9113:9129  _timeout.endTime */\n      0x00\n      add\n      0x00\n        /* \"contracts/lib/eai/EAI.sol\":9113:9167  _timeout.endTime = _startTime + _timeout.timeIncrement */\n      0x0100\n      exp\n      dup2\n      sload\n      dup2\n      0xffffffff\n      mul\n      not\n      and\n      swap1\n      dup4\n      0xffffffff\n      and\n      mul\n      or\n      swap1\n      sstore\n      pop\n        /* \"contracts/lib/eai/EAI.sol\":9301:9446  {... */\n      pop\n        /* \"contracts/lib/eai/EAI.sol\":8983:9176  function setEndTimeInTimeout(Timeout storage _timeout, uint32 _startTime)internal onlyValidAccessTime(_startTime){      ... */\n      pop\n      pop\n      pop\n      jump\t// out\n        /* \"contracts/study-case-contracts/002-orcid/orcid.sol\":4969:5139  function updateMapParty(address _walletAddress, EAI.Party storage _party)internal returns(bool){       ... */\n    tag_114:\n        /* \"contracts/study-case-contracts/002-orcid/orcid.sol\":5059:5063  bool */\n      0x00\n        /* \"contracts/study-case-contracts/002-orcid/orcid.sol\":5109:5115  _party */\n      dup2\n        /* \"contracts/study-case-contracts/002-orcid/orcid.sol\":5082:5090  mapParty */\n      0x05\n        /* \"contracts/study-case-contracts/002-orcid/orcid.sol\":5082:5106  mapParty[_walletAddress] */\n      0x00\n        /* \"contracts/study-case-contracts/002-orcid/orcid.sol\":5091:5105  _walletAddress */\n      dup6\n        /* \"contracts/study-case-contracts/002-orcid/orcid.sol\":5082:5106  mapParty[_walletAddress] */\n      0xffffffffffffffffffffffffffffffffffffffff\n      and\n      0xffffffffffffffffffffffffffffffffffffffff\n      and\n      dup2\n      mstore\n      0x20\n      add\n      swap1\n      dup2\n      mstore\n      0x20\n      add\n      0x00\n      keccak256\n        /* \"contracts/study-case-contracts/002-orcid/orcid.sol\":5082:5115  mapParty[_walletAddress] = _party */\n      0x00\n      dup3\n      add\n      dup2\n      0x00\n      add\n      swap1\n      dup1\n      sload\n      tag_197\n      swap1\n      tag_150\n      jump\t// in\n    tag_197:\n      tag_198\n      swap3\n      swap2\n      swap1\n      tag_199\n      jump\t// in\n    tag_198:\n      pop\n      0x01\n      dup3\n      add\n      0x00\n      swap1\n      sload\n      swap1\n      0x0100\n      exp\n      swap1\n      div\n      0xffffffffffffffffffffffffffffffffffffffff\n      and\n      dup2\n      0x01\n      add\n      exp(0x0100, 0x00)\n      dup2\n      sload\n      dup2\n      0xffffffffffffffffffffffffffffffffffffffff\n      mul\n      not\n      and\n      swap1\n      dup4\n      0xffffffffffffffffffffffffffffffffffffffff\n      and\n      mul\n      or\n      swap1\n      sstore\n      pop\n      0x01\n      dup3\n      add\n      0x14\n      swap1\n      sload\n      swap1\n      0x0100\n      exp\n      swap1\n      div\n      0xff\n      and\n      dup2\n      0x01\n      add\n      exp(0x0100, 0x14)\n      dup2\n      sload\n      dup2\n      0xff\n      mul\n      not\n      and\n      swap1\n      dup4\n      iszero\n      iszero\n      mul\n      or\n      swap1\n      sstore\n      pop\n      swap1\n      pop\n      pop\n        /* \"contracts/study-case-contracts/002-orcid/orcid.sol\":5127:5131  true */\n      0x01\n        /* \"contracts/study-case-contracts/002-orcid/orcid.sol\":5120:5131  return true */\n      swap1\n      pop\n        /* \"contracts/study-case-contracts/002-orcid/orcid.sol\":4969:5139  function updateMapParty(address _walletAddress, EAI.Party storage _party)internal returns(bool){       ... */\n      swap3\n      swap2\n      pop\n      pop\n      jump\t// out\n        /* \"contracts/lib/eai/EAI.sol\":27468:28017  function getTimeInSeconds(uint8 timeUnit) private pure returns(uint32){... */\n    tag_162:\n        /* \"contracts/lib/eai/EAI.sol\":27531:27537  uint32 */\n      0x00\n        /* \"contracts/lib/eai/EAI.sol\":872:873  4 */\n      0x04\n        /* \"contracts/lib/eai/EAI.sol\":27611:27627  timeUnit <= WEEK */\n      0xff\n      and\n        /* \"contracts/lib/eai/EAI.sol\":27611:27619  timeUnit */\n      dup3\n        /* \"contracts/lib/eai/EAI.sol\":27611:27627  timeUnit <= WEEK */\n      0xff\n      and\n      gt\n      iszero\n        /* \"contracts/lib/eai/EAI.sol\":27603:27691  require(timeUnit <= WEEK, \"The method getTimeInSeconds doesn't work for MONTH and YEAR\") */\n      tag_201\n      jumpi\n      mload(0x40)\n      0x08c379a000000000000000000000000000000000000000000000000000000000\n      dup2\n      mstore\n      0x04\n      add\n      tag_202\n      swap1\n      tag_203\n      jump\t// in\n    tag_202:\n      mload(0x40)\n      dup1\n      swap2\n      sub\n      swap1\n      revert\n    tag_201:\n        /* \"contracts/lib/eai/EAI.sol\":754:755  0 */\n      0x00\n        /* \"contracts/lib/eai/EAI.sol\":27707:27725  timeUnit == SECOND */\n      0xff\n      and\n        /* \"contracts/lib/eai/EAI.sol\":27707:27715  timeUnit */\n      dup3\n        /* \"contracts/lib/eai/EAI.sol\":27707:27725  timeUnit == SECOND */\n      0xff\n      and\n      eq\n        /* \"contracts/lib/eai/EAI.sol\":27704:28010  if(timeUnit == SECOND){... */\n      iszero\n      tag_204\n      jumpi\n        /* \"contracts/lib/eai/EAI.sol\":27748:27749  1 */\n      0x01\n        /* \"contracts/lib/eai/EAI.sol\":27741:27749  return 1 */\n      swap1\n      pop\n      jump(tag_200)\n        /* \"contracts/lib/eai/EAI.sol\":27704:28010  if(timeUnit == SECOND){... */\n    tag_204:\n        /* \"contracts/lib/eai/EAI.sol\":786:787  1 */\n      0x01\n        /* \"contracts/lib/eai/EAI.sol\":27769:27787  timeUnit == MINUTE */\n      0xff\n      and\n        /* \"contracts/lib/eai/EAI.sol\":27769:27777  timeUnit */\n      dup3\n        /* \"contracts/lib/eai/EAI.sol\":27769:27787  timeUnit == MINUTE */\n      0xff\n      and\n      eq\n        /* \"contracts/lib/eai/EAI.sol\":27766:28010  if(timeUnit == MINUTE){... */\n      iszero\n      tag_206\n      jumpi\n        /* \"contracts/lib/eai/EAI.sol\":27810:27812  60 */\n      0x3c\n        /* \"contracts/lib/eai/EAI.sol\":27803:27812  return 60 */\n      swap1\n      pop\n      jump(tag_200)\n        /* \"contracts/lib/eai/EAI.sol\":27766:28010  if(timeUnit == MINUTE){... */\n    tag_206:\n        /* \"contracts/lib/eai/EAI.sol\":815:816  2 */\n      0x02\n        /* \"contracts/lib/eai/EAI.sol\":27832:27848  timeUnit == HOUR */\n      0xff\n      and\n        /* \"contracts/lib/eai/EAI.sol\":27832:27840  timeUnit */\n      dup3\n        /* \"contracts/lib/eai/EAI.sol\":27832:27848  timeUnit == HOUR */\n      0xff\n      and\n      eq\n        /* \"contracts/lib/eai/EAI.sol\":27829:28010  if(timeUnit == HOUR ){... */\n      iszero\n      tag_208\n      jumpi\n        /* \"contracts/lib/eai/EAI.sol\":27872:27877  60*60 */\n      0x0e10\n        /* \"contracts/lib/eai/EAI.sol\":27865:27877  return 60*60 */\n      swap1\n      pop\n      jump(tag_200)\n        /* \"contracts/lib/eai/EAI.sol\":27829:28010  if(timeUnit == HOUR ){... */\n    tag_208:\n        /* \"contracts/lib/eai/EAI.sol\":843:844  3 */\n      0x03\n        /* \"contracts/lib/eai/EAI.sol\":27897:27912  timeUnit == DAY */\n      0xff\n      and\n        /* \"contracts/lib/eai/EAI.sol\":27897:27905  timeUnit */\n      dup3\n        /* \"contracts/lib/eai/EAI.sol\":27897:27912  timeUnit == DAY */\n      0xff\n      and\n      eq\n        /* \"contracts/lib/eai/EAI.sol\":27894:28010  if(timeUnit == DAY){... */\n      iszero\n      tag_210\n      jumpi\n        /* \"contracts/lib/eai/EAI.sol\":27935:27943  60*60*24 */\n      0x015180\n        /* \"contracts/lib/eai/EAI.sol\":27928:27943  return 60*60*24 */\n      swap1\n      pop\n      jump(tag_200)\n        /* \"contracts/lib/eai/EAI.sol\":27894:28010  if(timeUnit == DAY){... */\n    tag_210:\n        /* \"contracts/lib/eai/EAI.sol\":27981:27991  60*60*24*7 */\n      0x093a80\n        /* \"contracts/lib/eai/EAI.sol\":27974:27991  return 60*60*24*7 */\n      swap1\n      pop\n        /* \"contracts/lib/eai/EAI.sol\":27468:28017  function getTimeInSeconds(uint8 timeUnit) private pure returns(uint32){... */\n    tag_200:\n      swap2\n      swap1\n      pop\n      jump\t// out\n        /* \"contracts/lib/eai/EAI.sol\":31526:32071  function uint2String(uint256 value) internal pure returns (string memory) {... */\n    tag_172:\n        /* \"contracts/lib/eai/EAI.sol\":31585:31598  string memory */\n      0x60\n        /* \"contracts/lib/eai/EAI.sol\":31634:31635  0 */\n      0x00\n        /* \"contracts/lib/eai/EAI.sol\":31625:31630  value */\n      dup3\n        /* \"contracts/lib/eai/EAI.sol\":31625:31635  value == 0 */\n      eq\n        /* \"contracts/lib/eai/EAI.sol\":31621:31674  if (value == 0) {... */\n      iszero\n      tag_213\n      jumpi\n        /* \"contracts/lib/eai/EAI.sol\":31652:31662  return \"0\" */\n      mload(0x40)\n      dup1\n      0x40\n      add\n      0x40\n      mstore\n      dup1\n      0x01\n      dup2\n      mstore\n      0x20\n      add\n      0x3000000000000000000000000000000000000000000000000000000000000000\n      dup2\n      mstore\n      pop\n      swap1\n      pop\n      jump(tag_212)\n        /* \"contracts/lib/eai/EAI.sol\":31621:31674  if (value == 0) {... */\n    tag_213:\n        /* \"contracts/lib/eai/EAI.sol\":31684:31696  uint256 temp */\n      0x00\n        /* \"contracts/lib/eai/EAI.sol\":31699:31704  value */\n      dup3\n        /* \"contracts/lib/eai/EAI.sol\":31684:31704  uint256 temp = value */\n      swap1\n      pop\n        /* \"contracts/lib/eai/EAI.sol\":31715:31729  uint256 digits */\n      0x00\n        /* \"contracts/lib/eai/EAI.sol\":31740:31818  while (temp != 0) {... */\n    tag_214:\n        /* \"contracts/lib/eai/EAI.sol\":31755:31756  0 */\n      0x00\n        /* \"contracts/lib/eai/EAI.sol\":31747:31751  temp */\n      dup3\n        /* \"contracts/lib/eai/EAI.sol\":31747:31756  temp != 0 */\n      eq\n        /* \"contracts/lib/eai/EAI.sol\":31740:31818  while (temp != 0) {... */\n      tag_215\n      jumpi\n        /* \"contracts/lib/eai/EAI.sol\":31773:31781  digits++ */\n      dup1\n      dup1\n      tag_216\n      swap1\n      tag_217\n      jump\t// in\n    tag_216:\n      swap2\n      pop\n      pop\n        /* \"contracts/lib/eai/EAI.sol\":31804:31806  10 */\n      0x0a\n        /* \"contracts/lib/eai/EAI.sol\":31796:31806  temp /= 10 */\n      dup3\n      tag_218\n      swap2\n      swap1\n      tag_219\n      jump\t// in\n    tag_218:\n      swap2\n      pop\n        /* \"contracts/lib/eai/EAI.sol\":31740:31818  while (temp != 0) {... */\n      jump(tag_214)\n    tag_215:\n        /* \"contracts/lib/eai/EAI.sol\":31828:31847  bytes memory buffer */\n      0x00\n        /* \"contracts/lib/eai/EAI.sol\":31860:31866  digits */\n      dup2\n        /* \"contracts/lib/eai/EAI.sol\":31850:31867  new bytes(digits) */\n      0xffffffffffffffff\n      dup2\n      gt\n      iszero\n      tag_220\n      jumpi\n      tag_221\n      tag_222\n      jump\t// in\n    tag_221:\n    tag_220:\n      mload(0x40)\n      swap1\n      dup1\n      dup3\n      mstore\n      dup1\n      0x1f\n      add\n      not(0x1f)\n      and\n      0x20\n      add\n      dup3\n      add\n      0x40\n      mstore\n      dup1\n      iszero\n      tag_223\n      jumpi\n      dup2\n      0x20\n      add\n      0x01\n      dup3\n      mul\n      dup1\n      calldatasize\n      dup4\n      calldatacopy\n      dup1\n      dup3\n      add\n      swap2\n      pop\n      pop\n      swap1\n      pop\n    tag_223:\n      pop\n        /* \"contracts/lib/eai/EAI.sol\":31828:31867  bytes memory buffer = new bytes(digits) */\n      swap1\n      pop\n        /* \"contracts/lib/eai/EAI.sol\":31878:32032  while (value != 0) {... */\n    tag_224:\n        /* \"contracts/lib/eai/EAI.sol\":31894:31895  0 */\n      0x00\n        /* \"contracts/lib/eai/EAI.sol\":31885:31890  value */\n      dup6\n        /* \"contracts/lib/eai/EAI.sol\":31885:31895  value != 0 */\n      eq\n        /* \"contracts/lib/eai/EAI.sol\":31878:32032  while (value != 0) {... */\n      tag_225\n      jumpi\n        /* \"contracts/lib/eai/EAI.sol\":31922:31923  1 */\n      0x01\n        /* \"contracts/lib/eai/EAI.sol\":31912:31923  digits -= 1 */\n      dup3\n      tag_226\n      swap2\n      swap1\n      tag_227\n      jump\t// in\n    tag_226:\n      swap2\n      pop\n        /* \"contracts/lib/eai/EAI.sol\":31989:31991  10 */\n      0x0a\n        /* \"contracts/lib/eai/EAI.sol\":31981:31986  value */\n      dup6\n        /* \"contracts/lib/eai/EAI.sol\":31981:31991  value % 10 */\n      tag_228\n      swap2\n      swap1\n      tag_229\n      jump\t// in\n    tag_228:\n        /* \"contracts/lib/eai/EAI.sol\":31968:31970  48 */\n      0x30\n        /* \"contracts/lib/eai/EAI.sol\":31968:31992  48 + uint256(value % 10) */\n      tag_230\n      swap2\n      swap1\n      tag_231\n      jump\t// in\n    tag_230:\n        /* \"contracts/lib/eai/EAI.sol\":31955:31994  bytes1(uint8(48 + uint256(value % 10))) */\n      0xf8\n      shl\n        /* \"contracts/lib/eai/EAI.sol\":31938:31944  buffer */\n      dup2\n        /* \"contracts/lib/eai/EAI.sol\":31945:31951  digits */\n      dup4\n        /* \"contracts/lib/eai/EAI.sol\":31938:31952  buffer[digits] */\n      dup2\n      mload\n      dup2\n      lt\n      tag_232\n      jumpi\n      tag_233\n      tag_57\n      jump\t// in\n    tag_233:\n    tag_232:\n      0x20\n      add\n      add\n        /* \"contracts/lib/eai/EAI.sol\":31938:31994  buffer[digits] = bytes1(uint8(48 + uint256(value % 10))) */\n      swap1\n      not(0xffffffffffffffffffffffffffffffffffffffffffffffffffffffffffffff)\n      and\n      swap1\n      dup2\n      0x00\n      byte\n      swap1\n      mstore8\n      pop\n        /* \"contracts/lib/eai/EAI.sol\":32018:32020  10 */\n      0x0a\n        /* \"contracts/lib/eai/EAI.sol\":32009:32020  value /= 10 */\n      dup6\n      tag_234\n      swap2\n      swap1\n      tag_219\n      jump\t// in\n    tag_234:\n      swap5\n      pop\n        /* \"contracts/lib/eai/EAI.sol\":31878:32032  while (value != 0) {... */\n      jump(tag_224)\n    tag_225:\n        /* \"contracts/lib/eai/EAI.sol\":32056:32062  buffer */\n      dup1\n        /* \"contracts/lib/eai/EAI.sol\":32042:32063  return string(buffer) */\n      swap4\n      pop\n      pop\n      pop\n      pop\n        /* \"contracts/lib/eai/EAI.sol\":31526:32071  function uint2String(uint256 value) internal pure returns (string memory) {... */\n    tag_212:\n      swap2\n      swap1\n      pop\n      jump\t// out\n        /* \"contracts/lib/eai/EAI.sol\":25592:26280  function isAccessDatetimeOutOfOldInterval(uint8 _timeUnit, uint32 _endTime, ... */\n    tag_185:\n        /* \"contracts/lib/eai/EAI.sol\":25734:25738  bool */\n      0x00\n        /* \"contracts/lib/eai/EAI.sol\":25761:25775  uint8 timeUnit */\n      dup1\n        /* \"contracts/lib/eai/EAI.sol\":25778:25787  _timeUnit */\n      dup5\n        /* \"contracts/lib/eai/EAI.sol\":25761:25787  uint8 timeUnit = _timeUnit */\n      swap1\n      pop\n        /* \"contracts/lib/eai/EAI.sol\":872:873  4 */\n      0x04\n        /* \"contracts/lib/eai/EAI.sol\":25801:25817  timeUnit <= WEEK */\n      0xff\n      and\n        /* \"contracts/lib/eai/EAI.sol\":25801:25809  timeUnit */\n      dup2\n        /* \"contracts/lib/eai/EAI.sol\":25801:25817  timeUnit <= WEEK */\n      0xff\n      and\n      gt\n        /* \"contracts/lib/eai/EAI.sol\":25798:26142  if(timeUnit <= WEEK){... */\n      tag_236\n      jumpi\n        /* \"contracts/lib/eai/EAI.sol\":25859:25867  _endTime */\n      dup4\n        /* \"contracts/lib/eai/EAI.sol\":25840:25867  _accessDateTime >= _endTime */\n      0xffffffff\n      and\n        /* \"contracts/lib/eai/EAI.sol\":25840:25855  _accessDateTime */\n      dup4\n        /* \"contracts/lib/eai/EAI.sol\":25840:25867  _accessDateTime >= _endTime */\n      0xffffffff\n      and\n      lt\n      iszero\n        /* \"contracts/lib/eai/EAI.sol\":25833:25867  return _accessDateTime >= _endTime */\n      swap2\n      pop\n      pop\n      jump(tag_235)\n        /* \"contracts/lib/eai/EAI.sol\":25798:26142  if(timeUnit <= WEEK){... */\n    tag_236:\n        /* \"contracts/lib/eai/EAI.sol\":902:903  5 */\n      0x05\n        /* \"contracts/lib/eai/EAI.sol\":25888:25905  timeUnit == MONTH */\n      0xff\n      and\n        /* \"contracts/lib/eai/EAI.sol\":25888:25896  timeUnit */\n      dup2\n        /* \"contracts/lib/eai/EAI.sol\":25888:25905  timeUnit == MONTH */\n      0xff\n      and\n      eq\n        /* \"contracts/lib/eai/EAI.sol\":25885:26142  if(timeUnit == MONTH) {            ... */\n      iszero\n      tag_238\n      jumpi\n        /* \"contracts/lib/eai/EAI.sol\":25936:25948  uint32 month */\n      0x00\n        /* \"contracts/lib/eai/EAI.sol\":25953:25985  timeStampToDate(_accessDateTime) */\n      tag_239\n        /* \"contracts/lib/eai/EAI.sol\":25969:25984  _accessDateTime */\n      dup5\n        /* \"contracts/lib/eai/EAI.sol\":25953:25985  timeStampToDate(_accessDateTime) */\n      0xffffffff\n      and\n        /* \"contracts/lib/eai/EAI.sol\":25953:25968  timeStampToDate */\n      tag_240\n        /* \"contracts/lib/eai/EAI.sol\":25953:25985  timeStampToDate(_accessDateTime) */\n      jump\t// in\n    tag_239:\n        /* \"contracts/lib/eai/EAI.sol\":25934:25985  (,uint32 month,) = timeStampToDate(_accessDateTime) */\n      pop\n      swap2\n      pop\n      pop\n        /* \"contracts/lib/eai/EAI.sol\":26020:26022  13 */\n      0x0d\n        /* \"contracts/lib/eai/EAI.sol\":26008:26016  _endTime */\n      dup6\n        /* \"contracts/lib/eai/EAI.sol\":26008:26022  _endTime == 13 */\n      0xffffffff\n      and\n      eq\n        /* \"contracts/lib/eai/EAI.sol\":26007:26037  (_endTime == 13) && (month==1) */\n      dup1\n      iszero\n      tag_241\n      jumpi\n      pop\n        /* \"contracts/lib/eai/EAI.sol\":26035:26036  1 */\n      0x01\n        /* \"contracts/lib/eai/EAI.sol\":26028:26033  month */\n      dup2\n        /* \"contracts/lib/eai/EAI.sol\":26028:26036  month==1 */\n      0xffffffff\n      and\n      eq\n        /* \"contracts/lib/eai/EAI.sol\":26007:26037  (_endTime == 13) && (month==1) */\n    tag_241:\n        /* \"contracts/lib/eai/EAI.sol\":26004:26084  if((_endTime == 13) && (month==1)){... */\n      iszero\n      tag_242\n      jumpi\n        /* \"contracts/lib/eai/EAI.sol\":26064:26068  true */\n      0x01\n        /* \"contracts/lib/eai/EAI.sol\":26057:26068  return true */\n      swap3\n      pop\n      pop\n      pop\n      jump(tag_235)\n        /* \"contracts/lib/eai/EAI.sol\":26004:26084  if((_endTime == 13) && (month==1)){... */\n    tag_242:\n        /* \"contracts/lib/eai/EAI.sol\":26122:26130  _endTime */\n      dup5\n        /* \"contracts/lib/eai/EAI.sol\":26113:26130  month >= _endTime */\n      0xffffffff\n      and\n        /* \"contracts/lib/eai/EAI.sol\":26113:26118  month */\n      dup2\n        /* \"contracts/lib/eai/EAI.sol\":26113:26130  month >= _endTime */\n      0xffffffff\n      and\n      lt\n      iszero\n        /* \"contracts/lib/eai/EAI.sol\":26106:26130  return month >= _endTime */\n      swap3\n      pop\n      pop\n      pop\n      jump(tag_235)\n        /* \"contracts/lib/eai/EAI.sol\":25885:26142  if(timeUnit == MONTH) {            ... */\n    tag_238:\n        /* \"contracts/lib/eai/EAI.sol\":26188:26199  uint32 year */\n      0x00\n        /* \"contracts/lib/eai/EAI.sol\":26206:26238  timeStampToDate(_accessDateTime) */\n      tag_243\n        /* \"contracts/lib/eai/EAI.sol\":26222:26237  _accessDateTime */\n      dup5\n        /* \"contracts/lib/eai/EAI.sol\":26206:26238  timeStampToDate(_accessDateTime) */\n      0xffffffff\n      and\n        /* \"contracts/lib/eai/EAI.sol\":26206:26221  timeStampToDate */\n      tag_240\n        /* \"contracts/lib/eai/EAI.sol\":26206:26238  timeStampToDate(_accessDateTime) */\n      jump\t// in\n    tag_243:\n        /* \"contracts/lib/eai/EAI.sol\":26187:26238  (uint32 year, ,) = timeStampToDate(_accessDateTime) */\n      pop\n      pop\n      swap1\n      pop\n        /* \"contracts/lib/eai/EAI.sol\":26264:26272  _endTime */\n      dup5\n        /* \"contracts/lib/eai/EAI.sol\":26256:26272  year >= _endTime */\n      0xffffffff\n      and\n        /* \"contracts/lib/eai/EAI.sol\":26256:26260  year */\n      dup2\n        /* \"contracts/lib/eai/EAI.sol\":26256:26272  year >= _endTime */\n      0xffffffff\n      and\n      lt\n      iszero\n        /* \"contracts/lib/eai/EAI.sol\":26249:26272  return year >= _endTime */\n      swap3\n      pop\n      pop\n      pop\n        /* \"contracts/lib/eai/EAI.sol\":25592:26280  function isAccessDatetimeOutOfOldInterval(uint8 _timeUnit, uint32 _endTime, ... */\n    tag_235:\n      swap4\n      swap3\n      pop\n      pop\n      pop\n      jump\t// out\n        /* \"contracts/lib/eai/EAI.sol\":12800:13408  function setNewEndTimeAndRestOfOperations(... */\n    tag_188:\n        /* \"contracts/lib/eai/EAI.sol\":13013:13040  _maxNumberOfOperationByTime */\n      dup2\n        /* \"contracts/lib/eai/EAI.sol\":13013:13047  _maxNumberOfOperationByTime.amount */\n      0x00\n      add\n      0x00\n      swap1\n      sload\n      swap1\n      0x0100\n      exp\n      swap1\n      div\n      0xffffffff\n      and\n        /* \"contracts/lib/eai/EAI.sol\":12978:13005  _maxNumberOfOperationByTime */\n      dup3\n        /* \"contracts/lib/eai/EAI.sol\":12978:13010  _maxNumberOfOperationByTime.rest */\n      0x00\n      add\n      0x09\n        /* \"contracts/lib/eai/EAI.sol\":12978:13047  _maxNumberOfOperationByTime.rest = _maxNumberOfOperationByTime.amount */\n      0x0100\n      exp\n      dup2\n      sload\n      dup2\n      0xffffffff\n      mul\n      not\n      and\n      swap1\n      dup4\n      0xffffffff\n      and\n      mul\n      or\n      swap1\n      sstore\n      pop\n        /* \"contracts/lib/eai/EAI.sol\":13096:13400  calcNextEndTime(... */\n      tag_245\n        /* \"contracts/lib/eai/EAI.sol\":13162:13189  _maxNumberOfOperationByTime */\n      dup3\n        /* \"contracts/lib/eai/EAI.sol\":13162:13196  _maxNumberOfOperationByTime.byTime */\n      0x00\n      add\n      0x05\n      swap1\n      sload\n      swap1\n      0x0100\n      exp\n      swap1\n      div\n      0xffffffff\n      and\n        /* \"contracts/lib/eai/EAI.sol\":13247:13274  _maxNumberOfOperationByTime */\n      dup4\n        /* \"contracts/lib/eai/EAI.sol\":13247:13283  _maxNumberOfOperationByTime.timeUnit */\n      0x00\n      add\n      0x04\n      swap1\n      sload\n      swap1\n      0x0100\n      exp\n      swap1\n      div\n      0xff\n      and\n        /* \"contracts/lib/eai/EAI.sol\":13334:13349  _accessDateTime */\n      dup4\n        /* \"contracts/lib/eai/EAI.sol\":13096:13111  calcNextEndTime */\n      tag_246\n        /* \"contracts/lib/eai/EAI.sol\":13096:13400  calcNextEndTime(... */\n      jump\t// in\n    tag_245:\n        /* \"contracts/lib/eai/EAI.sol\":13058:13085  _maxNumberOfOperationByTime */\n      dup3\n        /* \"contracts/lib/eai/EAI.sol\":13058:13093  _maxNumberOfOperationByTime.endTime */\n      0x00\n      add\n      0x0d\n        /* \"contracts/lib/eai/EAI.sol\":13058:13400  _maxNumberOfOperationByTime.endTime = calcNextEndTime(... */\n      0x0100\n      exp\n      dup2\n      sload\n      dup2\n      0xffffffff\n      mul\n      not\n      and\n      swap1\n      dup4\n      0xffffffff\n      and\n      mul\n      or\n      swap1\n      sstore\n      pop\n        /* \"contracts/lib/eai/EAI.sol\":12800:13408  function setNewEndTimeAndRestOfOperations(... */\n      pop\n      pop\n      jump\t// out\n        /* \"contracts/lib/eai/EAI.sol\":28253:28949  function timeStampToDate(uint _timestamp) internal pure returns (uint32 year, uint32 month, uint32 day) {... */\n    tag_240:\n        /* \"contracts/lib/eai/EAI.sol\":28318:28329  uint32 year */\n      0x00\n        /* \"contracts/lib/eai/EAI.sol\":28331:28343  uint32 month */\n      dup1\n        /* \"contracts/lib/eai/EAI.sol\":28345:28355  uint32 day */\n      0x00\n        /* \"contracts/lib/eai/EAI.sol\":28377:28390  uint32 __days */\n      dup1\n        /* \"contracts/lib/eai/EAI.sol\":1161:1169  24*60*60 */\n      0x015180\n        /* \"contracts/lib/eai/EAI.sol\":28400:28428  _timestamp / SECONDS_PER_DAY */\n      0xffffffff\n      and\n        /* \"contracts/lib/eai/EAI.sol\":28400:28410  _timestamp */\n      dup6\n        /* \"contracts/lib/eai/EAI.sol\":28400:28428  _timestamp / SECONDS_PER_DAY */\n      tag_248\n      swap2\n      swap1\n      tag_219\n      jump\t// in\n    tag_248:\n        /* \"contracts/lib/eai/EAI.sol\":28377:28429  uint32 __days = uint32(_timestamp / SECONDS_PER_DAY) */\n      swap1\n      pop\n        /* \"contracts/lib/eai/EAI.sol\":28442:28450  uint32 L */\n      0x00\n        /* \"contracts/lib/eai/EAI.sol\":1209:1216  2440588 */\n      0x253d8c\n        /* \"contracts/lib/eai/EAI.sol\":28462:28467  68569 */\n      0x010bd9\n        /* \"contracts/lib/eai/EAI.sol\":28453:28459  __days */\n      dup4\n        /* \"contracts/lib/eai/EAI.sol\":28453:28467  __days + 68569 */\n      tag_249\n      swap2\n      swap1\n      tag_195\n      jump\t// in\n    tag_249:\n        /* \"contracts/lib/eai/EAI.sol\":28453:28484  __days + 68569 + OFFSET19700101 */\n      tag_250\n      swap2\n      swap1\n      tag_195\n      jump\t// in\n    tag_250:\n        /* \"contracts/lib/eai/EAI.sol\":28442:28484  uint32 L = __days + 68569 + OFFSET19700101 */\n      swap1\n      pop\n        /* \"contracts/lib/eai/EAI.sol\":28495:28503  uint32 N */\n      0x00\n        /* \"contracts/lib/eai/EAI.sol\":28514:28520  146097 */\n      0x023ab1\n        /* \"contracts/lib/eai/EAI.sol\":28510:28511  L */\n      dup3\n        /* \"contracts/lib/eai/EAI.sol\":28506:28507  4 */\n      0x04\n        /* \"contracts/lib/eai/EAI.sol\":28506:28511  4 * L */\n      tag_251\n      swap2\n      swap1\n      tag_252\n      jump\t// in\n    tag_251:\n        /* \"contracts/lib/eai/EAI.sol\":28506:28520  4 * L / 146097 */\n      tag_253\n      swap2\n      swap1\n      tag_254\n      jump\t// in\n    tag_253:\n        /* \"contracts/lib/eai/EAI.sol\":28495:28520  uint32 N = 4 * L / 146097 */\n      swap1\n      pop\n        /* \"contracts/lib/eai/EAI.sol\":28558:28559  4 */\n      0x04\n        /* \"contracts/lib/eai/EAI.sol\":28553:28554  3 */\n      0x03\n        /* \"contracts/lib/eai/EAI.sol\":28549:28550  N */\n      dup3\n        /* \"contracts/lib/eai/EAI.sol\":28540:28546  146097 */\n      0x023ab1\n        /* \"contracts/lib/eai/EAI.sol\":28540:28550  146097 * N */\n      tag_255\n      swap2\n      swap1\n      tag_252\n      jump\t// in\n    tag_255:\n        /* \"contracts/lib/eai/EAI.sol\":28540:28554  146097 * N + 3 */\n      tag_256\n      swap2\n      swap1\n      tag_195\n      jump\t// in\n    tag_256:\n        /* \"contracts/lib/eai/EAI.sol\":28539:28559  (146097 * N + 3) / 4 */\n      tag_257\n      swap2\n      swap1\n      tag_254\n      jump\t// in\n    tag_257:\n        /* \"contracts/lib/eai/EAI.sol\":28535:28536  L */\n      dup3\n        /* \"contracts/lib/eai/EAI.sol\":28535:28559  L - (146097 * N + 3) / 4 */\n      tag_258\n      swap2\n      swap1\n      tag_182\n      jump\t// in\n    tag_258:\n        /* \"contracts/lib/eai/EAI.sol\":28531:28559  L = L - (146097 * N + 3) / 4 */\n      swap2\n      pop\n        /* \"contracts/lib/eai/EAI.sol\":28570:28582  uint32 _year */\n      0x00\n        /* \"contracts/lib/eai/EAI.sol\":28602:28609  1461001 */\n      0x164b09\n        /* \"contracts/lib/eai/EAI.sol\":28597:28598  1 */\n      0x01\n        /* \"contracts/lib/eai/EAI.sol\":28593:28594  L */\n      dup5\n        /* \"contracts/lib/eai/EAI.sol\":28593:28598  L + 1 */\n      tag_259\n      swap2\n      swap1\n      tag_195\n      jump\t// in\n    tag_259:\n        /* \"contracts/lib/eai/EAI.sol\":28585:28589  4000 */\n      0x0fa0\n        /* \"contracts/lib/eai/EAI.sol\":28585:28599  4000 * (L + 1) */\n      tag_260\n      swap2\n      swap1\n      tag_252\n      jump\t// in\n    tag_260:\n        /* \"contracts/lib/eai/EAI.sol\":28585:28609  4000 * (L + 1) / 1461001 */\n      tag_261\n      swap2\n      swap1\n      tag_254\n      jump\t// in\n    tag_261:\n        /* \"contracts/lib/eai/EAI.sol\":28570:28609  uint32 _year = 4000 * (L + 1) / 1461001 */\n      swap1\n      pop\n        /* \"contracts/lib/eai/EAI.sol\":28647:28649  31 */\n      0x1f\n        /* \"contracts/lib/eai/EAI.sol\":28643:28644  4 */\n      0x04\n        /* \"contracts/lib/eai/EAI.sol\":28635:28640  _year */\n      dup3\n        /* \"contracts/lib/eai/EAI.sol\":28628:28632  1461 */\n      0x05b5\n        /* \"contracts/lib/eai/EAI.sol\":28628:28640  1461 * _year */\n      tag_262\n      swap2\n      swap1\n      tag_252\n      jump\t// in\n    tag_262:\n        /* \"contracts/lib/eai/EAI.sol\":28628:28644  1461 * _year / 4 */\n      tag_263\n      swap2\n      swap1\n      tag_254\n      jump\t// in\n    tag_263:\n        /* \"contracts/lib/eai/EAI.sol\":28624:28625  L */\n      dup5\n        /* \"contracts/lib/eai/EAI.sol\":28624:28644  L - 1461 * _year / 4 */\n      tag_264\n      swap2\n      swap1\n      tag_182\n      jump\t// in\n    tag_264:\n        /* \"contracts/lib/eai/EAI.sol\":28624:28649  L - 1461 * _year / 4 + 31 */\n      tag_265\n      swap2\n      swap1\n      tag_195\n      jump\t// in\n    tag_265:\n        /* \"contracts/lib/eai/EAI.sol\":28620:28649  L = L - 1461 * _year / 4 + 31 */\n      swap3\n      pop\n        /* \"contracts/lib/eai/EAI.sol\":28660:28673  uint32 _month */\n      0x00\n        /* \"contracts/lib/eai/EAI.sol\":28685:28689  2447 */\n      0x098f\n        /* \"contracts/lib/eai/EAI.sol\":28681:28682  L */\n      dup5\n        /* \"contracts/lib/eai/EAI.sol\":28676:28678  80 */\n      0x50\n        /* \"contracts/lib/eai/EAI.sol\":28676:28682  80 * L */\n      tag_266\n      swap2\n      swap1\n      tag_252\n      jump\t// in\n    tag_266:\n        /* \"contracts/lib/eai/EAI.sol\":28676:28689  80 * L / 2447 */\n      tag_267\n      swap2\n      swap1\n      tag_254\n      jump\t// in\n    tag_267:\n        /* \"contracts/lib/eai/EAI.sol\":28660:28689  uint32 _month = 80 * L / 2447 */\n      swap1\n      pop\n        /* \"contracts/lib/eai/EAI.sol\":28700:28711  uint32 _day */\n      0x00\n        /* \"contracts/lib/eai/EAI.sol\":28734:28736  80 */\n      0x50\n        /* \"contracts/lib/eai/EAI.sol\":28725:28731  _month */\n      dup3\n        /* \"contracts/lib/eai/EAI.sol\":28718:28722  2447 */\n      0x098f\n        /* \"contracts/lib/eai/EAI.sol\":28718:28731  2447 * _month */\n      tag_268\n      swap2\n      swap1\n      tag_252\n      jump\t// in\n    tag_268:\n        /* \"contracts/lib/eai/EAI.sol\":28718:28736  2447 * _month / 80 */\n      tag_269\n      swap2\n      swap1\n      tag_254\n      jump\t// in\n    tag_269:\n        /* \"contracts/lib/eai/EAI.sol\":28714:28715  L */\n      dup6\n        /* \"contracts/lib/eai/EAI.sol\":28714:28736  L - 2447 * _month / 80 */\n      tag_270\n      swap2\n      swap1\n      tag_182\n      jump\t// in\n    tag_270:\n        /* \"contracts/lib/eai/EAI.sol\":28700:28736  uint32 _day = L - 2447 * _month / 80 */\n      swap1\n      pop\n        /* \"contracts/lib/eai/EAI.sol\":28760:28762  11 */\n      0x0b\n        /* \"contracts/lib/eai/EAI.sol\":28751:28757  _month */\n      dup3\n        /* \"contracts/lib/eai/EAI.sol\":28751:28762  _month / 11 */\n      tag_271\n      swap2\n      swap1\n      tag_254\n      jump\t// in\n    tag_271:\n        /* \"contracts/lib/eai/EAI.sol\":28747:28762  L = _month / 11 */\n      swap5\n      pop\n        /* \"contracts/lib/eai/EAI.sol\":28800:28801  L */\n      dup5\n        /* \"contracts/lib/eai/EAI.sol\":28795:28797  12 */\n      0x0c\n        /* \"contracts/lib/eai/EAI.sol\":28795:28801  12 * L */\n      tag_272\n      swap2\n      swap1\n      tag_252\n      jump\t// in\n    tag_272:\n        /* \"contracts/lib/eai/EAI.sol\":28791:28792  2 */\n      0x02\n        /* \"contracts/lib/eai/EAI.sol\":28782:28788  _month */\n      dup4\n        /* \"contracts/lib/eai/EAI.sol\":28782:28792  _month + 2 */\n      tag_273\n      swap2\n      swap1\n      tag_195\n      jump\t// in\n    tag_273:\n        /* \"contracts/lib/eai/EAI.sol\":28782:28801  _month + 2 - 12 * L */\n      tag_274\n      swap2\n      swap1\n      tag_182\n      jump\t// in\n    tag_274:\n        /* \"contracts/lib/eai/EAI.sol\":28773:28801  _month = _month + 2 - 12 * L */\n      swap2\n      pop\n        /* \"contracts/lib/eai/EAI.sol\":28845:28846  L */\n      dup5\n        /* \"contracts/lib/eai/EAI.sol\":28837:28842  _year */\n      dup4\n        /* \"contracts/lib/eai/EAI.sol\":28831:28833  49 */\n      0x31\n        /* \"contracts/lib/eai/EAI.sol\":28827:28828  N */\n      dup7\n        /* \"contracts/lib/eai/EAI.sol\":28827:28833  N - 49 */\n      tag_275\n      swap2\n      swap1\n      tag_182\n      jump\t// in\n    tag_275:\n        /* \"contracts/lib/eai/EAI.sol\":28820:28823  100 */\n      0x64\n        /* \"contracts/lib/eai/EAI.sol\":28820:28834  100 * (N - 49) */\n      tag_276\n      swap2\n      swap1\n      tag_252\n      jump\t// in\n    tag_276:\n        /* \"contracts/lib/eai/EAI.sol\":28820:28842  100 * (N - 49) + _year */\n      tag_277\n      swap2\n      swap1\n      tag_195\n      jump\t// in\n    tag_277:\n        /* \"contracts/lib/eai/EAI.sol\":28820:28846  100 * (N - 49) + _year + L */\n      tag_278\n      swap2\n      swap1\n      tag_195\n      jump\t// in\n    tag_278:\n        /* \"contracts/lib/eai/EAI.sol\":28812:28846  _year = 100 * (N - 49) + _year + L */\n      swap3\n      pop\n        /* \"contracts/lib/eai/EAI.sol\":28873:28878  _year */\n      dup3\n        /* \"contracts/lib/eai/EAI.sol\":28859:28879  year = uint32(_year) */\n      swap9\n      pop\n        /* \"contracts/lib/eai/EAI.sol\":28905:28911  _month */\n      dup2\n        /* \"contracts/lib/eai/EAI.sol\":28890:28912  month = uint32(_month) */\n      swap8\n      pop\n        /* \"contracts/lib/eai/EAI.sol\":28936:28940  _day */\n      dup1\n        /* \"contracts/lib/eai/EAI.sol\":28923:28941  day = uint32(_day) */\n      swap7\n      pop\n        /* \"contracts/lib/eai/EAI.sol\":28357:28949  {... */\n      pop\n      pop\n      pop\n      pop\n      pop\n      pop\n        /* \"contracts/lib/eai/EAI.sol\":28253:28949  function timeStampToDate(uint _timestamp) internal pure returns (uint32 year, uint32 month, uint32 day) {... */\n      swap2\n      swap4\n      swap1\n      swap3\n      pop\n      jump\t// out\n        /* \"contracts/lib/eai/EAI.sol\":26288:26945  function calcNextEndTime(       ... */\n    tag_246:\n        /* \"contracts/lib/eai/EAI.sol\":26442:26448  uint32 */\n      0x00\n        /* \"contracts/lib/eai/EAI.sol\":872:873  4 */\n      0x04\n        /* \"contracts/lib/eai/EAI.sol\":26474:26491  _timeUnit <= WEEK */\n      0xff\n      and\n        /* \"contracts/lib/eai/EAI.sol\":26474:26483  _timeUnit */\n      dup4\n        /* \"contracts/lib/eai/EAI.sol\":26474:26491  _timeUnit <= WEEK */\n      0xff\n      and\n      gt\n        /* \"contracts/lib/eai/EAI.sol\":26470:26938  if (_timeUnit <= WEEK) {... */\n      tag_280\n      jumpi\n        /* \"contracts/lib/eai/EAI.sol\":26515:26647  calcNextEndTimeForSecMinHrDayOrWeek(... */\n      tag_281\n        /* \"contracts/lib/eai/EAI.sol\":26569:26578  _timeUnit */\n      dup4\n        /* \"contracts/lib/eai/EAI.sol\":26598:26613  _accessDateTime */\n      dup4\n        /* \"contracts/lib/eai/EAI.sol\":26633:26646  _timeInterval */\n      dup7\n        /* \"contracts/lib/eai/EAI.sol\":26515:26550  calcNextEndTimeForSecMinHrDayOrWeek */\n      tag_282\n        /* \"contracts/lib/eai/EAI.sol\":26515:26647  calcNextEndTimeForSecMinHrDayOrWeek(... */\n      jump\t// in\n    tag_281:\n        /* \"contracts/lib/eai/EAI.sol\":26508:26647  return calcNextEndTimeForSecMinHrDayOrWeek(... */\n      swap1\n      pop\n      jump(tag_279)\n        /* \"contracts/lib/eai/EAI.sol\":26470:26938  if (_timeUnit <= WEEK) {... */\n    tag_280:\n        /* \"contracts/lib/eai/EAI.sol\":902:903  5 */\n      0x05\n        /* \"contracts/lib/eai/EAI.sol\":26667:26685  _timeUnit == MONTH */\n      0xff\n      and\n        /* \"contracts/lib/eai/EAI.sol\":26667:26676  _timeUnit */\n      dup4\n        /* \"contracts/lib/eai/EAI.sol\":26667:26685  _timeUnit == MONTH */\n      0xff\n      and\n      eq\n        /* \"contracts/lib/eai/EAI.sol\":26664:26938  if(_timeUnit == MONTH){... */\n      iszero\n      tag_284\n      jumpi\n        /* \"contracts/lib/eai/EAI.sol\":26703:26720  uint currentMonth */\n      0x00\n        /* \"contracts/lib/eai/EAI.sol\":26725:26757  timeStampToDate(_accessDateTime) */\n      tag_285\n        /* \"contracts/lib/eai/EAI.sol\":26741:26756  _accessDateTime */\n      dup4\n        /* \"contracts/lib/eai/EAI.sol\":26725:26757  timeStampToDate(_accessDateTime) */\n      0xffffffff\n      and\n        /* \"contracts/lib/eai/EAI.sol\":26725:26740  timeStampToDate */\n      tag_240\n        /* \"contracts/lib/eai/EAI.sol\":26725:26757  timeStampToDate(_accessDateTime) */\n      jump\t// in\n    tag_285:\n        /* \"contracts/lib/eai/EAI.sol\":26701:26757  (,uint currentMonth,) = timeStampToDate(_accessDateTime) */\n      pop\n      0xffffffff\n      and\n      swap2\n      pop\n      pop\n        /* \"contracts/lib/eai/EAI.sol\":26801:26802  1 */\n      0x01\n        /* \"contracts/lib/eai/EAI.sol\":26788:26800  currentMonth */\n      dup2\n        /* \"contracts/lib/eai/EAI.sol\":26788:26802  currentMonth+1 */\n      tag_286\n      swap2\n      swap1\n      tag_231\n      jump\t// in\n    tag_286:\n        /* \"contracts/lib/eai/EAI.sol\":26774:26803  return uint32(currentMonth+1) */\n      swap2\n      pop\n      pop\n      jump(tag_279)\n        /* \"contracts/lib/eai/EAI.sol\":26664:26938  if(_timeUnit == MONTH){... */\n    tag_284:\n        /* \"contracts/lib/eai/EAI.sol\":26841:26850  uint year */\n      0x00\n        /* \"contracts/lib/eai/EAI.sol\":26856:26888  timeStampToDate(_accessDateTime) */\n      tag_288\n        /* \"contracts/lib/eai/EAI.sol\":26872:26887  _accessDateTime */\n      dup4\n        /* \"contracts/lib/eai/EAI.sol\":26856:26888  timeStampToDate(_accessDateTime) */\n      0xffffffff\n      and\n        /* \"contracts/lib/eai/EAI.sol\":26856:26871  timeStampToDate */\n      tag_240\n        /* \"contracts/lib/eai/EAI.sol\":26856:26888  timeStampToDate(_accessDateTime) */\n      jump\t// in\n    tag_288:\n        /* \"contracts/lib/eai/EAI.sol\":26840:26888  (uint year,,) = timeStampToDate(_accessDateTime) */\n      pop\n      pop\n      0xffffffff\n      and\n      swap1\n      pop\n        /* \"contracts/lib/eai/EAI.sol\":26924:26925  1 */\n      0x01\n        /* \"contracts/lib/eai/EAI.sol\":26917:26921  year */\n      dup2\n        /* \"contracts/lib/eai/EAI.sol\":26917:26925  year + 1 */\n      tag_289\n      swap2\n      swap1\n      tag_231\n      jump\t// in\n    tag_289:\n        /* \"contracts/lib/eai/EAI.sol\":26903:26926  return uint32(year + 1) */\n      swap2\n      pop\n      pop\n        /* \"contracts/lib/eai/EAI.sol\":26288:26945  function calcNextEndTime(       ... */\n    tag_279:\n      swap4\n      swap3\n      pop\n      pop\n      pop\n      jump\t// out\n        /* \"contracts/lib/eai/EAI.sol\":26957:27454  function calcNextEndTimeForSecMinHrDayOrWeek(... */\n    tag_282:\n        /* \"contracts/lib/eai/EAI.sol\":27125:27131  uint32 */\n      0x00\n        /* \"contracts/lib/eai/EAI.sol\":27145:27155  uint32 mod */\n      dup1\n        /* \"contracts/lib/eai/EAI.sol\":27184:27197  _timeInterval */\n      dup3\n        /* \"contracts/lib/eai/EAI.sol\":27166:27181  _accessDateTime */\n      dup5\n        /* \"contracts/lib/eai/EAI.sol\":27166:27197  _accessDateTime % _timeInterval */\n      tag_291\n      swap2\n      swap1\n      tag_292\n      jump\t// in\n    tag_291:\n        /* \"contracts/lib/eai/EAI.sol\":27145:27198  uint32 mod =  uint32(_accessDateTime % _timeInterval) */\n      swap1\n      pop\n        /* \"contracts/lib/eai/EAI.sol\":27209:27233  uint32 timeToNextEndTime */\n      0x00\n        /* \"contracts/lib/eai/EAI.sol\":27253:27256  mod */\n      dup2\n        /* \"contracts/lib/eai/EAI.sol\":27237:27250  _timeInterval */\n      dup5\n        /* \"contracts/lib/eai/EAI.sol\":27237:27256  _timeInterval - mod */\n      tag_293\n      swap2\n      swap1\n      tag_182\n      jump\t// in\n    tag_293:\n        /* \"contracts/lib/eai/EAI.sol\":27209:27256  uint32 timeToNextEndTime  = _timeInterval - mod */\n      swap1\n      pop\n        /* \"contracts/lib/eai/EAI.sol\":872:873  4 */\n      0x04\n        /* \"contracts/lib/eai/EAI.sol\":27292:27309  _timeUnit == WEEK */\n      0xff\n      and\n        /* \"contracts/lib/eai/EAI.sol\":27292:27301  _timeUnit */\n      dup7\n        /* \"contracts/lib/eai/EAI.sol\":27292:27309  _timeUnit == WEEK */\n      0xff\n      and\n      eq\n        /* \"contracts/lib/eai/EAI.sol\":27289:27392  if(_timeUnit == WEEK){... */\n      iszero\n      tag_294\n      jumpi\n        /* \"contracts/lib/eai/EAI.sol\":1309:1315  259200 */\n      0x03f480\n        /* \"contracts/lib/eai/EAI.sol\":27350:27367  timeToNextEndTime */\n      dup2\n        /* \"contracts/lib/eai/EAI.sol\":27332:27347  _accessDateTime */\n      dup7\n        /* \"contracts/lib/eai/EAI.sol\":27332:27367  _accessDateTime + timeToNextEndTime */\n      tag_295\n      swap2\n      swap1\n      tag_195\n      jump\t// in\n    tag_295:\n        /* \"contracts/lib/eai/EAI.sol\":27332:27380  _accessDateTime + timeToNextEndTime + OFFSETWEEK */\n      tag_296\n      swap2\n      swap1\n      tag_195\n      jump\t// in\n    tag_296:\n        /* \"contracts/lib/eai/EAI.sol\":27325:27380  return _accessDateTime + timeToNextEndTime + OFFSETWEEK */\n      swap3\n      pop\n      pop\n      pop\n      jump(tag_290)\n        /* \"contracts/lib/eai/EAI.sol\":27289:27392  if(_timeUnit == WEEK){... */\n    tag_294:\n        /* \"contracts/lib/eai/EAI.sol\":27429:27446  timeToNextEndTime */\n      dup1\n        /* \"contracts/lib/eai/EAI.sol\":27411:27426  _accessDateTime */\n      dup6\n        /* \"contracts/lib/eai/EAI.sol\":27411:27446  _accessDateTime + timeToNextEndTime */\n      tag_297\n      swap2\n      swap1\n      tag_195\n      jump\t// in\n    tag_297:\n        /* \"contracts/lib/eai/EAI.sol\":27404:27446  return _accessDateTime + timeToNextEndTime */\n      swap3\n      pop\n      pop\n      pop\n        /* \"contracts/lib/eai/EAI.sol\":26957:27454  function calcNextEndTimeForSecMinHrDayOrWeek(... */\n    tag_290:\n      swap4\n      swap3\n      pop\n      pop\n      pop\n      jump\t// out\n    tag_109:\n      pop\n      dup1\n      sload\n      tag_298\n      swap1\n      tag_150\n      jump\t// in\n    tag_298:\n      0x00\n      dup3\n      sstore\n      dup1\n      0x1f\n      lt\n      tag_300\n      jumpi\n      pop\n      jump(tag_299)\n    tag_300:\n      0x1f\n      add\n      0x20\n      swap1\n      div\n      swap1\n      0x00\n      mstore\n      keccak256(0x00, 0x20)\n      swap1\n      dup2\n      add\n      swap1\n      tag_301\n      swap2\n      swap1\n      tag_302\n      jump\t// in\n    tag_301:\n    tag_299:\n      pop\n      jump\t// out\n    tag_112:\n      dup3\n      dup1\n      sload\n      tag_303\n      swap1\n      tag_150\n      jump\t// in\n    tag_303:\n      swap1\n      0x00\n      mstore\n      keccak256(0x00, 0x20)\n      swap1\n      0x1f\n      add\n      0x20\n      swap1\n      div\n      dup2\n      add\n      swap3\n      dup3\n      tag_305\n      jumpi\n      0x00\n      dup6\n      sstore\n      jump(tag_304)\n    tag_305:\n      dup3\n      0x1f\n      lt\n      tag_306\n      jumpi\n      dup1\n      mload\n      not(0xff)\n      and\n      dup4\n      dup1\n      add\n      or\n      dup6\n      sstore\n      jump(tag_304)\n    tag_306:\n      dup3\n      dup1\n      add\n      0x01\n      add\n      dup6\n      sstore\n      dup3\n      iszero\n      tag_304\n      jumpi\n      swap2\n      dup3\n      add\n    tag_307:\n      dup3\n      dup2\n      gt\n      iszero\n      tag_308\n      jumpi\n      dup3\n      mload\n      dup3\n      sstore\n      swap2\n      0x20\n      add\n      swap2\n      swap1\n      0x01\n      add\n      swap1\n      jump(tag_307)\n    tag_308:\n    tag_304:\n      pop\n      swap1\n      pop\n      tag_309\n      swap2\n      swap1\n      tag_302\n      jump\t// in\n    tag_309:\n      pop\n      swap1\n      jump\t// out\n    tag_141:\n      mload(0x40)\n      dup1\n      0x60\n      add\n      0x40\n      mstore\n      dup1\n      0x60\n      dup2\n      mstore\n      0x20\n      add\n      and(0xffffffffffffffffffffffffffffffffffffffff, 0x00)\n      dup2\n      mstore\n      0x20\n      add\n      iszero(iszero(0x00))\n      dup2\n      mstore\n      pop\n      swap1\n      jump\t// out\n    tag_158:\n      mload(0x40)\n      dup1\n      0xa0\n      add\n      0x40\n      mstore\n      dup1\n      and(0xffffffff, 0x00)\n      dup2\n      mstore\n      0x20\n      add\n      and(0xff, 0x00)\n      dup2\n      mstore\n      0x20\n      add\n      and(0xffffffff, 0x00)\n      dup2\n      mstore\n      0x20\n      add\n      and(0xffffffff, 0x00)\n      dup2\n      mstore\n      0x20\n      add\n      and(0xffffffff, 0x00)\n      dup2\n      mstore\n      pop\n      swap1\n      jump\t// out\n    tag_165:\n      mload(0x40)\n      dup1\n      0x20\n      add\n      0x40\n      mstore\n      dup1\n      0x60\n      dup2\n      mstore\n      pop\n      swap1\n      jump\t// out\n    tag_168:\n      mload(0x40)\n      dup1\n      0x40\n      add\n      0x40\n      mstore\n      dup1\n      and(0xffffffff, 0x00)\n      dup2\n      mstore\n      0x20\n      add\n      and(0xffffffff, 0x00)\n      dup2\n      mstore\n      pop\n      swap1\n      jump\t// out\n    tag_199:\n      dup3\n      dup1\n      sload\n      tag_310\n      swap1\n      tag_150\n      jump\t// in\n    tag_310:\n      swap1\n      0x00\n      mstore\n      keccak256(0x00, 0x20)\n      swap1\n      0x1f\n      add\n      0x20\n      swap1\n      div\n      dup2\n      add\n      swap3\n      dup3\n      tag_312\n      jumpi\n      0x00\n      dup6\n      sstore\n      jump(tag_311)\n    tag_312:\n      dup3\n      0x1f\n      lt\n      tag_313\n      jumpi\n      dup1\n      sload\n      dup6\n      sstore\n      jump(tag_311)\n    tag_313:\n      dup3\n      dup1\n      add\n      0x01\n      add\n      dup6\n      sstore\n      dup3\n      iszero\n      tag_311\n      jumpi\n      0x00\n      mstore\n      keccak256(0x00, 0x20)\n      swap2\n      0x1f\n      add\n      0x20\n      swap1\n      div\n      dup3\n      add\n    tag_314:\n      dup3\n      dup2\n      gt\n      iszero\n      tag_315\n      jumpi\n      dup3\n      sload\n      dup3\n      sstore\n      swap2\n      0x01\n      add\n      swap2\n      swap1\n      0x01\n      add\n      swap1\n      jump(tag_314)\n    tag_315:\n    tag_311:\n      pop\n      swap1\n      pop\n      tag_316\n      swap2\n      swap1\n      tag_302\n      jump\t// in\n    tag_316:\n      pop\n      swap1\n      jump\t// out\n    tag_302:\n    tag_317:\n      dup1\n      dup3\n      gt\n      iszero\n      tag_318\n      jumpi\n      0x00\n      dup2\n      0x00\n      swap1\n      sstore\n      pop\n      0x01\n      add\n      jump(tag_317)\n    tag_318:\n      pop\n      swap1\n      jump\t// out\n        /* \"#utility.yul\":7:82   */\n    tag_319:\n        /* \"#utility.yul\":40:46   */\n      0x00\n        /* \"#utility.yul\":73:75   */\n      0x40\n        /* \"#utility.yul\":67:76   */\n      mload\n        /* \"#utility.yul\":57:76   */\n      swap1\n      pop\n        /* \"#utility.yul\":7:82   */\n      swap1\n      jump\t// out\n        /* \"#utility.yul\":88:205   */\n    tag_320:\n        /* \"#utility.yul\":197:198   */\n      0x00\n        /* \"#utility.yul\":194:195   */\n      dup1\n        /* \"#utility.yul\":187:199   */\n      revert\n        /* \"#utility.yul\":211:328   */\n    tag_321:\n        /* \"#utility.yul\":320:321   */\n      0x00\n        /* \"#utility.yul\":317:318   */\n      dup1\n        /* \"#utility.yul\":310:322   */\n      revert\n        /* \"#utility.yul\":334:427   */\n    tag_322:\n        /* \"#utility.yul\":370:377   */\n      0x00\n        /* \"#utility.yul\":410:420   */\n      0xffffffff\n        /* \"#utility.yul\":403:408   */\n      dup3\n        /* \"#utility.yul\":399:421   */\n      and\n        /* \"#utility.yul\":388:421   */\n      swap1\n      pop\n        /* \"#utility.yul\":334:427   */\n      swap2\n      swap1\n      pop\n      jump\t// out\n        /* \"#utility.yul\":433:553   */\n    tag_323:\n        /* \"#utility.yul\":505:528   */\n      tag_383\n        /* \"#utility.yul\":522:527   */\n      dup2\n        /* \"#utility.yul\":505:528   */\n      tag_322\n      jump\t// in\n    tag_383:\n        /* \"#utility.yul\":498:503   */\n      dup2\n        /* \"#utility.yul\":495:529   */\n      eq\n        /* \"#utility.yul\":485:547   */\n      tag_384\n      jumpi\n        /* \"#utility.yul\":543:544   */\n      0x00\n        /* \"#utility.yul\":540:541   */\n      dup1\n        /* \"#utility.yul\":533:545   */\n      revert\n        /* \"#utility.yul\":485:547   */\n    tag_384:\n        /* \"#utility.yul\":433:553   */\n      pop\n      jump\t// out\n        /* \"#utility.yul\":559:696   */\n    tag_324:\n        /* \"#utility.yul\":604:609   */\n      0x00\n        /* \"#utility.yul\":642:648   */\n      dup2\n        /* \"#utility.yul\":629:649   */\n      calldataload\n        /* \"#utility.yul\":620:649   */\n      swap1\n      pop\n        /* \"#utility.yul\":658:690   */\n      tag_386\n        /* \"#utility.yul\":684:689   */\n      dup2\n        /* \"#utility.yul\":658:690   */\n      tag_323\n      jump\t// in\n    tag_386:\n        /* \"#utility.yul\":559:696   */\n      swap3\n      swap2\n      pop\n      pop\n      jump\t// out\n        /* \"#utility.yul\":702:819   */\n    tag_325:\n        /* \"#utility.yul\":811:812   */\n      0x00\n        /* \"#utility.yul\":808:809   */\n      dup1\n        /* \"#utility.yul\":801:813   */\n      revert\n        /* \"#utility.yul\":825:927   */\n    tag_326:\n        /* \"#utility.yul\":866:872   */\n      0x00\n        /* \"#utility.yul\":917:919   */\n      0x1f\n        /* \"#utility.yul\":913:920   */\n      not\n        /* \"#utility.yul\":908:910   */\n      0x1f\n        /* \"#utility.yul\":901:906   */\n      dup4\n        /* \"#utility.yul\":897:911   */\n      add\n        /* \"#utility.yul\":893:921   */\n      and\n        /* \"#utility.yul\":883:921   */\n      swap1\n      pop\n        /* \"#utility.yul\":825:927   */\n      swap2\n      swap1\n      pop\n      jump\t// out\n        /* \"#utility.yul\":933:1113   */\n    tag_222:\n        /* \"#utility.yul\":981:1058   */\n      0x4e487b7100000000000000000000000000000000000000000000000000000000\n        /* \"#utility.yul\":978:979   */\n      0x00\n        /* \"#utility.yul\":971:1059   */\n      mstore\n        /* \"#utility.yul\":1078:1082   */\n      0x41\n        /* \"#utility.yul\":1075:1076   */\n      0x04\n        /* \"#utility.yul\":1068:1083   */\n      mstore\n        /* \"#utility.yul\":1102:1106   */\n      0x24\n        /* \"#utility.yul\":1099:1100   */\n      0x00\n        /* \"#utility.yul\":1092:1107   */\n      revert\n        /* \"#utility.yul\":1119:1400   */\n    tag_327:\n        /* \"#utility.yul\":1202:1229   */\n      tag_391\n        /* \"#utility.yul\":1224:1228   */\n      dup3\n        /* \"#utility.yul\":1202:1229   */\n      tag_326\n      jump\t// in\n    tag_391:\n        /* \"#utility.yul\":1194:1200   */\n      dup2\n        /* \"#utility.yul\":1190:1230   */\n      add\n        /* \"#utility.yul\":1332:1338   */\n      dup2\n        /* \"#utility.yul\":1320:1330   */\n      dup2\n        /* \"#utility.yul\":1317:1339   */\n      lt\n        /* \"#utility.yul\":1296:1314   */\n      0xffffffffffffffff\n        /* \"#utility.yul\":1284:1294   */\n      dup3\n        /* \"#utility.yul\":1281:1315   */\n      gt\n        /* \"#utility.yul\":1278:1340   */\n      or\n        /* \"#utility.yul\":1275:1363   */\n      iszero\n      tag_392\n      jumpi\n        /* \"#utility.yul\":1343:1361   */\n      tag_393\n      tag_222\n      jump\t// in\n    tag_393:\n        /* \"#utility.yul\":1275:1363   */\n    tag_392:\n        /* \"#utility.yul\":1383:1393   */\n      dup1\n        /* \"#utility.yul\":1379:1381   */\n      0x40\n        /* \"#utility.yul\":1372:1394   */\n      mstore\n        /* \"#utility.yul\":1162:1400   */\n      pop\n        /* \"#utility.yul\":1119:1400   */\n      pop\n      pop\n      jump\t// out\n        /* \"#utility.yul\":1406:1535   */\n    tag_328:\n        /* \"#utility.yul\":1440:1446   */\n      0x00\n        /* \"#utility.yul\":1467:1487   */\n      tag_395\n      tag_319\n      jump\t// in\n    tag_395:\n        /* \"#utility.yul\":1457:1487   */\n      swap1\n      pop\n        /* \"#utility.yul\":1496:1529   */\n      tag_396\n        /* \"#utility.yul\":1524:1528   */\n      dup3\n        /* \"#utility.yul\":1516:1522   */\n      dup3\n        /* \"#utility.yul\":1496:1529   */\n      tag_327\n      jump\t// in\n    tag_396:\n        /* \"#utility.yul\":1406:1535   */\n      swap2\n      swap1\n      pop\n      jump\t// out\n        /* \"#utility.yul\":1541:1849   */\n    tag_329:\n        /* \"#utility.yul\":1615:1619   */\n      0x00\n        /* \"#utility.yul\":1705:1723   */\n      0xffffffffffffffff\n        /* \"#utility.yul\":1697:1703   */\n      dup3\n        /* \"#utility.yul\":1694:1724   */\n      gt\n        /* \"#utility.yul\":1691:1747   */\n      iszero\n      tag_398\n      jumpi\n        /* \"#utility.yul\":1727:1745   */\n      tag_399\n      tag_222\n      jump\t// in\n    tag_399:\n        /* \"#utility.yul\":1691:1747   */\n    tag_398:\n        /* \"#utility.yul\":1777:1781   */\n      0x20\n        /* \"#utility.yul\":1769:1775   */\n      dup3\n        /* \"#utility.yul\":1765:1782   */\n      mul\n        /* \"#utility.yul\":1757:1782   */\n      swap1\n      pop\n        /* \"#utility.yul\":1837:1841   */\n      0x20\n        /* \"#utility.yul\":1831:1835   */\n      dup2\n        /* \"#utility.yul\":1827:1842   */\n      add\n        /* \"#utility.yul\":1819:1842   */\n      swap1\n      pop\n        /* \"#utility.yul\":1541:1849   */\n      swap2\n      swap1\n      pop\n      jump\t// out\n        /* \"#utility.yul\":1855:1972   */\n    tag_330:\n        /* \"#utility.yul\":1964:1965   */\n      0x00\n        /* \"#utility.yul\":1961:1962   */\n      dup1\n        /* \"#utility.yul\":1954:1966   */\n      revert\n        /* \"#utility.yul\":1978:2068   */\n    tag_331:\n        /* \"#utility.yul\":2012:2019   */\n      0x00\n        /* \"#utility.yul\":2055:2060   */\n      dup2\n        /* \"#utility.yul\":2048:2061   */\n      iszero\n        /* \"#utility.yul\":2041:2062   */\n      iszero\n        /* \"#utility.yul\":2030:2062   */\n      swap1\n      pop\n        /* \"#utility.yul\":1978:2068   */\n      swap2\n      swap1\n      pop\n      jump\t// out\n        /* \"#utility.yul\":2074:2190   */\n    tag_332:\n        /* \"#utility.yul\":2144:2165   */\n      tag_403\n        /* \"#utility.yul\":2159:2164   */\n      dup2\n        /* \"#utility.yul\":2144:2165   */\n      tag_331\n      jump\t// in\n    tag_403:\n        /* \"#utility.yul\":2137:2142   */\n      dup2\n        /* \"#utility.yul\":2134:2166   */\n      eq\n        /* \"#utility.yul\":2124:2184   */\n      tag_404\n      jumpi\n        /* \"#utility.yul\":2180:2181   */\n      0x00\n        /* \"#utility.yul\":2177:2178   */\n      dup1\n        /* \"#utility.yul\":2170:2182   */\n      revert\n        /* \"#utility.yul\":2124:2184   */\n    tag_404:\n        /* \"#utility.yul\":2074:2190   */\n      pop\n      jump\t// out\n        /* \"#utility.yul\":2196:2329   */\n    tag_333:\n        /* \"#utility.yul\":2239:2244   */\n      0x00\n        /* \"#utility.yul\":2277:2283   */\n      dup2\n        /* \"#utility.yul\":2264:2284   */\n      calldataload\n        /* \"#utility.yul\":2255:2284   */\n      swap1\n      pop\n        /* \"#utility.yul\":2293:2323   */\n      tag_406\n        /* \"#utility.yul\":2317:2322   */\n      dup2\n        /* \"#utility.yul\":2293:2323   */\n      tag_332\n      jump\t// in\n    tag_406:\n        /* \"#utility.yul\":2196:2329   */\n      swap3\n      swap2\n      pop\n      pop\n      jump\t// out\n        /* \"#utility.yul\":2349:3050   */\n    tag_334:\n        /* \"#utility.yul\":2442:2447   */\n      0x00\n        /* \"#utility.yul\":2467:2545   */\n      tag_408\n        /* \"#utility.yul\":2483:2544   */\n      tag_409\n        /* \"#utility.yul\":2537:2543   */\n      dup5\n        /* \"#utility.yul\":2483:2544   */\n      tag_329\n      jump\t// in\n    tag_409:\n        /* \"#utility.yul\":2467:2545   */\n      tag_328\n      jump\t// in\n    tag_408:\n        /* \"#utility.yul\":2458:2545   */\n      swap1\n      pop\n        /* \"#utility.yul\":2565:2570   */\n      dup1\n        /* \"#utility.yul\":2594:2600   */\n      dup4\n        /* \"#utility.yul\":2587:2592   */\n      dup3\n        /* \"#utility.yul\":2580:2601   */\n      mstore\n        /* \"#utility.yul\":2628:2632   */\n      0x20\n        /* \"#utility.yul\":2621:2626   */\n      dup3\n        /* \"#utility.yul\":2617:2633   */\n      add\n        /* \"#utility.yul\":2610:2633   */\n      swap1\n      pop\n        /* \"#utility.yul\":2681:2685   */\n      0x20\n        /* \"#utility.yul\":2673:2679   */\n      dup5\n        /* \"#utility.yul\":2669:2686   */\n      mul\n        /* \"#utility.yul\":2661:2667   */\n      dup4\n        /* \"#utility.yul\":2657:2687   */\n      add\n        /* \"#utility.yul\":2710:2713   */\n      dup6\n        /* \"#utility.yul\":2702:2708   */\n      dup2\n        /* \"#utility.yul\":2699:2714   */\n      gt\n        /* \"#utility.yul\":2696:2818   */\n      iszero\n      tag_410\n      jumpi\n        /* \"#utility.yul\":2729:2808   */\n      tag_411\n      tag_330\n      jump\t// in\n    tag_411:\n        /* \"#utility.yul\":2696:2818   */\n    tag_410:\n        /* \"#utility.yul\":2844:2850   */\n      dup4\n        /* \"#utility.yul\":2827:3044   */\n    tag_412:\n        /* \"#utility.yul\":2861:2867   */\n      dup2\n        /* \"#utility.yul\":2856:2859   */\n      dup2\n        /* \"#utility.yul\":2853:2868   */\n      lt\n        /* \"#utility.yul\":2827:3044   */\n      iszero\n      tag_414\n      jumpi\n        /* \"#utility.yul\":2936:2939   */\n      dup1\n        /* \"#utility.yul\":2965:2999   */\n      tag_415\n        /* \"#utility.yul\":2995:2998   */\n      dup9\n        /* \"#utility.yul\":2983:2993   */\n      dup3\n        /* \"#utility.yul\":2965:2999   */\n      tag_333\n      jump\t// in\n    tag_415:\n        /* \"#utility.yul\":2960:2963   */\n      dup5\n        /* \"#utility.yul\":2953:3000   */\n      mstore\n        /* \"#utility.yul\":3029:3033   */\n      0x20\n        /* \"#utility.yul\":3024:3027   */\n      dup5\n        /* \"#utility.yul\":3020:3034   */\n      add\n        /* \"#utility.yul\":3013:3034   */\n      swap4\n      pop\n        /* \"#utility.yul\":2903:3044   */\n      pop\n        /* \"#utility.yul\":2887:2891   */\n      0x20\n        /* \"#utility.yul\":2882:2885   */\n      dup2\n        /* \"#utility.yul\":2878:2892   */\n      add\n        /* \"#utility.yul\":2871:2892   */\n      swap1\n      pop\n        /* \"#utility.yul\":2827:3044   */\n      jump(tag_412)\n    tag_414:\n        /* \"#utility.yul\":2831:2852   */\n      pop\n        /* \"#utility.yul\":2448:3050   */\n      pop\n      pop\n        /* \"#utility.yul\":2349:3050   */\n      swap4\n      swap3\n      pop\n      pop\n      pop\n      jump\t// out\n        /* \"#utility.yul\":3070:3434   */\n    tag_335:\n        /* \"#utility.yul\":3138:3143   */\n      0x00\n        /* \"#utility.yul\":3187:3190   */\n      dup3\n        /* \"#utility.yul\":3180:3184   */\n      0x1f\n        /* \"#utility.yul\":3172:3178   */\n      dup4\n        /* \"#utility.yul\":3168:3185   */\n      add\n        /* \"#utility.yul\":3164:3191   */\n      slt\n        /* \"#utility.yul\":3154:3276   */\n      tag_417\n      jumpi\n        /* \"#utility.yul\":3195:3274   */\n      tag_418\n      tag_325\n      jump\t// in\n    tag_418:\n        /* \"#utility.yul\":3154:3276   */\n    tag_417:\n        /* \"#utility.yul\":3312:3318   */\n      dup2\n        /* \"#utility.yul\":3299:3319   */\n      calldataload\n        /* \"#utility.yul\":3337:3428   */\n      tag_419\n        /* \"#utility.yul\":3424:3427   */\n      dup5\n        /* \"#utility.yul\":3416:3422   */\n      dup3\n        /* \"#utility.yul\":3409:3413   */\n      0x20\n        /* \"#utility.yul\":3401:3407   */\n      dup7\n        /* \"#utility.yul\":3397:3414   */\n      add\n        /* \"#utility.yul\":3337:3428   */\n      tag_334\n      jump\t// in\n    tag_419:\n        /* \"#utility.yul\":3328:3428   */\n      swap2\n      pop\n        /* \"#utility.yul\":3144:3434   */\n      pop\n        /* \"#utility.yul\":3070:3434   */\n      swap3\n      swap2\n      pop\n      pop\n      jump\t// out\n        /* \"#utility.yul\":3440:4116   */\n    tag_13:\n        /* \"#utility.yul\":3529:3535   */\n      0x00\n        /* \"#utility.yul\":3537:3543   */\n      dup1\n        /* \"#utility.yul\":3586:3588   */\n      0x40\n        /* \"#utility.yul\":3574:3583   */\n      dup4\n        /* \"#utility.yul\":3565:3572   */\n      dup6\n        /* \"#utility.yul\":3561:3584   */\n      sub\n        /* \"#utility.yul\":3557:3589   */\n      slt\n        /* \"#utility.yul\":3554:3673   */\n      iszero\n      tag_421\n      jumpi\n        /* \"#utility.yul\":3592:3671   */\n      tag_422\n      tag_320\n      jump\t// in\n    tag_422:\n        /* \"#utility.yul\":3554:3673   */\n    tag_421:\n        /* \"#utility.yul\":3712:3713   */\n      0x00\n        /* \"#utility.yul\":3737:3789   */\n      tag_423\n        /* \"#utility.yul\":3781:3788   */\n      dup6\n        /* \"#utility.yul\":3772:3778   */\n      dup3\n        /* \"#utility.yul\":3761:3770   */\n      dup7\n        /* \"#utility.yul\":3757:3779   */\n      add\n        /* \"#utility.yul\":3737:3789   */\n      tag_324\n      jump\t// in\n    tag_423:\n        /* \"#utility.yul\":3727:3789   */\n      swap3\n      pop\n        /* \"#utility.yul\":3683:3799   */\n      pop\n        /* \"#utility.yul\":3866:3868   */\n      0x20\n        /* \"#utility.yul\":3855:3864   */\n      dup4\n        /* \"#utility.yul\":3851:3869   */\n      add\n        /* \"#utility.yul\":3838:3870   */\n      calldataload\n        /* \"#utility.yul\":3897:3915   */\n      0xffffffffffffffff\n        /* \"#utility.yul\":3889:3895   */\n      dup2\n        /* \"#utility.yul\":3886:3916   */\n      gt\n        /* \"#utility.yul\":3883:4000   */\n      iszero\n      tag_424\n      jumpi\n        /* \"#utility.yul\":3919:3998   */\n      tag_425\n      tag_321\n      jump\t// in\n    tag_425:\n        /* \"#utility.yul\":3883:4000   */\n    tag_424:\n        /* \"#utility.yul\":4024:4099   */\n      tag_426\n        /* \"#utility.yul\":4091:4098   */\n      dup6\n        /* \"#utility.yul\":4082:4088   */\n      dup3\n        /* \"#utility.yul\":4071:4080   */\n      dup7\n        /* \"#utility.yul\":4067:4089   */\n      add\n        /* \"#utility.yul\":4024:4099   */\n      tag_335\n      jump\t// in\n    tag_426:\n        /* \"#utility.yul\":4014:4099   */\n      swap2\n      pop\n        /* \"#utility.yul\":3809:4109   */\n      pop\n        /* \"#utility.yul\":3440:4116   */\n      swap3\n      pop\n      swap3\n      swap1\n      pop\n      jump\t// out\n        /* \"#utility.yul\":4122:4231   */\n    tag_336:\n        /* \"#utility.yul\":4203:4224   */\n      tag_428\n        /* \"#utility.yul\":4218:4223   */\n      dup2\n        /* \"#utility.yul\":4203:4224   */\n      tag_331\n      jump\t// in\n    tag_428:\n        /* \"#utility.yul\":4198:4201   */\n      dup3\n        /* \"#utility.yul\":4191:4225   */\n      mstore\n        /* \"#utility.yul\":4122:4231   */\n      pop\n      pop\n      jump\t// out\n        /* \"#utility.yul\":4237:4447   */\n    tag_16:\n        /* \"#utility.yul\":4324:4328   */\n      0x00\n        /* \"#utility.yul\":4362:4364   */\n      0x20\n        /* \"#utility.yul\":4351:4360   */\n      dup3\n        /* \"#utility.yul\":4347:4365   */\n      add\n        /* \"#utility.yul\":4339:4365   */\n      swap1\n      pop\n        /* \"#utility.yul\":4375:4440   */\n      tag_430\n        /* \"#utility.yul\":4437:4438   */\n      0x00\n        /* \"#utility.yul\":4426:4435   */\n      dup4\n        /* \"#utility.yul\":4422:4439   */\n      add\n        /* \"#utility.yul\":4413:4419   */\n      dup5\n        /* \"#utility.yul\":4375:4440   */\n      tag_336\n      jump\t// in\n    tag_430:\n        /* \"#utility.yul\":4237:4447   */\n      swap3\n      swap2\n      pop\n      pop\n      jump\t// out\n        /* \"#utility.yul\":4453:4570   */\n    tag_337:\n        /* \"#utility.yul\":4562:4563   */\n      0x00\n        /* \"#utility.yul\":4559:4560   */\n      dup1\n        /* \"#utility.yul\":4552:4564   */\n      revert\n        /* \"#utility.yul\":4576:4884   */\n    tag_338:\n        /* \"#utility.yul\":4638:4642   */\n      0x00\n        /* \"#utility.yul\":4728:4746   */\n      0xffffffffffffffff\n        /* \"#utility.yul\":4720:4726   */\n      dup3\n        /* \"#utility.yul\":4717:4747   */\n      gt\n        /* \"#utility.yul\":4714:4770   */\n      iszero\n      tag_433\n      jumpi\n        /* \"#utility.yul\":4750:4768   */\n      tag_434\n      tag_222\n      jump\t// in\n    tag_434:\n        /* \"#utility.yul\":4714:4770   */\n    tag_433:\n        /* \"#utility.yul\":4788:4817   */\n      tag_435\n        /* \"#utility.yul\":4810:4816   */\n      dup3\n        /* \"#utility.yul\":4788:4817   */\n      tag_326\n      jump\t// in\n    tag_435:\n        /* \"#utility.yul\":4780:4817   */\n      swap1\n      pop\n        /* \"#utility.yul\":4872:4876   */\n      0x20\n        /* \"#utility.yul\":4866:4870   */\n      dup2\n        /* \"#utility.yul\":4862:4877   */\n      add\n        /* \"#utility.yul\":4854:4877   */\n      swap1\n      pop\n        /* \"#utility.yul\":4576:4884   */\n      swap2\n      swap1\n      pop\n      jump\t// out\n        /* \"#utility.yul\":4890:5044   */\n    tag_339:\n        /* \"#utility.yul\":4974:4980   */\n      dup3\n        /* \"#utility.yul\":4969:4972   */\n      dup2\n        /* \"#utility.yul\":4964:4967   */\n      dup4\n        /* \"#utility.yul\":4951:4981   */\n      calldatacopy\n        /* \"#utility.yul\":5036:5037   */\n      0x00\n        /* \"#utility.yul\":5027:5033   */\n      dup4\n        /* \"#utility.yul\":5022:5025   */\n      dup4\n        /* \"#utility.yul\":5018:5034   */\n      add\n        /* \"#utility.yul\":5011:5038   */\n      mstore\n        /* \"#utility.yul\":4890:5044   */\n      pop\n      pop\n      pop\n      jump\t// out\n        /* \"#utility.yul\":5050:5462   */\n    tag_340:\n        /* \"#utility.yul\":5128:5133   */\n      0x00\n        /* \"#utility.yul\":5153:5219   */\n      tag_438\n        /* \"#utility.yul\":5169:5218   */\n      tag_439\n        /* \"#utility.yul\":5211:5217   */\n      dup5\n        /* \"#utility.yul\":5169:5218   */\n      tag_338\n      jump\t// in\n    tag_439:\n        /* \"#utility.yul\":5153:5219   */\n      tag_328\n      jump\t// in\n    tag_438:\n        /* \"#utility.yul\":5144:5219   */\n      swap1\n      pop\n        /* \"#utility.yul\":5242:5248   */\n      dup3\n        /* \"#utility.yul\":5235:5240   */\n      dup2\n        /* \"#utility.yul\":5228:5249   */\n      mstore\n        /* \"#utility.yul\":5280:5284   */\n      0x20\n        /* \"#utility.yul\":5273:5278   */\n      dup2\n        /* \"#utility.yul\":5269:5285   */\n      add\n        /* \"#utility.yul\":5318:5321   */\n      dup5\n        /* \"#utility.yul\":5309:5315   */\n      dup5\n        /* \"#utility.yul\":5304:5307   */\n      dup5\n        /* \"#utility.yul\":5300:5316   */\n      add\n        /* \"#utility.yul\":5297:5322   */\n      gt\n        /* \"#utility.yul\":5294:5406   */\n      iszero\n      tag_440\n      jumpi\n        /* \"#utility.yul\":5325:5404   */\n      tag_441\n      tag_337\n      jump\t// in\n    tag_441:\n        /* \"#utility.yul\":5294:5406   */\n    tag_440:\n        /* \"#utility.yul\":5415:5456   */\n      tag_442\n        /* \"#utility.yul\":5449:5455   */\n      dup5\n        /* \"#utility.yul\":5444:5447   */\n      dup3\n        /* \"#utility.yul\":5439:5442   */\n      dup6\n        /* \"#utility.yul\":5415:5456   */\n      tag_339\n      jump\t// in\n    tag_442:\n        /* \"#utility.yul\":5134:5462   */\n      pop\n        /* \"#utility.yul\":5050:5462   */\n      swap4\n      swap3\n      pop\n      pop\n      pop\n      jump\t// out\n        /* \"#utility.yul\":5482:5822   */\n    tag_341:\n        /* \"#utility.yul\":5538:5543   */\n      0x00\n        /* \"#utility.yul\":5587:5590   */\n      dup3\n        /* \"#utility.yul\":5580:5584   */\n      0x1f\n        /* \"#utility.yul\":5572:5578   */\n      dup4\n        /* \"#utility.yul\":5568:5585   */\n      add\n        /* \"#utility.yul\":5564:5591   */\n      slt\n        /* \"#utility.yul\":5554:5676   */\n      tag_444\n      jumpi\n        /* \"#utility.yul\":5595:5674   */\n      tag_445\n      tag_325\n      jump\t// in\n    tag_445:\n        /* \"#utility.yul\":5554:5676   */\n    tag_444:\n        /* \"#utility.yul\":5712:5718   */\n      dup2\n        /* \"#utility.yul\":5699:5719   */\n      calldataload\n        /* \"#utility.yul\":5737:5816   */\n      tag_446\n        /* \"#utility.yul\":5812:5815   */\n      dup5\n        /* \"#utility.yul\":5804:5810   */\n      dup3\n        /* \"#utility.yul\":5797:5801   */\n      0x20\n        /* \"#utility.yul\":5789:5795   */\n      dup7\n        /* \"#utility.yul\":5785:5802   */\n      add\n        /* \"#utility.yul\":5737:5816   */\n      tag_340\n      jump\t// in\n    tag_446:\n        /* \"#utility.yul\":5728:5816   */\n      swap2\n      pop\n        /* \"#utility.yul\":5544:5822   */\n      pop\n        /* \"#utility.yul\":5482:5822   */\n      swap3\n      swap2\n      pop\n      pop\n      jump\t// out\n        /* \"#utility.yul\":5828:5954   */\n    tag_342:\n        /* \"#utility.yul\":5865:5872   */\n      0x00\n        /* \"#utility.yul\":5905:5947   */\n      0xffffffffffffffffffffffffffffffffffffffff\n        /* \"#utility.yul\":5898:5903   */\n      dup3\n        /* \"#utility.yul\":5894:5948   */\n      and\n        /* \"#utility.yul\":5883:5948   */\n      swap1\n      pop\n        /* \"#utility.yul\":5828:5954   */\n      swap2\n      swap1\n      pop\n      jump\t// out\n        /* \"#utility.yul\":5960:6056   */\n    tag_343:\n        /* \"#utility.yul\":5997:6004   */\n      0x00\n        /* \"#utility.yul\":6026:6050   */\n      tag_449\n        /* \"#utility.yul\":6044:6049   */\n      dup3\n        /* \"#utility.yul\":6026:6050   */\n      tag_342\n      jump\t// in\n    tag_449:\n        /* \"#utility.yul\":6015:6050   */\n      swap1\n      pop\n        /* \"#utility.yul\":5960:6056   */\n      swap2\n      swap1\n      pop\n      jump\t// out\n        /* \"#utility.yul\":6062:6184   */\n    tag_344:\n        /* \"#utility.yul\":6135:6159   */\n      tag_451\n        /* \"#utility.yul\":6153:6158   */\n      dup2\n        /* \"#utility.yul\":6135:6159   */\n      tag_343\n      jump\t// in\n    tag_451:\n        /* \"#utility.yul\":6128:6133   */\n      dup2\n        /* \"#utility.yul\":6125:6160   */\n      eq\n        /* \"#utility.yul\":6115:6178   */\n      tag_452\n      jumpi\n        /* \"#utility.yul\":6174:6175   */\n      0x00\n        /* \"#utility.yul\":6171:6172   */\n      dup1\n        /* \"#utility.yul\":6164:6176   */\n      revert\n        /* \"#utility.yul\":6115:6178   */\n    tag_452:\n        /* \"#utility.yul\":6062:6184   */\n      pop\n      jump\t// out\n        /* \"#utility.yul\":6190:6329   */\n    tag_345:\n        /* \"#utility.yul\":6236:6241   */\n      0x00\n        /* \"#utility.yul\":6274:6280   */\n      dup2\n        /* \"#utility.yul\":6261:6281   */\n      calldataload\n        /* \"#utility.yul\":6252:6281   */\n      swap1\n      pop\n        /* \"#utility.yul\":6290:6323   */\n      tag_454\n        /* \"#utility.yul\":6317:6322   */\n      dup2\n        /* \"#utility.yul\":6290:6323   */\n      tag_344\n      jump\t// in\n    tag_454:\n        /* \"#utility.yul\":6190:6329   */\n      swap3\n      swap2\n      pop\n      pop\n      jump\t// out\n        /* \"#utility.yul\":6335:6989   */\n    tag_23:\n        /* \"#utility.yul\":6413:6419   */\n      0x00\n        /* \"#utility.yul\":6421:6427   */\n      dup1\n        /* \"#utility.yul\":6470:6472   */\n      0x40\n        /* \"#utility.yul\":6458:6467   */\n      dup4\n        /* \"#utility.yul\":6449:6456   */\n      dup6\n        /* \"#utility.yul\":6445:6468   */\n      sub\n        /* \"#utility.yul\":6441:6473   */\n      slt\n        /* \"#utility.yul\":6438:6557   */\n      iszero\n      tag_456\n      jumpi\n        /* \"#utility.yul\":6476:6555   */\n      tag_457\n      tag_320\n      jump\t// in\n    tag_457:\n        /* \"#utility.yul\":6438:6557   */\n    tag_456:\n        /* \"#utility.yul\":6624:6625   */\n      0x00\n        /* \"#utility.yul\":6613:6622   */\n      dup4\n        /* \"#utility.yul\":6609:6626   */\n      add\n        /* \"#utility.yul\":6596:6627   */\n      calldataload\n        /* \"#utility.yul\":6654:6672   */\n      0xffffffffffffffff\n        /* \"#utility.yul\":6646:6652   */\n      dup2\n        /* \"#utility.yul\":6643:6673   */\n      gt\n        /* \"#utility.yul\":6640:6757   */\n      iszero\n      tag_458\n      jumpi\n        /* \"#utility.yul\":6676:6755   */\n      tag_459\n      tag_321\n      jump\t// in\n    tag_459:\n        /* \"#utility.yul\":6640:6757   */\n    tag_458:\n        /* \"#utility.yul\":6781:6844   */\n      tag_460\n        /* \"#utility.yul\":6836:6843   */\n      dup6\n        /* \"#utility.yul\":6827:6833   */\n      dup3\n        /* \"#utility.yul\":6816:6825   */\n      dup7\n        /* \"#utility.yul\":6812:6834   */\n      add\n        /* \"#utility.yul\":6781:6844   */\n      tag_341\n      jump\t// in\n    tag_460:\n        /* \"#utility.yul\":6771:6844   */\n      swap3\n      pop\n        /* \"#utility.yul\":6567:6854   */\n      pop\n        /* \"#utility.yul\":6893:6895   */\n      0x20\n        /* \"#utility.yul\":6919:6972   */\n      tag_461\n        /* \"#utility.yul\":6964:6971   */\n      dup6\n        /* \"#utility.yul\":6955:6961   */\n      dup3\n        /* \"#utility.yul\":6944:6953   */\n      dup7\n        /* \"#utility.yul\":6940:6962   */\n      add\n        /* \"#utility.yul\":6919:6972   */\n      tag_345\n      jump\t// in\n    tag_461:\n        /* \"#utility.yul\":6909:6972   */\n      swap2\n      pop\n        /* \"#utility.yul\":6864:6982   */\n      pop\n        /* \"#utility.yul\":6335:6989   */\n      swap3\n      pop\n      swap3\n      swap1\n      pop\n      jump\t// out\n        /* \"#utility.yul\":6995:7113   */\n    tag_346:\n        /* \"#utility.yul\":7082:7106   */\n      tag_463\n        /* \"#utility.yul\":7100:7105   */\n      dup2\n        /* \"#utility.yul\":7082:7106   */\n      tag_343\n      jump\t// in\n    tag_463:\n        /* \"#utility.yul\":7077:7080   */\n      dup3\n        /* \"#utility.yul\":7070:7107   */\n      mstore\n        /* \"#utility.yul\":6995:7113   */\n      pop\n      pop\n      jump\t// out\n        /* \"#utility.yul\":7119:7341   */\n    tag_29:\n        /* \"#utility.yul\":7212:7216   */\n      0x00\n        /* \"#utility.yul\":7250:7252   */\n      0x20\n        /* \"#utility.yul\":7239:7248   */\n      dup3\n        /* \"#utility.yul\":7235:7253   */\n      add\n        /* \"#utility.yul\":7227:7253   */\n      swap1\n      pop\n        /* \"#utility.yul\":7263:7334   */\n      tag_465\n        /* \"#utility.yul\":7331:7332   */\n      0x00\n        /* \"#utility.yul\":7320:7329   */\n      dup4\n        /* \"#utility.yul\":7316:7333   */\n      add\n        /* \"#utility.yul\":7307:7313   */\n      dup5\n        /* \"#utility.yul\":7263:7334   */\n      tag_346\n      jump\t// in\n    tag_465:\n        /* \"#utility.yul\":7119:7341   */\n      swap3\n      swap2\n      pop\n      pop\n      jump\t// out\n        /* \"#utility.yul\":7347:7676   */\n    tag_38:\n        /* \"#utility.yul\":7406:7412   */\n      0x00\n        /* \"#utility.yul\":7455:7457   */\n      0x20\n        /* \"#utility.yul\":7443:7452   */\n      dup3\n        /* \"#utility.yul\":7434:7441   */\n      dup5\n        /* \"#utility.yul\":7430:7453   */\n      sub\n        /* \"#utility.yul\":7426:7458   */\n      slt\n        /* \"#utility.yul\":7423:7542   */\n      iszero\n      tag_467\n      jumpi\n        /* \"#utility.yul\":7461:7540   */\n      tag_468\n      tag_320\n      jump\t// in\n    tag_468:\n        /* \"#utility.yul\":7423:7542   */\n    tag_467:\n        /* \"#utility.yul\":7581:7582   */\n      0x00\n        /* \"#utility.yul\":7606:7659   */\n      tag_469\n        /* \"#utility.yul\":7651:7658   */\n      dup5\n        /* \"#utility.yul\":7642:7648   */\n      dup3\n        /* \"#utility.yul\":7631:7640   */\n      dup6\n        /* \"#utility.yul\":7627:7649   */\n      add\n        /* \"#utility.yul\":7606:7659   */\n      tag_345\n      jump\t// in\n    tag_469:\n        /* \"#utility.yul\":7596:7659   */\n      swap2\n      pop\n        /* \"#utility.yul\":7552:7669   */\n      pop\n        /* \"#utility.yul\":7347:7676   */\n      swap3\n      swap2\n      pop\n      pop\n      jump\t// out\n        /* \"#utility.yul\":7682:7781   */\n    tag_347:\n        /* \"#utility.yul\":7734:7740   */\n      0x00\n        /* \"#utility.yul\":7768:7773   */\n      dup2\n        /* \"#utility.yul\":7762:7774   */\n      mload\n        /* \"#utility.yul\":7752:7774   */\n      swap1\n      pop\n        /* \"#utility.yul\":7682:7781   */\n      swap2\n      swap1\n      pop\n      jump\t// out\n        /* \"#utility.yul\":7787:7946   */\n    tag_348:\n        /* \"#utility.yul\":7861:7872   */\n      0x00\n        /* \"#utility.yul\":7895:7901   */\n      dup3\n        /* \"#utility.yul\":7890:7893   */\n      dup3\n        /* \"#utility.yul\":7883:7902   */\n      mstore\n        /* \"#utility.yul\":7935:7939   */\n      0x20\n        /* \"#utility.yul\":7930:7933   */\n      dup3\n        /* \"#utility.yul\":7926:7940   */\n      add\n        /* \"#utility.yul\":7911:7940   */\n      swap1\n      pop\n        /* \"#utility.yul\":7787:7946   */\n      swap3\n      swap2\n      pop\n      pop\n      jump\t// out\n        /* \"#utility.yul\":7952:8259   */\n    tag_349:\n        /* \"#utility.yul\":8020:8021   */\n      0x00\n        /* \"#utility.yul\":8030:8143   */\n    tag_473:\n        /* \"#utility.yul\":8044:8050   */\n      dup4\n        /* \"#utility.yul\":8041:8042   */\n      dup2\n        /* \"#utility.yul\":8038:8051   */\n      lt\n        /* \"#utility.yul\":8030:8143   */\n      iszero\n      tag_475\n      jumpi\n        /* \"#utility.yul\":8129:8130   */\n      dup1\n        /* \"#utility.yul\":8124:8127   */\n      dup3\n        /* \"#utility.yul\":8120:8131   */\n      add\n        /* \"#utility.yul\":8114:8132   */\n      mload\n        /* \"#utility.yul\":8110:8111   */\n      dup2\n        /* \"#utility.yul\":8105:8108   */\n      dup5\n        /* \"#utility.yul\":8101:8112   */\n      add\n        /* \"#utility.yul\":8094:8133   */\n      mstore\n        /* \"#utility.yul\":8066:8068   */\n      0x20\n        /* \"#utility.yul\":8063:8064   */\n      dup2\n        /* \"#utility.yul\":8059:8069   */\n      add\n        /* \"#utility.yul\":8054:8069   */\n      swap1\n      pop\n        /* \"#utility.yul\":8030:8143   */\n      jump(tag_473)\n    tag_475:\n        /* \"#utility.yul\":8161:8167   */\n      dup4\n        /* \"#utility.yul\":8158:8159   */\n      dup2\n        /* \"#utility.yul\":8155:8168   */\n      gt\n        /* \"#utility.yul\":8152:8253   */\n      iszero\n      tag_476\n      jumpi\n        /* \"#utility.yul\":8241:8242   */\n      0x00\n        /* \"#utility.yul\":8232:8238   */\n      dup5\n        /* \"#utility.yul\":8227:8230   */\n      dup5\n        /* \"#utility.yul\":8223:8239   */\n      add\n        /* \"#utility.yul\":8216:8243   */\n      mstore\n        /* \"#utility.yul\":8152:8253   */\n    tag_476:\n        /* \"#utility.yul\":8001:8259   */\n      pop\n        /* \"#utility.yul\":7952:8259   */\n      pop\n      pop\n      pop\n      jump\t// out\n        /* \"#utility.yul\":8265:8609   */\n    tag_350:\n        /* \"#utility.yul\":8343:8346   */\n      0x00\n        /* \"#utility.yul\":8371:8410   */\n      tag_478\n        /* \"#utility.yul\":8404:8409   */\n      dup3\n        /* \"#utility.yul\":8371:8410   */\n      tag_347\n      jump\t// in\n    tag_478:\n        /* \"#utility.yul\":8426:8487   */\n      tag_479\n        /* \"#utility.yul\":8480:8486   */\n      dup2\n        /* \"#utility.yul\":8475:8478   */\n      dup6\n        /* \"#utility.yul\":8426:8487   */\n      tag_348\n      jump\t// in\n    tag_479:\n        /* \"#utility.yul\":8419:8487   */\n      swap4\n      pop\n        /* \"#utility.yul\":8496:8548   */\n      tag_480\n        /* \"#utility.yul\":8541:8547   */\n      dup2\n        /* \"#utility.yul\":8536:8539   */\n      dup6\n        /* \"#utility.yul\":8529:8533   */\n      0x20\n        /* \"#utility.yul\":8522:8527   */\n      dup7\n        /* \"#utility.yul\":8518:8534   */\n      add\n        /* \"#utility.yul\":8496:8548   */\n      tag_349\n      jump\t// in\n    tag_480:\n        /* \"#utility.yul\":8573:8602   */\n      tag_481\n        /* \"#utility.yul\":8595:8601   */\n      dup2\n        /* \"#utility.yul\":8573:8602   */\n      tag_326\n      jump\t// in\n    tag_481:\n        /* \"#utility.yul\":8568:8571   */\n      dup5\n        /* \"#utility.yul\":8564:8603   */\n      add\n        /* \"#utility.yul\":8557:8603   */\n      swap2\n      pop\n        /* \"#utility.yul\":8347:8609   */\n      pop\n        /* \"#utility.yul\":8265:8609   */\n      swap3\n      swap2\n      pop\n      pop\n      jump\t// out\n        /* \"#utility.yul\":8615:8723   */\n    tag_351:\n        /* \"#utility.yul\":8692:8716   */\n      tag_483\n        /* \"#utility.yul\":8710:8715   */\n      dup2\n        /* \"#utility.yul\":8692:8716   */\n      tag_343\n      jump\t// in\n    tag_483:\n        /* \"#utility.yul\":8687:8690   */\n      dup3\n        /* \"#utility.yul\":8680:8717   */\n      mstore\n        /* \"#utility.yul\":8615:8723   */\n      pop\n      pop\n      jump\t// out\n        /* \"#utility.yul\":8729:8828   */\n    tag_352:\n        /* \"#utility.yul\":8800:8821   */\n      tag_485\n        /* \"#utility.yul\":8815:8820   */\n      dup2\n        /* \"#utility.yul\":8800:8821   */\n      tag_331\n      jump\t// in\n    tag_485:\n        /* \"#utility.yul\":8795:8798   */\n      dup3\n        /* \"#utility.yul\":8788:8822   */\n      mstore\n        /* \"#utility.yul\":8729:8828   */\n      pop\n      pop\n      jump\t// out\n        /* \"#utility.yul\":8878:9654   */\n    tag_353:\n        /* \"#utility.yul\":8989:8992   */\n      0x00\n        /* \"#utility.yul\":9025:9029   */\n      0x60\n        /* \"#utility.yul\":9020:9023   */\n      dup4\n        /* \"#utility.yul\":9016:9030   */\n      add\n        /* \"#utility.yul\":9112:9116   */\n      0x00\n        /* \"#utility.yul\":9105:9110   */\n      dup4\n        /* \"#utility.yul\":9101:9117   */\n      add\n        /* \"#utility.yul\":9095:9118   */\n      mload\n        /* \"#utility.yul\":9165:9168   */\n      dup5\n        /* \"#utility.yul\":9159:9163   */\n      dup3\n        /* \"#utility.yul\":9155:9169   */\n      sub\n        /* \"#utility.yul\":9148:9152   */\n      0x00\n        /* \"#utility.yul\":9143:9146   */\n      dup7\n        /* \"#utility.yul\":9139:9153   */\n      add\n        /* \"#utility.yul\":9132:9170   */\n      mstore\n        /* \"#utility.yul\":9191:9264   */\n      tag_487\n        /* \"#utility.yul\":9259:9263   */\n      dup3\n        /* \"#utility.yul\":9245:9257   */\n      dup3\n        /* \"#utility.yul\":9191:9264   */\n      tag_350\n      jump\t// in\n    tag_487:\n        /* \"#utility.yul\":9183:9264   */\n      swap2\n      pop\n        /* \"#utility.yul\":9040:9275   */\n      pop\n        /* \"#utility.yul\":9366:9370   */\n      0x20\n        /* \"#utility.yul\":9359:9364   */\n      dup4\n        /* \"#utility.yul\":9355:9371   */\n      add\n        /* \"#utility.yul\":9349:9372   */\n      mload\n        /* \"#utility.yul\":9385:9448   */\n      tag_488\n        /* \"#utility.yul\":9442:9446   */\n      0x20\n        /* \"#utility.yul\":9437:9440   */\n      dup7\n        /* \"#utility.yul\":9433:9447   */\n      add\n        /* \"#utility.yul\":9419:9431   */\n      dup3\n        /* \"#utility.yul\":9385:9448   */\n      tag_351\n      jump\t// in\n    tag_488:\n        /* \"#utility.yul\":9285:9458   */\n      pop\n        /* \"#utility.yul\":9541:9545   */\n      0x40\n        /* \"#utility.yul\":9534:9539   */\n      dup4\n        /* \"#utility.yul\":9530:9546   */\n      add\n        /* \"#utility.yul\":9524:9547   */\n      mload\n        /* \"#utility.yul\":9560:9617   */\n      tag_489\n        /* \"#utility.yul\":9611:9615   */\n      0x40\n        /* \"#utility.yul\":9606:9609   */\n      dup7\n        /* \"#utility.yul\":9602:9616   */\n      add\n        /* \"#utility.yul\":9588:9600   */\n      dup3\n        /* \"#utility.yul\":9560:9617   */\n      tag_352\n      jump\t// in\n    tag_489:\n        /* \"#utility.yul\":9468:9627   */\n      pop\n        /* \"#utility.yul\":9644:9648   */\n      dup1\n        /* \"#utility.yul\":9637:9648   */\n      swap2\n      pop\n        /* \"#utility.yul\":8994:9654   */\n      pop\n        /* \"#utility.yul\":8878:9654   */\n      swap3\n      swap2\n      pop\n      pop\n      jump\t// out\n        /* \"#utility.yul\":9660:10017   */\n    tag_41:\n        /* \"#utility.yul\":9795:9799   */\n      0x00\n        /* \"#utility.yul\":9833:9835   */\n      0x20\n        /* \"#utility.yul\":9822:9831   */\n      dup3\n        /* \"#utility.yul\":9818:9836   */\n      add\n        /* \"#utility.yul\":9810:9836   */\n      swap1\n      pop\n        /* \"#utility.yul\":9882:9891   */\n      dup2\n        /* \"#utility.yul\":9876:9880   */\n      dup2\n        /* \"#utility.yul\":9872:9892   */\n      sub\n        /* \"#utility.yul\":9868:9869   */\n      0x00\n        /* \"#utility.yul\":9857:9866   */\n      dup4\n        /* \"#utility.yul\":9853:9870   */\n      add\n        /* \"#utility.yul\":9846:9893   */\n      mstore\n        /* \"#utility.yul\":9910:10010   */\n      tag_491\n        /* \"#utility.yul\":10005:10009   */\n      dup2\n        /* \"#utility.yul\":9996:10002   */\n      dup5\n        /* \"#utility.yul\":9910:10010   */\n      tag_353\n      jump\t// in\n    tag_491:\n        /* \"#utility.yul\":9902:10010   */\n      swap1\n      pop\n        /* \"#utility.yul\":9660:10017   */\n      swap3\n      swap2\n      pop\n      pop\n      jump\t// out\n        /* \"#utility.yul\":10023:10192   */\n    tag_354:\n        /* \"#utility.yul\":10107:10118   */\n      0x00\n        /* \"#utility.yul\":10141:10147   */\n      dup3\n        /* \"#utility.yul\":10136:10139   */\n      dup3\n        /* \"#utility.yul\":10129:10148   */\n      mstore\n        /* \"#utility.yul\":10181:10185   */\n      0x20\n        /* \"#utility.yul\":10176:10179   */\n      dup3\n        /* \"#utility.yul\":10172:10186   */\n      add\n        /* \"#utility.yul\":10157:10186   */\n      swap1\n      pop\n        /* \"#utility.yul\":10023:10192   */\n      swap3\n      swap2\n      pop\n      pop\n      jump\t// out\n        /* \"#utility.yul\":10198:10376   */\n    tag_355:\n        /* \"#utility.yul\":10338:10368   */\n      0x5468697320636f6e747261637420697320646561637469766174656400000000\n        /* \"#utility.yul\":10334:10335   */\n      0x00\n        /* \"#utility.yul\":10326:10332   */\n      dup3\n        /* \"#utility.yul\":10322:10336   */\n      add\n        /* \"#utility.yul\":10315:10369   */\n      mstore\n        /* \"#utility.yul\":10198:10376   */\n      pop\n      jump\t// out\n        /* \"#utility.yul\":10382:10748   */\n    tag_356:\n        /* \"#utility.yul\":10524:10527   */\n      0x00\n        /* \"#utility.yul\":10545:10612   */\n      tag_495\n        /* \"#utility.yul\":10609:10611   */\n      0x1c\n        /* \"#utility.yul\":10604:10607   */\n      dup4\n        /* \"#utility.yul\":10545:10612   */\n      tag_354\n      jump\t// in\n    tag_495:\n        /* \"#utility.yul\":10538:10612   */\n      swap2\n      pop\n        /* \"#utility.yul\":10621:10714   */\n      tag_496\n        /* \"#utility.yul\":10710:10713   */\n      dup3\n        /* \"#utility.yul\":10621:10714   */\n      tag_355\n      jump\t// in\n    tag_496:\n        /* \"#utility.yul\":10739:10741   */\n      0x20\n        /* \"#utility.yul\":10734:10737   */\n      dup3\n        /* \"#utility.yul\":10730:10742   */\n      add\n        /* \"#utility.yul\":10723:10742   */\n      swap1\n      pop\n        /* \"#utility.yul\":10382:10748   */\n      swap2\n      swap1\n      pop\n      jump\t// out\n        /* \"#utility.yul\":10754:11173   */\n    tag_49:\n        /* \"#utility.yul\":10920:10924   */\n      0x00\n        /* \"#utility.yul\":10958:10960   */\n      0x20\n        /* \"#utility.yul\":10947:10956   */\n      dup3\n        /* \"#utility.yul\":10943:10961   */\n      add\n        /* \"#utility.yul\":10935:10961   */\n      swap1\n      pop\n        /* \"#utility.yul\":11007:11016   */\n      dup2\n        /* \"#utility.yul\":11001:11005   */\n      dup2\n        /* \"#utility.yul\":10997:11017   */\n      sub\n        /* \"#utility.yul\":10993:10994   */\n      0x00\n        /* \"#utility.yul\":10982:10991   */\n      dup4\n        /* \"#utility.yul\":10978:10995   */\n      add\n        /* \"#utility.yul\":10971:11018   */\n      mstore\n        /* \"#utility.yul\":11035:11166   */\n      tag_498\n        /* \"#utility.yul\":11161:11165   */\n      dup2\n        /* \"#utility.yul\":11035:11166   */\n      tag_356\n      jump\t// in\n    tag_498:\n        /* \"#utility.yul\":11027:11166   */\n      swap1\n      pop\n        /* \"#utility.yul\":10754:11173   */\n      swap2\n      swap1\n      pop\n      jump\t// out\n        /* \"#utility.yul\":11179:11413   */\n    tag_357:\n        /* \"#utility.yul\":11319:11353   */\n      0x4f6e6c7920746865206170706c69636174696f6e2063616e2065786563757465\n        /* \"#utility.yul\":11315:11316   */\n      0x00\n        /* \"#utility.yul\":11307:11313   */\n      dup3\n        /* \"#utility.yul\":11303:11317   */\n      add\n        /* \"#utility.yul\":11296:11354   */\n      mstore\n        /* \"#utility.yul\":11388:11405   */\n      0x2074686973206f7065726174696f6e0000000000000000000000000000000000\n        /* \"#utility.yul\":11383:11385   */\n      0x20\n        /* \"#utility.yul\":11375:11381   */\n      dup3\n        /* \"#utility.yul\":11371:11386   */\n      add\n        /* \"#utility.yul\":11364:11406   */\n      mstore\n        /* \"#utility.yul\":11179:11413   */\n      pop\n      jump\t// out\n        /* \"#utility.yul\":11419:11785   */\n    tag_358:\n        /* \"#utility.yul\":11561:11564   */\n      0x00\n        /* \"#utility.yul\":11582:11649   */\n      tag_501\n        /* \"#utility.yul\":11646:11648   */\n      0x2f\n        /* \"#utility.yul\":11641:11644   */\n      dup4\n        /* \"#utility.yul\":11582:11649   */\n      tag_354\n      jump\t// in\n    tag_501:\n        /* \"#utility.yul\":11575:11649   */\n      swap2\n      pop\n        /* \"#utility.yul\":11658:11751   */\n      tag_502\n        /* \"#utility.yul\":11747:11750   */\n      dup3\n        /* \"#utility.yul\":11658:11751   */\n      tag_357\n      jump\t// in\n    tag_502:\n        /* \"#utility.yul\":11776:11778   */\n      0x40\n        /* \"#utility.yul\":11771:11774   */\n      dup3\n        /* \"#utility.yul\":11767:11779   */\n      add\n        /* \"#utility.yul\":11760:11779   */\n      swap1\n      pop\n        /* \"#utility.yul\":11419:11785   */\n      swap2\n      swap1\n      pop\n      jump\t// out\n        /* \"#utility.yul\":11791:12210   */\n    tag_52:\n        /* \"#utility.yul\":11957:11961   */\n      0x00\n        /* \"#utility.yul\":11995:11997   */\n      0x20\n        /* \"#utility.yul\":11984:11993   */\n      dup3\n        /* \"#utility.yul\":11980:11998   */\n      add\n        /* \"#utility.yul\":11972:11998   */\n      swap1\n      pop\n        /* \"#utility.yul\":12044:12053   */\n      dup2\n        /* \"#utility.yul\":12038:12042   */\n      dup2\n        /* \"#utility.yul\":12034:12054   */\n      sub\n        /* \"#utility.yul\":12030:12031   */\n      0x00\n        /* \"#utility.yul\":12019:12028   */\n      dup4\n        /* \"#utility.yul\":12015:12032   */\n      add\n        /* \"#utility.yul\":12008:12055   */\n      mstore\n        /* \"#utility.yul\":12072:12203   */\n      tag_504\n        /* \"#utility.yul\":12198:12202   */\n      dup2\n        /* \"#utility.yul\":12072:12203   */\n      tag_358\n      jump\t// in\n    tag_504:\n        /* \"#utility.yul\":12064:12203   */\n      swap1\n      pop\n        /* \"#utility.yul\":11791:12210   */\n      swap2\n      swap1\n      pop\n      jump\t// out\n        /* \"#utility.yul\":12216:12396   */\n    tag_57:\n        /* \"#utility.yul\":12264:12341   */\n      0x4e487b7100000000000000000000000000000000000000000000000000000000\n        /* \"#utility.yul\":12261:12262   */\n      0x00\n        /* \"#utility.yul\":12254:12342   */\n      mstore\n        /* \"#utility.yul\":12361:12365   */\n      0x32\n        /* \"#utility.yul\":12358:12359   */\n      0x04\n        /* \"#utility.yul\":12351:12366   */\n      mstore\n        /* \"#utility.yul\":12385:12389   */\n      0x24\n        /* \"#utility.yul\":12382:12383   */\n      0x00\n        /* \"#utility.yul\":12375:12390   */\n      revert\n        /* \"#utility.yul\":12402:12573   */\n    tag_359:\n        /* \"#utility.yul\":12542:12565   */\n      0x5375636365737366756c20657865637574696f6e210000000000000000000000\n        /* \"#utility.yul\":12538:12539   */\n      0x00\n        /* \"#utility.yul\":12530:12536   */\n      dup3\n        /* \"#utility.yul\":12526:12540   */\n      add\n        /* \"#utility.yul\":12519:12566   */\n      mstore\n        /* \"#utility.yul\":12402:12573   */\n      pop\n      jump\t// out\n        /* \"#utility.yul\":12579:12945   */\n    tag_360:\n        /* \"#utility.yul\":12721:12724   */\n      0x00\n        /* \"#utility.yul\":12742:12809   */\n      tag_508\n        /* \"#utility.yul\":12806:12808   */\n      0x15\n        /* \"#utility.yul\":12801:12804   */\n      dup4\n        /* \"#utility.yul\":12742:12809   */\n      tag_354\n      jump\t// in\n    tag_508:\n        /* \"#utility.yul\":12735:12809   */\n      swap2\n      pop\n        /* \"#utility.yul\":12818:12911   */\n      tag_509\n        /* \"#utility.yul\":12907:12910   */\n      dup3\n        /* \"#utility.yul\":12818:12911   */\n      tag_359\n      jump\t// in\n    tag_509:\n        /* \"#utility.yul\":12936:12938   */\n      0x20\n        /* \"#utility.yul\":12931:12934   */\n      dup3\n        /* \"#utility.yul\":12927:12939   */\n      add\n        /* \"#utility.yul\":12920:12939   */\n      swap1\n      pop\n        /* \"#utility.yul\":12579:12945   */\n      swap2\n      swap1\n      pop\n      jump\t// out\n        /* \"#utility.yul\":12951:13370   */\n    tag_70:\n        /* \"#utility.yul\":13117:13121   */\n      0x00\n        /* \"#utility.yul\":13155:13157   */\n      0x20\n        /* \"#utility.yul\":13144:13153   */\n      dup3\n        /* \"#utility.yul\":13140:13158   */\n      add\n        /* \"#utility.yul\":13132:13158   */\n      swap1\n      pop\n        /* \"#utility.yul\":13204:13213   */\n      dup2\n        /* \"#utility.yul\":13198:13202   */\n      dup2\n        /* \"#utility.yul\":13194:13214   */\n      sub\n        /* \"#utility.yul\":13190:13191   */\n      0x00\n        /* \"#utility.yul\":13179:13188   */\n      dup4\n        /* \"#utility.yul\":13175:13192   */\n      add\n        /* \"#utility.yul\":13168:13215   */\n      mstore\n        /* \"#utility.yul\":13232:13363   */\n      tag_511\n        /* \"#utility.yul\":13358:13362   */\n      dup2\n        /* \"#utility.yul\":13232:13363   */\n      tag_360\n      jump\t// in\n    tag_511:\n        /* \"#utility.yul\":13224:13363   */\n      swap1\n      pop\n        /* \"#utility.yul\":12951:13370   */\n      swap2\n      swap1\n      pop\n      jump\t// out\n        /* \"#utility.yul\":13376:13548   */\n    tag_361:\n        /* \"#utility.yul\":13516:13540   */\n      0x436f6e646974696f6e7320646f206e6f74206d65657400000000000000000000\n        /* \"#utility.yul\":13512:13513   */\n      0x00\n        /* \"#utility.yul\":13504:13510   */\n      dup3\n        /* \"#utility.yul\":13500:13514   */\n      add\n        /* \"#utility.yul\":13493:13541   */\n      mstore\n        /* \"#utility.yul\":13376:13548   */\n      pop\n      jump\t// out\n        /* \"#utility.yul\":13554:13920   */\n    tag_362:\n        /* \"#utility.yul\":13696:13699   */\n      0x00\n        /* \"#utility.yul\":13717:13784   */\n      tag_514\n        /* \"#utility.yul\":13781:13783   */\n      0x16\n        /* \"#utility.yul\":13776:13779   */\n      dup4\n        /* \"#utility.yul\":13717:13784   */\n      tag_354\n      jump\t// in\n    tag_514:\n        /* \"#utility.yul\":13710:13784   */\n      swap2\n      pop\n        /* \"#utility.yul\":13793:13886   */\n      tag_515\n        /* \"#utility.yul\":13882:13885   */\n      dup3\n        /* \"#utility.yul\":13793:13886   */\n      tag_361\n      jump\t// in\n    tag_515:\n        /* \"#utility.yul\":13911:13913   */\n      0x20\n        /* \"#utility.yul\":13906:13909   */\n      dup3\n        /* \"#utility.yul\":13902:13914   */\n      add\n        /* \"#utility.yul\":13895:13914   */\n      swap1\n      pop\n        /* \"#utility.yul\":13554:13920   */\n      swap2\n      swap1\n      pop\n      jump\t// out\n        /* \"#utility.yul\":13926:14345   */\n    tag_73:\n        /* \"#utility.yul\":14092:14096   */\n      0x00\n        /* \"#utility.yul\":14130:14132   */\n      0x20\n        /* \"#utility.yul\":14119:14128   */\n      dup3\n        /* \"#utility.yul\":14115:14133   */\n      add\n        /* \"#utility.yul\":14107:14133   */\n      swap1\n      pop\n        /* \"#utility.yul\":14179:14188   */\n      dup2\n        /* \"#utility.yul\":14173:14177   */\n      dup2\n        /* \"#utility.yul\":14169:14189   */\n      sub\n        /* \"#utility.yul\":14165:14166   */\n      0x00\n        /* \"#utility.yul\":14154:14163   */\n      dup4\n        /* \"#utility.yul\":14150:14167   */\n      add\n        /* \"#utility.yul\":14143:14190   */\n      mstore\n        /* \"#utility.yul\":14207:14338   */\n      tag_517\n        /* \"#utility.yul\":14333:14337   */\n      dup2\n        /* \"#utility.yul\":14207:14338   */\n      tag_362\n      jump\t// in\n    tag_517:\n        /* \"#utility.yul\":14199:14338   */\n      swap1\n      pop\n        /* \"#utility.yul\":13926:14345   */\n      swap2\n      swap1\n      pop\n      jump\t// out\n        /* \"#utility.yul\":14351:14581   */\n    tag_363:\n        /* \"#utility.yul\":14491:14525   */\n      0x4f6e6c79207468652070726f636573732063616e206578656375746520746869\n        /* \"#utility.yul\":14487:14488   */\n      0x00\n        /* \"#utility.yul\":14479:14485   */\n      dup3\n        /* \"#utility.yul\":14475:14489   */\n      add\n        /* \"#utility.yul\":14468:14526   */\n      mstore\n        /* \"#utility.yul\":14560:14573   */\n      0x73206f7065726174696f6e000000000000000000000000000000000000000000\n        /* \"#utility.yul\":14555:14557   */\n      0x20\n        /* \"#utility.yul\":14547:14553   */\n      dup3\n        /* \"#utility.yul\":14543:14558   */\n      add\n        /* \"#utility.yul\":14536:14574   */\n      mstore\n        /* \"#utility.yul\":14351:14581   */\n      pop\n      jump\t// out\n        /* \"#utility.yul\":14587:14953   */\n    tag_364:\n        /* \"#utility.yul\":14729:14732   */\n      0x00\n        /* \"#utility.yul\":14750:14817   */\n      tag_520\n        /* \"#utility.yul\":14814:14816   */\n      0x2b\n        /* \"#utility.yul\":14809:14812   */\n      dup4\n        /* \"#utility.yul\":14750:14817   */\n      tag_354\n      jump\t// in\n    tag_520:\n        /* \"#utility.yul\":14743:14817   */\n      swap2\n      pop\n        /* \"#utility.yul\":14826:14919   */\n      tag_521\n        /* \"#utility.yul\":14915:14918   */\n      dup3\n        /* \"#utility.yul\":14826:14919   */\n      tag_363\n      jump\t// in\n    tag_521:\n        /* \"#utility.yul\":14944:14946   */\n      0x40\n        /* \"#utility.yul\":14939:14942   */\n      dup3\n        /* \"#utility.yul\":14935:14947   */\n      add\n        /* \"#utility.yul\":14928:14947   */\n      swap1\n      pop\n        /* \"#utility.yul\":14587:14953   */\n      swap2\n      swap1\n      pop\n      jump\t// out\n        /* \"#utility.yul\":14959:15378   */\n    tag_79:\n        /* \"#utility.yul\":15125:15129   */\n      0x00\n        /* \"#utility.yul\":15163:15165   */\n      0x20\n        /* \"#utility.yul\":15152:15161   */\n      dup3\n        /* \"#utility.yul\":15148:15166   */\n      add\n        /* \"#utility.yul\":15140:15166   */\n      swap1\n      pop\n        /* \"#utility.yul\":15212:15221   */\n      dup2\n        /* \"#utility.yul\":15206:15210   */\n      dup2\n        /* \"#utility.yul\":15202:15222   */\n      sub\n        /* \"#utility.yul\":15198:15199   */\n      0x00\n        /* \"#utility.yul\":15187:15196   */\n      dup4\n        /* \"#utility.yul\":15183:15200   */\n      add\n        /* \"#utility.yul\":15176:15223   */\n      mstore\n        /* \"#utility.yul\":15240:15371   */\n      tag_523\n        /* \"#utility.yul\":15366:15370   */\n      dup2\n        /* \"#utility.yul\":15240:15371   */\n      tag_364\n      jump\t// in\n    tag_523:\n        /* \"#utility.yul\":15232:15371   */\n      swap1\n      pop\n        /* \"#utility.yul\":14959:15378   */\n      swap2\n      swap1\n      pop\n      jump\t// out\n        /* \"#utility.yul\":15384:15633   */\n    tag_365:\n        /* \"#utility.yul\":15524:15558   */\n      0x4f6e6c79207468652070726f63657373206f7220746865206170706c69636174\n        /* \"#utility.yul\":15520:15521   */\n      0x00\n        /* \"#utility.yul\":15512:15518   */\n      dup3\n        /* \"#utility.yul\":15508:15522   */\n      add\n        /* \"#utility.yul\":15501:15559   */\n      mstore\n        /* \"#utility.yul\":15593:15625   */\n      0x696f6e2063616e20657865637574652074686973206f7065726174696f6e0000\n        /* \"#utility.yul\":15588:15590   */\n      0x20\n        /* \"#utility.yul\":15580:15586   */\n      dup3\n        /* \"#utility.yul\":15576:15591   */\n      add\n        /* \"#utility.yul\":15569:15626   */\n      mstore\n        /* \"#utility.yul\":15384:15633   */\n      pop\n      jump\t// out\n        /* \"#utility.yul\":15639:16005   */\n    tag_366:\n        /* \"#utility.yul\":15781:15784   */\n      0x00\n        /* \"#utility.yul\":15802:15869   */\n      tag_526\n        /* \"#utility.yul\":15866:15868   */\n      0x3e\n        /* \"#utility.yul\":15861:15864   */\n      dup4\n        /* \"#utility.yul\":15802:15869   */\n      tag_354\n      jump\t// in\n    tag_526:\n        /* \"#utility.yul\":15795:15869   */\n      swap2\n      pop\n        /* \"#utility.yul\":15878:15971   */\n      tag_527\n        /* \"#utility.yul\":15967:15970   */\n      dup3\n        /* \"#utility.yul\":15878:15971   */\n      tag_365\n      jump\t// in\n    tag_527:\n        /* \"#utility.yul\":15996:15998   */\n      0x40\n        /* \"#utility.yul\":15991:15994   */\n      dup3\n        /* \"#utility.yul\":15987:15999   */\n      add\n        /* \"#utility.yul\":15980:15999   */\n      swap1\n      pop\n        /* \"#utility.yul\":15639:16005   */\n      swap2\n      swap1\n      pop\n      jump\t// out\n        /* \"#utility.yul\":16011:16430   */\n    tag_121:\n        /* \"#utility.yul\":16177:16181   */\n      0x00\n        /* \"#utility.yul\":16215:16217   */\n      0x20\n        /* \"#utility.yul\":16204:16213   */\n      dup3\n        /* \"#utility.yul\":16200:16218   */\n      add\n        /* \"#utility.yul\":16192:16218   */\n      swap1\n      pop\n        /* \"#utility.yul\":16264:16273   */\n      dup2\n        /* \"#utility.yul\":16258:16262   */\n      dup2\n        /* \"#utility.yul\":16254:16274   */\n      sub\n        /* \"#utility.yul\":16250:16251   */\n      0x00\n        /* \"#utility.yul\":16239:16248   */\n      dup4\n        /* \"#utility.yul\":16235:16252   */\n      add\n        /* \"#utility.yul\":16228:16275   */\n      mstore\n        /* \"#utility.yul\":16292:16423   */\n      tag_529\n        /* \"#utility.yul\":16418:16422   */\n      dup2\n        /* \"#utility.yul\":16292:16423   */\n      tag_366\n      jump\t// in\n    tag_529:\n        /* \"#utility.yul\":16284:16423   */\n      swap1\n      pop\n        /* \"#utility.yul\":16011:16430   */\n      swap2\n      swap1\n      pop\n      jump\t// out\n        /* \"#utility.yul\":16436:16616   */\n    tag_367:\n        /* \"#utility.yul\":16576:16608   */\n      0x54686520636f6e747261637420697320616c7265616479207369676e65640000\n        /* \"#utility.yul\":16572:16573   */\n      0x00\n        /* \"#utility.yul\":16564:16570   */\n      dup3\n        /* \"#utility.yul\":16560:16574   */\n      add\n        /* \"#utility.yul\":16553:16609   */\n      mstore\n        /* \"#utility.yul\":16436:16616   */\n      pop\n      jump\t// out\n        /* \"#utility.yul\":16622:16988   */\n    tag_368:\n        /* \"#utility.yul\":16764:16767   */\n      0x00\n        /* \"#utility.yul\":16785:16852   */\n      tag_532\n        /* \"#utility.yul\":16849:16851   */\n      0x1e\n        /* \"#utility.yul\":16844:16847   */\n      dup4\n        /* \"#utility.yul\":16785:16852   */\n      tag_354\n      jump\t// in\n    tag_532:\n        /* \"#utility.yul\":16778:16852   */\n      swap2\n      pop\n        /* \"#utility.yul\":16861:16954   */\n      tag_533\n        /* \"#utility.yul\":16950:16953   */\n      dup3\n        /* \"#utility.yul\":16861:16954   */\n      tag_367\n      jump\t// in\n    tag_533:\n        /* \"#utility.yul\":16979:16981   */\n      0x20\n        /* \"#utility.yul\":16974:16977   */\n      dup3\n        /* \"#utility.yul\":16970:16982   */\n      add\n        /* \"#utility.yul\":16963:16982   */\n      swap1\n      pop\n        /* \"#utility.yul\":16622:16988   */\n      swap2\n      swap1\n      pop\n      jump\t// out\n        /* \"#utility.yul\":16994:17413   */\n    tag_138:\n        /* \"#utility.yul\":17160:17164   */\n      0x00\n        /* \"#utility.yul\":17198:17200   */\n      0x20\n        /* \"#utility.yul\":17187:17196   */\n      dup3\n        /* \"#utility.yul\":17183:17201   */\n      add\n        /* \"#utility.yul\":17175:17201   */\n      swap1\n      pop\n        /* \"#utility.yul\":17247:17256   */\n      dup2\n        /* \"#utility.yul\":17241:17245   */\n      dup2\n        /* \"#utility.yul\":17237:17257   */\n      sub\n        /* \"#utility.yul\":17233:17234   */\n      0x00\n        /* \"#utility.yul\":17222:17231   */\n      dup4\n        /* \"#utility.yul\":17218:17235   */\n      add\n        /* \"#utility.yul\":17211:17258   */\n      mstore\n        /* \"#utility.yul\":17275:17406   */\n      tag_535\n        /* \"#utility.yul\":17401:17405   */\n      dup2\n        /* \"#utility.yul\":17275:17406   */\n      tag_368\n      jump\t// in\n    tag_535:\n        /* \"#utility.yul\":17267:17406   */\n      swap1\n      pop\n        /* \"#utility.yul\":16994:17413   */\n      swap2\n      swap1\n      pop\n      jump\t// out\n        /* \"#utility.yul\":17419:17599   */\n    tag_369:\n        /* \"#utility.yul\":17467:17544   */\n      0x4e487b7100000000000000000000000000000000000000000000000000000000\n        /* \"#utility.yul\":17464:17465   */\n      0x00\n        /* \"#utility.yul\":17457:17545   */\n      mstore\n        /* \"#utility.yul\":17564:17568   */\n      0x22\n        /* \"#utility.yul\":17561:17562   */\n      0x04\n        /* \"#utility.yul\":17554:17569   */\n      mstore\n        /* \"#utility.yul\":17588:17592   */\n      0x24\n        /* \"#utility.yul\":17585:17586   */\n      0x00\n        /* \"#utility.yul\":17578:17593   */\n      revert\n        /* \"#utility.yul\":17605:17925   */\n    tag_150:\n        /* \"#utility.yul\":17649:17655   */\n      0x00\n        /* \"#utility.yul\":17686:17687   */\n      0x02\n        /* \"#utility.yul\":17680:17684   */\n      dup3\n        /* \"#utility.yul\":17676:17688   */\n      div\n        /* \"#utility.yul\":17666:17688   */\n      swap1\n      pop\n        /* \"#utility.yul\":17733:17734   */\n      0x01\n        /* \"#utility.yul\":17727:17731   */\n      dup3\n        /* \"#utility.yul\":17723:17735   */\n      and\n        /* \"#utility.yul\":17754:17772   */\n      dup1\n        /* \"#utility.yul\":17744:17825   */\n      tag_538\n      jumpi\n        /* \"#utility.yul\":17810:17814   */\n      0x7f\n        /* \"#utility.yul\":17802:17808   */\n      dup3\n        /* \"#utility.yul\":17798:17815   */\n      and\n        /* \"#utility.yul\":17788:17815   */\n      swap2\n      pop\n        /* \"#utility.yul\":17744:17825   */\n    tag_538:\n        /* \"#utility.yul\":17872:17874   */\n      0x20\n        /* \"#utility.yul\":17864:17870   */\n      dup3\n        /* \"#utility.yul\":17861:17875   */\n      lt\n        /* \"#utility.yul\":17841:17859   */\n      dup2\n        /* \"#utility.yul\":17838:17876   */\n      eq\n        /* \"#utility.yul\":17835:17919   */\n      iszero\n      tag_539\n      jumpi\n        /* \"#utility.yul\":17891:17909   */\n      tag_540\n      tag_369\n      jump\t// in\n    tag_540:\n        /* \"#utility.yul\":17835:17919   */\n    tag_539:\n        /* \"#utility.yul\":17656:17925   */\n      pop\n        /* \"#utility.yul\":17605:17925   */\n      swap2\n      swap1\n      pop\n      jump\t// out\n        /* \"#utility.yul\":17931:18152   */\n    tag_370:\n        /* \"#utility.yul\":18071:18105   */\n      0x5468657265206973206e6f20656e6454696d652073657420696e2074696d656f\n        /* \"#utility.yul\":18067:18068   */\n      0x00\n        /* \"#utility.yul\":18059:18065   */\n      dup3\n        /* \"#utility.yul\":18055:18069   */\n      add\n        /* \"#utility.yul\":18048:18106   */\n      mstore\n        /* \"#utility.yul\":18140:18144   */\n      0x7574000000000000000000000000000000000000000000000000000000000000\n        /* \"#utility.yul\":18135:18137   */\n      0x20\n        /* \"#utility.yul\":18127:18133   */\n      dup3\n        /* \"#utility.yul\":18123:18138   */\n      add\n        /* \"#utility.yul\":18116:18145   */\n      mstore\n        /* \"#utility.yul\":17931:18152   */\n      pop\n      jump\t// out\n        /* \"#utility.yul\":18158:18524   */\n    tag_371:\n        /* \"#utility.yul\":18300:18303   */\n      0x00\n        /* \"#utility.yul\":18321:18388   */\n      tag_543\n        /* \"#utility.yul\":18385:18387   */\n      0x22\n        /* \"#utility.yul\":18380:18383   */\n      dup4\n        /* \"#utility.yul\":18321:18388   */\n      tag_354\n      jump\t// in\n    tag_543:\n        /* \"#utility.yul\":18314:18388   */\n      swap2\n      pop\n        /* \"#utility.yul\":18397:18490   */\n      tag_544\n        /* \"#utility.yul\":18486:18489   */\n      dup3\n        /* \"#utility.yul\":18397:18490   */\n      tag_370\n      jump\t// in\n    tag_544:\n        /* \"#utility.yul\":18515:18517   */\n      0x40\n        /* \"#utility.yul\":18510:18513   */\n      dup3\n        /* \"#utility.yul\":18506:18518   */\n      add\n        /* \"#utility.yul\":18499:18518   */\n      swap1\n      pop\n        /* \"#utility.yul\":18158:18524   */\n      swap2\n      swap1\n      pop\n      jump\t// out\n        /* \"#utility.yul\":18530:18949   */\n    tag_177:\n        /* \"#utility.yul\":18696:18700   */\n      0x00\n        /* \"#utility.yul\":18734:18736   */\n      0x20\n        /* \"#utility.yul\":18723:18732   */\n      dup3\n        /* \"#utility.yul\":18719:18737   */\n      add\n        /* \"#utility.yul\":18711:18737   */\n      swap1\n      pop\n        /* \"#utility.yul\":18783:18792   */\n      dup2\n        /* \"#utility.yul\":18777:18781   */\n      dup2\n        /* \"#utility.yul\":18773:18793   */\n      sub\n        /* \"#utility.yul\":18769:18770   */\n      0x00\n        /* \"#utility.yul\":18758:18767   */\n      dup4\n        /* \"#utility.yul\":18754:18771   */\n      add\n        /* \"#utility.yul\":18747:18794   */\n      mstore\n        /* \"#utility.yul\":18811:18942   */\n      tag_546\n        /* \"#utility.yul\":18937:18941   */\n      dup2\n        /* \"#utility.yul\":18811:18942   */\n      tag_371\n      jump\t// in\n    tag_546:\n        /* \"#utility.yul\":18803:18942   */\n      swap1\n      pop\n        /* \"#utility.yul\":18530:18949   */\n      swap2\n      swap1\n      pop\n      jump\t// out\n        /* \"#utility.yul\":18955:19135   */\n    tag_372:\n        /* \"#utility.yul\":19003:19080   */\n      0x4e487b7100000000000000000000000000000000000000000000000000000000\n        /* \"#utility.yul\":19000:19001   */\n      0x00\n        /* \"#utility.yul\":18993:19081   */\n      mstore\n        /* \"#utility.yul\":19100:19104   */\n      0x11\n        /* \"#utility.yul\":19097:19098   */\n      0x04\n        /* \"#utility.yul\":19090:19105   */\n      mstore\n        /* \"#utility.yul\":19124:19128   */\n      0x24\n        /* \"#utility.yul\":19121:19122   */\n      0x00\n        /* \"#utility.yul\":19114:19129   */\n      revert\n        /* \"#utility.yul\":19141:19329   */\n    tag_182:\n        /* \"#utility.yul\":19180:19184   */\n      0x00\n        /* \"#utility.yul\":19200:19219   */\n      tag_549\n        /* \"#utility.yul\":19217:19218   */\n      dup3\n        /* \"#utility.yul\":19200:19219   */\n      tag_322\n      jump\t// in\n    tag_549:\n        /* \"#utility.yul\":19195:19219   */\n      swap2\n      pop\n        /* \"#utility.yul\":19233:19252   */\n      tag_550\n        /* \"#utility.yul\":19250:19251   */\n      dup4\n        /* \"#utility.yul\":19233:19252   */\n      tag_322\n      jump\t// in\n    tag_550:\n        /* \"#utility.yul\":19228:19252   */\n      swap3\n      pop\n        /* \"#utility.yul\":19271:19272   */\n      dup3\n        /* \"#utility.yul\":19268:19269   */\n      dup3\n        /* \"#utility.yul\":19265:19273   */\n      lt\n        /* \"#utility.yul\":19262:19296   */\n      iszero\n      tag_551\n      jumpi\n        /* \"#utility.yul\":19276:19294   */\n      tag_552\n      tag_372\n      jump\t// in\n    tag_552:\n        /* \"#utility.yul\":19262:19296   */\n    tag_551:\n        /* \"#utility.yul\":19321:19322   */\n      dup3\n        /* \"#utility.yul\":19318:19319   */\n      dup3\n        /* \"#utility.yul\":19314:19323   */\n      sub\n        /* \"#utility.yul\":19306:19323   */\n      swap1\n      pop\n        /* \"#utility.yul\":19141:19329   */\n      swap3\n      swap2\n      pop\n      pop\n      jump\t// out\n        /* \"#utility.yul\":19335:19581   */\n    tag_195:\n        /* \"#utility.yul\":19374:19377   */\n      0x00\n        /* \"#utility.yul\":19393:19412   */\n      tag_554\n        /* \"#utility.yul\":19410:19411   */\n      dup3\n        /* \"#utility.yul\":19393:19412   */\n      tag_322\n      jump\t// in\n    tag_554:\n        /* \"#utility.yul\":19388:19412   */\n      swap2\n      pop\n        /* \"#utility.yul\":19426:19445   */\n      tag_555\n        /* \"#utility.yul\":19443:19444   */\n      dup4\n        /* \"#utility.yul\":19426:19445   */\n      tag_322\n      jump\t// in\n    tag_555:\n        /* \"#utility.yul\":19421:19445   */\n      swap3\n      pop\n        /* \"#utility.yul\":19523:19524   */\n      dup3\n        /* \"#utility.yul\":19511:19521   */\n      0xffffffff\n        /* \"#utility.yul\":19507:19525   */\n      sub\n        /* \"#utility.yul\":19504:19505   */\n      dup3\n        /* \"#utility.yul\":19501:19526   */\n      gt\n        /* \"#utility.yul\":19498:19549   */\n      iszero\n      tag_556\n      jumpi\n        /* \"#utility.yul\":19529:19547   */\n      tag_557\n      tag_372\n      jump\t// in\n    tag_557:\n        /* \"#utility.yul\":19498:19549   */\n    tag_556:\n        /* \"#utility.yul\":19573:19574   */\n      dup3\n        /* \"#utility.yul\":19570:19571   */\n      dup3\n        /* \"#utility.yul\":19566:19575   */\n      add\n        /* \"#utility.yul\":19559:19575   */\n      swap1\n      pop\n        /* \"#utility.yul\":19335:19581   */\n      swap3\n      swap2\n      pop\n      pop\n      jump\t// out\n        /* \"#utility.yul\":19587:19833   */\n    tag_373:\n        /* \"#utility.yul\":19727:19761   */\n      0x546865206d6574686f642067657454696d65496e5365636f6e647320646f6573\n        /* \"#utility.yul\":19723:19724   */\n      0x00\n        /* \"#utility.yul\":19715:19721   */\n      dup3\n        /* \"#utility.yul\":19711:19725   */\n      add\n        /* \"#utility.yul\":19704:19762   */\n      mstore\n        /* \"#utility.yul\":19796:19825   */\n      0x6e277420776f726b20666f72204d4f4e544820616e6420594541520000000000\n        /* \"#utility.yul\":19791:19793   */\n      0x20\n        /* \"#utility.yul\":19783:19789   */\n      dup3\n        /* \"#utility.yul\":19779:19794   */\n      add\n        /* \"#utility.yul\":19772:19826   */\n      mstore\n        /* \"#utility.yul\":19587:19833   */\n      pop\n      jump\t// out\n        /* \"#utility.yul\":19839:20205   */\n    tag_374:\n        /* \"#utility.yul\":19981:19984   */\n      0x00\n        /* \"#utility.yul\":20002:20069   */\n      tag_560\n        /* \"#utility.yul\":20066:20068   */\n      0x3b\n        /* \"#utility.yul\":20061:20064   */\n      dup4\n        /* \"#utility.yul\":20002:20069   */\n      tag_354\n      jump\t// in\n    tag_560:\n        /* \"#utility.yul\":19995:20069   */\n      swap2\n      pop\n        /* \"#utility.yul\":20078:20171   */\n      tag_561\n        /* \"#utility.yul\":20167:20170   */\n      dup3\n        /* \"#utility.yul\":20078:20171   */\n      tag_373\n      jump\t// in\n    tag_561:\n        /* \"#utility.yul\":20196:20198   */\n      0x40\n        /* \"#utility.yul\":20191:20194   */\n      dup3\n        /* \"#utility.yul\":20187:20199   */\n      add\n        /* \"#utility.yul\":20180:20199   */\n      swap1\n      pop\n        /* \"#utility.yul\":19839:20205   */\n      swap2\n      swap1\n      pop\n      jump\t// out\n        /* \"#utility.yul\":20211:20630   */\n    tag_203:\n        /* \"#utility.yul\":20377:20381   */\n      0x00\n        /* \"#utility.yul\":20415:20417   */\n      0x20\n        /* \"#utility.yul\":20404:20413   */\n      dup3\n        /* \"#utility.yul\":20400:20418   */\n      add\n        /* \"#utility.yul\":20392:20418   */\n      swap1\n      pop\n        /* \"#utility.yul\":20464:20473   */\n      dup2\n        /* \"#utility.yul\":20458:20462   */\n      dup2\n        /* \"#utility.yul\":20454:20474   */\n      sub\n        /* \"#utility.yul\":20450:20451   */\n      0x00\n        /* \"#utility.yul\":20439:20448   */\n      dup4\n        /* \"#utility.yul\":20435:20452   */\n      add\n        /* \"#utility.yul\":20428:20475   */\n      mstore\n        /* \"#utility.yul\":20492:20623   */\n      tag_563\n        /* \"#utility.yul\":20618:20622   */\n      dup2\n        /* \"#utility.yul\":20492:20623   */\n      tag_374\n      jump\t// in\n    tag_563:\n        /* \"#utility.yul\":20484:20623   */\n      swap1\n      pop\n        /* \"#utility.yul\":20211:20630   */\n      swap2\n      swap1\n      pop\n      jump\t// out\n        /* \"#utility.yul\":20636:20713   */\n    tag_375:\n        /* \"#utility.yul\":20673:20680   */\n      0x00\n        /* \"#utility.yul\":20702:20707   */\n      dup2\n        /* \"#utility.yul\":20691:20707   */\n      swap1\n      pop\n        /* \"#utility.yul\":20636:20713   */\n      swap2\n      swap1\n      pop\n      jump\t// out\n        /* \"#utility.yul\":20719:20952   */\n    tag_217:\n        /* \"#utility.yul\":20758:20761   */\n      0x00\n        /* \"#utility.yul\":20781:20805   */\n      tag_566\n        /* \"#utility.yul\":20799:20804   */\n      dup3\n        /* \"#utility.yul\":20781:20805   */\n      tag_375\n      jump\t// in\n    tag_566:\n        /* \"#utility.yul\":20772:20805   */\n      swap2\n      pop\n        /* \"#utility.yul\":20827:20893   */\n      0xffffffffffffffffffffffffffffffffffffffffffffffffffffffffffffffff\n        /* \"#utility.yul\":20820:20825   */\n      dup3\n        /* \"#utility.yul\":20817:20894   */\n      eq\n        /* \"#utility.yul\":20814:20917   */\n      iszero\n      tag_567\n      jumpi\n        /* \"#utility.yul\":20897:20915   */\n      tag_568\n      tag_372\n      jump\t// in\n    tag_568:\n        /* \"#utility.yul\":20814:20917   */\n    tag_567:\n        /* \"#utility.yul\":20944:20945   */\n      0x01\n        /* \"#utility.yul\":20937:20942   */\n      dup3\n        /* \"#utility.yul\":20933:20946   */\n      add\n        /* \"#utility.yul\":20926:20946   */\n      swap1\n      pop\n        /* \"#utility.yul\":20719:20952   */\n      swap2\n      swap1\n      pop\n      jump\t// out\n        /* \"#utility.yul\":20958:21138   */\n    tag_376:\n        /* \"#utility.yul\":21006:21083   */\n      0x4e487b7100000000000000000000000000000000000000000000000000000000\n        /* \"#utility.yul\":21003:21004   */\n      0x00\n        /* \"#utility.yul\":20996:21084   */\n      mstore\n        /* \"#utility.yul\":21103:21107   */\n      0x12\n        /* \"#utility.yul\":21100:21101   */\n      0x04\n        /* \"#utility.yul\":21093:21108   */\n      mstore\n        /* \"#utility.yul\":21127:21131   */\n      0x24\n        /* \"#utility.yul\":21124:21125   */\n      0x00\n        /* \"#utility.yul\":21117:21132   */\n      revert\n        /* \"#utility.yul\":21144:21329   */\n    tag_219:\n        /* \"#utility.yul\":21184:21185   */\n      0x00\n        /* \"#utility.yul\":21201:21221   */\n      tag_571\n        /* \"#utility.yul\":21219:21220   */\n      dup3\n        /* \"#utility.yul\":21201:21221   */\n      tag_375\n      jump\t// in\n    tag_571:\n        /* \"#utility.yul\":21196:21221   */\n      swap2\n      pop\n        /* \"#utility.yul\":21235:21255   */\n      tag_572\n        /* \"#utility.yul\":21253:21254   */\n      dup4\n        /* \"#utility.yul\":21235:21255   */\n      tag_375\n      jump\t// in\n    tag_572:\n        /* \"#utility.yul\":21230:21255   */\n      swap3\n      pop\n        /* \"#utility.yul\":21274:21275   */\n      dup3\n        /* \"#utility.yul\":21264:21299   */\n      tag_573\n      jumpi\n        /* \"#utility.yul\":21279:21297   */\n      tag_574\n      tag_376\n      jump\t// in\n    tag_574:\n        /* \"#utility.yul\":21264:21299   */\n    tag_573:\n        /* \"#utility.yul\":21321:21322   */\n      dup3\n        /* \"#utility.yul\":21318:21319   */\n      dup3\n        /* \"#utility.yul\":21314:21323   */\n      div\n        /* \"#utility.yul\":21309:21323   */\n      swap1\n      pop\n        /* \"#utility.yul\":21144:21329   */\n      swap3\n      swap2\n      pop\n      pop\n      jump\t// out\n        /* \"#utility.yul\":21335:21526   */\n    tag_227:\n        /* \"#utility.yul\":21375:21379   */\n      0x00\n        /* \"#utility.yul\":21395:21415   */\n      tag_576\n        /* \"#utility.yul\":21413:21414   */\n      dup3\n        /* \"#utility.yul\":21395:21415   */\n      tag_375\n      jump\t// in\n    tag_576:\n        /* \"#utility.yul\":21390:21415   */\n      swap2\n      pop\n        /* \"#utility.yul\":21429:21449   */\n      tag_577\n        /* \"#utility.yul\":21447:21448   */\n      dup4\n        /* \"#utility.yul\":21429:21449   */\n      tag_375\n      jump\t// in\n    tag_577:\n        /* \"#utility.yul\":21424:21449   */\n      swap3\n      pop\n        /* \"#utility.yul\":21468:21469   */\n      dup3\n        /* \"#utility.yul\":21465:21466   */\n      dup3\n        /* \"#utility.yul\":21462:21470   */\n      lt\n        /* \"#utility.yul\":21459:21493   */\n      iszero\n      tag_578\n      jumpi\n        /* \"#utility.yul\":21473:21491   */\n      tag_579\n      tag_372\n      jump\t// in\n    tag_579:\n        /* \"#utility.yul\":21459:21493   */\n    tag_578:\n        /* \"#utility.yul\":21518:21519   */\n      dup3\n        /* \"#utility.yul\":21515:21516   */\n      dup3\n        /* \"#utility.yul\":21511:21520   */\n      sub\n        /* \"#utility.yul\":21503:21520   */\n      swap1\n      pop\n        /* \"#utility.yul\":21335:21526   */\n      swap3\n      swap2\n      pop\n      pop\n      jump\t// out\n        /* \"#utility.yul\":21532:21708   */\n    tag_229:\n        /* \"#utility.yul\":21564:21565   */\n      0x00\n        /* \"#utility.yul\":21581:21601   */\n      tag_581\n        /* \"#utility.yul\":21599:21600   */\n      dup3\n        /* \"#utility.yul\":21581:21601   */\n      tag_375\n      jump\t// in\n    tag_581:\n        /* \"#utility.yul\":21576:21601   */\n      swap2\n      pop\n        /* \"#utility.yul\":21615:21635   */\n      tag_582\n        /* \"#utility.yul\":21633:21634   */\n      dup4\n        /* \"#utility.yul\":21615:21635   */\n      tag_375\n      jump\t// in\n    tag_582:\n        /* \"#utility.yul\":21610:21635   */\n      swap3\n      pop\n        /* \"#utility.yul\":21654:21655   */\n      dup3\n        /* \"#utility.yul\":21644:21679   */\n      tag_583\n      jumpi\n        /* \"#utility.yul\":21659:21677   */\n      tag_584\n      tag_376\n      jump\t// in\n    tag_584:\n        /* \"#utility.yul\":21644:21679   */\n    tag_583:\n        /* \"#utility.yul\":21700:21701   */\n      dup3\n        /* \"#utility.yul\":21697:21698   */\n      dup3\n        /* \"#utility.yul\":21693:21702   */\n      mod\n        /* \"#utility.yul\":21688:21702   */\n      swap1\n      pop\n        /* \"#utility.yul\":21532:21708   */\n      swap3\n      swap2\n      pop\n      pop\n      jump\t// out\n        /* \"#utility.yul\":21714:22019   */\n    tag_231:\n        /* \"#utility.yul\":21754:21757   */\n      0x00\n        /* \"#utility.yul\":21773:21793   */\n      tag_586\n        /* \"#utility.yul\":21791:21792   */\n      dup3\n        /* \"#utility.yul\":21773:21793   */\n      tag_375\n      jump\t// in\n    tag_586:\n        /* \"#utility.yul\":21768:21793   */\n      swap2\n      pop\n        /* \"#utility.yul\":21807:21827   */\n      tag_587\n        /* \"#utility.yul\":21825:21826   */\n      dup4\n        /* \"#utility.yul\":21807:21827   */\n      tag_375\n      jump\t// in\n    tag_587:\n        /* \"#utility.yul\":21802:21827   */\n      swap3\n      pop\n        /* \"#utility.yul\":21961:21962   */\n      dup3\n        /* \"#utility.yul\":21893:21959   */\n      0xffffffffffffffffffffffffffffffffffffffffffffffffffffffffffffffff\n        /* \"#utility.yul\":21889:21963   */\n      sub\n        /* \"#utility.yul\":21886:21887   */\n      dup3\n        /* \"#utility.yul\":21883:21964   */\n      gt\n        /* \"#utility.yul\":21880:21987   */\n      iszero\n      tag_588\n      jumpi\n        /* \"#utility.yul\":21967:21985   */\n      tag_589\n      tag_372\n      jump\t// in\n    tag_589:\n        /* \"#utility.yul\":21880:21987   */\n    tag_588:\n        /* \"#utility.yul\":22011:22012   */\n      dup3\n        /* \"#utility.yul\":22008:22009   */\n      dup3\n        /* \"#utility.yul\":22004:22013   */\n      add\n        /* \"#utility.yul\":21997:22013   */\n      swap1\n      pop\n        /* \"#utility.yul\":21714:22019   */\n      swap3\n      swap2\n      pop\n      pop\n      jump\t// out\n        /* \"#utility.yul\":22025:22314   */\n    tag_252:\n        /* \"#utility.yul\":22064:22071   */\n      0x00\n        /* \"#utility.yul\":22087:22106   */\n      tag_591\n        /* \"#utility.yul\":22104:22105   */\n      dup3\n        /* \"#utility.yul\":22087:22106   */\n      tag_322\n      jump\t// in\n    tag_591:\n        /* \"#utility.yul\":22082:22106   */\n      swap2\n      pop\n        /* \"#utility.yul\":22120:22139   */\n      tag_592\n        /* \"#utility.yul\":22137:22138   */\n      dup4\n        /* \"#utility.yul\":22120:22139   */\n      tag_322\n      jump\t// in\n    tag_592:\n        /* \"#utility.yul\":22115:22139   */\n      swap3\n      pop\n        /* \"#utility.yul\":22251:22252   */\n      dup2\n        /* \"#utility.yul\":22239:22249   */\n      0xffffffff\n        /* \"#utility.yul\":22235:22253   */\n      div\n        /* \"#utility.yul\":22232:22233   */\n      dup4\n        /* \"#utility.yul\":22229:22254   */\n      gt\n        /* \"#utility.yul\":22224:22225   */\n      dup3\n        /* \"#utility.yul\":22217:22226   */\n      iszero\n        /* \"#utility.yul\":22210:22227   */\n      iszero\n        /* \"#utility.yul\":22206:22255   */\n      and\n        /* \"#utility.yul\":22203:22278   */\n      iszero\n      tag_593\n      jumpi\n        /* \"#utility.yul\":22258:22276   */\n      tag_594\n      tag_372\n      jump\t// in\n    tag_594:\n        /* \"#utility.yul\":22203:22278   */\n    tag_593:\n        /* \"#utility.yul\":22306:22307   */\n      dup3\n        /* \"#utility.yul\":22303:22304   */\n      dup3\n        /* \"#utility.yul\":22299:22308   */\n      mul\n        /* \"#utility.yul\":22288:22308   */\n      swap1\n      pop\n        /* \"#utility.yul\":22025:22314   */\n      swap3\n      swap2\n      pop\n      pop\n      jump\t// out\n        /* \"#utility.yul\":22320:22502   */\n    tag_254:\n        /* \"#utility.yul\":22359:22360   */\n      0x00\n        /* \"#utility.yul\":22376:22395   */\n      tag_596\n        /* \"#utility.yul\":22393:22394   */\n      dup3\n        /* \"#utility.yul\":22376:22395   */\n      tag_322\n      jump\t// in\n    tag_596:\n        /* \"#utility.yul\":22371:22395   */\n      swap2\n      pop\n        /* \"#utility.yul\":22409:22428   */\n      tag_597\n        /* \"#utility.yul\":22426:22427   */\n      dup4\n        /* \"#utility.yul\":22409:22428   */\n      tag_322\n      jump\t// in\n    tag_597:\n        /* \"#utility.yul\":22404:22428   */\n      swap3\n      pop\n        /* \"#utility.yul\":22447:22448   */\n      dup3\n        /* \"#utility.yul\":22437:22472   */\n      tag_598\n      jumpi\n        /* \"#utility.yul\":22452:22470   */\n      tag_599\n      tag_376\n      jump\t// in\n    tag_599:\n        /* \"#utility.yul\":22437:22472   */\n    tag_598:\n        /* \"#utility.yul\":22494:22495   */\n      dup3\n        /* \"#utility.yul\":22491:22492   */\n      dup3\n        /* \"#utility.yul\":22487:22496   */\n      div\n        /* \"#utility.yul\":22482:22496   */\n      swap1\n      pop\n        /* \"#utility.yul\":22320:22502   */\n      swap3\n      swap2\n      pop\n      pop\n      jump\t// out\n        /* \"#utility.yul\":22508:22681   */\n    tag_292:\n        /* \"#utility.yul\":22539:22540   */\n      0x00\n        /* \"#utility.yul\":22556:22575   */\n      tag_601\n        /* \"#utility.yul\":22573:22574   */\n      dup3\n        /* \"#utility.yul\":22556:22575   */\n      tag_322\n      jump\t// in\n    tag_601:\n        /* \"#utility.yul\":22551:22575   */\n      swap2\n      pop\n        /* \"#utility.yul\":22589:22608   */\n      tag_602\n        /* \"#utility.yul\":22606:22607   */\n      dup4\n        /* \"#utility.yul\":22589:22608   */\n      tag_322\n      jump\t// in\n    tag_602:\n        /* \"#utility.yul\":22584:22608   */\n      swap3\n      pop\n        /* \"#utility.yul\":22627:22628   */\n      dup3\n        /* \"#utility.yul\":22617:22652   */\n      tag_603\n      jumpi\n        /* \"#utility.yul\":22632:22650   */\n      tag_604\n      tag_376\n      jump\t// in\n    tag_604:\n        /* \"#utility.yul\":22617:22652   */\n    tag_603:\n        /* \"#utility.yul\":22673:22674   */\n      dup3\n        /* \"#utility.yul\":22670:22671   */\n      dup3\n        /* \"#utility.yul\":22666:22675   */\n      mod\n        /* \"#utility.yul\":22661:22675   */\n      swap1\n      pop\n        /* \"#utility.yul\":22508:22681   */\n      swap3\n      swap2\n      pop\n      pop\n      jump\t// out\n\n    auxdata: 0xa2646970667358221220ac65e577ccf378554f91711af8c33e85944d18fd3c7cc17b5f3de2c317b790c064736f6c634300080a0033\n}\n",
				"bytecode": {
					"linkReferences": {},
					"object": "60806040523480156200001157600080fd5b506040516200350a3803806200350a833981810160405281019062000037919062000b51565b60016000806101000a81548160ff0219169083151502179055506363b13d80600060016101000a81548163ffffffff021916908363ffffffff1602179055506367733400600060056101000a81548163ffffffff021916908363ffffffff160217905550620000e96040518060400160405280600981526020017f4f72636964204150490000000000000000000000000000000000000000000000815250826000620006ff60201b62000ee21760201c565b6001600082015181600001908051906020019062000109929190620008e3565b5060208201518160010160006101000a81548173ffffffffffffffffffffffffffffffffffffffff021916908373ffffffffffffffffffffffffffffffffffffffff16021790555060408201518160010160146101000a81548160ff021916908315150217905550905050620001c26040518060400160405280601381526020017f496e746567726174696f6e2050726f6365737300000000000000000000000000815250336001620006ff60201b62000ee21760201c565b60036000820151816000019080519060200190620001e2929190620008e3565b5060208201518160010160006101000a81548173ffffffffffffffffffffffffffffffffffffffff021916908373ffffffffffffffffffffffffffffffffffffffff16021790555060408201518160010160146101000a81548160ff0219169083151502179055509050506003600560003373ffffffffffffffffffffffffffffffffffffffff1673ffffffffffffffffffffffffffffffffffffffff1681526020019081526020016000206000820181600001908054620002a49062000bb2565b620002b192919062000974565b506001820160009054906101000a900473ffffffffffffffffffffffffffffffffffffffff168160010160006101000a81548173ffffffffffffffffffffffffffffffffffffffff021916908373ffffffffffffffffffffffffffffffffffffffff1602179055506001820160149054906101000a900460ff168160010160146101000a81548160ff0219169083151502179055509050506001600560008373ffffffffffffffffffffffffffffffffffffffff1673ffffffffffffffffffffffffffffffffffffffff1681526020019081526020016000206000820181600001908054620003a09062000bb2565b620003ad92919062000974565b506001820160009054906101000a900473ffffffffffffffffffffffffffffffffffffffff168160010160006101000a81548173ffffffffffffffffffffffffffffffffffffffff021916908373ffffffffffffffffffffffffffffffffffffffff1602179055506001820160149054906101000a900460ff168160010160146101000a81548160ff021916908315150217905550905050600662000460600860006200074560201b62000f261760201c565b9080600181540180825580915050600190039060005260206000200160009091909190915060008201518160000160006101000a81548163ffffffff021916908363ffffffff16021790555060208201518160000160046101000a81548160ff021916908360ff16021790555060408201518160000160056101000a81548163ffffffff021916908363ffffffff16021790555060608201518160000160096101000a81548163ffffffff021916908363ffffffff160217905550608082015181600001600d6101000a81548163ffffffff021916908363ffffffff16021790555050506007620005916040518060400160405280601c81526020017f2f2f617574686f722f6f726369642f69642f746578742829213d272700000000815250620007ca60201b62000f9f1760201c565b908060018154018082558091505060019003906000526020600020016000909190919091506000820151816000019080519060200190620005d4929190620008e3565b5050506007620006246040518060400160405280601a81526020017f2f2f61727469636c652f7469746c652f746578742829213d2727000000000000815250620007ca60201b62000f9f1760201c565b90806001815401808255809150506001900390600052602060002001600090919091909150600082015181600001908051906020019062000667929190620008e3565b5050506008620006836005620007ea60201b62000fbd1760201c565b9080600181540180825580915050600190039060005260206000200160009091909190915060008201518160000160006101000a81548163ffffffff021916908363ffffffff16021790555060208201518160000160046101000a81548163ffffffff021916908363ffffffff16021790555050505062000c91565b6200070962000a0c565b60405180606001604052808581526020018473ffffffffffffffffffffffffffffffffffffffff16815260200183151581525090509392505050565b6200074f62000a45565b6000600460ff168360ff1611620007795762000771836200081d60201b60201c565b90506200077e565b600190505b6040518060a001604052808563ffffffff1681526020018460ff1681526020018263ffffffff1681526020018563ffffffff168152602001600063ffffffff1681525091505092915050565b620007d462000a8f565b6040518060200160405280838152509050919050565b620007f462000aa2565b6040518060400160405280600063ffffffff1681526020018363ffffffff168152509050919050565b6000600460ff168260ff1611156200086c576040517f08c379a0000000000000000000000000000000000000000000000000000000008152600401620008639062000c6f565b60405180910390fd5b600060ff168260ff161415620008865760019050620008de565b600160ff168260ff161415620008a057603c9050620008de565b600260ff168260ff161415620008bb57610e109050620008de565b600360ff168260ff161415620008d757620151809050620008de565b62093a8090505b919050565b828054620008f19062000bb2565b90600052602060002090601f01602090048101928262000915576000855562000961565b82601f106200093057805160ff191683800117855562000961565b8280016001018555821562000961579182015b828111156200096057825182559160200191906001019062000943565b5b50905062000970919062000ac8565b5090565b828054620009829062000bb2565b90600052602060002090601f016020900481019282620009a65760008555620009f9565b82601f10620009b95780548555620009f9565b82800160010185558215620009f957600052602060002091601f016020900482015b82811115620009f8578254825591600101919060010190620009db565b5b50905062000a08919062000ac8565b5090565b604051806060016040528060608152602001600073ffffffffffffffffffffffffffffffffffffffff1681526020016000151581525090565b6040518060a00160405280600063ffffffff168152602001600060ff168152602001600063ffffffff168152602001600063ffffffff168152602001600063ffffffff1681525090565b6040518060200160405280606081525090565b6040518060400160405280600063ffffffff168152602001600063ffffffff1681525090565b5b8082111562000ae357600081600090555060010162000ac9565b5090565b600080fd5b600073ffffffffffffffffffffffffffffffffffffffff82169050919050565b600062000b198262000aec565b9050919050565b62000b2b8162000b0c565b811462000b3757600080fd5b50565b60008151905062000b4b8162000b20565b92915050565b60006020828403121562000b6a5762000b6962000ae7565b5b600062000b7a8482850162000b3a565b91505092915050565b7f4e487b7100000000000000000000000000000000000000000000000000000000600052602260045260246000fd5b6000600282049050600182168062000bcb57607f821691505b6020821081141562000be25762000be162000b83565b5b50919050565b600082825260208201905092915050565b7f546865206d6574686f642067657454696d65496e5365636f6e647320646f657360008201527f6e277420776f726b20666f72204d4f4e544820616e6420594541520000000000602082015250565b600062000c57603b8362000be8565b915062000c648262000bf9565b604082019050919050565b6000602082019050818103600083015262000c8a8162000c48565b9050919050565b6128698062000ca16000396000f3fe608060405234801561001057600080fd5b506004361061007d5760003560e01c806370d8915a1161005b57806370d8915a146101125780638593191114610130578063b8b4f1a01461014e578063fb6f82431461016c5761007d565b806322d53d531461008257806341487b4a146100b25780635e744c6a146100e2575b600080fd5b61009c60048036038101906100979190611cf9565b61019c565b6040516100a99190611d64565b60405180910390f35b6100cc60048036038101906100c79190611cf9565b6103e0565b6040516100d99190611d64565b60405180910390f35b6100fc60048036038101906100f79190611e92565b610622565b6040516101099190611d64565b60405180910390f35b61011a610813565b6040516101279190611efd565b60405180910390f35b61013861097a565b6040516101459190611efd565b60405180910390f35b610156610ae2565b6040516101639190611d64565b60405180910390f35b61018660048036038101906101819190611f18565b610c4c565b604051610193919061203b565b60405180910390f35b60008060009054906101000a900460ff166101ec576040517f08c379a00000000000000000000000000000000000000000000000000000000081526004016101e3906120ba565b60405180910390fd5b3373ffffffffffffffffffffffffffffffffffffffff166001800160009054906101000a900473ffffffffffffffffffffffffffffffffffffffff1673ffffffffffffffffffffffffffffffffffffffff161461027e576040517f08c379a00000000000000000000000000000000000000000000000000000000081526004016102759061214c565b60405180910390fd5b6103068360086000815481106102975761029661216c565b5b906000526020600020016040518060400160405290816000820160009054906101000a900463ffffffff1663ffffffff1663ffffffff1681526020016000820160049054906101000a900463ffffffff1663ffffffff1663ffffffff1681525050610fee90919063ffffffff16565b15801561032b5750816000815181106103225761032161216c565b5b60200260200101515b156103a0576103618360066000815481106103495761034861216c565b5b9060005260206000200161107d90919063ffffffff16565b507f95a1f3a1dafdd4c1af344e3d7c69a72cbce8a3f15fe1cf95a7f5bd23df2e71a160405161038f906121e7565b60405180910390a1600190506103da565b7f66091b7dc2b097c8f60d5cd6aa99633b097f08d2eb1056f3e15361b22e0ea2ba6040516103cd90612253565b60405180910390a1600090505b92915050565b60008060009054906101000a900460ff16610430576040517f08c379a0000000000000000000000000000000000000000000000000000000008152600401610427906120ba565b60405180910390fd5b3373ffffffffffffffffffffffffffffffffffffffff16600360010160009054906101000a900473ffffffffffffffffffffffffffffffffffffffff1673ffffffffffffffffffffffffffffffffffffffff16146104c3576040517f08c379a00000000000000000000000000000000000000000000000000000000081526004016104ba906122e5565b60405180910390fd5b6104f48360066000815481106104dc576104db61216c565b5b906000526020600020016110e490919063ffffffff16565b801561051857508160008151811061050f5761050e61216c565b5b60200260200101515b801561053c5750816001815181106105335761053261216c565b5b60200260200101515b156105e25761057283600660008154811061055a5761055961216c565b5b9060005260206000200161107d90919063ffffffff16565b506105a483600860008154811061058c5761058b61216c565b5b9060005260206000200161115d90919063ffffffff16565b7f95a1f3a1dafdd4c1af344e3d7c69a72cbce8a3f15fe1cf95a7f5bd23df2e71a16040516105d1906121e7565b60405180910390a16001905061061c565b7f66091b7dc2b097c8f60d5cd6aa99633b097f08d2eb1056f3e15361b22e0ea2ba60405161060f90612253565b60405180910390a1600090505b92915050565b60003373ffffffffffffffffffffffffffffffffffffffff16600360010160009054906101000a900473ffffffffffffffffffffffffffffffffffffffff1673ffffffffffffffffffffffffffffffffffffffff16146106b7576040517f08c379a00000000000000000000000000000000000000000000000000000000081526004016106ae906122e5565b60405180910390fd5b600560006001800160009054906101000a900473ffffffffffffffffffffffffffffffffffffffff1673ffffffffffffffffffffffffffffffffffffffff1673ffffffffffffffffffffffffffffffffffffffff1681526020019081526020016000206000808201600061072b91906118ec565b6001820160006101000a81549073ffffffffffffffffffffffffffffffffffffffff02191690556001820160146101000a81549060ff0219169055505061077483836000610ee2565b6001600082015181600001908051906020019061079292919061192c565b5060208201518160010160006101000a81548173ffffffffffffffffffffffffffffffffffffffff021916908373ffffffffffffffffffffffffffffffffffffffff16021790555060408201518160010160146101000a81548160ff0219169083151502179055509050506108088260016111c8565b506001905092915050565b60008060009054906101000a900460ff16610863576040517f08c379a000000000000000000000000000000000000000000000000000000000815260040161085a906120ba565b60405180910390fd5b3373ffffffffffffffffffffffffffffffffffffffff166001800160009054906101000a900473ffffffffffffffffffffffffffffffffffffffff1673ffffffffffffffffffffffffffffffffffffffff16148061091157503373ffffffffffffffffffffffffffffffffffffffff16600360010160009054906101000a900473ffffffffffffffffffffffffffffffffffffffff1673ffffffffffffffffffffffffffffffffffffffff16145b610950576040517f08c379a000000000000000000000000000000000000000000000000000000000815260040161094790612377565b60405180910390fd5b6001800160009054906101000a900473ffffffffffffffffffffffffffffffffffffffff16905090565b60008060009054906101000a900460ff166109ca576040517f08c379a00000000000000000000000000000000000000000000000000000000081526004016109c1906120ba565b60405180910390fd5b3373ffffffffffffffffffffffffffffffffffffffff166001800160009054906101000a900473ffffffffffffffffffffffffffffffffffffffff1673ffffffffffffffffffffffffffffffffffffffff161480610a7857503373ffffffffffffffffffffffffffffffffffffffff16600360010160009054906101000a900473ffffffffffffffffffffffffffffffffffffffff1673ffffffffffffffffffffffffffffffffffffffff16145b610ab7576040517f08c379a0000000000000000000000000000000000000000000000000000000008152600401610aae90612377565b60405180910390fd5b600360010160009054906101000a900473ffffffffffffffffffffffffffffffffffffffff16905090565b60008060009054906101000a900460ff16610b32576040517f08c379a0000000000000000000000000000000000000000000000000000000008152600401610b29906120ba565b60405180910390fd5b3373ffffffffffffffffffffffffffffffffffffffff166001800160009054906101000a900473ffffffffffffffffffffffffffffffffffffffff1673ffffffffffffffffffffffffffffffffffffffff1614610bc4576040517f08c379a0000000000000000000000000000000000000000000000000000000008152600401610bbb9061214c565b60405180910390fd5b600015156001800160149054906101000a900460ff16151514610c1c576040517f08c379a0000000000000000000000000000000000000000000000000000000008152600401610c13906123e3565b60405180910390fd5b60018060010160146101000a81548160ff021916908315150217905550610c443360016111c8565b506001905090565b610c546119b2565b60008054906101000a900460ff16610ca1576040517f08c379a0000000000000000000000000000000000000000000000000000000008152600401610c98906120ba565b60405180910390fd5b3373ffffffffffffffffffffffffffffffffffffffff166001800160009054906101000a900473ffffffffffffffffffffffffffffffffffffffff1673ffffffffffffffffffffffffffffffffffffffff161480610d4f57503373ffffffffffffffffffffffffffffffffffffffff16600360010160009054906101000a900473ffffffffffffffffffffffffffffffffffffffff1673ffffffffffffffffffffffffffffffffffffffff16145b610d8e576040517f08c379a0000000000000000000000000000000000000000000000000000000008152600401610d8590612377565b60405180910390fd5b600560008373ffffffffffffffffffffffffffffffffffffffff1673ffffffffffffffffffffffffffffffffffffffff168152602001908152602001600020604051806060016040529081600082018054610de890612432565b80601f0160208091040260200160405190810160405280929190818152602001828054610e1490612432565b8015610e615780601f10610e3657610100808354040283529160200191610e61565b820191906000526020600020905b815481529060010190602001808311610e4457829003601f168201915b505050505081526020016001820160009054906101000a900473ffffffffffffffffffffffffffffffffffffffff1673ffffffffffffffffffffffffffffffffffffffff1673ffffffffffffffffffffffffffffffffffffffff1681526020016001820160149054906101000a900460ff1615151515815250509050919050565b610eea6119b2565b60405180606001604052808581526020018473ffffffffffffffffffffffffffffffffffffffff16815260200183151581525090509392505050565b610f2e6119eb565b6000600460ff168360ff1611610f4e57610f47836112cb565b9050610f53565b600190505b6040518060a001604052808563ffffffff1681526020018460ff1681526020018263ffffffff1681526020018563ffffffff168152602001600063ffffffff1681525091505092915050565b610fa7611a35565b6040518060200160405280838152509050919050565b610fc5611a48565b6040518060400160405280600063ffffffff1681526020018363ffffffff168152509050919050565b60008160006110028263ffffffff16611386565b9050600a8151111561101357600080fd5b6000856000015163ffffffff1611611060576040517f08c379a0000000000000000000000000000000000000000000000000000000008152600401611057906124d6565b60405180910390fd5b846000015163ffffffff168463ffffffff16119250505092915050565b600061108983836110e4565b156110d95760018360000160098282829054906101000a900463ffffffff166110b29190612525565b92506101000a81548163ffffffff021916908363ffffffff160217905550600190506110de565b600090505b92915050565b60006111168360000160049054906101000a900460ff1684600001600d9054906101000a900463ffffffff16846114e7565b156111265761112583836115ad565b5b60008360000160099054906101000a900463ffffffff1663ffffffff1611156111525760019050611157565b600090505b92915050565b80600061116f8263ffffffff16611386565b9050600a8151111561118057600080fd5b8360000160049054906101000a900463ffffffff16836111a09190612559565b8460000160006101000a81548163ffffffff021916908363ffffffff16021790555050505050565b600081600560008573ffffffffffffffffffffffffffffffffffffffff1673ffffffffffffffffffffffffffffffffffffffff168152602001908152602001600020600082018160000190805461121e90612432565b611229929190611a6e565b506001820160009054906101000a900473ffffffffffffffffffffffffffffffffffffffff168160010160006101000a81548173ffffffffffffffffffffffffffffffffffffffff021916908373ffffffffffffffffffffffffffffffffffffffff1602179055506001820160149054906101000a900460ff168160010160146101000a81548160ff0219169083151502179055509050506001905092915050565b6000600460ff168260ff161115611317576040517f08c379a000000000000000000000000000000000000000000000000000000000815260040161130e90612605565b60405180910390fd5b600060ff168260ff16141561132f5760019050611381565b600160ff168260ff16141561134757603c9050611381565b600260ff168260ff16141561136057610e109050611381565b600360ff168260ff16141561137a57620151809050611381565b62093a8090505b919050565b606060008214156113ce576040518060400160405280600181526020017f300000000000000000000000000000000000000000000000000000000000000081525090506114e2565b600082905060005b600082146114005780806113e99061262f565b915050600a826113f991906126a7565b91506113d6565b60008167ffffffffffffffff81111561141c5761141b611b7e565b5b6040519080825280601f01601f19166020018201604052801561144e5781602001600182028036833780820191505090505b5090505b600085146114db5760018261146791906126d8565b9150600a85611476919061270c565b6030611482919061273d565b60f81b8183815181106114985761149761216c565b5b60200101907effffffffffffffffffffffffffffffffffffffffffffffffffffffffffffff1916908160001a905350600a856114d491906126a7565b9450611452565b8093505050505b919050565b600080849050600460ff168160ff1611611513578363ffffffff168363ffffffff1610159150506115a6565b600560ff168160ff16141561157c5760006115338463ffffffff1661163a565b50915050600d8563ffffffff16148015611553575060018163ffffffff16145b15611563576001925050506115a6565b8463ffffffff168163ffffffff161015925050506115a6565b600061158d8463ffffffff1661163a565b505090508463ffffffff168163ffffffff161015925050505b9392505050565b8160000160009054906101000a900463ffffffff168260000160096101000a81548163ffffffff021916908363ffffffff1602179055506116148260000160059054906101000a900463ffffffff168360000160049054906101000a900460ff16836117ed565b82600001600d6101000a81548163ffffffff021916908363ffffffff1602179055505050565b6000806000806201518063ffffffff168561165591906126a7565b9050600062253d8c62010bd98361166c9190612559565b6116769190612559565b9050600062023ab182600461168b9190612793565b61169591906127d1565b9050600460038262023ab16116aa9190612793565b6116b49190612559565b6116be91906127d1565b826116c99190612525565b9150600062164b096001846116de9190612559565b610fa06116eb9190612793565b6116f591906127d1565b9050601f6004826105b56117099190612793565b61171391906127d1565b8461171e9190612525565b6117289190612559565b9250600061098f84605061173c9190612793565b61174691906127d1565b9050600060508261098f61175a9190612793565b61176491906127d1565b8561176f9190612525565b9050600b8261177e91906127d1565b945084600c61178d9190612793565b60028361179a9190612559565b6117a49190612525565b915084836031866117b59190612525565b60646117c19190612793565b6117cb9190612559565b6117d59190612559565b92508298508197508096505050505050509193909250565b6000600460ff168360ff161161180f57611808838386611881565b905061187a565b600560ff168360ff16141561184e57600061182f8363ffffffff1661163a565b5063ffffffff16915050600181611846919061273d565b91505061187a565b600061185f8363ffffffff1661163a565b505063ffffffff169050600181611876919061273d565b9150505b9392505050565b60008082846118909190612802565b9050600081846118a09190612525565b9050600460ff168660ff1614156118d4576203f48081866118c19190612559565b6118cb9190612559565b925050506118e5565b80856118e09190612559565b925050505b9392505050565b5080546118f890612432565b6000825580601f1061190a5750611929565b601f0160209004906000526020600020908101906119289190611afb565b5b50565b82805461193890612432565b90600052602060002090601f01602090048101928261195a57600085556119a1565b82601f1061197357805160ff19168380011785556119a1565b828001600101855582156119a1579182015b828111156119a0578251825591602001919060010190611985565b5b5090506119ae9190611afb565b5090565b604051806060016040528060608152602001600073ffffffffffffffffffffffffffffffffffffffff1681526020016000151581525090565b6040518060a00160405280600063ffffffff168152602001600060ff168152602001600063ffffffff168152602001600063ffffffff168152602001600063ffffffff1681525090565b6040518060200160405280606081525090565b6040518060400160405280600063ffffffff168152602001600063ffffffff1681525090565b828054611a7a90612432565b90600052602060002090601f016020900481019282611a9c5760008555611aea565b82601f10611aad5780548555611aea565b82800160010185558215611aea57600052602060002091601f016020900482015b82811115611ae9578254825591600101919060010190611ace565b5b509050611af79190611afb565b5090565b5b80821115611b14576000816000905550600101611afc565b5090565b6000604051905090565b600080fd5b600080fd5b600063ffffffff82169050919050565b611b4581611b2c565b8114611b5057600080fd5b50565b600081359050611b6281611b3c565b92915050565b600080fd5b6000601f19601f8301169050919050565b7f4e487b7100000000000000000000000000000000000000000000000000000000600052604160045260246000fd5b611bb682611b6d565b810181811067ffffffffffffffff82111715611bd557611bd4611b7e565b5b80604052505050565b6000611be8611b18565b9050611bf48282611bad565b919050565b600067ffffffffffffffff821115611c1457611c13611b7e565b5b602082029050602081019050919050565b600080fd5b60008115159050919050565b611c3f81611c2a565b8114611c4a57600080fd5b50565b600081359050611c5c81611c36565b92915050565b6000611c75611c7084611bf9565b611bde565b90508083825260208201905060208402830185811115611c9857611c97611c25565b5b835b81811015611cc15780611cad8882611c4d565b845260208401935050602081019050611c9a565b5050509392505050565b600082601f830112611ce057611cdf611b68565b5b8135611cf0848260208601611c62565b91505092915050565b60008060408385031215611d1057611d0f611b22565b5b6000611d1e85828601611b53565b925050602083013567ffffffffffffffff811115611d3f57611d3e611b27565b5b611d4b85828601611ccb565b9150509250929050565b611d5e81611c2a565b82525050565b6000602082019050611d796000830184611d55565b92915050565b600080fd5b600067ffffffffffffffff821115611d9f57611d9e611b7e565b5b611da882611b6d565b9050602081019050919050565b82818337600083830152505050565b6000611dd7611dd284611d84565b611bde565b905082815260208101848484011115611df357611df2611d7f565b5b611dfe848285611db5565b509392505050565b600082601f830112611e1b57611e1a611b68565b5b8135611e2b848260208601611dc4565b91505092915050565b600073ffffffffffffffffffffffffffffffffffffffff82169050919050565b6000611e5f82611e34565b9050919050565b611e6f81611e54565b8114611e7a57600080fd5b50565b600081359050611e8c81611e66565b92915050565b60008060408385031215611ea957611ea8611b22565b5b600083013567ffffffffffffffff811115611ec757611ec6611b27565b5b611ed385828601611e06565b9250506020611ee485828601611e7d565b9150509250929050565b611ef781611e54565b82525050565b6000602082019050611f126000830184611eee565b92915050565b600060208284031215611f2e57611f2d611b22565b5b6000611f3c84828501611e7d565b91505092915050565b600081519050919050565b600082825260208201905092915050565b60005b83811015611f7f578082015181840152602081019050611f64565b83811115611f8e576000848401525b50505050565b6000611f9f82611f45565b611fa98185611f50565b9350611fb9818560208601611f61565b611fc281611b6d565b840191505092915050565b611fd681611e54565b82525050565b611fe581611c2a565b82525050565b600060608301600083015184820360008601526120088282611f94565b915050602083015161201d6020860182611fcd565b5060408301516120306040860182611fdc565b508091505092915050565b600060208201905081810360008301526120558184611feb565b905092915050565b600082825260208201905092915050565b7f5468697320636f6e747261637420697320646561637469766174656400000000600082015250565b60006120a4601c8361205d565b91506120af8261206e565b602082019050919050565b600060208201905081810360008301526120d381612097565b9050919050565b7f4f6e6c7920746865206170706c69636174696f6e2063616e206578656375746560008201527f2074686973206f7065726174696f6e0000000000000000000000000000000000602082015250565b6000612136602f8361205d565b9150612141826120da565b604082019050919050565b6000602082019050818103600083015261216581612129565b9050919050565b7f4e487b7100000000000000000000000000000000000000000000000000000000600052603260045260246000fd5b7f5375636365737366756c20657865637574696f6e210000000000000000000000600082015250565b60006121d160158361205d565b91506121dc8261219b565b602082019050919050565b60006020820190508181036000830152612200816121c4565b9050919050565b7f436f6e646974696f6e7320646f206e6f74206d65657400000000000000000000600082015250565b600061223d60168361205d565b915061224882612207565b602082019050919050565b6000602082019050818103600083015261226c81612230565b9050919050565b7f4f6e6c79207468652070726f636573732063616e20657865637574652074686960008201527f73206f7065726174696f6e000000000000000000000000000000000000000000602082015250565b60006122cf602b8361205d565b91506122da82612273565b604082019050919050565b600060208201905081810360008301526122fe816122c2565b9050919050565b7f4f6e6c79207468652070726f63657373206f7220746865206170706c6963617460008201527f696f6e2063616e20657865637574652074686973206f7065726174696f6e0000602082015250565b6000612361603e8361205d565b915061236c82612305565b604082019050919050565b6000602082019050818103600083015261239081612354565b9050919050565b7f54686520636f6e747261637420697320616c7265616479207369676e65640000600082015250565b60006123cd601e8361205d565b91506123d882612397565b602082019050919050565b600060208201905081810360008301526123fc816123c0565b9050919050565b7f4e487b7100000000000000000000000000000000000000000000000000000000600052602260045260246000fd5b6000600282049050600182168061244a57607f821691505b6020821081141561245e5761245d612403565b5b50919050565b7f5468657265206973206e6f20656e6454696d652073657420696e2074696d656f60008201527f7574000000000000000000000000000000000000000000000000000000000000602082015250565b60006124c060228361205d565b91506124cb82612464565b604082019050919050565b600060208201905081810360008301526124ef816124b3565b9050919050565b7f4e487b7100000000000000000000000000000000000000000000000000000000600052601160045260246000fd5b600061253082611b2c565b915061253b83611b2c565b92508282101561254e5761254d6124f6565b5b828203905092915050565b600061256482611b2c565b915061256f83611b2c565b92508263ffffffff03821115612588576125876124f6565b5b828201905092915050565b7f546865206d6574686f642067657454696d65496e5365636f6e647320646f657360008201527f6e277420776f726b20666f72204d4f4e544820616e6420594541520000000000602082015250565b60006125ef603b8361205d565b91506125fa82612593565b604082019050919050565b6000602082019050818103600083015261261e816125e2565b9050919050565b6000819050919050565b600061263a82612625565b91507fffffffffffffffffffffffffffffffffffffffffffffffffffffffffffffffff82141561266d5761266c6124f6565b5b600182019050919050565b7f4e487b7100000000000000000000000000000000000000000000000000000000600052601260045260246000fd5b60006126b282612625565b91506126bd83612625565b9250826126cd576126cc612678565b5b828204905092915050565b60006126e382612625565b91506126ee83612625565b925082821015612701576127006124f6565b5b828203905092915050565b600061271782612625565b915061272283612625565b92508261273257612731612678565b5b828206905092915050565b600061274882612625565b915061275383612625565b9250827fffffffffffffffffffffffffffffffffffffffffffffffffffffffffffffffff03821115612788576127876124f6565b5b828201905092915050565b600061279e82611b2c565b91506127a983611b2c565b92508163ffffffff04831182151516156127c6576127c56124f6565b5b828202905092915050565b60006127dc82611b2c565b91506127e783611b2c565b9250826127f7576127f6612678565b5b828204905092915050565b600061280d82611b2c565b915061281883611b2c565b92508261282857612827612678565b5b82820690509291505056fea2646970667358221220ac65e577ccf378554f91711af8c33e85944d18fd3c7cc17b5f3de2c317b790c064736f6c634300080a0033",
					"opcodes": "PUSH1 0x80 PUSH1 0x40 MSTORE CALLVALUE DUP1 ISZERO PUSH3 0x11 JUMPI PUSH1 0x0 DUP1 REVERT JUMPDEST POP PUSH1 0x40 MLOAD PUSH3 0x350A CODESIZE SUB DUP1 PUSH3 0x350A DUP4 CODECOPY DUP2 DUP2 ADD PUSH1 0x40 MSTORE DUP2 ADD SWAP1 PUSH3 0x37 SWAP2 SWAP1 PUSH3 0xB51 JUMP JUMPDEST PUSH1 0x1 PUSH1 0x0 DUP1 PUSH2 0x100 EXP DUP2 SLOAD DUP2 PUSH1 0xFF MUL NOT AND SWAP1 DUP4 ISZERO ISZERO MUL OR SWAP1 SSTORE POP PUSH4 0x63B13D80 PUSH1 0x0 PUSH1 0x1 PUSH2 0x100 EXP DUP2 SLOAD DUP2 PUSH4 0xFFFFFFFF MUL NOT AND SWAP1 DUP4 PUSH4 0xFFFFFFFF AND MUL OR SWAP1 SSTORE POP PUSH4 0x67733400 PUSH1 0x0 PUSH1 0x5 PUSH2 0x100 EXP DUP2 SLOAD DUP2 PUSH4 0xFFFFFFFF MUL NOT AND SWAP1 DUP4 PUSH4 0xFFFFFFFF AND MUL OR SWAP1 SSTORE POP PUSH3 0xE9 PUSH1 0x40 MLOAD DUP1 PUSH1 0x40 ADD PUSH1 0x40 MSTORE DUP1 PUSH1 0x9 DUP2 MSTORE PUSH1 0x20 ADD PUSH32 0x4F72636964204150490000000000000000000000000000000000000000000000 DUP2 MSTORE POP DUP3 PUSH1 0x0 PUSH3 0x6FF PUSH1 0x20 SHL PUSH3 0xEE2 OR PUSH1 0x20 SHR JUMP JUMPDEST PUSH1 0x1 PUSH1 0x0 DUP3 ADD MLOAD DUP2 PUSH1 0x0 ADD SWAP1 DUP1 MLOAD SWAP1 PUSH1 0x20 ADD SWAP1 PUSH3 0x109 SWAP3 SWAP2 SWAP1 PUSH3 0x8E3 JUMP JUMPDEST POP PUSH1 0x20 DUP3 ADD MLOAD DUP2 PUSH1 0x1 ADD PUSH1 0x0 PUSH2 0x100 EXP DUP2 SLOAD DUP2 PUSH20 0xFFFFFFFFFFFFFFFFFFFFFFFFFFFFFFFFFFFFFFFF MUL NOT AND SWAP1 DUP4 PUSH20 0xFFFFFFFFFFFFFFFFFFFFFFFFFFFFFFFFFFFFFFFF AND MUL OR SWAP1 SSTORE POP PUSH1 0x40 DUP3 ADD MLOAD DUP2 PUSH1 0x1 ADD PUSH1 0x14 PUSH2 0x100 EXP DUP2 SLOAD DUP2 PUSH1 0xFF MUL NOT AND SWAP1 DUP4 ISZERO ISZERO MUL OR SWAP1 SSTORE POP SWAP1 POP POP PUSH3 0x1C2 PUSH1 0x40 MLOAD DUP1 PUSH1 0x40 ADD PUSH1 0x40 MSTORE DUP1 PUSH1 0x13 DUP2 MSTORE PUSH1 0x20 ADD PUSH32 0x496E746567726174696F6E2050726F6365737300000000000000000000000000 DUP2 MSTORE POP CALLER PUSH1 0x1 PUSH3 0x6FF PUSH1 0x20 SHL PUSH3 0xEE2 OR PUSH1 0x20 SHR JUMP JUMPDEST PUSH1 0x3 PUSH1 0x0 DUP3 ADD MLOAD DUP2 PUSH1 0x0 ADD SWAP1 DUP1 MLOAD SWAP1 PUSH1 0x20 ADD SWAP1 PUSH3 0x1E2 SWAP3 SWAP2 SWAP1 PUSH3 0x8E3 JUMP JUMPDEST POP PUSH1 0x20 DUP3 ADD MLOAD DUP2 PUSH1 0x1 ADD PUSH1 0x0 PUSH2 0x100 EXP DUP2 SLOAD DUP2 PUSH20 0xFFFFFFFFFFFFFFFFFFFFFFFFFFFFFFFFFFFFFFFF MUL NOT AND SWAP1 DUP4 PUSH20 0xFFFFFFFFFFFFFFFFFFFFFFFFFFFFFFFFFFFFFFFF AND MUL OR SWAP1 SSTORE POP PUSH1 0x40 DUP3 ADD MLOAD DUP2 PUSH1 0x1 ADD PUSH1 0x14 PUSH2 0x100 EXP DUP2 SLOAD DUP2 PUSH1 0xFF MUL NOT AND SWAP1 DUP4 ISZERO ISZERO MUL OR SWAP1 SSTORE POP SWAP1 POP POP PUSH1 0x3 PUSH1 0x5 PUSH1 0x0 CALLER PUSH20 0xFFFFFFFFFFFFFFFFFFFFFFFFFFFFFFFFFFFFFFFF AND PUSH20 0xFFFFFFFFFFFFFFFFFFFFFFFFFFFFFFFFFFFFFFFF AND DUP2 MSTORE PUSH1 0x20 ADD SWAP1 DUP2 MSTORE PUSH1 0x20 ADD PUSH1 0x0 KECCAK256 PUSH1 0x0 DUP3 ADD DUP2 PUSH1 0x0 ADD SWAP1 DUP1 SLOAD PUSH3 0x2A4 SWAP1 PUSH3 0xBB2 JUMP JUMPDEST PUSH3 0x2B1 SWAP3 SWAP2 SWAP1 PUSH3 0x974 JUMP JUMPDEST POP PUSH1 0x1 DUP3 ADD PUSH1 0x0 SWAP1 SLOAD SWAP1 PUSH2 0x100 EXP SWAP1 DIV PUSH20 0xFFFFFFFFFFFFFFFFFFFFFFFFFFFFFFFFFFFFFFFF AND DUP2 PUSH1 0x1 ADD PUSH1 0x0 PUSH2 0x100 EXP DUP2 SLOAD DUP2 PUSH20 0xFFFFFFFFFFFFFFFFFFFFFFFFFFFFFFFFFFFFFFFF MUL NOT AND SWAP1 DUP4 PUSH20 0xFFFFFFFFFFFFFFFFFFFFFFFFFFFFFFFFFFFFFFFF AND MUL OR SWAP1 SSTORE POP PUSH1 0x1 DUP3 ADD PUSH1 0x14 SWAP1 SLOAD SWAP1 PUSH2 0x100 EXP SWAP1 DIV PUSH1 0xFF AND DUP2 PUSH1 0x1 ADD PUSH1 0x14 PUSH2 0x100 EXP DUP2 SLOAD DUP2 PUSH1 0xFF MUL NOT AND SWAP1 DUP4 ISZERO ISZERO MUL OR SWAP1 SSTORE POP SWAP1 POP POP PUSH1 0x1 PUSH1 0x5 PUSH1 0x0 DUP4 PUSH20 0xFFFFFFFFFFFFFFFFFFFFFFFFFFFFFFFFFFFFFFFF AND PUSH20 0xFFFFFFFFFFFFFFFFFFFFFFFFFFFFFFFFFFFFFFFF AND DUP2 MSTORE PUSH1 0x20 ADD SWAP1 DUP2 MSTORE PUSH1 0x20 ADD PUSH1 0x0 KECCAK256 PUSH1 0x0 DUP3 ADD DUP2 PUSH1 0x0 ADD SWAP1 DUP1 SLOAD PUSH3 0x3A0 SWAP1 PUSH3 0xBB2 JUMP JUMPDEST PUSH3 0x3AD SWAP3 SWAP2 SWAP1 PUSH3 0x974 JUMP JUMPDEST POP PUSH1 0x1 DUP3 ADD PUSH1 0x0 SWAP1 SLOAD SWAP1 PUSH2 0x100 EXP SWAP1 DIV PUSH20 0xFFFFFFFFFFFFFFFFFFFFFFFFFFFFFFFFFFFFFFFF AND DUP2 PUSH1 0x1 ADD PUSH1 0x0 PUSH2 0x100 EXP DUP2 SLOAD DUP2 PUSH20 0xFFFFFFFFFFFFFFFFFFFFFFFFFFFFFFFFFFFFFFFF MUL NOT AND SWAP1 DUP4 PUSH20 0xFFFFFFFFFFFFFFFFFFFFFFFFFFFFFFFFFFFFFFFF AND MUL OR SWAP1 SSTORE POP PUSH1 0x1 DUP3 ADD PUSH1 0x14 SWAP1 SLOAD SWAP1 PUSH2 0x100 EXP SWAP1 DIV PUSH1 0xFF AND DUP2 PUSH1 0x1 ADD PUSH1 0x14 PUSH2 0x100 EXP DUP2 SLOAD DUP2 PUSH1 0xFF MUL NOT AND SWAP1 DUP4 ISZERO ISZERO MUL OR SWAP1 SSTORE POP SWAP1 POP POP PUSH1 0x6 PUSH3 0x460 PUSH1 0x8 PUSH1 0x0 PUSH3 0x745 PUSH1 0x20 SHL PUSH3 0xF26 OR PUSH1 0x20 SHR JUMP JUMPDEST SWAP1 DUP1 PUSH1 0x1 DUP2 SLOAD ADD DUP1 DUP3 SSTORE DUP1 SWAP2 POP POP PUSH1 0x1 SWAP1 SUB SWAP1 PUSH1 0x0 MSTORE PUSH1 0x20 PUSH1 0x0 KECCAK256 ADD PUSH1 0x0 SWAP1 SWAP2 SWAP1 SWAP2 SWAP1 SWAP2 POP PUSH1 0x0 DUP3 ADD MLOAD DUP2 PUSH1 0x0 ADD PUSH1 0x0 PUSH2 0x100 EXP DUP2 SLOAD DUP2 PUSH4 0xFFFFFFFF MUL NOT AND SWAP1 DUP4 PUSH4 0xFFFFFFFF AND MUL OR SWAP1 SSTORE POP PUSH1 0x20 DUP3 ADD MLOAD DUP2 PUSH1 0x0 ADD PUSH1 0x4 PUSH2 0x100 EXP DUP2 SLOAD DUP2 PUSH1 0xFF MUL NOT AND SWAP1 DUP4 PUSH1 0xFF AND MUL OR SWAP1 SSTORE POP PUSH1 0x40 DUP3 ADD MLOAD DUP2 PUSH1 0x0 ADD PUSH1 0x5 PUSH2 0x100 EXP DUP2 SLOAD DUP2 PUSH4 0xFFFFFFFF MUL NOT AND SWAP1 DUP4 PUSH4 0xFFFFFFFF AND MUL OR SWAP1 SSTORE POP PUSH1 0x60 DUP3 ADD MLOAD DUP2 PUSH1 0x0 ADD PUSH1 0x9 PUSH2 0x100 EXP DUP2 SLOAD DUP2 PUSH4 0xFFFFFFFF MUL NOT AND SWAP1 DUP4 PUSH4 0xFFFFFFFF AND MUL OR SWAP1 SSTORE POP PUSH1 0x80 DUP3 ADD MLOAD DUP2 PUSH1 0x0 ADD PUSH1 0xD PUSH2 0x100 EXP DUP2 SLOAD DUP2 PUSH4 0xFFFFFFFF MUL NOT AND SWAP1 DUP4 PUSH4 0xFFFFFFFF AND MUL OR SWAP1 SSTORE POP POP POP PUSH1 0x7 PUSH3 0x591 PUSH1 0x40 MLOAD DUP1 PUSH1 0x40 ADD PUSH1 0x40 MSTORE DUP1 PUSH1 0x1C DUP2 MSTORE PUSH1 0x20 ADD PUSH32 0x2F2F617574686F722F6F726369642F69642F746578742829213D272700000000 DUP2 MSTORE POP PUSH3 0x7CA PUSH1 0x20 SHL PUSH3 0xF9F OR PUSH1 0x20 SHR JUMP JUMPDEST SWAP1 DUP1 PUSH1 0x1 DUP2 SLOAD ADD DUP1 DUP3 SSTORE DUP1 SWAP2 POP POP PUSH1 0x1 SWAP1 SUB SWAP1 PUSH1 0x0 MSTORE PUSH1 0x20 PUSH1 0x0 KECCAK256 ADD PUSH1 0x0 SWAP1 SWAP2 SWAP1 SWAP2 SWAP1 SWAP2 POP PUSH1 0x0 DUP3 ADD MLOAD DUP2 PUSH1 0x0 ADD SWAP1 DUP1 MLOAD SWAP1 PUSH1 0x20 ADD SWAP1 PUSH3 0x5D4 SWAP3 SWAP2 SWAP1 PUSH3 0x8E3 JUMP JUMPDEST POP POP POP PUSH1 0x7 PUSH3 0x624 PUSH1 0x40 MLOAD DUP1 PUSH1 0x40 ADD PUSH1 0x40 MSTORE DUP1 PUSH1 0x1A DUP2 MSTORE PUSH1 0x20 ADD PUSH32 0x2F2F61727469636C652F7469746C652F746578742829213D2727000000000000 DUP2 MSTORE POP PUSH3 0x7CA PUSH1 0x20 SHL PUSH3 0xF9F OR PUSH1 0x20 SHR JUMP JUMPDEST SWAP1 DUP1 PUSH1 0x1 DUP2 SLOAD ADD DUP1 DUP3 SSTORE DUP1 SWAP2 POP POP PUSH1 0x1 SWAP1 SUB SWAP1 PUSH1 0x0 MSTORE PUSH1 0x20 PUSH1 0x0 KECCAK256 ADD PUSH1 0x0 SWAP1 SWAP2 SWAP1 SWAP2 SWAP1 SWAP2 POP PUSH1 0x0 DUP3 ADD MLOAD DUP2 PUSH1 0x0 ADD SWAP1 DUP1 MLOAD SWAP1 PUSH1 0x20 ADD SWAP1 PUSH3 0x667 SWAP3 SWAP2 SWAP1 PUSH3 0x8E3 JUMP JUMPDEST POP POP POP PUSH1 0x8 PUSH3 0x683 PUSH1 0x5 PUSH3 0x7EA PUSH1 0x20 SHL PUSH3 0xFBD OR PUSH1 0x20 SHR JUMP JUMPDEST SWAP1 DUP1 PUSH1 0x1 DUP2 SLOAD ADD DUP1 DUP3 SSTORE DUP1 SWAP2 POP POP PUSH1 0x1 SWAP1 SUB SWAP1 PUSH1 0x0 MSTORE PUSH1 0x20 PUSH1 0x0 KECCAK256 ADD PUSH1 0x0 SWAP1 SWAP2 SWAP1 SWAP2 SWAP1 SWAP2 POP PUSH1 0x0 DUP3 ADD MLOAD DUP2 PUSH1 0x0 ADD PUSH1 0x0 PUSH2 0x100 EXP DUP2 SLOAD DUP2 PUSH4 0xFFFFFFFF MUL NOT AND SWAP1 DUP4 PUSH4 0xFFFFFFFF AND MUL OR SWAP1 SSTORE POP PUSH1 0x20 DUP3 ADD MLOAD DUP2 PUSH1 0x0 ADD PUSH1 0x4 PUSH2 0x100 EXP DUP2 SLOAD DUP2 PUSH4 0xFFFFFFFF MUL NOT AND SWAP1 DUP4 PUSH4 0xFFFFFFFF AND MUL OR SWAP1 SSTORE POP POP POP POP PUSH3 0xC91 JUMP JUMPDEST PUSH3 0x709 PUSH3 0xA0C JUMP JUMPDEST PUSH1 0x40 MLOAD DUP1 PUSH1 0x60 ADD PUSH1 0x40 MSTORE DUP1 DUP6 DUP2 MSTORE PUSH1 0x20 ADD DUP5 PUSH20 0xFFFFFFFFFFFFFFFFFFFFFFFFFFFFFFFFFFFFFFFF AND DUP2 MSTORE PUSH1 0x20 ADD DUP4 ISZERO ISZERO DUP2 MSTORE POP SWAP1 POP SWAP4 SWAP3 POP POP POP JUMP JUMPDEST PUSH3 0x74F PUSH3 0xA45 JUMP JUMPDEST PUSH1 0x0 PUSH1 0x4 PUSH1 0xFF AND DUP4 PUSH1 0xFF AND GT PUSH3 0x779 JUMPI PUSH3 0x771 DUP4 PUSH3 0x81D PUSH1 0x20 SHL PUSH1 0x20 SHR JUMP JUMPDEST SWAP1 POP PUSH3 0x77E JUMP JUMPDEST PUSH1 0x1 SWAP1 POP JUMPDEST PUSH1 0x40 MLOAD DUP1 PUSH1 0xA0 ADD PUSH1 0x40 MSTORE DUP1 DUP6 PUSH4 0xFFFFFFFF AND DUP2 MSTORE PUSH1 0x20 ADD DUP5 PUSH1 0xFF AND DUP2 MSTORE PUSH1 0x20 ADD DUP3 PUSH4 0xFFFFFFFF AND DUP2 MSTORE PUSH1 0x20 ADD DUP6 PUSH4 0xFFFFFFFF AND DUP2 MSTORE PUSH1 0x20 ADD PUSH1 0x0 PUSH4 0xFFFFFFFF AND DUP2 MSTORE POP SWAP2 POP POP SWAP3 SWAP2 POP POP JUMP JUMPDEST PUSH3 0x7D4 PUSH3 0xA8F JUMP JUMPDEST PUSH1 0x40 MLOAD DUP1 PUSH1 0x20 ADD PUSH1 0x40 MSTORE DUP1 DUP4 DUP2 MSTORE POP SWAP1 POP SWAP2 SWAP1 POP JUMP JUMPDEST PUSH3 0x7F4 PUSH3 0xAA2 JUMP JUMPDEST PUSH1 0x40 MLOAD DUP1 PUSH1 0x40 ADD PUSH1 0x40 MSTORE DUP1 PUSH1 0x0 PUSH4 0xFFFFFFFF AND DUP2 MSTORE PUSH1 0x20 ADD DUP4 PUSH4 0xFFFFFFFF AND DUP2 MSTORE POP SWAP1 POP SWAP2 SWAP1 POP JUMP JUMPDEST PUSH1 0x0 PUSH1 0x4 PUSH1 0xFF AND DUP3 PUSH1 0xFF AND GT ISZERO PUSH3 0x86C JUMPI PUSH1 0x40 MLOAD PUSH32 0x8C379A000000000000000000000000000000000000000000000000000000000 DUP2 MSTORE PUSH1 0x4 ADD PUSH3 0x863 SWAP1 PUSH3 0xC6F JUMP JUMPDEST PUSH1 0x40 MLOAD DUP1 SWAP2 SUB SWAP1 REVERT JUMPDEST PUSH1 0x0 PUSH1 0xFF AND DUP3 PUSH1 0xFF AND EQ ISZERO PUSH3 0x886 JUMPI PUSH1 0x1 SWAP1 POP PUSH3 0x8DE JUMP JUMPDEST PUSH1 0x1 PUSH1 0xFF AND DUP3 PUSH1 0xFF AND EQ ISZERO PUSH3 0x8A0 JUMPI PUSH1 0x3C SWAP1 POP PUSH3 0x8DE JUMP JUMPDEST PUSH1 0x2 PUSH1 0xFF AND DUP3 PUSH1 0xFF AND EQ ISZERO PUSH3 0x8BB JUMPI PUSH2 0xE10 SWAP1 POP PUSH3 0x8DE JUMP JUMPDEST PUSH1 0x3 PUSH1 0xFF AND DUP3 PUSH1 0xFF AND EQ ISZERO PUSH3 0x8D7 JUMPI PUSH3 0x15180 SWAP1 POP PUSH3 0x8DE JUMP JUMPDEST PUSH3 0x93A80 SWAP1 POP JUMPDEST SWAP2 SWAP1 POP JUMP JUMPDEST DUP3 DUP1 SLOAD PUSH3 0x8F1 SWAP1 PUSH3 0xBB2 JUMP JUMPDEST SWAP1 PUSH1 0x0 MSTORE PUSH1 0x20 PUSH1 0x0 KECCAK256 SWAP1 PUSH1 0x1F ADD PUSH1 0x20 SWAP1 DIV DUP2 ADD SWAP3 DUP3 PUSH3 0x915 JUMPI PUSH1 0x0 DUP6 SSTORE PUSH3 0x961 JUMP JUMPDEST DUP3 PUSH1 0x1F LT PUSH3 0x930 JUMPI DUP1 MLOAD PUSH1 0xFF NOT AND DUP4 DUP1 ADD OR DUP6 SSTORE PUSH3 0x961 JUMP JUMPDEST DUP3 DUP1 ADD PUSH1 0x1 ADD DUP6 SSTORE DUP3 ISZERO PUSH3 0x961 JUMPI SWAP2 DUP3 ADD JUMPDEST DUP3 DUP2 GT ISZERO PUSH3 0x960 JUMPI DUP3 MLOAD DUP3 SSTORE SWAP2 PUSH1 0x20 ADD SWAP2 SWAP1 PUSH1 0x1 ADD SWAP1 PUSH3 0x943 JUMP JUMPDEST JUMPDEST POP SWAP1 POP PUSH3 0x970 SWAP2 SWAP1 PUSH3 0xAC8 JUMP JUMPDEST POP SWAP1 JUMP JUMPDEST DUP3 DUP1 SLOAD PUSH3 0x982 SWAP1 PUSH3 0xBB2 JUMP JUMPDEST SWAP1 PUSH1 0x0 MSTORE PUSH1 0x20 PUSH1 0x0 KECCAK256 SWAP1 PUSH1 0x1F ADD PUSH1 0x20 SWAP1 DIV DUP2 ADD SWAP3 DUP3 PUSH3 0x9A6 JUMPI PUSH1 0x0 DUP6 SSTORE PUSH3 0x9F9 JUMP JUMPDEST DUP3 PUSH1 0x1F LT PUSH3 0x9B9 JUMPI DUP1 SLOAD DUP6 SSTORE PUSH3 0x9F9 JUMP JUMPDEST DUP3 DUP1 ADD PUSH1 0x1 ADD DUP6 SSTORE DUP3 ISZERO PUSH3 0x9F9 JUMPI PUSH1 0x0 MSTORE PUSH1 0x20 PUSH1 0x0 KECCAK256 SWAP2 PUSH1 0x1F ADD PUSH1 0x20 SWAP1 DIV DUP3 ADD JUMPDEST DUP3 DUP2 GT ISZERO PUSH3 0x9F8 JUMPI DUP3 SLOAD DUP3 SSTORE SWAP2 PUSH1 0x1 ADD SWAP2 SWAP1 PUSH1 0x1 ADD SWAP1 PUSH3 0x9DB JUMP JUMPDEST JUMPDEST POP SWAP1 POP PUSH3 0xA08 SWAP2 SWAP1 PUSH3 0xAC8 JUMP JUMPDEST POP SWAP1 JUMP JUMPDEST PUSH1 0x40 MLOAD DUP1 PUSH1 0x60 ADD PUSH1 0x40 MSTORE DUP1 PUSH1 0x60 DUP2 MSTORE PUSH1 0x20 ADD PUSH1 0x0 PUSH20 0xFFFFFFFFFFFFFFFFFFFFFFFFFFFFFFFFFFFFFFFF AND DUP2 MSTORE PUSH1 0x20 ADD PUSH1 0x0 ISZERO ISZERO DUP2 MSTORE POP SWAP1 JUMP JUMPDEST PUSH1 0x40 MLOAD DUP1 PUSH1 0xA0 ADD PUSH1 0x40 MSTORE DUP1 PUSH1 0x0 PUSH4 0xFFFFFFFF AND DUP2 MSTORE PUSH1 0x20 ADD PUSH1 0x0 PUSH1 0xFF AND DUP2 MSTORE PUSH1 0x20 ADD PUSH1 0x0 PUSH4 0xFFFFFFFF AND DUP2 MSTORE PUSH1 0x20 ADD PUSH1 0x0 PUSH4 0xFFFFFFFF AND DUP2 MSTORE PUSH1 0x20 ADD PUSH1 0x0 PUSH4 0xFFFFFFFF AND DUP2 MSTORE POP SWAP1 JUMP JUMPDEST PUSH1 0x40 MLOAD DUP1 PUSH1 0x20 ADD PUSH1 0x40 MSTORE DUP1 PUSH1 0x60 DUP2 MSTORE POP SWAP1 JUMP JUMPDEST PUSH1 0x40 MLOAD DUP1 PUSH1 0x40 ADD PUSH1 0x40 MSTORE DUP1 PUSH1 0x0 PUSH4 0xFFFFFFFF AND DUP2 MSTORE PUSH1 0x20 ADD PUSH1 0x0 PUSH4 0xFFFFFFFF AND DUP2 MSTORE POP SWAP1 JUMP JUMPDEST JUMPDEST DUP1 DUP3 GT ISZERO PUSH3 0xAE3 JUMPI PUSH1 0x0 DUP2 PUSH1 0x0 SWAP1 SSTORE POP PUSH1 0x1 ADD PUSH3 0xAC9 JUMP JUMPDEST POP SWAP1 JUMP JUMPDEST PUSH1 0x0 DUP1 REVERT JUMPDEST PUSH1 0x0 PUSH20 0xFFFFFFFFFFFFFFFFFFFFFFFFFFFFFFFFFFFFFFFF DUP3 AND SWAP1 POP SWAP2 SWAP1 POP JUMP JUMPDEST PUSH1 0x0 PUSH3 0xB19 DUP3 PUSH3 0xAEC JUMP JUMPDEST SWAP1 POP SWAP2 SWAP1 POP JUMP JUMPDEST PUSH3 0xB2B DUP2 PUSH3 0xB0C JUMP JUMPDEST DUP2 EQ PUSH3 0xB37 JUMPI PUSH1 0x0 DUP1 REVERT JUMPDEST POP JUMP JUMPDEST PUSH1 0x0 DUP2 MLOAD SWAP1 POP PUSH3 0xB4B DUP2 PUSH3 0xB20 JUMP JUMPDEST SWAP3 SWAP2 POP POP JUMP JUMPDEST PUSH1 0x0 PUSH1 0x20 DUP3 DUP5 SUB SLT ISZERO PUSH3 0xB6A JUMPI PUSH3 0xB69 PUSH3 0xAE7 JUMP JUMPDEST JUMPDEST PUSH1 0x0 PUSH3 0xB7A DUP5 DUP3 DUP6 ADD PUSH3 0xB3A JUMP JUMPDEST SWAP2 POP POP SWAP3 SWAP2 POP POP JUMP JUMPDEST PUSH32 0x4E487B7100000000000000000000000000000000000000000000000000000000 PUSH1 0x0 MSTORE PUSH1 0x22 PUSH1 0x4 MSTORE PUSH1 0x24 PUSH1 0x0 REVERT JUMPDEST PUSH1 0x0 PUSH1 0x2 DUP3 DIV SWAP1 POP PUSH1 0x1 DUP3 AND DUP1 PUSH3 0xBCB JUMPI PUSH1 0x7F DUP3 AND SWAP2 POP JUMPDEST PUSH1 0x20 DUP3 LT DUP2 EQ ISZERO PUSH3 0xBE2 JUMPI PUSH3 0xBE1 PUSH3 0xB83 JUMP JUMPDEST JUMPDEST POP SWAP2 SWAP1 POP JUMP JUMPDEST PUSH1 0x0 DUP3 DUP3 MSTORE PUSH1 0x20 DUP3 ADD SWAP1 POP SWAP3 SWAP2 POP POP JUMP JUMPDEST PUSH32 0x546865206D6574686F642067657454696D65496E5365636F6E647320646F6573 PUSH1 0x0 DUP3 ADD MSTORE PUSH32 0x6E277420776F726B20666F72204D4F4E544820616E6420594541520000000000 PUSH1 0x20 DUP3 ADD MSTORE POP JUMP JUMPDEST PUSH1 0x0 PUSH3 0xC57 PUSH1 0x3B DUP4 PUSH3 0xBE8 JUMP JUMPDEST SWAP2 POP PUSH3 0xC64 DUP3 PUSH3 0xBF9 JUMP JUMPDEST PUSH1 0x40 DUP3 ADD SWAP1 POP SWAP2 SWAP1 POP JUMP JUMPDEST PUSH1 0x0 PUSH1 0x20 DUP3 ADD SWAP1 POP DUP2 DUP2 SUB PUSH1 0x0 DUP4 ADD MSTORE PUSH3 0xC8A DUP2 PUSH3 0xC48 JUMP JUMPDEST SWAP1 POP SWAP2 SWAP1 POP JUMP JUMPDEST PUSH2 0x2869 DUP1 PUSH3 0xCA1 PUSH1 0x0 CODECOPY PUSH1 0x0 RETURN INVALID PUSH1 0x80 PUSH1 0x40 MSTORE CALLVALUE DUP1 ISZERO PUSH2 0x10 JUMPI PUSH1 0x0 DUP1 REVERT JUMPDEST POP PUSH1 0x4 CALLDATASIZE LT PUSH2 0x7D JUMPI PUSH1 0x0 CALLDATALOAD PUSH1 0xE0 SHR DUP1 PUSH4 0x70D8915A GT PUSH2 0x5B JUMPI DUP1 PUSH4 0x70D8915A EQ PUSH2 0x112 JUMPI DUP1 PUSH4 0x85931911 EQ PUSH2 0x130 JUMPI DUP1 PUSH4 0xB8B4F1A0 EQ PUSH2 0x14E JUMPI DUP1 PUSH4 0xFB6F8243 EQ PUSH2 0x16C JUMPI PUSH2 0x7D JUMP JUMPDEST DUP1 PUSH4 0x22D53D53 EQ PUSH2 0x82 JUMPI DUP1 PUSH4 0x41487B4A EQ PUSH2 0xB2 JUMPI DUP1 PUSH4 0x5E744C6A EQ PUSH2 0xE2 JUMPI JUMPDEST PUSH1 0x0 DUP1 REVERT JUMPDEST PUSH2 0x9C PUSH1 0x4 DUP1 CALLDATASIZE SUB DUP2 ADD SWAP1 PUSH2 0x97 SWAP2 SWAP1 PUSH2 0x1CF9 JUMP JUMPDEST PUSH2 0x19C JUMP JUMPDEST PUSH1 0x40 MLOAD PUSH2 0xA9 SWAP2 SWAP1 PUSH2 0x1D64 JUMP JUMPDEST PUSH1 0x40 MLOAD DUP1 SWAP2 SUB SWAP1 RETURN JUMPDEST PUSH2 0xCC PUSH1 0x4 DUP1 CALLDATASIZE SUB DUP2 ADD SWAP1 PUSH2 0xC7 SWAP2 SWAP1 PUSH2 0x1CF9 JUMP JUMPDEST PUSH2 0x3E0 JUMP JUMPDEST PUSH1 0x40 MLOAD PUSH2 0xD9 SWAP2 SWAP1 PUSH2 0x1D64 JUMP JUMPDEST PUSH1 0x40 MLOAD DUP1 SWAP2 SUB SWAP1 RETURN JUMPDEST PUSH2 0xFC PUSH1 0x4 DUP1 CALLDATASIZE SUB DUP2 ADD SWAP1 PUSH2 0xF7 SWAP2 SWAP1 PUSH2 0x1E92 JUMP JUMPDEST PUSH2 0x622 JUMP JUMPDEST PUSH1 0x40 MLOAD PUSH2 0x109 SWAP2 SWAP1 PUSH2 0x1D64 JUMP JUMPDEST PUSH1 0x40 MLOAD DUP1 SWAP2 SUB SWAP1 RETURN JUMPDEST PUSH2 0x11A PUSH2 0x813 JUMP JUMPDEST PUSH1 0x40 MLOAD PUSH2 0x127 SWAP2 SWAP1 PUSH2 0x1EFD JUMP JUMPDEST PUSH1 0x40 MLOAD DUP1 SWAP2 SUB SWAP1 RETURN JUMPDEST PUSH2 0x138 PUSH2 0x97A JUMP JUMPDEST PUSH1 0x40 MLOAD PUSH2 0x145 SWAP2 SWAP1 PUSH2 0x1EFD JUMP JUMPDEST PUSH1 0x40 MLOAD DUP1 SWAP2 SUB SWAP1 RETURN JUMPDEST PUSH2 0x156 PUSH2 0xAE2 JUMP JUMPDEST PUSH1 0x40 MLOAD PUSH2 0x163 SWAP2 SWAP1 PUSH2 0x1D64 JUMP JUMPDEST PUSH1 0x40 MLOAD DUP1 SWAP2 SUB SWAP1 RETURN JUMPDEST PUSH2 0x186 PUSH1 0x4 DUP1 CALLDATASIZE SUB DUP2 ADD SWAP1 PUSH2 0x181 SWAP2 SWAP1 PUSH2 0x1F18 JUMP JUMPDEST PUSH2 0xC4C JUMP JUMPDEST PUSH1 0x40 MLOAD PUSH2 0x193 SWAP2 SWAP1 PUSH2 0x203B JUMP JUMPDEST PUSH1 0x40 MLOAD DUP1 SWAP2 SUB SWAP1 RETURN JUMPDEST PUSH1 0x0 DUP1 PUSH1 0x0 SWAP1 SLOAD SWAP1 PUSH2 0x100 EXP SWAP1 DIV PUSH1 0xFF AND PUSH2 0x1EC JUMPI PUSH1 0x40 MLOAD PUSH32 0x8C379A000000000000000000000000000000000000000000000000000000000 DUP2 MSTORE PUSH1 0x4 ADD PUSH2 0x1E3 SWAP1 PUSH2 0x20BA JUMP JUMPDEST PUSH1 0x40 MLOAD DUP1 SWAP2 SUB SWAP1 REVERT JUMPDEST CALLER PUSH20 0xFFFFFFFFFFFFFFFFFFFFFFFFFFFFFFFFFFFFFFFF AND PUSH1 0x1 DUP1 ADD PUSH1 0x0 SWAP1 SLOAD SWAP1 PUSH2 0x100 EXP SWAP1 DIV PUSH20 0xFFFFFFFFFFFFFFFFFFFFFFFFFFFFFFFFFFFFFFFF AND PUSH20 0xFFFFFFFFFFFFFFFFFFFFFFFFFFFFFFFFFFFFFFFF AND EQ PUSH2 0x27E JUMPI PUSH1 0x40 MLOAD PUSH32 0x8C379A000000000000000000000000000000000000000000000000000000000 DUP2 MSTORE PUSH1 0x4 ADD PUSH2 0x275 SWAP1 PUSH2 0x214C JUMP JUMPDEST PUSH1 0x40 MLOAD DUP1 SWAP2 SUB SWAP1 REVERT JUMPDEST PUSH2 0x306 DUP4 PUSH1 0x8 PUSH1 0x0 DUP2 SLOAD DUP2 LT PUSH2 0x297 JUMPI PUSH2 0x296 PUSH2 0x216C JUMP JUMPDEST JUMPDEST SWAP1 PUSH1 0x0 MSTORE PUSH1 0x20 PUSH1 0x0 KECCAK256 ADD PUSH1 0x40 MLOAD DUP1 PUSH1 0x40 ADD PUSH1 0x40 MSTORE SWAP1 DUP2 PUSH1 0x0 DUP3 ADD PUSH1 0x0 SWAP1 SLOAD SWAP1 PUSH2 0x100 EXP SWAP1 DIV PUSH4 0xFFFFFFFF AND PUSH4 0xFFFFFFFF AND PUSH4 0xFFFFFFFF AND DUP2 MSTORE PUSH1 0x20 ADD PUSH1 0x0 DUP3 ADD PUSH1 0x4 SWAP1 SLOAD SWAP1 PUSH2 0x100 EXP SWAP1 DIV PUSH4 0xFFFFFFFF AND PUSH4 0xFFFFFFFF AND PUSH4 0xFFFFFFFF AND DUP2 MSTORE POP POP PUSH2 0xFEE SWAP1 SWAP2 SWAP1 PUSH4 0xFFFFFFFF AND JUMP JUMPDEST ISZERO DUP1 ISZERO PUSH2 0x32B JUMPI POP DUP2 PUSH1 0x0 DUP2 MLOAD DUP2 LT PUSH2 0x322 JUMPI PUSH2 0x321 PUSH2 0x216C JUMP JUMPDEST JUMPDEST PUSH1 0x20 MUL PUSH1 0x20 ADD ADD MLOAD JUMPDEST ISZERO PUSH2 0x3A0 JUMPI PUSH2 0x361 DUP4 PUSH1 0x6 PUSH1 0x0 DUP2 SLOAD DUP2 LT PUSH2 0x349 JUMPI PUSH2 0x348 PUSH2 0x216C JUMP JUMPDEST JUMPDEST SWAP1 PUSH1 0x0 MSTORE PUSH1 0x20 PUSH1 0x0 KECCAK256 ADD PUSH2 0x107D SWAP1 SWAP2 SWAP1 PUSH4 0xFFFFFFFF AND JUMP JUMPDEST POP PUSH32 0x95A1F3A1DAFDD4C1AF344E3D7C69A72CBCE8A3F15FE1CF95A7F5BD23DF2E71A1 PUSH1 0x40 MLOAD PUSH2 0x38F SWAP1 PUSH2 0x21E7 JUMP JUMPDEST PUSH1 0x40 MLOAD DUP1 SWAP2 SUB SWAP1 LOG1 PUSH1 0x1 SWAP1 POP PUSH2 0x3DA JUMP JUMPDEST PUSH32 0x66091B7DC2B097C8F60D5CD6AA99633B097F08D2EB1056F3E15361B22E0EA2BA PUSH1 0x40 MLOAD PUSH2 0x3CD SWAP1 PUSH2 0x2253 JUMP JUMPDEST PUSH1 0x40 MLOAD DUP1 SWAP2 SUB SWAP1 LOG1 PUSH1 0x0 SWAP1 POP JUMPDEST SWAP3 SWAP2 POP POP JUMP JUMPDEST PUSH1 0x0 DUP1 PUSH1 0x0 SWAP1 SLOAD SWAP1 PUSH2 0x100 EXP SWAP1 DIV PUSH1 0xFF AND PUSH2 0x430 JUMPI PUSH1 0x40 MLOAD PUSH32 0x8C379A000000000000000000000000000000000000000000000000000000000 DUP2 MSTORE PUSH1 0x4 ADD PUSH2 0x427 SWAP1 PUSH2 0x20BA JUMP JUMPDEST PUSH1 0x40 MLOAD DUP1 SWAP2 SUB SWAP1 REVERT JUMPDEST CALLER PUSH20 0xFFFFFFFFFFFFFFFFFFFFFFFFFFFFFFFFFFFFFFFF AND PUSH1 0x3 PUSH1 0x1 ADD PUSH1 0x0 SWAP1 SLOAD SWAP1 PUSH2 0x100 EXP SWAP1 DIV PUSH20 0xFFFFFFFFFFFFFFFFFFFFFFFFFFFFFFFFFFFFFFFF AND PUSH20 0xFFFFFFFFFFFFFFFFFFFFFFFFFFFFFFFFFFFFFFFF AND EQ PUSH2 0x4C3 JUMPI PUSH1 0x40 MLOAD PUSH32 0x8C379A000000000000000000000000000000000000000000000000000000000 DUP2 MSTORE PUSH1 0x4 ADD PUSH2 0x4BA SWAP1 PUSH2 0x22E5 JUMP JUMPDEST PUSH1 0x40 MLOAD DUP1 SWAP2 SUB SWAP1 REVERT JUMPDEST PUSH2 0x4F4 DUP4 PUSH1 0x6 PUSH1 0x0 DUP2 SLOAD DUP2 LT PUSH2 0x4DC JUMPI PUSH2 0x4DB PUSH2 0x216C JUMP JUMPDEST JUMPDEST SWAP1 PUSH1 0x0 MSTORE PUSH1 0x20 PUSH1 0x0 KECCAK256 ADD PUSH2 0x10E4 SWAP1 SWAP2 SWAP1 PUSH4 0xFFFFFFFF AND JUMP JUMPDEST DUP1 ISZERO PUSH2 0x518 JUMPI POP DUP2 PUSH1 0x0 DUP2 MLOAD DUP2 LT PUSH2 0x50F JUMPI PUSH2 0x50E PUSH2 0x216C JUMP JUMPDEST JUMPDEST PUSH1 0x20 MUL PUSH1 0x20 ADD ADD MLOAD JUMPDEST DUP1 ISZERO PUSH2 0x53C JUMPI POP DUP2 PUSH1 0x1 DUP2 MLOAD DUP2 LT PUSH2 0x533 JUMPI PUSH2 0x532 PUSH2 0x216C JUMP JUMPDEST JUMPDEST PUSH1 0x20 MUL PUSH1 0x20 ADD ADD MLOAD JUMPDEST ISZERO PUSH2 0x5E2 JUMPI PUSH2 0x572 DUP4 PUSH1 0x6 PUSH1 0x0 DUP2 SLOAD DUP2 LT PUSH2 0x55A JUMPI PUSH2 0x559 PUSH2 0x216C JUMP JUMPDEST JUMPDEST SWAP1 PUSH1 0x0 MSTORE PUSH1 0x20 PUSH1 0x0 KECCAK256 ADD PUSH2 0x107D SWAP1 SWAP2 SWAP1 PUSH4 0xFFFFFFFF AND JUMP JUMPDEST POP PUSH2 0x5A4 DUP4 PUSH1 0x8 PUSH1 0x0 DUP2 SLOAD DUP2 LT PUSH2 0x58C JUMPI PUSH2 0x58B PUSH2 0x216C JUMP JUMPDEST JUMPDEST SWAP1 PUSH1 0x0 MSTORE PUSH1 0x20 PUSH1 0x0 KECCAK256 ADD PUSH2 0x115D SWAP1 SWAP2 SWAP1 PUSH4 0xFFFFFFFF AND JUMP JUMPDEST PUSH32 0x95A1F3A1DAFDD4C1AF344E3D7C69A72CBCE8A3F15FE1CF95A7F5BD23DF2E71A1 PUSH1 0x40 MLOAD PUSH2 0x5D1 SWAP1 PUSH2 0x21E7 JUMP JUMPDEST PUSH1 0x40 MLOAD DUP1 SWAP2 SUB SWAP1 LOG1 PUSH1 0x1 SWAP1 POP PUSH2 0x61C JUMP JUMPDEST PUSH32 0x66091B7DC2B097C8F60D5CD6AA99633B097F08D2EB1056F3E15361B22E0EA2BA PUSH1 0x40 MLOAD PUSH2 0x60F SWAP1 PUSH2 0x2253 JUMP JUMPDEST PUSH1 0x40 MLOAD DUP1 SWAP2 SUB SWAP1 LOG1 PUSH1 0x0 SWAP1 POP JUMPDEST SWAP3 SWAP2 POP POP JUMP JUMPDEST PUSH1 0x0 CALLER PUSH20 0xFFFFFFFFFFFFFFFFFFFFFFFFFFFFFFFFFFFFFFFF AND PUSH1 0x3 PUSH1 0x1 ADD PUSH1 0x0 SWAP1 SLOAD SWAP1 PUSH2 0x100 EXP SWAP1 DIV PUSH20 0xFFFFFFFFFFFFFFFFFFFFFFFFFFFFFFFFFFFFFFFF AND PUSH20 0xFFFFFFFFFFFFFFFFFFFFFFFFFFFFFFFFFFFFFFFF AND EQ PUSH2 0x6B7 JUMPI PUSH1 0x40 MLOAD PUSH32 0x8C379A000000000000000000000000000000000000000000000000000000000 DUP2 MSTORE PUSH1 0x4 ADD PUSH2 0x6AE SWAP1 PUSH2 0x22E5 JUMP JUMPDEST PUSH1 0x40 MLOAD DUP1 SWAP2 SUB SWAP1 REVERT JUMPDEST PUSH1 0x5 PUSH1 0x0 PUSH1 0x1 DUP1 ADD PUSH1 0x0 SWAP1 SLOAD SWAP1 PUSH2 0x100 EXP SWAP1 DIV PUSH20 0xFFFFFFFFFFFFFFFFFFFFFFFFFFFFFFFFFFFFFFFF AND PUSH20 0xFFFFFFFFFFFFFFFFFFFFFFFFFFFFFFFFFFFFFFFF AND PUSH20 0xFFFFFFFFFFFFFFFFFFFFFFFFFFFFFFFFFFFFFFFF AND DUP2 MSTORE PUSH1 0x20 ADD SWAP1 DUP2 MSTORE PUSH1 0x20 ADD PUSH1 0x0 KECCAK256 PUSH1 0x0 DUP1 DUP3 ADD PUSH1 0x0 PUSH2 0x72B SWAP2 SWAP1 PUSH2 0x18EC JUMP JUMPDEST PUSH1 0x1 DUP3 ADD PUSH1 0x0 PUSH2 0x100 EXP DUP2 SLOAD SWAP1 PUSH20 0xFFFFFFFFFFFFFFFFFFFFFFFFFFFFFFFFFFFFFFFF MUL NOT AND SWAP1 SSTORE PUSH1 0x1 DUP3 ADD PUSH1 0x14 PUSH2 0x100 EXP DUP2 SLOAD SWAP1 PUSH1 0xFF MUL NOT AND SWAP1 SSTORE POP POP PUSH2 0x774 DUP4 DUP4 PUSH1 0x0 PUSH2 0xEE2 JUMP JUMPDEST PUSH1 0x1 PUSH1 0x0 DUP3 ADD MLOAD DUP2 PUSH1 0x0 ADD SWAP1 DUP1 MLOAD SWAP1 PUSH1 0x20 ADD SWAP1 PUSH2 0x792 SWAP3 SWAP2 SWAP1 PUSH2 0x192C JUMP JUMPDEST POP PUSH1 0x20 DUP3 ADD MLOAD DUP2 PUSH1 0x1 ADD PUSH1 0x0 PUSH2 0x100 EXP DUP2 SLOAD DUP2 PUSH20 0xFFFFFFFFFFFFFFFFFFFFFFFFFFFFFFFFFFFFFFFF MUL NOT AND SWAP1 DUP4 PUSH20 0xFFFFFFFFFFFFFFFFFFFFFFFFFFFFFFFFFFFFFFFF AND MUL OR SWAP1 SSTORE POP PUSH1 0x40 DUP3 ADD MLOAD DUP2 PUSH1 0x1 ADD PUSH1 0x14 PUSH2 0x100 EXP DUP2 SLOAD DUP2 PUSH1 0xFF MUL NOT AND SWAP1 DUP4 ISZERO ISZERO MUL OR SWAP1 SSTORE POP SWAP1 POP POP PUSH2 0x808 DUP3 PUSH1 0x1 PUSH2 0x11C8 JUMP JUMPDEST POP PUSH1 0x1 SWAP1 POP SWAP3 SWAP2 POP POP JUMP JUMPDEST PUSH1 0x0 DUP1 PUSH1 0x0 SWAP1 SLOAD SWAP1 PUSH2 0x100 EXP SWAP1 DIV PUSH1 0xFF AND PUSH2 0x863 JUMPI PUSH1 0x40 MLOAD PUSH32 0x8C379A000000000000000000000000000000000000000000000000000000000 DUP2 MSTORE PUSH1 0x4 ADD PUSH2 0x85A SWAP1 PUSH2 0x20BA JUMP JUMPDEST PUSH1 0x40 MLOAD DUP1 SWAP2 SUB SWAP1 REVERT JUMPDEST CALLER PUSH20 0xFFFFFFFFFFFFFFFFFFFFFFFFFFFFFFFFFFFFFFFF AND PUSH1 0x1 DUP1 ADD PUSH1 0x0 SWAP1 SLOAD SWAP1 PUSH2 0x100 EXP SWAP1 DIV PUSH20 0xFFFFFFFFFFFFFFFFFFFFFFFFFFFFFFFFFFFFFFFF AND PUSH20 0xFFFFFFFFFFFFFFFFFFFFFFFFFFFFFFFFFFFFFFFF AND EQ DUP1 PUSH2 0x911 JUMPI POP CALLER PUSH20 0xFFFFFFFFFFFFFFFFFFFFFFFFFFFFFFFFFFFFFFFF AND PUSH1 0x3 PUSH1 0x1 ADD PUSH1 0x0 SWAP1 SLOAD SWAP1 PUSH2 0x100 EXP SWAP1 DIV PUSH20 0xFFFFFFFFFFFFFFFFFFFFFFFFFFFFFFFFFFFFFFFF AND PUSH20 0xFFFFFFFFFFFFFFFFFFFFFFFFFFFFFFFFFFFFFFFF AND EQ JUMPDEST PUSH2 0x950 JUMPI PUSH1 0x40 MLOAD PUSH32 0x8C379A000000000000000000000000000000000000000000000000000000000 DUP2 MSTORE PUSH1 0x4 ADD PUSH2 0x947 SWAP1 PUSH2 0x2377 JUMP JUMPDEST PUSH1 0x40 MLOAD DUP1 SWAP2 SUB SWAP1 REVERT JUMPDEST PUSH1 0x1 DUP1 ADD PUSH1 0x0 SWAP1 SLOAD SWAP1 PUSH2 0x100 EXP SWAP1 DIV PUSH20 0xFFFFFFFFFFFFFFFFFFFFFFFFFFFFFFFFFFFFFFFF AND SWAP1 POP SWAP1 JUMP JUMPDEST PUSH1 0x0 DUP1 PUSH1 0x0 SWAP1 SLOAD SWAP1 PUSH2 0x100 EXP SWAP1 DIV PUSH1 0xFF AND PUSH2 0x9CA JUMPI PUSH1 0x40 MLOAD PUSH32 0x8C379A000000000000000000000000000000000000000000000000000000000 DUP2 MSTORE PUSH1 0x4 ADD PUSH2 0x9C1 SWAP1 PUSH2 0x20BA JUMP JUMPDEST PUSH1 0x40 MLOAD DUP1 SWAP2 SUB SWAP1 REVERT JUMPDEST CALLER PUSH20 0xFFFFFFFFFFFFFFFFFFFFFFFFFFFFFFFFFFFFFFFF AND PUSH1 0x1 DUP1 ADD PUSH1 0x0 SWAP1 SLOAD SWAP1 PUSH2 0x100 EXP SWAP1 DIV PUSH20 0xFFFFFFFFFFFFFFFFFFFFFFFFFFFFFFFFFFFFFFFF AND PUSH20 0xFFFFFFFFFFFFFFFFFFFFFFFFFFFFFFFFFFFFFFFF AND EQ DUP1 PUSH2 0xA78 JUMPI POP CALLER PUSH20 0xFFFFFFFFFFFFFFFFFFFFFFFFFFFFFFFFFFFFFFFF AND PUSH1 0x3 PUSH1 0x1 ADD PUSH1 0x0 SWAP1 SLOAD SWAP1 PUSH2 0x100 EXP SWAP1 DIV PUSH20 0xFFFFFFFFFFFFFFFFFFFFFFFFFFFFFFFFFFFFFFFF AND PUSH20 0xFFFFFFFFFFFFFFFFFFFFFFFFFFFFFFFFFFFFFFFF AND EQ JUMPDEST PUSH2 0xAB7 JUMPI PUSH1 0x40 MLOAD PUSH32 0x8C379A000000000000000000000000000000000000000000000000000000000 DUP2 MSTORE PUSH1 0x4 ADD PUSH2 0xAAE SWAP1 PUSH2 0x2377 JUMP JUMPDEST PUSH1 0x40 MLOAD DUP1 SWAP2 SUB SWAP1 REVERT JUMPDEST PUSH1 0x3 PUSH1 0x1 ADD PUSH1 0x0 SWAP1 SLOAD SWAP1 PUSH2 0x100 EXP SWAP1 DIV PUSH20 0xFFFFFFFFFFFFFFFFFFFFFFFFFFFFFFFFFFFFFFFF AND SWAP1 POP SWAP1 JUMP JUMPDEST PUSH1 0x0 DUP1 PUSH1 0x0 SWAP1 SLOAD SWAP1 PUSH2 0x100 EXP SWAP1 DIV PUSH1 0xFF AND PUSH2 0xB32 JUMPI PUSH1 0x40 MLOAD PUSH32 0x8C379A000000000000000000000000000000000000000000000000000000000 DUP2 MSTORE PUSH1 0x4 ADD PUSH2 0xB29 SWAP1 PUSH2 0x20BA JUMP JUMPDEST PUSH1 0x40 MLOAD DUP1 SWAP2 SUB SWAP1 REVERT JUMPDEST CALLER PUSH20 0xFFFFFFFFFFFFFFFFFFFFFFFFFFFFFFFFFFFFFFFF AND PUSH1 0x1 DUP1 ADD PUSH1 0x0 SWAP1 SLOAD SWAP1 PUSH2 0x100 EXP SWAP1 DIV PUSH20 0xFFFFFFFFFFFFFFFFFFFFFFFFFFFFFFFFFFFFFFFF AND PUSH20 0xFFFFFFFFFFFFFFFFFFFFFFFFFFFFFFFFFFFFFFFF AND EQ PUSH2 0xBC4 JUMPI PUSH1 0x40 MLOAD PUSH32 0x8C379A000000000000000000000000000000000000000000000000000000000 DUP2 MSTORE PUSH1 0x4 ADD PUSH2 0xBBB SWAP1 PUSH2 0x214C JUMP JUMPDEST PUSH1 0x40 MLOAD DUP1 SWAP2 SUB SWAP1 REVERT JUMPDEST PUSH1 0x0 ISZERO ISZERO PUSH1 0x1 DUP1 ADD PUSH1 0x14 SWAP1 SLOAD SWAP1 PUSH2 0x100 EXP SWAP1 DIV PUSH1 0xFF AND ISZERO ISZERO EQ PUSH2 0xC1C JUMPI PUSH1 0x40 MLOAD PUSH32 0x8C379A000000000000000000000000000000000000000000000000000000000 DUP2 MSTORE PUSH1 0x4 ADD PUSH2 0xC13 SWAP1 PUSH2 0x23E3 JUMP JUMPDEST PUSH1 0x40 MLOAD DUP1 SWAP2 SUB SWAP1 REVERT JUMPDEST PUSH1 0x1 DUP1 PUSH1 0x1 ADD PUSH1 0x14 PUSH2 0x100 EXP DUP2 SLOAD DUP2 PUSH1 0xFF MUL NOT AND SWAP1 DUP4 ISZERO ISZERO MUL OR SWAP1 SSTORE POP PUSH2 0xC44 CALLER PUSH1 0x1 PUSH2 0x11C8 JUMP JUMPDEST POP PUSH1 0x1 SWAP1 POP SWAP1 JUMP JUMPDEST PUSH2 0xC54 PUSH2 0x19B2 JUMP JUMPDEST PUSH1 0x0 DUP1 SLOAD SWAP1 PUSH2 0x100 EXP SWAP1 DIV PUSH1 0xFF AND PUSH2 0xCA1 JUMPI PUSH1 0x40 MLOAD PUSH32 0x8C379A000000000000000000000000000000000000000000000000000000000 DUP2 MSTORE PUSH1 0x4 ADD PUSH2 0xC98 SWAP1 PUSH2 0x20BA JUMP JUMPDEST PUSH1 0x40 MLOAD DUP1 SWAP2 SUB SWAP1 REVERT JUMPDEST CALLER PUSH20 0xFFFFFFFFFFFFFFFFFFFFFFFFFFFFFFFFFFFFFFFF AND PUSH1 0x1 DUP1 ADD PUSH1 0x0 SWAP1 SLOAD SWAP1 PUSH2 0x100 EXP SWAP1 DIV PUSH20 0xFFFFFFFFFFFFFFFFFFFFFFFFFFFFFFFFFFFFFFFF AND PUSH20 0xFFFFFFFFFFFFFFFFFFFFFFFFFFFFFFFFFFFFFFFF AND EQ DUP1 PUSH2 0xD4F JUMPI POP CALLER PUSH20 0xFFFFFFFFFFFFFFFFFFFFFFFFFFFFFFFFFFFFFFFF AND PUSH1 0x3 PUSH1 0x1 ADD PUSH1 0x0 SWAP1 SLOAD SWAP1 PUSH2 0x100 EXP SWAP1 DIV PUSH20 0xFFFFFFFFFFFFFFFFFFFFFFFFFFFFFFFFFFFFFFFF AND PUSH20 0xFFFFFFFFFFFFFFFFFFFFFFFFFFFFFFFFFFFFFFFF AND EQ JUMPDEST PUSH2 0xD8E JUMPI PUSH1 0x40 MLOAD PUSH32 0x8C379A000000000000000000000000000000000000000000000000000000000 DUP2 MSTORE PUSH1 0x4 ADD PUSH2 0xD85 SWAP1 PUSH2 0x2377 JUMP JUMPDEST PUSH1 0x40 MLOAD DUP1 SWAP2 SUB SWAP1 REVERT JUMPDEST PUSH1 0x5 PUSH1 0x0 DUP4 PUSH20 0xFFFFFFFFFFFFFFFFFFFFFFFFFFFFFFFFFFFFFFFF AND PUSH20 0xFFFFFFFFFFFFFFFFFFFFFFFFFFFFFFFFFFFFFFFF AND DUP2 MSTORE PUSH1 0x20 ADD SWAP1 DUP2 MSTORE PUSH1 0x20 ADD PUSH1 0x0 KECCAK256 PUSH1 0x40 MLOAD DUP1 PUSH1 0x60 ADD PUSH1 0x40 MSTORE SWAP1 DUP2 PUSH1 0x0 DUP3 ADD DUP1 SLOAD PUSH2 0xDE8 SWAP1 PUSH2 0x2432 JUMP JUMPDEST DUP1 PUSH1 0x1F ADD PUSH1 0x20 DUP1 SWAP2 DIV MUL PUSH1 0x20 ADD PUSH1 0x40 MLOAD SWAP1 DUP2 ADD PUSH1 0x40 MSTORE DUP1 SWAP3 SWAP2 SWAP1 DUP2 DUP2 MSTORE PUSH1 0x20 ADD DUP3 DUP1 SLOAD PUSH2 0xE14 SWAP1 PUSH2 0x2432 JUMP JUMPDEST DUP1 ISZERO PUSH2 0xE61 JUMPI DUP1 PUSH1 0x1F LT PUSH2 0xE36 JUMPI PUSH2 0x100 DUP1 DUP4 SLOAD DIV MUL DUP4 MSTORE SWAP2 PUSH1 0x20 ADD SWAP2 PUSH2 0xE61 JUMP JUMPDEST DUP3 ADD SWAP2 SWAP1 PUSH1 0x0 MSTORE PUSH1 0x20 PUSH1 0x0 KECCAK256 SWAP1 JUMPDEST DUP2 SLOAD DUP2 MSTORE SWAP1 PUSH1 0x1 ADD SWAP1 PUSH1 0x20 ADD DUP1 DUP4 GT PUSH2 0xE44 JUMPI DUP3 SWAP1 SUB PUSH1 0x1F AND DUP3 ADD SWAP2 JUMPDEST POP POP POP POP POP DUP2 MSTORE PUSH1 0x20 ADD PUSH1 0x1 DUP3 ADD PUSH1 0x0 SWAP1 SLOAD SWAP1 PUSH2 0x100 EXP SWAP1 DIV PUSH20 0xFFFFFFFFFFFFFFFFFFFFFFFFFFFFFFFFFFFFFFFF AND PUSH20 0xFFFFFFFFFFFFFFFFFFFFFFFFFFFFFFFFFFFFFFFF AND PUSH20 0xFFFFFFFFFFFFFFFFFFFFFFFFFFFFFFFFFFFFFFFF AND DUP2 MSTORE PUSH1 0x20 ADD PUSH1 0x1 DUP3 ADD PUSH1 0x14 SWAP1 SLOAD SWAP1 PUSH2 0x100 EXP SWAP1 DIV PUSH1 0xFF AND ISZERO ISZERO ISZERO ISZERO DUP2 MSTORE POP POP SWAP1 POP SWAP2 SWAP1 POP JUMP JUMPDEST PUSH2 0xEEA PUSH2 0x19B2 JUMP JUMPDEST PUSH1 0x40 MLOAD DUP1 PUSH1 0x60 ADD PUSH1 0x40 MSTORE DUP1 DUP6 DUP2 MSTORE PUSH1 0x20 ADD DUP5 PUSH20 0xFFFFFFFFFFFFFFFFFFFFFFFFFFFFFFFFFFFFFFFF AND DUP2 MSTORE PUSH1 0x20 ADD DUP4 ISZERO ISZERO DUP2 MSTORE POP SWAP1 POP SWAP4 SWAP3 POP POP POP JUMP JUMPDEST PUSH2 0xF2E PUSH2 0x19EB JUMP JUMPDEST PUSH1 0x0 PUSH1 0x4 PUSH1 0xFF AND DUP4 PUSH1 0xFF AND GT PUSH2 0xF4E JUMPI PUSH2 0xF47 DUP4 PUSH2 0x12CB JUMP JUMPDEST SWAP1 POP PUSH2 0xF53 JUMP JUMPDEST PUSH1 0x1 SWAP1 POP JUMPDEST PUSH1 0x40 MLOAD DUP1 PUSH1 0xA0 ADD PUSH1 0x40 MSTORE DUP1 DUP6 PUSH4 0xFFFFFFFF AND DUP2 MSTORE PUSH1 0x20 ADD DUP5 PUSH1 0xFF AND DUP2 MSTORE PUSH1 0x20 ADD DUP3 PUSH4 0xFFFFFFFF AND DUP2 MSTORE PUSH1 0x20 ADD DUP6 PUSH4 0xFFFFFFFF AND DUP2 MSTORE PUSH1 0x20 ADD PUSH1 0x0 PUSH4 0xFFFFFFFF AND DUP2 MSTORE POP SWAP2 POP POP SWAP3 SWAP2 POP POP JUMP JUMPDEST PUSH2 0xFA7 PUSH2 0x1A35 JUMP JUMPDEST PUSH1 0x40 MLOAD DUP1 PUSH1 0x20 ADD PUSH1 0x40 MSTORE DUP1 DUP4 DUP2 MSTORE POP SWAP1 POP SWAP2 SWAP1 POP JUMP JUMPDEST PUSH2 0xFC5 PUSH2 0x1A48 JUMP JUMPDEST PUSH1 0x40 MLOAD DUP1 PUSH1 0x40 ADD PUSH1 0x40 MSTORE DUP1 PUSH1 0x0 PUSH4 0xFFFFFFFF AND DUP2 MSTORE PUSH1 0x20 ADD DUP4 PUSH4 0xFFFFFFFF AND DUP2 MSTORE POP SWAP1 POP SWAP2 SWAP1 POP JUMP JUMPDEST PUSH1 0x0 DUP2 PUSH1 0x0 PUSH2 0x1002 DUP3 PUSH4 0xFFFFFFFF AND PUSH2 0x1386 JUMP JUMPDEST SWAP1 POP PUSH1 0xA DUP2 MLOAD GT ISZERO PUSH2 0x1013 JUMPI PUSH1 0x0 DUP1 REVERT JUMPDEST PUSH1 0x0 DUP6 PUSH1 0x0 ADD MLOAD PUSH4 0xFFFFFFFF AND GT PUSH2 0x1060 JUMPI PUSH1 0x40 MLOAD PUSH32 0x8C379A000000000000000000000000000000000000000000000000000000000 DUP2 MSTORE PUSH1 0x4 ADD PUSH2 0x1057 SWAP1 PUSH2 0x24D6 JUMP JUMPDEST PUSH1 0x40 MLOAD DUP1 SWAP2 SUB SWAP1 REVERT JUMPDEST DUP5 PUSH1 0x0 ADD MLOAD PUSH4 0xFFFFFFFF AND DUP5 PUSH4 0xFFFFFFFF AND GT SWAP3 POP POP POP SWAP3 SWAP2 POP POP JUMP JUMPDEST PUSH1 0x0 PUSH2 0x1089 DUP4 DUP4 PUSH2 0x10E4 JUMP JUMPDEST ISZERO PUSH2 0x10D9 JUMPI PUSH1 0x1 DUP4 PUSH1 0x0 ADD PUSH1 0x9 DUP3 DUP3 DUP3 SWAP1 SLOAD SWAP1 PUSH2 0x100 EXP SWAP1 DIV PUSH4 0xFFFFFFFF AND PUSH2 0x10B2 SWAP2 SWAP1 PUSH2 0x2525 JUMP JUMPDEST SWAP3 POP PUSH2 0x100 EXP DUP2 SLOAD DUP2 PUSH4 0xFFFFFFFF MUL NOT AND SWAP1 DUP4 PUSH4 0xFFFFFFFF AND MUL OR SWAP1 SSTORE POP PUSH1 0x1 SWAP1 POP PUSH2 0x10DE JUMP JUMPDEST PUSH1 0x0 SWAP1 POP JUMPDEST SWAP3 SWAP2 POP POP JUMP JUMPDEST PUSH1 0x0 PUSH2 0x1116 DUP4 PUSH1 0x0 ADD PUSH1 0x4 SWAP1 SLOAD SWAP1 PUSH2 0x100 EXP SWAP1 DIV PUSH1 0xFF AND DUP5 PUSH1 0x0 ADD PUSH1 0xD SWAP1 SLOAD SWAP1 PUSH2 0x100 EXP SWAP1 DIV PUSH4 0xFFFFFFFF AND DUP5 PUSH2 0x14E7 JUMP JUMPDEST ISZERO PUSH2 0x1126 JUMPI PUSH2 0x1125 DUP4 DUP4 PUSH2 0x15AD JUMP JUMPDEST JUMPDEST PUSH1 0x0 DUP4 PUSH1 0x0 ADD PUSH1 0x9 SWAP1 SLOAD SWAP1 PUSH2 0x100 EXP SWAP1 DIV PUSH4 0xFFFFFFFF AND PUSH4 0xFFFFFFFF AND GT ISZERO PUSH2 0x1152 JUMPI PUSH1 0x1 SWAP1 POP PUSH2 0x1157 JUMP JUMPDEST PUSH1 0x0 SWAP1 POP JUMPDEST SWAP3 SWAP2 POP POP JUMP JUMPDEST DUP1 PUSH1 0x0 PUSH2 0x116F DUP3 PUSH4 0xFFFFFFFF AND PUSH2 0x1386 JUMP JUMPDEST SWAP1 POP PUSH1 0xA DUP2 MLOAD GT ISZERO PUSH2 0x1180 JUMPI PUSH1 0x0 DUP1 REVERT JUMPDEST DUP4 PUSH1 0x0 ADD PUSH1 0x4 SWAP1 SLOAD SWAP1 PUSH2 0x100 EXP SWAP1 DIV PUSH4 0xFFFFFFFF AND DUP4 PUSH2 0x11A0 SWAP2 SWAP1 PUSH2 0x2559 JUMP JUMPDEST DUP5 PUSH1 0x0 ADD PUSH1 0x0 PUSH2 0x100 EXP DUP2 SLOAD DUP2 PUSH4 0xFFFFFFFF MUL NOT AND SWAP1 DUP4 PUSH4 0xFFFFFFFF AND MUL OR SWAP1 SSTORE POP POP POP POP POP JUMP JUMPDEST PUSH1 0x0 DUP2 PUSH1 0x5 PUSH1 0x0 DUP6 PUSH20 0xFFFFFFFFFFFFFFFFFFFFFFFFFFFFFFFFFFFFFFFF AND PUSH20 0xFFFFFFFFFFFFFFFFFFFFFFFFFFFFFFFFFFFFFFFF AND DUP2 MSTORE PUSH1 0x20 ADD SWAP1 DUP2 MSTORE PUSH1 0x20 ADD PUSH1 0x0 KECCAK256 PUSH1 0x0 DUP3 ADD DUP2 PUSH1 0x0 ADD SWAP1 DUP1 SLOAD PUSH2 0x121E SWAP1 PUSH2 0x2432 JUMP JUMPDEST PUSH2 0x1229 SWAP3 SWAP2 SWAP1 PUSH2 0x1A6E JUMP JUMPDEST POP PUSH1 0x1 DUP3 ADD PUSH1 0x0 SWAP1 SLOAD SWAP1 PUSH2 0x100 EXP SWAP1 DIV PUSH20 0xFFFFFFFFFFFFFFFFFFFFFFFFFFFFFFFFFFFFFFFF AND DUP2 PUSH1 0x1 ADD PUSH1 0x0 PUSH2 0x100 EXP DUP2 SLOAD DUP2 PUSH20 0xFFFFFFFFFFFFFFFFFFFFFFFFFFFFFFFFFFFFFFFF MUL NOT AND SWAP1 DUP4 PUSH20 0xFFFFFFFFFFFFFFFFFFFFFFFFFFFFFFFFFFFFFFFF AND MUL OR SWAP1 SSTORE POP PUSH1 0x1 DUP3 ADD PUSH1 0x14 SWAP1 SLOAD SWAP1 PUSH2 0x100 EXP SWAP1 DIV PUSH1 0xFF AND DUP2 PUSH1 0x1 ADD PUSH1 0x14 PUSH2 0x100 EXP DUP2 SLOAD DUP2 PUSH1 0xFF MUL NOT AND SWAP1 DUP4 ISZERO ISZERO MUL OR SWAP1 SSTORE POP SWAP1 POP POP PUSH1 0x1 SWAP1 POP SWAP3 SWAP2 POP POP JUMP JUMPDEST PUSH1 0x0 PUSH1 0x4 PUSH1 0xFF AND DUP3 PUSH1 0xFF AND GT ISZERO PUSH2 0x1317 JUMPI PUSH1 0x40 MLOAD PUSH32 0x8C379A000000000000000000000000000000000000000000000000000000000 DUP2 MSTORE PUSH1 0x4 ADD PUSH2 0x130E SWAP1 PUSH2 0x2605 JUMP JUMPDEST PUSH1 0x40 MLOAD DUP1 SWAP2 SUB SWAP1 REVERT JUMPDEST PUSH1 0x0 PUSH1 0xFF AND DUP3 PUSH1 0xFF AND EQ ISZERO PUSH2 0x132F JUMPI PUSH1 0x1 SWAP1 POP PUSH2 0x1381 JUMP JUMPDEST PUSH1 0x1 PUSH1 0xFF AND DUP3 PUSH1 0xFF AND EQ ISZERO PUSH2 0x1347 JUMPI PUSH1 0x3C SWAP1 POP PUSH2 0x1381 JUMP JUMPDEST PUSH1 0x2 PUSH1 0xFF AND DUP3 PUSH1 0xFF AND EQ ISZERO PUSH2 0x1360 JUMPI PUSH2 0xE10 SWAP1 POP PUSH2 0x1381 JUMP JUMPDEST PUSH1 0x3 PUSH1 0xFF AND DUP3 PUSH1 0xFF AND EQ ISZERO PUSH2 0x137A JUMPI PUSH3 0x15180 SWAP1 POP PUSH2 0x1381 JUMP JUMPDEST PUSH3 0x93A80 SWAP1 POP JUMPDEST SWAP2 SWAP1 POP JUMP JUMPDEST PUSH1 0x60 PUSH1 0x0 DUP3 EQ ISZERO PUSH2 0x13CE JUMPI PUSH1 0x40 MLOAD DUP1 PUSH1 0x40 ADD PUSH1 0x40 MSTORE DUP1 PUSH1 0x1 DUP2 MSTORE PUSH1 0x20 ADD PUSH32 0x3000000000000000000000000000000000000000000000000000000000000000 DUP2 MSTORE POP SWAP1 POP PUSH2 0x14E2 JUMP JUMPDEST PUSH1 0x0 DUP3 SWAP1 POP PUSH1 0x0 JUMPDEST PUSH1 0x0 DUP3 EQ PUSH2 0x1400 JUMPI DUP1 DUP1 PUSH2 0x13E9 SWAP1 PUSH2 0x262F JUMP JUMPDEST SWAP2 POP POP PUSH1 0xA DUP3 PUSH2 0x13F9 SWAP2 SWAP1 PUSH2 0x26A7 JUMP JUMPDEST SWAP2 POP PUSH2 0x13D6 JUMP JUMPDEST PUSH1 0x0 DUP2 PUSH8 0xFFFFFFFFFFFFFFFF DUP2 GT ISZERO PUSH2 0x141C JUMPI PUSH2 0x141B PUSH2 0x1B7E JUMP JUMPDEST JUMPDEST PUSH1 0x40 MLOAD SWAP1 DUP1 DUP3 MSTORE DUP1 PUSH1 0x1F ADD PUSH1 0x1F NOT AND PUSH1 0x20 ADD DUP3 ADD PUSH1 0x40 MSTORE DUP1 ISZERO PUSH2 0x144E JUMPI DUP2 PUSH1 0x20 ADD PUSH1 0x1 DUP3 MUL DUP1 CALLDATASIZE DUP4 CALLDATACOPY DUP1 DUP3 ADD SWAP2 POP POP SWAP1 POP JUMPDEST POP SWAP1 POP JUMPDEST PUSH1 0x0 DUP6 EQ PUSH2 0x14DB JUMPI PUSH1 0x1 DUP3 PUSH2 0x1467 SWAP2 SWAP1 PUSH2 0x26D8 JUMP JUMPDEST SWAP2 POP PUSH1 0xA DUP6 PUSH2 0x1476 SWAP2 SWAP1 PUSH2 0x270C JUMP JUMPDEST PUSH1 0x30 PUSH2 0x1482 SWAP2 SWAP1 PUSH2 0x273D JUMP JUMPDEST PUSH1 0xF8 SHL DUP2 DUP4 DUP2 MLOAD DUP2 LT PUSH2 0x1498 JUMPI PUSH2 0x1497 PUSH2 0x216C JUMP JUMPDEST JUMPDEST PUSH1 0x20 ADD ADD SWAP1 PUSH31 0xFFFFFFFFFFFFFFFFFFFFFFFFFFFFFFFFFFFFFFFFFFFFFFFFFFFFFFFFFFFFFF NOT AND SWAP1 DUP2 PUSH1 0x0 BYTE SWAP1 MSTORE8 POP PUSH1 0xA DUP6 PUSH2 0x14D4 SWAP2 SWAP1 PUSH2 0x26A7 JUMP JUMPDEST SWAP5 POP PUSH2 0x1452 JUMP JUMPDEST DUP1 SWAP4 POP POP POP POP JUMPDEST SWAP2 SWAP1 POP JUMP JUMPDEST PUSH1 0x0 DUP1 DUP5 SWAP1 POP PUSH1 0x4 PUSH1 0xFF AND DUP2 PUSH1 0xFF AND GT PUSH2 0x1513 JUMPI DUP4 PUSH4 0xFFFFFFFF AND DUP4 PUSH4 0xFFFFFFFF AND LT ISZERO SWAP2 POP POP PUSH2 0x15A6 JUMP JUMPDEST PUSH1 0x5 PUSH1 0xFF AND DUP2 PUSH1 0xFF AND EQ ISZERO PUSH2 0x157C JUMPI PUSH1 0x0 PUSH2 0x1533 DUP5 PUSH4 0xFFFFFFFF AND PUSH2 0x163A JUMP JUMPDEST POP SWAP2 POP POP PUSH1 0xD DUP6 PUSH4 0xFFFFFFFF AND EQ DUP1 ISZERO PUSH2 0x1553 JUMPI POP PUSH1 0x1 DUP2 PUSH4 0xFFFFFFFF AND EQ JUMPDEST ISZERO PUSH2 0x1563 JUMPI PUSH1 0x1 SWAP3 POP POP POP PUSH2 0x15A6 JUMP JUMPDEST DUP5 PUSH4 0xFFFFFFFF AND DUP2 PUSH4 0xFFFFFFFF AND LT ISZERO SWAP3 POP POP POP PUSH2 0x15A6 JUMP JUMPDEST PUSH1 0x0 PUSH2 0x158D DUP5 PUSH4 0xFFFFFFFF AND PUSH2 0x163A JUMP JUMPDEST POP POP SWAP1 POP DUP5 PUSH4 0xFFFFFFFF AND DUP2 PUSH4 0xFFFFFFFF AND LT ISZERO SWAP3 POP POP POP JUMPDEST SWAP4 SWAP3 POP POP POP JUMP JUMPDEST DUP2 PUSH1 0x0 ADD PUSH1 0x0 SWAP1 SLOAD SWAP1 PUSH2 0x100 EXP SWAP1 DIV PUSH4 0xFFFFFFFF AND DUP3 PUSH1 0x0 ADD PUSH1 0x9 PUSH2 0x100 EXP DUP2 SLOAD DUP2 PUSH4 0xFFFFFFFF MUL NOT AND SWAP1 DUP4 PUSH4 0xFFFFFFFF AND MUL OR SWAP1 SSTORE POP PUSH2 0x1614 DUP3 PUSH1 0x0 ADD PUSH1 0x5 SWAP1 SLOAD SWAP1 PUSH2 0x100 EXP SWAP1 DIV PUSH4 0xFFFFFFFF AND DUP4 PUSH1 0x0 ADD PUSH1 0x4 SWAP1 SLOAD SWAP1 PUSH2 0x100 EXP SWAP1 DIV PUSH1 0xFF AND DUP4 PUSH2 0x17ED JUMP JUMPDEST DUP3 PUSH1 0x0 ADD PUSH1 0xD PUSH2 0x100 EXP DUP2 SLOAD DUP2 PUSH4 0xFFFFFFFF MUL NOT AND SWAP1 DUP4 PUSH4 0xFFFFFFFF AND MUL OR SWAP1 SSTORE POP POP POP JUMP JUMPDEST PUSH1 0x0 DUP1 PUSH1 0x0 DUP1 PUSH3 0x15180 PUSH4 0xFFFFFFFF AND DUP6 PUSH2 0x1655 SWAP2 SWAP1 PUSH2 0x26A7 JUMP JUMPDEST SWAP1 POP PUSH1 0x0 PUSH3 0x253D8C PUSH3 0x10BD9 DUP4 PUSH2 0x166C SWAP2 SWAP1 PUSH2 0x2559 JUMP JUMPDEST PUSH2 0x1676 SWAP2 SWAP1 PUSH2 0x2559 JUMP JUMPDEST SWAP1 POP PUSH1 0x0 PUSH3 0x23AB1 DUP3 PUSH1 0x4 PUSH2 0x168B SWAP2 SWAP1 PUSH2 0x2793 JUMP JUMPDEST PUSH2 0x1695 SWAP2 SWAP1 PUSH2 0x27D1 JUMP JUMPDEST SWAP1 POP PUSH1 0x4 PUSH1 0x3 DUP3 PUSH3 0x23AB1 PUSH2 0x16AA SWAP2 SWAP1 PUSH2 0x2793 JUMP JUMPDEST PUSH2 0x16B4 SWAP2 SWAP1 PUSH2 0x2559 JUMP JUMPDEST PUSH2 0x16BE SWAP2 SWAP1 PUSH2 0x27D1 JUMP JUMPDEST DUP3 PUSH2 0x16C9 SWAP2 SWAP1 PUSH2 0x2525 JUMP JUMPDEST SWAP2 POP PUSH1 0x0 PUSH3 0x164B09 PUSH1 0x1 DUP5 PUSH2 0x16DE SWAP2 SWAP1 PUSH2 0x2559 JUMP JUMPDEST PUSH2 0xFA0 PUSH2 0x16EB SWAP2 SWAP1 PUSH2 0x2793 JUMP JUMPDEST PUSH2 0x16F5 SWAP2 SWAP1 PUSH2 0x27D1 JUMP JUMPDEST SWAP1 POP PUSH1 0x1F PUSH1 0x4 DUP3 PUSH2 0x5B5 PUSH2 0x1709 SWAP2 SWAP1 PUSH2 0x2793 JUMP JUMPDEST PUSH2 0x1713 SWAP2 SWAP1 PUSH2 0x27D1 JUMP JUMPDEST DUP5 PUSH2 0x171E SWAP2 SWAP1 PUSH2 0x2525 JUMP JUMPDEST PUSH2 0x1728 SWAP2 SWAP1 PUSH2 0x2559 JUMP JUMPDEST SWAP3 POP PUSH1 0x0 PUSH2 0x98F DUP5 PUSH1 0x50 PUSH2 0x173C SWAP2 SWAP1 PUSH2 0x2793 JUMP JUMPDEST PUSH2 0x1746 SWAP2 SWAP1 PUSH2 0x27D1 JUMP JUMPDEST SWAP1 POP PUSH1 0x0 PUSH1 0x50 DUP3 PUSH2 0x98F PUSH2 0x175A SWAP2 SWAP1 PUSH2 0x2793 JUMP JUMPDEST PUSH2 0x1764 SWAP2 SWAP1 PUSH2 0x27D1 JUMP JUMPDEST DUP6 PUSH2 0x176F SWAP2 SWAP1 PUSH2 0x2525 JUMP JUMPDEST SWAP1 POP PUSH1 0xB DUP3 PUSH2 0x177E SWAP2 SWAP1 PUSH2 0x27D1 JUMP JUMPDEST SWAP5 POP DUP5 PUSH1 0xC PUSH2 0x178D SWAP2 SWAP1 PUSH2 0x2793 JUMP JUMPDEST PUSH1 0x2 DUP4 PUSH2 0x179A SWAP2 SWAP1 PUSH2 0x2559 JUMP JUMPDEST PUSH2 0x17A4 SWAP2 SWAP1 PUSH2 0x2525 JUMP JUMPDEST SWAP2 POP DUP5 DUP4 PUSH1 0x31 DUP7 PUSH2 0x17B5 SWAP2 SWAP1 PUSH2 0x2525 JUMP JUMPDEST PUSH1 0x64 PUSH2 0x17C1 SWAP2 SWAP1 PUSH2 0x2793 JUMP JUMPDEST PUSH2 0x17CB SWAP2 SWAP1 PUSH2 0x2559 JUMP JUMPDEST PUSH2 0x17D5 SWAP2 SWAP1 PUSH2 0x2559 JUMP JUMPDEST SWAP3 POP DUP3 SWAP9 POP DUP2 SWAP8 POP DUP1 SWAP7 POP POP POP POP POP POP POP SWAP2 SWAP4 SWAP1 SWAP3 POP JUMP JUMPDEST PUSH1 0x0 PUSH1 0x4 PUSH1 0xFF AND DUP4 PUSH1 0xFF AND GT PUSH2 0x180F JUMPI PUSH2 0x1808 DUP4 DUP4 DUP7 PUSH2 0x1881 JUMP JUMPDEST SWAP1 POP PUSH2 0x187A JUMP JUMPDEST PUSH1 0x5 PUSH1 0xFF AND DUP4 PUSH1 0xFF AND EQ ISZERO PUSH2 0x184E JUMPI PUSH1 0x0 PUSH2 0x182F DUP4 PUSH4 0xFFFFFFFF AND PUSH2 0x163A JUMP JUMPDEST POP PUSH4 0xFFFFFFFF AND SWAP2 POP POP PUSH1 0x1 DUP2 PUSH2 0x1846 SWAP2 SWAP1 PUSH2 0x273D JUMP JUMPDEST SWAP2 POP POP PUSH2 0x187A JUMP JUMPDEST PUSH1 0x0 PUSH2 0x185F DUP4 PUSH4 0xFFFFFFFF AND PUSH2 0x163A JUMP JUMPDEST POP POP PUSH4 0xFFFFFFFF AND SWAP1 POP PUSH1 0x1 DUP2 PUSH2 0x1876 SWAP2 SWAP1 PUSH2 0x273D JUMP JUMPDEST SWAP2 POP POP JUMPDEST SWAP4 SWAP3 POP POP POP JUMP JUMPDEST PUSH1 0x0 DUP1 DUP3 DUP5 PUSH2 0x1890 SWAP2 SWAP1 PUSH2 0x2802 JUMP JUMPDEST SWAP1 POP PUSH1 0x0 DUP2 DUP5 PUSH2 0x18A0 SWAP2 SWAP1 PUSH2 0x2525 JUMP JUMPDEST SWAP1 POP PUSH1 0x4 PUSH1 0xFF AND DUP7 PUSH1 0xFF AND EQ ISZERO PUSH2 0x18D4 JUMPI PUSH3 0x3F480 DUP2 DUP7 PUSH2 0x18C1 SWAP2 SWAP1 PUSH2 0x2559 JUMP JUMPDEST PUSH2 0x18CB SWAP2 SWAP1 PUSH2 0x2559 JUMP JUMPDEST SWAP3 POP POP POP PUSH2 0x18E5 JUMP JUMPDEST DUP1 DUP6 PUSH2 0x18E0 SWAP2 SWAP1 PUSH2 0x2559 JUMP JUMPDEST SWAP3 POP POP POP JUMPDEST SWAP4 SWAP3 POP POP POP JUMP JUMPDEST POP DUP1 SLOAD PUSH2 0x18F8 SWAP1 PUSH2 0x2432 JUMP JUMPDEST PUSH1 0x0 DUP3 SSTORE DUP1 PUSH1 0x1F LT PUSH2 0x190A JUMPI POP PUSH2 0x1929 JUMP JUMPDEST PUSH1 0x1F ADD PUSH1 0x20 SWAP1 DIV SWAP1 PUSH1 0x0 MSTORE PUSH1 0x20 PUSH1 0x0 KECCAK256 SWAP1 DUP2 ADD SWAP1 PUSH2 0x1928 SWAP2 SWAP1 PUSH2 0x1AFB JUMP JUMPDEST JUMPDEST POP JUMP JUMPDEST DUP3 DUP1 SLOAD PUSH2 0x1938 SWAP1 PUSH2 0x2432 JUMP JUMPDEST SWAP1 PUSH1 0x0 MSTORE PUSH1 0x20 PUSH1 0x0 KECCAK256 SWAP1 PUSH1 0x1F ADD PUSH1 0x20 SWAP1 DIV DUP2 ADD SWAP3 DUP3 PUSH2 0x195A JUMPI PUSH1 0x0 DUP6 SSTORE PUSH2 0x19A1 JUMP JUMPDEST DUP3 PUSH1 0x1F LT PUSH2 0x1973 JUMPI DUP1 MLOAD PUSH1 0xFF NOT AND DUP4 DUP1 ADD OR DUP6 SSTORE PUSH2 0x19A1 JUMP JUMPDEST DUP3 DUP1 ADD PUSH1 0x1 ADD DUP6 SSTORE DUP3 ISZERO PUSH2 0x19A1 JUMPI SWAP2 DUP3 ADD JUMPDEST DUP3 DUP2 GT ISZERO PUSH2 0x19A0 JUMPI DUP3 MLOAD DUP3 SSTORE SWAP2 PUSH1 0x20 ADD SWAP2 SWAP1 PUSH1 0x1 ADD SWAP1 PUSH2 0x1985 JUMP JUMPDEST JUMPDEST POP SWAP1 POP PUSH2 0x19AE SWAP2 SWAP1 PUSH2 0x1AFB JUMP JUMPDEST POP SWAP1 JUMP JUMPDEST PUSH1 0x40 MLOAD DUP1 PUSH1 0x60 ADD PUSH1 0x40 MSTORE DUP1 PUSH1 0x60 DUP2 MSTORE PUSH1 0x20 ADD PUSH1 0x0 PUSH20 0xFFFFFFFFFFFFFFFFFFFFFFFFFFFFFFFFFFFFFFFF AND DUP2 MSTORE PUSH1 0x20 ADD PUSH1 0x0 ISZERO ISZERO DUP2 MSTORE POP SWAP1 JUMP JUMPDEST PUSH1 0x40 MLOAD DUP1 PUSH1 0xA0 ADD PUSH1 0x40 MSTORE DUP1 PUSH1 0x0 PUSH4 0xFFFFFFFF AND DUP2 MSTORE PUSH1 0x20 ADD PUSH1 0x0 PUSH1 0xFF AND DUP2 MSTORE PUSH1 0x20 ADD PUSH1 0x0 PUSH4 0xFFFFFFFF AND DUP2 MSTORE PUSH1 0x20 ADD PUSH1 0x0 PUSH4 0xFFFFFFFF AND DUP2 MSTORE PUSH1 0x20 ADD PUSH1 0x0 PUSH4 0xFFFFFFFF AND DUP2 MSTORE POP SWAP1 JUMP JUMPDEST PUSH1 0x40 MLOAD DUP1 PUSH1 0x20 ADD PUSH1 0x40 MSTORE DUP1 PUSH1 0x60 DUP2 MSTORE POP SWAP1 JUMP JUMPDEST PUSH1 0x40 MLOAD DUP1 PUSH1 0x40 ADD PUSH1 0x40 MSTORE DUP1 PUSH1 0x0 PUSH4 0xFFFFFFFF AND DUP2 MSTORE PUSH1 0x20 ADD PUSH1 0x0 PUSH4 0xFFFFFFFF AND DUP2 MSTORE POP SWAP1 JUMP JUMPDEST DUP3 DUP1 SLOAD PUSH2 0x1A7A SWAP1 PUSH2 0x2432 JUMP JUMPDEST SWAP1 PUSH1 0x0 MSTORE PUSH1 0x20 PUSH1 0x0 KECCAK256 SWAP1 PUSH1 0x1F ADD PUSH1 0x20 SWAP1 DIV DUP2 ADD SWAP3 DUP3 PUSH2 0x1A9C JUMPI PUSH1 0x0 DUP6 SSTORE PUSH2 0x1AEA JUMP JUMPDEST DUP3 PUSH1 0x1F LT PUSH2 0x1AAD JUMPI DUP1 SLOAD DUP6 SSTORE PUSH2 0x1AEA JUMP JUMPDEST DUP3 DUP1 ADD PUSH1 0x1 ADD DUP6 SSTORE DUP3 ISZERO PUSH2 0x1AEA JUMPI PUSH1 0x0 MSTORE PUSH1 0x20 PUSH1 0x0 KECCAK256 SWAP2 PUSH1 0x1F ADD PUSH1 0x20 SWAP1 DIV DUP3 ADD JUMPDEST DUP3 DUP2 GT ISZERO PUSH2 0x1AE9 JUMPI DUP3 SLOAD DUP3 SSTORE SWAP2 PUSH1 0x1 ADD SWAP2 SWAP1 PUSH1 0x1 ADD SWAP1 PUSH2 0x1ACE JUMP JUMPDEST JUMPDEST POP SWAP1 POP PUSH2 0x1AF7 SWAP2 SWAP1 PUSH2 0x1AFB JUMP JUMPDEST POP SWAP1 JUMP JUMPDEST JUMPDEST DUP1 DUP3 GT ISZERO PUSH2 0x1B14 JUMPI PUSH1 0x0 DUP2 PUSH1 0x0 SWAP1 SSTORE POP PUSH1 0x1 ADD PUSH2 0x1AFC JUMP JUMPDEST POP SWAP1 JUMP JUMPDEST PUSH1 0x0 PUSH1 0x40 MLOAD SWAP1 POP SWAP1 JUMP JUMPDEST PUSH1 0x0 DUP1 REVERT JUMPDEST PUSH1 0x0 DUP1 REVERT JUMPDEST PUSH1 0x0 PUSH4 0xFFFFFFFF DUP3 AND SWAP1 POP SWAP2 SWAP1 POP JUMP JUMPDEST PUSH2 0x1B45 DUP2 PUSH2 0x1B2C JUMP JUMPDEST DUP2 EQ PUSH2 0x1B50 JUMPI PUSH1 0x0 DUP1 REVERT JUMPDEST POP JUMP JUMPDEST PUSH1 0x0 DUP2 CALLDATALOAD SWAP1 POP PUSH2 0x1B62 DUP2 PUSH2 0x1B3C JUMP JUMPDEST SWAP3 SWAP2 POP POP JUMP JUMPDEST PUSH1 0x0 DUP1 REVERT JUMPDEST PUSH1 0x0 PUSH1 0x1F NOT PUSH1 0x1F DUP4 ADD AND SWAP1 POP SWAP2 SWAP1 POP JUMP JUMPDEST PUSH32 0x4E487B7100000000000000000000000000000000000000000000000000000000 PUSH1 0x0 MSTORE PUSH1 0x41 PUSH1 0x4 MSTORE PUSH1 0x24 PUSH1 0x0 REVERT JUMPDEST PUSH2 0x1BB6 DUP3 PUSH2 0x1B6D JUMP JUMPDEST DUP2 ADD DUP2 DUP2 LT PUSH8 0xFFFFFFFFFFFFFFFF DUP3 GT OR ISZERO PUSH2 0x1BD5 JUMPI PUSH2 0x1BD4 PUSH2 0x1B7E JUMP JUMPDEST JUMPDEST DUP1 PUSH1 0x40 MSTORE POP POP POP JUMP JUMPDEST PUSH1 0x0 PUSH2 0x1BE8 PUSH2 0x1B18 JUMP JUMPDEST SWAP1 POP PUSH2 0x1BF4 DUP3 DUP3 PUSH2 0x1BAD JUMP JUMPDEST SWAP2 SWAP1 POP JUMP JUMPDEST PUSH1 0x0 PUSH8 0xFFFFFFFFFFFFFFFF DUP3 GT ISZERO PUSH2 0x1C14 JUMPI PUSH2 0x1C13 PUSH2 0x1B7E JUMP JUMPDEST JUMPDEST PUSH1 0x20 DUP3 MUL SWAP1 POP PUSH1 0x20 DUP2 ADD SWAP1 POP SWAP2 SWAP1 POP JUMP JUMPDEST PUSH1 0x0 DUP1 REVERT JUMPDEST PUSH1 0x0 DUP2 ISZERO ISZERO SWAP1 POP SWAP2 SWAP1 POP JUMP JUMPDEST PUSH2 0x1C3F DUP2 PUSH2 0x1C2A JUMP JUMPDEST DUP2 EQ PUSH2 0x1C4A JUMPI PUSH1 0x0 DUP1 REVERT JUMPDEST POP JUMP JUMPDEST PUSH1 0x0 DUP2 CALLDATALOAD SWAP1 POP PUSH2 0x1C5C DUP2 PUSH2 0x1C36 JUMP JUMPDEST SWAP3 SWAP2 POP POP JUMP JUMPDEST PUSH1 0x0 PUSH2 0x1C75 PUSH2 0x1C70 DUP5 PUSH2 0x1BF9 JUMP JUMPDEST PUSH2 0x1BDE JUMP JUMPDEST SWAP1 POP DUP1 DUP4 DUP3 MSTORE PUSH1 0x20 DUP3 ADD SWAP1 POP PUSH1 0x20 DUP5 MUL DUP4 ADD DUP6 DUP2 GT ISZERO PUSH2 0x1C98 JUMPI PUSH2 0x1C97 PUSH2 0x1C25 JUMP JUMPDEST JUMPDEST DUP4 JUMPDEST DUP2 DUP2 LT ISZERO PUSH2 0x1CC1 JUMPI DUP1 PUSH2 0x1CAD DUP9 DUP3 PUSH2 0x1C4D JUMP JUMPDEST DUP5 MSTORE PUSH1 0x20 DUP5 ADD SWAP4 POP POP PUSH1 0x20 DUP2 ADD SWAP1 POP PUSH2 0x1C9A JUMP JUMPDEST POP POP POP SWAP4 SWAP3 POP POP POP JUMP JUMPDEST PUSH1 0x0 DUP3 PUSH1 0x1F DUP4 ADD SLT PUSH2 0x1CE0 JUMPI PUSH2 0x1CDF PUSH2 0x1B68 JUMP JUMPDEST JUMPDEST DUP2 CALLDATALOAD PUSH2 0x1CF0 DUP5 DUP3 PUSH1 0x20 DUP7 ADD PUSH2 0x1C62 JUMP JUMPDEST SWAP2 POP POP SWAP3 SWAP2 POP POP JUMP JUMPDEST PUSH1 0x0 DUP1 PUSH1 0x40 DUP4 DUP6 SUB SLT ISZERO PUSH2 0x1D10 JUMPI PUSH2 0x1D0F PUSH2 0x1B22 JUMP JUMPDEST JUMPDEST PUSH1 0x0 PUSH2 0x1D1E DUP6 DUP3 DUP7 ADD PUSH2 0x1B53 JUMP JUMPDEST SWAP3 POP POP PUSH1 0x20 DUP4 ADD CALLDATALOAD PUSH8 0xFFFFFFFFFFFFFFFF DUP2 GT ISZERO PUSH2 0x1D3F JUMPI PUSH2 0x1D3E PUSH2 0x1B27 JUMP JUMPDEST JUMPDEST PUSH2 0x1D4B DUP6 DUP3 DUP7 ADD PUSH2 0x1CCB JUMP JUMPDEST SWAP2 POP POP SWAP3 POP SWAP3 SWAP1 POP JUMP JUMPDEST PUSH2 0x1D5E DUP2 PUSH2 0x1C2A JUMP JUMPDEST DUP3 MSTORE POP POP JUMP JUMPDEST PUSH1 0x0 PUSH1 0x20 DUP3 ADD SWAP1 POP PUSH2 0x1D79 PUSH1 0x0 DUP4 ADD DUP5 PUSH2 0x1D55 JUMP JUMPDEST SWAP3 SWAP2 POP POP JUMP JUMPDEST PUSH1 0x0 DUP1 REVERT JUMPDEST PUSH1 0x0 PUSH8 0xFFFFFFFFFFFFFFFF DUP3 GT ISZERO PUSH2 0x1D9F JUMPI PUSH2 0x1D9E PUSH2 0x1B7E JUMP JUMPDEST JUMPDEST PUSH2 0x1DA8 DUP3 PUSH2 0x1B6D JUMP JUMPDEST SWAP1 POP PUSH1 0x20 DUP2 ADD SWAP1 POP SWAP2 SWAP1 POP JUMP JUMPDEST DUP3 DUP2 DUP4 CALLDATACOPY PUSH1 0x0 DUP4 DUP4 ADD MSTORE POP POP POP JUMP JUMPDEST PUSH1 0x0 PUSH2 0x1DD7 PUSH2 0x1DD2 DUP5 PUSH2 0x1D84 JUMP JUMPDEST PUSH2 0x1BDE JUMP JUMPDEST SWAP1 POP DUP3 DUP2 MSTORE PUSH1 0x20 DUP2 ADD DUP5 DUP5 DUP5 ADD GT ISZERO PUSH2 0x1DF3 JUMPI PUSH2 0x1DF2 PUSH2 0x1D7F JUMP JUMPDEST JUMPDEST PUSH2 0x1DFE DUP5 DUP3 DUP6 PUSH2 0x1DB5 JUMP JUMPDEST POP SWAP4 SWAP3 POP POP POP JUMP JUMPDEST PUSH1 0x0 DUP3 PUSH1 0x1F DUP4 ADD SLT PUSH2 0x1E1B JUMPI PUSH2 0x1E1A PUSH2 0x1B68 JUMP JUMPDEST JUMPDEST DUP2 CALLDATALOAD PUSH2 0x1E2B DUP5 DUP3 PUSH1 0x20 DUP7 ADD PUSH2 0x1DC4 JUMP JUMPDEST SWAP2 POP POP SWAP3 SWAP2 POP POP JUMP JUMPDEST PUSH1 0x0 PUSH20 0xFFFFFFFFFFFFFFFFFFFFFFFFFFFFFFFFFFFFFFFF DUP3 AND SWAP1 POP SWAP2 SWAP1 POP JUMP JUMPDEST PUSH1 0x0 PUSH2 0x1E5F DUP3 PUSH2 0x1E34 JUMP JUMPDEST SWAP1 POP SWAP2 SWAP1 POP JUMP JUMPDEST PUSH2 0x1E6F DUP2 PUSH2 0x1E54 JUMP JUMPDEST DUP2 EQ PUSH2 0x1E7A JUMPI PUSH1 0x0 DUP1 REVERT JUMPDEST POP JUMP JUMPDEST PUSH1 0x0 DUP2 CALLDATALOAD SWAP1 POP PUSH2 0x1E8C DUP2 PUSH2 0x1E66 JUMP JUMPDEST SWAP3 SWAP2 POP POP JUMP JUMPDEST PUSH1 0x0 DUP1 PUSH1 0x40 DUP4 DUP6 SUB SLT ISZERO PUSH2 0x1EA9 JUMPI PUSH2 0x1EA8 PUSH2 0x1B22 JUMP JUMPDEST JUMPDEST PUSH1 0x0 DUP4 ADD CALLDATALOAD PUSH8 0xFFFFFFFFFFFFFFFF DUP2 GT ISZERO PUSH2 0x1EC7 JUMPI PUSH2 0x1EC6 PUSH2 0x1B27 JUMP JUMPDEST JUMPDEST PUSH2 0x1ED3 DUP6 DUP3 DUP7 ADD PUSH2 0x1E06 JUMP JUMPDEST SWAP3 POP POP PUSH1 0x20 PUSH2 0x1EE4 DUP6 DUP3 DUP7 ADD PUSH2 0x1E7D JUMP JUMPDEST SWAP2 POP POP SWAP3 POP SWAP3 SWAP1 POP JUMP JUMPDEST PUSH2 0x1EF7 DUP2 PUSH2 0x1E54 JUMP JUMPDEST DUP3 MSTORE POP POP JUMP JUMPDEST PUSH1 0x0 PUSH1 0x20 DUP3 ADD SWAP1 POP PUSH2 0x1F12 PUSH1 0x0 DUP4 ADD DUP5 PUSH2 0x1EEE JUMP JUMPDEST SWAP3 SWAP2 POP POP JUMP JUMPDEST PUSH1 0x0 PUSH1 0x20 DUP3 DUP5 SUB SLT ISZERO PUSH2 0x1F2E JUMPI PUSH2 0x1F2D PUSH2 0x1B22 JUMP JUMPDEST JUMPDEST PUSH1 0x0 PUSH2 0x1F3C DUP5 DUP3 DUP6 ADD PUSH2 0x1E7D JUMP JUMPDEST SWAP2 POP POP SWAP3 SWAP2 POP POP JUMP JUMPDEST PUSH1 0x0 DUP2 MLOAD SWAP1 POP SWAP2 SWAP1 POP JUMP JUMPDEST PUSH1 0x0 DUP3 DUP3 MSTORE PUSH1 0x20 DUP3 ADD SWAP1 POP SWAP3 SWAP2 POP POP JUMP JUMPDEST PUSH1 0x0 JUMPDEST DUP4 DUP2 LT ISZERO PUSH2 0x1F7F JUMPI DUP1 DUP3 ADD MLOAD DUP2 DUP5 ADD MSTORE PUSH1 0x20 DUP2 ADD SWAP1 POP PUSH2 0x1F64 JUMP JUMPDEST DUP4 DUP2 GT ISZERO PUSH2 0x1F8E JUMPI PUSH1 0x0 DUP5 DUP5 ADD MSTORE JUMPDEST POP POP POP POP JUMP JUMPDEST PUSH1 0x0 PUSH2 0x1F9F DUP3 PUSH2 0x1F45 JUMP JUMPDEST PUSH2 0x1FA9 DUP2 DUP6 PUSH2 0x1F50 JUMP JUMPDEST SWAP4 POP PUSH2 0x1FB9 DUP2 DUP6 PUSH1 0x20 DUP7 ADD PUSH2 0x1F61 JUMP JUMPDEST PUSH2 0x1FC2 DUP2 PUSH2 0x1B6D JUMP JUMPDEST DUP5 ADD SWAP2 POP POP SWAP3 SWAP2 POP POP JUMP JUMPDEST PUSH2 0x1FD6 DUP2 PUSH2 0x1E54 JUMP JUMPDEST DUP3 MSTORE POP POP JUMP JUMPDEST PUSH2 0x1FE5 DUP2 PUSH2 0x1C2A JUMP JUMPDEST DUP3 MSTORE POP POP JUMP JUMPDEST PUSH1 0x0 PUSH1 0x60 DUP4 ADD PUSH1 0x0 DUP4 ADD MLOAD DUP5 DUP3 SUB PUSH1 0x0 DUP7 ADD MSTORE PUSH2 0x2008 DUP3 DUP3 PUSH2 0x1F94 JUMP JUMPDEST SWAP2 POP POP PUSH1 0x20 DUP4 ADD MLOAD PUSH2 0x201D PUSH1 0x20 DUP7 ADD DUP3 PUSH2 0x1FCD JUMP JUMPDEST POP PUSH1 0x40 DUP4 ADD MLOAD PUSH2 0x2030 PUSH1 0x40 DUP7 ADD DUP3 PUSH2 0x1FDC JUMP JUMPDEST POP DUP1 SWAP2 POP POP SWAP3 SWAP2 POP POP JUMP JUMPDEST PUSH1 0x0 PUSH1 0x20 DUP3 ADD SWAP1 POP DUP2 DUP2 SUB PUSH1 0x0 DUP4 ADD MSTORE PUSH2 0x2055 DUP2 DUP5 PUSH2 0x1FEB JUMP JUMPDEST SWAP1 POP SWAP3 SWAP2 POP POP JUMP JUMPDEST PUSH1 0x0 DUP3 DUP3 MSTORE PUSH1 0x20 DUP3 ADD SWAP1 POP SWAP3 SWAP2 POP POP JUMP JUMPDEST PUSH32 0x5468697320636F6E747261637420697320646561637469766174656400000000 PUSH1 0x0 DUP3 ADD MSTORE POP JUMP JUMPDEST PUSH1 0x0 PUSH2 0x20A4 PUSH1 0x1C DUP4 PUSH2 0x205D JUMP JUMPDEST SWAP2 POP PUSH2 0x20AF DUP3 PUSH2 0x206E JUMP JUMPDEST PUSH1 0x20 DUP3 ADD SWAP1 POP SWAP2 SWAP1 POP JUMP JUMPDEST PUSH1 0x0 PUSH1 0x20 DUP3 ADD SWAP1 POP DUP2 DUP2 SUB PUSH1 0x0 DUP4 ADD MSTORE PUSH2 0x20D3 DUP2 PUSH2 0x2097 JUMP JUMPDEST SWAP1 POP SWAP2 SWAP1 POP JUMP JUMPDEST PUSH32 0x4F6E6C7920746865206170706C69636174696F6E2063616E2065786563757465 PUSH1 0x0 DUP3 ADD MSTORE PUSH32 0x2074686973206F7065726174696F6E0000000000000000000000000000000000 PUSH1 0x20 DUP3 ADD MSTORE POP JUMP JUMPDEST PUSH1 0x0 PUSH2 0x2136 PUSH1 0x2F DUP4 PUSH2 0x205D JUMP JUMPDEST SWAP2 POP PUSH2 0x2141 DUP3 PUSH2 0x20DA JUMP JUMPDEST PUSH1 0x40 DUP3 ADD SWAP1 POP SWAP2 SWAP1 POP JUMP JUMPDEST PUSH1 0x0 PUSH1 0x20 DUP3 ADD SWAP1 POP DUP2 DUP2 SUB PUSH1 0x0 DUP4 ADD MSTORE PUSH2 0x2165 DUP2 PUSH2 0x2129 JUMP JUMPDEST SWAP1 POP SWAP2 SWAP1 POP JUMP JUMPDEST PUSH32 0x4E487B7100000000000000000000000000000000000000000000000000000000 PUSH1 0x0 MSTORE PUSH1 0x32 PUSH1 0x4 MSTORE PUSH1 0x24 PUSH1 0x0 REVERT JUMPDEST PUSH32 0x5375636365737366756C20657865637574696F6E210000000000000000000000 PUSH1 0x0 DUP3 ADD MSTORE POP JUMP JUMPDEST PUSH1 0x0 PUSH2 0x21D1 PUSH1 0x15 DUP4 PUSH2 0x205D JUMP JUMPDEST SWAP2 POP PUSH2 0x21DC DUP3 PUSH2 0x219B JUMP JUMPDEST PUSH1 0x20 DUP3 ADD SWAP1 POP SWAP2 SWAP1 POP JUMP JUMPDEST PUSH1 0x0 PUSH1 0x20 DUP3 ADD SWAP1 POP DUP2 DUP2 SUB PUSH1 0x0 DUP4 ADD MSTORE PUSH2 0x2200 DUP2 PUSH2 0x21C4 JUMP JUMPDEST SWAP1 POP SWAP2 SWAP1 POP JUMP JUMPDEST PUSH32 0x436F6E646974696F6E7320646F206E6F74206D65657400000000000000000000 PUSH1 0x0 DUP3 ADD MSTORE POP JUMP JUMPDEST PUSH1 0x0 PUSH2 0x223D PUSH1 0x16 DUP4 PUSH2 0x205D JUMP JUMPDEST SWAP2 POP PUSH2 0x2248 DUP3 PUSH2 0x2207 JUMP JUMPDEST PUSH1 0x20 DUP3 ADD SWAP1 POP SWAP2 SWAP1 POP JUMP JUMPDEST PUSH1 0x0 PUSH1 0x20 DUP3 ADD SWAP1 POP DUP2 DUP2 SUB PUSH1 0x0 DUP4 ADD MSTORE PUSH2 0x226C DUP2 PUSH2 0x2230 JUMP JUMPDEST SWAP1 POP SWAP2 SWAP1 POP JUMP JUMPDEST PUSH32 0x4F6E6C79207468652070726F636573732063616E206578656375746520746869 PUSH1 0x0 DUP3 ADD MSTORE PUSH32 0x73206F7065726174696F6E000000000000000000000000000000000000000000 PUSH1 0x20 DUP3 ADD MSTORE POP JUMP JUMPDEST PUSH1 0x0 PUSH2 0x22CF PUSH1 0x2B DUP4 PUSH2 0x205D JUMP JUMPDEST SWAP2 POP PUSH2 0x22DA DUP3 PUSH2 0x2273 JUMP JUMPDEST PUSH1 0x40 DUP3 ADD SWAP1 POP SWAP2 SWAP1 POP JUMP JUMPDEST PUSH1 0x0 PUSH1 0x20 DUP3 ADD SWAP1 POP DUP2 DUP2 SUB PUSH1 0x0 DUP4 ADD MSTORE PUSH2 0x22FE DUP2 PUSH2 0x22C2 JUMP JUMPDEST SWAP1 POP SWAP2 SWAP1 POP JUMP JUMPDEST PUSH32 0x4F6E6C79207468652070726F63657373206F7220746865206170706C69636174 PUSH1 0x0 DUP3 ADD MSTORE PUSH32 0x696F6E2063616E20657865637574652074686973206F7065726174696F6E0000 PUSH1 0x20 DUP3 ADD MSTORE POP JUMP JUMPDEST PUSH1 0x0 PUSH2 0x2361 PUSH1 0x3E DUP4 PUSH2 0x205D JUMP JUMPDEST SWAP2 POP PUSH2 0x236C DUP3 PUSH2 0x2305 JUMP JUMPDEST PUSH1 0x40 DUP3 ADD SWAP1 POP SWAP2 SWAP1 POP JUMP JUMPDEST PUSH1 0x0 PUSH1 0x20 DUP3 ADD SWAP1 POP DUP2 DUP2 SUB PUSH1 0x0 DUP4 ADD MSTORE PUSH2 0x2390 DUP2 PUSH2 0x2354 JUMP JUMPDEST SWAP1 POP SWAP2 SWAP1 POP JUMP JUMPDEST PUSH32 0x54686520636F6E747261637420697320616C7265616479207369676E65640000 PUSH1 0x0 DUP3 ADD MSTORE POP JUMP JUMPDEST PUSH1 0x0 PUSH2 0x23CD PUSH1 0x1E DUP4 PUSH2 0x205D JUMP JUMPDEST SWAP2 POP PUSH2 0x23D8 DUP3 PUSH2 0x2397 JUMP JUMPDEST PUSH1 0x20 DUP3 ADD SWAP1 POP SWAP2 SWAP1 POP JUMP JUMPDEST PUSH1 0x0 PUSH1 0x20 DUP3 ADD SWAP1 POP DUP2 DUP2 SUB PUSH1 0x0 DUP4 ADD MSTORE PUSH2 0x23FC DUP2 PUSH2 0x23C0 JUMP JUMPDEST SWAP1 POP SWAP2 SWAP1 POP JUMP JUMPDEST PUSH32 0x4E487B7100000000000000000000000000000000000000000000000000000000 PUSH1 0x0 MSTORE PUSH1 0x22 PUSH1 0x4 MSTORE PUSH1 0x24 PUSH1 0x0 REVERT JUMPDEST PUSH1 0x0 PUSH1 0x2 DUP3 DIV SWAP1 POP PUSH1 0x1 DUP3 AND DUP1 PUSH2 0x244A JUMPI PUSH1 0x7F DUP3 AND SWAP2 POP JUMPDEST PUSH1 0x20 DUP3 LT DUP2 EQ ISZERO PUSH2 0x245E JUMPI PUSH2 0x245D PUSH2 0x2403 JUMP JUMPDEST JUMPDEST POP SWAP2 SWAP1 POP JUMP JUMPDEST PUSH32 0x5468657265206973206E6F20656E6454696D652073657420696E2074696D656F PUSH1 0x0 DUP3 ADD MSTORE PUSH32 0x7574000000000000000000000000000000000000000000000000000000000000 PUSH1 0x20 DUP3 ADD MSTORE POP JUMP JUMPDEST PUSH1 0x0 PUSH2 0x24C0 PUSH1 0x22 DUP4 PUSH2 0x205D JUMP JUMPDEST SWAP2 POP PUSH2 0x24CB DUP3 PUSH2 0x2464 JUMP JUMPDEST PUSH1 0x40 DUP3 ADD SWAP1 POP SWAP2 SWAP1 POP JUMP JUMPDEST PUSH1 0x0 PUSH1 0x20 DUP3 ADD SWAP1 POP DUP2 DUP2 SUB PUSH1 0x0 DUP4 ADD MSTORE PUSH2 0x24EF DUP2 PUSH2 0x24B3 JUMP JUMPDEST SWAP1 POP SWAP2 SWAP1 POP JUMP JUMPDEST PUSH32 0x4E487B7100000000000000000000000000000000000000000000000000000000 PUSH1 0x0 MSTORE PUSH1 0x11 PUSH1 0x4 MSTORE PUSH1 0x24 PUSH1 0x0 REVERT JUMPDEST PUSH1 0x0 PUSH2 0x2530 DUP3 PUSH2 0x1B2C JUMP JUMPDEST SWAP2 POP PUSH2 0x253B DUP4 PUSH2 0x1B2C JUMP JUMPDEST SWAP3 POP DUP3 DUP3 LT ISZERO PUSH2 0x254E JUMPI PUSH2 0x254D PUSH2 0x24F6 JUMP JUMPDEST JUMPDEST DUP3 DUP3 SUB SWAP1 POP SWAP3 SWAP2 POP POP JUMP JUMPDEST PUSH1 0x0 PUSH2 0x2564 DUP3 PUSH2 0x1B2C JUMP JUMPDEST SWAP2 POP PUSH2 0x256F DUP4 PUSH2 0x1B2C JUMP JUMPDEST SWAP3 POP DUP3 PUSH4 0xFFFFFFFF SUB DUP3 GT ISZERO PUSH2 0x2588 JUMPI PUSH2 0x2587 PUSH2 0x24F6 JUMP JUMPDEST JUMPDEST DUP3 DUP3 ADD SWAP1 POP SWAP3 SWAP2 POP POP JUMP JUMPDEST PUSH32 0x546865206D6574686F642067657454696D65496E5365636F6E647320646F6573 PUSH1 0x0 DUP3 ADD MSTORE PUSH32 0x6E277420776F726B20666F72204D4F4E544820616E6420594541520000000000 PUSH1 0x20 DUP3 ADD MSTORE POP JUMP JUMPDEST PUSH1 0x0 PUSH2 0x25EF PUSH1 0x3B DUP4 PUSH2 0x205D JUMP JUMPDEST SWAP2 POP PUSH2 0x25FA DUP3 PUSH2 0x2593 JUMP JUMPDEST PUSH1 0x40 DUP3 ADD SWAP1 POP SWAP2 SWAP1 POP JUMP JUMPDEST PUSH1 0x0 PUSH1 0x20 DUP3 ADD SWAP1 POP DUP2 DUP2 SUB PUSH1 0x0 DUP4 ADD MSTORE PUSH2 0x261E DUP2 PUSH2 0x25E2 JUMP JUMPDEST SWAP1 POP SWAP2 SWAP1 POP JUMP JUMPDEST PUSH1 0x0 DUP2 SWAP1 POP SWAP2 SWAP1 POP JUMP JUMPDEST PUSH1 0x0 PUSH2 0x263A DUP3 PUSH2 0x2625 JUMP JUMPDEST SWAP2 POP PUSH32 0xFFFFFFFFFFFFFFFFFFFFFFFFFFFFFFFFFFFFFFFFFFFFFFFFFFFFFFFFFFFFFFFF DUP3 EQ ISZERO PUSH2 0x266D JUMPI PUSH2 0x266C PUSH2 0x24F6 JUMP JUMPDEST JUMPDEST PUSH1 0x1 DUP3 ADD SWAP1 POP SWAP2 SWAP1 POP JUMP JUMPDEST PUSH32 0x4E487B7100000000000000000000000000000000000000000000000000000000 PUSH1 0x0 MSTORE PUSH1 0x12 PUSH1 0x4 MSTORE PUSH1 0x24 PUSH1 0x0 REVERT JUMPDEST PUSH1 0x0 PUSH2 0x26B2 DUP3 PUSH2 0x2625 JUMP JUMPDEST SWAP2 POP PUSH2 0x26BD DUP4 PUSH2 0x2625 JUMP JUMPDEST SWAP3 POP DUP3 PUSH2 0x26CD JUMPI PUSH2 0x26CC PUSH2 0x2678 JUMP JUMPDEST JUMPDEST DUP3 DUP3 DIV SWAP1 POP SWAP3 SWAP2 POP POP JUMP JUMPDEST PUSH1 0x0 PUSH2 0x26E3 DUP3 PUSH2 0x2625 JUMP JUMPDEST SWAP2 POP PUSH2 0x26EE DUP4 PUSH2 0x2625 JUMP JUMPDEST SWAP3 POP DUP3 DUP3 LT ISZERO PUSH2 0x2701 JUMPI PUSH2 0x2700 PUSH2 0x24F6 JUMP JUMPDEST JUMPDEST DUP3 DUP3 SUB SWAP1 POP SWAP3 SWAP2 POP POP JUMP JUMPDEST PUSH1 0x0 PUSH2 0x2717 DUP3 PUSH2 0x2625 JUMP JUMPDEST SWAP2 POP PUSH2 0x2722 DUP4 PUSH2 0x2625 JUMP JUMPDEST SWAP3 POP DUP3 PUSH2 0x2732 JUMPI PUSH2 0x2731 PUSH2 0x2678 JUMP JUMPDEST JUMPDEST DUP3 DUP3 MOD SWAP1 POP SWAP3 SWAP2 POP POP JUMP JUMPDEST PUSH1 0x0 PUSH2 0x2748 DUP3 PUSH2 0x2625 JUMP JUMPDEST SWAP2 POP PUSH2 0x2753 DUP4 PUSH2 0x2625 JUMP JUMPDEST SWAP3 POP DUP3 PUSH32 0xFFFFFFFFFFFFFFFFFFFFFFFFFFFFFFFFFFFFFFFFFFFFFFFFFFFFFFFFFFFFFFFF SUB DUP3 GT ISZERO PUSH2 0x2788 JUMPI PUSH2 0x2787 PUSH2 0x24F6 JUMP JUMPDEST JUMPDEST DUP3 DUP3 ADD SWAP1 POP SWAP3 SWAP2 POP POP JUMP JUMPDEST PUSH1 0x0 PUSH2 0x279E DUP3 PUSH2 0x1B2C JUMP JUMPDEST SWAP2 POP PUSH2 0x27A9 DUP4 PUSH2 0x1B2C JUMP JUMPDEST SWAP3 POP DUP2 PUSH4 0xFFFFFFFF DIV DUP4 GT DUP3 ISZERO ISZERO AND ISZERO PUSH2 0x27C6 JUMPI PUSH2 0x27C5 PUSH2 0x24F6 JUMP JUMPDEST JUMPDEST DUP3 DUP3 MUL SWAP1 POP SWAP3 SWAP2 POP POP JUMP JUMPDEST PUSH1 0x0 PUSH2 0x27DC DUP3 PUSH2 0x1B2C JUMP JUMPDEST SWAP2 POP PUSH2 0x27E7 DUP4 PUSH2 0x1B2C JUMP JUMPDEST SWAP3 POP DUP3 PUSH2 0x27F7 JUMPI PUSH2 0x27F6 PUSH2 0x2678 JUMP JUMPDEST JUMPDEST DUP3 DUP3 DIV SWAP1 POP SWAP3 SWAP2 POP POP JUMP JUMPDEST PUSH1 0x0 PUSH2 0x280D DUP3 PUSH2 0x1B2C JUMP JUMPDEST SWAP2 POP PUSH2 0x2818 DUP4 PUSH2 0x1B2C JUMP JUMPDEST SWAP3 POP DUP3 PUSH2 0x2828 JUMPI PUSH2 0x2827 PUSH2 0x2678 JUMP JUMPDEST JUMPDEST DUP3 DUP3 MOD SWAP1 POP SWAP3 SWAP2 POP POP JUMP INVALID LOG2 PUSH5 0x6970667358 0x22 SLT KECCAK256 0xAC PUSH6 0xE577CCF37855 0x4F SWAP2 PUSH18 0x1AF8C33E85944D18FD3C7CC17B5F3DE2C317 0xB7 SWAP1 0xC0 PUSH5 0x736F6C6343 STOP ADDMOD EXP STOP CALLER "
				},
				"gasEstimates": {
					"creation": {
						"codeDepositCost": "2069000",
						"executionCost": "infinite",
						"totalCost": "infinite"
					},
					"external": {
						"changeApplicationParty(string,address)": "infinite",
						"getApplicationAddress()": "9038",
						"getParty(address)": "infinite",
						"getProcessAddress()": "9060",
						"obligation_responseWorks(uint32,bool[])": "infinite",
						"right_requestUpdate(uint32,bool[])": "infinite",
						"signContract()": "infinite"
					},
					"internal": {
						"updateMapParty(address,struct EAI.Party storage pointer)": "infinite"
					}
				},
				"methodIdentifiers": {
					"changeApplicationParty(string,address)": "5e744c6a",
					"getApplicationAddress()": "70d8915a",
					"getParty(address)": "fb6f8243",
					"getProcessAddress()": "85931911",
					"obligation_responseWorks(uint32,bool[])": "22d53d53",
					"right_requestUpdate(uint32,bool[])": "41487b4a",
					"signContract()": "b8b4f1a0"
				}
			},
			"storageLayout": {
				"storage": [
					{
						"astId": 2120,
						"contract": "contracts/study-case-contracts/002-orcid/orcid.sol:Orcid",
						"label": "activated",
						"offset": 0,
						"slot": "0",
						"type": "t_bool"
					},
					{
						"astId": 2122,
						"contract": "contracts/study-case-contracts/002-orcid/orcid.sol:Orcid",
						"label": "beginDate",
						"offset": 1,
						"slot": "0",
						"type": "t_uint32"
					},
					{
						"astId": 2124,
						"contract": "contracts/study-case-contracts/002-orcid/orcid.sol:Orcid",
						"label": "dueDate",
						"offset": 5,
						"slot": "0",
						"type": "t_uint32"
					},
					{
						"astId": 2131,
						"contract": "contracts/study-case-contracts/002-orcid/orcid.sol:Orcid",
						"label": "application",
						"offset": 0,
						"slot": "1",
						"type": "t_struct(Party)75_storage"
					},
					{
						"astId": 2134,
						"contract": "contracts/study-case-contracts/002-orcid/orcid.sol:Orcid",
						"label": "process",
						"offset": 0,
						"slot": "3",
						"type": "t_struct(Party)75_storage"
					},
					{
						"astId": 2139,
						"contract": "contracts/study-case-contracts/002-orcid/orcid.sol:Orcid",
						"label": "mapParty",
						"offset": 0,
						"slot": "5",
						"type": "t_mapping(t_address,t_struct(Party)75_storage)"
					},
					{
						"astId": 2171,
						"contract": "contracts/study-case-contracts/002-orcid/orcid.sol:Orcid",
						"label": "maxNumberOfOperationByTime_C1",
						"offset": 0,
						"slot": "6",
						"type": "t_array(t_struct(MaxNumberOfOperationByTime)778_storage)dyn_storage"
					},
					{
						"astId": 2175,
						"contract": "contracts/study-case-contracts/002-orcid/orcid.sol:Orcid",
						"label": "msgContent_onlyPath_C1",
						"offset": 0,
						"slot": "7",
						"type": "t_array(t_struct(MessageContent_onlyXPath_Boolean)922_storage)dyn_storage"
					},
					{
						"astId": 2179,
						"contract": "contracts/study-case-contracts/002-orcid/orcid.sol:Orcid",
						"label": "timeout_C2",
						"offset": 0,
						"slot": "8",
						"type": "t_array(t_struct(Timeout)604_storage)dyn_storage"
					}
				],
				"types": {
					"t_address": {
						"encoding": "inplace",
						"label": "address",
						"numberOfBytes": "20"
					},
					"t_array(t_struct(MaxNumberOfOperationByTime)778_storage)dyn_storage": {
						"base": "t_struct(MaxNumberOfOperationByTime)778_storage",
						"encoding": "dynamic_array",
						"label": "struct EAI.MaxNumberOfOperationByTime[]",
						"numberOfBytes": "32"
					},
					"t_array(t_struct(MessageContent_onlyXPath_Boolean)922_storage)dyn_storage": {
						"base": "t_struct(MessageContent_onlyXPath_Boolean)922_storage",
						"encoding": "dynamic_array",
						"label": "struct EAI.MessageContent_onlyXPath_Boolean[]",
						"numberOfBytes": "32"
					},
					"t_array(t_struct(Timeout)604_storage)dyn_storage": {
						"base": "t_struct(Timeout)604_storage",
						"encoding": "dynamic_array",
						"label": "struct EAI.Timeout[]",
						"numberOfBytes": "32"
					},
					"t_bool": {
						"encoding": "inplace",
						"label": "bool",
						"numberOfBytes": "1"
					},
					"t_mapping(t_address,t_struct(Party)75_storage)": {
						"encoding": "mapping",
						"key": "t_address",
						"label": "mapping(address => struct EAI.Party)",
						"numberOfBytes": "32",
						"value": "t_struct(Party)75_storage"
					},
					"t_string_storage": {
						"encoding": "bytes",
						"label": "string",
						"numberOfBytes": "32"
					},
					"t_struct(MaxNumberOfOperationByTime)778_storage": {
						"encoding": "inplace",
						"label": "struct EAI.MaxNumberOfOperationByTime",
						"members": [
							{
								"astId": 769,
								"contract": "contracts/study-case-contracts/002-orcid/orcid.sol:Orcid",
								"label": "amount",
								"offset": 0,
								"slot": "0",
								"type": "t_uint32"
							},
							{
								"astId": 771,
								"contract": "contracts/study-case-contracts/002-orcid/orcid.sol:Orcid",
								"label": "timeUnit",
								"offset": 4,
								"slot": "0",
								"type": "t_uint8"
							},
							{
								"astId": 773,
								"contract": "contracts/study-case-contracts/002-orcid/orcid.sol:Orcid",
								"label": "byTime",
								"offset": 5,
								"slot": "0",
								"type": "t_uint32"
							},
							{
								"astId": 775,
								"contract": "contracts/study-case-contracts/002-orcid/orcid.sol:Orcid",
								"label": "rest",
								"offset": 9,
								"slot": "0",
								"type": "t_uint32"
							},
							{
								"astId": 777,
								"contract": "contracts/study-case-contracts/002-orcid/orcid.sol:Orcid",
								"label": "endTime",
								"offset": 13,
								"slot": "0",
								"type": "t_uint32"
							}
						],
						"numberOfBytes": "32"
					},
					"t_struct(MessageContent_onlyXPath_Boolean)922_storage": {
						"encoding": "inplace",
						"label": "struct EAI.MessageContent_onlyXPath_Boolean",
						"members": [
							{
								"astId": 921,
								"contract": "contracts/study-case-contracts/002-orcid/orcid.sol:Orcid",
								"label": "xpath",
								"offset": 0,
								"slot": "0",
								"type": "t_string_storage"
							}
						],
						"numberOfBytes": "32"
					},
					"t_struct(Party)75_storage": {
						"encoding": "inplace",
						"label": "struct EAI.Party",
						"members": [
							{
								"astId": 70,
								"contract": "contracts/study-case-contracts/002-orcid/orcid.sol:Orcid",
								"label": "name",
								"offset": 0,
								"slot": "0",
								"type": "t_string_storage"
							},
							{
								"astId": 72,
								"contract": "contracts/study-case-contracts/002-orcid/orcid.sol:Orcid",
								"label": "walletAddress",
								"offset": 0,
								"slot": "1",
								"type": "t_address"
							},
							{
								"astId": 74,
								"contract": "contracts/study-case-contracts/002-orcid/orcid.sol:Orcid",
								"label": "aware",
								"offset": 20,
								"slot": "1",
								"type": "t_bool"
							}
						],
						"numberOfBytes": "64"
					},
					"t_struct(Timeout)604_storage": {
						"encoding": "inplace",
						"label": "struct EAI.Timeout",
						"members": [
							{
								"astId": 601,
								"contract": "contracts/study-case-contracts/002-orcid/orcid.sol:Orcid",
								"label": "endTime",
								"offset": 0,
								"slot": "0",
								"type": "t_uint32"
							},
							{
								"astId": 603,
								"contract": "contracts/study-case-contracts/002-orcid/orcid.sol:Orcid",
								"label": "timeIncrement",
								"offset": 4,
								"slot": "0",
								"type": "t_uint32"
							}
						],
						"numberOfBytes": "32"
					},
					"t_uint32": {
						"encoding": "inplace",
						"label": "uint32",
						"numberOfBytes": "4"
					},
					"t_uint8": {
						"encoding": "inplace",
						"label": "uint8",
						"numberOfBytes": "1"
					}
				}
			},
			"userdoc": {
				"kind": "user",
				"methods": {},
				"version": 1
			}
		}
	}
}