{
	"contracts/study-case-contracts/002-orcid/Orcid.sol": {
		"Orcid": {
			"abi": [
				{
					"inputs": [
						{
							"internalType": "address",
							"name": "_applicationWallet",
							"type": "address"
						}
					],
					"stateMutability": "nonpayable",
					"type": "constructor"
				},
				{
					"anonymous": false,
					"inputs": [
						{
							"indexed": false,
							"internalType": "string",
							"name": "_logMessage",
							"type": "string"
						}
					],
					"name": "failEvent",
					"type": "event"
				},
				{
					"anonymous": false,
					"inputs": [
						{
							"indexed": false,
							"internalType": "string",
							"name": "_logMessage",
							"type": "string"
						}
					],
					"name": "successEvent",
					"type": "event"
				},
				{
					"inputs": [
						{
							"internalType": "string",
							"name": "_name",
							"type": "string"
						},
						{
							"internalType": "address",
							"name": "_walletAddress",
							"type": "address"
						}
					],
					"name": "changeApplicationParty",
					"outputs": [
						{
							"internalType": "bool",
							"name": "",
							"type": "bool"
						}
					],
					"stateMutability": "nonpayable",
					"type": "function"
				},
				{
					"inputs": [],
					"name": "getApplicationAddress",
					"outputs": [
						{
							"internalType": "address",
							"name": "",
							"type": "address"
						}
					],
					"stateMutability": "view",
					"type": "function"
				},
				{
					"inputs": [
						{
							"internalType": "address",
							"name": "_walletAddress",
							"type": "address"
						}
					],
					"name": "getParty",
					"outputs": [
						{
							"components": [
								{
									"internalType": "string",
									"name": "name",
									"type": "string"
								},
								{
									"internalType": "address",
									"name": "walletAddress",
									"type": "address"
								},
								{
									"internalType": "bool",
									"name": "aware",
									"type": "bool"
								}
							],
							"internalType": "struct EAI.Party",
							"name": "",
							"type": "tuple"
						}
					],
					"stateMutability": "view",
					"type": "function"
				},
				{
					"inputs": [],
					"name": "getProcessAddress",
					"outputs": [
						{
							"internalType": "address",
							"name": "",
							"type": "address"
						}
					],
					"stateMutability": "view",
					"type": "function"
				},
				{
					"inputs": [
						{
							"internalType": "uint32",
							"name": "_accessDateTime",
							"type": "uint32"
						},
						{
							"internalType": "bool[]",
							"name": "_resultFromXpath",
							"type": "bool[]"
						}
					],
					"name": "obligation_responseWorks",
					"outputs": [
						{
							"internalType": "bool",
							"name": "",
							"type": "bool"
						}
					],
					"stateMutability": "nonpayable",
					"type": "function"
				},
				{
					"inputs": [
						{
							"internalType": "uint8",
							"name": "_weekDay",
							"type": "uint8"
						},
						{
							"internalType": "uint32",
							"name": "_accessTime",
							"type": "uint32"
						},
						{
							"internalType": "uint32",
							"name": "_accessDateTime",
							"type": "uint32"
						}
					],
					"name": "right_requestAllWorks",
					"outputs": [
						{
							"internalType": "bool",
							"name": "",
							"type": "bool"
						}
					],
					"stateMutability": "nonpayable",
					"type": "function"
				},
				{
					"inputs": [],
					"name": "signContract",
					"outputs": [
						{
							"internalType": "bool",
							"name": "",
							"type": "bool"
						}
					],
					"stateMutability": "nonpayable",
					"type": "function"
				}
			],
			"devdoc": {
				"kind": "dev",
				"methods": {},
				"version": 1
			},
			"evm": {
				"assembly": "    /* \"contracts/study-case-contracts/002-orcid/Orcid.sol\":190:7148  contract Orcid {... */\n  mstore(0x40, 0x80)\n    /* \"contracts/study-case-contracts/002-orcid/Orcid.sol\":2055:3223  constructor(address _applicationWallet){... */\n  callvalue\n  dup1\n  iszero\n  tag_1\n  jumpi\n  0x00\n  dup1\n  revert\ntag_1:\n  pop\n  mload(0x40)\n  sub(codesize, bytecodeSize)\n  dup1\n  bytecodeSize\n  dup4\n  codecopy\n  dup2\n  dup2\n  add\n  0x40\n  mstore\n  dup2\n  add\n  swap1\n  tag_2\n  swap2\n  swap1\n  tag_3\n  jump\t// in\ntag_2:\n    /* \"contracts/study-case-contracts/002-orcid/Orcid.sol\":2112:2116  true */\n  0x01\n    /* \"contracts/study-case-contracts/002-orcid/Orcid.sol\":2100:2109  activated */\n  0x00\n  dup1\n    /* \"contracts/study-case-contracts/002-orcid/Orcid.sol\":2100:2116  activated = true */\n  0x0100\n  exp\n  dup2\n  sload\n  dup2\n  0xff\n  mul\n  not\n  and\n  swap1\n  dup4\n  iszero\n  iszero\n  mul\n  or\n  swap1\n  sstore\n  pop\n    /* \"contracts/study-case-contracts/002-orcid/Orcid.sol\":2188:2198  1672560000 */\n  0x63b13d80\n    /* \"contracts/study-case-contracts/002-orcid/Orcid.sol\":2176:2185  beginDate */\n  0x00\n  0x01\n    /* \"contracts/study-case-contracts/002-orcid/Orcid.sol\":2176:2198  beginDate = 1672560000 */\n  0x0100\n  exp\n  dup2\n  sload\n  dup2\n  0xffffffff\n  mul\n  not\n  and\n  swap1\n  dup4\n  0xffffffff\n  and\n  mul\n  or\n  swap1\n  sstore\n  pop\n    /* \"contracts/study-case-contracts/002-orcid/Orcid.sol\":2252:2262  1735603200 */\n  0x67733400\n    /* \"contracts/study-case-contracts/002-orcid/Orcid.sol\":2242:2249  dueDate */\n  0x00\n  0x05\n    /* \"contracts/study-case-contracts/002-orcid/Orcid.sol\":2242:2262  dueDate = 1735603200 */\n  0x0100\n  exp\n  dup2\n  sload\n  dup2\n  0xffffffff\n  mul\n  not\n  and\n  swap1\n  dup4\n  0xffffffff\n  and\n  mul\n  or\n  swap1\n  sstore\n  pop\n    /* \"contracts/study-case-contracts/002-orcid/Orcid.sol\":2356:2411  EAI.createParty(\"Orcid API\", _applicationWallet, false) */\n  tag_6\n  mload(0x40)\n  dup1\n  0x40\n  add\n  0x40\n  mstore\n  dup1\n  0x09\n  dup2\n  mstore\n  0x20\n  add\n  0x4f72636964204150490000000000000000000000000000000000000000000000\n  dup2\n  mstore\n  pop\n    /* \"contracts/study-case-contracts/002-orcid/Orcid.sol\":2385:2403  _applicationWallet */\n  dup3\n    /* \"contracts/study-case-contracts/002-orcid/Orcid.sol\":2405:2410  false */\n  0x00\n    /* \"contracts/study-case-contracts/002-orcid/Orcid.sol\":2356:2371  EAI.createParty */\n  or(tag_0_43, shl(0x20, tag_7))\n    /* \"contracts/study-case-contracts/002-orcid/Orcid.sol\":2356:2411  EAI.createParty(\"Orcid API\", _applicationWallet, false) */\n  0x20\n  shr\n  jump\t// in\ntag_6:\n    /* \"contracts/study-case-contracts/002-orcid/Orcid.sol\":2342:2353  application */\n  0x01\n    /* \"contracts/study-case-contracts/002-orcid/Orcid.sol\":2342:2411  application = EAI.createParty(\"Orcid API\", _applicationWallet, false) */\n  0x00\n  dup3\n  add\n  mload\n  dup2\n  0x00\n  add\n  swap1\n  dup1\n  mload\n  swap1\n  0x20\n  add\n  swap1\n  tag_8\n  swap3\n  swap2\n  swap1\n  tag_9\n  jump\t// in\ntag_8:\n  pop\n  0x20\n  dup3\n  add\n  mload\n  dup2\n  0x01\n  add\n  exp(0x0100, 0x00)\n  dup2\n  sload\n  dup2\n  0xffffffffffffffffffffffffffffffffffffffff\n  mul\n  not\n  and\n  swap1\n  dup4\n  0xffffffffffffffffffffffffffffffffffffffff\n  and\n  mul\n  or\n  swap1\n  sstore\n  pop\n  0x40\n  dup3\n  add\n  mload\n  dup2\n  0x01\n  add\n  exp(0x0100, 0x14)\n  dup2\n  sload\n  dup2\n  0xff\n  mul\n  not\n  and\n  swap1\n  dup4\n  iszero\n  iszero\n  mul\n  or\n  swap1\n  sstore\n  pop\n  swap1\n  pop\n  pop\n    /* \"contracts/study-case-contracts/002-orcid/Orcid.sol\":2464:2520  EAI.createParty(\"Integration Process\", msg.sender, true) */\n  tag_10\n  mload(0x40)\n  dup1\n  0x40\n  add\n  0x40\n  mstore\n  dup1\n  0x13\n  dup2\n  mstore\n  0x20\n  add\n  0x496e746567726174696f6e2050726f6365737300000000000000000000000000\n  dup2\n  mstore\n  pop\n    /* \"contracts/study-case-contracts/002-orcid/Orcid.sol\":2503:2513  msg.sender */\n  caller\n    /* \"contracts/study-case-contracts/002-orcid/Orcid.sol\":2515:2519  true */\n  0x01\n    /* \"contracts/study-case-contracts/002-orcid/Orcid.sol\":2464:2479  EAI.createParty */\n  or(tag_0_43, shl(0x20, tag_7))\n    /* \"contracts/study-case-contracts/002-orcid/Orcid.sol\":2464:2520  EAI.createParty(\"Integration Process\", msg.sender, true) */\n  0x20\n  shr\n  jump\t// in\ntag_10:\n    /* \"contracts/study-case-contracts/002-orcid/Orcid.sol\":2454:2461  process */\n  0x03\n    /* \"contracts/study-case-contracts/002-orcid/Orcid.sol\":2454:2520  process = EAI.createParty(\"Integration Process\", msg.sender, true) */\n  0x00\n  dup3\n  add\n  mload\n  dup2\n  0x00\n  add\n  swap1\n  dup1\n  mload\n  swap1\n  0x20\n  add\n  swap1\n  tag_11\n  swap3\n  swap2\n  swap1\n  tag_9\n  jump\t// in\ntag_11:\n  pop\n  0x20\n  dup3\n  add\n  mload\n  dup2\n  0x01\n  add\n  exp(0x0100, 0x00)\n  dup2\n  sload\n  dup2\n  0xffffffffffffffffffffffffffffffffffffffff\n  mul\n  not\n  and\n  swap1\n  dup4\n  0xffffffffffffffffffffffffffffffffffffffff\n  and\n  mul\n  or\n  swap1\n  sstore\n  pop\n  0x40\n  dup3\n  add\n  mload\n  dup2\n  0x01\n  add\n  exp(0x0100, 0x14)\n  dup2\n  sload\n  dup2\n  0xff\n  mul\n  not\n  and\n  swap1\n  dup4\n  iszero\n  iszero\n  mul\n  or\n  swap1\n  sstore\n  pop\n  swap1\n  pop\n  pop\n    /* \"contracts/study-case-contracts/002-orcid/Orcid.sol\":2595:2602  process */\n  0x03\n    /* \"contracts/study-case-contracts/002-orcid/Orcid.sol\":2572:2580  mapParty */\n  0x05\n    /* \"contracts/study-case-contracts/002-orcid/Orcid.sol\":2572:2592  mapParty[msg.sender] */\n  0x00\n    /* \"contracts/study-case-contracts/002-orcid/Orcid.sol\":2581:2591  msg.sender */\n  caller\n    /* \"contracts/study-case-contracts/002-orcid/Orcid.sol\":2572:2592  mapParty[msg.sender] */\n  0xffffffffffffffffffffffffffffffffffffffff\n  and\n  0xffffffffffffffffffffffffffffffffffffffff\n  and\n  dup2\n  mstore\n  0x20\n  add\n  swap1\n  dup2\n  mstore\n  0x20\n  add\n  0x00\n  keccak256\n    /* \"contracts/study-case-contracts/002-orcid/Orcid.sol\":2572:2602  mapParty[msg.sender] = process */\n  0x00\n  dup3\n  add\n  dup2\n  0x00\n  add\n  swap1\n  dup1\n  sload\n  tag_12\n  swap1\n  tag_13\n  jump\t// in\ntag_12:\n  tag_14\n  swap3\n  swap2\n  swap1\n  tag_15\n  jump\t// in\ntag_14:\n  pop\n  0x01\n  dup3\n  add\n  0x00\n  swap1\n  sload\n  swap1\n  0x0100\n  exp\n  swap1\n  div\n  0xffffffffffffffffffffffffffffffffffffffff\n  and\n  dup2\n  0x01\n  add\n  exp(0x0100, 0x00)\n  dup2\n  sload\n  dup2\n  0xffffffffffffffffffffffffffffffffffffffff\n  mul\n  not\n  and\n  swap1\n  dup4\n  0xffffffffffffffffffffffffffffffffffffffff\n  and\n  mul\n  or\n  swap1\n  sstore\n  pop\n  0x01\n  dup3\n  add\n  0x14\n  swap1\n  sload\n  swap1\n  0x0100\n  exp\n  swap1\n  div\n  0xff\n  and\n  dup2\n  0x01\n  add\n  exp(0x0100, 0x14)\n  dup2\n  sload\n  dup2\n  0xff\n  mul\n  not\n  and\n  swap1\n  dup4\n  iszero\n  iszero\n  mul\n  or\n  swap1\n  sstore\n  pop\n  swap1\n  pop\n  pop\n    /* \"contracts/study-case-contracts/002-orcid/Orcid.sol\":2644:2655  application */\n  0x01\n    /* \"contracts/study-case-contracts/002-orcid/Orcid.sol\":2613:2621  mapParty */\n  0x05\n    /* \"contracts/study-case-contracts/002-orcid/Orcid.sol\":2613:2641  mapParty[_applicationWallet] */\n  0x00\n    /* \"contracts/study-case-contracts/002-orcid/Orcid.sol\":2622:2640  _applicationWallet */\n  dup4\n    /* \"contracts/study-case-contracts/002-orcid/Orcid.sol\":2613:2641  mapParty[_applicationWallet] */\n  0xffffffffffffffffffffffffffffffffffffffff\n  and\n  0xffffffffffffffffffffffffffffffffffffffff\n  and\n  dup2\n  mstore\n  0x20\n  add\n  swap1\n  dup2\n  mstore\n  0x20\n  add\n  0x00\n  keccak256\n    /* \"contracts/study-case-contracts/002-orcid/Orcid.sol\":2613:2655  mapParty[_applicationWallet] = application */\n  0x00\n  dup3\n  add\n  dup2\n  0x00\n  add\n  swap1\n  dup1\n  sload\n  tag_16\n  swap1\n  tag_13\n  jump\t// in\ntag_16:\n  tag_17\n  swap3\n  swap2\n  swap1\n  tag_15\n  jump\t// in\ntag_17:\n  pop\n  0x01\n  dup3\n  add\n  0x00\n  swap1\n  sload\n  swap1\n  0x0100\n  exp\n  swap1\n  div\n  0xffffffffffffffffffffffffffffffffffffffff\n  and\n  dup2\n  0x01\n  add\n  exp(0x0100, 0x00)\n  dup2\n  sload\n  dup2\n  0xffffffffffffffffffffffffffffffffffffffff\n  mul\n  not\n  and\n  swap1\n  dup4\n  0xffffffffffffffffffffffffffffffffffffffff\n  and\n  mul\n  or\n  swap1\n  sstore\n  pop\n  0x01\n  dup3\n  add\n  0x14\n  swap1\n  sload\n  swap1\n  0x0100\n  exp\n  swap1\n  div\n  0xff\n  and\n  dup2\n  0x01\n  add\n  exp(0x0100, 0x14)\n  dup2\n  sload\n  dup2\n  0xff\n  mul\n  not\n  and\n  swap1\n  dup4\n  iszero\n  iszero\n  mul\n  or\n  swap1\n  sstore\n  pop\n  swap1\n  pop\n  pop\n    /* \"contracts/study-case-contracts/002-orcid/Orcid.sol\":2774:2793  weekDaysInterval_C1 */\n  0x06\n    /* \"contracts/study-case-contracts/002-orcid/Orcid.sol\":2799:2851  EAI.createWeekDaysInterval(EAI.SUNDAY, EAI.SATURDAY) */\n  tag_18\n    /* \"contracts/lib/eai/EAI.sol\":431:432  0 */\n  0x00\n    /* \"contracts/lib/eai/EAI.sol\":619:620  6 */\n  0x06\n    /* \"contracts/study-case-contracts/002-orcid/Orcid.sol\":2799:2825  EAI.createWeekDaysInterval */\n  or(tag_0_44, shl(0x20, tag_19))\n    /* \"contracts/study-case-contracts/002-orcid/Orcid.sol\":2799:2851  EAI.createWeekDaysInterval(EAI.SUNDAY, EAI.SATURDAY) */\n  0x20\n  shr\n  jump\t// in\ntag_18:\n    /* \"contracts/study-case-contracts/002-orcid/Orcid.sol\":2774:2852  weekDaysInterval_C1.push(EAI.createWeekDaysInterval(EAI.SUNDAY, EAI.SATURDAY)) */\n  swap1\n  dup1\n  0x01\n  dup2\n  sload\n  add\n  dup1\n  dup3\n  sstore\n  dup1\n  swap2\n  pop\n  pop\n  0x01\n  swap1\n  sub\n  swap1\n  0x00\n  mstore\n  keccak256(0x00, 0x20)\n  add\n  0x00\n  swap1\n  swap2\n  swap1\n  swap2\n  swap1\n  swap2\n  pop\n  0x00\n  dup3\n  add\n  mload\n  dup2\n  0x00\n  add\n  exp(0x0100, 0x00)\n  dup2\n  sload\n  dup2\n  0xff\n  mul\n  not\n  and\n  swap1\n  dup4\n  0xff\n  and\n  mul\n  or\n  swap1\n  sstore\n  pop\n  0x20\n  dup3\n  add\n  mload\n  dup2\n  0x00\n  add\n  exp(0x0100, 0x01)\n  dup2\n  sload\n  dup2\n  0xff\n  mul\n  not\n  and\n  swap1\n  dup4\n  0xff\n  and\n  mul\n  or\n  swap1\n  sstore\n  pop\n  pop\n  pop\n    /* \"contracts/study-case-contracts/002-orcid/Orcid.sol\":2863:2878  timeInterval_C1 */\n  0x07\n    /* \"contracts/study-case-contracts/002-orcid/Orcid.sol\":2884:2917  EAI.createTimeInterval(0, 86399 ) */\n  tag_21\n    /* \"contracts/study-case-contracts/002-orcid/Orcid.sol\":2907:2908  0 */\n  0x00\n    /* \"contracts/study-case-contracts/002-orcid/Orcid.sol\":2910:2915  86399 */\n  0x01517f\n    /* \"contracts/study-case-contracts/002-orcid/Orcid.sol\":2884:2906  EAI.createTimeInterval */\n  or(tag_0_45, shl(0x20, tag_22))\n    /* \"contracts/study-case-contracts/002-orcid/Orcid.sol\":2884:2917  EAI.createTimeInterval(0, 86399 ) */\n  0x20\n  shr\n  jump\t// in\ntag_21:\n    /* \"contracts/study-case-contracts/002-orcid/Orcid.sol\":2863:2918  timeInterval_C1.push(EAI.createTimeInterval(0, 86399 )) */\n  swap1\n  dup1\n  0x01\n  dup2\n  sload\n  add\n  dup1\n  dup3\n  sstore\n  dup1\n  swap2\n  pop\n  pop\n  0x01\n  swap1\n  sub\n  swap1\n  0x00\n  mstore\n  keccak256(0x00, 0x20)\n  add\n  0x00\n  swap1\n  swap2\n  swap1\n  swap2\n  swap1\n  swap2\n  pop\n  0x00\n  dup3\n  add\n  mload\n  dup2\n  0x00\n  add\n  exp(0x0100, 0x00)\n  dup2\n  sload\n  dup2\n  0xffffffff\n  mul\n  not\n  and\n  swap1\n  dup4\n  0xffffffff\n  and\n  mul\n  or\n  swap1\n  sstore\n  pop\n  0x20\n  dup3\n  add\n  mload\n  dup2\n  0x00\n  add\n  exp(0x0100, 0x04)\n  dup2\n  sload\n  dup2\n  0xffffffff\n  mul\n  not\n  and\n  swap1\n  dup4\n  0xffffffff\n  and\n  mul\n  or\n  swap1\n  sstore\n  pop\n  pop\n  pop\n    /* \"contracts/study-case-contracts/002-orcid/Orcid.sol\":2929:2958  maxNumberOfOperationByTime_C1 */\n  0x08\n    /* \"contracts/study-case-contracts/002-orcid/Orcid.sol\":2964:3015  EAI.createMaxNumberOfOperationByTime(24,EAI.SECOND) */\n  tag_24\n    /* \"contracts/study-case-contracts/002-orcid/Orcid.sol\":3001:3003  24 */\n  0x18\n    /* \"contracts/lib/eai/EAI.sol\":666:667  0 */\n  0x00\n    /* \"contracts/study-case-contracts/002-orcid/Orcid.sol\":2964:3000  EAI.createMaxNumberOfOperationByTime */\n  or(tag_0_46, shl(0x20, tag_25))\n    /* \"contracts/study-case-contracts/002-orcid/Orcid.sol\":2964:3015  EAI.createMaxNumberOfOperationByTime(24,EAI.SECOND) */\n  0x20\n  shr\n  jump\t// in\ntag_24:\n    /* \"contracts/study-case-contracts/002-orcid/Orcid.sol\":2929:3016  maxNumberOfOperationByTime_C1.push(EAI.createMaxNumberOfOperationByTime(24,EAI.SECOND)) */\n  swap1\n  dup1\n  0x01\n  dup2\n  sload\n  add\n  dup1\n  dup3\n  sstore\n  dup1\n  swap2\n  pop\n  pop\n  0x01\n  swap1\n  sub\n  swap1\n  0x00\n  mstore\n  keccak256(0x00, 0x20)\n  add\n  0x00\n  swap1\n  swap2\n  swap1\n  swap2\n  swap1\n  swap2\n  pop\n  0x00\n  dup3\n  add\n  mload\n  dup2\n  0x00\n  add\n  exp(0x0100, 0x00)\n  dup2\n  sload\n  dup2\n  0xffffffff\n  mul\n  not\n  and\n  swap1\n  dup4\n  0xffffffff\n  and\n  mul\n  or\n  swap1\n  sstore\n  pop\n  0x20\n  dup3\n  add\n  mload\n  dup2\n  0x00\n  add\n  exp(0x0100, 0x04)\n  dup2\n  sload\n  dup2\n  0xff\n  mul\n  not\n  and\n  swap1\n  dup4\n  0xff\n  and\n  mul\n  or\n  swap1\n  sstore\n  pop\n  0x40\n  dup3\n  add\n  mload\n  dup2\n  0x00\n  add\n  exp(0x0100, 0x05)\n  dup2\n  sload\n  dup2\n  0xffffffff\n  mul\n  not\n  and\n  swap1\n  dup4\n  0xffffffff\n  and\n  mul\n  or\n  swap1\n  sstore\n  pop\n  0x60\n  dup3\n  add\n  mload\n  dup2\n  0x00\n  add\n  exp(0x0100, 0x09)\n  dup2\n  sload\n  dup2\n  0xffffffff\n  mul\n  not\n  and\n  swap1\n  dup4\n  0xffffffff\n  and\n  mul\n  or\n  swap1\n  sstore\n  pop\n  0x80\n  dup3\n  add\n  mload\n  dup2\n  0x00\n  add\n  exp(0x0100, 0x0d)\n  dup2\n  sload\n  dup2\n  0xffffffff\n  mul\n  not\n  and\n  swap1\n  dup4\n  0xffffffff\n  and\n  mul\n  or\n  swap1\n  sstore\n  pop\n  pop\n  pop\n    /* \"contracts/study-case-contracts/002-orcid/Orcid.sol\":3029:3039  timeout_C2 */\n  0x09\n    /* \"contracts/study-case-contracts/002-orcid/Orcid.sol\":3045:3066  EAI.createTimeout(60) */\n  tag_27\n    /* \"contracts/study-case-contracts/002-orcid/Orcid.sol\":3063:3065  60 */\n  0x3c\n    /* \"contracts/study-case-contracts/002-orcid/Orcid.sol\":3045:3062  EAI.createTimeout */\n  or(tag_0_47, shl(0x20, tag_28))\n    /* \"contracts/study-case-contracts/002-orcid/Orcid.sol\":3045:3066  EAI.createTimeout(60) */\n  0x20\n  shr\n  jump\t// in\ntag_27:\n    /* \"contracts/study-case-contracts/002-orcid/Orcid.sol\":3029:3067  timeout_C2.push(EAI.createTimeout(60)) */\n  swap1\n  dup1\n  0x01\n  dup2\n  sload\n  add\n  dup1\n  dup3\n  sstore\n  dup1\n  swap2\n  pop\n  pop\n  0x01\n  swap1\n  sub\n  swap1\n  0x00\n  mstore\n  keccak256(0x00, 0x20)\n  add\n  0x00\n  swap1\n  swap2\n  swap1\n  swap2\n  swap1\n  swap2\n  pop\n  0x00\n  dup3\n  add\n  mload\n  dup2\n  0x00\n  add\n  exp(0x0100, 0x00)\n  dup2\n  sload\n  dup2\n  0xffffffff\n  mul\n  not\n  and\n  swap1\n  dup4\n  0xffffffff\n  and\n  mul\n  or\n  swap1\n  sstore\n  pop\n  0x20\n  dup3\n  add\n  mload\n  dup2\n  0x00\n  add\n  exp(0x0100, 0x04)\n  dup2\n  sload\n  dup2\n  0xffffffff\n  mul\n  not\n  and\n  swap1\n  dup4\n  0xffffffff\n  and\n  mul\n  or\n  swap1\n  sstore\n  pop\n  pop\n  pop\n    /* \"contracts/study-case-contracts/002-orcid/Orcid.sol\":3078:3100  msgContent_onlyPath_C2 */\n  0x0a\n    /* \"contracts/study-case-contracts/002-orcid/Orcid.sol\":3106:3209  EAI.createMessageContent_onlyXPath(\"count(//body/request/document) == count(//body/response/document)\") */\n  tag_30\n  mload(0x40)\n  dup1\n  0x80\n  add\n  0x40\n  mstore\n  dup1\n  0x41\n  dup2\n  mstore\n  0x20\n  add\n  data_fcb1aa9975f6d8f3fae14b5398f45c22fe6c7e61400b0ac0a2d00c3174df729a\n  0x41\n  swap2\n  codecopy\n    /* \"contracts/study-case-contracts/002-orcid/Orcid.sol\":3106:3140  EAI.createMessageContent_onlyXPath */\n  or(tag_0_48, shl(0x20, tag_31))\n    /* \"contracts/study-case-contracts/002-orcid/Orcid.sol\":3106:3209  EAI.createMessageContent_onlyXPath(\"count(//body/request/document) == count(//body/response/document)\") */\n  0x20\n  shr\n  jump\t// in\ntag_30:\n    /* \"contracts/study-case-contracts/002-orcid/Orcid.sol\":3078:3210  msgContent_onlyPath_C2.push(EAI.createMessageContent_onlyXPath(\"count(//body/request/document) == count(//body/response/document)\")) */\n  swap1\n  dup1\n  0x01\n  dup2\n  sload\n  add\n  dup1\n  dup3\n  sstore\n  dup1\n  swap2\n  pop\n  pop\n  0x01\n  swap1\n  sub\n  swap1\n  0x00\n  mstore\n  keccak256(0x00, 0x20)\n  add\n  0x00\n  swap1\n  swap2\n  swap1\n  swap2\n  swap1\n  swap2\n  pop\n  0x00\n  dup3\n  add\n  mload\n  dup2\n  0x00\n  add\n  swap1\n  dup1\n  mload\n  swap1\n  0x20\n  add\n  swap1\n  tag_33\n  swap3\n  swap2\n  swap1\n  tag_9\n  jump\t// in\ntag_33:\n  pop\n  pop\n  pop\n    /* \"contracts/study-case-contracts/002-orcid/Orcid.sol\":2055:3223  constructor(address _applicationWallet){... */\n  pop\n    /* \"contracts/study-case-contracts/002-orcid/Orcid.sol\":190:7148  contract Orcid {... */\n  jump(tag_34)\n    /* \"contracts/lib/eai/EAI.sol\":1588:1764  function createParty(string memory _name, address _walletAddress, bool _aware) internal pure returns(Party memory){... */\ntag_7:\n    /* \"contracts/lib/eai/EAI.sol\":1689:1701  Party memory */\n  tag_35\n  tag_36\n  jump\t// in\ntag_35:\n    /* \"contracts/lib/eai/EAI.sol\":1720:1756  Party(_name, _walletAddress, _aware) */\n  mload(0x40)\n  dup1\n  0x60\n  add\n  0x40\n  mstore\n  dup1\n    /* \"contracts/lib/eai/EAI.sol\":1726:1731  _name */\n  dup6\n    /* \"contracts/lib/eai/EAI.sol\":1720:1756  Party(_name, _walletAddress, _aware) */\n  dup2\n  mstore\n  0x20\n  add\n    /* \"contracts/lib/eai/EAI.sol\":1733:1747  _walletAddress */\n  dup5\n    /* \"contracts/lib/eai/EAI.sol\":1720:1756  Party(_name, _walletAddress, _aware) */\n  0xffffffffffffffffffffffffffffffffffffffff\n  and\n  dup2\n  mstore\n  0x20\n  add\n    /* \"contracts/lib/eai/EAI.sol\":1749:1755  _aware */\n  dup4\n    /* \"contracts/lib/eai/EAI.sol\":1720:1756  Party(_name, _walletAddress, _aware) */\n  iszero\n  iszero\n  dup2\n  mstore\n  pop\n    /* \"contracts/lib/eai/EAI.sol\":1713:1756  return Party(_name, _walletAddress, _aware) */\n  swap1\n  pop\n    /* \"contracts/lib/eai/EAI.sol\":1588:1764  function createParty(string memory _name, address _walletAddress, bool _aware) internal pure returns(Party memory){... */\n  swap4\n  swap3\n  pop\n  pop\n  pop\n  jump\t// out\n    /* \"contracts/lib/eai/EAI.sol\":2808:3028  function createWeekDaysInterval(... */\ntag_19:\n    /* \"contracts/lib/eai/EAI.sol\":2948:2971  WeekDaysInterval memory */\n  tag_38\n  tag_39\n  jump\t// in\ntag_38:\n    /* \"contracts/lib/eai/EAI.sol\":2924:2930  _start */\n  dup3\n    /* \"contracts/lib/eai/EAI.sol\":2932:2936  _end */\n  dup3\n    /* \"contracts/lib/eai/EAI.sol\":431:432  0 */\n  0x00\n    /* \"contracts/lib/eai/EAI.sol\":4953:4972  _startDay >= SUNDAY */\n  0xff\n  and\n    /* \"contracts/lib/eai/EAI.sol\":4953:4962  _startDay */\n  dup3\n    /* \"contracts/lib/eai/EAI.sol\":4953:4972  _startDay >= SUNDAY */\n  0xff\n  and\n  lt\n  iszero\n    /* \"contracts/lib/eai/EAI.sol\":4953:4997  _startDay >= SUNDAY && _startDay <= SATURDAY */\n  dup1\n  iszero\n  tag_41\n  jumpi\n  pop\n    /* \"contracts/lib/eai/EAI.sol\":619:620  6 */\n  0x06\n    /* \"contracts/lib/eai/EAI.sol\":4976:4997  _startDay <= SATURDAY */\n  0xff\n  and\n    /* \"contracts/lib/eai/EAI.sol\":4976:4985  _startDay */\n  dup3\n    /* \"contracts/lib/eai/EAI.sol\":4976:4997  _startDay <= SATURDAY */\n  0xff\n  and\n  gt\n  iszero\n    /* \"contracts/lib/eai/EAI.sol\":4953:4997  _startDay >= SUNDAY && _startDay <= SATURDAY */\ntag_41:\n    /* \"contracts/lib/eai/EAI.sol\":4944:5042  require( _startDay >= SUNDAY && _startDay <= SATURDAY, \"The _startDay not represents a valid day\") */\n  tag_42\n  jumpi\n  mload(0x40)\n  0x08c379a000000000000000000000000000000000000000000000000000000000\n  dup2\n  mstore\n  0x04\n  add\n  tag_43\n  swap1\n  tag_44\n  jump\t// in\ntag_43:\n  mload(0x40)\n  dup1\n  swap2\n  sub\n  swap1\n  revert\ntag_42:\n    /* \"contracts/lib/eai/EAI.sol\":431:432  0 */\n  0x00\n    /* \"contracts/lib/eai/EAI.sol\":5061:5078  _endDay >= SUNDAY */\n  0xff\n  and\n    /* \"contracts/lib/eai/EAI.sol\":5061:5068  _endDay */\n  dup2\n    /* \"contracts/lib/eai/EAI.sol\":5061:5078  _endDay >= SUNDAY */\n  0xff\n  and\n  lt\n  iszero\n    /* \"contracts/lib/eai/EAI.sol\":5061:5101  _endDay >= SUNDAY && _endDay <= SATURDAY */\n  dup1\n  iszero\n  tag_45\n  jumpi\n  pop\n    /* \"contracts/lib/eai/EAI.sol\":619:620  6 */\n  0x06\n    /* \"contracts/lib/eai/EAI.sol\":5082:5101  _endDay <= SATURDAY */\n  0xff\n  and\n    /* \"contracts/lib/eai/EAI.sol\":5082:5089  _endDay */\n  dup2\n    /* \"contracts/lib/eai/EAI.sol\":5082:5101  _endDay <= SATURDAY */\n  0xff\n  and\n  gt\n  iszero\n    /* \"contracts/lib/eai/EAI.sol\":5061:5101  _endDay >= SUNDAY && _endDay <= SATURDAY */\ntag_45:\n    /* \"contracts/lib/eai/EAI.sol\":5053:5145  require(_endDay >= SUNDAY && _endDay <= SATURDAY,  \"The _endDay not represents a valid day\") */\n  tag_46\n  jumpi\n  mload(0x40)\n  0x08c379a000000000000000000000000000000000000000000000000000000000\n  dup2\n  mstore\n  0x04\n  add\n  tag_47\n  swap1\n  tag_48\n  jump\t// in\ntag_47:\n  mload(0x40)\n  dup1\n  swap2\n  sub\n  swap1\n  revert\ntag_46:\n    /* \"contracts/lib/eai/EAI.sol\":2990:3020  WeekDaysInterval(_start, _end) */\n  mload(0x40)\n  dup1\n  0x40\n  add\n  0x40\n  mstore\n  dup1\n    /* \"contracts/lib/eai/EAI.sol\":3007:3013  _start */\n  dup7\n    /* \"contracts/lib/eai/EAI.sol\":2990:3020  WeekDaysInterval(_start, _end) */\n  0xff\n  and\n  dup2\n  mstore\n  0x20\n  add\n    /* \"contracts/lib/eai/EAI.sol\":3015:3019  _end */\n  dup6\n    /* \"contracts/lib/eai/EAI.sol\":2990:3020  WeekDaysInterval(_start, _end) */\n  0xff\n  and\n  dup2\n  mstore\n  pop\n    /* \"contracts/lib/eai/EAI.sol\":2983:3020  return WeekDaysInterval(_start, _end) */\n  swap3\n  pop\n    /* \"contracts/lib/eai/EAI.sol\":2808:3028  function createWeekDaysInterval(... */\n  pop\n  pop\n  swap3\n  swap2\n  pop\n  pop\n  jump\t// out\n    /* \"contracts/lib/eai/EAI.sol\":5722:5933  function createTimeInterval(... */\ntag_22:\n    /* \"contracts/lib/eai/EAI.sol\":5861:5880  TimeInterval memory */\n  tag_50\n  tag_51\n  jump\t// in\ntag_50:\n    /* \"contracts/lib/eai/EAI.sol\":5837:5843  _start */\n  dup3\n    /* \"contracts/lib/eai/EAI.sol\":5845:5849  _end */\n  dup3\n    /* \"contracts/lib/eai/EAI.sol\":990:991  0 */\n  0x00\n    /* \"contracts/lib/eai/EAI.sol\":7600:7620  _startHr >= MIN_HOUR */\n  0xffffffff\n  and\n    /* \"contracts/lib/eai/EAI.sol\":7600:7608  _startHr */\n  dup3\n    /* \"contracts/lib/eai/EAI.sol\":7600:7620  _startHr >= MIN_HOUR */\n  0xffffffff\n  and\n  lt\n  iszero\n    /* \"contracts/lib/eai/EAI.sol\":7600:7644  _startHr >= MIN_HOUR && _startHr <= MAX_HOUR */\n  dup1\n  iszero\n  tag_53\n  jumpi\n  pop\n    /* \"contracts/lib/eai/EAI.sol\":1024:1029  86399 */\n  0x01517f\n    /* \"contracts/lib/eai/EAI.sol\":7624:7644  _startHr <= MAX_HOUR */\n  0xffffffff\n  and\n    /* \"contracts/lib/eai/EAI.sol\":7624:7632  _startHr */\n  dup3\n    /* \"contracts/lib/eai/EAI.sol\":7624:7644  _startHr <= MAX_HOUR */\n  0xffffffff\n  and\n  gt\n  iszero\n    /* \"contracts/lib/eai/EAI.sol\":7600:7644  _startHr >= MIN_HOUR && _startHr <= MAX_HOUR */\ntag_53:\n    /* \"contracts/lib/eai/EAI.sol\":7591:7689  require( _startHr >= MIN_HOUR && _startHr <= MAX_HOUR, \"The _startDay not represents a valid day\") */\n  tag_54\n  jumpi\n  mload(0x40)\n  0x08c379a000000000000000000000000000000000000000000000000000000000\n  dup2\n  mstore\n  0x04\n  add\n  tag_55\n  swap1\n  tag_44\n  jump\t// in\ntag_55:\n  mload(0x40)\n  dup1\n  swap2\n  sub\n  swap1\n  revert\ntag_54:\n    /* \"contracts/lib/eai/EAI.sol\":990:991  0 */\n  0x00\n    /* \"contracts/lib/eai/EAI.sol\":7708:7726  _endHr >= MIN_HOUR */\n  0xffffffff\n  and\n    /* \"contracts/lib/eai/EAI.sol\":7708:7714  _endHr */\n  dup2\n    /* \"contracts/lib/eai/EAI.sol\":7708:7726  _endHr >= MIN_HOUR */\n  0xffffffff\n  and\n  lt\n  iszero\n    /* \"contracts/lib/eai/EAI.sol\":7708:7748  _endHr >= MIN_HOUR && _endHr <= MAX_HOUR */\n  dup1\n  iszero\n  tag_56\n  jumpi\n  pop\n    /* \"contracts/lib/eai/EAI.sol\":1024:1029  86399 */\n  0x01517f\n    /* \"contracts/lib/eai/EAI.sol\":7730:7748  _endHr <= MAX_HOUR */\n  0xffffffff\n  and\n    /* \"contracts/lib/eai/EAI.sol\":7730:7736  _endHr */\n  dup2\n    /* \"contracts/lib/eai/EAI.sol\":7730:7748  _endHr <= MAX_HOUR */\n  0xffffffff\n  and\n  gt\n  iszero\n    /* \"contracts/lib/eai/EAI.sol\":7708:7748  _endHr >= MIN_HOUR && _endHr <= MAX_HOUR */\ntag_56:\n    /* \"contracts/lib/eai/EAI.sol\":7700:7792  require(_endHr >= MIN_HOUR && _endHr <= MAX_HOUR,  \"The _endDay not represents a valid day\") */\n  tag_57\n  jumpi\n  mload(0x40)\n  0x08c379a000000000000000000000000000000000000000000000000000000000\n  dup2\n  mstore\n  0x04\n  add\n  tag_58\n  swap1\n  tag_48\n  jump\t// in\ntag_58:\n  mload(0x40)\n  dup1\n  swap2\n  sub\n  swap1\n  revert\ntag_57:\n    /* \"contracts/lib/eai/EAI.sol\":5899:5925  TimeInterval(_start, _end) */\n  mload(0x40)\n  dup1\n  0x40\n  add\n  0x40\n  mstore\n  dup1\n    /* \"contracts/lib/eai/EAI.sol\":5912:5918  _start */\n  dup7\n    /* \"contracts/lib/eai/EAI.sol\":5899:5925  TimeInterval(_start, _end) */\n  0xffffffff\n  and\n  dup2\n  mstore\n  0x20\n  add\n    /* \"contracts/lib/eai/EAI.sol\":5920:5924  _end */\n  dup6\n    /* \"contracts/lib/eai/EAI.sol\":5899:5925  TimeInterval(_start, _end) */\n  0xffffffff\n  and\n  dup2\n  mstore\n  pop\n    /* \"contracts/lib/eai/EAI.sol\":5892:5925  return TimeInterval(_start, _end) */\n  swap3\n  pop\n    /* \"contracts/lib/eai/EAI.sol\":5722:5933  function createTimeInterval(... */\n  pop\n  pop\n  swap3\n  swap2\n  pop\n  pop\n  jump\t// out\n    /* \"contracts/lib/eai/EAI.sol\":10916:11547  function createMaxNumberOfOperationByTime(... */\ntag_25:\n    /* \"contracts/lib/eai/EAI.sol\":11041:11074  MaxNumberOfOperationByTime memory */\n  tag_60\n  tag_61\n  jump\t// in\ntag_60:\n    /* \"contracts/lib/eai/EAI.sol\":11088:11104  uint32 auxByTime */\n  0x00\n    /* \"contracts/lib/eai/EAI.sol\":784:785  4 */\n  0x04\n    /* \"contracts/lib/eai/EAI.sol\":11120:11137  _timeUnit <= WEEK */\n  0xff\n  and\n    /* \"contracts/lib/eai/EAI.sol\":11120:11129  _timeUnit */\n  dup4\n    /* \"contracts/lib/eai/EAI.sol\":11120:11137  _timeUnit <= WEEK */\n  0xff\n  and\n  gt\n    /* \"contracts/lib/eai/EAI.sol\":11117:11453  if(_timeUnit <= WEEK){... */\n  tag_63\n  jumpi\n    /* \"contracts/lib/eai/EAI.sol\":11270:11297  getTimeInSeconds(_timeUnit) */\n  tag_64\n    /* \"contracts/lib/eai/EAI.sol\":11287:11296  _timeUnit */\n  dup4\n    /* \"contracts/lib/eai/EAI.sol\":11270:11286  getTimeInSeconds */\n  shl(0x20, tag_65)\n    /* \"contracts/lib/eai/EAI.sol\":11270:11297  getTimeInSeconds(_timeUnit) */\n  0x20\n  shr\n  jump\t// in\ntag_64:\n    /* \"contracts/lib/eai/EAI.sol\":11259:11297  auxByTime= getTimeInSeconds(_timeUnit) */\n  swap1\n  pop\n    /* \"contracts/lib/eai/EAI.sol\":11117:11453  if(_timeUnit <= WEEK){... */\n  jump(tag_66)\ntag_63:\n    /* \"contracts/lib/eai/EAI.sol\":11439:11440  1 */\n  0x01\n    /* \"contracts/lib/eai/EAI.sol\":11427:11440  auxByTime = 1 */\n  swap1\n  pop\n    /* \"contracts/lib/eai/EAI.sol\":11117:11453  if(_timeUnit <= WEEK){... */\ntag_66:\n    /* \"contracts/lib/eai/EAI.sol\":11470:11539  MaxNumberOfOperationByTime(_amount, _timeUnit, auxByTime, _amount, 0) */\n  mload(0x40)\n  dup1\n  0xa0\n  add\n  0x40\n  mstore\n  dup1\n    /* \"contracts/lib/eai/EAI.sol\":11497:11504  _amount */\n  dup6\n    /* \"contracts/lib/eai/EAI.sol\":11470:11539  MaxNumberOfOperationByTime(_amount, _timeUnit, auxByTime, _amount, 0) */\n  0xffffffff\n  and\n  dup2\n  mstore\n  0x20\n  add\n    /* \"contracts/lib/eai/EAI.sol\":11506:11515  _timeUnit */\n  dup5\n    /* \"contracts/lib/eai/EAI.sol\":11470:11539  MaxNumberOfOperationByTime(_amount, _timeUnit, auxByTime, _amount, 0) */\n  0xff\n  and\n  dup2\n  mstore\n  0x20\n  add\n    /* \"contracts/lib/eai/EAI.sol\":11517:11526  auxByTime */\n  dup3\n    /* \"contracts/lib/eai/EAI.sol\":11470:11539  MaxNumberOfOperationByTime(_amount, _timeUnit, auxByTime, _amount, 0) */\n  0xffffffff\n  and\n  dup2\n  mstore\n  0x20\n  add\n    /* \"contracts/lib/eai/EAI.sol\":11528:11535  _amount */\n  dup6\n    /* \"contracts/lib/eai/EAI.sol\":11470:11539  MaxNumberOfOperationByTime(_amount, _timeUnit, auxByTime, _amount, 0) */\n  0xffffffff\n  and\n  dup2\n  mstore\n  0x20\n  add\n    /* \"contracts/lib/eai/EAI.sol\":11537:11538  0 */\n  0x00\n    /* \"contracts/lib/eai/EAI.sol\":11470:11539  MaxNumberOfOperationByTime(_amount, _timeUnit, auxByTime, _amount, 0) */\n  0xffffffff\n  and\n  dup2\n  mstore\n  pop\n    /* \"contracts/lib/eai/EAI.sol\":11463:11539  return MaxNumberOfOperationByTime(_amount, _timeUnit, auxByTime, _amount, 0) */\n  swap2\n  pop\n  pop\n    /* \"contracts/lib/eai/EAI.sol\":10916:11547  function createMaxNumberOfOperationByTime(... */\n  swap3\n  swap2\n  pop\n  pop\n  jump\t// out\n    /* \"contracts/lib/eai/EAI.sol\":8332:8469  function createTimeout(uint32 _timeIncrement) internal pure returns (Timeout memory ){... */\ntag_28:\n    /* \"contracts/lib/eai/EAI.sol\":8401:8415  Timeout memory */\n  tag_67\n  tag_68\n  jump\t// in\ntag_67:\n    /* \"contracts/lib/eai/EAI.sol\":8435:8461  Timeout(0, _timeIncrement) */\n  mload(0x40)\n  dup1\n  0x40\n  add\n  0x40\n  mstore\n  dup1\n    /* \"contracts/lib/eai/EAI.sol\":8443:8444  0 */\n  0x00\n    /* \"contracts/lib/eai/EAI.sol\":8435:8461  Timeout(0, _timeIncrement) */\n  0xffffffff\n  and\n  dup2\n  mstore\n  0x20\n  add\n    /* \"contracts/lib/eai/EAI.sol\":8446:8460  _timeIncrement */\n  dup4\n    /* \"contracts/lib/eai/EAI.sol\":8435:8461  Timeout(0, _timeIncrement) */\n  0xffffffff\n  and\n  dup2\n  mstore\n  pop\n    /* \"contracts/lib/eai/EAI.sol\":8428:8461  return Timeout(0, _timeIncrement) */\n  swap1\n  pop\n    /* \"contracts/lib/eai/EAI.sol\":8332:8469  function createTimeout(uint32 _timeIncrement) internal pure returns (Timeout memory ){... */\n  swap2\n  swap1\n  pop\n  jump\t// out\n    /* \"contracts/lib/eai/EAI.sol\":13453:13627  function createMessageContent_onlyXPath(string memory _xpath) internal pure returns(MessageContent_onlyXPath memory){... */\ntag_31:\n    /* \"contracts/lib/eai/EAI.sol\":13537:13568  MessageContent_onlyXPath memory */\n  tag_70\n  tag_71\n  jump\t// in\ntag_70:\n    /* \"contracts/lib/eai/EAI.sol\":13587:13619  MessageContent_onlyXPath(_xpath) */\n  mload(0x40)\n  dup1\n  0x20\n  add\n  0x40\n  mstore\n  dup1\n    /* \"contracts/lib/eai/EAI.sol\":13612:13618  _xpath */\n  dup4\n    /* \"contracts/lib/eai/EAI.sol\":13587:13619  MessageContent_onlyXPath(_xpath) */\n  dup2\n  mstore\n  pop\n    /* \"contracts/lib/eai/EAI.sol\":13580:13619  return MessageContent_onlyXPath(_xpath) */\n  swap1\n  pop\n    /* \"contracts/lib/eai/EAI.sol\":13453:13627  function createMessageContent_onlyXPath(string memory _xpath) internal pure returns(MessageContent_onlyXPath memory){... */\n  swap2\n  swap1\n  pop\n  jump\t// out\n    /* \"contracts/lib/eai/EAI.sol\":25379:25928  function getTimeInSeconds(uint8 timeUnit) private pure returns(uint32){... */\ntag_65:\n    /* \"contracts/lib/eai/EAI.sol\":25442:25448  uint32 */\n  0x00\n    /* \"contracts/lib/eai/EAI.sol\":784:785  4 */\n  0x04\n    /* \"contracts/lib/eai/EAI.sol\":25522:25538  timeUnit <= WEEK */\n  0xff\n  and\n    /* \"contracts/lib/eai/EAI.sol\":25522:25530  timeUnit */\n  dup3\n    /* \"contracts/lib/eai/EAI.sol\":25522:25538  timeUnit <= WEEK */\n  0xff\n  and\n  gt\n  iszero\n    /* \"contracts/lib/eai/EAI.sol\":25514:25602  require(timeUnit <= WEEK, \"The method getTimeInSeconds doesn't work for MONTH and YEAR\") */\n  tag_74\n  jumpi\n  mload(0x40)\n  0x08c379a000000000000000000000000000000000000000000000000000000000\n  dup2\n  mstore\n  0x04\n  add\n  tag_75\n  swap1\n  tag_76\n  jump\t// in\ntag_75:\n  mload(0x40)\n  dup1\n  swap2\n  sub\n  swap1\n  revert\ntag_74:\n    /* \"contracts/lib/eai/EAI.sol\":666:667  0 */\n  0x00\n    /* \"contracts/lib/eai/EAI.sol\":25618:25636  timeUnit == SECOND */\n  0xff\n  and\n    /* \"contracts/lib/eai/EAI.sol\":25618:25626  timeUnit */\n  dup3\n    /* \"contracts/lib/eai/EAI.sol\":25618:25636  timeUnit == SECOND */\n  0xff\n  and\n  sub\n    /* \"contracts/lib/eai/EAI.sol\":25615:25921  if(timeUnit == SECOND){... */\n  tag_77\n  jumpi\n    /* \"contracts/lib/eai/EAI.sol\":25659:25660  1 */\n  0x01\n    /* \"contracts/lib/eai/EAI.sol\":25652:25660  return 1 */\n  swap1\n  pop\n  jump(tag_73)\n    /* \"contracts/lib/eai/EAI.sol\":25615:25921  if(timeUnit == SECOND){... */\ntag_77:\n    /* \"contracts/lib/eai/EAI.sol\":698:699  1 */\n  0x01\n    /* \"contracts/lib/eai/EAI.sol\":25680:25698  timeUnit == MINUTE */\n  0xff\n  and\n    /* \"contracts/lib/eai/EAI.sol\":25680:25688  timeUnit */\n  dup3\n    /* \"contracts/lib/eai/EAI.sol\":25680:25698  timeUnit == MINUTE */\n  0xff\n  and\n  sub\n    /* \"contracts/lib/eai/EAI.sol\":25677:25921  if(timeUnit == MINUTE){... */\n  tag_79\n  jumpi\n    /* \"contracts/lib/eai/EAI.sol\":25721:25723  60 */\n  0x3c\n    /* \"contracts/lib/eai/EAI.sol\":25714:25723  return 60 */\n  swap1\n  pop\n  jump(tag_73)\n    /* \"contracts/lib/eai/EAI.sol\":25677:25921  if(timeUnit == MINUTE){... */\ntag_79:\n    /* \"contracts/lib/eai/EAI.sol\":727:728  2 */\n  0x02\n    /* \"contracts/lib/eai/EAI.sol\":25743:25759  timeUnit == HOUR */\n  0xff\n  and\n    /* \"contracts/lib/eai/EAI.sol\":25743:25751  timeUnit */\n  dup3\n    /* \"contracts/lib/eai/EAI.sol\":25743:25759  timeUnit == HOUR */\n  0xff\n  and\n  sub\n    /* \"contracts/lib/eai/EAI.sol\":25740:25921  if(timeUnit == HOUR ){... */\n  tag_81\n  jumpi\n    /* \"contracts/lib/eai/EAI.sol\":25783:25788  60*60 */\n  0x0e10\n    /* \"contracts/lib/eai/EAI.sol\":25776:25788  return 60*60 */\n  swap1\n  pop\n  jump(tag_73)\n    /* \"contracts/lib/eai/EAI.sol\":25740:25921  if(timeUnit == HOUR ){... */\ntag_81:\n    /* \"contracts/lib/eai/EAI.sol\":755:756  3 */\n  0x03\n    /* \"contracts/lib/eai/EAI.sol\":25808:25823  timeUnit == DAY */\n  0xff\n  and\n    /* \"contracts/lib/eai/EAI.sol\":25808:25816  timeUnit */\n  dup3\n    /* \"contracts/lib/eai/EAI.sol\":25808:25823  timeUnit == DAY */\n  0xff\n  and\n  sub\n    /* \"contracts/lib/eai/EAI.sol\":25805:25921  if(timeUnit == DAY){... */\n  tag_83\n  jumpi\n    /* \"contracts/lib/eai/EAI.sol\":25846:25854  60*60*24 */\n  0x015180\n    /* \"contracts/lib/eai/EAI.sol\":25839:25854  return 60*60*24 */\n  swap1\n  pop\n  jump(tag_73)\n    /* \"contracts/lib/eai/EAI.sol\":25805:25921  if(timeUnit == DAY){... */\ntag_83:\n    /* \"contracts/lib/eai/EAI.sol\":25892:25902  60*60*24*7 */\n  0x093a80\n    /* \"contracts/lib/eai/EAI.sol\":25885:25902  return 60*60*24*7 */\n  swap1\n  pop\n    /* \"contracts/lib/eai/EAI.sol\":25379:25928  function getTimeInSeconds(uint8 timeUnit) private pure returns(uint32){... */\ntag_73:\n  swap2\n  swap1\n  pop\n  jump\t// out\n    /* \"contracts/study-case-contracts/002-orcid/Orcid.sol\":190:7148  contract Orcid {... */\ntag_9:\n  dup3\n  dup1\n  sload\n  tag_85\n  swap1\n  tag_13\n  jump\t// in\ntag_85:\n  swap1\n  0x00\n  mstore\n  keccak256(0x00, 0x20)\n  swap1\n  0x1f\n  add\n  0x20\n  swap1\n  div\n  dup2\n  add\n  swap3\n  dup3\n  tag_87\n  jumpi\n  0x00\n  dup6\n  sstore\n  jump(tag_86)\ntag_87:\n  dup3\n  0x1f\n  lt\n  tag_88\n  jumpi\n  dup1\n  mload\n  not(0xff)\n  and\n  dup4\n  dup1\n  add\n  or\n  dup6\n  sstore\n  jump(tag_86)\ntag_88:\n  dup3\n  dup1\n  add\n  0x01\n  add\n  dup6\n  sstore\n  dup3\n  iszero\n  tag_86\n  jumpi\n  swap2\n  dup3\n  add\ntag_89:\n  dup3\n  dup2\n  gt\n  iszero\n  tag_90\n  jumpi\n  dup3\n  mload\n  dup3\n  sstore\n  swap2\n  0x20\n  add\n  swap2\n  swap1\n  0x01\n  add\n  swap1\n  jump(tag_89)\ntag_90:\ntag_86:\n  pop\n  swap1\n  pop\n  tag_91\n  swap2\n  swap1\n  tag_92\n  jump\t// in\ntag_91:\n  pop\n  swap1\n  jump\t// out\ntag_15:\n  dup3\n  dup1\n  sload\n  tag_93\n  swap1\n  tag_13\n  jump\t// in\ntag_93:\n  swap1\n  0x00\n  mstore\n  keccak256(0x00, 0x20)\n  swap1\n  0x1f\n  add\n  0x20\n  swap1\n  div\n  dup2\n  add\n  swap3\n  dup3\n  tag_95\n  jumpi\n  0x00\n  dup6\n  sstore\n  jump(tag_94)\ntag_95:\n  dup3\n  0x1f\n  lt\n  tag_96\n  jumpi\n  dup1\n  sload\n  dup6\n  sstore\n  jump(tag_94)\ntag_96:\n  dup3\n  dup1\n  add\n  0x01\n  add\n  dup6\n  sstore\n  dup3\n  iszero\n  tag_94\n  jumpi\n  0x00\n  mstore\n  keccak256(0x00, 0x20)\n  swap2\n  0x1f\n  add\n  0x20\n  swap1\n  div\n  dup3\n  add\ntag_97:\n  dup3\n  dup2\n  gt\n  iszero\n  tag_98\n  jumpi\n  dup3\n  sload\n  dup3\n  sstore\n  swap2\n  0x01\n  add\n  swap2\n  swap1\n  0x01\n  add\n  swap1\n  jump(tag_97)\ntag_98:\ntag_94:\n  pop\n  swap1\n  pop\n  tag_99\n  swap2\n  swap1\n  tag_92\n  jump\t// in\ntag_99:\n  pop\n  swap1\n  jump\t// out\ntag_36:\n  mload(0x40)\n  dup1\n  0x60\n  add\n  0x40\n  mstore\n  dup1\n  0x60\n  dup2\n  mstore\n  0x20\n  add\n  and(0xffffffffffffffffffffffffffffffffffffffff, 0x00)\n  dup2\n  mstore\n  0x20\n  add\n  iszero(iszero(0x00))\n  dup2\n  mstore\n  pop\n  swap1\n  jump\t// out\ntag_39:\n  mload(0x40)\n  dup1\n  0x40\n  add\n  0x40\n  mstore\n  dup1\n  and(0xff, 0x00)\n  dup2\n  mstore\n  0x20\n  add\n  and(0xff, 0x00)\n  dup2\n  mstore\n  pop\n  swap1\n  jump\t// out\ntag_51:\n  mload(0x40)\n  dup1\n  0x40\n  add\n  0x40\n  mstore\n  dup1\n  and(0xffffffff, 0x00)\n  dup2\n  mstore\n  0x20\n  add\n  and(0xffffffff, 0x00)\n  dup2\n  mstore\n  pop\n  swap1\n  jump\t// out\ntag_61:\n  mload(0x40)\n  dup1\n  0xa0\n  add\n  0x40\n  mstore\n  dup1\n  and(0xffffffff, 0x00)\n  dup2\n  mstore\n  0x20\n  add\n  and(0xff, 0x00)\n  dup2\n  mstore\n  0x20\n  add\n  and(0xffffffff, 0x00)\n  dup2\n  mstore\n  0x20\n  add\n  and(0xffffffff, 0x00)\n  dup2\n  mstore\n  0x20\n  add\n  and(0xffffffff, 0x00)\n  dup2\n  mstore\n  pop\n  swap1\n  jump\t// out\ntag_68:\n  mload(0x40)\n  dup1\n  0x40\n  add\n  0x40\n  mstore\n  dup1\n  and(0xffffffff, 0x00)\n  dup2\n  mstore\n  0x20\n  add\n  and(0xffffffff, 0x00)\n  dup2\n  mstore\n  pop\n  swap1\n  jump\t// out\ntag_71:\n  mload(0x40)\n  dup1\n  0x20\n  add\n  0x40\n  mstore\n  dup1\n  0x60\n  dup2\n  mstore\n  pop\n  swap1\n  jump\t// out\ntag_92:\ntag_100:\n  dup1\n  dup3\n  gt\n  iszero\n  tag_101\n  jumpi\n  0x00\n  dup2\n  0x00\n  swap1\n  sstore\n  pop\n  0x01\n  add\n  jump(tag_100)\ntag_101:\n  pop\n  swap1\n  jump\t// out\n    /* \"#utility.yul\":88:205   */\ntag_103:\n    /* \"#utility.yul\":197:198   */\n  0x00\n    /* \"#utility.yul\":194:195   */\n  dup1\n    /* \"#utility.yul\":187:199   */\n  revert\n    /* \"#utility.yul\":334:460   */\ntag_105:\n    /* \"#utility.yul\":371:378   */\n  0x00\n    /* \"#utility.yul\":411:453   */\n  0xffffffffffffffffffffffffffffffffffffffff\n    /* \"#utility.yul\":404:409   */\n  dup3\n    /* \"#utility.yul\":400:454   */\n  and\n    /* \"#utility.yul\":389:454   */\n  swap1\n  pop\n    /* \"#utility.yul\":334:460   */\n  swap2\n  swap1\n  pop\n  jump\t// out\n    /* \"#utility.yul\":466:562   */\ntag_106:\n    /* \"#utility.yul\":503:510   */\n  0x00\n    /* \"#utility.yul\":532:556   */\n  tag_123\n    /* \"#utility.yul\":550:555   */\n  dup3\n    /* \"#utility.yul\":532:556   */\n  tag_105\n  jump\t// in\ntag_123:\n    /* \"#utility.yul\":521:556   */\n  swap1\n  pop\n    /* \"#utility.yul\":466:562   */\n  swap2\n  swap1\n  pop\n  jump\t// out\n    /* \"#utility.yul\":568:690   */\ntag_107:\n    /* \"#utility.yul\":641:665   */\n  tag_125\n    /* \"#utility.yul\":659:664   */\n  dup2\n    /* \"#utility.yul\":641:665   */\n  tag_106\n  jump\t// in\ntag_125:\n    /* \"#utility.yul\":634:639   */\n  dup2\n    /* \"#utility.yul\":631:666   */\n  eq\n    /* \"#utility.yul\":621:684   */\n  tag_126\n  jumpi\n    /* \"#utility.yul\":680:681   */\n  0x00\n    /* \"#utility.yul\":677:678   */\n  dup1\n    /* \"#utility.yul\":670:682   */\n  revert\n    /* \"#utility.yul\":621:684   */\ntag_126:\n    /* \"#utility.yul\":568:690   */\n  pop\n  jump\t// out\n    /* \"#utility.yul\":696:839   */\ntag_108:\n    /* \"#utility.yul\":753:758   */\n  0x00\n    /* \"#utility.yul\":784:790   */\n  dup2\n    /* \"#utility.yul\":778:791   */\n  mload\n    /* \"#utility.yul\":769:791   */\n  swap1\n  pop\n    /* \"#utility.yul\":800:833   */\n  tag_128\n    /* \"#utility.yul\":827:832   */\n  dup2\n    /* \"#utility.yul\":800:833   */\n  tag_107\n  jump\t// in\ntag_128:\n    /* \"#utility.yul\":696:839   */\n  swap3\n  swap2\n  pop\n  pop\n  jump\t// out\n    /* \"#utility.yul\":845:1196   */\ntag_3:\n    /* \"#utility.yul\":915:921   */\n  0x00\n    /* \"#utility.yul\":964:966   */\n  0x20\n    /* \"#utility.yul\":952:961   */\n  dup3\n    /* \"#utility.yul\":943:950   */\n  dup5\n    /* \"#utility.yul\":939:962   */\n  sub\n    /* \"#utility.yul\":935:967   */\n  slt\n    /* \"#utility.yul\":932:1051   */\n  iszero\n  tag_130\n  jumpi\n    /* \"#utility.yul\":970:1049   */\n  tag_131\n  tag_103\n  jump\t// in\ntag_131:\n    /* \"#utility.yul\":932:1051   */\ntag_130:\n    /* \"#utility.yul\":1090:1091   */\n  0x00\n    /* \"#utility.yul\":1115:1179   */\n  tag_132\n    /* \"#utility.yul\":1171:1178   */\n  dup5\n    /* \"#utility.yul\":1162:1168   */\n  dup3\n    /* \"#utility.yul\":1151:1160   */\n  dup6\n    /* \"#utility.yul\":1147:1169   */\n  add\n    /* \"#utility.yul\":1115:1179   */\n  tag_108\n  jump\t// in\ntag_132:\n    /* \"#utility.yul\":1105:1179   */\n  swap2\n  pop\n    /* \"#utility.yul\":1061:1189   */\n  pop\n    /* \"#utility.yul\":845:1196   */\n  swap3\n  swap2\n  pop\n  pop\n  jump\t// out\n    /* \"#utility.yul\":1202:1382   */\ntag_109:\n    /* \"#utility.yul\":1250:1327   */\n  0x4e487b7100000000000000000000000000000000000000000000000000000000\n    /* \"#utility.yul\":1247:1248   */\n  0x00\n    /* \"#utility.yul\":1240:1328   */\n  mstore\n    /* \"#utility.yul\":1347:1351   */\n  0x22\n    /* \"#utility.yul\":1344:1345   */\n  0x04\n    /* \"#utility.yul\":1337:1352   */\n  mstore\n    /* \"#utility.yul\":1371:1375   */\n  0x24\n    /* \"#utility.yul\":1368:1369   */\n  0x00\n    /* \"#utility.yul\":1361:1376   */\n  revert\n    /* \"#utility.yul\":1388:1708   */\ntag_13:\n    /* \"#utility.yul\":1432:1438   */\n  0x00\n    /* \"#utility.yul\":1469:1470   */\n  0x02\n    /* \"#utility.yul\":1463:1467   */\n  dup3\n    /* \"#utility.yul\":1459:1471   */\n  div\n    /* \"#utility.yul\":1449:1471   */\n  swap1\n  pop\n    /* \"#utility.yul\":1516:1517   */\n  0x01\n    /* \"#utility.yul\":1510:1514   */\n  dup3\n    /* \"#utility.yul\":1506:1518   */\n  and\n    /* \"#utility.yul\":1537:1555   */\n  dup1\n    /* \"#utility.yul\":1527:1608   */\n  tag_135\n  jumpi\n    /* \"#utility.yul\":1593:1597   */\n  0x7f\n    /* \"#utility.yul\":1585:1591   */\n  dup3\n    /* \"#utility.yul\":1581:1598   */\n  and\n    /* \"#utility.yul\":1571:1598   */\n  swap2\n  pop\n    /* \"#utility.yul\":1527:1608   */\ntag_135:\n    /* \"#utility.yul\":1655:1657   */\n  0x20\n    /* \"#utility.yul\":1647:1653   */\n  dup3\n    /* \"#utility.yul\":1644:1658   */\n  lt\n    /* \"#utility.yul\":1624:1642   */\n  dup2\n    /* \"#utility.yul\":1621:1659   */\n  sub\n    /* \"#utility.yul\":1618:1702   */\n  tag_136\n  jumpi\n    /* \"#utility.yul\":1674:1692   */\n  tag_137\n  tag_109\n  jump\t// in\ntag_137:\n    /* \"#utility.yul\":1618:1702   */\ntag_136:\n    /* \"#utility.yul\":1439:1708   */\n  pop\n    /* \"#utility.yul\":1388:1708   */\n  swap2\n  swap1\n  pop\n  jump\t// out\n    /* \"#utility.yul\":1714:1883   */\ntag_110:\n    /* \"#utility.yul\":1798:1809   */\n  0x00\n    /* \"#utility.yul\":1832:1838   */\n  dup3\n    /* \"#utility.yul\":1827:1830   */\n  dup3\n    /* \"#utility.yul\":1820:1839   */\n  mstore\n    /* \"#utility.yul\":1872:1876   */\n  0x20\n    /* \"#utility.yul\":1867:1870   */\n  dup3\n    /* \"#utility.yul\":1863:1877   */\n  add\n    /* \"#utility.yul\":1848:1877   */\n  swap1\n  pop\n    /* \"#utility.yul\":1714:1883   */\n  swap3\n  swap2\n  pop\n  pop\n  jump\t// out\n    /* \"#utility.yul\":1889:2116   */\ntag_111:\n    /* \"#utility.yul\":2029:2063   */\n  0x546865205f7374617274446179206e6f7420726570726573656e747320612076\n    /* \"#utility.yul\":2025:2026   */\n  0x00\n    /* \"#utility.yul\":2017:2023   */\n  dup3\n    /* \"#utility.yul\":2013:2027   */\n  add\n    /* \"#utility.yul\":2006:2064   */\n  mstore\n    /* \"#utility.yul\":2098:2108   */\n  0x616c696420646179000000000000000000000000000000000000000000000000\n    /* \"#utility.yul\":2093:2095   */\n  0x20\n    /* \"#utility.yul\":2085:2091   */\n  dup3\n    /* \"#utility.yul\":2081:2096   */\n  add\n    /* \"#utility.yul\":2074:2109   */\n  mstore\n    /* \"#utility.yul\":1889:2116   */\n  pop\n  jump\t// out\n    /* \"#utility.yul\":2122:2488   */\ntag_112:\n    /* \"#utility.yul\":2264:2267   */\n  0x00\n    /* \"#utility.yul\":2285:2352   */\n  tag_141\n    /* \"#utility.yul\":2349:2351   */\n  0x28\n    /* \"#utility.yul\":2344:2347   */\n  dup4\n    /* \"#utility.yul\":2285:2352   */\n  tag_110\n  jump\t// in\ntag_141:\n    /* \"#utility.yul\":2278:2352   */\n  swap2\n  pop\n    /* \"#utility.yul\":2361:2454   */\n  tag_142\n    /* \"#utility.yul\":2450:2453   */\n  dup3\n    /* \"#utility.yul\":2361:2454   */\n  tag_111\n  jump\t// in\ntag_142:\n    /* \"#utility.yul\":2479:2481   */\n  0x40\n    /* \"#utility.yul\":2474:2477   */\n  dup3\n    /* \"#utility.yul\":2470:2482   */\n  add\n    /* \"#utility.yul\":2463:2482   */\n  swap1\n  pop\n    /* \"#utility.yul\":2122:2488   */\n  swap2\n  swap1\n  pop\n  jump\t// out\n    /* \"#utility.yul\":2494:2913   */\ntag_44:\n    /* \"#utility.yul\":2660:2664   */\n  0x00\n    /* \"#utility.yul\":2698:2700   */\n  0x20\n    /* \"#utility.yul\":2687:2696   */\n  dup3\n    /* \"#utility.yul\":2683:2701   */\n  add\n    /* \"#utility.yul\":2675:2701   */\n  swap1\n  pop\n    /* \"#utility.yul\":2747:2756   */\n  dup2\n    /* \"#utility.yul\":2741:2745   */\n  dup2\n    /* \"#utility.yul\":2737:2757   */\n  sub\n    /* \"#utility.yul\":2733:2734   */\n  0x00\n    /* \"#utility.yul\":2722:2731   */\n  dup4\n    /* \"#utility.yul\":2718:2735   */\n  add\n    /* \"#utility.yul\":2711:2758   */\n  mstore\n    /* \"#utility.yul\":2775:2906   */\n  tag_144\n    /* \"#utility.yul\":2901:2905   */\n  dup2\n    /* \"#utility.yul\":2775:2906   */\n  tag_112\n  jump\t// in\ntag_144:\n    /* \"#utility.yul\":2767:2906   */\n  swap1\n  pop\n    /* \"#utility.yul\":2494:2913   */\n  swap2\n  swap1\n  pop\n  jump\t// out\n    /* \"#utility.yul\":2919:3144   */\ntag_113:\n    /* \"#utility.yul\":3059:3093   */\n  0x546865205f656e64446179206e6f7420726570726573656e747320612076616c\n    /* \"#utility.yul\":3055:3056   */\n  0x00\n    /* \"#utility.yul\":3047:3053   */\n  dup3\n    /* \"#utility.yul\":3043:3057   */\n  add\n    /* \"#utility.yul\":3036:3094   */\n  mstore\n    /* \"#utility.yul\":3128:3136   */\n  0x6964206461790000000000000000000000000000000000000000000000000000\n    /* \"#utility.yul\":3123:3125   */\n  0x20\n    /* \"#utility.yul\":3115:3121   */\n  dup3\n    /* \"#utility.yul\":3111:3126   */\n  add\n    /* \"#utility.yul\":3104:3137   */\n  mstore\n    /* \"#utility.yul\":2919:3144   */\n  pop\n  jump\t// out\n    /* \"#utility.yul\":3150:3516   */\ntag_114:\n    /* \"#utility.yul\":3292:3295   */\n  0x00\n    /* \"#utility.yul\":3313:3380   */\n  tag_147\n    /* \"#utility.yul\":3377:3379   */\n  0x26\n    /* \"#utility.yul\":3372:3375   */\n  dup4\n    /* \"#utility.yul\":3313:3380   */\n  tag_110\n  jump\t// in\ntag_147:\n    /* \"#utility.yul\":3306:3380   */\n  swap2\n  pop\n    /* \"#utility.yul\":3389:3482   */\n  tag_148\n    /* \"#utility.yul\":3478:3481   */\n  dup3\n    /* \"#utility.yul\":3389:3482   */\n  tag_113\n  jump\t// in\ntag_148:\n    /* \"#utility.yul\":3507:3509   */\n  0x40\n    /* \"#utility.yul\":3502:3505   */\n  dup3\n    /* \"#utility.yul\":3498:3510   */\n  add\n    /* \"#utility.yul\":3491:3510   */\n  swap1\n  pop\n    /* \"#utility.yul\":3150:3516   */\n  swap2\n  swap1\n  pop\n  jump\t// out\n    /* \"#utility.yul\":3522:3941   */\ntag_48:\n    /* \"#utility.yul\":3688:3692   */\n  0x00\n    /* \"#utility.yul\":3726:3728   */\n  0x20\n    /* \"#utility.yul\":3715:3724   */\n  dup3\n    /* \"#utility.yul\":3711:3729   */\n  add\n    /* \"#utility.yul\":3703:3729   */\n  swap1\n  pop\n    /* \"#utility.yul\":3775:3784   */\n  dup2\n    /* \"#utility.yul\":3769:3773   */\n  dup2\n    /* \"#utility.yul\":3765:3785   */\n  sub\n    /* \"#utility.yul\":3761:3762   */\n  0x00\n    /* \"#utility.yul\":3750:3759   */\n  dup4\n    /* \"#utility.yul\":3746:3763   */\n  add\n    /* \"#utility.yul\":3739:3786   */\n  mstore\n    /* \"#utility.yul\":3803:3934   */\n  tag_150\n    /* \"#utility.yul\":3929:3933   */\n  dup2\n    /* \"#utility.yul\":3803:3934   */\n  tag_114\n  jump\t// in\ntag_150:\n    /* \"#utility.yul\":3795:3934   */\n  swap1\n  pop\n    /* \"#utility.yul\":3522:3941   */\n  swap2\n  swap1\n  pop\n  jump\t// out\n    /* \"#utility.yul\":3947:4193   */\ntag_115:\n    /* \"#utility.yul\":4087:4121   */\n  0x546865206d6574686f642067657454696d65496e5365636f6e647320646f6573\n    /* \"#utility.yul\":4083:4084   */\n  0x00\n    /* \"#utility.yul\":4075:4081   */\n  dup3\n    /* \"#utility.yul\":4071:4085   */\n  add\n    /* \"#utility.yul\":4064:4122   */\n  mstore\n    /* \"#utility.yul\":4156:4185   */\n  0x6e277420776f726b20666f72204d4f4e544820616e6420594541520000000000\n    /* \"#utility.yul\":4151:4153   */\n  0x20\n    /* \"#utility.yul\":4143:4149   */\n  dup3\n    /* \"#utility.yul\":4139:4154   */\n  add\n    /* \"#utility.yul\":4132:4186   */\n  mstore\n    /* \"#utility.yul\":3947:4193   */\n  pop\n  jump\t// out\n    /* \"#utility.yul\":4199:4565   */\ntag_116:\n    /* \"#utility.yul\":4341:4344   */\n  0x00\n    /* \"#utility.yul\":4362:4429   */\n  tag_153\n    /* \"#utility.yul\":4426:4428   */\n  0x3b\n    /* \"#utility.yul\":4421:4424   */\n  dup4\n    /* \"#utility.yul\":4362:4429   */\n  tag_110\n  jump\t// in\ntag_153:\n    /* \"#utility.yul\":4355:4429   */\n  swap2\n  pop\n    /* \"#utility.yul\":4438:4531   */\n  tag_154\n    /* \"#utility.yul\":4527:4530   */\n  dup3\n    /* \"#utility.yul\":4438:4531   */\n  tag_115\n  jump\t// in\ntag_154:\n    /* \"#utility.yul\":4556:4558   */\n  0x40\n    /* \"#utility.yul\":4551:4554   */\n  dup3\n    /* \"#utility.yul\":4547:4559   */\n  add\n    /* \"#utility.yul\":4540:4559   */\n  swap1\n  pop\n    /* \"#utility.yul\":4199:4565   */\n  swap2\n  swap1\n  pop\n  jump\t// out\n    /* \"#utility.yul\":4571:4990   */\ntag_76:\n    /* \"#utility.yul\":4737:4741   */\n  0x00\n    /* \"#utility.yul\":4775:4777   */\n  0x20\n    /* \"#utility.yul\":4764:4773   */\n  dup3\n    /* \"#utility.yul\":4760:4778   */\n  add\n    /* \"#utility.yul\":4752:4778   */\n  swap1\n  pop\n    /* \"#utility.yul\":4824:4833   */\n  dup2\n    /* \"#utility.yul\":4818:4822   */\n  dup2\n    /* \"#utility.yul\":4814:4834   */\n  sub\n    /* \"#utility.yul\":4810:4811   */\n  0x00\n    /* \"#utility.yul\":4799:4808   */\n  dup4\n    /* \"#utility.yul\":4795:4812   */\n  add\n    /* \"#utility.yul\":4788:4835   */\n  mstore\n    /* \"#utility.yul\":4852:4983   */\n  tag_156\n    /* \"#utility.yul\":4978:4982   */\n  dup2\n    /* \"#utility.yul\":4852:4983   */\n  tag_116\n  jump\t// in\ntag_156:\n    /* \"#utility.yul\":4844:4983   */\n  swap1\n  pop\n    /* \"#utility.yul\":4571:4990   */\n  swap2\n  swap1\n  pop\n  jump\t// out\n    /* \"contracts/study-case-contracts/002-orcid/Orcid.sol\":190:7148  contract Orcid {... */\ntag_34:\n  dataSize(sub_0)\n  dup1\n  dataOffset(sub_0)\n  0x00\n  codecopy\n  0x00\n  return\nstop\ndata_fcb1aa9975f6d8f3fae14b5398f45c22fe6c7e61400b0ac0a2d00c3174df729a 636f756e74282f2f626f64792f726571756573742f646f63756d656e7429203d3d20636f756e74282f2f626f64792f726573706f6e73652f646f63756d656e7429\n\nsub_0: assembly {\n        /* \"contracts/study-case-contracts/002-orcid/Orcid.sol\":190:7148  contract Orcid {... */\n      mstore(0x40, 0x80)\n      callvalue\n      dup1\n      iszero\n      tag_1\n      jumpi\n      0x00\n      dup1\n      revert\n    tag_1:\n      pop\n      jumpi(tag_2, lt(calldatasize, 0x04))\n      shr(0xe0, calldataload(0x00))\n      dup1\n      0x85931911\n      gt\n      tag_10\n      jumpi\n      dup1\n      0x85931911\n      eq\n      tag_6\n      jumpi\n      dup1\n      0x9c764223\n      eq\n      tag_7\n      jumpi\n      dup1\n      0xb8b4f1a0\n      eq\n      tag_8\n      jumpi\n      dup1\n      0xfb6f8243\n      eq\n      tag_9\n      jumpi\n      jump(tag_2)\n    tag_10:\n      dup1\n      0x22d53d53\n      eq\n      tag_3\n      jumpi\n      dup1\n      0x5e744c6a\n      eq\n      tag_4\n      jumpi\n      dup1\n      0x70d8915a\n      eq\n      tag_5\n      jumpi\n    tag_2:\n      0x00\n      dup1\n      revert\n        /* \"contracts/study-case-contracts/002-orcid/Orcid.sol\":3948:4462  function obligation_responseWorks(uint32 _accessDateTime, bool[] memory _resultFromXpath)public onlyApplication() returns(bool){... */\n    tag_3:\n      tag_11\n      0x04\n      dup1\n      calldatasize\n      sub\n      dup2\n      add\n      swap1\n      tag_12\n      swap2\n      swap1\n      tag_13\n      jump\t// in\n    tag_12:\n      tag_14\n      jump\t// in\n    tag_11:\n      mload(0x40)\n      tag_15\n      swap2\n      swap1\n      tag_16\n      jump\t// in\n    tag_15:\n      mload(0x40)\n      dup1\n      swap2\n      sub\n      swap1\n      return\n        /* \"contracts/study-case-contracts/002-orcid/Orcid.sol\":5388:5819  function changeApplicationParty(string memory _name, address _walletAddress) public returns(bool) {       ... */\n    tag_4:\n      tag_17\n      0x04\n      dup1\n      calldatasize\n      sub\n      dup2\n      add\n      swap1\n      tag_18\n      swap2\n      swap1\n      tag_19\n      jump\t// in\n    tag_18:\n      tag_20\n      jump\t// in\n    tag_17:\n      mload(0x40)\n      tag_21\n      swap2\n      swap1\n      tag_16\n      jump\t// in\n    tag_21:\n      mload(0x40)\n      dup1\n      swap2\n      sub\n      swap1\n      return\n        /* \"contracts/study-case-contracts/002-orcid/Orcid.sol\":5967:6099  function getApplicationAddress() public view onlyInvolvedParties returns(address){... */\n    tag_5:\n      tag_22\n      tag_23\n      jump\t// in\n    tag_22:\n      mload(0x40)\n      tag_24\n      swap2\n      swap1\n      tag_25\n      jump\t// in\n    tag_24:\n      mload(0x40)\n      dup1\n      swap2\n      sub\n      swap1\n      return\n        /* \"contracts/study-case-contracts/002-orcid/Orcid.sol\":5831:5955  function getProcessAddress() public view onlyInvolvedParties returns(address){... */\n    tag_6:\n      tag_26\n      tag_27\n      jump\t// in\n    tag_26:\n      mload(0x40)\n      tag_28\n      swap2\n      swap1\n      tag_25\n      jump\t// in\n    tag_28:\n      mload(0x40)\n      dup1\n      swap2\n      sub\n      swap1\n      return\n        /* \"contracts/study-case-contracts/002-orcid/Orcid.sol\":3281:3940  function right_requestAllWorks(uint8 _weekDay, uint32 _accessTime, uint32 _accessDateTime)public onlyProcess() returns(bool){... */\n    tag_7:\n      tag_29\n      0x04\n      dup1\n      calldatasize\n      sub\n      dup2\n      add\n      swap1\n      tag_30\n      swap2\n      swap1\n      tag_31\n      jump\t// in\n    tag_30:\n      tag_32\n      jump\t// in\n    tag_29:\n      mload(0x40)\n      tag_33\n      swap2\n      swap1\n      tag_16\n      jump\t// in\n    tag_33:\n      mload(0x40)\n      dup1\n      swap2\n      sub\n      swap1\n      return\n        /* \"contracts/study-case-contracts/002-orcid/Orcid.sol\":4788:5050  function signContract() public onlyApplication() returns(bool) {... */\n    tag_8:\n      tag_34\n      tag_35\n      jump\t// in\n    tag_34:\n      mload(0x40)\n      tag_36\n      swap2\n      swap1\n      tag_16\n      jump\t// in\n    tag_36:\n      mload(0x40)\n      dup1\n      swap2\n      sub\n      swap1\n      return\n        /* \"contracts/study-case-contracts/002-orcid/Orcid.sol\":6107:6256  function getParty(address _walletAddress) public view onlyInvolvedParties returns(EAI.Party memory){... */\n    tag_9:\n      tag_37\n      0x04\n      dup1\n      calldatasize\n      sub\n      dup2\n      add\n      swap1\n      tag_38\n      swap2\n      swap1\n      tag_39\n      jump\t// in\n    tag_38:\n      tag_40\n      jump\t// in\n    tag_37:\n      mload(0x40)\n      tag_41\n      swap2\n      swap1\n      tag_42\n      jump\t// in\n    tag_41:\n      mload(0x40)\n      dup1\n      swap2\n      sub\n      swap1\n      return\n        /* \"contracts/study-case-contracts/002-orcid/Orcid.sol\":3948:4462  function obligation_responseWorks(uint32 _accessDateTime, bool[] memory _resultFromXpath)public onlyApplication() returns(bool){... */\n    tag_14:\n        /* \"contracts/study-case-contracts/002-orcid/Orcid.sol\":4070:4074  bool */\n      0x00\n        /* \"contracts/study-case-contracts/002-orcid/Orcid.sol\":6416:6425  activated */\n      dup1\n      0x00\n      swap1\n      sload\n      swap1\n      0x0100\n      exp\n      swap1\n      div\n      0xff\n      and\n        /* \"contracts/study-case-contracts/002-orcid/Orcid.sol\":6408:6458  require(activated, \"This contract is deactivated\") */\n      tag_50\n      jumpi\n      mload(0x40)\n      0x08c379a000000000000000000000000000000000000000000000000000000000\n      dup2\n      mstore\n      0x04\n      add\n      tag_51\n      swap1\n      tag_52\n      jump\t// in\n    tag_51:\n      mload(0x40)\n      dup1\n      swap2\n      sub\n      swap1\n      revert\n    tag_50:\n        /* \"contracts/study-case-contracts/002-orcid/Orcid.sol\":6522:6532  msg.sender */\n      caller\n        /* \"contracts/study-case-contracts/002-orcid/Orcid.sol\":6493:6532  application.walletAddress == msg.sender */\n      0xffffffffffffffffffffffffffffffffffffffff\n      and\n        /* \"contracts/study-case-contracts/002-orcid/Orcid.sol\":6493:6504  application */\n      0x01\n        /* \"contracts/study-case-contracts/002-orcid/Orcid.sol\":6493:6518  application.walletAddress */\n      dup1\n      add\n      0x00\n      swap1\n      sload\n      swap1\n      0x0100\n      exp\n      swap1\n      div\n      0xffffffffffffffffffffffffffffffffffffffff\n      and\n        /* \"contracts/study-case-contracts/002-orcid/Orcid.sol\":6493:6532  application.walletAddress == msg.sender */\n      0xffffffffffffffffffffffffffffffffffffffff\n      and\n      eq\n        /* \"contracts/study-case-contracts/002-orcid/Orcid.sol\":6485:6584  require(application.walletAddress == msg.sender, \"Only the application can execute this operation\") */\n      tag_53\n      jumpi\n      mload(0x40)\n      0x08c379a000000000000000000000000000000000000000000000000000000000\n      dup2\n      mstore\n      0x04\n      add\n      tag_54\n      swap1\n      tag_55\n      jump\t// in\n    tag_54:\n      mload(0x40)\n      dup1\n      swap2\n      sub\n      swap1\n      revert\n    tag_53:\n        /* \"contracts/study-case-contracts/002-orcid/Orcid.sol\":4090:4135  timeout_C2[0].isTimeoutEnded(_accessDateTime) */\n      tag_57\n        /* \"contracts/study-case-contracts/002-orcid/Orcid.sol\":4119:4134  _accessDateTime */\n      dup4\n        /* \"contracts/study-case-contracts/002-orcid/Orcid.sol\":4090:4100  timeout_C2 */\n      0x09\n        /* \"contracts/study-case-contracts/002-orcid/Orcid.sol\":4101:4102  0 */\n      0x00\n        /* \"contracts/study-case-contracts/002-orcid/Orcid.sol\":4090:4103  timeout_C2[0] */\n      dup2\n      sload\n      dup2\n      lt\n      tag_58\n      jumpi\n      tag_59\n      tag_60\n      jump\t// in\n    tag_59:\n    tag_58:\n      swap1\n      0x00\n      mstore\n      keccak256(0x00, 0x20)\n      add\n        /* \"contracts/study-case-contracts/002-orcid/Orcid.sol\":4090:4118  timeout_C2[0].isTimeoutEnded */\n      mload(0x40)\n      dup1\n      0x40\n      add\n      0x40\n      mstore\n      swap1\n      dup2\n      0x00\n      dup3\n      add\n      0x00\n      swap1\n      sload\n      swap1\n      0x0100\n      exp\n      swap1\n      div\n      0xffffffff\n      and\n      0xffffffff\n      and\n      0xffffffff\n      and\n      dup2\n      mstore\n      0x20\n      add\n      0x00\n      dup3\n      add\n      0x04\n      swap1\n      sload\n      swap1\n      0x0100\n      exp\n      swap1\n      div\n      0xffffffff\n      and\n      0xffffffff\n      and\n      0xffffffff\n      and\n      dup2\n      mstore\n      pop\n      pop\n      tag_62\n      swap1\n        /* \"contracts/study-case-contracts/002-orcid/Orcid.sol\":4090:4135  timeout_C2[0].isTimeoutEnded(_accessDateTime) */\n      swap2\n      swap1\n      0xffffffff\n      and\n      jump\t// in\n    tag_57:\n        /* \"contracts/study-case-contracts/002-orcid/Orcid.sol\":4089:4135  !timeout_C2[0].isTimeoutEnded(_accessDateTime) */\n      iszero\n        /* \"contracts/study-case-contracts/002-orcid/Orcid.sol\":4089:4171  !timeout_C2[0].isTimeoutEnded(_accessDateTime) &&... */\n      dup1\n      iszero\n      tag_63\n      jumpi\n      pop\n        /* \"contracts/study-case-contracts/002-orcid/Orcid.sol\":4152:4168  _resultFromXpath */\n      dup2\n        /* \"contracts/study-case-contracts/002-orcid/Orcid.sol\":4169:4170  0 */\n      0x00\n        /* \"contracts/study-case-contracts/002-orcid/Orcid.sol\":4152:4171  _resultFromXpath[0] */\n      dup2\n      mload\n      dup2\n      lt\n      tag_64\n      jumpi\n      tag_65\n      tag_60\n      jump\t// in\n    tag_65:\n    tag_64:\n      0x20\n      mul\n      0x20\n      add\n      add\n      mload\n        /* \"contracts/study-case-contracts/002-orcid/Orcid.sol\":4089:4171  !timeout_C2[0].isTimeoutEnded(_accessDateTime) &&... */\n    tag_63:\n        /* \"contracts/study-case-contracts/002-orcid/Orcid.sol\":4086:4452  if(!timeout_C2[0].isTimeoutEnded(_accessDateTime) &&... */\n      iszero\n      tag_66\n      jumpi\n        /* \"contracts/study-case-contracts/002-orcid/Orcid.sol\":4197:4259  maxNumberOfOperationByTime_C1[0].decreaseOneOperation_ByTime() */\n      tag_67\n        /* \"contracts/study-case-contracts/002-orcid/Orcid.sol\":4197:4226  maxNumberOfOperationByTime_C1 */\n      0x08\n        /* \"contracts/study-case-contracts/002-orcid/Orcid.sol\":4227:4228  0 */\n      0x00\n        /* \"contracts/study-case-contracts/002-orcid/Orcid.sol\":4197:4229  maxNumberOfOperationByTime_C1[0] */\n      dup2\n      sload\n      dup2\n      lt\n      tag_68\n      jumpi\n      tag_69\n      tag_60\n      jump\t// in\n    tag_69:\n    tag_68:\n      swap1\n      0x00\n      mstore\n      keccak256(0x00, 0x20)\n      add\n        /* \"contracts/study-case-contracts/002-orcid/Orcid.sol\":4197:4257  maxNumberOfOperationByTime_C1[0].decreaseOneOperation_ByTime */\n      tag_71\n        /* \"contracts/study-case-contracts/002-orcid/Orcid.sol\":4197:4259  maxNumberOfOperationByTime_C1[0].decreaseOneOperation_ByTime() */\n      jump\t// in\n    tag_67:\n        /* \"contracts/study-case-contracts/002-orcid/Orcid.sol\":4279:4316  successEvent(\"Successful execution!\") */\n      0x95a1f3a1dafdd4c1af344e3d7c69a72cbce8a3f15fe1cf95a7f5bd23df2e71a1\n      mload(0x40)\n      tag_72\n      swap1\n      tag_73\n      jump\t// in\n    tag_72:\n      mload(0x40)\n      dup1\n      swap2\n      sub\n      swap1\n      log1\n        /* \"contracts/study-case-contracts/002-orcid/Orcid.sol\":4338:4342  true */\n      0x01\n        /* \"contracts/study-case-contracts/002-orcid/Orcid.sol\":4331:4342  return true */\n      swap1\n      pop\n      jump(tag_56)\n        /* \"contracts/study-case-contracts/002-orcid/Orcid.sol\":4086:4452  if(!timeout_C2[0].isTimeoutEnded(_accessDateTime) &&... */\n    tag_66:\n        /* \"contracts/study-case-contracts/002-orcid/Orcid.sol\":4378:4413  failEvent(\"Conditions do not meet\") */\n      0x66091b7dc2b097c8f60d5cd6aa99633b097f08d2eb1056f3e15361b22e0ea2ba\n      mload(0x40)\n      tag_75\n      swap1\n      tag_76\n      jump\t// in\n    tag_75:\n      mload(0x40)\n      dup1\n      swap2\n      sub\n      swap1\n      log1\n        /* \"contracts/study-case-contracts/002-orcid/Orcid.sol\":4435:4440  false */\n      0x00\n        /* \"contracts/study-case-contracts/002-orcid/Orcid.sol\":4428:4440  return false */\n      swap1\n      pop\n        /* \"contracts/study-case-contracts/002-orcid/Orcid.sol\":6599:6600  _ */\n    tag_56:\n        /* \"contracts/study-case-contracts/002-orcid/Orcid.sol\":3948:4462  function obligation_responseWorks(uint32 _accessDateTime, bool[] memory _resultFromXpath)public onlyApplication() returns(bool){... */\n      swap3\n      swap2\n      pop\n      pop\n      jump\t// out\n        /* \"contracts/study-case-contracts/002-orcid/Orcid.sol\":5388:5819  function changeApplicationParty(string memory _name, address _walletAddress) public returns(bool) {       ... */\n    tag_20:\n        /* \"contracts/study-case-contracts/002-orcid/Orcid.sol\":5480:5484  bool */\n      0x00\n        /* \"contracts/study-case-contracts/002-orcid/Orcid.sol\":5537:5547  msg.sender */\n      caller\n        /* \"contracts/study-case-contracts/002-orcid/Orcid.sol\":5512:5547  process.walletAddress == msg.sender */\n      0xffffffffffffffffffffffffffffffffffffffff\n      and\n        /* \"contracts/study-case-contracts/002-orcid/Orcid.sol\":5512:5519  process */\n      0x03\n        /* \"contracts/study-case-contracts/002-orcid/Orcid.sol\":5512:5533  process.walletAddress */\n      0x01\n      add\n      0x00\n      swap1\n      sload\n      swap1\n      0x0100\n      exp\n      swap1\n      div\n      0xffffffffffffffffffffffffffffffffffffffff\n      and\n        /* \"contracts/study-case-contracts/002-orcid/Orcid.sol\":5512:5547  process.walletAddress == msg.sender */\n      0xffffffffffffffffffffffffffffffffffffffff\n      and\n      eq\n        /* \"contracts/study-case-contracts/002-orcid/Orcid.sol\":5504:5595  require(process.walletAddress == msg.sender, \"Only the process can execute this operation\") */\n      tag_78\n      jumpi\n      mload(0x40)\n      0x08c379a000000000000000000000000000000000000000000000000000000000\n      dup2\n      mstore\n      0x04\n      add\n      tag_79\n      swap1\n      tag_80\n      jump\t// in\n    tag_79:\n      mload(0x40)\n      dup1\n      swap2\n      sub\n      swap1\n      revert\n    tag_78:\n        /* \"contracts/study-case-contracts/002-orcid/Orcid.sol\":5613:5621  mapParty */\n      0x05\n        /* \"contracts/study-case-contracts/002-orcid/Orcid.sol\":5613:5648  mapParty[application.walletAddress] */\n      0x00\n        /* \"contracts/study-case-contracts/002-orcid/Orcid.sol\":5622:5633  application */\n      0x01\n        /* \"contracts/study-case-contracts/002-orcid/Orcid.sol\":5622:5647  application.walletAddress */\n      dup1\n      add\n      0x00\n      swap1\n      sload\n      swap1\n      0x0100\n      exp\n      swap1\n      div\n      0xffffffffffffffffffffffffffffffffffffffff\n      and\n        /* \"contracts/study-case-contracts/002-orcid/Orcid.sol\":5613:5648  mapParty[application.walletAddress] */\n      0xffffffffffffffffffffffffffffffffffffffff\n      and\n      0xffffffffffffffffffffffffffffffffffffffff\n      and\n      dup2\n      mstore\n      0x20\n      add\n      swap1\n      dup2\n      mstore\n      0x20\n      add\n      0x00\n      keccak256\n      0x00\n        /* \"contracts/study-case-contracts/002-orcid/Orcid.sol\":5606:5648  delete mapParty[application.walletAddress] */\n      dup1\n      dup3\n      add\n      0x00\n      tag_81\n      swap2\n      swap1\n      tag_82\n      jump\t// in\n    tag_81:\n      0x01\n      dup3\n      add\n      exp(0x0100, 0x00)\n      dup2\n      sload\n      swap1\n      0xffffffffffffffffffffffffffffffffffffffff\n      mul\n      not\n      and\n      swap1\n      sstore\n      0x01\n      dup3\n      add\n      exp(0x0100, 0x14)\n      dup2\n      sload\n      swap1\n      0xff\n      mul\n      not\n      and\n      swap1\n      sstore\n      pop\n      pop\n        /* \"contracts/study-case-contracts/002-orcid/Orcid.sol\":5673:5718  EAI.createParty(_name, _walletAddress, false) */\n      tag_83\n        /* \"contracts/study-case-contracts/002-orcid/Orcid.sol\":5689:5694  _name */\n      dup4\n        /* \"contracts/study-case-contracts/002-orcid/Orcid.sol\":5696:5710  _walletAddress */\n      dup4\n        /* \"contracts/study-case-contracts/002-orcid/Orcid.sol\":5712:5717  false */\n      0x00\n        /* \"contracts/study-case-contracts/002-orcid/Orcid.sol\":5673:5688  EAI.createParty */\n      tag_43\n        /* \"contracts/study-case-contracts/002-orcid/Orcid.sol\":5673:5718  EAI.createParty(_name, _walletAddress, false) */\n      jump\t// in\n    tag_83:\n        /* \"contracts/study-case-contracts/002-orcid/Orcid.sol\":5659:5670  application */\n      0x01\n        /* \"contracts/study-case-contracts/002-orcid/Orcid.sol\":5659:5718  application = EAI.createParty(_name, _walletAddress, false) */\n      0x00\n      dup3\n      add\n      mload\n      dup2\n      0x00\n      add\n      swap1\n      dup1\n      mload\n      swap1\n      0x20\n      add\n      swap1\n      tag_84\n      swap3\n      swap2\n      swap1\n      tag_85\n      jump\t// in\n    tag_84:\n      pop\n      0x20\n      dup3\n      add\n      mload\n      dup2\n      0x01\n      add\n      exp(0x0100, 0x00)\n      dup2\n      sload\n      dup2\n      0xffffffffffffffffffffffffffffffffffffffff\n      mul\n      not\n      and\n      swap1\n      dup4\n      0xffffffffffffffffffffffffffffffffffffffff\n      and\n      mul\n      or\n      swap1\n      sstore\n      pop\n      0x40\n      dup3\n      add\n      mload\n      dup2\n      0x01\n      add\n      exp(0x0100, 0x14)\n      dup2\n      sload\n      dup2\n      0xff\n      mul\n      not\n      and\n      swap1\n      dup4\n      iszero\n      iszero\n      mul\n      or\n      swap1\n      sstore\n      pop\n      swap1\n      pop\n      pop\n        /* \"contracts/study-case-contracts/002-orcid/Orcid.sol\":5739:5782  updateMapParty(_walletAddress, application) */\n      tag_86\n        /* \"contracts/study-case-contracts/002-orcid/Orcid.sol\":5754:5768  _walletAddress */\n      dup3\n        /* \"contracts/study-case-contracts/002-orcid/Orcid.sol\":5770:5781  application */\n      0x01\n        /* \"contracts/study-case-contracts/002-orcid/Orcid.sol\":5739:5753  updateMapParty */\n      tag_87\n        /* \"contracts/study-case-contracts/002-orcid/Orcid.sol\":5739:5782  updateMapParty(_walletAddress, application) */\n      jump\t// in\n    tag_86:\n      pop\n        /* \"contracts/study-case-contracts/002-orcid/Orcid.sol\":5800:5804  true */\n      0x01\n        /* \"contracts/study-case-contracts/002-orcid/Orcid.sol\":5793:5804  return true */\n      swap1\n      pop\n        /* \"contracts/study-case-contracts/002-orcid/Orcid.sol\":5388:5819  function changeApplicationParty(string memory _name, address _walletAddress) public returns(bool) {       ... */\n      swap3\n      swap2\n      pop\n      pop\n      jump\t// out\n        /* \"contracts/study-case-contracts/002-orcid/Orcid.sol\":5967:6099  function getApplicationAddress() public view onlyInvolvedParties returns(address){... */\n    tag_23:\n        /* \"contracts/study-case-contracts/002-orcid/Orcid.sol\":6040:6047  address */\n      0x00\n        /* \"contracts/study-case-contracts/002-orcid/Orcid.sol\":6886:6895  activated */\n      dup1\n      0x00\n      swap1\n      sload\n      swap1\n      0x0100\n      exp\n      swap1\n      div\n      0xff\n      and\n        /* \"contracts/study-case-contracts/002-orcid/Orcid.sol\":6878:6928  require(activated, \"This contract is deactivated\") */\n      tag_89\n      jumpi\n      mload(0x40)\n      0x08c379a000000000000000000000000000000000000000000000000000000000\n      dup2\n      mstore\n      0x04\n      add\n      tag_90\n      swap1\n      tag_52\n      jump\t// in\n    tag_90:\n      mload(0x40)\n      dup1\n      swap2\n      sub\n      swap1\n      revert\n    tag_89:\n        /* \"contracts/study-case-contracts/002-orcid/Orcid.sol\":6991:7001  msg.sender */\n      caller\n        /* \"contracts/study-case-contracts/002-orcid/Orcid.sol\":6962:7001  application.walletAddress == msg.sender */\n      0xffffffffffffffffffffffffffffffffffffffff\n      and\n        /* \"contracts/study-case-contracts/002-orcid/Orcid.sol\":6962:6973  application */\n      0x01\n        /* \"contracts/study-case-contracts/002-orcid/Orcid.sol\":6962:6987  application.walletAddress */\n      dup1\n      add\n      0x00\n      swap1\n      sload\n      swap1\n      0x0100\n      exp\n      swap1\n      div\n      0xffffffffffffffffffffffffffffffffffffffff\n      and\n        /* \"contracts/study-case-contracts/002-orcid/Orcid.sol\":6962:7001  application.walletAddress == msg.sender */\n      0xffffffffffffffffffffffffffffffffffffffff\n      and\n      eq\n        /* \"contracts/study-case-contracts/002-orcid/Orcid.sol\":6962:7040  application.walletAddress == msg.sender || process.walletAddress == msg.sender */\n      dup1\n      tag_91\n      jumpi\n      pop\n        /* \"contracts/study-case-contracts/002-orcid/Orcid.sol\":7030:7040  msg.sender */\n      caller\n        /* \"contracts/study-case-contracts/002-orcid/Orcid.sol\":7005:7040  process.walletAddress == msg.sender */\n      0xffffffffffffffffffffffffffffffffffffffff\n      and\n        /* \"contracts/study-case-contracts/002-orcid/Orcid.sol\":7005:7012  process */\n      0x03\n        /* \"contracts/study-case-contracts/002-orcid/Orcid.sol\":7005:7026  process.walletAddress */\n      0x01\n      add\n      0x00\n      swap1\n      sload\n      swap1\n      0x0100\n      exp\n      swap1\n      div\n      0xffffffffffffffffffffffffffffffffffffffff\n      and\n        /* \"contracts/study-case-contracts/002-orcid/Orcid.sol\":7005:7040  process.walletAddress == msg.sender */\n      0xffffffffffffffffffffffffffffffffffffffff\n      and\n      eq\n        /* \"contracts/study-case-contracts/002-orcid/Orcid.sol\":6962:7040  application.walletAddress == msg.sender || process.walletAddress == msg.sender */\n    tag_91:\n        /* \"contracts/study-case-contracts/002-orcid/Orcid.sol\":6939:7123  require(... */\n      tag_92\n      jumpi\n      mload(0x40)\n      0x08c379a000000000000000000000000000000000000000000000000000000000\n      dup2\n      mstore\n      0x04\n      add\n      tag_93\n      swap1\n      tag_94\n      jump\t// in\n    tag_93:\n      mload(0x40)\n      dup1\n      swap2\n      sub\n      swap1\n      revert\n    tag_92:\n        /* \"contracts/study-case-contracts/002-orcid/Orcid.sol\":6066:6077  application */\n      0x01\n        /* \"contracts/study-case-contracts/002-orcid/Orcid.sol\":6066:6091  application.walletAddress */\n      dup1\n      add\n      0x00\n      swap1\n      sload\n      swap1\n      0x0100\n      exp\n      swap1\n      div\n      0xffffffffffffffffffffffffffffffffffffffff\n      and\n        /* \"contracts/study-case-contracts/002-orcid/Orcid.sol\":6059:6091  return application.walletAddress */\n      swap1\n      pop\n        /* \"contracts/study-case-contracts/002-orcid/Orcid.sol\":5967:6099  function getApplicationAddress() public view onlyInvolvedParties returns(address){... */\n      swap1\n      jump\t// out\n        /* \"contracts/study-case-contracts/002-orcid/Orcid.sol\":5831:5955  function getProcessAddress() public view onlyInvolvedParties returns(address){... */\n    tag_27:\n        /* \"contracts/study-case-contracts/002-orcid/Orcid.sol\":5900:5907  address */\n      0x00\n        /* \"contracts/study-case-contracts/002-orcid/Orcid.sol\":6886:6895  activated */\n      dup1\n      0x00\n      swap1\n      sload\n      swap1\n      0x0100\n      exp\n      swap1\n      div\n      0xff\n      and\n        /* \"contracts/study-case-contracts/002-orcid/Orcid.sol\":6878:6928  require(activated, \"This contract is deactivated\") */\n      tag_97\n      jumpi\n      mload(0x40)\n      0x08c379a000000000000000000000000000000000000000000000000000000000\n      dup2\n      mstore\n      0x04\n      add\n      tag_98\n      swap1\n      tag_52\n      jump\t// in\n    tag_98:\n      mload(0x40)\n      dup1\n      swap2\n      sub\n      swap1\n      revert\n    tag_97:\n        /* \"contracts/study-case-contracts/002-orcid/Orcid.sol\":6991:7001  msg.sender */\n      caller\n        /* \"contracts/study-case-contracts/002-orcid/Orcid.sol\":6962:7001  application.walletAddress == msg.sender */\n      0xffffffffffffffffffffffffffffffffffffffff\n      and\n        /* \"contracts/study-case-contracts/002-orcid/Orcid.sol\":6962:6973  application */\n      0x01\n        /* \"contracts/study-case-contracts/002-orcid/Orcid.sol\":6962:6987  application.walletAddress */\n      dup1\n      add\n      0x00\n      swap1\n      sload\n      swap1\n      0x0100\n      exp\n      swap1\n      div\n      0xffffffffffffffffffffffffffffffffffffffff\n      and\n        /* \"contracts/study-case-contracts/002-orcid/Orcid.sol\":6962:7001  application.walletAddress == msg.sender */\n      0xffffffffffffffffffffffffffffffffffffffff\n      and\n      eq\n        /* \"contracts/study-case-contracts/002-orcid/Orcid.sol\":6962:7040  application.walletAddress == msg.sender || process.walletAddress == msg.sender */\n      dup1\n      tag_99\n      jumpi\n      pop\n        /* \"contracts/study-case-contracts/002-orcid/Orcid.sol\":7030:7040  msg.sender */\n      caller\n        /* \"contracts/study-case-contracts/002-orcid/Orcid.sol\":7005:7040  process.walletAddress == msg.sender */\n      0xffffffffffffffffffffffffffffffffffffffff\n      and\n        /* \"contracts/study-case-contracts/002-orcid/Orcid.sol\":7005:7012  process */\n      0x03\n        /* \"contracts/study-case-contracts/002-orcid/Orcid.sol\":7005:7026  process.walletAddress */\n      0x01\n      add\n      0x00\n      swap1\n      sload\n      swap1\n      0x0100\n      exp\n      swap1\n      div\n      0xffffffffffffffffffffffffffffffffffffffff\n      and\n        /* \"contracts/study-case-contracts/002-orcid/Orcid.sol\":7005:7040  process.walletAddress == msg.sender */\n      0xffffffffffffffffffffffffffffffffffffffff\n      and\n      eq\n        /* \"contracts/study-case-contracts/002-orcid/Orcid.sol\":6962:7040  application.walletAddress == msg.sender || process.walletAddress == msg.sender */\n    tag_99:\n        /* \"contracts/study-case-contracts/002-orcid/Orcid.sol\":6939:7123  require(... */\n      tag_100\n      jumpi\n      mload(0x40)\n      0x08c379a000000000000000000000000000000000000000000000000000000000\n      dup2\n      mstore\n      0x04\n      add\n      tag_101\n      swap1\n      tag_94\n      jump\t// in\n    tag_101:\n      mload(0x40)\n      dup1\n      swap2\n      sub\n      swap1\n      revert\n    tag_100:\n        /* \"contracts/study-case-contracts/002-orcid/Orcid.sol\":5926:5933  process */\n      0x03\n        /* \"contracts/study-case-contracts/002-orcid/Orcid.sol\":5926:5947  process.walletAddress */\n      0x01\n      add\n      0x00\n      swap1\n      sload\n      swap1\n      0x0100\n      exp\n      swap1\n      div\n      0xffffffffffffffffffffffffffffffffffffffff\n      and\n        /* \"contracts/study-case-contracts/002-orcid/Orcid.sol\":5919:5947  return process.walletAddress */\n      swap1\n      pop\n        /* \"contracts/study-case-contracts/002-orcid/Orcid.sol\":5831:5955  function getProcessAddress() public view onlyInvolvedParties returns(address){... */\n      swap1\n      jump\t// out\n        /* \"contracts/study-case-contracts/002-orcid/Orcid.sol\":3281:3940  function right_requestAllWorks(uint8 _weekDay, uint32 _accessTime, uint32 _accessDateTime)public onlyProcess() returns(bool){... */\n    tag_32:\n        /* \"contracts/study-case-contracts/002-orcid/Orcid.sol\":3400:3404  bool */\n      0x00\n        /* \"contracts/study-case-contracts/002-orcid/Orcid.sol\":6665:6674  activated */\n      dup1\n      0x00\n      swap1\n      sload\n      swap1\n      0x0100\n      exp\n      swap1\n      div\n      0xff\n      and\n        /* \"contracts/study-case-contracts/002-orcid/Orcid.sol\":6657:6707  require(activated, \"This contract is deactivated\") */\n      tag_104\n      jumpi\n      mload(0x40)\n      0x08c379a000000000000000000000000000000000000000000000000000000000\n      dup2\n      mstore\n      0x04\n      add\n      tag_105\n      swap1\n      tag_52\n      jump\t// in\n    tag_105:\n      mload(0x40)\n      dup1\n      swap2\n      sub\n      swap1\n      revert\n    tag_104:\n        /* \"contracts/study-case-contracts/002-orcid/Orcid.sol\":6751:6761  msg.sender */\n      caller\n        /* \"contracts/study-case-contracts/002-orcid/Orcid.sol\":6726:6761  process.walletAddress == msg.sender */\n      0xffffffffffffffffffffffffffffffffffffffff\n      and\n        /* \"contracts/study-case-contracts/002-orcid/Orcid.sol\":6726:6733  process */\n      0x03\n        /* \"contracts/study-case-contracts/002-orcid/Orcid.sol\":6726:6747  process.walletAddress */\n      0x01\n      add\n      0x00\n      swap1\n      sload\n      swap1\n      0x0100\n      exp\n      swap1\n      div\n      0xffffffffffffffffffffffffffffffffffffffff\n      and\n        /* \"contracts/study-case-contracts/002-orcid/Orcid.sol\":6726:6761  process.walletAddress == msg.sender */\n      0xffffffffffffffffffffffffffffffffffffffff\n      and\n      eq\n        /* \"contracts/study-case-contracts/002-orcid/Orcid.sol\":6718:6809  require(process.walletAddress == msg.sender, \"Only the process can execute this operation\") */\n      tag_106\n      jumpi\n      mload(0x40)\n      0x08c379a000000000000000000000000000000000000000000000000000000000\n      dup2\n      mstore\n      0x04\n      add\n      tag_107\n      swap1\n      tag_80\n      jump\t// in\n    tag_107:\n      mload(0x40)\n      dup1\n      swap2\n      sub\n      swap1\n      revert\n    tag_106:\n        /* \"contracts/study-case-contracts/002-orcid/Orcid.sol\":3422:3477  weekDaysInterval_C1[0].isIntoWeekDaysInterval(_weekDay) */\n      tag_109\n        /* \"contracts/study-case-contracts/002-orcid/Orcid.sol\":3468:3476  _weekDay */\n      dup5\n        /* \"contracts/study-case-contracts/002-orcid/Orcid.sol\":3422:3441  weekDaysInterval_C1 */\n      0x06\n        /* \"contracts/study-case-contracts/002-orcid/Orcid.sol\":3442:3443  0 */\n      0x00\n        /* \"contracts/study-case-contracts/002-orcid/Orcid.sol\":3422:3444  weekDaysInterval_C1[0] */\n      dup2\n      sload\n      dup2\n      lt\n      tag_110\n      jumpi\n      tag_111\n      tag_60\n      jump\t// in\n    tag_111:\n    tag_110:\n      swap1\n      0x00\n      mstore\n      keccak256(0x00, 0x20)\n      add\n        /* \"contracts/study-case-contracts/002-orcid/Orcid.sol\":3422:3467  weekDaysInterval_C1[0].isIntoWeekDaysInterval */\n      mload(0x40)\n      dup1\n      0x40\n      add\n      0x40\n      mstore\n      swap1\n      dup2\n      0x00\n      dup3\n      add\n      0x00\n      swap1\n      sload\n      swap1\n      0x0100\n      exp\n      swap1\n      div\n      0xff\n      and\n      0xff\n      and\n      0xff\n      and\n      dup2\n      mstore\n      0x20\n      add\n      0x00\n      dup3\n      add\n      0x01\n      swap1\n      sload\n      swap1\n      0x0100\n      exp\n      swap1\n      div\n      0xff\n      and\n      0xff\n      and\n      0xff\n      and\n      dup2\n      mstore\n      pop\n      pop\n      tag_113\n      swap1\n        /* \"contracts/study-case-contracts/002-orcid/Orcid.sol\":3422:3477  weekDaysInterval_C1[0].isIntoWeekDaysInterval(_weekDay) */\n      swap2\n      swap1\n      0xffffffff\n      and\n      jump\t// in\n    tag_109:\n        /* \"contracts/study-case-contracts/002-orcid/Orcid.sol\":3422:3544  weekDaysInterval_C1[0].isIntoWeekDaysInterval(_weekDay) &&... */\n      dup1\n      iszero\n      tag_114\n      jumpi\n      pop\n        /* \"contracts/study-case-contracts/002-orcid/Orcid.sol\":3494:3544  timeInterval_C1[0].isIntoTimeInterval(_accessTime) */\n      tag_115\n        /* \"contracts/study-case-contracts/002-orcid/Orcid.sol\":3532:3543  _accessTime */\n      dup4\n        /* \"contracts/study-case-contracts/002-orcid/Orcid.sol\":3494:3509  timeInterval_C1 */\n      0x07\n        /* \"contracts/study-case-contracts/002-orcid/Orcid.sol\":3510:3511  0 */\n      0x00\n        /* \"contracts/study-case-contracts/002-orcid/Orcid.sol\":3494:3512  timeInterval_C1[0] */\n      dup2\n      sload\n      dup2\n      lt\n      tag_116\n      jumpi\n      tag_117\n      tag_60\n      jump\t// in\n    tag_117:\n    tag_116:\n      swap1\n      0x00\n      mstore\n      keccak256(0x00, 0x20)\n      add\n        /* \"contracts/study-case-contracts/002-orcid/Orcid.sol\":3494:3531  timeInterval_C1[0].isIntoTimeInterval */\n      mload(0x40)\n      dup1\n      0x40\n      add\n      0x40\n      mstore\n      swap1\n      dup2\n      0x00\n      dup3\n      add\n      0x00\n      swap1\n      sload\n      swap1\n      0x0100\n      exp\n      swap1\n      div\n      0xffffffff\n      and\n      0xffffffff\n      and\n      0xffffffff\n      and\n      dup2\n      mstore\n      0x20\n      add\n      0x00\n      dup3\n      add\n      0x04\n      swap1\n      sload\n      swap1\n      0x0100\n      exp\n      swap1\n      div\n      0xffffffff\n      and\n      0xffffffff\n      and\n      0xffffffff\n      and\n      dup2\n      mstore\n      pop\n      pop\n      tag_119\n      swap1\n        /* \"contracts/study-case-contracts/002-orcid/Orcid.sol\":3494:3544  timeInterval_C1[0].isIntoTimeInterval(_accessTime) */\n      swap2\n      swap1\n      0xffffffff\n      and\n      jump\t// in\n    tag_115:\n        /* \"contracts/study-case-contracts/002-orcid/Orcid.sol\":3422:3544  weekDaysInterval_C1[0].isIntoWeekDaysInterval(_weekDay) &&... */\n    tag_114:\n        /* \"contracts/study-case-contracts/002-orcid/Orcid.sol\":3422:3640  weekDaysInterval_C1[0].isIntoWeekDaysInterval(_weekDay) &&... */\n      dup1\n      iszero\n      tag_120\n      jumpi\n      pop\n        /* \"contracts/study-case-contracts/002-orcid/Orcid.sol\":3561:3640  maxNumberOfOperationByTime_C1[0].hasAvailableOperations_ByTime(_accessDateTime) */\n      tag_121\n        /* \"contracts/study-case-contracts/002-orcid/Orcid.sol\":3624:3639  _accessDateTime */\n      dup3\n        /* \"contracts/study-case-contracts/002-orcid/Orcid.sol\":3561:3590  maxNumberOfOperationByTime_C1 */\n      0x08\n        /* \"contracts/study-case-contracts/002-orcid/Orcid.sol\":3591:3592  0 */\n      0x00\n        /* \"contracts/study-case-contracts/002-orcid/Orcid.sol\":3561:3593  maxNumberOfOperationByTime_C1[0] */\n      dup2\n      sload\n      dup2\n      lt\n      tag_122\n      jumpi\n      tag_123\n      tag_60\n      jump\t// in\n    tag_123:\n    tag_122:\n      swap1\n      0x00\n      mstore\n      keccak256(0x00, 0x20)\n      add\n        /* \"contracts/study-case-contracts/002-orcid/Orcid.sol\":3561:3623  maxNumberOfOperationByTime_C1[0].hasAvailableOperations_ByTime */\n      tag_125\n      swap1\n        /* \"contracts/study-case-contracts/002-orcid/Orcid.sol\":3561:3640  maxNumberOfOperationByTime_C1[0].hasAvailableOperations_ByTime(_accessDateTime) */\n      swap2\n      swap1\n      0xffffffff\n      and\n      jump\t// in\n    tag_121:\n        /* \"contracts/study-case-contracts/002-orcid/Orcid.sol\":3422:3640  weekDaysInterval_C1[0].isIntoWeekDaysInterval(_weekDay) &&... */\n    tag_120:\n        /* \"contracts/study-case-contracts/002-orcid/Orcid.sol\":3418:3918  if( weekDaysInterval_C1[0].isIntoWeekDaysInterval(_weekDay) &&... */\n      iszero\n      tag_126\n      jumpi\n        /* \"contracts/study-case-contracts/002-orcid/Orcid.sol\":3666:3716  timeout_C2[0].setEndTimeInTimeout(_accessDateTime) */\n      tag_127\n        /* \"contracts/study-case-contracts/002-orcid/Orcid.sol\":3700:3715  _accessDateTime */\n      dup3\n        /* \"contracts/study-case-contracts/002-orcid/Orcid.sol\":3666:3676  timeout_C2 */\n      0x09\n        /* \"contracts/study-case-contracts/002-orcid/Orcid.sol\":3677:3678  0 */\n      0x00\n        /* \"contracts/study-case-contracts/002-orcid/Orcid.sol\":3666:3679  timeout_C2[0] */\n      dup2\n      sload\n      dup2\n      lt\n      tag_128\n      jumpi\n      tag_129\n      tag_60\n      jump\t// in\n    tag_129:\n    tag_128:\n      swap1\n      0x00\n      mstore\n      keccak256(0x00, 0x20)\n      add\n        /* \"contracts/study-case-contracts/002-orcid/Orcid.sol\":3666:3699  timeout_C2[0].setEndTimeInTimeout */\n      tag_131\n      swap1\n        /* \"contracts/study-case-contracts/002-orcid/Orcid.sol\":3666:3716  timeout_C2[0].setEndTimeInTimeout(_accessDateTime) */\n      swap2\n      swap1\n      0xffffffff\n      and\n      jump\t// in\n    tag_127:\n        /* \"contracts/study-case-contracts/002-orcid/Orcid.sol\":3744:3781  successEvent(\"Successful execution!\") */\n      0x95a1f3a1dafdd4c1af344e3d7c69a72cbce8a3f15fe1cf95a7f5bd23df2e71a1\n      mload(0x40)\n      tag_132\n      swap1\n      tag_73\n      jump\t// in\n    tag_132:\n      mload(0x40)\n      dup1\n      swap2\n      sub\n      swap1\n      log1\n        /* \"contracts/study-case-contracts/002-orcid/Orcid.sol\":3803:3807  true */\n      0x01\n        /* \"contracts/study-case-contracts/002-orcid/Orcid.sol\":3796:3807  return true */\n      swap1\n      pop\n      jump(tag_108)\n        /* \"contracts/study-case-contracts/002-orcid/Orcid.sol\":3418:3918  if( weekDaysInterval_C1[0].isIntoWeekDaysInterval(_weekDay) &&... */\n    tag_126:\n        /* \"contracts/study-case-contracts/002-orcid/Orcid.sol\":3844:3879  failEvent(\"Conditions do not meet\") */\n      0x66091b7dc2b097c8f60d5cd6aa99633b097f08d2eb1056f3e15361b22e0ea2ba\n      mload(0x40)\n      tag_134\n      swap1\n      tag_76\n      jump\t// in\n    tag_134:\n      mload(0x40)\n      dup1\n      swap2\n      sub\n      swap1\n      log1\n        /* \"contracts/study-case-contracts/002-orcid/Orcid.sol\":3901:3906  false */\n      0x00\n        /* \"contracts/study-case-contracts/002-orcid/Orcid.sol\":3894:3906  return false */\n      swap1\n      pop\n        /* \"contracts/study-case-contracts/002-orcid/Orcid.sol\":6820:6821  _ */\n    tag_108:\n        /* \"contracts/study-case-contracts/002-orcid/Orcid.sol\":3281:3940  function right_requestAllWorks(uint8 _weekDay, uint32 _accessTime, uint32 _accessDateTime)public onlyProcess() returns(bool){... */\n      swap4\n      swap3\n      pop\n      pop\n      pop\n      jump\t// out\n        /* \"contracts/study-case-contracts/002-orcid/Orcid.sol\":4788:5050  function signContract() public onlyApplication() returns(bool) {... */\n    tag_35:\n        /* \"contracts/study-case-contracts/002-orcid/Orcid.sol\":4845:4849  bool */\n      0x00\n        /* \"contracts/study-case-contracts/002-orcid/Orcid.sol\":6416:6425  activated */\n      dup1\n      0x00\n      swap1\n      sload\n      swap1\n      0x0100\n      exp\n      swap1\n      div\n      0xff\n      and\n        /* \"contracts/study-case-contracts/002-orcid/Orcid.sol\":6408:6458  require(activated, \"This contract is deactivated\") */\n      tag_136\n      jumpi\n      mload(0x40)\n      0x08c379a000000000000000000000000000000000000000000000000000000000\n      dup2\n      mstore\n      0x04\n      add\n      tag_137\n      swap1\n      tag_52\n      jump\t// in\n    tag_137:\n      mload(0x40)\n      dup1\n      swap2\n      sub\n      swap1\n      revert\n    tag_136:\n        /* \"contracts/study-case-contracts/002-orcid/Orcid.sol\":6522:6532  msg.sender */\n      caller\n        /* \"contracts/study-case-contracts/002-orcid/Orcid.sol\":6493:6532  application.walletAddress == msg.sender */\n      0xffffffffffffffffffffffffffffffffffffffff\n      and\n        /* \"contracts/study-case-contracts/002-orcid/Orcid.sol\":6493:6504  application */\n      0x01\n        /* \"contracts/study-case-contracts/002-orcid/Orcid.sol\":6493:6518  application.walletAddress */\n      dup1\n      add\n      0x00\n      swap1\n      sload\n      swap1\n      0x0100\n      exp\n      swap1\n      div\n      0xffffffffffffffffffffffffffffffffffffffff\n      and\n        /* \"contracts/study-case-contracts/002-orcid/Orcid.sol\":6493:6532  application.walletAddress == msg.sender */\n      0xffffffffffffffffffffffffffffffffffffffff\n      and\n      eq\n        /* \"contracts/study-case-contracts/002-orcid/Orcid.sol\":6485:6584  require(application.walletAddress == msg.sender, \"Only the application can execute this operation\") */\n      tag_138\n      jumpi\n      mload(0x40)\n      0x08c379a000000000000000000000000000000000000000000000000000000000\n      dup2\n      mstore\n      0x04\n      add\n      tag_139\n      swap1\n      tag_55\n      jump\t// in\n    tag_139:\n      mload(0x40)\n      dup1\n      swap2\n      sub\n      swap1\n      revert\n    tag_138:\n        /* \"contracts/study-case-contracts/002-orcid/Orcid.sol\":4891:4896  false */\n      0x00\n        /* \"contracts/study-case-contracts/002-orcid/Orcid.sol\":4870:4896  application.aware == false */\n      iszero\n      iszero\n        /* \"contracts/study-case-contracts/002-orcid/Orcid.sol\":4870:4881  application */\n      0x01\n        /* \"contracts/study-case-contracts/002-orcid/Orcid.sol\":4870:4887  application.aware */\n      dup1\n      add\n      0x14\n      swap1\n      sload\n      swap1\n      0x0100\n      exp\n      swap1\n      div\n      0xff\n      and\n        /* \"contracts/study-case-contracts/002-orcid/Orcid.sol\":4870:4896  application.aware == false */\n      iszero\n      iszero\n      eq\n        /* \"contracts/study-case-contracts/002-orcid/Orcid.sol\":4862:4931  require(application.aware == false, \"The contract is already signed\") */\n      tag_141\n      jumpi\n      mload(0x40)\n      0x08c379a000000000000000000000000000000000000000000000000000000000\n      dup2\n      mstore\n      0x04\n      add\n      tag_142\n      swap1\n      tag_143\n      jump\t// in\n    tag_142:\n      mload(0x40)\n      dup1\n      swap2\n      sub\n      swap1\n      revert\n    tag_141:\n        /* \"contracts/study-case-contracts/002-orcid/Orcid.sol\":4970:4974  true */\n      0x01\n        /* \"contracts/study-case-contracts/002-orcid/Orcid.sol\":4950:4961  application */\n      dup1\n        /* \"contracts/study-case-contracts/002-orcid/Orcid.sol\":4950:4967  application.aware */\n      0x01\n      add\n      0x14\n        /* \"contracts/study-case-contracts/002-orcid/Orcid.sol\":4950:4974  application.aware = true */\n      0x0100\n      exp\n      dup2\n      sload\n      dup2\n      0xff\n      mul\n      not\n      and\n      swap1\n      dup4\n      iszero\n      iszero\n      mul\n      or\n      swap1\n      sstore\n      pop\n        /* \"contracts/study-case-contracts/002-orcid/Orcid.sol\":4987:5026  updateMapParty(msg.sender, application) */\n      tag_144\n        /* \"contracts/study-case-contracts/002-orcid/Orcid.sol\":5002:5012  msg.sender */\n      caller\n        /* \"contracts/study-case-contracts/002-orcid/Orcid.sol\":5014:5025  application */\n      0x01\n        /* \"contracts/study-case-contracts/002-orcid/Orcid.sol\":4987:5001  updateMapParty */\n      tag_87\n        /* \"contracts/study-case-contracts/002-orcid/Orcid.sol\":4987:5026  updateMapParty(msg.sender, application) */\n      jump\t// in\n    tag_144:\n      pop\n        /* \"contracts/study-case-contracts/002-orcid/Orcid.sol\":5038:5042  true */\n      0x01\n        /* \"contracts/study-case-contracts/002-orcid/Orcid.sol\":5031:5042  return true */\n      swap1\n      pop\n        /* \"contracts/study-case-contracts/002-orcid/Orcid.sol\":4788:5050  function signContract() public onlyApplication() returns(bool) {... */\n      swap1\n      jump\t// out\n        /* \"contracts/study-case-contracts/002-orcid/Orcid.sol\":6107:6256  function getParty(address _walletAddress) public view onlyInvolvedParties returns(EAI.Party memory){... */\n    tag_40:\n        /* \"contracts/study-case-contracts/002-orcid/Orcid.sol\":6189:6205  EAI.Party memory */\n      tag_145\n      tag_146\n      jump\t// in\n    tag_145:\n        /* \"contracts/study-case-contracts/002-orcid/Orcid.sol\":6886:6895  activated */\n      0x00\n      dup1\n      sload\n      swap1\n      0x0100\n      exp\n      swap1\n      div\n      0xff\n      and\n        /* \"contracts/study-case-contracts/002-orcid/Orcid.sol\":6878:6928  require(activated, \"This contract is deactivated\") */\n      tag_148\n      jumpi\n      mload(0x40)\n      0x08c379a000000000000000000000000000000000000000000000000000000000\n      dup2\n      mstore\n      0x04\n      add\n      tag_149\n      swap1\n      tag_52\n      jump\t// in\n    tag_149:\n      mload(0x40)\n      dup1\n      swap2\n      sub\n      swap1\n      revert\n    tag_148:\n        /* \"contracts/study-case-contracts/002-orcid/Orcid.sol\":6991:7001  msg.sender */\n      caller\n        /* \"contracts/study-case-contracts/002-orcid/Orcid.sol\":6962:7001  application.walletAddress == msg.sender */\n      0xffffffffffffffffffffffffffffffffffffffff\n      and\n        /* \"contracts/study-case-contracts/002-orcid/Orcid.sol\":6962:6973  application */\n      0x01\n        /* \"contracts/study-case-contracts/002-orcid/Orcid.sol\":6962:6987  application.walletAddress */\n      dup1\n      add\n      0x00\n      swap1\n      sload\n      swap1\n      0x0100\n      exp\n      swap1\n      div\n      0xffffffffffffffffffffffffffffffffffffffff\n      and\n        /* \"contracts/study-case-contracts/002-orcid/Orcid.sol\":6962:7001  application.walletAddress == msg.sender */\n      0xffffffffffffffffffffffffffffffffffffffff\n      and\n      eq\n        /* \"contracts/study-case-contracts/002-orcid/Orcid.sol\":6962:7040  application.walletAddress == msg.sender || process.walletAddress == msg.sender */\n      dup1\n      tag_150\n      jumpi\n      pop\n        /* \"contracts/study-case-contracts/002-orcid/Orcid.sol\":7030:7040  msg.sender */\n      caller\n        /* \"contracts/study-case-contracts/002-orcid/Orcid.sol\":7005:7040  process.walletAddress == msg.sender */\n      0xffffffffffffffffffffffffffffffffffffffff\n      and\n        /* \"contracts/study-case-contracts/002-orcid/Orcid.sol\":7005:7012  process */\n      0x03\n        /* \"contracts/study-case-contracts/002-orcid/Orcid.sol\":7005:7026  process.walletAddress */\n      0x01\n      add\n      0x00\n      swap1\n      sload\n      swap1\n      0x0100\n      exp\n      swap1\n      div\n      0xffffffffffffffffffffffffffffffffffffffff\n      and\n        /* \"contracts/study-case-contracts/002-orcid/Orcid.sol\":7005:7040  process.walletAddress == msg.sender */\n      0xffffffffffffffffffffffffffffffffffffffff\n      and\n      eq\n        /* \"contracts/study-case-contracts/002-orcid/Orcid.sol\":6962:7040  application.walletAddress == msg.sender || process.walletAddress == msg.sender */\n    tag_150:\n        /* \"contracts/study-case-contracts/002-orcid/Orcid.sol\":6939:7123  require(... */\n      tag_151\n      jumpi\n      mload(0x40)\n      0x08c379a000000000000000000000000000000000000000000000000000000000\n      dup2\n      mstore\n      0x04\n      add\n      tag_152\n      swap1\n      tag_94\n      jump\t// in\n    tag_152:\n      mload(0x40)\n      dup1\n      swap2\n      sub\n      swap1\n      revert\n    tag_151:\n        /* \"contracts/study-case-contracts/002-orcid/Orcid.sol\":6224:6232  mapParty */\n      0x05\n        /* \"contracts/study-case-contracts/002-orcid/Orcid.sol\":6224:6248  mapParty[_walletAddress] */\n      0x00\n        /* \"contracts/study-case-contracts/002-orcid/Orcid.sol\":6233:6247  _walletAddress */\n      dup4\n        /* \"contracts/study-case-contracts/002-orcid/Orcid.sol\":6224:6248  mapParty[_walletAddress] */\n      0xffffffffffffffffffffffffffffffffffffffff\n      and\n      0xffffffffffffffffffffffffffffffffffffffff\n      and\n      dup2\n      mstore\n      0x20\n      add\n      swap1\n      dup2\n      mstore\n      0x20\n      add\n      0x00\n      keccak256\n        /* \"contracts/study-case-contracts/002-orcid/Orcid.sol\":6217:6248  return mapParty[_walletAddress] */\n      mload(0x40)\n      dup1\n      0x60\n      add\n      0x40\n      mstore\n      swap1\n      dup2\n      0x00\n      dup3\n      add\n      dup1\n      sload\n      tag_154\n      swap1\n      tag_155\n      jump\t// in\n    tag_154:\n      dup1\n      0x1f\n      add\n      0x20\n      dup1\n      swap2\n      div\n      mul\n      0x20\n      add\n      mload(0x40)\n      swap1\n      dup2\n      add\n      0x40\n      mstore\n      dup1\n      swap3\n      swap2\n      swap1\n      dup2\n      dup2\n      mstore\n      0x20\n      add\n      dup3\n      dup1\n      sload\n      tag_156\n      swap1\n      tag_155\n      jump\t// in\n    tag_156:\n      dup1\n      iszero\n      tag_157\n      jumpi\n      dup1\n      0x1f\n      lt\n      tag_158\n      jumpi\n      0x0100\n      dup1\n      dup4\n      sload\n      div\n      mul\n      dup4\n      mstore\n      swap2\n      0x20\n      add\n      swap2\n      jump(tag_157)\n    tag_158:\n      dup3\n      add\n      swap2\n      swap1\n      0x00\n      mstore\n      keccak256(0x00, 0x20)\n      swap1\n    tag_159:\n      dup2\n      sload\n      dup2\n      mstore\n      swap1\n      0x01\n      add\n      swap1\n      0x20\n      add\n      dup1\n      dup4\n      gt\n      tag_159\n      jumpi\n      dup3\n      swap1\n      sub\n      0x1f\n      and\n      dup3\n      add\n      swap2\n    tag_157:\n      pop\n      pop\n      pop\n      pop\n      pop\n      dup2\n      mstore\n      0x20\n      add\n      0x01\n      dup3\n      add\n      0x00\n      swap1\n      sload\n      swap1\n      0x0100\n      exp\n      swap1\n      div\n      0xffffffffffffffffffffffffffffffffffffffff\n      and\n      0xffffffffffffffffffffffffffffffffffffffff\n      and\n      0xffffffffffffffffffffffffffffffffffffffff\n      and\n      dup2\n      mstore\n      0x20\n      add\n      0x01\n      dup3\n      add\n      0x14\n      swap1\n      sload\n      swap1\n      0x0100\n      exp\n      swap1\n      div\n      0xff\n      and\n      iszero\n      iszero\n      iszero\n      iszero\n      dup2\n      mstore\n      pop\n      pop\n      swap1\n      pop\n        /* \"contracts/study-case-contracts/002-orcid/Orcid.sol\":6107:6256  function getParty(address _walletAddress) public view onlyInvolvedParties returns(EAI.Party memory){... */\n      swap2\n      swap1\n      pop\n      jump\t// out\n        /* \"contracts/lib/eai/EAI.sol\":1588:1764  function createParty(string memory _name, address _walletAddress, bool _aware) internal pure returns(Party memory){... */\n    tag_43:\n        /* \"contracts/lib/eai/EAI.sol\":1689:1701  Party memory */\n      tag_160\n      tag_146\n      jump\t// in\n    tag_160:\n        /* \"contracts/lib/eai/EAI.sol\":1720:1756  Party(_name, _walletAddress, _aware) */\n      mload(0x40)\n      dup1\n      0x60\n      add\n      0x40\n      mstore\n      dup1\n        /* \"contracts/lib/eai/EAI.sol\":1726:1731  _name */\n      dup6\n        /* \"contracts/lib/eai/EAI.sol\":1720:1756  Party(_name, _walletAddress, _aware) */\n      dup2\n      mstore\n      0x20\n      add\n        /* \"contracts/lib/eai/EAI.sol\":1733:1747  _walletAddress */\n      dup5\n        /* \"contracts/lib/eai/EAI.sol\":1720:1756  Party(_name, _walletAddress, _aware) */\n      0xffffffffffffffffffffffffffffffffffffffff\n      and\n      dup2\n      mstore\n      0x20\n      add\n        /* \"contracts/lib/eai/EAI.sol\":1749:1755  _aware */\n      dup4\n        /* \"contracts/lib/eai/EAI.sol\":1720:1756  Party(_name, _walletAddress, _aware) */\n      iszero\n      iszero\n      dup2\n      mstore\n      pop\n        /* \"contracts/lib/eai/EAI.sol\":1713:1756  return Party(_name, _walletAddress, _aware) */\n      swap1\n      pop\n        /* \"contracts/lib/eai/EAI.sol\":1588:1764  function createParty(string memory _name, address _walletAddress, bool _aware) internal pure returns(Party memory){... */\n      swap4\n      swap3\n      pop\n      pop\n      pop\n      jump\t// out\n        /* \"contracts/lib/eai/EAI.sol\":2808:3028  function createWeekDaysInterval(... */\n    tag_44:\n        /* \"contracts/lib/eai/EAI.sol\":2948:2971  WeekDaysInterval memory */\n      tag_162\n      tag_163\n      jump\t// in\n    tag_162:\n        /* \"contracts/lib/eai/EAI.sol\":2924:2930  _start */\n      dup3\n        /* \"contracts/lib/eai/EAI.sol\":2932:2936  _end */\n      dup3\n        /* \"contracts/lib/eai/EAI.sol\":431:432  0 */\n      0x00\n        /* \"contracts/lib/eai/EAI.sol\":4953:4972  _startDay >= SUNDAY */\n      0xff\n      and\n        /* \"contracts/lib/eai/EAI.sol\":4953:4962  _startDay */\n      dup3\n        /* \"contracts/lib/eai/EAI.sol\":4953:4972  _startDay >= SUNDAY */\n      0xff\n      and\n      lt\n      iszero\n        /* \"contracts/lib/eai/EAI.sol\":4953:4997  _startDay >= SUNDAY && _startDay <= SATURDAY */\n      dup1\n      iszero\n      tag_165\n      jumpi\n      pop\n        /* \"contracts/lib/eai/EAI.sol\":619:620  6 */\n      0x06\n        /* \"contracts/lib/eai/EAI.sol\":4976:4997  _startDay <= SATURDAY */\n      0xff\n      and\n        /* \"contracts/lib/eai/EAI.sol\":4976:4985  _startDay */\n      dup3\n        /* \"contracts/lib/eai/EAI.sol\":4976:4997  _startDay <= SATURDAY */\n      0xff\n      and\n      gt\n      iszero\n        /* \"contracts/lib/eai/EAI.sol\":4953:4997  _startDay >= SUNDAY && _startDay <= SATURDAY */\n    tag_165:\n        /* \"contracts/lib/eai/EAI.sol\":4944:5042  require( _startDay >= SUNDAY && _startDay <= SATURDAY, \"The _startDay not represents a valid day\") */\n      tag_166\n      jumpi\n      mload(0x40)\n      0x08c379a000000000000000000000000000000000000000000000000000000000\n      dup2\n      mstore\n      0x04\n      add\n      tag_167\n      swap1\n      tag_168\n      jump\t// in\n    tag_167:\n      mload(0x40)\n      dup1\n      swap2\n      sub\n      swap1\n      revert\n    tag_166:\n        /* \"contracts/lib/eai/EAI.sol\":431:432  0 */\n      0x00\n        /* \"contracts/lib/eai/EAI.sol\":5061:5078  _endDay >= SUNDAY */\n      0xff\n      and\n        /* \"contracts/lib/eai/EAI.sol\":5061:5068  _endDay */\n      dup2\n        /* \"contracts/lib/eai/EAI.sol\":5061:5078  _endDay >= SUNDAY */\n      0xff\n      and\n      lt\n      iszero\n        /* \"contracts/lib/eai/EAI.sol\":5061:5101  _endDay >= SUNDAY && _endDay <= SATURDAY */\n      dup1\n      iszero\n      tag_169\n      jumpi\n      pop\n        /* \"contracts/lib/eai/EAI.sol\":619:620  6 */\n      0x06\n        /* \"contracts/lib/eai/EAI.sol\":5082:5101  _endDay <= SATURDAY */\n      0xff\n      and\n        /* \"contracts/lib/eai/EAI.sol\":5082:5089  _endDay */\n      dup2\n        /* \"contracts/lib/eai/EAI.sol\":5082:5101  _endDay <= SATURDAY */\n      0xff\n      and\n      gt\n      iszero\n        /* \"contracts/lib/eai/EAI.sol\":5061:5101  _endDay >= SUNDAY && _endDay <= SATURDAY */\n    tag_169:\n        /* \"contracts/lib/eai/EAI.sol\":5053:5145  require(_endDay >= SUNDAY && _endDay <= SATURDAY,  \"The _endDay not represents a valid day\") */\n      tag_170\n      jumpi\n      mload(0x40)\n      0x08c379a000000000000000000000000000000000000000000000000000000000\n      dup2\n      mstore\n      0x04\n      add\n      tag_171\n      swap1\n      tag_172\n      jump\t// in\n    tag_171:\n      mload(0x40)\n      dup1\n      swap2\n      sub\n      swap1\n      revert\n    tag_170:\n        /* \"contracts/lib/eai/EAI.sol\":2990:3020  WeekDaysInterval(_start, _end) */\n      mload(0x40)\n      dup1\n      0x40\n      add\n      0x40\n      mstore\n      dup1\n        /* \"contracts/lib/eai/EAI.sol\":3007:3013  _start */\n      dup7\n        /* \"contracts/lib/eai/EAI.sol\":2990:3020  WeekDaysInterval(_start, _end) */\n      0xff\n      and\n      dup2\n      mstore\n      0x20\n      add\n        /* \"contracts/lib/eai/EAI.sol\":3015:3019  _end */\n      dup6\n        /* \"contracts/lib/eai/EAI.sol\":2990:3020  WeekDaysInterval(_start, _end) */\n      0xff\n      and\n      dup2\n      mstore\n      pop\n        /* \"contracts/lib/eai/EAI.sol\":2983:3020  return WeekDaysInterval(_start, _end) */\n      swap3\n      pop\n        /* \"contracts/lib/eai/EAI.sol\":2808:3028  function createWeekDaysInterval(... */\n      pop\n      pop\n      swap3\n      swap2\n      pop\n      pop\n      jump\t// out\n        /* \"contracts/lib/eai/EAI.sol\":5722:5933  function createTimeInterval(... */\n    tag_45:\n        /* \"contracts/lib/eai/EAI.sol\":5861:5880  TimeInterval memory */\n      tag_174\n      tag_175\n      jump\t// in\n    tag_174:\n        /* \"contracts/lib/eai/EAI.sol\":5837:5843  _start */\n      dup3\n        /* \"contracts/lib/eai/EAI.sol\":5845:5849  _end */\n      dup3\n        /* \"contracts/lib/eai/EAI.sol\":990:991  0 */\n      0x00\n        /* \"contracts/lib/eai/EAI.sol\":7600:7620  _startHr >= MIN_HOUR */\n      0xffffffff\n      and\n        /* \"contracts/lib/eai/EAI.sol\":7600:7608  _startHr */\n      dup3\n        /* \"contracts/lib/eai/EAI.sol\":7600:7620  _startHr >= MIN_HOUR */\n      0xffffffff\n      and\n      lt\n      iszero\n        /* \"contracts/lib/eai/EAI.sol\":7600:7644  _startHr >= MIN_HOUR && _startHr <= MAX_HOUR */\n      dup1\n      iszero\n      tag_177\n      jumpi\n      pop\n        /* \"contracts/lib/eai/EAI.sol\":1024:1029  86399 */\n      0x01517f\n        /* \"contracts/lib/eai/EAI.sol\":7624:7644  _startHr <= MAX_HOUR */\n      0xffffffff\n      and\n        /* \"contracts/lib/eai/EAI.sol\":7624:7632  _startHr */\n      dup3\n        /* \"contracts/lib/eai/EAI.sol\":7624:7644  _startHr <= MAX_HOUR */\n      0xffffffff\n      and\n      gt\n      iszero\n        /* \"contracts/lib/eai/EAI.sol\":7600:7644  _startHr >= MIN_HOUR && _startHr <= MAX_HOUR */\n    tag_177:\n        /* \"contracts/lib/eai/EAI.sol\":7591:7689  require( _startHr >= MIN_HOUR && _startHr <= MAX_HOUR, \"The _startDay not represents a valid day\") */\n      tag_178\n      jumpi\n      mload(0x40)\n      0x08c379a000000000000000000000000000000000000000000000000000000000\n      dup2\n      mstore\n      0x04\n      add\n      tag_179\n      swap1\n      tag_168\n      jump\t// in\n    tag_179:\n      mload(0x40)\n      dup1\n      swap2\n      sub\n      swap1\n      revert\n    tag_178:\n        /* \"contracts/lib/eai/EAI.sol\":990:991  0 */\n      0x00\n        /* \"contracts/lib/eai/EAI.sol\":7708:7726  _endHr >= MIN_HOUR */\n      0xffffffff\n      and\n        /* \"contracts/lib/eai/EAI.sol\":7708:7714  _endHr */\n      dup2\n        /* \"contracts/lib/eai/EAI.sol\":7708:7726  _endHr >= MIN_HOUR */\n      0xffffffff\n      and\n      lt\n      iszero\n        /* \"contracts/lib/eai/EAI.sol\":7708:7748  _endHr >= MIN_HOUR && _endHr <= MAX_HOUR */\n      dup1\n      iszero\n      tag_180\n      jumpi\n      pop\n        /* \"contracts/lib/eai/EAI.sol\":1024:1029  86399 */\n      0x01517f\n        /* \"contracts/lib/eai/EAI.sol\":7730:7748  _endHr <= MAX_HOUR */\n      0xffffffff\n      and\n        /* \"contracts/lib/eai/EAI.sol\":7730:7736  _endHr */\n      dup2\n        /* \"contracts/lib/eai/EAI.sol\":7730:7748  _endHr <= MAX_HOUR */\n      0xffffffff\n      and\n      gt\n      iszero\n        /* \"contracts/lib/eai/EAI.sol\":7708:7748  _endHr >= MIN_HOUR && _endHr <= MAX_HOUR */\n    tag_180:\n        /* \"contracts/lib/eai/EAI.sol\":7700:7792  require(_endHr >= MIN_HOUR && _endHr <= MAX_HOUR,  \"The _endDay not represents a valid day\") */\n      tag_181\n      jumpi\n      mload(0x40)\n      0x08c379a000000000000000000000000000000000000000000000000000000000\n      dup2\n      mstore\n      0x04\n      add\n      tag_182\n      swap1\n      tag_172\n      jump\t// in\n    tag_182:\n      mload(0x40)\n      dup1\n      swap2\n      sub\n      swap1\n      revert\n    tag_181:\n        /* \"contracts/lib/eai/EAI.sol\":5899:5925  TimeInterval(_start, _end) */\n      mload(0x40)\n      dup1\n      0x40\n      add\n      0x40\n      mstore\n      dup1\n        /* \"contracts/lib/eai/EAI.sol\":5912:5918  _start */\n      dup7\n        /* \"contracts/lib/eai/EAI.sol\":5899:5925  TimeInterval(_start, _end) */\n      0xffffffff\n      and\n      dup2\n      mstore\n      0x20\n      add\n        /* \"contracts/lib/eai/EAI.sol\":5920:5924  _end */\n      dup6\n        /* \"contracts/lib/eai/EAI.sol\":5899:5925  TimeInterval(_start, _end) */\n      0xffffffff\n      and\n      dup2\n      mstore\n      pop\n        /* \"contracts/lib/eai/EAI.sol\":5892:5925  return TimeInterval(_start, _end) */\n      swap3\n      pop\n        /* \"contracts/lib/eai/EAI.sol\":5722:5933  function createTimeInterval(... */\n      pop\n      pop\n      swap3\n      swap2\n      pop\n      pop\n      jump\t// out\n        /* \"contracts/lib/eai/EAI.sol\":10916:11547  function createMaxNumberOfOperationByTime(... */\n    tag_46:\n        /* \"contracts/lib/eai/EAI.sol\":11041:11074  MaxNumberOfOperationByTime memory */\n      tag_184\n      tag_185\n      jump\t// in\n    tag_184:\n        /* \"contracts/lib/eai/EAI.sol\":11088:11104  uint32 auxByTime */\n      0x00\n        /* \"contracts/lib/eai/EAI.sol\":784:785  4 */\n      0x04\n        /* \"contracts/lib/eai/EAI.sol\":11120:11137  _timeUnit <= WEEK */\n      0xff\n      and\n        /* \"contracts/lib/eai/EAI.sol\":11120:11129  _timeUnit */\n      dup4\n        /* \"contracts/lib/eai/EAI.sol\":11120:11137  _timeUnit <= WEEK */\n      0xff\n      and\n      gt\n        /* \"contracts/lib/eai/EAI.sol\":11117:11453  if(_timeUnit <= WEEK){... */\n      tag_187\n      jumpi\n        /* \"contracts/lib/eai/EAI.sol\":11270:11297  getTimeInSeconds(_timeUnit) */\n      tag_188\n        /* \"contracts/lib/eai/EAI.sol\":11287:11296  _timeUnit */\n      dup4\n        /* \"contracts/lib/eai/EAI.sol\":11270:11286  getTimeInSeconds */\n      tag_189\n        /* \"contracts/lib/eai/EAI.sol\":11270:11297  getTimeInSeconds(_timeUnit) */\n      jump\t// in\n    tag_188:\n        /* \"contracts/lib/eai/EAI.sol\":11259:11297  auxByTime= getTimeInSeconds(_timeUnit) */\n      swap1\n      pop\n        /* \"contracts/lib/eai/EAI.sol\":11117:11453  if(_timeUnit <= WEEK){... */\n      jump(tag_190)\n    tag_187:\n        /* \"contracts/lib/eai/EAI.sol\":11439:11440  1 */\n      0x01\n        /* \"contracts/lib/eai/EAI.sol\":11427:11440  auxByTime = 1 */\n      swap1\n      pop\n        /* \"contracts/lib/eai/EAI.sol\":11117:11453  if(_timeUnit <= WEEK){... */\n    tag_190:\n        /* \"contracts/lib/eai/EAI.sol\":11470:11539  MaxNumberOfOperationByTime(_amount, _timeUnit, auxByTime, _amount, 0) */\n      mload(0x40)\n      dup1\n      0xa0\n      add\n      0x40\n      mstore\n      dup1\n        /* \"contracts/lib/eai/EAI.sol\":11497:11504  _amount */\n      dup6\n        /* \"contracts/lib/eai/EAI.sol\":11470:11539  MaxNumberOfOperationByTime(_amount, _timeUnit, auxByTime, _amount, 0) */\n      0xffffffff\n      and\n      dup2\n      mstore\n      0x20\n      add\n        /* \"contracts/lib/eai/EAI.sol\":11506:11515  _timeUnit */\n      dup5\n        /* \"contracts/lib/eai/EAI.sol\":11470:11539  MaxNumberOfOperationByTime(_amount, _timeUnit, auxByTime, _amount, 0) */\n      0xff\n      and\n      dup2\n      mstore\n      0x20\n      add\n        /* \"contracts/lib/eai/EAI.sol\":11517:11526  auxByTime */\n      dup3\n        /* \"contracts/lib/eai/EAI.sol\":11470:11539  MaxNumberOfOperationByTime(_amount, _timeUnit, auxByTime, _amount, 0) */\n      0xffffffff\n      and\n      dup2\n      mstore\n      0x20\n      add\n        /* \"contracts/lib/eai/EAI.sol\":11528:11535  _amount */\n      dup6\n        /* \"contracts/lib/eai/EAI.sol\":11470:11539  MaxNumberOfOperationByTime(_amount, _timeUnit, auxByTime, _amount, 0) */\n      0xffffffff\n      and\n      dup2\n      mstore\n      0x20\n      add\n        /* \"contracts/lib/eai/EAI.sol\":11537:11538  0 */\n      0x00\n        /* \"contracts/lib/eai/EAI.sol\":11470:11539  MaxNumberOfOperationByTime(_amount, _timeUnit, auxByTime, _amount, 0) */\n      0xffffffff\n      and\n      dup2\n      mstore\n      pop\n        /* \"contracts/lib/eai/EAI.sol\":11463:11539  return MaxNumberOfOperationByTime(_amount, _timeUnit, auxByTime, _amount, 0) */\n      swap2\n      pop\n      pop\n        /* \"contracts/lib/eai/EAI.sol\":10916:11547  function createMaxNumberOfOperationByTime(... */\n      swap3\n      swap2\n      pop\n      pop\n      jump\t// out\n        /* \"contracts/lib/eai/EAI.sol\":8332:8469  function createTimeout(uint32 _timeIncrement) internal pure returns (Timeout memory ){... */\n    tag_47:\n        /* \"contracts/lib/eai/EAI.sol\":8401:8415  Timeout memory */\n      tag_191\n      tag_192\n      jump\t// in\n    tag_191:\n        /* \"contracts/lib/eai/EAI.sol\":8435:8461  Timeout(0, _timeIncrement) */\n      mload(0x40)\n      dup1\n      0x40\n      add\n      0x40\n      mstore\n      dup1\n        /* \"contracts/lib/eai/EAI.sol\":8443:8444  0 */\n      0x00\n        /* \"contracts/lib/eai/EAI.sol\":8435:8461  Timeout(0, _timeIncrement) */\n      0xffffffff\n      and\n      dup2\n      mstore\n      0x20\n      add\n        /* \"contracts/lib/eai/EAI.sol\":8446:8460  _timeIncrement */\n      dup4\n        /* \"contracts/lib/eai/EAI.sol\":8435:8461  Timeout(0, _timeIncrement) */\n      0xffffffff\n      and\n      dup2\n      mstore\n      pop\n        /* \"contracts/lib/eai/EAI.sol\":8428:8461  return Timeout(0, _timeIncrement) */\n      swap1\n      pop\n        /* \"contracts/lib/eai/EAI.sol\":8332:8469  function createTimeout(uint32 _timeIncrement) internal pure returns (Timeout memory ){... */\n      swap2\n      swap1\n      pop\n      jump\t// out\n        /* \"contracts/lib/eai/EAI.sol\":13453:13627  function createMessageContent_onlyXPath(string memory _xpath) internal pure returns(MessageContent_onlyXPath memory){... */\n    tag_48:\n        /* \"contracts/lib/eai/EAI.sol\":13537:13568  MessageContent_onlyXPath memory */\n      tag_194\n      tag_195\n      jump\t// in\n    tag_194:\n        /* \"contracts/lib/eai/EAI.sol\":13587:13619  MessageContent_onlyXPath(_xpath) */\n      mload(0x40)\n      dup1\n      0x20\n      add\n      0x40\n      mstore\n      dup1\n        /* \"contracts/lib/eai/EAI.sol\":13612:13618  _xpath */\n      dup4\n        /* \"contracts/lib/eai/EAI.sol\":13587:13619  MessageContent_onlyXPath(_xpath) */\n      dup2\n      mstore\n      pop\n        /* \"contracts/lib/eai/EAI.sol\":13580:13619  return MessageContent_onlyXPath(_xpath) */\n      swap1\n      pop\n        /* \"contracts/lib/eai/EAI.sol\":13453:13627  function createMessageContent_onlyXPath(string memory _xpath) internal pure returns(MessageContent_onlyXPath memory){... */\n      swap2\n      swap1\n      pop\n      jump\t// out\n        /* \"contracts/lib/eai/EAI.sol\":8481:8752  function isTimeoutEnded(Timeout memory _timeout, uint32 _accessTime) internal pure onlyValidAccessTime(_accessTime) returns(bool){        ... */\n    tag_62:\n        /* \"contracts/lib/eai/EAI.sol\":8605:8609  bool */\n      0x00\n        /* \"contracts/lib/eai/EAI.sol\":8584:8595  _accessTime */\n      dup2\n        /* \"contracts/lib/eai/EAI.sol\":9223:9244  string memory strTime */\n      0x00\n        /* \"contracts/lib/eai/EAI.sol\":9248:9266  uint2String(_time) */\n      tag_198\n        /* \"contracts/lib/eai/EAI.sol\":9260:9265  _time */\n      dup3\n        /* \"contracts/lib/eai/EAI.sol\":9248:9266  uint2String(_time) */\n      0xffffffff\n      and\n        /* \"contracts/lib/eai/EAI.sol\":9248:9259  uint2String */\n      tag_199\n        /* \"contracts/lib/eai/EAI.sol\":9248:9266  uint2String(_time) */\n      jump\t// in\n    tag_198:\n        /* \"contracts/lib/eai/EAI.sol\":9223:9266  string memory strTime  = uint2String(_time) */\n      swap1\n      pop\n        /* \"contracts/lib/eai/EAI.sol\":9310:9312  10 */\n      0x0a\n        /* \"contracts/lib/eai/EAI.sol\":9291:9298  strTime */\n      dup2\n        /* \"contracts/lib/eai/EAI.sol\":9285:9306  bytes(strTime).length */\n      mload\n        /* \"contracts/lib/eai/EAI.sol\":9285:9312  bytes(strTime).length <= 10 */\n      gt\n      iszero\n        /* \"contracts/lib/eai/EAI.sol\":9277:9313  require(bytes(strTime).length <= 10) */\n      tag_200\n      jumpi\n      0x00\n      dup1\n      revert\n    tag_200:\n        /* \"contracts/lib/eai/EAI.sol\":8656:8657  0 */\n      0x00\n        /* \"contracts/lib/eai/EAI.sol\":8637:8645  _timeout */\n      dup6\n        /* \"contracts/lib/eai/EAI.sol\":8637:8653  _timeout.endTime */\n      0x00\n      add\n      mload\n        /* \"contracts/lib/eai/EAI.sol\":8637:8657  _timeout.endTime > 0 */\n      0xffffffff\n      and\n      gt\n        /* \"contracts/lib/eai/EAI.sol\":8629:8696  require(_timeout.endTime > 0, \"There is no endTime set in timeout\") */\n      tag_202\n      jumpi\n      mload(0x40)\n      0x08c379a000000000000000000000000000000000000000000000000000000000\n      dup2\n      mstore\n      0x04\n      add\n      tag_203\n      swap1\n      tag_204\n      jump\t// in\n    tag_203:\n      mload(0x40)\n      dup1\n      swap2\n      sub\n      swap1\n      revert\n    tag_202:\n        /* \"contracts/lib/eai/EAI.sol\":8728:8736  _timeout */\n      dup5\n        /* \"contracts/lib/eai/EAI.sol\":8728:8744  _timeout.endTime */\n      0x00\n      add\n      mload\n        /* \"contracts/lib/eai/EAI.sol\":8714:8744  _accessTime > _timeout.endTime */\n      0xffffffff\n      and\n        /* \"contracts/lib/eai/EAI.sol\":8714:8725  _accessTime */\n      dup5\n        /* \"contracts/lib/eai/EAI.sol\":8714:8744  _accessTime > _timeout.endTime */\n      0xffffffff\n      and\n      gt\n        /* \"contracts/lib/eai/EAI.sol\":8707:8744  return _accessTime > _timeout.endTime */\n      swap3\n      pop\n        /* \"contracts/lib/eai/EAI.sol\":9212:9357  {... */\n      pop\n        /* \"contracts/lib/eai/EAI.sol\":8481:8752  function isTimeoutEnded(Timeout memory _timeout, uint32 _accessTime) internal pure onlyValidAccessTime(_accessTime) returns(bool){        ... */\n      pop\n      swap3\n      swap2\n      pop\n      pop\n      jump\t// out\n        /* \"contracts/lib/eai/EAI.sol\":12322:12488  function decreaseOneOperation_ByTime(MaxNumberOfOperationByTime storage _maxNumberOfOperationByTime) internal  {... */\n    tag_71:\n        /* \"contracts/lib/eai/EAI.sol\":12479:12480  1 */\n      0x01\n        /* \"contracts/lib/eai/EAI.sol\":12444:12471  _maxNumberOfOperationByTime */\n      dup2\n        /* \"contracts/lib/eai/EAI.sol\":12444:12476  _maxNumberOfOperationByTime.rest */\n      0x00\n      add\n      0x09\n        /* \"contracts/lib/eai/EAI.sol\":12444:12480  _maxNumberOfOperationByTime.rest -=1 */\n      dup3\n      dup3\n      dup3\n      swap1\n      sload\n      swap1\n      0x0100\n      exp\n      swap1\n      div\n      0xffffffff\n      and\n      tag_206\n      swap2\n      swap1\n      tag_207\n      jump\t// in\n    tag_206:\n      swap3\n      pop\n      0x0100\n      exp\n      dup2\n      sload\n      dup2\n      0xffffffff\n      mul\n      not\n      and\n      swap1\n      dup4\n      0xffffffff\n      and\n      mul\n      or\n      swap1\n      sstore\n      pop\n        /* \"contracts/lib/eai/EAI.sol\":12322:12488  function decreaseOneOperation_ByTime(MaxNumberOfOperationByTime storage _maxNumberOfOperationByTime) internal  {... */\n      pop\n      jump\t// out\n        /* \"contracts/study-case-contracts/002-orcid/Orcid.sol\":5058:5228  function updateMapParty(address _walletAddress, EAI.Party storage _party)internal returns(bool){       ... */\n    tag_87:\n        /* \"contracts/study-case-contracts/002-orcid/Orcid.sol\":5148:5152  bool */\n      0x00\n        /* \"contracts/study-case-contracts/002-orcid/Orcid.sol\":5198:5204  _party */\n      dup2\n        /* \"contracts/study-case-contracts/002-orcid/Orcid.sol\":5171:5179  mapParty */\n      0x05\n        /* \"contracts/study-case-contracts/002-orcid/Orcid.sol\":5171:5195  mapParty[_walletAddress] */\n      0x00\n        /* \"contracts/study-case-contracts/002-orcid/Orcid.sol\":5180:5194  _walletAddress */\n      dup6\n        /* \"contracts/study-case-contracts/002-orcid/Orcid.sol\":5171:5195  mapParty[_walletAddress] */\n      0xffffffffffffffffffffffffffffffffffffffff\n      and\n      0xffffffffffffffffffffffffffffffffffffffff\n      and\n      dup2\n      mstore\n      0x20\n      add\n      swap1\n      dup2\n      mstore\n      0x20\n      add\n      0x00\n      keccak256\n        /* \"contracts/study-case-contracts/002-orcid/Orcid.sol\":5171:5204  mapParty[_walletAddress] = _party */\n      0x00\n      dup3\n      add\n      dup2\n      0x00\n      add\n      swap1\n      dup1\n      sload\n      tag_209\n      swap1\n      tag_155\n      jump\t// in\n    tag_209:\n      tag_210\n      swap3\n      swap2\n      swap1\n      tag_211\n      jump\t// in\n    tag_210:\n      pop\n      0x01\n      dup3\n      add\n      0x00\n      swap1\n      sload\n      swap1\n      0x0100\n      exp\n      swap1\n      div\n      0xffffffffffffffffffffffffffffffffffffffff\n      and\n      dup2\n      0x01\n      add\n      exp(0x0100, 0x00)\n      dup2\n      sload\n      dup2\n      0xffffffffffffffffffffffffffffffffffffffff\n      mul\n      not\n      and\n      swap1\n      dup4\n      0xffffffffffffffffffffffffffffffffffffffff\n      and\n      mul\n      or\n      swap1\n      sstore\n      pop\n      0x01\n      dup3\n      add\n      0x14\n      swap1\n      sload\n      swap1\n      0x0100\n      exp\n      swap1\n      div\n      0xff\n      and\n      dup2\n      0x01\n      add\n      exp(0x0100, 0x14)\n      dup2\n      sload\n      dup2\n      0xff\n      mul\n      not\n      and\n      swap1\n      dup4\n      iszero\n      iszero\n      mul\n      or\n      swap1\n      sstore\n      pop\n      swap1\n      pop\n      pop\n        /* \"contracts/study-case-contracts/002-orcid/Orcid.sol\":5216:5220  true */\n      0x01\n        /* \"contracts/study-case-contracts/002-orcid/Orcid.sol\":5209:5220  return true */\n      swap1\n      pop\n        /* \"contracts/study-case-contracts/002-orcid/Orcid.sol\":5058:5228  function updateMapParty(address _walletAddress, EAI.Party storage _party)internal returns(bool){       ... */\n      swap3\n      swap2\n      pop\n      pop\n      jump\t// out\n        /* \"contracts/lib/eai/EAI.sol\":4231:4788  function isIntoWeekDaysInterval(       ... */\n    tag_113:\n        /* \"contracts/lib/eai/EAI.sol\":4380:4384  bool */\n      0x00\n        /* \"contracts/lib/eai/EAI.sol\":4428:4439  _wdInterval */\n      dup3\n        /* \"contracts/lib/eai/EAI.sol\":4428:4443  _wdInterval.end */\n      0x20\n      add\n      mload\n        /* \"contracts/lib/eai/EAI.sol\":4408:4443  _wdInterval.start < _wdInterval.end */\n      0xff\n      and\n        /* \"contracts/lib/eai/EAI.sol\":4408:4419  _wdInterval */\n      dup4\n        /* \"contracts/lib/eai/EAI.sol\":4408:4425  _wdInterval.start */\n      0x00\n      add\n      mload\n        /* \"contracts/lib/eai/EAI.sol\":4408:4443  _wdInterval.start < _wdInterval.end */\n      0xff\n      and\n      lt\n        /* \"contracts/lib/eai/EAI.sol\":4405:4752  if(_wdInterval.start < _wdInterval.end ){... */\n      iszero\n      tag_213\n      jumpi\n        /* \"contracts/lib/eai/EAI.sol\":4485:4496  _wdInterval */\n      dup3\n        /* \"contracts/lib/eai/EAI.sol\":4485:4502  _wdInterval.start */\n      0x00\n      add\n      mload\n        /* \"contracts/lib/eai/EAI.sol\":4467:4502  _weekDayAccess >= _wdInterval.start */\n      0xff\n      and\n        /* \"contracts/lib/eai/EAI.sol\":4467:4481  _weekDayAccess */\n      dup3\n        /* \"contracts/lib/eai/EAI.sol\":4467:4502  _weekDayAccess >= _wdInterval.start */\n      0xff\n      and\n      lt\n      iszero\n        /* \"contracts/lib/eai/EAI.sol\":4467:4539  _weekDayAccess >= _wdInterval.start &&  _weekDayAccess<= _wdInterval.end */\n      dup1\n      iszero\n      tag_214\n      jumpi\n      pop\n        /* \"contracts/lib/eai/EAI.sol\":4524:4535  _wdInterval */\n      dup3\n        /* \"contracts/lib/eai/EAI.sol\":4524:4539  _wdInterval.end */\n      0x20\n      add\n      mload\n        /* \"contracts/lib/eai/EAI.sol\":4507:4539  _weekDayAccess<= _wdInterval.end */\n      0xff\n      and\n        /* \"contracts/lib/eai/EAI.sol\":4507:4521  _weekDayAccess */\n      dup3\n        /* \"contracts/lib/eai/EAI.sol\":4507:4539  _weekDayAccess<= _wdInterval.end */\n      0xff\n      and\n      gt\n      iszero\n        /* \"contracts/lib/eai/EAI.sol\":4467:4539  _weekDayAccess >= _wdInterval.start &&  _weekDayAccess<= _wdInterval.end */\n    tag_214:\n        /* \"contracts/lib/eai/EAI.sol\":4464:4586  if(_weekDayAccess >= _wdInterval.start &&  _weekDayAccess<= _wdInterval.end){... */\n      iszero\n      tag_215\n      jumpi\n        /* \"contracts/lib/eai/EAI.sol\":4566:4570  true */\n      0x01\n        /* \"contracts/lib/eai/EAI.sol\":4559:4570  return true */\n      swap1\n      pop\n      jump(tag_212)\n        /* \"contracts/lib/eai/EAI.sol\":4464:4586  if(_weekDayAccess >= _wdInterval.start &&  _weekDayAccess<= _wdInterval.end){... */\n    tag_215:\n        /* \"contracts/lib/eai/EAI.sol\":4405:4752  if(_wdInterval.start < _wdInterval.end ){... */\n      jump(tag_216)\n    tag_213:\n        /* \"contracts/lib/eai/EAI.sol\":4638:4649  _wdInterval */\n      dup3\n        /* \"contracts/lib/eai/EAI.sol\":4638:4655  _wdInterval.start */\n      0x00\n      add\n      mload\n        /* \"contracts/lib/eai/EAI.sol\":4620:4655  _weekDayAccess >= _wdInterval.start */\n      0xff\n      and\n        /* \"contracts/lib/eai/EAI.sol\":4620:4634  _weekDayAccess */\n      dup3\n        /* \"contracts/lib/eai/EAI.sol\":4620:4655  _weekDayAccess >= _wdInterval.start */\n      0xff\n      and\n      lt\n      iszero\n        /* \"contracts/lib/eai/EAI.sol\":4620:4691  _weekDayAccess >= _wdInterval.start ||  _weekDayAccess<=_wdInterval.end */\n      dup1\n      tag_217\n      jumpi\n      pop\n        /* \"contracts/lib/eai/EAI.sol\":4676:4687  _wdInterval */\n      dup3\n        /* \"contracts/lib/eai/EAI.sol\":4676:4691  _wdInterval.end */\n      0x20\n      add\n      mload\n        /* \"contracts/lib/eai/EAI.sol\":4660:4691  _weekDayAccess<=_wdInterval.end */\n      0xff\n      and\n        /* \"contracts/lib/eai/EAI.sol\":4660:4674  _weekDayAccess */\n      dup3\n        /* \"contracts/lib/eai/EAI.sol\":4660:4691  _weekDayAccess<=_wdInterval.end */\n      0xff\n      and\n      gt\n      iszero\n        /* \"contracts/lib/eai/EAI.sol\":4620:4691  _weekDayAccess >= _wdInterval.start ||  _weekDayAccess<=_wdInterval.end */\n    tag_217:\n        /* \"contracts/lib/eai/EAI.sol\":4617:4738  if(_weekDayAccess >= _wdInterval.start ||  _weekDayAccess<=_wdInterval.end){... */\n      iszero\n      tag_218\n      jumpi\n        /* \"contracts/lib/eai/EAI.sol\":4718:4722  true */\n      0x01\n        /* \"contracts/lib/eai/EAI.sol\":4711:4722  return true */\n      swap1\n      pop\n      jump(tag_212)\n        /* \"contracts/lib/eai/EAI.sol\":4617:4738  if(_weekDayAccess >= _wdInterval.start ||  _weekDayAccess<=_wdInterval.end){... */\n    tag_218:\n        /* \"contracts/lib/eai/EAI.sol\":4405:4752  if(_wdInterval.start < _wdInterval.end ){... */\n    tag_216:\n        /* \"contracts/lib/eai/EAI.sol\":4776:4781  false */\n      0x00\n        /* \"contracts/lib/eai/EAI.sol\":4769:4781  return false */\n      swap1\n      pop\n        /* \"contracts/lib/eai/EAI.sol\":4231:4788  function isIntoWeekDaysInterval(       ... */\n    tag_212:\n      swap3\n      swap2\n      pop\n      pop\n      jump\t// out\n        /* \"contracts/lib/eai/EAI.sol\":6952:7434  function isIntoTimeInterval(... */\n    tag_119:\n        /* \"contracts/lib/eai/EAI.sol\":7084:7088  bool */\n      0x00\n        /* \"contracts/lib/eai/EAI.sol\":7124:7127  _ti */\n      dup3\n        /* \"contracts/lib/eai/EAI.sol\":7124:7131  _ti.end */\n      0x20\n      add\n      mload\n        /* \"contracts/lib/eai/EAI.sol\":7112:7131  _ti.start < _ti.end */\n      0xffffffff\n      and\n        /* \"contracts/lib/eai/EAI.sol\":7112:7115  _ti */\n      dup4\n        /* \"contracts/lib/eai/EAI.sol\":7112:7121  _ti.start */\n      0x00\n      add\n      mload\n        /* \"contracts/lib/eai/EAI.sol\":7112:7131  _ti.start < _ti.end */\n      0xffffffff\n      and\n      lt\n        /* \"contracts/lib/eai/EAI.sol\":7109:7398  if(_ti.start < _ti.end ){... */\n      iszero\n      tag_220\n      jumpi\n        /* \"contracts/lib/eai/EAI.sol\":7170:7173  _ti */\n      dup3\n        /* \"contracts/lib/eai/EAI.sol\":7170:7179  _ti.start */\n      0x00\n      add\n      mload\n        /* \"contracts/lib/eai/EAI.sol\":7155:7179  _timeAccess >= _ti.start */\n      0xffffffff\n      and\n        /* \"contracts/lib/eai/EAI.sol\":7155:7166  _timeAccess */\n      dup3\n        /* \"contracts/lib/eai/EAI.sol\":7155:7179  _timeAccess >= _ti.start */\n      0xffffffff\n      and\n      lt\n      iszero\n        /* \"contracts/lib/eai/EAI.sol\":7155:7206  _timeAccess >= _ti.start &&  _timeAccess <= _ti.end */\n      dup1\n      iszero\n      tag_221\n      jumpi\n      pop\n        /* \"contracts/lib/eai/EAI.sol\":7199:7202  _ti */\n      dup3\n        /* \"contracts/lib/eai/EAI.sol\":7199:7206  _ti.end */\n      0x20\n      add\n      mload\n        /* \"contracts/lib/eai/EAI.sol\":7184:7206  _timeAccess <= _ti.end */\n      0xffffffff\n      and\n        /* \"contracts/lib/eai/EAI.sol\":7184:7195  _timeAccess */\n      dup3\n        /* \"contracts/lib/eai/EAI.sol\":7184:7206  _timeAccess <= _ti.end */\n      0xffffffff\n      and\n      gt\n      iszero\n        /* \"contracts/lib/eai/EAI.sol\":7155:7206  _timeAccess >= _ti.start &&  _timeAccess <= _ti.end */\n    tag_221:\n        /* \"contracts/lib/eai/EAI.sol\":7152:7253  if(_timeAccess >= _ti.start &&  _timeAccess <= _ti.end){... */\n      iszero\n      tag_222\n      jumpi\n        /* \"contracts/lib/eai/EAI.sol\":7233:7237  true */\n      0x01\n        /* \"contracts/lib/eai/EAI.sol\":7226:7237  return true */\n      swap1\n      pop\n      jump(tag_219)\n        /* \"contracts/lib/eai/EAI.sol\":7152:7253  if(_timeAccess >= _ti.start &&  _timeAccess <= _ti.end){... */\n    tag_222:\n        /* \"contracts/lib/eai/EAI.sol\":7109:7398  if(_ti.start < _ti.end ){... */\n      jump(tag_223)\n    tag_220:\n        /* \"contracts/lib/eai/EAI.sol\":7302:7305  _ti */\n      dup3\n        /* \"contracts/lib/eai/EAI.sol\":7302:7311  _ti.start */\n      0x00\n      add\n      mload\n        /* \"contracts/lib/eai/EAI.sol\":7287:7311  _timeAccess >= _ti.start */\n      0xffffffff\n      and\n        /* \"contracts/lib/eai/EAI.sol\":7287:7298  _timeAccess */\n      dup3\n        /* \"contracts/lib/eai/EAI.sol\":7287:7311  _timeAccess >= _ti.start */\n      0xffffffff\n      and\n      lt\n      iszero\n        /* \"contracts/lib/eai/EAI.sol\":7287:7337  _timeAccess >= _ti.start ||  _timeAccess <=_ti.end */\n      dup1\n      tag_224\n      jumpi\n      pop\n        /* \"contracts/lib/eai/EAI.sol\":7330:7333  _ti */\n      dup3\n        /* \"contracts/lib/eai/EAI.sol\":7330:7337  _ti.end */\n      0x20\n      add\n      mload\n        /* \"contracts/lib/eai/EAI.sol\":7316:7337  _timeAccess <=_ti.end */\n      0xffffffff\n      and\n        /* \"contracts/lib/eai/EAI.sol\":7316:7327  _timeAccess */\n      dup3\n        /* \"contracts/lib/eai/EAI.sol\":7316:7337  _timeAccess <=_ti.end */\n      0xffffffff\n      and\n      gt\n      iszero\n        /* \"contracts/lib/eai/EAI.sol\":7287:7337  _timeAccess >= _ti.start ||  _timeAccess <=_ti.end */\n    tag_224:\n        /* \"contracts/lib/eai/EAI.sol\":7284:7384  if(_timeAccess >= _ti.start ||  _timeAccess <=_ti.end){... */\n      iszero\n      tag_225\n      jumpi\n        /* \"contracts/lib/eai/EAI.sol\":7364:7368  true */\n      0x01\n        /* \"contracts/lib/eai/EAI.sol\":7357:7368  return true */\n      swap1\n      pop\n      jump(tag_219)\n        /* \"contracts/lib/eai/EAI.sol\":7284:7384  if(_timeAccess >= _ti.start ||  _timeAccess <=_ti.end){... */\n    tag_225:\n        /* \"contracts/lib/eai/EAI.sol\":7109:7398  if(_ti.start < _ti.end ){... */\n    tag_223:\n        /* \"contracts/lib/eai/EAI.sol\":7422:7427  false */\n      0x00\n        /* \"contracts/lib/eai/EAI.sol\":7415:7427  return false */\n      swap1\n      pop\n        /* \"contracts/lib/eai/EAI.sol\":6952:7434  function isIntoTimeInterval(... */\n    tag_219:\n      swap3\n      swap2\n      pop\n      pop\n      jump\t// out\n        /* \"contracts/lib/eai/EAI.sol\":11566:12140  function hasAvailableOperations_ByTime(... */\n    tag_125:\n        /* \"contracts/lib/eai/EAI.sol\":11739:11743  bool */\n      0x00\n        /* \"contracts/lib/eai/EAI.sol\":11768:11892  isAccessDatetimeOutOfOldInterval(_maxNumberOfOperationByTime.timeUnit, _maxNumberOfOperationByTime.endTime, _accessDateTime) */\n      tag_227\n        /* \"contracts/lib/eai/EAI.sol\":11801:11828  _maxNumberOfOperationByTime */\n      dup4\n        /* \"contracts/lib/eai/EAI.sol\":11801:11837  _maxNumberOfOperationByTime.timeUnit */\n      0x00\n      add\n      0x04\n      swap1\n      sload\n      swap1\n      0x0100\n      exp\n      swap1\n      div\n      0xff\n      and\n        /* \"contracts/lib/eai/EAI.sol\":11839:11866  _maxNumberOfOperationByTime */\n      dup5\n        /* \"contracts/lib/eai/EAI.sol\":11839:11874  _maxNumberOfOperationByTime.endTime */\n      0x00\n      add\n      0x0d\n      swap1\n      sload\n      swap1\n      0x0100\n      exp\n      swap1\n      div\n      0xffffffff\n      and\n        /* \"contracts/lib/eai/EAI.sol\":11876:11891  _accessDateTime */\n      dup5\n        /* \"contracts/lib/eai/EAI.sol\":11768:11800  isAccessDatetimeOutOfOldInterval */\n      tag_228\n        /* \"contracts/lib/eai/EAI.sol\":11768:11892  isAccessDatetimeOutOfOldInterval(_maxNumberOfOperationByTime.timeUnit, _maxNumberOfOperationByTime.endTime, _accessDateTime) */\n      jump\t// in\n    tag_227:\n        /* \"contracts/lib/eai/EAI.sol\":11765:12002  if(isAccessDatetimeOutOfOldInterval(_maxNumberOfOperationByTime.timeUnit, _maxNumberOfOperationByTime.endTime, _accessDateTime)){... */\n      iszero\n      tag_229\n      jumpi\n        /* \"contracts/lib/eai/EAI.sol\":11912:11990  setNewEndTimeAndRestOfOperations(_maxNumberOfOperationByTime, _accessDateTime) */\n      tag_230\n        /* \"contracts/lib/eai/EAI.sol\":11945:11972  _maxNumberOfOperationByTime */\n      dup4\n        /* \"contracts/lib/eai/EAI.sol\":11974:11989  _accessDateTime */\n      dup4\n        /* \"contracts/lib/eai/EAI.sol\":11912:11944  setNewEndTimeAndRestOfOperations */\n      tag_231\n        /* \"contracts/lib/eai/EAI.sol\":11912:11990  setNewEndTimeAndRestOfOperations(_maxNumberOfOperationByTime, _accessDateTime) */\n      jump\t// in\n    tag_230:\n        /* \"contracts/lib/eai/EAI.sol\":11765:12002  if(isAccessDatetimeOutOfOldInterval(_maxNumberOfOperationByTime.timeUnit, _maxNumberOfOperationByTime.endTime, _accessDateTime)){... */\n    tag_229:\n        /* \"contracts/lib/eai/EAI.sol\":12060:12061  0 */\n      0x00\n        /* \"contracts/lib/eai/EAI.sol\":12025:12052  _maxNumberOfOperationByTime */\n      dup4\n        /* \"contracts/lib/eai/EAI.sol\":12025:12057  _maxNumberOfOperationByTime.rest */\n      0x00\n      add\n      0x09\n      swap1\n      sload\n      swap1\n      0x0100\n      exp\n      swap1\n      div\n      0xffffffff\n      and\n        /* \"contracts/lib/eai/EAI.sol\":12025:12061  _maxNumberOfOperationByTime.rest > 0 */\n      0xffffffff\n      and\n      gt\n        /* \"contracts/lib/eai/EAI.sol\":12022:12110  if(_maxNumberOfOperationByTime.rest > 0){          ... */\n      iszero\n      tag_232\n      jumpi\n        /* \"contracts/lib/eai/EAI.sol\":12094:12098  true */\n      0x01\n        /* \"contracts/lib/eai/EAI.sol\":12087:12098  return true */\n      swap1\n      pop\n      jump(tag_226)\n        /* \"contracts/lib/eai/EAI.sol\":12022:12110  if(_maxNumberOfOperationByTime.rest > 0){          ... */\n    tag_232:\n        /* \"contracts/lib/eai/EAI.sol\":12127:12132  false */\n      0x00\n        /* \"contracts/lib/eai/EAI.sol\":12120:12132  return false */\n      swap1\n      pop\n        /* \"contracts/lib/eai/EAI.sol\":11566:12140  function hasAvailableOperations_ByTime(... */\n    tag_226:\n      swap3\n      swap2\n      pop\n      pop\n      jump\t// out\n        /* \"contracts/lib/eai/EAI.sol\":8894:9087  function setEndTimeInTimeout(Timeout storage _timeout, uint32 _startTime)internal onlyValidAccessTime(_startTime){      ... */\n    tag_131:\n        /* \"contracts/lib/eai/EAI.sol\":8996:9006  _startTime */\n      dup1\n        /* \"contracts/lib/eai/EAI.sol\":9223:9244  string memory strTime */\n      0x00\n        /* \"contracts/lib/eai/EAI.sol\":9248:9266  uint2String(_time) */\n      tag_234\n        /* \"contracts/lib/eai/EAI.sol\":9260:9265  _time */\n      dup3\n        /* \"contracts/lib/eai/EAI.sol\":9248:9266  uint2String(_time) */\n      0xffffffff\n      and\n        /* \"contracts/lib/eai/EAI.sol\":9248:9259  uint2String */\n      tag_199\n        /* \"contracts/lib/eai/EAI.sol\":9248:9266  uint2String(_time) */\n      jump\t// in\n    tag_234:\n        /* \"contracts/lib/eai/EAI.sol\":9223:9266  string memory strTime  = uint2String(_time) */\n      swap1\n      pop\n        /* \"contracts/lib/eai/EAI.sol\":9310:9312  10 */\n      0x0a\n        /* \"contracts/lib/eai/EAI.sol\":9291:9298  strTime */\n      dup2\n        /* \"contracts/lib/eai/EAI.sol\":9285:9306  bytes(strTime).length */\n      mload\n        /* \"contracts/lib/eai/EAI.sol\":9285:9312  bytes(strTime).length <= 10 */\n      gt\n      iszero\n        /* \"contracts/lib/eai/EAI.sol\":9277:9313  require(bytes(strTime).length <= 10) */\n      tag_235\n      jumpi\n      0x00\n      dup1\n      revert\n    tag_235:\n        /* \"contracts/lib/eai/EAI.sol\":9056:9064  _timeout */\n      dup4\n        /* \"contracts/lib/eai/EAI.sol\":9056:9078  _timeout.timeIncrement */\n      0x00\n      add\n      0x04\n      swap1\n      sload\n      swap1\n      0x0100\n      exp\n      swap1\n      div\n      0xffffffff\n      and\n        /* \"contracts/lib/eai/EAI.sol\":9043:9053  _startTime */\n      dup4\n        /* \"contracts/lib/eai/EAI.sol\":9043:9078  _startTime + _timeout.timeIncrement */\n      tag_237\n      swap2\n      swap1\n      tag_238\n      jump\t// in\n    tag_237:\n        /* \"contracts/lib/eai/EAI.sol\":9024:9032  _timeout */\n      dup5\n        /* \"contracts/lib/eai/EAI.sol\":9024:9040  _timeout.endTime */\n      0x00\n      add\n      0x00\n        /* \"contracts/lib/eai/EAI.sol\":9024:9078  _timeout.endTime = _startTime + _timeout.timeIncrement */\n      0x0100\n      exp\n      dup2\n      sload\n      dup2\n      0xffffffff\n      mul\n      not\n      and\n      swap1\n      dup4\n      0xffffffff\n      and\n      mul\n      or\n      swap1\n      sstore\n      pop\n        /* \"contracts/lib/eai/EAI.sol\":9212:9357  {... */\n      pop\n        /* \"contracts/lib/eai/EAI.sol\":8894:9087  function setEndTimeInTimeout(Timeout storage _timeout, uint32 _startTime)internal onlyValidAccessTime(_startTime){      ... */\n      pop\n      pop\n      pop\n      jump\t// out\n        /* \"contracts/lib/eai/EAI.sol\":25379:25928  function getTimeInSeconds(uint8 timeUnit) private pure returns(uint32){... */\n    tag_189:\n        /* \"contracts/lib/eai/EAI.sol\":25442:25448  uint32 */\n      0x00\n        /* \"contracts/lib/eai/EAI.sol\":784:785  4 */\n      0x04\n        /* \"contracts/lib/eai/EAI.sol\":25522:25538  timeUnit <= WEEK */\n      0xff\n      and\n        /* \"contracts/lib/eai/EAI.sol\":25522:25530  timeUnit */\n      dup3\n        /* \"contracts/lib/eai/EAI.sol\":25522:25538  timeUnit <= WEEK */\n      0xff\n      and\n      gt\n      iszero\n        /* \"contracts/lib/eai/EAI.sol\":25514:25602  require(timeUnit <= WEEK, \"The method getTimeInSeconds doesn't work for MONTH and YEAR\") */\n      tag_240\n      jumpi\n      mload(0x40)\n      0x08c379a000000000000000000000000000000000000000000000000000000000\n      dup2\n      mstore\n      0x04\n      add\n      tag_241\n      swap1\n      tag_242\n      jump\t// in\n    tag_241:\n      mload(0x40)\n      dup1\n      swap2\n      sub\n      swap1\n      revert\n    tag_240:\n        /* \"contracts/lib/eai/EAI.sol\":666:667  0 */\n      0x00\n        /* \"contracts/lib/eai/EAI.sol\":25618:25636  timeUnit == SECOND */\n      0xff\n      and\n        /* \"contracts/lib/eai/EAI.sol\":25618:25626  timeUnit */\n      dup3\n        /* \"contracts/lib/eai/EAI.sol\":25618:25636  timeUnit == SECOND */\n      0xff\n      and\n      sub\n        /* \"contracts/lib/eai/EAI.sol\":25615:25921  if(timeUnit == SECOND){... */\n      tag_243\n      jumpi\n        /* \"contracts/lib/eai/EAI.sol\":25659:25660  1 */\n      0x01\n        /* \"contracts/lib/eai/EAI.sol\":25652:25660  return 1 */\n      swap1\n      pop\n      jump(tag_239)\n        /* \"contracts/lib/eai/EAI.sol\":25615:25921  if(timeUnit == SECOND){... */\n    tag_243:\n        /* \"contracts/lib/eai/EAI.sol\":698:699  1 */\n      0x01\n        /* \"contracts/lib/eai/EAI.sol\":25680:25698  timeUnit == MINUTE */\n      0xff\n      and\n        /* \"contracts/lib/eai/EAI.sol\":25680:25688  timeUnit */\n      dup3\n        /* \"contracts/lib/eai/EAI.sol\":25680:25698  timeUnit == MINUTE */\n      0xff\n      and\n      sub\n        /* \"contracts/lib/eai/EAI.sol\":25677:25921  if(timeUnit == MINUTE){... */\n      tag_245\n      jumpi\n        /* \"contracts/lib/eai/EAI.sol\":25721:25723  60 */\n      0x3c\n        /* \"contracts/lib/eai/EAI.sol\":25714:25723  return 60 */\n      swap1\n      pop\n      jump(tag_239)\n        /* \"contracts/lib/eai/EAI.sol\":25677:25921  if(timeUnit == MINUTE){... */\n    tag_245:\n        /* \"contracts/lib/eai/EAI.sol\":727:728  2 */\n      0x02\n        /* \"contracts/lib/eai/EAI.sol\":25743:25759  timeUnit == HOUR */\n      0xff\n      and\n        /* \"contracts/lib/eai/EAI.sol\":25743:25751  timeUnit */\n      dup3\n        /* \"contracts/lib/eai/EAI.sol\":25743:25759  timeUnit == HOUR */\n      0xff\n      and\n      sub\n        /* \"contracts/lib/eai/EAI.sol\":25740:25921  if(timeUnit == HOUR ){... */\n      tag_247\n      jumpi\n        /* \"contracts/lib/eai/EAI.sol\":25783:25788  60*60 */\n      0x0e10\n        /* \"contracts/lib/eai/EAI.sol\":25776:25788  return 60*60 */\n      swap1\n      pop\n      jump(tag_239)\n        /* \"contracts/lib/eai/EAI.sol\":25740:25921  if(timeUnit == HOUR ){... */\n    tag_247:\n        /* \"contracts/lib/eai/EAI.sol\":755:756  3 */\n      0x03\n        /* \"contracts/lib/eai/EAI.sol\":25808:25823  timeUnit == DAY */\n      0xff\n      and\n        /* \"contracts/lib/eai/EAI.sol\":25808:25816  timeUnit */\n      dup3\n        /* \"contracts/lib/eai/EAI.sol\":25808:25823  timeUnit == DAY */\n      0xff\n      and\n      sub\n        /* \"contracts/lib/eai/EAI.sol\":25805:25921  if(timeUnit == DAY){... */\n      tag_249\n      jumpi\n        /* \"contracts/lib/eai/EAI.sol\":25846:25854  60*60*24 */\n      0x015180\n        /* \"contracts/lib/eai/EAI.sol\":25839:25854  return 60*60*24 */\n      swap1\n      pop\n      jump(tag_239)\n        /* \"contracts/lib/eai/EAI.sol\":25805:25921  if(timeUnit == DAY){... */\n    tag_249:\n        /* \"contracts/lib/eai/EAI.sol\":25892:25902  60*60*24*7 */\n      0x093a80\n        /* \"contracts/lib/eai/EAI.sol\":25885:25902  return 60*60*24*7 */\n      swap1\n      pop\n        /* \"contracts/lib/eai/EAI.sol\":25379:25928  function getTimeInSeconds(uint8 timeUnit) private pure returns(uint32){... */\n    tag_239:\n      swap2\n      swap1\n      pop\n      jump\t// out\n        /* \"contracts/lib/eai/EAI.sol\":29437:29982  function uint2String(uint256 value) internal pure returns (string memory) {... */\n    tag_199:\n        /* \"contracts/lib/eai/EAI.sol\":29496:29509  string memory */\n      0x60\n        /* \"contracts/lib/eai/EAI.sol\":29545:29546  0 */\n      0x00\n        /* \"contracts/lib/eai/EAI.sol\":29536:29541  value */\n      dup3\n        /* \"contracts/lib/eai/EAI.sol\":29536:29546  value == 0 */\n      sub\n        /* \"contracts/lib/eai/EAI.sol\":29532:29585  if (value == 0) {... */\n      tag_252\n      jumpi\n        /* \"contracts/lib/eai/EAI.sol\":29563:29573  return \"0\" */\n      mload(0x40)\n      dup1\n      0x40\n      add\n      0x40\n      mstore\n      dup1\n      0x01\n      dup2\n      mstore\n      0x20\n      add\n      0x3000000000000000000000000000000000000000000000000000000000000000\n      dup2\n      mstore\n      pop\n      swap1\n      pop\n      jump(tag_251)\n        /* \"contracts/lib/eai/EAI.sol\":29532:29585  if (value == 0) {... */\n    tag_252:\n        /* \"contracts/lib/eai/EAI.sol\":29595:29607  uint256 temp */\n      0x00\n        /* \"contracts/lib/eai/EAI.sol\":29610:29615  value */\n      dup3\n        /* \"contracts/lib/eai/EAI.sol\":29595:29615  uint256 temp = value */\n      swap1\n      pop\n        /* \"contracts/lib/eai/EAI.sol\":29626:29640  uint256 digits */\n      0x00\n        /* \"contracts/lib/eai/EAI.sol\":29651:29729  while (temp != 0) {... */\n    tag_253:\n        /* \"contracts/lib/eai/EAI.sol\":29666:29667  0 */\n      0x00\n        /* \"contracts/lib/eai/EAI.sol\":29658:29662  temp */\n      dup3\n        /* \"contracts/lib/eai/EAI.sol\":29658:29667  temp != 0 */\n      eq\n        /* \"contracts/lib/eai/EAI.sol\":29651:29729  while (temp != 0) {... */\n      tag_254\n      jumpi\n        /* \"contracts/lib/eai/EAI.sol\":29684:29692  digits++ */\n      dup1\n      dup1\n      tag_255\n      swap1\n      tag_256\n      jump\t// in\n    tag_255:\n      swap2\n      pop\n      pop\n        /* \"contracts/lib/eai/EAI.sol\":29715:29717  10 */\n      0x0a\n        /* \"contracts/lib/eai/EAI.sol\":29707:29717  temp /= 10 */\n      dup3\n      tag_257\n      swap2\n      swap1\n      tag_258\n      jump\t// in\n    tag_257:\n      swap2\n      pop\n        /* \"contracts/lib/eai/EAI.sol\":29651:29729  while (temp != 0) {... */\n      jump(tag_253)\n    tag_254:\n        /* \"contracts/lib/eai/EAI.sol\":29739:29758  bytes memory buffer */\n      0x00\n        /* \"contracts/lib/eai/EAI.sol\":29771:29777  digits */\n      dup2\n        /* \"contracts/lib/eai/EAI.sol\":29761:29778  new bytes(digits) */\n      0xffffffffffffffff\n      dup2\n      gt\n      iszero\n      tag_259\n      jumpi\n      tag_260\n      tag_261\n      jump\t// in\n    tag_260:\n    tag_259:\n      mload(0x40)\n      swap1\n      dup1\n      dup3\n      mstore\n      dup1\n      0x1f\n      add\n      not(0x1f)\n      and\n      0x20\n      add\n      dup3\n      add\n      0x40\n      mstore\n      dup1\n      iszero\n      tag_262\n      jumpi\n      dup2\n      0x20\n      add\n      0x01\n      dup3\n      mul\n      dup1\n      calldatasize\n      dup4\n      calldatacopy\n      dup1\n      dup3\n      add\n      swap2\n      pop\n      pop\n      swap1\n      pop\n    tag_262:\n      pop\n        /* \"contracts/lib/eai/EAI.sol\":29739:29778  bytes memory buffer = new bytes(digits) */\n      swap1\n      pop\n        /* \"contracts/lib/eai/EAI.sol\":29789:29943  while (value != 0) {... */\n    tag_263:\n        /* \"contracts/lib/eai/EAI.sol\":29805:29806  0 */\n      0x00\n        /* \"contracts/lib/eai/EAI.sol\":29796:29801  value */\n      dup6\n        /* \"contracts/lib/eai/EAI.sol\":29796:29806  value != 0 */\n      eq\n        /* \"contracts/lib/eai/EAI.sol\":29789:29943  while (value != 0) {... */\n      tag_264\n      jumpi\n        /* \"contracts/lib/eai/EAI.sol\":29833:29834  1 */\n      0x01\n        /* \"contracts/lib/eai/EAI.sol\":29823:29834  digits -= 1 */\n      dup3\n      tag_265\n      swap2\n      swap1\n      tag_266\n      jump\t// in\n    tag_265:\n      swap2\n      pop\n        /* \"contracts/lib/eai/EAI.sol\":29900:29902  10 */\n      0x0a\n        /* \"contracts/lib/eai/EAI.sol\":29892:29897  value */\n      dup6\n        /* \"contracts/lib/eai/EAI.sol\":29892:29902  value % 10 */\n      tag_267\n      swap2\n      swap1\n      tag_268\n      jump\t// in\n    tag_267:\n        /* \"contracts/lib/eai/EAI.sol\":29879:29881  48 */\n      0x30\n        /* \"contracts/lib/eai/EAI.sol\":29879:29903  48 + uint256(value % 10) */\n      tag_269\n      swap2\n      swap1\n      tag_270\n      jump\t// in\n    tag_269:\n        /* \"contracts/lib/eai/EAI.sol\":29866:29905  bytes1(uint8(48 + uint256(value % 10))) */\n      0xf8\n      shl\n        /* \"contracts/lib/eai/EAI.sol\":29849:29855  buffer */\n      dup2\n        /* \"contracts/lib/eai/EAI.sol\":29856:29862  digits */\n      dup4\n        /* \"contracts/lib/eai/EAI.sol\":29849:29863  buffer[digits] */\n      dup2\n      mload\n      dup2\n      lt\n      tag_271\n      jumpi\n      tag_272\n      tag_60\n      jump\t// in\n    tag_272:\n    tag_271:\n      0x20\n      add\n      add\n        /* \"contracts/lib/eai/EAI.sol\":29849:29905  buffer[digits] = bytes1(uint8(48 + uint256(value % 10))) */\n      swap1\n      not(0xffffffffffffffffffffffffffffffffffffffffffffffffffffffffffffff)\n      and\n      swap1\n      dup2\n      0x00\n      byte\n      swap1\n      mstore8\n      pop\n        /* \"contracts/lib/eai/EAI.sol\":29929:29931  10 */\n      0x0a\n        /* \"contracts/lib/eai/EAI.sol\":29920:29931  value /= 10 */\n      dup6\n      tag_273\n      swap2\n      swap1\n      tag_258\n      jump\t// in\n    tag_273:\n      swap5\n      pop\n        /* \"contracts/lib/eai/EAI.sol\":29789:29943  while (value != 0) {... */\n      jump(tag_263)\n    tag_264:\n        /* \"contracts/lib/eai/EAI.sol\":29967:29973  buffer */\n      dup1\n        /* \"contracts/lib/eai/EAI.sol\":29953:29974  return string(buffer) */\n      swap4\n      pop\n      pop\n      pop\n      pop\n        /* \"contracts/lib/eai/EAI.sol\":29437:29982  function uint2String(uint256 value) internal pure returns (string memory) {... */\n    tag_251:\n      swap2\n      swap1\n      pop\n      jump\t// out\n        /* \"contracts/lib/eai/EAI.sol\":23503:24191  function isAccessDatetimeOutOfOldInterval(uint8 _timeUnit, uint32 _endTime, ... */\n    tag_228:\n        /* \"contracts/lib/eai/EAI.sol\":23645:23649  bool */\n      0x00\n        /* \"contracts/lib/eai/EAI.sol\":23672:23686  uint8 timeUnit */\n      dup1\n        /* \"contracts/lib/eai/EAI.sol\":23689:23698  _timeUnit */\n      dup5\n        /* \"contracts/lib/eai/EAI.sol\":23672:23698  uint8 timeUnit = _timeUnit */\n      swap1\n      pop\n        /* \"contracts/lib/eai/EAI.sol\":784:785  4 */\n      0x04\n        /* \"contracts/lib/eai/EAI.sol\":23712:23728  timeUnit <= WEEK */\n      0xff\n      and\n        /* \"contracts/lib/eai/EAI.sol\":23712:23720  timeUnit */\n      dup2\n        /* \"contracts/lib/eai/EAI.sol\":23712:23728  timeUnit <= WEEK */\n      0xff\n      and\n      gt\n        /* \"contracts/lib/eai/EAI.sol\":23709:24053  if(timeUnit <= WEEK){... */\n      tag_275\n      jumpi\n        /* \"contracts/lib/eai/EAI.sol\":23770:23778  _endTime */\n      dup4\n        /* \"contracts/lib/eai/EAI.sol\":23751:23778  _accessDateTime >= _endTime */\n      0xffffffff\n      and\n        /* \"contracts/lib/eai/EAI.sol\":23751:23766  _accessDateTime */\n      dup4\n        /* \"contracts/lib/eai/EAI.sol\":23751:23778  _accessDateTime >= _endTime */\n      0xffffffff\n      and\n      lt\n      iszero\n        /* \"contracts/lib/eai/EAI.sol\":23744:23778  return _accessDateTime >= _endTime */\n      swap2\n      pop\n      pop\n      jump(tag_274)\n        /* \"contracts/lib/eai/EAI.sol\":23709:24053  if(timeUnit <= WEEK){... */\n    tag_275:\n        /* \"contracts/lib/eai/EAI.sol\":814:815  5 */\n      0x05\n        /* \"contracts/lib/eai/EAI.sol\":23799:23816  timeUnit == MONTH */\n      0xff\n      and\n        /* \"contracts/lib/eai/EAI.sol\":23799:23807  timeUnit */\n      dup2\n        /* \"contracts/lib/eai/EAI.sol\":23799:23816  timeUnit == MONTH */\n      0xff\n      and\n      sub\n        /* \"contracts/lib/eai/EAI.sol\":23796:24053  if(timeUnit == MONTH) {            ... */\n      tag_277\n      jumpi\n        /* \"contracts/lib/eai/EAI.sol\":23847:23859  uint32 month */\n      0x00\n        /* \"contracts/lib/eai/EAI.sol\":23864:23896  timeStampToDate(_accessDateTime) */\n      tag_278\n        /* \"contracts/lib/eai/EAI.sol\":23880:23895  _accessDateTime */\n      dup5\n        /* \"contracts/lib/eai/EAI.sol\":23864:23896  timeStampToDate(_accessDateTime) */\n      0xffffffff\n      and\n        /* \"contracts/lib/eai/EAI.sol\":23864:23879  timeStampToDate */\n      tag_279\n        /* \"contracts/lib/eai/EAI.sol\":23864:23896  timeStampToDate(_accessDateTime) */\n      jump\t// in\n    tag_278:\n        /* \"contracts/lib/eai/EAI.sol\":23845:23896  (,uint32 month,) = timeStampToDate(_accessDateTime) */\n      pop\n      swap2\n      pop\n      pop\n        /* \"contracts/lib/eai/EAI.sol\":23931:23933  13 */\n      0x0d\n        /* \"contracts/lib/eai/EAI.sol\":23919:23927  _endTime */\n      dup6\n        /* \"contracts/lib/eai/EAI.sol\":23919:23933  _endTime == 13 */\n      0xffffffff\n      and\n      eq\n        /* \"contracts/lib/eai/EAI.sol\":23918:23948  (_endTime == 13) && (month==1) */\n      dup1\n      iszero\n      tag_280\n      jumpi\n      pop\n        /* \"contracts/lib/eai/EAI.sol\":23946:23947  1 */\n      0x01\n        /* \"contracts/lib/eai/EAI.sol\":23939:23944  month */\n      dup2\n        /* \"contracts/lib/eai/EAI.sol\":23939:23947  month==1 */\n      0xffffffff\n      and\n      eq\n        /* \"contracts/lib/eai/EAI.sol\":23918:23948  (_endTime == 13) && (month==1) */\n    tag_280:\n        /* \"contracts/lib/eai/EAI.sol\":23915:23995  if((_endTime == 13) && (month==1)){... */\n      iszero\n      tag_281\n      jumpi\n        /* \"contracts/lib/eai/EAI.sol\":23975:23979  true */\n      0x01\n        /* \"contracts/lib/eai/EAI.sol\":23968:23979  return true */\n      swap3\n      pop\n      pop\n      pop\n      jump(tag_274)\n        /* \"contracts/lib/eai/EAI.sol\":23915:23995  if((_endTime == 13) && (month==1)){... */\n    tag_281:\n        /* \"contracts/lib/eai/EAI.sol\":24033:24041  _endTime */\n      dup5\n        /* \"contracts/lib/eai/EAI.sol\":24024:24041  month >= _endTime */\n      0xffffffff\n      and\n        /* \"contracts/lib/eai/EAI.sol\":24024:24029  month */\n      dup2\n        /* \"contracts/lib/eai/EAI.sol\":24024:24041  month >= _endTime */\n      0xffffffff\n      and\n      lt\n      iszero\n        /* \"contracts/lib/eai/EAI.sol\":24017:24041  return month >= _endTime */\n      swap3\n      pop\n      pop\n      pop\n      jump(tag_274)\n        /* \"contracts/lib/eai/EAI.sol\":23796:24053  if(timeUnit == MONTH) {            ... */\n    tag_277:\n        /* \"contracts/lib/eai/EAI.sol\":24099:24110  uint32 year */\n      0x00\n        /* \"contracts/lib/eai/EAI.sol\":24117:24149  timeStampToDate(_accessDateTime) */\n      tag_282\n        /* \"contracts/lib/eai/EAI.sol\":24133:24148  _accessDateTime */\n      dup5\n        /* \"contracts/lib/eai/EAI.sol\":24117:24149  timeStampToDate(_accessDateTime) */\n      0xffffffff\n      and\n        /* \"contracts/lib/eai/EAI.sol\":24117:24132  timeStampToDate */\n      tag_279\n        /* \"contracts/lib/eai/EAI.sol\":24117:24149  timeStampToDate(_accessDateTime) */\n      jump\t// in\n    tag_282:\n        /* \"contracts/lib/eai/EAI.sol\":24098:24149  (uint32 year, ,) = timeStampToDate(_accessDateTime) */\n      pop\n      pop\n      swap1\n      pop\n        /* \"contracts/lib/eai/EAI.sol\":24175:24183  _endTime */\n      dup5\n        /* \"contracts/lib/eai/EAI.sol\":24167:24183  year >= _endTime */\n      0xffffffff\n      and\n        /* \"contracts/lib/eai/EAI.sol\":24167:24171  year */\n      dup2\n        /* \"contracts/lib/eai/EAI.sol\":24167:24183  year >= _endTime */\n      0xffffffff\n      and\n      lt\n      iszero\n        /* \"contracts/lib/eai/EAI.sol\":24160:24183  return year >= _endTime */\n      swap3\n      pop\n      pop\n      pop\n        /* \"contracts/lib/eai/EAI.sol\":23503:24191  function isAccessDatetimeOutOfOldInterval(uint8 _timeUnit, uint32 _endTime, ... */\n    tag_274:\n      swap4\n      swap3\n      pop\n      pop\n      pop\n      jump\t// out\n        /* \"contracts/lib/eai/EAI.sol\":12507:13115  function setNewEndTimeAndRestOfOperations(... */\n    tag_231:\n        /* \"contracts/lib/eai/EAI.sol\":12720:12747  _maxNumberOfOperationByTime */\n      dup2\n        /* \"contracts/lib/eai/EAI.sol\":12720:12754  _maxNumberOfOperationByTime.amount */\n      0x00\n      add\n      0x00\n      swap1\n      sload\n      swap1\n      0x0100\n      exp\n      swap1\n      div\n      0xffffffff\n      and\n        /* \"contracts/lib/eai/EAI.sol\":12685:12712  _maxNumberOfOperationByTime */\n      dup3\n        /* \"contracts/lib/eai/EAI.sol\":12685:12717  _maxNumberOfOperationByTime.rest */\n      0x00\n      add\n      0x09\n        /* \"contracts/lib/eai/EAI.sol\":12685:12754  _maxNumberOfOperationByTime.rest = _maxNumberOfOperationByTime.amount */\n      0x0100\n      exp\n      dup2\n      sload\n      dup2\n      0xffffffff\n      mul\n      not\n      and\n      swap1\n      dup4\n      0xffffffff\n      and\n      mul\n      or\n      swap1\n      sstore\n      pop\n        /* \"contracts/lib/eai/EAI.sol\":12803:13107  calcNextEndTime(... */\n      tag_284\n        /* \"contracts/lib/eai/EAI.sol\":12869:12896  _maxNumberOfOperationByTime */\n      dup3\n        /* \"contracts/lib/eai/EAI.sol\":12869:12903  _maxNumberOfOperationByTime.byTime */\n      0x00\n      add\n      0x05\n      swap1\n      sload\n      swap1\n      0x0100\n      exp\n      swap1\n      div\n      0xffffffff\n      and\n        /* \"contracts/lib/eai/EAI.sol\":12954:12981  _maxNumberOfOperationByTime */\n      dup4\n        /* \"contracts/lib/eai/EAI.sol\":12954:12990  _maxNumberOfOperationByTime.timeUnit */\n      0x00\n      add\n      0x04\n      swap1\n      sload\n      swap1\n      0x0100\n      exp\n      swap1\n      div\n      0xff\n      and\n        /* \"contracts/lib/eai/EAI.sol\":13041:13056  _accessDateTime */\n      dup4\n        /* \"contracts/lib/eai/EAI.sol\":12803:12818  calcNextEndTime */\n      tag_285\n        /* \"contracts/lib/eai/EAI.sol\":12803:13107  calcNextEndTime(... */\n      jump\t// in\n    tag_284:\n        /* \"contracts/lib/eai/EAI.sol\":12765:12792  _maxNumberOfOperationByTime */\n      dup3\n        /* \"contracts/lib/eai/EAI.sol\":12765:12800  _maxNumberOfOperationByTime.endTime */\n      0x00\n      add\n      0x0d\n        /* \"contracts/lib/eai/EAI.sol\":12765:13107  _maxNumberOfOperationByTime.endTime = calcNextEndTime(... */\n      0x0100\n      exp\n      dup2\n      sload\n      dup2\n      0xffffffff\n      mul\n      not\n      and\n      swap1\n      dup4\n      0xffffffff\n      and\n      mul\n      or\n      swap1\n      sstore\n      pop\n        /* \"contracts/lib/eai/EAI.sol\":12507:13115  function setNewEndTimeAndRestOfOperations(... */\n      pop\n      pop\n      jump\t// out\n        /* \"contracts/lib/eai/EAI.sol\":26164:26860  function timeStampToDate(uint _timestamp) internal pure returns (uint32 year, uint32 month, uint32 day) {... */\n    tag_279:\n        /* \"contracts/lib/eai/EAI.sol\":26229:26240  uint32 year */\n      0x00\n        /* \"contracts/lib/eai/EAI.sol\":26242:26254  uint32 month */\n      dup1\n        /* \"contracts/lib/eai/EAI.sol\":26256:26266  uint32 day */\n      0x00\n        /* \"contracts/lib/eai/EAI.sol\":26288:26301  uint32 __days */\n      dup1\n        /* \"contracts/lib/eai/EAI.sol\":1073:1081  24*60*60 */\n      0x015180\n        /* \"contracts/lib/eai/EAI.sol\":26311:26339  _timestamp / SECONDS_PER_DAY */\n      0xffffffff\n      and\n        /* \"contracts/lib/eai/EAI.sol\":26311:26321  _timestamp */\n      dup6\n        /* \"contracts/lib/eai/EAI.sol\":26311:26339  _timestamp / SECONDS_PER_DAY */\n      tag_287\n      swap2\n      swap1\n      tag_258\n      jump\t// in\n    tag_287:\n        /* \"contracts/lib/eai/EAI.sol\":26288:26340  uint32 __days = uint32(_timestamp / SECONDS_PER_DAY) */\n      swap1\n      pop\n        /* \"contracts/lib/eai/EAI.sol\":26353:26361  uint32 L */\n      0x00\n        /* \"contracts/lib/eai/EAI.sol\":1121:1128  2440588 */\n      0x253d8c\n        /* \"contracts/lib/eai/EAI.sol\":26373:26378  68569 */\n      0x010bd9\n        /* \"contracts/lib/eai/EAI.sol\":26364:26370  __days */\n      dup4\n        /* \"contracts/lib/eai/EAI.sol\":26364:26378  __days + 68569 */\n      tag_288\n      swap2\n      swap1\n      tag_238\n      jump\t// in\n    tag_288:\n        /* \"contracts/lib/eai/EAI.sol\":26364:26395  __days + 68569 + OFFSET19700101 */\n      tag_289\n      swap2\n      swap1\n      tag_238\n      jump\t// in\n    tag_289:\n        /* \"contracts/lib/eai/EAI.sol\":26353:26395  uint32 L = __days + 68569 + OFFSET19700101 */\n      swap1\n      pop\n        /* \"contracts/lib/eai/EAI.sol\":26406:26414  uint32 N */\n      0x00\n        /* \"contracts/lib/eai/EAI.sol\":26425:26431  146097 */\n      0x023ab1\n        /* \"contracts/lib/eai/EAI.sol\":26421:26422  L */\n      dup3\n        /* \"contracts/lib/eai/EAI.sol\":26417:26418  4 */\n      0x04\n        /* \"contracts/lib/eai/EAI.sol\":26417:26422  4 * L */\n      tag_290\n      swap2\n      swap1\n      tag_291\n      jump\t// in\n    tag_290:\n        /* \"contracts/lib/eai/EAI.sol\":26417:26431  4 * L / 146097 */\n      tag_292\n      swap2\n      swap1\n      tag_293\n      jump\t// in\n    tag_292:\n        /* \"contracts/lib/eai/EAI.sol\":26406:26431  uint32 N = 4 * L / 146097 */\n      swap1\n      pop\n        /* \"contracts/lib/eai/EAI.sol\":26469:26470  4 */\n      0x04\n        /* \"contracts/lib/eai/EAI.sol\":26464:26465  3 */\n      0x03\n        /* \"contracts/lib/eai/EAI.sol\":26460:26461  N */\n      dup3\n        /* \"contracts/lib/eai/EAI.sol\":26451:26457  146097 */\n      0x023ab1\n        /* \"contracts/lib/eai/EAI.sol\":26451:26461  146097 * N */\n      tag_294\n      swap2\n      swap1\n      tag_291\n      jump\t// in\n    tag_294:\n        /* \"contracts/lib/eai/EAI.sol\":26451:26465  146097 * N + 3 */\n      tag_295\n      swap2\n      swap1\n      tag_238\n      jump\t// in\n    tag_295:\n        /* \"contracts/lib/eai/EAI.sol\":26450:26470  (146097 * N + 3) / 4 */\n      tag_296\n      swap2\n      swap1\n      tag_293\n      jump\t// in\n    tag_296:\n        /* \"contracts/lib/eai/EAI.sol\":26446:26447  L */\n      dup3\n        /* \"contracts/lib/eai/EAI.sol\":26446:26470  L - (146097 * N + 3) / 4 */\n      tag_297\n      swap2\n      swap1\n      tag_207\n      jump\t// in\n    tag_297:\n        /* \"contracts/lib/eai/EAI.sol\":26442:26470  L = L - (146097 * N + 3) / 4 */\n      swap2\n      pop\n        /* \"contracts/lib/eai/EAI.sol\":26481:26493  uint32 _year */\n      0x00\n        /* \"contracts/lib/eai/EAI.sol\":26513:26520  1461001 */\n      0x164b09\n        /* \"contracts/lib/eai/EAI.sol\":26508:26509  1 */\n      0x01\n        /* \"contracts/lib/eai/EAI.sol\":26504:26505  L */\n      dup5\n        /* \"contracts/lib/eai/EAI.sol\":26504:26509  L + 1 */\n      tag_298\n      swap2\n      swap1\n      tag_238\n      jump\t// in\n    tag_298:\n        /* \"contracts/lib/eai/EAI.sol\":26496:26500  4000 */\n      0x0fa0\n        /* \"contracts/lib/eai/EAI.sol\":26496:26510  4000 * (L + 1) */\n      tag_299\n      swap2\n      swap1\n      tag_291\n      jump\t// in\n    tag_299:\n        /* \"contracts/lib/eai/EAI.sol\":26496:26520  4000 * (L + 1) / 1461001 */\n      tag_300\n      swap2\n      swap1\n      tag_293\n      jump\t// in\n    tag_300:\n        /* \"contracts/lib/eai/EAI.sol\":26481:26520  uint32 _year = 4000 * (L + 1) / 1461001 */\n      swap1\n      pop\n        /* \"contracts/lib/eai/EAI.sol\":26558:26560  31 */\n      0x1f\n        /* \"contracts/lib/eai/EAI.sol\":26554:26555  4 */\n      0x04\n        /* \"contracts/lib/eai/EAI.sol\":26546:26551  _year */\n      dup3\n        /* \"contracts/lib/eai/EAI.sol\":26539:26543  1461 */\n      0x05b5\n        /* \"contracts/lib/eai/EAI.sol\":26539:26551  1461 * _year */\n      tag_301\n      swap2\n      swap1\n      tag_291\n      jump\t// in\n    tag_301:\n        /* \"contracts/lib/eai/EAI.sol\":26539:26555  1461 * _year / 4 */\n      tag_302\n      swap2\n      swap1\n      tag_293\n      jump\t// in\n    tag_302:\n        /* \"contracts/lib/eai/EAI.sol\":26535:26536  L */\n      dup5\n        /* \"contracts/lib/eai/EAI.sol\":26535:26555  L - 1461 * _year / 4 */\n      tag_303\n      swap2\n      swap1\n      tag_207\n      jump\t// in\n    tag_303:\n        /* \"contracts/lib/eai/EAI.sol\":26535:26560  L - 1461 * _year / 4 + 31 */\n      tag_304\n      swap2\n      swap1\n      tag_238\n      jump\t// in\n    tag_304:\n        /* \"contracts/lib/eai/EAI.sol\":26531:26560  L = L - 1461 * _year / 4 + 31 */\n      swap3\n      pop\n        /* \"contracts/lib/eai/EAI.sol\":26571:26584  uint32 _month */\n      0x00\n        /* \"contracts/lib/eai/EAI.sol\":26596:26600  2447 */\n      0x098f\n        /* \"contracts/lib/eai/EAI.sol\":26592:26593  L */\n      dup5\n        /* \"contracts/lib/eai/EAI.sol\":26587:26589  80 */\n      0x50\n        /* \"contracts/lib/eai/EAI.sol\":26587:26593  80 * L */\n      tag_305\n      swap2\n      swap1\n      tag_291\n      jump\t// in\n    tag_305:\n        /* \"contracts/lib/eai/EAI.sol\":26587:26600  80 * L / 2447 */\n      tag_306\n      swap2\n      swap1\n      tag_293\n      jump\t// in\n    tag_306:\n        /* \"contracts/lib/eai/EAI.sol\":26571:26600  uint32 _month = 80 * L / 2447 */\n      swap1\n      pop\n        /* \"contracts/lib/eai/EAI.sol\":26611:26622  uint32 _day */\n      0x00\n        /* \"contracts/lib/eai/EAI.sol\":26645:26647  80 */\n      0x50\n        /* \"contracts/lib/eai/EAI.sol\":26636:26642  _month */\n      dup3\n        /* \"contracts/lib/eai/EAI.sol\":26629:26633  2447 */\n      0x098f\n        /* \"contracts/lib/eai/EAI.sol\":26629:26642  2447 * _month */\n      tag_307\n      swap2\n      swap1\n      tag_291\n      jump\t// in\n    tag_307:\n        /* \"contracts/lib/eai/EAI.sol\":26629:26647  2447 * _month / 80 */\n      tag_308\n      swap2\n      swap1\n      tag_293\n      jump\t// in\n    tag_308:\n        /* \"contracts/lib/eai/EAI.sol\":26625:26626  L */\n      dup6\n        /* \"contracts/lib/eai/EAI.sol\":26625:26647  L - 2447 * _month / 80 */\n      tag_309\n      swap2\n      swap1\n      tag_207\n      jump\t// in\n    tag_309:\n        /* \"contracts/lib/eai/EAI.sol\":26611:26647  uint32 _day = L - 2447 * _month / 80 */\n      swap1\n      pop\n        /* \"contracts/lib/eai/EAI.sol\":26671:26673  11 */\n      0x0b\n        /* \"contracts/lib/eai/EAI.sol\":26662:26668  _month */\n      dup3\n        /* \"contracts/lib/eai/EAI.sol\":26662:26673  _month / 11 */\n      tag_310\n      swap2\n      swap1\n      tag_293\n      jump\t// in\n    tag_310:\n        /* \"contracts/lib/eai/EAI.sol\":26658:26673  L = _month / 11 */\n      swap5\n      pop\n        /* \"contracts/lib/eai/EAI.sol\":26711:26712  L */\n      dup5\n        /* \"contracts/lib/eai/EAI.sol\":26706:26708  12 */\n      0x0c\n        /* \"contracts/lib/eai/EAI.sol\":26706:26712  12 * L */\n      tag_311\n      swap2\n      swap1\n      tag_291\n      jump\t// in\n    tag_311:\n        /* \"contracts/lib/eai/EAI.sol\":26702:26703  2 */\n      0x02\n        /* \"contracts/lib/eai/EAI.sol\":26693:26699  _month */\n      dup4\n        /* \"contracts/lib/eai/EAI.sol\":26693:26703  _month + 2 */\n      tag_312\n      swap2\n      swap1\n      tag_238\n      jump\t// in\n    tag_312:\n        /* \"contracts/lib/eai/EAI.sol\":26693:26712  _month + 2 - 12 * L */\n      tag_313\n      swap2\n      swap1\n      tag_207\n      jump\t// in\n    tag_313:\n        /* \"contracts/lib/eai/EAI.sol\":26684:26712  _month = _month + 2 - 12 * L */\n      swap2\n      pop\n        /* \"contracts/lib/eai/EAI.sol\":26756:26757  L */\n      dup5\n        /* \"contracts/lib/eai/EAI.sol\":26748:26753  _year */\n      dup4\n        /* \"contracts/lib/eai/EAI.sol\":26742:26744  49 */\n      0x31\n        /* \"contracts/lib/eai/EAI.sol\":26738:26739  N */\n      dup7\n        /* \"contracts/lib/eai/EAI.sol\":26738:26744  N - 49 */\n      tag_314\n      swap2\n      swap1\n      tag_207\n      jump\t// in\n    tag_314:\n        /* \"contracts/lib/eai/EAI.sol\":26731:26734  100 */\n      0x64\n        /* \"contracts/lib/eai/EAI.sol\":26731:26745  100 * (N - 49) */\n      tag_315\n      swap2\n      swap1\n      tag_291\n      jump\t// in\n    tag_315:\n        /* \"contracts/lib/eai/EAI.sol\":26731:26753  100 * (N - 49) + _year */\n      tag_316\n      swap2\n      swap1\n      tag_238\n      jump\t// in\n    tag_316:\n        /* \"contracts/lib/eai/EAI.sol\":26731:26757  100 * (N - 49) + _year + L */\n      tag_317\n      swap2\n      swap1\n      tag_238\n      jump\t// in\n    tag_317:\n        /* \"contracts/lib/eai/EAI.sol\":26723:26757  _year = 100 * (N - 49) + _year + L */\n      swap3\n      pop\n        /* \"contracts/lib/eai/EAI.sol\":26784:26789  _year */\n      dup3\n        /* \"contracts/lib/eai/EAI.sol\":26770:26790  year = uint32(_year) */\n      swap9\n      pop\n        /* \"contracts/lib/eai/EAI.sol\":26816:26822  _month */\n      dup2\n        /* \"contracts/lib/eai/EAI.sol\":26801:26823  month = uint32(_month) */\n      swap8\n      pop\n        /* \"contracts/lib/eai/EAI.sol\":26847:26851  _day */\n      dup1\n        /* \"contracts/lib/eai/EAI.sol\":26834:26852  day = uint32(_day) */\n      swap7\n      pop\n        /* \"contracts/lib/eai/EAI.sol\":26268:26860  {... */\n      pop\n      pop\n      pop\n      pop\n      pop\n      pop\n        /* \"contracts/lib/eai/EAI.sol\":26164:26860  function timeStampToDate(uint _timestamp) internal pure returns (uint32 year, uint32 month, uint32 day) {... */\n      swap2\n      swap4\n      swap1\n      swap3\n      pop\n      jump\t// out\n        /* \"contracts/lib/eai/EAI.sol\":24199:24856  function calcNextEndTime(       ... */\n    tag_285:\n        /* \"contracts/lib/eai/EAI.sol\":24353:24359  uint32 */\n      0x00\n        /* \"contracts/lib/eai/EAI.sol\":784:785  4 */\n      0x04\n        /* \"contracts/lib/eai/EAI.sol\":24385:24402  _timeUnit <= WEEK */\n      0xff\n      and\n        /* \"contracts/lib/eai/EAI.sol\":24385:24394  _timeUnit */\n      dup4\n        /* \"contracts/lib/eai/EAI.sol\":24385:24402  _timeUnit <= WEEK */\n      0xff\n      and\n      gt\n        /* \"contracts/lib/eai/EAI.sol\":24381:24849  if (_timeUnit <= WEEK) {... */\n      tag_319\n      jumpi\n        /* \"contracts/lib/eai/EAI.sol\":24426:24558  calcNextEndTimeForSecMinHrDayOrWeek(... */\n      tag_320\n        /* \"contracts/lib/eai/EAI.sol\":24480:24489  _timeUnit */\n      dup4\n        /* \"contracts/lib/eai/EAI.sol\":24509:24524  _accessDateTime */\n      dup4\n        /* \"contracts/lib/eai/EAI.sol\":24544:24557  _timeInterval */\n      dup7\n        /* \"contracts/lib/eai/EAI.sol\":24426:24461  calcNextEndTimeForSecMinHrDayOrWeek */\n      tag_321\n        /* \"contracts/lib/eai/EAI.sol\":24426:24558  calcNextEndTimeForSecMinHrDayOrWeek(... */\n      jump\t// in\n    tag_320:\n        /* \"contracts/lib/eai/EAI.sol\":24419:24558  return calcNextEndTimeForSecMinHrDayOrWeek(... */\n      swap1\n      pop\n      jump(tag_318)\n        /* \"contracts/lib/eai/EAI.sol\":24381:24849  if (_timeUnit <= WEEK) {... */\n    tag_319:\n        /* \"contracts/lib/eai/EAI.sol\":814:815  5 */\n      0x05\n        /* \"contracts/lib/eai/EAI.sol\":24578:24596  _timeUnit == MONTH */\n      0xff\n      and\n        /* \"contracts/lib/eai/EAI.sol\":24578:24587  _timeUnit */\n      dup4\n        /* \"contracts/lib/eai/EAI.sol\":24578:24596  _timeUnit == MONTH */\n      0xff\n      and\n      sub\n        /* \"contracts/lib/eai/EAI.sol\":24575:24849  if(_timeUnit == MONTH){... */\n      tag_323\n      jumpi\n        /* \"contracts/lib/eai/EAI.sol\":24614:24631  uint currentMonth */\n      0x00\n        /* \"contracts/lib/eai/EAI.sol\":24636:24668  timeStampToDate(_accessDateTime) */\n      tag_324\n        /* \"contracts/lib/eai/EAI.sol\":24652:24667  _accessDateTime */\n      dup4\n        /* \"contracts/lib/eai/EAI.sol\":24636:24668  timeStampToDate(_accessDateTime) */\n      0xffffffff\n      and\n        /* \"contracts/lib/eai/EAI.sol\":24636:24651  timeStampToDate */\n      tag_279\n        /* \"contracts/lib/eai/EAI.sol\":24636:24668  timeStampToDate(_accessDateTime) */\n      jump\t// in\n    tag_324:\n        /* \"contracts/lib/eai/EAI.sol\":24612:24668  (,uint currentMonth,) = timeStampToDate(_accessDateTime) */\n      pop\n      0xffffffff\n      and\n      swap2\n      pop\n      pop\n        /* \"contracts/lib/eai/EAI.sol\":24712:24713  1 */\n      0x01\n        /* \"contracts/lib/eai/EAI.sol\":24699:24711  currentMonth */\n      dup2\n        /* \"contracts/lib/eai/EAI.sol\":24699:24713  currentMonth+1 */\n      tag_325\n      swap2\n      swap1\n      tag_270\n      jump\t// in\n    tag_325:\n        /* \"contracts/lib/eai/EAI.sol\":24685:24714  return uint32(currentMonth+1) */\n      swap2\n      pop\n      pop\n      jump(tag_318)\n        /* \"contracts/lib/eai/EAI.sol\":24575:24849  if(_timeUnit == MONTH){... */\n    tag_323:\n        /* \"contracts/lib/eai/EAI.sol\":24752:24761  uint year */\n      0x00\n        /* \"contracts/lib/eai/EAI.sol\":24767:24799  timeStampToDate(_accessDateTime) */\n      tag_327\n        /* \"contracts/lib/eai/EAI.sol\":24783:24798  _accessDateTime */\n      dup4\n        /* \"contracts/lib/eai/EAI.sol\":24767:24799  timeStampToDate(_accessDateTime) */\n      0xffffffff\n      and\n        /* \"contracts/lib/eai/EAI.sol\":24767:24782  timeStampToDate */\n      tag_279\n        /* \"contracts/lib/eai/EAI.sol\":24767:24799  timeStampToDate(_accessDateTime) */\n      jump\t// in\n    tag_327:\n        /* \"contracts/lib/eai/EAI.sol\":24751:24799  (uint year,,) = timeStampToDate(_accessDateTime) */\n      pop\n      pop\n      0xffffffff\n      and\n      swap1\n      pop\n        /* \"contracts/lib/eai/EAI.sol\":24835:24836  1 */\n      0x01\n        /* \"contracts/lib/eai/EAI.sol\":24828:24832  year */\n      dup2\n        /* \"contracts/lib/eai/EAI.sol\":24828:24836  year + 1 */\n      tag_328\n      swap2\n      swap1\n      tag_270\n      jump\t// in\n    tag_328:\n        /* \"contracts/lib/eai/EAI.sol\":24814:24837  return uint32(year + 1) */\n      swap2\n      pop\n      pop\n        /* \"contracts/lib/eai/EAI.sol\":24199:24856  function calcNextEndTime(       ... */\n    tag_318:\n      swap4\n      swap3\n      pop\n      pop\n      pop\n      jump\t// out\n        /* \"contracts/lib/eai/EAI.sol\":24868:25365  function calcNextEndTimeForSecMinHrDayOrWeek(... */\n    tag_321:\n        /* \"contracts/lib/eai/EAI.sol\":25036:25042  uint32 */\n      0x00\n        /* \"contracts/lib/eai/EAI.sol\":25056:25066  uint32 mod */\n      dup1\n        /* \"contracts/lib/eai/EAI.sol\":25095:25108  _timeInterval */\n      dup3\n        /* \"contracts/lib/eai/EAI.sol\":25077:25092  _accessDateTime */\n      dup5\n        /* \"contracts/lib/eai/EAI.sol\":25077:25108  _accessDateTime % _timeInterval */\n      tag_330\n      swap2\n      swap1\n      tag_331\n      jump\t// in\n    tag_330:\n        /* \"contracts/lib/eai/EAI.sol\":25056:25109  uint32 mod =  uint32(_accessDateTime % _timeInterval) */\n      swap1\n      pop\n        /* \"contracts/lib/eai/EAI.sol\":25120:25144  uint32 timeToNextEndTime */\n      0x00\n        /* \"contracts/lib/eai/EAI.sol\":25164:25167  mod */\n      dup2\n        /* \"contracts/lib/eai/EAI.sol\":25148:25161  _timeInterval */\n      dup5\n        /* \"contracts/lib/eai/EAI.sol\":25148:25167  _timeInterval - mod */\n      tag_332\n      swap2\n      swap1\n      tag_207\n      jump\t// in\n    tag_332:\n        /* \"contracts/lib/eai/EAI.sol\":25120:25167  uint32 timeToNextEndTime  = _timeInterval - mod */\n      swap1\n      pop\n        /* \"contracts/lib/eai/EAI.sol\":784:785  4 */\n      0x04\n        /* \"contracts/lib/eai/EAI.sol\":25203:25220  _timeUnit == WEEK */\n      0xff\n      and\n        /* \"contracts/lib/eai/EAI.sol\":25203:25212  _timeUnit */\n      dup7\n        /* \"contracts/lib/eai/EAI.sol\":25203:25220  _timeUnit == WEEK */\n      0xff\n      and\n      sub\n        /* \"contracts/lib/eai/EAI.sol\":25200:25303  if(_timeUnit == WEEK){... */\n      tag_333\n      jumpi\n        /* \"contracts/lib/eai/EAI.sol\":1221:1227  259200 */\n      0x03f480\n        /* \"contracts/lib/eai/EAI.sol\":25261:25278  timeToNextEndTime */\n      dup2\n        /* \"contracts/lib/eai/EAI.sol\":25243:25258  _accessDateTime */\n      dup7\n        /* \"contracts/lib/eai/EAI.sol\":25243:25278  _accessDateTime + timeToNextEndTime */\n      tag_334\n      swap2\n      swap1\n      tag_238\n      jump\t// in\n    tag_334:\n        /* \"contracts/lib/eai/EAI.sol\":25243:25291  _accessDateTime + timeToNextEndTime + OFFSETWEEK */\n      tag_335\n      swap2\n      swap1\n      tag_238\n      jump\t// in\n    tag_335:\n        /* \"contracts/lib/eai/EAI.sol\":25236:25291  return _accessDateTime + timeToNextEndTime + OFFSETWEEK */\n      swap3\n      pop\n      pop\n      pop\n      jump(tag_329)\n        /* \"contracts/lib/eai/EAI.sol\":25200:25303  if(_timeUnit == WEEK){... */\n    tag_333:\n        /* \"contracts/lib/eai/EAI.sol\":25340:25357  timeToNextEndTime */\n      dup1\n        /* \"contracts/lib/eai/EAI.sol\":25322:25337  _accessDateTime */\n      dup6\n        /* \"contracts/lib/eai/EAI.sol\":25322:25357  _accessDateTime + timeToNextEndTime */\n      tag_336\n      swap2\n      swap1\n      tag_238\n      jump\t// in\n    tag_336:\n        /* \"contracts/lib/eai/EAI.sol\":25315:25357  return _accessDateTime + timeToNextEndTime */\n      swap3\n      pop\n      pop\n      pop\n        /* \"contracts/lib/eai/EAI.sol\":24868:25365  function calcNextEndTimeForSecMinHrDayOrWeek(... */\n    tag_329:\n      swap4\n      swap3\n      pop\n      pop\n      pop\n      jump\t// out\n    tag_82:\n      pop\n      dup1\n      sload\n      tag_337\n      swap1\n      tag_155\n      jump\t// in\n    tag_337:\n      0x00\n      dup3\n      sstore\n      dup1\n      0x1f\n      lt\n      tag_339\n      jumpi\n      pop\n      jump(tag_338)\n    tag_339:\n      0x1f\n      add\n      0x20\n      swap1\n      div\n      swap1\n      0x00\n      mstore\n      keccak256(0x00, 0x20)\n      swap1\n      dup2\n      add\n      swap1\n      tag_340\n      swap2\n      swap1\n      tag_341\n      jump\t// in\n    tag_340:\n    tag_338:\n      pop\n      jump\t// out\n    tag_85:\n      dup3\n      dup1\n      sload\n      tag_342\n      swap1\n      tag_155\n      jump\t// in\n    tag_342:\n      swap1\n      0x00\n      mstore\n      keccak256(0x00, 0x20)\n      swap1\n      0x1f\n      add\n      0x20\n      swap1\n      div\n      dup2\n      add\n      swap3\n      dup3\n      tag_344\n      jumpi\n      0x00\n      dup6\n      sstore\n      jump(tag_343)\n    tag_344:\n      dup3\n      0x1f\n      lt\n      tag_345\n      jumpi\n      dup1\n      mload\n      not(0xff)\n      and\n      dup4\n      dup1\n      add\n      or\n      dup6\n      sstore\n      jump(tag_343)\n    tag_345:\n      dup3\n      dup1\n      add\n      0x01\n      add\n      dup6\n      sstore\n      dup3\n      iszero\n      tag_343\n      jumpi\n      swap2\n      dup3\n      add\n    tag_346:\n      dup3\n      dup2\n      gt\n      iszero\n      tag_347\n      jumpi\n      dup3\n      mload\n      dup3\n      sstore\n      swap2\n      0x20\n      add\n      swap2\n      swap1\n      0x01\n      add\n      swap1\n      jump(tag_346)\n    tag_347:\n    tag_343:\n      pop\n      swap1\n      pop\n      tag_348\n      swap2\n      swap1\n      tag_341\n      jump\t// in\n    tag_348:\n      pop\n      swap1\n      jump\t// out\n    tag_146:\n      mload(0x40)\n      dup1\n      0x60\n      add\n      0x40\n      mstore\n      dup1\n      0x60\n      dup2\n      mstore\n      0x20\n      add\n      and(0xffffffffffffffffffffffffffffffffffffffff, 0x00)\n      dup2\n      mstore\n      0x20\n      add\n      iszero(iszero(0x00))\n      dup2\n      mstore\n      pop\n      swap1\n      jump\t// out\n    tag_163:\n      mload(0x40)\n      dup1\n      0x40\n      add\n      0x40\n      mstore\n      dup1\n      and(0xff, 0x00)\n      dup2\n      mstore\n      0x20\n      add\n      and(0xff, 0x00)\n      dup2\n      mstore\n      pop\n      swap1\n      jump\t// out\n    tag_175:\n      mload(0x40)\n      dup1\n      0x40\n      add\n      0x40\n      mstore\n      dup1\n      and(0xffffffff, 0x00)\n      dup2\n      mstore\n      0x20\n      add\n      and(0xffffffff, 0x00)\n      dup2\n      mstore\n      pop\n      swap1\n      jump\t// out\n    tag_185:\n      mload(0x40)\n      dup1\n      0xa0\n      add\n      0x40\n      mstore\n      dup1\n      and(0xffffffff, 0x00)\n      dup2\n      mstore\n      0x20\n      add\n      and(0xff, 0x00)\n      dup2\n      mstore\n      0x20\n      add\n      and(0xffffffff, 0x00)\n      dup2\n      mstore\n      0x20\n      add\n      and(0xffffffff, 0x00)\n      dup2\n      mstore\n      0x20\n      add\n      and(0xffffffff, 0x00)\n      dup2\n      mstore\n      pop\n      swap1\n      jump\t// out\n    tag_192:\n      mload(0x40)\n      dup1\n      0x40\n      add\n      0x40\n      mstore\n      dup1\n      and(0xffffffff, 0x00)\n      dup2\n      mstore\n      0x20\n      add\n      and(0xffffffff, 0x00)\n      dup2\n      mstore\n      pop\n      swap1\n      jump\t// out\n    tag_195:\n      mload(0x40)\n      dup1\n      0x20\n      add\n      0x40\n      mstore\n      dup1\n      0x60\n      dup2\n      mstore\n      pop\n      swap1\n      jump\t// out\n    tag_211:\n      dup3\n      dup1\n      sload\n      tag_349\n      swap1\n      tag_155\n      jump\t// in\n    tag_349:\n      swap1\n      0x00\n      mstore\n      keccak256(0x00, 0x20)\n      swap1\n      0x1f\n      add\n      0x20\n      swap1\n      div\n      dup2\n      add\n      swap3\n      dup3\n      tag_351\n      jumpi\n      0x00\n      dup6\n      sstore\n      jump(tag_350)\n    tag_351:\n      dup3\n      0x1f\n      lt\n      tag_352\n      jumpi\n      dup1\n      sload\n      dup6\n      sstore\n      jump(tag_350)\n    tag_352:\n      dup3\n      dup1\n      add\n      0x01\n      add\n      dup6\n      sstore\n      dup3\n      iszero\n      tag_350\n      jumpi\n      0x00\n      mstore\n      keccak256(0x00, 0x20)\n      swap2\n      0x1f\n      add\n      0x20\n      swap1\n      div\n      dup3\n      add\n    tag_353:\n      dup3\n      dup2\n      gt\n      iszero\n      tag_354\n      jumpi\n      dup3\n      sload\n      dup3\n      sstore\n      swap2\n      0x01\n      add\n      swap2\n      swap1\n      0x01\n      add\n      swap1\n      jump(tag_353)\n    tag_354:\n    tag_350:\n      pop\n      swap1\n      pop\n      tag_355\n      swap2\n      swap1\n      tag_341\n      jump\t// in\n    tag_355:\n      pop\n      swap1\n      jump\t// out\n    tag_341:\n    tag_356:\n      dup1\n      dup3\n      gt\n      iszero\n      tag_357\n      jumpi\n      0x00\n      dup2\n      0x00\n      swap1\n      sstore\n      pop\n      0x01\n      add\n      jump(tag_356)\n    tag_357:\n      pop\n      swap1\n      jump\t// out\n        /* \"#utility.yul\":7:82   */\n    tag_358:\n        /* \"#utility.yul\":40:46   */\n      0x00\n        /* \"#utility.yul\":73:75   */\n      0x40\n        /* \"#utility.yul\":67:76   */\n      mload\n        /* \"#utility.yul\":57:76   */\n      swap1\n      pop\n        /* \"#utility.yul\":7:82   */\n      swap1\n      jump\t// out\n        /* \"#utility.yul\":88:205   */\n    tag_359:\n        /* \"#utility.yul\":197:198   */\n      0x00\n        /* \"#utility.yul\":194:195   */\n      dup1\n        /* \"#utility.yul\":187:199   */\n      revert\n        /* \"#utility.yul\":211:328   */\n    tag_360:\n        /* \"#utility.yul\":320:321   */\n      0x00\n        /* \"#utility.yul\":317:318   */\n      dup1\n        /* \"#utility.yul\":310:322   */\n      revert\n        /* \"#utility.yul\":334:427   */\n    tag_361:\n        /* \"#utility.yul\":370:377   */\n      0x00\n        /* \"#utility.yul\":410:420   */\n      0xffffffff\n        /* \"#utility.yul\":403:408   */\n      dup3\n        /* \"#utility.yul\":399:421   */\n      and\n        /* \"#utility.yul\":388:421   */\n      swap1\n      pop\n        /* \"#utility.yul\":334:427   */\n      swap2\n      swap1\n      pop\n      jump\t// out\n        /* \"#utility.yul\":433:553   */\n    tag_362:\n        /* \"#utility.yul\":505:528   */\n      tag_429\n        /* \"#utility.yul\":522:527   */\n      dup2\n        /* \"#utility.yul\":505:528   */\n      tag_361\n      jump\t// in\n    tag_429:\n        /* \"#utility.yul\":498:503   */\n      dup2\n        /* \"#utility.yul\":495:529   */\n      eq\n        /* \"#utility.yul\":485:547   */\n      tag_430\n      jumpi\n        /* \"#utility.yul\":543:544   */\n      0x00\n        /* \"#utility.yul\":540:541   */\n      dup1\n        /* \"#utility.yul\":533:545   */\n      revert\n        /* \"#utility.yul\":485:547   */\n    tag_430:\n        /* \"#utility.yul\":433:553   */\n      pop\n      jump\t// out\n        /* \"#utility.yul\":559:696   */\n    tag_363:\n        /* \"#utility.yul\":604:609   */\n      0x00\n        /* \"#utility.yul\":642:648   */\n      dup2\n        /* \"#utility.yul\":629:649   */\n      calldataload\n        /* \"#utility.yul\":620:649   */\n      swap1\n      pop\n        /* \"#utility.yul\":658:690   */\n      tag_432\n        /* \"#utility.yul\":684:689   */\n      dup2\n        /* \"#utility.yul\":658:690   */\n      tag_362\n      jump\t// in\n    tag_432:\n        /* \"#utility.yul\":559:696   */\n      swap3\n      swap2\n      pop\n      pop\n      jump\t// out\n        /* \"#utility.yul\":702:819   */\n    tag_364:\n        /* \"#utility.yul\":811:812   */\n      0x00\n        /* \"#utility.yul\":808:809   */\n      dup1\n        /* \"#utility.yul\":801:813   */\n      revert\n        /* \"#utility.yul\":825:927   */\n    tag_365:\n        /* \"#utility.yul\":866:872   */\n      0x00\n        /* \"#utility.yul\":917:919   */\n      0x1f\n        /* \"#utility.yul\":913:920   */\n      not\n        /* \"#utility.yul\":908:910   */\n      0x1f\n        /* \"#utility.yul\":901:906   */\n      dup4\n        /* \"#utility.yul\":897:911   */\n      add\n        /* \"#utility.yul\":893:921   */\n      and\n        /* \"#utility.yul\":883:921   */\n      swap1\n      pop\n        /* \"#utility.yul\":825:927   */\n      swap2\n      swap1\n      pop\n      jump\t// out\n        /* \"#utility.yul\":933:1113   */\n    tag_261:\n        /* \"#utility.yul\":981:1058   */\n      0x4e487b7100000000000000000000000000000000000000000000000000000000\n        /* \"#utility.yul\":978:979   */\n      0x00\n        /* \"#utility.yul\":971:1059   */\n      mstore\n        /* \"#utility.yul\":1078:1082   */\n      0x41\n        /* \"#utility.yul\":1075:1076   */\n      0x04\n        /* \"#utility.yul\":1068:1083   */\n      mstore\n        /* \"#utility.yul\":1102:1106   */\n      0x24\n        /* \"#utility.yul\":1099:1100   */\n      0x00\n        /* \"#utility.yul\":1092:1107   */\n      revert\n        /* \"#utility.yul\":1119:1400   */\n    tag_366:\n        /* \"#utility.yul\":1202:1229   */\n      tag_437\n        /* \"#utility.yul\":1224:1228   */\n      dup3\n        /* \"#utility.yul\":1202:1229   */\n      tag_365\n      jump\t// in\n    tag_437:\n        /* \"#utility.yul\":1194:1200   */\n      dup2\n        /* \"#utility.yul\":1190:1230   */\n      add\n        /* \"#utility.yul\":1332:1338   */\n      dup2\n        /* \"#utility.yul\":1320:1330   */\n      dup2\n        /* \"#utility.yul\":1317:1339   */\n      lt\n        /* \"#utility.yul\":1296:1314   */\n      0xffffffffffffffff\n        /* \"#utility.yul\":1284:1294   */\n      dup3\n        /* \"#utility.yul\":1281:1315   */\n      gt\n        /* \"#utility.yul\":1278:1340   */\n      or\n        /* \"#utility.yul\":1275:1363   */\n      iszero\n      tag_438\n      jumpi\n        /* \"#utility.yul\":1343:1361   */\n      tag_439\n      tag_261\n      jump\t// in\n    tag_439:\n        /* \"#utility.yul\":1275:1363   */\n    tag_438:\n        /* \"#utility.yul\":1383:1393   */\n      dup1\n        /* \"#utility.yul\":1379:1381   */\n      0x40\n        /* \"#utility.yul\":1372:1394   */\n      mstore\n        /* \"#utility.yul\":1162:1400   */\n      pop\n        /* \"#utility.yul\":1119:1400   */\n      pop\n      pop\n      jump\t// out\n        /* \"#utility.yul\":1406:1535   */\n    tag_367:\n        /* \"#utility.yul\":1440:1446   */\n      0x00\n        /* \"#utility.yul\":1467:1487   */\n      tag_441\n      tag_358\n      jump\t// in\n    tag_441:\n        /* \"#utility.yul\":1457:1487   */\n      swap1\n      pop\n        /* \"#utility.yul\":1496:1529   */\n      tag_442\n        /* \"#utility.yul\":1524:1528   */\n      dup3\n        /* \"#utility.yul\":1516:1522   */\n      dup3\n        /* \"#utility.yul\":1496:1529   */\n      tag_366\n      jump\t// in\n    tag_442:\n        /* \"#utility.yul\":1406:1535   */\n      swap2\n      swap1\n      pop\n      jump\t// out\n        /* \"#utility.yul\":1541:1849   */\n    tag_368:\n        /* \"#utility.yul\":1615:1619   */\n      0x00\n        /* \"#utility.yul\":1705:1723   */\n      0xffffffffffffffff\n        /* \"#utility.yul\":1697:1703   */\n      dup3\n        /* \"#utility.yul\":1694:1724   */\n      gt\n        /* \"#utility.yul\":1691:1747   */\n      iszero\n      tag_444\n      jumpi\n        /* \"#utility.yul\":1727:1745   */\n      tag_445\n      tag_261\n      jump\t// in\n    tag_445:\n        /* \"#utility.yul\":1691:1747   */\n    tag_444:\n        /* \"#utility.yul\":1777:1781   */\n      0x20\n        /* \"#utility.yul\":1769:1775   */\n      dup3\n        /* \"#utility.yul\":1765:1782   */\n      mul\n        /* \"#utility.yul\":1757:1782   */\n      swap1\n      pop\n        /* \"#utility.yul\":1837:1841   */\n      0x20\n        /* \"#utility.yul\":1831:1835   */\n      dup2\n        /* \"#utility.yul\":1827:1842   */\n      add\n        /* \"#utility.yul\":1819:1842   */\n      swap1\n      pop\n        /* \"#utility.yul\":1541:1849   */\n      swap2\n      swap1\n      pop\n      jump\t// out\n        /* \"#utility.yul\":1855:1972   */\n    tag_369:\n        /* \"#utility.yul\":1964:1965   */\n      0x00\n        /* \"#utility.yul\":1961:1962   */\n      dup1\n        /* \"#utility.yul\":1954:1966   */\n      revert\n        /* \"#utility.yul\":1978:2068   */\n    tag_370:\n        /* \"#utility.yul\":2012:2019   */\n      0x00\n        /* \"#utility.yul\":2055:2060   */\n      dup2\n        /* \"#utility.yul\":2048:2061   */\n      iszero\n        /* \"#utility.yul\":2041:2062   */\n      iszero\n        /* \"#utility.yul\":2030:2062   */\n      swap1\n      pop\n        /* \"#utility.yul\":1978:2068   */\n      swap2\n      swap1\n      pop\n      jump\t// out\n        /* \"#utility.yul\":2074:2190   */\n    tag_371:\n        /* \"#utility.yul\":2144:2165   */\n      tag_449\n        /* \"#utility.yul\":2159:2164   */\n      dup2\n        /* \"#utility.yul\":2144:2165   */\n      tag_370\n      jump\t// in\n    tag_449:\n        /* \"#utility.yul\":2137:2142   */\n      dup2\n        /* \"#utility.yul\":2134:2166   */\n      eq\n        /* \"#utility.yul\":2124:2184   */\n      tag_450\n      jumpi\n        /* \"#utility.yul\":2180:2181   */\n      0x00\n        /* \"#utility.yul\":2177:2178   */\n      dup1\n        /* \"#utility.yul\":2170:2182   */\n      revert\n        /* \"#utility.yul\":2124:2184   */\n    tag_450:\n        /* \"#utility.yul\":2074:2190   */\n      pop\n      jump\t// out\n        /* \"#utility.yul\":2196:2329   */\n    tag_372:\n        /* \"#utility.yul\":2239:2244   */\n      0x00\n        /* \"#utility.yul\":2277:2283   */\n      dup2\n        /* \"#utility.yul\":2264:2284   */\n      calldataload\n        /* \"#utility.yul\":2255:2284   */\n      swap1\n      pop\n        /* \"#utility.yul\":2293:2323   */\n      tag_452\n        /* \"#utility.yul\":2317:2322   */\n      dup2\n        /* \"#utility.yul\":2293:2323   */\n      tag_371\n      jump\t// in\n    tag_452:\n        /* \"#utility.yul\":2196:2329   */\n      swap3\n      swap2\n      pop\n      pop\n      jump\t// out\n        /* \"#utility.yul\":2349:3050   */\n    tag_373:\n        /* \"#utility.yul\":2442:2447   */\n      0x00\n        /* \"#utility.yul\":2467:2545   */\n      tag_454\n        /* \"#utility.yul\":2483:2544   */\n      tag_455\n        /* \"#utility.yul\":2537:2543   */\n      dup5\n        /* \"#utility.yul\":2483:2544   */\n      tag_368\n      jump\t// in\n    tag_455:\n        /* \"#utility.yul\":2467:2545   */\n      tag_367\n      jump\t// in\n    tag_454:\n        /* \"#utility.yul\":2458:2545   */\n      swap1\n      pop\n        /* \"#utility.yul\":2565:2570   */\n      dup1\n        /* \"#utility.yul\":2594:2600   */\n      dup4\n        /* \"#utility.yul\":2587:2592   */\n      dup3\n        /* \"#utility.yul\":2580:2601   */\n      mstore\n        /* \"#utility.yul\":2628:2632   */\n      0x20\n        /* \"#utility.yul\":2621:2626   */\n      dup3\n        /* \"#utility.yul\":2617:2633   */\n      add\n        /* \"#utility.yul\":2610:2633   */\n      swap1\n      pop\n        /* \"#utility.yul\":2681:2685   */\n      0x20\n        /* \"#utility.yul\":2673:2679   */\n      dup5\n        /* \"#utility.yul\":2669:2686   */\n      mul\n        /* \"#utility.yul\":2661:2667   */\n      dup4\n        /* \"#utility.yul\":2657:2687   */\n      add\n        /* \"#utility.yul\":2710:2713   */\n      dup6\n        /* \"#utility.yul\":2702:2708   */\n      dup2\n        /* \"#utility.yul\":2699:2714   */\n      gt\n        /* \"#utility.yul\":2696:2818   */\n      iszero\n      tag_456\n      jumpi\n        /* \"#utility.yul\":2729:2808   */\n      tag_457\n      tag_369\n      jump\t// in\n    tag_457:\n        /* \"#utility.yul\":2696:2818   */\n    tag_456:\n        /* \"#utility.yul\":2844:2850   */\n      dup4\n        /* \"#utility.yul\":2827:3044   */\n    tag_458:\n        /* \"#utility.yul\":2861:2867   */\n      dup2\n        /* \"#utility.yul\":2856:2859   */\n      dup2\n        /* \"#utility.yul\":2853:2868   */\n      lt\n        /* \"#utility.yul\":2827:3044   */\n      iszero\n      tag_460\n      jumpi\n        /* \"#utility.yul\":2936:2939   */\n      dup1\n        /* \"#utility.yul\":2965:2999   */\n      tag_461\n        /* \"#utility.yul\":2995:2998   */\n      dup9\n        /* \"#utility.yul\":2983:2993   */\n      dup3\n        /* \"#utility.yul\":2965:2999   */\n      tag_372\n      jump\t// in\n    tag_461:\n        /* \"#utility.yul\":2960:2963   */\n      dup5\n        /* \"#utility.yul\":2953:3000   */\n      mstore\n        /* \"#utility.yul\":3029:3033   */\n      0x20\n        /* \"#utility.yul\":3024:3027   */\n      dup5\n        /* \"#utility.yul\":3020:3034   */\n      add\n        /* \"#utility.yul\":3013:3034   */\n      swap4\n      pop\n        /* \"#utility.yul\":2903:3044   */\n      pop\n        /* \"#utility.yul\":2887:2891   */\n      0x20\n        /* \"#utility.yul\":2882:2885   */\n      dup2\n        /* \"#utility.yul\":2878:2892   */\n      add\n        /* \"#utility.yul\":2871:2892   */\n      swap1\n      pop\n        /* \"#utility.yul\":2827:3044   */\n      jump(tag_458)\n    tag_460:\n        /* \"#utility.yul\":2831:2852   */\n      pop\n        /* \"#utility.yul\":2448:3050   */\n      pop\n      pop\n        /* \"#utility.yul\":2349:3050   */\n      swap4\n      swap3\n      pop\n      pop\n      pop\n      jump\t// out\n        /* \"#utility.yul\":3070:3434   */\n    tag_374:\n        /* \"#utility.yul\":3138:3143   */\n      0x00\n        /* \"#utility.yul\":3187:3190   */\n      dup3\n        /* \"#utility.yul\":3180:3184   */\n      0x1f\n        /* \"#utility.yul\":3172:3178   */\n      dup4\n        /* \"#utility.yul\":3168:3185   */\n      add\n        /* \"#utility.yul\":3164:3191   */\n      slt\n        /* \"#utility.yul\":3154:3276   */\n      tag_463\n      jumpi\n        /* \"#utility.yul\":3195:3274   */\n      tag_464\n      tag_364\n      jump\t// in\n    tag_464:\n        /* \"#utility.yul\":3154:3276   */\n    tag_463:\n        /* \"#utility.yul\":3312:3318   */\n      dup2\n        /* \"#utility.yul\":3299:3319   */\n      calldataload\n        /* \"#utility.yul\":3337:3428   */\n      tag_465\n        /* \"#utility.yul\":3424:3427   */\n      dup5\n        /* \"#utility.yul\":3416:3422   */\n      dup3\n        /* \"#utility.yul\":3409:3413   */\n      0x20\n        /* \"#utility.yul\":3401:3407   */\n      dup7\n        /* \"#utility.yul\":3397:3414   */\n      add\n        /* \"#utility.yul\":3337:3428   */\n      tag_373\n      jump\t// in\n    tag_465:\n        /* \"#utility.yul\":3328:3428   */\n      swap2\n      pop\n        /* \"#utility.yul\":3144:3434   */\n      pop\n        /* \"#utility.yul\":3070:3434   */\n      swap3\n      swap2\n      pop\n      pop\n      jump\t// out\n        /* \"#utility.yul\":3440:4116   */\n    tag_13:\n        /* \"#utility.yul\":3529:3535   */\n      0x00\n        /* \"#utility.yul\":3537:3543   */\n      dup1\n        /* \"#utility.yul\":3586:3588   */\n      0x40\n        /* \"#utility.yul\":3574:3583   */\n      dup4\n        /* \"#utility.yul\":3565:3572   */\n      dup6\n        /* \"#utility.yul\":3561:3584   */\n      sub\n        /* \"#utility.yul\":3557:3589   */\n      slt\n        /* \"#utility.yul\":3554:3673   */\n      iszero\n      tag_467\n      jumpi\n        /* \"#utility.yul\":3592:3671   */\n      tag_468\n      tag_359\n      jump\t// in\n    tag_468:\n        /* \"#utility.yul\":3554:3673   */\n    tag_467:\n        /* \"#utility.yul\":3712:3713   */\n      0x00\n        /* \"#utility.yul\":3737:3789   */\n      tag_469\n        /* \"#utility.yul\":3781:3788   */\n      dup6\n        /* \"#utility.yul\":3772:3778   */\n      dup3\n        /* \"#utility.yul\":3761:3770   */\n      dup7\n        /* \"#utility.yul\":3757:3779   */\n      add\n        /* \"#utility.yul\":3737:3789   */\n      tag_363\n      jump\t// in\n    tag_469:\n        /* \"#utility.yul\":3727:3789   */\n      swap3\n      pop\n        /* \"#utility.yul\":3683:3799   */\n      pop\n        /* \"#utility.yul\":3866:3868   */\n      0x20\n        /* \"#utility.yul\":3855:3864   */\n      dup4\n        /* \"#utility.yul\":3851:3869   */\n      add\n        /* \"#utility.yul\":3838:3870   */\n      calldataload\n        /* \"#utility.yul\":3897:3915   */\n      0xffffffffffffffff\n        /* \"#utility.yul\":3889:3895   */\n      dup2\n        /* \"#utility.yul\":3886:3916   */\n      gt\n        /* \"#utility.yul\":3883:4000   */\n      iszero\n      tag_470\n      jumpi\n        /* \"#utility.yul\":3919:3998   */\n      tag_471\n      tag_360\n      jump\t// in\n    tag_471:\n        /* \"#utility.yul\":3883:4000   */\n    tag_470:\n        /* \"#utility.yul\":4024:4099   */\n      tag_472\n        /* \"#utility.yul\":4091:4098   */\n      dup6\n        /* \"#utility.yul\":4082:4088   */\n      dup3\n        /* \"#utility.yul\":4071:4080   */\n      dup7\n        /* \"#utility.yul\":4067:4089   */\n      add\n        /* \"#utility.yul\":4024:4099   */\n      tag_374\n      jump\t// in\n    tag_472:\n        /* \"#utility.yul\":4014:4099   */\n      swap2\n      pop\n        /* \"#utility.yul\":3809:4109   */\n      pop\n        /* \"#utility.yul\":3440:4116   */\n      swap3\n      pop\n      swap3\n      swap1\n      pop\n      jump\t// out\n        /* \"#utility.yul\":4122:4231   */\n    tag_375:\n        /* \"#utility.yul\":4203:4224   */\n      tag_474\n        /* \"#utility.yul\":4218:4223   */\n      dup2\n        /* \"#utility.yul\":4203:4224   */\n      tag_370\n      jump\t// in\n    tag_474:\n        /* \"#utility.yul\":4198:4201   */\n      dup3\n        /* \"#utility.yul\":4191:4225   */\n      mstore\n        /* \"#utility.yul\":4122:4231   */\n      pop\n      pop\n      jump\t// out\n        /* \"#utility.yul\":4237:4447   */\n    tag_16:\n        /* \"#utility.yul\":4324:4328   */\n      0x00\n        /* \"#utility.yul\":4362:4364   */\n      0x20\n        /* \"#utility.yul\":4351:4360   */\n      dup3\n        /* \"#utility.yul\":4347:4365   */\n      add\n        /* \"#utility.yul\":4339:4365   */\n      swap1\n      pop\n        /* \"#utility.yul\":4375:4440   */\n      tag_476\n        /* \"#utility.yul\":4437:4438   */\n      0x00\n        /* \"#utility.yul\":4426:4435   */\n      dup4\n        /* \"#utility.yul\":4422:4439   */\n      add\n        /* \"#utility.yul\":4413:4419   */\n      dup5\n        /* \"#utility.yul\":4375:4440   */\n      tag_375\n      jump\t// in\n    tag_476:\n        /* \"#utility.yul\":4237:4447   */\n      swap3\n      swap2\n      pop\n      pop\n      jump\t// out\n        /* \"#utility.yul\":4453:4570   */\n    tag_376:\n        /* \"#utility.yul\":4562:4563   */\n      0x00\n        /* \"#utility.yul\":4559:4560   */\n      dup1\n        /* \"#utility.yul\":4552:4564   */\n      revert\n        /* \"#utility.yul\":4576:4884   */\n    tag_377:\n        /* \"#utility.yul\":4638:4642   */\n      0x00\n        /* \"#utility.yul\":4728:4746   */\n      0xffffffffffffffff\n        /* \"#utility.yul\":4720:4726   */\n      dup3\n        /* \"#utility.yul\":4717:4747   */\n      gt\n        /* \"#utility.yul\":4714:4770   */\n      iszero\n      tag_479\n      jumpi\n        /* \"#utility.yul\":4750:4768   */\n      tag_480\n      tag_261\n      jump\t// in\n    tag_480:\n        /* \"#utility.yul\":4714:4770   */\n    tag_479:\n        /* \"#utility.yul\":4788:4817   */\n      tag_481\n        /* \"#utility.yul\":4810:4816   */\n      dup3\n        /* \"#utility.yul\":4788:4817   */\n      tag_365\n      jump\t// in\n    tag_481:\n        /* \"#utility.yul\":4780:4817   */\n      swap1\n      pop\n        /* \"#utility.yul\":4872:4876   */\n      0x20\n        /* \"#utility.yul\":4866:4870   */\n      dup2\n        /* \"#utility.yul\":4862:4877   */\n      add\n        /* \"#utility.yul\":4854:4877   */\n      swap1\n      pop\n        /* \"#utility.yul\":4576:4884   */\n      swap2\n      swap1\n      pop\n      jump\t// out\n        /* \"#utility.yul\":4890:5044   */\n    tag_378:\n        /* \"#utility.yul\":4974:4980   */\n      dup3\n        /* \"#utility.yul\":4969:4972   */\n      dup2\n        /* \"#utility.yul\":4964:4967   */\n      dup4\n        /* \"#utility.yul\":4951:4981   */\n      calldatacopy\n        /* \"#utility.yul\":5036:5037   */\n      0x00\n        /* \"#utility.yul\":5027:5033   */\n      dup4\n        /* \"#utility.yul\":5022:5025   */\n      dup4\n        /* \"#utility.yul\":5018:5034   */\n      add\n        /* \"#utility.yul\":5011:5038   */\n      mstore\n        /* \"#utility.yul\":4890:5044   */\n      pop\n      pop\n      pop\n      jump\t// out\n        /* \"#utility.yul\":5050:5462   */\n    tag_379:\n        /* \"#utility.yul\":5128:5133   */\n      0x00\n        /* \"#utility.yul\":5153:5219   */\n      tag_484\n        /* \"#utility.yul\":5169:5218   */\n      tag_485\n        /* \"#utility.yul\":5211:5217   */\n      dup5\n        /* \"#utility.yul\":5169:5218   */\n      tag_377\n      jump\t// in\n    tag_485:\n        /* \"#utility.yul\":5153:5219   */\n      tag_367\n      jump\t// in\n    tag_484:\n        /* \"#utility.yul\":5144:5219   */\n      swap1\n      pop\n        /* \"#utility.yul\":5242:5248   */\n      dup3\n        /* \"#utility.yul\":5235:5240   */\n      dup2\n        /* \"#utility.yul\":5228:5249   */\n      mstore\n        /* \"#utility.yul\":5280:5284   */\n      0x20\n        /* \"#utility.yul\":5273:5278   */\n      dup2\n        /* \"#utility.yul\":5269:5285   */\n      add\n        /* \"#utility.yul\":5318:5321   */\n      dup5\n        /* \"#utility.yul\":5309:5315   */\n      dup5\n        /* \"#utility.yul\":5304:5307   */\n      dup5\n        /* \"#utility.yul\":5300:5316   */\n      add\n        /* \"#utility.yul\":5297:5322   */\n      gt\n        /* \"#utility.yul\":5294:5406   */\n      iszero\n      tag_486\n      jumpi\n        /* \"#utility.yul\":5325:5404   */\n      tag_487\n      tag_376\n      jump\t// in\n    tag_487:\n        /* \"#utility.yul\":5294:5406   */\n    tag_486:\n        /* \"#utility.yul\":5415:5456   */\n      tag_488\n        /* \"#utility.yul\":5449:5455   */\n      dup5\n        /* \"#utility.yul\":5444:5447   */\n      dup3\n        /* \"#utility.yul\":5439:5442   */\n      dup6\n        /* \"#utility.yul\":5415:5456   */\n      tag_378\n      jump\t// in\n    tag_488:\n        /* \"#utility.yul\":5134:5462   */\n      pop\n        /* \"#utility.yul\":5050:5462   */\n      swap4\n      swap3\n      pop\n      pop\n      pop\n      jump\t// out\n        /* \"#utility.yul\":5482:5822   */\n    tag_380:\n        /* \"#utility.yul\":5538:5543   */\n      0x00\n        /* \"#utility.yul\":5587:5590   */\n      dup3\n        /* \"#utility.yul\":5580:5584   */\n      0x1f\n        /* \"#utility.yul\":5572:5578   */\n      dup4\n        /* \"#utility.yul\":5568:5585   */\n      add\n        /* \"#utility.yul\":5564:5591   */\n      slt\n        /* \"#utility.yul\":5554:5676   */\n      tag_490\n      jumpi\n        /* \"#utility.yul\":5595:5674   */\n      tag_491\n      tag_364\n      jump\t// in\n    tag_491:\n        /* \"#utility.yul\":5554:5676   */\n    tag_490:\n        /* \"#utility.yul\":5712:5718   */\n      dup2\n        /* \"#utility.yul\":5699:5719   */\n      calldataload\n        /* \"#utility.yul\":5737:5816   */\n      tag_492\n        /* \"#utility.yul\":5812:5815   */\n      dup5\n        /* \"#utility.yul\":5804:5810   */\n      dup3\n        /* \"#utility.yul\":5797:5801   */\n      0x20\n        /* \"#utility.yul\":5789:5795   */\n      dup7\n        /* \"#utility.yul\":5785:5802   */\n      add\n        /* \"#utility.yul\":5737:5816   */\n      tag_379\n      jump\t// in\n    tag_492:\n        /* \"#utility.yul\":5728:5816   */\n      swap2\n      pop\n        /* \"#utility.yul\":5544:5822   */\n      pop\n        /* \"#utility.yul\":5482:5822   */\n      swap3\n      swap2\n      pop\n      pop\n      jump\t// out\n        /* \"#utility.yul\":5828:5954   */\n    tag_381:\n        /* \"#utility.yul\":5865:5872   */\n      0x00\n        /* \"#utility.yul\":5905:5947   */\n      0xffffffffffffffffffffffffffffffffffffffff\n        /* \"#utility.yul\":5898:5903   */\n      dup3\n        /* \"#utility.yul\":5894:5948   */\n      and\n        /* \"#utility.yul\":5883:5948   */\n      swap1\n      pop\n        /* \"#utility.yul\":5828:5954   */\n      swap2\n      swap1\n      pop\n      jump\t// out\n        /* \"#utility.yul\":5960:6056   */\n    tag_382:\n        /* \"#utility.yul\":5997:6004   */\n      0x00\n        /* \"#utility.yul\":6026:6050   */\n      tag_495\n        /* \"#utility.yul\":6044:6049   */\n      dup3\n        /* \"#utility.yul\":6026:6050   */\n      tag_381\n      jump\t// in\n    tag_495:\n        /* \"#utility.yul\":6015:6050   */\n      swap1\n      pop\n        /* \"#utility.yul\":5960:6056   */\n      swap2\n      swap1\n      pop\n      jump\t// out\n        /* \"#utility.yul\":6062:6184   */\n    tag_383:\n        /* \"#utility.yul\":6135:6159   */\n      tag_497\n        /* \"#utility.yul\":6153:6158   */\n      dup2\n        /* \"#utility.yul\":6135:6159   */\n      tag_382\n      jump\t// in\n    tag_497:\n        /* \"#utility.yul\":6128:6133   */\n      dup2\n        /* \"#utility.yul\":6125:6160   */\n      eq\n        /* \"#utility.yul\":6115:6178   */\n      tag_498\n      jumpi\n        /* \"#utility.yul\":6174:6175   */\n      0x00\n        /* \"#utility.yul\":6171:6172   */\n      dup1\n        /* \"#utility.yul\":6164:6176   */\n      revert\n        /* \"#utility.yul\":6115:6178   */\n    tag_498:\n        /* \"#utility.yul\":6062:6184   */\n      pop\n      jump\t// out\n        /* \"#utility.yul\":6190:6329   */\n    tag_384:\n        /* \"#utility.yul\":6236:6241   */\n      0x00\n        /* \"#utility.yul\":6274:6280   */\n      dup2\n        /* \"#utility.yul\":6261:6281   */\n      calldataload\n        /* \"#utility.yul\":6252:6281   */\n      swap1\n      pop\n        /* \"#utility.yul\":6290:6323   */\n      tag_500\n        /* \"#utility.yul\":6317:6322   */\n      dup2\n        /* \"#utility.yul\":6290:6323   */\n      tag_383\n      jump\t// in\n    tag_500:\n        /* \"#utility.yul\":6190:6329   */\n      swap3\n      swap2\n      pop\n      pop\n      jump\t// out\n        /* \"#utility.yul\":6335:6989   */\n    tag_19:\n        /* \"#utility.yul\":6413:6419   */\n      0x00\n        /* \"#utility.yul\":6421:6427   */\n      dup1\n        /* \"#utility.yul\":6470:6472   */\n      0x40\n        /* \"#utility.yul\":6458:6467   */\n      dup4\n        /* \"#utility.yul\":6449:6456   */\n      dup6\n        /* \"#utility.yul\":6445:6468   */\n      sub\n        /* \"#utility.yul\":6441:6473   */\n      slt\n        /* \"#utility.yul\":6438:6557   */\n      iszero\n      tag_502\n      jumpi\n        /* \"#utility.yul\":6476:6555   */\n      tag_503\n      tag_359\n      jump\t// in\n    tag_503:\n        /* \"#utility.yul\":6438:6557   */\n    tag_502:\n        /* \"#utility.yul\":6624:6625   */\n      0x00\n        /* \"#utility.yul\":6613:6622   */\n      dup4\n        /* \"#utility.yul\":6609:6626   */\n      add\n        /* \"#utility.yul\":6596:6627   */\n      calldataload\n        /* \"#utility.yul\":6654:6672   */\n      0xffffffffffffffff\n        /* \"#utility.yul\":6646:6652   */\n      dup2\n        /* \"#utility.yul\":6643:6673   */\n      gt\n        /* \"#utility.yul\":6640:6757   */\n      iszero\n      tag_504\n      jumpi\n        /* \"#utility.yul\":6676:6755   */\n      tag_505\n      tag_360\n      jump\t// in\n    tag_505:\n        /* \"#utility.yul\":6640:6757   */\n    tag_504:\n        /* \"#utility.yul\":6781:6844   */\n      tag_506\n        /* \"#utility.yul\":6836:6843   */\n      dup6\n        /* \"#utility.yul\":6827:6833   */\n      dup3\n        /* \"#utility.yul\":6816:6825   */\n      dup7\n        /* \"#utility.yul\":6812:6834   */\n      add\n        /* \"#utility.yul\":6781:6844   */\n      tag_380\n      jump\t// in\n    tag_506:\n        /* \"#utility.yul\":6771:6844   */\n      swap3\n      pop\n        /* \"#utility.yul\":6567:6854   */\n      pop\n        /* \"#utility.yul\":6893:6895   */\n      0x20\n        /* \"#utility.yul\":6919:6972   */\n      tag_507\n        /* \"#utility.yul\":6964:6971   */\n      dup6\n        /* \"#utility.yul\":6955:6961   */\n      dup3\n        /* \"#utility.yul\":6944:6953   */\n      dup7\n        /* \"#utility.yul\":6940:6962   */\n      add\n        /* \"#utility.yul\":6919:6972   */\n      tag_384\n      jump\t// in\n    tag_507:\n        /* \"#utility.yul\":6909:6972   */\n      swap2\n      pop\n        /* \"#utility.yul\":6864:6982   */\n      pop\n        /* \"#utility.yul\":6335:6989   */\n      swap3\n      pop\n      swap3\n      swap1\n      pop\n      jump\t// out\n        /* \"#utility.yul\":6995:7113   */\n    tag_385:\n        /* \"#utility.yul\":7082:7106   */\n      tag_509\n        /* \"#utility.yul\":7100:7105   */\n      dup2\n        /* \"#utility.yul\":7082:7106   */\n      tag_382\n      jump\t// in\n    tag_509:\n        /* \"#utility.yul\":7077:7080   */\n      dup3\n        /* \"#utility.yul\":7070:7107   */\n      mstore\n        /* \"#utility.yul\":6995:7113   */\n      pop\n      pop\n      jump\t// out\n        /* \"#utility.yul\":7119:7341   */\n    tag_25:\n        /* \"#utility.yul\":7212:7216   */\n      0x00\n        /* \"#utility.yul\":7250:7252   */\n      0x20\n        /* \"#utility.yul\":7239:7248   */\n      dup3\n        /* \"#utility.yul\":7235:7253   */\n      add\n        /* \"#utility.yul\":7227:7253   */\n      swap1\n      pop\n        /* \"#utility.yul\":7263:7334   */\n      tag_511\n        /* \"#utility.yul\":7331:7332   */\n      0x00\n        /* \"#utility.yul\":7320:7329   */\n      dup4\n        /* \"#utility.yul\":7316:7333   */\n      add\n        /* \"#utility.yul\":7307:7313   */\n      dup5\n        /* \"#utility.yul\":7263:7334   */\n      tag_385\n      jump\t// in\n    tag_511:\n        /* \"#utility.yul\":7119:7341   */\n      swap3\n      swap2\n      pop\n      pop\n      jump\t// out\n        /* \"#utility.yul\":7347:7433   */\n    tag_386:\n        /* \"#utility.yul\":7382:7389   */\n      0x00\n        /* \"#utility.yul\":7422:7426   */\n      0xff\n        /* \"#utility.yul\":7415:7420   */\n      dup3\n        /* \"#utility.yul\":7411:7427   */\n      and\n        /* \"#utility.yul\":7400:7427   */\n      swap1\n      pop\n        /* \"#utility.yul\":7347:7433   */\n      swap2\n      swap1\n      pop\n      jump\t// out\n        /* \"#utility.yul\":7439:7557   */\n    tag_387:\n        /* \"#utility.yul\":7510:7532   */\n      tag_514\n        /* \"#utility.yul\":7526:7531   */\n      dup2\n        /* \"#utility.yul\":7510:7532   */\n      tag_386\n      jump\t// in\n    tag_514:\n        /* \"#utility.yul\":7503:7508   */\n      dup2\n        /* \"#utility.yul\":7500:7533   */\n      eq\n        /* \"#utility.yul\":7490:7551   */\n      tag_515\n      jumpi\n        /* \"#utility.yul\":7547:7548   */\n      0x00\n        /* \"#utility.yul\":7544:7545   */\n      dup1\n        /* \"#utility.yul\":7537:7549   */\n      revert\n        /* \"#utility.yul\":7490:7551   */\n    tag_515:\n        /* \"#utility.yul\":7439:7557   */\n      pop\n      jump\t// out\n        /* \"#utility.yul\":7563:7698   */\n    tag_388:\n        /* \"#utility.yul\":7607:7612   */\n      0x00\n        /* \"#utility.yul\":7645:7651   */\n      dup2\n        /* \"#utility.yul\":7632:7652   */\n      calldataload\n        /* \"#utility.yul\":7623:7652   */\n      swap1\n      pop\n        /* \"#utility.yul\":7661:7692   */\n      tag_517\n        /* \"#utility.yul\":7686:7691   */\n      dup2\n        /* \"#utility.yul\":7661:7692   */\n      tag_387\n      jump\t// in\n    tag_517:\n        /* \"#utility.yul\":7563:7698   */\n      swap3\n      swap2\n      pop\n      pop\n      jump\t// out\n        /* \"#utility.yul\":7704:8315   */\n    tag_31:\n        /* \"#utility.yul\":7777:7783   */\n      0x00\n        /* \"#utility.yul\":7785:7791   */\n      dup1\n        /* \"#utility.yul\":7793:7799   */\n      0x00\n        /* \"#utility.yul\":7842:7844   */\n      0x60\n        /* \"#utility.yul\":7830:7839   */\n      dup5\n        /* \"#utility.yul\":7821:7828   */\n      dup7\n        /* \"#utility.yul\":7817:7840   */\n      sub\n        /* \"#utility.yul\":7813:7845   */\n      slt\n        /* \"#utility.yul\":7810:7929   */\n      iszero\n      tag_519\n      jumpi\n        /* \"#utility.yul\":7848:7927   */\n      tag_520\n      tag_359\n      jump\t// in\n    tag_520:\n        /* \"#utility.yul\":7810:7929   */\n    tag_519:\n        /* \"#utility.yul\":7968:7969   */\n      0x00\n        /* \"#utility.yul\":7993:8044   */\n      tag_521\n        /* \"#utility.yul\":8036:8043   */\n      dup7\n        /* \"#utility.yul\":8027:8033   */\n      dup3\n        /* \"#utility.yul\":8016:8025   */\n      dup8\n        /* \"#utility.yul\":8012:8034   */\n      add\n        /* \"#utility.yul\":7993:8044   */\n      tag_388\n      jump\t// in\n    tag_521:\n        /* \"#utility.yul\":7983:8044   */\n      swap4\n      pop\n        /* \"#utility.yul\":7939:8054   */\n      pop\n        /* \"#utility.yul\":8093:8095   */\n      0x20\n        /* \"#utility.yul\":8119:8171   */\n      tag_522\n        /* \"#utility.yul\":8163:8170   */\n      dup7\n        /* \"#utility.yul\":8154:8160   */\n      dup3\n        /* \"#utility.yul\":8143:8152   */\n      dup8\n        /* \"#utility.yul\":8139:8161   */\n      add\n        /* \"#utility.yul\":8119:8171   */\n      tag_363\n      jump\t// in\n    tag_522:\n        /* \"#utility.yul\":8109:8171   */\n      swap3\n      pop\n        /* \"#utility.yul\":8064:8181   */\n      pop\n        /* \"#utility.yul\":8220:8222   */\n      0x40\n        /* \"#utility.yul\":8246:8298   */\n      tag_523\n        /* \"#utility.yul\":8290:8297   */\n      dup7\n        /* \"#utility.yul\":8281:8287   */\n      dup3\n        /* \"#utility.yul\":8270:8279   */\n      dup8\n        /* \"#utility.yul\":8266:8288   */\n      add\n        /* \"#utility.yul\":8246:8298   */\n      tag_363\n      jump\t// in\n    tag_523:\n        /* \"#utility.yul\":8236:8298   */\n      swap2\n      pop\n        /* \"#utility.yul\":8191:8308   */\n      pop\n        /* \"#utility.yul\":7704:8315   */\n      swap3\n      pop\n      swap3\n      pop\n      swap3\n      jump\t// out\n        /* \"#utility.yul\":8321:8650   */\n    tag_39:\n        /* \"#utility.yul\":8380:8386   */\n      0x00\n        /* \"#utility.yul\":8429:8431   */\n      0x20\n        /* \"#utility.yul\":8417:8426   */\n      dup3\n        /* \"#utility.yul\":8408:8415   */\n      dup5\n        /* \"#utility.yul\":8404:8427   */\n      sub\n        /* \"#utility.yul\":8400:8432   */\n      slt\n        /* \"#utility.yul\":8397:8516   */\n      iszero\n      tag_525\n      jumpi\n        /* \"#utility.yul\":8435:8514   */\n      tag_526\n      tag_359\n      jump\t// in\n    tag_526:\n        /* \"#utility.yul\":8397:8516   */\n    tag_525:\n        /* \"#utility.yul\":8555:8556   */\n      0x00\n        /* \"#utility.yul\":8580:8633   */\n      tag_527\n        /* \"#utility.yul\":8625:8632   */\n      dup5\n        /* \"#utility.yul\":8616:8622   */\n      dup3\n        /* \"#utility.yul\":8605:8614   */\n      dup6\n        /* \"#utility.yul\":8601:8623   */\n      add\n        /* \"#utility.yul\":8580:8633   */\n      tag_384\n      jump\t// in\n    tag_527:\n        /* \"#utility.yul\":8570:8633   */\n      swap2\n      pop\n        /* \"#utility.yul\":8526:8643   */\n      pop\n        /* \"#utility.yul\":8321:8650   */\n      swap3\n      swap2\n      pop\n      pop\n      jump\t// out\n        /* \"#utility.yul\":8656:8755   */\n    tag_389:\n        /* \"#utility.yul\":8708:8714   */\n      0x00\n        /* \"#utility.yul\":8742:8747   */\n      dup2\n        /* \"#utility.yul\":8736:8748   */\n      mload\n        /* \"#utility.yul\":8726:8748   */\n      swap1\n      pop\n        /* \"#utility.yul\":8656:8755   */\n      swap2\n      swap1\n      pop\n      jump\t// out\n        /* \"#utility.yul\":8761:8920   */\n    tag_390:\n        /* \"#utility.yul\":8835:8846   */\n      0x00\n        /* \"#utility.yul\":8869:8875   */\n      dup3\n        /* \"#utility.yul\":8864:8867   */\n      dup3\n        /* \"#utility.yul\":8857:8876   */\n      mstore\n        /* \"#utility.yul\":8909:8913   */\n      0x20\n        /* \"#utility.yul\":8904:8907   */\n      dup3\n        /* \"#utility.yul\":8900:8914   */\n      add\n        /* \"#utility.yul\":8885:8914   */\n      swap1\n      pop\n        /* \"#utility.yul\":8761:8920   */\n      swap3\n      swap2\n      pop\n      pop\n      jump\t// out\n        /* \"#utility.yul\":8926:9233   */\n    tag_391:\n        /* \"#utility.yul\":8994:8995   */\n      0x00\n        /* \"#utility.yul\":9004:9117   */\n    tag_531:\n        /* \"#utility.yul\":9018:9024   */\n      dup4\n        /* \"#utility.yul\":9015:9016   */\n      dup2\n        /* \"#utility.yul\":9012:9025   */\n      lt\n        /* \"#utility.yul\":9004:9117   */\n      iszero\n      tag_533\n      jumpi\n        /* \"#utility.yul\":9103:9104   */\n      dup1\n        /* \"#utility.yul\":9098:9101   */\n      dup3\n        /* \"#utility.yul\":9094:9105   */\n      add\n        /* \"#utility.yul\":9088:9106   */\n      mload\n        /* \"#utility.yul\":9084:9085   */\n      dup2\n        /* \"#utility.yul\":9079:9082   */\n      dup5\n        /* \"#utility.yul\":9075:9086   */\n      add\n        /* \"#utility.yul\":9068:9107   */\n      mstore\n        /* \"#utility.yul\":9040:9042   */\n      0x20\n        /* \"#utility.yul\":9037:9038   */\n      dup2\n        /* \"#utility.yul\":9033:9043   */\n      add\n        /* \"#utility.yul\":9028:9043   */\n      swap1\n      pop\n        /* \"#utility.yul\":9004:9117   */\n      jump(tag_531)\n    tag_533:\n        /* \"#utility.yul\":9135:9141   */\n      dup4\n        /* \"#utility.yul\":9132:9133   */\n      dup2\n        /* \"#utility.yul\":9129:9142   */\n      gt\n        /* \"#utility.yul\":9126:9227   */\n      iszero\n      tag_534\n      jumpi\n        /* \"#utility.yul\":9215:9216   */\n      0x00\n        /* \"#utility.yul\":9206:9212   */\n      dup5\n        /* \"#utility.yul\":9201:9204   */\n      dup5\n        /* \"#utility.yul\":9197:9213   */\n      add\n        /* \"#utility.yul\":9190:9217   */\n      mstore\n        /* \"#utility.yul\":9126:9227   */\n    tag_534:\n        /* \"#utility.yul\":8975:9233   */\n      pop\n        /* \"#utility.yul\":8926:9233   */\n      pop\n      pop\n      pop\n      jump\t// out\n        /* \"#utility.yul\":9239:9583   */\n    tag_392:\n        /* \"#utility.yul\":9317:9320   */\n      0x00\n        /* \"#utility.yul\":9345:9384   */\n      tag_536\n        /* \"#utility.yul\":9378:9383   */\n      dup3\n        /* \"#utility.yul\":9345:9384   */\n      tag_389\n      jump\t// in\n    tag_536:\n        /* \"#utility.yul\":9400:9461   */\n      tag_537\n        /* \"#utility.yul\":9454:9460   */\n      dup2\n        /* \"#utility.yul\":9449:9452   */\n      dup6\n        /* \"#utility.yul\":9400:9461   */\n      tag_390\n      jump\t// in\n    tag_537:\n        /* \"#utility.yul\":9393:9461   */\n      swap4\n      pop\n        /* \"#utility.yul\":9470:9522   */\n      tag_538\n        /* \"#utility.yul\":9515:9521   */\n      dup2\n        /* \"#utility.yul\":9510:9513   */\n      dup6\n        /* \"#utility.yul\":9503:9507   */\n      0x20\n        /* \"#utility.yul\":9496:9501   */\n      dup7\n        /* \"#utility.yul\":9492:9508   */\n      add\n        /* \"#utility.yul\":9470:9522   */\n      tag_391\n      jump\t// in\n    tag_538:\n        /* \"#utility.yul\":9547:9576   */\n      tag_539\n        /* \"#utility.yul\":9569:9575   */\n      dup2\n        /* \"#utility.yul\":9547:9576   */\n      tag_365\n      jump\t// in\n    tag_539:\n        /* \"#utility.yul\":9542:9545   */\n      dup5\n        /* \"#utility.yul\":9538:9577   */\n      add\n        /* \"#utility.yul\":9531:9577   */\n      swap2\n      pop\n        /* \"#utility.yul\":9321:9583   */\n      pop\n        /* \"#utility.yul\":9239:9583   */\n      swap3\n      swap2\n      pop\n      pop\n      jump\t// out\n        /* \"#utility.yul\":9589:9697   */\n    tag_393:\n        /* \"#utility.yul\":9666:9690   */\n      tag_541\n        /* \"#utility.yul\":9684:9689   */\n      dup2\n        /* \"#utility.yul\":9666:9690   */\n      tag_382\n      jump\t// in\n    tag_541:\n        /* \"#utility.yul\":9661:9664   */\n      dup3\n        /* \"#utility.yul\":9654:9691   */\n      mstore\n        /* \"#utility.yul\":9589:9697   */\n      pop\n      pop\n      jump\t// out\n        /* \"#utility.yul\":9703:9802   */\n    tag_394:\n        /* \"#utility.yul\":9774:9795   */\n      tag_543\n        /* \"#utility.yul\":9789:9794   */\n      dup2\n        /* \"#utility.yul\":9774:9795   */\n      tag_370\n      jump\t// in\n    tag_543:\n        /* \"#utility.yul\":9769:9772   */\n      dup3\n        /* \"#utility.yul\":9762:9796   */\n      mstore\n        /* \"#utility.yul\":9703:9802   */\n      pop\n      pop\n      jump\t// out\n        /* \"#utility.yul\":9852:10628   */\n    tag_395:\n        /* \"#utility.yul\":9963:9966   */\n      0x00\n        /* \"#utility.yul\":9999:10003   */\n      0x60\n        /* \"#utility.yul\":9994:9997   */\n      dup4\n        /* \"#utility.yul\":9990:10004   */\n      add\n        /* \"#utility.yul\":10086:10090   */\n      0x00\n        /* \"#utility.yul\":10079:10084   */\n      dup4\n        /* \"#utility.yul\":10075:10091   */\n      add\n        /* \"#utility.yul\":10069:10092   */\n      mload\n        /* \"#utility.yul\":10139:10142   */\n      dup5\n        /* \"#utility.yul\":10133:10137   */\n      dup3\n        /* \"#utility.yul\":10129:10143   */\n      sub\n        /* \"#utility.yul\":10122:10126   */\n      0x00\n        /* \"#utility.yul\":10117:10120   */\n      dup7\n        /* \"#utility.yul\":10113:10127   */\n      add\n        /* \"#utility.yul\":10106:10144   */\n      mstore\n        /* \"#utility.yul\":10165:10238   */\n      tag_545\n        /* \"#utility.yul\":10233:10237   */\n      dup3\n        /* \"#utility.yul\":10219:10231   */\n      dup3\n        /* \"#utility.yul\":10165:10238   */\n      tag_392\n      jump\t// in\n    tag_545:\n        /* \"#utility.yul\":10157:10238   */\n      swap2\n      pop\n        /* \"#utility.yul\":10014:10249   */\n      pop\n        /* \"#utility.yul\":10340:10344   */\n      0x20\n        /* \"#utility.yul\":10333:10338   */\n      dup4\n        /* \"#utility.yul\":10329:10345   */\n      add\n        /* \"#utility.yul\":10323:10346   */\n      mload\n        /* \"#utility.yul\":10359:10422   */\n      tag_546\n        /* \"#utility.yul\":10416:10420   */\n      0x20\n        /* \"#utility.yul\":10411:10414   */\n      dup7\n        /* \"#utility.yul\":10407:10421   */\n      add\n        /* \"#utility.yul\":10393:10405   */\n      dup3\n        /* \"#utility.yul\":10359:10422   */\n      tag_393\n      jump\t// in\n    tag_546:\n        /* \"#utility.yul\":10259:10432   */\n      pop\n        /* \"#utility.yul\":10515:10519   */\n      0x40\n        /* \"#utility.yul\":10508:10513   */\n      dup4\n        /* \"#utility.yul\":10504:10520   */\n      add\n        /* \"#utility.yul\":10498:10521   */\n      mload\n        /* \"#utility.yul\":10534:10591   */\n      tag_547\n        /* \"#utility.yul\":10585:10589   */\n      0x40\n        /* \"#utility.yul\":10580:10583   */\n      dup7\n        /* \"#utility.yul\":10576:10590   */\n      add\n        /* \"#utility.yul\":10562:10574   */\n      dup3\n        /* \"#utility.yul\":10534:10591   */\n      tag_394\n      jump\t// in\n    tag_547:\n        /* \"#utility.yul\":10442:10601   */\n      pop\n        /* \"#utility.yul\":10618:10622   */\n      dup1\n        /* \"#utility.yul\":10611:10622   */\n      swap2\n      pop\n        /* \"#utility.yul\":9968:10628   */\n      pop\n        /* \"#utility.yul\":9852:10628   */\n      swap3\n      swap2\n      pop\n      pop\n      jump\t// out\n        /* \"#utility.yul\":10634:10991   */\n    tag_42:\n        /* \"#utility.yul\":10769:10773   */\n      0x00\n        /* \"#utility.yul\":10807:10809   */\n      0x20\n        /* \"#utility.yul\":10796:10805   */\n      dup3\n        /* \"#utility.yul\":10792:10810   */\n      add\n        /* \"#utility.yul\":10784:10810   */\n      swap1\n      pop\n        /* \"#utility.yul\":10856:10865   */\n      dup2\n        /* \"#utility.yul\":10850:10854   */\n      dup2\n        /* \"#utility.yul\":10846:10866   */\n      sub\n        /* \"#utility.yul\":10842:10843   */\n      0x00\n        /* \"#utility.yul\":10831:10840   */\n      dup4\n        /* \"#utility.yul\":10827:10844   */\n      add\n        /* \"#utility.yul\":10820:10867   */\n      mstore\n        /* \"#utility.yul\":10884:10984   */\n      tag_549\n        /* \"#utility.yul\":10979:10983   */\n      dup2\n        /* \"#utility.yul\":10970:10976   */\n      dup5\n        /* \"#utility.yul\":10884:10984   */\n      tag_395\n      jump\t// in\n    tag_549:\n        /* \"#utility.yul\":10876:10984   */\n      swap1\n      pop\n        /* \"#utility.yul\":10634:10991   */\n      swap3\n      swap2\n      pop\n      pop\n      jump\t// out\n        /* \"#utility.yul\":10997:11166   */\n    tag_396:\n        /* \"#utility.yul\":11081:11092   */\n      0x00\n        /* \"#utility.yul\":11115:11121   */\n      dup3\n        /* \"#utility.yul\":11110:11113   */\n      dup3\n        /* \"#utility.yul\":11103:11122   */\n      mstore\n        /* \"#utility.yul\":11155:11159   */\n      0x20\n        /* \"#utility.yul\":11150:11153   */\n      dup3\n        /* \"#utility.yul\":11146:11160   */\n      add\n        /* \"#utility.yul\":11131:11160   */\n      swap1\n      pop\n        /* \"#utility.yul\":10997:11166   */\n      swap3\n      swap2\n      pop\n      pop\n      jump\t// out\n        /* \"#utility.yul\":11172:11350   */\n    tag_397:\n        /* \"#utility.yul\":11312:11342   */\n      0x5468697320636f6e747261637420697320646561637469766174656400000000\n        /* \"#utility.yul\":11308:11309   */\n      0x00\n        /* \"#utility.yul\":11300:11306   */\n      dup3\n        /* \"#utility.yul\":11296:11310   */\n      add\n        /* \"#utility.yul\":11289:11343   */\n      mstore\n        /* \"#utility.yul\":11172:11350   */\n      pop\n      jump\t// out\n        /* \"#utility.yul\":11356:11722   */\n    tag_398:\n        /* \"#utility.yul\":11498:11501   */\n      0x00\n        /* \"#utility.yul\":11519:11586   */\n      tag_553\n        /* \"#utility.yul\":11583:11585   */\n      0x1c\n        /* \"#utility.yul\":11578:11581   */\n      dup4\n        /* \"#utility.yul\":11519:11586   */\n      tag_396\n      jump\t// in\n    tag_553:\n        /* \"#utility.yul\":11512:11586   */\n      swap2\n      pop\n        /* \"#utility.yul\":11595:11688   */\n      tag_554\n        /* \"#utility.yul\":11684:11687   */\n      dup3\n        /* \"#utility.yul\":11595:11688   */\n      tag_397\n      jump\t// in\n    tag_554:\n        /* \"#utility.yul\":11713:11715   */\n      0x20\n        /* \"#utility.yul\":11708:11711   */\n      dup3\n        /* \"#utility.yul\":11704:11716   */\n      add\n        /* \"#utility.yul\":11697:11716   */\n      swap1\n      pop\n        /* \"#utility.yul\":11356:11722   */\n      swap2\n      swap1\n      pop\n      jump\t// out\n        /* \"#utility.yul\":11728:12147   */\n    tag_52:\n        /* \"#utility.yul\":11894:11898   */\n      0x00\n        /* \"#utility.yul\":11932:11934   */\n      0x20\n        /* \"#utility.yul\":11921:11930   */\n      dup3\n        /* \"#utility.yul\":11917:11935   */\n      add\n        /* \"#utility.yul\":11909:11935   */\n      swap1\n      pop\n        /* \"#utility.yul\":11981:11990   */\n      dup2\n        /* \"#utility.yul\":11975:11979   */\n      dup2\n        /* \"#utility.yul\":11971:11991   */\n      sub\n        /* \"#utility.yul\":11967:11968   */\n      0x00\n        /* \"#utility.yul\":11956:11965   */\n      dup4\n        /* \"#utility.yul\":11952:11969   */\n      add\n        /* \"#utility.yul\":11945:11992   */\n      mstore\n        /* \"#utility.yul\":12009:12140   */\n      tag_556\n        /* \"#utility.yul\":12135:12139   */\n      dup2\n        /* \"#utility.yul\":12009:12140   */\n      tag_398\n      jump\t// in\n    tag_556:\n        /* \"#utility.yul\":12001:12140   */\n      swap1\n      pop\n        /* \"#utility.yul\":11728:12147   */\n      swap2\n      swap1\n      pop\n      jump\t// out\n        /* \"#utility.yul\":12153:12387   */\n    tag_399:\n        /* \"#utility.yul\":12293:12327   */\n      0x4f6e6c7920746865206170706c69636174696f6e2063616e2065786563757465\n        /* \"#utility.yul\":12289:12290   */\n      0x00\n        /* \"#utility.yul\":12281:12287   */\n      dup3\n        /* \"#utility.yul\":12277:12291   */\n      add\n        /* \"#utility.yul\":12270:12328   */\n      mstore\n        /* \"#utility.yul\":12362:12379   */\n      0x2074686973206f7065726174696f6e0000000000000000000000000000000000\n        /* \"#utility.yul\":12357:12359   */\n      0x20\n        /* \"#utility.yul\":12349:12355   */\n      dup3\n        /* \"#utility.yul\":12345:12360   */\n      add\n        /* \"#utility.yul\":12338:12380   */\n      mstore\n        /* \"#utility.yul\":12153:12387   */\n      pop\n      jump\t// out\n        /* \"#utility.yul\":12393:12759   */\n    tag_400:\n        /* \"#utility.yul\":12535:12538   */\n      0x00\n        /* \"#utility.yul\":12556:12623   */\n      tag_559\n        /* \"#utility.yul\":12620:12622   */\n      0x2f\n        /* \"#utility.yul\":12615:12618   */\n      dup4\n        /* \"#utility.yul\":12556:12623   */\n      tag_396\n      jump\t// in\n    tag_559:\n        /* \"#utility.yul\":12549:12623   */\n      swap2\n      pop\n        /* \"#utility.yul\":12632:12725   */\n      tag_560\n        /* \"#utility.yul\":12721:12724   */\n      dup3\n        /* \"#utility.yul\":12632:12725   */\n      tag_399\n      jump\t// in\n    tag_560:\n        /* \"#utility.yul\":12750:12752   */\n      0x40\n        /* \"#utility.yul\":12745:12748   */\n      dup3\n        /* \"#utility.yul\":12741:12753   */\n      add\n        /* \"#utility.yul\":12734:12753   */\n      swap1\n      pop\n        /* \"#utility.yul\":12393:12759   */\n      swap2\n      swap1\n      pop\n      jump\t// out\n        /* \"#utility.yul\":12765:13184   */\n    tag_55:\n        /* \"#utility.yul\":12931:12935   */\n      0x00\n        /* \"#utility.yul\":12969:12971   */\n      0x20\n        /* \"#utility.yul\":12958:12967   */\n      dup3\n        /* \"#utility.yul\":12954:12972   */\n      add\n        /* \"#utility.yul\":12946:12972   */\n      swap1\n      pop\n        /* \"#utility.yul\":13018:13027   */\n      dup2\n        /* \"#utility.yul\":13012:13016   */\n      dup2\n        /* \"#utility.yul\":13008:13028   */\n      sub\n        /* \"#utility.yul\":13004:13005   */\n      0x00\n        /* \"#utility.yul\":12993:13002   */\n      dup4\n        /* \"#utility.yul\":12989:13006   */\n      add\n        /* \"#utility.yul\":12982:13029   */\n      mstore\n        /* \"#utility.yul\":13046:13177   */\n      tag_562\n        /* \"#utility.yul\":13172:13176   */\n      dup2\n        /* \"#utility.yul\":13046:13177   */\n      tag_400\n      jump\t// in\n    tag_562:\n        /* \"#utility.yul\":13038:13177   */\n      swap1\n      pop\n        /* \"#utility.yul\":12765:13184   */\n      swap2\n      swap1\n      pop\n      jump\t// out\n        /* \"#utility.yul\":13190:13370   */\n    tag_60:\n        /* \"#utility.yul\":13238:13315   */\n      0x4e487b7100000000000000000000000000000000000000000000000000000000\n        /* \"#utility.yul\":13235:13236   */\n      0x00\n        /* \"#utility.yul\":13228:13316   */\n      mstore\n        /* \"#utility.yul\":13335:13339   */\n      0x32\n        /* \"#utility.yul\":13332:13333   */\n      0x04\n        /* \"#utility.yul\":13325:13340   */\n      mstore\n        /* \"#utility.yul\":13359:13363   */\n      0x24\n        /* \"#utility.yul\":13356:13357   */\n      0x00\n        /* \"#utility.yul\":13349:13364   */\n      revert\n        /* \"#utility.yul\":13376:13547   */\n    tag_401:\n        /* \"#utility.yul\":13516:13539   */\n      0x5375636365737366756c20657865637574696f6e210000000000000000000000\n        /* \"#utility.yul\":13512:13513   */\n      0x00\n        /* \"#utility.yul\":13504:13510   */\n      dup3\n        /* \"#utility.yul\":13500:13514   */\n      add\n        /* \"#utility.yul\":13493:13540   */\n      mstore\n        /* \"#utility.yul\":13376:13547   */\n      pop\n      jump\t// out\n        /* \"#utility.yul\":13553:13919   */\n    tag_402:\n        /* \"#utility.yul\":13695:13698   */\n      0x00\n        /* \"#utility.yul\":13716:13783   */\n      tag_566\n        /* \"#utility.yul\":13780:13782   */\n      0x15\n        /* \"#utility.yul\":13775:13778   */\n      dup4\n        /* \"#utility.yul\":13716:13783   */\n      tag_396\n      jump\t// in\n    tag_566:\n        /* \"#utility.yul\":13709:13783   */\n      swap2\n      pop\n        /* \"#utility.yul\":13792:13885   */\n      tag_567\n        /* \"#utility.yul\":13881:13884   */\n      dup3\n        /* \"#utility.yul\":13792:13885   */\n      tag_401\n      jump\t// in\n    tag_567:\n        /* \"#utility.yul\":13910:13912   */\n      0x20\n        /* \"#utility.yul\":13905:13908   */\n      dup3\n        /* \"#utility.yul\":13901:13913   */\n      add\n        /* \"#utility.yul\":13894:13913   */\n      swap1\n      pop\n        /* \"#utility.yul\":13553:13919   */\n      swap2\n      swap1\n      pop\n      jump\t// out\n        /* \"#utility.yul\":13925:14344   */\n    tag_73:\n        /* \"#utility.yul\":14091:14095   */\n      0x00\n        /* \"#utility.yul\":14129:14131   */\n      0x20\n        /* \"#utility.yul\":14118:14127   */\n      dup3\n        /* \"#utility.yul\":14114:14132   */\n      add\n        /* \"#utility.yul\":14106:14132   */\n      swap1\n      pop\n        /* \"#utility.yul\":14178:14187   */\n      dup2\n        /* \"#utility.yul\":14172:14176   */\n      dup2\n        /* \"#utility.yul\":14168:14188   */\n      sub\n        /* \"#utility.yul\":14164:14165   */\n      0x00\n        /* \"#utility.yul\":14153:14162   */\n      dup4\n        /* \"#utility.yul\":14149:14166   */\n      add\n        /* \"#utility.yul\":14142:14189   */\n      mstore\n        /* \"#utility.yul\":14206:14337   */\n      tag_569\n        /* \"#utility.yul\":14332:14336   */\n      dup2\n        /* \"#utility.yul\":14206:14337   */\n      tag_402\n      jump\t// in\n    tag_569:\n        /* \"#utility.yul\":14198:14337   */\n      swap1\n      pop\n        /* \"#utility.yul\":13925:14344   */\n      swap2\n      swap1\n      pop\n      jump\t// out\n        /* \"#utility.yul\":14350:14522   */\n    tag_403:\n        /* \"#utility.yul\":14490:14514   */\n      0x436f6e646974696f6e7320646f206e6f74206d65657400000000000000000000\n        /* \"#utility.yul\":14486:14487   */\n      0x00\n        /* \"#utility.yul\":14478:14484   */\n      dup3\n        /* \"#utility.yul\":14474:14488   */\n      add\n        /* \"#utility.yul\":14467:14515   */\n      mstore\n        /* \"#utility.yul\":14350:14522   */\n      pop\n      jump\t// out\n        /* \"#utility.yul\":14528:14894   */\n    tag_404:\n        /* \"#utility.yul\":14670:14673   */\n      0x00\n        /* \"#utility.yul\":14691:14758   */\n      tag_572\n        /* \"#utility.yul\":14755:14757   */\n      0x16\n        /* \"#utility.yul\":14750:14753   */\n      dup4\n        /* \"#utility.yul\":14691:14758   */\n      tag_396\n      jump\t// in\n    tag_572:\n        /* \"#utility.yul\":14684:14758   */\n      swap2\n      pop\n        /* \"#utility.yul\":14767:14860   */\n      tag_573\n        /* \"#utility.yul\":14856:14859   */\n      dup3\n        /* \"#utility.yul\":14767:14860   */\n      tag_403\n      jump\t// in\n    tag_573:\n        /* \"#utility.yul\":14885:14887   */\n      0x20\n        /* \"#utility.yul\":14880:14883   */\n      dup3\n        /* \"#utility.yul\":14876:14888   */\n      add\n        /* \"#utility.yul\":14869:14888   */\n      swap1\n      pop\n        /* \"#utility.yul\":14528:14894   */\n      swap2\n      swap1\n      pop\n      jump\t// out\n        /* \"#utility.yul\":14900:15319   */\n    tag_76:\n        /* \"#utility.yul\":15066:15070   */\n      0x00\n        /* \"#utility.yul\":15104:15106   */\n      0x20\n        /* \"#utility.yul\":15093:15102   */\n      dup3\n        /* \"#utility.yul\":15089:15107   */\n      add\n        /* \"#utility.yul\":15081:15107   */\n      swap1\n      pop\n        /* \"#utility.yul\":15153:15162   */\n      dup2\n        /* \"#utility.yul\":15147:15151   */\n      dup2\n        /* \"#utility.yul\":15143:15163   */\n      sub\n        /* \"#utility.yul\":15139:15140   */\n      0x00\n        /* \"#utility.yul\":15128:15137   */\n      dup4\n        /* \"#utility.yul\":15124:15141   */\n      add\n        /* \"#utility.yul\":15117:15164   */\n      mstore\n        /* \"#utility.yul\":15181:15312   */\n      tag_575\n        /* \"#utility.yul\":15307:15311   */\n      dup2\n        /* \"#utility.yul\":15181:15312   */\n      tag_404\n      jump\t// in\n    tag_575:\n        /* \"#utility.yul\":15173:15312   */\n      swap1\n      pop\n        /* \"#utility.yul\":14900:15319   */\n      swap2\n      swap1\n      pop\n      jump\t// out\n        /* \"#utility.yul\":15325:15555   */\n    tag_405:\n        /* \"#utility.yul\":15465:15499   */\n      0x4f6e6c79207468652070726f636573732063616e206578656375746520746869\n        /* \"#utility.yul\":15461:15462   */\n      0x00\n        /* \"#utility.yul\":15453:15459   */\n      dup3\n        /* \"#utility.yul\":15449:15463   */\n      add\n        /* \"#utility.yul\":15442:15500   */\n      mstore\n        /* \"#utility.yul\":15534:15547   */\n      0x73206f7065726174696f6e000000000000000000000000000000000000000000\n        /* \"#utility.yul\":15529:15531   */\n      0x20\n        /* \"#utility.yul\":15521:15527   */\n      dup3\n        /* \"#utility.yul\":15517:15532   */\n      add\n        /* \"#utility.yul\":15510:15548   */\n      mstore\n        /* \"#utility.yul\":15325:15555   */\n      pop\n      jump\t// out\n        /* \"#utility.yul\":15561:15927   */\n    tag_406:\n        /* \"#utility.yul\":15703:15706   */\n      0x00\n        /* \"#utility.yul\":15724:15791   */\n      tag_578\n        /* \"#utility.yul\":15788:15790   */\n      0x2b\n        /* \"#utility.yul\":15783:15786   */\n      dup4\n        /* \"#utility.yul\":15724:15791   */\n      tag_396\n      jump\t// in\n    tag_578:\n        /* \"#utility.yul\":15717:15791   */\n      swap2\n      pop\n        /* \"#utility.yul\":15800:15893   */\n      tag_579\n        /* \"#utility.yul\":15889:15892   */\n      dup3\n        /* \"#utility.yul\":15800:15893   */\n      tag_405\n      jump\t// in\n    tag_579:\n        /* \"#utility.yul\":15918:15920   */\n      0x40\n        /* \"#utility.yul\":15913:15916   */\n      dup3\n        /* \"#utility.yul\":15909:15921   */\n      add\n        /* \"#utility.yul\":15902:15921   */\n      swap1\n      pop\n        /* \"#utility.yul\":15561:15927   */\n      swap2\n      swap1\n      pop\n      jump\t// out\n        /* \"#utility.yul\":15933:16352   */\n    tag_80:\n        /* \"#utility.yul\":16099:16103   */\n      0x00\n        /* \"#utility.yul\":16137:16139   */\n      0x20\n        /* \"#utility.yul\":16126:16135   */\n      dup3\n        /* \"#utility.yul\":16122:16140   */\n      add\n        /* \"#utility.yul\":16114:16140   */\n      swap1\n      pop\n        /* \"#utility.yul\":16186:16195   */\n      dup2\n        /* \"#utility.yul\":16180:16184   */\n      dup2\n        /* \"#utility.yul\":16176:16196   */\n      sub\n        /* \"#utility.yul\":16172:16173   */\n      0x00\n        /* \"#utility.yul\":16161:16170   */\n      dup4\n        /* \"#utility.yul\":16157:16174   */\n      add\n        /* \"#utility.yul\":16150:16197   */\n      mstore\n        /* \"#utility.yul\":16214:16345   */\n      tag_581\n        /* \"#utility.yul\":16340:16344   */\n      dup2\n        /* \"#utility.yul\":16214:16345   */\n      tag_406\n      jump\t// in\n    tag_581:\n        /* \"#utility.yul\":16206:16345   */\n      swap1\n      pop\n        /* \"#utility.yul\":15933:16352   */\n      swap2\n      swap1\n      pop\n      jump\t// out\n        /* \"#utility.yul\":16358:16607   */\n    tag_407:\n        /* \"#utility.yul\":16498:16532   */\n      0x4f6e6c79207468652070726f63657373206f7220746865206170706c69636174\n        /* \"#utility.yul\":16494:16495   */\n      0x00\n        /* \"#utility.yul\":16486:16492   */\n      dup3\n        /* \"#utility.yul\":16482:16496   */\n      add\n        /* \"#utility.yul\":16475:16533   */\n      mstore\n        /* \"#utility.yul\":16567:16599   */\n      0x696f6e2063616e20657865637574652074686973206f7065726174696f6e0000\n        /* \"#utility.yul\":16562:16564   */\n      0x20\n        /* \"#utility.yul\":16554:16560   */\n      dup3\n        /* \"#utility.yul\":16550:16565   */\n      add\n        /* \"#utility.yul\":16543:16600   */\n      mstore\n        /* \"#utility.yul\":16358:16607   */\n      pop\n      jump\t// out\n        /* \"#utility.yul\":16613:16979   */\n    tag_408:\n        /* \"#utility.yul\":16755:16758   */\n      0x00\n        /* \"#utility.yul\":16776:16843   */\n      tag_584\n        /* \"#utility.yul\":16840:16842   */\n      0x3e\n        /* \"#utility.yul\":16835:16838   */\n      dup4\n        /* \"#utility.yul\":16776:16843   */\n      tag_396\n      jump\t// in\n    tag_584:\n        /* \"#utility.yul\":16769:16843   */\n      swap2\n      pop\n        /* \"#utility.yul\":16852:16945   */\n      tag_585\n        /* \"#utility.yul\":16941:16944   */\n      dup3\n        /* \"#utility.yul\":16852:16945   */\n      tag_407\n      jump\t// in\n    tag_585:\n        /* \"#utility.yul\":16970:16972   */\n      0x40\n        /* \"#utility.yul\":16965:16968   */\n      dup3\n        /* \"#utility.yul\":16961:16973   */\n      add\n        /* \"#utility.yul\":16954:16973   */\n      swap1\n      pop\n        /* \"#utility.yul\":16613:16979   */\n      swap2\n      swap1\n      pop\n      jump\t// out\n        /* \"#utility.yul\":16985:17404   */\n    tag_94:\n        /* \"#utility.yul\":17151:17155   */\n      0x00\n        /* \"#utility.yul\":17189:17191   */\n      0x20\n        /* \"#utility.yul\":17178:17187   */\n      dup3\n        /* \"#utility.yul\":17174:17192   */\n      add\n        /* \"#utility.yul\":17166:17192   */\n      swap1\n      pop\n        /* \"#utility.yul\":17238:17247   */\n      dup2\n        /* \"#utility.yul\":17232:17236   */\n      dup2\n        /* \"#utility.yul\":17228:17248   */\n      sub\n        /* \"#utility.yul\":17224:17225   */\n      0x00\n        /* \"#utility.yul\":17213:17222   */\n      dup4\n        /* \"#utility.yul\":17209:17226   */\n      add\n        /* \"#utility.yul\":17202:17249   */\n      mstore\n        /* \"#utility.yul\":17266:17397   */\n      tag_587\n        /* \"#utility.yul\":17392:17396   */\n      dup2\n        /* \"#utility.yul\":17266:17397   */\n      tag_408\n      jump\t// in\n    tag_587:\n        /* \"#utility.yul\":17258:17397   */\n      swap1\n      pop\n        /* \"#utility.yul\":16985:17404   */\n      swap2\n      swap1\n      pop\n      jump\t// out\n        /* \"#utility.yul\":17410:17590   */\n    tag_409:\n        /* \"#utility.yul\":17550:17582   */\n      0x54686520636f6e747261637420697320616c7265616479207369676e65640000\n        /* \"#utility.yul\":17546:17547   */\n      0x00\n        /* \"#utility.yul\":17538:17544   */\n      dup3\n        /* \"#utility.yul\":17534:17548   */\n      add\n        /* \"#utility.yul\":17527:17583   */\n      mstore\n        /* \"#utility.yul\":17410:17590   */\n      pop\n      jump\t// out\n        /* \"#utility.yul\":17596:17962   */\n    tag_410:\n        /* \"#utility.yul\":17738:17741   */\n      0x00\n        /* \"#utility.yul\":17759:17826   */\n      tag_590\n        /* \"#utility.yul\":17823:17825   */\n      0x1e\n        /* \"#utility.yul\":17818:17821   */\n      dup4\n        /* \"#utility.yul\":17759:17826   */\n      tag_396\n      jump\t// in\n    tag_590:\n        /* \"#utility.yul\":17752:17826   */\n      swap2\n      pop\n        /* \"#utility.yul\":17835:17928   */\n      tag_591\n        /* \"#utility.yul\":17924:17927   */\n      dup3\n        /* \"#utility.yul\":17835:17928   */\n      tag_409\n      jump\t// in\n    tag_591:\n        /* \"#utility.yul\":17953:17955   */\n      0x20\n        /* \"#utility.yul\":17948:17951   */\n      dup3\n        /* \"#utility.yul\":17944:17956   */\n      add\n        /* \"#utility.yul\":17937:17956   */\n      swap1\n      pop\n        /* \"#utility.yul\":17596:17962   */\n      swap2\n      swap1\n      pop\n      jump\t// out\n        /* \"#utility.yul\":17968:18387   */\n    tag_143:\n        /* \"#utility.yul\":18134:18138   */\n      0x00\n        /* \"#utility.yul\":18172:18174   */\n      0x20\n        /* \"#utility.yul\":18161:18170   */\n      dup3\n        /* \"#utility.yul\":18157:18175   */\n      add\n        /* \"#utility.yul\":18149:18175   */\n      swap1\n      pop\n        /* \"#utility.yul\":18221:18230   */\n      dup2\n        /* \"#utility.yul\":18215:18219   */\n      dup2\n        /* \"#utility.yul\":18211:18231   */\n      sub\n        /* \"#utility.yul\":18207:18208   */\n      0x00\n        /* \"#utility.yul\":18196:18205   */\n      dup4\n        /* \"#utility.yul\":18192:18209   */\n      add\n        /* \"#utility.yul\":18185:18232   */\n      mstore\n        /* \"#utility.yul\":18249:18380   */\n      tag_593\n        /* \"#utility.yul\":18375:18379   */\n      dup2\n        /* \"#utility.yul\":18249:18380   */\n      tag_410\n      jump\t// in\n    tag_593:\n        /* \"#utility.yul\":18241:18380   */\n      swap1\n      pop\n        /* \"#utility.yul\":17968:18387   */\n      swap2\n      swap1\n      pop\n      jump\t// out\n        /* \"#utility.yul\":18393:18573   */\n    tag_411:\n        /* \"#utility.yul\":18441:18518   */\n      0x4e487b7100000000000000000000000000000000000000000000000000000000\n        /* \"#utility.yul\":18438:18439   */\n      0x00\n        /* \"#utility.yul\":18431:18519   */\n      mstore\n        /* \"#utility.yul\":18538:18542   */\n      0x22\n        /* \"#utility.yul\":18535:18536   */\n      0x04\n        /* \"#utility.yul\":18528:18543   */\n      mstore\n        /* \"#utility.yul\":18562:18566   */\n      0x24\n        /* \"#utility.yul\":18559:18560   */\n      0x00\n        /* \"#utility.yul\":18552:18567   */\n      revert\n        /* \"#utility.yul\":18579:18899   */\n    tag_155:\n        /* \"#utility.yul\":18623:18629   */\n      0x00\n        /* \"#utility.yul\":18660:18661   */\n      0x02\n        /* \"#utility.yul\":18654:18658   */\n      dup3\n        /* \"#utility.yul\":18650:18662   */\n      div\n        /* \"#utility.yul\":18640:18662   */\n      swap1\n      pop\n        /* \"#utility.yul\":18707:18708   */\n      0x01\n        /* \"#utility.yul\":18701:18705   */\n      dup3\n        /* \"#utility.yul\":18697:18709   */\n      and\n        /* \"#utility.yul\":18728:18746   */\n      dup1\n        /* \"#utility.yul\":18718:18799   */\n      tag_596\n      jumpi\n        /* \"#utility.yul\":18784:18788   */\n      0x7f\n        /* \"#utility.yul\":18776:18782   */\n      dup3\n        /* \"#utility.yul\":18772:18789   */\n      and\n        /* \"#utility.yul\":18762:18789   */\n      swap2\n      pop\n        /* \"#utility.yul\":18718:18799   */\n    tag_596:\n        /* \"#utility.yul\":18846:18848   */\n      0x20\n        /* \"#utility.yul\":18838:18844   */\n      dup3\n        /* \"#utility.yul\":18835:18849   */\n      lt\n        /* \"#utility.yul\":18815:18833   */\n      dup2\n        /* \"#utility.yul\":18812:18850   */\n      sub\n        /* \"#utility.yul\":18809:18893   */\n      tag_597\n      jumpi\n        /* \"#utility.yul\":18865:18883   */\n      tag_598\n      tag_411\n      jump\t// in\n    tag_598:\n        /* \"#utility.yul\":18809:18893   */\n    tag_597:\n        /* \"#utility.yul\":18630:18899   */\n      pop\n        /* \"#utility.yul\":18579:18899   */\n      swap2\n      swap1\n      pop\n      jump\t// out\n        /* \"#utility.yul\":18905:19132   */\n    tag_412:\n        /* \"#utility.yul\":19045:19079   */\n      0x546865205f7374617274446179206e6f7420726570726573656e747320612076\n        /* \"#utility.yul\":19041:19042   */\n      0x00\n        /* \"#utility.yul\":19033:19039   */\n      dup3\n        /* \"#utility.yul\":19029:19043   */\n      add\n        /* \"#utility.yul\":19022:19080   */\n      mstore\n        /* \"#utility.yul\":19114:19124   */\n      0x616c696420646179000000000000000000000000000000000000000000000000\n        /* \"#utility.yul\":19109:19111   */\n      0x20\n        /* \"#utility.yul\":19101:19107   */\n      dup3\n        /* \"#utility.yul\":19097:19112   */\n      add\n        /* \"#utility.yul\":19090:19125   */\n      mstore\n        /* \"#utility.yul\":18905:19132   */\n      pop\n      jump\t// out\n        /* \"#utility.yul\":19138:19504   */\n    tag_413:\n        /* \"#utility.yul\":19280:19283   */\n      0x00\n        /* \"#utility.yul\":19301:19368   */\n      tag_601\n        /* \"#utility.yul\":19365:19367   */\n      0x28\n        /* \"#utility.yul\":19360:19363   */\n      dup4\n        /* \"#utility.yul\":19301:19368   */\n      tag_396\n      jump\t// in\n    tag_601:\n        /* \"#utility.yul\":19294:19368   */\n      swap2\n      pop\n        /* \"#utility.yul\":19377:19470   */\n      tag_602\n        /* \"#utility.yul\":19466:19469   */\n      dup3\n        /* \"#utility.yul\":19377:19470   */\n      tag_412\n      jump\t// in\n    tag_602:\n        /* \"#utility.yul\":19495:19497   */\n      0x40\n        /* \"#utility.yul\":19490:19493   */\n      dup3\n        /* \"#utility.yul\":19486:19498   */\n      add\n        /* \"#utility.yul\":19479:19498   */\n      swap1\n      pop\n        /* \"#utility.yul\":19138:19504   */\n      swap2\n      swap1\n      pop\n      jump\t// out\n        /* \"#utility.yul\":19510:19929   */\n    tag_168:\n        /* \"#utility.yul\":19676:19680   */\n      0x00\n        /* \"#utility.yul\":19714:19716   */\n      0x20\n        /* \"#utility.yul\":19703:19712   */\n      dup3\n        /* \"#utility.yul\":19699:19717   */\n      add\n        /* \"#utility.yul\":19691:19717   */\n      swap1\n      pop\n        /* \"#utility.yul\":19763:19772   */\n      dup2\n        /* \"#utility.yul\":19757:19761   */\n      dup2\n        /* \"#utility.yul\":19753:19773   */\n      sub\n        /* \"#utility.yul\":19749:19750   */\n      0x00\n        /* \"#utility.yul\":19738:19747   */\n      dup4\n        /* \"#utility.yul\":19734:19751   */\n      add\n        /* \"#utility.yul\":19727:19774   */\n      mstore\n        /* \"#utility.yul\":19791:19922   */\n      tag_604\n        /* \"#utility.yul\":19917:19921   */\n      dup2\n        /* \"#utility.yul\":19791:19922   */\n      tag_413\n      jump\t// in\n    tag_604:\n        /* \"#utility.yul\":19783:19922   */\n      swap1\n      pop\n        /* \"#utility.yul\":19510:19929   */\n      swap2\n      swap1\n      pop\n      jump\t// out\n        /* \"#utility.yul\":19935:20160   */\n    tag_414:\n        /* \"#utility.yul\":20075:20109   */\n      0x546865205f656e64446179206e6f7420726570726573656e747320612076616c\n        /* \"#utility.yul\":20071:20072   */\n      0x00\n        /* \"#utility.yul\":20063:20069   */\n      dup3\n        /* \"#utility.yul\":20059:20073   */\n      add\n        /* \"#utility.yul\":20052:20110   */\n      mstore\n        /* \"#utility.yul\":20144:20152   */\n      0x6964206461790000000000000000000000000000000000000000000000000000\n        /* \"#utility.yul\":20139:20141   */\n      0x20\n        /* \"#utility.yul\":20131:20137   */\n      dup3\n        /* \"#utility.yul\":20127:20142   */\n      add\n        /* \"#utility.yul\":20120:20153   */\n      mstore\n        /* \"#utility.yul\":19935:20160   */\n      pop\n      jump\t// out\n        /* \"#utility.yul\":20166:20532   */\n    tag_415:\n        /* \"#utility.yul\":20308:20311   */\n      0x00\n        /* \"#utility.yul\":20329:20396   */\n      tag_607\n        /* \"#utility.yul\":20393:20395   */\n      0x26\n        /* \"#utility.yul\":20388:20391   */\n      dup4\n        /* \"#utility.yul\":20329:20396   */\n      tag_396\n      jump\t// in\n    tag_607:\n        /* \"#utility.yul\":20322:20396   */\n      swap2\n      pop\n        /* \"#utility.yul\":20405:20498   */\n      tag_608\n        /* \"#utility.yul\":20494:20497   */\n      dup3\n        /* \"#utility.yul\":20405:20498   */\n      tag_414\n      jump\t// in\n    tag_608:\n        /* \"#utility.yul\":20523:20525   */\n      0x40\n        /* \"#utility.yul\":20518:20521   */\n      dup3\n        /* \"#utility.yul\":20514:20526   */\n      add\n        /* \"#utility.yul\":20507:20526   */\n      swap1\n      pop\n        /* \"#utility.yul\":20166:20532   */\n      swap2\n      swap1\n      pop\n      jump\t// out\n        /* \"#utility.yul\":20538:20957   */\n    tag_172:\n        /* \"#utility.yul\":20704:20708   */\n      0x00\n        /* \"#utility.yul\":20742:20744   */\n      0x20\n        /* \"#utility.yul\":20731:20740   */\n      dup3\n        /* \"#utility.yul\":20727:20745   */\n      add\n        /* \"#utility.yul\":20719:20745   */\n      swap1\n      pop\n        /* \"#utility.yul\":20791:20800   */\n      dup2\n        /* \"#utility.yul\":20785:20789   */\n      dup2\n        /* \"#utility.yul\":20781:20801   */\n      sub\n        /* \"#utility.yul\":20777:20778   */\n      0x00\n        /* \"#utility.yul\":20766:20775   */\n      dup4\n        /* \"#utility.yul\":20762:20779   */\n      add\n        /* \"#utility.yul\":20755:20802   */\n      mstore\n        /* \"#utility.yul\":20819:20950   */\n      tag_610\n        /* \"#utility.yul\":20945:20949   */\n      dup2\n        /* \"#utility.yul\":20819:20950   */\n      tag_415\n      jump\t// in\n    tag_610:\n        /* \"#utility.yul\":20811:20950   */\n      swap1\n      pop\n        /* \"#utility.yul\":20538:20957   */\n      swap2\n      swap1\n      pop\n      jump\t// out\n        /* \"#utility.yul\":20963:21184   */\n    tag_416:\n        /* \"#utility.yul\":21103:21137   */\n      0x5468657265206973206e6f20656e6454696d652073657420696e2074696d656f\n        /* \"#utility.yul\":21099:21100   */\n      0x00\n        /* \"#utility.yul\":21091:21097   */\n      dup3\n        /* \"#utility.yul\":21087:21101   */\n      add\n        /* \"#utility.yul\":21080:21138   */\n      mstore\n        /* \"#utility.yul\":21172:21176   */\n      0x7574000000000000000000000000000000000000000000000000000000000000\n        /* \"#utility.yul\":21167:21169   */\n      0x20\n        /* \"#utility.yul\":21159:21165   */\n      dup3\n        /* \"#utility.yul\":21155:21170   */\n      add\n        /* \"#utility.yul\":21148:21177   */\n      mstore\n        /* \"#utility.yul\":20963:21184   */\n      pop\n      jump\t// out\n        /* \"#utility.yul\":21190:21556   */\n    tag_417:\n        /* \"#utility.yul\":21332:21335   */\n      0x00\n        /* \"#utility.yul\":21353:21420   */\n      tag_613\n        /* \"#utility.yul\":21417:21419   */\n      0x22\n        /* \"#utility.yul\":21412:21415   */\n      dup4\n        /* \"#utility.yul\":21353:21420   */\n      tag_396\n      jump\t// in\n    tag_613:\n        /* \"#utility.yul\":21346:21420   */\n      swap2\n      pop\n        /* \"#utility.yul\":21429:21522   */\n      tag_614\n        /* \"#utility.yul\":21518:21521   */\n      dup3\n        /* \"#utility.yul\":21429:21522   */\n      tag_416\n      jump\t// in\n    tag_614:\n        /* \"#utility.yul\":21547:21549   */\n      0x40\n        /* \"#utility.yul\":21542:21545   */\n      dup3\n        /* \"#utility.yul\":21538:21550   */\n      add\n        /* \"#utility.yul\":21531:21550   */\n      swap1\n      pop\n        /* \"#utility.yul\":21190:21556   */\n      swap2\n      swap1\n      pop\n      jump\t// out\n        /* \"#utility.yul\":21562:21981   */\n    tag_204:\n        /* \"#utility.yul\":21728:21732   */\n      0x00\n        /* \"#utility.yul\":21766:21768   */\n      0x20\n        /* \"#utility.yul\":21755:21764   */\n      dup3\n        /* \"#utility.yul\":21751:21769   */\n      add\n        /* \"#utility.yul\":21743:21769   */\n      swap1\n      pop\n        /* \"#utility.yul\":21815:21824   */\n      dup2\n        /* \"#utility.yul\":21809:21813   */\n      dup2\n        /* \"#utility.yul\":21805:21825   */\n      sub\n        /* \"#utility.yul\":21801:21802   */\n      0x00\n        /* \"#utility.yul\":21790:21799   */\n      dup4\n        /* \"#utility.yul\":21786:21803   */\n      add\n        /* \"#utility.yul\":21779:21826   */\n      mstore\n        /* \"#utility.yul\":21843:21974   */\n      tag_616\n        /* \"#utility.yul\":21969:21973   */\n      dup2\n        /* \"#utility.yul\":21843:21974   */\n      tag_417\n      jump\t// in\n    tag_616:\n        /* \"#utility.yul\":21835:21974   */\n      swap1\n      pop\n        /* \"#utility.yul\":21562:21981   */\n      swap2\n      swap1\n      pop\n      jump\t// out\n        /* \"#utility.yul\":21987:22167   */\n    tag_418:\n        /* \"#utility.yul\":22035:22112   */\n      0x4e487b7100000000000000000000000000000000000000000000000000000000\n        /* \"#utility.yul\":22032:22033   */\n      0x00\n        /* \"#utility.yul\":22025:22113   */\n      mstore\n        /* \"#utility.yul\":22132:22136   */\n      0x11\n        /* \"#utility.yul\":22129:22130   */\n      0x04\n        /* \"#utility.yul\":22122:22137   */\n      mstore\n        /* \"#utility.yul\":22156:22160   */\n      0x24\n        /* \"#utility.yul\":22153:22154   */\n      0x00\n        /* \"#utility.yul\":22146:22161   */\n      revert\n        /* \"#utility.yul\":22173:22361   */\n    tag_207:\n        /* \"#utility.yul\":22212:22216   */\n      0x00\n        /* \"#utility.yul\":22232:22251   */\n      tag_619\n        /* \"#utility.yul\":22249:22250   */\n      dup3\n        /* \"#utility.yul\":22232:22251   */\n      tag_361\n      jump\t// in\n    tag_619:\n        /* \"#utility.yul\":22227:22251   */\n      swap2\n      pop\n        /* \"#utility.yul\":22265:22284   */\n      tag_620\n        /* \"#utility.yul\":22282:22283   */\n      dup4\n        /* \"#utility.yul\":22265:22284   */\n      tag_361\n      jump\t// in\n    tag_620:\n        /* \"#utility.yul\":22260:22284   */\n      swap3\n      pop\n        /* \"#utility.yul\":22303:22304   */\n      dup3\n        /* \"#utility.yul\":22300:22301   */\n      dup3\n        /* \"#utility.yul\":22297:22305   */\n      lt\n        /* \"#utility.yul\":22294:22328   */\n      iszero\n      tag_621\n      jumpi\n        /* \"#utility.yul\":22308:22326   */\n      tag_622\n      tag_418\n      jump\t// in\n    tag_622:\n        /* \"#utility.yul\":22294:22328   */\n    tag_621:\n        /* \"#utility.yul\":22353:22354   */\n      dup3\n        /* \"#utility.yul\":22350:22351   */\n      dup3\n        /* \"#utility.yul\":22346:22355   */\n      sub\n        /* \"#utility.yul\":22338:22355   */\n      swap1\n      pop\n        /* \"#utility.yul\":22173:22361   */\n      swap3\n      swap2\n      pop\n      pop\n      jump\t// out\n        /* \"#utility.yul\":22367:22613   */\n    tag_238:\n        /* \"#utility.yul\":22406:22409   */\n      0x00\n        /* \"#utility.yul\":22425:22444   */\n      tag_624\n        /* \"#utility.yul\":22442:22443   */\n      dup3\n        /* \"#utility.yul\":22425:22444   */\n      tag_361\n      jump\t// in\n    tag_624:\n        /* \"#utility.yul\":22420:22444   */\n      swap2\n      pop\n        /* \"#utility.yul\":22458:22477   */\n      tag_625\n        /* \"#utility.yul\":22475:22476   */\n      dup4\n        /* \"#utility.yul\":22458:22477   */\n      tag_361\n      jump\t// in\n    tag_625:\n        /* \"#utility.yul\":22453:22477   */\n      swap3\n      pop\n        /* \"#utility.yul\":22555:22556   */\n      dup3\n        /* \"#utility.yul\":22543:22553   */\n      0xffffffff\n        /* \"#utility.yul\":22539:22557   */\n      sub\n        /* \"#utility.yul\":22536:22537   */\n      dup3\n        /* \"#utility.yul\":22533:22558   */\n      gt\n        /* \"#utility.yul\":22530:22581   */\n      iszero\n      tag_626\n      jumpi\n        /* \"#utility.yul\":22561:22579   */\n      tag_627\n      tag_418\n      jump\t// in\n    tag_627:\n        /* \"#utility.yul\":22530:22581   */\n    tag_626:\n        /* \"#utility.yul\":22605:22606   */\n      dup3\n        /* \"#utility.yul\":22602:22603   */\n      dup3\n        /* \"#utility.yul\":22598:22607   */\n      add\n        /* \"#utility.yul\":22591:22607   */\n      swap1\n      pop\n        /* \"#utility.yul\":22367:22613   */\n      swap3\n      swap2\n      pop\n      pop\n      jump\t// out\n        /* \"#utility.yul\":22619:22865   */\n    tag_419:\n        /* \"#utility.yul\":22759:22793   */\n      0x546865206d6574686f642067657454696d65496e5365636f6e647320646f6573\n        /* \"#utility.yul\":22755:22756   */\n      0x00\n        /* \"#utility.yul\":22747:22753   */\n      dup3\n        /* \"#utility.yul\":22743:22757   */\n      add\n        /* \"#utility.yul\":22736:22794   */\n      mstore\n        /* \"#utility.yul\":22828:22857   */\n      0x6e277420776f726b20666f72204d4f4e544820616e6420594541520000000000\n        /* \"#utility.yul\":22823:22825   */\n      0x20\n        /* \"#utility.yul\":22815:22821   */\n      dup3\n        /* \"#utility.yul\":22811:22826   */\n      add\n        /* \"#utility.yul\":22804:22858   */\n      mstore\n        /* \"#utility.yul\":22619:22865   */\n      pop\n      jump\t// out\n        /* \"#utility.yul\":22871:23237   */\n    tag_420:\n        /* \"#utility.yul\":23013:23016   */\n      0x00\n        /* \"#utility.yul\":23034:23101   */\n      tag_630\n        /* \"#utility.yul\":23098:23100   */\n      0x3b\n        /* \"#utility.yul\":23093:23096   */\n      dup4\n        /* \"#utility.yul\":23034:23101   */\n      tag_396\n      jump\t// in\n    tag_630:\n        /* \"#utility.yul\":23027:23101   */\n      swap2\n      pop\n        /* \"#utility.yul\":23110:23203   */\n      tag_631\n        /* \"#utility.yul\":23199:23202   */\n      dup3\n        /* \"#utility.yul\":23110:23203   */\n      tag_419\n      jump\t// in\n    tag_631:\n        /* \"#utility.yul\":23228:23230   */\n      0x40\n        /* \"#utility.yul\":23223:23226   */\n      dup3\n        /* \"#utility.yul\":23219:23231   */\n      add\n        /* \"#utility.yul\":23212:23231   */\n      swap1\n      pop\n        /* \"#utility.yul\":22871:23237   */\n      swap2\n      swap1\n      pop\n      jump\t// out\n        /* \"#utility.yul\":23243:23662   */\n    tag_242:\n        /* \"#utility.yul\":23409:23413   */\n      0x00\n        /* \"#utility.yul\":23447:23449   */\n      0x20\n        /* \"#utility.yul\":23436:23445   */\n      dup3\n        /* \"#utility.yul\":23432:23450   */\n      add\n        /* \"#utility.yul\":23424:23450   */\n      swap1\n      pop\n        /* \"#utility.yul\":23496:23505   */\n      dup2\n        /* \"#utility.yul\":23490:23494   */\n      dup2\n        /* \"#utility.yul\":23486:23506   */\n      sub\n        /* \"#utility.yul\":23482:23483   */\n      0x00\n        /* \"#utility.yul\":23471:23480   */\n      dup4\n        /* \"#utility.yul\":23467:23484   */\n      add\n        /* \"#utility.yul\":23460:23507   */\n      mstore\n        /* \"#utility.yul\":23524:23655   */\n      tag_633\n        /* \"#utility.yul\":23650:23654   */\n      dup2\n        /* \"#utility.yul\":23524:23655   */\n      tag_420\n      jump\t// in\n    tag_633:\n        /* \"#utility.yul\":23516:23655   */\n      swap1\n      pop\n        /* \"#utility.yul\":23243:23662   */\n      swap2\n      swap1\n      pop\n      jump\t// out\n        /* \"#utility.yul\":23668:23745   */\n    tag_421:\n        /* \"#utility.yul\":23705:23712   */\n      0x00\n        /* \"#utility.yul\":23734:23739   */\n      dup2\n        /* \"#utility.yul\":23723:23739   */\n      swap1\n      pop\n        /* \"#utility.yul\":23668:23745   */\n      swap2\n      swap1\n      pop\n      jump\t// out\n        /* \"#utility.yul\":23751:23984   */\n    tag_256:\n        /* \"#utility.yul\":23790:23793   */\n      0x00\n        /* \"#utility.yul\":23813:23837   */\n      tag_636\n        /* \"#utility.yul\":23831:23836   */\n      dup3\n        /* \"#utility.yul\":23813:23837   */\n      tag_421\n      jump\t// in\n    tag_636:\n        /* \"#utility.yul\":23804:23837   */\n      swap2\n      pop\n        /* \"#utility.yul\":23859:23925   */\n      0xffffffffffffffffffffffffffffffffffffffffffffffffffffffffffffffff\n        /* \"#utility.yul\":23852:23857   */\n      dup3\n        /* \"#utility.yul\":23849:23926   */\n      sub\n        /* \"#utility.yul\":23846:23949   */\n      tag_637\n      jumpi\n        /* \"#utility.yul\":23929:23947   */\n      tag_638\n      tag_418\n      jump\t// in\n    tag_638:\n        /* \"#utility.yul\":23846:23949   */\n    tag_637:\n        /* \"#utility.yul\":23976:23977   */\n      0x01\n        /* \"#utility.yul\":23969:23974   */\n      dup3\n        /* \"#utility.yul\":23965:23978   */\n      add\n        /* \"#utility.yul\":23958:23978   */\n      swap1\n      pop\n        /* \"#utility.yul\":23751:23984   */\n      swap2\n      swap1\n      pop\n      jump\t// out\n        /* \"#utility.yul\":23990:24170   */\n    tag_422:\n        /* \"#utility.yul\":24038:24115   */\n      0x4e487b7100000000000000000000000000000000000000000000000000000000\n        /* \"#utility.yul\":24035:24036   */\n      0x00\n        /* \"#utility.yul\":24028:24116   */\n      mstore\n        /* \"#utility.yul\":24135:24139   */\n      0x12\n        /* \"#utility.yul\":24132:24133   */\n      0x04\n        /* \"#utility.yul\":24125:24140   */\n      mstore\n        /* \"#utility.yul\":24159:24163   */\n      0x24\n        /* \"#utility.yul\":24156:24157   */\n      0x00\n        /* \"#utility.yul\":24149:24164   */\n      revert\n        /* \"#utility.yul\":24176:24361   */\n    tag_258:\n        /* \"#utility.yul\":24216:24217   */\n      0x00\n        /* \"#utility.yul\":24233:24253   */\n      tag_641\n        /* \"#utility.yul\":24251:24252   */\n      dup3\n        /* \"#utility.yul\":24233:24253   */\n      tag_421\n      jump\t// in\n    tag_641:\n        /* \"#utility.yul\":24228:24253   */\n      swap2\n      pop\n        /* \"#utility.yul\":24267:24287   */\n      tag_642\n        /* \"#utility.yul\":24285:24286   */\n      dup4\n        /* \"#utility.yul\":24267:24287   */\n      tag_421\n      jump\t// in\n    tag_642:\n        /* \"#utility.yul\":24262:24287   */\n      swap3\n      pop\n        /* \"#utility.yul\":24306:24307   */\n      dup3\n        /* \"#utility.yul\":24296:24331   */\n      tag_643\n      jumpi\n        /* \"#utility.yul\":24311:24329   */\n      tag_644\n      tag_422\n      jump\t// in\n    tag_644:\n        /* \"#utility.yul\":24296:24331   */\n    tag_643:\n        /* \"#utility.yul\":24353:24354   */\n      dup3\n        /* \"#utility.yul\":24350:24351   */\n      dup3\n        /* \"#utility.yul\":24346:24355   */\n      div\n        /* \"#utility.yul\":24341:24355   */\n      swap1\n      pop\n        /* \"#utility.yul\":24176:24361   */\n      swap3\n      swap2\n      pop\n      pop\n      jump\t// out\n        /* \"#utility.yul\":24367:24558   */\n    tag_266:\n        /* \"#utility.yul\":24407:24411   */\n      0x00\n        /* \"#utility.yul\":24427:24447   */\n      tag_646\n        /* \"#utility.yul\":24445:24446   */\n      dup3\n        /* \"#utility.yul\":24427:24447   */\n      tag_421\n      jump\t// in\n    tag_646:\n        /* \"#utility.yul\":24422:24447   */\n      swap2\n      pop\n        /* \"#utility.yul\":24461:24481   */\n      tag_647\n        /* \"#utility.yul\":24479:24480   */\n      dup4\n        /* \"#utility.yul\":24461:24481   */\n      tag_421\n      jump\t// in\n    tag_647:\n        /* \"#utility.yul\":24456:24481   */\n      swap3\n      pop\n        /* \"#utility.yul\":24500:24501   */\n      dup3\n        /* \"#utility.yul\":24497:24498   */\n      dup3\n        /* \"#utility.yul\":24494:24502   */\n      lt\n        /* \"#utility.yul\":24491:24525   */\n      iszero\n      tag_648\n      jumpi\n        /* \"#utility.yul\":24505:24523   */\n      tag_649\n      tag_418\n      jump\t// in\n    tag_649:\n        /* \"#utility.yul\":24491:24525   */\n    tag_648:\n        /* \"#utility.yul\":24550:24551   */\n      dup3\n        /* \"#utility.yul\":24547:24548   */\n      dup3\n        /* \"#utility.yul\":24543:24552   */\n      sub\n        /* \"#utility.yul\":24535:24552   */\n      swap1\n      pop\n        /* \"#utility.yul\":24367:24558   */\n      swap3\n      swap2\n      pop\n      pop\n      jump\t// out\n        /* \"#utility.yul\":24564:24740   */\n    tag_268:\n        /* \"#utility.yul\":24596:24597   */\n      0x00\n        /* \"#utility.yul\":24613:24633   */\n      tag_651\n        /* \"#utility.yul\":24631:24632   */\n      dup3\n        /* \"#utility.yul\":24613:24633   */\n      tag_421\n      jump\t// in\n    tag_651:\n        /* \"#utility.yul\":24608:24633   */\n      swap2\n      pop\n        /* \"#utility.yul\":24647:24667   */\n      tag_652\n        /* \"#utility.yul\":24665:24666   */\n      dup4\n        /* \"#utility.yul\":24647:24667   */\n      tag_421\n      jump\t// in\n    tag_652:\n        /* \"#utility.yul\":24642:24667   */\n      swap3\n      pop\n        /* \"#utility.yul\":24686:24687   */\n      dup3\n        /* \"#utility.yul\":24676:24711   */\n      tag_653\n      jumpi\n        /* \"#utility.yul\":24691:24709   */\n      tag_654\n      tag_422\n      jump\t// in\n    tag_654:\n        /* \"#utility.yul\":24676:24711   */\n    tag_653:\n        /* \"#utility.yul\":24732:24733   */\n      dup3\n        /* \"#utility.yul\":24729:24730   */\n      dup3\n        /* \"#utility.yul\":24725:24734   */\n      mod\n        /* \"#utility.yul\":24720:24734   */\n      swap1\n      pop\n        /* \"#utility.yul\":24564:24740   */\n      swap3\n      swap2\n      pop\n      pop\n      jump\t// out\n        /* \"#utility.yul\":24746:25051   */\n    tag_270:\n        /* \"#utility.yul\":24786:24789   */\n      0x00\n        /* \"#utility.yul\":24805:24825   */\n      tag_656\n        /* \"#utility.yul\":24823:24824   */\n      dup3\n        /* \"#utility.yul\":24805:24825   */\n      tag_421\n      jump\t// in\n    tag_656:\n        /* \"#utility.yul\":24800:24825   */\n      swap2\n      pop\n        /* \"#utility.yul\":24839:24859   */\n      tag_657\n        /* \"#utility.yul\":24857:24858   */\n      dup4\n        /* \"#utility.yul\":24839:24859   */\n      tag_421\n      jump\t// in\n    tag_657:\n        /* \"#utility.yul\":24834:24859   */\n      swap3\n      pop\n        /* \"#utility.yul\":24993:24994   */\n      dup3\n        /* \"#utility.yul\":24925:24991   */\n      0xffffffffffffffffffffffffffffffffffffffffffffffffffffffffffffffff\n        /* \"#utility.yul\":24921:24995   */\n      sub\n        /* \"#utility.yul\":24918:24919   */\n      dup3\n        /* \"#utility.yul\":24915:24996   */\n      gt\n        /* \"#utility.yul\":24912:25019   */\n      iszero\n      tag_658\n      jumpi\n        /* \"#utility.yul\":24999:25017   */\n      tag_659\n      tag_418\n      jump\t// in\n    tag_659:\n        /* \"#utility.yul\":24912:25019   */\n    tag_658:\n        /* \"#utility.yul\":25043:25044   */\n      dup3\n        /* \"#utility.yul\":25040:25041   */\n      dup3\n        /* \"#utility.yul\":25036:25045   */\n      add\n        /* \"#utility.yul\":25029:25045   */\n      swap1\n      pop\n        /* \"#utility.yul\":24746:25051   */\n      swap3\n      swap2\n      pop\n      pop\n      jump\t// out\n        /* \"#utility.yul\":25057:25346   */\n    tag_291:\n        /* \"#utility.yul\":25096:25103   */\n      0x00\n        /* \"#utility.yul\":25119:25138   */\n      tag_661\n        /* \"#utility.yul\":25136:25137   */\n      dup3\n        /* \"#utility.yul\":25119:25138   */\n      tag_361\n      jump\t// in\n    tag_661:\n        /* \"#utility.yul\":25114:25138   */\n      swap2\n      pop\n        /* \"#utility.yul\":25152:25171   */\n      tag_662\n        /* \"#utility.yul\":25169:25170   */\n      dup4\n        /* \"#utility.yul\":25152:25171   */\n      tag_361\n      jump\t// in\n    tag_662:\n        /* \"#utility.yul\":25147:25171   */\n      swap3\n      pop\n        /* \"#utility.yul\":25283:25284   */\n      dup2\n        /* \"#utility.yul\":25271:25281   */\n      0xffffffff\n        /* \"#utility.yul\":25267:25285   */\n      div\n        /* \"#utility.yul\":25264:25265   */\n      dup4\n        /* \"#utility.yul\":25261:25286   */\n      gt\n        /* \"#utility.yul\":25256:25257   */\n      dup3\n        /* \"#utility.yul\":25249:25258   */\n      iszero\n        /* \"#utility.yul\":25242:25259   */\n      iszero\n        /* \"#utility.yul\":25238:25287   */\n      and\n        /* \"#utility.yul\":25235:25310   */\n      iszero\n      tag_663\n      jumpi\n        /* \"#utility.yul\":25290:25308   */\n      tag_664\n      tag_418\n      jump\t// in\n    tag_664:\n        /* \"#utility.yul\":25235:25310   */\n    tag_663:\n        /* \"#utility.yul\":25338:25339   */\n      dup3\n        /* \"#utility.yul\":25335:25336   */\n      dup3\n        /* \"#utility.yul\":25331:25340   */\n      mul\n        /* \"#utility.yul\":25320:25340   */\n      swap1\n      pop\n        /* \"#utility.yul\":25057:25346   */\n      swap3\n      swap2\n      pop\n      pop\n      jump\t// out\n        /* \"#utility.yul\":25352:25534   */\n    tag_293:\n        /* \"#utility.yul\":25391:25392   */\n      0x00\n        /* \"#utility.yul\":25408:25427   */\n      tag_666\n        /* \"#utility.yul\":25425:25426   */\n      dup3\n        /* \"#utility.yul\":25408:25427   */\n      tag_361\n      jump\t// in\n    tag_666:\n        /* \"#utility.yul\":25403:25427   */\n      swap2\n      pop\n        /* \"#utility.yul\":25441:25460   */\n      tag_667\n        /* \"#utility.yul\":25458:25459   */\n      dup4\n        /* \"#utility.yul\":25441:25460   */\n      tag_361\n      jump\t// in\n    tag_667:\n        /* \"#utility.yul\":25436:25460   */\n      swap3\n      pop\n        /* \"#utility.yul\":25479:25480   */\n      dup3\n        /* \"#utility.yul\":25469:25504   */\n      tag_668\n      jumpi\n        /* \"#utility.yul\":25484:25502   */\n      tag_669\n      tag_422\n      jump\t// in\n    tag_669:\n        /* \"#utility.yul\":25469:25504   */\n    tag_668:\n        /* \"#utility.yul\":25526:25527   */\n      dup3\n        /* \"#utility.yul\":25523:25524   */\n      dup3\n        /* \"#utility.yul\":25519:25528   */\n      div\n        /* \"#utility.yul\":25514:25528   */\n      swap1\n      pop\n        /* \"#utility.yul\":25352:25534   */\n      swap3\n      swap2\n      pop\n      pop\n      jump\t// out\n        /* \"#utility.yul\":25540:25713   */\n    tag_331:\n        /* \"#utility.yul\":25571:25572   */\n      0x00\n        /* \"#utility.yul\":25588:25607   */\n      tag_671\n        /* \"#utility.yul\":25605:25606   */\n      dup3\n        /* \"#utility.yul\":25588:25607   */\n      tag_361\n      jump\t// in\n    tag_671:\n        /* \"#utility.yul\":25583:25607   */\n      swap2\n      pop\n        /* \"#utility.yul\":25621:25640   */\n      tag_672\n        /* \"#utility.yul\":25638:25639   */\n      dup4\n        /* \"#utility.yul\":25621:25640   */\n      tag_361\n      jump\t// in\n    tag_672:\n        /* \"#utility.yul\":25616:25640   */\n      swap3\n      pop\n        /* \"#utility.yul\":25659:25660   */\n      dup3\n        /* \"#utility.yul\":25649:25684   */\n      tag_673\n      jumpi\n        /* \"#utility.yul\":25664:25682   */\n      tag_674\n      tag_422\n      jump\t// in\n    tag_674:\n        /* \"#utility.yul\":25649:25684   */\n    tag_673:\n        /* \"#utility.yul\":25705:25706   */\n      dup3\n        /* \"#utility.yul\":25702:25703   */\n      dup3\n        /* \"#utility.yul\":25698:25707   */\n      mod\n        /* \"#utility.yul\":25693:25707   */\n      swap1\n      pop\n        /* \"#utility.yul\":25540:25713   */\n      swap3\n      swap2\n      pop\n      pop\n      jump\t// out\n\n    auxdata: 0xa264697066735822122070451cf9b4d2e2e7c94d42e0cc7fff6a528d116744f7833d55dc3dd2c26f6ac464736f6c634300080d0033\n}\n",
				"bytecode": {
					"linkReferences": {},
					"object": "60806040523480156200001157600080fd5b5060405162003ea938038062003ea9833981810160405281019062000037919062000e02565b60016000806101000a81548160ff0219169083151502179055506363b13d80600060016101000a81548163ffffffff021916908363ffffffff1602179055506367733400600060056101000a81548163ffffffff021916908363ffffffff160217905550620000e96040518060400160405280600981526020017f4f726369642041504900000000000000000000000000000000000000000000008152508260006200076660201b62000f6c1760201c565b600160008201518160000190805190602001906200010992919062000b4e565b5060208201518160010160006101000a81548173ffffffffffffffffffffffffffffffffffffffff021916908373ffffffffffffffffffffffffffffffffffffffff16021790555060408201518160010160146101000a81548160ff021916908315150217905550905050620001c26040518060400160405280601381526020017f496e746567726174696f6e2050726f63657373000000000000000000000000008152503360016200076660201b62000f6c1760201c565b60036000820151816000019080519060200190620001e292919062000b4e565b5060208201518160010160006101000a81548173ffffffffffffffffffffffffffffffffffffffff021916908373ffffffffffffffffffffffffffffffffffffffff16021790555060408201518160010160146101000a81548160ff0219169083151502179055509050506003600560003373ffffffffffffffffffffffffffffffffffffffff1673ffffffffffffffffffffffffffffffffffffffff1681526020019081526020016000206000820181600001908054620002a49062000e63565b620002b192919062000bdf565b506001820160009054906101000a900473ffffffffffffffffffffffffffffffffffffffff168160010160006101000a81548173ffffffffffffffffffffffffffffffffffffffff021916908373ffffffffffffffffffffffffffffffffffffffff1602179055506001820160149054906101000a900460ff168160010160146101000a81548160ff0219169083151502179055509050506001600560008373ffffffffffffffffffffffffffffffffffffffff1673ffffffffffffffffffffffffffffffffffffffff1681526020019081526020016000206000820181600001908054620003a09062000e63565b620003ad92919062000bdf565b506001820160009054906101000a900473ffffffffffffffffffffffffffffffffffffffff168160010160006101000a81548173ffffffffffffffffffffffffffffffffffffffff021916908373ffffffffffffffffffffffffffffffffffffffff1602179055506001820160149054906101000a900460ff168160010160146101000a81548160ff02191690831515021790555090505060066200046060006006620007ac60201b62000fb01760201c565b9080600181540180825580915050600190039060005260206000200160009091909190915060008201518160000160006101000a81548160ff021916908360ff16021790555060208201518160000160016101000a81548160ff021916908360ff16021790555050506007620004e660006201517f6200089f60201b620010991760201c565b9080600181540180825580915050600190039060005260206000200160009091909190915060008201518160000160006101000a81548163ffffffff021916908363ffffffff16021790555060208201518160000160046101000a81548163ffffffff021916908363ffffffff160217905550505060086200057660186000620009b460201b620011a41760201c565b9080600181540180825580915050600190039060005260206000200160009091909190915060008201518160000160006101000a81548163ffffffff021916908363ffffffff16021790555060208201518160000160046101000a81548160ff021916908360ff16021790555060408201518160000160056101000a81548163ffffffff021916908363ffffffff16021790555060608201518160000160096101000a81548163ffffffff021916908363ffffffff160217905550608082015181600001600d6101000a81548163ffffffff021916908363ffffffff1602179055505050600962000673603c62000a3960201b6200121d1760201c565b9080600181540180825580915050600190039060005260206000200160009091909190915060008201518160000160006101000a81548163ffffffff021916908363ffffffff16021790555060208201518160000160046101000a81548163ffffffff021916908363ffffffff1602179055505050600a6200071960405180608001604052806041815260200162003e686041913962000a6c60201b6200124e1760201c565b9080600181540180825580915050600190039060005260206000200160009091909190915060008201518160000190805190602001906200075c92919062000b4e565b5050505062001071565b6200077062000c77565b60405180606001604052808581526020018473ffffffffffffffffffffffffffffffffffffffff16815260200183151581525090509392505050565b620007b662000cb0565b8282600060ff168260ff1610158015620007d75750600660ff168260ff1611155b62000819576040517f08c379a0000000000000000000000000000000000000000000000000000000008152600401620008109062000f1f565b60405180910390fd5b600060ff168160ff1610158015620008385750600660ff168160ff1611155b6200087a576040517f08c379a0000000000000000000000000000000000000000000000000000000008152600401620008719062000fb7565b60405180910390fd5b60405180604001604052808660ff1681526020018560ff168152509250505092915050565b620008a962000cd0565b8282600063ffffffff168263ffffffff1610158015620008d857506201517f63ffffffff168263ffffffff1611155b6200091a576040517f08c379a0000000000000000000000000000000000000000000000000000000008152600401620009119062000f1f565b60405180910390fd5b600063ffffffff168163ffffffff16101580156200094757506201517f63ffffffff168163ffffffff1611155b62000989576040517f08c379a0000000000000000000000000000000000000000000000000000000008152600401620009809062000fb7565b60405180910390fd5b60405180604001604052808663ffffffff1681526020018563ffffffff168152509250505092915050565b620009be62000cf6565b6000600460ff168360ff1611620009e857620009e08362000a8c60201b60201c565b9050620009ed565b600190505b6040518060a001604052808563ffffffff1681526020018460ff1681526020018263ffffffff1681526020018563ffffffff168152602001600063ffffffff1681525091505092915050565b62000a4362000d40565b6040518060400160405280600063ffffffff1681526020018363ffffffff168152509050919050565b62000a7662000d66565b6040518060200160405280838152509050919050565b6000600460ff168260ff16111562000adb576040517f08c379a000000000000000000000000000000000000000000000000000000000815260040162000ad2906200104f565b60405180910390fd5b600060ff168260ff160362000af4576001905062000b49565b600160ff168260ff160362000b0d57603c905062000b49565b600260ff168260ff160362000b2757610e10905062000b49565b600360ff168260ff160362000b425762015180905062000b49565b62093a8090505b919050565b82805462000b5c9062000e63565b90600052602060002090601f01602090048101928262000b80576000855562000bcc565b82601f1062000b9b57805160ff191683800117855562000bcc565b8280016001018555821562000bcc579182015b8281111562000bcb57825182559160200191906001019062000bae565b5b50905062000bdb919062000d79565b5090565b82805462000bed9062000e63565b90600052602060002090601f01602090048101928262000c11576000855562000c64565b82601f1062000c24578054855562000c64565b8280016001018555821562000c6457600052602060002091601f016020900482015b8281111562000c6357825482559160010191906001019062000c46565b5b50905062000c73919062000d79565b5090565b604051806060016040528060608152602001600073ffffffffffffffffffffffffffffffffffffffff1681526020016000151581525090565b6040518060400160405280600060ff168152602001600060ff1681525090565b6040518060400160405280600063ffffffff168152602001600063ffffffff1681525090565b6040518060a00160405280600063ffffffff168152602001600060ff168152602001600063ffffffff168152602001600063ffffffff168152602001600063ffffffff1681525090565b6040518060400160405280600063ffffffff168152602001600063ffffffff1681525090565b6040518060200160405280606081525090565b5b8082111562000d9457600081600090555060010162000d7a565b5090565b600080fd5b600073ffffffffffffffffffffffffffffffffffffffff82169050919050565b600062000dca8262000d9d565b9050919050565b62000ddc8162000dbd565b811462000de857600080fd5b50565b60008151905062000dfc8162000dd1565b92915050565b60006020828403121562000e1b5762000e1a62000d98565b5b600062000e2b8482850162000deb565b91505092915050565b7f4e487b7100000000000000000000000000000000000000000000000000000000600052602260045260246000fd5b6000600282049050600182168062000e7c57607f821691505b60208210810362000e925762000e9162000e34565b5b50919050565b600082825260208201905092915050565b7f546865205f7374617274446179206e6f7420726570726573656e74732061207660008201527f616c696420646179000000000000000000000000000000000000000000000000602082015250565b600062000f0760288362000e98565b915062000f148262000ea9565b604082019050919050565b6000602082019050818103600083015262000f3a8162000ef8565b9050919050565b7f546865205f656e64446179206e6f7420726570726573656e747320612076616c60008201527f6964206461790000000000000000000000000000000000000000000000000000602082015250565b600062000f9f60268362000e98565b915062000fac8262000f41565b604082019050919050565b6000602082019050818103600083015262000fd28162000f90565b9050919050565b7f546865206d6574686f642067657454696d65496e5365636f6e647320646f657360008201527f6e277420776f726b20666f72204d4f4e544820616e6420594541520000000000602082015250565b600062001037603b8362000e98565b9150620010448262000fd9565b604082019050919050565b600060208201905081810360008301526200106a8162001028565b9050919050565b612de780620010816000396000f3fe608060405234801561001057600080fd5b506004361061007d5760003560e01c8063859319111161005b57806385931911146101005780639c7642231461011e578063b8b4f1a01461014e578063fb6f82431461016c5761007d565b806322d53d53146100825780635e744c6a146100b257806370d8915a146100e2575b600080fd5b61009c600480360381019061009791906120c9565b61019c565b6040516100a99190612134565b60405180910390f35b6100cc60048036038101906100c79190612262565b6103d5565b6040516100d99190612134565b60405180910390f35b6100ea6105c6565b6040516100f791906122cd565b60405180910390f35b61010861072d565b60405161011591906122cd565b60405180910390f35b61013860048036038101906101339190612321565b610895565b6040516101459190612134565b60405180910390f35b610156610b6c565b6040516101639190612134565b60405180910390f35b61018660048036038101906101819190612374565b610cd6565b6040516101939190612497565b60405180910390f35b60008060009054906101000a900460ff166101ec576040517f08c379a00000000000000000000000000000000000000000000000000000000081526004016101e390612516565b60405180910390fd5b3373ffffffffffffffffffffffffffffffffffffffff166001800160009054906101000a900473ffffffffffffffffffffffffffffffffffffffff1673ffffffffffffffffffffffffffffffffffffffff161461027e576040517f08c379a0000000000000000000000000000000000000000000000000000000008152600401610275906125a8565b60405180910390fd5b610306836009600081548110610297576102966125c8565b5b906000526020600020016040518060400160405290816000820160009054906101000a900463ffffffff1663ffffffff1663ffffffff1681526020016000820160049054906101000a900463ffffffff1663ffffffff1663ffffffff168152505061126c90919063ffffffff16565b15801561032b575081600081518110610322576103216125c8565b5b60200260200101515b15610395576103576008600081548110610348576103476125c8565b5b906000526020600020016112fb565b7f95a1f3a1dafdd4c1af344e3d7c69a72cbce8a3f15fe1cf95a7f5bd23df2e71a160405161038490612643565b60405180910390a1600190506103cf565b7f66091b7dc2b097c8f60d5cd6aa99633b097f08d2eb1056f3e15361b22e0ea2ba6040516103c2906126af565b60405180910390a1600090505b92915050565b60003373ffffffffffffffffffffffffffffffffffffffff16600360010160009054906101000a900473ffffffffffffffffffffffffffffffffffffffff1673ffffffffffffffffffffffffffffffffffffffff161461046a576040517f08c379a000000000000000000000000000000000000000000000000000000000815260040161046190612741565b60405180910390fd5b600560006001800160009054906101000a900473ffffffffffffffffffffffffffffffffffffffff1673ffffffffffffffffffffffffffffffffffffffff1673ffffffffffffffffffffffffffffffffffffffff168152602001908152602001600020600080820160006104de9190611c76565b6001820160006101000a81549073ffffffffffffffffffffffffffffffffffffffff02191690556001820160146101000a81549060ff0219169055505061052783836000610f6c565b60016000820151816000019080519060200190610545929190611cb6565b5060208201518160010160006101000a81548173ffffffffffffffffffffffffffffffffffffffff021916908373ffffffffffffffffffffffffffffffffffffffff16021790555060408201518160010160146101000a81548160ff0219169083151502179055509050506105bb826001611340565b506001905092915050565b60008060009054906101000a900460ff16610616576040517f08c379a000000000000000000000000000000000000000000000000000000000815260040161060d90612516565b60405180910390fd5b3373ffffffffffffffffffffffffffffffffffffffff166001800160009054906101000a900473ffffffffffffffffffffffffffffffffffffffff1673ffffffffffffffffffffffffffffffffffffffff1614806106c457503373ffffffffffffffffffffffffffffffffffffffff16600360010160009054906101000a900473ffffffffffffffffffffffffffffffffffffffff1673ffffffffffffffffffffffffffffffffffffffff16145b610703576040517f08c379a00000000000000000000000000000000000000000000000000000000081526004016106fa906127d3565b60405180910390fd5b6001800160009054906101000a900473ffffffffffffffffffffffffffffffffffffffff16905090565b60008060009054906101000a900460ff1661077d576040517f08c379a000000000000000000000000000000000000000000000000000000000815260040161077490612516565b60405180910390fd5b3373ffffffffffffffffffffffffffffffffffffffff166001800160009054906101000a900473ffffffffffffffffffffffffffffffffffffffff1673ffffffffffffffffffffffffffffffffffffffff16148061082b57503373ffffffffffffffffffffffffffffffffffffffff16600360010160009054906101000a900473ffffffffffffffffffffffffffffffffffffffff1673ffffffffffffffffffffffffffffffffffffffff16145b61086a576040517f08c379a0000000000000000000000000000000000000000000000000000000008152600401610861906127d3565b60405180910390fd5b600360010160009054906101000a900473ffffffffffffffffffffffffffffffffffffffff16905090565b60008060009054906101000a900460ff166108e5576040517f08c379a00000000000000000000000000000000000000000000000000000000081526004016108dc90612516565b60405180910390fd5b3373ffffffffffffffffffffffffffffffffffffffff16600360010160009054906101000a900473ffffffffffffffffffffffffffffffffffffffff1673ffffffffffffffffffffffffffffffffffffffff1614610978576040517f08c379a000000000000000000000000000000000000000000000000000000000815260040161096f90612741565b60405180910390fd5b6109ee846006600081548110610991576109906125c8565b5b906000526020600020016040518060400160405290816000820160009054906101000a900460ff1660ff1660ff1681526020016000820160019054906101000a900460ff1660ff1660ff168152505061144390919063ffffffff16565b8015610a7e5750610a7d836007600081548110610a0e57610a0d6125c8565b5b906000526020600020016040518060400160405290816000820160009054906101000a900463ffffffff1663ffffffff1663ffffffff1681526020016000820160049054906101000a900463ffffffff1663ffffffff1663ffffffff16815250506114cf90919063ffffffff16565b5b8015610ab75750610ab6826008600081548110610a9e57610a9d6125c8565b5b9060005260206000200161157990919063ffffffff16565b5b15610b2b57610aed826009600081548110610ad557610ad46125c8565b5b906000526020600020016115f290919063ffffffff16565b7f95a1f3a1dafdd4c1af344e3d7c69a72cbce8a3f15fe1cf95a7f5bd23df2e71a1604051610b1a90612643565b60405180910390a160019050610b65565b7f66091b7dc2b097c8f60d5cd6aa99633b097f08d2eb1056f3e15361b22e0ea2ba604051610b58906126af565b60405180910390a1600090505b9392505050565b60008060009054906101000a900460ff16610bbc576040517f08c379a0000000000000000000000000000000000000000000000000000000008152600401610bb390612516565b60405180910390fd5b3373ffffffffffffffffffffffffffffffffffffffff166001800160009054906101000a900473ffffffffffffffffffffffffffffffffffffffff1673ffffffffffffffffffffffffffffffffffffffff1614610c4e576040517f08c379a0000000000000000000000000000000000000000000000000000000008152600401610c45906125a8565b60405180910390fd5b600015156001800160149054906101000a900460ff16151514610ca6576040517f08c379a0000000000000000000000000000000000000000000000000000000008152600401610c9d9061283f565b60405180910390fd5b60018060010160146101000a81548160ff021916908315150217905550610cce336001611340565b506001905090565b610cde611d3c565b60008054906101000a900460ff16610d2b576040517f08c379a0000000000000000000000000000000000000000000000000000000008152600401610d2290612516565b60405180910390fd5b3373ffffffffffffffffffffffffffffffffffffffff166001800160009054906101000a900473ffffffffffffffffffffffffffffffffffffffff1673ffffffffffffffffffffffffffffffffffffffff161480610dd957503373ffffffffffffffffffffffffffffffffffffffff16600360010160009054906101000a900473ffffffffffffffffffffffffffffffffffffffff1673ffffffffffffffffffffffffffffffffffffffff16145b610e18576040517f08c379a0000000000000000000000000000000000000000000000000000000008152600401610e0f906127d3565b60405180910390fd5b600560008373ffffffffffffffffffffffffffffffffffffffff1673ffffffffffffffffffffffffffffffffffffffff168152602001908152602001600020604051806060016040529081600082018054610e729061288e565b80601f0160208091040260200160405190810160405280929190818152602001828054610e9e9061288e565b8015610eeb5780601f10610ec057610100808354040283529160200191610eeb565b820191906000526020600020905b815481529060010190602001808311610ece57829003601f168201915b505050505081526020016001820160009054906101000a900473ffffffffffffffffffffffffffffffffffffffff1673ffffffffffffffffffffffffffffffffffffffff1673ffffffffffffffffffffffffffffffffffffffff1681526020016001820160149054906101000a900460ff1615151515815250509050919050565b610f74611d3c565b60405180606001604052808581526020018473ffffffffffffffffffffffffffffffffffffffff16815260200183151581525090509392505050565b610fb8611d75565b8282600060ff168260ff1610158015610fd85750600660ff168260ff1611155b611017576040517f08c379a000000000000000000000000000000000000000000000000000000000815260040161100e90612931565b60405180910390fd5b600060ff168160ff16101580156110355750600660ff168160ff1611155b611074576040517f08c379a000000000000000000000000000000000000000000000000000000000815260040161106b906129c3565b60405180910390fd5b60405180604001604052808660ff1681526020018560ff168152509250505092915050565b6110a1611d95565b8282600063ffffffff168263ffffffff16101580156110cf57506201517f63ffffffff168263ffffffff1611155b61110e576040517f08c379a000000000000000000000000000000000000000000000000000000000815260040161110590612931565b60405180910390fd5b600063ffffffff168163ffffffff161015801561113a57506201517f63ffffffff168163ffffffff1611155b611179576040517f08c379a0000000000000000000000000000000000000000000000000000000008152600401611170906129c3565b60405180910390fd5b60405180604001604052808663ffffffff1681526020018563ffffffff168152509250505092915050565b6111ac611dbb565b6000600460ff168360ff16116111cc576111c58361165d565b90506111d1565b600190505b6040518060a001604052808563ffffffff1681526020018460ff1681526020018263ffffffff1681526020018563ffffffff168152602001600063ffffffff1681525091505092915050565b611225611e05565b6040518060400160405280600063ffffffff1681526020018363ffffffff168152509050919050565b611256611e2b565b6040518060200160405280838152509050919050565b60008160006112808263ffffffff16611714565b9050600a8151111561129157600080fd5b6000856000015163ffffffff16116112de576040517f08c379a00000000000000000000000000000000000000000000000000000000081526004016112d590612a55565b60405180910390fd5b846000015163ffffffff168463ffffffff16119250505092915050565b60018160000160098282829054906101000a900463ffffffff1661131f9190612aa4565b92506101000a81548163ffffffff021916908363ffffffff16021790555050565b600081600560008573ffffffffffffffffffffffffffffffffffffffff1673ffffffffffffffffffffffffffffffffffffffff16815260200190815260200160002060008201816000019080546113969061288e565b6113a1929190611e3e565b506001820160009054906101000a900473ffffffffffffffffffffffffffffffffffffffff168160010160006101000a81548173ffffffffffffffffffffffffffffffffffffffff021916908373ffffffffffffffffffffffffffffffffffffffff1602179055506001820160149054906101000a900460ff168160010160146101000a81548160ff0219169083151502179055509050506001905092915050565b6000826020015160ff16836000015160ff16101561149257826000015160ff168260ff161015801561147f5750826020015160ff168260ff1611155b1561148d57600190506114c9565b6114c4565b826000015160ff168260ff161015806114b55750826020015160ff168260ff1611155b156114c357600190506114c9565b5b600090505b92915050565b6000826020015163ffffffff16836000015163ffffffff16101561153057826000015163ffffffff168263ffffffff161015801561151d5750826020015163ffffffff168263ffffffff1611155b1561152b5760019050611573565b61156e565b826000015163ffffffff168263ffffffff1610158061155f5750826020015163ffffffff168263ffffffff1611155b1561156d5760019050611573565b5b600090505b92915050565b60006115ab8360000160049054906101000a900460ff1684600001600d9054906101000a900463ffffffff1684611874565b156115bb576115ba8383611939565b5b60008360000160099054906101000a900463ffffffff1663ffffffff1611156115e757600190506115ec565b600090505b92915050565b8060006116048263ffffffff16611714565b9050600a8151111561161557600080fd5b8360000160049054906101000a900463ffffffff16836116359190612ad8565b8460000160006101000a81548163ffffffff021916908363ffffffff16021790555050505050565b6000600460ff168260ff1611156116a9576040517f08c379a00000000000000000000000000000000000000000000000000000000081526004016116a090612b84565b60405180910390fd5b600060ff168260ff16036116c0576001905061170f565b600160ff168260ff16036116d757603c905061170f565b600260ff168260ff16036116ef57610e10905061170f565b600360ff168260ff16036117085762015180905061170f565b62093a8090505b919050565b60606000820361175b576040518060400160405280600181526020017f3000000000000000000000000000000000000000000000000000000000000000815250905061186f565b600082905060005b6000821461178d57808061177690612bae565b915050600a826117869190612c25565b9150611763565b60008167ffffffffffffffff8111156117a9576117a8611f4e565b5b6040519080825280601f01601f1916602001820160405280156117db5781602001600182028036833780820191505090505b5090505b60008514611868576001826117f49190612c56565b9150600a856118039190612c8a565b603061180f9190612cbb565b60f81b818381518110611825576118246125c8565b5b60200101907effffffffffffffffffffffffffffffffffffffffffffffffffffffffffffff1916908160001a905350600a856118619190612c25565b94506117df565b8093505050505b919050565b600080849050600460ff168160ff16116118a0578363ffffffff168363ffffffff161015915050611932565b600560ff168160ff16036119085760006118bf8463ffffffff166119c6565b50915050600d8563ffffffff161480156118df575060018163ffffffff16145b156118ef57600192505050611932565b8463ffffffff168163ffffffff16101592505050611932565b60006119198463ffffffff166119c6565b505090508463ffffffff168163ffffffff161015925050505b9392505050565b8160000160009054906101000a900463ffffffff168260000160096101000a81548163ffffffff021916908363ffffffff1602179055506119a08260000160059054906101000a900463ffffffff168360000160049054906101000a900460ff1683611b79565b82600001600d6101000a81548163ffffffff021916908363ffffffff1602179055505050565b6000806000806201518063ffffffff16856119e19190612c25565b9050600062253d8c62010bd9836119f89190612ad8565b611a029190612ad8565b9050600062023ab1826004611a179190612d11565b611a219190612d4f565b9050600460038262023ab1611a369190612d11565b611a409190612ad8565b611a4a9190612d4f565b82611a559190612aa4565b9150600062164b09600184611a6a9190612ad8565b610fa0611a779190612d11565b611a819190612d4f565b9050601f6004826105b5611a959190612d11565b611a9f9190612d4f565b84611aaa9190612aa4565b611ab49190612ad8565b9250600061098f846050611ac89190612d11565b611ad29190612d4f565b9050600060508261098f611ae69190612d11565b611af09190612d4f565b85611afb9190612aa4565b9050600b82611b0a9190612d4f565b945084600c611b199190612d11565b600283611b269190612ad8565b611b309190612aa4565b91508483603186611b419190612aa4565b6064611b4d9190612d11565b611b579190612ad8565b611b619190612ad8565b92508298508197508096505050505050509193909250565b6000600460ff168360ff1611611b9b57611b94838386611c0c565b9050611c05565b600560ff168360ff1603611bd9576000611bba8363ffffffff166119c6565b5063ffffffff16915050600181611bd19190612cbb565b915050611c05565b6000611bea8363ffffffff166119c6565b505063ffffffff169050600181611c019190612cbb565b9150505b9392505050565b6000808284611c1b9190612d80565b905060008184611c2b9190612aa4565b9050600460ff168660ff1603611c5e576203f4808186611c4b9190612ad8565b611c559190612ad8565b92505050611c6f565b8085611c6a9190612ad8565b925050505b9392505050565b508054611c829061288e565b6000825580601f10611c945750611cb3565b601f016020900490600052602060002090810190611cb29190611ecb565b5b50565b828054611cc29061288e565b90600052602060002090601f016020900481019282611ce45760008555611d2b565b82601f10611cfd57805160ff1916838001178555611d2b565b82800160010185558215611d2b579182015b82811115611d2a578251825591602001919060010190611d0f565b5b509050611d389190611ecb565b5090565b604051806060016040528060608152602001600073ffffffffffffffffffffffffffffffffffffffff1681526020016000151581525090565b6040518060400160405280600060ff168152602001600060ff1681525090565b6040518060400160405280600063ffffffff168152602001600063ffffffff1681525090565b6040518060a00160405280600063ffffffff168152602001600060ff168152602001600063ffffffff168152602001600063ffffffff168152602001600063ffffffff1681525090565b6040518060400160405280600063ffffffff168152602001600063ffffffff1681525090565b6040518060200160405280606081525090565b828054611e4a9061288e565b90600052602060002090601f016020900481019282611e6c5760008555611eba565b82601f10611e7d5780548555611eba565b82800160010185558215611eba57600052602060002091601f016020900482015b82811115611eb9578254825591600101919060010190611e9e565b5b509050611ec79190611ecb565b5090565b5b80821115611ee4576000816000905550600101611ecc565b5090565b6000604051905090565b600080fd5b600080fd5b600063ffffffff82169050919050565b611f1581611efc565b8114611f2057600080fd5b50565b600081359050611f3281611f0c565b92915050565b600080fd5b6000601f19601f8301169050919050565b7f4e487b7100000000000000000000000000000000000000000000000000000000600052604160045260246000fd5b611f8682611f3d565b810181811067ffffffffffffffff82111715611fa557611fa4611f4e565b5b80604052505050565b6000611fb8611ee8565b9050611fc48282611f7d565b919050565b600067ffffffffffffffff821115611fe457611fe3611f4e565b5b602082029050602081019050919050565b600080fd5b60008115159050919050565b61200f81611ffa565b811461201a57600080fd5b50565b60008135905061202c81612006565b92915050565b600061204561204084611fc9565b611fae565b9050808382526020820190506020840283018581111561206857612067611ff5565b5b835b81811015612091578061207d888261201d565b84526020840193505060208101905061206a565b5050509392505050565b600082601f8301126120b0576120af611f38565b5b81356120c0848260208601612032565b91505092915050565b600080604083850312156120e0576120df611ef2565b5b60006120ee85828601611f23565b925050602083013567ffffffffffffffff81111561210f5761210e611ef7565b5b61211b8582860161209b565b9150509250929050565b61212e81611ffa565b82525050565b60006020820190506121496000830184612125565b92915050565b600080fd5b600067ffffffffffffffff82111561216f5761216e611f4e565b5b61217882611f3d565b9050602081019050919050565b82818337600083830152505050565b60006121a76121a284612154565b611fae565b9050828152602081018484840111156121c3576121c261214f565b5b6121ce848285612185565b509392505050565b600082601f8301126121eb576121ea611f38565b5b81356121fb848260208601612194565b91505092915050565b600073ffffffffffffffffffffffffffffffffffffffff82169050919050565b600061222f82612204565b9050919050565b61223f81612224565b811461224a57600080fd5b50565b60008135905061225c81612236565b92915050565b6000806040838503121561227957612278611ef2565b5b600083013567ffffffffffffffff81111561229757612296611ef7565b5b6122a3858286016121d6565b92505060206122b48582860161224d565b9150509250929050565b6122c781612224565b82525050565b60006020820190506122e260008301846122be565b92915050565b600060ff82169050919050565b6122fe816122e8565b811461230957600080fd5b50565b60008135905061231b816122f5565b92915050565b60008060006060848603121561233a57612339611ef2565b5b60006123488682870161230c565b935050602061235986828701611f23565b925050604061236a86828701611f23565b9150509250925092565b60006020828403121561238a57612389611ef2565b5b60006123988482850161224d565b91505092915050565b600081519050919050565b600082825260208201905092915050565b60005b838110156123db5780820151818401526020810190506123c0565b838111156123ea576000848401525b50505050565b60006123fb826123a1565b61240581856123ac565b93506124158185602086016123bd565b61241e81611f3d565b840191505092915050565b61243281612224565b82525050565b61244181611ffa565b82525050565b6000606083016000830151848203600086015261246482826123f0565b91505060208301516124796020860182612429565b50604083015161248c6040860182612438565b508091505092915050565b600060208201905081810360008301526124b18184612447565b905092915050565b600082825260208201905092915050565b7f5468697320636f6e747261637420697320646561637469766174656400000000600082015250565b6000612500601c836124b9565b915061250b826124ca565b602082019050919050565b6000602082019050818103600083015261252f816124f3565b9050919050565b7f4f6e6c7920746865206170706c69636174696f6e2063616e206578656375746560008201527f2074686973206f7065726174696f6e0000000000000000000000000000000000602082015250565b6000612592602f836124b9565b915061259d82612536565b604082019050919050565b600060208201905081810360008301526125c181612585565b9050919050565b7f4e487b7100000000000000000000000000000000000000000000000000000000600052603260045260246000fd5b7f5375636365737366756c20657865637574696f6e210000000000000000000000600082015250565b600061262d6015836124b9565b9150612638826125f7565b602082019050919050565b6000602082019050818103600083015261265c81612620565b9050919050565b7f436f6e646974696f6e7320646f206e6f74206d65657400000000000000000000600082015250565b60006126996016836124b9565b91506126a482612663565b602082019050919050565b600060208201905081810360008301526126c88161268c565b9050919050565b7f4f6e6c79207468652070726f636573732063616e20657865637574652074686960008201527f73206f7065726174696f6e000000000000000000000000000000000000000000602082015250565b600061272b602b836124b9565b9150612736826126cf565b604082019050919050565b6000602082019050818103600083015261275a8161271e565b9050919050565b7f4f6e6c79207468652070726f63657373206f7220746865206170706c6963617460008201527f696f6e2063616e20657865637574652074686973206f7065726174696f6e0000602082015250565b60006127bd603e836124b9565b91506127c882612761565b604082019050919050565b600060208201905081810360008301526127ec816127b0565b9050919050565b7f54686520636f6e747261637420697320616c7265616479207369676e65640000600082015250565b6000612829601e836124b9565b9150612834826127f3565b602082019050919050565b600060208201905081810360008301526128588161281c565b9050919050565b7f4e487b7100000000000000000000000000000000000000000000000000000000600052602260045260246000fd5b600060028204905060018216806128a657607f821691505b6020821081036128b9576128b861285f565b5b50919050565b7f546865205f7374617274446179206e6f7420726570726573656e74732061207660008201527f616c696420646179000000000000000000000000000000000000000000000000602082015250565b600061291b6028836124b9565b9150612926826128bf565b604082019050919050565b6000602082019050818103600083015261294a8161290e565b9050919050565b7f546865205f656e64446179206e6f7420726570726573656e747320612076616c60008201527f6964206461790000000000000000000000000000000000000000000000000000602082015250565b60006129ad6026836124b9565b91506129b882612951565b604082019050919050565b600060208201905081810360008301526129dc816129a0565b9050919050565b7f5468657265206973206e6f20656e6454696d652073657420696e2074696d656f60008201527f7574000000000000000000000000000000000000000000000000000000000000602082015250565b6000612a3f6022836124b9565b9150612a4a826129e3565b604082019050919050565b60006020820190508181036000830152612a6e81612a32565b9050919050565b7f4e487b7100000000000000000000000000000000000000000000000000000000600052601160045260246000fd5b6000612aaf82611efc565b9150612aba83611efc565b925082821015612acd57612acc612a75565b5b828203905092915050565b6000612ae382611efc565b9150612aee83611efc565b92508263ffffffff03821115612b0757612b06612a75565b5b828201905092915050565b7f546865206d6574686f642067657454696d65496e5365636f6e647320646f657360008201527f6e277420776f726b20666f72204d4f4e544820616e6420594541520000000000602082015250565b6000612b6e603b836124b9565b9150612b7982612b12565b604082019050919050565b60006020820190508181036000830152612b9d81612b61565b9050919050565b6000819050919050565b6000612bb982612ba4565b91507fffffffffffffffffffffffffffffffffffffffffffffffffffffffffffffffff8203612beb57612bea612a75565b5b600182019050919050565b7f4e487b7100000000000000000000000000000000000000000000000000000000600052601260045260246000fd5b6000612c3082612ba4565b9150612c3b83612ba4565b925082612c4b57612c4a612bf6565b5b828204905092915050565b6000612c6182612ba4565b9150612c6c83612ba4565b925082821015612c7f57612c7e612a75565b5b828203905092915050565b6000612c9582612ba4565b9150612ca083612ba4565b925082612cb057612caf612bf6565b5b828206905092915050565b6000612cc682612ba4565b9150612cd183612ba4565b9250827fffffffffffffffffffffffffffffffffffffffffffffffffffffffffffffffff03821115612d0657612d05612a75565b5b828201905092915050565b6000612d1c82611efc565b9150612d2783611efc565b92508163ffffffff0483118215151615612d4457612d43612a75565b5b828202905092915050565b6000612d5a82611efc565b9150612d6583611efc565b925082612d7557612d74612bf6565b5b828204905092915050565b6000612d8b82611efc565b9150612d9683611efc565b925082612da657612da5612bf6565b5b82820690509291505056fea264697066735822122070451cf9b4d2e2e7c94d42e0cc7fff6a528d116744f7833d55dc3dd2c26f6ac464736f6c634300080d0033636f756e74282f2f626f64792f726571756573742f646f63756d656e7429203d3d20636f756e74282f2f626f64792f726573706f6e73652f646f63756d656e7429",
					"opcodes": "PUSH1 0x80 PUSH1 0x40 MSTORE CALLVALUE DUP1 ISZERO PUSH3 0x11 JUMPI PUSH1 0x0 DUP1 REVERT JUMPDEST POP PUSH1 0x40 MLOAD PUSH3 0x3EA9 CODESIZE SUB DUP1 PUSH3 0x3EA9 DUP4 CODECOPY DUP2 DUP2 ADD PUSH1 0x40 MSTORE DUP2 ADD SWAP1 PUSH3 0x37 SWAP2 SWAP1 PUSH3 0xE02 JUMP JUMPDEST PUSH1 0x1 PUSH1 0x0 DUP1 PUSH2 0x100 EXP DUP2 SLOAD DUP2 PUSH1 0xFF MUL NOT AND SWAP1 DUP4 ISZERO ISZERO MUL OR SWAP1 SSTORE POP PUSH4 0x63B13D80 PUSH1 0x0 PUSH1 0x1 PUSH2 0x100 EXP DUP2 SLOAD DUP2 PUSH4 0xFFFFFFFF MUL NOT AND SWAP1 DUP4 PUSH4 0xFFFFFFFF AND MUL OR SWAP1 SSTORE POP PUSH4 0x67733400 PUSH1 0x0 PUSH1 0x5 PUSH2 0x100 EXP DUP2 SLOAD DUP2 PUSH4 0xFFFFFFFF MUL NOT AND SWAP1 DUP4 PUSH4 0xFFFFFFFF AND MUL OR SWAP1 SSTORE POP PUSH3 0xE9 PUSH1 0x40 MLOAD DUP1 PUSH1 0x40 ADD PUSH1 0x40 MSTORE DUP1 PUSH1 0x9 DUP2 MSTORE PUSH1 0x20 ADD PUSH32 0x4F72636964204150490000000000000000000000000000000000000000000000 DUP2 MSTORE POP DUP3 PUSH1 0x0 PUSH3 0x766 PUSH1 0x20 SHL PUSH3 0xF6C OR PUSH1 0x20 SHR JUMP JUMPDEST PUSH1 0x1 PUSH1 0x0 DUP3 ADD MLOAD DUP2 PUSH1 0x0 ADD SWAP1 DUP1 MLOAD SWAP1 PUSH1 0x20 ADD SWAP1 PUSH3 0x109 SWAP3 SWAP2 SWAP1 PUSH3 0xB4E JUMP JUMPDEST POP PUSH1 0x20 DUP3 ADD MLOAD DUP2 PUSH1 0x1 ADD PUSH1 0x0 PUSH2 0x100 EXP DUP2 SLOAD DUP2 PUSH20 0xFFFFFFFFFFFFFFFFFFFFFFFFFFFFFFFFFFFFFFFF MUL NOT AND SWAP1 DUP4 PUSH20 0xFFFFFFFFFFFFFFFFFFFFFFFFFFFFFFFFFFFFFFFF AND MUL OR SWAP1 SSTORE POP PUSH1 0x40 DUP3 ADD MLOAD DUP2 PUSH1 0x1 ADD PUSH1 0x14 PUSH2 0x100 EXP DUP2 SLOAD DUP2 PUSH1 0xFF MUL NOT AND SWAP1 DUP4 ISZERO ISZERO MUL OR SWAP1 SSTORE POP SWAP1 POP POP PUSH3 0x1C2 PUSH1 0x40 MLOAD DUP1 PUSH1 0x40 ADD PUSH1 0x40 MSTORE DUP1 PUSH1 0x13 DUP2 MSTORE PUSH1 0x20 ADD PUSH32 0x496E746567726174696F6E2050726F6365737300000000000000000000000000 DUP2 MSTORE POP CALLER PUSH1 0x1 PUSH3 0x766 PUSH1 0x20 SHL PUSH3 0xF6C OR PUSH1 0x20 SHR JUMP JUMPDEST PUSH1 0x3 PUSH1 0x0 DUP3 ADD MLOAD DUP2 PUSH1 0x0 ADD SWAP1 DUP1 MLOAD SWAP1 PUSH1 0x20 ADD SWAP1 PUSH3 0x1E2 SWAP3 SWAP2 SWAP1 PUSH3 0xB4E JUMP JUMPDEST POP PUSH1 0x20 DUP3 ADD MLOAD DUP2 PUSH1 0x1 ADD PUSH1 0x0 PUSH2 0x100 EXP DUP2 SLOAD DUP2 PUSH20 0xFFFFFFFFFFFFFFFFFFFFFFFFFFFFFFFFFFFFFFFF MUL NOT AND SWAP1 DUP4 PUSH20 0xFFFFFFFFFFFFFFFFFFFFFFFFFFFFFFFFFFFFFFFF AND MUL OR SWAP1 SSTORE POP PUSH1 0x40 DUP3 ADD MLOAD DUP2 PUSH1 0x1 ADD PUSH1 0x14 PUSH2 0x100 EXP DUP2 SLOAD DUP2 PUSH1 0xFF MUL NOT AND SWAP1 DUP4 ISZERO ISZERO MUL OR SWAP1 SSTORE POP SWAP1 POP POP PUSH1 0x3 PUSH1 0x5 PUSH1 0x0 CALLER PUSH20 0xFFFFFFFFFFFFFFFFFFFFFFFFFFFFFFFFFFFFFFFF AND PUSH20 0xFFFFFFFFFFFFFFFFFFFFFFFFFFFFFFFFFFFFFFFF AND DUP2 MSTORE PUSH1 0x20 ADD SWAP1 DUP2 MSTORE PUSH1 0x20 ADD PUSH1 0x0 KECCAK256 PUSH1 0x0 DUP3 ADD DUP2 PUSH1 0x0 ADD SWAP1 DUP1 SLOAD PUSH3 0x2A4 SWAP1 PUSH3 0xE63 JUMP JUMPDEST PUSH3 0x2B1 SWAP3 SWAP2 SWAP1 PUSH3 0xBDF JUMP JUMPDEST POP PUSH1 0x1 DUP3 ADD PUSH1 0x0 SWAP1 SLOAD SWAP1 PUSH2 0x100 EXP SWAP1 DIV PUSH20 0xFFFFFFFFFFFFFFFFFFFFFFFFFFFFFFFFFFFFFFFF AND DUP2 PUSH1 0x1 ADD PUSH1 0x0 PUSH2 0x100 EXP DUP2 SLOAD DUP2 PUSH20 0xFFFFFFFFFFFFFFFFFFFFFFFFFFFFFFFFFFFFFFFF MUL NOT AND SWAP1 DUP4 PUSH20 0xFFFFFFFFFFFFFFFFFFFFFFFFFFFFFFFFFFFFFFFF AND MUL OR SWAP1 SSTORE POP PUSH1 0x1 DUP3 ADD PUSH1 0x14 SWAP1 SLOAD SWAP1 PUSH2 0x100 EXP SWAP1 DIV PUSH1 0xFF AND DUP2 PUSH1 0x1 ADD PUSH1 0x14 PUSH2 0x100 EXP DUP2 SLOAD DUP2 PUSH1 0xFF MUL NOT AND SWAP1 DUP4 ISZERO ISZERO MUL OR SWAP1 SSTORE POP SWAP1 POP POP PUSH1 0x1 PUSH1 0x5 PUSH1 0x0 DUP4 PUSH20 0xFFFFFFFFFFFFFFFFFFFFFFFFFFFFFFFFFFFFFFFF AND PUSH20 0xFFFFFFFFFFFFFFFFFFFFFFFFFFFFFFFFFFFFFFFF AND DUP2 MSTORE PUSH1 0x20 ADD SWAP1 DUP2 MSTORE PUSH1 0x20 ADD PUSH1 0x0 KECCAK256 PUSH1 0x0 DUP3 ADD DUP2 PUSH1 0x0 ADD SWAP1 DUP1 SLOAD PUSH3 0x3A0 SWAP1 PUSH3 0xE63 JUMP JUMPDEST PUSH3 0x3AD SWAP3 SWAP2 SWAP1 PUSH3 0xBDF JUMP JUMPDEST POP PUSH1 0x1 DUP3 ADD PUSH1 0x0 SWAP1 SLOAD SWAP1 PUSH2 0x100 EXP SWAP1 DIV PUSH20 0xFFFFFFFFFFFFFFFFFFFFFFFFFFFFFFFFFFFFFFFF AND DUP2 PUSH1 0x1 ADD PUSH1 0x0 PUSH2 0x100 EXP DUP2 SLOAD DUP2 PUSH20 0xFFFFFFFFFFFFFFFFFFFFFFFFFFFFFFFFFFFFFFFF MUL NOT AND SWAP1 DUP4 PUSH20 0xFFFFFFFFFFFFFFFFFFFFFFFFFFFFFFFFFFFFFFFF AND MUL OR SWAP1 SSTORE POP PUSH1 0x1 DUP3 ADD PUSH1 0x14 SWAP1 SLOAD SWAP1 PUSH2 0x100 EXP SWAP1 DIV PUSH1 0xFF AND DUP2 PUSH1 0x1 ADD PUSH1 0x14 PUSH2 0x100 EXP DUP2 SLOAD DUP2 PUSH1 0xFF MUL NOT AND SWAP1 DUP4 ISZERO ISZERO MUL OR SWAP1 SSTORE POP SWAP1 POP POP PUSH1 0x6 PUSH3 0x460 PUSH1 0x0 PUSH1 0x6 PUSH3 0x7AC PUSH1 0x20 SHL PUSH3 0xFB0 OR PUSH1 0x20 SHR JUMP JUMPDEST SWAP1 DUP1 PUSH1 0x1 DUP2 SLOAD ADD DUP1 DUP3 SSTORE DUP1 SWAP2 POP POP PUSH1 0x1 SWAP1 SUB SWAP1 PUSH1 0x0 MSTORE PUSH1 0x20 PUSH1 0x0 KECCAK256 ADD PUSH1 0x0 SWAP1 SWAP2 SWAP1 SWAP2 SWAP1 SWAP2 POP PUSH1 0x0 DUP3 ADD MLOAD DUP2 PUSH1 0x0 ADD PUSH1 0x0 PUSH2 0x100 EXP DUP2 SLOAD DUP2 PUSH1 0xFF MUL NOT AND SWAP1 DUP4 PUSH1 0xFF AND MUL OR SWAP1 SSTORE POP PUSH1 0x20 DUP3 ADD MLOAD DUP2 PUSH1 0x0 ADD PUSH1 0x1 PUSH2 0x100 EXP DUP2 SLOAD DUP2 PUSH1 0xFF MUL NOT AND SWAP1 DUP4 PUSH1 0xFF AND MUL OR SWAP1 SSTORE POP POP POP PUSH1 0x7 PUSH3 0x4E6 PUSH1 0x0 PUSH3 0x1517F PUSH3 0x89F PUSH1 0x20 SHL PUSH3 0x1099 OR PUSH1 0x20 SHR JUMP JUMPDEST SWAP1 DUP1 PUSH1 0x1 DUP2 SLOAD ADD DUP1 DUP3 SSTORE DUP1 SWAP2 POP POP PUSH1 0x1 SWAP1 SUB SWAP1 PUSH1 0x0 MSTORE PUSH1 0x20 PUSH1 0x0 KECCAK256 ADD PUSH1 0x0 SWAP1 SWAP2 SWAP1 SWAP2 SWAP1 SWAP2 POP PUSH1 0x0 DUP3 ADD MLOAD DUP2 PUSH1 0x0 ADD PUSH1 0x0 PUSH2 0x100 EXP DUP2 SLOAD DUP2 PUSH4 0xFFFFFFFF MUL NOT AND SWAP1 DUP4 PUSH4 0xFFFFFFFF AND MUL OR SWAP1 SSTORE POP PUSH1 0x20 DUP3 ADD MLOAD DUP2 PUSH1 0x0 ADD PUSH1 0x4 PUSH2 0x100 EXP DUP2 SLOAD DUP2 PUSH4 0xFFFFFFFF MUL NOT AND SWAP1 DUP4 PUSH4 0xFFFFFFFF AND MUL OR SWAP1 SSTORE POP POP POP PUSH1 0x8 PUSH3 0x576 PUSH1 0x18 PUSH1 0x0 PUSH3 0x9B4 PUSH1 0x20 SHL PUSH3 0x11A4 OR PUSH1 0x20 SHR JUMP JUMPDEST SWAP1 DUP1 PUSH1 0x1 DUP2 SLOAD ADD DUP1 DUP3 SSTORE DUP1 SWAP2 POP POP PUSH1 0x1 SWAP1 SUB SWAP1 PUSH1 0x0 MSTORE PUSH1 0x20 PUSH1 0x0 KECCAK256 ADD PUSH1 0x0 SWAP1 SWAP2 SWAP1 SWAP2 SWAP1 SWAP2 POP PUSH1 0x0 DUP3 ADD MLOAD DUP2 PUSH1 0x0 ADD PUSH1 0x0 PUSH2 0x100 EXP DUP2 SLOAD DUP2 PUSH4 0xFFFFFFFF MUL NOT AND SWAP1 DUP4 PUSH4 0xFFFFFFFF AND MUL OR SWAP1 SSTORE POP PUSH1 0x20 DUP3 ADD MLOAD DUP2 PUSH1 0x0 ADD PUSH1 0x4 PUSH2 0x100 EXP DUP2 SLOAD DUP2 PUSH1 0xFF MUL NOT AND SWAP1 DUP4 PUSH1 0xFF AND MUL OR SWAP1 SSTORE POP PUSH1 0x40 DUP3 ADD MLOAD DUP2 PUSH1 0x0 ADD PUSH1 0x5 PUSH2 0x100 EXP DUP2 SLOAD DUP2 PUSH4 0xFFFFFFFF MUL NOT AND SWAP1 DUP4 PUSH4 0xFFFFFFFF AND MUL OR SWAP1 SSTORE POP PUSH1 0x60 DUP3 ADD MLOAD DUP2 PUSH1 0x0 ADD PUSH1 0x9 PUSH2 0x100 EXP DUP2 SLOAD DUP2 PUSH4 0xFFFFFFFF MUL NOT AND SWAP1 DUP4 PUSH4 0xFFFFFFFF AND MUL OR SWAP1 SSTORE POP PUSH1 0x80 DUP3 ADD MLOAD DUP2 PUSH1 0x0 ADD PUSH1 0xD PUSH2 0x100 EXP DUP2 SLOAD DUP2 PUSH4 0xFFFFFFFF MUL NOT AND SWAP1 DUP4 PUSH4 0xFFFFFFFF AND MUL OR SWAP1 SSTORE POP POP POP PUSH1 0x9 PUSH3 0x673 PUSH1 0x3C PUSH3 0xA39 PUSH1 0x20 SHL PUSH3 0x121D OR PUSH1 0x20 SHR JUMP JUMPDEST SWAP1 DUP1 PUSH1 0x1 DUP2 SLOAD ADD DUP1 DUP3 SSTORE DUP1 SWAP2 POP POP PUSH1 0x1 SWAP1 SUB SWAP1 PUSH1 0x0 MSTORE PUSH1 0x20 PUSH1 0x0 KECCAK256 ADD PUSH1 0x0 SWAP1 SWAP2 SWAP1 SWAP2 SWAP1 SWAP2 POP PUSH1 0x0 DUP3 ADD MLOAD DUP2 PUSH1 0x0 ADD PUSH1 0x0 PUSH2 0x100 EXP DUP2 SLOAD DUP2 PUSH4 0xFFFFFFFF MUL NOT AND SWAP1 DUP4 PUSH4 0xFFFFFFFF AND MUL OR SWAP1 SSTORE POP PUSH1 0x20 DUP3 ADD MLOAD DUP2 PUSH1 0x0 ADD PUSH1 0x4 PUSH2 0x100 EXP DUP2 SLOAD DUP2 PUSH4 0xFFFFFFFF MUL NOT AND SWAP1 DUP4 PUSH4 0xFFFFFFFF AND MUL OR SWAP1 SSTORE POP POP POP PUSH1 0xA PUSH3 0x719 PUSH1 0x40 MLOAD DUP1 PUSH1 0x80 ADD PUSH1 0x40 MSTORE DUP1 PUSH1 0x41 DUP2 MSTORE PUSH1 0x20 ADD PUSH3 0x3E68 PUSH1 0x41 SWAP2 CODECOPY PUSH3 0xA6C PUSH1 0x20 SHL PUSH3 0x124E OR PUSH1 0x20 SHR JUMP JUMPDEST SWAP1 DUP1 PUSH1 0x1 DUP2 SLOAD ADD DUP1 DUP3 SSTORE DUP1 SWAP2 POP POP PUSH1 0x1 SWAP1 SUB SWAP1 PUSH1 0x0 MSTORE PUSH1 0x20 PUSH1 0x0 KECCAK256 ADD PUSH1 0x0 SWAP1 SWAP2 SWAP1 SWAP2 SWAP1 SWAP2 POP PUSH1 0x0 DUP3 ADD MLOAD DUP2 PUSH1 0x0 ADD SWAP1 DUP1 MLOAD SWAP1 PUSH1 0x20 ADD SWAP1 PUSH3 0x75C SWAP3 SWAP2 SWAP1 PUSH3 0xB4E JUMP JUMPDEST POP POP POP POP PUSH3 0x1071 JUMP JUMPDEST PUSH3 0x770 PUSH3 0xC77 JUMP JUMPDEST PUSH1 0x40 MLOAD DUP1 PUSH1 0x60 ADD PUSH1 0x40 MSTORE DUP1 DUP6 DUP2 MSTORE PUSH1 0x20 ADD DUP5 PUSH20 0xFFFFFFFFFFFFFFFFFFFFFFFFFFFFFFFFFFFFFFFF AND DUP2 MSTORE PUSH1 0x20 ADD DUP4 ISZERO ISZERO DUP2 MSTORE POP SWAP1 POP SWAP4 SWAP3 POP POP POP JUMP JUMPDEST PUSH3 0x7B6 PUSH3 0xCB0 JUMP JUMPDEST DUP3 DUP3 PUSH1 0x0 PUSH1 0xFF AND DUP3 PUSH1 0xFF AND LT ISZERO DUP1 ISZERO PUSH3 0x7D7 JUMPI POP PUSH1 0x6 PUSH1 0xFF AND DUP3 PUSH1 0xFF AND GT ISZERO JUMPDEST PUSH3 0x819 JUMPI PUSH1 0x40 MLOAD PUSH32 0x8C379A000000000000000000000000000000000000000000000000000000000 DUP2 MSTORE PUSH1 0x4 ADD PUSH3 0x810 SWAP1 PUSH3 0xF1F JUMP JUMPDEST PUSH1 0x40 MLOAD DUP1 SWAP2 SUB SWAP1 REVERT JUMPDEST PUSH1 0x0 PUSH1 0xFF AND DUP2 PUSH1 0xFF AND LT ISZERO DUP1 ISZERO PUSH3 0x838 JUMPI POP PUSH1 0x6 PUSH1 0xFF AND DUP2 PUSH1 0xFF AND GT ISZERO JUMPDEST PUSH3 0x87A JUMPI PUSH1 0x40 MLOAD PUSH32 0x8C379A000000000000000000000000000000000000000000000000000000000 DUP2 MSTORE PUSH1 0x4 ADD PUSH3 0x871 SWAP1 PUSH3 0xFB7 JUMP JUMPDEST PUSH1 0x40 MLOAD DUP1 SWAP2 SUB SWAP1 REVERT JUMPDEST PUSH1 0x40 MLOAD DUP1 PUSH1 0x40 ADD PUSH1 0x40 MSTORE DUP1 DUP7 PUSH1 0xFF AND DUP2 MSTORE PUSH1 0x20 ADD DUP6 PUSH1 0xFF AND DUP2 MSTORE POP SWAP3 POP POP POP SWAP3 SWAP2 POP POP JUMP JUMPDEST PUSH3 0x8A9 PUSH3 0xCD0 JUMP JUMPDEST DUP3 DUP3 PUSH1 0x0 PUSH4 0xFFFFFFFF AND DUP3 PUSH4 0xFFFFFFFF AND LT ISZERO DUP1 ISZERO PUSH3 0x8D8 JUMPI POP PUSH3 0x1517F PUSH4 0xFFFFFFFF AND DUP3 PUSH4 0xFFFFFFFF AND GT ISZERO JUMPDEST PUSH3 0x91A JUMPI PUSH1 0x40 MLOAD PUSH32 0x8C379A000000000000000000000000000000000000000000000000000000000 DUP2 MSTORE PUSH1 0x4 ADD PUSH3 0x911 SWAP1 PUSH3 0xF1F JUMP JUMPDEST PUSH1 0x40 MLOAD DUP1 SWAP2 SUB SWAP1 REVERT JUMPDEST PUSH1 0x0 PUSH4 0xFFFFFFFF AND DUP2 PUSH4 0xFFFFFFFF AND LT ISZERO DUP1 ISZERO PUSH3 0x947 JUMPI POP PUSH3 0x1517F PUSH4 0xFFFFFFFF AND DUP2 PUSH4 0xFFFFFFFF AND GT ISZERO JUMPDEST PUSH3 0x989 JUMPI PUSH1 0x40 MLOAD PUSH32 0x8C379A000000000000000000000000000000000000000000000000000000000 DUP2 MSTORE PUSH1 0x4 ADD PUSH3 0x980 SWAP1 PUSH3 0xFB7 JUMP JUMPDEST PUSH1 0x40 MLOAD DUP1 SWAP2 SUB SWAP1 REVERT JUMPDEST PUSH1 0x40 MLOAD DUP1 PUSH1 0x40 ADD PUSH1 0x40 MSTORE DUP1 DUP7 PUSH4 0xFFFFFFFF AND DUP2 MSTORE PUSH1 0x20 ADD DUP6 PUSH4 0xFFFFFFFF AND DUP2 MSTORE POP SWAP3 POP POP POP SWAP3 SWAP2 POP POP JUMP JUMPDEST PUSH3 0x9BE PUSH3 0xCF6 JUMP JUMPDEST PUSH1 0x0 PUSH1 0x4 PUSH1 0xFF AND DUP4 PUSH1 0xFF AND GT PUSH3 0x9E8 JUMPI PUSH3 0x9E0 DUP4 PUSH3 0xA8C PUSH1 0x20 SHL PUSH1 0x20 SHR JUMP JUMPDEST SWAP1 POP PUSH3 0x9ED JUMP JUMPDEST PUSH1 0x1 SWAP1 POP JUMPDEST PUSH1 0x40 MLOAD DUP1 PUSH1 0xA0 ADD PUSH1 0x40 MSTORE DUP1 DUP6 PUSH4 0xFFFFFFFF AND DUP2 MSTORE PUSH1 0x20 ADD DUP5 PUSH1 0xFF AND DUP2 MSTORE PUSH1 0x20 ADD DUP3 PUSH4 0xFFFFFFFF AND DUP2 MSTORE PUSH1 0x20 ADD DUP6 PUSH4 0xFFFFFFFF AND DUP2 MSTORE PUSH1 0x20 ADD PUSH1 0x0 PUSH4 0xFFFFFFFF AND DUP2 MSTORE POP SWAP2 POP POP SWAP3 SWAP2 POP POP JUMP JUMPDEST PUSH3 0xA43 PUSH3 0xD40 JUMP JUMPDEST PUSH1 0x40 MLOAD DUP1 PUSH1 0x40 ADD PUSH1 0x40 MSTORE DUP1 PUSH1 0x0 PUSH4 0xFFFFFFFF AND DUP2 MSTORE PUSH1 0x20 ADD DUP4 PUSH4 0xFFFFFFFF AND DUP2 MSTORE POP SWAP1 POP SWAP2 SWAP1 POP JUMP JUMPDEST PUSH3 0xA76 PUSH3 0xD66 JUMP JUMPDEST PUSH1 0x40 MLOAD DUP1 PUSH1 0x20 ADD PUSH1 0x40 MSTORE DUP1 DUP4 DUP2 MSTORE POP SWAP1 POP SWAP2 SWAP1 POP JUMP JUMPDEST PUSH1 0x0 PUSH1 0x4 PUSH1 0xFF AND DUP3 PUSH1 0xFF AND GT ISZERO PUSH3 0xADB JUMPI PUSH1 0x40 MLOAD PUSH32 0x8C379A000000000000000000000000000000000000000000000000000000000 DUP2 MSTORE PUSH1 0x4 ADD PUSH3 0xAD2 SWAP1 PUSH3 0x104F JUMP JUMPDEST PUSH1 0x40 MLOAD DUP1 SWAP2 SUB SWAP1 REVERT JUMPDEST PUSH1 0x0 PUSH1 0xFF AND DUP3 PUSH1 0xFF AND SUB PUSH3 0xAF4 JUMPI PUSH1 0x1 SWAP1 POP PUSH3 0xB49 JUMP JUMPDEST PUSH1 0x1 PUSH1 0xFF AND DUP3 PUSH1 0xFF AND SUB PUSH3 0xB0D JUMPI PUSH1 0x3C SWAP1 POP PUSH3 0xB49 JUMP JUMPDEST PUSH1 0x2 PUSH1 0xFF AND DUP3 PUSH1 0xFF AND SUB PUSH3 0xB27 JUMPI PUSH2 0xE10 SWAP1 POP PUSH3 0xB49 JUMP JUMPDEST PUSH1 0x3 PUSH1 0xFF AND DUP3 PUSH1 0xFF AND SUB PUSH3 0xB42 JUMPI PUSH3 0x15180 SWAP1 POP PUSH3 0xB49 JUMP JUMPDEST PUSH3 0x93A80 SWAP1 POP JUMPDEST SWAP2 SWAP1 POP JUMP JUMPDEST DUP3 DUP1 SLOAD PUSH3 0xB5C SWAP1 PUSH3 0xE63 JUMP JUMPDEST SWAP1 PUSH1 0x0 MSTORE PUSH1 0x20 PUSH1 0x0 KECCAK256 SWAP1 PUSH1 0x1F ADD PUSH1 0x20 SWAP1 DIV DUP2 ADD SWAP3 DUP3 PUSH3 0xB80 JUMPI PUSH1 0x0 DUP6 SSTORE PUSH3 0xBCC JUMP JUMPDEST DUP3 PUSH1 0x1F LT PUSH3 0xB9B JUMPI DUP1 MLOAD PUSH1 0xFF NOT AND DUP4 DUP1 ADD OR DUP6 SSTORE PUSH3 0xBCC JUMP JUMPDEST DUP3 DUP1 ADD PUSH1 0x1 ADD DUP6 SSTORE DUP3 ISZERO PUSH3 0xBCC JUMPI SWAP2 DUP3 ADD JUMPDEST DUP3 DUP2 GT ISZERO PUSH3 0xBCB JUMPI DUP3 MLOAD DUP3 SSTORE SWAP2 PUSH1 0x20 ADD SWAP2 SWAP1 PUSH1 0x1 ADD SWAP1 PUSH3 0xBAE JUMP JUMPDEST JUMPDEST POP SWAP1 POP PUSH3 0xBDB SWAP2 SWAP1 PUSH3 0xD79 JUMP JUMPDEST POP SWAP1 JUMP JUMPDEST DUP3 DUP1 SLOAD PUSH3 0xBED SWAP1 PUSH3 0xE63 JUMP JUMPDEST SWAP1 PUSH1 0x0 MSTORE PUSH1 0x20 PUSH1 0x0 KECCAK256 SWAP1 PUSH1 0x1F ADD PUSH1 0x20 SWAP1 DIV DUP2 ADD SWAP3 DUP3 PUSH3 0xC11 JUMPI PUSH1 0x0 DUP6 SSTORE PUSH3 0xC64 JUMP JUMPDEST DUP3 PUSH1 0x1F LT PUSH3 0xC24 JUMPI DUP1 SLOAD DUP6 SSTORE PUSH3 0xC64 JUMP JUMPDEST DUP3 DUP1 ADD PUSH1 0x1 ADD DUP6 SSTORE DUP3 ISZERO PUSH3 0xC64 JUMPI PUSH1 0x0 MSTORE PUSH1 0x20 PUSH1 0x0 KECCAK256 SWAP2 PUSH1 0x1F ADD PUSH1 0x20 SWAP1 DIV DUP3 ADD JUMPDEST DUP3 DUP2 GT ISZERO PUSH3 0xC63 JUMPI DUP3 SLOAD DUP3 SSTORE SWAP2 PUSH1 0x1 ADD SWAP2 SWAP1 PUSH1 0x1 ADD SWAP1 PUSH3 0xC46 JUMP JUMPDEST JUMPDEST POP SWAP1 POP PUSH3 0xC73 SWAP2 SWAP1 PUSH3 0xD79 JUMP JUMPDEST POP SWAP1 JUMP JUMPDEST PUSH1 0x40 MLOAD DUP1 PUSH1 0x60 ADD PUSH1 0x40 MSTORE DUP1 PUSH1 0x60 DUP2 MSTORE PUSH1 0x20 ADD PUSH1 0x0 PUSH20 0xFFFFFFFFFFFFFFFFFFFFFFFFFFFFFFFFFFFFFFFF AND DUP2 MSTORE PUSH1 0x20 ADD PUSH1 0x0 ISZERO ISZERO DUP2 MSTORE POP SWAP1 JUMP JUMPDEST PUSH1 0x40 MLOAD DUP1 PUSH1 0x40 ADD PUSH1 0x40 MSTORE DUP1 PUSH1 0x0 PUSH1 0xFF AND DUP2 MSTORE PUSH1 0x20 ADD PUSH1 0x0 PUSH1 0xFF AND DUP2 MSTORE POP SWAP1 JUMP JUMPDEST PUSH1 0x40 MLOAD DUP1 PUSH1 0x40 ADD PUSH1 0x40 MSTORE DUP1 PUSH1 0x0 PUSH4 0xFFFFFFFF AND DUP2 MSTORE PUSH1 0x20 ADD PUSH1 0x0 PUSH4 0xFFFFFFFF AND DUP2 MSTORE POP SWAP1 JUMP JUMPDEST PUSH1 0x40 MLOAD DUP1 PUSH1 0xA0 ADD PUSH1 0x40 MSTORE DUP1 PUSH1 0x0 PUSH4 0xFFFFFFFF AND DUP2 MSTORE PUSH1 0x20 ADD PUSH1 0x0 PUSH1 0xFF AND DUP2 MSTORE PUSH1 0x20 ADD PUSH1 0x0 PUSH4 0xFFFFFFFF AND DUP2 MSTORE PUSH1 0x20 ADD PUSH1 0x0 PUSH4 0xFFFFFFFF AND DUP2 MSTORE PUSH1 0x20 ADD PUSH1 0x0 PUSH4 0xFFFFFFFF AND DUP2 MSTORE POP SWAP1 JUMP JUMPDEST PUSH1 0x40 MLOAD DUP1 PUSH1 0x40 ADD PUSH1 0x40 MSTORE DUP1 PUSH1 0x0 PUSH4 0xFFFFFFFF AND DUP2 MSTORE PUSH1 0x20 ADD PUSH1 0x0 PUSH4 0xFFFFFFFF AND DUP2 MSTORE POP SWAP1 JUMP JUMPDEST PUSH1 0x40 MLOAD DUP1 PUSH1 0x20 ADD PUSH1 0x40 MSTORE DUP1 PUSH1 0x60 DUP2 MSTORE POP SWAP1 JUMP JUMPDEST JUMPDEST DUP1 DUP3 GT ISZERO PUSH3 0xD94 JUMPI PUSH1 0x0 DUP2 PUSH1 0x0 SWAP1 SSTORE POP PUSH1 0x1 ADD PUSH3 0xD7A JUMP JUMPDEST POP SWAP1 JUMP JUMPDEST PUSH1 0x0 DUP1 REVERT JUMPDEST PUSH1 0x0 PUSH20 0xFFFFFFFFFFFFFFFFFFFFFFFFFFFFFFFFFFFFFFFF DUP3 AND SWAP1 POP SWAP2 SWAP1 POP JUMP JUMPDEST PUSH1 0x0 PUSH3 0xDCA DUP3 PUSH3 0xD9D JUMP JUMPDEST SWAP1 POP SWAP2 SWAP1 POP JUMP JUMPDEST PUSH3 0xDDC DUP2 PUSH3 0xDBD JUMP JUMPDEST DUP2 EQ PUSH3 0xDE8 JUMPI PUSH1 0x0 DUP1 REVERT JUMPDEST POP JUMP JUMPDEST PUSH1 0x0 DUP2 MLOAD SWAP1 POP PUSH3 0xDFC DUP2 PUSH3 0xDD1 JUMP JUMPDEST SWAP3 SWAP2 POP POP JUMP JUMPDEST PUSH1 0x0 PUSH1 0x20 DUP3 DUP5 SUB SLT ISZERO PUSH3 0xE1B JUMPI PUSH3 0xE1A PUSH3 0xD98 JUMP JUMPDEST JUMPDEST PUSH1 0x0 PUSH3 0xE2B DUP5 DUP3 DUP6 ADD PUSH3 0xDEB JUMP JUMPDEST SWAP2 POP POP SWAP3 SWAP2 POP POP JUMP JUMPDEST PUSH32 0x4E487B7100000000000000000000000000000000000000000000000000000000 PUSH1 0x0 MSTORE PUSH1 0x22 PUSH1 0x4 MSTORE PUSH1 0x24 PUSH1 0x0 REVERT JUMPDEST PUSH1 0x0 PUSH1 0x2 DUP3 DIV SWAP1 POP PUSH1 0x1 DUP3 AND DUP1 PUSH3 0xE7C JUMPI PUSH1 0x7F DUP3 AND SWAP2 POP JUMPDEST PUSH1 0x20 DUP3 LT DUP2 SUB PUSH3 0xE92 JUMPI PUSH3 0xE91 PUSH3 0xE34 JUMP JUMPDEST JUMPDEST POP SWAP2 SWAP1 POP JUMP JUMPDEST PUSH1 0x0 DUP3 DUP3 MSTORE PUSH1 0x20 DUP3 ADD SWAP1 POP SWAP3 SWAP2 POP POP JUMP JUMPDEST PUSH32 0x546865205F7374617274446179206E6F7420726570726573656E747320612076 PUSH1 0x0 DUP3 ADD MSTORE PUSH32 0x616C696420646179000000000000000000000000000000000000000000000000 PUSH1 0x20 DUP3 ADD MSTORE POP JUMP JUMPDEST PUSH1 0x0 PUSH3 0xF07 PUSH1 0x28 DUP4 PUSH3 0xE98 JUMP JUMPDEST SWAP2 POP PUSH3 0xF14 DUP3 PUSH3 0xEA9 JUMP JUMPDEST PUSH1 0x40 DUP3 ADD SWAP1 POP SWAP2 SWAP1 POP JUMP JUMPDEST PUSH1 0x0 PUSH1 0x20 DUP3 ADD SWAP1 POP DUP2 DUP2 SUB PUSH1 0x0 DUP4 ADD MSTORE PUSH3 0xF3A DUP2 PUSH3 0xEF8 JUMP JUMPDEST SWAP1 POP SWAP2 SWAP1 POP JUMP JUMPDEST PUSH32 0x546865205F656E64446179206E6F7420726570726573656E747320612076616C PUSH1 0x0 DUP3 ADD MSTORE PUSH32 0x6964206461790000000000000000000000000000000000000000000000000000 PUSH1 0x20 DUP3 ADD MSTORE POP JUMP JUMPDEST PUSH1 0x0 PUSH3 0xF9F PUSH1 0x26 DUP4 PUSH3 0xE98 JUMP JUMPDEST SWAP2 POP PUSH3 0xFAC DUP3 PUSH3 0xF41 JUMP JUMPDEST PUSH1 0x40 DUP3 ADD SWAP1 POP SWAP2 SWAP1 POP JUMP JUMPDEST PUSH1 0x0 PUSH1 0x20 DUP3 ADD SWAP1 POP DUP2 DUP2 SUB PUSH1 0x0 DUP4 ADD MSTORE PUSH3 0xFD2 DUP2 PUSH3 0xF90 JUMP JUMPDEST SWAP1 POP SWAP2 SWAP1 POP JUMP JUMPDEST PUSH32 0x546865206D6574686F642067657454696D65496E5365636F6E647320646F6573 PUSH1 0x0 DUP3 ADD MSTORE PUSH32 0x6E277420776F726B20666F72204D4F4E544820616E6420594541520000000000 PUSH1 0x20 DUP3 ADD MSTORE POP JUMP JUMPDEST PUSH1 0x0 PUSH3 0x1037 PUSH1 0x3B DUP4 PUSH3 0xE98 JUMP JUMPDEST SWAP2 POP PUSH3 0x1044 DUP3 PUSH3 0xFD9 JUMP JUMPDEST PUSH1 0x40 DUP3 ADD SWAP1 POP SWAP2 SWAP1 POP JUMP JUMPDEST PUSH1 0x0 PUSH1 0x20 DUP3 ADD SWAP1 POP DUP2 DUP2 SUB PUSH1 0x0 DUP4 ADD MSTORE PUSH3 0x106A DUP2 PUSH3 0x1028 JUMP JUMPDEST SWAP1 POP SWAP2 SWAP1 POP JUMP JUMPDEST PUSH2 0x2DE7 DUP1 PUSH3 0x1081 PUSH1 0x0 CODECOPY PUSH1 0x0 RETURN INVALID PUSH1 0x80 PUSH1 0x40 MSTORE CALLVALUE DUP1 ISZERO PUSH2 0x10 JUMPI PUSH1 0x0 DUP1 REVERT JUMPDEST POP PUSH1 0x4 CALLDATASIZE LT PUSH2 0x7D JUMPI PUSH1 0x0 CALLDATALOAD PUSH1 0xE0 SHR DUP1 PUSH4 0x85931911 GT PUSH2 0x5B JUMPI DUP1 PUSH4 0x85931911 EQ PUSH2 0x100 JUMPI DUP1 PUSH4 0x9C764223 EQ PUSH2 0x11E JUMPI DUP1 PUSH4 0xB8B4F1A0 EQ PUSH2 0x14E JUMPI DUP1 PUSH4 0xFB6F8243 EQ PUSH2 0x16C JUMPI PUSH2 0x7D JUMP JUMPDEST DUP1 PUSH4 0x22D53D53 EQ PUSH2 0x82 JUMPI DUP1 PUSH4 0x5E744C6A EQ PUSH2 0xB2 JUMPI DUP1 PUSH4 0x70D8915A EQ PUSH2 0xE2 JUMPI JUMPDEST PUSH1 0x0 DUP1 REVERT JUMPDEST PUSH2 0x9C PUSH1 0x4 DUP1 CALLDATASIZE SUB DUP2 ADD SWAP1 PUSH2 0x97 SWAP2 SWAP1 PUSH2 0x20C9 JUMP JUMPDEST PUSH2 0x19C JUMP JUMPDEST PUSH1 0x40 MLOAD PUSH2 0xA9 SWAP2 SWAP1 PUSH2 0x2134 JUMP JUMPDEST PUSH1 0x40 MLOAD DUP1 SWAP2 SUB SWAP1 RETURN JUMPDEST PUSH2 0xCC PUSH1 0x4 DUP1 CALLDATASIZE SUB DUP2 ADD SWAP1 PUSH2 0xC7 SWAP2 SWAP1 PUSH2 0x2262 JUMP JUMPDEST PUSH2 0x3D5 JUMP JUMPDEST PUSH1 0x40 MLOAD PUSH2 0xD9 SWAP2 SWAP1 PUSH2 0x2134 JUMP JUMPDEST PUSH1 0x40 MLOAD DUP1 SWAP2 SUB SWAP1 RETURN JUMPDEST PUSH2 0xEA PUSH2 0x5C6 JUMP JUMPDEST PUSH1 0x40 MLOAD PUSH2 0xF7 SWAP2 SWAP1 PUSH2 0x22CD JUMP JUMPDEST PUSH1 0x40 MLOAD DUP1 SWAP2 SUB SWAP1 RETURN JUMPDEST PUSH2 0x108 PUSH2 0x72D JUMP JUMPDEST PUSH1 0x40 MLOAD PUSH2 0x115 SWAP2 SWAP1 PUSH2 0x22CD JUMP JUMPDEST PUSH1 0x40 MLOAD DUP1 SWAP2 SUB SWAP1 RETURN JUMPDEST PUSH2 0x138 PUSH1 0x4 DUP1 CALLDATASIZE SUB DUP2 ADD SWAP1 PUSH2 0x133 SWAP2 SWAP1 PUSH2 0x2321 JUMP JUMPDEST PUSH2 0x895 JUMP JUMPDEST PUSH1 0x40 MLOAD PUSH2 0x145 SWAP2 SWAP1 PUSH2 0x2134 JUMP JUMPDEST PUSH1 0x40 MLOAD DUP1 SWAP2 SUB SWAP1 RETURN JUMPDEST PUSH2 0x156 PUSH2 0xB6C JUMP JUMPDEST PUSH1 0x40 MLOAD PUSH2 0x163 SWAP2 SWAP1 PUSH2 0x2134 JUMP JUMPDEST PUSH1 0x40 MLOAD DUP1 SWAP2 SUB SWAP1 RETURN JUMPDEST PUSH2 0x186 PUSH1 0x4 DUP1 CALLDATASIZE SUB DUP2 ADD SWAP1 PUSH2 0x181 SWAP2 SWAP1 PUSH2 0x2374 JUMP JUMPDEST PUSH2 0xCD6 JUMP JUMPDEST PUSH1 0x40 MLOAD PUSH2 0x193 SWAP2 SWAP1 PUSH2 0x2497 JUMP JUMPDEST PUSH1 0x40 MLOAD DUP1 SWAP2 SUB SWAP1 RETURN JUMPDEST PUSH1 0x0 DUP1 PUSH1 0x0 SWAP1 SLOAD SWAP1 PUSH2 0x100 EXP SWAP1 DIV PUSH1 0xFF AND PUSH2 0x1EC JUMPI PUSH1 0x40 MLOAD PUSH32 0x8C379A000000000000000000000000000000000000000000000000000000000 DUP2 MSTORE PUSH1 0x4 ADD PUSH2 0x1E3 SWAP1 PUSH2 0x2516 JUMP JUMPDEST PUSH1 0x40 MLOAD DUP1 SWAP2 SUB SWAP1 REVERT JUMPDEST CALLER PUSH20 0xFFFFFFFFFFFFFFFFFFFFFFFFFFFFFFFFFFFFFFFF AND PUSH1 0x1 DUP1 ADD PUSH1 0x0 SWAP1 SLOAD SWAP1 PUSH2 0x100 EXP SWAP1 DIV PUSH20 0xFFFFFFFFFFFFFFFFFFFFFFFFFFFFFFFFFFFFFFFF AND PUSH20 0xFFFFFFFFFFFFFFFFFFFFFFFFFFFFFFFFFFFFFFFF AND EQ PUSH2 0x27E JUMPI PUSH1 0x40 MLOAD PUSH32 0x8C379A000000000000000000000000000000000000000000000000000000000 DUP2 MSTORE PUSH1 0x4 ADD PUSH2 0x275 SWAP1 PUSH2 0x25A8 JUMP JUMPDEST PUSH1 0x40 MLOAD DUP1 SWAP2 SUB SWAP1 REVERT JUMPDEST PUSH2 0x306 DUP4 PUSH1 0x9 PUSH1 0x0 DUP2 SLOAD DUP2 LT PUSH2 0x297 JUMPI PUSH2 0x296 PUSH2 0x25C8 JUMP JUMPDEST JUMPDEST SWAP1 PUSH1 0x0 MSTORE PUSH1 0x20 PUSH1 0x0 KECCAK256 ADD PUSH1 0x40 MLOAD DUP1 PUSH1 0x40 ADD PUSH1 0x40 MSTORE SWAP1 DUP2 PUSH1 0x0 DUP3 ADD PUSH1 0x0 SWAP1 SLOAD SWAP1 PUSH2 0x100 EXP SWAP1 DIV PUSH4 0xFFFFFFFF AND PUSH4 0xFFFFFFFF AND PUSH4 0xFFFFFFFF AND DUP2 MSTORE PUSH1 0x20 ADD PUSH1 0x0 DUP3 ADD PUSH1 0x4 SWAP1 SLOAD SWAP1 PUSH2 0x100 EXP SWAP1 DIV PUSH4 0xFFFFFFFF AND PUSH4 0xFFFFFFFF AND PUSH4 0xFFFFFFFF AND DUP2 MSTORE POP POP PUSH2 0x126C SWAP1 SWAP2 SWAP1 PUSH4 0xFFFFFFFF AND JUMP JUMPDEST ISZERO DUP1 ISZERO PUSH2 0x32B JUMPI POP DUP2 PUSH1 0x0 DUP2 MLOAD DUP2 LT PUSH2 0x322 JUMPI PUSH2 0x321 PUSH2 0x25C8 JUMP JUMPDEST JUMPDEST PUSH1 0x20 MUL PUSH1 0x20 ADD ADD MLOAD JUMPDEST ISZERO PUSH2 0x395 JUMPI PUSH2 0x357 PUSH1 0x8 PUSH1 0x0 DUP2 SLOAD DUP2 LT PUSH2 0x348 JUMPI PUSH2 0x347 PUSH2 0x25C8 JUMP JUMPDEST JUMPDEST SWAP1 PUSH1 0x0 MSTORE PUSH1 0x20 PUSH1 0x0 KECCAK256 ADD PUSH2 0x12FB JUMP JUMPDEST PUSH32 0x95A1F3A1DAFDD4C1AF344E3D7C69A72CBCE8A3F15FE1CF95A7F5BD23DF2E71A1 PUSH1 0x40 MLOAD PUSH2 0x384 SWAP1 PUSH2 0x2643 JUMP JUMPDEST PUSH1 0x40 MLOAD DUP1 SWAP2 SUB SWAP1 LOG1 PUSH1 0x1 SWAP1 POP PUSH2 0x3CF JUMP JUMPDEST PUSH32 0x66091B7DC2B097C8F60D5CD6AA99633B097F08D2EB1056F3E15361B22E0EA2BA PUSH1 0x40 MLOAD PUSH2 0x3C2 SWAP1 PUSH2 0x26AF JUMP JUMPDEST PUSH1 0x40 MLOAD DUP1 SWAP2 SUB SWAP1 LOG1 PUSH1 0x0 SWAP1 POP JUMPDEST SWAP3 SWAP2 POP POP JUMP JUMPDEST PUSH1 0x0 CALLER PUSH20 0xFFFFFFFFFFFFFFFFFFFFFFFFFFFFFFFFFFFFFFFF AND PUSH1 0x3 PUSH1 0x1 ADD PUSH1 0x0 SWAP1 SLOAD SWAP1 PUSH2 0x100 EXP SWAP1 DIV PUSH20 0xFFFFFFFFFFFFFFFFFFFFFFFFFFFFFFFFFFFFFFFF AND PUSH20 0xFFFFFFFFFFFFFFFFFFFFFFFFFFFFFFFFFFFFFFFF AND EQ PUSH2 0x46A JUMPI PUSH1 0x40 MLOAD PUSH32 0x8C379A000000000000000000000000000000000000000000000000000000000 DUP2 MSTORE PUSH1 0x4 ADD PUSH2 0x461 SWAP1 PUSH2 0x2741 JUMP JUMPDEST PUSH1 0x40 MLOAD DUP1 SWAP2 SUB SWAP1 REVERT JUMPDEST PUSH1 0x5 PUSH1 0x0 PUSH1 0x1 DUP1 ADD PUSH1 0x0 SWAP1 SLOAD SWAP1 PUSH2 0x100 EXP SWAP1 DIV PUSH20 0xFFFFFFFFFFFFFFFFFFFFFFFFFFFFFFFFFFFFFFFF AND PUSH20 0xFFFFFFFFFFFFFFFFFFFFFFFFFFFFFFFFFFFFFFFF AND PUSH20 0xFFFFFFFFFFFFFFFFFFFFFFFFFFFFFFFFFFFFFFFF AND DUP2 MSTORE PUSH1 0x20 ADD SWAP1 DUP2 MSTORE PUSH1 0x20 ADD PUSH1 0x0 KECCAK256 PUSH1 0x0 DUP1 DUP3 ADD PUSH1 0x0 PUSH2 0x4DE SWAP2 SWAP1 PUSH2 0x1C76 JUMP JUMPDEST PUSH1 0x1 DUP3 ADD PUSH1 0x0 PUSH2 0x100 EXP DUP2 SLOAD SWAP1 PUSH20 0xFFFFFFFFFFFFFFFFFFFFFFFFFFFFFFFFFFFFFFFF MUL NOT AND SWAP1 SSTORE PUSH1 0x1 DUP3 ADD PUSH1 0x14 PUSH2 0x100 EXP DUP2 SLOAD SWAP1 PUSH1 0xFF MUL NOT AND SWAP1 SSTORE POP POP PUSH2 0x527 DUP4 DUP4 PUSH1 0x0 PUSH2 0xF6C JUMP JUMPDEST PUSH1 0x1 PUSH1 0x0 DUP3 ADD MLOAD DUP2 PUSH1 0x0 ADD SWAP1 DUP1 MLOAD SWAP1 PUSH1 0x20 ADD SWAP1 PUSH2 0x545 SWAP3 SWAP2 SWAP1 PUSH2 0x1CB6 JUMP JUMPDEST POP PUSH1 0x20 DUP3 ADD MLOAD DUP2 PUSH1 0x1 ADD PUSH1 0x0 PUSH2 0x100 EXP DUP2 SLOAD DUP2 PUSH20 0xFFFFFFFFFFFFFFFFFFFFFFFFFFFFFFFFFFFFFFFF MUL NOT AND SWAP1 DUP4 PUSH20 0xFFFFFFFFFFFFFFFFFFFFFFFFFFFFFFFFFFFFFFFF AND MUL OR SWAP1 SSTORE POP PUSH1 0x40 DUP3 ADD MLOAD DUP2 PUSH1 0x1 ADD PUSH1 0x14 PUSH2 0x100 EXP DUP2 SLOAD DUP2 PUSH1 0xFF MUL NOT AND SWAP1 DUP4 ISZERO ISZERO MUL OR SWAP1 SSTORE POP SWAP1 POP POP PUSH2 0x5BB DUP3 PUSH1 0x1 PUSH2 0x1340 JUMP JUMPDEST POP PUSH1 0x1 SWAP1 POP SWAP3 SWAP2 POP POP JUMP JUMPDEST PUSH1 0x0 DUP1 PUSH1 0x0 SWAP1 SLOAD SWAP1 PUSH2 0x100 EXP SWAP1 DIV PUSH1 0xFF AND PUSH2 0x616 JUMPI PUSH1 0x40 MLOAD PUSH32 0x8C379A000000000000000000000000000000000000000000000000000000000 DUP2 MSTORE PUSH1 0x4 ADD PUSH2 0x60D SWAP1 PUSH2 0x2516 JUMP JUMPDEST PUSH1 0x40 MLOAD DUP1 SWAP2 SUB SWAP1 REVERT JUMPDEST CALLER PUSH20 0xFFFFFFFFFFFFFFFFFFFFFFFFFFFFFFFFFFFFFFFF AND PUSH1 0x1 DUP1 ADD PUSH1 0x0 SWAP1 SLOAD SWAP1 PUSH2 0x100 EXP SWAP1 DIV PUSH20 0xFFFFFFFFFFFFFFFFFFFFFFFFFFFFFFFFFFFFFFFF AND PUSH20 0xFFFFFFFFFFFFFFFFFFFFFFFFFFFFFFFFFFFFFFFF AND EQ DUP1 PUSH2 0x6C4 JUMPI POP CALLER PUSH20 0xFFFFFFFFFFFFFFFFFFFFFFFFFFFFFFFFFFFFFFFF AND PUSH1 0x3 PUSH1 0x1 ADD PUSH1 0x0 SWAP1 SLOAD SWAP1 PUSH2 0x100 EXP SWAP1 DIV PUSH20 0xFFFFFFFFFFFFFFFFFFFFFFFFFFFFFFFFFFFFFFFF AND PUSH20 0xFFFFFFFFFFFFFFFFFFFFFFFFFFFFFFFFFFFFFFFF AND EQ JUMPDEST PUSH2 0x703 JUMPI PUSH1 0x40 MLOAD PUSH32 0x8C379A000000000000000000000000000000000000000000000000000000000 DUP2 MSTORE PUSH1 0x4 ADD PUSH2 0x6FA SWAP1 PUSH2 0x27D3 JUMP JUMPDEST PUSH1 0x40 MLOAD DUP1 SWAP2 SUB SWAP1 REVERT JUMPDEST PUSH1 0x1 DUP1 ADD PUSH1 0x0 SWAP1 SLOAD SWAP1 PUSH2 0x100 EXP SWAP1 DIV PUSH20 0xFFFFFFFFFFFFFFFFFFFFFFFFFFFFFFFFFFFFFFFF AND SWAP1 POP SWAP1 JUMP JUMPDEST PUSH1 0x0 DUP1 PUSH1 0x0 SWAP1 SLOAD SWAP1 PUSH2 0x100 EXP SWAP1 DIV PUSH1 0xFF AND PUSH2 0x77D JUMPI PUSH1 0x40 MLOAD PUSH32 0x8C379A000000000000000000000000000000000000000000000000000000000 DUP2 MSTORE PUSH1 0x4 ADD PUSH2 0x774 SWAP1 PUSH2 0x2516 JUMP JUMPDEST PUSH1 0x40 MLOAD DUP1 SWAP2 SUB SWAP1 REVERT JUMPDEST CALLER PUSH20 0xFFFFFFFFFFFFFFFFFFFFFFFFFFFFFFFFFFFFFFFF AND PUSH1 0x1 DUP1 ADD PUSH1 0x0 SWAP1 SLOAD SWAP1 PUSH2 0x100 EXP SWAP1 DIV PUSH20 0xFFFFFFFFFFFFFFFFFFFFFFFFFFFFFFFFFFFFFFFF AND PUSH20 0xFFFFFFFFFFFFFFFFFFFFFFFFFFFFFFFFFFFFFFFF AND EQ DUP1 PUSH2 0x82B JUMPI POP CALLER PUSH20 0xFFFFFFFFFFFFFFFFFFFFFFFFFFFFFFFFFFFFFFFF AND PUSH1 0x3 PUSH1 0x1 ADD PUSH1 0x0 SWAP1 SLOAD SWAP1 PUSH2 0x100 EXP SWAP1 DIV PUSH20 0xFFFFFFFFFFFFFFFFFFFFFFFFFFFFFFFFFFFFFFFF AND PUSH20 0xFFFFFFFFFFFFFFFFFFFFFFFFFFFFFFFFFFFFFFFF AND EQ JUMPDEST PUSH2 0x86A JUMPI PUSH1 0x40 MLOAD PUSH32 0x8C379A000000000000000000000000000000000000000000000000000000000 DUP2 MSTORE PUSH1 0x4 ADD PUSH2 0x861 SWAP1 PUSH2 0x27D3 JUMP JUMPDEST PUSH1 0x40 MLOAD DUP1 SWAP2 SUB SWAP1 REVERT JUMPDEST PUSH1 0x3 PUSH1 0x1 ADD PUSH1 0x0 SWAP1 SLOAD SWAP1 PUSH2 0x100 EXP SWAP1 DIV PUSH20 0xFFFFFFFFFFFFFFFFFFFFFFFFFFFFFFFFFFFFFFFF AND SWAP1 POP SWAP1 JUMP JUMPDEST PUSH1 0x0 DUP1 PUSH1 0x0 SWAP1 SLOAD SWAP1 PUSH2 0x100 EXP SWAP1 DIV PUSH1 0xFF AND PUSH2 0x8E5 JUMPI PUSH1 0x40 MLOAD PUSH32 0x8C379A000000000000000000000000000000000000000000000000000000000 DUP2 MSTORE PUSH1 0x4 ADD PUSH2 0x8DC SWAP1 PUSH2 0x2516 JUMP JUMPDEST PUSH1 0x40 MLOAD DUP1 SWAP2 SUB SWAP1 REVERT JUMPDEST CALLER PUSH20 0xFFFFFFFFFFFFFFFFFFFFFFFFFFFFFFFFFFFFFFFF AND PUSH1 0x3 PUSH1 0x1 ADD PUSH1 0x0 SWAP1 SLOAD SWAP1 PUSH2 0x100 EXP SWAP1 DIV PUSH20 0xFFFFFFFFFFFFFFFFFFFFFFFFFFFFFFFFFFFFFFFF AND PUSH20 0xFFFFFFFFFFFFFFFFFFFFFFFFFFFFFFFFFFFFFFFF AND EQ PUSH2 0x978 JUMPI PUSH1 0x40 MLOAD PUSH32 0x8C379A000000000000000000000000000000000000000000000000000000000 DUP2 MSTORE PUSH1 0x4 ADD PUSH2 0x96F SWAP1 PUSH2 0x2741 JUMP JUMPDEST PUSH1 0x40 MLOAD DUP1 SWAP2 SUB SWAP1 REVERT JUMPDEST PUSH2 0x9EE DUP5 PUSH1 0x6 PUSH1 0x0 DUP2 SLOAD DUP2 LT PUSH2 0x991 JUMPI PUSH2 0x990 PUSH2 0x25C8 JUMP JUMPDEST JUMPDEST SWAP1 PUSH1 0x0 MSTORE PUSH1 0x20 PUSH1 0x0 KECCAK256 ADD PUSH1 0x40 MLOAD DUP1 PUSH1 0x40 ADD PUSH1 0x40 MSTORE SWAP1 DUP2 PUSH1 0x0 DUP3 ADD PUSH1 0x0 SWAP1 SLOAD SWAP1 PUSH2 0x100 EXP SWAP1 DIV PUSH1 0xFF AND PUSH1 0xFF AND PUSH1 0xFF AND DUP2 MSTORE PUSH1 0x20 ADD PUSH1 0x0 DUP3 ADD PUSH1 0x1 SWAP1 SLOAD SWAP1 PUSH2 0x100 EXP SWAP1 DIV PUSH1 0xFF AND PUSH1 0xFF AND PUSH1 0xFF AND DUP2 MSTORE POP POP PUSH2 0x1443 SWAP1 SWAP2 SWAP1 PUSH4 0xFFFFFFFF AND JUMP JUMPDEST DUP1 ISZERO PUSH2 0xA7E JUMPI POP PUSH2 0xA7D DUP4 PUSH1 0x7 PUSH1 0x0 DUP2 SLOAD DUP2 LT PUSH2 0xA0E JUMPI PUSH2 0xA0D PUSH2 0x25C8 JUMP JUMPDEST JUMPDEST SWAP1 PUSH1 0x0 MSTORE PUSH1 0x20 PUSH1 0x0 KECCAK256 ADD PUSH1 0x40 MLOAD DUP1 PUSH1 0x40 ADD PUSH1 0x40 MSTORE SWAP1 DUP2 PUSH1 0x0 DUP3 ADD PUSH1 0x0 SWAP1 SLOAD SWAP1 PUSH2 0x100 EXP SWAP1 DIV PUSH4 0xFFFFFFFF AND PUSH4 0xFFFFFFFF AND PUSH4 0xFFFFFFFF AND DUP2 MSTORE PUSH1 0x20 ADD PUSH1 0x0 DUP3 ADD PUSH1 0x4 SWAP1 SLOAD SWAP1 PUSH2 0x100 EXP SWAP1 DIV PUSH4 0xFFFFFFFF AND PUSH4 0xFFFFFFFF AND PUSH4 0xFFFFFFFF AND DUP2 MSTORE POP POP PUSH2 0x14CF SWAP1 SWAP2 SWAP1 PUSH4 0xFFFFFFFF AND JUMP JUMPDEST JUMPDEST DUP1 ISZERO PUSH2 0xAB7 JUMPI POP PUSH2 0xAB6 DUP3 PUSH1 0x8 PUSH1 0x0 DUP2 SLOAD DUP2 LT PUSH2 0xA9E JUMPI PUSH2 0xA9D PUSH2 0x25C8 JUMP JUMPDEST JUMPDEST SWAP1 PUSH1 0x0 MSTORE PUSH1 0x20 PUSH1 0x0 KECCAK256 ADD PUSH2 0x1579 SWAP1 SWAP2 SWAP1 PUSH4 0xFFFFFFFF AND JUMP JUMPDEST JUMPDEST ISZERO PUSH2 0xB2B JUMPI PUSH2 0xAED DUP3 PUSH1 0x9 PUSH1 0x0 DUP2 SLOAD DUP2 LT PUSH2 0xAD5 JUMPI PUSH2 0xAD4 PUSH2 0x25C8 JUMP JUMPDEST JUMPDEST SWAP1 PUSH1 0x0 MSTORE PUSH1 0x20 PUSH1 0x0 KECCAK256 ADD PUSH2 0x15F2 SWAP1 SWAP2 SWAP1 PUSH4 0xFFFFFFFF AND JUMP JUMPDEST PUSH32 0x95A1F3A1DAFDD4C1AF344E3D7C69A72CBCE8A3F15FE1CF95A7F5BD23DF2E71A1 PUSH1 0x40 MLOAD PUSH2 0xB1A SWAP1 PUSH2 0x2643 JUMP JUMPDEST PUSH1 0x40 MLOAD DUP1 SWAP2 SUB SWAP1 LOG1 PUSH1 0x1 SWAP1 POP PUSH2 0xB65 JUMP JUMPDEST PUSH32 0x66091B7DC2B097C8F60D5CD6AA99633B097F08D2EB1056F3E15361B22E0EA2BA PUSH1 0x40 MLOAD PUSH2 0xB58 SWAP1 PUSH2 0x26AF JUMP JUMPDEST PUSH1 0x40 MLOAD DUP1 SWAP2 SUB SWAP1 LOG1 PUSH1 0x0 SWAP1 POP JUMPDEST SWAP4 SWAP3 POP POP POP JUMP JUMPDEST PUSH1 0x0 DUP1 PUSH1 0x0 SWAP1 SLOAD SWAP1 PUSH2 0x100 EXP SWAP1 DIV PUSH1 0xFF AND PUSH2 0xBBC JUMPI PUSH1 0x40 MLOAD PUSH32 0x8C379A000000000000000000000000000000000000000000000000000000000 DUP2 MSTORE PUSH1 0x4 ADD PUSH2 0xBB3 SWAP1 PUSH2 0x2516 JUMP JUMPDEST PUSH1 0x40 MLOAD DUP1 SWAP2 SUB SWAP1 REVERT JUMPDEST CALLER PUSH20 0xFFFFFFFFFFFFFFFFFFFFFFFFFFFFFFFFFFFFFFFF AND PUSH1 0x1 DUP1 ADD PUSH1 0x0 SWAP1 SLOAD SWAP1 PUSH2 0x100 EXP SWAP1 DIV PUSH20 0xFFFFFFFFFFFFFFFFFFFFFFFFFFFFFFFFFFFFFFFF AND PUSH20 0xFFFFFFFFFFFFFFFFFFFFFFFFFFFFFFFFFFFFFFFF AND EQ PUSH2 0xC4E JUMPI PUSH1 0x40 MLOAD PUSH32 0x8C379A000000000000000000000000000000000000000000000000000000000 DUP2 MSTORE PUSH1 0x4 ADD PUSH2 0xC45 SWAP1 PUSH2 0x25A8 JUMP JUMPDEST PUSH1 0x40 MLOAD DUP1 SWAP2 SUB SWAP1 REVERT JUMPDEST PUSH1 0x0 ISZERO ISZERO PUSH1 0x1 DUP1 ADD PUSH1 0x14 SWAP1 SLOAD SWAP1 PUSH2 0x100 EXP SWAP1 DIV PUSH1 0xFF AND ISZERO ISZERO EQ PUSH2 0xCA6 JUMPI PUSH1 0x40 MLOAD PUSH32 0x8C379A000000000000000000000000000000000000000000000000000000000 DUP2 MSTORE PUSH1 0x4 ADD PUSH2 0xC9D SWAP1 PUSH2 0x283F JUMP JUMPDEST PUSH1 0x40 MLOAD DUP1 SWAP2 SUB SWAP1 REVERT JUMPDEST PUSH1 0x1 DUP1 PUSH1 0x1 ADD PUSH1 0x14 PUSH2 0x100 EXP DUP2 SLOAD DUP2 PUSH1 0xFF MUL NOT AND SWAP1 DUP4 ISZERO ISZERO MUL OR SWAP1 SSTORE POP PUSH2 0xCCE CALLER PUSH1 0x1 PUSH2 0x1340 JUMP JUMPDEST POP PUSH1 0x1 SWAP1 POP SWAP1 JUMP JUMPDEST PUSH2 0xCDE PUSH2 0x1D3C JUMP JUMPDEST PUSH1 0x0 DUP1 SLOAD SWAP1 PUSH2 0x100 EXP SWAP1 DIV PUSH1 0xFF AND PUSH2 0xD2B JUMPI PUSH1 0x40 MLOAD PUSH32 0x8C379A000000000000000000000000000000000000000000000000000000000 DUP2 MSTORE PUSH1 0x4 ADD PUSH2 0xD22 SWAP1 PUSH2 0x2516 JUMP JUMPDEST PUSH1 0x40 MLOAD DUP1 SWAP2 SUB SWAP1 REVERT JUMPDEST CALLER PUSH20 0xFFFFFFFFFFFFFFFFFFFFFFFFFFFFFFFFFFFFFFFF AND PUSH1 0x1 DUP1 ADD PUSH1 0x0 SWAP1 SLOAD SWAP1 PUSH2 0x100 EXP SWAP1 DIV PUSH20 0xFFFFFFFFFFFFFFFFFFFFFFFFFFFFFFFFFFFFFFFF AND PUSH20 0xFFFFFFFFFFFFFFFFFFFFFFFFFFFFFFFFFFFFFFFF AND EQ DUP1 PUSH2 0xDD9 JUMPI POP CALLER PUSH20 0xFFFFFFFFFFFFFFFFFFFFFFFFFFFFFFFFFFFFFFFF AND PUSH1 0x3 PUSH1 0x1 ADD PUSH1 0x0 SWAP1 SLOAD SWAP1 PUSH2 0x100 EXP SWAP1 DIV PUSH20 0xFFFFFFFFFFFFFFFFFFFFFFFFFFFFFFFFFFFFFFFF AND PUSH20 0xFFFFFFFFFFFFFFFFFFFFFFFFFFFFFFFFFFFFFFFF AND EQ JUMPDEST PUSH2 0xE18 JUMPI PUSH1 0x40 MLOAD PUSH32 0x8C379A000000000000000000000000000000000000000000000000000000000 DUP2 MSTORE PUSH1 0x4 ADD PUSH2 0xE0F SWAP1 PUSH2 0x27D3 JUMP JUMPDEST PUSH1 0x40 MLOAD DUP1 SWAP2 SUB SWAP1 REVERT JUMPDEST PUSH1 0x5 PUSH1 0x0 DUP4 PUSH20 0xFFFFFFFFFFFFFFFFFFFFFFFFFFFFFFFFFFFFFFFF AND PUSH20 0xFFFFFFFFFFFFFFFFFFFFFFFFFFFFFFFFFFFFFFFF AND DUP2 MSTORE PUSH1 0x20 ADD SWAP1 DUP2 MSTORE PUSH1 0x20 ADD PUSH1 0x0 KECCAK256 PUSH1 0x40 MLOAD DUP1 PUSH1 0x60 ADD PUSH1 0x40 MSTORE SWAP1 DUP2 PUSH1 0x0 DUP3 ADD DUP1 SLOAD PUSH2 0xE72 SWAP1 PUSH2 0x288E JUMP JUMPDEST DUP1 PUSH1 0x1F ADD PUSH1 0x20 DUP1 SWAP2 DIV MUL PUSH1 0x20 ADD PUSH1 0x40 MLOAD SWAP1 DUP2 ADD PUSH1 0x40 MSTORE DUP1 SWAP3 SWAP2 SWAP1 DUP2 DUP2 MSTORE PUSH1 0x20 ADD DUP3 DUP1 SLOAD PUSH2 0xE9E SWAP1 PUSH2 0x288E JUMP JUMPDEST DUP1 ISZERO PUSH2 0xEEB JUMPI DUP1 PUSH1 0x1F LT PUSH2 0xEC0 JUMPI PUSH2 0x100 DUP1 DUP4 SLOAD DIV MUL DUP4 MSTORE SWAP2 PUSH1 0x20 ADD SWAP2 PUSH2 0xEEB JUMP JUMPDEST DUP3 ADD SWAP2 SWAP1 PUSH1 0x0 MSTORE PUSH1 0x20 PUSH1 0x0 KECCAK256 SWAP1 JUMPDEST DUP2 SLOAD DUP2 MSTORE SWAP1 PUSH1 0x1 ADD SWAP1 PUSH1 0x20 ADD DUP1 DUP4 GT PUSH2 0xECE JUMPI DUP3 SWAP1 SUB PUSH1 0x1F AND DUP3 ADD SWAP2 JUMPDEST POP POP POP POP POP DUP2 MSTORE PUSH1 0x20 ADD PUSH1 0x1 DUP3 ADD PUSH1 0x0 SWAP1 SLOAD SWAP1 PUSH2 0x100 EXP SWAP1 DIV PUSH20 0xFFFFFFFFFFFFFFFFFFFFFFFFFFFFFFFFFFFFFFFF AND PUSH20 0xFFFFFFFFFFFFFFFFFFFFFFFFFFFFFFFFFFFFFFFF AND PUSH20 0xFFFFFFFFFFFFFFFFFFFFFFFFFFFFFFFFFFFFFFFF AND DUP2 MSTORE PUSH1 0x20 ADD PUSH1 0x1 DUP3 ADD PUSH1 0x14 SWAP1 SLOAD SWAP1 PUSH2 0x100 EXP SWAP1 DIV PUSH1 0xFF AND ISZERO ISZERO ISZERO ISZERO DUP2 MSTORE POP POP SWAP1 POP SWAP2 SWAP1 POP JUMP JUMPDEST PUSH2 0xF74 PUSH2 0x1D3C JUMP JUMPDEST PUSH1 0x40 MLOAD DUP1 PUSH1 0x60 ADD PUSH1 0x40 MSTORE DUP1 DUP6 DUP2 MSTORE PUSH1 0x20 ADD DUP5 PUSH20 0xFFFFFFFFFFFFFFFFFFFFFFFFFFFFFFFFFFFFFFFF AND DUP2 MSTORE PUSH1 0x20 ADD DUP4 ISZERO ISZERO DUP2 MSTORE POP SWAP1 POP SWAP4 SWAP3 POP POP POP JUMP JUMPDEST PUSH2 0xFB8 PUSH2 0x1D75 JUMP JUMPDEST DUP3 DUP3 PUSH1 0x0 PUSH1 0xFF AND DUP3 PUSH1 0xFF AND LT ISZERO DUP1 ISZERO PUSH2 0xFD8 JUMPI POP PUSH1 0x6 PUSH1 0xFF AND DUP3 PUSH1 0xFF AND GT ISZERO JUMPDEST PUSH2 0x1017 JUMPI PUSH1 0x40 MLOAD PUSH32 0x8C379A000000000000000000000000000000000000000000000000000000000 DUP2 MSTORE PUSH1 0x4 ADD PUSH2 0x100E SWAP1 PUSH2 0x2931 JUMP JUMPDEST PUSH1 0x40 MLOAD DUP1 SWAP2 SUB SWAP1 REVERT JUMPDEST PUSH1 0x0 PUSH1 0xFF AND DUP2 PUSH1 0xFF AND LT ISZERO DUP1 ISZERO PUSH2 0x1035 JUMPI POP PUSH1 0x6 PUSH1 0xFF AND DUP2 PUSH1 0xFF AND GT ISZERO JUMPDEST PUSH2 0x1074 JUMPI PUSH1 0x40 MLOAD PUSH32 0x8C379A000000000000000000000000000000000000000000000000000000000 DUP2 MSTORE PUSH1 0x4 ADD PUSH2 0x106B SWAP1 PUSH2 0x29C3 JUMP JUMPDEST PUSH1 0x40 MLOAD DUP1 SWAP2 SUB SWAP1 REVERT JUMPDEST PUSH1 0x40 MLOAD DUP1 PUSH1 0x40 ADD PUSH1 0x40 MSTORE DUP1 DUP7 PUSH1 0xFF AND DUP2 MSTORE PUSH1 0x20 ADD DUP6 PUSH1 0xFF AND DUP2 MSTORE POP SWAP3 POP POP POP SWAP3 SWAP2 POP POP JUMP JUMPDEST PUSH2 0x10A1 PUSH2 0x1D95 JUMP JUMPDEST DUP3 DUP3 PUSH1 0x0 PUSH4 0xFFFFFFFF AND DUP3 PUSH4 0xFFFFFFFF AND LT ISZERO DUP1 ISZERO PUSH2 0x10CF JUMPI POP PUSH3 0x1517F PUSH4 0xFFFFFFFF AND DUP3 PUSH4 0xFFFFFFFF AND GT ISZERO JUMPDEST PUSH2 0x110E JUMPI PUSH1 0x40 MLOAD PUSH32 0x8C379A000000000000000000000000000000000000000000000000000000000 DUP2 MSTORE PUSH1 0x4 ADD PUSH2 0x1105 SWAP1 PUSH2 0x2931 JUMP JUMPDEST PUSH1 0x40 MLOAD DUP1 SWAP2 SUB SWAP1 REVERT JUMPDEST PUSH1 0x0 PUSH4 0xFFFFFFFF AND DUP2 PUSH4 0xFFFFFFFF AND LT ISZERO DUP1 ISZERO PUSH2 0x113A JUMPI POP PUSH3 0x1517F PUSH4 0xFFFFFFFF AND DUP2 PUSH4 0xFFFFFFFF AND GT ISZERO JUMPDEST PUSH2 0x1179 JUMPI PUSH1 0x40 MLOAD PUSH32 0x8C379A000000000000000000000000000000000000000000000000000000000 DUP2 MSTORE PUSH1 0x4 ADD PUSH2 0x1170 SWAP1 PUSH2 0x29C3 JUMP JUMPDEST PUSH1 0x40 MLOAD DUP1 SWAP2 SUB SWAP1 REVERT JUMPDEST PUSH1 0x40 MLOAD DUP1 PUSH1 0x40 ADD PUSH1 0x40 MSTORE DUP1 DUP7 PUSH4 0xFFFFFFFF AND DUP2 MSTORE PUSH1 0x20 ADD DUP6 PUSH4 0xFFFFFFFF AND DUP2 MSTORE POP SWAP3 POP POP POP SWAP3 SWAP2 POP POP JUMP JUMPDEST PUSH2 0x11AC PUSH2 0x1DBB JUMP JUMPDEST PUSH1 0x0 PUSH1 0x4 PUSH1 0xFF AND DUP4 PUSH1 0xFF AND GT PUSH2 0x11CC JUMPI PUSH2 0x11C5 DUP4 PUSH2 0x165D JUMP JUMPDEST SWAP1 POP PUSH2 0x11D1 JUMP JUMPDEST PUSH1 0x1 SWAP1 POP JUMPDEST PUSH1 0x40 MLOAD DUP1 PUSH1 0xA0 ADD PUSH1 0x40 MSTORE DUP1 DUP6 PUSH4 0xFFFFFFFF AND DUP2 MSTORE PUSH1 0x20 ADD DUP5 PUSH1 0xFF AND DUP2 MSTORE PUSH1 0x20 ADD DUP3 PUSH4 0xFFFFFFFF AND DUP2 MSTORE PUSH1 0x20 ADD DUP6 PUSH4 0xFFFFFFFF AND DUP2 MSTORE PUSH1 0x20 ADD PUSH1 0x0 PUSH4 0xFFFFFFFF AND DUP2 MSTORE POP SWAP2 POP POP SWAP3 SWAP2 POP POP JUMP JUMPDEST PUSH2 0x1225 PUSH2 0x1E05 JUMP JUMPDEST PUSH1 0x40 MLOAD DUP1 PUSH1 0x40 ADD PUSH1 0x40 MSTORE DUP1 PUSH1 0x0 PUSH4 0xFFFFFFFF AND DUP2 MSTORE PUSH1 0x20 ADD DUP4 PUSH4 0xFFFFFFFF AND DUP2 MSTORE POP SWAP1 POP SWAP2 SWAP1 POP JUMP JUMPDEST PUSH2 0x1256 PUSH2 0x1E2B JUMP JUMPDEST PUSH1 0x40 MLOAD DUP1 PUSH1 0x20 ADD PUSH1 0x40 MSTORE DUP1 DUP4 DUP2 MSTORE POP SWAP1 POP SWAP2 SWAP1 POP JUMP JUMPDEST PUSH1 0x0 DUP2 PUSH1 0x0 PUSH2 0x1280 DUP3 PUSH4 0xFFFFFFFF AND PUSH2 0x1714 JUMP JUMPDEST SWAP1 POP PUSH1 0xA DUP2 MLOAD GT ISZERO PUSH2 0x1291 JUMPI PUSH1 0x0 DUP1 REVERT JUMPDEST PUSH1 0x0 DUP6 PUSH1 0x0 ADD MLOAD PUSH4 0xFFFFFFFF AND GT PUSH2 0x12DE JUMPI PUSH1 0x40 MLOAD PUSH32 0x8C379A000000000000000000000000000000000000000000000000000000000 DUP2 MSTORE PUSH1 0x4 ADD PUSH2 0x12D5 SWAP1 PUSH2 0x2A55 JUMP JUMPDEST PUSH1 0x40 MLOAD DUP1 SWAP2 SUB SWAP1 REVERT JUMPDEST DUP5 PUSH1 0x0 ADD MLOAD PUSH4 0xFFFFFFFF AND DUP5 PUSH4 0xFFFFFFFF AND GT SWAP3 POP POP POP SWAP3 SWAP2 POP POP JUMP JUMPDEST PUSH1 0x1 DUP2 PUSH1 0x0 ADD PUSH1 0x9 DUP3 DUP3 DUP3 SWAP1 SLOAD SWAP1 PUSH2 0x100 EXP SWAP1 DIV PUSH4 0xFFFFFFFF AND PUSH2 0x131F SWAP2 SWAP1 PUSH2 0x2AA4 JUMP JUMPDEST SWAP3 POP PUSH2 0x100 EXP DUP2 SLOAD DUP2 PUSH4 0xFFFFFFFF MUL NOT AND SWAP1 DUP4 PUSH4 0xFFFFFFFF AND MUL OR SWAP1 SSTORE POP POP JUMP JUMPDEST PUSH1 0x0 DUP2 PUSH1 0x5 PUSH1 0x0 DUP6 PUSH20 0xFFFFFFFFFFFFFFFFFFFFFFFFFFFFFFFFFFFFFFFF AND PUSH20 0xFFFFFFFFFFFFFFFFFFFFFFFFFFFFFFFFFFFFFFFF AND DUP2 MSTORE PUSH1 0x20 ADD SWAP1 DUP2 MSTORE PUSH1 0x20 ADD PUSH1 0x0 KECCAK256 PUSH1 0x0 DUP3 ADD DUP2 PUSH1 0x0 ADD SWAP1 DUP1 SLOAD PUSH2 0x1396 SWAP1 PUSH2 0x288E JUMP JUMPDEST PUSH2 0x13A1 SWAP3 SWAP2 SWAP1 PUSH2 0x1E3E JUMP JUMPDEST POP PUSH1 0x1 DUP3 ADD PUSH1 0x0 SWAP1 SLOAD SWAP1 PUSH2 0x100 EXP SWAP1 DIV PUSH20 0xFFFFFFFFFFFFFFFFFFFFFFFFFFFFFFFFFFFFFFFF AND DUP2 PUSH1 0x1 ADD PUSH1 0x0 PUSH2 0x100 EXP DUP2 SLOAD DUP2 PUSH20 0xFFFFFFFFFFFFFFFFFFFFFFFFFFFFFFFFFFFFFFFF MUL NOT AND SWAP1 DUP4 PUSH20 0xFFFFFFFFFFFFFFFFFFFFFFFFFFFFFFFFFFFFFFFF AND MUL OR SWAP1 SSTORE POP PUSH1 0x1 DUP3 ADD PUSH1 0x14 SWAP1 SLOAD SWAP1 PUSH2 0x100 EXP SWAP1 DIV PUSH1 0xFF AND DUP2 PUSH1 0x1 ADD PUSH1 0x14 PUSH2 0x100 EXP DUP2 SLOAD DUP2 PUSH1 0xFF MUL NOT AND SWAP1 DUP4 ISZERO ISZERO MUL OR SWAP1 SSTORE POP SWAP1 POP POP PUSH1 0x1 SWAP1 POP SWAP3 SWAP2 POP POP JUMP JUMPDEST PUSH1 0x0 DUP3 PUSH1 0x20 ADD MLOAD PUSH1 0xFF AND DUP4 PUSH1 0x0 ADD MLOAD PUSH1 0xFF AND LT ISZERO PUSH2 0x1492 JUMPI DUP3 PUSH1 0x0 ADD MLOAD PUSH1 0xFF AND DUP3 PUSH1 0xFF AND LT ISZERO DUP1 ISZERO PUSH2 0x147F JUMPI POP DUP3 PUSH1 0x20 ADD MLOAD PUSH1 0xFF AND DUP3 PUSH1 0xFF AND GT ISZERO JUMPDEST ISZERO PUSH2 0x148D JUMPI PUSH1 0x1 SWAP1 POP PUSH2 0x14C9 JUMP JUMPDEST PUSH2 0x14C4 JUMP JUMPDEST DUP3 PUSH1 0x0 ADD MLOAD PUSH1 0xFF AND DUP3 PUSH1 0xFF AND LT ISZERO DUP1 PUSH2 0x14B5 JUMPI POP DUP3 PUSH1 0x20 ADD MLOAD PUSH1 0xFF AND DUP3 PUSH1 0xFF AND GT ISZERO JUMPDEST ISZERO PUSH2 0x14C3 JUMPI PUSH1 0x1 SWAP1 POP PUSH2 0x14C9 JUMP JUMPDEST JUMPDEST PUSH1 0x0 SWAP1 POP JUMPDEST SWAP3 SWAP2 POP POP JUMP JUMPDEST PUSH1 0x0 DUP3 PUSH1 0x20 ADD MLOAD PUSH4 0xFFFFFFFF AND DUP4 PUSH1 0x0 ADD MLOAD PUSH4 0xFFFFFFFF AND LT ISZERO PUSH2 0x1530 JUMPI DUP3 PUSH1 0x0 ADD MLOAD PUSH4 0xFFFFFFFF AND DUP3 PUSH4 0xFFFFFFFF AND LT ISZERO DUP1 ISZERO PUSH2 0x151D JUMPI POP DUP3 PUSH1 0x20 ADD MLOAD PUSH4 0xFFFFFFFF AND DUP3 PUSH4 0xFFFFFFFF AND GT ISZERO JUMPDEST ISZERO PUSH2 0x152B JUMPI PUSH1 0x1 SWAP1 POP PUSH2 0x1573 JUMP JUMPDEST PUSH2 0x156E JUMP JUMPDEST DUP3 PUSH1 0x0 ADD MLOAD PUSH4 0xFFFFFFFF AND DUP3 PUSH4 0xFFFFFFFF AND LT ISZERO DUP1 PUSH2 0x155F JUMPI POP DUP3 PUSH1 0x20 ADD MLOAD PUSH4 0xFFFFFFFF AND DUP3 PUSH4 0xFFFFFFFF AND GT ISZERO JUMPDEST ISZERO PUSH2 0x156D JUMPI PUSH1 0x1 SWAP1 POP PUSH2 0x1573 JUMP JUMPDEST JUMPDEST PUSH1 0x0 SWAP1 POP JUMPDEST SWAP3 SWAP2 POP POP JUMP JUMPDEST PUSH1 0x0 PUSH2 0x15AB DUP4 PUSH1 0x0 ADD PUSH1 0x4 SWAP1 SLOAD SWAP1 PUSH2 0x100 EXP SWAP1 DIV PUSH1 0xFF AND DUP5 PUSH1 0x0 ADD PUSH1 0xD SWAP1 SLOAD SWAP1 PUSH2 0x100 EXP SWAP1 DIV PUSH4 0xFFFFFFFF AND DUP5 PUSH2 0x1874 JUMP JUMPDEST ISZERO PUSH2 0x15BB JUMPI PUSH2 0x15BA DUP4 DUP4 PUSH2 0x1939 JUMP JUMPDEST JUMPDEST PUSH1 0x0 DUP4 PUSH1 0x0 ADD PUSH1 0x9 SWAP1 SLOAD SWAP1 PUSH2 0x100 EXP SWAP1 DIV PUSH4 0xFFFFFFFF AND PUSH4 0xFFFFFFFF AND GT ISZERO PUSH2 0x15E7 JUMPI PUSH1 0x1 SWAP1 POP PUSH2 0x15EC JUMP JUMPDEST PUSH1 0x0 SWAP1 POP JUMPDEST SWAP3 SWAP2 POP POP JUMP JUMPDEST DUP1 PUSH1 0x0 PUSH2 0x1604 DUP3 PUSH4 0xFFFFFFFF AND PUSH2 0x1714 JUMP JUMPDEST SWAP1 POP PUSH1 0xA DUP2 MLOAD GT ISZERO PUSH2 0x1615 JUMPI PUSH1 0x0 DUP1 REVERT JUMPDEST DUP4 PUSH1 0x0 ADD PUSH1 0x4 SWAP1 SLOAD SWAP1 PUSH2 0x100 EXP SWAP1 DIV PUSH4 0xFFFFFFFF AND DUP4 PUSH2 0x1635 SWAP2 SWAP1 PUSH2 0x2AD8 JUMP JUMPDEST DUP5 PUSH1 0x0 ADD PUSH1 0x0 PUSH2 0x100 EXP DUP2 SLOAD DUP2 PUSH4 0xFFFFFFFF MUL NOT AND SWAP1 DUP4 PUSH4 0xFFFFFFFF AND MUL OR SWAP1 SSTORE POP POP POP POP POP JUMP JUMPDEST PUSH1 0x0 PUSH1 0x4 PUSH1 0xFF AND DUP3 PUSH1 0xFF AND GT ISZERO PUSH2 0x16A9 JUMPI PUSH1 0x40 MLOAD PUSH32 0x8C379A000000000000000000000000000000000000000000000000000000000 DUP2 MSTORE PUSH1 0x4 ADD PUSH2 0x16A0 SWAP1 PUSH2 0x2B84 JUMP JUMPDEST PUSH1 0x40 MLOAD DUP1 SWAP2 SUB SWAP1 REVERT JUMPDEST PUSH1 0x0 PUSH1 0xFF AND DUP3 PUSH1 0xFF AND SUB PUSH2 0x16C0 JUMPI PUSH1 0x1 SWAP1 POP PUSH2 0x170F JUMP JUMPDEST PUSH1 0x1 PUSH1 0xFF AND DUP3 PUSH1 0xFF AND SUB PUSH2 0x16D7 JUMPI PUSH1 0x3C SWAP1 POP PUSH2 0x170F JUMP JUMPDEST PUSH1 0x2 PUSH1 0xFF AND DUP3 PUSH1 0xFF AND SUB PUSH2 0x16EF JUMPI PUSH2 0xE10 SWAP1 POP PUSH2 0x170F JUMP JUMPDEST PUSH1 0x3 PUSH1 0xFF AND DUP3 PUSH1 0xFF AND SUB PUSH2 0x1708 JUMPI PUSH3 0x15180 SWAP1 POP PUSH2 0x170F JUMP JUMPDEST PUSH3 0x93A80 SWAP1 POP JUMPDEST SWAP2 SWAP1 POP JUMP JUMPDEST PUSH1 0x60 PUSH1 0x0 DUP3 SUB PUSH2 0x175B JUMPI PUSH1 0x40 MLOAD DUP1 PUSH1 0x40 ADD PUSH1 0x40 MSTORE DUP1 PUSH1 0x1 DUP2 MSTORE PUSH1 0x20 ADD PUSH32 0x3000000000000000000000000000000000000000000000000000000000000000 DUP2 MSTORE POP SWAP1 POP PUSH2 0x186F JUMP JUMPDEST PUSH1 0x0 DUP3 SWAP1 POP PUSH1 0x0 JUMPDEST PUSH1 0x0 DUP3 EQ PUSH2 0x178D JUMPI DUP1 DUP1 PUSH2 0x1776 SWAP1 PUSH2 0x2BAE JUMP JUMPDEST SWAP2 POP POP PUSH1 0xA DUP3 PUSH2 0x1786 SWAP2 SWAP1 PUSH2 0x2C25 JUMP JUMPDEST SWAP2 POP PUSH2 0x1763 JUMP JUMPDEST PUSH1 0x0 DUP2 PUSH8 0xFFFFFFFFFFFFFFFF DUP2 GT ISZERO PUSH2 0x17A9 JUMPI PUSH2 0x17A8 PUSH2 0x1F4E JUMP JUMPDEST JUMPDEST PUSH1 0x40 MLOAD SWAP1 DUP1 DUP3 MSTORE DUP1 PUSH1 0x1F ADD PUSH1 0x1F NOT AND PUSH1 0x20 ADD DUP3 ADD PUSH1 0x40 MSTORE DUP1 ISZERO PUSH2 0x17DB JUMPI DUP2 PUSH1 0x20 ADD PUSH1 0x1 DUP3 MUL DUP1 CALLDATASIZE DUP4 CALLDATACOPY DUP1 DUP3 ADD SWAP2 POP POP SWAP1 POP JUMPDEST POP SWAP1 POP JUMPDEST PUSH1 0x0 DUP6 EQ PUSH2 0x1868 JUMPI PUSH1 0x1 DUP3 PUSH2 0x17F4 SWAP2 SWAP1 PUSH2 0x2C56 JUMP JUMPDEST SWAP2 POP PUSH1 0xA DUP6 PUSH2 0x1803 SWAP2 SWAP1 PUSH2 0x2C8A JUMP JUMPDEST PUSH1 0x30 PUSH2 0x180F SWAP2 SWAP1 PUSH2 0x2CBB JUMP JUMPDEST PUSH1 0xF8 SHL DUP2 DUP4 DUP2 MLOAD DUP2 LT PUSH2 0x1825 JUMPI PUSH2 0x1824 PUSH2 0x25C8 JUMP JUMPDEST JUMPDEST PUSH1 0x20 ADD ADD SWAP1 PUSH31 0xFFFFFFFFFFFFFFFFFFFFFFFFFFFFFFFFFFFFFFFFFFFFFFFFFFFFFFFFFFFFFF NOT AND SWAP1 DUP2 PUSH1 0x0 BYTE SWAP1 MSTORE8 POP PUSH1 0xA DUP6 PUSH2 0x1861 SWAP2 SWAP1 PUSH2 0x2C25 JUMP JUMPDEST SWAP5 POP PUSH2 0x17DF JUMP JUMPDEST DUP1 SWAP4 POP POP POP POP JUMPDEST SWAP2 SWAP1 POP JUMP JUMPDEST PUSH1 0x0 DUP1 DUP5 SWAP1 POP PUSH1 0x4 PUSH1 0xFF AND DUP2 PUSH1 0xFF AND GT PUSH2 0x18A0 JUMPI DUP4 PUSH4 0xFFFFFFFF AND DUP4 PUSH4 0xFFFFFFFF AND LT ISZERO SWAP2 POP POP PUSH2 0x1932 JUMP JUMPDEST PUSH1 0x5 PUSH1 0xFF AND DUP2 PUSH1 0xFF AND SUB PUSH2 0x1908 JUMPI PUSH1 0x0 PUSH2 0x18BF DUP5 PUSH4 0xFFFFFFFF AND PUSH2 0x19C6 JUMP JUMPDEST POP SWAP2 POP POP PUSH1 0xD DUP6 PUSH4 0xFFFFFFFF AND EQ DUP1 ISZERO PUSH2 0x18DF JUMPI POP PUSH1 0x1 DUP2 PUSH4 0xFFFFFFFF AND EQ JUMPDEST ISZERO PUSH2 0x18EF JUMPI PUSH1 0x1 SWAP3 POP POP POP PUSH2 0x1932 JUMP JUMPDEST DUP5 PUSH4 0xFFFFFFFF AND DUP2 PUSH4 0xFFFFFFFF AND LT ISZERO SWAP3 POP POP POP PUSH2 0x1932 JUMP JUMPDEST PUSH1 0x0 PUSH2 0x1919 DUP5 PUSH4 0xFFFFFFFF AND PUSH2 0x19C6 JUMP JUMPDEST POP POP SWAP1 POP DUP5 PUSH4 0xFFFFFFFF AND DUP2 PUSH4 0xFFFFFFFF AND LT ISZERO SWAP3 POP POP POP JUMPDEST SWAP4 SWAP3 POP POP POP JUMP JUMPDEST DUP2 PUSH1 0x0 ADD PUSH1 0x0 SWAP1 SLOAD SWAP1 PUSH2 0x100 EXP SWAP1 DIV PUSH4 0xFFFFFFFF AND DUP3 PUSH1 0x0 ADD PUSH1 0x9 PUSH2 0x100 EXP DUP2 SLOAD DUP2 PUSH4 0xFFFFFFFF MUL NOT AND SWAP1 DUP4 PUSH4 0xFFFFFFFF AND MUL OR SWAP1 SSTORE POP PUSH2 0x19A0 DUP3 PUSH1 0x0 ADD PUSH1 0x5 SWAP1 SLOAD SWAP1 PUSH2 0x100 EXP SWAP1 DIV PUSH4 0xFFFFFFFF AND DUP4 PUSH1 0x0 ADD PUSH1 0x4 SWAP1 SLOAD SWAP1 PUSH2 0x100 EXP SWAP1 DIV PUSH1 0xFF AND DUP4 PUSH2 0x1B79 JUMP JUMPDEST DUP3 PUSH1 0x0 ADD PUSH1 0xD PUSH2 0x100 EXP DUP2 SLOAD DUP2 PUSH4 0xFFFFFFFF MUL NOT AND SWAP1 DUP4 PUSH4 0xFFFFFFFF AND MUL OR SWAP1 SSTORE POP POP POP JUMP JUMPDEST PUSH1 0x0 DUP1 PUSH1 0x0 DUP1 PUSH3 0x15180 PUSH4 0xFFFFFFFF AND DUP6 PUSH2 0x19E1 SWAP2 SWAP1 PUSH2 0x2C25 JUMP JUMPDEST SWAP1 POP PUSH1 0x0 PUSH3 0x253D8C PUSH3 0x10BD9 DUP4 PUSH2 0x19F8 SWAP2 SWAP1 PUSH2 0x2AD8 JUMP JUMPDEST PUSH2 0x1A02 SWAP2 SWAP1 PUSH2 0x2AD8 JUMP JUMPDEST SWAP1 POP PUSH1 0x0 PUSH3 0x23AB1 DUP3 PUSH1 0x4 PUSH2 0x1A17 SWAP2 SWAP1 PUSH2 0x2D11 JUMP JUMPDEST PUSH2 0x1A21 SWAP2 SWAP1 PUSH2 0x2D4F JUMP JUMPDEST SWAP1 POP PUSH1 0x4 PUSH1 0x3 DUP3 PUSH3 0x23AB1 PUSH2 0x1A36 SWAP2 SWAP1 PUSH2 0x2D11 JUMP JUMPDEST PUSH2 0x1A40 SWAP2 SWAP1 PUSH2 0x2AD8 JUMP JUMPDEST PUSH2 0x1A4A SWAP2 SWAP1 PUSH2 0x2D4F JUMP JUMPDEST DUP3 PUSH2 0x1A55 SWAP2 SWAP1 PUSH2 0x2AA4 JUMP JUMPDEST SWAP2 POP PUSH1 0x0 PUSH3 0x164B09 PUSH1 0x1 DUP5 PUSH2 0x1A6A SWAP2 SWAP1 PUSH2 0x2AD8 JUMP JUMPDEST PUSH2 0xFA0 PUSH2 0x1A77 SWAP2 SWAP1 PUSH2 0x2D11 JUMP JUMPDEST PUSH2 0x1A81 SWAP2 SWAP1 PUSH2 0x2D4F JUMP JUMPDEST SWAP1 POP PUSH1 0x1F PUSH1 0x4 DUP3 PUSH2 0x5B5 PUSH2 0x1A95 SWAP2 SWAP1 PUSH2 0x2D11 JUMP JUMPDEST PUSH2 0x1A9F SWAP2 SWAP1 PUSH2 0x2D4F JUMP JUMPDEST DUP5 PUSH2 0x1AAA SWAP2 SWAP1 PUSH2 0x2AA4 JUMP JUMPDEST PUSH2 0x1AB4 SWAP2 SWAP1 PUSH2 0x2AD8 JUMP JUMPDEST SWAP3 POP PUSH1 0x0 PUSH2 0x98F DUP5 PUSH1 0x50 PUSH2 0x1AC8 SWAP2 SWAP1 PUSH2 0x2D11 JUMP JUMPDEST PUSH2 0x1AD2 SWAP2 SWAP1 PUSH2 0x2D4F JUMP JUMPDEST SWAP1 POP PUSH1 0x0 PUSH1 0x50 DUP3 PUSH2 0x98F PUSH2 0x1AE6 SWAP2 SWAP1 PUSH2 0x2D11 JUMP JUMPDEST PUSH2 0x1AF0 SWAP2 SWAP1 PUSH2 0x2D4F JUMP JUMPDEST DUP6 PUSH2 0x1AFB SWAP2 SWAP1 PUSH2 0x2AA4 JUMP JUMPDEST SWAP1 POP PUSH1 0xB DUP3 PUSH2 0x1B0A SWAP2 SWAP1 PUSH2 0x2D4F JUMP JUMPDEST SWAP5 POP DUP5 PUSH1 0xC PUSH2 0x1B19 SWAP2 SWAP1 PUSH2 0x2D11 JUMP JUMPDEST PUSH1 0x2 DUP4 PUSH2 0x1B26 SWAP2 SWAP1 PUSH2 0x2AD8 JUMP JUMPDEST PUSH2 0x1B30 SWAP2 SWAP1 PUSH2 0x2AA4 JUMP JUMPDEST SWAP2 POP DUP5 DUP4 PUSH1 0x31 DUP7 PUSH2 0x1B41 SWAP2 SWAP1 PUSH2 0x2AA4 JUMP JUMPDEST PUSH1 0x64 PUSH2 0x1B4D SWAP2 SWAP1 PUSH2 0x2D11 JUMP JUMPDEST PUSH2 0x1B57 SWAP2 SWAP1 PUSH2 0x2AD8 JUMP JUMPDEST PUSH2 0x1B61 SWAP2 SWAP1 PUSH2 0x2AD8 JUMP JUMPDEST SWAP3 POP DUP3 SWAP9 POP DUP2 SWAP8 POP DUP1 SWAP7 POP POP POP POP POP POP POP SWAP2 SWAP4 SWAP1 SWAP3 POP JUMP JUMPDEST PUSH1 0x0 PUSH1 0x4 PUSH1 0xFF AND DUP4 PUSH1 0xFF AND GT PUSH2 0x1B9B JUMPI PUSH2 0x1B94 DUP4 DUP4 DUP7 PUSH2 0x1C0C JUMP JUMPDEST SWAP1 POP PUSH2 0x1C05 JUMP JUMPDEST PUSH1 0x5 PUSH1 0xFF AND DUP4 PUSH1 0xFF AND SUB PUSH2 0x1BD9 JUMPI PUSH1 0x0 PUSH2 0x1BBA DUP4 PUSH4 0xFFFFFFFF AND PUSH2 0x19C6 JUMP JUMPDEST POP PUSH4 0xFFFFFFFF AND SWAP2 POP POP PUSH1 0x1 DUP2 PUSH2 0x1BD1 SWAP2 SWAP1 PUSH2 0x2CBB JUMP JUMPDEST SWAP2 POP POP PUSH2 0x1C05 JUMP JUMPDEST PUSH1 0x0 PUSH2 0x1BEA DUP4 PUSH4 0xFFFFFFFF AND PUSH2 0x19C6 JUMP JUMPDEST POP POP PUSH4 0xFFFFFFFF AND SWAP1 POP PUSH1 0x1 DUP2 PUSH2 0x1C01 SWAP2 SWAP1 PUSH2 0x2CBB JUMP JUMPDEST SWAP2 POP POP JUMPDEST SWAP4 SWAP3 POP POP POP JUMP JUMPDEST PUSH1 0x0 DUP1 DUP3 DUP5 PUSH2 0x1C1B SWAP2 SWAP1 PUSH2 0x2D80 JUMP JUMPDEST SWAP1 POP PUSH1 0x0 DUP2 DUP5 PUSH2 0x1C2B SWAP2 SWAP1 PUSH2 0x2AA4 JUMP JUMPDEST SWAP1 POP PUSH1 0x4 PUSH1 0xFF AND DUP7 PUSH1 0xFF AND SUB PUSH2 0x1C5E JUMPI PUSH3 0x3F480 DUP2 DUP7 PUSH2 0x1C4B SWAP2 SWAP1 PUSH2 0x2AD8 JUMP JUMPDEST PUSH2 0x1C55 SWAP2 SWAP1 PUSH2 0x2AD8 JUMP JUMPDEST SWAP3 POP POP POP PUSH2 0x1C6F JUMP JUMPDEST DUP1 DUP6 PUSH2 0x1C6A SWAP2 SWAP1 PUSH2 0x2AD8 JUMP JUMPDEST SWAP3 POP POP POP JUMPDEST SWAP4 SWAP3 POP POP POP JUMP JUMPDEST POP DUP1 SLOAD PUSH2 0x1C82 SWAP1 PUSH2 0x288E JUMP JUMPDEST PUSH1 0x0 DUP3 SSTORE DUP1 PUSH1 0x1F LT PUSH2 0x1C94 JUMPI POP PUSH2 0x1CB3 JUMP JUMPDEST PUSH1 0x1F ADD PUSH1 0x20 SWAP1 DIV SWAP1 PUSH1 0x0 MSTORE PUSH1 0x20 PUSH1 0x0 KECCAK256 SWAP1 DUP2 ADD SWAP1 PUSH2 0x1CB2 SWAP2 SWAP1 PUSH2 0x1ECB JUMP JUMPDEST JUMPDEST POP JUMP JUMPDEST DUP3 DUP1 SLOAD PUSH2 0x1CC2 SWAP1 PUSH2 0x288E JUMP JUMPDEST SWAP1 PUSH1 0x0 MSTORE PUSH1 0x20 PUSH1 0x0 KECCAK256 SWAP1 PUSH1 0x1F ADD PUSH1 0x20 SWAP1 DIV DUP2 ADD SWAP3 DUP3 PUSH2 0x1CE4 JUMPI PUSH1 0x0 DUP6 SSTORE PUSH2 0x1D2B JUMP JUMPDEST DUP3 PUSH1 0x1F LT PUSH2 0x1CFD JUMPI DUP1 MLOAD PUSH1 0xFF NOT AND DUP4 DUP1 ADD OR DUP6 SSTORE PUSH2 0x1D2B JUMP JUMPDEST DUP3 DUP1 ADD PUSH1 0x1 ADD DUP6 SSTORE DUP3 ISZERO PUSH2 0x1D2B JUMPI SWAP2 DUP3 ADD JUMPDEST DUP3 DUP2 GT ISZERO PUSH2 0x1D2A JUMPI DUP3 MLOAD DUP3 SSTORE SWAP2 PUSH1 0x20 ADD SWAP2 SWAP1 PUSH1 0x1 ADD SWAP1 PUSH2 0x1D0F JUMP JUMPDEST JUMPDEST POP SWAP1 POP PUSH2 0x1D38 SWAP2 SWAP1 PUSH2 0x1ECB JUMP JUMPDEST POP SWAP1 JUMP JUMPDEST PUSH1 0x40 MLOAD DUP1 PUSH1 0x60 ADD PUSH1 0x40 MSTORE DUP1 PUSH1 0x60 DUP2 MSTORE PUSH1 0x20 ADD PUSH1 0x0 PUSH20 0xFFFFFFFFFFFFFFFFFFFFFFFFFFFFFFFFFFFFFFFF AND DUP2 MSTORE PUSH1 0x20 ADD PUSH1 0x0 ISZERO ISZERO DUP2 MSTORE POP SWAP1 JUMP JUMPDEST PUSH1 0x40 MLOAD DUP1 PUSH1 0x40 ADD PUSH1 0x40 MSTORE DUP1 PUSH1 0x0 PUSH1 0xFF AND DUP2 MSTORE PUSH1 0x20 ADD PUSH1 0x0 PUSH1 0xFF AND DUP2 MSTORE POP SWAP1 JUMP JUMPDEST PUSH1 0x40 MLOAD DUP1 PUSH1 0x40 ADD PUSH1 0x40 MSTORE DUP1 PUSH1 0x0 PUSH4 0xFFFFFFFF AND DUP2 MSTORE PUSH1 0x20 ADD PUSH1 0x0 PUSH4 0xFFFFFFFF AND DUP2 MSTORE POP SWAP1 JUMP JUMPDEST PUSH1 0x40 MLOAD DUP1 PUSH1 0xA0 ADD PUSH1 0x40 MSTORE DUP1 PUSH1 0x0 PUSH4 0xFFFFFFFF AND DUP2 MSTORE PUSH1 0x20 ADD PUSH1 0x0 PUSH1 0xFF AND DUP2 MSTORE PUSH1 0x20 ADD PUSH1 0x0 PUSH4 0xFFFFFFFF AND DUP2 MSTORE PUSH1 0x20 ADD PUSH1 0x0 PUSH4 0xFFFFFFFF AND DUP2 MSTORE PUSH1 0x20 ADD PUSH1 0x0 PUSH4 0xFFFFFFFF AND DUP2 MSTORE POP SWAP1 JUMP JUMPDEST PUSH1 0x40 MLOAD DUP1 PUSH1 0x40 ADD PUSH1 0x40 MSTORE DUP1 PUSH1 0x0 PUSH4 0xFFFFFFFF AND DUP2 MSTORE PUSH1 0x20 ADD PUSH1 0x0 PUSH4 0xFFFFFFFF AND DUP2 MSTORE POP SWAP1 JUMP JUMPDEST PUSH1 0x40 MLOAD DUP1 PUSH1 0x20 ADD PUSH1 0x40 MSTORE DUP1 PUSH1 0x60 DUP2 MSTORE POP SWAP1 JUMP JUMPDEST DUP3 DUP1 SLOAD PUSH2 0x1E4A SWAP1 PUSH2 0x288E JUMP JUMPDEST SWAP1 PUSH1 0x0 MSTORE PUSH1 0x20 PUSH1 0x0 KECCAK256 SWAP1 PUSH1 0x1F ADD PUSH1 0x20 SWAP1 DIV DUP2 ADD SWAP3 DUP3 PUSH2 0x1E6C JUMPI PUSH1 0x0 DUP6 SSTORE PUSH2 0x1EBA JUMP JUMPDEST DUP3 PUSH1 0x1F LT PUSH2 0x1E7D JUMPI DUP1 SLOAD DUP6 SSTORE PUSH2 0x1EBA JUMP JUMPDEST DUP3 DUP1 ADD PUSH1 0x1 ADD DUP6 SSTORE DUP3 ISZERO PUSH2 0x1EBA JUMPI PUSH1 0x0 MSTORE PUSH1 0x20 PUSH1 0x0 KECCAK256 SWAP2 PUSH1 0x1F ADD PUSH1 0x20 SWAP1 DIV DUP3 ADD JUMPDEST DUP3 DUP2 GT ISZERO PUSH2 0x1EB9 JUMPI DUP3 SLOAD DUP3 SSTORE SWAP2 PUSH1 0x1 ADD SWAP2 SWAP1 PUSH1 0x1 ADD SWAP1 PUSH2 0x1E9E JUMP JUMPDEST JUMPDEST POP SWAP1 POP PUSH2 0x1EC7 SWAP2 SWAP1 PUSH2 0x1ECB JUMP JUMPDEST POP SWAP1 JUMP JUMPDEST JUMPDEST DUP1 DUP3 GT ISZERO PUSH2 0x1EE4 JUMPI PUSH1 0x0 DUP2 PUSH1 0x0 SWAP1 SSTORE POP PUSH1 0x1 ADD PUSH2 0x1ECC JUMP JUMPDEST POP SWAP1 JUMP JUMPDEST PUSH1 0x0 PUSH1 0x40 MLOAD SWAP1 POP SWAP1 JUMP JUMPDEST PUSH1 0x0 DUP1 REVERT JUMPDEST PUSH1 0x0 DUP1 REVERT JUMPDEST PUSH1 0x0 PUSH4 0xFFFFFFFF DUP3 AND SWAP1 POP SWAP2 SWAP1 POP JUMP JUMPDEST PUSH2 0x1F15 DUP2 PUSH2 0x1EFC JUMP JUMPDEST DUP2 EQ PUSH2 0x1F20 JUMPI PUSH1 0x0 DUP1 REVERT JUMPDEST POP JUMP JUMPDEST PUSH1 0x0 DUP2 CALLDATALOAD SWAP1 POP PUSH2 0x1F32 DUP2 PUSH2 0x1F0C JUMP JUMPDEST SWAP3 SWAP2 POP POP JUMP JUMPDEST PUSH1 0x0 DUP1 REVERT JUMPDEST PUSH1 0x0 PUSH1 0x1F NOT PUSH1 0x1F DUP4 ADD AND SWAP1 POP SWAP2 SWAP1 POP JUMP JUMPDEST PUSH32 0x4E487B7100000000000000000000000000000000000000000000000000000000 PUSH1 0x0 MSTORE PUSH1 0x41 PUSH1 0x4 MSTORE PUSH1 0x24 PUSH1 0x0 REVERT JUMPDEST PUSH2 0x1F86 DUP3 PUSH2 0x1F3D JUMP JUMPDEST DUP2 ADD DUP2 DUP2 LT PUSH8 0xFFFFFFFFFFFFFFFF DUP3 GT OR ISZERO PUSH2 0x1FA5 JUMPI PUSH2 0x1FA4 PUSH2 0x1F4E JUMP JUMPDEST JUMPDEST DUP1 PUSH1 0x40 MSTORE POP POP POP JUMP JUMPDEST PUSH1 0x0 PUSH2 0x1FB8 PUSH2 0x1EE8 JUMP JUMPDEST SWAP1 POP PUSH2 0x1FC4 DUP3 DUP3 PUSH2 0x1F7D JUMP JUMPDEST SWAP2 SWAP1 POP JUMP JUMPDEST PUSH1 0x0 PUSH8 0xFFFFFFFFFFFFFFFF DUP3 GT ISZERO PUSH2 0x1FE4 JUMPI PUSH2 0x1FE3 PUSH2 0x1F4E JUMP JUMPDEST JUMPDEST PUSH1 0x20 DUP3 MUL SWAP1 POP PUSH1 0x20 DUP2 ADD SWAP1 POP SWAP2 SWAP1 POP JUMP JUMPDEST PUSH1 0x0 DUP1 REVERT JUMPDEST PUSH1 0x0 DUP2 ISZERO ISZERO SWAP1 POP SWAP2 SWAP1 POP JUMP JUMPDEST PUSH2 0x200F DUP2 PUSH2 0x1FFA JUMP JUMPDEST DUP2 EQ PUSH2 0x201A JUMPI PUSH1 0x0 DUP1 REVERT JUMPDEST POP JUMP JUMPDEST PUSH1 0x0 DUP2 CALLDATALOAD SWAP1 POP PUSH2 0x202C DUP2 PUSH2 0x2006 JUMP JUMPDEST SWAP3 SWAP2 POP POP JUMP JUMPDEST PUSH1 0x0 PUSH2 0x2045 PUSH2 0x2040 DUP5 PUSH2 0x1FC9 JUMP JUMPDEST PUSH2 0x1FAE JUMP JUMPDEST SWAP1 POP DUP1 DUP4 DUP3 MSTORE PUSH1 0x20 DUP3 ADD SWAP1 POP PUSH1 0x20 DUP5 MUL DUP4 ADD DUP6 DUP2 GT ISZERO PUSH2 0x2068 JUMPI PUSH2 0x2067 PUSH2 0x1FF5 JUMP JUMPDEST JUMPDEST DUP4 JUMPDEST DUP2 DUP2 LT ISZERO PUSH2 0x2091 JUMPI DUP1 PUSH2 0x207D DUP9 DUP3 PUSH2 0x201D JUMP JUMPDEST DUP5 MSTORE PUSH1 0x20 DUP5 ADD SWAP4 POP POP PUSH1 0x20 DUP2 ADD SWAP1 POP PUSH2 0x206A JUMP JUMPDEST POP POP POP SWAP4 SWAP3 POP POP POP JUMP JUMPDEST PUSH1 0x0 DUP3 PUSH1 0x1F DUP4 ADD SLT PUSH2 0x20B0 JUMPI PUSH2 0x20AF PUSH2 0x1F38 JUMP JUMPDEST JUMPDEST DUP2 CALLDATALOAD PUSH2 0x20C0 DUP5 DUP3 PUSH1 0x20 DUP7 ADD PUSH2 0x2032 JUMP JUMPDEST SWAP2 POP POP SWAP3 SWAP2 POP POP JUMP JUMPDEST PUSH1 0x0 DUP1 PUSH1 0x40 DUP4 DUP6 SUB SLT ISZERO PUSH2 0x20E0 JUMPI PUSH2 0x20DF PUSH2 0x1EF2 JUMP JUMPDEST JUMPDEST PUSH1 0x0 PUSH2 0x20EE DUP6 DUP3 DUP7 ADD PUSH2 0x1F23 JUMP JUMPDEST SWAP3 POP POP PUSH1 0x20 DUP4 ADD CALLDATALOAD PUSH8 0xFFFFFFFFFFFFFFFF DUP2 GT ISZERO PUSH2 0x210F JUMPI PUSH2 0x210E PUSH2 0x1EF7 JUMP JUMPDEST JUMPDEST PUSH2 0x211B DUP6 DUP3 DUP7 ADD PUSH2 0x209B JUMP JUMPDEST SWAP2 POP POP SWAP3 POP SWAP3 SWAP1 POP JUMP JUMPDEST PUSH2 0x212E DUP2 PUSH2 0x1FFA JUMP JUMPDEST DUP3 MSTORE POP POP JUMP JUMPDEST PUSH1 0x0 PUSH1 0x20 DUP3 ADD SWAP1 POP PUSH2 0x2149 PUSH1 0x0 DUP4 ADD DUP5 PUSH2 0x2125 JUMP JUMPDEST SWAP3 SWAP2 POP POP JUMP JUMPDEST PUSH1 0x0 DUP1 REVERT JUMPDEST PUSH1 0x0 PUSH8 0xFFFFFFFFFFFFFFFF DUP3 GT ISZERO PUSH2 0x216F JUMPI PUSH2 0x216E PUSH2 0x1F4E JUMP JUMPDEST JUMPDEST PUSH2 0x2178 DUP3 PUSH2 0x1F3D JUMP JUMPDEST SWAP1 POP PUSH1 0x20 DUP2 ADD SWAP1 POP SWAP2 SWAP1 POP JUMP JUMPDEST DUP3 DUP2 DUP4 CALLDATACOPY PUSH1 0x0 DUP4 DUP4 ADD MSTORE POP POP POP JUMP JUMPDEST PUSH1 0x0 PUSH2 0x21A7 PUSH2 0x21A2 DUP5 PUSH2 0x2154 JUMP JUMPDEST PUSH2 0x1FAE JUMP JUMPDEST SWAP1 POP DUP3 DUP2 MSTORE PUSH1 0x20 DUP2 ADD DUP5 DUP5 DUP5 ADD GT ISZERO PUSH2 0x21C3 JUMPI PUSH2 0x21C2 PUSH2 0x214F JUMP JUMPDEST JUMPDEST PUSH2 0x21CE DUP5 DUP3 DUP6 PUSH2 0x2185 JUMP JUMPDEST POP SWAP4 SWAP3 POP POP POP JUMP JUMPDEST PUSH1 0x0 DUP3 PUSH1 0x1F DUP4 ADD SLT PUSH2 0x21EB JUMPI PUSH2 0x21EA PUSH2 0x1F38 JUMP JUMPDEST JUMPDEST DUP2 CALLDATALOAD PUSH2 0x21FB DUP5 DUP3 PUSH1 0x20 DUP7 ADD PUSH2 0x2194 JUMP JUMPDEST SWAP2 POP POP SWAP3 SWAP2 POP POP JUMP JUMPDEST PUSH1 0x0 PUSH20 0xFFFFFFFFFFFFFFFFFFFFFFFFFFFFFFFFFFFFFFFF DUP3 AND SWAP1 POP SWAP2 SWAP1 POP JUMP JUMPDEST PUSH1 0x0 PUSH2 0x222F DUP3 PUSH2 0x2204 JUMP JUMPDEST SWAP1 POP SWAP2 SWAP1 POP JUMP JUMPDEST PUSH2 0x223F DUP2 PUSH2 0x2224 JUMP JUMPDEST DUP2 EQ PUSH2 0x224A JUMPI PUSH1 0x0 DUP1 REVERT JUMPDEST POP JUMP JUMPDEST PUSH1 0x0 DUP2 CALLDATALOAD SWAP1 POP PUSH2 0x225C DUP2 PUSH2 0x2236 JUMP JUMPDEST SWAP3 SWAP2 POP POP JUMP JUMPDEST PUSH1 0x0 DUP1 PUSH1 0x40 DUP4 DUP6 SUB SLT ISZERO PUSH2 0x2279 JUMPI PUSH2 0x2278 PUSH2 0x1EF2 JUMP JUMPDEST JUMPDEST PUSH1 0x0 DUP4 ADD CALLDATALOAD PUSH8 0xFFFFFFFFFFFFFFFF DUP2 GT ISZERO PUSH2 0x2297 JUMPI PUSH2 0x2296 PUSH2 0x1EF7 JUMP JUMPDEST JUMPDEST PUSH2 0x22A3 DUP6 DUP3 DUP7 ADD PUSH2 0x21D6 JUMP JUMPDEST SWAP3 POP POP PUSH1 0x20 PUSH2 0x22B4 DUP6 DUP3 DUP7 ADD PUSH2 0x224D JUMP JUMPDEST SWAP2 POP POP SWAP3 POP SWAP3 SWAP1 POP JUMP JUMPDEST PUSH2 0x22C7 DUP2 PUSH2 0x2224 JUMP JUMPDEST DUP3 MSTORE POP POP JUMP JUMPDEST PUSH1 0x0 PUSH1 0x20 DUP3 ADD SWAP1 POP PUSH2 0x22E2 PUSH1 0x0 DUP4 ADD DUP5 PUSH2 0x22BE JUMP JUMPDEST SWAP3 SWAP2 POP POP JUMP JUMPDEST PUSH1 0x0 PUSH1 0xFF DUP3 AND SWAP1 POP SWAP2 SWAP1 POP JUMP JUMPDEST PUSH2 0x22FE DUP2 PUSH2 0x22E8 JUMP JUMPDEST DUP2 EQ PUSH2 0x2309 JUMPI PUSH1 0x0 DUP1 REVERT JUMPDEST POP JUMP JUMPDEST PUSH1 0x0 DUP2 CALLDATALOAD SWAP1 POP PUSH2 0x231B DUP2 PUSH2 0x22F5 JUMP JUMPDEST SWAP3 SWAP2 POP POP JUMP JUMPDEST PUSH1 0x0 DUP1 PUSH1 0x0 PUSH1 0x60 DUP5 DUP7 SUB SLT ISZERO PUSH2 0x233A JUMPI PUSH2 0x2339 PUSH2 0x1EF2 JUMP JUMPDEST JUMPDEST PUSH1 0x0 PUSH2 0x2348 DUP7 DUP3 DUP8 ADD PUSH2 0x230C JUMP JUMPDEST SWAP4 POP POP PUSH1 0x20 PUSH2 0x2359 DUP7 DUP3 DUP8 ADD PUSH2 0x1F23 JUMP JUMPDEST SWAP3 POP POP PUSH1 0x40 PUSH2 0x236A DUP7 DUP3 DUP8 ADD PUSH2 0x1F23 JUMP JUMPDEST SWAP2 POP POP SWAP3 POP SWAP3 POP SWAP3 JUMP JUMPDEST PUSH1 0x0 PUSH1 0x20 DUP3 DUP5 SUB SLT ISZERO PUSH2 0x238A JUMPI PUSH2 0x2389 PUSH2 0x1EF2 JUMP JUMPDEST JUMPDEST PUSH1 0x0 PUSH2 0x2398 DUP5 DUP3 DUP6 ADD PUSH2 0x224D JUMP JUMPDEST SWAP2 POP POP SWAP3 SWAP2 POP POP JUMP JUMPDEST PUSH1 0x0 DUP2 MLOAD SWAP1 POP SWAP2 SWAP1 POP JUMP JUMPDEST PUSH1 0x0 DUP3 DUP3 MSTORE PUSH1 0x20 DUP3 ADD SWAP1 POP SWAP3 SWAP2 POP POP JUMP JUMPDEST PUSH1 0x0 JUMPDEST DUP4 DUP2 LT ISZERO PUSH2 0x23DB JUMPI DUP1 DUP3 ADD MLOAD DUP2 DUP5 ADD MSTORE PUSH1 0x20 DUP2 ADD SWAP1 POP PUSH2 0x23C0 JUMP JUMPDEST DUP4 DUP2 GT ISZERO PUSH2 0x23EA JUMPI PUSH1 0x0 DUP5 DUP5 ADD MSTORE JUMPDEST POP POP POP POP JUMP JUMPDEST PUSH1 0x0 PUSH2 0x23FB DUP3 PUSH2 0x23A1 JUMP JUMPDEST PUSH2 0x2405 DUP2 DUP6 PUSH2 0x23AC JUMP JUMPDEST SWAP4 POP PUSH2 0x2415 DUP2 DUP6 PUSH1 0x20 DUP7 ADD PUSH2 0x23BD JUMP JUMPDEST PUSH2 0x241E DUP2 PUSH2 0x1F3D JUMP JUMPDEST DUP5 ADD SWAP2 POP POP SWAP3 SWAP2 POP POP JUMP JUMPDEST PUSH2 0x2432 DUP2 PUSH2 0x2224 JUMP JUMPDEST DUP3 MSTORE POP POP JUMP JUMPDEST PUSH2 0x2441 DUP2 PUSH2 0x1FFA JUMP JUMPDEST DUP3 MSTORE POP POP JUMP JUMPDEST PUSH1 0x0 PUSH1 0x60 DUP4 ADD PUSH1 0x0 DUP4 ADD MLOAD DUP5 DUP3 SUB PUSH1 0x0 DUP7 ADD MSTORE PUSH2 0x2464 DUP3 DUP3 PUSH2 0x23F0 JUMP JUMPDEST SWAP2 POP POP PUSH1 0x20 DUP4 ADD MLOAD PUSH2 0x2479 PUSH1 0x20 DUP7 ADD DUP3 PUSH2 0x2429 JUMP JUMPDEST POP PUSH1 0x40 DUP4 ADD MLOAD PUSH2 0x248C PUSH1 0x40 DUP7 ADD DUP3 PUSH2 0x2438 JUMP JUMPDEST POP DUP1 SWAP2 POP POP SWAP3 SWAP2 POP POP JUMP JUMPDEST PUSH1 0x0 PUSH1 0x20 DUP3 ADD SWAP1 POP DUP2 DUP2 SUB PUSH1 0x0 DUP4 ADD MSTORE PUSH2 0x24B1 DUP2 DUP5 PUSH2 0x2447 JUMP JUMPDEST SWAP1 POP SWAP3 SWAP2 POP POP JUMP JUMPDEST PUSH1 0x0 DUP3 DUP3 MSTORE PUSH1 0x20 DUP3 ADD SWAP1 POP SWAP3 SWAP2 POP POP JUMP JUMPDEST PUSH32 0x5468697320636F6E747261637420697320646561637469766174656400000000 PUSH1 0x0 DUP3 ADD MSTORE POP JUMP JUMPDEST PUSH1 0x0 PUSH2 0x2500 PUSH1 0x1C DUP4 PUSH2 0x24B9 JUMP JUMPDEST SWAP2 POP PUSH2 0x250B DUP3 PUSH2 0x24CA JUMP JUMPDEST PUSH1 0x20 DUP3 ADD SWAP1 POP SWAP2 SWAP1 POP JUMP JUMPDEST PUSH1 0x0 PUSH1 0x20 DUP3 ADD SWAP1 POP DUP2 DUP2 SUB PUSH1 0x0 DUP4 ADD MSTORE PUSH2 0x252F DUP2 PUSH2 0x24F3 JUMP JUMPDEST SWAP1 POP SWAP2 SWAP1 POP JUMP JUMPDEST PUSH32 0x4F6E6C7920746865206170706C69636174696F6E2063616E2065786563757465 PUSH1 0x0 DUP3 ADD MSTORE PUSH32 0x2074686973206F7065726174696F6E0000000000000000000000000000000000 PUSH1 0x20 DUP3 ADD MSTORE POP JUMP JUMPDEST PUSH1 0x0 PUSH2 0x2592 PUSH1 0x2F DUP4 PUSH2 0x24B9 JUMP JUMPDEST SWAP2 POP PUSH2 0x259D DUP3 PUSH2 0x2536 JUMP JUMPDEST PUSH1 0x40 DUP3 ADD SWAP1 POP SWAP2 SWAP1 POP JUMP JUMPDEST PUSH1 0x0 PUSH1 0x20 DUP3 ADD SWAP1 POP DUP2 DUP2 SUB PUSH1 0x0 DUP4 ADD MSTORE PUSH2 0x25C1 DUP2 PUSH2 0x2585 JUMP JUMPDEST SWAP1 POP SWAP2 SWAP1 POP JUMP JUMPDEST PUSH32 0x4E487B7100000000000000000000000000000000000000000000000000000000 PUSH1 0x0 MSTORE PUSH1 0x32 PUSH1 0x4 MSTORE PUSH1 0x24 PUSH1 0x0 REVERT JUMPDEST PUSH32 0x5375636365737366756C20657865637574696F6E210000000000000000000000 PUSH1 0x0 DUP3 ADD MSTORE POP JUMP JUMPDEST PUSH1 0x0 PUSH2 0x262D PUSH1 0x15 DUP4 PUSH2 0x24B9 JUMP JUMPDEST SWAP2 POP PUSH2 0x2638 DUP3 PUSH2 0x25F7 JUMP JUMPDEST PUSH1 0x20 DUP3 ADD SWAP1 POP SWAP2 SWAP1 POP JUMP JUMPDEST PUSH1 0x0 PUSH1 0x20 DUP3 ADD SWAP1 POP DUP2 DUP2 SUB PUSH1 0x0 DUP4 ADD MSTORE PUSH2 0x265C DUP2 PUSH2 0x2620 JUMP JUMPDEST SWAP1 POP SWAP2 SWAP1 POP JUMP JUMPDEST PUSH32 0x436F6E646974696F6E7320646F206E6F74206D65657400000000000000000000 PUSH1 0x0 DUP3 ADD MSTORE POP JUMP JUMPDEST PUSH1 0x0 PUSH2 0x2699 PUSH1 0x16 DUP4 PUSH2 0x24B9 JUMP JUMPDEST SWAP2 POP PUSH2 0x26A4 DUP3 PUSH2 0x2663 JUMP JUMPDEST PUSH1 0x20 DUP3 ADD SWAP1 POP SWAP2 SWAP1 POP JUMP JUMPDEST PUSH1 0x0 PUSH1 0x20 DUP3 ADD SWAP1 POP DUP2 DUP2 SUB PUSH1 0x0 DUP4 ADD MSTORE PUSH2 0x26C8 DUP2 PUSH2 0x268C JUMP JUMPDEST SWAP1 POP SWAP2 SWAP1 POP JUMP JUMPDEST PUSH32 0x4F6E6C79207468652070726F636573732063616E206578656375746520746869 PUSH1 0x0 DUP3 ADD MSTORE PUSH32 0x73206F7065726174696F6E000000000000000000000000000000000000000000 PUSH1 0x20 DUP3 ADD MSTORE POP JUMP JUMPDEST PUSH1 0x0 PUSH2 0x272B PUSH1 0x2B DUP4 PUSH2 0x24B9 JUMP JUMPDEST SWAP2 POP PUSH2 0x2736 DUP3 PUSH2 0x26CF JUMP JUMPDEST PUSH1 0x40 DUP3 ADD SWAP1 POP SWAP2 SWAP1 POP JUMP JUMPDEST PUSH1 0x0 PUSH1 0x20 DUP3 ADD SWAP1 POP DUP2 DUP2 SUB PUSH1 0x0 DUP4 ADD MSTORE PUSH2 0x275A DUP2 PUSH2 0x271E JUMP JUMPDEST SWAP1 POP SWAP2 SWAP1 POP JUMP JUMPDEST PUSH32 0x4F6E6C79207468652070726F63657373206F7220746865206170706C69636174 PUSH1 0x0 DUP3 ADD MSTORE PUSH32 0x696F6E2063616E20657865637574652074686973206F7065726174696F6E0000 PUSH1 0x20 DUP3 ADD MSTORE POP JUMP JUMPDEST PUSH1 0x0 PUSH2 0x27BD PUSH1 0x3E DUP4 PUSH2 0x24B9 JUMP JUMPDEST SWAP2 POP PUSH2 0x27C8 DUP3 PUSH2 0x2761 JUMP JUMPDEST PUSH1 0x40 DUP3 ADD SWAP1 POP SWAP2 SWAP1 POP JUMP JUMPDEST PUSH1 0x0 PUSH1 0x20 DUP3 ADD SWAP1 POP DUP2 DUP2 SUB PUSH1 0x0 DUP4 ADD MSTORE PUSH2 0x27EC DUP2 PUSH2 0x27B0 JUMP JUMPDEST SWAP1 POP SWAP2 SWAP1 POP JUMP JUMPDEST PUSH32 0x54686520636F6E747261637420697320616C7265616479207369676E65640000 PUSH1 0x0 DUP3 ADD MSTORE POP JUMP JUMPDEST PUSH1 0x0 PUSH2 0x2829 PUSH1 0x1E DUP4 PUSH2 0x24B9 JUMP JUMPDEST SWAP2 POP PUSH2 0x2834 DUP3 PUSH2 0x27F3 JUMP JUMPDEST PUSH1 0x20 DUP3 ADD SWAP1 POP SWAP2 SWAP1 POP JUMP JUMPDEST PUSH1 0x0 PUSH1 0x20 DUP3 ADD SWAP1 POP DUP2 DUP2 SUB PUSH1 0x0 DUP4 ADD MSTORE PUSH2 0x2858 DUP2 PUSH2 0x281C JUMP JUMPDEST SWAP1 POP SWAP2 SWAP1 POP JUMP JUMPDEST PUSH32 0x4E487B7100000000000000000000000000000000000000000000000000000000 PUSH1 0x0 MSTORE PUSH1 0x22 PUSH1 0x4 MSTORE PUSH1 0x24 PUSH1 0x0 REVERT JUMPDEST PUSH1 0x0 PUSH1 0x2 DUP3 DIV SWAP1 POP PUSH1 0x1 DUP3 AND DUP1 PUSH2 0x28A6 JUMPI PUSH1 0x7F DUP3 AND SWAP2 POP JUMPDEST PUSH1 0x20 DUP3 LT DUP2 SUB PUSH2 0x28B9 JUMPI PUSH2 0x28B8 PUSH2 0x285F JUMP JUMPDEST JUMPDEST POP SWAP2 SWAP1 POP JUMP JUMPDEST PUSH32 0x546865205F7374617274446179206E6F7420726570726573656E747320612076 PUSH1 0x0 DUP3 ADD MSTORE PUSH32 0x616C696420646179000000000000000000000000000000000000000000000000 PUSH1 0x20 DUP3 ADD MSTORE POP JUMP JUMPDEST PUSH1 0x0 PUSH2 0x291B PUSH1 0x28 DUP4 PUSH2 0x24B9 JUMP JUMPDEST SWAP2 POP PUSH2 0x2926 DUP3 PUSH2 0x28BF JUMP JUMPDEST PUSH1 0x40 DUP3 ADD SWAP1 POP SWAP2 SWAP1 POP JUMP JUMPDEST PUSH1 0x0 PUSH1 0x20 DUP3 ADD SWAP1 POP DUP2 DUP2 SUB PUSH1 0x0 DUP4 ADD MSTORE PUSH2 0x294A DUP2 PUSH2 0x290E JUMP JUMPDEST SWAP1 POP SWAP2 SWAP1 POP JUMP JUMPDEST PUSH32 0x546865205F656E64446179206E6F7420726570726573656E747320612076616C PUSH1 0x0 DUP3 ADD MSTORE PUSH32 0x6964206461790000000000000000000000000000000000000000000000000000 PUSH1 0x20 DUP3 ADD MSTORE POP JUMP JUMPDEST PUSH1 0x0 PUSH2 0x29AD PUSH1 0x26 DUP4 PUSH2 0x24B9 JUMP JUMPDEST SWAP2 POP PUSH2 0x29B8 DUP3 PUSH2 0x2951 JUMP JUMPDEST PUSH1 0x40 DUP3 ADD SWAP1 POP SWAP2 SWAP1 POP JUMP JUMPDEST PUSH1 0x0 PUSH1 0x20 DUP3 ADD SWAP1 POP DUP2 DUP2 SUB PUSH1 0x0 DUP4 ADD MSTORE PUSH2 0x29DC DUP2 PUSH2 0x29A0 JUMP JUMPDEST SWAP1 POP SWAP2 SWAP1 POP JUMP JUMPDEST PUSH32 0x5468657265206973206E6F20656E6454696D652073657420696E2074696D656F PUSH1 0x0 DUP3 ADD MSTORE PUSH32 0x7574000000000000000000000000000000000000000000000000000000000000 PUSH1 0x20 DUP3 ADD MSTORE POP JUMP JUMPDEST PUSH1 0x0 PUSH2 0x2A3F PUSH1 0x22 DUP4 PUSH2 0x24B9 JUMP JUMPDEST SWAP2 POP PUSH2 0x2A4A DUP3 PUSH2 0x29E3 JUMP JUMPDEST PUSH1 0x40 DUP3 ADD SWAP1 POP SWAP2 SWAP1 POP JUMP JUMPDEST PUSH1 0x0 PUSH1 0x20 DUP3 ADD SWAP1 POP DUP2 DUP2 SUB PUSH1 0x0 DUP4 ADD MSTORE PUSH2 0x2A6E DUP2 PUSH2 0x2A32 JUMP JUMPDEST SWAP1 POP SWAP2 SWAP1 POP JUMP JUMPDEST PUSH32 0x4E487B7100000000000000000000000000000000000000000000000000000000 PUSH1 0x0 MSTORE PUSH1 0x11 PUSH1 0x4 MSTORE PUSH1 0x24 PUSH1 0x0 REVERT JUMPDEST PUSH1 0x0 PUSH2 0x2AAF DUP3 PUSH2 0x1EFC JUMP JUMPDEST SWAP2 POP PUSH2 0x2ABA DUP4 PUSH2 0x1EFC JUMP JUMPDEST SWAP3 POP DUP3 DUP3 LT ISZERO PUSH2 0x2ACD JUMPI PUSH2 0x2ACC PUSH2 0x2A75 JUMP JUMPDEST JUMPDEST DUP3 DUP3 SUB SWAP1 POP SWAP3 SWAP2 POP POP JUMP JUMPDEST PUSH1 0x0 PUSH2 0x2AE3 DUP3 PUSH2 0x1EFC JUMP JUMPDEST SWAP2 POP PUSH2 0x2AEE DUP4 PUSH2 0x1EFC JUMP JUMPDEST SWAP3 POP DUP3 PUSH4 0xFFFFFFFF SUB DUP3 GT ISZERO PUSH2 0x2B07 JUMPI PUSH2 0x2B06 PUSH2 0x2A75 JUMP JUMPDEST JUMPDEST DUP3 DUP3 ADD SWAP1 POP SWAP3 SWAP2 POP POP JUMP JUMPDEST PUSH32 0x546865206D6574686F642067657454696D65496E5365636F6E647320646F6573 PUSH1 0x0 DUP3 ADD MSTORE PUSH32 0x6E277420776F726B20666F72204D4F4E544820616E6420594541520000000000 PUSH1 0x20 DUP3 ADD MSTORE POP JUMP JUMPDEST PUSH1 0x0 PUSH2 0x2B6E PUSH1 0x3B DUP4 PUSH2 0x24B9 JUMP JUMPDEST SWAP2 POP PUSH2 0x2B79 DUP3 PUSH2 0x2B12 JUMP JUMPDEST PUSH1 0x40 DUP3 ADD SWAP1 POP SWAP2 SWAP1 POP JUMP JUMPDEST PUSH1 0x0 PUSH1 0x20 DUP3 ADD SWAP1 POP DUP2 DUP2 SUB PUSH1 0x0 DUP4 ADD MSTORE PUSH2 0x2B9D DUP2 PUSH2 0x2B61 JUMP JUMPDEST SWAP1 POP SWAP2 SWAP1 POP JUMP JUMPDEST PUSH1 0x0 DUP2 SWAP1 POP SWAP2 SWAP1 POP JUMP JUMPDEST PUSH1 0x0 PUSH2 0x2BB9 DUP3 PUSH2 0x2BA4 JUMP JUMPDEST SWAP2 POP PUSH32 0xFFFFFFFFFFFFFFFFFFFFFFFFFFFFFFFFFFFFFFFFFFFFFFFFFFFFFFFFFFFFFFFF DUP3 SUB PUSH2 0x2BEB JUMPI PUSH2 0x2BEA PUSH2 0x2A75 JUMP JUMPDEST JUMPDEST PUSH1 0x1 DUP3 ADD SWAP1 POP SWAP2 SWAP1 POP JUMP JUMPDEST PUSH32 0x4E487B7100000000000000000000000000000000000000000000000000000000 PUSH1 0x0 MSTORE PUSH1 0x12 PUSH1 0x4 MSTORE PUSH1 0x24 PUSH1 0x0 REVERT JUMPDEST PUSH1 0x0 PUSH2 0x2C30 DUP3 PUSH2 0x2BA4 JUMP JUMPDEST SWAP2 POP PUSH2 0x2C3B DUP4 PUSH2 0x2BA4 JUMP JUMPDEST SWAP3 POP DUP3 PUSH2 0x2C4B JUMPI PUSH2 0x2C4A PUSH2 0x2BF6 JUMP JUMPDEST JUMPDEST DUP3 DUP3 DIV SWAP1 POP SWAP3 SWAP2 POP POP JUMP JUMPDEST PUSH1 0x0 PUSH2 0x2C61 DUP3 PUSH2 0x2BA4 JUMP JUMPDEST SWAP2 POP PUSH2 0x2C6C DUP4 PUSH2 0x2BA4 JUMP JUMPDEST SWAP3 POP DUP3 DUP3 LT ISZERO PUSH2 0x2C7F JUMPI PUSH2 0x2C7E PUSH2 0x2A75 JUMP JUMPDEST JUMPDEST DUP3 DUP3 SUB SWAP1 POP SWAP3 SWAP2 POP POP JUMP JUMPDEST PUSH1 0x0 PUSH2 0x2C95 DUP3 PUSH2 0x2BA4 JUMP JUMPDEST SWAP2 POP PUSH2 0x2CA0 DUP4 PUSH2 0x2BA4 JUMP JUMPDEST SWAP3 POP DUP3 PUSH2 0x2CB0 JUMPI PUSH2 0x2CAF PUSH2 0x2BF6 JUMP JUMPDEST JUMPDEST DUP3 DUP3 MOD SWAP1 POP SWAP3 SWAP2 POP POP JUMP JUMPDEST PUSH1 0x0 PUSH2 0x2CC6 DUP3 PUSH2 0x2BA4 JUMP JUMPDEST SWAP2 POP PUSH2 0x2CD1 DUP4 PUSH2 0x2BA4 JUMP JUMPDEST SWAP3 POP DUP3 PUSH32 0xFFFFFFFFFFFFFFFFFFFFFFFFFFFFFFFFFFFFFFFFFFFFFFFFFFFFFFFFFFFFFFFF SUB DUP3 GT ISZERO PUSH2 0x2D06 JUMPI PUSH2 0x2D05 PUSH2 0x2A75 JUMP JUMPDEST JUMPDEST DUP3 DUP3 ADD SWAP1 POP SWAP3 SWAP2 POP POP JUMP JUMPDEST PUSH1 0x0 PUSH2 0x2D1C DUP3 PUSH2 0x1EFC JUMP JUMPDEST SWAP2 POP PUSH2 0x2D27 DUP4 PUSH2 0x1EFC JUMP JUMPDEST SWAP3 POP DUP2 PUSH4 0xFFFFFFFF DIV DUP4 GT DUP3 ISZERO ISZERO AND ISZERO PUSH2 0x2D44 JUMPI PUSH2 0x2D43 PUSH2 0x2A75 JUMP JUMPDEST JUMPDEST DUP3 DUP3 MUL SWAP1 POP SWAP3 SWAP2 POP POP JUMP JUMPDEST PUSH1 0x0 PUSH2 0x2D5A DUP3 PUSH2 0x1EFC JUMP JUMPDEST SWAP2 POP PUSH2 0x2D65 DUP4 PUSH2 0x1EFC JUMP JUMPDEST SWAP3 POP DUP3 PUSH2 0x2D75 JUMPI PUSH2 0x2D74 PUSH2 0x2BF6 JUMP JUMPDEST JUMPDEST DUP3 DUP3 DIV SWAP1 POP SWAP3 SWAP2 POP POP JUMP JUMPDEST PUSH1 0x0 PUSH2 0x2D8B DUP3 PUSH2 0x1EFC JUMP JUMPDEST SWAP2 POP PUSH2 0x2D96 DUP4 PUSH2 0x1EFC JUMP JUMPDEST SWAP3 POP DUP3 PUSH2 0x2DA6 JUMPI PUSH2 0x2DA5 PUSH2 0x2BF6 JUMP JUMPDEST JUMPDEST DUP3 DUP3 MOD SWAP1 POP SWAP3 SWAP2 POP POP JUMP INVALID LOG2 PUSH5 0x6970667358 0x22 SLT KECCAK256 PUSH17 0x451CF9B4D2E2E7C94D42E0CC7FFF6A528D GT PUSH8 0x44F7833D55DC3DD2 0xC2 PUSH16 0x6AC464736F6C634300080D0033636F75 PUSH15 0x74282F2F626F64792F726571756573 PUSH21 0x2F646F63756D656E7429203D3D20636F756E74282F 0x2F PUSH3 0x6F6479 0x2F PUSH19 0x6573706F6E73652F646F63756D656E74290000 "
				},
				"gasEstimates": {
					"creation": {
						"codeDepositCost": "2350200",
						"executionCost": "infinite",
						"totalCost": "infinite"
					},
					"external": {
						"changeApplicationParty(string,address)": "infinite",
						"getApplicationAddress()": "9083",
						"getParty(address)": "infinite",
						"getProcessAddress()": "9038",
						"obligation_responseWorks(uint32,bool[])": "infinite",
						"right_requestAllWorks(uint8,uint32,uint32)": "infinite",
						"signContract()": "infinite"
					},
					"internal": {
						"updateMapParty(address,struct EAI.Party storage pointer)": "infinite"
					}
				},
				"methodIdentifiers": {
					"changeApplicationParty(string,address)": "5e744c6a",
					"getApplicationAddress()": "70d8915a",
					"getParty(address)": "fb6f8243",
					"getProcessAddress()": "85931911",
					"obligation_responseWorks(uint32,bool[])": "22d53d53",
					"right_requestAllWorks(uint8,uint32,uint32)": "9c764223",
					"signContract()": "b8b4f1a0"
				}
			},
			"storageLayout": {
				"storage": [
					{
						"astId": 2004,
						"contract": "contracts/study-case-contracts/002-orcid/Orcid.sol:Orcid",
						"label": "activated",
						"offset": 0,
						"slot": "0",
						"type": "t_bool"
					},
					{
						"astId": 2006,
						"contract": "contracts/study-case-contracts/002-orcid/Orcid.sol:Orcid",
						"label": "beginDate",
						"offset": 1,
						"slot": "0",
						"type": "t_uint32"
					},
					{
						"astId": 2008,
						"contract": "contracts/study-case-contracts/002-orcid/Orcid.sol:Orcid",
						"label": "dueDate",
						"offset": 5,
						"slot": "0",
						"type": "t_uint32"
					},
					{
						"astId": 2015,
						"contract": "contracts/study-case-contracts/002-orcid/Orcid.sol:Orcid",
						"label": "application",
						"offset": 0,
						"slot": "1",
						"type": "t_struct(Party)69_storage"
					},
					{
						"astId": 2018,
						"contract": "contracts/study-case-contracts/002-orcid/Orcid.sol:Orcid",
						"label": "process",
						"offset": 0,
						"slot": "3",
						"type": "t_struct(Party)69_storage"
					},
					{
						"astId": 2023,
						"contract": "contracts/study-case-contracts/002-orcid/Orcid.sol:Orcid",
						"label": "mapParty",
						"offset": 0,
						"slot": "5",
						"type": "t_mapping(t_address,t_struct(Party)69_storage)"
					},
					{
						"astId": 2055,
						"contract": "contracts/study-case-contracts/002-orcid/Orcid.sol:Orcid",
						"label": "weekDaysInterval_C1",
						"offset": 0,
						"slot": "6",
						"type": "t_array(t_struct(WeekDaysInterval)154_storage)dyn_storage"
					},
					{
						"astId": 2059,
						"contract": "contracts/study-case-contracts/002-orcid/Orcid.sol:Orcid",
						"label": "timeInterval_C1",
						"offset": 0,
						"slot": "7",
						"type": "t_array(t_struct(TimeInterval)376_storage)dyn_storage"
					},
					{
						"astId": 2063,
						"contract": "contracts/study-case-contracts/002-orcid/Orcid.sol:Orcid",
						"label": "maxNumberOfOperationByTime_C1",
						"offset": 0,
						"slot": "8",
						"type": "t_array(t_struct(MaxNumberOfOperationByTime)772_storage)dyn_storage"
					},
					{
						"astId": 2067,
						"contract": "contracts/study-case-contracts/002-orcid/Orcid.sol:Orcid",
						"label": "timeout_C2",
						"offset": 0,
						"slot": "9",
						"type": "t_array(t_struct(Timeout)598_storage)dyn_storage"
					},
					{
						"astId": 2071,
						"contract": "contracts/study-case-contracts/002-orcid/Orcid.sol:Orcid",
						"label": "msgContent_onlyPath_C2",
						"offset": 0,
						"slot": "10",
						"type": "t_array(t_struct(MessageContent_onlyXPath)902_storage)dyn_storage"
					}
				],
				"types": {
					"t_address": {
						"encoding": "inplace",
						"label": "address",
						"numberOfBytes": "20"
					},
					"t_array(t_struct(MaxNumberOfOperationByTime)772_storage)dyn_storage": {
						"base": "t_struct(MaxNumberOfOperationByTime)772_storage",
						"encoding": "dynamic_array",
						"label": "struct EAI.MaxNumberOfOperationByTime[]",
						"numberOfBytes": "32"
					},
					"t_array(t_struct(MessageContent_onlyXPath)902_storage)dyn_storage": {
						"base": "t_struct(MessageContent_onlyXPath)902_storage",
						"encoding": "dynamic_array",
						"label": "struct EAI.MessageContent_onlyXPath[]",
						"numberOfBytes": "32"
					},
					"t_array(t_struct(TimeInterval)376_storage)dyn_storage": {
						"base": "t_struct(TimeInterval)376_storage",
						"encoding": "dynamic_array",
						"label": "struct EAI.TimeInterval[]",
						"numberOfBytes": "32"
					},
					"t_array(t_struct(Timeout)598_storage)dyn_storage": {
						"base": "t_struct(Timeout)598_storage",
						"encoding": "dynamic_array",
						"label": "struct EAI.Timeout[]",
						"numberOfBytes": "32"
					},
					"t_array(t_struct(WeekDaysInterval)154_storage)dyn_storage": {
						"base": "t_struct(WeekDaysInterval)154_storage",
						"encoding": "dynamic_array",
						"label": "struct EAI.WeekDaysInterval[]",
						"numberOfBytes": "32"
					},
					"t_bool": {
						"encoding": "inplace",
						"label": "bool",
						"numberOfBytes": "1"
					},
					"t_mapping(t_address,t_struct(Party)69_storage)": {
						"encoding": "mapping",
						"key": "t_address",
						"label": "mapping(address => struct EAI.Party)",
						"numberOfBytes": "32",
						"value": "t_struct(Party)69_storage"
					},
					"t_string_storage": {
						"encoding": "bytes",
						"label": "string",
						"numberOfBytes": "32"
					},
					"t_struct(MaxNumberOfOperationByTime)772_storage": {
						"encoding": "inplace",
						"label": "struct EAI.MaxNumberOfOperationByTime",
						"members": [
							{
								"astId": 763,
								"contract": "contracts/study-case-contracts/002-orcid/Orcid.sol:Orcid",
								"label": "amount",
								"offset": 0,
								"slot": "0",
								"type": "t_uint32"
							},
							{
								"astId": 765,
								"contract": "contracts/study-case-contracts/002-orcid/Orcid.sol:Orcid",
								"label": "timeUnit",
								"offset": 4,
								"slot": "0",
								"type": "t_uint8"
							},
							{
								"astId": 767,
								"contract": "contracts/study-case-contracts/002-orcid/Orcid.sol:Orcid",
								"label": "byTime",
								"offset": 5,
								"slot": "0",
								"type": "t_uint32"
							},
							{
								"astId": 769,
								"contract": "contracts/study-case-contracts/002-orcid/Orcid.sol:Orcid",
								"label": "rest",
								"offset": 9,
								"slot": "0",
								"type": "t_uint32"
							},
							{
								"astId": 771,
								"contract": "contracts/study-case-contracts/002-orcid/Orcid.sol:Orcid",
								"label": "endTime",
								"offset": 13,
								"slot": "0",
								"type": "t_uint32"
							}
						],
						"numberOfBytes": "32"
					},
					"t_struct(MessageContent_onlyXPath)902_storage": {
						"encoding": "inplace",
						"label": "struct EAI.MessageContent_onlyXPath",
						"members": [
							{
								"astId": 901,
								"contract": "contracts/study-case-contracts/002-orcid/Orcid.sol:Orcid",
								"label": "xpath",
								"offset": 0,
								"slot": "0",
								"type": "t_string_storage"
							}
						],
						"numberOfBytes": "32"
					},
					"t_struct(Party)69_storage": {
						"encoding": "inplace",
						"label": "struct EAI.Party",
						"members": [
							{
								"astId": 64,
								"contract": "contracts/study-case-contracts/002-orcid/Orcid.sol:Orcid",
								"label": "name",
								"offset": 0,
								"slot": "0",
								"type": "t_string_storage"
							},
							{
								"astId": 66,
								"contract": "contracts/study-case-contracts/002-orcid/Orcid.sol:Orcid",
								"label": "walletAddress",
								"offset": 0,
								"slot": "1",
								"type": "t_address"
							},
							{
								"astId": 68,
								"contract": "contracts/study-case-contracts/002-orcid/Orcid.sol:Orcid",
								"label": "aware",
								"offset": 20,
								"slot": "1",
								"type": "t_bool"
							}
						],
						"numberOfBytes": "64"
					},
					"t_struct(TimeInterval)376_storage": {
						"encoding": "inplace",
						"label": "struct EAI.TimeInterval",
						"members": [
							{
								"astId": 373,
								"contract": "contracts/study-case-contracts/002-orcid/Orcid.sol:Orcid",
								"label": "start",
								"offset": 0,
								"slot": "0",
								"type": "t_uint32"
							},
							{
								"astId": 375,
								"contract": "contracts/study-case-contracts/002-orcid/Orcid.sol:Orcid",
								"label": "end",
								"offset": 4,
								"slot": "0",
								"type": "t_uint32"
							}
						],
						"numberOfBytes": "32"
					},
					"t_struct(Timeout)598_storage": {
						"encoding": "inplace",
						"label": "struct EAI.Timeout",
						"members": [
							{
								"astId": 595,
								"contract": "contracts/study-case-contracts/002-orcid/Orcid.sol:Orcid",
								"label": "endTime",
								"offset": 0,
								"slot": "0",
								"type": "t_uint32"
							},
							{
								"astId": 597,
								"contract": "contracts/study-case-contracts/002-orcid/Orcid.sol:Orcid",
								"label": "timeIncrement",
								"offset": 4,
								"slot": "0",
								"type": "t_uint32"
							}
						],
						"numberOfBytes": "32"
					},
					"t_struct(WeekDaysInterval)154_storage": {
						"encoding": "inplace",
						"label": "struct EAI.WeekDaysInterval",
						"members": [
							{
								"astId": 151,
								"contract": "contracts/study-case-contracts/002-orcid/Orcid.sol:Orcid",
								"label": "start",
								"offset": 0,
								"slot": "0",
								"type": "t_uint8"
							},
							{
								"astId": 153,
								"contract": "contracts/study-case-contracts/002-orcid/Orcid.sol:Orcid",
								"label": "end",
								"offset": 1,
								"slot": "0",
								"type": "t_uint8"
							}
						],
						"numberOfBytes": "32"
					},
					"t_uint32": {
						"encoding": "inplace",
						"label": "uint32",
						"numberOfBytes": "4"
					},
					"t_uint8": {
						"encoding": "inplace",
						"label": "uint8",
						"numberOfBytes": "1"
					}
				}
			},
			"userdoc": {
				"kind": "user",
				"methods": {},
				"version": 1
			}
		}
	}
}